{
	"data": {
		"bytecode": {
			"linkReferences": {},
			"object": "608060405234801561001057600080fd5b5060b28061001f6000396000f3fe608060405260043610601c5760003560e01c8063ed88c68e146021575b600080fd5b60276029565b005b600154341115607a57336000806101000a81548173ffffffffffffffffffffffffffffffffffffffff021916908373ffffffffffffffffffffffffffffffffffffffff160217905550346001819055505b56fea2646970667358221220e5fa28590bd7a4328b1b5b4c3ea491001e0cee40f583ad406b528021fd7e64ef64736f6c63430008120033",
			"opcodes": "PUSH1 0x80 PUSH1 0x40 MSTORE CALLVALUE DUP1 ISZERO PUSH2 0x10 JUMPI PUSH1 0x0 DUP1 REVERT JUMPDEST POP PUSH1 0xB2 DUP1 PUSH2 0x1F PUSH1 0x0 CODECOPY PUSH1 0x0 RETURN INVALID PUSH1 0x80 PUSH1 0x40 MSTORE PUSH1 0x4 CALLDATASIZE LT PUSH1 0x1C JUMPI PUSH1 0x0 CALLDATALOAD PUSH1 0xE0 SHR DUP1 PUSH4 0xED88C68E EQ PUSH1 0x21 JUMPI JUMPDEST PUSH1 0x0 DUP1 REVERT JUMPDEST PUSH1 0x27 PUSH1 0x29 JUMP JUMPDEST STOP JUMPDEST PUSH1 0x1 SLOAD CALLVALUE GT ISZERO PUSH1 0x7A JUMPI CALLER PUSH1 0x0 DUP1 PUSH2 0x100 EXP DUP2 SLOAD DUP2 PUSH20 0xFFFFFFFFFFFFFFFFFFFFFFFFFFFFFFFFFFFFFFFF MUL NOT AND SWAP1 DUP4 PUSH20 0xFFFFFFFFFFFFFFFFFFFFFFFFFFFFFFFFFFFFFFFF AND MUL OR SWAP1 SSTORE POP CALLVALUE PUSH1 0x1 DUP2 SWAP1 SSTORE POP JUMPDEST JUMP INVALID LOG2 PUSH5 0x6970667358 0x22 SLT KECCAK256 0xE5 STATICCALL 0x28 MSIZE SIGNEXTEND 0xD7 LOG4 ORIGIN DUP12 SHL JUMPDEST 0x4C RETURNDATACOPY LOG4 SWAP2 STOP 0x1E 0xC 0xEE BLOCKHASH CREATE2 DUP4 0xAD BLOCKHASH PUSH12 0x528021FD7E64EF64736F6C63 NUMBER STOP ADDMOD SLT STOP CALLER "
		},
		"gasEstimates": {
			"creation": {
				"codeDepositCost": "35600",
				"executionCost": "87",
				"totalCost": "35687"
			},
			"external": {
				"donate()": "48602"
			}
		},
		"methodIdentifiers": {
			"donate()": "ed88c68e"
		}
	},
	"abi": [
		{
			"inputs": [],
			"name": "donate",
			"outputs": [],
			"stateMutability": "payable",
			"type": "function"
		}
	]
}