{
	"data": {
		"bytecode": {
			"linkReferences": {},
			"object": "608060405234801561001057600080fd5b5061019a806100206000396000f3fe608060405234801561001057600080fd5b50600436106100365760003560e01c8063b4cb6cca1461003b578063d18e81b31461005a575b600080fd5b610043610078565b6040516100519291906100bd565b60405180910390f35b61006261009e565b60405161006f91906100e6565b60405180910390f35b600080426000819055506000546202a3006000546100969190610130565b915091509091565b60005481565b6000819050919050565b6100b7816100a4565b82525050565b60006040820190506100d260008301856100ae565b6100df60208301846100ae565b9392505050565b60006020820190506100fb60008301846100ae565b92915050565b7f4e487b7100000000000000000000000000000000000000000000000000000000600052601160045260246000fd5b600061013b826100a4565b9150610146836100a4565b925082820190508082111561015e5761015d610101565b5b9291505056fea264697066735822122038e6b13333e46eae25ded68bb0815118f6929e0a0daa463249cd4c67e6bfec6e64736f6c63430008120033",
			"opcodes": "PUSH1 0x80 PUSH1 0x40 MSTORE CALLVALUE DUP1 ISZERO PUSH2 0x10 JUMPI PUSH1 0x0 DUP1 REVERT JUMPDEST POP PUSH2 0x19A DUP1 PUSH2 0x20 PUSH1 0x0 CODECOPY PUSH1 0x0 RETURN INVALID PUSH1 0x80 PUSH1 0x40 MSTORE CALLVALUE DUP1 ISZERO PUSH2 0x10 JUMPI PUSH1 0x0 DUP1 REVERT JUMPDEST POP PUSH1 0x4 CALLDATASIZE LT PUSH2 0x36 JUMPI PUSH1 0x0 CALLDATALOAD PUSH1 0xE0 SHR DUP1 PUSH4 0xB4CB6CCA EQ PUSH2 0x3B JUMPI DUP1 PUSH4 0xD18E81B3 EQ PUSH2 0x5A JUMPI JUMPDEST PUSH1 0x0 DUP1 REVERT JUMPDEST PUSH2 0x43 PUSH2 0x78 JUMP JUMPDEST PUSH1 0x40 MLOAD PUSH2 0x51 SWAP3 SWAP2 SWAP1 PUSH2 0xBD JUMP JUMPDEST PUSH1 0x40 MLOAD DUP1 SWAP2 SUB SWAP1 RETURN JUMPDEST PUSH2 0x62 PUSH2 0x9E JUMP JUMPDEST PUSH1 0x40 MLOAD PUSH2 0x6F SWAP2 SWAP1 PUSH2 0xE6 JUMP JUMPDEST PUSH1 0x40 MLOAD DUP1 SWAP2 SUB SWAP1 RETURN JUMPDEST PUSH1 0x0 DUP1 TIMESTAMP PUSH1 0x0 DUP2 SWAP1 SSTORE POP PUSH1 0x0 SLOAD PUSH3 0x2A300 PUSH1 0x0 SLOAD PUSH2 0x96 SWAP2 SWAP1 PUSH2 0x130 JUMP JUMPDEST SWAP2 POP SWAP2 POP SWAP1 SWAP2 JUMP JUMPDEST PUSH1 0x0 SLOAD DUP2 JUMP JUMPDEST PUSH1 0x0 DUP2 SWAP1 POP SWAP2 SWAP1 POP JUMP JUMPDEST PUSH2 0xB7 DUP2 PUSH2 0xA4 JUMP JUMPDEST DUP3 MSTORE POP POP JUMP JUMPDEST PUSH1 0x0 PUSH1 0x40 DUP3 ADD SWAP1 POP PUSH2 0xD2 PUSH1 0x0 DUP4 ADD DUP6 PUSH2 0xAE JUMP JUMPDEST PUSH2 0xDF PUSH1 0x20 DUP4 ADD DUP5 PUSH2 0xAE JUMP JUMPDEST SWAP4 SWAP3 POP POP POP JUMP JUMPDEST PUSH1 0x0 PUSH1 0x20 DUP3 ADD SWAP1 POP PUSH2 0xFB PUSH1 0x0 DUP4 ADD DUP5 PUSH2 0xAE JUMP JUMPDEST SWAP3 SWAP2 POP POP JUMP JUMPDEST PUSH32 0x4E487B7100000000000000000000000000000000000000000000000000000000 PUSH1 0x0 MSTORE PUSH1 0x11 PUSH1 0x4 MSTORE PUSH1 0x24 PUSH1 0x0 REVERT JUMPDEST PUSH1 0x0 PUSH2 0x13B DUP3 PUSH2 0xA4 JUMP JUMPDEST SWAP2 POP PUSH2 0x146 DUP4 PUSH2 0xA4 JUMP JUMPDEST SWAP3 POP DUP3 DUP3 ADD SWAP1 POP DUP1 DUP3 GT ISZERO PUSH2 0x15E JUMPI PUSH2 0x15D PUSH2 0x101 JUMP JUMPDEST JUMPDEST SWAP3 SWAP2 POP POP JUMP INVALID LOG2 PUSH5 0x6970667358 0x22 SLT KECCAK256 CODESIZE 0xE6 0xB1 CALLER CALLER 0xE4 PUSH15 0xAE25DED68BB0815118F6929E0A0DAA CHAINID ORIGIN 0x49 0xCD 0x4C PUSH8 0xE6BFEC6E64736F6C PUSH4 0x43000812 STOP CALLER "
		},
		"gasEstimates": {
			"creation": {
				"codeDepositCost": "82000",
				"executionCost": "129",
				"totalCost": "82129"
			},
			"external": {
				"currentTime()": "2429",
				"timeSet()": "infinite"
			}
		},
		"methodIdentifiers": {
			"currentTime()": "d18e81b3",
			"timeSet()": "b4cb6cca"
		}
	},
	"abi": [
		{
			"inputs": [],
			"name": "currentTime",
			"outputs": [
				{
					"internalType": "uint256",
					"name": "",
					"type": "uint256"
				}
			],
			"stateMutability": "view",
			"type": "function"
		},
		{
			"inputs": [],
			"name": "timeSet",
			"outputs": [
				{
					"internalType": "uint256",
					"name": "",
					"type": "uint256"
				},
				{
					"internalType": "uint256",
					"name": "",
					"type": "uint256"
				}
			],
			"stateMutability": "nonpayable",
			"type": "function"
		}
	]
}