{
	"data": {
		"bytecode": {
			"linkReferences": {},
			"object": "608060405234801561001057600080fd5b5061046d806100206000396000f3fe608060405234801561001057600080fd5b50600436106100415760003560e01c8063dc3c141d14610046578063e4ada89c14610076578063fb596d07146100a6575b600080fd5b610060600480360381019061005b91906101aa565b6100d6565b60405161006d91906101f9565b60405180910390f35b610090600480360381019061008b91906101aa565b610109565b60405161009d91906101f9565b60405180910390f35b6100c060048036038101906100bb91906101aa565b61013c565b6040516100cd91906101f9565b60405180910390f35b60008282600a821080156100ea5750600a81105b6100f357600080fd5b83856100ff9190610376565b9250505092915050565b60008282600a8210801561011d5750600a81105b61012657600080fd5b838561013291906103c1565b9250505092915050565b60008282600a821080156101505750600a81105b61015957600080fd5b838561016591906103f5565b9250505092915050565b600080fd5b6000819050919050565b61018781610174565b811461019257600080fd5b50565b6000813590506101a48161017e565b92915050565b600080604083850312156101c1576101c061016f565b5b60006101cf85828601610195565b92505060206101e085828601610195565b9150509250929050565b6101f381610174565b82525050565b600060208201905061020e60008301846101ea565b92915050565b7f4e487b7100000000000000000000000000000000000000000000000000000000600052601160045260246000fd5b60008160011c9050919050565b6000808291508390505b600185111561029a5780860481111561027657610275610214565b5b60018516156102855780820291505b808102905061029385610243565b945061025a565b94509492505050565b6000826102b3576001905061036f565b816102c1576000905061036f565b81600181146102d757600281146102e157610310565b600191505061036f565b60ff8411156102f3576102f2610214565b5b8360020a91508482111561030a57610309610214565b5b5061036f565b5060208310610133831016604e8410600b84101617156103455782820a9050838111156103405761033f610214565b5b61036f565b6103528484846001610250565b9250905081840481111561036957610368610214565b5b81810290505b9392505050565b600061038182610174565b915061038c83610174565b92506103b97fffffffffffffffffffffffffffffffffffffffffffffffffffffffffffffffff84846102a3565b905092915050565b60006103cc82610174565b91506103d783610174565b92508282019050808211156103ef576103ee610214565b5b92915050565b600061040082610174565b915061040b83610174565b925082820261041981610174565b915082820484148315176104305761042f610214565b5b509291505056fea26469706673582212205fa8302b1df442e7ca5e72e71f903f507b953fbe09571f8517b01f8327bfaa8b64736f6c63430008120033",
			"opcodes": "PUSH1 0x80 PUSH1 0x40 MSTORE CALLVALUE DUP1 ISZERO PUSH2 0x10 JUMPI PUSH1 0x0 DUP1 REVERT JUMPDEST POP PUSH2 0x46D DUP1 PUSH2 0x20 PUSH1 0x0 CODECOPY PUSH1 0x0 RETURN INVALID PUSH1 0x80 PUSH1 0x40 MSTORE CALLVALUE DUP1 ISZERO PUSH2 0x10 JUMPI PUSH1 0x0 DUP1 REVERT JUMPDEST POP PUSH1 0x4 CALLDATASIZE LT PUSH2 0x41 JUMPI PUSH1 0x0 CALLDATALOAD PUSH1 0xE0 SHR DUP1 PUSH4 0xDC3C141D EQ PUSH2 0x46 JUMPI DUP1 PUSH4 0xE4ADA89C EQ PUSH2 0x76 JUMPI DUP1 PUSH4 0xFB596D07 EQ PUSH2 0xA6 JUMPI JUMPDEST PUSH1 0x0 DUP1 REVERT JUMPDEST PUSH2 0x60 PUSH1 0x4 DUP1 CALLDATASIZE SUB DUP2 ADD SWAP1 PUSH2 0x5B SWAP2 SWAP1 PUSH2 0x1AA JUMP JUMPDEST PUSH2 0xD6 JUMP JUMPDEST PUSH1 0x40 MLOAD PUSH2 0x6D SWAP2 SWAP1 PUSH2 0x1F9 JUMP JUMPDEST PUSH1 0x40 MLOAD DUP1 SWAP2 SUB SWAP1 RETURN JUMPDEST PUSH2 0x90 PUSH1 0x4 DUP1 CALLDATASIZE SUB DUP2 ADD SWAP1 PUSH2 0x8B SWAP2 SWAP1 PUSH2 0x1AA JUMP JUMPDEST PUSH2 0x109 JUMP JUMPDEST PUSH1 0x40 MLOAD PUSH2 0x9D SWAP2 SWAP1 PUSH2 0x1F9 JUMP JUMPDEST PUSH1 0x40 MLOAD DUP1 SWAP2 SUB SWAP1 RETURN JUMPDEST PUSH2 0xC0 PUSH1 0x4 DUP1 CALLDATASIZE SUB DUP2 ADD SWAP1 PUSH2 0xBB SWAP2 SWAP1 PUSH2 0x1AA JUMP JUMPDEST PUSH2 0x13C JUMP JUMPDEST PUSH1 0x40 MLOAD PUSH2 0xCD SWAP2 SWAP1 PUSH2 0x1F9 JUMP JUMPDEST PUSH1 0x40 MLOAD DUP1 SWAP2 SUB SWAP1 RETURN JUMPDEST PUSH1 0x0 DUP3 DUP3 PUSH1 0xA DUP3 LT DUP1 ISZERO PUSH2 0xEA JUMPI POP PUSH1 0xA DUP2 LT JUMPDEST PUSH2 0xF3 JUMPI PUSH1 0x0 DUP1 REVERT JUMPDEST DUP4 DUP6 PUSH2 0xFF SWAP2 SWAP1 PUSH2 0x376 JUMP JUMPDEST SWAP3 POP POP POP SWAP3 SWAP2 POP POP JUMP JUMPDEST PUSH1 0x0 DUP3 DUP3 PUSH1 0xA DUP3 LT DUP1 ISZERO PUSH2 0x11D JUMPI POP PUSH1 0xA DUP2 LT JUMPDEST PUSH2 0x126 JUMPI PUSH1 0x0 DUP1 REVERT JUMPDEST DUP4 DUP6 PUSH2 0x132 SWAP2 SWAP1 PUSH2 0x3C1 JUMP JUMPDEST SWAP3 POP POP POP SWAP3 SWAP2 POP POP JUMP JUMPDEST PUSH1 0x0 DUP3 DUP3 PUSH1 0xA DUP3 LT DUP1 ISZERO PUSH2 0x150 JUMPI POP PUSH1 0xA DUP2 LT JUMPDEST PUSH2 0x159 JUMPI PUSH1 0x0 DUP1 REVERT JUMPDEST DUP4 DUP6 PUSH2 0x165 SWAP2 SWAP1 PUSH2 0x3F5 JUMP JUMPDEST SWAP3 POP POP POP SWAP3 SWAP2 POP POP JUMP JUMPDEST PUSH1 0x0 DUP1 REVERT JUMPDEST PUSH1 0x0 DUP2 SWAP1 POP SWAP2 SWAP1 POP JUMP JUMPDEST PUSH2 0x187 DUP2 PUSH2 0x174 JUMP JUMPDEST DUP2 EQ PUSH2 0x192 JUMPI PUSH1 0x0 DUP1 REVERT JUMPDEST POP JUMP JUMPDEST PUSH1 0x0 DUP2 CALLDATALOAD SWAP1 POP PUSH2 0x1A4 DUP2 PUSH2 0x17E JUMP JUMPDEST SWAP3 SWAP2 POP POP JUMP JUMPDEST PUSH1 0x0 DUP1 PUSH1 0x40 DUP4 DUP6 SUB SLT ISZERO PUSH2 0x1C1 JUMPI PUSH2 0x1C0 PUSH2 0x16F JUMP JUMPDEST JUMPDEST PUSH1 0x0 PUSH2 0x1CF DUP6 DUP3 DUP7 ADD PUSH2 0x195 JUMP JUMPDEST SWAP3 POP POP PUSH1 0x20 PUSH2 0x1E0 DUP6 DUP3 DUP7 ADD PUSH2 0x195 JUMP JUMPDEST SWAP2 POP POP SWAP3 POP SWAP3 SWAP1 POP JUMP JUMPDEST PUSH2 0x1F3 DUP2 PUSH2 0x174 JUMP JUMPDEST DUP3 MSTORE POP POP JUMP JUMPDEST PUSH1 0x0 PUSH1 0x20 DUP3 ADD SWAP1 POP PUSH2 0x20E PUSH1 0x0 DUP4 ADD DUP5 PUSH2 0x1EA JUMP JUMPDEST SWAP3 SWAP2 POP POP JUMP JUMPDEST PUSH32 0x4E487B7100000000000000000000000000000000000000000000000000000000 PUSH1 0x0 MSTORE PUSH1 0x11 PUSH1 0x4 MSTORE PUSH1 0x24 PUSH1 0x0 REVERT JUMPDEST PUSH1 0x0 DUP2 PUSH1 0x1 SHR SWAP1 POP SWAP2 SWAP1 POP JUMP JUMPDEST PUSH1 0x0 DUP1 DUP3 SWAP2 POP DUP4 SWAP1 POP JUMPDEST PUSH1 0x1 DUP6 GT ISZERO PUSH2 0x29A JUMPI DUP1 DUP7 DIV DUP2 GT ISZERO PUSH2 0x276 JUMPI PUSH2 0x275 PUSH2 0x214 JUMP JUMPDEST JUMPDEST PUSH1 0x1 DUP6 AND ISZERO PUSH2 0x285 JUMPI DUP1 DUP3 MUL SWAP2 POP JUMPDEST DUP1 DUP2 MUL SWAP1 POP PUSH2 0x293 DUP6 PUSH2 0x243 JUMP JUMPDEST SWAP5 POP PUSH2 0x25A JUMP JUMPDEST SWAP5 POP SWAP5 SWAP3 POP POP POP JUMP JUMPDEST PUSH1 0x0 DUP3 PUSH2 0x2B3 JUMPI PUSH1 0x1 SWAP1 POP PUSH2 0x36F JUMP JUMPDEST DUP2 PUSH2 0x2C1 JUMPI PUSH1 0x0 SWAP1 POP PUSH2 0x36F JUMP JUMPDEST DUP2 PUSH1 0x1 DUP2 EQ PUSH2 0x2D7 JUMPI PUSH1 0x2 DUP2 EQ PUSH2 0x2E1 JUMPI PUSH2 0x310 JUMP JUMPDEST PUSH1 0x1 SWAP2 POP POP PUSH2 0x36F JUMP JUMPDEST PUSH1 0xFF DUP5 GT ISZERO PUSH2 0x2F3 JUMPI PUSH2 0x2F2 PUSH2 0x214 JUMP JUMPDEST JUMPDEST DUP4 PUSH1 0x2 EXP SWAP2 POP DUP5 DUP3 GT ISZERO PUSH2 0x30A JUMPI PUSH2 0x309 PUSH2 0x214 JUMP JUMPDEST JUMPDEST POP PUSH2 0x36F JUMP JUMPDEST POP PUSH1 0x20 DUP4 LT PUSH2 0x133 DUP4 LT AND PUSH1 0x4E DUP5 LT PUSH1 0xB DUP5 LT AND OR ISZERO PUSH2 0x345 JUMPI DUP3 DUP3 EXP SWAP1 POP DUP4 DUP2 GT ISZERO PUSH2 0x340 JUMPI PUSH2 0x33F PUSH2 0x214 JUMP JUMPDEST JUMPDEST PUSH2 0x36F JUMP JUMPDEST PUSH2 0x352 DUP5 DUP5 DUP5 PUSH1 0x1 PUSH2 0x250 JUMP JUMPDEST SWAP3 POP SWAP1 POP DUP2 DUP5 DIV DUP2 GT ISZERO PUSH2 0x369 JUMPI PUSH2 0x368 PUSH2 0x214 JUMP JUMPDEST JUMPDEST DUP2 DUP2 MUL SWAP1 POP JUMPDEST SWAP4 SWAP3 POP POP POP JUMP JUMPDEST PUSH1 0x0 PUSH2 0x381 DUP3 PUSH2 0x174 JUMP JUMPDEST SWAP2 POP PUSH2 0x38C DUP4 PUSH2 0x174 JUMP JUMPDEST SWAP3 POP PUSH2 0x3B9 PUSH32 0xFFFFFFFFFFFFFFFFFFFFFFFFFFFFFFFFFFFFFFFFFFFFFFFFFFFFFFFFFFFFFFFF DUP5 DUP5 PUSH2 0x2A3 JUMP JUMPDEST SWAP1 POP SWAP3 SWAP2 POP POP JUMP JUMPDEST PUSH1 0x0 PUSH2 0x3CC DUP3 PUSH2 0x174 JUMP JUMPDEST SWAP2 POP PUSH2 0x3D7 DUP4 PUSH2 0x174 JUMP JUMPDEST SWAP3 POP DUP3 DUP3 ADD SWAP1 POP DUP1 DUP3 GT ISZERO PUSH2 0x3EF JUMPI PUSH2 0x3EE PUSH2 0x214 JUMP JUMPDEST JUMPDEST SWAP3 SWAP2 POP POP JUMP JUMPDEST PUSH1 0x0 PUSH2 0x400 DUP3 PUSH2 0x174 JUMP JUMPDEST SWAP2 POP PUSH2 0x40B DUP4 PUSH2 0x174 JUMP JUMPDEST SWAP3 POP DUP3 DUP3 MUL PUSH2 0x419 DUP2 PUSH2 0x174 JUMP JUMPDEST SWAP2 POP DUP3 DUP3 DIV DUP5 EQ DUP4 ISZERO OR PUSH2 0x430 JUMPI PUSH2 0x42F PUSH2 0x214 JUMP JUMPDEST JUMPDEST POP SWAP3 SWAP2 POP POP JUMP INVALID LOG2 PUSH5 0x6970667358 0x22 SLT KECCAK256 0x5F 0xA8 ADDRESS 0x2B SAR DELEGATECALL TIMESTAMP 0xE7 0xCA 0x5E PUSH19 0xE71F903F507B953FBE09571F8517B01F8327BF 0xAA DUP12 PUSH5 0x736F6C6343 STOP ADDMOD SLT STOP CALLER "
		},
		"gasEstimates": {
			"creation": {
				"codeDepositCost": "226600",
				"executionCost": "269",
				"totalCost": "226869"
			},
			"external": {
				"addNum(uint256,uint256)": "infinite",
				"mulNum(uint256,uint256)": "infinite",
				"powerNum(uint256,uint256)": "infinite"
			}
		},
		"methodIdentifiers": {
			"addNum(uint256,uint256)": "e4ada89c",
			"mulNum(uint256,uint256)": "fb596d07",
			"powerNum(uint256,uint256)": "dc3c141d"
		}
	},
	"abi": [
		{
			"inputs": [
				{
					"internalType": "uint256",
					"name": "a",
					"type": "uint256"
				},
				{
					"internalType": "uint256",
					"name": "b",
					"type": "uint256"
				}
			],
			"name": "addNum",
			"outputs": [
				{
					"internalType": "uint256",
					"name": "",
					"type": "uint256"
				}
			],
			"stateMutability": "pure",
			"type": "function"
		},
		{
			"inputs": [
				{
					"internalType": "uint256",
					"name": "a",
					"type": "uint256"
				},
				{
					"internalType": "uint256",
					"name": "b",
					"type": "uint256"
				}
			],
			"name": "mulNum",
			"outputs": [
				{
					"internalType": "uint256",
					"name": "",
					"type": "uint256"
				}
			],
			"stateMutability": "pure",
			"type": "function"
		},
		{
			"inputs": [
				{
					"internalType": "uint256",
					"name": "a",
					"type": "uint256"
				},
				{
					"internalType": "uint256",
					"name": "b",
					"type": "uint256"
				}
			],
			"name": "powerNum",
			"outputs": [
				{
					"internalType": "uint256",
					"name": "",
					"type": "uint256"
				}
			],
			"stateMutability": "pure",
			"type": "function"
		}
	]
}