{
	"data": {
		"bytecode": {
			"linkReferences": {},
			"object": "608060405234801561001057600080fd5b50610429806100206000396000f3fe608060405234801561001057600080fd5b506004361061002b5760003560e01c8063cd81bef214610030575b600080fd5b61004a60048036038101906100459190610140565b610060565b604051610057919061017c565b60405180910390f35b600060018214806100715750600282145b8061007c5750600382145b156100955760028261008e9190610306565b9050610100565b60048214806100a45750600582145b806100af5750600682145b156100c8576002826100c19190610351565b9050610100565b60078214806100d75750600882145b806100e25750600982145b156100fb576003826100f491906103c2565b9050610100565b600090505b919050565b600080fd5b6000819050919050565b61011d8161010a565b811461012857600080fd5b50565b60008135905061013a81610114565b92915050565b60006020828403121561015657610155610105565b5b60006101648482850161012b565b91505092915050565b6101768161010a565b82525050565b6000602082019050610191600083018461016d565b92915050565b7f4e487b7100000000000000000000000000000000000000000000000000000000600052601160045260246000fd5b60008160011c9050919050565b6000808291508390505b600185111561021d578086048111156101f9576101f8610197565b5b60018516156102085780820291505b8081029050610216856101c6565b94506101dd565b94509492505050565b60008261023657600190506102f2565b8161024457600090506102f2565b816001811461025a576002811461026457610293565b60019150506102f2565b60ff84111561027657610275610197565b5b8360020a91508482111561028d5761028c610197565b5b506102f2565b5060208310610133831016604e8410600b84101617156102c85782820a9050838111156102c3576102c2610197565b5b6102f2565b6102d584848460016101d3565b925090508184048111156102ec576102eb610197565b5b81810290505b9392505050565b600060ff82169050919050565b60006103118261010a565b915061031c836102f9565b92506103497fffffffffffffffffffffffffffffffffffffffffffffffffffffffffffffffff8484610226565b905092915050565b600061035c8261010a565b91506103678361010a565b92508282026103758161010a565b9150828204841483151761038c5761038b610197565b5b5092915050565b7f4e487b7100000000000000000000000000000000000000000000000000000000600052601260045260246000fd5b60006103cd8261010a565b91506103d88361010a565b9250826103e8576103e7610393565b5b82820690509291505056fea26469706673582212209b74e97fd45e9f4c3ed2e49ca2d8be96dd478840eaf91bdf2c0102ce6243e7c864736f6c63430008120033",
			"opcodes": "PUSH1 0x80 PUSH1 0x40 MSTORE CALLVALUE DUP1 ISZERO PUSH2 0x10 JUMPI PUSH1 0x0 DUP1 REVERT JUMPDEST POP PUSH2 0x429 DUP1 PUSH2 0x20 PUSH1 0x0 CODECOPY PUSH1 0x0 RETURN INVALID PUSH1 0x80 PUSH1 0x40 MSTORE CALLVALUE DUP1 ISZERO PUSH2 0x10 JUMPI PUSH1 0x0 DUP1 REVERT JUMPDEST POP PUSH1 0x4 CALLDATASIZE LT PUSH2 0x2B JUMPI PUSH1 0x0 CALLDATALOAD PUSH1 0xE0 SHR DUP1 PUSH4 0xCD81BEF2 EQ PUSH2 0x30 JUMPI JUMPDEST PUSH1 0x0 DUP1 REVERT JUMPDEST PUSH2 0x4A PUSH1 0x4 DUP1 CALLDATASIZE SUB DUP2 ADD SWAP1 PUSH2 0x45 SWAP2 SWAP1 PUSH2 0x140 JUMP JUMPDEST PUSH2 0x60 JUMP JUMPDEST PUSH1 0x40 MLOAD PUSH2 0x57 SWAP2 SWAP1 PUSH2 0x17C JUMP JUMPDEST PUSH1 0x40 MLOAD DUP1 SWAP2 SUB SWAP1 RETURN JUMPDEST PUSH1 0x0 PUSH1 0x1 DUP3 EQ DUP1 PUSH2 0x71 JUMPI POP PUSH1 0x2 DUP3 EQ JUMPDEST DUP1 PUSH2 0x7C JUMPI POP PUSH1 0x3 DUP3 EQ JUMPDEST ISZERO PUSH2 0x95 JUMPI PUSH1 0x2 DUP3 PUSH2 0x8E SWAP2 SWAP1 PUSH2 0x306 JUMP JUMPDEST SWAP1 POP PUSH2 0x100 JUMP JUMPDEST PUSH1 0x4 DUP3 EQ DUP1 PUSH2 0xA4 JUMPI POP PUSH1 0x5 DUP3 EQ JUMPDEST DUP1 PUSH2 0xAF JUMPI POP PUSH1 0x6 DUP3 EQ JUMPDEST ISZERO PUSH2 0xC8 JUMPI PUSH1 0x2 DUP3 PUSH2 0xC1 SWAP2 SWAP1 PUSH2 0x351 JUMP JUMPDEST SWAP1 POP PUSH2 0x100 JUMP JUMPDEST PUSH1 0x7 DUP3 EQ DUP1 PUSH2 0xD7 JUMPI POP PUSH1 0x8 DUP3 EQ JUMPDEST DUP1 PUSH2 0xE2 JUMPI POP PUSH1 0x9 DUP3 EQ JUMPDEST ISZERO PUSH2 0xFB JUMPI PUSH1 0x3 DUP3 PUSH2 0xF4 SWAP2 SWAP1 PUSH2 0x3C2 JUMP JUMPDEST SWAP1 POP PUSH2 0x100 JUMP JUMPDEST PUSH1 0x0 SWAP1 POP JUMPDEST SWAP2 SWAP1 POP JUMP JUMPDEST PUSH1 0x0 DUP1 REVERT JUMPDEST PUSH1 0x0 DUP2 SWAP1 POP SWAP2 SWAP1 POP JUMP JUMPDEST PUSH2 0x11D DUP2 PUSH2 0x10A JUMP JUMPDEST DUP2 EQ PUSH2 0x128 JUMPI PUSH1 0x0 DUP1 REVERT JUMPDEST POP JUMP JUMPDEST PUSH1 0x0 DUP2 CALLDATALOAD SWAP1 POP PUSH2 0x13A DUP2 PUSH2 0x114 JUMP JUMPDEST SWAP3 SWAP2 POP POP JUMP JUMPDEST PUSH1 0x0 PUSH1 0x20 DUP3 DUP5 SUB SLT ISZERO PUSH2 0x156 JUMPI PUSH2 0x155 PUSH2 0x105 JUMP JUMPDEST JUMPDEST PUSH1 0x0 PUSH2 0x164 DUP5 DUP3 DUP6 ADD PUSH2 0x12B JUMP JUMPDEST SWAP2 POP POP SWAP3 SWAP2 POP POP JUMP JUMPDEST PUSH2 0x176 DUP2 PUSH2 0x10A JUMP JUMPDEST DUP3 MSTORE POP POP JUMP JUMPDEST PUSH1 0x0 PUSH1 0x20 DUP3 ADD SWAP1 POP PUSH2 0x191 PUSH1 0x0 DUP4 ADD DUP5 PUSH2 0x16D JUMP JUMPDEST SWAP3 SWAP2 POP POP JUMP JUMPDEST PUSH32 0x4E487B7100000000000000000000000000000000000000000000000000000000 PUSH1 0x0 MSTORE PUSH1 0x11 PUSH1 0x4 MSTORE PUSH1 0x24 PUSH1 0x0 REVERT JUMPDEST PUSH1 0x0 DUP2 PUSH1 0x1 SHR SWAP1 POP SWAP2 SWAP1 POP JUMP JUMPDEST PUSH1 0x0 DUP1 DUP3 SWAP2 POP DUP4 SWAP1 POP JUMPDEST PUSH1 0x1 DUP6 GT ISZERO PUSH2 0x21D JUMPI DUP1 DUP7 DIV DUP2 GT ISZERO PUSH2 0x1F9 JUMPI PUSH2 0x1F8 PUSH2 0x197 JUMP JUMPDEST JUMPDEST PUSH1 0x1 DUP6 AND ISZERO PUSH2 0x208 JUMPI DUP1 DUP3 MUL SWAP2 POP JUMPDEST DUP1 DUP2 MUL SWAP1 POP PUSH2 0x216 DUP6 PUSH2 0x1C6 JUMP JUMPDEST SWAP5 POP PUSH2 0x1DD JUMP JUMPDEST SWAP5 POP SWAP5 SWAP3 POP POP POP JUMP JUMPDEST PUSH1 0x0 DUP3 PUSH2 0x236 JUMPI PUSH1 0x1 SWAP1 POP PUSH2 0x2F2 JUMP JUMPDEST DUP2 PUSH2 0x244 JUMPI PUSH1 0x0 SWAP1 POP PUSH2 0x2F2 JUMP JUMPDEST DUP2 PUSH1 0x1 DUP2 EQ PUSH2 0x25A JUMPI PUSH1 0x2 DUP2 EQ PUSH2 0x264 JUMPI PUSH2 0x293 JUMP JUMPDEST PUSH1 0x1 SWAP2 POP POP PUSH2 0x2F2 JUMP JUMPDEST PUSH1 0xFF DUP5 GT ISZERO PUSH2 0x276 JUMPI PUSH2 0x275 PUSH2 0x197 JUMP JUMPDEST JUMPDEST DUP4 PUSH1 0x2 EXP SWAP2 POP DUP5 DUP3 GT ISZERO PUSH2 0x28D JUMPI PUSH2 0x28C PUSH2 0x197 JUMP JUMPDEST JUMPDEST POP PUSH2 0x2F2 JUMP JUMPDEST POP PUSH1 0x20 DUP4 LT PUSH2 0x133 DUP4 LT AND PUSH1 0x4E DUP5 LT PUSH1 0xB DUP5 LT AND OR ISZERO PUSH2 0x2C8 JUMPI DUP3 DUP3 EXP SWAP1 POP DUP4 DUP2 GT ISZERO PUSH2 0x2C3 JUMPI PUSH2 0x2C2 PUSH2 0x197 JUMP JUMPDEST JUMPDEST PUSH2 0x2F2 JUMP JUMPDEST PUSH2 0x2D5 DUP5 DUP5 DUP5 PUSH1 0x1 PUSH2 0x1D3 JUMP JUMPDEST SWAP3 POP SWAP1 POP DUP2 DUP5 DIV DUP2 GT ISZERO PUSH2 0x2EC JUMPI PUSH2 0x2EB PUSH2 0x197 JUMP JUMPDEST JUMPDEST DUP2 DUP2 MUL SWAP1 POP JUMPDEST SWAP4 SWAP3 POP POP POP JUMP JUMPDEST PUSH1 0x0 PUSH1 0xFF DUP3 AND SWAP1 POP SWAP2 SWAP1 POP JUMP JUMPDEST PUSH1 0x0 PUSH2 0x311 DUP3 PUSH2 0x10A JUMP JUMPDEST SWAP2 POP PUSH2 0x31C DUP4 PUSH2 0x2F9 JUMP JUMPDEST SWAP3 POP PUSH2 0x349 PUSH32 0xFFFFFFFFFFFFFFFFFFFFFFFFFFFFFFFFFFFFFFFFFFFFFFFFFFFFFFFFFFFFFFFF DUP5 DUP5 PUSH2 0x226 JUMP JUMPDEST SWAP1 POP SWAP3 SWAP2 POP POP JUMP JUMPDEST PUSH1 0x0 PUSH2 0x35C DUP3 PUSH2 0x10A JUMP JUMPDEST SWAP2 POP PUSH2 0x367 DUP4 PUSH2 0x10A JUMP JUMPDEST SWAP3 POP DUP3 DUP3 MUL PUSH2 0x375 DUP2 PUSH2 0x10A JUMP JUMPDEST SWAP2 POP DUP3 DUP3 DIV DUP5 EQ DUP4 ISZERO OR PUSH2 0x38C JUMPI PUSH2 0x38B PUSH2 0x197 JUMP JUMPDEST JUMPDEST POP SWAP3 SWAP2 POP POP JUMP JUMPDEST PUSH32 0x4E487B7100000000000000000000000000000000000000000000000000000000 PUSH1 0x0 MSTORE PUSH1 0x12 PUSH1 0x4 MSTORE PUSH1 0x24 PUSH1 0x0 REVERT JUMPDEST PUSH1 0x0 PUSH2 0x3CD DUP3 PUSH2 0x10A JUMP JUMPDEST SWAP2 POP PUSH2 0x3D8 DUP4 PUSH2 0x10A JUMP JUMPDEST SWAP3 POP DUP3 PUSH2 0x3E8 JUMPI PUSH2 0x3E7 PUSH2 0x393 JUMP JUMPDEST JUMPDEST DUP3 DUP3 MOD SWAP1 POP SWAP3 SWAP2 POP POP JUMP INVALID LOG2 PUSH5 0x6970667358 0x22 SLT KECCAK256 SWAP12 PUSH21 0xE97FD45E9F4C3ED2E49CA2D8BE96DD478840EAF91B 0xDF 0x2C ADD MUL 0xCE PUSH3 0x43E7C8 PUSH5 0x736F6C6343 STOP ADDMOD SLT STOP CALLER "
		},
		"gasEstimates": {
			"creation": {
				"codeDepositCost": "213000",
				"executionCost": "257",
				"totalCost": "213257"
			},
			"external": {
				"calculator2(uint256)": "infinite"
			}
		},
		"methodIdentifiers": {
			"calculator2(uint256)": "cd81bef2"
		}
	},
	"abi": [
		{
			"inputs": [
				{
					"internalType": "uint256",
					"name": "_n",
					"type": "uint256"
				}
			],
			"name": "calculator2",
			"outputs": [
				{
					"internalType": "uint256",
					"name": "",
					"type": "uint256"
				}
			],
			"stateMutability": "pure",
			"type": "function"
		}
	]
}