{
	"data": {
		"bytecode": {
			"linkReferences": {},
			"object": "608060405234801561001057600080fd5b5060076000819055506004600181905550610100806100306000396000f3fe6080604052348015600f57600080fd5b5060043610603c5760003560e01c80631fc376f7146041578063a1c51915146049578063d46300fd146063575b600080fd5b6047607d565b005b604f6087565b604051605a919060b1565b60405180910390f35b60696091565b6040516074919060b1565b60405180910390f35b6005600081905550565b6000600154905090565b60008054905090565b6000819050919050565b60ab81609a565b82525050565b600060208201905060c4600083018460a4565b9291505056fea26469706673582212206219cbb760d54b3be1c36c68d05282cf3c9df6c0cd4802792919a1e61b94269e64736f6c63430008120033",
			"opcodes": "PUSH1 0x80 PUSH1 0x40 MSTORE CALLVALUE DUP1 ISZERO PUSH2 0x10 JUMPI PUSH1 0x0 DUP1 REVERT JUMPDEST POP PUSH1 0x7 PUSH1 0x0 DUP2 SWAP1 SSTORE POP PUSH1 0x4 PUSH1 0x1 DUP2 SWAP1 SSTORE POP PUSH2 0x100 DUP1 PUSH2 0x30 PUSH1 0x0 CODECOPY PUSH1 0x0 RETURN INVALID PUSH1 0x80 PUSH1 0x40 MSTORE CALLVALUE DUP1 ISZERO PUSH1 0xF JUMPI PUSH1 0x0 DUP1 REVERT JUMPDEST POP PUSH1 0x4 CALLDATASIZE LT PUSH1 0x3C JUMPI PUSH1 0x0 CALLDATALOAD PUSH1 0xE0 SHR DUP1 PUSH4 0x1FC376F7 EQ PUSH1 0x41 JUMPI DUP1 PUSH4 0xA1C51915 EQ PUSH1 0x49 JUMPI DUP1 PUSH4 0xD46300FD EQ PUSH1 0x63 JUMPI JUMPDEST PUSH1 0x0 DUP1 REVERT JUMPDEST PUSH1 0x47 PUSH1 0x7D JUMP JUMPDEST STOP JUMPDEST PUSH1 0x4F PUSH1 0x87 JUMP JUMPDEST PUSH1 0x40 MLOAD PUSH1 0x5A SWAP2 SWAP1 PUSH1 0xB1 JUMP JUMPDEST PUSH1 0x40 MLOAD DUP1 SWAP2 SUB SWAP1 RETURN JUMPDEST PUSH1 0x69 PUSH1 0x91 JUMP JUMPDEST PUSH1 0x40 MLOAD PUSH1 0x74 SWAP2 SWAP1 PUSH1 0xB1 JUMP JUMPDEST PUSH1 0x40 MLOAD DUP1 SWAP2 SUB SWAP1 RETURN JUMPDEST PUSH1 0x5 PUSH1 0x0 DUP2 SWAP1 SSTORE POP JUMP JUMPDEST PUSH1 0x0 PUSH1 0x1 SLOAD SWAP1 POP SWAP1 JUMP JUMPDEST PUSH1 0x0 DUP1 SLOAD SWAP1 POP SWAP1 JUMP JUMPDEST PUSH1 0x0 DUP2 SWAP1 POP SWAP2 SWAP1 POP JUMP JUMPDEST PUSH1 0xAB DUP2 PUSH1 0x9A JUMP JUMPDEST DUP3 MSTORE POP POP JUMP JUMPDEST PUSH1 0x0 PUSH1 0x20 DUP3 ADD SWAP1 POP PUSH1 0xC4 PUSH1 0x0 DUP4 ADD DUP5 PUSH1 0xA4 JUMP JUMPDEST SWAP3 SWAP2 POP POP JUMP INVALID LOG2 PUSH5 0x6970667358 0x22 SLT KECCAK256 PUSH3 0x19CBB7 PUSH1 0xD5 0x4B EXTCODESIZE 0xE1 0xC3 PUSH13 0x68D05282CF3C9DF6C0CD480279 0x29 NOT LOG1 0xE6 SHL SWAP5 0x26 SWAP15 PUSH5 0x736F6C6343 STOP ADDMOD SLT STOP CALLER "
		},
		"gasEstimates": {
			"creation": {
				"codeDepositCost": "51200",
				"executionCost": "44327",
				"totalCost": "95527"
			},
			"external": {
				"getA()": "2459",
				"getB()": "2437",
				"setA()": "22236"
			}
		},
		"methodIdentifiers": {
			"getA()": "d46300fd",
			"getB()": "a1c51915",
			"setA()": "1fc376f7"
		}
	},
	"abi": [
		{
			"inputs": [],
			"stateMutability": "nonpayable",
			"type": "constructor"
		},
		{
			"inputs": [],
			"name": "getA",
			"outputs": [
				{
					"internalType": "uint256",
					"name": "",
					"type": "uint256"
				}
			],
			"stateMutability": "view",
			"type": "function"
		},
		{
			"inputs": [],
			"name": "getB",
			"outputs": [
				{
					"internalType": "uint256",
					"name": "",
					"type": "uint256"
				}
			],
			"stateMutability": "view",
			"type": "function"
		},
		{
			"inputs": [],
			"name": "setA",
			"outputs": [],
			"stateMutability": "nonpayable",
			"type": "function"
		}
	]
}