{
	"data": {
		"bytecode": {
			"linkReferences": {},
			"object": "608060405234801561001057600080fd5b506107ec806100206000396000f3fe608060405234801561001057600080fd5b506004361061009e5760003560e01c80634e744db2116100665780634e744db214610135578063d46300fd14610154578063d469d3f614610172578063de438f5c14610190578063fc0e6008146101af5761009e565b80631a14ff7a146100a357806329d4b881146100c1578063317e84d5146100dd57806340bb882d146100fb5780634c9262b414610117575b600080fd5b6100ab6101cd565b6040516100b8919061056a565b60405180910390f35b6100db60048036038101906100d691906105bd565b610225565b005b6100e5610251565b6040516100f291906105f9565b60405180910390f35b610115600480360381019061011091906105bd565b61029e565b005b61011f6102d1565b60405161012c91906105f9565b60405180910390f35b61013d61031e565b60405161014b929190610614565b60405180910390f35b61015c61035f565b60405161016991906106c1565b60405180910390f35b61017a6103aa565b60405161018791906105f9565b60405180910390f35b610198610404565b6040516101a6929190610614565b60405180910390f35b6101b7610444565b6040516101c491906105f9565b60405180910390f35b6060600580548060200260200160405190810160405280929190818152602001828054801561021b57602002820191906000526020600020905b815481526020019060010190808311610207575b5050505050905090565b600581908060018154018082558091505060019003906000526020600020016000909190919091505550565b60008060005b60048110156102965760008160048110610274576102736106dc565b5b015482610281919061073a565b9150808061028e9061076e565b915050610257565b508091505090565b806000600460008154809291906102b49061076e565b91905055600481106102c9576102c86106dc565b5b018190555050565b60008060005b600481101561031657600081600481106102f4576102f36106dc565b5b015482610301919061073a565b9150808061030e9061076e565b9150506102d7565b508091505090565b600080600080600190505b600681101561035357808261033e919061073a565b9150808061034b9061076e565b915050610329565b81819350935050509091565b610367610480565b60006004806020026040519081016040528092919082600480156103a0576020028201915b81548152602001906001019080831161038c575b5050505050905090565b60008060005b6005805490508110156103fc57600581815481106103d1576103d06106dc565b5b9060005260206000200154826103e7919061073a565b915080806103f49061076e565b9150506103b0565b508091505090565b600080600080600190505b60058111610438578082610423919061073a565b915080806104309061076e565b91505061040f565b81819350935050509091565b6000806000600190505b6006811015610478578082610463919061073a565b915080806104709061076e565b91505061044e565b508091505090565b6040518060800160405280600490602082028036833780820191505090505090565b600081519050919050565b600082825260208201905092915050565b6000819050602082019050919050565b6000819050919050565b6104e1816104ce565b82525050565b60006104f383836104d8565b60208301905092915050565b6000602082019050919050565b6000610517826104a2565b61052181856104ad565b935061052c836104be565b8060005b8381101561055d57815161054488826104e7565b975061054f836104ff565b925050600181019050610530565b5085935050505092915050565b60006020820190508181036000830152610584818461050c565b905092915050565b600080fd5b61059a816104ce565b81146105a557600080fd5b50565b6000813590506105b781610591565b92915050565b6000602082840312156105d3576105d261058c565b5b60006105e1848285016105a8565b91505092915050565b6105f3816104ce565b82525050565b600060208201905061060e60008301846105ea565b92915050565b600060408201905061062960008301856105ea565b61063660208301846105ea565b9392505050565b600060049050919050565b600081905092915050565b6000819050919050565b6000602082019050919050565b6106738161063d565b61067d8184610648565b925061068882610653565b8060005b838110156106b95781516106a087826104e7565b96506106ab8361065d565b92505060018101905061068c565b505050505050565b60006080820190506106d6600083018461066a565b92915050565b7f4e487b7100000000000000000000000000000000000000000000000000000000600052603260045260246000fd5b7f4e487b7100000000000000000000000000000000000000000000000000000000600052601160045260246000fd5b6000610745826104ce565b9150610750836104ce565b92508282019050808211156107685761076761070b565b5b92915050565b6000610779826104ce565b91507fffffffffffffffffffffffffffffffffffffffffffffffffffffffffffffffff82036107ab576107aa61070b565b5b60018201905091905056fea2646970667358221220f7b2572a81dfa3b5be57aab4ef136ae9a90fce4de914e4507fcd90ee2d0f845864736f6c63430008120033",
			"opcodes": "PUSH1 0x80 PUSH1 0x40 MSTORE CALLVALUE DUP1 ISZERO PUSH2 0x10 JUMPI PUSH1 0x0 DUP1 REVERT JUMPDEST POP PUSH2 0x7EC DUP1 PUSH2 0x20 PUSH1 0x0 CODECOPY PUSH1 0x0 RETURN INVALID PUSH1 0x80 PUSH1 0x40 MSTORE CALLVALUE DUP1 ISZERO PUSH2 0x10 JUMPI PUSH1 0x0 DUP1 REVERT JUMPDEST POP PUSH1 0x4 CALLDATASIZE LT PUSH2 0x9E JUMPI PUSH1 0x0 CALLDATALOAD PUSH1 0xE0 SHR DUP1 PUSH4 0x4E744DB2 GT PUSH2 0x66 JUMPI DUP1 PUSH4 0x4E744DB2 EQ PUSH2 0x135 JUMPI DUP1 PUSH4 0xD46300FD EQ PUSH2 0x154 JUMPI DUP1 PUSH4 0xD469D3F6 EQ PUSH2 0x172 JUMPI DUP1 PUSH4 0xDE438F5C EQ PUSH2 0x190 JUMPI DUP1 PUSH4 0xFC0E6008 EQ PUSH2 0x1AF JUMPI PUSH2 0x9E JUMP JUMPDEST DUP1 PUSH4 0x1A14FF7A EQ PUSH2 0xA3 JUMPI DUP1 PUSH4 0x29D4B881 EQ PUSH2 0xC1 JUMPI DUP1 PUSH4 0x317E84D5 EQ PUSH2 0xDD JUMPI DUP1 PUSH4 0x40BB882D EQ PUSH2 0xFB JUMPI DUP1 PUSH4 0x4C9262B4 EQ PUSH2 0x117 JUMPI JUMPDEST PUSH1 0x0 DUP1 REVERT JUMPDEST PUSH2 0xAB PUSH2 0x1CD JUMP JUMPDEST PUSH1 0x40 MLOAD PUSH2 0xB8 SWAP2 SWAP1 PUSH2 0x56A JUMP JUMPDEST PUSH1 0x40 MLOAD DUP1 SWAP2 SUB SWAP1 RETURN JUMPDEST PUSH2 0xDB PUSH1 0x4 DUP1 CALLDATASIZE SUB DUP2 ADD SWAP1 PUSH2 0xD6 SWAP2 SWAP1 PUSH2 0x5BD JUMP JUMPDEST PUSH2 0x225 JUMP JUMPDEST STOP JUMPDEST PUSH2 0xE5 PUSH2 0x251 JUMP JUMPDEST PUSH1 0x40 MLOAD PUSH2 0xF2 SWAP2 SWAP1 PUSH2 0x5F9 JUMP JUMPDEST PUSH1 0x40 MLOAD DUP1 SWAP2 SUB SWAP1 RETURN JUMPDEST PUSH2 0x115 PUSH1 0x4 DUP1 CALLDATASIZE SUB DUP2 ADD SWAP1 PUSH2 0x110 SWAP2 SWAP1 PUSH2 0x5BD JUMP JUMPDEST PUSH2 0x29E JUMP JUMPDEST STOP JUMPDEST PUSH2 0x11F PUSH2 0x2D1 JUMP JUMPDEST PUSH1 0x40 MLOAD PUSH2 0x12C SWAP2 SWAP1 PUSH2 0x5F9 JUMP JUMPDEST PUSH1 0x40 MLOAD DUP1 SWAP2 SUB SWAP1 RETURN JUMPDEST PUSH2 0x13D PUSH2 0x31E JUMP JUMPDEST PUSH1 0x40 MLOAD PUSH2 0x14B SWAP3 SWAP2 SWAP1 PUSH2 0x614 JUMP JUMPDEST PUSH1 0x40 MLOAD DUP1 SWAP2 SUB SWAP1 RETURN JUMPDEST PUSH2 0x15C PUSH2 0x35F JUMP JUMPDEST PUSH1 0x40 MLOAD PUSH2 0x169 SWAP2 SWAP1 PUSH2 0x6C1 JUMP JUMPDEST PUSH1 0x40 MLOAD DUP1 SWAP2 SUB SWAP1 RETURN JUMPDEST PUSH2 0x17A PUSH2 0x3AA JUMP JUMPDEST PUSH1 0x40 MLOAD PUSH2 0x187 SWAP2 SWAP1 PUSH2 0x5F9 JUMP JUMPDEST PUSH1 0x40 MLOAD DUP1 SWAP2 SUB SWAP1 RETURN JUMPDEST PUSH2 0x198 PUSH2 0x404 JUMP JUMPDEST PUSH1 0x40 MLOAD PUSH2 0x1A6 SWAP3 SWAP2 SWAP1 PUSH2 0x614 JUMP JUMPDEST PUSH1 0x40 MLOAD DUP1 SWAP2 SUB SWAP1 RETURN JUMPDEST PUSH2 0x1B7 PUSH2 0x444 JUMP JUMPDEST PUSH1 0x40 MLOAD PUSH2 0x1C4 SWAP2 SWAP1 PUSH2 0x5F9 JUMP JUMPDEST PUSH1 0x40 MLOAD DUP1 SWAP2 SUB SWAP1 RETURN JUMPDEST PUSH1 0x60 PUSH1 0x5 DUP1 SLOAD DUP1 PUSH1 0x20 MUL PUSH1 0x20 ADD PUSH1 0x40 MLOAD SWAP1 DUP2 ADD PUSH1 0x40 MSTORE DUP1 SWAP3 SWAP2 SWAP1 DUP2 DUP2 MSTORE PUSH1 0x20 ADD DUP3 DUP1 SLOAD DUP1 ISZERO PUSH2 0x21B JUMPI PUSH1 0x20 MUL DUP3 ADD SWAP2 SWAP1 PUSH1 0x0 MSTORE PUSH1 0x20 PUSH1 0x0 KECCAK256 SWAP1 JUMPDEST DUP2 SLOAD DUP2 MSTORE PUSH1 0x20 ADD SWAP1 PUSH1 0x1 ADD SWAP1 DUP1 DUP4 GT PUSH2 0x207 JUMPI JUMPDEST POP POP POP POP POP SWAP1 POP SWAP1 JUMP JUMPDEST PUSH1 0x5 DUP2 SWAP1 DUP1 PUSH1 0x1 DUP2 SLOAD ADD DUP1 DUP3 SSTORE DUP1 SWAP2 POP POP PUSH1 0x1 SWAP1 SUB SWAP1 PUSH1 0x0 MSTORE PUSH1 0x20 PUSH1 0x0 KECCAK256 ADD PUSH1 0x0 SWAP1 SWAP2 SWAP1 SWAP2 SWAP1 SWAP2 POP SSTORE POP JUMP JUMPDEST PUSH1 0x0 DUP1 PUSH1 0x0 JUMPDEST PUSH1 0x4 DUP2 LT ISZERO PUSH2 0x296 JUMPI PUSH1 0x0 DUP2 PUSH1 0x4 DUP2 LT PUSH2 0x274 JUMPI PUSH2 0x273 PUSH2 0x6DC JUMP JUMPDEST JUMPDEST ADD SLOAD DUP3 PUSH2 0x281 SWAP2 SWAP1 PUSH2 0x73A JUMP JUMPDEST SWAP2 POP DUP1 DUP1 PUSH2 0x28E SWAP1 PUSH2 0x76E JUMP JUMPDEST SWAP2 POP POP PUSH2 0x257 JUMP JUMPDEST POP DUP1 SWAP2 POP POP SWAP1 JUMP JUMPDEST DUP1 PUSH1 0x0 PUSH1 0x4 PUSH1 0x0 DUP2 SLOAD DUP1 SWAP3 SWAP2 SWAP1 PUSH2 0x2B4 SWAP1 PUSH2 0x76E JUMP JUMPDEST SWAP2 SWAP1 POP SSTORE PUSH1 0x4 DUP2 LT PUSH2 0x2C9 JUMPI PUSH2 0x2C8 PUSH2 0x6DC JUMP JUMPDEST JUMPDEST ADD DUP2 SWAP1 SSTORE POP POP JUMP JUMPDEST PUSH1 0x0 DUP1 PUSH1 0x0 JUMPDEST PUSH1 0x4 DUP2 LT ISZERO PUSH2 0x316 JUMPI PUSH1 0x0 DUP2 PUSH1 0x4 DUP2 LT PUSH2 0x2F4 JUMPI PUSH2 0x2F3 PUSH2 0x6DC JUMP JUMPDEST JUMPDEST ADD SLOAD DUP3 PUSH2 0x301 SWAP2 SWAP1 PUSH2 0x73A JUMP JUMPDEST SWAP2 POP DUP1 DUP1 PUSH2 0x30E SWAP1 PUSH2 0x76E JUMP JUMPDEST SWAP2 POP POP PUSH2 0x2D7 JUMP JUMPDEST POP DUP1 SWAP2 POP POP SWAP1 JUMP JUMPDEST PUSH1 0x0 DUP1 PUSH1 0x0 DUP1 PUSH1 0x1 SWAP1 POP JUMPDEST PUSH1 0x6 DUP2 LT ISZERO PUSH2 0x353 JUMPI DUP1 DUP3 PUSH2 0x33E SWAP2 SWAP1 PUSH2 0x73A JUMP JUMPDEST SWAP2 POP DUP1 DUP1 PUSH2 0x34B SWAP1 PUSH2 0x76E JUMP JUMPDEST SWAP2 POP POP PUSH2 0x329 JUMP JUMPDEST DUP2 DUP2 SWAP4 POP SWAP4 POP POP POP SWAP1 SWAP2 JUMP JUMPDEST PUSH2 0x367 PUSH2 0x480 JUMP JUMPDEST PUSH1 0x0 PUSH1 0x4 DUP1 PUSH1 0x20 MUL PUSH1 0x40 MLOAD SWAP1 DUP2 ADD PUSH1 0x40 MSTORE DUP1 SWAP3 SWAP2 SWAP1 DUP3 PUSH1 0x4 DUP1 ISZERO PUSH2 0x3A0 JUMPI PUSH1 0x20 MUL DUP3 ADD SWAP2 JUMPDEST DUP2 SLOAD DUP2 MSTORE PUSH1 0x20 ADD SWAP1 PUSH1 0x1 ADD SWAP1 DUP1 DUP4 GT PUSH2 0x38C JUMPI JUMPDEST POP POP POP POP POP SWAP1 POP SWAP1 JUMP JUMPDEST PUSH1 0x0 DUP1 PUSH1 0x0 JUMPDEST PUSH1 0x5 DUP1 SLOAD SWAP1 POP DUP2 LT ISZERO PUSH2 0x3FC JUMPI PUSH1 0x5 DUP2 DUP2 SLOAD DUP2 LT PUSH2 0x3D1 JUMPI PUSH2 0x3D0 PUSH2 0x6DC JUMP JUMPDEST JUMPDEST SWAP1 PUSH1 0x0 MSTORE PUSH1 0x20 PUSH1 0x0 KECCAK256 ADD SLOAD DUP3 PUSH2 0x3E7 SWAP2 SWAP1 PUSH2 0x73A JUMP JUMPDEST SWAP2 POP DUP1 DUP1 PUSH2 0x3F4 SWAP1 PUSH2 0x76E JUMP JUMPDEST SWAP2 POP POP PUSH2 0x3B0 JUMP JUMPDEST POP DUP1 SWAP2 POP POP SWAP1 JUMP JUMPDEST PUSH1 0x0 DUP1 PUSH1 0x0 DUP1 PUSH1 0x1 SWAP1 POP JUMPDEST PUSH1 0x5 DUP2 GT PUSH2 0x438 JUMPI DUP1 DUP3 PUSH2 0x423 SWAP2 SWAP1 PUSH2 0x73A JUMP JUMPDEST SWAP2 POP DUP1 DUP1 PUSH2 0x430 SWAP1 PUSH2 0x76E JUMP JUMPDEST SWAP2 POP POP PUSH2 0x40F JUMP JUMPDEST DUP2 DUP2 SWAP4 POP SWAP4 POP POP POP SWAP1 SWAP2 JUMP JUMPDEST PUSH1 0x0 DUP1 PUSH1 0x0 PUSH1 0x1 SWAP1 POP JUMPDEST PUSH1 0x6 DUP2 LT ISZERO PUSH2 0x478 JUMPI DUP1 DUP3 PUSH2 0x463 SWAP2 SWAP1 PUSH2 0x73A JUMP JUMPDEST SWAP2 POP DUP1 DUP1 PUSH2 0x470 SWAP1 PUSH2 0x76E JUMP JUMPDEST SWAP2 POP POP PUSH2 0x44E JUMP JUMPDEST POP DUP1 SWAP2 POP POP SWAP1 JUMP JUMPDEST PUSH1 0x40 MLOAD DUP1 PUSH1 0x80 ADD PUSH1 0x40 MSTORE DUP1 PUSH1 0x4 SWAP1 PUSH1 0x20 DUP3 MUL DUP1 CALLDATASIZE DUP4 CALLDATACOPY DUP1 DUP3 ADD SWAP2 POP POP SWAP1 POP POP SWAP1 JUMP JUMPDEST PUSH1 0x0 DUP2 MLOAD SWAP1 POP SWAP2 SWAP1 POP JUMP JUMPDEST PUSH1 0x0 DUP3 DUP3 MSTORE PUSH1 0x20 DUP3 ADD SWAP1 POP SWAP3 SWAP2 POP POP JUMP JUMPDEST PUSH1 0x0 DUP2 SWAP1 POP PUSH1 0x20 DUP3 ADD SWAP1 POP SWAP2 SWAP1 POP JUMP JUMPDEST PUSH1 0x0 DUP2 SWAP1 POP SWAP2 SWAP1 POP JUMP JUMPDEST PUSH2 0x4E1 DUP2 PUSH2 0x4CE JUMP JUMPDEST DUP3 MSTORE POP POP JUMP JUMPDEST PUSH1 0x0 PUSH2 0x4F3 DUP4 DUP4 PUSH2 0x4D8 JUMP JUMPDEST PUSH1 0x20 DUP4 ADD SWAP1 POP SWAP3 SWAP2 POP POP JUMP JUMPDEST PUSH1 0x0 PUSH1 0x20 DUP3 ADD SWAP1 POP SWAP2 SWAP1 POP JUMP JUMPDEST PUSH1 0x0 PUSH2 0x517 DUP3 PUSH2 0x4A2 JUMP JUMPDEST PUSH2 0x521 DUP2 DUP6 PUSH2 0x4AD JUMP JUMPDEST SWAP4 POP PUSH2 0x52C DUP4 PUSH2 0x4BE JUMP JUMPDEST DUP1 PUSH1 0x0 JUMPDEST DUP4 DUP2 LT ISZERO PUSH2 0x55D JUMPI DUP2 MLOAD PUSH2 0x544 DUP9 DUP3 PUSH2 0x4E7 JUMP JUMPDEST SWAP8 POP PUSH2 0x54F DUP4 PUSH2 0x4FF JUMP JUMPDEST SWAP3 POP POP PUSH1 0x1 DUP2 ADD SWAP1 POP PUSH2 0x530 JUMP JUMPDEST POP DUP6 SWAP4 POP POP POP POP SWAP3 SWAP2 POP POP JUMP JUMPDEST PUSH1 0x0 PUSH1 0x20 DUP3 ADD SWAP1 POP DUP2 DUP2 SUB PUSH1 0x0 DUP4 ADD MSTORE PUSH2 0x584 DUP2 DUP5 PUSH2 0x50C JUMP JUMPDEST SWAP1 POP SWAP3 SWAP2 POP POP JUMP JUMPDEST PUSH1 0x0 DUP1 REVERT JUMPDEST PUSH2 0x59A DUP2 PUSH2 0x4CE JUMP JUMPDEST DUP2 EQ PUSH2 0x5A5 JUMPI PUSH1 0x0 DUP1 REVERT JUMPDEST POP JUMP JUMPDEST PUSH1 0x0 DUP2 CALLDATALOAD SWAP1 POP PUSH2 0x5B7 DUP2 PUSH2 0x591 JUMP JUMPDEST SWAP3 SWAP2 POP POP JUMP JUMPDEST PUSH1 0x0 PUSH1 0x20 DUP3 DUP5 SUB SLT ISZERO PUSH2 0x5D3 JUMPI PUSH2 0x5D2 PUSH2 0x58C JUMP JUMPDEST JUMPDEST PUSH1 0x0 PUSH2 0x5E1 DUP5 DUP3 DUP6 ADD PUSH2 0x5A8 JUMP JUMPDEST SWAP2 POP POP SWAP3 SWAP2 POP POP JUMP JUMPDEST PUSH2 0x5F3 DUP2 PUSH2 0x4CE JUMP JUMPDEST DUP3 MSTORE POP POP JUMP JUMPDEST PUSH1 0x0 PUSH1 0x20 DUP3 ADD SWAP1 POP PUSH2 0x60E PUSH1 0x0 DUP4 ADD DUP5 PUSH2 0x5EA JUMP JUMPDEST SWAP3 SWAP2 POP POP JUMP JUMPDEST PUSH1 0x0 PUSH1 0x40 DUP3 ADD SWAP1 POP PUSH2 0x629 PUSH1 0x0 DUP4 ADD DUP6 PUSH2 0x5EA JUMP JUMPDEST PUSH2 0x636 PUSH1 0x20 DUP4 ADD DUP5 PUSH2 0x5EA JUMP JUMPDEST SWAP4 SWAP3 POP POP POP JUMP JUMPDEST PUSH1 0x0 PUSH1 0x4 SWAP1 POP SWAP2 SWAP1 POP JUMP JUMPDEST PUSH1 0x0 DUP2 SWAP1 POP SWAP3 SWAP2 POP POP JUMP JUMPDEST PUSH1 0x0 DUP2 SWAP1 POP SWAP2 SWAP1 POP JUMP JUMPDEST PUSH1 0x0 PUSH1 0x20 DUP3 ADD SWAP1 POP SWAP2 SWAP1 POP JUMP JUMPDEST PUSH2 0x673 DUP2 PUSH2 0x63D JUMP JUMPDEST PUSH2 0x67D DUP2 DUP5 PUSH2 0x648 JUMP JUMPDEST SWAP3 POP PUSH2 0x688 DUP3 PUSH2 0x653 JUMP JUMPDEST DUP1 PUSH1 0x0 JUMPDEST DUP4 DUP2 LT ISZERO PUSH2 0x6B9 JUMPI DUP2 MLOAD PUSH2 0x6A0 DUP8 DUP3 PUSH2 0x4E7 JUMP JUMPDEST SWAP7 POP PUSH2 0x6AB DUP4 PUSH2 0x65D JUMP JUMPDEST SWAP3 POP POP PUSH1 0x1 DUP2 ADD SWAP1 POP PUSH2 0x68C JUMP JUMPDEST POP POP POP POP POP POP JUMP JUMPDEST PUSH1 0x0 PUSH1 0x80 DUP3 ADD SWAP1 POP PUSH2 0x6D6 PUSH1 0x0 DUP4 ADD DUP5 PUSH2 0x66A JUMP JUMPDEST SWAP3 SWAP2 POP POP JUMP JUMPDEST PUSH32 0x4E487B7100000000000000000000000000000000000000000000000000000000 PUSH1 0x0 MSTORE PUSH1 0x32 PUSH1 0x4 MSTORE PUSH1 0x24 PUSH1 0x0 REVERT JUMPDEST PUSH32 0x4E487B7100000000000000000000000000000000000000000000000000000000 PUSH1 0x0 MSTORE PUSH1 0x11 PUSH1 0x4 MSTORE PUSH1 0x24 PUSH1 0x0 REVERT JUMPDEST PUSH1 0x0 PUSH2 0x745 DUP3 PUSH2 0x4CE JUMP JUMPDEST SWAP2 POP PUSH2 0x750 DUP4 PUSH2 0x4CE JUMP JUMPDEST SWAP3 POP DUP3 DUP3 ADD SWAP1 POP DUP1 DUP3 GT ISZERO PUSH2 0x768 JUMPI PUSH2 0x767 PUSH2 0x70B JUMP JUMPDEST JUMPDEST SWAP3 SWAP2 POP POP JUMP JUMPDEST PUSH1 0x0 PUSH2 0x779 DUP3 PUSH2 0x4CE JUMP JUMPDEST SWAP2 POP PUSH32 0xFFFFFFFFFFFFFFFFFFFFFFFFFFFFFFFFFFFFFFFFFFFFFFFFFFFFFFFFFFFFFFFF DUP3 SUB PUSH2 0x7AB JUMPI PUSH2 0x7AA PUSH2 0x70B JUMP JUMPDEST JUMPDEST PUSH1 0x1 DUP3 ADD SWAP1 POP SWAP2 SWAP1 POP JUMP INVALID LOG2 PUSH5 0x6970667358 0x22 SLT KECCAK256 0xF7 0xB2 JUMPI 0x2A DUP2 0xDF LOG3 0xB5 0xBE JUMPI 0xAA 0xB4 0xEF SGT PUSH11 0xE9A90FCE4DE914E4507FCD SWAP1 0xEE 0x2D 0xF DUP5 PC PUSH5 0x736F6C6343 STOP ADDMOD SLT STOP CALLER "
		},
		"gasEstimates": {
			"creation": {
				"codeDepositCost": "405600",
				"executionCost": "443",
				"totalCost": "406043"
			},
			"external": {
				"forLoop()": "infinite",
				"forLoop2()": "infinite",
				"forLoop3()": "infinite",
				"forLoop4()": "infinite",
				"forLoop5()": "infinite",
				"forLoop6()": "infinite",
				"getA()": "infinite",
				"getD()": "infinite",
				"pushA(uint256)": "infinite",
				"pushD(uint256)": "46852"
			}
		},
		"methodIdentifiers": {
			"forLoop()": "fc0e6008",
			"forLoop2()": "4e744db2",
			"forLoop3()": "de438f5c",
			"forLoop4()": "317e84d5",
			"forLoop5()": "4c9262b4",
			"forLoop6()": "d469d3f6",
			"getA()": "d46300fd",
			"getD()": "1a14ff7a",
			"pushA(uint256)": "40bb882d",
			"pushD(uint256)": "29d4b881"
		}
	},
	"abi": [
		{
			"inputs": [],
			"name": "forLoop",
			"outputs": [
				{
					"internalType": "uint256",
					"name": "",
					"type": "uint256"
				}
			],
			"stateMutability": "pure",
			"type": "function"
		},
		{
			"inputs": [],
			"name": "forLoop2",
			"outputs": [
				{
					"internalType": "uint256",
					"name": "",
					"type": "uint256"
				},
				{
					"internalType": "uint256",
					"name": "",
					"type": "uint256"
				}
			],
			"stateMutability": "pure",
			"type": "function"
		},
		{
			"inputs": [],
			"name": "forLoop3",
			"outputs": [
				{
					"internalType": "uint256",
					"name": "",
					"type": "uint256"
				},
				{
					"internalType": "uint256",
					"name": "",
					"type": "uint256"
				}
			],
			"stateMutability": "pure",
			"type": "function"
		},
		{
			"inputs": [],
			"name": "forLoop4",
			"outputs": [
				{
					"internalType": "uint256",
					"name": "",
					"type": "uint256"
				}
			],
			"stateMutability": "view",
			"type": "function"
		},
		{
			"inputs": [],
			"name": "forLoop5",
			"outputs": [
				{
					"internalType": "uint256",
					"name": "",
					"type": "uint256"
				}
			],
			"stateMutability": "view",
			"type": "function"
		},
		{
			"inputs": [],
			"name": "forLoop6",
			"outputs": [
				{
					"internalType": "uint256",
					"name": "",
					"type": "uint256"
				}
			],
			"stateMutability": "view",
			"type": "function"
		},
		{
			"inputs": [],
			"name": "getA",
			"outputs": [
				{
					"internalType": "uint256[4]",
					"name": "",
					"type": "uint256[4]"
				}
			],
			"stateMutability": "view",
			"type": "function"
		},
		{
			"inputs": [],
			"name": "getD",
			"outputs": [
				{
					"internalType": "uint256[]",
					"name": "",
					"type": "uint256[]"
				}
			],
			"stateMutability": "view",
			"type": "function"
		},
		{
			"inputs": [
				{
					"internalType": "uint256",
					"name": "_n",
					"type": "uint256"
				}
			],
			"name": "pushA",
			"outputs": [],
			"stateMutability": "nonpayable",
			"type": "function"
		},
		{
			"inputs": [
				{
					"internalType": "uint256",
					"name": "_n",
					"type": "uint256"
				}
			],
			"name": "pushD",
			"outputs": [],
			"stateMutability": "nonpayable",
			"type": "function"
		}
	]
}