{
	"data": {
		"bytecode": {
			"linkReferences": {},
			"object": "608060405234801561001057600080fd5b50610127806100206000396000f3fe6080604052348015600f57600080fd5b506004361060285760003560e01c8063f446c1d014602d575b600080fd5b60336047565b604051603e9190607c565b60405180910390f35b600080600590506000600790508082605e919060c4565b9250505090565b6000819050919050565b6076816065565b82525050565b6000602082019050608f6000830184606f565b92915050565b7f4e487b7100000000000000000000000000000000000000000000000000000000600052601160045260246000fd5b600060cd826065565b915060d6836065565b925082820190508082111560eb5760ea6095565b5b9291505056fea264697066735822122006b9831366a8daf7620834ea11fc973ec0a5fe8c11d8c1e334101c737e1d6c9764736f6c63430008120033",
			"opcodes": "PUSH1 0x80 PUSH1 0x40 MSTORE CALLVALUE DUP1 ISZERO PUSH2 0x10 JUMPI PUSH1 0x0 DUP1 REVERT JUMPDEST POP PUSH2 0x127 DUP1 PUSH2 0x20 PUSH1 0x0 CODECOPY PUSH1 0x0 RETURN INVALID PUSH1 0x80 PUSH1 0x40 MSTORE CALLVALUE DUP1 ISZERO PUSH1 0xF JUMPI PUSH1 0x0 DUP1 REVERT JUMPDEST POP PUSH1 0x4 CALLDATASIZE LT PUSH1 0x28 JUMPI PUSH1 0x0 CALLDATALOAD PUSH1 0xE0 SHR DUP1 PUSH4 0xF446C1D0 EQ PUSH1 0x2D JUMPI JUMPDEST PUSH1 0x0 DUP1 REVERT JUMPDEST PUSH1 0x33 PUSH1 0x47 JUMP JUMPDEST PUSH1 0x40 MLOAD PUSH1 0x3E SWAP2 SWAP1 PUSH1 0x7C JUMP JUMPDEST PUSH1 0x40 MLOAD DUP1 SWAP2 SUB SWAP1 RETURN JUMPDEST PUSH1 0x0 DUP1 PUSH1 0x5 SWAP1 POP PUSH1 0x0 PUSH1 0x7 SWAP1 POP DUP1 DUP3 PUSH1 0x5E SWAP2 SWAP1 PUSH1 0xC4 JUMP JUMPDEST SWAP3 POP POP POP SWAP1 JUMP JUMPDEST PUSH1 0x0 DUP2 SWAP1 POP SWAP2 SWAP1 POP JUMP JUMPDEST PUSH1 0x76 DUP2 PUSH1 0x65 JUMP JUMPDEST DUP3 MSTORE POP POP JUMP JUMPDEST PUSH1 0x0 PUSH1 0x20 DUP3 ADD SWAP1 POP PUSH1 0x8F PUSH1 0x0 DUP4 ADD DUP5 PUSH1 0x6F JUMP JUMPDEST SWAP3 SWAP2 POP POP JUMP JUMPDEST PUSH32 0x4E487B7100000000000000000000000000000000000000000000000000000000 PUSH1 0x0 MSTORE PUSH1 0x11 PUSH1 0x4 MSTORE PUSH1 0x24 PUSH1 0x0 REVERT JUMPDEST PUSH1 0x0 PUSH1 0xCD DUP3 PUSH1 0x65 JUMP JUMPDEST SWAP2 POP PUSH1 0xD6 DUP4 PUSH1 0x65 JUMP JUMPDEST SWAP3 POP DUP3 DUP3 ADD SWAP1 POP DUP1 DUP3 GT ISZERO PUSH1 0xEB JUMPI PUSH1 0xEA PUSH1 0x95 JUMP JUMPDEST JUMPDEST SWAP3 SWAP2 POP POP JUMP INVALID LOG2 PUSH5 0x6970667358 0x22 SLT KECCAK256 MOD 0xB9 DUP4 SGT PUSH7 0xA8DAF7620834EA GT 0xFC SWAP8 RETURNDATACOPY 0xC0 0xA5 INVALID DUP13 GT 0xD8 0xC1 0xE3 CALLVALUE LT SHR PUSH20 0x7E1D6C9764736F6C634300081200330000000000 "
		},
		"gasEstimates": {
			"creation": {
				"codeDepositCost": "59000",
				"executionCost": "111",
				"totalCost": "59111"
			},
			"external": {
				"A()": "infinite"
			}
		},
		"methodIdentifiers": {
			"A()": "f446c1d0"
		}
	},
	"abi": [
		{
			"inputs": [],
			"name": "A",
			"outputs": [
				{
					"internalType": "uint256",
					"name": "",
					"type": "uint256"
				}
			],
			"stateMutability": "pure",
			"type": "function"
		}
	]
}