{
	"data": {
		"bytecode": {
			"linkReferences": {},
			"object": "608060405234801561001057600080fd5b5061029d806100206000396000f3fe608060405234801561001057600080fd5b50600436106100415760003560e01c80634e744db214610046578063de438f5c14610065578063fc0e600814610084575b600080fd5b61004e6100a2565b60405161005c929190610178565b60405180910390f35b61006d6100e3565b60405161007b929190610178565b60405180910390f35b61008c610123565b60405161009991906101a1565b60405180910390f35b600080600080600190505b60068110156100d75780826100c291906101eb565b915080806100cf9061021f565b9150506100ad565b81819350935050509091565b600080600080600190505b6005811161011757808261010291906101eb565b9150808061010f9061021f565b9150506100ee565b81819350935050509091565b6000806000600190505b600681101561015757808261014291906101eb565b9150808061014f9061021f565b91505061012d565b508091505090565b6000819050919050565b6101728161015f565b82525050565b600060408201905061018d6000830185610169565b61019a6020830184610169565b9392505050565b60006020820190506101b66000830184610169565b92915050565b7f4e487b7100000000000000000000000000000000000000000000000000000000600052601160045260246000fd5b60006101f68261015f565b91506102018361015f565b9250828201905080821115610219576102186101bc565b5b92915050565b600061022a8261015f565b91507fffffffffffffffffffffffffffffffffffffffffffffffffffffffffffffffff820361025c5761025b6101bc565b5b60018201905091905056fea2646970667358221220d0ad40aa1fe818c78fec966f5c7e72f367d47599725839f41a9f2dee29e1649f64736f6c63430008120033",
			"opcodes": "PUSH1 0x80 PUSH1 0x40 MSTORE CALLVALUE DUP1 ISZERO PUSH2 0x10 JUMPI PUSH1 0x0 DUP1 REVERT JUMPDEST POP PUSH2 0x29D DUP1 PUSH2 0x20 PUSH1 0x0 CODECOPY PUSH1 0x0 RETURN INVALID PUSH1 0x80 PUSH1 0x40 MSTORE CALLVALUE DUP1 ISZERO PUSH2 0x10 JUMPI PUSH1 0x0 DUP1 REVERT JUMPDEST POP PUSH1 0x4 CALLDATASIZE LT PUSH2 0x41 JUMPI PUSH1 0x0 CALLDATALOAD PUSH1 0xE0 SHR DUP1 PUSH4 0x4E744DB2 EQ PUSH2 0x46 JUMPI DUP1 PUSH4 0xDE438F5C EQ PUSH2 0x65 JUMPI DUP1 PUSH4 0xFC0E6008 EQ PUSH2 0x84 JUMPI JUMPDEST PUSH1 0x0 DUP1 REVERT JUMPDEST PUSH2 0x4E PUSH2 0xA2 JUMP JUMPDEST PUSH1 0x40 MLOAD PUSH2 0x5C SWAP3 SWAP2 SWAP1 PUSH2 0x178 JUMP JUMPDEST PUSH1 0x40 MLOAD DUP1 SWAP2 SUB SWAP1 RETURN JUMPDEST PUSH2 0x6D PUSH2 0xE3 JUMP JUMPDEST PUSH1 0x40 MLOAD PUSH2 0x7B SWAP3 SWAP2 SWAP1 PUSH2 0x178 JUMP JUMPDEST PUSH1 0x40 MLOAD DUP1 SWAP2 SUB SWAP1 RETURN JUMPDEST PUSH2 0x8C PUSH2 0x123 JUMP JUMPDEST PUSH1 0x40 MLOAD PUSH2 0x99 SWAP2 SWAP1 PUSH2 0x1A1 JUMP JUMPDEST PUSH1 0x40 MLOAD DUP1 SWAP2 SUB SWAP1 RETURN JUMPDEST PUSH1 0x0 DUP1 PUSH1 0x0 DUP1 PUSH1 0x1 SWAP1 POP JUMPDEST PUSH1 0x6 DUP2 LT ISZERO PUSH2 0xD7 JUMPI DUP1 DUP3 PUSH2 0xC2 SWAP2 SWAP1 PUSH2 0x1EB JUMP JUMPDEST SWAP2 POP DUP1 DUP1 PUSH2 0xCF SWAP1 PUSH2 0x21F JUMP JUMPDEST SWAP2 POP POP PUSH2 0xAD JUMP JUMPDEST DUP2 DUP2 SWAP4 POP SWAP4 POP POP POP SWAP1 SWAP2 JUMP JUMPDEST PUSH1 0x0 DUP1 PUSH1 0x0 DUP1 PUSH1 0x1 SWAP1 POP JUMPDEST PUSH1 0x5 DUP2 GT PUSH2 0x117 JUMPI DUP1 DUP3 PUSH2 0x102 SWAP2 SWAP1 PUSH2 0x1EB JUMP JUMPDEST SWAP2 POP DUP1 DUP1 PUSH2 0x10F SWAP1 PUSH2 0x21F JUMP JUMPDEST SWAP2 POP POP PUSH2 0xEE JUMP JUMPDEST DUP2 DUP2 SWAP4 POP SWAP4 POP POP POP SWAP1 SWAP2 JUMP JUMPDEST PUSH1 0x0 DUP1 PUSH1 0x0 PUSH1 0x1 SWAP1 POP JUMPDEST PUSH1 0x6 DUP2 LT ISZERO PUSH2 0x157 JUMPI DUP1 DUP3 PUSH2 0x142 SWAP2 SWAP1 PUSH2 0x1EB JUMP JUMPDEST SWAP2 POP DUP1 DUP1 PUSH2 0x14F SWAP1 PUSH2 0x21F JUMP JUMPDEST SWAP2 POP POP PUSH2 0x12D JUMP JUMPDEST POP DUP1 SWAP2 POP POP SWAP1 JUMP JUMPDEST PUSH1 0x0 DUP2 SWAP1 POP SWAP2 SWAP1 POP JUMP JUMPDEST PUSH2 0x172 DUP2 PUSH2 0x15F JUMP JUMPDEST DUP3 MSTORE POP POP JUMP JUMPDEST PUSH1 0x0 PUSH1 0x40 DUP3 ADD SWAP1 POP PUSH2 0x18D PUSH1 0x0 DUP4 ADD DUP6 PUSH2 0x169 JUMP JUMPDEST PUSH2 0x19A PUSH1 0x20 DUP4 ADD DUP5 PUSH2 0x169 JUMP JUMPDEST SWAP4 SWAP3 POP POP POP JUMP JUMPDEST PUSH1 0x0 PUSH1 0x20 DUP3 ADD SWAP1 POP PUSH2 0x1B6 PUSH1 0x0 DUP4 ADD DUP5 PUSH2 0x169 JUMP JUMPDEST SWAP3 SWAP2 POP POP JUMP JUMPDEST PUSH32 0x4E487B7100000000000000000000000000000000000000000000000000000000 PUSH1 0x0 MSTORE PUSH1 0x11 PUSH1 0x4 MSTORE PUSH1 0x24 PUSH1 0x0 REVERT JUMPDEST PUSH1 0x0 PUSH2 0x1F6 DUP3 PUSH2 0x15F JUMP JUMPDEST SWAP2 POP PUSH2 0x201 DUP4 PUSH2 0x15F JUMP JUMPDEST SWAP3 POP DUP3 DUP3 ADD SWAP1 POP DUP1 DUP3 GT ISZERO PUSH2 0x219 JUMPI PUSH2 0x218 PUSH2 0x1BC JUMP JUMPDEST JUMPDEST SWAP3 SWAP2 POP POP JUMP JUMPDEST PUSH1 0x0 PUSH2 0x22A DUP3 PUSH2 0x15F JUMP JUMPDEST SWAP2 POP PUSH32 0xFFFFFFFFFFFFFFFFFFFFFFFFFFFFFFFFFFFFFFFFFFFFFFFFFFFFFFFFFFFFFFFF DUP3 SUB PUSH2 0x25C JUMPI PUSH2 0x25B PUSH2 0x1BC JUMP JUMPDEST JUMPDEST PUSH1 0x1 DUP3 ADD SWAP1 POP SWAP2 SWAP1 POP JUMP INVALID LOG2 PUSH5 0x6970667358 0x22 SLT KECCAK256 0xD0 0xAD BLOCKHASH 0xAA 0x1F 0xE8 XOR 0xC7 DUP16 0xEC SWAP7 PUSH16 0x5C7E72F367D47599725839F41A9F2DEE 0x29 0xE1 PUSH5 0x9F64736F6C PUSH4 0x43000812 STOP CALLER "
		},
		"gasEstimates": {
			"creation": {
				"codeDepositCost": "133800",
				"executionCost": "177",
				"totalCost": "133977"
			},
			"external": {
				"forLoop()": "infinite",
				"forLoop2()": "infinite",
				"forLoop3()": "infinite"
			}
		},
		"methodIdentifiers": {
			"forLoop()": "fc0e6008",
			"forLoop2()": "4e744db2",
			"forLoop3()": "de438f5c"
		}
	},
	"abi": [
		{
			"inputs": [],
			"name": "forLoop",
			"outputs": [
				{
					"internalType": "uint256",
					"name": "",
					"type": "uint256"
				}
			],
			"stateMutability": "pure",
			"type": "function"
		},
		{
			"inputs": [],
			"name": "forLoop2",
			"outputs": [
				{
					"internalType": "uint256",
					"name": "",
					"type": "uint256"
				},
				{
					"internalType": "uint256",
					"name": "",
					"type": "uint256"
				}
			],
			"stateMutability": "pure",
			"type": "function"
		},
		{
			"inputs": [],
			"name": "forLoop3",
			"outputs": [
				{
					"internalType": "uint256",
					"name": "",
					"type": "uint256"
				},
				{
					"internalType": "uint256",
					"name": "",
					"type": "uint256"
				}
			],
			"stateMutability": "pure",
			"type": "function"
		}
	]
}