{
	"data": {
		"bytecode": {
			"linkReferences": {},
			"object": "608060405234801561001057600080fd5b50610a49806100206000396000f3fe608060405234801561001057600080fd5b50600436106100415760003560e01c8063562ca54314610046578063642f9163146100625780636b8ff57414610092575b600080fd5b610060600480360381019061005b919061049b565b6100c2565b005b61007c6004803603810190610077919061050a565b610139565b6040516100899190610615565b60405180910390f35b6100ac60048036038101906100a7919061050a565b610227565b6040516100b99190610681565b60405180910390f35b60006040518060600160405280858152602001848152602001838152509080600181540180825580915050600190039060005260206000209060030201600090919091909150600082015181600001908161011d91906108af565b5060208201518160010155604082015181600201555050505050565b6101416102ea565b600060018361015091906109b0565b81548110610161576101606109e4565b5b906000526020600020906003020160405180606001604052908160008201805461018a906106d2565b80601f01602080910402602001604051908101604052809291908181526020018280546101b6906106d2565b80156102035780601f106101d857610100808354040283529160200191610203565b820191906000526020600020905b8154815290600101906020018083116101e657829003601f168201915b50505050508152602001600182015481526020016002820154815250509050919050565b6060600060018361023891906109b0565b81548110610249576102486109e4565b5b90600052602060002090600302016000018054610265906106d2565b80601f0160208091040260200160405190810160405280929190818152602001828054610291906106d2565b80156102de5780601f106102b3576101008083540402835291602001916102de565b820191906000526020600020905b8154815290600101906020018083116102c157829003601f168201915b50505050509050919050565b60405180606001604052806060815260200160008152602001600081525090565b6000604051905090565b600080fd5b600080fd5b600080fd5b600080fd5b6000601f19601f8301169050919050565b7f4e487b7100000000000000000000000000000000000000000000000000000000600052604160045260246000fd5b61037282610329565b810181811067ffffffffffffffff821117156103915761039061033a565b5b80604052505050565b60006103a461030b565b90506103b08282610369565b919050565b600067ffffffffffffffff8211156103d0576103cf61033a565b5b6103d982610329565b9050602081019050919050565b82818337600083830152505050565b6000610408610403846103b5565b61039a565b90508281526020810184848401111561042457610423610324565b5b61042f8482856103e6565b509392505050565b600082601f83011261044c5761044b61031f565b5b813561045c8482602086016103f5565b91505092915050565b6000819050919050565b61047881610465565b811461048357600080fd5b50565b6000813590506104958161046f565b92915050565b6000806000606084860312156104b4576104b3610315565b5b600084013567ffffffffffffffff8111156104d2576104d161031a565b5b6104de86828701610437565b93505060206104ef86828701610486565b925050604061050086828701610486565b9150509250925092565b6000602082840312156105205761051f610315565b5b600061052e84828501610486565b91505092915050565b600081519050919050565b600082825260208201905092915050565b60005b83811015610571578082015181840152602081019050610556565b60008484015250505050565b600061058882610537565b6105928185610542565b93506105a2818560208601610553565b6105ab81610329565b840191505092915050565b6105bf81610465565b82525050565b600060608301600083015184820360008601526105e2828261057d565b91505060208301516105f760208601826105b6565b50604083015161060a60408601826105b6565b508091505092915050565b6000602082019050818103600083015261062f81846105c5565b905092915050565b600082825260208201905092915050565b600061065382610537565b61065d8185610637565b935061066d818560208601610553565b61067681610329565b840191505092915050565b6000602082019050818103600083015261069b8184610648565b905092915050565b7f4e487b7100000000000000000000000000000000000000000000000000000000600052602260045260246000fd5b600060028204905060018216806106ea57607f821691505b6020821081036106fd576106fc6106a3565b5b50919050565b60008190508160005260206000209050919050565b60006020601f8301049050919050565b600082821b905092915050565b6000600883026107657fffffffffffffffffffffffffffffffffffffffffffffffffffffffffffffffff82610728565b61076f8683610728565b95508019841693508086168417925050509392505050565b6000819050919050565b60006107ac6107a76107a284610465565b610787565b610465565b9050919050565b6000819050919050565b6107c683610791565b6107da6107d2826107b3565b848454610735565b825550505050565b600090565b6107ef6107e2565b6107fa8184846107bd565b505050565b5b8181101561081e576108136000826107e7565b600181019050610800565b5050565b601f8211156108635761083481610703565b61083d84610718565b8101602085101561084c578190505b61086061085885610718565b8301826107ff565b50505b505050565b600082821c905092915050565b600061088660001984600802610868565b1980831691505092915050565b600061089f8383610875565b9150826002028217905092915050565b6108b882610537565b67ffffffffffffffff8111156108d1576108d061033a565b5b6108db82546106d2565b6108e6828285610822565b600060209050601f8311600181146109195760008415610907578287015190505b6109118582610893565b865550610979565b601f19841661092786610703565b60005b8281101561094f5784890151825560018201915060208501945060208101905061092a565b8683101561096c5784890151610968601f891682610875565b8355505b6001600288020188555050505b505050505050565b7f4e487b7100000000000000000000000000000000000000000000000000000000600052601160045260246000fd5b60006109bb82610465565b91506109c683610465565b92508282039050818111156109de576109dd610981565b5b92915050565b7f4e487b7100000000000000000000000000000000000000000000000000000000600052603260045260246000fdfea26469706673582212206b2a79536cd73af33551ed9bb092576e5625a7deb1ee9b7a563110cd4d3d45da64736f6c63430008120033",
			"opcodes": "PUSH1 0x80 PUSH1 0x40 MSTORE CALLVALUE DUP1 ISZERO PUSH2 0x10 JUMPI PUSH1 0x0 DUP1 REVERT JUMPDEST POP PUSH2 0xA49 DUP1 PUSH2 0x20 PUSH1 0x0 CODECOPY PUSH1 0x0 RETURN INVALID PUSH1 0x80 PUSH1 0x40 MSTORE CALLVALUE DUP1 ISZERO PUSH2 0x10 JUMPI PUSH1 0x0 DUP1 REVERT JUMPDEST POP PUSH1 0x4 CALLDATASIZE LT PUSH2 0x41 JUMPI PUSH1 0x0 CALLDATALOAD PUSH1 0xE0 SHR DUP1 PUSH4 0x562CA543 EQ PUSH2 0x46 JUMPI DUP1 PUSH4 0x642F9163 EQ PUSH2 0x62 JUMPI DUP1 PUSH4 0x6B8FF574 EQ PUSH2 0x92 JUMPI JUMPDEST PUSH1 0x0 DUP1 REVERT JUMPDEST PUSH2 0x60 PUSH1 0x4 DUP1 CALLDATASIZE SUB DUP2 ADD SWAP1 PUSH2 0x5B SWAP2 SWAP1 PUSH2 0x49B JUMP JUMPDEST PUSH2 0xC2 JUMP JUMPDEST STOP JUMPDEST PUSH2 0x7C PUSH1 0x4 DUP1 CALLDATASIZE SUB DUP2 ADD SWAP1 PUSH2 0x77 SWAP2 SWAP1 PUSH2 0x50A JUMP JUMPDEST PUSH2 0x139 JUMP JUMPDEST PUSH1 0x40 MLOAD PUSH2 0x89 SWAP2 SWAP1 PUSH2 0x615 JUMP JUMPDEST PUSH1 0x40 MLOAD DUP1 SWAP2 SUB SWAP1 RETURN JUMPDEST PUSH2 0xAC PUSH1 0x4 DUP1 CALLDATASIZE SUB DUP2 ADD SWAP1 PUSH2 0xA7 SWAP2 SWAP1 PUSH2 0x50A JUMP JUMPDEST PUSH2 0x227 JUMP JUMPDEST PUSH1 0x40 MLOAD PUSH2 0xB9 SWAP2 SWAP1 PUSH2 0x681 JUMP JUMPDEST PUSH1 0x40 MLOAD DUP1 SWAP2 SUB SWAP1 RETURN JUMPDEST PUSH1 0x0 PUSH1 0x40 MLOAD DUP1 PUSH1 0x60 ADD PUSH1 0x40 MSTORE DUP1 DUP6 DUP2 MSTORE PUSH1 0x20 ADD DUP5 DUP2 MSTORE PUSH1 0x20 ADD DUP4 DUP2 MSTORE POP SWAP1 DUP1 PUSH1 0x1 DUP2 SLOAD ADD DUP1 DUP3 SSTORE DUP1 SWAP2 POP POP PUSH1 0x1 SWAP1 SUB SWAP1 PUSH1 0x0 MSTORE PUSH1 0x20 PUSH1 0x0 KECCAK256 SWAP1 PUSH1 0x3 MUL ADD PUSH1 0x0 SWAP1 SWAP2 SWAP1 SWAP2 SWAP1 SWAP2 POP PUSH1 0x0 DUP3 ADD MLOAD DUP2 PUSH1 0x0 ADD SWAP1 DUP2 PUSH2 0x11D SWAP2 SWAP1 PUSH2 0x8AF JUMP JUMPDEST POP PUSH1 0x20 DUP3 ADD MLOAD DUP2 PUSH1 0x1 ADD SSTORE PUSH1 0x40 DUP3 ADD MLOAD DUP2 PUSH1 0x2 ADD SSTORE POP POP POP POP POP JUMP JUMPDEST PUSH2 0x141 PUSH2 0x2EA JUMP JUMPDEST PUSH1 0x0 PUSH1 0x1 DUP4 PUSH2 0x150 SWAP2 SWAP1 PUSH2 0x9B0 JUMP JUMPDEST DUP2 SLOAD DUP2 LT PUSH2 0x161 JUMPI PUSH2 0x160 PUSH2 0x9E4 JUMP JUMPDEST JUMPDEST SWAP1 PUSH1 0x0 MSTORE PUSH1 0x20 PUSH1 0x0 KECCAK256 SWAP1 PUSH1 0x3 MUL ADD PUSH1 0x40 MLOAD DUP1 PUSH1 0x60 ADD PUSH1 0x40 MSTORE SWAP1 DUP2 PUSH1 0x0 DUP3 ADD DUP1 SLOAD PUSH2 0x18A SWAP1 PUSH2 0x6D2 JUMP JUMPDEST DUP1 PUSH1 0x1F ADD PUSH1 0x20 DUP1 SWAP2 DIV MUL PUSH1 0x20 ADD PUSH1 0x40 MLOAD SWAP1 DUP2 ADD PUSH1 0x40 MSTORE DUP1 SWAP3 SWAP2 SWAP1 DUP2 DUP2 MSTORE PUSH1 0x20 ADD DUP3 DUP1 SLOAD PUSH2 0x1B6 SWAP1 PUSH2 0x6D2 JUMP JUMPDEST DUP1 ISZERO PUSH2 0x203 JUMPI DUP1 PUSH1 0x1F LT PUSH2 0x1D8 JUMPI PUSH2 0x100 DUP1 DUP4 SLOAD DIV MUL DUP4 MSTORE SWAP2 PUSH1 0x20 ADD SWAP2 PUSH2 0x203 JUMP JUMPDEST DUP3 ADD SWAP2 SWAP1 PUSH1 0x0 MSTORE PUSH1 0x20 PUSH1 0x0 KECCAK256 SWAP1 JUMPDEST DUP2 SLOAD DUP2 MSTORE SWAP1 PUSH1 0x1 ADD SWAP1 PUSH1 0x20 ADD DUP1 DUP4 GT PUSH2 0x1E6 JUMPI DUP3 SWAP1 SUB PUSH1 0x1F AND DUP3 ADD SWAP2 JUMPDEST POP POP POP POP POP DUP2 MSTORE PUSH1 0x20 ADD PUSH1 0x1 DUP3 ADD SLOAD DUP2 MSTORE PUSH1 0x20 ADD PUSH1 0x2 DUP3 ADD SLOAD DUP2 MSTORE POP POP SWAP1 POP SWAP2 SWAP1 POP JUMP JUMPDEST PUSH1 0x60 PUSH1 0x0 PUSH1 0x1 DUP4 PUSH2 0x238 SWAP2 SWAP1 PUSH2 0x9B0 JUMP JUMPDEST DUP2 SLOAD DUP2 LT PUSH2 0x249 JUMPI PUSH2 0x248 PUSH2 0x9E4 JUMP JUMPDEST JUMPDEST SWAP1 PUSH1 0x0 MSTORE PUSH1 0x20 PUSH1 0x0 KECCAK256 SWAP1 PUSH1 0x3 MUL ADD PUSH1 0x0 ADD DUP1 SLOAD PUSH2 0x265 SWAP1 PUSH2 0x6D2 JUMP JUMPDEST DUP1 PUSH1 0x1F ADD PUSH1 0x20 DUP1 SWAP2 DIV MUL PUSH1 0x20 ADD PUSH1 0x40 MLOAD SWAP1 DUP2 ADD PUSH1 0x40 MSTORE DUP1 SWAP3 SWAP2 SWAP1 DUP2 DUP2 MSTORE PUSH1 0x20 ADD DUP3 DUP1 SLOAD PUSH2 0x291 SWAP1 PUSH2 0x6D2 JUMP JUMPDEST DUP1 ISZERO PUSH2 0x2DE JUMPI DUP1 PUSH1 0x1F LT PUSH2 0x2B3 JUMPI PUSH2 0x100 DUP1 DUP4 SLOAD DIV MUL DUP4 MSTORE SWAP2 PUSH1 0x20 ADD SWAP2 PUSH2 0x2DE JUMP JUMPDEST DUP3 ADD SWAP2 SWAP1 PUSH1 0x0 MSTORE PUSH1 0x20 PUSH1 0x0 KECCAK256 SWAP1 JUMPDEST DUP2 SLOAD DUP2 MSTORE SWAP1 PUSH1 0x1 ADD SWAP1 PUSH1 0x20 ADD DUP1 DUP4 GT PUSH2 0x2C1 JUMPI DUP3 SWAP1 SUB PUSH1 0x1F AND DUP3 ADD SWAP2 JUMPDEST POP POP POP POP POP SWAP1 POP SWAP2 SWAP1 POP JUMP JUMPDEST PUSH1 0x40 MLOAD DUP1 PUSH1 0x60 ADD PUSH1 0x40 MSTORE DUP1 PUSH1 0x60 DUP2 MSTORE PUSH1 0x20 ADD PUSH1 0x0 DUP2 MSTORE PUSH1 0x20 ADD PUSH1 0x0 DUP2 MSTORE POP SWAP1 JUMP JUMPDEST PUSH1 0x0 PUSH1 0x40 MLOAD SWAP1 POP SWAP1 JUMP JUMPDEST PUSH1 0x0 DUP1 REVERT JUMPDEST PUSH1 0x0 DUP1 REVERT JUMPDEST PUSH1 0x0 DUP1 REVERT JUMPDEST PUSH1 0x0 DUP1 REVERT JUMPDEST PUSH1 0x0 PUSH1 0x1F NOT PUSH1 0x1F DUP4 ADD AND SWAP1 POP SWAP2 SWAP1 POP JUMP JUMPDEST PUSH32 0x4E487B7100000000000000000000000000000000000000000000000000000000 PUSH1 0x0 MSTORE PUSH1 0x41 PUSH1 0x4 MSTORE PUSH1 0x24 PUSH1 0x0 REVERT JUMPDEST PUSH2 0x372 DUP3 PUSH2 0x329 JUMP JUMPDEST DUP2 ADD DUP2 DUP2 LT PUSH8 0xFFFFFFFFFFFFFFFF DUP3 GT OR ISZERO PUSH2 0x391 JUMPI PUSH2 0x390 PUSH2 0x33A JUMP JUMPDEST JUMPDEST DUP1 PUSH1 0x40 MSTORE POP POP POP JUMP JUMPDEST PUSH1 0x0 PUSH2 0x3A4 PUSH2 0x30B JUMP JUMPDEST SWAP1 POP PUSH2 0x3B0 DUP3 DUP3 PUSH2 0x369 JUMP JUMPDEST SWAP2 SWAP1 POP JUMP JUMPDEST PUSH1 0x0 PUSH8 0xFFFFFFFFFFFFFFFF DUP3 GT ISZERO PUSH2 0x3D0 JUMPI PUSH2 0x3CF PUSH2 0x33A JUMP JUMPDEST JUMPDEST PUSH2 0x3D9 DUP3 PUSH2 0x329 JUMP JUMPDEST SWAP1 POP PUSH1 0x20 DUP2 ADD SWAP1 POP SWAP2 SWAP1 POP JUMP JUMPDEST DUP3 DUP2 DUP4 CALLDATACOPY PUSH1 0x0 DUP4 DUP4 ADD MSTORE POP POP POP JUMP JUMPDEST PUSH1 0x0 PUSH2 0x408 PUSH2 0x403 DUP5 PUSH2 0x3B5 JUMP JUMPDEST PUSH2 0x39A JUMP JUMPDEST SWAP1 POP DUP3 DUP2 MSTORE PUSH1 0x20 DUP2 ADD DUP5 DUP5 DUP5 ADD GT ISZERO PUSH2 0x424 JUMPI PUSH2 0x423 PUSH2 0x324 JUMP JUMPDEST JUMPDEST PUSH2 0x42F DUP5 DUP3 DUP6 PUSH2 0x3E6 JUMP JUMPDEST POP SWAP4 SWAP3 POP POP POP JUMP JUMPDEST PUSH1 0x0 DUP3 PUSH1 0x1F DUP4 ADD SLT PUSH2 0x44C JUMPI PUSH2 0x44B PUSH2 0x31F JUMP JUMPDEST JUMPDEST DUP2 CALLDATALOAD PUSH2 0x45C DUP5 DUP3 PUSH1 0x20 DUP7 ADD PUSH2 0x3F5 JUMP JUMPDEST SWAP2 POP POP SWAP3 SWAP2 POP POP JUMP JUMPDEST PUSH1 0x0 DUP2 SWAP1 POP SWAP2 SWAP1 POP JUMP JUMPDEST PUSH2 0x478 DUP2 PUSH2 0x465 JUMP JUMPDEST DUP2 EQ PUSH2 0x483 JUMPI PUSH1 0x0 DUP1 REVERT JUMPDEST POP JUMP JUMPDEST PUSH1 0x0 DUP2 CALLDATALOAD SWAP1 POP PUSH2 0x495 DUP2 PUSH2 0x46F JUMP JUMPDEST SWAP3 SWAP2 POP POP JUMP JUMPDEST PUSH1 0x0 DUP1 PUSH1 0x0 PUSH1 0x60 DUP5 DUP7 SUB SLT ISZERO PUSH2 0x4B4 JUMPI PUSH2 0x4B3 PUSH2 0x315 JUMP JUMPDEST JUMPDEST PUSH1 0x0 DUP5 ADD CALLDATALOAD PUSH8 0xFFFFFFFFFFFFFFFF DUP2 GT ISZERO PUSH2 0x4D2 JUMPI PUSH2 0x4D1 PUSH2 0x31A JUMP JUMPDEST JUMPDEST PUSH2 0x4DE DUP7 DUP3 DUP8 ADD PUSH2 0x437 JUMP JUMPDEST SWAP4 POP POP PUSH1 0x20 PUSH2 0x4EF DUP7 DUP3 DUP8 ADD PUSH2 0x486 JUMP JUMPDEST SWAP3 POP POP PUSH1 0x40 PUSH2 0x500 DUP7 DUP3 DUP8 ADD PUSH2 0x486 JUMP JUMPDEST SWAP2 POP POP SWAP3 POP SWAP3 POP SWAP3 JUMP JUMPDEST PUSH1 0x0 PUSH1 0x20 DUP3 DUP5 SUB SLT ISZERO PUSH2 0x520 JUMPI PUSH2 0x51F PUSH2 0x315 JUMP JUMPDEST JUMPDEST PUSH1 0x0 PUSH2 0x52E DUP5 DUP3 DUP6 ADD PUSH2 0x486 JUMP JUMPDEST SWAP2 POP POP SWAP3 SWAP2 POP POP JUMP JUMPDEST PUSH1 0x0 DUP2 MLOAD SWAP1 POP SWAP2 SWAP1 POP JUMP JUMPDEST PUSH1 0x0 DUP3 DUP3 MSTORE PUSH1 0x20 DUP3 ADD SWAP1 POP SWAP3 SWAP2 POP POP JUMP JUMPDEST PUSH1 0x0 JUMPDEST DUP4 DUP2 LT ISZERO PUSH2 0x571 JUMPI DUP1 DUP3 ADD MLOAD DUP2 DUP5 ADD MSTORE PUSH1 0x20 DUP2 ADD SWAP1 POP PUSH2 0x556 JUMP JUMPDEST PUSH1 0x0 DUP5 DUP5 ADD MSTORE POP POP POP POP JUMP JUMPDEST PUSH1 0x0 PUSH2 0x588 DUP3 PUSH2 0x537 JUMP JUMPDEST PUSH2 0x592 DUP2 DUP6 PUSH2 0x542 JUMP JUMPDEST SWAP4 POP PUSH2 0x5A2 DUP2 DUP6 PUSH1 0x20 DUP7 ADD PUSH2 0x553 JUMP JUMPDEST PUSH2 0x5AB DUP2 PUSH2 0x329 JUMP JUMPDEST DUP5 ADD SWAP2 POP POP SWAP3 SWAP2 POP POP JUMP JUMPDEST PUSH2 0x5BF DUP2 PUSH2 0x465 JUMP JUMPDEST DUP3 MSTORE POP POP JUMP JUMPDEST PUSH1 0x0 PUSH1 0x60 DUP4 ADD PUSH1 0x0 DUP4 ADD MLOAD DUP5 DUP3 SUB PUSH1 0x0 DUP7 ADD MSTORE PUSH2 0x5E2 DUP3 DUP3 PUSH2 0x57D JUMP JUMPDEST SWAP2 POP POP PUSH1 0x20 DUP4 ADD MLOAD PUSH2 0x5F7 PUSH1 0x20 DUP7 ADD DUP3 PUSH2 0x5B6 JUMP JUMPDEST POP PUSH1 0x40 DUP4 ADD MLOAD PUSH2 0x60A PUSH1 0x40 DUP7 ADD DUP3 PUSH2 0x5B6 JUMP JUMPDEST POP DUP1 SWAP2 POP POP SWAP3 SWAP2 POP POP JUMP JUMPDEST PUSH1 0x0 PUSH1 0x20 DUP3 ADD SWAP1 POP DUP2 DUP2 SUB PUSH1 0x0 DUP4 ADD MSTORE PUSH2 0x62F DUP2 DUP5 PUSH2 0x5C5 JUMP JUMPDEST SWAP1 POP SWAP3 SWAP2 POP POP JUMP JUMPDEST PUSH1 0x0 DUP3 DUP3 MSTORE PUSH1 0x20 DUP3 ADD SWAP1 POP SWAP3 SWAP2 POP POP JUMP JUMPDEST PUSH1 0x0 PUSH2 0x653 DUP3 PUSH2 0x537 JUMP JUMPDEST PUSH2 0x65D DUP2 DUP6 PUSH2 0x637 JUMP JUMPDEST SWAP4 POP PUSH2 0x66D DUP2 DUP6 PUSH1 0x20 DUP7 ADD PUSH2 0x553 JUMP JUMPDEST PUSH2 0x676 DUP2 PUSH2 0x329 JUMP JUMPDEST DUP5 ADD SWAP2 POP POP SWAP3 SWAP2 POP POP JUMP JUMPDEST PUSH1 0x0 PUSH1 0x20 DUP3 ADD SWAP1 POP DUP2 DUP2 SUB PUSH1 0x0 DUP4 ADD MSTORE PUSH2 0x69B DUP2 DUP5 PUSH2 0x648 JUMP JUMPDEST SWAP1 POP SWAP3 SWAP2 POP POP JUMP JUMPDEST PUSH32 0x4E487B7100000000000000000000000000000000000000000000000000000000 PUSH1 0x0 MSTORE PUSH1 0x22 PUSH1 0x4 MSTORE PUSH1 0x24 PUSH1 0x0 REVERT JUMPDEST PUSH1 0x0 PUSH1 0x2 DUP3 DIV SWAP1 POP PUSH1 0x1 DUP3 AND DUP1 PUSH2 0x6EA JUMPI PUSH1 0x7F DUP3 AND SWAP2 POP JUMPDEST PUSH1 0x20 DUP3 LT DUP2 SUB PUSH2 0x6FD JUMPI PUSH2 0x6FC PUSH2 0x6A3 JUMP JUMPDEST JUMPDEST POP SWAP2 SWAP1 POP JUMP JUMPDEST PUSH1 0x0 DUP2 SWAP1 POP DUP2 PUSH1 0x0 MSTORE PUSH1 0x20 PUSH1 0x0 KECCAK256 SWAP1 POP SWAP2 SWAP1 POP JUMP JUMPDEST PUSH1 0x0 PUSH1 0x20 PUSH1 0x1F DUP4 ADD DIV SWAP1 POP SWAP2 SWAP1 POP JUMP JUMPDEST PUSH1 0x0 DUP3 DUP3 SHL SWAP1 POP SWAP3 SWAP2 POP POP JUMP JUMPDEST PUSH1 0x0 PUSH1 0x8 DUP4 MUL PUSH2 0x765 PUSH32 0xFFFFFFFFFFFFFFFFFFFFFFFFFFFFFFFFFFFFFFFFFFFFFFFFFFFFFFFFFFFFFFFF DUP3 PUSH2 0x728 JUMP JUMPDEST PUSH2 0x76F DUP7 DUP4 PUSH2 0x728 JUMP JUMPDEST SWAP6 POP DUP1 NOT DUP5 AND SWAP4 POP DUP1 DUP7 AND DUP5 OR SWAP3 POP POP POP SWAP4 SWAP3 POP POP POP JUMP JUMPDEST PUSH1 0x0 DUP2 SWAP1 POP SWAP2 SWAP1 POP JUMP JUMPDEST PUSH1 0x0 PUSH2 0x7AC PUSH2 0x7A7 PUSH2 0x7A2 DUP5 PUSH2 0x465 JUMP JUMPDEST PUSH2 0x787 JUMP JUMPDEST PUSH2 0x465 JUMP JUMPDEST SWAP1 POP SWAP2 SWAP1 POP JUMP JUMPDEST PUSH1 0x0 DUP2 SWAP1 POP SWAP2 SWAP1 POP JUMP JUMPDEST PUSH2 0x7C6 DUP4 PUSH2 0x791 JUMP JUMPDEST PUSH2 0x7DA PUSH2 0x7D2 DUP3 PUSH2 0x7B3 JUMP JUMPDEST DUP5 DUP5 SLOAD PUSH2 0x735 JUMP JUMPDEST DUP3 SSTORE POP POP POP POP JUMP JUMPDEST PUSH1 0x0 SWAP1 JUMP JUMPDEST PUSH2 0x7EF PUSH2 0x7E2 JUMP JUMPDEST PUSH2 0x7FA DUP2 DUP5 DUP5 PUSH2 0x7BD JUMP JUMPDEST POP POP POP JUMP JUMPDEST JUMPDEST DUP2 DUP2 LT ISZERO PUSH2 0x81E JUMPI PUSH2 0x813 PUSH1 0x0 DUP3 PUSH2 0x7E7 JUMP JUMPDEST PUSH1 0x1 DUP2 ADD SWAP1 POP PUSH2 0x800 JUMP JUMPDEST POP POP JUMP JUMPDEST PUSH1 0x1F DUP3 GT ISZERO PUSH2 0x863 JUMPI PUSH2 0x834 DUP2 PUSH2 0x703 JUMP JUMPDEST PUSH2 0x83D DUP5 PUSH2 0x718 JUMP JUMPDEST DUP2 ADD PUSH1 0x20 DUP6 LT ISZERO PUSH2 0x84C JUMPI DUP2 SWAP1 POP JUMPDEST PUSH2 0x860 PUSH2 0x858 DUP6 PUSH2 0x718 JUMP JUMPDEST DUP4 ADD DUP3 PUSH2 0x7FF JUMP JUMPDEST POP POP JUMPDEST POP POP POP JUMP JUMPDEST PUSH1 0x0 DUP3 DUP3 SHR SWAP1 POP SWAP3 SWAP2 POP POP JUMP JUMPDEST PUSH1 0x0 PUSH2 0x886 PUSH1 0x0 NOT DUP5 PUSH1 0x8 MUL PUSH2 0x868 JUMP JUMPDEST NOT DUP1 DUP4 AND SWAP2 POP POP SWAP3 SWAP2 POP POP JUMP JUMPDEST PUSH1 0x0 PUSH2 0x89F DUP4 DUP4 PUSH2 0x875 JUMP JUMPDEST SWAP2 POP DUP3 PUSH1 0x2 MUL DUP3 OR SWAP1 POP SWAP3 SWAP2 POP POP JUMP JUMPDEST PUSH2 0x8B8 DUP3 PUSH2 0x537 JUMP JUMPDEST PUSH8 0xFFFFFFFFFFFFFFFF DUP2 GT ISZERO PUSH2 0x8D1 JUMPI PUSH2 0x8D0 PUSH2 0x33A JUMP JUMPDEST JUMPDEST PUSH2 0x8DB DUP3 SLOAD PUSH2 0x6D2 JUMP JUMPDEST PUSH2 0x8E6 DUP3 DUP3 DUP6 PUSH2 0x822 JUMP JUMPDEST PUSH1 0x0 PUSH1 0x20 SWAP1 POP PUSH1 0x1F DUP4 GT PUSH1 0x1 DUP2 EQ PUSH2 0x919 JUMPI PUSH1 0x0 DUP5 ISZERO PUSH2 0x907 JUMPI DUP3 DUP8 ADD MLOAD SWAP1 POP JUMPDEST PUSH2 0x911 DUP6 DUP3 PUSH2 0x893 JUMP JUMPDEST DUP7 SSTORE POP PUSH2 0x979 JUMP JUMPDEST PUSH1 0x1F NOT DUP5 AND PUSH2 0x927 DUP7 PUSH2 0x703 JUMP JUMPDEST PUSH1 0x0 JUMPDEST DUP3 DUP2 LT ISZERO PUSH2 0x94F JUMPI DUP5 DUP10 ADD MLOAD DUP3 SSTORE PUSH1 0x1 DUP3 ADD SWAP2 POP PUSH1 0x20 DUP6 ADD SWAP5 POP PUSH1 0x20 DUP2 ADD SWAP1 POP PUSH2 0x92A JUMP JUMPDEST DUP7 DUP4 LT ISZERO PUSH2 0x96C JUMPI DUP5 DUP10 ADD MLOAD PUSH2 0x968 PUSH1 0x1F DUP10 AND DUP3 PUSH2 0x875 JUMP JUMPDEST DUP4 SSTORE POP JUMPDEST PUSH1 0x1 PUSH1 0x2 DUP9 MUL ADD DUP9 SSTORE POP POP POP JUMPDEST POP POP POP POP POP POP JUMP JUMPDEST PUSH32 0x4E487B7100000000000000000000000000000000000000000000000000000000 PUSH1 0x0 MSTORE PUSH1 0x11 PUSH1 0x4 MSTORE PUSH1 0x24 PUSH1 0x0 REVERT JUMPDEST PUSH1 0x0 PUSH2 0x9BB DUP3 PUSH2 0x465 JUMP JUMPDEST SWAP2 POP PUSH2 0x9C6 DUP4 PUSH2 0x465 JUMP JUMPDEST SWAP3 POP DUP3 DUP3 SUB SWAP1 POP DUP2 DUP2 GT ISZERO PUSH2 0x9DE JUMPI PUSH2 0x9DD PUSH2 0x981 JUMP JUMPDEST JUMPDEST SWAP3 SWAP2 POP POP JUMP JUMPDEST PUSH32 0x4E487B7100000000000000000000000000000000000000000000000000000000 PUSH1 0x0 MSTORE PUSH1 0x32 PUSH1 0x4 MSTORE PUSH1 0x24 PUSH1 0x0 REVERT INVALID LOG2 PUSH5 0x6970667358 0x22 SLT KECCAK256 PUSH12 0x2A79536CD73AF33551ED9BB0 SWAP3 JUMPI PUSH15 0x5625A7DEB1EE9B7A563110CD4D3D45 0xDA PUSH5 0x736F6C6343 STOP ADDMOD SLT STOP CALLER "
		},
		"gasEstimates": {
			"creation": {
				"codeDepositCost": "526600",
				"executionCost": "562",
				"totalCost": "527162"
			},
			"external": {
				"getName(uint256)": "infinite",
				"getStudent(uint256)": "infinite",
				"pushStudent(string,uint256,uint256)": "infinite"
			}
		},
		"methodIdentifiers": {
			"getName(uint256)": "6b8ff574",
			"getStudent(uint256)": "642f9163",
			"pushStudent(string,uint256,uint256)": "562ca543"
		}
	},
	"abi": [
		{
			"inputs": [
				{
					"internalType": "uint256",
					"name": "_n",
					"type": "uint256"
				}
			],
			"name": "getName",
			"outputs": [
				{
					"internalType": "string",
					"name": "",
					"type": "string"
				}
			],
			"stateMutability": "view",
			"type": "function"
		},
		{
			"inputs": [
				{
					"internalType": "uint256",
					"name": "_n",
					"type": "uint256"
				}
			],
			"name": "getStudent",
			"outputs": [
				{
					"components": [
						{
							"internalType": "string",
							"name": "name",
							"type": "string"
						},
						{
							"internalType": "uint256",
							"name": "birth",
							"type": "uint256"
						},
						{
							"internalType": "uint256",
							"name": "number",
							"type": "uint256"
						}
					],
					"internalType": "struct test1.Student",
					"name": "",
					"type": "tuple"
				}
			],
			"stateMutability": "view",
			"type": "function"
		},
		{
			"inputs": [
				{
					"internalType": "string",
					"name": "_name",
					"type": "string"
				},
				{
					"internalType": "uint256",
					"name": "_birth",
					"type": "uint256"
				},
				{
					"internalType": "uint256",
					"name": "_number",
					"type": "uint256"
				}
			],
			"name": "pushStudent",
			"outputs": [],
			"stateMutability": "nonpayable",
			"type": "function"
		}
	]
}