{
	"contracts-quiz/\b230518-QUIZ6-answer.sol": {
		"Q6": {
			"abi": [
				{
					"inputs": [],
					"name": "count",
					"outputs": [
						{
							"internalType": "uint256",
							"name": "",
							"type": "uint256"
						}
					],
					"stateMutability": "view",
					"type": "function"
				},
				{
					"inputs": [
						{
							"internalType": "string",
							"name": "_title",
							"type": "string"
						}
					],
					"name": "finishPoll",
					"outputs": [],
					"stateMutability": "nonpayable",
					"type": "function"
				},
				{
					"inputs": [
						{
							"internalType": "string",
							"name": "_title",
							"type": "string"
						}
					],
					"name": "getPoll",
					"outputs": [
						{
							"components": [
								{
									"internalType": "uint256",
									"name": "number",
									"type": "uint256"
								},
								{
									"internalType": "string",
									"name": "title",
									"type": "string"
								},
								{
									"internalType": "string",
									"name": "context",
									"type": "string"
								},
								{
									"internalType": "address",
									"name": "by",
									"type": "address"
								},
								{
									"internalType": "uint256",
									"name": "time",
									"type": "uint256"
								},
								{
									"internalType": "uint256",
									"name": "pros",
									"type": "uint256"
								},
								{
									"internalType": "uint256",
									"name": "cons",
									"type": "uint256"
								},
								{
									"internalType": "enum Q6.pollStatus",
									"name": "status",
									"type": "uint8"
								}
							],
							"internalType": "struct Q6.poll",
							"name": "",
							"type": "tuple"
						}
					],
					"stateMutability": "view",
					"type": "function"
				},
				{
					"inputs": [
						{
							"internalType": "string",
							"name": "",
							"type": "string"
						}
					],
					"name": "polls",
					"outputs": [
						{
							"internalType": "uint256",
							"name": "number",
							"type": "uint256"
						},
						{
							"internalType": "string",
							"name": "title",
							"type": "string"
						},
						{
							"internalType": "string",
							"name": "context",
							"type": "string"
						},
						{
							"internalType": "address",
							"name": "by",
							"type": "address"
						},
						{
							"internalType": "uint256",
							"name": "time",
							"type": "uint256"
						},
						{
							"internalType": "uint256",
							"name": "pros",
							"type": "uint256"
						},
						{
							"internalType": "uint256",
							"name": "cons",
							"type": "uint256"
						},
						{
							"internalType": "enum Q6.pollStatus",
							"name": "status",
							"type": "uint8"
						}
					],
					"stateMutability": "view",
					"type": "function"
				},
				{
					"inputs": [
						{
							"internalType": "string",
							"name": "_name",
							"type": "string"
						}
					],
					"name": "pushUser",
					"outputs": [],
					"stateMutability": "nonpayable",
					"type": "function"
				},
				{
					"inputs": [
						{
							"internalType": "string",
							"name": "_title",
							"type": "string"
						}
					],
					"name": "searchSuggested",
					"outputs": [
						{
							"components": [
								{
									"internalType": "uint256",
									"name": "number",
									"type": "uint256"
								},
								{
									"internalType": "string",
									"name": "title",
									"type": "string"
								},
								{
									"internalType": "string",
									"name": "context",
									"type": "string"
								},
								{
									"internalType": "address",
									"name": "by",
									"type": "address"
								},
								{
									"internalType": "uint256",
									"name": "time",
									"type": "uint256"
								},
								{
									"internalType": "uint256",
									"name": "pros",
									"type": "uint256"
								},
								{
									"internalType": "uint256",
									"name": "cons",
									"type": "uint256"
								},
								{
									"internalType": "enum Q6.pollStatus",
									"name": "status",
									"type": "uint8"
								}
							],
							"internalType": "struct Q6.poll",
							"name": "",
							"type": "tuple"
						}
					],
					"stateMutability": "view",
					"type": "function"
				},
				{
					"inputs": [
						{
							"internalType": "string",
							"name": "_title",
							"type": "string"
						},
						{
							"internalType": "string",
							"name": "_context",
							"type": "string"
						}
					],
					"name": "suggest",
					"outputs": [],
					"stateMutability": "nonpayable",
					"type": "function"
				},
				{
					"inputs": [],
					"name": "userCount",
					"outputs": [
						{
							"internalType": "uint256",
							"name": "",
							"type": "uint256"
						}
					],
					"stateMutability": "view",
					"type": "function"
				},
				{
					"inputs": [
						{
							"internalType": "string",
							"name": "_title",
							"type": "string"
						},
						{
							"internalType": "bool",
							"name": "_vote",
							"type": "bool"
						}
					],
					"name": "vote",
					"outputs": [],
					"stateMutability": "nonpayable",
					"type": "function"
				}
			],
			"devdoc": {
				"kind": "dev",
				"methods": {},
				"version": 1
			},
			"evm": {
				"assembly": "    /* \"contracts-quiz/\\x08230518-QUIZ6-answer.sol\":1451:5173  contract Q6 {... */\n  mstore(0x40, 0x80)\n  callvalue\n  dup1\n  iszero\n  tag_1\n  jumpi\n  0x00\n  dup1\n  revert\ntag_1:\n  pop\n  dataSize(sub_0)\n  dup1\n  dataOffset(sub_0)\n  0x00\n  codecopy\n  0x00\n  return\nstop\n\nsub_0: assembly {\n        /* \"contracts-quiz/\\x08230518-QUIZ6-answer.sol\":1451:5173  contract Q6 {... */\n      mstore(0x40, 0x80)\n      callvalue\n      dup1\n      iszero\n      tag_1\n      jumpi\n      0x00\n      dup1\n      revert\n    tag_1:\n      pop\n      jumpi(tag_2, lt(calldatasize, 0x04))\n      shr(0xe0, calldataload(0x00))\n      dup1\n      0x690e87c8\n      gt\n      tag_12\n      jumpi\n      dup1\n      0x690e87c8\n      eq\n      tag_7\n      jumpi\n      dup1\n      0x8058316a\n      eq\n      tag_8\n      jumpi\n      dup1\n      0x9f11aa65\n      eq\n      tag_9\n      jumpi\n      dup1\n      0xcb04bf75\n      eq\n      tag_10\n      jumpi\n      dup1\n      0xf732ac77\n      eq\n      tag_11\n      jumpi\n      jump(tag_2)\n    tag_12:\n      dup1\n      0x06661abd\n      eq\n      tag_3\n      jumpi\n      dup1\n      0x07973ccf\n      eq\n      tag_4\n      jumpi\n      dup1\n      0x10a688e3\n      eq\n      tag_5\n      jumpi\n      dup1\n      0x27d3410c\n      eq\n      tag_6\n      jumpi\n    tag_2:\n      0x00\n      dup1\n      revert\n        /* \"contracts-quiz/\\x08230518-QUIZ6-answer.sol\":1915:1932  uint public count */\n    tag_3:\n      tag_13\n      tag_14\n      jump\t// in\n    tag_13:\n      mload(0x40)\n      tag_15\n      swap2\n      swap1\n      tag_16\n      jump\t// in\n    tag_15:\n      mload(0x40)\n      dup1\n      swap2\n      sub\n      swap1\n      return\n        /* \"contracts-quiz/\\x08230518-QUIZ6-answer.sol\":1952:1973  uint public userCount */\n    tag_4:\n      tag_17\n      tag_18\n      jump\t// in\n    tag_17:\n      mload(0x40)\n      tag_19\n      swap2\n      swap1\n      tag_16\n      jump\t// in\n    tag_19:\n      mload(0x40)\n      dup1\n      swap2\n      sub\n      swap1\n      return\n        /* \"contracts-quiz/\\x08230518-QUIZ6-answer.sol\":4302:4411  function getPoll(string memory _title) public view returns(poll memory) {... */\n    tag_5:\n      tag_20\n      0x04\n      dup1\n      calldatasize\n      sub\n      dup2\n      add\n      swap1\n      tag_21\n      swap2\n      swap1\n      tag_22\n      jump\t// in\n    tag_21:\n      tag_23\n      jump\t// in\n    tag_20:\n      mload(0x40)\n      tag_24\n      swap2\n      swap1\n      tag_25\n      jump\t// in\n    tag_24:\n      mload(0x40)\n      dup1\n      swap2\n      sub\n      swap1\n      return\n        /* \"contracts-quiz/\\x08230518-QUIZ6-answer.sol\":2863:3446  function vote(string calldata _title, bool _vote) external/*상속받은 애도 못하게*/ isItUser {... */\n    tag_6:\n      tag_26\n      0x04\n      dup1\n      calldatasize\n      sub\n      dup2\n      add\n      swap1\n      tag_27\n      swap2\n      swap1\n      tag_28\n      jump\t// in\n    tag_27:\n      tag_29\n      jump\t// in\n    tag_26:\n      stop\n        /* \"contracts-quiz/\\x08230518-QUIZ6-answer.sol\":2534:2690  function pushUser(string calldata _name) public {... */\n    tag_7:\n      tag_30\n      0x04\n      dup1\n      calldatasize\n      sub\n      dup2\n      add\n      swap1\n      tag_31\n      swap2\n      swap1\n      tag_32\n      jump\t// in\n    tag_31:\n      tag_33\n      jump\t// in\n    tag_30:\n      stop\n        /* \"contracts-quiz/\\x08230518-QUIZ6-answer.sol\":1722:1758  mapping(string => poll) public polls */\n    tag_8:\n      tag_34\n      0x04\n      dup1\n      calldatasize\n      sub\n      dup2\n      add\n      swap1\n      tag_35\n      swap2\n      swap1\n      tag_22\n      jump\t// in\n    tag_35:\n      tag_36\n      jump\t// in\n    tag_34:\n      mload(0x40)\n      tag_37\n      swap9\n      swap8\n      swap7\n      swap6\n      swap5\n      swap4\n      swap3\n      swap2\n      swap1\n      tag_38\n      jump\t// in\n    tag_37:\n      mload(0x40)\n      dup1\n      swap2\n      sub\n      swap1\n      return\n        /* \"contracts-quiz/\\x08230518-QUIZ6-answer.sol\":4644:5171  function finishPoll(string memory _title) external isItUser {... */\n    tag_9:\n      tag_39\n      0x04\n      dup1\n      calldatasize\n      sub\n      dup2\n      add\n      swap1\n      tag_40\n      swap2\n      swap1\n      tag_22\n      jump\t// in\n    tag_40:\n      tag_41\n      jump\t// in\n    tag_39:\n      stop\n        /* \"contracts-quiz/\\x08230518-QUIZ6-answer.sol\":3661:3856  function searchSuggested(string calldata _title) public view returns(poll memory) {... */\n    tag_10:\n      tag_42\n      0x04\n      dup1\n      calldatasize\n      sub\n      dup2\n      add\n      swap1\n      tag_43\n      swap2\n      swap1\n      tag_32\n      jump\t// in\n    tag_43:\n      tag_44\n      jump\t// in\n    tag_42:\n      mload(0x40)\n      tag_45\n      swap2\n      swap1\n      tag_25\n      jump\t// in\n    tag_45:\n      mload(0x40)\n      dup1\n      swap2\n      sub\n      swap1\n      return\n        /* \"contracts-quiz/\\x08230518-QUIZ6-answer.sol\":3944:4145  function suggest(string calldata _title, string calldata _context) public isItUser {... */\n    tag_11:\n      tag_46\n      0x04\n      dup1\n      calldatasize\n      sub\n      dup2\n      add\n      swap1\n      tag_47\n      swap2\n      swap1\n      tag_48\n      jump\t// in\n    tag_47:\n      tag_49\n      jump\t// in\n    tag_46:\n      stop\n        /* \"contracts-quiz/\\x08230518-QUIZ6-answer.sol\":1915:1932  uint public count */\n    tag_14:\n      sload(0x01)\n      dup2\n      jump\t// out\n        /* \"contracts-quiz/\\x08230518-QUIZ6-answer.sol\":1952:1973  uint public userCount */\n    tag_18:\n      sload(0x02)\n      dup2\n      jump\t// out\n        /* \"contracts-quiz/\\x08230518-QUIZ6-answer.sol\":4302:4411  function getPoll(string memory _title) public view returns(poll memory) {... */\n    tag_23:\n        /* \"contracts-quiz/\\x08230518-QUIZ6-answer.sol\":4361:4372  poll memory */\n      tag_50\n      tag_51\n      jump\t// in\n    tag_50:\n        /* \"contracts-quiz/\\x08230518-QUIZ6-answer.sol\":4391:4396  polls */\n      0x00\n        /* \"contracts-quiz/\\x08230518-QUIZ6-answer.sol\":4397:4403  _title */\n      dup3\n        /* \"contracts-quiz/\\x08230518-QUIZ6-answer.sol\":4391:4404  polls[_title] */\n      mload(0x40)\n      tag_53\n      swap2\n      swap1\n      tag_54\n      jump\t// in\n    tag_53:\n      swap1\n      dup2\n      mstore\n      0x20\n      add\n      mload(0x40)\n      dup1\n      swap2\n      sub\n      swap1\n      keccak256\n        /* \"contracts-quiz/\\x08230518-QUIZ6-answer.sol\":4384:4404  return polls[_title] */\n      mload(0x40)\n      dup1\n      0x0100\n      add\n      0x40\n      mstore\n      swap1\n      dup2\n      0x00\n      dup3\n      add\n      sload\n      dup2\n      mstore\n      0x20\n      add\n      0x01\n      dup3\n      add\n      dup1\n      sload\n      tag_55\n      swap1\n      tag_56\n      jump\t// in\n    tag_55:\n      dup1\n      0x1f\n      add\n      0x20\n      dup1\n      swap2\n      div\n      mul\n      0x20\n      add\n      mload(0x40)\n      swap1\n      dup2\n      add\n      0x40\n      mstore\n      dup1\n      swap3\n      swap2\n      swap1\n      dup2\n      dup2\n      mstore\n      0x20\n      add\n      dup3\n      dup1\n      sload\n      tag_57\n      swap1\n      tag_56\n      jump\t// in\n    tag_57:\n      dup1\n      iszero\n      tag_58\n      jumpi\n      dup1\n      0x1f\n      lt\n      tag_59\n      jumpi\n      0x0100\n      dup1\n      dup4\n      sload\n      div\n      mul\n      dup4\n      mstore\n      swap2\n      0x20\n      add\n      swap2\n      jump(tag_58)\n    tag_59:\n      dup3\n      add\n      swap2\n      swap1\n      0x00\n      mstore\n      keccak256(0x00, 0x20)\n      swap1\n    tag_60:\n      dup2\n      sload\n      dup2\n      mstore\n      swap1\n      0x01\n      add\n      swap1\n      0x20\n      add\n      dup1\n      dup4\n      gt\n      tag_60\n      jumpi\n      dup3\n      swap1\n      sub\n      0x1f\n      and\n      dup3\n      add\n      swap2\n    tag_58:\n      pop\n      pop\n      pop\n      pop\n      pop\n      dup2\n      mstore\n      0x20\n      add\n      0x02\n      dup3\n      add\n      dup1\n      sload\n      tag_61\n      swap1\n      tag_56\n      jump\t// in\n    tag_61:\n      dup1\n      0x1f\n      add\n      0x20\n      dup1\n      swap2\n      div\n      mul\n      0x20\n      add\n      mload(0x40)\n      swap1\n      dup2\n      add\n      0x40\n      mstore\n      dup1\n      swap3\n      swap2\n      swap1\n      dup2\n      dup2\n      mstore\n      0x20\n      add\n      dup3\n      dup1\n      sload\n      tag_62\n      swap1\n      tag_56\n      jump\t// in\n    tag_62:\n      dup1\n      iszero\n      tag_63\n      jumpi\n      dup1\n      0x1f\n      lt\n      tag_64\n      jumpi\n      0x0100\n      dup1\n      dup4\n      sload\n      div\n      mul\n      dup4\n      mstore\n      swap2\n      0x20\n      add\n      swap2\n      jump(tag_63)\n    tag_64:\n      dup3\n      add\n      swap2\n      swap1\n      0x00\n      mstore\n      keccak256(0x00, 0x20)\n      swap1\n    tag_65:\n      dup2\n      sload\n      dup2\n      mstore\n      swap1\n      0x01\n      add\n      swap1\n      0x20\n      add\n      dup1\n      dup4\n      gt\n      tag_65\n      jumpi\n      dup3\n      swap1\n      sub\n      0x1f\n      and\n      dup3\n      add\n      swap2\n    tag_63:\n      pop\n      pop\n      pop\n      pop\n      pop\n      dup2\n      mstore\n      0x20\n      add\n      0x03\n      dup3\n      add\n      0x00\n      swap1\n      sload\n      swap1\n      0x0100\n      exp\n      swap1\n      div\n      0xffffffffffffffffffffffffffffffffffffffff\n      and\n      0xffffffffffffffffffffffffffffffffffffffff\n      and\n      0xffffffffffffffffffffffffffffffffffffffff\n      and\n      dup2\n      mstore\n      0x20\n      add\n      0x04\n      dup3\n      add\n      sload\n      dup2\n      mstore\n      0x20\n      add\n      0x05\n      dup3\n      add\n      sload\n      dup2\n      mstore\n      0x20\n      add\n      0x06\n      dup3\n      add\n      sload\n      dup2\n      mstore\n      0x20\n      add\n      0x07\n      dup3\n      add\n      0x00\n      swap1\n      sload\n      swap1\n      0x0100\n      exp\n      swap1\n      div\n      0xff\n      and\n      0x02\n      dup2\n      gt\n      iszero\n      tag_66\n      jumpi\n      tag_67\n      tag_68\n      jump\t// in\n    tag_67:\n    tag_66:\n      0x02\n      dup2\n      gt\n      iszero\n      tag_69\n      jumpi\n      tag_70\n      tag_68\n      jump\t// in\n    tag_70:\n    tag_69:\n      dup2\n      mstore\n      pop\n      pop\n      swap1\n      pop\n        /* \"contracts-quiz/\\x08230518-QUIZ6-answer.sol\":4302:4411  function getPoll(string memory _title) public view returns(poll memory) {... */\n      swap2\n      swap1\n      pop\n      jump\t// out\n        /* \"contracts-quiz/\\x08230518-QUIZ6-answer.sol\":2863:3446  function vote(string calldata _title, bool _vote) external/*상속받은 애도 못하게*/ isItUser {... */\n    tag_29:\n        /* \"contracts-quiz/\\x08230518-QUIZ6-answer.sol\":2431:2441  msg.sender */\n      caller\n        /* \"contracts-quiz/\\x08230518-QUIZ6-answer.sol\":2405:2441  users[msg.sender].addr == msg.sender */\n      0xffffffffffffffffffffffffffffffffffffffff\n      and\n        /* \"contracts-quiz/\\x08230518-QUIZ6-answer.sol\":2405:2410  users */\n      0x03\n        /* \"contracts-quiz/\\x08230518-QUIZ6-answer.sol\":2405:2422  users[msg.sender] */\n      0x00\n        /* \"contracts-quiz/\\x08230518-QUIZ6-answer.sol\":2411:2421  msg.sender */\n      caller\n        /* \"contracts-quiz/\\x08230518-QUIZ6-answer.sol\":2405:2422  users[msg.sender] */\n      0xffffffffffffffffffffffffffffffffffffffff\n      and\n      0xffffffffffffffffffffffffffffffffffffffff\n      and\n      dup2\n      mstore\n      0x20\n      add\n      swap1\n      dup2\n      mstore\n      0x20\n      add\n      0x00\n      keccak256\n        /* \"contracts-quiz/\\x08230518-QUIZ6-answer.sol\":2405:2427  users[msg.sender].addr */\n      0x01\n      add\n      0x00\n      swap1\n      sload\n      swap1\n      0x0100\n      exp\n      swap1\n      div\n      0xffffffffffffffffffffffffffffffffffffffff\n      and\n        /* \"contracts-quiz/\\x08230518-QUIZ6-answer.sol\":2405:2441  users[msg.sender].addr == msg.sender */\n      0xffffffffffffffffffffffffffffffffffffffff\n      and\n      eq\n        /* \"contracts-quiz/\\x08230518-QUIZ6-answer.sol\":2397:2442  require(users[msg.sender].addr == msg.sender) */\n      tag_72\n      jumpi\n      0x00\n      dup1\n      revert\n    tag_72:\n        /* \"contracts-quiz/\\x08230518-QUIZ6-answer.sol\":3015:3036  votingStatus.notVoted */\n      0x00\n        /* \"contracts-quiz/\\x08230518-QUIZ6-answer.sol\":2982:3036  users[msg.sender].voted[_title]==votingStatus.notVoted */\n      0x02\n      dup2\n      gt\n      iszero\n      tag_74\n      jumpi\n      tag_75\n      tag_68\n      jump\t// in\n    tag_75:\n    tag_74:\n        /* \"contracts-quiz/\\x08230518-QUIZ6-answer.sol\":2982:2987  users */\n      0x03\n        /* \"contracts-quiz/\\x08230518-QUIZ6-answer.sol\":2982:2999  users[msg.sender] */\n      0x00\n        /* \"contracts-quiz/\\x08230518-QUIZ6-answer.sol\":2988:2998  msg.sender */\n      caller\n        /* \"contracts-quiz/\\x08230518-QUIZ6-answer.sol\":2982:2999  users[msg.sender] */\n      0xffffffffffffffffffffffffffffffffffffffff\n      and\n      0xffffffffffffffffffffffffffffffffffffffff\n      and\n      dup2\n      mstore\n      0x20\n      add\n      swap1\n      dup2\n      mstore\n      0x20\n      add\n      0x00\n      keccak256\n        /* \"contracts-quiz/\\x08230518-QUIZ6-answer.sol\":2982:3005  users[msg.sender].voted */\n      0x03\n      add\n        /* \"contracts-quiz/\\x08230518-QUIZ6-answer.sol\":3006:3012  _title */\n      dup5\n      dup5\n        /* \"contracts-quiz/\\x08230518-QUIZ6-answer.sol\":2982:3013  users[msg.sender].voted[_title] */\n      mload(0x40)\n      tag_76\n      swap3\n      swap2\n      swap1\n      tag_77\n      jump\t// in\n    tag_76:\n      swap1\n      dup2\n      mstore\n      0x20\n      add\n      mload(0x40)\n      dup1\n      swap2\n      sub\n      swap1\n      keccak256\n      0x00\n      swap1\n      sload\n      swap1\n      0x0100\n      exp\n      swap1\n      div\n      0xff\n      and\n        /* \"contracts-quiz/\\x08230518-QUIZ6-answer.sol\":2982:3036  users[msg.sender].voted[_title]==votingStatus.notVoted */\n      0x02\n      dup2\n      gt\n      iszero\n      tag_78\n      jumpi\n      tag_79\n      tag_68\n      jump\t// in\n    tag_79:\n    tag_78:\n      eq\n        /* \"contracts-quiz/\\x08230518-QUIZ6-answer.sol\":2982:3082  users[msg.sender].voted[_title]==votingStatus.notVoted && polls[_title].status == pollStatus.ongoing */\n      dup1\n      iszero\n      tag_80\n      jumpi\n      pop\n        /* \"contracts-quiz/\\x08230518-QUIZ6-answer.sol\":3064:3082  pollStatus.ongoing */\n      0x00\n        /* \"contracts-quiz/\\x08230518-QUIZ6-answer.sol\":3040:3082  polls[_title].status == pollStatus.ongoing */\n      0x02\n      dup2\n      gt\n      iszero\n      tag_81\n      jumpi\n      tag_82\n      tag_68\n      jump\t// in\n    tag_82:\n    tag_81:\n        /* \"contracts-quiz/\\x08230518-QUIZ6-answer.sol\":3040:3045  polls */\n      0x00\n        /* \"contracts-quiz/\\x08230518-QUIZ6-answer.sol\":3046:3052  _title */\n      dup5\n      dup5\n        /* \"contracts-quiz/\\x08230518-QUIZ6-answer.sol\":3040:3053  polls[_title] */\n      mload(0x40)\n      tag_83\n      swap3\n      swap2\n      swap1\n      tag_77\n      jump\t// in\n    tag_83:\n      swap1\n      dup2\n      mstore\n      0x20\n      add\n      mload(0x40)\n      dup1\n      swap2\n      sub\n      swap1\n      keccak256\n        /* \"contracts-quiz/\\x08230518-QUIZ6-answer.sol\":3040:3060  polls[_title].status */\n      0x07\n      add\n      0x00\n      swap1\n      sload\n      swap1\n      0x0100\n      exp\n      swap1\n      div\n      0xff\n      and\n        /* \"contracts-quiz/\\x08230518-QUIZ6-answer.sol\":3040:3082  polls[_title].status == pollStatus.ongoing */\n      0x02\n      dup2\n      gt\n      iszero\n      tag_84\n      jumpi\n      tag_85\n      tag_68\n      jump\t// in\n    tag_85:\n    tag_84:\n      eq\n        /* \"contracts-quiz/\\x08230518-QUIZ6-answer.sol\":2982:3082  users[msg.sender].voted[_title]==votingStatus.notVoted && polls[_title].status == pollStatus.ongoing */\n    tag_80:\n        /* \"contracts-quiz/\\x08230518-QUIZ6-answer.sol\":2974:3083  require(users[msg.sender].voted[_title]==votingStatus.notVoted && polls[_title].status == pollStatus.ongoing) */\n      tag_86\n      jumpi\n      0x00\n      dup1\n      revert\n    tag_86:\n        /* \"contracts-quiz/\\x08230518-QUIZ6-answer.sol\":3210:3214  true */\n      0x01\n        /* \"contracts-quiz/\\x08230518-QUIZ6-answer.sol\":3203:3214  _vote==true */\n      iszero\n      iszero\n        /* \"contracts-quiz/\\x08230518-QUIZ6-answer.sol\":3203:3208  _vote */\n      dup2\n        /* \"contracts-quiz/\\x08230518-QUIZ6-answer.sol\":3203:3214  _vote==true */\n      iszero\n      iszero\n      sub\n        /* \"contracts-quiz/\\x08230518-QUIZ6-answer.sol\":3200:3440  if(_vote==true) {... */\n      tag_87\n      jumpi\n        /* \"contracts-quiz/\\x08230518-QUIZ6-answer.sol\":3230:3235  polls */\n      0x00\n        /* \"contracts-quiz/\\x08230518-QUIZ6-answer.sol\":3236:3242  _title */\n      dup4\n      dup4\n        /* \"contracts-quiz/\\x08230518-QUIZ6-answer.sol\":3230:3243  polls[_title] */\n      mload(0x40)\n      tag_88\n      swap3\n      swap2\n      swap1\n      tag_77\n      jump\t// in\n    tag_88:\n      swap1\n      dup2\n      mstore\n      0x20\n      add\n      mload(0x40)\n      dup1\n      swap2\n      sub\n      swap1\n      keccak256\n        /* \"contracts-quiz/\\x08230518-QUIZ6-answer.sol\":3230:3248  polls[_title].pros */\n      0x05\n      add\n      0x00\n        /* \"contracts-quiz/\\x08230518-QUIZ6-answer.sol\":3230:3250  polls[_title].pros++ */\n      dup2\n      sload\n      dup1\n      swap3\n      swap2\n      swap1\n      tag_89\n      swap1\n      tag_90\n      jump\t// in\n    tag_89:\n      swap2\n      swap1\n      pop\n      sstore\n      pop\n        /* \"contracts-quiz/\\x08230518-QUIZ6-answer.sol\":3298:3314  votingStatus.pro */\n      0x01\n        /* \"contracts-quiz/\\x08230518-QUIZ6-answer.sol\":3264:3269  users */\n      0x03\n        /* \"contracts-quiz/\\x08230518-QUIZ6-answer.sol\":3264:3281  users[msg.sender] */\n      0x00\n        /* \"contracts-quiz/\\x08230518-QUIZ6-answer.sol\":3270:3280  msg.sender */\n      caller\n        /* \"contracts-quiz/\\x08230518-QUIZ6-answer.sol\":3264:3281  users[msg.sender] */\n      0xffffffffffffffffffffffffffffffffffffffff\n      and\n      0xffffffffffffffffffffffffffffffffffffffff\n      and\n      dup2\n      mstore\n      0x20\n      add\n      swap1\n      dup2\n      mstore\n      0x20\n      add\n      0x00\n      keccak256\n        /* \"contracts-quiz/\\x08230518-QUIZ6-answer.sol\":3264:3287  users[msg.sender].voted */\n      0x03\n      add\n        /* \"contracts-quiz/\\x08230518-QUIZ6-answer.sol\":3288:3294  _title */\n      dup5\n      dup5\n        /* \"contracts-quiz/\\x08230518-QUIZ6-answer.sol\":3264:3295  users[msg.sender].voted[_title] */\n      mload(0x40)\n      tag_91\n      swap3\n      swap2\n      swap1\n      tag_77\n      jump\t// in\n    tag_91:\n      swap1\n      dup2\n      mstore\n      0x20\n      add\n      mload(0x40)\n      dup1\n      swap2\n      sub\n      swap1\n      keccak256\n      0x00\n        /* \"contracts-quiz/\\x08230518-QUIZ6-answer.sol\":3264:3314  users[msg.sender].voted[_title] = votingStatus.pro */\n      0x0100\n      exp\n      dup2\n      sload\n      dup2\n      0xff\n      mul\n      not\n      and\n      swap1\n      dup4\n      0x02\n      dup2\n      gt\n      iszero\n      tag_92\n      jumpi\n      tag_93\n      tag_68\n      jump\t// in\n    tag_93:\n    tag_92:\n      mul\n      or\n      swap1\n      sstore\n      pop\n        /* \"contracts-quiz/\\x08230518-QUIZ6-answer.sol\":3200:3440  if(_vote==true) {... */\n      jump(tag_94)\n    tag_87:\n        /* \"contracts-quiz/\\x08230518-QUIZ6-answer.sol\":3345:3350  polls */\n      0x00\n        /* \"contracts-quiz/\\x08230518-QUIZ6-answer.sol\":3351:3357  _title */\n      dup4\n      dup4\n        /* \"contracts-quiz/\\x08230518-QUIZ6-answer.sol\":3345:3358  polls[_title] */\n      mload(0x40)\n      tag_95\n      swap3\n      swap2\n      swap1\n      tag_77\n      jump\t// in\n    tag_95:\n      swap1\n      dup2\n      mstore\n      0x20\n      add\n      mload(0x40)\n      dup1\n      swap2\n      sub\n      swap1\n      keccak256\n        /* \"contracts-quiz/\\x08230518-QUIZ6-answer.sol\":3345:3363  polls[_title].cons */\n      0x06\n      add\n      0x00\n        /* \"contracts-quiz/\\x08230518-QUIZ6-answer.sol\":3345:3365  polls[_title].cons++ */\n      dup2\n      sload\n      dup1\n      swap3\n      swap2\n      swap1\n      tag_96\n      swap1\n      tag_90\n      jump\t// in\n    tag_96:\n      swap2\n      swap1\n      pop\n      sstore\n      pop\n        /* \"contracts-quiz/\\x08230518-QUIZ6-answer.sol\":3413:3429  votingStatus.con */\n      0x02\n        /* \"contracts-quiz/\\x08230518-QUIZ6-answer.sol\":3379:3384  users */\n      0x03\n        /* \"contracts-quiz/\\x08230518-QUIZ6-answer.sol\":3379:3396  users[msg.sender] */\n      0x00\n        /* \"contracts-quiz/\\x08230518-QUIZ6-answer.sol\":3385:3395  msg.sender */\n      caller\n        /* \"contracts-quiz/\\x08230518-QUIZ6-answer.sol\":3379:3396  users[msg.sender] */\n      0xffffffffffffffffffffffffffffffffffffffff\n      and\n      0xffffffffffffffffffffffffffffffffffffffff\n      and\n      dup2\n      mstore\n      0x20\n      add\n      swap1\n      dup2\n      mstore\n      0x20\n      add\n      0x00\n      keccak256\n        /* \"contracts-quiz/\\x08230518-QUIZ6-answer.sol\":3379:3402  users[msg.sender].voted */\n      0x03\n      add\n        /* \"contracts-quiz/\\x08230518-QUIZ6-answer.sol\":3403:3409  _title */\n      dup5\n      dup5\n        /* \"contracts-quiz/\\x08230518-QUIZ6-answer.sol\":3379:3410  users[msg.sender].voted[_title] */\n      mload(0x40)\n      tag_97\n      swap3\n      swap2\n      swap1\n      tag_77\n      jump\t// in\n    tag_97:\n      swap1\n      dup2\n      mstore\n      0x20\n      add\n      mload(0x40)\n      dup1\n      swap2\n      sub\n      swap1\n      keccak256\n      0x00\n        /* \"contracts-quiz/\\x08230518-QUIZ6-answer.sol\":3379:3429  users[msg.sender].voted[_title] = votingStatus.con */\n      0x0100\n      exp\n      dup2\n      sload\n      dup2\n      0xff\n      mul\n      not\n      and\n      swap1\n      dup4\n      0x02\n      dup2\n      gt\n      iszero\n      tag_98\n      jumpi\n      tag_99\n      tag_68\n      jump\t// in\n    tag_99:\n    tag_98:\n      mul\n      or\n      swap1\n      sstore\n      pop\n        /* \"contracts-quiz/\\x08230518-QUIZ6-answer.sol\":3200:3440  if(_vote==true) {... */\n    tag_94:\n        /* \"contracts-quiz/\\x08230518-QUIZ6-answer.sol\":2863:3446  function vote(string calldata _title, bool _vote) external/*상속받은 애도 못하게*/ isItUser {... */\n      pop\n      pop\n      pop\n      jump\t// out\n        /* \"contracts-quiz/\\x08230518-QUIZ6-answer.sol\":2534:2690  function pushUser(string calldata _name) public {... */\n    tag_33:\n        /* \"contracts-quiz/\\x08230518-QUIZ6-answer.sol\":2644:2649  _name */\n      dup2\n      dup2\n        /* \"contracts-quiz/\\x08230518-QUIZ6-answer.sol\":2651:2661  msg.sender */\n      caller\n        /* \"contracts-quiz/\\x08230518-QUIZ6-answer.sol\":2593:2598  users */\n      0x03\n        /* \"contracts-quiz/\\x08230518-QUIZ6-answer.sol\":2593:2610  users[msg.sender] */\n      0x00\n        /* \"contracts-quiz/\\x08230518-QUIZ6-answer.sol\":2599:2609  msg.sender */\n      caller\n        /* \"contracts-quiz/\\x08230518-QUIZ6-answer.sol\":2593:2610  users[msg.sender] */\n      0xffffffffffffffffffffffffffffffffffffffff\n      and\n      0xffffffffffffffffffffffffffffffffffffffff\n      and\n      dup2\n      mstore\n      0x20\n      add\n      swap1\n      dup2\n      mstore\n      0x20\n      add\n      0x00\n      keccak256\n        /* \"contracts-quiz/\\x08230518-QUIZ6-answer.sol\":2593:2615  users[msg.sender].name */\n      0x00\n      add\n      0x00\n        /* \"contracts-quiz/\\x08230518-QUIZ6-answer.sol\":2617:2622  users */\n      0x03\n        /* \"contracts-quiz/\\x08230518-QUIZ6-answer.sol\":2617:2634  users[msg.sender] */\n      0x00\n        /* \"contracts-quiz/\\x08230518-QUIZ6-answer.sol\":2623:2633  msg.sender */\n      caller\n        /* \"contracts-quiz/\\x08230518-QUIZ6-answer.sol\":2617:2634  users[msg.sender] */\n      0xffffffffffffffffffffffffffffffffffffffff\n      and\n      0xffffffffffffffffffffffffffffffffffffffff\n      and\n      dup2\n      mstore\n      0x20\n      add\n      swap1\n      dup2\n      mstore\n      0x20\n      add\n      0x00\n      keccak256\n        /* \"contracts-quiz/\\x08230518-QUIZ6-answer.sol\":2617:2639  users[msg.sender].addr */\n      0x01\n      add\n      0x00\n        /* \"contracts-quiz/\\x08230518-QUIZ6-answer.sol\":2592:2662  (users[msg.sender].name, users[msg.sender].addr) = (_name, msg.sender) */\n      dup5\n      swap2\n      swap1\n      0x0100\n      exp\n      dup2\n      sload\n      dup2\n      0xffffffffffffffffffffffffffffffffffffffff\n      mul\n      not\n      and\n      swap1\n      dup4\n      0xffffffffffffffffffffffffffffffffffffffff\n      and\n      mul\n      or\n      swap1\n      sstore\n      pop\n      dup5\n      dup5\n      swap1\n      swap2\n      swap3\n      swap1\n      swap2\n      swap3\n      pop\n      swap2\n      dup3\n      tag_101\n      swap3\n      swap2\n      swap1\n      tag_102\n      jump\t// in\n    tag_101:\n      pop\n      pop\n      pop\n      pop\n        /* \"contracts-quiz/\\x08230518-QUIZ6-answer.sol\":2672:2681  userCount */\n      0x02\n      0x00\n        /* \"contracts-quiz/\\x08230518-QUIZ6-answer.sol\":2672:2683  userCount++ */\n      dup2\n      sload\n      dup1\n      swap3\n      swap2\n      swap1\n      tag_103\n      swap1\n      tag_90\n      jump\t// in\n    tag_103:\n      swap2\n      swap1\n      pop\n      sstore\n      pop\n        /* \"contracts-quiz/\\x08230518-QUIZ6-answer.sol\":2534:2690  function pushUser(string calldata _name) public {... */\n      pop\n      pop\n      jump\t// out\n        /* \"contracts-quiz/\\x08230518-QUIZ6-answer.sol\":1722:1758  mapping(string => poll) public polls */\n    tag_36:\n      0x00\n      dup2\n      dup1\n      mload\n      0x20\n      dup2\n      add\n      dup3\n      add\n      dup1\n      mload\n      dup5\n      dup3\n      mstore\n      0x20\n      dup4\n      add\n      0x20\n      dup6\n      add\n      keccak256\n      dup2\n      dup4\n      mstore\n      dup1\n      swap6\n      pop\n      pop\n      pop\n      pop\n      pop\n      pop\n      0x00\n      swap2\n      pop\n      swap1\n      pop\n      dup1\n      0x00\n      add\n      sload\n      swap1\n      dup1\n      0x01\n      add\n      dup1\n      sload\n      tag_104\n      swap1\n      tag_56\n      jump\t// in\n    tag_104:\n      dup1\n      0x1f\n      add\n      0x20\n      dup1\n      swap2\n      div\n      mul\n      0x20\n      add\n      mload(0x40)\n      swap1\n      dup2\n      add\n      0x40\n      mstore\n      dup1\n      swap3\n      swap2\n      swap1\n      dup2\n      dup2\n      mstore\n      0x20\n      add\n      dup3\n      dup1\n      sload\n      tag_105\n      swap1\n      tag_56\n      jump\t// in\n    tag_105:\n      dup1\n      iszero\n      tag_106\n      jumpi\n      dup1\n      0x1f\n      lt\n      tag_107\n      jumpi\n      0x0100\n      dup1\n      dup4\n      sload\n      div\n      mul\n      dup4\n      mstore\n      swap2\n      0x20\n      add\n      swap2\n      jump(tag_106)\n    tag_107:\n      dup3\n      add\n      swap2\n      swap1\n      0x00\n      mstore\n      keccak256(0x00, 0x20)\n      swap1\n    tag_108:\n      dup2\n      sload\n      dup2\n      mstore\n      swap1\n      0x01\n      add\n      swap1\n      0x20\n      add\n      dup1\n      dup4\n      gt\n      tag_108\n      jumpi\n      dup3\n      swap1\n      sub\n      0x1f\n      and\n      dup3\n      add\n      swap2\n    tag_106:\n      pop\n      pop\n      pop\n      pop\n      pop\n      swap1\n      dup1\n      0x02\n      add\n      dup1\n      sload\n      tag_109\n      swap1\n      tag_56\n      jump\t// in\n    tag_109:\n      dup1\n      0x1f\n      add\n      0x20\n      dup1\n      swap2\n      div\n      mul\n      0x20\n      add\n      mload(0x40)\n      swap1\n      dup2\n      add\n      0x40\n      mstore\n      dup1\n      swap3\n      swap2\n      swap1\n      dup2\n      dup2\n      mstore\n      0x20\n      add\n      dup3\n      dup1\n      sload\n      tag_110\n      swap1\n      tag_56\n      jump\t// in\n    tag_110:\n      dup1\n      iszero\n      tag_111\n      jumpi\n      dup1\n      0x1f\n      lt\n      tag_112\n      jumpi\n      0x0100\n      dup1\n      dup4\n      sload\n      div\n      mul\n      dup4\n      mstore\n      swap2\n      0x20\n      add\n      swap2\n      jump(tag_111)\n    tag_112:\n      dup3\n      add\n      swap2\n      swap1\n      0x00\n      mstore\n      keccak256(0x00, 0x20)\n      swap1\n    tag_113:\n      dup2\n      sload\n      dup2\n      mstore\n      swap1\n      0x01\n      add\n      swap1\n      0x20\n      add\n      dup1\n      dup4\n      gt\n      tag_113\n      jumpi\n      dup3\n      swap1\n      sub\n      0x1f\n      and\n      dup3\n      add\n      swap2\n    tag_111:\n      pop\n      pop\n      pop\n      pop\n      pop\n      swap1\n      dup1\n      0x03\n      add\n      0x00\n      swap1\n      sload\n      swap1\n      0x0100\n      exp\n      swap1\n      div\n      0xffffffffffffffffffffffffffffffffffffffff\n      and\n      swap1\n      dup1\n      0x04\n      add\n      sload\n      swap1\n      dup1\n      0x05\n      add\n      sload\n      swap1\n      dup1\n      0x06\n      add\n      sload\n      swap1\n      dup1\n      0x07\n      add\n      0x00\n      swap1\n      sload\n      swap1\n      0x0100\n      exp\n      swap1\n      div\n      0xff\n      and\n      swap1\n      pop\n      dup9\n      jump\t// out\n        /* \"contracts-quiz/\\x08230518-QUIZ6-answer.sol\":4644:5171  function finishPoll(string memory _title) external isItUser {... */\n    tag_41:\n        /* \"contracts-quiz/\\x08230518-QUIZ6-answer.sol\":2431:2441  msg.sender */\n      caller\n        /* \"contracts-quiz/\\x08230518-QUIZ6-answer.sol\":2405:2441  users[msg.sender].addr == msg.sender */\n      0xffffffffffffffffffffffffffffffffffffffff\n      and\n        /* \"contracts-quiz/\\x08230518-QUIZ6-answer.sol\":2405:2410  users */\n      0x03\n        /* \"contracts-quiz/\\x08230518-QUIZ6-answer.sol\":2405:2422  users[msg.sender] */\n      0x00\n        /* \"contracts-quiz/\\x08230518-QUIZ6-answer.sol\":2411:2421  msg.sender */\n      caller\n        /* \"contracts-quiz/\\x08230518-QUIZ6-answer.sol\":2405:2422  users[msg.sender] */\n      0xffffffffffffffffffffffffffffffffffffffff\n      and\n      0xffffffffffffffffffffffffffffffffffffffff\n      and\n      dup2\n      mstore\n      0x20\n      add\n      swap1\n      dup2\n      mstore\n      0x20\n      add\n      0x00\n      keccak256\n        /* \"contracts-quiz/\\x08230518-QUIZ6-answer.sol\":2405:2427  users[msg.sender].addr */\n      0x01\n      add\n      0x00\n      swap1\n      sload\n      swap1\n      0x0100\n      exp\n      swap1\n      div\n      0xffffffffffffffffffffffffffffffffffffffff\n      and\n        /* \"contracts-quiz/\\x08230518-QUIZ6-answer.sol\":2405:2441  users[msg.sender].addr == msg.sender */\n      0xffffffffffffffffffffffffffffffffffffffff\n      and\n      eq\n        /* \"contracts-quiz/\\x08230518-QUIZ6-answer.sol\":2397:2442  require(users[msg.sender].addr == msg.sender) */\n      tag_115\n      jumpi\n      0x00\n      dup1\n      revert\n    tag_115:\n        /* \"contracts-quiz/\\x08230518-QUIZ6-answer.sol\":4759:4762  100 */\n      0x64\n        /* \"contracts-quiz/\\x08230518-QUIZ6-answer.sol\":4740:4745  polls */\n      0x00\n        /* \"contracts-quiz/\\x08230518-QUIZ6-answer.sol\":4746:4752  _title */\n      dup3\n        /* \"contracts-quiz/\\x08230518-QUIZ6-answer.sol\":4740:4753  polls[_title] */\n      mload(0x40)\n      tag_117\n      swap2\n      swap1\n      tag_54\n      jump\t// in\n    tag_117:\n      swap1\n      dup2\n      mstore\n      0x20\n      add\n      mload(0x40)\n      dup1\n      swap2\n      sub\n      swap1\n      keccak256\n        /* \"contracts-quiz/\\x08230518-QUIZ6-answer.sol\":4740:4758  polls[_title].time */\n      0x04\n      add\n      sload\n        /* \"contracts-quiz/\\x08230518-QUIZ6-answer.sol\":4740:4762  polls[_title].time+100 */\n      tag_118\n      swap2\n      swap1\n      tag_119\n      jump\t// in\n    tag_118:\n        /* \"contracts-quiz/\\x08230518-QUIZ6-answer.sol\":4722:4737  block.timestamp */\n      timestamp\n        /* \"contracts-quiz/\\x08230518-QUIZ6-answer.sol\":4722:4762  block.timestamp > polls[_title].time+100 */\n      gt\n        /* \"contracts-quiz/\\x08230518-QUIZ6-answer.sol\":4714:4763  require(block.timestamp > polls[_title].time+100) */\n      tag_120\n      jumpi\n      0x00\n      dup1\n      revert\n    tag_120:\n        /* \"contracts-quiz/\\x08230518-QUIZ6-answer.sol\":4943:4945  10 */\n      0x0a\n        /* \"contracts-quiz/\\x08230518-QUIZ6-answer.sol\":4941:4942  7 */\n      0x07\n        /* \"contracts-quiz/\\x08230518-QUIZ6-answer.sol\":4931:4940  userCount */\n      sload(0x02)\n        /* \"contracts-quiz/\\x08230518-QUIZ6-answer.sol\":4931:4942  userCount*7 */\n      tag_121\n      swap2\n      swap1\n      tag_122\n      jump\t// in\n    tag_121:\n        /* \"contracts-quiz/\\x08230518-QUIZ6-answer.sol\":4931:4945  userCount*7/10 */\n      tag_123\n      swap2\n      swap1\n      tag_124\n      jump\t// in\n    tag_123:\n        /* \"contracts-quiz/\\x08230518-QUIZ6-answer.sol\":4909:4914  polls */\n      0x00\n        /* \"contracts-quiz/\\x08230518-QUIZ6-answer.sol\":4915:4921  _title */\n      dup3\n        /* \"contracts-quiz/\\x08230518-QUIZ6-answer.sol\":4909:4922  polls[_title] */\n      mload(0x40)\n      tag_125\n      swap2\n      swap1\n      tag_54\n      jump\t// in\n    tag_125:\n      swap1\n      dup2\n      mstore\n      0x20\n      add\n      mload(0x40)\n      dup1\n      swap2\n      sub\n      swap1\n      keccak256\n        /* \"contracts-quiz/\\x08230518-QUIZ6-answer.sol\":4909:4927  polls[_title].cons */\n      0x06\n      add\n      sload\n        /* \"contracts-quiz/\\x08230518-QUIZ6-answer.sol\":4888:4893  polls */\n      0x00\n        /* \"contracts-quiz/\\x08230518-QUIZ6-answer.sol\":4894:4900  _title */\n      dup4\n        /* \"contracts-quiz/\\x08230518-QUIZ6-answer.sol\":4888:4901  polls[_title] */\n      mload(0x40)\n      tag_126\n      swap2\n      swap1\n      tag_54\n      jump\t// in\n    tag_126:\n      swap1\n      dup2\n      mstore\n      0x20\n      add\n      mload(0x40)\n      dup1\n      swap2\n      sub\n      swap1\n      keccak256\n        /* \"contracts-quiz/\\x08230518-QUIZ6-answer.sol\":4888:4906  polls[_title].pros */\n      0x05\n      add\n      sload\n        /* \"contracts-quiz/\\x08230518-QUIZ6-answer.sol\":4888:4927  polls[_title].pros + polls[_title].cons */\n      tag_127\n      swap2\n      swap1\n      tag_119\n      jump\t// in\n    tag_127:\n        /* \"contracts-quiz/\\x08230518-QUIZ6-answer.sol\":4887:4945  (polls[_title].pros + polls[_title].cons) > userCount*7/10 */\n      gt\n        /* \"contracts-quiz/\\x08230518-QUIZ6-answer.sol\":4887:5024  (polls[_title].pros + polls[_title].cons) > userCount*7/10 && (polls[_title].pros) *100 / (polls[_title].pros + polls[_title].cons)  > 66 */\n      dup1\n      iszero\n      tag_128\n      jumpi\n      pop\n        /* \"contracts-quiz/\\x08230518-QUIZ6-answer.sol\":5022:5024  66 */\n      0x42\n        /* \"contracts-quiz/\\x08230518-QUIZ6-answer.sol\":4999:5004  polls */\n      0x00\n        /* \"contracts-quiz/\\x08230518-QUIZ6-answer.sol\":5005:5011  _title */\n      dup3\n        /* \"contracts-quiz/\\x08230518-QUIZ6-answer.sol\":4999:5012  polls[_title] */\n      mload(0x40)\n      tag_129\n      swap2\n      swap1\n      tag_54\n      jump\t// in\n    tag_129:\n      swap1\n      dup2\n      mstore\n      0x20\n      add\n      mload(0x40)\n      dup1\n      swap2\n      sub\n      swap1\n      keccak256\n        /* \"contracts-quiz/\\x08230518-QUIZ6-answer.sol\":4999:5017  polls[_title].cons */\n      0x06\n      add\n      sload\n        /* \"contracts-quiz/\\x08230518-QUIZ6-answer.sol\":4978:4983  polls */\n      0x00\n        /* \"contracts-quiz/\\x08230518-QUIZ6-answer.sol\":4984:4990  _title */\n      dup4\n        /* \"contracts-quiz/\\x08230518-QUIZ6-answer.sol\":4978:4991  polls[_title] */\n      mload(0x40)\n      tag_130\n      swap2\n      swap1\n      tag_54\n      jump\t// in\n    tag_130:\n      swap1\n      dup2\n      mstore\n      0x20\n      add\n      mload(0x40)\n      dup1\n      swap2\n      sub\n      swap1\n      keccak256\n        /* \"contracts-quiz/\\x08230518-QUIZ6-answer.sol\":4978:4996  polls[_title].pros */\n      0x05\n      add\n      sload\n        /* \"contracts-quiz/\\x08230518-QUIZ6-answer.sol\":4978:5017  polls[_title].pros + polls[_title].cons */\n      tag_131\n      swap2\n      swap1\n      tag_119\n      jump\t// in\n    tag_131:\n        /* \"contracts-quiz/\\x08230518-QUIZ6-answer.sol\":4971:4974  100 */\n      0x64\n        /* \"contracts-quiz/\\x08230518-QUIZ6-answer.sol\":4950:4955  polls */\n      0x00\n        /* \"contracts-quiz/\\x08230518-QUIZ6-answer.sol\":4956:4962  _title */\n      dup5\n        /* \"contracts-quiz/\\x08230518-QUIZ6-answer.sol\":4950:4963  polls[_title] */\n      mload(0x40)\n      tag_132\n      swap2\n      swap1\n      tag_54\n      jump\t// in\n    tag_132:\n      swap1\n      dup2\n      mstore\n      0x20\n      add\n      mload(0x40)\n      dup1\n      swap2\n      sub\n      swap1\n      keccak256\n        /* \"contracts-quiz/\\x08230518-QUIZ6-answer.sol\":4950:4968  polls[_title].pros */\n      0x05\n      add\n      sload\n        /* \"contracts-quiz/\\x08230518-QUIZ6-answer.sol\":4949:4974  (polls[_title].pros) *100 */\n      tag_133\n      swap2\n      swap1\n      tag_122\n      jump\t// in\n    tag_133:\n        /* \"contracts-quiz/\\x08230518-QUIZ6-answer.sol\":4949:5018  (polls[_title].pros) *100 / (polls[_title].pros + polls[_title].cons) */\n      tag_134\n      swap2\n      swap1\n      tag_124\n      jump\t// in\n    tag_134:\n        /* \"contracts-quiz/\\x08230518-QUIZ6-answer.sol\":4949:5024  (polls[_title].pros) *100 / (polls[_title].pros + polls[_title].cons)  > 66 */\n      gt\n        /* \"contracts-quiz/\\x08230518-QUIZ6-answer.sol\":4887:5024  (polls[_title].pros + polls[_title].cons) > userCount*7/10 && (polls[_title].pros) *100 / (polls[_title].pros + polls[_title].cons)  > 66 */\n    tag_128:\n        /* \"contracts-quiz/\\x08230518-QUIZ6-answer.sol\":4884:5165  if((polls[_title].pros + polls[_title].cons) > userCount*7/10 && (polls[_title].pros) *100 / (polls[_title].pros + polls[_title].cons)  > 66 ) {... */\n      iszero\n      tag_135\n      jumpi\n        /* \"contracts-quiz/\\x08230518-QUIZ6-answer.sol\":5064:5081  pollStatus.passed */\n      0x01\n        /* \"contracts-quiz/\\x08230518-QUIZ6-answer.sol\":5041:5046  polls */\n      0x00\n        /* \"contracts-quiz/\\x08230518-QUIZ6-answer.sol\":5047:5053  _title */\n      dup3\n        /* \"contracts-quiz/\\x08230518-QUIZ6-answer.sol\":5041:5054  polls[_title] */\n      mload(0x40)\n      tag_136\n      swap2\n      swap1\n      tag_54\n      jump\t// in\n    tag_136:\n      swap1\n      dup2\n      mstore\n      0x20\n      add\n      mload(0x40)\n      dup1\n      swap2\n      sub\n      swap1\n      keccak256\n        /* \"contracts-quiz/\\x08230518-QUIZ6-answer.sol\":5041:5061  polls[_title].status */\n      0x07\n      add\n      0x00\n        /* \"contracts-quiz/\\x08230518-QUIZ6-answer.sol\":5041:5081  polls[_title].status = pollStatus.passed */\n      0x0100\n      exp\n      dup2\n      sload\n      dup2\n      0xff\n      mul\n      not\n      and\n      swap1\n      dup4\n      0x02\n      dup2\n      gt\n      iszero\n      tag_137\n      jumpi\n      tag_138\n      tag_68\n      jump\t// in\n    tag_138:\n    tag_137:\n      mul\n      or\n      swap1\n      sstore\n      pop\n        /* \"contracts-quiz/\\x08230518-QUIZ6-answer.sol\":4884:5165  if((polls[_title].pros + polls[_title].cons) > userCount*7/10 && (polls[_title].pros) *100 / (polls[_title].pros + polls[_title].cons)  > 66 ) {... */\n      jump(tag_139)\n    tag_135:\n        /* \"contracts-quiz/\\x08230518-QUIZ6-answer.sol\":5135:5154  pollStatus.rejected */\n      0x02\n        /* \"contracts-quiz/\\x08230518-QUIZ6-answer.sol\":5112:5117  polls */\n      0x00\n        /* \"contracts-quiz/\\x08230518-QUIZ6-answer.sol\":5118:5124  _title */\n      dup3\n        /* \"contracts-quiz/\\x08230518-QUIZ6-answer.sol\":5112:5125  polls[_title] */\n      mload(0x40)\n      tag_140\n      swap2\n      swap1\n      tag_54\n      jump\t// in\n    tag_140:\n      swap1\n      dup2\n      mstore\n      0x20\n      add\n      mload(0x40)\n      dup1\n      swap2\n      sub\n      swap1\n      keccak256\n        /* \"contracts-quiz/\\x08230518-QUIZ6-answer.sol\":5112:5132  polls[_title].status */\n      0x07\n      add\n      0x00\n        /* \"contracts-quiz/\\x08230518-QUIZ6-answer.sol\":5112:5154  polls[_title].status = pollStatus.rejected */\n      0x0100\n      exp\n      dup2\n      sload\n      dup2\n      0xff\n      mul\n      not\n      and\n      swap1\n      dup4\n      0x02\n      dup2\n      gt\n      iszero\n      tag_141\n      jumpi\n      tag_142\n      tag_68\n      jump\t// in\n    tag_142:\n    tag_141:\n      mul\n      or\n      swap1\n      sstore\n      pop\n        /* \"contracts-quiz/\\x08230518-QUIZ6-answer.sol\":4884:5165  if((polls[_title].pros + polls[_title].cons) > userCount*7/10 && (polls[_title].pros) *100 / (polls[_title].pros + polls[_title].cons)  > 66 ) {... */\n    tag_139:\n        /* \"contracts-quiz/\\x08230518-QUIZ6-answer.sol\":4644:5171  function finishPoll(string memory _title) external isItUser {... */\n      pop\n      jump\t// out\n        /* \"contracts-quiz/\\x08230518-QUIZ6-answer.sol\":3661:3856  function searchSuggested(string calldata _title) public view returns(poll memory) {... */\n    tag_44:\n        /* \"contracts-quiz/\\x08230518-QUIZ6-answer.sol\":3730:3741  poll memory */\n      tag_143\n      tag_51\n      jump\t// in\n    tag_143:\n        /* \"contracts-quiz/\\x08230518-QUIZ6-answer.sol\":3773:3778  polls */\n      0x00\n        /* \"contracts-quiz/\\x08230518-QUIZ6-answer.sol\":3779:3785  _title */\n      dup4\n      dup4\n        /* \"contracts-quiz/\\x08230518-QUIZ6-answer.sol\":3773:3786  polls[_title] */\n      mload(0x40)\n      tag_145\n      swap3\n      swap2\n      swap1\n      tag_77\n      jump\t// in\n    tag_145:\n      swap1\n      dup2\n      mstore\n      0x20\n      add\n      mload(0x40)\n      dup1\n      swap2\n      sub\n      swap1\n      keccak256\n        /* \"contracts-quiz/\\x08230518-QUIZ6-answer.sol\":3773:3789  polls[_title].by */\n      0x03\n      add\n      0x00\n      swap1\n      sload\n      swap1\n      0x0100\n      exp\n      swap1\n      div\n      0xffffffffffffffffffffffffffffffffffffffff\n      and\n        /* \"contracts-quiz/\\x08230518-QUIZ6-answer.sol\":3761:3789  msg.sender==polls[_title].by */\n      0xffffffffffffffffffffffffffffffffffffffff\n      and\n        /* \"contracts-quiz/\\x08230518-QUIZ6-answer.sol\":3761:3771  msg.sender */\n      caller\n        /* \"contracts-quiz/\\x08230518-QUIZ6-answer.sol\":3761:3789  msg.sender==polls[_title].by */\n      0xffffffffffffffffffffffffffffffffffffffff\n      and\n      eq\n        /* \"contracts-quiz/\\x08230518-QUIZ6-answer.sol\":3753:3819  require(msg.sender==polls[_title].by, \"You did not suggested it.\") */\n      tag_146\n      jumpi\n      mload(0x40)\n      0x08c379a000000000000000000000000000000000000000000000000000000000\n      dup2\n      mstore\n      0x04\n      add\n      tag_147\n      swap1\n      tag_148\n      jump\t// in\n    tag_147:\n      mload(0x40)\n      dup1\n      swap2\n      sub\n      swap1\n      revert\n    tag_146:\n        /* \"contracts-quiz/\\x08230518-QUIZ6-answer.sol\":3836:3841  polls */\n      0x00\n        /* \"contracts-quiz/\\x08230518-QUIZ6-answer.sol\":3842:3848  _title */\n      dup4\n      dup4\n        /* \"contracts-quiz/\\x08230518-QUIZ6-answer.sol\":3836:3849  polls[_title] */\n      mload(0x40)\n      tag_149\n      swap3\n      swap2\n      swap1\n      tag_77\n      jump\t// in\n    tag_149:\n      swap1\n      dup2\n      mstore\n      0x20\n      add\n      mload(0x40)\n      dup1\n      swap2\n      sub\n      swap1\n      keccak256\n        /* \"contracts-quiz/\\x08230518-QUIZ6-answer.sol\":3829:3849  return polls[_title] */\n      mload(0x40)\n      dup1\n      0x0100\n      add\n      0x40\n      mstore\n      swap1\n      dup2\n      0x00\n      dup3\n      add\n      sload\n      dup2\n      mstore\n      0x20\n      add\n      0x01\n      dup3\n      add\n      dup1\n      sload\n      tag_150\n      swap1\n      tag_56\n      jump\t// in\n    tag_150:\n      dup1\n      0x1f\n      add\n      0x20\n      dup1\n      swap2\n      div\n      mul\n      0x20\n      add\n      mload(0x40)\n      swap1\n      dup2\n      add\n      0x40\n      mstore\n      dup1\n      swap3\n      swap2\n      swap1\n      dup2\n      dup2\n      mstore\n      0x20\n      add\n      dup3\n      dup1\n      sload\n      tag_151\n      swap1\n      tag_56\n      jump\t// in\n    tag_151:\n      dup1\n      iszero\n      tag_152\n      jumpi\n      dup1\n      0x1f\n      lt\n      tag_153\n      jumpi\n      0x0100\n      dup1\n      dup4\n      sload\n      div\n      mul\n      dup4\n      mstore\n      swap2\n      0x20\n      add\n      swap2\n      jump(tag_152)\n    tag_153:\n      dup3\n      add\n      swap2\n      swap1\n      0x00\n      mstore\n      keccak256(0x00, 0x20)\n      swap1\n    tag_154:\n      dup2\n      sload\n      dup2\n      mstore\n      swap1\n      0x01\n      add\n      swap1\n      0x20\n      add\n      dup1\n      dup4\n      gt\n      tag_154\n      jumpi\n      dup3\n      swap1\n      sub\n      0x1f\n      and\n      dup3\n      add\n      swap2\n    tag_152:\n      pop\n      pop\n      pop\n      pop\n      pop\n      dup2\n      mstore\n      0x20\n      add\n      0x02\n      dup3\n      add\n      dup1\n      sload\n      tag_155\n      swap1\n      tag_56\n      jump\t// in\n    tag_155:\n      dup1\n      0x1f\n      add\n      0x20\n      dup1\n      swap2\n      div\n      mul\n      0x20\n      add\n      mload(0x40)\n      swap1\n      dup2\n      add\n      0x40\n      mstore\n      dup1\n      swap3\n      swap2\n      swap1\n      dup2\n      dup2\n      mstore\n      0x20\n      add\n      dup3\n      dup1\n      sload\n      tag_156\n      swap1\n      tag_56\n      jump\t// in\n    tag_156:\n      dup1\n      iszero\n      tag_157\n      jumpi\n      dup1\n      0x1f\n      lt\n      tag_158\n      jumpi\n      0x0100\n      dup1\n      dup4\n      sload\n      div\n      mul\n      dup4\n      mstore\n      swap2\n      0x20\n      add\n      swap2\n      jump(tag_157)\n    tag_158:\n      dup3\n      add\n      swap2\n      swap1\n      0x00\n      mstore\n      keccak256(0x00, 0x20)\n      swap1\n    tag_159:\n      dup2\n      sload\n      dup2\n      mstore\n      swap1\n      0x01\n      add\n      swap1\n      0x20\n      add\n      dup1\n      dup4\n      gt\n      tag_159\n      jumpi\n      dup3\n      swap1\n      sub\n      0x1f\n      and\n      dup3\n      add\n      swap2\n    tag_157:\n      pop\n      pop\n      pop\n      pop\n      pop\n      dup2\n      mstore\n      0x20\n      add\n      0x03\n      dup3\n      add\n      0x00\n      swap1\n      sload\n      swap1\n      0x0100\n      exp\n      swap1\n      div\n      0xffffffffffffffffffffffffffffffffffffffff\n      and\n      0xffffffffffffffffffffffffffffffffffffffff\n      and\n      0xffffffffffffffffffffffffffffffffffffffff\n      and\n      dup2\n      mstore\n      0x20\n      add\n      0x04\n      dup3\n      add\n      sload\n      dup2\n      mstore\n      0x20\n      add\n      0x05\n      dup3\n      add\n      sload\n      dup2\n      mstore\n      0x20\n      add\n      0x06\n      dup3\n      add\n      sload\n      dup2\n      mstore\n      0x20\n      add\n      0x07\n      dup3\n      add\n      0x00\n      swap1\n      sload\n      swap1\n      0x0100\n      exp\n      swap1\n      div\n      0xff\n      and\n      0x02\n      dup2\n      gt\n      iszero\n      tag_160\n      jumpi\n      tag_161\n      tag_68\n      jump\t// in\n    tag_161:\n    tag_160:\n      0x02\n      dup2\n      gt\n      iszero\n      tag_162\n      jumpi\n      tag_163\n      tag_68\n      jump\t// in\n    tag_163:\n    tag_162:\n      dup2\n      mstore\n      pop\n      pop\n      swap1\n      pop\n        /* \"contracts-quiz/\\x08230518-QUIZ6-answer.sol\":3661:3856  function searchSuggested(string calldata _title) public view returns(poll memory) {... */\n      swap3\n      swap2\n      pop\n      pop\n      jump\t// out\n        /* \"contracts-quiz/\\x08230518-QUIZ6-answer.sol\":3944:4145  function suggest(string calldata _title, string calldata _context) public isItUser {... */\n    tag_49:\n        /* \"contracts-quiz/\\x08230518-QUIZ6-answer.sol\":2431:2441  msg.sender */\n      caller\n        /* \"contracts-quiz/\\x08230518-QUIZ6-answer.sol\":2405:2441  users[msg.sender].addr == msg.sender */\n      0xffffffffffffffffffffffffffffffffffffffff\n      and\n        /* \"contracts-quiz/\\x08230518-QUIZ6-answer.sol\":2405:2410  users */\n      0x03\n        /* \"contracts-quiz/\\x08230518-QUIZ6-answer.sol\":2405:2422  users[msg.sender] */\n      0x00\n        /* \"contracts-quiz/\\x08230518-QUIZ6-answer.sol\":2411:2421  msg.sender */\n      caller\n        /* \"contracts-quiz/\\x08230518-QUIZ6-answer.sol\":2405:2422  users[msg.sender] */\n      0xffffffffffffffffffffffffffffffffffffffff\n      and\n      0xffffffffffffffffffffffffffffffffffffffff\n      and\n      dup2\n      mstore\n      0x20\n      add\n      swap1\n      dup2\n      mstore\n      0x20\n      add\n      0x00\n      keccak256\n        /* \"contracts-quiz/\\x08230518-QUIZ6-answer.sol\":2405:2427  users[msg.sender].addr */\n      0x01\n      add\n      0x00\n      swap1\n      sload\n      swap1\n      0x0100\n      exp\n      swap1\n      div\n      0xffffffffffffffffffffffffffffffffffffffff\n      and\n        /* \"contracts-quiz/\\x08230518-QUIZ6-answer.sol\":2405:2441  users[msg.sender].addr == msg.sender */\n      0xffffffffffffffffffffffffffffffffffffffff\n      and\n      eq\n        /* \"contracts-quiz/\\x08230518-QUIZ6-answer.sol\":2397:2442  require(users[msg.sender].addr == msg.sender) */\n      tag_165\n      jumpi\n      0x00\n      dup1\n      revert\n    tag_165:\n        /* \"contracts-quiz/\\x08230518-QUIZ6-answer.sol\":4053:4138  poll(++count, _title, _context, msg.sender, block.timestamp, 0,0, pollStatus.ongoing) */\n      mload(0x40)\n      dup1\n      0x0100\n      add\n      0x40\n      mstore\n      dup1\n        /* \"contracts-quiz/\\x08230518-QUIZ6-answer.sol\":4060:4065  count */\n      0x01\n      0x00\n        /* \"contracts-quiz/\\x08230518-QUIZ6-answer.sol\":4058:4065  ++count */\n      dup2\n      sload\n      tag_167\n      swap1\n      tag_90\n      jump\t// in\n    tag_167:\n      swap2\n      swap1\n      pop\n      dup2\n      swap1\n      sstore\n        /* \"contracts-quiz/\\x08230518-QUIZ6-answer.sol\":4053:4138  poll(++count, _title, _context, msg.sender, block.timestamp, 0,0, pollStatus.ongoing) */\n      dup2\n      mstore\n      0x20\n      add\n        /* \"contracts-quiz/\\x08230518-QUIZ6-answer.sol\":4067:4073  _title */\n      dup6\n      dup6\n        /* \"contracts-quiz/\\x08230518-QUIZ6-answer.sol\":4053:4138  poll(++count, _title, _context, msg.sender, block.timestamp, 0,0, pollStatus.ongoing) */\n      dup1\n      dup1\n      0x1f\n      add\n      0x20\n      dup1\n      swap2\n      div\n      mul\n      0x20\n      add\n      mload(0x40)\n      swap1\n      dup2\n      add\n      0x40\n      mstore\n      dup1\n      swap4\n      swap3\n      swap2\n      swap1\n      dup2\n      dup2\n      mstore\n      0x20\n      add\n      dup4\n      dup4\n      dup1\n      dup3\n      dup5\n      calldatacopy\n      0x00\n      dup2\n      dup5\n      add\n      mstore\n      not(0x1f)\n      0x1f\n      dup3\n      add\n      and\n      swap1\n      pop\n      dup1\n      dup4\n      add\n      swap3\n      pop\n      pop\n      pop\n      pop\n      pop\n      pop\n      pop\n      dup2\n      mstore\n      0x20\n      add\n        /* \"contracts-quiz/\\x08230518-QUIZ6-answer.sol\":4075:4083  _context */\n      dup4\n      dup4\n        /* \"contracts-quiz/\\x08230518-QUIZ6-answer.sol\":4053:4138  poll(++count, _title, _context, msg.sender, block.timestamp, 0,0, pollStatus.ongoing) */\n      dup1\n      dup1\n      0x1f\n      add\n      0x20\n      dup1\n      swap2\n      div\n      mul\n      0x20\n      add\n      mload(0x40)\n      swap1\n      dup2\n      add\n      0x40\n      mstore\n      dup1\n      swap4\n      swap3\n      swap2\n      swap1\n      dup2\n      dup2\n      mstore\n      0x20\n      add\n      dup4\n      dup4\n      dup1\n      dup3\n      dup5\n      calldatacopy\n      0x00\n      dup2\n      dup5\n      add\n      mstore\n      not(0x1f)\n      0x1f\n      dup3\n      add\n      and\n      swap1\n      pop\n      dup1\n      dup4\n      add\n      swap3\n      pop\n      pop\n      pop\n      pop\n      pop\n      pop\n      pop\n      dup2\n      mstore\n      0x20\n      add\n        /* \"contracts-quiz/\\x08230518-QUIZ6-answer.sol\":4085:4095  msg.sender */\n      caller\n        /* \"contracts-quiz/\\x08230518-QUIZ6-answer.sol\":4053:4138  poll(++count, _title, _context, msg.sender, block.timestamp, 0,0, pollStatus.ongoing) */\n      0xffffffffffffffffffffffffffffffffffffffff\n      and\n      dup2\n      mstore\n      0x20\n      add\n        /* \"contracts-quiz/\\x08230518-QUIZ6-answer.sol\":4097:4112  block.timestamp */\n      timestamp\n        /* \"contracts-quiz/\\x08230518-QUIZ6-answer.sol\":4053:4138  poll(++count, _title, _context, msg.sender, block.timestamp, 0,0, pollStatus.ongoing) */\n      dup2\n      mstore\n      0x20\n      add\n        /* \"contracts-quiz/\\x08230518-QUIZ6-answer.sol\":4114:4115  0 */\n      0x00\n        /* \"contracts-quiz/\\x08230518-QUIZ6-answer.sol\":4053:4138  poll(++count, _title, _context, msg.sender, block.timestamp, 0,0, pollStatus.ongoing) */\n      dup2\n      mstore\n      0x20\n      add\n        /* \"contracts-quiz/\\x08230518-QUIZ6-answer.sol\":4116:4117  0 */\n      0x00\n        /* \"contracts-quiz/\\x08230518-QUIZ6-answer.sol\":4053:4138  poll(++count, _title, _context, msg.sender, block.timestamp, 0,0, pollStatus.ongoing) */\n      dup2\n      mstore\n      0x20\n      add\n        /* \"contracts-quiz/\\x08230518-QUIZ6-answer.sol\":4119:4137  pollStatus.ongoing */\n      0x00\n        /* \"contracts-quiz/\\x08230518-QUIZ6-answer.sol\":4053:4138  poll(++count, _title, _context, msg.sender, block.timestamp, 0,0, pollStatus.ongoing) */\n      0x02\n      dup2\n      gt\n      iszero\n      tag_168\n      jumpi\n      tag_169\n      tag_68\n      jump\t// in\n    tag_169:\n    tag_168:\n      dup2\n      mstore\n      pop\n        /* \"contracts-quiz/\\x08230518-QUIZ6-answer.sol\":4037:4042  polls */\n      0x00\n        /* \"contracts-quiz/\\x08230518-QUIZ6-answer.sol\":4043:4049  _title */\n      dup6\n      dup6\n        /* \"contracts-quiz/\\x08230518-QUIZ6-answer.sol\":4037:4050  polls[_title] */\n      mload(0x40)\n      tag_170\n      swap3\n      swap2\n      swap1\n      tag_77\n      jump\t// in\n    tag_170:\n      swap1\n      dup2\n      mstore\n      0x20\n      add\n      mload(0x40)\n      dup1\n      swap2\n      sub\n      swap1\n      keccak256\n        /* \"contracts-quiz/\\x08230518-QUIZ6-answer.sol\":4037:4138  polls[_title] = poll(++count, _title, _context, msg.sender, block.timestamp, 0,0, pollStatus.ongoing) */\n      0x00\n      dup3\n      add\n      mload\n      dup2\n      0x00\n      add\n      sstore\n      0x20\n      dup3\n      add\n      mload\n      dup2\n      0x01\n      add\n      swap1\n      dup2\n      tag_171\n      swap2\n      swap1\n      tag_172\n      jump\t// in\n    tag_171:\n      pop\n      0x40\n      dup3\n      add\n      mload\n      dup2\n      0x02\n      add\n      swap1\n      dup2\n      tag_173\n      swap2\n      swap1\n      tag_172\n      jump\t// in\n    tag_173:\n      pop\n      0x60\n      dup3\n      add\n      mload\n      dup2\n      0x03\n      add\n      exp(0x0100, 0x00)\n      dup2\n      sload\n      dup2\n      0xffffffffffffffffffffffffffffffffffffffff\n      mul\n      not\n      and\n      swap1\n      dup4\n      0xffffffffffffffffffffffffffffffffffffffff\n      and\n      mul\n      or\n      swap1\n      sstore\n      pop\n      0x80\n      dup3\n      add\n      mload\n      dup2\n      0x04\n      add\n      sstore\n      0xa0\n      dup3\n      add\n      mload\n      dup2\n      0x05\n      add\n      sstore\n      0xc0\n      dup3\n      add\n      mload\n      dup2\n      0x06\n      add\n      sstore\n      0xe0\n      dup3\n      add\n      mload\n      dup2\n      0x07\n      add\n      exp(0x0100, 0x00)\n      dup2\n      sload\n      dup2\n      0xff\n      mul\n      not\n      and\n      swap1\n      dup4\n      0x02\n      dup2\n      gt\n      iszero\n      tag_174\n      jumpi\n      tag_175\n      tag_68\n      jump\t// in\n    tag_175:\n    tag_174:\n      mul\n      or\n      swap1\n      sstore\n      pop\n      swap1\n      pop\n      pop\n        /* \"contracts-quiz/\\x08230518-QUIZ6-answer.sol\":3944:4145  function suggest(string calldata _title, string calldata _context) public isItUser {... */\n      pop\n      pop\n      pop\n      pop\n      jump\t// out\n    tag_51:\n      mload(0x40)\n      dup1\n      0x0100\n      add\n      0x40\n      mstore\n      dup1\n      0x00\n      dup2\n      mstore\n      0x20\n      add\n      0x60\n      dup2\n      mstore\n      0x20\n      add\n      0x60\n      dup2\n      mstore\n      0x20\n      add\n      and(0xffffffffffffffffffffffffffffffffffffffff, 0x00)\n      dup2\n      mstore\n      0x20\n      add\n      0x00\n      dup2\n      mstore\n      0x20\n      add\n      0x00\n      dup2\n      mstore\n      0x20\n      add\n      0x00\n      dup2\n      mstore\n      0x20\n      add\n      0x00\n      0x02\n      dup2\n      gt\n      iszero\n      tag_176\n      jumpi\n      tag_177\n      tag_68\n      jump\t// in\n    tag_177:\n    tag_176:\n      dup2\n      mstore\n      pop\n      swap1\n      jump\t// out\n        /* \"#utility.yul\":7:84   */\n    tag_178:\n        /* \"#utility.yul\":44:51   */\n      0x00\n        /* \"#utility.yul\":73:78   */\n      dup2\n        /* \"#utility.yul\":62:78   */\n      swap1\n      pop\n        /* \"#utility.yul\":7:84   */\n      swap2\n      swap1\n      pop\n      jump\t// out\n        /* \"#utility.yul\":90:208   */\n    tag_179:\n        /* \"#utility.yul\":177:201   */\n      tag_243\n        /* \"#utility.yul\":195:200   */\n      dup2\n        /* \"#utility.yul\":177:201   */\n      tag_178\n      jump\t// in\n    tag_243:\n        /* \"#utility.yul\":172:175   */\n      dup3\n        /* \"#utility.yul\":165:202   */\n      mstore\n        /* \"#utility.yul\":90:208   */\n      pop\n      pop\n      jump\t// out\n        /* \"#utility.yul\":214:436   */\n    tag_16:\n        /* \"#utility.yul\":307:311   */\n      0x00\n        /* \"#utility.yul\":345:347   */\n      0x20\n        /* \"#utility.yul\":334:343   */\n      dup3\n        /* \"#utility.yul\":330:348   */\n      add\n        /* \"#utility.yul\":322:348   */\n      swap1\n      pop\n        /* \"#utility.yul\":358:429   */\n      tag_245\n        /* \"#utility.yul\":426:427   */\n      0x00\n        /* \"#utility.yul\":415:424   */\n      dup4\n        /* \"#utility.yul\":411:428   */\n      add\n        /* \"#utility.yul\":402:408   */\n      dup5\n        /* \"#utility.yul\":358:429   */\n      tag_179\n      jump\t// in\n    tag_245:\n        /* \"#utility.yul\":214:436   */\n      swap3\n      swap2\n      pop\n      pop\n      jump\t// out\n        /* \"#utility.yul\":442:517   */\n    tag_180:\n        /* \"#utility.yul\":475:481   */\n      0x00\n        /* \"#utility.yul\":508:510   */\n      0x40\n        /* \"#utility.yul\":502:511   */\n      mload\n        /* \"#utility.yul\":492:511   */\n      swap1\n      pop\n        /* \"#utility.yul\":442:517   */\n      swap1\n      jump\t// out\n        /* \"#utility.yul\":523:640   */\n    tag_181:\n        /* \"#utility.yul\":632:633   */\n      0x00\n        /* \"#utility.yul\":629:630   */\n      dup1\n        /* \"#utility.yul\":622:634   */\n      revert\n        /* \"#utility.yul\":646:763   */\n    tag_182:\n        /* \"#utility.yul\":755:756   */\n      0x00\n        /* \"#utility.yul\":752:753   */\n      dup1\n        /* \"#utility.yul\":745:757   */\n      revert\n        /* \"#utility.yul\":769:886   */\n    tag_183:\n        /* \"#utility.yul\":878:879   */\n      0x00\n        /* \"#utility.yul\":875:876   */\n      dup1\n        /* \"#utility.yul\":868:880   */\n      revert\n        /* \"#utility.yul\":892:1009   */\n    tag_184:\n        /* \"#utility.yul\":1001:1002   */\n      0x00\n        /* \"#utility.yul\":998:999   */\n      dup1\n        /* \"#utility.yul\":991:1003   */\n      revert\n        /* \"#utility.yul\":1015:1117   */\n    tag_185:\n        /* \"#utility.yul\":1056:1062   */\n      0x00\n        /* \"#utility.yul\":1107:1109   */\n      0x1f\n        /* \"#utility.yul\":1103:1110   */\n      not\n        /* \"#utility.yul\":1098:1100   */\n      0x1f\n        /* \"#utility.yul\":1091:1096   */\n      dup4\n        /* \"#utility.yul\":1087:1101   */\n      add\n        /* \"#utility.yul\":1083:1111   */\n      and\n        /* \"#utility.yul\":1073:1111   */\n      swap1\n      pop\n        /* \"#utility.yul\":1015:1117   */\n      swap2\n      swap1\n      pop\n      jump\t// out\n        /* \"#utility.yul\":1123:1303   */\n    tag_186:\n        /* \"#utility.yul\":1171:1248   */\n      0x4e487b7100000000000000000000000000000000000000000000000000000000\n        /* \"#utility.yul\":1168:1169   */\n      0x00\n        /* \"#utility.yul\":1161:1249   */\n      mstore\n        /* \"#utility.yul\":1268:1272   */\n      0x41\n        /* \"#utility.yul\":1265:1266   */\n      0x04\n        /* \"#utility.yul\":1258:1273   */\n      mstore\n        /* \"#utility.yul\":1292:1296   */\n      0x24\n        /* \"#utility.yul\":1289:1290   */\n      0x00\n        /* \"#utility.yul\":1282:1297   */\n      revert\n        /* \"#utility.yul\":1309:1590   */\n    tag_187:\n        /* \"#utility.yul\":1392:1419   */\n      tag_254\n        /* \"#utility.yul\":1414:1418   */\n      dup3\n        /* \"#utility.yul\":1392:1419   */\n      tag_185\n      jump\t// in\n    tag_254:\n        /* \"#utility.yul\":1384:1390   */\n      dup2\n        /* \"#utility.yul\":1380:1420   */\n      add\n        /* \"#utility.yul\":1522:1528   */\n      dup2\n        /* \"#utility.yul\":1510:1520   */\n      dup2\n        /* \"#utility.yul\":1507:1529   */\n      lt\n        /* \"#utility.yul\":1486:1504   */\n      0xffffffffffffffff\n        /* \"#utility.yul\":1474:1484   */\n      dup3\n        /* \"#utility.yul\":1471:1505   */\n      gt\n        /* \"#utility.yul\":1468:1530   */\n      or\n        /* \"#utility.yul\":1465:1553   */\n      iszero\n      tag_255\n      jumpi\n        /* \"#utility.yul\":1533:1551   */\n      tag_256\n      tag_186\n      jump\t// in\n    tag_256:\n        /* \"#utility.yul\":1465:1553   */\n    tag_255:\n        /* \"#utility.yul\":1573:1583   */\n      dup1\n        /* \"#utility.yul\":1569:1571   */\n      0x40\n        /* \"#utility.yul\":1562:1584   */\n      mstore\n        /* \"#utility.yul\":1352:1590   */\n      pop\n        /* \"#utility.yul\":1309:1590   */\n      pop\n      pop\n      jump\t// out\n        /* \"#utility.yul\":1596:1725   */\n    tag_188:\n        /* \"#utility.yul\":1630:1636   */\n      0x00\n        /* \"#utility.yul\":1657:1677   */\n      tag_258\n      tag_180\n      jump\t// in\n    tag_258:\n        /* \"#utility.yul\":1647:1677   */\n      swap1\n      pop\n        /* \"#utility.yul\":1686:1719   */\n      tag_259\n        /* \"#utility.yul\":1714:1718   */\n      dup3\n        /* \"#utility.yul\":1706:1712   */\n      dup3\n        /* \"#utility.yul\":1686:1719   */\n      tag_187\n      jump\t// in\n    tag_259:\n        /* \"#utility.yul\":1596:1725   */\n      swap2\n      swap1\n      pop\n      jump\t// out\n        /* \"#utility.yul\":1731:2039   */\n    tag_189:\n        /* \"#utility.yul\":1793:1797   */\n      0x00\n        /* \"#utility.yul\":1883:1901   */\n      0xffffffffffffffff\n        /* \"#utility.yul\":1875:1881   */\n      dup3\n        /* \"#utility.yul\":1872:1902   */\n      gt\n        /* \"#utility.yul\":1869:1925   */\n      iszero\n      tag_261\n      jumpi\n        /* \"#utility.yul\":1905:1923   */\n      tag_262\n      tag_186\n      jump\t// in\n    tag_262:\n        /* \"#utility.yul\":1869:1925   */\n    tag_261:\n        /* \"#utility.yul\":1943:1972   */\n      tag_263\n        /* \"#utility.yul\":1965:1971   */\n      dup3\n        /* \"#utility.yul\":1943:1972   */\n      tag_185\n      jump\t// in\n    tag_263:\n        /* \"#utility.yul\":1935:1972   */\n      swap1\n      pop\n        /* \"#utility.yul\":2027:2031   */\n      0x20\n        /* \"#utility.yul\":2021:2025   */\n      dup2\n        /* \"#utility.yul\":2017:2032   */\n      add\n        /* \"#utility.yul\":2009:2032   */\n      swap1\n      pop\n        /* \"#utility.yul\":1731:2039   */\n      swap2\n      swap1\n      pop\n      jump\t// out\n        /* \"#utility.yul\":2045:2191   */\n    tag_190:\n        /* \"#utility.yul\":2142:2148   */\n      dup3\n        /* \"#utility.yul\":2137:2140   */\n      dup2\n        /* \"#utility.yul\":2132:2135   */\n      dup4\n        /* \"#utility.yul\":2119:2149   */\n      calldatacopy\n        /* \"#utility.yul\":2183:2184   */\n      0x00\n        /* \"#utility.yul\":2174:2180   */\n      dup4\n        /* \"#utility.yul\":2169:2172   */\n      dup4\n        /* \"#utility.yul\":2165:2181   */\n      add\n        /* \"#utility.yul\":2158:2185   */\n      mstore\n        /* \"#utility.yul\":2045:2191   */\n      pop\n      pop\n      pop\n      jump\t// out\n        /* \"#utility.yul\":2197:2622   */\n    tag_191:\n        /* \"#utility.yul\":2275:2280   */\n      0x00\n        /* \"#utility.yul\":2300:2366   */\n      tag_266\n        /* \"#utility.yul\":2316:2365   */\n      tag_267\n        /* \"#utility.yul\":2358:2364   */\n      dup5\n        /* \"#utility.yul\":2316:2365   */\n      tag_189\n      jump\t// in\n    tag_267:\n        /* \"#utility.yul\":2300:2366   */\n      tag_188\n      jump\t// in\n    tag_266:\n        /* \"#utility.yul\":2291:2366   */\n      swap1\n      pop\n        /* \"#utility.yul\":2389:2395   */\n      dup3\n        /* \"#utility.yul\":2382:2387   */\n      dup2\n        /* \"#utility.yul\":2375:2396   */\n      mstore\n        /* \"#utility.yul\":2427:2431   */\n      0x20\n        /* \"#utility.yul\":2420:2425   */\n      dup2\n        /* \"#utility.yul\":2416:2432   */\n      add\n        /* \"#utility.yul\":2465:2468   */\n      dup5\n        /* \"#utility.yul\":2456:2462   */\n      dup5\n        /* \"#utility.yul\":2451:2454   */\n      dup5\n        /* \"#utility.yul\":2447:2463   */\n      add\n        /* \"#utility.yul\":2444:2469   */\n      gt\n        /* \"#utility.yul\":2441:2553   */\n      iszero\n      tag_268\n      jumpi\n        /* \"#utility.yul\":2472:2551   */\n      tag_269\n      tag_184\n      jump\t// in\n    tag_269:\n        /* \"#utility.yul\":2441:2553   */\n    tag_268:\n        /* \"#utility.yul\":2562:2616   */\n      tag_270\n        /* \"#utility.yul\":2609:2615   */\n      dup5\n        /* \"#utility.yul\":2604:2607   */\n      dup3\n        /* \"#utility.yul\":2599:2602   */\n      dup6\n        /* \"#utility.yul\":2562:2616   */\n      tag_190\n      jump\t// in\n    tag_270:\n        /* \"#utility.yul\":2281:2622   */\n      pop\n        /* \"#utility.yul\":2197:2622   */\n      swap4\n      swap3\n      pop\n      pop\n      pop\n      jump\t// out\n        /* \"#utility.yul\":2642:2982   */\n    tag_192:\n        /* \"#utility.yul\":2698:2703   */\n      0x00\n        /* \"#utility.yul\":2747:2750   */\n      dup3\n        /* \"#utility.yul\":2740:2744   */\n      0x1f\n        /* \"#utility.yul\":2732:2738   */\n      dup4\n        /* \"#utility.yul\":2728:2745   */\n      add\n        /* \"#utility.yul\":2724:2751   */\n      slt\n        /* \"#utility.yul\":2714:2836   */\n      tag_272\n      jumpi\n        /* \"#utility.yul\":2755:2834   */\n      tag_273\n      tag_183\n      jump\t// in\n    tag_273:\n        /* \"#utility.yul\":2714:2836   */\n    tag_272:\n        /* \"#utility.yul\":2872:2878   */\n      dup2\n        /* \"#utility.yul\":2859:2879   */\n      calldataload\n        /* \"#utility.yul\":2897:2976   */\n      tag_274\n        /* \"#utility.yul\":2972:2975   */\n      dup5\n        /* \"#utility.yul\":2964:2970   */\n      dup3\n        /* \"#utility.yul\":2957:2961   */\n      0x20\n        /* \"#utility.yul\":2949:2955   */\n      dup7\n        /* \"#utility.yul\":2945:2962   */\n      add\n        /* \"#utility.yul\":2897:2976   */\n      tag_191\n      jump\t// in\n    tag_274:\n        /* \"#utility.yul\":2888:2976   */\n      swap2\n      pop\n        /* \"#utility.yul\":2704:2982   */\n      pop\n        /* \"#utility.yul\":2642:2982   */\n      swap3\n      swap2\n      pop\n      pop\n      jump\t// out\n        /* \"#utility.yul\":2988:3497   */\n    tag_22:\n        /* \"#utility.yul\":3057:3063   */\n      0x00\n        /* \"#utility.yul\":3106:3108   */\n      0x20\n        /* \"#utility.yul\":3094:3103   */\n      dup3\n        /* \"#utility.yul\":3085:3092   */\n      dup5\n        /* \"#utility.yul\":3081:3104   */\n      sub\n        /* \"#utility.yul\":3077:3109   */\n      slt\n        /* \"#utility.yul\":3074:3193   */\n      iszero\n      tag_276\n      jumpi\n        /* \"#utility.yul\":3112:3191   */\n      tag_277\n      tag_181\n      jump\t// in\n    tag_277:\n        /* \"#utility.yul\":3074:3193   */\n    tag_276:\n        /* \"#utility.yul\":3260:3261   */\n      0x00\n        /* \"#utility.yul\":3249:3258   */\n      dup3\n        /* \"#utility.yul\":3245:3262   */\n      add\n        /* \"#utility.yul\":3232:3263   */\n      calldataload\n        /* \"#utility.yul\":3290:3308   */\n      0xffffffffffffffff\n        /* \"#utility.yul\":3282:3288   */\n      dup2\n        /* \"#utility.yul\":3279:3309   */\n      gt\n        /* \"#utility.yul\":3276:3393   */\n      iszero\n      tag_278\n      jumpi\n        /* \"#utility.yul\":3312:3391   */\n      tag_279\n      tag_182\n      jump\t// in\n    tag_279:\n        /* \"#utility.yul\":3276:3393   */\n    tag_278:\n        /* \"#utility.yul\":3417:3480   */\n      tag_280\n        /* \"#utility.yul\":3472:3479   */\n      dup5\n        /* \"#utility.yul\":3463:3469   */\n      dup3\n        /* \"#utility.yul\":3452:3461   */\n      dup6\n        /* \"#utility.yul\":3448:3470   */\n      add\n        /* \"#utility.yul\":3417:3480   */\n      tag_192\n      jump\t// in\n    tag_280:\n        /* \"#utility.yul\":3407:3480   */\n      swap2\n      pop\n        /* \"#utility.yul\":3203:3490   */\n      pop\n        /* \"#utility.yul\":2988:3497   */\n      swap3\n      swap2\n      pop\n      pop\n      jump\t// out\n        /* \"#utility.yul\":3503:3611   */\n    tag_193:\n        /* \"#utility.yul\":3580:3604   */\n      tag_282\n        /* \"#utility.yul\":3598:3603   */\n      dup2\n        /* \"#utility.yul\":3580:3604   */\n      tag_178\n      jump\t// in\n    tag_282:\n        /* \"#utility.yul\":3575:3578   */\n      dup3\n        /* \"#utility.yul\":3568:3605   */\n      mstore\n        /* \"#utility.yul\":3503:3611   */\n      pop\n      pop\n      jump\t// out\n        /* \"#utility.yul\":3617:3716   */\n    tag_194:\n        /* \"#utility.yul\":3669:3675   */\n      0x00\n        /* \"#utility.yul\":3703:3708   */\n      dup2\n        /* \"#utility.yul\":3697:3709   */\n      mload\n        /* \"#utility.yul\":3687:3709   */\n      swap1\n      pop\n        /* \"#utility.yul\":3617:3716   */\n      swap2\n      swap1\n      pop\n      jump\t// out\n        /* \"#utility.yul\":3722:3881   */\n    tag_195:\n        /* \"#utility.yul\":3796:3807   */\n      0x00\n        /* \"#utility.yul\":3830:3836   */\n      dup3\n        /* \"#utility.yul\":3825:3828   */\n      dup3\n        /* \"#utility.yul\":3818:3837   */\n      mstore\n        /* \"#utility.yul\":3870:3874   */\n      0x20\n        /* \"#utility.yul\":3865:3868   */\n      dup3\n        /* \"#utility.yul\":3861:3875   */\n      add\n        /* \"#utility.yul\":3846:3875   */\n      swap1\n      pop\n        /* \"#utility.yul\":3722:3881   */\n      swap3\n      swap2\n      pop\n      pop\n      jump\t// out\n        /* \"#utility.yul\":3887:4133   */\n    tag_196:\n        /* \"#utility.yul\":3968:3969   */\n      0x00\n        /* \"#utility.yul\":3978:4091   */\n    tag_286:\n        /* \"#utility.yul\":3992:3998   */\n      dup4\n        /* \"#utility.yul\":3989:3990   */\n      dup2\n        /* \"#utility.yul\":3986:3999   */\n      lt\n        /* \"#utility.yul\":3978:4091   */\n      iszero\n      tag_288\n      jumpi\n        /* \"#utility.yul\":4077:4078   */\n      dup1\n        /* \"#utility.yul\":4072:4075   */\n      dup3\n        /* \"#utility.yul\":4068:4079   */\n      add\n        /* \"#utility.yul\":4062:4080   */\n      mload\n        /* \"#utility.yul\":4058:4059   */\n      dup2\n        /* \"#utility.yul\":4053:4056   */\n      dup5\n        /* \"#utility.yul\":4049:4060   */\n      add\n        /* \"#utility.yul\":4042:4081   */\n      mstore\n        /* \"#utility.yul\":4014:4016   */\n      0x20\n        /* \"#utility.yul\":4011:4012   */\n      dup2\n        /* \"#utility.yul\":4007:4017   */\n      add\n        /* \"#utility.yul\":4002:4017   */\n      swap1\n      pop\n        /* \"#utility.yul\":3978:4091   */\n      jump(tag_286)\n    tag_288:\n        /* \"#utility.yul\":4125:4126   */\n      0x00\n        /* \"#utility.yul\":4116:4122   */\n      dup5\n        /* \"#utility.yul\":4111:4114   */\n      dup5\n        /* \"#utility.yul\":4107:4123   */\n      add\n        /* \"#utility.yul\":4100:4127   */\n      mstore\n        /* \"#utility.yul\":3949:4133   */\n      pop\n        /* \"#utility.yul\":3887:4133   */\n      pop\n      pop\n      pop\n      jump\t// out\n        /* \"#utility.yul\":4139:4496   */\n    tag_197:\n        /* \"#utility.yul\":4217:4220   */\n      0x00\n        /* \"#utility.yul\":4245:4284   */\n      tag_290\n        /* \"#utility.yul\":4278:4283   */\n      dup3\n        /* \"#utility.yul\":4245:4284   */\n      tag_194\n      jump\t// in\n    tag_290:\n        /* \"#utility.yul\":4300:4361   */\n      tag_291\n        /* \"#utility.yul\":4354:4360   */\n      dup2\n        /* \"#utility.yul\":4349:4352   */\n      dup6\n        /* \"#utility.yul\":4300:4361   */\n      tag_195\n      jump\t// in\n    tag_291:\n        /* \"#utility.yul\":4293:4361   */\n      swap4\n      pop\n        /* \"#utility.yul\":4370:4435   */\n      tag_292\n        /* \"#utility.yul\":4428:4434   */\n      dup2\n        /* \"#utility.yul\":4423:4426   */\n      dup6\n        /* \"#utility.yul\":4416:4420   */\n      0x20\n        /* \"#utility.yul\":4409:4414   */\n      dup7\n        /* \"#utility.yul\":4405:4421   */\n      add\n        /* \"#utility.yul\":4370:4435   */\n      tag_196\n      jump\t// in\n    tag_292:\n        /* \"#utility.yul\":4460:4489   */\n      tag_293\n        /* \"#utility.yul\":4482:4488   */\n      dup2\n        /* \"#utility.yul\":4460:4489   */\n      tag_185\n      jump\t// in\n    tag_293:\n        /* \"#utility.yul\":4455:4458   */\n      dup5\n        /* \"#utility.yul\":4451:4490   */\n      add\n        /* \"#utility.yul\":4444:4490   */\n      swap2\n      pop\n        /* \"#utility.yul\":4221:4496   */\n      pop\n        /* \"#utility.yul\":4139:4496   */\n      swap3\n      swap2\n      pop\n      pop\n      jump\t// out\n        /* \"#utility.yul\":4502:4628   */\n    tag_198:\n        /* \"#utility.yul\":4539:4546   */\n      0x00\n        /* \"#utility.yul\":4579:4621   */\n      0xffffffffffffffffffffffffffffffffffffffff\n        /* \"#utility.yul\":4572:4577   */\n      dup3\n        /* \"#utility.yul\":4568:4622   */\n      and\n        /* \"#utility.yul\":4557:4622   */\n      swap1\n      pop\n        /* \"#utility.yul\":4502:4628   */\n      swap2\n      swap1\n      pop\n      jump\t// out\n        /* \"#utility.yul\":4634:4730   */\n    tag_199:\n        /* \"#utility.yul\":4671:4678   */\n      0x00\n        /* \"#utility.yul\":4700:4724   */\n      tag_296\n        /* \"#utility.yul\":4718:4723   */\n      dup3\n        /* \"#utility.yul\":4700:4724   */\n      tag_198\n      jump\t// in\n    tag_296:\n        /* \"#utility.yul\":4689:4724   */\n      swap1\n      pop\n        /* \"#utility.yul\":4634:4730   */\n      swap2\n      swap1\n      pop\n      jump\t// out\n        /* \"#utility.yul\":4736:4844   */\n    tag_200:\n        /* \"#utility.yul\":4813:4837   */\n      tag_298\n        /* \"#utility.yul\":4831:4836   */\n      dup2\n        /* \"#utility.yul\":4813:4837   */\n      tag_199\n      jump\t// in\n    tag_298:\n        /* \"#utility.yul\":4808:4811   */\n      dup3\n        /* \"#utility.yul\":4801:4838   */\n      mstore\n        /* \"#utility.yul\":4736:4844   */\n      pop\n      pop\n      jump\t// out\n        /* \"#utility.yul\":4850:5030   */\n    tag_68:\n        /* \"#utility.yul\":4898:4975   */\n      0x4e487b7100000000000000000000000000000000000000000000000000000000\n        /* \"#utility.yul\":4895:4896   */\n      0x00\n        /* \"#utility.yul\":4888:4976   */\n      mstore\n        /* \"#utility.yul\":4995:4999   */\n      0x21\n        /* \"#utility.yul\":4992:4993   */\n      0x04\n        /* \"#utility.yul\":4985:5000   */\n      mstore\n        /* \"#utility.yul\":5019:5023   */\n      0x24\n        /* \"#utility.yul\":5016:5017   */\n      0x00\n        /* \"#utility.yul\":5009:5024   */\n      revert\n        /* \"#utility.yul\":5036:5154   */\n    tag_201:\n        /* \"#utility.yul\":5122:5123   */\n      0x03\n        /* \"#utility.yul\":5115:5120   */\n      dup2\n        /* \"#utility.yul\":5112:5124   */\n      lt\n        /* \"#utility.yul\":5102:5148   */\n      tag_301\n      jumpi\n        /* \"#utility.yul\":5128:5146   */\n      tag_302\n      tag_68\n      jump\t// in\n    tag_302:\n        /* \"#utility.yul\":5102:5148   */\n    tag_301:\n        /* \"#utility.yul\":5036:5154   */\n      pop\n      jump\t// out\n        /* \"#utility.yul\":5160:5297   */\n    tag_202:\n        /* \"#utility.yul\":5210:5217   */\n      0x00\n        /* \"#utility.yul\":5239:5244   */\n      dup2\n        /* \"#utility.yul\":5228:5244   */\n      swap1\n      pop\n        /* \"#utility.yul\":5245:5291   */\n      tag_304\n        /* \"#utility.yul\":5285:5290   */\n      dup3\n        /* \"#utility.yul\":5245:5291   */\n      tag_201\n      jump\t// in\n    tag_304:\n        /* \"#utility.yul\":5160:5297   */\n      swap2\n      swap1\n      pop\n      jump\t// out\n        /* \"#utility.yul\":5303:5440   */\n    tag_203:\n        /* \"#utility.yul\":5364:5373   */\n      0x00\n        /* \"#utility.yul\":5397:5434   */\n      tag_306\n        /* \"#utility.yul\":5428:5433   */\n      dup3\n        /* \"#utility.yul\":5397:5434   */\n      tag_202\n      jump\t// in\n    tag_306:\n        /* \"#utility.yul\":5384:5434   */\n      swap1\n      pop\n        /* \"#utility.yul\":5303:5440   */\n      swap2\n      swap1\n      pop\n      jump\t// out\n        /* \"#utility.yul\":5446:5589   */\n    tag_204:\n        /* \"#utility.yul\":5534:5582   */\n      tag_308\n        /* \"#utility.yul\":5576:5581   */\n      dup2\n        /* \"#utility.yul\":5534:5582   */\n      tag_203\n      jump\t// in\n    tag_308:\n        /* \"#utility.yul\":5529:5532   */\n      dup3\n        /* \"#utility.yul\":5522:5583   */\n      mstore\n        /* \"#utility.yul\":5446:5589   */\n      pop\n      pop\n      jump\t// out\n        /* \"#utility.yul\":5635:7365   */\n    tag_205:\n        /* \"#utility.yul\":5744:5747   */\n      0x00\n        /* \"#utility.yul\":5780:5786   */\n      0x0100\n        /* \"#utility.yul\":5775:5778   */\n      dup4\n        /* \"#utility.yul\":5771:5787   */\n      add\n        /* \"#utility.yul\":5871:5875   */\n      0x00\n        /* \"#utility.yul\":5864:5869   */\n      dup4\n        /* \"#utility.yul\":5860:5876   */\n      add\n        /* \"#utility.yul\":5854:5877   */\n      mload\n        /* \"#utility.yul\":5890:5953   */\n      tag_310\n        /* \"#utility.yul\":5947:5951   */\n      0x00\n        /* \"#utility.yul\":5942:5945   */\n      dup7\n        /* \"#utility.yul\":5938:5952   */\n      add\n        /* \"#utility.yul\":5924:5936   */\n      dup3\n        /* \"#utility.yul\":5890:5953   */\n      tag_193\n      jump\t// in\n    tag_310:\n        /* \"#utility.yul\":5797:5963   */\n      pop\n        /* \"#utility.yul\":6046:6050   */\n      0x20\n        /* \"#utility.yul\":6039:6044   */\n      dup4\n        /* \"#utility.yul\":6035:6051   */\n      add\n        /* \"#utility.yul\":6029:6052   */\n      mload\n        /* \"#utility.yul\":6099:6102   */\n      dup5\n        /* \"#utility.yul\":6093:6097   */\n      dup3\n        /* \"#utility.yul\":6089:6103   */\n      sub\n        /* \"#utility.yul\":6082:6086   */\n      0x20\n        /* \"#utility.yul\":6077:6080   */\n      dup7\n        /* \"#utility.yul\":6073:6087   */\n      add\n        /* \"#utility.yul\":6066:6104   */\n      mstore\n        /* \"#utility.yul\":6125:6198   */\n      tag_311\n        /* \"#utility.yul\":6193:6197   */\n      dup3\n        /* \"#utility.yul\":6179:6191   */\n      dup3\n        /* \"#utility.yul\":6125:6198   */\n      tag_197\n      jump\t// in\n    tag_311:\n        /* \"#utility.yul\":6117:6198   */\n      swap2\n      pop\n        /* \"#utility.yul\":5973:6209   */\n      pop\n        /* \"#utility.yul\":6294:6298   */\n      0x40\n        /* \"#utility.yul\":6287:6292   */\n      dup4\n        /* \"#utility.yul\":6283:6299   */\n      add\n        /* \"#utility.yul\":6277:6300   */\n      mload\n        /* \"#utility.yul\":6347:6350   */\n      dup5\n        /* \"#utility.yul\":6341:6345   */\n      dup3\n        /* \"#utility.yul\":6337:6351   */\n      sub\n        /* \"#utility.yul\":6330:6334   */\n      0x40\n        /* \"#utility.yul\":6325:6328   */\n      dup7\n        /* \"#utility.yul\":6321:6335   */\n      add\n        /* \"#utility.yul\":6314:6352   */\n      mstore\n        /* \"#utility.yul\":6373:6446   */\n      tag_312\n        /* \"#utility.yul\":6441:6445   */\n      dup3\n        /* \"#utility.yul\":6427:6439   */\n      dup3\n        /* \"#utility.yul\":6373:6446   */\n      tag_197\n      jump\t// in\n    tag_312:\n        /* \"#utility.yul\":6365:6446   */\n      swap2\n      pop\n        /* \"#utility.yul\":6219:6457   */\n      pop\n        /* \"#utility.yul\":6537:6541   */\n      0x60\n        /* \"#utility.yul\":6530:6535   */\n      dup4\n        /* \"#utility.yul\":6526:6542   */\n      add\n        /* \"#utility.yul\":6520:6543   */\n      mload\n        /* \"#utility.yul\":6556:6619   */\n      tag_313\n        /* \"#utility.yul\":6613:6617   */\n      0x60\n        /* \"#utility.yul\":6608:6611   */\n      dup7\n        /* \"#utility.yul\":6604:6618   */\n      add\n        /* \"#utility.yul\":6590:6602   */\n      dup3\n        /* \"#utility.yul\":6556:6619   */\n      tag_200\n      jump\t// in\n    tag_313:\n        /* \"#utility.yul\":6467:6629   */\n      pop\n        /* \"#utility.yul\":6711:6715   */\n      0x80\n        /* \"#utility.yul\":6704:6709   */\n      dup4\n        /* \"#utility.yul\":6700:6716   */\n      add\n        /* \"#utility.yul\":6694:6717   */\n      mload\n        /* \"#utility.yul\":6730:6793   */\n      tag_314\n        /* \"#utility.yul\":6787:6791   */\n      0x80\n        /* \"#utility.yul\":6782:6785   */\n      dup7\n        /* \"#utility.yul\":6778:6792   */\n      add\n        /* \"#utility.yul\":6764:6776   */\n      dup3\n        /* \"#utility.yul\":6730:6793   */\n      tag_193\n      jump\t// in\n    tag_314:\n        /* \"#utility.yul\":6639:6803   */\n      pop\n        /* \"#utility.yul\":6885:6889   */\n      0xa0\n        /* \"#utility.yul\":6878:6883   */\n      dup4\n        /* \"#utility.yul\":6874:6890   */\n      add\n        /* \"#utility.yul\":6868:6891   */\n      mload\n        /* \"#utility.yul\":6904:6967   */\n      tag_315\n        /* \"#utility.yul\":6961:6965   */\n      0xa0\n        /* \"#utility.yul\":6956:6959   */\n      dup7\n        /* \"#utility.yul\":6952:6966   */\n      add\n        /* \"#utility.yul\":6938:6950   */\n      dup3\n        /* \"#utility.yul\":6904:6967   */\n      tag_193\n      jump\t// in\n    tag_315:\n        /* \"#utility.yul\":6813:6977   */\n      pop\n        /* \"#utility.yul\":7059:7063   */\n      0xc0\n        /* \"#utility.yul\":7052:7057   */\n      dup4\n        /* \"#utility.yul\":7048:7064   */\n      add\n        /* \"#utility.yul\":7042:7065   */\n      mload\n        /* \"#utility.yul\":7078:7141   */\n      tag_316\n        /* \"#utility.yul\":7135:7139   */\n      0xc0\n        /* \"#utility.yul\":7130:7133   */\n      dup7\n        /* \"#utility.yul\":7126:7140   */\n      add\n        /* \"#utility.yul\":7112:7124   */\n      dup3\n        /* \"#utility.yul\":7078:7141   */\n      tag_193\n      jump\t// in\n    tag_316:\n        /* \"#utility.yul\":6987:7151   */\n      pop\n        /* \"#utility.yul\":7235:7239   */\n      0xe0\n        /* \"#utility.yul\":7228:7233   */\n      dup4\n        /* \"#utility.yul\":7224:7240   */\n      add\n        /* \"#utility.yul\":7218:7241   */\n      mload\n        /* \"#utility.yul\":7254:7328   */\n      tag_317\n        /* \"#utility.yul\":7322:7326   */\n      0xe0\n        /* \"#utility.yul\":7317:7320   */\n      dup7\n        /* \"#utility.yul\":7313:7327   */\n      add\n        /* \"#utility.yul\":7299:7311   */\n      dup3\n        /* \"#utility.yul\":7254:7328   */\n      tag_204\n      jump\t// in\n    tag_317:\n        /* \"#utility.yul\":7161:7338   */\n      pop\n        /* \"#utility.yul\":7355:7359   */\n      dup1\n        /* \"#utility.yul\":7348:7359   */\n      swap2\n      pop\n        /* \"#utility.yul\":5749:7365   */\n      pop\n        /* \"#utility.yul\":5635:7365   */\n      swap3\n      swap2\n      pop\n      pop\n      jump\t// out\n        /* \"#utility.yul\":7371:7724   */\n    tag_25:\n        /* \"#utility.yul\":7504:7508   */\n      0x00\n        /* \"#utility.yul\":7542:7544   */\n      0x20\n        /* \"#utility.yul\":7531:7540   */\n      dup3\n        /* \"#utility.yul\":7527:7545   */\n      add\n        /* \"#utility.yul\":7519:7545   */\n      swap1\n      pop\n        /* \"#utility.yul\":7591:7600   */\n      dup2\n        /* \"#utility.yul\":7585:7589   */\n      dup2\n        /* \"#utility.yul\":7581:7601   */\n      sub\n        /* \"#utility.yul\":7577:7578   */\n      0x00\n        /* \"#utility.yul\":7566:7575   */\n      dup4\n        /* \"#utility.yul\":7562:7579   */\n      add\n        /* \"#utility.yul\":7555:7602   */\n      mstore\n        /* \"#utility.yul\":7619:7717   */\n      tag_319\n        /* \"#utility.yul\":7712:7716   */\n      dup2\n        /* \"#utility.yul\":7703:7709   */\n      dup5\n        /* \"#utility.yul\":7619:7717   */\n      tag_205\n      jump\t// in\n    tag_319:\n        /* \"#utility.yul\":7611:7717   */\n      swap1\n      pop\n        /* \"#utility.yul\":7371:7724   */\n      swap3\n      swap2\n      pop\n      pop\n      jump\t// out\n        /* \"#utility.yul\":7730:7847   */\n    tag_206:\n        /* \"#utility.yul\":7839:7840   */\n      0x00\n        /* \"#utility.yul\":7836:7837   */\n      dup1\n        /* \"#utility.yul\":7829:7841   */\n      revert\n        /* \"#utility.yul\":7853:7970   */\n    tag_207:\n        /* \"#utility.yul\":7962:7963   */\n      0x00\n        /* \"#utility.yul\":7959:7960   */\n      dup1\n        /* \"#utility.yul\":7952:7964   */\n      revert\n        /* \"#utility.yul\":7990:8543   */\n    tag_208:\n        /* \"#utility.yul\":8048:8056   */\n      0x00\n        /* \"#utility.yul\":8058:8064   */\n      dup1\n        /* \"#utility.yul\":8108:8111   */\n      dup4\n        /* \"#utility.yul\":8101:8105   */\n      0x1f\n        /* \"#utility.yul\":8093:8099   */\n      dup5\n        /* \"#utility.yul\":8089:8106   */\n      add\n        /* \"#utility.yul\":8085:8112   */\n      slt\n        /* \"#utility.yul\":8075:8197   */\n      tag_323\n      jumpi\n        /* \"#utility.yul\":8116:8195   */\n      tag_324\n      tag_183\n      jump\t// in\n    tag_324:\n        /* \"#utility.yul\":8075:8197   */\n    tag_323:\n        /* \"#utility.yul\":8229:8235   */\n      dup3\n        /* \"#utility.yul\":8216:8236   */\n      calldataload\n        /* \"#utility.yul\":8206:8236   */\n      swap1\n      pop\n        /* \"#utility.yul\":8259:8277   */\n      0xffffffffffffffff\n        /* \"#utility.yul\":8251:8257   */\n      dup2\n        /* \"#utility.yul\":8248:8278   */\n      gt\n        /* \"#utility.yul\":8245:8362   */\n      iszero\n      tag_325\n      jumpi\n        /* \"#utility.yul\":8281:8360   */\n      tag_326\n      tag_206\n      jump\t// in\n    tag_326:\n        /* \"#utility.yul\":8245:8362   */\n    tag_325:\n        /* \"#utility.yul\":8395:8399   */\n      0x20\n        /* \"#utility.yul\":8387:8393   */\n      dup4\n        /* \"#utility.yul\":8383:8400   */\n      add\n        /* \"#utility.yul\":8371:8400   */\n      swap2\n      pop\n        /* \"#utility.yul\":8449:8452   */\n      dup4\n        /* \"#utility.yul\":8441:8445   */\n      0x01\n        /* \"#utility.yul\":8433:8439   */\n      dup3\n        /* \"#utility.yul\":8429:8446   */\n      mul\n        /* \"#utility.yul\":8419:8427   */\n      dup4\n        /* \"#utility.yul\":8415:8447   */\n      add\n        /* \"#utility.yul\":8412:8453   */\n      gt\n        /* \"#utility.yul\":8409:8537   */\n      iszero\n      tag_327\n      jumpi\n        /* \"#utility.yul\":8456:8535   */\n      tag_328\n      tag_207\n      jump\t// in\n    tag_328:\n        /* \"#utility.yul\":8409:8537   */\n    tag_327:\n        /* \"#utility.yul\":7990:8543   */\n      swap3\n      pop\n      swap3\n      swap1\n      pop\n      jump\t// out\n        /* \"#utility.yul\":8549:8639   */\n    tag_209:\n        /* \"#utility.yul\":8583:8590   */\n      0x00\n        /* \"#utility.yul\":8626:8631   */\n      dup2\n        /* \"#utility.yul\":8619:8632   */\n      iszero\n        /* \"#utility.yul\":8612:8633   */\n      iszero\n        /* \"#utility.yul\":8601:8633   */\n      swap1\n      pop\n        /* \"#utility.yul\":8549:8639   */\n      swap2\n      swap1\n      pop\n      jump\t// out\n        /* \"#utility.yul\":8645:8761   */\n    tag_210:\n        /* \"#utility.yul\":8715:8736   */\n      tag_331\n        /* \"#utility.yul\":8730:8735   */\n      dup2\n        /* \"#utility.yul\":8715:8736   */\n      tag_209\n      jump\t// in\n    tag_331:\n        /* \"#utility.yul\":8708:8713   */\n      dup2\n        /* \"#utility.yul\":8705:8737   */\n      eq\n        /* \"#utility.yul\":8695:8755   */\n      tag_332\n      jumpi\n        /* \"#utility.yul\":8751:8752   */\n      0x00\n        /* \"#utility.yul\":8748:8749   */\n      dup1\n        /* \"#utility.yul\":8741:8753   */\n      revert\n        /* \"#utility.yul\":8695:8755   */\n    tag_332:\n        /* \"#utility.yul\":8645:8761   */\n      pop\n      jump\t// out\n        /* \"#utility.yul\":8767:8900   */\n    tag_211:\n        /* \"#utility.yul\":8810:8815   */\n      0x00\n        /* \"#utility.yul\":8848:8854   */\n      dup2\n        /* \"#utility.yul\":8835:8855   */\n      calldataload\n        /* \"#utility.yul\":8826:8855   */\n      swap1\n      pop\n        /* \"#utility.yul\":8864:8894   */\n      tag_334\n        /* \"#utility.yul\":8888:8893   */\n      dup2\n        /* \"#utility.yul\":8864:8894   */\n      tag_210\n      jump\t// in\n    tag_334:\n        /* \"#utility.yul\":8767:8900   */\n      swap3\n      swap2\n      pop\n      pop\n      jump\t// out\n        /* \"#utility.yul\":8906:9574   */\n    tag_28:\n        /* \"#utility.yul\":8983:8989   */\n      0x00\n        /* \"#utility.yul\":8991:8997   */\n      dup1\n        /* \"#utility.yul\":8999:9005   */\n      0x00\n        /* \"#utility.yul\":9048:9050   */\n      0x40\n        /* \"#utility.yul\":9036:9045   */\n      dup5\n        /* \"#utility.yul\":9027:9034   */\n      dup7\n        /* \"#utility.yul\":9023:9046   */\n      sub\n        /* \"#utility.yul\":9019:9051   */\n      slt\n        /* \"#utility.yul\":9016:9135   */\n      iszero\n      tag_336\n      jumpi\n        /* \"#utility.yul\":9054:9133   */\n      tag_337\n      tag_181\n      jump\t// in\n    tag_337:\n        /* \"#utility.yul\":9016:9135   */\n    tag_336:\n        /* \"#utility.yul\":9202:9203   */\n      0x00\n        /* \"#utility.yul\":9191:9200   */\n      dup5\n        /* \"#utility.yul\":9187:9204   */\n      add\n        /* \"#utility.yul\":9174:9205   */\n      calldataload\n        /* \"#utility.yul\":9232:9250   */\n      0xffffffffffffffff\n        /* \"#utility.yul\":9224:9230   */\n      dup2\n        /* \"#utility.yul\":9221:9251   */\n      gt\n        /* \"#utility.yul\":9218:9335   */\n      iszero\n      tag_338\n      jumpi\n        /* \"#utility.yul\":9254:9333   */\n      tag_339\n      tag_182\n      jump\t// in\n    tag_339:\n        /* \"#utility.yul\":9218:9335   */\n    tag_338:\n        /* \"#utility.yul\":9367:9432   */\n      tag_340\n        /* \"#utility.yul\":9424:9431   */\n      dup7\n        /* \"#utility.yul\":9415:9421   */\n      dup3\n        /* \"#utility.yul\":9404:9413   */\n      dup8\n        /* \"#utility.yul\":9400:9422   */\n      add\n        /* \"#utility.yul\":9367:9432   */\n      tag_208\n      jump\t// in\n    tag_340:\n        /* \"#utility.yul\":9349:9432   */\n      swap4\n      pop\n      swap4\n      pop\n        /* \"#utility.yul\":9145:9442   */\n      pop\n        /* \"#utility.yul\":9481:9483   */\n      0x20\n        /* \"#utility.yul\":9507:9557   */\n      tag_341\n        /* \"#utility.yul\":9549:9556   */\n      dup7\n        /* \"#utility.yul\":9540:9546   */\n      dup3\n        /* \"#utility.yul\":9529:9538   */\n      dup8\n        /* \"#utility.yul\":9525:9547   */\n      add\n        /* \"#utility.yul\":9507:9557   */\n      tag_211\n      jump\t// in\n    tag_341:\n        /* \"#utility.yul\":9497:9557   */\n      swap2\n      pop\n        /* \"#utility.yul\":9452:9567   */\n      pop\n        /* \"#utility.yul\":8906:9574   */\n      swap3\n      pop\n      swap3\n      pop\n      swap3\n      jump\t// out\n        /* \"#utility.yul\":9580:10109   */\n    tag_32:\n        /* \"#utility.yul\":9651:9657   */\n      0x00\n        /* \"#utility.yul\":9659:9665   */\n      dup1\n        /* \"#utility.yul\":9708:9710   */\n      0x20\n        /* \"#utility.yul\":9696:9705   */\n      dup4\n        /* \"#utility.yul\":9687:9694   */\n      dup6\n        /* \"#utility.yul\":9683:9706   */\n      sub\n        /* \"#utility.yul\":9679:9711   */\n      slt\n        /* \"#utility.yul\":9676:9795   */\n      iszero\n      tag_343\n      jumpi\n        /* \"#utility.yul\":9714:9793   */\n      tag_344\n      tag_181\n      jump\t// in\n    tag_344:\n        /* \"#utility.yul\":9676:9795   */\n    tag_343:\n        /* \"#utility.yul\":9862:9863   */\n      0x00\n        /* \"#utility.yul\":9851:9860   */\n      dup4\n        /* \"#utility.yul\":9847:9864   */\n      add\n        /* \"#utility.yul\":9834:9865   */\n      calldataload\n        /* \"#utility.yul\":9892:9910   */\n      0xffffffffffffffff\n        /* \"#utility.yul\":9884:9890   */\n      dup2\n        /* \"#utility.yul\":9881:9911   */\n      gt\n        /* \"#utility.yul\":9878:9995   */\n      iszero\n      tag_345\n      jumpi\n        /* \"#utility.yul\":9914:9993   */\n      tag_346\n      tag_182\n      jump\t// in\n    tag_346:\n        /* \"#utility.yul\":9878:9995   */\n    tag_345:\n        /* \"#utility.yul\":10027:10092   */\n      tag_347\n        /* \"#utility.yul\":10084:10091   */\n      dup6\n        /* \"#utility.yul\":10075:10081   */\n      dup3\n        /* \"#utility.yul\":10064:10073   */\n      dup7\n        /* \"#utility.yul\":10060:10082   */\n      add\n        /* \"#utility.yul\":10027:10092   */\n      tag_208\n      jump\t// in\n    tag_347:\n        /* \"#utility.yul\":10009:10092   */\n      swap3\n      pop\n      swap3\n      pop\n        /* \"#utility.yul\":9805:10102   */\n      pop\n        /* \"#utility.yul\":9580:10109   */\n      swap3\n      pop\n      swap3\n      swap1\n      pop\n      jump\t// out\n        /* \"#utility.yul\":10115:10284   */\n    tag_212:\n        /* \"#utility.yul\":10199:10210   */\n      0x00\n        /* \"#utility.yul\":10233:10239   */\n      dup3\n        /* \"#utility.yul\":10228:10231   */\n      dup3\n        /* \"#utility.yul\":10221:10240   */\n      mstore\n        /* \"#utility.yul\":10273:10277   */\n      0x20\n        /* \"#utility.yul\":10268:10271   */\n      dup3\n        /* \"#utility.yul\":10264:10278   */\n      add\n        /* \"#utility.yul\":10249:10278   */\n      swap1\n      pop\n        /* \"#utility.yul\":10115:10284   */\n      swap3\n      swap2\n      pop\n      pop\n      jump\t// out\n        /* \"#utility.yul\":10290:10667   */\n    tag_213:\n        /* \"#utility.yul\":10378:10381   */\n      0x00\n        /* \"#utility.yul\":10406:10445   */\n      tag_350\n        /* \"#utility.yul\":10439:10444   */\n      dup3\n        /* \"#utility.yul\":10406:10445   */\n      tag_194\n      jump\t// in\n    tag_350:\n        /* \"#utility.yul\":10461:10532   */\n      tag_351\n        /* \"#utility.yul\":10525:10531   */\n      dup2\n        /* \"#utility.yul\":10520:10523   */\n      dup6\n        /* \"#utility.yul\":10461:10532   */\n      tag_212\n      jump\t// in\n    tag_351:\n        /* \"#utility.yul\":10454:10532   */\n      swap4\n      pop\n        /* \"#utility.yul\":10541:10606   */\n      tag_352\n        /* \"#utility.yul\":10599:10605   */\n      dup2\n        /* \"#utility.yul\":10594:10597   */\n      dup6\n        /* \"#utility.yul\":10587:10591   */\n      0x20\n        /* \"#utility.yul\":10580:10585   */\n      dup7\n        /* \"#utility.yul\":10576:10592   */\n      add\n        /* \"#utility.yul\":10541:10606   */\n      tag_196\n      jump\t// in\n    tag_352:\n        /* \"#utility.yul\":10631:10660   */\n      tag_353\n        /* \"#utility.yul\":10653:10659   */\n      dup2\n        /* \"#utility.yul\":10631:10660   */\n      tag_185\n      jump\t// in\n    tag_353:\n        /* \"#utility.yul\":10626:10629   */\n      dup5\n        /* \"#utility.yul\":10622:10661   */\n      add\n        /* \"#utility.yul\":10615:10661   */\n      swap2\n      pop\n        /* \"#utility.yul\":10382:10667   */\n      pop\n        /* \"#utility.yul\":10290:10667   */\n      swap3\n      swap2\n      pop\n      pop\n      jump\t// out\n        /* \"#utility.yul\":10673:10791   */\n    tag_214:\n        /* \"#utility.yul\":10760:10784   */\n      tag_355\n        /* \"#utility.yul\":10778:10783   */\n      dup2\n        /* \"#utility.yul\":10760:10784   */\n      tag_199\n      jump\t// in\n    tag_355:\n        /* \"#utility.yul\":10755:10758   */\n      dup3\n        /* \"#utility.yul\":10748:10785   */\n      mstore\n        /* \"#utility.yul\":10673:10791   */\n      pop\n      pop\n      jump\t// out\n        /* \"#utility.yul\":10797:10950   */\n    tag_215:\n        /* \"#utility.yul\":10895:10943   */\n      tag_357\n        /* \"#utility.yul\":10937:10942   */\n      dup2\n        /* \"#utility.yul\":10895:10943   */\n      tag_203\n      jump\t// in\n    tag_357:\n        /* \"#utility.yul\":10890:10893   */\n      dup3\n        /* \"#utility.yul\":10883:10944   */\n      mstore\n        /* \"#utility.yul\":10797:10950   */\n      pop\n      pop\n      jump\t// out\n        /* \"#utility.yul\":10956:12157   */\n    tag_38:\n        /* \"#utility.yul\":11296:11300   */\n      0x00\n        /* \"#utility.yul\":11334:11337   */\n      0x0100\n        /* \"#utility.yul\":11323:11332   */\n      dup3\n        /* \"#utility.yul\":11319:11338   */\n      add\n        /* \"#utility.yul\":11311:11338   */\n      swap1\n      pop\n        /* \"#utility.yul\":11348:11419   */\n      tag_359\n        /* \"#utility.yul\":11416:11417   */\n      0x00\n        /* \"#utility.yul\":11405:11414   */\n      dup4\n        /* \"#utility.yul\":11401:11418   */\n      add\n        /* \"#utility.yul\":11392:11398   */\n      dup12\n        /* \"#utility.yul\":11348:11419   */\n      tag_179\n      jump\t// in\n    tag_359:\n        /* \"#utility.yul\":11466:11475   */\n      dup2\n        /* \"#utility.yul\":11460:11464   */\n      dup2\n        /* \"#utility.yul\":11456:11476   */\n      sub\n        /* \"#utility.yul\":11451:11453   */\n      0x20\n        /* \"#utility.yul\":11440:11449   */\n      dup4\n        /* \"#utility.yul\":11436:11454   */\n      add\n        /* \"#utility.yul\":11429:11477   */\n      mstore\n        /* \"#utility.yul\":11494:11572   */\n      tag_360\n        /* \"#utility.yul\":11567:11571   */\n      dup2\n        /* \"#utility.yul\":11558:11564   */\n      dup11\n        /* \"#utility.yul\":11494:11572   */\n      tag_213\n      jump\t// in\n    tag_360:\n        /* \"#utility.yul\":11486:11572   */\n      swap1\n      pop\n        /* \"#utility.yul\":11619:11628   */\n      dup2\n        /* \"#utility.yul\":11613:11617   */\n      dup2\n        /* \"#utility.yul\":11609:11629   */\n      sub\n        /* \"#utility.yul\":11604:11606   */\n      0x40\n        /* \"#utility.yul\":11593:11602   */\n      dup4\n        /* \"#utility.yul\":11589:11607   */\n      add\n        /* \"#utility.yul\":11582:11630   */\n      mstore\n        /* \"#utility.yul\":11647:11725   */\n      tag_361\n        /* \"#utility.yul\":11720:11724   */\n      dup2\n        /* \"#utility.yul\":11711:11717   */\n      dup10\n        /* \"#utility.yul\":11647:11725   */\n      tag_213\n      jump\t// in\n    tag_361:\n        /* \"#utility.yul\":11639:11725   */\n      swap1\n      pop\n        /* \"#utility.yul\":11735:11807   */\n      tag_362\n        /* \"#utility.yul\":11803:11805   */\n      0x60\n        /* \"#utility.yul\":11792:11801   */\n      dup4\n        /* \"#utility.yul\":11788:11806   */\n      add\n        /* \"#utility.yul\":11779:11785   */\n      dup9\n        /* \"#utility.yul\":11735:11807   */\n      tag_214\n      jump\t// in\n    tag_362:\n        /* \"#utility.yul\":11817:11890   */\n      tag_363\n        /* \"#utility.yul\":11885:11888   */\n      0x80\n        /* \"#utility.yul\":11874:11883   */\n      dup4\n        /* \"#utility.yul\":11870:11889   */\n      add\n        /* \"#utility.yul\":11861:11867   */\n      dup8\n        /* \"#utility.yul\":11817:11890   */\n      tag_179\n      jump\t// in\n    tag_363:\n        /* \"#utility.yul\":11900:11973   */\n      tag_364\n        /* \"#utility.yul\":11968:11971   */\n      0xa0\n        /* \"#utility.yul\":11957:11966   */\n      dup4\n        /* \"#utility.yul\":11953:11972   */\n      add\n        /* \"#utility.yul\":11944:11950   */\n      dup7\n        /* \"#utility.yul\":11900:11973   */\n      tag_179\n      jump\t// in\n    tag_364:\n        /* \"#utility.yul\":11983:12056   */\n      tag_365\n        /* \"#utility.yul\":12051:12054   */\n      0xc0\n        /* \"#utility.yul\":12040:12049   */\n      dup4\n        /* \"#utility.yul\":12036:12055   */\n      add\n        /* \"#utility.yul\":12027:12033   */\n      dup6\n        /* \"#utility.yul\":11983:12056   */\n      tag_179\n      jump\t// in\n    tag_365:\n        /* \"#utility.yul\":12066:12150   */\n      tag_366\n        /* \"#utility.yul\":12145:12148   */\n      0xe0\n        /* \"#utility.yul\":12134:12143   */\n      dup4\n        /* \"#utility.yul\":12130:12149   */\n      add\n        /* \"#utility.yul\":12121:12127   */\n      dup5\n        /* \"#utility.yul\":12066:12150   */\n      tag_215\n      jump\t// in\n    tag_366:\n        /* \"#utility.yul\":10956:12157   */\n      swap10\n      swap9\n      pop\n      pop\n      pop\n      pop\n      pop\n      pop\n      pop\n      pop\n      pop\n      jump\t// out\n        /* \"#utility.yul\":12163:13037   */\n    tag_48:\n        /* \"#utility.yul\":12255:12261   */\n      0x00\n        /* \"#utility.yul\":12263:12269   */\n      dup1\n        /* \"#utility.yul\":12271:12277   */\n      0x00\n        /* \"#utility.yul\":12279:12285   */\n      dup1\n        /* \"#utility.yul\":12328:12330   */\n      0x40\n        /* \"#utility.yul\":12316:12325   */\n      dup6\n        /* \"#utility.yul\":12307:12314   */\n      dup8\n        /* \"#utility.yul\":12303:12326   */\n      sub\n        /* \"#utility.yul\":12299:12331   */\n      slt\n        /* \"#utility.yul\":12296:12415   */\n      iszero\n      tag_368\n      jumpi\n        /* \"#utility.yul\":12334:12413   */\n      tag_369\n      tag_181\n      jump\t// in\n    tag_369:\n        /* \"#utility.yul\":12296:12415   */\n    tag_368:\n        /* \"#utility.yul\":12482:12483   */\n      0x00\n        /* \"#utility.yul\":12471:12480   */\n      dup6\n        /* \"#utility.yul\":12467:12484   */\n      add\n        /* \"#utility.yul\":12454:12485   */\n      calldataload\n        /* \"#utility.yul\":12512:12530   */\n      0xffffffffffffffff\n        /* \"#utility.yul\":12504:12510   */\n      dup2\n        /* \"#utility.yul\":12501:12531   */\n      gt\n        /* \"#utility.yul\":12498:12615   */\n      iszero\n      tag_370\n      jumpi\n        /* \"#utility.yul\":12534:12613   */\n      tag_371\n      tag_182\n      jump\t// in\n    tag_371:\n        /* \"#utility.yul\":12498:12615   */\n    tag_370:\n        /* \"#utility.yul\":12647:12712   */\n      tag_372\n        /* \"#utility.yul\":12704:12711   */\n      dup8\n        /* \"#utility.yul\":12695:12701   */\n      dup3\n        /* \"#utility.yul\":12684:12693   */\n      dup9\n        /* \"#utility.yul\":12680:12702   */\n      add\n        /* \"#utility.yul\":12647:12712   */\n      tag_208\n      jump\t// in\n    tag_372:\n        /* \"#utility.yul\":12629:12712   */\n      swap5\n      pop\n      swap5\n      pop\n        /* \"#utility.yul\":12425:12722   */\n      pop\n        /* \"#utility.yul\":12789:12791   */\n      0x20\n        /* \"#utility.yul\":12778:12787   */\n      dup6\n        /* \"#utility.yul\":12774:12792   */\n      add\n        /* \"#utility.yul\":12761:12793   */\n      calldataload\n        /* \"#utility.yul\":12820:12838   */\n      0xffffffffffffffff\n        /* \"#utility.yul\":12812:12818   */\n      dup2\n        /* \"#utility.yul\":12809:12839   */\n      gt\n        /* \"#utility.yul\":12806:12923   */\n      iszero\n      tag_373\n      jumpi\n        /* \"#utility.yul\":12842:12921   */\n      tag_374\n      tag_182\n      jump\t// in\n    tag_374:\n        /* \"#utility.yul\":12806:12923   */\n    tag_373:\n        /* \"#utility.yul\":12955:13020   */\n      tag_375\n        /* \"#utility.yul\":13012:13019   */\n      dup8\n        /* \"#utility.yul\":13003:13009   */\n      dup3\n        /* \"#utility.yul\":12992:13001   */\n      dup9\n        /* \"#utility.yul\":12988:13010   */\n      add\n        /* \"#utility.yul\":12955:13020   */\n      tag_208\n      jump\t// in\n    tag_375:\n        /* \"#utility.yul\":12937:13020   */\n      swap3\n      pop\n      swap3\n      pop\n        /* \"#utility.yul\":12732:13030   */\n      pop\n        /* \"#utility.yul\":12163:13037   */\n      swap3\n      swap6\n      swap2\n      swap5\n      pop\n      swap3\n      pop\n      jump\t// out\n        /* \"#utility.yul\":13043:13191   */\n    tag_216:\n        /* \"#utility.yul\":13145:13156   */\n      0x00\n        /* \"#utility.yul\":13182:13185   */\n      dup2\n        /* \"#utility.yul\":13167:13185   */\n      swap1\n      pop\n        /* \"#utility.yul\":13043:13191   */\n      swap3\n      swap2\n      pop\n      pop\n      jump\t// out\n        /* \"#utility.yul\":13197:13587   */\n    tag_217:\n        /* \"#utility.yul\":13303:13306   */\n      0x00\n        /* \"#utility.yul\":13331:13370   */\n      tag_378\n        /* \"#utility.yul\":13364:13369   */\n      dup3\n        /* \"#utility.yul\":13331:13370   */\n      tag_194\n      jump\t// in\n    tag_378:\n        /* \"#utility.yul\":13386:13475   */\n      tag_379\n        /* \"#utility.yul\":13468:13474   */\n      dup2\n        /* \"#utility.yul\":13463:13466   */\n      dup6\n        /* \"#utility.yul\":13386:13475   */\n      tag_216\n      jump\t// in\n    tag_379:\n        /* \"#utility.yul\":13379:13475   */\n      swap4\n      pop\n        /* \"#utility.yul\":13484:13549   */\n      tag_380\n        /* \"#utility.yul\":13542:13548   */\n      dup2\n        /* \"#utility.yul\":13537:13540   */\n      dup6\n        /* \"#utility.yul\":13530:13534   */\n      0x20\n        /* \"#utility.yul\":13523:13528   */\n      dup7\n        /* \"#utility.yul\":13519:13535   */\n      add\n        /* \"#utility.yul\":13484:13549   */\n      tag_196\n      jump\t// in\n    tag_380:\n        /* \"#utility.yul\":13574:13580   */\n      dup1\n        /* \"#utility.yul\":13569:13572   */\n      dup5\n        /* \"#utility.yul\":13565:13581   */\n      add\n        /* \"#utility.yul\":13558:13581   */\n      swap2\n      pop\n        /* \"#utility.yul\":13307:13587   */\n      pop\n        /* \"#utility.yul\":13197:13587   */\n      swap3\n      swap2\n      pop\n      pop\n      jump\t// out\n        /* \"#utility.yul\":13593:13868   */\n    tag_54:\n        /* \"#utility.yul\":13725:13728   */\n      0x00\n        /* \"#utility.yul\":13747:13842   */\n      tag_382\n        /* \"#utility.yul\":13838:13841   */\n      dup3\n        /* \"#utility.yul\":13829:13835   */\n      dup5\n        /* \"#utility.yul\":13747:13842   */\n      tag_217\n      jump\t// in\n    tag_382:\n        /* \"#utility.yul\":13740:13842   */\n      swap2\n      pop\n        /* \"#utility.yul\":13859:13862   */\n      dup2\n        /* \"#utility.yul\":13852:13862   */\n      swap1\n      pop\n        /* \"#utility.yul\":13593:13868   */\n      swap3\n      swap2\n      pop\n      pop\n      jump\t// out\n        /* \"#utility.yul\":13874:14054   */\n    tag_218:\n        /* \"#utility.yul\":13922:13999   */\n      0x4e487b7100000000000000000000000000000000000000000000000000000000\n        /* \"#utility.yul\":13919:13920   */\n      0x00\n        /* \"#utility.yul\":13912:14000   */\n      mstore\n        /* \"#utility.yul\":14019:14023   */\n      0x22\n        /* \"#utility.yul\":14016:14017   */\n      0x04\n        /* \"#utility.yul\":14009:14024   */\n      mstore\n        /* \"#utility.yul\":14043:14047   */\n      0x24\n        /* \"#utility.yul\":14040:14041   */\n      0x00\n        /* \"#utility.yul\":14033:14048   */\n      revert\n        /* \"#utility.yul\":14060:14380   */\n    tag_56:\n        /* \"#utility.yul\":14104:14110   */\n      0x00\n        /* \"#utility.yul\":14141:14142   */\n      0x02\n        /* \"#utility.yul\":14135:14139   */\n      dup3\n        /* \"#utility.yul\":14131:14143   */\n      div\n        /* \"#utility.yul\":14121:14143   */\n      swap1\n      pop\n        /* \"#utility.yul\":14188:14189   */\n      0x01\n        /* \"#utility.yul\":14182:14186   */\n      dup3\n        /* \"#utility.yul\":14178:14190   */\n      and\n        /* \"#utility.yul\":14209:14227   */\n      dup1\n        /* \"#utility.yul\":14199:14280   */\n      tag_385\n      jumpi\n        /* \"#utility.yul\":14265:14269   */\n      0x7f\n        /* \"#utility.yul\":14257:14263   */\n      dup3\n        /* \"#utility.yul\":14253:14270   */\n      and\n        /* \"#utility.yul\":14243:14270   */\n      swap2\n      pop\n        /* \"#utility.yul\":14199:14280   */\n    tag_385:\n        /* \"#utility.yul\":14327:14329   */\n      0x20\n        /* \"#utility.yul\":14319:14325   */\n      dup3\n        /* \"#utility.yul\":14316:14330   */\n      lt\n        /* \"#utility.yul\":14296:14314   */\n      dup2\n        /* \"#utility.yul\":14293:14331   */\n      sub\n        /* \"#utility.yul\":14290:14374   */\n      tag_386\n      jumpi\n        /* \"#utility.yul\":14346:14364   */\n      tag_387\n      tag_218\n      jump\t// in\n    tag_387:\n        /* \"#utility.yul\":14290:14374   */\n    tag_386:\n        /* \"#utility.yul\":14111:14380   */\n      pop\n        /* \"#utility.yul\":14060:14380   */\n      swap2\n      swap1\n      pop\n      jump\t// out\n        /* \"#utility.yul\":14410:14740   */\n    tag_219:\n        /* \"#utility.yul\":14526:14529   */\n      0x00\n        /* \"#utility.yul\":14547:14636   */\n      tag_389\n        /* \"#utility.yul\":14629:14635   */\n      dup4\n        /* \"#utility.yul\":14624:14627   */\n      dup6\n        /* \"#utility.yul\":14547:14636   */\n      tag_216\n      jump\t// in\n    tag_389:\n        /* \"#utility.yul\":14540:14636   */\n      swap4\n      pop\n        /* \"#utility.yul\":14646:14702   */\n      tag_390\n        /* \"#utility.yul\":14695:14701   */\n      dup4\n        /* \"#utility.yul\":14690:14693   */\n      dup6\n        /* \"#utility.yul\":14683:14688   */\n      dup5\n        /* \"#utility.yul\":14646:14702   */\n      tag_190\n      jump\t// in\n    tag_390:\n        /* \"#utility.yul\":14727:14733   */\n      dup3\n        /* \"#utility.yul\":14722:14725   */\n      dup5\n        /* \"#utility.yul\":14718:14734   */\n      add\n        /* \"#utility.yul\":14711:14734   */\n      swap1\n      pop\n        /* \"#utility.yul\":14410:14740   */\n      swap4\n      swap3\n      pop\n      pop\n      pop\n      jump\t// out\n        /* \"#utility.yul\":14746:15041   */\n    tag_77:\n        /* \"#utility.yul\":14888:14891   */\n      0x00\n        /* \"#utility.yul\":14910:15015   */\n      tag_392\n        /* \"#utility.yul\":15011:15014   */\n      dup3\n        /* \"#utility.yul\":15002:15008   */\n      dup5\n        /* \"#utility.yul\":14994:15000   */\n      dup7\n        /* \"#utility.yul\":14910:15015   */\n      tag_219\n      jump\t// in\n    tag_392:\n        /* \"#utility.yul\":14903:15015   */\n      swap2\n      pop\n        /* \"#utility.yul\":15032:15035   */\n      dup2\n        /* \"#utility.yul\":15025:15035   */\n      swap1\n      pop\n        /* \"#utility.yul\":14746:15041   */\n      swap4\n      swap3\n      pop\n      pop\n      pop\n      jump\t// out\n        /* \"#utility.yul\":15047:15227   */\n    tag_220:\n        /* \"#utility.yul\":15095:15172   */\n      0x4e487b7100000000000000000000000000000000000000000000000000000000\n        /* \"#utility.yul\":15092:15093   */\n      0x00\n        /* \"#utility.yul\":15085:15173   */\n      mstore\n        /* \"#utility.yul\":15192:15196   */\n      0x11\n        /* \"#utility.yul\":15189:15190   */\n      0x04\n        /* \"#utility.yul\":15182:15197   */\n      mstore\n        /* \"#utility.yul\":15216:15220   */\n      0x24\n        /* \"#utility.yul\":15213:15214   */\n      0x00\n        /* \"#utility.yul\":15206:15221   */\n      revert\n        /* \"#utility.yul\":15233:15466   */\n    tag_90:\n        /* \"#utility.yul\":15272:15275   */\n      0x00\n        /* \"#utility.yul\":15295:15319   */\n      tag_395\n        /* \"#utility.yul\":15313:15318   */\n      dup3\n        /* \"#utility.yul\":15295:15319   */\n      tag_178\n      jump\t// in\n    tag_395:\n        /* \"#utility.yul\":15286:15319   */\n      swap2\n      pop\n        /* \"#utility.yul\":15341:15407   */\n      0xffffffffffffffffffffffffffffffffffffffffffffffffffffffffffffffff\n        /* \"#utility.yul\":15334:15339   */\n      dup3\n        /* \"#utility.yul\":15331:15408   */\n      sub\n        /* \"#utility.yul\":15328:15431   */\n      tag_396\n      jumpi\n        /* \"#utility.yul\":15411:15429   */\n      tag_397\n      tag_220\n      jump\t// in\n    tag_397:\n        /* \"#utility.yul\":15328:15431   */\n    tag_396:\n        /* \"#utility.yul\":15458:15459   */\n      0x01\n        /* \"#utility.yul\":15451:15456   */\n      dup3\n        /* \"#utility.yul\":15447:15460   */\n      add\n        /* \"#utility.yul\":15440:15460   */\n      swap1\n      pop\n        /* \"#utility.yul\":15233:15466   */\n      swap2\n      swap1\n      pop\n      jump\t// out\n        /* \"#utility.yul\":15472:15569   */\n    tag_221:\n        /* \"#utility.yul\":15531:15537   */\n      0x00\n        /* \"#utility.yul\":15559:15562   */\n      dup3\n        /* \"#utility.yul\":15549:15562   */\n      swap1\n      pop\n        /* \"#utility.yul\":15472:15569   */\n      swap3\n      swap2\n      pop\n      pop\n      jump\t// out\n        /* \"#utility.yul\":15575:15716   */\n    tag_222:\n        /* \"#utility.yul\":15624:15628   */\n      0x00\n        /* \"#utility.yul\":15647:15650   */\n      dup2\n        /* \"#utility.yul\":15639:15650   */\n      swap1\n      pop\n        /* \"#utility.yul\":15670:15673   */\n      dup2\n        /* \"#utility.yul\":15667:15668   */\n      0x00\n        /* \"#utility.yul\":15660:15674   */\n      mstore\n        /* \"#utility.yul\":15704:15708   */\n      0x20\n        /* \"#utility.yul\":15701:15702   */\n      0x00\n        /* \"#utility.yul\":15691:15709   */\n      keccak256\n        /* \"#utility.yul\":15683:15709   */\n      swap1\n      pop\n        /* \"#utility.yul\":15575:15716   */\n      swap2\n      swap1\n      pop\n      jump\t// out\n        /* \"#utility.yul\":15722:15815   */\n    tag_223:\n        /* \"#utility.yul\":15759:15765   */\n      0x00\n        /* \"#utility.yul\":15806:15808   */\n      0x20\n        /* \"#utility.yul\":15801:15803   */\n      0x1f\n        /* \"#utility.yul\":15794:15799   */\n      dup4\n        /* \"#utility.yul\":15790:15804   */\n      add\n        /* \"#utility.yul\":15786:15809   */\n      div\n        /* \"#utility.yul\":15776:15809   */\n      swap1\n      pop\n        /* \"#utility.yul\":15722:15815   */\n      swap2\n      swap1\n      pop\n      jump\t// out\n        /* \"#utility.yul\":15821:15928   */\n    tag_224:\n        /* \"#utility.yul\":15865:15873   */\n      0x00\n        /* \"#utility.yul\":15915:15920   */\n      dup3\n        /* \"#utility.yul\":15909:15913   */\n      dup3\n        /* \"#utility.yul\":15905:15921   */\n      shl\n        /* \"#utility.yul\":15884:15921   */\n      swap1\n      pop\n        /* \"#utility.yul\":15821:15928   */\n      swap3\n      swap2\n      pop\n      pop\n      jump\t// out\n        /* \"#utility.yul\":15934:16327   */\n    tag_225:\n        /* \"#utility.yul\":16003:16009   */\n      0x00\n        /* \"#utility.yul\":16053:16054   */\n      0x08\n        /* \"#utility.yul\":16041:16051   */\n      dup4\n        /* \"#utility.yul\":16037:16055   */\n      mul\n        /* \"#utility.yul\":16076:16173   */\n      tag_403\n        /* \"#utility.yul\":16106:16172   */\n      0xffffffffffffffffffffffffffffffffffffffffffffffffffffffffffffffff\n        /* \"#utility.yul\":16095:16104   */\n      dup3\n        /* \"#utility.yul\":16076:16173   */\n      tag_224\n      jump\t// in\n    tag_403:\n        /* \"#utility.yul\":16194:16233   */\n      tag_404\n        /* \"#utility.yul\":16224:16232   */\n      dup7\n        /* \"#utility.yul\":16213:16222   */\n      dup4\n        /* \"#utility.yul\":16194:16233   */\n      tag_224\n      jump\t// in\n    tag_404:\n        /* \"#utility.yul\":16182:16233   */\n      swap6\n      pop\n        /* \"#utility.yul\":16266:16270   */\n      dup1\n        /* \"#utility.yul\":16262:16271   */\n      not\n        /* \"#utility.yul\":16255:16260   */\n      dup5\n        /* \"#utility.yul\":16251:16272   */\n      and\n        /* \"#utility.yul\":16242:16272   */\n      swap4\n      pop\n        /* \"#utility.yul\":16315:16319   */\n      dup1\n        /* \"#utility.yul\":16305:16313   */\n      dup7\n        /* \"#utility.yul\":16301:16320   */\n      and\n        /* \"#utility.yul\":16294:16299   */\n      dup5\n        /* \"#utility.yul\":16291:16321   */\n      or\n        /* \"#utility.yul\":16281:16321   */\n      swap3\n      pop\n        /* \"#utility.yul\":16010:16327   */\n      pop\n      pop\n        /* \"#utility.yul\":15934:16327   */\n      swap4\n      swap3\n      pop\n      pop\n      pop\n      jump\t// out\n        /* \"#utility.yul\":16333:16393   */\n    tag_226:\n        /* \"#utility.yul\":16361:16364   */\n      0x00\n        /* \"#utility.yul\":16382:16387   */\n      dup2\n        /* \"#utility.yul\":16375:16387   */\n      swap1\n      pop\n        /* \"#utility.yul\":16333:16393   */\n      swap2\n      swap1\n      pop\n      jump\t// out\n        /* \"#utility.yul\":16399:16541   */\n    tag_227:\n        /* \"#utility.yul\":16449:16458   */\n      0x00\n        /* \"#utility.yul\":16482:16535   */\n      tag_407\n        /* \"#utility.yul\":16500:16534   */\n      tag_408\n        /* \"#utility.yul\":16509:16533   */\n      tag_409\n        /* \"#utility.yul\":16527:16532   */\n      dup5\n        /* \"#utility.yul\":16509:16533   */\n      tag_178\n      jump\t// in\n    tag_409:\n        /* \"#utility.yul\":16500:16534   */\n      tag_226\n      jump\t// in\n    tag_408:\n        /* \"#utility.yul\":16482:16535   */\n      tag_178\n      jump\t// in\n    tag_407:\n        /* \"#utility.yul\":16469:16535   */\n      swap1\n      pop\n        /* \"#utility.yul\":16399:16541   */\n      swap2\n      swap1\n      pop\n      jump\t// out\n        /* \"#utility.yul\":16547:16622   */\n    tag_228:\n        /* \"#utility.yul\":16590:16593   */\n      0x00\n        /* \"#utility.yul\":16611:16616   */\n      dup2\n        /* \"#utility.yul\":16604:16616   */\n      swap1\n      pop\n        /* \"#utility.yul\":16547:16622   */\n      swap2\n      swap1\n      pop\n      jump\t// out\n        /* \"#utility.yul\":16628:16897   */\n    tag_229:\n        /* \"#utility.yul\":16738:16777   */\n      tag_412\n        /* \"#utility.yul\":16769:16776   */\n      dup4\n        /* \"#utility.yul\":16738:16777   */\n      tag_227\n      jump\t// in\n    tag_412:\n        /* \"#utility.yul\":16799:16890   */\n      tag_413\n        /* \"#utility.yul\":16848:16889   */\n      tag_414\n        /* \"#utility.yul\":16872:16888   */\n      dup3\n        /* \"#utility.yul\":16848:16889   */\n      tag_228\n      jump\t// in\n    tag_414:\n        /* \"#utility.yul\":16840:16846   */\n      dup5\n        /* \"#utility.yul\":16833:16837   */\n      dup5\n        /* \"#utility.yul\":16827:16838   */\n      sload\n        /* \"#utility.yul\":16799:16890   */\n      tag_225\n      jump\t// in\n    tag_413:\n        /* \"#utility.yul\":16793:16797   */\n      dup3\n        /* \"#utility.yul\":16786:16891   */\n      sstore\n        /* \"#utility.yul\":16704:16897   */\n      pop\n        /* \"#utility.yul\":16628:16897   */\n      pop\n      pop\n      pop\n      jump\t// out\n        /* \"#utility.yul\":16903:16976   */\n    tag_230:\n        /* \"#utility.yul\":16948:16951   */\n      0x00\n        /* \"#utility.yul\":16903:16976   */\n      swap1\n      jump\t// out\n        /* \"#utility.yul\":16982:17171   */\n    tag_231:\n        /* \"#utility.yul\":17059:17091   */\n      tag_417\n      tag_230\n      jump\t// in\n    tag_417:\n        /* \"#utility.yul\":17100:17165   */\n      tag_418\n        /* \"#utility.yul\":17158:17164   */\n      dup2\n        /* \"#utility.yul\":17150:17156   */\n      dup5\n        /* \"#utility.yul\":17144:17148   */\n      dup5\n        /* \"#utility.yul\":17100:17165   */\n      tag_229\n      jump\t// in\n    tag_418:\n        /* \"#utility.yul\":17035:17171   */\n      pop\n        /* \"#utility.yul\":16982:17171   */\n      pop\n      pop\n      jump\t// out\n        /* \"#utility.yul\":17177:17363   */\n    tag_232:\n        /* \"#utility.yul\":17237:17357   */\n    tag_420:\n        /* \"#utility.yul\":17254:17257   */\n      dup2\n        /* \"#utility.yul\":17247:17252   */\n      dup2\n        /* \"#utility.yul\":17244:17258   */\n      lt\n        /* \"#utility.yul\":17237:17357   */\n      iszero\n      tag_422\n      jumpi\n        /* \"#utility.yul\":17308:17347   */\n      tag_423\n        /* \"#utility.yul\":17345:17346   */\n      0x00\n        /* \"#utility.yul\":17338:17343   */\n      dup3\n        /* \"#utility.yul\":17308:17347   */\n      tag_231\n      jump\t// in\n    tag_423:\n        /* \"#utility.yul\":17281:17282   */\n      0x01\n        /* \"#utility.yul\":17274:17279   */\n      dup2\n        /* \"#utility.yul\":17270:17283   */\n      add\n        /* \"#utility.yul\":17261:17283   */\n      swap1\n      pop\n        /* \"#utility.yul\":17237:17357   */\n      jump(tag_420)\n    tag_422:\n        /* \"#utility.yul\":17177:17363   */\n      pop\n      pop\n      jump\t// out\n        /* \"#utility.yul\":17369:17912   */\n    tag_233:\n        /* \"#utility.yul\":17470:17472   */\n      0x1f\n        /* \"#utility.yul\":17465:17468   */\n      dup3\n        /* \"#utility.yul\":17462:17473   */\n      gt\n        /* \"#utility.yul\":17459:17905   */\n      iszero\n      tag_425\n      jumpi\n        /* \"#utility.yul\":17504:17542   */\n      tag_426\n        /* \"#utility.yul\":17536:17541   */\n      dup2\n        /* \"#utility.yul\":17504:17542   */\n      tag_222\n      jump\t// in\n    tag_426:\n        /* \"#utility.yul\":17588:17617   */\n      tag_427\n        /* \"#utility.yul\":17606:17616   */\n      dup5\n        /* \"#utility.yul\":17588:17617   */\n      tag_223\n      jump\t// in\n    tag_427:\n        /* \"#utility.yul\":17578:17586   */\n      dup2\n        /* \"#utility.yul\":17574:17618   */\n      add\n        /* \"#utility.yul\":17771:17773   */\n      0x20\n        /* \"#utility.yul\":17759:17769   */\n      dup6\n        /* \"#utility.yul\":17756:17774   */\n      lt\n        /* \"#utility.yul\":17753:17802   */\n      iszero\n      tag_428\n      jumpi\n        /* \"#utility.yul\":17792:17800   */\n      dup2\n        /* \"#utility.yul\":17777:17800   */\n      swap1\n      pop\n        /* \"#utility.yul\":17753:17802   */\n    tag_428:\n        /* \"#utility.yul\":17815:17895   */\n      tag_429\n        /* \"#utility.yul\":17871:17893   */\n      tag_430\n        /* \"#utility.yul\":17889:17892   */\n      dup6\n        /* \"#utility.yul\":17871:17893   */\n      tag_223\n      jump\t// in\n    tag_430:\n        /* \"#utility.yul\":17861:17869   */\n      dup4\n        /* \"#utility.yul\":17857:17894   */\n      add\n        /* \"#utility.yul\":17844:17855   */\n      dup3\n        /* \"#utility.yul\":17815:17895   */\n      tag_232\n      jump\t// in\n    tag_429:\n        /* \"#utility.yul\":17474:17905   */\n      pop\n      pop\n        /* \"#utility.yul\":17459:17905   */\n    tag_425:\n        /* \"#utility.yul\":17369:17912   */\n      pop\n      pop\n      pop\n      jump\t// out\n        /* \"#utility.yul\":17918:18035   */\n    tag_234:\n        /* \"#utility.yul\":17972:17980   */\n      0x00\n        /* \"#utility.yul\":18022:18027   */\n      dup3\n        /* \"#utility.yul\":18016:18020   */\n      dup3\n        /* \"#utility.yul\":18012:18028   */\n      shr\n        /* \"#utility.yul\":17991:18028   */\n      swap1\n      pop\n        /* \"#utility.yul\":17918:18035   */\n      swap3\n      swap2\n      pop\n      pop\n      jump\t// out\n        /* \"#utility.yul\":18041:18210   */\n    tag_235:\n        /* \"#utility.yul\":18085:18091   */\n      0x00\n        /* \"#utility.yul\":18118:18169   */\n      tag_433\n        /* \"#utility.yul\":18166:18167   */\n      0x00\n        /* \"#utility.yul\":18162:18168   */\n      not\n        /* \"#utility.yul\":18154:18159   */\n      dup5\n        /* \"#utility.yul\":18151:18152   */\n      0x08\n        /* \"#utility.yul\":18147:18160   */\n      mul\n        /* \"#utility.yul\":18118:18169   */\n      tag_234\n      jump\t// in\n    tag_433:\n        /* \"#utility.yul\":18114:18170   */\n      not\n        /* \"#utility.yul\":18199:18203   */\n      dup1\n        /* \"#utility.yul\":18193:18197   */\n      dup4\n        /* \"#utility.yul\":18189:18204   */\n      and\n        /* \"#utility.yul\":18179:18204   */\n      swap2\n      pop\n        /* \"#utility.yul\":18092:18210   */\n      pop\n        /* \"#utility.yul\":18041:18210   */\n      swap3\n      swap2\n      pop\n      pop\n      jump\t// out\n        /* \"#utility.yul\":18215:18510   */\n    tag_236:\n        /* \"#utility.yul\":18291:18295   */\n      0x00\n        /* \"#utility.yul\":18437:18466   */\n      tag_435\n        /* \"#utility.yul\":18462:18465   */\n      dup4\n        /* \"#utility.yul\":18456:18460   */\n      dup4\n        /* \"#utility.yul\":18437:18466   */\n      tag_235\n      jump\t// in\n    tag_435:\n        /* \"#utility.yul\":18429:18466   */\n      swap2\n      pop\n        /* \"#utility.yul\":18499:18502   */\n      dup3\n        /* \"#utility.yul\":18496:18497   */\n      0x02\n        /* \"#utility.yul\":18492:18503   */\n      mul\n        /* \"#utility.yul\":18486:18490   */\n      dup3\n        /* \"#utility.yul\":18483:18504   */\n      or\n        /* \"#utility.yul\":18475:18504   */\n      swap1\n      pop\n        /* \"#utility.yul\":18215:18510   */\n      swap3\n      swap2\n      pop\n      pop\n      jump\t// out\n        /* \"#utility.yul\":18515:19918   */\n    tag_102:\n        /* \"#utility.yul\":18639:18683   */\n      tag_437\n        /* \"#utility.yul\":18679:18682   */\n      dup4\n        /* \"#utility.yul\":18674:18677   */\n      dup4\n        /* \"#utility.yul\":18639:18683   */\n      tag_221\n      jump\t// in\n    tag_437:\n        /* \"#utility.yul\":18748:18766   */\n      0xffffffffffffffff\n        /* \"#utility.yul\":18740:18746   */\n      dup2\n        /* \"#utility.yul\":18737:18767   */\n      gt\n        /* \"#utility.yul\":18734:18790   */\n      iszero\n      tag_438\n      jumpi\n        /* \"#utility.yul\":18770:18788   */\n      tag_439\n      tag_186\n      jump\t// in\n    tag_439:\n        /* \"#utility.yul\":18734:18790   */\n    tag_438:\n        /* \"#utility.yul\":18814:18852   */\n      tag_440\n        /* \"#utility.yul\":18846:18850   */\n      dup3\n        /* \"#utility.yul\":18840:18851   */\n      sload\n        /* \"#utility.yul\":18814:18852   */\n      tag_56\n      jump\t// in\n    tag_440:\n        /* \"#utility.yul\":18899:18966   */\n      tag_441\n        /* \"#utility.yul\":18959:18965   */\n      dup3\n        /* \"#utility.yul\":18951:18957   */\n      dup3\n        /* \"#utility.yul\":18945:18949   */\n      dup6\n        /* \"#utility.yul\":18899:18966   */\n      tag_233\n      jump\t// in\n    tag_441:\n        /* \"#utility.yul\":18993:18994   */\n      0x00\n        /* \"#utility.yul\":19022:19024   */\n      0x1f\n        /* \"#utility.yul\":19014:19020   */\n      dup4\n        /* \"#utility.yul\":19011:19025   */\n      gt\n        /* \"#utility.yul\":19039:19040   */\n      0x01\n        /* \"#utility.yul\":19034:19666   */\n      dup2\n      eq\n      tag_443\n      jumpi\n        /* \"#utility.yul\":19710:19711   */\n      0x00\n        /* \"#utility.yul\":19727:19733   */\n      dup5\n        /* \"#utility.yul\":19724:19808   */\n      iszero\n      tag_444\n      jumpi\n        /* \"#utility.yul\":19783:19792   */\n      dup3\n        /* \"#utility.yul\":19778:19781   */\n      dup8\n        /* \"#utility.yul\":19774:19793   */\n      add\n        /* \"#utility.yul\":19761:19794   */\n      calldataload\n        /* \"#utility.yul\":19752:19794   */\n      swap1\n      pop\n        /* \"#utility.yul\":19724:19808   */\n    tag_444:\n        /* \"#utility.yul\":19834:19901   */\n      tag_445\n        /* \"#utility.yul\":19894:19900   */\n      dup6\n        /* \"#utility.yul\":19887:19892   */\n      dup3\n        /* \"#utility.yul\":19834:19901   */\n      tag_236\n      jump\t// in\n    tag_445:\n        /* \"#utility.yul\":19828:19832   */\n      dup7\n        /* \"#utility.yul\":19821:19902   */\n      sstore\n        /* \"#utility.yul\":19683:19912   */\n      pop\n        /* \"#utility.yul\":19004:19912   */\n      jump(tag_442)\n        /* \"#utility.yul\":19034:19666   */\n    tag_443:\n        /* \"#utility.yul\":19086:19090   */\n      0x1f\n        /* \"#utility.yul\":19082:19091   */\n      not\n        /* \"#utility.yul\":19074:19080   */\n      dup5\n        /* \"#utility.yul\":19070:19092   */\n      and\n        /* \"#utility.yul\":19120:19157   */\n      tag_446\n        /* \"#utility.yul\":19152:19156   */\n      dup7\n        /* \"#utility.yul\":19120:19157   */\n      tag_222\n      jump\t// in\n    tag_446:\n        /* \"#utility.yul\":19179:19180   */\n      0x00\n        /* \"#utility.yul\":19193:19408   */\n    tag_447:\n        /* \"#utility.yul\":19207:19214   */\n      dup3\n        /* \"#utility.yul\":19204:19205   */\n      dup2\n        /* \"#utility.yul\":19201:19215   */\n      lt\n        /* \"#utility.yul\":19193:19408   */\n      iszero\n      tag_449\n      jumpi\n        /* \"#utility.yul\":19293:19302   */\n      dup5\n        /* \"#utility.yul\":19288:19291   */\n      dup10\n        /* \"#utility.yul\":19284:19303   */\n      add\n        /* \"#utility.yul\":19271:19304   */\n      calldataload\n        /* \"#utility.yul\":19263:19269   */\n      dup3\n        /* \"#utility.yul\":19256:19305   */\n      sstore\n        /* \"#utility.yul\":19344:19345   */\n      0x01\n        /* \"#utility.yul\":19336:19342   */\n      dup3\n        /* \"#utility.yul\":19332:19346   */\n      add\n        /* \"#utility.yul\":19322:19346   */\n      swap2\n      pop\n        /* \"#utility.yul\":19391:19393   */\n      0x20\n        /* \"#utility.yul\":19380:19389   */\n      dup6\n        /* \"#utility.yul\":19376:19394   */\n      add\n        /* \"#utility.yul\":19363:19394   */\n      swap5\n      pop\n        /* \"#utility.yul\":19230:19234   */\n      0x20\n        /* \"#utility.yul\":19227:19228   */\n      dup2\n        /* \"#utility.yul\":19223:19235   */\n      add\n        /* \"#utility.yul\":19218:19235   */\n      swap1\n      pop\n        /* \"#utility.yul\":19193:19408   */\n      jump(tag_447)\n    tag_449:\n        /* \"#utility.yul\":19436:19442   */\n      dup7\n        /* \"#utility.yul\":19427:19434   */\n      dup4\n        /* \"#utility.yul\":19424:19443   */\n      lt\n        /* \"#utility.yul\":19421:19607   */\n      iszero\n      tag_450\n      jumpi\n        /* \"#utility.yul\":19501:19510   */\n      dup5\n        /* \"#utility.yul\":19496:19499   */\n      dup10\n        /* \"#utility.yul\":19492:19511   */\n      add\n        /* \"#utility.yul\":19479:19512   */\n      calldataload\n        /* \"#utility.yul\":19544:19592   */\n      tag_451\n        /* \"#utility.yul\":19586:19590   */\n      0x1f\n        /* \"#utility.yul\":19578:19584   */\n      dup10\n        /* \"#utility.yul\":19574:19591   */\n      and\n        /* \"#utility.yul\":19563:19572   */\n      dup3\n        /* \"#utility.yul\":19544:19592   */\n      tag_235\n      jump\t// in\n    tag_451:\n        /* \"#utility.yul\":19536:19542   */\n      dup4\n        /* \"#utility.yul\":19529:19593   */\n      sstore\n        /* \"#utility.yul\":19444:19607   */\n      pop\n        /* \"#utility.yul\":19421:19607   */\n    tag_450:\n        /* \"#utility.yul\":19653:19654   */\n      0x01\n        /* \"#utility.yul\":19649:19650   */\n      0x02\n        /* \"#utility.yul\":19641:19647   */\n      dup9\n        /* \"#utility.yul\":19637:19651   */\n      mul\n        /* \"#utility.yul\":19633:19655   */\n      add\n        /* \"#utility.yul\":19627:19631   */\n      dup9\n        /* \"#utility.yul\":19620:19656   */\n      sstore\n        /* \"#utility.yul\":19041:19666   */\n      pop\n      pop\n      pop\n        /* \"#utility.yul\":19004:19912   */\n    tag_442:\n      pop\n        /* \"#utility.yul\":18614:19918   */\n      pop\n      pop\n      pop\n        /* \"#utility.yul\":18515:19918   */\n      pop\n      pop\n      pop\n      jump\t// out\n        /* \"#utility.yul\":19924:20115   */\n    tag_119:\n        /* \"#utility.yul\":19964:19967   */\n      0x00\n        /* \"#utility.yul\":19983:20003   */\n      tag_453\n        /* \"#utility.yul\":20001:20002   */\n      dup3\n        /* \"#utility.yul\":19983:20003   */\n      tag_178\n      jump\t// in\n    tag_453:\n        /* \"#utility.yul\":19978:20003   */\n      swap2\n      pop\n        /* \"#utility.yul\":20017:20037   */\n      tag_454\n        /* \"#utility.yul\":20035:20036   */\n      dup4\n        /* \"#utility.yul\":20017:20037   */\n      tag_178\n      jump\t// in\n    tag_454:\n        /* \"#utility.yul\":20012:20037   */\n      swap3\n      pop\n        /* \"#utility.yul\":20060:20061   */\n      dup3\n        /* \"#utility.yul\":20057:20058   */\n      dup3\n        /* \"#utility.yul\":20053:20062   */\n      add\n        /* \"#utility.yul\":20046:20062   */\n      swap1\n      pop\n        /* \"#utility.yul\":20081:20084   */\n      dup1\n        /* \"#utility.yul\":20078:20079   */\n      dup3\n        /* \"#utility.yul\":20075:20085   */\n      gt\n        /* \"#utility.yul\":20072:20108   */\n      iszero\n      tag_455\n      jumpi\n        /* \"#utility.yul\":20088:20106   */\n      tag_456\n      tag_220\n      jump\t// in\n    tag_456:\n        /* \"#utility.yul\":20072:20108   */\n    tag_455:\n        /* \"#utility.yul\":19924:20115   */\n      swap3\n      swap2\n      pop\n      pop\n      jump\t// out\n        /* \"#utility.yul\":20121:20531   */\n    tag_122:\n        /* \"#utility.yul\":20161:20168   */\n      0x00\n        /* \"#utility.yul\":20184:20204   */\n      tag_458\n        /* \"#utility.yul\":20202:20203   */\n      dup3\n        /* \"#utility.yul\":20184:20204   */\n      tag_178\n      jump\t// in\n    tag_458:\n        /* \"#utility.yul\":20179:20204   */\n      swap2\n      pop\n        /* \"#utility.yul\":20218:20238   */\n      tag_459\n        /* \"#utility.yul\":20236:20237   */\n      dup4\n        /* \"#utility.yul\":20218:20238   */\n      tag_178\n      jump\t// in\n    tag_459:\n        /* \"#utility.yul\":20213:20238   */\n      swap3\n      pop\n        /* \"#utility.yul\":20273:20274   */\n      dup3\n        /* \"#utility.yul\":20270:20271   */\n      dup3\n        /* \"#utility.yul\":20266:20275   */\n      mul\n        /* \"#utility.yul\":20295:20325   */\n      tag_460\n        /* \"#utility.yul\":20313:20324   */\n      dup2\n        /* \"#utility.yul\":20295:20325   */\n      tag_178\n      jump\t// in\n    tag_460:\n        /* \"#utility.yul\":20284:20325   */\n      swap2\n      pop\n        /* \"#utility.yul\":20474:20475   */\n      dup3\n        /* \"#utility.yul\":20465:20472   */\n      dup3\n        /* \"#utility.yul\":20461:20476   */\n      div\n        /* \"#utility.yul\":20458:20459   */\n      dup5\n        /* \"#utility.yul\":20455:20477   */\n      eq\n        /* \"#utility.yul\":20435:20436   */\n      dup4\n        /* \"#utility.yul\":20428:20437   */\n      iszero\n        /* \"#utility.yul\":20408:20491   */\n      or\n        /* \"#utility.yul\":20385:20524   */\n      tag_461\n      jumpi\n        /* \"#utility.yul\":20504:20522   */\n      tag_462\n      tag_220\n      jump\t// in\n    tag_462:\n        /* \"#utility.yul\":20385:20524   */\n    tag_461:\n        /* \"#utility.yul\":20169:20531   */\n      pop\n        /* \"#utility.yul\":20121:20531   */\n      swap3\n      swap2\n      pop\n      pop\n      jump\t// out\n        /* \"#utility.yul\":20537:20717   */\n    tag_237:\n        /* \"#utility.yul\":20585:20662   */\n      0x4e487b7100000000000000000000000000000000000000000000000000000000\n        /* \"#utility.yul\":20582:20583   */\n      0x00\n        /* \"#utility.yul\":20575:20663   */\n      mstore\n        /* \"#utility.yul\":20682:20686   */\n      0x12\n        /* \"#utility.yul\":20679:20680   */\n      0x04\n        /* \"#utility.yul\":20672:20687   */\n      mstore\n        /* \"#utility.yul\":20706:20710   */\n      0x24\n        /* \"#utility.yul\":20703:20704   */\n      0x00\n        /* \"#utility.yul\":20696:20711   */\n      revert\n        /* \"#utility.yul\":20723:20908   */\n    tag_124:\n        /* \"#utility.yul\":20763:20764   */\n      0x00\n        /* \"#utility.yul\":20780:20800   */\n      tag_465\n        /* \"#utility.yul\":20798:20799   */\n      dup3\n        /* \"#utility.yul\":20780:20800   */\n      tag_178\n      jump\t// in\n    tag_465:\n        /* \"#utility.yul\":20775:20800   */\n      swap2\n      pop\n        /* \"#utility.yul\":20814:20834   */\n      tag_466\n        /* \"#utility.yul\":20832:20833   */\n      dup4\n        /* \"#utility.yul\":20814:20834   */\n      tag_178\n      jump\t// in\n    tag_466:\n        /* \"#utility.yul\":20809:20834   */\n      swap3\n      pop\n        /* \"#utility.yul\":20853:20854   */\n      dup3\n        /* \"#utility.yul\":20843:20878   */\n      tag_467\n      jumpi\n        /* \"#utility.yul\":20858:20876   */\n      tag_468\n      tag_237\n      jump\t// in\n    tag_468:\n        /* \"#utility.yul\":20843:20878   */\n    tag_467:\n        /* \"#utility.yul\":20900:20901   */\n      dup3\n        /* \"#utility.yul\":20897:20898   */\n      dup3\n        /* \"#utility.yul\":20893:20902   */\n      div\n        /* \"#utility.yul\":20888:20902   */\n      swap1\n      pop\n        /* \"#utility.yul\":20723:20908   */\n      swap3\n      swap2\n      pop\n      pop\n      jump\t// out\n        /* \"#utility.yul\":20914:21089   */\n    tag_238:\n        /* \"#utility.yul\":21054:21081   */\n      0x596f7520646964206e6f74207375676765737465642069742e00000000000000\n        /* \"#utility.yul\":21050:21051   */\n      0x00\n        /* \"#utility.yul\":21042:21048   */\n      dup3\n        /* \"#utility.yul\":21038:21052   */\n      add\n        /* \"#utility.yul\":21031:21082   */\n      mstore\n        /* \"#utility.yul\":20914:21089   */\n      pop\n      jump\t// out\n        /* \"#utility.yul\":21095:21461   */\n    tag_239:\n        /* \"#utility.yul\":21237:21240   */\n      0x00\n        /* \"#utility.yul\":21258:21325   */\n      tag_471\n        /* \"#utility.yul\":21322:21324   */\n      0x19\n        /* \"#utility.yul\":21317:21320   */\n      dup4\n        /* \"#utility.yul\":21258:21325   */\n      tag_212\n      jump\t// in\n    tag_471:\n        /* \"#utility.yul\":21251:21325   */\n      swap2\n      pop\n        /* \"#utility.yul\":21334:21427   */\n      tag_472\n        /* \"#utility.yul\":21423:21426   */\n      dup3\n        /* \"#utility.yul\":21334:21427   */\n      tag_238\n      jump\t// in\n    tag_472:\n        /* \"#utility.yul\":21452:21454   */\n      0x20\n        /* \"#utility.yul\":21447:21450   */\n      dup3\n        /* \"#utility.yul\":21443:21455   */\n      add\n        /* \"#utility.yul\":21436:21455   */\n      swap1\n      pop\n        /* \"#utility.yul\":21095:21461   */\n      swap2\n      swap1\n      pop\n      jump\t// out\n        /* \"#utility.yul\":21467:21886   */\n    tag_148:\n        /* \"#utility.yul\":21633:21637   */\n      0x00\n        /* \"#utility.yul\":21671:21673   */\n      0x20\n        /* \"#utility.yul\":21660:21669   */\n      dup3\n        /* \"#utility.yul\":21656:21674   */\n      add\n        /* \"#utility.yul\":21648:21674   */\n      swap1\n      pop\n        /* \"#utility.yul\":21720:21729   */\n      dup2\n        /* \"#utility.yul\":21714:21718   */\n      dup2\n        /* \"#utility.yul\":21710:21730   */\n      sub\n        /* \"#utility.yul\":21706:21707   */\n      0x00\n        /* \"#utility.yul\":21695:21704   */\n      dup4\n        /* \"#utility.yul\":21691:21708   */\n      add\n        /* \"#utility.yul\":21684:21731   */\n      mstore\n        /* \"#utility.yul\":21748:21879   */\n      tag_474\n        /* \"#utility.yul\":21874:21878   */\n      dup2\n        /* \"#utility.yul\":21748:21879   */\n      tag_239\n      jump\t// in\n    tag_474:\n        /* \"#utility.yul\":21740:21879   */\n      swap1\n      pop\n        /* \"#utility.yul\":21467:21886   */\n      swap2\n      swap1\n      pop\n      jump\t// out\n        /* \"#utility.yul\":21892:23287   */\n    tag_172:\n        /* \"#utility.yul\":22009:22046   */\n      tag_476\n        /* \"#utility.yul\":22042:22045   */\n      dup3\n        /* \"#utility.yul\":22009:22046   */\n      tag_194\n      jump\t// in\n    tag_476:\n        /* \"#utility.yul\":22111:22129   */\n      0xffffffffffffffff\n        /* \"#utility.yul\":22103:22109   */\n      dup2\n        /* \"#utility.yul\":22100:22130   */\n      gt\n        /* \"#utility.yul\":22097:22153   */\n      iszero\n      tag_477\n      jumpi\n        /* \"#utility.yul\":22133:22151   */\n      tag_478\n      tag_186\n      jump\t// in\n    tag_478:\n        /* \"#utility.yul\":22097:22153   */\n    tag_477:\n        /* \"#utility.yul\":22177:22215   */\n      tag_479\n        /* \"#utility.yul\":22209:22213   */\n      dup3\n        /* \"#utility.yul\":22203:22214   */\n      sload\n        /* \"#utility.yul\":22177:22215   */\n      tag_56\n      jump\t// in\n    tag_479:\n        /* \"#utility.yul\":22262:22329   */\n      tag_480\n        /* \"#utility.yul\":22322:22328   */\n      dup3\n        /* \"#utility.yul\":22314:22320   */\n      dup3\n        /* \"#utility.yul\":22308:22312   */\n      dup6\n        /* \"#utility.yul\":22262:22329   */\n      tag_233\n      jump\t// in\n    tag_480:\n        /* \"#utility.yul\":22356:22357   */\n      0x00\n        /* \"#utility.yul\":22380:22384   */\n      0x20\n        /* \"#utility.yul\":22367:22384   */\n      swap1\n      pop\n        /* \"#utility.yul\":22412:22414   */\n      0x1f\n        /* \"#utility.yul\":22404:22410   */\n      dup4\n        /* \"#utility.yul\":22401:22415   */\n      gt\n        /* \"#utility.yul\":22429:22430   */\n      0x01\n        /* \"#utility.yul\":22424:23042   */\n      dup2\n      eq\n      tag_482\n      jumpi\n        /* \"#utility.yul\":23086:23087   */\n      0x00\n        /* \"#utility.yul\":23103:23109   */\n      dup5\n        /* \"#utility.yul\":23100:23177   */\n      iszero\n      tag_483\n      jumpi\n        /* \"#utility.yul\":23152:23161   */\n      dup3\n        /* \"#utility.yul\":23147:23150   */\n      dup8\n        /* \"#utility.yul\":23143:23162   */\n      add\n        /* \"#utility.yul\":23137:23163   */\n      mload\n        /* \"#utility.yul\":23128:23163   */\n      swap1\n      pop\n        /* \"#utility.yul\":23100:23177   */\n    tag_483:\n        /* \"#utility.yul\":23203:23270   */\n      tag_484\n        /* \"#utility.yul\":23263:23269   */\n      dup6\n        /* \"#utility.yul\":23256:23261   */\n      dup3\n        /* \"#utility.yul\":23203:23270   */\n      tag_236\n      jump\t// in\n    tag_484:\n        /* \"#utility.yul\":23197:23201   */\n      dup7\n        /* \"#utility.yul\":23190:23271   */\n      sstore\n        /* \"#utility.yul\":23059:23281   */\n      pop\n        /* \"#utility.yul\":22394:23281   */\n      jump(tag_481)\n        /* \"#utility.yul\":22424:23042   */\n    tag_482:\n        /* \"#utility.yul\":22476:22480   */\n      0x1f\n        /* \"#utility.yul\":22472:22481   */\n      not\n        /* \"#utility.yul\":22464:22470   */\n      dup5\n        /* \"#utility.yul\":22460:22482   */\n      and\n        /* \"#utility.yul\":22510:22547   */\n      tag_485\n        /* \"#utility.yul\":22542:22546   */\n      dup7\n        /* \"#utility.yul\":22510:22547   */\n      tag_222\n      jump\t// in\n    tag_485:\n        /* \"#utility.yul\":22569:22570   */\n      0x00\n        /* \"#utility.yul\":22583:22791   */\n    tag_486:\n        /* \"#utility.yul\":22597:22604   */\n      dup3\n        /* \"#utility.yul\":22594:22595   */\n      dup2\n        /* \"#utility.yul\":22591:22605   */\n      lt\n        /* \"#utility.yul\":22583:22791   */\n      iszero\n      tag_488\n      jumpi\n        /* \"#utility.yul\":22676:22685   */\n      dup5\n        /* \"#utility.yul\":22671:22674   */\n      dup10\n        /* \"#utility.yul\":22667:22686   */\n      add\n        /* \"#utility.yul\":22661:22687   */\n      mload\n        /* \"#utility.yul\":22653:22659   */\n      dup3\n        /* \"#utility.yul\":22646:22688   */\n      sstore\n        /* \"#utility.yul\":22727:22728   */\n      0x01\n        /* \"#utility.yul\":22719:22725   */\n      dup3\n        /* \"#utility.yul\":22715:22729   */\n      add\n        /* \"#utility.yul\":22705:22729   */\n      swap2\n      pop\n        /* \"#utility.yul\":22774:22776   */\n      0x20\n        /* \"#utility.yul\":22763:22772   */\n      dup6\n        /* \"#utility.yul\":22759:22777   */\n      add\n        /* \"#utility.yul\":22746:22777   */\n      swap5\n      pop\n        /* \"#utility.yul\":22620:22624   */\n      0x20\n        /* \"#utility.yul\":22617:22618   */\n      dup2\n        /* \"#utility.yul\":22613:22625   */\n      add\n        /* \"#utility.yul\":22608:22625   */\n      swap1\n      pop\n        /* \"#utility.yul\":22583:22791   */\n      jump(tag_486)\n    tag_488:\n        /* \"#utility.yul\":22819:22825   */\n      dup7\n        /* \"#utility.yul\":22810:22817   */\n      dup4\n        /* \"#utility.yul\":22807:22826   */\n      lt\n        /* \"#utility.yul\":22804:22983   */\n      iszero\n      tag_489\n      jumpi\n        /* \"#utility.yul\":22877:22886   */\n      dup5\n        /* \"#utility.yul\":22872:22875   */\n      dup10\n        /* \"#utility.yul\":22868:22887   */\n      add\n        /* \"#utility.yul\":22862:22888   */\n      mload\n        /* \"#utility.yul\":22920:22968   */\n      tag_490\n        /* \"#utility.yul\":22962:22966   */\n      0x1f\n        /* \"#utility.yul\":22954:22960   */\n      dup10\n        /* \"#utility.yul\":22950:22967   */\n      and\n        /* \"#utility.yul\":22939:22948   */\n      dup3\n        /* \"#utility.yul\":22920:22968   */\n      tag_235\n      jump\t// in\n    tag_490:\n        /* \"#utility.yul\":22912:22918   */\n      dup4\n        /* \"#utility.yul\":22905:22969   */\n      sstore\n        /* \"#utility.yul\":22827:22983   */\n      pop\n        /* \"#utility.yul\":22804:22983   */\n    tag_489:\n        /* \"#utility.yul\":23029:23030   */\n      0x01\n        /* \"#utility.yul\":23025:23026   */\n      0x02\n        /* \"#utility.yul\":23017:23023   */\n      dup9\n        /* \"#utility.yul\":23013:23027   */\n      mul\n        /* \"#utility.yul\":23009:23031   */\n      add\n        /* \"#utility.yul\":23003:23007   */\n      dup9\n        /* \"#utility.yul\":22996:23032   */\n      sstore\n        /* \"#utility.yul\":22431:23042   */\n      pop\n      pop\n      pop\n        /* \"#utility.yul\":22394:23281   */\n    tag_481:\n      pop\n        /* \"#utility.yul\":21984:23287   */\n      pop\n      pop\n      pop\n        /* \"#utility.yul\":21892:23287   */\n      pop\n      pop\n      jump\t// out\n\n    auxdata: 0xa2646970667358221220a66385e9dae493fffe3c99845b3ca7e9be5cc12a369cb61a7ae3c6984a81bc3164736f6c63430008120033\n}\n",
				"bytecode": {
					"linkReferences": {},
					"object": "608060405234801561001057600080fd5b50611eea806100206000396000f3fe608060405234801561001057600080fd5b50600436106100935760003560e01c8063690e87c811610066578063690e87c8146101205780638058316a1461013c5780639f11aa6514610173578063cb04bf751461018f578063f732ac77146101bf57610093565b806306661abd1461009857806307973ccf146100b657806310a688e3146100d457806327d3410c14610104575b600080fd5b6100a06101db565b6040516100ad919061121a565b60405180910390f35b6100be6101e1565b6040516100cb919061121a565b60405180910390f35b6100ee60048036038101906100e9919061138f565b6101e7565b6040516100fb91906115d5565b60405180910390f35b61011e6004803603810190610119919061168f565b6103fd565b005b61013a600480360381019061013591906116ef565b610730565b005b6101566004803603810190610151919061138f565b610830565b60405161016a9897969594939291906117a4565b60405180910390f35b61018d6004803603810190610188919061138f565b6109cb565b005b6101a960048036038101906101a491906116ef565b610c3b565b6040516101b691906115d5565b60405180910390f35b6101d960048036038101906101d49190611830565b610f05565b005b60015481565b60025481565b6101ef611194565b6000826040516101ff91906118ed565b9081526020016040518091039020604051806101000160405290816000820154815260200160018201805461023390611933565b80601f016020809104026020016040519081016040528092919081815260200182805461025f90611933565b80156102ac5780601f10610281576101008083540402835291602001916102ac565b820191906000526020600020905b81548152906001019060200180831161028f57829003601f168201915b505050505081526020016002820180546102c590611933565b80601f01602080910402602001604051908101604052809291908181526020018280546102f190611933565b801561033e5780601f106103135761010080835404028352916020019161033e565b820191906000526020600020905b81548152906001019060200180831161032157829003601f168201915b505050505081526020016003820160009054906101000a900473ffffffffffffffffffffffffffffffffffffffff1673ffffffffffffffffffffffffffffffffffffffff1673ffffffffffffffffffffffffffffffffffffffff1681526020016004820154815260200160058201548152602001600682015481526020016007820160009054906101000a900460ff1660028111156103e0576103df6114a7565b5b60028111156103f2576103f16114a7565b5b815250509050919050565b3373ffffffffffffffffffffffffffffffffffffffff16600360003373ffffffffffffffffffffffffffffffffffffffff1673ffffffffffffffffffffffffffffffffffffffff16815260200190815260200160002060010160009054906101000a900473ffffffffffffffffffffffffffffffffffffffff1673ffffffffffffffffffffffffffffffffffffffff161461049757600080fd5b600060028111156104ab576104aa6114a7565b5b600360003373ffffffffffffffffffffffffffffffffffffffff1673ffffffffffffffffffffffffffffffffffffffff16815260200190815260200160002060030184846040516104fd929190611989565b908152602001604051809103902060009054906101000a900460ff16600281111561052b5761052a6114a7565b5b14801561058c575060006002811115610547576105466114a7565b5b60008484604051610559929190611989565b908152602001604051809103902060070160009054906101000a900460ff16600281111561058a576105896114a7565b5b145b61059557600080fd5b600115158115150361066857600083836040516105b3929190611989565b908152602001604051809103902060050160008154809291906105d5906119d1565b91905055506001600360003373ffffffffffffffffffffffffffffffffffffffff1673ffffffffffffffffffffffffffffffffffffffff168152602001908152602001600020600301848460405161062e929190611989565b908152602001604051809103902060006101000a81548160ff0219169083600281111561065e5761065d6114a7565b5b021790555061072b565b6000838360405161067a929190611989565b9081526020016040518091039020600601600081548092919061069c906119d1565b91905055506002600360003373ffffffffffffffffffffffffffffffffffffffff1673ffffffffffffffffffffffffffffffffffffffff16815260200190815260200160002060030184846040516106f5929190611989565b908152602001604051809103902060006101000a81548160ff02191690836002811115610725576107246114a7565b5b02179055505b505050565b818133600360003373ffffffffffffffffffffffffffffffffffffffff1673ffffffffffffffffffffffffffffffffffffffff1681526020019081526020016000206000016000600360003373ffffffffffffffffffffffffffffffffffffffff1673ffffffffffffffffffffffffffffffffffffffff16815260200190815260200160002060010160008491906101000a81548173ffffffffffffffffffffffffffffffffffffffff021916908373ffffffffffffffffffffffffffffffffffffffff1602179055508484909192909192509182610810929190611bd0565b5050505060026000815480929190610827906119d1565b91905055505050565b60008180516020810182018051848252602083016020850120818352809550505050505060009150905080600001549080600101805461086f90611933565b80601f016020809104026020016040519081016040528092919081815260200182805461089b90611933565b80156108e85780601f106108bd576101008083540402835291602001916108e8565b820191906000526020600020905b8154815290600101906020018083116108cb57829003601f168201915b5050505050908060020180546108fd90611933565b80601f016020809104026020016040519081016040528092919081815260200182805461092990611933565b80156109765780601f1061094b57610100808354040283529160200191610976565b820191906000526020600020905b81548152906001019060200180831161095957829003601f168201915b5050505050908060030160009054906101000a900473ffffffffffffffffffffffffffffffffffffffff16908060040154908060050154908060060154908060070160009054906101000a900460ff16905088565b3373ffffffffffffffffffffffffffffffffffffffff16600360003373ffffffffffffffffffffffffffffffffffffffff1673ffffffffffffffffffffffffffffffffffffffff16815260200190815260200160002060010160009054906101000a900473ffffffffffffffffffffffffffffffffffffffff1673ffffffffffffffffffffffffffffffffffffffff1614610a6557600080fd5b6064600082604051610a7791906118ed565b908152602001604051809103902060040154610a939190611ca0565b4211610a9e57600080fd5b600a6007600254610aaf9190611cd4565b610ab99190611d45565b600082604051610ac991906118ed565b908152602001604051809103902060060154600083604051610aeb91906118ed565b908152602001604051809103902060050154610b079190611ca0565b118015610b9957506042600082604051610b2191906118ed565b908152602001604051809103902060060154600083604051610b4391906118ed565b908152602001604051809103902060050154610b5f9190611ca0565b6064600084604051610b7191906118ed565b908152602001604051809103902060050154610b8d9190611cd4565b610b979190611d45565b115b15610bed576001600082604051610bb091906118ed565b908152602001604051809103902060070160006101000a81548160ff02191690836002811115610be357610be26114a7565b5b0217905550610c38565b6002600082604051610bff91906118ed565b908152602001604051809103902060070160006101000a81548160ff02191690836002811115610c3257610c316114a7565b5b02179055505b50565b610c43611194565b60008383604051610c55929190611989565b908152602001604051809103902060030160009054906101000a900473ffffffffffffffffffffffffffffffffffffffff1673ffffffffffffffffffffffffffffffffffffffff163373ffffffffffffffffffffffffffffffffffffffff1614610cf4576040517f08c379a0000000000000000000000000000000000000000000000000000000008152600401610ceb90611dc2565b60405180910390fd5b60008383604051610d06929190611989565b90815260200160405180910390206040518061010001604052908160008201548152602001600182018054610d3a90611933565b80601f0160208091040260200160405190810160405280929190818152602001828054610d6690611933565b8015610db35780601f10610d8857610100808354040283529160200191610db3565b820191906000526020600020905b815481529060010190602001808311610d9657829003601f168201915b50505050508152602001600282018054610dcc90611933565b80601f0160208091040260200160405190810160405280929190818152602001828054610df890611933565b8015610e455780601f10610e1a57610100808354040283529160200191610e45565b820191906000526020600020905b815481529060010190602001808311610e2857829003601f168201915b505050505081526020016003820160009054906101000a900473ffffffffffffffffffffffffffffffffffffffff1673ffffffffffffffffffffffffffffffffffffffff1673ffffffffffffffffffffffffffffffffffffffff1681526020016004820154815260200160058201548152602001600682015481526020016007820160009054906101000a900460ff166002811115610ee757610ee66114a7565b5b6002811115610ef957610ef86114a7565b5b81525050905092915050565b3373ffffffffffffffffffffffffffffffffffffffff16600360003373ffffffffffffffffffffffffffffffffffffffff1673ffffffffffffffffffffffffffffffffffffffff16815260200190815260200160002060010160009054906101000a900473ffffffffffffffffffffffffffffffffffffffff1673ffffffffffffffffffffffffffffffffffffffff1614610f9f57600080fd5b604051806101000160405280600160008154610fba906119d1565b919050819055815260200185858080601f016020809104026020016040519081016040528093929190818152602001838380828437600081840152601f19601f82011690508083019250505050505050815260200183838080601f016020809104026020016040519081016040528093929190818152602001838380828437600081840152601f19601f8201169050808301925050505050505081526020013373ffffffffffffffffffffffffffffffffffffffff16815260200142815260200160008152602001600081526020016000600281111561109d5761109c6114a7565b5b815250600085856040516110b2929190611989565b90815260200160405180910390206000820151816000015560208201518160010190816110df9190611de2565b5060408201518160020190816110f59190611de2565b5060608201518160030160006101000a81548173ffffffffffffffffffffffffffffffffffffffff021916908373ffffffffffffffffffffffffffffffffffffffff1602179055506080820151816004015560a0820151816005015560c0820151816006015560e08201518160070160006101000a81548160ff02191690836002811115611186576111856114a7565b5b021790555090505050505050565b604051806101000160405280600081526020016060815260200160608152602001600073ffffffffffffffffffffffffffffffffffffffff168152602001600081526020016000815260200160008152602001600060028111156111fb576111fa6114a7565b5b81525090565b6000819050919050565b61121481611201565b82525050565b600060208201905061122f600083018461120b565b92915050565b6000604051905090565b600080fd5b600080fd5b600080fd5b600080fd5b6000601f19601f8301169050919050565b7f4e487b7100000000000000000000000000000000000000000000000000000000600052604160045260246000fd5b61129c82611253565b810181811067ffffffffffffffff821117156112bb576112ba611264565b5b80604052505050565b60006112ce611235565b90506112da8282611293565b919050565b600067ffffffffffffffff8211156112fa576112f9611264565b5b61130382611253565b9050602081019050919050565b82818337600083830152505050565b600061133261132d846112df565b6112c4565b90508281526020810184848401111561134e5761134d61124e565b5b611359848285611310565b509392505050565b600082601f83011261137657611375611249565b5b813561138684826020860161131f565b91505092915050565b6000602082840312156113a5576113a461123f565b5b600082013567ffffffffffffffff8111156113c3576113c2611244565b5b6113cf84828501611361565b91505092915050565b6113e181611201565b82525050565b600081519050919050565b600082825260208201905092915050565b60005b83811015611421578082015181840152602081019050611406565b60008484015250505050565b6000611438826113e7565b61144281856113f2565b9350611452818560208601611403565b61145b81611253565b840191505092915050565b600073ffffffffffffffffffffffffffffffffffffffff82169050919050565b600061149182611466565b9050919050565b6114a181611486565b82525050565b7f4e487b7100000000000000000000000000000000000000000000000000000000600052602160045260246000fd5b600381106114e7576114e66114a7565b5b50565b60008190506114f8826114d6565b919050565b6000611508826114ea565b9050919050565b611518816114fd565b82525050565b60006101008301600083015161153760008601826113d8565b506020830151848203602086015261154f828261142d565b91505060408301518482036040860152611569828261142d565b915050606083015161157e6060860182611498565b50608083015161159160808601826113d8565b5060a08301516115a460a08601826113d8565b5060c08301516115b760c08601826113d8565b5060e08301516115ca60e086018261150f565b508091505092915050565b600060208201905081810360008301526115ef818461151e565b905092915050565b600080fd5b600080fd5b60008083601f84011261161757611616611249565b5b8235905067ffffffffffffffff811115611634576116336115f7565b5b6020830191508360018202830111156116505761164f6115fc565b5b9250929050565b60008115159050919050565b61166c81611657565b811461167757600080fd5b50565b60008135905061168981611663565b92915050565b6000806000604084860312156116a8576116a761123f565b5b600084013567ffffffffffffffff8111156116c6576116c5611244565b5b6116d286828701611601565b935093505060206116e58682870161167a565b9150509250925092565b600080602083850312156117065761170561123f565b5b600083013567ffffffffffffffff81111561172457611723611244565b5b61173085828601611601565b92509250509250929050565b600082825260208201905092915050565b6000611758826113e7565b611762818561173c565b9350611772818560208601611403565b61177b81611253565b840191505092915050565b61178f81611486565b82525050565b61179e816114fd565b82525050565b6000610100820190506117ba600083018b61120b565b81810360208301526117cc818a61174d565b905081810360408301526117e0818961174d565b90506117ef6060830188611786565b6117fc608083018761120b565b61180960a083018661120b565b61181660c083018561120b565b61182360e0830184611795565b9998505050505050505050565b6000806000806040858703121561184a5761184961123f565b5b600085013567ffffffffffffffff81111561186857611867611244565b5b61187487828801611601565b9450945050602085013567ffffffffffffffff81111561189757611896611244565b5b6118a387828801611601565b925092505092959194509250565b600081905092915050565b60006118c7826113e7565b6118d181856118b1565b93506118e1818560208601611403565b80840191505092915050565b60006118f982846118bc565b915081905092915050565b7f4e487b7100000000000000000000000000000000000000000000000000000000600052602260045260246000fd5b6000600282049050600182168061194b57607f821691505b60208210810361195e5761195d611904565b5b50919050565b600061197083856118b1565b935061197d838584611310565b82840190509392505050565b6000611996828486611964565b91508190509392505050565b7f4e487b7100000000000000000000000000000000000000000000000000000000600052601160045260246000fd5b60006119dc82611201565b91507fffffffffffffffffffffffffffffffffffffffffffffffffffffffffffffffff8203611a0e57611a0d6119a2565b5b600182019050919050565b600082905092915050565b60008190508160005260206000209050919050565b60006020601f8301049050919050565b600082821b905092915050565b600060088302611a867fffffffffffffffffffffffffffffffffffffffffffffffffffffffffffffffff82611a49565b611a908683611a49565b95508019841693508086168417925050509392505050565b6000819050919050565b6000611acd611ac8611ac384611201565b611aa8565b611201565b9050919050565b6000819050919050565b611ae783611ab2565b611afb611af382611ad4565b848454611a56565b825550505050565b600090565b611b10611b03565b611b1b818484611ade565b505050565b5b81811015611b3f57611b34600082611b08565b600181019050611b21565b5050565b601f821115611b8457611b5581611a24565b611b5e84611a39565b81016020851015611b6d578190505b611b81611b7985611a39565b830182611b20565b50505b505050565b600082821c905092915050565b6000611ba760001984600802611b89565b1980831691505092915050565b6000611bc08383611b96565b9150826002028217905092915050565b611bda8383611a19565b67ffffffffffffffff811115611bf357611bf2611264565b5b611bfd8254611933565b611c08828285611b43565b6000601f831160018114611c375760008415611c25578287013590505b611c2f8582611bb4565b865550611c97565b601f198416611c4586611a24565b60005b82811015611c6d57848901358255600182019150602085019450602081019050611c48565b86831015611c8a5784890135611c86601f891682611b96565b8355505b6001600288020188555050505b50505050505050565b6000611cab82611201565b9150611cb683611201565b9250828201905080821115611cce57611ccd6119a2565b5b92915050565b6000611cdf82611201565b9150611cea83611201565b9250828202611cf881611201565b91508282048414831517611d0f57611d0e6119a2565b5b5092915050565b7f4e487b7100000000000000000000000000000000000000000000000000000000600052601260045260246000fd5b6000611d5082611201565b9150611d5b83611201565b925082611d6b57611d6a611d16565b5b828204905092915050565b7f596f7520646964206e6f74207375676765737465642069742e00000000000000600082015250565b6000611dac60198361173c565b9150611db782611d76565b602082019050919050565b60006020820190508181036000830152611ddb81611d9f565b9050919050565b611deb826113e7565b67ffffffffffffffff811115611e0457611e03611264565b5b611e0e8254611933565b611e19828285611b43565b600060209050601f831160018114611e4c5760008415611e3a578287015190505b611e448582611bb4565b865550611eac565b601f198416611e5a86611a24565b60005b82811015611e8257848901518255600182019150602085019450602081019050611e5d565b86831015611e9f5784890151611e9b601f891682611b96565b8355505b6001600288020188555050505b50505050505056fea2646970667358221220a66385e9dae493fffe3c99845b3ca7e9be5cc12a369cb61a7ae3c6984a81bc3164736f6c63430008120033",
					"opcodes": "PUSH1 0x80 PUSH1 0x40 MSTORE CALLVALUE DUP1 ISZERO PUSH2 0x10 JUMPI PUSH1 0x0 DUP1 REVERT JUMPDEST POP PUSH2 0x1EEA DUP1 PUSH2 0x20 PUSH1 0x0 CODECOPY PUSH1 0x0 RETURN INVALID PUSH1 0x80 PUSH1 0x40 MSTORE CALLVALUE DUP1 ISZERO PUSH2 0x10 JUMPI PUSH1 0x0 DUP1 REVERT JUMPDEST POP PUSH1 0x4 CALLDATASIZE LT PUSH2 0x93 JUMPI PUSH1 0x0 CALLDATALOAD PUSH1 0xE0 SHR DUP1 PUSH4 0x690E87C8 GT PUSH2 0x66 JUMPI DUP1 PUSH4 0x690E87C8 EQ PUSH2 0x120 JUMPI DUP1 PUSH4 0x8058316A EQ PUSH2 0x13C JUMPI DUP1 PUSH4 0x9F11AA65 EQ PUSH2 0x173 JUMPI DUP1 PUSH4 0xCB04BF75 EQ PUSH2 0x18F JUMPI DUP1 PUSH4 0xF732AC77 EQ PUSH2 0x1BF JUMPI PUSH2 0x93 JUMP JUMPDEST DUP1 PUSH4 0x6661ABD EQ PUSH2 0x98 JUMPI DUP1 PUSH4 0x7973CCF EQ PUSH2 0xB6 JUMPI DUP1 PUSH4 0x10A688E3 EQ PUSH2 0xD4 JUMPI DUP1 PUSH4 0x27D3410C EQ PUSH2 0x104 JUMPI JUMPDEST PUSH1 0x0 DUP1 REVERT JUMPDEST PUSH2 0xA0 PUSH2 0x1DB JUMP JUMPDEST PUSH1 0x40 MLOAD PUSH2 0xAD SWAP2 SWAP1 PUSH2 0x121A JUMP JUMPDEST PUSH1 0x40 MLOAD DUP1 SWAP2 SUB SWAP1 RETURN JUMPDEST PUSH2 0xBE PUSH2 0x1E1 JUMP JUMPDEST PUSH1 0x40 MLOAD PUSH2 0xCB SWAP2 SWAP1 PUSH2 0x121A JUMP JUMPDEST PUSH1 0x40 MLOAD DUP1 SWAP2 SUB SWAP1 RETURN JUMPDEST PUSH2 0xEE PUSH1 0x4 DUP1 CALLDATASIZE SUB DUP2 ADD SWAP1 PUSH2 0xE9 SWAP2 SWAP1 PUSH2 0x138F JUMP JUMPDEST PUSH2 0x1E7 JUMP JUMPDEST PUSH1 0x40 MLOAD PUSH2 0xFB SWAP2 SWAP1 PUSH2 0x15D5 JUMP JUMPDEST PUSH1 0x40 MLOAD DUP1 SWAP2 SUB SWAP1 RETURN JUMPDEST PUSH2 0x11E PUSH1 0x4 DUP1 CALLDATASIZE SUB DUP2 ADD SWAP1 PUSH2 0x119 SWAP2 SWAP1 PUSH2 0x168F JUMP JUMPDEST PUSH2 0x3FD JUMP JUMPDEST STOP JUMPDEST PUSH2 0x13A PUSH1 0x4 DUP1 CALLDATASIZE SUB DUP2 ADD SWAP1 PUSH2 0x135 SWAP2 SWAP1 PUSH2 0x16EF JUMP JUMPDEST PUSH2 0x730 JUMP JUMPDEST STOP JUMPDEST PUSH2 0x156 PUSH1 0x4 DUP1 CALLDATASIZE SUB DUP2 ADD SWAP1 PUSH2 0x151 SWAP2 SWAP1 PUSH2 0x138F JUMP JUMPDEST PUSH2 0x830 JUMP JUMPDEST PUSH1 0x40 MLOAD PUSH2 0x16A SWAP9 SWAP8 SWAP7 SWAP6 SWAP5 SWAP4 SWAP3 SWAP2 SWAP1 PUSH2 0x17A4 JUMP JUMPDEST PUSH1 0x40 MLOAD DUP1 SWAP2 SUB SWAP1 RETURN JUMPDEST PUSH2 0x18D PUSH1 0x4 DUP1 CALLDATASIZE SUB DUP2 ADD SWAP1 PUSH2 0x188 SWAP2 SWAP1 PUSH2 0x138F JUMP JUMPDEST PUSH2 0x9CB JUMP JUMPDEST STOP JUMPDEST PUSH2 0x1A9 PUSH1 0x4 DUP1 CALLDATASIZE SUB DUP2 ADD SWAP1 PUSH2 0x1A4 SWAP2 SWAP1 PUSH2 0x16EF JUMP JUMPDEST PUSH2 0xC3B JUMP JUMPDEST PUSH1 0x40 MLOAD PUSH2 0x1B6 SWAP2 SWAP1 PUSH2 0x15D5 JUMP JUMPDEST PUSH1 0x40 MLOAD DUP1 SWAP2 SUB SWAP1 RETURN JUMPDEST PUSH2 0x1D9 PUSH1 0x4 DUP1 CALLDATASIZE SUB DUP2 ADD SWAP1 PUSH2 0x1D4 SWAP2 SWAP1 PUSH2 0x1830 JUMP JUMPDEST PUSH2 0xF05 JUMP JUMPDEST STOP JUMPDEST PUSH1 0x1 SLOAD DUP2 JUMP JUMPDEST PUSH1 0x2 SLOAD DUP2 JUMP JUMPDEST PUSH2 0x1EF PUSH2 0x1194 JUMP JUMPDEST PUSH1 0x0 DUP3 PUSH1 0x40 MLOAD PUSH2 0x1FF SWAP2 SWAP1 PUSH2 0x18ED JUMP JUMPDEST SWAP1 DUP2 MSTORE PUSH1 0x20 ADD PUSH1 0x40 MLOAD DUP1 SWAP2 SUB SWAP1 KECCAK256 PUSH1 0x40 MLOAD DUP1 PUSH2 0x100 ADD PUSH1 0x40 MSTORE SWAP1 DUP2 PUSH1 0x0 DUP3 ADD SLOAD DUP2 MSTORE PUSH1 0x20 ADD PUSH1 0x1 DUP3 ADD DUP1 SLOAD PUSH2 0x233 SWAP1 PUSH2 0x1933 JUMP JUMPDEST DUP1 PUSH1 0x1F ADD PUSH1 0x20 DUP1 SWAP2 DIV MUL PUSH1 0x20 ADD PUSH1 0x40 MLOAD SWAP1 DUP2 ADD PUSH1 0x40 MSTORE DUP1 SWAP3 SWAP2 SWAP1 DUP2 DUP2 MSTORE PUSH1 0x20 ADD DUP3 DUP1 SLOAD PUSH2 0x25F SWAP1 PUSH2 0x1933 JUMP JUMPDEST DUP1 ISZERO PUSH2 0x2AC JUMPI DUP1 PUSH1 0x1F LT PUSH2 0x281 JUMPI PUSH2 0x100 DUP1 DUP4 SLOAD DIV MUL DUP4 MSTORE SWAP2 PUSH1 0x20 ADD SWAP2 PUSH2 0x2AC JUMP JUMPDEST DUP3 ADD SWAP2 SWAP1 PUSH1 0x0 MSTORE PUSH1 0x20 PUSH1 0x0 KECCAK256 SWAP1 JUMPDEST DUP2 SLOAD DUP2 MSTORE SWAP1 PUSH1 0x1 ADD SWAP1 PUSH1 0x20 ADD DUP1 DUP4 GT PUSH2 0x28F JUMPI DUP3 SWAP1 SUB PUSH1 0x1F AND DUP3 ADD SWAP2 JUMPDEST POP POP POP POP POP DUP2 MSTORE PUSH1 0x20 ADD PUSH1 0x2 DUP3 ADD DUP1 SLOAD PUSH2 0x2C5 SWAP1 PUSH2 0x1933 JUMP JUMPDEST DUP1 PUSH1 0x1F ADD PUSH1 0x20 DUP1 SWAP2 DIV MUL PUSH1 0x20 ADD PUSH1 0x40 MLOAD SWAP1 DUP2 ADD PUSH1 0x40 MSTORE DUP1 SWAP3 SWAP2 SWAP1 DUP2 DUP2 MSTORE PUSH1 0x20 ADD DUP3 DUP1 SLOAD PUSH2 0x2F1 SWAP1 PUSH2 0x1933 JUMP JUMPDEST DUP1 ISZERO PUSH2 0x33E JUMPI DUP1 PUSH1 0x1F LT PUSH2 0x313 JUMPI PUSH2 0x100 DUP1 DUP4 SLOAD DIV MUL DUP4 MSTORE SWAP2 PUSH1 0x20 ADD SWAP2 PUSH2 0x33E JUMP JUMPDEST DUP3 ADD SWAP2 SWAP1 PUSH1 0x0 MSTORE PUSH1 0x20 PUSH1 0x0 KECCAK256 SWAP1 JUMPDEST DUP2 SLOAD DUP2 MSTORE SWAP1 PUSH1 0x1 ADD SWAP1 PUSH1 0x20 ADD DUP1 DUP4 GT PUSH2 0x321 JUMPI DUP3 SWAP1 SUB PUSH1 0x1F AND DUP3 ADD SWAP2 JUMPDEST POP POP POP POP POP DUP2 MSTORE PUSH1 0x20 ADD PUSH1 0x3 DUP3 ADD PUSH1 0x0 SWAP1 SLOAD SWAP1 PUSH2 0x100 EXP SWAP1 DIV PUSH20 0xFFFFFFFFFFFFFFFFFFFFFFFFFFFFFFFFFFFFFFFF AND PUSH20 0xFFFFFFFFFFFFFFFFFFFFFFFFFFFFFFFFFFFFFFFF AND PUSH20 0xFFFFFFFFFFFFFFFFFFFFFFFFFFFFFFFFFFFFFFFF AND DUP2 MSTORE PUSH1 0x20 ADD PUSH1 0x4 DUP3 ADD SLOAD DUP2 MSTORE PUSH1 0x20 ADD PUSH1 0x5 DUP3 ADD SLOAD DUP2 MSTORE PUSH1 0x20 ADD PUSH1 0x6 DUP3 ADD SLOAD DUP2 MSTORE PUSH1 0x20 ADD PUSH1 0x7 DUP3 ADD PUSH1 0x0 SWAP1 SLOAD SWAP1 PUSH2 0x100 EXP SWAP1 DIV PUSH1 0xFF AND PUSH1 0x2 DUP2 GT ISZERO PUSH2 0x3E0 JUMPI PUSH2 0x3DF PUSH2 0x14A7 JUMP JUMPDEST JUMPDEST PUSH1 0x2 DUP2 GT ISZERO PUSH2 0x3F2 JUMPI PUSH2 0x3F1 PUSH2 0x14A7 JUMP JUMPDEST JUMPDEST DUP2 MSTORE POP POP SWAP1 POP SWAP2 SWAP1 POP JUMP JUMPDEST CALLER PUSH20 0xFFFFFFFFFFFFFFFFFFFFFFFFFFFFFFFFFFFFFFFF AND PUSH1 0x3 PUSH1 0x0 CALLER PUSH20 0xFFFFFFFFFFFFFFFFFFFFFFFFFFFFFFFFFFFFFFFF AND PUSH20 0xFFFFFFFFFFFFFFFFFFFFFFFFFFFFFFFFFFFFFFFF AND DUP2 MSTORE PUSH1 0x20 ADD SWAP1 DUP2 MSTORE PUSH1 0x20 ADD PUSH1 0x0 KECCAK256 PUSH1 0x1 ADD PUSH1 0x0 SWAP1 SLOAD SWAP1 PUSH2 0x100 EXP SWAP1 DIV PUSH20 0xFFFFFFFFFFFFFFFFFFFFFFFFFFFFFFFFFFFFFFFF AND PUSH20 0xFFFFFFFFFFFFFFFFFFFFFFFFFFFFFFFFFFFFFFFF AND EQ PUSH2 0x497 JUMPI PUSH1 0x0 DUP1 REVERT JUMPDEST PUSH1 0x0 PUSH1 0x2 DUP2 GT ISZERO PUSH2 0x4AB JUMPI PUSH2 0x4AA PUSH2 0x14A7 JUMP JUMPDEST JUMPDEST PUSH1 0x3 PUSH1 0x0 CALLER PUSH20 0xFFFFFFFFFFFFFFFFFFFFFFFFFFFFFFFFFFFFFFFF AND PUSH20 0xFFFFFFFFFFFFFFFFFFFFFFFFFFFFFFFFFFFFFFFF AND DUP2 MSTORE PUSH1 0x20 ADD SWAP1 DUP2 MSTORE PUSH1 0x20 ADD PUSH1 0x0 KECCAK256 PUSH1 0x3 ADD DUP5 DUP5 PUSH1 0x40 MLOAD PUSH2 0x4FD SWAP3 SWAP2 SWAP1 PUSH2 0x1989 JUMP JUMPDEST SWAP1 DUP2 MSTORE PUSH1 0x20 ADD PUSH1 0x40 MLOAD DUP1 SWAP2 SUB SWAP1 KECCAK256 PUSH1 0x0 SWAP1 SLOAD SWAP1 PUSH2 0x100 EXP SWAP1 DIV PUSH1 0xFF AND PUSH1 0x2 DUP2 GT ISZERO PUSH2 0x52B JUMPI PUSH2 0x52A PUSH2 0x14A7 JUMP JUMPDEST JUMPDEST EQ DUP1 ISZERO PUSH2 0x58C JUMPI POP PUSH1 0x0 PUSH1 0x2 DUP2 GT ISZERO PUSH2 0x547 JUMPI PUSH2 0x546 PUSH2 0x14A7 JUMP JUMPDEST JUMPDEST PUSH1 0x0 DUP5 DUP5 PUSH1 0x40 MLOAD PUSH2 0x559 SWAP3 SWAP2 SWAP1 PUSH2 0x1989 JUMP JUMPDEST SWAP1 DUP2 MSTORE PUSH1 0x20 ADD PUSH1 0x40 MLOAD DUP1 SWAP2 SUB SWAP1 KECCAK256 PUSH1 0x7 ADD PUSH1 0x0 SWAP1 SLOAD SWAP1 PUSH2 0x100 EXP SWAP1 DIV PUSH1 0xFF AND PUSH1 0x2 DUP2 GT ISZERO PUSH2 0x58A JUMPI PUSH2 0x589 PUSH2 0x14A7 JUMP JUMPDEST JUMPDEST EQ JUMPDEST PUSH2 0x595 JUMPI PUSH1 0x0 DUP1 REVERT JUMPDEST PUSH1 0x1 ISZERO ISZERO DUP2 ISZERO ISZERO SUB PUSH2 0x668 JUMPI PUSH1 0x0 DUP4 DUP4 PUSH1 0x40 MLOAD PUSH2 0x5B3 SWAP3 SWAP2 SWAP1 PUSH2 0x1989 JUMP JUMPDEST SWAP1 DUP2 MSTORE PUSH1 0x20 ADD PUSH1 0x40 MLOAD DUP1 SWAP2 SUB SWAP1 KECCAK256 PUSH1 0x5 ADD PUSH1 0x0 DUP2 SLOAD DUP1 SWAP3 SWAP2 SWAP1 PUSH2 0x5D5 SWAP1 PUSH2 0x19D1 JUMP JUMPDEST SWAP2 SWAP1 POP SSTORE POP PUSH1 0x1 PUSH1 0x3 PUSH1 0x0 CALLER PUSH20 0xFFFFFFFFFFFFFFFFFFFFFFFFFFFFFFFFFFFFFFFF AND PUSH20 0xFFFFFFFFFFFFFFFFFFFFFFFFFFFFFFFFFFFFFFFF AND DUP2 MSTORE PUSH1 0x20 ADD SWAP1 DUP2 MSTORE PUSH1 0x20 ADD PUSH1 0x0 KECCAK256 PUSH1 0x3 ADD DUP5 DUP5 PUSH1 0x40 MLOAD PUSH2 0x62E SWAP3 SWAP2 SWAP1 PUSH2 0x1989 JUMP JUMPDEST SWAP1 DUP2 MSTORE PUSH1 0x20 ADD PUSH1 0x40 MLOAD DUP1 SWAP2 SUB SWAP1 KECCAK256 PUSH1 0x0 PUSH2 0x100 EXP DUP2 SLOAD DUP2 PUSH1 0xFF MUL NOT AND SWAP1 DUP4 PUSH1 0x2 DUP2 GT ISZERO PUSH2 0x65E JUMPI PUSH2 0x65D PUSH2 0x14A7 JUMP JUMPDEST JUMPDEST MUL OR SWAP1 SSTORE POP PUSH2 0x72B JUMP JUMPDEST PUSH1 0x0 DUP4 DUP4 PUSH1 0x40 MLOAD PUSH2 0x67A SWAP3 SWAP2 SWAP1 PUSH2 0x1989 JUMP JUMPDEST SWAP1 DUP2 MSTORE PUSH1 0x20 ADD PUSH1 0x40 MLOAD DUP1 SWAP2 SUB SWAP1 KECCAK256 PUSH1 0x6 ADD PUSH1 0x0 DUP2 SLOAD DUP1 SWAP3 SWAP2 SWAP1 PUSH2 0x69C SWAP1 PUSH2 0x19D1 JUMP JUMPDEST SWAP2 SWAP1 POP SSTORE POP PUSH1 0x2 PUSH1 0x3 PUSH1 0x0 CALLER PUSH20 0xFFFFFFFFFFFFFFFFFFFFFFFFFFFFFFFFFFFFFFFF AND PUSH20 0xFFFFFFFFFFFFFFFFFFFFFFFFFFFFFFFFFFFFFFFF AND DUP2 MSTORE PUSH1 0x20 ADD SWAP1 DUP2 MSTORE PUSH1 0x20 ADD PUSH1 0x0 KECCAK256 PUSH1 0x3 ADD DUP5 DUP5 PUSH1 0x40 MLOAD PUSH2 0x6F5 SWAP3 SWAP2 SWAP1 PUSH2 0x1989 JUMP JUMPDEST SWAP1 DUP2 MSTORE PUSH1 0x20 ADD PUSH1 0x40 MLOAD DUP1 SWAP2 SUB SWAP1 KECCAK256 PUSH1 0x0 PUSH2 0x100 EXP DUP2 SLOAD DUP2 PUSH1 0xFF MUL NOT AND SWAP1 DUP4 PUSH1 0x2 DUP2 GT ISZERO PUSH2 0x725 JUMPI PUSH2 0x724 PUSH2 0x14A7 JUMP JUMPDEST JUMPDEST MUL OR SWAP1 SSTORE POP JUMPDEST POP POP POP JUMP JUMPDEST DUP2 DUP2 CALLER PUSH1 0x3 PUSH1 0x0 CALLER PUSH20 0xFFFFFFFFFFFFFFFFFFFFFFFFFFFFFFFFFFFFFFFF AND PUSH20 0xFFFFFFFFFFFFFFFFFFFFFFFFFFFFFFFFFFFFFFFF AND DUP2 MSTORE PUSH1 0x20 ADD SWAP1 DUP2 MSTORE PUSH1 0x20 ADD PUSH1 0x0 KECCAK256 PUSH1 0x0 ADD PUSH1 0x0 PUSH1 0x3 PUSH1 0x0 CALLER PUSH20 0xFFFFFFFFFFFFFFFFFFFFFFFFFFFFFFFFFFFFFFFF AND PUSH20 0xFFFFFFFFFFFFFFFFFFFFFFFFFFFFFFFFFFFFFFFF AND DUP2 MSTORE PUSH1 0x20 ADD SWAP1 DUP2 MSTORE PUSH1 0x20 ADD PUSH1 0x0 KECCAK256 PUSH1 0x1 ADD PUSH1 0x0 DUP5 SWAP2 SWAP1 PUSH2 0x100 EXP DUP2 SLOAD DUP2 PUSH20 0xFFFFFFFFFFFFFFFFFFFFFFFFFFFFFFFFFFFFFFFF MUL NOT AND SWAP1 DUP4 PUSH20 0xFFFFFFFFFFFFFFFFFFFFFFFFFFFFFFFFFFFFFFFF AND MUL OR SWAP1 SSTORE POP DUP5 DUP5 SWAP1 SWAP2 SWAP3 SWAP1 SWAP2 SWAP3 POP SWAP2 DUP3 PUSH2 0x810 SWAP3 SWAP2 SWAP1 PUSH2 0x1BD0 JUMP JUMPDEST POP POP POP POP PUSH1 0x2 PUSH1 0x0 DUP2 SLOAD DUP1 SWAP3 SWAP2 SWAP1 PUSH2 0x827 SWAP1 PUSH2 0x19D1 JUMP JUMPDEST SWAP2 SWAP1 POP SSTORE POP POP POP JUMP JUMPDEST PUSH1 0x0 DUP2 DUP1 MLOAD PUSH1 0x20 DUP2 ADD DUP3 ADD DUP1 MLOAD DUP5 DUP3 MSTORE PUSH1 0x20 DUP4 ADD PUSH1 0x20 DUP6 ADD KECCAK256 DUP2 DUP4 MSTORE DUP1 SWAP6 POP POP POP POP POP POP PUSH1 0x0 SWAP2 POP SWAP1 POP DUP1 PUSH1 0x0 ADD SLOAD SWAP1 DUP1 PUSH1 0x1 ADD DUP1 SLOAD PUSH2 0x86F SWAP1 PUSH2 0x1933 JUMP JUMPDEST DUP1 PUSH1 0x1F ADD PUSH1 0x20 DUP1 SWAP2 DIV MUL PUSH1 0x20 ADD PUSH1 0x40 MLOAD SWAP1 DUP2 ADD PUSH1 0x40 MSTORE DUP1 SWAP3 SWAP2 SWAP1 DUP2 DUP2 MSTORE PUSH1 0x20 ADD DUP3 DUP1 SLOAD PUSH2 0x89B SWAP1 PUSH2 0x1933 JUMP JUMPDEST DUP1 ISZERO PUSH2 0x8E8 JUMPI DUP1 PUSH1 0x1F LT PUSH2 0x8BD JUMPI PUSH2 0x100 DUP1 DUP4 SLOAD DIV MUL DUP4 MSTORE SWAP2 PUSH1 0x20 ADD SWAP2 PUSH2 0x8E8 JUMP JUMPDEST DUP3 ADD SWAP2 SWAP1 PUSH1 0x0 MSTORE PUSH1 0x20 PUSH1 0x0 KECCAK256 SWAP1 JUMPDEST DUP2 SLOAD DUP2 MSTORE SWAP1 PUSH1 0x1 ADD SWAP1 PUSH1 0x20 ADD DUP1 DUP4 GT PUSH2 0x8CB JUMPI DUP3 SWAP1 SUB PUSH1 0x1F AND DUP3 ADD SWAP2 JUMPDEST POP POP POP POP POP SWAP1 DUP1 PUSH1 0x2 ADD DUP1 SLOAD PUSH2 0x8FD SWAP1 PUSH2 0x1933 JUMP JUMPDEST DUP1 PUSH1 0x1F ADD PUSH1 0x20 DUP1 SWAP2 DIV MUL PUSH1 0x20 ADD PUSH1 0x40 MLOAD SWAP1 DUP2 ADD PUSH1 0x40 MSTORE DUP1 SWAP3 SWAP2 SWAP1 DUP2 DUP2 MSTORE PUSH1 0x20 ADD DUP3 DUP1 SLOAD PUSH2 0x929 SWAP1 PUSH2 0x1933 JUMP JUMPDEST DUP1 ISZERO PUSH2 0x976 JUMPI DUP1 PUSH1 0x1F LT PUSH2 0x94B JUMPI PUSH2 0x100 DUP1 DUP4 SLOAD DIV MUL DUP4 MSTORE SWAP2 PUSH1 0x20 ADD SWAP2 PUSH2 0x976 JUMP JUMPDEST DUP3 ADD SWAP2 SWAP1 PUSH1 0x0 MSTORE PUSH1 0x20 PUSH1 0x0 KECCAK256 SWAP1 JUMPDEST DUP2 SLOAD DUP2 MSTORE SWAP1 PUSH1 0x1 ADD SWAP1 PUSH1 0x20 ADD DUP1 DUP4 GT PUSH2 0x959 JUMPI DUP3 SWAP1 SUB PUSH1 0x1F AND DUP3 ADD SWAP2 JUMPDEST POP POP POP POP POP SWAP1 DUP1 PUSH1 0x3 ADD PUSH1 0x0 SWAP1 SLOAD SWAP1 PUSH2 0x100 EXP SWAP1 DIV PUSH20 0xFFFFFFFFFFFFFFFFFFFFFFFFFFFFFFFFFFFFFFFF AND SWAP1 DUP1 PUSH1 0x4 ADD SLOAD SWAP1 DUP1 PUSH1 0x5 ADD SLOAD SWAP1 DUP1 PUSH1 0x6 ADD SLOAD SWAP1 DUP1 PUSH1 0x7 ADD PUSH1 0x0 SWAP1 SLOAD SWAP1 PUSH2 0x100 EXP SWAP1 DIV PUSH1 0xFF AND SWAP1 POP DUP9 JUMP JUMPDEST CALLER PUSH20 0xFFFFFFFFFFFFFFFFFFFFFFFFFFFFFFFFFFFFFFFF AND PUSH1 0x3 PUSH1 0x0 CALLER PUSH20 0xFFFFFFFFFFFFFFFFFFFFFFFFFFFFFFFFFFFFFFFF AND PUSH20 0xFFFFFFFFFFFFFFFFFFFFFFFFFFFFFFFFFFFFFFFF AND DUP2 MSTORE PUSH1 0x20 ADD SWAP1 DUP2 MSTORE PUSH1 0x20 ADD PUSH1 0x0 KECCAK256 PUSH1 0x1 ADD PUSH1 0x0 SWAP1 SLOAD SWAP1 PUSH2 0x100 EXP SWAP1 DIV PUSH20 0xFFFFFFFFFFFFFFFFFFFFFFFFFFFFFFFFFFFFFFFF AND PUSH20 0xFFFFFFFFFFFFFFFFFFFFFFFFFFFFFFFFFFFFFFFF AND EQ PUSH2 0xA65 JUMPI PUSH1 0x0 DUP1 REVERT JUMPDEST PUSH1 0x64 PUSH1 0x0 DUP3 PUSH1 0x40 MLOAD PUSH2 0xA77 SWAP2 SWAP1 PUSH2 0x18ED JUMP JUMPDEST SWAP1 DUP2 MSTORE PUSH1 0x20 ADD PUSH1 0x40 MLOAD DUP1 SWAP2 SUB SWAP1 KECCAK256 PUSH1 0x4 ADD SLOAD PUSH2 0xA93 SWAP2 SWAP1 PUSH2 0x1CA0 JUMP JUMPDEST TIMESTAMP GT PUSH2 0xA9E JUMPI PUSH1 0x0 DUP1 REVERT JUMPDEST PUSH1 0xA PUSH1 0x7 PUSH1 0x2 SLOAD PUSH2 0xAAF SWAP2 SWAP1 PUSH2 0x1CD4 JUMP JUMPDEST PUSH2 0xAB9 SWAP2 SWAP1 PUSH2 0x1D45 JUMP JUMPDEST PUSH1 0x0 DUP3 PUSH1 0x40 MLOAD PUSH2 0xAC9 SWAP2 SWAP1 PUSH2 0x18ED JUMP JUMPDEST SWAP1 DUP2 MSTORE PUSH1 0x20 ADD PUSH1 0x40 MLOAD DUP1 SWAP2 SUB SWAP1 KECCAK256 PUSH1 0x6 ADD SLOAD PUSH1 0x0 DUP4 PUSH1 0x40 MLOAD PUSH2 0xAEB SWAP2 SWAP1 PUSH2 0x18ED JUMP JUMPDEST SWAP1 DUP2 MSTORE PUSH1 0x20 ADD PUSH1 0x40 MLOAD DUP1 SWAP2 SUB SWAP1 KECCAK256 PUSH1 0x5 ADD SLOAD PUSH2 0xB07 SWAP2 SWAP1 PUSH2 0x1CA0 JUMP JUMPDEST GT DUP1 ISZERO PUSH2 0xB99 JUMPI POP PUSH1 0x42 PUSH1 0x0 DUP3 PUSH1 0x40 MLOAD PUSH2 0xB21 SWAP2 SWAP1 PUSH2 0x18ED JUMP JUMPDEST SWAP1 DUP2 MSTORE PUSH1 0x20 ADD PUSH1 0x40 MLOAD DUP1 SWAP2 SUB SWAP1 KECCAK256 PUSH1 0x6 ADD SLOAD PUSH1 0x0 DUP4 PUSH1 0x40 MLOAD PUSH2 0xB43 SWAP2 SWAP1 PUSH2 0x18ED JUMP JUMPDEST SWAP1 DUP2 MSTORE PUSH1 0x20 ADD PUSH1 0x40 MLOAD DUP1 SWAP2 SUB SWAP1 KECCAK256 PUSH1 0x5 ADD SLOAD PUSH2 0xB5F SWAP2 SWAP1 PUSH2 0x1CA0 JUMP JUMPDEST PUSH1 0x64 PUSH1 0x0 DUP5 PUSH1 0x40 MLOAD PUSH2 0xB71 SWAP2 SWAP1 PUSH2 0x18ED JUMP JUMPDEST SWAP1 DUP2 MSTORE PUSH1 0x20 ADD PUSH1 0x40 MLOAD DUP1 SWAP2 SUB SWAP1 KECCAK256 PUSH1 0x5 ADD SLOAD PUSH2 0xB8D SWAP2 SWAP1 PUSH2 0x1CD4 JUMP JUMPDEST PUSH2 0xB97 SWAP2 SWAP1 PUSH2 0x1D45 JUMP JUMPDEST GT JUMPDEST ISZERO PUSH2 0xBED JUMPI PUSH1 0x1 PUSH1 0x0 DUP3 PUSH1 0x40 MLOAD PUSH2 0xBB0 SWAP2 SWAP1 PUSH2 0x18ED JUMP JUMPDEST SWAP1 DUP2 MSTORE PUSH1 0x20 ADD PUSH1 0x40 MLOAD DUP1 SWAP2 SUB SWAP1 KECCAK256 PUSH1 0x7 ADD PUSH1 0x0 PUSH2 0x100 EXP DUP2 SLOAD DUP2 PUSH1 0xFF MUL NOT AND SWAP1 DUP4 PUSH1 0x2 DUP2 GT ISZERO PUSH2 0xBE3 JUMPI PUSH2 0xBE2 PUSH2 0x14A7 JUMP JUMPDEST JUMPDEST MUL OR SWAP1 SSTORE POP PUSH2 0xC38 JUMP JUMPDEST PUSH1 0x2 PUSH1 0x0 DUP3 PUSH1 0x40 MLOAD PUSH2 0xBFF SWAP2 SWAP1 PUSH2 0x18ED JUMP JUMPDEST SWAP1 DUP2 MSTORE PUSH1 0x20 ADD PUSH1 0x40 MLOAD DUP1 SWAP2 SUB SWAP1 KECCAK256 PUSH1 0x7 ADD PUSH1 0x0 PUSH2 0x100 EXP DUP2 SLOAD DUP2 PUSH1 0xFF MUL NOT AND SWAP1 DUP4 PUSH1 0x2 DUP2 GT ISZERO PUSH2 0xC32 JUMPI PUSH2 0xC31 PUSH2 0x14A7 JUMP JUMPDEST JUMPDEST MUL OR SWAP1 SSTORE POP JUMPDEST POP JUMP JUMPDEST PUSH2 0xC43 PUSH2 0x1194 JUMP JUMPDEST PUSH1 0x0 DUP4 DUP4 PUSH1 0x40 MLOAD PUSH2 0xC55 SWAP3 SWAP2 SWAP1 PUSH2 0x1989 JUMP JUMPDEST SWAP1 DUP2 MSTORE PUSH1 0x20 ADD PUSH1 0x40 MLOAD DUP1 SWAP2 SUB SWAP1 KECCAK256 PUSH1 0x3 ADD PUSH1 0x0 SWAP1 SLOAD SWAP1 PUSH2 0x100 EXP SWAP1 DIV PUSH20 0xFFFFFFFFFFFFFFFFFFFFFFFFFFFFFFFFFFFFFFFF AND PUSH20 0xFFFFFFFFFFFFFFFFFFFFFFFFFFFFFFFFFFFFFFFF AND CALLER PUSH20 0xFFFFFFFFFFFFFFFFFFFFFFFFFFFFFFFFFFFFFFFF AND EQ PUSH2 0xCF4 JUMPI PUSH1 0x40 MLOAD PUSH32 0x8C379A000000000000000000000000000000000000000000000000000000000 DUP2 MSTORE PUSH1 0x4 ADD PUSH2 0xCEB SWAP1 PUSH2 0x1DC2 JUMP JUMPDEST PUSH1 0x40 MLOAD DUP1 SWAP2 SUB SWAP1 REVERT JUMPDEST PUSH1 0x0 DUP4 DUP4 PUSH1 0x40 MLOAD PUSH2 0xD06 SWAP3 SWAP2 SWAP1 PUSH2 0x1989 JUMP JUMPDEST SWAP1 DUP2 MSTORE PUSH1 0x20 ADD PUSH1 0x40 MLOAD DUP1 SWAP2 SUB SWAP1 KECCAK256 PUSH1 0x40 MLOAD DUP1 PUSH2 0x100 ADD PUSH1 0x40 MSTORE SWAP1 DUP2 PUSH1 0x0 DUP3 ADD SLOAD DUP2 MSTORE PUSH1 0x20 ADD PUSH1 0x1 DUP3 ADD DUP1 SLOAD PUSH2 0xD3A SWAP1 PUSH2 0x1933 JUMP JUMPDEST DUP1 PUSH1 0x1F ADD PUSH1 0x20 DUP1 SWAP2 DIV MUL PUSH1 0x20 ADD PUSH1 0x40 MLOAD SWAP1 DUP2 ADD PUSH1 0x40 MSTORE DUP1 SWAP3 SWAP2 SWAP1 DUP2 DUP2 MSTORE PUSH1 0x20 ADD DUP3 DUP1 SLOAD PUSH2 0xD66 SWAP1 PUSH2 0x1933 JUMP JUMPDEST DUP1 ISZERO PUSH2 0xDB3 JUMPI DUP1 PUSH1 0x1F LT PUSH2 0xD88 JUMPI PUSH2 0x100 DUP1 DUP4 SLOAD DIV MUL DUP4 MSTORE SWAP2 PUSH1 0x20 ADD SWAP2 PUSH2 0xDB3 JUMP JUMPDEST DUP3 ADD SWAP2 SWAP1 PUSH1 0x0 MSTORE PUSH1 0x20 PUSH1 0x0 KECCAK256 SWAP1 JUMPDEST DUP2 SLOAD DUP2 MSTORE SWAP1 PUSH1 0x1 ADD SWAP1 PUSH1 0x20 ADD DUP1 DUP4 GT PUSH2 0xD96 JUMPI DUP3 SWAP1 SUB PUSH1 0x1F AND DUP3 ADD SWAP2 JUMPDEST POP POP POP POP POP DUP2 MSTORE PUSH1 0x20 ADD PUSH1 0x2 DUP3 ADD DUP1 SLOAD PUSH2 0xDCC SWAP1 PUSH2 0x1933 JUMP JUMPDEST DUP1 PUSH1 0x1F ADD PUSH1 0x20 DUP1 SWAP2 DIV MUL PUSH1 0x20 ADD PUSH1 0x40 MLOAD SWAP1 DUP2 ADD PUSH1 0x40 MSTORE DUP1 SWAP3 SWAP2 SWAP1 DUP2 DUP2 MSTORE PUSH1 0x20 ADD DUP3 DUP1 SLOAD PUSH2 0xDF8 SWAP1 PUSH2 0x1933 JUMP JUMPDEST DUP1 ISZERO PUSH2 0xE45 JUMPI DUP1 PUSH1 0x1F LT PUSH2 0xE1A JUMPI PUSH2 0x100 DUP1 DUP4 SLOAD DIV MUL DUP4 MSTORE SWAP2 PUSH1 0x20 ADD SWAP2 PUSH2 0xE45 JUMP JUMPDEST DUP3 ADD SWAP2 SWAP1 PUSH1 0x0 MSTORE PUSH1 0x20 PUSH1 0x0 KECCAK256 SWAP1 JUMPDEST DUP2 SLOAD DUP2 MSTORE SWAP1 PUSH1 0x1 ADD SWAP1 PUSH1 0x20 ADD DUP1 DUP4 GT PUSH2 0xE28 JUMPI DUP3 SWAP1 SUB PUSH1 0x1F AND DUP3 ADD SWAP2 JUMPDEST POP POP POP POP POP DUP2 MSTORE PUSH1 0x20 ADD PUSH1 0x3 DUP3 ADD PUSH1 0x0 SWAP1 SLOAD SWAP1 PUSH2 0x100 EXP SWAP1 DIV PUSH20 0xFFFFFFFFFFFFFFFFFFFFFFFFFFFFFFFFFFFFFFFF AND PUSH20 0xFFFFFFFFFFFFFFFFFFFFFFFFFFFFFFFFFFFFFFFF AND PUSH20 0xFFFFFFFFFFFFFFFFFFFFFFFFFFFFFFFFFFFFFFFF AND DUP2 MSTORE PUSH1 0x20 ADD PUSH1 0x4 DUP3 ADD SLOAD DUP2 MSTORE PUSH1 0x20 ADD PUSH1 0x5 DUP3 ADD SLOAD DUP2 MSTORE PUSH1 0x20 ADD PUSH1 0x6 DUP3 ADD SLOAD DUP2 MSTORE PUSH1 0x20 ADD PUSH1 0x7 DUP3 ADD PUSH1 0x0 SWAP1 SLOAD SWAP1 PUSH2 0x100 EXP SWAP1 DIV PUSH1 0xFF AND PUSH1 0x2 DUP2 GT ISZERO PUSH2 0xEE7 JUMPI PUSH2 0xEE6 PUSH2 0x14A7 JUMP JUMPDEST JUMPDEST PUSH1 0x2 DUP2 GT ISZERO PUSH2 0xEF9 JUMPI PUSH2 0xEF8 PUSH2 0x14A7 JUMP JUMPDEST JUMPDEST DUP2 MSTORE POP POP SWAP1 POP SWAP3 SWAP2 POP POP JUMP JUMPDEST CALLER PUSH20 0xFFFFFFFFFFFFFFFFFFFFFFFFFFFFFFFFFFFFFFFF AND PUSH1 0x3 PUSH1 0x0 CALLER PUSH20 0xFFFFFFFFFFFFFFFFFFFFFFFFFFFFFFFFFFFFFFFF AND PUSH20 0xFFFFFFFFFFFFFFFFFFFFFFFFFFFFFFFFFFFFFFFF AND DUP2 MSTORE PUSH1 0x20 ADD SWAP1 DUP2 MSTORE PUSH1 0x20 ADD PUSH1 0x0 KECCAK256 PUSH1 0x1 ADD PUSH1 0x0 SWAP1 SLOAD SWAP1 PUSH2 0x100 EXP SWAP1 DIV PUSH20 0xFFFFFFFFFFFFFFFFFFFFFFFFFFFFFFFFFFFFFFFF AND PUSH20 0xFFFFFFFFFFFFFFFFFFFFFFFFFFFFFFFFFFFFFFFF AND EQ PUSH2 0xF9F JUMPI PUSH1 0x0 DUP1 REVERT JUMPDEST PUSH1 0x40 MLOAD DUP1 PUSH2 0x100 ADD PUSH1 0x40 MSTORE DUP1 PUSH1 0x1 PUSH1 0x0 DUP2 SLOAD PUSH2 0xFBA SWAP1 PUSH2 0x19D1 JUMP JUMPDEST SWAP2 SWAP1 POP DUP2 SWAP1 SSTORE DUP2 MSTORE PUSH1 0x20 ADD DUP6 DUP6 DUP1 DUP1 PUSH1 0x1F ADD PUSH1 0x20 DUP1 SWAP2 DIV MUL PUSH1 0x20 ADD PUSH1 0x40 MLOAD SWAP1 DUP2 ADD PUSH1 0x40 MSTORE DUP1 SWAP4 SWAP3 SWAP2 SWAP1 DUP2 DUP2 MSTORE PUSH1 0x20 ADD DUP4 DUP4 DUP1 DUP3 DUP5 CALLDATACOPY PUSH1 0x0 DUP2 DUP5 ADD MSTORE PUSH1 0x1F NOT PUSH1 0x1F DUP3 ADD AND SWAP1 POP DUP1 DUP4 ADD SWAP3 POP POP POP POP POP POP POP DUP2 MSTORE PUSH1 0x20 ADD DUP4 DUP4 DUP1 DUP1 PUSH1 0x1F ADD PUSH1 0x20 DUP1 SWAP2 DIV MUL PUSH1 0x20 ADD PUSH1 0x40 MLOAD SWAP1 DUP2 ADD PUSH1 0x40 MSTORE DUP1 SWAP4 SWAP3 SWAP2 SWAP1 DUP2 DUP2 MSTORE PUSH1 0x20 ADD DUP4 DUP4 DUP1 DUP3 DUP5 CALLDATACOPY PUSH1 0x0 DUP2 DUP5 ADD MSTORE PUSH1 0x1F NOT PUSH1 0x1F DUP3 ADD AND SWAP1 POP DUP1 DUP4 ADD SWAP3 POP POP POP POP POP POP POP DUP2 MSTORE PUSH1 0x20 ADD CALLER PUSH20 0xFFFFFFFFFFFFFFFFFFFFFFFFFFFFFFFFFFFFFFFF AND DUP2 MSTORE PUSH1 0x20 ADD TIMESTAMP DUP2 MSTORE PUSH1 0x20 ADD PUSH1 0x0 DUP2 MSTORE PUSH1 0x20 ADD PUSH1 0x0 DUP2 MSTORE PUSH1 0x20 ADD PUSH1 0x0 PUSH1 0x2 DUP2 GT ISZERO PUSH2 0x109D JUMPI PUSH2 0x109C PUSH2 0x14A7 JUMP JUMPDEST JUMPDEST DUP2 MSTORE POP PUSH1 0x0 DUP6 DUP6 PUSH1 0x40 MLOAD PUSH2 0x10B2 SWAP3 SWAP2 SWAP1 PUSH2 0x1989 JUMP JUMPDEST SWAP1 DUP2 MSTORE PUSH1 0x20 ADD PUSH1 0x40 MLOAD DUP1 SWAP2 SUB SWAP1 KECCAK256 PUSH1 0x0 DUP3 ADD MLOAD DUP2 PUSH1 0x0 ADD SSTORE PUSH1 0x20 DUP3 ADD MLOAD DUP2 PUSH1 0x1 ADD SWAP1 DUP2 PUSH2 0x10DF SWAP2 SWAP1 PUSH2 0x1DE2 JUMP JUMPDEST POP PUSH1 0x40 DUP3 ADD MLOAD DUP2 PUSH1 0x2 ADD SWAP1 DUP2 PUSH2 0x10F5 SWAP2 SWAP1 PUSH2 0x1DE2 JUMP JUMPDEST POP PUSH1 0x60 DUP3 ADD MLOAD DUP2 PUSH1 0x3 ADD PUSH1 0x0 PUSH2 0x100 EXP DUP2 SLOAD DUP2 PUSH20 0xFFFFFFFFFFFFFFFFFFFFFFFFFFFFFFFFFFFFFFFF MUL NOT AND SWAP1 DUP4 PUSH20 0xFFFFFFFFFFFFFFFFFFFFFFFFFFFFFFFFFFFFFFFF AND MUL OR SWAP1 SSTORE POP PUSH1 0x80 DUP3 ADD MLOAD DUP2 PUSH1 0x4 ADD SSTORE PUSH1 0xA0 DUP3 ADD MLOAD DUP2 PUSH1 0x5 ADD SSTORE PUSH1 0xC0 DUP3 ADD MLOAD DUP2 PUSH1 0x6 ADD SSTORE PUSH1 0xE0 DUP3 ADD MLOAD DUP2 PUSH1 0x7 ADD PUSH1 0x0 PUSH2 0x100 EXP DUP2 SLOAD DUP2 PUSH1 0xFF MUL NOT AND SWAP1 DUP4 PUSH1 0x2 DUP2 GT ISZERO PUSH2 0x1186 JUMPI PUSH2 0x1185 PUSH2 0x14A7 JUMP JUMPDEST JUMPDEST MUL OR SWAP1 SSTORE POP SWAP1 POP POP POP POP POP POP JUMP JUMPDEST PUSH1 0x40 MLOAD DUP1 PUSH2 0x100 ADD PUSH1 0x40 MSTORE DUP1 PUSH1 0x0 DUP2 MSTORE PUSH1 0x20 ADD PUSH1 0x60 DUP2 MSTORE PUSH1 0x20 ADD PUSH1 0x60 DUP2 MSTORE PUSH1 0x20 ADD PUSH1 0x0 PUSH20 0xFFFFFFFFFFFFFFFFFFFFFFFFFFFFFFFFFFFFFFFF AND DUP2 MSTORE PUSH1 0x20 ADD PUSH1 0x0 DUP2 MSTORE PUSH1 0x20 ADD PUSH1 0x0 DUP2 MSTORE PUSH1 0x20 ADD PUSH1 0x0 DUP2 MSTORE PUSH1 0x20 ADD PUSH1 0x0 PUSH1 0x2 DUP2 GT ISZERO PUSH2 0x11FB JUMPI PUSH2 0x11FA PUSH2 0x14A7 JUMP JUMPDEST JUMPDEST DUP2 MSTORE POP SWAP1 JUMP JUMPDEST PUSH1 0x0 DUP2 SWAP1 POP SWAP2 SWAP1 POP JUMP JUMPDEST PUSH2 0x1214 DUP2 PUSH2 0x1201 JUMP JUMPDEST DUP3 MSTORE POP POP JUMP JUMPDEST PUSH1 0x0 PUSH1 0x20 DUP3 ADD SWAP1 POP PUSH2 0x122F PUSH1 0x0 DUP4 ADD DUP5 PUSH2 0x120B JUMP JUMPDEST SWAP3 SWAP2 POP POP JUMP JUMPDEST PUSH1 0x0 PUSH1 0x40 MLOAD SWAP1 POP SWAP1 JUMP JUMPDEST PUSH1 0x0 DUP1 REVERT JUMPDEST PUSH1 0x0 DUP1 REVERT JUMPDEST PUSH1 0x0 DUP1 REVERT JUMPDEST PUSH1 0x0 DUP1 REVERT JUMPDEST PUSH1 0x0 PUSH1 0x1F NOT PUSH1 0x1F DUP4 ADD AND SWAP1 POP SWAP2 SWAP1 POP JUMP JUMPDEST PUSH32 0x4E487B7100000000000000000000000000000000000000000000000000000000 PUSH1 0x0 MSTORE PUSH1 0x41 PUSH1 0x4 MSTORE PUSH1 0x24 PUSH1 0x0 REVERT JUMPDEST PUSH2 0x129C DUP3 PUSH2 0x1253 JUMP JUMPDEST DUP2 ADD DUP2 DUP2 LT PUSH8 0xFFFFFFFFFFFFFFFF DUP3 GT OR ISZERO PUSH2 0x12BB JUMPI PUSH2 0x12BA PUSH2 0x1264 JUMP JUMPDEST JUMPDEST DUP1 PUSH1 0x40 MSTORE POP POP POP JUMP JUMPDEST PUSH1 0x0 PUSH2 0x12CE PUSH2 0x1235 JUMP JUMPDEST SWAP1 POP PUSH2 0x12DA DUP3 DUP3 PUSH2 0x1293 JUMP JUMPDEST SWAP2 SWAP1 POP JUMP JUMPDEST PUSH1 0x0 PUSH8 0xFFFFFFFFFFFFFFFF DUP3 GT ISZERO PUSH2 0x12FA JUMPI PUSH2 0x12F9 PUSH2 0x1264 JUMP JUMPDEST JUMPDEST PUSH2 0x1303 DUP3 PUSH2 0x1253 JUMP JUMPDEST SWAP1 POP PUSH1 0x20 DUP2 ADD SWAP1 POP SWAP2 SWAP1 POP JUMP JUMPDEST DUP3 DUP2 DUP4 CALLDATACOPY PUSH1 0x0 DUP4 DUP4 ADD MSTORE POP POP POP JUMP JUMPDEST PUSH1 0x0 PUSH2 0x1332 PUSH2 0x132D DUP5 PUSH2 0x12DF JUMP JUMPDEST PUSH2 0x12C4 JUMP JUMPDEST SWAP1 POP DUP3 DUP2 MSTORE PUSH1 0x20 DUP2 ADD DUP5 DUP5 DUP5 ADD GT ISZERO PUSH2 0x134E JUMPI PUSH2 0x134D PUSH2 0x124E JUMP JUMPDEST JUMPDEST PUSH2 0x1359 DUP5 DUP3 DUP6 PUSH2 0x1310 JUMP JUMPDEST POP SWAP4 SWAP3 POP POP POP JUMP JUMPDEST PUSH1 0x0 DUP3 PUSH1 0x1F DUP4 ADD SLT PUSH2 0x1376 JUMPI PUSH2 0x1375 PUSH2 0x1249 JUMP JUMPDEST JUMPDEST DUP2 CALLDATALOAD PUSH2 0x1386 DUP5 DUP3 PUSH1 0x20 DUP7 ADD PUSH2 0x131F JUMP JUMPDEST SWAP2 POP POP SWAP3 SWAP2 POP POP JUMP JUMPDEST PUSH1 0x0 PUSH1 0x20 DUP3 DUP5 SUB SLT ISZERO PUSH2 0x13A5 JUMPI PUSH2 0x13A4 PUSH2 0x123F JUMP JUMPDEST JUMPDEST PUSH1 0x0 DUP3 ADD CALLDATALOAD PUSH8 0xFFFFFFFFFFFFFFFF DUP2 GT ISZERO PUSH2 0x13C3 JUMPI PUSH2 0x13C2 PUSH2 0x1244 JUMP JUMPDEST JUMPDEST PUSH2 0x13CF DUP5 DUP3 DUP6 ADD PUSH2 0x1361 JUMP JUMPDEST SWAP2 POP POP SWAP3 SWAP2 POP POP JUMP JUMPDEST PUSH2 0x13E1 DUP2 PUSH2 0x1201 JUMP JUMPDEST DUP3 MSTORE POP POP JUMP JUMPDEST PUSH1 0x0 DUP2 MLOAD SWAP1 POP SWAP2 SWAP1 POP JUMP JUMPDEST PUSH1 0x0 DUP3 DUP3 MSTORE PUSH1 0x20 DUP3 ADD SWAP1 POP SWAP3 SWAP2 POP POP JUMP JUMPDEST PUSH1 0x0 JUMPDEST DUP4 DUP2 LT ISZERO PUSH2 0x1421 JUMPI DUP1 DUP3 ADD MLOAD DUP2 DUP5 ADD MSTORE PUSH1 0x20 DUP2 ADD SWAP1 POP PUSH2 0x1406 JUMP JUMPDEST PUSH1 0x0 DUP5 DUP5 ADD MSTORE POP POP POP POP JUMP JUMPDEST PUSH1 0x0 PUSH2 0x1438 DUP3 PUSH2 0x13E7 JUMP JUMPDEST PUSH2 0x1442 DUP2 DUP6 PUSH2 0x13F2 JUMP JUMPDEST SWAP4 POP PUSH2 0x1452 DUP2 DUP6 PUSH1 0x20 DUP7 ADD PUSH2 0x1403 JUMP JUMPDEST PUSH2 0x145B DUP2 PUSH2 0x1253 JUMP JUMPDEST DUP5 ADD SWAP2 POP POP SWAP3 SWAP2 POP POP JUMP JUMPDEST PUSH1 0x0 PUSH20 0xFFFFFFFFFFFFFFFFFFFFFFFFFFFFFFFFFFFFFFFF DUP3 AND SWAP1 POP SWAP2 SWAP1 POP JUMP JUMPDEST PUSH1 0x0 PUSH2 0x1491 DUP3 PUSH2 0x1466 JUMP JUMPDEST SWAP1 POP SWAP2 SWAP1 POP JUMP JUMPDEST PUSH2 0x14A1 DUP2 PUSH2 0x1486 JUMP JUMPDEST DUP3 MSTORE POP POP JUMP JUMPDEST PUSH32 0x4E487B7100000000000000000000000000000000000000000000000000000000 PUSH1 0x0 MSTORE PUSH1 0x21 PUSH1 0x4 MSTORE PUSH1 0x24 PUSH1 0x0 REVERT JUMPDEST PUSH1 0x3 DUP2 LT PUSH2 0x14E7 JUMPI PUSH2 0x14E6 PUSH2 0x14A7 JUMP JUMPDEST JUMPDEST POP JUMP JUMPDEST PUSH1 0x0 DUP2 SWAP1 POP PUSH2 0x14F8 DUP3 PUSH2 0x14D6 JUMP JUMPDEST SWAP2 SWAP1 POP JUMP JUMPDEST PUSH1 0x0 PUSH2 0x1508 DUP3 PUSH2 0x14EA JUMP JUMPDEST SWAP1 POP SWAP2 SWAP1 POP JUMP JUMPDEST PUSH2 0x1518 DUP2 PUSH2 0x14FD JUMP JUMPDEST DUP3 MSTORE POP POP JUMP JUMPDEST PUSH1 0x0 PUSH2 0x100 DUP4 ADD PUSH1 0x0 DUP4 ADD MLOAD PUSH2 0x1537 PUSH1 0x0 DUP7 ADD DUP3 PUSH2 0x13D8 JUMP JUMPDEST POP PUSH1 0x20 DUP4 ADD MLOAD DUP5 DUP3 SUB PUSH1 0x20 DUP7 ADD MSTORE PUSH2 0x154F DUP3 DUP3 PUSH2 0x142D JUMP JUMPDEST SWAP2 POP POP PUSH1 0x40 DUP4 ADD MLOAD DUP5 DUP3 SUB PUSH1 0x40 DUP7 ADD MSTORE PUSH2 0x1569 DUP3 DUP3 PUSH2 0x142D JUMP JUMPDEST SWAP2 POP POP PUSH1 0x60 DUP4 ADD MLOAD PUSH2 0x157E PUSH1 0x60 DUP7 ADD DUP3 PUSH2 0x1498 JUMP JUMPDEST POP PUSH1 0x80 DUP4 ADD MLOAD PUSH2 0x1591 PUSH1 0x80 DUP7 ADD DUP3 PUSH2 0x13D8 JUMP JUMPDEST POP PUSH1 0xA0 DUP4 ADD MLOAD PUSH2 0x15A4 PUSH1 0xA0 DUP7 ADD DUP3 PUSH2 0x13D8 JUMP JUMPDEST POP PUSH1 0xC0 DUP4 ADD MLOAD PUSH2 0x15B7 PUSH1 0xC0 DUP7 ADD DUP3 PUSH2 0x13D8 JUMP JUMPDEST POP PUSH1 0xE0 DUP4 ADD MLOAD PUSH2 0x15CA PUSH1 0xE0 DUP7 ADD DUP3 PUSH2 0x150F JUMP JUMPDEST POP DUP1 SWAP2 POP POP SWAP3 SWAP2 POP POP JUMP JUMPDEST PUSH1 0x0 PUSH1 0x20 DUP3 ADD SWAP1 POP DUP2 DUP2 SUB PUSH1 0x0 DUP4 ADD MSTORE PUSH2 0x15EF DUP2 DUP5 PUSH2 0x151E JUMP JUMPDEST SWAP1 POP SWAP3 SWAP2 POP POP JUMP JUMPDEST PUSH1 0x0 DUP1 REVERT JUMPDEST PUSH1 0x0 DUP1 REVERT JUMPDEST PUSH1 0x0 DUP1 DUP4 PUSH1 0x1F DUP5 ADD SLT PUSH2 0x1617 JUMPI PUSH2 0x1616 PUSH2 0x1249 JUMP JUMPDEST JUMPDEST DUP3 CALLDATALOAD SWAP1 POP PUSH8 0xFFFFFFFFFFFFFFFF DUP2 GT ISZERO PUSH2 0x1634 JUMPI PUSH2 0x1633 PUSH2 0x15F7 JUMP JUMPDEST JUMPDEST PUSH1 0x20 DUP4 ADD SWAP2 POP DUP4 PUSH1 0x1 DUP3 MUL DUP4 ADD GT ISZERO PUSH2 0x1650 JUMPI PUSH2 0x164F PUSH2 0x15FC JUMP JUMPDEST JUMPDEST SWAP3 POP SWAP3 SWAP1 POP JUMP JUMPDEST PUSH1 0x0 DUP2 ISZERO ISZERO SWAP1 POP SWAP2 SWAP1 POP JUMP JUMPDEST PUSH2 0x166C DUP2 PUSH2 0x1657 JUMP JUMPDEST DUP2 EQ PUSH2 0x1677 JUMPI PUSH1 0x0 DUP1 REVERT JUMPDEST POP JUMP JUMPDEST PUSH1 0x0 DUP2 CALLDATALOAD SWAP1 POP PUSH2 0x1689 DUP2 PUSH2 0x1663 JUMP JUMPDEST SWAP3 SWAP2 POP POP JUMP JUMPDEST PUSH1 0x0 DUP1 PUSH1 0x0 PUSH1 0x40 DUP5 DUP7 SUB SLT ISZERO PUSH2 0x16A8 JUMPI PUSH2 0x16A7 PUSH2 0x123F JUMP JUMPDEST JUMPDEST PUSH1 0x0 DUP5 ADD CALLDATALOAD PUSH8 0xFFFFFFFFFFFFFFFF DUP2 GT ISZERO PUSH2 0x16C6 JUMPI PUSH2 0x16C5 PUSH2 0x1244 JUMP JUMPDEST JUMPDEST PUSH2 0x16D2 DUP7 DUP3 DUP8 ADD PUSH2 0x1601 JUMP JUMPDEST SWAP4 POP SWAP4 POP POP PUSH1 0x20 PUSH2 0x16E5 DUP7 DUP3 DUP8 ADD PUSH2 0x167A JUMP JUMPDEST SWAP2 POP POP SWAP3 POP SWAP3 POP SWAP3 JUMP JUMPDEST PUSH1 0x0 DUP1 PUSH1 0x20 DUP4 DUP6 SUB SLT ISZERO PUSH2 0x1706 JUMPI PUSH2 0x1705 PUSH2 0x123F JUMP JUMPDEST JUMPDEST PUSH1 0x0 DUP4 ADD CALLDATALOAD PUSH8 0xFFFFFFFFFFFFFFFF DUP2 GT ISZERO PUSH2 0x1724 JUMPI PUSH2 0x1723 PUSH2 0x1244 JUMP JUMPDEST JUMPDEST PUSH2 0x1730 DUP6 DUP3 DUP7 ADD PUSH2 0x1601 JUMP JUMPDEST SWAP3 POP SWAP3 POP POP SWAP3 POP SWAP3 SWAP1 POP JUMP JUMPDEST PUSH1 0x0 DUP3 DUP3 MSTORE PUSH1 0x20 DUP3 ADD SWAP1 POP SWAP3 SWAP2 POP POP JUMP JUMPDEST PUSH1 0x0 PUSH2 0x1758 DUP3 PUSH2 0x13E7 JUMP JUMPDEST PUSH2 0x1762 DUP2 DUP6 PUSH2 0x173C JUMP JUMPDEST SWAP4 POP PUSH2 0x1772 DUP2 DUP6 PUSH1 0x20 DUP7 ADD PUSH2 0x1403 JUMP JUMPDEST PUSH2 0x177B DUP2 PUSH2 0x1253 JUMP JUMPDEST DUP5 ADD SWAP2 POP POP SWAP3 SWAP2 POP POP JUMP JUMPDEST PUSH2 0x178F DUP2 PUSH2 0x1486 JUMP JUMPDEST DUP3 MSTORE POP POP JUMP JUMPDEST PUSH2 0x179E DUP2 PUSH2 0x14FD JUMP JUMPDEST DUP3 MSTORE POP POP JUMP JUMPDEST PUSH1 0x0 PUSH2 0x100 DUP3 ADD SWAP1 POP PUSH2 0x17BA PUSH1 0x0 DUP4 ADD DUP12 PUSH2 0x120B JUMP JUMPDEST DUP2 DUP2 SUB PUSH1 0x20 DUP4 ADD MSTORE PUSH2 0x17CC DUP2 DUP11 PUSH2 0x174D JUMP JUMPDEST SWAP1 POP DUP2 DUP2 SUB PUSH1 0x40 DUP4 ADD MSTORE PUSH2 0x17E0 DUP2 DUP10 PUSH2 0x174D JUMP JUMPDEST SWAP1 POP PUSH2 0x17EF PUSH1 0x60 DUP4 ADD DUP9 PUSH2 0x1786 JUMP JUMPDEST PUSH2 0x17FC PUSH1 0x80 DUP4 ADD DUP8 PUSH2 0x120B JUMP JUMPDEST PUSH2 0x1809 PUSH1 0xA0 DUP4 ADD DUP7 PUSH2 0x120B JUMP JUMPDEST PUSH2 0x1816 PUSH1 0xC0 DUP4 ADD DUP6 PUSH2 0x120B JUMP JUMPDEST PUSH2 0x1823 PUSH1 0xE0 DUP4 ADD DUP5 PUSH2 0x1795 JUMP JUMPDEST SWAP10 SWAP9 POP POP POP POP POP POP POP POP POP JUMP JUMPDEST PUSH1 0x0 DUP1 PUSH1 0x0 DUP1 PUSH1 0x40 DUP6 DUP8 SUB SLT ISZERO PUSH2 0x184A JUMPI PUSH2 0x1849 PUSH2 0x123F JUMP JUMPDEST JUMPDEST PUSH1 0x0 DUP6 ADD CALLDATALOAD PUSH8 0xFFFFFFFFFFFFFFFF DUP2 GT ISZERO PUSH2 0x1868 JUMPI PUSH2 0x1867 PUSH2 0x1244 JUMP JUMPDEST JUMPDEST PUSH2 0x1874 DUP8 DUP3 DUP9 ADD PUSH2 0x1601 JUMP JUMPDEST SWAP5 POP SWAP5 POP POP PUSH1 0x20 DUP6 ADD CALLDATALOAD PUSH8 0xFFFFFFFFFFFFFFFF DUP2 GT ISZERO PUSH2 0x1897 JUMPI PUSH2 0x1896 PUSH2 0x1244 JUMP JUMPDEST JUMPDEST PUSH2 0x18A3 DUP8 DUP3 DUP9 ADD PUSH2 0x1601 JUMP JUMPDEST SWAP3 POP SWAP3 POP POP SWAP3 SWAP6 SWAP2 SWAP5 POP SWAP3 POP JUMP JUMPDEST PUSH1 0x0 DUP2 SWAP1 POP SWAP3 SWAP2 POP POP JUMP JUMPDEST PUSH1 0x0 PUSH2 0x18C7 DUP3 PUSH2 0x13E7 JUMP JUMPDEST PUSH2 0x18D1 DUP2 DUP6 PUSH2 0x18B1 JUMP JUMPDEST SWAP4 POP PUSH2 0x18E1 DUP2 DUP6 PUSH1 0x20 DUP7 ADD PUSH2 0x1403 JUMP JUMPDEST DUP1 DUP5 ADD SWAP2 POP POP SWAP3 SWAP2 POP POP JUMP JUMPDEST PUSH1 0x0 PUSH2 0x18F9 DUP3 DUP5 PUSH2 0x18BC JUMP JUMPDEST SWAP2 POP DUP2 SWAP1 POP SWAP3 SWAP2 POP POP JUMP JUMPDEST PUSH32 0x4E487B7100000000000000000000000000000000000000000000000000000000 PUSH1 0x0 MSTORE PUSH1 0x22 PUSH1 0x4 MSTORE PUSH1 0x24 PUSH1 0x0 REVERT JUMPDEST PUSH1 0x0 PUSH1 0x2 DUP3 DIV SWAP1 POP PUSH1 0x1 DUP3 AND DUP1 PUSH2 0x194B JUMPI PUSH1 0x7F DUP3 AND SWAP2 POP JUMPDEST PUSH1 0x20 DUP3 LT DUP2 SUB PUSH2 0x195E JUMPI PUSH2 0x195D PUSH2 0x1904 JUMP JUMPDEST JUMPDEST POP SWAP2 SWAP1 POP JUMP JUMPDEST PUSH1 0x0 PUSH2 0x1970 DUP4 DUP6 PUSH2 0x18B1 JUMP JUMPDEST SWAP4 POP PUSH2 0x197D DUP4 DUP6 DUP5 PUSH2 0x1310 JUMP JUMPDEST DUP3 DUP5 ADD SWAP1 POP SWAP4 SWAP3 POP POP POP JUMP JUMPDEST PUSH1 0x0 PUSH2 0x1996 DUP3 DUP5 DUP7 PUSH2 0x1964 JUMP JUMPDEST SWAP2 POP DUP2 SWAP1 POP SWAP4 SWAP3 POP POP POP JUMP JUMPDEST PUSH32 0x4E487B7100000000000000000000000000000000000000000000000000000000 PUSH1 0x0 MSTORE PUSH1 0x11 PUSH1 0x4 MSTORE PUSH1 0x24 PUSH1 0x0 REVERT JUMPDEST PUSH1 0x0 PUSH2 0x19DC DUP3 PUSH2 0x1201 JUMP JUMPDEST SWAP2 POP PUSH32 0xFFFFFFFFFFFFFFFFFFFFFFFFFFFFFFFFFFFFFFFFFFFFFFFFFFFFFFFFFFFFFFFF DUP3 SUB PUSH2 0x1A0E JUMPI PUSH2 0x1A0D PUSH2 0x19A2 JUMP JUMPDEST JUMPDEST PUSH1 0x1 DUP3 ADD SWAP1 POP SWAP2 SWAP1 POP JUMP JUMPDEST PUSH1 0x0 DUP3 SWAP1 POP SWAP3 SWAP2 POP POP JUMP JUMPDEST PUSH1 0x0 DUP2 SWAP1 POP DUP2 PUSH1 0x0 MSTORE PUSH1 0x20 PUSH1 0x0 KECCAK256 SWAP1 POP SWAP2 SWAP1 POP JUMP JUMPDEST PUSH1 0x0 PUSH1 0x20 PUSH1 0x1F DUP4 ADD DIV SWAP1 POP SWAP2 SWAP1 POP JUMP JUMPDEST PUSH1 0x0 DUP3 DUP3 SHL SWAP1 POP SWAP3 SWAP2 POP POP JUMP JUMPDEST PUSH1 0x0 PUSH1 0x8 DUP4 MUL PUSH2 0x1A86 PUSH32 0xFFFFFFFFFFFFFFFFFFFFFFFFFFFFFFFFFFFFFFFFFFFFFFFFFFFFFFFFFFFFFFFF DUP3 PUSH2 0x1A49 JUMP JUMPDEST PUSH2 0x1A90 DUP7 DUP4 PUSH2 0x1A49 JUMP JUMPDEST SWAP6 POP DUP1 NOT DUP5 AND SWAP4 POP DUP1 DUP7 AND DUP5 OR SWAP3 POP POP POP SWAP4 SWAP3 POP POP POP JUMP JUMPDEST PUSH1 0x0 DUP2 SWAP1 POP SWAP2 SWAP1 POP JUMP JUMPDEST PUSH1 0x0 PUSH2 0x1ACD PUSH2 0x1AC8 PUSH2 0x1AC3 DUP5 PUSH2 0x1201 JUMP JUMPDEST PUSH2 0x1AA8 JUMP JUMPDEST PUSH2 0x1201 JUMP JUMPDEST SWAP1 POP SWAP2 SWAP1 POP JUMP JUMPDEST PUSH1 0x0 DUP2 SWAP1 POP SWAP2 SWAP1 POP JUMP JUMPDEST PUSH2 0x1AE7 DUP4 PUSH2 0x1AB2 JUMP JUMPDEST PUSH2 0x1AFB PUSH2 0x1AF3 DUP3 PUSH2 0x1AD4 JUMP JUMPDEST DUP5 DUP5 SLOAD PUSH2 0x1A56 JUMP JUMPDEST DUP3 SSTORE POP POP POP POP JUMP JUMPDEST PUSH1 0x0 SWAP1 JUMP JUMPDEST PUSH2 0x1B10 PUSH2 0x1B03 JUMP JUMPDEST PUSH2 0x1B1B DUP2 DUP5 DUP5 PUSH2 0x1ADE JUMP JUMPDEST POP POP POP JUMP JUMPDEST JUMPDEST DUP2 DUP2 LT ISZERO PUSH2 0x1B3F JUMPI PUSH2 0x1B34 PUSH1 0x0 DUP3 PUSH2 0x1B08 JUMP JUMPDEST PUSH1 0x1 DUP2 ADD SWAP1 POP PUSH2 0x1B21 JUMP JUMPDEST POP POP JUMP JUMPDEST PUSH1 0x1F DUP3 GT ISZERO PUSH2 0x1B84 JUMPI PUSH2 0x1B55 DUP2 PUSH2 0x1A24 JUMP JUMPDEST PUSH2 0x1B5E DUP5 PUSH2 0x1A39 JUMP JUMPDEST DUP2 ADD PUSH1 0x20 DUP6 LT ISZERO PUSH2 0x1B6D JUMPI DUP2 SWAP1 POP JUMPDEST PUSH2 0x1B81 PUSH2 0x1B79 DUP6 PUSH2 0x1A39 JUMP JUMPDEST DUP4 ADD DUP3 PUSH2 0x1B20 JUMP JUMPDEST POP POP JUMPDEST POP POP POP JUMP JUMPDEST PUSH1 0x0 DUP3 DUP3 SHR SWAP1 POP SWAP3 SWAP2 POP POP JUMP JUMPDEST PUSH1 0x0 PUSH2 0x1BA7 PUSH1 0x0 NOT DUP5 PUSH1 0x8 MUL PUSH2 0x1B89 JUMP JUMPDEST NOT DUP1 DUP4 AND SWAP2 POP POP SWAP3 SWAP2 POP POP JUMP JUMPDEST PUSH1 0x0 PUSH2 0x1BC0 DUP4 DUP4 PUSH2 0x1B96 JUMP JUMPDEST SWAP2 POP DUP3 PUSH1 0x2 MUL DUP3 OR SWAP1 POP SWAP3 SWAP2 POP POP JUMP JUMPDEST PUSH2 0x1BDA DUP4 DUP4 PUSH2 0x1A19 JUMP JUMPDEST PUSH8 0xFFFFFFFFFFFFFFFF DUP2 GT ISZERO PUSH2 0x1BF3 JUMPI PUSH2 0x1BF2 PUSH2 0x1264 JUMP JUMPDEST JUMPDEST PUSH2 0x1BFD DUP3 SLOAD PUSH2 0x1933 JUMP JUMPDEST PUSH2 0x1C08 DUP3 DUP3 DUP6 PUSH2 0x1B43 JUMP JUMPDEST PUSH1 0x0 PUSH1 0x1F DUP4 GT PUSH1 0x1 DUP2 EQ PUSH2 0x1C37 JUMPI PUSH1 0x0 DUP5 ISZERO PUSH2 0x1C25 JUMPI DUP3 DUP8 ADD CALLDATALOAD SWAP1 POP JUMPDEST PUSH2 0x1C2F DUP6 DUP3 PUSH2 0x1BB4 JUMP JUMPDEST DUP7 SSTORE POP PUSH2 0x1C97 JUMP JUMPDEST PUSH1 0x1F NOT DUP5 AND PUSH2 0x1C45 DUP7 PUSH2 0x1A24 JUMP JUMPDEST PUSH1 0x0 JUMPDEST DUP3 DUP2 LT ISZERO PUSH2 0x1C6D JUMPI DUP5 DUP10 ADD CALLDATALOAD DUP3 SSTORE PUSH1 0x1 DUP3 ADD SWAP2 POP PUSH1 0x20 DUP6 ADD SWAP5 POP PUSH1 0x20 DUP2 ADD SWAP1 POP PUSH2 0x1C48 JUMP JUMPDEST DUP7 DUP4 LT ISZERO PUSH2 0x1C8A JUMPI DUP5 DUP10 ADD CALLDATALOAD PUSH2 0x1C86 PUSH1 0x1F DUP10 AND DUP3 PUSH2 0x1B96 JUMP JUMPDEST DUP4 SSTORE POP JUMPDEST PUSH1 0x1 PUSH1 0x2 DUP9 MUL ADD DUP9 SSTORE POP POP POP JUMPDEST POP POP POP POP POP POP POP JUMP JUMPDEST PUSH1 0x0 PUSH2 0x1CAB DUP3 PUSH2 0x1201 JUMP JUMPDEST SWAP2 POP PUSH2 0x1CB6 DUP4 PUSH2 0x1201 JUMP JUMPDEST SWAP3 POP DUP3 DUP3 ADD SWAP1 POP DUP1 DUP3 GT ISZERO PUSH2 0x1CCE JUMPI PUSH2 0x1CCD PUSH2 0x19A2 JUMP JUMPDEST JUMPDEST SWAP3 SWAP2 POP POP JUMP JUMPDEST PUSH1 0x0 PUSH2 0x1CDF DUP3 PUSH2 0x1201 JUMP JUMPDEST SWAP2 POP PUSH2 0x1CEA DUP4 PUSH2 0x1201 JUMP JUMPDEST SWAP3 POP DUP3 DUP3 MUL PUSH2 0x1CF8 DUP2 PUSH2 0x1201 JUMP JUMPDEST SWAP2 POP DUP3 DUP3 DIV DUP5 EQ DUP4 ISZERO OR PUSH2 0x1D0F JUMPI PUSH2 0x1D0E PUSH2 0x19A2 JUMP JUMPDEST JUMPDEST POP SWAP3 SWAP2 POP POP JUMP JUMPDEST PUSH32 0x4E487B7100000000000000000000000000000000000000000000000000000000 PUSH1 0x0 MSTORE PUSH1 0x12 PUSH1 0x4 MSTORE PUSH1 0x24 PUSH1 0x0 REVERT JUMPDEST PUSH1 0x0 PUSH2 0x1D50 DUP3 PUSH2 0x1201 JUMP JUMPDEST SWAP2 POP PUSH2 0x1D5B DUP4 PUSH2 0x1201 JUMP JUMPDEST SWAP3 POP DUP3 PUSH2 0x1D6B JUMPI PUSH2 0x1D6A PUSH2 0x1D16 JUMP JUMPDEST JUMPDEST DUP3 DUP3 DIV SWAP1 POP SWAP3 SWAP2 POP POP JUMP JUMPDEST PUSH32 0x596F7520646964206E6F74207375676765737465642069742E00000000000000 PUSH1 0x0 DUP3 ADD MSTORE POP JUMP JUMPDEST PUSH1 0x0 PUSH2 0x1DAC PUSH1 0x19 DUP4 PUSH2 0x173C JUMP JUMPDEST SWAP2 POP PUSH2 0x1DB7 DUP3 PUSH2 0x1D76 JUMP JUMPDEST PUSH1 0x20 DUP3 ADD SWAP1 POP SWAP2 SWAP1 POP JUMP JUMPDEST PUSH1 0x0 PUSH1 0x20 DUP3 ADD SWAP1 POP DUP2 DUP2 SUB PUSH1 0x0 DUP4 ADD MSTORE PUSH2 0x1DDB DUP2 PUSH2 0x1D9F JUMP JUMPDEST SWAP1 POP SWAP2 SWAP1 POP JUMP JUMPDEST PUSH2 0x1DEB DUP3 PUSH2 0x13E7 JUMP JUMPDEST PUSH8 0xFFFFFFFFFFFFFFFF DUP2 GT ISZERO PUSH2 0x1E04 JUMPI PUSH2 0x1E03 PUSH2 0x1264 JUMP JUMPDEST JUMPDEST PUSH2 0x1E0E DUP3 SLOAD PUSH2 0x1933 JUMP JUMPDEST PUSH2 0x1E19 DUP3 DUP3 DUP6 PUSH2 0x1B43 JUMP JUMPDEST PUSH1 0x0 PUSH1 0x20 SWAP1 POP PUSH1 0x1F DUP4 GT PUSH1 0x1 DUP2 EQ PUSH2 0x1E4C JUMPI PUSH1 0x0 DUP5 ISZERO PUSH2 0x1E3A JUMPI DUP3 DUP8 ADD MLOAD SWAP1 POP JUMPDEST PUSH2 0x1E44 DUP6 DUP3 PUSH2 0x1BB4 JUMP JUMPDEST DUP7 SSTORE POP PUSH2 0x1EAC JUMP JUMPDEST PUSH1 0x1F NOT DUP5 AND PUSH2 0x1E5A DUP7 PUSH2 0x1A24 JUMP JUMPDEST PUSH1 0x0 JUMPDEST DUP3 DUP2 LT ISZERO PUSH2 0x1E82 JUMPI DUP5 DUP10 ADD MLOAD DUP3 SSTORE PUSH1 0x1 DUP3 ADD SWAP2 POP PUSH1 0x20 DUP6 ADD SWAP5 POP PUSH1 0x20 DUP2 ADD SWAP1 POP PUSH2 0x1E5D JUMP JUMPDEST DUP7 DUP4 LT ISZERO PUSH2 0x1E9F JUMPI DUP5 DUP10 ADD MLOAD PUSH2 0x1E9B PUSH1 0x1F DUP10 AND DUP3 PUSH2 0x1B96 JUMP JUMPDEST DUP4 SSTORE POP JUMPDEST PUSH1 0x1 PUSH1 0x2 DUP9 MUL ADD DUP9 SSTORE POP POP POP JUMPDEST POP POP POP POP POP POP JUMP INVALID LOG2 PUSH5 0x6970667358 0x22 SLT KECCAK256 0xA6 PUSH4 0x85E9DAE4 SWAP4 SELFDESTRUCT INVALID EXTCODECOPY SWAP10 DUP5 JUMPDEST EXTCODECOPY 0xA7 0xE9 0xBE 0x5C 0xC1 0x2A CALLDATASIZE SWAP13 0xB6 BYTE PUSH27 0xE3C6984A81BC3164736F6C63430008120033000000000000000000 "
				},
				"gasEstimates": {
					"creation": {
						"codeDepositCost": "1582800",
						"executionCost": "1659",
						"totalCost": "1584459"
					},
					"external": {
						"count()": "2430",
						"finishPoll(string)": "infinite",
						"getPoll(string)": "infinite",
						"polls(string)": "infinite",
						"pushUser(string)": "infinite",
						"searchSuggested(string)": "infinite",
						"suggest(string,string)": "infinite",
						"userCount()": "2452",
						"vote(string,bool)": "infinite"
					}
				},
				"methodIdentifiers": {
					"count()": "06661abd",
					"finishPoll(string)": "9f11aa65",
					"getPoll(string)": "10a688e3",
					"polls(string)": "8058316a",
					"pushUser(string)": "690e87c8",
					"searchSuggested(string)": "cb04bf75",
					"suggest(string,string)": "f732ac77",
					"userCount()": "07973ccf",
					"vote(string,bool)": "27d3410c"
				}
			},
			"storageLayout": {
				"storage": [
					{
						"astId": 24,
						"contract": "contracts-quiz/\b230518-QUIZ6-answer.sol:Q6",
						"label": "polls",
						"offset": 0,
						"slot": "0",
						"type": "t_mapping(t_string_memory_ptr,t_struct(poll)19_storage)"
					},
					{
						"astId": 26,
						"contract": "contracts-quiz/\b230518-QUIZ6-answer.sol:Q6",
						"label": "count",
						"offset": 0,
						"slot": "1",
						"type": "t_uint256"
					},
					{
						"astId": 28,
						"contract": "contracts-quiz/\b230518-QUIZ6-answer.sol:Q6",
						"label": "userCount",
						"offset": 0,
						"slot": "2",
						"type": "t_uint256"
					},
					{
						"astId": 54,
						"contract": "contracts-quiz/\b230518-QUIZ6-answer.sol:Q6",
						"label": "users",
						"offset": 0,
						"slot": "3",
						"type": "t_mapping(t_address,t_struct(user)49_storage)"
					}
				],
				"types": {
					"t_address": {
						"encoding": "inplace",
						"label": "address",
						"numberOfBytes": "20"
					},
					"t_array(t_string_storage)dyn_storage": {
						"base": "t_string_storage",
						"encoding": "dynamic_array",
						"label": "string[]",
						"numberOfBytes": "32"
					},
					"t_enum(pollStatus)36": {
						"encoding": "inplace",
						"label": "enum Q6.pollStatus",
						"numberOfBytes": "1"
					},
					"t_enum(votingStatus)32": {
						"encoding": "inplace",
						"label": "enum Q6.votingStatus",
						"numberOfBytes": "1"
					},
					"t_mapping(t_address,t_struct(user)49_storage)": {
						"encoding": "mapping",
						"key": "t_address",
						"label": "mapping(address => struct Q6.user)",
						"numberOfBytes": "32",
						"value": "t_struct(user)49_storage"
					},
					"t_mapping(t_string_memory_ptr,t_enum(votingStatus)32)": {
						"encoding": "mapping",
						"key": "t_string_memory_ptr",
						"label": "mapping(string => enum Q6.votingStatus)",
						"numberOfBytes": "32",
						"value": "t_enum(votingStatus)32"
					},
					"t_mapping(t_string_memory_ptr,t_struct(poll)19_storage)": {
						"encoding": "mapping",
						"key": "t_string_memory_ptr",
						"label": "mapping(string => struct Q6.poll)",
						"numberOfBytes": "32",
						"value": "t_struct(poll)19_storage"
					},
					"t_string_memory_ptr": {
						"encoding": "bytes",
						"label": "string",
						"numberOfBytes": "32"
					},
					"t_string_storage": {
						"encoding": "bytes",
						"label": "string",
						"numberOfBytes": "32"
					},
					"t_struct(poll)19_storage": {
						"encoding": "inplace",
						"label": "struct Q6.poll",
						"members": [
							{
								"astId": 3,
								"contract": "contracts-quiz/\b230518-QUIZ6-answer.sol:Q6",
								"label": "number",
								"offset": 0,
								"slot": "0",
								"type": "t_uint256"
							},
							{
								"astId": 5,
								"contract": "contracts-quiz/\b230518-QUIZ6-answer.sol:Q6",
								"label": "title",
								"offset": 0,
								"slot": "1",
								"type": "t_string_storage"
							},
							{
								"astId": 7,
								"contract": "contracts-quiz/\b230518-QUIZ6-answer.sol:Q6",
								"label": "context",
								"offset": 0,
								"slot": "2",
								"type": "t_string_storage"
							},
							{
								"astId": 9,
								"contract": "contracts-quiz/\b230518-QUIZ6-answer.sol:Q6",
								"label": "by",
								"offset": 0,
								"slot": "3",
								"type": "t_address"
							},
							{
								"astId": 11,
								"contract": "contracts-quiz/\b230518-QUIZ6-answer.sol:Q6",
								"label": "time",
								"offset": 0,
								"slot": "4",
								"type": "t_uint256"
							},
							{
								"astId": 13,
								"contract": "contracts-quiz/\b230518-QUIZ6-answer.sol:Q6",
								"label": "pros",
								"offset": 0,
								"slot": "5",
								"type": "t_uint256"
							},
							{
								"astId": 15,
								"contract": "contracts-quiz/\b230518-QUIZ6-answer.sol:Q6",
								"label": "cons",
								"offset": 0,
								"slot": "6",
								"type": "t_uint256"
							},
							{
								"astId": 18,
								"contract": "contracts-quiz/\b230518-QUIZ6-answer.sol:Q6",
								"label": "status",
								"offset": 0,
								"slot": "7",
								"type": "t_enum(pollStatus)36"
							}
						],
						"numberOfBytes": "256"
					},
					"t_struct(user)49_storage": {
						"encoding": "inplace",
						"label": "struct Q6.user",
						"members": [
							{
								"astId": 38,
								"contract": "contracts-quiz/\b230518-QUIZ6-answer.sol:Q6",
								"label": "name",
								"offset": 0,
								"slot": "0",
								"type": "t_string_storage"
							},
							{
								"astId": 40,
								"contract": "contracts-quiz/\b230518-QUIZ6-answer.sol:Q6",
								"label": "addr",
								"offset": 0,
								"slot": "1",
								"type": "t_address"
							},
							{
								"astId": 43,
								"contract": "contracts-quiz/\b230518-QUIZ6-answer.sol:Q6",
								"label": "suggested",
								"offset": 0,
								"slot": "2",
								"type": "t_array(t_string_storage)dyn_storage"
							},
							{
								"astId": 48,
								"contract": "contracts-quiz/\b230518-QUIZ6-answer.sol:Q6",
								"label": "voted",
								"offset": 0,
								"slot": "3",
								"type": "t_mapping(t_string_memory_ptr,t_enum(votingStatus)32)"
							}
						],
						"numberOfBytes": "128"
					},
					"t_uint256": {
						"encoding": "inplace",
						"label": "uint256",
						"numberOfBytes": "32"
					}
				}
			},
			"userdoc": {
				"kind": "user",
				"methods": {},
				"version": 1
			}
		}
	}
}