{
	"contracts-test/230616-test1(fixed)-answer.sol": {
		"FixedDynamic": {
			"abi": [
				{
					"inputs": [
						{
							"internalType": "uint256",
							"name": "",
							"type": "uint256"
						}
					],
					"name": "a",
					"outputs": [
						{
							"internalType": "uint256",
							"name": "",
							"type": "uint256"
						}
					],
					"stateMutability": "view",
					"type": "function"
				},
				{
					"inputs": [
						{
							"internalType": "uint256",
							"name": "",
							"type": "uint256"
						}
					],
					"name": "b",
					"outputs": [
						{
							"internalType": "uint256",
							"name": "",
							"type": "uint256"
						}
					],
					"stateMutability": "view",
					"type": "function"
				},
				{
					"inputs": [],
					"name": "getAB",
					"outputs": [
						{
							"internalType": "uint256[]",
							"name": "",
							"type": "uint256[]"
						},
						{
							"internalType": "uint256[4]",
							"name": "",
							"type": "uint256[4]"
						}
					],
					"stateMutability": "view",
					"type": "function"
				},
				{
					"inputs": [],
					"name": "getLengthOfB",
					"outputs": [
						{
							"internalType": "uint256",
							"name": "",
							"type": "uint256"
						}
					],
					"stateMutability": "view",
					"type": "function"
				},
				{
					"inputs": [
						{
							"internalType": "uint256",
							"name": "_n",
							"type": "uint256"
						}
					],
					"name": "pushA",
					"outputs": [],
					"stateMutability": "nonpayable",
					"type": "function"
				},
				{
					"inputs": [
						{
							"internalType": "uint256",
							"name": "_a",
							"type": "uint256"
						},
						{
							"internalType": "uint256",
							"name": "_b",
							"type": "uint256"
						}
					],
					"name": "pushB",
					"outputs": [],
					"stateMutability": "nonpayable",
					"type": "function"
				},
				{
					"inputs": [
						{
							"internalType": "uint256",
							"name": "_a",
							"type": "uint256"
						}
					],
					"name": "pushB2",
					"outputs": [],
					"stateMutability": "nonpayable",
					"type": "function"
				},
				{
					"inputs": [
						{
							"internalType": "uint256",
							"name": "_a",
							"type": "uint256"
						}
					],
					"name": "pushB3",
					"outputs": [],
					"stateMutability": "nonpayable",
					"type": "function"
				}
			],
			"devdoc": {
				"kind": "dev",
				"methods": {},
				"version": 1
			},
			"evm": {
				"assembly": "    /* \"contracts-test/230616-test1(fixed)-answer.sol\":382:1165  contract FixedDynamic {... */\n  mstore(0x40, 0x80)\n  callvalue\n  dup1\n  iszero\n  tag_1\n  jumpi\n  0x00\n  dup1\n  revert\ntag_1:\n  pop\n  dataSize(sub_0)\n  dup1\n  dataOffset(sub_0)\n  0x00\n  codecopy\n  0x00\n  return\nstop\n\nsub_0: assembly {\n        /* \"contracts-test/230616-test1(fixed)-answer.sol\":382:1165  contract FixedDynamic {... */\n      mstore(0x40, 0x80)\n      callvalue\n      dup1\n      iszero\n      tag_1\n      jumpi\n      0x00\n      dup1\n      revert\n    tag_1:\n      pop\n      jumpi(tag_2, lt(calldatasize, 0x04))\n      shr(0xe0, calldataload(0x00))\n      dup1\n      0xb97f7202\n      gt\n      tag_11\n      jumpi\n      dup1\n      0xb97f7202\n      eq\n      tag_7\n      jumpi\n      dup1\n      0xc1f69ac3\n      eq\n      tag_8\n      jumpi\n      dup1\n      0xcd580ff3\n      eq\n      tag_9\n      jumpi\n      dup1\n      0xf0fdf834\n      eq\n      tag_10\n      jumpi\n      jump(tag_2)\n    tag_11:\n      dup1\n      0x2b06cb2d\n      eq\n      tag_3\n      jumpi\n      dup1\n      0x2f7664fc\n      eq\n      tag_4\n      jumpi\n      dup1\n      0x4075b536\n      eq\n      tag_5\n      jumpi\n      dup1\n      0x40bb882d\n      eq\n      tag_6\n      jumpi\n    tag_2:\n      0x00\n      dup1\n      revert\n        /* \"contracts-test/230616-test1(fixed)-answer.sol\":470:567  function getAB() public view returns(uint[] memory, uint[4] memory) {... */\n    tag_3:\n      tag_12\n      tag_13\n      jump\t// in\n    tag_12:\n      mload(0x40)\n      tag_14\n      swap3\n      swap2\n      swap1\n      tag_15\n      jump\t// in\n    tag_14:\n      mload(0x40)\n      dup1\n      swap2\n      sub\n      swap1\n      return\n        /* \"contracts-test/230616-test1(fixed)-answer.sol\":976:1161  function getLengthOfB() public view returns(uint) {... */\n    tag_4:\n      tag_16\n      tag_17\n      jump\t// in\n    tag_16:\n      mload(0x40)\n      tag_18\n      swap2\n      swap1\n      tag_19\n      jump\t// in\n    tag_18:\n      mload(0x40)\n      dup1\n      swap2\n      sub\n      swap1\n      return\n        /* \"contracts-test/230616-test1(fixed)-answer.sol\":797:966  function pushB3(uint _a) public {... */\n    tag_5:\n      tag_20\n      0x04\n      dup1\n      calldatasize\n      sub\n      dup2\n      add\n      swap1\n      tag_21\n      swap2\n      swap1\n      tag_22\n      jump\t// in\n    tag_21:\n      tag_23\n      jump\t// in\n    tag_20:\n      stop\n        /* \"contracts-test/230616-test1(fixed)-answer.sol\":573:631  function pushA(uint _n) public {... */\n    tag_6:\n      tag_24\n      0x04\n      dup1\n      calldatasize\n      sub\n      dup2\n      add\n      swap1\n      tag_25\n      swap2\n      swap1\n      tag_22\n      jump\t// in\n    tag_25:\n      tag_26\n      jump\t// in\n    tag_24:\n      stop\n        /* \"contracts-test/230616-test1(fixed)-answer.sol\":712:791  function pushB2(uint _a) public {... */\n    tag_7:\n      tag_27\n      0x04\n      dup1\n      calldatasize\n      sub\n      dup2\n      add\n      swap1\n      tag_28\n      swap2\n      swap1\n      tag_22\n      jump\t// in\n    tag_28:\n      tag_29\n      jump\t// in\n    tag_27:\n      stop\n        /* \"contracts-test/230616-test1(fixed)-answer.sol\":637:706  function pushB(uint _a, uint _b) public {... */\n    tag_8:\n      tag_30\n      0x04\n      dup1\n      calldatasize\n      sub\n      dup2\n      add\n      swap1\n      tag_31\n      swap2\n      swap1\n      tag_32\n      jump\t// in\n    tag_31:\n      tag_33\n      jump\t// in\n    tag_30:\n      stop\n        /* \"contracts-test/230616-test1(fixed)-answer.sol\":431:447  uint[4] public b */\n    tag_9:\n      tag_34\n      0x04\n      dup1\n      calldatasize\n      sub\n      dup2\n      add\n      swap1\n      tag_35\n      swap2\n      swap1\n      tag_22\n      jump\t// in\n    tag_35:\n      tag_36\n      jump\t// in\n    tag_34:\n      mload(0x40)\n      tag_37\n      swap2\n      swap1\n      tag_19\n      jump\t// in\n    tag_37:\n      mload(0x40)\n      dup1\n      swap2\n      sub\n      swap1\n      return\n        /* \"contracts-test/230616-test1(fixed)-answer.sol\":410:425  uint[] public a */\n    tag_10:\n      tag_38\n      0x04\n      dup1\n      calldatasize\n      sub\n      dup2\n      add\n      swap1\n      tag_39\n      swap2\n      swap1\n      tag_22\n      jump\t// in\n    tag_39:\n      tag_40\n      jump\t// in\n    tag_38:\n      mload(0x40)\n      tag_41\n      swap2\n      swap1\n      tag_19\n      jump\t// in\n    tag_41:\n      mload(0x40)\n      dup1\n      swap2\n      sub\n      swap1\n      return\n        /* \"contracts-test/230616-test1(fixed)-answer.sol\":470:567  function getAB() public view returns(uint[] memory, uint[4] memory) {... */\n    tag_13:\n        /* \"contracts-test/230616-test1(fixed)-answer.sol\":507:520  uint[] memory */\n      0x60\n        /* \"contracts-test/230616-test1(fixed)-answer.sol\":522:536  uint[4] memory */\n      tag_42\n      tag_43\n      jump\t// in\n    tag_42:\n        /* \"contracts-test/230616-test1(fixed)-answer.sol\":556:557  a */\n      0x00\n        /* \"contracts-test/230616-test1(fixed)-answer.sol\":558:559  b */\n      0x01\n        /* \"contracts-test/230616-test1(fixed)-answer.sol\":548:560  return (a,b) */\n      dup2\n      dup1\n      sload\n      dup1\n      0x20\n      mul\n      0x20\n      add\n      mload(0x40)\n      swap1\n      dup2\n      add\n      0x40\n      mstore\n      dup1\n      swap3\n      swap2\n      swap1\n      dup2\n      dup2\n      mstore\n      0x20\n      add\n      dup3\n      dup1\n      sload\n      dup1\n      iszero\n      tag_45\n      jumpi\n      0x20\n      mul\n      dup3\n      add\n      swap2\n      swap1\n      0x00\n      mstore\n      keccak256(0x00, 0x20)\n      swap1\n    tag_46:\n      dup2\n      sload\n      dup2\n      mstore\n      0x20\n      add\n      swap1\n      0x01\n      add\n      swap1\n      dup1\n      dup4\n      gt\n      tag_46\n      jumpi\n    tag_45:\n      pop\n      pop\n      pop\n      pop\n      pop\n      swap2\n      pop\n      dup1\n      0x04\n      dup1\n      0x20\n      mul\n      mload(0x40)\n      swap1\n      dup2\n      add\n      0x40\n      mstore\n      dup1\n      swap3\n      swap2\n      swap1\n      dup3\n      0x04\n      dup1\n      iszero\n      tag_47\n      jumpi\n      0x20\n      mul\n      dup3\n      add\n      swap2\n    tag_48:\n      dup2\n      sload\n      dup2\n      mstore\n      0x20\n      add\n      swap1\n      0x01\n      add\n      swap1\n      dup1\n      dup4\n      gt\n      tag_48\n      jumpi\n    tag_47:\n      pop\n      pop\n      pop\n      pop\n      pop\n      swap1\n      pop\n      swap2\n      pop\n      swap2\n      pop\n        /* \"contracts-test/230616-test1(fixed)-answer.sol\":470:567  function getAB() public view returns(uint[] memory, uint[4] memory) {... */\n      swap1\n      swap2\n      jump\t// out\n        /* \"contracts-test/230616-test1(fixed)-answer.sol\":976:1161  function getLengthOfB() public view returns(uint) {... */\n    tag_17:\n        /* \"contracts-test/230616-test1(fixed)-answer.sol\":1020:1024  uint */\n      0x00\n        /* \"contracts-test/230616-test1(fixed)-answer.sol\":1040:1046  uint i */\n      dup1\n        /* \"contracts-test/230616-test1(fixed)-answer.sol\":1047:1048  0 */\n      0x00\n        /* \"contracts-test/230616-test1(fixed)-answer.sol\":1040:1048  uint i=0 */\n      swap1\n      pop\n        /* \"contracts-test/230616-test1(fixed)-answer.sol\":1036:1137  for(uint i=0; i<4; i++) {... */\n    tag_50:\n        /* \"contracts-test/230616-test1(fixed)-answer.sol\":1052:1053  4 */\n      0x04\n        /* \"contracts-test/230616-test1(fixed)-answer.sol\":1050:1051  i */\n      dup2\n        /* \"contracts-test/230616-test1(fixed)-answer.sol\":1050:1053  i<4 */\n      lt\n        /* \"contracts-test/230616-test1(fixed)-answer.sol\":1036:1137  for(uint i=0; i<4; i++) {... */\n      iszero\n      tag_51\n      jumpi\n        /* \"contracts-test/230616-test1(fixed)-answer.sol\":1083:1084  0 */\n      0x00\n        /* \"contracts-test/230616-test1(fixed)-answer.sol\":1077:1078  b */\n      0x01\n        /* \"contracts-test/230616-test1(fixed)-answer.sol\":1079:1080  i */\n      dup3\n        /* \"contracts-test/230616-test1(fixed)-answer.sol\":1077:1081  b[i] */\n      0x04\n      dup2\n      lt\n      tag_53\n      jumpi\n      tag_54\n      tag_55\n      jump\t// in\n    tag_54:\n    tag_53:\n      add\n      sload\n        /* \"contracts-test/230616-test1(fixed)-answer.sol\":1077:1084  b[i]==0 */\n      sub\n        /* \"contracts-test/230616-test1(fixed)-answer.sol\":1074:1127  if(b[i]==0) {... */\n      tag_57\n      jumpi\n        /* \"contracts-test/230616-test1(fixed)-answer.sol\":1111:1112  i */\n      dup1\n        /* \"contracts-test/230616-test1(fixed)-answer.sol\":1104:1112  return i */\n      swap2\n      pop\n      pop\n      jump(tag_49)\n        /* \"contracts-test/230616-test1(fixed)-answer.sol\":1074:1127  if(b[i]==0) {... */\n    tag_57:\n        /* \"contracts-test/230616-test1(fixed)-answer.sol\":1055:1058  i++ */\n      dup1\n      dup1\n      tag_58\n      swap1\n      tag_59\n      jump\t// in\n    tag_58:\n      swap2\n      pop\n      pop\n        /* \"contracts-test/230616-test1(fixed)-answer.sol\":1036:1137  for(uint i=0; i<4; i++) {... */\n      jump(tag_50)\n    tag_51:\n      pop\n        /* \"contracts-test/230616-test1(fixed)-answer.sol\":1153:1154  4 */\n      0x04\n        /* \"contracts-test/230616-test1(fixed)-answer.sol\":1146:1154  return 4 */\n      swap1\n      pop\n        /* \"contracts-test/230616-test1(fixed)-answer.sol\":976:1161  function getLengthOfB() public view returns(uint) {... */\n    tag_49:\n      swap1\n      jump\t// out\n        /* \"contracts-test/230616-test1(fixed)-answer.sol\":797:966  function pushB3(uint _a) public {... */\n    tag_23:\n        /* \"contracts-test/230616-test1(fixed)-answer.sol\":852:853  0 */\n      0x00\n        /* \"contracts-test/230616-test1(fixed)-answer.sol\":847:849  _a */\n      dup2\n        /* \"contracts-test/230616-test1(fixed)-answer.sol\":847:853  _a !=0 */\n      sub\n        /* \"contracts-test/230616-test1(fixed)-answer.sol\":839:854  require(_a !=0) */\n      tag_61\n      jumpi\n      0x00\n      dup1\n      revert\n    tag_61:\n        /* \"contracts-test/230616-test1(fixed)-answer.sol\":883:884  4 */\n      0x04\n        /* \"contracts-test/230616-test1(fixed)-answer.sol\":867:881  getLengthOfB() */\n      tag_62\n        /* \"contracts-test/230616-test1(fixed)-answer.sol\":867:879  getLengthOfB */\n      tag_17\n        /* \"contracts-test/230616-test1(fixed)-answer.sol\":867:881  getLengthOfB() */\n      jump\t// in\n    tag_62:\n        /* \"contracts-test/230616-test1(fixed)-answer.sol\":867:884  getLengthOfB()==4 */\n      sub\n        /* \"contracts-test/230616-test1(fixed)-answer.sol\":864:919  if(getLengthOfB()==4) {... */\n      tag_63\n      jumpi\n        /* \"contracts-test/230616-test1(fixed)-answer.sol\":907:908  b */\n      0x01\n      0x00\n        /* \"contracts-test/230616-test1(fixed)-answer.sol\":900:908  delete b */\n      tag_64\n      swap2\n      swap1\n      tag_65\n      jump\t// in\n    tag_64:\n        /* \"contracts-test/230616-test1(fixed)-answer.sol\":864:919  if(getLengthOfB()==4) {... */\n    tag_63:\n        /* \"contracts-test/230616-test1(fixed)-answer.sol\":957:959  _a */\n      dup1\n        /* \"contracts-test/230616-test1(fixed)-answer.sol\":937:938  b */\n      0x01\n        /* \"contracts-test/230616-test1(fixed)-answer.sol\":939:953  getLengthOfB() */\n      tag_66\n        /* \"contracts-test/230616-test1(fixed)-answer.sol\":939:951  getLengthOfB */\n      tag_17\n        /* \"contracts-test/230616-test1(fixed)-answer.sol\":939:953  getLengthOfB() */\n      jump\t// in\n    tag_66:\n        /* \"contracts-test/230616-test1(fixed)-answer.sol\":937:954  b[getLengthOfB()] */\n      0x04\n      dup2\n      lt\n      tag_67\n      jumpi\n      tag_68\n      tag_55\n      jump\t// in\n    tag_68:\n    tag_67:\n      add\n        /* \"contracts-test/230616-test1(fixed)-answer.sol\":937:959  b[getLengthOfB()] = _a */\n      dup2\n      swap1\n      sstore\n      pop\n        /* \"contracts-test/230616-test1(fixed)-answer.sol\":797:966  function pushB3(uint _a) public {... */\n      pop\n      jump\t// out\n        /* \"contracts-test/230616-test1(fixed)-answer.sol\":573:631  function pushA(uint _n) public {... */\n    tag_26:\n        /* \"contracts-test/230616-test1(fixed)-answer.sol\":614:615  a */\n      0x00\n        /* \"contracts-test/230616-test1(fixed)-answer.sol\":621:623  _n */\n      dup2\n        /* \"contracts-test/230616-test1(fixed)-answer.sol\":614:624  a.push(_n) */\n      swap1\n      dup1\n      0x01\n      dup2\n      sload\n      add\n      dup1\n      dup3\n      sstore\n      dup1\n      swap2\n      pop\n      pop\n      0x01\n      swap1\n      sub\n      swap1\n      0x00\n      mstore\n      keccak256(0x00, 0x20)\n      add\n      0x00\n      swap1\n      swap2\n      swap1\n      swap2\n      swap1\n      swap2\n      pop\n      sstore\n        /* \"contracts-test/230616-test1(fixed)-answer.sol\":573:631  function pushA(uint _n) public {... */\n      pop\n      jump\t// out\n        /* \"contracts-test/230616-test1(fixed)-answer.sol\":712:791  function pushB2(uint _a) public {... */\n    tag_29:\n        /* \"contracts-test/230616-test1(fixed)-answer.sol\":765:767  _a */\n      dup1\n        /* \"contracts-test/230616-test1(fixed)-answer.sol\":754:755  b */\n      0x01\n        /* \"contracts-test/230616-test1(fixed)-answer.sol\":756:761  count */\n      sload(0x05)\n        /* \"contracts-test/230616-test1(fixed)-answer.sol\":754:762  b[count] */\n      0x04\n      dup2\n      lt\n      tag_73\n      jumpi\n      tag_74\n      tag_55\n      jump\t// in\n    tag_74:\n    tag_73:\n      add\n        /* \"contracts-test/230616-test1(fixed)-answer.sol\":754:767  b[count] = _a */\n      dup2\n      swap1\n      sstore\n      pop\n        /* \"contracts-test/230616-test1(fixed)-answer.sol\":777:782  count */\n      0x05\n      0x00\n        /* \"contracts-test/230616-test1(fixed)-answer.sol\":777:784  count++ */\n      dup2\n      sload\n      dup1\n      swap3\n      swap2\n      swap1\n      tag_76\n      swap1\n      tag_59\n      jump\t// in\n    tag_76:\n      swap2\n      swap1\n      pop\n      sstore\n      pop\n        /* \"contracts-test/230616-test1(fixed)-answer.sol\":712:791  function pushB2(uint _a) public {... */\n      pop\n      jump\t// out\n        /* \"contracts-test/230616-test1(fixed)-answer.sol\":637:706  function pushB(uint _a, uint _b) public {... */\n    tag_33:\n        /* \"contracts-test/230616-test1(fixed)-answer.sol\":697:699  _b */\n      dup1\n        /* \"contracts-test/230616-test1(fixed)-answer.sol\":687:688  b */\n      0x01\n        /* \"contracts-test/230616-test1(fixed)-answer.sol\":692:693  1 */\n      dup1\n        /* \"contracts-test/230616-test1(fixed)-answer.sol\":689:691  _a */\n      dup5\n        /* \"contracts-test/230616-test1(fixed)-answer.sol\":689:693  _a-1 */\n      tag_78\n      swap2\n      swap1\n      tag_79\n      jump\t// in\n    tag_78:\n        /* \"contracts-test/230616-test1(fixed)-answer.sol\":687:694  b[_a-1] */\n      0x04\n      dup2\n      lt\n      tag_80\n      jumpi\n      tag_81\n      tag_55\n      jump\t// in\n    tag_81:\n    tag_80:\n      add\n        /* \"contracts-test/230616-test1(fixed)-answer.sol\":687:699  b[_a-1] = _b */\n      dup2\n      swap1\n      sstore\n      pop\n        /* \"contracts-test/230616-test1(fixed)-answer.sol\":637:706  function pushB(uint _a, uint _b) public {... */\n      pop\n      pop\n      jump\t// out\n        /* \"contracts-test/230616-test1(fixed)-answer.sol\":431:447  uint[4] public b */\n    tag_36:\n      0x01\n      dup2\n      0x04\n      dup2\n      lt\n      tag_83\n      jumpi\n      0x00\n      dup1\n      revert\n    tag_83:\n      add\n      0x00\n      swap2\n      pop\n      swap1\n      pop\n      sload\n      dup2\n      jump\t// out\n        /* \"contracts-test/230616-test1(fixed)-answer.sol\":410:425  uint[] public a */\n    tag_40:\n      0x00\n      dup2\n      dup2\n      sload\n      dup2\n      lt\n      tag_85\n      jumpi\n      0x00\n      dup1\n      revert\n    tag_85:\n      swap1\n      0x00\n      mstore\n      keccak256(0x00, 0x20)\n      add\n      0x00\n      swap2\n      pop\n      swap1\n      pop\n      sload\n      dup2\n      jump\t// out\n    tag_43:\n      mload(0x40)\n      dup1\n      0x80\n      add\n      0x40\n      mstore\n      dup1\n      0x04\n      swap1\n      0x20\n      dup3\n      mul\n      dup1\n      calldatasize\n      dup4\n      calldatacopy\n      dup1\n      dup3\n      add\n      swap2\n      pop\n      pop\n      swap1\n      pop\n      pop\n      swap1\n      jump\t// out\n    tag_65:\n      pop\n      0x00\n      dup2\n      sstore\n      0x01\n      add\n      0x00\n      dup2\n      sstore\n      0x01\n      add\n      0x00\n      dup2\n      sstore\n      0x01\n      add\n      0x00\n      swap1\n      sstore\n      jump\t// out\n        /* \"#utility.yul\":7:121   */\n    tag_87:\n        /* \"#utility.yul\":74:80   */\n      0x00\n        /* \"#utility.yul\":108:113   */\n      dup2\n        /* \"#utility.yul\":102:114   */\n      mload\n        /* \"#utility.yul\":92:114   */\n      swap1\n      pop\n        /* \"#utility.yul\":7:121   */\n      swap2\n      swap1\n      pop\n      jump\t// out\n        /* \"#utility.yul\":127:311   */\n    tag_88:\n        /* \"#utility.yul\":226:237   */\n      0x00\n        /* \"#utility.yul\":260:266   */\n      dup3\n        /* \"#utility.yul\":255:258   */\n      dup3\n        /* \"#utility.yul\":248:267   */\n      mstore\n        /* \"#utility.yul\":300:304   */\n      0x20\n        /* \"#utility.yul\":295:298   */\n      dup3\n        /* \"#utility.yul\":291:305   */\n      add\n        /* \"#utility.yul\":276:305   */\n      swap1\n      pop\n        /* \"#utility.yul\":127:311   */\n      swap3\n      swap2\n      pop\n      pop\n      jump\t// out\n        /* \"#utility.yul\":317:449   */\n    tag_89:\n        /* \"#utility.yul\":384:388   */\n      0x00\n        /* \"#utility.yul\":407:410   */\n      dup2\n        /* \"#utility.yul\":399:410   */\n      swap1\n      pop\n        /* \"#utility.yul\":437:441   */\n      0x20\n        /* \"#utility.yul\":432:435   */\n      dup3\n        /* \"#utility.yul\":428:442   */\n      add\n        /* \"#utility.yul\":420:442   */\n      swap1\n      pop\n        /* \"#utility.yul\":317:449   */\n      swap2\n      swap1\n      pop\n      jump\t// out\n        /* \"#utility.yul\":455:532   */\n    tag_90:\n        /* \"#utility.yul\":492:499   */\n      0x00\n        /* \"#utility.yul\":521:526   */\n      dup2\n        /* \"#utility.yul\":510:526   */\n      swap1\n      pop\n        /* \"#utility.yul\":455:532   */\n      swap2\n      swap1\n      pop\n      jump\t// out\n        /* \"#utility.yul\":538:646   */\n    tag_91:\n        /* \"#utility.yul\":615:639   */\n      tag_113\n        /* \"#utility.yul\":633:638   */\n      dup2\n        /* \"#utility.yul\":615:639   */\n      tag_90\n      jump\t// in\n    tag_113:\n        /* \"#utility.yul\":610:613   */\n      dup3\n        /* \"#utility.yul\":603:640   */\n      mstore\n        /* \"#utility.yul\":538:646   */\n      pop\n      pop\n      jump\t// out\n        /* \"#utility.yul\":652:831   */\n    tag_92:\n        /* \"#utility.yul\":721:731   */\n      0x00\n        /* \"#utility.yul\":742:788   */\n      tag_115\n        /* \"#utility.yul\":784:787   */\n      dup4\n        /* \"#utility.yul\":776:782   */\n      dup4\n        /* \"#utility.yul\":742:788   */\n      tag_91\n      jump\t// in\n    tag_115:\n        /* \"#utility.yul\":820:824   */\n      0x20\n        /* \"#utility.yul\":815:818   */\n      dup4\n        /* \"#utility.yul\":811:825   */\n      add\n        /* \"#utility.yul\":797:825   */\n      swap1\n      pop\n        /* \"#utility.yul\":652:831   */\n      swap3\n      swap2\n      pop\n      pop\n      jump\t// out\n        /* \"#utility.yul\":837:950   */\n    tag_93:\n        /* \"#utility.yul\":907:911   */\n      0x00\n        /* \"#utility.yul\":939:943   */\n      0x20\n        /* \"#utility.yul\":934:937   */\n      dup3\n        /* \"#utility.yul\":930:944   */\n      add\n        /* \"#utility.yul\":922:944   */\n      swap1\n      pop\n        /* \"#utility.yul\":837:950   */\n      swap2\n      swap1\n      pop\n      jump\t// out\n        /* \"#utility.yul\":986:1718   */\n    tag_94:\n        /* \"#utility.yul\":1105:1108   */\n      0x00\n        /* \"#utility.yul\":1134:1188   */\n      tag_118\n        /* \"#utility.yul\":1182:1187   */\n      dup3\n        /* \"#utility.yul\":1134:1188   */\n      tag_87\n      jump\t// in\n    tag_118:\n        /* \"#utility.yul\":1204:1290   */\n      tag_119\n        /* \"#utility.yul\":1283:1289   */\n      dup2\n        /* \"#utility.yul\":1278:1281   */\n      dup6\n        /* \"#utility.yul\":1204:1290   */\n      tag_88\n      jump\t// in\n    tag_119:\n        /* \"#utility.yul\":1197:1290   */\n      swap4\n      pop\n        /* \"#utility.yul\":1314:1370   */\n      tag_120\n        /* \"#utility.yul\":1364:1369   */\n      dup4\n        /* \"#utility.yul\":1314:1370   */\n      tag_89\n      jump\t// in\n    tag_120:\n        /* \"#utility.yul\":1393:1400   */\n      dup1\n        /* \"#utility.yul\":1424:1425   */\n      0x00\n        /* \"#utility.yul\":1409:1693   */\n    tag_121:\n        /* \"#utility.yul\":1434:1440   */\n      dup4\n        /* \"#utility.yul\":1431:1432   */\n      dup2\n        /* \"#utility.yul\":1428:1441   */\n      lt\n        /* \"#utility.yul\":1409:1693   */\n      iszero\n      tag_123\n      jumpi\n        /* \"#utility.yul\":1510:1516   */\n      dup2\n        /* \"#utility.yul\":1504:1517   */\n      mload\n        /* \"#utility.yul\":1537:1600   */\n      tag_124\n        /* \"#utility.yul\":1596:1599   */\n      dup9\n        /* \"#utility.yul\":1581:1594   */\n      dup3\n        /* \"#utility.yul\":1537:1600   */\n      tag_92\n      jump\t// in\n    tag_124:\n        /* \"#utility.yul\":1530:1600   */\n      swap8\n      pop\n        /* \"#utility.yul\":1623:1683   */\n      tag_125\n        /* \"#utility.yul\":1676:1682   */\n      dup4\n        /* \"#utility.yul\":1623:1683   */\n      tag_93\n      jump\t// in\n    tag_125:\n        /* \"#utility.yul\":1613:1683   */\n      swap3\n      pop\n        /* \"#utility.yul\":1469:1693   */\n      pop\n        /* \"#utility.yul\":1456:1457   */\n      0x01\n        /* \"#utility.yul\":1453:1454   */\n      dup2\n        /* \"#utility.yul\":1449:1458   */\n      add\n        /* \"#utility.yul\":1444:1458   */\n      swap1\n      pop\n        /* \"#utility.yul\":1409:1693   */\n      jump(tag_121)\n    tag_123:\n        /* \"#utility.yul\":1413:1427   */\n      pop\n        /* \"#utility.yul\":1709:1712   */\n      dup6\n        /* \"#utility.yul\":1702:1712   */\n      swap4\n      pop\n        /* \"#utility.yul\":1110:1718   */\n      pop\n      pop\n      pop\n        /* \"#utility.yul\":986:1718   */\n      swap3\n      swap2\n      pop\n      pop\n      jump\t// out\n        /* \"#utility.yul\":1724:1828   */\n    tag_95:\n        /* \"#utility.yul\":1789:1795   */\n      0x00\n        /* \"#utility.yul\":1817:1821   */\n      0x04\n        /* \"#utility.yul\":1807:1821   */\n      swap1\n      pop\n        /* \"#utility.yul\":1724:1828   */\n      swap2\n      swap1\n      pop\n      jump\t// out\n        /* \"#utility.yul\":1834:1977   */\n    tag_96:\n        /* \"#utility.yul\":1931:1942   */\n      0x00\n        /* \"#utility.yul\":1968:1971   */\n      dup2\n        /* \"#utility.yul\":1953:1971   */\n      swap1\n      pop\n        /* \"#utility.yul\":1834:1977   */\n      swap3\n      swap2\n      pop\n      pop\n      jump\t// out\n        /* \"#utility.yul\":1983:2081   */\n    tag_97:\n        /* \"#utility.yul\":2048:2052   */\n      0x00\n        /* \"#utility.yul\":2071:2074   */\n      dup2\n        /* \"#utility.yul\":2063:2074   */\n      swap1\n      pop\n        /* \"#utility.yul\":1983:2081   */\n      swap2\n      swap1\n      pop\n      jump\t// out\n        /* \"#utility.yul\":2087:2198   */\n    tag_98:\n        /* \"#utility.yul\":2155:2159   */\n      0x00\n        /* \"#utility.yul\":2187:2191   */\n      0x20\n        /* \"#utility.yul\":2182:2185   */\n      dup3\n        /* \"#utility.yul\":2178:2192   */\n      add\n        /* \"#utility.yul\":2170:2192   */\n      swap1\n      pop\n        /* \"#utility.yul\":2087:2198   */\n      swap2\n      swap1\n      pop\n      jump\t// out\n        /* \"#utility.yul\":2236:2930   */\n    tag_99:\n        /* \"#utility.yul\":2372:2424   */\n      tag_131\n        /* \"#utility.yul\":2418:2423   */\n      dup2\n        /* \"#utility.yul\":2372:2424   */\n      tag_95\n      jump\t// in\n    tag_131:\n        /* \"#utility.yul\":2440:2524   */\n      tag_132\n        /* \"#utility.yul\":2517:2523   */\n      dup2\n        /* \"#utility.yul\":2512:2515   */\n      dup5\n        /* \"#utility.yul\":2440:2524   */\n      tag_96\n      jump\t// in\n    tag_132:\n        /* \"#utility.yul\":2433:2524   */\n      swap3\n      pop\n        /* \"#utility.yul\":2548:2602   */\n      tag_133\n        /* \"#utility.yul\":2596:2601   */\n      dup3\n        /* \"#utility.yul\":2548:2602   */\n      tag_97\n      jump\t// in\n    tag_133:\n        /* \"#utility.yul\":2625:2632   */\n      dup1\n        /* \"#utility.yul\":2656:2657   */\n      0x00\n        /* \"#utility.yul\":2641:2923   */\n    tag_134:\n        /* \"#utility.yul\":2666:2672   */\n      dup4\n        /* \"#utility.yul\":2663:2664   */\n      dup2\n        /* \"#utility.yul\":2660:2673   */\n      lt\n        /* \"#utility.yul\":2641:2923   */\n      iszero\n      tag_136\n      jumpi\n        /* \"#utility.yul\":2742:2748   */\n      dup2\n        /* \"#utility.yul\":2736:2749   */\n      mload\n        /* \"#utility.yul\":2769:2832   */\n      tag_137\n        /* \"#utility.yul\":2828:2831   */\n      dup8\n        /* \"#utility.yul\":2813:2826   */\n      dup3\n        /* \"#utility.yul\":2769:2832   */\n      tag_92\n      jump\t// in\n    tag_137:\n        /* \"#utility.yul\":2762:2832   */\n      swap7\n      pop\n        /* \"#utility.yul\":2855:2913   */\n      tag_138\n        /* \"#utility.yul\":2906:2912   */\n      dup4\n        /* \"#utility.yul\":2855:2913   */\n      tag_98\n      jump\t// in\n    tag_138:\n        /* \"#utility.yul\":2845:2913   */\n      swap3\n      pop\n        /* \"#utility.yul\":2701:2923   */\n      pop\n        /* \"#utility.yul\":2688:2689   */\n      0x01\n        /* \"#utility.yul\":2685:2686   */\n      dup2\n        /* \"#utility.yul\":2681:2690   */\n      add\n        /* \"#utility.yul\":2676:2690   */\n      swap1\n      pop\n        /* \"#utility.yul\":2641:2923   */\n      jump(tag_134)\n    tag_136:\n        /* \"#utility.yul\":2645:2659   */\n      pop\n        /* \"#utility.yul\":2348:2930   */\n      pop\n      pop\n      pop\n        /* \"#utility.yul\":2236:2930   */\n      pop\n      pop\n      jump\t// out\n        /* \"#utility.yul\":2936:3512   */\n    tag_15:\n        /* \"#utility.yul\":3153:3157   */\n      0x00\n        /* \"#utility.yul\":3191:3194   */\n      0xa0\n        /* \"#utility.yul\":3180:3189   */\n      dup3\n        /* \"#utility.yul\":3176:3195   */\n      add\n        /* \"#utility.yul\":3168:3195   */\n      swap1\n      pop\n        /* \"#utility.yul\":3241:3250   */\n      dup2\n        /* \"#utility.yul\":3235:3239   */\n      dup2\n        /* \"#utility.yul\":3231:3251   */\n      sub\n        /* \"#utility.yul\":3227:3228   */\n      0x00\n        /* \"#utility.yul\":3216:3225   */\n      dup4\n        /* \"#utility.yul\":3212:3229   */\n      add\n        /* \"#utility.yul\":3205:3252   */\n      mstore\n        /* \"#utility.yul\":3269:3377   */\n      tag_140\n        /* \"#utility.yul\":3372:3376   */\n      dup2\n        /* \"#utility.yul\":3363:3369   */\n      dup6\n        /* \"#utility.yul\":3269:3377   */\n      tag_94\n      jump\t// in\n    tag_140:\n        /* \"#utility.yul\":3261:3377   */\n      swap1\n      pop\n        /* \"#utility.yul\":3387:3505   */\n      tag_141\n        /* \"#utility.yul\":3501:3503   */\n      0x20\n        /* \"#utility.yul\":3490:3499   */\n      dup4\n        /* \"#utility.yul\":3486:3504   */\n      add\n        /* \"#utility.yul\":3477:3483   */\n      dup5\n        /* \"#utility.yul\":3387:3505   */\n      tag_99\n      jump\t// in\n    tag_141:\n        /* \"#utility.yul\":2936:3512   */\n      swap4\n      swap3\n      pop\n      pop\n      pop\n      jump\t// out\n        /* \"#utility.yul\":3518:3636   */\n    tag_100:\n        /* \"#utility.yul\":3605:3629   */\n      tag_143\n        /* \"#utility.yul\":3623:3628   */\n      dup2\n        /* \"#utility.yul\":3605:3629   */\n      tag_90\n      jump\t// in\n    tag_143:\n        /* \"#utility.yul\":3600:3603   */\n      dup3\n        /* \"#utility.yul\":3593:3630   */\n      mstore\n        /* \"#utility.yul\":3518:3636   */\n      pop\n      pop\n      jump\t// out\n        /* \"#utility.yul\":3642:3864   */\n    tag_19:\n        /* \"#utility.yul\":3735:3739   */\n      0x00\n        /* \"#utility.yul\":3773:3775   */\n      0x20\n        /* \"#utility.yul\":3762:3771   */\n      dup3\n        /* \"#utility.yul\":3758:3776   */\n      add\n        /* \"#utility.yul\":3750:3776   */\n      swap1\n      pop\n        /* \"#utility.yul\":3786:3857   */\n      tag_145\n        /* \"#utility.yul\":3854:3855   */\n      0x00\n        /* \"#utility.yul\":3843:3852   */\n      dup4\n        /* \"#utility.yul\":3839:3856   */\n      add\n        /* \"#utility.yul\":3830:3836   */\n      dup5\n        /* \"#utility.yul\":3786:3857   */\n      tag_100\n      jump\t// in\n    tag_145:\n        /* \"#utility.yul\":3642:3864   */\n      swap3\n      swap2\n      pop\n      pop\n      jump\t// out\n        /* \"#utility.yul\":3951:4068   */\n    tag_102:\n        /* \"#utility.yul\":4060:4061   */\n      0x00\n        /* \"#utility.yul\":4057:4058   */\n      dup1\n        /* \"#utility.yul\":4050:4062   */\n      revert\n        /* \"#utility.yul\":4197:4319   */\n    tag_104:\n        /* \"#utility.yul\":4270:4294   */\n      tag_150\n        /* \"#utility.yul\":4288:4293   */\n      dup2\n        /* \"#utility.yul\":4270:4294   */\n      tag_90\n      jump\t// in\n    tag_150:\n        /* \"#utility.yul\":4263:4268   */\n      dup2\n        /* \"#utility.yul\":4260:4295   */\n      eq\n        /* \"#utility.yul\":4250:4313   */\n      tag_151\n      jumpi\n        /* \"#utility.yul\":4309:4310   */\n      0x00\n        /* \"#utility.yul\":4306:4307   */\n      dup1\n        /* \"#utility.yul\":4299:4311   */\n      revert\n        /* \"#utility.yul\":4250:4313   */\n    tag_151:\n        /* \"#utility.yul\":4197:4319   */\n      pop\n      jump\t// out\n        /* \"#utility.yul\":4325:4464   */\n    tag_105:\n        /* \"#utility.yul\":4371:4376   */\n      0x00\n        /* \"#utility.yul\":4409:4415   */\n      dup2\n        /* \"#utility.yul\":4396:4416   */\n      calldataload\n        /* \"#utility.yul\":4387:4416   */\n      swap1\n      pop\n        /* \"#utility.yul\":4425:4458   */\n      tag_153\n        /* \"#utility.yul\":4452:4457   */\n      dup2\n        /* \"#utility.yul\":4425:4458   */\n      tag_104\n      jump\t// in\n    tag_153:\n        /* \"#utility.yul\":4325:4464   */\n      swap3\n      swap2\n      pop\n      pop\n      jump\t// out\n        /* \"#utility.yul\":4470:4799   */\n    tag_22:\n        /* \"#utility.yul\":4529:4535   */\n      0x00\n        /* \"#utility.yul\":4578:4580   */\n      0x20\n        /* \"#utility.yul\":4566:4575   */\n      dup3\n        /* \"#utility.yul\":4557:4564   */\n      dup5\n        /* \"#utility.yul\":4553:4576   */\n      sub\n        /* \"#utility.yul\":4549:4581   */\n      slt\n        /* \"#utility.yul\":4546:4665   */\n      iszero\n      tag_155\n      jumpi\n        /* \"#utility.yul\":4584:4663   */\n      tag_156\n      tag_102\n      jump\t// in\n    tag_156:\n        /* \"#utility.yul\":4546:4665   */\n    tag_155:\n        /* \"#utility.yul\":4704:4705   */\n      0x00\n        /* \"#utility.yul\":4729:4782   */\n      tag_157\n        /* \"#utility.yul\":4774:4781   */\n      dup5\n        /* \"#utility.yul\":4765:4771   */\n      dup3\n        /* \"#utility.yul\":4754:4763   */\n      dup6\n        /* \"#utility.yul\":4750:4772   */\n      add\n        /* \"#utility.yul\":4729:4782   */\n      tag_105\n      jump\t// in\n    tag_157:\n        /* \"#utility.yul\":4719:4782   */\n      swap2\n      pop\n        /* \"#utility.yul\":4675:4792   */\n      pop\n        /* \"#utility.yul\":4470:4799   */\n      swap3\n      swap2\n      pop\n      pop\n      jump\t// out\n        /* \"#utility.yul\":4805:5279   */\n    tag_32:\n        /* \"#utility.yul\":4873:4879   */\n      0x00\n        /* \"#utility.yul\":4881:4887   */\n      dup1\n        /* \"#utility.yul\":4930:4932   */\n      0x40\n        /* \"#utility.yul\":4918:4927   */\n      dup4\n        /* \"#utility.yul\":4909:4916   */\n      dup6\n        /* \"#utility.yul\":4905:4928   */\n      sub\n        /* \"#utility.yul\":4901:4933   */\n      slt\n        /* \"#utility.yul\":4898:5017   */\n      iszero\n      tag_159\n      jumpi\n        /* \"#utility.yul\":4936:5015   */\n      tag_160\n      tag_102\n      jump\t// in\n    tag_160:\n        /* \"#utility.yul\":4898:5017   */\n    tag_159:\n        /* \"#utility.yul\":5056:5057   */\n      0x00\n        /* \"#utility.yul\":5081:5134   */\n      tag_161\n        /* \"#utility.yul\":5126:5133   */\n      dup6\n        /* \"#utility.yul\":5117:5123   */\n      dup3\n        /* \"#utility.yul\":5106:5115   */\n      dup7\n        /* \"#utility.yul\":5102:5124   */\n      add\n        /* \"#utility.yul\":5081:5134   */\n      tag_105\n      jump\t// in\n    tag_161:\n        /* \"#utility.yul\":5071:5134   */\n      swap3\n      pop\n        /* \"#utility.yul\":5027:5144   */\n      pop\n        /* \"#utility.yul\":5183:5185   */\n      0x20\n        /* \"#utility.yul\":5209:5262   */\n      tag_162\n        /* \"#utility.yul\":5254:5261   */\n      dup6\n        /* \"#utility.yul\":5245:5251   */\n      dup3\n        /* \"#utility.yul\":5234:5243   */\n      dup7\n        /* \"#utility.yul\":5230:5252   */\n      add\n        /* \"#utility.yul\":5209:5262   */\n      tag_105\n      jump\t// in\n    tag_162:\n        /* \"#utility.yul\":5199:5262   */\n      swap2\n      pop\n        /* \"#utility.yul\":5154:5272   */\n      pop\n        /* \"#utility.yul\":4805:5279   */\n      swap3\n      pop\n      swap3\n      swap1\n      pop\n      jump\t// out\n        /* \"#utility.yul\":5285:5465   */\n    tag_55:\n        /* \"#utility.yul\":5333:5410   */\n      0x4e487b7100000000000000000000000000000000000000000000000000000000\n        /* \"#utility.yul\":5330:5331   */\n      0x00\n        /* \"#utility.yul\":5323:5411   */\n      mstore\n        /* \"#utility.yul\":5430:5434   */\n      0x32\n        /* \"#utility.yul\":5427:5428   */\n      0x04\n        /* \"#utility.yul\":5420:5435   */\n      mstore\n        /* \"#utility.yul\":5454:5458   */\n      0x24\n        /* \"#utility.yul\":5451:5452   */\n      0x00\n        /* \"#utility.yul\":5444:5459   */\n      revert\n        /* \"#utility.yul\":5471:5651   */\n    tag_106:\n        /* \"#utility.yul\":5519:5596   */\n      0x4e487b7100000000000000000000000000000000000000000000000000000000\n        /* \"#utility.yul\":5516:5517   */\n      0x00\n        /* \"#utility.yul\":5509:5597   */\n      mstore\n        /* \"#utility.yul\":5616:5620   */\n      0x11\n        /* \"#utility.yul\":5613:5614   */\n      0x04\n        /* \"#utility.yul\":5606:5621   */\n      mstore\n        /* \"#utility.yul\":5640:5644   */\n      0x24\n        /* \"#utility.yul\":5637:5638   */\n      0x00\n        /* \"#utility.yul\":5630:5645   */\n      revert\n        /* \"#utility.yul\":5657:5890   */\n    tag_59:\n        /* \"#utility.yul\":5696:5699   */\n      0x00\n        /* \"#utility.yul\":5719:5743   */\n      tag_166\n        /* \"#utility.yul\":5737:5742   */\n      dup3\n        /* \"#utility.yul\":5719:5743   */\n      tag_90\n      jump\t// in\n    tag_166:\n        /* \"#utility.yul\":5710:5743   */\n      swap2\n      pop\n        /* \"#utility.yul\":5765:5831   */\n      0xffffffffffffffffffffffffffffffffffffffffffffffffffffffffffffffff\n        /* \"#utility.yul\":5758:5763   */\n      dup3\n        /* \"#utility.yul\":5755:5832   */\n      sub\n        /* \"#utility.yul\":5752:5855   */\n      tag_167\n      jumpi\n        /* \"#utility.yul\":5835:5853   */\n      tag_168\n      tag_106\n      jump\t// in\n    tag_168:\n        /* \"#utility.yul\":5752:5855   */\n    tag_167:\n        /* \"#utility.yul\":5882:5883   */\n      0x01\n        /* \"#utility.yul\":5875:5880   */\n      dup3\n        /* \"#utility.yul\":5871:5884   */\n      add\n        /* \"#utility.yul\":5864:5884   */\n      swap1\n      pop\n        /* \"#utility.yul\":5657:5890   */\n      swap2\n      swap1\n      pop\n      jump\t// out\n        /* \"#utility.yul\":5896:6090   */\n    tag_79:\n        /* \"#utility.yul\":5936:5940   */\n      0x00\n        /* \"#utility.yul\":5956:5976   */\n      tag_170\n        /* \"#utility.yul\":5974:5975   */\n      dup3\n        /* \"#utility.yul\":5956:5976   */\n      tag_90\n      jump\t// in\n    tag_170:\n        /* \"#utility.yul\":5951:5976   */\n      swap2\n      pop\n        /* \"#utility.yul\":5990:6010   */\n      tag_171\n        /* \"#utility.yul\":6008:6009   */\n      dup4\n        /* \"#utility.yul\":5990:6010   */\n      tag_90\n      jump\t// in\n    tag_171:\n        /* \"#utility.yul\":5985:6010   */\n      swap3\n      pop\n        /* \"#utility.yul\":6034:6035   */\n      dup3\n        /* \"#utility.yul\":6031:6032   */\n      dup3\n        /* \"#utility.yul\":6027:6036   */\n      sub\n        /* \"#utility.yul\":6019:6036   */\n      swap1\n      pop\n        /* \"#utility.yul\":6058:6059   */\n      dup2\n        /* \"#utility.yul\":6052:6056   */\n      dup2\n        /* \"#utility.yul\":6049:6060   */\n      gt\n        /* \"#utility.yul\":6046:6083   */\n      iszero\n      tag_172\n      jumpi\n        /* \"#utility.yul\":6063:6081   */\n      tag_173\n      tag_106\n      jump\t// in\n    tag_173:\n        /* \"#utility.yul\":6046:6083   */\n    tag_172:\n        /* \"#utility.yul\":5896:6090   */\n      swap3\n      swap2\n      pop\n      pop\n      jump\t// out\n\n    auxdata: 0xa2646970667358221220b7c677a26ee0df03c4d9f14c94c3d8b92db46c1118379d318cb3835187e8e34564736f6c63430008120033\n}\n",
				"bytecode": {
					"linkReferences": {},
					"object": "608060405234801561001057600080fd5b50610740806100206000396000f3fe608060405234801561001057600080fd5b50600436106100885760003560e01c8063b97f72021161005b578063b97f720214610102578063c1f69ac31461011e578063cd580ff31461013a578063f0fdf8341461016a57610088565b80632b06cb2d1461008d5780632f7664fc146100ac5780634075b536146100ca57806340bb882d146100e6575b600080fd5b61009561019a565b6040516100a3929190610538565b60405180910390f35b6100b4610241565b6040516100c19190610577565b60405180910390f35b6100e460048036038101906100df91906105c3565b610294565b005b61010060048036038101906100fb91906105c3565b6102e3565b005b61011c600480360381019061011791906105c3565b61030f565b005b610138600480360381019061013391906105f0565b610346565b005b610154600480360381019061014f91906105c3565b61036f565b6040516101619190610577565b60405180910390f35b610184600480360381019061017f91906105c3565b61038a565b6040516101919190610577565b60405180910390f35b60606101a46103ae565b60006001818054806020026020016040519081016040528092919081815260200182805480156101f357602002820191906000526020600020905b8154815260200190600101908083116101df575b5050505050915080600480602002604051908101604052809291908260048015610232576020028201915b81548152602001906001019080831161021e575b50505050509050915091509091565b600080600090505b600481101561028b5760006001826004811061026857610267610630565b5b0154036102785780915050610291565b80806102839061068e565b915050610249565b50600490505b90565b600081036102a157600080fd5b60046102ab610241565b036102bf57600160006102be91906103d0565b5b8060016102ca610241565b600481106102db576102da610630565b5b018190555050565b600081908060018154018082558091505060019003906000526020600020016000909190919091505550565b8060016005546004811061032657610325610630565b5b01819055506005600081548092919061033e9061068e565b919050555050565b806001808461035591906106d6565b6004811061036657610365610630565b5b01819055505050565b6001816004811061037f57600080fd5b016000915090505481565b6000818154811061039a57600080fd5b906000526020600020016000915090505481565b6040518060800160405280600490602082028036833780820191505090505090565b5060008155600101600081556001016000815560010160009055565b600081519050919050565b600082825260208201905092915050565b6000819050602082019050919050565b6000819050919050565b61042b81610418565b82525050565b600061043d8383610422565b60208301905092915050565b6000602082019050919050565b6000610461826103ec565b61046b81856103f7565b935061047683610408565b8060005b838110156104a757815161048e8882610431565b975061049983610449565b92505060018101905061047a565b5085935050505092915050565b600060049050919050565b600081905092915050565b6000819050919050565b6000602082019050919050565b6104ea816104b4565b6104f481846104bf565b92506104ff826104ca565b8060005b838110156105305781516105178782610431565b9650610522836104d4565b925050600181019050610503565b505050505050565b600060a08201905081810360008301526105528185610456565b905061056160208301846104e1565b9392505050565b61057181610418565b82525050565b600060208201905061058c6000830184610568565b92915050565b600080fd5b6105a081610418565b81146105ab57600080fd5b50565b6000813590506105bd81610597565b92915050565b6000602082840312156105d9576105d8610592565b5b60006105e7848285016105ae565b91505092915050565b6000806040838503121561060757610606610592565b5b6000610615858286016105ae565b9250506020610626858286016105ae565b9150509250929050565b7f4e487b7100000000000000000000000000000000000000000000000000000000600052603260045260246000fd5b7f4e487b7100000000000000000000000000000000000000000000000000000000600052601160045260246000fd5b600061069982610418565b91507fffffffffffffffffffffffffffffffffffffffffffffffffffffffffffffffff82036106cb576106ca61065f565b5b600182019050919050565b60006106e182610418565b91506106ec83610418565b92508282039050818111156107045761070361065f565b5b9291505056fea2646970667358221220b7c677a26ee0df03c4d9f14c94c3d8b92db46c1118379d318cb3835187e8e34564736f6c63430008120033",
					"opcodes": "PUSH1 0x80 PUSH1 0x40 MSTORE CALLVALUE DUP1 ISZERO PUSH2 0x10 JUMPI PUSH1 0x0 DUP1 REVERT JUMPDEST POP PUSH2 0x740 DUP1 PUSH2 0x20 PUSH1 0x0 CODECOPY PUSH1 0x0 RETURN INVALID PUSH1 0x80 PUSH1 0x40 MSTORE CALLVALUE DUP1 ISZERO PUSH2 0x10 JUMPI PUSH1 0x0 DUP1 REVERT JUMPDEST POP PUSH1 0x4 CALLDATASIZE LT PUSH2 0x88 JUMPI PUSH1 0x0 CALLDATALOAD PUSH1 0xE0 SHR DUP1 PUSH4 0xB97F7202 GT PUSH2 0x5B JUMPI DUP1 PUSH4 0xB97F7202 EQ PUSH2 0x102 JUMPI DUP1 PUSH4 0xC1F69AC3 EQ PUSH2 0x11E JUMPI DUP1 PUSH4 0xCD580FF3 EQ PUSH2 0x13A JUMPI DUP1 PUSH4 0xF0FDF834 EQ PUSH2 0x16A JUMPI PUSH2 0x88 JUMP JUMPDEST DUP1 PUSH4 0x2B06CB2D EQ PUSH2 0x8D JUMPI DUP1 PUSH4 0x2F7664FC EQ PUSH2 0xAC JUMPI DUP1 PUSH4 0x4075B536 EQ PUSH2 0xCA JUMPI DUP1 PUSH4 0x40BB882D EQ PUSH2 0xE6 JUMPI JUMPDEST PUSH1 0x0 DUP1 REVERT JUMPDEST PUSH2 0x95 PUSH2 0x19A JUMP JUMPDEST PUSH1 0x40 MLOAD PUSH2 0xA3 SWAP3 SWAP2 SWAP1 PUSH2 0x538 JUMP JUMPDEST PUSH1 0x40 MLOAD DUP1 SWAP2 SUB SWAP1 RETURN JUMPDEST PUSH2 0xB4 PUSH2 0x241 JUMP JUMPDEST PUSH1 0x40 MLOAD PUSH2 0xC1 SWAP2 SWAP1 PUSH2 0x577 JUMP JUMPDEST PUSH1 0x40 MLOAD DUP1 SWAP2 SUB SWAP1 RETURN JUMPDEST PUSH2 0xE4 PUSH1 0x4 DUP1 CALLDATASIZE SUB DUP2 ADD SWAP1 PUSH2 0xDF SWAP2 SWAP1 PUSH2 0x5C3 JUMP JUMPDEST PUSH2 0x294 JUMP JUMPDEST STOP JUMPDEST PUSH2 0x100 PUSH1 0x4 DUP1 CALLDATASIZE SUB DUP2 ADD SWAP1 PUSH2 0xFB SWAP2 SWAP1 PUSH2 0x5C3 JUMP JUMPDEST PUSH2 0x2E3 JUMP JUMPDEST STOP JUMPDEST PUSH2 0x11C PUSH1 0x4 DUP1 CALLDATASIZE SUB DUP2 ADD SWAP1 PUSH2 0x117 SWAP2 SWAP1 PUSH2 0x5C3 JUMP JUMPDEST PUSH2 0x30F JUMP JUMPDEST STOP JUMPDEST PUSH2 0x138 PUSH1 0x4 DUP1 CALLDATASIZE SUB DUP2 ADD SWAP1 PUSH2 0x133 SWAP2 SWAP1 PUSH2 0x5F0 JUMP JUMPDEST PUSH2 0x346 JUMP JUMPDEST STOP JUMPDEST PUSH2 0x154 PUSH1 0x4 DUP1 CALLDATASIZE SUB DUP2 ADD SWAP1 PUSH2 0x14F SWAP2 SWAP1 PUSH2 0x5C3 JUMP JUMPDEST PUSH2 0x36F JUMP JUMPDEST PUSH1 0x40 MLOAD PUSH2 0x161 SWAP2 SWAP1 PUSH2 0x577 JUMP JUMPDEST PUSH1 0x40 MLOAD DUP1 SWAP2 SUB SWAP1 RETURN JUMPDEST PUSH2 0x184 PUSH1 0x4 DUP1 CALLDATASIZE SUB DUP2 ADD SWAP1 PUSH2 0x17F SWAP2 SWAP1 PUSH2 0x5C3 JUMP JUMPDEST PUSH2 0x38A JUMP JUMPDEST PUSH1 0x40 MLOAD PUSH2 0x191 SWAP2 SWAP1 PUSH2 0x577 JUMP JUMPDEST PUSH1 0x40 MLOAD DUP1 SWAP2 SUB SWAP1 RETURN JUMPDEST PUSH1 0x60 PUSH2 0x1A4 PUSH2 0x3AE JUMP JUMPDEST PUSH1 0x0 PUSH1 0x1 DUP2 DUP1 SLOAD DUP1 PUSH1 0x20 MUL PUSH1 0x20 ADD PUSH1 0x40 MLOAD SWAP1 DUP2 ADD PUSH1 0x40 MSTORE DUP1 SWAP3 SWAP2 SWAP1 DUP2 DUP2 MSTORE PUSH1 0x20 ADD DUP3 DUP1 SLOAD DUP1 ISZERO PUSH2 0x1F3 JUMPI PUSH1 0x20 MUL DUP3 ADD SWAP2 SWAP1 PUSH1 0x0 MSTORE PUSH1 0x20 PUSH1 0x0 KECCAK256 SWAP1 JUMPDEST DUP2 SLOAD DUP2 MSTORE PUSH1 0x20 ADD SWAP1 PUSH1 0x1 ADD SWAP1 DUP1 DUP4 GT PUSH2 0x1DF JUMPI JUMPDEST POP POP POP POP POP SWAP2 POP DUP1 PUSH1 0x4 DUP1 PUSH1 0x20 MUL PUSH1 0x40 MLOAD SWAP1 DUP2 ADD PUSH1 0x40 MSTORE DUP1 SWAP3 SWAP2 SWAP1 DUP3 PUSH1 0x4 DUP1 ISZERO PUSH2 0x232 JUMPI PUSH1 0x20 MUL DUP3 ADD SWAP2 JUMPDEST DUP2 SLOAD DUP2 MSTORE PUSH1 0x20 ADD SWAP1 PUSH1 0x1 ADD SWAP1 DUP1 DUP4 GT PUSH2 0x21E JUMPI JUMPDEST POP POP POP POP POP SWAP1 POP SWAP2 POP SWAP2 POP SWAP1 SWAP2 JUMP JUMPDEST PUSH1 0x0 DUP1 PUSH1 0x0 SWAP1 POP JUMPDEST PUSH1 0x4 DUP2 LT ISZERO PUSH2 0x28B JUMPI PUSH1 0x0 PUSH1 0x1 DUP3 PUSH1 0x4 DUP2 LT PUSH2 0x268 JUMPI PUSH2 0x267 PUSH2 0x630 JUMP JUMPDEST JUMPDEST ADD SLOAD SUB PUSH2 0x278 JUMPI DUP1 SWAP2 POP POP PUSH2 0x291 JUMP JUMPDEST DUP1 DUP1 PUSH2 0x283 SWAP1 PUSH2 0x68E JUMP JUMPDEST SWAP2 POP POP PUSH2 0x249 JUMP JUMPDEST POP PUSH1 0x4 SWAP1 POP JUMPDEST SWAP1 JUMP JUMPDEST PUSH1 0x0 DUP2 SUB PUSH2 0x2A1 JUMPI PUSH1 0x0 DUP1 REVERT JUMPDEST PUSH1 0x4 PUSH2 0x2AB PUSH2 0x241 JUMP JUMPDEST SUB PUSH2 0x2BF JUMPI PUSH1 0x1 PUSH1 0x0 PUSH2 0x2BE SWAP2 SWAP1 PUSH2 0x3D0 JUMP JUMPDEST JUMPDEST DUP1 PUSH1 0x1 PUSH2 0x2CA PUSH2 0x241 JUMP JUMPDEST PUSH1 0x4 DUP2 LT PUSH2 0x2DB JUMPI PUSH2 0x2DA PUSH2 0x630 JUMP JUMPDEST JUMPDEST ADD DUP2 SWAP1 SSTORE POP POP JUMP JUMPDEST PUSH1 0x0 DUP2 SWAP1 DUP1 PUSH1 0x1 DUP2 SLOAD ADD DUP1 DUP3 SSTORE DUP1 SWAP2 POP POP PUSH1 0x1 SWAP1 SUB SWAP1 PUSH1 0x0 MSTORE PUSH1 0x20 PUSH1 0x0 KECCAK256 ADD PUSH1 0x0 SWAP1 SWAP2 SWAP1 SWAP2 SWAP1 SWAP2 POP SSTORE POP JUMP JUMPDEST DUP1 PUSH1 0x1 PUSH1 0x5 SLOAD PUSH1 0x4 DUP2 LT PUSH2 0x326 JUMPI PUSH2 0x325 PUSH2 0x630 JUMP JUMPDEST JUMPDEST ADD DUP2 SWAP1 SSTORE POP PUSH1 0x5 PUSH1 0x0 DUP2 SLOAD DUP1 SWAP3 SWAP2 SWAP1 PUSH2 0x33E SWAP1 PUSH2 0x68E JUMP JUMPDEST SWAP2 SWAP1 POP SSTORE POP POP JUMP JUMPDEST DUP1 PUSH1 0x1 DUP1 DUP5 PUSH2 0x355 SWAP2 SWAP1 PUSH2 0x6D6 JUMP JUMPDEST PUSH1 0x4 DUP2 LT PUSH2 0x366 JUMPI PUSH2 0x365 PUSH2 0x630 JUMP JUMPDEST JUMPDEST ADD DUP2 SWAP1 SSTORE POP POP POP JUMP JUMPDEST PUSH1 0x1 DUP2 PUSH1 0x4 DUP2 LT PUSH2 0x37F JUMPI PUSH1 0x0 DUP1 REVERT JUMPDEST ADD PUSH1 0x0 SWAP2 POP SWAP1 POP SLOAD DUP2 JUMP JUMPDEST PUSH1 0x0 DUP2 DUP2 SLOAD DUP2 LT PUSH2 0x39A JUMPI PUSH1 0x0 DUP1 REVERT JUMPDEST SWAP1 PUSH1 0x0 MSTORE PUSH1 0x20 PUSH1 0x0 KECCAK256 ADD PUSH1 0x0 SWAP2 POP SWAP1 POP SLOAD DUP2 JUMP JUMPDEST PUSH1 0x40 MLOAD DUP1 PUSH1 0x80 ADD PUSH1 0x40 MSTORE DUP1 PUSH1 0x4 SWAP1 PUSH1 0x20 DUP3 MUL DUP1 CALLDATASIZE DUP4 CALLDATACOPY DUP1 DUP3 ADD SWAP2 POP POP SWAP1 POP POP SWAP1 JUMP JUMPDEST POP PUSH1 0x0 DUP2 SSTORE PUSH1 0x1 ADD PUSH1 0x0 DUP2 SSTORE PUSH1 0x1 ADD PUSH1 0x0 DUP2 SSTORE PUSH1 0x1 ADD PUSH1 0x0 SWAP1 SSTORE JUMP JUMPDEST PUSH1 0x0 DUP2 MLOAD SWAP1 POP SWAP2 SWAP1 POP JUMP JUMPDEST PUSH1 0x0 DUP3 DUP3 MSTORE PUSH1 0x20 DUP3 ADD SWAP1 POP SWAP3 SWAP2 POP POP JUMP JUMPDEST PUSH1 0x0 DUP2 SWAP1 POP PUSH1 0x20 DUP3 ADD SWAP1 POP SWAP2 SWAP1 POP JUMP JUMPDEST PUSH1 0x0 DUP2 SWAP1 POP SWAP2 SWAP1 POP JUMP JUMPDEST PUSH2 0x42B DUP2 PUSH2 0x418 JUMP JUMPDEST DUP3 MSTORE POP POP JUMP JUMPDEST PUSH1 0x0 PUSH2 0x43D DUP4 DUP4 PUSH2 0x422 JUMP JUMPDEST PUSH1 0x20 DUP4 ADD SWAP1 POP SWAP3 SWAP2 POP POP JUMP JUMPDEST PUSH1 0x0 PUSH1 0x20 DUP3 ADD SWAP1 POP SWAP2 SWAP1 POP JUMP JUMPDEST PUSH1 0x0 PUSH2 0x461 DUP3 PUSH2 0x3EC JUMP JUMPDEST PUSH2 0x46B DUP2 DUP6 PUSH2 0x3F7 JUMP JUMPDEST SWAP4 POP PUSH2 0x476 DUP4 PUSH2 0x408 JUMP JUMPDEST DUP1 PUSH1 0x0 JUMPDEST DUP4 DUP2 LT ISZERO PUSH2 0x4A7 JUMPI DUP2 MLOAD PUSH2 0x48E DUP9 DUP3 PUSH2 0x431 JUMP JUMPDEST SWAP8 POP PUSH2 0x499 DUP4 PUSH2 0x449 JUMP JUMPDEST SWAP3 POP POP PUSH1 0x1 DUP2 ADD SWAP1 POP PUSH2 0x47A JUMP JUMPDEST POP DUP6 SWAP4 POP POP POP POP SWAP3 SWAP2 POP POP JUMP JUMPDEST PUSH1 0x0 PUSH1 0x4 SWAP1 POP SWAP2 SWAP1 POP JUMP JUMPDEST PUSH1 0x0 DUP2 SWAP1 POP SWAP3 SWAP2 POP POP JUMP JUMPDEST PUSH1 0x0 DUP2 SWAP1 POP SWAP2 SWAP1 POP JUMP JUMPDEST PUSH1 0x0 PUSH1 0x20 DUP3 ADD SWAP1 POP SWAP2 SWAP1 POP JUMP JUMPDEST PUSH2 0x4EA DUP2 PUSH2 0x4B4 JUMP JUMPDEST PUSH2 0x4F4 DUP2 DUP5 PUSH2 0x4BF JUMP JUMPDEST SWAP3 POP PUSH2 0x4FF DUP3 PUSH2 0x4CA JUMP JUMPDEST DUP1 PUSH1 0x0 JUMPDEST DUP4 DUP2 LT ISZERO PUSH2 0x530 JUMPI DUP2 MLOAD PUSH2 0x517 DUP8 DUP3 PUSH2 0x431 JUMP JUMPDEST SWAP7 POP PUSH2 0x522 DUP4 PUSH2 0x4D4 JUMP JUMPDEST SWAP3 POP POP PUSH1 0x1 DUP2 ADD SWAP1 POP PUSH2 0x503 JUMP JUMPDEST POP POP POP POP POP POP JUMP JUMPDEST PUSH1 0x0 PUSH1 0xA0 DUP3 ADD SWAP1 POP DUP2 DUP2 SUB PUSH1 0x0 DUP4 ADD MSTORE PUSH2 0x552 DUP2 DUP6 PUSH2 0x456 JUMP JUMPDEST SWAP1 POP PUSH2 0x561 PUSH1 0x20 DUP4 ADD DUP5 PUSH2 0x4E1 JUMP JUMPDEST SWAP4 SWAP3 POP POP POP JUMP JUMPDEST PUSH2 0x571 DUP2 PUSH2 0x418 JUMP JUMPDEST DUP3 MSTORE POP POP JUMP JUMPDEST PUSH1 0x0 PUSH1 0x20 DUP3 ADD SWAP1 POP PUSH2 0x58C PUSH1 0x0 DUP4 ADD DUP5 PUSH2 0x568 JUMP JUMPDEST SWAP3 SWAP2 POP POP JUMP JUMPDEST PUSH1 0x0 DUP1 REVERT JUMPDEST PUSH2 0x5A0 DUP2 PUSH2 0x418 JUMP JUMPDEST DUP2 EQ PUSH2 0x5AB JUMPI PUSH1 0x0 DUP1 REVERT JUMPDEST POP JUMP JUMPDEST PUSH1 0x0 DUP2 CALLDATALOAD SWAP1 POP PUSH2 0x5BD DUP2 PUSH2 0x597 JUMP JUMPDEST SWAP3 SWAP2 POP POP JUMP JUMPDEST PUSH1 0x0 PUSH1 0x20 DUP3 DUP5 SUB SLT ISZERO PUSH2 0x5D9 JUMPI PUSH2 0x5D8 PUSH2 0x592 JUMP JUMPDEST JUMPDEST PUSH1 0x0 PUSH2 0x5E7 DUP5 DUP3 DUP6 ADD PUSH2 0x5AE JUMP JUMPDEST SWAP2 POP POP SWAP3 SWAP2 POP POP JUMP JUMPDEST PUSH1 0x0 DUP1 PUSH1 0x40 DUP4 DUP6 SUB SLT ISZERO PUSH2 0x607 JUMPI PUSH2 0x606 PUSH2 0x592 JUMP JUMPDEST JUMPDEST PUSH1 0x0 PUSH2 0x615 DUP6 DUP3 DUP7 ADD PUSH2 0x5AE JUMP JUMPDEST SWAP3 POP POP PUSH1 0x20 PUSH2 0x626 DUP6 DUP3 DUP7 ADD PUSH2 0x5AE JUMP JUMPDEST SWAP2 POP POP SWAP3 POP SWAP3 SWAP1 POP JUMP JUMPDEST PUSH32 0x4E487B7100000000000000000000000000000000000000000000000000000000 PUSH1 0x0 MSTORE PUSH1 0x32 PUSH1 0x4 MSTORE PUSH1 0x24 PUSH1 0x0 REVERT JUMPDEST PUSH32 0x4E487B7100000000000000000000000000000000000000000000000000000000 PUSH1 0x0 MSTORE PUSH1 0x11 PUSH1 0x4 MSTORE PUSH1 0x24 PUSH1 0x0 REVERT JUMPDEST PUSH1 0x0 PUSH2 0x699 DUP3 PUSH2 0x418 JUMP JUMPDEST SWAP2 POP PUSH32 0xFFFFFFFFFFFFFFFFFFFFFFFFFFFFFFFFFFFFFFFFFFFFFFFFFFFFFFFFFFFFFFFF DUP3 SUB PUSH2 0x6CB JUMPI PUSH2 0x6CA PUSH2 0x65F JUMP JUMPDEST JUMPDEST PUSH1 0x1 DUP3 ADD SWAP1 POP SWAP2 SWAP1 POP JUMP JUMPDEST PUSH1 0x0 PUSH2 0x6E1 DUP3 PUSH2 0x418 JUMP JUMPDEST SWAP2 POP PUSH2 0x6EC DUP4 PUSH2 0x418 JUMP JUMPDEST SWAP3 POP DUP3 DUP3 SUB SWAP1 POP DUP2 DUP2 GT ISZERO PUSH2 0x704 JUMPI PUSH2 0x703 PUSH2 0x65F JUMP JUMPDEST JUMPDEST SWAP3 SWAP2 POP POP JUMP INVALID LOG2 PUSH5 0x6970667358 0x22 SLT KECCAK256 0xB7 0xC6 PUSH24 0xA26EE0DF03C4D9F14C94C3D8B92DB46C1118379D318CB383 MLOAD DUP8 0xE8 0xE3 GASLIMIT PUSH5 0x736F6C6343 STOP ADDMOD SLT STOP CALLER "
				},
				"gasEstimates": {
					"creation": {
						"codeDepositCost": "371200",
						"executionCost": "405",
						"totalCost": "371605"
					},
					"external": {
						"a(uint256)": "infinite",
						"b(uint256)": "infinite",
						"getAB()": "infinite",
						"getLengthOfB()": "infinite",
						"pushA(uint256)": "46896",
						"pushB(uint256,uint256)": "infinite",
						"pushB2(uint256)": "infinite",
						"pushB3(uint256)": "infinite"
					}
				},
				"methodIdentifiers": {
					"a(uint256)": "f0fdf834",
					"b(uint256)": "cd580ff3",
					"getAB()": "2b06cb2d",
					"getLengthOfB()": "2f7664fc",
					"pushA(uint256)": "40bb882d",
					"pushB(uint256,uint256)": "c1f69ac3",
					"pushB2(uint256)": "b97f7202",
					"pushB3(uint256)": "4075b536"
				}
			},
			"storageLayout": {
				"storage": [
					{
						"astId": 4,
						"contract": "contracts-test/230616-test1(fixed)-answer.sol:FixedDynamic",
						"label": "a",
						"offset": 0,
						"slot": "0",
						"type": "t_array(t_uint256)dyn_storage"
					},
					{
						"astId": 8,
						"contract": "contracts-test/230616-test1(fixed)-answer.sol:FixedDynamic",
						"label": "b",
						"offset": 0,
						"slot": "1",
						"type": "t_array(t_uint256)4_storage"
					},
					{
						"astId": 10,
						"contract": "contracts-test/230616-test1(fixed)-answer.sol:FixedDynamic",
						"label": "count",
						"offset": 0,
						"slot": "5",
						"type": "t_uint256"
					}
				],
				"types": {
					"t_array(t_uint256)4_storage": {
						"base": "t_uint256",
						"encoding": "inplace",
						"label": "uint256[4]",
						"numberOfBytes": "128"
					},
					"t_array(t_uint256)dyn_storage": {
						"base": "t_uint256",
						"encoding": "dynamic_array",
						"label": "uint256[]",
						"numberOfBytes": "32"
					},
					"t_uint256": {
						"encoding": "inplace",
						"label": "uint256",
						"numberOfBytes": "32"
					}
				}
			},
			"userdoc": {
				"kind": "user",
				"methods": {},
				"version": 1
			}
		}
	}
}