{
	"contracts-test/230517-test1.sol": {
		"QUIZ5": {
			"abi": [
				{
					"inputs": [
						{
							"internalType": "uint256",
							"name": "_n",
							"type": "uint256"
						}
					],
					"name": "setNumber",
					"outputs": [
						{
							"internalType": "uint256",
							"name": "",
							"type": "uint256"
						},
						{
							"internalType": "uint256[]",
							"name": "",
							"type": "uint256[]"
						}
					],
					"stateMutability": "pure",
					"type": "function"
				},
				{
					"inputs": [
						{
							"internalType": "string",
							"name": "_str",
							"type": "string"
						}
					],
					"name": "setString",
					"outputs": [
						{
							"internalType": "uint256",
							"name": "",
							"type": "uint256"
						}
					],
					"stateMutability": "pure",
					"type": "function"
				}
			],
			"devdoc": {
				"kind": "dev",
				"methods": {},
				"version": 1
			},
			"evm": {
				"assembly": "    /* \"contracts-test/230517-test1.sol\":63:634  contract QUIZ5 {... */\n  mstore(0x40, 0x80)\n  callvalue\n  dup1\n  iszero\n  tag_1\n  jumpi\n  0x00\n  dup1\n  revert\ntag_1:\n  pop\n  dataSize(sub_0)\n  dup1\n  dataOffset(sub_0)\n  0x00\n  codecopy\n  0x00\n  return\nstop\n\nsub_0: assembly {\n        /* \"contracts-test/230517-test1.sol\":63:634  contract QUIZ5 {... */\n      mstore(0x40, 0x80)\n      callvalue\n      dup1\n      iszero\n      tag_1\n      jumpi\n      0x00\n      dup1\n      revert\n    tag_1:\n      pop\n      jumpi(tag_2, lt(calldatasize, 0x04))\n      shr(0xe0, calldataload(0x00))\n      dup1\n      0x3fb5c1cb\n      eq\n      tag_3\n      jumpi\n      dup1\n      0x7fcaf666\n      eq\n      tag_4\n      jumpi\n    tag_2:\n      0x00\n      dup1\n      revert\n        /* \"contracts-test/230517-test1.sol\":206:302  function setNumber(uint _n) public pure returns(uint, uint[] memory) {... */\n    tag_3:\n      tag_5\n      0x04\n      dup1\n      calldatasize\n      sub\n      dup2\n      add\n      swap1\n      tag_6\n      swap2\n      swap1\n      tag_7\n      jump\t// in\n    tag_6:\n      tag_8\n      jump\t// in\n    tag_5:\n      mload(0x40)\n      tag_9\n      swap3\n      swap2\n      swap1\n      tag_10\n      jump\t// in\n    tag_9:\n      mload(0x40)\n      dup1\n      swap2\n      sub\n      swap1\n      return\n        /* \"contracts-test/230517-test1.sol\":440:632  function setString(string memory _str) public pure returns(uint) {... */\n    tag_4:\n      tag_11\n      0x04\n      dup1\n      calldatasize\n      sub\n      dup2\n      add\n      swap1\n      tag_12\n      swap2\n      swap1\n      tag_13\n      jump\t// in\n    tag_12:\n      tag_14\n      jump\t// in\n    tag_11:\n      mload(0x40)\n      tag_15\n      swap2\n      swap1\n      tag_16\n      jump\t// in\n    tag_15:\n      mload(0x40)\n      dup1\n      swap2\n      sub\n      swap1\n      return\n        /* \"contracts-test/230517-test1.sol\":206:302  function setNumber(uint _n) public pure returns(uint, uint[] memory) {... */\n    tag_8:\n        /* \"contracts-test/230517-test1.sol\":254:258  uint */\n      0x00\n        /* \"contracts-test/230517-test1.sol\":260:273  uint[] memory */\n      0x60\n        /* \"contracts-test/230517-test1.sol\":206:302  function setNumber(uint _n) public pure returns(uint, uint[] memory) {... */\n      swap2\n      pop\n      swap2\n      jump\t// out\n        /* \"contracts-test/230517-test1.sol\":440:632  function setString(string memory _str) public pure returns(uint) {... */\n    tag_14:\n        /* \"contracts-test/230517-test1.sol\":499:503  uint */\n      0x00\n        /* \"contracts-test/230517-test1.sol\":515:538  bytes memory strToBytes */\n      dup1\n        /* \"contracts-test/230517-test1.sol\":547:551  _str */\n      dup3\n        /* \"contracts-test/230517-test1.sol\":515:552  bytes memory strToBytes = bytes(_str) */\n      swap1\n      pop\n        /* \"contracts-test/230517-test1.sol\":562:573  uint length */\n      0x00\n        /* \"contracts-test/230517-test1.sol\":576:586  strToBytes */\n      dup2\n        /* \"contracts-test/230517-test1.sol\":576:593  strToBytes.length */\n      mload\n        /* \"contracts-test/230517-test1.sol\":562:593  uint length = strToBytes.length */\n      swap1\n      pop\n        /* \"contracts-test/230517-test1.sol\":619:625  length */\n      dup1\n        /* \"contracts-test/230517-test1.sol\":612:625  return length */\n      swap3\n      pop\n      pop\n      pop\n        /* \"contracts-test/230517-test1.sol\":440:632  function setString(string memory _str) public pure returns(uint) {... */\n      swap2\n      swap1\n      pop\n      jump\t// out\n        /* \"#utility.yul\":7:82   */\n    tag_19:\n        /* \"#utility.yul\":40:46   */\n      0x00\n        /* \"#utility.yul\":73:75   */\n      0x40\n        /* \"#utility.yul\":67:76   */\n      mload\n        /* \"#utility.yul\":57:76   */\n      swap1\n      pop\n        /* \"#utility.yul\":7:82   */\n      swap1\n      jump\t// out\n        /* \"#utility.yul\":88:205   */\n    tag_20:\n        /* \"#utility.yul\":197:198   */\n      0x00\n        /* \"#utility.yul\":194:195   */\n      dup1\n        /* \"#utility.yul\":187:199   */\n      revert\n        /* \"#utility.yul\":211:328   */\n    tag_21:\n        /* \"#utility.yul\":320:321   */\n      0x00\n        /* \"#utility.yul\":317:318   */\n      dup1\n        /* \"#utility.yul\":310:322   */\n      revert\n        /* \"#utility.yul\":334:411   */\n    tag_22:\n        /* \"#utility.yul\":371:378   */\n      0x00\n        /* \"#utility.yul\":400:405   */\n      dup2\n        /* \"#utility.yul\":389:405   */\n      swap1\n      pop\n        /* \"#utility.yul\":334:411   */\n      swap2\n      swap1\n      pop\n      jump\t// out\n        /* \"#utility.yul\":417:539   */\n    tag_23:\n        /* \"#utility.yul\":490:514   */\n      tag_49\n        /* \"#utility.yul\":508:513   */\n      dup2\n        /* \"#utility.yul\":490:514   */\n      tag_22\n      jump\t// in\n    tag_49:\n        /* \"#utility.yul\":483:488   */\n      dup2\n        /* \"#utility.yul\":480:515   */\n      eq\n        /* \"#utility.yul\":470:533   */\n      tag_50\n      jumpi\n        /* \"#utility.yul\":529:530   */\n      0x00\n        /* \"#utility.yul\":526:527   */\n      dup1\n        /* \"#utility.yul\":519:531   */\n      revert\n        /* \"#utility.yul\":470:533   */\n    tag_50:\n        /* \"#utility.yul\":417:539   */\n      pop\n      jump\t// out\n        /* \"#utility.yul\":545:684   */\n    tag_24:\n        /* \"#utility.yul\":591:596   */\n      0x00\n        /* \"#utility.yul\":629:635   */\n      dup2\n        /* \"#utility.yul\":616:636   */\n      calldataload\n        /* \"#utility.yul\":607:636   */\n      swap1\n      pop\n        /* \"#utility.yul\":645:678   */\n      tag_52\n        /* \"#utility.yul\":672:677   */\n      dup2\n        /* \"#utility.yul\":645:678   */\n      tag_23\n      jump\t// in\n    tag_52:\n        /* \"#utility.yul\":545:684   */\n      swap3\n      swap2\n      pop\n      pop\n      jump\t// out\n        /* \"#utility.yul\":690:1019   */\n    tag_7:\n        /* \"#utility.yul\":749:755   */\n      0x00\n        /* \"#utility.yul\":798:800   */\n      0x20\n        /* \"#utility.yul\":786:795   */\n      dup3\n        /* \"#utility.yul\":777:784   */\n      dup5\n        /* \"#utility.yul\":773:796   */\n      sub\n        /* \"#utility.yul\":769:801   */\n      slt\n        /* \"#utility.yul\":766:885   */\n      iszero\n      tag_54\n      jumpi\n        /* \"#utility.yul\":804:883   */\n      tag_55\n      tag_20\n      jump\t// in\n    tag_55:\n        /* \"#utility.yul\":766:885   */\n    tag_54:\n        /* \"#utility.yul\":924:925   */\n      0x00\n        /* \"#utility.yul\":949:1002   */\n      tag_56\n        /* \"#utility.yul\":994:1001   */\n      dup5\n        /* \"#utility.yul\":985:991   */\n      dup3\n        /* \"#utility.yul\":974:983   */\n      dup6\n        /* \"#utility.yul\":970:992   */\n      add\n        /* \"#utility.yul\":949:1002   */\n      tag_24\n      jump\t// in\n    tag_56:\n        /* \"#utility.yul\":939:1002   */\n      swap2\n      pop\n        /* \"#utility.yul\":895:1012   */\n      pop\n        /* \"#utility.yul\":690:1019   */\n      swap3\n      swap2\n      pop\n      pop\n      jump\t// out\n        /* \"#utility.yul\":1025:1143   */\n    tag_25:\n        /* \"#utility.yul\":1112:1136   */\n      tag_58\n        /* \"#utility.yul\":1130:1135   */\n      dup2\n        /* \"#utility.yul\":1112:1136   */\n      tag_22\n      jump\t// in\n    tag_58:\n        /* \"#utility.yul\":1107:1110   */\n      dup3\n        /* \"#utility.yul\":1100:1137   */\n      mstore\n        /* \"#utility.yul\":1025:1143   */\n      pop\n      pop\n      jump\t// out\n        /* \"#utility.yul\":1149:1263   */\n    tag_26:\n        /* \"#utility.yul\":1216:1222   */\n      0x00\n        /* \"#utility.yul\":1250:1255   */\n      dup2\n        /* \"#utility.yul\":1244:1256   */\n      mload\n        /* \"#utility.yul\":1234:1256   */\n      swap1\n      pop\n        /* \"#utility.yul\":1149:1263   */\n      swap2\n      swap1\n      pop\n      jump\t// out\n        /* \"#utility.yul\":1269:1453   */\n    tag_27:\n        /* \"#utility.yul\":1368:1379   */\n      0x00\n        /* \"#utility.yul\":1402:1408   */\n      dup3\n        /* \"#utility.yul\":1397:1400   */\n      dup3\n        /* \"#utility.yul\":1390:1409   */\n      mstore\n        /* \"#utility.yul\":1442:1446   */\n      0x20\n        /* \"#utility.yul\":1437:1440   */\n      dup3\n        /* \"#utility.yul\":1433:1447   */\n      add\n        /* \"#utility.yul\":1418:1447   */\n      swap1\n      pop\n        /* \"#utility.yul\":1269:1453   */\n      swap3\n      swap2\n      pop\n      pop\n      jump\t// out\n        /* \"#utility.yul\":1459:1591   */\n    tag_28:\n        /* \"#utility.yul\":1526:1530   */\n      0x00\n        /* \"#utility.yul\":1549:1552   */\n      dup2\n        /* \"#utility.yul\":1541:1552   */\n      swap1\n      pop\n        /* \"#utility.yul\":1579:1583   */\n      0x20\n        /* \"#utility.yul\":1574:1577   */\n      dup3\n        /* \"#utility.yul\":1570:1584   */\n      add\n        /* \"#utility.yul\":1562:1584   */\n      swap1\n      pop\n        /* \"#utility.yul\":1459:1591   */\n      swap2\n      swap1\n      pop\n      jump\t// out\n        /* \"#utility.yul\":1597:1705   */\n    tag_29:\n        /* \"#utility.yul\":1674:1698   */\n      tag_63\n        /* \"#utility.yul\":1692:1697   */\n      dup2\n        /* \"#utility.yul\":1674:1698   */\n      tag_22\n      jump\t// in\n    tag_63:\n        /* \"#utility.yul\":1669:1672   */\n      dup3\n        /* \"#utility.yul\":1662:1699   */\n      mstore\n        /* \"#utility.yul\":1597:1705   */\n      pop\n      pop\n      jump\t// out\n        /* \"#utility.yul\":1711:1890   */\n    tag_30:\n        /* \"#utility.yul\":1780:1790   */\n      0x00\n        /* \"#utility.yul\":1801:1847   */\n      tag_65\n        /* \"#utility.yul\":1843:1846   */\n      dup4\n        /* \"#utility.yul\":1835:1841   */\n      dup4\n        /* \"#utility.yul\":1801:1847   */\n      tag_29\n      jump\t// in\n    tag_65:\n        /* \"#utility.yul\":1879:1883   */\n      0x20\n        /* \"#utility.yul\":1874:1877   */\n      dup4\n        /* \"#utility.yul\":1870:1884   */\n      add\n        /* \"#utility.yul\":1856:1884   */\n      swap1\n      pop\n        /* \"#utility.yul\":1711:1890   */\n      swap3\n      swap2\n      pop\n      pop\n      jump\t// out\n        /* \"#utility.yul\":1896:2009   */\n    tag_31:\n        /* \"#utility.yul\":1966:1970   */\n      0x00\n        /* \"#utility.yul\":1998:2002   */\n      0x20\n        /* \"#utility.yul\":1993:1996   */\n      dup3\n        /* \"#utility.yul\":1989:2003   */\n      add\n        /* \"#utility.yul\":1981:2003   */\n      swap1\n      pop\n        /* \"#utility.yul\":1896:2009   */\n      swap2\n      swap1\n      pop\n      jump\t// out\n        /* \"#utility.yul\":2045:2777   */\n    tag_32:\n        /* \"#utility.yul\":2164:2167   */\n      0x00\n        /* \"#utility.yul\":2193:2247   */\n      tag_68\n        /* \"#utility.yul\":2241:2246   */\n      dup3\n        /* \"#utility.yul\":2193:2247   */\n      tag_26\n      jump\t// in\n    tag_68:\n        /* \"#utility.yul\":2263:2349   */\n      tag_69\n        /* \"#utility.yul\":2342:2348   */\n      dup2\n        /* \"#utility.yul\":2337:2340   */\n      dup6\n        /* \"#utility.yul\":2263:2349   */\n      tag_27\n      jump\t// in\n    tag_69:\n        /* \"#utility.yul\":2256:2349   */\n      swap4\n      pop\n        /* \"#utility.yul\":2373:2429   */\n      tag_70\n        /* \"#utility.yul\":2423:2428   */\n      dup4\n        /* \"#utility.yul\":2373:2429   */\n      tag_28\n      jump\t// in\n    tag_70:\n        /* \"#utility.yul\":2452:2459   */\n      dup1\n        /* \"#utility.yul\":2483:2484   */\n      0x00\n        /* \"#utility.yul\":2468:2752   */\n    tag_71:\n        /* \"#utility.yul\":2493:2499   */\n      dup4\n        /* \"#utility.yul\":2490:2491   */\n      dup2\n        /* \"#utility.yul\":2487:2500   */\n      lt\n        /* \"#utility.yul\":2468:2752   */\n      iszero\n      tag_73\n      jumpi\n        /* \"#utility.yul\":2569:2575   */\n      dup2\n        /* \"#utility.yul\":2563:2576   */\n      mload\n        /* \"#utility.yul\":2596:2659   */\n      tag_74\n        /* \"#utility.yul\":2655:2658   */\n      dup9\n        /* \"#utility.yul\":2640:2653   */\n      dup3\n        /* \"#utility.yul\":2596:2659   */\n      tag_30\n      jump\t// in\n    tag_74:\n        /* \"#utility.yul\":2589:2659   */\n      swap8\n      pop\n        /* \"#utility.yul\":2682:2742   */\n      tag_75\n        /* \"#utility.yul\":2735:2741   */\n      dup4\n        /* \"#utility.yul\":2682:2742   */\n      tag_31\n      jump\t// in\n    tag_75:\n        /* \"#utility.yul\":2672:2742   */\n      swap3\n      pop\n        /* \"#utility.yul\":2528:2752   */\n      pop\n        /* \"#utility.yul\":2515:2516   */\n      0x01\n        /* \"#utility.yul\":2512:2513   */\n      dup2\n        /* \"#utility.yul\":2508:2517   */\n      add\n        /* \"#utility.yul\":2503:2517   */\n      swap1\n      pop\n        /* \"#utility.yul\":2468:2752   */\n      jump(tag_71)\n    tag_73:\n        /* \"#utility.yul\":2472:2486   */\n      pop\n        /* \"#utility.yul\":2768:2771   */\n      dup6\n        /* \"#utility.yul\":2761:2771   */\n      swap4\n      pop\n        /* \"#utility.yul\":2169:2777   */\n      pop\n      pop\n      pop\n        /* \"#utility.yul\":2045:2777   */\n      swap3\n      swap2\n      pop\n      pop\n      jump\t// out\n        /* \"#utility.yul\":2783:3266   */\n    tag_10:\n        /* \"#utility.yul\":2954:2958   */\n      0x00\n        /* \"#utility.yul\":2992:2994   */\n      0x40\n        /* \"#utility.yul\":2981:2990   */\n      dup3\n        /* \"#utility.yul\":2977:2995   */\n      add\n        /* \"#utility.yul\":2969:2995   */\n      swap1\n      pop\n        /* \"#utility.yul\":3005:3076   */\n      tag_77\n        /* \"#utility.yul\":3073:3074   */\n      0x00\n        /* \"#utility.yul\":3062:3071   */\n      dup4\n        /* \"#utility.yul\":3058:3075   */\n      add\n        /* \"#utility.yul\":3049:3055   */\n      dup6\n        /* \"#utility.yul\":3005:3076   */\n      tag_25\n      jump\t// in\n    tag_77:\n        /* \"#utility.yul\":3123:3132   */\n      dup2\n        /* \"#utility.yul\":3117:3121   */\n      dup2\n        /* \"#utility.yul\":3113:3133   */\n      sub\n        /* \"#utility.yul\":3108:3110   */\n      0x20\n        /* \"#utility.yul\":3097:3106   */\n      dup4\n        /* \"#utility.yul\":3093:3111   */\n      add\n        /* \"#utility.yul\":3086:3134   */\n      mstore\n        /* \"#utility.yul\":3151:3259   */\n      tag_78\n        /* \"#utility.yul\":3254:3258   */\n      dup2\n        /* \"#utility.yul\":3245:3251   */\n      dup5\n        /* \"#utility.yul\":3151:3259   */\n      tag_32\n      jump\t// in\n    tag_78:\n        /* \"#utility.yul\":3143:3259   */\n      swap1\n      pop\n        /* \"#utility.yul\":2783:3266   */\n      swap4\n      swap3\n      pop\n      pop\n      pop\n      jump\t// out\n        /* \"#utility.yul\":3272:3389   */\n    tag_33:\n        /* \"#utility.yul\":3381:3382   */\n      0x00\n        /* \"#utility.yul\":3378:3379   */\n      dup1\n        /* \"#utility.yul\":3371:3383   */\n      revert\n        /* \"#utility.yul\":3395:3512   */\n    tag_34:\n        /* \"#utility.yul\":3504:3505   */\n      0x00\n        /* \"#utility.yul\":3501:3502   */\n      dup1\n        /* \"#utility.yul\":3494:3506   */\n      revert\n        /* \"#utility.yul\":3518:3620   */\n    tag_35:\n        /* \"#utility.yul\":3559:3565   */\n      0x00\n        /* \"#utility.yul\":3610:3612   */\n      0x1f\n        /* \"#utility.yul\":3606:3613   */\n      not\n        /* \"#utility.yul\":3601:3603   */\n      0x1f\n        /* \"#utility.yul\":3594:3599   */\n      dup4\n        /* \"#utility.yul\":3590:3604   */\n      add\n        /* \"#utility.yul\":3586:3614   */\n      and\n        /* \"#utility.yul\":3576:3614   */\n      swap1\n      pop\n        /* \"#utility.yul\":3518:3620   */\n      swap2\n      swap1\n      pop\n      jump\t// out\n        /* \"#utility.yul\":3626:3806   */\n    tag_36:\n        /* \"#utility.yul\":3674:3751   */\n      0x4e487b7100000000000000000000000000000000000000000000000000000000\n        /* \"#utility.yul\":3671:3672   */\n      0x00\n        /* \"#utility.yul\":3664:3752   */\n      mstore\n        /* \"#utility.yul\":3771:3775   */\n      0x41\n        /* \"#utility.yul\":3768:3769   */\n      0x04\n        /* \"#utility.yul\":3761:3776   */\n      mstore\n        /* \"#utility.yul\":3795:3799   */\n      0x24\n        /* \"#utility.yul\":3792:3793   */\n      0x00\n        /* \"#utility.yul\":3785:3800   */\n      revert\n        /* \"#utility.yul\":3812:4093   */\n    tag_37:\n        /* \"#utility.yul\":3895:3922   */\n      tag_84\n        /* \"#utility.yul\":3917:3921   */\n      dup3\n        /* \"#utility.yul\":3895:3922   */\n      tag_35\n      jump\t// in\n    tag_84:\n        /* \"#utility.yul\":3887:3893   */\n      dup2\n        /* \"#utility.yul\":3883:3923   */\n      add\n        /* \"#utility.yul\":4025:4031   */\n      dup2\n        /* \"#utility.yul\":4013:4023   */\n      dup2\n        /* \"#utility.yul\":4010:4032   */\n      lt\n        /* \"#utility.yul\":3989:4007   */\n      0xffffffffffffffff\n        /* \"#utility.yul\":3977:3987   */\n      dup3\n        /* \"#utility.yul\":3974:4008   */\n      gt\n        /* \"#utility.yul\":3971:4033   */\n      or\n        /* \"#utility.yul\":3968:4056   */\n      iszero\n      tag_85\n      jumpi\n        /* \"#utility.yul\":4036:4054   */\n      tag_86\n      tag_36\n      jump\t// in\n    tag_86:\n        /* \"#utility.yul\":3968:4056   */\n    tag_85:\n        /* \"#utility.yul\":4076:4086   */\n      dup1\n        /* \"#utility.yul\":4072:4074   */\n      0x40\n        /* \"#utility.yul\":4065:4087   */\n      mstore\n        /* \"#utility.yul\":3855:4093   */\n      pop\n        /* \"#utility.yul\":3812:4093   */\n      pop\n      pop\n      jump\t// out\n        /* \"#utility.yul\":4099:4228   */\n    tag_38:\n        /* \"#utility.yul\":4133:4139   */\n      0x00\n        /* \"#utility.yul\":4160:4180   */\n      tag_88\n      tag_19\n      jump\t// in\n    tag_88:\n        /* \"#utility.yul\":4150:4180   */\n      swap1\n      pop\n        /* \"#utility.yul\":4189:4222   */\n      tag_89\n        /* \"#utility.yul\":4217:4221   */\n      dup3\n        /* \"#utility.yul\":4209:4215   */\n      dup3\n        /* \"#utility.yul\":4189:4222   */\n      tag_37\n      jump\t// in\n    tag_89:\n        /* \"#utility.yul\":4099:4228   */\n      swap2\n      swap1\n      pop\n      jump\t// out\n        /* \"#utility.yul\":4234:4542   */\n    tag_39:\n        /* \"#utility.yul\":4296:4300   */\n      0x00\n        /* \"#utility.yul\":4386:4404   */\n      0xffffffffffffffff\n        /* \"#utility.yul\":4378:4384   */\n      dup3\n        /* \"#utility.yul\":4375:4405   */\n      gt\n        /* \"#utility.yul\":4372:4428   */\n      iszero\n      tag_91\n      jumpi\n        /* \"#utility.yul\":4408:4426   */\n      tag_92\n      tag_36\n      jump\t// in\n    tag_92:\n        /* \"#utility.yul\":4372:4428   */\n    tag_91:\n        /* \"#utility.yul\":4446:4475   */\n      tag_93\n        /* \"#utility.yul\":4468:4474   */\n      dup3\n        /* \"#utility.yul\":4446:4475   */\n      tag_35\n      jump\t// in\n    tag_93:\n        /* \"#utility.yul\":4438:4475   */\n      swap1\n      pop\n        /* \"#utility.yul\":4530:4534   */\n      0x20\n        /* \"#utility.yul\":4524:4528   */\n      dup2\n        /* \"#utility.yul\":4520:4535   */\n      add\n        /* \"#utility.yul\":4512:4535   */\n      swap1\n      pop\n        /* \"#utility.yul\":4234:4542   */\n      swap2\n      swap1\n      pop\n      jump\t// out\n        /* \"#utility.yul\":4548:4694   */\n    tag_40:\n        /* \"#utility.yul\":4645:4651   */\n      dup3\n        /* \"#utility.yul\":4640:4643   */\n      dup2\n        /* \"#utility.yul\":4635:4638   */\n      dup4\n        /* \"#utility.yul\":4622:4652   */\n      calldatacopy\n        /* \"#utility.yul\":4686:4687   */\n      0x00\n        /* \"#utility.yul\":4677:4683   */\n      dup4\n        /* \"#utility.yul\":4672:4675   */\n      dup4\n        /* \"#utility.yul\":4668:4684   */\n      add\n        /* \"#utility.yul\":4661:4688   */\n      mstore\n        /* \"#utility.yul\":4548:4694   */\n      pop\n      pop\n      pop\n      jump\t// out\n        /* \"#utility.yul\":4700:5125   */\n    tag_41:\n        /* \"#utility.yul\":4778:4783   */\n      0x00\n        /* \"#utility.yul\":4803:4869   */\n      tag_96\n        /* \"#utility.yul\":4819:4868   */\n      tag_97\n        /* \"#utility.yul\":4861:4867   */\n      dup5\n        /* \"#utility.yul\":4819:4868   */\n      tag_39\n      jump\t// in\n    tag_97:\n        /* \"#utility.yul\":4803:4869   */\n      tag_38\n      jump\t// in\n    tag_96:\n        /* \"#utility.yul\":4794:4869   */\n      swap1\n      pop\n        /* \"#utility.yul\":4892:4898   */\n      dup3\n        /* \"#utility.yul\":4885:4890   */\n      dup2\n        /* \"#utility.yul\":4878:4899   */\n      mstore\n        /* \"#utility.yul\":4930:4934   */\n      0x20\n        /* \"#utility.yul\":4923:4928   */\n      dup2\n        /* \"#utility.yul\":4919:4935   */\n      add\n        /* \"#utility.yul\":4968:4971   */\n      dup5\n        /* \"#utility.yul\":4959:4965   */\n      dup5\n        /* \"#utility.yul\":4954:4957   */\n      dup5\n        /* \"#utility.yul\":4950:4966   */\n      add\n        /* \"#utility.yul\":4947:4972   */\n      gt\n        /* \"#utility.yul\":4944:5056   */\n      iszero\n      tag_98\n      jumpi\n        /* \"#utility.yul\":4975:5054   */\n      tag_99\n      tag_34\n      jump\t// in\n    tag_99:\n        /* \"#utility.yul\":4944:5056   */\n    tag_98:\n        /* \"#utility.yul\":5065:5119   */\n      tag_100\n        /* \"#utility.yul\":5112:5118   */\n      dup5\n        /* \"#utility.yul\":5107:5110   */\n      dup3\n        /* \"#utility.yul\":5102:5105   */\n      dup6\n        /* \"#utility.yul\":5065:5119   */\n      tag_40\n      jump\t// in\n    tag_100:\n        /* \"#utility.yul\":4784:5125   */\n      pop\n        /* \"#utility.yul\":4700:5125   */\n      swap4\n      swap3\n      pop\n      pop\n      pop\n      jump\t// out\n        /* \"#utility.yul\":5145:5485   */\n    tag_42:\n        /* \"#utility.yul\":5201:5206   */\n      0x00\n        /* \"#utility.yul\":5250:5253   */\n      dup3\n        /* \"#utility.yul\":5243:5247   */\n      0x1f\n        /* \"#utility.yul\":5235:5241   */\n      dup4\n        /* \"#utility.yul\":5231:5248   */\n      add\n        /* \"#utility.yul\":5227:5254   */\n      slt\n        /* \"#utility.yul\":5217:5339   */\n      tag_102\n      jumpi\n        /* \"#utility.yul\":5258:5337   */\n      tag_103\n      tag_33\n      jump\t// in\n    tag_103:\n        /* \"#utility.yul\":5217:5339   */\n    tag_102:\n        /* \"#utility.yul\":5375:5381   */\n      dup2\n        /* \"#utility.yul\":5362:5382   */\n      calldataload\n        /* \"#utility.yul\":5400:5479   */\n      tag_104\n        /* \"#utility.yul\":5475:5478   */\n      dup5\n        /* \"#utility.yul\":5467:5473   */\n      dup3\n        /* \"#utility.yul\":5460:5464   */\n      0x20\n        /* \"#utility.yul\":5452:5458   */\n      dup7\n        /* \"#utility.yul\":5448:5465   */\n      add\n        /* \"#utility.yul\":5400:5479   */\n      tag_41\n      jump\t// in\n    tag_104:\n        /* \"#utility.yul\":5391:5479   */\n      swap2\n      pop\n        /* \"#utility.yul\":5207:5485   */\n      pop\n        /* \"#utility.yul\":5145:5485   */\n      swap3\n      swap2\n      pop\n      pop\n      jump\t// out\n        /* \"#utility.yul\":5491:6000   */\n    tag_13:\n        /* \"#utility.yul\":5560:5566   */\n      0x00\n        /* \"#utility.yul\":5609:5611   */\n      0x20\n        /* \"#utility.yul\":5597:5606   */\n      dup3\n        /* \"#utility.yul\":5588:5595   */\n      dup5\n        /* \"#utility.yul\":5584:5607   */\n      sub\n        /* \"#utility.yul\":5580:5612   */\n      slt\n        /* \"#utility.yul\":5577:5696   */\n      iszero\n      tag_106\n      jumpi\n        /* \"#utility.yul\":5615:5694   */\n      tag_107\n      tag_20\n      jump\t// in\n    tag_107:\n        /* \"#utility.yul\":5577:5696   */\n    tag_106:\n        /* \"#utility.yul\":5763:5764   */\n      0x00\n        /* \"#utility.yul\":5752:5761   */\n      dup3\n        /* \"#utility.yul\":5748:5765   */\n      add\n        /* \"#utility.yul\":5735:5766   */\n      calldataload\n        /* \"#utility.yul\":5793:5811   */\n      0xffffffffffffffff\n        /* \"#utility.yul\":5785:5791   */\n      dup2\n        /* \"#utility.yul\":5782:5812   */\n      gt\n        /* \"#utility.yul\":5779:5896   */\n      iszero\n      tag_108\n      jumpi\n        /* \"#utility.yul\":5815:5894   */\n      tag_109\n      tag_21\n      jump\t// in\n    tag_109:\n        /* \"#utility.yul\":5779:5896   */\n    tag_108:\n        /* \"#utility.yul\":5920:5983   */\n      tag_110\n        /* \"#utility.yul\":5975:5982   */\n      dup5\n        /* \"#utility.yul\":5966:5972   */\n      dup3\n        /* \"#utility.yul\":5955:5964   */\n      dup6\n        /* \"#utility.yul\":5951:5973   */\n      add\n        /* \"#utility.yul\":5920:5983   */\n      tag_42\n      jump\t// in\n    tag_110:\n        /* \"#utility.yul\":5910:5983   */\n      swap2\n      pop\n        /* \"#utility.yul\":5706:5993   */\n      pop\n        /* \"#utility.yul\":5491:6000   */\n      swap3\n      swap2\n      pop\n      pop\n      jump\t// out\n        /* \"#utility.yul\":6006:6228   */\n    tag_16:\n        /* \"#utility.yul\":6099:6103   */\n      0x00\n        /* \"#utility.yul\":6137:6139   */\n      0x20\n        /* \"#utility.yul\":6126:6135   */\n      dup3\n        /* \"#utility.yul\":6122:6140   */\n      add\n        /* \"#utility.yul\":6114:6140   */\n      swap1\n      pop\n        /* \"#utility.yul\":6150:6221   */\n      tag_112\n        /* \"#utility.yul\":6218:6219   */\n      0x00\n        /* \"#utility.yul\":6207:6216   */\n      dup4\n        /* \"#utility.yul\":6203:6220   */\n      add\n        /* \"#utility.yul\":6194:6200   */\n      dup5\n        /* \"#utility.yul\":6150:6221   */\n      tag_25\n      jump\t// in\n    tag_112:\n        /* \"#utility.yul\":6006:6228   */\n      swap3\n      swap2\n      pop\n      pop\n      jump\t// out\n\n    auxdata: 0xa264697066735822122093237857f30646ec51fca0518e413b2b59281fe528c8b6e7478b7a7262d67ff564736f6c63430008120033\n}\n",
				"bytecode": {
					"linkReferences": {},
					"object": "608060405234801561001057600080fd5b5061040f806100206000396000f3fe608060405234801561001057600080fd5b50600436106100365760003560e01c80633fb5c1cb1461003b5780637fcaf6661461006c575b600080fd5b61005560048036038101906100509190610105565b61009c565b6040516100639291906101ff565b60405180910390f35b61008660048036038101906100819190610375565b6100a5565b60405161009391906103be565b60405180910390f35b60006060915091565b6000808290506000815190508092505050919050565b6000604051905090565b600080fd5b600080fd5b6000819050919050565b6100e2816100cf565b81146100ed57600080fd5b50565b6000813590506100ff816100d9565b92915050565b60006020828403121561011b5761011a6100c5565b5b6000610129848285016100f0565b91505092915050565b61013b816100cf565b82525050565b600081519050919050565b600082825260208201905092915050565b6000819050602082019050919050565b610176816100cf565b82525050565b6000610188838361016d565b60208301905092915050565b6000602082019050919050565b60006101ac82610141565b6101b6818561014c565b93506101c18361015d565b8060005b838110156101f25781516101d9888261017c565b97506101e483610194565b9250506001810190506101c5565b5085935050505092915050565b60006040820190506102146000830185610132565b818103602083015261022681846101a1565b90509392505050565b600080fd5b600080fd5b6000601f19601f8301169050919050565b7f4e487b7100000000000000000000000000000000000000000000000000000000600052604160045260246000fd5b61028282610239565b810181811067ffffffffffffffff821117156102a1576102a061024a565b5b80604052505050565b60006102b46100bb565b90506102c08282610279565b919050565b600067ffffffffffffffff8211156102e0576102df61024a565b5b6102e982610239565b9050602081019050919050565b82818337600083830152505050565b6000610318610313846102c5565b6102aa565b90508281526020810184848401111561033457610333610234565b5b61033f8482856102f6565b509392505050565b600082601f83011261035c5761035b61022f565b5b813561036c848260208601610305565b91505092915050565b60006020828403121561038b5761038a6100c5565b5b600082013567ffffffffffffffff8111156103a9576103a86100ca565b5b6103b584828501610347565b91505092915050565b60006020820190506103d36000830184610132565b9291505056fea264697066735822122093237857f30646ec51fca0518e413b2b59281fe528c8b6e7478b7a7262d67ff564736f6c63430008120033",
					"opcodes": "PUSH1 0x80 PUSH1 0x40 MSTORE CALLVALUE DUP1 ISZERO PUSH2 0x10 JUMPI PUSH1 0x0 DUP1 REVERT JUMPDEST POP PUSH2 0x40F DUP1 PUSH2 0x20 PUSH1 0x0 CODECOPY PUSH1 0x0 RETURN INVALID PUSH1 0x80 PUSH1 0x40 MSTORE CALLVALUE DUP1 ISZERO PUSH2 0x10 JUMPI PUSH1 0x0 DUP1 REVERT JUMPDEST POP PUSH1 0x4 CALLDATASIZE LT PUSH2 0x36 JUMPI PUSH1 0x0 CALLDATALOAD PUSH1 0xE0 SHR DUP1 PUSH4 0x3FB5C1CB EQ PUSH2 0x3B JUMPI DUP1 PUSH4 0x7FCAF666 EQ PUSH2 0x6C JUMPI JUMPDEST PUSH1 0x0 DUP1 REVERT JUMPDEST PUSH2 0x55 PUSH1 0x4 DUP1 CALLDATASIZE SUB DUP2 ADD SWAP1 PUSH2 0x50 SWAP2 SWAP1 PUSH2 0x105 JUMP JUMPDEST PUSH2 0x9C JUMP JUMPDEST PUSH1 0x40 MLOAD PUSH2 0x63 SWAP3 SWAP2 SWAP1 PUSH2 0x1FF JUMP JUMPDEST PUSH1 0x40 MLOAD DUP1 SWAP2 SUB SWAP1 RETURN JUMPDEST PUSH2 0x86 PUSH1 0x4 DUP1 CALLDATASIZE SUB DUP2 ADD SWAP1 PUSH2 0x81 SWAP2 SWAP1 PUSH2 0x375 JUMP JUMPDEST PUSH2 0xA5 JUMP JUMPDEST PUSH1 0x40 MLOAD PUSH2 0x93 SWAP2 SWAP1 PUSH2 0x3BE JUMP JUMPDEST PUSH1 0x40 MLOAD DUP1 SWAP2 SUB SWAP1 RETURN JUMPDEST PUSH1 0x0 PUSH1 0x60 SWAP2 POP SWAP2 JUMP JUMPDEST PUSH1 0x0 DUP1 DUP3 SWAP1 POP PUSH1 0x0 DUP2 MLOAD SWAP1 POP DUP1 SWAP3 POP POP POP SWAP2 SWAP1 POP JUMP JUMPDEST PUSH1 0x0 PUSH1 0x40 MLOAD SWAP1 POP SWAP1 JUMP JUMPDEST PUSH1 0x0 DUP1 REVERT JUMPDEST PUSH1 0x0 DUP1 REVERT JUMPDEST PUSH1 0x0 DUP2 SWAP1 POP SWAP2 SWAP1 POP JUMP JUMPDEST PUSH2 0xE2 DUP2 PUSH2 0xCF JUMP JUMPDEST DUP2 EQ PUSH2 0xED JUMPI PUSH1 0x0 DUP1 REVERT JUMPDEST POP JUMP JUMPDEST PUSH1 0x0 DUP2 CALLDATALOAD SWAP1 POP PUSH2 0xFF DUP2 PUSH2 0xD9 JUMP JUMPDEST SWAP3 SWAP2 POP POP JUMP JUMPDEST PUSH1 0x0 PUSH1 0x20 DUP3 DUP5 SUB SLT ISZERO PUSH2 0x11B JUMPI PUSH2 0x11A PUSH2 0xC5 JUMP JUMPDEST JUMPDEST PUSH1 0x0 PUSH2 0x129 DUP5 DUP3 DUP6 ADD PUSH2 0xF0 JUMP JUMPDEST SWAP2 POP POP SWAP3 SWAP2 POP POP JUMP JUMPDEST PUSH2 0x13B DUP2 PUSH2 0xCF JUMP JUMPDEST DUP3 MSTORE POP POP JUMP JUMPDEST PUSH1 0x0 DUP2 MLOAD SWAP1 POP SWAP2 SWAP1 POP JUMP JUMPDEST PUSH1 0x0 DUP3 DUP3 MSTORE PUSH1 0x20 DUP3 ADD SWAP1 POP SWAP3 SWAP2 POP POP JUMP JUMPDEST PUSH1 0x0 DUP2 SWAP1 POP PUSH1 0x20 DUP3 ADD SWAP1 POP SWAP2 SWAP1 POP JUMP JUMPDEST PUSH2 0x176 DUP2 PUSH2 0xCF JUMP JUMPDEST DUP3 MSTORE POP POP JUMP JUMPDEST PUSH1 0x0 PUSH2 0x188 DUP4 DUP4 PUSH2 0x16D JUMP JUMPDEST PUSH1 0x20 DUP4 ADD SWAP1 POP SWAP3 SWAP2 POP POP JUMP JUMPDEST PUSH1 0x0 PUSH1 0x20 DUP3 ADD SWAP1 POP SWAP2 SWAP1 POP JUMP JUMPDEST PUSH1 0x0 PUSH2 0x1AC DUP3 PUSH2 0x141 JUMP JUMPDEST PUSH2 0x1B6 DUP2 DUP6 PUSH2 0x14C JUMP JUMPDEST SWAP4 POP PUSH2 0x1C1 DUP4 PUSH2 0x15D JUMP JUMPDEST DUP1 PUSH1 0x0 JUMPDEST DUP4 DUP2 LT ISZERO PUSH2 0x1F2 JUMPI DUP2 MLOAD PUSH2 0x1D9 DUP9 DUP3 PUSH2 0x17C JUMP JUMPDEST SWAP8 POP PUSH2 0x1E4 DUP4 PUSH2 0x194 JUMP JUMPDEST SWAP3 POP POP PUSH1 0x1 DUP2 ADD SWAP1 POP PUSH2 0x1C5 JUMP JUMPDEST POP DUP6 SWAP4 POP POP POP POP SWAP3 SWAP2 POP POP JUMP JUMPDEST PUSH1 0x0 PUSH1 0x40 DUP3 ADD SWAP1 POP PUSH2 0x214 PUSH1 0x0 DUP4 ADD DUP6 PUSH2 0x132 JUMP JUMPDEST DUP2 DUP2 SUB PUSH1 0x20 DUP4 ADD MSTORE PUSH2 0x226 DUP2 DUP5 PUSH2 0x1A1 JUMP JUMPDEST SWAP1 POP SWAP4 SWAP3 POP POP POP JUMP JUMPDEST PUSH1 0x0 DUP1 REVERT JUMPDEST PUSH1 0x0 DUP1 REVERT JUMPDEST PUSH1 0x0 PUSH1 0x1F NOT PUSH1 0x1F DUP4 ADD AND SWAP1 POP SWAP2 SWAP1 POP JUMP JUMPDEST PUSH32 0x4E487B7100000000000000000000000000000000000000000000000000000000 PUSH1 0x0 MSTORE PUSH1 0x41 PUSH1 0x4 MSTORE PUSH1 0x24 PUSH1 0x0 REVERT JUMPDEST PUSH2 0x282 DUP3 PUSH2 0x239 JUMP JUMPDEST DUP2 ADD DUP2 DUP2 LT PUSH8 0xFFFFFFFFFFFFFFFF DUP3 GT OR ISZERO PUSH2 0x2A1 JUMPI PUSH2 0x2A0 PUSH2 0x24A JUMP JUMPDEST JUMPDEST DUP1 PUSH1 0x40 MSTORE POP POP POP JUMP JUMPDEST PUSH1 0x0 PUSH2 0x2B4 PUSH2 0xBB JUMP JUMPDEST SWAP1 POP PUSH2 0x2C0 DUP3 DUP3 PUSH2 0x279 JUMP JUMPDEST SWAP2 SWAP1 POP JUMP JUMPDEST PUSH1 0x0 PUSH8 0xFFFFFFFFFFFFFFFF DUP3 GT ISZERO PUSH2 0x2E0 JUMPI PUSH2 0x2DF PUSH2 0x24A JUMP JUMPDEST JUMPDEST PUSH2 0x2E9 DUP3 PUSH2 0x239 JUMP JUMPDEST SWAP1 POP PUSH1 0x20 DUP2 ADD SWAP1 POP SWAP2 SWAP1 POP JUMP JUMPDEST DUP3 DUP2 DUP4 CALLDATACOPY PUSH1 0x0 DUP4 DUP4 ADD MSTORE POP POP POP JUMP JUMPDEST PUSH1 0x0 PUSH2 0x318 PUSH2 0x313 DUP5 PUSH2 0x2C5 JUMP JUMPDEST PUSH2 0x2AA JUMP JUMPDEST SWAP1 POP DUP3 DUP2 MSTORE PUSH1 0x20 DUP2 ADD DUP5 DUP5 DUP5 ADD GT ISZERO PUSH2 0x334 JUMPI PUSH2 0x333 PUSH2 0x234 JUMP JUMPDEST JUMPDEST PUSH2 0x33F DUP5 DUP3 DUP6 PUSH2 0x2F6 JUMP JUMPDEST POP SWAP4 SWAP3 POP POP POP JUMP JUMPDEST PUSH1 0x0 DUP3 PUSH1 0x1F DUP4 ADD SLT PUSH2 0x35C JUMPI PUSH2 0x35B PUSH2 0x22F JUMP JUMPDEST JUMPDEST DUP2 CALLDATALOAD PUSH2 0x36C DUP5 DUP3 PUSH1 0x20 DUP7 ADD PUSH2 0x305 JUMP JUMPDEST SWAP2 POP POP SWAP3 SWAP2 POP POP JUMP JUMPDEST PUSH1 0x0 PUSH1 0x20 DUP3 DUP5 SUB SLT ISZERO PUSH2 0x38B JUMPI PUSH2 0x38A PUSH2 0xC5 JUMP JUMPDEST JUMPDEST PUSH1 0x0 DUP3 ADD CALLDATALOAD PUSH8 0xFFFFFFFFFFFFFFFF DUP2 GT ISZERO PUSH2 0x3A9 JUMPI PUSH2 0x3A8 PUSH2 0xCA JUMP JUMPDEST JUMPDEST PUSH2 0x3B5 DUP5 DUP3 DUP6 ADD PUSH2 0x347 JUMP JUMPDEST SWAP2 POP POP SWAP3 SWAP2 POP POP JUMP JUMPDEST PUSH1 0x0 PUSH1 0x20 DUP3 ADD SWAP1 POP PUSH2 0x3D3 PUSH1 0x0 DUP4 ADD DUP5 PUSH2 0x132 JUMP JUMPDEST SWAP3 SWAP2 POP POP JUMP INVALID LOG2 PUSH5 0x6970667358 0x22 SLT KECCAK256 SWAP4 0x23 PUSH25 0x57F30646EC51FCA0518E413B2B59281FE528C8B6E7478B7A72 PUSH3 0xD67FF5 PUSH5 0x736F6C6343 STOP ADDMOD SLT STOP CALLER "
				},
				"gasEstimates": {
					"creation": {
						"codeDepositCost": "207800",
						"executionCost": "251",
						"totalCost": "208051"
					},
					"external": {
						"setNumber(uint256)": "infinite",
						"setString(string)": "infinite"
					}
				},
				"methodIdentifiers": {
					"setNumber(uint256)": "3fb5c1cb",
					"setString(string)": "7fcaf666"
				}
			},
			"storageLayout": {
				"storage": [],
				"types": null
			},
			"userdoc": {
				"kind": "user",
				"methods": {},
				"version": 1
			}
		}
	}
}