{
	"contracts-test/230515-QUIZ3-answer.sol": {
		"Q3": {
			"abi": [
				{
					"inputs": [],
					"stateMutability": "nonpayable",
					"type": "constructor"
				},
				{
					"inputs": [],
					"name": "accel",
					"outputs": [],
					"stateMutability": "nonpayable",
					"type": "function"
				},
				{
					"inputs": [],
					"name": "breakCar",
					"outputs": [],
					"stateMutability": "nonpayable",
					"type": "function"
				},
				{
					"inputs": [],
					"name": "deposit",
					"outputs": [],
					"stateMutability": "payable",
					"type": "function"
				},
				{
					"inputs": [],
					"name": "myCar",
					"outputs": [
						{
							"internalType": "enum Q3.carStatus",
							"name": "status",
							"type": "uint8"
						},
						{
							"internalType": "uint256",
							"name": "fuelGauage",
							"type": "uint256"
						},
						{
							"internalType": "uint256",
							"name": "speed",
							"type": "uint256"
						}
					],
					"stateMutability": "view",
					"type": "function"
				},
				{
					"inputs": [],
					"name": "owner",
					"outputs": [
						{
							"internalType": "address payable",
							"name": "",
							"type": "address"
						}
					],
					"stateMutability": "view",
					"type": "function"
				},
				{
					"inputs": [],
					"name": "prePaid",
					"outputs": [
						{
							"internalType": "uint256",
							"name": "",
							"type": "uint256"
						}
					],
					"stateMutability": "view",
					"type": "function"
				},
				{
					"inputs": [],
					"name": "reCharge",
					"outputs": [],
					"stateMutability": "payable",
					"type": "function"
				},
				{
					"inputs": [],
					"name": "turnOff",
					"outputs": [],
					"stateMutability": "nonpayable",
					"type": "function"
				},
				{
					"inputs": [],
					"name": "turnOn",
					"outputs": [],
					"stateMutability": "nonpayable",
					"type": "function"
				},
				{
					"inputs": [],
					"name": "withdraw",
					"outputs": [],
					"stateMutability": "nonpayable",
					"type": "function"
				}
			],
			"devdoc": {
				"kind": "dev",
				"methods": {},
				"version": 1
			},
			"evm": {
				"assembly": "    /* \"contracts-test/230515-QUIZ3-answer.sol\":1279:4802  contract Q3 {... */\n  mstore(0x40, 0x80)\n    /* \"contracts-test/230515-QUIZ3-answer.sol\":1657:1876  constructor(/*필요하면 input값을 받아서 실행해야함*/) {... */\n  callvalue\n  dup1\n  iszero\n  tag_1\n  jumpi\n  0x00\n  dup1\n  revert\ntag_1:\n  pop\n    /* \"contracts-test/230515-QUIZ3-answer.sol\":1751:1793  0xAb8483F64d9C6d1EcF9b849Ae677dD3315835cb2 */\n  0xab8483f64d9c6d1ecf9b849ae677dd3315835cb2\n    /* \"contracts-test/230515-QUIZ3-answer.sol\":1735:1740  owner */\n  0x03\n  0x00\n    /* \"contracts-test/230515-QUIZ3-answer.sol\":1735:1794  owner = payable(0xAb8483F64d9C6d1EcF9b849Ae677dD3315835cb2) */\n  0x0100\n  exp\n  dup2\n  sload\n  dup2\n  0xffffffffffffffffffffffffffffffffffffffff\n  mul\n  not\n  and\n  swap1\n  dup4\n  0xffffffffffffffffffffffffffffffffffffffff\n  and\n  mul\n  or\n  swap1\n  sstore\n  pop\n    /* \"contracts-test/230515-QUIZ3-answer.sol\":1279:4802  contract Q3 {... */\n  dataSize(sub_0)\n  dup1\n  dataOffset(sub_0)\n  0x00\n  codecopy\n  0x00\n  return\nstop\n\nsub_0: assembly {\n        /* \"contracts-test/230515-QUIZ3-answer.sol\":1279:4802  contract Q3 {... */\n      mstore(0x40, 0x80)\n      jumpi(tag_1, lt(calldatasize, 0x04))\n      shr(0xe0, calldataload(0x00))\n      dup1\n      0xaf10c810\n      gt\n      tag_12\n      jumpi\n      dup1\n      0xaf10c810\n      eq\n      tag_7\n      jumpi\n      dup1\n      0xba33ed7d\n      eq\n      tag_8\n      jumpi\n      dup1\n      0xd0e30db0\n      eq\n      tag_9\n      jumpi\n      dup1\n      0xda127f2e\n      eq\n      tag_10\n      jumpi\n      dup1\n      0xf282df78\n      eq\n      tag_11\n      jumpi\n      jump(tag_1)\n    tag_12:\n      dup1\n      0x3446136a\n      eq\n      tag_2\n      jumpi\n      dup1\n      0x3ccfd60b\n      eq\n      tag_3\n      jumpi\n      dup1\n      0x8da5cb5b\n      eq\n      tag_4\n      jumpi\n      dup1\n      0x96f1c1a8\n      eq\n      tag_5\n      jumpi\n      dup1\n      0x9cdde813\n      eq\n      tag_6\n      jumpi\n    tag_1:\n      0x00\n      dup1\n      revert\n        /* \"contracts-test/230515-QUIZ3-answer.sol\":3837:4370  function reCharge() public payable {... */\n    tag_2:\n      tag_13\n      tag_14\n      jump\t// in\n    tag_13:\n      stop\n        /* \"contracts-test/230515-QUIZ3-answer.sol\":4481:4598  function withdraw() public {... */\n    tag_3:\n      callvalue\n      dup1\n      iszero\n      tag_15\n      jumpi\n      0x00\n      dup1\n      revert\n    tag_15:\n      pop\n      tag_16\n      tag_17\n      jump\t// in\n    tag_16:\n      stop\n        /* \"contracts-test/230515-QUIZ3-answer.sol\":1622:1650  address payable public owner */\n    tag_4:\n      callvalue\n      dup1\n      iszero\n      tag_18\n      jumpi\n      0x00\n      dup1\n      revert\n    tag_18:\n      pop\n      tag_19\n      tag_20\n      jump\t// in\n    tag_19:\n      mload(0x40)\n      tag_21\n      swap2\n      swap1\n      tag_22\n      jump\t// in\n    tag_21:\n      mload(0x40)\n      dup1\n      swap2\n      sub\n      swap1\n      return\n        /* \"contracts-test/230515-QUIZ3-answer.sol\":2588:2965  function breakCar() public {... */\n    tag_5:\n      callvalue\n      dup1\n      iszero\n      tag_23\n      jumpi\n      0x00\n      dup1\n      revert\n    tag_23:\n      pop\n      tag_24\n      tag_25\n      jump\t// in\n    tag_24:\n      stop\n        /* \"contracts-test/230515-QUIZ3-answer.sol\":1600:1616  car public myCar */\n    tag_6:\n      callvalue\n      dup1\n      iszero\n      tag_26\n      jumpi\n      0x00\n      dup1\n      revert\n    tag_26:\n      pop\n      tag_27\n      tag_28\n      jump\t// in\n    tag_27:\n      mload(0x40)\n      tag_29\n      swap4\n      swap3\n      swap2\n      swap1\n      tag_30\n      jump\t// in\n    tag_29:\n      mload(0x40)\n      dup1\n      swap2\n      sub\n      swap1\n      return\n        /* \"contracts-test/230515-QUIZ3-answer.sol\":3081:3432  function turnOff() public {... */\n    tag_7:\n      callvalue\n      dup1\n      iszero\n      tag_31\n      jumpi\n      0x00\n      dup1\n      revert\n    tag_31:\n      pop\n      tag_32\n      tag_33\n      jump\t// in\n    tag_32:\n      stop\n        /* \"contracts-test/230515-QUIZ3-answer.sol\":3539:3720  function turnOn() public {... */\n    tag_8:\n      callvalue\n      dup1\n      iszero\n      tag_34\n      jumpi\n      0x00\n      dup1\n      revert\n    tag_34:\n      pop\n      tag_35\n      tag_36\n      jump\t// in\n    tag_35:\n      stop\n        /* \"contracts-test/230515-QUIZ3-answer.sol\":4693:4800  function deposit() public payable {... */\n    tag_9:\n      tag_37\n      tag_38\n      jump\t// in\n    tag_37:\n      stop\n        /* \"contracts-test/230515-QUIZ3-answer.sol\":4667:4686  uint public prePaid */\n    tag_10:\n      callvalue\n      dup1\n      iszero\n      tag_39\n      jumpi\n      0x00\n      dup1\n      revert\n    tag_39:\n      pop\n      tag_40\n      tag_41\n      jump\t// in\n    tag_40:\n      mload(0x40)\n      tag_42\n      swap2\n      swap1\n      tag_43\n      jump\t// in\n    tag_42:\n      mload(0x40)\n      dup1\n      swap2\n      sub\n      swap1\n      return\n        /* \"contracts-test/230515-QUIZ3-answer.sol\":2114:2401  function accel() public {... */\n    tag_11:\n      callvalue\n      dup1\n      iszero\n      tag_44\n      jumpi\n      0x00\n      dup1\n      revert\n    tag_44:\n      pop\n      tag_45\n      tag_46\n      jump\t// in\n    tag_45:\n      stop\n        /* \"contracts-test/230515-QUIZ3-answer.sol\":3837:4370  function reCharge() public payable {... */\n    tag_14:\n        /* \"contracts-test/230515-QUIZ3-answer.sol\":3903:3909  10**18 */\n      0x0de0b6b3a7640000\n        /* \"contracts-test/230515-QUIZ3-answer.sol\":3892:3899  prePaid */\n      sload(0x04)\n        /* \"contracts-test/230515-QUIZ3-answer.sol\":3892:3909  prePaid >= 10**18 */\n      lt\n      iszero\n        /* \"contracts-test/230515-QUIZ3-answer.sol\":3892:3926  prePaid >= 10**18 && msg.value ==0 */\n      dup1\n      iszero\n      tag_48\n      jumpi\n      pop\n        /* \"contracts-test/230515-QUIZ3-answer.sol\":3925:3926  0 */\n      0x00\n        /* \"contracts-test/230515-QUIZ3-answer.sol\":3913:3922  msg.value */\n      callvalue\n        /* \"contracts-test/230515-QUIZ3-answer.sol\":3913:3926  msg.value ==0 */\n      eq\n        /* \"contracts-test/230515-QUIZ3-answer.sol\":3892:3926  prePaid >= 10**18 && msg.value ==0 */\n    tag_48:\n        /* \"contracts-test/230515-QUIZ3-answer.sol\":3891:3950  (prePaid >= 10**18 && msg.value ==0) || msg.value == 10**18 */\n      dup1\n      tag_49\n      jumpi\n      pop\n        /* \"contracts-test/230515-QUIZ3-answer.sol\":3944:3950  10**18 */\n      0x0de0b6b3a7640000\n        /* \"contracts-test/230515-QUIZ3-answer.sol\":3931:3940  msg.value */\n      callvalue\n        /* \"contracts-test/230515-QUIZ3-answer.sol\":3931:3950  msg.value == 10**18 */\n      eq\n        /* \"contracts-test/230515-QUIZ3-answer.sol\":3891:3950  (prePaid >= 10**18 && msg.value ==0) || msg.value == 10**18 */\n    tag_49:\n        /* \"contracts-test/230515-QUIZ3-answer.sol\":3890:3990  ((prePaid >= 10**18 && msg.value ==0) || msg.value == 10**18) && myCar.status == carStatus.turnedOff */\n      dup1\n      iszero\n      tag_50\n      jumpi\n      pop\n        /* \"contracts-test/230515-QUIZ3-answer.sol\":3971:3990  carStatus.turnedOff */\n      0x02\n        /* \"contracts-test/230515-QUIZ3-answer.sol\":3955:3990  myCar.status == carStatus.turnedOff */\n      0x03\n      dup2\n      gt\n      iszero\n      tag_51\n      jumpi\n      tag_52\n      tag_53\n      jump\t// in\n    tag_52:\n    tag_51:\n        /* \"contracts-test/230515-QUIZ3-answer.sol\":3955:3960  myCar */\n      0x00\n        /* \"contracts-test/230515-QUIZ3-answer.sol\":3955:3967  myCar.status */\n      dup1\n      add\n      0x00\n      swap1\n      sload\n      swap1\n      0x0100\n      exp\n      swap1\n      div\n      0xff\n      and\n        /* \"contracts-test/230515-QUIZ3-answer.sol\":3955:3990  myCar.status == carStatus.turnedOff */\n      0x03\n      dup2\n      gt\n      iszero\n      tag_54\n      jumpi\n      tag_55\n      tag_53\n      jump\t// in\n    tag_55:\n    tag_54:\n      eq\n        /* \"contracts-test/230515-QUIZ3-answer.sol\":3890:3990  ((prePaid >= 10**18 && msg.value ==0) || msg.value == 10**18) && myCar.status == carStatus.turnedOff */\n    tag_50:\n        /* \"contracts-test/230515-QUIZ3-answer.sol\":3882:3991  require(((prePaid >= 10**18 && msg.value ==0) || msg.value == 10**18) && myCar.status == carStatus.turnedOff) */\n      tag_56\n      jumpi\n      0x00\n      dup1\n      revert\n    tag_56:\n        /* \"contracts-test/230515-QUIZ3-answer.sol\":4281:4287  10**18 */\n      0x0de0b6b3a7640000\n        /* \"contracts-test/230515-QUIZ3-answer.sol\":4268:4277  msg.value */\n      callvalue\n        /* \"contracts-test/230515-QUIZ3-answer.sol\":4268:4287  msg.value != 10**18 */\n      eq\n        /* \"contracts-test/230515-QUIZ3-answer.sol\":4265:4331  if(msg.value != 10**18) {... */\n      tag_57\n      jumpi\n        /* \"contracts-test/230515-QUIZ3-answer.sol\":4314:4320  10**18 */\n      0x0de0b6b3a7640000\n        /* \"contracts-test/230515-QUIZ3-answer.sol\":4303:4310  prePaid */\n      0x04\n      0x00\n        /* \"contracts-test/230515-QUIZ3-answer.sol\":4303:4320  prePaid -= 10**18 */\n      dup3\n      dup3\n      sload\n      tag_58\n      swap2\n      swap1\n      tag_59\n      jump\t// in\n    tag_58:\n      swap3\n      pop\n      pop\n      dup2\n      swap1\n      sstore\n      pop\n        /* \"contracts-test/230515-QUIZ3-answer.sol\":4265:4331  if(msg.value != 10**18) {... */\n    tag_57:\n        /* \"contracts-test/230515-QUIZ3-answer.sol\":4360:4363  100 */\n      0x64\n        /* \"contracts-test/230515-QUIZ3-answer.sol\":4341:4346  myCar */\n      0x00\n        /* \"contracts-test/230515-QUIZ3-answer.sol\":4341:4357  myCar.fuelGauage */\n      0x01\n      add\n        /* \"contracts-test/230515-QUIZ3-answer.sol\":4341:4363  myCar.fuelGauage = 100 */\n      dup2\n      swap1\n      sstore\n      pop\n        /* \"contracts-test/230515-QUIZ3-answer.sol\":3837:4370  function reCharge() public payable {... */\n      jump\t// out\n        /* \"contracts-test/230515-QUIZ3-answer.sol\":4481:4598  function withdraw() public {... */\n    tag_17:\n        /* \"contracts-test/230515-QUIZ3-answer.sol\":4533:4543  msg.sender */\n      caller\n        /* \"contracts-test/230515-QUIZ3-answer.sol\":4526:4543  owner==msg.sender */\n      0xffffffffffffffffffffffffffffffffffffffff\n      and\n        /* \"contracts-test/230515-QUIZ3-answer.sol\":4526:4531  owner */\n      0x03\n      0x00\n      swap1\n      sload\n      swap1\n      0x0100\n      exp\n      swap1\n      div\n      0xffffffffffffffffffffffffffffffffffffffff\n      and\n        /* \"contracts-test/230515-QUIZ3-answer.sol\":4526:4543  owner==msg.sender */\n      0xffffffffffffffffffffffffffffffffffffffff\n      and\n      eq\n        /* \"contracts-test/230515-QUIZ3-answer.sol\":4518:4544  require(owner==msg.sender) */\n      tag_61\n      jumpi\n      0x00\n      dup1\n      revert\n    tag_61:\n        /* \"contracts-test/230515-QUIZ3-answer.sol\":4554:4559  owner */\n      0x03\n      0x00\n      swap1\n      sload\n      swap1\n      0x0100\n      exp\n      swap1\n      div\n      0xffffffffffffffffffffffffffffffffffffffff\n      and\n        /* \"contracts-test/230515-QUIZ3-answer.sol\":4554:4568  owner.transfer */\n      0xffffffffffffffffffffffffffffffffffffffff\n      and\n        /* \"contracts-test/230515-QUIZ3-answer.sol\":4554:4591  owner.transfer(address(this).balance) */\n      0x08fc\n        /* \"contracts-test/230515-QUIZ3-answer.sol\":4569:4590  address(this).balance */\n      selfbalance\n        /* \"contracts-test/230515-QUIZ3-answer.sol\":4554:4591  owner.transfer(address(this).balance) */\n      swap1\n      dup2\n      iszero\n      mul\n      swap1\n      mload(0x40)\n      0x00\n      mload(0x40)\n      dup1\n      dup4\n      sub\n      dup2\n      dup6\n      dup9\n      dup9\n      call\n      swap4\n      pop\n      pop\n      pop\n      pop\n      iszero\n      dup1\n      iszero\n      tag_63\n      jumpi\n      returndatasize\n      0x00\n      dup1\n      returndatacopy\n      revert(0x00, returndatasize)\n    tag_63:\n      pop\n        /* \"contracts-test/230515-QUIZ3-answer.sol\":4481:4598  function withdraw() public {... */\n      jump\t// out\n        /* \"contracts-test/230515-QUIZ3-answer.sol\":1622:1650  address payable public owner */\n    tag_20:\n      0x03\n      0x00\n      swap1\n      sload\n      swap1\n      0x0100\n      exp\n      swap1\n      div\n      0xffffffffffffffffffffffffffffffffffffffff\n      and\n      dup2\n      jump\t// out\n        /* \"contracts-test/230515-QUIZ3-answer.sol\":2588:2965  function breakCar() public {... */\n    tag_25:\n        /* \"contracts-test/230515-QUIZ3-answer.sol\":2672:2691  carStatus.turnedOff */\n      0x02\n        /* \"contracts-test/230515-QUIZ3-answer.sol\":2656:2691  myCar.status != carStatus.turnedOff */\n      0x03\n      dup2\n      gt\n      iszero\n      tag_65\n      jumpi\n      tag_66\n      tag_53\n      jump\t// in\n    tag_66:\n    tag_65:\n        /* \"contracts-test/230515-QUIZ3-answer.sol\":2656:2661  myCar */\n      0x00\n        /* \"contracts-test/230515-QUIZ3-answer.sol\":2656:2668  myCar.status */\n      dup1\n      add\n      0x00\n      swap1\n      sload\n      swap1\n      0x0100\n      exp\n      swap1\n      div\n      0xff\n      and\n        /* \"contracts-test/230515-QUIZ3-answer.sol\":2656:2691  myCar.status != carStatus.turnedOff */\n      0x03\n      dup2\n      gt\n      iszero\n      tag_67\n      jumpi\n      tag_68\n      tag_53\n      jump\t// in\n    tag_68:\n    tag_67:\n      eq\n      iszero\n        /* \"contracts-test/230515-QUIZ3-answer.sol\":2656:2725  myCar.status != carStatus.turnedOff && myCar.status != carStatus.stop */\n      dup1\n      iszero\n      tag_69\n      jumpi\n      pop\n        /* \"contracts-test/230515-QUIZ3-answer.sol\":2711:2725  carStatus.stop */\n      0x00\n        /* \"contracts-test/230515-QUIZ3-answer.sol\":2695:2725  myCar.status != carStatus.stop */\n      0x03\n      dup2\n      gt\n      iszero\n      tag_70\n      jumpi\n      tag_71\n      tag_53\n      jump\t// in\n    tag_71:\n    tag_70:\n        /* \"contracts-test/230515-QUIZ3-answer.sol\":2695:2700  myCar */\n      0x00\n        /* \"contracts-test/230515-QUIZ3-answer.sol\":2695:2707  myCar.status */\n      dup1\n      add\n      0x00\n      swap1\n      sload\n      swap1\n      0x0100\n      exp\n      swap1\n      div\n      0xff\n      and\n        /* \"contracts-test/230515-QUIZ3-answer.sol\":2695:2725  myCar.status != carStatus.stop */\n      0x03\n      dup2\n      gt\n      iszero\n      tag_72\n      jumpi\n      tag_73\n      tag_53\n      jump\t// in\n    tag_73:\n    tag_72:\n      eq\n      iszero\n        /* \"contracts-test/230515-QUIZ3-answer.sol\":2656:2725  myCar.status != carStatus.turnedOff && myCar.status != carStatus.stop */\n    tag_69:\n        /* \"contracts-test/230515-QUIZ3-answer.sol\":2625:2726  require(/*myCar.speed !=0 &&*/ myCar.status != carStatus.turnedOff && myCar.status != carStatus.stop) */\n      tag_74\n      jumpi\n      0x00\n      dup1\n      revert\n    tag_74:\n        /* \"contracts-test/230515-QUIZ3-answer.sol\":2736:2741  myCar */\n      0x00\n        /* \"contracts-test/230515-QUIZ3-answer.sol\":2736:2747  myCar.speed */\n      0x02\n      add\n      0x00\n        /* \"contracts-test/230515-QUIZ3-answer.sol\":2736:2749  myCar.speed-- */\n      dup2\n      sload\n      dup1\n      swap3\n      swap2\n      swap1\n      tag_75\n      swap1\n      tag_76\n      jump\t// in\n    tag_75:\n      swap2\n      swap1\n      pop\n      sstore\n      pop\n        /* \"contracts-test/230515-QUIZ3-answer.sol\":2759:2764  myCar */\n      0x00\n        /* \"contracts-test/230515-QUIZ3-answer.sol\":2759:2775  myCar.fuelGauage */\n      0x01\n      add\n      0x00\n        /* \"contracts-test/230515-QUIZ3-answer.sol\":2759:2778  myCar.fuelGauage -- */\n      dup2\n      sload\n      dup1\n      swap3\n      swap2\n      swap1\n      tag_77\n      swap1\n      tag_76\n      jump\t// in\n    tag_77:\n      swap2\n      swap1\n      pop\n      sstore\n      pop\n        /* \"contracts-test/230515-QUIZ3-answer.sol\":2807:2808  0 */\n      0x00\n        /* \"contracts-test/230515-QUIZ3-answer.sol\":2792:2797  myCar */\n      dup1\n        /* \"contracts-test/230515-QUIZ3-answer.sol\":2792:2803  myCar.speed */\n      0x02\n      add\n      sload\n        /* \"contracts-test/230515-QUIZ3-answer.sol\":2792:2808  myCar.speed == 0 */\n      sub\n        /* \"contracts-test/230515-QUIZ3-answer.sol\":2789:2864  if(myCar.speed == 0) {... */\n      tag_78\n      jumpi\n        /* \"contracts-test/230515-QUIZ3-answer.sol\":2839:2853  carStatus.stop */\n      0x00\n        /* \"contracts-test/230515-QUIZ3-answer.sol\":2824:2829  myCar */\n      dup1\n        /* \"contracts-test/230515-QUIZ3-answer.sol\":2824:2836  myCar.status */\n      0x00\n      add\n      0x00\n        /* \"contracts-test/230515-QUIZ3-answer.sol\":2824:2853  myCar.status = carStatus.stop */\n      0x0100\n      exp\n      dup2\n      sload\n      dup2\n      0xff\n      mul\n      not\n      and\n      swap1\n      dup4\n      0x03\n      dup2\n      gt\n      iszero\n      tag_79\n      jumpi\n      tag_80\n      tag_53\n      jump\t// in\n    tag_80:\n    tag_79:\n      mul\n      or\n      swap1\n      sstore\n      pop\n        /* \"contracts-test/230515-QUIZ3-answer.sol\":2789:2864  if(myCar.speed == 0) {... */\n    tag_78:\n        /* \"contracts-test/230515-QUIZ3-answer.sol\":2897:2898  0 */\n      0x00\n        /* \"contracts-test/230515-QUIZ3-answer.sol\":2877:2882  myCar */\n      dup1\n        /* \"contracts-test/230515-QUIZ3-answer.sol\":2877:2893  myCar.fuelGauage */\n      0x01\n      add\n      sload\n        /* \"contracts-test/230515-QUIZ3-answer.sol\":2877:2898  myCar.fuelGauage == 0 */\n      sub\n        /* \"contracts-test/230515-QUIZ3-answer.sol\":2874:2959  if(myCar.fuelGauage == 0) {... */\n      tag_81\n      jumpi\n        /* \"contracts-test/230515-QUIZ3-answer.sol\":2929:2948  carStatus.outOfFuel */\n      0x03\n        /* \"contracts-test/230515-QUIZ3-answer.sol\":2914:2919  myCar */\n      0x00\n        /* \"contracts-test/230515-QUIZ3-answer.sol\":2914:2926  myCar.status */\n      dup1\n      add\n      0x00\n        /* \"contracts-test/230515-QUIZ3-answer.sol\":2914:2948  myCar.status = carStatus.outOfFuel */\n      0x0100\n      exp\n      dup2\n      sload\n      dup2\n      0xff\n      mul\n      not\n      and\n      swap1\n      dup4\n      0x03\n      dup2\n      gt\n      iszero\n      tag_82\n      jumpi\n      tag_83\n      tag_53\n      jump\t// in\n    tag_83:\n    tag_82:\n      mul\n      or\n      swap1\n      sstore\n      pop\n        /* \"contracts-test/230515-QUIZ3-answer.sol\":2874:2959  if(myCar.fuelGauage == 0) {... */\n    tag_81:\n        /* \"contracts-test/230515-QUIZ3-answer.sol\":2588:2965  function breakCar() public {... */\n      jump\t// out\n        /* \"contracts-test/230515-QUIZ3-answer.sol\":1600:1616  car public myCar */\n    tag_28:\n      0x00\n      dup1\n      0x00\n      add\n      0x00\n      swap1\n      sload\n      swap1\n      0x0100\n      exp\n      swap1\n      div\n      0xff\n      and\n      swap1\n      dup1\n      0x01\n      add\n      sload\n      swap1\n      dup1\n      0x02\n      add\n      sload\n      swap1\n      pop\n      dup4\n      jump\t// out\n        /* \"contracts-test/230515-QUIZ3-answer.sol\":3081:3432  function turnOff() public {... */\n    tag_33:\n        /* \"contracts-test/230515-QUIZ3-answer.sol\":3139:3140  0 */\n      0x00\n        /* \"contracts-test/230515-QUIZ3-answer.sol\":3125:3130  myCar */\n      dup1\n        /* \"contracts-test/230515-QUIZ3-answer.sol\":3125:3136  myCar.speed */\n      0x02\n      add\n      sload\n        /* \"contracts-test/230515-QUIZ3-answer.sol\":3125:3140  myCar.speed ==0 */\n      eq\n        /* \"contracts-test/230515-QUIZ3-answer.sol\":3125:3179  myCar.speed ==0 && myCar.status != carStatus.turnedOff */\n      dup1\n      iszero\n      tag_85\n      jumpi\n      pop\n        /* \"contracts-test/230515-QUIZ3-answer.sol\":3160:3179  carStatus.turnedOff */\n      0x02\n        /* \"contracts-test/230515-QUIZ3-answer.sol\":3144:3179  myCar.status != carStatus.turnedOff */\n      0x03\n      dup2\n      gt\n      iszero\n      tag_86\n      jumpi\n      tag_87\n      tag_53\n      jump\t// in\n    tag_87:\n    tag_86:\n        /* \"contracts-test/230515-QUIZ3-answer.sol\":3144:3149  myCar */\n      0x00\n        /* \"contracts-test/230515-QUIZ3-answer.sol\":3144:3156  myCar.status */\n      dup1\n      add\n      0x00\n      swap1\n      sload\n      swap1\n      0x0100\n      exp\n      swap1\n      div\n      0xff\n      and\n        /* \"contracts-test/230515-QUIZ3-answer.sol\":3144:3179  myCar.status != carStatus.turnedOff */\n      0x03\n      dup2\n      gt\n      iszero\n      tag_88\n      jumpi\n      tag_89\n      tag_53\n      jump\t// in\n    tag_89:\n    tag_88:\n      eq\n      iszero\n        /* \"contracts-test/230515-QUIZ3-answer.sol\":3125:3179  myCar.speed ==0 && myCar.status != carStatus.turnedOff */\n    tag_85:\n        /* \"contracts-test/230515-QUIZ3-answer.sol\":3125:3203  myCar.speed ==0 && myCar.status != carStatus.turnedOff || myCar.fuelGauage ==0 */\n      dup1\n      tag_90\n      jumpi\n      pop\n        /* \"contracts-test/230515-QUIZ3-answer.sol\":3202:3203  0 */\n      0x00\n        /* \"contracts-test/230515-QUIZ3-answer.sol\":3183:3188  myCar */\n      dup1\n        /* \"contracts-test/230515-QUIZ3-answer.sol\":3183:3199  myCar.fuelGauage */\n      0x01\n      add\n      sload\n        /* \"contracts-test/230515-QUIZ3-answer.sol\":3183:3203  myCar.fuelGauage ==0 */\n      eq\n        /* \"contracts-test/230515-QUIZ3-answer.sol\":3125:3203  myCar.speed ==0 && myCar.status != carStatus.turnedOff || myCar.fuelGauage ==0 */\n    tag_90:\n        /* \"contracts-test/230515-QUIZ3-answer.sol\":3117:3204  require(myCar.speed ==0 && myCar.status != carStatus.turnedOff || myCar.fuelGauage ==0) */\n      tag_91\n      jumpi\n      0x00\n      dup1\n      revert\n    tag_91:\n        /* \"contracts-test/230515-QUIZ3-answer.sol\":3256:3257  0 */\n      0x00\n        /* \"contracts-test/230515-QUIZ3-answer.sol\":3242:3247  myCar */\n      dup1\n        /* \"contracts-test/230515-QUIZ3-answer.sol\":3242:3253  myCar.speed */\n      0x02\n      add\n      sload\n        /* \"contracts-test/230515-QUIZ3-answer.sol\":3242:3257  myCar.speed !=0 */\n      eq\n        /* \"contracts-test/230515-QUIZ3-answer.sol\":3239:3381  if(myCar.speed !=0) {... */\n      tag_92\n      jumpi\n        /* \"contracts-test/230515-QUIZ3-answer.sol\":3286:3287  0 */\n      0x00\n        /* \"contracts-test/230515-QUIZ3-answer.sol\":3273:3278  myCar */\n      dup1\n        /* \"contracts-test/230515-QUIZ3-answer.sol\":3273:3284  myCar.speed */\n      0x02\n      add\n        /* \"contracts-test/230515-QUIZ3-answer.sol\":3273:3287  myCar.speed =0 */\n      dup2\n      swap1\n      sstore\n      pop\n        /* \"contracts-test/230515-QUIZ3-answer.sol\":3239:3381  if(myCar.speed !=0) {... */\n    tag_92:\n        /* \"contracts-test/230515-QUIZ3-answer.sol\":3406:3425  carStatus.turnedOff */\n      0x02\n        /* \"contracts-test/230515-QUIZ3-answer.sol\":3391:3396  myCar */\n      0x00\n        /* \"contracts-test/230515-QUIZ3-answer.sol\":3391:3403  myCar.status */\n      dup1\n      add\n      0x00\n        /* \"contracts-test/230515-QUIZ3-answer.sol\":3391:3425  myCar.status = carStatus.turnedOff */\n      0x0100\n      exp\n      dup2\n      sload\n      dup2\n      0xff\n      mul\n      not\n      and\n      swap1\n      dup4\n      0x03\n      dup2\n      gt\n      iszero\n      tag_93\n      jumpi\n      tag_94\n      tag_53\n      jump\t// in\n    tag_94:\n    tag_93:\n      mul\n      or\n      swap1\n      sstore\n      pop\n        /* \"contracts-test/230515-QUIZ3-answer.sol\":3081:3432  function turnOff() public {... */\n      jump\t// out\n        /* \"contracts-test/230515-QUIZ3-answer.sol\":3539:3720  function turnOn() public {... */\n    tag_36:\n        /* \"contracts-test/230515-QUIZ3-answer.sol\":3598:3617  carStatus.turnedOff */\n      0x02\n        /* \"contracts-test/230515-QUIZ3-answer.sol\":3582:3617  myCar.status == carStatus.turnedOff */\n      0x03\n      dup2\n      gt\n      iszero\n      tag_96\n      jumpi\n      tag_97\n      tag_53\n      jump\t// in\n    tag_97:\n    tag_96:\n        /* \"contracts-test/230515-QUIZ3-answer.sol\":3582:3587  myCar */\n      0x00\n        /* \"contracts-test/230515-QUIZ3-answer.sol\":3582:3594  myCar.status */\n      dup1\n      add\n      0x00\n      swap1\n      sload\n      swap1\n      0x0100\n      exp\n      swap1\n      div\n      0xff\n      and\n        /* \"contracts-test/230515-QUIZ3-answer.sol\":3582:3617  myCar.status == carStatus.turnedOff */\n      0x03\n      dup2\n      gt\n      iszero\n      tag_98\n      jumpi\n      tag_99\n      tag_53\n      jump\t// in\n    tag_99:\n    tag_98:\n      eq\n        /* \"contracts-test/230515-QUIZ3-answer.sol\":3582:3640  myCar.status == carStatus.turnedOff && myCar.fuelGauage >0 */\n      dup1\n      iszero\n      tag_100\n      jumpi\n      pop\n        /* \"contracts-test/230515-QUIZ3-answer.sol\":3639:3640  0 */\n      0x00\n        /* \"contracts-test/230515-QUIZ3-answer.sol\":3621:3626  myCar */\n      dup1\n        /* \"contracts-test/230515-QUIZ3-answer.sol\":3621:3637  myCar.fuelGauage */\n      0x01\n      add\n      sload\n        /* \"contracts-test/230515-QUIZ3-answer.sol\":3621:3640  myCar.fuelGauage >0 */\n      gt\n        /* \"contracts-test/230515-QUIZ3-answer.sol\":3582:3640  myCar.status == carStatus.turnedOff && myCar.fuelGauage >0 */\n    tag_100:\n        /* \"contracts-test/230515-QUIZ3-answer.sol\":3574:3674  require(myCar.status == carStatus.turnedOff && myCar.fuelGauage >0/*out of fuel로 변경 가능?*/) */\n      tag_101\n      jumpi\n      0x00\n      dup1\n      revert\n    tag_101:\n        /* \"contracts-test/230515-QUIZ3-answer.sol\":3699:3713  carStatus.stop */\n      0x00\n        /* \"contracts-test/230515-QUIZ3-answer.sol\":3684:3689  myCar */\n      dup1\n        /* \"contracts-test/230515-QUIZ3-answer.sol\":3684:3696  myCar.status */\n      0x00\n      add\n      0x00\n        /* \"contracts-test/230515-QUIZ3-answer.sol\":3684:3713  myCar.status = carStatus.stop */\n      0x0100\n      exp\n      dup2\n      sload\n      dup2\n      0xff\n      mul\n      not\n      and\n      swap1\n      dup4\n      0x03\n      dup2\n      gt\n      iszero\n      tag_102\n      jumpi\n      tag_103\n      tag_53\n      jump\t// in\n    tag_103:\n    tag_102:\n      mul\n      or\n      swap1\n      sstore\n      pop\n        /* \"contracts-test/230515-QUIZ3-answer.sol\":3539:3720  function turnOn() public {... */\n      jump\t// out\n        /* \"contracts-test/230515-QUIZ3-answer.sol\":4693:4800  function deposit() public payable {... */\n    tag_38:\n        /* \"contracts-test/230515-QUIZ3-answer.sol\":4748:4757  msg.value */\n      callvalue\n        /* \"contracts-test/230515-QUIZ3-answer.sol\":4737:4744  prePaid */\n      0x04\n      0x00\n        /* \"contracts-test/230515-QUIZ3-answer.sol\":4737:4757  prePaid += msg.value */\n      dup3\n      dup3\n      sload\n      tag_105\n      swap2\n      swap1\n      tag_106\n      jump\t// in\n    tag_105:\n      swap3\n      pop\n      pop\n      dup2\n      swap1\n      sstore\n      pop\n        /* \"contracts-test/230515-QUIZ3-answer.sol\":4693:4800  function deposit() public payable {... */\n      jump\t// out\n        /* \"contracts-test/230515-QUIZ3-answer.sol\":4667:4686  uint public prePaid */\n    tag_41:\n      sload(0x04)\n      dup2\n      jump\t// out\n        /* \"contracts-test/230515-QUIZ3-answer.sol\":2114:2401  function accel() public {... */\n    tag_46:\n        /* \"contracts-test/230515-QUIZ3-answer.sol\":2174:2176  30 */\n      0x1e\n        /* \"contracts-test/230515-QUIZ3-answer.sol\":2156:2161  myCar */\n      0x00\n        /* \"contracts-test/230515-QUIZ3-answer.sol\":2156:2172  myCar.fuelGauage */\n      0x01\n      add\n      sload\n        /* \"contracts-test/230515-QUIZ3-answer.sol\":2156:2176  myCar.fuelGauage >30 */\n      gt\n        /* \"contracts-test/230515-QUIZ3-answer.sol\":2156:2196  myCar.fuelGauage >30 && myCar.speed < 70 */\n      dup1\n      iszero\n      tag_108\n      jumpi\n      pop\n        /* \"contracts-test/230515-QUIZ3-answer.sol\":2194:2196  70 */\n      0x46\n        /* \"contracts-test/230515-QUIZ3-answer.sol\":2180:2185  myCar */\n      0x00\n        /* \"contracts-test/230515-QUIZ3-answer.sol\":2180:2191  myCar.speed */\n      0x02\n      add\n      sload\n        /* \"contracts-test/230515-QUIZ3-answer.sol\":2180:2196  myCar.speed < 70 */\n      lt\n        /* \"contracts-test/230515-QUIZ3-answer.sol\":2156:2196  myCar.fuelGauage >30 && myCar.speed < 70 */\n    tag_108:\n        /* \"contracts-test/230515-QUIZ3-answer.sol\":2156:2235  myCar.fuelGauage >30 && myCar.speed < 70 && myCar.status != carStatus.turnedOff */\n      dup1\n      iszero\n      tag_109\n      jumpi\n      pop\n        /* \"contracts-test/230515-QUIZ3-answer.sol\":2216:2235  carStatus.turnedOff */\n      0x02\n        /* \"contracts-test/230515-QUIZ3-answer.sol\":2200:2235  myCar.status != carStatus.turnedOff */\n      0x03\n      dup2\n      gt\n      iszero\n      tag_110\n      jumpi\n      tag_111\n      tag_53\n      jump\t// in\n    tag_111:\n    tag_110:\n        /* \"contracts-test/230515-QUIZ3-answer.sol\":2200:2205  myCar */\n      0x00\n        /* \"contracts-test/230515-QUIZ3-answer.sol\":2200:2212  myCar.status */\n      dup1\n      add\n      0x00\n      swap1\n      sload\n      swap1\n      0x0100\n      exp\n      swap1\n      div\n      0xff\n      and\n        /* \"contracts-test/230515-QUIZ3-answer.sol\":2200:2235  myCar.status != carStatus.turnedOff */\n      0x03\n      dup2\n      gt\n      iszero\n      tag_112\n      jumpi\n      tag_113\n      tag_53\n      jump\t// in\n    tag_113:\n    tag_112:\n      eq\n      iszero\n        /* \"contracts-test/230515-QUIZ3-answer.sol\":2156:2235  myCar.fuelGauage >30 && myCar.speed < 70 && myCar.status != carStatus.turnedOff */\n    tag_109:\n        /* \"contracts-test/230515-QUIZ3-answer.sol\":2148:2236  require(myCar.fuelGauage >30 && myCar.speed < 70 && myCar.status != carStatus.turnedOff) */\n      tag_114\n      jumpi\n      0x00\n      dup1\n      revert\n    tag_114:\n        /* \"contracts-test/230515-QUIZ3-answer.sol\":2265:2282  carStatus.driving */\n      0x01\n        /* \"contracts-test/230515-QUIZ3-answer.sol\":2249:2282  myCar.status != carStatus.driving */\n      0x03\n      dup2\n      gt\n      iszero\n      tag_115\n      jumpi\n      tag_116\n      tag_53\n      jump\t// in\n    tag_116:\n    tag_115:\n        /* \"contracts-test/230515-QUIZ3-answer.sol\":2249:2254  myCar */\n      0x00\n        /* \"contracts-test/230515-QUIZ3-answer.sol\":2249:2261  myCar.status */\n      dup1\n      add\n      0x00\n      swap1\n      sload\n      swap1\n      0x0100\n      exp\n      swap1\n      div\n      0xff\n      and\n        /* \"contracts-test/230515-QUIZ3-answer.sol\":2249:2282  myCar.status != carStatus.driving */\n      0x03\n      dup2\n      gt\n      iszero\n      tag_117\n      jumpi\n      tag_118\n      tag_53\n      jump\t// in\n    tag_118:\n    tag_117:\n      eq\n        /* \"contracts-test/230515-QUIZ3-answer.sol\":2246:2341  if(myCar.status != carStatus.driving) {... */\n      tag_119\n      jumpi\n        /* \"contracts-test/230515-QUIZ3-answer.sol\":2313:2330  carStatus.driving */\n      0x01\n        /* \"contracts-test/230515-QUIZ3-answer.sol\":2298:2303  myCar */\n      0x00\n        /* \"contracts-test/230515-QUIZ3-answer.sol\":2298:2310  myCar.status */\n      dup1\n      add\n      0x00\n        /* \"contracts-test/230515-QUIZ3-answer.sol\":2298:2330  myCar.status = carStatus.driving */\n      0x0100\n      exp\n      dup2\n      sload\n      dup2\n      0xff\n      mul\n      not\n      and\n      swap1\n      dup4\n      0x03\n      dup2\n      gt\n      iszero\n      tag_120\n      jumpi\n      tag_121\n      tag_53\n      jump\t// in\n    tag_121:\n    tag_120:\n      mul\n      or\n      swap1\n      sstore\n      pop\n        /* \"contracts-test/230515-QUIZ3-answer.sol\":2246:2341  if(myCar.status != carStatus.driving) {... */\n    tag_119:\n        /* \"contracts-test/230515-QUIZ3-answer.sol\":2350:2355  myCar */\n      0x00\n        /* \"contracts-test/230515-QUIZ3-answer.sol\":2350:2361  myCar.speed */\n      0x02\n      add\n      0x00\n        /* \"contracts-test/230515-QUIZ3-answer.sol\":2350:2363  myCar.speed++ */\n      dup2\n      sload\n      dup1\n      swap3\n      swap2\n      swap1\n      tag_122\n      swap1\n      tag_123\n      jump\t// in\n    tag_122:\n      swap2\n      swap1\n      pop\n      sstore\n      pop\n        /* \"contracts-test/230515-QUIZ3-answer.sol\":2393:2394  2 */\n      0x02\n        /* \"contracts-test/230515-QUIZ3-answer.sol\":2373:2378  myCar */\n      0x00\n        /* \"contracts-test/230515-QUIZ3-answer.sol\":2373:2389  myCar.fuelGauage */\n      0x01\n      add\n      0x00\n        /* \"contracts-test/230515-QUIZ3-answer.sol\":2373:2394  myCar.fuelGauage -= 2 */\n      dup3\n      dup3\n      sload\n      tag_124\n      swap2\n      swap1\n      tag_59\n      jump\t// in\n    tag_124:\n      swap3\n      pop\n      pop\n      dup2\n      swap1\n      sstore\n      pop\n        /* \"contracts-test/230515-QUIZ3-answer.sol\":2114:2401  function accel() public {... */\n      jump\t// out\n        /* \"#utility.yul\":7:133   */\n    tag_125:\n        /* \"#utility.yul\":44:51   */\n      0x00\n        /* \"#utility.yul\":84:126   */\n      0xffffffffffffffffffffffffffffffffffffffff\n        /* \"#utility.yul\":77:82   */\n      dup3\n        /* \"#utility.yul\":73:127   */\n      and\n        /* \"#utility.yul\":62:127   */\n      swap1\n      pop\n        /* \"#utility.yul\":7:133   */\n      swap2\n      swap1\n      pop\n      jump\t// out\n        /* \"#utility.yul\":139:243   */\n    tag_126:\n        /* \"#utility.yul\":184:191   */\n      0x00\n        /* \"#utility.yul\":213:237   */\n      tag_138\n        /* \"#utility.yul\":231:236   */\n      dup3\n        /* \"#utility.yul\":213:237   */\n      tag_125\n      jump\t// in\n    tag_138:\n        /* \"#utility.yul\":202:237   */\n      swap1\n      pop\n        /* \"#utility.yul\":139:243   */\n      swap2\n      swap1\n      pop\n      jump\t// out\n        /* \"#utility.yul\":249:391   */\n    tag_127:\n        /* \"#utility.yul\":352:384   */\n      tag_140\n        /* \"#utility.yul\":378:383   */\n      dup2\n        /* \"#utility.yul\":352:384   */\n      tag_126\n      jump\t// in\n    tag_140:\n        /* \"#utility.yul\":347:350   */\n      dup3\n        /* \"#utility.yul\":340:385   */\n      mstore\n        /* \"#utility.yul\":249:391   */\n      pop\n      pop\n      jump\t// out\n        /* \"#utility.yul\":397:651   */\n    tag_22:\n        /* \"#utility.yul\":506:510   */\n      0x00\n        /* \"#utility.yul\":544:546   */\n      0x20\n        /* \"#utility.yul\":533:542   */\n      dup3\n        /* \"#utility.yul\":529:547   */\n      add\n        /* \"#utility.yul\":521:547   */\n      swap1\n      pop\n        /* \"#utility.yul\":557:644   */\n      tag_142\n        /* \"#utility.yul\":641:642   */\n      0x00\n        /* \"#utility.yul\":630:639   */\n      dup4\n        /* \"#utility.yul\":626:643   */\n      add\n        /* \"#utility.yul\":617:623   */\n      dup5\n        /* \"#utility.yul\":557:644   */\n      tag_127\n      jump\t// in\n    tag_142:\n        /* \"#utility.yul\":397:651   */\n      swap3\n      swap2\n      pop\n      pop\n      jump\t// out\n        /* \"#utility.yul\":657:837   */\n    tag_53:\n        /* \"#utility.yul\":705:782   */\n      0x4e487b7100000000000000000000000000000000000000000000000000000000\n        /* \"#utility.yul\":702:703   */\n      0x00\n        /* \"#utility.yul\":695:783   */\n      mstore\n        /* \"#utility.yul\":802:806   */\n      0x21\n        /* \"#utility.yul\":799:800   */\n      0x04\n        /* \"#utility.yul\":792:807   */\n      mstore\n        /* \"#utility.yul\":826:830   */\n      0x24\n        /* \"#utility.yul\":823:824   */\n      0x00\n        /* \"#utility.yul\":816:831   */\n      revert\n        /* \"#utility.yul\":843:959   */\n    tag_128:\n        /* \"#utility.yul\":927:928   */\n      0x04\n        /* \"#utility.yul\":920:925   */\n      dup2\n        /* \"#utility.yul\":917:929   */\n      lt\n        /* \"#utility.yul\":907:953   */\n      tag_145\n      jumpi\n        /* \"#utility.yul\":933:951   */\n      tag_146\n      tag_53\n      jump\t// in\n    tag_146:\n        /* \"#utility.yul\":907:953   */\n    tag_145:\n        /* \"#utility.yul\":843:959   */\n      pop\n      jump\t// out\n        /* \"#utility.yul\":965:1098   */\n    tag_129:\n        /* \"#utility.yul\":1013:1020   */\n      0x00\n        /* \"#utility.yul\":1042:1047   */\n      dup2\n        /* \"#utility.yul\":1031:1047   */\n      swap1\n      pop\n        /* \"#utility.yul\":1048:1092   */\n      tag_148\n        /* \"#utility.yul\":1086:1091   */\n      dup3\n        /* \"#utility.yul\":1048:1092   */\n      tag_128\n      jump\t// in\n    tag_148:\n        /* \"#utility.yul\":965:1098   */\n      swap2\n      swap1\n      pop\n      jump\t// out\n        /* \"#utility.yul\":1104:1237   */\n    tag_130:\n        /* \"#utility.yul\":1163:1172   */\n      0x00\n        /* \"#utility.yul\":1196:1231   */\n      tag_150\n        /* \"#utility.yul\":1225:1230   */\n      dup3\n        /* \"#utility.yul\":1196:1231   */\n      tag_129\n      jump\t// in\n    tag_150:\n        /* \"#utility.yul\":1183:1231   */\n      swap1\n      pop\n        /* \"#utility.yul\":1104:1237   */\n      swap2\n      swap1\n      pop\n      jump\t// out\n        /* \"#utility.yul\":1243:1392   */\n    tag_131:\n        /* \"#utility.yul\":1339:1385   */\n      tag_152\n        /* \"#utility.yul\":1379:1384   */\n      dup2\n        /* \"#utility.yul\":1339:1385   */\n      tag_130\n      jump\t// in\n    tag_152:\n        /* \"#utility.yul\":1334:1337   */\n      dup3\n        /* \"#utility.yul\":1327:1386   */\n      mstore\n        /* \"#utility.yul\":1243:1392   */\n      pop\n      pop\n      jump\t// out\n        /* \"#utility.yul\":1398:1475   */\n    tag_132:\n        /* \"#utility.yul\":1435:1442   */\n      0x00\n        /* \"#utility.yul\":1464:1469   */\n      dup2\n        /* \"#utility.yul\":1453:1469   */\n      swap1\n      pop\n        /* \"#utility.yul\":1398:1475   */\n      swap2\n      swap1\n      pop\n      jump\t// out\n        /* \"#utility.yul\":1481:1599   */\n    tag_133:\n        /* \"#utility.yul\":1568:1592   */\n      tag_155\n        /* \"#utility.yul\":1586:1591   */\n      dup2\n        /* \"#utility.yul\":1568:1592   */\n      tag_132\n      jump\t// in\n    tag_155:\n        /* \"#utility.yul\":1563:1566   */\n      dup3\n        /* \"#utility.yul\":1556:1593   */\n      mstore\n        /* \"#utility.yul\":1481:1599   */\n      pop\n      pop\n      jump\t// out\n        /* \"#utility.yul\":1605:2065   */\n    tag_30:\n        /* \"#utility.yul\":1763:1767   */\n      0x00\n        /* \"#utility.yul\":1801:1803   */\n      0x60\n        /* \"#utility.yul\":1790:1799   */\n      dup3\n        /* \"#utility.yul\":1786:1804   */\n      add\n        /* \"#utility.yul\":1778:1804   */\n      swap1\n      pop\n        /* \"#utility.yul\":1814:1894   */\n      tag_157\n        /* \"#utility.yul\":1891:1892   */\n      0x00\n        /* \"#utility.yul\":1880:1889   */\n      dup4\n        /* \"#utility.yul\":1876:1893   */\n      add\n        /* \"#utility.yul\":1867:1873   */\n      dup7\n        /* \"#utility.yul\":1814:1894   */\n      tag_131\n      jump\t// in\n    tag_157:\n        /* \"#utility.yul\":1904:1976   */\n      tag_158\n        /* \"#utility.yul\":1972:1974   */\n      0x20\n        /* \"#utility.yul\":1961:1970   */\n      dup4\n        /* \"#utility.yul\":1957:1975   */\n      add\n        /* \"#utility.yul\":1948:1954   */\n      dup6\n        /* \"#utility.yul\":1904:1976   */\n      tag_133\n      jump\t// in\n    tag_158:\n        /* \"#utility.yul\":1986:2058   */\n      tag_159\n        /* \"#utility.yul\":2054:2056   */\n      0x40\n        /* \"#utility.yul\":2043:2052   */\n      dup4\n        /* \"#utility.yul\":2039:2057   */\n      add\n        /* \"#utility.yul\":2030:2036   */\n      dup5\n        /* \"#utility.yul\":1986:2058   */\n      tag_133\n      jump\t// in\n    tag_159:\n        /* \"#utility.yul\":1605:2065   */\n      swap5\n      swap4\n      pop\n      pop\n      pop\n      pop\n      jump\t// out\n        /* \"#utility.yul\":2071:2293   */\n    tag_43:\n        /* \"#utility.yul\":2164:2168   */\n      0x00\n        /* \"#utility.yul\":2202:2204   */\n      0x20\n        /* \"#utility.yul\":2191:2200   */\n      dup3\n        /* \"#utility.yul\":2187:2205   */\n      add\n        /* \"#utility.yul\":2179:2205   */\n      swap1\n      pop\n        /* \"#utility.yul\":2215:2286   */\n      tag_161\n        /* \"#utility.yul\":2283:2284   */\n      0x00\n        /* \"#utility.yul\":2272:2281   */\n      dup4\n        /* \"#utility.yul\":2268:2285   */\n      add\n        /* \"#utility.yul\":2259:2265   */\n      dup5\n        /* \"#utility.yul\":2215:2286   */\n      tag_133\n      jump\t// in\n    tag_161:\n        /* \"#utility.yul\":2071:2293   */\n      swap3\n      swap2\n      pop\n      pop\n      jump\t// out\n        /* \"#utility.yul\":2299:2479   */\n    tag_134:\n        /* \"#utility.yul\":2347:2424   */\n      0x4e487b7100000000000000000000000000000000000000000000000000000000\n        /* \"#utility.yul\":2344:2345   */\n      0x00\n        /* \"#utility.yul\":2337:2425   */\n      mstore\n        /* \"#utility.yul\":2444:2448   */\n      0x11\n        /* \"#utility.yul\":2441:2442   */\n      0x04\n        /* \"#utility.yul\":2434:2449   */\n      mstore\n        /* \"#utility.yul\":2468:2472   */\n      0x24\n        /* \"#utility.yul\":2465:2466   */\n      0x00\n        /* \"#utility.yul\":2458:2473   */\n      revert\n        /* \"#utility.yul\":2485:2679   */\n    tag_59:\n        /* \"#utility.yul\":2525:2529   */\n      0x00\n        /* \"#utility.yul\":2545:2565   */\n      tag_164\n        /* \"#utility.yul\":2563:2564   */\n      dup3\n        /* \"#utility.yul\":2545:2565   */\n      tag_132\n      jump\t// in\n    tag_164:\n        /* \"#utility.yul\":2540:2565   */\n      swap2\n      pop\n        /* \"#utility.yul\":2579:2599   */\n      tag_165\n        /* \"#utility.yul\":2597:2598   */\n      dup4\n        /* \"#utility.yul\":2579:2599   */\n      tag_132\n      jump\t// in\n    tag_165:\n        /* \"#utility.yul\":2574:2599   */\n      swap3\n      pop\n        /* \"#utility.yul\":2623:2624   */\n      dup3\n        /* \"#utility.yul\":2620:2621   */\n      dup3\n        /* \"#utility.yul\":2616:2625   */\n      sub\n        /* \"#utility.yul\":2608:2625   */\n      swap1\n      pop\n        /* \"#utility.yul\":2647:2648   */\n      dup2\n        /* \"#utility.yul\":2641:2645   */\n      dup2\n        /* \"#utility.yul\":2638:2649   */\n      gt\n        /* \"#utility.yul\":2635:2672   */\n      iszero\n      tag_166\n      jumpi\n        /* \"#utility.yul\":2652:2670   */\n      tag_167\n      tag_134\n      jump\t// in\n    tag_167:\n        /* \"#utility.yul\":2635:2672   */\n    tag_166:\n        /* \"#utility.yul\":2485:2679   */\n      swap3\n      swap2\n      pop\n      pop\n      jump\t// out\n        /* \"#utility.yul\":2685:2856   */\n    tag_76:\n        /* \"#utility.yul\":2724:2727   */\n      0x00\n        /* \"#utility.yul\":2747:2771   */\n      tag_169\n        /* \"#utility.yul\":2765:2770   */\n      dup3\n        /* \"#utility.yul\":2747:2771   */\n      tag_132\n      jump\t// in\n    tag_169:\n        /* \"#utility.yul\":2738:2771   */\n      swap2\n      pop\n        /* \"#utility.yul\":2793:2797   */\n      0x00\n        /* \"#utility.yul\":2786:2791   */\n      dup3\n        /* \"#utility.yul\":2783:2798   */\n      sub\n        /* \"#utility.yul\":2780:2821   */\n      tag_170\n      jumpi\n        /* \"#utility.yul\":2801:2819   */\n      tag_171\n      tag_134\n      jump\t// in\n    tag_171:\n        /* \"#utility.yul\":2780:2821   */\n    tag_170:\n        /* \"#utility.yul\":2848:2849   */\n      0x01\n        /* \"#utility.yul\":2841:2846   */\n      dup3\n        /* \"#utility.yul\":2837:2850   */\n      sub\n        /* \"#utility.yul\":2830:2850   */\n      swap1\n      pop\n        /* \"#utility.yul\":2685:2856   */\n      swap2\n      swap1\n      pop\n      jump\t// out\n        /* \"#utility.yul\":2862:3053   */\n    tag_106:\n        /* \"#utility.yul\":2902:2905   */\n      0x00\n        /* \"#utility.yul\":2921:2941   */\n      tag_173\n        /* \"#utility.yul\":2939:2940   */\n      dup3\n        /* \"#utility.yul\":2921:2941   */\n      tag_132\n      jump\t// in\n    tag_173:\n        /* \"#utility.yul\":2916:2941   */\n      swap2\n      pop\n        /* \"#utility.yul\":2955:2975   */\n      tag_174\n        /* \"#utility.yul\":2973:2974   */\n      dup4\n        /* \"#utility.yul\":2955:2975   */\n      tag_132\n      jump\t// in\n    tag_174:\n        /* \"#utility.yul\":2950:2975   */\n      swap3\n      pop\n        /* \"#utility.yul\":2998:2999   */\n      dup3\n        /* \"#utility.yul\":2995:2996   */\n      dup3\n        /* \"#utility.yul\":2991:3000   */\n      add\n        /* \"#utility.yul\":2984:3000   */\n      swap1\n      pop\n        /* \"#utility.yul\":3019:3022   */\n      dup1\n        /* \"#utility.yul\":3016:3017   */\n      dup3\n        /* \"#utility.yul\":3013:3023   */\n      gt\n        /* \"#utility.yul\":3010:3046   */\n      iszero\n      tag_175\n      jumpi\n        /* \"#utility.yul\":3026:3044   */\n      tag_176\n      tag_134\n      jump\t// in\n    tag_176:\n        /* \"#utility.yul\":3010:3046   */\n    tag_175:\n        /* \"#utility.yul\":2862:3053   */\n      swap3\n      swap2\n      pop\n      pop\n      jump\t// out\n        /* \"#utility.yul\":3059:3292   */\n    tag_123:\n        /* \"#utility.yul\":3098:3101   */\n      0x00\n        /* \"#utility.yul\":3121:3145   */\n      tag_178\n        /* \"#utility.yul\":3139:3144   */\n      dup3\n        /* \"#utility.yul\":3121:3145   */\n      tag_132\n      jump\t// in\n    tag_178:\n        /* \"#utility.yul\":3112:3145   */\n      swap2\n      pop\n        /* \"#utility.yul\":3167:3233   */\n      0xffffffffffffffffffffffffffffffffffffffffffffffffffffffffffffffff\n        /* \"#utility.yul\":3160:3165   */\n      dup3\n        /* \"#utility.yul\":3157:3234   */\n      sub\n        /* \"#utility.yul\":3154:3257   */\n      tag_179\n      jumpi\n        /* \"#utility.yul\":3237:3255   */\n      tag_180\n      tag_134\n      jump\t// in\n    tag_180:\n        /* \"#utility.yul\":3154:3257   */\n    tag_179:\n        /* \"#utility.yul\":3284:3285   */\n      0x01\n        /* \"#utility.yul\":3277:3282   */\n      dup3\n        /* \"#utility.yul\":3273:3286   */\n      add\n        /* \"#utility.yul\":3266:3286   */\n      swap1\n      pop\n        /* \"#utility.yul\":3059:3292   */\n      swap2\n      swap1\n      pop\n      jump\t// out\n\n    auxdata: 0xa26469706673582212206bbbbd2252e29b2139db857156dc1ef3b408606f2208c3d7c7c2a80018687fa564736f6c63430008120033\n}\n",
				"bytecode": {
					"linkReferences": {},
					"object": "608060405234801561001057600080fd5b5073ab8483f64d9c6d1ecf9b849ae677dd3315835cb2600360006101000a81548173ffffffffffffffffffffffffffffffffffffffff021916908373ffffffffffffffffffffffffffffffffffffffff160217905550610965806100756000396000f3fe6080604052600436106100915760003560e01c8063af10c81011610059578063af10c81014610126578063ba33ed7d1461013d578063d0e30db014610154578063da127f2e1461015e578063f282df781461018957610091565b80633446136a146100965780633ccfd60b146100a05780638da5cb5b146100b757806396f1c1a8146100e25780639cdde813146100f9575b600080fd5b61009e6101a0565b005b3480156100ac57600080fd5b506100b5610254565b005b3480156100c357600080fd5b506100cc610319565b6040516100d9919061072a565b60405180910390f35b3480156100ee57600080fd5b506100f761033f565b005b34801561010557600080fd5b5061010e610470565b60405161011d939291906107d5565b60405180910390f35b34801561013257600080fd5b5061013b610495565b005b34801561014957600080fd5b5061015261053d565b005b61015c6105be565b005b34801561016a57600080fd5b506101736105d9565b604051610180919061080c565b60405180910390f35b34801561019557600080fd5b5061019e6105df565b005b670de0b6b3a7640000600454101580156101ba5750600034145b806101cc5750670de0b6b3a764000034145b801561020d5750600260038111156101e7576101e6610745565b5b6000800160009054906101000a900460ff16600381111561020b5761020a610745565b5b145b61021657600080fd5b670de0b6b3a7640000341461024757670de0b6b3a76400006004600082825461023f9190610856565b925050819055505b6064600060010181905550565b3373ffffffffffffffffffffffffffffffffffffffff16600360009054906101000a900473ffffffffffffffffffffffffffffffffffffffff1673ffffffffffffffffffffffffffffffffffffffff16146102ae57600080fd5b600360009054906101000a900473ffffffffffffffffffffffffffffffffffffffff1673ffffffffffffffffffffffffffffffffffffffff166108fc479081150290604051600060405180830381858888f19350505050158015610316573d6000803e3d6000fd5b50565b600360009054906101000a900473ffffffffffffffffffffffffffffffffffffffff1681565b6002600381111561035357610352610745565b5b6000800160009054906101000a900460ff16600381111561037757610376610745565b5b141580156103bb57506000600381111561039457610393610745565b5b6000800160009054906101000a900460ff1660038111156103b8576103b7610745565b5b14155b6103c457600080fd5b600060020160008154809291906103da9061088a565b9190505550600060010160008154809291906103f59061088a565b919050555060008060020154036104345760008060000160006101000a81548160ff0219169083600381111561042e5761042d610745565b5b02179055505b600080600101540361046e5760036000800160006101000a81548160ff0219169083600381111561046857610467610745565b5b02179055505b565b60008060000160009054906101000a900460ff16908060010154908060020154905083565b600080600201541480156104df5750600260038111156104b8576104b7610745565b5b6000800160009054906101000a900460ff1660038111156104dc576104db610745565b5b14155b806104ee575060008060010154145b6104f757600080fd5b600080600201541461050e57600080600201819055505b60026000800160006101000a81548160ff0219169083600381111561053657610535610745565b5b0217905550565b6002600381111561055157610550610745565b5b6000800160009054906101000a900460ff16600381111561057557610574610745565b5b148015610586575060008060010154115b61058f57600080fd5b60008060000160006101000a81548160ff021916908360038111156105b7576105b6610745565b5b0217905550565b34600460008282546105d091906108b3565b92505081905550565b60045481565b601e6000600101541180156105f957506046600060020154105b801561063b57506002600381111561061457610613610745565b5b6000800160009054906101000a900460ff16600381111561063857610637610745565b5b14155b61064457600080fd5b6001600381111561065857610657610745565b5b6000800160009054906101000a900460ff16600381111561067c5761067b610745565b5b146106af5760016000800160006101000a81548160ff021916908360038111156106a9576106a8610745565b5b02179055505b600060020160008154809291906106c5906108e7565b91905055506002600060010160008282546106e09190610856565b92505081905550565b600073ffffffffffffffffffffffffffffffffffffffff82169050919050565b6000610714826106e9565b9050919050565b61072481610709565b82525050565b600060208201905061073f600083018461071b565b92915050565b7f4e487b7100000000000000000000000000000000000000000000000000000000600052602160045260246000fd5b6004811061078557610784610745565b5b50565b600081905061079682610774565b919050565b60006107a682610788565b9050919050565b6107b68161079b565b82525050565b6000819050919050565b6107cf816107bc565b82525050565b60006060820190506107ea60008301866107ad565b6107f760208301856107c6565b61080460408301846107c6565b949350505050565b600060208201905061082160008301846107c6565b92915050565b7f4e487b7100000000000000000000000000000000000000000000000000000000600052601160045260246000fd5b6000610861826107bc565b915061086c836107bc565b925082820390508181111561088457610883610827565b5b92915050565b6000610895826107bc565b9150600082036108a8576108a7610827565b5b600182039050919050565b60006108be826107bc565b91506108c9836107bc565b92508282019050808211156108e1576108e0610827565b5b92915050565b60006108f2826107bc565b91507fffffffffffffffffffffffffffffffffffffffffffffffffffffffffffffffff820361092457610923610827565b5b60018201905091905056fea26469706673582212206bbbbd2252e29b2139db857156dc1ef3b408606f2208c3d7c7c2a80018687fa564736f6c63430008120033",
					"opcodes": "PUSH1 0x80 PUSH1 0x40 MSTORE CALLVALUE DUP1 ISZERO PUSH2 0x10 JUMPI PUSH1 0x0 DUP1 REVERT JUMPDEST POP PUSH20 0xAB8483F64D9C6D1ECF9B849AE677DD3315835CB2 PUSH1 0x3 PUSH1 0x0 PUSH2 0x100 EXP DUP2 SLOAD DUP2 PUSH20 0xFFFFFFFFFFFFFFFFFFFFFFFFFFFFFFFFFFFFFFFF MUL NOT AND SWAP1 DUP4 PUSH20 0xFFFFFFFFFFFFFFFFFFFFFFFFFFFFFFFFFFFFFFFF AND MUL OR SWAP1 SSTORE POP PUSH2 0x965 DUP1 PUSH2 0x75 PUSH1 0x0 CODECOPY PUSH1 0x0 RETURN INVALID PUSH1 0x80 PUSH1 0x40 MSTORE PUSH1 0x4 CALLDATASIZE LT PUSH2 0x91 JUMPI PUSH1 0x0 CALLDATALOAD PUSH1 0xE0 SHR DUP1 PUSH4 0xAF10C810 GT PUSH2 0x59 JUMPI DUP1 PUSH4 0xAF10C810 EQ PUSH2 0x126 JUMPI DUP1 PUSH4 0xBA33ED7D EQ PUSH2 0x13D JUMPI DUP1 PUSH4 0xD0E30DB0 EQ PUSH2 0x154 JUMPI DUP1 PUSH4 0xDA127F2E EQ PUSH2 0x15E JUMPI DUP1 PUSH4 0xF282DF78 EQ PUSH2 0x189 JUMPI PUSH2 0x91 JUMP JUMPDEST DUP1 PUSH4 0x3446136A EQ PUSH2 0x96 JUMPI DUP1 PUSH4 0x3CCFD60B EQ PUSH2 0xA0 JUMPI DUP1 PUSH4 0x8DA5CB5B EQ PUSH2 0xB7 JUMPI DUP1 PUSH4 0x96F1C1A8 EQ PUSH2 0xE2 JUMPI DUP1 PUSH4 0x9CDDE813 EQ PUSH2 0xF9 JUMPI JUMPDEST PUSH1 0x0 DUP1 REVERT JUMPDEST PUSH2 0x9E PUSH2 0x1A0 JUMP JUMPDEST STOP JUMPDEST CALLVALUE DUP1 ISZERO PUSH2 0xAC JUMPI PUSH1 0x0 DUP1 REVERT JUMPDEST POP PUSH2 0xB5 PUSH2 0x254 JUMP JUMPDEST STOP JUMPDEST CALLVALUE DUP1 ISZERO PUSH2 0xC3 JUMPI PUSH1 0x0 DUP1 REVERT JUMPDEST POP PUSH2 0xCC PUSH2 0x319 JUMP JUMPDEST PUSH1 0x40 MLOAD PUSH2 0xD9 SWAP2 SWAP1 PUSH2 0x72A JUMP JUMPDEST PUSH1 0x40 MLOAD DUP1 SWAP2 SUB SWAP1 RETURN JUMPDEST CALLVALUE DUP1 ISZERO PUSH2 0xEE JUMPI PUSH1 0x0 DUP1 REVERT JUMPDEST POP PUSH2 0xF7 PUSH2 0x33F JUMP JUMPDEST STOP JUMPDEST CALLVALUE DUP1 ISZERO PUSH2 0x105 JUMPI PUSH1 0x0 DUP1 REVERT JUMPDEST POP PUSH2 0x10E PUSH2 0x470 JUMP JUMPDEST PUSH1 0x40 MLOAD PUSH2 0x11D SWAP4 SWAP3 SWAP2 SWAP1 PUSH2 0x7D5 JUMP JUMPDEST PUSH1 0x40 MLOAD DUP1 SWAP2 SUB SWAP1 RETURN JUMPDEST CALLVALUE DUP1 ISZERO PUSH2 0x132 JUMPI PUSH1 0x0 DUP1 REVERT JUMPDEST POP PUSH2 0x13B PUSH2 0x495 JUMP JUMPDEST STOP JUMPDEST CALLVALUE DUP1 ISZERO PUSH2 0x149 JUMPI PUSH1 0x0 DUP1 REVERT JUMPDEST POP PUSH2 0x152 PUSH2 0x53D JUMP JUMPDEST STOP JUMPDEST PUSH2 0x15C PUSH2 0x5BE JUMP JUMPDEST STOP JUMPDEST CALLVALUE DUP1 ISZERO PUSH2 0x16A JUMPI PUSH1 0x0 DUP1 REVERT JUMPDEST POP PUSH2 0x173 PUSH2 0x5D9 JUMP JUMPDEST PUSH1 0x40 MLOAD PUSH2 0x180 SWAP2 SWAP1 PUSH2 0x80C JUMP JUMPDEST PUSH1 0x40 MLOAD DUP1 SWAP2 SUB SWAP1 RETURN JUMPDEST CALLVALUE DUP1 ISZERO PUSH2 0x195 JUMPI PUSH1 0x0 DUP1 REVERT JUMPDEST POP PUSH2 0x19E PUSH2 0x5DF JUMP JUMPDEST STOP JUMPDEST PUSH8 0xDE0B6B3A7640000 PUSH1 0x4 SLOAD LT ISZERO DUP1 ISZERO PUSH2 0x1BA JUMPI POP PUSH1 0x0 CALLVALUE EQ JUMPDEST DUP1 PUSH2 0x1CC JUMPI POP PUSH8 0xDE0B6B3A7640000 CALLVALUE EQ JUMPDEST DUP1 ISZERO PUSH2 0x20D JUMPI POP PUSH1 0x2 PUSH1 0x3 DUP2 GT ISZERO PUSH2 0x1E7 JUMPI PUSH2 0x1E6 PUSH2 0x745 JUMP JUMPDEST JUMPDEST PUSH1 0x0 DUP1 ADD PUSH1 0x0 SWAP1 SLOAD SWAP1 PUSH2 0x100 EXP SWAP1 DIV PUSH1 0xFF AND PUSH1 0x3 DUP2 GT ISZERO PUSH2 0x20B JUMPI PUSH2 0x20A PUSH2 0x745 JUMP JUMPDEST JUMPDEST EQ JUMPDEST PUSH2 0x216 JUMPI PUSH1 0x0 DUP1 REVERT JUMPDEST PUSH8 0xDE0B6B3A7640000 CALLVALUE EQ PUSH2 0x247 JUMPI PUSH8 0xDE0B6B3A7640000 PUSH1 0x4 PUSH1 0x0 DUP3 DUP3 SLOAD PUSH2 0x23F SWAP2 SWAP1 PUSH2 0x856 JUMP JUMPDEST SWAP3 POP POP DUP2 SWAP1 SSTORE POP JUMPDEST PUSH1 0x64 PUSH1 0x0 PUSH1 0x1 ADD DUP2 SWAP1 SSTORE POP JUMP JUMPDEST CALLER PUSH20 0xFFFFFFFFFFFFFFFFFFFFFFFFFFFFFFFFFFFFFFFF AND PUSH1 0x3 PUSH1 0x0 SWAP1 SLOAD SWAP1 PUSH2 0x100 EXP SWAP1 DIV PUSH20 0xFFFFFFFFFFFFFFFFFFFFFFFFFFFFFFFFFFFFFFFF AND PUSH20 0xFFFFFFFFFFFFFFFFFFFFFFFFFFFFFFFFFFFFFFFF AND EQ PUSH2 0x2AE JUMPI PUSH1 0x0 DUP1 REVERT JUMPDEST PUSH1 0x3 PUSH1 0x0 SWAP1 SLOAD SWAP1 PUSH2 0x100 EXP SWAP1 DIV PUSH20 0xFFFFFFFFFFFFFFFFFFFFFFFFFFFFFFFFFFFFFFFF AND PUSH20 0xFFFFFFFFFFFFFFFFFFFFFFFFFFFFFFFFFFFFFFFF AND PUSH2 0x8FC SELFBALANCE SWAP1 DUP2 ISZERO MUL SWAP1 PUSH1 0x40 MLOAD PUSH1 0x0 PUSH1 0x40 MLOAD DUP1 DUP4 SUB DUP2 DUP6 DUP9 DUP9 CALL SWAP4 POP POP POP POP ISZERO DUP1 ISZERO PUSH2 0x316 JUMPI RETURNDATASIZE PUSH1 0x0 DUP1 RETURNDATACOPY RETURNDATASIZE PUSH1 0x0 REVERT JUMPDEST POP JUMP JUMPDEST PUSH1 0x3 PUSH1 0x0 SWAP1 SLOAD SWAP1 PUSH2 0x100 EXP SWAP1 DIV PUSH20 0xFFFFFFFFFFFFFFFFFFFFFFFFFFFFFFFFFFFFFFFF AND DUP2 JUMP JUMPDEST PUSH1 0x2 PUSH1 0x3 DUP2 GT ISZERO PUSH2 0x353 JUMPI PUSH2 0x352 PUSH2 0x745 JUMP JUMPDEST JUMPDEST PUSH1 0x0 DUP1 ADD PUSH1 0x0 SWAP1 SLOAD SWAP1 PUSH2 0x100 EXP SWAP1 DIV PUSH1 0xFF AND PUSH1 0x3 DUP2 GT ISZERO PUSH2 0x377 JUMPI PUSH2 0x376 PUSH2 0x745 JUMP JUMPDEST JUMPDEST EQ ISZERO DUP1 ISZERO PUSH2 0x3BB JUMPI POP PUSH1 0x0 PUSH1 0x3 DUP2 GT ISZERO PUSH2 0x394 JUMPI PUSH2 0x393 PUSH2 0x745 JUMP JUMPDEST JUMPDEST PUSH1 0x0 DUP1 ADD PUSH1 0x0 SWAP1 SLOAD SWAP1 PUSH2 0x100 EXP SWAP1 DIV PUSH1 0xFF AND PUSH1 0x3 DUP2 GT ISZERO PUSH2 0x3B8 JUMPI PUSH2 0x3B7 PUSH2 0x745 JUMP JUMPDEST JUMPDEST EQ ISZERO JUMPDEST PUSH2 0x3C4 JUMPI PUSH1 0x0 DUP1 REVERT JUMPDEST PUSH1 0x0 PUSH1 0x2 ADD PUSH1 0x0 DUP2 SLOAD DUP1 SWAP3 SWAP2 SWAP1 PUSH2 0x3DA SWAP1 PUSH2 0x88A JUMP JUMPDEST SWAP2 SWAP1 POP SSTORE POP PUSH1 0x0 PUSH1 0x1 ADD PUSH1 0x0 DUP2 SLOAD DUP1 SWAP3 SWAP2 SWAP1 PUSH2 0x3F5 SWAP1 PUSH2 0x88A JUMP JUMPDEST SWAP2 SWAP1 POP SSTORE POP PUSH1 0x0 DUP1 PUSH1 0x2 ADD SLOAD SUB PUSH2 0x434 JUMPI PUSH1 0x0 DUP1 PUSH1 0x0 ADD PUSH1 0x0 PUSH2 0x100 EXP DUP2 SLOAD DUP2 PUSH1 0xFF MUL NOT AND SWAP1 DUP4 PUSH1 0x3 DUP2 GT ISZERO PUSH2 0x42E JUMPI PUSH2 0x42D PUSH2 0x745 JUMP JUMPDEST JUMPDEST MUL OR SWAP1 SSTORE POP JUMPDEST PUSH1 0x0 DUP1 PUSH1 0x1 ADD SLOAD SUB PUSH2 0x46E JUMPI PUSH1 0x3 PUSH1 0x0 DUP1 ADD PUSH1 0x0 PUSH2 0x100 EXP DUP2 SLOAD DUP2 PUSH1 0xFF MUL NOT AND SWAP1 DUP4 PUSH1 0x3 DUP2 GT ISZERO PUSH2 0x468 JUMPI PUSH2 0x467 PUSH2 0x745 JUMP JUMPDEST JUMPDEST MUL OR SWAP1 SSTORE POP JUMPDEST JUMP JUMPDEST PUSH1 0x0 DUP1 PUSH1 0x0 ADD PUSH1 0x0 SWAP1 SLOAD SWAP1 PUSH2 0x100 EXP SWAP1 DIV PUSH1 0xFF AND SWAP1 DUP1 PUSH1 0x1 ADD SLOAD SWAP1 DUP1 PUSH1 0x2 ADD SLOAD SWAP1 POP DUP4 JUMP JUMPDEST PUSH1 0x0 DUP1 PUSH1 0x2 ADD SLOAD EQ DUP1 ISZERO PUSH2 0x4DF JUMPI POP PUSH1 0x2 PUSH1 0x3 DUP2 GT ISZERO PUSH2 0x4B8 JUMPI PUSH2 0x4B7 PUSH2 0x745 JUMP JUMPDEST JUMPDEST PUSH1 0x0 DUP1 ADD PUSH1 0x0 SWAP1 SLOAD SWAP1 PUSH2 0x100 EXP SWAP1 DIV PUSH1 0xFF AND PUSH1 0x3 DUP2 GT ISZERO PUSH2 0x4DC JUMPI PUSH2 0x4DB PUSH2 0x745 JUMP JUMPDEST JUMPDEST EQ ISZERO JUMPDEST DUP1 PUSH2 0x4EE JUMPI POP PUSH1 0x0 DUP1 PUSH1 0x1 ADD SLOAD EQ JUMPDEST PUSH2 0x4F7 JUMPI PUSH1 0x0 DUP1 REVERT JUMPDEST PUSH1 0x0 DUP1 PUSH1 0x2 ADD SLOAD EQ PUSH2 0x50E JUMPI PUSH1 0x0 DUP1 PUSH1 0x2 ADD DUP2 SWAP1 SSTORE POP JUMPDEST PUSH1 0x2 PUSH1 0x0 DUP1 ADD PUSH1 0x0 PUSH2 0x100 EXP DUP2 SLOAD DUP2 PUSH1 0xFF MUL NOT AND SWAP1 DUP4 PUSH1 0x3 DUP2 GT ISZERO PUSH2 0x536 JUMPI PUSH2 0x535 PUSH2 0x745 JUMP JUMPDEST JUMPDEST MUL OR SWAP1 SSTORE POP JUMP JUMPDEST PUSH1 0x2 PUSH1 0x3 DUP2 GT ISZERO PUSH2 0x551 JUMPI PUSH2 0x550 PUSH2 0x745 JUMP JUMPDEST JUMPDEST PUSH1 0x0 DUP1 ADD PUSH1 0x0 SWAP1 SLOAD SWAP1 PUSH2 0x100 EXP SWAP1 DIV PUSH1 0xFF AND PUSH1 0x3 DUP2 GT ISZERO PUSH2 0x575 JUMPI PUSH2 0x574 PUSH2 0x745 JUMP JUMPDEST JUMPDEST EQ DUP1 ISZERO PUSH2 0x586 JUMPI POP PUSH1 0x0 DUP1 PUSH1 0x1 ADD SLOAD GT JUMPDEST PUSH2 0x58F JUMPI PUSH1 0x0 DUP1 REVERT JUMPDEST PUSH1 0x0 DUP1 PUSH1 0x0 ADD PUSH1 0x0 PUSH2 0x100 EXP DUP2 SLOAD DUP2 PUSH1 0xFF MUL NOT AND SWAP1 DUP4 PUSH1 0x3 DUP2 GT ISZERO PUSH2 0x5B7 JUMPI PUSH2 0x5B6 PUSH2 0x745 JUMP JUMPDEST JUMPDEST MUL OR SWAP1 SSTORE POP JUMP JUMPDEST CALLVALUE PUSH1 0x4 PUSH1 0x0 DUP3 DUP3 SLOAD PUSH2 0x5D0 SWAP2 SWAP1 PUSH2 0x8B3 JUMP JUMPDEST SWAP3 POP POP DUP2 SWAP1 SSTORE POP JUMP JUMPDEST PUSH1 0x4 SLOAD DUP2 JUMP JUMPDEST PUSH1 0x1E PUSH1 0x0 PUSH1 0x1 ADD SLOAD GT DUP1 ISZERO PUSH2 0x5F9 JUMPI POP PUSH1 0x46 PUSH1 0x0 PUSH1 0x2 ADD SLOAD LT JUMPDEST DUP1 ISZERO PUSH2 0x63B JUMPI POP PUSH1 0x2 PUSH1 0x3 DUP2 GT ISZERO PUSH2 0x614 JUMPI PUSH2 0x613 PUSH2 0x745 JUMP JUMPDEST JUMPDEST PUSH1 0x0 DUP1 ADD PUSH1 0x0 SWAP1 SLOAD SWAP1 PUSH2 0x100 EXP SWAP1 DIV PUSH1 0xFF AND PUSH1 0x3 DUP2 GT ISZERO PUSH2 0x638 JUMPI PUSH2 0x637 PUSH2 0x745 JUMP JUMPDEST JUMPDEST EQ ISZERO JUMPDEST PUSH2 0x644 JUMPI PUSH1 0x0 DUP1 REVERT JUMPDEST PUSH1 0x1 PUSH1 0x3 DUP2 GT ISZERO PUSH2 0x658 JUMPI PUSH2 0x657 PUSH2 0x745 JUMP JUMPDEST JUMPDEST PUSH1 0x0 DUP1 ADD PUSH1 0x0 SWAP1 SLOAD SWAP1 PUSH2 0x100 EXP SWAP1 DIV PUSH1 0xFF AND PUSH1 0x3 DUP2 GT ISZERO PUSH2 0x67C JUMPI PUSH2 0x67B PUSH2 0x745 JUMP JUMPDEST JUMPDEST EQ PUSH2 0x6AF JUMPI PUSH1 0x1 PUSH1 0x0 DUP1 ADD PUSH1 0x0 PUSH2 0x100 EXP DUP2 SLOAD DUP2 PUSH1 0xFF MUL NOT AND SWAP1 DUP4 PUSH1 0x3 DUP2 GT ISZERO PUSH2 0x6A9 JUMPI PUSH2 0x6A8 PUSH2 0x745 JUMP JUMPDEST JUMPDEST MUL OR SWAP1 SSTORE POP JUMPDEST PUSH1 0x0 PUSH1 0x2 ADD PUSH1 0x0 DUP2 SLOAD DUP1 SWAP3 SWAP2 SWAP1 PUSH2 0x6C5 SWAP1 PUSH2 0x8E7 JUMP JUMPDEST SWAP2 SWAP1 POP SSTORE POP PUSH1 0x2 PUSH1 0x0 PUSH1 0x1 ADD PUSH1 0x0 DUP3 DUP3 SLOAD PUSH2 0x6E0 SWAP2 SWAP1 PUSH2 0x856 JUMP JUMPDEST SWAP3 POP POP DUP2 SWAP1 SSTORE POP JUMP JUMPDEST PUSH1 0x0 PUSH20 0xFFFFFFFFFFFFFFFFFFFFFFFFFFFFFFFFFFFFFFFF DUP3 AND SWAP1 POP SWAP2 SWAP1 POP JUMP JUMPDEST PUSH1 0x0 PUSH2 0x714 DUP3 PUSH2 0x6E9 JUMP JUMPDEST SWAP1 POP SWAP2 SWAP1 POP JUMP JUMPDEST PUSH2 0x724 DUP2 PUSH2 0x709 JUMP JUMPDEST DUP3 MSTORE POP POP JUMP JUMPDEST PUSH1 0x0 PUSH1 0x20 DUP3 ADD SWAP1 POP PUSH2 0x73F PUSH1 0x0 DUP4 ADD DUP5 PUSH2 0x71B JUMP JUMPDEST SWAP3 SWAP2 POP POP JUMP JUMPDEST PUSH32 0x4E487B7100000000000000000000000000000000000000000000000000000000 PUSH1 0x0 MSTORE PUSH1 0x21 PUSH1 0x4 MSTORE PUSH1 0x24 PUSH1 0x0 REVERT JUMPDEST PUSH1 0x4 DUP2 LT PUSH2 0x785 JUMPI PUSH2 0x784 PUSH2 0x745 JUMP JUMPDEST JUMPDEST POP JUMP JUMPDEST PUSH1 0x0 DUP2 SWAP1 POP PUSH2 0x796 DUP3 PUSH2 0x774 JUMP JUMPDEST SWAP2 SWAP1 POP JUMP JUMPDEST PUSH1 0x0 PUSH2 0x7A6 DUP3 PUSH2 0x788 JUMP JUMPDEST SWAP1 POP SWAP2 SWAP1 POP JUMP JUMPDEST PUSH2 0x7B6 DUP2 PUSH2 0x79B JUMP JUMPDEST DUP3 MSTORE POP POP JUMP JUMPDEST PUSH1 0x0 DUP2 SWAP1 POP SWAP2 SWAP1 POP JUMP JUMPDEST PUSH2 0x7CF DUP2 PUSH2 0x7BC JUMP JUMPDEST DUP3 MSTORE POP POP JUMP JUMPDEST PUSH1 0x0 PUSH1 0x60 DUP3 ADD SWAP1 POP PUSH2 0x7EA PUSH1 0x0 DUP4 ADD DUP7 PUSH2 0x7AD JUMP JUMPDEST PUSH2 0x7F7 PUSH1 0x20 DUP4 ADD DUP6 PUSH2 0x7C6 JUMP JUMPDEST PUSH2 0x804 PUSH1 0x40 DUP4 ADD DUP5 PUSH2 0x7C6 JUMP JUMPDEST SWAP5 SWAP4 POP POP POP POP JUMP JUMPDEST PUSH1 0x0 PUSH1 0x20 DUP3 ADD SWAP1 POP PUSH2 0x821 PUSH1 0x0 DUP4 ADD DUP5 PUSH2 0x7C6 JUMP JUMPDEST SWAP3 SWAP2 POP POP JUMP JUMPDEST PUSH32 0x4E487B7100000000000000000000000000000000000000000000000000000000 PUSH1 0x0 MSTORE PUSH1 0x11 PUSH1 0x4 MSTORE PUSH1 0x24 PUSH1 0x0 REVERT JUMPDEST PUSH1 0x0 PUSH2 0x861 DUP3 PUSH2 0x7BC JUMP JUMPDEST SWAP2 POP PUSH2 0x86C DUP4 PUSH2 0x7BC JUMP JUMPDEST SWAP3 POP DUP3 DUP3 SUB SWAP1 POP DUP2 DUP2 GT ISZERO PUSH2 0x884 JUMPI PUSH2 0x883 PUSH2 0x827 JUMP JUMPDEST JUMPDEST SWAP3 SWAP2 POP POP JUMP JUMPDEST PUSH1 0x0 PUSH2 0x895 DUP3 PUSH2 0x7BC JUMP JUMPDEST SWAP2 POP PUSH1 0x0 DUP3 SUB PUSH2 0x8A8 JUMPI PUSH2 0x8A7 PUSH2 0x827 JUMP JUMPDEST JUMPDEST PUSH1 0x1 DUP3 SUB SWAP1 POP SWAP2 SWAP1 POP JUMP JUMPDEST PUSH1 0x0 PUSH2 0x8BE DUP3 PUSH2 0x7BC JUMP JUMPDEST SWAP2 POP PUSH2 0x8C9 DUP4 PUSH2 0x7BC JUMP JUMPDEST SWAP3 POP DUP3 DUP3 ADD SWAP1 POP DUP1 DUP3 GT ISZERO PUSH2 0x8E1 JUMPI PUSH2 0x8E0 PUSH2 0x827 JUMP JUMPDEST JUMPDEST SWAP3 SWAP2 POP POP JUMP JUMPDEST PUSH1 0x0 PUSH2 0x8F2 DUP3 PUSH2 0x7BC JUMP JUMPDEST SWAP2 POP PUSH32 0xFFFFFFFFFFFFFFFFFFFFFFFFFFFFFFFFFFFFFFFFFFFFFFFFFFFFFFFFFFFFFFFF DUP3 SUB PUSH2 0x924 JUMPI PUSH2 0x923 PUSH2 0x827 JUMP JUMPDEST JUMPDEST PUSH1 0x1 DUP3 ADD SWAP1 POP SWAP2 SWAP1 POP JUMP INVALID LOG2 PUSH5 0x6970667358 0x22 SLT KECCAK256 PUSH12 0xBBBD2252E29B2139DB857156 0xDC 0x1E RETURN 0xB4 ADDMOD PUSH1 0x6F 0x22 ADDMOD 0xC3 0xD7 0xC7 0xC2 0xA8 STOP XOR PUSH9 0x7FA564736F6C634300 ADDMOD SLT STOP CALLER "
				},
				"gasEstimates": {
					"creation": {
						"codeDepositCost": "481000",
						"executionCost": "24785",
						"totalCost": "505785"
					},
					"external": {
						"accel()": "infinite",
						"breakCar()": "infinite",
						"deposit()": "infinite",
						"myCar()": "infinite",
						"owner()": "2559",
						"prePaid()": "2495",
						"reCharge()": "infinite",
						"turnOff()": "38077",
						"turnOn()": "28813",
						"withdraw()": "infinite"
					}
				},
				"methodIdentifiers": {
					"accel()": "f282df78",
					"breakCar()": "96f1c1a8",
					"deposit()": "d0e30db0",
					"myCar()": "9cdde813",
					"owner()": "8da5cb5b",
					"prePaid()": "da127f2e",
					"reCharge()": "3446136a",
					"turnOff()": "af10c810",
					"turnOn()": "ba33ed7d",
					"withdraw()": "3ccfd60b"
				}
			},
			"storageLayout": {
				"storage": [
					{
						"astId": 17,
						"contract": "contracts-test/230515-QUIZ3-answer.sol:Q3",
						"label": "myCar",
						"offset": 0,
						"slot": "0",
						"type": "t_struct(car)14_storage"
					},
					{
						"astId": 19,
						"contract": "contracts-test/230515-QUIZ3-answer.sol:Q3",
						"label": "owner",
						"offset": 0,
						"slot": "3",
						"type": "t_address_payable"
					},
					{
						"astId": 271,
						"contract": "contracts-test/230515-QUIZ3-answer.sol:Q3",
						"label": "prePaid",
						"offset": 0,
						"slot": "4",
						"type": "t_uint256"
					}
				],
				"types": {
					"t_address_payable": {
						"encoding": "inplace",
						"label": "address payable",
						"numberOfBytes": "20"
					},
					"t_enum(carStatus)6": {
						"encoding": "inplace",
						"label": "enum Q3.carStatus",
						"numberOfBytes": "1"
					},
					"t_struct(car)14_storage": {
						"encoding": "inplace",
						"label": "struct Q3.car",
						"members": [
							{
								"astId": 9,
								"contract": "contracts-test/230515-QUIZ3-answer.sol:Q3",
								"label": "status",
								"offset": 0,
								"slot": "0",
								"type": "t_enum(carStatus)6"
							},
							{
								"astId": 11,
								"contract": "contracts-test/230515-QUIZ3-answer.sol:Q3",
								"label": "fuelGauage",
								"offset": 0,
								"slot": "1",
								"type": "t_uint256"
							},
							{
								"astId": 13,
								"contract": "contracts-test/230515-QUIZ3-answer.sol:Q3",
								"label": "speed",
								"offset": 0,
								"slot": "2",
								"type": "t_uint256"
							}
						],
						"numberOfBytes": "96"
					},
					"t_uint256": {
						"encoding": "inplace",
						"label": "uint256",
						"numberOfBytes": "32"
					}
				}
			},
			"userdoc": {
				"kind": "user",
				"methods": {},
				"version": 1
			}
		}
	}
}