{
	"contracts-test/230517-test1-answer.sol": {
		"Q5": {
			"abi": [
				{
					"inputs": [
						{
							"internalType": "bytes",
							"name": "_bytes",
							"type": "bytes"
						}
					],
					"name": "bytestoBytes1Array",
					"outputs": [
						{
							"internalType": "bytes1[]",
							"name": "",
							"type": "bytes1[]"
						}
					],
					"stateMutability": "pure",
					"type": "function"
				},
				{
					"inputs": [
						{
							"internalType": "uint256",
							"name": "_n",
							"type": "uint256"
						}
					],
					"name": "divideNumber",
					"outputs": [
						{
							"internalType": "uint256",
							"name": "",
							"type": "uint256"
						},
						{
							"internalType": "uint256[]",
							"name": "",
							"type": "uint256[]"
						}
					],
					"stateMutability": "pure",
					"type": "function"
				},
				{
					"inputs": [
						{
							"internalType": "uint256",
							"name": "_n",
							"type": "uint256"
						}
					],
					"name": "getLength",
					"outputs": [
						{
							"internalType": "uint256",
							"name": "",
							"type": "uint256"
						}
					],
					"stateMutability": "pure",
					"type": "function"
				},
				{
					"inputs": [
						{
							"internalType": "string",
							"name": "_string",
							"type": "string"
						}
					],
					"name": "stringToBytes1Array",
					"outputs": [
						{
							"internalType": "uint256",
							"name": "",
							"type": "uint256"
						},
						{
							"internalType": "string[]",
							"name": "",
							"type": "string[]"
						},
						{
							"internalType": "string",
							"name": "",
							"type": "string"
						}
					],
					"stateMutability": "pure",
					"type": "function"
				}
			],
			"devdoc": {
				"kind": "dev",
				"methods": {},
				"version": 1
			},
			"evm": {
				"assembly": "    /* \"contracts-test/230517-test1-answer.sol\":587:1843  contract Q5 {... */\n  mstore(0x40, 0x80)\n  callvalue\n  dup1\n  iszero\n  tag_1\n  jumpi\n  0x00\n  dup1\n  revert\ntag_1:\n  pop\n  dataSize(sub_0)\n  dup1\n  dataOffset(sub_0)\n  0x00\n  codecopy\n  0x00\n  return\nstop\n\nsub_0: assembly {\n        /* \"contracts-test/230517-test1-answer.sol\":587:1843  contract Q5 {... */\n      mstore(0x40, 0x80)\n      callvalue\n      dup1\n      iszero\n      tag_1\n      jumpi\n      0x00\n      dup1\n      revert\n    tag_1:\n      pop\n      jumpi(tag_2, lt(calldatasize, 0x04))\n      shr(0xe0, calldataload(0x00))\n      dup1\n      0x0986e647\n      eq\n      tag_3\n      jumpi\n      dup1\n      0x0b6d1fbf\n      eq\n      tag_4\n      jumpi\n      dup1\n      0x2ac45d9c\n      eq\n      tag_5\n      jumpi\n      dup1\n      0x68836ddd\n      eq\n      tag_6\n      jumpi\n    tag_2:\n      0x00\n      dup1\n      revert\n        /* \"contracts-test/230517-test1-answer.sol\":892:1042  function getLength(uint _n) public pure returns(uint) {... */\n    tag_3:\n      tag_7\n      0x04\n      dup1\n      calldatasize\n      sub\n      dup2\n      add\n      swap1\n      tag_8\n      swap2\n      swap1\n      tag_9\n      jump\t// in\n    tag_8:\n      tag_10\n      jump\t// in\n    tag_7:\n      mload(0x40)\n      tag_11\n      swap2\n      swap1\n      tag_12\n      jump\t// in\n    tag_11:\n      mload(0x40)\n      dup1\n      swap2\n      sub\n      swap1\n      return\n        /* \"contracts-test/230517-test1-answer.sol\":1048:1321  function bytestoBytes1Array(bytes memory _bytes) public pure returns(bytes1[] memory) {... */\n    tag_4:\n      tag_13\n      0x04\n      dup1\n      calldatasize\n      sub\n      dup2\n      add\n      swap1\n      tag_14\n      swap2\n      swap1\n      tag_15\n      jump\t// in\n    tag_14:\n      tag_16\n      jump\t// in\n    tag_13:\n      mload(0x40)\n      tag_17\n      swap2\n      swap1\n      tag_18\n      jump\t// in\n    tag_17:\n      mload(0x40)\n      dup1\n      swap2\n      sub\n      swap1\n      return\n        /* \"contracts-test/230517-test1-answer.sol\":606:886  function divideNumber(uint _n) public pure returns(uint, uint[] memory) {... */\n    tag_5:\n      tag_19\n      0x04\n      dup1\n      calldatasize\n      sub\n      dup2\n      add\n      swap1\n      tag_20\n      swap2\n      swap1\n      tag_9\n      jump\t// in\n    tag_20:\n      tag_21\n      jump\t// in\n    tag_19:\n      mload(0x40)\n      tag_22\n      swap3\n      swap2\n      swap1\n      tag_23\n      jump\t// in\n    tag_22:\n      mload(0x40)\n      dup1\n      swap2\n      sub\n      swap1\n      return\n        /* \"contracts-test/230517-test1-answer.sol\":1327:1841  function stringToBytes1Array(string memory _string) public pure returns(uint, string[] memory, string memory) {... */\n    tag_6:\n      tag_24\n      0x04\n      dup1\n      calldatasize\n      sub\n      dup2\n      add\n      swap1\n      tag_25\n      swap2\n      swap1\n      tag_26\n      jump\t// in\n    tag_25:\n      tag_27\n      jump\t// in\n    tag_24:\n      mload(0x40)\n      tag_28\n      swap4\n      swap3\n      swap2\n      swap1\n      tag_29\n      jump\t// in\n    tag_28:\n      mload(0x40)\n      dup1\n      swap2\n      sub\n      swap1\n      return\n        /* \"contracts-test/230517-test1-answer.sol\":892:1042  function getLength(uint _n) public pure returns(uint) {... */\n    tag_10:\n        /* \"contracts-test/230517-test1-answer.sol\":940:944  uint */\n      0x00\n        /* \"contracts-test/230517-test1-answer.sol\":956:962  uint a */\n      dup1\n        /* \"contracts-test/230517-test1-answer.sol\":972:1018  while(_n > 10**a) {... */\n    tag_31:\n        /* \"contracts-test/230517-test1-answer.sol\":987:988  a */\n      dup1\n        /* \"contracts-test/230517-test1-answer.sol\":983:985  10 */\n      0x0a\n        /* \"contracts-test/230517-test1-answer.sol\":983:988  10**a */\n      tag_33\n      swap2\n      swap1\n      tag_34\n      jump\t// in\n    tag_33:\n        /* \"contracts-test/230517-test1-answer.sol\":978:980  _n */\n      dup4\n        /* \"contracts-test/230517-test1-answer.sol\":978:988  _n > 10**a */\n      gt\n        /* \"contracts-test/230517-test1-answer.sol\":972:1018  while(_n > 10**a) {... */\n      iszero\n      tag_32\n      jumpi\n        /* \"contracts-test/230517-test1-answer.sol\":1004:1007  a++ */\n      dup1\n      dup1\n      tag_35\n      swap1\n      tag_36\n      jump\t// in\n    tag_35:\n      swap2\n      pop\n      pop\n        /* \"contracts-test/230517-test1-answer.sol\":972:1018  while(_n > 10**a) {... */\n      jump(tag_31)\n    tag_32:\n        /* \"contracts-test/230517-test1-answer.sol\":1034:1035  a */\n      dup1\n        /* \"contracts-test/230517-test1-answer.sol\":1027:1035  return a */\n      swap2\n      pop\n      pop\n        /* \"contracts-test/230517-test1-answer.sol\":892:1042  function getLength(uint _n) public pure returns(uint) {... */\n      swap2\n      swap1\n      pop\n      jump\t// out\n        /* \"contracts-test/230517-test1-answer.sol\":1048:1321  function bytestoBytes1Array(bytes memory _bytes) public pure returns(bytes1[] memory) {... */\n    tag_16:\n        /* \"contracts-test/230517-test1-answer.sol\":1117:1132  bytes1[] memory */\n      0x60\n        /* \"contracts-test/230517-test1-answer.sol\":1144:1167  bytes1[] memory _bytes1 */\n      0x00\n        /* \"contracts-test/230517-test1-answer.sol\":1183:1189  _bytes */\n      dup3\n        /* \"contracts-test/230517-test1-answer.sol\":1183:1196  _bytes.length */\n      mload\n        /* \"contracts-test/230517-test1-answer.sol\":1170:1197  new bytes1[](_bytes.length) */\n      0xffffffffffffffff\n      dup2\n      gt\n      iszero\n      tag_38\n      jumpi\n      tag_39\n      tag_40\n      jump\t// in\n    tag_39:\n    tag_38:\n      mload(0x40)\n      swap1\n      dup1\n      dup3\n      mstore\n      dup1\n      0x20\n      mul\n      0x20\n      add\n      dup3\n      add\n      0x40\n      mstore\n      dup1\n      iszero\n      tag_41\n      jumpi\n      dup2\n      0x20\n      add\n      0x20\n      dup3\n      mul\n      dup1\n      calldatasize\n      dup4\n      calldatacopy\n      dup1\n      dup3\n      add\n      swap2\n      pop\n      pop\n      swap1\n      pop\n    tag_41:\n      pop\n        /* \"contracts-test/230517-test1-answer.sol\":1144:1197  bytes1[] memory _bytes1 = new bytes1[](_bytes.length) */\n      swap1\n      pop\n        /* \"contracts-test/230517-test1-answer.sol\":1211:1217  uint i */\n      0x00\n        /* \"contracts-test/230517-test1-answer.sol\":1207:1291  for(uint i=0; i<_bytes1.length; i++) {... */\n    tag_42:\n        /* \"contracts-test/230517-test1-answer.sol\":1223:1230  _bytes1 */\n      dup2\n        /* \"contracts-test/230517-test1-answer.sol\":1223:1237  _bytes1.length */\n      mload\n        /* \"contracts-test/230517-test1-answer.sol\":1221:1222  i */\n      dup2\n        /* \"contracts-test/230517-test1-answer.sol\":1221:1237  i<_bytes1.length */\n      lt\n        /* \"contracts-test/230517-test1-answer.sol\":1207:1291  for(uint i=0; i<_bytes1.length; i++) {... */\n      iszero\n      tag_43\n      jumpi\n        /* \"contracts-test/230517-test1-answer.sol\":1271:1277  _bytes */\n      dup4\n        /* \"contracts-test/230517-test1-answer.sol\":1278:1279  i */\n      dup2\n        /* \"contracts-test/230517-test1-answer.sol\":1271:1280  _bytes[i] */\n      dup2\n      mload\n      dup2\n      lt\n      tag_45\n      jumpi\n      tag_46\n      tag_47\n      jump\t// in\n    tag_46:\n    tag_45:\n      0x20\n      add\n      add\n      mload\n      0xf8\n      shr\n      0xf8\n      shl\n        /* \"contracts-test/230517-test1-answer.sol\":1258:1265  _bytes1 */\n      dup3\n        /* \"contracts-test/230517-test1-answer.sol\":1266:1267  i */\n      dup3\n        /* \"contracts-test/230517-test1-answer.sol\":1258:1268  _bytes1[i] */\n      dup2\n      mload\n      dup2\n      lt\n      tag_48\n      jumpi\n      tag_49\n      tag_47\n      jump\t// in\n    tag_49:\n    tag_48:\n      0x20\n      mul\n      0x20\n      add\n      add\n        /* \"contracts-test/230517-test1-answer.sol\":1258:1280  _bytes1[i] = _bytes[i] */\n      swap1\n      not(0xffffffffffffffffffffffffffffffffffffffffffffffffffffffffffffff)\n      and\n      swap1\n      dup2\n      not(0xffffffffffffffffffffffffffffffffffffffffffffffffffffffffffffff)\n      and\n      dup2\n      mstore\n      pop\n      pop\n        /* \"contracts-test/230517-test1-answer.sol\":1239:1242  i++ */\n      dup1\n      dup1\n      tag_50\n      swap1\n      tag_36\n      jump\t// in\n    tag_50:\n      swap2\n      pop\n      pop\n        /* \"contracts-test/230517-test1-answer.sol\":1207:1291  for(uint i=0; i<_bytes1.length; i++) {... */\n      jump(tag_42)\n    tag_43:\n      pop\n        /* \"contracts-test/230517-test1-answer.sol\":1307:1314  _bytes1 */\n      dup1\n        /* \"contracts-test/230517-test1-answer.sol\":1300:1314  return _bytes1 */\n      swap2\n      pop\n      pop\n        /* \"contracts-test/230517-test1-answer.sol\":1048:1321  function bytestoBytes1Array(bytes memory _bytes) public pure returns(bytes1[] memory) {... */\n      swap2\n      swap1\n      pop\n      jump\t// out\n        /* \"contracts-test/230517-test1-answer.sol\":606:886  function divideNumber(uint _n) public pure returns(uint, uint[] memory) {... */\n    tag_21:\n        /* \"contracts-test/230517-test1-answer.sol\":657:661  uint */\n      0x00\n        /* \"contracts-test/230517-test1-answer.sol\":663:676  uint[] memory */\n      0x60\n        /* \"contracts-test/230517-test1-answer.sol\":688:703  uint[] memory b */\n      0x00\n        /* \"contracts-test/230517-test1-answer.sol\":717:730  getLength(_n) */\n      tag_52\n        /* \"contracts-test/230517-test1-answer.sol\":727:729  _n */\n      dup5\n        /* \"contracts-test/230517-test1-answer.sol\":717:726  getLength */\n      tag_10\n        /* \"contracts-test/230517-test1-answer.sol\":717:730  getLength(_n) */\n      jump\t// in\n    tag_52:\n        /* \"contracts-test/230517-test1-answer.sol\":706:731  new uint[](getLength(_n)) */\n      0xffffffffffffffff\n      dup2\n      gt\n      iszero\n      tag_53\n      jumpi\n      tag_54\n      tag_40\n      jump\t// in\n    tag_54:\n    tag_53:\n      mload(0x40)\n      swap1\n      dup1\n      dup3\n      mstore\n      dup1\n      0x20\n      mul\n      0x20\n      add\n      dup3\n      add\n      0x40\n      mstore\n      dup1\n      iszero\n      tag_55\n      jumpi\n      dup2\n      0x20\n      add\n      0x20\n      dup3\n      mul\n      dup1\n      calldatasize\n      dup4\n      calldatacopy\n      dup1\n      dup3\n      add\n      swap2\n      pop\n      pop\n      swap1\n      pop\n    tag_55:\n      pop\n        /* \"contracts-test/230517-test1-answer.sol\":688:731  uint[] memory b = new uint[](getLength(_n)) */\n      swap1\n      pop\n        /* \"contracts-test/230517-test1-answer.sol\":742:748  uint i */\n      0x00\n        /* \"contracts-test/230517-test1-answer.sol\":749:762  getLength(_n) */\n      tag_56\n        /* \"contracts-test/230517-test1-answer.sol\":759:761  _n */\n      dup6\n        /* \"contracts-test/230517-test1-answer.sol\":749:758  getLength */\n      tag_10\n        /* \"contracts-test/230517-test1-answer.sol\":749:762  getLength(_n) */\n      jump\t// in\n    tag_56:\n        /* \"contracts-test/230517-test1-answer.sol\":742:762  uint i=getLength(_n) */\n      swap1\n      pop\n        /* \"contracts-test/230517-test1-answer.sol\":772:849  while(_n !=0) {... */\n    tag_57:\n        /* \"contracts-test/230517-test1-answer.sol\":783:784  0 */\n      0x00\n        /* \"contracts-test/230517-test1-answer.sol\":778:780  _n */\n      dup6\n        /* \"contracts-test/230517-test1-answer.sol\":778:784  _n !=0 */\n      eq\n        /* \"contracts-test/230517-test1-answer.sol\":772:849  while(_n !=0) {... */\n      tag_58\n      jumpi\n        /* \"contracts-test/230517-test1-answer.sol\":812:814  10 */\n      0x0a\n        /* \"contracts-test/230517-test1-answer.sol\":809:811  _n */\n      dup6\n        /* \"contracts-test/230517-test1-answer.sol\":809:814  _n%10 */\n      tag_59\n      swap2\n      swap1\n      tag_60\n      jump\t// in\n    tag_59:\n        /* \"contracts-test/230517-test1-answer.sol\":800:801  b */\n      dup3\n        /* \"contracts-test/230517-test1-answer.sol\":802:805  --i */\n      dup3\n      tag_61\n      swap1\n      tag_62\n      jump\t// in\n    tag_61:\n      swap3\n      pop\n      dup3\n        /* \"contracts-test/230517-test1-answer.sol\":800:806  b[--i] */\n      dup2\n      mload\n      dup2\n      lt\n      tag_63\n      jumpi\n      tag_64\n      tag_47\n      jump\t// in\n    tag_64:\n    tag_63:\n      0x20\n      mul\n      0x20\n      add\n      add\n        /* \"contracts-test/230517-test1-answer.sol\":800:814  b[--i] = _n%10 */\n      dup2\n      dup2\n      mstore\n      pop\n      pop\n        /* \"contracts-test/230517-test1-answer.sol\":836:838  10 */\n      0x0a\n        /* \"contracts-test/230517-test1-answer.sol\":833:835  _n */\n      dup6\n        /* \"contracts-test/230517-test1-answer.sol\":833:838  _n/10 */\n      tag_65\n      swap2\n      swap1\n      tag_66\n      jump\t// in\n    tag_65:\n        /* \"contracts-test/230517-test1-answer.sol\":828:838  _n = _n/10 */\n      swap5\n      pop\n        /* \"contracts-test/230517-test1-answer.sol\":772:849  while(_n !=0) {... */\n      jump(tag_57)\n    tag_58:\n        /* \"contracts-test/230517-test1-answer.sol\":866:867  b */\n      dup2\n        /* \"contracts-test/230517-test1-answer.sol\":866:874  b.length */\n      mload\n        /* \"contracts-test/230517-test1-answer.sol\":877:878  b */\n      dup3\n        /* \"contracts-test/230517-test1-answer.sol\":858:879  return (b.length , b) */\n      swap4\n      pop\n      swap4\n      pop\n      pop\n      pop\n        /* \"contracts-test/230517-test1-answer.sol\":606:886  function divideNumber(uint _n) public pure returns(uint, uint[] memory) {... */\n      swap2\n      pop\n      swap2\n      jump\t// out\n        /* \"contracts-test/230517-test1-answer.sol\":1327:1841  function stringToBytes1Array(string memory _string) public pure returns(uint, string[] memory, string memory) {... */\n    tag_27:\n        /* \"contracts-test/230517-test1-answer.sol\":1399:1403  uint */\n      0x00\n        /* \"contracts-test/230517-test1-answer.sol\":1405:1420  string[] memory */\n      0x60\n        /* \"contracts-test/230517-test1-answer.sol\":1422:1435  string memory */\n      dup1\n        /* \"contracts-test/230517-test1-answer.sol\":1447:1470  bytes1[] memory b_array */\n      0x00\n        /* \"contracts-test/230517-test1-answer.sol\":1492:1499  _string */\n      dup5\n        /* \"contracts-test/230517-test1-answer.sol\":1486:1507  bytes(_string).length */\n      mload\n        /* \"contracts-test/230517-test1-answer.sol\":1473:1508  new bytes1[](bytes(_string).length) */\n      0xffffffffffffffff\n      dup2\n      gt\n      iszero\n      tag_68\n      jumpi\n      tag_69\n      tag_40\n      jump\t// in\n    tag_69:\n    tag_68:\n      mload(0x40)\n      swap1\n      dup1\n      dup3\n      mstore\n      dup1\n      0x20\n      mul\n      0x20\n      add\n      dup3\n      add\n      0x40\n      mstore\n      dup1\n      iszero\n      tag_70\n      jumpi\n      dup2\n      0x20\n      add\n      0x20\n      dup3\n      mul\n      dup1\n      calldatasize\n      dup4\n      calldatacopy\n      dup1\n      dup3\n      add\n      swap2\n      pop\n      pop\n      swap1\n      pop\n    tag_70:\n      pop\n        /* \"contracts-test/230517-test1-answer.sol\":1447:1508  bytes1[] memory b_array = new bytes1[](bytes(_string).length) */\n      swap1\n      pop\n        /* \"contracts-test/230517-test1-answer.sol\":1528:1562  bytestoBytes1Array(bytes(_string)) */\n      tag_71\n        /* \"contracts-test/230517-test1-answer.sol\":1553:1560  _string */\n      dup6\n        /* \"contracts-test/230517-test1-answer.sol\":1528:1546  bytestoBytes1Array */\n      tag_16\n        /* \"contracts-test/230517-test1-answer.sol\":1528:1562  bytestoBytes1Array(bytes(_string)) */\n      jump\t// in\n    tag_71:\n        /* \"contracts-test/230517-test1-answer.sol\":1518:1562  b_array = bytestoBytes1Array(bytes(_string)) */\n      swap1\n      pop\n        /* \"contracts-test/230517-test1-answer.sol\":1581:1604  string[] memory s_array */\n      0x00\n        /* \"contracts-test/230517-test1-answer.sol\":1620:1627  b_array */\n      dup2\n        /* \"contracts-test/230517-test1-answer.sol\":1620:1634  b_array.length */\n      mload\n        /* \"contracts-test/230517-test1-answer.sol\":1607:1635  new string[](b_array.length) */\n      0xffffffffffffffff\n      dup2\n      gt\n      iszero\n      tag_72\n      jumpi\n      tag_73\n      tag_40\n      jump\t// in\n    tag_73:\n    tag_72:\n      mload(0x40)\n      swap1\n      dup1\n      dup3\n      mstore\n      dup1\n      0x20\n      mul\n      0x20\n      add\n      dup3\n      add\n      0x40\n      mstore\n      dup1\n      iszero\n      tag_74\n      jumpi\n      dup2\n      0x20\n      add\n    tag_75:\n      0x60\n      dup2\n      mstore\n      0x20\n      add\n      swap1\n      0x01\n      swap1\n      sub\n      swap1\n      dup2\n      tag_75\n      jumpi\n      swap1\n      pop\n    tag_74:\n      pop\n        /* \"contracts-test/230517-test1-answer.sol\":1581:1635  string[] memory s_array = new string[](b_array.length) */\n      swap1\n      pop\n        /* \"contracts-test/230517-test1-answer.sol\":1650:1656  uint i */\n      0x00\n        /* \"contracts-test/230517-test1-answer.sol\":1646:1757  for(uint i=0; i<s_array.length; i++) {... */\n    tag_76:\n        /* \"contracts-test/230517-test1-answer.sol\":1662:1669  s_array */\n      dup2\n        /* \"contracts-test/230517-test1-answer.sol\":1662:1676  s_array.length */\n      mload\n        /* \"contracts-test/230517-test1-answer.sol\":1660:1661  i */\n      dup2\n        /* \"contracts-test/230517-test1-answer.sol\":1660:1676  i<s_array.length */\n      lt\n        /* \"contracts-test/230517-test1-answer.sol\":1646:1757  for(uint i=0; i<s_array.length; i++) {... */\n      iszero\n      tag_77\n      jumpi\n        /* \"contracts-test/230517-test1-answer.sol\":1734:1741  b_array */\n      dup3\n        /* \"contracts-test/230517-test1-answer.sol\":1742:1743  i */\n      dup2\n        /* \"contracts-test/230517-test1-answer.sol\":1734:1744  b_array[i] */\n      dup2\n      mload\n      dup2\n      lt\n      tag_79\n      jumpi\n      tag_80\n      tag_47\n      jump\t// in\n    tag_80:\n    tag_79:\n      0x20\n      mul\n      0x20\n      add\n      add\n      mload\n        /* \"contracts-test/230517-test1-answer.sol\":1717:1745  abi.encodePacked(b_array[i]) */\n      add(0x20, mload(0x40))\n      tag_81\n      swap2\n      swap1\n      tag_82\n      jump\t// in\n    tag_81:\n      mload(0x40)\n      0x20\n      dup2\n      dup4\n      sub\n      sub\n      dup2\n      mstore\n      swap1\n      0x40\n      mstore\n        /* \"contracts-test/230517-test1-answer.sol\":1697:1704  s_array */\n      dup3\n        /* \"contracts-test/230517-test1-answer.sol\":1705:1706  i */\n      dup3\n        /* \"contracts-test/230517-test1-answer.sol\":1697:1707  s_array[i] */\n      dup2\n      mload\n      dup2\n      lt\n      tag_83\n      jumpi\n      tag_84\n      tag_47\n      jump\t// in\n    tag_84:\n    tag_83:\n      0x20\n      mul\n      0x20\n      add\n      add\n        /* \"contracts-test/230517-test1-answer.sol\":1697:1746  s_array[i] = string(abi.encodePacked(b_array[i])) */\n      dup2\n      swap1\n      mstore\n      pop\n        /* \"contracts-test/230517-test1-answer.sol\":1678:1681  i++ */\n      dup1\n      dup1\n      tag_85\n      swap1\n      tag_36\n      jump\t// in\n    tag_85:\n      swap2\n      pop\n      pop\n        /* \"contracts-test/230517-test1-answer.sol\":1646:1757  for(uint i=0; i<s_array.length; i++) {... */\n      jump(tag_76)\n    tag_77:\n      pop\n        /* \"contracts-test/230517-test1-answer.sol\":1775:1782  s_array */\n      dup1\n        /* \"contracts-test/230517-test1-answer.sol\":1775:1789  s_array.length */\n      mload\n        /* \"contracts-test/230517-test1-answer.sol\":1791:1798  s_array */\n      dup2\n        /* \"contracts-test/230517-test1-answer.sol\":1824:1831  b_array */\n      dup4\n        /* \"contracts-test/230517-test1-answer.sol\":1807:1832  abi.encodePacked(b_array) */\n      add(0x20, mload(0x40))\n      tag_86\n      swap2\n      swap1\n      tag_87\n      jump\t// in\n    tag_86:\n      mload(0x40)\n      0x20\n      dup2\n      dup4\n      sub\n      sub\n      dup2\n      mstore\n      swap1\n      0x40\n      mstore\n        /* \"contracts-test/230517-test1-answer.sol\":1767:1834  return (s_array.length, s_array, string(abi.encodePacked(b_array))) */\n      swap5\n      pop\n      swap5\n      pop\n      swap5\n      pop\n      pop\n      pop\n        /* \"contracts-test/230517-test1-answer.sol\":1327:1841  function stringToBytes1Array(string memory _string) public pure returns(uint, string[] memory, string memory) {... */\n      swap2\n      swap4\n      swap1\n      swap3\n      pop\n      jump\t// out\n        /* \"#utility.yul\":7:82   */\n    tag_88:\n        /* \"#utility.yul\":40:46   */\n      0x00\n        /* \"#utility.yul\":73:75   */\n      0x40\n        /* \"#utility.yul\":67:76   */\n      mload\n        /* \"#utility.yul\":57:76   */\n      swap1\n      pop\n        /* \"#utility.yul\":7:82   */\n      swap1\n      jump\t// out\n        /* \"#utility.yul\":88:205   */\n    tag_89:\n        /* \"#utility.yul\":197:198   */\n      0x00\n        /* \"#utility.yul\":194:195   */\n      dup1\n        /* \"#utility.yul\":187:199   */\n      revert\n        /* \"#utility.yul\":211:328   */\n    tag_90:\n        /* \"#utility.yul\":320:321   */\n      0x00\n        /* \"#utility.yul\":317:318   */\n      dup1\n        /* \"#utility.yul\":310:322   */\n      revert\n        /* \"#utility.yul\":334:411   */\n    tag_91:\n        /* \"#utility.yul\":371:378   */\n      0x00\n        /* \"#utility.yul\":400:405   */\n      dup2\n        /* \"#utility.yul\":389:405   */\n      swap1\n      pop\n        /* \"#utility.yul\":334:411   */\n      swap2\n      swap1\n      pop\n      jump\t// out\n        /* \"#utility.yul\":417:539   */\n    tag_92:\n        /* \"#utility.yul\":490:514   */\n      tag_151\n        /* \"#utility.yul\":508:513   */\n      dup2\n        /* \"#utility.yul\":490:514   */\n      tag_91\n      jump\t// in\n    tag_151:\n        /* \"#utility.yul\":483:488   */\n      dup2\n        /* \"#utility.yul\":480:515   */\n      eq\n        /* \"#utility.yul\":470:533   */\n      tag_152\n      jumpi\n        /* \"#utility.yul\":529:530   */\n      0x00\n        /* \"#utility.yul\":526:527   */\n      dup1\n        /* \"#utility.yul\":519:531   */\n      revert\n        /* \"#utility.yul\":470:533   */\n    tag_152:\n        /* \"#utility.yul\":417:539   */\n      pop\n      jump\t// out\n        /* \"#utility.yul\":545:684   */\n    tag_93:\n        /* \"#utility.yul\":591:596   */\n      0x00\n        /* \"#utility.yul\":629:635   */\n      dup2\n        /* \"#utility.yul\":616:636   */\n      calldataload\n        /* \"#utility.yul\":607:636   */\n      swap1\n      pop\n        /* \"#utility.yul\":645:678   */\n      tag_154\n        /* \"#utility.yul\":672:677   */\n      dup2\n        /* \"#utility.yul\":645:678   */\n      tag_92\n      jump\t// in\n    tag_154:\n        /* \"#utility.yul\":545:684   */\n      swap3\n      swap2\n      pop\n      pop\n      jump\t// out\n        /* \"#utility.yul\":690:1019   */\n    tag_9:\n        /* \"#utility.yul\":749:755   */\n      0x00\n        /* \"#utility.yul\":798:800   */\n      0x20\n        /* \"#utility.yul\":786:795   */\n      dup3\n        /* \"#utility.yul\":777:784   */\n      dup5\n        /* \"#utility.yul\":773:796   */\n      sub\n        /* \"#utility.yul\":769:801   */\n      slt\n        /* \"#utility.yul\":766:885   */\n      iszero\n      tag_156\n      jumpi\n        /* \"#utility.yul\":804:883   */\n      tag_157\n      tag_89\n      jump\t// in\n    tag_157:\n        /* \"#utility.yul\":766:885   */\n    tag_156:\n        /* \"#utility.yul\":924:925   */\n      0x00\n        /* \"#utility.yul\":949:1002   */\n      tag_158\n        /* \"#utility.yul\":994:1001   */\n      dup5\n        /* \"#utility.yul\":985:991   */\n      dup3\n        /* \"#utility.yul\":974:983   */\n      dup6\n        /* \"#utility.yul\":970:992   */\n      add\n        /* \"#utility.yul\":949:1002   */\n      tag_93\n      jump\t// in\n    tag_158:\n        /* \"#utility.yul\":939:1002   */\n      swap2\n      pop\n        /* \"#utility.yul\":895:1012   */\n      pop\n        /* \"#utility.yul\":690:1019   */\n      swap3\n      swap2\n      pop\n      pop\n      jump\t// out\n        /* \"#utility.yul\":1025:1143   */\n    tag_94:\n        /* \"#utility.yul\":1112:1136   */\n      tag_160\n        /* \"#utility.yul\":1130:1135   */\n      dup2\n        /* \"#utility.yul\":1112:1136   */\n      tag_91\n      jump\t// in\n    tag_160:\n        /* \"#utility.yul\":1107:1110   */\n      dup3\n        /* \"#utility.yul\":1100:1137   */\n      mstore\n        /* \"#utility.yul\":1025:1143   */\n      pop\n      pop\n      jump\t// out\n        /* \"#utility.yul\":1149:1371   */\n    tag_12:\n        /* \"#utility.yul\":1242:1246   */\n      0x00\n        /* \"#utility.yul\":1280:1282   */\n      0x20\n        /* \"#utility.yul\":1269:1278   */\n      dup3\n        /* \"#utility.yul\":1265:1283   */\n      add\n        /* \"#utility.yul\":1257:1283   */\n      swap1\n      pop\n        /* \"#utility.yul\":1293:1364   */\n      tag_162\n        /* \"#utility.yul\":1361:1362   */\n      0x00\n        /* \"#utility.yul\":1350:1359   */\n      dup4\n        /* \"#utility.yul\":1346:1363   */\n      add\n        /* \"#utility.yul\":1337:1343   */\n      dup5\n        /* \"#utility.yul\":1293:1364   */\n      tag_94\n      jump\t// in\n    tag_162:\n        /* \"#utility.yul\":1149:1371   */\n      swap3\n      swap2\n      pop\n      pop\n      jump\t// out\n        /* \"#utility.yul\":1377:1494   */\n    tag_95:\n        /* \"#utility.yul\":1486:1487   */\n      0x00\n        /* \"#utility.yul\":1483:1484   */\n      dup1\n        /* \"#utility.yul\":1476:1488   */\n      revert\n        /* \"#utility.yul\":1500:1617   */\n    tag_96:\n        /* \"#utility.yul\":1609:1610   */\n      0x00\n        /* \"#utility.yul\":1606:1607   */\n      dup1\n        /* \"#utility.yul\":1599:1611   */\n      revert\n        /* \"#utility.yul\":1623:1725   */\n    tag_97:\n        /* \"#utility.yul\":1664:1670   */\n      0x00\n        /* \"#utility.yul\":1715:1717   */\n      0x1f\n        /* \"#utility.yul\":1711:1718   */\n      not\n        /* \"#utility.yul\":1706:1708   */\n      0x1f\n        /* \"#utility.yul\":1699:1704   */\n      dup4\n        /* \"#utility.yul\":1695:1709   */\n      add\n        /* \"#utility.yul\":1691:1719   */\n      and\n        /* \"#utility.yul\":1681:1719   */\n      swap1\n      pop\n        /* \"#utility.yul\":1623:1725   */\n      swap2\n      swap1\n      pop\n      jump\t// out\n        /* \"#utility.yul\":1731:1911   */\n    tag_40:\n        /* \"#utility.yul\":1779:1856   */\n      0x4e487b7100000000000000000000000000000000000000000000000000000000\n        /* \"#utility.yul\":1776:1777   */\n      0x00\n        /* \"#utility.yul\":1769:1857   */\n      mstore\n        /* \"#utility.yul\":1876:1880   */\n      0x41\n        /* \"#utility.yul\":1873:1874   */\n      0x04\n        /* \"#utility.yul\":1866:1881   */\n      mstore\n        /* \"#utility.yul\":1900:1904   */\n      0x24\n        /* \"#utility.yul\":1897:1898   */\n      0x00\n        /* \"#utility.yul\":1890:1905   */\n      revert\n        /* \"#utility.yul\":1917:2198   */\n    tag_98:\n        /* \"#utility.yul\":2000:2027   */\n      tag_168\n        /* \"#utility.yul\":2022:2026   */\n      dup3\n        /* \"#utility.yul\":2000:2027   */\n      tag_97\n      jump\t// in\n    tag_168:\n        /* \"#utility.yul\":1992:1998   */\n      dup2\n        /* \"#utility.yul\":1988:2028   */\n      add\n        /* \"#utility.yul\":2130:2136   */\n      dup2\n        /* \"#utility.yul\":2118:2128   */\n      dup2\n        /* \"#utility.yul\":2115:2137   */\n      lt\n        /* \"#utility.yul\":2094:2112   */\n      0xffffffffffffffff\n        /* \"#utility.yul\":2082:2092   */\n      dup3\n        /* \"#utility.yul\":2079:2113   */\n      gt\n        /* \"#utility.yul\":2076:2138   */\n      or\n        /* \"#utility.yul\":2073:2161   */\n      iszero\n      tag_169\n      jumpi\n        /* \"#utility.yul\":2141:2159   */\n      tag_170\n      tag_40\n      jump\t// in\n    tag_170:\n        /* \"#utility.yul\":2073:2161   */\n    tag_169:\n        /* \"#utility.yul\":2181:2191   */\n      dup1\n        /* \"#utility.yul\":2177:2179   */\n      0x40\n        /* \"#utility.yul\":2170:2192   */\n      mstore\n        /* \"#utility.yul\":1960:2198   */\n      pop\n        /* \"#utility.yul\":1917:2198   */\n      pop\n      pop\n      jump\t// out\n        /* \"#utility.yul\":2204:2333   */\n    tag_99:\n        /* \"#utility.yul\":2238:2244   */\n      0x00\n        /* \"#utility.yul\":2265:2285   */\n      tag_172\n      tag_88\n      jump\t// in\n    tag_172:\n        /* \"#utility.yul\":2255:2285   */\n      swap1\n      pop\n        /* \"#utility.yul\":2294:2327   */\n      tag_173\n        /* \"#utility.yul\":2322:2326   */\n      dup3\n        /* \"#utility.yul\":2314:2320   */\n      dup3\n        /* \"#utility.yul\":2294:2327   */\n      tag_98\n      jump\t// in\n    tag_173:\n        /* \"#utility.yul\":2204:2333   */\n      swap2\n      swap1\n      pop\n      jump\t// out\n        /* \"#utility.yul\":2339:2646   */\n    tag_100:\n        /* \"#utility.yul\":2400:2404   */\n      0x00\n        /* \"#utility.yul\":2490:2508   */\n      0xffffffffffffffff\n        /* \"#utility.yul\":2482:2488   */\n      dup3\n        /* \"#utility.yul\":2479:2509   */\n      gt\n        /* \"#utility.yul\":2476:2532   */\n      iszero\n      tag_175\n      jumpi\n        /* \"#utility.yul\":2512:2530   */\n      tag_176\n      tag_40\n      jump\t// in\n    tag_176:\n        /* \"#utility.yul\":2476:2532   */\n    tag_175:\n        /* \"#utility.yul\":2550:2579   */\n      tag_177\n        /* \"#utility.yul\":2572:2578   */\n      dup3\n        /* \"#utility.yul\":2550:2579   */\n      tag_97\n      jump\t// in\n    tag_177:\n        /* \"#utility.yul\":2542:2579   */\n      swap1\n      pop\n        /* \"#utility.yul\":2634:2638   */\n      0x20\n        /* \"#utility.yul\":2628:2632   */\n      dup2\n        /* \"#utility.yul\":2624:2639   */\n      add\n        /* \"#utility.yul\":2616:2639   */\n      swap1\n      pop\n        /* \"#utility.yul\":2339:2646   */\n      swap2\n      swap1\n      pop\n      jump\t// out\n        /* \"#utility.yul\":2652:2798   */\n    tag_101:\n        /* \"#utility.yul\":2749:2755   */\n      dup3\n        /* \"#utility.yul\":2744:2747   */\n      dup2\n        /* \"#utility.yul\":2739:2742   */\n      dup4\n        /* \"#utility.yul\":2726:2756   */\n      calldatacopy\n        /* \"#utility.yul\":2790:2791   */\n      0x00\n        /* \"#utility.yul\":2781:2787   */\n      dup4\n        /* \"#utility.yul\":2776:2779   */\n      dup4\n        /* \"#utility.yul\":2772:2788   */\n      add\n        /* \"#utility.yul\":2765:2792   */\n      mstore\n        /* \"#utility.yul\":2652:2798   */\n      pop\n      pop\n      pop\n      jump\t// out\n        /* \"#utility.yul\":2804:3227   */\n    tag_102:\n        /* \"#utility.yul\":2881:2886   */\n      0x00\n        /* \"#utility.yul\":2906:2971   */\n      tag_180\n        /* \"#utility.yul\":2922:2970   */\n      tag_181\n        /* \"#utility.yul\":2963:2969   */\n      dup5\n        /* \"#utility.yul\":2922:2970   */\n      tag_100\n      jump\t// in\n    tag_181:\n        /* \"#utility.yul\":2906:2971   */\n      tag_99\n      jump\t// in\n    tag_180:\n        /* \"#utility.yul\":2897:2971   */\n      swap1\n      pop\n        /* \"#utility.yul\":2994:3000   */\n      dup3\n        /* \"#utility.yul\":2987:2992   */\n      dup2\n        /* \"#utility.yul\":2980:3001   */\n      mstore\n        /* \"#utility.yul\":3032:3036   */\n      0x20\n        /* \"#utility.yul\":3025:3030   */\n      dup2\n        /* \"#utility.yul\":3021:3037   */\n      add\n        /* \"#utility.yul\":3070:3073   */\n      dup5\n        /* \"#utility.yul\":3061:3067   */\n      dup5\n        /* \"#utility.yul\":3056:3059   */\n      dup5\n        /* \"#utility.yul\":3052:3068   */\n      add\n        /* \"#utility.yul\":3049:3074   */\n      gt\n        /* \"#utility.yul\":3046:3158   */\n      iszero\n      tag_182\n      jumpi\n        /* \"#utility.yul\":3077:3156   */\n      tag_183\n      tag_96\n      jump\t// in\n    tag_183:\n        /* \"#utility.yul\":3046:3158   */\n    tag_182:\n        /* \"#utility.yul\":3167:3221   */\n      tag_184\n        /* \"#utility.yul\":3214:3220   */\n      dup5\n        /* \"#utility.yul\":3209:3212   */\n      dup3\n        /* \"#utility.yul\":3204:3207   */\n      dup6\n        /* \"#utility.yul\":3167:3221   */\n      tag_101\n      jump\t// in\n    tag_184:\n        /* \"#utility.yul\":2887:3227   */\n      pop\n        /* \"#utility.yul\":2804:3227   */\n      swap4\n      swap3\n      pop\n      pop\n      pop\n      jump\t// out\n        /* \"#utility.yul\":3246:3584   */\n    tag_103:\n        /* \"#utility.yul\":3301:3306   */\n      0x00\n        /* \"#utility.yul\":3350:3353   */\n      dup3\n        /* \"#utility.yul\":3343:3347   */\n      0x1f\n        /* \"#utility.yul\":3335:3341   */\n      dup4\n        /* \"#utility.yul\":3331:3348   */\n      add\n        /* \"#utility.yul\":3327:3354   */\n      slt\n        /* \"#utility.yul\":3317:3439   */\n      tag_186\n      jumpi\n        /* \"#utility.yul\":3358:3437   */\n      tag_187\n      tag_95\n      jump\t// in\n    tag_187:\n        /* \"#utility.yul\":3317:3439   */\n    tag_186:\n        /* \"#utility.yul\":3475:3481   */\n      dup2\n        /* \"#utility.yul\":3462:3482   */\n      calldataload\n        /* \"#utility.yul\":3500:3578   */\n      tag_188\n        /* \"#utility.yul\":3574:3577   */\n      dup5\n        /* \"#utility.yul\":3566:3572   */\n      dup3\n        /* \"#utility.yul\":3559:3563   */\n      0x20\n        /* \"#utility.yul\":3551:3557   */\n      dup7\n        /* \"#utility.yul\":3547:3564   */\n      add\n        /* \"#utility.yul\":3500:3578   */\n      tag_102\n      jump\t// in\n    tag_188:\n        /* \"#utility.yul\":3491:3578   */\n      swap2\n      pop\n        /* \"#utility.yul\":3307:3584   */\n      pop\n        /* \"#utility.yul\":3246:3584   */\n      swap3\n      swap2\n      pop\n      pop\n      jump\t// out\n        /* \"#utility.yul\":3590:4097   */\n    tag_15:\n        /* \"#utility.yul\":3658:3664   */\n      0x00\n        /* \"#utility.yul\":3707:3709   */\n      0x20\n        /* \"#utility.yul\":3695:3704   */\n      dup3\n        /* \"#utility.yul\":3686:3693   */\n      dup5\n        /* \"#utility.yul\":3682:3705   */\n      sub\n        /* \"#utility.yul\":3678:3710   */\n      slt\n        /* \"#utility.yul\":3675:3794   */\n      iszero\n      tag_190\n      jumpi\n        /* \"#utility.yul\":3713:3792   */\n      tag_191\n      tag_89\n      jump\t// in\n    tag_191:\n        /* \"#utility.yul\":3675:3794   */\n    tag_190:\n        /* \"#utility.yul\":3861:3862   */\n      0x00\n        /* \"#utility.yul\":3850:3859   */\n      dup3\n        /* \"#utility.yul\":3846:3863   */\n      add\n        /* \"#utility.yul\":3833:3864   */\n      calldataload\n        /* \"#utility.yul\":3891:3909   */\n      0xffffffffffffffff\n        /* \"#utility.yul\":3883:3889   */\n      dup2\n        /* \"#utility.yul\":3880:3910   */\n      gt\n        /* \"#utility.yul\":3877:3994   */\n      iszero\n      tag_192\n      jumpi\n        /* \"#utility.yul\":3913:3992   */\n      tag_193\n      tag_90\n      jump\t// in\n    tag_193:\n        /* \"#utility.yul\":3877:3994   */\n    tag_192:\n        /* \"#utility.yul\":4018:4080   */\n      tag_194\n        /* \"#utility.yul\":4072:4079   */\n      dup5\n        /* \"#utility.yul\":4063:4069   */\n      dup3\n        /* \"#utility.yul\":4052:4061   */\n      dup6\n        /* \"#utility.yul\":4048:4070   */\n      add\n        /* \"#utility.yul\":4018:4080   */\n      tag_103\n      jump\t// in\n    tag_194:\n        /* \"#utility.yul\":4008:4080   */\n      swap2\n      pop\n        /* \"#utility.yul\":3804:4090   */\n      pop\n        /* \"#utility.yul\":3590:4097   */\n      swap3\n      swap2\n      pop\n      pop\n      jump\t// out\n        /* \"#utility.yul\":4103:4216   */\n    tag_104:\n        /* \"#utility.yul\":4169:4175   */\n      0x00\n        /* \"#utility.yul\":4203:4208   */\n      dup2\n        /* \"#utility.yul\":4197:4209   */\n      mload\n        /* \"#utility.yul\":4187:4209   */\n      swap1\n      pop\n        /* \"#utility.yul\":4103:4216   */\n      swap2\n      swap1\n      pop\n      jump\t// out\n        /* \"#utility.yul\":4222:4405   */\n    tag_105:\n        /* \"#utility.yul\":4320:4331   */\n      0x00\n        /* \"#utility.yul\":4354:4360   */\n      dup3\n        /* \"#utility.yul\":4349:4352   */\n      dup3\n        /* \"#utility.yul\":4342:4361   */\n      mstore\n        /* \"#utility.yul\":4394:4398   */\n      0x20\n        /* \"#utility.yul\":4389:4392   */\n      dup3\n        /* \"#utility.yul\":4385:4399   */\n      add\n        /* \"#utility.yul\":4370:4399   */\n      swap1\n      pop\n        /* \"#utility.yul\":4222:4405   */\n      swap3\n      swap2\n      pop\n      pop\n      jump\t// out\n        /* \"#utility.yul\":4411:4542   */\n    tag_106:\n        /* \"#utility.yul\":4477:4481   */\n      0x00\n        /* \"#utility.yul\":4500:4503   */\n      dup2\n        /* \"#utility.yul\":4492:4503   */\n      swap1\n      pop\n        /* \"#utility.yul\":4530:4534   */\n      0x20\n        /* \"#utility.yul\":4525:4528   */\n      dup3\n        /* \"#utility.yul\":4521:4535   */\n      add\n        /* \"#utility.yul\":4513:4535   */\n      swap1\n      pop\n        /* \"#utility.yul\":4411:4542   */\n      swap2\n      swap1\n      pop\n      jump\t// out\n        /* \"#utility.yul\":4548:4697   */\n    tag_107:\n        /* \"#utility.yul\":4584:4591   */\n      0x00\n        /* \"#utility.yul\":4624:4690   */\n      0xff00000000000000000000000000000000000000000000000000000000000000\n        /* \"#utility.yul\":4617:4622   */\n      dup3\n        /* \"#utility.yul\":4613:4691   */\n      and\n        /* \"#utility.yul\":4602:4691   */\n      swap1\n      pop\n        /* \"#utility.yul\":4548:4697   */\n      swap2\n      swap1\n      pop\n      jump\t// out\n        /* \"#utility.yul\":4703:4808   */\n    tag_108:\n        /* \"#utility.yul\":4778:4801   */\n      tag_200\n        /* \"#utility.yul\":4795:4800   */\n      dup2\n        /* \"#utility.yul\":4778:4801   */\n      tag_107\n      jump\t// in\n    tag_200:\n        /* \"#utility.yul\":4773:4776   */\n      dup3\n        /* \"#utility.yul\":4766:4802   */\n      mstore\n        /* \"#utility.yul\":4703:4808   */\n      pop\n      pop\n      jump\t// out\n        /* \"#utility.yul\":4814:4989   */\n    tag_109:\n        /* \"#utility.yul\":4881:4891   */\n      0x00\n        /* \"#utility.yul\":4902:4946   */\n      tag_202\n        /* \"#utility.yul\":4942:4945   */\n      dup4\n        /* \"#utility.yul\":4934:4940   */\n      dup4\n        /* \"#utility.yul\":4902:4946   */\n      tag_108\n      jump\t// in\n    tag_202:\n        /* \"#utility.yul\":4978:4982   */\n      0x20\n        /* \"#utility.yul\":4973:4976   */\n      dup4\n        /* \"#utility.yul\":4969:4983   */\n      add\n        /* \"#utility.yul\":4955:4983   */\n      swap1\n      pop\n        /* \"#utility.yul\":4814:4989   */\n      swap3\n      swap2\n      pop\n      pop\n      jump\t// out\n        /* \"#utility.yul\":4995:5107   */\n    tag_110:\n        /* \"#utility.yul\":5064:5068   */\n      0x00\n        /* \"#utility.yul\":5096:5100   */\n      0x20\n        /* \"#utility.yul\":5091:5094   */\n      dup3\n        /* \"#utility.yul\":5087:5101   */\n      add\n        /* \"#utility.yul\":5079:5101   */\n      swap1\n      pop\n        /* \"#utility.yul\":4995:5107   */\n      swap2\n      swap1\n      pop\n      jump\t// out\n        /* \"#utility.yul\":5141:5865   */\n    tag_111:\n        /* \"#utility.yul\":5258:5261   */\n      0x00\n        /* \"#utility.yul\":5287:5340   */\n      tag_205\n        /* \"#utility.yul\":5334:5339   */\n      dup3\n        /* \"#utility.yul\":5287:5340   */\n      tag_104\n      jump\t// in\n    tag_205:\n        /* \"#utility.yul\":5356:5441   */\n      tag_206\n        /* \"#utility.yul\":5434:5440   */\n      dup2\n        /* \"#utility.yul\":5429:5432   */\n      dup6\n        /* \"#utility.yul\":5356:5441   */\n      tag_105\n      jump\t// in\n    tag_206:\n        /* \"#utility.yul\":5349:5441   */\n      swap4\n      pop\n        /* \"#utility.yul\":5465:5520   */\n      tag_207\n        /* \"#utility.yul\":5514:5519   */\n      dup4\n        /* \"#utility.yul\":5465:5520   */\n      tag_106\n      jump\t// in\n    tag_207:\n        /* \"#utility.yul\":5543:5550   */\n      dup1\n        /* \"#utility.yul\":5574:5575   */\n      0x00\n        /* \"#utility.yul\":5559:5840   */\n    tag_208:\n        /* \"#utility.yul\":5584:5590   */\n      dup4\n        /* \"#utility.yul\":5581:5582   */\n      dup2\n        /* \"#utility.yul\":5578:5591   */\n      lt\n        /* \"#utility.yul\":5559:5840   */\n      iszero\n      tag_210\n      jumpi\n        /* \"#utility.yul\":5660:5666   */\n      dup2\n        /* \"#utility.yul\":5654:5667   */\n      mload\n        /* \"#utility.yul\":5687:5748   */\n      tag_211\n        /* \"#utility.yul\":5744:5747   */\n      dup9\n        /* \"#utility.yul\":5729:5742   */\n      dup3\n        /* \"#utility.yul\":5687:5748   */\n      tag_109\n      jump\t// in\n    tag_211:\n        /* \"#utility.yul\":5680:5748   */\n      swap8\n      pop\n        /* \"#utility.yul\":5771:5830   */\n      tag_212\n        /* \"#utility.yul\":5823:5829   */\n      dup4\n        /* \"#utility.yul\":5771:5830   */\n      tag_110\n      jump\t// in\n    tag_212:\n        /* \"#utility.yul\":5761:5830   */\n      swap3\n      pop\n        /* \"#utility.yul\":5619:5840   */\n      pop\n        /* \"#utility.yul\":5606:5607   */\n      0x01\n        /* \"#utility.yul\":5603:5604   */\n      dup2\n        /* \"#utility.yul\":5599:5608   */\n      add\n        /* \"#utility.yul\":5594:5608   */\n      swap1\n      pop\n        /* \"#utility.yul\":5559:5840   */\n      jump(tag_208)\n    tag_210:\n        /* \"#utility.yul\":5563:5577   */\n      pop\n        /* \"#utility.yul\":5856:5859   */\n      dup6\n        /* \"#utility.yul\":5849:5859   */\n      swap4\n      pop\n        /* \"#utility.yul\":5263:5865   */\n      pop\n      pop\n      pop\n        /* \"#utility.yul\":5141:5865   */\n      swap3\n      swap2\n      pop\n      pop\n      jump\t// out\n        /* \"#utility.yul\":5871:6240   */\n    tag_18:\n        /* \"#utility.yul\":6012:6016   */\n      0x00\n        /* \"#utility.yul\":6050:6052   */\n      0x20\n        /* \"#utility.yul\":6039:6048   */\n      dup3\n        /* \"#utility.yul\":6035:6053   */\n      add\n        /* \"#utility.yul\":6027:6053   */\n      swap1\n      pop\n        /* \"#utility.yul\":6099:6108   */\n      dup2\n        /* \"#utility.yul\":6093:6097   */\n      dup2\n        /* \"#utility.yul\":6089:6109   */\n      sub\n        /* \"#utility.yul\":6085:6086   */\n      0x00\n        /* \"#utility.yul\":6074:6083   */\n      dup4\n        /* \"#utility.yul\":6070:6087   */\n      add\n        /* \"#utility.yul\":6063:6110   */\n      mstore\n        /* \"#utility.yul\":6127:6233   */\n      tag_214\n        /* \"#utility.yul\":6228:6232   */\n      dup2\n        /* \"#utility.yul\":6219:6225   */\n      dup5\n        /* \"#utility.yul\":6127:6233   */\n      tag_111\n      jump\t// in\n    tag_214:\n        /* \"#utility.yul\":6119:6233   */\n      swap1\n      pop\n        /* \"#utility.yul\":5871:6240   */\n      swap3\n      swap2\n      pop\n      pop\n      jump\t// out\n        /* \"#utility.yul\":6246:6360   */\n    tag_112:\n        /* \"#utility.yul\":6313:6319   */\n      0x00\n        /* \"#utility.yul\":6347:6352   */\n      dup2\n        /* \"#utility.yul\":6341:6353   */\n      mload\n        /* \"#utility.yul\":6331:6353   */\n      swap1\n      pop\n        /* \"#utility.yul\":6246:6360   */\n      swap2\n      swap1\n      pop\n      jump\t// out\n        /* \"#utility.yul\":6366:6550   */\n    tag_113:\n        /* \"#utility.yul\":6465:6476   */\n      0x00\n        /* \"#utility.yul\":6499:6505   */\n      dup3\n        /* \"#utility.yul\":6494:6497   */\n      dup3\n        /* \"#utility.yul\":6487:6506   */\n      mstore\n        /* \"#utility.yul\":6539:6543   */\n      0x20\n        /* \"#utility.yul\":6534:6537   */\n      dup3\n        /* \"#utility.yul\":6530:6544   */\n      add\n        /* \"#utility.yul\":6515:6544   */\n      swap1\n      pop\n        /* \"#utility.yul\":6366:6550   */\n      swap3\n      swap2\n      pop\n      pop\n      jump\t// out\n        /* \"#utility.yul\":6556:6688   */\n    tag_114:\n        /* \"#utility.yul\":6623:6627   */\n      0x00\n        /* \"#utility.yul\":6646:6649   */\n      dup2\n        /* \"#utility.yul\":6638:6649   */\n      swap1\n      pop\n        /* \"#utility.yul\":6676:6680   */\n      0x20\n        /* \"#utility.yul\":6671:6674   */\n      dup3\n        /* \"#utility.yul\":6667:6681   */\n      add\n        /* \"#utility.yul\":6659:6681   */\n      swap1\n      pop\n        /* \"#utility.yul\":6556:6688   */\n      swap2\n      swap1\n      pop\n      jump\t// out\n        /* \"#utility.yul\":6694:6802   */\n    tag_115:\n        /* \"#utility.yul\":6771:6795   */\n      tag_219\n        /* \"#utility.yul\":6789:6794   */\n      dup2\n        /* \"#utility.yul\":6771:6795   */\n      tag_91\n      jump\t// in\n    tag_219:\n        /* \"#utility.yul\":6766:6769   */\n      dup3\n        /* \"#utility.yul\":6759:6796   */\n      mstore\n        /* \"#utility.yul\":6694:6802   */\n      pop\n      pop\n      jump\t// out\n        /* \"#utility.yul\":6808:6987   */\n    tag_116:\n        /* \"#utility.yul\":6877:6887   */\n      0x00\n        /* \"#utility.yul\":6898:6944   */\n      tag_221\n        /* \"#utility.yul\":6940:6943   */\n      dup4\n        /* \"#utility.yul\":6932:6938   */\n      dup4\n        /* \"#utility.yul\":6898:6944   */\n      tag_115\n      jump\t// in\n    tag_221:\n        /* \"#utility.yul\":6976:6980   */\n      0x20\n        /* \"#utility.yul\":6971:6974   */\n      dup4\n        /* \"#utility.yul\":6967:6981   */\n      add\n        /* \"#utility.yul\":6953:6981   */\n      swap1\n      pop\n        /* \"#utility.yul\":6808:6987   */\n      swap3\n      swap2\n      pop\n      pop\n      jump\t// out\n        /* \"#utility.yul\":6993:7106   */\n    tag_117:\n        /* \"#utility.yul\":7063:7067   */\n      0x00\n        /* \"#utility.yul\":7095:7099   */\n      0x20\n        /* \"#utility.yul\":7090:7093   */\n      dup3\n        /* \"#utility.yul\":7086:7100   */\n      add\n        /* \"#utility.yul\":7078:7100   */\n      swap1\n      pop\n        /* \"#utility.yul\":6993:7106   */\n      swap2\n      swap1\n      pop\n      jump\t// out\n        /* \"#utility.yul\":7142:7874   */\n    tag_118:\n        /* \"#utility.yul\":7261:7264   */\n      0x00\n        /* \"#utility.yul\":7290:7344   */\n      tag_224\n        /* \"#utility.yul\":7338:7343   */\n      dup3\n        /* \"#utility.yul\":7290:7344   */\n      tag_112\n      jump\t// in\n    tag_224:\n        /* \"#utility.yul\":7360:7446   */\n      tag_225\n        /* \"#utility.yul\":7439:7445   */\n      dup2\n        /* \"#utility.yul\":7434:7437   */\n      dup6\n        /* \"#utility.yul\":7360:7446   */\n      tag_113\n      jump\t// in\n    tag_225:\n        /* \"#utility.yul\":7353:7446   */\n      swap4\n      pop\n        /* \"#utility.yul\":7470:7526   */\n      tag_226\n        /* \"#utility.yul\":7520:7525   */\n      dup4\n        /* \"#utility.yul\":7470:7526   */\n      tag_114\n      jump\t// in\n    tag_226:\n        /* \"#utility.yul\":7549:7556   */\n      dup1\n        /* \"#utility.yul\":7580:7581   */\n      0x00\n        /* \"#utility.yul\":7565:7849   */\n    tag_227:\n        /* \"#utility.yul\":7590:7596   */\n      dup4\n        /* \"#utility.yul\":7587:7588   */\n      dup2\n        /* \"#utility.yul\":7584:7597   */\n      lt\n        /* \"#utility.yul\":7565:7849   */\n      iszero\n      tag_229\n      jumpi\n        /* \"#utility.yul\":7666:7672   */\n      dup2\n        /* \"#utility.yul\":7660:7673   */\n      mload\n        /* \"#utility.yul\":7693:7756   */\n      tag_230\n        /* \"#utility.yul\":7752:7755   */\n      dup9\n        /* \"#utility.yul\":7737:7750   */\n      dup3\n        /* \"#utility.yul\":7693:7756   */\n      tag_116\n      jump\t// in\n    tag_230:\n        /* \"#utility.yul\":7686:7756   */\n      swap8\n      pop\n        /* \"#utility.yul\":7779:7839   */\n      tag_231\n        /* \"#utility.yul\":7832:7838   */\n      dup4\n        /* \"#utility.yul\":7779:7839   */\n      tag_117\n      jump\t// in\n    tag_231:\n        /* \"#utility.yul\":7769:7839   */\n      swap3\n      pop\n        /* \"#utility.yul\":7625:7849   */\n      pop\n        /* \"#utility.yul\":7612:7613   */\n      0x01\n        /* \"#utility.yul\":7609:7610   */\n      dup2\n        /* \"#utility.yul\":7605:7614   */\n      add\n        /* \"#utility.yul\":7600:7614   */\n      swap1\n      pop\n        /* \"#utility.yul\":7565:7849   */\n      jump(tag_227)\n    tag_229:\n        /* \"#utility.yul\":7569:7583   */\n      pop\n        /* \"#utility.yul\":7865:7868   */\n      dup6\n        /* \"#utility.yul\":7858:7868   */\n      swap4\n      pop\n        /* \"#utility.yul\":7266:7874   */\n      pop\n      pop\n      pop\n        /* \"#utility.yul\":7142:7874   */\n      swap3\n      swap2\n      pop\n      pop\n      jump\t// out\n        /* \"#utility.yul\":7880:8363   */\n    tag_23:\n        /* \"#utility.yul\":8051:8055   */\n      0x00\n        /* \"#utility.yul\":8089:8091   */\n      0x40\n        /* \"#utility.yul\":8078:8087   */\n      dup3\n        /* \"#utility.yul\":8074:8092   */\n      add\n        /* \"#utility.yul\":8066:8092   */\n      swap1\n      pop\n        /* \"#utility.yul\":8102:8173   */\n      tag_233\n        /* \"#utility.yul\":8170:8171   */\n      0x00\n        /* \"#utility.yul\":8159:8168   */\n      dup4\n        /* \"#utility.yul\":8155:8172   */\n      add\n        /* \"#utility.yul\":8146:8152   */\n      dup6\n        /* \"#utility.yul\":8102:8173   */\n      tag_94\n      jump\t// in\n    tag_233:\n        /* \"#utility.yul\":8220:8229   */\n      dup2\n        /* \"#utility.yul\":8214:8218   */\n      dup2\n        /* \"#utility.yul\":8210:8230   */\n      sub\n        /* \"#utility.yul\":8205:8207   */\n      0x20\n        /* \"#utility.yul\":8194:8203   */\n      dup4\n        /* \"#utility.yul\":8190:8208   */\n      add\n        /* \"#utility.yul\":8183:8231   */\n      mstore\n        /* \"#utility.yul\":8248:8356   */\n      tag_234\n        /* \"#utility.yul\":8351:8355   */\n      dup2\n        /* \"#utility.yul\":8342:8348   */\n      dup5\n        /* \"#utility.yul\":8248:8356   */\n      tag_118\n      jump\t// in\n    tag_234:\n        /* \"#utility.yul\":8240:8356   */\n      swap1\n      pop\n        /* \"#utility.yul\":7880:8363   */\n      swap4\n      swap3\n      pop\n      pop\n      pop\n      jump\t// out\n        /* \"#utility.yul\":8369:8677   */\n    tag_119:\n        /* \"#utility.yul\":8431:8435   */\n      0x00\n        /* \"#utility.yul\":8521:8539   */\n      0xffffffffffffffff\n        /* \"#utility.yul\":8513:8519   */\n      dup3\n        /* \"#utility.yul\":8510:8540   */\n      gt\n        /* \"#utility.yul\":8507:8563   */\n      iszero\n      tag_236\n      jumpi\n        /* \"#utility.yul\":8543:8561   */\n      tag_237\n      tag_40\n      jump\t// in\n    tag_237:\n        /* \"#utility.yul\":8507:8563   */\n    tag_236:\n        /* \"#utility.yul\":8581:8610   */\n      tag_238\n        /* \"#utility.yul\":8603:8609   */\n      dup3\n        /* \"#utility.yul\":8581:8610   */\n      tag_97\n      jump\t// in\n    tag_238:\n        /* \"#utility.yul\":8573:8610   */\n      swap1\n      pop\n        /* \"#utility.yul\":8665:8669   */\n      0x20\n        /* \"#utility.yul\":8659:8663   */\n      dup2\n        /* \"#utility.yul\":8655:8670   */\n      add\n        /* \"#utility.yul\":8647:8670   */\n      swap1\n      pop\n        /* \"#utility.yul\":8369:8677   */\n      swap2\n      swap1\n      pop\n      jump\t// out\n        /* \"#utility.yul\":8683:9108   */\n    tag_120:\n        /* \"#utility.yul\":8761:8766   */\n      0x00\n        /* \"#utility.yul\":8786:8852   */\n      tag_240\n        /* \"#utility.yul\":8802:8851   */\n      tag_241\n        /* \"#utility.yul\":8844:8850   */\n      dup5\n        /* \"#utility.yul\":8802:8851   */\n      tag_119\n      jump\t// in\n    tag_241:\n        /* \"#utility.yul\":8786:8852   */\n      tag_99\n      jump\t// in\n    tag_240:\n        /* \"#utility.yul\":8777:8852   */\n      swap1\n      pop\n        /* \"#utility.yul\":8875:8881   */\n      dup3\n        /* \"#utility.yul\":8868:8873   */\n      dup2\n        /* \"#utility.yul\":8861:8882   */\n      mstore\n        /* \"#utility.yul\":8913:8917   */\n      0x20\n        /* \"#utility.yul\":8906:8911   */\n      dup2\n        /* \"#utility.yul\":8902:8918   */\n      add\n        /* \"#utility.yul\":8951:8954   */\n      dup5\n        /* \"#utility.yul\":8942:8948   */\n      dup5\n        /* \"#utility.yul\":8937:8940   */\n      dup5\n        /* \"#utility.yul\":8933:8949   */\n      add\n        /* \"#utility.yul\":8930:8955   */\n      gt\n        /* \"#utility.yul\":8927:9039   */\n      iszero\n      tag_242\n      jumpi\n        /* \"#utility.yul\":8958:9037   */\n      tag_243\n      tag_96\n      jump\t// in\n    tag_243:\n        /* \"#utility.yul\":8927:9039   */\n    tag_242:\n        /* \"#utility.yul\":9048:9102   */\n      tag_244\n        /* \"#utility.yul\":9095:9101   */\n      dup5\n        /* \"#utility.yul\":9090:9093   */\n      dup3\n        /* \"#utility.yul\":9085:9088   */\n      dup6\n        /* \"#utility.yul\":9048:9102   */\n      tag_101\n      jump\t// in\n    tag_244:\n        /* \"#utility.yul\":8767:9108   */\n      pop\n        /* \"#utility.yul\":8683:9108   */\n      swap4\n      swap3\n      pop\n      pop\n      pop\n      jump\t// out\n        /* \"#utility.yul\":9128:9468   */\n    tag_121:\n        /* \"#utility.yul\":9184:9189   */\n      0x00\n        /* \"#utility.yul\":9233:9236   */\n      dup3\n        /* \"#utility.yul\":9226:9230   */\n      0x1f\n        /* \"#utility.yul\":9218:9224   */\n      dup4\n        /* \"#utility.yul\":9214:9231   */\n      add\n        /* \"#utility.yul\":9210:9237   */\n      slt\n        /* \"#utility.yul\":9200:9322   */\n      tag_246\n      jumpi\n        /* \"#utility.yul\":9241:9320   */\n      tag_247\n      tag_95\n      jump\t// in\n    tag_247:\n        /* \"#utility.yul\":9200:9322   */\n    tag_246:\n        /* \"#utility.yul\":9358:9364   */\n      dup2\n        /* \"#utility.yul\":9345:9365   */\n      calldataload\n        /* \"#utility.yul\":9383:9462   */\n      tag_248\n        /* \"#utility.yul\":9458:9461   */\n      dup5\n        /* \"#utility.yul\":9450:9456   */\n      dup3\n        /* \"#utility.yul\":9443:9447   */\n      0x20\n        /* \"#utility.yul\":9435:9441   */\n      dup7\n        /* \"#utility.yul\":9431:9448   */\n      add\n        /* \"#utility.yul\":9383:9462   */\n      tag_120\n      jump\t// in\n    tag_248:\n        /* \"#utility.yul\":9374:9462   */\n      swap2\n      pop\n        /* \"#utility.yul\":9190:9468   */\n      pop\n        /* \"#utility.yul\":9128:9468   */\n      swap3\n      swap2\n      pop\n      pop\n      jump\t// out\n        /* \"#utility.yul\":9474:9983   */\n    tag_26:\n        /* \"#utility.yul\":9543:9549   */\n      0x00\n        /* \"#utility.yul\":9592:9594   */\n      0x20\n        /* \"#utility.yul\":9580:9589   */\n      dup3\n        /* \"#utility.yul\":9571:9578   */\n      dup5\n        /* \"#utility.yul\":9567:9590   */\n      sub\n        /* \"#utility.yul\":9563:9595   */\n      slt\n        /* \"#utility.yul\":9560:9679   */\n      iszero\n      tag_250\n      jumpi\n        /* \"#utility.yul\":9598:9677   */\n      tag_251\n      tag_89\n      jump\t// in\n    tag_251:\n        /* \"#utility.yul\":9560:9679   */\n    tag_250:\n        /* \"#utility.yul\":9746:9747   */\n      0x00\n        /* \"#utility.yul\":9735:9744   */\n      dup3\n        /* \"#utility.yul\":9731:9748   */\n      add\n        /* \"#utility.yul\":9718:9749   */\n      calldataload\n        /* \"#utility.yul\":9776:9794   */\n      0xffffffffffffffff\n        /* \"#utility.yul\":9768:9774   */\n      dup2\n        /* \"#utility.yul\":9765:9795   */\n      gt\n        /* \"#utility.yul\":9762:9879   */\n      iszero\n      tag_252\n      jumpi\n        /* \"#utility.yul\":9798:9877   */\n      tag_253\n      tag_90\n      jump\t// in\n    tag_253:\n        /* \"#utility.yul\":9762:9879   */\n    tag_252:\n        /* \"#utility.yul\":9903:9966   */\n      tag_254\n        /* \"#utility.yul\":9958:9965   */\n      dup5\n        /* \"#utility.yul\":9949:9955   */\n      dup3\n        /* \"#utility.yul\":9938:9947   */\n      dup6\n        /* \"#utility.yul\":9934:9956   */\n      add\n        /* \"#utility.yul\":9903:9966   */\n      tag_121\n      jump\t// in\n    tag_254:\n        /* \"#utility.yul\":9893:9966   */\n      swap2\n      pop\n        /* \"#utility.yul\":9689:9976   */\n      pop\n        /* \"#utility.yul\":9474:9983   */\n      swap3\n      swap2\n      pop\n      pop\n      jump\t// out\n        /* \"#utility.yul\":9989:10113   */\n    tag_122:\n        /* \"#utility.yul\":10066:10072   */\n      0x00\n        /* \"#utility.yul\":10100:10105   */\n      dup2\n        /* \"#utility.yul\":10094:10106   */\n      mload\n        /* \"#utility.yul\":10084:10106   */\n      swap1\n      pop\n        /* \"#utility.yul\":9989:10113   */\n      swap2\n      swap1\n      pop\n      jump\t// out\n        /* \"#utility.yul\":10119:10313   */\n    tag_123:\n        /* \"#utility.yul\":10228:10239   */\n      0x00\n        /* \"#utility.yul\":10262:10268   */\n      dup3\n        /* \"#utility.yul\":10257:10260   */\n      dup3\n        /* \"#utility.yul\":10250:10269   */\n      mstore\n        /* \"#utility.yul\":10302:10306   */\n      0x20\n        /* \"#utility.yul\":10297:10300   */\n      dup3\n        /* \"#utility.yul\":10293:10307   */\n      add\n        /* \"#utility.yul\":10278:10307   */\n      swap1\n      pop\n        /* \"#utility.yul\":10119:10313   */\n      swap3\n      swap2\n      pop\n      pop\n      jump\t// out\n        /* \"#utility.yul\":10319:10461   */\n    tag_124:\n        /* \"#utility.yul\":10396:10400   */\n      0x00\n        /* \"#utility.yul\":10419:10422   */\n      dup2\n        /* \"#utility.yul\":10411:10422   */\n      swap1\n      pop\n        /* \"#utility.yul\":10449:10453   */\n      0x20\n        /* \"#utility.yul\":10444:10447   */\n      dup3\n        /* \"#utility.yul\":10440:10454   */\n      add\n        /* \"#utility.yul\":10432:10454   */\n      swap1\n      pop\n        /* \"#utility.yul\":10319:10461   */\n      swap2\n      swap1\n      pop\n      jump\t// out\n        /* \"#utility.yul\":10467:10566   */\n    tag_125:\n        /* \"#utility.yul\":10519:10525   */\n      0x00\n        /* \"#utility.yul\":10553:10558   */\n      dup2\n        /* \"#utility.yul\":10547:10559   */\n      mload\n        /* \"#utility.yul\":10537:10559   */\n      swap1\n      pop\n        /* \"#utility.yul\":10467:10566   */\n      swap2\n      swap1\n      pop\n      jump\t// out\n        /* \"#utility.yul\":10572:10731   */\n    tag_126:\n        /* \"#utility.yul\":10646:10657   */\n      0x00\n        /* \"#utility.yul\":10680:10686   */\n      dup3\n        /* \"#utility.yul\":10675:10678   */\n      dup3\n        /* \"#utility.yul\":10668:10687   */\n      mstore\n        /* \"#utility.yul\":10720:10724   */\n      0x20\n        /* \"#utility.yul\":10715:10718   */\n      dup3\n        /* \"#utility.yul\":10711:10725   */\n      add\n        /* \"#utility.yul\":10696:10725   */\n      swap1\n      pop\n        /* \"#utility.yul\":10572:10731   */\n      swap3\n      swap2\n      pop\n      pop\n      jump\t// out\n        /* \"#utility.yul\":10737:10983   */\n    tag_127:\n        /* \"#utility.yul\":10818:10819   */\n      0x00\n        /* \"#utility.yul\":10828:10941   */\n    tag_261:\n        /* \"#utility.yul\":10842:10848   */\n      dup4\n        /* \"#utility.yul\":10839:10840   */\n      dup2\n        /* \"#utility.yul\":10836:10849   */\n      lt\n        /* \"#utility.yul\":10828:10941   */\n      iszero\n      tag_263\n      jumpi\n        /* \"#utility.yul\":10927:10928   */\n      dup1\n        /* \"#utility.yul\":10922:10925   */\n      dup3\n        /* \"#utility.yul\":10918:10929   */\n      add\n        /* \"#utility.yul\":10912:10930   */\n      mload\n        /* \"#utility.yul\":10908:10909   */\n      dup2\n        /* \"#utility.yul\":10903:10906   */\n      dup5\n        /* \"#utility.yul\":10899:10910   */\n      add\n        /* \"#utility.yul\":10892:10931   */\n      mstore\n        /* \"#utility.yul\":10864:10866   */\n      0x20\n        /* \"#utility.yul\":10861:10862   */\n      dup2\n        /* \"#utility.yul\":10857:10867   */\n      add\n        /* \"#utility.yul\":10852:10867   */\n      swap1\n      pop\n        /* \"#utility.yul\":10828:10941   */\n      jump(tag_261)\n    tag_263:\n        /* \"#utility.yul\":10975:10976   */\n      0x00\n        /* \"#utility.yul\":10966:10972   */\n      dup5\n        /* \"#utility.yul\":10961:10964   */\n      dup5\n        /* \"#utility.yul\":10957:10973   */\n      add\n        /* \"#utility.yul\":10950:10977   */\n      mstore\n        /* \"#utility.yul\":10799:10983   */\n      pop\n        /* \"#utility.yul\":10737:10983   */\n      pop\n      pop\n      pop\n      jump\t// out\n        /* \"#utility.yul\":10989:11346   */\n    tag_128:\n        /* \"#utility.yul\":11067:11070   */\n      0x00\n        /* \"#utility.yul\":11095:11134   */\n      tag_265\n        /* \"#utility.yul\":11128:11133   */\n      dup3\n        /* \"#utility.yul\":11095:11134   */\n      tag_125\n      jump\t// in\n    tag_265:\n        /* \"#utility.yul\":11150:11211   */\n      tag_266\n        /* \"#utility.yul\":11204:11210   */\n      dup2\n        /* \"#utility.yul\":11199:11202   */\n      dup6\n        /* \"#utility.yul\":11150:11211   */\n      tag_126\n      jump\t// in\n    tag_266:\n        /* \"#utility.yul\":11143:11211   */\n      swap4\n      pop\n        /* \"#utility.yul\":11220:11285   */\n      tag_267\n        /* \"#utility.yul\":11278:11284   */\n      dup2\n        /* \"#utility.yul\":11273:11276   */\n      dup6\n        /* \"#utility.yul\":11266:11270   */\n      0x20\n        /* \"#utility.yul\":11259:11264   */\n      dup7\n        /* \"#utility.yul\":11255:11271   */\n      add\n        /* \"#utility.yul\":11220:11285   */\n      tag_127\n      jump\t// in\n    tag_267:\n        /* \"#utility.yul\":11310:11339   */\n      tag_268\n        /* \"#utility.yul\":11332:11338   */\n      dup2\n        /* \"#utility.yul\":11310:11339   */\n      tag_97\n      jump\t// in\n    tag_268:\n        /* \"#utility.yul\":11305:11308   */\n      dup5\n        /* \"#utility.yul\":11301:11340   */\n      add\n        /* \"#utility.yul\":11294:11340   */\n      swap2\n      pop\n        /* \"#utility.yul\":11071:11346   */\n      pop\n        /* \"#utility.yul\":10989:11346   */\n      swap3\n      swap2\n      pop\n      pop\n      jump\t// out\n        /* \"#utility.yul\":11352:11548   */\n    tag_129:\n        /* \"#utility.yul\":11441:11451   */\n      0x00\n        /* \"#utility.yul\":11476:11542   */\n      tag_270\n        /* \"#utility.yul\":11538:11541   */\n      dup4\n        /* \"#utility.yul\":11530:11536   */\n      dup4\n        /* \"#utility.yul\":11476:11542   */\n      tag_128\n      jump\t// in\n    tag_270:\n        /* \"#utility.yul\":11462:11542   */\n      swap1\n      pop\n        /* \"#utility.yul\":11352:11548   */\n      swap3\n      swap2\n      pop\n      pop\n      jump\t// out\n        /* \"#utility.yul\":11554:11677   */\n    tag_130:\n        /* \"#utility.yul\":11634:11638   */\n      0x00\n        /* \"#utility.yul\":11666:11670   */\n      0x20\n        /* \"#utility.yul\":11661:11664   */\n      dup3\n        /* \"#utility.yul\":11657:11671   */\n      add\n        /* \"#utility.yul\":11649:11671   */\n      swap1\n      pop\n        /* \"#utility.yul\":11554:11677   */\n      swap2\n      swap1\n      pop\n      jump\t// out\n        /* \"#utility.yul\":11711:12702   */\n    tag_131:\n        /* \"#utility.yul\":11850:11853   */\n      0x00\n        /* \"#utility.yul\":11879:11943   */\n      tag_273\n        /* \"#utility.yul\":11937:11942   */\n      dup3\n        /* \"#utility.yul\":11879:11943   */\n      tag_122\n      jump\t// in\n    tag_273:\n        /* \"#utility.yul\":11959:12055   */\n      tag_274\n        /* \"#utility.yul\":12048:12054   */\n      dup2\n        /* \"#utility.yul\":12043:12046   */\n      dup6\n        /* \"#utility.yul\":11959:12055   */\n      tag_123\n      jump\t// in\n    tag_274:\n        /* \"#utility.yul\":11952:12055   */\n      swap4\n      pop\n        /* \"#utility.yul\":12081:12084   */\n      dup4\n        /* \"#utility.yul\":12126:12130   */\n      0x20\n        /* \"#utility.yul\":12118:12124   */\n      dup3\n        /* \"#utility.yul\":12114:12131   */\n      mul\n        /* \"#utility.yul\":12109:12112   */\n      dup6\n        /* \"#utility.yul\":12105:12132   */\n      add\n        /* \"#utility.yul\":12156:12222   */\n      tag_275\n        /* \"#utility.yul\":12216:12221   */\n      dup6\n        /* \"#utility.yul\":12156:12222   */\n      tag_124\n      jump\t// in\n    tag_275:\n        /* \"#utility.yul\":12245:12252   */\n      dup1\n        /* \"#utility.yul\":12276:12277   */\n      0x00\n        /* \"#utility.yul\":12261:12657   */\n    tag_276:\n        /* \"#utility.yul\":12286:12292   */\n      dup6\n        /* \"#utility.yul\":12283:12284   */\n      dup2\n        /* \"#utility.yul\":12280:12293   */\n      lt\n        /* \"#utility.yul\":12261:12657   */\n      iszero\n      tag_278\n      jumpi\n        /* \"#utility.yul\":12357:12366   */\n      dup5\n        /* \"#utility.yul\":12351:12355   */\n      dup5\n        /* \"#utility.yul\":12347:12367   */\n      sub\n        /* \"#utility.yul\":12342:12345   */\n      dup10\n        /* \"#utility.yul\":12335:12368   */\n      mstore\n        /* \"#utility.yul\":12408:12414   */\n      dup2\n        /* \"#utility.yul\":12402:12415   */\n      mload\n        /* \"#utility.yul\":12436:12520   */\n      tag_279\n        /* \"#utility.yul\":12515:12519   */\n      dup6\n        /* \"#utility.yul\":12500:12513   */\n      dup3\n        /* \"#utility.yul\":12436:12520   */\n      tag_129\n      jump\t// in\n    tag_279:\n        /* \"#utility.yul\":12428:12520   */\n      swap5\n      pop\n        /* \"#utility.yul\":12543:12613   */\n      tag_280\n        /* \"#utility.yul\":12606:12612   */\n      dup4\n        /* \"#utility.yul\":12543:12613   */\n      tag_130\n      jump\t// in\n    tag_280:\n        /* \"#utility.yul\":12533:12613   */\n      swap3\n      pop\n        /* \"#utility.yul\":12642:12646   */\n      0x20\n        /* \"#utility.yul\":12637:12640   */\n      dup11\n        /* \"#utility.yul\":12633:12647   */\n      add\n        /* \"#utility.yul\":12626:12647   */\n      swap10\n      pop\n        /* \"#utility.yul\":12321:12657   */\n      pop\n        /* \"#utility.yul\":12308:12309   */\n      0x01\n        /* \"#utility.yul\":12305:12306   */\n      dup2\n        /* \"#utility.yul\":12301:12310   */\n      add\n        /* \"#utility.yul\":12296:12310   */\n      swap1\n      pop\n        /* \"#utility.yul\":12261:12657   */\n      jump(tag_276)\n    tag_278:\n        /* \"#utility.yul\":12265:12279   */\n      pop\n        /* \"#utility.yul\":12673:12677   */\n      dup3\n        /* \"#utility.yul\":12666:12677   */\n      swap8\n      pop\n        /* \"#utility.yul\":12693:12696   */\n      dup8\n        /* \"#utility.yul\":12686:12696   */\n      swap6\n      pop\n        /* \"#utility.yul\":11855:12702   */\n      pop\n      pop\n      pop\n      pop\n      pop\n        /* \"#utility.yul\":11711:12702   */\n      swap3\n      swap2\n      pop\n      pop\n      jump\t// out\n        /* \"#utility.yul\":12708:12877   */\n    tag_132:\n        /* \"#utility.yul\":12792:12803   */\n      0x00\n        /* \"#utility.yul\":12826:12832   */\n      dup3\n        /* \"#utility.yul\":12821:12824   */\n      dup3\n        /* \"#utility.yul\":12814:12833   */\n      mstore\n        /* \"#utility.yul\":12866:12870   */\n      0x20\n        /* \"#utility.yul\":12861:12864   */\n      dup3\n        /* \"#utility.yul\":12857:12871   */\n      add\n        /* \"#utility.yul\":12842:12871   */\n      swap1\n      pop\n        /* \"#utility.yul\":12708:12877   */\n      swap3\n      swap2\n      pop\n      pop\n      jump\t// out\n        /* \"#utility.yul\":12883:13260   */\n    tag_133:\n        /* \"#utility.yul\":12971:12974   */\n      0x00\n        /* \"#utility.yul\":12999:13038   */\n      tag_283\n        /* \"#utility.yul\":13032:13037   */\n      dup3\n        /* \"#utility.yul\":12999:13038   */\n      tag_125\n      jump\t// in\n    tag_283:\n        /* \"#utility.yul\":13054:13125   */\n      tag_284\n        /* \"#utility.yul\":13118:13124   */\n      dup2\n        /* \"#utility.yul\":13113:13116   */\n      dup6\n        /* \"#utility.yul\":13054:13125   */\n      tag_132\n      jump\t// in\n    tag_284:\n        /* \"#utility.yul\":13047:13125   */\n      swap4\n      pop\n        /* \"#utility.yul\":13134:13199   */\n      tag_285\n        /* \"#utility.yul\":13192:13198   */\n      dup2\n        /* \"#utility.yul\":13187:13190   */\n      dup6\n        /* \"#utility.yul\":13180:13184   */\n      0x20\n        /* \"#utility.yul\":13173:13178   */\n      dup7\n        /* \"#utility.yul\":13169:13185   */\n      add\n        /* \"#utility.yul\":13134:13199   */\n      tag_127\n      jump\t// in\n    tag_285:\n        /* \"#utility.yul\":13224:13253   */\n      tag_286\n        /* \"#utility.yul\":13246:13252   */\n      dup2\n        /* \"#utility.yul\":13224:13253   */\n      tag_97\n      jump\t// in\n    tag_286:\n        /* \"#utility.yul\":13219:13222   */\n      dup5\n        /* \"#utility.yul\":13215:13254   */\n      add\n        /* \"#utility.yul\":13208:13254   */\n      swap2\n      pop\n        /* \"#utility.yul\":12975:13260   */\n      pop\n        /* \"#utility.yul\":12883:13260   */\n      swap3\n      swap2\n      pop\n      pop\n      jump\t// out\n        /* \"#utility.yul\":13266:13990   */\n    tag_29:\n        /* \"#utility.yul\":13505:13509   */\n      0x00\n        /* \"#utility.yul\":13543:13545   */\n      0x60\n        /* \"#utility.yul\":13532:13541   */\n      dup3\n        /* \"#utility.yul\":13528:13546   */\n      add\n        /* \"#utility.yul\":13520:13546   */\n      swap1\n      pop\n        /* \"#utility.yul\":13556:13627   */\n      tag_288\n        /* \"#utility.yul\":13624:13625   */\n      0x00\n        /* \"#utility.yul\":13613:13622   */\n      dup4\n        /* \"#utility.yul\":13609:13626   */\n      add\n        /* \"#utility.yul\":13600:13606   */\n      dup7\n        /* \"#utility.yul\":13556:13627   */\n      tag_94\n      jump\t// in\n    tag_288:\n        /* \"#utility.yul\":13674:13683   */\n      dup2\n        /* \"#utility.yul\":13668:13672   */\n      dup2\n        /* \"#utility.yul\":13664:13684   */\n      sub\n        /* \"#utility.yul\":13659:13661   */\n      0x20\n        /* \"#utility.yul\":13648:13657   */\n      dup4\n        /* \"#utility.yul\":13644:13662   */\n      add\n        /* \"#utility.yul\":13637:13685   */\n      mstore\n        /* \"#utility.yul\":13702:13830   */\n      tag_289\n        /* \"#utility.yul\":13825:13829   */\n      dup2\n        /* \"#utility.yul\":13816:13822   */\n      dup6\n        /* \"#utility.yul\":13702:13830   */\n      tag_131\n      jump\t// in\n    tag_289:\n        /* \"#utility.yul\":13694:13830   */\n      swap1\n      pop\n        /* \"#utility.yul\":13877:13886   */\n      dup2\n        /* \"#utility.yul\":13871:13875   */\n      dup2\n        /* \"#utility.yul\":13867:13887   */\n      sub\n        /* \"#utility.yul\":13862:13864   */\n      0x40\n        /* \"#utility.yul\":13851:13860   */\n      dup4\n        /* \"#utility.yul\":13847:13865   */\n      add\n        /* \"#utility.yul\":13840:13888   */\n      mstore\n        /* \"#utility.yul\":13905:13983   */\n      tag_290\n        /* \"#utility.yul\":13978:13982   */\n      dup2\n        /* \"#utility.yul\":13969:13975   */\n      dup5\n        /* \"#utility.yul\":13905:13983   */\n      tag_133\n      jump\t// in\n    tag_290:\n        /* \"#utility.yul\":13897:13983   */\n      swap1\n      pop\n        /* \"#utility.yul\":13266:13990   */\n      swap5\n      swap4\n      pop\n      pop\n      pop\n      pop\n      jump\t// out\n        /* \"#utility.yul\":13996:14176   */\n    tag_134:\n        /* \"#utility.yul\":14044:14121   */\n      0x4e487b7100000000000000000000000000000000000000000000000000000000\n        /* \"#utility.yul\":14041:14042   */\n      0x00\n        /* \"#utility.yul\":14034:14122   */\n      mstore\n        /* \"#utility.yul\":14141:14145   */\n      0x11\n        /* \"#utility.yul\":14138:14139   */\n      0x04\n        /* \"#utility.yul\":14131:14146   */\n      mstore\n        /* \"#utility.yul\":14165:14169   */\n      0x24\n        /* \"#utility.yul\":14162:14163   */\n      0x00\n        /* \"#utility.yul\":14155:14170   */\n      revert\n        /* \"#utility.yul\":14182:14284   */\n    tag_135:\n        /* \"#utility.yul\":14224:14232   */\n      0x00\n        /* \"#utility.yul\":14271:14276   */\n      dup2\n        /* \"#utility.yul\":14268:14269   */\n      0x01\n        /* \"#utility.yul\":14264:14277   */\n      shr\n        /* \"#utility.yul\":14243:14277   */\n      swap1\n      pop\n        /* \"#utility.yul\":14182:14284   */\n      swap2\n      swap1\n      pop\n      jump\t// out\n        /* \"#utility.yul\":14290:15138   */\n    tag_136:\n        /* \"#utility.yul\":14351:14356   */\n      0x00\n        /* \"#utility.yul\":14358:14362   */\n      dup1\n        /* \"#utility.yul\":14382:14388   */\n      dup3\n        /* \"#utility.yul\":14373:14388   */\n      swap2\n      pop\n        /* \"#utility.yul\":14406:14411   */\n      dup4\n        /* \"#utility.yul\":14397:14411   */\n      swap1\n      pop\n        /* \"#utility.yul\":14420:15132   */\n    tag_294:\n        /* \"#utility.yul\":14441:14442   */\n      0x01\n        /* \"#utility.yul\":14431:14439   */\n      dup6\n        /* \"#utility.yul\":14428:14443   */\n      gt\n        /* \"#utility.yul\":14420:15132   */\n      iszero\n      tag_296\n      jumpi\n        /* \"#utility.yul\":14536:14540   */\n      dup1\n        /* \"#utility.yul\":14531:14534   */\n      dup7\n        /* \"#utility.yul\":14527:14541   */\n      div\n        /* \"#utility.yul\":14521:14525   */\n      dup2\n        /* \"#utility.yul\":14518:14542   */\n      gt\n        /* \"#utility.yul\":14515:14565   */\n      iszero\n      tag_297\n      jumpi\n        /* \"#utility.yul\":14545:14563   */\n      tag_298\n      tag_134\n      jump\t// in\n    tag_298:\n        /* \"#utility.yul\":14515:14565   */\n    tag_297:\n        /* \"#utility.yul\":14595:14596   */\n      0x01\n        /* \"#utility.yul\":14585:14593   */\n      dup6\n        /* \"#utility.yul\":14581:14597   */\n      and\n        /* \"#utility.yul\":14578:15029   */\n      iszero\n      tag_299\n      jumpi\n        /* \"#utility.yul\":15010:15014   */\n      dup1\n        /* \"#utility.yul\":15003:15008   */\n      dup3\n        /* \"#utility.yul\":14999:15015   */\n      mul\n        /* \"#utility.yul\":14990:15015   */\n      swap2\n      pop\n        /* \"#utility.yul\":14578:15029   */\n    tag_299:\n        /* \"#utility.yul\":15060:15064   */\n      dup1\n        /* \"#utility.yul\":15054:15058   */\n      dup2\n        /* \"#utility.yul\":15050:15065   */\n      mul\n        /* \"#utility.yul\":15042:15065   */\n      swap1\n      pop\n        /* \"#utility.yul\":15090:15122   */\n      tag_300\n        /* \"#utility.yul\":15113:15121   */\n      dup6\n        /* \"#utility.yul\":15090:15122   */\n      tag_135\n      jump\t// in\n    tag_300:\n        /* \"#utility.yul\":15078:15122   */\n      swap5\n      pop\n        /* \"#utility.yul\":14420:15132   */\n      jump(tag_294)\n    tag_296:\n        /* \"#utility.yul\":14290:15138   */\n      swap5\n      pop\n      swap5\n      swap3\n      pop\n      pop\n      pop\n      jump\t// out\n        /* \"#utility.yul\":15144:16217   */\n    tag_137:\n        /* \"#utility.yul\":15198:15203   */\n      0x00\n        /* \"#utility.yul\":15389:15397   */\n      dup3\n        /* \"#utility.yul\":15379:15419   */\n      tag_302\n      jumpi\n        /* \"#utility.yul\":15410:15411   */\n      0x01\n        /* \"#utility.yul\":15401:15411   */\n      swap1\n      pop\n        /* \"#utility.yul\":15412:15417   */\n      jump(tag_301)\n        /* \"#utility.yul\":15379:15419   */\n    tag_302:\n        /* \"#utility.yul\":15438:15442   */\n      dup2\n        /* \"#utility.yul\":15428:15464   */\n      tag_303\n      jumpi\n        /* \"#utility.yul\":15455:15456   */\n      0x00\n        /* \"#utility.yul\":15446:15456   */\n      swap1\n      pop\n        /* \"#utility.yul\":15457:15462   */\n      jump(tag_301)\n        /* \"#utility.yul\":15428:15464   */\n    tag_303:\n        /* \"#utility.yul\":15524:15528   */\n      dup2\n        /* \"#utility.yul\":15572:15573   */\n      0x01\n        /* \"#utility.yul\":15567:15594   */\n      dup2\n      eq\n      tag_305\n      jumpi\n        /* \"#utility.yul\":15608:15609   */\n      0x02\n        /* \"#utility.yul\":15603:15794   */\n      dup2\n      eq\n      tag_306\n      jumpi\n        /* \"#utility.yul\":15517:15794   */\n      jump(tag_304)\n        /* \"#utility.yul\":15567:15594   */\n    tag_305:\n        /* \"#utility.yul\":15585:15586   */\n      0x01\n        /* \"#utility.yul\":15576:15586   */\n      swap2\n      pop\n        /* \"#utility.yul\":15587:15592   */\n      pop\n      jump(tag_301)\n        /* \"#utility.yul\":15603:15794   */\n    tag_306:\n        /* \"#utility.yul\":15648:15651   */\n      0xff\n        /* \"#utility.yul\":15638:15646   */\n      dup5\n        /* \"#utility.yul\":15635:15652   */\n      gt\n        /* \"#utility.yul\":15632:15675   */\n      iszero\n      tag_307\n      jumpi\n        /* \"#utility.yul\":15655:15673   */\n      tag_308\n      tag_134\n      jump\t// in\n    tag_308:\n        /* \"#utility.yul\":15632:15675   */\n    tag_307:\n        /* \"#utility.yul\":15704:15712   */\n      dup4\n        /* \"#utility.yul\":15701:15702   */\n      0x02\n        /* \"#utility.yul\":15697:15713   */\n      exp\n        /* \"#utility.yul\":15688:15713   */\n      swap2\n      pop\n        /* \"#utility.yul\":15739:15742   */\n      dup5\n        /* \"#utility.yul\":15732:15737   */\n      dup3\n        /* \"#utility.yul\":15729:15743   */\n      gt\n        /* \"#utility.yul\":15726:15766   */\n      iszero\n      tag_309\n      jumpi\n        /* \"#utility.yul\":15746:15764   */\n      tag_310\n      tag_134\n      jump\t// in\n    tag_310:\n        /* \"#utility.yul\":15726:15766   */\n    tag_309:\n        /* \"#utility.yul\":15779:15784   */\n      pop\n      jump(tag_301)\n        /* \"#utility.yul\":15517:15794   */\n    tag_304:\n      pop\n        /* \"#utility.yul\":15903:15905   */\n      0x20\n        /* \"#utility.yul\":15893:15901   */\n      dup4\n        /* \"#utility.yul\":15890:15906   */\n      lt\n        /* \"#utility.yul\":15884:15887   */\n      0x0133\n        /* \"#utility.yul\":15878:15882   */\n      dup4\n        /* \"#utility.yul\":15875:15888   */\n      lt\n        /* \"#utility.yul\":15871:15907   */\n      and\n        /* \"#utility.yul\":15853:15855   */\n      0x4e\n        /* \"#utility.yul\":15843:15851   */\n      dup5\n        /* \"#utility.yul\":15840:15856   */\n      lt\n        /* \"#utility.yul\":15835:15837   */\n      0x0b\n        /* \"#utility.yul\":15829:15833   */\n      dup5\n        /* \"#utility.yul\":15826:15838   */\n      lt\n        /* \"#utility.yul\":15822:15857   */\n      and\n        /* \"#utility.yul\":15806:15917   */\n      or\n        /* \"#utility.yul\":15803:16049   */\n      iszero\n      tag_311\n      jumpi\n        /* \"#utility.yul\":15959:15967   */\n      dup3\n        /* \"#utility.yul\":15953:15957   */\n      dup3\n        /* \"#utility.yul\":15949:15968   */\n      exp\n        /* \"#utility.yul\":15940:15968   */\n      swap1\n      pop\n        /* \"#utility.yul\":15994:15997   */\n      dup4\n        /* \"#utility.yul\":15987:15992   */\n      dup2\n        /* \"#utility.yul\":15984:15998   */\n      gt\n        /* \"#utility.yul\":15981:16021   */\n      iszero\n      tag_312\n      jumpi\n        /* \"#utility.yul\":16001:16019   */\n      tag_313\n      tag_134\n      jump\t// in\n    tag_313:\n        /* \"#utility.yul\":15981:16021   */\n    tag_312:\n        /* \"#utility.yul\":16034:16039   */\n      jump(tag_301)\n        /* \"#utility.yul\":15803:16049   */\n    tag_311:\n        /* \"#utility.yul\":16074:16116   */\n      tag_314\n        /* \"#utility.yul\":16112:16115   */\n      dup5\n        /* \"#utility.yul\":16102:16110   */\n      dup5\n        /* \"#utility.yul\":16096:16100   */\n      dup5\n        /* \"#utility.yul\":16093:16094   */\n      0x01\n        /* \"#utility.yul\":16074:16116   */\n      tag_136\n      jump\t// in\n    tag_314:\n        /* \"#utility.yul\":16059:16116   */\n      swap3\n      pop\n      swap1\n      pop\n        /* \"#utility.yul\":16148:16152   */\n      dup2\n        /* \"#utility.yul\":16143:16146   */\n      dup5\n        /* \"#utility.yul\":16139:16153   */\n      div\n        /* \"#utility.yul\":16132:16137   */\n      dup2\n        /* \"#utility.yul\":16129:16154   */\n      gt\n        /* \"#utility.yul\":16126:16177   */\n      iszero\n      tag_315\n      jumpi\n        /* \"#utility.yul\":16157:16175   */\n      tag_316\n      tag_134\n      jump\t// in\n    tag_316:\n        /* \"#utility.yul\":16126:16177   */\n    tag_315:\n        /* \"#utility.yul\":16206:16210   */\n      dup2\n        /* \"#utility.yul\":16199:16204   */\n      dup2\n        /* \"#utility.yul\":16195:16211   */\n      mul\n        /* \"#utility.yul\":16186:16211   */\n      swap1\n      pop\n        /* \"#utility.yul\":15144:16217   */\n    tag_301:\n      swap4\n      swap3\n      pop\n      pop\n      pop\n      jump\t// out\n        /* \"#utility.yul\":16223:16508   */\n    tag_34:\n        /* \"#utility.yul\":16283:16288   */\n      0x00\n        /* \"#utility.yul\":16307:16330   */\n      tag_318\n        /* \"#utility.yul\":16325:16329   */\n      dup3\n        /* \"#utility.yul\":16307:16330   */\n      tag_91\n      jump\t// in\n    tag_318:\n        /* \"#utility.yul\":16299:16330   */\n      swap2\n      pop\n        /* \"#utility.yul\":16351:16378   */\n      tag_319\n        /* \"#utility.yul\":16369:16377   */\n      dup4\n        /* \"#utility.yul\":16351:16378   */\n      tag_91\n      jump\t// in\n    tag_319:\n        /* \"#utility.yul\":16339:16378   */\n      swap3\n      pop\n        /* \"#utility.yul\":16397:16501   */\n      tag_320\n        /* \"#utility.yul\":16434:16500   */\n      0xffffffffffffffffffffffffffffffffffffffffffffffffffffffffffffffff\n        /* \"#utility.yul\":16424:16432   */\n      dup5\n        /* \"#utility.yul\":16418:16422   */\n      dup5\n        /* \"#utility.yul\":16397:16501   */\n      tag_137\n      jump\t// in\n    tag_320:\n        /* \"#utility.yul\":16388:16501   */\n      swap1\n      pop\n        /* \"#utility.yul\":16223:16508   */\n      swap3\n      swap2\n      pop\n      pop\n      jump\t// out\n        /* \"#utility.yul\":16514:16747   */\n    tag_36:\n        /* \"#utility.yul\":16553:16556   */\n      0x00\n        /* \"#utility.yul\":16576:16600   */\n      tag_322\n        /* \"#utility.yul\":16594:16599   */\n      dup3\n        /* \"#utility.yul\":16576:16600   */\n      tag_91\n      jump\t// in\n    tag_322:\n        /* \"#utility.yul\":16567:16600   */\n      swap2\n      pop\n        /* \"#utility.yul\":16622:16688   */\n      0xffffffffffffffffffffffffffffffffffffffffffffffffffffffffffffffff\n        /* \"#utility.yul\":16615:16620   */\n      dup3\n        /* \"#utility.yul\":16612:16689   */\n      sub\n        /* \"#utility.yul\":16609:16712   */\n      tag_323\n      jumpi\n        /* \"#utility.yul\":16692:16710   */\n      tag_324\n      tag_134\n      jump\t// in\n    tag_324:\n        /* \"#utility.yul\":16609:16712   */\n    tag_323:\n        /* \"#utility.yul\":16739:16740   */\n      0x01\n        /* \"#utility.yul\":16732:16737   */\n      dup3\n        /* \"#utility.yul\":16728:16741   */\n      add\n        /* \"#utility.yul\":16721:16741   */\n      swap1\n      pop\n        /* \"#utility.yul\":16514:16747   */\n      swap2\n      swap1\n      pop\n      jump\t// out\n        /* \"#utility.yul\":16753:16933   */\n    tag_47:\n        /* \"#utility.yul\":16801:16878   */\n      0x4e487b7100000000000000000000000000000000000000000000000000000000\n        /* \"#utility.yul\":16798:16799   */\n      0x00\n        /* \"#utility.yul\":16791:16879   */\n      mstore\n        /* \"#utility.yul\":16898:16902   */\n      0x32\n        /* \"#utility.yul\":16895:16896   */\n      0x04\n        /* \"#utility.yul\":16888:16903   */\n      mstore\n        /* \"#utility.yul\":16922:16926   */\n      0x24\n        /* \"#utility.yul\":16919:16920   */\n      0x00\n        /* \"#utility.yul\":16912:16927   */\n      revert\n        /* \"#utility.yul\":16939:17119   */\n    tag_138:\n        /* \"#utility.yul\":16987:17064   */\n      0x4e487b7100000000000000000000000000000000000000000000000000000000\n        /* \"#utility.yul\":16984:16985   */\n      0x00\n        /* \"#utility.yul\":16977:17065   */\n      mstore\n        /* \"#utility.yul\":17084:17088   */\n      0x12\n        /* \"#utility.yul\":17081:17082   */\n      0x04\n        /* \"#utility.yul\":17074:17089   */\n      mstore\n        /* \"#utility.yul\":17108:17112   */\n      0x24\n        /* \"#utility.yul\":17105:17106   */\n      0x00\n        /* \"#utility.yul\":17098:17113   */\n      revert\n        /* \"#utility.yul\":17125:17301   */\n    tag_60:\n        /* \"#utility.yul\":17157:17158   */\n      0x00\n        /* \"#utility.yul\":17174:17194   */\n      tag_328\n        /* \"#utility.yul\":17192:17193   */\n      dup3\n        /* \"#utility.yul\":17174:17194   */\n      tag_91\n      jump\t// in\n    tag_328:\n        /* \"#utility.yul\":17169:17194   */\n      swap2\n      pop\n        /* \"#utility.yul\":17208:17228   */\n      tag_329\n        /* \"#utility.yul\":17226:17227   */\n      dup4\n        /* \"#utility.yul\":17208:17228   */\n      tag_91\n      jump\t// in\n    tag_329:\n        /* \"#utility.yul\":17203:17228   */\n      swap3\n      pop\n        /* \"#utility.yul\":17247:17248   */\n      dup3\n        /* \"#utility.yul\":17237:17272   */\n      tag_330\n      jumpi\n        /* \"#utility.yul\":17252:17270   */\n      tag_331\n      tag_138\n      jump\t// in\n    tag_331:\n        /* \"#utility.yul\":17237:17272   */\n    tag_330:\n        /* \"#utility.yul\":17293:17294   */\n      dup3\n        /* \"#utility.yul\":17290:17291   */\n      dup3\n        /* \"#utility.yul\":17286:17295   */\n      mod\n        /* \"#utility.yul\":17281:17295   */\n      swap1\n      pop\n        /* \"#utility.yul\":17125:17301   */\n      swap3\n      swap2\n      pop\n      pop\n      jump\t// out\n        /* \"#utility.yul\":17307:17478   */\n    tag_62:\n        /* \"#utility.yul\":17346:17349   */\n      0x00\n        /* \"#utility.yul\":17369:17393   */\n      tag_333\n        /* \"#utility.yul\":17387:17392   */\n      dup3\n        /* \"#utility.yul\":17369:17393   */\n      tag_91\n      jump\t// in\n    tag_333:\n        /* \"#utility.yul\":17360:17393   */\n      swap2\n      pop\n        /* \"#utility.yul\":17415:17419   */\n      0x00\n        /* \"#utility.yul\":17408:17413   */\n      dup3\n        /* \"#utility.yul\":17405:17420   */\n      sub\n        /* \"#utility.yul\":17402:17443   */\n      tag_334\n      jumpi\n        /* \"#utility.yul\":17423:17441   */\n      tag_335\n      tag_134\n      jump\t// in\n    tag_335:\n        /* \"#utility.yul\":17402:17443   */\n    tag_334:\n        /* \"#utility.yul\":17470:17471   */\n      0x01\n        /* \"#utility.yul\":17463:17468   */\n      dup3\n        /* \"#utility.yul\":17459:17472   */\n      sub\n        /* \"#utility.yul\":17452:17472   */\n      swap1\n      pop\n        /* \"#utility.yul\":17307:17478   */\n      swap2\n      swap1\n      pop\n      jump\t// out\n        /* \"#utility.yul\":17484:17669   */\n    tag_66:\n        /* \"#utility.yul\":17524:17525   */\n      0x00\n        /* \"#utility.yul\":17541:17561   */\n      tag_337\n        /* \"#utility.yul\":17559:17560   */\n      dup3\n        /* \"#utility.yul\":17541:17561   */\n      tag_91\n      jump\t// in\n    tag_337:\n        /* \"#utility.yul\":17536:17561   */\n      swap2\n      pop\n        /* \"#utility.yul\":17575:17595   */\n      tag_338\n        /* \"#utility.yul\":17593:17594   */\n      dup4\n        /* \"#utility.yul\":17575:17595   */\n      tag_91\n      jump\t// in\n    tag_338:\n        /* \"#utility.yul\":17570:17595   */\n      swap3\n      pop\n        /* \"#utility.yul\":17614:17615   */\n      dup3\n        /* \"#utility.yul\":17604:17639   */\n      tag_339\n      jumpi\n        /* \"#utility.yul\":17619:17637   */\n      tag_340\n      tag_138\n      jump\t// in\n    tag_340:\n        /* \"#utility.yul\":17604:17639   */\n    tag_339:\n        /* \"#utility.yul\":17661:17662   */\n      dup3\n        /* \"#utility.yul\":17658:17659   */\n      dup3\n        /* \"#utility.yul\":17654:17663   */\n      div\n        /* \"#utility.yul\":17649:17663   */\n      swap1\n      pop\n        /* \"#utility.yul\":17484:17669   */\n      swap3\n      swap2\n      pop\n      pop\n      jump\t// out\n        /* \"#utility.yul\":17675:17753   */\n    tag_139:\n        /* \"#utility.yul\":17713:17720   */\n      0x00\n        /* \"#utility.yul\":17742:17747   */\n      dup2\n        /* \"#utility.yul\":17731:17747   */\n      swap1\n      pop\n        /* \"#utility.yul\":17675:17753   */\n      swap2\n      swap1\n      pop\n      jump\t// out\n        /* \"#utility.yul\":17759:17912   */\n    tag_140:\n        /* \"#utility.yul\":17862:17905   */\n      tag_343\n        /* \"#utility.yul\":17881:17904   */\n      tag_344\n        /* \"#utility.yul\":17898:17903   */\n      dup3\n        /* \"#utility.yul\":17881:17904   */\n      tag_107\n      jump\t// in\n    tag_344:\n        /* \"#utility.yul\":17862:17905   */\n      tag_139\n      jump\t// in\n    tag_343:\n        /* \"#utility.yul\":17857:17860   */\n      dup3\n        /* \"#utility.yul\":17850:17906   */\n      mstore\n        /* \"#utility.yul\":17759:17912   */\n      pop\n      pop\n      jump\t// out\n        /* \"#utility.yul\":17918:18169   */\n    tag_82:\n        /* \"#utility.yul\":18028:18031   */\n      0x00\n        /* \"#utility.yul\":18043:18116   */\n      tag_346\n        /* \"#utility.yul\":18112:18115   */\n      dup3\n        /* \"#utility.yul\":18103:18109   */\n      dup5\n        /* \"#utility.yul\":18043:18116   */\n      tag_140\n      jump\t// in\n    tag_346:\n        /* \"#utility.yul\":18141:18142   */\n      0x01\n        /* \"#utility.yul\":18136:18139   */\n      dup3\n        /* \"#utility.yul\":18132:18143   */\n      add\n        /* \"#utility.yul\":18125:18143   */\n      swap2\n      pop\n        /* \"#utility.yul\":18160:18163   */\n      dup2\n        /* \"#utility.yul\":18153:18163   */\n      swap1\n      pop\n        /* \"#utility.yul\":17918:18169   */\n      swap3\n      swap2\n      pop\n      pop\n      jump\t// out\n        /* \"#utility.yul\":18175:18337   */\n    tag_141:\n        /* \"#utility.yul\":18291:18302   */\n      0x00\n        /* \"#utility.yul\":18328:18331   */\n      dup2\n        /* \"#utility.yul\":18313:18331   */\n      swap1\n      pop\n        /* \"#utility.yul\":18175:18337   */\n      swap3\n      swap2\n      pop\n      pop\n      jump\t// out\n        /* \"#utility.yul\":18343:18456   */\n    tag_142:\n        /* \"#utility.yul\":18426:18449   */\n      tag_349\n        /* \"#utility.yul\":18443:18448   */\n      dup2\n        /* \"#utility.yul\":18426:18449   */\n      tag_107\n      jump\t// in\n    tag_349:\n        /* \"#utility.yul\":18421:18424   */\n      dup3\n        /* \"#utility.yul\":18414:18450   */\n      mstore\n        /* \"#utility.yul\":18343:18456   */\n      pop\n      pop\n      jump\t// out\n        /* \"#utility.yul\":18462:18653   */\n    tag_143:\n        /* \"#utility.yul\":18537:18547   */\n      0x00\n        /* \"#utility.yul\":18558:18610   */\n      tag_351\n        /* \"#utility.yul\":18606:18609   */\n      dup4\n        /* \"#utility.yul\":18598:18604   */\n      dup4\n        /* \"#utility.yul\":18558:18610   */\n      tag_142\n      jump\t// in\n    tag_351:\n        /* \"#utility.yul\":18642:18646   */\n      0x20\n        /* \"#utility.yul\":18637:18640   */\n      dup4\n        /* \"#utility.yul\":18633:18647   */\n      add\n        /* \"#utility.yul\":18619:18647   */\n      swap1\n      pop\n        /* \"#utility.yul\":18462:18653   */\n      swap3\n      swap2\n      pop\n      pop\n      jump\t// out\n        /* \"#utility.yul\":18687:19455   */\n    tag_144:\n        /* \"#utility.yul\":18822:18825   */\n      0x00\n        /* \"#utility.yul\":18851:18904   */\n      tag_353\n        /* \"#utility.yul\":18898:18903   */\n      dup3\n        /* \"#utility.yul\":18851:18904   */\n      tag_104\n      jump\t// in\n    tag_353:\n        /* \"#utility.yul\":18920:19023   */\n      tag_354\n        /* \"#utility.yul\":19016:19022   */\n      dup2\n        /* \"#utility.yul\":19011:19014   */\n      dup6\n        /* \"#utility.yul\":18920:19023   */\n      tag_141\n      jump\t// in\n    tag_354:\n        /* \"#utility.yul\":18913:19023   */\n      swap4\n      pop\n        /* \"#utility.yul\":19047:19102   */\n      tag_355\n        /* \"#utility.yul\":19096:19101   */\n      dup4\n        /* \"#utility.yul\":19047:19102   */\n      tag_106\n      jump\t// in\n    tag_355:\n        /* \"#utility.yul\":19125:19132   */\n      dup1\n        /* \"#utility.yul\":19156:19157   */\n      0x00\n        /* \"#utility.yul\":19141:19430   */\n    tag_356:\n        /* \"#utility.yul\":19166:19172   */\n      dup4\n        /* \"#utility.yul\":19163:19164   */\n      dup2\n        /* \"#utility.yul\":19160:19173   */\n      lt\n        /* \"#utility.yul\":19141:19430   */\n      iszero\n      tag_358\n      jumpi\n        /* \"#utility.yul\":19242:19248   */\n      dup2\n        /* \"#utility.yul\":19236:19249   */\n      mload\n        /* \"#utility.yul\":19269:19338   */\n      tag_359\n        /* \"#utility.yul\":19334:19337   */\n      dup9\n        /* \"#utility.yul\":19319:19332   */\n      dup3\n        /* \"#utility.yul\":19269:19338   */\n      tag_143\n      jump\t// in\n    tag_359:\n        /* \"#utility.yul\":19262:19338   */\n      swap8\n      pop\n        /* \"#utility.yul\":19361:19420   */\n      tag_360\n        /* \"#utility.yul\":19413:19419   */\n      dup4\n        /* \"#utility.yul\":19361:19420   */\n      tag_110\n      jump\t// in\n    tag_360:\n        /* \"#utility.yul\":19351:19420   */\n      swap3\n      pop\n        /* \"#utility.yul\":19201:19430   */\n      pop\n        /* \"#utility.yul\":19188:19189   */\n      0x01\n        /* \"#utility.yul\":19185:19186   */\n      dup2\n        /* \"#utility.yul\":19181:19190   */\n      add\n        /* \"#utility.yul\":19176:19190   */\n      swap1\n      pop\n        /* \"#utility.yul\":19141:19430   */\n      jump(tag_356)\n    tag_358:\n        /* \"#utility.yul\":19145:19159   */\n      pop\n        /* \"#utility.yul\":19446:19449   */\n      dup6\n        /* \"#utility.yul\":19439:19449   */\n      swap4\n      pop\n        /* \"#utility.yul\":18827:19455   */\n      pop\n      pop\n      pop\n        /* \"#utility.yul\":18687:19455   */\n      swap3\n      swap2\n      pop\n      pop\n      jump\t// out\n        /* \"#utility.yul\":19461:19792   */\n    tag_87:\n        /* \"#utility.yul\":19621:19624   */\n      0x00\n        /* \"#utility.yul\":19643:19766   */\n      tag_362\n        /* \"#utility.yul\":19762:19765   */\n      dup3\n        /* \"#utility.yul\":19753:19759   */\n      dup5\n        /* \"#utility.yul\":19643:19766   */\n      tag_144\n      jump\t// in\n    tag_362:\n        /* \"#utility.yul\":19636:19766   */\n      swap2\n      pop\n        /* \"#utility.yul\":19783:19786   */\n      dup2\n        /* \"#utility.yul\":19776:19786   */\n      swap1\n      pop\n        /* \"#utility.yul\":19461:19792   */\n      swap3\n      swap2\n      pop\n      pop\n      jump\t// out\n\n    auxdata: 0xa2646970667358221220914dc3402028ae4232fd0cd97ad5d9a22f7373882a81e2be4fd6aa5a61c4622364736f6c63430008120033\n}\n",
				"bytecode": {
					"linkReferences": {},
					"object": "608060405234801561001057600080fd5b50610f43806100206000396000f3fe608060405234801561001057600080fd5b506004361061004c5760003560e01c80630986e647146100515780630b6d1fbf146100815780632ac45d9c146100b157806368836ddd146100e2575b600080fd5b61006b600480360381019061006691906104b2565b610114565b60405161007891906104ee565b60405180910390f35b61009b6004803603810190610096919061064f565b610148565b6040516100a89190610782565b60405180910390f35b6100cb60048036038101906100c691906104b2565b610244565b6040516100d9929190610862565b60405180910390f35b6100fc60048036038101906100f79190610933565b61030d565b60405161010b93929190610b07565b60405180910390f35b6000805b80600a6101259190610cae565b83111561013f57808061013790610cf9565b915050610118565b80915050919050565b60606000825167ffffffffffffffff81111561016757610166610524565b5b6040519080825280602002602001820160405280156101955781602001602082028036833780820191505090505b50905060005b815181101561023a578381815181106101b7576101b6610d41565b5b602001015160f81c60f81b8282815181106101d5576101d4610d41565b5b60200260200101907effffffffffffffffffffffffffffffffffffffffffffffffffffffffffffff191690817effffffffffffffffffffffffffffffffffffffffffffffffffffffffffffff191681525050808061023290610cf9565b91505061019b565b5080915050919050565b60006060600061025384610114565b67ffffffffffffffff81111561026c5761026b610524565b5b60405190808252806020026020018201604052801561029a5781602001602082028036833780820191505090505b50905060006102a885610114565b90505b600085146102ff57600a856102c09190610d9f565b82826102cb90610dd0565b925082815181106102df576102de610d41565b5b602002602001018181525050600a856102f89190610df9565b94506102ab565b815182935093505050915091565b60006060806000845167ffffffffffffffff81111561032f5761032e610524565b5b60405190808252806020026020018201604052801561035d5781602001602082028036833780820191505090505b50905061036985610148565b90506000815167ffffffffffffffff81111561038857610387610524565b5b6040519080825280602002602001820160405280156103bb57816020015b60608152602001906001900390816103a65790505b50905060005b8151811015610435578281815181106103dd576103dc610d41565b5b60200260200101516040516020016103f59190610e4b565b60405160208183030381529060405282828151811061041757610416610d41565b5b6020026020010181905250808061042d90610cf9565b9150506103c1565b508051818360405160200161044a9190610ef6565b60405160208183030381529060405294509450945050509193909250565b6000604051905090565b600080fd5b600080fd5b6000819050919050565b61048f8161047c565b811461049a57600080fd5b50565b6000813590506104ac81610486565b92915050565b6000602082840312156104c8576104c7610472565b5b60006104d68482850161049d565b91505092915050565b6104e88161047c565b82525050565b600060208201905061050360008301846104df565b92915050565b600080fd5b600080fd5b6000601f19601f8301169050919050565b7f4e487b7100000000000000000000000000000000000000000000000000000000600052604160045260246000fd5b61055c82610513565b810181811067ffffffffffffffff8211171561057b5761057a610524565b5b80604052505050565b600061058e610468565b905061059a8282610553565b919050565b600067ffffffffffffffff8211156105ba576105b9610524565b5b6105c382610513565b9050602081019050919050565b82818337600083830152505050565b60006105f26105ed8461059f565b610584565b90508281526020810184848401111561060e5761060d61050e565b5b6106198482856105d0565b509392505050565b600082601f83011261063657610635610509565b5b81356106468482602086016105df565b91505092915050565b60006020828403121561066557610664610472565b5b600082013567ffffffffffffffff81111561068357610682610477565b5b61068f84828501610621565b91505092915050565b600081519050919050565b600082825260208201905092915050565b6000819050602082019050919050565b60007fff0000000000000000000000000000000000000000000000000000000000000082169050919050565b6106f9816106c4565b82525050565b600061070b83836106f0565b60208301905092915050565b6000602082019050919050565b600061072f82610698565b61073981856106a3565b9350610744836106b4565b8060005b8381101561077557815161075c88826106ff565b975061076783610717565b925050600181019050610748565b5085935050505092915050565b6000602082019050818103600083015261079c8184610724565b905092915050565b600081519050919050565b600082825260208201905092915050565b6000819050602082019050919050565b6107d98161047c565b82525050565b60006107eb83836107d0565b60208301905092915050565b6000602082019050919050565b600061080f826107a4565b61081981856107af565b9350610824836107c0565b8060005b8381101561085557815161083c88826107df565b9750610847836107f7565b925050600181019050610828565b5085935050505092915050565b600060408201905061087760008301856104df565b81810360208301526108898184610804565b90509392505050565b600067ffffffffffffffff8211156108ad576108ac610524565b5b6108b682610513565b9050602081019050919050565b60006108d66108d184610892565b610584565b9050828152602081018484840111156108f2576108f161050e565b5b6108fd8482856105d0565b509392505050565b600082601f83011261091a57610919610509565b5b813561092a8482602086016108c3565b91505092915050565b60006020828403121561094957610948610472565b5b600082013567ffffffffffffffff81111561096757610966610477565b5b61097384828501610905565b91505092915050565b600081519050919050565b600082825260208201905092915050565b6000819050602082019050919050565b600081519050919050565b600082825260208201905092915050565b60005b838110156109e25780820151818401526020810190506109c7565b60008484015250505050565b60006109f9826109a8565b610a0381856109b3565b9350610a138185602086016109c4565b610a1c81610513565b840191505092915050565b6000610a3383836109ee565b905092915050565b6000602082019050919050565b6000610a538261097c565b610a5d8185610987565b935083602082028501610a6f85610998565b8060005b85811015610aab5784840389528151610a8c8582610a27565b9450610a9783610a3b565b925060208a01995050600181019050610a73565b50829750879550505050505092915050565b600082825260208201905092915050565b6000610ad9826109a8565b610ae38185610abd565b9350610af38185602086016109c4565b610afc81610513565b840191505092915050565b6000606082019050610b1c60008301866104df565b8181036020830152610b2e8185610a48565b90508181036040830152610b428184610ace565b9050949350505050565b7f4e487b7100000000000000000000000000000000000000000000000000000000600052601160045260246000fd5b60008160011c9050919050565b6000808291508390505b6001851115610bd257808604811115610bae57610bad610b4c565b5b6001851615610bbd5780820291505b8081029050610bcb85610b7b565b9450610b92565b94509492505050565b600082610beb5760019050610ca7565b81610bf95760009050610ca7565b8160018114610c0f5760028114610c1957610c48565b6001915050610ca7565b60ff841115610c2b57610c2a610b4c565b5b8360020a915084821115610c4257610c41610b4c565b5b50610ca7565b5060208310610133831016604e8410600b8410161715610c7d5782820a905083811115610c7857610c77610b4c565b5b610ca7565b610c8a8484846001610b88565b92509050818404811115610ca157610ca0610b4c565b5b81810290505b9392505050565b6000610cb98261047c565b9150610cc48361047c565b9250610cf17fffffffffffffffffffffffffffffffffffffffffffffffffffffffffffffffff8484610bdb565b905092915050565b6000610d048261047c565b91507fffffffffffffffffffffffffffffffffffffffffffffffffffffffffffffffff8203610d3657610d35610b4c565b5b600182019050919050565b7f4e487b7100000000000000000000000000000000000000000000000000000000600052603260045260246000fd5b7f4e487b7100000000000000000000000000000000000000000000000000000000600052601260045260246000fd5b6000610daa8261047c565b9150610db58361047c565b925082610dc557610dc4610d70565b5b828206905092915050565b6000610ddb8261047c565b915060008203610dee57610ded610b4c565b5b600182039050919050565b6000610e048261047c565b9150610e0f8361047c565b925082610e1f57610e1e610d70565b5b828204905092915050565b6000819050919050565b610e45610e40826106c4565b610e2a565b82525050565b6000610e578284610e34565b60018201915081905092915050565b600081905092915050565b610e7a816106c4565b82525050565b6000610e8c8383610e71565b60208301905092915050565b6000610ea382610698565b610ead8185610e66565b9350610eb8836106b4565b8060005b83811015610ee9578151610ed08882610e80565b9750610edb83610717565b925050600181019050610ebc565b5085935050505092915050565b6000610f028284610e98565b91508190509291505056fea2646970667358221220914dc3402028ae4232fd0cd97ad5d9a22f7373882a81e2be4fd6aa5a61c4622364736f6c63430008120033",
					"opcodes": "PUSH1 0x80 PUSH1 0x40 MSTORE CALLVALUE DUP1 ISZERO PUSH2 0x10 JUMPI PUSH1 0x0 DUP1 REVERT JUMPDEST POP PUSH2 0xF43 DUP1 PUSH2 0x20 PUSH1 0x0 CODECOPY PUSH1 0x0 RETURN INVALID PUSH1 0x80 PUSH1 0x40 MSTORE CALLVALUE DUP1 ISZERO PUSH2 0x10 JUMPI PUSH1 0x0 DUP1 REVERT JUMPDEST POP PUSH1 0x4 CALLDATASIZE LT PUSH2 0x4C JUMPI PUSH1 0x0 CALLDATALOAD PUSH1 0xE0 SHR DUP1 PUSH4 0x986E647 EQ PUSH2 0x51 JUMPI DUP1 PUSH4 0xB6D1FBF EQ PUSH2 0x81 JUMPI DUP1 PUSH4 0x2AC45D9C EQ PUSH2 0xB1 JUMPI DUP1 PUSH4 0x68836DDD EQ PUSH2 0xE2 JUMPI JUMPDEST PUSH1 0x0 DUP1 REVERT JUMPDEST PUSH2 0x6B PUSH1 0x4 DUP1 CALLDATASIZE SUB DUP2 ADD SWAP1 PUSH2 0x66 SWAP2 SWAP1 PUSH2 0x4B2 JUMP JUMPDEST PUSH2 0x114 JUMP JUMPDEST PUSH1 0x40 MLOAD PUSH2 0x78 SWAP2 SWAP1 PUSH2 0x4EE JUMP JUMPDEST PUSH1 0x40 MLOAD DUP1 SWAP2 SUB SWAP1 RETURN JUMPDEST PUSH2 0x9B PUSH1 0x4 DUP1 CALLDATASIZE SUB DUP2 ADD SWAP1 PUSH2 0x96 SWAP2 SWAP1 PUSH2 0x64F JUMP JUMPDEST PUSH2 0x148 JUMP JUMPDEST PUSH1 0x40 MLOAD PUSH2 0xA8 SWAP2 SWAP1 PUSH2 0x782 JUMP JUMPDEST PUSH1 0x40 MLOAD DUP1 SWAP2 SUB SWAP1 RETURN JUMPDEST PUSH2 0xCB PUSH1 0x4 DUP1 CALLDATASIZE SUB DUP2 ADD SWAP1 PUSH2 0xC6 SWAP2 SWAP1 PUSH2 0x4B2 JUMP JUMPDEST PUSH2 0x244 JUMP JUMPDEST PUSH1 0x40 MLOAD PUSH2 0xD9 SWAP3 SWAP2 SWAP1 PUSH2 0x862 JUMP JUMPDEST PUSH1 0x40 MLOAD DUP1 SWAP2 SUB SWAP1 RETURN JUMPDEST PUSH2 0xFC PUSH1 0x4 DUP1 CALLDATASIZE SUB DUP2 ADD SWAP1 PUSH2 0xF7 SWAP2 SWAP1 PUSH2 0x933 JUMP JUMPDEST PUSH2 0x30D JUMP JUMPDEST PUSH1 0x40 MLOAD PUSH2 0x10B SWAP4 SWAP3 SWAP2 SWAP1 PUSH2 0xB07 JUMP JUMPDEST PUSH1 0x40 MLOAD DUP1 SWAP2 SUB SWAP1 RETURN JUMPDEST PUSH1 0x0 DUP1 JUMPDEST DUP1 PUSH1 0xA PUSH2 0x125 SWAP2 SWAP1 PUSH2 0xCAE JUMP JUMPDEST DUP4 GT ISZERO PUSH2 0x13F JUMPI DUP1 DUP1 PUSH2 0x137 SWAP1 PUSH2 0xCF9 JUMP JUMPDEST SWAP2 POP POP PUSH2 0x118 JUMP JUMPDEST DUP1 SWAP2 POP POP SWAP2 SWAP1 POP JUMP JUMPDEST PUSH1 0x60 PUSH1 0x0 DUP3 MLOAD PUSH8 0xFFFFFFFFFFFFFFFF DUP2 GT ISZERO PUSH2 0x167 JUMPI PUSH2 0x166 PUSH2 0x524 JUMP JUMPDEST JUMPDEST PUSH1 0x40 MLOAD SWAP1 DUP1 DUP3 MSTORE DUP1 PUSH1 0x20 MUL PUSH1 0x20 ADD DUP3 ADD PUSH1 0x40 MSTORE DUP1 ISZERO PUSH2 0x195 JUMPI DUP2 PUSH1 0x20 ADD PUSH1 0x20 DUP3 MUL DUP1 CALLDATASIZE DUP4 CALLDATACOPY DUP1 DUP3 ADD SWAP2 POP POP SWAP1 POP JUMPDEST POP SWAP1 POP PUSH1 0x0 JUMPDEST DUP2 MLOAD DUP2 LT ISZERO PUSH2 0x23A JUMPI DUP4 DUP2 DUP2 MLOAD DUP2 LT PUSH2 0x1B7 JUMPI PUSH2 0x1B6 PUSH2 0xD41 JUMP JUMPDEST JUMPDEST PUSH1 0x20 ADD ADD MLOAD PUSH1 0xF8 SHR PUSH1 0xF8 SHL DUP3 DUP3 DUP2 MLOAD DUP2 LT PUSH2 0x1D5 JUMPI PUSH2 0x1D4 PUSH2 0xD41 JUMP JUMPDEST JUMPDEST PUSH1 0x20 MUL PUSH1 0x20 ADD ADD SWAP1 PUSH31 0xFFFFFFFFFFFFFFFFFFFFFFFFFFFFFFFFFFFFFFFFFFFFFFFFFFFFFFFFFFFFFF NOT AND SWAP1 DUP2 PUSH31 0xFFFFFFFFFFFFFFFFFFFFFFFFFFFFFFFFFFFFFFFFFFFFFFFFFFFFFFFFFFFFFF NOT AND DUP2 MSTORE POP POP DUP1 DUP1 PUSH2 0x232 SWAP1 PUSH2 0xCF9 JUMP JUMPDEST SWAP2 POP POP PUSH2 0x19B JUMP JUMPDEST POP DUP1 SWAP2 POP POP SWAP2 SWAP1 POP JUMP JUMPDEST PUSH1 0x0 PUSH1 0x60 PUSH1 0x0 PUSH2 0x253 DUP5 PUSH2 0x114 JUMP JUMPDEST PUSH8 0xFFFFFFFFFFFFFFFF DUP2 GT ISZERO PUSH2 0x26C JUMPI PUSH2 0x26B PUSH2 0x524 JUMP JUMPDEST JUMPDEST PUSH1 0x40 MLOAD SWAP1 DUP1 DUP3 MSTORE DUP1 PUSH1 0x20 MUL PUSH1 0x20 ADD DUP3 ADD PUSH1 0x40 MSTORE DUP1 ISZERO PUSH2 0x29A JUMPI DUP2 PUSH1 0x20 ADD PUSH1 0x20 DUP3 MUL DUP1 CALLDATASIZE DUP4 CALLDATACOPY DUP1 DUP3 ADD SWAP2 POP POP SWAP1 POP JUMPDEST POP SWAP1 POP PUSH1 0x0 PUSH2 0x2A8 DUP6 PUSH2 0x114 JUMP JUMPDEST SWAP1 POP JUMPDEST PUSH1 0x0 DUP6 EQ PUSH2 0x2FF JUMPI PUSH1 0xA DUP6 PUSH2 0x2C0 SWAP2 SWAP1 PUSH2 0xD9F JUMP JUMPDEST DUP3 DUP3 PUSH2 0x2CB SWAP1 PUSH2 0xDD0 JUMP JUMPDEST SWAP3 POP DUP3 DUP2 MLOAD DUP2 LT PUSH2 0x2DF JUMPI PUSH2 0x2DE PUSH2 0xD41 JUMP JUMPDEST JUMPDEST PUSH1 0x20 MUL PUSH1 0x20 ADD ADD DUP2 DUP2 MSTORE POP POP PUSH1 0xA DUP6 PUSH2 0x2F8 SWAP2 SWAP1 PUSH2 0xDF9 JUMP JUMPDEST SWAP5 POP PUSH2 0x2AB JUMP JUMPDEST DUP2 MLOAD DUP3 SWAP4 POP SWAP4 POP POP POP SWAP2 POP SWAP2 JUMP JUMPDEST PUSH1 0x0 PUSH1 0x60 DUP1 PUSH1 0x0 DUP5 MLOAD PUSH8 0xFFFFFFFFFFFFFFFF DUP2 GT ISZERO PUSH2 0x32F JUMPI PUSH2 0x32E PUSH2 0x524 JUMP JUMPDEST JUMPDEST PUSH1 0x40 MLOAD SWAP1 DUP1 DUP3 MSTORE DUP1 PUSH1 0x20 MUL PUSH1 0x20 ADD DUP3 ADD PUSH1 0x40 MSTORE DUP1 ISZERO PUSH2 0x35D JUMPI DUP2 PUSH1 0x20 ADD PUSH1 0x20 DUP3 MUL DUP1 CALLDATASIZE DUP4 CALLDATACOPY DUP1 DUP3 ADD SWAP2 POP POP SWAP1 POP JUMPDEST POP SWAP1 POP PUSH2 0x369 DUP6 PUSH2 0x148 JUMP JUMPDEST SWAP1 POP PUSH1 0x0 DUP2 MLOAD PUSH8 0xFFFFFFFFFFFFFFFF DUP2 GT ISZERO PUSH2 0x388 JUMPI PUSH2 0x387 PUSH2 0x524 JUMP JUMPDEST JUMPDEST PUSH1 0x40 MLOAD SWAP1 DUP1 DUP3 MSTORE DUP1 PUSH1 0x20 MUL PUSH1 0x20 ADD DUP3 ADD PUSH1 0x40 MSTORE DUP1 ISZERO PUSH2 0x3BB JUMPI DUP2 PUSH1 0x20 ADD JUMPDEST PUSH1 0x60 DUP2 MSTORE PUSH1 0x20 ADD SWAP1 PUSH1 0x1 SWAP1 SUB SWAP1 DUP2 PUSH2 0x3A6 JUMPI SWAP1 POP JUMPDEST POP SWAP1 POP PUSH1 0x0 JUMPDEST DUP2 MLOAD DUP2 LT ISZERO PUSH2 0x435 JUMPI DUP3 DUP2 DUP2 MLOAD DUP2 LT PUSH2 0x3DD JUMPI PUSH2 0x3DC PUSH2 0xD41 JUMP JUMPDEST JUMPDEST PUSH1 0x20 MUL PUSH1 0x20 ADD ADD MLOAD PUSH1 0x40 MLOAD PUSH1 0x20 ADD PUSH2 0x3F5 SWAP2 SWAP1 PUSH2 0xE4B JUMP JUMPDEST PUSH1 0x40 MLOAD PUSH1 0x20 DUP2 DUP4 SUB SUB DUP2 MSTORE SWAP1 PUSH1 0x40 MSTORE DUP3 DUP3 DUP2 MLOAD DUP2 LT PUSH2 0x417 JUMPI PUSH2 0x416 PUSH2 0xD41 JUMP JUMPDEST JUMPDEST PUSH1 0x20 MUL PUSH1 0x20 ADD ADD DUP2 SWAP1 MSTORE POP DUP1 DUP1 PUSH2 0x42D SWAP1 PUSH2 0xCF9 JUMP JUMPDEST SWAP2 POP POP PUSH2 0x3C1 JUMP JUMPDEST POP DUP1 MLOAD DUP2 DUP4 PUSH1 0x40 MLOAD PUSH1 0x20 ADD PUSH2 0x44A SWAP2 SWAP1 PUSH2 0xEF6 JUMP JUMPDEST PUSH1 0x40 MLOAD PUSH1 0x20 DUP2 DUP4 SUB SUB DUP2 MSTORE SWAP1 PUSH1 0x40 MSTORE SWAP5 POP SWAP5 POP SWAP5 POP POP POP SWAP2 SWAP4 SWAP1 SWAP3 POP JUMP JUMPDEST PUSH1 0x0 PUSH1 0x40 MLOAD SWAP1 POP SWAP1 JUMP JUMPDEST PUSH1 0x0 DUP1 REVERT JUMPDEST PUSH1 0x0 DUP1 REVERT JUMPDEST PUSH1 0x0 DUP2 SWAP1 POP SWAP2 SWAP1 POP JUMP JUMPDEST PUSH2 0x48F DUP2 PUSH2 0x47C JUMP JUMPDEST DUP2 EQ PUSH2 0x49A JUMPI PUSH1 0x0 DUP1 REVERT JUMPDEST POP JUMP JUMPDEST PUSH1 0x0 DUP2 CALLDATALOAD SWAP1 POP PUSH2 0x4AC DUP2 PUSH2 0x486 JUMP JUMPDEST SWAP3 SWAP2 POP POP JUMP JUMPDEST PUSH1 0x0 PUSH1 0x20 DUP3 DUP5 SUB SLT ISZERO PUSH2 0x4C8 JUMPI PUSH2 0x4C7 PUSH2 0x472 JUMP JUMPDEST JUMPDEST PUSH1 0x0 PUSH2 0x4D6 DUP5 DUP3 DUP6 ADD PUSH2 0x49D JUMP JUMPDEST SWAP2 POP POP SWAP3 SWAP2 POP POP JUMP JUMPDEST PUSH2 0x4E8 DUP2 PUSH2 0x47C JUMP JUMPDEST DUP3 MSTORE POP POP JUMP JUMPDEST PUSH1 0x0 PUSH1 0x20 DUP3 ADD SWAP1 POP PUSH2 0x503 PUSH1 0x0 DUP4 ADD DUP5 PUSH2 0x4DF JUMP JUMPDEST SWAP3 SWAP2 POP POP JUMP JUMPDEST PUSH1 0x0 DUP1 REVERT JUMPDEST PUSH1 0x0 DUP1 REVERT JUMPDEST PUSH1 0x0 PUSH1 0x1F NOT PUSH1 0x1F DUP4 ADD AND SWAP1 POP SWAP2 SWAP1 POP JUMP JUMPDEST PUSH32 0x4E487B7100000000000000000000000000000000000000000000000000000000 PUSH1 0x0 MSTORE PUSH1 0x41 PUSH1 0x4 MSTORE PUSH1 0x24 PUSH1 0x0 REVERT JUMPDEST PUSH2 0x55C DUP3 PUSH2 0x513 JUMP JUMPDEST DUP2 ADD DUP2 DUP2 LT PUSH8 0xFFFFFFFFFFFFFFFF DUP3 GT OR ISZERO PUSH2 0x57B JUMPI PUSH2 0x57A PUSH2 0x524 JUMP JUMPDEST JUMPDEST DUP1 PUSH1 0x40 MSTORE POP POP POP JUMP JUMPDEST PUSH1 0x0 PUSH2 0x58E PUSH2 0x468 JUMP JUMPDEST SWAP1 POP PUSH2 0x59A DUP3 DUP3 PUSH2 0x553 JUMP JUMPDEST SWAP2 SWAP1 POP JUMP JUMPDEST PUSH1 0x0 PUSH8 0xFFFFFFFFFFFFFFFF DUP3 GT ISZERO PUSH2 0x5BA JUMPI PUSH2 0x5B9 PUSH2 0x524 JUMP JUMPDEST JUMPDEST PUSH2 0x5C3 DUP3 PUSH2 0x513 JUMP JUMPDEST SWAP1 POP PUSH1 0x20 DUP2 ADD SWAP1 POP SWAP2 SWAP1 POP JUMP JUMPDEST DUP3 DUP2 DUP4 CALLDATACOPY PUSH1 0x0 DUP4 DUP4 ADD MSTORE POP POP POP JUMP JUMPDEST PUSH1 0x0 PUSH2 0x5F2 PUSH2 0x5ED DUP5 PUSH2 0x59F JUMP JUMPDEST PUSH2 0x584 JUMP JUMPDEST SWAP1 POP DUP3 DUP2 MSTORE PUSH1 0x20 DUP2 ADD DUP5 DUP5 DUP5 ADD GT ISZERO PUSH2 0x60E JUMPI PUSH2 0x60D PUSH2 0x50E JUMP JUMPDEST JUMPDEST PUSH2 0x619 DUP5 DUP3 DUP6 PUSH2 0x5D0 JUMP JUMPDEST POP SWAP4 SWAP3 POP POP POP JUMP JUMPDEST PUSH1 0x0 DUP3 PUSH1 0x1F DUP4 ADD SLT PUSH2 0x636 JUMPI PUSH2 0x635 PUSH2 0x509 JUMP JUMPDEST JUMPDEST DUP2 CALLDATALOAD PUSH2 0x646 DUP5 DUP3 PUSH1 0x20 DUP7 ADD PUSH2 0x5DF JUMP JUMPDEST SWAP2 POP POP SWAP3 SWAP2 POP POP JUMP JUMPDEST PUSH1 0x0 PUSH1 0x20 DUP3 DUP5 SUB SLT ISZERO PUSH2 0x665 JUMPI PUSH2 0x664 PUSH2 0x472 JUMP JUMPDEST JUMPDEST PUSH1 0x0 DUP3 ADD CALLDATALOAD PUSH8 0xFFFFFFFFFFFFFFFF DUP2 GT ISZERO PUSH2 0x683 JUMPI PUSH2 0x682 PUSH2 0x477 JUMP JUMPDEST JUMPDEST PUSH2 0x68F DUP5 DUP3 DUP6 ADD PUSH2 0x621 JUMP JUMPDEST SWAP2 POP POP SWAP3 SWAP2 POP POP JUMP JUMPDEST PUSH1 0x0 DUP2 MLOAD SWAP1 POP SWAP2 SWAP1 POP JUMP JUMPDEST PUSH1 0x0 DUP3 DUP3 MSTORE PUSH1 0x20 DUP3 ADD SWAP1 POP SWAP3 SWAP2 POP POP JUMP JUMPDEST PUSH1 0x0 DUP2 SWAP1 POP PUSH1 0x20 DUP3 ADD SWAP1 POP SWAP2 SWAP1 POP JUMP JUMPDEST PUSH1 0x0 PUSH32 0xFF00000000000000000000000000000000000000000000000000000000000000 DUP3 AND SWAP1 POP SWAP2 SWAP1 POP JUMP JUMPDEST PUSH2 0x6F9 DUP2 PUSH2 0x6C4 JUMP JUMPDEST DUP3 MSTORE POP POP JUMP JUMPDEST PUSH1 0x0 PUSH2 0x70B DUP4 DUP4 PUSH2 0x6F0 JUMP JUMPDEST PUSH1 0x20 DUP4 ADD SWAP1 POP SWAP3 SWAP2 POP POP JUMP JUMPDEST PUSH1 0x0 PUSH1 0x20 DUP3 ADD SWAP1 POP SWAP2 SWAP1 POP JUMP JUMPDEST PUSH1 0x0 PUSH2 0x72F DUP3 PUSH2 0x698 JUMP JUMPDEST PUSH2 0x739 DUP2 DUP6 PUSH2 0x6A3 JUMP JUMPDEST SWAP4 POP PUSH2 0x744 DUP4 PUSH2 0x6B4 JUMP JUMPDEST DUP1 PUSH1 0x0 JUMPDEST DUP4 DUP2 LT ISZERO PUSH2 0x775 JUMPI DUP2 MLOAD PUSH2 0x75C DUP9 DUP3 PUSH2 0x6FF JUMP JUMPDEST SWAP8 POP PUSH2 0x767 DUP4 PUSH2 0x717 JUMP JUMPDEST SWAP3 POP POP PUSH1 0x1 DUP2 ADD SWAP1 POP PUSH2 0x748 JUMP JUMPDEST POP DUP6 SWAP4 POP POP POP POP SWAP3 SWAP2 POP POP JUMP JUMPDEST PUSH1 0x0 PUSH1 0x20 DUP3 ADD SWAP1 POP DUP2 DUP2 SUB PUSH1 0x0 DUP4 ADD MSTORE PUSH2 0x79C DUP2 DUP5 PUSH2 0x724 JUMP JUMPDEST SWAP1 POP SWAP3 SWAP2 POP POP JUMP JUMPDEST PUSH1 0x0 DUP2 MLOAD SWAP1 POP SWAP2 SWAP1 POP JUMP JUMPDEST PUSH1 0x0 DUP3 DUP3 MSTORE PUSH1 0x20 DUP3 ADD SWAP1 POP SWAP3 SWAP2 POP POP JUMP JUMPDEST PUSH1 0x0 DUP2 SWAP1 POP PUSH1 0x20 DUP3 ADD SWAP1 POP SWAP2 SWAP1 POP JUMP JUMPDEST PUSH2 0x7D9 DUP2 PUSH2 0x47C JUMP JUMPDEST DUP3 MSTORE POP POP JUMP JUMPDEST PUSH1 0x0 PUSH2 0x7EB DUP4 DUP4 PUSH2 0x7D0 JUMP JUMPDEST PUSH1 0x20 DUP4 ADD SWAP1 POP SWAP3 SWAP2 POP POP JUMP JUMPDEST PUSH1 0x0 PUSH1 0x20 DUP3 ADD SWAP1 POP SWAP2 SWAP1 POP JUMP JUMPDEST PUSH1 0x0 PUSH2 0x80F DUP3 PUSH2 0x7A4 JUMP JUMPDEST PUSH2 0x819 DUP2 DUP6 PUSH2 0x7AF JUMP JUMPDEST SWAP4 POP PUSH2 0x824 DUP4 PUSH2 0x7C0 JUMP JUMPDEST DUP1 PUSH1 0x0 JUMPDEST DUP4 DUP2 LT ISZERO PUSH2 0x855 JUMPI DUP2 MLOAD PUSH2 0x83C DUP9 DUP3 PUSH2 0x7DF JUMP JUMPDEST SWAP8 POP PUSH2 0x847 DUP4 PUSH2 0x7F7 JUMP JUMPDEST SWAP3 POP POP PUSH1 0x1 DUP2 ADD SWAP1 POP PUSH2 0x828 JUMP JUMPDEST POP DUP6 SWAP4 POP POP POP POP SWAP3 SWAP2 POP POP JUMP JUMPDEST PUSH1 0x0 PUSH1 0x40 DUP3 ADD SWAP1 POP PUSH2 0x877 PUSH1 0x0 DUP4 ADD DUP6 PUSH2 0x4DF JUMP JUMPDEST DUP2 DUP2 SUB PUSH1 0x20 DUP4 ADD MSTORE PUSH2 0x889 DUP2 DUP5 PUSH2 0x804 JUMP JUMPDEST SWAP1 POP SWAP4 SWAP3 POP POP POP JUMP JUMPDEST PUSH1 0x0 PUSH8 0xFFFFFFFFFFFFFFFF DUP3 GT ISZERO PUSH2 0x8AD JUMPI PUSH2 0x8AC PUSH2 0x524 JUMP JUMPDEST JUMPDEST PUSH2 0x8B6 DUP3 PUSH2 0x513 JUMP JUMPDEST SWAP1 POP PUSH1 0x20 DUP2 ADD SWAP1 POP SWAP2 SWAP1 POP JUMP JUMPDEST PUSH1 0x0 PUSH2 0x8D6 PUSH2 0x8D1 DUP5 PUSH2 0x892 JUMP JUMPDEST PUSH2 0x584 JUMP JUMPDEST SWAP1 POP DUP3 DUP2 MSTORE PUSH1 0x20 DUP2 ADD DUP5 DUP5 DUP5 ADD GT ISZERO PUSH2 0x8F2 JUMPI PUSH2 0x8F1 PUSH2 0x50E JUMP JUMPDEST JUMPDEST PUSH2 0x8FD DUP5 DUP3 DUP6 PUSH2 0x5D0 JUMP JUMPDEST POP SWAP4 SWAP3 POP POP POP JUMP JUMPDEST PUSH1 0x0 DUP3 PUSH1 0x1F DUP4 ADD SLT PUSH2 0x91A JUMPI PUSH2 0x919 PUSH2 0x509 JUMP JUMPDEST JUMPDEST DUP2 CALLDATALOAD PUSH2 0x92A DUP5 DUP3 PUSH1 0x20 DUP7 ADD PUSH2 0x8C3 JUMP JUMPDEST SWAP2 POP POP SWAP3 SWAP2 POP POP JUMP JUMPDEST PUSH1 0x0 PUSH1 0x20 DUP3 DUP5 SUB SLT ISZERO PUSH2 0x949 JUMPI PUSH2 0x948 PUSH2 0x472 JUMP JUMPDEST JUMPDEST PUSH1 0x0 DUP3 ADD CALLDATALOAD PUSH8 0xFFFFFFFFFFFFFFFF DUP2 GT ISZERO PUSH2 0x967 JUMPI PUSH2 0x966 PUSH2 0x477 JUMP JUMPDEST JUMPDEST PUSH2 0x973 DUP5 DUP3 DUP6 ADD PUSH2 0x905 JUMP JUMPDEST SWAP2 POP POP SWAP3 SWAP2 POP POP JUMP JUMPDEST PUSH1 0x0 DUP2 MLOAD SWAP1 POP SWAP2 SWAP1 POP JUMP JUMPDEST PUSH1 0x0 DUP3 DUP3 MSTORE PUSH1 0x20 DUP3 ADD SWAP1 POP SWAP3 SWAP2 POP POP JUMP JUMPDEST PUSH1 0x0 DUP2 SWAP1 POP PUSH1 0x20 DUP3 ADD SWAP1 POP SWAP2 SWAP1 POP JUMP JUMPDEST PUSH1 0x0 DUP2 MLOAD SWAP1 POP SWAP2 SWAP1 POP JUMP JUMPDEST PUSH1 0x0 DUP3 DUP3 MSTORE PUSH1 0x20 DUP3 ADD SWAP1 POP SWAP3 SWAP2 POP POP JUMP JUMPDEST PUSH1 0x0 JUMPDEST DUP4 DUP2 LT ISZERO PUSH2 0x9E2 JUMPI DUP1 DUP3 ADD MLOAD DUP2 DUP5 ADD MSTORE PUSH1 0x20 DUP2 ADD SWAP1 POP PUSH2 0x9C7 JUMP JUMPDEST PUSH1 0x0 DUP5 DUP5 ADD MSTORE POP POP POP POP JUMP JUMPDEST PUSH1 0x0 PUSH2 0x9F9 DUP3 PUSH2 0x9A8 JUMP JUMPDEST PUSH2 0xA03 DUP2 DUP6 PUSH2 0x9B3 JUMP JUMPDEST SWAP4 POP PUSH2 0xA13 DUP2 DUP6 PUSH1 0x20 DUP7 ADD PUSH2 0x9C4 JUMP JUMPDEST PUSH2 0xA1C DUP2 PUSH2 0x513 JUMP JUMPDEST DUP5 ADD SWAP2 POP POP SWAP3 SWAP2 POP POP JUMP JUMPDEST PUSH1 0x0 PUSH2 0xA33 DUP4 DUP4 PUSH2 0x9EE JUMP JUMPDEST SWAP1 POP SWAP3 SWAP2 POP POP JUMP JUMPDEST PUSH1 0x0 PUSH1 0x20 DUP3 ADD SWAP1 POP SWAP2 SWAP1 POP JUMP JUMPDEST PUSH1 0x0 PUSH2 0xA53 DUP3 PUSH2 0x97C JUMP JUMPDEST PUSH2 0xA5D DUP2 DUP6 PUSH2 0x987 JUMP JUMPDEST SWAP4 POP DUP4 PUSH1 0x20 DUP3 MUL DUP6 ADD PUSH2 0xA6F DUP6 PUSH2 0x998 JUMP JUMPDEST DUP1 PUSH1 0x0 JUMPDEST DUP6 DUP2 LT ISZERO PUSH2 0xAAB JUMPI DUP5 DUP5 SUB DUP10 MSTORE DUP2 MLOAD PUSH2 0xA8C DUP6 DUP3 PUSH2 0xA27 JUMP JUMPDEST SWAP5 POP PUSH2 0xA97 DUP4 PUSH2 0xA3B JUMP JUMPDEST SWAP3 POP PUSH1 0x20 DUP11 ADD SWAP10 POP POP PUSH1 0x1 DUP2 ADD SWAP1 POP PUSH2 0xA73 JUMP JUMPDEST POP DUP3 SWAP8 POP DUP8 SWAP6 POP POP POP POP POP POP SWAP3 SWAP2 POP POP JUMP JUMPDEST PUSH1 0x0 DUP3 DUP3 MSTORE PUSH1 0x20 DUP3 ADD SWAP1 POP SWAP3 SWAP2 POP POP JUMP JUMPDEST PUSH1 0x0 PUSH2 0xAD9 DUP3 PUSH2 0x9A8 JUMP JUMPDEST PUSH2 0xAE3 DUP2 DUP6 PUSH2 0xABD JUMP JUMPDEST SWAP4 POP PUSH2 0xAF3 DUP2 DUP6 PUSH1 0x20 DUP7 ADD PUSH2 0x9C4 JUMP JUMPDEST PUSH2 0xAFC DUP2 PUSH2 0x513 JUMP JUMPDEST DUP5 ADD SWAP2 POP POP SWAP3 SWAP2 POP POP JUMP JUMPDEST PUSH1 0x0 PUSH1 0x60 DUP3 ADD SWAP1 POP PUSH2 0xB1C PUSH1 0x0 DUP4 ADD DUP7 PUSH2 0x4DF JUMP JUMPDEST DUP2 DUP2 SUB PUSH1 0x20 DUP4 ADD MSTORE PUSH2 0xB2E DUP2 DUP6 PUSH2 0xA48 JUMP JUMPDEST SWAP1 POP DUP2 DUP2 SUB PUSH1 0x40 DUP4 ADD MSTORE PUSH2 0xB42 DUP2 DUP5 PUSH2 0xACE JUMP JUMPDEST SWAP1 POP SWAP5 SWAP4 POP POP POP POP JUMP JUMPDEST PUSH32 0x4E487B7100000000000000000000000000000000000000000000000000000000 PUSH1 0x0 MSTORE PUSH1 0x11 PUSH1 0x4 MSTORE PUSH1 0x24 PUSH1 0x0 REVERT JUMPDEST PUSH1 0x0 DUP2 PUSH1 0x1 SHR SWAP1 POP SWAP2 SWAP1 POP JUMP JUMPDEST PUSH1 0x0 DUP1 DUP3 SWAP2 POP DUP4 SWAP1 POP JUMPDEST PUSH1 0x1 DUP6 GT ISZERO PUSH2 0xBD2 JUMPI DUP1 DUP7 DIV DUP2 GT ISZERO PUSH2 0xBAE JUMPI PUSH2 0xBAD PUSH2 0xB4C JUMP JUMPDEST JUMPDEST PUSH1 0x1 DUP6 AND ISZERO PUSH2 0xBBD JUMPI DUP1 DUP3 MUL SWAP2 POP JUMPDEST DUP1 DUP2 MUL SWAP1 POP PUSH2 0xBCB DUP6 PUSH2 0xB7B JUMP JUMPDEST SWAP5 POP PUSH2 0xB92 JUMP JUMPDEST SWAP5 POP SWAP5 SWAP3 POP POP POP JUMP JUMPDEST PUSH1 0x0 DUP3 PUSH2 0xBEB JUMPI PUSH1 0x1 SWAP1 POP PUSH2 0xCA7 JUMP JUMPDEST DUP2 PUSH2 0xBF9 JUMPI PUSH1 0x0 SWAP1 POP PUSH2 0xCA7 JUMP JUMPDEST DUP2 PUSH1 0x1 DUP2 EQ PUSH2 0xC0F JUMPI PUSH1 0x2 DUP2 EQ PUSH2 0xC19 JUMPI PUSH2 0xC48 JUMP JUMPDEST PUSH1 0x1 SWAP2 POP POP PUSH2 0xCA7 JUMP JUMPDEST PUSH1 0xFF DUP5 GT ISZERO PUSH2 0xC2B JUMPI PUSH2 0xC2A PUSH2 0xB4C JUMP JUMPDEST JUMPDEST DUP4 PUSH1 0x2 EXP SWAP2 POP DUP5 DUP3 GT ISZERO PUSH2 0xC42 JUMPI PUSH2 0xC41 PUSH2 0xB4C JUMP JUMPDEST JUMPDEST POP PUSH2 0xCA7 JUMP JUMPDEST POP PUSH1 0x20 DUP4 LT PUSH2 0x133 DUP4 LT AND PUSH1 0x4E DUP5 LT PUSH1 0xB DUP5 LT AND OR ISZERO PUSH2 0xC7D JUMPI DUP3 DUP3 EXP SWAP1 POP DUP4 DUP2 GT ISZERO PUSH2 0xC78 JUMPI PUSH2 0xC77 PUSH2 0xB4C JUMP JUMPDEST JUMPDEST PUSH2 0xCA7 JUMP JUMPDEST PUSH2 0xC8A DUP5 DUP5 DUP5 PUSH1 0x1 PUSH2 0xB88 JUMP JUMPDEST SWAP3 POP SWAP1 POP DUP2 DUP5 DIV DUP2 GT ISZERO PUSH2 0xCA1 JUMPI PUSH2 0xCA0 PUSH2 0xB4C JUMP JUMPDEST JUMPDEST DUP2 DUP2 MUL SWAP1 POP JUMPDEST SWAP4 SWAP3 POP POP POP JUMP JUMPDEST PUSH1 0x0 PUSH2 0xCB9 DUP3 PUSH2 0x47C JUMP JUMPDEST SWAP2 POP PUSH2 0xCC4 DUP4 PUSH2 0x47C JUMP JUMPDEST SWAP3 POP PUSH2 0xCF1 PUSH32 0xFFFFFFFFFFFFFFFFFFFFFFFFFFFFFFFFFFFFFFFFFFFFFFFFFFFFFFFFFFFFFFFF DUP5 DUP5 PUSH2 0xBDB JUMP JUMPDEST SWAP1 POP SWAP3 SWAP2 POP POP JUMP JUMPDEST PUSH1 0x0 PUSH2 0xD04 DUP3 PUSH2 0x47C JUMP JUMPDEST SWAP2 POP PUSH32 0xFFFFFFFFFFFFFFFFFFFFFFFFFFFFFFFFFFFFFFFFFFFFFFFFFFFFFFFFFFFFFFFF DUP3 SUB PUSH2 0xD36 JUMPI PUSH2 0xD35 PUSH2 0xB4C JUMP JUMPDEST JUMPDEST PUSH1 0x1 DUP3 ADD SWAP1 POP SWAP2 SWAP1 POP JUMP JUMPDEST PUSH32 0x4E487B7100000000000000000000000000000000000000000000000000000000 PUSH1 0x0 MSTORE PUSH1 0x32 PUSH1 0x4 MSTORE PUSH1 0x24 PUSH1 0x0 REVERT JUMPDEST PUSH32 0x4E487B7100000000000000000000000000000000000000000000000000000000 PUSH1 0x0 MSTORE PUSH1 0x12 PUSH1 0x4 MSTORE PUSH1 0x24 PUSH1 0x0 REVERT JUMPDEST PUSH1 0x0 PUSH2 0xDAA DUP3 PUSH2 0x47C JUMP JUMPDEST SWAP2 POP PUSH2 0xDB5 DUP4 PUSH2 0x47C JUMP JUMPDEST SWAP3 POP DUP3 PUSH2 0xDC5 JUMPI PUSH2 0xDC4 PUSH2 0xD70 JUMP JUMPDEST JUMPDEST DUP3 DUP3 MOD SWAP1 POP SWAP3 SWAP2 POP POP JUMP JUMPDEST PUSH1 0x0 PUSH2 0xDDB DUP3 PUSH2 0x47C JUMP JUMPDEST SWAP2 POP PUSH1 0x0 DUP3 SUB PUSH2 0xDEE JUMPI PUSH2 0xDED PUSH2 0xB4C JUMP JUMPDEST JUMPDEST PUSH1 0x1 DUP3 SUB SWAP1 POP SWAP2 SWAP1 POP JUMP JUMPDEST PUSH1 0x0 PUSH2 0xE04 DUP3 PUSH2 0x47C JUMP JUMPDEST SWAP2 POP PUSH2 0xE0F DUP4 PUSH2 0x47C JUMP JUMPDEST SWAP3 POP DUP3 PUSH2 0xE1F JUMPI PUSH2 0xE1E PUSH2 0xD70 JUMP JUMPDEST JUMPDEST DUP3 DUP3 DIV SWAP1 POP SWAP3 SWAP2 POP POP JUMP JUMPDEST PUSH1 0x0 DUP2 SWAP1 POP SWAP2 SWAP1 POP JUMP JUMPDEST PUSH2 0xE45 PUSH2 0xE40 DUP3 PUSH2 0x6C4 JUMP JUMPDEST PUSH2 0xE2A JUMP JUMPDEST DUP3 MSTORE POP POP JUMP JUMPDEST PUSH1 0x0 PUSH2 0xE57 DUP3 DUP5 PUSH2 0xE34 JUMP JUMPDEST PUSH1 0x1 DUP3 ADD SWAP2 POP DUP2 SWAP1 POP SWAP3 SWAP2 POP POP JUMP JUMPDEST PUSH1 0x0 DUP2 SWAP1 POP SWAP3 SWAP2 POP POP JUMP JUMPDEST PUSH2 0xE7A DUP2 PUSH2 0x6C4 JUMP JUMPDEST DUP3 MSTORE POP POP JUMP JUMPDEST PUSH1 0x0 PUSH2 0xE8C DUP4 DUP4 PUSH2 0xE71 JUMP JUMPDEST PUSH1 0x20 DUP4 ADD SWAP1 POP SWAP3 SWAP2 POP POP JUMP JUMPDEST PUSH1 0x0 PUSH2 0xEA3 DUP3 PUSH2 0x698 JUMP JUMPDEST PUSH2 0xEAD DUP2 DUP6 PUSH2 0xE66 JUMP JUMPDEST SWAP4 POP PUSH2 0xEB8 DUP4 PUSH2 0x6B4 JUMP JUMPDEST DUP1 PUSH1 0x0 JUMPDEST DUP4 DUP2 LT ISZERO PUSH2 0xEE9 JUMPI DUP2 MLOAD PUSH2 0xED0 DUP9 DUP3 PUSH2 0xE80 JUMP JUMPDEST SWAP8 POP PUSH2 0xEDB DUP4 PUSH2 0x717 JUMP JUMPDEST SWAP3 POP POP PUSH1 0x1 DUP2 ADD SWAP1 POP PUSH2 0xEBC JUMP JUMPDEST POP DUP6 SWAP4 POP POP POP POP SWAP3 SWAP2 POP POP JUMP JUMPDEST PUSH1 0x0 PUSH2 0xF02 DUP3 DUP5 PUSH2 0xE98 JUMP JUMPDEST SWAP2 POP DUP2 SWAP1 POP SWAP3 SWAP2 POP POP JUMP INVALID LOG2 PUSH5 0x6970667358 0x22 SLT KECCAK256 SWAP2 0x4D 0xC3 BLOCKHASH KECCAK256 0x28 0xAE TIMESTAMP ORIGIN REVERT 0xC 0xD9 PUSH27 0xD5D9A22F7373882A81E2BE4FD6AA5A61C4622364736F6C63430008 SLT STOP CALLER "
				},
				"gasEstimates": {
					"creation": {
						"codeDepositCost": "781400",
						"executionCost": "818",
						"totalCost": "782218"
					},
					"external": {
						"bytestoBytes1Array(bytes)": "infinite",
						"divideNumber(uint256)": "infinite",
						"getLength(uint256)": "infinite",
						"stringToBytes1Array(string)": "infinite"
					}
				},
				"methodIdentifiers": {
					"bytestoBytes1Array(bytes)": "0b6d1fbf",
					"divideNumber(uint256)": "2ac45d9c",
					"getLength(uint256)": "0986e647",
					"stringToBytes1Array(string)": "68836ddd"
				}
			},
			"storageLayout": {
				"storage": [],
				"types": null
			},
			"userdoc": {
				"kind": "user",
				"methods": {},
				"version": 1
			}
		}
	}
}