{
	"contracts-test/230516-test1.sol": {
		"QUIZ4": {
			"abi": [
				{
					"inputs": [],
					"stateMutability": "nonpayable",
					"type": "constructor"
				},
				{
					"inputs": [
						{
							"internalType": "string",
							"name": "_name",
							"type": "string"
						}
					],
					"name": "exchange",
					"outputs": [],
					"stateMutability": "nonpayable",
					"type": "function"
				},
				{
					"inputs": [],
					"name": "getRoom",
					"outputs": [
						{
							"internalType": "string[4]",
							"name": "",
							"type": "string[4]"
						}
					],
					"stateMutability": "view",
					"type": "function"
				},
				{
					"inputs": [],
					"name": "getUser",
					"outputs": [
						{
							"components": [
								{
									"internalType": "uint256",
									"name": "number",
									"type": "uint256"
								},
								{
									"internalType": "string",
									"name": "name",
									"type": "string"
								},
								{
									"internalType": "address payable",
									"name": "Address",
									"type": "address"
								},
								{
									"internalType": "uint256",
									"name": "balance",
									"type": "uint256"
								},
								{
									"internalType": "uint256",
									"name": "score",
									"type": "uint256"
								}
							],
							"internalType": "struct QUIZ4.User[]",
							"name": "",
							"type": "tuple[]"
						}
					],
					"stateMutability": "view",
					"type": "function"
				},
				{
					"inputs": [],
					"name": "join",
					"outputs": [
						{
							"internalType": "uint256",
							"name": "",
							"type": "uint256"
						}
					],
					"stateMutability": "payable",
					"type": "function"
				},
				{
					"inputs": [
						{
							"internalType": "string",
							"name": "_name",
							"type": "string"
						}
					],
					"name": "joinToGame",
					"outputs": [],
					"stateMutability": "payable",
					"type": "function"
				},
				{
					"inputs": [
						{
							"internalType": "string",
							"name": "_name",
							"type": "string"
						}
					],
					"name": "register",
					"outputs": [],
					"stateMutability": "nonpayable",
					"type": "function"
				}
			],
			"devdoc": {
				"kind": "dev",
				"methods": {},
				"version": 1
			},
			"evm": {
				"assembly": "    /* \"contracts-test/230516-test1.sol\":63:2464  contract QUIZ4 {... */\n  mstore(0x40, 0x80)\n    /* \"contracts-test/230516-test1.sol\":479:630  constructor() {... */\n  callvalue\n  dup1\n  iszero\n  tag_1\n  jumpi\n  0x00\n  dup1\n  revert\ntag_1:\n  pop\n    /* \"contracts-test/230516-test1.sol\":526:568  0x5B38Da6a701c568545dCfcB03FcB875f56beddC4 */\n  0x5b38da6a701c568545dcfcb03fcb875f56beddc4\n    /* \"contracts-test/230516-test1.sol\":512:568  msg.sender == 0x5B38Da6a701c568545dCfcB03FcB875f56beddC4 */\n  0xffffffffffffffffffffffffffffffffffffffff\n  and\n    /* \"contracts-test/230516-test1.sol\":512:522  msg.sender */\n  caller\n    /* \"contracts-test/230516-test1.sol\":512:568  msg.sender == 0x5B38Da6a701c568545dCfcB03FcB875f56beddC4 */\n  0xffffffffffffffffffffffffffffffffffffffff\n  and\n  eq\n    /* \"contracts-test/230516-test1.sol\":503:595  require (msg.sender == 0x5B38Da6a701c568545dCfcB03FcB875f56beddC4, \"only owner can deploy.\") */\n  tag_4\n  jumpi\n  mload(0x40)\n  0x08c379a000000000000000000000000000000000000000000000000000000000\n  dup2\n  mstore\n  0x04\n  add\n  tag_5\n  swap1\n  tag_6\n  jump\t// in\ntag_5:\n  mload(0x40)\n  dup1\n  swap2\n  sub\n  swap1\n  revert\ntag_4:\n    /* \"contracts-test/230516-test1.sol\":613:623  msg.sender */\n  caller\n    /* \"contracts-test/230516-test1.sol\":605:610  owner */\n  0x02\n  0x00\n    /* \"contracts-test/230516-test1.sol\":605:623  owner = msg.sender */\n  0x0100\n  exp\n  dup2\n  sload\n  dup2\n  0xffffffffffffffffffffffffffffffffffffffff\n  mul\n  not\n  and\n  swap1\n  dup4\n  0xffffffffffffffffffffffffffffffffffffffff\n  and\n  mul\n  or\n  swap1\n  sstore\n  pop\n    /* \"contracts-test/230516-test1.sol\":63:2464  contract QUIZ4 {... */\n  jump(tag_7)\n    /* \"#utility.yul\":7:176   */\ntag_8:\n    /* \"#utility.yul\":91:102   */\n  0x00\n    /* \"#utility.yul\":125:131   */\n  dup3\n    /* \"#utility.yul\":120:123   */\n  dup3\n    /* \"#utility.yul\":113:132   */\n  mstore\n    /* \"#utility.yul\":165:169   */\n  0x20\n    /* \"#utility.yul\":160:163   */\n  dup3\n    /* \"#utility.yul\":156:170   */\n  add\n    /* \"#utility.yul\":141:170   */\n  swap1\n  pop\n    /* \"#utility.yul\":7:176   */\n  swap3\n  swap2\n  pop\n  pop\n  jump\t// out\n    /* \"#utility.yul\":182:354   */\ntag_9:\n    /* \"#utility.yul\":322:346   */\n  0x6f6e6c79206f776e65722063616e206465706c6f792e00000000000000000000\n    /* \"#utility.yul\":318:319   */\n  0x00\n    /* \"#utility.yul\":310:316   */\n  dup3\n    /* \"#utility.yul\":306:320   */\n  add\n    /* \"#utility.yul\":299:347   */\n  mstore\n    /* \"#utility.yul\":182:354   */\n  pop\n  jump\t// out\n    /* \"#utility.yul\":360:726   */\ntag_10:\n    /* \"#utility.yul\":502:505   */\n  0x00\n    /* \"#utility.yul\":523:590   */\n  tag_15\n    /* \"#utility.yul\":587:589   */\n  0x16\n    /* \"#utility.yul\":582:585   */\n  dup4\n    /* \"#utility.yul\":523:590   */\n  tag_8\n  jump\t// in\ntag_15:\n    /* \"#utility.yul\":516:590   */\n  swap2\n  pop\n    /* \"#utility.yul\":599:692   */\n  tag_16\n    /* \"#utility.yul\":688:691   */\n  dup3\n    /* \"#utility.yul\":599:692   */\n  tag_9\n  jump\t// in\ntag_16:\n    /* \"#utility.yul\":717:719   */\n  0x20\n    /* \"#utility.yul\":712:715   */\n  dup3\n    /* \"#utility.yul\":708:720   */\n  add\n    /* \"#utility.yul\":701:720   */\n  swap1\n  pop\n    /* \"#utility.yul\":360:726   */\n  swap2\n  swap1\n  pop\n  jump\t// out\n    /* \"#utility.yul\":732:1151   */\ntag_6:\n    /* \"#utility.yul\":898:902   */\n  0x00\n    /* \"#utility.yul\":936:938   */\n  0x20\n    /* \"#utility.yul\":925:934   */\n  dup3\n    /* \"#utility.yul\":921:939   */\n  add\n    /* \"#utility.yul\":913:939   */\n  swap1\n  pop\n    /* \"#utility.yul\":985:994   */\n  dup2\n    /* \"#utility.yul\":979:983   */\n  dup2\n    /* \"#utility.yul\":975:995   */\n  sub\n    /* \"#utility.yul\":971:972   */\n  0x00\n    /* \"#utility.yul\":960:969   */\n  dup4\n    /* \"#utility.yul\":956:973   */\n  add\n    /* \"#utility.yul\":949:996   */\n  mstore\n    /* \"#utility.yul\":1013:1144   */\n  tag_18\n    /* \"#utility.yul\":1139:1143   */\n  dup2\n    /* \"#utility.yul\":1013:1144   */\n  tag_10\n  jump\t// in\ntag_18:\n    /* \"#utility.yul\":1005:1144   */\n  swap1\n  pop\n    /* \"#utility.yul\":732:1151   */\n  swap2\n  swap1\n  pop\n  jump\t// out\n    /* \"contracts-test/230516-test1.sol\":63:2464  contract QUIZ4 {... */\ntag_7:\n  dataSize(sub_0)\n  dup1\n  dataOffset(sub_0)\n  0x00\n  codecopy\n  0x00\n  return\nstop\n\nsub_0: assembly {\n        /* \"contracts-test/230516-test1.sol\":63:2464  contract QUIZ4 {... */\n      mstore(0x40, 0x80)\n      jumpi(tag_1, lt(calldatasize, 0x04))\n      shr(0xe0, calldataload(0x00))\n      dup1\n      0x0da6a32b\n      eq\n      tag_2\n      jumpi\n      dup1\n      0x6393d416\n      eq\n      tag_3\n      jumpi\n      dup1\n      0x832880e7\n      eq\n      tag_4\n      jumpi\n      dup1\n      0xb688a363\n      eq\n      tag_5\n      jumpi\n      dup1\n      0xd425bff2\n      eq\n      tag_6\n      jumpi\n      dup1\n      0xf2c298be\n      eq\n      tag_7\n      jumpi\n    tag_1:\n      0x00\n      dup1\n      revert\n        /* \"contracts-test/230516-test1.sol\":1619:1704  function getRoom() public view returns(string[4] memory) {... */\n    tag_2:\n      callvalue\n      dup1\n      iszero\n      tag_8\n      jumpi\n      0x00\n      dup1\n      revert\n    tag_8:\n      pop\n      tag_9\n      tag_10\n      jump\t// in\n    tag_9:\n      mload(0x40)\n      tag_11\n      swap2\n      swap1\n      tag_12\n      jump\t// in\n    tag_11:\n      mload(0x40)\n      dup1\n      swap2\n      sub\n      swap1\n      return\n        /* \"contracts-test/230516-test1.sol\":2114:2350  function exchange(string memory _name) public {... */\n    tag_3:\n      callvalue\n      dup1\n      iszero\n      tag_13\n      jumpi\n      0x00\n      dup1\n      revert\n    tag_13:\n      pop\n      tag_14\n      0x04\n      dup1\n      calldatasize\n      sub\n      dup2\n      add\n      swap1\n      tag_15\n      swap2\n      swap1\n      tag_16\n      jump\t// in\n    tag_15:\n      tag_17\n      jump\t// in\n    tag_14:\n      stop\n        /* \"contracts-test/230516-test1.sol\":1530:1613  function getUser() public view returns(User[] memory) {... */\n    tag_4:\n      callvalue\n      dup1\n      iszero\n      tag_18\n      jumpi\n      0x00\n      dup1\n      revert\n    tag_18:\n      pop\n      tag_19\n      tag_20\n      jump\t// in\n    tag_19:\n      mload(0x40)\n      tag_21\n      swap2\n      swap1\n      tag_22\n      jump\t// in\n    tag_21:\n      mload(0x40)\n      dup1\n      swap2\n      sub\n      swap1\n      return\n        /* \"contracts-test/230516-test1.sol\":882:1028  function join() public payable returns(uint) {... */\n    tag_5:\n      tag_23\n      tag_24\n      jump\t// in\n    tag_23:\n      mload(0x40)\n      tag_25\n      swap2\n      swap1\n      tag_26\n      jump\t// in\n    tag_25:\n      mload(0x40)\n      dup1\n      swap2\n      sub\n      swap1\n      return\n        /* \"contracts-test/230516-test1.sol\":1819:2033  function joinToGame(string memory _name) public payable {... */\n    tag_6:\n      tag_27\n      0x04\n      dup1\n      calldatasize\n      sub\n      dup2\n      add\n      swap1\n      tag_28\n      swap2\n      swap1\n      tag_16\n      jump\t// in\n    tag_28:\n      tag_29\n      jump\t// in\n    tag_27:\n      stop\n        /* \"contracts-test/230516-test1.sol\":1189:1429  function register(string memory _name) public {... */\n    tag_7:\n      callvalue\n      dup1\n      iszero\n      tag_30\n      jumpi\n      0x00\n      dup1\n      revert\n    tag_30:\n      pop\n      tag_31\n      0x04\n      dup1\n      calldatasize\n      sub\n      dup2\n      add\n      swap1\n      tag_32\n      swap2\n      swap1\n      tag_16\n      jump\t// in\n    tag_32:\n      tag_33\n      jump\t// in\n    tag_31:\n      stop\n        /* \"contracts-test/230516-test1.sol\":1619:1704  function getRoom() public view returns(string[4] memory) {... */\n    tag_10:\n        /* \"contracts-test/230516-test1.sol\":1658:1674  string[4] memory */\n      tag_34\n      tag_35\n      jump\t// in\n    tag_34:\n        /* \"contracts-test/230516-test1.sol\":1693:1697  room */\n      0x05\n        /* \"contracts-test/230516-test1.sol\":1686:1697  return room */\n      0x04\n      dup1\n      0x20\n      mul\n      mload(0x40)\n      swap1\n      dup2\n      add\n      0x40\n      mstore\n      dup1\n      swap3\n      swap2\n      swap1\n      0x00\n      swap1\n    tag_37:\n      dup3\n      dup3\n      lt\n      iszero\n      tag_38\n      jumpi\n      dup4\n      dup3\n      add\n      dup1\n      sload\n      tag_40\n      swap1\n      tag_41\n      jump\t// in\n    tag_40:\n      dup1\n      0x1f\n      add\n      0x20\n      dup1\n      swap2\n      div\n      mul\n      0x20\n      add\n      mload(0x40)\n      swap1\n      dup2\n      add\n      0x40\n      mstore\n      dup1\n      swap3\n      swap2\n      swap1\n      dup2\n      dup2\n      mstore\n      0x20\n      add\n      dup3\n      dup1\n      sload\n      tag_42\n      swap1\n      tag_41\n      jump\t// in\n    tag_42:\n      dup1\n      iszero\n      tag_43\n      jumpi\n      dup1\n      0x1f\n      lt\n      tag_44\n      jumpi\n      0x0100\n      dup1\n      dup4\n      sload\n      div\n      mul\n      dup4\n      mstore\n      swap2\n      0x20\n      add\n      swap2\n      jump(tag_43)\n    tag_44:\n      dup3\n      add\n      swap2\n      swap1\n      0x00\n      mstore\n      keccak256(0x00, 0x20)\n      swap1\n    tag_45:\n      dup2\n      sload\n      dup2\n      mstore\n      swap1\n      0x01\n      add\n      swap1\n      0x20\n      add\n      dup1\n      dup4\n      gt\n      tag_45\n      jumpi\n      dup3\n      swap1\n      sub\n      0x1f\n      and\n      dup3\n      add\n      swap2\n    tag_43:\n      pop\n      pop\n      pop\n      pop\n      pop\n      dup2\n      mstore\n      0x20\n      add\n      swap1\n      0x01\n      add\n      swap1\n      jump(tag_37)\n    tag_38:\n      pop\n      pop\n      pop\n      pop\n      swap1\n      pop\n        /* \"contracts-test/230516-test1.sol\":1619:1704  function getRoom() public view returns(string[4] memory) {... */\n      swap1\n      jump\t// out\n        /* \"contracts-test/230516-test1.sol\":2114:2350  function exchange(string memory _name) public {... */\n    tag_17:\n        /* \"contracts-test/230516-test1.sol\":2205:2207  10 */\n      0x0a\n        /* \"contracts-test/230516-test1.sol\":2179:2188  User_Name */\n      0x04\n        /* \"contracts-test/230516-test1.sol\":2189:2194  _name */\n      dup3\n        /* \"contracts-test/230516-test1.sol\":2179:2195  User_Name[_name] */\n      mload(0x40)\n      tag_47\n      swap2\n      swap1\n      tag_48\n      jump\t// in\n    tag_47:\n      swap1\n      dup2\n      mstore\n      0x20\n      add\n      mload(0x40)\n      dup1\n      swap2\n      sub\n      swap1\n      keccak256\n        /* \"contracts-test/230516-test1.sol\":2179:2201  User_Name[_name].score */\n      0x04\n      add\n      sload\n        /* \"contracts-test/230516-test1.sol\":2179:2207  User_Name[_name].score >= 10 */\n      lt\n      iszero\n        /* \"contracts-test/230516-test1.sol\":2170:2236  require (User_Name[_name].score >= 10, \"please check your score.\") */\n      tag_49\n      jumpi\n      mload(0x40)\n      0x08c379a000000000000000000000000000000000000000000000000000000000\n      dup2\n      mstore\n      0x04\n      add\n      tag_50\n      swap1\n      tag_51\n      jump\t// in\n    tag_50:\n      mload(0x40)\n      dup1\n      swap2\n      sub\n      swap1\n      revert\n    tag_49:\n        /* \"contracts-test/230516-test1.sol\":2247:2256  User_Name */\n      0x04\n        /* \"contracts-test/230516-test1.sol\":2257:2262  _name */\n      dup2\n        /* \"contracts-test/230516-test1.sol\":2247:2263  User_Name[_name] */\n      mload(0x40)\n      tag_52\n      swap2\n      swap1\n      tag_48\n      jump\t// in\n    tag_52:\n      swap1\n      dup2\n      mstore\n      0x20\n      add\n      mload(0x40)\n      dup1\n      swap2\n      sub\n      swap1\n      keccak256\n        /* \"contracts-test/230516-test1.sol\":2247:2271  User_Name[_name].Address */\n      0x02\n      add\n      0x00\n      swap1\n      sload\n      swap1\n      0x0100\n      exp\n      swap1\n      div\n      0xffffffffffffffffffffffffffffffffffffffff\n      and\n        /* \"contracts-test/230516-test1.sol\":2246:2281  (User_Name[_name].Address).transfer */\n      0xffffffffffffffffffffffffffffffffffffffff\n      and\n        /* \"contracts-test/230516-test1.sol\":2246:2305  (User_Name[_name].Address).transfer(100000000000000000 wei) */\n      0x08fc\n        /* \"contracts-test/230516-test1.sol\":2282:2304  100000000000000000 wei */\n      0x016345785d8a0000\n        /* \"contracts-test/230516-test1.sol\":2246:2305  (User_Name[_name].Address).transfer(100000000000000000 wei) */\n      swap1\n      dup2\n      iszero\n      mul\n      swap1\n      mload(0x40)\n      0x00\n      mload(0x40)\n      dup1\n      dup4\n      sub\n      dup2\n      dup6\n      dup9\n      dup9\n      call\n      swap4\n      pop\n      pop\n      pop\n      pop\n      iszero\n      dup1\n      iszero\n      tag_54\n      jumpi\n      returndatasize\n      0x00\n      dup1\n      returndatacopy\n      revert(0x00, returndatasize)\n    tag_54:\n      pop\n        /* \"contracts-test/230516-test1.sol\":2341:2343  10 */\n      0x0a\n        /* \"contracts-test/230516-test1.sol\":2315:2324  User_Name */\n      0x04\n        /* \"contracts-test/230516-test1.sol\":2325:2330  _name */\n      dup3\n        /* \"contracts-test/230516-test1.sol\":2315:2331  User_Name[_name] */\n      mload(0x40)\n      tag_55\n      swap2\n      swap1\n      tag_48\n      jump\t// in\n    tag_55:\n      swap1\n      dup2\n      mstore\n      0x20\n      add\n      mload(0x40)\n      dup1\n      swap2\n      sub\n      swap1\n      keccak256\n        /* \"contracts-test/230516-test1.sol\":2315:2337  User_Name[_name].score */\n      0x04\n      add\n      0x00\n        /* \"contracts-test/230516-test1.sol\":2315:2343  User_Name[_name].score -= 10 */\n      dup3\n      dup3\n      sload\n      tag_56\n      swap2\n      swap1\n      tag_57\n      jump\t// in\n    tag_56:\n      swap3\n      pop\n      pop\n      dup2\n      swap1\n      sstore\n      pop\n        /* \"contracts-test/230516-test1.sol\":2114:2350  function exchange(string memory _name) public {... */\n      pop\n      jump\t// out\n        /* \"contracts-test/230516-test1.sol\":1530:1613  function getUser() public view returns(User[] memory) {... */\n    tag_20:\n        /* \"contracts-test/230516-test1.sol\":1569:1582  User[] memory */\n      0x60\n        /* \"contracts-test/230516-test1.sol\":1601:1606  users */\n      0x00\n        /* \"contracts-test/230516-test1.sol\":1594:1606  return users */\n      dup1\n      sload\n      dup1\n      0x20\n      mul\n      0x20\n      add\n      mload(0x40)\n      swap1\n      dup2\n      add\n      0x40\n      mstore\n      dup1\n      swap3\n      swap2\n      swap1\n      dup2\n      dup2\n      mstore\n      0x20\n      add\n      0x00\n      swap1\n    tag_59:\n      dup3\n      dup3\n      lt\n      iszero\n      tag_60\n      jumpi\n      dup4\n      dup3\n      swap1\n      0x00\n      mstore\n      keccak256(0x00, 0x20)\n      swap1\n      0x05\n      mul\n      add\n      mload(0x40)\n      dup1\n      0xa0\n      add\n      0x40\n      mstore\n      swap1\n      dup2\n      0x00\n      dup3\n      add\n      sload\n      dup2\n      mstore\n      0x20\n      add\n      0x01\n      dup3\n      add\n      dup1\n      sload\n      tag_62\n      swap1\n      tag_41\n      jump\t// in\n    tag_62:\n      dup1\n      0x1f\n      add\n      0x20\n      dup1\n      swap2\n      div\n      mul\n      0x20\n      add\n      mload(0x40)\n      swap1\n      dup2\n      add\n      0x40\n      mstore\n      dup1\n      swap3\n      swap2\n      swap1\n      dup2\n      dup2\n      mstore\n      0x20\n      add\n      dup3\n      dup1\n      sload\n      tag_63\n      swap1\n      tag_41\n      jump\t// in\n    tag_63:\n      dup1\n      iszero\n      tag_64\n      jumpi\n      dup1\n      0x1f\n      lt\n      tag_65\n      jumpi\n      0x0100\n      dup1\n      dup4\n      sload\n      div\n      mul\n      dup4\n      mstore\n      swap2\n      0x20\n      add\n      swap2\n      jump(tag_64)\n    tag_65:\n      dup3\n      add\n      swap2\n      swap1\n      0x00\n      mstore\n      keccak256(0x00, 0x20)\n      swap1\n    tag_66:\n      dup2\n      sload\n      dup2\n      mstore\n      swap1\n      0x01\n      add\n      swap1\n      0x20\n      add\n      dup1\n      dup4\n      gt\n      tag_66\n      jumpi\n      dup3\n      swap1\n      sub\n      0x1f\n      and\n      dup3\n      add\n      swap2\n    tag_64:\n      pop\n      pop\n      pop\n      pop\n      pop\n      dup2\n      mstore\n      0x20\n      add\n      0x02\n      dup3\n      add\n      0x00\n      swap1\n      sload\n      swap1\n      0x0100\n      exp\n      swap1\n      div\n      0xffffffffffffffffffffffffffffffffffffffff\n      and\n      0xffffffffffffffffffffffffffffffffffffffff\n      and\n      0xffffffffffffffffffffffffffffffffffffffff\n      and\n      dup2\n      mstore\n      0x20\n      add\n      0x03\n      dup3\n      add\n      sload\n      dup2\n      mstore\n      0x20\n      add\n      0x04\n      dup3\n      add\n      sload\n      dup2\n      mstore\n      pop\n      pop\n      dup2\n      mstore\n      0x20\n      add\n      swap1\n      0x01\n      add\n      swap1\n      jump(tag_59)\n    tag_60:\n      pop\n      pop\n      pop\n      pop\n      swap1\n      pop\n        /* \"contracts-test/230516-test1.sol\":1530:1613  function getUser() public view returns(User[] memory) {... */\n      swap1\n      jump\t// out\n        /* \"contracts-test/230516-test1.sol\":882:1028  function join() public payable returns(uint) {... */\n    tag_24:\n        /* \"contracts-test/230516-test1.sol\":921:925  uint */\n      0x00\n        /* \"contracts-test/230516-test1.sol\":959:966  1 ether */\n      0x0de0b6b3a7640000\n        /* \"contracts-test/230516-test1.sol\":946:955  msg.value */\n      callvalue\n        /* \"contracts-test/230516-test1.sol\":946:966  msg.value == 1 ether */\n      eq\n        /* \"contracts-test/230516-test1.sol\":937:995  require (msg.value == 1 ether, \"please transfer 1 ether.\") */\n      tag_68\n      jumpi\n      mload(0x40)\n      0x08c379a000000000000000000000000000000000000000000000000000000000\n      dup2\n      mstore\n      0x04\n      add\n      tag_69\n      swap1\n      tag_70\n      jump\t// in\n    tag_69:\n      mload(0x40)\n      dup1\n      swap2\n      sub\n      swap1\n      revert\n    tag_68:\n        /* \"contracts-test/230516-test1.sol\":1012:1021  msg.value */\n      callvalue\n        /* \"contracts-test/230516-test1.sol\":1005:1021  return msg.value */\n      swap1\n      pop\n        /* \"contracts-test/230516-test1.sol\":882:1028  function join() public payable returns(uint) {... */\n      swap1\n      jump\t// out\n        /* \"contracts-test/230516-test1.sol\":1819:2033  function joinToGame(string memory _name) public payable {... */\n    tag_29:\n        /* \"contracts-test/230516-test1.sol\":1907:1928  10000000000000000 wei */\n      0x2386f26fc10000\n        /* \"contracts-test/230516-test1.sol\":1894:1903  msg.value */\n      callvalue\n        /* \"contracts-test/230516-test1.sol\":1894:1928  msg.value == 10000000000000000 wei */\n      eq\n        /* \"contracts-test/230516-test1.sol\":1885:1960  require (msg.value == 10000000000000000 wei, \"please transfer 0.01 ether.\") */\n      tag_72\n      jumpi\n      mload(0x40)\n      0x08c379a000000000000000000000000000000000000000000000000000000000\n      dup2\n      mstore\n      0x04\n      add\n      tag_73\n      swap1\n      tag_74\n      jump\t// in\n    tag_73:\n      mload(0x40)\n      dup1\n      swap2\n      sub\n      swap1\n      revert\n    tag_72:\n        /* \"contracts-test/230516-test1.sol\":1984:1989  _name */\n      dup1\n        /* \"contracts-test/230516-test1.sol\":1970:1974  room */\n      0x05\n        /* \"contracts-test/230516-test1.sol\":1975:1978  num */\n      0x03\n      0x00\n        /* \"contracts-test/230516-test1.sol\":1975:1980  num++ */\n      dup2\n      sload\n      dup1\n      swap3\n      swap2\n      swap1\n      tag_75\n      swap1\n      tag_76\n      jump\t// in\n    tag_75:\n      swap2\n      swap1\n      pop\n      sstore\n        /* \"contracts-test/230516-test1.sol\":1970:1981  room[num++] */\n      0x04\n      dup2\n      lt\n      tag_77\n      jumpi\n      tag_78\n      tag_79\n      jump\t// in\n    tag_78:\n    tag_77:\n      add\n        /* \"contracts-test/230516-test1.sol\":1970:1989  room[num++] = _name */\n      swap1\n      dup2\n      tag_81\n      swap2\n      swap1\n      tag_82\n      jump\t// in\n    tag_81:\n      pop\n        /* \"contracts-test/230516-test1.sol\":2025:2026  1 */\n      0x01\n        /* \"contracts-test/230516-test1.sol\":1999:2008  User_Name */\n      0x04\n        /* \"contracts-test/230516-test1.sol\":2009:2014  _name */\n      dup3\n        /* \"contracts-test/230516-test1.sol\":1999:2015  User_Name[_name] */\n      mload(0x40)\n      tag_83\n      swap2\n      swap1\n      tag_48\n      jump\t// in\n    tag_83:\n      swap1\n      dup2\n      mstore\n      0x20\n      add\n      mload(0x40)\n      dup1\n      swap2\n      sub\n      swap1\n      keccak256\n        /* \"contracts-test/230516-test1.sol\":1999:2021  User_Name[_name].score */\n      0x04\n      add\n      0x00\n        /* \"contracts-test/230516-test1.sol\":1999:2026  User_Name[_name].score += 1 */\n      dup3\n      dup3\n      sload\n      tag_84\n      swap2\n      swap1\n      tag_85\n      jump\t// in\n    tag_84:\n      swap3\n      pop\n      pop\n      dup2\n      swap1\n      sstore\n      pop\n        /* \"contracts-test/230516-test1.sol\":1819:2033  function joinToGame(string memory _name) public payable {... */\n      pop\n      jump\t// out\n        /* \"contracts-test/230516-test1.sol\":1189:1429  function register(string memory _name) public {... */\n    tag_33:\n        /* \"contracts-test/230516-test1.sol\":1268:1278  msg.sender */\n      caller\n        /* \"contracts-test/230516-test1.sol\":1245:1257  user_address */\n      0x01\n      0x00\n        /* \"contracts-test/230516-test1.sol\":1245:1279  user_address = payable(msg.sender) */\n      0x0100\n      exp\n      dup2\n      sload\n      dup2\n      0xffffffffffffffffffffffffffffffffffffffff\n      mul\n      not\n      and\n      swap1\n      dup4\n      0xffffffffffffffffffffffffffffffffffffffff\n      and\n      mul\n      or\n      swap1\n      sstore\n      pop\n        /* \"contracts-test/230516-test1.sol\":1289:1294  users */\n      0x00\n        /* \"contracts-test/230516-test1.sol\":1300:1347  User(users.length+1, _name, user_address, 0, 0) */\n      mload(0x40)\n      dup1\n      0xa0\n      add\n      0x40\n      mstore\n      dup1\n        /* \"contracts-test/230516-test1.sol\":1318:1319  1 */\n      0x01\n        /* \"contracts-test/230516-test1.sol\":1305:1310  users */\n      0x00\n        /* \"contracts-test/230516-test1.sol\":1305:1317  users.length */\n      dup1\n      sload\n      swap1\n      pop\n        /* \"contracts-test/230516-test1.sol\":1305:1319  users.length+1 */\n      tag_87\n      swap2\n      swap1\n      tag_85\n      jump\t// in\n    tag_87:\n        /* \"contracts-test/230516-test1.sol\":1300:1347  User(users.length+1, _name, user_address, 0, 0) */\n      dup2\n      mstore\n      0x20\n      add\n        /* \"contracts-test/230516-test1.sol\":1321:1326  _name */\n      dup4\n        /* \"contracts-test/230516-test1.sol\":1300:1347  User(users.length+1, _name, user_address, 0, 0) */\n      dup2\n      mstore\n      0x20\n      add\n        /* \"contracts-test/230516-test1.sol\":1328:1340  user_address */\n      0x01\n      0x00\n      swap1\n      sload\n      swap1\n      0x0100\n      exp\n      swap1\n      div\n      0xffffffffffffffffffffffffffffffffffffffff\n      and\n        /* \"contracts-test/230516-test1.sol\":1300:1347  User(users.length+1, _name, user_address, 0, 0) */\n      0xffffffffffffffffffffffffffffffffffffffff\n      and\n      dup2\n      mstore\n      0x20\n      add\n        /* \"contracts-test/230516-test1.sol\":1342:1343  0 */\n      0x00\n        /* \"contracts-test/230516-test1.sol\":1300:1347  User(users.length+1, _name, user_address, 0, 0) */\n      dup2\n      mstore\n      0x20\n      add\n        /* \"contracts-test/230516-test1.sol\":1345:1346  0 */\n      0x00\n        /* \"contracts-test/230516-test1.sol\":1300:1347  User(users.length+1, _name, user_address, 0, 0) */\n      dup2\n      mstore\n      pop\n        /* \"contracts-test/230516-test1.sol\":1289:1348  users.push(User(users.length+1, _name, user_address, 0, 0)) */\n      swap1\n      dup1\n      0x01\n      dup2\n      sload\n      add\n      dup1\n      dup3\n      sstore\n      dup1\n      swap2\n      pop\n      pop\n      0x01\n      swap1\n      sub\n      swap1\n      0x00\n      mstore\n      keccak256(0x00, 0x20)\n      swap1\n      0x05\n      mul\n      add\n      0x00\n      swap1\n      swap2\n      swap1\n      swap2\n      swap1\n      swap2\n      pop\n      0x00\n      dup3\n      add\n      mload\n      dup2\n      0x00\n      add\n      sstore\n      0x20\n      dup3\n      add\n      mload\n      dup2\n      0x01\n      add\n      swap1\n      dup2\n      tag_89\n      swap2\n      swap1\n      tag_82\n      jump\t// in\n    tag_89:\n      pop\n      0x40\n      dup3\n      add\n      mload\n      dup2\n      0x02\n      add\n      exp(0x0100, 0x00)\n      dup2\n      sload\n      dup2\n      0xffffffffffffffffffffffffffffffffffffffff\n      mul\n      not\n      and\n      swap1\n      dup4\n      0xffffffffffffffffffffffffffffffffffffffff\n      and\n      mul\n      or\n      swap1\n      sstore\n      pop\n      0x60\n      dup3\n      add\n      mload\n      dup2\n      0x03\n      add\n      sstore\n      0x80\n      dup3\n      add\n      mload\n      dup2\n      0x04\n      add\n      sstore\n      pop\n      pop\n        /* \"contracts-test/230516-test1.sol\":1377:1422  User(users.length, _name, user_address, 0, 0) */\n      mload(0x40)\n      dup1\n      0xa0\n      add\n      0x40\n      mstore\n      dup1\n        /* \"contracts-test/230516-test1.sol\":1382:1387  users */\n      0x00\n        /* \"contracts-test/230516-test1.sol\":1382:1394  users.length */\n      dup1\n      sload\n      swap1\n      pop\n        /* \"contracts-test/230516-test1.sol\":1377:1422  User(users.length, _name, user_address, 0, 0) */\n      dup2\n      mstore\n      0x20\n      add\n        /* \"contracts-test/230516-test1.sol\":1396:1401  _name */\n      dup3\n        /* \"contracts-test/230516-test1.sol\":1377:1422  User(users.length, _name, user_address, 0, 0) */\n      dup2\n      mstore\n      0x20\n      add\n        /* \"contracts-test/230516-test1.sol\":1403:1415  user_address */\n      0x01\n      0x00\n      swap1\n      sload\n      swap1\n      0x0100\n      exp\n      swap1\n      div\n      0xffffffffffffffffffffffffffffffffffffffff\n      and\n        /* \"contracts-test/230516-test1.sol\":1377:1422  User(users.length, _name, user_address, 0, 0) */\n      0xffffffffffffffffffffffffffffffffffffffff\n      and\n      dup2\n      mstore\n      0x20\n      add\n        /* \"contracts-test/230516-test1.sol\":1417:1418  0 */\n      0x00\n        /* \"contracts-test/230516-test1.sol\":1377:1422  User(users.length, _name, user_address, 0, 0) */\n      dup2\n      mstore\n      0x20\n      add\n        /* \"contracts-test/230516-test1.sol\":1420:1421  0 */\n      0x00\n        /* \"contracts-test/230516-test1.sol\":1377:1422  User(users.length, _name, user_address, 0, 0) */\n      dup2\n      mstore\n      pop\n        /* \"contracts-test/230516-test1.sol\":1358:1367  User_Name */\n      0x04\n        /* \"contracts-test/230516-test1.sol\":1368:1373  _name */\n      dup3\n        /* \"contracts-test/230516-test1.sol\":1358:1374  User_Name[_name] */\n      mload(0x40)\n      tag_90\n      swap2\n      swap1\n      tag_48\n      jump\t// in\n    tag_90:\n      swap1\n      dup2\n      mstore\n      0x20\n      add\n      mload(0x40)\n      dup1\n      swap2\n      sub\n      swap1\n      keccak256\n        /* \"contracts-test/230516-test1.sol\":1358:1422  User_Name[_name] = User(users.length, _name, user_address, 0, 0) */\n      0x00\n      dup3\n      add\n      mload\n      dup2\n      0x00\n      add\n      sstore\n      0x20\n      dup3\n      add\n      mload\n      dup2\n      0x01\n      add\n      swap1\n      dup2\n      tag_91\n      swap2\n      swap1\n      tag_82\n      jump\t// in\n    tag_91:\n      pop\n      0x40\n      dup3\n      add\n      mload\n      dup2\n      0x02\n      add\n      exp(0x0100, 0x00)\n      dup2\n      sload\n      dup2\n      0xffffffffffffffffffffffffffffffffffffffff\n      mul\n      not\n      and\n      swap1\n      dup4\n      0xffffffffffffffffffffffffffffffffffffffff\n      and\n      mul\n      or\n      swap1\n      sstore\n      pop\n      0x60\n      dup3\n      add\n      mload\n      dup2\n      0x03\n      add\n      sstore\n      0x80\n      dup3\n      add\n      mload\n      dup2\n      0x04\n      add\n      sstore\n      swap1\n      pop\n      pop\n        /* \"contracts-test/230516-test1.sol\":1189:1429  function register(string memory _name) public {... */\n      pop\n      jump\t// out\n    tag_35:\n      mload(0x40)\n      dup1\n      0x80\n      add\n      0x40\n      mstore\n      dup1\n      0x04\n      swap1\n    tag_92:\n      0x60\n      dup2\n      mstore\n      0x20\n      add\n      swap1\n      0x01\n      swap1\n      sub\n      swap1\n      dup2\n      tag_92\n      jumpi\n      swap1\n      pop\n      pop\n      swap1\n      jump\t// out\n        /* \"#utility.yul\":7:121   */\n    tag_93:\n        /* \"#utility.yul\":82:88   */\n      0x00\n        /* \"#utility.yul\":110:114   */\n      0x04\n        /* \"#utility.yul\":100:114   */\n      swap1\n      pop\n        /* \"#utility.yul\":7:121   */\n      swap2\n      swap1\n      pop\n      jump\t// out\n        /* \"#utility.yul\":127:280   */\n    tag_94:\n        /* \"#utility.yul\":234:245   */\n      0x00\n        /* \"#utility.yul\":271:274   */\n      dup2\n        /* \"#utility.yul\":256:274   */\n      swap1\n      pop\n        /* \"#utility.yul\":127:280   */\n      swap3\n      swap2\n      pop\n      pop\n      jump\t// out\n        /* \"#utility.yul\":286:394   */\n    tag_95:\n        /* \"#utility.yul\":361:365   */\n      0x00\n        /* \"#utility.yul\":384:387   */\n      dup2\n        /* \"#utility.yul\":376:387   */\n      swap1\n      pop\n        /* \"#utility.yul\":286:394   */\n      swap2\n      swap1\n      pop\n      jump\t// out\n        /* \"#utility.yul\":400:499   */\n    tag_96:\n        /* \"#utility.yul\":452:458   */\n      0x00\n        /* \"#utility.yul\":486:491   */\n      dup2\n        /* \"#utility.yul\":480:492   */\n      mload\n        /* \"#utility.yul\":470:492   */\n      swap1\n      pop\n        /* \"#utility.yul\":400:499   */\n      swap2\n      swap1\n      pop\n      jump\t// out\n        /* \"#utility.yul\":505:664   */\n    tag_97:\n        /* \"#utility.yul\":579:590   */\n      0x00\n        /* \"#utility.yul\":613:619   */\n      dup3\n        /* \"#utility.yul\":608:611   */\n      dup3\n        /* \"#utility.yul\":601:620   */\n      mstore\n        /* \"#utility.yul\":653:657   */\n      0x20\n        /* \"#utility.yul\":648:651   */\n      dup3\n        /* \"#utility.yul\":644:658   */\n      add\n        /* \"#utility.yul\":629:658   */\n      swap1\n      pop\n        /* \"#utility.yul\":505:664   */\n      swap3\n      swap2\n      pop\n      pop\n      jump\t// out\n        /* \"#utility.yul\":670:916   */\n    tag_98:\n        /* \"#utility.yul\":751:752   */\n      0x00\n        /* \"#utility.yul\":761:874   */\n    tag_162:\n        /* \"#utility.yul\":775:781   */\n      dup4\n        /* \"#utility.yul\":772:773   */\n      dup2\n        /* \"#utility.yul\":769:782   */\n      lt\n        /* \"#utility.yul\":761:874   */\n      iszero\n      tag_164\n      jumpi\n        /* \"#utility.yul\":860:861   */\n      dup1\n        /* \"#utility.yul\":855:858   */\n      dup3\n        /* \"#utility.yul\":851:862   */\n      add\n        /* \"#utility.yul\":845:863   */\n      mload\n        /* \"#utility.yul\":841:842   */\n      dup2\n        /* \"#utility.yul\":836:839   */\n      dup5\n        /* \"#utility.yul\":832:843   */\n      add\n        /* \"#utility.yul\":825:864   */\n      mstore\n        /* \"#utility.yul\":797:799   */\n      0x20\n        /* \"#utility.yul\":794:795   */\n      dup2\n        /* \"#utility.yul\":790:800   */\n      add\n        /* \"#utility.yul\":785:800   */\n      swap1\n      pop\n        /* \"#utility.yul\":761:874   */\n      jump(tag_162)\n    tag_164:\n        /* \"#utility.yul\":908:909   */\n      0x00\n        /* \"#utility.yul\":899:905   */\n      dup5\n        /* \"#utility.yul\":894:897   */\n      dup5\n        /* \"#utility.yul\":890:906   */\n      add\n        /* \"#utility.yul\":883:910   */\n      mstore\n        /* \"#utility.yul\":732:916   */\n      pop\n        /* \"#utility.yul\":670:916   */\n      pop\n      pop\n      pop\n      jump\t// out\n        /* \"#utility.yul\":922:1024   */\n    tag_99:\n        /* \"#utility.yul\":963:969   */\n      0x00\n        /* \"#utility.yul\":1014:1016   */\n      0x1f\n        /* \"#utility.yul\":1010:1017   */\n      not\n        /* \"#utility.yul\":1005:1007   */\n      0x1f\n        /* \"#utility.yul\":998:1003   */\n      dup4\n        /* \"#utility.yul\":994:1008   */\n      add\n        /* \"#utility.yul\":990:1018   */\n      and\n        /* \"#utility.yul\":980:1018   */\n      swap1\n      pop\n        /* \"#utility.yul\":922:1024   */\n      swap2\n      swap1\n      pop\n      jump\t// out\n        /* \"#utility.yul\":1030:1387   */\n    tag_100:\n        /* \"#utility.yul\":1108:1111   */\n      0x00\n        /* \"#utility.yul\":1136:1175   */\n      tag_167\n        /* \"#utility.yul\":1169:1174   */\n      dup3\n        /* \"#utility.yul\":1136:1175   */\n      tag_96\n      jump\t// in\n    tag_167:\n        /* \"#utility.yul\":1191:1252   */\n      tag_168\n        /* \"#utility.yul\":1245:1251   */\n      dup2\n        /* \"#utility.yul\":1240:1243   */\n      dup6\n        /* \"#utility.yul\":1191:1252   */\n      tag_97\n      jump\t// in\n    tag_168:\n        /* \"#utility.yul\":1184:1252   */\n      swap4\n      pop\n        /* \"#utility.yul\":1261:1326   */\n      tag_169\n        /* \"#utility.yul\":1319:1325   */\n      dup2\n        /* \"#utility.yul\":1314:1317   */\n      dup6\n        /* \"#utility.yul\":1307:1311   */\n      0x20\n        /* \"#utility.yul\":1300:1305   */\n      dup7\n        /* \"#utility.yul\":1296:1312   */\n      add\n        /* \"#utility.yul\":1261:1326   */\n      tag_98\n      jump\t// in\n    tag_169:\n        /* \"#utility.yul\":1351:1380   */\n      tag_170\n        /* \"#utility.yul\":1373:1379   */\n      dup2\n        /* \"#utility.yul\":1351:1380   */\n      tag_99\n      jump\t// in\n    tag_170:\n        /* \"#utility.yul\":1346:1349   */\n      dup5\n        /* \"#utility.yul\":1342:1381   */\n      add\n        /* \"#utility.yul\":1335:1381   */\n      swap2\n      pop\n        /* \"#utility.yul\":1112:1387   */\n      pop\n        /* \"#utility.yul\":1030:1387   */\n      swap3\n      swap2\n      pop\n      pop\n      jump\t// out\n        /* \"#utility.yul\":1393:1589   */\n    tag_101:\n        /* \"#utility.yul\":1482:1492   */\n      0x00\n        /* \"#utility.yul\":1517:1583   */\n      tag_172\n        /* \"#utility.yul\":1579:1582   */\n      dup4\n        /* \"#utility.yul\":1571:1577   */\n      dup4\n        /* \"#utility.yul\":1517:1583   */\n      tag_100\n      jump\t// in\n    tag_172:\n        /* \"#utility.yul\":1503:1583   */\n      swap1\n      pop\n        /* \"#utility.yul\":1393:1589   */\n      swap3\n      swap2\n      pop\n      pop\n      jump\t// out\n        /* \"#utility.yul\":1595:1716   */\n    tag_102:\n        /* \"#utility.yul\":1673:1677   */\n      0x00\n        /* \"#utility.yul\":1705:1709   */\n      0x20\n        /* \"#utility.yul\":1700:1703   */\n      dup3\n        /* \"#utility.yul\":1696:1710   */\n      add\n        /* \"#utility.yul\":1688:1710   */\n      swap1\n      pop\n        /* \"#utility.yul\":1595:1716   */\n      swap2\n      swap1\n      pop\n      jump\t// out\n        /* \"#utility.yul\":1752:2731   */\n    tag_103:\n        /* \"#utility.yul\":1887:1890   */\n      0x00\n        /* \"#utility.yul\":1916:1978   */\n      tag_175\n        /* \"#utility.yul\":1972:1977   */\n      dup3\n        /* \"#utility.yul\":1916:1978   */\n      tag_93\n      jump\t// in\n    tag_175:\n        /* \"#utility.yul\":1994:2088   */\n      tag_176\n        /* \"#utility.yul\":2081:2087   */\n      dup2\n        /* \"#utility.yul\":2076:2079   */\n      dup6\n        /* \"#utility.yul\":1994:2088   */\n      tag_94\n      jump\t// in\n    tag_176:\n        /* \"#utility.yul\":1987:2088   */\n      swap4\n      pop\n        /* \"#utility.yul\":2114:2117   */\n      dup4\n        /* \"#utility.yul\":2159:2163   */\n      0x20\n        /* \"#utility.yul\":2151:2157   */\n      dup3\n        /* \"#utility.yul\":2147:2164   */\n      mul\n        /* \"#utility.yul\":2142:2145   */\n      dup6\n        /* \"#utility.yul\":2138:2165   */\n      add\n        /* \"#utility.yul\":2189:2253   */\n      tag_177\n        /* \"#utility.yul\":2247:2252   */\n      dup6\n        /* \"#utility.yul\":2189:2253   */\n      tag_95\n      jump\t// in\n    tag_177:\n        /* \"#utility.yul\":2276:2283   */\n      dup1\n        /* \"#utility.yul\":2307:2308   */\n      0x00\n        /* \"#utility.yul\":2292:2686   */\n    tag_178:\n        /* \"#utility.yul\":2317:2323   */\n      dup6\n        /* \"#utility.yul\":2314:2315   */\n      dup2\n        /* \"#utility.yul\":2311:2324   */\n      lt\n        /* \"#utility.yul\":2292:2686   */\n      iszero\n      tag_180\n      jumpi\n        /* \"#utility.yul\":2388:2397   */\n      dup5\n        /* \"#utility.yul\":2382:2386   */\n      dup5\n        /* \"#utility.yul\":2378:2398   */\n      sub\n        /* \"#utility.yul\":2373:2376   */\n      dup10\n        /* \"#utility.yul\":2366:2399   */\n      mstore\n        /* \"#utility.yul\":2439:2445   */\n      dup2\n        /* \"#utility.yul\":2433:2446   */\n      mload\n        /* \"#utility.yul\":2467:2551   */\n      tag_181\n        /* \"#utility.yul\":2546:2550   */\n      dup6\n        /* \"#utility.yul\":2531:2544   */\n      dup3\n        /* \"#utility.yul\":2467:2551   */\n      tag_101\n      jump\t// in\n    tag_181:\n        /* \"#utility.yul\":2459:2551   */\n      swap5\n      pop\n        /* \"#utility.yul\":2574:2642   */\n      tag_182\n        /* \"#utility.yul\":2635:2641   */\n      dup4\n        /* \"#utility.yul\":2574:2642   */\n      tag_102\n      jump\t// in\n    tag_182:\n        /* \"#utility.yul\":2564:2642   */\n      swap3\n      pop\n        /* \"#utility.yul\":2671:2675   */\n      0x20\n        /* \"#utility.yul\":2666:2669   */\n      dup11\n        /* \"#utility.yul\":2662:2676   */\n      add\n        /* \"#utility.yul\":2655:2676   */\n      swap10\n      pop\n        /* \"#utility.yul\":2352:2686   */\n      pop\n        /* \"#utility.yul\":2339:2340   */\n      0x01\n        /* \"#utility.yul\":2336:2337   */\n      dup2\n        /* \"#utility.yul\":2332:2341   */\n      add\n        /* \"#utility.yul\":2327:2341   */\n      swap1\n      pop\n        /* \"#utility.yul\":2292:2686   */\n      jump(tag_178)\n    tag_180:\n        /* \"#utility.yul\":2296:2310   */\n      pop\n        /* \"#utility.yul\":2702:2706   */\n      dup3\n        /* \"#utility.yul\":2695:2706   */\n      swap8\n      pop\n        /* \"#utility.yul\":2722:2725   */\n      dup8\n        /* \"#utility.yul\":2715:2725   */\n      swap6\n      pop\n        /* \"#utility.yul\":1892:2731   */\n      pop\n      pop\n      pop\n      pop\n      pop\n        /* \"#utility.yul\":1752:2731   */\n      swap3\n      swap2\n      pop\n      pop\n      jump\t// out\n        /* \"#utility.yul\":2737:3142   */\n    tag_12:\n        /* \"#utility.yul\":2896:2900   */\n      0x00\n        /* \"#utility.yul\":2934:2936   */\n      0x20\n        /* \"#utility.yul\":2923:2932   */\n      dup3\n        /* \"#utility.yul\":2919:2937   */\n      add\n        /* \"#utility.yul\":2911:2937   */\n      swap1\n      pop\n        /* \"#utility.yul\":2983:2992   */\n      dup2\n        /* \"#utility.yul\":2977:2981   */\n      dup2\n        /* \"#utility.yul\":2973:2993   */\n      sub\n        /* \"#utility.yul\":2969:2970   */\n      0x00\n        /* \"#utility.yul\":2958:2967   */\n      dup4\n        /* \"#utility.yul\":2954:2971   */\n      add\n        /* \"#utility.yul\":2947:2994   */\n      mstore\n        /* \"#utility.yul\":3011:3135   */\n      tag_184\n        /* \"#utility.yul\":3130:3134   */\n      dup2\n        /* \"#utility.yul\":3121:3127   */\n      dup5\n        /* \"#utility.yul\":3011:3135   */\n      tag_103\n      jump\t// in\n    tag_184:\n        /* \"#utility.yul\":3003:3135   */\n      swap1\n      pop\n        /* \"#utility.yul\":2737:3142   */\n      swap3\n      swap2\n      pop\n      pop\n      jump\t// out\n        /* \"#utility.yul\":3148:3223   */\n    tag_104:\n        /* \"#utility.yul\":3181:3187   */\n      0x00\n        /* \"#utility.yul\":3214:3216   */\n      0x40\n        /* \"#utility.yul\":3208:3217   */\n      mload\n        /* \"#utility.yul\":3198:3217   */\n      swap1\n      pop\n        /* \"#utility.yul\":3148:3223   */\n      swap1\n      jump\t// out\n        /* \"#utility.yul\":3229:3346   */\n    tag_105:\n        /* \"#utility.yul\":3338:3339   */\n      0x00\n        /* \"#utility.yul\":3335:3336   */\n      dup1\n        /* \"#utility.yul\":3328:3340   */\n      revert\n        /* \"#utility.yul\":3352:3469   */\n    tag_106:\n        /* \"#utility.yul\":3461:3462   */\n      0x00\n        /* \"#utility.yul\":3458:3459   */\n      dup1\n        /* \"#utility.yul\":3451:3463   */\n      revert\n        /* \"#utility.yul\":3475:3592   */\n    tag_107:\n        /* \"#utility.yul\":3584:3585   */\n      0x00\n        /* \"#utility.yul\":3581:3582   */\n      dup1\n        /* \"#utility.yul\":3574:3586   */\n      revert\n        /* \"#utility.yul\":3598:3715   */\n    tag_108:\n        /* \"#utility.yul\":3707:3708   */\n      0x00\n        /* \"#utility.yul\":3704:3705   */\n      dup1\n        /* \"#utility.yul\":3697:3709   */\n      revert\n        /* \"#utility.yul\":3721:3901   */\n    tag_109:\n        /* \"#utility.yul\":3769:3846   */\n      0x4e487b7100000000000000000000000000000000000000000000000000000000\n        /* \"#utility.yul\":3766:3767   */\n      0x00\n        /* \"#utility.yul\":3759:3847   */\n      mstore\n        /* \"#utility.yul\":3866:3870   */\n      0x41\n        /* \"#utility.yul\":3863:3864   */\n      0x04\n        /* \"#utility.yul\":3856:3871   */\n      mstore\n        /* \"#utility.yul\":3890:3894   */\n      0x24\n        /* \"#utility.yul\":3887:3888   */\n      0x00\n        /* \"#utility.yul\":3880:3895   */\n      revert\n        /* \"#utility.yul\":3907:4188   */\n    tag_110:\n        /* \"#utility.yul\":3990:4017   */\n      tag_192\n        /* \"#utility.yul\":4012:4016   */\n      dup3\n        /* \"#utility.yul\":3990:4017   */\n      tag_99\n      jump\t// in\n    tag_192:\n        /* \"#utility.yul\":3982:3988   */\n      dup2\n        /* \"#utility.yul\":3978:4018   */\n      add\n        /* \"#utility.yul\":4120:4126   */\n      dup2\n        /* \"#utility.yul\":4108:4118   */\n      dup2\n        /* \"#utility.yul\":4105:4127   */\n      lt\n        /* \"#utility.yul\":4084:4102   */\n      0xffffffffffffffff\n        /* \"#utility.yul\":4072:4082   */\n      dup3\n        /* \"#utility.yul\":4069:4103   */\n      gt\n        /* \"#utility.yul\":4066:4128   */\n      or\n        /* \"#utility.yul\":4063:4151   */\n      iszero\n      tag_193\n      jumpi\n        /* \"#utility.yul\":4131:4149   */\n      tag_194\n      tag_109\n      jump\t// in\n    tag_194:\n        /* \"#utility.yul\":4063:4151   */\n    tag_193:\n        /* \"#utility.yul\":4171:4181   */\n      dup1\n        /* \"#utility.yul\":4167:4169   */\n      0x40\n        /* \"#utility.yul\":4160:4182   */\n      mstore\n        /* \"#utility.yul\":3950:4188   */\n      pop\n        /* \"#utility.yul\":3907:4188   */\n      pop\n      pop\n      jump\t// out\n        /* \"#utility.yul\":4194:4323   */\n    tag_111:\n        /* \"#utility.yul\":4228:4234   */\n      0x00\n        /* \"#utility.yul\":4255:4275   */\n      tag_196\n      tag_104\n      jump\t// in\n    tag_196:\n        /* \"#utility.yul\":4245:4275   */\n      swap1\n      pop\n        /* \"#utility.yul\":4284:4317   */\n      tag_197\n        /* \"#utility.yul\":4312:4316   */\n      dup3\n        /* \"#utility.yul\":4304:4310   */\n      dup3\n        /* \"#utility.yul\":4284:4317   */\n      tag_110\n      jump\t// in\n    tag_197:\n        /* \"#utility.yul\":4194:4323   */\n      swap2\n      swap1\n      pop\n      jump\t// out\n        /* \"#utility.yul\":4329:4637   */\n    tag_112:\n        /* \"#utility.yul\":4391:4395   */\n      0x00\n        /* \"#utility.yul\":4481:4499   */\n      0xffffffffffffffff\n        /* \"#utility.yul\":4473:4479   */\n      dup3\n        /* \"#utility.yul\":4470:4500   */\n      gt\n        /* \"#utility.yul\":4467:4523   */\n      iszero\n      tag_199\n      jumpi\n        /* \"#utility.yul\":4503:4521   */\n      tag_200\n      tag_109\n      jump\t// in\n    tag_200:\n        /* \"#utility.yul\":4467:4523   */\n    tag_199:\n        /* \"#utility.yul\":4541:4570   */\n      tag_201\n        /* \"#utility.yul\":4563:4569   */\n      dup3\n        /* \"#utility.yul\":4541:4570   */\n      tag_99\n      jump\t// in\n    tag_201:\n        /* \"#utility.yul\":4533:4570   */\n      swap1\n      pop\n        /* \"#utility.yul\":4625:4629   */\n      0x20\n        /* \"#utility.yul\":4619:4623   */\n      dup2\n        /* \"#utility.yul\":4615:4630   */\n      add\n        /* \"#utility.yul\":4607:4630   */\n      swap1\n      pop\n        /* \"#utility.yul\":4329:4637   */\n      swap2\n      swap1\n      pop\n      jump\t// out\n        /* \"#utility.yul\":4643:4789   */\n    tag_113:\n        /* \"#utility.yul\":4740:4746   */\n      dup3\n        /* \"#utility.yul\":4735:4738   */\n      dup2\n        /* \"#utility.yul\":4730:4733   */\n      dup4\n        /* \"#utility.yul\":4717:4747   */\n      calldatacopy\n        /* \"#utility.yul\":4781:4782   */\n      0x00\n        /* \"#utility.yul\":4772:4778   */\n      dup4\n        /* \"#utility.yul\":4767:4770   */\n      dup4\n        /* \"#utility.yul\":4763:4779   */\n      add\n        /* \"#utility.yul\":4756:4783   */\n      mstore\n        /* \"#utility.yul\":4643:4789   */\n      pop\n      pop\n      pop\n      jump\t// out\n        /* \"#utility.yul\":4795:5220   */\n    tag_114:\n        /* \"#utility.yul\":4873:4878   */\n      0x00\n        /* \"#utility.yul\":4898:4964   */\n      tag_204\n        /* \"#utility.yul\":4914:4963   */\n      tag_205\n        /* \"#utility.yul\":4956:4962   */\n      dup5\n        /* \"#utility.yul\":4914:4963   */\n      tag_112\n      jump\t// in\n    tag_205:\n        /* \"#utility.yul\":4898:4964   */\n      tag_111\n      jump\t// in\n    tag_204:\n        /* \"#utility.yul\":4889:4964   */\n      swap1\n      pop\n        /* \"#utility.yul\":4987:4993   */\n      dup3\n        /* \"#utility.yul\":4980:4985   */\n      dup2\n        /* \"#utility.yul\":4973:4994   */\n      mstore\n        /* \"#utility.yul\":5025:5029   */\n      0x20\n        /* \"#utility.yul\":5018:5023   */\n      dup2\n        /* \"#utility.yul\":5014:5030   */\n      add\n        /* \"#utility.yul\":5063:5066   */\n      dup5\n        /* \"#utility.yul\":5054:5060   */\n      dup5\n        /* \"#utility.yul\":5049:5052   */\n      dup5\n        /* \"#utility.yul\":5045:5061   */\n      add\n        /* \"#utility.yul\":5042:5067   */\n      gt\n        /* \"#utility.yul\":5039:5151   */\n      iszero\n      tag_206\n      jumpi\n        /* \"#utility.yul\":5070:5149   */\n      tag_207\n      tag_108\n      jump\t// in\n    tag_207:\n        /* \"#utility.yul\":5039:5151   */\n    tag_206:\n        /* \"#utility.yul\":5160:5214   */\n      tag_208\n        /* \"#utility.yul\":5207:5213   */\n      dup5\n        /* \"#utility.yul\":5202:5205   */\n      dup3\n        /* \"#utility.yul\":5197:5200   */\n      dup6\n        /* \"#utility.yul\":5160:5214   */\n      tag_113\n      jump\t// in\n    tag_208:\n        /* \"#utility.yul\":4879:5220   */\n      pop\n        /* \"#utility.yul\":4795:5220   */\n      swap4\n      swap3\n      pop\n      pop\n      pop\n      jump\t// out\n        /* \"#utility.yul\":5240:5580   */\n    tag_115:\n        /* \"#utility.yul\":5296:5301   */\n      0x00\n        /* \"#utility.yul\":5345:5348   */\n      dup3\n        /* \"#utility.yul\":5338:5342   */\n      0x1f\n        /* \"#utility.yul\":5330:5336   */\n      dup4\n        /* \"#utility.yul\":5326:5343   */\n      add\n        /* \"#utility.yul\":5322:5349   */\n      slt\n        /* \"#utility.yul\":5312:5434   */\n      tag_210\n      jumpi\n        /* \"#utility.yul\":5353:5432   */\n      tag_211\n      tag_107\n      jump\t// in\n    tag_211:\n        /* \"#utility.yul\":5312:5434   */\n    tag_210:\n        /* \"#utility.yul\":5470:5476   */\n      dup2\n        /* \"#utility.yul\":5457:5477   */\n      calldataload\n        /* \"#utility.yul\":5495:5574   */\n      tag_212\n        /* \"#utility.yul\":5570:5573   */\n      dup5\n        /* \"#utility.yul\":5562:5568   */\n      dup3\n        /* \"#utility.yul\":5555:5559   */\n      0x20\n        /* \"#utility.yul\":5547:5553   */\n      dup7\n        /* \"#utility.yul\":5543:5560   */\n      add\n        /* \"#utility.yul\":5495:5574   */\n      tag_114\n      jump\t// in\n    tag_212:\n        /* \"#utility.yul\":5486:5574   */\n      swap2\n      pop\n        /* \"#utility.yul\":5302:5580   */\n      pop\n        /* \"#utility.yul\":5240:5580   */\n      swap3\n      swap2\n      pop\n      pop\n      jump\t// out\n        /* \"#utility.yul\":5586:6095   */\n    tag_16:\n        /* \"#utility.yul\":5655:5661   */\n      0x00\n        /* \"#utility.yul\":5704:5706   */\n      0x20\n        /* \"#utility.yul\":5692:5701   */\n      dup3\n        /* \"#utility.yul\":5683:5690   */\n      dup5\n        /* \"#utility.yul\":5679:5702   */\n      sub\n        /* \"#utility.yul\":5675:5707   */\n      slt\n        /* \"#utility.yul\":5672:5791   */\n      iszero\n      tag_214\n      jumpi\n        /* \"#utility.yul\":5710:5789   */\n      tag_215\n      tag_105\n      jump\t// in\n    tag_215:\n        /* \"#utility.yul\":5672:5791   */\n    tag_214:\n        /* \"#utility.yul\":5858:5859   */\n      0x00\n        /* \"#utility.yul\":5847:5856   */\n      dup3\n        /* \"#utility.yul\":5843:5860   */\n      add\n        /* \"#utility.yul\":5830:5861   */\n      calldataload\n        /* \"#utility.yul\":5888:5906   */\n      0xffffffffffffffff\n        /* \"#utility.yul\":5880:5886   */\n      dup2\n        /* \"#utility.yul\":5877:5907   */\n      gt\n        /* \"#utility.yul\":5874:5991   */\n      iszero\n      tag_216\n      jumpi\n        /* \"#utility.yul\":5910:5989   */\n      tag_217\n      tag_106\n      jump\t// in\n    tag_217:\n        /* \"#utility.yul\":5874:5991   */\n    tag_216:\n        /* \"#utility.yul\":6015:6078   */\n      tag_218\n        /* \"#utility.yul\":6070:6077   */\n      dup5\n        /* \"#utility.yul\":6061:6067   */\n      dup3\n        /* \"#utility.yul\":6050:6059   */\n      dup6\n        /* \"#utility.yul\":6046:6068   */\n      add\n        /* \"#utility.yul\":6015:6078   */\n      tag_115\n      jump\t// in\n    tag_218:\n        /* \"#utility.yul\":6005:6078   */\n      swap2\n      pop\n        /* \"#utility.yul\":5801:6088   */\n      pop\n        /* \"#utility.yul\":5586:6095   */\n      swap3\n      swap2\n      pop\n      pop\n      jump\t// out\n        /* \"#utility.yul\":6101:6235   */\n    tag_116:\n        /* \"#utility.yul\":6188:6194   */\n      0x00\n        /* \"#utility.yul\":6222:6227   */\n      dup2\n        /* \"#utility.yul\":6216:6228   */\n      mload\n        /* \"#utility.yul\":6206:6228   */\n      swap1\n      pop\n        /* \"#utility.yul\":6101:6235   */\n      swap2\n      swap1\n      pop\n      jump\t// out\n        /* \"#utility.yul\":6241:6445   */\n    tag_117:\n        /* \"#utility.yul\":6360:6371   */\n      0x00\n        /* \"#utility.yul\":6394:6400   */\n      dup3\n        /* \"#utility.yul\":6389:6392   */\n      dup3\n        /* \"#utility.yul\":6382:6401   */\n      mstore\n        /* \"#utility.yul\":6434:6438   */\n      0x20\n        /* \"#utility.yul\":6429:6432   */\n      dup3\n        /* \"#utility.yul\":6425:6439   */\n      add\n        /* \"#utility.yul\":6410:6439   */\n      swap1\n      pop\n        /* \"#utility.yul\":6241:6445   */\n      swap3\n      swap2\n      pop\n      pop\n      jump\t// out\n        /* \"#utility.yul\":6451:6603   */\n    tag_118:\n        /* \"#utility.yul\":6538:6542   */\n      0x00\n        /* \"#utility.yul\":6561:6564   */\n      dup2\n        /* \"#utility.yul\":6553:6564   */\n      swap1\n      pop\n        /* \"#utility.yul\":6591:6595   */\n      0x20\n        /* \"#utility.yul\":6586:6589   */\n      dup3\n        /* \"#utility.yul\":6582:6596   */\n      add\n        /* \"#utility.yul\":6574:6596   */\n      swap1\n      pop\n        /* \"#utility.yul\":6451:6603   */\n      swap2\n      swap1\n      pop\n      jump\t// out\n        /* \"#utility.yul\":6609:6686   */\n    tag_119:\n        /* \"#utility.yul\":6646:6653   */\n      0x00\n        /* \"#utility.yul\":6675:6680   */\n      dup2\n        /* \"#utility.yul\":6664:6680   */\n      swap1\n      pop\n        /* \"#utility.yul\":6609:6686   */\n      swap2\n      swap1\n      pop\n      jump\t// out\n        /* \"#utility.yul\":6692:6800   */\n    tag_120:\n        /* \"#utility.yul\":6769:6793   */\n      tag_224\n        /* \"#utility.yul\":6787:6792   */\n      dup2\n        /* \"#utility.yul\":6769:6793   */\n      tag_119\n      jump\t// in\n    tag_224:\n        /* \"#utility.yul\":6764:6767   */\n      dup3\n        /* \"#utility.yul\":6757:6794   */\n      mstore\n        /* \"#utility.yul\":6692:6800   */\n      pop\n      pop\n      jump\t// out\n        /* \"#utility.yul\":6806:6932   */\n    tag_121:\n        /* \"#utility.yul\":6843:6850   */\n      0x00\n        /* \"#utility.yul\":6883:6925   */\n      0xffffffffffffffffffffffffffffffffffffffff\n        /* \"#utility.yul\":6876:6881   */\n      dup3\n        /* \"#utility.yul\":6872:6926   */\n      and\n        /* \"#utility.yul\":6861:6926   */\n      swap1\n      pop\n        /* \"#utility.yul\":6806:6932   */\n      swap2\n      swap1\n      pop\n      jump\t// out\n        /* \"#utility.yul\":6938:7042   */\n    tag_122:\n        /* \"#utility.yul\":6983:6990   */\n      0x00\n        /* \"#utility.yul\":7012:7036   */\n      tag_227\n        /* \"#utility.yul\":7030:7035   */\n      dup3\n        /* \"#utility.yul\":7012:7036   */\n      tag_121\n      jump\t// in\n    tag_227:\n        /* \"#utility.yul\":7001:7036   */\n      swap1\n      pop\n        /* \"#utility.yul\":6938:7042   */\n      swap2\n      swap1\n      pop\n      jump\t// out\n        /* \"#utility.yul\":7048:7180   */\n    tag_123:\n        /* \"#utility.yul\":7141:7173   */\n      tag_229\n        /* \"#utility.yul\":7167:7172   */\n      dup2\n        /* \"#utility.yul\":7141:7173   */\n      tag_122\n      jump\t// in\n    tag_229:\n        /* \"#utility.yul\":7136:7139   */\n      dup3\n        /* \"#utility.yul\":7129:7174   */\n      mstore\n        /* \"#utility.yul\":7048:7180   */\n      pop\n      pop\n      jump\t// out\n        /* \"#utility.yul\":7232:8365   */\n    tag_124:\n        /* \"#utility.yul\":7331:7334   */\n      0x00\n        /* \"#utility.yul\":7367:7371   */\n      0xa0\n        /* \"#utility.yul\":7362:7365   */\n      dup4\n        /* \"#utility.yul\":7358:7372   */\n      add\n        /* \"#utility.yul\":7456:7460   */\n      0x00\n        /* \"#utility.yul\":7449:7454   */\n      dup4\n        /* \"#utility.yul\":7445:7461   */\n      add\n        /* \"#utility.yul\":7439:7462   */\n      mload\n        /* \"#utility.yul\":7475:7538   */\n      tag_231\n        /* \"#utility.yul\":7532:7536   */\n      0x00\n        /* \"#utility.yul\":7527:7530   */\n      dup7\n        /* \"#utility.yul\":7523:7537   */\n      add\n        /* \"#utility.yul\":7509:7521   */\n      dup3\n        /* \"#utility.yul\":7475:7538   */\n      tag_120\n      jump\t// in\n    tag_231:\n        /* \"#utility.yul\":7382:7548   */\n      pop\n        /* \"#utility.yul\":7630:7634   */\n      0x20\n        /* \"#utility.yul\":7623:7628   */\n      dup4\n        /* \"#utility.yul\":7619:7635   */\n      add\n        /* \"#utility.yul\":7613:7636   */\n      mload\n        /* \"#utility.yul\":7683:7686   */\n      dup5\n        /* \"#utility.yul\":7677:7681   */\n      dup3\n        /* \"#utility.yul\":7673:7687   */\n      sub\n        /* \"#utility.yul\":7666:7670   */\n      0x20\n        /* \"#utility.yul\":7661:7664   */\n      dup7\n        /* \"#utility.yul\":7657:7671   */\n      add\n        /* \"#utility.yul\":7650:7688   */\n      mstore\n        /* \"#utility.yul\":7709:7782   */\n      tag_232\n        /* \"#utility.yul\":7777:7781   */\n      dup3\n        /* \"#utility.yul\":7763:7775   */\n      dup3\n        /* \"#utility.yul\":7709:7782   */\n      tag_100\n      jump\t// in\n    tag_232:\n        /* \"#utility.yul\":7701:7782   */\n      swap2\n      pop\n        /* \"#utility.yul\":7558:7793   */\n      pop\n        /* \"#utility.yul\":7878:7882   */\n      0x40\n        /* \"#utility.yul\":7871:7876   */\n      dup4\n        /* \"#utility.yul\":7867:7883   */\n      add\n        /* \"#utility.yul\":7861:7884   */\n      mload\n        /* \"#utility.yul\":7897:7976   */\n      tag_233\n        /* \"#utility.yul\":7970:7974   */\n      0x40\n        /* \"#utility.yul\":7965:7968   */\n      dup7\n        /* \"#utility.yul\":7961:7975   */\n      add\n        /* \"#utility.yul\":7947:7959   */\n      dup3\n        /* \"#utility.yul\":7897:7976   */\n      tag_123\n      jump\t// in\n    tag_233:\n        /* \"#utility.yul\":7803:7986   */\n      pop\n        /* \"#utility.yul\":8071:8075   */\n      0x60\n        /* \"#utility.yul\":8064:8069   */\n      dup4\n        /* \"#utility.yul\":8060:8076   */\n      add\n        /* \"#utility.yul\":8054:8077   */\n      mload\n        /* \"#utility.yul\":8090:8153   */\n      tag_234\n        /* \"#utility.yul\":8147:8151   */\n      0x60\n        /* \"#utility.yul\":8142:8145   */\n      dup7\n        /* \"#utility.yul\":8138:8152   */\n      add\n        /* \"#utility.yul\":8124:8136   */\n      dup3\n        /* \"#utility.yul\":8090:8153   */\n      tag_120\n      jump\t// in\n    tag_234:\n        /* \"#utility.yul\":7996:8163   */\n      pop\n        /* \"#utility.yul\":8246:8250   */\n      0x80\n        /* \"#utility.yul\":8239:8244   */\n      dup4\n        /* \"#utility.yul\":8235:8251   */\n      add\n        /* \"#utility.yul\":8229:8252   */\n      mload\n        /* \"#utility.yul\":8265:8328   */\n      tag_235\n        /* \"#utility.yul\":8322:8326   */\n      0x80\n        /* \"#utility.yul\":8317:8320   */\n      dup7\n        /* \"#utility.yul\":8313:8327   */\n      add\n        /* \"#utility.yul\":8299:8311   */\n      dup3\n        /* \"#utility.yul\":8265:8328   */\n      tag_120\n      jump\t// in\n    tag_235:\n        /* \"#utility.yul\":8173:8338   */\n      pop\n        /* \"#utility.yul\":8355:8359   */\n      dup1\n        /* \"#utility.yul\":8348:8359   */\n      swap2\n      pop\n        /* \"#utility.yul\":7336:8365   */\n      pop\n        /* \"#utility.yul\":7232:8365   */\n      swap3\n      swap2\n      pop\n      pop\n      jump\t// out\n        /* \"#utility.yul\":8371:8607   */\n    tag_125:\n        /* \"#utility.yul\":8480:8490   */\n      0x00\n        /* \"#utility.yul\":8515:8601   */\n      tag_237\n        /* \"#utility.yul\":8597:8600   */\n      dup4\n        /* \"#utility.yul\":8589:8595   */\n      dup4\n        /* \"#utility.yul\":8515:8601   */\n      tag_124\n      jump\t// in\n    tag_237:\n        /* \"#utility.yul\":8501:8601   */\n      swap1\n      pop\n        /* \"#utility.yul\":8371:8607   */\n      swap3\n      swap2\n      pop\n      pop\n      jump\t// out\n        /* \"#utility.yul\":8613:8746   */\n    tag_126:\n        /* \"#utility.yul\":8703:8707   */\n      0x00\n        /* \"#utility.yul\":8735:8739   */\n      0x20\n        /* \"#utility.yul\":8730:8733   */\n      dup3\n        /* \"#utility.yul\":8726:8740   */\n      add\n        /* \"#utility.yul\":8718:8740   */\n      swap1\n      pop\n        /* \"#utility.yul\":8613:8746   */\n      swap2\n      swap1\n      pop\n      jump\t// out\n        /* \"#utility.yul\":8802:9873   */\n    tag_127:\n        /* \"#utility.yul\":8961:8964   */\n      0x00\n        /* \"#utility.yul\":8990:9064   */\n      tag_240\n        /* \"#utility.yul\":9058:9063   */\n      dup3\n        /* \"#utility.yul\":8990:9064   */\n      tag_116\n      jump\t// in\n    tag_240:\n        /* \"#utility.yul\":9080:9186   */\n      tag_241\n        /* \"#utility.yul\":9179:9185   */\n      dup2\n        /* \"#utility.yul\":9174:9177   */\n      dup6\n        /* \"#utility.yul\":9080:9186   */\n      tag_117\n      jump\t// in\n    tag_241:\n        /* \"#utility.yul\":9073:9186   */\n      swap4\n      pop\n        /* \"#utility.yul\":9212:9215   */\n      dup4\n        /* \"#utility.yul\":9257:9261   */\n      0x20\n        /* \"#utility.yul\":9249:9255   */\n      dup3\n        /* \"#utility.yul\":9245:9262   */\n      mul\n        /* \"#utility.yul\":9240:9243   */\n      dup6\n        /* \"#utility.yul\":9236:9263   */\n      add\n        /* \"#utility.yul\":9287:9363   */\n      tag_242\n        /* \"#utility.yul\":9357:9362   */\n      dup6\n        /* \"#utility.yul\":9287:9363   */\n      tag_118\n      jump\t// in\n    tag_242:\n        /* \"#utility.yul\":9386:9393   */\n      dup1\n        /* \"#utility.yul\":9417:9418   */\n      0x00\n        /* \"#utility.yul\":9402:9828   */\n    tag_243:\n        /* \"#utility.yul\":9427:9433   */\n      dup6\n        /* \"#utility.yul\":9424:9425   */\n      dup2\n        /* \"#utility.yul\":9421:9434   */\n      lt\n        /* \"#utility.yul\":9402:9828   */\n      iszero\n      tag_245\n      jumpi\n        /* \"#utility.yul\":9498:9507   */\n      dup5\n        /* \"#utility.yul\":9492:9496   */\n      dup5\n        /* \"#utility.yul\":9488:9508   */\n      sub\n        /* \"#utility.yul\":9483:9486   */\n      dup10\n        /* \"#utility.yul\":9476:9509   */\n      mstore\n        /* \"#utility.yul\":9549:9555   */\n      dup2\n        /* \"#utility.yul\":9543:9556   */\n      mload\n        /* \"#utility.yul\":9577:9681   */\n      tag_246\n        /* \"#utility.yul\":9676:9680   */\n      dup6\n        /* \"#utility.yul\":9661:9674   */\n      dup3\n        /* \"#utility.yul\":9577:9681   */\n      tag_125\n      jump\t// in\n    tag_246:\n        /* \"#utility.yul\":9569:9681   */\n      swap5\n      pop\n        /* \"#utility.yul\":9704:9784   */\n      tag_247\n        /* \"#utility.yul\":9777:9783   */\n      dup4\n        /* \"#utility.yul\":9704:9784   */\n      tag_126\n      jump\t// in\n    tag_247:\n        /* \"#utility.yul\":9694:9784   */\n      swap3\n      pop\n        /* \"#utility.yul\":9813:9817   */\n      0x20\n        /* \"#utility.yul\":9808:9811   */\n      dup11\n        /* \"#utility.yul\":9804:9818   */\n      add\n        /* \"#utility.yul\":9797:9818   */\n      swap10\n      pop\n        /* \"#utility.yul\":9462:9828   */\n      pop\n        /* \"#utility.yul\":9449:9450   */\n      0x01\n        /* \"#utility.yul\":9446:9447   */\n      dup2\n        /* \"#utility.yul\":9442:9451   */\n      add\n        /* \"#utility.yul\":9437:9451   */\n      swap1\n      pop\n        /* \"#utility.yul\":9402:9828   */\n      jump(tag_243)\n    tag_245:\n        /* \"#utility.yul\":9406:9420   */\n      pop\n        /* \"#utility.yul\":9844:9848   */\n      dup3\n        /* \"#utility.yul\":9837:9848   */\n      swap8\n      pop\n        /* \"#utility.yul\":9864:9867   */\n      dup8\n        /* \"#utility.yul\":9857:9867   */\n      swap6\n      pop\n        /* \"#utility.yul\":8966:9873   */\n      pop\n      pop\n      pop\n      pop\n      pop\n        /* \"#utility.yul\":8802:9873   */\n      swap3\n      swap2\n      pop\n      pop\n      jump\t// out\n        /* \"#utility.yul\":9879:10332   */\n    tag_22:\n        /* \"#utility.yul\":10062:10066   */\n      0x00\n        /* \"#utility.yul\":10100:10102   */\n      0x20\n        /* \"#utility.yul\":10089:10098   */\n      dup3\n        /* \"#utility.yul\":10085:10103   */\n      add\n        /* \"#utility.yul\":10077:10103   */\n      swap1\n      pop\n        /* \"#utility.yul\":10149:10158   */\n      dup2\n        /* \"#utility.yul\":10143:10147   */\n      dup2\n        /* \"#utility.yul\":10139:10159   */\n      sub\n        /* \"#utility.yul\":10135:10136   */\n      0x00\n        /* \"#utility.yul\":10124:10133   */\n      dup4\n        /* \"#utility.yul\":10120:10137   */\n      add\n        /* \"#utility.yul\":10113:10160   */\n      mstore\n        /* \"#utility.yul\":10177:10325   */\n      tag_249\n        /* \"#utility.yul\":10320:10324   */\n      dup2\n        /* \"#utility.yul\":10311:10317   */\n      dup5\n        /* \"#utility.yul\":10177:10325   */\n      tag_127\n      jump\t// in\n    tag_249:\n        /* \"#utility.yul\":10169:10325   */\n      swap1\n      pop\n        /* \"#utility.yul\":9879:10332   */\n      swap3\n      swap2\n      pop\n      pop\n      jump\t// out\n        /* \"#utility.yul\":10338:10456   */\n    tag_128:\n        /* \"#utility.yul\":10425:10449   */\n      tag_251\n        /* \"#utility.yul\":10443:10448   */\n      dup2\n        /* \"#utility.yul\":10425:10449   */\n      tag_119\n      jump\t// in\n    tag_251:\n        /* \"#utility.yul\":10420:10423   */\n      dup3\n        /* \"#utility.yul\":10413:10450   */\n      mstore\n        /* \"#utility.yul\":10338:10456   */\n      pop\n      pop\n      jump\t// out\n        /* \"#utility.yul\":10462:10684   */\n    tag_26:\n        /* \"#utility.yul\":10555:10559   */\n      0x00\n        /* \"#utility.yul\":10593:10595   */\n      0x20\n        /* \"#utility.yul\":10582:10591   */\n      dup3\n        /* \"#utility.yul\":10578:10596   */\n      add\n        /* \"#utility.yul\":10570:10596   */\n      swap1\n      pop\n        /* \"#utility.yul\":10606:10677   */\n      tag_253\n        /* \"#utility.yul\":10674:10675   */\n      0x00\n        /* \"#utility.yul\":10663:10672   */\n      dup4\n        /* \"#utility.yul\":10659:10676   */\n      add\n        /* \"#utility.yul\":10650:10656   */\n      dup5\n        /* \"#utility.yul\":10606:10677   */\n      tag_128\n      jump\t// in\n    tag_253:\n        /* \"#utility.yul\":10462:10684   */\n      swap3\n      swap2\n      pop\n      pop\n      jump\t// out\n        /* \"#utility.yul\":10690:10870   */\n    tag_129:\n        /* \"#utility.yul\":10738:10815   */\n      0x4e487b7100000000000000000000000000000000000000000000000000000000\n        /* \"#utility.yul\":10735:10736   */\n      0x00\n        /* \"#utility.yul\":10728:10816   */\n      mstore\n        /* \"#utility.yul\":10835:10839   */\n      0x22\n        /* \"#utility.yul\":10832:10833   */\n      0x04\n        /* \"#utility.yul\":10825:10840   */\n      mstore\n        /* \"#utility.yul\":10859:10863   */\n      0x24\n        /* \"#utility.yul\":10856:10857   */\n      0x00\n        /* \"#utility.yul\":10849:10864   */\n      revert\n        /* \"#utility.yul\":10876:11196   */\n    tag_41:\n        /* \"#utility.yul\":10920:10926   */\n      0x00\n        /* \"#utility.yul\":10957:10958   */\n      0x02\n        /* \"#utility.yul\":10951:10955   */\n      dup3\n        /* \"#utility.yul\":10947:10959   */\n      div\n        /* \"#utility.yul\":10937:10959   */\n      swap1\n      pop\n        /* \"#utility.yul\":11004:11005   */\n      0x01\n        /* \"#utility.yul\":10998:11002   */\n      dup3\n        /* \"#utility.yul\":10994:11006   */\n      and\n        /* \"#utility.yul\":11025:11043   */\n      dup1\n        /* \"#utility.yul\":11015:11096   */\n      tag_256\n      jumpi\n        /* \"#utility.yul\":11081:11085   */\n      0x7f\n        /* \"#utility.yul\":11073:11079   */\n      dup3\n        /* \"#utility.yul\":11069:11086   */\n      and\n        /* \"#utility.yul\":11059:11086   */\n      swap2\n      pop\n        /* \"#utility.yul\":11015:11096   */\n    tag_256:\n        /* \"#utility.yul\":11143:11145   */\n      0x20\n        /* \"#utility.yul\":11135:11141   */\n      dup3\n        /* \"#utility.yul\":11132:11146   */\n      lt\n        /* \"#utility.yul\":11112:11130   */\n      dup2\n        /* \"#utility.yul\":11109:11147   */\n      sub\n        /* \"#utility.yul\":11106:11190   */\n      tag_257\n      jumpi\n        /* \"#utility.yul\":11162:11180   */\n      tag_258\n      tag_129\n      jump\t// in\n    tag_258:\n        /* \"#utility.yul\":11106:11190   */\n    tag_257:\n        /* \"#utility.yul\":10927:11196   */\n      pop\n        /* \"#utility.yul\":10876:11196   */\n      swap2\n      swap1\n      pop\n      jump\t// out\n        /* \"#utility.yul\":11202:11350   */\n    tag_130:\n        /* \"#utility.yul\":11304:11315   */\n      0x00\n        /* \"#utility.yul\":11341:11344   */\n      dup2\n        /* \"#utility.yul\":11326:11344   */\n      swap1\n      pop\n        /* \"#utility.yul\":11202:11350   */\n      swap3\n      swap2\n      pop\n      pop\n      jump\t// out\n        /* \"#utility.yul\":11356:11746   */\n    tag_131:\n        /* \"#utility.yul\":11462:11465   */\n      0x00\n        /* \"#utility.yul\":11490:11529   */\n      tag_261\n        /* \"#utility.yul\":11523:11528   */\n      dup3\n        /* \"#utility.yul\":11490:11529   */\n      tag_96\n      jump\t// in\n    tag_261:\n        /* \"#utility.yul\":11545:11634   */\n      tag_262\n        /* \"#utility.yul\":11627:11633   */\n      dup2\n        /* \"#utility.yul\":11622:11625   */\n      dup6\n        /* \"#utility.yul\":11545:11634   */\n      tag_130\n      jump\t// in\n    tag_262:\n        /* \"#utility.yul\":11538:11634   */\n      swap4\n      pop\n        /* \"#utility.yul\":11643:11708   */\n      tag_263\n        /* \"#utility.yul\":11701:11707   */\n      dup2\n        /* \"#utility.yul\":11696:11699   */\n      dup6\n        /* \"#utility.yul\":11689:11693   */\n      0x20\n        /* \"#utility.yul\":11682:11687   */\n      dup7\n        /* \"#utility.yul\":11678:11694   */\n      add\n        /* \"#utility.yul\":11643:11708   */\n      tag_98\n      jump\t// in\n    tag_263:\n        /* \"#utility.yul\":11733:11739   */\n      dup1\n        /* \"#utility.yul\":11728:11731   */\n      dup5\n        /* \"#utility.yul\":11724:11740   */\n      add\n        /* \"#utility.yul\":11717:11740   */\n      swap2\n      pop\n        /* \"#utility.yul\":11466:11746   */\n      pop\n        /* \"#utility.yul\":11356:11746   */\n      swap3\n      swap2\n      pop\n      pop\n      jump\t// out\n        /* \"#utility.yul\":11752:12027   */\n    tag_48:\n        /* \"#utility.yul\":11884:11887   */\n      0x00\n        /* \"#utility.yul\":11906:12001   */\n      tag_265\n        /* \"#utility.yul\":11997:12000   */\n      dup3\n        /* \"#utility.yul\":11988:11994   */\n      dup5\n        /* \"#utility.yul\":11906:12001   */\n      tag_131\n      jump\t// in\n    tag_265:\n        /* \"#utility.yul\":11899:12001   */\n      swap2\n      pop\n        /* \"#utility.yul\":12018:12021   */\n      dup2\n        /* \"#utility.yul\":12011:12021   */\n      swap1\n      pop\n        /* \"#utility.yul\":11752:12027   */\n      swap3\n      swap2\n      pop\n      pop\n      jump\t// out\n        /* \"#utility.yul\":12033:12202   */\n    tag_132:\n        /* \"#utility.yul\":12117:12128   */\n      0x00\n        /* \"#utility.yul\":12151:12157   */\n      dup3\n        /* \"#utility.yul\":12146:12149   */\n      dup3\n        /* \"#utility.yul\":12139:12158   */\n      mstore\n        /* \"#utility.yul\":12191:12195   */\n      0x20\n        /* \"#utility.yul\":12186:12189   */\n      dup3\n        /* \"#utility.yul\":12182:12196   */\n      add\n        /* \"#utility.yul\":12167:12196   */\n      swap1\n      pop\n        /* \"#utility.yul\":12033:12202   */\n      swap3\n      swap2\n      pop\n      pop\n      jump\t// out\n        /* \"#utility.yul\":12208:12382   */\n    tag_133:\n        /* \"#utility.yul\":12348:12374   */\n      0x706c6561736520636865636b20796f75722073636f72652e0000000000000000\n        /* \"#utility.yul\":12344:12345   */\n      0x00\n        /* \"#utility.yul\":12336:12342   */\n      dup3\n        /* \"#utility.yul\":12332:12346   */\n      add\n        /* \"#utility.yul\":12325:12375   */\n      mstore\n        /* \"#utility.yul\":12208:12382   */\n      pop\n      jump\t// out\n        /* \"#utility.yul\":12388:12754   */\n    tag_134:\n        /* \"#utility.yul\":12530:12533   */\n      0x00\n        /* \"#utility.yul\":12551:12618   */\n      tag_269\n        /* \"#utility.yul\":12615:12617   */\n      0x18\n        /* \"#utility.yul\":12610:12613   */\n      dup4\n        /* \"#utility.yul\":12551:12618   */\n      tag_132\n      jump\t// in\n    tag_269:\n        /* \"#utility.yul\":12544:12618   */\n      swap2\n      pop\n        /* \"#utility.yul\":12627:12720   */\n      tag_270\n        /* \"#utility.yul\":12716:12719   */\n      dup3\n        /* \"#utility.yul\":12627:12720   */\n      tag_133\n      jump\t// in\n    tag_270:\n        /* \"#utility.yul\":12745:12747   */\n      0x20\n        /* \"#utility.yul\":12740:12743   */\n      dup3\n        /* \"#utility.yul\":12736:12748   */\n      add\n        /* \"#utility.yul\":12729:12748   */\n      swap1\n      pop\n        /* \"#utility.yul\":12388:12754   */\n      swap2\n      swap1\n      pop\n      jump\t// out\n        /* \"#utility.yul\":12760:13179   */\n    tag_51:\n        /* \"#utility.yul\":12926:12930   */\n      0x00\n        /* \"#utility.yul\":12964:12966   */\n      0x20\n        /* \"#utility.yul\":12953:12962   */\n      dup3\n        /* \"#utility.yul\":12949:12967   */\n      add\n        /* \"#utility.yul\":12941:12967   */\n      swap1\n      pop\n        /* \"#utility.yul\":13013:13022   */\n      dup2\n        /* \"#utility.yul\":13007:13011   */\n      dup2\n        /* \"#utility.yul\":13003:13023   */\n      sub\n        /* \"#utility.yul\":12999:13000   */\n      0x00\n        /* \"#utility.yul\":12988:12997   */\n      dup4\n        /* \"#utility.yul\":12984:13001   */\n      add\n        /* \"#utility.yul\":12977:13024   */\n      mstore\n        /* \"#utility.yul\":13041:13172   */\n      tag_272\n        /* \"#utility.yul\":13167:13171   */\n      dup2\n        /* \"#utility.yul\":13041:13172   */\n      tag_134\n      jump\t// in\n    tag_272:\n        /* \"#utility.yul\":13033:13172   */\n      swap1\n      pop\n        /* \"#utility.yul\":12760:13179   */\n      swap2\n      swap1\n      pop\n      jump\t// out\n        /* \"#utility.yul\":13185:13365   */\n    tag_135:\n        /* \"#utility.yul\":13233:13310   */\n      0x4e487b7100000000000000000000000000000000000000000000000000000000\n        /* \"#utility.yul\":13230:13231   */\n      0x00\n        /* \"#utility.yul\":13223:13311   */\n      mstore\n        /* \"#utility.yul\":13330:13334   */\n      0x11\n        /* \"#utility.yul\":13327:13328   */\n      0x04\n        /* \"#utility.yul\":13320:13335   */\n      mstore\n        /* \"#utility.yul\":13354:13358   */\n      0x24\n        /* \"#utility.yul\":13351:13352   */\n      0x00\n        /* \"#utility.yul\":13344:13359   */\n      revert\n        /* \"#utility.yul\":13371:13565   */\n    tag_57:\n        /* \"#utility.yul\":13411:13415   */\n      0x00\n        /* \"#utility.yul\":13431:13451   */\n      tag_275\n        /* \"#utility.yul\":13449:13450   */\n      dup3\n        /* \"#utility.yul\":13431:13451   */\n      tag_119\n      jump\t// in\n    tag_275:\n        /* \"#utility.yul\":13426:13451   */\n      swap2\n      pop\n        /* \"#utility.yul\":13465:13485   */\n      tag_276\n        /* \"#utility.yul\":13483:13484   */\n      dup4\n        /* \"#utility.yul\":13465:13485   */\n      tag_119\n      jump\t// in\n    tag_276:\n        /* \"#utility.yul\":13460:13485   */\n      swap3\n      pop\n        /* \"#utility.yul\":13509:13510   */\n      dup3\n        /* \"#utility.yul\":13506:13507   */\n      dup3\n        /* \"#utility.yul\":13502:13511   */\n      sub\n        /* \"#utility.yul\":13494:13511   */\n      swap1\n      pop\n        /* \"#utility.yul\":13533:13534   */\n      dup2\n        /* \"#utility.yul\":13527:13531   */\n      dup2\n        /* \"#utility.yul\":13524:13535   */\n      gt\n        /* \"#utility.yul\":13521:13558   */\n      iszero\n      tag_277\n      jumpi\n        /* \"#utility.yul\":13538:13556   */\n      tag_278\n      tag_135\n      jump\t// in\n    tag_278:\n        /* \"#utility.yul\":13521:13558   */\n    tag_277:\n        /* \"#utility.yul\":13371:13565   */\n      swap3\n      swap2\n      pop\n      pop\n      jump\t// out\n        /* \"#utility.yul\":13571:13745   */\n    tag_136:\n        /* \"#utility.yul\":13711:13737   */\n      0x706c65617365207472616e7366657220312065746865722e0000000000000000\n        /* \"#utility.yul\":13707:13708   */\n      0x00\n        /* \"#utility.yul\":13699:13705   */\n      dup3\n        /* \"#utility.yul\":13695:13709   */\n      add\n        /* \"#utility.yul\":13688:13738   */\n      mstore\n        /* \"#utility.yul\":13571:13745   */\n      pop\n      jump\t// out\n        /* \"#utility.yul\":13751:14117   */\n    tag_137:\n        /* \"#utility.yul\":13893:13896   */\n      0x00\n        /* \"#utility.yul\":13914:13981   */\n      tag_281\n        /* \"#utility.yul\":13978:13980   */\n      0x18\n        /* \"#utility.yul\":13973:13976   */\n      dup4\n        /* \"#utility.yul\":13914:13981   */\n      tag_132\n      jump\t// in\n    tag_281:\n        /* \"#utility.yul\":13907:13981   */\n      swap2\n      pop\n        /* \"#utility.yul\":13990:14083   */\n      tag_282\n        /* \"#utility.yul\":14079:14082   */\n      dup3\n        /* \"#utility.yul\":13990:14083   */\n      tag_136\n      jump\t// in\n    tag_282:\n        /* \"#utility.yul\":14108:14110   */\n      0x20\n        /* \"#utility.yul\":14103:14106   */\n      dup3\n        /* \"#utility.yul\":14099:14111   */\n      add\n        /* \"#utility.yul\":14092:14111   */\n      swap1\n      pop\n        /* \"#utility.yul\":13751:14117   */\n      swap2\n      swap1\n      pop\n      jump\t// out\n        /* \"#utility.yul\":14123:14542   */\n    tag_70:\n        /* \"#utility.yul\":14289:14293   */\n      0x00\n        /* \"#utility.yul\":14327:14329   */\n      0x20\n        /* \"#utility.yul\":14316:14325   */\n      dup3\n        /* \"#utility.yul\":14312:14330   */\n      add\n        /* \"#utility.yul\":14304:14330   */\n      swap1\n      pop\n        /* \"#utility.yul\":14376:14385   */\n      dup2\n        /* \"#utility.yul\":14370:14374   */\n      dup2\n        /* \"#utility.yul\":14366:14386   */\n      sub\n        /* \"#utility.yul\":14362:14363   */\n      0x00\n        /* \"#utility.yul\":14351:14360   */\n      dup4\n        /* \"#utility.yul\":14347:14364   */\n      add\n        /* \"#utility.yul\":14340:14387   */\n      mstore\n        /* \"#utility.yul\":14404:14535   */\n      tag_284\n        /* \"#utility.yul\":14530:14534   */\n      dup2\n        /* \"#utility.yul\":14404:14535   */\n      tag_137\n      jump\t// in\n    tag_284:\n        /* \"#utility.yul\":14396:14535   */\n      swap1\n      pop\n        /* \"#utility.yul\":14123:14542   */\n      swap2\n      swap1\n      pop\n      jump\t// out\n        /* \"#utility.yul\":14548:14725   */\n    tag_138:\n        /* \"#utility.yul\":14688:14717   */\n      0x706c65617365207472616e7366657220302e30312065746865722e0000000000\n        /* \"#utility.yul\":14684:14685   */\n      0x00\n        /* \"#utility.yul\":14676:14682   */\n      dup3\n        /* \"#utility.yul\":14672:14686   */\n      add\n        /* \"#utility.yul\":14665:14718   */\n      mstore\n        /* \"#utility.yul\":14548:14725   */\n      pop\n      jump\t// out\n        /* \"#utility.yul\":14731:15097   */\n    tag_139:\n        /* \"#utility.yul\":14873:14876   */\n      0x00\n        /* \"#utility.yul\":14894:14961   */\n      tag_287\n        /* \"#utility.yul\":14958:14960   */\n      0x1b\n        /* \"#utility.yul\":14953:14956   */\n      dup4\n        /* \"#utility.yul\":14894:14961   */\n      tag_132\n      jump\t// in\n    tag_287:\n        /* \"#utility.yul\":14887:14961   */\n      swap2\n      pop\n        /* \"#utility.yul\":14970:15063   */\n      tag_288\n        /* \"#utility.yul\":15059:15062   */\n      dup3\n        /* \"#utility.yul\":14970:15063   */\n      tag_138\n      jump\t// in\n    tag_288:\n        /* \"#utility.yul\":15088:15090   */\n      0x20\n        /* \"#utility.yul\":15083:15086   */\n      dup3\n        /* \"#utility.yul\":15079:15091   */\n      add\n        /* \"#utility.yul\":15072:15091   */\n      swap1\n      pop\n        /* \"#utility.yul\":14731:15097   */\n      swap2\n      swap1\n      pop\n      jump\t// out\n        /* \"#utility.yul\":15103:15522   */\n    tag_74:\n        /* \"#utility.yul\":15269:15273   */\n      0x00\n        /* \"#utility.yul\":15307:15309   */\n      0x20\n        /* \"#utility.yul\":15296:15305   */\n      dup3\n        /* \"#utility.yul\":15292:15310   */\n      add\n        /* \"#utility.yul\":15284:15310   */\n      swap1\n      pop\n        /* \"#utility.yul\":15356:15365   */\n      dup2\n        /* \"#utility.yul\":15350:15354   */\n      dup2\n        /* \"#utility.yul\":15346:15366   */\n      sub\n        /* \"#utility.yul\":15342:15343   */\n      0x00\n        /* \"#utility.yul\":15331:15340   */\n      dup4\n        /* \"#utility.yul\":15327:15344   */\n      add\n        /* \"#utility.yul\":15320:15367   */\n      mstore\n        /* \"#utility.yul\":15384:15515   */\n      tag_290\n        /* \"#utility.yul\":15510:15514   */\n      dup2\n        /* \"#utility.yul\":15384:15515   */\n      tag_139\n      jump\t// in\n    tag_290:\n        /* \"#utility.yul\":15376:15515   */\n      swap1\n      pop\n        /* \"#utility.yul\":15103:15522   */\n      swap2\n      swap1\n      pop\n      jump\t// out\n        /* \"#utility.yul\":15528:15761   */\n    tag_76:\n        /* \"#utility.yul\":15567:15570   */\n      0x00\n        /* \"#utility.yul\":15590:15614   */\n      tag_292\n        /* \"#utility.yul\":15608:15613   */\n      dup3\n        /* \"#utility.yul\":15590:15614   */\n      tag_119\n      jump\t// in\n    tag_292:\n        /* \"#utility.yul\":15581:15614   */\n      swap2\n      pop\n        /* \"#utility.yul\":15636:15702   */\n      0xffffffffffffffffffffffffffffffffffffffffffffffffffffffffffffffff\n        /* \"#utility.yul\":15629:15634   */\n      dup3\n        /* \"#utility.yul\":15626:15703   */\n      sub\n        /* \"#utility.yul\":15623:15726   */\n      tag_293\n      jumpi\n        /* \"#utility.yul\":15706:15724   */\n      tag_294\n      tag_135\n      jump\t// in\n    tag_294:\n        /* \"#utility.yul\":15623:15726   */\n    tag_293:\n        /* \"#utility.yul\":15753:15754   */\n      0x01\n        /* \"#utility.yul\":15746:15751   */\n      dup3\n        /* \"#utility.yul\":15742:15755   */\n      add\n        /* \"#utility.yul\":15735:15755   */\n      swap1\n      pop\n        /* \"#utility.yul\":15528:15761   */\n      swap2\n      swap1\n      pop\n      jump\t// out\n        /* \"#utility.yul\":15767:15947   */\n    tag_79:\n        /* \"#utility.yul\":15815:15892   */\n      0x4e487b7100000000000000000000000000000000000000000000000000000000\n        /* \"#utility.yul\":15812:15813   */\n      0x00\n        /* \"#utility.yul\":15805:15893   */\n      mstore\n        /* \"#utility.yul\":15912:15916   */\n      0x32\n        /* \"#utility.yul\":15909:15910   */\n      0x04\n        /* \"#utility.yul\":15902:15917   */\n      mstore\n        /* \"#utility.yul\":15936:15940   */\n      0x24\n        /* \"#utility.yul\":15933:15934   */\n      0x00\n        /* \"#utility.yul\":15926:15941   */\n      revert\n        /* \"#utility.yul\":15953:16094   */\n    tag_140:\n        /* \"#utility.yul\":16002:16006   */\n      0x00\n        /* \"#utility.yul\":16025:16028   */\n      dup2\n        /* \"#utility.yul\":16017:16028   */\n      swap1\n      pop\n        /* \"#utility.yul\":16048:16051   */\n      dup2\n        /* \"#utility.yul\":16045:16046   */\n      0x00\n        /* \"#utility.yul\":16038:16052   */\n      mstore\n        /* \"#utility.yul\":16082:16086   */\n      0x20\n        /* \"#utility.yul\":16079:16080   */\n      0x00\n        /* \"#utility.yul\":16069:16087   */\n      keccak256\n        /* \"#utility.yul\":16061:16087   */\n      swap1\n      pop\n        /* \"#utility.yul\":15953:16094   */\n      swap2\n      swap1\n      pop\n      jump\t// out\n        /* \"#utility.yul\":16100:16193   */\n    tag_141:\n        /* \"#utility.yul\":16137:16143   */\n      0x00\n        /* \"#utility.yul\":16184:16186   */\n      0x20\n        /* \"#utility.yul\":16179:16181   */\n      0x1f\n        /* \"#utility.yul\":16172:16177   */\n      dup4\n        /* \"#utility.yul\":16168:16182   */\n      add\n        /* \"#utility.yul\":16164:16187   */\n      div\n        /* \"#utility.yul\":16154:16187   */\n      swap1\n      pop\n        /* \"#utility.yul\":16100:16193   */\n      swap2\n      swap1\n      pop\n      jump\t// out\n        /* \"#utility.yul\":16199:16306   */\n    tag_142:\n        /* \"#utility.yul\":16243:16251   */\n      0x00\n        /* \"#utility.yul\":16293:16298   */\n      dup3\n        /* \"#utility.yul\":16287:16291   */\n      dup3\n        /* \"#utility.yul\":16283:16299   */\n      shl\n        /* \"#utility.yul\":16262:16299   */\n      swap1\n      pop\n        /* \"#utility.yul\":16199:16306   */\n      swap3\n      swap2\n      pop\n      pop\n      jump\t// out\n        /* \"#utility.yul\":16312:16705   */\n    tag_143:\n        /* \"#utility.yul\":16381:16387   */\n      0x00\n        /* \"#utility.yul\":16431:16432   */\n      0x08\n        /* \"#utility.yul\":16419:16429   */\n      dup4\n        /* \"#utility.yul\":16415:16433   */\n      mul\n        /* \"#utility.yul\":16454:16551   */\n      tag_300\n        /* \"#utility.yul\":16484:16550   */\n      0xffffffffffffffffffffffffffffffffffffffffffffffffffffffffffffffff\n        /* \"#utility.yul\":16473:16482   */\n      dup3\n        /* \"#utility.yul\":16454:16551   */\n      tag_142\n      jump\t// in\n    tag_300:\n        /* \"#utility.yul\":16572:16611   */\n      tag_301\n        /* \"#utility.yul\":16602:16610   */\n      dup7\n        /* \"#utility.yul\":16591:16600   */\n      dup4\n        /* \"#utility.yul\":16572:16611   */\n      tag_142\n      jump\t// in\n    tag_301:\n        /* \"#utility.yul\":16560:16611   */\n      swap6\n      pop\n        /* \"#utility.yul\":16644:16648   */\n      dup1\n        /* \"#utility.yul\":16640:16649   */\n      not\n        /* \"#utility.yul\":16633:16638   */\n      dup5\n        /* \"#utility.yul\":16629:16650   */\n      and\n        /* \"#utility.yul\":16620:16650   */\n      swap4\n      pop\n        /* \"#utility.yul\":16693:16697   */\n      dup1\n        /* \"#utility.yul\":16683:16691   */\n      dup7\n        /* \"#utility.yul\":16679:16698   */\n      and\n        /* \"#utility.yul\":16672:16677   */\n      dup5\n        /* \"#utility.yul\":16669:16699   */\n      or\n        /* \"#utility.yul\":16659:16699   */\n      swap3\n      pop\n        /* \"#utility.yul\":16388:16705   */\n      pop\n      pop\n        /* \"#utility.yul\":16312:16705   */\n      swap4\n      swap3\n      pop\n      pop\n      pop\n      jump\t// out\n        /* \"#utility.yul\":16711:16771   */\n    tag_144:\n        /* \"#utility.yul\":16739:16742   */\n      0x00\n        /* \"#utility.yul\":16760:16765   */\n      dup2\n        /* \"#utility.yul\":16753:16765   */\n      swap1\n      pop\n        /* \"#utility.yul\":16711:16771   */\n      swap2\n      swap1\n      pop\n      jump\t// out\n        /* \"#utility.yul\":16777:16919   */\n    tag_145:\n        /* \"#utility.yul\":16827:16836   */\n      0x00\n        /* \"#utility.yul\":16860:16913   */\n      tag_304\n        /* \"#utility.yul\":16878:16912   */\n      tag_305\n        /* \"#utility.yul\":16887:16911   */\n      tag_306\n        /* \"#utility.yul\":16905:16910   */\n      dup5\n        /* \"#utility.yul\":16887:16911   */\n      tag_119\n      jump\t// in\n    tag_306:\n        /* \"#utility.yul\":16878:16912   */\n      tag_144\n      jump\t// in\n    tag_305:\n        /* \"#utility.yul\":16860:16913   */\n      tag_119\n      jump\t// in\n    tag_304:\n        /* \"#utility.yul\":16847:16913   */\n      swap1\n      pop\n        /* \"#utility.yul\":16777:16919   */\n      swap2\n      swap1\n      pop\n      jump\t// out\n        /* \"#utility.yul\":16925:17000   */\n    tag_146:\n        /* \"#utility.yul\":16968:16971   */\n      0x00\n        /* \"#utility.yul\":16989:16994   */\n      dup2\n        /* \"#utility.yul\":16982:16994   */\n      swap1\n      pop\n        /* \"#utility.yul\":16925:17000   */\n      swap2\n      swap1\n      pop\n      jump\t// out\n        /* \"#utility.yul\":17006:17275   */\n    tag_147:\n        /* \"#utility.yul\":17116:17155   */\n      tag_309\n        /* \"#utility.yul\":17147:17154   */\n      dup4\n        /* \"#utility.yul\":17116:17155   */\n      tag_145\n      jump\t// in\n    tag_309:\n        /* \"#utility.yul\":17177:17268   */\n      tag_310\n        /* \"#utility.yul\":17226:17267   */\n      tag_311\n        /* \"#utility.yul\":17250:17266   */\n      dup3\n        /* \"#utility.yul\":17226:17267   */\n      tag_146\n      jump\t// in\n    tag_311:\n        /* \"#utility.yul\":17218:17224   */\n      dup5\n        /* \"#utility.yul\":17211:17215   */\n      dup5\n        /* \"#utility.yul\":17205:17216   */\n      sload\n        /* \"#utility.yul\":17177:17268   */\n      tag_143\n      jump\t// in\n    tag_310:\n        /* \"#utility.yul\":17171:17175   */\n      dup3\n        /* \"#utility.yul\":17164:17269   */\n      sstore\n        /* \"#utility.yul\":17082:17275   */\n      pop\n        /* \"#utility.yul\":17006:17275   */\n      pop\n      pop\n      pop\n      jump\t// out\n        /* \"#utility.yul\":17281:17354   */\n    tag_148:\n        /* \"#utility.yul\":17326:17329   */\n      0x00\n        /* \"#utility.yul\":17281:17354   */\n      swap1\n      jump\t// out\n        /* \"#utility.yul\":17360:17549   */\n    tag_149:\n        /* \"#utility.yul\":17437:17469   */\n      tag_314\n      tag_148\n      jump\t// in\n    tag_314:\n        /* \"#utility.yul\":17478:17543   */\n      tag_315\n        /* \"#utility.yul\":17536:17542   */\n      dup2\n        /* \"#utility.yul\":17528:17534   */\n      dup5\n        /* \"#utility.yul\":17522:17526   */\n      dup5\n        /* \"#utility.yul\":17478:17543   */\n      tag_147\n      jump\t// in\n    tag_315:\n        /* \"#utility.yul\":17413:17549   */\n      pop\n        /* \"#utility.yul\":17360:17549   */\n      pop\n      pop\n      jump\t// out\n        /* \"#utility.yul\":17555:17741   */\n    tag_150:\n        /* \"#utility.yul\":17615:17735   */\n    tag_317:\n        /* \"#utility.yul\":17632:17635   */\n      dup2\n        /* \"#utility.yul\":17625:17630   */\n      dup2\n        /* \"#utility.yul\":17622:17636   */\n      lt\n        /* \"#utility.yul\":17615:17735   */\n      iszero\n      tag_319\n      jumpi\n        /* \"#utility.yul\":17686:17725   */\n      tag_320\n        /* \"#utility.yul\":17723:17724   */\n      0x00\n        /* \"#utility.yul\":17716:17721   */\n      dup3\n        /* \"#utility.yul\":17686:17725   */\n      tag_149\n      jump\t// in\n    tag_320:\n        /* \"#utility.yul\":17659:17660   */\n      0x01\n        /* \"#utility.yul\":17652:17657   */\n      dup2\n        /* \"#utility.yul\":17648:17661   */\n      add\n        /* \"#utility.yul\":17639:17661   */\n      swap1\n      pop\n        /* \"#utility.yul\":17615:17735   */\n      jump(tag_317)\n    tag_319:\n        /* \"#utility.yul\":17555:17741   */\n      pop\n      pop\n      jump\t// out\n        /* \"#utility.yul\":17747:18290   */\n    tag_151:\n        /* \"#utility.yul\":17848:17850   */\n      0x1f\n        /* \"#utility.yul\":17843:17846   */\n      dup3\n        /* \"#utility.yul\":17840:17851   */\n      gt\n        /* \"#utility.yul\":17837:18283   */\n      iszero\n      tag_322\n      jumpi\n        /* \"#utility.yul\":17882:17920   */\n      tag_323\n        /* \"#utility.yul\":17914:17919   */\n      dup2\n        /* \"#utility.yul\":17882:17920   */\n      tag_140\n      jump\t// in\n    tag_323:\n        /* \"#utility.yul\":17966:17995   */\n      tag_324\n        /* \"#utility.yul\":17984:17994   */\n      dup5\n        /* \"#utility.yul\":17966:17995   */\n      tag_141\n      jump\t// in\n    tag_324:\n        /* \"#utility.yul\":17956:17964   */\n      dup2\n        /* \"#utility.yul\":17952:17996   */\n      add\n        /* \"#utility.yul\":18149:18151   */\n      0x20\n        /* \"#utility.yul\":18137:18147   */\n      dup6\n        /* \"#utility.yul\":18134:18152   */\n      lt\n        /* \"#utility.yul\":18131:18180   */\n      iszero\n      tag_325\n      jumpi\n        /* \"#utility.yul\":18170:18178   */\n      dup2\n        /* \"#utility.yul\":18155:18178   */\n      swap1\n      pop\n        /* \"#utility.yul\":18131:18180   */\n    tag_325:\n        /* \"#utility.yul\":18193:18273   */\n      tag_326\n        /* \"#utility.yul\":18249:18271   */\n      tag_327\n        /* \"#utility.yul\":18267:18270   */\n      dup6\n        /* \"#utility.yul\":18249:18271   */\n      tag_141\n      jump\t// in\n    tag_327:\n        /* \"#utility.yul\":18239:18247   */\n      dup4\n        /* \"#utility.yul\":18235:18272   */\n      add\n        /* \"#utility.yul\":18222:18233   */\n      dup3\n        /* \"#utility.yul\":18193:18273   */\n      tag_150\n      jump\t// in\n    tag_326:\n        /* \"#utility.yul\":17852:18283   */\n      pop\n      pop\n        /* \"#utility.yul\":17837:18283   */\n    tag_322:\n        /* \"#utility.yul\":17747:18290   */\n      pop\n      pop\n      pop\n      jump\t// out\n        /* \"#utility.yul\":18296:18413   */\n    tag_152:\n        /* \"#utility.yul\":18350:18358   */\n      0x00\n        /* \"#utility.yul\":18400:18405   */\n      dup3\n        /* \"#utility.yul\":18394:18398   */\n      dup3\n        /* \"#utility.yul\":18390:18406   */\n      shr\n        /* \"#utility.yul\":18369:18406   */\n      swap1\n      pop\n        /* \"#utility.yul\":18296:18413   */\n      swap3\n      swap2\n      pop\n      pop\n      jump\t// out\n        /* \"#utility.yul\":18419:18588   */\n    tag_153:\n        /* \"#utility.yul\":18463:18469   */\n      0x00\n        /* \"#utility.yul\":18496:18547   */\n      tag_330\n        /* \"#utility.yul\":18544:18545   */\n      0x00\n        /* \"#utility.yul\":18540:18546   */\n      not\n        /* \"#utility.yul\":18532:18537   */\n      dup5\n        /* \"#utility.yul\":18529:18530   */\n      0x08\n        /* \"#utility.yul\":18525:18538   */\n      mul\n        /* \"#utility.yul\":18496:18547   */\n      tag_152\n      jump\t// in\n    tag_330:\n        /* \"#utility.yul\":18492:18548   */\n      not\n        /* \"#utility.yul\":18577:18581   */\n      dup1\n        /* \"#utility.yul\":18571:18575   */\n      dup4\n        /* \"#utility.yul\":18567:18582   */\n      and\n        /* \"#utility.yul\":18557:18582   */\n      swap2\n      pop\n        /* \"#utility.yul\":18470:18588   */\n      pop\n        /* \"#utility.yul\":18419:18588   */\n      swap3\n      swap2\n      pop\n      pop\n      jump\t// out\n        /* \"#utility.yul\":18593:18888   */\n    tag_154:\n        /* \"#utility.yul\":18669:18673   */\n      0x00\n        /* \"#utility.yul\":18815:18844   */\n      tag_332\n        /* \"#utility.yul\":18840:18843   */\n      dup4\n        /* \"#utility.yul\":18834:18838   */\n      dup4\n        /* \"#utility.yul\":18815:18844   */\n      tag_153\n      jump\t// in\n    tag_332:\n        /* \"#utility.yul\":18807:18844   */\n      swap2\n      pop\n        /* \"#utility.yul\":18877:18880   */\n      dup3\n        /* \"#utility.yul\":18874:18875   */\n      0x02\n        /* \"#utility.yul\":18870:18881   */\n      mul\n        /* \"#utility.yul\":18864:18868   */\n      dup3\n        /* \"#utility.yul\":18861:18882   */\n      or\n        /* \"#utility.yul\":18853:18882   */\n      swap1\n      pop\n        /* \"#utility.yul\":18593:18888   */\n      swap3\n      swap2\n      pop\n      pop\n      jump\t// out\n        /* \"#utility.yul\":18893:20288   */\n    tag_82:\n        /* \"#utility.yul\":19010:19047   */\n      tag_334\n        /* \"#utility.yul\":19043:19046   */\n      dup3\n        /* \"#utility.yul\":19010:19047   */\n      tag_96\n      jump\t// in\n    tag_334:\n        /* \"#utility.yul\":19112:19130   */\n      0xffffffffffffffff\n        /* \"#utility.yul\":19104:19110   */\n      dup2\n        /* \"#utility.yul\":19101:19131   */\n      gt\n        /* \"#utility.yul\":19098:19154   */\n      iszero\n      tag_335\n      jumpi\n        /* \"#utility.yul\":19134:19152   */\n      tag_336\n      tag_109\n      jump\t// in\n    tag_336:\n        /* \"#utility.yul\":19098:19154   */\n    tag_335:\n        /* \"#utility.yul\":19178:19216   */\n      tag_337\n        /* \"#utility.yul\":19210:19214   */\n      dup3\n        /* \"#utility.yul\":19204:19215   */\n      sload\n        /* \"#utility.yul\":19178:19216   */\n      tag_41\n      jump\t// in\n    tag_337:\n        /* \"#utility.yul\":19263:19330   */\n      tag_338\n        /* \"#utility.yul\":19323:19329   */\n      dup3\n        /* \"#utility.yul\":19315:19321   */\n      dup3\n        /* \"#utility.yul\":19309:19313   */\n      dup6\n        /* \"#utility.yul\":19263:19330   */\n      tag_151\n      jump\t// in\n    tag_338:\n        /* \"#utility.yul\":19357:19358   */\n      0x00\n        /* \"#utility.yul\":19381:19385   */\n      0x20\n        /* \"#utility.yul\":19368:19385   */\n      swap1\n      pop\n        /* \"#utility.yul\":19413:19415   */\n      0x1f\n        /* \"#utility.yul\":19405:19411   */\n      dup4\n        /* \"#utility.yul\":19402:19416   */\n      gt\n        /* \"#utility.yul\":19430:19431   */\n      0x01\n        /* \"#utility.yul\":19425:20043   */\n      dup2\n      eq\n      tag_340\n      jumpi\n        /* \"#utility.yul\":20087:20088   */\n      0x00\n        /* \"#utility.yul\":20104:20110   */\n      dup5\n        /* \"#utility.yul\":20101:20178   */\n      iszero\n      tag_341\n      jumpi\n        /* \"#utility.yul\":20153:20162   */\n      dup3\n        /* \"#utility.yul\":20148:20151   */\n      dup8\n        /* \"#utility.yul\":20144:20163   */\n      add\n        /* \"#utility.yul\":20138:20164   */\n      mload\n        /* \"#utility.yul\":20129:20164   */\n      swap1\n      pop\n        /* \"#utility.yul\":20101:20178   */\n    tag_341:\n        /* \"#utility.yul\":20204:20271   */\n      tag_342\n        /* \"#utility.yul\":20264:20270   */\n      dup6\n        /* \"#utility.yul\":20257:20262   */\n      dup3\n        /* \"#utility.yul\":20204:20271   */\n      tag_154\n      jump\t// in\n    tag_342:\n        /* \"#utility.yul\":20198:20202   */\n      dup7\n        /* \"#utility.yul\":20191:20272   */\n      sstore\n        /* \"#utility.yul\":20060:20282   */\n      pop\n        /* \"#utility.yul\":19395:20282   */\n      jump(tag_339)\n        /* \"#utility.yul\":19425:20043   */\n    tag_340:\n        /* \"#utility.yul\":19477:19481   */\n      0x1f\n        /* \"#utility.yul\":19473:19482   */\n      not\n        /* \"#utility.yul\":19465:19471   */\n      dup5\n        /* \"#utility.yul\":19461:19483   */\n      and\n        /* \"#utility.yul\":19511:19548   */\n      tag_343\n        /* \"#utility.yul\":19543:19547   */\n      dup7\n        /* \"#utility.yul\":19511:19548   */\n      tag_140\n      jump\t// in\n    tag_343:\n        /* \"#utility.yul\":19570:19571   */\n      0x00\n        /* \"#utility.yul\":19584:19792   */\n    tag_344:\n        /* \"#utility.yul\":19598:19605   */\n      dup3\n        /* \"#utility.yul\":19595:19596   */\n      dup2\n        /* \"#utility.yul\":19592:19606   */\n      lt\n        /* \"#utility.yul\":19584:19792   */\n      iszero\n      tag_346\n      jumpi\n        /* \"#utility.yul\":19677:19686   */\n      dup5\n        /* \"#utility.yul\":19672:19675   */\n      dup10\n        /* \"#utility.yul\":19668:19687   */\n      add\n        /* \"#utility.yul\":19662:19688   */\n      mload\n        /* \"#utility.yul\":19654:19660   */\n      dup3\n        /* \"#utility.yul\":19647:19689   */\n      sstore\n        /* \"#utility.yul\":19728:19729   */\n      0x01\n        /* \"#utility.yul\":19720:19726   */\n      dup3\n        /* \"#utility.yul\":19716:19730   */\n      add\n        /* \"#utility.yul\":19706:19730   */\n      swap2\n      pop\n        /* \"#utility.yul\":19775:19777   */\n      0x20\n        /* \"#utility.yul\":19764:19773   */\n      dup6\n        /* \"#utility.yul\":19760:19778   */\n      add\n        /* \"#utility.yul\":19747:19778   */\n      swap5\n      pop\n        /* \"#utility.yul\":19621:19625   */\n      0x20\n        /* \"#utility.yul\":19618:19619   */\n      dup2\n        /* \"#utility.yul\":19614:19626   */\n      add\n        /* \"#utility.yul\":19609:19626   */\n      swap1\n      pop\n        /* \"#utility.yul\":19584:19792   */\n      jump(tag_344)\n    tag_346:\n        /* \"#utility.yul\":19820:19826   */\n      dup7\n        /* \"#utility.yul\":19811:19818   */\n      dup4\n        /* \"#utility.yul\":19808:19827   */\n      lt\n        /* \"#utility.yul\":19805:19984   */\n      iszero\n      tag_347\n      jumpi\n        /* \"#utility.yul\":19878:19887   */\n      dup5\n        /* \"#utility.yul\":19873:19876   */\n      dup10\n        /* \"#utility.yul\":19869:19888   */\n      add\n        /* \"#utility.yul\":19863:19889   */\n      mload\n        /* \"#utility.yul\":19921:19969   */\n      tag_348\n        /* \"#utility.yul\":19963:19967   */\n      0x1f\n        /* \"#utility.yul\":19955:19961   */\n      dup10\n        /* \"#utility.yul\":19951:19968   */\n      and\n        /* \"#utility.yul\":19940:19949   */\n      dup3\n        /* \"#utility.yul\":19921:19969   */\n      tag_153\n      jump\t// in\n    tag_348:\n        /* \"#utility.yul\":19913:19919   */\n      dup4\n        /* \"#utility.yul\":19906:19970   */\n      sstore\n        /* \"#utility.yul\":19828:19984   */\n      pop\n        /* \"#utility.yul\":19805:19984   */\n    tag_347:\n        /* \"#utility.yul\":20030:20031   */\n      0x01\n        /* \"#utility.yul\":20026:20027   */\n      0x02\n        /* \"#utility.yul\":20018:20024   */\n      dup9\n        /* \"#utility.yul\":20014:20028   */\n      mul\n        /* \"#utility.yul\":20010:20032   */\n      add\n        /* \"#utility.yul\":20004:20008   */\n      dup9\n        /* \"#utility.yul\":19997:20033   */\n      sstore\n        /* \"#utility.yul\":19432:20043   */\n      pop\n      pop\n      pop\n        /* \"#utility.yul\":19395:20282   */\n    tag_339:\n      pop\n        /* \"#utility.yul\":18985:20288   */\n      pop\n      pop\n      pop\n        /* \"#utility.yul\":18893:20288   */\n      pop\n      pop\n      jump\t// out\n        /* \"#utility.yul\":20294:20485   */\n    tag_85:\n        /* \"#utility.yul\":20334:20337   */\n      0x00\n        /* \"#utility.yul\":20353:20373   */\n      tag_350\n        /* \"#utility.yul\":20371:20372   */\n      dup3\n        /* \"#utility.yul\":20353:20373   */\n      tag_119\n      jump\t// in\n    tag_350:\n        /* \"#utility.yul\":20348:20373   */\n      swap2\n      pop\n        /* \"#utility.yul\":20387:20407   */\n      tag_351\n        /* \"#utility.yul\":20405:20406   */\n      dup4\n        /* \"#utility.yul\":20387:20407   */\n      tag_119\n      jump\t// in\n    tag_351:\n        /* \"#utility.yul\":20382:20407   */\n      swap3\n      pop\n        /* \"#utility.yul\":20430:20431   */\n      dup3\n        /* \"#utility.yul\":20427:20428   */\n      dup3\n        /* \"#utility.yul\":20423:20432   */\n      add\n        /* \"#utility.yul\":20416:20432   */\n      swap1\n      pop\n        /* \"#utility.yul\":20451:20454   */\n      dup1\n        /* \"#utility.yul\":20448:20449   */\n      dup3\n        /* \"#utility.yul\":20445:20455   */\n      gt\n        /* \"#utility.yul\":20442:20478   */\n      iszero\n      tag_352\n      jumpi\n        /* \"#utility.yul\":20458:20476   */\n      tag_353\n      tag_135\n      jump\t// in\n    tag_353:\n        /* \"#utility.yul\":20442:20478   */\n    tag_352:\n        /* \"#utility.yul\":20294:20485   */\n      swap3\n      swap2\n      pop\n      pop\n      jump\t// out\n\n    auxdata: 0xa2646970667358221220ddbdd9ee1a98e46a5b45a87646e323b124f42b42be30b62fc004affbedac143564736f6c63430008120033\n}\n",
				"bytecode": {
					"linkReferences": {},
					"object": "608060405234801561001057600080fd5b50735b38da6a701c568545dcfcb03fcb875f56beddc473ffffffffffffffffffffffffffffffffffffffff163373ffffffffffffffffffffffffffffffffffffffff1614610093576040517f08c379a000000000000000000000000000000000000000000000000000000000815260040161008a90610136565b60405180910390fd5b33600260006101000a81548173ffffffffffffffffffffffffffffffffffffffff021916908373ffffffffffffffffffffffffffffffffffffffff160217905550610156565b600082825260208201905092915050565b7f6f6e6c79206f776e65722063616e206465706c6f792e00000000000000000000600082015250565b60006101206016836100d9565b915061012b826100ea565b602082019050919050565b6000602082019050818103600083015261014f81610113565b9050919050565b6112d8806101656000396000f3fe6080604052600436106100555760003560e01c80630da6a32b1461005a5780636393d41614610085578063832880e7146100ae578063b688a363146100d9578063d425bff2146100f7578063f2c298be14610113575b600080fd5b34801561006657600080fd5b5061006f61013c565b60405161007c919061097c565b60405180910390f35b34801561009157600080fd5b506100ac60048036038101906100a79190610ae7565b610209565b005b3480156100ba57600080fd5b506100c361033a565b6040516100d09190610cc2565b60405180910390f35b6100e161049f565b6040516100ee9190610cf3565b60405180910390f35b610111600480360381019061010c9190610ae7565b6104f1565b005b34801561011f57600080fd5b5061013a60048036038101906101359190610ae7565b6105af565b005b61014461080f565b6005600480602002604051908101604052809291906000905b8282101561020057838201805461017390610d3d565b80601f016020809104026020016040519081016040528092919081815260200182805461019f90610d3d565b80156101ec5780601f106101c1576101008083540402835291602001916101ec565b820191906000526020600020905b8154815290600101906020018083116101cf57829003601f168201915b50505050508152602001906001019061015d565b50505050905090565b600a60048260405161021b9190610daa565b908152602001604051809103902060040154101561026e576040517f08c379a000000000000000000000000000000000000000000000000000000000815260040161026590610e1e565b60405180910390fd5b60048160405161027e9190610daa565b908152602001604051809103902060020160009054906101000a900473ffffffffffffffffffffffffffffffffffffffff1673ffffffffffffffffffffffffffffffffffffffff166108fc67016345785d8a00009081150290604051600060405180830381858888f193505050501580156102fd573d6000803e3d6000fd5b50600a6004826040516103109190610daa565b908152602001604051809103902060040160008282546103309190610e6d565b9250508190555050565b60606000805480602002602001604051908101604052809291908181526020016000905b8282101561049657838290600052602060002090600502016040518060a00160405290816000820154815260200160018201805461039b90610d3d565b80601f01602080910402602001604051908101604052809291908181526020018280546103c790610d3d565b80156104145780601f106103e957610100808354040283529160200191610414565b820191906000526020600020905b8154815290600101906020018083116103f757829003601f168201915b505050505081526020016002820160009054906101000a900473ffffffffffffffffffffffffffffffffffffffff1673ffffffffffffffffffffffffffffffffffffffff1673ffffffffffffffffffffffffffffffffffffffff168152602001600382015481526020016004820154815250508152602001906001019061035e565b50505050905090565b6000670de0b6b3a764000034146104eb576040517f08c379a00000000000000000000000000000000000000000000000000000000081526004016104e290610eed565b60405180910390fd5b34905090565b662386f26fc10000341461053a576040517f08c379a000000000000000000000000000000000000000000000000000000000815260040161053190610f59565b60405180910390fd5b8060056003600081548092919061055090610f79565b919050556004811061056557610564610fc1565b5b019081610572919061119c565b5060016004826040516105859190610daa565b908152602001604051809103902060040160008282546105a5919061126e565b9250508190555050565b33600160006101000a81548173ffffffffffffffffffffffffffffffffffffffff021916908373ffffffffffffffffffffffffffffffffffffffff16021790555060006040518060a00160405280600160008054905061060f919061126e565b8152602001838152602001600160009054906101000a900473ffffffffffffffffffffffffffffffffffffffff1673ffffffffffffffffffffffffffffffffffffffff16815260200160008152602001600081525090806001815401808255809150506001900390600052602060002090600502016000909190919091506000820151816000015560208201518160010190816106ac919061119c565b5060408201518160020160006101000a81548173ffffffffffffffffffffffffffffffffffffffff021916908373ffffffffffffffffffffffffffffffffffffffff160217905550606082015181600301556080820151816004015550506040518060a001604052806000805490508152602001828152602001600160009054906101000a900473ffffffffffffffffffffffffffffffffffffffff1673ffffffffffffffffffffffffffffffffffffffff1681526020016000815260200160008152506004826040516107809190610daa565b90815260200160405180910390206000820151816000015560208201518160010190816107ad919061119c565b5060408201518160020160006101000a81548173ffffffffffffffffffffffffffffffffffffffff021916908373ffffffffffffffffffffffffffffffffffffffff160217905550606082015181600301556080820151816004015590505050565b60405180608001604052806004905b606081526020019060019003908161081e5790505090565b600060049050919050565b600081905092915050565b6000819050919050565b600081519050919050565b600082825260208201905092915050565b60005b83811015610890578082015181840152602081019050610875565b60008484015250505050565b6000601f19601f8301169050919050565b60006108b882610856565b6108c28185610861565b93506108d2818560208601610872565b6108db8161089c565b840191505092915050565b60006108f283836108ad565b905092915050565b6000602082019050919050565b600061091282610836565b61091c8185610841565b93508360208202850161092e8561084c565b8060005b8581101561096a578484038952815161094b85826108e6565b9450610956836108fa565b925060208a01995050600181019050610932565b50829750879550505050505092915050565b600060208201905081810360008301526109968184610907565b905092915050565b6000604051905090565b600080fd5b600080fd5b600080fd5b600080fd5b7f4e487b7100000000000000000000000000000000000000000000000000000000600052604160045260246000fd5b6109f48261089c565b810181811067ffffffffffffffff82111715610a1357610a126109bc565b5b80604052505050565b6000610a2661099e565b9050610a3282826109eb565b919050565b600067ffffffffffffffff821115610a5257610a516109bc565b5b610a5b8261089c565b9050602081019050919050565b82818337600083830152505050565b6000610a8a610a8584610a37565b610a1c565b905082815260208101848484011115610aa657610aa56109b7565b5b610ab1848285610a68565b509392505050565b600082601f830112610ace57610acd6109b2565b5b8135610ade848260208601610a77565b91505092915050565b600060208284031215610afd57610afc6109a8565b5b600082013567ffffffffffffffff811115610b1b57610b1a6109ad565b5b610b2784828501610ab9565b91505092915050565b600081519050919050565b600082825260208201905092915050565b6000819050602082019050919050565b6000819050919050565b610b6f81610b5c565b82525050565b600073ffffffffffffffffffffffffffffffffffffffff82169050919050565b6000610ba082610b75565b9050919050565b610bb081610b95565b82525050565b600060a083016000830151610bce6000860182610b66565b5060208301518482036020860152610be682826108ad565b9150506040830151610bfb6040860182610ba7565b506060830151610c0e6060860182610b66565b506080830151610c216080860182610b66565b508091505092915050565b6000610c388383610bb6565b905092915050565b6000602082019050919050565b6000610c5882610b30565b610c628185610b3b565b935083602082028501610c7485610b4c565b8060005b85811015610cb05784840389528151610c918582610c2c565b9450610c9c83610c40565b925060208a01995050600181019050610c78565b50829750879550505050505092915050565b60006020820190508181036000830152610cdc8184610c4d565b905092915050565b610ced81610b5c565b82525050565b6000602082019050610d086000830184610ce4565b92915050565b7f4e487b7100000000000000000000000000000000000000000000000000000000600052602260045260246000fd5b60006002820490506001821680610d5557607f821691505b602082108103610d6857610d67610d0e565b5b50919050565b600081905092915050565b6000610d8482610856565b610d8e8185610d6e565b9350610d9e818560208601610872565b80840191505092915050565b6000610db68284610d79565b915081905092915050565b600082825260208201905092915050565b7f706c6561736520636865636b20796f75722073636f72652e0000000000000000600082015250565b6000610e08601883610dc1565b9150610e1382610dd2565b602082019050919050565b60006020820190508181036000830152610e3781610dfb565b9050919050565b7f4e487b7100000000000000000000000000000000000000000000000000000000600052601160045260246000fd5b6000610e7882610b5c565b9150610e8383610b5c565b9250828203905081811115610e9b57610e9a610e3e565b5b92915050565b7f706c65617365207472616e7366657220312065746865722e0000000000000000600082015250565b6000610ed7601883610dc1565b9150610ee282610ea1565b602082019050919050565b60006020820190508181036000830152610f0681610eca565b9050919050565b7f706c65617365207472616e7366657220302e30312065746865722e0000000000600082015250565b6000610f43601b83610dc1565b9150610f4e82610f0d565b602082019050919050565b60006020820190508181036000830152610f7281610f36565b9050919050565b6000610f8482610b5c565b91507fffffffffffffffffffffffffffffffffffffffffffffffffffffffffffffffff8203610fb657610fb5610e3e565b5b600182019050919050565b7f4e487b7100000000000000000000000000000000000000000000000000000000600052603260045260246000fd5b60008190508160005260206000209050919050565b60006020601f8301049050919050565b600082821b905092915050565b6000600883026110527fffffffffffffffffffffffffffffffffffffffffffffffffffffffffffffffff82611015565b61105c8683611015565b95508019841693508086168417925050509392505050565b6000819050919050565b600061109961109461108f84610b5c565b611074565b610b5c565b9050919050565b6000819050919050565b6110b38361107e565b6110c76110bf826110a0565b848454611022565b825550505050565b600090565b6110dc6110cf565b6110e78184846110aa565b505050565b5b8181101561110b576111006000826110d4565b6001810190506110ed565b5050565b601f8211156111505761112181610ff0565b61112a84611005565b81016020851015611139578190505b61114d61114585611005565b8301826110ec565b50505b505050565b600082821c905092915050565b600061117360001984600802611155565b1980831691505092915050565b600061118c8383611162565b9150826002028217905092915050565b6111a582610856565b67ffffffffffffffff8111156111be576111bd6109bc565b5b6111c88254610d3d565b6111d382828561110f565b600060209050601f83116001811461120657600084156111f4578287015190505b6111fe8582611180565b865550611266565b601f19841661121486610ff0565b60005b8281101561123c57848901518255600182019150602085019450602081019050611217565b868310156112595784890151611255601f891682611162565b8355505b6001600288020188555050505b505050505050565b600061127982610b5c565b915061128483610b5c565b925082820190508082111561129c5761129b610e3e565b5b9291505056fea2646970667358221220ddbdd9ee1a98e46a5b45a87646e323b124f42b42be30b62fc004affbedac143564736f6c63430008120033",
					"opcodes": "PUSH1 0x80 PUSH1 0x40 MSTORE CALLVALUE DUP1 ISZERO PUSH2 0x10 JUMPI PUSH1 0x0 DUP1 REVERT JUMPDEST POP PUSH20 0x5B38DA6A701C568545DCFCB03FCB875F56BEDDC4 PUSH20 0xFFFFFFFFFFFFFFFFFFFFFFFFFFFFFFFFFFFFFFFF AND CALLER PUSH20 0xFFFFFFFFFFFFFFFFFFFFFFFFFFFFFFFFFFFFFFFF AND EQ PUSH2 0x93 JUMPI PUSH1 0x40 MLOAD PUSH32 0x8C379A000000000000000000000000000000000000000000000000000000000 DUP2 MSTORE PUSH1 0x4 ADD PUSH2 0x8A SWAP1 PUSH2 0x136 JUMP JUMPDEST PUSH1 0x40 MLOAD DUP1 SWAP2 SUB SWAP1 REVERT JUMPDEST CALLER PUSH1 0x2 PUSH1 0x0 PUSH2 0x100 EXP DUP2 SLOAD DUP2 PUSH20 0xFFFFFFFFFFFFFFFFFFFFFFFFFFFFFFFFFFFFFFFF MUL NOT AND SWAP1 DUP4 PUSH20 0xFFFFFFFFFFFFFFFFFFFFFFFFFFFFFFFFFFFFFFFF AND MUL OR SWAP1 SSTORE POP PUSH2 0x156 JUMP JUMPDEST PUSH1 0x0 DUP3 DUP3 MSTORE PUSH1 0x20 DUP3 ADD SWAP1 POP SWAP3 SWAP2 POP POP JUMP JUMPDEST PUSH32 0x6F6E6C79206F776E65722063616E206465706C6F792E00000000000000000000 PUSH1 0x0 DUP3 ADD MSTORE POP JUMP JUMPDEST PUSH1 0x0 PUSH2 0x120 PUSH1 0x16 DUP4 PUSH2 0xD9 JUMP JUMPDEST SWAP2 POP PUSH2 0x12B DUP3 PUSH2 0xEA JUMP JUMPDEST PUSH1 0x20 DUP3 ADD SWAP1 POP SWAP2 SWAP1 POP JUMP JUMPDEST PUSH1 0x0 PUSH1 0x20 DUP3 ADD SWAP1 POP DUP2 DUP2 SUB PUSH1 0x0 DUP4 ADD MSTORE PUSH2 0x14F DUP2 PUSH2 0x113 JUMP JUMPDEST SWAP1 POP SWAP2 SWAP1 POP JUMP JUMPDEST PUSH2 0x12D8 DUP1 PUSH2 0x165 PUSH1 0x0 CODECOPY PUSH1 0x0 RETURN INVALID PUSH1 0x80 PUSH1 0x40 MSTORE PUSH1 0x4 CALLDATASIZE LT PUSH2 0x55 JUMPI PUSH1 0x0 CALLDATALOAD PUSH1 0xE0 SHR DUP1 PUSH4 0xDA6A32B EQ PUSH2 0x5A JUMPI DUP1 PUSH4 0x6393D416 EQ PUSH2 0x85 JUMPI DUP1 PUSH4 0x832880E7 EQ PUSH2 0xAE JUMPI DUP1 PUSH4 0xB688A363 EQ PUSH2 0xD9 JUMPI DUP1 PUSH4 0xD425BFF2 EQ PUSH2 0xF7 JUMPI DUP1 PUSH4 0xF2C298BE EQ PUSH2 0x113 JUMPI JUMPDEST PUSH1 0x0 DUP1 REVERT JUMPDEST CALLVALUE DUP1 ISZERO PUSH2 0x66 JUMPI PUSH1 0x0 DUP1 REVERT JUMPDEST POP PUSH2 0x6F PUSH2 0x13C JUMP JUMPDEST PUSH1 0x40 MLOAD PUSH2 0x7C SWAP2 SWAP1 PUSH2 0x97C JUMP JUMPDEST PUSH1 0x40 MLOAD DUP1 SWAP2 SUB SWAP1 RETURN JUMPDEST CALLVALUE DUP1 ISZERO PUSH2 0x91 JUMPI PUSH1 0x0 DUP1 REVERT JUMPDEST POP PUSH2 0xAC PUSH1 0x4 DUP1 CALLDATASIZE SUB DUP2 ADD SWAP1 PUSH2 0xA7 SWAP2 SWAP1 PUSH2 0xAE7 JUMP JUMPDEST PUSH2 0x209 JUMP JUMPDEST STOP JUMPDEST CALLVALUE DUP1 ISZERO PUSH2 0xBA JUMPI PUSH1 0x0 DUP1 REVERT JUMPDEST POP PUSH2 0xC3 PUSH2 0x33A JUMP JUMPDEST PUSH1 0x40 MLOAD PUSH2 0xD0 SWAP2 SWAP1 PUSH2 0xCC2 JUMP JUMPDEST PUSH1 0x40 MLOAD DUP1 SWAP2 SUB SWAP1 RETURN JUMPDEST PUSH2 0xE1 PUSH2 0x49F JUMP JUMPDEST PUSH1 0x40 MLOAD PUSH2 0xEE SWAP2 SWAP1 PUSH2 0xCF3 JUMP JUMPDEST PUSH1 0x40 MLOAD DUP1 SWAP2 SUB SWAP1 RETURN JUMPDEST PUSH2 0x111 PUSH1 0x4 DUP1 CALLDATASIZE SUB DUP2 ADD SWAP1 PUSH2 0x10C SWAP2 SWAP1 PUSH2 0xAE7 JUMP JUMPDEST PUSH2 0x4F1 JUMP JUMPDEST STOP JUMPDEST CALLVALUE DUP1 ISZERO PUSH2 0x11F JUMPI PUSH1 0x0 DUP1 REVERT JUMPDEST POP PUSH2 0x13A PUSH1 0x4 DUP1 CALLDATASIZE SUB DUP2 ADD SWAP1 PUSH2 0x135 SWAP2 SWAP1 PUSH2 0xAE7 JUMP JUMPDEST PUSH2 0x5AF JUMP JUMPDEST STOP JUMPDEST PUSH2 0x144 PUSH2 0x80F JUMP JUMPDEST PUSH1 0x5 PUSH1 0x4 DUP1 PUSH1 0x20 MUL PUSH1 0x40 MLOAD SWAP1 DUP2 ADD PUSH1 0x40 MSTORE DUP1 SWAP3 SWAP2 SWAP1 PUSH1 0x0 SWAP1 JUMPDEST DUP3 DUP3 LT ISZERO PUSH2 0x200 JUMPI DUP4 DUP3 ADD DUP1 SLOAD PUSH2 0x173 SWAP1 PUSH2 0xD3D JUMP JUMPDEST DUP1 PUSH1 0x1F ADD PUSH1 0x20 DUP1 SWAP2 DIV MUL PUSH1 0x20 ADD PUSH1 0x40 MLOAD SWAP1 DUP2 ADD PUSH1 0x40 MSTORE DUP1 SWAP3 SWAP2 SWAP1 DUP2 DUP2 MSTORE PUSH1 0x20 ADD DUP3 DUP1 SLOAD PUSH2 0x19F SWAP1 PUSH2 0xD3D JUMP JUMPDEST DUP1 ISZERO PUSH2 0x1EC JUMPI DUP1 PUSH1 0x1F LT PUSH2 0x1C1 JUMPI PUSH2 0x100 DUP1 DUP4 SLOAD DIV MUL DUP4 MSTORE SWAP2 PUSH1 0x20 ADD SWAP2 PUSH2 0x1EC JUMP JUMPDEST DUP3 ADD SWAP2 SWAP1 PUSH1 0x0 MSTORE PUSH1 0x20 PUSH1 0x0 KECCAK256 SWAP1 JUMPDEST DUP2 SLOAD DUP2 MSTORE SWAP1 PUSH1 0x1 ADD SWAP1 PUSH1 0x20 ADD DUP1 DUP4 GT PUSH2 0x1CF JUMPI DUP3 SWAP1 SUB PUSH1 0x1F AND DUP3 ADD SWAP2 JUMPDEST POP POP POP POP POP DUP2 MSTORE PUSH1 0x20 ADD SWAP1 PUSH1 0x1 ADD SWAP1 PUSH2 0x15D JUMP JUMPDEST POP POP POP POP SWAP1 POP SWAP1 JUMP JUMPDEST PUSH1 0xA PUSH1 0x4 DUP3 PUSH1 0x40 MLOAD PUSH2 0x21B SWAP2 SWAP1 PUSH2 0xDAA JUMP JUMPDEST SWAP1 DUP2 MSTORE PUSH1 0x20 ADD PUSH1 0x40 MLOAD DUP1 SWAP2 SUB SWAP1 KECCAK256 PUSH1 0x4 ADD SLOAD LT ISZERO PUSH2 0x26E JUMPI PUSH1 0x40 MLOAD PUSH32 0x8C379A000000000000000000000000000000000000000000000000000000000 DUP2 MSTORE PUSH1 0x4 ADD PUSH2 0x265 SWAP1 PUSH2 0xE1E JUMP JUMPDEST PUSH1 0x40 MLOAD DUP1 SWAP2 SUB SWAP1 REVERT JUMPDEST PUSH1 0x4 DUP2 PUSH1 0x40 MLOAD PUSH2 0x27E SWAP2 SWAP1 PUSH2 0xDAA JUMP JUMPDEST SWAP1 DUP2 MSTORE PUSH1 0x20 ADD PUSH1 0x40 MLOAD DUP1 SWAP2 SUB SWAP1 KECCAK256 PUSH1 0x2 ADD PUSH1 0x0 SWAP1 SLOAD SWAP1 PUSH2 0x100 EXP SWAP1 DIV PUSH20 0xFFFFFFFFFFFFFFFFFFFFFFFFFFFFFFFFFFFFFFFF AND PUSH20 0xFFFFFFFFFFFFFFFFFFFFFFFFFFFFFFFFFFFFFFFF AND PUSH2 0x8FC PUSH8 0x16345785D8A0000 SWAP1 DUP2 ISZERO MUL SWAP1 PUSH1 0x40 MLOAD PUSH1 0x0 PUSH1 0x40 MLOAD DUP1 DUP4 SUB DUP2 DUP6 DUP9 DUP9 CALL SWAP4 POP POP POP POP ISZERO DUP1 ISZERO PUSH2 0x2FD JUMPI RETURNDATASIZE PUSH1 0x0 DUP1 RETURNDATACOPY RETURNDATASIZE PUSH1 0x0 REVERT JUMPDEST POP PUSH1 0xA PUSH1 0x4 DUP3 PUSH1 0x40 MLOAD PUSH2 0x310 SWAP2 SWAP1 PUSH2 0xDAA JUMP JUMPDEST SWAP1 DUP2 MSTORE PUSH1 0x20 ADD PUSH1 0x40 MLOAD DUP1 SWAP2 SUB SWAP1 KECCAK256 PUSH1 0x4 ADD PUSH1 0x0 DUP3 DUP3 SLOAD PUSH2 0x330 SWAP2 SWAP1 PUSH2 0xE6D JUMP JUMPDEST SWAP3 POP POP DUP2 SWAP1 SSTORE POP POP JUMP JUMPDEST PUSH1 0x60 PUSH1 0x0 DUP1 SLOAD DUP1 PUSH1 0x20 MUL PUSH1 0x20 ADD PUSH1 0x40 MLOAD SWAP1 DUP2 ADD PUSH1 0x40 MSTORE DUP1 SWAP3 SWAP2 SWAP1 DUP2 DUP2 MSTORE PUSH1 0x20 ADD PUSH1 0x0 SWAP1 JUMPDEST DUP3 DUP3 LT ISZERO PUSH2 0x496 JUMPI DUP4 DUP3 SWAP1 PUSH1 0x0 MSTORE PUSH1 0x20 PUSH1 0x0 KECCAK256 SWAP1 PUSH1 0x5 MUL ADD PUSH1 0x40 MLOAD DUP1 PUSH1 0xA0 ADD PUSH1 0x40 MSTORE SWAP1 DUP2 PUSH1 0x0 DUP3 ADD SLOAD DUP2 MSTORE PUSH1 0x20 ADD PUSH1 0x1 DUP3 ADD DUP1 SLOAD PUSH2 0x39B SWAP1 PUSH2 0xD3D JUMP JUMPDEST DUP1 PUSH1 0x1F ADD PUSH1 0x20 DUP1 SWAP2 DIV MUL PUSH1 0x20 ADD PUSH1 0x40 MLOAD SWAP1 DUP2 ADD PUSH1 0x40 MSTORE DUP1 SWAP3 SWAP2 SWAP1 DUP2 DUP2 MSTORE PUSH1 0x20 ADD DUP3 DUP1 SLOAD PUSH2 0x3C7 SWAP1 PUSH2 0xD3D JUMP JUMPDEST DUP1 ISZERO PUSH2 0x414 JUMPI DUP1 PUSH1 0x1F LT PUSH2 0x3E9 JUMPI PUSH2 0x100 DUP1 DUP4 SLOAD DIV MUL DUP4 MSTORE SWAP2 PUSH1 0x20 ADD SWAP2 PUSH2 0x414 JUMP JUMPDEST DUP3 ADD SWAP2 SWAP1 PUSH1 0x0 MSTORE PUSH1 0x20 PUSH1 0x0 KECCAK256 SWAP1 JUMPDEST DUP2 SLOAD DUP2 MSTORE SWAP1 PUSH1 0x1 ADD SWAP1 PUSH1 0x20 ADD DUP1 DUP4 GT PUSH2 0x3F7 JUMPI DUP3 SWAP1 SUB PUSH1 0x1F AND DUP3 ADD SWAP2 JUMPDEST POP POP POP POP POP DUP2 MSTORE PUSH1 0x20 ADD PUSH1 0x2 DUP3 ADD PUSH1 0x0 SWAP1 SLOAD SWAP1 PUSH2 0x100 EXP SWAP1 DIV PUSH20 0xFFFFFFFFFFFFFFFFFFFFFFFFFFFFFFFFFFFFFFFF AND PUSH20 0xFFFFFFFFFFFFFFFFFFFFFFFFFFFFFFFFFFFFFFFF AND PUSH20 0xFFFFFFFFFFFFFFFFFFFFFFFFFFFFFFFFFFFFFFFF AND DUP2 MSTORE PUSH1 0x20 ADD PUSH1 0x3 DUP3 ADD SLOAD DUP2 MSTORE PUSH1 0x20 ADD PUSH1 0x4 DUP3 ADD SLOAD DUP2 MSTORE POP POP DUP2 MSTORE PUSH1 0x20 ADD SWAP1 PUSH1 0x1 ADD SWAP1 PUSH2 0x35E JUMP JUMPDEST POP POP POP POP SWAP1 POP SWAP1 JUMP JUMPDEST PUSH1 0x0 PUSH8 0xDE0B6B3A7640000 CALLVALUE EQ PUSH2 0x4EB JUMPI PUSH1 0x40 MLOAD PUSH32 0x8C379A000000000000000000000000000000000000000000000000000000000 DUP2 MSTORE PUSH1 0x4 ADD PUSH2 0x4E2 SWAP1 PUSH2 0xEED JUMP JUMPDEST PUSH1 0x40 MLOAD DUP1 SWAP2 SUB SWAP1 REVERT JUMPDEST CALLVALUE SWAP1 POP SWAP1 JUMP JUMPDEST PUSH7 0x2386F26FC10000 CALLVALUE EQ PUSH2 0x53A JUMPI PUSH1 0x40 MLOAD PUSH32 0x8C379A000000000000000000000000000000000000000000000000000000000 DUP2 MSTORE PUSH1 0x4 ADD PUSH2 0x531 SWAP1 PUSH2 0xF59 JUMP JUMPDEST PUSH1 0x40 MLOAD DUP1 SWAP2 SUB SWAP1 REVERT JUMPDEST DUP1 PUSH1 0x5 PUSH1 0x3 PUSH1 0x0 DUP2 SLOAD DUP1 SWAP3 SWAP2 SWAP1 PUSH2 0x550 SWAP1 PUSH2 0xF79 JUMP JUMPDEST SWAP2 SWAP1 POP SSTORE PUSH1 0x4 DUP2 LT PUSH2 0x565 JUMPI PUSH2 0x564 PUSH2 0xFC1 JUMP JUMPDEST JUMPDEST ADD SWAP1 DUP2 PUSH2 0x572 SWAP2 SWAP1 PUSH2 0x119C JUMP JUMPDEST POP PUSH1 0x1 PUSH1 0x4 DUP3 PUSH1 0x40 MLOAD PUSH2 0x585 SWAP2 SWAP1 PUSH2 0xDAA JUMP JUMPDEST SWAP1 DUP2 MSTORE PUSH1 0x20 ADD PUSH1 0x40 MLOAD DUP1 SWAP2 SUB SWAP1 KECCAK256 PUSH1 0x4 ADD PUSH1 0x0 DUP3 DUP3 SLOAD PUSH2 0x5A5 SWAP2 SWAP1 PUSH2 0x126E JUMP JUMPDEST SWAP3 POP POP DUP2 SWAP1 SSTORE POP POP JUMP JUMPDEST CALLER PUSH1 0x1 PUSH1 0x0 PUSH2 0x100 EXP DUP2 SLOAD DUP2 PUSH20 0xFFFFFFFFFFFFFFFFFFFFFFFFFFFFFFFFFFFFFFFF MUL NOT AND SWAP1 DUP4 PUSH20 0xFFFFFFFFFFFFFFFFFFFFFFFFFFFFFFFFFFFFFFFF AND MUL OR SWAP1 SSTORE POP PUSH1 0x0 PUSH1 0x40 MLOAD DUP1 PUSH1 0xA0 ADD PUSH1 0x40 MSTORE DUP1 PUSH1 0x1 PUSH1 0x0 DUP1 SLOAD SWAP1 POP PUSH2 0x60F SWAP2 SWAP1 PUSH2 0x126E JUMP JUMPDEST DUP2 MSTORE PUSH1 0x20 ADD DUP4 DUP2 MSTORE PUSH1 0x20 ADD PUSH1 0x1 PUSH1 0x0 SWAP1 SLOAD SWAP1 PUSH2 0x100 EXP SWAP1 DIV PUSH20 0xFFFFFFFFFFFFFFFFFFFFFFFFFFFFFFFFFFFFFFFF AND PUSH20 0xFFFFFFFFFFFFFFFFFFFFFFFFFFFFFFFFFFFFFFFF AND DUP2 MSTORE PUSH1 0x20 ADD PUSH1 0x0 DUP2 MSTORE PUSH1 0x20 ADD PUSH1 0x0 DUP2 MSTORE POP SWAP1 DUP1 PUSH1 0x1 DUP2 SLOAD ADD DUP1 DUP3 SSTORE DUP1 SWAP2 POP POP PUSH1 0x1 SWAP1 SUB SWAP1 PUSH1 0x0 MSTORE PUSH1 0x20 PUSH1 0x0 KECCAK256 SWAP1 PUSH1 0x5 MUL ADD PUSH1 0x0 SWAP1 SWAP2 SWAP1 SWAP2 SWAP1 SWAP2 POP PUSH1 0x0 DUP3 ADD MLOAD DUP2 PUSH1 0x0 ADD SSTORE PUSH1 0x20 DUP3 ADD MLOAD DUP2 PUSH1 0x1 ADD SWAP1 DUP2 PUSH2 0x6AC SWAP2 SWAP1 PUSH2 0x119C JUMP JUMPDEST POP PUSH1 0x40 DUP3 ADD MLOAD DUP2 PUSH1 0x2 ADD PUSH1 0x0 PUSH2 0x100 EXP DUP2 SLOAD DUP2 PUSH20 0xFFFFFFFFFFFFFFFFFFFFFFFFFFFFFFFFFFFFFFFF MUL NOT AND SWAP1 DUP4 PUSH20 0xFFFFFFFFFFFFFFFFFFFFFFFFFFFFFFFFFFFFFFFF AND MUL OR SWAP1 SSTORE POP PUSH1 0x60 DUP3 ADD MLOAD DUP2 PUSH1 0x3 ADD SSTORE PUSH1 0x80 DUP3 ADD MLOAD DUP2 PUSH1 0x4 ADD SSTORE POP POP PUSH1 0x40 MLOAD DUP1 PUSH1 0xA0 ADD PUSH1 0x40 MSTORE DUP1 PUSH1 0x0 DUP1 SLOAD SWAP1 POP DUP2 MSTORE PUSH1 0x20 ADD DUP3 DUP2 MSTORE PUSH1 0x20 ADD PUSH1 0x1 PUSH1 0x0 SWAP1 SLOAD SWAP1 PUSH2 0x100 EXP SWAP1 DIV PUSH20 0xFFFFFFFFFFFFFFFFFFFFFFFFFFFFFFFFFFFFFFFF AND PUSH20 0xFFFFFFFFFFFFFFFFFFFFFFFFFFFFFFFFFFFFFFFF AND DUP2 MSTORE PUSH1 0x20 ADD PUSH1 0x0 DUP2 MSTORE PUSH1 0x20 ADD PUSH1 0x0 DUP2 MSTORE POP PUSH1 0x4 DUP3 PUSH1 0x40 MLOAD PUSH2 0x780 SWAP2 SWAP1 PUSH2 0xDAA JUMP JUMPDEST SWAP1 DUP2 MSTORE PUSH1 0x20 ADD PUSH1 0x40 MLOAD DUP1 SWAP2 SUB SWAP1 KECCAK256 PUSH1 0x0 DUP3 ADD MLOAD DUP2 PUSH1 0x0 ADD SSTORE PUSH1 0x20 DUP3 ADD MLOAD DUP2 PUSH1 0x1 ADD SWAP1 DUP2 PUSH2 0x7AD SWAP2 SWAP1 PUSH2 0x119C JUMP JUMPDEST POP PUSH1 0x40 DUP3 ADD MLOAD DUP2 PUSH1 0x2 ADD PUSH1 0x0 PUSH2 0x100 EXP DUP2 SLOAD DUP2 PUSH20 0xFFFFFFFFFFFFFFFFFFFFFFFFFFFFFFFFFFFFFFFF MUL NOT AND SWAP1 DUP4 PUSH20 0xFFFFFFFFFFFFFFFFFFFFFFFFFFFFFFFFFFFFFFFF AND MUL OR SWAP1 SSTORE POP PUSH1 0x60 DUP3 ADD MLOAD DUP2 PUSH1 0x3 ADD SSTORE PUSH1 0x80 DUP3 ADD MLOAD DUP2 PUSH1 0x4 ADD SSTORE SWAP1 POP POP POP JUMP JUMPDEST PUSH1 0x40 MLOAD DUP1 PUSH1 0x80 ADD PUSH1 0x40 MSTORE DUP1 PUSH1 0x4 SWAP1 JUMPDEST PUSH1 0x60 DUP2 MSTORE PUSH1 0x20 ADD SWAP1 PUSH1 0x1 SWAP1 SUB SWAP1 DUP2 PUSH2 0x81E JUMPI SWAP1 POP POP SWAP1 JUMP JUMPDEST PUSH1 0x0 PUSH1 0x4 SWAP1 POP SWAP2 SWAP1 POP JUMP JUMPDEST PUSH1 0x0 DUP2 SWAP1 POP SWAP3 SWAP2 POP POP JUMP JUMPDEST PUSH1 0x0 DUP2 SWAP1 POP SWAP2 SWAP1 POP JUMP JUMPDEST PUSH1 0x0 DUP2 MLOAD SWAP1 POP SWAP2 SWAP1 POP JUMP JUMPDEST PUSH1 0x0 DUP3 DUP3 MSTORE PUSH1 0x20 DUP3 ADD SWAP1 POP SWAP3 SWAP2 POP POP JUMP JUMPDEST PUSH1 0x0 JUMPDEST DUP4 DUP2 LT ISZERO PUSH2 0x890 JUMPI DUP1 DUP3 ADD MLOAD DUP2 DUP5 ADD MSTORE PUSH1 0x20 DUP2 ADD SWAP1 POP PUSH2 0x875 JUMP JUMPDEST PUSH1 0x0 DUP5 DUP5 ADD MSTORE POP POP POP POP JUMP JUMPDEST PUSH1 0x0 PUSH1 0x1F NOT PUSH1 0x1F DUP4 ADD AND SWAP1 POP SWAP2 SWAP1 POP JUMP JUMPDEST PUSH1 0x0 PUSH2 0x8B8 DUP3 PUSH2 0x856 JUMP JUMPDEST PUSH2 0x8C2 DUP2 DUP6 PUSH2 0x861 JUMP JUMPDEST SWAP4 POP PUSH2 0x8D2 DUP2 DUP6 PUSH1 0x20 DUP7 ADD PUSH2 0x872 JUMP JUMPDEST PUSH2 0x8DB DUP2 PUSH2 0x89C JUMP JUMPDEST DUP5 ADD SWAP2 POP POP SWAP3 SWAP2 POP POP JUMP JUMPDEST PUSH1 0x0 PUSH2 0x8F2 DUP4 DUP4 PUSH2 0x8AD JUMP JUMPDEST SWAP1 POP SWAP3 SWAP2 POP POP JUMP JUMPDEST PUSH1 0x0 PUSH1 0x20 DUP3 ADD SWAP1 POP SWAP2 SWAP1 POP JUMP JUMPDEST PUSH1 0x0 PUSH2 0x912 DUP3 PUSH2 0x836 JUMP JUMPDEST PUSH2 0x91C DUP2 DUP6 PUSH2 0x841 JUMP JUMPDEST SWAP4 POP DUP4 PUSH1 0x20 DUP3 MUL DUP6 ADD PUSH2 0x92E DUP6 PUSH2 0x84C JUMP JUMPDEST DUP1 PUSH1 0x0 JUMPDEST DUP6 DUP2 LT ISZERO PUSH2 0x96A JUMPI DUP5 DUP5 SUB DUP10 MSTORE DUP2 MLOAD PUSH2 0x94B DUP6 DUP3 PUSH2 0x8E6 JUMP JUMPDEST SWAP5 POP PUSH2 0x956 DUP4 PUSH2 0x8FA JUMP JUMPDEST SWAP3 POP PUSH1 0x20 DUP11 ADD SWAP10 POP POP PUSH1 0x1 DUP2 ADD SWAP1 POP PUSH2 0x932 JUMP JUMPDEST POP DUP3 SWAP8 POP DUP8 SWAP6 POP POP POP POP POP POP SWAP3 SWAP2 POP POP JUMP JUMPDEST PUSH1 0x0 PUSH1 0x20 DUP3 ADD SWAP1 POP DUP2 DUP2 SUB PUSH1 0x0 DUP4 ADD MSTORE PUSH2 0x996 DUP2 DUP5 PUSH2 0x907 JUMP JUMPDEST SWAP1 POP SWAP3 SWAP2 POP POP JUMP JUMPDEST PUSH1 0x0 PUSH1 0x40 MLOAD SWAP1 POP SWAP1 JUMP JUMPDEST PUSH1 0x0 DUP1 REVERT JUMPDEST PUSH1 0x0 DUP1 REVERT JUMPDEST PUSH1 0x0 DUP1 REVERT JUMPDEST PUSH1 0x0 DUP1 REVERT JUMPDEST PUSH32 0x4E487B7100000000000000000000000000000000000000000000000000000000 PUSH1 0x0 MSTORE PUSH1 0x41 PUSH1 0x4 MSTORE PUSH1 0x24 PUSH1 0x0 REVERT JUMPDEST PUSH2 0x9F4 DUP3 PUSH2 0x89C JUMP JUMPDEST DUP2 ADD DUP2 DUP2 LT PUSH8 0xFFFFFFFFFFFFFFFF DUP3 GT OR ISZERO PUSH2 0xA13 JUMPI PUSH2 0xA12 PUSH2 0x9BC JUMP JUMPDEST JUMPDEST DUP1 PUSH1 0x40 MSTORE POP POP POP JUMP JUMPDEST PUSH1 0x0 PUSH2 0xA26 PUSH2 0x99E JUMP JUMPDEST SWAP1 POP PUSH2 0xA32 DUP3 DUP3 PUSH2 0x9EB JUMP JUMPDEST SWAP2 SWAP1 POP JUMP JUMPDEST PUSH1 0x0 PUSH8 0xFFFFFFFFFFFFFFFF DUP3 GT ISZERO PUSH2 0xA52 JUMPI PUSH2 0xA51 PUSH2 0x9BC JUMP JUMPDEST JUMPDEST PUSH2 0xA5B DUP3 PUSH2 0x89C JUMP JUMPDEST SWAP1 POP PUSH1 0x20 DUP2 ADD SWAP1 POP SWAP2 SWAP1 POP JUMP JUMPDEST DUP3 DUP2 DUP4 CALLDATACOPY PUSH1 0x0 DUP4 DUP4 ADD MSTORE POP POP POP JUMP JUMPDEST PUSH1 0x0 PUSH2 0xA8A PUSH2 0xA85 DUP5 PUSH2 0xA37 JUMP JUMPDEST PUSH2 0xA1C JUMP JUMPDEST SWAP1 POP DUP3 DUP2 MSTORE PUSH1 0x20 DUP2 ADD DUP5 DUP5 DUP5 ADD GT ISZERO PUSH2 0xAA6 JUMPI PUSH2 0xAA5 PUSH2 0x9B7 JUMP JUMPDEST JUMPDEST PUSH2 0xAB1 DUP5 DUP3 DUP6 PUSH2 0xA68 JUMP JUMPDEST POP SWAP4 SWAP3 POP POP POP JUMP JUMPDEST PUSH1 0x0 DUP3 PUSH1 0x1F DUP4 ADD SLT PUSH2 0xACE JUMPI PUSH2 0xACD PUSH2 0x9B2 JUMP JUMPDEST JUMPDEST DUP2 CALLDATALOAD PUSH2 0xADE DUP5 DUP3 PUSH1 0x20 DUP7 ADD PUSH2 0xA77 JUMP JUMPDEST SWAP2 POP POP SWAP3 SWAP2 POP POP JUMP JUMPDEST PUSH1 0x0 PUSH1 0x20 DUP3 DUP5 SUB SLT ISZERO PUSH2 0xAFD JUMPI PUSH2 0xAFC PUSH2 0x9A8 JUMP JUMPDEST JUMPDEST PUSH1 0x0 DUP3 ADD CALLDATALOAD PUSH8 0xFFFFFFFFFFFFFFFF DUP2 GT ISZERO PUSH2 0xB1B JUMPI PUSH2 0xB1A PUSH2 0x9AD JUMP JUMPDEST JUMPDEST PUSH2 0xB27 DUP5 DUP3 DUP6 ADD PUSH2 0xAB9 JUMP JUMPDEST SWAP2 POP POP SWAP3 SWAP2 POP POP JUMP JUMPDEST PUSH1 0x0 DUP2 MLOAD SWAP1 POP SWAP2 SWAP1 POP JUMP JUMPDEST PUSH1 0x0 DUP3 DUP3 MSTORE PUSH1 0x20 DUP3 ADD SWAP1 POP SWAP3 SWAP2 POP POP JUMP JUMPDEST PUSH1 0x0 DUP2 SWAP1 POP PUSH1 0x20 DUP3 ADD SWAP1 POP SWAP2 SWAP1 POP JUMP JUMPDEST PUSH1 0x0 DUP2 SWAP1 POP SWAP2 SWAP1 POP JUMP JUMPDEST PUSH2 0xB6F DUP2 PUSH2 0xB5C JUMP JUMPDEST DUP3 MSTORE POP POP JUMP JUMPDEST PUSH1 0x0 PUSH20 0xFFFFFFFFFFFFFFFFFFFFFFFFFFFFFFFFFFFFFFFF DUP3 AND SWAP1 POP SWAP2 SWAP1 POP JUMP JUMPDEST PUSH1 0x0 PUSH2 0xBA0 DUP3 PUSH2 0xB75 JUMP JUMPDEST SWAP1 POP SWAP2 SWAP1 POP JUMP JUMPDEST PUSH2 0xBB0 DUP2 PUSH2 0xB95 JUMP JUMPDEST DUP3 MSTORE POP POP JUMP JUMPDEST PUSH1 0x0 PUSH1 0xA0 DUP4 ADD PUSH1 0x0 DUP4 ADD MLOAD PUSH2 0xBCE PUSH1 0x0 DUP7 ADD DUP3 PUSH2 0xB66 JUMP JUMPDEST POP PUSH1 0x20 DUP4 ADD MLOAD DUP5 DUP3 SUB PUSH1 0x20 DUP7 ADD MSTORE PUSH2 0xBE6 DUP3 DUP3 PUSH2 0x8AD JUMP JUMPDEST SWAP2 POP POP PUSH1 0x40 DUP4 ADD MLOAD PUSH2 0xBFB PUSH1 0x40 DUP7 ADD DUP3 PUSH2 0xBA7 JUMP JUMPDEST POP PUSH1 0x60 DUP4 ADD MLOAD PUSH2 0xC0E PUSH1 0x60 DUP7 ADD DUP3 PUSH2 0xB66 JUMP JUMPDEST POP PUSH1 0x80 DUP4 ADD MLOAD PUSH2 0xC21 PUSH1 0x80 DUP7 ADD DUP3 PUSH2 0xB66 JUMP JUMPDEST POP DUP1 SWAP2 POP POP SWAP3 SWAP2 POP POP JUMP JUMPDEST PUSH1 0x0 PUSH2 0xC38 DUP4 DUP4 PUSH2 0xBB6 JUMP JUMPDEST SWAP1 POP SWAP3 SWAP2 POP POP JUMP JUMPDEST PUSH1 0x0 PUSH1 0x20 DUP3 ADD SWAP1 POP SWAP2 SWAP1 POP JUMP JUMPDEST PUSH1 0x0 PUSH2 0xC58 DUP3 PUSH2 0xB30 JUMP JUMPDEST PUSH2 0xC62 DUP2 DUP6 PUSH2 0xB3B JUMP JUMPDEST SWAP4 POP DUP4 PUSH1 0x20 DUP3 MUL DUP6 ADD PUSH2 0xC74 DUP6 PUSH2 0xB4C JUMP JUMPDEST DUP1 PUSH1 0x0 JUMPDEST DUP6 DUP2 LT ISZERO PUSH2 0xCB0 JUMPI DUP5 DUP5 SUB DUP10 MSTORE DUP2 MLOAD PUSH2 0xC91 DUP6 DUP3 PUSH2 0xC2C JUMP JUMPDEST SWAP5 POP PUSH2 0xC9C DUP4 PUSH2 0xC40 JUMP JUMPDEST SWAP3 POP PUSH1 0x20 DUP11 ADD SWAP10 POP POP PUSH1 0x1 DUP2 ADD SWAP1 POP PUSH2 0xC78 JUMP JUMPDEST POP DUP3 SWAP8 POP DUP8 SWAP6 POP POP POP POP POP POP SWAP3 SWAP2 POP POP JUMP JUMPDEST PUSH1 0x0 PUSH1 0x20 DUP3 ADD SWAP1 POP DUP2 DUP2 SUB PUSH1 0x0 DUP4 ADD MSTORE PUSH2 0xCDC DUP2 DUP5 PUSH2 0xC4D JUMP JUMPDEST SWAP1 POP SWAP3 SWAP2 POP POP JUMP JUMPDEST PUSH2 0xCED DUP2 PUSH2 0xB5C JUMP JUMPDEST DUP3 MSTORE POP POP JUMP JUMPDEST PUSH1 0x0 PUSH1 0x20 DUP3 ADD SWAP1 POP PUSH2 0xD08 PUSH1 0x0 DUP4 ADD DUP5 PUSH2 0xCE4 JUMP JUMPDEST SWAP3 SWAP2 POP POP JUMP JUMPDEST PUSH32 0x4E487B7100000000000000000000000000000000000000000000000000000000 PUSH1 0x0 MSTORE PUSH1 0x22 PUSH1 0x4 MSTORE PUSH1 0x24 PUSH1 0x0 REVERT JUMPDEST PUSH1 0x0 PUSH1 0x2 DUP3 DIV SWAP1 POP PUSH1 0x1 DUP3 AND DUP1 PUSH2 0xD55 JUMPI PUSH1 0x7F DUP3 AND SWAP2 POP JUMPDEST PUSH1 0x20 DUP3 LT DUP2 SUB PUSH2 0xD68 JUMPI PUSH2 0xD67 PUSH2 0xD0E JUMP JUMPDEST JUMPDEST POP SWAP2 SWAP1 POP JUMP JUMPDEST PUSH1 0x0 DUP2 SWAP1 POP SWAP3 SWAP2 POP POP JUMP JUMPDEST PUSH1 0x0 PUSH2 0xD84 DUP3 PUSH2 0x856 JUMP JUMPDEST PUSH2 0xD8E DUP2 DUP6 PUSH2 0xD6E JUMP JUMPDEST SWAP4 POP PUSH2 0xD9E DUP2 DUP6 PUSH1 0x20 DUP7 ADD PUSH2 0x872 JUMP JUMPDEST DUP1 DUP5 ADD SWAP2 POP POP SWAP3 SWAP2 POP POP JUMP JUMPDEST PUSH1 0x0 PUSH2 0xDB6 DUP3 DUP5 PUSH2 0xD79 JUMP JUMPDEST SWAP2 POP DUP2 SWAP1 POP SWAP3 SWAP2 POP POP JUMP JUMPDEST PUSH1 0x0 DUP3 DUP3 MSTORE PUSH1 0x20 DUP3 ADD SWAP1 POP SWAP3 SWAP2 POP POP JUMP JUMPDEST PUSH32 0x706C6561736520636865636B20796F75722073636F72652E0000000000000000 PUSH1 0x0 DUP3 ADD MSTORE POP JUMP JUMPDEST PUSH1 0x0 PUSH2 0xE08 PUSH1 0x18 DUP4 PUSH2 0xDC1 JUMP JUMPDEST SWAP2 POP PUSH2 0xE13 DUP3 PUSH2 0xDD2 JUMP JUMPDEST PUSH1 0x20 DUP3 ADD SWAP1 POP SWAP2 SWAP1 POP JUMP JUMPDEST PUSH1 0x0 PUSH1 0x20 DUP3 ADD SWAP1 POP DUP2 DUP2 SUB PUSH1 0x0 DUP4 ADD MSTORE PUSH2 0xE37 DUP2 PUSH2 0xDFB JUMP JUMPDEST SWAP1 POP SWAP2 SWAP1 POP JUMP JUMPDEST PUSH32 0x4E487B7100000000000000000000000000000000000000000000000000000000 PUSH1 0x0 MSTORE PUSH1 0x11 PUSH1 0x4 MSTORE PUSH1 0x24 PUSH1 0x0 REVERT JUMPDEST PUSH1 0x0 PUSH2 0xE78 DUP3 PUSH2 0xB5C JUMP JUMPDEST SWAP2 POP PUSH2 0xE83 DUP4 PUSH2 0xB5C JUMP JUMPDEST SWAP3 POP DUP3 DUP3 SUB SWAP1 POP DUP2 DUP2 GT ISZERO PUSH2 0xE9B JUMPI PUSH2 0xE9A PUSH2 0xE3E JUMP JUMPDEST JUMPDEST SWAP3 SWAP2 POP POP JUMP JUMPDEST PUSH32 0x706C65617365207472616E7366657220312065746865722E0000000000000000 PUSH1 0x0 DUP3 ADD MSTORE POP JUMP JUMPDEST PUSH1 0x0 PUSH2 0xED7 PUSH1 0x18 DUP4 PUSH2 0xDC1 JUMP JUMPDEST SWAP2 POP PUSH2 0xEE2 DUP3 PUSH2 0xEA1 JUMP JUMPDEST PUSH1 0x20 DUP3 ADD SWAP1 POP SWAP2 SWAP1 POP JUMP JUMPDEST PUSH1 0x0 PUSH1 0x20 DUP3 ADD SWAP1 POP DUP2 DUP2 SUB PUSH1 0x0 DUP4 ADD MSTORE PUSH2 0xF06 DUP2 PUSH2 0xECA JUMP JUMPDEST SWAP1 POP SWAP2 SWAP1 POP JUMP JUMPDEST PUSH32 0x706C65617365207472616E7366657220302E30312065746865722E0000000000 PUSH1 0x0 DUP3 ADD MSTORE POP JUMP JUMPDEST PUSH1 0x0 PUSH2 0xF43 PUSH1 0x1B DUP4 PUSH2 0xDC1 JUMP JUMPDEST SWAP2 POP PUSH2 0xF4E DUP3 PUSH2 0xF0D JUMP JUMPDEST PUSH1 0x20 DUP3 ADD SWAP1 POP SWAP2 SWAP1 POP JUMP JUMPDEST PUSH1 0x0 PUSH1 0x20 DUP3 ADD SWAP1 POP DUP2 DUP2 SUB PUSH1 0x0 DUP4 ADD MSTORE PUSH2 0xF72 DUP2 PUSH2 0xF36 JUMP JUMPDEST SWAP1 POP SWAP2 SWAP1 POP JUMP JUMPDEST PUSH1 0x0 PUSH2 0xF84 DUP3 PUSH2 0xB5C JUMP JUMPDEST SWAP2 POP PUSH32 0xFFFFFFFFFFFFFFFFFFFFFFFFFFFFFFFFFFFFFFFFFFFFFFFFFFFFFFFFFFFFFFFF DUP3 SUB PUSH2 0xFB6 JUMPI PUSH2 0xFB5 PUSH2 0xE3E JUMP JUMPDEST JUMPDEST PUSH1 0x1 DUP3 ADD SWAP1 POP SWAP2 SWAP1 POP JUMP JUMPDEST PUSH32 0x4E487B7100000000000000000000000000000000000000000000000000000000 PUSH1 0x0 MSTORE PUSH1 0x32 PUSH1 0x4 MSTORE PUSH1 0x24 PUSH1 0x0 REVERT JUMPDEST PUSH1 0x0 DUP2 SWAP1 POP DUP2 PUSH1 0x0 MSTORE PUSH1 0x20 PUSH1 0x0 KECCAK256 SWAP1 POP SWAP2 SWAP1 POP JUMP JUMPDEST PUSH1 0x0 PUSH1 0x20 PUSH1 0x1F DUP4 ADD DIV SWAP1 POP SWAP2 SWAP1 POP JUMP JUMPDEST PUSH1 0x0 DUP3 DUP3 SHL SWAP1 POP SWAP3 SWAP2 POP POP JUMP JUMPDEST PUSH1 0x0 PUSH1 0x8 DUP4 MUL PUSH2 0x1052 PUSH32 0xFFFFFFFFFFFFFFFFFFFFFFFFFFFFFFFFFFFFFFFFFFFFFFFFFFFFFFFFFFFFFFFF DUP3 PUSH2 0x1015 JUMP JUMPDEST PUSH2 0x105C DUP7 DUP4 PUSH2 0x1015 JUMP JUMPDEST SWAP6 POP DUP1 NOT DUP5 AND SWAP4 POP DUP1 DUP7 AND DUP5 OR SWAP3 POP POP POP SWAP4 SWAP3 POP POP POP JUMP JUMPDEST PUSH1 0x0 DUP2 SWAP1 POP SWAP2 SWAP1 POP JUMP JUMPDEST PUSH1 0x0 PUSH2 0x1099 PUSH2 0x1094 PUSH2 0x108F DUP5 PUSH2 0xB5C JUMP JUMPDEST PUSH2 0x1074 JUMP JUMPDEST PUSH2 0xB5C JUMP JUMPDEST SWAP1 POP SWAP2 SWAP1 POP JUMP JUMPDEST PUSH1 0x0 DUP2 SWAP1 POP SWAP2 SWAP1 POP JUMP JUMPDEST PUSH2 0x10B3 DUP4 PUSH2 0x107E JUMP JUMPDEST PUSH2 0x10C7 PUSH2 0x10BF DUP3 PUSH2 0x10A0 JUMP JUMPDEST DUP5 DUP5 SLOAD PUSH2 0x1022 JUMP JUMPDEST DUP3 SSTORE POP POP POP POP JUMP JUMPDEST PUSH1 0x0 SWAP1 JUMP JUMPDEST PUSH2 0x10DC PUSH2 0x10CF JUMP JUMPDEST PUSH2 0x10E7 DUP2 DUP5 DUP5 PUSH2 0x10AA JUMP JUMPDEST POP POP POP JUMP JUMPDEST JUMPDEST DUP2 DUP2 LT ISZERO PUSH2 0x110B JUMPI PUSH2 0x1100 PUSH1 0x0 DUP3 PUSH2 0x10D4 JUMP JUMPDEST PUSH1 0x1 DUP2 ADD SWAP1 POP PUSH2 0x10ED JUMP JUMPDEST POP POP JUMP JUMPDEST PUSH1 0x1F DUP3 GT ISZERO PUSH2 0x1150 JUMPI PUSH2 0x1121 DUP2 PUSH2 0xFF0 JUMP JUMPDEST PUSH2 0x112A DUP5 PUSH2 0x1005 JUMP JUMPDEST DUP2 ADD PUSH1 0x20 DUP6 LT ISZERO PUSH2 0x1139 JUMPI DUP2 SWAP1 POP JUMPDEST PUSH2 0x114D PUSH2 0x1145 DUP6 PUSH2 0x1005 JUMP JUMPDEST DUP4 ADD DUP3 PUSH2 0x10EC JUMP JUMPDEST POP POP JUMPDEST POP POP POP JUMP JUMPDEST PUSH1 0x0 DUP3 DUP3 SHR SWAP1 POP SWAP3 SWAP2 POP POP JUMP JUMPDEST PUSH1 0x0 PUSH2 0x1173 PUSH1 0x0 NOT DUP5 PUSH1 0x8 MUL PUSH2 0x1155 JUMP JUMPDEST NOT DUP1 DUP4 AND SWAP2 POP POP SWAP3 SWAP2 POP POP JUMP JUMPDEST PUSH1 0x0 PUSH2 0x118C DUP4 DUP4 PUSH2 0x1162 JUMP JUMPDEST SWAP2 POP DUP3 PUSH1 0x2 MUL DUP3 OR SWAP1 POP SWAP3 SWAP2 POP POP JUMP JUMPDEST PUSH2 0x11A5 DUP3 PUSH2 0x856 JUMP JUMPDEST PUSH8 0xFFFFFFFFFFFFFFFF DUP2 GT ISZERO PUSH2 0x11BE JUMPI PUSH2 0x11BD PUSH2 0x9BC JUMP JUMPDEST JUMPDEST PUSH2 0x11C8 DUP3 SLOAD PUSH2 0xD3D JUMP JUMPDEST PUSH2 0x11D3 DUP3 DUP3 DUP6 PUSH2 0x110F JUMP JUMPDEST PUSH1 0x0 PUSH1 0x20 SWAP1 POP PUSH1 0x1F DUP4 GT PUSH1 0x1 DUP2 EQ PUSH2 0x1206 JUMPI PUSH1 0x0 DUP5 ISZERO PUSH2 0x11F4 JUMPI DUP3 DUP8 ADD MLOAD SWAP1 POP JUMPDEST PUSH2 0x11FE DUP6 DUP3 PUSH2 0x1180 JUMP JUMPDEST DUP7 SSTORE POP PUSH2 0x1266 JUMP JUMPDEST PUSH1 0x1F NOT DUP5 AND PUSH2 0x1214 DUP7 PUSH2 0xFF0 JUMP JUMPDEST PUSH1 0x0 JUMPDEST DUP3 DUP2 LT ISZERO PUSH2 0x123C JUMPI DUP5 DUP10 ADD MLOAD DUP3 SSTORE PUSH1 0x1 DUP3 ADD SWAP2 POP PUSH1 0x20 DUP6 ADD SWAP5 POP PUSH1 0x20 DUP2 ADD SWAP1 POP PUSH2 0x1217 JUMP JUMPDEST DUP7 DUP4 LT ISZERO PUSH2 0x1259 JUMPI DUP5 DUP10 ADD MLOAD PUSH2 0x1255 PUSH1 0x1F DUP10 AND DUP3 PUSH2 0x1162 JUMP JUMPDEST DUP4 SSTORE POP JUMPDEST PUSH1 0x1 PUSH1 0x2 DUP9 MUL ADD DUP9 SSTORE POP POP POP JUMPDEST POP POP POP POP POP POP JUMP JUMPDEST PUSH1 0x0 PUSH2 0x1279 DUP3 PUSH2 0xB5C JUMP JUMPDEST SWAP2 POP PUSH2 0x1284 DUP4 PUSH2 0xB5C JUMP JUMPDEST SWAP3 POP DUP3 DUP3 ADD SWAP1 POP DUP1 DUP3 GT ISZERO PUSH2 0x129C JUMPI PUSH2 0x129B PUSH2 0xE3E JUMP JUMPDEST JUMPDEST SWAP3 SWAP2 POP POP JUMP INVALID LOG2 PUSH5 0x6970667358 0x22 SLT KECCAK256 0xDD 0xBD 0xD9 0xEE BYTE SWAP9 0xE4 PUSH11 0x5B45A87646E323B124F42B TIMESTAMP 0xBE ADDRESS 0xB6 0x2F 0xC0 DIV 0xAF 0xFB 0xED 0xAC EQ CALLDATALOAD PUSH5 0x736F6C6343 STOP ADDMOD SLT STOP CALLER "
				},
				"gasEstimates": {
					"creation": {
						"codeDepositCost": "964800",
						"executionCost": "25313",
						"totalCost": "990113"
					},
					"external": {
						"exchange(string)": "infinite",
						"getRoom()": "infinite",
						"getUser()": "infinite",
						"join()": "478",
						"joinToGame(string)": "infinite",
						"register(string)": "infinite"
					}
				},
				"methodIdentifiers": {
					"exchange(string)": "6393d416",
					"getRoom()": "0da6a32b",
					"getUser()": "832880e7",
					"join()": "b688a363",
					"joinToGame(string)": "d425bff2",
					"register(string)": "f2c298be"
				}
			},
			"storageLayout": {
				"storage": [
					{
						"astId": 16,
						"contract": "contracts-test/230516-test1.sol:QUIZ4",
						"label": "users",
						"offset": 0,
						"slot": "0",
						"type": "t_array(t_struct(User)12_storage)dyn_storage"
					},
					{
						"astId": 18,
						"contract": "contracts-test/230516-test1.sol:QUIZ4",
						"label": "user_address",
						"offset": 0,
						"slot": "1",
						"type": "t_address_payable"
					},
					{
						"astId": 20,
						"contract": "contracts-test/230516-test1.sol:QUIZ4",
						"label": "owner",
						"offset": 0,
						"slot": "2",
						"type": "t_address"
					},
					{
						"astId": 22,
						"contract": "contracts-test/230516-test1.sol:QUIZ4",
						"label": "num",
						"offset": 0,
						"slot": "3",
						"type": "t_uint256"
					},
					{
						"astId": 44,
						"contract": "contracts-test/230516-test1.sol:QUIZ4",
						"label": "User_Name",
						"offset": 0,
						"slot": "4",
						"type": "t_mapping(t_string_memory_ptr,t_struct(User)12_storage)"
					},
					{
						"astId": 48,
						"contract": "contracts-test/230516-test1.sol:QUIZ4",
						"label": "room",
						"offset": 0,
						"slot": "5",
						"type": "t_array(t_string_storage)4_storage"
					}
				],
				"types": {
					"t_address": {
						"encoding": "inplace",
						"label": "address",
						"numberOfBytes": "20"
					},
					"t_address_payable": {
						"encoding": "inplace",
						"label": "address payable",
						"numberOfBytes": "20"
					},
					"t_array(t_string_storage)4_storage": {
						"base": "t_string_storage",
						"encoding": "inplace",
						"label": "string[4]",
						"numberOfBytes": "128"
					},
					"t_array(t_struct(User)12_storage)dyn_storage": {
						"base": "t_struct(User)12_storage",
						"encoding": "dynamic_array",
						"label": "struct QUIZ4.User[]",
						"numberOfBytes": "32"
					},
					"t_mapping(t_string_memory_ptr,t_struct(User)12_storage)": {
						"encoding": "mapping",
						"key": "t_string_memory_ptr",
						"label": "mapping(string => struct QUIZ4.User)",
						"numberOfBytes": "32",
						"value": "t_struct(User)12_storage"
					},
					"t_string_memory_ptr": {
						"encoding": "bytes",
						"label": "string",
						"numberOfBytes": "32"
					},
					"t_string_storage": {
						"encoding": "bytes",
						"label": "string",
						"numberOfBytes": "32"
					},
					"t_struct(User)12_storage": {
						"encoding": "inplace",
						"label": "struct QUIZ4.User",
						"members": [
							{
								"astId": 3,
								"contract": "contracts-test/230516-test1.sol:QUIZ4",
								"label": "number",
								"offset": 0,
								"slot": "0",
								"type": "t_uint256"
							},
							{
								"astId": 5,
								"contract": "contracts-test/230516-test1.sol:QUIZ4",
								"label": "name",
								"offset": 0,
								"slot": "1",
								"type": "t_string_storage"
							},
							{
								"astId": 7,
								"contract": "contracts-test/230516-test1.sol:QUIZ4",
								"label": "Address",
								"offset": 0,
								"slot": "2",
								"type": "t_address_payable"
							},
							{
								"astId": 9,
								"contract": "contracts-test/230516-test1.sol:QUIZ4",
								"label": "balance",
								"offset": 0,
								"slot": "3",
								"type": "t_uint256"
							},
							{
								"astId": 11,
								"contract": "contracts-test/230516-test1.sol:QUIZ4",
								"label": "score",
								"offset": 0,
								"slot": "4",
								"type": "t_uint256"
							}
						],
						"numberOfBytes": "160"
					},
					"t_uint256": {
						"encoding": "inplace",
						"label": "uint256",
						"numberOfBytes": "32"
					}
				}
			},
			"userdoc": {
				"kind": "user",
				"methods": {},
				"version": 1
			}
		}
	}
}