{
	"contracts-quiz/230518-QUIZ6(array)-answer.sol": {
		"Q6": {
			"abi": [
				{
					"inputs": [
						{
							"internalType": "uint256",
							"name": "",
							"type": "uint256"
						}
					],
					"name": "Users",
					"outputs": [
						{
							"internalType": "uint256",
							"name": "number",
							"type": "uint256"
						},
						{
							"internalType": "string",
							"name": "name",
							"type": "string"
						},
						{
							"internalType": "address",
							"name": "addr",
							"type": "address"
						}
					],
					"stateMutability": "view",
					"type": "function"
				},
				{
					"inputs": [],
					"name": "count",
					"outputs": [
						{
							"internalType": "uint256",
							"name": "",
							"type": "uint256"
						}
					],
					"stateMutability": "view",
					"type": "function"
				},
				{
					"inputs": [
						{
							"internalType": "string",
							"name": "_title",
							"type": "string"
						}
					],
					"name": "getPoll",
					"outputs": [
						{
							"components": [
								{
									"internalType": "uint256",
									"name": "number",
									"type": "uint256"
								},
								{
									"internalType": "string",
									"name": "title",
									"type": "string"
								},
								{
									"internalType": "string",
									"name": "context",
									"type": "string"
								},
								{
									"internalType": "address",
									"name": "by",
									"type": "address"
								},
								{
									"internalType": "uint256",
									"name": "pros",
									"type": "uint256"
								},
								{
									"internalType": "uint256",
									"name": "cons",
									"type": "uint256"
								},
								{
									"internalType": "enum Q6.pollStatus",
									"name": "status",
									"type": "uint8"
								}
							],
							"internalType": "struct Q6.poll",
							"name": "",
							"type": "tuple"
						}
					],
					"stateMutability": "view",
					"type": "function"
				},
				{
					"inputs": [],
					"name": "getUsersLength",
					"outputs": [
						{
							"internalType": "uint256",
							"name": "",
							"type": "uint256"
						}
					],
					"stateMutability": "view",
					"type": "function"
				},
				{
					"inputs": [
						{
							"internalType": "string",
							"name": "",
							"type": "string"
						}
					],
					"name": "polls",
					"outputs": [
						{
							"internalType": "uint256",
							"name": "number",
							"type": "uint256"
						},
						{
							"internalType": "string",
							"name": "title",
							"type": "string"
						},
						{
							"internalType": "string",
							"name": "context",
							"type": "string"
						},
						{
							"internalType": "address",
							"name": "by",
							"type": "address"
						},
						{
							"internalType": "uint256",
							"name": "pros",
							"type": "uint256"
						},
						{
							"internalType": "uint256",
							"name": "cons",
							"type": "uint256"
						},
						{
							"internalType": "enum Q6.pollStatus",
							"name": "status",
							"type": "uint8"
						}
					],
					"stateMutability": "view",
					"type": "function"
				},
				{
					"inputs": [
						{
							"internalType": "uint256",
							"name": "_number",
							"type": "uint256"
						},
						{
							"internalType": "string",
							"name": "_name",
							"type": "string"
						},
						{
							"internalType": "address",
							"name": "_addr",
							"type": "address"
						}
					],
					"name": "pushUser",
					"outputs": [],
					"stateMutability": "nonpayable",
					"type": "function"
				},
				{
					"inputs": [
						{
							"internalType": "string",
							"name": "_title",
							"type": "string"
						},
						{
							"internalType": "string",
							"name": "_context",
							"type": "string"
						},
						{
							"internalType": "address",
							"name": "_addr",
							"type": "address"
						}
					],
					"name": "suggest",
					"outputs": [],
					"stateMutability": "nonpayable",
					"type": "function"
				},
				{
					"inputs": [
						{
							"internalType": "uint256",
							"name": "number",
							"type": "uint256"
						},
						{
							"internalType": "string",
							"name": "_title",
							"type": "string"
						},
						{
							"internalType": "bool",
							"name": "_vote",
							"type": "bool"
						}
					],
					"name": "vote",
					"outputs": [],
					"stateMutability": "nonpayable",
					"type": "function"
				}
			],
			"devdoc": {
				"kind": "dev",
				"methods": {},
				"version": 1
			},
			"evm": {
				"assembly": "    /* \"contracts-quiz/230518-QUIZ6(array)-answer.sol\":3019:5455  contract Q6 {... */\n  mstore(0x40, 0x80)\n  callvalue\n  dup1\n  iszero\n  tag_1\n  jumpi\n  0x00\n  dup1\n  revert\ntag_1:\n  pop\n  dataSize(sub_0)\n  dup1\n  dataOffset(sub_0)\n  0x00\n  codecopy\n  0x00\n  return\nstop\n\nsub_0: assembly {\n        /* \"contracts-quiz/230518-QUIZ6(array)-answer.sol\":3019:5455  contract Q6 {... */\n      mstore(0x40, 0x80)\n      callvalue\n      dup1\n      iszero\n      tag_1\n      jumpi\n      0x00\n      dup1\n      revert\n    tag_1:\n      pop\n      jumpi(tag_2, lt(calldatasize, 0x04))\n      shr(0xe0, calldataload(0x00))\n      dup1\n      0x595b1a3e\n      gt\n      tag_11\n      jumpi\n      dup1\n      0x595b1a3e\n      eq\n      tag_7\n      jumpi\n      dup1\n      0x8058316a\n      eq\n      tag_8\n      jumpi\n      dup1\n      0x933856c7\n      eq\n      tag_9\n      jumpi\n      dup1\n      0x980ad519\n      eq\n      tag_10\n      jumpi\n      jump(tag_2)\n    tag_11:\n      dup1\n      0x06661abd\n      eq\n      tag_3\n      jumpi\n      dup1\n      0x10a688e3\n      eq\n      tag_4\n      jumpi\n      dup1\n      0x1e98fd1c\n      eq\n      tag_5\n      jumpi\n      dup1\n      0x369b0d82\n      eq\n      tag_6\n      jumpi\n    tag_2:\n      0x00\n      dup1\n      revert\n        /* \"contracts-quiz/230518-QUIZ6(array)-answer.sol\":3464:3481  uint public count */\n    tag_3:\n      tag_12\n      tag_13\n      jump\t// in\n    tag_12:\n      mload(0x40)\n      tag_14\n      swap2\n      swap1\n      tag_15\n      jump\t// in\n    tag_14:\n      mload(0x40)\n      dup1\n      swap2\n      sub\n      swap1\n      return\n        /* \"contracts-quiz/230518-QUIZ6(array)-answer.sol\":5344:5453  function getPoll(string memory _title) public view returns(poll memory) {... */\n    tag_4:\n      tag_16\n      0x04\n      dup1\n      calldatasize\n      sub\n      dup2\n      add\n      swap1\n      tag_17\n      swap2\n      swap1\n      tag_18\n      jump\t// in\n    tag_17:\n      tag_19\n      jump\t// in\n    tag_16:\n      mload(0x40)\n      tag_20\n      swap2\n      swap1\n      tag_21\n      jump\t// in\n    tag_20:\n      mload(0x40)\n      dup1\n      swap2\n      sub\n      swap1\n      return\n        /* \"contracts-quiz/230518-QUIZ6(array)-answer.sol\":3860:3879  user[] public Users */\n    tag_5:\n      tag_22\n      0x04\n      dup1\n      calldatasize\n      sub\n      dup2\n      add\n      swap1\n      tag_23\n      swap2\n      swap1\n      tag_24\n      jump\t// in\n    tag_23:\n      tag_25\n      jump\t// in\n    tag_22:\n      mload(0x40)\n      tag_26\n      swap4\n      swap3\n      swap2\n      swap1\n      tag_27\n      jump\t// in\n    tag_26:\n      mload(0x40)\n      dup1\n      swap2\n      sub\n      swap1\n      return\n        /* \"contracts-quiz/230518-QUIZ6(array)-answer.sol\":4422:4914  function vote(uint number, string memory _title, bool _vote) public {... */\n    tag_6:\n      tag_28\n      0x04\n      dup1\n      calldatasize\n      sub\n      dup2\n      add\n      swap1\n      tag_29\n      swap2\n      swap1\n      tag_30\n      jump\t// in\n    tag_29:\n      tag_31\n      jump\t// in\n    tag_28:\n      stop\n        /* \"contracts-quiz/230518-QUIZ6(array)-answer.sol\":3886:3974  function getUsersLength() public view returns(uint) {... */\n    tag_7:\n      tag_32\n      tag_33\n      jump\t// in\n    tag_32:\n      mload(0x40)\n      tag_34\n      swap2\n      swap1\n      tag_15\n      jump\t// in\n    tag_34:\n      mload(0x40)\n      dup1\n      swap2\n      sub\n      swap1\n      return\n        /* \"contracts-quiz/230518-QUIZ6(array)-answer.sol\":3271:3307  mapping(string => poll) public polls */\n    tag_8:\n      tag_35\n      0x04\n      dup1\n      calldatasize\n      sub\n      dup2\n      add\n      swap1\n      tag_36\n      swap2\n      swap1\n      tag_18\n      jump\t// in\n    tag_36:\n      tag_37\n      jump\t// in\n    tag_35:\n      mload(0x40)\n      tag_38\n      swap8\n      swap7\n      swap6\n      swap5\n      swap4\n      swap3\n      swap2\n      swap1\n      tag_39\n      jump\t// in\n    tag_38:\n      mload(0x40)\n      dup1\n      swap2\n      sub\n      swap1\n      return\n        /* \"contracts-quiz/230518-QUIZ6(array)-answer.sol\":3980:4249  function pushUser(uint _number, string memory _name, address _addr) public {... */\n    tag_9:\n      tag_40\n      0x04\n      dup1\n      calldatasize\n      sub\n      dup2\n      add\n      swap1\n      tag_41\n      swap2\n      swap1\n      tag_42\n      jump\t// in\n    tag_41:\n      tag_43\n      jump\t// in\n    tag_40:\n      stop\n        /* \"contracts-quiz/230518-QUIZ6(array)-answer.sol\":5002:5187  function suggest(string calldata _title, string calldata _context, address _addr) public {... */\n    tag_10:\n      tag_44\n      0x04\n      dup1\n      calldatasize\n      sub\n      dup2\n      add\n      swap1\n      tag_45\n      swap2\n      swap1\n      tag_46\n      jump\t// in\n    tag_45:\n      tag_47\n      jump\t// in\n    tag_44:\n      stop\n        /* \"contracts-quiz/230518-QUIZ6(array)-answer.sol\":3464:3481  uint public count */\n    tag_13:\n      sload(0x01)\n      dup2\n      jump\t// out\n        /* \"contracts-quiz/230518-QUIZ6(array)-answer.sol\":5344:5453  function getPoll(string memory _title) public view returns(poll memory) {... */\n    tag_19:\n        /* \"contracts-quiz/230518-QUIZ6(array)-answer.sol\":5403:5414  poll memory */\n      tag_48\n      tag_49\n      jump\t// in\n    tag_48:\n        /* \"contracts-quiz/230518-QUIZ6(array)-answer.sol\":5433:5438  polls */\n      0x00\n        /* \"contracts-quiz/230518-QUIZ6(array)-answer.sol\":5439:5445  _title */\n      dup3\n        /* \"contracts-quiz/230518-QUIZ6(array)-answer.sol\":5433:5446  polls[_title] */\n      mload(0x40)\n      tag_51\n      swap2\n      swap1\n      tag_52\n      jump\t// in\n    tag_51:\n      swap1\n      dup2\n      mstore\n      0x20\n      add\n      mload(0x40)\n      dup1\n      swap2\n      sub\n      swap1\n      keccak256\n        /* \"contracts-quiz/230518-QUIZ6(array)-answer.sol\":5426:5446  return polls[_title] */\n      mload(0x40)\n      dup1\n      0xe0\n      add\n      0x40\n      mstore\n      swap1\n      dup2\n      0x00\n      dup3\n      add\n      sload\n      dup2\n      mstore\n      0x20\n      add\n      0x01\n      dup3\n      add\n      dup1\n      sload\n      tag_53\n      swap1\n      tag_54\n      jump\t// in\n    tag_53:\n      dup1\n      0x1f\n      add\n      0x20\n      dup1\n      swap2\n      div\n      mul\n      0x20\n      add\n      mload(0x40)\n      swap1\n      dup2\n      add\n      0x40\n      mstore\n      dup1\n      swap3\n      swap2\n      swap1\n      dup2\n      dup2\n      mstore\n      0x20\n      add\n      dup3\n      dup1\n      sload\n      tag_55\n      swap1\n      tag_54\n      jump\t// in\n    tag_55:\n      dup1\n      iszero\n      tag_56\n      jumpi\n      dup1\n      0x1f\n      lt\n      tag_57\n      jumpi\n      0x0100\n      dup1\n      dup4\n      sload\n      div\n      mul\n      dup4\n      mstore\n      swap2\n      0x20\n      add\n      swap2\n      jump(tag_56)\n    tag_57:\n      dup3\n      add\n      swap2\n      swap1\n      0x00\n      mstore\n      keccak256(0x00, 0x20)\n      swap1\n    tag_58:\n      dup2\n      sload\n      dup2\n      mstore\n      swap1\n      0x01\n      add\n      swap1\n      0x20\n      add\n      dup1\n      dup4\n      gt\n      tag_58\n      jumpi\n      dup3\n      swap1\n      sub\n      0x1f\n      and\n      dup3\n      add\n      swap2\n    tag_56:\n      pop\n      pop\n      pop\n      pop\n      pop\n      dup2\n      mstore\n      0x20\n      add\n      0x02\n      dup3\n      add\n      dup1\n      sload\n      tag_59\n      swap1\n      tag_54\n      jump\t// in\n    tag_59:\n      dup1\n      0x1f\n      add\n      0x20\n      dup1\n      swap2\n      div\n      mul\n      0x20\n      add\n      mload(0x40)\n      swap1\n      dup2\n      add\n      0x40\n      mstore\n      dup1\n      swap3\n      swap2\n      swap1\n      dup2\n      dup2\n      mstore\n      0x20\n      add\n      dup3\n      dup1\n      sload\n      tag_60\n      swap1\n      tag_54\n      jump\t// in\n    tag_60:\n      dup1\n      iszero\n      tag_61\n      jumpi\n      dup1\n      0x1f\n      lt\n      tag_62\n      jumpi\n      0x0100\n      dup1\n      dup4\n      sload\n      div\n      mul\n      dup4\n      mstore\n      swap2\n      0x20\n      add\n      swap2\n      jump(tag_61)\n    tag_62:\n      dup3\n      add\n      swap2\n      swap1\n      0x00\n      mstore\n      keccak256(0x00, 0x20)\n      swap1\n    tag_63:\n      dup2\n      sload\n      dup2\n      mstore\n      swap1\n      0x01\n      add\n      swap1\n      0x20\n      add\n      dup1\n      dup4\n      gt\n      tag_63\n      jumpi\n      dup3\n      swap1\n      sub\n      0x1f\n      and\n      dup3\n      add\n      swap2\n    tag_61:\n      pop\n      pop\n      pop\n      pop\n      pop\n      dup2\n      mstore\n      0x20\n      add\n      0x03\n      dup3\n      add\n      0x00\n      swap1\n      sload\n      swap1\n      0x0100\n      exp\n      swap1\n      div\n      0xffffffffffffffffffffffffffffffffffffffff\n      and\n      0xffffffffffffffffffffffffffffffffffffffff\n      and\n      0xffffffffffffffffffffffffffffffffffffffff\n      and\n      dup2\n      mstore\n      0x20\n      add\n      0x04\n      dup3\n      add\n      sload\n      dup2\n      mstore\n      0x20\n      add\n      0x05\n      dup3\n      add\n      sload\n      dup2\n      mstore\n      0x20\n      add\n      0x06\n      dup3\n      add\n      0x00\n      swap1\n      sload\n      swap1\n      0x0100\n      exp\n      swap1\n      div\n      0xff\n      and\n      0x02\n      dup2\n      gt\n      iszero\n      tag_64\n      jumpi\n      tag_65\n      tag_66\n      jump\t// in\n    tag_65:\n    tag_64:\n      0x02\n      dup2\n      gt\n      iszero\n      tag_67\n      jumpi\n      tag_68\n      tag_66\n      jump\t// in\n    tag_68:\n    tag_67:\n      dup2\n      mstore\n      pop\n      pop\n      swap1\n      pop\n        /* \"contracts-quiz/230518-QUIZ6(array)-answer.sol\":5344:5453  function getPoll(string memory _title) public view returns(poll memory) {... */\n      swap2\n      swap1\n      pop\n      jump\t// out\n        /* \"contracts-quiz/230518-QUIZ6(array)-answer.sol\":3860:3879  user[] public Users */\n    tag_25:\n      0x02\n      dup2\n      dup2\n      sload\n      dup2\n      lt\n      tag_69\n      jumpi\n      0x00\n      dup1\n      revert\n    tag_69:\n      swap1\n      0x00\n      mstore\n      keccak256(0x00, 0x20)\n      swap1\n      0x05\n      mul\n      add\n      0x00\n      swap2\n      pop\n      swap1\n      pop\n      dup1\n      0x00\n      add\n      sload\n      swap1\n      dup1\n      0x01\n      add\n      dup1\n      sload\n      tag_71\n      swap1\n      tag_54\n      jump\t// in\n    tag_71:\n      dup1\n      0x1f\n      add\n      0x20\n      dup1\n      swap2\n      div\n      mul\n      0x20\n      add\n      mload(0x40)\n      swap1\n      dup2\n      add\n      0x40\n      mstore\n      dup1\n      swap3\n      swap2\n      swap1\n      dup2\n      dup2\n      mstore\n      0x20\n      add\n      dup3\n      dup1\n      sload\n      tag_72\n      swap1\n      tag_54\n      jump\t// in\n    tag_72:\n      dup1\n      iszero\n      tag_73\n      jumpi\n      dup1\n      0x1f\n      lt\n      tag_74\n      jumpi\n      0x0100\n      dup1\n      dup4\n      sload\n      div\n      mul\n      dup4\n      mstore\n      swap2\n      0x20\n      add\n      swap2\n      jump(tag_73)\n    tag_74:\n      dup3\n      add\n      swap2\n      swap1\n      0x00\n      mstore\n      keccak256(0x00, 0x20)\n      swap1\n    tag_75:\n      dup2\n      sload\n      dup2\n      mstore\n      swap1\n      0x01\n      add\n      swap1\n      0x20\n      add\n      dup1\n      dup4\n      gt\n      tag_75\n      jumpi\n      dup3\n      swap1\n      sub\n      0x1f\n      and\n      dup3\n      add\n      swap2\n    tag_73:\n      pop\n      pop\n      pop\n      pop\n      pop\n      swap1\n      dup1\n      0x02\n      add\n      0x00\n      swap1\n      sload\n      swap1\n      0x0100\n      exp\n      swap1\n      div\n      0xffffffffffffffffffffffffffffffffffffffff\n      and\n      swap1\n      pop\n      dup4\n      jump\t// out\n        /* \"contracts-quiz/230518-QUIZ6(array)-answer.sol\":4422:4914  function vote(uint number, string memory _title, bool _vote) public {... */\n    tag_31:\n        /* \"contracts-quiz/230518-QUIZ6(array)-answer.sol\":4537:4558  votingStatus.notVoted */\n      0x00\n        /* \"contracts-quiz/230518-QUIZ6(array)-answer.sol\":4508:4558  Users[number].voted[_title]==votingStatus.notVoted */\n      0x02\n      dup2\n      gt\n      iszero\n      tag_77\n      jumpi\n      tag_78\n      tag_66\n      jump\t// in\n    tag_78:\n    tag_77:\n        /* \"contracts-quiz/230518-QUIZ6(array)-answer.sol\":4508:4513  Users */\n      0x02\n        /* \"contracts-quiz/230518-QUIZ6(array)-answer.sol\":4514:4520  number */\n      dup5\n        /* \"contracts-quiz/230518-QUIZ6(array)-answer.sol\":4508:4521  Users[number] */\n      dup2\n      sload\n      dup2\n      lt\n      tag_79\n      jumpi\n      tag_80\n      tag_81\n      jump\t// in\n    tag_80:\n    tag_79:\n      swap1\n      0x00\n      mstore\n      keccak256(0x00, 0x20)\n      swap1\n      0x05\n      mul\n      add\n        /* \"contracts-quiz/230518-QUIZ6(array)-answer.sol\":4508:4527  Users[number].voted */\n      0x04\n      add\n        /* \"contracts-quiz/230518-QUIZ6(array)-answer.sol\":4528:4534  _title */\n      dup4\n        /* \"contracts-quiz/230518-QUIZ6(array)-answer.sol\":4508:4535  Users[number].voted[_title] */\n      mload(0x40)\n      tag_83\n      swap2\n      swap1\n      tag_52\n      jump\t// in\n    tag_83:\n      swap1\n      dup2\n      mstore\n      0x20\n      add\n      mload(0x40)\n      dup1\n      swap2\n      sub\n      swap1\n      keccak256\n      0x00\n      swap1\n      sload\n      swap1\n      0x0100\n      exp\n      swap1\n      div\n      0xff\n      and\n        /* \"contracts-quiz/230518-QUIZ6(array)-answer.sol\":4508:4558  Users[number].voted[_title]==votingStatus.notVoted */\n      0x02\n      dup2\n      gt\n      iszero\n      tag_84\n      jumpi\n      tag_85\n      tag_66\n      jump\t// in\n    tag_85:\n    tag_84:\n      eq\n        /* \"contracts-quiz/230518-QUIZ6(array)-answer.sol\":4500:4559  require(Users[number].voted[_title]==votingStatus.notVoted) */\n      tag_86\n      jumpi\n      0x00\n      dup1\n      revert\n    tag_86:\n        /* \"contracts-quiz/230518-QUIZ6(array)-answer.sol\":4686:4690  true */\n      0x01\n        /* \"contracts-quiz/230518-QUIZ6(array)-answer.sol\":4679:4690  _vote==true */\n      iszero\n      iszero\n        /* \"contracts-quiz/230518-QUIZ6(array)-answer.sol\":4679:4684  _vote */\n      dup2\n        /* \"contracts-quiz/230518-QUIZ6(array)-answer.sol\":4679:4690  _vote==true */\n      iszero\n      iszero\n      sub\n        /* \"contracts-quiz/230518-QUIZ6(array)-answer.sol\":4676:4908  if(_vote==true) {... */\n      tag_87\n      jumpi\n        /* \"contracts-quiz/230518-QUIZ6(array)-answer.sol\":4706:4711  polls */\n      0x00\n        /* \"contracts-quiz/230518-QUIZ6(array)-answer.sol\":4712:4718  _title */\n      dup3\n        /* \"contracts-quiz/230518-QUIZ6(array)-answer.sol\":4706:4719  polls[_title] */\n      mload(0x40)\n      tag_88\n      swap2\n      swap1\n      tag_52\n      jump\t// in\n    tag_88:\n      swap1\n      dup2\n      mstore\n      0x20\n      add\n      mload(0x40)\n      dup1\n      swap2\n      sub\n      swap1\n      keccak256\n        /* \"contracts-quiz/230518-QUIZ6(array)-answer.sol\":4706:4724  polls[_title].pros */\n      0x04\n      add\n      0x00\n        /* \"contracts-quiz/230518-QUIZ6(array)-answer.sol\":4706:4726  polls[_title].pros++ */\n      dup2\n      sload\n      dup1\n      swap3\n      swap2\n      swap1\n      tag_89\n      swap1\n      tag_90\n      jump\t// in\n    tag_89:\n      swap2\n      swap1\n      pop\n      sstore\n      pop\n        /* \"contracts-quiz/230518-QUIZ6(array)-answer.sol\":4770:4786  votingStatus.pro */\n      0x01\n        /* \"contracts-quiz/230518-QUIZ6(array)-answer.sol\":4740:4745  Users */\n      0x02\n        /* \"contracts-quiz/230518-QUIZ6(array)-answer.sol\":4746:4752  number */\n      dup5\n        /* \"contracts-quiz/230518-QUIZ6(array)-answer.sol\":4740:4753  Users[number] */\n      dup2\n      sload\n      dup2\n      lt\n      tag_91\n      jumpi\n      tag_92\n      tag_81\n      jump\t// in\n    tag_92:\n    tag_91:\n      swap1\n      0x00\n      mstore\n      keccak256(0x00, 0x20)\n      swap1\n      0x05\n      mul\n      add\n        /* \"contracts-quiz/230518-QUIZ6(array)-answer.sol\":4740:4759  Users[number].voted */\n      0x04\n      add\n        /* \"contracts-quiz/230518-QUIZ6(array)-answer.sol\":4760:4766  _title */\n      dup4\n        /* \"contracts-quiz/230518-QUIZ6(array)-answer.sol\":4740:4767  Users[number].voted[_title] */\n      mload(0x40)\n      tag_94\n      swap2\n      swap1\n      tag_52\n      jump\t// in\n    tag_94:\n      swap1\n      dup2\n      mstore\n      0x20\n      add\n      mload(0x40)\n      dup1\n      swap2\n      sub\n      swap1\n      keccak256\n      0x00\n        /* \"contracts-quiz/230518-QUIZ6(array)-answer.sol\":4740:4786  Users[number].voted[_title] = votingStatus.pro */\n      0x0100\n      exp\n      dup2\n      sload\n      dup2\n      0xff\n      mul\n      not\n      and\n      swap1\n      dup4\n      0x02\n      dup2\n      gt\n      iszero\n      tag_95\n      jumpi\n      tag_96\n      tag_66\n      jump\t// in\n    tag_96:\n    tag_95:\n      mul\n      or\n      swap1\n      sstore\n      pop\n        /* \"contracts-quiz/230518-QUIZ6(array)-answer.sol\":4676:4908  if(_vote==true) {... */\n      jump(tag_97)\n    tag_87:\n        /* \"contracts-quiz/230518-QUIZ6(array)-answer.sol\":4817:4822  polls */\n      0x00\n        /* \"contracts-quiz/230518-QUIZ6(array)-answer.sol\":4823:4829  _title */\n      dup3\n        /* \"contracts-quiz/230518-QUIZ6(array)-answer.sol\":4817:4830  polls[_title] */\n      mload(0x40)\n      tag_98\n      swap2\n      swap1\n      tag_52\n      jump\t// in\n    tag_98:\n      swap1\n      dup2\n      mstore\n      0x20\n      add\n      mload(0x40)\n      dup1\n      swap2\n      sub\n      swap1\n      keccak256\n        /* \"contracts-quiz/230518-QUIZ6(array)-answer.sol\":4817:4835  polls[_title].cons */\n      0x05\n      add\n      0x00\n        /* \"contracts-quiz/230518-QUIZ6(array)-answer.sol\":4817:4837  polls[_title].cons++ */\n      dup2\n      sload\n      dup1\n      swap3\n      swap2\n      swap1\n      tag_99\n      swap1\n      tag_90\n      jump\t// in\n    tag_99:\n      swap2\n      swap1\n      pop\n      sstore\n      pop\n        /* \"contracts-quiz/230518-QUIZ6(array)-answer.sol\":4881:4897  votingStatus.con */\n      0x02\n        /* \"contracts-quiz/230518-QUIZ6(array)-answer.sol\":4851:4856  Users */\n      dup1\n        /* \"contracts-quiz/230518-QUIZ6(array)-answer.sol\":4857:4863  number */\n      dup5\n        /* \"contracts-quiz/230518-QUIZ6(array)-answer.sol\":4851:4864  Users[number] */\n      dup2\n      sload\n      dup2\n      lt\n      tag_100\n      jumpi\n      tag_101\n      tag_81\n      jump\t// in\n    tag_101:\n    tag_100:\n      swap1\n      0x00\n      mstore\n      keccak256(0x00, 0x20)\n      swap1\n      0x05\n      mul\n      add\n        /* \"contracts-quiz/230518-QUIZ6(array)-answer.sol\":4851:4870  Users[number].voted */\n      0x04\n      add\n        /* \"contracts-quiz/230518-QUIZ6(array)-answer.sol\":4871:4877  _title */\n      dup4\n        /* \"contracts-quiz/230518-QUIZ6(array)-answer.sol\":4851:4878  Users[number].voted[_title] */\n      mload(0x40)\n      tag_103\n      swap2\n      swap1\n      tag_52\n      jump\t// in\n    tag_103:\n      swap1\n      dup2\n      mstore\n      0x20\n      add\n      mload(0x40)\n      dup1\n      swap2\n      sub\n      swap1\n      keccak256\n      0x00\n        /* \"contracts-quiz/230518-QUIZ6(array)-answer.sol\":4851:4897  Users[number].voted[_title] = votingStatus.con */\n      0x0100\n      exp\n      dup2\n      sload\n      dup2\n      0xff\n      mul\n      not\n      and\n      swap1\n      dup4\n      0x02\n      dup2\n      gt\n      iszero\n      tag_104\n      jumpi\n      tag_105\n      tag_66\n      jump\t// in\n    tag_105:\n    tag_104:\n      mul\n      or\n      swap1\n      sstore\n      pop\n        /* \"contracts-quiz/230518-QUIZ6(array)-answer.sol\":4676:4908  if(_vote==true) {... */\n    tag_97:\n        /* \"contracts-quiz/230518-QUIZ6(array)-answer.sol\":4422:4914  function vote(uint number, string memory _title, bool _vote) public {... */\n      pop\n      pop\n      pop\n      jump\t// out\n        /* \"contracts-quiz/230518-QUIZ6(array)-answer.sol\":3886:3974  function getUsersLength() public view returns(uint) {... */\n    tag_33:\n        /* \"contracts-quiz/230518-QUIZ6(array)-answer.sol\":3932:3936  uint */\n      0x00\n        /* \"contracts-quiz/230518-QUIZ6(array)-answer.sol\":3955:3960  Users */\n      0x02\n        /* \"contracts-quiz/230518-QUIZ6(array)-answer.sol\":3955:3967  Users.length */\n      dup1\n      sload\n      swap1\n      pop\n        /* \"contracts-quiz/230518-QUIZ6(array)-answer.sol\":3948:3967  return Users.length */\n      swap1\n      pop\n        /* \"contracts-quiz/230518-QUIZ6(array)-answer.sol\":3886:3974  function getUsersLength() public view returns(uint) {... */\n      swap1\n      jump\t// out\n        /* \"contracts-quiz/230518-QUIZ6(array)-answer.sol\":3271:3307  mapping(string => poll) public polls */\n    tag_37:\n      0x00\n      dup2\n      dup1\n      mload\n      0x20\n      dup2\n      add\n      dup3\n      add\n      dup1\n      mload\n      dup5\n      dup3\n      mstore\n      0x20\n      dup4\n      add\n      0x20\n      dup6\n      add\n      keccak256\n      dup2\n      dup4\n      mstore\n      dup1\n      swap6\n      pop\n      pop\n      pop\n      pop\n      pop\n      pop\n      0x00\n      swap2\n      pop\n      swap1\n      pop\n      dup1\n      0x00\n      add\n      sload\n      swap1\n      dup1\n      0x01\n      add\n      dup1\n      sload\n      tag_107\n      swap1\n      tag_54\n      jump\t// in\n    tag_107:\n      dup1\n      0x1f\n      add\n      0x20\n      dup1\n      swap2\n      div\n      mul\n      0x20\n      add\n      mload(0x40)\n      swap1\n      dup2\n      add\n      0x40\n      mstore\n      dup1\n      swap3\n      swap2\n      swap1\n      dup2\n      dup2\n      mstore\n      0x20\n      add\n      dup3\n      dup1\n      sload\n      tag_108\n      swap1\n      tag_54\n      jump\t// in\n    tag_108:\n      dup1\n      iszero\n      tag_109\n      jumpi\n      dup1\n      0x1f\n      lt\n      tag_110\n      jumpi\n      0x0100\n      dup1\n      dup4\n      sload\n      div\n      mul\n      dup4\n      mstore\n      swap2\n      0x20\n      add\n      swap2\n      jump(tag_109)\n    tag_110:\n      dup3\n      add\n      swap2\n      swap1\n      0x00\n      mstore\n      keccak256(0x00, 0x20)\n      swap1\n    tag_111:\n      dup2\n      sload\n      dup2\n      mstore\n      swap1\n      0x01\n      add\n      swap1\n      0x20\n      add\n      dup1\n      dup4\n      gt\n      tag_111\n      jumpi\n      dup3\n      swap1\n      sub\n      0x1f\n      and\n      dup3\n      add\n      swap2\n    tag_109:\n      pop\n      pop\n      pop\n      pop\n      pop\n      swap1\n      dup1\n      0x02\n      add\n      dup1\n      sload\n      tag_112\n      swap1\n      tag_54\n      jump\t// in\n    tag_112:\n      dup1\n      0x1f\n      add\n      0x20\n      dup1\n      swap2\n      div\n      mul\n      0x20\n      add\n      mload(0x40)\n      swap1\n      dup2\n      add\n      0x40\n      mstore\n      dup1\n      swap3\n      swap2\n      swap1\n      dup2\n      dup2\n      mstore\n      0x20\n      add\n      dup3\n      dup1\n      sload\n      tag_113\n      swap1\n      tag_54\n      jump\t// in\n    tag_113:\n      dup1\n      iszero\n      tag_114\n      jumpi\n      dup1\n      0x1f\n      lt\n      tag_115\n      jumpi\n      0x0100\n      dup1\n      dup4\n      sload\n      div\n      mul\n      dup4\n      mstore\n      swap2\n      0x20\n      add\n      swap2\n      jump(tag_114)\n    tag_115:\n      dup3\n      add\n      swap2\n      swap1\n      0x00\n      mstore\n      keccak256(0x00, 0x20)\n      swap1\n    tag_116:\n      dup2\n      sload\n      dup2\n      mstore\n      swap1\n      0x01\n      add\n      swap1\n      0x20\n      add\n      dup1\n      dup4\n      gt\n      tag_116\n      jumpi\n      dup3\n      swap1\n      sub\n      0x1f\n      and\n      dup3\n      add\n      swap2\n    tag_114:\n      pop\n      pop\n      pop\n      pop\n      pop\n      swap1\n      dup1\n      0x03\n      add\n      0x00\n      swap1\n      sload\n      swap1\n      0x0100\n      exp\n      swap1\n      div\n      0xffffffffffffffffffffffffffffffffffffffff\n      and\n      swap1\n      dup1\n      0x04\n      add\n      sload\n      swap1\n      dup1\n      0x05\n      add\n      sload\n      swap1\n      dup1\n      0x06\n      add\n      0x00\n      swap1\n      sload\n      swap1\n      0x0100\n      exp\n      swap1\n      div\n      0xff\n      and\n      swap1\n      pop\n      dup8\n      jump\t// out\n        /* \"contracts-quiz/230518-QUIZ6(array)-answer.sol\":3980:4249  function pushUser(uint _number, string memory _name, address _addr) public {... */\n    tag_43:\n        /* \"contracts-quiz/230518-QUIZ6(array)-answer.sol\":4065:4086  user storage _newuser */\n      0x00\n        /* \"contracts-quiz/230518-QUIZ6(array)-answer.sol\":4089:4094  Users */\n      0x02\n        /* \"contracts-quiz/230518-QUIZ6(array)-answer.sol\":4089:4101  Users.push() */\n      0x01\n      dup2\n      0x01\n      dup2\n      sload\n      add\n      dup1\n      dup3\n      sstore\n      dup1\n      swap2\n      pop\n      pop\n      sub\n      swap1\n      0x00\n      mstore\n      keccak256(0x00, 0x20)\n      swap1\n      0x05\n      mul\n      add\n        /* \"contracts-quiz/230518-QUIZ6(array)-answer.sol\":4065:4101  user storage _newuser = Users.push() */\n      swap1\n      pop\n        /* \"contracts-quiz/230518-QUIZ6(array)-answer.sol\":4142:4149  _number */\n      dup4\n        /* \"contracts-quiz/230518-QUIZ6(array)-answer.sol\":4111:4116  Users */\n      0x02\n        /* \"contracts-quiz/230518-QUIZ6(array)-answer.sol\":4130:4131  1 */\n      0x01\n        /* \"contracts-quiz/230518-QUIZ6(array)-answer.sol\":4117:4122  Users */\n      0x02\n        /* \"contracts-quiz/230518-QUIZ6(array)-answer.sol\":4117:4129  Users.length */\n      dup1\n      sload\n      swap1\n      pop\n        /* \"contracts-quiz/230518-QUIZ6(array)-answer.sol\":4117:4131  Users.length-1 */\n      tag_119\n      swap2\n      swap1\n      tag_120\n      jump\t// in\n    tag_119:\n        /* \"contracts-quiz/230518-QUIZ6(array)-answer.sol\":4111:4132  Users[Users.length-1] */\n      dup2\n      sload\n      dup2\n      lt\n      tag_121\n      jumpi\n      tag_122\n      tag_81\n      jump\t// in\n    tag_122:\n    tag_121:\n      swap1\n      0x00\n      mstore\n      keccak256(0x00, 0x20)\n      swap1\n      0x05\n      mul\n      add\n        /* \"contracts-quiz/230518-QUIZ6(array)-answer.sol\":4111:4139  Users[Users.length-1].number */\n      0x00\n      add\n        /* \"contracts-quiz/230518-QUIZ6(array)-answer.sol\":4111:4149  Users[Users.length-1].number = _number */\n      dup2\n      swap1\n      sstore\n      pop\n        /* \"contracts-quiz/230518-QUIZ6(array)-answer.sol\":4188:4193  _name */\n      dup3\n        /* \"contracts-quiz/230518-QUIZ6(array)-answer.sol\":4159:4164  Users */\n      0x02\n        /* \"contracts-quiz/230518-QUIZ6(array)-answer.sol\":4178:4179  1 */\n      0x01\n        /* \"contracts-quiz/230518-QUIZ6(array)-answer.sol\":4165:4170  Users */\n      0x02\n        /* \"contracts-quiz/230518-QUIZ6(array)-answer.sol\":4165:4177  Users.length */\n      dup1\n      sload\n      swap1\n      pop\n        /* \"contracts-quiz/230518-QUIZ6(array)-answer.sol\":4165:4179  Users.length-1 */\n      tag_124\n      swap2\n      swap1\n      tag_120\n      jump\t// in\n    tag_124:\n        /* \"contracts-quiz/230518-QUIZ6(array)-answer.sol\":4159:4180  Users[Users.length-1] */\n      dup2\n      sload\n      dup2\n      lt\n      tag_125\n      jumpi\n      tag_126\n      tag_81\n      jump\t// in\n    tag_126:\n    tag_125:\n      swap1\n      0x00\n      mstore\n      keccak256(0x00, 0x20)\n      swap1\n      0x05\n      mul\n      add\n        /* \"contracts-quiz/230518-QUIZ6(array)-answer.sol\":4159:4185  Users[Users.length-1].name */\n      0x01\n      add\n        /* \"contracts-quiz/230518-QUIZ6(array)-answer.sol\":4159:4193  Users[Users.length-1].name = _name */\n      swap1\n      dup2\n      tag_128\n      swap2\n      swap1\n      tag_129\n      jump\t// in\n    tag_128:\n      pop\n        /* \"contracts-quiz/230518-QUIZ6(array)-answer.sol\":4232:4242  msg.sender */\n      caller\n        /* \"contracts-quiz/230518-QUIZ6(array)-answer.sol\":4203:4208  Users */\n      0x02\n        /* \"contracts-quiz/230518-QUIZ6(array)-answer.sol\":4222:4223  1 */\n      0x01\n        /* \"contracts-quiz/230518-QUIZ6(array)-answer.sol\":4209:4214  Users */\n      0x02\n        /* \"contracts-quiz/230518-QUIZ6(array)-answer.sol\":4209:4221  Users.length */\n      dup1\n      sload\n      swap1\n      pop\n        /* \"contracts-quiz/230518-QUIZ6(array)-answer.sol\":4209:4223  Users.length-1 */\n      tag_130\n      swap2\n      swap1\n      tag_120\n      jump\t// in\n    tag_130:\n        /* \"contracts-quiz/230518-QUIZ6(array)-answer.sol\":4203:4224  Users[Users.length-1] */\n      dup2\n      sload\n      dup2\n      lt\n      tag_131\n      jumpi\n      tag_132\n      tag_81\n      jump\t// in\n    tag_132:\n    tag_131:\n      swap1\n      0x00\n      mstore\n      keccak256(0x00, 0x20)\n      swap1\n      0x05\n      mul\n      add\n        /* \"contracts-quiz/230518-QUIZ6(array)-answer.sol\":4203:4229  Users[Users.length-1].addr */\n      0x02\n      add\n      0x00\n        /* \"contracts-quiz/230518-QUIZ6(array)-answer.sol\":4203:4242  Users[Users.length-1].addr = msg.sender */\n      0x0100\n      exp\n      dup2\n      sload\n      dup2\n      0xffffffffffffffffffffffffffffffffffffffff\n      mul\n      not\n      and\n      swap1\n      dup4\n      0xffffffffffffffffffffffffffffffffffffffff\n      and\n      mul\n      or\n      swap1\n      sstore\n      pop\n        /* \"contracts-quiz/230518-QUIZ6(array)-answer.sol\":4055:4249  {... */\n      pop\n        /* \"contracts-quiz/230518-QUIZ6(array)-answer.sol\":3980:4249  function pushUser(uint _number, string memory _name, address _addr) public {... */\n      pop\n      pop\n      pop\n      jump\t// out\n        /* \"contracts-quiz/230518-QUIZ6(array)-answer.sol\":5002:5187  function suggest(string calldata _title, string calldata _context, address _addr) public {... */\n    tag_47:\n        /* \"contracts-quiz/230518-QUIZ6(array)-answer.sol\":5117:5180  poll(++count, _title, _context, _addr, 0,0, pollStatus.ongoing) */\n      mload(0x40)\n      dup1\n      0xe0\n      add\n      0x40\n      mstore\n      dup1\n        /* \"contracts-quiz/230518-QUIZ6(array)-answer.sol\":5124:5129  count */\n      0x01\n      0x00\n        /* \"contracts-quiz/230518-QUIZ6(array)-answer.sol\":5122:5129  ++count */\n      dup2\n      sload\n      tag_135\n      swap1\n      tag_90\n      jump\t// in\n    tag_135:\n      swap2\n      swap1\n      pop\n      dup2\n      swap1\n      sstore\n        /* \"contracts-quiz/230518-QUIZ6(array)-answer.sol\":5117:5180  poll(++count, _title, _context, _addr, 0,0, pollStatus.ongoing) */\n      dup2\n      mstore\n      0x20\n      add\n        /* \"contracts-quiz/230518-QUIZ6(array)-answer.sol\":5131:5137  _title */\n      dup7\n      dup7\n        /* \"contracts-quiz/230518-QUIZ6(array)-answer.sol\":5117:5180  poll(++count, _title, _context, _addr, 0,0, pollStatus.ongoing) */\n      dup1\n      dup1\n      0x1f\n      add\n      0x20\n      dup1\n      swap2\n      div\n      mul\n      0x20\n      add\n      mload(0x40)\n      swap1\n      dup2\n      add\n      0x40\n      mstore\n      dup1\n      swap4\n      swap3\n      swap2\n      swap1\n      dup2\n      dup2\n      mstore\n      0x20\n      add\n      dup4\n      dup4\n      dup1\n      dup3\n      dup5\n      calldatacopy\n      0x00\n      dup2\n      dup5\n      add\n      mstore\n      not(0x1f)\n      0x1f\n      dup3\n      add\n      and\n      swap1\n      pop\n      dup1\n      dup4\n      add\n      swap3\n      pop\n      pop\n      pop\n      pop\n      pop\n      pop\n      pop\n      dup2\n      mstore\n      0x20\n      add\n        /* \"contracts-quiz/230518-QUIZ6(array)-answer.sol\":5139:5147  _context */\n      dup5\n      dup5\n        /* \"contracts-quiz/230518-QUIZ6(array)-answer.sol\":5117:5180  poll(++count, _title, _context, _addr, 0,0, pollStatus.ongoing) */\n      dup1\n      dup1\n      0x1f\n      add\n      0x20\n      dup1\n      swap2\n      div\n      mul\n      0x20\n      add\n      mload(0x40)\n      swap1\n      dup2\n      add\n      0x40\n      mstore\n      dup1\n      swap4\n      swap3\n      swap2\n      swap1\n      dup2\n      dup2\n      mstore\n      0x20\n      add\n      dup4\n      dup4\n      dup1\n      dup3\n      dup5\n      calldatacopy\n      0x00\n      dup2\n      dup5\n      add\n      mstore\n      not(0x1f)\n      0x1f\n      dup3\n      add\n      and\n      swap1\n      pop\n      dup1\n      dup4\n      add\n      swap3\n      pop\n      pop\n      pop\n      pop\n      pop\n      pop\n      pop\n      dup2\n      mstore\n      0x20\n      add\n        /* \"contracts-quiz/230518-QUIZ6(array)-answer.sol\":5149:5154  _addr */\n      dup3\n        /* \"contracts-quiz/230518-QUIZ6(array)-answer.sol\":5117:5180  poll(++count, _title, _context, _addr, 0,0, pollStatus.ongoing) */\n      0xffffffffffffffffffffffffffffffffffffffff\n      and\n      dup2\n      mstore\n      0x20\n      add\n        /* \"contracts-quiz/230518-QUIZ6(array)-answer.sol\":5156:5157  0 */\n      0x00\n        /* \"contracts-quiz/230518-QUIZ6(array)-answer.sol\":5117:5180  poll(++count, _title, _context, _addr, 0,0, pollStatus.ongoing) */\n      dup2\n      mstore\n      0x20\n      add\n        /* \"contracts-quiz/230518-QUIZ6(array)-answer.sol\":5158:5159  0 */\n      0x00\n        /* \"contracts-quiz/230518-QUIZ6(array)-answer.sol\":5117:5180  poll(++count, _title, _context, _addr, 0,0, pollStatus.ongoing) */\n      dup2\n      mstore\n      0x20\n      add\n        /* \"contracts-quiz/230518-QUIZ6(array)-answer.sol\":5161:5179  pollStatus.ongoing */\n      0x00\n        /* \"contracts-quiz/230518-QUIZ6(array)-answer.sol\":5117:5180  poll(++count, _title, _context, _addr, 0,0, pollStatus.ongoing) */\n      0x02\n      dup2\n      gt\n      iszero\n      tag_136\n      jumpi\n      tag_137\n      tag_66\n      jump\t// in\n    tag_137:\n    tag_136:\n      dup2\n      mstore\n      pop\n        /* \"contracts-quiz/230518-QUIZ6(array)-answer.sol\":5101:5106  polls */\n      0x00\n        /* \"contracts-quiz/230518-QUIZ6(array)-answer.sol\":5107:5113  _title */\n      dup7\n      dup7\n        /* \"contracts-quiz/230518-QUIZ6(array)-answer.sol\":5101:5114  polls[_title] */\n      mload(0x40)\n      tag_138\n      swap3\n      swap2\n      swap1\n      tag_139\n      jump\t// in\n    tag_138:\n      swap1\n      dup2\n      mstore\n      0x20\n      add\n      mload(0x40)\n      dup1\n      swap2\n      sub\n      swap1\n      keccak256\n        /* \"contracts-quiz/230518-QUIZ6(array)-answer.sol\":5101:5180  polls[_title] = poll(++count, _title, _context, _addr, 0,0, pollStatus.ongoing) */\n      0x00\n      dup3\n      add\n      mload\n      dup2\n      0x00\n      add\n      sstore\n      0x20\n      dup3\n      add\n      mload\n      dup2\n      0x01\n      add\n      swap1\n      dup2\n      tag_140\n      swap2\n      swap1\n      tag_129\n      jump\t// in\n    tag_140:\n      pop\n      0x40\n      dup3\n      add\n      mload\n      dup2\n      0x02\n      add\n      swap1\n      dup2\n      tag_141\n      swap2\n      swap1\n      tag_129\n      jump\t// in\n    tag_141:\n      pop\n      0x60\n      dup3\n      add\n      mload\n      dup2\n      0x03\n      add\n      exp(0x0100, 0x00)\n      dup2\n      sload\n      dup2\n      0xffffffffffffffffffffffffffffffffffffffff\n      mul\n      not\n      and\n      swap1\n      dup4\n      0xffffffffffffffffffffffffffffffffffffffff\n      and\n      mul\n      or\n      swap1\n      sstore\n      pop\n      0x80\n      dup3\n      add\n      mload\n      dup2\n      0x04\n      add\n      sstore\n      0xa0\n      dup3\n      add\n      mload\n      dup2\n      0x05\n      add\n      sstore\n      0xc0\n      dup3\n      add\n      mload\n      dup2\n      0x06\n      add\n      exp(0x0100, 0x00)\n      dup2\n      sload\n      dup2\n      0xff\n      mul\n      not\n      and\n      swap1\n      dup4\n      0x02\n      dup2\n      gt\n      iszero\n      tag_142\n      jumpi\n      tag_143\n      tag_66\n      jump\t// in\n    tag_143:\n    tag_142:\n      mul\n      or\n      swap1\n      sstore\n      pop\n      swap1\n      pop\n      pop\n        /* \"contracts-quiz/230518-QUIZ6(array)-answer.sol\":5002:5187  function suggest(string calldata _title, string calldata _context, address _addr) public {... */\n      pop\n      pop\n      pop\n      pop\n      pop\n      jump\t// out\n    tag_49:\n      mload(0x40)\n      dup1\n      0xe0\n      add\n      0x40\n      mstore\n      dup1\n      0x00\n      dup2\n      mstore\n      0x20\n      add\n      0x60\n      dup2\n      mstore\n      0x20\n      add\n      0x60\n      dup2\n      mstore\n      0x20\n      add\n      and(0xffffffffffffffffffffffffffffffffffffffff, 0x00)\n      dup2\n      mstore\n      0x20\n      add\n      0x00\n      dup2\n      mstore\n      0x20\n      add\n      0x00\n      dup2\n      mstore\n      0x20\n      add\n      0x00\n      0x02\n      dup2\n      gt\n      iszero\n      tag_144\n      jumpi\n      tag_145\n      tag_66\n      jump\t// in\n    tag_145:\n    tag_144:\n      dup2\n      mstore\n      pop\n      swap1\n      jump\t// out\n        /* \"#utility.yul\":7:84   */\n    tag_146:\n        /* \"#utility.yul\":44:51   */\n      0x00\n        /* \"#utility.yul\":73:78   */\n      dup2\n        /* \"#utility.yul\":62:78   */\n      swap1\n      pop\n        /* \"#utility.yul\":7:84   */\n      swap2\n      swap1\n      pop\n      jump\t// out\n        /* \"#utility.yul\":90:208   */\n    tag_147:\n        /* \"#utility.yul\":177:201   */\n      tag_211\n        /* \"#utility.yul\":195:200   */\n      dup2\n        /* \"#utility.yul\":177:201   */\n      tag_146\n      jump\t// in\n    tag_211:\n        /* \"#utility.yul\":172:175   */\n      dup3\n        /* \"#utility.yul\":165:202   */\n      mstore\n        /* \"#utility.yul\":90:208   */\n      pop\n      pop\n      jump\t// out\n        /* \"#utility.yul\":214:436   */\n    tag_15:\n        /* \"#utility.yul\":307:311   */\n      0x00\n        /* \"#utility.yul\":345:347   */\n      0x20\n        /* \"#utility.yul\":334:343   */\n      dup3\n        /* \"#utility.yul\":330:348   */\n      add\n        /* \"#utility.yul\":322:348   */\n      swap1\n      pop\n        /* \"#utility.yul\":358:429   */\n      tag_213\n        /* \"#utility.yul\":426:427   */\n      0x00\n        /* \"#utility.yul\":415:424   */\n      dup4\n        /* \"#utility.yul\":411:428   */\n      add\n        /* \"#utility.yul\":402:408   */\n      dup5\n        /* \"#utility.yul\":358:429   */\n      tag_147\n      jump\t// in\n    tag_213:\n        /* \"#utility.yul\":214:436   */\n      swap3\n      swap2\n      pop\n      pop\n      jump\t// out\n        /* \"#utility.yul\":442:517   */\n    tag_148:\n        /* \"#utility.yul\":475:481   */\n      0x00\n        /* \"#utility.yul\":508:510   */\n      0x40\n        /* \"#utility.yul\":502:511   */\n      mload\n        /* \"#utility.yul\":492:511   */\n      swap1\n      pop\n        /* \"#utility.yul\":442:517   */\n      swap1\n      jump\t// out\n        /* \"#utility.yul\":523:640   */\n    tag_149:\n        /* \"#utility.yul\":632:633   */\n      0x00\n        /* \"#utility.yul\":629:630   */\n      dup1\n        /* \"#utility.yul\":622:634   */\n      revert\n        /* \"#utility.yul\":646:763   */\n    tag_150:\n        /* \"#utility.yul\":755:756   */\n      0x00\n        /* \"#utility.yul\":752:753   */\n      dup1\n        /* \"#utility.yul\":745:757   */\n      revert\n        /* \"#utility.yul\":769:886   */\n    tag_151:\n        /* \"#utility.yul\":878:879   */\n      0x00\n        /* \"#utility.yul\":875:876   */\n      dup1\n        /* \"#utility.yul\":868:880   */\n      revert\n        /* \"#utility.yul\":892:1009   */\n    tag_152:\n        /* \"#utility.yul\":1001:1002   */\n      0x00\n        /* \"#utility.yul\":998:999   */\n      dup1\n        /* \"#utility.yul\":991:1003   */\n      revert\n        /* \"#utility.yul\":1015:1117   */\n    tag_153:\n        /* \"#utility.yul\":1056:1062   */\n      0x00\n        /* \"#utility.yul\":1107:1109   */\n      0x1f\n        /* \"#utility.yul\":1103:1110   */\n      not\n        /* \"#utility.yul\":1098:1100   */\n      0x1f\n        /* \"#utility.yul\":1091:1096   */\n      dup4\n        /* \"#utility.yul\":1087:1101   */\n      add\n        /* \"#utility.yul\":1083:1111   */\n      and\n        /* \"#utility.yul\":1073:1111   */\n      swap1\n      pop\n        /* \"#utility.yul\":1015:1117   */\n      swap2\n      swap1\n      pop\n      jump\t// out\n        /* \"#utility.yul\":1123:1303   */\n    tag_154:\n        /* \"#utility.yul\":1171:1248   */\n      0x4e487b7100000000000000000000000000000000000000000000000000000000\n        /* \"#utility.yul\":1168:1169   */\n      0x00\n        /* \"#utility.yul\":1161:1249   */\n      mstore\n        /* \"#utility.yul\":1268:1272   */\n      0x41\n        /* \"#utility.yul\":1265:1266   */\n      0x04\n        /* \"#utility.yul\":1258:1273   */\n      mstore\n        /* \"#utility.yul\":1292:1296   */\n      0x24\n        /* \"#utility.yul\":1289:1290   */\n      0x00\n        /* \"#utility.yul\":1282:1297   */\n      revert\n        /* \"#utility.yul\":1309:1590   */\n    tag_155:\n        /* \"#utility.yul\":1392:1419   */\n      tag_222\n        /* \"#utility.yul\":1414:1418   */\n      dup3\n        /* \"#utility.yul\":1392:1419   */\n      tag_153\n      jump\t// in\n    tag_222:\n        /* \"#utility.yul\":1384:1390   */\n      dup2\n        /* \"#utility.yul\":1380:1420   */\n      add\n        /* \"#utility.yul\":1522:1528   */\n      dup2\n        /* \"#utility.yul\":1510:1520   */\n      dup2\n        /* \"#utility.yul\":1507:1529   */\n      lt\n        /* \"#utility.yul\":1486:1504   */\n      0xffffffffffffffff\n        /* \"#utility.yul\":1474:1484   */\n      dup3\n        /* \"#utility.yul\":1471:1505   */\n      gt\n        /* \"#utility.yul\":1468:1530   */\n      or\n        /* \"#utility.yul\":1465:1553   */\n      iszero\n      tag_223\n      jumpi\n        /* \"#utility.yul\":1533:1551   */\n      tag_224\n      tag_154\n      jump\t// in\n    tag_224:\n        /* \"#utility.yul\":1465:1553   */\n    tag_223:\n        /* \"#utility.yul\":1573:1583   */\n      dup1\n        /* \"#utility.yul\":1569:1571   */\n      0x40\n        /* \"#utility.yul\":1562:1584   */\n      mstore\n        /* \"#utility.yul\":1352:1590   */\n      pop\n        /* \"#utility.yul\":1309:1590   */\n      pop\n      pop\n      jump\t// out\n        /* \"#utility.yul\":1596:1725   */\n    tag_156:\n        /* \"#utility.yul\":1630:1636   */\n      0x00\n        /* \"#utility.yul\":1657:1677   */\n      tag_226\n      tag_148\n      jump\t// in\n    tag_226:\n        /* \"#utility.yul\":1647:1677   */\n      swap1\n      pop\n        /* \"#utility.yul\":1686:1719   */\n      tag_227\n        /* \"#utility.yul\":1714:1718   */\n      dup3\n        /* \"#utility.yul\":1706:1712   */\n      dup3\n        /* \"#utility.yul\":1686:1719   */\n      tag_155\n      jump\t// in\n    tag_227:\n        /* \"#utility.yul\":1596:1725   */\n      swap2\n      swap1\n      pop\n      jump\t// out\n        /* \"#utility.yul\":1731:2039   */\n    tag_157:\n        /* \"#utility.yul\":1793:1797   */\n      0x00\n        /* \"#utility.yul\":1883:1901   */\n      0xffffffffffffffff\n        /* \"#utility.yul\":1875:1881   */\n      dup3\n        /* \"#utility.yul\":1872:1902   */\n      gt\n        /* \"#utility.yul\":1869:1925   */\n      iszero\n      tag_229\n      jumpi\n        /* \"#utility.yul\":1905:1923   */\n      tag_230\n      tag_154\n      jump\t// in\n    tag_230:\n        /* \"#utility.yul\":1869:1925   */\n    tag_229:\n        /* \"#utility.yul\":1943:1972   */\n      tag_231\n        /* \"#utility.yul\":1965:1971   */\n      dup3\n        /* \"#utility.yul\":1943:1972   */\n      tag_153\n      jump\t// in\n    tag_231:\n        /* \"#utility.yul\":1935:1972   */\n      swap1\n      pop\n        /* \"#utility.yul\":2027:2031   */\n      0x20\n        /* \"#utility.yul\":2021:2025   */\n      dup2\n        /* \"#utility.yul\":2017:2032   */\n      add\n        /* \"#utility.yul\":2009:2032   */\n      swap1\n      pop\n        /* \"#utility.yul\":1731:2039   */\n      swap2\n      swap1\n      pop\n      jump\t// out\n        /* \"#utility.yul\":2045:2191   */\n    tag_158:\n        /* \"#utility.yul\":2142:2148   */\n      dup3\n        /* \"#utility.yul\":2137:2140   */\n      dup2\n        /* \"#utility.yul\":2132:2135   */\n      dup4\n        /* \"#utility.yul\":2119:2149   */\n      calldatacopy\n        /* \"#utility.yul\":2183:2184   */\n      0x00\n        /* \"#utility.yul\":2174:2180   */\n      dup4\n        /* \"#utility.yul\":2169:2172   */\n      dup4\n        /* \"#utility.yul\":2165:2181   */\n      add\n        /* \"#utility.yul\":2158:2185   */\n      mstore\n        /* \"#utility.yul\":2045:2191   */\n      pop\n      pop\n      pop\n      jump\t// out\n        /* \"#utility.yul\":2197:2622   */\n    tag_159:\n        /* \"#utility.yul\":2275:2280   */\n      0x00\n        /* \"#utility.yul\":2300:2366   */\n      tag_234\n        /* \"#utility.yul\":2316:2365   */\n      tag_235\n        /* \"#utility.yul\":2358:2364   */\n      dup5\n        /* \"#utility.yul\":2316:2365   */\n      tag_157\n      jump\t// in\n    tag_235:\n        /* \"#utility.yul\":2300:2366   */\n      tag_156\n      jump\t// in\n    tag_234:\n        /* \"#utility.yul\":2291:2366   */\n      swap1\n      pop\n        /* \"#utility.yul\":2389:2395   */\n      dup3\n        /* \"#utility.yul\":2382:2387   */\n      dup2\n        /* \"#utility.yul\":2375:2396   */\n      mstore\n        /* \"#utility.yul\":2427:2431   */\n      0x20\n        /* \"#utility.yul\":2420:2425   */\n      dup2\n        /* \"#utility.yul\":2416:2432   */\n      add\n        /* \"#utility.yul\":2465:2468   */\n      dup5\n        /* \"#utility.yul\":2456:2462   */\n      dup5\n        /* \"#utility.yul\":2451:2454   */\n      dup5\n        /* \"#utility.yul\":2447:2463   */\n      add\n        /* \"#utility.yul\":2444:2469   */\n      gt\n        /* \"#utility.yul\":2441:2553   */\n      iszero\n      tag_236\n      jumpi\n        /* \"#utility.yul\":2472:2551   */\n      tag_237\n      tag_152\n      jump\t// in\n    tag_237:\n        /* \"#utility.yul\":2441:2553   */\n    tag_236:\n        /* \"#utility.yul\":2562:2616   */\n      tag_238\n        /* \"#utility.yul\":2609:2615   */\n      dup5\n        /* \"#utility.yul\":2604:2607   */\n      dup3\n        /* \"#utility.yul\":2599:2602   */\n      dup6\n        /* \"#utility.yul\":2562:2616   */\n      tag_158\n      jump\t// in\n    tag_238:\n        /* \"#utility.yul\":2281:2622   */\n      pop\n        /* \"#utility.yul\":2197:2622   */\n      swap4\n      swap3\n      pop\n      pop\n      pop\n      jump\t// out\n        /* \"#utility.yul\":2642:2982   */\n    tag_160:\n        /* \"#utility.yul\":2698:2703   */\n      0x00\n        /* \"#utility.yul\":2747:2750   */\n      dup3\n        /* \"#utility.yul\":2740:2744   */\n      0x1f\n        /* \"#utility.yul\":2732:2738   */\n      dup4\n        /* \"#utility.yul\":2728:2745   */\n      add\n        /* \"#utility.yul\":2724:2751   */\n      slt\n        /* \"#utility.yul\":2714:2836   */\n      tag_240\n      jumpi\n        /* \"#utility.yul\":2755:2834   */\n      tag_241\n      tag_151\n      jump\t// in\n    tag_241:\n        /* \"#utility.yul\":2714:2836   */\n    tag_240:\n        /* \"#utility.yul\":2872:2878   */\n      dup2\n        /* \"#utility.yul\":2859:2879   */\n      calldataload\n        /* \"#utility.yul\":2897:2976   */\n      tag_242\n        /* \"#utility.yul\":2972:2975   */\n      dup5\n        /* \"#utility.yul\":2964:2970   */\n      dup3\n        /* \"#utility.yul\":2957:2961   */\n      0x20\n        /* \"#utility.yul\":2949:2955   */\n      dup7\n        /* \"#utility.yul\":2945:2962   */\n      add\n        /* \"#utility.yul\":2897:2976   */\n      tag_159\n      jump\t// in\n    tag_242:\n        /* \"#utility.yul\":2888:2976   */\n      swap2\n      pop\n        /* \"#utility.yul\":2704:2982   */\n      pop\n        /* \"#utility.yul\":2642:2982   */\n      swap3\n      swap2\n      pop\n      pop\n      jump\t// out\n        /* \"#utility.yul\":2988:3497   */\n    tag_18:\n        /* \"#utility.yul\":3057:3063   */\n      0x00\n        /* \"#utility.yul\":3106:3108   */\n      0x20\n        /* \"#utility.yul\":3094:3103   */\n      dup3\n        /* \"#utility.yul\":3085:3092   */\n      dup5\n        /* \"#utility.yul\":3081:3104   */\n      sub\n        /* \"#utility.yul\":3077:3109   */\n      slt\n        /* \"#utility.yul\":3074:3193   */\n      iszero\n      tag_244\n      jumpi\n        /* \"#utility.yul\":3112:3191   */\n      tag_245\n      tag_149\n      jump\t// in\n    tag_245:\n        /* \"#utility.yul\":3074:3193   */\n    tag_244:\n        /* \"#utility.yul\":3260:3261   */\n      0x00\n        /* \"#utility.yul\":3249:3258   */\n      dup3\n        /* \"#utility.yul\":3245:3262   */\n      add\n        /* \"#utility.yul\":3232:3263   */\n      calldataload\n        /* \"#utility.yul\":3290:3308   */\n      0xffffffffffffffff\n        /* \"#utility.yul\":3282:3288   */\n      dup2\n        /* \"#utility.yul\":3279:3309   */\n      gt\n        /* \"#utility.yul\":3276:3393   */\n      iszero\n      tag_246\n      jumpi\n        /* \"#utility.yul\":3312:3391   */\n      tag_247\n      tag_150\n      jump\t// in\n    tag_247:\n        /* \"#utility.yul\":3276:3393   */\n    tag_246:\n        /* \"#utility.yul\":3417:3480   */\n      tag_248\n        /* \"#utility.yul\":3472:3479   */\n      dup5\n        /* \"#utility.yul\":3463:3469   */\n      dup3\n        /* \"#utility.yul\":3452:3461   */\n      dup6\n        /* \"#utility.yul\":3448:3470   */\n      add\n        /* \"#utility.yul\":3417:3480   */\n      tag_160\n      jump\t// in\n    tag_248:\n        /* \"#utility.yul\":3407:3480   */\n      swap2\n      pop\n        /* \"#utility.yul\":3203:3490   */\n      pop\n        /* \"#utility.yul\":2988:3497   */\n      swap3\n      swap2\n      pop\n      pop\n      jump\t// out\n        /* \"#utility.yul\":3503:3611   */\n    tag_161:\n        /* \"#utility.yul\":3580:3604   */\n      tag_250\n        /* \"#utility.yul\":3598:3603   */\n      dup2\n        /* \"#utility.yul\":3580:3604   */\n      tag_146\n      jump\t// in\n    tag_250:\n        /* \"#utility.yul\":3575:3578   */\n      dup3\n        /* \"#utility.yul\":3568:3605   */\n      mstore\n        /* \"#utility.yul\":3503:3611   */\n      pop\n      pop\n      jump\t// out\n        /* \"#utility.yul\":3617:3716   */\n    tag_162:\n        /* \"#utility.yul\":3669:3675   */\n      0x00\n        /* \"#utility.yul\":3703:3708   */\n      dup2\n        /* \"#utility.yul\":3697:3709   */\n      mload\n        /* \"#utility.yul\":3687:3709   */\n      swap1\n      pop\n        /* \"#utility.yul\":3617:3716   */\n      swap2\n      swap1\n      pop\n      jump\t// out\n        /* \"#utility.yul\":3722:3881   */\n    tag_163:\n        /* \"#utility.yul\":3796:3807   */\n      0x00\n        /* \"#utility.yul\":3830:3836   */\n      dup3\n        /* \"#utility.yul\":3825:3828   */\n      dup3\n        /* \"#utility.yul\":3818:3837   */\n      mstore\n        /* \"#utility.yul\":3870:3874   */\n      0x20\n        /* \"#utility.yul\":3865:3868   */\n      dup3\n        /* \"#utility.yul\":3861:3875   */\n      add\n        /* \"#utility.yul\":3846:3875   */\n      swap1\n      pop\n        /* \"#utility.yul\":3722:3881   */\n      swap3\n      swap2\n      pop\n      pop\n      jump\t// out\n        /* \"#utility.yul\":3887:4133   */\n    tag_164:\n        /* \"#utility.yul\":3968:3969   */\n      0x00\n        /* \"#utility.yul\":3978:4091   */\n    tag_254:\n        /* \"#utility.yul\":3992:3998   */\n      dup4\n        /* \"#utility.yul\":3989:3990   */\n      dup2\n        /* \"#utility.yul\":3986:3999   */\n      lt\n        /* \"#utility.yul\":3978:4091   */\n      iszero\n      tag_256\n      jumpi\n        /* \"#utility.yul\":4077:4078   */\n      dup1\n        /* \"#utility.yul\":4072:4075   */\n      dup3\n        /* \"#utility.yul\":4068:4079   */\n      add\n        /* \"#utility.yul\":4062:4080   */\n      mload\n        /* \"#utility.yul\":4058:4059   */\n      dup2\n        /* \"#utility.yul\":4053:4056   */\n      dup5\n        /* \"#utility.yul\":4049:4060   */\n      add\n        /* \"#utility.yul\":4042:4081   */\n      mstore\n        /* \"#utility.yul\":4014:4016   */\n      0x20\n        /* \"#utility.yul\":4011:4012   */\n      dup2\n        /* \"#utility.yul\":4007:4017   */\n      add\n        /* \"#utility.yul\":4002:4017   */\n      swap1\n      pop\n        /* \"#utility.yul\":3978:4091   */\n      jump(tag_254)\n    tag_256:\n        /* \"#utility.yul\":4125:4126   */\n      0x00\n        /* \"#utility.yul\":4116:4122   */\n      dup5\n        /* \"#utility.yul\":4111:4114   */\n      dup5\n        /* \"#utility.yul\":4107:4123   */\n      add\n        /* \"#utility.yul\":4100:4127   */\n      mstore\n        /* \"#utility.yul\":3949:4133   */\n      pop\n        /* \"#utility.yul\":3887:4133   */\n      pop\n      pop\n      pop\n      jump\t// out\n        /* \"#utility.yul\":4139:4496   */\n    tag_165:\n        /* \"#utility.yul\":4217:4220   */\n      0x00\n        /* \"#utility.yul\":4245:4284   */\n      tag_258\n        /* \"#utility.yul\":4278:4283   */\n      dup3\n        /* \"#utility.yul\":4245:4284   */\n      tag_162\n      jump\t// in\n    tag_258:\n        /* \"#utility.yul\":4300:4361   */\n      tag_259\n        /* \"#utility.yul\":4354:4360   */\n      dup2\n        /* \"#utility.yul\":4349:4352   */\n      dup6\n        /* \"#utility.yul\":4300:4361   */\n      tag_163\n      jump\t// in\n    tag_259:\n        /* \"#utility.yul\":4293:4361   */\n      swap4\n      pop\n        /* \"#utility.yul\":4370:4435   */\n      tag_260\n        /* \"#utility.yul\":4428:4434   */\n      dup2\n        /* \"#utility.yul\":4423:4426   */\n      dup6\n        /* \"#utility.yul\":4416:4420   */\n      0x20\n        /* \"#utility.yul\":4409:4414   */\n      dup7\n        /* \"#utility.yul\":4405:4421   */\n      add\n        /* \"#utility.yul\":4370:4435   */\n      tag_164\n      jump\t// in\n    tag_260:\n        /* \"#utility.yul\":4460:4489   */\n      tag_261\n        /* \"#utility.yul\":4482:4488   */\n      dup2\n        /* \"#utility.yul\":4460:4489   */\n      tag_153\n      jump\t// in\n    tag_261:\n        /* \"#utility.yul\":4455:4458   */\n      dup5\n        /* \"#utility.yul\":4451:4490   */\n      add\n        /* \"#utility.yul\":4444:4490   */\n      swap2\n      pop\n        /* \"#utility.yul\":4221:4496   */\n      pop\n        /* \"#utility.yul\":4139:4496   */\n      swap3\n      swap2\n      pop\n      pop\n      jump\t// out\n        /* \"#utility.yul\":4502:4628   */\n    tag_166:\n        /* \"#utility.yul\":4539:4546   */\n      0x00\n        /* \"#utility.yul\":4579:4621   */\n      0xffffffffffffffffffffffffffffffffffffffff\n        /* \"#utility.yul\":4572:4577   */\n      dup3\n        /* \"#utility.yul\":4568:4622   */\n      and\n        /* \"#utility.yul\":4557:4622   */\n      swap1\n      pop\n        /* \"#utility.yul\":4502:4628   */\n      swap2\n      swap1\n      pop\n      jump\t// out\n        /* \"#utility.yul\":4634:4730   */\n    tag_167:\n        /* \"#utility.yul\":4671:4678   */\n      0x00\n        /* \"#utility.yul\":4700:4724   */\n      tag_264\n        /* \"#utility.yul\":4718:4723   */\n      dup3\n        /* \"#utility.yul\":4700:4724   */\n      tag_166\n      jump\t// in\n    tag_264:\n        /* \"#utility.yul\":4689:4724   */\n      swap1\n      pop\n        /* \"#utility.yul\":4634:4730   */\n      swap2\n      swap1\n      pop\n      jump\t// out\n        /* \"#utility.yul\":4736:4844   */\n    tag_168:\n        /* \"#utility.yul\":4813:4837   */\n      tag_266\n        /* \"#utility.yul\":4831:4836   */\n      dup2\n        /* \"#utility.yul\":4813:4837   */\n      tag_167\n      jump\t// in\n    tag_266:\n        /* \"#utility.yul\":4808:4811   */\n      dup3\n        /* \"#utility.yul\":4801:4838   */\n      mstore\n        /* \"#utility.yul\":4736:4844   */\n      pop\n      pop\n      jump\t// out\n        /* \"#utility.yul\":4850:5030   */\n    tag_66:\n        /* \"#utility.yul\":4898:4975   */\n      0x4e487b7100000000000000000000000000000000000000000000000000000000\n        /* \"#utility.yul\":4895:4896   */\n      0x00\n        /* \"#utility.yul\":4888:4976   */\n      mstore\n        /* \"#utility.yul\":4995:4999   */\n      0x21\n        /* \"#utility.yul\":4992:4993   */\n      0x04\n        /* \"#utility.yul\":4985:5000   */\n      mstore\n        /* \"#utility.yul\":5019:5023   */\n      0x24\n        /* \"#utility.yul\":5016:5017   */\n      0x00\n        /* \"#utility.yul\":5009:5024   */\n      revert\n        /* \"#utility.yul\":5036:5154   */\n    tag_169:\n        /* \"#utility.yul\":5122:5123   */\n      0x03\n        /* \"#utility.yul\":5115:5120   */\n      dup2\n        /* \"#utility.yul\":5112:5124   */\n      lt\n        /* \"#utility.yul\":5102:5148   */\n      tag_269\n      jumpi\n        /* \"#utility.yul\":5128:5146   */\n      tag_270\n      tag_66\n      jump\t// in\n    tag_270:\n        /* \"#utility.yul\":5102:5148   */\n    tag_269:\n        /* \"#utility.yul\":5036:5154   */\n      pop\n      jump\t// out\n        /* \"#utility.yul\":5160:5297   */\n    tag_170:\n        /* \"#utility.yul\":5210:5217   */\n      0x00\n        /* \"#utility.yul\":5239:5244   */\n      dup2\n        /* \"#utility.yul\":5228:5244   */\n      swap1\n      pop\n        /* \"#utility.yul\":5245:5291   */\n      tag_272\n        /* \"#utility.yul\":5285:5290   */\n      dup3\n        /* \"#utility.yul\":5245:5291   */\n      tag_169\n      jump\t// in\n    tag_272:\n        /* \"#utility.yul\":5160:5297   */\n      swap2\n      swap1\n      pop\n      jump\t// out\n        /* \"#utility.yul\":5303:5440   */\n    tag_171:\n        /* \"#utility.yul\":5364:5373   */\n      0x00\n        /* \"#utility.yul\":5397:5434   */\n      tag_274\n        /* \"#utility.yul\":5428:5433   */\n      dup3\n        /* \"#utility.yul\":5397:5434   */\n      tag_170\n      jump\t// in\n    tag_274:\n        /* \"#utility.yul\":5384:5434   */\n      swap1\n      pop\n        /* \"#utility.yul\":5303:5440   */\n      swap2\n      swap1\n      pop\n      jump\t// out\n        /* \"#utility.yul\":5446:5589   */\n    tag_172:\n        /* \"#utility.yul\":5534:5582   */\n      tag_276\n        /* \"#utility.yul\":5576:5581   */\n      dup2\n        /* \"#utility.yul\":5534:5582   */\n      tag_171\n      jump\t// in\n    tag_276:\n        /* \"#utility.yul\":5529:5532   */\n      dup3\n        /* \"#utility.yul\":5522:5583   */\n      mstore\n        /* \"#utility.yul\":5446:5589   */\n      pop\n      pop\n      jump\t// out\n        /* \"#utility.yul\":5635:7189   */\n    tag_173:\n        /* \"#utility.yul\":5744:5747   */\n      0x00\n        /* \"#utility.yul\":5780:5784   */\n      0xe0\n        /* \"#utility.yul\":5775:5778   */\n      dup4\n        /* \"#utility.yul\":5771:5785   */\n      add\n        /* \"#utility.yul\":5869:5873   */\n      0x00\n        /* \"#utility.yul\":5862:5867   */\n      dup4\n        /* \"#utility.yul\":5858:5874   */\n      add\n        /* \"#utility.yul\":5852:5875   */\n      mload\n        /* \"#utility.yul\":5888:5951   */\n      tag_278\n        /* \"#utility.yul\":5945:5949   */\n      0x00\n        /* \"#utility.yul\":5940:5943   */\n      dup7\n        /* \"#utility.yul\":5936:5950   */\n      add\n        /* \"#utility.yul\":5922:5934   */\n      dup3\n        /* \"#utility.yul\":5888:5951   */\n      tag_161\n      jump\t// in\n    tag_278:\n        /* \"#utility.yul\":5795:5961   */\n      pop\n        /* \"#utility.yul\":6044:6048   */\n      0x20\n        /* \"#utility.yul\":6037:6042   */\n      dup4\n        /* \"#utility.yul\":6033:6049   */\n      add\n        /* \"#utility.yul\":6027:6050   */\n      mload\n        /* \"#utility.yul\":6097:6100   */\n      dup5\n        /* \"#utility.yul\":6091:6095   */\n      dup3\n        /* \"#utility.yul\":6087:6101   */\n      sub\n        /* \"#utility.yul\":6080:6084   */\n      0x20\n        /* \"#utility.yul\":6075:6078   */\n      dup7\n        /* \"#utility.yul\":6071:6085   */\n      add\n        /* \"#utility.yul\":6064:6102   */\n      mstore\n        /* \"#utility.yul\":6123:6196   */\n      tag_279\n        /* \"#utility.yul\":6191:6195   */\n      dup3\n        /* \"#utility.yul\":6177:6189   */\n      dup3\n        /* \"#utility.yul\":6123:6196   */\n      tag_165\n      jump\t// in\n    tag_279:\n        /* \"#utility.yul\":6115:6196   */\n      swap2\n      pop\n        /* \"#utility.yul\":5971:6207   */\n      pop\n        /* \"#utility.yul\":6292:6296   */\n      0x40\n        /* \"#utility.yul\":6285:6290   */\n      dup4\n        /* \"#utility.yul\":6281:6297   */\n      add\n        /* \"#utility.yul\":6275:6298   */\n      mload\n        /* \"#utility.yul\":6345:6348   */\n      dup5\n        /* \"#utility.yul\":6339:6343   */\n      dup3\n        /* \"#utility.yul\":6335:6349   */\n      sub\n        /* \"#utility.yul\":6328:6332   */\n      0x40\n        /* \"#utility.yul\":6323:6326   */\n      dup7\n        /* \"#utility.yul\":6319:6333   */\n      add\n        /* \"#utility.yul\":6312:6350   */\n      mstore\n        /* \"#utility.yul\":6371:6444   */\n      tag_280\n        /* \"#utility.yul\":6439:6443   */\n      dup3\n        /* \"#utility.yul\":6425:6437   */\n      dup3\n        /* \"#utility.yul\":6371:6444   */\n      tag_165\n      jump\t// in\n    tag_280:\n        /* \"#utility.yul\":6363:6444   */\n      swap2\n      pop\n        /* \"#utility.yul\":6217:6455   */\n      pop\n        /* \"#utility.yul\":6535:6539   */\n      0x60\n        /* \"#utility.yul\":6528:6533   */\n      dup4\n        /* \"#utility.yul\":6524:6540   */\n      add\n        /* \"#utility.yul\":6518:6541   */\n      mload\n        /* \"#utility.yul\":6554:6617   */\n      tag_281\n        /* \"#utility.yul\":6611:6615   */\n      0x60\n        /* \"#utility.yul\":6606:6609   */\n      dup7\n        /* \"#utility.yul\":6602:6616   */\n      add\n        /* \"#utility.yul\":6588:6600   */\n      dup3\n        /* \"#utility.yul\":6554:6617   */\n      tag_168\n      jump\t// in\n    tag_281:\n        /* \"#utility.yul\":6465:6627   */\n      pop\n        /* \"#utility.yul\":6709:6713   */\n      0x80\n        /* \"#utility.yul\":6702:6707   */\n      dup4\n        /* \"#utility.yul\":6698:6714   */\n      add\n        /* \"#utility.yul\":6692:6715   */\n      mload\n        /* \"#utility.yul\":6728:6791   */\n      tag_282\n        /* \"#utility.yul\":6785:6789   */\n      0x80\n        /* \"#utility.yul\":6780:6783   */\n      dup7\n        /* \"#utility.yul\":6776:6790   */\n      add\n        /* \"#utility.yul\":6762:6774   */\n      dup3\n        /* \"#utility.yul\":6728:6791   */\n      tag_161\n      jump\t// in\n    tag_282:\n        /* \"#utility.yul\":6637:6801   */\n      pop\n        /* \"#utility.yul\":6883:6887   */\n      0xa0\n        /* \"#utility.yul\":6876:6881   */\n      dup4\n        /* \"#utility.yul\":6872:6888   */\n      add\n        /* \"#utility.yul\":6866:6889   */\n      mload\n        /* \"#utility.yul\":6902:6965   */\n      tag_283\n        /* \"#utility.yul\":6959:6963   */\n      0xa0\n        /* \"#utility.yul\":6954:6957   */\n      dup7\n        /* \"#utility.yul\":6950:6964   */\n      add\n        /* \"#utility.yul\":6936:6948   */\n      dup3\n        /* \"#utility.yul\":6902:6965   */\n      tag_161\n      jump\t// in\n    tag_283:\n        /* \"#utility.yul\":6811:6975   */\n      pop\n        /* \"#utility.yul\":7059:7063   */\n      0xc0\n        /* \"#utility.yul\":7052:7057   */\n      dup4\n        /* \"#utility.yul\":7048:7064   */\n      add\n        /* \"#utility.yul\":7042:7065   */\n      mload\n        /* \"#utility.yul\":7078:7152   */\n      tag_284\n        /* \"#utility.yul\":7146:7150   */\n      0xc0\n        /* \"#utility.yul\":7141:7144   */\n      dup7\n        /* \"#utility.yul\":7137:7151   */\n      add\n        /* \"#utility.yul\":7123:7135   */\n      dup3\n        /* \"#utility.yul\":7078:7152   */\n      tag_172\n      jump\t// in\n    tag_284:\n        /* \"#utility.yul\":6985:7162   */\n      pop\n        /* \"#utility.yul\":7179:7183   */\n      dup1\n        /* \"#utility.yul\":7172:7183   */\n      swap2\n      pop\n        /* \"#utility.yul\":5749:7189   */\n      pop\n        /* \"#utility.yul\":5635:7189   */\n      swap3\n      swap2\n      pop\n      pop\n      jump\t// out\n        /* \"#utility.yul\":7195:7548   */\n    tag_21:\n        /* \"#utility.yul\":7328:7332   */\n      0x00\n        /* \"#utility.yul\":7366:7368   */\n      0x20\n        /* \"#utility.yul\":7355:7364   */\n      dup3\n        /* \"#utility.yul\":7351:7369   */\n      add\n        /* \"#utility.yul\":7343:7369   */\n      swap1\n      pop\n        /* \"#utility.yul\":7415:7424   */\n      dup2\n        /* \"#utility.yul\":7409:7413   */\n      dup2\n        /* \"#utility.yul\":7405:7425   */\n      sub\n        /* \"#utility.yul\":7401:7402   */\n      0x00\n        /* \"#utility.yul\":7390:7399   */\n      dup4\n        /* \"#utility.yul\":7386:7403   */\n      add\n        /* \"#utility.yul\":7379:7426   */\n      mstore\n        /* \"#utility.yul\":7443:7541   */\n      tag_286\n        /* \"#utility.yul\":7536:7540   */\n      dup2\n        /* \"#utility.yul\":7527:7533   */\n      dup5\n        /* \"#utility.yul\":7443:7541   */\n      tag_173\n      jump\t// in\n    tag_286:\n        /* \"#utility.yul\":7435:7541   */\n      swap1\n      pop\n        /* \"#utility.yul\":7195:7548   */\n      swap3\n      swap2\n      pop\n      pop\n      jump\t// out\n        /* \"#utility.yul\":7554:7676   */\n    tag_174:\n        /* \"#utility.yul\":7627:7651   */\n      tag_288\n        /* \"#utility.yul\":7645:7650   */\n      dup2\n        /* \"#utility.yul\":7627:7651   */\n      tag_146\n      jump\t// in\n    tag_288:\n        /* \"#utility.yul\":7620:7625   */\n      dup2\n        /* \"#utility.yul\":7617:7652   */\n      eq\n        /* \"#utility.yul\":7607:7670   */\n      tag_289\n      jumpi\n        /* \"#utility.yul\":7666:7667   */\n      0x00\n        /* \"#utility.yul\":7663:7664   */\n      dup1\n        /* \"#utility.yul\":7656:7668   */\n      revert\n        /* \"#utility.yul\":7607:7670   */\n    tag_289:\n        /* \"#utility.yul\":7554:7676   */\n      pop\n      jump\t// out\n        /* \"#utility.yul\":7682:7821   */\n    tag_175:\n        /* \"#utility.yul\":7728:7733   */\n      0x00\n        /* \"#utility.yul\":7766:7772   */\n      dup2\n        /* \"#utility.yul\":7753:7773   */\n      calldataload\n        /* \"#utility.yul\":7744:7773   */\n      swap1\n      pop\n        /* \"#utility.yul\":7782:7815   */\n      tag_291\n        /* \"#utility.yul\":7809:7814   */\n      dup2\n        /* \"#utility.yul\":7782:7815   */\n      tag_174\n      jump\t// in\n    tag_291:\n        /* \"#utility.yul\":7682:7821   */\n      swap3\n      swap2\n      pop\n      pop\n      jump\t// out\n        /* \"#utility.yul\":7827:8156   */\n    tag_24:\n        /* \"#utility.yul\":7886:7892   */\n      0x00\n        /* \"#utility.yul\":7935:7937   */\n      0x20\n        /* \"#utility.yul\":7923:7932   */\n      dup3\n        /* \"#utility.yul\":7914:7921   */\n      dup5\n        /* \"#utility.yul\":7910:7933   */\n      sub\n        /* \"#utility.yul\":7906:7938   */\n      slt\n        /* \"#utility.yul\":7903:8022   */\n      iszero\n      tag_293\n      jumpi\n        /* \"#utility.yul\":7941:8020   */\n      tag_294\n      tag_149\n      jump\t// in\n    tag_294:\n        /* \"#utility.yul\":7903:8022   */\n    tag_293:\n        /* \"#utility.yul\":8061:8062   */\n      0x00\n        /* \"#utility.yul\":8086:8139   */\n      tag_295\n        /* \"#utility.yul\":8131:8138   */\n      dup5\n        /* \"#utility.yul\":8122:8128   */\n      dup3\n        /* \"#utility.yul\":8111:8120   */\n      dup6\n        /* \"#utility.yul\":8107:8129   */\n      add\n        /* \"#utility.yul\":8086:8139   */\n      tag_175\n      jump\t// in\n    tag_295:\n        /* \"#utility.yul\":8076:8139   */\n      swap2\n      pop\n        /* \"#utility.yul\":8032:8149   */\n      pop\n        /* \"#utility.yul\":7827:8156   */\n      swap3\n      swap2\n      pop\n      pop\n      jump\t// out\n        /* \"#utility.yul\":8162:8331   */\n    tag_176:\n        /* \"#utility.yul\":8246:8257   */\n      0x00\n        /* \"#utility.yul\":8280:8286   */\n      dup3\n        /* \"#utility.yul\":8275:8278   */\n      dup3\n        /* \"#utility.yul\":8268:8287   */\n      mstore\n        /* \"#utility.yul\":8320:8324   */\n      0x20\n        /* \"#utility.yul\":8315:8318   */\n      dup3\n        /* \"#utility.yul\":8311:8325   */\n      add\n        /* \"#utility.yul\":8296:8325   */\n      swap1\n      pop\n        /* \"#utility.yul\":8162:8331   */\n      swap3\n      swap2\n      pop\n      pop\n      jump\t// out\n        /* \"#utility.yul\":8337:8714   */\n    tag_177:\n        /* \"#utility.yul\":8425:8428   */\n      0x00\n        /* \"#utility.yul\":8453:8492   */\n      tag_298\n        /* \"#utility.yul\":8486:8491   */\n      dup3\n        /* \"#utility.yul\":8453:8492   */\n      tag_162\n      jump\t// in\n    tag_298:\n        /* \"#utility.yul\":8508:8579   */\n      tag_299\n        /* \"#utility.yul\":8572:8578   */\n      dup2\n        /* \"#utility.yul\":8567:8570   */\n      dup6\n        /* \"#utility.yul\":8508:8579   */\n      tag_176\n      jump\t// in\n    tag_299:\n        /* \"#utility.yul\":8501:8579   */\n      swap4\n      pop\n        /* \"#utility.yul\":8588:8653   */\n      tag_300\n        /* \"#utility.yul\":8646:8652   */\n      dup2\n        /* \"#utility.yul\":8641:8644   */\n      dup6\n        /* \"#utility.yul\":8634:8638   */\n      0x20\n        /* \"#utility.yul\":8627:8632   */\n      dup7\n        /* \"#utility.yul\":8623:8639   */\n      add\n        /* \"#utility.yul\":8588:8653   */\n      tag_164\n      jump\t// in\n    tag_300:\n        /* \"#utility.yul\":8678:8707   */\n      tag_301\n        /* \"#utility.yul\":8700:8706   */\n      dup2\n        /* \"#utility.yul\":8678:8707   */\n      tag_153\n      jump\t// in\n    tag_301:\n        /* \"#utility.yul\":8673:8676   */\n      dup5\n        /* \"#utility.yul\":8669:8708   */\n      add\n        /* \"#utility.yul\":8662:8708   */\n      swap2\n      pop\n        /* \"#utility.yul\":8429:8714   */\n      pop\n        /* \"#utility.yul\":8337:8714   */\n      swap3\n      swap2\n      pop\n      pop\n      jump\t// out\n        /* \"#utility.yul\":8720:8838   */\n    tag_178:\n        /* \"#utility.yul\":8807:8831   */\n      tag_303\n        /* \"#utility.yul\":8825:8830   */\n      dup2\n        /* \"#utility.yul\":8807:8831   */\n      tag_167\n      jump\t// in\n    tag_303:\n        /* \"#utility.yul\":8802:8805   */\n      dup3\n        /* \"#utility.yul\":8795:8832   */\n      mstore\n        /* \"#utility.yul\":8720:8838   */\n      pop\n      pop\n      jump\t// out\n        /* \"#utility.yul\":8844:9377   */\n    tag_27:\n        /* \"#utility.yul\":9013:9017   */\n      0x00\n        /* \"#utility.yul\":9051:9053   */\n      0x60\n        /* \"#utility.yul\":9040:9049   */\n      dup3\n        /* \"#utility.yul\":9036:9054   */\n      add\n        /* \"#utility.yul\":9028:9054   */\n      swap1\n      pop\n        /* \"#utility.yul\":9064:9135   */\n      tag_305\n        /* \"#utility.yul\":9132:9133   */\n      0x00\n        /* \"#utility.yul\":9121:9130   */\n      dup4\n        /* \"#utility.yul\":9117:9134   */\n      add\n        /* \"#utility.yul\":9108:9114   */\n      dup7\n        /* \"#utility.yul\":9064:9135   */\n      tag_147\n      jump\t// in\n    tag_305:\n        /* \"#utility.yul\":9182:9191   */\n      dup2\n        /* \"#utility.yul\":9176:9180   */\n      dup2\n        /* \"#utility.yul\":9172:9192   */\n      sub\n        /* \"#utility.yul\":9167:9169   */\n      0x20\n        /* \"#utility.yul\":9156:9165   */\n      dup4\n        /* \"#utility.yul\":9152:9170   */\n      add\n        /* \"#utility.yul\":9145:9193   */\n      mstore\n        /* \"#utility.yul\":9210:9288   */\n      tag_306\n        /* \"#utility.yul\":9283:9287   */\n      dup2\n        /* \"#utility.yul\":9274:9280   */\n      dup6\n        /* \"#utility.yul\":9210:9288   */\n      tag_177\n      jump\t// in\n    tag_306:\n        /* \"#utility.yul\":9202:9288   */\n      swap1\n      pop\n        /* \"#utility.yul\":9298:9370   */\n      tag_307\n        /* \"#utility.yul\":9366:9368   */\n      0x40\n        /* \"#utility.yul\":9355:9364   */\n      dup4\n        /* \"#utility.yul\":9351:9369   */\n      add\n        /* \"#utility.yul\":9342:9348   */\n      dup5\n        /* \"#utility.yul\":9298:9370   */\n      tag_178\n      jump\t// in\n    tag_307:\n        /* \"#utility.yul\":8844:9377   */\n      swap5\n      swap4\n      pop\n      pop\n      pop\n      pop\n      jump\t// out\n        /* \"#utility.yul\":9383:9473   */\n    tag_179:\n        /* \"#utility.yul\":9417:9424   */\n      0x00\n        /* \"#utility.yul\":9460:9465   */\n      dup2\n        /* \"#utility.yul\":9453:9466   */\n      iszero\n        /* \"#utility.yul\":9446:9467   */\n      iszero\n        /* \"#utility.yul\":9435:9467   */\n      swap1\n      pop\n        /* \"#utility.yul\":9383:9473   */\n      swap2\n      swap1\n      pop\n      jump\t// out\n        /* \"#utility.yul\":9479:9595   */\n    tag_180:\n        /* \"#utility.yul\":9549:9570   */\n      tag_310\n        /* \"#utility.yul\":9564:9569   */\n      dup2\n        /* \"#utility.yul\":9549:9570   */\n      tag_179\n      jump\t// in\n    tag_310:\n        /* \"#utility.yul\":9542:9547   */\n      dup2\n        /* \"#utility.yul\":9539:9571   */\n      eq\n        /* \"#utility.yul\":9529:9589   */\n      tag_311\n      jumpi\n        /* \"#utility.yul\":9585:9586   */\n      0x00\n        /* \"#utility.yul\":9582:9583   */\n      dup1\n        /* \"#utility.yul\":9575:9587   */\n      revert\n        /* \"#utility.yul\":9529:9589   */\n    tag_311:\n        /* \"#utility.yul\":9479:9595   */\n      pop\n      jump\t// out\n        /* \"#utility.yul\":9601:9734   */\n    tag_181:\n        /* \"#utility.yul\":9644:9649   */\n      0x00\n        /* \"#utility.yul\":9682:9688   */\n      dup2\n        /* \"#utility.yul\":9669:9689   */\n      calldataload\n        /* \"#utility.yul\":9660:9689   */\n      swap1\n      pop\n        /* \"#utility.yul\":9698:9728   */\n      tag_313\n        /* \"#utility.yul\":9722:9727   */\n      dup2\n        /* \"#utility.yul\":9698:9728   */\n      tag_180\n      jump\t// in\n    tag_313:\n        /* \"#utility.yul\":9601:9734   */\n      swap3\n      swap2\n      pop\n      pop\n      jump\t// out\n        /* \"#utility.yul\":9740:10533   */\n    tag_30:\n        /* \"#utility.yul\":9824:9830   */\n      0x00\n        /* \"#utility.yul\":9832:9838   */\n      dup1\n        /* \"#utility.yul\":9840:9846   */\n      0x00\n        /* \"#utility.yul\":9889:9891   */\n      0x60\n        /* \"#utility.yul\":9877:9886   */\n      dup5\n        /* \"#utility.yul\":9868:9875   */\n      dup7\n        /* \"#utility.yul\":9864:9887   */\n      sub\n        /* \"#utility.yul\":9860:9892   */\n      slt\n        /* \"#utility.yul\":9857:9976   */\n      iszero\n      tag_315\n      jumpi\n        /* \"#utility.yul\":9895:9974   */\n      tag_316\n      tag_149\n      jump\t// in\n    tag_316:\n        /* \"#utility.yul\":9857:9976   */\n    tag_315:\n        /* \"#utility.yul\":10015:10016   */\n      0x00\n        /* \"#utility.yul\":10040:10093   */\n      tag_317\n        /* \"#utility.yul\":10085:10092   */\n      dup7\n        /* \"#utility.yul\":10076:10082   */\n      dup3\n        /* \"#utility.yul\":10065:10074   */\n      dup8\n        /* \"#utility.yul\":10061:10083   */\n      add\n        /* \"#utility.yul\":10040:10093   */\n      tag_175\n      jump\t// in\n    tag_317:\n        /* \"#utility.yul\":10030:10093   */\n      swap4\n      pop\n        /* \"#utility.yul\":9986:10103   */\n      pop\n        /* \"#utility.yul\":10170:10172   */\n      0x20\n        /* \"#utility.yul\":10159:10168   */\n      dup5\n        /* \"#utility.yul\":10155:10173   */\n      add\n        /* \"#utility.yul\":10142:10174   */\n      calldataload\n        /* \"#utility.yul\":10201:10219   */\n      0xffffffffffffffff\n        /* \"#utility.yul\":10193:10199   */\n      dup2\n        /* \"#utility.yul\":10190:10220   */\n      gt\n        /* \"#utility.yul\":10187:10304   */\n      iszero\n      tag_318\n      jumpi\n        /* \"#utility.yul\":10223:10302   */\n      tag_319\n      tag_150\n      jump\t// in\n    tag_319:\n        /* \"#utility.yul\":10187:10304   */\n    tag_318:\n        /* \"#utility.yul\":10328:10391   */\n      tag_320\n        /* \"#utility.yul\":10383:10390   */\n      dup7\n        /* \"#utility.yul\":10374:10380   */\n      dup3\n        /* \"#utility.yul\":10363:10372   */\n      dup8\n        /* \"#utility.yul\":10359:10381   */\n      add\n        /* \"#utility.yul\":10328:10391   */\n      tag_160\n      jump\t// in\n    tag_320:\n        /* \"#utility.yul\":10318:10391   */\n      swap3\n      pop\n        /* \"#utility.yul\":10113:10401   */\n      pop\n        /* \"#utility.yul\":10440:10442   */\n      0x40\n        /* \"#utility.yul\":10466:10516   */\n      tag_321\n        /* \"#utility.yul\":10508:10515   */\n      dup7\n        /* \"#utility.yul\":10499:10505   */\n      dup3\n        /* \"#utility.yul\":10488:10497   */\n      dup8\n        /* \"#utility.yul\":10484:10506   */\n      add\n        /* \"#utility.yul\":10466:10516   */\n      tag_181\n      jump\t// in\n    tag_321:\n        /* \"#utility.yul\":10456:10516   */\n      swap2\n      pop\n        /* \"#utility.yul\":10411:10526   */\n      pop\n        /* \"#utility.yul\":9740:10533   */\n      swap3\n      pop\n      swap3\n      pop\n      swap3\n      jump\t// out\n        /* \"#utility.yul\":10539:10692   */\n    tag_182:\n        /* \"#utility.yul\":10637:10685   */\n      tag_323\n        /* \"#utility.yul\":10679:10684   */\n      dup2\n        /* \"#utility.yul\":10637:10685   */\n      tag_171\n      jump\t// in\n    tag_323:\n        /* \"#utility.yul\":10632:10635   */\n      dup3\n        /* \"#utility.yul\":10625:10686   */\n      mstore\n        /* \"#utility.yul\":10539:10692   */\n      pop\n      pop\n      jump\t// out\n        /* \"#utility.yul\":10698:11788   */\n    tag_39:\n        /* \"#utility.yul\":11010:11014   */\n      0x00\n        /* \"#utility.yul\":11048:11051   */\n      0xe0\n        /* \"#utility.yul\":11037:11046   */\n      dup3\n        /* \"#utility.yul\":11033:11052   */\n      add\n        /* \"#utility.yul\":11025:11052   */\n      swap1\n      pop\n        /* \"#utility.yul\":11062:11133   */\n      tag_325\n        /* \"#utility.yul\":11130:11131   */\n      0x00\n        /* \"#utility.yul\":11119:11128   */\n      dup4\n        /* \"#utility.yul\":11115:11132   */\n      add\n        /* \"#utility.yul\":11106:11112   */\n      dup11\n        /* \"#utility.yul\":11062:11133   */\n      tag_147\n      jump\t// in\n    tag_325:\n        /* \"#utility.yul\":11180:11189   */\n      dup2\n        /* \"#utility.yul\":11174:11178   */\n      dup2\n        /* \"#utility.yul\":11170:11190   */\n      sub\n        /* \"#utility.yul\":11165:11167   */\n      0x20\n        /* \"#utility.yul\":11154:11163   */\n      dup4\n        /* \"#utility.yul\":11150:11168   */\n      add\n        /* \"#utility.yul\":11143:11191   */\n      mstore\n        /* \"#utility.yul\":11208:11286   */\n      tag_326\n        /* \"#utility.yul\":11281:11285   */\n      dup2\n        /* \"#utility.yul\":11272:11278   */\n      dup10\n        /* \"#utility.yul\":11208:11286   */\n      tag_177\n      jump\t// in\n    tag_326:\n        /* \"#utility.yul\":11200:11286   */\n      swap1\n      pop\n        /* \"#utility.yul\":11333:11342   */\n      dup2\n        /* \"#utility.yul\":11327:11331   */\n      dup2\n        /* \"#utility.yul\":11323:11343   */\n      sub\n        /* \"#utility.yul\":11318:11320   */\n      0x40\n        /* \"#utility.yul\":11307:11316   */\n      dup4\n        /* \"#utility.yul\":11303:11321   */\n      add\n        /* \"#utility.yul\":11296:11344   */\n      mstore\n        /* \"#utility.yul\":11361:11439   */\n      tag_327\n        /* \"#utility.yul\":11434:11438   */\n      dup2\n        /* \"#utility.yul\":11425:11431   */\n      dup9\n        /* \"#utility.yul\":11361:11439   */\n      tag_177\n      jump\t// in\n    tag_327:\n        /* \"#utility.yul\":11353:11439   */\n      swap1\n      pop\n        /* \"#utility.yul\":11449:11521   */\n      tag_328\n        /* \"#utility.yul\":11517:11519   */\n      0x60\n        /* \"#utility.yul\":11506:11515   */\n      dup4\n        /* \"#utility.yul\":11502:11520   */\n      add\n        /* \"#utility.yul\":11493:11499   */\n      dup8\n        /* \"#utility.yul\":11449:11521   */\n      tag_178\n      jump\t// in\n    tag_328:\n        /* \"#utility.yul\":11531:11604   */\n      tag_329\n        /* \"#utility.yul\":11599:11602   */\n      0x80\n        /* \"#utility.yul\":11588:11597   */\n      dup4\n        /* \"#utility.yul\":11584:11603   */\n      add\n        /* \"#utility.yul\":11575:11581   */\n      dup7\n        /* \"#utility.yul\":11531:11604   */\n      tag_147\n      jump\t// in\n    tag_329:\n        /* \"#utility.yul\":11614:11687   */\n      tag_330\n        /* \"#utility.yul\":11682:11685   */\n      0xa0\n        /* \"#utility.yul\":11671:11680   */\n      dup4\n        /* \"#utility.yul\":11667:11686   */\n      add\n        /* \"#utility.yul\":11658:11664   */\n      dup6\n        /* \"#utility.yul\":11614:11687   */\n      tag_147\n      jump\t// in\n    tag_330:\n        /* \"#utility.yul\":11697:11781   */\n      tag_331\n        /* \"#utility.yul\":11776:11779   */\n      0xc0\n        /* \"#utility.yul\":11765:11774   */\n      dup4\n        /* \"#utility.yul\":11761:11780   */\n      add\n        /* \"#utility.yul\":11752:11758   */\n      dup5\n        /* \"#utility.yul\":11697:11781   */\n      tag_182\n      jump\t// in\n    tag_331:\n        /* \"#utility.yul\":10698:11788   */\n      swap9\n      swap8\n      pop\n      pop\n      pop\n      pop\n      pop\n      pop\n      pop\n      pop\n      jump\t// out\n        /* \"#utility.yul\":11794:11916   */\n    tag_183:\n        /* \"#utility.yul\":11867:11891   */\n      tag_333\n        /* \"#utility.yul\":11885:11890   */\n      dup2\n        /* \"#utility.yul\":11867:11891   */\n      tag_167\n      jump\t// in\n    tag_333:\n        /* \"#utility.yul\":11860:11865   */\n      dup2\n        /* \"#utility.yul\":11857:11892   */\n      eq\n        /* \"#utility.yul\":11847:11910   */\n      tag_334\n      jumpi\n        /* \"#utility.yul\":11906:11907   */\n      0x00\n        /* \"#utility.yul\":11903:11904   */\n      dup1\n        /* \"#utility.yul\":11896:11908   */\n      revert\n        /* \"#utility.yul\":11847:11910   */\n    tag_334:\n        /* \"#utility.yul\":11794:11916   */\n      pop\n      jump\t// out\n        /* \"#utility.yul\":11922:12061   */\n    tag_184:\n        /* \"#utility.yul\":11968:11973   */\n      0x00\n        /* \"#utility.yul\":12006:12012   */\n      dup2\n        /* \"#utility.yul\":11993:12013   */\n      calldataload\n        /* \"#utility.yul\":11984:12013   */\n      swap1\n      pop\n        /* \"#utility.yul\":12022:12055   */\n      tag_336\n        /* \"#utility.yul\":12049:12054   */\n      dup2\n        /* \"#utility.yul\":12022:12055   */\n      tag_183\n      jump\t// in\n    tag_336:\n        /* \"#utility.yul\":11922:12061   */\n      swap3\n      swap2\n      pop\n      pop\n      jump\t// out\n        /* \"#utility.yul\":12067:12866   */\n    tag_42:\n        /* \"#utility.yul\":12154:12160   */\n      0x00\n        /* \"#utility.yul\":12162:12168   */\n      dup1\n        /* \"#utility.yul\":12170:12176   */\n      0x00\n        /* \"#utility.yul\":12219:12221   */\n      0x60\n        /* \"#utility.yul\":12207:12216   */\n      dup5\n        /* \"#utility.yul\":12198:12205   */\n      dup7\n        /* \"#utility.yul\":12194:12217   */\n      sub\n        /* \"#utility.yul\":12190:12222   */\n      slt\n        /* \"#utility.yul\":12187:12306   */\n      iszero\n      tag_338\n      jumpi\n        /* \"#utility.yul\":12225:12304   */\n      tag_339\n      tag_149\n      jump\t// in\n    tag_339:\n        /* \"#utility.yul\":12187:12306   */\n    tag_338:\n        /* \"#utility.yul\":12345:12346   */\n      0x00\n        /* \"#utility.yul\":12370:12423   */\n      tag_340\n        /* \"#utility.yul\":12415:12422   */\n      dup7\n        /* \"#utility.yul\":12406:12412   */\n      dup3\n        /* \"#utility.yul\":12395:12404   */\n      dup8\n        /* \"#utility.yul\":12391:12413   */\n      add\n        /* \"#utility.yul\":12370:12423   */\n      tag_175\n      jump\t// in\n    tag_340:\n        /* \"#utility.yul\":12360:12423   */\n      swap4\n      pop\n        /* \"#utility.yul\":12316:12433   */\n      pop\n        /* \"#utility.yul\":12500:12502   */\n      0x20\n        /* \"#utility.yul\":12489:12498   */\n      dup5\n        /* \"#utility.yul\":12485:12503   */\n      add\n        /* \"#utility.yul\":12472:12504   */\n      calldataload\n        /* \"#utility.yul\":12531:12549   */\n      0xffffffffffffffff\n        /* \"#utility.yul\":12523:12529   */\n      dup2\n        /* \"#utility.yul\":12520:12550   */\n      gt\n        /* \"#utility.yul\":12517:12634   */\n      iszero\n      tag_341\n      jumpi\n        /* \"#utility.yul\":12553:12632   */\n      tag_342\n      tag_150\n      jump\t// in\n    tag_342:\n        /* \"#utility.yul\":12517:12634   */\n    tag_341:\n        /* \"#utility.yul\":12658:12721   */\n      tag_343\n        /* \"#utility.yul\":12713:12720   */\n      dup7\n        /* \"#utility.yul\":12704:12710   */\n      dup3\n        /* \"#utility.yul\":12693:12702   */\n      dup8\n        /* \"#utility.yul\":12689:12711   */\n      add\n        /* \"#utility.yul\":12658:12721   */\n      tag_160\n      jump\t// in\n    tag_343:\n        /* \"#utility.yul\":12648:12721   */\n      swap3\n      pop\n        /* \"#utility.yul\":12443:12731   */\n      pop\n        /* \"#utility.yul\":12770:12772   */\n      0x40\n        /* \"#utility.yul\":12796:12849   */\n      tag_344\n        /* \"#utility.yul\":12841:12848   */\n      dup7\n        /* \"#utility.yul\":12832:12838   */\n      dup3\n        /* \"#utility.yul\":12821:12830   */\n      dup8\n        /* \"#utility.yul\":12817:12839   */\n      add\n        /* \"#utility.yul\":12796:12849   */\n      tag_184\n      jump\t// in\n    tag_344:\n        /* \"#utility.yul\":12786:12849   */\n      swap2\n      pop\n        /* \"#utility.yul\":12741:12859   */\n      pop\n        /* \"#utility.yul\":12067:12866   */\n      swap3\n      pop\n      swap3\n      pop\n      swap3\n      jump\t// out\n        /* \"#utility.yul\":12872:12989   */\n    tag_185:\n        /* \"#utility.yul\":12981:12982   */\n      0x00\n        /* \"#utility.yul\":12978:12979   */\n      dup1\n        /* \"#utility.yul\":12971:12983   */\n      revert\n        /* \"#utility.yul\":12995:13112   */\n    tag_186:\n        /* \"#utility.yul\":13104:13105   */\n      0x00\n        /* \"#utility.yul\":13101:13102   */\n      dup1\n        /* \"#utility.yul\":13094:13106   */\n      revert\n        /* \"#utility.yul\":13132:13685   */\n    tag_187:\n        /* \"#utility.yul\":13190:13198   */\n      0x00\n        /* \"#utility.yul\":13200:13206   */\n      dup1\n        /* \"#utility.yul\":13250:13253   */\n      dup4\n        /* \"#utility.yul\":13243:13247   */\n      0x1f\n        /* \"#utility.yul\":13235:13241   */\n      dup5\n        /* \"#utility.yul\":13231:13248   */\n      add\n        /* \"#utility.yul\":13227:13254   */\n      slt\n        /* \"#utility.yul\":13217:13339   */\n      tag_348\n      jumpi\n        /* \"#utility.yul\":13258:13337   */\n      tag_349\n      tag_151\n      jump\t// in\n    tag_349:\n        /* \"#utility.yul\":13217:13339   */\n    tag_348:\n        /* \"#utility.yul\":13371:13377   */\n      dup3\n        /* \"#utility.yul\":13358:13378   */\n      calldataload\n        /* \"#utility.yul\":13348:13378   */\n      swap1\n      pop\n        /* \"#utility.yul\":13401:13419   */\n      0xffffffffffffffff\n        /* \"#utility.yul\":13393:13399   */\n      dup2\n        /* \"#utility.yul\":13390:13420   */\n      gt\n        /* \"#utility.yul\":13387:13504   */\n      iszero\n      tag_350\n      jumpi\n        /* \"#utility.yul\":13423:13502   */\n      tag_351\n      tag_185\n      jump\t// in\n    tag_351:\n        /* \"#utility.yul\":13387:13504   */\n    tag_350:\n        /* \"#utility.yul\":13537:13541   */\n      0x20\n        /* \"#utility.yul\":13529:13535   */\n      dup4\n        /* \"#utility.yul\":13525:13542   */\n      add\n        /* \"#utility.yul\":13513:13542   */\n      swap2\n      pop\n        /* \"#utility.yul\":13591:13594   */\n      dup4\n        /* \"#utility.yul\":13583:13587   */\n      0x01\n        /* \"#utility.yul\":13575:13581   */\n      dup3\n        /* \"#utility.yul\":13571:13588   */\n      mul\n        /* \"#utility.yul\":13561:13569   */\n      dup4\n        /* \"#utility.yul\":13557:13589   */\n      add\n        /* \"#utility.yul\":13554:13595   */\n      gt\n        /* \"#utility.yul\":13551:13679   */\n      iszero\n      tag_352\n      jumpi\n        /* \"#utility.yul\":13598:13677   */\n      tag_353\n      tag_186\n      jump\t// in\n    tag_353:\n        /* \"#utility.yul\":13551:13679   */\n    tag_352:\n        /* \"#utility.yul\":13132:13685   */\n      swap3\n      pop\n      swap3\n      swap1\n      pop\n      jump\t// out\n        /* \"#utility.yul\":13691:14710   */\n    tag_46:\n        /* \"#utility.yul\":13792:13798   */\n      0x00\n        /* \"#utility.yul\":13800:13806   */\n      dup1\n        /* \"#utility.yul\":13808:13814   */\n      0x00\n        /* \"#utility.yul\":13816:13822   */\n      dup1\n        /* \"#utility.yul\":13824:13830   */\n      0x00\n        /* \"#utility.yul\":13873:13875   */\n      0x60\n        /* \"#utility.yul\":13861:13870   */\n      dup7\n        /* \"#utility.yul\":13852:13859   */\n      dup9\n        /* \"#utility.yul\":13848:13871   */\n      sub\n        /* \"#utility.yul\":13844:13876   */\n      slt\n        /* \"#utility.yul\":13841:13960   */\n      iszero\n      tag_355\n      jumpi\n        /* \"#utility.yul\":13879:13958   */\n      tag_356\n      tag_149\n      jump\t// in\n    tag_356:\n        /* \"#utility.yul\":13841:13960   */\n    tag_355:\n        /* \"#utility.yul\":14027:14028   */\n      0x00\n        /* \"#utility.yul\":14016:14025   */\n      dup7\n        /* \"#utility.yul\":14012:14029   */\n      add\n        /* \"#utility.yul\":13999:14030   */\n      calldataload\n        /* \"#utility.yul\":14057:14075   */\n      0xffffffffffffffff\n        /* \"#utility.yul\":14049:14055   */\n      dup2\n        /* \"#utility.yul\":14046:14076   */\n      gt\n        /* \"#utility.yul\":14043:14160   */\n      iszero\n      tag_357\n      jumpi\n        /* \"#utility.yul\":14079:14158   */\n      tag_358\n      tag_150\n      jump\t// in\n    tag_358:\n        /* \"#utility.yul\":14043:14160   */\n    tag_357:\n        /* \"#utility.yul\":14192:14257   */\n      tag_359\n        /* \"#utility.yul\":14249:14256   */\n      dup9\n        /* \"#utility.yul\":14240:14246   */\n      dup3\n        /* \"#utility.yul\":14229:14238   */\n      dup10\n        /* \"#utility.yul\":14225:14247   */\n      add\n        /* \"#utility.yul\":14192:14257   */\n      tag_187\n      jump\t// in\n    tag_359:\n        /* \"#utility.yul\":14174:14257   */\n      swap6\n      pop\n      swap6\n      pop\n        /* \"#utility.yul\":13970:14267   */\n      pop\n        /* \"#utility.yul\":14334:14336   */\n      0x20\n        /* \"#utility.yul\":14323:14332   */\n      dup7\n        /* \"#utility.yul\":14319:14337   */\n      add\n        /* \"#utility.yul\":14306:14338   */\n      calldataload\n        /* \"#utility.yul\":14365:14383   */\n      0xffffffffffffffff\n        /* \"#utility.yul\":14357:14363   */\n      dup2\n        /* \"#utility.yul\":14354:14384   */\n      gt\n        /* \"#utility.yul\":14351:14468   */\n      iszero\n      tag_360\n      jumpi\n        /* \"#utility.yul\":14387:14466   */\n      tag_361\n      tag_150\n      jump\t// in\n    tag_361:\n        /* \"#utility.yul\":14351:14468   */\n    tag_360:\n        /* \"#utility.yul\":14500:14565   */\n      tag_362\n        /* \"#utility.yul\":14557:14564   */\n      dup9\n        /* \"#utility.yul\":14548:14554   */\n      dup3\n        /* \"#utility.yul\":14537:14546   */\n      dup10\n        /* \"#utility.yul\":14533:14555   */\n      add\n        /* \"#utility.yul\":14500:14565   */\n      tag_187\n      jump\t// in\n    tag_362:\n        /* \"#utility.yul\":14482:14565   */\n      swap4\n      pop\n      swap4\n      pop\n        /* \"#utility.yul\":14277:14575   */\n      pop\n        /* \"#utility.yul\":14614:14616   */\n      0x40\n        /* \"#utility.yul\":14640:14693   */\n      tag_363\n        /* \"#utility.yul\":14685:14692   */\n      dup9\n        /* \"#utility.yul\":14676:14682   */\n      dup3\n        /* \"#utility.yul\":14665:14674   */\n      dup10\n        /* \"#utility.yul\":14661:14683   */\n      add\n        /* \"#utility.yul\":14640:14693   */\n      tag_184\n      jump\t// in\n    tag_363:\n        /* \"#utility.yul\":14630:14693   */\n      swap2\n      pop\n        /* \"#utility.yul\":14585:14703   */\n      pop\n        /* \"#utility.yul\":13691:14710   */\n      swap3\n      swap6\n      pop\n      swap3\n      swap6\n      swap1\n      swap4\n      pop\n      jump\t// out\n        /* \"#utility.yul\":14716:14864   */\n    tag_188:\n        /* \"#utility.yul\":14818:14829   */\n      0x00\n        /* \"#utility.yul\":14855:14858   */\n      dup2\n        /* \"#utility.yul\":14840:14858   */\n      swap1\n      pop\n        /* \"#utility.yul\":14716:14864   */\n      swap3\n      swap2\n      pop\n      pop\n      jump\t// out\n        /* \"#utility.yul\":14870:15260   */\n    tag_189:\n        /* \"#utility.yul\":14976:14979   */\n      0x00\n        /* \"#utility.yul\":15004:15043   */\n      tag_366\n        /* \"#utility.yul\":15037:15042   */\n      dup3\n        /* \"#utility.yul\":15004:15043   */\n      tag_162\n      jump\t// in\n    tag_366:\n        /* \"#utility.yul\":15059:15148   */\n      tag_367\n        /* \"#utility.yul\":15141:15147   */\n      dup2\n        /* \"#utility.yul\":15136:15139   */\n      dup6\n        /* \"#utility.yul\":15059:15148   */\n      tag_188\n      jump\t// in\n    tag_367:\n        /* \"#utility.yul\":15052:15148   */\n      swap4\n      pop\n        /* \"#utility.yul\":15157:15222   */\n      tag_368\n        /* \"#utility.yul\":15215:15221   */\n      dup2\n        /* \"#utility.yul\":15210:15213   */\n      dup6\n        /* \"#utility.yul\":15203:15207   */\n      0x20\n        /* \"#utility.yul\":15196:15201   */\n      dup7\n        /* \"#utility.yul\":15192:15208   */\n      add\n        /* \"#utility.yul\":15157:15222   */\n      tag_164\n      jump\t// in\n    tag_368:\n        /* \"#utility.yul\":15247:15253   */\n      dup1\n        /* \"#utility.yul\":15242:15245   */\n      dup5\n        /* \"#utility.yul\":15238:15254   */\n      add\n        /* \"#utility.yul\":15231:15254   */\n      swap2\n      pop\n        /* \"#utility.yul\":14980:15260   */\n      pop\n        /* \"#utility.yul\":14870:15260   */\n      swap3\n      swap2\n      pop\n      pop\n      jump\t// out\n        /* \"#utility.yul\":15266:15541   */\n    tag_52:\n        /* \"#utility.yul\":15398:15401   */\n      0x00\n        /* \"#utility.yul\":15420:15515   */\n      tag_370\n        /* \"#utility.yul\":15511:15514   */\n      dup3\n        /* \"#utility.yul\":15502:15508   */\n      dup5\n        /* \"#utility.yul\":15420:15515   */\n      tag_189\n      jump\t// in\n    tag_370:\n        /* \"#utility.yul\":15413:15515   */\n      swap2\n      pop\n        /* \"#utility.yul\":15532:15535   */\n      dup2\n        /* \"#utility.yul\":15525:15535   */\n      swap1\n      pop\n        /* \"#utility.yul\":15266:15541   */\n      swap3\n      swap2\n      pop\n      pop\n      jump\t// out\n        /* \"#utility.yul\":15547:15727   */\n    tag_190:\n        /* \"#utility.yul\":15595:15672   */\n      0x4e487b7100000000000000000000000000000000000000000000000000000000\n        /* \"#utility.yul\":15592:15593   */\n      0x00\n        /* \"#utility.yul\":15585:15673   */\n      mstore\n        /* \"#utility.yul\":15692:15696   */\n      0x22\n        /* \"#utility.yul\":15689:15690   */\n      0x04\n        /* \"#utility.yul\":15682:15697   */\n      mstore\n        /* \"#utility.yul\":15716:15720   */\n      0x24\n        /* \"#utility.yul\":15713:15714   */\n      0x00\n        /* \"#utility.yul\":15706:15721   */\n      revert\n        /* \"#utility.yul\":15733:16053   */\n    tag_54:\n        /* \"#utility.yul\":15777:15783   */\n      0x00\n        /* \"#utility.yul\":15814:15815   */\n      0x02\n        /* \"#utility.yul\":15808:15812   */\n      dup3\n        /* \"#utility.yul\":15804:15816   */\n      div\n        /* \"#utility.yul\":15794:15816   */\n      swap1\n      pop\n        /* \"#utility.yul\":15861:15862   */\n      0x01\n        /* \"#utility.yul\":15855:15859   */\n      dup3\n        /* \"#utility.yul\":15851:15863   */\n      and\n        /* \"#utility.yul\":15882:15900   */\n      dup1\n        /* \"#utility.yul\":15872:15953   */\n      tag_373\n      jumpi\n        /* \"#utility.yul\":15938:15942   */\n      0x7f\n        /* \"#utility.yul\":15930:15936   */\n      dup3\n        /* \"#utility.yul\":15926:15943   */\n      and\n        /* \"#utility.yul\":15916:15943   */\n      swap2\n      pop\n        /* \"#utility.yul\":15872:15953   */\n    tag_373:\n        /* \"#utility.yul\":16000:16002   */\n      0x20\n        /* \"#utility.yul\":15992:15998   */\n      dup3\n        /* \"#utility.yul\":15989:16003   */\n      lt\n        /* \"#utility.yul\":15969:15987   */\n      dup2\n        /* \"#utility.yul\":15966:16004   */\n      sub\n        /* \"#utility.yul\":15963:16047   */\n      tag_374\n      jumpi\n        /* \"#utility.yul\":16019:16037   */\n      tag_375\n      tag_190\n      jump\t// in\n    tag_375:\n        /* \"#utility.yul\":15963:16047   */\n    tag_374:\n        /* \"#utility.yul\":15784:16053   */\n      pop\n        /* \"#utility.yul\":15733:16053   */\n      swap2\n      swap1\n      pop\n      jump\t// out\n        /* \"#utility.yul\":16059:16239   */\n    tag_81:\n        /* \"#utility.yul\":16107:16184   */\n      0x4e487b7100000000000000000000000000000000000000000000000000000000\n        /* \"#utility.yul\":16104:16105   */\n      0x00\n        /* \"#utility.yul\":16097:16185   */\n      mstore\n        /* \"#utility.yul\":16204:16208   */\n      0x32\n        /* \"#utility.yul\":16201:16202   */\n      0x04\n        /* \"#utility.yul\":16194:16209   */\n      mstore\n        /* \"#utility.yul\":16228:16232   */\n      0x24\n        /* \"#utility.yul\":16225:16226   */\n      0x00\n        /* \"#utility.yul\":16218:16233   */\n      revert\n        /* \"#utility.yul\":16245:16425   */\n    tag_191:\n        /* \"#utility.yul\":16293:16370   */\n      0x4e487b7100000000000000000000000000000000000000000000000000000000\n        /* \"#utility.yul\":16290:16291   */\n      0x00\n        /* \"#utility.yul\":16283:16371   */\n      mstore\n        /* \"#utility.yul\":16390:16394   */\n      0x11\n        /* \"#utility.yul\":16387:16388   */\n      0x04\n        /* \"#utility.yul\":16380:16395   */\n      mstore\n        /* \"#utility.yul\":16414:16418   */\n      0x24\n        /* \"#utility.yul\":16411:16412   */\n      0x00\n        /* \"#utility.yul\":16404:16419   */\n      revert\n        /* \"#utility.yul\":16431:16664   */\n    tag_90:\n        /* \"#utility.yul\":16470:16473   */\n      0x00\n        /* \"#utility.yul\":16493:16517   */\n      tag_379\n        /* \"#utility.yul\":16511:16516   */\n      dup3\n        /* \"#utility.yul\":16493:16517   */\n      tag_146\n      jump\t// in\n    tag_379:\n        /* \"#utility.yul\":16484:16517   */\n      swap2\n      pop\n        /* \"#utility.yul\":16539:16605   */\n      0xffffffffffffffffffffffffffffffffffffffffffffffffffffffffffffffff\n        /* \"#utility.yul\":16532:16537   */\n      dup3\n        /* \"#utility.yul\":16529:16606   */\n      sub\n        /* \"#utility.yul\":16526:16629   */\n      tag_380\n      jumpi\n        /* \"#utility.yul\":16609:16627   */\n      tag_381\n      tag_191\n      jump\t// in\n    tag_381:\n        /* \"#utility.yul\":16526:16629   */\n    tag_380:\n        /* \"#utility.yul\":16656:16657   */\n      0x01\n        /* \"#utility.yul\":16649:16654   */\n      dup3\n        /* \"#utility.yul\":16645:16658   */\n      add\n        /* \"#utility.yul\":16638:16658   */\n      swap1\n      pop\n        /* \"#utility.yul\":16431:16664   */\n      swap2\n      swap1\n      pop\n      jump\t// out\n        /* \"#utility.yul\":16670:16864   */\n    tag_120:\n        /* \"#utility.yul\":16710:16714   */\n      0x00\n        /* \"#utility.yul\":16730:16750   */\n      tag_383\n        /* \"#utility.yul\":16748:16749   */\n      dup3\n        /* \"#utility.yul\":16730:16750   */\n      tag_146\n      jump\t// in\n    tag_383:\n        /* \"#utility.yul\":16725:16750   */\n      swap2\n      pop\n        /* \"#utility.yul\":16764:16784   */\n      tag_384\n        /* \"#utility.yul\":16782:16783   */\n      dup4\n        /* \"#utility.yul\":16764:16784   */\n      tag_146\n      jump\t// in\n    tag_384:\n        /* \"#utility.yul\":16759:16784   */\n      swap3\n      pop\n        /* \"#utility.yul\":16808:16809   */\n      dup3\n        /* \"#utility.yul\":16805:16806   */\n      dup3\n        /* \"#utility.yul\":16801:16810   */\n      sub\n        /* \"#utility.yul\":16793:16810   */\n      swap1\n      pop\n        /* \"#utility.yul\":16832:16833   */\n      dup2\n        /* \"#utility.yul\":16826:16830   */\n      dup2\n        /* \"#utility.yul\":16823:16834   */\n      gt\n        /* \"#utility.yul\":16820:16857   */\n      iszero\n      tag_385\n      jumpi\n        /* \"#utility.yul\":16837:16855   */\n      tag_386\n      tag_191\n      jump\t// in\n    tag_386:\n        /* \"#utility.yul\":16820:16857   */\n    tag_385:\n        /* \"#utility.yul\":16670:16864   */\n      swap3\n      swap2\n      pop\n      pop\n      jump\t// out\n        /* \"#utility.yul\":16870:17011   */\n    tag_192:\n        /* \"#utility.yul\":16919:16923   */\n      0x00\n        /* \"#utility.yul\":16942:16945   */\n      dup2\n        /* \"#utility.yul\":16934:16945   */\n      swap1\n      pop\n        /* \"#utility.yul\":16965:16968   */\n      dup2\n        /* \"#utility.yul\":16962:16963   */\n      0x00\n        /* \"#utility.yul\":16955:16969   */\n      mstore\n        /* \"#utility.yul\":16999:17003   */\n      0x20\n        /* \"#utility.yul\":16996:16997   */\n      0x00\n        /* \"#utility.yul\":16986:17004   */\n      keccak256\n        /* \"#utility.yul\":16978:17004   */\n      swap1\n      pop\n        /* \"#utility.yul\":16870:17011   */\n      swap2\n      swap1\n      pop\n      jump\t// out\n        /* \"#utility.yul\":17017:17110   */\n    tag_193:\n        /* \"#utility.yul\":17054:17060   */\n      0x00\n        /* \"#utility.yul\":17101:17103   */\n      0x20\n        /* \"#utility.yul\":17096:17098   */\n      0x1f\n        /* \"#utility.yul\":17089:17094   */\n      dup4\n        /* \"#utility.yul\":17085:17099   */\n      add\n        /* \"#utility.yul\":17081:17104   */\n      div\n        /* \"#utility.yul\":17071:17104   */\n      swap1\n      pop\n        /* \"#utility.yul\":17017:17110   */\n      swap2\n      swap1\n      pop\n      jump\t// out\n        /* \"#utility.yul\":17116:17223   */\n    tag_194:\n        /* \"#utility.yul\":17160:17168   */\n      0x00\n        /* \"#utility.yul\":17210:17215   */\n      dup3\n        /* \"#utility.yul\":17204:17208   */\n      dup3\n        /* \"#utility.yul\":17200:17216   */\n      shl\n        /* \"#utility.yul\":17179:17216   */\n      swap1\n      pop\n        /* \"#utility.yul\":17116:17223   */\n      swap3\n      swap2\n      pop\n      pop\n      jump\t// out\n        /* \"#utility.yul\":17229:17622   */\n    tag_195:\n        /* \"#utility.yul\":17298:17304   */\n      0x00\n        /* \"#utility.yul\":17348:17349   */\n      0x08\n        /* \"#utility.yul\":17336:17346   */\n      dup4\n        /* \"#utility.yul\":17332:17350   */\n      mul\n        /* \"#utility.yul\":17371:17468   */\n      tag_391\n        /* \"#utility.yul\":17401:17467   */\n      0xffffffffffffffffffffffffffffffffffffffffffffffffffffffffffffffff\n        /* \"#utility.yul\":17390:17399   */\n      dup3\n        /* \"#utility.yul\":17371:17468   */\n      tag_194\n      jump\t// in\n    tag_391:\n        /* \"#utility.yul\":17489:17528   */\n      tag_392\n        /* \"#utility.yul\":17519:17527   */\n      dup7\n        /* \"#utility.yul\":17508:17517   */\n      dup4\n        /* \"#utility.yul\":17489:17528   */\n      tag_194\n      jump\t// in\n    tag_392:\n        /* \"#utility.yul\":17477:17528   */\n      swap6\n      pop\n        /* \"#utility.yul\":17561:17565   */\n      dup1\n        /* \"#utility.yul\":17557:17566   */\n      not\n        /* \"#utility.yul\":17550:17555   */\n      dup5\n        /* \"#utility.yul\":17546:17567   */\n      and\n        /* \"#utility.yul\":17537:17567   */\n      swap4\n      pop\n        /* \"#utility.yul\":17610:17614   */\n      dup1\n        /* \"#utility.yul\":17600:17608   */\n      dup7\n        /* \"#utility.yul\":17596:17615   */\n      and\n        /* \"#utility.yul\":17589:17594   */\n      dup5\n        /* \"#utility.yul\":17586:17616   */\n      or\n        /* \"#utility.yul\":17576:17616   */\n      swap3\n      pop\n        /* \"#utility.yul\":17305:17622   */\n      pop\n      pop\n        /* \"#utility.yul\":17229:17622   */\n      swap4\n      swap3\n      pop\n      pop\n      pop\n      jump\t// out\n        /* \"#utility.yul\":17628:17688   */\n    tag_196:\n        /* \"#utility.yul\":17656:17659   */\n      0x00\n        /* \"#utility.yul\":17677:17682   */\n      dup2\n        /* \"#utility.yul\":17670:17682   */\n      swap1\n      pop\n        /* \"#utility.yul\":17628:17688   */\n      swap2\n      swap1\n      pop\n      jump\t// out\n        /* \"#utility.yul\":17694:17836   */\n    tag_197:\n        /* \"#utility.yul\":17744:17753   */\n      0x00\n        /* \"#utility.yul\":17777:17830   */\n      tag_395\n        /* \"#utility.yul\":17795:17829   */\n      tag_396\n        /* \"#utility.yul\":17804:17828   */\n      tag_397\n        /* \"#utility.yul\":17822:17827   */\n      dup5\n        /* \"#utility.yul\":17804:17828   */\n      tag_146\n      jump\t// in\n    tag_397:\n        /* \"#utility.yul\":17795:17829   */\n      tag_196\n      jump\t// in\n    tag_396:\n        /* \"#utility.yul\":17777:17830   */\n      tag_146\n      jump\t// in\n    tag_395:\n        /* \"#utility.yul\":17764:17830   */\n      swap1\n      pop\n        /* \"#utility.yul\":17694:17836   */\n      swap2\n      swap1\n      pop\n      jump\t// out\n        /* \"#utility.yul\":17842:17917   */\n    tag_198:\n        /* \"#utility.yul\":17885:17888   */\n      0x00\n        /* \"#utility.yul\":17906:17911   */\n      dup2\n        /* \"#utility.yul\":17899:17911   */\n      swap1\n      pop\n        /* \"#utility.yul\":17842:17917   */\n      swap2\n      swap1\n      pop\n      jump\t// out\n        /* \"#utility.yul\":17923:18192   */\n    tag_199:\n        /* \"#utility.yul\":18033:18072   */\n      tag_400\n        /* \"#utility.yul\":18064:18071   */\n      dup4\n        /* \"#utility.yul\":18033:18072   */\n      tag_197\n      jump\t// in\n    tag_400:\n        /* \"#utility.yul\":18094:18185   */\n      tag_401\n        /* \"#utility.yul\":18143:18184   */\n      tag_402\n        /* \"#utility.yul\":18167:18183   */\n      dup3\n        /* \"#utility.yul\":18143:18184   */\n      tag_198\n      jump\t// in\n    tag_402:\n        /* \"#utility.yul\":18135:18141   */\n      dup5\n        /* \"#utility.yul\":18128:18132   */\n      dup5\n        /* \"#utility.yul\":18122:18133   */\n      sload\n        /* \"#utility.yul\":18094:18185   */\n      tag_195\n      jump\t// in\n    tag_401:\n        /* \"#utility.yul\":18088:18092   */\n      dup3\n        /* \"#utility.yul\":18081:18186   */\n      sstore\n        /* \"#utility.yul\":17999:18192   */\n      pop\n        /* \"#utility.yul\":17923:18192   */\n      pop\n      pop\n      pop\n      jump\t// out\n        /* \"#utility.yul\":18198:18271   */\n    tag_200:\n        /* \"#utility.yul\":18243:18246   */\n      0x00\n        /* \"#utility.yul\":18198:18271   */\n      swap1\n      jump\t// out\n        /* \"#utility.yul\":18277:18466   */\n    tag_201:\n        /* \"#utility.yul\":18354:18386   */\n      tag_405\n      tag_200\n      jump\t// in\n    tag_405:\n        /* \"#utility.yul\":18395:18460   */\n      tag_406\n        /* \"#utility.yul\":18453:18459   */\n      dup2\n        /* \"#utility.yul\":18445:18451   */\n      dup5\n        /* \"#utility.yul\":18439:18443   */\n      dup5\n        /* \"#utility.yul\":18395:18460   */\n      tag_199\n      jump\t// in\n    tag_406:\n        /* \"#utility.yul\":18330:18466   */\n      pop\n        /* \"#utility.yul\":18277:18466   */\n      pop\n      pop\n      jump\t// out\n        /* \"#utility.yul\":18472:18658   */\n    tag_202:\n        /* \"#utility.yul\":18532:18652   */\n    tag_408:\n        /* \"#utility.yul\":18549:18552   */\n      dup2\n        /* \"#utility.yul\":18542:18547   */\n      dup2\n        /* \"#utility.yul\":18539:18553   */\n      lt\n        /* \"#utility.yul\":18532:18652   */\n      iszero\n      tag_410\n      jumpi\n        /* \"#utility.yul\":18603:18642   */\n      tag_411\n        /* \"#utility.yul\":18640:18641   */\n      0x00\n        /* \"#utility.yul\":18633:18638   */\n      dup3\n        /* \"#utility.yul\":18603:18642   */\n      tag_201\n      jump\t// in\n    tag_411:\n        /* \"#utility.yul\":18576:18577   */\n      0x01\n        /* \"#utility.yul\":18569:18574   */\n      dup2\n        /* \"#utility.yul\":18565:18578   */\n      add\n        /* \"#utility.yul\":18556:18578   */\n      swap1\n      pop\n        /* \"#utility.yul\":18532:18652   */\n      jump(tag_408)\n    tag_410:\n        /* \"#utility.yul\":18472:18658   */\n      pop\n      pop\n      jump\t// out\n        /* \"#utility.yul\":18664:19207   */\n    tag_203:\n        /* \"#utility.yul\":18765:18767   */\n      0x1f\n        /* \"#utility.yul\":18760:18763   */\n      dup3\n        /* \"#utility.yul\":18757:18768   */\n      gt\n        /* \"#utility.yul\":18754:19200   */\n      iszero\n      tag_413\n      jumpi\n        /* \"#utility.yul\":18799:18837   */\n      tag_414\n        /* \"#utility.yul\":18831:18836   */\n      dup2\n        /* \"#utility.yul\":18799:18837   */\n      tag_192\n      jump\t// in\n    tag_414:\n        /* \"#utility.yul\":18883:18912   */\n      tag_415\n        /* \"#utility.yul\":18901:18911   */\n      dup5\n        /* \"#utility.yul\":18883:18912   */\n      tag_193\n      jump\t// in\n    tag_415:\n        /* \"#utility.yul\":18873:18881   */\n      dup2\n        /* \"#utility.yul\":18869:18913   */\n      add\n        /* \"#utility.yul\":19066:19068   */\n      0x20\n        /* \"#utility.yul\":19054:19064   */\n      dup6\n        /* \"#utility.yul\":19051:19069   */\n      lt\n        /* \"#utility.yul\":19048:19097   */\n      iszero\n      tag_416\n      jumpi\n        /* \"#utility.yul\":19087:19095   */\n      dup2\n        /* \"#utility.yul\":19072:19095   */\n      swap1\n      pop\n        /* \"#utility.yul\":19048:19097   */\n    tag_416:\n        /* \"#utility.yul\":19110:19190   */\n      tag_417\n        /* \"#utility.yul\":19166:19188   */\n      tag_418\n        /* \"#utility.yul\":19184:19187   */\n      dup6\n        /* \"#utility.yul\":19166:19188   */\n      tag_193\n      jump\t// in\n    tag_418:\n        /* \"#utility.yul\":19156:19164   */\n      dup4\n        /* \"#utility.yul\":19152:19189   */\n      add\n        /* \"#utility.yul\":19139:19150   */\n      dup3\n        /* \"#utility.yul\":19110:19190   */\n      tag_202\n      jump\t// in\n    tag_417:\n        /* \"#utility.yul\":18769:19200   */\n      pop\n      pop\n        /* \"#utility.yul\":18754:19200   */\n    tag_413:\n        /* \"#utility.yul\":18664:19207   */\n      pop\n      pop\n      pop\n      jump\t// out\n        /* \"#utility.yul\":19213:19330   */\n    tag_204:\n        /* \"#utility.yul\":19267:19275   */\n      0x00\n        /* \"#utility.yul\":19317:19322   */\n      dup3\n        /* \"#utility.yul\":19311:19315   */\n      dup3\n        /* \"#utility.yul\":19307:19323   */\n      shr\n        /* \"#utility.yul\":19286:19323   */\n      swap1\n      pop\n        /* \"#utility.yul\":19213:19330   */\n      swap3\n      swap2\n      pop\n      pop\n      jump\t// out\n        /* \"#utility.yul\":19336:19505   */\n    tag_205:\n        /* \"#utility.yul\":19380:19386   */\n      0x00\n        /* \"#utility.yul\":19413:19464   */\n      tag_421\n        /* \"#utility.yul\":19461:19462   */\n      0x00\n        /* \"#utility.yul\":19457:19463   */\n      not\n        /* \"#utility.yul\":19449:19454   */\n      dup5\n        /* \"#utility.yul\":19446:19447   */\n      0x08\n        /* \"#utility.yul\":19442:19455   */\n      mul\n        /* \"#utility.yul\":19413:19464   */\n      tag_204\n      jump\t// in\n    tag_421:\n        /* \"#utility.yul\":19409:19465   */\n      not\n        /* \"#utility.yul\":19494:19498   */\n      dup1\n        /* \"#utility.yul\":19488:19492   */\n      dup4\n        /* \"#utility.yul\":19484:19499   */\n      and\n        /* \"#utility.yul\":19474:19499   */\n      swap2\n      pop\n        /* \"#utility.yul\":19387:19505   */\n      pop\n        /* \"#utility.yul\":19336:19505   */\n      swap3\n      swap2\n      pop\n      pop\n      jump\t// out\n        /* \"#utility.yul\":19510:19805   */\n    tag_206:\n        /* \"#utility.yul\":19586:19590   */\n      0x00\n        /* \"#utility.yul\":19732:19761   */\n      tag_423\n        /* \"#utility.yul\":19757:19760   */\n      dup4\n        /* \"#utility.yul\":19751:19755   */\n      dup4\n        /* \"#utility.yul\":19732:19761   */\n      tag_205\n      jump\t// in\n    tag_423:\n        /* \"#utility.yul\":19724:19761   */\n      swap2\n      pop\n        /* \"#utility.yul\":19794:19797   */\n      dup3\n        /* \"#utility.yul\":19791:19792   */\n      0x02\n        /* \"#utility.yul\":19787:19798   */\n      mul\n        /* \"#utility.yul\":19781:19785   */\n      dup3\n        /* \"#utility.yul\":19778:19799   */\n      or\n        /* \"#utility.yul\":19770:19799   */\n      swap1\n      pop\n        /* \"#utility.yul\":19510:19805   */\n      swap3\n      swap2\n      pop\n      pop\n      jump\t// out\n        /* \"#utility.yul\":19810:21205   */\n    tag_129:\n        /* \"#utility.yul\":19927:19964   */\n      tag_425\n        /* \"#utility.yul\":19960:19963   */\n      dup3\n        /* \"#utility.yul\":19927:19964   */\n      tag_162\n      jump\t// in\n    tag_425:\n        /* \"#utility.yul\":20029:20047   */\n      0xffffffffffffffff\n        /* \"#utility.yul\":20021:20027   */\n      dup2\n        /* \"#utility.yul\":20018:20048   */\n      gt\n        /* \"#utility.yul\":20015:20071   */\n      iszero\n      tag_426\n      jumpi\n        /* \"#utility.yul\":20051:20069   */\n      tag_427\n      tag_154\n      jump\t// in\n    tag_427:\n        /* \"#utility.yul\":20015:20071   */\n    tag_426:\n        /* \"#utility.yul\":20095:20133   */\n      tag_428\n        /* \"#utility.yul\":20127:20131   */\n      dup3\n        /* \"#utility.yul\":20121:20132   */\n      sload\n        /* \"#utility.yul\":20095:20133   */\n      tag_54\n      jump\t// in\n    tag_428:\n        /* \"#utility.yul\":20180:20247   */\n      tag_429\n        /* \"#utility.yul\":20240:20246   */\n      dup3\n        /* \"#utility.yul\":20232:20238   */\n      dup3\n        /* \"#utility.yul\":20226:20230   */\n      dup6\n        /* \"#utility.yul\":20180:20247   */\n      tag_203\n      jump\t// in\n    tag_429:\n        /* \"#utility.yul\":20274:20275   */\n      0x00\n        /* \"#utility.yul\":20298:20302   */\n      0x20\n        /* \"#utility.yul\":20285:20302   */\n      swap1\n      pop\n        /* \"#utility.yul\":20330:20332   */\n      0x1f\n        /* \"#utility.yul\":20322:20328   */\n      dup4\n        /* \"#utility.yul\":20319:20333   */\n      gt\n        /* \"#utility.yul\":20347:20348   */\n      0x01\n        /* \"#utility.yul\":20342:20960   */\n      dup2\n      eq\n      tag_431\n      jumpi\n        /* \"#utility.yul\":21004:21005   */\n      0x00\n        /* \"#utility.yul\":21021:21027   */\n      dup5\n        /* \"#utility.yul\":21018:21095   */\n      iszero\n      tag_432\n      jumpi\n        /* \"#utility.yul\":21070:21079   */\n      dup3\n        /* \"#utility.yul\":21065:21068   */\n      dup8\n        /* \"#utility.yul\":21061:21080   */\n      add\n        /* \"#utility.yul\":21055:21081   */\n      mload\n        /* \"#utility.yul\":21046:21081   */\n      swap1\n      pop\n        /* \"#utility.yul\":21018:21095   */\n    tag_432:\n        /* \"#utility.yul\":21121:21188   */\n      tag_433\n        /* \"#utility.yul\":21181:21187   */\n      dup6\n        /* \"#utility.yul\":21174:21179   */\n      dup3\n        /* \"#utility.yul\":21121:21188   */\n      tag_206\n      jump\t// in\n    tag_433:\n        /* \"#utility.yul\":21115:21119   */\n      dup7\n        /* \"#utility.yul\":21108:21189   */\n      sstore\n        /* \"#utility.yul\":20977:21199   */\n      pop\n        /* \"#utility.yul\":20312:21199   */\n      jump(tag_430)\n        /* \"#utility.yul\":20342:20960   */\n    tag_431:\n        /* \"#utility.yul\":20394:20398   */\n      0x1f\n        /* \"#utility.yul\":20390:20399   */\n      not\n        /* \"#utility.yul\":20382:20388   */\n      dup5\n        /* \"#utility.yul\":20378:20400   */\n      and\n        /* \"#utility.yul\":20428:20465   */\n      tag_434\n        /* \"#utility.yul\":20460:20464   */\n      dup7\n        /* \"#utility.yul\":20428:20465   */\n      tag_192\n      jump\t// in\n    tag_434:\n        /* \"#utility.yul\":20487:20488   */\n      0x00\n        /* \"#utility.yul\":20501:20709   */\n    tag_435:\n        /* \"#utility.yul\":20515:20522   */\n      dup3\n        /* \"#utility.yul\":20512:20513   */\n      dup2\n        /* \"#utility.yul\":20509:20523   */\n      lt\n        /* \"#utility.yul\":20501:20709   */\n      iszero\n      tag_437\n      jumpi\n        /* \"#utility.yul\":20594:20603   */\n      dup5\n        /* \"#utility.yul\":20589:20592   */\n      dup10\n        /* \"#utility.yul\":20585:20604   */\n      add\n        /* \"#utility.yul\":20579:20605   */\n      mload\n        /* \"#utility.yul\":20571:20577   */\n      dup3\n        /* \"#utility.yul\":20564:20606   */\n      sstore\n        /* \"#utility.yul\":20645:20646   */\n      0x01\n        /* \"#utility.yul\":20637:20643   */\n      dup3\n        /* \"#utility.yul\":20633:20647   */\n      add\n        /* \"#utility.yul\":20623:20647   */\n      swap2\n      pop\n        /* \"#utility.yul\":20692:20694   */\n      0x20\n        /* \"#utility.yul\":20681:20690   */\n      dup6\n        /* \"#utility.yul\":20677:20695   */\n      add\n        /* \"#utility.yul\":20664:20695   */\n      swap5\n      pop\n        /* \"#utility.yul\":20538:20542   */\n      0x20\n        /* \"#utility.yul\":20535:20536   */\n      dup2\n        /* \"#utility.yul\":20531:20543   */\n      add\n        /* \"#utility.yul\":20526:20543   */\n      swap1\n      pop\n        /* \"#utility.yul\":20501:20709   */\n      jump(tag_435)\n    tag_437:\n        /* \"#utility.yul\":20737:20743   */\n      dup7\n        /* \"#utility.yul\":20728:20735   */\n      dup4\n        /* \"#utility.yul\":20725:20744   */\n      lt\n        /* \"#utility.yul\":20722:20901   */\n      iszero\n      tag_438\n      jumpi\n        /* \"#utility.yul\":20795:20804   */\n      dup5\n        /* \"#utility.yul\":20790:20793   */\n      dup10\n        /* \"#utility.yul\":20786:20805   */\n      add\n        /* \"#utility.yul\":20780:20806   */\n      mload\n        /* \"#utility.yul\":20838:20886   */\n      tag_439\n        /* \"#utility.yul\":20880:20884   */\n      0x1f\n        /* \"#utility.yul\":20872:20878   */\n      dup10\n        /* \"#utility.yul\":20868:20885   */\n      and\n        /* \"#utility.yul\":20857:20866   */\n      dup3\n        /* \"#utility.yul\":20838:20886   */\n      tag_205\n      jump\t// in\n    tag_439:\n        /* \"#utility.yul\":20830:20836   */\n      dup4\n        /* \"#utility.yul\":20823:20887   */\n      sstore\n        /* \"#utility.yul\":20745:20901   */\n      pop\n        /* \"#utility.yul\":20722:20901   */\n    tag_438:\n        /* \"#utility.yul\":20947:20948   */\n      0x01\n        /* \"#utility.yul\":20943:20944   */\n      0x02\n        /* \"#utility.yul\":20935:20941   */\n      dup9\n        /* \"#utility.yul\":20931:20945   */\n      mul\n        /* \"#utility.yul\":20927:20949   */\n      add\n        /* \"#utility.yul\":20921:20925   */\n      dup9\n        /* \"#utility.yul\":20914:20950   */\n      sstore\n        /* \"#utility.yul\":20349:20960   */\n      pop\n      pop\n      pop\n        /* \"#utility.yul\":20312:21199   */\n    tag_430:\n      pop\n        /* \"#utility.yul\":19902:21205   */\n      pop\n      pop\n      pop\n        /* \"#utility.yul\":19810:21205   */\n      pop\n      pop\n      jump\t// out\n        /* \"#utility.yul\":21235:21565   */\n    tag_207:\n        /* \"#utility.yul\":21351:21354   */\n      0x00\n        /* \"#utility.yul\":21372:21461   */\n      tag_441\n        /* \"#utility.yul\":21454:21460   */\n      dup4\n        /* \"#utility.yul\":21449:21452   */\n      dup6\n        /* \"#utility.yul\":21372:21461   */\n      tag_188\n      jump\t// in\n    tag_441:\n        /* \"#utility.yul\":21365:21461   */\n      swap4\n      pop\n        /* \"#utility.yul\":21471:21527   */\n      tag_442\n        /* \"#utility.yul\":21520:21526   */\n      dup4\n        /* \"#utility.yul\":21515:21518   */\n      dup6\n        /* \"#utility.yul\":21508:21513   */\n      dup5\n        /* \"#utility.yul\":21471:21527   */\n      tag_158\n      jump\t// in\n    tag_442:\n        /* \"#utility.yul\":21552:21558   */\n      dup3\n        /* \"#utility.yul\":21547:21550   */\n      dup5\n        /* \"#utility.yul\":21543:21559   */\n      add\n        /* \"#utility.yul\":21536:21559   */\n      swap1\n      pop\n        /* \"#utility.yul\":21235:21565   */\n      swap4\n      swap3\n      pop\n      pop\n      pop\n      jump\t// out\n        /* \"#utility.yul\":21571:21866   */\n    tag_139:\n        /* \"#utility.yul\":21713:21716   */\n      0x00\n        /* \"#utility.yul\":21735:21840   */\n      tag_444\n        /* \"#utility.yul\":21836:21839   */\n      dup3\n        /* \"#utility.yul\":21827:21833   */\n      dup5\n        /* \"#utility.yul\":21819:21825   */\n      dup7\n        /* \"#utility.yul\":21735:21840   */\n      tag_207\n      jump\t// in\n    tag_444:\n        /* \"#utility.yul\":21728:21840   */\n      swap2\n      pop\n        /* \"#utility.yul\":21857:21860   */\n      dup2\n        /* \"#utility.yul\":21850:21860   */\n      swap1\n      pop\n        /* \"#utility.yul\":21571:21866   */\n      swap4\n      swap3\n      pop\n      pop\n      pop\n      jump\t// out\n\n    auxdata: 0xa264697066735822122092ab18022161ab2bbc9428a09ab40884d31514088428b7d862e1ae5c3e9f9d1464736f6c63430008120033\n}\n",
				"bytecode": {
					"linkReferences": {},
					"object": "608060405234801561001057600080fd5b5061179d806100206000396000f3fe608060405234801561001057600080fd5b50600436106100885760003560e01c8063595b1a3e1161005b578063595b1a3e146101295780638058316a14610147578063933856c71461017d578063980ad5191461019957610088565b806306661abd1461008d57806310a688e3146100ab5780631e98fd1c146100db578063369b0d821461010d575b600080fd5b6100956101b5565b6040516100a29190610ba2565b60405180910390f35b6100c560048036038101906100c09190610d17565b6101bb565b6040516100d29190610f49565b60405180910390f35b6100f560048036038101906100f09190610f97565b6103c6565b6040516101049392919061101d565b60405180910390f35b61012760048036038101906101229190611093565b6104a8565b005b61013161067f565b60405161013e9190610ba2565b60405180910390f35b610161600480360381019061015c9190610d17565b61068c565b6040516101749796959493929190611111565b60405180910390f35b610197600480360381019061019291906111ba565b610821565b005b6101b360048036038101906101ae9190611289565b61093f565b005b60015481565b6101c3610b24565b6000826040516101d3919061135a565b90815260200160405180910390206040518060e001604052908160008201548152602001600182018054610206906113a0565b80601f0160208091040260200160405190810160405280929190818152602001828054610232906113a0565b801561027f5780601f106102545761010080835404028352916020019161027f565b820191906000526020600020905b81548152906001019060200180831161026257829003601f168201915b50505050508152602001600282018054610298906113a0565b80601f01602080910402602001604051908101604052809291908181526020018280546102c4906113a0565b80156103115780601f106102e657610100808354040283529160200191610311565b820191906000526020600020905b8154815290600101906020018083116102f457829003601f168201915b505050505081526020016003820160009054906101000a900473ffffffffffffffffffffffffffffffffffffffff1673ffffffffffffffffffffffffffffffffffffffff1673ffffffffffffffffffffffffffffffffffffffff16815260200160048201548152602001600582015481526020016006820160009054906101000a900460ff1660028111156103a9576103a8610e2f565b5b60028111156103bb576103ba610e2f565b5b815250509050919050565b600281815481106103d657600080fd5b90600052602060002090600502016000915090508060000154908060010180546103ff906113a0565b80601f016020809104026020016040519081016040528092919081815260200182805461042b906113a0565b80156104785780601f1061044d57610100808354040283529160200191610478565b820191906000526020600020905b81548152906001019060200180831161045b57829003601f168201915b5050505050908060020160009054906101000a900473ffffffffffffffffffffffffffffffffffffffff16905083565b600060028111156104bc576104bb610e2f565b5b600284815481106104d0576104cf6113d1565b5b9060005260206000209060050201600401836040516104ef919061135a565b908152602001604051809103902060009054906101000a900460ff16600281111561051d5761051c610e2f565b5b1461052757600080fd5b60011515811515036105d957600082604051610543919061135a565b908152602001604051809103902060040160008154809291906105659061142f565b91905055506001600284815481106105805761057f6113d1565b5b90600052602060002090600502016004018360405161059f919061135a565b908152602001604051809103902060006101000a81548160ff021916908360028111156105cf576105ce610e2f565b5b021790555061067a565b6000826040516105e9919061135a565b9081526020016040518091039020600501600081548092919061060b9061142f565b91905055506002808481548110610625576106246113d1565b5b906000526020600020906005020160040183604051610644919061135a565b908152602001604051809103902060006101000a81548160ff0219169083600281111561067457610673610e2f565b5b02179055505b505050565b6000600280549050905090565b6000818051602081018201805184825260208301602085012081835280955050505050506000915090508060000154908060010180546106cb906113a0565b80601f01602080910402602001604051908101604052809291908181526020018280546106f7906113a0565b80156107445780601f1061071957610100808354040283529160200191610744565b820191906000526020600020905b81548152906001019060200180831161072757829003601f168201915b505050505090806002018054610759906113a0565b80601f0160208091040260200160405190810160405280929190818152602001828054610785906113a0565b80156107d25780601f106107a7576101008083540402835291602001916107d2565b820191906000526020600020905b8154815290600101906020018083116107b557829003601f168201915b5050505050908060030160009054906101000a900473ffffffffffffffffffffffffffffffffffffffff16908060040154908060050154908060060160009054906101000a900460ff16905087565b600060026001816001815401808255809150500390600052602060002090600502019050836002600160028054905061085a9190611477565b8154811061086b5761086a6113d1565b5b90600052602060002090600502016000018190555082600260016002805490506108959190611477565b815481106108a6576108a56113d1565b5b906000526020600020906005020160010190816108c39190611657565b5033600260016002805490506108d99190611477565b815481106108ea576108e96113d1565b5b906000526020600020906005020160020160006101000a81548173ffffffffffffffffffffffffffffffffffffffff021916908373ffffffffffffffffffffffffffffffffffffffff16021790555050505050565b6040518060e001604052806001600081546109599061142f565b919050819055815260200186868080601f016020809104026020016040519081016040528093929190818152602001838380828437600081840152601f19601f82011690508083019250505050505050815260200184848080601f016020809104026020016040519081016040528093929190818152602001838380828437600081840152601f19601f8201169050808301925050505050505081526020018273ffffffffffffffffffffffffffffffffffffffff168152602001600081526020016000815260200160006002811115610a3657610a35610e2f565b5b81525060008686604051610a4b92919061174e565b9081526020016040518091039020600082015181600001556020820151816001019081610a789190611657565b506040820151816002019081610a8e9190611657565b5060608201518160030160006101000a81548173ffffffffffffffffffffffffffffffffffffffff021916908373ffffffffffffffffffffffffffffffffffffffff1602179055506080820151816004015560a0820151816005015560c08201518160060160006101000a81548160ff02191690836002811115610b1557610b14610e2f565b5b02179055509050505050505050565b6040518060e00160405280600081526020016060815260200160608152602001600073ffffffffffffffffffffffffffffffffffffffff168152602001600081526020016000815260200160006002811115610b8357610b82610e2f565b5b81525090565b6000819050919050565b610b9c81610b89565b82525050565b6000602082019050610bb76000830184610b93565b92915050565b6000604051905090565b600080fd5b600080fd5b600080fd5b600080fd5b6000601f19601f8301169050919050565b7f4e487b7100000000000000000000000000000000000000000000000000000000600052604160045260246000fd5b610c2482610bdb565b810181811067ffffffffffffffff82111715610c4357610c42610bec565b5b80604052505050565b6000610c56610bbd565b9050610c628282610c1b565b919050565b600067ffffffffffffffff821115610c8257610c81610bec565b5b610c8b82610bdb565b9050602081019050919050565b82818337600083830152505050565b6000610cba610cb584610c67565b610c4c565b905082815260208101848484011115610cd657610cd5610bd6565b5b610ce1848285610c98565b509392505050565b600082601f830112610cfe57610cfd610bd1565b5b8135610d0e848260208601610ca7565b91505092915050565b600060208284031215610d2d57610d2c610bc7565b5b600082013567ffffffffffffffff811115610d4b57610d4a610bcc565b5b610d5784828501610ce9565b91505092915050565b610d6981610b89565b82525050565b600081519050919050565b600082825260208201905092915050565b60005b83811015610da9578082015181840152602081019050610d8e565b60008484015250505050565b6000610dc082610d6f565b610dca8185610d7a565b9350610dda818560208601610d8b565b610de381610bdb565b840191505092915050565b600073ffffffffffffffffffffffffffffffffffffffff82169050919050565b6000610e1982610dee565b9050919050565b610e2981610e0e565b82525050565b7f4e487b7100000000000000000000000000000000000000000000000000000000600052602160045260246000fd5b60038110610e6f57610e6e610e2f565b5b50565b6000819050610e8082610e5e565b919050565b6000610e9082610e72565b9050919050565b610ea081610e85565b82525050565b600060e083016000830151610ebe6000860182610d60565b5060208301518482036020860152610ed68282610db5565b91505060408301518482036040860152610ef08282610db5565b9150506060830151610f056060860182610e20565b506080830151610f186080860182610d60565b5060a0830151610f2b60a0860182610d60565b5060c0830151610f3e60c0860182610e97565b508091505092915050565b60006020820190508181036000830152610f638184610ea6565b905092915050565b610f7481610b89565b8114610f7f57600080fd5b50565b600081359050610f9181610f6b565b92915050565b600060208284031215610fad57610fac610bc7565b5b6000610fbb84828501610f82565b91505092915050565b600082825260208201905092915050565b6000610fe082610d6f565b610fea8185610fc4565b9350610ffa818560208601610d8b565b61100381610bdb565b840191505092915050565b61101781610e0e565b82525050565b60006060820190506110326000830186610b93565b81810360208301526110448185610fd5565b9050611053604083018461100e565b949350505050565b60008115159050919050565b6110708161105b565b811461107b57600080fd5b50565b60008135905061108d81611067565b92915050565b6000806000606084860312156110ac576110ab610bc7565b5b60006110ba86828701610f82565b935050602084013567ffffffffffffffff8111156110db576110da610bcc565b5b6110e786828701610ce9565b92505060406110f88682870161107e565b9150509250925092565b61110b81610e85565b82525050565b600060e082019050611126600083018a610b93565b81810360208301526111388189610fd5565b9050818103604083015261114c8188610fd5565b905061115b606083018761100e565b6111686080830186610b93565b61117560a0830185610b93565b61118260c0830184611102565b98975050505050505050565b61119781610e0e565b81146111a257600080fd5b50565b6000813590506111b48161118e565b92915050565b6000806000606084860312156111d3576111d2610bc7565b5b60006111e186828701610f82565b935050602084013567ffffffffffffffff81111561120257611201610bcc565b5b61120e86828701610ce9565b925050604061121f868287016111a5565b9150509250925092565b600080fd5b600080fd5b60008083601f84011261124957611248610bd1565b5b8235905067ffffffffffffffff81111561126657611265611229565b5b6020830191508360018202830111156112825761128161122e565b5b9250929050565b6000806000806000606086880312156112a5576112a4610bc7565b5b600086013567ffffffffffffffff8111156112c3576112c2610bcc565b5b6112cf88828901611233565b9550955050602086013567ffffffffffffffff8111156112f2576112f1610bcc565b5b6112fe88828901611233565b93509350506040611311888289016111a5565b9150509295509295909350565b600081905092915050565b600061133482610d6f565b61133e818561131e565b935061134e818560208601610d8b565b80840191505092915050565b60006113668284611329565b915081905092915050565b7f4e487b7100000000000000000000000000000000000000000000000000000000600052602260045260246000fd5b600060028204905060018216806113b857607f821691505b6020821081036113cb576113ca611371565b5b50919050565b7f4e487b7100000000000000000000000000000000000000000000000000000000600052603260045260246000fd5b7f4e487b7100000000000000000000000000000000000000000000000000000000600052601160045260246000fd5b600061143a82610b89565b91507fffffffffffffffffffffffffffffffffffffffffffffffffffffffffffffffff820361146c5761146b611400565b5b600182019050919050565b600061148282610b89565b915061148d83610b89565b92508282039050818111156114a5576114a4611400565b5b92915050565b60008190508160005260206000209050919050565b60006020601f8301049050919050565b600082821b905092915050565b60006008830261150d7fffffffffffffffffffffffffffffffffffffffffffffffffffffffffffffffff826114d0565b61151786836114d0565b95508019841693508086168417925050509392505050565b6000819050919050565b600061155461154f61154a84610b89565b61152f565b610b89565b9050919050565b6000819050919050565b61156e83611539565b61158261157a8261155b565b8484546114dd565b825550505050565b600090565b61159761158a565b6115a2818484611565565b505050565b5b818110156115c6576115bb60008261158f565b6001810190506115a8565b5050565b601f82111561160b576115dc816114ab565b6115e5846114c0565b810160208510156115f4578190505b611608611600856114c0565b8301826115a7565b50505b505050565b600082821c905092915050565b600061162e60001984600802611610565b1980831691505092915050565b6000611647838361161d565b9150826002028217905092915050565b61166082610d6f565b67ffffffffffffffff81111561167957611678610bec565b5b61168382546113a0565b61168e8282856115ca565b600060209050601f8311600181146116c157600084156116af578287015190505b6116b9858261163b565b865550611721565b601f1984166116cf866114ab565b60005b828110156116f7578489015182556001820191506020850194506020810190506116d2565b868310156117145784890151611710601f89168261161d565b8355505b6001600288020188555050505b505050505050565b6000611735838561131e565b9350611742838584610c98565b82840190509392505050565b600061175b828486611729565b9150819050939250505056fea264697066735822122092ab18022161ab2bbc9428a09ab40884d31514088428b7d862e1ae5c3e9f9d1464736f6c63430008120033",
					"opcodes": "PUSH1 0x80 PUSH1 0x40 MSTORE CALLVALUE DUP1 ISZERO PUSH2 0x10 JUMPI PUSH1 0x0 DUP1 REVERT JUMPDEST POP PUSH2 0x179D DUP1 PUSH2 0x20 PUSH1 0x0 CODECOPY PUSH1 0x0 RETURN INVALID PUSH1 0x80 PUSH1 0x40 MSTORE CALLVALUE DUP1 ISZERO PUSH2 0x10 JUMPI PUSH1 0x0 DUP1 REVERT JUMPDEST POP PUSH1 0x4 CALLDATASIZE LT PUSH2 0x88 JUMPI PUSH1 0x0 CALLDATALOAD PUSH1 0xE0 SHR DUP1 PUSH4 0x595B1A3E GT PUSH2 0x5B JUMPI DUP1 PUSH4 0x595B1A3E EQ PUSH2 0x129 JUMPI DUP1 PUSH4 0x8058316A EQ PUSH2 0x147 JUMPI DUP1 PUSH4 0x933856C7 EQ PUSH2 0x17D JUMPI DUP1 PUSH4 0x980AD519 EQ PUSH2 0x199 JUMPI PUSH2 0x88 JUMP JUMPDEST DUP1 PUSH4 0x6661ABD EQ PUSH2 0x8D JUMPI DUP1 PUSH4 0x10A688E3 EQ PUSH2 0xAB JUMPI DUP1 PUSH4 0x1E98FD1C EQ PUSH2 0xDB JUMPI DUP1 PUSH4 0x369B0D82 EQ PUSH2 0x10D JUMPI JUMPDEST PUSH1 0x0 DUP1 REVERT JUMPDEST PUSH2 0x95 PUSH2 0x1B5 JUMP JUMPDEST PUSH1 0x40 MLOAD PUSH2 0xA2 SWAP2 SWAP1 PUSH2 0xBA2 JUMP JUMPDEST PUSH1 0x40 MLOAD DUP1 SWAP2 SUB SWAP1 RETURN JUMPDEST PUSH2 0xC5 PUSH1 0x4 DUP1 CALLDATASIZE SUB DUP2 ADD SWAP1 PUSH2 0xC0 SWAP2 SWAP1 PUSH2 0xD17 JUMP JUMPDEST PUSH2 0x1BB JUMP JUMPDEST PUSH1 0x40 MLOAD PUSH2 0xD2 SWAP2 SWAP1 PUSH2 0xF49 JUMP JUMPDEST PUSH1 0x40 MLOAD DUP1 SWAP2 SUB SWAP1 RETURN JUMPDEST PUSH2 0xF5 PUSH1 0x4 DUP1 CALLDATASIZE SUB DUP2 ADD SWAP1 PUSH2 0xF0 SWAP2 SWAP1 PUSH2 0xF97 JUMP JUMPDEST PUSH2 0x3C6 JUMP JUMPDEST PUSH1 0x40 MLOAD PUSH2 0x104 SWAP4 SWAP3 SWAP2 SWAP1 PUSH2 0x101D JUMP JUMPDEST PUSH1 0x40 MLOAD DUP1 SWAP2 SUB SWAP1 RETURN JUMPDEST PUSH2 0x127 PUSH1 0x4 DUP1 CALLDATASIZE SUB DUP2 ADD SWAP1 PUSH2 0x122 SWAP2 SWAP1 PUSH2 0x1093 JUMP JUMPDEST PUSH2 0x4A8 JUMP JUMPDEST STOP JUMPDEST PUSH2 0x131 PUSH2 0x67F JUMP JUMPDEST PUSH1 0x40 MLOAD PUSH2 0x13E SWAP2 SWAP1 PUSH2 0xBA2 JUMP JUMPDEST PUSH1 0x40 MLOAD DUP1 SWAP2 SUB SWAP1 RETURN JUMPDEST PUSH2 0x161 PUSH1 0x4 DUP1 CALLDATASIZE SUB DUP2 ADD SWAP1 PUSH2 0x15C SWAP2 SWAP1 PUSH2 0xD17 JUMP JUMPDEST PUSH2 0x68C JUMP JUMPDEST PUSH1 0x40 MLOAD PUSH2 0x174 SWAP8 SWAP7 SWAP6 SWAP5 SWAP4 SWAP3 SWAP2 SWAP1 PUSH2 0x1111 JUMP JUMPDEST PUSH1 0x40 MLOAD DUP1 SWAP2 SUB SWAP1 RETURN JUMPDEST PUSH2 0x197 PUSH1 0x4 DUP1 CALLDATASIZE SUB DUP2 ADD SWAP1 PUSH2 0x192 SWAP2 SWAP1 PUSH2 0x11BA JUMP JUMPDEST PUSH2 0x821 JUMP JUMPDEST STOP JUMPDEST PUSH2 0x1B3 PUSH1 0x4 DUP1 CALLDATASIZE SUB DUP2 ADD SWAP1 PUSH2 0x1AE SWAP2 SWAP1 PUSH2 0x1289 JUMP JUMPDEST PUSH2 0x93F JUMP JUMPDEST STOP JUMPDEST PUSH1 0x1 SLOAD DUP2 JUMP JUMPDEST PUSH2 0x1C3 PUSH2 0xB24 JUMP JUMPDEST PUSH1 0x0 DUP3 PUSH1 0x40 MLOAD PUSH2 0x1D3 SWAP2 SWAP1 PUSH2 0x135A JUMP JUMPDEST SWAP1 DUP2 MSTORE PUSH1 0x20 ADD PUSH1 0x40 MLOAD DUP1 SWAP2 SUB SWAP1 KECCAK256 PUSH1 0x40 MLOAD DUP1 PUSH1 0xE0 ADD PUSH1 0x40 MSTORE SWAP1 DUP2 PUSH1 0x0 DUP3 ADD SLOAD DUP2 MSTORE PUSH1 0x20 ADD PUSH1 0x1 DUP3 ADD DUP1 SLOAD PUSH2 0x206 SWAP1 PUSH2 0x13A0 JUMP JUMPDEST DUP1 PUSH1 0x1F ADD PUSH1 0x20 DUP1 SWAP2 DIV MUL PUSH1 0x20 ADD PUSH1 0x40 MLOAD SWAP1 DUP2 ADD PUSH1 0x40 MSTORE DUP1 SWAP3 SWAP2 SWAP1 DUP2 DUP2 MSTORE PUSH1 0x20 ADD DUP3 DUP1 SLOAD PUSH2 0x232 SWAP1 PUSH2 0x13A0 JUMP JUMPDEST DUP1 ISZERO PUSH2 0x27F JUMPI DUP1 PUSH1 0x1F LT PUSH2 0x254 JUMPI PUSH2 0x100 DUP1 DUP4 SLOAD DIV MUL DUP4 MSTORE SWAP2 PUSH1 0x20 ADD SWAP2 PUSH2 0x27F JUMP JUMPDEST DUP3 ADD SWAP2 SWAP1 PUSH1 0x0 MSTORE PUSH1 0x20 PUSH1 0x0 KECCAK256 SWAP1 JUMPDEST DUP2 SLOAD DUP2 MSTORE SWAP1 PUSH1 0x1 ADD SWAP1 PUSH1 0x20 ADD DUP1 DUP4 GT PUSH2 0x262 JUMPI DUP3 SWAP1 SUB PUSH1 0x1F AND DUP3 ADD SWAP2 JUMPDEST POP POP POP POP POP DUP2 MSTORE PUSH1 0x20 ADD PUSH1 0x2 DUP3 ADD DUP1 SLOAD PUSH2 0x298 SWAP1 PUSH2 0x13A0 JUMP JUMPDEST DUP1 PUSH1 0x1F ADD PUSH1 0x20 DUP1 SWAP2 DIV MUL PUSH1 0x20 ADD PUSH1 0x40 MLOAD SWAP1 DUP2 ADD PUSH1 0x40 MSTORE DUP1 SWAP3 SWAP2 SWAP1 DUP2 DUP2 MSTORE PUSH1 0x20 ADD DUP3 DUP1 SLOAD PUSH2 0x2C4 SWAP1 PUSH2 0x13A0 JUMP JUMPDEST DUP1 ISZERO PUSH2 0x311 JUMPI DUP1 PUSH1 0x1F LT PUSH2 0x2E6 JUMPI PUSH2 0x100 DUP1 DUP4 SLOAD DIV MUL DUP4 MSTORE SWAP2 PUSH1 0x20 ADD SWAP2 PUSH2 0x311 JUMP JUMPDEST DUP3 ADD SWAP2 SWAP1 PUSH1 0x0 MSTORE PUSH1 0x20 PUSH1 0x0 KECCAK256 SWAP1 JUMPDEST DUP2 SLOAD DUP2 MSTORE SWAP1 PUSH1 0x1 ADD SWAP1 PUSH1 0x20 ADD DUP1 DUP4 GT PUSH2 0x2F4 JUMPI DUP3 SWAP1 SUB PUSH1 0x1F AND DUP3 ADD SWAP2 JUMPDEST POP POP POP POP POP DUP2 MSTORE PUSH1 0x20 ADD PUSH1 0x3 DUP3 ADD PUSH1 0x0 SWAP1 SLOAD SWAP1 PUSH2 0x100 EXP SWAP1 DIV PUSH20 0xFFFFFFFFFFFFFFFFFFFFFFFFFFFFFFFFFFFFFFFF AND PUSH20 0xFFFFFFFFFFFFFFFFFFFFFFFFFFFFFFFFFFFFFFFF AND PUSH20 0xFFFFFFFFFFFFFFFFFFFFFFFFFFFFFFFFFFFFFFFF AND DUP2 MSTORE PUSH1 0x20 ADD PUSH1 0x4 DUP3 ADD SLOAD DUP2 MSTORE PUSH1 0x20 ADD PUSH1 0x5 DUP3 ADD SLOAD DUP2 MSTORE PUSH1 0x20 ADD PUSH1 0x6 DUP3 ADD PUSH1 0x0 SWAP1 SLOAD SWAP1 PUSH2 0x100 EXP SWAP1 DIV PUSH1 0xFF AND PUSH1 0x2 DUP2 GT ISZERO PUSH2 0x3A9 JUMPI PUSH2 0x3A8 PUSH2 0xE2F JUMP JUMPDEST JUMPDEST PUSH1 0x2 DUP2 GT ISZERO PUSH2 0x3BB JUMPI PUSH2 0x3BA PUSH2 0xE2F JUMP JUMPDEST JUMPDEST DUP2 MSTORE POP POP SWAP1 POP SWAP2 SWAP1 POP JUMP JUMPDEST PUSH1 0x2 DUP2 DUP2 SLOAD DUP2 LT PUSH2 0x3D6 JUMPI PUSH1 0x0 DUP1 REVERT JUMPDEST SWAP1 PUSH1 0x0 MSTORE PUSH1 0x20 PUSH1 0x0 KECCAK256 SWAP1 PUSH1 0x5 MUL ADD PUSH1 0x0 SWAP2 POP SWAP1 POP DUP1 PUSH1 0x0 ADD SLOAD SWAP1 DUP1 PUSH1 0x1 ADD DUP1 SLOAD PUSH2 0x3FF SWAP1 PUSH2 0x13A0 JUMP JUMPDEST DUP1 PUSH1 0x1F ADD PUSH1 0x20 DUP1 SWAP2 DIV MUL PUSH1 0x20 ADD PUSH1 0x40 MLOAD SWAP1 DUP2 ADD PUSH1 0x40 MSTORE DUP1 SWAP3 SWAP2 SWAP1 DUP2 DUP2 MSTORE PUSH1 0x20 ADD DUP3 DUP1 SLOAD PUSH2 0x42B SWAP1 PUSH2 0x13A0 JUMP JUMPDEST DUP1 ISZERO PUSH2 0x478 JUMPI DUP1 PUSH1 0x1F LT PUSH2 0x44D JUMPI PUSH2 0x100 DUP1 DUP4 SLOAD DIV MUL DUP4 MSTORE SWAP2 PUSH1 0x20 ADD SWAP2 PUSH2 0x478 JUMP JUMPDEST DUP3 ADD SWAP2 SWAP1 PUSH1 0x0 MSTORE PUSH1 0x20 PUSH1 0x0 KECCAK256 SWAP1 JUMPDEST DUP2 SLOAD DUP2 MSTORE SWAP1 PUSH1 0x1 ADD SWAP1 PUSH1 0x20 ADD DUP1 DUP4 GT PUSH2 0x45B JUMPI DUP3 SWAP1 SUB PUSH1 0x1F AND DUP3 ADD SWAP2 JUMPDEST POP POP POP POP POP SWAP1 DUP1 PUSH1 0x2 ADD PUSH1 0x0 SWAP1 SLOAD SWAP1 PUSH2 0x100 EXP SWAP1 DIV PUSH20 0xFFFFFFFFFFFFFFFFFFFFFFFFFFFFFFFFFFFFFFFF AND SWAP1 POP DUP4 JUMP JUMPDEST PUSH1 0x0 PUSH1 0x2 DUP2 GT ISZERO PUSH2 0x4BC JUMPI PUSH2 0x4BB PUSH2 0xE2F JUMP JUMPDEST JUMPDEST PUSH1 0x2 DUP5 DUP2 SLOAD DUP2 LT PUSH2 0x4D0 JUMPI PUSH2 0x4CF PUSH2 0x13D1 JUMP JUMPDEST JUMPDEST SWAP1 PUSH1 0x0 MSTORE PUSH1 0x20 PUSH1 0x0 KECCAK256 SWAP1 PUSH1 0x5 MUL ADD PUSH1 0x4 ADD DUP4 PUSH1 0x40 MLOAD PUSH2 0x4EF SWAP2 SWAP1 PUSH2 0x135A JUMP JUMPDEST SWAP1 DUP2 MSTORE PUSH1 0x20 ADD PUSH1 0x40 MLOAD DUP1 SWAP2 SUB SWAP1 KECCAK256 PUSH1 0x0 SWAP1 SLOAD SWAP1 PUSH2 0x100 EXP SWAP1 DIV PUSH1 0xFF AND PUSH1 0x2 DUP2 GT ISZERO PUSH2 0x51D JUMPI PUSH2 0x51C PUSH2 0xE2F JUMP JUMPDEST JUMPDEST EQ PUSH2 0x527 JUMPI PUSH1 0x0 DUP1 REVERT JUMPDEST PUSH1 0x1 ISZERO ISZERO DUP2 ISZERO ISZERO SUB PUSH2 0x5D9 JUMPI PUSH1 0x0 DUP3 PUSH1 0x40 MLOAD PUSH2 0x543 SWAP2 SWAP1 PUSH2 0x135A JUMP JUMPDEST SWAP1 DUP2 MSTORE PUSH1 0x20 ADD PUSH1 0x40 MLOAD DUP1 SWAP2 SUB SWAP1 KECCAK256 PUSH1 0x4 ADD PUSH1 0x0 DUP2 SLOAD DUP1 SWAP3 SWAP2 SWAP1 PUSH2 0x565 SWAP1 PUSH2 0x142F JUMP JUMPDEST SWAP2 SWAP1 POP SSTORE POP PUSH1 0x1 PUSH1 0x2 DUP5 DUP2 SLOAD DUP2 LT PUSH2 0x580 JUMPI PUSH2 0x57F PUSH2 0x13D1 JUMP JUMPDEST JUMPDEST SWAP1 PUSH1 0x0 MSTORE PUSH1 0x20 PUSH1 0x0 KECCAK256 SWAP1 PUSH1 0x5 MUL ADD PUSH1 0x4 ADD DUP4 PUSH1 0x40 MLOAD PUSH2 0x59F SWAP2 SWAP1 PUSH2 0x135A JUMP JUMPDEST SWAP1 DUP2 MSTORE PUSH1 0x20 ADD PUSH1 0x40 MLOAD DUP1 SWAP2 SUB SWAP1 KECCAK256 PUSH1 0x0 PUSH2 0x100 EXP DUP2 SLOAD DUP2 PUSH1 0xFF MUL NOT AND SWAP1 DUP4 PUSH1 0x2 DUP2 GT ISZERO PUSH2 0x5CF JUMPI PUSH2 0x5CE PUSH2 0xE2F JUMP JUMPDEST JUMPDEST MUL OR SWAP1 SSTORE POP PUSH2 0x67A JUMP JUMPDEST PUSH1 0x0 DUP3 PUSH1 0x40 MLOAD PUSH2 0x5E9 SWAP2 SWAP1 PUSH2 0x135A JUMP JUMPDEST SWAP1 DUP2 MSTORE PUSH1 0x20 ADD PUSH1 0x40 MLOAD DUP1 SWAP2 SUB SWAP1 KECCAK256 PUSH1 0x5 ADD PUSH1 0x0 DUP2 SLOAD DUP1 SWAP3 SWAP2 SWAP1 PUSH2 0x60B SWAP1 PUSH2 0x142F JUMP JUMPDEST SWAP2 SWAP1 POP SSTORE POP PUSH1 0x2 DUP1 DUP5 DUP2 SLOAD DUP2 LT PUSH2 0x625 JUMPI PUSH2 0x624 PUSH2 0x13D1 JUMP JUMPDEST JUMPDEST SWAP1 PUSH1 0x0 MSTORE PUSH1 0x20 PUSH1 0x0 KECCAK256 SWAP1 PUSH1 0x5 MUL ADD PUSH1 0x4 ADD DUP4 PUSH1 0x40 MLOAD PUSH2 0x644 SWAP2 SWAP1 PUSH2 0x135A JUMP JUMPDEST SWAP1 DUP2 MSTORE PUSH1 0x20 ADD PUSH1 0x40 MLOAD DUP1 SWAP2 SUB SWAP1 KECCAK256 PUSH1 0x0 PUSH2 0x100 EXP DUP2 SLOAD DUP2 PUSH1 0xFF MUL NOT AND SWAP1 DUP4 PUSH1 0x2 DUP2 GT ISZERO PUSH2 0x674 JUMPI PUSH2 0x673 PUSH2 0xE2F JUMP JUMPDEST JUMPDEST MUL OR SWAP1 SSTORE POP JUMPDEST POP POP POP JUMP JUMPDEST PUSH1 0x0 PUSH1 0x2 DUP1 SLOAD SWAP1 POP SWAP1 POP SWAP1 JUMP JUMPDEST PUSH1 0x0 DUP2 DUP1 MLOAD PUSH1 0x20 DUP2 ADD DUP3 ADD DUP1 MLOAD DUP5 DUP3 MSTORE PUSH1 0x20 DUP4 ADD PUSH1 0x20 DUP6 ADD KECCAK256 DUP2 DUP4 MSTORE DUP1 SWAP6 POP POP POP POP POP POP PUSH1 0x0 SWAP2 POP SWAP1 POP DUP1 PUSH1 0x0 ADD SLOAD SWAP1 DUP1 PUSH1 0x1 ADD DUP1 SLOAD PUSH2 0x6CB SWAP1 PUSH2 0x13A0 JUMP JUMPDEST DUP1 PUSH1 0x1F ADD PUSH1 0x20 DUP1 SWAP2 DIV MUL PUSH1 0x20 ADD PUSH1 0x40 MLOAD SWAP1 DUP2 ADD PUSH1 0x40 MSTORE DUP1 SWAP3 SWAP2 SWAP1 DUP2 DUP2 MSTORE PUSH1 0x20 ADD DUP3 DUP1 SLOAD PUSH2 0x6F7 SWAP1 PUSH2 0x13A0 JUMP JUMPDEST DUP1 ISZERO PUSH2 0x744 JUMPI DUP1 PUSH1 0x1F LT PUSH2 0x719 JUMPI PUSH2 0x100 DUP1 DUP4 SLOAD DIV MUL DUP4 MSTORE SWAP2 PUSH1 0x20 ADD SWAP2 PUSH2 0x744 JUMP JUMPDEST DUP3 ADD SWAP2 SWAP1 PUSH1 0x0 MSTORE PUSH1 0x20 PUSH1 0x0 KECCAK256 SWAP1 JUMPDEST DUP2 SLOAD DUP2 MSTORE SWAP1 PUSH1 0x1 ADD SWAP1 PUSH1 0x20 ADD DUP1 DUP4 GT PUSH2 0x727 JUMPI DUP3 SWAP1 SUB PUSH1 0x1F AND DUP3 ADD SWAP2 JUMPDEST POP POP POP POP POP SWAP1 DUP1 PUSH1 0x2 ADD DUP1 SLOAD PUSH2 0x759 SWAP1 PUSH2 0x13A0 JUMP JUMPDEST DUP1 PUSH1 0x1F ADD PUSH1 0x20 DUP1 SWAP2 DIV MUL PUSH1 0x20 ADD PUSH1 0x40 MLOAD SWAP1 DUP2 ADD PUSH1 0x40 MSTORE DUP1 SWAP3 SWAP2 SWAP1 DUP2 DUP2 MSTORE PUSH1 0x20 ADD DUP3 DUP1 SLOAD PUSH2 0x785 SWAP1 PUSH2 0x13A0 JUMP JUMPDEST DUP1 ISZERO PUSH2 0x7D2 JUMPI DUP1 PUSH1 0x1F LT PUSH2 0x7A7 JUMPI PUSH2 0x100 DUP1 DUP4 SLOAD DIV MUL DUP4 MSTORE SWAP2 PUSH1 0x20 ADD SWAP2 PUSH2 0x7D2 JUMP JUMPDEST DUP3 ADD SWAP2 SWAP1 PUSH1 0x0 MSTORE PUSH1 0x20 PUSH1 0x0 KECCAK256 SWAP1 JUMPDEST DUP2 SLOAD DUP2 MSTORE SWAP1 PUSH1 0x1 ADD SWAP1 PUSH1 0x20 ADD DUP1 DUP4 GT PUSH2 0x7B5 JUMPI DUP3 SWAP1 SUB PUSH1 0x1F AND DUP3 ADD SWAP2 JUMPDEST POP POP POP POP POP SWAP1 DUP1 PUSH1 0x3 ADD PUSH1 0x0 SWAP1 SLOAD SWAP1 PUSH2 0x100 EXP SWAP1 DIV PUSH20 0xFFFFFFFFFFFFFFFFFFFFFFFFFFFFFFFFFFFFFFFF AND SWAP1 DUP1 PUSH1 0x4 ADD SLOAD SWAP1 DUP1 PUSH1 0x5 ADD SLOAD SWAP1 DUP1 PUSH1 0x6 ADD PUSH1 0x0 SWAP1 SLOAD SWAP1 PUSH2 0x100 EXP SWAP1 DIV PUSH1 0xFF AND SWAP1 POP DUP8 JUMP JUMPDEST PUSH1 0x0 PUSH1 0x2 PUSH1 0x1 DUP2 PUSH1 0x1 DUP2 SLOAD ADD DUP1 DUP3 SSTORE DUP1 SWAP2 POP POP SUB SWAP1 PUSH1 0x0 MSTORE PUSH1 0x20 PUSH1 0x0 KECCAK256 SWAP1 PUSH1 0x5 MUL ADD SWAP1 POP DUP4 PUSH1 0x2 PUSH1 0x1 PUSH1 0x2 DUP1 SLOAD SWAP1 POP PUSH2 0x85A SWAP2 SWAP1 PUSH2 0x1477 JUMP JUMPDEST DUP2 SLOAD DUP2 LT PUSH2 0x86B JUMPI PUSH2 0x86A PUSH2 0x13D1 JUMP JUMPDEST JUMPDEST SWAP1 PUSH1 0x0 MSTORE PUSH1 0x20 PUSH1 0x0 KECCAK256 SWAP1 PUSH1 0x5 MUL ADD PUSH1 0x0 ADD DUP2 SWAP1 SSTORE POP DUP3 PUSH1 0x2 PUSH1 0x1 PUSH1 0x2 DUP1 SLOAD SWAP1 POP PUSH2 0x895 SWAP2 SWAP1 PUSH2 0x1477 JUMP JUMPDEST DUP2 SLOAD DUP2 LT PUSH2 0x8A6 JUMPI PUSH2 0x8A5 PUSH2 0x13D1 JUMP JUMPDEST JUMPDEST SWAP1 PUSH1 0x0 MSTORE PUSH1 0x20 PUSH1 0x0 KECCAK256 SWAP1 PUSH1 0x5 MUL ADD PUSH1 0x1 ADD SWAP1 DUP2 PUSH2 0x8C3 SWAP2 SWAP1 PUSH2 0x1657 JUMP JUMPDEST POP CALLER PUSH1 0x2 PUSH1 0x1 PUSH1 0x2 DUP1 SLOAD SWAP1 POP PUSH2 0x8D9 SWAP2 SWAP1 PUSH2 0x1477 JUMP JUMPDEST DUP2 SLOAD DUP2 LT PUSH2 0x8EA JUMPI PUSH2 0x8E9 PUSH2 0x13D1 JUMP JUMPDEST JUMPDEST SWAP1 PUSH1 0x0 MSTORE PUSH1 0x20 PUSH1 0x0 KECCAK256 SWAP1 PUSH1 0x5 MUL ADD PUSH1 0x2 ADD PUSH1 0x0 PUSH2 0x100 EXP DUP2 SLOAD DUP2 PUSH20 0xFFFFFFFFFFFFFFFFFFFFFFFFFFFFFFFFFFFFFFFF MUL NOT AND SWAP1 DUP4 PUSH20 0xFFFFFFFFFFFFFFFFFFFFFFFFFFFFFFFFFFFFFFFF AND MUL OR SWAP1 SSTORE POP POP POP POP POP JUMP JUMPDEST PUSH1 0x40 MLOAD DUP1 PUSH1 0xE0 ADD PUSH1 0x40 MSTORE DUP1 PUSH1 0x1 PUSH1 0x0 DUP2 SLOAD PUSH2 0x959 SWAP1 PUSH2 0x142F JUMP JUMPDEST SWAP2 SWAP1 POP DUP2 SWAP1 SSTORE DUP2 MSTORE PUSH1 0x20 ADD DUP7 DUP7 DUP1 DUP1 PUSH1 0x1F ADD PUSH1 0x20 DUP1 SWAP2 DIV MUL PUSH1 0x20 ADD PUSH1 0x40 MLOAD SWAP1 DUP2 ADD PUSH1 0x40 MSTORE DUP1 SWAP4 SWAP3 SWAP2 SWAP1 DUP2 DUP2 MSTORE PUSH1 0x20 ADD DUP4 DUP4 DUP1 DUP3 DUP5 CALLDATACOPY PUSH1 0x0 DUP2 DUP5 ADD MSTORE PUSH1 0x1F NOT PUSH1 0x1F DUP3 ADD AND SWAP1 POP DUP1 DUP4 ADD SWAP3 POP POP POP POP POP POP POP DUP2 MSTORE PUSH1 0x20 ADD DUP5 DUP5 DUP1 DUP1 PUSH1 0x1F ADD PUSH1 0x20 DUP1 SWAP2 DIV MUL PUSH1 0x20 ADD PUSH1 0x40 MLOAD SWAP1 DUP2 ADD PUSH1 0x40 MSTORE DUP1 SWAP4 SWAP3 SWAP2 SWAP1 DUP2 DUP2 MSTORE PUSH1 0x20 ADD DUP4 DUP4 DUP1 DUP3 DUP5 CALLDATACOPY PUSH1 0x0 DUP2 DUP5 ADD MSTORE PUSH1 0x1F NOT PUSH1 0x1F DUP3 ADD AND SWAP1 POP DUP1 DUP4 ADD SWAP3 POP POP POP POP POP POP POP DUP2 MSTORE PUSH1 0x20 ADD DUP3 PUSH20 0xFFFFFFFFFFFFFFFFFFFFFFFFFFFFFFFFFFFFFFFF AND DUP2 MSTORE PUSH1 0x20 ADD PUSH1 0x0 DUP2 MSTORE PUSH1 0x20 ADD PUSH1 0x0 DUP2 MSTORE PUSH1 0x20 ADD PUSH1 0x0 PUSH1 0x2 DUP2 GT ISZERO PUSH2 0xA36 JUMPI PUSH2 0xA35 PUSH2 0xE2F JUMP JUMPDEST JUMPDEST DUP2 MSTORE POP PUSH1 0x0 DUP7 DUP7 PUSH1 0x40 MLOAD PUSH2 0xA4B SWAP3 SWAP2 SWAP1 PUSH2 0x174E JUMP JUMPDEST SWAP1 DUP2 MSTORE PUSH1 0x20 ADD PUSH1 0x40 MLOAD DUP1 SWAP2 SUB SWAP1 KECCAK256 PUSH1 0x0 DUP3 ADD MLOAD DUP2 PUSH1 0x0 ADD SSTORE PUSH1 0x20 DUP3 ADD MLOAD DUP2 PUSH1 0x1 ADD SWAP1 DUP2 PUSH2 0xA78 SWAP2 SWAP1 PUSH2 0x1657 JUMP JUMPDEST POP PUSH1 0x40 DUP3 ADD MLOAD DUP2 PUSH1 0x2 ADD SWAP1 DUP2 PUSH2 0xA8E SWAP2 SWAP1 PUSH2 0x1657 JUMP JUMPDEST POP PUSH1 0x60 DUP3 ADD MLOAD DUP2 PUSH1 0x3 ADD PUSH1 0x0 PUSH2 0x100 EXP DUP2 SLOAD DUP2 PUSH20 0xFFFFFFFFFFFFFFFFFFFFFFFFFFFFFFFFFFFFFFFF MUL NOT AND SWAP1 DUP4 PUSH20 0xFFFFFFFFFFFFFFFFFFFFFFFFFFFFFFFFFFFFFFFF AND MUL OR SWAP1 SSTORE POP PUSH1 0x80 DUP3 ADD MLOAD DUP2 PUSH1 0x4 ADD SSTORE PUSH1 0xA0 DUP3 ADD MLOAD DUP2 PUSH1 0x5 ADD SSTORE PUSH1 0xC0 DUP3 ADD MLOAD DUP2 PUSH1 0x6 ADD PUSH1 0x0 PUSH2 0x100 EXP DUP2 SLOAD DUP2 PUSH1 0xFF MUL NOT AND SWAP1 DUP4 PUSH1 0x2 DUP2 GT ISZERO PUSH2 0xB15 JUMPI PUSH2 0xB14 PUSH2 0xE2F JUMP JUMPDEST JUMPDEST MUL OR SWAP1 SSTORE POP SWAP1 POP POP POP POP POP POP POP JUMP JUMPDEST PUSH1 0x40 MLOAD DUP1 PUSH1 0xE0 ADD PUSH1 0x40 MSTORE DUP1 PUSH1 0x0 DUP2 MSTORE PUSH1 0x20 ADD PUSH1 0x60 DUP2 MSTORE PUSH1 0x20 ADD PUSH1 0x60 DUP2 MSTORE PUSH1 0x20 ADD PUSH1 0x0 PUSH20 0xFFFFFFFFFFFFFFFFFFFFFFFFFFFFFFFFFFFFFFFF AND DUP2 MSTORE PUSH1 0x20 ADD PUSH1 0x0 DUP2 MSTORE PUSH1 0x20 ADD PUSH1 0x0 DUP2 MSTORE PUSH1 0x20 ADD PUSH1 0x0 PUSH1 0x2 DUP2 GT ISZERO PUSH2 0xB83 JUMPI PUSH2 0xB82 PUSH2 0xE2F JUMP JUMPDEST JUMPDEST DUP2 MSTORE POP SWAP1 JUMP JUMPDEST PUSH1 0x0 DUP2 SWAP1 POP SWAP2 SWAP1 POP JUMP JUMPDEST PUSH2 0xB9C DUP2 PUSH2 0xB89 JUMP JUMPDEST DUP3 MSTORE POP POP JUMP JUMPDEST PUSH1 0x0 PUSH1 0x20 DUP3 ADD SWAP1 POP PUSH2 0xBB7 PUSH1 0x0 DUP4 ADD DUP5 PUSH2 0xB93 JUMP JUMPDEST SWAP3 SWAP2 POP POP JUMP JUMPDEST PUSH1 0x0 PUSH1 0x40 MLOAD SWAP1 POP SWAP1 JUMP JUMPDEST PUSH1 0x0 DUP1 REVERT JUMPDEST PUSH1 0x0 DUP1 REVERT JUMPDEST PUSH1 0x0 DUP1 REVERT JUMPDEST PUSH1 0x0 DUP1 REVERT JUMPDEST PUSH1 0x0 PUSH1 0x1F NOT PUSH1 0x1F DUP4 ADD AND SWAP1 POP SWAP2 SWAP1 POP JUMP JUMPDEST PUSH32 0x4E487B7100000000000000000000000000000000000000000000000000000000 PUSH1 0x0 MSTORE PUSH1 0x41 PUSH1 0x4 MSTORE PUSH1 0x24 PUSH1 0x0 REVERT JUMPDEST PUSH2 0xC24 DUP3 PUSH2 0xBDB JUMP JUMPDEST DUP2 ADD DUP2 DUP2 LT PUSH8 0xFFFFFFFFFFFFFFFF DUP3 GT OR ISZERO PUSH2 0xC43 JUMPI PUSH2 0xC42 PUSH2 0xBEC JUMP JUMPDEST JUMPDEST DUP1 PUSH1 0x40 MSTORE POP POP POP JUMP JUMPDEST PUSH1 0x0 PUSH2 0xC56 PUSH2 0xBBD JUMP JUMPDEST SWAP1 POP PUSH2 0xC62 DUP3 DUP3 PUSH2 0xC1B JUMP JUMPDEST SWAP2 SWAP1 POP JUMP JUMPDEST PUSH1 0x0 PUSH8 0xFFFFFFFFFFFFFFFF DUP3 GT ISZERO PUSH2 0xC82 JUMPI PUSH2 0xC81 PUSH2 0xBEC JUMP JUMPDEST JUMPDEST PUSH2 0xC8B DUP3 PUSH2 0xBDB JUMP JUMPDEST SWAP1 POP PUSH1 0x20 DUP2 ADD SWAP1 POP SWAP2 SWAP1 POP JUMP JUMPDEST DUP3 DUP2 DUP4 CALLDATACOPY PUSH1 0x0 DUP4 DUP4 ADD MSTORE POP POP POP JUMP JUMPDEST PUSH1 0x0 PUSH2 0xCBA PUSH2 0xCB5 DUP5 PUSH2 0xC67 JUMP JUMPDEST PUSH2 0xC4C JUMP JUMPDEST SWAP1 POP DUP3 DUP2 MSTORE PUSH1 0x20 DUP2 ADD DUP5 DUP5 DUP5 ADD GT ISZERO PUSH2 0xCD6 JUMPI PUSH2 0xCD5 PUSH2 0xBD6 JUMP JUMPDEST JUMPDEST PUSH2 0xCE1 DUP5 DUP3 DUP6 PUSH2 0xC98 JUMP JUMPDEST POP SWAP4 SWAP3 POP POP POP JUMP JUMPDEST PUSH1 0x0 DUP3 PUSH1 0x1F DUP4 ADD SLT PUSH2 0xCFE JUMPI PUSH2 0xCFD PUSH2 0xBD1 JUMP JUMPDEST JUMPDEST DUP2 CALLDATALOAD PUSH2 0xD0E DUP5 DUP3 PUSH1 0x20 DUP7 ADD PUSH2 0xCA7 JUMP JUMPDEST SWAP2 POP POP SWAP3 SWAP2 POP POP JUMP JUMPDEST PUSH1 0x0 PUSH1 0x20 DUP3 DUP5 SUB SLT ISZERO PUSH2 0xD2D JUMPI PUSH2 0xD2C PUSH2 0xBC7 JUMP JUMPDEST JUMPDEST PUSH1 0x0 DUP3 ADD CALLDATALOAD PUSH8 0xFFFFFFFFFFFFFFFF DUP2 GT ISZERO PUSH2 0xD4B JUMPI PUSH2 0xD4A PUSH2 0xBCC JUMP JUMPDEST JUMPDEST PUSH2 0xD57 DUP5 DUP3 DUP6 ADD PUSH2 0xCE9 JUMP JUMPDEST SWAP2 POP POP SWAP3 SWAP2 POP POP JUMP JUMPDEST PUSH2 0xD69 DUP2 PUSH2 0xB89 JUMP JUMPDEST DUP3 MSTORE POP POP JUMP JUMPDEST PUSH1 0x0 DUP2 MLOAD SWAP1 POP SWAP2 SWAP1 POP JUMP JUMPDEST PUSH1 0x0 DUP3 DUP3 MSTORE PUSH1 0x20 DUP3 ADD SWAP1 POP SWAP3 SWAP2 POP POP JUMP JUMPDEST PUSH1 0x0 JUMPDEST DUP4 DUP2 LT ISZERO PUSH2 0xDA9 JUMPI DUP1 DUP3 ADD MLOAD DUP2 DUP5 ADD MSTORE PUSH1 0x20 DUP2 ADD SWAP1 POP PUSH2 0xD8E JUMP JUMPDEST PUSH1 0x0 DUP5 DUP5 ADD MSTORE POP POP POP POP JUMP JUMPDEST PUSH1 0x0 PUSH2 0xDC0 DUP3 PUSH2 0xD6F JUMP JUMPDEST PUSH2 0xDCA DUP2 DUP6 PUSH2 0xD7A JUMP JUMPDEST SWAP4 POP PUSH2 0xDDA DUP2 DUP6 PUSH1 0x20 DUP7 ADD PUSH2 0xD8B JUMP JUMPDEST PUSH2 0xDE3 DUP2 PUSH2 0xBDB JUMP JUMPDEST DUP5 ADD SWAP2 POP POP SWAP3 SWAP2 POP POP JUMP JUMPDEST PUSH1 0x0 PUSH20 0xFFFFFFFFFFFFFFFFFFFFFFFFFFFFFFFFFFFFFFFF DUP3 AND SWAP1 POP SWAP2 SWAP1 POP JUMP JUMPDEST PUSH1 0x0 PUSH2 0xE19 DUP3 PUSH2 0xDEE JUMP JUMPDEST SWAP1 POP SWAP2 SWAP1 POP JUMP JUMPDEST PUSH2 0xE29 DUP2 PUSH2 0xE0E JUMP JUMPDEST DUP3 MSTORE POP POP JUMP JUMPDEST PUSH32 0x4E487B7100000000000000000000000000000000000000000000000000000000 PUSH1 0x0 MSTORE PUSH1 0x21 PUSH1 0x4 MSTORE PUSH1 0x24 PUSH1 0x0 REVERT JUMPDEST PUSH1 0x3 DUP2 LT PUSH2 0xE6F JUMPI PUSH2 0xE6E PUSH2 0xE2F JUMP JUMPDEST JUMPDEST POP JUMP JUMPDEST PUSH1 0x0 DUP2 SWAP1 POP PUSH2 0xE80 DUP3 PUSH2 0xE5E JUMP JUMPDEST SWAP2 SWAP1 POP JUMP JUMPDEST PUSH1 0x0 PUSH2 0xE90 DUP3 PUSH2 0xE72 JUMP JUMPDEST SWAP1 POP SWAP2 SWAP1 POP JUMP JUMPDEST PUSH2 0xEA0 DUP2 PUSH2 0xE85 JUMP JUMPDEST DUP3 MSTORE POP POP JUMP JUMPDEST PUSH1 0x0 PUSH1 0xE0 DUP4 ADD PUSH1 0x0 DUP4 ADD MLOAD PUSH2 0xEBE PUSH1 0x0 DUP7 ADD DUP3 PUSH2 0xD60 JUMP JUMPDEST POP PUSH1 0x20 DUP4 ADD MLOAD DUP5 DUP3 SUB PUSH1 0x20 DUP7 ADD MSTORE PUSH2 0xED6 DUP3 DUP3 PUSH2 0xDB5 JUMP JUMPDEST SWAP2 POP POP PUSH1 0x40 DUP4 ADD MLOAD DUP5 DUP3 SUB PUSH1 0x40 DUP7 ADD MSTORE PUSH2 0xEF0 DUP3 DUP3 PUSH2 0xDB5 JUMP JUMPDEST SWAP2 POP POP PUSH1 0x60 DUP4 ADD MLOAD PUSH2 0xF05 PUSH1 0x60 DUP7 ADD DUP3 PUSH2 0xE20 JUMP JUMPDEST POP PUSH1 0x80 DUP4 ADD MLOAD PUSH2 0xF18 PUSH1 0x80 DUP7 ADD DUP3 PUSH2 0xD60 JUMP JUMPDEST POP PUSH1 0xA0 DUP4 ADD MLOAD PUSH2 0xF2B PUSH1 0xA0 DUP7 ADD DUP3 PUSH2 0xD60 JUMP JUMPDEST POP PUSH1 0xC0 DUP4 ADD MLOAD PUSH2 0xF3E PUSH1 0xC0 DUP7 ADD DUP3 PUSH2 0xE97 JUMP JUMPDEST POP DUP1 SWAP2 POP POP SWAP3 SWAP2 POP POP JUMP JUMPDEST PUSH1 0x0 PUSH1 0x20 DUP3 ADD SWAP1 POP DUP2 DUP2 SUB PUSH1 0x0 DUP4 ADD MSTORE PUSH2 0xF63 DUP2 DUP5 PUSH2 0xEA6 JUMP JUMPDEST SWAP1 POP SWAP3 SWAP2 POP POP JUMP JUMPDEST PUSH2 0xF74 DUP2 PUSH2 0xB89 JUMP JUMPDEST DUP2 EQ PUSH2 0xF7F JUMPI PUSH1 0x0 DUP1 REVERT JUMPDEST POP JUMP JUMPDEST PUSH1 0x0 DUP2 CALLDATALOAD SWAP1 POP PUSH2 0xF91 DUP2 PUSH2 0xF6B JUMP JUMPDEST SWAP3 SWAP2 POP POP JUMP JUMPDEST PUSH1 0x0 PUSH1 0x20 DUP3 DUP5 SUB SLT ISZERO PUSH2 0xFAD JUMPI PUSH2 0xFAC PUSH2 0xBC7 JUMP JUMPDEST JUMPDEST PUSH1 0x0 PUSH2 0xFBB DUP5 DUP3 DUP6 ADD PUSH2 0xF82 JUMP JUMPDEST SWAP2 POP POP SWAP3 SWAP2 POP POP JUMP JUMPDEST PUSH1 0x0 DUP3 DUP3 MSTORE PUSH1 0x20 DUP3 ADD SWAP1 POP SWAP3 SWAP2 POP POP JUMP JUMPDEST PUSH1 0x0 PUSH2 0xFE0 DUP3 PUSH2 0xD6F JUMP JUMPDEST PUSH2 0xFEA DUP2 DUP6 PUSH2 0xFC4 JUMP JUMPDEST SWAP4 POP PUSH2 0xFFA DUP2 DUP6 PUSH1 0x20 DUP7 ADD PUSH2 0xD8B JUMP JUMPDEST PUSH2 0x1003 DUP2 PUSH2 0xBDB JUMP JUMPDEST DUP5 ADD SWAP2 POP POP SWAP3 SWAP2 POP POP JUMP JUMPDEST PUSH2 0x1017 DUP2 PUSH2 0xE0E JUMP JUMPDEST DUP3 MSTORE POP POP JUMP JUMPDEST PUSH1 0x0 PUSH1 0x60 DUP3 ADD SWAP1 POP PUSH2 0x1032 PUSH1 0x0 DUP4 ADD DUP7 PUSH2 0xB93 JUMP JUMPDEST DUP2 DUP2 SUB PUSH1 0x20 DUP4 ADD MSTORE PUSH2 0x1044 DUP2 DUP6 PUSH2 0xFD5 JUMP JUMPDEST SWAP1 POP PUSH2 0x1053 PUSH1 0x40 DUP4 ADD DUP5 PUSH2 0x100E JUMP JUMPDEST SWAP5 SWAP4 POP POP POP POP JUMP JUMPDEST PUSH1 0x0 DUP2 ISZERO ISZERO SWAP1 POP SWAP2 SWAP1 POP JUMP JUMPDEST PUSH2 0x1070 DUP2 PUSH2 0x105B JUMP JUMPDEST DUP2 EQ PUSH2 0x107B JUMPI PUSH1 0x0 DUP1 REVERT JUMPDEST POP JUMP JUMPDEST PUSH1 0x0 DUP2 CALLDATALOAD SWAP1 POP PUSH2 0x108D DUP2 PUSH2 0x1067 JUMP JUMPDEST SWAP3 SWAP2 POP POP JUMP JUMPDEST PUSH1 0x0 DUP1 PUSH1 0x0 PUSH1 0x60 DUP5 DUP7 SUB SLT ISZERO PUSH2 0x10AC JUMPI PUSH2 0x10AB PUSH2 0xBC7 JUMP JUMPDEST JUMPDEST PUSH1 0x0 PUSH2 0x10BA DUP7 DUP3 DUP8 ADD PUSH2 0xF82 JUMP JUMPDEST SWAP4 POP POP PUSH1 0x20 DUP5 ADD CALLDATALOAD PUSH8 0xFFFFFFFFFFFFFFFF DUP2 GT ISZERO PUSH2 0x10DB JUMPI PUSH2 0x10DA PUSH2 0xBCC JUMP JUMPDEST JUMPDEST PUSH2 0x10E7 DUP7 DUP3 DUP8 ADD PUSH2 0xCE9 JUMP JUMPDEST SWAP3 POP POP PUSH1 0x40 PUSH2 0x10F8 DUP7 DUP3 DUP8 ADD PUSH2 0x107E JUMP JUMPDEST SWAP2 POP POP SWAP3 POP SWAP3 POP SWAP3 JUMP JUMPDEST PUSH2 0x110B DUP2 PUSH2 0xE85 JUMP JUMPDEST DUP3 MSTORE POP POP JUMP JUMPDEST PUSH1 0x0 PUSH1 0xE0 DUP3 ADD SWAP1 POP PUSH2 0x1126 PUSH1 0x0 DUP4 ADD DUP11 PUSH2 0xB93 JUMP JUMPDEST DUP2 DUP2 SUB PUSH1 0x20 DUP4 ADD MSTORE PUSH2 0x1138 DUP2 DUP10 PUSH2 0xFD5 JUMP JUMPDEST SWAP1 POP DUP2 DUP2 SUB PUSH1 0x40 DUP4 ADD MSTORE PUSH2 0x114C DUP2 DUP9 PUSH2 0xFD5 JUMP JUMPDEST SWAP1 POP PUSH2 0x115B PUSH1 0x60 DUP4 ADD DUP8 PUSH2 0x100E JUMP JUMPDEST PUSH2 0x1168 PUSH1 0x80 DUP4 ADD DUP7 PUSH2 0xB93 JUMP JUMPDEST PUSH2 0x1175 PUSH1 0xA0 DUP4 ADD DUP6 PUSH2 0xB93 JUMP JUMPDEST PUSH2 0x1182 PUSH1 0xC0 DUP4 ADD DUP5 PUSH2 0x1102 JUMP JUMPDEST SWAP9 SWAP8 POP POP POP POP POP POP POP POP JUMP JUMPDEST PUSH2 0x1197 DUP2 PUSH2 0xE0E JUMP JUMPDEST DUP2 EQ PUSH2 0x11A2 JUMPI PUSH1 0x0 DUP1 REVERT JUMPDEST POP JUMP JUMPDEST PUSH1 0x0 DUP2 CALLDATALOAD SWAP1 POP PUSH2 0x11B4 DUP2 PUSH2 0x118E JUMP JUMPDEST SWAP3 SWAP2 POP POP JUMP JUMPDEST PUSH1 0x0 DUP1 PUSH1 0x0 PUSH1 0x60 DUP5 DUP7 SUB SLT ISZERO PUSH2 0x11D3 JUMPI PUSH2 0x11D2 PUSH2 0xBC7 JUMP JUMPDEST JUMPDEST PUSH1 0x0 PUSH2 0x11E1 DUP7 DUP3 DUP8 ADD PUSH2 0xF82 JUMP JUMPDEST SWAP4 POP POP PUSH1 0x20 DUP5 ADD CALLDATALOAD PUSH8 0xFFFFFFFFFFFFFFFF DUP2 GT ISZERO PUSH2 0x1202 JUMPI PUSH2 0x1201 PUSH2 0xBCC JUMP JUMPDEST JUMPDEST PUSH2 0x120E DUP7 DUP3 DUP8 ADD PUSH2 0xCE9 JUMP JUMPDEST SWAP3 POP POP PUSH1 0x40 PUSH2 0x121F DUP7 DUP3 DUP8 ADD PUSH2 0x11A5 JUMP JUMPDEST SWAP2 POP POP SWAP3 POP SWAP3 POP SWAP3 JUMP JUMPDEST PUSH1 0x0 DUP1 REVERT JUMPDEST PUSH1 0x0 DUP1 REVERT JUMPDEST PUSH1 0x0 DUP1 DUP4 PUSH1 0x1F DUP5 ADD SLT PUSH2 0x1249 JUMPI PUSH2 0x1248 PUSH2 0xBD1 JUMP JUMPDEST JUMPDEST DUP3 CALLDATALOAD SWAP1 POP PUSH8 0xFFFFFFFFFFFFFFFF DUP2 GT ISZERO PUSH2 0x1266 JUMPI PUSH2 0x1265 PUSH2 0x1229 JUMP JUMPDEST JUMPDEST PUSH1 0x20 DUP4 ADD SWAP2 POP DUP4 PUSH1 0x1 DUP3 MUL DUP4 ADD GT ISZERO PUSH2 0x1282 JUMPI PUSH2 0x1281 PUSH2 0x122E JUMP JUMPDEST JUMPDEST SWAP3 POP SWAP3 SWAP1 POP JUMP JUMPDEST PUSH1 0x0 DUP1 PUSH1 0x0 DUP1 PUSH1 0x0 PUSH1 0x60 DUP7 DUP9 SUB SLT ISZERO PUSH2 0x12A5 JUMPI PUSH2 0x12A4 PUSH2 0xBC7 JUMP JUMPDEST JUMPDEST PUSH1 0x0 DUP7 ADD CALLDATALOAD PUSH8 0xFFFFFFFFFFFFFFFF DUP2 GT ISZERO PUSH2 0x12C3 JUMPI PUSH2 0x12C2 PUSH2 0xBCC JUMP JUMPDEST JUMPDEST PUSH2 0x12CF DUP9 DUP3 DUP10 ADD PUSH2 0x1233 JUMP JUMPDEST SWAP6 POP SWAP6 POP POP PUSH1 0x20 DUP7 ADD CALLDATALOAD PUSH8 0xFFFFFFFFFFFFFFFF DUP2 GT ISZERO PUSH2 0x12F2 JUMPI PUSH2 0x12F1 PUSH2 0xBCC JUMP JUMPDEST JUMPDEST PUSH2 0x12FE DUP9 DUP3 DUP10 ADD PUSH2 0x1233 JUMP JUMPDEST SWAP4 POP SWAP4 POP POP PUSH1 0x40 PUSH2 0x1311 DUP9 DUP3 DUP10 ADD PUSH2 0x11A5 JUMP JUMPDEST SWAP2 POP POP SWAP3 SWAP6 POP SWAP3 SWAP6 SWAP1 SWAP4 POP JUMP JUMPDEST PUSH1 0x0 DUP2 SWAP1 POP SWAP3 SWAP2 POP POP JUMP JUMPDEST PUSH1 0x0 PUSH2 0x1334 DUP3 PUSH2 0xD6F JUMP JUMPDEST PUSH2 0x133E DUP2 DUP6 PUSH2 0x131E JUMP JUMPDEST SWAP4 POP PUSH2 0x134E DUP2 DUP6 PUSH1 0x20 DUP7 ADD PUSH2 0xD8B JUMP JUMPDEST DUP1 DUP5 ADD SWAP2 POP POP SWAP3 SWAP2 POP POP JUMP JUMPDEST PUSH1 0x0 PUSH2 0x1366 DUP3 DUP5 PUSH2 0x1329 JUMP JUMPDEST SWAP2 POP DUP2 SWAP1 POP SWAP3 SWAP2 POP POP JUMP JUMPDEST PUSH32 0x4E487B7100000000000000000000000000000000000000000000000000000000 PUSH1 0x0 MSTORE PUSH1 0x22 PUSH1 0x4 MSTORE PUSH1 0x24 PUSH1 0x0 REVERT JUMPDEST PUSH1 0x0 PUSH1 0x2 DUP3 DIV SWAP1 POP PUSH1 0x1 DUP3 AND DUP1 PUSH2 0x13B8 JUMPI PUSH1 0x7F DUP3 AND SWAP2 POP JUMPDEST PUSH1 0x20 DUP3 LT DUP2 SUB PUSH2 0x13CB JUMPI PUSH2 0x13CA PUSH2 0x1371 JUMP JUMPDEST JUMPDEST POP SWAP2 SWAP1 POP JUMP JUMPDEST PUSH32 0x4E487B7100000000000000000000000000000000000000000000000000000000 PUSH1 0x0 MSTORE PUSH1 0x32 PUSH1 0x4 MSTORE PUSH1 0x24 PUSH1 0x0 REVERT JUMPDEST PUSH32 0x4E487B7100000000000000000000000000000000000000000000000000000000 PUSH1 0x0 MSTORE PUSH1 0x11 PUSH1 0x4 MSTORE PUSH1 0x24 PUSH1 0x0 REVERT JUMPDEST PUSH1 0x0 PUSH2 0x143A DUP3 PUSH2 0xB89 JUMP JUMPDEST SWAP2 POP PUSH32 0xFFFFFFFFFFFFFFFFFFFFFFFFFFFFFFFFFFFFFFFFFFFFFFFFFFFFFFFFFFFFFFFF DUP3 SUB PUSH2 0x146C JUMPI PUSH2 0x146B PUSH2 0x1400 JUMP JUMPDEST JUMPDEST PUSH1 0x1 DUP3 ADD SWAP1 POP SWAP2 SWAP1 POP JUMP JUMPDEST PUSH1 0x0 PUSH2 0x1482 DUP3 PUSH2 0xB89 JUMP JUMPDEST SWAP2 POP PUSH2 0x148D DUP4 PUSH2 0xB89 JUMP JUMPDEST SWAP3 POP DUP3 DUP3 SUB SWAP1 POP DUP2 DUP2 GT ISZERO PUSH2 0x14A5 JUMPI PUSH2 0x14A4 PUSH2 0x1400 JUMP JUMPDEST JUMPDEST SWAP3 SWAP2 POP POP JUMP JUMPDEST PUSH1 0x0 DUP2 SWAP1 POP DUP2 PUSH1 0x0 MSTORE PUSH1 0x20 PUSH1 0x0 KECCAK256 SWAP1 POP SWAP2 SWAP1 POP JUMP JUMPDEST PUSH1 0x0 PUSH1 0x20 PUSH1 0x1F DUP4 ADD DIV SWAP1 POP SWAP2 SWAP1 POP JUMP JUMPDEST PUSH1 0x0 DUP3 DUP3 SHL SWAP1 POP SWAP3 SWAP2 POP POP JUMP JUMPDEST PUSH1 0x0 PUSH1 0x8 DUP4 MUL PUSH2 0x150D PUSH32 0xFFFFFFFFFFFFFFFFFFFFFFFFFFFFFFFFFFFFFFFFFFFFFFFFFFFFFFFFFFFFFFFF DUP3 PUSH2 0x14D0 JUMP JUMPDEST PUSH2 0x1517 DUP7 DUP4 PUSH2 0x14D0 JUMP JUMPDEST SWAP6 POP DUP1 NOT DUP5 AND SWAP4 POP DUP1 DUP7 AND DUP5 OR SWAP3 POP POP POP SWAP4 SWAP3 POP POP POP JUMP JUMPDEST PUSH1 0x0 DUP2 SWAP1 POP SWAP2 SWAP1 POP JUMP JUMPDEST PUSH1 0x0 PUSH2 0x1554 PUSH2 0x154F PUSH2 0x154A DUP5 PUSH2 0xB89 JUMP JUMPDEST PUSH2 0x152F JUMP JUMPDEST PUSH2 0xB89 JUMP JUMPDEST SWAP1 POP SWAP2 SWAP1 POP JUMP JUMPDEST PUSH1 0x0 DUP2 SWAP1 POP SWAP2 SWAP1 POP JUMP JUMPDEST PUSH2 0x156E DUP4 PUSH2 0x1539 JUMP JUMPDEST PUSH2 0x1582 PUSH2 0x157A DUP3 PUSH2 0x155B JUMP JUMPDEST DUP5 DUP5 SLOAD PUSH2 0x14DD JUMP JUMPDEST DUP3 SSTORE POP POP POP POP JUMP JUMPDEST PUSH1 0x0 SWAP1 JUMP JUMPDEST PUSH2 0x1597 PUSH2 0x158A JUMP JUMPDEST PUSH2 0x15A2 DUP2 DUP5 DUP5 PUSH2 0x1565 JUMP JUMPDEST POP POP POP JUMP JUMPDEST JUMPDEST DUP2 DUP2 LT ISZERO PUSH2 0x15C6 JUMPI PUSH2 0x15BB PUSH1 0x0 DUP3 PUSH2 0x158F JUMP JUMPDEST PUSH1 0x1 DUP2 ADD SWAP1 POP PUSH2 0x15A8 JUMP JUMPDEST POP POP JUMP JUMPDEST PUSH1 0x1F DUP3 GT ISZERO PUSH2 0x160B JUMPI PUSH2 0x15DC DUP2 PUSH2 0x14AB JUMP JUMPDEST PUSH2 0x15E5 DUP5 PUSH2 0x14C0 JUMP JUMPDEST DUP2 ADD PUSH1 0x20 DUP6 LT ISZERO PUSH2 0x15F4 JUMPI DUP2 SWAP1 POP JUMPDEST PUSH2 0x1608 PUSH2 0x1600 DUP6 PUSH2 0x14C0 JUMP JUMPDEST DUP4 ADD DUP3 PUSH2 0x15A7 JUMP JUMPDEST POP POP JUMPDEST POP POP POP JUMP JUMPDEST PUSH1 0x0 DUP3 DUP3 SHR SWAP1 POP SWAP3 SWAP2 POP POP JUMP JUMPDEST PUSH1 0x0 PUSH2 0x162E PUSH1 0x0 NOT DUP5 PUSH1 0x8 MUL PUSH2 0x1610 JUMP JUMPDEST NOT DUP1 DUP4 AND SWAP2 POP POP SWAP3 SWAP2 POP POP JUMP JUMPDEST PUSH1 0x0 PUSH2 0x1647 DUP4 DUP4 PUSH2 0x161D JUMP JUMPDEST SWAP2 POP DUP3 PUSH1 0x2 MUL DUP3 OR SWAP1 POP SWAP3 SWAP2 POP POP JUMP JUMPDEST PUSH2 0x1660 DUP3 PUSH2 0xD6F JUMP JUMPDEST PUSH8 0xFFFFFFFFFFFFFFFF DUP2 GT ISZERO PUSH2 0x1679 JUMPI PUSH2 0x1678 PUSH2 0xBEC JUMP JUMPDEST JUMPDEST PUSH2 0x1683 DUP3 SLOAD PUSH2 0x13A0 JUMP JUMPDEST PUSH2 0x168E DUP3 DUP3 DUP6 PUSH2 0x15CA JUMP JUMPDEST PUSH1 0x0 PUSH1 0x20 SWAP1 POP PUSH1 0x1F DUP4 GT PUSH1 0x1 DUP2 EQ PUSH2 0x16C1 JUMPI PUSH1 0x0 DUP5 ISZERO PUSH2 0x16AF JUMPI DUP3 DUP8 ADD MLOAD SWAP1 POP JUMPDEST PUSH2 0x16B9 DUP6 DUP3 PUSH2 0x163B JUMP JUMPDEST DUP7 SSTORE POP PUSH2 0x1721 JUMP JUMPDEST PUSH1 0x1F NOT DUP5 AND PUSH2 0x16CF DUP7 PUSH2 0x14AB JUMP JUMPDEST PUSH1 0x0 JUMPDEST DUP3 DUP2 LT ISZERO PUSH2 0x16F7 JUMPI DUP5 DUP10 ADD MLOAD DUP3 SSTORE PUSH1 0x1 DUP3 ADD SWAP2 POP PUSH1 0x20 DUP6 ADD SWAP5 POP PUSH1 0x20 DUP2 ADD SWAP1 POP PUSH2 0x16D2 JUMP JUMPDEST DUP7 DUP4 LT ISZERO PUSH2 0x1714 JUMPI DUP5 DUP10 ADD MLOAD PUSH2 0x1710 PUSH1 0x1F DUP10 AND DUP3 PUSH2 0x161D JUMP JUMPDEST DUP4 SSTORE POP JUMPDEST PUSH1 0x1 PUSH1 0x2 DUP9 MUL ADD DUP9 SSTORE POP POP POP JUMPDEST POP POP POP POP POP POP JUMP JUMPDEST PUSH1 0x0 PUSH2 0x1735 DUP4 DUP6 PUSH2 0x131E JUMP JUMPDEST SWAP4 POP PUSH2 0x1742 DUP4 DUP6 DUP5 PUSH2 0xC98 JUMP JUMPDEST DUP3 DUP5 ADD SWAP1 POP SWAP4 SWAP3 POP POP POP JUMP JUMPDEST PUSH1 0x0 PUSH2 0x175B DUP3 DUP5 DUP7 PUSH2 0x1729 JUMP JUMPDEST SWAP2 POP DUP2 SWAP1 POP SWAP4 SWAP3 POP POP POP JUMP INVALID LOG2 PUSH5 0x6970667358 0x22 SLT KECCAK256 SWAP3 0xAB XOR MUL 0x21 PUSH2 0xAB2B 0xBC SWAP5 0x28 LOG0 SWAP11 0xB4 ADDMOD DUP5 0xD3 ISZERO EQ ADDMOD DUP5 0x28 0xB7 0xD8 PUSH3 0xE1AE5C RETURNDATACOPY SWAP16 SWAP14 EQ PUSH5 0x736F6C6343 STOP ADDMOD SLT STOP CALLER "
				},
				"gasEstimates": {
					"creation": {
						"codeDepositCost": "1209000",
						"executionCost": "1254",
						"totalCost": "1210254"
					},
					"external": {
						"Users(uint256)": "infinite",
						"count()": "2430",
						"getPoll(string)": "infinite",
						"getUsersLength()": "2445",
						"polls(string)": "infinite",
						"pushUser(uint256,string,address)": "infinite",
						"suggest(string,string,address)": "infinite",
						"vote(uint256,string,bool)": "infinite"
					}
				},
				"methodIdentifiers": {
					"Users(uint256)": "1e98fd1c",
					"count()": "06661abd",
					"getPoll(string)": "10a688e3",
					"getUsersLength()": "595b1a3e",
					"polls(string)": "8058316a",
					"pushUser(uint256,string,address)": "933856c7",
					"suggest(string,string,address)": "980ad519",
					"vote(uint256,string,bool)": "369b0d82"
				}
			},
			"storageLayout": {
				"storage": [
					{
						"astId": 22,
						"contract": "contracts-quiz/230518-QUIZ6(array)-answer.sol:Q6",
						"label": "polls",
						"offset": 0,
						"slot": "0",
						"type": "t_mapping(t_string_memory_ptr,t_struct(poll)17_storage)"
					},
					{
						"astId": 24,
						"contract": "contracts-quiz/230518-QUIZ6(array)-answer.sol:Q6",
						"label": "count",
						"offset": 0,
						"slot": "1",
						"type": "t_uint256"
					},
					{
						"astId": 51,
						"contract": "contracts-quiz/230518-QUIZ6(array)-answer.sol:Q6",
						"label": "Users",
						"offset": 0,
						"slot": "2",
						"type": "t_array(t_struct(user)47_storage)dyn_storage"
					}
				],
				"types": {
					"t_address": {
						"encoding": "inplace",
						"label": "address",
						"numberOfBytes": "20"
					},
					"t_array(t_string_storage)dyn_storage": {
						"base": "t_string_storage",
						"encoding": "dynamic_array",
						"label": "string[]",
						"numberOfBytes": "32"
					},
					"t_array(t_struct(user)47_storage)dyn_storage": {
						"base": "t_struct(user)47_storage",
						"encoding": "dynamic_array",
						"label": "struct Q6.user[]",
						"numberOfBytes": "32"
					},
					"t_enum(pollStatus)32": {
						"encoding": "inplace",
						"label": "enum Q6.pollStatus",
						"numberOfBytes": "1"
					},
					"t_enum(votingStatus)28": {
						"encoding": "inplace",
						"label": "enum Q6.votingStatus",
						"numberOfBytes": "1"
					},
					"t_mapping(t_string_memory_ptr,t_enum(votingStatus)28)": {
						"encoding": "mapping",
						"key": "t_string_memory_ptr",
						"label": "mapping(string => enum Q6.votingStatus)",
						"numberOfBytes": "32",
						"value": "t_enum(votingStatus)28"
					},
					"t_mapping(t_string_memory_ptr,t_struct(poll)17_storage)": {
						"encoding": "mapping",
						"key": "t_string_memory_ptr",
						"label": "mapping(string => struct Q6.poll)",
						"numberOfBytes": "32",
						"value": "t_struct(poll)17_storage"
					},
					"t_string_memory_ptr": {
						"encoding": "bytes",
						"label": "string",
						"numberOfBytes": "32"
					},
					"t_string_storage": {
						"encoding": "bytes",
						"label": "string",
						"numberOfBytes": "32"
					},
					"t_struct(poll)17_storage": {
						"encoding": "inplace",
						"label": "struct Q6.poll",
						"members": [
							{
								"astId": 3,
								"contract": "contracts-quiz/230518-QUIZ6(array)-answer.sol:Q6",
								"label": "number",
								"offset": 0,
								"slot": "0",
								"type": "t_uint256"
							},
							{
								"astId": 5,
								"contract": "contracts-quiz/230518-QUIZ6(array)-answer.sol:Q6",
								"label": "title",
								"offset": 0,
								"slot": "1",
								"type": "t_string_storage"
							},
							{
								"astId": 7,
								"contract": "contracts-quiz/230518-QUIZ6(array)-answer.sol:Q6",
								"label": "context",
								"offset": 0,
								"slot": "2",
								"type": "t_string_storage"
							},
							{
								"astId": 9,
								"contract": "contracts-quiz/230518-QUIZ6(array)-answer.sol:Q6",
								"label": "by",
								"offset": 0,
								"slot": "3",
								"type": "t_address"
							},
							{
								"astId": 11,
								"contract": "contracts-quiz/230518-QUIZ6(array)-answer.sol:Q6",
								"label": "pros",
								"offset": 0,
								"slot": "4",
								"type": "t_uint256"
							},
							{
								"astId": 13,
								"contract": "contracts-quiz/230518-QUIZ6(array)-answer.sol:Q6",
								"label": "cons",
								"offset": 0,
								"slot": "5",
								"type": "t_uint256"
							},
							{
								"astId": 16,
								"contract": "contracts-quiz/230518-QUIZ6(array)-answer.sol:Q6",
								"label": "status",
								"offset": 0,
								"slot": "6",
								"type": "t_enum(pollStatus)32"
							}
						],
						"numberOfBytes": "224"
					},
					"t_struct(user)47_storage": {
						"encoding": "inplace",
						"label": "struct Q6.user",
						"members": [
							{
								"astId": 34,
								"contract": "contracts-quiz/230518-QUIZ6(array)-answer.sol:Q6",
								"label": "number",
								"offset": 0,
								"slot": "0",
								"type": "t_uint256"
							},
							{
								"astId": 36,
								"contract": "contracts-quiz/230518-QUIZ6(array)-answer.sol:Q6",
								"label": "name",
								"offset": 0,
								"slot": "1",
								"type": "t_string_storage"
							},
							{
								"astId": 38,
								"contract": "contracts-quiz/230518-QUIZ6(array)-answer.sol:Q6",
								"label": "addr",
								"offset": 0,
								"slot": "2",
								"type": "t_address"
							},
							{
								"astId": 41,
								"contract": "contracts-quiz/230518-QUIZ6(array)-answer.sol:Q6",
								"label": "suggested",
								"offset": 0,
								"slot": "3",
								"type": "t_array(t_string_storage)dyn_storage"
							},
							{
								"astId": 46,
								"contract": "contracts-quiz/230518-QUIZ6(array)-answer.sol:Q6",
								"label": "voted",
								"offset": 0,
								"slot": "4",
								"type": "t_mapping(t_string_memory_ptr,t_enum(votingStatus)28)"
							}
						],
						"numberOfBytes": "160"
					},
					"t_uint256": {
						"encoding": "inplace",
						"label": "uint256",
						"numberOfBytes": "32"
					}
				}
			},
			"userdoc": {
				"kind": "user",
				"methods": {},
				"version": 1
			}
		}
	}
}