{
	"contracts-quiz/230530-QUIZ9.sol": {
		"QUIZ9": {
			"abi": [
				{
					"inputs": [
						{
							"internalType": "string",
							"name": "_pw",
							"type": "string"
						}
					],
					"name": "setPW",
					"outputs": [
						{
							"internalType": "bool",
							"name": "",
							"type": "bool"
						}
					],
					"stateMutability": "pure",
					"type": "function"
				}
			],
			"devdoc": {
				"kind": "dev",
				"methods": {},
				"version": 1
			},
			"evm": {
				"assembly": "    /* \"contracts-quiz/230530-QUIZ9.sol\":511:1251  contract QUIZ9 {... */\n  mstore(0x40, 0x80)\n  callvalue\n  dup1\n  iszero\n  tag_1\n  jumpi\n  0x00\n  dup1\n  revert\ntag_1:\n  pop\n  dataSize(sub_0)\n  dup1\n  dataOffset(sub_0)\n  0x00\n  codecopy\n  0x00\n  return\nstop\n\nsub_0: assembly {\n        /* \"contracts-quiz/230530-QUIZ9.sol\":511:1251  contract QUIZ9 {... */\n      mstore(0x40, 0x80)\n      callvalue\n      dup1\n      iszero\n      tag_1\n      jumpi\n      0x00\n      dup1\n      revert\n    tag_1:\n      pop\n      jumpi(tag_2, lt(calldatasize, 0x04))\n      shr(0xe0, calldataload(0x00))\n      dup1\n      0xccd73016\n      eq\n      tag_3\n      jumpi\n    tag_2:\n      0x00\n      dup1\n      revert\n        /* \"contracts-quiz/230530-QUIZ9.sol\":532:1249  function setPW(string memory _pw) public pure returns(bool) {... */\n    tag_3:\n      tag_4\n      0x04\n      dup1\n      calldatasize\n      sub\n      dup2\n      add\n      swap1\n      tag_5\n      swap2\n      swap1\n      tag_6\n      jump\t// in\n    tag_5:\n      tag_7\n      jump\t// in\n    tag_4:\n      mload(0x40)\n      tag_8\n      swap2\n      swap1\n      tag_9\n      jump\t// in\n    tag_8:\n      mload(0x40)\n      dup1\n      swap2\n      sub\n      swap1\n      return\n    tag_7:\n        /* \"contracts-quiz/230530-QUIZ9.sol\":586:590  bool */\n      0x00\n        /* \"contracts-quiz/230530-QUIZ9.sol\":602:618  bool isUpperCase */\n      dup1\n        /* \"contracts-quiz/230530-QUIZ9.sol\":628:644  bool isLowerCase */\n      0x00\n        /* \"contracts-quiz/230530-QUIZ9.sol\":654:667  bool isNumber */\n      dup1\n        /* \"contracts-quiz/230530-QUIZ9.sol\":683:689  uint i */\n      0x00\n        /* \"contracts-quiz/230530-QUIZ9.sol\":678:1110  for (uint i=0; i < bytes(_pw).length; i++) {... */\n    tag_11:\n        /* \"contracts-quiz/230530-QUIZ9.sol\":703:706  _pw */\n      dup6\n        /* \"contracts-quiz/230530-QUIZ9.sol\":697:714  bytes(_pw).length */\n      mload\n        /* \"contracts-quiz/230530-QUIZ9.sol\":693:694  i */\n      dup2\n        /* \"contracts-quiz/230530-QUIZ9.sol\":693:714  i < bytes(_pw).length */\n      lt\n        /* \"contracts-quiz/230530-QUIZ9.sol\":678:1110  for (uint i=0; i < bytes(_pw).length; i++) {... */\n      iszero\n      tag_12\n      jumpi\n        /* \"contracts-quiz/230530-QUIZ9.sol\":735:750  bytes1 bytes_pw */\n      0x00\n        /* \"contracts-quiz/230530-QUIZ9.sol\":759:762  _pw */\n      dup7\n        /* \"contracts-quiz/230530-QUIZ9.sol\":764:765  i */\n      dup3\n        /* \"contracts-quiz/230530-QUIZ9.sol\":753:766  bytes(_pw)[i] */\n      dup2\n      mload\n      dup2\n      lt\n      tag_14\n      jumpi\n      tag_15\n      tag_16\n      jump\t// in\n    tag_15:\n    tag_14:\n      0x20\n      add\n      add\n      mload\n      0xf8\n      shr\n      0xf8\n      shl\n        /* \"contracts-quiz/230530-QUIZ9.sol\":735:766  bytes1 bytes_pw = bytes(_pw)[i] */\n      swap1\n      pop\n        /* \"contracts-quiz/230530-QUIZ9.sol\":804:806  39 */\n      0x27\n        /* \"contracts-quiz/230530-QUIZ9.sol\":791:799  bytes_pw */\n      dup2\n        /* \"contracts-quiz/230530-QUIZ9.sol\":785:800  uint8(bytes_pw) */\n      0xf8\n      shr\n        /* \"contracts-quiz/230530-QUIZ9.sol\":785:806  uint8(bytes_pw) <= 39 */\n      0xff\n      and\n      gt\n      iszero\n        /* \"contracts-quiz/230530-QUIZ9.sol\":785:831  uint8(bytes_pw) <= 39 && uint8(bytes_pw) >= 30 */\n      dup1\n      iszero\n      tag_17\n      jumpi\n      pop\n        /* \"contracts-quiz/230530-QUIZ9.sol\":829:831  30 */\n      0x1e\n        /* \"contracts-quiz/230530-QUIZ9.sol\":816:824  bytes_pw */\n      dup2\n        /* \"contracts-quiz/230530-QUIZ9.sol\":810:825  uint8(bytes_pw) */\n      0xf8\n      shr\n        /* \"contracts-quiz/230530-QUIZ9.sol\":810:831  uint8(bytes_pw) >= 30 */\n      0xff\n      and\n      lt\n      iszero\n        /* \"contracts-quiz/230530-QUIZ9.sol\":785:831  uint8(bytes_pw) <= 39 && uint8(bytes_pw) >= 30 */\n    tag_17:\n        /* \"contracts-quiz/230530-QUIZ9.sol\":781:1100  if (uint8(bytes_pw) <= 39 && uint8(bytes_pw) >= 30) {... */\n      iszero\n      tag_18\n      jumpi\n        /* \"contracts-quiz/230530-QUIZ9.sol\":862:866  true */\n      0x01\n        /* \"contracts-quiz/230530-QUIZ9.sol\":851:866  isNumber = true */\n      swap3\n      pop\n        /* \"contracts-quiz/230530-QUIZ9.sol\":781:1100  if (uint8(bytes_pw) <= 39 && uint8(bytes_pw) >= 30) {... */\n      jump(tag_19)\n    tag_18:\n        /* \"contracts-quiz/230530-QUIZ9.sol\":910:913  122 */\n      0x7a\n        /* \"contracts-quiz/230530-QUIZ9.sol\":897:905  bytes_pw */\n      dup2\n        /* \"contracts-quiz/230530-QUIZ9.sol\":891:906  uint8(bytes_pw) */\n      0xf8\n      shr\n        /* \"contracts-quiz/230530-QUIZ9.sol\":891:913  uint8(bytes_pw) <= 122 */\n      0xff\n      and\n      gt\n      iszero\n        /* \"contracts-quiz/230530-QUIZ9.sol\":891:938  uint8(bytes_pw) <= 122 && uint8(bytes_pw) >= 97 */\n      dup1\n      iszero\n      tag_20\n      jumpi\n      pop\n        /* \"contracts-quiz/230530-QUIZ9.sol\":936:938  97 */\n      0x61\n        /* \"contracts-quiz/230530-QUIZ9.sol\":923:931  bytes_pw */\n      dup2\n        /* \"contracts-quiz/230530-QUIZ9.sol\":917:932  uint8(bytes_pw) */\n      0xf8\n      shr\n        /* \"contracts-quiz/230530-QUIZ9.sol\":917:938  uint8(bytes_pw) >= 97 */\n      0xff\n      and\n      lt\n      iszero\n        /* \"contracts-quiz/230530-QUIZ9.sol\":891:938  uint8(bytes_pw) <= 122 && uint8(bytes_pw) >= 97 */\n    tag_20:\n        /* \"contracts-quiz/230530-QUIZ9.sol\":887:1100  if (uint8(bytes_pw) <= 122 && uint8(bytes_pw) >= 97) {... */\n      iszero\n      tag_21\n      jumpi\n        /* \"contracts-quiz/230530-QUIZ9.sol\":972:976  true */\n      0x01\n        /* \"contracts-quiz/230530-QUIZ9.sol\":958:976  isLowerCase = true */\n      swap4\n      pop\n        /* \"contracts-quiz/230530-QUIZ9.sol\":887:1100  if (uint8(bytes_pw) <= 122 && uint8(bytes_pw) >= 97) {... */\n      jump(tag_22)\n    tag_21:\n        /* \"contracts-quiz/230530-QUIZ9.sol\":1020:1022  90 */\n      0x5a\n        /* \"contracts-quiz/230530-QUIZ9.sol\":1007:1015  bytes_pw */\n      dup2\n        /* \"contracts-quiz/230530-QUIZ9.sol\":1001:1016  uint8(bytes_pw) */\n      0xf8\n      shr\n        /* \"contracts-quiz/230530-QUIZ9.sol\":1001:1022  uint8(bytes_pw) <= 90 */\n      0xff\n      and\n      gt\n      iszero\n        /* \"contracts-quiz/230530-QUIZ9.sol\":1001:1047  uint8(bytes_pw) <= 90 && uint8(bytes_pw) >= 65 */\n      dup1\n      iszero\n      tag_23\n      jumpi\n      pop\n        /* \"contracts-quiz/230530-QUIZ9.sol\":1045:1047  65 */\n      0x41\n        /* \"contracts-quiz/230530-QUIZ9.sol\":1032:1040  bytes_pw */\n      dup2\n        /* \"contracts-quiz/230530-QUIZ9.sol\":1026:1041  uint8(bytes_pw) */\n      0xf8\n      shr\n        /* \"contracts-quiz/230530-QUIZ9.sol\":1026:1047  uint8(bytes_pw) >= 65 */\n      0xff\n      and\n      lt\n      iszero\n        /* \"contracts-quiz/230530-QUIZ9.sol\":1001:1047  uint8(bytes_pw) <= 90 && uint8(bytes_pw) >= 65 */\n    tag_23:\n        /* \"contracts-quiz/230530-QUIZ9.sol\":997:1100  if (uint8(bytes_pw) <= 90 && uint8(bytes_pw) >= 65) {... */\n      iszero\n      tag_24\n      jumpi\n        /* \"contracts-quiz/230530-QUIZ9.sol\":1081:1085  true */\n      0x01\n        /* \"contracts-quiz/230530-QUIZ9.sol\":1067:1085  isUpperCase = true */\n      swap5\n      pop\n        /* \"contracts-quiz/230530-QUIZ9.sol\":997:1100  if (uint8(bytes_pw) <= 90 && uint8(bytes_pw) >= 65) {... */\n    tag_24:\n        /* \"contracts-quiz/230530-QUIZ9.sol\":887:1100  if (uint8(bytes_pw) <= 122 && uint8(bytes_pw) >= 97) {... */\n    tag_22:\n        /* \"contracts-quiz/230530-QUIZ9.sol\":781:1100  if (uint8(bytes_pw) <= 39 && uint8(bytes_pw) >= 30) {... */\n    tag_19:\n        /* \"contracts-quiz/230530-QUIZ9.sol\":721:1110  {... */\n      pop\n        /* \"contracts-quiz/230530-QUIZ9.sol\":716:719  i++ */\n      dup1\n      dup1\n      tag_25\n      swap1\n      tag_26\n      jump\t// in\n    tag_25:\n      swap2\n      pop\n      pop\n        /* \"contracts-quiz/230530-QUIZ9.sol\":678:1110  for (uint i=0; i < bytes(_pw).length; i++) {... */\n      jump(tag_11)\n    tag_12:\n      pop\n        /* \"contracts-quiz/230530-QUIZ9.sol\":1123:1134  isUpperCase */\n      dup3\n        /* \"contracts-quiz/230530-QUIZ9.sol\":1123:1146  isUpperCase && isNumber */\n      dup1\n      iszero\n      tag_27\n      jumpi\n      pop\n        /* \"contracts-quiz/230530-QUIZ9.sol\":1138:1146  isNumber */\n      dup1\n        /* \"contracts-quiz/230530-QUIZ9.sol\":1123:1146  isUpperCase && isNumber */\n    tag_27:\n        /* \"contracts-quiz/230530-QUIZ9.sol\":1123:1161  isUpperCase && isNumber && isLowerCase */\n      dup1\n      iszero\n      tag_28\n      jumpi\n      pop\n        /* \"contracts-quiz/230530-QUIZ9.sol\":1150:1161  isLowerCase */\n      dup2\n        /* \"contracts-quiz/230530-QUIZ9.sol\":1123:1161  isUpperCase && isNumber && isLowerCase */\n    tag_28:\n        /* \"contracts-quiz/230530-QUIZ9.sol\":1119:1242  if (isUpperCase && isNumber && isLowerCase) {... */\n      iszero\n      tag_29\n      jumpi\n        /* \"contracts-quiz/230530-QUIZ9.sol\":1184:1188  true */\n      0x01\n        /* \"contracts-quiz/230530-QUIZ9.sol\":1177:1188  return true */\n      swap4\n      pop\n      pop\n      pop\n      pop\n      jump(tag_10)\n        /* \"contracts-quiz/230530-QUIZ9.sol\":1119:1242  if (isUpperCase && isNumber && isLowerCase) {... */\n    tag_29:\n        /* \"contracts-quiz/230530-QUIZ9.sol\":1226:1231  false */\n      0x00\n        /* \"contracts-quiz/230530-QUIZ9.sol\":1219:1231  return false */\n      swap4\n      pop\n      pop\n      pop\n      pop\n        /* \"contracts-quiz/230530-QUIZ9.sol\":532:1249  function setPW(string memory _pw) public pure returns(bool) {... */\n    tag_10:\n      swap2\n      swap1\n      pop\n      jump\t// out\n        /* \"#utility.yul\":7:82   */\n    tag_31:\n        /* \"#utility.yul\":40:46   */\n      0x00\n        /* \"#utility.yul\":73:75   */\n      0x40\n        /* \"#utility.yul\":67:76   */\n      mload\n        /* \"#utility.yul\":57:76   */\n      swap1\n      pop\n        /* \"#utility.yul\":7:82   */\n      swap1\n      jump\t// out\n        /* \"#utility.yul\":88:205   */\n    tag_32:\n        /* \"#utility.yul\":197:198   */\n      0x00\n        /* \"#utility.yul\":194:195   */\n      dup1\n        /* \"#utility.yul\":187:199   */\n      revert\n        /* \"#utility.yul\":211:328   */\n    tag_33:\n        /* \"#utility.yul\":320:321   */\n      0x00\n        /* \"#utility.yul\":317:318   */\n      dup1\n        /* \"#utility.yul\":310:322   */\n      revert\n        /* \"#utility.yul\":334:451   */\n    tag_34:\n        /* \"#utility.yul\":443:444   */\n      0x00\n        /* \"#utility.yul\":440:441   */\n      dup1\n        /* \"#utility.yul\":433:445   */\n      revert\n        /* \"#utility.yul\":457:574   */\n    tag_35:\n        /* \"#utility.yul\":566:567   */\n      0x00\n        /* \"#utility.yul\":563:564   */\n      dup1\n        /* \"#utility.yul\":556:568   */\n      revert\n        /* \"#utility.yul\":580:682   */\n    tag_36:\n        /* \"#utility.yul\":621:627   */\n      0x00\n        /* \"#utility.yul\":672:674   */\n      0x1f\n        /* \"#utility.yul\":668:675   */\n      not\n        /* \"#utility.yul\":663:665   */\n      0x1f\n        /* \"#utility.yul\":656:661   */\n      dup4\n        /* \"#utility.yul\":652:666   */\n      add\n        /* \"#utility.yul\":648:676   */\n      and\n        /* \"#utility.yul\":638:676   */\n      swap1\n      pop\n        /* \"#utility.yul\":580:682   */\n      swap2\n      swap1\n      pop\n      jump\t// out\n        /* \"#utility.yul\":688:868   */\n    tag_37:\n        /* \"#utility.yul\":736:813   */\n      0x4e487b7100000000000000000000000000000000000000000000000000000000\n        /* \"#utility.yul\":733:734   */\n      0x00\n        /* \"#utility.yul\":726:814   */\n      mstore\n        /* \"#utility.yul\":833:837   */\n      0x41\n        /* \"#utility.yul\":830:831   */\n      0x04\n        /* \"#utility.yul\":823:838   */\n      mstore\n        /* \"#utility.yul\":857:861   */\n      0x24\n        /* \"#utility.yul\":854:855   */\n      0x00\n        /* \"#utility.yul\":847:862   */\n      revert\n        /* \"#utility.yul\":874:1155   */\n    tag_38:\n        /* \"#utility.yul\":957:984   */\n      tag_57\n        /* \"#utility.yul\":979:983   */\n      dup3\n        /* \"#utility.yul\":957:984   */\n      tag_36\n      jump\t// in\n    tag_57:\n        /* \"#utility.yul\":949:955   */\n      dup2\n        /* \"#utility.yul\":945:985   */\n      add\n        /* \"#utility.yul\":1087:1093   */\n      dup2\n        /* \"#utility.yul\":1075:1085   */\n      dup2\n        /* \"#utility.yul\":1072:1094   */\n      lt\n        /* \"#utility.yul\":1051:1069   */\n      0xffffffffffffffff\n        /* \"#utility.yul\":1039:1049   */\n      dup3\n        /* \"#utility.yul\":1036:1070   */\n      gt\n        /* \"#utility.yul\":1033:1095   */\n      or\n        /* \"#utility.yul\":1030:1118   */\n      iszero\n      tag_58\n      jumpi\n        /* \"#utility.yul\":1098:1116   */\n      tag_59\n      tag_37\n      jump\t// in\n    tag_59:\n        /* \"#utility.yul\":1030:1118   */\n    tag_58:\n        /* \"#utility.yul\":1138:1148   */\n      dup1\n        /* \"#utility.yul\":1134:1136   */\n      0x40\n        /* \"#utility.yul\":1127:1149   */\n      mstore\n        /* \"#utility.yul\":917:1155   */\n      pop\n        /* \"#utility.yul\":874:1155   */\n      pop\n      pop\n      jump\t// out\n        /* \"#utility.yul\":1161:1290   */\n    tag_39:\n        /* \"#utility.yul\":1195:1201   */\n      0x00\n        /* \"#utility.yul\":1222:1242   */\n      tag_61\n      tag_31\n      jump\t// in\n    tag_61:\n        /* \"#utility.yul\":1212:1242   */\n      swap1\n      pop\n        /* \"#utility.yul\":1251:1284   */\n      tag_62\n        /* \"#utility.yul\":1279:1283   */\n      dup3\n        /* \"#utility.yul\":1271:1277   */\n      dup3\n        /* \"#utility.yul\":1251:1284   */\n      tag_38\n      jump\t// in\n    tag_62:\n        /* \"#utility.yul\":1161:1290   */\n      swap2\n      swap1\n      pop\n      jump\t// out\n        /* \"#utility.yul\":1296:1604   */\n    tag_40:\n        /* \"#utility.yul\":1358:1362   */\n      0x00\n        /* \"#utility.yul\":1448:1466   */\n      0xffffffffffffffff\n        /* \"#utility.yul\":1440:1446   */\n      dup3\n        /* \"#utility.yul\":1437:1467   */\n      gt\n        /* \"#utility.yul\":1434:1490   */\n      iszero\n      tag_64\n      jumpi\n        /* \"#utility.yul\":1470:1488   */\n      tag_65\n      tag_37\n      jump\t// in\n    tag_65:\n        /* \"#utility.yul\":1434:1490   */\n    tag_64:\n        /* \"#utility.yul\":1508:1537   */\n      tag_66\n        /* \"#utility.yul\":1530:1536   */\n      dup3\n        /* \"#utility.yul\":1508:1537   */\n      tag_36\n      jump\t// in\n    tag_66:\n        /* \"#utility.yul\":1500:1537   */\n      swap1\n      pop\n        /* \"#utility.yul\":1592:1596   */\n      0x20\n        /* \"#utility.yul\":1586:1590   */\n      dup2\n        /* \"#utility.yul\":1582:1597   */\n      add\n        /* \"#utility.yul\":1574:1597   */\n      swap1\n      pop\n        /* \"#utility.yul\":1296:1604   */\n      swap2\n      swap1\n      pop\n      jump\t// out\n        /* \"#utility.yul\":1610:1756   */\n    tag_41:\n        /* \"#utility.yul\":1707:1713   */\n      dup3\n        /* \"#utility.yul\":1702:1705   */\n      dup2\n        /* \"#utility.yul\":1697:1700   */\n      dup4\n        /* \"#utility.yul\":1684:1714   */\n      calldatacopy\n        /* \"#utility.yul\":1748:1749   */\n      0x00\n        /* \"#utility.yul\":1739:1745   */\n      dup4\n        /* \"#utility.yul\":1734:1737   */\n      dup4\n        /* \"#utility.yul\":1730:1746   */\n      add\n        /* \"#utility.yul\":1723:1750   */\n      mstore\n        /* \"#utility.yul\":1610:1756   */\n      pop\n      pop\n      pop\n      jump\t// out\n        /* \"#utility.yul\":1762:2187   */\n    tag_42:\n        /* \"#utility.yul\":1840:1845   */\n      0x00\n        /* \"#utility.yul\":1865:1931   */\n      tag_69\n        /* \"#utility.yul\":1881:1930   */\n      tag_70\n        /* \"#utility.yul\":1923:1929   */\n      dup5\n        /* \"#utility.yul\":1881:1930   */\n      tag_40\n      jump\t// in\n    tag_70:\n        /* \"#utility.yul\":1865:1931   */\n      tag_39\n      jump\t// in\n    tag_69:\n        /* \"#utility.yul\":1856:1931   */\n      swap1\n      pop\n        /* \"#utility.yul\":1954:1960   */\n      dup3\n        /* \"#utility.yul\":1947:1952   */\n      dup2\n        /* \"#utility.yul\":1940:1961   */\n      mstore\n        /* \"#utility.yul\":1992:1996   */\n      0x20\n        /* \"#utility.yul\":1985:1990   */\n      dup2\n        /* \"#utility.yul\":1981:1997   */\n      add\n        /* \"#utility.yul\":2030:2033   */\n      dup5\n        /* \"#utility.yul\":2021:2027   */\n      dup5\n        /* \"#utility.yul\":2016:2019   */\n      dup5\n        /* \"#utility.yul\":2012:2028   */\n      add\n        /* \"#utility.yul\":2009:2034   */\n      gt\n        /* \"#utility.yul\":2006:2118   */\n      iszero\n      tag_71\n      jumpi\n        /* \"#utility.yul\":2037:2116   */\n      tag_72\n      tag_35\n      jump\t// in\n    tag_72:\n        /* \"#utility.yul\":2006:2118   */\n    tag_71:\n        /* \"#utility.yul\":2127:2181   */\n      tag_73\n        /* \"#utility.yul\":2174:2180   */\n      dup5\n        /* \"#utility.yul\":2169:2172   */\n      dup3\n        /* \"#utility.yul\":2164:2167   */\n      dup6\n        /* \"#utility.yul\":2127:2181   */\n      tag_41\n      jump\t// in\n    tag_73:\n        /* \"#utility.yul\":1846:2187   */\n      pop\n        /* \"#utility.yul\":1762:2187   */\n      swap4\n      swap3\n      pop\n      pop\n      pop\n      jump\t// out\n        /* \"#utility.yul\":2207:2547   */\n    tag_43:\n        /* \"#utility.yul\":2263:2268   */\n      0x00\n        /* \"#utility.yul\":2312:2315   */\n      dup3\n        /* \"#utility.yul\":2305:2309   */\n      0x1f\n        /* \"#utility.yul\":2297:2303   */\n      dup4\n        /* \"#utility.yul\":2293:2310   */\n      add\n        /* \"#utility.yul\":2289:2316   */\n      slt\n        /* \"#utility.yul\":2279:2401   */\n      tag_75\n      jumpi\n        /* \"#utility.yul\":2320:2399   */\n      tag_76\n      tag_34\n      jump\t// in\n    tag_76:\n        /* \"#utility.yul\":2279:2401   */\n    tag_75:\n        /* \"#utility.yul\":2437:2443   */\n      dup2\n        /* \"#utility.yul\":2424:2444   */\n      calldataload\n        /* \"#utility.yul\":2462:2541   */\n      tag_77\n        /* \"#utility.yul\":2537:2540   */\n      dup5\n        /* \"#utility.yul\":2529:2535   */\n      dup3\n        /* \"#utility.yul\":2522:2526   */\n      0x20\n        /* \"#utility.yul\":2514:2520   */\n      dup7\n        /* \"#utility.yul\":2510:2527   */\n      add\n        /* \"#utility.yul\":2462:2541   */\n      tag_42\n      jump\t// in\n    tag_77:\n        /* \"#utility.yul\":2453:2541   */\n      swap2\n      pop\n        /* \"#utility.yul\":2269:2547   */\n      pop\n        /* \"#utility.yul\":2207:2547   */\n      swap3\n      swap2\n      pop\n      pop\n      jump\t// out\n        /* \"#utility.yul\":2553:3062   */\n    tag_6:\n        /* \"#utility.yul\":2622:2628   */\n      0x00\n        /* \"#utility.yul\":2671:2673   */\n      0x20\n        /* \"#utility.yul\":2659:2668   */\n      dup3\n        /* \"#utility.yul\":2650:2657   */\n      dup5\n        /* \"#utility.yul\":2646:2669   */\n      sub\n        /* \"#utility.yul\":2642:2674   */\n      slt\n        /* \"#utility.yul\":2639:2758   */\n      iszero\n      tag_79\n      jumpi\n        /* \"#utility.yul\":2677:2756   */\n      tag_80\n      tag_32\n      jump\t// in\n    tag_80:\n        /* \"#utility.yul\":2639:2758   */\n    tag_79:\n        /* \"#utility.yul\":2825:2826   */\n      0x00\n        /* \"#utility.yul\":2814:2823   */\n      dup3\n        /* \"#utility.yul\":2810:2827   */\n      add\n        /* \"#utility.yul\":2797:2828   */\n      calldataload\n        /* \"#utility.yul\":2855:2873   */\n      0xffffffffffffffff\n        /* \"#utility.yul\":2847:2853   */\n      dup2\n        /* \"#utility.yul\":2844:2874   */\n      gt\n        /* \"#utility.yul\":2841:2958   */\n      iszero\n      tag_81\n      jumpi\n        /* \"#utility.yul\":2877:2956   */\n      tag_82\n      tag_33\n      jump\t// in\n    tag_82:\n        /* \"#utility.yul\":2841:2958   */\n    tag_81:\n        /* \"#utility.yul\":2982:3045   */\n      tag_83\n        /* \"#utility.yul\":3037:3044   */\n      dup5\n        /* \"#utility.yul\":3028:3034   */\n      dup3\n        /* \"#utility.yul\":3017:3026   */\n      dup6\n        /* \"#utility.yul\":3013:3035   */\n      add\n        /* \"#utility.yul\":2982:3045   */\n      tag_43\n      jump\t// in\n    tag_83:\n        /* \"#utility.yul\":2972:3045   */\n      swap2\n      pop\n        /* \"#utility.yul\":2768:3055   */\n      pop\n        /* \"#utility.yul\":2553:3062   */\n      swap3\n      swap2\n      pop\n      pop\n      jump\t// out\n        /* \"#utility.yul\":3068:3158   */\n    tag_44:\n        /* \"#utility.yul\":3102:3109   */\n      0x00\n        /* \"#utility.yul\":3145:3150   */\n      dup2\n        /* \"#utility.yul\":3138:3151   */\n      iszero\n        /* \"#utility.yul\":3131:3152   */\n      iszero\n        /* \"#utility.yul\":3120:3152   */\n      swap1\n      pop\n        /* \"#utility.yul\":3068:3158   */\n      swap2\n      swap1\n      pop\n      jump\t// out\n        /* \"#utility.yul\":3164:3273   */\n    tag_45:\n        /* \"#utility.yul\":3245:3266   */\n      tag_86\n        /* \"#utility.yul\":3260:3265   */\n      dup2\n        /* \"#utility.yul\":3245:3266   */\n      tag_44\n      jump\t// in\n    tag_86:\n        /* \"#utility.yul\":3240:3243   */\n      dup3\n        /* \"#utility.yul\":3233:3267   */\n      mstore\n        /* \"#utility.yul\":3164:3273   */\n      pop\n      pop\n      jump\t// out\n        /* \"#utility.yul\":3279:3489   */\n    tag_9:\n        /* \"#utility.yul\":3366:3370   */\n      0x00\n        /* \"#utility.yul\":3404:3406   */\n      0x20\n        /* \"#utility.yul\":3393:3402   */\n      dup3\n        /* \"#utility.yul\":3389:3407   */\n      add\n        /* \"#utility.yul\":3381:3407   */\n      swap1\n      pop\n        /* \"#utility.yul\":3417:3482   */\n      tag_88\n        /* \"#utility.yul\":3479:3480   */\n      0x00\n        /* \"#utility.yul\":3468:3477   */\n      dup4\n        /* \"#utility.yul\":3464:3481   */\n      add\n        /* \"#utility.yul\":3455:3461   */\n      dup5\n        /* \"#utility.yul\":3417:3482   */\n      tag_45\n      jump\t// in\n    tag_88:\n        /* \"#utility.yul\":3279:3489   */\n      swap3\n      swap2\n      pop\n      pop\n      jump\t// out\n        /* \"#utility.yul\":3495:3675   */\n    tag_16:\n        /* \"#utility.yul\":3543:3620   */\n      0x4e487b7100000000000000000000000000000000000000000000000000000000\n        /* \"#utility.yul\":3540:3541   */\n      0x00\n        /* \"#utility.yul\":3533:3621   */\n      mstore\n        /* \"#utility.yul\":3640:3644   */\n      0x32\n        /* \"#utility.yul\":3637:3638   */\n      0x04\n        /* \"#utility.yul\":3630:3645   */\n      mstore\n        /* \"#utility.yul\":3664:3668   */\n      0x24\n        /* \"#utility.yul\":3661:3662   */\n      0x00\n        /* \"#utility.yul\":3654:3669   */\n      revert\n        /* \"#utility.yul\":3681:3861   */\n    tag_46:\n        /* \"#utility.yul\":3729:3806   */\n      0x4e487b7100000000000000000000000000000000000000000000000000000000\n        /* \"#utility.yul\":3726:3727   */\n      0x00\n        /* \"#utility.yul\":3719:3807   */\n      mstore\n        /* \"#utility.yul\":3826:3830   */\n      0x11\n        /* \"#utility.yul\":3823:3824   */\n      0x04\n        /* \"#utility.yul\":3816:3831   */\n      mstore\n        /* \"#utility.yul\":3850:3854   */\n      0x24\n        /* \"#utility.yul\":3847:3848   */\n      0x00\n        /* \"#utility.yul\":3840:3855   */\n      revert\n        /* \"#utility.yul\":3867:3944   */\n    tag_47:\n        /* \"#utility.yul\":3904:3911   */\n      0x00\n        /* \"#utility.yul\":3933:3938   */\n      dup2\n        /* \"#utility.yul\":3922:3938   */\n      swap1\n      pop\n        /* \"#utility.yul\":3867:3944   */\n      swap2\n      swap1\n      pop\n      jump\t// out\n        /* \"#utility.yul\":3950:4183   */\n    tag_26:\n        /* \"#utility.yul\":3989:3992   */\n      0x00\n        /* \"#utility.yul\":4012:4036   */\n      tag_93\n        /* \"#utility.yul\":4030:4035   */\n      dup3\n        /* \"#utility.yul\":4012:4036   */\n      tag_47\n      jump\t// in\n    tag_93:\n        /* \"#utility.yul\":4003:4036   */\n      swap2\n      pop\n        /* \"#utility.yul\":4058:4124   */\n      0xffffffffffffffffffffffffffffffffffffffffffffffffffffffffffffffff\n        /* \"#utility.yul\":4051:4056   */\n      dup3\n        /* \"#utility.yul\":4048:4125   */\n      sub\n        /* \"#utility.yul\":4045:4148   */\n      tag_94\n      jumpi\n        /* \"#utility.yul\":4128:4146   */\n      tag_95\n      tag_46\n      jump\t// in\n    tag_95:\n        /* \"#utility.yul\":4045:4148   */\n    tag_94:\n        /* \"#utility.yul\":4175:4176   */\n      0x01\n        /* \"#utility.yul\":4168:4173   */\n      dup3\n        /* \"#utility.yul\":4164:4177   */\n      add\n        /* \"#utility.yul\":4157:4177   */\n      swap1\n      pop\n        /* \"#utility.yul\":3950:4183   */\n      swap2\n      swap1\n      pop\n      jump\t// out\n\n    auxdata: 0xa2646970667358221220ff80abece165febb25b3f60c6be2d9d1f432bee1669548bd8627eba2caa4d53964736f6c63430008120033\n}\n",
				"bytecode": {
					"linkReferences": {},
					"object": "608060405234801561001057600080fd5b5061041b806100206000396000f3fe608060405234801561001057600080fd5b506004361061002b5760003560e01c8063ccd7301614610030575b600080fd5b61004a600480360381019061004591906102b6565b610060565b604051610057919061031a565b60405180910390f35b60008060008060005b855181101561012a57600086828151811061008757610086610335565b5b602001015160f81c60f81b905060278160f81c60ff16111580156100b25750601e8160f81c60ff1610155b156100c05760019250610116565b607a8160f81c60ff16111580156100de575060618160f81c60ff1610155b156100ec5760019350610115565b605a8160f81c60ff161115801561010a575060418160f81c60ff1610155b1561011457600194505b5b5b5080806101229061039d565b915050610069565b508280156101355750805b801561013e5750815b1561014f5760019350505050610157565b600093505050505b919050565b6000604051905090565b600080fd5b600080fd5b600080fd5b600080fd5b6000601f19601f8301169050919050565b7f4e487b7100000000000000000000000000000000000000000000000000000000600052604160045260246000fd5b6101c38261017a565b810181811067ffffffffffffffff821117156101e2576101e161018b565b5b80604052505050565b60006101f561015c565b905061020182826101ba565b919050565b600067ffffffffffffffff8211156102215761022061018b565b5b61022a8261017a565b9050602081019050919050565b82818337600083830152505050565b600061025961025484610206565b6101eb565b90508281526020810184848401111561027557610274610175565b5b610280848285610237565b509392505050565b600082601f83011261029d5761029c610170565b5b81356102ad848260208601610246565b91505092915050565b6000602082840312156102cc576102cb610166565b5b600082013567ffffffffffffffff8111156102ea576102e961016b565b5b6102f684828501610288565b91505092915050565b60008115159050919050565b610314816102ff565b82525050565b600060208201905061032f600083018461030b565b92915050565b7f4e487b7100000000000000000000000000000000000000000000000000000000600052603260045260246000fd5b7f4e487b7100000000000000000000000000000000000000000000000000000000600052601160045260246000fd5b6000819050919050565b60006103a882610393565b91507fffffffffffffffffffffffffffffffffffffffffffffffffffffffffffffffff82036103da576103d9610364565b5b60018201905091905056fea2646970667358221220ff80abece165febb25b3f60c6be2d9d1f432bee1669548bd8627eba2caa4d53964736f6c63430008120033",
					"opcodes": "PUSH1 0x80 PUSH1 0x40 MSTORE CALLVALUE DUP1 ISZERO PUSH2 0x10 JUMPI PUSH1 0x0 DUP1 REVERT JUMPDEST POP PUSH2 0x41B DUP1 PUSH2 0x20 PUSH1 0x0 CODECOPY PUSH1 0x0 RETURN INVALID PUSH1 0x80 PUSH1 0x40 MSTORE CALLVALUE DUP1 ISZERO PUSH2 0x10 JUMPI PUSH1 0x0 DUP1 REVERT JUMPDEST POP PUSH1 0x4 CALLDATASIZE LT PUSH2 0x2B JUMPI PUSH1 0x0 CALLDATALOAD PUSH1 0xE0 SHR DUP1 PUSH4 0xCCD73016 EQ PUSH2 0x30 JUMPI JUMPDEST PUSH1 0x0 DUP1 REVERT JUMPDEST PUSH2 0x4A PUSH1 0x4 DUP1 CALLDATASIZE SUB DUP2 ADD SWAP1 PUSH2 0x45 SWAP2 SWAP1 PUSH2 0x2B6 JUMP JUMPDEST PUSH2 0x60 JUMP JUMPDEST PUSH1 0x40 MLOAD PUSH2 0x57 SWAP2 SWAP1 PUSH2 0x31A JUMP JUMPDEST PUSH1 0x40 MLOAD DUP1 SWAP2 SUB SWAP1 RETURN JUMPDEST PUSH1 0x0 DUP1 PUSH1 0x0 DUP1 PUSH1 0x0 JUMPDEST DUP6 MLOAD DUP2 LT ISZERO PUSH2 0x12A JUMPI PUSH1 0x0 DUP7 DUP3 DUP2 MLOAD DUP2 LT PUSH2 0x87 JUMPI PUSH2 0x86 PUSH2 0x335 JUMP JUMPDEST JUMPDEST PUSH1 0x20 ADD ADD MLOAD PUSH1 0xF8 SHR PUSH1 0xF8 SHL SWAP1 POP PUSH1 0x27 DUP2 PUSH1 0xF8 SHR PUSH1 0xFF AND GT ISZERO DUP1 ISZERO PUSH2 0xB2 JUMPI POP PUSH1 0x1E DUP2 PUSH1 0xF8 SHR PUSH1 0xFF AND LT ISZERO JUMPDEST ISZERO PUSH2 0xC0 JUMPI PUSH1 0x1 SWAP3 POP PUSH2 0x116 JUMP JUMPDEST PUSH1 0x7A DUP2 PUSH1 0xF8 SHR PUSH1 0xFF AND GT ISZERO DUP1 ISZERO PUSH2 0xDE JUMPI POP PUSH1 0x61 DUP2 PUSH1 0xF8 SHR PUSH1 0xFF AND LT ISZERO JUMPDEST ISZERO PUSH2 0xEC JUMPI PUSH1 0x1 SWAP4 POP PUSH2 0x115 JUMP JUMPDEST PUSH1 0x5A DUP2 PUSH1 0xF8 SHR PUSH1 0xFF AND GT ISZERO DUP1 ISZERO PUSH2 0x10A JUMPI POP PUSH1 0x41 DUP2 PUSH1 0xF8 SHR PUSH1 0xFF AND LT ISZERO JUMPDEST ISZERO PUSH2 0x114 JUMPI PUSH1 0x1 SWAP5 POP JUMPDEST JUMPDEST JUMPDEST POP DUP1 DUP1 PUSH2 0x122 SWAP1 PUSH2 0x39D JUMP JUMPDEST SWAP2 POP POP PUSH2 0x69 JUMP JUMPDEST POP DUP3 DUP1 ISZERO PUSH2 0x135 JUMPI POP DUP1 JUMPDEST DUP1 ISZERO PUSH2 0x13E JUMPI POP DUP2 JUMPDEST ISZERO PUSH2 0x14F JUMPI PUSH1 0x1 SWAP4 POP POP POP POP PUSH2 0x157 JUMP JUMPDEST PUSH1 0x0 SWAP4 POP POP POP POP JUMPDEST SWAP2 SWAP1 POP JUMP JUMPDEST PUSH1 0x0 PUSH1 0x40 MLOAD SWAP1 POP SWAP1 JUMP JUMPDEST PUSH1 0x0 DUP1 REVERT JUMPDEST PUSH1 0x0 DUP1 REVERT JUMPDEST PUSH1 0x0 DUP1 REVERT JUMPDEST PUSH1 0x0 DUP1 REVERT JUMPDEST PUSH1 0x0 PUSH1 0x1F NOT PUSH1 0x1F DUP4 ADD AND SWAP1 POP SWAP2 SWAP1 POP JUMP JUMPDEST PUSH32 0x4E487B7100000000000000000000000000000000000000000000000000000000 PUSH1 0x0 MSTORE PUSH1 0x41 PUSH1 0x4 MSTORE PUSH1 0x24 PUSH1 0x0 REVERT JUMPDEST PUSH2 0x1C3 DUP3 PUSH2 0x17A JUMP JUMPDEST DUP2 ADD DUP2 DUP2 LT PUSH8 0xFFFFFFFFFFFFFFFF DUP3 GT OR ISZERO PUSH2 0x1E2 JUMPI PUSH2 0x1E1 PUSH2 0x18B JUMP JUMPDEST JUMPDEST DUP1 PUSH1 0x40 MSTORE POP POP POP JUMP JUMPDEST PUSH1 0x0 PUSH2 0x1F5 PUSH2 0x15C JUMP JUMPDEST SWAP1 POP PUSH2 0x201 DUP3 DUP3 PUSH2 0x1BA JUMP JUMPDEST SWAP2 SWAP1 POP JUMP JUMPDEST PUSH1 0x0 PUSH8 0xFFFFFFFFFFFFFFFF DUP3 GT ISZERO PUSH2 0x221 JUMPI PUSH2 0x220 PUSH2 0x18B JUMP JUMPDEST JUMPDEST PUSH2 0x22A DUP3 PUSH2 0x17A JUMP JUMPDEST SWAP1 POP PUSH1 0x20 DUP2 ADD SWAP1 POP SWAP2 SWAP1 POP JUMP JUMPDEST DUP3 DUP2 DUP4 CALLDATACOPY PUSH1 0x0 DUP4 DUP4 ADD MSTORE POP POP POP JUMP JUMPDEST PUSH1 0x0 PUSH2 0x259 PUSH2 0x254 DUP5 PUSH2 0x206 JUMP JUMPDEST PUSH2 0x1EB JUMP JUMPDEST SWAP1 POP DUP3 DUP2 MSTORE PUSH1 0x20 DUP2 ADD DUP5 DUP5 DUP5 ADD GT ISZERO PUSH2 0x275 JUMPI PUSH2 0x274 PUSH2 0x175 JUMP JUMPDEST JUMPDEST PUSH2 0x280 DUP5 DUP3 DUP6 PUSH2 0x237 JUMP JUMPDEST POP SWAP4 SWAP3 POP POP POP JUMP JUMPDEST PUSH1 0x0 DUP3 PUSH1 0x1F DUP4 ADD SLT PUSH2 0x29D JUMPI PUSH2 0x29C PUSH2 0x170 JUMP JUMPDEST JUMPDEST DUP2 CALLDATALOAD PUSH2 0x2AD DUP5 DUP3 PUSH1 0x20 DUP7 ADD PUSH2 0x246 JUMP JUMPDEST SWAP2 POP POP SWAP3 SWAP2 POP POP JUMP JUMPDEST PUSH1 0x0 PUSH1 0x20 DUP3 DUP5 SUB SLT ISZERO PUSH2 0x2CC JUMPI PUSH2 0x2CB PUSH2 0x166 JUMP JUMPDEST JUMPDEST PUSH1 0x0 DUP3 ADD CALLDATALOAD PUSH8 0xFFFFFFFFFFFFFFFF DUP2 GT ISZERO PUSH2 0x2EA JUMPI PUSH2 0x2E9 PUSH2 0x16B JUMP JUMPDEST JUMPDEST PUSH2 0x2F6 DUP5 DUP3 DUP6 ADD PUSH2 0x288 JUMP JUMPDEST SWAP2 POP POP SWAP3 SWAP2 POP POP JUMP JUMPDEST PUSH1 0x0 DUP2 ISZERO ISZERO SWAP1 POP SWAP2 SWAP1 POP JUMP JUMPDEST PUSH2 0x314 DUP2 PUSH2 0x2FF JUMP JUMPDEST DUP3 MSTORE POP POP JUMP JUMPDEST PUSH1 0x0 PUSH1 0x20 DUP3 ADD SWAP1 POP PUSH2 0x32F PUSH1 0x0 DUP4 ADD DUP5 PUSH2 0x30B JUMP JUMPDEST SWAP3 SWAP2 POP POP JUMP JUMPDEST PUSH32 0x4E487B7100000000000000000000000000000000000000000000000000000000 PUSH1 0x0 MSTORE PUSH1 0x32 PUSH1 0x4 MSTORE PUSH1 0x24 PUSH1 0x0 REVERT JUMPDEST PUSH32 0x4E487B7100000000000000000000000000000000000000000000000000000000 PUSH1 0x0 MSTORE PUSH1 0x11 PUSH1 0x4 MSTORE PUSH1 0x24 PUSH1 0x0 REVERT JUMPDEST PUSH1 0x0 DUP2 SWAP1 POP SWAP2 SWAP1 POP JUMP JUMPDEST PUSH1 0x0 PUSH2 0x3A8 DUP3 PUSH2 0x393 JUMP JUMPDEST SWAP2 POP PUSH32 0xFFFFFFFFFFFFFFFFFFFFFFFFFFFFFFFFFFFFFFFFFFFFFFFFFFFFFFFFFFFFFFFF DUP3 SUB PUSH2 0x3DA JUMPI PUSH2 0x3D9 PUSH2 0x364 JUMP JUMPDEST JUMPDEST PUSH1 0x1 DUP3 ADD SWAP1 POP SWAP2 SWAP1 POP JUMP INVALID LOG2 PUSH5 0x6970667358 0x22 SLT KECCAK256 SELFDESTRUCT DUP1 0xAB 0xEC 0xE1 PUSH6 0xFEBB25B3F60C PUSH12 0xE2D9D1F432BEE1669548BD86 0x27 0xEB LOG2 0xCA LOG4 0xD5 CODECOPY PUSH5 0x736F6C6343 STOP ADDMOD SLT STOP CALLER "
				},
				"gasEstimates": {
					"creation": {
						"codeDepositCost": "210200",
						"executionCost": "251",
						"totalCost": "210451"
					},
					"external": {
						"setPW(string)": "infinite"
					}
				},
				"methodIdentifiers": {
					"setPW(string)": "ccd73016"
				}
			},
			"storageLayout": {
				"storage": [],
				"types": null
			},
			"userdoc": {
				"kind": "user",
				"methods": {},
				"version": 1
			}
		}
	}
}