{
	"contracts-quiz/230522-QUIZ7-answer.sol": {
		"Q5": {
			"abi": [
				{
					"inputs": [
						{
							"internalType": "uint256",
							"name": "_n",
							"type": "uint256"
						}
					],
					"name": "divideNumber",
					"outputs": [
						{
							"internalType": "uint256[]",
							"name": "",
							"type": "uint256[]"
						}
					],
					"stateMutability": "pure",
					"type": "function"
				},
				{
					"inputs": [
						{
							"internalType": "uint256",
							"name": "_n",
							"type": "uint256"
						}
					],
					"name": "getLength",
					"outputs": [
						{
							"internalType": "uint256",
							"name": "",
							"type": "uint256"
						}
					],
					"stateMutability": "pure",
					"type": "function"
				}
			],
			"devdoc": {
				"kind": "dev",
				"methods": {},
				"version": 1
			},
			"evm": {
				"assembly": "    /* \"contracts-quiz/230522-QUIZ7-answer.sol\":995:1488  contract Q5 {... */\n  mstore(0x40, 0x80)\n  callvalue\n  dup1\n  iszero\n  tag_1\n  jumpi\n  0x00\n  dup1\n  revert\ntag_1:\n  pop\n  dataSize(sub_0)\n  dup1\n  dataOffset(sub_0)\n  0x00\n  codecopy\n  0x00\n  return\nstop\n\nsub_0: assembly {\n        /* \"contracts-quiz/230522-QUIZ7-answer.sol\":995:1488  contract Q5 {... */\n      mstore(0x40, 0x80)\n      callvalue\n      dup1\n      iszero\n      tag_1\n      jumpi\n      0x00\n      dup1\n      revert\n    tag_1:\n      pop\n      jumpi(tag_2, lt(calldatasize, 0x04))\n      shr(0xe0, calldataload(0x00))\n      dup1\n      0x0986e647\n      eq\n      tag_3\n      jumpi\n      dup1\n      0x2ac45d9c\n      eq\n      tag_4\n      jumpi\n    tag_2:\n      0x00\n      dup1\n      revert\n        /* \"contracts-quiz/230522-QUIZ7-answer.sol\":1282:1486  function getLength(uint _n) public pure returns(uint) {... */\n    tag_3:\n      tag_5\n      0x04\n      dup1\n      calldatasize\n      sub\n      dup2\n      add\n      swap1\n      tag_6\n      swap2\n      swap1\n      tag_7\n      jump\t// in\n    tag_6:\n      tag_8\n      jump\t// in\n    tag_5:\n      mload(0x40)\n      tag_9\n      swap2\n      swap1\n      tag_10\n      jump\t// in\n    tag_9:\n      mload(0x40)\n      dup1\n      swap2\n      sub\n      swap1\n      return\n        /* \"contracts-quiz/230522-QUIZ7-answer.sol\":1013:1276  function divideNumber(uint _n) public pure returns(uint[] memory) {... */\n    tag_4:\n      tag_11\n      0x04\n      dup1\n      calldatasize\n      sub\n      dup2\n      add\n      swap1\n      tag_12\n      swap2\n      swap1\n      tag_7\n      jump\t// in\n    tag_12:\n      tag_13\n      jump\t// in\n    tag_11:\n      mload(0x40)\n      tag_14\n      swap2\n      swap1\n      tag_15\n      jump\t// in\n    tag_14:\n      mload(0x40)\n      dup1\n      swap2\n      sub\n      swap1\n      return\n        /* \"contracts-quiz/230522-QUIZ7-answer.sol\":1282:1486  function getLength(uint _n) public pure returns(uint) {... */\n    tag_8:\n        /* \"contracts-quiz/230522-QUIZ7-answer.sol\":1330:1334  uint */\n      0x00\n        /* \"contracts-quiz/230522-QUIZ7-answer.sol\":1353:1354  0 */\n      dup1\n        /* \"contracts-quiz/230522-QUIZ7-answer.sol\":1349:1351  _n */\n      dup3\n        /* \"contracts-quiz/230522-QUIZ7-answer.sol\":1349:1354  _n==0 */\n      sub\n        /* \"contracts-quiz/230522-QUIZ7-answer.sol\":1346:1389  if(_n==0) {... */\n      tag_17\n      jumpi\n        /* \"contracts-quiz/230522-QUIZ7-answer.sol\":1377:1378  1 */\n      0x01\n        /* \"contracts-quiz/230522-QUIZ7-answer.sol\":1370:1378  return 1 */\n      swap1\n      pop\n      jump(tag_16)\n        /* \"contracts-quiz/230522-QUIZ7-answer.sol\":1346:1389  if(_n==0) {... */\n    tag_17:\n        /* \"contracts-quiz/230522-QUIZ7-answer.sol\":1399:1405  uint a */\n      0x00\n        /* \"contracts-quiz/230522-QUIZ7-answer.sol\":1415:1462  while(_n >= 10**a) {... */\n    tag_18:\n        /* \"contracts-quiz/230522-QUIZ7-answer.sol\":1431:1432  a */\n      dup1\n        /* \"contracts-quiz/230522-QUIZ7-answer.sol\":1427:1429  10 */\n      0x0a\n        /* \"contracts-quiz/230522-QUIZ7-answer.sol\":1427:1432  10**a */\n      tag_20\n      swap2\n      swap1\n      tag_21\n      jump\t// in\n    tag_20:\n        /* \"contracts-quiz/230522-QUIZ7-answer.sol\":1421:1423  _n */\n      dup4\n        /* \"contracts-quiz/230522-QUIZ7-answer.sol\":1421:1432  _n >= 10**a */\n      lt\n        /* \"contracts-quiz/230522-QUIZ7-answer.sol\":1415:1462  while(_n >= 10**a) {... */\n      tag_19\n      jumpi\n        /* \"contracts-quiz/230522-QUIZ7-answer.sol\":1448:1451  a++ */\n      dup1\n      dup1\n      tag_22\n      swap1\n      tag_23\n      jump\t// in\n    tag_22:\n      swap2\n      pop\n      pop\n        /* \"contracts-quiz/230522-QUIZ7-answer.sol\":1415:1462  while(_n >= 10**a) {... */\n      jump(tag_18)\n    tag_19:\n        /* \"contracts-quiz/230522-QUIZ7-answer.sol\":1478:1479  a */\n      dup1\n        /* \"contracts-quiz/230522-QUIZ7-answer.sol\":1471:1479  return a */\n      swap2\n      pop\n      pop\n        /* \"contracts-quiz/230522-QUIZ7-answer.sol\":1282:1486  function getLength(uint _n) public pure returns(uint) {... */\n    tag_16:\n      swap2\n      swap1\n      pop\n      jump\t// out\n        /* \"contracts-quiz/230522-QUIZ7-answer.sol\":1013:1276  function divideNumber(uint _n) public pure returns(uint[] memory) {... */\n    tag_13:\n        /* \"contracts-quiz/230522-QUIZ7-answer.sol\":1064:1077  uint[] memory */\n      0x60\n        /* \"contracts-quiz/230522-QUIZ7-answer.sol\":1089:1104  uint[] memory b */\n      0x00\n        /* \"contracts-quiz/230522-QUIZ7-answer.sol\":1118:1131  getLength(_n) */\n      tag_25\n        /* \"contracts-quiz/230522-QUIZ7-answer.sol\":1128:1130  _n */\n      dup4\n        /* \"contracts-quiz/230522-QUIZ7-answer.sol\":1118:1127  getLength */\n      tag_8\n        /* \"contracts-quiz/230522-QUIZ7-answer.sol\":1118:1131  getLength(_n) */\n      jump\t// in\n    tag_25:\n        /* \"contracts-quiz/230522-QUIZ7-answer.sol\":1107:1132  new uint[](getLength(_n)) */\n      0xffffffffffffffff\n      dup2\n      gt\n      iszero\n      tag_26\n      jumpi\n      tag_27\n      tag_28\n      jump\t// in\n    tag_27:\n    tag_26:\n      mload(0x40)\n      swap1\n      dup1\n      dup3\n      mstore\n      dup1\n      0x20\n      mul\n      0x20\n      add\n      dup3\n      add\n      0x40\n      mstore\n      dup1\n      iszero\n      tag_29\n      jumpi\n      dup2\n      0x20\n      add\n      0x20\n      dup3\n      mul\n      dup1\n      calldatasize\n      dup4\n      calldatacopy\n      dup1\n      dup3\n      add\n      swap2\n      pop\n      pop\n      swap1\n      pop\n    tag_29:\n      pop\n        /* \"contracts-quiz/230522-QUIZ7-answer.sol\":1089:1132  uint[] memory b = new uint[](getLength(_n)) */\n      swap1\n      pop\n        /* \"contracts-quiz/230522-QUIZ7-answer.sol\":1143:1149  uint i */\n      0x00\n        /* \"contracts-quiz/230522-QUIZ7-answer.sol\":1150:1163  getLength(_n) */\n      tag_30\n        /* \"contracts-quiz/230522-QUIZ7-answer.sol\":1160:1162  _n */\n      dup5\n        /* \"contracts-quiz/230522-QUIZ7-answer.sol\":1150:1159  getLength */\n      tag_8\n        /* \"contracts-quiz/230522-QUIZ7-answer.sol\":1150:1163  getLength(_n) */\n      jump\t// in\n    tag_30:\n        /* \"contracts-quiz/230522-QUIZ7-answer.sol\":1143:1163  uint i=getLength(_n) */\n      swap1\n      pop\n        /* \"contracts-quiz/230522-QUIZ7-answer.sol\":1173:1250  while(_n !=0) {... */\n    tag_31:\n        /* \"contracts-quiz/230522-QUIZ7-answer.sol\":1184:1185  0 */\n      0x00\n        /* \"contracts-quiz/230522-QUIZ7-answer.sol\":1179:1181  _n */\n      dup5\n        /* \"contracts-quiz/230522-QUIZ7-answer.sol\":1179:1185  _n !=0 */\n      eq\n        /* \"contracts-quiz/230522-QUIZ7-answer.sol\":1173:1250  while(_n !=0) {... */\n      tag_32\n      jumpi\n        /* \"contracts-quiz/230522-QUIZ7-answer.sol\":1213:1215  10 */\n      0x0a\n        /* \"contracts-quiz/230522-QUIZ7-answer.sol\":1210:1212  _n */\n      dup5\n        /* \"contracts-quiz/230522-QUIZ7-answer.sol\":1210:1215  _n%10 */\n      tag_33\n      swap2\n      swap1\n      tag_34\n      jump\t// in\n    tag_33:\n        /* \"contracts-quiz/230522-QUIZ7-answer.sol\":1201:1202  b */\n      dup3\n        /* \"contracts-quiz/230522-QUIZ7-answer.sol\":1203:1206  --i */\n      dup3\n      tag_35\n      swap1\n      tag_36\n      jump\t// in\n    tag_35:\n      swap3\n      pop\n      dup3\n        /* \"contracts-quiz/230522-QUIZ7-answer.sol\":1201:1207  b[--i] */\n      dup2\n      mload\n      dup2\n      lt\n      tag_37\n      jumpi\n      tag_38\n      tag_39\n      jump\t// in\n    tag_38:\n    tag_37:\n      0x20\n      mul\n      0x20\n      add\n      add\n        /* \"contracts-quiz/230522-QUIZ7-answer.sol\":1201:1215  b[--i] = _n%10 */\n      dup2\n      dup2\n      mstore\n      pop\n      pop\n        /* \"contracts-quiz/230522-QUIZ7-answer.sol\":1237:1239  10 */\n      0x0a\n        /* \"contracts-quiz/230522-QUIZ7-answer.sol\":1234:1236  _n */\n      dup5\n        /* \"contracts-quiz/230522-QUIZ7-answer.sol\":1234:1239  _n/10 */\n      tag_40\n      swap2\n      swap1\n      tag_41\n      jump\t// in\n    tag_40:\n        /* \"contracts-quiz/230522-QUIZ7-answer.sol\":1229:1239  _n = _n/10 */\n      swap4\n      pop\n        /* \"contracts-quiz/230522-QUIZ7-answer.sol\":1173:1250  while(_n !=0) {... */\n      jump(tag_31)\n    tag_32:\n        /* \"contracts-quiz/230522-QUIZ7-answer.sol\":1267:1268  b */\n      dup2\n        /* \"contracts-quiz/230522-QUIZ7-answer.sol\":1259:1269  return (b) */\n      swap3\n      pop\n      pop\n      pop\n        /* \"contracts-quiz/230522-QUIZ7-answer.sol\":1013:1276  function divideNumber(uint _n) public pure returns(uint[] memory) {... */\n      swap2\n      swap1\n      pop\n      jump\t// out\n        /* \"#utility.yul\":88:205   */\n    tag_43:\n        /* \"#utility.yul\":197:198   */\n      0x00\n        /* \"#utility.yul\":194:195   */\n      dup1\n        /* \"#utility.yul\":187:199   */\n      revert\n        /* \"#utility.yul\":334:411   */\n    tag_45:\n        /* \"#utility.yul\":371:378   */\n      0x00\n        /* \"#utility.yul\":400:405   */\n      dup2\n        /* \"#utility.yul\":389:405   */\n      swap1\n      pop\n        /* \"#utility.yul\":334:411   */\n      swap2\n      swap1\n      pop\n      jump\t// out\n        /* \"#utility.yul\":417:539   */\n    tag_46:\n        /* \"#utility.yul\":490:514   */\n      tag_67\n        /* \"#utility.yul\":508:513   */\n      dup2\n        /* \"#utility.yul\":490:514   */\n      tag_45\n      jump\t// in\n    tag_67:\n        /* \"#utility.yul\":483:488   */\n      dup2\n        /* \"#utility.yul\":480:515   */\n      eq\n        /* \"#utility.yul\":470:533   */\n      tag_68\n      jumpi\n        /* \"#utility.yul\":529:530   */\n      0x00\n        /* \"#utility.yul\":526:527   */\n      dup1\n        /* \"#utility.yul\":519:531   */\n      revert\n        /* \"#utility.yul\":470:533   */\n    tag_68:\n        /* \"#utility.yul\":417:539   */\n      pop\n      jump\t// out\n        /* \"#utility.yul\":545:684   */\n    tag_47:\n        /* \"#utility.yul\":591:596   */\n      0x00\n        /* \"#utility.yul\":629:635   */\n      dup2\n        /* \"#utility.yul\":616:636   */\n      calldataload\n        /* \"#utility.yul\":607:636   */\n      swap1\n      pop\n        /* \"#utility.yul\":645:678   */\n      tag_70\n        /* \"#utility.yul\":672:677   */\n      dup2\n        /* \"#utility.yul\":645:678   */\n      tag_46\n      jump\t// in\n    tag_70:\n        /* \"#utility.yul\":545:684   */\n      swap3\n      swap2\n      pop\n      pop\n      jump\t// out\n        /* \"#utility.yul\":690:1019   */\n    tag_7:\n        /* \"#utility.yul\":749:755   */\n      0x00\n        /* \"#utility.yul\":798:800   */\n      0x20\n        /* \"#utility.yul\":786:795   */\n      dup3\n        /* \"#utility.yul\":777:784   */\n      dup5\n        /* \"#utility.yul\":773:796   */\n      sub\n        /* \"#utility.yul\":769:801   */\n      slt\n        /* \"#utility.yul\":766:885   */\n      iszero\n      tag_72\n      jumpi\n        /* \"#utility.yul\":804:883   */\n      tag_73\n      tag_43\n      jump\t// in\n    tag_73:\n        /* \"#utility.yul\":766:885   */\n    tag_72:\n        /* \"#utility.yul\":924:925   */\n      0x00\n        /* \"#utility.yul\":949:1002   */\n      tag_74\n        /* \"#utility.yul\":994:1001   */\n      dup5\n        /* \"#utility.yul\":985:991   */\n      dup3\n        /* \"#utility.yul\":974:983   */\n      dup6\n        /* \"#utility.yul\":970:992   */\n      add\n        /* \"#utility.yul\":949:1002   */\n      tag_47\n      jump\t// in\n    tag_74:\n        /* \"#utility.yul\":939:1002   */\n      swap2\n      pop\n        /* \"#utility.yul\":895:1012   */\n      pop\n        /* \"#utility.yul\":690:1019   */\n      swap3\n      swap2\n      pop\n      pop\n      jump\t// out\n        /* \"#utility.yul\":1025:1143   */\n    tag_48:\n        /* \"#utility.yul\":1112:1136   */\n      tag_76\n        /* \"#utility.yul\":1130:1135   */\n      dup2\n        /* \"#utility.yul\":1112:1136   */\n      tag_45\n      jump\t// in\n    tag_76:\n        /* \"#utility.yul\":1107:1110   */\n      dup3\n        /* \"#utility.yul\":1100:1137   */\n      mstore\n        /* \"#utility.yul\":1025:1143   */\n      pop\n      pop\n      jump\t// out\n        /* \"#utility.yul\":1149:1371   */\n    tag_10:\n        /* \"#utility.yul\":1242:1246   */\n      0x00\n        /* \"#utility.yul\":1280:1282   */\n      0x20\n        /* \"#utility.yul\":1269:1278   */\n      dup3\n        /* \"#utility.yul\":1265:1283   */\n      add\n        /* \"#utility.yul\":1257:1283   */\n      swap1\n      pop\n        /* \"#utility.yul\":1293:1364   */\n      tag_78\n        /* \"#utility.yul\":1361:1362   */\n      0x00\n        /* \"#utility.yul\":1350:1359   */\n      dup4\n        /* \"#utility.yul\":1346:1363   */\n      add\n        /* \"#utility.yul\":1337:1343   */\n      dup5\n        /* \"#utility.yul\":1293:1364   */\n      tag_48\n      jump\t// in\n    tag_78:\n        /* \"#utility.yul\":1149:1371   */\n      swap3\n      swap2\n      pop\n      pop\n      jump\t// out\n        /* \"#utility.yul\":1377:1491   */\n    tag_49:\n        /* \"#utility.yul\":1444:1450   */\n      0x00\n        /* \"#utility.yul\":1478:1483   */\n      dup2\n        /* \"#utility.yul\":1472:1484   */\n      mload\n        /* \"#utility.yul\":1462:1484   */\n      swap1\n      pop\n        /* \"#utility.yul\":1377:1491   */\n      swap2\n      swap1\n      pop\n      jump\t// out\n        /* \"#utility.yul\":1497:1681   */\n    tag_50:\n        /* \"#utility.yul\":1596:1607   */\n      0x00\n        /* \"#utility.yul\":1630:1636   */\n      dup3\n        /* \"#utility.yul\":1625:1628   */\n      dup3\n        /* \"#utility.yul\":1618:1637   */\n      mstore\n        /* \"#utility.yul\":1670:1674   */\n      0x20\n        /* \"#utility.yul\":1665:1668   */\n      dup3\n        /* \"#utility.yul\":1661:1675   */\n      add\n        /* \"#utility.yul\":1646:1675   */\n      swap1\n      pop\n        /* \"#utility.yul\":1497:1681   */\n      swap3\n      swap2\n      pop\n      pop\n      jump\t// out\n        /* \"#utility.yul\":1687:1819   */\n    tag_51:\n        /* \"#utility.yul\":1754:1758   */\n      0x00\n        /* \"#utility.yul\":1777:1780   */\n      dup2\n        /* \"#utility.yul\":1769:1780   */\n      swap1\n      pop\n        /* \"#utility.yul\":1807:1811   */\n      0x20\n        /* \"#utility.yul\":1802:1805   */\n      dup3\n        /* \"#utility.yul\":1798:1812   */\n      add\n        /* \"#utility.yul\":1790:1812   */\n      swap1\n      pop\n        /* \"#utility.yul\":1687:1819   */\n      swap2\n      swap1\n      pop\n      jump\t// out\n        /* \"#utility.yul\":1825:1933   */\n    tag_52:\n        /* \"#utility.yul\":1902:1926   */\n      tag_83\n        /* \"#utility.yul\":1920:1925   */\n      dup2\n        /* \"#utility.yul\":1902:1926   */\n      tag_45\n      jump\t// in\n    tag_83:\n        /* \"#utility.yul\":1897:1900   */\n      dup3\n        /* \"#utility.yul\":1890:1927   */\n      mstore\n        /* \"#utility.yul\":1825:1933   */\n      pop\n      pop\n      jump\t// out\n        /* \"#utility.yul\":1939:2118   */\n    tag_53:\n        /* \"#utility.yul\":2008:2018   */\n      0x00\n        /* \"#utility.yul\":2029:2075   */\n      tag_85\n        /* \"#utility.yul\":2071:2074   */\n      dup4\n        /* \"#utility.yul\":2063:2069   */\n      dup4\n        /* \"#utility.yul\":2029:2075   */\n      tag_52\n      jump\t// in\n    tag_85:\n        /* \"#utility.yul\":2107:2111   */\n      0x20\n        /* \"#utility.yul\":2102:2105   */\n      dup4\n        /* \"#utility.yul\":2098:2112   */\n      add\n        /* \"#utility.yul\":2084:2112   */\n      swap1\n      pop\n        /* \"#utility.yul\":1939:2118   */\n      swap3\n      swap2\n      pop\n      pop\n      jump\t// out\n        /* \"#utility.yul\":2124:2237   */\n    tag_54:\n        /* \"#utility.yul\":2194:2198   */\n      0x00\n        /* \"#utility.yul\":2226:2230   */\n      0x20\n        /* \"#utility.yul\":2221:2224   */\n      dup3\n        /* \"#utility.yul\":2217:2231   */\n      add\n        /* \"#utility.yul\":2209:2231   */\n      swap1\n      pop\n        /* \"#utility.yul\":2124:2237   */\n      swap2\n      swap1\n      pop\n      jump\t// out\n        /* \"#utility.yul\":2273:3005   */\n    tag_55:\n        /* \"#utility.yul\":2392:2395   */\n      0x00\n        /* \"#utility.yul\":2421:2475   */\n      tag_88\n        /* \"#utility.yul\":2469:2474   */\n      dup3\n        /* \"#utility.yul\":2421:2475   */\n      tag_49\n      jump\t// in\n    tag_88:\n        /* \"#utility.yul\":2491:2577   */\n      tag_89\n        /* \"#utility.yul\":2570:2576   */\n      dup2\n        /* \"#utility.yul\":2565:2568   */\n      dup6\n        /* \"#utility.yul\":2491:2577   */\n      tag_50\n      jump\t// in\n    tag_89:\n        /* \"#utility.yul\":2484:2577   */\n      swap4\n      pop\n        /* \"#utility.yul\":2601:2657   */\n      tag_90\n        /* \"#utility.yul\":2651:2656   */\n      dup4\n        /* \"#utility.yul\":2601:2657   */\n      tag_51\n      jump\t// in\n    tag_90:\n        /* \"#utility.yul\":2680:2687   */\n      dup1\n        /* \"#utility.yul\":2711:2712   */\n      0x00\n        /* \"#utility.yul\":2696:2980   */\n    tag_91:\n        /* \"#utility.yul\":2721:2727   */\n      dup4\n        /* \"#utility.yul\":2718:2719   */\n      dup2\n        /* \"#utility.yul\":2715:2728   */\n      lt\n        /* \"#utility.yul\":2696:2980   */\n      iszero\n      tag_93\n      jumpi\n        /* \"#utility.yul\":2797:2803   */\n      dup2\n        /* \"#utility.yul\":2791:2804   */\n      mload\n        /* \"#utility.yul\":2824:2887   */\n      tag_94\n        /* \"#utility.yul\":2883:2886   */\n      dup9\n        /* \"#utility.yul\":2868:2881   */\n      dup3\n        /* \"#utility.yul\":2824:2887   */\n      tag_53\n      jump\t// in\n    tag_94:\n        /* \"#utility.yul\":2817:2887   */\n      swap8\n      pop\n        /* \"#utility.yul\":2910:2970   */\n      tag_95\n        /* \"#utility.yul\":2963:2969   */\n      dup4\n        /* \"#utility.yul\":2910:2970   */\n      tag_54\n      jump\t// in\n    tag_95:\n        /* \"#utility.yul\":2900:2970   */\n      swap3\n      pop\n        /* \"#utility.yul\":2756:2980   */\n      pop\n        /* \"#utility.yul\":2743:2744   */\n      0x01\n        /* \"#utility.yul\":2740:2741   */\n      dup2\n        /* \"#utility.yul\":2736:2745   */\n      add\n        /* \"#utility.yul\":2731:2745   */\n      swap1\n      pop\n        /* \"#utility.yul\":2696:2980   */\n      jump(tag_91)\n    tag_93:\n        /* \"#utility.yul\":2700:2714   */\n      pop\n        /* \"#utility.yul\":2996:2999   */\n      dup6\n        /* \"#utility.yul\":2989:2999   */\n      swap4\n      pop\n        /* \"#utility.yul\":2397:3005   */\n      pop\n      pop\n      pop\n        /* \"#utility.yul\":2273:3005   */\n      swap3\n      swap2\n      pop\n      pop\n      jump\t// out\n        /* \"#utility.yul\":3011:3384   */\n    tag_15:\n        /* \"#utility.yul\":3154:3158   */\n      0x00\n        /* \"#utility.yul\":3192:3194   */\n      0x20\n        /* \"#utility.yul\":3181:3190   */\n      dup3\n        /* \"#utility.yul\":3177:3195   */\n      add\n        /* \"#utility.yul\":3169:3195   */\n      swap1\n      pop\n        /* \"#utility.yul\":3241:3250   */\n      dup2\n        /* \"#utility.yul\":3235:3239   */\n      dup2\n        /* \"#utility.yul\":3231:3251   */\n      sub\n        /* \"#utility.yul\":3227:3228   */\n      0x00\n        /* \"#utility.yul\":3216:3225   */\n      dup4\n        /* \"#utility.yul\":3212:3229   */\n      add\n        /* \"#utility.yul\":3205:3252   */\n      mstore\n        /* \"#utility.yul\":3269:3377   */\n      tag_97\n        /* \"#utility.yul\":3372:3376   */\n      dup2\n        /* \"#utility.yul\":3363:3369   */\n      dup5\n        /* \"#utility.yul\":3269:3377   */\n      tag_55\n      jump\t// in\n    tag_97:\n        /* \"#utility.yul\":3261:3377   */\n      swap1\n      pop\n        /* \"#utility.yul\":3011:3384   */\n      swap3\n      swap2\n      pop\n      pop\n      jump\t// out\n        /* \"#utility.yul\":3390:3570   */\n    tag_56:\n        /* \"#utility.yul\":3438:3515   */\n      0x4e487b7100000000000000000000000000000000000000000000000000000000\n        /* \"#utility.yul\":3435:3436   */\n      0x00\n        /* \"#utility.yul\":3428:3516   */\n      mstore\n        /* \"#utility.yul\":3535:3539   */\n      0x11\n        /* \"#utility.yul\":3532:3533   */\n      0x04\n        /* \"#utility.yul\":3525:3540   */\n      mstore\n        /* \"#utility.yul\":3559:3563   */\n      0x24\n        /* \"#utility.yul\":3556:3557   */\n      0x00\n        /* \"#utility.yul\":3549:3564   */\n      revert\n        /* \"#utility.yul\":3576:3678   */\n    tag_57:\n        /* \"#utility.yul\":3618:3626   */\n      0x00\n        /* \"#utility.yul\":3665:3670   */\n      dup2\n        /* \"#utility.yul\":3662:3663   */\n      0x01\n        /* \"#utility.yul\":3658:3671   */\n      shr\n        /* \"#utility.yul\":3637:3671   */\n      swap1\n      pop\n        /* \"#utility.yul\":3576:3678   */\n      swap2\n      swap1\n      pop\n      jump\t// out\n        /* \"#utility.yul\":3684:4532   */\n    tag_58:\n        /* \"#utility.yul\":3745:3750   */\n      0x00\n        /* \"#utility.yul\":3752:3756   */\n      dup1\n        /* \"#utility.yul\":3776:3782   */\n      dup3\n        /* \"#utility.yul\":3767:3782   */\n      swap2\n      pop\n        /* \"#utility.yul\":3800:3805   */\n      dup4\n        /* \"#utility.yul\":3791:3805   */\n      swap1\n      pop\n        /* \"#utility.yul\":3814:4526   */\n    tag_101:\n        /* \"#utility.yul\":3835:3836   */\n      0x01\n        /* \"#utility.yul\":3825:3833   */\n      dup6\n        /* \"#utility.yul\":3822:3837   */\n      gt\n        /* \"#utility.yul\":3814:4526   */\n      iszero\n      tag_103\n      jumpi\n        /* \"#utility.yul\":3930:3934   */\n      dup1\n        /* \"#utility.yul\":3925:3928   */\n      dup7\n        /* \"#utility.yul\":3921:3935   */\n      div\n        /* \"#utility.yul\":3915:3919   */\n      dup2\n        /* \"#utility.yul\":3912:3936   */\n      gt\n        /* \"#utility.yul\":3909:3959   */\n      iszero\n      tag_104\n      jumpi\n        /* \"#utility.yul\":3939:3957   */\n      tag_105\n      tag_56\n      jump\t// in\n    tag_105:\n        /* \"#utility.yul\":3909:3959   */\n    tag_104:\n        /* \"#utility.yul\":3989:3990   */\n      0x01\n        /* \"#utility.yul\":3979:3987   */\n      dup6\n        /* \"#utility.yul\":3975:3991   */\n      and\n        /* \"#utility.yul\":3972:4423   */\n      iszero\n      tag_106\n      jumpi\n        /* \"#utility.yul\":4404:4408   */\n      dup1\n        /* \"#utility.yul\":4397:4402   */\n      dup3\n        /* \"#utility.yul\":4393:4409   */\n      mul\n        /* \"#utility.yul\":4384:4409   */\n      swap2\n      pop\n        /* \"#utility.yul\":3972:4423   */\n    tag_106:\n        /* \"#utility.yul\":4454:4458   */\n      dup1\n        /* \"#utility.yul\":4448:4452   */\n      dup2\n        /* \"#utility.yul\":4444:4459   */\n      mul\n        /* \"#utility.yul\":4436:4459   */\n      swap1\n      pop\n        /* \"#utility.yul\":4484:4516   */\n      tag_107\n        /* \"#utility.yul\":4507:4515   */\n      dup6\n        /* \"#utility.yul\":4484:4516   */\n      tag_57\n      jump\t// in\n    tag_107:\n        /* \"#utility.yul\":4472:4516   */\n      swap5\n      pop\n        /* \"#utility.yul\":3814:4526   */\n      jump(tag_101)\n    tag_103:\n        /* \"#utility.yul\":3684:4532   */\n      swap5\n      pop\n      swap5\n      swap3\n      pop\n      pop\n      pop\n      jump\t// out\n        /* \"#utility.yul\":4538:5611   */\n    tag_59:\n        /* \"#utility.yul\":4592:4597   */\n      0x00\n        /* \"#utility.yul\":4783:4791   */\n      dup3\n        /* \"#utility.yul\":4773:4813   */\n      tag_109\n      jumpi\n        /* \"#utility.yul\":4804:4805   */\n      0x01\n        /* \"#utility.yul\":4795:4805   */\n      swap1\n      pop\n        /* \"#utility.yul\":4806:4811   */\n      jump(tag_108)\n        /* \"#utility.yul\":4773:4813   */\n    tag_109:\n        /* \"#utility.yul\":4832:4836   */\n      dup2\n        /* \"#utility.yul\":4822:4858   */\n      tag_110\n      jumpi\n        /* \"#utility.yul\":4849:4850   */\n      0x00\n        /* \"#utility.yul\":4840:4850   */\n      swap1\n      pop\n        /* \"#utility.yul\":4851:4856   */\n      jump(tag_108)\n        /* \"#utility.yul\":4822:4858   */\n    tag_110:\n        /* \"#utility.yul\":4918:4922   */\n      dup2\n        /* \"#utility.yul\":4966:4967   */\n      0x01\n        /* \"#utility.yul\":4961:4988   */\n      dup2\n      eq\n      tag_112\n      jumpi\n        /* \"#utility.yul\":5002:5003   */\n      0x02\n        /* \"#utility.yul\":4997:5188   */\n      dup2\n      eq\n      tag_113\n      jumpi\n        /* \"#utility.yul\":4911:5188   */\n      jump(tag_111)\n        /* \"#utility.yul\":4961:4988   */\n    tag_112:\n        /* \"#utility.yul\":4979:4980   */\n      0x01\n        /* \"#utility.yul\":4970:4980   */\n      swap2\n      pop\n        /* \"#utility.yul\":4981:4986   */\n      pop\n      jump(tag_108)\n        /* \"#utility.yul\":4997:5188   */\n    tag_113:\n        /* \"#utility.yul\":5042:5045   */\n      0xff\n        /* \"#utility.yul\":5032:5040   */\n      dup5\n        /* \"#utility.yul\":5029:5046   */\n      gt\n        /* \"#utility.yul\":5026:5069   */\n      iszero\n      tag_114\n      jumpi\n        /* \"#utility.yul\":5049:5067   */\n      tag_115\n      tag_56\n      jump\t// in\n    tag_115:\n        /* \"#utility.yul\":5026:5069   */\n    tag_114:\n        /* \"#utility.yul\":5098:5106   */\n      dup4\n        /* \"#utility.yul\":5095:5096   */\n      0x02\n        /* \"#utility.yul\":5091:5107   */\n      exp\n        /* \"#utility.yul\":5082:5107   */\n      swap2\n      pop\n        /* \"#utility.yul\":5133:5136   */\n      dup5\n        /* \"#utility.yul\":5126:5131   */\n      dup3\n        /* \"#utility.yul\":5123:5137   */\n      gt\n        /* \"#utility.yul\":5120:5160   */\n      iszero\n      tag_116\n      jumpi\n        /* \"#utility.yul\":5140:5158   */\n      tag_117\n      tag_56\n      jump\t// in\n    tag_117:\n        /* \"#utility.yul\":5120:5160   */\n    tag_116:\n        /* \"#utility.yul\":5173:5178   */\n      pop\n      jump(tag_108)\n        /* \"#utility.yul\":4911:5188   */\n    tag_111:\n      pop\n        /* \"#utility.yul\":5297:5299   */\n      0x20\n        /* \"#utility.yul\":5287:5295   */\n      dup4\n        /* \"#utility.yul\":5284:5300   */\n      lt\n        /* \"#utility.yul\":5278:5281   */\n      0x0133\n        /* \"#utility.yul\":5272:5276   */\n      dup4\n        /* \"#utility.yul\":5269:5282   */\n      lt\n        /* \"#utility.yul\":5265:5301   */\n      and\n        /* \"#utility.yul\":5247:5249   */\n      0x4e\n        /* \"#utility.yul\":5237:5245   */\n      dup5\n        /* \"#utility.yul\":5234:5250   */\n      lt\n        /* \"#utility.yul\":5229:5231   */\n      0x0b\n        /* \"#utility.yul\":5223:5227   */\n      dup5\n        /* \"#utility.yul\":5220:5232   */\n      lt\n        /* \"#utility.yul\":5216:5251   */\n      and\n        /* \"#utility.yul\":5200:5311   */\n      or\n        /* \"#utility.yul\":5197:5443   */\n      iszero\n      tag_118\n      jumpi\n        /* \"#utility.yul\":5353:5361   */\n      dup3\n        /* \"#utility.yul\":5347:5351   */\n      dup3\n        /* \"#utility.yul\":5343:5362   */\n      exp\n        /* \"#utility.yul\":5334:5362   */\n      swap1\n      pop\n        /* \"#utility.yul\":5388:5391   */\n      dup4\n        /* \"#utility.yul\":5381:5386   */\n      dup2\n        /* \"#utility.yul\":5378:5392   */\n      gt\n        /* \"#utility.yul\":5375:5415   */\n      iszero\n      tag_119\n      jumpi\n        /* \"#utility.yul\":5395:5413   */\n      tag_120\n      tag_56\n      jump\t// in\n    tag_120:\n        /* \"#utility.yul\":5375:5415   */\n    tag_119:\n        /* \"#utility.yul\":5428:5433   */\n      jump(tag_108)\n        /* \"#utility.yul\":5197:5443   */\n    tag_118:\n        /* \"#utility.yul\":5468:5510   */\n      tag_121\n        /* \"#utility.yul\":5506:5509   */\n      dup5\n        /* \"#utility.yul\":5496:5504   */\n      dup5\n        /* \"#utility.yul\":5490:5494   */\n      dup5\n        /* \"#utility.yul\":5487:5488   */\n      0x01\n        /* \"#utility.yul\":5468:5510   */\n      tag_58\n      jump\t// in\n    tag_121:\n        /* \"#utility.yul\":5453:5510   */\n      swap3\n      pop\n      swap1\n      pop\n        /* \"#utility.yul\":5542:5546   */\n      dup2\n        /* \"#utility.yul\":5537:5540   */\n      dup5\n        /* \"#utility.yul\":5533:5547   */\n      div\n        /* \"#utility.yul\":5526:5531   */\n      dup2\n        /* \"#utility.yul\":5523:5548   */\n      gt\n        /* \"#utility.yul\":5520:5571   */\n      iszero\n      tag_122\n      jumpi\n        /* \"#utility.yul\":5551:5569   */\n      tag_123\n      tag_56\n      jump\t// in\n    tag_123:\n        /* \"#utility.yul\":5520:5571   */\n    tag_122:\n        /* \"#utility.yul\":5600:5604   */\n      dup2\n        /* \"#utility.yul\":5593:5598   */\n      dup2\n        /* \"#utility.yul\":5589:5605   */\n      mul\n        /* \"#utility.yul\":5580:5605   */\n      swap1\n      pop\n        /* \"#utility.yul\":4538:5611   */\n    tag_108:\n      swap4\n      swap3\n      pop\n      pop\n      pop\n      jump\t// out\n        /* \"#utility.yul\":5617:5902   */\n    tag_21:\n        /* \"#utility.yul\":5677:5682   */\n      0x00\n        /* \"#utility.yul\":5701:5724   */\n      tag_125\n        /* \"#utility.yul\":5719:5723   */\n      dup3\n        /* \"#utility.yul\":5701:5724   */\n      tag_45\n      jump\t// in\n    tag_125:\n        /* \"#utility.yul\":5693:5724   */\n      swap2\n      pop\n        /* \"#utility.yul\":5745:5772   */\n      tag_126\n        /* \"#utility.yul\":5763:5771   */\n      dup4\n        /* \"#utility.yul\":5745:5772   */\n      tag_45\n      jump\t// in\n    tag_126:\n        /* \"#utility.yul\":5733:5772   */\n      swap3\n      pop\n        /* \"#utility.yul\":5791:5895   */\n      tag_127\n        /* \"#utility.yul\":5828:5894   */\n      0xffffffffffffffffffffffffffffffffffffffffffffffffffffffffffffffff\n        /* \"#utility.yul\":5818:5826   */\n      dup5\n        /* \"#utility.yul\":5812:5816   */\n      dup5\n        /* \"#utility.yul\":5791:5895   */\n      tag_59\n      jump\t// in\n    tag_127:\n        /* \"#utility.yul\":5782:5895   */\n      swap1\n      pop\n        /* \"#utility.yul\":5617:5902   */\n      swap3\n      swap2\n      pop\n      pop\n      jump\t// out\n        /* \"#utility.yul\":5908:6141   */\n    tag_23:\n        /* \"#utility.yul\":5947:5950   */\n      0x00\n        /* \"#utility.yul\":5970:5994   */\n      tag_129\n        /* \"#utility.yul\":5988:5993   */\n      dup3\n        /* \"#utility.yul\":5970:5994   */\n      tag_45\n      jump\t// in\n    tag_129:\n        /* \"#utility.yul\":5961:5994   */\n      swap2\n      pop\n        /* \"#utility.yul\":6016:6082   */\n      0xffffffffffffffffffffffffffffffffffffffffffffffffffffffffffffffff\n        /* \"#utility.yul\":6009:6014   */\n      dup3\n        /* \"#utility.yul\":6006:6083   */\n      sub\n        /* \"#utility.yul\":6003:6106   */\n      tag_130\n      jumpi\n        /* \"#utility.yul\":6086:6104   */\n      tag_131\n      tag_56\n      jump\t// in\n    tag_131:\n        /* \"#utility.yul\":6003:6106   */\n    tag_130:\n        /* \"#utility.yul\":6133:6134   */\n      0x01\n        /* \"#utility.yul\":6126:6131   */\n      dup3\n        /* \"#utility.yul\":6122:6135   */\n      add\n        /* \"#utility.yul\":6115:6135   */\n      swap1\n      pop\n        /* \"#utility.yul\":5908:6141   */\n      swap2\n      swap1\n      pop\n      jump\t// out\n        /* \"#utility.yul\":6147:6327   */\n    tag_28:\n        /* \"#utility.yul\":6195:6272   */\n      0x4e487b7100000000000000000000000000000000000000000000000000000000\n        /* \"#utility.yul\":6192:6193   */\n      0x00\n        /* \"#utility.yul\":6185:6273   */\n      mstore\n        /* \"#utility.yul\":6292:6296   */\n      0x41\n        /* \"#utility.yul\":6289:6290   */\n      0x04\n        /* \"#utility.yul\":6282:6297   */\n      mstore\n        /* \"#utility.yul\":6316:6320   */\n      0x24\n        /* \"#utility.yul\":6313:6314   */\n      0x00\n        /* \"#utility.yul\":6306:6321   */\n      revert\n        /* \"#utility.yul\":6333:6513   */\n    tag_60:\n        /* \"#utility.yul\":6381:6458   */\n      0x4e487b7100000000000000000000000000000000000000000000000000000000\n        /* \"#utility.yul\":6378:6379   */\n      0x00\n        /* \"#utility.yul\":6371:6459   */\n      mstore\n        /* \"#utility.yul\":6478:6482   */\n      0x12\n        /* \"#utility.yul\":6475:6476   */\n      0x04\n        /* \"#utility.yul\":6468:6483   */\n      mstore\n        /* \"#utility.yul\":6502:6506   */\n      0x24\n        /* \"#utility.yul\":6499:6500   */\n      0x00\n        /* \"#utility.yul\":6492:6507   */\n      revert\n        /* \"#utility.yul\":6519:6695   */\n    tag_34:\n        /* \"#utility.yul\":6551:6552   */\n      0x00\n        /* \"#utility.yul\":6568:6588   */\n      tag_135\n        /* \"#utility.yul\":6586:6587   */\n      dup3\n        /* \"#utility.yul\":6568:6588   */\n      tag_45\n      jump\t// in\n    tag_135:\n        /* \"#utility.yul\":6563:6588   */\n      swap2\n      pop\n        /* \"#utility.yul\":6602:6622   */\n      tag_136\n        /* \"#utility.yul\":6620:6621   */\n      dup4\n        /* \"#utility.yul\":6602:6622   */\n      tag_45\n      jump\t// in\n    tag_136:\n        /* \"#utility.yul\":6597:6622   */\n      swap3\n      pop\n        /* \"#utility.yul\":6641:6642   */\n      dup3\n        /* \"#utility.yul\":6631:6666   */\n      tag_137\n      jumpi\n        /* \"#utility.yul\":6646:6664   */\n      tag_138\n      tag_60\n      jump\t// in\n    tag_138:\n        /* \"#utility.yul\":6631:6666   */\n    tag_137:\n        /* \"#utility.yul\":6687:6688   */\n      dup3\n        /* \"#utility.yul\":6684:6685   */\n      dup3\n        /* \"#utility.yul\":6680:6689   */\n      mod\n        /* \"#utility.yul\":6675:6689   */\n      swap1\n      pop\n        /* \"#utility.yul\":6519:6695   */\n      swap3\n      swap2\n      pop\n      pop\n      jump\t// out\n        /* \"#utility.yul\":6701:6872   */\n    tag_36:\n        /* \"#utility.yul\":6740:6743   */\n      0x00\n        /* \"#utility.yul\":6763:6787   */\n      tag_140\n        /* \"#utility.yul\":6781:6786   */\n      dup3\n        /* \"#utility.yul\":6763:6787   */\n      tag_45\n      jump\t// in\n    tag_140:\n        /* \"#utility.yul\":6754:6787   */\n      swap2\n      pop\n        /* \"#utility.yul\":6809:6813   */\n      0x00\n        /* \"#utility.yul\":6802:6807   */\n      dup3\n        /* \"#utility.yul\":6799:6814   */\n      sub\n        /* \"#utility.yul\":6796:6837   */\n      tag_141\n      jumpi\n        /* \"#utility.yul\":6817:6835   */\n      tag_142\n      tag_56\n      jump\t// in\n    tag_142:\n        /* \"#utility.yul\":6796:6837   */\n    tag_141:\n        /* \"#utility.yul\":6864:6865   */\n      0x01\n        /* \"#utility.yul\":6857:6862   */\n      dup3\n        /* \"#utility.yul\":6853:6866   */\n      sub\n        /* \"#utility.yul\":6846:6866   */\n      swap1\n      pop\n        /* \"#utility.yul\":6701:6872   */\n      swap2\n      swap1\n      pop\n      jump\t// out\n        /* \"#utility.yul\":6878:7058   */\n    tag_39:\n        /* \"#utility.yul\":6926:7003   */\n      0x4e487b7100000000000000000000000000000000000000000000000000000000\n        /* \"#utility.yul\":6923:6924   */\n      0x00\n        /* \"#utility.yul\":6916:7004   */\n      mstore\n        /* \"#utility.yul\":7023:7027   */\n      0x32\n        /* \"#utility.yul\":7020:7021   */\n      0x04\n        /* \"#utility.yul\":7013:7028   */\n      mstore\n        /* \"#utility.yul\":7047:7051   */\n      0x24\n        /* \"#utility.yul\":7044:7045   */\n      0x00\n        /* \"#utility.yul\":7037:7052   */\n      revert\n        /* \"#utility.yul\":7064:7249   */\n    tag_41:\n        /* \"#utility.yul\":7104:7105   */\n      0x00\n        /* \"#utility.yul\":7121:7141   */\n      tag_145\n        /* \"#utility.yul\":7139:7140   */\n      dup3\n        /* \"#utility.yul\":7121:7141   */\n      tag_45\n      jump\t// in\n    tag_145:\n        /* \"#utility.yul\":7116:7141   */\n      swap2\n      pop\n        /* \"#utility.yul\":7155:7175   */\n      tag_146\n        /* \"#utility.yul\":7173:7174   */\n      dup4\n        /* \"#utility.yul\":7155:7175   */\n      tag_45\n      jump\t// in\n    tag_146:\n        /* \"#utility.yul\":7150:7175   */\n      swap3\n      pop\n        /* \"#utility.yul\":7194:7195   */\n      dup3\n        /* \"#utility.yul\":7184:7219   */\n      tag_147\n      jumpi\n        /* \"#utility.yul\":7199:7217   */\n      tag_148\n      tag_60\n      jump\t// in\n    tag_148:\n        /* \"#utility.yul\":7184:7219   */\n    tag_147:\n        /* \"#utility.yul\":7241:7242   */\n      dup3\n        /* \"#utility.yul\":7238:7239   */\n      dup3\n        /* \"#utility.yul\":7234:7243   */\n      div\n        /* \"#utility.yul\":7229:7243   */\n      swap1\n      pop\n        /* \"#utility.yul\":7064:7249   */\n      swap3\n      swap2\n      pop\n      pop\n      jump\t// out\n\n    auxdata: 0xa2646970667358221220fc1302af62021bc09748fe63e379c74b09547d5144ddd9258148135acaca5c1364736f6c63430008120033\n}\n",
				"bytecode": {
					"linkReferences": {},
					"object": "608060405234801561001057600080fd5b50610658806100206000396000f3fe608060405234801561001057600080fd5b50600436106100365760003560e01c80630986e6471461003b5780632ac45d9c1461006b575b600080fd5b610055600480360381019061005091906101de565b61009b565b604051610062919061021a565b60405180910390f35b610085600480360381019061008091906101de565b6100e0565b60405161009291906102f3565b60405180910390f35b60008082036100ad57600190506100db565b60005b80600a6100bd9190610477565b83106100d65780806100ce906104c2565b9150506100b0565b809150505b919050565b606060006100ed8361009b565b67ffffffffffffffff8111156101065761010561050a565b5b6040519080825280602002602001820160405280156101345781602001602082028036833780820191505090505b50905060006101428461009b565b90505b6000841461019957600a8461015a9190610568565b828261016590610599565b92508281518110610179576101786105c2565b5b602002602001018181525050600a8461019291906105f1565b9350610145565b8192505050919050565b600080fd5b6000819050919050565b6101bb816101a8565b81146101c657600080fd5b50565b6000813590506101d8816101b2565b92915050565b6000602082840312156101f4576101f36101a3565b5b6000610202848285016101c9565b91505092915050565b610214816101a8565b82525050565b600060208201905061022f600083018461020b565b92915050565b600081519050919050565b600082825260208201905092915050565b6000819050602082019050919050565b61026a816101a8565b82525050565b600061027c8383610261565b60208301905092915050565b6000602082019050919050565b60006102a082610235565b6102aa8185610240565b93506102b583610251565b8060005b838110156102e65781516102cd8882610270565b97506102d883610288565b9250506001810190506102b9565b5085935050505092915050565b6000602082019050818103600083015261030d8184610295565b905092915050565b7f4e487b7100000000000000000000000000000000000000000000000000000000600052601160045260246000fd5b60008160011c9050919050565b6000808291508390505b600185111561039b5780860481111561037757610376610315565b5b60018516156103865780820291505b808102905061039485610344565b945061035b565b94509492505050565b6000826103b45760019050610470565b816103c25760009050610470565b81600181146103d857600281146103e257610411565b6001915050610470565b60ff8411156103f4576103f3610315565b5b8360020a91508482111561040b5761040a610315565b5b50610470565b5060208310610133831016604e8410600b84101617156104465782820a90508381111561044157610440610315565b5b610470565b6104538484846001610351565b9250905081840481111561046a57610469610315565b5b81810290505b9392505050565b6000610482826101a8565b915061048d836101a8565b92506104ba7fffffffffffffffffffffffffffffffffffffffffffffffffffffffffffffffff84846103a4565b905092915050565b60006104cd826101a8565b91507fffffffffffffffffffffffffffffffffffffffffffffffffffffffffffffffff82036104ff576104fe610315565b5b600182019050919050565b7f4e487b7100000000000000000000000000000000000000000000000000000000600052604160045260246000fd5b7f4e487b7100000000000000000000000000000000000000000000000000000000600052601260045260246000fd5b6000610573826101a8565b915061057e836101a8565b92508261058e5761058d610539565b5b828206905092915050565b60006105a4826101a8565b9150600082036105b7576105b6610315565b5b600182039050919050565b7f4e487b7100000000000000000000000000000000000000000000000000000000600052603260045260246000fd5b60006105fc826101a8565b9150610607836101a8565b92508261061757610616610539565b5b82820490509291505056fea2646970667358221220fc1302af62021bc09748fe63e379c74b09547d5144ddd9258148135acaca5c1364736f6c63430008120033",
					"opcodes": "PUSH1 0x80 PUSH1 0x40 MSTORE CALLVALUE DUP1 ISZERO PUSH2 0x10 JUMPI PUSH1 0x0 DUP1 REVERT JUMPDEST POP PUSH2 0x658 DUP1 PUSH2 0x20 PUSH1 0x0 CODECOPY PUSH1 0x0 RETURN INVALID PUSH1 0x80 PUSH1 0x40 MSTORE CALLVALUE DUP1 ISZERO PUSH2 0x10 JUMPI PUSH1 0x0 DUP1 REVERT JUMPDEST POP PUSH1 0x4 CALLDATASIZE LT PUSH2 0x36 JUMPI PUSH1 0x0 CALLDATALOAD PUSH1 0xE0 SHR DUP1 PUSH4 0x986E647 EQ PUSH2 0x3B JUMPI DUP1 PUSH4 0x2AC45D9C EQ PUSH2 0x6B JUMPI JUMPDEST PUSH1 0x0 DUP1 REVERT JUMPDEST PUSH2 0x55 PUSH1 0x4 DUP1 CALLDATASIZE SUB DUP2 ADD SWAP1 PUSH2 0x50 SWAP2 SWAP1 PUSH2 0x1DE JUMP JUMPDEST PUSH2 0x9B JUMP JUMPDEST PUSH1 0x40 MLOAD PUSH2 0x62 SWAP2 SWAP1 PUSH2 0x21A JUMP JUMPDEST PUSH1 0x40 MLOAD DUP1 SWAP2 SUB SWAP1 RETURN JUMPDEST PUSH2 0x85 PUSH1 0x4 DUP1 CALLDATASIZE SUB DUP2 ADD SWAP1 PUSH2 0x80 SWAP2 SWAP1 PUSH2 0x1DE JUMP JUMPDEST PUSH2 0xE0 JUMP JUMPDEST PUSH1 0x40 MLOAD PUSH2 0x92 SWAP2 SWAP1 PUSH2 0x2F3 JUMP JUMPDEST PUSH1 0x40 MLOAD DUP1 SWAP2 SUB SWAP1 RETURN JUMPDEST PUSH1 0x0 DUP1 DUP3 SUB PUSH2 0xAD JUMPI PUSH1 0x1 SWAP1 POP PUSH2 0xDB JUMP JUMPDEST PUSH1 0x0 JUMPDEST DUP1 PUSH1 0xA PUSH2 0xBD SWAP2 SWAP1 PUSH2 0x477 JUMP JUMPDEST DUP4 LT PUSH2 0xD6 JUMPI DUP1 DUP1 PUSH2 0xCE SWAP1 PUSH2 0x4C2 JUMP JUMPDEST SWAP2 POP POP PUSH2 0xB0 JUMP JUMPDEST DUP1 SWAP2 POP POP JUMPDEST SWAP2 SWAP1 POP JUMP JUMPDEST PUSH1 0x60 PUSH1 0x0 PUSH2 0xED DUP4 PUSH2 0x9B JUMP JUMPDEST PUSH8 0xFFFFFFFFFFFFFFFF DUP2 GT ISZERO PUSH2 0x106 JUMPI PUSH2 0x105 PUSH2 0x50A JUMP JUMPDEST JUMPDEST PUSH1 0x40 MLOAD SWAP1 DUP1 DUP3 MSTORE DUP1 PUSH1 0x20 MUL PUSH1 0x20 ADD DUP3 ADD PUSH1 0x40 MSTORE DUP1 ISZERO PUSH2 0x134 JUMPI DUP2 PUSH1 0x20 ADD PUSH1 0x20 DUP3 MUL DUP1 CALLDATASIZE DUP4 CALLDATACOPY DUP1 DUP3 ADD SWAP2 POP POP SWAP1 POP JUMPDEST POP SWAP1 POP PUSH1 0x0 PUSH2 0x142 DUP5 PUSH2 0x9B JUMP JUMPDEST SWAP1 POP JUMPDEST PUSH1 0x0 DUP5 EQ PUSH2 0x199 JUMPI PUSH1 0xA DUP5 PUSH2 0x15A SWAP2 SWAP1 PUSH2 0x568 JUMP JUMPDEST DUP3 DUP3 PUSH2 0x165 SWAP1 PUSH2 0x599 JUMP JUMPDEST SWAP3 POP DUP3 DUP2 MLOAD DUP2 LT PUSH2 0x179 JUMPI PUSH2 0x178 PUSH2 0x5C2 JUMP JUMPDEST JUMPDEST PUSH1 0x20 MUL PUSH1 0x20 ADD ADD DUP2 DUP2 MSTORE POP POP PUSH1 0xA DUP5 PUSH2 0x192 SWAP2 SWAP1 PUSH2 0x5F1 JUMP JUMPDEST SWAP4 POP PUSH2 0x145 JUMP JUMPDEST DUP2 SWAP3 POP POP POP SWAP2 SWAP1 POP JUMP JUMPDEST PUSH1 0x0 DUP1 REVERT JUMPDEST PUSH1 0x0 DUP2 SWAP1 POP SWAP2 SWAP1 POP JUMP JUMPDEST PUSH2 0x1BB DUP2 PUSH2 0x1A8 JUMP JUMPDEST DUP2 EQ PUSH2 0x1C6 JUMPI PUSH1 0x0 DUP1 REVERT JUMPDEST POP JUMP JUMPDEST PUSH1 0x0 DUP2 CALLDATALOAD SWAP1 POP PUSH2 0x1D8 DUP2 PUSH2 0x1B2 JUMP JUMPDEST SWAP3 SWAP2 POP POP JUMP JUMPDEST PUSH1 0x0 PUSH1 0x20 DUP3 DUP5 SUB SLT ISZERO PUSH2 0x1F4 JUMPI PUSH2 0x1F3 PUSH2 0x1A3 JUMP JUMPDEST JUMPDEST PUSH1 0x0 PUSH2 0x202 DUP5 DUP3 DUP6 ADD PUSH2 0x1C9 JUMP JUMPDEST SWAP2 POP POP SWAP3 SWAP2 POP POP JUMP JUMPDEST PUSH2 0x214 DUP2 PUSH2 0x1A8 JUMP JUMPDEST DUP3 MSTORE POP POP JUMP JUMPDEST PUSH1 0x0 PUSH1 0x20 DUP3 ADD SWAP1 POP PUSH2 0x22F PUSH1 0x0 DUP4 ADD DUP5 PUSH2 0x20B JUMP JUMPDEST SWAP3 SWAP2 POP POP JUMP JUMPDEST PUSH1 0x0 DUP2 MLOAD SWAP1 POP SWAP2 SWAP1 POP JUMP JUMPDEST PUSH1 0x0 DUP3 DUP3 MSTORE PUSH1 0x20 DUP3 ADD SWAP1 POP SWAP3 SWAP2 POP POP JUMP JUMPDEST PUSH1 0x0 DUP2 SWAP1 POP PUSH1 0x20 DUP3 ADD SWAP1 POP SWAP2 SWAP1 POP JUMP JUMPDEST PUSH2 0x26A DUP2 PUSH2 0x1A8 JUMP JUMPDEST DUP3 MSTORE POP POP JUMP JUMPDEST PUSH1 0x0 PUSH2 0x27C DUP4 DUP4 PUSH2 0x261 JUMP JUMPDEST PUSH1 0x20 DUP4 ADD SWAP1 POP SWAP3 SWAP2 POP POP JUMP JUMPDEST PUSH1 0x0 PUSH1 0x20 DUP3 ADD SWAP1 POP SWAP2 SWAP1 POP JUMP JUMPDEST PUSH1 0x0 PUSH2 0x2A0 DUP3 PUSH2 0x235 JUMP JUMPDEST PUSH2 0x2AA DUP2 DUP6 PUSH2 0x240 JUMP JUMPDEST SWAP4 POP PUSH2 0x2B5 DUP4 PUSH2 0x251 JUMP JUMPDEST DUP1 PUSH1 0x0 JUMPDEST DUP4 DUP2 LT ISZERO PUSH2 0x2E6 JUMPI DUP2 MLOAD PUSH2 0x2CD DUP9 DUP3 PUSH2 0x270 JUMP JUMPDEST SWAP8 POP PUSH2 0x2D8 DUP4 PUSH2 0x288 JUMP JUMPDEST SWAP3 POP POP PUSH1 0x1 DUP2 ADD SWAP1 POP PUSH2 0x2B9 JUMP JUMPDEST POP DUP6 SWAP4 POP POP POP POP SWAP3 SWAP2 POP POP JUMP JUMPDEST PUSH1 0x0 PUSH1 0x20 DUP3 ADD SWAP1 POP DUP2 DUP2 SUB PUSH1 0x0 DUP4 ADD MSTORE PUSH2 0x30D DUP2 DUP5 PUSH2 0x295 JUMP JUMPDEST SWAP1 POP SWAP3 SWAP2 POP POP JUMP JUMPDEST PUSH32 0x4E487B7100000000000000000000000000000000000000000000000000000000 PUSH1 0x0 MSTORE PUSH1 0x11 PUSH1 0x4 MSTORE PUSH1 0x24 PUSH1 0x0 REVERT JUMPDEST PUSH1 0x0 DUP2 PUSH1 0x1 SHR SWAP1 POP SWAP2 SWAP1 POP JUMP JUMPDEST PUSH1 0x0 DUP1 DUP3 SWAP2 POP DUP4 SWAP1 POP JUMPDEST PUSH1 0x1 DUP6 GT ISZERO PUSH2 0x39B JUMPI DUP1 DUP7 DIV DUP2 GT ISZERO PUSH2 0x377 JUMPI PUSH2 0x376 PUSH2 0x315 JUMP JUMPDEST JUMPDEST PUSH1 0x1 DUP6 AND ISZERO PUSH2 0x386 JUMPI DUP1 DUP3 MUL SWAP2 POP JUMPDEST DUP1 DUP2 MUL SWAP1 POP PUSH2 0x394 DUP6 PUSH2 0x344 JUMP JUMPDEST SWAP5 POP PUSH2 0x35B JUMP JUMPDEST SWAP5 POP SWAP5 SWAP3 POP POP POP JUMP JUMPDEST PUSH1 0x0 DUP3 PUSH2 0x3B4 JUMPI PUSH1 0x1 SWAP1 POP PUSH2 0x470 JUMP JUMPDEST DUP2 PUSH2 0x3C2 JUMPI PUSH1 0x0 SWAP1 POP PUSH2 0x470 JUMP JUMPDEST DUP2 PUSH1 0x1 DUP2 EQ PUSH2 0x3D8 JUMPI PUSH1 0x2 DUP2 EQ PUSH2 0x3E2 JUMPI PUSH2 0x411 JUMP JUMPDEST PUSH1 0x1 SWAP2 POP POP PUSH2 0x470 JUMP JUMPDEST PUSH1 0xFF DUP5 GT ISZERO PUSH2 0x3F4 JUMPI PUSH2 0x3F3 PUSH2 0x315 JUMP JUMPDEST JUMPDEST DUP4 PUSH1 0x2 EXP SWAP2 POP DUP5 DUP3 GT ISZERO PUSH2 0x40B JUMPI PUSH2 0x40A PUSH2 0x315 JUMP JUMPDEST JUMPDEST POP PUSH2 0x470 JUMP JUMPDEST POP PUSH1 0x20 DUP4 LT PUSH2 0x133 DUP4 LT AND PUSH1 0x4E DUP5 LT PUSH1 0xB DUP5 LT AND OR ISZERO PUSH2 0x446 JUMPI DUP3 DUP3 EXP SWAP1 POP DUP4 DUP2 GT ISZERO PUSH2 0x441 JUMPI PUSH2 0x440 PUSH2 0x315 JUMP JUMPDEST JUMPDEST PUSH2 0x470 JUMP JUMPDEST PUSH2 0x453 DUP5 DUP5 DUP5 PUSH1 0x1 PUSH2 0x351 JUMP JUMPDEST SWAP3 POP SWAP1 POP DUP2 DUP5 DIV DUP2 GT ISZERO PUSH2 0x46A JUMPI PUSH2 0x469 PUSH2 0x315 JUMP JUMPDEST JUMPDEST DUP2 DUP2 MUL SWAP1 POP JUMPDEST SWAP4 SWAP3 POP POP POP JUMP JUMPDEST PUSH1 0x0 PUSH2 0x482 DUP3 PUSH2 0x1A8 JUMP JUMPDEST SWAP2 POP PUSH2 0x48D DUP4 PUSH2 0x1A8 JUMP JUMPDEST SWAP3 POP PUSH2 0x4BA PUSH32 0xFFFFFFFFFFFFFFFFFFFFFFFFFFFFFFFFFFFFFFFFFFFFFFFFFFFFFFFFFFFFFFFF DUP5 DUP5 PUSH2 0x3A4 JUMP JUMPDEST SWAP1 POP SWAP3 SWAP2 POP POP JUMP JUMPDEST PUSH1 0x0 PUSH2 0x4CD DUP3 PUSH2 0x1A8 JUMP JUMPDEST SWAP2 POP PUSH32 0xFFFFFFFFFFFFFFFFFFFFFFFFFFFFFFFFFFFFFFFFFFFFFFFFFFFFFFFFFFFFFFFF DUP3 SUB PUSH2 0x4FF JUMPI PUSH2 0x4FE PUSH2 0x315 JUMP JUMPDEST JUMPDEST PUSH1 0x1 DUP3 ADD SWAP1 POP SWAP2 SWAP1 POP JUMP JUMPDEST PUSH32 0x4E487B7100000000000000000000000000000000000000000000000000000000 PUSH1 0x0 MSTORE PUSH1 0x41 PUSH1 0x4 MSTORE PUSH1 0x24 PUSH1 0x0 REVERT JUMPDEST PUSH32 0x4E487B7100000000000000000000000000000000000000000000000000000000 PUSH1 0x0 MSTORE PUSH1 0x12 PUSH1 0x4 MSTORE PUSH1 0x24 PUSH1 0x0 REVERT JUMPDEST PUSH1 0x0 PUSH2 0x573 DUP3 PUSH2 0x1A8 JUMP JUMPDEST SWAP2 POP PUSH2 0x57E DUP4 PUSH2 0x1A8 JUMP JUMPDEST SWAP3 POP DUP3 PUSH2 0x58E JUMPI PUSH2 0x58D PUSH2 0x539 JUMP JUMPDEST JUMPDEST DUP3 DUP3 MOD SWAP1 POP SWAP3 SWAP2 POP POP JUMP JUMPDEST PUSH1 0x0 PUSH2 0x5A4 DUP3 PUSH2 0x1A8 JUMP JUMPDEST SWAP2 POP PUSH1 0x0 DUP3 SUB PUSH2 0x5B7 JUMPI PUSH2 0x5B6 PUSH2 0x315 JUMP JUMPDEST JUMPDEST PUSH1 0x1 DUP3 SUB SWAP1 POP SWAP2 SWAP1 POP JUMP JUMPDEST PUSH32 0x4E487B7100000000000000000000000000000000000000000000000000000000 PUSH1 0x0 MSTORE PUSH1 0x32 PUSH1 0x4 MSTORE PUSH1 0x24 PUSH1 0x0 REVERT JUMPDEST PUSH1 0x0 PUSH2 0x5FC DUP3 PUSH2 0x1A8 JUMP JUMPDEST SWAP2 POP PUSH2 0x607 DUP4 PUSH2 0x1A8 JUMP JUMPDEST SWAP3 POP DUP3 PUSH2 0x617 JUMPI PUSH2 0x616 PUSH2 0x539 JUMP JUMPDEST JUMPDEST DUP3 DUP3 DIV SWAP1 POP SWAP3 SWAP2 POP POP JUMP INVALID LOG2 PUSH5 0x6970667358 0x22 SLT KECCAK256 0xFC SGT MUL 0xAF PUSH3 0x21BC0 SWAP8 BASEFEE INVALID PUSH4 0xE379C74B MULMOD SLOAD PUSH30 0x5144DDD9258148135ACACA5C1364736F6C63430008120033000000000000 "
				},
				"gasEstimates": {
					"creation": {
						"codeDepositCost": "324800",
						"executionCost": "362",
						"totalCost": "325162"
					},
					"external": {
						"divideNumber(uint256)": "infinite",
						"getLength(uint256)": "infinite"
					}
				},
				"methodIdentifiers": {
					"divideNumber(uint256)": "2ac45d9c",
					"getLength(uint256)": "0986e647"
				}
			},
			"storageLayout": {
				"storage": [],
				"types": null
			},
			"userdoc": {
				"kind": "user",
				"methods": {},
				"version": 1
			}
		}
	}
}