{
	"contracts-quiz/230530-QUIZ8-answer.sol": {
		"bytesVsAbi": {
			"abi": [
				{
					"inputs": [
						{
							"internalType": "string",
							"name": "_a",
							"type": "string"
						},
						{
							"internalType": "string",
							"name": "_b",
							"type": "string"
						}
					],
					"name": "ABI_1",
					"outputs": [
						{
							"internalType": "bytes",
							"name": "",
							"type": "bytes"
						}
					],
					"stateMutability": "pure",
					"type": "function"
				},
				{
					"inputs": [
						{
							"internalType": "string",
							"name": "_a",
							"type": "string"
						}
					],
					"name": "bytes_1",
					"outputs": [
						{
							"internalType": "bytes",
							"name": "",
							"type": "bytes"
						}
					],
					"stateMutability": "pure",
					"type": "function"
				}
			],
			"devdoc": {
				"kind": "dev",
				"methods": {},
				"version": 1
			},
			"evm": {
				"assembly": "    /* \"contracts-quiz/230530-QUIZ8-answer.sol\":7560:7829  contract bytesVsAbi {... */\n  mstore(0x40, 0x80)\n  callvalue\n  dup1\n  iszero\n  tag_1\n  jumpi\n  0x00\n  dup1\n  revert\ntag_1:\n  pop\n  dataSize(sub_0)\n  dup1\n  dataOffset(sub_0)\n  0x00\n  codecopy\n  0x00\n  return\nstop\n\nsub_0: assembly {\n        /* \"contracts-quiz/230530-QUIZ8-answer.sol\":7560:7829  contract bytesVsAbi {... */\n      mstore(0x40, 0x80)\n      callvalue\n      dup1\n      iszero\n      tag_1\n      jumpi\n      0x00\n      dup1\n      revert\n    tag_1:\n      pop\n      jumpi(tag_2, lt(calldatasize, 0x04))\n      shr(0xe0, calldataload(0x00))\n      dup1\n      0x1de8ac28\n      eq\n      tag_3\n      jumpi\n      dup1\n      0x6f966cfe\n      eq\n      tag_4\n      jumpi\n    tag_2:\n      0x00\n      dup1\n      revert\n        /* \"contracts-quiz/230530-QUIZ8-answer.sol\":7586:7688  function bytes_1(string memory _a) public pure returns(bytes memory) {... */\n    tag_3:\n      tag_5\n      0x04\n      dup1\n      calldatasize\n      sub\n      dup2\n      add\n      swap1\n      tag_6\n      swap2\n      swap1\n      tag_7\n      jump\t// in\n    tag_6:\n      tag_8\n      jump\t// in\n    tag_5:\n      mload(0x40)\n      tag_9\n      swap2\n      swap1\n      tag_10\n      jump\t// in\n    tag_9:\n      mload(0x40)\n      dup1\n      swap2\n      sub\n      swap1\n      return\n        /* \"contracts-quiz/230530-QUIZ8-answer.sol\":7694:7827  function ABI_1(string memory _a, string memory _b) public pure returns(bytes memory) {... */\n    tag_4:\n      tag_11\n      0x04\n      dup1\n      calldatasize\n      sub\n      dup2\n      add\n      swap1\n      tag_12\n      swap2\n      swap1\n      tag_13\n      jump\t// in\n    tag_12:\n      tag_14\n      jump\t// in\n    tag_11:\n      mload(0x40)\n      tag_15\n      swap2\n      swap1\n      tag_10\n      jump\t// in\n    tag_15:\n      mload(0x40)\n      dup1\n      swap2\n      sub\n      swap1\n      return\n        /* \"contracts-quiz/230530-QUIZ8-answer.sol\":7586:7688  function bytes_1(string memory _a) public pure returns(bytes memory) {... */\n    tag_8:\n        /* \"contracts-quiz/230530-QUIZ8-answer.sol\":7641:7653  bytes memory */\n      0x60\n        /* \"contracts-quiz/230530-QUIZ8-answer.sol\":7678:7680  _a */\n      dup2\n        /* \"contracts-quiz/230530-QUIZ8-answer.sol\":7665:7681  return bytes(_a) */\n      swap1\n      pop\n        /* \"contracts-quiz/230530-QUIZ8-answer.sol\":7586:7688  function bytes_1(string memory _a) public pure returns(bytes memory) {... */\n      swap2\n      swap1\n      pop\n      jump\t// out\n        /* \"contracts-quiz/230530-QUIZ8-answer.sol\":7694:7827  function ABI_1(string memory _a, string memory _b) public pure returns(bytes memory) {... */\n    tag_14:\n        /* \"contracts-quiz/230530-QUIZ8-answer.sol\":7765:7777  bytes memory */\n      0x60\n        /* \"contracts-quiz/230530-QUIZ8-answer.sol\":7813:7815  _a */\n      dup3\n        /* \"contracts-quiz/230530-QUIZ8-answer.sol\":7817:7819  _b */\n      dup3\n        /* \"contracts-quiz/230530-QUIZ8-answer.sol\":7796:7820  abi.encodePacked(_a, _b) */\n      add(0x20, mload(0x40))\n      tag_18\n      swap3\n      swap2\n      swap1\n      tag_19\n      jump\t// in\n    tag_18:\n      mload(0x40)\n      0x20\n      dup2\n      dup4\n      sub\n      sub\n      dup2\n      mstore\n      swap1\n      0x40\n      mstore\n        /* \"contracts-quiz/230530-QUIZ8-answer.sol\":7789:7820  return abi.encodePacked(_a, _b) */\n      swap1\n      pop\n        /* \"contracts-quiz/230530-QUIZ8-answer.sol\":7694:7827  function ABI_1(string memory _a, string memory _b) public pure returns(bytes memory) {... */\n      swap3\n      swap2\n      pop\n      pop\n      jump\t// out\n        /* \"#utility.yul\":7:82   */\n    tag_20:\n        /* \"#utility.yul\":40:46   */\n      0x00\n        /* \"#utility.yul\":73:75   */\n      0x40\n        /* \"#utility.yul\":67:76   */\n      mload\n        /* \"#utility.yul\":57:76   */\n      swap1\n      pop\n        /* \"#utility.yul\":7:82   */\n      swap1\n      jump\t// out\n        /* \"#utility.yul\":88:205   */\n    tag_21:\n        /* \"#utility.yul\":197:198   */\n      0x00\n        /* \"#utility.yul\":194:195   */\n      dup1\n        /* \"#utility.yul\":187:199   */\n      revert\n        /* \"#utility.yul\":211:328   */\n    tag_22:\n        /* \"#utility.yul\":320:321   */\n      0x00\n        /* \"#utility.yul\":317:318   */\n      dup1\n        /* \"#utility.yul\":310:322   */\n      revert\n        /* \"#utility.yul\":334:451   */\n    tag_23:\n        /* \"#utility.yul\":443:444   */\n      0x00\n        /* \"#utility.yul\":440:441   */\n      dup1\n        /* \"#utility.yul\":433:445   */\n      revert\n        /* \"#utility.yul\":457:574   */\n    tag_24:\n        /* \"#utility.yul\":566:567   */\n      0x00\n        /* \"#utility.yul\":563:564   */\n      dup1\n        /* \"#utility.yul\":556:568   */\n      revert\n        /* \"#utility.yul\":580:682   */\n    tag_25:\n        /* \"#utility.yul\":621:627   */\n      0x00\n        /* \"#utility.yul\":672:674   */\n      0x1f\n        /* \"#utility.yul\":668:675   */\n      not\n        /* \"#utility.yul\":663:665   */\n      0x1f\n        /* \"#utility.yul\":656:661   */\n      dup4\n        /* \"#utility.yul\":652:666   */\n      add\n        /* \"#utility.yul\":648:676   */\n      and\n        /* \"#utility.yul\":638:676   */\n      swap1\n      pop\n        /* \"#utility.yul\":580:682   */\n      swap2\n      swap1\n      pop\n      jump\t// out\n        /* \"#utility.yul\":688:868   */\n    tag_26:\n        /* \"#utility.yul\":736:813   */\n      0x4e487b7100000000000000000000000000000000000000000000000000000000\n        /* \"#utility.yul\":733:734   */\n      0x00\n        /* \"#utility.yul\":726:814   */\n      mstore\n        /* \"#utility.yul\":833:837   */\n      0x41\n        /* \"#utility.yul\":830:831   */\n      0x04\n        /* \"#utility.yul\":823:838   */\n      mstore\n        /* \"#utility.yul\":857:861   */\n      0x24\n        /* \"#utility.yul\":854:855   */\n      0x00\n        /* \"#utility.yul\":847:862   */\n      revert\n        /* \"#utility.yul\":874:1155   */\n    tag_27:\n        /* \"#utility.yul\":957:984   */\n      tag_49\n        /* \"#utility.yul\":979:983   */\n      dup3\n        /* \"#utility.yul\":957:984   */\n      tag_25\n      jump\t// in\n    tag_49:\n        /* \"#utility.yul\":949:955   */\n      dup2\n        /* \"#utility.yul\":945:985   */\n      add\n        /* \"#utility.yul\":1087:1093   */\n      dup2\n        /* \"#utility.yul\":1075:1085   */\n      dup2\n        /* \"#utility.yul\":1072:1094   */\n      lt\n        /* \"#utility.yul\":1051:1069   */\n      0xffffffffffffffff\n        /* \"#utility.yul\":1039:1049   */\n      dup3\n        /* \"#utility.yul\":1036:1070   */\n      gt\n        /* \"#utility.yul\":1033:1095   */\n      or\n        /* \"#utility.yul\":1030:1118   */\n      iszero\n      tag_50\n      jumpi\n        /* \"#utility.yul\":1098:1116   */\n      tag_51\n      tag_26\n      jump\t// in\n    tag_51:\n        /* \"#utility.yul\":1030:1118   */\n    tag_50:\n        /* \"#utility.yul\":1138:1148   */\n      dup1\n        /* \"#utility.yul\":1134:1136   */\n      0x40\n        /* \"#utility.yul\":1127:1149   */\n      mstore\n        /* \"#utility.yul\":917:1155   */\n      pop\n        /* \"#utility.yul\":874:1155   */\n      pop\n      pop\n      jump\t// out\n        /* \"#utility.yul\":1161:1290   */\n    tag_28:\n        /* \"#utility.yul\":1195:1201   */\n      0x00\n        /* \"#utility.yul\":1222:1242   */\n      tag_53\n      tag_20\n      jump\t// in\n    tag_53:\n        /* \"#utility.yul\":1212:1242   */\n      swap1\n      pop\n        /* \"#utility.yul\":1251:1284   */\n      tag_54\n        /* \"#utility.yul\":1279:1283   */\n      dup3\n        /* \"#utility.yul\":1271:1277   */\n      dup3\n        /* \"#utility.yul\":1251:1284   */\n      tag_27\n      jump\t// in\n    tag_54:\n        /* \"#utility.yul\":1161:1290   */\n      swap2\n      swap1\n      pop\n      jump\t// out\n        /* \"#utility.yul\":1296:1604   */\n    tag_29:\n        /* \"#utility.yul\":1358:1362   */\n      0x00\n        /* \"#utility.yul\":1448:1466   */\n      0xffffffffffffffff\n        /* \"#utility.yul\":1440:1446   */\n      dup3\n        /* \"#utility.yul\":1437:1467   */\n      gt\n        /* \"#utility.yul\":1434:1490   */\n      iszero\n      tag_56\n      jumpi\n        /* \"#utility.yul\":1470:1488   */\n      tag_57\n      tag_26\n      jump\t// in\n    tag_57:\n        /* \"#utility.yul\":1434:1490   */\n    tag_56:\n        /* \"#utility.yul\":1508:1537   */\n      tag_58\n        /* \"#utility.yul\":1530:1536   */\n      dup3\n        /* \"#utility.yul\":1508:1537   */\n      tag_25\n      jump\t// in\n    tag_58:\n        /* \"#utility.yul\":1500:1537   */\n      swap1\n      pop\n        /* \"#utility.yul\":1592:1596   */\n      0x20\n        /* \"#utility.yul\":1586:1590   */\n      dup2\n        /* \"#utility.yul\":1582:1597   */\n      add\n        /* \"#utility.yul\":1574:1597   */\n      swap1\n      pop\n        /* \"#utility.yul\":1296:1604   */\n      swap2\n      swap1\n      pop\n      jump\t// out\n        /* \"#utility.yul\":1610:1756   */\n    tag_30:\n        /* \"#utility.yul\":1707:1713   */\n      dup3\n        /* \"#utility.yul\":1702:1705   */\n      dup2\n        /* \"#utility.yul\":1697:1700   */\n      dup4\n        /* \"#utility.yul\":1684:1714   */\n      calldatacopy\n        /* \"#utility.yul\":1748:1749   */\n      0x00\n        /* \"#utility.yul\":1739:1745   */\n      dup4\n        /* \"#utility.yul\":1734:1737   */\n      dup4\n        /* \"#utility.yul\":1730:1746   */\n      add\n        /* \"#utility.yul\":1723:1750   */\n      mstore\n        /* \"#utility.yul\":1610:1756   */\n      pop\n      pop\n      pop\n      jump\t// out\n        /* \"#utility.yul\":1762:2187   */\n    tag_31:\n        /* \"#utility.yul\":1840:1845   */\n      0x00\n        /* \"#utility.yul\":1865:1931   */\n      tag_61\n        /* \"#utility.yul\":1881:1930   */\n      tag_62\n        /* \"#utility.yul\":1923:1929   */\n      dup5\n        /* \"#utility.yul\":1881:1930   */\n      tag_29\n      jump\t// in\n    tag_62:\n        /* \"#utility.yul\":1865:1931   */\n      tag_28\n      jump\t// in\n    tag_61:\n        /* \"#utility.yul\":1856:1931   */\n      swap1\n      pop\n        /* \"#utility.yul\":1954:1960   */\n      dup3\n        /* \"#utility.yul\":1947:1952   */\n      dup2\n        /* \"#utility.yul\":1940:1961   */\n      mstore\n        /* \"#utility.yul\":1992:1996   */\n      0x20\n        /* \"#utility.yul\":1985:1990   */\n      dup2\n        /* \"#utility.yul\":1981:1997   */\n      add\n        /* \"#utility.yul\":2030:2033   */\n      dup5\n        /* \"#utility.yul\":2021:2027   */\n      dup5\n        /* \"#utility.yul\":2016:2019   */\n      dup5\n        /* \"#utility.yul\":2012:2028   */\n      add\n        /* \"#utility.yul\":2009:2034   */\n      gt\n        /* \"#utility.yul\":2006:2118   */\n      iszero\n      tag_63\n      jumpi\n        /* \"#utility.yul\":2037:2116   */\n      tag_64\n      tag_24\n      jump\t// in\n    tag_64:\n        /* \"#utility.yul\":2006:2118   */\n    tag_63:\n        /* \"#utility.yul\":2127:2181   */\n      tag_65\n        /* \"#utility.yul\":2174:2180   */\n      dup5\n        /* \"#utility.yul\":2169:2172   */\n      dup3\n        /* \"#utility.yul\":2164:2167   */\n      dup6\n        /* \"#utility.yul\":2127:2181   */\n      tag_30\n      jump\t// in\n    tag_65:\n        /* \"#utility.yul\":1846:2187   */\n      pop\n        /* \"#utility.yul\":1762:2187   */\n      swap4\n      swap3\n      pop\n      pop\n      pop\n      jump\t// out\n        /* \"#utility.yul\":2207:2547   */\n    tag_32:\n        /* \"#utility.yul\":2263:2268   */\n      0x00\n        /* \"#utility.yul\":2312:2315   */\n      dup3\n        /* \"#utility.yul\":2305:2309   */\n      0x1f\n        /* \"#utility.yul\":2297:2303   */\n      dup4\n        /* \"#utility.yul\":2293:2310   */\n      add\n        /* \"#utility.yul\":2289:2316   */\n      slt\n        /* \"#utility.yul\":2279:2401   */\n      tag_67\n      jumpi\n        /* \"#utility.yul\":2320:2399   */\n      tag_68\n      tag_23\n      jump\t// in\n    tag_68:\n        /* \"#utility.yul\":2279:2401   */\n    tag_67:\n        /* \"#utility.yul\":2437:2443   */\n      dup2\n        /* \"#utility.yul\":2424:2444   */\n      calldataload\n        /* \"#utility.yul\":2462:2541   */\n      tag_69\n        /* \"#utility.yul\":2537:2540   */\n      dup5\n        /* \"#utility.yul\":2529:2535   */\n      dup3\n        /* \"#utility.yul\":2522:2526   */\n      0x20\n        /* \"#utility.yul\":2514:2520   */\n      dup7\n        /* \"#utility.yul\":2510:2527   */\n      add\n        /* \"#utility.yul\":2462:2541   */\n      tag_31\n      jump\t// in\n    tag_69:\n        /* \"#utility.yul\":2453:2541   */\n      swap2\n      pop\n        /* \"#utility.yul\":2269:2547   */\n      pop\n        /* \"#utility.yul\":2207:2547   */\n      swap3\n      swap2\n      pop\n      pop\n      jump\t// out\n        /* \"#utility.yul\":2553:3062   */\n    tag_7:\n        /* \"#utility.yul\":2622:2628   */\n      0x00\n        /* \"#utility.yul\":2671:2673   */\n      0x20\n        /* \"#utility.yul\":2659:2668   */\n      dup3\n        /* \"#utility.yul\":2650:2657   */\n      dup5\n        /* \"#utility.yul\":2646:2669   */\n      sub\n        /* \"#utility.yul\":2642:2674   */\n      slt\n        /* \"#utility.yul\":2639:2758   */\n      iszero\n      tag_71\n      jumpi\n        /* \"#utility.yul\":2677:2756   */\n      tag_72\n      tag_21\n      jump\t// in\n    tag_72:\n        /* \"#utility.yul\":2639:2758   */\n    tag_71:\n        /* \"#utility.yul\":2825:2826   */\n      0x00\n        /* \"#utility.yul\":2814:2823   */\n      dup3\n        /* \"#utility.yul\":2810:2827   */\n      add\n        /* \"#utility.yul\":2797:2828   */\n      calldataload\n        /* \"#utility.yul\":2855:2873   */\n      0xffffffffffffffff\n        /* \"#utility.yul\":2847:2853   */\n      dup2\n        /* \"#utility.yul\":2844:2874   */\n      gt\n        /* \"#utility.yul\":2841:2958   */\n      iszero\n      tag_73\n      jumpi\n        /* \"#utility.yul\":2877:2956   */\n      tag_74\n      tag_22\n      jump\t// in\n    tag_74:\n        /* \"#utility.yul\":2841:2958   */\n    tag_73:\n        /* \"#utility.yul\":2982:3045   */\n      tag_75\n        /* \"#utility.yul\":3037:3044   */\n      dup5\n        /* \"#utility.yul\":3028:3034   */\n      dup3\n        /* \"#utility.yul\":3017:3026   */\n      dup6\n        /* \"#utility.yul\":3013:3035   */\n      add\n        /* \"#utility.yul\":2982:3045   */\n      tag_32\n      jump\t// in\n    tag_75:\n        /* \"#utility.yul\":2972:3045   */\n      swap2\n      pop\n        /* \"#utility.yul\":2768:3055   */\n      pop\n        /* \"#utility.yul\":2553:3062   */\n      swap3\n      swap2\n      pop\n      pop\n      jump\t// out\n        /* \"#utility.yul\":3068:3166   */\n    tag_33:\n        /* \"#utility.yul\":3119:3125   */\n      0x00\n        /* \"#utility.yul\":3153:3158   */\n      dup2\n        /* \"#utility.yul\":3147:3159   */\n      mload\n        /* \"#utility.yul\":3137:3159   */\n      swap1\n      pop\n        /* \"#utility.yul\":3068:3166   */\n      swap2\n      swap1\n      pop\n      jump\t// out\n        /* \"#utility.yul\":3172:3340   */\n    tag_34:\n        /* \"#utility.yul\":3255:3266   */\n      0x00\n        /* \"#utility.yul\":3289:3295   */\n      dup3\n        /* \"#utility.yul\":3284:3287   */\n      dup3\n        /* \"#utility.yul\":3277:3296   */\n      mstore\n        /* \"#utility.yul\":3329:3333   */\n      0x20\n        /* \"#utility.yul\":3324:3327   */\n      dup3\n        /* \"#utility.yul\":3320:3334   */\n      add\n        /* \"#utility.yul\":3305:3334   */\n      swap1\n      pop\n        /* \"#utility.yul\":3172:3340   */\n      swap3\n      swap2\n      pop\n      pop\n      jump\t// out\n        /* \"#utility.yul\":3346:3592   */\n    tag_35:\n        /* \"#utility.yul\":3427:3428   */\n      0x00\n        /* \"#utility.yul\":3437:3550   */\n    tag_79:\n        /* \"#utility.yul\":3451:3457   */\n      dup4\n        /* \"#utility.yul\":3448:3449   */\n      dup2\n        /* \"#utility.yul\":3445:3458   */\n      lt\n        /* \"#utility.yul\":3437:3550   */\n      iszero\n      tag_81\n      jumpi\n        /* \"#utility.yul\":3536:3537   */\n      dup1\n        /* \"#utility.yul\":3531:3534   */\n      dup3\n        /* \"#utility.yul\":3527:3538   */\n      add\n        /* \"#utility.yul\":3521:3539   */\n      mload\n        /* \"#utility.yul\":3517:3518   */\n      dup2\n        /* \"#utility.yul\":3512:3515   */\n      dup5\n        /* \"#utility.yul\":3508:3519   */\n      add\n        /* \"#utility.yul\":3501:3540   */\n      mstore\n        /* \"#utility.yul\":3473:3475   */\n      0x20\n        /* \"#utility.yul\":3470:3471   */\n      dup2\n        /* \"#utility.yul\":3466:3476   */\n      add\n        /* \"#utility.yul\":3461:3476   */\n      swap1\n      pop\n        /* \"#utility.yul\":3437:3550   */\n      jump(tag_79)\n    tag_81:\n        /* \"#utility.yul\":3584:3585   */\n      0x00\n        /* \"#utility.yul\":3575:3581   */\n      dup5\n        /* \"#utility.yul\":3570:3573   */\n      dup5\n        /* \"#utility.yul\":3566:3582   */\n      add\n        /* \"#utility.yul\":3559:3586   */\n      mstore\n        /* \"#utility.yul\":3408:3592   */\n      pop\n        /* \"#utility.yul\":3346:3592   */\n      pop\n      pop\n      pop\n      jump\t// out\n        /* \"#utility.yul\":3598:3971   */\n    tag_36:\n        /* \"#utility.yul\":3684:3687   */\n      0x00\n        /* \"#utility.yul\":3712:3750   */\n      tag_83\n        /* \"#utility.yul\":3744:3749   */\n      dup3\n        /* \"#utility.yul\":3712:3750   */\n      tag_33\n      jump\t// in\n    tag_83:\n        /* \"#utility.yul\":3766:3836   */\n      tag_84\n        /* \"#utility.yul\":3829:3835   */\n      dup2\n        /* \"#utility.yul\":3824:3827   */\n      dup6\n        /* \"#utility.yul\":3766:3836   */\n      tag_34\n      jump\t// in\n    tag_84:\n        /* \"#utility.yul\":3759:3836   */\n      swap4\n      pop\n        /* \"#utility.yul\":3845:3910   */\n      tag_85\n        /* \"#utility.yul\":3903:3909   */\n      dup2\n        /* \"#utility.yul\":3898:3901   */\n      dup6\n        /* \"#utility.yul\":3891:3895   */\n      0x20\n        /* \"#utility.yul\":3884:3889   */\n      dup7\n        /* \"#utility.yul\":3880:3896   */\n      add\n        /* \"#utility.yul\":3845:3910   */\n      tag_35\n      jump\t// in\n    tag_85:\n        /* \"#utility.yul\":3935:3964   */\n      tag_86\n        /* \"#utility.yul\":3957:3963   */\n      dup2\n        /* \"#utility.yul\":3935:3964   */\n      tag_25\n      jump\t// in\n    tag_86:\n        /* \"#utility.yul\":3930:3933   */\n      dup5\n        /* \"#utility.yul\":3926:3965   */\n      add\n        /* \"#utility.yul\":3919:3965   */\n      swap2\n      pop\n        /* \"#utility.yul\":3688:3971   */\n      pop\n        /* \"#utility.yul\":3598:3971   */\n      swap3\n      swap2\n      pop\n      pop\n      jump\t// out\n        /* \"#utility.yul\":3977:4286   */\n    tag_10:\n        /* \"#utility.yul\":4088:4092   */\n      0x00\n        /* \"#utility.yul\":4126:4128   */\n      0x20\n        /* \"#utility.yul\":4115:4124   */\n      dup3\n        /* \"#utility.yul\":4111:4129   */\n      add\n        /* \"#utility.yul\":4103:4129   */\n      swap1\n      pop\n        /* \"#utility.yul\":4175:4184   */\n      dup2\n        /* \"#utility.yul\":4169:4173   */\n      dup2\n        /* \"#utility.yul\":4165:4185   */\n      sub\n        /* \"#utility.yul\":4161:4162   */\n      0x00\n        /* \"#utility.yul\":4150:4159   */\n      dup4\n        /* \"#utility.yul\":4146:4163   */\n      add\n        /* \"#utility.yul\":4139:4186   */\n      mstore\n        /* \"#utility.yul\":4203:4279   */\n      tag_88\n        /* \"#utility.yul\":4274:4278   */\n      dup2\n        /* \"#utility.yul\":4265:4271   */\n      dup5\n        /* \"#utility.yul\":4203:4279   */\n      tag_36\n      jump\t// in\n    tag_88:\n        /* \"#utility.yul\":4195:4279   */\n      swap1\n      pop\n        /* \"#utility.yul\":3977:4286   */\n      swap3\n      swap2\n      pop\n      pop\n      jump\t// out\n        /* \"#utility.yul\":4292:5126   */\n    tag_13:\n        /* \"#utility.yul\":4380:4386   */\n      0x00\n        /* \"#utility.yul\":4388:4394   */\n      dup1\n        /* \"#utility.yul\":4437:4439   */\n      0x40\n        /* \"#utility.yul\":4425:4434   */\n      dup4\n        /* \"#utility.yul\":4416:4423   */\n      dup6\n        /* \"#utility.yul\":4412:4435   */\n      sub\n        /* \"#utility.yul\":4408:4440   */\n      slt\n        /* \"#utility.yul\":4405:4524   */\n      iszero\n      tag_90\n      jumpi\n        /* \"#utility.yul\":4443:4522   */\n      tag_91\n      tag_21\n      jump\t// in\n    tag_91:\n        /* \"#utility.yul\":4405:4524   */\n    tag_90:\n        /* \"#utility.yul\":4591:4592   */\n      0x00\n        /* \"#utility.yul\":4580:4589   */\n      dup4\n        /* \"#utility.yul\":4576:4593   */\n      add\n        /* \"#utility.yul\":4563:4594   */\n      calldataload\n        /* \"#utility.yul\":4621:4639   */\n      0xffffffffffffffff\n        /* \"#utility.yul\":4613:4619   */\n      dup2\n        /* \"#utility.yul\":4610:4640   */\n      gt\n        /* \"#utility.yul\":4607:4724   */\n      iszero\n      tag_92\n      jumpi\n        /* \"#utility.yul\":4643:4722   */\n      tag_93\n      tag_22\n      jump\t// in\n    tag_93:\n        /* \"#utility.yul\":4607:4724   */\n    tag_92:\n        /* \"#utility.yul\":4748:4811   */\n      tag_94\n        /* \"#utility.yul\":4803:4810   */\n      dup6\n        /* \"#utility.yul\":4794:4800   */\n      dup3\n        /* \"#utility.yul\":4783:4792   */\n      dup7\n        /* \"#utility.yul\":4779:4801   */\n      add\n        /* \"#utility.yul\":4748:4811   */\n      tag_32\n      jump\t// in\n    tag_94:\n        /* \"#utility.yul\":4738:4811   */\n      swap3\n      pop\n        /* \"#utility.yul\":4534:4821   */\n      pop\n        /* \"#utility.yul\":4888:4890   */\n      0x20\n        /* \"#utility.yul\":4877:4886   */\n      dup4\n        /* \"#utility.yul\":4873:4891   */\n      add\n        /* \"#utility.yul\":4860:4892   */\n      calldataload\n        /* \"#utility.yul\":4919:4937   */\n      0xffffffffffffffff\n        /* \"#utility.yul\":4911:4917   */\n      dup2\n        /* \"#utility.yul\":4908:4938   */\n      gt\n        /* \"#utility.yul\":4905:5022   */\n      iszero\n      tag_95\n      jumpi\n        /* \"#utility.yul\":4941:5020   */\n      tag_96\n      tag_22\n      jump\t// in\n    tag_96:\n        /* \"#utility.yul\":4905:5022   */\n    tag_95:\n        /* \"#utility.yul\":5046:5109   */\n      tag_97\n        /* \"#utility.yul\":5101:5108   */\n      dup6\n        /* \"#utility.yul\":5092:5098   */\n      dup3\n        /* \"#utility.yul\":5081:5090   */\n      dup7\n        /* \"#utility.yul\":5077:5099   */\n      add\n        /* \"#utility.yul\":5046:5109   */\n      tag_32\n      jump\t// in\n    tag_97:\n        /* \"#utility.yul\":5036:5109   */\n      swap2\n      pop\n        /* \"#utility.yul\":4831:5119   */\n      pop\n        /* \"#utility.yul\":4292:5126   */\n      swap3\n      pop\n      swap3\n      swap1\n      pop\n      jump\t// out\n        /* \"#utility.yul\":5132:5231   */\n    tag_37:\n        /* \"#utility.yul\":5184:5190   */\n      0x00\n        /* \"#utility.yul\":5218:5223   */\n      dup2\n        /* \"#utility.yul\":5212:5224   */\n      mload\n        /* \"#utility.yul\":5202:5224   */\n      swap1\n      pop\n        /* \"#utility.yul\":5132:5231   */\n      swap2\n      swap1\n      pop\n      jump\t// out\n        /* \"#utility.yul\":5237:5385   */\n    tag_38:\n        /* \"#utility.yul\":5339:5350   */\n      0x00\n        /* \"#utility.yul\":5376:5379   */\n      dup2\n        /* \"#utility.yul\":5361:5379   */\n      swap1\n      pop\n        /* \"#utility.yul\":5237:5385   */\n      swap3\n      swap2\n      pop\n      pop\n      jump\t// out\n        /* \"#utility.yul\":5391:5781   */\n    tag_39:\n        /* \"#utility.yul\":5497:5500   */\n      0x00\n        /* \"#utility.yul\":5525:5564   */\n      tag_101\n        /* \"#utility.yul\":5558:5563   */\n      dup3\n        /* \"#utility.yul\":5525:5564   */\n      tag_37\n      jump\t// in\n    tag_101:\n        /* \"#utility.yul\":5580:5669   */\n      tag_102\n        /* \"#utility.yul\":5662:5668   */\n      dup2\n        /* \"#utility.yul\":5657:5660   */\n      dup6\n        /* \"#utility.yul\":5580:5669   */\n      tag_38\n      jump\t// in\n    tag_102:\n        /* \"#utility.yul\":5573:5669   */\n      swap4\n      pop\n        /* \"#utility.yul\":5678:5743   */\n      tag_103\n        /* \"#utility.yul\":5736:5742   */\n      dup2\n        /* \"#utility.yul\":5731:5734   */\n      dup6\n        /* \"#utility.yul\":5724:5728   */\n      0x20\n        /* \"#utility.yul\":5717:5722   */\n      dup7\n        /* \"#utility.yul\":5713:5729   */\n      add\n        /* \"#utility.yul\":5678:5743   */\n      tag_35\n      jump\t// in\n    tag_103:\n        /* \"#utility.yul\":5768:5774   */\n      dup1\n        /* \"#utility.yul\":5763:5766   */\n      dup5\n        /* \"#utility.yul\":5759:5775   */\n      add\n        /* \"#utility.yul\":5752:5775   */\n      swap2\n      pop\n        /* \"#utility.yul\":5501:5781   */\n      pop\n        /* \"#utility.yul\":5391:5781   */\n      swap3\n      swap2\n      pop\n      pop\n      jump\t// out\n        /* \"#utility.yul\":5787:6222   */\n    tag_19:\n        /* \"#utility.yul\":5967:5970   */\n      0x00\n        /* \"#utility.yul\":5989:6084   */\n      tag_105\n        /* \"#utility.yul\":6080:6083   */\n      dup3\n        /* \"#utility.yul\":6071:6077   */\n      dup6\n        /* \"#utility.yul\":5989:6084   */\n      tag_39\n      jump\t// in\n    tag_105:\n        /* \"#utility.yul\":5982:6084   */\n      swap2\n      pop\n        /* \"#utility.yul\":6101:6196   */\n      tag_106\n        /* \"#utility.yul\":6192:6195   */\n      dup3\n        /* \"#utility.yul\":6183:6189   */\n      dup5\n        /* \"#utility.yul\":6101:6196   */\n      tag_39\n      jump\t// in\n    tag_106:\n        /* \"#utility.yul\":6094:6196   */\n      swap2\n      pop\n        /* \"#utility.yul\":6213:6216   */\n      dup2\n        /* \"#utility.yul\":6206:6216   */\n      swap1\n      pop\n        /* \"#utility.yul\":5787:6222   */\n      swap4\n      swap3\n      pop\n      pop\n      pop\n      jump\t// out\n\n    auxdata: 0xa264697066735822122076eed9a94bbd0bc82154f69d0b93435dd5ef026b1bf6d71643b04c0b45fbfd6964736f6c63430008120033\n}\n",
				"bytecode": {
					"linkReferences": {},
					"object": "608060405234801561001057600080fd5b5061042e806100206000396000f3fe608060405234801561001057600080fd5b50600436106100365760003560e01c80631de8ac281461003b5780636f966cfe1461006b575b600080fd5b6100556004803603810190610050919061022b565b61009b565b60405161006291906102f3565b60405180910390f35b61008560048036038101906100809190610315565b6100a5565b60405161009291906102f3565b60405180910390f35b6060819050919050565b606082826040516020016100ba9291906103d4565b604051602081830303815290604052905092915050565b6000604051905090565b600080fd5b600080fd5b600080fd5b600080fd5b6000601f19601f8301169050919050565b7f4e487b7100000000000000000000000000000000000000000000000000000000600052604160045260246000fd5b610138826100ef565b810181811067ffffffffffffffff8211171561015757610156610100565b5b80604052505050565b600061016a6100d1565b9050610176828261012f565b919050565b600067ffffffffffffffff82111561019657610195610100565b5b61019f826100ef565b9050602081019050919050565b82818337600083830152505050565b60006101ce6101c98461017b565b610160565b9050828152602081018484840111156101ea576101e96100ea565b5b6101f58482856101ac565b509392505050565b600082601f830112610212576102116100e5565b5b81356102228482602086016101bb565b91505092915050565b600060208284031215610241576102406100db565b5b600082013567ffffffffffffffff81111561025f5761025e6100e0565b5b61026b848285016101fd565b91505092915050565b600081519050919050565b600082825260208201905092915050565b60005b838110156102ae578082015181840152602081019050610293565b60008484015250505050565b60006102c582610274565b6102cf818561027f565b93506102df818560208601610290565b6102e8816100ef565b840191505092915050565b6000602082019050818103600083015261030d81846102ba565b905092915050565b6000806040838503121561032c5761032b6100db565b5b600083013567ffffffffffffffff81111561034a576103496100e0565b5b610356858286016101fd565b925050602083013567ffffffffffffffff811115610377576103766100e0565b5b610383858286016101fd565b9150509250929050565b600081519050919050565b600081905092915050565b60006103ae8261038d565b6103b88185610398565b93506103c8818560208601610290565b80840191505092915050565b60006103e082856103a3565b91506103ec82846103a3565b9150819050939250505056fea264697066735822122076eed9a94bbd0bc82154f69d0b93435dd5ef026b1bf6d71643b04c0b45fbfd6964736f6c63430008120033",
					"opcodes": "PUSH1 0x80 PUSH1 0x40 MSTORE CALLVALUE DUP1 ISZERO PUSH2 0x10 JUMPI PUSH1 0x0 DUP1 REVERT JUMPDEST POP PUSH2 0x42E DUP1 PUSH2 0x20 PUSH1 0x0 CODECOPY PUSH1 0x0 RETURN INVALID PUSH1 0x80 PUSH1 0x40 MSTORE CALLVALUE DUP1 ISZERO PUSH2 0x10 JUMPI PUSH1 0x0 DUP1 REVERT JUMPDEST POP PUSH1 0x4 CALLDATASIZE LT PUSH2 0x36 JUMPI PUSH1 0x0 CALLDATALOAD PUSH1 0xE0 SHR DUP1 PUSH4 0x1DE8AC28 EQ PUSH2 0x3B JUMPI DUP1 PUSH4 0x6F966CFE EQ PUSH2 0x6B JUMPI JUMPDEST PUSH1 0x0 DUP1 REVERT JUMPDEST PUSH2 0x55 PUSH1 0x4 DUP1 CALLDATASIZE SUB DUP2 ADD SWAP1 PUSH2 0x50 SWAP2 SWAP1 PUSH2 0x22B JUMP JUMPDEST PUSH2 0x9B JUMP JUMPDEST PUSH1 0x40 MLOAD PUSH2 0x62 SWAP2 SWAP1 PUSH2 0x2F3 JUMP JUMPDEST PUSH1 0x40 MLOAD DUP1 SWAP2 SUB SWAP1 RETURN JUMPDEST PUSH2 0x85 PUSH1 0x4 DUP1 CALLDATASIZE SUB DUP2 ADD SWAP1 PUSH2 0x80 SWAP2 SWAP1 PUSH2 0x315 JUMP JUMPDEST PUSH2 0xA5 JUMP JUMPDEST PUSH1 0x40 MLOAD PUSH2 0x92 SWAP2 SWAP1 PUSH2 0x2F3 JUMP JUMPDEST PUSH1 0x40 MLOAD DUP1 SWAP2 SUB SWAP1 RETURN JUMPDEST PUSH1 0x60 DUP2 SWAP1 POP SWAP2 SWAP1 POP JUMP JUMPDEST PUSH1 0x60 DUP3 DUP3 PUSH1 0x40 MLOAD PUSH1 0x20 ADD PUSH2 0xBA SWAP3 SWAP2 SWAP1 PUSH2 0x3D4 JUMP JUMPDEST PUSH1 0x40 MLOAD PUSH1 0x20 DUP2 DUP4 SUB SUB DUP2 MSTORE SWAP1 PUSH1 0x40 MSTORE SWAP1 POP SWAP3 SWAP2 POP POP JUMP JUMPDEST PUSH1 0x0 PUSH1 0x40 MLOAD SWAP1 POP SWAP1 JUMP JUMPDEST PUSH1 0x0 DUP1 REVERT JUMPDEST PUSH1 0x0 DUP1 REVERT JUMPDEST PUSH1 0x0 DUP1 REVERT JUMPDEST PUSH1 0x0 DUP1 REVERT JUMPDEST PUSH1 0x0 PUSH1 0x1F NOT PUSH1 0x1F DUP4 ADD AND SWAP1 POP SWAP2 SWAP1 POP JUMP JUMPDEST PUSH32 0x4E487B7100000000000000000000000000000000000000000000000000000000 PUSH1 0x0 MSTORE PUSH1 0x41 PUSH1 0x4 MSTORE PUSH1 0x24 PUSH1 0x0 REVERT JUMPDEST PUSH2 0x138 DUP3 PUSH2 0xEF JUMP JUMPDEST DUP2 ADD DUP2 DUP2 LT PUSH8 0xFFFFFFFFFFFFFFFF DUP3 GT OR ISZERO PUSH2 0x157 JUMPI PUSH2 0x156 PUSH2 0x100 JUMP JUMPDEST JUMPDEST DUP1 PUSH1 0x40 MSTORE POP POP POP JUMP JUMPDEST PUSH1 0x0 PUSH2 0x16A PUSH2 0xD1 JUMP JUMPDEST SWAP1 POP PUSH2 0x176 DUP3 DUP3 PUSH2 0x12F JUMP JUMPDEST SWAP2 SWAP1 POP JUMP JUMPDEST PUSH1 0x0 PUSH8 0xFFFFFFFFFFFFFFFF DUP3 GT ISZERO PUSH2 0x196 JUMPI PUSH2 0x195 PUSH2 0x100 JUMP JUMPDEST JUMPDEST PUSH2 0x19F DUP3 PUSH2 0xEF JUMP JUMPDEST SWAP1 POP PUSH1 0x20 DUP2 ADD SWAP1 POP SWAP2 SWAP1 POP JUMP JUMPDEST DUP3 DUP2 DUP4 CALLDATACOPY PUSH1 0x0 DUP4 DUP4 ADD MSTORE POP POP POP JUMP JUMPDEST PUSH1 0x0 PUSH2 0x1CE PUSH2 0x1C9 DUP5 PUSH2 0x17B JUMP JUMPDEST PUSH2 0x160 JUMP JUMPDEST SWAP1 POP DUP3 DUP2 MSTORE PUSH1 0x20 DUP2 ADD DUP5 DUP5 DUP5 ADD GT ISZERO PUSH2 0x1EA JUMPI PUSH2 0x1E9 PUSH2 0xEA JUMP JUMPDEST JUMPDEST PUSH2 0x1F5 DUP5 DUP3 DUP6 PUSH2 0x1AC JUMP JUMPDEST POP SWAP4 SWAP3 POP POP POP JUMP JUMPDEST PUSH1 0x0 DUP3 PUSH1 0x1F DUP4 ADD SLT PUSH2 0x212 JUMPI PUSH2 0x211 PUSH2 0xE5 JUMP JUMPDEST JUMPDEST DUP2 CALLDATALOAD PUSH2 0x222 DUP5 DUP3 PUSH1 0x20 DUP7 ADD PUSH2 0x1BB JUMP JUMPDEST SWAP2 POP POP SWAP3 SWAP2 POP POP JUMP JUMPDEST PUSH1 0x0 PUSH1 0x20 DUP3 DUP5 SUB SLT ISZERO PUSH2 0x241 JUMPI PUSH2 0x240 PUSH2 0xDB JUMP JUMPDEST JUMPDEST PUSH1 0x0 DUP3 ADD CALLDATALOAD PUSH8 0xFFFFFFFFFFFFFFFF DUP2 GT ISZERO PUSH2 0x25F JUMPI PUSH2 0x25E PUSH2 0xE0 JUMP JUMPDEST JUMPDEST PUSH2 0x26B DUP5 DUP3 DUP6 ADD PUSH2 0x1FD JUMP JUMPDEST SWAP2 POP POP SWAP3 SWAP2 POP POP JUMP JUMPDEST PUSH1 0x0 DUP2 MLOAD SWAP1 POP SWAP2 SWAP1 POP JUMP JUMPDEST PUSH1 0x0 DUP3 DUP3 MSTORE PUSH1 0x20 DUP3 ADD SWAP1 POP SWAP3 SWAP2 POP POP JUMP JUMPDEST PUSH1 0x0 JUMPDEST DUP4 DUP2 LT ISZERO PUSH2 0x2AE JUMPI DUP1 DUP3 ADD MLOAD DUP2 DUP5 ADD MSTORE PUSH1 0x20 DUP2 ADD SWAP1 POP PUSH2 0x293 JUMP JUMPDEST PUSH1 0x0 DUP5 DUP5 ADD MSTORE POP POP POP POP JUMP JUMPDEST PUSH1 0x0 PUSH2 0x2C5 DUP3 PUSH2 0x274 JUMP JUMPDEST PUSH2 0x2CF DUP2 DUP6 PUSH2 0x27F JUMP JUMPDEST SWAP4 POP PUSH2 0x2DF DUP2 DUP6 PUSH1 0x20 DUP7 ADD PUSH2 0x290 JUMP JUMPDEST PUSH2 0x2E8 DUP2 PUSH2 0xEF JUMP JUMPDEST DUP5 ADD SWAP2 POP POP SWAP3 SWAP2 POP POP JUMP JUMPDEST PUSH1 0x0 PUSH1 0x20 DUP3 ADD SWAP1 POP DUP2 DUP2 SUB PUSH1 0x0 DUP4 ADD MSTORE PUSH2 0x30D DUP2 DUP5 PUSH2 0x2BA JUMP JUMPDEST SWAP1 POP SWAP3 SWAP2 POP POP JUMP JUMPDEST PUSH1 0x0 DUP1 PUSH1 0x40 DUP4 DUP6 SUB SLT ISZERO PUSH2 0x32C JUMPI PUSH2 0x32B PUSH2 0xDB JUMP JUMPDEST JUMPDEST PUSH1 0x0 DUP4 ADD CALLDATALOAD PUSH8 0xFFFFFFFFFFFFFFFF DUP2 GT ISZERO PUSH2 0x34A JUMPI PUSH2 0x349 PUSH2 0xE0 JUMP JUMPDEST JUMPDEST PUSH2 0x356 DUP6 DUP3 DUP7 ADD PUSH2 0x1FD JUMP JUMPDEST SWAP3 POP POP PUSH1 0x20 DUP4 ADD CALLDATALOAD PUSH8 0xFFFFFFFFFFFFFFFF DUP2 GT ISZERO PUSH2 0x377 JUMPI PUSH2 0x376 PUSH2 0xE0 JUMP JUMPDEST JUMPDEST PUSH2 0x383 DUP6 DUP3 DUP7 ADD PUSH2 0x1FD JUMP JUMPDEST SWAP2 POP POP SWAP3 POP SWAP3 SWAP1 POP JUMP JUMPDEST PUSH1 0x0 DUP2 MLOAD SWAP1 POP SWAP2 SWAP1 POP JUMP JUMPDEST PUSH1 0x0 DUP2 SWAP1 POP SWAP3 SWAP2 POP POP JUMP JUMPDEST PUSH1 0x0 PUSH2 0x3AE DUP3 PUSH2 0x38D JUMP JUMPDEST PUSH2 0x3B8 DUP2 DUP6 PUSH2 0x398 JUMP JUMPDEST SWAP4 POP PUSH2 0x3C8 DUP2 DUP6 PUSH1 0x20 DUP7 ADD PUSH2 0x290 JUMP JUMPDEST DUP1 DUP5 ADD SWAP2 POP POP SWAP3 SWAP2 POP POP JUMP JUMPDEST PUSH1 0x0 PUSH2 0x3E0 DUP3 DUP6 PUSH2 0x3A3 JUMP JUMPDEST SWAP2 POP PUSH2 0x3EC DUP3 DUP5 PUSH2 0x3A3 JUMP JUMPDEST SWAP2 POP DUP2 SWAP1 POP SWAP4 SWAP3 POP POP POP JUMP INVALID LOG2 PUSH5 0x6970667358 0x22 SLT KECCAK256 PUSH23 0xEED9A94BBD0BC82154F69D0B93435DD5EF026B1BF6D716 NUMBER 0xB0 0x4C SIGNEXTEND GASLIMIT 0xFB REVERT PUSH10 0x64736F6C634300081200 CALLER "
				},
				"gasEstimates": {
					"creation": {
						"codeDepositCost": "214000",
						"executionCost": "257",
						"totalCost": "214257"
					},
					"external": {
						"ABI_1(string,string)": "infinite",
						"bytes_1(string)": "infinite"
					}
				},
				"methodIdentifiers": {
					"ABI_1(string,string)": "6f966cfe",
					"bytes_1(string)": "1de8ac28"
				}
			},
			"storageLayout": {
				"storage": [],
				"types": null
			},
			"userdoc": {
				"kind": "user",
				"methods": {},
				"version": 1
			}
		}
	}
}