{
	"contracts-quiz/230530-QUIZ8-answer.sol": {
		"BytesCompare": {
			"abi": [
				{
					"inputs": [
						{
							"internalType": "bytes1",
							"name": "_a",
							"type": "bytes1"
						}
					],
					"name": "bytes1ToUint",
					"outputs": [
						{
							"internalType": "uint8",
							"name": "",
							"type": "uint8"
						}
					],
					"stateMutability": "pure",
					"type": "function"
				},
				{
					"inputs": [],
					"name": "bytesAdd",
					"outputs": [
						{
							"internalType": "bytes1",
							"name": "",
							"type": "bytes1"
						}
					],
					"stateMutability": "view",
					"type": "function"
				},
				{
					"inputs": [],
					"name": "compare",
					"outputs": [
						{
							"internalType": "bool",
							"name": "",
							"type": "bool"
						}
					],
					"stateMutability": "view",
					"type": "function"
				},
				{
					"inputs": [
						{
							"internalType": "bytes1",
							"name": "_a",
							"type": "bytes1"
						},
						{
							"internalType": "bytes1",
							"name": "_b",
							"type": "bytes1"
						}
					],
					"name": "compare2",
					"outputs": [
						{
							"internalType": "bool",
							"name": "",
							"type": "bool"
						}
					],
					"stateMutability": "pure",
					"type": "function"
				},
				{
					"inputs": [
						{
							"internalType": "bytes1",
							"name": "_a",
							"type": "bytes1"
						},
						{
							"internalType": "bytes1",
							"name": "_b",
							"type": "bytes1"
						}
					],
					"name": "compare3",
					"outputs": [
						{
							"internalType": "bool",
							"name": "",
							"type": "bool"
						}
					],
					"stateMutability": "pure",
					"type": "function"
				},
				{
					"inputs": [
						{
							"internalType": "uint8",
							"name": "_a",
							"type": "uint8"
						}
					],
					"name": "uintToBytes1",
					"outputs": [
						{
							"internalType": "bytes1",
							"name": "",
							"type": "bytes1"
						}
					],
					"stateMutability": "pure",
					"type": "function"
				}
			],
			"devdoc": {
				"kind": "dev",
				"methods": {},
				"version": 1
			},
			"evm": {
				"assembly": "    /* \"contracts-quiz/230530-QUIZ8-answer.sol\":6899:7558  contract BytesCompare {... */\n  mstore(0x40, 0x80)\n    /* \"contracts-quiz/230530-QUIZ8-answer.sol\":6938:6942  0x12 */\n  0x12\n    /* \"contracts-quiz/230530-QUIZ8-answer.sol\":6927:6942  bytes1 a = 0x12 */\n  0xf8\n  shl\n  0x00\n  dup1\n  0x0100\n  exp\n  dup2\n  sload\n  dup2\n  0xff\n  mul\n  not\n  and\n  swap1\n  dup4\n  0xf8\n  shr\n  mul\n  or\n  swap1\n  sstore\n  pop\n    /* \"contracts-quiz/230530-QUIZ8-answer.sol\":6959:6963  0x23 */\n  0x23\n    /* \"contracts-quiz/230530-QUIZ8-answer.sol\":6948:6963  bytes1 b = 0x23 */\n  0xf8\n  shl\n  0x00\n  exp(0x0100, 0x01)\n  dup2\n  sload\n  dup2\n  0xff\n  mul\n  not\n  and\n  swap1\n  dup4\n  0xf8\n  shr\n  mul\n  or\n  swap1\n  sstore\n  pop\n    /* \"contracts-quiz/230530-QUIZ8-answer.sol\":6899:7558  contract BytesCompare {... */\n  callvalue\n  dup1\n  iszero\n  tag_1\n  jumpi\n  0x00\n  dup1\n  revert\ntag_1:\n  pop\n  dataSize(sub_0)\n  dup1\n  dataOffset(sub_0)\n  0x00\n  codecopy\n  0x00\n  return\nstop\n\nsub_0: assembly {\n        /* \"contracts-quiz/230530-QUIZ8-answer.sol\":6899:7558  contract BytesCompare {... */\n      mstore(0x40, 0x80)\n      callvalue\n      dup1\n      iszero\n      tag_1\n      jumpi\n      0x00\n      dup1\n      revert\n    tag_1:\n      pop\n      jumpi(tag_2, lt(calldatasize, 0x04))\n      shr(0xe0, calldataload(0x00))\n      dup1\n      0x0f8aa47b\n      eq\n      tag_3\n      jumpi\n      dup1\n      0x3da0ac79\n      eq\n      tag_4\n      jumpi\n      dup1\n      0x779c4a81\n      eq\n      tag_5\n      jumpi\n      dup1\n      0xde1c6b24\n      eq\n      tag_6\n      jumpi\n      dup1\n      0xe48f025f\n      eq\n      tag_7\n      jumpi\n      dup1\n      0xeb9160b4\n      eq\n      tag_8\n      jumpi\n    tag_2:\n      0x00\n      dup1\n      revert\n        /* \"contracts-quiz/230530-QUIZ8-answer.sol\":7256:7349  function bytes1ToUint(bytes1 _a) public pure returns(uint8) {... */\n    tag_3:\n      tag_9\n      0x04\n      dup1\n      calldatasize\n      sub\n      dup2\n      add\n      swap1\n      tag_10\n      swap2\n      swap1\n      tag_11\n      jump\t// in\n    tag_10:\n      tag_12\n      jump\t// in\n    tag_9:\n      mload(0x40)\n      tag_13\n      swap2\n      swap1\n      tag_14\n      jump\t// in\n    tag_13:\n      mload(0x40)\n      dup1\n      swap2\n      sub\n      swap1\n      return\n        /* \"contracts-quiz/230530-QUIZ8-answer.sol\":6970:7044  function compare() public view returns(bool) {... */\n    tag_4:\n      tag_15\n      tag_16\n      jump\t// in\n    tag_15:\n      mload(0x40)\n      tag_17\n      swap2\n      swap1\n      tag_18\n      jump\t// in\n    tag_17:\n      mload(0x40)\n      dup1\n      swap2\n      sub\n      swap1\n      return\n        /* \"contracts-quiz/230530-QUIZ8-answer.sol\":7455:7556  function bytesAdd() public view returns(bytes1) {... */\n    tag_5:\n      tag_19\n      tag_20\n      jump\t// in\n    tag_19:\n      mload(0x40)\n      tag_21\n      swap2\n      swap1\n      tag_22\n      jump\t// in\n    tag_21:\n      mload(0x40)\n      dup1\n      swap2\n      sub\n      swap1\n      return\n        /* \"contracts-quiz/230530-QUIZ8-answer.sol\":7153:7250  function compare3(bytes1 _a, bytes1 _b) public pure returns(bool) {... */\n    tag_6:\n      tag_23\n      0x04\n      dup1\n      calldatasize\n      sub\n      dup2\n      add\n      swap1\n      tag_24\n      swap2\n      swap1\n      tag_25\n      jump\t// in\n    tag_24:\n      tag_26\n      jump\t// in\n    tag_23:\n      mload(0x40)\n      tag_27\n      swap2\n      swap1\n      tag_18\n      jump\t// in\n    tag_27:\n      mload(0x40)\n      dup1\n      swap2\n      sub\n      swap1\n      return\n        /* \"contracts-quiz/230530-QUIZ8-answer.sol\":7355:7449  function uintToBytes1(uint8 _a) public pure returns(bytes1) {... */\n    tag_7:\n      tag_28\n      0x04\n      dup1\n      calldatasize\n      sub\n      dup2\n      add\n      swap1\n      tag_29\n      swap2\n      swap1\n      tag_30\n      jump\t// in\n    tag_29:\n      tag_31\n      jump\t// in\n    tag_28:\n      mload(0x40)\n      tag_32\n      swap2\n      swap1\n      tag_22\n      jump\t// in\n    tag_32:\n      mload(0x40)\n      dup1\n      swap2\n      sub\n      swap1\n      return\n        /* \"contracts-quiz/230530-QUIZ8-answer.sol\":7050:7147  function compare2(bytes1 _a, bytes1 _b) public pure returns(bool) {... */\n    tag_8:\n      tag_33\n      0x04\n      dup1\n      calldatasize\n      sub\n      dup2\n      add\n      swap1\n      tag_34\n      swap2\n      swap1\n      tag_25\n      jump\t// in\n    tag_34:\n      tag_35\n      jump\t// in\n    tag_33:\n      mload(0x40)\n      tag_36\n      swap2\n      swap1\n      tag_18\n      jump\t// in\n    tag_36:\n      mload(0x40)\n      dup1\n      swap2\n      sub\n      swap1\n      return\n        /* \"contracts-quiz/230530-QUIZ8-answer.sol\":7256:7349  function bytes1ToUint(bytes1 _a) public pure returns(uint8) {... */\n    tag_12:\n        /* \"contracts-quiz/230530-QUIZ8-answer.sol\":7309:7314  uint8 */\n      0x00\n        /* \"contracts-quiz/230530-QUIZ8-answer.sol\":7339:7341  _a */\n      dup2\n        /* \"contracts-quiz/230530-QUIZ8-answer.sol\":7333:7342  uint8(_a) */\n      0xf8\n      shr\n        /* \"contracts-quiz/230530-QUIZ8-answer.sol\":7326:7342  return uint8(_a) */\n      swap1\n      pop\n        /* \"contracts-quiz/230530-QUIZ8-answer.sol\":7256:7349  function bytes1ToUint(bytes1 _a) public pure returns(uint8) {... */\n      swap2\n      swap1\n      pop\n      jump\t// out\n        /* \"contracts-quiz/230530-QUIZ8-answer.sol\":6970:7044  function compare() public view returns(bool) {... */\n    tag_16:\n        /* \"contracts-quiz/230530-QUIZ8-answer.sol\":7009:7013  bool */\n      0x00\n        /* \"contracts-quiz/230530-QUIZ8-answer.sol\":7036:7037  a */\n      dup1\n      0x00\n      swap1\n      sload\n      swap1\n      0x0100\n      exp\n      swap1\n      div\n      0xf8\n      shl\n        /* \"contracts-quiz/230530-QUIZ8-answer.sol\":7032:7037  b > a */\n      not(0xffffffffffffffffffffffffffffffffffffffffffffffffffffffffffffff)\n      and\n        /* \"contracts-quiz/230530-QUIZ8-answer.sol\":7032:7033  b */\n      0x00\n      0x01\n      swap1\n      sload\n      swap1\n      0x0100\n      exp\n      swap1\n      div\n      0xf8\n      shl\n        /* \"contracts-quiz/230530-QUIZ8-answer.sol\":7032:7037  b > a */\n      not(0xffffffffffffffffffffffffffffffffffffffffffffffffffffffffffffff)\n      and\n      gt\n        /* \"contracts-quiz/230530-QUIZ8-answer.sol\":7025:7037  return b > a */\n      swap1\n      pop\n        /* \"contracts-quiz/230530-QUIZ8-answer.sol\":6970:7044  function compare() public view returns(bool) {... */\n      swap1\n      jump\t// out\n        /* \"contracts-quiz/230530-QUIZ8-answer.sol\":7455:7556  function bytesAdd() public view returns(bytes1) {... */\n    tag_20:\n        /* \"contracts-quiz/230530-QUIZ8-answer.sol\":7495:7501  bytes1 */\n      0x00\n        /* \"contracts-quiz/230530-QUIZ8-answer.sol\":7545:7546  b */\n      dup1\n      0x01\n      swap1\n      sload\n      swap1\n      0x0100\n      exp\n      swap1\n      div\n      0xf8\n      shl\n        /* \"contracts-quiz/230530-QUIZ8-answer.sol\":7539:7547  uint8(b) */\n      0xf8\n      shr\n        /* \"contracts-quiz/230530-QUIZ8-answer.sol\":7534:7535  a */\n      0x00\n      dup1\n      sload\n      swap1\n      0x0100\n      exp\n      swap1\n      div\n      0xf8\n      shl\n        /* \"contracts-quiz/230530-QUIZ8-answer.sol\":7528:7536  uint8(a) */\n      0xf8\n      shr\n        /* \"contracts-quiz/230530-QUIZ8-answer.sol\":7528:7547  uint8(a) + uint8(b) */\n      tag_40\n      swap2\n      swap1\n      tag_41\n      jump\t// in\n    tag_40:\n        /* \"contracts-quiz/230530-QUIZ8-answer.sol\":7520:7549  bytes1((uint8(a) + uint8(b))) */\n      0xf8\n      shl\n        /* \"contracts-quiz/230530-QUIZ8-answer.sol\":7513:7549  return bytes1((uint8(a) + uint8(b))) */\n      swap1\n      pop\n        /* \"contracts-quiz/230530-QUIZ8-answer.sol\":7455:7556  function bytesAdd() public view returns(bytes1) {... */\n      swap1\n      jump\t// out\n        /* \"contracts-quiz/230530-QUIZ8-answer.sol\":7153:7250  function compare3(bytes1 _a, bytes1 _b) public pure returns(bool) {... */\n    tag_26:\n        /* \"contracts-quiz/230530-QUIZ8-answer.sol\":7213:7217  bool */\n      0x00\n        /* \"contracts-quiz/230530-QUIZ8-answer.sol\":7241:7243  _a */\n      dup3\n        /* \"contracts-quiz/230530-QUIZ8-answer.sol\":7236:7243  _b > _a */\n      not(0xffffffffffffffffffffffffffffffffffffffffffffffffffffffffffffff)\n      and\n        /* \"contracts-quiz/230530-QUIZ8-answer.sol\":7236:7238  _b */\n      dup3\n        /* \"contracts-quiz/230530-QUIZ8-answer.sol\":7236:7243  _b > _a */\n      not(0xffffffffffffffffffffffffffffffffffffffffffffffffffffffffffffff)\n      and\n      gt\n        /* \"contracts-quiz/230530-QUIZ8-answer.sol\":7229:7243  return _b > _a */\n      swap1\n      pop\n        /* \"contracts-quiz/230530-QUIZ8-answer.sol\":7153:7250  function compare3(bytes1 _a, bytes1 _b) public pure returns(bool) {... */\n      swap3\n      swap2\n      pop\n      pop\n      jump\t// out\n        /* \"contracts-quiz/230530-QUIZ8-answer.sol\":7355:7449  function uintToBytes1(uint8 _a) public pure returns(bytes1) {... */\n    tag_31:\n        /* \"contracts-quiz/230530-QUIZ8-answer.sol\":7407:7413  bytes1 */\n      0x00\n        /* \"contracts-quiz/230530-QUIZ8-answer.sol\":7439:7441  _a */\n      dup2\n        /* \"contracts-quiz/230530-QUIZ8-answer.sol\":7432:7442  bytes1(_a) */\n      0xf8\n      shl\n        /* \"contracts-quiz/230530-QUIZ8-answer.sol\":7425:7442  return bytes1(_a) */\n      swap1\n      pop\n        /* \"contracts-quiz/230530-QUIZ8-answer.sol\":7355:7449  function uintToBytes1(uint8 _a) public pure returns(bytes1) {... */\n      swap2\n      swap1\n      pop\n      jump\t// out\n        /* \"contracts-quiz/230530-QUIZ8-answer.sol\":7050:7147  function compare2(bytes1 _a, bytes1 _b) public pure returns(bool) {... */\n    tag_35:\n        /* \"contracts-quiz/230530-QUIZ8-answer.sol\":7110:7114  bool */\n      0x00\n        /* \"contracts-quiz/230530-QUIZ8-answer.sol\":7138:7140  _a */\n      dup3\n        /* \"contracts-quiz/230530-QUIZ8-answer.sol\":7133:7140  _b > _a */\n      not(0xffffffffffffffffffffffffffffffffffffffffffffffffffffffffffffff)\n      and\n        /* \"contracts-quiz/230530-QUIZ8-answer.sol\":7133:7135  _b */\n      dup3\n        /* \"contracts-quiz/230530-QUIZ8-answer.sol\":7133:7140  _b > _a */\n      not(0xffffffffffffffffffffffffffffffffffffffffffffffffffffffffffffff)\n      and\n      gt\n        /* \"contracts-quiz/230530-QUIZ8-answer.sol\":7126:7140  return _b > _a */\n      swap1\n      pop\n        /* \"contracts-quiz/230530-QUIZ8-answer.sol\":7050:7147  function compare2(bytes1 _a, bytes1 _b) public pure returns(bool) {... */\n      swap3\n      swap2\n      pop\n      pop\n      jump\t// out\n        /* \"#utility.yul\":88:205   */\n    tag_46:\n        /* \"#utility.yul\":197:198   */\n      0x00\n        /* \"#utility.yul\":194:195   */\n      dup1\n        /* \"#utility.yul\":187:199   */\n      revert\n        /* \"#utility.yul\":334:483   */\n    tag_48:\n        /* \"#utility.yul\":370:377   */\n      0x00\n        /* \"#utility.yul\":410:476   */\n      0xff00000000000000000000000000000000000000000000000000000000000000\n        /* \"#utility.yul\":403:408   */\n      dup3\n        /* \"#utility.yul\":399:477   */\n      and\n        /* \"#utility.yul\":388:477   */\n      swap1\n      pop\n        /* \"#utility.yul\":334:483   */\n      swap2\n      swap1\n      pop\n      jump\t// out\n        /* \"#utility.yul\":489:609   */\n    tag_49:\n        /* \"#utility.yul\":561:584   */\n      tag_65\n        /* \"#utility.yul\":578:583   */\n      dup2\n        /* \"#utility.yul\":561:584   */\n      tag_48\n      jump\t// in\n    tag_65:\n        /* \"#utility.yul\":554:559   */\n      dup2\n        /* \"#utility.yul\":551:585   */\n      eq\n        /* \"#utility.yul\":541:603   */\n      tag_66\n      jumpi\n        /* \"#utility.yul\":599:600   */\n      0x00\n        /* \"#utility.yul\":596:597   */\n      dup1\n        /* \"#utility.yul\":589:601   */\n      revert\n        /* \"#utility.yul\":541:603   */\n    tag_66:\n        /* \"#utility.yul\":489:609   */\n      pop\n      jump\t// out\n        /* \"#utility.yul\":615:752   */\n    tag_50:\n        /* \"#utility.yul\":660:665   */\n      0x00\n        /* \"#utility.yul\":698:704   */\n      dup2\n        /* \"#utility.yul\":685:705   */\n      calldataload\n        /* \"#utility.yul\":676:705   */\n      swap1\n      pop\n        /* \"#utility.yul\":714:746   */\n      tag_68\n        /* \"#utility.yul\":740:745   */\n      dup2\n        /* \"#utility.yul\":714:746   */\n      tag_49\n      jump\t// in\n    tag_68:\n        /* \"#utility.yul\":615:752   */\n      swap3\n      swap2\n      pop\n      pop\n      jump\t// out\n        /* \"#utility.yul\":758:1085   */\n    tag_11:\n        /* \"#utility.yul\":816:822   */\n      0x00\n        /* \"#utility.yul\":865:867   */\n      0x20\n        /* \"#utility.yul\":853:862   */\n      dup3\n        /* \"#utility.yul\":844:851   */\n      dup5\n        /* \"#utility.yul\":840:863   */\n      sub\n        /* \"#utility.yul\":836:868   */\n      slt\n        /* \"#utility.yul\":833:952   */\n      iszero\n      tag_70\n      jumpi\n        /* \"#utility.yul\":871:950   */\n      tag_71\n      tag_46\n      jump\t// in\n    tag_71:\n        /* \"#utility.yul\":833:952   */\n    tag_70:\n        /* \"#utility.yul\":991:992   */\n      0x00\n        /* \"#utility.yul\":1016:1068   */\n      tag_72\n        /* \"#utility.yul\":1060:1067   */\n      dup5\n        /* \"#utility.yul\":1051:1057   */\n      dup3\n        /* \"#utility.yul\":1040:1049   */\n      dup6\n        /* \"#utility.yul\":1036:1058   */\n      add\n        /* \"#utility.yul\":1016:1068   */\n      tag_50\n      jump\t// in\n    tag_72:\n        /* \"#utility.yul\":1006:1068   */\n      swap2\n      pop\n        /* \"#utility.yul\":962:1078   */\n      pop\n        /* \"#utility.yul\":758:1085   */\n      swap3\n      swap2\n      pop\n      pop\n      jump\t// out\n        /* \"#utility.yul\":1091:1177   */\n    tag_51:\n        /* \"#utility.yul\":1126:1133   */\n      0x00\n        /* \"#utility.yul\":1166:1170   */\n      0xff\n        /* \"#utility.yul\":1159:1164   */\n      dup3\n        /* \"#utility.yul\":1155:1171   */\n      and\n        /* \"#utility.yul\":1144:1171   */\n      swap1\n      pop\n        /* \"#utility.yul\":1091:1177   */\n      swap2\n      swap1\n      pop\n      jump\t// out\n        /* \"#utility.yul\":1183:1295   */\n    tag_52:\n        /* \"#utility.yul\":1266:1288   */\n      tag_75\n        /* \"#utility.yul\":1282:1287   */\n      dup2\n        /* \"#utility.yul\":1266:1288   */\n      tag_51\n      jump\t// in\n    tag_75:\n        /* \"#utility.yul\":1261:1264   */\n      dup3\n        /* \"#utility.yul\":1254:1289   */\n      mstore\n        /* \"#utility.yul\":1183:1295   */\n      pop\n      pop\n      jump\t// out\n        /* \"#utility.yul\":1301:1515   */\n    tag_14:\n        /* \"#utility.yul\":1390:1394   */\n      0x00\n        /* \"#utility.yul\":1428:1430   */\n      0x20\n        /* \"#utility.yul\":1417:1426   */\n      dup3\n        /* \"#utility.yul\":1413:1431   */\n      add\n        /* \"#utility.yul\":1405:1431   */\n      swap1\n      pop\n        /* \"#utility.yul\":1441:1508   */\n      tag_77\n        /* \"#utility.yul\":1505:1506   */\n      0x00\n        /* \"#utility.yul\":1494:1503   */\n      dup4\n        /* \"#utility.yul\":1490:1507   */\n      add\n        /* \"#utility.yul\":1481:1487   */\n      dup5\n        /* \"#utility.yul\":1441:1508   */\n      tag_52\n      jump\t// in\n    tag_77:\n        /* \"#utility.yul\":1301:1515   */\n      swap3\n      swap2\n      pop\n      pop\n      jump\t// out\n        /* \"#utility.yul\":1521:1611   */\n    tag_53:\n        /* \"#utility.yul\":1555:1562   */\n      0x00\n        /* \"#utility.yul\":1598:1603   */\n      dup2\n        /* \"#utility.yul\":1591:1604   */\n      iszero\n        /* \"#utility.yul\":1584:1605   */\n      iszero\n        /* \"#utility.yul\":1573:1605   */\n      swap1\n      pop\n        /* \"#utility.yul\":1521:1611   */\n      swap2\n      swap1\n      pop\n      jump\t// out\n        /* \"#utility.yul\":1617:1726   */\n    tag_54:\n        /* \"#utility.yul\":1698:1719   */\n      tag_80\n        /* \"#utility.yul\":1713:1718   */\n      dup2\n        /* \"#utility.yul\":1698:1719   */\n      tag_53\n      jump\t// in\n    tag_80:\n        /* \"#utility.yul\":1693:1696   */\n      dup3\n        /* \"#utility.yul\":1686:1720   */\n      mstore\n        /* \"#utility.yul\":1617:1726   */\n      pop\n      pop\n      jump\t// out\n        /* \"#utility.yul\":1732:1942   */\n    tag_18:\n        /* \"#utility.yul\":1819:1823   */\n      0x00\n        /* \"#utility.yul\":1857:1859   */\n      0x20\n        /* \"#utility.yul\":1846:1855   */\n      dup3\n        /* \"#utility.yul\":1842:1860   */\n      add\n        /* \"#utility.yul\":1834:1860   */\n      swap1\n      pop\n        /* \"#utility.yul\":1870:1935   */\n      tag_82\n        /* \"#utility.yul\":1932:1933   */\n      0x00\n        /* \"#utility.yul\":1921:1930   */\n      dup4\n        /* \"#utility.yul\":1917:1934   */\n      add\n        /* \"#utility.yul\":1908:1914   */\n      dup5\n        /* \"#utility.yul\":1870:1935   */\n      tag_54\n      jump\t// in\n    tag_82:\n        /* \"#utility.yul\":1732:1942   */\n      swap3\n      swap2\n      pop\n      pop\n      jump\t// out\n        /* \"#utility.yul\":1948:2063   */\n    tag_55:\n        /* \"#utility.yul\":2033:2056   */\n      tag_84\n        /* \"#utility.yul\":2050:2055   */\n      dup2\n        /* \"#utility.yul\":2033:2056   */\n      tag_48\n      jump\t// in\n    tag_84:\n        /* \"#utility.yul\":2028:2031   */\n      dup3\n        /* \"#utility.yul\":2021:2057   */\n      mstore\n        /* \"#utility.yul\":1948:2063   */\n      pop\n      pop\n      jump\t// out\n        /* \"#utility.yul\":2069:2287   */\n    tag_22:\n        /* \"#utility.yul\":2160:2164   */\n      0x00\n        /* \"#utility.yul\":2198:2200   */\n      0x20\n        /* \"#utility.yul\":2187:2196   */\n      dup3\n        /* \"#utility.yul\":2183:2201   */\n      add\n        /* \"#utility.yul\":2175:2201   */\n      swap1\n      pop\n        /* \"#utility.yul\":2211:2280   */\n      tag_86\n        /* \"#utility.yul\":2277:2278   */\n      0x00\n        /* \"#utility.yul\":2266:2275   */\n      dup4\n        /* \"#utility.yul\":2262:2279   */\n      add\n        /* \"#utility.yul\":2253:2259   */\n      dup5\n        /* \"#utility.yul\":2211:2280   */\n      tag_55\n      jump\t// in\n    tag_86:\n        /* \"#utility.yul\":2069:2287   */\n      swap3\n      swap2\n      pop\n      pop\n      jump\t// out\n        /* \"#utility.yul\":2293:2763   */\n    tag_25:\n        /* \"#utility.yul\":2359:2365   */\n      0x00\n        /* \"#utility.yul\":2367:2373   */\n      dup1\n        /* \"#utility.yul\":2416:2418   */\n      0x40\n        /* \"#utility.yul\":2404:2413   */\n      dup4\n        /* \"#utility.yul\":2395:2402   */\n      dup6\n        /* \"#utility.yul\":2391:2414   */\n      sub\n        /* \"#utility.yul\":2387:2419   */\n      slt\n        /* \"#utility.yul\":2384:2503   */\n      iszero\n      tag_88\n      jumpi\n        /* \"#utility.yul\":2422:2501   */\n      tag_89\n      tag_46\n      jump\t// in\n    tag_89:\n        /* \"#utility.yul\":2384:2503   */\n    tag_88:\n        /* \"#utility.yul\":2542:2543   */\n      0x00\n        /* \"#utility.yul\":2567:2619   */\n      tag_90\n        /* \"#utility.yul\":2611:2618   */\n      dup6\n        /* \"#utility.yul\":2602:2608   */\n      dup3\n        /* \"#utility.yul\":2591:2600   */\n      dup7\n        /* \"#utility.yul\":2587:2609   */\n      add\n        /* \"#utility.yul\":2567:2619   */\n      tag_50\n      jump\t// in\n    tag_90:\n        /* \"#utility.yul\":2557:2619   */\n      swap3\n      pop\n        /* \"#utility.yul\":2513:2629   */\n      pop\n        /* \"#utility.yul\":2668:2670   */\n      0x20\n        /* \"#utility.yul\":2694:2746   */\n      tag_91\n        /* \"#utility.yul\":2738:2745   */\n      dup6\n        /* \"#utility.yul\":2729:2735   */\n      dup3\n        /* \"#utility.yul\":2718:2727   */\n      dup7\n        /* \"#utility.yul\":2714:2736   */\n      add\n        /* \"#utility.yul\":2694:2746   */\n      tag_50\n      jump\t// in\n    tag_91:\n        /* \"#utility.yul\":2684:2746   */\n      swap2\n      pop\n        /* \"#utility.yul\":2639:2756   */\n      pop\n        /* \"#utility.yul\":2293:2763   */\n      swap3\n      pop\n      swap3\n      swap1\n      pop\n      jump\t// out\n        /* \"#utility.yul\":2769:2887   */\n    tag_56:\n        /* \"#utility.yul\":2840:2862   */\n      tag_93\n        /* \"#utility.yul\":2856:2861   */\n      dup2\n        /* \"#utility.yul\":2840:2862   */\n      tag_51\n      jump\t// in\n    tag_93:\n        /* \"#utility.yul\":2833:2838   */\n      dup2\n        /* \"#utility.yul\":2830:2863   */\n      eq\n        /* \"#utility.yul\":2820:2881   */\n      tag_94\n      jumpi\n        /* \"#utility.yul\":2877:2878   */\n      0x00\n        /* \"#utility.yul\":2874:2875   */\n      dup1\n        /* \"#utility.yul\":2867:2879   */\n      revert\n        /* \"#utility.yul\":2820:2881   */\n    tag_94:\n        /* \"#utility.yul\":2769:2887   */\n      pop\n      jump\t// out\n        /* \"#utility.yul\":2893:3028   */\n    tag_57:\n        /* \"#utility.yul\":2937:2942   */\n      0x00\n        /* \"#utility.yul\":2975:2981   */\n      dup2\n        /* \"#utility.yul\":2962:2982   */\n      calldataload\n        /* \"#utility.yul\":2953:2982   */\n      swap1\n      pop\n        /* \"#utility.yul\":2991:3022   */\n      tag_96\n        /* \"#utility.yul\":3016:3021   */\n      dup2\n        /* \"#utility.yul\":2991:3022   */\n      tag_56\n      jump\t// in\n    tag_96:\n        /* \"#utility.yul\":2893:3028   */\n      swap3\n      swap2\n      pop\n      pop\n      jump\t// out\n        /* \"#utility.yul\":3034:3359   */\n    tag_30:\n        /* \"#utility.yul\":3091:3097   */\n      0x00\n        /* \"#utility.yul\":3140:3142   */\n      0x20\n        /* \"#utility.yul\":3128:3137   */\n      dup3\n        /* \"#utility.yul\":3119:3126   */\n      dup5\n        /* \"#utility.yul\":3115:3138   */\n      sub\n        /* \"#utility.yul\":3111:3143   */\n      slt\n        /* \"#utility.yul\":3108:3227   */\n      iszero\n      tag_98\n      jumpi\n        /* \"#utility.yul\":3146:3225   */\n      tag_99\n      tag_46\n      jump\t// in\n    tag_99:\n        /* \"#utility.yul\":3108:3227   */\n    tag_98:\n        /* \"#utility.yul\":3266:3267   */\n      0x00\n        /* \"#utility.yul\":3291:3342   */\n      tag_100\n        /* \"#utility.yul\":3334:3341   */\n      dup5\n        /* \"#utility.yul\":3325:3331   */\n      dup3\n        /* \"#utility.yul\":3314:3323   */\n      dup6\n        /* \"#utility.yul\":3310:3332   */\n      add\n        /* \"#utility.yul\":3291:3342   */\n      tag_57\n      jump\t// in\n    tag_100:\n        /* \"#utility.yul\":3281:3342   */\n      swap2\n      pop\n        /* \"#utility.yul\":3237:3352   */\n      pop\n        /* \"#utility.yul\":3034:3359   */\n      swap3\n      swap2\n      pop\n      pop\n      jump\t// out\n        /* \"#utility.yul\":3365:3545   */\n    tag_58:\n        /* \"#utility.yul\":3413:3490   */\n      0x4e487b7100000000000000000000000000000000000000000000000000000000\n        /* \"#utility.yul\":3410:3411   */\n      0x00\n        /* \"#utility.yul\":3403:3491   */\n      mstore\n        /* \"#utility.yul\":3510:3514   */\n      0x11\n        /* \"#utility.yul\":3507:3508   */\n      0x04\n        /* \"#utility.yul\":3500:3515   */\n      mstore\n        /* \"#utility.yul\":3534:3538   */\n      0x24\n        /* \"#utility.yul\":3531:3532   */\n      0x00\n        /* \"#utility.yul\":3524:3539   */\n      revert\n        /* \"#utility.yul\":3551:3739   */\n    tag_41:\n        /* \"#utility.yul\":3589:3592   */\n      0x00\n        /* \"#utility.yul\":3608:3626   */\n      tag_103\n        /* \"#utility.yul\":3624:3625   */\n      dup3\n        /* \"#utility.yul\":3608:3626   */\n      tag_51\n      jump\t// in\n    tag_103:\n        /* \"#utility.yul\":3603:3626   */\n      swap2\n      pop\n        /* \"#utility.yul\":3640:3658   */\n      tag_104\n        /* \"#utility.yul\":3656:3657   */\n      dup4\n        /* \"#utility.yul\":3640:3658   */\n      tag_51\n      jump\t// in\n    tag_104:\n        /* \"#utility.yul\":3635:3658   */\n      swap3\n      pop\n        /* \"#utility.yul\":3681:3682   */\n      dup3\n        /* \"#utility.yul\":3678:3679   */\n      dup3\n        /* \"#utility.yul\":3674:3683   */\n      add\n        /* \"#utility.yul\":3667:3683   */\n      swap1\n      pop\n        /* \"#utility.yul\":3704:3708   */\n      0xff\n        /* \"#utility.yul\":3699:3702   */\n      dup2\n        /* \"#utility.yul\":3696:3709   */\n      gt\n        /* \"#utility.yul\":3693:3732   */\n      iszero\n      tag_105\n      jumpi\n        /* \"#utility.yul\":3712:3730   */\n      tag_106\n      tag_58\n      jump\t// in\n    tag_106:\n        /* \"#utility.yul\":3693:3732   */\n    tag_105:\n        /* \"#utility.yul\":3551:3739   */\n      swap3\n      swap2\n      pop\n      pop\n      jump\t// out\n\n    auxdata: 0xa2646970667358221220691468bb6587b0b6c617c8967a0be66435028013ea924df22e065c722b10f16564736f6c63430008120033\n}\n",
				"bytecode": {
					"linkReferences": {},
					"object": "6080604052601260f81b6000806101000a81548160ff021916908360f81c0217905550602360f81b600060016101000a81548160ff021916908360f81c021790555034801561004d57600080fd5b506105158061005d6000396000f3fe608060405234801561001057600080fd5b50600436106100625760003560e01c80630f8aa47b146100675780633da0ac7914610097578063779c4a81146100b5578063de1c6b24146100d3578063e48f025f14610103578063eb9160b414610133575b600080fd5b610081600480360381019061007c919061031e565b610163565b60405161008e9190610367565b60405180910390f35b61009f610170565b6040516100ac919061039d565b60405180910390f35b6100bd6101db565b6040516100ca91906103c7565b60405180910390f35b6100ed60048036038101906100e891906103e2565b610212565b6040516100fa919061039d565b60405180910390f35b61011d6004803603810190610118919061044e565b610263565b60405161012a91906103c7565b60405180910390f35b61014d600480360381019061014891906103e2565b610270565b60405161015a919061039d565b60405180910390f35b60008160f81c9050919050565b60008060009054906101000a900460f81b7effffffffffffffffffffffffffffffffffffffffffffffffffffffffffffff1916600060019054906101000a900460f81b7effffffffffffffffffffffffffffffffffffffffffffffffffffffffffffff191611905090565b60008060019054906101000a900460f81b60f81c60008054906101000a900460f81b60f81c61020a91906104aa565b60f81b905090565b6000827effffffffffffffffffffffffffffffffffffffffffffffffffffffffffffff1916827effffffffffffffffffffffffffffffffffffffffffffffffffffffffffffff191611905092915050565b60008160f81b9050919050565b6000827effffffffffffffffffffffffffffffffffffffffffffffffffffffffffffff1916827effffffffffffffffffffffffffffffffffffffffffffffffffffffffffffff191611905092915050565b600080fd5b60007fff0000000000000000000000000000000000000000000000000000000000000082169050919050565b6102fb816102c6565b811461030657600080fd5b50565b600081359050610318816102f2565b92915050565b600060208284031215610334576103336102c1565b5b600061034284828501610309565b91505092915050565b600060ff82169050919050565b6103618161034b565b82525050565b600060208201905061037c6000830184610358565b92915050565b60008115159050919050565b61039781610382565b82525050565b60006020820190506103b2600083018461038e565b92915050565b6103c1816102c6565b82525050565b60006020820190506103dc60008301846103b8565b92915050565b600080604083850312156103f9576103f86102c1565b5b600061040785828601610309565b925050602061041885828601610309565b9150509250929050565b61042b8161034b565b811461043657600080fd5b50565b60008135905061044881610422565b92915050565b600060208284031215610464576104636102c1565b5b600061047284828501610439565b91505092915050565b7f4e487b7100000000000000000000000000000000000000000000000000000000600052601160045260246000fd5b60006104b58261034b565b91506104c08361034b565b9250828201905060ff8111156104d9576104d861047b565b5b9291505056fea2646970667358221220691468bb6587b0b6c617c8967a0be66435028013ea924df22e065c722b10f16564736f6c63430008120033",
					"opcodes": "PUSH1 0x80 PUSH1 0x40 MSTORE PUSH1 0x12 PUSH1 0xF8 SHL PUSH1 0x0 DUP1 PUSH2 0x100 EXP DUP2 SLOAD DUP2 PUSH1 0xFF MUL NOT AND SWAP1 DUP4 PUSH1 0xF8 SHR MUL OR SWAP1 SSTORE POP PUSH1 0x23 PUSH1 0xF8 SHL PUSH1 0x0 PUSH1 0x1 PUSH2 0x100 EXP DUP2 SLOAD DUP2 PUSH1 0xFF MUL NOT AND SWAP1 DUP4 PUSH1 0xF8 SHR MUL OR SWAP1 SSTORE POP CALLVALUE DUP1 ISZERO PUSH2 0x4D JUMPI PUSH1 0x0 DUP1 REVERT JUMPDEST POP PUSH2 0x515 DUP1 PUSH2 0x5D PUSH1 0x0 CODECOPY PUSH1 0x0 RETURN INVALID PUSH1 0x80 PUSH1 0x40 MSTORE CALLVALUE DUP1 ISZERO PUSH2 0x10 JUMPI PUSH1 0x0 DUP1 REVERT JUMPDEST POP PUSH1 0x4 CALLDATASIZE LT PUSH2 0x62 JUMPI PUSH1 0x0 CALLDATALOAD PUSH1 0xE0 SHR DUP1 PUSH4 0xF8AA47B EQ PUSH2 0x67 JUMPI DUP1 PUSH4 0x3DA0AC79 EQ PUSH2 0x97 JUMPI DUP1 PUSH4 0x779C4A81 EQ PUSH2 0xB5 JUMPI DUP1 PUSH4 0xDE1C6B24 EQ PUSH2 0xD3 JUMPI DUP1 PUSH4 0xE48F025F EQ PUSH2 0x103 JUMPI DUP1 PUSH4 0xEB9160B4 EQ PUSH2 0x133 JUMPI JUMPDEST PUSH1 0x0 DUP1 REVERT JUMPDEST PUSH2 0x81 PUSH1 0x4 DUP1 CALLDATASIZE SUB DUP2 ADD SWAP1 PUSH2 0x7C SWAP2 SWAP1 PUSH2 0x31E JUMP JUMPDEST PUSH2 0x163 JUMP JUMPDEST PUSH1 0x40 MLOAD PUSH2 0x8E SWAP2 SWAP1 PUSH2 0x367 JUMP JUMPDEST PUSH1 0x40 MLOAD DUP1 SWAP2 SUB SWAP1 RETURN JUMPDEST PUSH2 0x9F PUSH2 0x170 JUMP JUMPDEST PUSH1 0x40 MLOAD PUSH2 0xAC SWAP2 SWAP1 PUSH2 0x39D JUMP JUMPDEST PUSH1 0x40 MLOAD DUP1 SWAP2 SUB SWAP1 RETURN JUMPDEST PUSH2 0xBD PUSH2 0x1DB JUMP JUMPDEST PUSH1 0x40 MLOAD PUSH2 0xCA SWAP2 SWAP1 PUSH2 0x3C7 JUMP JUMPDEST PUSH1 0x40 MLOAD DUP1 SWAP2 SUB SWAP1 RETURN JUMPDEST PUSH2 0xED PUSH1 0x4 DUP1 CALLDATASIZE SUB DUP2 ADD SWAP1 PUSH2 0xE8 SWAP2 SWAP1 PUSH2 0x3E2 JUMP JUMPDEST PUSH2 0x212 JUMP JUMPDEST PUSH1 0x40 MLOAD PUSH2 0xFA SWAP2 SWAP1 PUSH2 0x39D JUMP JUMPDEST PUSH1 0x40 MLOAD DUP1 SWAP2 SUB SWAP1 RETURN JUMPDEST PUSH2 0x11D PUSH1 0x4 DUP1 CALLDATASIZE SUB DUP2 ADD SWAP1 PUSH2 0x118 SWAP2 SWAP1 PUSH2 0x44E JUMP JUMPDEST PUSH2 0x263 JUMP JUMPDEST PUSH1 0x40 MLOAD PUSH2 0x12A SWAP2 SWAP1 PUSH2 0x3C7 JUMP JUMPDEST PUSH1 0x40 MLOAD DUP1 SWAP2 SUB SWAP1 RETURN JUMPDEST PUSH2 0x14D PUSH1 0x4 DUP1 CALLDATASIZE SUB DUP2 ADD SWAP1 PUSH2 0x148 SWAP2 SWAP1 PUSH2 0x3E2 JUMP JUMPDEST PUSH2 0x270 JUMP JUMPDEST PUSH1 0x40 MLOAD PUSH2 0x15A SWAP2 SWAP1 PUSH2 0x39D JUMP JUMPDEST PUSH1 0x40 MLOAD DUP1 SWAP2 SUB SWAP1 RETURN JUMPDEST PUSH1 0x0 DUP2 PUSH1 0xF8 SHR SWAP1 POP SWAP2 SWAP1 POP JUMP JUMPDEST PUSH1 0x0 DUP1 PUSH1 0x0 SWAP1 SLOAD SWAP1 PUSH2 0x100 EXP SWAP1 DIV PUSH1 0xF8 SHL PUSH31 0xFFFFFFFFFFFFFFFFFFFFFFFFFFFFFFFFFFFFFFFFFFFFFFFFFFFFFFFFFFFFFF NOT AND PUSH1 0x0 PUSH1 0x1 SWAP1 SLOAD SWAP1 PUSH2 0x100 EXP SWAP1 DIV PUSH1 0xF8 SHL PUSH31 0xFFFFFFFFFFFFFFFFFFFFFFFFFFFFFFFFFFFFFFFFFFFFFFFFFFFFFFFFFFFFFF NOT AND GT SWAP1 POP SWAP1 JUMP JUMPDEST PUSH1 0x0 DUP1 PUSH1 0x1 SWAP1 SLOAD SWAP1 PUSH2 0x100 EXP SWAP1 DIV PUSH1 0xF8 SHL PUSH1 0xF8 SHR PUSH1 0x0 DUP1 SLOAD SWAP1 PUSH2 0x100 EXP SWAP1 DIV PUSH1 0xF8 SHL PUSH1 0xF8 SHR PUSH2 0x20A SWAP2 SWAP1 PUSH2 0x4AA JUMP JUMPDEST PUSH1 0xF8 SHL SWAP1 POP SWAP1 JUMP JUMPDEST PUSH1 0x0 DUP3 PUSH31 0xFFFFFFFFFFFFFFFFFFFFFFFFFFFFFFFFFFFFFFFFFFFFFFFFFFFFFFFFFFFFFF NOT AND DUP3 PUSH31 0xFFFFFFFFFFFFFFFFFFFFFFFFFFFFFFFFFFFFFFFFFFFFFFFFFFFFFFFFFFFFFF NOT AND GT SWAP1 POP SWAP3 SWAP2 POP POP JUMP JUMPDEST PUSH1 0x0 DUP2 PUSH1 0xF8 SHL SWAP1 POP SWAP2 SWAP1 POP JUMP JUMPDEST PUSH1 0x0 DUP3 PUSH31 0xFFFFFFFFFFFFFFFFFFFFFFFFFFFFFFFFFFFFFFFFFFFFFFFFFFFFFFFFFFFFFF NOT AND DUP3 PUSH31 0xFFFFFFFFFFFFFFFFFFFFFFFFFFFFFFFFFFFFFFFFFFFFFFFFFFFFFFFFFFFFFF NOT AND GT SWAP1 POP SWAP3 SWAP2 POP POP JUMP JUMPDEST PUSH1 0x0 DUP1 REVERT JUMPDEST PUSH1 0x0 PUSH32 0xFF00000000000000000000000000000000000000000000000000000000000000 DUP3 AND SWAP1 POP SWAP2 SWAP1 POP JUMP JUMPDEST PUSH2 0x2FB DUP2 PUSH2 0x2C6 JUMP JUMPDEST DUP2 EQ PUSH2 0x306 JUMPI PUSH1 0x0 DUP1 REVERT JUMPDEST POP JUMP JUMPDEST PUSH1 0x0 DUP2 CALLDATALOAD SWAP1 POP PUSH2 0x318 DUP2 PUSH2 0x2F2 JUMP JUMPDEST SWAP3 SWAP2 POP POP JUMP JUMPDEST PUSH1 0x0 PUSH1 0x20 DUP3 DUP5 SUB SLT ISZERO PUSH2 0x334 JUMPI PUSH2 0x333 PUSH2 0x2C1 JUMP JUMPDEST JUMPDEST PUSH1 0x0 PUSH2 0x342 DUP5 DUP3 DUP6 ADD PUSH2 0x309 JUMP JUMPDEST SWAP2 POP POP SWAP3 SWAP2 POP POP JUMP JUMPDEST PUSH1 0x0 PUSH1 0xFF DUP3 AND SWAP1 POP SWAP2 SWAP1 POP JUMP JUMPDEST PUSH2 0x361 DUP2 PUSH2 0x34B JUMP JUMPDEST DUP3 MSTORE POP POP JUMP JUMPDEST PUSH1 0x0 PUSH1 0x20 DUP3 ADD SWAP1 POP PUSH2 0x37C PUSH1 0x0 DUP4 ADD DUP5 PUSH2 0x358 JUMP JUMPDEST SWAP3 SWAP2 POP POP JUMP JUMPDEST PUSH1 0x0 DUP2 ISZERO ISZERO SWAP1 POP SWAP2 SWAP1 POP JUMP JUMPDEST PUSH2 0x397 DUP2 PUSH2 0x382 JUMP JUMPDEST DUP3 MSTORE POP POP JUMP JUMPDEST PUSH1 0x0 PUSH1 0x20 DUP3 ADD SWAP1 POP PUSH2 0x3B2 PUSH1 0x0 DUP4 ADD DUP5 PUSH2 0x38E JUMP JUMPDEST SWAP3 SWAP2 POP POP JUMP JUMPDEST PUSH2 0x3C1 DUP2 PUSH2 0x2C6 JUMP JUMPDEST DUP3 MSTORE POP POP JUMP JUMPDEST PUSH1 0x0 PUSH1 0x20 DUP3 ADD SWAP1 POP PUSH2 0x3DC PUSH1 0x0 DUP4 ADD DUP5 PUSH2 0x3B8 JUMP JUMPDEST SWAP3 SWAP2 POP POP JUMP JUMPDEST PUSH1 0x0 DUP1 PUSH1 0x40 DUP4 DUP6 SUB SLT ISZERO PUSH2 0x3F9 JUMPI PUSH2 0x3F8 PUSH2 0x2C1 JUMP JUMPDEST JUMPDEST PUSH1 0x0 PUSH2 0x407 DUP6 DUP3 DUP7 ADD PUSH2 0x309 JUMP JUMPDEST SWAP3 POP POP PUSH1 0x20 PUSH2 0x418 DUP6 DUP3 DUP7 ADD PUSH2 0x309 JUMP JUMPDEST SWAP2 POP POP SWAP3 POP SWAP3 SWAP1 POP JUMP JUMPDEST PUSH2 0x42B DUP2 PUSH2 0x34B JUMP JUMPDEST DUP2 EQ PUSH2 0x436 JUMPI PUSH1 0x0 DUP1 REVERT JUMPDEST POP JUMP JUMPDEST PUSH1 0x0 DUP2 CALLDATALOAD SWAP1 POP PUSH2 0x448 DUP2 PUSH2 0x422 JUMP JUMPDEST SWAP3 SWAP2 POP POP JUMP JUMPDEST PUSH1 0x0 PUSH1 0x20 DUP3 DUP5 SUB SLT ISZERO PUSH2 0x464 JUMPI PUSH2 0x463 PUSH2 0x2C1 JUMP JUMPDEST JUMPDEST PUSH1 0x0 PUSH2 0x472 DUP5 DUP3 DUP6 ADD PUSH2 0x439 JUMP JUMPDEST SWAP2 POP POP SWAP3 SWAP2 POP POP JUMP JUMPDEST PUSH32 0x4E487B7100000000000000000000000000000000000000000000000000000000 PUSH1 0x0 MSTORE PUSH1 0x11 PUSH1 0x4 MSTORE PUSH1 0x24 PUSH1 0x0 REVERT JUMPDEST PUSH1 0x0 PUSH2 0x4B5 DUP3 PUSH2 0x34B JUMP JUMPDEST SWAP2 POP PUSH2 0x4C0 DUP4 PUSH2 0x34B JUMP JUMPDEST SWAP3 POP DUP3 DUP3 ADD SWAP1 POP PUSH1 0xFF DUP2 GT ISZERO PUSH2 0x4D9 JUMPI PUSH2 0x4D8 PUSH2 0x47B JUMP JUMPDEST JUMPDEST SWAP3 SWAP2 POP POP JUMP INVALID LOG2 PUSH5 0x6970667358 0x22 SLT KECCAK256 PUSH10 0x1468BB6587B0B6C617C8 SWAP7 PUSH27 0xBE66435028013EA924DF22E065C722B10F16564736F6C63430008 SLT STOP CALLER "
				},
				"gasEstimates": {
					"creation": {
						"codeDepositCost": "260200",
						"executionCost": "48896",
						"totalCost": "309096"
					},
					"external": {
						"bytes1ToUint(bytes1)": "598",
						"bytesAdd()": "infinite",
						"compare()": "4689",
						"compare2(bytes1,bytes1)": "infinite",
						"compare3(bytes1,bytes1)": "infinite",
						"uintToBytes1(uint8)": "686"
					}
				},
				"methodIdentifiers": {
					"bytes1ToUint(bytes1)": "0f8aa47b",
					"bytesAdd()": "779c4a81",
					"compare()": "3da0ac79",
					"compare2(bytes1,bytes1)": "eb9160b4",
					"compare3(bytes1,bytes1)": "de1c6b24",
					"uintToBytes1(uint8)": "e48f025f"
				}
			},
			"storageLayout": {
				"storage": [
					{
						"astId": 847,
						"contract": "contracts-quiz/230530-QUIZ8-answer.sol:BytesCompare",
						"label": "a",
						"offset": 0,
						"slot": "0",
						"type": "t_bytes1"
					},
					{
						"astId": 850,
						"contract": "contracts-quiz/230530-QUIZ8-answer.sol:BytesCompare",
						"label": "b",
						"offset": 1,
						"slot": "0",
						"type": "t_bytes1"
					}
				],
				"types": {
					"t_bytes1": {
						"encoding": "inplace",
						"label": "bytes1",
						"numberOfBytes": "1"
					}
				}
			},
			"userdoc": {
				"kind": "user",
				"methods": {},
				"version": 1
			}
		}
	}
}