{
	"contracts-quiz/230530-QUIZ8-answer.sol": {
		"Q8_2": {
			"abi": [
				{
					"inputs": [],
					"stateMutability": "nonpayable",
					"type": "constructor"
				},
				{
					"inputs": [
						{
							"internalType": "string[]",
							"name": "_myLetter",
							"type": "string[]"
						}
					],
					"name": "isSameLetter",
					"outputs": [
						{
							"internalType": "uint256",
							"name": "",
							"type": "uint256"
						}
					],
					"stateMutability": "view",
					"type": "function"
				},
				{
					"inputs": [
						{
							"internalType": "string",
							"name": "_a",
							"type": "string"
						},
						{
							"internalType": "string",
							"name": "_b",
							"type": "string"
						}
					],
					"name": "letterCompare",
					"outputs": [
						{
							"internalType": "bool",
							"name": "",
							"type": "bool"
						}
					],
					"stateMutability": "pure",
					"type": "function"
				},
				{
					"inputs": [
						{
							"internalType": "uint256",
							"name": "",
							"type": "uint256"
						}
					],
					"name": "letters",
					"outputs": [
						{
							"internalType": "string",
							"name": "",
							"type": "string"
						}
					],
					"stateMutability": "view",
					"type": "function"
				},
				{
					"inputs": [
						{
							"internalType": "string[]",
							"name": "_letters",
							"type": "string[]"
						}
					],
					"name": "setLotto",
					"outputs": [],
					"stateMutability": "payable",
					"type": "function"
				},
				{
					"inputs": [
						{
							"internalType": "string[]",
							"name": "_letters",
							"type": "string[]"
						}
					],
					"name": "setTargetNumber",
					"outputs": [],
					"stateMutability": "nonpayable",
					"type": "function"
				}
			],
			"devdoc": {
				"kind": "dev",
				"methods": {},
				"version": 1
			},
			"evm": {
				"assembly": "    /* \"contracts-quiz/230530-QUIZ8-answer.sol\":2430:3876  contract Q8_2 {... */\n  mstore(0x40, 0x80)\n    /* \"contracts-quiz/230530-QUIZ8-answer.sol\":2499:2548  constructor() {... */\n  callvalue\n  dup1\n  iszero\n  tag_1\n  jumpi\n  0x00\n  dup1\n  revert\ntag_1:\n  pop\n    /* \"contracts-quiz/230530-QUIZ8-answer.sol\":2531:2541  msg.sender */\n  caller\n    /* \"contracts-quiz/230530-QUIZ8-answer.sol\":2523:2528  owner */\n  0x01\n  0x00\n    /* \"contracts-quiz/230530-QUIZ8-answer.sol\":2523:2541  owner = msg.sender */\n  0x0100\n  exp\n  dup2\n  sload\n  dup2\n  0xffffffffffffffffffffffffffffffffffffffff\n  mul\n  not\n  and\n  swap1\n  dup4\n  0xffffffffffffffffffffffffffffffffffffffff\n  and\n  mul\n  or\n  swap1\n  sstore\n  pop\n    /* \"contracts-quiz/230530-QUIZ8-answer.sol\":2430:3876  contract Q8_2 {... */\n  dataSize(sub_0)\n  dup1\n  dataOffset(sub_0)\n  0x00\n  codecopy\n  0x00\n  return\nstop\n\nsub_0: assembly {\n        /* \"contracts-quiz/230530-QUIZ8-answer.sol\":2430:3876  contract Q8_2 {... */\n      mstore(0x40, 0x80)\n      jumpi(tag_1, lt(calldatasize, 0x04))\n      shr(0xe0, calldataload(0x00))\n      dup1\n      0x68c47d19\n      eq\n      tag_2\n      jumpi\n      dup1\n      0x699bf15f\n      eq\n      tag_3\n      jumpi\n      dup1\n      0x6dbf9dec\n      eq\n      tag_4\n      jumpi\n      dup1\n      0xa074dc3d\n      eq\n      tag_5\n      jumpi\n      dup1\n      0xa2a0e4c3\n      eq\n      tag_6\n      jumpi\n    tag_1:\n      0x00\n      dup1\n      revert\n        /* \"contracts-quiz/230530-QUIZ8-answer.sol\":3411:3691  function isSameLetter(string[] calldata _myLetter) public view returns(uint) {... */\n    tag_2:\n      callvalue\n      dup1\n      iszero\n      tag_7\n      jumpi\n      0x00\n      dup1\n      revert\n    tag_7:\n      pop\n      tag_8\n      0x04\n      dup1\n      calldatasize\n      sub\n      dup2\n      add\n      swap1\n      tag_9\n      swap2\n      swap1\n      tag_10\n      jump\t// in\n    tag_9:\n      tag_11\n      jump\t// in\n    tag_8:\n      mload(0x40)\n      tag_12\n      swap2\n      swap1\n      tag_13\n      jump\t// in\n    tag_12:\n      mload(0x40)\n      dup1\n      swap2\n      sub\n      swap1\n      return\n        /* \"contracts-quiz/230530-QUIZ8-answer.sol\":2820:2994  function setLotto(string[] calldata _letters) public payable {... */\n    tag_3:\n      tag_14\n      0x04\n      dup1\n      calldatasize\n      sub\n      dup2\n      add\n      swap1\n      tag_15\n      swap2\n      swap1\n      tag_10\n      jump\t// in\n    tag_15:\n      tag_16\n      jump\t// in\n    tag_14:\n      stop\n        /* \"contracts-quiz/230530-QUIZ8-answer.sol\":2554:2685  function setTargetNumber(string[] memory _letters) public {... */\n    tag_4:\n      callvalue\n      dup1\n      iszero\n      tag_17\n      jumpi\n      0x00\n      dup1\n      revert\n    tag_17:\n      pop\n      tag_18\n      0x04\n      dup1\n      calldatasize\n      sub\n      dup2\n      add\n      swap1\n      tag_19\n      swap2\n      swap1\n      tag_20\n      jump\t// in\n    tag_19:\n      tag_21\n      jump\t// in\n    tag_18:\n      stop\n        /* \"contracts-quiz/230530-QUIZ8-answer.sol\":3697:3874  function letterCompare(string memory _a, string calldata _b) public pure returns(bool) {... */\n    tag_5:\n      callvalue\n      dup1\n      iszero\n      tag_22\n      jumpi\n      0x00\n      dup1\n      revert\n    tag_22:\n      pop\n      tag_23\n      0x04\n      dup1\n      calldatasize\n      sub\n      dup2\n      add\n      swap1\n      tag_24\n      swap2\n      swap1\n      tag_25\n      jump\t// in\n    tag_24:\n      tag_26\n      jump\t// in\n    tag_23:\n      mload(0x40)\n      tag_27\n      swap2\n      swap1\n      tag_28\n      jump\t// in\n    tag_27:\n      mload(0x40)\n      dup1\n      swap2\n      sub\n      swap1\n      return\n        /* \"contracts-quiz/230530-QUIZ8-answer.sol\":2450:2473  string[] public letters */\n    tag_6:\n      callvalue\n      dup1\n      iszero\n      tag_29\n      jumpi\n      0x00\n      dup1\n      revert\n    tag_29:\n      pop\n      tag_30\n      0x04\n      dup1\n      calldatasize\n      sub\n      dup2\n      add\n      swap1\n      tag_31\n      swap2\n      swap1\n      tag_32\n      jump\t// in\n    tag_31:\n      tag_33\n      jump\t// in\n    tag_30:\n      mload(0x40)\n      tag_34\n      swap2\n      swap1\n      tag_35\n      jump\t// in\n    tag_34:\n      mload(0x40)\n      dup1\n      swap2\n      sub\n      swap1\n      return\n        /* \"contracts-quiz/230530-QUIZ8-answer.sol\":3411:3691  function isSameLetter(string[] calldata _myLetter) public view returns(uint) {... */\n    tag_11:\n        /* \"contracts-quiz/230530-QUIZ8-answer.sol\":3482:3486  uint */\n      0x00\n        /* \"contracts-quiz/230530-QUIZ8-answer.sol\":3498:3508  uint count */\n      dup1\n        /* \"contracts-quiz/230530-QUIZ8-answer.sol\":3522:3528  uint i */\n      0x00\n        /* \"contracts-quiz/230530-QUIZ8-answer.sol\":3518:3663  for(uint i=0; i<letters.length; i++) {... */\n    tag_37:\n        /* \"contracts-quiz/230530-QUIZ8-answer.sol\":3534:3541  letters */\n      0x00\n        /* \"contracts-quiz/230530-QUIZ8-answer.sol\":3534:3548  letters.length */\n      dup1\n      sload\n      swap1\n      pop\n        /* \"contracts-quiz/230530-QUIZ8-answer.sol\":3532:3533  i */\n      dup2\n        /* \"contracts-quiz/230530-QUIZ8-answer.sol\":3532:3548  i<letters.length */\n      lt\n        /* \"contracts-quiz/230530-QUIZ8-answer.sol\":3518:3663  for(uint i=0; i<letters.length; i++) {... */\n      iszero\n      tag_38\n      jumpi\n        /* \"contracts-quiz/230530-QUIZ8-answer.sol\":3572:3611  letterCompare(letters[i], _myLetter[i]) */\n      tag_40\n        /* \"contracts-quiz/230530-QUIZ8-answer.sol\":3586:3593  letters */\n      0x00\n        /* \"contracts-quiz/230530-QUIZ8-answer.sol\":3594:3595  i */\n      dup3\n        /* \"contracts-quiz/230530-QUIZ8-answer.sol\":3586:3596  letters[i] */\n      dup2\n      sload\n      dup2\n      lt\n      tag_41\n      jumpi\n      tag_42\n      tag_43\n      jump\t// in\n    tag_42:\n    tag_41:\n      swap1\n      0x00\n      mstore\n      keccak256(0x00, 0x20)\n      add\n        /* \"contracts-quiz/230530-QUIZ8-answer.sol\":3572:3611  letterCompare(letters[i], _myLetter[i]) */\n      dup1\n      sload\n      tag_45\n      swap1\n      tag_46\n      jump\t// in\n    tag_45:\n      dup1\n      0x1f\n      add\n      0x20\n      dup1\n      swap2\n      div\n      mul\n      0x20\n      add\n      mload(0x40)\n      swap1\n      dup2\n      add\n      0x40\n      mstore\n      dup1\n      swap3\n      swap2\n      swap1\n      dup2\n      dup2\n      mstore\n      0x20\n      add\n      dup3\n      dup1\n      sload\n      tag_47\n      swap1\n      tag_46\n      jump\t// in\n    tag_47:\n      dup1\n      iszero\n      tag_48\n      jumpi\n      dup1\n      0x1f\n      lt\n      tag_49\n      jumpi\n      0x0100\n      dup1\n      dup4\n      sload\n      div\n      mul\n      dup4\n      mstore\n      swap2\n      0x20\n      add\n      swap2\n      jump(tag_48)\n    tag_49:\n      dup3\n      add\n      swap2\n      swap1\n      0x00\n      mstore\n      keccak256(0x00, 0x20)\n      swap1\n    tag_50:\n      dup2\n      sload\n      dup2\n      mstore\n      swap1\n      0x01\n      add\n      swap1\n      0x20\n      add\n      dup1\n      dup4\n      gt\n      tag_50\n      jumpi\n      dup3\n      swap1\n      sub\n      0x1f\n      and\n      dup3\n      add\n      swap2\n    tag_48:\n      pop\n      pop\n      pop\n      pop\n      pop\n        /* \"contracts-quiz/230530-QUIZ8-answer.sol\":3598:3607  _myLetter */\n      dup7\n      dup7\n        /* \"contracts-quiz/230530-QUIZ8-answer.sol\":3608:3609  i */\n      dup5\n        /* \"contracts-quiz/230530-QUIZ8-answer.sol\":3598:3610  _myLetter[i] */\n      dup2\n      dup2\n      lt\n      tag_51\n      jumpi\n      tag_52\n      tag_43\n      jump\t// in\n    tag_52:\n    tag_51:\n      swap1\n      pop\n      0x20\n      mul\n      dup2\n      add\n      swap1\n      tag_53\n      swap2\n      swap1\n      tag_54\n      jump\t// in\n    tag_53:\n        /* \"contracts-quiz/230530-QUIZ8-answer.sol\":3572:3585  letterCompare */\n      tag_26\n        /* \"contracts-quiz/230530-QUIZ8-answer.sol\":3572:3611  letterCompare(letters[i], _myLetter[i]) */\n      jump\t// in\n    tag_40:\n        /* \"contracts-quiz/230530-QUIZ8-answer.sol\":3569:3653  if(letterCompare(letters[i], _myLetter[i])) {... */\n      iszero\n      tag_55\n      jumpi\n        /* \"contracts-quiz/230530-QUIZ8-answer.sol\":3631:3638  count++ */\n      dup2\n      dup1\n      tag_56\n      swap1\n      tag_57\n      jump\t// in\n    tag_56:\n      swap3\n      pop\n      pop\n        /* \"contracts-quiz/230530-QUIZ8-answer.sol\":3569:3653  if(letterCompare(letters[i], _myLetter[i])) {... */\n    tag_55:\n        /* \"contracts-quiz/230530-QUIZ8-answer.sol\":3550:3553  i++ */\n      dup1\n      dup1\n      tag_58\n      swap1\n      tag_57\n      jump\t// in\n    tag_58:\n      swap2\n      pop\n      pop\n        /* \"contracts-quiz/230530-QUIZ8-answer.sol\":3518:3663  for(uint i=0; i<letters.length; i++) {... */\n      jump(tag_37)\n    tag_38:\n      pop\n        /* \"contracts-quiz/230530-QUIZ8-answer.sol\":3679:3684  count */\n      dup1\n        /* \"contracts-quiz/230530-QUIZ8-answer.sol\":3672:3684  return count */\n      swap2\n      pop\n      pop\n        /* \"contracts-quiz/230530-QUIZ8-answer.sol\":3411:3691  function isSameLetter(string[] calldata _myLetter) public view returns(uint) {... */\n      swap3\n      swap2\n      pop\n      pop\n      jump\t// out\n        /* \"contracts-quiz/230530-QUIZ8-answer.sol\":2820:2994  function setLotto(string[] calldata _letters) public payable {... */\n    tag_16:\n        /* \"contracts-quiz/230530-QUIZ8-answer.sol\":2910:2920  0.05 ether */\n      0xb1a2bc2ec50000\n        /* \"contracts-quiz/230530-QUIZ8-answer.sol\":2899:2908  msg.value */\n      callvalue\n        /* \"contracts-quiz/230530-QUIZ8-answer.sol\":2899:2920  msg.value==0.05 ether */\n      eq\n        /* \"contracts-quiz/230530-QUIZ8-answer.sol\":2891:2921  require(msg.value==0.05 ether) */\n      tag_60\n      jumpi\n      0x00\n      dup1\n      revert\n    tag_60:\n        /* \"contracts-quiz/230530-QUIZ8-answer.sol\":2931:2939  uint fit */\n      0x00\n        /* \"contracts-quiz/230530-QUIZ8-answer.sol\":2942:2964  isSameLetter(_letters) */\n      tag_61\n        /* \"contracts-quiz/230530-QUIZ8-answer.sol\":2955:2963  _letters */\n      dup4\n      dup4\n        /* \"contracts-quiz/230530-QUIZ8-answer.sol\":2942:2954  isSameLetter */\n      tag_11\n        /* \"contracts-quiz/230530-QUIZ8-answer.sol\":2942:2964  isSameLetter(_letters) */\n      jump\t// in\n    tag_61:\n        /* \"contracts-quiz/230530-QUIZ8-answer.sol\":2931:2964  uint fit = isSameLetter(_letters) */\n      swap1\n      pop\n        /* \"contracts-quiz/230530-QUIZ8-answer.sol\":2974:2987  getPrize(fit) */\n      tag_62\n        /* \"contracts-quiz/230530-QUIZ8-answer.sol\":2983:2986  fit */\n      dup2\n        /* \"contracts-quiz/230530-QUIZ8-answer.sol\":2974:2982  getPrize */\n      tag_63\n        /* \"contracts-quiz/230530-QUIZ8-answer.sol\":2974:2987  getPrize(fit) */\n      jump\t// in\n    tag_62:\n        /* \"contracts-quiz/230530-QUIZ8-answer.sol\":2881:2994  {... */\n      pop\n        /* \"contracts-quiz/230530-QUIZ8-answer.sol\":2820:2994  function setLotto(string[] calldata _letters) public payable {... */\n      pop\n      pop\n      jump\t// out\n        /* \"contracts-quiz/230530-QUIZ8-answer.sol\":2554:2685  function setTargetNumber(string[] memory _letters) public {... */\n    tag_21:\n        /* \"contracts-quiz/230530-QUIZ8-answer.sol\":2639:2649  msg.sender */\n      caller\n        /* \"contracts-quiz/230530-QUIZ8-answer.sol\":2630:2649  owner == msg.sender */\n      0xffffffffffffffffffffffffffffffffffffffff\n      and\n        /* \"contracts-quiz/230530-QUIZ8-answer.sol\":2630:2635  owner */\n      0x01\n      0x00\n      swap1\n      sload\n      swap1\n      0x0100\n      exp\n      swap1\n      div\n      0xffffffffffffffffffffffffffffffffffffffff\n      and\n        /* \"contracts-quiz/230530-QUIZ8-answer.sol\":2630:2649  owner == msg.sender */\n      0xffffffffffffffffffffffffffffffffffffffff\n      and\n      eq\n        /* \"contracts-quiz/230530-QUIZ8-answer.sol\":2622:2650  require(owner == msg.sender) */\n      tag_65\n      jumpi\n      0x00\n      dup1\n      revert\n    tag_65:\n        /* \"contracts-quiz/230530-QUIZ8-answer.sol\":2670:2678  _letters */\n      dup1\n        /* \"contracts-quiz/230530-QUIZ8-answer.sol\":2660:2667  letters */\n      0x00\n        /* \"contracts-quiz/230530-QUIZ8-answer.sol\":2660:2678  letters = _letters */\n      swap1\n      dup1\n      mload\n      swap1\n      0x20\n      add\n      swap1\n      tag_66\n      swap3\n      swap2\n      swap1\n      tag_67\n      jump\t// in\n    tag_66:\n      pop\n        /* \"contracts-quiz/230530-QUIZ8-answer.sol\":2554:2685  function setTargetNumber(string[] memory _letters) public {... */\n      pop\n      jump\t// out\n        /* \"contracts-quiz/230530-QUIZ8-answer.sol\":3697:3874  function letterCompare(string memory _a, string calldata _b) public pure returns(bool) {... */\n    tag_26:\n        /* \"contracts-quiz/230530-QUIZ8-answer.sol\":3778:3782  bool */\n      0x00\n        /* \"contracts-quiz/230530-QUIZ8-answer.sol\":3863:3865  _b */\n      dup3\n      dup3\n        /* \"contracts-quiz/230530-QUIZ8-answer.sol\":3846:3866  abi.encodePacked(_b) */\n      add(0x20, mload(0x40))\n      tag_69\n      swap3\n      swap2\n      swap1\n      tag_70\n      jump\t// in\n    tag_69:\n      mload(0x40)\n      0x20\n      dup2\n      dup4\n      sub\n      sub\n      dup2\n      mstore\n      swap1\n      0x40\n      mstore\n        /* \"contracts-quiz/230530-QUIZ8-answer.sol\":3836:3867  keccak256(abi.encodePacked(_b)) */\n      dup1\n      mload\n      swap1\n      0x20\n      add\n      keccak256\n        /* \"contracts-quiz/230530-QUIZ8-answer.sol\":3828:3830  _a */\n      dup5\n        /* \"contracts-quiz/230530-QUIZ8-answer.sol\":3811:3831  abi.encodePacked(_a) */\n      add(0x20, mload(0x40))\n      tag_71\n      swap2\n      swap1\n      tag_72\n      jump\t// in\n    tag_71:\n      mload(0x40)\n      0x20\n      dup2\n      dup4\n      sub\n      sub\n      dup2\n      mstore\n      swap1\n      0x40\n      mstore\n        /* \"contracts-quiz/230530-QUIZ8-answer.sol\":3801:3832  keccak256(abi.encodePacked(_a)) */\n      dup1\n      mload\n      swap1\n      0x20\n      add\n      keccak256\n        /* \"contracts-quiz/230530-QUIZ8-answer.sol\":3801:3867  keccak256(abi.encodePacked(_a)) == keccak256(abi.encodePacked(_b)) */\n      eq\n        /* \"contracts-quiz/230530-QUIZ8-answer.sol\":3794:3867  return keccak256(abi.encodePacked(_a)) == keccak256(abi.encodePacked(_b)) */\n      swap1\n      pop\n        /* \"contracts-quiz/230530-QUIZ8-answer.sol\":3697:3874  function letterCompare(string memory _a, string calldata _b) public pure returns(bool) {... */\n      swap4\n      swap3\n      pop\n      pop\n      pop\n      jump\t// out\n        /* \"contracts-quiz/230530-QUIZ8-answer.sol\":2450:2473  string[] public letters */\n    tag_33:\n      0x00\n      dup2\n      dup2\n      sload\n      dup2\n      lt\n      tag_73\n      jumpi\n      0x00\n      dup1\n      revert\n    tag_73:\n      swap1\n      0x00\n      mstore\n      keccak256(0x00, 0x20)\n      add\n      0x00\n      swap2\n      pop\n      swap1\n      pop\n      dup1\n      sload\n      tag_75\n      swap1\n      tag_46\n      jump\t// in\n    tag_75:\n      dup1\n      0x1f\n      add\n      0x20\n      dup1\n      swap2\n      div\n      mul\n      0x20\n      add\n      mload(0x40)\n      swap1\n      dup2\n      add\n      0x40\n      mstore\n      dup1\n      swap3\n      swap2\n      swap1\n      dup2\n      dup2\n      mstore\n      0x20\n      add\n      dup3\n      dup1\n      sload\n      tag_76\n      swap1\n      tag_46\n      jump\t// in\n    tag_76:\n      dup1\n      iszero\n      tag_77\n      jumpi\n      dup1\n      0x1f\n      lt\n      tag_78\n      jumpi\n      0x0100\n      dup1\n      dup4\n      sload\n      div\n      mul\n      dup4\n      mstore\n      swap2\n      0x20\n      add\n      swap2\n      jump(tag_77)\n    tag_78:\n      dup3\n      add\n      swap2\n      swap1\n      0x00\n      mstore\n      keccak256(0x00, 0x20)\n      swap1\n    tag_79:\n      dup2\n      sload\n      dup2\n      mstore\n      swap1\n      0x01\n      add\n      swap1\n      0x20\n      add\n      dup1\n      dup4\n      gt\n      tag_79\n      jumpi\n      dup3\n      swap1\n      sub\n      0x1f\n      and\n      dup3\n      add\n      swap2\n    tag_77:\n      pop\n      pop\n      pop\n      pop\n      pop\n      dup2\n      jump\t// out\n        /* \"contracts-quiz/230530-QUIZ8-answer.sol\":3000:3405  function getPrize(uint _n) private /*public으로 하면 자선사업가*/ {... */\n    tag_63:\n        /* \"contracts-quiz/230530-QUIZ8-answer.sol\":3092:3093  6 */\n      0x06\n        /* \"contracts-quiz/230530-QUIZ8-answer.sol\":3088:3090  _n */\n      dup2\n        /* \"contracts-quiz/230530-QUIZ8-answer.sol\":3088:3093  _n==6 */\n      sub\n        /* \"contracts-quiz/230530-QUIZ8-answer.sol\":3085:3399  if(_n==6) {... */\n      tag_81\n      jumpi\n        /* \"contracts-quiz/230530-QUIZ8-answer.sol\":3117:3127  msg.sender */\n      caller\n        /* \"contracts-quiz/230530-QUIZ8-answer.sol\":3109:3137  payable(msg.sender).transfer */\n      0xffffffffffffffffffffffffffffffffffffffff\n      and\n        /* \"contracts-quiz/230530-QUIZ8-answer.sol\":3109:3146  payable(msg.sender).transfer(1 ether) */\n      0x08fc\n        /* \"contracts-quiz/230530-QUIZ8-answer.sol\":3138:3145  1 ether */\n      0x0de0b6b3a7640000\n        /* \"contracts-quiz/230530-QUIZ8-answer.sol\":3109:3146  payable(msg.sender).transfer(1 ether) */\n      swap1\n      dup2\n      iszero\n      mul\n      swap1\n      mload(0x40)\n      0x00\n      mload(0x40)\n      dup1\n      dup4\n      sub\n      dup2\n      dup6\n      dup9\n      dup9\n      call\n      swap4\n      pop\n      pop\n      pop\n      pop\n      iszero\n      dup1\n      iszero\n      tag_83\n      jumpi\n      returndatasize\n      0x00\n      dup1\n      returndatacopy\n      revert(0x00, returndatasize)\n    tag_83:\n      pop\n        /* \"contracts-quiz/230530-QUIZ8-answer.sol\":3085:3399  if(_n==6) {... */\n      jump(tag_84)\n    tag_81:\n        /* \"contracts-quiz/230530-QUIZ8-answer.sol\":3170:3171  5 */\n      0x05\n        /* \"contracts-quiz/230530-QUIZ8-answer.sol\":3166:3168  _n */\n      dup2\n        /* \"contracts-quiz/230530-QUIZ8-answer.sol\":3166:3171  _n==5 */\n      sub\n        /* \"contracts-quiz/230530-QUIZ8-answer.sol\":3163:3399  if(_n==5) {... */\n      tag_85\n      jumpi\n        /* \"contracts-quiz/230530-QUIZ8-answer.sol\":3195:3205  msg.sender */\n      caller\n        /* \"contracts-quiz/230530-QUIZ8-answer.sol\":3187:3215  payable(msg.sender).transfer */\n      0xffffffffffffffffffffffffffffffffffffffff\n      and\n        /* \"contracts-quiz/230530-QUIZ8-answer.sol\":3187:3227  payable(msg.sender).transfer(0.75 ether) */\n      0x08fc\n        /* \"contracts-quiz/230530-QUIZ8-answer.sol\":3216:3226  0.75 ether */\n      0x0a688906bd8b0000\n        /* \"contracts-quiz/230530-QUIZ8-answer.sol\":3187:3227  payable(msg.sender).transfer(0.75 ether) */\n      swap1\n      dup2\n      iszero\n      mul\n      swap1\n      mload(0x40)\n      0x00\n      mload(0x40)\n      dup1\n      dup4\n      sub\n      dup2\n      dup6\n      dup9\n      dup9\n      call\n      swap4\n      pop\n      pop\n      pop\n      pop\n      iszero\n      dup1\n      iszero\n      tag_87\n      jumpi\n      returndatasize\n      0x00\n      dup1\n      returndatacopy\n      revert(0x00, returndatasize)\n    tag_87:\n      pop\n        /* \"contracts-quiz/230530-QUIZ8-answer.sol\":3163:3399  if(_n==5) {... */\n      jump(tag_88)\n    tag_85:\n        /* \"contracts-quiz/230530-QUIZ8-answer.sol\":3251:3252  4 */\n      0x04\n        /* \"contracts-quiz/230530-QUIZ8-answer.sol\":3247:3249  _n */\n      dup2\n        /* \"contracts-quiz/230530-QUIZ8-answer.sol\":3247:3252  _n==4 */\n      sub\n        /* \"contracts-quiz/230530-QUIZ8-answer.sol\":3244:3399  if(_n==4) {... */\n      tag_89\n      jumpi\n        /* \"contracts-quiz/230530-QUIZ8-answer.sol\":3276:3286  msg.sender */\n      caller\n        /* \"contracts-quiz/230530-QUIZ8-answer.sol\":3268:3296  payable(msg.sender).transfer */\n      0xffffffffffffffffffffffffffffffffffffffff\n      and\n        /* \"contracts-quiz/230530-QUIZ8-answer.sol\":3268:3308  payable(msg.sender).transfer(0.25 ether) */\n      0x08fc\n        /* \"contracts-quiz/230530-QUIZ8-answer.sol\":3297:3307  0.25 ether */\n      0x03782dace9d90000\n        /* \"contracts-quiz/230530-QUIZ8-answer.sol\":3268:3308  payable(msg.sender).transfer(0.25 ether) */\n      swap1\n      dup2\n      iszero\n      mul\n      swap1\n      mload(0x40)\n      0x00\n      mload(0x40)\n      dup1\n      dup4\n      sub\n      dup2\n      dup6\n      dup9\n      dup9\n      call\n      swap4\n      pop\n      pop\n      pop\n      pop\n      iszero\n      dup1\n      iszero\n      tag_91\n      jumpi\n      returndatasize\n      0x00\n      dup1\n      returndatacopy\n      revert(0x00, returndatasize)\n    tag_91:\n      pop\n        /* \"contracts-quiz/230530-QUIZ8-answer.sol\":3244:3399  if(_n==4) {... */\n      jump(tag_92)\n    tag_89:\n        /* \"contracts-quiz/230530-QUIZ8-answer.sol\":3332:3333  3 */\n      0x03\n        /* \"contracts-quiz/230530-QUIZ8-answer.sol\":3328:3330  _n */\n      dup2\n        /* \"contracts-quiz/230530-QUIZ8-answer.sol\":3328:3333  _n==3 */\n      sub\n        /* \"contracts-quiz/230530-QUIZ8-answer.sol\":3325:3399  if(_n==3) {... */\n      tag_93\n      jumpi\n        /* \"contracts-quiz/230530-QUIZ8-answer.sol\":3357:3367  msg.sender */\n      caller\n        /* \"contracts-quiz/230530-QUIZ8-answer.sol\":3349:3377  payable(msg.sender).transfer */\n      0xffffffffffffffffffffffffffffffffffffffff\n      and\n        /* \"contracts-quiz/230530-QUIZ8-answer.sol\":3349:3388  payable(msg.sender).transfer(0.1 ether) */\n      0x08fc\n        /* \"contracts-quiz/230530-QUIZ8-answer.sol\":3378:3387  0.1 ether */\n      0x016345785d8a0000\n        /* \"contracts-quiz/230530-QUIZ8-answer.sol\":3349:3388  payable(msg.sender).transfer(0.1 ether) */\n      swap1\n      dup2\n      iszero\n      mul\n      swap1\n      mload(0x40)\n      0x00\n      mload(0x40)\n      dup1\n      dup4\n      sub\n      dup2\n      dup6\n      dup9\n      dup9\n      call\n      swap4\n      pop\n      pop\n      pop\n      pop\n      iszero\n      dup1\n      iszero\n      tag_95\n      jumpi\n      returndatasize\n      0x00\n      dup1\n      returndatacopy\n      revert(0x00, returndatasize)\n    tag_95:\n      pop\n        /* \"contracts-quiz/230530-QUIZ8-answer.sol\":3325:3399  if(_n==3) {... */\n    tag_93:\n        /* \"contracts-quiz/230530-QUIZ8-answer.sol\":3244:3399  if(_n==4) {... */\n    tag_92:\n        /* \"contracts-quiz/230530-QUIZ8-answer.sol\":3163:3399  if(_n==5) {... */\n    tag_88:\n        /* \"contracts-quiz/230530-QUIZ8-answer.sol\":3085:3399  if(_n==6) {... */\n    tag_84:\n        /* \"contracts-quiz/230530-QUIZ8-answer.sol\":3000:3405  function getPrize(uint _n) private /*public으로 하면 자선사업가*/ {... */\n      pop\n      jump\t// out\n    tag_67:\n      dup3\n      dup1\n      sload\n      dup3\n      dup3\n      sstore\n      swap1\n      0x00\n      mstore\n      keccak256(0x00, 0x20)\n      swap1\n      dup2\n      add\n      swap3\n      dup3\n      iszero\n      tag_96\n      jumpi\n      swap2\n      0x20\n      mul\n      dup3\n      add\n    tag_97:\n      dup3\n      dup2\n      gt\n      iszero\n      tag_98\n      jumpi\n      dup3\n      mload\n      dup3\n      swap1\n      dup2\n      tag_99\n      swap2\n      swap1\n      tag_100\n      jump\t// in\n    tag_99:\n      pop\n      swap2\n      0x20\n      add\n      swap2\n      swap1\n      0x01\n      add\n      swap1\n      jump(tag_97)\n    tag_98:\n    tag_96:\n      pop\n      swap1\n      pop\n      tag_101\n      swap2\n      swap1\n      tag_102\n      jump\t// in\n    tag_101:\n      pop\n      swap1\n      jump\t// out\n    tag_102:\n    tag_103:\n      dup1\n      dup3\n      gt\n      iszero\n      tag_104\n      jumpi\n      0x00\n      dup2\n      dup2\n      tag_105\n      swap2\n      swap1\n      tag_106\n      jump\t// in\n    tag_105:\n      pop\n      0x01\n      add\n      jump(tag_103)\n    tag_104:\n      pop\n      swap1\n      jump\t// out\n    tag_106:\n      pop\n      dup1\n      sload\n      tag_107\n      swap1\n      tag_46\n      jump\t// in\n    tag_107:\n      0x00\n      dup3\n      sstore\n      dup1\n      0x1f\n      lt\n      tag_109\n      jumpi\n      pop\n      jump(tag_108)\n    tag_109:\n      0x1f\n      add\n      0x20\n      swap1\n      div\n      swap1\n      0x00\n      mstore\n      keccak256(0x00, 0x20)\n      swap1\n      dup2\n      add\n      swap1\n      tag_110\n      swap2\n      swap1\n      tag_111\n      jump\t// in\n    tag_110:\n    tag_108:\n      pop\n      jump\t// out\n    tag_111:\n    tag_112:\n      dup1\n      dup3\n      gt\n      iszero\n      tag_113\n      jumpi\n      0x00\n      dup2\n      0x00\n      swap1\n      sstore\n      pop\n      0x01\n      add\n      jump(tag_112)\n    tag_113:\n      pop\n      swap1\n      jump\t// out\n        /* \"#utility.yul\":7:82   */\n    tag_114:\n        /* \"#utility.yul\":40:46   */\n      0x00\n        /* \"#utility.yul\":73:75   */\n      0x40\n        /* \"#utility.yul\":67:76   */\n      mload\n        /* \"#utility.yul\":57:76   */\n      swap1\n      pop\n        /* \"#utility.yul\":7:82   */\n      swap1\n      jump\t// out\n        /* \"#utility.yul\":88:205   */\n    tag_115:\n        /* \"#utility.yul\":197:198   */\n      0x00\n        /* \"#utility.yul\":194:195   */\n      dup1\n        /* \"#utility.yul\":187:199   */\n      revert\n        /* \"#utility.yul\":211:328   */\n    tag_116:\n        /* \"#utility.yul\":320:321   */\n      0x00\n        /* \"#utility.yul\":317:318   */\n      dup1\n        /* \"#utility.yul\":310:322   */\n      revert\n        /* \"#utility.yul\":334:451   */\n    tag_117:\n        /* \"#utility.yul\":443:444   */\n      0x00\n        /* \"#utility.yul\":440:441   */\n      dup1\n        /* \"#utility.yul\":433:445   */\n      revert\n        /* \"#utility.yul\":457:574   */\n    tag_118:\n        /* \"#utility.yul\":566:567   */\n      0x00\n        /* \"#utility.yul\":563:564   */\n      dup1\n        /* \"#utility.yul\":556:568   */\n      revert\n        /* \"#utility.yul\":580:697   */\n    tag_119:\n        /* \"#utility.yul\":689:690   */\n      0x00\n        /* \"#utility.yul\":686:687   */\n      dup1\n        /* \"#utility.yul\":679:691   */\n      revert\n        /* \"#utility.yul\":719:1299   */\n    tag_120:\n        /* \"#utility.yul\":804:812   */\n      0x00\n        /* \"#utility.yul\":814:820   */\n      dup1\n        /* \"#utility.yul\":864:867   */\n      dup4\n        /* \"#utility.yul\":857:861   */\n      0x1f\n        /* \"#utility.yul\":849:855   */\n      dup5\n        /* \"#utility.yul\":845:862   */\n      add\n        /* \"#utility.yul\":841:868   */\n      slt\n        /* \"#utility.yul\":831:953   */\n      tag_175\n      jumpi\n        /* \"#utility.yul\":872:951   */\n      tag_176\n      tag_117\n      jump\t// in\n    tag_176:\n        /* \"#utility.yul\":831:953   */\n    tag_175:\n        /* \"#utility.yul\":985:991   */\n      dup3\n        /* \"#utility.yul\":972:992   */\n      calldataload\n        /* \"#utility.yul\":962:992   */\n      swap1\n      pop\n        /* \"#utility.yul\":1015:1033   */\n      0xffffffffffffffff\n        /* \"#utility.yul\":1007:1013   */\n      dup2\n        /* \"#utility.yul\":1004:1034   */\n      gt\n        /* \"#utility.yul\":1001:1118   */\n      iszero\n      tag_177\n      jumpi\n        /* \"#utility.yul\":1037:1116   */\n      tag_178\n      tag_118\n      jump\t// in\n    tag_178:\n        /* \"#utility.yul\":1001:1118   */\n    tag_177:\n        /* \"#utility.yul\":1151:1155   */\n      0x20\n        /* \"#utility.yul\":1143:1149   */\n      dup4\n        /* \"#utility.yul\":1139:1156   */\n      add\n        /* \"#utility.yul\":1127:1156   */\n      swap2\n      pop\n        /* \"#utility.yul\":1205:1208   */\n      dup4\n        /* \"#utility.yul\":1197:1201   */\n      0x20\n        /* \"#utility.yul\":1189:1195   */\n      dup3\n        /* \"#utility.yul\":1185:1202   */\n      mul\n        /* \"#utility.yul\":1175:1183   */\n      dup4\n        /* \"#utility.yul\":1171:1203   */\n      add\n        /* \"#utility.yul\":1168:1209   */\n      gt\n        /* \"#utility.yul\":1165:1293   */\n      iszero\n      tag_179\n      jumpi\n        /* \"#utility.yul\":1212:1291   */\n      tag_180\n      tag_119\n      jump\t// in\n    tag_180:\n        /* \"#utility.yul\":1165:1293   */\n    tag_179:\n        /* \"#utility.yul\":719:1299   */\n      swap3\n      pop\n      swap3\n      swap1\n      pop\n      jump\t// out\n        /* \"#utility.yul\":1305:1888   */\n    tag_10:\n        /* \"#utility.yul\":1403:1409   */\n      0x00\n        /* \"#utility.yul\":1411:1417   */\n      dup1\n        /* \"#utility.yul\":1460:1462   */\n      0x20\n        /* \"#utility.yul\":1448:1457   */\n      dup4\n        /* \"#utility.yul\":1439:1446   */\n      dup6\n        /* \"#utility.yul\":1435:1458   */\n      sub\n        /* \"#utility.yul\":1431:1463   */\n      slt\n        /* \"#utility.yul\":1428:1547   */\n      iszero\n      tag_182\n      jumpi\n        /* \"#utility.yul\":1466:1545   */\n      tag_183\n      tag_115\n      jump\t// in\n    tag_183:\n        /* \"#utility.yul\":1428:1547   */\n    tag_182:\n        /* \"#utility.yul\":1614:1615   */\n      0x00\n        /* \"#utility.yul\":1603:1612   */\n      dup4\n        /* \"#utility.yul\":1599:1616   */\n      add\n        /* \"#utility.yul\":1586:1617   */\n      calldataload\n        /* \"#utility.yul\":1644:1662   */\n      0xffffffffffffffff\n        /* \"#utility.yul\":1636:1642   */\n      dup2\n        /* \"#utility.yul\":1633:1663   */\n      gt\n        /* \"#utility.yul\":1630:1747   */\n      iszero\n      tag_184\n      jumpi\n        /* \"#utility.yul\":1666:1745   */\n      tag_185\n      tag_116\n      jump\t// in\n    tag_185:\n        /* \"#utility.yul\":1630:1747   */\n    tag_184:\n        /* \"#utility.yul\":1779:1871   */\n      tag_186\n        /* \"#utility.yul\":1863:1870   */\n      dup6\n        /* \"#utility.yul\":1854:1860   */\n      dup3\n        /* \"#utility.yul\":1843:1852   */\n      dup7\n        /* \"#utility.yul\":1839:1861   */\n      add\n        /* \"#utility.yul\":1779:1871   */\n      tag_120\n      jump\t// in\n    tag_186:\n        /* \"#utility.yul\":1761:1871   */\n      swap3\n      pop\n      swap3\n      pop\n        /* \"#utility.yul\":1557:1881   */\n      pop\n        /* \"#utility.yul\":1305:1888   */\n      swap3\n      pop\n      swap3\n      swap1\n      pop\n      jump\t// out\n        /* \"#utility.yul\":1894:1971   */\n    tag_121:\n        /* \"#utility.yul\":1931:1938   */\n      0x00\n        /* \"#utility.yul\":1960:1965   */\n      dup2\n        /* \"#utility.yul\":1949:1965   */\n      swap1\n      pop\n        /* \"#utility.yul\":1894:1971   */\n      swap2\n      swap1\n      pop\n      jump\t// out\n        /* \"#utility.yul\":1977:2095   */\n    tag_122:\n        /* \"#utility.yul\":2064:2088   */\n      tag_189\n        /* \"#utility.yul\":2082:2087   */\n      dup2\n        /* \"#utility.yul\":2064:2088   */\n      tag_121\n      jump\t// in\n    tag_189:\n        /* \"#utility.yul\":2059:2062   */\n      dup3\n        /* \"#utility.yul\":2052:2089   */\n      mstore\n        /* \"#utility.yul\":1977:2095   */\n      pop\n      pop\n      jump\t// out\n        /* \"#utility.yul\":2101:2323   */\n    tag_13:\n        /* \"#utility.yul\":2194:2198   */\n      0x00\n        /* \"#utility.yul\":2232:2234   */\n      0x20\n        /* \"#utility.yul\":2221:2230   */\n      dup3\n        /* \"#utility.yul\":2217:2235   */\n      add\n        /* \"#utility.yul\":2209:2235   */\n      swap1\n      pop\n        /* \"#utility.yul\":2245:2316   */\n      tag_191\n        /* \"#utility.yul\":2313:2314   */\n      0x00\n        /* \"#utility.yul\":2302:2311   */\n      dup4\n        /* \"#utility.yul\":2298:2315   */\n      add\n        /* \"#utility.yul\":2289:2295   */\n      dup5\n        /* \"#utility.yul\":2245:2316   */\n      tag_122\n      jump\t// in\n    tag_191:\n        /* \"#utility.yul\":2101:2323   */\n      swap3\n      swap2\n      pop\n      pop\n      jump\t// out\n        /* \"#utility.yul\":2329:2431   */\n    tag_123:\n        /* \"#utility.yul\":2370:2376   */\n      0x00\n        /* \"#utility.yul\":2421:2423   */\n      0x1f\n        /* \"#utility.yul\":2417:2424   */\n      not\n        /* \"#utility.yul\":2412:2414   */\n      0x1f\n        /* \"#utility.yul\":2405:2410   */\n      dup4\n        /* \"#utility.yul\":2401:2415   */\n      add\n        /* \"#utility.yul\":2397:2425   */\n      and\n        /* \"#utility.yul\":2387:2425   */\n      swap1\n      pop\n        /* \"#utility.yul\":2329:2431   */\n      swap2\n      swap1\n      pop\n      jump\t// out\n        /* \"#utility.yul\":2437:2617   */\n    tag_124:\n        /* \"#utility.yul\":2485:2562   */\n      0x4e487b7100000000000000000000000000000000000000000000000000000000\n        /* \"#utility.yul\":2482:2483   */\n      0x00\n        /* \"#utility.yul\":2475:2563   */\n      mstore\n        /* \"#utility.yul\":2582:2586   */\n      0x41\n        /* \"#utility.yul\":2579:2580   */\n      0x04\n        /* \"#utility.yul\":2572:2587   */\n      mstore\n        /* \"#utility.yul\":2606:2610   */\n      0x24\n        /* \"#utility.yul\":2603:2604   */\n      0x00\n        /* \"#utility.yul\":2596:2611   */\n      revert\n        /* \"#utility.yul\":2623:2904   */\n    tag_125:\n        /* \"#utility.yul\":2706:2733   */\n      tag_195\n        /* \"#utility.yul\":2728:2732   */\n      dup3\n        /* \"#utility.yul\":2706:2733   */\n      tag_123\n      jump\t// in\n    tag_195:\n        /* \"#utility.yul\":2698:2704   */\n      dup2\n        /* \"#utility.yul\":2694:2734   */\n      add\n        /* \"#utility.yul\":2836:2842   */\n      dup2\n        /* \"#utility.yul\":2824:2834   */\n      dup2\n        /* \"#utility.yul\":2821:2843   */\n      lt\n        /* \"#utility.yul\":2800:2818   */\n      0xffffffffffffffff\n        /* \"#utility.yul\":2788:2798   */\n      dup3\n        /* \"#utility.yul\":2785:2819   */\n      gt\n        /* \"#utility.yul\":2782:2844   */\n      or\n        /* \"#utility.yul\":2779:2867   */\n      iszero\n      tag_196\n      jumpi\n        /* \"#utility.yul\":2847:2865   */\n      tag_197\n      tag_124\n      jump\t// in\n    tag_197:\n        /* \"#utility.yul\":2779:2867   */\n    tag_196:\n        /* \"#utility.yul\":2887:2897   */\n      dup1\n        /* \"#utility.yul\":2883:2885   */\n      0x40\n        /* \"#utility.yul\":2876:2898   */\n      mstore\n        /* \"#utility.yul\":2666:2904   */\n      pop\n        /* \"#utility.yul\":2623:2904   */\n      pop\n      pop\n      jump\t// out\n        /* \"#utility.yul\":2910:3039   */\n    tag_126:\n        /* \"#utility.yul\":2944:2950   */\n      0x00\n        /* \"#utility.yul\":2971:2991   */\n      tag_199\n      tag_114\n      jump\t// in\n    tag_199:\n        /* \"#utility.yul\":2961:2991   */\n      swap1\n      pop\n        /* \"#utility.yul\":3000:3033   */\n      tag_200\n        /* \"#utility.yul\":3028:3032   */\n      dup3\n        /* \"#utility.yul\":3020:3026   */\n      dup3\n        /* \"#utility.yul\":3000:3033   */\n      tag_125\n      jump\t// in\n    tag_200:\n        /* \"#utility.yul\":2910:3039   */\n      swap2\n      swap1\n      pop\n      jump\t// out\n        /* \"#utility.yul\":3045:3366   */\n    tag_127:\n        /* \"#utility.yul\":3132:3136   */\n      0x00\n        /* \"#utility.yul\":3222:3240   */\n      0xffffffffffffffff\n        /* \"#utility.yul\":3214:3220   */\n      dup3\n        /* \"#utility.yul\":3211:3241   */\n      gt\n        /* \"#utility.yul\":3208:3264   */\n      iszero\n      tag_202\n      jumpi\n        /* \"#utility.yul\":3244:3262   */\n      tag_203\n      tag_124\n      jump\t// in\n    tag_203:\n        /* \"#utility.yul\":3208:3264   */\n    tag_202:\n        /* \"#utility.yul\":3294:3298   */\n      0x20\n        /* \"#utility.yul\":3286:3292   */\n      dup3\n        /* \"#utility.yul\":3282:3299   */\n      mul\n        /* \"#utility.yul\":3274:3299   */\n      swap1\n      pop\n        /* \"#utility.yul\":3354:3358   */\n      0x20\n        /* \"#utility.yul\":3348:3352   */\n      dup2\n        /* \"#utility.yul\":3344:3359   */\n      add\n        /* \"#utility.yul\":3336:3359   */\n      swap1\n      pop\n        /* \"#utility.yul\":3045:3366   */\n      swap2\n      swap1\n      pop\n      jump\t// out\n        /* \"#utility.yul\":3372:3489   */\n    tag_128:\n        /* \"#utility.yul\":3481:3482   */\n      0x00\n        /* \"#utility.yul\":3478:3479   */\n      dup1\n        /* \"#utility.yul\":3471:3483   */\n      revert\n        /* \"#utility.yul\":3495:3803   */\n    tag_129:\n        /* \"#utility.yul\":3557:3561   */\n      0x00\n        /* \"#utility.yul\":3647:3665   */\n      0xffffffffffffffff\n        /* \"#utility.yul\":3639:3645   */\n      dup3\n        /* \"#utility.yul\":3636:3666   */\n      gt\n        /* \"#utility.yul\":3633:3689   */\n      iszero\n      tag_206\n      jumpi\n        /* \"#utility.yul\":3669:3687   */\n      tag_207\n      tag_124\n      jump\t// in\n    tag_207:\n        /* \"#utility.yul\":3633:3689   */\n    tag_206:\n        /* \"#utility.yul\":3707:3736   */\n      tag_208\n        /* \"#utility.yul\":3729:3735   */\n      dup3\n        /* \"#utility.yul\":3707:3736   */\n      tag_123\n      jump\t// in\n    tag_208:\n        /* \"#utility.yul\":3699:3736   */\n      swap1\n      pop\n        /* \"#utility.yul\":3791:3795   */\n      0x20\n        /* \"#utility.yul\":3785:3789   */\n      dup2\n        /* \"#utility.yul\":3781:3796   */\n      add\n        /* \"#utility.yul\":3773:3796   */\n      swap1\n      pop\n        /* \"#utility.yul\":3495:3803   */\n      swap2\n      swap1\n      pop\n      jump\t// out\n        /* \"#utility.yul\":3809:3955   */\n    tag_130:\n        /* \"#utility.yul\":3906:3912   */\n      dup3\n        /* \"#utility.yul\":3901:3904   */\n      dup2\n        /* \"#utility.yul\":3896:3899   */\n      dup4\n        /* \"#utility.yul\":3883:3913   */\n      calldatacopy\n        /* \"#utility.yul\":3947:3948   */\n      0x00\n        /* \"#utility.yul\":3938:3944   */\n      dup4\n        /* \"#utility.yul\":3933:3936   */\n      dup4\n        /* \"#utility.yul\":3929:3945   */\n      add\n        /* \"#utility.yul\":3922:3949   */\n      mstore\n        /* \"#utility.yul\":3809:3955   */\n      pop\n      pop\n      pop\n      jump\t// out\n        /* \"#utility.yul\":3961:4386   */\n    tag_131:\n        /* \"#utility.yul\":4039:4044   */\n      0x00\n        /* \"#utility.yul\":4064:4130   */\n      tag_211\n        /* \"#utility.yul\":4080:4129   */\n      tag_212\n        /* \"#utility.yul\":4122:4128   */\n      dup5\n        /* \"#utility.yul\":4080:4129   */\n      tag_129\n      jump\t// in\n    tag_212:\n        /* \"#utility.yul\":4064:4130   */\n      tag_126\n      jump\t// in\n    tag_211:\n        /* \"#utility.yul\":4055:4130   */\n      swap1\n      pop\n        /* \"#utility.yul\":4153:4159   */\n      dup3\n        /* \"#utility.yul\":4146:4151   */\n      dup2\n        /* \"#utility.yul\":4139:4160   */\n      mstore\n        /* \"#utility.yul\":4191:4195   */\n      0x20\n        /* \"#utility.yul\":4184:4189   */\n      dup2\n        /* \"#utility.yul\":4180:4196   */\n      add\n        /* \"#utility.yul\":4229:4232   */\n      dup5\n        /* \"#utility.yul\":4220:4226   */\n      dup5\n        /* \"#utility.yul\":4215:4218   */\n      dup5\n        /* \"#utility.yul\":4211:4227   */\n      add\n        /* \"#utility.yul\":4208:4233   */\n      gt\n        /* \"#utility.yul\":4205:4317   */\n      iszero\n      tag_213\n      jumpi\n        /* \"#utility.yul\":4236:4315   */\n      tag_214\n      tag_128\n      jump\t// in\n    tag_214:\n        /* \"#utility.yul\":4205:4317   */\n    tag_213:\n        /* \"#utility.yul\":4326:4380   */\n      tag_215\n        /* \"#utility.yul\":4373:4379   */\n      dup5\n        /* \"#utility.yul\":4368:4371   */\n      dup3\n        /* \"#utility.yul\":4363:4366   */\n      dup6\n        /* \"#utility.yul\":4326:4380   */\n      tag_130\n      jump\t// in\n    tag_215:\n        /* \"#utility.yul\":4045:4386   */\n      pop\n        /* \"#utility.yul\":3961:4386   */\n      swap4\n      swap3\n      pop\n      pop\n      pop\n      jump\t// out\n        /* \"#utility.yul\":4406:4746   */\n    tag_132:\n        /* \"#utility.yul\":4462:4467   */\n      0x00\n        /* \"#utility.yul\":4511:4514   */\n      dup3\n        /* \"#utility.yul\":4504:4508   */\n      0x1f\n        /* \"#utility.yul\":4496:4502   */\n      dup4\n        /* \"#utility.yul\":4492:4509   */\n      add\n        /* \"#utility.yul\":4488:4515   */\n      slt\n        /* \"#utility.yul\":4478:4600   */\n      tag_217\n      jumpi\n        /* \"#utility.yul\":4519:4598   */\n      tag_218\n      tag_117\n      jump\t// in\n    tag_218:\n        /* \"#utility.yul\":4478:4600   */\n    tag_217:\n        /* \"#utility.yul\":4636:4642   */\n      dup2\n        /* \"#utility.yul\":4623:4643   */\n      calldataload\n        /* \"#utility.yul\":4661:4740   */\n      tag_219\n        /* \"#utility.yul\":4736:4739   */\n      dup5\n        /* \"#utility.yul\":4728:4734   */\n      dup3\n        /* \"#utility.yul\":4721:4725   */\n      0x20\n        /* \"#utility.yul\":4713:4719   */\n      dup7\n        /* \"#utility.yul\":4709:4726   */\n      add\n        /* \"#utility.yul\":4661:4740   */\n      tag_131\n      jump\t// in\n    tag_219:\n        /* \"#utility.yul\":4652:4740   */\n      swap2\n      pop\n        /* \"#utility.yul\":4468:4746   */\n      pop\n        /* \"#utility.yul\":4406:4746   */\n      swap3\n      swap2\n      pop\n      pop\n      jump\t// out\n        /* \"#utility.yul\":4768:5713   */\n    tag_133:\n        /* \"#utility.yul\":4874:4879   */\n      0x00\n        /* \"#utility.yul\":4899:4990   */\n      tag_221\n        /* \"#utility.yul\":4915:4989   */\n      tag_222\n        /* \"#utility.yul\":4982:4988   */\n      dup5\n        /* \"#utility.yul\":4915:4989   */\n      tag_127\n      jump\t// in\n    tag_222:\n        /* \"#utility.yul\":4899:4990   */\n      tag_126\n      jump\t// in\n    tag_221:\n        /* \"#utility.yul\":4890:4990   */\n      swap1\n      pop\n        /* \"#utility.yul\":5010:5015   */\n      dup1\n        /* \"#utility.yul\":5039:5045   */\n      dup4\n        /* \"#utility.yul\":5032:5037   */\n      dup3\n        /* \"#utility.yul\":5025:5046   */\n      mstore\n        /* \"#utility.yul\":5073:5077   */\n      0x20\n        /* \"#utility.yul\":5066:5071   */\n      dup3\n        /* \"#utility.yul\":5062:5078   */\n      add\n        /* \"#utility.yul\":5055:5078   */\n      swap1\n      pop\n        /* \"#utility.yul\":5126:5130   */\n      0x20\n        /* \"#utility.yul\":5118:5124   */\n      dup5\n        /* \"#utility.yul\":5114:5131   */\n      mul\n        /* \"#utility.yul\":5106:5112   */\n      dup4\n        /* \"#utility.yul\":5102:5132   */\n      add\n        /* \"#utility.yul\":5155:5158   */\n      dup6\n        /* \"#utility.yul\":5147:5153   */\n      dup2\n        /* \"#utility.yul\":5144:5159   */\n      gt\n        /* \"#utility.yul\":5141:5263   */\n      iszero\n      tag_223\n      jumpi\n        /* \"#utility.yul\":5174:5253   */\n      tag_224\n      tag_119\n      jump\t// in\n    tag_224:\n        /* \"#utility.yul\":5141:5263   */\n    tag_223:\n        /* \"#utility.yul\":5289:5295   */\n      dup4\n        /* \"#utility.yul\":5272:5707   */\n    tag_225:\n        /* \"#utility.yul\":5306:5312   */\n      dup2\n        /* \"#utility.yul\":5301:5304   */\n      dup2\n        /* \"#utility.yul\":5298:5313   */\n      lt\n        /* \"#utility.yul\":5272:5707   */\n      iszero\n      tag_227\n      jumpi\n        /* \"#utility.yul\":5395:5398   */\n      dup1\n        /* \"#utility.yul\":5382:5399   */\n      calldataload\n        /* \"#utility.yul\":5431:5449   */\n      0xffffffffffffffff\n        /* \"#utility.yul\":5418:5429   */\n      dup2\n        /* \"#utility.yul\":5415:5450   */\n      gt\n        /* \"#utility.yul\":5412:5534   */\n      iszero\n      tag_228\n      jumpi\n        /* \"#utility.yul\":5453:5532   */\n      tag_229\n      tag_117\n      jump\t// in\n    tag_229:\n        /* \"#utility.yul\":5412:5534   */\n    tag_228:\n        /* \"#utility.yul\":5577:5588   */\n      dup1\n        /* \"#utility.yul\":5569:5575   */\n      dup7\n        /* \"#utility.yul\":5565:5589   */\n      add\n        /* \"#utility.yul\":5615:5662   */\n      tag_230\n        /* \"#utility.yul\":5658:5661   */\n      dup10\n        /* \"#utility.yul\":5646:5656   */\n      dup3\n        /* \"#utility.yul\":5615:5662   */\n      tag_132\n      jump\t// in\n    tag_230:\n        /* \"#utility.yul\":5610:5613   */\n      dup6\n        /* \"#utility.yul\":5603:5663   */\n      mstore\n        /* \"#utility.yul\":5692:5696   */\n      0x20\n        /* \"#utility.yul\":5687:5690   */\n      dup6\n        /* \"#utility.yul\":5683:5697   */\n      add\n        /* \"#utility.yul\":5676:5697   */\n      swap5\n      pop\n        /* \"#utility.yul\":5348:5707   */\n      pop\n      pop\n        /* \"#utility.yul\":5332:5336   */\n      0x20\n        /* \"#utility.yul\":5327:5330   */\n      dup2\n        /* \"#utility.yul\":5323:5337   */\n      add\n        /* \"#utility.yul\":5316:5337   */\n      swap1\n      pop\n        /* \"#utility.yul\":5272:5707   */\n      jump(tag_225)\n    tag_227:\n        /* \"#utility.yul\":5276:5297   */\n      pop\n        /* \"#utility.yul\":4880:5713   */\n      pop\n      pop\n        /* \"#utility.yul\":4768:5713   */\n      swap4\n      swap3\n      pop\n      pop\n      pop\n      jump\t// out\n        /* \"#utility.yul\":5735:6125   */\n    tag_134:\n        /* \"#utility.yul\":5816:5821   */\n      0x00\n        /* \"#utility.yul\":5865:5868   */\n      dup3\n        /* \"#utility.yul\":5858:5862   */\n      0x1f\n        /* \"#utility.yul\":5850:5856   */\n      dup4\n        /* \"#utility.yul\":5846:5863   */\n      add\n        /* \"#utility.yul\":5842:5869   */\n      slt\n        /* \"#utility.yul\":5832:5954   */\n      tag_232\n      jumpi\n        /* \"#utility.yul\":5873:5952   */\n      tag_233\n      tag_117\n      jump\t// in\n    tag_233:\n        /* \"#utility.yul\":5832:5954   */\n    tag_232:\n        /* \"#utility.yul\":5990:5996   */\n      dup2\n        /* \"#utility.yul\":5977:5997   */\n      calldataload\n        /* \"#utility.yul\":6015:6119   */\n      tag_234\n        /* \"#utility.yul\":6115:6118   */\n      dup5\n        /* \"#utility.yul\":6107:6113   */\n      dup3\n        /* \"#utility.yul\":6100:6104   */\n      0x20\n        /* \"#utility.yul\":6092:6098   */\n      dup7\n        /* \"#utility.yul\":6088:6105   */\n      add\n        /* \"#utility.yul\":6015:6119   */\n      tag_133\n      jump\t// in\n    tag_234:\n        /* \"#utility.yul\":6006:6119   */\n      swap2\n      pop\n        /* \"#utility.yul\":5822:6125   */\n      pop\n        /* \"#utility.yul\":5735:6125   */\n      swap3\n      swap2\n      pop\n      pop\n      jump\t// out\n        /* \"#utility.yul\":6131:6690   */\n    tag_20:\n        /* \"#utility.yul\":6225:6231   */\n      0x00\n        /* \"#utility.yul\":6274:6276   */\n      0x20\n        /* \"#utility.yul\":6262:6271   */\n      dup3\n        /* \"#utility.yul\":6253:6260   */\n      dup5\n        /* \"#utility.yul\":6249:6272   */\n      sub\n        /* \"#utility.yul\":6245:6277   */\n      slt\n        /* \"#utility.yul\":6242:6361   */\n      iszero\n      tag_236\n      jumpi\n        /* \"#utility.yul\":6280:6359   */\n      tag_237\n      tag_115\n      jump\t// in\n    tag_237:\n        /* \"#utility.yul\":6242:6361   */\n    tag_236:\n        /* \"#utility.yul\":6428:6429   */\n      0x00\n        /* \"#utility.yul\":6417:6426   */\n      dup3\n        /* \"#utility.yul\":6413:6430   */\n      add\n        /* \"#utility.yul\":6400:6431   */\n      calldataload\n        /* \"#utility.yul\":6458:6476   */\n      0xffffffffffffffff\n        /* \"#utility.yul\":6450:6456   */\n      dup2\n        /* \"#utility.yul\":6447:6477   */\n      gt\n        /* \"#utility.yul\":6444:6561   */\n      iszero\n      tag_238\n      jumpi\n        /* \"#utility.yul\":6480:6559   */\n      tag_239\n      tag_116\n      jump\t// in\n    tag_239:\n        /* \"#utility.yul\":6444:6561   */\n    tag_238:\n        /* \"#utility.yul\":6585:6673   */\n      tag_240\n        /* \"#utility.yul\":6665:6672   */\n      dup5\n        /* \"#utility.yul\":6656:6662   */\n      dup3\n        /* \"#utility.yul\":6645:6654   */\n      dup6\n        /* \"#utility.yul\":6641:6663   */\n      add\n        /* \"#utility.yul\":6585:6673   */\n      tag_134\n      jump\t// in\n    tag_240:\n        /* \"#utility.yul\":6575:6673   */\n      swap2\n      pop\n        /* \"#utility.yul\":6371:6683   */\n      pop\n        /* \"#utility.yul\":6131:6690   */\n      swap3\n      swap2\n      pop\n      pop\n      jump\t// out\n        /* \"#utility.yul\":6710:7263   */\n    tag_135:\n        /* \"#utility.yul\":6768:6776   */\n      0x00\n        /* \"#utility.yul\":6778:6784   */\n      dup1\n        /* \"#utility.yul\":6828:6831   */\n      dup4\n        /* \"#utility.yul\":6821:6825   */\n      0x1f\n        /* \"#utility.yul\":6813:6819   */\n      dup5\n        /* \"#utility.yul\":6809:6826   */\n      add\n        /* \"#utility.yul\":6805:6832   */\n      slt\n        /* \"#utility.yul\":6795:6917   */\n      tag_242\n      jumpi\n        /* \"#utility.yul\":6836:6915   */\n      tag_243\n      tag_117\n      jump\t// in\n    tag_243:\n        /* \"#utility.yul\":6795:6917   */\n    tag_242:\n        /* \"#utility.yul\":6949:6955   */\n      dup3\n        /* \"#utility.yul\":6936:6956   */\n      calldataload\n        /* \"#utility.yul\":6926:6956   */\n      swap1\n      pop\n        /* \"#utility.yul\":6979:6997   */\n      0xffffffffffffffff\n        /* \"#utility.yul\":6971:6977   */\n      dup2\n        /* \"#utility.yul\":6968:6998   */\n      gt\n        /* \"#utility.yul\":6965:7082   */\n      iszero\n      tag_244\n      jumpi\n        /* \"#utility.yul\":7001:7080   */\n      tag_245\n      tag_118\n      jump\t// in\n    tag_245:\n        /* \"#utility.yul\":6965:7082   */\n    tag_244:\n        /* \"#utility.yul\":7115:7119   */\n      0x20\n        /* \"#utility.yul\":7107:7113   */\n      dup4\n        /* \"#utility.yul\":7103:7120   */\n      add\n        /* \"#utility.yul\":7091:7120   */\n      swap2\n      pop\n        /* \"#utility.yul\":7169:7172   */\n      dup4\n        /* \"#utility.yul\":7161:7165   */\n      0x01\n        /* \"#utility.yul\":7153:7159   */\n      dup3\n        /* \"#utility.yul\":7149:7166   */\n      mul\n        /* \"#utility.yul\":7139:7147   */\n      dup4\n        /* \"#utility.yul\":7135:7167   */\n      add\n        /* \"#utility.yul\":7132:7173   */\n      gt\n        /* \"#utility.yul\":7129:7257   */\n      iszero\n      tag_246\n      jumpi\n        /* \"#utility.yul\":7176:7255   */\n      tag_247\n      tag_119\n      jump\t// in\n    tag_247:\n        /* \"#utility.yul\":7129:7257   */\n    tag_246:\n        /* \"#utility.yul\":6710:7263   */\n      swap3\n      pop\n      swap3\n      swap1\n      pop\n      jump\t// out\n        /* \"#utility.yul\":7269:8123   */\n    tag_25:\n        /* \"#utility.yul\":7359:7365   */\n      0x00\n        /* \"#utility.yul\":7367:7373   */\n      dup1\n        /* \"#utility.yul\":7375:7381   */\n      0x00\n        /* \"#utility.yul\":7424:7426   */\n      0x40\n        /* \"#utility.yul\":7412:7421   */\n      dup5\n        /* \"#utility.yul\":7403:7410   */\n      dup7\n        /* \"#utility.yul\":7399:7422   */\n      sub\n        /* \"#utility.yul\":7395:7427   */\n      slt\n        /* \"#utility.yul\":7392:7511   */\n      iszero\n      tag_249\n      jumpi\n        /* \"#utility.yul\":7430:7509   */\n      tag_250\n      tag_115\n      jump\t// in\n    tag_250:\n        /* \"#utility.yul\":7392:7511   */\n    tag_249:\n        /* \"#utility.yul\":7578:7579   */\n      0x00\n        /* \"#utility.yul\":7567:7576   */\n      dup5\n        /* \"#utility.yul\":7563:7580   */\n      add\n        /* \"#utility.yul\":7550:7581   */\n      calldataload\n        /* \"#utility.yul\":7608:7626   */\n      0xffffffffffffffff\n        /* \"#utility.yul\":7600:7606   */\n      dup2\n        /* \"#utility.yul\":7597:7627   */\n      gt\n        /* \"#utility.yul\":7594:7711   */\n      iszero\n      tag_251\n      jumpi\n        /* \"#utility.yul\":7630:7709   */\n      tag_252\n      tag_116\n      jump\t// in\n    tag_252:\n        /* \"#utility.yul\":7594:7711   */\n    tag_251:\n        /* \"#utility.yul\":7735:7798   */\n      tag_253\n        /* \"#utility.yul\":7790:7797   */\n      dup7\n        /* \"#utility.yul\":7781:7787   */\n      dup3\n        /* \"#utility.yul\":7770:7779   */\n      dup8\n        /* \"#utility.yul\":7766:7788   */\n      add\n        /* \"#utility.yul\":7735:7798   */\n      tag_132\n      jump\t// in\n    tag_253:\n        /* \"#utility.yul\":7725:7798   */\n      swap4\n      pop\n        /* \"#utility.yul\":7521:7808   */\n      pop\n        /* \"#utility.yul\":7875:7877   */\n      0x20\n        /* \"#utility.yul\":7864:7873   */\n      dup5\n        /* \"#utility.yul\":7860:7878   */\n      add\n        /* \"#utility.yul\":7847:7879   */\n      calldataload\n        /* \"#utility.yul\":7906:7924   */\n      0xffffffffffffffff\n        /* \"#utility.yul\":7898:7904   */\n      dup2\n        /* \"#utility.yul\":7895:7925   */\n      gt\n        /* \"#utility.yul\":7892:8009   */\n      iszero\n      tag_254\n      jumpi\n        /* \"#utility.yul\":7928:8007   */\n      tag_255\n      tag_116\n      jump\t// in\n    tag_255:\n        /* \"#utility.yul\":7892:8009   */\n    tag_254:\n        /* \"#utility.yul\":8041:8106   */\n      tag_256\n        /* \"#utility.yul\":8098:8105   */\n      dup7\n        /* \"#utility.yul\":8089:8095   */\n      dup3\n        /* \"#utility.yul\":8078:8087   */\n      dup8\n        /* \"#utility.yul\":8074:8096   */\n      add\n        /* \"#utility.yul\":8041:8106   */\n      tag_135\n      jump\t// in\n    tag_256:\n        /* \"#utility.yul\":8023:8106   */\n      swap3\n      pop\n      swap3\n      pop\n        /* \"#utility.yul\":7818:8116   */\n      pop\n        /* \"#utility.yul\":7269:8123   */\n      swap3\n      pop\n      swap3\n      pop\n      swap3\n      jump\t// out\n        /* \"#utility.yul\":8129:8219   */\n    tag_136:\n        /* \"#utility.yul\":8163:8170   */\n      0x00\n        /* \"#utility.yul\":8206:8211   */\n      dup2\n        /* \"#utility.yul\":8199:8212   */\n      iszero\n        /* \"#utility.yul\":8192:8213   */\n      iszero\n        /* \"#utility.yul\":8181:8213   */\n      swap1\n      pop\n        /* \"#utility.yul\":8129:8219   */\n      swap2\n      swap1\n      pop\n      jump\t// out\n        /* \"#utility.yul\":8225:8334   */\n    tag_137:\n        /* \"#utility.yul\":8306:8327   */\n      tag_259\n        /* \"#utility.yul\":8321:8326   */\n      dup2\n        /* \"#utility.yul\":8306:8327   */\n      tag_136\n      jump\t// in\n    tag_259:\n        /* \"#utility.yul\":8301:8304   */\n      dup3\n        /* \"#utility.yul\":8294:8328   */\n      mstore\n        /* \"#utility.yul\":8225:8334   */\n      pop\n      pop\n      jump\t// out\n        /* \"#utility.yul\":8340:8550   */\n    tag_28:\n        /* \"#utility.yul\":8427:8431   */\n      0x00\n        /* \"#utility.yul\":8465:8467   */\n      0x20\n        /* \"#utility.yul\":8454:8463   */\n      dup3\n        /* \"#utility.yul\":8450:8468   */\n      add\n        /* \"#utility.yul\":8442:8468   */\n      swap1\n      pop\n        /* \"#utility.yul\":8478:8543   */\n      tag_261\n        /* \"#utility.yul\":8540:8541   */\n      0x00\n        /* \"#utility.yul\":8529:8538   */\n      dup4\n        /* \"#utility.yul\":8525:8542   */\n      add\n        /* \"#utility.yul\":8516:8522   */\n      dup5\n        /* \"#utility.yul\":8478:8543   */\n      tag_137\n      jump\t// in\n    tag_261:\n        /* \"#utility.yul\":8340:8550   */\n      swap3\n      swap2\n      pop\n      pop\n      jump\t// out\n        /* \"#utility.yul\":8556:8678   */\n    tag_138:\n        /* \"#utility.yul\":8629:8653   */\n      tag_263\n        /* \"#utility.yul\":8647:8652   */\n      dup2\n        /* \"#utility.yul\":8629:8653   */\n      tag_121\n      jump\t// in\n    tag_263:\n        /* \"#utility.yul\":8622:8627   */\n      dup2\n        /* \"#utility.yul\":8619:8654   */\n      eq\n        /* \"#utility.yul\":8609:8672   */\n      tag_264\n      jumpi\n        /* \"#utility.yul\":8668:8669   */\n      0x00\n        /* \"#utility.yul\":8665:8666   */\n      dup1\n        /* \"#utility.yul\":8658:8670   */\n      revert\n        /* \"#utility.yul\":8609:8672   */\n    tag_264:\n        /* \"#utility.yul\":8556:8678   */\n      pop\n      jump\t// out\n        /* \"#utility.yul\":8684:8823   */\n    tag_139:\n        /* \"#utility.yul\":8730:8735   */\n      0x00\n        /* \"#utility.yul\":8768:8774   */\n      dup2\n        /* \"#utility.yul\":8755:8775   */\n      calldataload\n        /* \"#utility.yul\":8746:8775   */\n      swap1\n      pop\n        /* \"#utility.yul\":8784:8817   */\n      tag_266\n        /* \"#utility.yul\":8811:8816   */\n      dup2\n        /* \"#utility.yul\":8784:8817   */\n      tag_138\n      jump\t// in\n    tag_266:\n        /* \"#utility.yul\":8684:8823   */\n      swap3\n      swap2\n      pop\n      pop\n      jump\t// out\n        /* \"#utility.yul\":8829:9158   */\n    tag_32:\n        /* \"#utility.yul\":8888:8894   */\n      0x00\n        /* \"#utility.yul\":8937:8939   */\n      0x20\n        /* \"#utility.yul\":8925:8934   */\n      dup3\n        /* \"#utility.yul\":8916:8923   */\n      dup5\n        /* \"#utility.yul\":8912:8935   */\n      sub\n        /* \"#utility.yul\":8908:8940   */\n      slt\n        /* \"#utility.yul\":8905:9024   */\n      iszero\n      tag_268\n      jumpi\n        /* \"#utility.yul\":8943:9022   */\n      tag_269\n      tag_115\n      jump\t// in\n    tag_269:\n        /* \"#utility.yul\":8905:9024   */\n    tag_268:\n        /* \"#utility.yul\":9063:9064   */\n      0x00\n        /* \"#utility.yul\":9088:9141   */\n      tag_270\n        /* \"#utility.yul\":9133:9140   */\n      dup5\n        /* \"#utility.yul\":9124:9130   */\n      dup3\n        /* \"#utility.yul\":9113:9122   */\n      dup6\n        /* \"#utility.yul\":9109:9131   */\n      add\n        /* \"#utility.yul\":9088:9141   */\n      tag_139\n      jump\t// in\n    tag_270:\n        /* \"#utility.yul\":9078:9141   */\n      swap2\n      pop\n        /* \"#utility.yul\":9034:9151   */\n      pop\n        /* \"#utility.yul\":8829:9158   */\n      swap3\n      swap2\n      pop\n      pop\n      jump\t// out\n        /* \"#utility.yul\":9164:9263   */\n    tag_140:\n        /* \"#utility.yul\":9216:9222   */\n      0x00\n        /* \"#utility.yul\":9250:9255   */\n      dup2\n        /* \"#utility.yul\":9244:9256   */\n      mload\n        /* \"#utility.yul\":9234:9256   */\n      swap1\n      pop\n        /* \"#utility.yul\":9164:9263   */\n      swap2\n      swap1\n      pop\n      jump\t// out\n        /* \"#utility.yul\":9269:9438   */\n    tag_141:\n        /* \"#utility.yul\":9353:9364   */\n      0x00\n        /* \"#utility.yul\":9387:9393   */\n      dup3\n        /* \"#utility.yul\":9382:9385   */\n      dup3\n        /* \"#utility.yul\":9375:9394   */\n      mstore\n        /* \"#utility.yul\":9427:9431   */\n      0x20\n        /* \"#utility.yul\":9422:9425   */\n      dup3\n        /* \"#utility.yul\":9418:9432   */\n      add\n        /* \"#utility.yul\":9403:9432   */\n      swap1\n      pop\n        /* \"#utility.yul\":9269:9438   */\n      swap3\n      swap2\n      pop\n      pop\n      jump\t// out\n        /* \"#utility.yul\":9444:9690   */\n    tag_142:\n        /* \"#utility.yul\":9525:9526   */\n      0x00\n        /* \"#utility.yul\":9535:9648   */\n    tag_274:\n        /* \"#utility.yul\":9549:9555   */\n      dup4\n        /* \"#utility.yul\":9546:9547   */\n      dup2\n        /* \"#utility.yul\":9543:9556   */\n      lt\n        /* \"#utility.yul\":9535:9648   */\n      iszero\n      tag_276\n      jumpi\n        /* \"#utility.yul\":9634:9635   */\n      dup1\n        /* \"#utility.yul\":9629:9632   */\n      dup3\n        /* \"#utility.yul\":9625:9636   */\n      add\n        /* \"#utility.yul\":9619:9637   */\n      mload\n        /* \"#utility.yul\":9615:9616   */\n      dup2\n        /* \"#utility.yul\":9610:9613   */\n      dup5\n        /* \"#utility.yul\":9606:9617   */\n      add\n        /* \"#utility.yul\":9599:9638   */\n      mstore\n        /* \"#utility.yul\":9571:9573   */\n      0x20\n        /* \"#utility.yul\":9568:9569   */\n      dup2\n        /* \"#utility.yul\":9564:9574   */\n      add\n        /* \"#utility.yul\":9559:9574   */\n      swap1\n      pop\n        /* \"#utility.yul\":9535:9648   */\n      jump(tag_274)\n    tag_276:\n        /* \"#utility.yul\":9682:9683   */\n      0x00\n        /* \"#utility.yul\":9673:9679   */\n      dup5\n        /* \"#utility.yul\":9668:9671   */\n      dup5\n        /* \"#utility.yul\":9664:9680   */\n      add\n        /* \"#utility.yul\":9657:9684   */\n      mstore\n        /* \"#utility.yul\":9506:9690   */\n      pop\n        /* \"#utility.yul\":9444:9690   */\n      pop\n      pop\n      pop\n      jump\t// out\n        /* \"#utility.yul\":9696:10073   */\n    tag_143:\n        /* \"#utility.yul\":9784:9787   */\n      0x00\n        /* \"#utility.yul\":9812:9851   */\n      tag_278\n        /* \"#utility.yul\":9845:9850   */\n      dup3\n        /* \"#utility.yul\":9812:9851   */\n      tag_140\n      jump\t// in\n    tag_278:\n        /* \"#utility.yul\":9867:9938   */\n      tag_279\n        /* \"#utility.yul\":9931:9937   */\n      dup2\n        /* \"#utility.yul\":9926:9929   */\n      dup6\n        /* \"#utility.yul\":9867:9938   */\n      tag_141\n      jump\t// in\n    tag_279:\n        /* \"#utility.yul\":9860:9938   */\n      swap4\n      pop\n        /* \"#utility.yul\":9947:10012   */\n      tag_280\n        /* \"#utility.yul\":10005:10011   */\n      dup2\n        /* \"#utility.yul\":10000:10003   */\n      dup6\n        /* \"#utility.yul\":9993:9997   */\n      0x20\n        /* \"#utility.yul\":9986:9991   */\n      dup7\n        /* \"#utility.yul\":9982:9998   */\n      add\n        /* \"#utility.yul\":9947:10012   */\n      tag_142\n      jump\t// in\n    tag_280:\n        /* \"#utility.yul\":10037:10066   */\n      tag_281\n        /* \"#utility.yul\":10059:10065   */\n      dup2\n        /* \"#utility.yul\":10037:10066   */\n      tag_123\n      jump\t// in\n    tag_281:\n        /* \"#utility.yul\":10032:10035   */\n      dup5\n        /* \"#utility.yul\":10028:10067   */\n      add\n        /* \"#utility.yul\":10021:10067   */\n      swap2\n      pop\n        /* \"#utility.yul\":9788:10073   */\n      pop\n        /* \"#utility.yul\":9696:10073   */\n      swap3\n      swap2\n      pop\n      pop\n      jump\t// out\n        /* \"#utility.yul\":10079:10392   */\n    tag_35:\n        /* \"#utility.yul\":10192:10196   */\n      0x00\n        /* \"#utility.yul\":10230:10232   */\n      0x20\n        /* \"#utility.yul\":10219:10228   */\n      dup3\n        /* \"#utility.yul\":10215:10233   */\n      add\n        /* \"#utility.yul\":10207:10233   */\n      swap1\n      pop\n        /* \"#utility.yul\":10279:10288   */\n      dup2\n        /* \"#utility.yul\":10273:10277   */\n      dup2\n        /* \"#utility.yul\":10269:10289   */\n      sub\n        /* \"#utility.yul\":10265:10266   */\n      0x00\n        /* \"#utility.yul\":10254:10263   */\n      dup4\n        /* \"#utility.yul\":10250:10267   */\n      add\n        /* \"#utility.yul\":10243:10290   */\n      mstore\n        /* \"#utility.yul\":10307:10385   */\n      tag_283\n        /* \"#utility.yul\":10380:10384   */\n      dup2\n        /* \"#utility.yul\":10371:10377   */\n      dup5\n        /* \"#utility.yul\":10307:10385   */\n      tag_143\n      jump\t// in\n    tag_283:\n        /* \"#utility.yul\":10299:10385   */\n      swap1\n      pop\n        /* \"#utility.yul\":10079:10392   */\n      swap3\n      swap2\n      pop\n      pop\n      jump\t// out\n        /* \"#utility.yul\":10398:10578   */\n    tag_43:\n        /* \"#utility.yul\":10446:10523   */\n      0x4e487b7100000000000000000000000000000000000000000000000000000000\n        /* \"#utility.yul\":10443:10444   */\n      0x00\n        /* \"#utility.yul\":10436:10524   */\n      mstore\n        /* \"#utility.yul\":10543:10547   */\n      0x32\n        /* \"#utility.yul\":10540:10541   */\n      0x04\n        /* \"#utility.yul\":10533:10548   */\n      mstore\n        /* \"#utility.yul\":10567:10571   */\n      0x24\n        /* \"#utility.yul\":10564:10565   */\n      0x00\n        /* \"#utility.yul\":10557:10572   */\n      revert\n        /* \"#utility.yul\":10584:10764   */\n    tag_144:\n        /* \"#utility.yul\":10632:10709   */\n      0x4e487b7100000000000000000000000000000000000000000000000000000000\n        /* \"#utility.yul\":10629:10630   */\n      0x00\n        /* \"#utility.yul\":10622:10710   */\n      mstore\n        /* \"#utility.yul\":10729:10733   */\n      0x22\n        /* \"#utility.yul\":10726:10727   */\n      0x04\n        /* \"#utility.yul\":10719:10734   */\n      mstore\n        /* \"#utility.yul\":10753:10757   */\n      0x24\n        /* \"#utility.yul\":10750:10751   */\n      0x00\n        /* \"#utility.yul\":10743:10758   */\n      revert\n        /* \"#utility.yul\":10770:11090   */\n    tag_46:\n        /* \"#utility.yul\":10814:10820   */\n      0x00\n        /* \"#utility.yul\":10851:10852   */\n      0x02\n        /* \"#utility.yul\":10845:10849   */\n      dup3\n        /* \"#utility.yul\":10841:10853   */\n      div\n        /* \"#utility.yul\":10831:10853   */\n      swap1\n      pop\n        /* \"#utility.yul\":10898:10899   */\n      0x01\n        /* \"#utility.yul\":10892:10896   */\n      dup3\n        /* \"#utility.yul\":10888:10900   */\n      and\n        /* \"#utility.yul\":10919:10937   */\n      dup1\n        /* \"#utility.yul\":10909:10990   */\n      tag_287\n      jumpi\n        /* \"#utility.yul\":10975:10979   */\n      0x7f\n        /* \"#utility.yul\":10967:10973   */\n      dup3\n        /* \"#utility.yul\":10963:10980   */\n      and\n        /* \"#utility.yul\":10953:10980   */\n      swap2\n      pop\n        /* \"#utility.yul\":10909:10990   */\n    tag_287:\n        /* \"#utility.yul\":11037:11039   */\n      0x20\n        /* \"#utility.yul\":11029:11035   */\n      dup3\n        /* \"#utility.yul\":11026:11040   */\n      lt\n        /* \"#utility.yul\":11006:11024   */\n      dup2\n        /* \"#utility.yul\":11003:11041   */\n      sub\n        /* \"#utility.yul\":11000:11084   */\n      tag_288\n      jumpi\n        /* \"#utility.yul\":11056:11074   */\n      tag_289\n      tag_144\n      jump\t// in\n    tag_289:\n        /* \"#utility.yul\":11000:11084   */\n    tag_288:\n        /* \"#utility.yul\":10821:11090   */\n      pop\n        /* \"#utility.yul\":10770:11090   */\n      swap2\n      swap1\n      pop\n      jump\t// out\n        /* \"#utility.yul\":11096:11213   */\n    tag_145:\n        /* \"#utility.yul\":11205:11206   */\n      0x00\n        /* \"#utility.yul\":11202:11203   */\n      dup1\n        /* \"#utility.yul\":11195:11207   */\n      revert\n        /* \"#utility.yul\":11219:11336   */\n    tag_146:\n        /* \"#utility.yul\":11328:11329   */\n      0x00\n        /* \"#utility.yul\":11325:11326   */\n      dup1\n        /* \"#utility.yul\":11318:11330   */\n      revert\n        /* \"#utility.yul\":11342:11459   */\n    tag_147:\n        /* \"#utility.yul\":11451:11452   */\n      0x00\n        /* \"#utility.yul\":11448:11449   */\n      dup1\n        /* \"#utility.yul\":11441:11453   */\n      revert\n        /* \"#utility.yul\":11465:12190   */\n    tag_54:\n        /* \"#utility.yul\":11543:11547   */\n      0x00\n        /* \"#utility.yul\":11549:11555   */\n      dup1\n        /* \"#utility.yul\":11605:11616   */\n      dup4\n        /* \"#utility.yul\":11592:11617   */\n      calldataload\n        /* \"#utility.yul\":11705:11706   */\n      0x01\n        /* \"#utility.yul\":11699:11703   */\n      0x20\n        /* \"#utility.yul\":11695:11707   */\n      sub\n        /* \"#utility.yul\":11684:11692   */\n      dup5\n        /* \"#utility.yul\":11668:11682   */\n      calldatasize\n        /* \"#utility.yul\":11664:11693   */\n      sub\n        /* \"#utility.yul\":11660:11708   */\n      sub\n        /* \"#utility.yul\":11640:11658   */\n      dup2\n        /* \"#utility.yul\":11636:11709   */\n      slt\n        /* \"#utility.yul\":11626:11794   */\n      tag_294\n      jumpi\n        /* \"#utility.yul\":11713:11792   */\n      tag_295\n      tag_145\n      jump\t// in\n    tag_295:\n        /* \"#utility.yul\":11626:11794   */\n    tag_294:\n        /* \"#utility.yul\":11825:11843   */\n      dup1\n        /* \"#utility.yul\":11815:11823   */\n      dup5\n        /* \"#utility.yul\":11811:11844   */\n      add\n        /* \"#utility.yul\":11803:11844   */\n      swap3\n      pop\n        /* \"#utility.yul\":11877:11881   */\n      dup3\n        /* \"#utility.yul\":11864:11882   */\n      calldataload\n        /* \"#utility.yul\":11854:11882   */\n      swap2\n      pop\n        /* \"#utility.yul\":11905:11923   */\n      0xffffffffffffffff\n        /* \"#utility.yul\":11897:11903   */\n      dup3\n        /* \"#utility.yul\":11894:11924   */\n      gt\n        /* \"#utility.yul\":11891:12008   */\n      iszero\n      tag_296\n      jumpi\n        /* \"#utility.yul\":11927:12006   */\n      tag_297\n      tag_146\n      jump\t// in\n    tag_297:\n        /* \"#utility.yul\":11891:12008   */\n    tag_296:\n        /* \"#utility.yul\":12035:12037   */\n      0x20\n        /* \"#utility.yul\":12029:12033   */\n      dup4\n        /* \"#utility.yul\":12025:12038   */\n      add\n        /* \"#utility.yul\":12017:12038   */\n      swap3\n      pop\n        /* \"#utility.yul\":12092:12096   */\n      0x01\n        /* \"#utility.yul\":12084:12090   */\n      dup3\n        /* \"#utility.yul\":12080:12097   */\n      mul\n        /* \"#utility.yul\":12064:12078   */\n      calldatasize\n        /* \"#utility.yul\":12060:12098   */\n      sub\n        /* \"#utility.yul\":12054:12058   */\n      dup4\n        /* \"#utility.yul\":12050:12099   */\n      sgt\n        /* \"#utility.yul\":12047:12183   */\n      iszero\n      tag_298\n      jumpi\n        /* \"#utility.yul\":12102:12181   */\n      tag_299\n      tag_147\n      jump\t// in\n    tag_299:\n        /* \"#utility.yul\":12047:12183   */\n    tag_298:\n        /* \"#utility.yul\":11556:12190   */\n      pop\n        /* \"#utility.yul\":11465:12190   */\n      swap3\n      pop\n      swap3\n      swap1\n      pop\n      jump\t// out\n        /* \"#utility.yul\":12196:12376   */\n    tag_148:\n        /* \"#utility.yul\":12244:12321   */\n      0x4e487b7100000000000000000000000000000000000000000000000000000000\n        /* \"#utility.yul\":12241:12242   */\n      0x00\n        /* \"#utility.yul\":12234:12322   */\n      mstore\n        /* \"#utility.yul\":12341:12345   */\n      0x11\n        /* \"#utility.yul\":12338:12339   */\n      0x04\n        /* \"#utility.yul\":12331:12346   */\n      mstore\n        /* \"#utility.yul\":12365:12369   */\n      0x24\n        /* \"#utility.yul\":12362:12363   */\n      0x00\n        /* \"#utility.yul\":12355:12370   */\n      revert\n        /* \"#utility.yul\":12382:12615   */\n    tag_57:\n        /* \"#utility.yul\":12421:12424   */\n      0x00\n        /* \"#utility.yul\":12444:12468   */\n      tag_302\n        /* \"#utility.yul\":12462:12467   */\n      dup3\n        /* \"#utility.yul\":12444:12468   */\n      tag_121\n      jump\t// in\n    tag_302:\n        /* \"#utility.yul\":12435:12468   */\n      swap2\n      pop\n        /* \"#utility.yul\":12490:12556   */\n      0xffffffffffffffffffffffffffffffffffffffffffffffffffffffffffffffff\n        /* \"#utility.yul\":12483:12488   */\n      dup3\n        /* \"#utility.yul\":12480:12557   */\n      sub\n        /* \"#utility.yul\":12477:12580   */\n      tag_303\n      jumpi\n        /* \"#utility.yul\":12560:12578   */\n      tag_304\n      tag_148\n      jump\t// in\n    tag_304:\n        /* \"#utility.yul\":12477:12580   */\n    tag_303:\n        /* \"#utility.yul\":12607:12608   */\n      0x01\n        /* \"#utility.yul\":12600:12605   */\n      dup3\n        /* \"#utility.yul\":12596:12609   */\n      add\n        /* \"#utility.yul\":12589:12609   */\n      swap1\n      pop\n        /* \"#utility.yul\":12382:12615   */\n      swap2\n      swap1\n      pop\n      jump\t// out\n        /* \"#utility.yul\":12621:12769   */\n    tag_149:\n        /* \"#utility.yul\":12723:12734   */\n      0x00\n        /* \"#utility.yul\":12760:12763   */\n      dup2\n        /* \"#utility.yul\":12745:12763   */\n      swap1\n      pop\n        /* \"#utility.yul\":12621:12769   */\n      swap3\n      swap2\n      pop\n      pop\n      jump\t// out\n        /* \"#utility.yul\":12799:13129   */\n    tag_150:\n        /* \"#utility.yul\":12915:12918   */\n      0x00\n        /* \"#utility.yul\":12936:13025   */\n      tag_307\n        /* \"#utility.yul\":13018:13024   */\n      dup4\n        /* \"#utility.yul\":13013:13016   */\n      dup6\n        /* \"#utility.yul\":12936:13025   */\n      tag_149\n      jump\t// in\n    tag_307:\n        /* \"#utility.yul\":12929:13025   */\n      swap4\n      pop\n        /* \"#utility.yul\":13035:13091   */\n      tag_308\n        /* \"#utility.yul\":13084:13090   */\n      dup4\n        /* \"#utility.yul\":13079:13082   */\n      dup6\n        /* \"#utility.yul\":13072:13077   */\n      dup5\n        /* \"#utility.yul\":13035:13091   */\n      tag_130\n      jump\t// in\n    tag_308:\n        /* \"#utility.yul\":13116:13122   */\n      dup3\n        /* \"#utility.yul\":13111:13114   */\n      dup5\n        /* \"#utility.yul\":13107:13123   */\n      add\n        /* \"#utility.yul\":13100:13123   */\n      swap1\n      pop\n        /* \"#utility.yul\":12799:13129   */\n      swap4\n      swap3\n      pop\n      pop\n      pop\n      jump\t// out\n        /* \"#utility.yul\":13135:13430   */\n    tag_70:\n        /* \"#utility.yul\":13277:13280   */\n      0x00\n        /* \"#utility.yul\":13299:13404   */\n      tag_310\n        /* \"#utility.yul\":13400:13403   */\n      dup3\n        /* \"#utility.yul\":13391:13397   */\n      dup5\n        /* \"#utility.yul\":13383:13389   */\n      dup7\n        /* \"#utility.yul\":13299:13404   */\n      tag_150\n      jump\t// in\n    tag_310:\n        /* \"#utility.yul\":13292:13404   */\n      swap2\n      pop\n        /* \"#utility.yul\":13421:13424   */\n      dup2\n        /* \"#utility.yul\":13414:13424   */\n      swap1\n      pop\n        /* \"#utility.yul\":13135:13430   */\n      swap4\n      swap3\n      pop\n      pop\n      pop\n      jump\t// out\n        /* \"#utility.yul\":13436:13826   */\n    tag_151:\n        /* \"#utility.yul\":13542:13545   */\n      0x00\n        /* \"#utility.yul\":13570:13609   */\n      tag_312\n        /* \"#utility.yul\":13603:13608   */\n      dup3\n        /* \"#utility.yul\":13570:13609   */\n      tag_140\n      jump\t// in\n    tag_312:\n        /* \"#utility.yul\":13625:13714   */\n      tag_313\n        /* \"#utility.yul\":13707:13713   */\n      dup2\n        /* \"#utility.yul\":13702:13705   */\n      dup6\n        /* \"#utility.yul\":13625:13714   */\n      tag_149\n      jump\t// in\n    tag_313:\n        /* \"#utility.yul\":13618:13714   */\n      swap4\n      pop\n        /* \"#utility.yul\":13723:13788   */\n      tag_314\n        /* \"#utility.yul\":13781:13787   */\n      dup2\n        /* \"#utility.yul\":13776:13779   */\n      dup6\n        /* \"#utility.yul\":13769:13773   */\n      0x20\n        /* \"#utility.yul\":13762:13767   */\n      dup7\n        /* \"#utility.yul\":13758:13774   */\n      add\n        /* \"#utility.yul\":13723:13788   */\n      tag_142\n      jump\t// in\n    tag_314:\n        /* \"#utility.yul\":13813:13819   */\n      dup1\n        /* \"#utility.yul\":13808:13811   */\n      dup5\n        /* \"#utility.yul\":13804:13820   */\n      add\n        /* \"#utility.yul\":13797:13820   */\n      swap2\n      pop\n        /* \"#utility.yul\":13546:13826   */\n      pop\n        /* \"#utility.yul\":13436:13826   */\n      swap3\n      swap2\n      pop\n      pop\n      jump\t// out\n        /* \"#utility.yul\":13832:14107   */\n    tag_72:\n        /* \"#utility.yul\":13964:13967   */\n      0x00\n        /* \"#utility.yul\":13986:14081   */\n      tag_316\n        /* \"#utility.yul\":14077:14080   */\n      dup3\n        /* \"#utility.yul\":14068:14074   */\n      dup5\n        /* \"#utility.yul\":13986:14081   */\n      tag_151\n      jump\t// in\n    tag_316:\n        /* \"#utility.yul\":13979:14081   */\n      swap2\n      pop\n        /* \"#utility.yul\":14098:14101   */\n      dup2\n        /* \"#utility.yul\":14091:14101   */\n      swap1\n      pop\n        /* \"#utility.yul\":13832:14107   */\n      swap3\n      swap2\n      pop\n      pop\n      jump\t// out\n        /* \"#utility.yul\":14113:14254   */\n    tag_152:\n        /* \"#utility.yul\":14162:14166   */\n      0x00\n        /* \"#utility.yul\":14185:14188   */\n      dup2\n        /* \"#utility.yul\":14177:14188   */\n      swap1\n      pop\n        /* \"#utility.yul\":14208:14211   */\n      dup2\n        /* \"#utility.yul\":14205:14206   */\n      0x00\n        /* \"#utility.yul\":14198:14212   */\n      mstore\n        /* \"#utility.yul\":14242:14246   */\n      0x20\n        /* \"#utility.yul\":14239:14240   */\n      0x00\n        /* \"#utility.yul\":14229:14247   */\n      keccak256\n        /* \"#utility.yul\":14221:14247   */\n      swap1\n      pop\n        /* \"#utility.yul\":14113:14254   */\n      swap2\n      swap1\n      pop\n      jump\t// out\n        /* \"#utility.yul\":14260:14353   */\n    tag_153:\n        /* \"#utility.yul\":14297:14303   */\n      0x00\n        /* \"#utility.yul\":14344:14346   */\n      0x20\n        /* \"#utility.yul\":14339:14341   */\n      0x1f\n        /* \"#utility.yul\":14332:14337   */\n      dup4\n        /* \"#utility.yul\":14328:14342   */\n      add\n        /* \"#utility.yul\":14324:14347   */\n      div\n        /* \"#utility.yul\":14314:14347   */\n      swap1\n      pop\n        /* \"#utility.yul\":14260:14353   */\n      swap2\n      swap1\n      pop\n      jump\t// out\n        /* \"#utility.yul\":14359:14466   */\n    tag_154:\n        /* \"#utility.yul\":14403:14411   */\n      0x00\n        /* \"#utility.yul\":14453:14458   */\n      dup3\n        /* \"#utility.yul\":14447:14451   */\n      dup3\n        /* \"#utility.yul\":14443:14459   */\n      shl\n        /* \"#utility.yul\":14422:14459   */\n      swap1\n      pop\n        /* \"#utility.yul\":14359:14466   */\n      swap3\n      swap2\n      pop\n      pop\n      jump\t// out\n        /* \"#utility.yul\":14472:14865   */\n    tag_155:\n        /* \"#utility.yul\":14541:14547   */\n      0x00\n        /* \"#utility.yul\":14591:14592   */\n      0x08\n        /* \"#utility.yul\":14579:14589   */\n      dup4\n        /* \"#utility.yul\":14575:14593   */\n      mul\n        /* \"#utility.yul\":14614:14711   */\n      tag_321\n        /* \"#utility.yul\":14644:14710   */\n      0xffffffffffffffffffffffffffffffffffffffffffffffffffffffffffffffff\n        /* \"#utility.yul\":14633:14642   */\n      dup3\n        /* \"#utility.yul\":14614:14711   */\n      tag_154\n      jump\t// in\n    tag_321:\n        /* \"#utility.yul\":14732:14771   */\n      tag_322\n        /* \"#utility.yul\":14762:14770   */\n      dup7\n        /* \"#utility.yul\":14751:14760   */\n      dup4\n        /* \"#utility.yul\":14732:14771   */\n      tag_154\n      jump\t// in\n    tag_322:\n        /* \"#utility.yul\":14720:14771   */\n      swap6\n      pop\n        /* \"#utility.yul\":14804:14808   */\n      dup1\n        /* \"#utility.yul\":14800:14809   */\n      not\n        /* \"#utility.yul\":14793:14798   */\n      dup5\n        /* \"#utility.yul\":14789:14810   */\n      and\n        /* \"#utility.yul\":14780:14810   */\n      swap4\n      pop\n        /* \"#utility.yul\":14853:14857   */\n      dup1\n        /* \"#utility.yul\":14843:14851   */\n      dup7\n        /* \"#utility.yul\":14839:14858   */\n      and\n        /* \"#utility.yul\":14832:14837   */\n      dup5\n        /* \"#utility.yul\":14829:14859   */\n      or\n        /* \"#utility.yul\":14819:14859   */\n      swap3\n      pop\n        /* \"#utility.yul\":14548:14865   */\n      pop\n      pop\n        /* \"#utility.yul\":14472:14865   */\n      swap4\n      swap3\n      pop\n      pop\n      pop\n      jump\t// out\n        /* \"#utility.yul\":14871:14931   */\n    tag_156:\n        /* \"#utility.yul\":14899:14902   */\n      0x00\n        /* \"#utility.yul\":14920:14925   */\n      dup2\n        /* \"#utility.yul\":14913:14925   */\n      swap1\n      pop\n        /* \"#utility.yul\":14871:14931   */\n      swap2\n      swap1\n      pop\n      jump\t// out\n        /* \"#utility.yul\":14937:15079   */\n    tag_157:\n        /* \"#utility.yul\":14987:14996   */\n      0x00\n        /* \"#utility.yul\":15020:15073   */\n      tag_325\n        /* \"#utility.yul\":15038:15072   */\n      tag_326\n        /* \"#utility.yul\":15047:15071   */\n      tag_327\n        /* \"#utility.yul\":15065:15070   */\n      dup5\n        /* \"#utility.yul\":15047:15071   */\n      tag_121\n      jump\t// in\n    tag_327:\n        /* \"#utility.yul\":15038:15072   */\n      tag_156\n      jump\t// in\n    tag_326:\n        /* \"#utility.yul\":15020:15073   */\n      tag_121\n      jump\t// in\n    tag_325:\n        /* \"#utility.yul\":15007:15073   */\n      swap1\n      pop\n        /* \"#utility.yul\":14937:15079   */\n      swap2\n      swap1\n      pop\n      jump\t// out\n        /* \"#utility.yul\":15085:15160   */\n    tag_158:\n        /* \"#utility.yul\":15128:15131   */\n      0x00\n        /* \"#utility.yul\":15149:15154   */\n      dup2\n        /* \"#utility.yul\":15142:15154   */\n      swap1\n      pop\n        /* \"#utility.yul\":15085:15160   */\n      swap2\n      swap1\n      pop\n      jump\t// out\n        /* \"#utility.yul\":15166:15435   */\n    tag_159:\n        /* \"#utility.yul\":15276:15315   */\n      tag_330\n        /* \"#utility.yul\":15307:15314   */\n      dup4\n        /* \"#utility.yul\":15276:15315   */\n      tag_157\n      jump\t// in\n    tag_330:\n        /* \"#utility.yul\":15337:15428   */\n      tag_331\n        /* \"#utility.yul\":15386:15427   */\n      tag_332\n        /* \"#utility.yul\":15410:15426   */\n      dup3\n        /* \"#utility.yul\":15386:15427   */\n      tag_158\n      jump\t// in\n    tag_332:\n        /* \"#utility.yul\":15378:15384   */\n      dup5\n        /* \"#utility.yul\":15371:15375   */\n      dup5\n        /* \"#utility.yul\":15365:15376   */\n      sload\n        /* \"#utility.yul\":15337:15428   */\n      tag_155\n      jump\t// in\n    tag_331:\n        /* \"#utility.yul\":15331:15335   */\n      dup3\n        /* \"#utility.yul\":15324:15429   */\n      sstore\n        /* \"#utility.yul\":15242:15435   */\n      pop\n        /* \"#utility.yul\":15166:15435   */\n      pop\n      pop\n      pop\n      jump\t// out\n        /* \"#utility.yul\":15441:15514   */\n    tag_160:\n        /* \"#utility.yul\":15486:15489   */\n      0x00\n        /* \"#utility.yul\":15441:15514   */\n      swap1\n      jump\t// out\n        /* \"#utility.yul\":15520:15709   */\n    tag_161:\n        /* \"#utility.yul\":15597:15629   */\n      tag_335\n      tag_160\n      jump\t// in\n    tag_335:\n        /* \"#utility.yul\":15638:15703   */\n      tag_336\n        /* \"#utility.yul\":15696:15702   */\n      dup2\n        /* \"#utility.yul\":15688:15694   */\n      dup5\n        /* \"#utility.yul\":15682:15686   */\n      dup5\n        /* \"#utility.yul\":15638:15703   */\n      tag_159\n      jump\t// in\n    tag_336:\n        /* \"#utility.yul\":15573:15709   */\n      pop\n        /* \"#utility.yul\":15520:15709   */\n      pop\n      pop\n      jump\t// out\n        /* \"#utility.yul\":15715:15901   */\n    tag_162:\n        /* \"#utility.yul\":15775:15895   */\n    tag_338:\n        /* \"#utility.yul\":15792:15795   */\n      dup2\n        /* \"#utility.yul\":15785:15790   */\n      dup2\n        /* \"#utility.yul\":15782:15796   */\n      lt\n        /* \"#utility.yul\":15775:15895   */\n      iszero\n      tag_340\n      jumpi\n        /* \"#utility.yul\":15846:15885   */\n      tag_341\n        /* \"#utility.yul\":15883:15884   */\n      0x00\n        /* \"#utility.yul\":15876:15881   */\n      dup3\n        /* \"#utility.yul\":15846:15885   */\n      tag_161\n      jump\t// in\n    tag_341:\n        /* \"#utility.yul\":15819:15820   */\n      0x01\n        /* \"#utility.yul\":15812:15817   */\n      dup2\n        /* \"#utility.yul\":15808:15821   */\n      add\n        /* \"#utility.yul\":15799:15821   */\n      swap1\n      pop\n        /* \"#utility.yul\":15775:15895   */\n      jump(tag_338)\n    tag_340:\n        /* \"#utility.yul\":15715:15901   */\n      pop\n      pop\n      jump\t// out\n        /* \"#utility.yul\":15907:16450   */\n    tag_163:\n        /* \"#utility.yul\":16008:16010   */\n      0x1f\n        /* \"#utility.yul\":16003:16006   */\n      dup3\n        /* \"#utility.yul\":16000:16011   */\n      gt\n        /* \"#utility.yul\":15997:16443   */\n      iszero\n      tag_343\n      jumpi\n        /* \"#utility.yul\":16042:16080   */\n      tag_344\n        /* \"#utility.yul\":16074:16079   */\n      dup2\n        /* \"#utility.yul\":16042:16080   */\n      tag_152\n      jump\t// in\n    tag_344:\n        /* \"#utility.yul\":16126:16155   */\n      tag_345\n        /* \"#utility.yul\":16144:16154   */\n      dup5\n        /* \"#utility.yul\":16126:16155   */\n      tag_153\n      jump\t// in\n    tag_345:\n        /* \"#utility.yul\":16116:16124   */\n      dup2\n        /* \"#utility.yul\":16112:16156   */\n      add\n        /* \"#utility.yul\":16309:16311   */\n      0x20\n        /* \"#utility.yul\":16297:16307   */\n      dup6\n        /* \"#utility.yul\":16294:16312   */\n      lt\n        /* \"#utility.yul\":16291:16340   */\n      iszero\n      tag_346\n      jumpi\n        /* \"#utility.yul\":16330:16338   */\n      dup2\n        /* \"#utility.yul\":16315:16338   */\n      swap1\n      pop\n        /* \"#utility.yul\":16291:16340   */\n    tag_346:\n        /* \"#utility.yul\":16353:16433   */\n      tag_347\n        /* \"#utility.yul\":16409:16431   */\n      tag_348\n        /* \"#utility.yul\":16427:16430   */\n      dup6\n        /* \"#utility.yul\":16409:16431   */\n      tag_153\n      jump\t// in\n    tag_348:\n        /* \"#utility.yul\":16399:16407   */\n      dup4\n        /* \"#utility.yul\":16395:16432   */\n      add\n        /* \"#utility.yul\":16382:16393   */\n      dup3\n        /* \"#utility.yul\":16353:16433   */\n      tag_162\n      jump\t// in\n    tag_347:\n        /* \"#utility.yul\":16012:16443   */\n      pop\n      pop\n        /* \"#utility.yul\":15997:16443   */\n    tag_343:\n        /* \"#utility.yul\":15907:16450   */\n      pop\n      pop\n      pop\n      jump\t// out\n        /* \"#utility.yul\":16456:16573   */\n    tag_164:\n        /* \"#utility.yul\":16510:16518   */\n      0x00\n        /* \"#utility.yul\":16560:16565   */\n      dup3\n        /* \"#utility.yul\":16554:16558   */\n      dup3\n        /* \"#utility.yul\":16550:16566   */\n      shr\n        /* \"#utility.yul\":16529:16566   */\n      swap1\n      pop\n        /* \"#utility.yul\":16456:16573   */\n      swap3\n      swap2\n      pop\n      pop\n      jump\t// out\n        /* \"#utility.yul\":16579:16748   */\n    tag_165:\n        /* \"#utility.yul\":16623:16629   */\n      0x00\n        /* \"#utility.yul\":16656:16707   */\n      tag_351\n        /* \"#utility.yul\":16704:16705   */\n      0x00\n        /* \"#utility.yul\":16700:16706   */\n      not\n        /* \"#utility.yul\":16692:16697   */\n      dup5\n        /* \"#utility.yul\":16689:16690   */\n      0x08\n        /* \"#utility.yul\":16685:16698   */\n      mul\n        /* \"#utility.yul\":16656:16707   */\n      tag_164\n      jump\t// in\n    tag_351:\n        /* \"#utility.yul\":16652:16708   */\n      not\n        /* \"#utility.yul\":16737:16741   */\n      dup1\n        /* \"#utility.yul\":16731:16735   */\n      dup4\n        /* \"#utility.yul\":16727:16742   */\n      and\n        /* \"#utility.yul\":16717:16742   */\n      swap2\n      pop\n        /* \"#utility.yul\":16630:16748   */\n      pop\n        /* \"#utility.yul\":16579:16748   */\n      swap3\n      swap2\n      pop\n      pop\n      jump\t// out\n        /* \"#utility.yul\":16753:17048   */\n    tag_166:\n        /* \"#utility.yul\":16829:16833   */\n      0x00\n        /* \"#utility.yul\":16975:17004   */\n      tag_353\n        /* \"#utility.yul\":17000:17003   */\n      dup4\n        /* \"#utility.yul\":16994:16998   */\n      dup4\n        /* \"#utility.yul\":16975:17004   */\n      tag_165\n      jump\t// in\n    tag_353:\n        /* \"#utility.yul\":16967:17004   */\n      swap2\n      pop\n        /* \"#utility.yul\":17037:17040   */\n      dup3\n        /* \"#utility.yul\":17034:17035   */\n      0x02\n        /* \"#utility.yul\":17030:17041   */\n      mul\n        /* \"#utility.yul\":17024:17028   */\n      dup3\n        /* \"#utility.yul\":17021:17042   */\n      or\n        /* \"#utility.yul\":17013:17042   */\n      swap1\n      pop\n        /* \"#utility.yul\":16753:17048   */\n      swap3\n      swap2\n      pop\n      pop\n      jump\t// out\n        /* \"#utility.yul\":17053:18448   */\n    tag_100:\n        /* \"#utility.yul\":17170:17207   */\n      tag_355\n        /* \"#utility.yul\":17203:17206   */\n      dup3\n        /* \"#utility.yul\":17170:17207   */\n      tag_140\n      jump\t// in\n    tag_355:\n        /* \"#utility.yul\":17272:17290   */\n      0xffffffffffffffff\n        /* \"#utility.yul\":17264:17270   */\n      dup2\n        /* \"#utility.yul\":17261:17291   */\n      gt\n        /* \"#utility.yul\":17258:17314   */\n      iszero\n      tag_356\n      jumpi\n        /* \"#utility.yul\":17294:17312   */\n      tag_357\n      tag_124\n      jump\t// in\n    tag_357:\n        /* \"#utility.yul\":17258:17314   */\n    tag_356:\n        /* \"#utility.yul\":17338:17376   */\n      tag_358\n        /* \"#utility.yul\":17370:17374   */\n      dup3\n        /* \"#utility.yul\":17364:17375   */\n      sload\n        /* \"#utility.yul\":17338:17376   */\n      tag_46\n      jump\t// in\n    tag_358:\n        /* \"#utility.yul\":17423:17490   */\n      tag_359\n        /* \"#utility.yul\":17483:17489   */\n      dup3\n        /* \"#utility.yul\":17475:17481   */\n      dup3\n        /* \"#utility.yul\":17469:17473   */\n      dup6\n        /* \"#utility.yul\":17423:17490   */\n      tag_163\n      jump\t// in\n    tag_359:\n        /* \"#utility.yul\":17517:17518   */\n      0x00\n        /* \"#utility.yul\":17541:17545   */\n      0x20\n        /* \"#utility.yul\":17528:17545   */\n      swap1\n      pop\n        /* \"#utility.yul\":17573:17575   */\n      0x1f\n        /* \"#utility.yul\":17565:17571   */\n      dup4\n        /* \"#utility.yul\":17562:17576   */\n      gt\n        /* \"#utility.yul\":17590:17591   */\n      0x01\n        /* \"#utility.yul\":17585:18203   */\n      dup2\n      eq\n      tag_361\n      jumpi\n        /* \"#utility.yul\":18247:18248   */\n      0x00\n        /* \"#utility.yul\":18264:18270   */\n      dup5\n        /* \"#utility.yul\":18261:18338   */\n      iszero\n      tag_362\n      jumpi\n        /* \"#utility.yul\":18313:18322   */\n      dup3\n        /* \"#utility.yul\":18308:18311   */\n      dup8\n        /* \"#utility.yul\":18304:18323   */\n      add\n        /* \"#utility.yul\":18298:18324   */\n      mload\n        /* \"#utility.yul\":18289:18324   */\n      swap1\n      pop\n        /* \"#utility.yul\":18261:18338   */\n    tag_362:\n        /* \"#utility.yul\":18364:18431   */\n      tag_363\n        /* \"#utility.yul\":18424:18430   */\n      dup6\n        /* \"#utility.yul\":18417:18422   */\n      dup3\n        /* \"#utility.yul\":18364:18431   */\n      tag_166\n      jump\t// in\n    tag_363:\n        /* \"#utility.yul\":18358:18362   */\n      dup7\n        /* \"#utility.yul\":18351:18432   */\n      sstore\n        /* \"#utility.yul\":18220:18442   */\n      pop\n        /* \"#utility.yul\":17555:18442   */\n      jump(tag_360)\n        /* \"#utility.yul\":17585:18203   */\n    tag_361:\n        /* \"#utility.yul\":17637:17641   */\n      0x1f\n        /* \"#utility.yul\":17633:17642   */\n      not\n        /* \"#utility.yul\":17625:17631   */\n      dup5\n        /* \"#utility.yul\":17621:17643   */\n      and\n        /* \"#utility.yul\":17671:17708   */\n      tag_364\n        /* \"#utility.yul\":17703:17707   */\n      dup7\n        /* \"#utility.yul\":17671:17708   */\n      tag_152\n      jump\t// in\n    tag_364:\n        /* \"#utility.yul\":17730:17731   */\n      0x00\n        /* \"#utility.yul\":17744:17952   */\n    tag_365:\n        /* \"#utility.yul\":17758:17765   */\n      dup3\n        /* \"#utility.yul\":17755:17756   */\n      dup2\n        /* \"#utility.yul\":17752:17766   */\n      lt\n        /* \"#utility.yul\":17744:17952   */\n      iszero\n      tag_367\n      jumpi\n        /* \"#utility.yul\":17837:17846   */\n      dup5\n        /* \"#utility.yul\":17832:17835   */\n      dup10\n        /* \"#utility.yul\":17828:17847   */\n      add\n        /* \"#utility.yul\":17822:17848   */\n      mload\n        /* \"#utility.yul\":17814:17820   */\n      dup3\n        /* \"#utility.yul\":17807:17849   */\n      sstore\n        /* \"#utility.yul\":17888:17889   */\n      0x01\n        /* \"#utility.yul\":17880:17886   */\n      dup3\n        /* \"#utility.yul\":17876:17890   */\n      add\n        /* \"#utility.yul\":17866:17890   */\n      swap2\n      pop\n        /* \"#utility.yul\":17935:17937   */\n      0x20\n        /* \"#utility.yul\":17924:17933   */\n      dup6\n        /* \"#utility.yul\":17920:17938   */\n      add\n        /* \"#utility.yul\":17907:17938   */\n      swap5\n      pop\n        /* \"#utility.yul\":17781:17785   */\n      0x20\n        /* \"#utility.yul\":17778:17779   */\n      dup2\n        /* \"#utility.yul\":17774:17786   */\n      add\n        /* \"#utility.yul\":17769:17786   */\n      swap1\n      pop\n        /* \"#utility.yul\":17744:17952   */\n      jump(tag_365)\n    tag_367:\n        /* \"#utility.yul\":17980:17986   */\n      dup7\n        /* \"#utility.yul\":17971:17978   */\n      dup4\n        /* \"#utility.yul\":17968:17987   */\n      lt\n        /* \"#utility.yul\":17965:18144   */\n      iszero\n      tag_368\n      jumpi\n        /* \"#utility.yul\":18038:18047   */\n      dup5\n        /* \"#utility.yul\":18033:18036   */\n      dup10\n        /* \"#utility.yul\":18029:18048   */\n      add\n        /* \"#utility.yul\":18023:18049   */\n      mload\n        /* \"#utility.yul\":18081:18129   */\n      tag_369\n        /* \"#utility.yul\":18123:18127   */\n      0x1f\n        /* \"#utility.yul\":18115:18121   */\n      dup10\n        /* \"#utility.yul\":18111:18128   */\n      and\n        /* \"#utility.yul\":18100:18109   */\n      dup3\n        /* \"#utility.yul\":18081:18129   */\n      tag_165\n      jump\t// in\n    tag_369:\n        /* \"#utility.yul\":18073:18079   */\n      dup4\n        /* \"#utility.yul\":18066:18130   */\n      sstore\n        /* \"#utility.yul\":17988:18144   */\n      pop\n        /* \"#utility.yul\":17965:18144   */\n    tag_368:\n        /* \"#utility.yul\":18190:18191   */\n      0x01\n        /* \"#utility.yul\":18186:18187   */\n      0x02\n        /* \"#utility.yul\":18178:18184   */\n      dup9\n        /* \"#utility.yul\":18174:18188   */\n      mul\n        /* \"#utility.yul\":18170:18192   */\n      add\n        /* \"#utility.yul\":18164:18168   */\n      dup9\n        /* \"#utility.yul\":18157:18193   */\n      sstore\n        /* \"#utility.yul\":17592:18203   */\n      pop\n      pop\n      pop\n        /* \"#utility.yul\":17555:18442   */\n    tag_360:\n      pop\n        /* \"#utility.yul\":17145:18448   */\n      pop\n      pop\n      pop\n        /* \"#utility.yul\":17053:18448   */\n      pop\n      pop\n      jump\t// out\n\n    auxdata: 0xa2646970667358221220e325ff23daa5b0d6237ed37d90323a85b0b1c4aadf48970b82233c698d3332ee64736f6c63430008120033\n}\n",
				"bytecode": {
					"linkReferences": {},
					"object": "608060405234801561001057600080fd5b5033600160006101000a81548173ffffffffffffffffffffffffffffffffffffffff021916908373ffffffffffffffffffffffffffffffffffffffff16021790555061107f806100616000396000f3fe60806040526004361061004a5760003560e01c806368c47d191461004f578063699bf15f1461008c5780636dbf9dec146100a8578063a074dc3d146100d1578063a2a0e4c31461010e575b600080fd5b34801561005b57600080fd5b50610076600480360381019061007191906106d4565b61014b565b604051610083919061073a565b60405180910390f35b6100a660048036038101906100a191906106d4565b610264565b005b3480156100b457600080fd5b506100cf60048036038101906100ca9190610977565b610293565b005b3480156100dd57600080fd5b506100f860048036038101906100f39190610a16565b610307565b6040516101059190610aad565b60405180910390f35b34801561011a57600080fd5b5061013560048036038101906101309190610af4565b610363565b6040516101429190610ba0565b60405180910390f35b60008060005b600080549050811015610259576102326000828154811061017557610174610bc2565b5b90600052602060002001805461018a90610c20565b80601f01602080910402602001604051908101604052809291908181526020018280546101b690610c20565b80156102035780601f106101d857610100808354040283529160200191610203565b820191906000526020600020905b8154815290600101906020018083116101e657829003601f168201915b505050505086868481811061021b5761021a610bc2565b5b905060200281019061022d9190610c60565b610307565b1561024657818061024290610cf2565b9250505b808061025190610cf2565b915050610151565b508091505092915050565b66b1a2bc2ec50000341461027757600080fd5b6000610283838361014b565b905061028e8161040f565b505050565b3373ffffffffffffffffffffffffffffffffffffffff16600160009054906101000a900473ffffffffffffffffffffffffffffffffffffffff1673ffffffffffffffffffffffffffffffffffffffff16146102ed57600080fd5b8060009080519060200190610303929190610581565b5050565b6000828260405160200161031c929190610d6a565b60405160208183030381529060405280519060200120846040516020016103439190610db4565b604051602081830303815290604052805190602001201490509392505050565b6000818154811061037357600080fd5b90600052602060002001600091509050805461038e90610c20565b80601f01602080910402602001604051908101604052809291908181526020018280546103ba90610c20565b80156104075780601f106103dc57610100808354040283529160200191610407565b820191906000526020600020905b8154815290600101906020018083116103ea57829003601f168201915b505050505081565b6006810361046b573373ffffffffffffffffffffffffffffffffffffffff166108fc670de0b6b3a76400009081150290604051600060405180830381858888f19350505050158015610465573d6000803e3d6000fd5b5061057e565b600581036104c7573373ffffffffffffffffffffffffffffffffffffffff166108fc670a688906bd8b00009081150290604051600060405180830381858888f193505050501580156104c1573d6000803e3d6000fd5b5061057d565b60048103610523573373ffffffffffffffffffffffffffffffffffffffff166108fc6703782dace9d900009081150290604051600060405180830381858888f1935050505015801561051d573d6000803e3d6000fd5b5061057c565b6003810361057b573373ffffffffffffffffffffffffffffffffffffffff166108fc67016345785d8a00009081150290604051600060405180830381858888f19350505050158015610579573d6000803e3d6000fd5b505b5b5b5b50565b8280548282559060005260206000209081019282156105c9579160200282015b828111156105c85782518290816105b89190610f77565b50916020019190600101906105a1565b5b5090506105d691906105da565b5090565b5b808211156105fa57600081816105f191906105fe565b506001016105db565b5090565b50805461060a90610c20565b6000825580601f1061061c575061063b565b601f01602090049060005260206000209081019061063a919061063e565b5b50565b5b8082111561065757600081600090555060010161063f565b5090565b6000604051905090565b600080fd5b600080fd5b600080fd5b600080fd5b600080fd5b60008083601f8401126106945761069361066f565b5b8235905067ffffffffffffffff8111156106b1576106b0610674565b5b6020830191508360208202830111156106cd576106cc610679565b5b9250929050565b600080602083850312156106eb576106ea610665565b5b600083013567ffffffffffffffff8111156107095761070861066a565b5b6107158582860161067e565b92509250509250929050565b6000819050919050565b61073481610721565b82525050565b600060208201905061074f600083018461072b565b92915050565b6000601f19601f8301169050919050565b7f4e487b7100000000000000000000000000000000000000000000000000000000600052604160045260246000fd5b61079e82610755565b810181811067ffffffffffffffff821117156107bd576107bc610766565b5b80604052505050565b60006107d061065b565b90506107dc8282610795565b919050565b600067ffffffffffffffff8211156107fc576107fb610766565b5b602082029050602081019050919050565b600080fd5b600067ffffffffffffffff82111561082d5761082c610766565b5b61083682610755565b9050602081019050919050565b82818337600083830152505050565b600061086561086084610812565b6107c6565b9050828152602081018484840111156108815761088061080d565b5b61088c848285610843565b509392505050565b600082601f8301126108a9576108a861066f565b5b81356108b9848260208601610852565b91505092915050565b60006108d56108d0846107e1565b6107c6565b905080838252602082019050602084028301858111156108f8576108f7610679565b5b835b8181101561093f57803567ffffffffffffffff81111561091d5761091c61066f565b5b80860161092a8982610894565b855260208501945050506020810190506108fa565b5050509392505050565b600082601f83011261095e5761095d61066f565b5b813561096e8482602086016108c2565b91505092915050565b60006020828403121561098d5761098c610665565b5b600082013567ffffffffffffffff8111156109ab576109aa61066a565b5b6109b784828501610949565b91505092915050565b60008083601f8401126109d6576109d561066f565b5b8235905067ffffffffffffffff8111156109f3576109f2610674565b5b602083019150836001820283011115610a0f57610a0e610679565b5b9250929050565b600080600060408486031215610a2f57610a2e610665565b5b600084013567ffffffffffffffff811115610a4d57610a4c61066a565b5b610a5986828701610894565b935050602084013567ffffffffffffffff811115610a7a57610a7961066a565b5b610a86868287016109c0565b92509250509250925092565b60008115159050919050565b610aa781610a92565b82525050565b6000602082019050610ac26000830184610a9e565b92915050565b610ad181610721565b8114610adc57600080fd5b50565b600081359050610aee81610ac8565b92915050565b600060208284031215610b0a57610b09610665565b5b6000610b1884828501610adf565b91505092915050565b600081519050919050565b600082825260208201905092915050565b60005b83811015610b5b578082015181840152602081019050610b40565b60008484015250505050565b6000610b7282610b21565b610b7c8185610b2c565b9350610b8c818560208601610b3d565b610b9581610755565b840191505092915050565b60006020820190508181036000830152610bba8184610b67565b905092915050565b7f4e487b7100000000000000000000000000000000000000000000000000000000600052603260045260246000fd5b7f4e487b7100000000000000000000000000000000000000000000000000000000600052602260045260246000fd5b60006002820490506001821680610c3857607f821691505b602082108103610c4b57610c4a610bf1565b5b50919050565b600080fd5b600080fd5b600080fd5b60008083356001602003843603038112610c7d57610c7c610c51565b5b80840192508235915067ffffffffffffffff821115610c9f57610c9e610c56565b5b602083019250600182023603831315610cbb57610cba610c5b565b5b509250929050565b7f4e487b7100000000000000000000000000000000000000000000000000000000600052601160045260246000fd5b6000610cfd82610721565b91507fffffffffffffffffffffffffffffffffffffffffffffffffffffffffffffffff8203610d2f57610d2e610cc3565b5b600182019050919050565b600081905092915050565b6000610d518385610d3a565b9350610d5e838584610843565b82840190509392505050565b6000610d77828486610d45565b91508190509392505050565b6000610d8e82610b21565b610d988185610d3a565b9350610da8818560208601610b3d565b80840191505092915050565b6000610dc08284610d83565b915081905092915050565b60008190508160005260206000209050919050565b60006020601f8301049050919050565b600082821b905092915050565b600060088302610e2d7fffffffffffffffffffffffffffffffffffffffffffffffffffffffffffffffff82610df0565b610e378683610df0565b95508019841693508086168417925050509392505050565b6000819050919050565b6000610e74610e6f610e6a84610721565b610e4f565b610721565b9050919050565b6000819050919050565b610e8e83610e59565b610ea2610e9a82610e7b565b848454610dfd565b825550505050565b600090565b610eb7610eaa565b610ec2818484610e85565b505050565b5b81811015610ee657610edb600082610eaf565b600181019050610ec8565b5050565b601f821115610f2b57610efc81610dcb565b610f0584610de0565b81016020851015610f14578190505b610f28610f2085610de0565b830182610ec7565b50505b505050565b600082821c905092915050565b6000610f4e60001984600802610f30565b1980831691505092915050565b6000610f678383610f3d565b9150826002028217905092915050565b610f8082610b21565b67ffffffffffffffff811115610f9957610f98610766565b5b610fa38254610c20565b610fae828285610eea565b600060209050601f831160018114610fe15760008415610fcf578287015190505b610fd98582610f5b565b865550611041565b601f198416610fef86610dcb565b60005b8281101561101757848901518255600182019150602085019450602081019050610ff2565b868310156110345784890151611030601f891682610f3d565b8355505b6001600288020188555050505b50505050505056fea2646970667358221220e325ff23daa5b0d6237ed37d90323a85b0b1c4aadf48970b82233c698d3332ee64736f6c63430008120033",
					"opcodes": "PUSH1 0x80 PUSH1 0x40 MSTORE CALLVALUE DUP1 ISZERO PUSH2 0x10 JUMPI PUSH1 0x0 DUP1 REVERT JUMPDEST POP CALLER PUSH1 0x1 PUSH1 0x0 PUSH2 0x100 EXP DUP2 SLOAD DUP2 PUSH20 0xFFFFFFFFFFFFFFFFFFFFFFFFFFFFFFFFFFFFFFFF MUL NOT AND SWAP1 DUP4 PUSH20 0xFFFFFFFFFFFFFFFFFFFFFFFFFFFFFFFFFFFFFFFF AND MUL OR SWAP1 SSTORE POP PUSH2 0x107F DUP1 PUSH2 0x61 PUSH1 0x0 CODECOPY PUSH1 0x0 RETURN INVALID PUSH1 0x80 PUSH1 0x40 MSTORE PUSH1 0x4 CALLDATASIZE LT PUSH2 0x4A JUMPI PUSH1 0x0 CALLDATALOAD PUSH1 0xE0 SHR DUP1 PUSH4 0x68C47D19 EQ PUSH2 0x4F JUMPI DUP1 PUSH4 0x699BF15F EQ PUSH2 0x8C JUMPI DUP1 PUSH4 0x6DBF9DEC EQ PUSH2 0xA8 JUMPI DUP1 PUSH4 0xA074DC3D EQ PUSH2 0xD1 JUMPI DUP1 PUSH4 0xA2A0E4C3 EQ PUSH2 0x10E JUMPI JUMPDEST PUSH1 0x0 DUP1 REVERT JUMPDEST CALLVALUE DUP1 ISZERO PUSH2 0x5B JUMPI PUSH1 0x0 DUP1 REVERT JUMPDEST POP PUSH2 0x76 PUSH1 0x4 DUP1 CALLDATASIZE SUB DUP2 ADD SWAP1 PUSH2 0x71 SWAP2 SWAP1 PUSH2 0x6D4 JUMP JUMPDEST PUSH2 0x14B JUMP JUMPDEST PUSH1 0x40 MLOAD PUSH2 0x83 SWAP2 SWAP1 PUSH2 0x73A JUMP JUMPDEST PUSH1 0x40 MLOAD DUP1 SWAP2 SUB SWAP1 RETURN JUMPDEST PUSH2 0xA6 PUSH1 0x4 DUP1 CALLDATASIZE SUB DUP2 ADD SWAP1 PUSH2 0xA1 SWAP2 SWAP1 PUSH2 0x6D4 JUMP JUMPDEST PUSH2 0x264 JUMP JUMPDEST STOP JUMPDEST CALLVALUE DUP1 ISZERO PUSH2 0xB4 JUMPI PUSH1 0x0 DUP1 REVERT JUMPDEST POP PUSH2 0xCF PUSH1 0x4 DUP1 CALLDATASIZE SUB DUP2 ADD SWAP1 PUSH2 0xCA SWAP2 SWAP1 PUSH2 0x977 JUMP JUMPDEST PUSH2 0x293 JUMP JUMPDEST STOP JUMPDEST CALLVALUE DUP1 ISZERO PUSH2 0xDD JUMPI PUSH1 0x0 DUP1 REVERT JUMPDEST POP PUSH2 0xF8 PUSH1 0x4 DUP1 CALLDATASIZE SUB DUP2 ADD SWAP1 PUSH2 0xF3 SWAP2 SWAP1 PUSH2 0xA16 JUMP JUMPDEST PUSH2 0x307 JUMP JUMPDEST PUSH1 0x40 MLOAD PUSH2 0x105 SWAP2 SWAP1 PUSH2 0xAAD JUMP JUMPDEST PUSH1 0x40 MLOAD DUP1 SWAP2 SUB SWAP1 RETURN JUMPDEST CALLVALUE DUP1 ISZERO PUSH2 0x11A JUMPI PUSH1 0x0 DUP1 REVERT JUMPDEST POP PUSH2 0x135 PUSH1 0x4 DUP1 CALLDATASIZE SUB DUP2 ADD SWAP1 PUSH2 0x130 SWAP2 SWAP1 PUSH2 0xAF4 JUMP JUMPDEST PUSH2 0x363 JUMP JUMPDEST PUSH1 0x40 MLOAD PUSH2 0x142 SWAP2 SWAP1 PUSH2 0xBA0 JUMP JUMPDEST PUSH1 0x40 MLOAD DUP1 SWAP2 SUB SWAP1 RETURN JUMPDEST PUSH1 0x0 DUP1 PUSH1 0x0 JUMPDEST PUSH1 0x0 DUP1 SLOAD SWAP1 POP DUP2 LT ISZERO PUSH2 0x259 JUMPI PUSH2 0x232 PUSH1 0x0 DUP3 DUP2 SLOAD DUP2 LT PUSH2 0x175 JUMPI PUSH2 0x174 PUSH2 0xBC2 JUMP JUMPDEST JUMPDEST SWAP1 PUSH1 0x0 MSTORE PUSH1 0x20 PUSH1 0x0 KECCAK256 ADD DUP1 SLOAD PUSH2 0x18A SWAP1 PUSH2 0xC20 JUMP JUMPDEST DUP1 PUSH1 0x1F ADD PUSH1 0x20 DUP1 SWAP2 DIV MUL PUSH1 0x20 ADD PUSH1 0x40 MLOAD SWAP1 DUP2 ADD PUSH1 0x40 MSTORE DUP1 SWAP3 SWAP2 SWAP1 DUP2 DUP2 MSTORE PUSH1 0x20 ADD DUP3 DUP1 SLOAD PUSH2 0x1B6 SWAP1 PUSH2 0xC20 JUMP JUMPDEST DUP1 ISZERO PUSH2 0x203 JUMPI DUP1 PUSH1 0x1F LT PUSH2 0x1D8 JUMPI PUSH2 0x100 DUP1 DUP4 SLOAD DIV MUL DUP4 MSTORE SWAP2 PUSH1 0x20 ADD SWAP2 PUSH2 0x203 JUMP JUMPDEST DUP3 ADD SWAP2 SWAP1 PUSH1 0x0 MSTORE PUSH1 0x20 PUSH1 0x0 KECCAK256 SWAP1 JUMPDEST DUP2 SLOAD DUP2 MSTORE SWAP1 PUSH1 0x1 ADD SWAP1 PUSH1 0x20 ADD DUP1 DUP4 GT PUSH2 0x1E6 JUMPI DUP3 SWAP1 SUB PUSH1 0x1F AND DUP3 ADD SWAP2 JUMPDEST POP POP POP POP POP DUP7 DUP7 DUP5 DUP2 DUP2 LT PUSH2 0x21B JUMPI PUSH2 0x21A PUSH2 0xBC2 JUMP JUMPDEST JUMPDEST SWAP1 POP PUSH1 0x20 MUL DUP2 ADD SWAP1 PUSH2 0x22D SWAP2 SWAP1 PUSH2 0xC60 JUMP JUMPDEST PUSH2 0x307 JUMP JUMPDEST ISZERO PUSH2 0x246 JUMPI DUP2 DUP1 PUSH2 0x242 SWAP1 PUSH2 0xCF2 JUMP JUMPDEST SWAP3 POP POP JUMPDEST DUP1 DUP1 PUSH2 0x251 SWAP1 PUSH2 0xCF2 JUMP JUMPDEST SWAP2 POP POP PUSH2 0x151 JUMP JUMPDEST POP DUP1 SWAP2 POP POP SWAP3 SWAP2 POP POP JUMP JUMPDEST PUSH7 0xB1A2BC2EC50000 CALLVALUE EQ PUSH2 0x277 JUMPI PUSH1 0x0 DUP1 REVERT JUMPDEST PUSH1 0x0 PUSH2 0x283 DUP4 DUP4 PUSH2 0x14B JUMP JUMPDEST SWAP1 POP PUSH2 0x28E DUP2 PUSH2 0x40F JUMP JUMPDEST POP POP POP JUMP JUMPDEST CALLER PUSH20 0xFFFFFFFFFFFFFFFFFFFFFFFFFFFFFFFFFFFFFFFF AND PUSH1 0x1 PUSH1 0x0 SWAP1 SLOAD SWAP1 PUSH2 0x100 EXP SWAP1 DIV PUSH20 0xFFFFFFFFFFFFFFFFFFFFFFFFFFFFFFFFFFFFFFFF AND PUSH20 0xFFFFFFFFFFFFFFFFFFFFFFFFFFFFFFFFFFFFFFFF AND EQ PUSH2 0x2ED JUMPI PUSH1 0x0 DUP1 REVERT JUMPDEST DUP1 PUSH1 0x0 SWAP1 DUP1 MLOAD SWAP1 PUSH1 0x20 ADD SWAP1 PUSH2 0x303 SWAP3 SWAP2 SWAP1 PUSH2 0x581 JUMP JUMPDEST POP POP JUMP JUMPDEST PUSH1 0x0 DUP3 DUP3 PUSH1 0x40 MLOAD PUSH1 0x20 ADD PUSH2 0x31C SWAP3 SWAP2 SWAP1 PUSH2 0xD6A JUMP JUMPDEST PUSH1 0x40 MLOAD PUSH1 0x20 DUP2 DUP4 SUB SUB DUP2 MSTORE SWAP1 PUSH1 0x40 MSTORE DUP1 MLOAD SWAP1 PUSH1 0x20 ADD KECCAK256 DUP5 PUSH1 0x40 MLOAD PUSH1 0x20 ADD PUSH2 0x343 SWAP2 SWAP1 PUSH2 0xDB4 JUMP JUMPDEST PUSH1 0x40 MLOAD PUSH1 0x20 DUP2 DUP4 SUB SUB DUP2 MSTORE SWAP1 PUSH1 0x40 MSTORE DUP1 MLOAD SWAP1 PUSH1 0x20 ADD KECCAK256 EQ SWAP1 POP SWAP4 SWAP3 POP POP POP JUMP JUMPDEST PUSH1 0x0 DUP2 DUP2 SLOAD DUP2 LT PUSH2 0x373 JUMPI PUSH1 0x0 DUP1 REVERT JUMPDEST SWAP1 PUSH1 0x0 MSTORE PUSH1 0x20 PUSH1 0x0 KECCAK256 ADD PUSH1 0x0 SWAP2 POP SWAP1 POP DUP1 SLOAD PUSH2 0x38E SWAP1 PUSH2 0xC20 JUMP JUMPDEST DUP1 PUSH1 0x1F ADD PUSH1 0x20 DUP1 SWAP2 DIV MUL PUSH1 0x20 ADD PUSH1 0x40 MLOAD SWAP1 DUP2 ADD PUSH1 0x40 MSTORE DUP1 SWAP3 SWAP2 SWAP1 DUP2 DUP2 MSTORE PUSH1 0x20 ADD DUP3 DUP1 SLOAD PUSH2 0x3BA SWAP1 PUSH2 0xC20 JUMP JUMPDEST DUP1 ISZERO PUSH2 0x407 JUMPI DUP1 PUSH1 0x1F LT PUSH2 0x3DC JUMPI PUSH2 0x100 DUP1 DUP4 SLOAD DIV MUL DUP4 MSTORE SWAP2 PUSH1 0x20 ADD SWAP2 PUSH2 0x407 JUMP JUMPDEST DUP3 ADD SWAP2 SWAP1 PUSH1 0x0 MSTORE PUSH1 0x20 PUSH1 0x0 KECCAK256 SWAP1 JUMPDEST DUP2 SLOAD DUP2 MSTORE SWAP1 PUSH1 0x1 ADD SWAP1 PUSH1 0x20 ADD DUP1 DUP4 GT PUSH2 0x3EA JUMPI DUP3 SWAP1 SUB PUSH1 0x1F AND DUP3 ADD SWAP2 JUMPDEST POP POP POP POP POP DUP2 JUMP JUMPDEST PUSH1 0x6 DUP2 SUB PUSH2 0x46B JUMPI CALLER PUSH20 0xFFFFFFFFFFFFFFFFFFFFFFFFFFFFFFFFFFFFFFFF AND PUSH2 0x8FC PUSH8 0xDE0B6B3A7640000 SWAP1 DUP2 ISZERO MUL SWAP1 PUSH1 0x40 MLOAD PUSH1 0x0 PUSH1 0x40 MLOAD DUP1 DUP4 SUB DUP2 DUP6 DUP9 DUP9 CALL SWAP4 POP POP POP POP ISZERO DUP1 ISZERO PUSH2 0x465 JUMPI RETURNDATASIZE PUSH1 0x0 DUP1 RETURNDATACOPY RETURNDATASIZE PUSH1 0x0 REVERT JUMPDEST POP PUSH2 0x57E JUMP JUMPDEST PUSH1 0x5 DUP2 SUB PUSH2 0x4C7 JUMPI CALLER PUSH20 0xFFFFFFFFFFFFFFFFFFFFFFFFFFFFFFFFFFFFFFFF AND PUSH2 0x8FC PUSH8 0xA688906BD8B0000 SWAP1 DUP2 ISZERO MUL SWAP1 PUSH1 0x40 MLOAD PUSH1 0x0 PUSH1 0x40 MLOAD DUP1 DUP4 SUB DUP2 DUP6 DUP9 DUP9 CALL SWAP4 POP POP POP POP ISZERO DUP1 ISZERO PUSH2 0x4C1 JUMPI RETURNDATASIZE PUSH1 0x0 DUP1 RETURNDATACOPY RETURNDATASIZE PUSH1 0x0 REVERT JUMPDEST POP PUSH2 0x57D JUMP JUMPDEST PUSH1 0x4 DUP2 SUB PUSH2 0x523 JUMPI CALLER PUSH20 0xFFFFFFFFFFFFFFFFFFFFFFFFFFFFFFFFFFFFFFFF AND PUSH2 0x8FC PUSH8 0x3782DACE9D90000 SWAP1 DUP2 ISZERO MUL SWAP1 PUSH1 0x40 MLOAD PUSH1 0x0 PUSH1 0x40 MLOAD DUP1 DUP4 SUB DUP2 DUP6 DUP9 DUP9 CALL SWAP4 POP POP POP POP ISZERO DUP1 ISZERO PUSH2 0x51D JUMPI RETURNDATASIZE PUSH1 0x0 DUP1 RETURNDATACOPY RETURNDATASIZE PUSH1 0x0 REVERT JUMPDEST POP PUSH2 0x57C JUMP JUMPDEST PUSH1 0x3 DUP2 SUB PUSH2 0x57B JUMPI CALLER PUSH20 0xFFFFFFFFFFFFFFFFFFFFFFFFFFFFFFFFFFFFFFFF AND PUSH2 0x8FC PUSH8 0x16345785D8A0000 SWAP1 DUP2 ISZERO MUL SWAP1 PUSH1 0x40 MLOAD PUSH1 0x0 PUSH1 0x40 MLOAD DUP1 DUP4 SUB DUP2 DUP6 DUP9 DUP9 CALL SWAP4 POP POP POP POP ISZERO DUP1 ISZERO PUSH2 0x579 JUMPI RETURNDATASIZE PUSH1 0x0 DUP1 RETURNDATACOPY RETURNDATASIZE PUSH1 0x0 REVERT JUMPDEST POP JUMPDEST JUMPDEST JUMPDEST JUMPDEST POP JUMP JUMPDEST DUP3 DUP1 SLOAD DUP3 DUP3 SSTORE SWAP1 PUSH1 0x0 MSTORE PUSH1 0x20 PUSH1 0x0 KECCAK256 SWAP1 DUP2 ADD SWAP3 DUP3 ISZERO PUSH2 0x5C9 JUMPI SWAP2 PUSH1 0x20 MUL DUP3 ADD JUMPDEST DUP3 DUP2 GT ISZERO PUSH2 0x5C8 JUMPI DUP3 MLOAD DUP3 SWAP1 DUP2 PUSH2 0x5B8 SWAP2 SWAP1 PUSH2 0xF77 JUMP JUMPDEST POP SWAP2 PUSH1 0x20 ADD SWAP2 SWAP1 PUSH1 0x1 ADD SWAP1 PUSH2 0x5A1 JUMP JUMPDEST JUMPDEST POP SWAP1 POP PUSH2 0x5D6 SWAP2 SWAP1 PUSH2 0x5DA JUMP JUMPDEST POP SWAP1 JUMP JUMPDEST JUMPDEST DUP1 DUP3 GT ISZERO PUSH2 0x5FA JUMPI PUSH1 0x0 DUP2 DUP2 PUSH2 0x5F1 SWAP2 SWAP1 PUSH2 0x5FE JUMP JUMPDEST POP PUSH1 0x1 ADD PUSH2 0x5DB JUMP JUMPDEST POP SWAP1 JUMP JUMPDEST POP DUP1 SLOAD PUSH2 0x60A SWAP1 PUSH2 0xC20 JUMP JUMPDEST PUSH1 0x0 DUP3 SSTORE DUP1 PUSH1 0x1F LT PUSH2 0x61C JUMPI POP PUSH2 0x63B JUMP JUMPDEST PUSH1 0x1F ADD PUSH1 0x20 SWAP1 DIV SWAP1 PUSH1 0x0 MSTORE PUSH1 0x20 PUSH1 0x0 KECCAK256 SWAP1 DUP2 ADD SWAP1 PUSH2 0x63A SWAP2 SWAP1 PUSH2 0x63E JUMP JUMPDEST JUMPDEST POP JUMP JUMPDEST JUMPDEST DUP1 DUP3 GT ISZERO PUSH2 0x657 JUMPI PUSH1 0x0 DUP2 PUSH1 0x0 SWAP1 SSTORE POP PUSH1 0x1 ADD PUSH2 0x63F JUMP JUMPDEST POP SWAP1 JUMP JUMPDEST PUSH1 0x0 PUSH1 0x40 MLOAD SWAP1 POP SWAP1 JUMP JUMPDEST PUSH1 0x0 DUP1 REVERT JUMPDEST PUSH1 0x0 DUP1 REVERT JUMPDEST PUSH1 0x0 DUP1 REVERT JUMPDEST PUSH1 0x0 DUP1 REVERT JUMPDEST PUSH1 0x0 DUP1 REVERT JUMPDEST PUSH1 0x0 DUP1 DUP4 PUSH1 0x1F DUP5 ADD SLT PUSH2 0x694 JUMPI PUSH2 0x693 PUSH2 0x66F JUMP JUMPDEST JUMPDEST DUP3 CALLDATALOAD SWAP1 POP PUSH8 0xFFFFFFFFFFFFFFFF DUP2 GT ISZERO PUSH2 0x6B1 JUMPI PUSH2 0x6B0 PUSH2 0x674 JUMP JUMPDEST JUMPDEST PUSH1 0x20 DUP4 ADD SWAP2 POP DUP4 PUSH1 0x20 DUP3 MUL DUP4 ADD GT ISZERO PUSH2 0x6CD JUMPI PUSH2 0x6CC PUSH2 0x679 JUMP JUMPDEST JUMPDEST SWAP3 POP SWAP3 SWAP1 POP JUMP JUMPDEST PUSH1 0x0 DUP1 PUSH1 0x20 DUP4 DUP6 SUB SLT ISZERO PUSH2 0x6EB JUMPI PUSH2 0x6EA PUSH2 0x665 JUMP JUMPDEST JUMPDEST PUSH1 0x0 DUP4 ADD CALLDATALOAD PUSH8 0xFFFFFFFFFFFFFFFF DUP2 GT ISZERO PUSH2 0x709 JUMPI PUSH2 0x708 PUSH2 0x66A JUMP JUMPDEST JUMPDEST PUSH2 0x715 DUP6 DUP3 DUP7 ADD PUSH2 0x67E JUMP JUMPDEST SWAP3 POP SWAP3 POP POP SWAP3 POP SWAP3 SWAP1 POP JUMP JUMPDEST PUSH1 0x0 DUP2 SWAP1 POP SWAP2 SWAP1 POP JUMP JUMPDEST PUSH2 0x734 DUP2 PUSH2 0x721 JUMP JUMPDEST DUP3 MSTORE POP POP JUMP JUMPDEST PUSH1 0x0 PUSH1 0x20 DUP3 ADD SWAP1 POP PUSH2 0x74F PUSH1 0x0 DUP4 ADD DUP5 PUSH2 0x72B JUMP JUMPDEST SWAP3 SWAP2 POP POP JUMP JUMPDEST PUSH1 0x0 PUSH1 0x1F NOT PUSH1 0x1F DUP4 ADD AND SWAP1 POP SWAP2 SWAP1 POP JUMP JUMPDEST PUSH32 0x4E487B7100000000000000000000000000000000000000000000000000000000 PUSH1 0x0 MSTORE PUSH1 0x41 PUSH1 0x4 MSTORE PUSH1 0x24 PUSH1 0x0 REVERT JUMPDEST PUSH2 0x79E DUP3 PUSH2 0x755 JUMP JUMPDEST DUP2 ADD DUP2 DUP2 LT PUSH8 0xFFFFFFFFFFFFFFFF DUP3 GT OR ISZERO PUSH2 0x7BD JUMPI PUSH2 0x7BC PUSH2 0x766 JUMP JUMPDEST JUMPDEST DUP1 PUSH1 0x40 MSTORE POP POP POP JUMP JUMPDEST PUSH1 0x0 PUSH2 0x7D0 PUSH2 0x65B JUMP JUMPDEST SWAP1 POP PUSH2 0x7DC DUP3 DUP3 PUSH2 0x795 JUMP JUMPDEST SWAP2 SWAP1 POP JUMP JUMPDEST PUSH1 0x0 PUSH8 0xFFFFFFFFFFFFFFFF DUP3 GT ISZERO PUSH2 0x7FC JUMPI PUSH2 0x7FB PUSH2 0x766 JUMP JUMPDEST JUMPDEST PUSH1 0x20 DUP3 MUL SWAP1 POP PUSH1 0x20 DUP2 ADD SWAP1 POP SWAP2 SWAP1 POP JUMP JUMPDEST PUSH1 0x0 DUP1 REVERT JUMPDEST PUSH1 0x0 PUSH8 0xFFFFFFFFFFFFFFFF DUP3 GT ISZERO PUSH2 0x82D JUMPI PUSH2 0x82C PUSH2 0x766 JUMP JUMPDEST JUMPDEST PUSH2 0x836 DUP3 PUSH2 0x755 JUMP JUMPDEST SWAP1 POP PUSH1 0x20 DUP2 ADD SWAP1 POP SWAP2 SWAP1 POP JUMP JUMPDEST DUP3 DUP2 DUP4 CALLDATACOPY PUSH1 0x0 DUP4 DUP4 ADD MSTORE POP POP POP JUMP JUMPDEST PUSH1 0x0 PUSH2 0x865 PUSH2 0x860 DUP5 PUSH2 0x812 JUMP JUMPDEST PUSH2 0x7C6 JUMP JUMPDEST SWAP1 POP DUP3 DUP2 MSTORE PUSH1 0x20 DUP2 ADD DUP5 DUP5 DUP5 ADD GT ISZERO PUSH2 0x881 JUMPI PUSH2 0x880 PUSH2 0x80D JUMP JUMPDEST JUMPDEST PUSH2 0x88C DUP5 DUP3 DUP6 PUSH2 0x843 JUMP JUMPDEST POP SWAP4 SWAP3 POP POP POP JUMP JUMPDEST PUSH1 0x0 DUP3 PUSH1 0x1F DUP4 ADD SLT PUSH2 0x8A9 JUMPI PUSH2 0x8A8 PUSH2 0x66F JUMP JUMPDEST JUMPDEST DUP2 CALLDATALOAD PUSH2 0x8B9 DUP5 DUP3 PUSH1 0x20 DUP7 ADD PUSH2 0x852 JUMP JUMPDEST SWAP2 POP POP SWAP3 SWAP2 POP POP JUMP JUMPDEST PUSH1 0x0 PUSH2 0x8D5 PUSH2 0x8D0 DUP5 PUSH2 0x7E1 JUMP JUMPDEST PUSH2 0x7C6 JUMP JUMPDEST SWAP1 POP DUP1 DUP4 DUP3 MSTORE PUSH1 0x20 DUP3 ADD SWAP1 POP PUSH1 0x20 DUP5 MUL DUP4 ADD DUP6 DUP2 GT ISZERO PUSH2 0x8F8 JUMPI PUSH2 0x8F7 PUSH2 0x679 JUMP JUMPDEST JUMPDEST DUP4 JUMPDEST DUP2 DUP2 LT ISZERO PUSH2 0x93F JUMPI DUP1 CALLDATALOAD PUSH8 0xFFFFFFFFFFFFFFFF DUP2 GT ISZERO PUSH2 0x91D JUMPI PUSH2 0x91C PUSH2 0x66F JUMP JUMPDEST JUMPDEST DUP1 DUP7 ADD PUSH2 0x92A DUP10 DUP3 PUSH2 0x894 JUMP JUMPDEST DUP6 MSTORE PUSH1 0x20 DUP6 ADD SWAP5 POP POP POP PUSH1 0x20 DUP2 ADD SWAP1 POP PUSH2 0x8FA JUMP JUMPDEST POP POP POP SWAP4 SWAP3 POP POP POP JUMP JUMPDEST PUSH1 0x0 DUP3 PUSH1 0x1F DUP4 ADD SLT PUSH2 0x95E JUMPI PUSH2 0x95D PUSH2 0x66F JUMP JUMPDEST JUMPDEST DUP2 CALLDATALOAD PUSH2 0x96E DUP5 DUP3 PUSH1 0x20 DUP7 ADD PUSH2 0x8C2 JUMP JUMPDEST SWAP2 POP POP SWAP3 SWAP2 POP POP JUMP JUMPDEST PUSH1 0x0 PUSH1 0x20 DUP3 DUP5 SUB SLT ISZERO PUSH2 0x98D JUMPI PUSH2 0x98C PUSH2 0x665 JUMP JUMPDEST JUMPDEST PUSH1 0x0 DUP3 ADD CALLDATALOAD PUSH8 0xFFFFFFFFFFFFFFFF DUP2 GT ISZERO PUSH2 0x9AB JUMPI PUSH2 0x9AA PUSH2 0x66A JUMP JUMPDEST JUMPDEST PUSH2 0x9B7 DUP5 DUP3 DUP6 ADD PUSH2 0x949 JUMP JUMPDEST SWAP2 POP POP SWAP3 SWAP2 POP POP JUMP JUMPDEST PUSH1 0x0 DUP1 DUP4 PUSH1 0x1F DUP5 ADD SLT PUSH2 0x9D6 JUMPI PUSH2 0x9D5 PUSH2 0x66F JUMP JUMPDEST JUMPDEST DUP3 CALLDATALOAD SWAP1 POP PUSH8 0xFFFFFFFFFFFFFFFF DUP2 GT ISZERO PUSH2 0x9F3 JUMPI PUSH2 0x9F2 PUSH2 0x674 JUMP JUMPDEST JUMPDEST PUSH1 0x20 DUP4 ADD SWAP2 POP DUP4 PUSH1 0x1 DUP3 MUL DUP4 ADD GT ISZERO PUSH2 0xA0F JUMPI PUSH2 0xA0E PUSH2 0x679 JUMP JUMPDEST JUMPDEST SWAP3 POP SWAP3 SWAP1 POP JUMP JUMPDEST PUSH1 0x0 DUP1 PUSH1 0x0 PUSH1 0x40 DUP5 DUP7 SUB SLT ISZERO PUSH2 0xA2F JUMPI PUSH2 0xA2E PUSH2 0x665 JUMP JUMPDEST JUMPDEST PUSH1 0x0 DUP5 ADD CALLDATALOAD PUSH8 0xFFFFFFFFFFFFFFFF DUP2 GT ISZERO PUSH2 0xA4D JUMPI PUSH2 0xA4C PUSH2 0x66A JUMP JUMPDEST JUMPDEST PUSH2 0xA59 DUP7 DUP3 DUP8 ADD PUSH2 0x894 JUMP JUMPDEST SWAP4 POP POP PUSH1 0x20 DUP5 ADD CALLDATALOAD PUSH8 0xFFFFFFFFFFFFFFFF DUP2 GT ISZERO PUSH2 0xA7A JUMPI PUSH2 0xA79 PUSH2 0x66A JUMP JUMPDEST JUMPDEST PUSH2 0xA86 DUP7 DUP3 DUP8 ADD PUSH2 0x9C0 JUMP JUMPDEST SWAP3 POP SWAP3 POP POP SWAP3 POP SWAP3 POP SWAP3 JUMP JUMPDEST PUSH1 0x0 DUP2 ISZERO ISZERO SWAP1 POP SWAP2 SWAP1 POP JUMP JUMPDEST PUSH2 0xAA7 DUP2 PUSH2 0xA92 JUMP JUMPDEST DUP3 MSTORE POP POP JUMP JUMPDEST PUSH1 0x0 PUSH1 0x20 DUP3 ADD SWAP1 POP PUSH2 0xAC2 PUSH1 0x0 DUP4 ADD DUP5 PUSH2 0xA9E JUMP JUMPDEST SWAP3 SWAP2 POP POP JUMP JUMPDEST PUSH2 0xAD1 DUP2 PUSH2 0x721 JUMP JUMPDEST DUP2 EQ PUSH2 0xADC JUMPI PUSH1 0x0 DUP1 REVERT JUMPDEST POP JUMP JUMPDEST PUSH1 0x0 DUP2 CALLDATALOAD SWAP1 POP PUSH2 0xAEE DUP2 PUSH2 0xAC8 JUMP JUMPDEST SWAP3 SWAP2 POP POP JUMP JUMPDEST PUSH1 0x0 PUSH1 0x20 DUP3 DUP5 SUB SLT ISZERO PUSH2 0xB0A JUMPI PUSH2 0xB09 PUSH2 0x665 JUMP JUMPDEST JUMPDEST PUSH1 0x0 PUSH2 0xB18 DUP5 DUP3 DUP6 ADD PUSH2 0xADF JUMP JUMPDEST SWAP2 POP POP SWAP3 SWAP2 POP POP JUMP JUMPDEST PUSH1 0x0 DUP2 MLOAD SWAP1 POP SWAP2 SWAP1 POP JUMP JUMPDEST PUSH1 0x0 DUP3 DUP3 MSTORE PUSH1 0x20 DUP3 ADD SWAP1 POP SWAP3 SWAP2 POP POP JUMP JUMPDEST PUSH1 0x0 JUMPDEST DUP4 DUP2 LT ISZERO PUSH2 0xB5B JUMPI DUP1 DUP3 ADD MLOAD DUP2 DUP5 ADD MSTORE PUSH1 0x20 DUP2 ADD SWAP1 POP PUSH2 0xB40 JUMP JUMPDEST PUSH1 0x0 DUP5 DUP5 ADD MSTORE POP POP POP POP JUMP JUMPDEST PUSH1 0x0 PUSH2 0xB72 DUP3 PUSH2 0xB21 JUMP JUMPDEST PUSH2 0xB7C DUP2 DUP6 PUSH2 0xB2C JUMP JUMPDEST SWAP4 POP PUSH2 0xB8C DUP2 DUP6 PUSH1 0x20 DUP7 ADD PUSH2 0xB3D JUMP JUMPDEST PUSH2 0xB95 DUP2 PUSH2 0x755 JUMP JUMPDEST DUP5 ADD SWAP2 POP POP SWAP3 SWAP2 POP POP JUMP JUMPDEST PUSH1 0x0 PUSH1 0x20 DUP3 ADD SWAP1 POP DUP2 DUP2 SUB PUSH1 0x0 DUP4 ADD MSTORE PUSH2 0xBBA DUP2 DUP5 PUSH2 0xB67 JUMP JUMPDEST SWAP1 POP SWAP3 SWAP2 POP POP JUMP JUMPDEST PUSH32 0x4E487B7100000000000000000000000000000000000000000000000000000000 PUSH1 0x0 MSTORE PUSH1 0x32 PUSH1 0x4 MSTORE PUSH1 0x24 PUSH1 0x0 REVERT JUMPDEST PUSH32 0x4E487B7100000000000000000000000000000000000000000000000000000000 PUSH1 0x0 MSTORE PUSH1 0x22 PUSH1 0x4 MSTORE PUSH1 0x24 PUSH1 0x0 REVERT JUMPDEST PUSH1 0x0 PUSH1 0x2 DUP3 DIV SWAP1 POP PUSH1 0x1 DUP3 AND DUP1 PUSH2 0xC38 JUMPI PUSH1 0x7F DUP3 AND SWAP2 POP JUMPDEST PUSH1 0x20 DUP3 LT DUP2 SUB PUSH2 0xC4B JUMPI PUSH2 0xC4A PUSH2 0xBF1 JUMP JUMPDEST JUMPDEST POP SWAP2 SWAP1 POP JUMP JUMPDEST PUSH1 0x0 DUP1 REVERT JUMPDEST PUSH1 0x0 DUP1 REVERT JUMPDEST PUSH1 0x0 DUP1 REVERT JUMPDEST PUSH1 0x0 DUP1 DUP4 CALLDATALOAD PUSH1 0x1 PUSH1 0x20 SUB DUP5 CALLDATASIZE SUB SUB DUP2 SLT PUSH2 0xC7D JUMPI PUSH2 0xC7C PUSH2 0xC51 JUMP JUMPDEST JUMPDEST DUP1 DUP5 ADD SWAP3 POP DUP3 CALLDATALOAD SWAP2 POP PUSH8 0xFFFFFFFFFFFFFFFF DUP3 GT ISZERO PUSH2 0xC9F JUMPI PUSH2 0xC9E PUSH2 0xC56 JUMP JUMPDEST JUMPDEST PUSH1 0x20 DUP4 ADD SWAP3 POP PUSH1 0x1 DUP3 MUL CALLDATASIZE SUB DUP4 SGT ISZERO PUSH2 0xCBB JUMPI PUSH2 0xCBA PUSH2 0xC5B JUMP JUMPDEST JUMPDEST POP SWAP3 POP SWAP3 SWAP1 POP JUMP JUMPDEST PUSH32 0x4E487B7100000000000000000000000000000000000000000000000000000000 PUSH1 0x0 MSTORE PUSH1 0x11 PUSH1 0x4 MSTORE PUSH1 0x24 PUSH1 0x0 REVERT JUMPDEST PUSH1 0x0 PUSH2 0xCFD DUP3 PUSH2 0x721 JUMP JUMPDEST SWAP2 POP PUSH32 0xFFFFFFFFFFFFFFFFFFFFFFFFFFFFFFFFFFFFFFFFFFFFFFFFFFFFFFFFFFFFFFFF DUP3 SUB PUSH2 0xD2F JUMPI PUSH2 0xD2E PUSH2 0xCC3 JUMP JUMPDEST JUMPDEST PUSH1 0x1 DUP3 ADD SWAP1 POP SWAP2 SWAP1 POP JUMP JUMPDEST PUSH1 0x0 DUP2 SWAP1 POP SWAP3 SWAP2 POP POP JUMP JUMPDEST PUSH1 0x0 PUSH2 0xD51 DUP4 DUP6 PUSH2 0xD3A JUMP JUMPDEST SWAP4 POP PUSH2 0xD5E DUP4 DUP6 DUP5 PUSH2 0x843 JUMP JUMPDEST DUP3 DUP5 ADD SWAP1 POP SWAP4 SWAP3 POP POP POP JUMP JUMPDEST PUSH1 0x0 PUSH2 0xD77 DUP3 DUP5 DUP7 PUSH2 0xD45 JUMP JUMPDEST SWAP2 POP DUP2 SWAP1 POP SWAP4 SWAP3 POP POP POP JUMP JUMPDEST PUSH1 0x0 PUSH2 0xD8E DUP3 PUSH2 0xB21 JUMP JUMPDEST PUSH2 0xD98 DUP2 DUP6 PUSH2 0xD3A JUMP JUMPDEST SWAP4 POP PUSH2 0xDA8 DUP2 DUP6 PUSH1 0x20 DUP7 ADD PUSH2 0xB3D JUMP JUMPDEST DUP1 DUP5 ADD SWAP2 POP POP SWAP3 SWAP2 POP POP JUMP JUMPDEST PUSH1 0x0 PUSH2 0xDC0 DUP3 DUP5 PUSH2 0xD83 JUMP JUMPDEST SWAP2 POP DUP2 SWAP1 POP SWAP3 SWAP2 POP POP JUMP JUMPDEST PUSH1 0x0 DUP2 SWAP1 POP DUP2 PUSH1 0x0 MSTORE PUSH1 0x20 PUSH1 0x0 KECCAK256 SWAP1 POP SWAP2 SWAP1 POP JUMP JUMPDEST PUSH1 0x0 PUSH1 0x20 PUSH1 0x1F DUP4 ADD DIV SWAP1 POP SWAP2 SWAP1 POP JUMP JUMPDEST PUSH1 0x0 DUP3 DUP3 SHL SWAP1 POP SWAP3 SWAP2 POP POP JUMP JUMPDEST PUSH1 0x0 PUSH1 0x8 DUP4 MUL PUSH2 0xE2D PUSH32 0xFFFFFFFFFFFFFFFFFFFFFFFFFFFFFFFFFFFFFFFFFFFFFFFFFFFFFFFFFFFFFFFF DUP3 PUSH2 0xDF0 JUMP JUMPDEST PUSH2 0xE37 DUP7 DUP4 PUSH2 0xDF0 JUMP JUMPDEST SWAP6 POP DUP1 NOT DUP5 AND SWAP4 POP DUP1 DUP7 AND DUP5 OR SWAP3 POP POP POP SWAP4 SWAP3 POP POP POP JUMP JUMPDEST PUSH1 0x0 DUP2 SWAP1 POP SWAP2 SWAP1 POP JUMP JUMPDEST PUSH1 0x0 PUSH2 0xE74 PUSH2 0xE6F PUSH2 0xE6A DUP5 PUSH2 0x721 JUMP JUMPDEST PUSH2 0xE4F JUMP JUMPDEST PUSH2 0x721 JUMP JUMPDEST SWAP1 POP SWAP2 SWAP1 POP JUMP JUMPDEST PUSH1 0x0 DUP2 SWAP1 POP SWAP2 SWAP1 POP JUMP JUMPDEST PUSH2 0xE8E DUP4 PUSH2 0xE59 JUMP JUMPDEST PUSH2 0xEA2 PUSH2 0xE9A DUP3 PUSH2 0xE7B JUMP JUMPDEST DUP5 DUP5 SLOAD PUSH2 0xDFD JUMP JUMPDEST DUP3 SSTORE POP POP POP POP JUMP JUMPDEST PUSH1 0x0 SWAP1 JUMP JUMPDEST PUSH2 0xEB7 PUSH2 0xEAA JUMP JUMPDEST PUSH2 0xEC2 DUP2 DUP5 DUP5 PUSH2 0xE85 JUMP JUMPDEST POP POP POP JUMP JUMPDEST JUMPDEST DUP2 DUP2 LT ISZERO PUSH2 0xEE6 JUMPI PUSH2 0xEDB PUSH1 0x0 DUP3 PUSH2 0xEAF JUMP JUMPDEST PUSH1 0x1 DUP2 ADD SWAP1 POP PUSH2 0xEC8 JUMP JUMPDEST POP POP JUMP JUMPDEST PUSH1 0x1F DUP3 GT ISZERO PUSH2 0xF2B JUMPI PUSH2 0xEFC DUP2 PUSH2 0xDCB JUMP JUMPDEST PUSH2 0xF05 DUP5 PUSH2 0xDE0 JUMP JUMPDEST DUP2 ADD PUSH1 0x20 DUP6 LT ISZERO PUSH2 0xF14 JUMPI DUP2 SWAP1 POP JUMPDEST PUSH2 0xF28 PUSH2 0xF20 DUP6 PUSH2 0xDE0 JUMP JUMPDEST DUP4 ADD DUP3 PUSH2 0xEC7 JUMP JUMPDEST POP POP JUMPDEST POP POP POP JUMP JUMPDEST PUSH1 0x0 DUP3 DUP3 SHR SWAP1 POP SWAP3 SWAP2 POP POP JUMP JUMPDEST PUSH1 0x0 PUSH2 0xF4E PUSH1 0x0 NOT DUP5 PUSH1 0x8 MUL PUSH2 0xF30 JUMP JUMPDEST NOT DUP1 DUP4 AND SWAP2 POP POP SWAP3 SWAP2 POP POP JUMP JUMPDEST PUSH1 0x0 PUSH2 0xF67 DUP4 DUP4 PUSH2 0xF3D JUMP JUMPDEST SWAP2 POP DUP3 PUSH1 0x2 MUL DUP3 OR SWAP1 POP SWAP3 SWAP2 POP POP JUMP JUMPDEST PUSH2 0xF80 DUP3 PUSH2 0xB21 JUMP JUMPDEST PUSH8 0xFFFFFFFFFFFFFFFF DUP2 GT ISZERO PUSH2 0xF99 JUMPI PUSH2 0xF98 PUSH2 0x766 JUMP JUMPDEST JUMPDEST PUSH2 0xFA3 DUP3 SLOAD PUSH2 0xC20 JUMP JUMPDEST PUSH2 0xFAE DUP3 DUP3 DUP6 PUSH2 0xEEA JUMP JUMPDEST PUSH1 0x0 PUSH1 0x20 SWAP1 POP PUSH1 0x1F DUP4 GT PUSH1 0x1 DUP2 EQ PUSH2 0xFE1 JUMPI PUSH1 0x0 DUP5 ISZERO PUSH2 0xFCF JUMPI DUP3 DUP8 ADD MLOAD SWAP1 POP JUMPDEST PUSH2 0xFD9 DUP6 DUP3 PUSH2 0xF5B JUMP JUMPDEST DUP7 SSTORE POP PUSH2 0x1041 JUMP JUMPDEST PUSH1 0x1F NOT DUP5 AND PUSH2 0xFEF DUP7 PUSH2 0xDCB JUMP JUMPDEST PUSH1 0x0 JUMPDEST DUP3 DUP2 LT ISZERO PUSH2 0x1017 JUMPI DUP5 DUP10 ADD MLOAD DUP3 SSTORE PUSH1 0x1 DUP3 ADD SWAP2 POP PUSH1 0x20 DUP6 ADD SWAP5 POP PUSH1 0x20 DUP2 ADD SWAP1 POP PUSH2 0xFF2 JUMP JUMPDEST DUP7 DUP4 LT ISZERO PUSH2 0x1034 JUMPI DUP5 DUP10 ADD MLOAD PUSH2 0x1030 PUSH1 0x1F DUP10 AND DUP3 PUSH2 0xF3D JUMP JUMPDEST DUP4 SSTORE POP JUMPDEST PUSH1 0x1 PUSH1 0x2 DUP9 MUL ADD DUP9 SSTORE POP POP POP JUMPDEST POP POP POP POP POP POP JUMP INVALID LOG2 PUSH5 0x6970667358 0x22 SLT KECCAK256 0xE3 0x25 SELFDESTRUCT 0x23 0xDA 0xA5 0xB0 0xD6 0x23 PUSH31 0xD37D90323A85B0B1C4AADF48970B82233C698D3332EE64736F6C6343000812 STOP CALLER "
				},
				"gasEstimates": {
					"creation": {
						"codeDepositCost": "844600",
						"executionCost": "25143",
						"totalCost": "869743"
					},
					"external": {
						"isSameLetter(string[])": "infinite",
						"letterCompare(string,string)": "infinite",
						"letters(uint256)": "infinite",
						"setLotto(string[])": "infinite",
						"setTargetNumber(string[])": "infinite"
					},
					"internal": {
						"getPrize(uint256)": "infinite"
					}
				},
				"methodIdentifiers": {
					"isSameLetter(string[])": "68c47d19",
					"letterCompare(string,string)": "a074dc3d",
					"letters(uint256)": "a2a0e4c3",
					"setLotto(string[])": "699bf15f",
					"setTargetNumber(string[])": "6dbf9dec"
				}
			},
			"storageLayout": {
				"storage": [
					{
						"astId": 215,
						"contract": "contracts-quiz/230530-QUIZ8-answer.sol:Q8_2",
						"label": "letters",
						"offset": 0,
						"slot": "0",
						"type": "t_array(t_string_storage)dyn_storage"
					},
					{
						"astId": 217,
						"contract": "contracts-quiz/230530-QUIZ8-answer.sol:Q8_2",
						"label": "owner",
						"offset": 0,
						"slot": "1",
						"type": "t_address"
					}
				],
				"types": {
					"t_address": {
						"encoding": "inplace",
						"label": "address",
						"numberOfBytes": "20"
					},
					"t_array(t_string_storage)dyn_storage": {
						"base": "t_string_storage",
						"encoding": "dynamic_array",
						"label": "string[]",
						"numberOfBytes": "32"
					},
					"t_string_storage": {
						"encoding": "bytes",
						"label": "string",
						"numberOfBytes": "32"
					}
				}
			},
			"userdoc": {
				"kind": "user",
				"methods": {},
				"version": 1
			}
		}
	}
}