{
	"contracts-test/230518-test1.sol": {
		"QUIZ6": {
			"abi": [
				{
					"inputs": [
						{
							"internalType": "string",
							"name": "_title",
							"type": "string"
						},
						{
							"internalType": "string",
							"name": "_content",
							"type": "string"
						}
					],
					"name": "agendaPropose",
					"outputs": [],
					"stateMutability": "nonpayable",
					"type": "function"
				},
				{
					"inputs": [
						{
							"internalType": "uint256",
							"name": "",
							"type": "uint256"
						}
					],
					"name": "agendas",
					"outputs": [
						{
							"internalType": "uint256",
							"name": "number",
							"type": "uint256"
						},
						{
							"internalType": "string",
							"name": "title",
							"type": "string"
						},
						{
							"internalType": "string",
							"name": "content",
							"type": "string"
						},
						{
							"internalType": "address",
							"name": "proposer",
							"type": "address"
						},
						{
							"internalType": "uint256",
							"name": "supporters",
							"type": "uint256"
						},
						{
							"internalType": "uint256",
							"name": "dissenters",
							"type": "uint256"
						}
					],
					"stateMutability": "view",
					"type": "function"
				},
				{
					"inputs": [
						{
							"internalType": "string",
							"name": "_title",
							"type": "string"
						}
					],
					"name": "getAllAgenda",
					"outputs": [
						{
							"components": [
								{
									"internalType": "uint256",
									"name": "number",
									"type": "uint256"
								},
								{
									"internalType": "string",
									"name": "title",
									"type": "string"
								},
								{
									"internalType": "string",
									"name": "content",
									"type": "string"
								},
								{
									"internalType": "address",
									"name": "proposer",
									"type": "address"
								},
								{
									"internalType": "uint256",
									"name": "supporters",
									"type": "uint256"
								},
								{
									"internalType": "uint256",
									"name": "dissenters",
									"type": "uint256"
								}
							],
							"internalType": "struct QUIZ6.Agenda",
							"name": "",
							"type": "tuple"
						}
					],
					"stateMutability": "view",
					"type": "function"
				}
			],
			"devdoc": {
				"kind": "dev",
				"methods": {},
				"version": 1
			},
			"evm": {
				"assembly": "    /* \"contracts-test/230518-test1.sol\":63:1707  contract QUIZ6 {... */\n  mstore(0x40, 0x80)\n  callvalue\n  dup1\n  iszero\n  tag_1\n  jumpi\n  0x00\n  dup1\n  revert\ntag_1:\n  pop\n  dataSize(sub_0)\n  dup1\n  dataOffset(sub_0)\n  0x00\n  codecopy\n  0x00\n  return\nstop\n\nsub_0: assembly {\n        /* \"contracts-test/230518-test1.sol\":63:1707  contract QUIZ6 {... */\n      mstore(0x40, 0x80)\n      callvalue\n      dup1\n      iszero\n      tag_1\n      jumpi\n      0x00\n      dup1\n      revert\n    tag_1:\n      pop\n      jumpi(tag_2, lt(calldatasize, 0x04))\n      shr(0xe0, calldataload(0x00))\n      dup1\n      0x3c4a819c\n      eq\n      tag_3\n      jumpi\n      dup1\n      0x74e8e340\n      eq\n      tag_4\n      jumpi\n      dup1\n      0xc2e0a538\n      eq\n      tag_5\n      jumpi\n    tag_2:\n      0x00\n      dup1\n      revert\n        /* \"contracts-test/230518-test1.sol\":498:521  Agenda[] public agendas */\n    tag_3:\n      tag_6\n      0x04\n      dup1\n      calldatasize\n      sub\n      dup2\n      add\n      swap1\n      tag_7\n      swap2\n      swap1\n      tag_8\n      jump\t// in\n    tag_7:\n      tag_9\n      jump\t// in\n    tag_6:\n      mload(0x40)\n      tag_10\n      swap7\n      swap6\n      swap5\n      swap4\n      swap3\n      swap2\n      swap1\n      tag_11\n      jump\t// in\n    tag_10:\n      mload(0x40)\n      dup1\n      swap2\n      sub\n      swap1\n      return\n        /* \"contracts-test/230518-test1.sol\":1168:1426  function agendaPropose(string memory _title, string memory _content) public {... */\n    tag_4:\n      tag_12\n      0x04\n      dup1\n      calldatasize\n      sub\n      dup2\n      add\n      swap1\n      tag_13\n      swap2\n      swap1\n      tag_14\n      jump\t// in\n    tag_13:\n      tag_15\n      jump\t// in\n    tag_12:\n      stop\n        /* \"contracts-test/230518-test1.sol\":1582:1705  function getAllAgenda(string memory _title) public view returns(Agenda memory) {... */\n    tag_5:\n      tag_16\n      0x04\n      dup1\n      calldatasize\n      sub\n      dup2\n      add\n      swap1\n      tag_17\n      swap2\n      swap1\n      tag_18\n      jump\t// in\n    tag_17:\n      tag_19\n      jump\t// in\n    tag_16:\n      mload(0x40)\n      tag_20\n      swap2\n      swap1\n      tag_21\n      jump\t// in\n    tag_20:\n      mload(0x40)\n      dup1\n      swap2\n      sub\n      swap1\n      return\n        /* \"contracts-test/230518-test1.sol\":498:521  Agenda[] public agendas */\n    tag_9:\n      0x01\n      dup2\n      dup2\n      sload\n      dup2\n      lt\n      tag_22\n      jumpi\n      0x00\n      dup1\n      revert\n    tag_22:\n      swap1\n      0x00\n      mstore\n      keccak256(0x00, 0x20)\n      swap1\n      0x06\n      mul\n      add\n      0x00\n      swap2\n      pop\n      swap1\n      pop\n      dup1\n      0x00\n      add\n      sload\n      swap1\n      dup1\n      0x01\n      add\n      dup1\n      sload\n      tag_24\n      swap1\n      tag_25\n      jump\t// in\n    tag_24:\n      dup1\n      0x1f\n      add\n      0x20\n      dup1\n      swap2\n      div\n      mul\n      0x20\n      add\n      mload(0x40)\n      swap1\n      dup2\n      add\n      0x40\n      mstore\n      dup1\n      swap3\n      swap2\n      swap1\n      dup2\n      dup2\n      mstore\n      0x20\n      add\n      dup3\n      dup1\n      sload\n      tag_26\n      swap1\n      tag_25\n      jump\t// in\n    tag_26:\n      dup1\n      iszero\n      tag_27\n      jumpi\n      dup1\n      0x1f\n      lt\n      tag_28\n      jumpi\n      0x0100\n      dup1\n      dup4\n      sload\n      div\n      mul\n      dup4\n      mstore\n      swap2\n      0x20\n      add\n      swap2\n      jump(tag_27)\n    tag_28:\n      dup3\n      add\n      swap2\n      swap1\n      0x00\n      mstore\n      keccak256(0x00, 0x20)\n      swap1\n    tag_29:\n      dup2\n      sload\n      dup2\n      mstore\n      swap1\n      0x01\n      add\n      swap1\n      0x20\n      add\n      dup1\n      dup4\n      gt\n      tag_29\n      jumpi\n      dup3\n      swap1\n      sub\n      0x1f\n      and\n      dup3\n      add\n      swap2\n    tag_27:\n      pop\n      pop\n      pop\n      pop\n      pop\n      swap1\n      dup1\n      0x02\n      add\n      dup1\n      sload\n      tag_30\n      swap1\n      tag_25\n      jump\t// in\n    tag_30:\n      dup1\n      0x1f\n      add\n      0x20\n      dup1\n      swap2\n      div\n      mul\n      0x20\n      add\n      mload(0x40)\n      swap1\n      dup2\n      add\n      0x40\n      mstore\n      dup1\n      swap3\n      swap2\n      swap1\n      dup2\n      dup2\n      mstore\n      0x20\n      add\n      dup3\n      dup1\n      sload\n      tag_31\n      swap1\n      tag_25\n      jump\t// in\n    tag_31:\n      dup1\n      iszero\n      tag_32\n      jumpi\n      dup1\n      0x1f\n      lt\n      tag_33\n      jumpi\n      0x0100\n      dup1\n      dup4\n      sload\n      div\n      mul\n      dup4\n      mstore\n      swap2\n      0x20\n      add\n      swap2\n      jump(tag_32)\n    tag_33:\n      dup3\n      add\n      swap2\n      swap1\n      0x00\n      mstore\n      keccak256(0x00, 0x20)\n      swap1\n    tag_34:\n      dup2\n      sload\n      dup2\n      mstore\n      swap1\n      0x01\n      add\n      swap1\n      0x20\n      add\n      dup1\n      dup4\n      gt\n      tag_34\n      jumpi\n      dup3\n      swap1\n      sub\n      0x1f\n      and\n      dup3\n      add\n      swap2\n    tag_32:\n      pop\n      pop\n      pop\n      pop\n      pop\n      swap1\n      dup1\n      0x03\n      add\n      0x00\n      swap1\n      sload\n      swap1\n      0x0100\n      exp\n      swap1\n      div\n      0xffffffffffffffffffffffffffffffffffffffff\n      and\n      swap1\n      dup1\n      0x04\n      add\n      sload\n      swap1\n      dup1\n      0x05\n      add\n      sload\n      swap1\n      pop\n      dup7\n      jump\t// out\n        /* \"contracts-test/230518-test1.sol\":1168:1426  function agendaPropose(string memory _title, string memory _content) public {... */\n    tag_15:\n        /* \"contracts-test/230518-test1.sol\":1254:1261  agendas */\n      0x01\n        /* \"contracts-test/230518-test1.sol\":1267:1327  Agenda(agendas.length+1, _title, _content, msg.sender, 0, 0) */\n      mload(0x40)\n      dup1\n      0xc0\n      add\n      0x40\n      mstore\n      dup1\n        /* \"contracts-test/230518-test1.sol\":1289:1290  1 */\n      0x01\n        /* \"contracts-test/230518-test1.sol\":1274:1281  agendas */\n      dup1\n        /* \"contracts-test/230518-test1.sol\":1274:1288  agendas.length */\n      dup1\n      sload\n      swap1\n      pop\n        /* \"contracts-test/230518-test1.sol\":1274:1290  agendas.length+1 */\n      tag_36\n      swap2\n      swap1\n      tag_37\n      jump\t// in\n    tag_36:\n        /* \"contracts-test/230518-test1.sol\":1267:1327  Agenda(agendas.length+1, _title, _content, msg.sender, 0, 0) */\n      dup2\n      mstore\n      0x20\n      add\n        /* \"contracts-test/230518-test1.sol\":1292:1298  _title */\n      dup5\n        /* \"contracts-test/230518-test1.sol\":1267:1327  Agenda(agendas.length+1, _title, _content, msg.sender, 0, 0) */\n      dup2\n      mstore\n      0x20\n      add\n        /* \"contracts-test/230518-test1.sol\":1300:1308  _content */\n      dup4\n        /* \"contracts-test/230518-test1.sol\":1267:1327  Agenda(agendas.length+1, _title, _content, msg.sender, 0, 0) */\n      dup2\n      mstore\n      0x20\n      add\n        /* \"contracts-test/230518-test1.sol\":1310:1320  msg.sender */\n      caller\n        /* \"contracts-test/230518-test1.sol\":1267:1327  Agenda(agendas.length+1, _title, _content, msg.sender, 0, 0) */\n      0xffffffffffffffffffffffffffffffffffffffff\n      and\n      dup2\n      mstore\n      0x20\n      add\n        /* \"contracts-test/230518-test1.sol\":1322:1323  0 */\n      0x00\n        /* \"contracts-test/230518-test1.sol\":1267:1327  Agenda(agendas.length+1, _title, _content, msg.sender, 0, 0) */\n      dup2\n      mstore\n      0x20\n      add\n        /* \"contracts-test/230518-test1.sol\":1325:1326  0 */\n      0x00\n        /* \"contracts-test/230518-test1.sol\":1267:1327  Agenda(agendas.length+1, _title, _content, msg.sender, 0, 0) */\n      dup2\n      mstore\n      pop\n        /* \"contracts-test/230518-test1.sol\":1254:1328  agendas.push(Agenda(agendas.length+1, _title, _content, msg.sender, 0, 0)) */\n      swap1\n      dup1\n      0x01\n      dup2\n      sload\n      add\n      dup1\n      dup3\n      sstore\n      dup1\n      swap2\n      pop\n      pop\n      0x01\n      swap1\n      sub\n      swap1\n      0x00\n      mstore\n      keccak256(0x00, 0x20)\n      swap1\n      0x06\n      mul\n      add\n      0x00\n      swap1\n      swap2\n      swap1\n      swap2\n      swap1\n      swap2\n      pop\n      0x00\n      dup3\n      add\n      mload\n      dup2\n      0x00\n      add\n      sstore\n      0x20\n      dup3\n      add\n      mload\n      dup2\n      0x01\n      add\n      swap1\n      dup2\n      tag_39\n      swap2\n      swap1\n      tag_40\n      jump\t// in\n    tag_39:\n      pop\n      0x40\n      dup3\n      add\n      mload\n      dup2\n      0x02\n      add\n      swap1\n      dup2\n      tag_41\n      swap2\n      swap1\n      tag_40\n      jump\t// in\n    tag_41:\n      pop\n      0x60\n      dup3\n      add\n      mload\n      dup2\n      0x03\n      add\n      exp(0x0100, 0x00)\n      dup2\n      sload\n      dup2\n      0xffffffffffffffffffffffffffffffffffffffff\n      mul\n      not\n      and\n      swap1\n      dup4\n      0xffffffffffffffffffffffffffffffffffffffff\n      and\n      mul\n      or\n      swap1\n      sstore\n      pop\n      0x80\n      dup3\n      add\n      mload\n      dup2\n      0x04\n      add\n      sstore\n      0xa0\n      dup3\n      add\n      mload\n      dup2\n      0x05\n      add\n      sstore\n      pop\n      pop\n        /* \"contracts-test/230518-test1.sol\":1361:1419  Agenda(agendas.length, _title, _content, msg.sender, 0, 0) */\n      mload(0x40)\n      dup1\n      0xc0\n      add\n      0x40\n      mstore\n      dup1\n        /* \"contracts-test/230518-test1.sol\":1368:1375  agendas */\n      0x01\n        /* \"contracts-test/230518-test1.sol\":1368:1382  agendas.length */\n      dup1\n      sload\n      swap1\n      pop\n        /* \"contracts-test/230518-test1.sol\":1361:1419  Agenda(agendas.length, _title, _content, msg.sender, 0, 0) */\n      dup2\n      mstore\n      0x20\n      add\n        /* \"contracts-test/230518-test1.sol\":1384:1390  _title */\n      dup4\n        /* \"contracts-test/230518-test1.sol\":1361:1419  Agenda(agendas.length, _title, _content, msg.sender, 0, 0) */\n      dup2\n      mstore\n      0x20\n      add\n        /* \"contracts-test/230518-test1.sol\":1392:1400  _content */\n      dup3\n        /* \"contracts-test/230518-test1.sol\":1361:1419  Agenda(agendas.length, _title, _content, msg.sender, 0, 0) */\n      dup2\n      mstore\n      0x20\n      add\n        /* \"contracts-test/230518-test1.sol\":1402:1412  msg.sender */\n      caller\n        /* \"contracts-test/230518-test1.sol\":1361:1419  Agenda(agendas.length, _title, _content, msg.sender, 0, 0) */\n      0xffffffffffffffffffffffffffffffffffffffff\n      and\n      dup2\n      mstore\n      0x20\n      add\n        /* \"contracts-test/230518-test1.sol\":1414:1415  0 */\n      0x00\n        /* \"contracts-test/230518-test1.sol\":1361:1419  Agenda(agendas.length, _title, _content, msg.sender, 0, 0) */\n      dup2\n      mstore\n      0x20\n      add\n        /* \"contracts-test/230518-test1.sol\":1417:1418  0 */\n      0x00\n        /* \"contracts-test/230518-test1.sol\":1361:1419  Agenda(agendas.length, _title, _content, msg.sender, 0, 0) */\n      dup2\n      mstore\n      pop\n        /* \"contracts-test/230518-test1.sol\":1338:1350  title_agenda */\n      0x00\n        /* \"contracts-test/230518-test1.sol\":1351:1357  _title */\n      dup4\n        /* \"contracts-test/230518-test1.sol\":1338:1358  title_agenda[_title] */\n      mload(0x40)\n      tag_42\n      swap2\n      swap1\n      tag_43\n      jump\t// in\n    tag_42:\n      swap1\n      dup2\n      mstore\n      0x20\n      add\n      mload(0x40)\n      dup1\n      swap2\n      sub\n      swap1\n      keccak256\n        /* \"contracts-test/230518-test1.sol\":1338:1419  title_agenda[_title] = Agenda(agendas.length, _title, _content, msg.sender, 0, 0) */\n      0x00\n      dup3\n      add\n      mload\n      dup2\n      0x00\n      add\n      sstore\n      0x20\n      dup3\n      add\n      mload\n      dup2\n      0x01\n      add\n      swap1\n      dup2\n      tag_44\n      swap2\n      swap1\n      tag_40\n      jump\t// in\n    tag_44:\n      pop\n      0x40\n      dup3\n      add\n      mload\n      dup2\n      0x02\n      add\n      swap1\n      dup2\n      tag_45\n      swap2\n      swap1\n      tag_40\n      jump\t// in\n    tag_45:\n      pop\n      0x60\n      dup3\n      add\n      mload\n      dup2\n      0x03\n      add\n      exp(0x0100, 0x00)\n      dup2\n      sload\n      dup2\n      0xffffffffffffffffffffffffffffffffffffffff\n      mul\n      not\n      and\n      swap1\n      dup4\n      0xffffffffffffffffffffffffffffffffffffffff\n      and\n      mul\n      or\n      swap1\n      sstore\n      pop\n      0x80\n      dup3\n      add\n      mload\n      dup2\n      0x04\n      add\n      sstore\n      0xa0\n      dup3\n      add\n      mload\n      dup2\n      0x05\n      add\n      sstore\n      swap1\n      pop\n      pop\n        /* \"contracts-test/230518-test1.sol\":1168:1426  function agendaPropose(string memory _title, string memory _content) public {... */\n      pop\n      pop\n      jump\t// out\n        /* \"contracts-test/230518-test1.sol\":1582:1705  function getAllAgenda(string memory _title) public view returns(Agenda memory) {... */\n    tag_19:\n        /* \"contracts-test/230518-test1.sol\":1646:1659  Agenda memory */\n      tag_46\n      tag_47\n      jump\t// in\n    tag_46:\n        /* \"contracts-test/230518-test1.sol\":1678:1690  title_agenda */\n      0x00\n        /* \"contracts-test/230518-test1.sol\":1691:1697  _title */\n      dup3\n        /* \"contracts-test/230518-test1.sol\":1678:1698  title_agenda[_title] */\n      mload(0x40)\n      tag_49\n      swap2\n      swap1\n      tag_43\n      jump\t// in\n    tag_49:\n      swap1\n      dup2\n      mstore\n      0x20\n      add\n      mload(0x40)\n      dup1\n      swap2\n      sub\n      swap1\n      keccak256\n        /* \"contracts-test/230518-test1.sol\":1671:1698  return title_agenda[_title] */\n      mload(0x40)\n      dup1\n      0xc0\n      add\n      0x40\n      mstore\n      swap1\n      dup2\n      0x00\n      dup3\n      add\n      sload\n      dup2\n      mstore\n      0x20\n      add\n      0x01\n      dup3\n      add\n      dup1\n      sload\n      tag_50\n      swap1\n      tag_25\n      jump\t// in\n    tag_50:\n      dup1\n      0x1f\n      add\n      0x20\n      dup1\n      swap2\n      div\n      mul\n      0x20\n      add\n      mload(0x40)\n      swap1\n      dup2\n      add\n      0x40\n      mstore\n      dup1\n      swap3\n      swap2\n      swap1\n      dup2\n      dup2\n      mstore\n      0x20\n      add\n      dup3\n      dup1\n      sload\n      tag_51\n      swap1\n      tag_25\n      jump\t// in\n    tag_51:\n      dup1\n      iszero\n      tag_52\n      jumpi\n      dup1\n      0x1f\n      lt\n      tag_53\n      jumpi\n      0x0100\n      dup1\n      dup4\n      sload\n      div\n      mul\n      dup4\n      mstore\n      swap2\n      0x20\n      add\n      swap2\n      jump(tag_52)\n    tag_53:\n      dup3\n      add\n      swap2\n      swap1\n      0x00\n      mstore\n      keccak256(0x00, 0x20)\n      swap1\n    tag_54:\n      dup2\n      sload\n      dup2\n      mstore\n      swap1\n      0x01\n      add\n      swap1\n      0x20\n      add\n      dup1\n      dup4\n      gt\n      tag_54\n      jumpi\n      dup3\n      swap1\n      sub\n      0x1f\n      and\n      dup3\n      add\n      swap2\n    tag_52:\n      pop\n      pop\n      pop\n      pop\n      pop\n      dup2\n      mstore\n      0x20\n      add\n      0x02\n      dup3\n      add\n      dup1\n      sload\n      tag_55\n      swap1\n      tag_25\n      jump\t// in\n    tag_55:\n      dup1\n      0x1f\n      add\n      0x20\n      dup1\n      swap2\n      div\n      mul\n      0x20\n      add\n      mload(0x40)\n      swap1\n      dup2\n      add\n      0x40\n      mstore\n      dup1\n      swap3\n      swap2\n      swap1\n      dup2\n      dup2\n      mstore\n      0x20\n      add\n      dup3\n      dup1\n      sload\n      tag_56\n      swap1\n      tag_25\n      jump\t// in\n    tag_56:\n      dup1\n      iszero\n      tag_57\n      jumpi\n      dup1\n      0x1f\n      lt\n      tag_58\n      jumpi\n      0x0100\n      dup1\n      dup4\n      sload\n      div\n      mul\n      dup4\n      mstore\n      swap2\n      0x20\n      add\n      swap2\n      jump(tag_57)\n    tag_58:\n      dup3\n      add\n      swap2\n      swap1\n      0x00\n      mstore\n      keccak256(0x00, 0x20)\n      swap1\n    tag_59:\n      dup2\n      sload\n      dup2\n      mstore\n      swap1\n      0x01\n      add\n      swap1\n      0x20\n      add\n      dup1\n      dup4\n      gt\n      tag_59\n      jumpi\n      dup3\n      swap1\n      sub\n      0x1f\n      and\n      dup3\n      add\n      swap2\n    tag_57:\n      pop\n      pop\n      pop\n      pop\n      pop\n      dup2\n      mstore\n      0x20\n      add\n      0x03\n      dup3\n      add\n      0x00\n      swap1\n      sload\n      swap1\n      0x0100\n      exp\n      swap1\n      div\n      0xffffffffffffffffffffffffffffffffffffffff\n      and\n      0xffffffffffffffffffffffffffffffffffffffff\n      and\n      0xffffffffffffffffffffffffffffffffffffffff\n      and\n      dup2\n      mstore\n      0x20\n      add\n      0x04\n      dup3\n      add\n      sload\n      dup2\n      mstore\n      0x20\n      add\n      0x05\n      dup3\n      add\n      sload\n      dup2\n      mstore\n      pop\n      pop\n      swap1\n      pop\n        /* \"contracts-test/230518-test1.sol\":1582:1705  function getAllAgenda(string memory _title) public view returns(Agenda memory) {... */\n      swap2\n      swap1\n      pop\n      jump\t// out\n    tag_47:\n      mload(0x40)\n      dup1\n      0xc0\n      add\n      0x40\n      mstore\n      dup1\n      0x00\n      dup2\n      mstore\n      0x20\n      add\n      0x60\n      dup2\n      mstore\n      0x20\n      add\n      0x60\n      dup2\n      mstore\n      0x20\n      add\n      and(0xffffffffffffffffffffffffffffffffffffffff, 0x00)\n      dup2\n      mstore\n      0x20\n      add\n      0x00\n      dup2\n      mstore\n      0x20\n      add\n      0x00\n      dup2\n      mstore\n      pop\n      swap1\n      jump\t// out\n        /* \"#utility.yul\":7:82   */\n    tag_60:\n        /* \"#utility.yul\":40:46   */\n      0x00\n        /* \"#utility.yul\":73:75   */\n      0x40\n        /* \"#utility.yul\":67:76   */\n      mload\n        /* \"#utility.yul\":57:76   */\n      swap1\n      pop\n        /* \"#utility.yul\":7:82   */\n      swap1\n      jump\t// out\n        /* \"#utility.yul\":88:205   */\n    tag_61:\n        /* \"#utility.yul\":197:198   */\n      0x00\n        /* \"#utility.yul\":194:195   */\n      dup1\n        /* \"#utility.yul\":187:199   */\n      revert\n        /* \"#utility.yul\":211:328   */\n    tag_62:\n        /* \"#utility.yul\":320:321   */\n      0x00\n        /* \"#utility.yul\":317:318   */\n      dup1\n        /* \"#utility.yul\":310:322   */\n      revert\n        /* \"#utility.yul\":334:411   */\n    tag_63:\n        /* \"#utility.yul\":371:378   */\n      0x00\n        /* \"#utility.yul\":400:405   */\n      dup2\n        /* \"#utility.yul\":389:405   */\n      swap1\n      pop\n        /* \"#utility.yul\":334:411   */\n      swap2\n      swap1\n      pop\n      jump\t// out\n        /* \"#utility.yul\":417:539   */\n    tag_64:\n        /* \"#utility.yul\":490:514   */\n      tag_114\n        /* \"#utility.yul\":508:513   */\n      dup2\n        /* \"#utility.yul\":490:514   */\n      tag_63\n      jump\t// in\n    tag_114:\n        /* \"#utility.yul\":483:488   */\n      dup2\n        /* \"#utility.yul\":480:515   */\n      eq\n        /* \"#utility.yul\":470:533   */\n      tag_115\n      jumpi\n        /* \"#utility.yul\":529:530   */\n      0x00\n        /* \"#utility.yul\":526:527   */\n      dup1\n        /* \"#utility.yul\":519:531   */\n      revert\n        /* \"#utility.yul\":470:533   */\n    tag_115:\n        /* \"#utility.yul\":417:539   */\n      pop\n      jump\t// out\n        /* \"#utility.yul\":545:684   */\n    tag_65:\n        /* \"#utility.yul\":591:596   */\n      0x00\n        /* \"#utility.yul\":629:635   */\n      dup2\n        /* \"#utility.yul\":616:636   */\n      calldataload\n        /* \"#utility.yul\":607:636   */\n      swap1\n      pop\n        /* \"#utility.yul\":645:678   */\n      tag_117\n        /* \"#utility.yul\":672:677   */\n      dup2\n        /* \"#utility.yul\":645:678   */\n      tag_64\n      jump\t// in\n    tag_117:\n        /* \"#utility.yul\":545:684   */\n      swap3\n      swap2\n      pop\n      pop\n      jump\t// out\n        /* \"#utility.yul\":690:1019   */\n    tag_8:\n        /* \"#utility.yul\":749:755   */\n      0x00\n        /* \"#utility.yul\":798:800   */\n      0x20\n        /* \"#utility.yul\":786:795   */\n      dup3\n        /* \"#utility.yul\":777:784   */\n      dup5\n        /* \"#utility.yul\":773:796   */\n      sub\n        /* \"#utility.yul\":769:801   */\n      slt\n        /* \"#utility.yul\":766:885   */\n      iszero\n      tag_119\n      jumpi\n        /* \"#utility.yul\":804:883   */\n      tag_120\n      tag_61\n      jump\t// in\n    tag_120:\n        /* \"#utility.yul\":766:885   */\n    tag_119:\n        /* \"#utility.yul\":924:925   */\n      0x00\n        /* \"#utility.yul\":949:1002   */\n      tag_121\n        /* \"#utility.yul\":994:1001   */\n      dup5\n        /* \"#utility.yul\":985:991   */\n      dup3\n        /* \"#utility.yul\":974:983   */\n      dup6\n        /* \"#utility.yul\":970:992   */\n      add\n        /* \"#utility.yul\":949:1002   */\n      tag_65\n      jump\t// in\n    tag_121:\n        /* \"#utility.yul\":939:1002   */\n      swap2\n      pop\n        /* \"#utility.yul\":895:1012   */\n      pop\n        /* \"#utility.yul\":690:1019   */\n      swap3\n      swap2\n      pop\n      pop\n      jump\t// out\n        /* \"#utility.yul\":1025:1143   */\n    tag_66:\n        /* \"#utility.yul\":1112:1136   */\n      tag_123\n        /* \"#utility.yul\":1130:1135   */\n      dup2\n        /* \"#utility.yul\":1112:1136   */\n      tag_63\n      jump\t// in\n    tag_123:\n        /* \"#utility.yul\":1107:1110   */\n      dup3\n        /* \"#utility.yul\":1100:1137   */\n      mstore\n        /* \"#utility.yul\":1025:1143   */\n      pop\n      pop\n      jump\t// out\n        /* \"#utility.yul\":1149:1248   */\n    tag_67:\n        /* \"#utility.yul\":1201:1207   */\n      0x00\n        /* \"#utility.yul\":1235:1240   */\n      dup2\n        /* \"#utility.yul\":1229:1241   */\n      mload\n        /* \"#utility.yul\":1219:1241   */\n      swap1\n      pop\n        /* \"#utility.yul\":1149:1248   */\n      swap2\n      swap1\n      pop\n      jump\t// out\n        /* \"#utility.yul\":1254:1423   */\n    tag_68:\n        /* \"#utility.yul\":1338:1349   */\n      0x00\n        /* \"#utility.yul\":1372:1378   */\n      dup3\n        /* \"#utility.yul\":1367:1370   */\n      dup3\n        /* \"#utility.yul\":1360:1379   */\n      mstore\n        /* \"#utility.yul\":1412:1416   */\n      0x20\n        /* \"#utility.yul\":1407:1410   */\n      dup3\n        /* \"#utility.yul\":1403:1417   */\n      add\n        /* \"#utility.yul\":1388:1417   */\n      swap1\n      pop\n        /* \"#utility.yul\":1254:1423   */\n      swap3\n      swap2\n      pop\n      pop\n      jump\t// out\n        /* \"#utility.yul\":1429:1675   */\n    tag_69:\n        /* \"#utility.yul\":1510:1511   */\n      0x00\n        /* \"#utility.yul\":1520:1633   */\n    tag_127:\n        /* \"#utility.yul\":1534:1540   */\n      dup4\n        /* \"#utility.yul\":1531:1532   */\n      dup2\n        /* \"#utility.yul\":1528:1541   */\n      lt\n        /* \"#utility.yul\":1520:1633   */\n      iszero\n      tag_129\n      jumpi\n        /* \"#utility.yul\":1619:1620   */\n      dup1\n        /* \"#utility.yul\":1614:1617   */\n      dup3\n        /* \"#utility.yul\":1610:1621   */\n      add\n        /* \"#utility.yul\":1604:1622   */\n      mload\n        /* \"#utility.yul\":1600:1601   */\n      dup2\n        /* \"#utility.yul\":1595:1598   */\n      dup5\n        /* \"#utility.yul\":1591:1602   */\n      add\n        /* \"#utility.yul\":1584:1623   */\n      mstore\n        /* \"#utility.yul\":1556:1558   */\n      0x20\n        /* \"#utility.yul\":1553:1554   */\n      dup2\n        /* \"#utility.yul\":1549:1559   */\n      add\n        /* \"#utility.yul\":1544:1559   */\n      swap1\n      pop\n        /* \"#utility.yul\":1520:1633   */\n      jump(tag_127)\n    tag_129:\n        /* \"#utility.yul\":1667:1668   */\n      0x00\n        /* \"#utility.yul\":1658:1664   */\n      dup5\n        /* \"#utility.yul\":1653:1656   */\n      dup5\n        /* \"#utility.yul\":1649:1665   */\n      add\n        /* \"#utility.yul\":1642:1669   */\n      mstore\n        /* \"#utility.yul\":1491:1675   */\n      pop\n        /* \"#utility.yul\":1429:1675   */\n      pop\n      pop\n      pop\n      jump\t// out\n        /* \"#utility.yul\":1681:1783   */\n    tag_70:\n        /* \"#utility.yul\":1722:1728   */\n      0x00\n        /* \"#utility.yul\":1773:1775   */\n      0x1f\n        /* \"#utility.yul\":1769:1776   */\n      not\n        /* \"#utility.yul\":1764:1766   */\n      0x1f\n        /* \"#utility.yul\":1757:1762   */\n      dup4\n        /* \"#utility.yul\":1753:1767   */\n      add\n        /* \"#utility.yul\":1749:1777   */\n      and\n        /* \"#utility.yul\":1739:1777   */\n      swap1\n      pop\n        /* \"#utility.yul\":1681:1783   */\n      swap2\n      swap1\n      pop\n      jump\t// out\n        /* \"#utility.yul\":1789:2166   */\n    tag_71:\n        /* \"#utility.yul\":1877:1880   */\n      0x00\n        /* \"#utility.yul\":1905:1944   */\n      tag_132\n        /* \"#utility.yul\":1938:1943   */\n      dup3\n        /* \"#utility.yul\":1905:1944   */\n      tag_67\n      jump\t// in\n    tag_132:\n        /* \"#utility.yul\":1960:2031   */\n      tag_133\n        /* \"#utility.yul\":2024:2030   */\n      dup2\n        /* \"#utility.yul\":2019:2022   */\n      dup6\n        /* \"#utility.yul\":1960:2031   */\n      tag_68\n      jump\t// in\n    tag_133:\n        /* \"#utility.yul\":1953:2031   */\n      swap4\n      pop\n        /* \"#utility.yul\":2040:2105   */\n      tag_134\n        /* \"#utility.yul\":2098:2104   */\n      dup2\n        /* \"#utility.yul\":2093:2096   */\n      dup6\n        /* \"#utility.yul\":2086:2090   */\n      0x20\n        /* \"#utility.yul\":2079:2084   */\n      dup7\n        /* \"#utility.yul\":2075:2091   */\n      add\n        /* \"#utility.yul\":2040:2105   */\n      tag_69\n      jump\t// in\n    tag_134:\n        /* \"#utility.yul\":2130:2159   */\n      tag_135\n        /* \"#utility.yul\":2152:2158   */\n      dup2\n        /* \"#utility.yul\":2130:2159   */\n      tag_70\n      jump\t// in\n    tag_135:\n        /* \"#utility.yul\":2125:2128   */\n      dup5\n        /* \"#utility.yul\":2121:2160   */\n      add\n        /* \"#utility.yul\":2114:2160   */\n      swap2\n      pop\n        /* \"#utility.yul\":1881:2166   */\n      pop\n        /* \"#utility.yul\":1789:2166   */\n      swap3\n      swap2\n      pop\n      pop\n      jump\t// out\n        /* \"#utility.yul\":2172:2298   */\n    tag_72:\n        /* \"#utility.yul\":2209:2216   */\n      0x00\n        /* \"#utility.yul\":2249:2291   */\n      0xffffffffffffffffffffffffffffffffffffffff\n        /* \"#utility.yul\":2242:2247   */\n      dup3\n        /* \"#utility.yul\":2238:2292   */\n      and\n        /* \"#utility.yul\":2227:2292   */\n      swap1\n      pop\n        /* \"#utility.yul\":2172:2298   */\n      swap2\n      swap1\n      pop\n      jump\t// out\n        /* \"#utility.yul\":2304:2400   */\n    tag_73:\n        /* \"#utility.yul\":2341:2348   */\n      0x00\n        /* \"#utility.yul\":2370:2394   */\n      tag_138\n        /* \"#utility.yul\":2388:2393   */\n      dup3\n        /* \"#utility.yul\":2370:2394   */\n      tag_72\n      jump\t// in\n    tag_138:\n        /* \"#utility.yul\":2359:2394   */\n      swap1\n      pop\n        /* \"#utility.yul\":2304:2400   */\n      swap2\n      swap1\n      pop\n      jump\t// out\n        /* \"#utility.yul\":2406:2524   */\n    tag_74:\n        /* \"#utility.yul\":2493:2517   */\n      tag_140\n        /* \"#utility.yul\":2511:2516   */\n      dup2\n        /* \"#utility.yul\":2493:2517   */\n      tag_73\n      jump\t// in\n    tag_140:\n        /* \"#utility.yul\":2488:2491   */\n      dup3\n        /* \"#utility.yul\":2481:2518   */\n      mstore\n        /* \"#utility.yul\":2406:2524   */\n      pop\n      pop\n      jump\t// out\n        /* \"#utility.yul\":2530:3487   */\n    tag_11:\n        /* \"#utility.yul\":2803:2807   */\n      0x00\n        /* \"#utility.yul\":2841:2844   */\n      0xc0\n        /* \"#utility.yul\":2830:2839   */\n      dup3\n        /* \"#utility.yul\":2826:2845   */\n      add\n        /* \"#utility.yul\":2818:2845   */\n      swap1\n      pop\n        /* \"#utility.yul\":2855:2926   */\n      tag_142\n        /* \"#utility.yul\":2923:2924   */\n      0x00\n        /* \"#utility.yul\":2912:2921   */\n      dup4\n        /* \"#utility.yul\":2908:2925   */\n      add\n        /* \"#utility.yul\":2899:2905   */\n      dup10\n        /* \"#utility.yul\":2855:2926   */\n      tag_66\n      jump\t// in\n    tag_142:\n        /* \"#utility.yul\":2973:2982   */\n      dup2\n        /* \"#utility.yul\":2967:2971   */\n      dup2\n        /* \"#utility.yul\":2963:2983   */\n      sub\n        /* \"#utility.yul\":2958:2960   */\n      0x20\n        /* \"#utility.yul\":2947:2956   */\n      dup4\n        /* \"#utility.yul\":2943:2961   */\n      add\n        /* \"#utility.yul\":2936:2984   */\n      mstore\n        /* \"#utility.yul\":3001:3079   */\n      tag_143\n        /* \"#utility.yul\":3074:3078   */\n      dup2\n        /* \"#utility.yul\":3065:3071   */\n      dup9\n        /* \"#utility.yul\":3001:3079   */\n      tag_71\n      jump\t// in\n    tag_143:\n        /* \"#utility.yul\":2993:3079   */\n      swap1\n      pop\n        /* \"#utility.yul\":3126:3135   */\n      dup2\n        /* \"#utility.yul\":3120:3124   */\n      dup2\n        /* \"#utility.yul\":3116:3136   */\n      sub\n        /* \"#utility.yul\":3111:3113   */\n      0x40\n        /* \"#utility.yul\":3100:3109   */\n      dup4\n        /* \"#utility.yul\":3096:3114   */\n      add\n        /* \"#utility.yul\":3089:3137   */\n      mstore\n        /* \"#utility.yul\":3154:3232   */\n      tag_144\n        /* \"#utility.yul\":3227:3231   */\n      dup2\n        /* \"#utility.yul\":3218:3224   */\n      dup8\n        /* \"#utility.yul\":3154:3232   */\n      tag_71\n      jump\t// in\n    tag_144:\n        /* \"#utility.yul\":3146:3232   */\n      swap1\n      pop\n        /* \"#utility.yul\":3242:3314   */\n      tag_145\n        /* \"#utility.yul\":3310:3312   */\n      0x60\n        /* \"#utility.yul\":3299:3308   */\n      dup4\n        /* \"#utility.yul\":3295:3313   */\n      add\n        /* \"#utility.yul\":3286:3292   */\n      dup7\n        /* \"#utility.yul\":3242:3314   */\n      tag_74\n      jump\t// in\n    tag_145:\n        /* \"#utility.yul\":3324:3397   */\n      tag_146\n        /* \"#utility.yul\":3392:3395   */\n      0x80\n        /* \"#utility.yul\":3381:3390   */\n      dup4\n        /* \"#utility.yul\":3377:3396   */\n      add\n        /* \"#utility.yul\":3368:3374   */\n      dup6\n        /* \"#utility.yul\":3324:3397   */\n      tag_66\n      jump\t// in\n    tag_146:\n        /* \"#utility.yul\":3407:3480   */\n      tag_147\n        /* \"#utility.yul\":3475:3478   */\n      0xa0\n        /* \"#utility.yul\":3464:3473   */\n      dup4\n        /* \"#utility.yul\":3460:3479   */\n      add\n        /* \"#utility.yul\":3451:3457   */\n      dup5\n        /* \"#utility.yul\":3407:3480   */\n      tag_66\n      jump\t// in\n    tag_147:\n        /* \"#utility.yul\":2530:3487   */\n      swap8\n      swap7\n      pop\n      pop\n      pop\n      pop\n      pop\n      pop\n      pop\n      jump\t// out\n        /* \"#utility.yul\":3493:3610   */\n    tag_75:\n        /* \"#utility.yul\":3602:3603   */\n      0x00\n        /* \"#utility.yul\":3599:3600   */\n      dup1\n        /* \"#utility.yul\":3592:3604   */\n      revert\n        /* \"#utility.yul\":3616:3733   */\n    tag_76:\n        /* \"#utility.yul\":3725:3726   */\n      0x00\n        /* \"#utility.yul\":3722:3723   */\n      dup1\n        /* \"#utility.yul\":3715:3727   */\n      revert\n        /* \"#utility.yul\":3739:3919   */\n    tag_77:\n        /* \"#utility.yul\":3787:3864   */\n      0x4e487b7100000000000000000000000000000000000000000000000000000000\n        /* \"#utility.yul\":3784:3785   */\n      0x00\n        /* \"#utility.yul\":3777:3865   */\n      mstore\n        /* \"#utility.yul\":3884:3888   */\n      0x41\n        /* \"#utility.yul\":3881:3882   */\n      0x04\n        /* \"#utility.yul\":3874:3889   */\n      mstore\n        /* \"#utility.yul\":3908:3912   */\n      0x24\n        /* \"#utility.yul\":3905:3906   */\n      0x00\n        /* \"#utility.yul\":3898:3913   */\n      revert\n        /* \"#utility.yul\":3925:4206   */\n    tag_78:\n        /* \"#utility.yul\":4008:4035   */\n      tag_152\n        /* \"#utility.yul\":4030:4034   */\n      dup3\n        /* \"#utility.yul\":4008:4035   */\n      tag_70\n      jump\t// in\n    tag_152:\n        /* \"#utility.yul\":4000:4006   */\n      dup2\n        /* \"#utility.yul\":3996:4036   */\n      add\n        /* \"#utility.yul\":4138:4144   */\n      dup2\n        /* \"#utility.yul\":4126:4136   */\n      dup2\n        /* \"#utility.yul\":4123:4145   */\n      lt\n        /* \"#utility.yul\":4102:4120   */\n      0xffffffffffffffff\n        /* \"#utility.yul\":4090:4100   */\n      dup3\n        /* \"#utility.yul\":4087:4121   */\n      gt\n        /* \"#utility.yul\":4084:4146   */\n      or\n        /* \"#utility.yul\":4081:4169   */\n      iszero\n      tag_153\n      jumpi\n        /* \"#utility.yul\":4149:4167   */\n      tag_154\n      tag_77\n      jump\t// in\n    tag_154:\n        /* \"#utility.yul\":4081:4169   */\n    tag_153:\n        /* \"#utility.yul\":4189:4199   */\n      dup1\n        /* \"#utility.yul\":4185:4187   */\n      0x40\n        /* \"#utility.yul\":4178:4200   */\n      mstore\n        /* \"#utility.yul\":3968:4206   */\n      pop\n        /* \"#utility.yul\":3925:4206   */\n      pop\n      pop\n      jump\t// out\n        /* \"#utility.yul\":4212:4341   */\n    tag_79:\n        /* \"#utility.yul\":4246:4252   */\n      0x00\n        /* \"#utility.yul\":4273:4293   */\n      tag_156\n      tag_60\n      jump\t// in\n    tag_156:\n        /* \"#utility.yul\":4263:4293   */\n      swap1\n      pop\n        /* \"#utility.yul\":4302:4335   */\n      tag_157\n        /* \"#utility.yul\":4330:4334   */\n      dup3\n        /* \"#utility.yul\":4322:4328   */\n      dup3\n        /* \"#utility.yul\":4302:4335   */\n      tag_78\n      jump\t// in\n    tag_157:\n        /* \"#utility.yul\":4212:4341   */\n      swap2\n      swap1\n      pop\n      jump\t// out\n        /* \"#utility.yul\":4347:4655   */\n    tag_80:\n        /* \"#utility.yul\":4409:4413   */\n      0x00\n        /* \"#utility.yul\":4499:4517   */\n      0xffffffffffffffff\n        /* \"#utility.yul\":4491:4497   */\n      dup3\n        /* \"#utility.yul\":4488:4518   */\n      gt\n        /* \"#utility.yul\":4485:4541   */\n      iszero\n      tag_159\n      jumpi\n        /* \"#utility.yul\":4521:4539   */\n      tag_160\n      tag_77\n      jump\t// in\n    tag_160:\n        /* \"#utility.yul\":4485:4541   */\n    tag_159:\n        /* \"#utility.yul\":4559:4588   */\n      tag_161\n        /* \"#utility.yul\":4581:4587   */\n      dup3\n        /* \"#utility.yul\":4559:4588   */\n      tag_70\n      jump\t// in\n    tag_161:\n        /* \"#utility.yul\":4551:4588   */\n      swap1\n      pop\n        /* \"#utility.yul\":4643:4647   */\n      0x20\n        /* \"#utility.yul\":4637:4641   */\n      dup2\n        /* \"#utility.yul\":4633:4648   */\n      add\n        /* \"#utility.yul\":4625:4648   */\n      swap1\n      pop\n        /* \"#utility.yul\":4347:4655   */\n      swap2\n      swap1\n      pop\n      jump\t// out\n        /* \"#utility.yul\":4661:4807   */\n    tag_81:\n        /* \"#utility.yul\":4758:4764   */\n      dup3\n        /* \"#utility.yul\":4753:4756   */\n      dup2\n        /* \"#utility.yul\":4748:4751   */\n      dup4\n        /* \"#utility.yul\":4735:4765   */\n      calldatacopy\n        /* \"#utility.yul\":4799:4800   */\n      0x00\n        /* \"#utility.yul\":4790:4796   */\n      dup4\n        /* \"#utility.yul\":4785:4788   */\n      dup4\n        /* \"#utility.yul\":4781:4797   */\n      add\n        /* \"#utility.yul\":4774:4801   */\n      mstore\n        /* \"#utility.yul\":4661:4807   */\n      pop\n      pop\n      pop\n      jump\t// out\n        /* \"#utility.yul\":4813:5238   */\n    tag_82:\n        /* \"#utility.yul\":4891:4896   */\n      0x00\n        /* \"#utility.yul\":4916:4982   */\n      tag_164\n        /* \"#utility.yul\":4932:4981   */\n      tag_165\n        /* \"#utility.yul\":4974:4980   */\n      dup5\n        /* \"#utility.yul\":4932:4981   */\n      tag_80\n      jump\t// in\n    tag_165:\n        /* \"#utility.yul\":4916:4982   */\n      tag_79\n      jump\t// in\n    tag_164:\n        /* \"#utility.yul\":4907:4982   */\n      swap1\n      pop\n        /* \"#utility.yul\":5005:5011   */\n      dup3\n        /* \"#utility.yul\":4998:5003   */\n      dup2\n        /* \"#utility.yul\":4991:5012   */\n      mstore\n        /* \"#utility.yul\":5043:5047   */\n      0x20\n        /* \"#utility.yul\":5036:5041   */\n      dup2\n        /* \"#utility.yul\":5032:5048   */\n      add\n        /* \"#utility.yul\":5081:5084   */\n      dup5\n        /* \"#utility.yul\":5072:5078   */\n      dup5\n        /* \"#utility.yul\":5067:5070   */\n      dup5\n        /* \"#utility.yul\":5063:5079   */\n      add\n        /* \"#utility.yul\":5060:5085   */\n      gt\n        /* \"#utility.yul\":5057:5169   */\n      iszero\n      tag_166\n      jumpi\n        /* \"#utility.yul\":5088:5167   */\n      tag_167\n      tag_76\n      jump\t// in\n    tag_167:\n        /* \"#utility.yul\":5057:5169   */\n    tag_166:\n        /* \"#utility.yul\":5178:5232   */\n      tag_168\n        /* \"#utility.yul\":5225:5231   */\n      dup5\n        /* \"#utility.yul\":5220:5223   */\n      dup3\n        /* \"#utility.yul\":5215:5218   */\n      dup6\n        /* \"#utility.yul\":5178:5232   */\n      tag_81\n      jump\t// in\n    tag_168:\n        /* \"#utility.yul\":4897:5238   */\n      pop\n        /* \"#utility.yul\":4813:5238   */\n      swap4\n      swap3\n      pop\n      pop\n      pop\n      jump\t// out\n        /* \"#utility.yul\":5258:5598   */\n    tag_83:\n        /* \"#utility.yul\":5314:5319   */\n      0x00\n        /* \"#utility.yul\":5363:5366   */\n      dup3\n        /* \"#utility.yul\":5356:5360   */\n      0x1f\n        /* \"#utility.yul\":5348:5354   */\n      dup4\n        /* \"#utility.yul\":5344:5361   */\n      add\n        /* \"#utility.yul\":5340:5367   */\n      slt\n        /* \"#utility.yul\":5330:5452   */\n      tag_170\n      jumpi\n        /* \"#utility.yul\":5371:5450   */\n      tag_171\n      tag_75\n      jump\t// in\n    tag_171:\n        /* \"#utility.yul\":5330:5452   */\n    tag_170:\n        /* \"#utility.yul\":5488:5494   */\n      dup2\n        /* \"#utility.yul\":5475:5495   */\n      calldataload\n        /* \"#utility.yul\":5513:5592   */\n      tag_172\n        /* \"#utility.yul\":5588:5591   */\n      dup5\n        /* \"#utility.yul\":5580:5586   */\n      dup3\n        /* \"#utility.yul\":5573:5577   */\n      0x20\n        /* \"#utility.yul\":5565:5571   */\n      dup7\n        /* \"#utility.yul\":5561:5578   */\n      add\n        /* \"#utility.yul\":5513:5592   */\n      tag_82\n      jump\t// in\n    tag_172:\n        /* \"#utility.yul\":5504:5592   */\n      swap2\n      pop\n        /* \"#utility.yul\":5320:5598   */\n      pop\n        /* \"#utility.yul\":5258:5598   */\n      swap3\n      swap2\n      pop\n      pop\n      jump\t// out\n        /* \"#utility.yul\":5604:6438   */\n    tag_14:\n        /* \"#utility.yul\":5692:5698   */\n      0x00\n        /* \"#utility.yul\":5700:5706   */\n      dup1\n        /* \"#utility.yul\":5749:5751   */\n      0x40\n        /* \"#utility.yul\":5737:5746   */\n      dup4\n        /* \"#utility.yul\":5728:5735   */\n      dup6\n        /* \"#utility.yul\":5724:5747   */\n      sub\n        /* \"#utility.yul\":5720:5752   */\n      slt\n        /* \"#utility.yul\":5717:5836   */\n      iszero\n      tag_174\n      jumpi\n        /* \"#utility.yul\":5755:5834   */\n      tag_175\n      tag_61\n      jump\t// in\n    tag_175:\n        /* \"#utility.yul\":5717:5836   */\n    tag_174:\n        /* \"#utility.yul\":5903:5904   */\n      0x00\n        /* \"#utility.yul\":5892:5901   */\n      dup4\n        /* \"#utility.yul\":5888:5905   */\n      add\n        /* \"#utility.yul\":5875:5906   */\n      calldataload\n        /* \"#utility.yul\":5933:5951   */\n      0xffffffffffffffff\n        /* \"#utility.yul\":5925:5931   */\n      dup2\n        /* \"#utility.yul\":5922:5952   */\n      gt\n        /* \"#utility.yul\":5919:6036   */\n      iszero\n      tag_176\n      jumpi\n        /* \"#utility.yul\":5955:6034   */\n      tag_177\n      tag_62\n      jump\t// in\n    tag_177:\n        /* \"#utility.yul\":5919:6036   */\n    tag_176:\n        /* \"#utility.yul\":6060:6123   */\n      tag_178\n        /* \"#utility.yul\":6115:6122   */\n      dup6\n        /* \"#utility.yul\":6106:6112   */\n      dup3\n        /* \"#utility.yul\":6095:6104   */\n      dup7\n        /* \"#utility.yul\":6091:6113   */\n      add\n        /* \"#utility.yul\":6060:6123   */\n      tag_83\n      jump\t// in\n    tag_178:\n        /* \"#utility.yul\":6050:6123   */\n      swap3\n      pop\n        /* \"#utility.yul\":5846:6133   */\n      pop\n        /* \"#utility.yul\":6200:6202   */\n      0x20\n        /* \"#utility.yul\":6189:6198   */\n      dup4\n        /* \"#utility.yul\":6185:6203   */\n      add\n        /* \"#utility.yul\":6172:6204   */\n      calldataload\n        /* \"#utility.yul\":6231:6249   */\n      0xffffffffffffffff\n        /* \"#utility.yul\":6223:6229   */\n      dup2\n        /* \"#utility.yul\":6220:6250   */\n      gt\n        /* \"#utility.yul\":6217:6334   */\n      iszero\n      tag_179\n      jumpi\n        /* \"#utility.yul\":6253:6332   */\n      tag_180\n      tag_62\n      jump\t// in\n    tag_180:\n        /* \"#utility.yul\":6217:6334   */\n    tag_179:\n        /* \"#utility.yul\":6358:6421   */\n      tag_181\n        /* \"#utility.yul\":6413:6420   */\n      dup6\n        /* \"#utility.yul\":6404:6410   */\n      dup3\n        /* \"#utility.yul\":6393:6402   */\n      dup7\n        /* \"#utility.yul\":6389:6411   */\n      add\n        /* \"#utility.yul\":6358:6421   */\n      tag_83\n      jump\t// in\n    tag_181:\n        /* \"#utility.yul\":6348:6421   */\n      swap2\n      pop\n        /* \"#utility.yul\":6143:6431   */\n      pop\n        /* \"#utility.yul\":5604:6438   */\n      swap3\n      pop\n      swap3\n      swap1\n      pop\n      jump\t// out\n        /* \"#utility.yul\":6444:6953   */\n    tag_18:\n        /* \"#utility.yul\":6513:6519   */\n      0x00\n        /* \"#utility.yul\":6562:6564   */\n      0x20\n        /* \"#utility.yul\":6550:6559   */\n      dup3\n        /* \"#utility.yul\":6541:6548   */\n      dup5\n        /* \"#utility.yul\":6537:6560   */\n      sub\n        /* \"#utility.yul\":6533:6565   */\n      slt\n        /* \"#utility.yul\":6530:6649   */\n      iszero\n      tag_183\n      jumpi\n        /* \"#utility.yul\":6568:6647   */\n      tag_184\n      tag_61\n      jump\t// in\n    tag_184:\n        /* \"#utility.yul\":6530:6649   */\n    tag_183:\n        /* \"#utility.yul\":6716:6717   */\n      0x00\n        /* \"#utility.yul\":6705:6714   */\n      dup3\n        /* \"#utility.yul\":6701:6718   */\n      add\n        /* \"#utility.yul\":6688:6719   */\n      calldataload\n        /* \"#utility.yul\":6746:6764   */\n      0xffffffffffffffff\n        /* \"#utility.yul\":6738:6744   */\n      dup2\n        /* \"#utility.yul\":6735:6765   */\n      gt\n        /* \"#utility.yul\":6732:6849   */\n      iszero\n      tag_185\n      jumpi\n        /* \"#utility.yul\":6768:6847   */\n      tag_186\n      tag_62\n      jump\t// in\n    tag_186:\n        /* \"#utility.yul\":6732:6849   */\n    tag_185:\n        /* \"#utility.yul\":6873:6936   */\n      tag_187\n        /* \"#utility.yul\":6928:6935   */\n      dup5\n        /* \"#utility.yul\":6919:6925   */\n      dup3\n        /* \"#utility.yul\":6908:6917   */\n      dup6\n        /* \"#utility.yul\":6904:6926   */\n      add\n        /* \"#utility.yul\":6873:6936   */\n      tag_83\n      jump\t// in\n    tag_187:\n        /* \"#utility.yul\":6863:6936   */\n      swap2\n      pop\n        /* \"#utility.yul\":6659:6946   */\n      pop\n        /* \"#utility.yul\":6444:6953   */\n      swap3\n      swap2\n      pop\n      pop\n      jump\t// out\n        /* \"#utility.yul\":6959:7067   */\n    tag_84:\n        /* \"#utility.yul\":7036:7060   */\n      tag_189\n        /* \"#utility.yul\":7054:7059   */\n      dup2\n        /* \"#utility.yul\":7036:7060   */\n      tag_63\n      jump\t// in\n    tag_189:\n        /* \"#utility.yul\":7031:7034   */\n      dup3\n        /* \"#utility.yul\":7024:7061   */\n      mstore\n        /* \"#utility.yul\":6959:7067   */\n      pop\n      pop\n      jump\t// out\n        /* \"#utility.yul\":7073:7232   */\n    tag_85:\n        /* \"#utility.yul\":7147:7158   */\n      0x00\n        /* \"#utility.yul\":7181:7187   */\n      dup3\n        /* \"#utility.yul\":7176:7179   */\n      dup3\n        /* \"#utility.yul\":7169:7188   */\n      mstore\n        /* \"#utility.yul\":7221:7225   */\n      0x20\n        /* \"#utility.yul\":7216:7219   */\n      dup3\n        /* \"#utility.yul\":7212:7226   */\n      add\n        /* \"#utility.yul\":7197:7226   */\n      swap1\n      pop\n        /* \"#utility.yul\":7073:7232   */\n      swap3\n      swap2\n      pop\n      pop\n      jump\t// out\n        /* \"#utility.yul\":7238:7595   */\n    tag_86:\n        /* \"#utility.yul\":7316:7319   */\n      0x00\n        /* \"#utility.yul\":7344:7383   */\n      tag_192\n        /* \"#utility.yul\":7377:7382   */\n      dup3\n        /* \"#utility.yul\":7344:7383   */\n      tag_67\n      jump\t// in\n    tag_192:\n        /* \"#utility.yul\":7399:7460   */\n      tag_193\n        /* \"#utility.yul\":7453:7459   */\n      dup2\n        /* \"#utility.yul\":7448:7451   */\n      dup6\n        /* \"#utility.yul\":7399:7460   */\n      tag_85\n      jump\t// in\n    tag_193:\n        /* \"#utility.yul\":7392:7460   */\n      swap4\n      pop\n        /* \"#utility.yul\":7469:7534   */\n      tag_194\n        /* \"#utility.yul\":7527:7533   */\n      dup2\n        /* \"#utility.yul\":7522:7525   */\n      dup6\n        /* \"#utility.yul\":7515:7519   */\n      0x20\n        /* \"#utility.yul\":7508:7513   */\n      dup7\n        /* \"#utility.yul\":7504:7520   */\n      add\n        /* \"#utility.yul\":7469:7534   */\n      tag_69\n      jump\t// in\n    tag_194:\n        /* \"#utility.yul\":7559:7588   */\n      tag_195\n        /* \"#utility.yul\":7581:7587   */\n      dup2\n        /* \"#utility.yul\":7559:7588   */\n      tag_70\n      jump\t// in\n    tag_195:\n        /* \"#utility.yul\":7554:7557   */\n      dup5\n        /* \"#utility.yul\":7550:7589   */\n      add\n        /* \"#utility.yul\":7543:7589   */\n      swap2\n      pop\n        /* \"#utility.yul\":7320:7595   */\n      pop\n        /* \"#utility.yul\":7238:7595   */\n      swap3\n      swap2\n      pop\n      pop\n      jump\t// out\n        /* \"#utility.yul\":7601:7709   */\n    tag_87:\n        /* \"#utility.yul\":7678:7702   */\n      tag_197\n        /* \"#utility.yul\":7696:7701   */\n      dup2\n        /* \"#utility.yul\":7678:7702   */\n      tag_73\n      jump\t// in\n    tag_197:\n        /* \"#utility.yul\":7673:7676   */\n      dup3\n        /* \"#utility.yul\":7666:7703   */\n      mstore\n        /* \"#utility.yul\":7601:7709   */\n      pop\n      pop\n      jump\t// out\n        /* \"#utility.yul\":7765:9154   */\n    tag_88:\n        /* \"#utility.yul\":7878:7881   */\n      0x00\n        /* \"#utility.yul\":7914:7918   */\n      0xc0\n        /* \"#utility.yul\":7909:7912   */\n      dup4\n        /* \"#utility.yul\":7905:7919   */\n      add\n        /* \"#utility.yul\":8003:8007   */\n      0x00\n        /* \"#utility.yul\":7996:8001   */\n      dup4\n        /* \"#utility.yul\":7992:8008   */\n      add\n        /* \"#utility.yul\":7986:8009   */\n      mload\n        /* \"#utility.yul\":8022:8085   */\n      tag_199\n        /* \"#utility.yul\":8079:8083   */\n      0x00\n        /* \"#utility.yul\":8074:8077   */\n      dup7\n        /* \"#utility.yul\":8070:8084   */\n      add\n        /* \"#utility.yul\":8056:8068   */\n      dup3\n        /* \"#utility.yul\":8022:8085   */\n      tag_84\n      jump\t// in\n    tag_199:\n        /* \"#utility.yul\":7929:8095   */\n      pop\n        /* \"#utility.yul\":8178:8182   */\n      0x20\n        /* \"#utility.yul\":8171:8176   */\n      dup4\n        /* \"#utility.yul\":8167:8183   */\n      add\n        /* \"#utility.yul\":8161:8184   */\n      mload\n        /* \"#utility.yul\":8231:8234   */\n      dup5\n        /* \"#utility.yul\":8225:8229   */\n      dup3\n        /* \"#utility.yul\":8221:8235   */\n      sub\n        /* \"#utility.yul\":8214:8218   */\n      0x20\n        /* \"#utility.yul\":8209:8212   */\n      dup7\n        /* \"#utility.yul\":8205:8219   */\n      add\n        /* \"#utility.yul\":8198:8236   */\n      mstore\n        /* \"#utility.yul\":8257:8330   */\n      tag_200\n        /* \"#utility.yul\":8325:8329   */\n      dup3\n        /* \"#utility.yul\":8311:8323   */\n      dup3\n        /* \"#utility.yul\":8257:8330   */\n      tag_86\n      jump\t// in\n    tag_200:\n        /* \"#utility.yul\":8249:8330   */\n      swap2\n      pop\n        /* \"#utility.yul\":8105:8341   */\n      pop\n        /* \"#utility.yul\":8426:8430   */\n      0x40\n        /* \"#utility.yul\":8419:8424   */\n      dup4\n        /* \"#utility.yul\":8415:8431   */\n      add\n        /* \"#utility.yul\":8409:8432   */\n      mload\n        /* \"#utility.yul\":8479:8482   */\n      dup5\n        /* \"#utility.yul\":8473:8477   */\n      dup3\n        /* \"#utility.yul\":8469:8483   */\n      sub\n        /* \"#utility.yul\":8462:8466   */\n      0x40\n        /* \"#utility.yul\":8457:8460   */\n      dup7\n        /* \"#utility.yul\":8453:8467   */\n      add\n        /* \"#utility.yul\":8446:8484   */\n      mstore\n        /* \"#utility.yul\":8505:8578   */\n      tag_201\n        /* \"#utility.yul\":8573:8577   */\n      dup3\n        /* \"#utility.yul\":8559:8571   */\n      dup3\n        /* \"#utility.yul\":8505:8578   */\n      tag_86\n      jump\t// in\n    tag_201:\n        /* \"#utility.yul\":8497:8578   */\n      swap2\n      pop\n        /* \"#utility.yul\":8351:8589   */\n      pop\n        /* \"#utility.yul\":8675:8679   */\n      0x60\n        /* \"#utility.yul\":8668:8673   */\n      dup4\n        /* \"#utility.yul\":8664:8680   */\n      add\n        /* \"#utility.yul\":8658:8681   */\n      mload\n        /* \"#utility.yul\":8694:8757   */\n      tag_202\n        /* \"#utility.yul\":8751:8755   */\n      0x60\n        /* \"#utility.yul\":8746:8749   */\n      dup7\n        /* \"#utility.yul\":8742:8756   */\n      add\n        /* \"#utility.yul\":8728:8740   */\n      dup3\n        /* \"#utility.yul\":8694:8757   */\n      tag_87\n      jump\t// in\n    tag_202:\n        /* \"#utility.yul\":8599:8767   */\n      pop\n        /* \"#utility.yul\":8855:8859   */\n      0x80\n        /* \"#utility.yul\":8848:8853   */\n      dup4\n        /* \"#utility.yul\":8844:8860   */\n      add\n        /* \"#utility.yul\":8838:8861   */\n      mload\n        /* \"#utility.yul\":8874:8937   */\n      tag_203\n        /* \"#utility.yul\":8931:8935   */\n      0x80\n        /* \"#utility.yul\":8926:8929   */\n      dup7\n        /* \"#utility.yul\":8922:8936   */\n      add\n        /* \"#utility.yul\":8908:8920   */\n      dup3\n        /* \"#utility.yul\":8874:8937   */\n      tag_84\n      jump\t// in\n    tag_203:\n        /* \"#utility.yul\":8777:8947   */\n      pop\n        /* \"#utility.yul\":9035:9039   */\n      0xa0\n        /* \"#utility.yul\":9028:9033   */\n      dup4\n        /* \"#utility.yul\":9024:9040   */\n      add\n        /* \"#utility.yul\":9018:9041   */\n      mload\n        /* \"#utility.yul\":9054:9117   */\n      tag_204\n        /* \"#utility.yul\":9111:9115   */\n      0xa0\n        /* \"#utility.yul\":9106:9109   */\n      dup7\n        /* \"#utility.yul\":9102:9116   */\n      add\n        /* \"#utility.yul\":9088:9100   */\n      dup3\n        /* \"#utility.yul\":9054:9117   */\n      tag_84\n      jump\t// in\n    tag_204:\n        /* \"#utility.yul\":8957:9127   */\n      pop\n        /* \"#utility.yul\":9144:9148   */\n      dup1\n        /* \"#utility.yul\":9137:9148   */\n      swap2\n      pop\n        /* \"#utility.yul\":7883:9154   */\n      pop\n        /* \"#utility.yul\":7765:9154   */\n      swap3\n      swap2\n      pop\n      pop\n      jump\t// out\n        /* \"#utility.yul\":9160:9521   */\n    tag_21:\n        /* \"#utility.yul\":9297:9301   */\n      0x00\n        /* \"#utility.yul\":9335:9337   */\n      0x20\n        /* \"#utility.yul\":9324:9333   */\n      dup3\n        /* \"#utility.yul\":9320:9338   */\n      add\n        /* \"#utility.yul\":9312:9338   */\n      swap1\n      pop\n        /* \"#utility.yul\":9384:9393   */\n      dup2\n        /* \"#utility.yul\":9378:9382   */\n      dup2\n        /* \"#utility.yul\":9374:9394   */\n      sub\n        /* \"#utility.yul\":9370:9371   */\n      0x00\n        /* \"#utility.yul\":9359:9368   */\n      dup4\n        /* \"#utility.yul\":9355:9372   */\n      add\n        /* \"#utility.yul\":9348:9395   */\n      mstore\n        /* \"#utility.yul\":9412:9514   */\n      tag_206\n        /* \"#utility.yul\":9509:9513   */\n      dup2\n        /* \"#utility.yul\":9500:9506   */\n      dup5\n        /* \"#utility.yul\":9412:9514   */\n      tag_88\n      jump\t// in\n    tag_206:\n        /* \"#utility.yul\":9404:9514   */\n      swap1\n      pop\n        /* \"#utility.yul\":9160:9521   */\n      swap3\n      swap2\n      pop\n      pop\n      jump\t// out\n        /* \"#utility.yul\":9527:9707   */\n    tag_89:\n        /* \"#utility.yul\":9575:9652   */\n      0x4e487b7100000000000000000000000000000000000000000000000000000000\n        /* \"#utility.yul\":9572:9573   */\n      0x00\n        /* \"#utility.yul\":9565:9653   */\n      mstore\n        /* \"#utility.yul\":9672:9676   */\n      0x22\n        /* \"#utility.yul\":9669:9670   */\n      0x04\n        /* \"#utility.yul\":9662:9677   */\n      mstore\n        /* \"#utility.yul\":9696:9700   */\n      0x24\n        /* \"#utility.yul\":9693:9694   */\n      0x00\n        /* \"#utility.yul\":9686:9701   */\n      revert\n        /* \"#utility.yul\":9713:10033   */\n    tag_25:\n        /* \"#utility.yul\":9757:9763   */\n      0x00\n        /* \"#utility.yul\":9794:9795   */\n      0x02\n        /* \"#utility.yul\":9788:9792   */\n      dup3\n        /* \"#utility.yul\":9784:9796   */\n      div\n        /* \"#utility.yul\":9774:9796   */\n      swap1\n      pop\n        /* \"#utility.yul\":9841:9842   */\n      0x01\n        /* \"#utility.yul\":9835:9839   */\n      dup3\n        /* \"#utility.yul\":9831:9843   */\n      and\n        /* \"#utility.yul\":9862:9880   */\n      dup1\n        /* \"#utility.yul\":9852:9933   */\n      tag_209\n      jumpi\n        /* \"#utility.yul\":9918:9922   */\n      0x7f\n        /* \"#utility.yul\":9910:9916   */\n      dup3\n        /* \"#utility.yul\":9906:9923   */\n      and\n        /* \"#utility.yul\":9896:9923   */\n      swap2\n      pop\n        /* \"#utility.yul\":9852:9933   */\n    tag_209:\n        /* \"#utility.yul\":9980:9982   */\n      0x20\n        /* \"#utility.yul\":9972:9978   */\n      dup3\n        /* \"#utility.yul\":9969:9983   */\n      lt\n        /* \"#utility.yul\":9949:9967   */\n      dup2\n        /* \"#utility.yul\":9946:9984   */\n      sub\n        /* \"#utility.yul\":9943:10027   */\n      tag_210\n      jumpi\n        /* \"#utility.yul\":9999:10017   */\n      tag_211\n      tag_89\n      jump\t// in\n    tag_211:\n        /* \"#utility.yul\":9943:10027   */\n    tag_210:\n        /* \"#utility.yul\":9764:10033   */\n      pop\n        /* \"#utility.yul\":9713:10033   */\n      swap2\n      swap1\n      pop\n      jump\t// out\n        /* \"#utility.yul\":10039:10219   */\n    tag_90:\n        /* \"#utility.yul\":10087:10164   */\n      0x4e487b7100000000000000000000000000000000000000000000000000000000\n        /* \"#utility.yul\":10084:10085   */\n      0x00\n        /* \"#utility.yul\":10077:10165   */\n      mstore\n        /* \"#utility.yul\":10184:10188   */\n      0x11\n        /* \"#utility.yul\":10181:10182   */\n      0x04\n        /* \"#utility.yul\":10174:10189   */\n      mstore\n        /* \"#utility.yul\":10208:10212   */\n      0x24\n        /* \"#utility.yul\":10205:10206   */\n      0x00\n        /* \"#utility.yul\":10198:10213   */\n      revert\n        /* \"#utility.yul\":10225:10416   */\n    tag_37:\n        /* \"#utility.yul\":10265:10268   */\n      0x00\n        /* \"#utility.yul\":10284:10304   */\n      tag_214\n        /* \"#utility.yul\":10302:10303   */\n      dup3\n        /* \"#utility.yul\":10284:10304   */\n      tag_63\n      jump\t// in\n    tag_214:\n        /* \"#utility.yul\":10279:10304   */\n      swap2\n      pop\n        /* \"#utility.yul\":10318:10338   */\n      tag_215\n        /* \"#utility.yul\":10336:10337   */\n      dup4\n        /* \"#utility.yul\":10318:10338   */\n      tag_63\n      jump\t// in\n    tag_215:\n        /* \"#utility.yul\":10313:10338   */\n      swap3\n      pop\n        /* \"#utility.yul\":10361:10362   */\n      dup3\n        /* \"#utility.yul\":10358:10359   */\n      dup3\n        /* \"#utility.yul\":10354:10363   */\n      add\n        /* \"#utility.yul\":10347:10363   */\n      swap1\n      pop\n        /* \"#utility.yul\":10382:10385   */\n      dup1\n        /* \"#utility.yul\":10379:10380   */\n      dup3\n        /* \"#utility.yul\":10376:10386   */\n      gt\n        /* \"#utility.yul\":10373:10409   */\n      iszero\n      tag_216\n      jumpi\n        /* \"#utility.yul\":10389:10407   */\n      tag_217\n      tag_90\n      jump\t// in\n    tag_217:\n        /* \"#utility.yul\":10373:10409   */\n    tag_216:\n        /* \"#utility.yul\":10225:10416   */\n      swap3\n      swap2\n      pop\n      pop\n      jump\t// out\n        /* \"#utility.yul\":10422:10563   */\n    tag_91:\n        /* \"#utility.yul\":10471:10475   */\n      0x00\n        /* \"#utility.yul\":10494:10497   */\n      dup2\n        /* \"#utility.yul\":10486:10497   */\n      swap1\n      pop\n        /* \"#utility.yul\":10517:10520   */\n      dup2\n        /* \"#utility.yul\":10514:10515   */\n      0x00\n        /* \"#utility.yul\":10507:10521   */\n      mstore\n        /* \"#utility.yul\":10551:10555   */\n      0x20\n        /* \"#utility.yul\":10548:10549   */\n      0x00\n        /* \"#utility.yul\":10538:10556   */\n      keccak256\n        /* \"#utility.yul\":10530:10556   */\n      swap1\n      pop\n        /* \"#utility.yul\":10422:10563   */\n      swap2\n      swap1\n      pop\n      jump\t// out\n        /* \"#utility.yul\":10569:10662   */\n    tag_92:\n        /* \"#utility.yul\":10606:10612   */\n      0x00\n        /* \"#utility.yul\":10653:10655   */\n      0x20\n        /* \"#utility.yul\":10648:10650   */\n      0x1f\n        /* \"#utility.yul\":10641:10646   */\n      dup4\n        /* \"#utility.yul\":10637:10651   */\n      add\n        /* \"#utility.yul\":10633:10656   */\n      div\n        /* \"#utility.yul\":10623:10656   */\n      swap1\n      pop\n        /* \"#utility.yul\":10569:10662   */\n      swap2\n      swap1\n      pop\n      jump\t// out\n        /* \"#utility.yul\":10668:10775   */\n    tag_93:\n        /* \"#utility.yul\":10712:10720   */\n      0x00\n        /* \"#utility.yul\":10762:10767   */\n      dup3\n        /* \"#utility.yul\":10756:10760   */\n      dup3\n        /* \"#utility.yul\":10752:10768   */\n      shl\n        /* \"#utility.yul\":10731:10768   */\n      swap1\n      pop\n        /* \"#utility.yul\":10668:10775   */\n      swap3\n      swap2\n      pop\n      pop\n      jump\t// out\n        /* \"#utility.yul\":10781:11174   */\n    tag_94:\n        /* \"#utility.yul\":10850:10856   */\n      0x00\n        /* \"#utility.yul\":10900:10901   */\n      0x08\n        /* \"#utility.yul\":10888:10898   */\n      dup4\n        /* \"#utility.yul\":10884:10902   */\n      mul\n        /* \"#utility.yul\":10923:11020   */\n      tag_222\n        /* \"#utility.yul\":10953:11019   */\n      0xffffffffffffffffffffffffffffffffffffffffffffffffffffffffffffffff\n        /* \"#utility.yul\":10942:10951   */\n      dup3\n        /* \"#utility.yul\":10923:11020   */\n      tag_93\n      jump\t// in\n    tag_222:\n        /* \"#utility.yul\":11041:11080   */\n      tag_223\n        /* \"#utility.yul\":11071:11079   */\n      dup7\n        /* \"#utility.yul\":11060:11069   */\n      dup4\n        /* \"#utility.yul\":11041:11080   */\n      tag_93\n      jump\t// in\n    tag_223:\n        /* \"#utility.yul\":11029:11080   */\n      swap6\n      pop\n        /* \"#utility.yul\":11113:11117   */\n      dup1\n        /* \"#utility.yul\":11109:11118   */\n      not\n        /* \"#utility.yul\":11102:11107   */\n      dup5\n        /* \"#utility.yul\":11098:11119   */\n      and\n        /* \"#utility.yul\":11089:11119   */\n      swap4\n      pop\n        /* \"#utility.yul\":11162:11166   */\n      dup1\n        /* \"#utility.yul\":11152:11160   */\n      dup7\n        /* \"#utility.yul\":11148:11167   */\n      and\n        /* \"#utility.yul\":11141:11146   */\n      dup5\n        /* \"#utility.yul\":11138:11168   */\n      or\n        /* \"#utility.yul\":11128:11168   */\n      swap3\n      pop\n        /* \"#utility.yul\":10857:11174   */\n      pop\n      pop\n        /* \"#utility.yul\":10781:11174   */\n      swap4\n      swap3\n      pop\n      pop\n      pop\n      jump\t// out\n        /* \"#utility.yul\":11180:11240   */\n    tag_95:\n        /* \"#utility.yul\":11208:11211   */\n      0x00\n        /* \"#utility.yul\":11229:11234   */\n      dup2\n        /* \"#utility.yul\":11222:11234   */\n      swap1\n      pop\n        /* \"#utility.yul\":11180:11240   */\n      swap2\n      swap1\n      pop\n      jump\t// out\n        /* \"#utility.yul\":11246:11388   */\n    tag_96:\n        /* \"#utility.yul\":11296:11305   */\n      0x00\n        /* \"#utility.yul\":11329:11382   */\n      tag_226\n        /* \"#utility.yul\":11347:11381   */\n      tag_227\n        /* \"#utility.yul\":11356:11380   */\n      tag_228\n        /* \"#utility.yul\":11374:11379   */\n      dup5\n        /* \"#utility.yul\":11356:11380   */\n      tag_63\n      jump\t// in\n    tag_228:\n        /* \"#utility.yul\":11347:11381   */\n      tag_95\n      jump\t// in\n    tag_227:\n        /* \"#utility.yul\":11329:11382   */\n      tag_63\n      jump\t// in\n    tag_226:\n        /* \"#utility.yul\":11316:11382   */\n      swap1\n      pop\n        /* \"#utility.yul\":11246:11388   */\n      swap2\n      swap1\n      pop\n      jump\t// out\n        /* \"#utility.yul\":11394:11469   */\n    tag_97:\n        /* \"#utility.yul\":11437:11440   */\n      0x00\n        /* \"#utility.yul\":11458:11463   */\n      dup2\n        /* \"#utility.yul\":11451:11463   */\n      swap1\n      pop\n        /* \"#utility.yul\":11394:11469   */\n      swap2\n      swap1\n      pop\n      jump\t// out\n        /* \"#utility.yul\":11475:11744   */\n    tag_98:\n        /* \"#utility.yul\":11585:11624   */\n      tag_231\n        /* \"#utility.yul\":11616:11623   */\n      dup4\n        /* \"#utility.yul\":11585:11624   */\n      tag_96\n      jump\t// in\n    tag_231:\n        /* \"#utility.yul\":11646:11737   */\n      tag_232\n        /* \"#utility.yul\":11695:11736   */\n      tag_233\n        /* \"#utility.yul\":11719:11735   */\n      dup3\n        /* \"#utility.yul\":11695:11736   */\n      tag_97\n      jump\t// in\n    tag_233:\n        /* \"#utility.yul\":11687:11693   */\n      dup5\n        /* \"#utility.yul\":11680:11684   */\n      dup5\n        /* \"#utility.yul\":11674:11685   */\n      sload\n        /* \"#utility.yul\":11646:11737   */\n      tag_94\n      jump\t// in\n    tag_232:\n        /* \"#utility.yul\":11640:11644   */\n      dup3\n        /* \"#utility.yul\":11633:11738   */\n      sstore\n        /* \"#utility.yul\":11551:11744   */\n      pop\n        /* \"#utility.yul\":11475:11744   */\n      pop\n      pop\n      pop\n      jump\t// out\n        /* \"#utility.yul\":11750:11823   */\n    tag_99:\n        /* \"#utility.yul\":11795:11798   */\n      0x00\n        /* \"#utility.yul\":11750:11823   */\n      swap1\n      jump\t// out\n        /* \"#utility.yul\":11829:12018   */\n    tag_100:\n        /* \"#utility.yul\":11906:11938   */\n      tag_236\n      tag_99\n      jump\t// in\n    tag_236:\n        /* \"#utility.yul\":11947:12012   */\n      tag_237\n        /* \"#utility.yul\":12005:12011   */\n      dup2\n        /* \"#utility.yul\":11997:12003   */\n      dup5\n        /* \"#utility.yul\":11991:11995   */\n      dup5\n        /* \"#utility.yul\":11947:12012   */\n      tag_98\n      jump\t// in\n    tag_237:\n        /* \"#utility.yul\":11882:12018   */\n      pop\n        /* \"#utility.yul\":11829:12018   */\n      pop\n      pop\n      jump\t// out\n        /* \"#utility.yul\":12024:12210   */\n    tag_101:\n        /* \"#utility.yul\":12084:12204   */\n    tag_239:\n        /* \"#utility.yul\":12101:12104   */\n      dup2\n        /* \"#utility.yul\":12094:12099   */\n      dup2\n        /* \"#utility.yul\":12091:12105   */\n      lt\n        /* \"#utility.yul\":12084:12204   */\n      iszero\n      tag_241\n      jumpi\n        /* \"#utility.yul\":12155:12194   */\n      tag_242\n        /* \"#utility.yul\":12192:12193   */\n      0x00\n        /* \"#utility.yul\":12185:12190   */\n      dup3\n        /* \"#utility.yul\":12155:12194   */\n      tag_100\n      jump\t// in\n    tag_242:\n        /* \"#utility.yul\":12128:12129   */\n      0x01\n        /* \"#utility.yul\":12121:12126   */\n      dup2\n        /* \"#utility.yul\":12117:12130   */\n      add\n        /* \"#utility.yul\":12108:12130   */\n      swap1\n      pop\n        /* \"#utility.yul\":12084:12204   */\n      jump(tag_239)\n    tag_241:\n        /* \"#utility.yul\":12024:12210   */\n      pop\n      pop\n      jump\t// out\n        /* \"#utility.yul\":12216:12759   */\n    tag_102:\n        /* \"#utility.yul\":12317:12319   */\n      0x1f\n        /* \"#utility.yul\":12312:12315   */\n      dup3\n        /* \"#utility.yul\":12309:12320   */\n      gt\n        /* \"#utility.yul\":12306:12752   */\n      iszero\n      tag_244\n      jumpi\n        /* \"#utility.yul\":12351:12389   */\n      tag_245\n        /* \"#utility.yul\":12383:12388   */\n      dup2\n        /* \"#utility.yul\":12351:12389   */\n      tag_91\n      jump\t// in\n    tag_245:\n        /* \"#utility.yul\":12435:12464   */\n      tag_246\n        /* \"#utility.yul\":12453:12463   */\n      dup5\n        /* \"#utility.yul\":12435:12464   */\n      tag_92\n      jump\t// in\n    tag_246:\n        /* \"#utility.yul\":12425:12433   */\n      dup2\n        /* \"#utility.yul\":12421:12465   */\n      add\n        /* \"#utility.yul\":12618:12620   */\n      0x20\n        /* \"#utility.yul\":12606:12616   */\n      dup6\n        /* \"#utility.yul\":12603:12621   */\n      lt\n        /* \"#utility.yul\":12600:12649   */\n      iszero\n      tag_247\n      jumpi\n        /* \"#utility.yul\":12639:12647   */\n      dup2\n        /* \"#utility.yul\":12624:12647   */\n      swap1\n      pop\n        /* \"#utility.yul\":12600:12649   */\n    tag_247:\n        /* \"#utility.yul\":12662:12742   */\n      tag_248\n        /* \"#utility.yul\":12718:12740   */\n      tag_249\n        /* \"#utility.yul\":12736:12739   */\n      dup6\n        /* \"#utility.yul\":12718:12740   */\n      tag_92\n      jump\t// in\n    tag_249:\n        /* \"#utility.yul\":12708:12716   */\n      dup4\n        /* \"#utility.yul\":12704:12741   */\n      add\n        /* \"#utility.yul\":12691:12702   */\n      dup3\n        /* \"#utility.yul\":12662:12742   */\n      tag_101\n      jump\t// in\n    tag_248:\n        /* \"#utility.yul\":12321:12752   */\n      pop\n      pop\n        /* \"#utility.yul\":12306:12752   */\n    tag_244:\n        /* \"#utility.yul\":12216:12759   */\n      pop\n      pop\n      pop\n      jump\t// out\n        /* \"#utility.yul\":12765:12882   */\n    tag_103:\n        /* \"#utility.yul\":12819:12827   */\n      0x00\n        /* \"#utility.yul\":12869:12874   */\n      dup3\n        /* \"#utility.yul\":12863:12867   */\n      dup3\n        /* \"#utility.yul\":12859:12875   */\n      shr\n        /* \"#utility.yul\":12838:12875   */\n      swap1\n      pop\n        /* \"#utility.yul\":12765:12882   */\n      swap3\n      swap2\n      pop\n      pop\n      jump\t// out\n        /* \"#utility.yul\":12888:13057   */\n    tag_104:\n        /* \"#utility.yul\":12932:12938   */\n      0x00\n        /* \"#utility.yul\":12965:13016   */\n      tag_252\n        /* \"#utility.yul\":13013:13014   */\n      0x00\n        /* \"#utility.yul\":13009:13015   */\n      not\n        /* \"#utility.yul\":13001:13006   */\n      dup5\n        /* \"#utility.yul\":12998:12999   */\n      0x08\n        /* \"#utility.yul\":12994:13007   */\n      mul\n        /* \"#utility.yul\":12965:13016   */\n      tag_103\n      jump\t// in\n    tag_252:\n        /* \"#utility.yul\":12961:13017   */\n      not\n        /* \"#utility.yul\":13046:13050   */\n      dup1\n        /* \"#utility.yul\":13040:13044   */\n      dup4\n        /* \"#utility.yul\":13036:13051   */\n      and\n        /* \"#utility.yul\":13026:13051   */\n      swap2\n      pop\n        /* \"#utility.yul\":12939:13057   */\n      pop\n        /* \"#utility.yul\":12888:13057   */\n      swap3\n      swap2\n      pop\n      pop\n      jump\t// out\n        /* \"#utility.yul\":13062:13357   */\n    tag_105:\n        /* \"#utility.yul\":13138:13142   */\n      0x00\n        /* \"#utility.yul\":13284:13313   */\n      tag_254\n        /* \"#utility.yul\":13309:13312   */\n      dup4\n        /* \"#utility.yul\":13303:13307   */\n      dup4\n        /* \"#utility.yul\":13284:13313   */\n      tag_104\n      jump\t// in\n    tag_254:\n        /* \"#utility.yul\":13276:13313   */\n      swap2\n      pop\n        /* \"#utility.yul\":13346:13349   */\n      dup3\n        /* \"#utility.yul\":13343:13344   */\n      0x02\n        /* \"#utility.yul\":13339:13350   */\n      mul\n        /* \"#utility.yul\":13333:13337   */\n      dup3\n        /* \"#utility.yul\":13330:13351   */\n      or\n        /* \"#utility.yul\":13322:13351   */\n      swap1\n      pop\n        /* \"#utility.yul\":13062:13357   */\n      swap3\n      swap2\n      pop\n      pop\n      jump\t// out\n        /* \"#utility.yul\":13362:14757   */\n    tag_40:\n        /* \"#utility.yul\":13479:13516   */\n      tag_256\n        /* \"#utility.yul\":13512:13515   */\n      dup3\n        /* \"#utility.yul\":13479:13516   */\n      tag_67\n      jump\t// in\n    tag_256:\n        /* \"#utility.yul\":13581:13599   */\n      0xffffffffffffffff\n        /* \"#utility.yul\":13573:13579   */\n      dup2\n        /* \"#utility.yul\":13570:13600   */\n      gt\n        /* \"#utility.yul\":13567:13623   */\n      iszero\n      tag_257\n      jumpi\n        /* \"#utility.yul\":13603:13621   */\n      tag_258\n      tag_77\n      jump\t// in\n    tag_258:\n        /* \"#utility.yul\":13567:13623   */\n    tag_257:\n        /* \"#utility.yul\":13647:13685   */\n      tag_259\n        /* \"#utility.yul\":13679:13683   */\n      dup3\n        /* \"#utility.yul\":13673:13684   */\n      sload\n        /* \"#utility.yul\":13647:13685   */\n      tag_25\n      jump\t// in\n    tag_259:\n        /* \"#utility.yul\":13732:13799   */\n      tag_260\n        /* \"#utility.yul\":13792:13798   */\n      dup3\n        /* \"#utility.yul\":13784:13790   */\n      dup3\n        /* \"#utility.yul\":13778:13782   */\n      dup6\n        /* \"#utility.yul\":13732:13799   */\n      tag_102\n      jump\t// in\n    tag_260:\n        /* \"#utility.yul\":13826:13827   */\n      0x00\n        /* \"#utility.yul\":13850:13854   */\n      0x20\n        /* \"#utility.yul\":13837:13854   */\n      swap1\n      pop\n        /* \"#utility.yul\":13882:13884   */\n      0x1f\n        /* \"#utility.yul\":13874:13880   */\n      dup4\n        /* \"#utility.yul\":13871:13885   */\n      gt\n        /* \"#utility.yul\":13899:13900   */\n      0x01\n        /* \"#utility.yul\":13894:14512   */\n      dup2\n      eq\n      tag_262\n      jumpi\n        /* \"#utility.yul\":14556:14557   */\n      0x00\n        /* \"#utility.yul\":14573:14579   */\n      dup5\n        /* \"#utility.yul\":14570:14647   */\n      iszero\n      tag_263\n      jumpi\n        /* \"#utility.yul\":14622:14631   */\n      dup3\n        /* \"#utility.yul\":14617:14620   */\n      dup8\n        /* \"#utility.yul\":14613:14632   */\n      add\n        /* \"#utility.yul\":14607:14633   */\n      mload\n        /* \"#utility.yul\":14598:14633   */\n      swap1\n      pop\n        /* \"#utility.yul\":14570:14647   */\n    tag_263:\n        /* \"#utility.yul\":14673:14740   */\n      tag_264\n        /* \"#utility.yul\":14733:14739   */\n      dup6\n        /* \"#utility.yul\":14726:14731   */\n      dup3\n        /* \"#utility.yul\":14673:14740   */\n      tag_105\n      jump\t// in\n    tag_264:\n        /* \"#utility.yul\":14667:14671   */\n      dup7\n        /* \"#utility.yul\":14660:14741   */\n      sstore\n        /* \"#utility.yul\":14529:14751   */\n      pop\n        /* \"#utility.yul\":13864:14751   */\n      jump(tag_261)\n        /* \"#utility.yul\":13894:14512   */\n    tag_262:\n        /* \"#utility.yul\":13946:13950   */\n      0x1f\n        /* \"#utility.yul\":13942:13951   */\n      not\n        /* \"#utility.yul\":13934:13940   */\n      dup5\n        /* \"#utility.yul\":13930:13952   */\n      and\n        /* \"#utility.yul\":13980:14017   */\n      tag_265\n        /* \"#utility.yul\":14012:14016   */\n      dup7\n        /* \"#utility.yul\":13980:14017   */\n      tag_91\n      jump\t// in\n    tag_265:\n        /* \"#utility.yul\":14039:14040   */\n      0x00\n        /* \"#utility.yul\":14053:14261   */\n    tag_266:\n        /* \"#utility.yul\":14067:14074   */\n      dup3\n        /* \"#utility.yul\":14064:14065   */\n      dup2\n        /* \"#utility.yul\":14061:14075   */\n      lt\n        /* \"#utility.yul\":14053:14261   */\n      iszero\n      tag_268\n      jumpi\n        /* \"#utility.yul\":14146:14155   */\n      dup5\n        /* \"#utility.yul\":14141:14144   */\n      dup10\n        /* \"#utility.yul\":14137:14156   */\n      add\n        /* \"#utility.yul\":14131:14157   */\n      mload\n        /* \"#utility.yul\":14123:14129   */\n      dup3\n        /* \"#utility.yul\":14116:14158   */\n      sstore\n        /* \"#utility.yul\":14197:14198   */\n      0x01\n        /* \"#utility.yul\":14189:14195   */\n      dup3\n        /* \"#utility.yul\":14185:14199   */\n      add\n        /* \"#utility.yul\":14175:14199   */\n      swap2\n      pop\n        /* \"#utility.yul\":14244:14246   */\n      0x20\n        /* \"#utility.yul\":14233:14242   */\n      dup6\n        /* \"#utility.yul\":14229:14247   */\n      add\n        /* \"#utility.yul\":14216:14247   */\n      swap5\n      pop\n        /* \"#utility.yul\":14090:14094   */\n      0x20\n        /* \"#utility.yul\":14087:14088   */\n      dup2\n        /* \"#utility.yul\":14083:14095   */\n      add\n        /* \"#utility.yul\":14078:14095   */\n      swap1\n      pop\n        /* \"#utility.yul\":14053:14261   */\n      jump(tag_266)\n    tag_268:\n        /* \"#utility.yul\":14289:14295   */\n      dup7\n        /* \"#utility.yul\":14280:14287   */\n      dup4\n        /* \"#utility.yul\":14277:14296   */\n      lt\n        /* \"#utility.yul\":14274:14453   */\n      iszero\n      tag_269\n      jumpi\n        /* \"#utility.yul\":14347:14356   */\n      dup5\n        /* \"#utility.yul\":14342:14345   */\n      dup10\n        /* \"#utility.yul\":14338:14357   */\n      add\n        /* \"#utility.yul\":14332:14358   */\n      mload\n        /* \"#utility.yul\":14390:14438   */\n      tag_270\n        /* \"#utility.yul\":14432:14436   */\n      0x1f\n        /* \"#utility.yul\":14424:14430   */\n      dup10\n        /* \"#utility.yul\":14420:14437   */\n      and\n        /* \"#utility.yul\":14409:14418   */\n      dup3\n        /* \"#utility.yul\":14390:14438   */\n      tag_104\n      jump\t// in\n    tag_270:\n        /* \"#utility.yul\":14382:14388   */\n      dup4\n        /* \"#utility.yul\":14375:14439   */\n      sstore\n        /* \"#utility.yul\":14297:14453   */\n      pop\n        /* \"#utility.yul\":14274:14453   */\n    tag_269:\n        /* \"#utility.yul\":14499:14500   */\n      0x01\n        /* \"#utility.yul\":14495:14496   */\n      0x02\n        /* \"#utility.yul\":14487:14493   */\n      dup9\n        /* \"#utility.yul\":14483:14497   */\n      mul\n        /* \"#utility.yul\":14479:14501   */\n      add\n        /* \"#utility.yul\":14473:14477   */\n      dup9\n        /* \"#utility.yul\":14466:14502   */\n      sstore\n        /* \"#utility.yul\":13901:14512   */\n      pop\n      pop\n      pop\n        /* \"#utility.yul\":13864:14751   */\n    tag_261:\n      pop\n        /* \"#utility.yul\":13454:14757   */\n      pop\n      pop\n      pop\n        /* \"#utility.yul\":13362:14757   */\n      pop\n      pop\n      jump\t// out\n        /* \"#utility.yul\":14763:14911   */\n    tag_106:\n        /* \"#utility.yul\":14865:14876   */\n      0x00\n        /* \"#utility.yul\":14902:14905   */\n      dup2\n        /* \"#utility.yul\":14887:14905   */\n      swap1\n      pop\n        /* \"#utility.yul\":14763:14911   */\n      swap3\n      swap2\n      pop\n      pop\n      jump\t// out\n        /* \"#utility.yul\":14917:15307   */\n    tag_107:\n        /* \"#utility.yul\":15023:15026   */\n      0x00\n        /* \"#utility.yul\":15051:15090   */\n      tag_273\n        /* \"#utility.yul\":15084:15089   */\n      dup3\n        /* \"#utility.yul\":15051:15090   */\n      tag_67\n      jump\t// in\n    tag_273:\n        /* \"#utility.yul\":15106:15195   */\n      tag_274\n        /* \"#utility.yul\":15188:15194   */\n      dup2\n        /* \"#utility.yul\":15183:15186   */\n      dup6\n        /* \"#utility.yul\":15106:15195   */\n      tag_106\n      jump\t// in\n    tag_274:\n        /* \"#utility.yul\":15099:15195   */\n      swap4\n      pop\n        /* \"#utility.yul\":15204:15269   */\n      tag_275\n        /* \"#utility.yul\":15262:15268   */\n      dup2\n        /* \"#utility.yul\":15257:15260   */\n      dup6\n        /* \"#utility.yul\":15250:15254   */\n      0x20\n        /* \"#utility.yul\":15243:15248   */\n      dup7\n        /* \"#utility.yul\":15239:15255   */\n      add\n        /* \"#utility.yul\":15204:15269   */\n      tag_69\n      jump\t// in\n    tag_275:\n        /* \"#utility.yul\":15294:15300   */\n      dup1\n        /* \"#utility.yul\":15289:15292   */\n      dup5\n        /* \"#utility.yul\":15285:15301   */\n      add\n        /* \"#utility.yul\":15278:15301   */\n      swap2\n      pop\n        /* \"#utility.yul\":15027:15307   */\n      pop\n        /* \"#utility.yul\":14917:15307   */\n      swap3\n      swap2\n      pop\n      pop\n      jump\t// out\n        /* \"#utility.yul\":15313:15588   */\n    tag_43:\n        /* \"#utility.yul\":15445:15448   */\n      0x00\n        /* \"#utility.yul\":15467:15562   */\n      tag_277\n        /* \"#utility.yul\":15558:15561   */\n      dup3\n        /* \"#utility.yul\":15549:15555   */\n      dup5\n        /* \"#utility.yul\":15467:15562   */\n      tag_107\n      jump\t// in\n    tag_277:\n        /* \"#utility.yul\":15460:15562   */\n      swap2\n      pop\n        /* \"#utility.yul\":15579:15582   */\n      dup2\n        /* \"#utility.yul\":15572:15582   */\n      swap1\n      pop\n        /* \"#utility.yul\":15313:15588   */\n      swap3\n      swap2\n      pop\n      pop\n      jump\t// out\n\n    auxdata: 0xa2646970667358221220b66567e01684a6a9c3605adb957c65f9333a29ed61589bb800abb18592af5fb964736f6c63430008120033\n}\n",
				"bytecode": {
					"linkReferences": {},
					"object": "608060405234801561001057600080fd5b50610f12806100206000396000f3fe608060405234801561001057600080fd5b50600436106100415760003560e01c80633c4a819c1461004657806374e8e3401461007b578063c2e0a53814610097575b600080fd5b610060600480360381019061005b91906106bc565b6100c7565b604051610072969594939291906107c9565b60405180910390f35b6100956004803603810190610090919061096d565b610243565b005b6100b160048036038101906100ac91906109e5565b610456565b6040516100be9190610b26565b60405180910390f35b600181815481106100d757600080fd5b906000526020600020906006020160009150905080600001549080600101805461010090610b77565b80601f016020809104026020016040519081016040528092919081815260200182805461012c90610b77565b80156101795780601f1061014e57610100808354040283529160200191610179565b820191906000526020600020905b81548152906001019060200180831161015c57829003601f168201915b50505050509080600201805461018e90610b77565b80601f01602080910402602001604051908101604052809291908181526020018280546101ba90610b77565b80156102075780601f106101dc57610100808354040283529160200191610207565b820191906000526020600020905b8154815290600101906020018083116101ea57829003601f168201915b5050505050908060030160009054906101000a900473ffffffffffffffffffffffffffffffffffffffff16908060040154908060050154905086565b60016040518060c00160405280600180805490506102619190610bd7565b81526020018481526020018381526020013373ffffffffffffffffffffffffffffffffffffffff16815260200160008152602001600081525090806001815401808255809150506001900390600052602060002090600602016000909190919091506000820151816000015560208201518160010190816102e29190610db7565b5060408201518160020190816102f89190610db7565b5060608201518160030160006101000a81548173ffffffffffffffffffffffffffffffffffffffff021916908373ffffffffffffffffffffffffffffffffffffffff1602179055506080820151816004015560a0820151816005015550506040518060c0016040528060018054905081526020018381526020018281526020013373ffffffffffffffffffffffffffffffffffffffff1681526020016000815260200160008152506000836040516103b09190610ec5565b90815260200160405180910390206000820151816000015560208201518160010190816103dd9190610db7565b5060408201518160020190816103f39190610db7565b5060608201518160030160006101000a81548173ffffffffffffffffffffffffffffffffffffffff021916908373ffffffffffffffffffffffffffffffffffffffff1602179055506080820151816004015560a082015181600501559050505050565b61045e610626565b60008260405161046e9190610ec5565b90815260200160405180910390206040518060c0016040529081600082015481526020016001820180546104a190610b77565b80601f01602080910402602001604051908101604052809291908181526020018280546104cd90610b77565b801561051a5780601f106104ef5761010080835404028352916020019161051a565b820191906000526020600020905b8154815290600101906020018083116104fd57829003601f168201915b5050505050815260200160028201805461053390610b77565b80601f016020809104026020016040519081016040528092919081815260200182805461055f90610b77565b80156105ac5780601f10610581576101008083540402835291602001916105ac565b820191906000526020600020905b81548152906001019060200180831161058f57829003601f168201915b505050505081526020016003820160009054906101000a900473ffffffffffffffffffffffffffffffffffffffff1673ffffffffffffffffffffffffffffffffffffffff1673ffffffffffffffffffffffffffffffffffffffff168152602001600482015481526020016005820154815250509050919050565b6040518060c00160405280600081526020016060815260200160608152602001600073ffffffffffffffffffffffffffffffffffffffff16815260200160008152602001600081525090565b6000604051905090565b600080fd5b600080fd5b6000819050919050565b61069981610686565b81146106a457600080fd5b50565b6000813590506106b681610690565b92915050565b6000602082840312156106d2576106d161067c565b5b60006106e0848285016106a7565b91505092915050565b6106f281610686565b82525050565b600081519050919050565b600082825260208201905092915050565b60005b83811015610732578082015181840152602081019050610717565b60008484015250505050565b6000601f19601f8301169050919050565b600061075a826106f8565b6107648185610703565b9350610774818560208601610714565b61077d8161073e565b840191505092915050565b600073ffffffffffffffffffffffffffffffffffffffff82169050919050565b60006107b382610788565b9050919050565b6107c3816107a8565b82525050565b600060c0820190506107de60008301896106e9565b81810360208301526107f0818861074f565b90508181036040830152610804818761074f565b905061081360608301866107ba565b61082060808301856106e9565b61082d60a08301846106e9565b979650505050505050565b600080fd5b600080fd5b7f4e487b7100000000000000000000000000000000000000000000000000000000600052604160045260246000fd5b61087a8261073e565b810181811067ffffffffffffffff8211171561089957610898610842565b5b80604052505050565b60006108ac610672565b90506108b88282610871565b919050565b600067ffffffffffffffff8211156108d8576108d7610842565b5b6108e18261073e565b9050602081019050919050565b82818337600083830152505050565b600061091061090b846108bd565b6108a2565b90508281526020810184848401111561092c5761092b61083d565b5b6109378482856108ee565b509392505050565b600082601f83011261095457610953610838565b5b81356109648482602086016108fd565b91505092915050565b600080604083850312156109845761098361067c565b5b600083013567ffffffffffffffff8111156109a2576109a1610681565b5b6109ae8582860161093f565b925050602083013567ffffffffffffffff8111156109cf576109ce610681565b5b6109db8582860161093f565b9150509250929050565b6000602082840312156109fb576109fa61067c565b5b600082013567ffffffffffffffff811115610a1957610a18610681565b5b610a258482850161093f565b91505092915050565b610a3781610686565b82525050565b600082825260208201905092915050565b6000610a59826106f8565b610a638185610a3d565b9350610a73818560208601610714565b610a7c8161073e565b840191505092915050565b610a90816107a8565b82525050565b600060c083016000830151610aae6000860182610a2e565b5060208301518482036020860152610ac68282610a4e565b91505060408301518482036040860152610ae08282610a4e565b9150506060830151610af56060860182610a87565b506080830151610b086080860182610a2e565b5060a0830151610b1b60a0860182610a2e565b508091505092915050565b60006020820190508181036000830152610b408184610a96565b905092915050565b7f4e487b7100000000000000000000000000000000000000000000000000000000600052602260045260246000fd5b60006002820490506001821680610b8f57607f821691505b602082108103610ba257610ba1610b48565b5b50919050565b7f4e487b7100000000000000000000000000000000000000000000000000000000600052601160045260246000fd5b6000610be282610686565b9150610bed83610686565b9250828201905080821115610c0557610c04610ba8565b5b92915050565b60008190508160005260206000209050919050565b60006020601f8301049050919050565b600082821b905092915050565b600060088302610c6d7fffffffffffffffffffffffffffffffffffffffffffffffffffffffffffffffff82610c30565b610c778683610c30565b95508019841693508086168417925050509392505050565b6000819050919050565b6000610cb4610caf610caa84610686565b610c8f565b610686565b9050919050565b6000819050919050565b610cce83610c99565b610ce2610cda82610cbb565b848454610c3d565b825550505050565b600090565b610cf7610cea565b610d02818484610cc5565b505050565b5b81811015610d2657610d1b600082610cef565b600181019050610d08565b5050565b601f821115610d6b57610d3c81610c0b565b610d4584610c20565b81016020851015610d54578190505b610d68610d6085610c20565b830182610d07565b50505b505050565b600082821c905092915050565b6000610d8e60001984600802610d70565b1980831691505092915050565b6000610da78383610d7d565b9150826002028217905092915050565b610dc0826106f8565b67ffffffffffffffff811115610dd957610dd8610842565b5b610de38254610b77565b610dee828285610d2a565b600060209050601f831160018114610e215760008415610e0f578287015190505b610e198582610d9b565b865550610e81565b601f198416610e2f86610c0b565b60005b82811015610e5757848901518255600182019150602085019450602081019050610e32565b86831015610e745784890151610e70601f891682610d7d565b8355505b6001600288020188555050505b505050505050565b600081905092915050565b6000610e9f826106f8565b610ea98185610e89565b9350610eb9818560208601610714565b80840191505092915050565b6000610ed18284610e94565b91508190509291505056fea2646970667358221220b66567e01684a6a9c3605adb957c65f9333a29ed61589bb800abb18592af5fb964736f6c63430008120033",
					"opcodes": "PUSH1 0x80 PUSH1 0x40 MSTORE CALLVALUE DUP1 ISZERO PUSH2 0x10 JUMPI PUSH1 0x0 DUP1 REVERT JUMPDEST POP PUSH2 0xF12 DUP1 PUSH2 0x20 PUSH1 0x0 CODECOPY PUSH1 0x0 RETURN INVALID PUSH1 0x80 PUSH1 0x40 MSTORE CALLVALUE DUP1 ISZERO PUSH2 0x10 JUMPI PUSH1 0x0 DUP1 REVERT JUMPDEST POP PUSH1 0x4 CALLDATASIZE LT PUSH2 0x41 JUMPI PUSH1 0x0 CALLDATALOAD PUSH1 0xE0 SHR DUP1 PUSH4 0x3C4A819C EQ PUSH2 0x46 JUMPI DUP1 PUSH4 0x74E8E340 EQ PUSH2 0x7B JUMPI DUP1 PUSH4 0xC2E0A538 EQ PUSH2 0x97 JUMPI JUMPDEST PUSH1 0x0 DUP1 REVERT JUMPDEST PUSH2 0x60 PUSH1 0x4 DUP1 CALLDATASIZE SUB DUP2 ADD SWAP1 PUSH2 0x5B SWAP2 SWAP1 PUSH2 0x6BC JUMP JUMPDEST PUSH2 0xC7 JUMP JUMPDEST PUSH1 0x40 MLOAD PUSH2 0x72 SWAP7 SWAP6 SWAP5 SWAP4 SWAP3 SWAP2 SWAP1 PUSH2 0x7C9 JUMP JUMPDEST PUSH1 0x40 MLOAD DUP1 SWAP2 SUB SWAP1 RETURN JUMPDEST PUSH2 0x95 PUSH1 0x4 DUP1 CALLDATASIZE SUB DUP2 ADD SWAP1 PUSH2 0x90 SWAP2 SWAP1 PUSH2 0x96D JUMP JUMPDEST PUSH2 0x243 JUMP JUMPDEST STOP JUMPDEST PUSH2 0xB1 PUSH1 0x4 DUP1 CALLDATASIZE SUB DUP2 ADD SWAP1 PUSH2 0xAC SWAP2 SWAP1 PUSH2 0x9E5 JUMP JUMPDEST PUSH2 0x456 JUMP JUMPDEST PUSH1 0x40 MLOAD PUSH2 0xBE SWAP2 SWAP1 PUSH2 0xB26 JUMP JUMPDEST PUSH1 0x40 MLOAD DUP1 SWAP2 SUB SWAP1 RETURN JUMPDEST PUSH1 0x1 DUP2 DUP2 SLOAD DUP2 LT PUSH2 0xD7 JUMPI PUSH1 0x0 DUP1 REVERT JUMPDEST SWAP1 PUSH1 0x0 MSTORE PUSH1 0x20 PUSH1 0x0 KECCAK256 SWAP1 PUSH1 0x6 MUL ADD PUSH1 0x0 SWAP2 POP SWAP1 POP DUP1 PUSH1 0x0 ADD SLOAD SWAP1 DUP1 PUSH1 0x1 ADD DUP1 SLOAD PUSH2 0x100 SWAP1 PUSH2 0xB77 JUMP JUMPDEST DUP1 PUSH1 0x1F ADD PUSH1 0x20 DUP1 SWAP2 DIV MUL PUSH1 0x20 ADD PUSH1 0x40 MLOAD SWAP1 DUP2 ADD PUSH1 0x40 MSTORE DUP1 SWAP3 SWAP2 SWAP1 DUP2 DUP2 MSTORE PUSH1 0x20 ADD DUP3 DUP1 SLOAD PUSH2 0x12C SWAP1 PUSH2 0xB77 JUMP JUMPDEST DUP1 ISZERO PUSH2 0x179 JUMPI DUP1 PUSH1 0x1F LT PUSH2 0x14E JUMPI PUSH2 0x100 DUP1 DUP4 SLOAD DIV MUL DUP4 MSTORE SWAP2 PUSH1 0x20 ADD SWAP2 PUSH2 0x179 JUMP JUMPDEST DUP3 ADD SWAP2 SWAP1 PUSH1 0x0 MSTORE PUSH1 0x20 PUSH1 0x0 KECCAK256 SWAP1 JUMPDEST DUP2 SLOAD DUP2 MSTORE SWAP1 PUSH1 0x1 ADD SWAP1 PUSH1 0x20 ADD DUP1 DUP4 GT PUSH2 0x15C JUMPI DUP3 SWAP1 SUB PUSH1 0x1F AND DUP3 ADD SWAP2 JUMPDEST POP POP POP POP POP SWAP1 DUP1 PUSH1 0x2 ADD DUP1 SLOAD PUSH2 0x18E SWAP1 PUSH2 0xB77 JUMP JUMPDEST DUP1 PUSH1 0x1F ADD PUSH1 0x20 DUP1 SWAP2 DIV MUL PUSH1 0x20 ADD PUSH1 0x40 MLOAD SWAP1 DUP2 ADD PUSH1 0x40 MSTORE DUP1 SWAP3 SWAP2 SWAP1 DUP2 DUP2 MSTORE PUSH1 0x20 ADD DUP3 DUP1 SLOAD PUSH2 0x1BA SWAP1 PUSH2 0xB77 JUMP JUMPDEST DUP1 ISZERO PUSH2 0x207 JUMPI DUP1 PUSH1 0x1F LT PUSH2 0x1DC JUMPI PUSH2 0x100 DUP1 DUP4 SLOAD DIV MUL DUP4 MSTORE SWAP2 PUSH1 0x20 ADD SWAP2 PUSH2 0x207 JUMP JUMPDEST DUP3 ADD SWAP2 SWAP1 PUSH1 0x0 MSTORE PUSH1 0x20 PUSH1 0x0 KECCAK256 SWAP1 JUMPDEST DUP2 SLOAD DUP2 MSTORE SWAP1 PUSH1 0x1 ADD SWAP1 PUSH1 0x20 ADD DUP1 DUP4 GT PUSH2 0x1EA JUMPI DUP3 SWAP1 SUB PUSH1 0x1F AND DUP3 ADD SWAP2 JUMPDEST POP POP POP POP POP SWAP1 DUP1 PUSH1 0x3 ADD PUSH1 0x0 SWAP1 SLOAD SWAP1 PUSH2 0x100 EXP SWAP1 DIV PUSH20 0xFFFFFFFFFFFFFFFFFFFFFFFFFFFFFFFFFFFFFFFF AND SWAP1 DUP1 PUSH1 0x4 ADD SLOAD SWAP1 DUP1 PUSH1 0x5 ADD SLOAD SWAP1 POP DUP7 JUMP JUMPDEST PUSH1 0x1 PUSH1 0x40 MLOAD DUP1 PUSH1 0xC0 ADD PUSH1 0x40 MSTORE DUP1 PUSH1 0x1 DUP1 DUP1 SLOAD SWAP1 POP PUSH2 0x261 SWAP2 SWAP1 PUSH2 0xBD7 JUMP JUMPDEST DUP2 MSTORE PUSH1 0x20 ADD DUP5 DUP2 MSTORE PUSH1 0x20 ADD DUP4 DUP2 MSTORE PUSH1 0x20 ADD CALLER PUSH20 0xFFFFFFFFFFFFFFFFFFFFFFFFFFFFFFFFFFFFFFFF AND DUP2 MSTORE PUSH1 0x20 ADD PUSH1 0x0 DUP2 MSTORE PUSH1 0x20 ADD PUSH1 0x0 DUP2 MSTORE POP SWAP1 DUP1 PUSH1 0x1 DUP2 SLOAD ADD DUP1 DUP3 SSTORE DUP1 SWAP2 POP POP PUSH1 0x1 SWAP1 SUB SWAP1 PUSH1 0x0 MSTORE PUSH1 0x20 PUSH1 0x0 KECCAK256 SWAP1 PUSH1 0x6 MUL ADD PUSH1 0x0 SWAP1 SWAP2 SWAP1 SWAP2 SWAP1 SWAP2 POP PUSH1 0x0 DUP3 ADD MLOAD DUP2 PUSH1 0x0 ADD SSTORE PUSH1 0x20 DUP3 ADD MLOAD DUP2 PUSH1 0x1 ADD SWAP1 DUP2 PUSH2 0x2E2 SWAP2 SWAP1 PUSH2 0xDB7 JUMP JUMPDEST POP PUSH1 0x40 DUP3 ADD MLOAD DUP2 PUSH1 0x2 ADD SWAP1 DUP2 PUSH2 0x2F8 SWAP2 SWAP1 PUSH2 0xDB7 JUMP JUMPDEST POP PUSH1 0x60 DUP3 ADD MLOAD DUP2 PUSH1 0x3 ADD PUSH1 0x0 PUSH2 0x100 EXP DUP2 SLOAD DUP2 PUSH20 0xFFFFFFFFFFFFFFFFFFFFFFFFFFFFFFFFFFFFFFFF MUL NOT AND SWAP1 DUP4 PUSH20 0xFFFFFFFFFFFFFFFFFFFFFFFFFFFFFFFFFFFFFFFF AND MUL OR SWAP1 SSTORE POP PUSH1 0x80 DUP3 ADD MLOAD DUP2 PUSH1 0x4 ADD SSTORE PUSH1 0xA0 DUP3 ADD MLOAD DUP2 PUSH1 0x5 ADD SSTORE POP POP PUSH1 0x40 MLOAD DUP1 PUSH1 0xC0 ADD PUSH1 0x40 MSTORE DUP1 PUSH1 0x1 DUP1 SLOAD SWAP1 POP DUP2 MSTORE PUSH1 0x20 ADD DUP4 DUP2 MSTORE PUSH1 0x20 ADD DUP3 DUP2 MSTORE PUSH1 0x20 ADD CALLER PUSH20 0xFFFFFFFFFFFFFFFFFFFFFFFFFFFFFFFFFFFFFFFF AND DUP2 MSTORE PUSH1 0x20 ADD PUSH1 0x0 DUP2 MSTORE PUSH1 0x20 ADD PUSH1 0x0 DUP2 MSTORE POP PUSH1 0x0 DUP4 PUSH1 0x40 MLOAD PUSH2 0x3B0 SWAP2 SWAP1 PUSH2 0xEC5 JUMP JUMPDEST SWAP1 DUP2 MSTORE PUSH1 0x20 ADD PUSH1 0x40 MLOAD DUP1 SWAP2 SUB SWAP1 KECCAK256 PUSH1 0x0 DUP3 ADD MLOAD DUP2 PUSH1 0x0 ADD SSTORE PUSH1 0x20 DUP3 ADD MLOAD DUP2 PUSH1 0x1 ADD SWAP1 DUP2 PUSH2 0x3DD SWAP2 SWAP1 PUSH2 0xDB7 JUMP JUMPDEST POP PUSH1 0x40 DUP3 ADD MLOAD DUP2 PUSH1 0x2 ADD SWAP1 DUP2 PUSH2 0x3F3 SWAP2 SWAP1 PUSH2 0xDB7 JUMP JUMPDEST POP PUSH1 0x60 DUP3 ADD MLOAD DUP2 PUSH1 0x3 ADD PUSH1 0x0 PUSH2 0x100 EXP DUP2 SLOAD DUP2 PUSH20 0xFFFFFFFFFFFFFFFFFFFFFFFFFFFFFFFFFFFFFFFF MUL NOT AND SWAP1 DUP4 PUSH20 0xFFFFFFFFFFFFFFFFFFFFFFFFFFFFFFFFFFFFFFFF AND MUL OR SWAP1 SSTORE POP PUSH1 0x80 DUP3 ADD MLOAD DUP2 PUSH1 0x4 ADD SSTORE PUSH1 0xA0 DUP3 ADD MLOAD DUP2 PUSH1 0x5 ADD SSTORE SWAP1 POP POP POP POP JUMP JUMPDEST PUSH2 0x45E PUSH2 0x626 JUMP JUMPDEST PUSH1 0x0 DUP3 PUSH1 0x40 MLOAD PUSH2 0x46E SWAP2 SWAP1 PUSH2 0xEC5 JUMP JUMPDEST SWAP1 DUP2 MSTORE PUSH1 0x20 ADD PUSH1 0x40 MLOAD DUP1 SWAP2 SUB SWAP1 KECCAK256 PUSH1 0x40 MLOAD DUP1 PUSH1 0xC0 ADD PUSH1 0x40 MSTORE SWAP1 DUP2 PUSH1 0x0 DUP3 ADD SLOAD DUP2 MSTORE PUSH1 0x20 ADD PUSH1 0x1 DUP3 ADD DUP1 SLOAD PUSH2 0x4A1 SWAP1 PUSH2 0xB77 JUMP JUMPDEST DUP1 PUSH1 0x1F ADD PUSH1 0x20 DUP1 SWAP2 DIV MUL PUSH1 0x20 ADD PUSH1 0x40 MLOAD SWAP1 DUP2 ADD PUSH1 0x40 MSTORE DUP1 SWAP3 SWAP2 SWAP1 DUP2 DUP2 MSTORE PUSH1 0x20 ADD DUP3 DUP1 SLOAD PUSH2 0x4CD SWAP1 PUSH2 0xB77 JUMP JUMPDEST DUP1 ISZERO PUSH2 0x51A JUMPI DUP1 PUSH1 0x1F LT PUSH2 0x4EF JUMPI PUSH2 0x100 DUP1 DUP4 SLOAD DIV MUL DUP4 MSTORE SWAP2 PUSH1 0x20 ADD SWAP2 PUSH2 0x51A JUMP JUMPDEST DUP3 ADD SWAP2 SWAP1 PUSH1 0x0 MSTORE PUSH1 0x20 PUSH1 0x0 KECCAK256 SWAP1 JUMPDEST DUP2 SLOAD DUP2 MSTORE SWAP1 PUSH1 0x1 ADD SWAP1 PUSH1 0x20 ADD DUP1 DUP4 GT PUSH2 0x4FD JUMPI DUP3 SWAP1 SUB PUSH1 0x1F AND DUP3 ADD SWAP2 JUMPDEST POP POP POP POP POP DUP2 MSTORE PUSH1 0x20 ADD PUSH1 0x2 DUP3 ADD DUP1 SLOAD PUSH2 0x533 SWAP1 PUSH2 0xB77 JUMP JUMPDEST DUP1 PUSH1 0x1F ADD PUSH1 0x20 DUP1 SWAP2 DIV MUL PUSH1 0x20 ADD PUSH1 0x40 MLOAD SWAP1 DUP2 ADD PUSH1 0x40 MSTORE DUP1 SWAP3 SWAP2 SWAP1 DUP2 DUP2 MSTORE PUSH1 0x20 ADD DUP3 DUP1 SLOAD PUSH2 0x55F SWAP1 PUSH2 0xB77 JUMP JUMPDEST DUP1 ISZERO PUSH2 0x5AC JUMPI DUP1 PUSH1 0x1F LT PUSH2 0x581 JUMPI PUSH2 0x100 DUP1 DUP4 SLOAD DIV MUL DUP4 MSTORE SWAP2 PUSH1 0x20 ADD SWAP2 PUSH2 0x5AC JUMP JUMPDEST DUP3 ADD SWAP2 SWAP1 PUSH1 0x0 MSTORE PUSH1 0x20 PUSH1 0x0 KECCAK256 SWAP1 JUMPDEST DUP2 SLOAD DUP2 MSTORE SWAP1 PUSH1 0x1 ADD SWAP1 PUSH1 0x20 ADD DUP1 DUP4 GT PUSH2 0x58F JUMPI DUP3 SWAP1 SUB PUSH1 0x1F AND DUP3 ADD SWAP2 JUMPDEST POP POP POP POP POP DUP2 MSTORE PUSH1 0x20 ADD PUSH1 0x3 DUP3 ADD PUSH1 0x0 SWAP1 SLOAD SWAP1 PUSH2 0x100 EXP SWAP1 DIV PUSH20 0xFFFFFFFFFFFFFFFFFFFFFFFFFFFFFFFFFFFFFFFF AND PUSH20 0xFFFFFFFFFFFFFFFFFFFFFFFFFFFFFFFFFFFFFFFF AND PUSH20 0xFFFFFFFFFFFFFFFFFFFFFFFFFFFFFFFFFFFFFFFF AND DUP2 MSTORE PUSH1 0x20 ADD PUSH1 0x4 DUP3 ADD SLOAD DUP2 MSTORE PUSH1 0x20 ADD PUSH1 0x5 DUP3 ADD SLOAD DUP2 MSTORE POP POP SWAP1 POP SWAP2 SWAP1 POP JUMP JUMPDEST PUSH1 0x40 MLOAD DUP1 PUSH1 0xC0 ADD PUSH1 0x40 MSTORE DUP1 PUSH1 0x0 DUP2 MSTORE PUSH1 0x20 ADD PUSH1 0x60 DUP2 MSTORE PUSH1 0x20 ADD PUSH1 0x60 DUP2 MSTORE PUSH1 0x20 ADD PUSH1 0x0 PUSH20 0xFFFFFFFFFFFFFFFFFFFFFFFFFFFFFFFFFFFFFFFF AND DUP2 MSTORE PUSH1 0x20 ADD PUSH1 0x0 DUP2 MSTORE PUSH1 0x20 ADD PUSH1 0x0 DUP2 MSTORE POP SWAP1 JUMP JUMPDEST PUSH1 0x0 PUSH1 0x40 MLOAD SWAP1 POP SWAP1 JUMP JUMPDEST PUSH1 0x0 DUP1 REVERT JUMPDEST PUSH1 0x0 DUP1 REVERT JUMPDEST PUSH1 0x0 DUP2 SWAP1 POP SWAP2 SWAP1 POP JUMP JUMPDEST PUSH2 0x699 DUP2 PUSH2 0x686 JUMP JUMPDEST DUP2 EQ PUSH2 0x6A4 JUMPI PUSH1 0x0 DUP1 REVERT JUMPDEST POP JUMP JUMPDEST PUSH1 0x0 DUP2 CALLDATALOAD SWAP1 POP PUSH2 0x6B6 DUP2 PUSH2 0x690 JUMP JUMPDEST SWAP3 SWAP2 POP POP JUMP JUMPDEST PUSH1 0x0 PUSH1 0x20 DUP3 DUP5 SUB SLT ISZERO PUSH2 0x6D2 JUMPI PUSH2 0x6D1 PUSH2 0x67C JUMP JUMPDEST JUMPDEST PUSH1 0x0 PUSH2 0x6E0 DUP5 DUP3 DUP6 ADD PUSH2 0x6A7 JUMP JUMPDEST SWAP2 POP POP SWAP3 SWAP2 POP POP JUMP JUMPDEST PUSH2 0x6F2 DUP2 PUSH2 0x686 JUMP JUMPDEST DUP3 MSTORE POP POP JUMP JUMPDEST PUSH1 0x0 DUP2 MLOAD SWAP1 POP SWAP2 SWAP1 POP JUMP JUMPDEST PUSH1 0x0 DUP3 DUP3 MSTORE PUSH1 0x20 DUP3 ADD SWAP1 POP SWAP3 SWAP2 POP POP JUMP JUMPDEST PUSH1 0x0 JUMPDEST DUP4 DUP2 LT ISZERO PUSH2 0x732 JUMPI DUP1 DUP3 ADD MLOAD DUP2 DUP5 ADD MSTORE PUSH1 0x20 DUP2 ADD SWAP1 POP PUSH2 0x717 JUMP JUMPDEST PUSH1 0x0 DUP5 DUP5 ADD MSTORE POP POP POP POP JUMP JUMPDEST PUSH1 0x0 PUSH1 0x1F NOT PUSH1 0x1F DUP4 ADD AND SWAP1 POP SWAP2 SWAP1 POP JUMP JUMPDEST PUSH1 0x0 PUSH2 0x75A DUP3 PUSH2 0x6F8 JUMP JUMPDEST PUSH2 0x764 DUP2 DUP6 PUSH2 0x703 JUMP JUMPDEST SWAP4 POP PUSH2 0x774 DUP2 DUP6 PUSH1 0x20 DUP7 ADD PUSH2 0x714 JUMP JUMPDEST PUSH2 0x77D DUP2 PUSH2 0x73E JUMP JUMPDEST DUP5 ADD SWAP2 POP POP SWAP3 SWAP2 POP POP JUMP JUMPDEST PUSH1 0x0 PUSH20 0xFFFFFFFFFFFFFFFFFFFFFFFFFFFFFFFFFFFFFFFF DUP3 AND SWAP1 POP SWAP2 SWAP1 POP JUMP JUMPDEST PUSH1 0x0 PUSH2 0x7B3 DUP3 PUSH2 0x788 JUMP JUMPDEST SWAP1 POP SWAP2 SWAP1 POP JUMP JUMPDEST PUSH2 0x7C3 DUP2 PUSH2 0x7A8 JUMP JUMPDEST DUP3 MSTORE POP POP JUMP JUMPDEST PUSH1 0x0 PUSH1 0xC0 DUP3 ADD SWAP1 POP PUSH2 0x7DE PUSH1 0x0 DUP4 ADD DUP10 PUSH2 0x6E9 JUMP JUMPDEST DUP2 DUP2 SUB PUSH1 0x20 DUP4 ADD MSTORE PUSH2 0x7F0 DUP2 DUP9 PUSH2 0x74F JUMP JUMPDEST SWAP1 POP DUP2 DUP2 SUB PUSH1 0x40 DUP4 ADD MSTORE PUSH2 0x804 DUP2 DUP8 PUSH2 0x74F JUMP JUMPDEST SWAP1 POP PUSH2 0x813 PUSH1 0x60 DUP4 ADD DUP7 PUSH2 0x7BA JUMP JUMPDEST PUSH2 0x820 PUSH1 0x80 DUP4 ADD DUP6 PUSH2 0x6E9 JUMP JUMPDEST PUSH2 0x82D PUSH1 0xA0 DUP4 ADD DUP5 PUSH2 0x6E9 JUMP JUMPDEST SWAP8 SWAP7 POP POP POP POP POP POP POP JUMP JUMPDEST PUSH1 0x0 DUP1 REVERT JUMPDEST PUSH1 0x0 DUP1 REVERT JUMPDEST PUSH32 0x4E487B7100000000000000000000000000000000000000000000000000000000 PUSH1 0x0 MSTORE PUSH1 0x41 PUSH1 0x4 MSTORE PUSH1 0x24 PUSH1 0x0 REVERT JUMPDEST PUSH2 0x87A DUP3 PUSH2 0x73E JUMP JUMPDEST DUP2 ADD DUP2 DUP2 LT PUSH8 0xFFFFFFFFFFFFFFFF DUP3 GT OR ISZERO PUSH2 0x899 JUMPI PUSH2 0x898 PUSH2 0x842 JUMP JUMPDEST JUMPDEST DUP1 PUSH1 0x40 MSTORE POP POP POP JUMP JUMPDEST PUSH1 0x0 PUSH2 0x8AC PUSH2 0x672 JUMP JUMPDEST SWAP1 POP PUSH2 0x8B8 DUP3 DUP3 PUSH2 0x871 JUMP JUMPDEST SWAP2 SWAP1 POP JUMP JUMPDEST PUSH1 0x0 PUSH8 0xFFFFFFFFFFFFFFFF DUP3 GT ISZERO PUSH2 0x8D8 JUMPI PUSH2 0x8D7 PUSH2 0x842 JUMP JUMPDEST JUMPDEST PUSH2 0x8E1 DUP3 PUSH2 0x73E JUMP JUMPDEST SWAP1 POP PUSH1 0x20 DUP2 ADD SWAP1 POP SWAP2 SWAP1 POP JUMP JUMPDEST DUP3 DUP2 DUP4 CALLDATACOPY PUSH1 0x0 DUP4 DUP4 ADD MSTORE POP POP POP JUMP JUMPDEST PUSH1 0x0 PUSH2 0x910 PUSH2 0x90B DUP5 PUSH2 0x8BD JUMP JUMPDEST PUSH2 0x8A2 JUMP JUMPDEST SWAP1 POP DUP3 DUP2 MSTORE PUSH1 0x20 DUP2 ADD DUP5 DUP5 DUP5 ADD GT ISZERO PUSH2 0x92C JUMPI PUSH2 0x92B PUSH2 0x83D JUMP JUMPDEST JUMPDEST PUSH2 0x937 DUP5 DUP3 DUP6 PUSH2 0x8EE JUMP JUMPDEST POP SWAP4 SWAP3 POP POP POP JUMP JUMPDEST PUSH1 0x0 DUP3 PUSH1 0x1F DUP4 ADD SLT PUSH2 0x954 JUMPI PUSH2 0x953 PUSH2 0x838 JUMP JUMPDEST JUMPDEST DUP2 CALLDATALOAD PUSH2 0x964 DUP5 DUP3 PUSH1 0x20 DUP7 ADD PUSH2 0x8FD JUMP JUMPDEST SWAP2 POP POP SWAP3 SWAP2 POP POP JUMP JUMPDEST PUSH1 0x0 DUP1 PUSH1 0x40 DUP4 DUP6 SUB SLT ISZERO PUSH2 0x984 JUMPI PUSH2 0x983 PUSH2 0x67C JUMP JUMPDEST JUMPDEST PUSH1 0x0 DUP4 ADD CALLDATALOAD PUSH8 0xFFFFFFFFFFFFFFFF DUP2 GT ISZERO PUSH2 0x9A2 JUMPI PUSH2 0x9A1 PUSH2 0x681 JUMP JUMPDEST JUMPDEST PUSH2 0x9AE DUP6 DUP3 DUP7 ADD PUSH2 0x93F JUMP JUMPDEST SWAP3 POP POP PUSH1 0x20 DUP4 ADD CALLDATALOAD PUSH8 0xFFFFFFFFFFFFFFFF DUP2 GT ISZERO PUSH2 0x9CF JUMPI PUSH2 0x9CE PUSH2 0x681 JUMP JUMPDEST JUMPDEST PUSH2 0x9DB DUP6 DUP3 DUP7 ADD PUSH2 0x93F JUMP JUMPDEST SWAP2 POP POP SWAP3 POP SWAP3 SWAP1 POP JUMP JUMPDEST PUSH1 0x0 PUSH1 0x20 DUP3 DUP5 SUB SLT ISZERO PUSH2 0x9FB JUMPI PUSH2 0x9FA PUSH2 0x67C JUMP JUMPDEST JUMPDEST PUSH1 0x0 DUP3 ADD CALLDATALOAD PUSH8 0xFFFFFFFFFFFFFFFF DUP2 GT ISZERO PUSH2 0xA19 JUMPI PUSH2 0xA18 PUSH2 0x681 JUMP JUMPDEST JUMPDEST PUSH2 0xA25 DUP5 DUP3 DUP6 ADD PUSH2 0x93F JUMP JUMPDEST SWAP2 POP POP SWAP3 SWAP2 POP POP JUMP JUMPDEST PUSH2 0xA37 DUP2 PUSH2 0x686 JUMP JUMPDEST DUP3 MSTORE POP POP JUMP JUMPDEST PUSH1 0x0 DUP3 DUP3 MSTORE PUSH1 0x20 DUP3 ADD SWAP1 POP SWAP3 SWAP2 POP POP JUMP JUMPDEST PUSH1 0x0 PUSH2 0xA59 DUP3 PUSH2 0x6F8 JUMP JUMPDEST PUSH2 0xA63 DUP2 DUP6 PUSH2 0xA3D JUMP JUMPDEST SWAP4 POP PUSH2 0xA73 DUP2 DUP6 PUSH1 0x20 DUP7 ADD PUSH2 0x714 JUMP JUMPDEST PUSH2 0xA7C DUP2 PUSH2 0x73E JUMP JUMPDEST DUP5 ADD SWAP2 POP POP SWAP3 SWAP2 POP POP JUMP JUMPDEST PUSH2 0xA90 DUP2 PUSH2 0x7A8 JUMP JUMPDEST DUP3 MSTORE POP POP JUMP JUMPDEST PUSH1 0x0 PUSH1 0xC0 DUP4 ADD PUSH1 0x0 DUP4 ADD MLOAD PUSH2 0xAAE PUSH1 0x0 DUP7 ADD DUP3 PUSH2 0xA2E JUMP JUMPDEST POP PUSH1 0x20 DUP4 ADD MLOAD DUP5 DUP3 SUB PUSH1 0x20 DUP7 ADD MSTORE PUSH2 0xAC6 DUP3 DUP3 PUSH2 0xA4E JUMP JUMPDEST SWAP2 POP POP PUSH1 0x40 DUP4 ADD MLOAD DUP5 DUP3 SUB PUSH1 0x40 DUP7 ADD MSTORE PUSH2 0xAE0 DUP3 DUP3 PUSH2 0xA4E JUMP JUMPDEST SWAP2 POP POP PUSH1 0x60 DUP4 ADD MLOAD PUSH2 0xAF5 PUSH1 0x60 DUP7 ADD DUP3 PUSH2 0xA87 JUMP JUMPDEST POP PUSH1 0x80 DUP4 ADD MLOAD PUSH2 0xB08 PUSH1 0x80 DUP7 ADD DUP3 PUSH2 0xA2E JUMP JUMPDEST POP PUSH1 0xA0 DUP4 ADD MLOAD PUSH2 0xB1B PUSH1 0xA0 DUP7 ADD DUP3 PUSH2 0xA2E JUMP JUMPDEST POP DUP1 SWAP2 POP POP SWAP3 SWAP2 POP POP JUMP JUMPDEST PUSH1 0x0 PUSH1 0x20 DUP3 ADD SWAP1 POP DUP2 DUP2 SUB PUSH1 0x0 DUP4 ADD MSTORE PUSH2 0xB40 DUP2 DUP5 PUSH2 0xA96 JUMP JUMPDEST SWAP1 POP SWAP3 SWAP2 POP POP JUMP JUMPDEST PUSH32 0x4E487B7100000000000000000000000000000000000000000000000000000000 PUSH1 0x0 MSTORE PUSH1 0x22 PUSH1 0x4 MSTORE PUSH1 0x24 PUSH1 0x0 REVERT JUMPDEST PUSH1 0x0 PUSH1 0x2 DUP3 DIV SWAP1 POP PUSH1 0x1 DUP3 AND DUP1 PUSH2 0xB8F JUMPI PUSH1 0x7F DUP3 AND SWAP2 POP JUMPDEST PUSH1 0x20 DUP3 LT DUP2 SUB PUSH2 0xBA2 JUMPI PUSH2 0xBA1 PUSH2 0xB48 JUMP JUMPDEST JUMPDEST POP SWAP2 SWAP1 POP JUMP JUMPDEST PUSH32 0x4E487B7100000000000000000000000000000000000000000000000000000000 PUSH1 0x0 MSTORE PUSH1 0x11 PUSH1 0x4 MSTORE PUSH1 0x24 PUSH1 0x0 REVERT JUMPDEST PUSH1 0x0 PUSH2 0xBE2 DUP3 PUSH2 0x686 JUMP JUMPDEST SWAP2 POP PUSH2 0xBED DUP4 PUSH2 0x686 JUMP JUMPDEST SWAP3 POP DUP3 DUP3 ADD SWAP1 POP DUP1 DUP3 GT ISZERO PUSH2 0xC05 JUMPI PUSH2 0xC04 PUSH2 0xBA8 JUMP JUMPDEST JUMPDEST SWAP3 SWAP2 POP POP JUMP JUMPDEST PUSH1 0x0 DUP2 SWAP1 POP DUP2 PUSH1 0x0 MSTORE PUSH1 0x20 PUSH1 0x0 KECCAK256 SWAP1 POP SWAP2 SWAP1 POP JUMP JUMPDEST PUSH1 0x0 PUSH1 0x20 PUSH1 0x1F DUP4 ADD DIV SWAP1 POP SWAP2 SWAP1 POP JUMP JUMPDEST PUSH1 0x0 DUP3 DUP3 SHL SWAP1 POP SWAP3 SWAP2 POP POP JUMP JUMPDEST PUSH1 0x0 PUSH1 0x8 DUP4 MUL PUSH2 0xC6D PUSH32 0xFFFFFFFFFFFFFFFFFFFFFFFFFFFFFFFFFFFFFFFFFFFFFFFFFFFFFFFFFFFFFFFF DUP3 PUSH2 0xC30 JUMP JUMPDEST PUSH2 0xC77 DUP7 DUP4 PUSH2 0xC30 JUMP JUMPDEST SWAP6 POP DUP1 NOT DUP5 AND SWAP4 POP DUP1 DUP7 AND DUP5 OR SWAP3 POP POP POP SWAP4 SWAP3 POP POP POP JUMP JUMPDEST PUSH1 0x0 DUP2 SWAP1 POP SWAP2 SWAP1 POP JUMP JUMPDEST PUSH1 0x0 PUSH2 0xCB4 PUSH2 0xCAF PUSH2 0xCAA DUP5 PUSH2 0x686 JUMP JUMPDEST PUSH2 0xC8F JUMP JUMPDEST PUSH2 0x686 JUMP JUMPDEST SWAP1 POP SWAP2 SWAP1 POP JUMP JUMPDEST PUSH1 0x0 DUP2 SWAP1 POP SWAP2 SWAP1 POP JUMP JUMPDEST PUSH2 0xCCE DUP4 PUSH2 0xC99 JUMP JUMPDEST PUSH2 0xCE2 PUSH2 0xCDA DUP3 PUSH2 0xCBB JUMP JUMPDEST DUP5 DUP5 SLOAD PUSH2 0xC3D JUMP JUMPDEST DUP3 SSTORE POP POP POP POP JUMP JUMPDEST PUSH1 0x0 SWAP1 JUMP JUMPDEST PUSH2 0xCF7 PUSH2 0xCEA JUMP JUMPDEST PUSH2 0xD02 DUP2 DUP5 DUP5 PUSH2 0xCC5 JUMP JUMPDEST POP POP POP JUMP JUMPDEST JUMPDEST DUP2 DUP2 LT ISZERO PUSH2 0xD26 JUMPI PUSH2 0xD1B PUSH1 0x0 DUP3 PUSH2 0xCEF JUMP JUMPDEST PUSH1 0x1 DUP2 ADD SWAP1 POP PUSH2 0xD08 JUMP JUMPDEST POP POP JUMP JUMPDEST PUSH1 0x1F DUP3 GT ISZERO PUSH2 0xD6B JUMPI PUSH2 0xD3C DUP2 PUSH2 0xC0B JUMP JUMPDEST PUSH2 0xD45 DUP5 PUSH2 0xC20 JUMP JUMPDEST DUP2 ADD PUSH1 0x20 DUP6 LT ISZERO PUSH2 0xD54 JUMPI DUP2 SWAP1 POP JUMPDEST PUSH2 0xD68 PUSH2 0xD60 DUP6 PUSH2 0xC20 JUMP JUMPDEST DUP4 ADD DUP3 PUSH2 0xD07 JUMP JUMPDEST POP POP JUMPDEST POP POP POP JUMP JUMPDEST PUSH1 0x0 DUP3 DUP3 SHR SWAP1 POP SWAP3 SWAP2 POP POP JUMP JUMPDEST PUSH1 0x0 PUSH2 0xD8E PUSH1 0x0 NOT DUP5 PUSH1 0x8 MUL PUSH2 0xD70 JUMP JUMPDEST NOT DUP1 DUP4 AND SWAP2 POP POP SWAP3 SWAP2 POP POP JUMP JUMPDEST PUSH1 0x0 PUSH2 0xDA7 DUP4 DUP4 PUSH2 0xD7D JUMP JUMPDEST SWAP2 POP DUP3 PUSH1 0x2 MUL DUP3 OR SWAP1 POP SWAP3 SWAP2 POP POP JUMP JUMPDEST PUSH2 0xDC0 DUP3 PUSH2 0x6F8 JUMP JUMPDEST PUSH8 0xFFFFFFFFFFFFFFFF DUP2 GT ISZERO PUSH2 0xDD9 JUMPI PUSH2 0xDD8 PUSH2 0x842 JUMP JUMPDEST JUMPDEST PUSH2 0xDE3 DUP3 SLOAD PUSH2 0xB77 JUMP JUMPDEST PUSH2 0xDEE DUP3 DUP3 DUP6 PUSH2 0xD2A JUMP JUMPDEST PUSH1 0x0 PUSH1 0x20 SWAP1 POP PUSH1 0x1F DUP4 GT PUSH1 0x1 DUP2 EQ PUSH2 0xE21 JUMPI PUSH1 0x0 DUP5 ISZERO PUSH2 0xE0F JUMPI DUP3 DUP8 ADD MLOAD SWAP1 POP JUMPDEST PUSH2 0xE19 DUP6 DUP3 PUSH2 0xD9B JUMP JUMPDEST DUP7 SSTORE POP PUSH2 0xE81 JUMP JUMPDEST PUSH1 0x1F NOT DUP5 AND PUSH2 0xE2F DUP7 PUSH2 0xC0B JUMP JUMPDEST PUSH1 0x0 JUMPDEST DUP3 DUP2 LT ISZERO PUSH2 0xE57 JUMPI DUP5 DUP10 ADD MLOAD DUP3 SSTORE PUSH1 0x1 DUP3 ADD SWAP2 POP PUSH1 0x20 DUP6 ADD SWAP5 POP PUSH1 0x20 DUP2 ADD SWAP1 POP PUSH2 0xE32 JUMP JUMPDEST DUP7 DUP4 LT ISZERO PUSH2 0xE74 JUMPI DUP5 DUP10 ADD MLOAD PUSH2 0xE70 PUSH1 0x1F DUP10 AND DUP3 PUSH2 0xD7D JUMP JUMPDEST DUP4 SSTORE POP JUMPDEST PUSH1 0x1 PUSH1 0x2 DUP9 MUL ADD DUP9 SSTORE POP POP POP JUMPDEST POP POP POP POP POP POP JUMP JUMPDEST PUSH1 0x0 DUP2 SWAP1 POP SWAP3 SWAP2 POP POP JUMP JUMPDEST PUSH1 0x0 PUSH2 0xE9F DUP3 PUSH2 0x6F8 JUMP JUMPDEST PUSH2 0xEA9 DUP2 DUP6 PUSH2 0xE89 JUMP JUMPDEST SWAP4 POP PUSH2 0xEB9 DUP2 DUP6 PUSH1 0x20 DUP7 ADD PUSH2 0x714 JUMP JUMPDEST DUP1 DUP5 ADD SWAP2 POP POP SWAP3 SWAP2 POP POP JUMP JUMPDEST PUSH1 0x0 PUSH2 0xED1 DUP3 DUP5 PUSH2 0xE94 JUMP JUMPDEST SWAP2 POP DUP2 SWAP1 POP SWAP3 SWAP2 POP POP JUMP INVALID LOG2 PUSH5 0x6970667358 0x22 SLT KECCAK256 0xB6 PUSH6 0x67E01684A6A9 0xC3 PUSH1 0x5A 0xDB SWAP6 PUSH29 0x65F9333A29ED61589BB800ABB18592AF5FB964736F6C63430008120033 "
				},
				"gasEstimates": {
					"creation": {
						"codeDepositCost": "771600",
						"executionCost": "805",
						"totalCost": "772405"
					},
					"external": {
						"agendaPropose(string,string)": "infinite",
						"agendas(uint256)": "infinite",
						"getAllAgenda(string)": "infinite"
					}
				},
				"methodIdentifiers": {
					"agendaPropose(string,string)": "74e8e340",
					"agendas(uint256)": "3c4a819c",
					"getAllAgenda(string)": "c2e0a538"
				}
			},
			"storageLayout": {
				"storage": [
					{
						"astId": 19,
						"contract": "contracts-test/230518-test1.sol:QUIZ6",
						"label": "title_agenda",
						"offset": 0,
						"slot": "0",
						"type": "t_mapping(t_string_memory_ptr,t_struct(Agenda)14_storage)"
					},
					{
						"astId": 23,
						"contract": "contracts-test/230518-test1.sol:QUIZ6",
						"label": "agendas",
						"offset": 0,
						"slot": "1",
						"type": "t_array(t_struct(Agenda)14_storage)dyn_storage"
					},
					{
						"astId": 39,
						"contract": "contracts-test/230518-test1.sol:QUIZ6",
						"label": "users",
						"offset": 0,
						"slot": "2",
						"type": "t_array(t_struct(User)35_storage)dyn_storage"
					}
				],
				"types": {
					"t_address": {
						"encoding": "inplace",
						"label": "address",
						"numberOfBytes": "20"
					},
					"t_array(t_struct(Agenda)14_storage)dyn_storage": {
						"base": "t_struct(Agenda)14_storage",
						"encoding": "dynamic_array",
						"label": "struct QUIZ6.Agenda[]",
						"numberOfBytes": "32"
					},
					"t_array(t_struct(User)35_storage)dyn_storage": {
						"base": "t_struct(User)35_storage",
						"encoding": "dynamic_array",
						"label": "struct QUIZ6.User[]",
						"numberOfBytes": "32"
					},
					"t_bool": {
						"encoding": "inplace",
						"label": "bool",
						"numberOfBytes": "1"
					},
					"t_mapping(t_string_memory_ptr,t_bool)": {
						"encoding": "mapping",
						"key": "t_string_memory_ptr",
						"label": "mapping(string => bool)",
						"numberOfBytes": "32",
						"value": "t_bool"
					},
					"t_mapping(t_string_memory_ptr,t_struct(Agenda)14_storage)": {
						"encoding": "mapping",
						"key": "t_string_memory_ptr",
						"label": "mapping(string => struct QUIZ6.Agenda)",
						"numberOfBytes": "32",
						"value": "t_struct(Agenda)14_storage"
					},
					"t_string_memory_ptr": {
						"encoding": "bytes",
						"label": "string",
						"numberOfBytes": "32"
					},
					"t_string_storage": {
						"encoding": "bytes",
						"label": "string",
						"numberOfBytes": "32"
					},
					"t_struct(Agenda)14_storage": {
						"encoding": "inplace",
						"label": "struct QUIZ6.Agenda",
						"members": [
							{
								"astId": 3,
								"contract": "contracts-test/230518-test1.sol:QUIZ6",
								"label": "number",
								"offset": 0,
								"slot": "0",
								"type": "t_uint256"
							},
							{
								"astId": 5,
								"contract": "contracts-test/230518-test1.sol:QUIZ6",
								"label": "title",
								"offset": 0,
								"slot": "1",
								"type": "t_string_storage"
							},
							{
								"astId": 7,
								"contract": "contracts-test/230518-test1.sol:QUIZ6",
								"label": "content",
								"offset": 0,
								"slot": "2",
								"type": "t_string_storage"
							},
							{
								"astId": 9,
								"contract": "contracts-test/230518-test1.sol:QUIZ6",
								"label": "proposer",
								"offset": 0,
								"slot": "3",
								"type": "t_address"
							},
							{
								"astId": 11,
								"contract": "contracts-test/230518-test1.sol:QUIZ6",
								"label": "supporters",
								"offset": 0,
								"slot": "4",
								"type": "t_uint256"
							},
							{
								"astId": 13,
								"contract": "contracts-test/230518-test1.sol:QUIZ6",
								"label": "dissenters",
								"offset": 0,
								"slot": "5",
								"type": "t_uint256"
							}
						],
						"numberOfBytes": "192"
					},
					"t_struct(User)35_storage": {
						"encoding": "inplace",
						"label": "struct QUIZ6.User",
						"members": [
							{
								"astId": 25,
								"contract": "contracts-test/230518-test1.sol:QUIZ6",
								"label": "name",
								"offset": 0,
								"slot": "0",
								"type": "t_string_storage"
							},
							{
								"astId": 27,
								"contract": "contracts-test/230518-test1.sol:QUIZ6",
								"label": "account",
								"offset": 0,
								"slot": "1",
								"type": "t_address"
							},
							{
								"astId": 30,
								"contract": "contracts-test/230518-test1.sol:QUIZ6",
								"label": "myAgenda",
								"offset": 0,
								"slot": "2",
								"type": "t_struct(Agenda)14_storage"
							},
							{
								"astId": 34,
								"contract": "contracts-test/230518-test1.sol:QUIZ6",
								"label": "agendaInfo",
								"offset": 0,
								"slot": "8",
								"type": "t_mapping(t_string_memory_ptr,t_bool)"
							}
						],
						"numberOfBytes": "288"
					},
					"t_uint256": {
						"encoding": "inplace",
						"label": "uint256",
						"numberOfBytes": "32"
					}
				}
			},
			"userdoc": {
				"kind": "user",
				"methods": {},
				"version": 1
			}
		}
	}
}