{
	"contracts-lecture/230515-2.sol": {
		"MODIFIER": {
			"abi": [
				{
					"inputs": [],
					"name": "aMinus",
					"outputs": [],
					"stateMutability": "nonpayable",
					"type": "function"
				},
				{
					"inputs": [],
					"name": "aPlus",
					"outputs": [],
					"stateMutability": "nonpayable",
					"type": "function"
				},
				{
					"inputs": [],
					"name": "doubleA",
					"outputs": [],
					"stateMutability": "nonpayable",
					"type": "function"
				},
				{
					"inputs": [],
					"name": "getA",
					"outputs": [
						{
							"internalType": "uint256",
							"name": "",
							"type": "uint256"
						}
					],
					"stateMutability": "view",
					"type": "function"
				},
				{
					"inputs": [],
					"name": "plusTen",
					"outputs": [],
					"stateMutability": "nonpayable",
					"type": "function"
				}
			],
			"devdoc": {
				"kind": "dev",
				"methods": {},
				"version": 1
			},
			"evm": {
				"assembly": "    /* \"contracts-lecture/230515-2.sol\":2648:3124  contract MODIFIER {... */\n  mstore(0x40, 0x80)\n  callvalue\n  dup1\n  iszero\n  tag_1\n  jumpi\n  0x00\n  dup1\n  revert\ntag_1:\n  pop\n  dataSize(sub_0)\n  dup1\n  dataOffset(sub_0)\n  0x00\n  codecopy\n  0x00\n  return\nstop\n\nsub_0: assembly {\n        /* \"contracts-lecture/230515-2.sol\":2648:3124  contract MODIFIER {... */\n      mstore(0x40, 0x80)\n      callvalue\n      dup1\n      iszero\n      tag_1\n      jumpi\n      0x00\n      dup1\n      revert\n    tag_1:\n      pop\n      jumpi(tag_2, lt(calldatasize, 0x04))\n      shr(0xe0, calldataload(0x00))\n      dup1\n      0x40993a3c\n      eq\n      tag_3\n      jumpi\n      dup1\n      0x6e9b0ac0\n      eq\n      tag_4\n      jumpi\n      dup1\n      0xaf80bf29\n      eq\n      tag_5\n      jumpi\n      dup1\n      0xd46300fd\n      eq\n      tag_6\n      jumpi\n      dup1\n      0xe720d8ec\n      eq\n      tag_7\n      jumpi\n    tag_2:\n      0x00\n      dup1\n      revert\n        /* \"contracts-lecture/230515-2.sol\":3059:3122  function plusTen() public lessThanFive {... */\n    tag_3:\n      tag_8\n      tag_9\n      jump\t// in\n    tag_8:\n      stop\n        /* \"contracts-lecture/230515-2.sol\":2866:2911  function aMinus() public {... */\n    tag_4:\n      tag_10\n      tag_11\n      jump\t// in\n    tag_10:\n      stop\n        /* \"contracts-lecture/230515-2.sol\":2816:2860  function aPlus() public {... */\n    tag_5:\n      tag_12\n      tag_13\n      jump\t// in\n    tag_12:\n      stop\n        /* \"contracts-lecture/230515-2.sol\":2917:2984  function getA() public view returns(uint) {... */\n    tag_6:\n      tag_14\n      tag_15\n      jump\t// in\n    tag_14:\n      mload(0x40)\n      tag_16\n      swap2\n      swap1\n      tag_17\n      jump\t// in\n    tag_16:\n      mload(0x40)\n      dup1\n      swap2\n      sub\n      swap1\n      return\n        /* \"contracts-lecture/230515-2.sol\":2990:3053  function doubleA() public lessThanFive {... */\n    tag_7:\n      tag_18\n      tag_19\n      jump\t// in\n    tag_18:\n      stop\n        /* \"contracts-lecture/230515-2.sol\":3059:3122  function plusTen() public lessThanFive {... */\n    tag_9:\n        /* \"contracts-lecture/230515-2.sol\":2729:2730  5 */\n      0x05\n        /* \"contracts-lecture/230515-2.sol\":2727:2728  a */\n      sload(0x00)\n        /* \"contracts-lecture/230515-2.sol\":2727:2730  a<5 */\n      lt\n        /* \"contracts-lecture/230515-2.sol\":2719:2759  require(a<5, \"should be less than five\") */\n      tag_21\n      jumpi\n      mload(0x40)\n      0x08c379a000000000000000000000000000000000000000000000000000000000\n      dup2\n      mstore\n      0x04\n      add\n      tag_22\n      swap1\n      tag_23\n      jump\t// in\n    tag_22:\n      mload(0x40)\n      dup1\n      swap2\n      sub\n      swap1\n      revert\n    tag_21:\n        /* \"contracts-lecture/230515-2.sol\":3113:3115  10 */\n      0x0a\n        /* \"contracts-lecture/230515-2.sol\":3108:3109  a */\n      0x00\n      dup1\n        /* \"contracts-lecture/230515-2.sol\":3108:3115  a += 10 */\n      dup3\n      dup3\n      sload\n      tag_25\n      swap2\n      swap1\n      tag_26\n      jump\t// in\n    tag_25:\n      swap3\n      pop\n      pop\n      dup2\n      swap1\n      sstore\n      pop\n        /* \"contracts-lecture/230515-2.sol\":3059:3122  function plusTen() public lessThanFive {... */\n      jump\t// out\n        /* \"contracts-lecture/230515-2.sol\":2866:2911  function aMinus() public {... */\n    tag_11:\n        /* \"contracts-lecture/230515-2.sol\":2901:2902  a */\n      0x00\n      dup1\n        /* \"contracts-lecture/230515-2.sol\":2901:2904  a-- */\n      dup2\n      sload\n      dup1\n      swap3\n      swap2\n      swap1\n      tag_28\n      swap1\n      tag_29\n      jump\t// in\n    tag_28:\n      swap2\n      swap1\n      pop\n      sstore\n      pop\n        /* \"contracts-lecture/230515-2.sol\":2866:2911  function aMinus() public {... */\n      jump\t// out\n        /* \"contracts-lecture/230515-2.sol\":2816:2860  function aPlus() public {... */\n    tag_13:\n        /* \"contracts-lecture/230515-2.sol\":2850:2851  a */\n      0x00\n      dup1\n        /* \"contracts-lecture/230515-2.sol\":2850:2853  a++ */\n      dup2\n      sload\n      dup1\n      swap3\n      swap2\n      swap1\n      tag_31\n      swap1\n      tag_32\n      jump\t// in\n    tag_31:\n      swap2\n      swap1\n      pop\n      sstore\n      pop\n        /* \"contracts-lecture/230515-2.sol\":2816:2860  function aPlus() public {... */\n      jump\t// out\n        /* \"contracts-lecture/230515-2.sol\":2917:2984  function getA() public view returns(uint) {... */\n    tag_15:\n        /* \"contracts-lecture/230515-2.sol\":2953:2957  uint */\n      0x00\n        /* \"contracts-lecture/230515-2.sol\":2976:2977  a */\n      dup1\n      sload\n        /* \"contracts-lecture/230515-2.sol\":2969:2977  return a */\n      swap1\n      pop\n        /* \"contracts-lecture/230515-2.sol\":2917:2984  function getA() public view returns(uint) {... */\n      swap1\n      jump\t// out\n        /* \"contracts-lecture/230515-2.sol\":2990:3053  function doubleA() public lessThanFive {... */\n    tag_19:\n        /* \"contracts-lecture/230515-2.sol\":2729:2730  5 */\n      0x05\n        /* \"contracts-lecture/230515-2.sol\":2727:2728  a */\n      sload(0x00)\n        /* \"contracts-lecture/230515-2.sol\":2727:2730  a<5 */\n      lt\n        /* \"contracts-lecture/230515-2.sol\":2719:2759  require(a<5, \"should be less than five\") */\n      tag_35\n      jumpi\n      mload(0x40)\n      0x08c379a000000000000000000000000000000000000000000000000000000000\n      dup2\n      mstore\n      0x04\n      add\n      tag_36\n      swap1\n      tag_23\n      jump\t// in\n    tag_36:\n      mload(0x40)\n      dup1\n      swap2\n      sub\n      swap1\n      revert\n    tag_35:\n        /* \"contracts-lecture/230515-2.sol\":3045:3046  2 */\n      0x02\n        /* \"contracts-lecture/230515-2.sol\":3043:3044  a */\n      sload(0x00)\n        /* \"contracts-lecture/230515-2.sol\":3043:3046  a*2 */\n      tag_38\n      swap2\n      swap1\n      tag_39\n      jump\t// in\n    tag_38:\n        /* \"contracts-lecture/230515-2.sol\":3039:3040  a */\n      0x00\n        /* \"contracts-lecture/230515-2.sol\":3039:3046  a = a*2 */\n      dup2\n      swap1\n      sstore\n      pop\n        /* \"contracts-lecture/230515-2.sol\":2990:3053  function doubleA() public lessThanFive {... */\n      jump\t// out\n        /* \"#utility.yul\":7:84   */\n    tag_40:\n        /* \"#utility.yul\":44:51   */\n      0x00\n        /* \"#utility.yul\":73:78   */\n      dup2\n        /* \"#utility.yul\":62:78   */\n      swap1\n      pop\n        /* \"#utility.yul\":7:84   */\n      swap2\n      swap1\n      pop\n      jump\t// out\n        /* \"#utility.yul\":90:208   */\n    tag_41:\n        /* \"#utility.yul\":177:201   */\n      tag_49\n        /* \"#utility.yul\":195:200   */\n      dup2\n        /* \"#utility.yul\":177:201   */\n      tag_40\n      jump\t// in\n    tag_49:\n        /* \"#utility.yul\":172:175   */\n      dup3\n        /* \"#utility.yul\":165:202   */\n      mstore\n        /* \"#utility.yul\":90:208   */\n      pop\n      pop\n      jump\t// out\n        /* \"#utility.yul\":214:436   */\n    tag_17:\n        /* \"#utility.yul\":307:311   */\n      0x00\n        /* \"#utility.yul\":345:347   */\n      0x20\n        /* \"#utility.yul\":334:343   */\n      dup3\n        /* \"#utility.yul\":330:348   */\n      add\n        /* \"#utility.yul\":322:348   */\n      swap1\n      pop\n        /* \"#utility.yul\":358:429   */\n      tag_51\n        /* \"#utility.yul\":426:427   */\n      0x00\n        /* \"#utility.yul\":415:424   */\n      dup4\n        /* \"#utility.yul\":411:428   */\n      add\n        /* \"#utility.yul\":402:408   */\n      dup5\n        /* \"#utility.yul\":358:429   */\n      tag_41\n      jump\t// in\n    tag_51:\n        /* \"#utility.yul\":214:436   */\n      swap3\n      swap2\n      pop\n      pop\n      jump\t// out\n        /* \"#utility.yul\":442:611   */\n    tag_42:\n        /* \"#utility.yul\":526:537   */\n      0x00\n        /* \"#utility.yul\":560:566   */\n      dup3\n        /* \"#utility.yul\":555:558   */\n      dup3\n        /* \"#utility.yul\":548:567   */\n      mstore\n        /* \"#utility.yul\":600:604   */\n      0x20\n        /* \"#utility.yul\":595:598   */\n      dup3\n        /* \"#utility.yul\":591:605   */\n      add\n        /* \"#utility.yul\":576:605   */\n      swap1\n      pop\n        /* \"#utility.yul\":442:611   */\n      swap3\n      swap2\n      pop\n      pop\n      jump\t// out\n        /* \"#utility.yul\":617:791   */\n    tag_43:\n        /* \"#utility.yul\":757:783   */\n      0x73686f756c64206265206c657373207468616e20666976650000000000000000\n        /* \"#utility.yul\":753:754   */\n      0x00\n        /* \"#utility.yul\":745:751   */\n      dup3\n        /* \"#utility.yul\":741:755   */\n      add\n        /* \"#utility.yul\":734:784   */\n      mstore\n        /* \"#utility.yul\":617:791   */\n      pop\n      jump\t// out\n        /* \"#utility.yul\":797:1163   */\n    tag_44:\n        /* \"#utility.yul\":939:942   */\n      0x00\n        /* \"#utility.yul\":960:1027   */\n      tag_55\n        /* \"#utility.yul\":1024:1026   */\n      0x18\n        /* \"#utility.yul\":1019:1022   */\n      dup4\n        /* \"#utility.yul\":960:1027   */\n      tag_42\n      jump\t// in\n    tag_55:\n        /* \"#utility.yul\":953:1027   */\n      swap2\n      pop\n        /* \"#utility.yul\":1036:1129   */\n      tag_56\n        /* \"#utility.yul\":1125:1128   */\n      dup3\n        /* \"#utility.yul\":1036:1129   */\n      tag_43\n      jump\t// in\n    tag_56:\n        /* \"#utility.yul\":1154:1156   */\n      0x20\n        /* \"#utility.yul\":1149:1152   */\n      dup3\n        /* \"#utility.yul\":1145:1157   */\n      add\n        /* \"#utility.yul\":1138:1157   */\n      swap1\n      pop\n        /* \"#utility.yul\":797:1163   */\n      swap2\n      swap1\n      pop\n      jump\t// out\n        /* \"#utility.yul\":1169:1588   */\n    tag_23:\n        /* \"#utility.yul\":1335:1339   */\n      0x00\n        /* \"#utility.yul\":1373:1375   */\n      0x20\n        /* \"#utility.yul\":1362:1371   */\n      dup3\n        /* \"#utility.yul\":1358:1376   */\n      add\n        /* \"#utility.yul\":1350:1376   */\n      swap1\n      pop\n        /* \"#utility.yul\":1422:1431   */\n      dup2\n        /* \"#utility.yul\":1416:1420   */\n      dup2\n        /* \"#utility.yul\":1412:1432   */\n      sub\n        /* \"#utility.yul\":1408:1409   */\n      0x00\n        /* \"#utility.yul\":1397:1406   */\n      dup4\n        /* \"#utility.yul\":1393:1410   */\n      add\n        /* \"#utility.yul\":1386:1433   */\n      mstore\n        /* \"#utility.yul\":1450:1581   */\n      tag_58\n        /* \"#utility.yul\":1576:1580   */\n      dup2\n        /* \"#utility.yul\":1450:1581   */\n      tag_44\n      jump\t// in\n    tag_58:\n        /* \"#utility.yul\":1442:1581   */\n      swap1\n      pop\n        /* \"#utility.yul\":1169:1588   */\n      swap2\n      swap1\n      pop\n      jump\t// out\n        /* \"#utility.yul\":1594:1774   */\n    tag_45:\n        /* \"#utility.yul\":1642:1719   */\n      0x4e487b7100000000000000000000000000000000000000000000000000000000\n        /* \"#utility.yul\":1639:1640   */\n      0x00\n        /* \"#utility.yul\":1632:1720   */\n      mstore\n        /* \"#utility.yul\":1739:1743   */\n      0x11\n        /* \"#utility.yul\":1736:1737   */\n      0x04\n        /* \"#utility.yul\":1729:1744   */\n      mstore\n        /* \"#utility.yul\":1763:1767   */\n      0x24\n        /* \"#utility.yul\":1760:1761   */\n      0x00\n        /* \"#utility.yul\":1753:1768   */\n      revert\n        /* \"#utility.yul\":1780:1971   */\n    tag_26:\n        /* \"#utility.yul\":1820:1823   */\n      0x00\n        /* \"#utility.yul\":1839:1859   */\n      tag_61\n        /* \"#utility.yul\":1857:1858   */\n      dup3\n        /* \"#utility.yul\":1839:1859   */\n      tag_40\n      jump\t// in\n    tag_61:\n        /* \"#utility.yul\":1834:1859   */\n      swap2\n      pop\n        /* \"#utility.yul\":1873:1893   */\n      tag_62\n        /* \"#utility.yul\":1891:1892   */\n      dup4\n        /* \"#utility.yul\":1873:1893   */\n      tag_40\n      jump\t// in\n    tag_62:\n        /* \"#utility.yul\":1868:1893   */\n      swap3\n      pop\n        /* \"#utility.yul\":1916:1917   */\n      dup3\n        /* \"#utility.yul\":1913:1914   */\n      dup3\n        /* \"#utility.yul\":1909:1918   */\n      add\n        /* \"#utility.yul\":1902:1918   */\n      swap1\n      pop\n        /* \"#utility.yul\":1937:1940   */\n      dup1\n        /* \"#utility.yul\":1934:1935   */\n      dup3\n        /* \"#utility.yul\":1931:1941   */\n      gt\n        /* \"#utility.yul\":1928:1964   */\n      iszero\n      tag_63\n      jumpi\n        /* \"#utility.yul\":1944:1962   */\n      tag_64\n      tag_45\n      jump\t// in\n    tag_64:\n        /* \"#utility.yul\":1928:1964   */\n    tag_63:\n        /* \"#utility.yul\":1780:1971   */\n      swap3\n      swap2\n      pop\n      pop\n      jump\t// out\n        /* \"#utility.yul\":1977:2148   */\n    tag_29:\n        /* \"#utility.yul\":2016:2019   */\n      0x00\n        /* \"#utility.yul\":2039:2063   */\n      tag_66\n        /* \"#utility.yul\":2057:2062   */\n      dup3\n        /* \"#utility.yul\":2039:2063   */\n      tag_40\n      jump\t// in\n    tag_66:\n        /* \"#utility.yul\":2030:2063   */\n      swap2\n      pop\n        /* \"#utility.yul\":2085:2089   */\n      0x00\n        /* \"#utility.yul\":2078:2083   */\n      dup3\n        /* \"#utility.yul\":2075:2090   */\n      sub\n        /* \"#utility.yul\":2072:2113   */\n      tag_67\n      jumpi\n        /* \"#utility.yul\":2093:2111   */\n      tag_68\n      tag_45\n      jump\t// in\n    tag_68:\n        /* \"#utility.yul\":2072:2113   */\n    tag_67:\n        /* \"#utility.yul\":2140:2141   */\n      0x01\n        /* \"#utility.yul\":2133:2138   */\n      dup3\n        /* \"#utility.yul\":2129:2142   */\n      sub\n        /* \"#utility.yul\":2122:2142   */\n      swap1\n      pop\n        /* \"#utility.yul\":1977:2148   */\n      swap2\n      swap1\n      pop\n      jump\t// out\n        /* \"#utility.yul\":2154:2387   */\n    tag_32:\n        /* \"#utility.yul\":2193:2196   */\n      0x00\n        /* \"#utility.yul\":2216:2240   */\n      tag_70\n        /* \"#utility.yul\":2234:2239   */\n      dup3\n        /* \"#utility.yul\":2216:2240   */\n      tag_40\n      jump\t// in\n    tag_70:\n        /* \"#utility.yul\":2207:2240   */\n      swap2\n      pop\n        /* \"#utility.yul\":2262:2328   */\n      0xffffffffffffffffffffffffffffffffffffffffffffffffffffffffffffffff\n        /* \"#utility.yul\":2255:2260   */\n      dup3\n        /* \"#utility.yul\":2252:2329   */\n      sub\n        /* \"#utility.yul\":2249:2352   */\n      tag_71\n      jumpi\n        /* \"#utility.yul\":2332:2350   */\n      tag_72\n      tag_45\n      jump\t// in\n    tag_72:\n        /* \"#utility.yul\":2249:2352   */\n    tag_71:\n        /* \"#utility.yul\":2379:2380   */\n      0x01\n        /* \"#utility.yul\":2372:2377   */\n      dup3\n        /* \"#utility.yul\":2368:2381   */\n      add\n        /* \"#utility.yul\":2361:2381   */\n      swap1\n      pop\n        /* \"#utility.yul\":2154:2387   */\n      swap2\n      swap1\n      pop\n      jump\t// out\n        /* \"#utility.yul\":2393:2803   */\n    tag_39:\n        /* \"#utility.yul\":2433:2440   */\n      0x00\n        /* \"#utility.yul\":2456:2476   */\n      tag_74\n        /* \"#utility.yul\":2474:2475   */\n      dup3\n        /* \"#utility.yul\":2456:2476   */\n      tag_40\n      jump\t// in\n    tag_74:\n        /* \"#utility.yul\":2451:2476   */\n      swap2\n      pop\n        /* \"#utility.yul\":2490:2510   */\n      tag_75\n        /* \"#utility.yul\":2508:2509   */\n      dup4\n        /* \"#utility.yul\":2490:2510   */\n      tag_40\n      jump\t// in\n    tag_75:\n        /* \"#utility.yul\":2485:2510   */\n      swap3\n      pop\n        /* \"#utility.yul\":2545:2546   */\n      dup3\n        /* \"#utility.yul\":2542:2543   */\n      dup3\n        /* \"#utility.yul\":2538:2547   */\n      mul\n        /* \"#utility.yul\":2567:2597   */\n      tag_76\n        /* \"#utility.yul\":2585:2596   */\n      dup2\n        /* \"#utility.yul\":2567:2597   */\n      tag_40\n      jump\t// in\n    tag_76:\n        /* \"#utility.yul\":2556:2597   */\n      swap2\n      pop\n        /* \"#utility.yul\":2746:2747   */\n      dup3\n        /* \"#utility.yul\":2737:2744   */\n      dup3\n        /* \"#utility.yul\":2733:2748   */\n      div\n        /* \"#utility.yul\":2730:2731   */\n      dup5\n        /* \"#utility.yul\":2727:2749   */\n      eq\n        /* \"#utility.yul\":2707:2708   */\n      dup4\n        /* \"#utility.yul\":2700:2709   */\n      iszero\n        /* \"#utility.yul\":2680:2763   */\n      or\n        /* \"#utility.yul\":2657:2796   */\n      tag_77\n      jumpi\n        /* \"#utility.yul\":2776:2794   */\n      tag_78\n      tag_45\n      jump\t// in\n    tag_78:\n        /* \"#utility.yul\":2657:2796   */\n    tag_77:\n        /* \"#utility.yul\":2441:2803   */\n      pop\n        /* \"#utility.yul\":2393:2803   */\n      swap3\n      swap2\n      pop\n      pop\n      jump\t// out\n\n    auxdata: 0xa2646970667358221220d527c7d4c0c2debf0a58cd787a01f0b732f4e1372a3b6c287a94a232af397bdd64736f6c63430008120033\n}\n",
				"bytecode": {
					"linkReferences": {},
					"object": "608060405234801561001057600080fd5b50610396806100206000396000f3fe608060405234801561001057600080fd5b50600436106100575760003560e01c806340993a3c1461005c5780636e9b0ac014610066578063af80bf2914610070578063d46300fd1461007a578063e720d8ec14610098575b600080fd5b6100646100a2565b005b61006e610102565b005b61007861011b565b005b610082610134565b60405161008f91906101b2565b60405180910390f35b6100a061013d565b005b6005600054106100e7576040517f08c379a00000000000000000000000000000000000000000000000000000000081526004016100de9061022a565b60405180910390fd5b600a6000808282546100f99190610279565b92505081905550565b600080815480929190610114906102ad565b9190505550565b60008081548092919061012d906102d6565b9190505550565b60008054905090565b600560005410610182576040517f08c379a00000000000000000000000000000000000000000000000000000000081526004016101799061022a565b60405180910390fd5b6002600054610191919061031e565b600081905550565b6000819050919050565b6101ac81610199565b82525050565b60006020820190506101c760008301846101a3565b92915050565b600082825260208201905092915050565b7f73686f756c64206265206c657373207468616e20666976650000000000000000600082015250565b60006102146018836101cd565b915061021f826101de565b602082019050919050565b6000602082019050818103600083015261024381610207565b9050919050565b7f4e487b7100000000000000000000000000000000000000000000000000000000600052601160045260246000fd5b600061028482610199565b915061028f83610199565b92508282019050808211156102a7576102a661024a565b5b92915050565b60006102b882610199565b9150600082036102cb576102ca61024a565b5b600182039050919050565b60006102e182610199565b91507fffffffffffffffffffffffffffffffffffffffffffffffffffffffffffffffff82036103135761031261024a565b5b600182019050919050565b600061032982610199565b915061033483610199565b925082820261034281610199565b915082820484148315176103595761035861024a565b5b509291505056fea2646970667358221220d527c7d4c0c2debf0a58cd787a01f0b732f4e1372a3b6c287a94a232af397bdd64736f6c63430008120033",
					"opcodes": "PUSH1 0x80 PUSH1 0x40 MSTORE CALLVALUE DUP1 ISZERO PUSH2 0x10 JUMPI PUSH1 0x0 DUP1 REVERT JUMPDEST POP PUSH2 0x396 DUP1 PUSH2 0x20 PUSH1 0x0 CODECOPY PUSH1 0x0 RETURN INVALID PUSH1 0x80 PUSH1 0x40 MSTORE CALLVALUE DUP1 ISZERO PUSH2 0x10 JUMPI PUSH1 0x0 DUP1 REVERT JUMPDEST POP PUSH1 0x4 CALLDATASIZE LT PUSH2 0x57 JUMPI PUSH1 0x0 CALLDATALOAD PUSH1 0xE0 SHR DUP1 PUSH4 0x40993A3C EQ PUSH2 0x5C JUMPI DUP1 PUSH4 0x6E9B0AC0 EQ PUSH2 0x66 JUMPI DUP1 PUSH4 0xAF80BF29 EQ PUSH2 0x70 JUMPI DUP1 PUSH4 0xD46300FD EQ PUSH2 0x7A JUMPI DUP1 PUSH4 0xE720D8EC EQ PUSH2 0x98 JUMPI JUMPDEST PUSH1 0x0 DUP1 REVERT JUMPDEST PUSH2 0x64 PUSH2 0xA2 JUMP JUMPDEST STOP JUMPDEST PUSH2 0x6E PUSH2 0x102 JUMP JUMPDEST STOP JUMPDEST PUSH2 0x78 PUSH2 0x11B JUMP JUMPDEST STOP JUMPDEST PUSH2 0x82 PUSH2 0x134 JUMP JUMPDEST PUSH1 0x40 MLOAD PUSH2 0x8F SWAP2 SWAP1 PUSH2 0x1B2 JUMP JUMPDEST PUSH1 0x40 MLOAD DUP1 SWAP2 SUB SWAP1 RETURN JUMPDEST PUSH2 0xA0 PUSH2 0x13D JUMP JUMPDEST STOP JUMPDEST PUSH1 0x5 PUSH1 0x0 SLOAD LT PUSH2 0xE7 JUMPI PUSH1 0x40 MLOAD PUSH32 0x8C379A000000000000000000000000000000000000000000000000000000000 DUP2 MSTORE PUSH1 0x4 ADD PUSH2 0xDE SWAP1 PUSH2 0x22A JUMP JUMPDEST PUSH1 0x40 MLOAD DUP1 SWAP2 SUB SWAP1 REVERT JUMPDEST PUSH1 0xA PUSH1 0x0 DUP1 DUP3 DUP3 SLOAD PUSH2 0xF9 SWAP2 SWAP1 PUSH2 0x279 JUMP JUMPDEST SWAP3 POP POP DUP2 SWAP1 SSTORE POP JUMP JUMPDEST PUSH1 0x0 DUP1 DUP2 SLOAD DUP1 SWAP3 SWAP2 SWAP1 PUSH2 0x114 SWAP1 PUSH2 0x2AD JUMP JUMPDEST SWAP2 SWAP1 POP SSTORE POP JUMP JUMPDEST PUSH1 0x0 DUP1 DUP2 SLOAD DUP1 SWAP3 SWAP2 SWAP1 PUSH2 0x12D SWAP1 PUSH2 0x2D6 JUMP JUMPDEST SWAP2 SWAP1 POP SSTORE POP JUMP JUMPDEST PUSH1 0x0 DUP1 SLOAD SWAP1 POP SWAP1 JUMP JUMPDEST PUSH1 0x5 PUSH1 0x0 SLOAD LT PUSH2 0x182 JUMPI PUSH1 0x40 MLOAD PUSH32 0x8C379A000000000000000000000000000000000000000000000000000000000 DUP2 MSTORE PUSH1 0x4 ADD PUSH2 0x179 SWAP1 PUSH2 0x22A JUMP JUMPDEST PUSH1 0x40 MLOAD DUP1 SWAP2 SUB SWAP1 REVERT JUMPDEST PUSH1 0x2 PUSH1 0x0 SLOAD PUSH2 0x191 SWAP2 SWAP1 PUSH2 0x31E JUMP JUMPDEST PUSH1 0x0 DUP2 SWAP1 SSTORE POP JUMP JUMPDEST PUSH1 0x0 DUP2 SWAP1 POP SWAP2 SWAP1 POP JUMP JUMPDEST PUSH2 0x1AC DUP2 PUSH2 0x199 JUMP JUMPDEST DUP3 MSTORE POP POP JUMP JUMPDEST PUSH1 0x0 PUSH1 0x20 DUP3 ADD SWAP1 POP PUSH2 0x1C7 PUSH1 0x0 DUP4 ADD DUP5 PUSH2 0x1A3 JUMP JUMPDEST SWAP3 SWAP2 POP POP JUMP JUMPDEST PUSH1 0x0 DUP3 DUP3 MSTORE PUSH1 0x20 DUP3 ADD SWAP1 POP SWAP3 SWAP2 POP POP JUMP JUMPDEST PUSH32 0x73686F756C64206265206C657373207468616E20666976650000000000000000 PUSH1 0x0 DUP3 ADD MSTORE POP JUMP JUMPDEST PUSH1 0x0 PUSH2 0x214 PUSH1 0x18 DUP4 PUSH2 0x1CD JUMP JUMPDEST SWAP2 POP PUSH2 0x21F DUP3 PUSH2 0x1DE JUMP JUMPDEST PUSH1 0x20 DUP3 ADD SWAP1 POP SWAP2 SWAP1 POP JUMP JUMPDEST PUSH1 0x0 PUSH1 0x20 DUP3 ADD SWAP1 POP DUP2 DUP2 SUB PUSH1 0x0 DUP4 ADD MSTORE PUSH2 0x243 DUP2 PUSH2 0x207 JUMP JUMPDEST SWAP1 POP SWAP2 SWAP1 POP JUMP JUMPDEST PUSH32 0x4E487B7100000000000000000000000000000000000000000000000000000000 PUSH1 0x0 MSTORE PUSH1 0x11 PUSH1 0x4 MSTORE PUSH1 0x24 PUSH1 0x0 REVERT JUMPDEST PUSH1 0x0 PUSH2 0x284 DUP3 PUSH2 0x199 JUMP JUMPDEST SWAP2 POP PUSH2 0x28F DUP4 PUSH2 0x199 JUMP JUMPDEST SWAP3 POP DUP3 DUP3 ADD SWAP1 POP DUP1 DUP3 GT ISZERO PUSH2 0x2A7 JUMPI PUSH2 0x2A6 PUSH2 0x24A JUMP JUMPDEST JUMPDEST SWAP3 SWAP2 POP POP JUMP JUMPDEST PUSH1 0x0 PUSH2 0x2B8 DUP3 PUSH2 0x199 JUMP JUMPDEST SWAP2 POP PUSH1 0x0 DUP3 SUB PUSH2 0x2CB JUMPI PUSH2 0x2CA PUSH2 0x24A JUMP JUMPDEST JUMPDEST PUSH1 0x1 DUP3 SUB SWAP1 POP SWAP2 SWAP1 POP JUMP JUMPDEST PUSH1 0x0 PUSH2 0x2E1 DUP3 PUSH2 0x199 JUMP JUMPDEST SWAP2 POP PUSH32 0xFFFFFFFFFFFFFFFFFFFFFFFFFFFFFFFFFFFFFFFFFFFFFFFFFFFFFFFFFFFFFFFF DUP3 SUB PUSH2 0x313 JUMPI PUSH2 0x312 PUSH2 0x24A JUMP JUMPDEST JUMPDEST PUSH1 0x1 DUP3 ADD SWAP1 POP SWAP2 SWAP1 POP JUMP JUMPDEST PUSH1 0x0 PUSH2 0x329 DUP3 PUSH2 0x199 JUMP JUMPDEST SWAP2 POP PUSH2 0x334 DUP4 PUSH2 0x199 JUMP JUMPDEST SWAP3 POP DUP3 DUP3 MUL PUSH2 0x342 DUP2 PUSH2 0x199 JUMP JUMPDEST SWAP2 POP DUP3 DUP3 DIV DUP5 EQ DUP4 ISZERO OR PUSH2 0x359 JUMPI PUSH2 0x358 PUSH2 0x24A JUMP JUMPDEST JUMPDEST POP SWAP3 SWAP2 POP POP JUMP INVALID LOG2 PUSH5 0x6970667358 0x22 SLT KECCAK256 0xD5 0x27 0xC7 0xD4 0xC0 0xC2 0xDE 0xBF EXP PC 0xCD PUSH25 0x7A01F0B732F4E1372A3B6C287A94A232AF397BDD64736F6C63 NUMBER STOP ADDMOD SLT STOP CALLER "
				},
				"gasEstimates": {
					"creation": {
						"codeDepositCost": "183600",
						"executionCost": "226",
						"totalCost": "183826"
					},
					"external": {
						"aMinus()": "24501",
						"aPlus()": "24523",
						"doubleA()": "infinite",
						"getA()": "2481",
						"plusTen()": "infinite"
					}
				},
				"methodIdentifiers": {
					"aMinus()": "6e9b0ac0",
					"aPlus()": "af80bf29",
					"doubleA()": "e720d8ec",
					"getA()": "d46300fd",
					"plusTen()": "40993a3c"
				}
			},
			"storageLayout": {
				"storage": [
					{
						"astId": 258,
						"contract": "contracts-lecture/230515-2.sol:MODIFIER",
						"label": "a",
						"offset": 0,
						"slot": "0",
						"type": "t_uint256"
					}
				],
				"types": {
					"t_uint256": {
						"encoding": "inplace",
						"label": "uint256",
						"numberOfBytes": "32"
					}
				}
			},
			"userdoc": {
				"kind": "user",
				"methods": {},
				"version": 1
			}
		}
	}
}