{
	"contracts-lecture/230515-2.sol": {
		"MODIFIER2": {
			"abi": [
				{
					"inputs": [],
					"name": "getA",
					"outputs": [
						{
							"internalType": "uint256",
							"name": "",
							"type": "uint256"
						}
					],
					"stateMutability": "view",
					"type": "function"
				},
				{
					"inputs": [],
					"name": "setA",
					"outputs": [
						{
							"internalType": "string",
							"name": "",
							"type": "string"
						}
					],
					"stateMutability": "nonpayable",
					"type": "function"
				},
				{
					"inputs": [],
					"name": "setA2",
					"outputs": [
						{
							"internalType": "string",
							"name": "",
							"type": "string"
						}
					],
					"stateMutability": "nonpayable",
					"type": "function"
				},
				{
					"inputs": [],
					"name": "setAasTwo",
					"outputs": [],
					"stateMutability": "nonpayable",
					"type": "function"
				}
			],
			"devdoc": {
				"kind": "dev",
				"methods": {},
				"version": 1
			},
			"evm": {
				"assembly": "    /* \"contracts-lecture/230515-2.sol\":3126:4002  contract MODIFIER2 {... */\n  mstore(0x40, 0x80)\n  callvalue\n  dup1\n  iszero\n  tag_1\n  jumpi\n  0x00\n  dup1\n  revert\ntag_1:\n  pop\n  dataSize(sub_0)\n  dup1\n  dataOffset(sub_0)\n  0x00\n  codecopy\n  0x00\n  return\nstop\n\nsub_0: assembly {\n        /* \"contracts-lecture/230515-2.sol\":3126:4002  contract MODIFIER2 {... */\n      mstore(0x40, 0x80)\n      callvalue\n      dup1\n      iszero\n      tag_1\n      jumpi\n      0x00\n      dup1\n      revert\n    tag_1:\n      pop\n      jumpi(tag_2, lt(calldatasize, 0x04))\n      shr(0xe0, calldataload(0x00))\n      dup1\n      0x1fc376f7\n      eq\n      tag_3\n      jumpi\n      dup1\n      0x498e6857\n      eq\n      tag_4\n      jumpi\n      dup1\n      0x8b28031f\n      eq\n      tag_5\n      jumpi\n      dup1\n      0xd46300fd\n      eq\n      tag_6\n      jumpi\n    tag_2:\n      0x00\n      dup1\n      revert\n        /* \"contracts-lecture/230515-2.sol\":3541:3703  function setA() public plusOneBefore returns(string memory)  {... */\n    tag_3:\n      tag_7\n      tag_8\n      jump\t// in\n    tag_7:\n      mload(0x40)\n      tag_9\n      swap2\n      swap1\n      tag_10\n      jump\t// in\n    tag_9:\n      mload(0x40)\n      dup1\n      swap2\n      sub\n      swap1\n      return\n        /* \"contracts-lecture/230515-2.sol\":3709:3871  function setA2() public plusOneAfter returns(string memory)  {... */\n    tag_4:\n      tag_11\n      tag_12\n      jump\t// in\n    tag_11:\n      mload(0x40)\n      tag_13\n      swap2\n      swap1\n      tag_10\n      jump\t// in\n    tag_13:\n      mload(0x40)\n      dup1\n      swap2\n      sub\n      swap1\n      return\n        /* \"contracts-lecture/230515-2.sol\":3950:4000  function setAasTwo() public {... */\n    tag_5:\n      tag_14\n      tag_15\n      jump\t// in\n    tag_14:\n      stop\n        /* \"contracts-lecture/230515-2.sol\":3877:3944  function getA() public view returns(uint) {... */\n    tag_6:\n      tag_16\n      tag_17\n      jump\t// in\n    tag_16:\n      mload(0x40)\n      tag_18\n      swap2\n      swap1\n      tag_19\n      jump\t// in\n    tag_18:\n      mload(0x40)\n      dup1\n      swap2\n      sub\n      swap1\n      return\n        /* \"contracts-lecture/230515-2.sol\":3541:3703  function setA() public plusOneBefore returns(string memory)  {... */\n    tag_8:\n        /* \"contracts-lecture/230515-2.sol\":3586:3599  string memory */\n      0x60\n        /* \"contracts-lecture/230515-2.sol\":3453:3454  a */\n      0x00\n      dup1\n        /* \"contracts-lecture/230515-2.sol\":3453:3456  a++ */\n      dup2\n      sload\n      dup1\n      swap3\n      swap2\n      swap1\n      tag_21\n      swap1\n      tag_22\n      jump\t// in\n    tag_21:\n      swap2\n      swap1\n      pop\n      sstore\n      pop\n        /* \"contracts-lecture/230515-2.sol\":3618:3619  3 */\n      0x03\n        /* \"contracts-lecture/230515-2.sol\":3615:3616  a */\n      sload(0x00)\n        /* \"contracts-lecture/230515-2.sol\":3615:3619  a>=3 */\n      lt\n        /* \"contracts-lecture/230515-2.sol\":3612:3697  if(a>=3) {... */\n      tag_24\n      jumpi\n        /* \"contracts-lecture/230515-2.sol\":3635:3645  return \"A\" */\n      mload(0x40)\n      dup1\n      0x40\n      add\n      0x40\n      mstore\n      dup1\n      0x01\n      dup2\n      mstore\n      0x20\n      add\n      0x4100000000000000000000000000000000000000000000000000000000000000\n      dup2\n      mstore\n      pop\n      swap1\n      pop\n      jump(tag_23)\n        /* \"contracts-lecture/230515-2.sol\":3612:3697  if(a>=3) {... */\n    tag_24:\n        /* \"contracts-lecture/230515-2.sol\":3676:3686  return \"B\" */\n      mload(0x40)\n      dup1\n      0x40\n      add\n      0x40\n      mstore\n      dup1\n      0x01\n      dup2\n      mstore\n      0x20\n      add\n      0x4200000000000000000000000000000000000000000000000000000000000000\n      dup2\n      mstore\n      pop\n      swap1\n      pop\n        /* \"contracts-lecture/230515-2.sol\":3466:3467  _ */\n    tag_23:\n        /* \"contracts-lecture/230515-2.sol\":3541:3703  function setA() public plusOneBefore returns(string memory)  {... */\n      swap1\n      jump\t// out\n        /* \"contracts-lecture/230515-2.sol\":3709:3871  function setA2() public plusOneAfter returns(string memory)  {... */\n    tag_12:\n        /* \"contracts-lecture/230515-2.sol\":3754:3767  string memory */\n      0x60\n        /* \"contracts-lecture/230515-2.sol\":3786:3787  3 */\n      0x03\n        /* \"contracts-lecture/230515-2.sol\":3783:3784  a */\n      sload(0x00)\n        /* \"contracts-lecture/230515-2.sol\":3783:3787  a>=3 */\n      lt\n        /* \"contracts-lecture/230515-2.sol\":3780:3865  if(a>=3) {... */\n      tag_28\n      jumpi\n        /* \"contracts-lecture/230515-2.sol\":3803:3813  return \"A\" */\n      mload(0x40)\n      dup1\n      0x40\n      add\n      0x40\n      mstore\n      dup1\n      0x01\n      dup2\n      mstore\n      0x20\n      add\n      0x4100000000000000000000000000000000000000000000000000000000000000\n      dup2\n      mstore\n      pop\n      swap1\n      pop\n      jump(tag_27)\n        /* \"contracts-lecture/230515-2.sol\":3780:3865  if(a>=3) {... */\n    tag_28:\n        /* \"contracts-lecture/230515-2.sol\":3844:3854  return \"B\" */\n      mload(0x40)\n      dup1\n      0x40\n      add\n      0x40\n      mstore\n      dup1\n      0x01\n      dup2\n      mstore\n      0x20\n      add\n      0x4200000000000000000000000000000000000000000000000000000000000000\n      dup2\n      mstore\n      pop\n      swap1\n      pop\n        /* \"contracts-lecture/230515-2.sol\":3514:3515  _ */\n    tag_27:\n        /* \"contracts-lecture/230515-2.sol\":3525:3526  a */\n      0x00\n      dup1\n        /* \"contracts-lecture/230515-2.sol\":3525:3528  a++ */\n      dup2\n      sload\n      dup1\n      swap3\n      swap2\n      swap1\n      tag_30\n      swap1\n      tag_22\n      jump\t// in\n    tag_30:\n      swap2\n      swap1\n      pop\n      sstore\n      pop\n        /* \"contracts-lecture/230515-2.sol\":3709:3871  function setA2() public plusOneAfter returns(string memory)  {... */\n      swap1\n      jump\t// out\n        /* \"contracts-lecture/230515-2.sol\":3950:4000  function setAasTwo() public {... */\n    tag_15:\n        /* \"contracts-lecture/230515-2.sol\":3992:3993  2 */\n      0x02\n        /* \"contracts-lecture/230515-2.sol\":3988:3989  a */\n      0x00\n        /* \"contracts-lecture/230515-2.sol\":3988:3993  a = 2 */\n      dup2\n      swap1\n      sstore\n      pop\n        /* \"contracts-lecture/230515-2.sol\":3950:4000  function setAasTwo() public {... */\n      jump\t// out\n        /* \"contracts-lecture/230515-2.sol\":3877:3944  function getA() public view returns(uint) {... */\n    tag_17:\n        /* \"contracts-lecture/230515-2.sol\":3913:3917  uint */\n      0x00\n        /* \"contracts-lecture/230515-2.sol\":3936:3937  a */\n      dup1\n      sload\n        /* \"contracts-lecture/230515-2.sol\":3929:3937  return a */\n      swap1\n      pop\n        /* \"contracts-lecture/230515-2.sol\":3877:3944  function getA() public view returns(uint) {... */\n      swap1\n      jump\t// out\n        /* \"#utility.yul\":7:106   */\n    tag_33:\n        /* \"#utility.yul\":59:65   */\n      0x00\n        /* \"#utility.yul\":93:98   */\n      dup2\n        /* \"#utility.yul\":87:99   */\n      mload\n        /* \"#utility.yul\":77:99   */\n      swap1\n      pop\n        /* \"#utility.yul\":7:106   */\n      swap2\n      swap1\n      pop\n      jump\t// out\n        /* \"#utility.yul\":112:281   */\n    tag_34:\n        /* \"#utility.yul\":196:207   */\n      0x00\n        /* \"#utility.yul\":230:236   */\n      dup3\n        /* \"#utility.yul\":225:228   */\n      dup3\n        /* \"#utility.yul\":218:237   */\n      mstore\n        /* \"#utility.yul\":270:274   */\n      0x20\n        /* \"#utility.yul\":265:268   */\n      dup3\n        /* \"#utility.yul\":261:275   */\n      add\n        /* \"#utility.yul\":246:275   */\n      swap1\n      pop\n        /* \"#utility.yul\":112:281   */\n      swap3\n      swap2\n      pop\n      pop\n      jump\t// out\n        /* \"#utility.yul\":287:533   */\n    tag_35:\n        /* \"#utility.yul\":368:369   */\n      0x00\n        /* \"#utility.yul\":378:491   */\n    tag_45:\n        /* \"#utility.yul\":392:398   */\n      dup4\n        /* \"#utility.yul\":389:390   */\n      dup2\n        /* \"#utility.yul\":386:399   */\n      lt\n        /* \"#utility.yul\":378:491   */\n      iszero\n      tag_47\n      jumpi\n        /* \"#utility.yul\":477:478   */\n      dup1\n        /* \"#utility.yul\":472:475   */\n      dup3\n        /* \"#utility.yul\":468:479   */\n      add\n        /* \"#utility.yul\":462:480   */\n      mload\n        /* \"#utility.yul\":458:459   */\n      dup2\n        /* \"#utility.yul\":453:456   */\n      dup5\n        /* \"#utility.yul\":449:460   */\n      add\n        /* \"#utility.yul\":442:481   */\n      mstore\n        /* \"#utility.yul\":414:416   */\n      0x20\n        /* \"#utility.yul\":411:412   */\n      dup2\n        /* \"#utility.yul\":407:417   */\n      add\n        /* \"#utility.yul\":402:417   */\n      swap1\n      pop\n        /* \"#utility.yul\":378:491   */\n      jump(tag_45)\n    tag_47:\n        /* \"#utility.yul\":525:526   */\n      0x00\n        /* \"#utility.yul\":516:522   */\n      dup5\n        /* \"#utility.yul\":511:514   */\n      dup5\n        /* \"#utility.yul\":507:523   */\n      add\n        /* \"#utility.yul\":500:527   */\n      mstore\n        /* \"#utility.yul\":349:533   */\n      pop\n        /* \"#utility.yul\":287:533   */\n      pop\n      pop\n      pop\n      jump\t// out\n        /* \"#utility.yul\":539:641   */\n    tag_36:\n        /* \"#utility.yul\":580:586   */\n      0x00\n        /* \"#utility.yul\":631:633   */\n      0x1f\n        /* \"#utility.yul\":627:634   */\n      not\n        /* \"#utility.yul\":622:624   */\n      0x1f\n        /* \"#utility.yul\":615:620   */\n      dup4\n        /* \"#utility.yul\":611:625   */\n      add\n        /* \"#utility.yul\":607:635   */\n      and\n        /* \"#utility.yul\":597:635   */\n      swap1\n      pop\n        /* \"#utility.yul\":539:641   */\n      swap2\n      swap1\n      pop\n      jump\t// out\n        /* \"#utility.yul\":647:1024   */\n    tag_37:\n        /* \"#utility.yul\":735:738   */\n      0x00\n        /* \"#utility.yul\":763:802   */\n      tag_50\n        /* \"#utility.yul\":796:801   */\n      dup3\n        /* \"#utility.yul\":763:802   */\n      tag_33\n      jump\t// in\n    tag_50:\n        /* \"#utility.yul\":818:889   */\n      tag_51\n        /* \"#utility.yul\":882:888   */\n      dup2\n        /* \"#utility.yul\":877:880   */\n      dup6\n        /* \"#utility.yul\":818:889   */\n      tag_34\n      jump\t// in\n    tag_51:\n        /* \"#utility.yul\":811:889   */\n      swap4\n      pop\n        /* \"#utility.yul\":898:963   */\n      tag_52\n        /* \"#utility.yul\":956:962   */\n      dup2\n        /* \"#utility.yul\":951:954   */\n      dup6\n        /* \"#utility.yul\":944:948   */\n      0x20\n        /* \"#utility.yul\":937:942   */\n      dup7\n        /* \"#utility.yul\":933:949   */\n      add\n        /* \"#utility.yul\":898:963   */\n      tag_35\n      jump\t// in\n    tag_52:\n        /* \"#utility.yul\":988:1017   */\n      tag_53\n        /* \"#utility.yul\":1010:1016   */\n      dup2\n        /* \"#utility.yul\":988:1017   */\n      tag_36\n      jump\t// in\n    tag_53:\n        /* \"#utility.yul\":983:986   */\n      dup5\n        /* \"#utility.yul\":979:1018   */\n      add\n        /* \"#utility.yul\":972:1018   */\n      swap2\n      pop\n        /* \"#utility.yul\":739:1024   */\n      pop\n        /* \"#utility.yul\":647:1024   */\n      swap3\n      swap2\n      pop\n      pop\n      jump\t// out\n        /* \"#utility.yul\":1030:1343   */\n    tag_10:\n        /* \"#utility.yul\":1143:1147   */\n      0x00\n        /* \"#utility.yul\":1181:1183   */\n      0x20\n        /* \"#utility.yul\":1170:1179   */\n      dup3\n        /* \"#utility.yul\":1166:1184   */\n      add\n        /* \"#utility.yul\":1158:1184   */\n      swap1\n      pop\n        /* \"#utility.yul\":1230:1239   */\n      dup2\n        /* \"#utility.yul\":1224:1228   */\n      dup2\n        /* \"#utility.yul\":1220:1240   */\n      sub\n        /* \"#utility.yul\":1216:1217   */\n      0x00\n        /* \"#utility.yul\":1205:1214   */\n      dup4\n        /* \"#utility.yul\":1201:1218   */\n      add\n        /* \"#utility.yul\":1194:1241   */\n      mstore\n        /* \"#utility.yul\":1258:1336   */\n      tag_55\n        /* \"#utility.yul\":1331:1335   */\n      dup2\n        /* \"#utility.yul\":1322:1328   */\n      dup5\n        /* \"#utility.yul\":1258:1336   */\n      tag_37\n      jump\t// in\n    tag_55:\n        /* \"#utility.yul\":1250:1336   */\n      swap1\n      pop\n        /* \"#utility.yul\":1030:1343   */\n      swap3\n      swap2\n      pop\n      pop\n      jump\t// out\n        /* \"#utility.yul\":1349:1426   */\n    tag_38:\n        /* \"#utility.yul\":1386:1393   */\n      0x00\n        /* \"#utility.yul\":1415:1420   */\n      dup2\n        /* \"#utility.yul\":1404:1420   */\n      swap1\n      pop\n        /* \"#utility.yul\":1349:1426   */\n      swap2\n      swap1\n      pop\n      jump\t// out\n        /* \"#utility.yul\":1432:1550   */\n    tag_39:\n        /* \"#utility.yul\":1519:1543   */\n      tag_58\n        /* \"#utility.yul\":1537:1542   */\n      dup2\n        /* \"#utility.yul\":1519:1543   */\n      tag_38\n      jump\t// in\n    tag_58:\n        /* \"#utility.yul\":1514:1517   */\n      dup3\n        /* \"#utility.yul\":1507:1544   */\n      mstore\n        /* \"#utility.yul\":1432:1550   */\n      pop\n      pop\n      jump\t// out\n        /* \"#utility.yul\":1556:1778   */\n    tag_19:\n        /* \"#utility.yul\":1649:1653   */\n      0x00\n        /* \"#utility.yul\":1687:1689   */\n      0x20\n        /* \"#utility.yul\":1676:1685   */\n      dup3\n        /* \"#utility.yul\":1672:1690   */\n      add\n        /* \"#utility.yul\":1664:1690   */\n      swap1\n      pop\n        /* \"#utility.yul\":1700:1771   */\n      tag_60\n        /* \"#utility.yul\":1768:1769   */\n      0x00\n        /* \"#utility.yul\":1757:1766   */\n      dup4\n        /* \"#utility.yul\":1753:1770   */\n      add\n        /* \"#utility.yul\":1744:1750   */\n      dup5\n        /* \"#utility.yul\":1700:1771   */\n      tag_39\n      jump\t// in\n    tag_60:\n        /* \"#utility.yul\":1556:1778   */\n      swap3\n      swap2\n      pop\n      pop\n      jump\t// out\n        /* \"#utility.yul\":1784:1964   */\n    tag_40:\n        /* \"#utility.yul\":1832:1909   */\n      0x4e487b7100000000000000000000000000000000000000000000000000000000\n        /* \"#utility.yul\":1829:1830   */\n      0x00\n        /* \"#utility.yul\":1822:1910   */\n      mstore\n        /* \"#utility.yul\":1929:1933   */\n      0x11\n        /* \"#utility.yul\":1926:1927   */\n      0x04\n        /* \"#utility.yul\":1919:1934   */\n      mstore\n        /* \"#utility.yul\":1953:1957   */\n      0x24\n        /* \"#utility.yul\":1950:1951   */\n      0x00\n        /* \"#utility.yul\":1943:1958   */\n      revert\n        /* \"#utility.yul\":1970:2203   */\n    tag_22:\n        /* \"#utility.yul\":2009:2012   */\n      0x00\n        /* \"#utility.yul\":2032:2056   */\n      tag_63\n        /* \"#utility.yul\":2050:2055   */\n      dup3\n        /* \"#utility.yul\":2032:2056   */\n      tag_38\n      jump\t// in\n    tag_63:\n        /* \"#utility.yul\":2023:2056   */\n      swap2\n      pop\n        /* \"#utility.yul\":2078:2144   */\n      0xffffffffffffffffffffffffffffffffffffffffffffffffffffffffffffffff\n        /* \"#utility.yul\":2071:2076   */\n      dup3\n        /* \"#utility.yul\":2068:2145   */\n      sub\n        /* \"#utility.yul\":2065:2168   */\n      tag_64\n      jumpi\n        /* \"#utility.yul\":2148:2166   */\n      tag_65\n      tag_40\n      jump\t// in\n    tag_65:\n        /* \"#utility.yul\":2065:2168   */\n    tag_64:\n        /* \"#utility.yul\":2195:2196   */\n      0x01\n        /* \"#utility.yul\":2188:2193   */\n      dup3\n        /* \"#utility.yul\":2184:2197   */\n      add\n        /* \"#utility.yul\":2177:2197   */\n      swap1\n      pop\n        /* \"#utility.yul\":1970:2203   */\n      swap2\n      swap1\n      pop\n      jump\t// out\n\n    auxdata: 0xa2646970667358221220f89fc7bf1c239db3bbe1362d0e70c6a90f5045328fd3299c6f5a82df2696353464736f6c63430008120033\n}\n",
				"bytecode": {
					"linkReferences": {},
					"object": "608060405234801561001057600080fd5b50610393806100206000396000f3fe608060405234801561001057600080fd5b506004361061004c5760003560e01c80631fc376f714610051578063498e68571461006f5780638b28031f1461008d578063d46300fd14610097575b600080fd5b6100596100b5565b6040516100669190610290565b60405180910390f35b610077610151565b6040516100849190610290565b60405180910390f35b6100956101ed565b005b61009f6101f7565b6040516100ac91906102cb565b60405180910390f35b60606000808154809291906100c990610315565b9190505550600360005410610115576040518060400160405280600181526020017f4100000000000000000000000000000000000000000000000000000000000000815250905061014e565b6040518060400160405280600181526020017f420000000000000000000000000000000000000000000000000000000000000081525090505b90565b606060036000541061019a576040518060400160405280600181526020017f410000000000000000000000000000000000000000000000000000000000000081525090506101d3565b6040518060400160405280600181526020017f420000000000000000000000000000000000000000000000000000000000000081525090505b6000808154809291906101e590610315565b919050555090565b6002600081905550565b60008054905090565b600081519050919050565b600082825260208201905092915050565b60005b8381101561023a57808201518184015260208101905061021f565b60008484015250505050565b6000601f19601f8301169050919050565b600061026282610200565b61026c818561020b565b935061027c81856020860161021c565b61028581610246565b840191505092915050565b600060208201905081810360008301526102aa8184610257565b905092915050565b6000819050919050565b6102c5816102b2565b82525050565b60006020820190506102e060008301846102bc565b92915050565b7f4e487b7100000000000000000000000000000000000000000000000000000000600052601160045260246000fd5b6000610320826102b2565b91507fffffffffffffffffffffffffffffffffffffffffffffffffffffffffffffffff8203610352576103516102e6565b5b60018201905091905056fea2646970667358221220f89fc7bf1c239db3bbe1362d0e70c6a90f5045328fd3299c6f5a82df2696353464736f6c63430008120033",
					"opcodes": "PUSH1 0x80 PUSH1 0x40 MSTORE CALLVALUE DUP1 ISZERO PUSH2 0x10 JUMPI PUSH1 0x0 DUP1 REVERT JUMPDEST POP PUSH2 0x393 DUP1 PUSH2 0x20 PUSH1 0x0 CODECOPY PUSH1 0x0 RETURN INVALID PUSH1 0x80 PUSH1 0x40 MSTORE CALLVALUE DUP1 ISZERO PUSH2 0x10 JUMPI PUSH1 0x0 DUP1 REVERT JUMPDEST POP PUSH1 0x4 CALLDATASIZE LT PUSH2 0x4C JUMPI PUSH1 0x0 CALLDATALOAD PUSH1 0xE0 SHR DUP1 PUSH4 0x1FC376F7 EQ PUSH2 0x51 JUMPI DUP1 PUSH4 0x498E6857 EQ PUSH2 0x6F JUMPI DUP1 PUSH4 0x8B28031F EQ PUSH2 0x8D JUMPI DUP1 PUSH4 0xD46300FD EQ PUSH2 0x97 JUMPI JUMPDEST PUSH1 0x0 DUP1 REVERT JUMPDEST PUSH2 0x59 PUSH2 0xB5 JUMP JUMPDEST PUSH1 0x40 MLOAD PUSH2 0x66 SWAP2 SWAP1 PUSH2 0x290 JUMP JUMPDEST PUSH1 0x40 MLOAD DUP1 SWAP2 SUB SWAP1 RETURN JUMPDEST PUSH2 0x77 PUSH2 0x151 JUMP JUMPDEST PUSH1 0x40 MLOAD PUSH2 0x84 SWAP2 SWAP1 PUSH2 0x290 JUMP JUMPDEST PUSH1 0x40 MLOAD DUP1 SWAP2 SUB SWAP1 RETURN JUMPDEST PUSH2 0x95 PUSH2 0x1ED JUMP JUMPDEST STOP JUMPDEST PUSH2 0x9F PUSH2 0x1F7 JUMP JUMPDEST PUSH1 0x40 MLOAD PUSH2 0xAC SWAP2 SWAP1 PUSH2 0x2CB JUMP JUMPDEST PUSH1 0x40 MLOAD DUP1 SWAP2 SUB SWAP1 RETURN JUMPDEST PUSH1 0x60 PUSH1 0x0 DUP1 DUP2 SLOAD DUP1 SWAP3 SWAP2 SWAP1 PUSH2 0xC9 SWAP1 PUSH2 0x315 JUMP JUMPDEST SWAP2 SWAP1 POP SSTORE POP PUSH1 0x3 PUSH1 0x0 SLOAD LT PUSH2 0x115 JUMPI PUSH1 0x40 MLOAD DUP1 PUSH1 0x40 ADD PUSH1 0x40 MSTORE DUP1 PUSH1 0x1 DUP2 MSTORE PUSH1 0x20 ADD PUSH32 0x4100000000000000000000000000000000000000000000000000000000000000 DUP2 MSTORE POP SWAP1 POP PUSH2 0x14E JUMP JUMPDEST PUSH1 0x40 MLOAD DUP1 PUSH1 0x40 ADD PUSH1 0x40 MSTORE DUP1 PUSH1 0x1 DUP2 MSTORE PUSH1 0x20 ADD PUSH32 0x4200000000000000000000000000000000000000000000000000000000000000 DUP2 MSTORE POP SWAP1 POP JUMPDEST SWAP1 JUMP JUMPDEST PUSH1 0x60 PUSH1 0x3 PUSH1 0x0 SLOAD LT PUSH2 0x19A JUMPI PUSH1 0x40 MLOAD DUP1 PUSH1 0x40 ADD PUSH1 0x40 MSTORE DUP1 PUSH1 0x1 DUP2 MSTORE PUSH1 0x20 ADD PUSH32 0x4100000000000000000000000000000000000000000000000000000000000000 DUP2 MSTORE POP SWAP1 POP PUSH2 0x1D3 JUMP JUMPDEST PUSH1 0x40 MLOAD DUP1 PUSH1 0x40 ADD PUSH1 0x40 MSTORE DUP1 PUSH1 0x1 DUP2 MSTORE PUSH1 0x20 ADD PUSH32 0x4200000000000000000000000000000000000000000000000000000000000000 DUP2 MSTORE POP SWAP1 POP JUMPDEST PUSH1 0x0 DUP1 DUP2 SLOAD DUP1 SWAP3 SWAP2 SWAP1 PUSH2 0x1E5 SWAP1 PUSH2 0x315 JUMP JUMPDEST SWAP2 SWAP1 POP SSTORE POP SWAP1 JUMP JUMPDEST PUSH1 0x2 PUSH1 0x0 DUP2 SWAP1 SSTORE POP JUMP JUMPDEST PUSH1 0x0 DUP1 SLOAD SWAP1 POP SWAP1 JUMP JUMPDEST PUSH1 0x0 DUP2 MLOAD SWAP1 POP SWAP2 SWAP1 POP JUMP JUMPDEST PUSH1 0x0 DUP3 DUP3 MSTORE PUSH1 0x20 DUP3 ADD SWAP1 POP SWAP3 SWAP2 POP POP JUMP JUMPDEST PUSH1 0x0 JUMPDEST DUP4 DUP2 LT ISZERO PUSH2 0x23A JUMPI DUP1 DUP3 ADD MLOAD DUP2 DUP5 ADD MSTORE PUSH1 0x20 DUP2 ADD SWAP1 POP PUSH2 0x21F JUMP JUMPDEST PUSH1 0x0 DUP5 DUP5 ADD MSTORE POP POP POP POP JUMP JUMPDEST PUSH1 0x0 PUSH1 0x1F NOT PUSH1 0x1F DUP4 ADD AND SWAP1 POP SWAP2 SWAP1 POP JUMP JUMPDEST PUSH1 0x0 PUSH2 0x262 DUP3 PUSH2 0x200 JUMP JUMPDEST PUSH2 0x26C DUP2 DUP6 PUSH2 0x20B JUMP JUMPDEST SWAP4 POP PUSH2 0x27C DUP2 DUP6 PUSH1 0x20 DUP7 ADD PUSH2 0x21C JUMP JUMPDEST PUSH2 0x285 DUP2 PUSH2 0x246 JUMP JUMPDEST DUP5 ADD SWAP2 POP POP SWAP3 SWAP2 POP POP JUMP JUMPDEST PUSH1 0x0 PUSH1 0x20 DUP3 ADD SWAP1 POP DUP2 DUP2 SUB PUSH1 0x0 DUP4 ADD MSTORE PUSH2 0x2AA DUP2 DUP5 PUSH2 0x257 JUMP JUMPDEST SWAP1 POP SWAP3 SWAP2 POP POP JUMP JUMPDEST PUSH1 0x0 DUP2 SWAP1 POP SWAP2 SWAP1 POP JUMP JUMPDEST PUSH2 0x2C5 DUP2 PUSH2 0x2B2 JUMP JUMPDEST DUP3 MSTORE POP POP JUMP JUMPDEST PUSH1 0x0 PUSH1 0x20 DUP3 ADD SWAP1 POP PUSH2 0x2E0 PUSH1 0x0 DUP4 ADD DUP5 PUSH2 0x2BC JUMP JUMPDEST SWAP3 SWAP2 POP POP JUMP JUMPDEST PUSH32 0x4E487B7100000000000000000000000000000000000000000000000000000000 PUSH1 0x0 MSTORE PUSH1 0x11 PUSH1 0x4 MSTORE PUSH1 0x24 PUSH1 0x0 REVERT JUMPDEST PUSH1 0x0 PUSH2 0x320 DUP3 PUSH2 0x2B2 JUMP JUMPDEST SWAP2 POP PUSH32 0xFFFFFFFFFFFFFFFFFFFFFFFFFFFFFFFFFFFFFFFFFFFFFFFFFFFFFFFFFFFFFFFF DUP3 SUB PUSH2 0x352 JUMPI PUSH2 0x351 PUSH2 0x2E6 JUMP JUMPDEST JUMPDEST PUSH1 0x1 DUP3 ADD SWAP1 POP SWAP2 SWAP1 POP JUMP INVALID LOG2 PUSH5 0x6970667358 0x22 SLT KECCAK256 0xF8 SWAP16 0xC7 0xBF SHR 0x23 SWAP14 0xB3 0xBB 0xE1 CALLDATASIZE 0x2D 0xE PUSH17 0xC6A90F5045328FD3299C6F5A82DF269635 CALLVALUE PUSH5 0x736F6C6343 STOP ADDMOD SLT STOP CALLER "
				},
				"gasEstimates": {
					"creation": {
						"codeDepositCost": "183000",
						"executionCost": "226",
						"totalCost": "183226"
					},
					"external": {
						"getA()": "2481",
						"setA()": "infinite",
						"setA2()": "infinite",
						"setAasTwo()": "22280"
					}
				},
				"methodIdentifiers": {
					"getA()": "d46300fd",
					"setA()": "1fc376f7",
					"setA2()": "498e6857",
					"setAasTwo()": "8b28031f"
				}
			},
			"storageLayout": {
				"storage": [
					{
						"astId": 316,
						"contract": "contracts-lecture/230515-2.sol:MODIFIER2",
						"label": "a",
						"offset": 0,
						"slot": "0",
						"type": "t_uint256"
					}
				],
				"types": {
					"t_uint256": {
						"encoding": "inplace",
						"label": "uint256",
						"numberOfBytes": "32"
					}
				}
			},
			"userdoc": {
				"kind": "user",
				"methods": {},
				"version": 1
			}
		}
	}
}