{
	"contracts-lecture/230515-2.sol": {
		"MODIFIER5": {
			"abi": [
				{
					"inputs": [],
					"name": "cal",
					"outputs": [
						{
							"internalType": "uint256",
							"name": "",
							"type": "uint256"
						}
					],
					"stateMutability": "view",
					"type": "function"
				},
				{
					"inputs": [],
					"name": "inAndOut",
					"outputs": [
						{
							"internalType": "string",
							"name": "",
							"type": "string"
						}
					],
					"stateMutability": "nonpayable",
					"type": "function"
				},
				{
					"inputs": [],
					"name": "plus",
					"outputs": [],
					"stateMutability": "nonpayable",
					"type": "function"
				},
				{
					"inputs": [],
					"name": "ten",
					"outputs": [],
					"stateMutability": "nonpayable",
					"type": "function"
				}
			],
			"devdoc": {
				"kind": "dev",
				"methods": {},
				"version": 1
			},
			"evm": {
				"assembly": "    /* \"contracts-lecture/230515-2.sol\":6088:6601  contract MODIFIER5 {... */\n  mstore(0x40, 0x80)\n    /* \"contracts-lecture/230515-2.sol\":6126:6127  0 */\n  0x00\n    /* \"contracts-lecture/230515-2.sol\":6113:6127  uint mutex = 0 */\n  dup1\n  sstore\n    /* \"contracts-lecture/230515-2.sol\":6088:6601  contract MODIFIER5 {... */\n  callvalue\n  dup1\n  iszero\n  tag_1\n  jumpi\n  0x00\n  dup1\n  revert\ntag_1:\n  pop\n  dataSize(sub_0)\n  dup1\n  dataOffset(sub_0)\n  0x00\n  codecopy\n  0x00\n  return\nstop\n\nsub_0: assembly {\n        /* \"contracts-lecture/230515-2.sol\":6088:6601  contract MODIFIER5 {... */\n      mstore(0x40, 0x80)\n      callvalue\n      dup1\n      iszero\n      tag_1\n      jumpi\n      0x00\n      dup1\n      revert\n    tag_1:\n      pop\n      jumpi(tag_2, lt(calldatasize, 0x04))\n      shr(0xe0, calldataload(0x00))\n      dup1\n      0x18b0c3fd\n      eq\n      tag_3\n      jumpi\n      dup1\n      0x57a525a5\n      eq\n      tag_4\n      jumpi\n      dup1\n      0x643ceff9\n      eq\n      tag_5\n      jumpi\n      dup1\n      0xb7c738f4\n      eq\n      tag_6\n      jumpi\n    tag_2:\n      0x00\n      dup1\n      revert\n        /* \"contracts-lecture/230515-2.sol\":6500:6547  function plus() public {... */\n    tag_3:\n      tag_7\n      tag_8\n      jump\t// in\n    tag_7:\n      stop\n        /* \"contracts-lecture/230515-2.sol\":6406:6494  function inAndOut() public m_check returns(string memory) {... */\n    tag_4:\n      tag_9\n      tag_10\n      jump\t// in\n    tag_9:\n      mload(0x40)\n      tag_11\n      swap2\n      swap1\n      tag_12\n      jump\t// in\n    tag_11:\n      mload(0x40)\n      dup1\n      swap2\n      sub\n      swap1\n      return\n        /* \"contracts-lecture/230515-2.sol\":6553:6599  function ten() public {... */\n    tag_5:\n      tag_13\n      tag_14\n      jump\t// in\n    tag_13:\n      stop\n        /* \"contracts-lecture/230515-2.sol\":6312:6400  function cal() public view biggerThanTen returns(uint) {... */\n    tag_6:\n      tag_15\n      tag_16\n      jump\t// in\n    tag_15:\n      mload(0x40)\n      tag_17\n      swap2\n      swap1\n      tag_18\n      jump\t// in\n    tag_17:\n      mload(0x40)\n      dup1\n      swap2\n      sub\n      swap1\n      return\n        /* \"contracts-lecture/230515-2.sol\":6500:6547  function plus() public {... */\n    tag_8:\n        /* \"contracts-lecture/230515-2.sol\":6533:6538  mutex */\n      0x00\n      dup1\n        /* \"contracts-lecture/230515-2.sol\":6533:6540  mutex++ */\n      dup2\n      sload\n      dup1\n      swap3\n      swap2\n      swap1\n      tag_20\n      swap1\n      tag_21\n      jump\t// in\n    tag_20:\n      swap2\n      swap1\n      pop\n      sstore\n      pop\n        /* \"contracts-lecture/230515-2.sol\":6500:6547  function plus() public {... */\n      jump\t// out\n        /* \"contracts-lecture/230515-2.sol\":6406:6494  function inAndOut() public m_check returns(string memory) {... */\n    tag_10:\n        /* \"contracts-lecture/230515-2.sol\":6449:6462  string memory */\n      0x60\n        /* \"contracts-lecture/230515-2.sol\":6161:6166  mutex */\n      0x00\n      dup1\n        /* \"contracts-lecture/230515-2.sol\":6161:6168  mutex++ */\n      dup2\n      sload\n      dup1\n      swap3\n      swap2\n      swap1\n      tag_23\n      swap1\n      tag_21\n      jump\t// in\n    tag_23:\n      swap2\n      swap1\n      pop\n      sstore\n      pop\n        /* \"contracts-lecture/230515-2.sol\":6474:6487  return \"Done\" */\n      mload(0x40)\n      dup1\n      0x40\n      add\n      0x40\n      mstore\n      dup1\n      0x04\n      dup2\n      mstore\n      0x20\n      add\n      0x446f6e6500000000000000000000000000000000000000000000000000000000\n      dup2\n      mstore\n      pop\n      swap1\n      pop\n        /* \"contracts-lecture/230515-2.sol\":6189:6194  mutex */\n      0x00\n      dup1\n        /* \"contracts-lecture/230515-2.sol\":6189:6196  mutex-- */\n      dup2\n      sload\n      dup1\n      swap3\n      swap2\n      swap1\n      tag_25\n      swap1\n      tag_26\n      jump\t// in\n    tag_25:\n      swap2\n      swap1\n      pop\n      sstore\n      pop\n        /* \"contracts-lecture/230515-2.sol\":6406:6494  function inAndOut() public m_check returns(string memory) {... */\n      swap1\n      jump\t// out\n        /* \"contracts-lecture/230515-2.sol\":6553:6599  function ten() public {... */\n    tag_14:\n        /* \"contracts-lecture/230515-2.sol\":6585:6590  mutex */\n      0x00\n      dup1\n        /* \"contracts-lecture/230515-2.sol\":6585:6592  mutex-- */\n      dup2\n      sload\n      dup1\n      swap3\n      swap2\n      swap1\n      tag_28\n      swap1\n      tag_26\n      jump\t// in\n    tag_28:\n      swap2\n      swap1\n      pop\n      sstore\n      pop\n        /* \"contracts-lecture/230515-2.sol\":6553:6599  function ten() public {... */\n      jump\t// out\n        /* \"contracts-lecture/230515-2.sol\":6312:6400  function cal() public view biggerThanTen returns(uint) {... */\n    tag_16:\n        /* \"contracts-lecture/230515-2.sol\":6361:6365  uint */\n      0x00\n        /* \"contracts-lecture/230515-2.sol\":6256:6258  10 */\n      0x0a\n        /* \"contracts-lecture/230515-2.sol\":6250:6255  mutex */\n      sload(0x00)\n        /* \"contracts-lecture/230515-2.sol\":6250:6258  mutex>10 */\n      gt\n        /* \"contracts-lecture/230515-2.sol\":6242:6288  require(mutex>10, \"should be bigger than 10.\") */\n      tag_30\n      jumpi\n      mload(0x40)\n      0x08c379a000000000000000000000000000000000000000000000000000000000\n      dup2\n      mstore\n      0x04\n      add\n      tag_31\n      swap1\n      tag_32\n      jump\t// in\n    tag_31:\n      mload(0x40)\n      dup1\n      swap2\n      sub\n      swap1\n      revert\n    tag_30:\n        /* \"contracts-lecture/230515-2.sol\":6392:6393  5 */\n      0x05\n        /* \"contracts-lecture/230515-2.sol\":6384:6389  mutex */\n      sload(0x00)\n        /* \"contracts-lecture/230515-2.sol\":6384:6393  mutex * 5 */\n      tag_34\n      swap2\n      swap1\n      tag_35\n      jump\t// in\n    tag_34:\n        /* \"contracts-lecture/230515-2.sol\":6377:6393  return mutex * 5 */\n      swap1\n      pop\n        /* \"contracts-lecture/230515-2.sol\":6312:6400  function cal() public view biggerThanTen returns(uint) {... */\n      swap1\n      jump\t// out\n        /* \"#utility.yul\":7:106   */\n    tag_36:\n        /* \"#utility.yul\":59:65   */\n      0x00\n        /* \"#utility.yul\":93:98   */\n      dup2\n        /* \"#utility.yul\":87:99   */\n      mload\n        /* \"#utility.yul\":77:99   */\n      swap1\n      pop\n        /* \"#utility.yul\":7:106   */\n      swap2\n      swap1\n      pop\n      jump\t// out\n        /* \"#utility.yul\":112:281   */\n    tag_37:\n        /* \"#utility.yul\":196:207   */\n      0x00\n        /* \"#utility.yul\":230:236   */\n      dup3\n        /* \"#utility.yul\":225:228   */\n      dup3\n        /* \"#utility.yul\":218:237   */\n      mstore\n        /* \"#utility.yul\":270:274   */\n      0x20\n        /* \"#utility.yul\":265:268   */\n      dup3\n        /* \"#utility.yul\":261:275   */\n      add\n        /* \"#utility.yul\":246:275   */\n      swap1\n      pop\n        /* \"#utility.yul\":112:281   */\n      swap3\n      swap2\n      pop\n      pop\n      jump\t// out\n        /* \"#utility.yul\":287:533   */\n    tag_38:\n        /* \"#utility.yul\":368:369   */\n      0x00\n        /* \"#utility.yul\":378:491   */\n    tag_50:\n        /* \"#utility.yul\":392:398   */\n      dup4\n        /* \"#utility.yul\":389:390   */\n      dup2\n        /* \"#utility.yul\":386:399   */\n      lt\n        /* \"#utility.yul\":378:491   */\n      iszero\n      tag_52\n      jumpi\n        /* \"#utility.yul\":477:478   */\n      dup1\n        /* \"#utility.yul\":472:475   */\n      dup3\n        /* \"#utility.yul\":468:479   */\n      add\n        /* \"#utility.yul\":462:480   */\n      mload\n        /* \"#utility.yul\":458:459   */\n      dup2\n        /* \"#utility.yul\":453:456   */\n      dup5\n        /* \"#utility.yul\":449:460   */\n      add\n        /* \"#utility.yul\":442:481   */\n      mstore\n        /* \"#utility.yul\":414:416   */\n      0x20\n        /* \"#utility.yul\":411:412   */\n      dup2\n        /* \"#utility.yul\":407:417   */\n      add\n        /* \"#utility.yul\":402:417   */\n      swap1\n      pop\n        /* \"#utility.yul\":378:491   */\n      jump(tag_50)\n    tag_52:\n        /* \"#utility.yul\":525:526   */\n      0x00\n        /* \"#utility.yul\":516:522   */\n      dup5\n        /* \"#utility.yul\":511:514   */\n      dup5\n        /* \"#utility.yul\":507:523   */\n      add\n        /* \"#utility.yul\":500:527   */\n      mstore\n        /* \"#utility.yul\":349:533   */\n      pop\n        /* \"#utility.yul\":287:533   */\n      pop\n      pop\n      pop\n      jump\t// out\n        /* \"#utility.yul\":539:641   */\n    tag_39:\n        /* \"#utility.yul\":580:586   */\n      0x00\n        /* \"#utility.yul\":631:633   */\n      0x1f\n        /* \"#utility.yul\":627:634   */\n      not\n        /* \"#utility.yul\":622:624   */\n      0x1f\n        /* \"#utility.yul\":615:620   */\n      dup4\n        /* \"#utility.yul\":611:625   */\n      add\n        /* \"#utility.yul\":607:635   */\n      and\n        /* \"#utility.yul\":597:635   */\n      swap1\n      pop\n        /* \"#utility.yul\":539:641   */\n      swap2\n      swap1\n      pop\n      jump\t// out\n        /* \"#utility.yul\":647:1024   */\n    tag_40:\n        /* \"#utility.yul\":735:738   */\n      0x00\n        /* \"#utility.yul\":763:802   */\n      tag_55\n        /* \"#utility.yul\":796:801   */\n      dup3\n        /* \"#utility.yul\":763:802   */\n      tag_36\n      jump\t// in\n    tag_55:\n        /* \"#utility.yul\":818:889   */\n      tag_56\n        /* \"#utility.yul\":882:888   */\n      dup2\n        /* \"#utility.yul\":877:880   */\n      dup6\n        /* \"#utility.yul\":818:889   */\n      tag_37\n      jump\t// in\n    tag_56:\n        /* \"#utility.yul\":811:889   */\n      swap4\n      pop\n        /* \"#utility.yul\":898:963   */\n      tag_57\n        /* \"#utility.yul\":956:962   */\n      dup2\n        /* \"#utility.yul\":951:954   */\n      dup6\n        /* \"#utility.yul\":944:948   */\n      0x20\n        /* \"#utility.yul\":937:942   */\n      dup7\n        /* \"#utility.yul\":933:949   */\n      add\n        /* \"#utility.yul\":898:963   */\n      tag_38\n      jump\t// in\n    tag_57:\n        /* \"#utility.yul\":988:1017   */\n      tag_58\n        /* \"#utility.yul\":1010:1016   */\n      dup2\n        /* \"#utility.yul\":988:1017   */\n      tag_39\n      jump\t// in\n    tag_58:\n        /* \"#utility.yul\":983:986   */\n      dup5\n        /* \"#utility.yul\":979:1018   */\n      add\n        /* \"#utility.yul\":972:1018   */\n      swap2\n      pop\n        /* \"#utility.yul\":739:1024   */\n      pop\n        /* \"#utility.yul\":647:1024   */\n      swap3\n      swap2\n      pop\n      pop\n      jump\t// out\n        /* \"#utility.yul\":1030:1343   */\n    tag_12:\n        /* \"#utility.yul\":1143:1147   */\n      0x00\n        /* \"#utility.yul\":1181:1183   */\n      0x20\n        /* \"#utility.yul\":1170:1179   */\n      dup3\n        /* \"#utility.yul\":1166:1184   */\n      add\n        /* \"#utility.yul\":1158:1184   */\n      swap1\n      pop\n        /* \"#utility.yul\":1230:1239   */\n      dup2\n        /* \"#utility.yul\":1224:1228   */\n      dup2\n        /* \"#utility.yul\":1220:1240   */\n      sub\n        /* \"#utility.yul\":1216:1217   */\n      0x00\n        /* \"#utility.yul\":1205:1214   */\n      dup4\n        /* \"#utility.yul\":1201:1218   */\n      add\n        /* \"#utility.yul\":1194:1241   */\n      mstore\n        /* \"#utility.yul\":1258:1336   */\n      tag_60\n        /* \"#utility.yul\":1331:1335   */\n      dup2\n        /* \"#utility.yul\":1322:1328   */\n      dup5\n        /* \"#utility.yul\":1258:1336   */\n      tag_40\n      jump\t// in\n    tag_60:\n        /* \"#utility.yul\":1250:1336   */\n      swap1\n      pop\n        /* \"#utility.yul\":1030:1343   */\n      swap3\n      swap2\n      pop\n      pop\n      jump\t// out\n        /* \"#utility.yul\":1349:1426   */\n    tag_41:\n        /* \"#utility.yul\":1386:1393   */\n      0x00\n        /* \"#utility.yul\":1415:1420   */\n      dup2\n        /* \"#utility.yul\":1404:1420   */\n      swap1\n      pop\n        /* \"#utility.yul\":1349:1426   */\n      swap2\n      swap1\n      pop\n      jump\t// out\n        /* \"#utility.yul\":1432:1550   */\n    tag_42:\n        /* \"#utility.yul\":1519:1543   */\n      tag_63\n        /* \"#utility.yul\":1537:1542   */\n      dup2\n        /* \"#utility.yul\":1519:1543   */\n      tag_41\n      jump\t// in\n    tag_63:\n        /* \"#utility.yul\":1514:1517   */\n      dup3\n        /* \"#utility.yul\":1507:1544   */\n      mstore\n        /* \"#utility.yul\":1432:1550   */\n      pop\n      pop\n      jump\t// out\n        /* \"#utility.yul\":1556:1778   */\n    tag_18:\n        /* \"#utility.yul\":1649:1653   */\n      0x00\n        /* \"#utility.yul\":1687:1689   */\n      0x20\n        /* \"#utility.yul\":1676:1685   */\n      dup3\n        /* \"#utility.yul\":1672:1690   */\n      add\n        /* \"#utility.yul\":1664:1690   */\n      swap1\n      pop\n        /* \"#utility.yul\":1700:1771   */\n      tag_65\n        /* \"#utility.yul\":1768:1769   */\n      0x00\n        /* \"#utility.yul\":1757:1766   */\n      dup4\n        /* \"#utility.yul\":1753:1770   */\n      add\n        /* \"#utility.yul\":1744:1750   */\n      dup5\n        /* \"#utility.yul\":1700:1771   */\n      tag_42\n      jump\t// in\n    tag_65:\n        /* \"#utility.yul\":1556:1778   */\n      swap3\n      swap2\n      pop\n      pop\n      jump\t// out\n        /* \"#utility.yul\":1784:1964   */\n    tag_43:\n        /* \"#utility.yul\":1832:1909   */\n      0x4e487b7100000000000000000000000000000000000000000000000000000000\n        /* \"#utility.yul\":1829:1830   */\n      0x00\n        /* \"#utility.yul\":1822:1910   */\n      mstore\n        /* \"#utility.yul\":1929:1933   */\n      0x11\n        /* \"#utility.yul\":1926:1927   */\n      0x04\n        /* \"#utility.yul\":1919:1934   */\n      mstore\n        /* \"#utility.yul\":1953:1957   */\n      0x24\n        /* \"#utility.yul\":1950:1951   */\n      0x00\n        /* \"#utility.yul\":1943:1958   */\n      revert\n        /* \"#utility.yul\":1970:2203   */\n    tag_21:\n        /* \"#utility.yul\":2009:2012   */\n      0x00\n        /* \"#utility.yul\":2032:2056   */\n      tag_68\n        /* \"#utility.yul\":2050:2055   */\n      dup3\n        /* \"#utility.yul\":2032:2056   */\n      tag_41\n      jump\t// in\n    tag_68:\n        /* \"#utility.yul\":2023:2056   */\n      swap2\n      pop\n        /* \"#utility.yul\":2078:2144   */\n      0xffffffffffffffffffffffffffffffffffffffffffffffffffffffffffffffff\n        /* \"#utility.yul\":2071:2076   */\n      dup3\n        /* \"#utility.yul\":2068:2145   */\n      sub\n        /* \"#utility.yul\":2065:2168   */\n      tag_69\n      jumpi\n        /* \"#utility.yul\":2148:2166   */\n      tag_70\n      tag_43\n      jump\t// in\n    tag_70:\n        /* \"#utility.yul\":2065:2168   */\n    tag_69:\n        /* \"#utility.yul\":2195:2196   */\n      0x01\n        /* \"#utility.yul\":2188:2193   */\n      dup3\n        /* \"#utility.yul\":2184:2197   */\n      add\n        /* \"#utility.yul\":2177:2197   */\n      swap1\n      pop\n        /* \"#utility.yul\":1970:2203   */\n      swap2\n      swap1\n      pop\n      jump\t// out\n        /* \"#utility.yul\":2209:2380   */\n    tag_26:\n        /* \"#utility.yul\":2248:2251   */\n      0x00\n        /* \"#utility.yul\":2271:2295   */\n      tag_72\n        /* \"#utility.yul\":2289:2294   */\n      dup3\n        /* \"#utility.yul\":2271:2295   */\n      tag_41\n      jump\t// in\n    tag_72:\n        /* \"#utility.yul\":2262:2295   */\n      swap2\n      pop\n        /* \"#utility.yul\":2317:2321   */\n      0x00\n        /* \"#utility.yul\":2310:2315   */\n      dup3\n        /* \"#utility.yul\":2307:2322   */\n      sub\n        /* \"#utility.yul\":2304:2345   */\n      tag_73\n      jumpi\n        /* \"#utility.yul\":2325:2343   */\n      tag_74\n      tag_43\n      jump\t// in\n    tag_74:\n        /* \"#utility.yul\":2304:2345   */\n    tag_73:\n        /* \"#utility.yul\":2372:2373   */\n      0x01\n        /* \"#utility.yul\":2365:2370   */\n      dup3\n        /* \"#utility.yul\":2361:2374   */\n      sub\n        /* \"#utility.yul\":2354:2374   */\n      swap1\n      pop\n        /* \"#utility.yul\":2209:2380   */\n      swap2\n      swap1\n      pop\n      jump\t// out\n        /* \"#utility.yul\":2386:2561   */\n    tag_44:\n        /* \"#utility.yul\":2526:2553   */\n      0x73686f756c6420626520626967676572207468616e2031302e00000000000000\n        /* \"#utility.yul\":2522:2523   */\n      0x00\n        /* \"#utility.yul\":2514:2520   */\n      dup3\n        /* \"#utility.yul\":2510:2524   */\n      add\n        /* \"#utility.yul\":2503:2554   */\n      mstore\n        /* \"#utility.yul\":2386:2561   */\n      pop\n      jump\t// out\n        /* \"#utility.yul\":2567:2933   */\n    tag_45:\n        /* \"#utility.yul\":2709:2712   */\n      0x00\n        /* \"#utility.yul\":2730:2797   */\n      tag_77\n        /* \"#utility.yul\":2794:2796   */\n      0x19\n        /* \"#utility.yul\":2789:2792   */\n      dup4\n        /* \"#utility.yul\":2730:2797   */\n      tag_37\n      jump\t// in\n    tag_77:\n        /* \"#utility.yul\":2723:2797   */\n      swap2\n      pop\n        /* \"#utility.yul\":2806:2899   */\n      tag_78\n        /* \"#utility.yul\":2895:2898   */\n      dup3\n        /* \"#utility.yul\":2806:2899   */\n      tag_44\n      jump\t// in\n    tag_78:\n        /* \"#utility.yul\":2924:2926   */\n      0x20\n        /* \"#utility.yul\":2919:2922   */\n      dup3\n        /* \"#utility.yul\":2915:2927   */\n      add\n        /* \"#utility.yul\":2908:2927   */\n      swap1\n      pop\n        /* \"#utility.yul\":2567:2933   */\n      swap2\n      swap1\n      pop\n      jump\t// out\n        /* \"#utility.yul\":2939:3358   */\n    tag_32:\n        /* \"#utility.yul\":3105:3109   */\n      0x00\n        /* \"#utility.yul\":3143:3145   */\n      0x20\n        /* \"#utility.yul\":3132:3141   */\n      dup3\n        /* \"#utility.yul\":3128:3146   */\n      add\n        /* \"#utility.yul\":3120:3146   */\n      swap1\n      pop\n        /* \"#utility.yul\":3192:3201   */\n      dup2\n        /* \"#utility.yul\":3186:3190   */\n      dup2\n        /* \"#utility.yul\":3182:3202   */\n      sub\n        /* \"#utility.yul\":3178:3179   */\n      0x00\n        /* \"#utility.yul\":3167:3176   */\n      dup4\n        /* \"#utility.yul\":3163:3180   */\n      add\n        /* \"#utility.yul\":3156:3203   */\n      mstore\n        /* \"#utility.yul\":3220:3351   */\n      tag_80\n        /* \"#utility.yul\":3346:3350   */\n      dup2\n        /* \"#utility.yul\":3220:3351   */\n      tag_45\n      jump\t// in\n    tag_80:\n        /* \"#utility.yul\":3212:3351   */\n      swap1\n      pop\n        /* \"#utility.yul\":2939:3358   */\n      swap2\n      swap1\n      pop\n      jump\t// out\n        /* \"#utility.yul\":3364:3774   */\n    tag_35:\n        /* \"#utility.yul\":3404:3411   */\n      0x00\n        /* \"#utility.yul\":3427:3447   */\n      tag_82\n        /* \"#utility.yul\":3445:3446   */\n      dup3\n        /* \"#utility.yul\":3427:3447   */\n      tag_41\n      jump\t// in\n    tag_82:\n        /* \"#utility.yul\":3422:3447   */\n      swap2\n      pop\n        /* \"#utility.yul\":3461:3481   */\n      tag_83\n        /* \"#utility.yul\":3479:3480   */\n      dup4\n        /* \"#utility.yul\":3461:3481   */\n      tag_41\n      jump\t// in\n    tag_83:\n        /* \"#utility.yul\":3456:3481   */\n      swap3\n      pop\n        /* \"#utility.yul\":3516:3517   */\n      dup3\n        /* \"#utility.yul\":3513:3514   */\n      dup3\n        /* \"#utility.yul\":3509:3518   */\n      mul\n        /* \"#utility.yul\":3538:3568   */\n      tag_84\n        /* \"#utility.yul\":3556:3567   */\n      dup2\n        /* \"#utility.yul\":3538:3568   */\n      tag_41\n      jump\t// in\n    tag_84:\n        /* \"#utility.yul\":3527:3568   */\n      swap2\n      pop\n        /* \"#utility.yul\":3717:3718   */\n      dup3\n        /* \"#utility.yul\":3708:3715   */\n      dup3\n        /* \"#utility.yul\":3704:3719   */\n      div\n        /* \"#utility.yul\":3701:3702   */\n      dup5\n        /* \"#utility.yul\":3698:3720   */\n      eq\n        /* \"#utility.yul\":3678:3679   */\n      dup4\n        /* \"#utility.yul\":3671:3680   */\n      iszero\n        /* \"#utility.yul\":3651:3734   */\n      or\n        /* \"#utility.yul\":3628:3767   */\n      tag_85\n      jumpi\n        /* \"#utility.yul\":3747:3765   */\n      tag_86\n      tag_43\n      jump\t// in\n    tag_86:\n        /* \"#utility.yul\":3628:3767   */\n    tag_85:\n        /* \"#utility.yul\":3412:3774   */\n      pop\n        /* \"#utility.yul\":3364:3774   */\n      swap3\n      swap2\n      pop\n      pop\n      jump\t// out\n\n    auxdata: 0xa264697066735822122068642451ebabe33e59a0f14b922f01878e88ed7c6dbd4bbdc0e5672aeb57750e64736f6c63430008120033\n}\n",
				"bytecode": {
					"linkReferences": {},
					"object": "60806040526000805534801561001457600080fd5b50610403806100246000396000f3fe608060405234801561001057600080fd5b506004361061004c5760003560e01c806318b0c3fd1461005157806357a525a51461005b578063643ceff914610079578063b7c738f414610083575b600080fd5b6100596100a1565b005b6100636100ba565b6040516100709190610229565b60405180910390f35b610081610125565b005b61008b61013e565b6040516100989190610264565b60405180910390f35b6000808154809291906100b3906102ae565b9190505550565b60606000808154809291906100ce906102ae565b91905055506040518060400160405280600481526020017f446f6e6500000000000000000000000000000000000000000000000000000000815250905060008081548092919061011d906102f6565b919050555090565b600080815480929190610137906102f6565b9190505550565b6000600a60005411610185576040517f08c379a000000000000000000000000000000000000000000000000000000000815260040161017c9061036b565b60405180910390fd5b6005600054610194919061038b565b905090565b600081519050919050565b600082825260208201905092915050565b60005b838110156101d35780820151818401526020810190506101b8565b60008484015250505050565b6000601f19601f8301169050919050565b60006101fb82610199565b61020581856101a4565b93506102158185602086016101b5565b61021e816101df565b840191505092915050565b6000602082019050818103600083015261024381846101f0565b905092915050565b6000819050919050565b61025e8161024b565b82525050565b60006020820190506102796000830184610255565b92915050565b7f4e487b7100000000000000000000000000000000000000000000000000000000600052601160045260246000fd5b60006102b98261024b565b91507fffffffffffffffffffffffffffffffffffffffffffffffffffffffffffffffff82036102eb576102ea61027f565b5b600182019050919050565b60006103018261024b565b9150600082036103145761031361027f565b5b600182039050919050565b7f73686f756c6420626520626967676572207468616e2031302e00000000000000600082015250565b60006103556019836101a4565b91506103608261031f565b602082019050919050565b6000602082019050818103600083015261038481610348565b9050919050565b60006103968261024b565b91506103a18361024b565b92508282026103af8161024b565b915082820484148315176103c6576103c561027f565b5b509291505056fea264697066735822122068642451ebabe33e59a0f14b922f01878e88ed7c6dbd4bbdc0e5672aeb57750e64736f6c63430008120033",
					"opcodes": "PUSH1 0x80 PUSH1 0x40 MSTORE PUSH1 0x0 DUP1 SSTORE CALLVALUE DUP1 ISZERO PUSH2 0x14 JUMPI PUSH1 0x0 DUP1 REVERT JUMPDEST POP PUSH2 0x403 DUP1 PUSH2 0x24 PUSH1 0x0 CODECOPY PUSH1 0x0 RETURN INVALID PUSH1 0x80 PUSH1 0x40 MSTORE CALLVALUE DUP1 ISZERO PUSH2 0x10 JUMPI PUSH1 0x0 DUP1 REVERT JUMPDEST POP PUSH1 0x4 CALLDATASIZE LT PUSH2 0x4C JUMPI PUSH1 0x0 CALLDATALOAD PUSH1 0xE0 SHR DUP1 PUSH4 0x18B0C3FD EQ PUSH2 0x51 JUMPI DUP1 PUSH4 0x57A525A5 EQ PUSH2 0x5B JUMPI DUP1 PUSH4 0x643CEFF9 EQ PUSH2 0x79 JUMPI DUP1 PUSH4 0xB7C738F4 EQ PUSH2 0x83 JUMPI JUMPDEST PUSH1 0x0 DUP1 REVERT JUMPDEST PUSH2 0x59 PUSH2 0xA1 JUMP JUMPDEST STOP JUMPDEST PUSH2 0x63 PUSH2 0xBA JUMP JUMPDEST PUSH1 0x40 MLOAD PUSH2 0x70 SWAP2 SWAP1 PUSH2 0x229 JUMP JUMPDEST PUSH1 0x40 MLOAD DUP1 SWAP2 SUB SWAP1 RETURN JUMPDEST PUSH2 0x81 PUSH2 0x125 JUMP JUMPDEST STOP JUMPDEST PUSH2 0x8B PUSH2 0x13E JUMP JUMPDEST PUSH1 0x40 MLOAD PUSH2 0x98 SWAP2 SWAP1 PUSH2 0x264 JUMP JUMPDEST PUSH1 0x40 MLOAD DUP1 SWAP2 SUB SWAP1 RETURN JUMPDEST PUSH1 0x0 DUP1 DUP2 SLOAD DUP1 SWAP3 SWAP2 SWAP1 PUSH2 0xB3 SWAP1 PUSH2 0x2AE JUMP JUMPDEST SWAP2 SWAP1 POP SSTORE POP JUMP JUMPDEST PUSH1 0x60 PUSH1 0x0 DUP1 DUP2 SLOAD DUP1 SWAP3 SWAP2 SWAP1 PUSH2 0xCE SWAP1 PUSH2 0x2AE JUMP JUMPDEST SWAP2 SWAP1 POP SSTORE POP PUSH1 0x40 MLOAD DUP1 PUSH1 0x40 ADD PUSH1 0x40 MSTORE DUP1 PUSH1 0x4 DUP2 MSTORE PUSH1 0x20 ADD PUSH32 0x446F6E6500000000000000000000000000000000000000000000000000000000 DUP2 MSTORE POP SWAP1 POP PUSH1 0x0 DUP1 DUP2 SLOAD DUP1 SWAP3 SWAP2 SWAP1 PUSH2 0x11D SWAP1 PUSH2 0x2F6 JUMP JUMPDEST SWAP2 SWAP1 POP SSTORE POP SWAP1 JUMP JUMPDEST PUSH1 0x0 DUP1 DUP2 SLOAD DUP1 SWAP3 SWAP2 SWAP1 PUSH2 0x137 SWAP1 PUSH2 0x2F6 JUMP JUMPDEST SWAP2 SWAP1 POP SSTORE POP JUMP JUMPDEST PUSH1 0x0 PUSH1 0xA PUSH1 0x0 SLOAD GT PUSH2 0x185 JUMPI PUSH1 0x40 MLOAD PUSH32 0x8C379A000000000000000000000000000000000000000000000000000000000 DUP2 MSTORE PUSH1 0x4 ADD PUSH2 0x17C SWAP1 PUSH2 0x36B JUMP JUMPDEST PUSH1 0x40 MLOAD DUP1 SWAP2 SUB SWAP1 REVERT JUMPDEST PUSH1 0x5 PUSH1 0x0 SLOAD PUSH2 0x194 SWAP2 SWAP1 PUSH2 0x38B JUMP JUMPDEST SWAP1 POP SWAP1 JUMP JUMPDEST PUSH1 0x0 DUP2 MLOAD SWAP1 POP SWAP2 SWAP1 POP JUMP JUMPDEST PUSH1 0x0 DUP3 DUP3 MSTORE PUSH1 0x20 DUP3 ADD SWAP1 POP SWAP3 SWAP2 POP POP JUMP JUMPDEST PUSH1 0x0 JUMPDEST DUP4 DUP2 LT ISZERO PUSH2 0x1D3 JUMPI DUP1 DUP3 ADD MLOAD DUP2 DUP5 ADD MSTORE PUSH1 0x20 DUP2 ADD SWAP1 POP PUSH2 0x1B8 JUMP JUMPDEST PUSH1 0x0 DUP5 DUP5 ADD MSTORE POP POP POP POP JUMP JUMPDEST PUSH1 0x0 PUSH1 0x1F NOT PUSH1 0x1F DUP4 ADD AND SWAP1 POP SWAP2 SWAP1 POP JUMP JUMPDEST PUSH1 0x0 PUSH2 0x1FB DUP3 PUSH2 0x199 JUMP JUMPDEST PUSH2 0x205 DUP2 DUP6 PUSH2 0x1A4 JUMP JUMPDEST SWAP4 POP PUSH2 0x215 DUP2 DUP6 PUSH1 0x20 DUP7 ADD PUSH2 0x1B5 JUMP JUMPDEST PUSH2 0x21E DUP2 PUSH2 0x1DF JUMP JUMPDEST DUP5 ADD SWAP2 POP POP SWAP3 SWAP2 POP POP JUMP JUMPDEST PUSH1 0x0 PUSH1 0x20 DUP3 ADD SWAP1 POP DUP2 DUP2 SUB PUSH1 0x0 DUP4 ADD MSTORE PUSH2 0x243 DUP2 DUP5 PUSH2 0x1F0 JUMP JUMPDEST SWAP1 POP SWAP3 SWAP2 POP POP JUMP JUMPDEST PUSH1 0x0 DUP2 SWAP1 POP SWAP2 SWAP1 POP JUMP JUMPDEST PUSH2 0x25E DUP2 PUSH2 0x24B JUMP JUMPDEST DUP3 MSTORE POP POP JUMP JUMPDEST PUSH1 0x0 PUSH1 0x20 DUP3 ADD SWAP1 POP PUSH2 0x279 PUSH1 0x0 DUP4 ADD DUP5 PUSH2 0x255 JUMP JUMPDEST SWAP3 SWAP2 POP POP JUMP JUMPDEST PUSH32 0x4E487B7100000000000000000000000000000000000000000000000000000000 PUSH1 0x0 MSTORE PUSH1 0x11 PUSH1 0x4 MSTORE PUSH1 0x24 PUSH1 0x0 REVERT JUMPDEST PUSH1 0x0 PUSH2 0x2B9 DUP3 PUSH2 0x24B JUMP JUMPDEST SWAP2 POP PUSH32 0xFFFFFFFFFFFFFFFFFFFFFFFFFFFFFFFFFFFFFFFFFFFFFFFFFFFFFFFFFFFFFFFF DUP3 SUB PUSH2 0x2EB JUMPI PUSH2 0x2EA PUSH2 0x27F JUMP JUMPDEST JUMPDEST PUSH1 0x1 DUP3 ADD SWAP1 POP SWAP2 SWAP1 POP JUMP JUMPDEST PUSH1 0x0 PUSH2 0x301 DUP3 PUSH2 0x24B JUMP JUMPDEST SWAP2 POP PUSH1 0x0 DUP3 SUB PUSH2 0x314 JUMPI PUSH2 0x313 PUSH2 0x27F JUMP JUMPDEST JUMPDEST PUSH1 0x1 DUP3 SUB SWAP1 POP SWAP2 SWAP1 POP JUMP JUMPDEST PUSH32 0x73686F756C6420626520626967676572207468616E2031302E00000000000000 PUSH1 0x0 DUP3 ADD MSTORE POP JUMP JUMPDEST PUSH1 0x0 PUSH2 0x355 PUSH1 0x19 DUP4 PUSH2 0x1A4 JUMP JUMPDEST SWAP2 POP PUSH2 0x360 DUP3 PUSH2 0x31F JUMP JUMPDEST PUSH1 0x20 DUP3 ADD SWAP1 POP SWAP2 SWAP1 POP JUMP JUMPDEST PUSH1 0x0 PUSH1 0x20 DUP3 ADD SWAP1 POP DUP2 DUP2 SUB PUSH1 0x0 DUP4 ADD MSTORE PUSH2 0x384 DUP2 PUSH2 0x348 JUMP JUMPDEST SWAP1 POP SWAP2 SWAP1 POP JUMP JUMPDEST PUSH1 0x0 PUSH2 0x396 DUP3 PUSH2 0x24B JUMP JUMPDEST SWAP2 POP PUSH2 0x3A1 DUP4 PUSH2 0x24B JUMP JUMPDEST SWAP3 POP DUP3 DUP3 MUL PUSH2 0x3AF DUP2 PUSH2 0x24B JUMP JUMPDEST SWAP2 POP DUP3 DUP3 DIV DUP5 EQ DUP4 ISZERO OR PUSH2 0x3C6 JUMPI PUSH2 0x3C5 PUSH2 0x27F JUMP JUMPDEST JUMPDEST POP SWAP3 SWAP2 POP POP JUMP INVALID LOG2 PUSH5 0x6970667358 0x22 SLT KECCAK256 PUSH9 0x642451EBABE33E59A0 CALL 0x4B SWAP3 0x2F ADD DUP8 DUP15 DUP9 0xED PUSH29 0x6DBD4BBDC0E5672AEB57750E64736F6C63430008120033000000000000 "
				},
				"gasEstimates": {
					"creation": {
						"codeDepositCost": "205400",
						"executionCost": "5257",
						"totalCost": "210657"
					},
					"external": {
						"cal()": "infinite",
						"inAndOut()": "infinite",
						"plus()": "24479",
						"ten()": "24523"
					}
				},
				"methodIdentifiers": {
					"cal()": "b7c738f4",
					"inAndOut()": "57a525a5",
					"plus()": "18b0c3fd",
					"ten()": "643ceff9"
				}
			},
			"storageLayout": {
				"storage": [
					{
						"astId": 622,
						"contract": "contracts-lecture/230515-2.sol:MODIFIER5",
						"label": "mutex",
						"offset": 0,
						"slot": "0",
						"type": "t_uint256"
					}
				],
				"types": {
					"t_uint256": {
						"encoding": "inplace",
						"label": "uint256",
						"numberOfBytes": "32"
					}
				}
			},
			"userdoc": {
				"kind": "user",
				"methods": {},
				"version": 1
			}
		}
	}
}