{
	"contracts-lecture/230511-1.sol": {
		"Mapping": {
			"abi": [
				{
					"inputs": [
						{
							"internalType": "uint256",
							"name": "_n",
							"type": "uint256"
						}
					],
					"name": "getAddress",
					"outputs": [
						{
							"internalType": "address",
							"name": "",
							"type": "address"
						}
					],
					"stateMutability": "view",
					"type": "function"
				},
				{
					"inputs": [],
					"name": "getAll",
					"outputs": [
						{
							"components": [
								{
									"internalType": "string",
									"name": "name",
									"type": "string"
								},
								{
									"internalType": "uint256",
									"name": "number",
									"type": "uint256"
								},
								{
									"internalType": "address",
									"name": "account",
									"type": "address"
								}
							],
							"internalType": "struct Mapping.Wallet[]",
							"name": "",
							"type": "tuple[]"
						}
					],
					"stateMutability": "view",
					"type": "function"
				},
				{
					"inputs": [
						{
							"internalType": "uint256",
							"name": "_n",
							"type": "uint256"
						}
					],
					"name": "getWallet",
					"outputs": [
						{
							"components": [
								{
									"internalType": "string",
									"name": "name",
									"type": "string"
								},
								{
									"internalType": "uint256",
									"name": "number",
									"type": "uint256"
								},
								{
									"internalType": "address",
									"name": "account",
									"type": "address"
								}
							],
							"internalType": "struct Mapping.Wallet",
							"name": "",
							"type": "tuple"
						}
					],
					"stateMutability": "view",
					"type": "function"
				},
				{
					"inputs": [
						{
							"internalType": "string",
							"name": "_name",
							"type": "string"
						},
						{
							"internalType": "uint256",
							"name": "_number",
							"type": "uint256"
						},
						{
							"internalType": "address",
							"name": "_account",
							"type": "address"
						}
					],
					"name": "setWallet",
					"outputs": [],
					"stateMutability": "nonpayable",
					"type": "function"
				}
			],
			"devdoc": {
				"kind": "dev",
				"methods": {},
				"version": 1
			},
			"evm": {
				"assembly": "    /* \"contracts-lecture/230511-1.sol\":81:773  contract Mapping {... */\n  mstore(0x40, 0x80)\n  callvalue\n  dup1\n  iszero\n  tag_1\n  jumpi\n  0x00\n  dup1\n  revert\ntag_1:\n  pop\n  dataSize(sub_0)\n  dup1\n  dataOffset(sub_0)\n  0x00\n  codecopy\n  0x00\n  return\nstop\n\nsub_0: assembly {\n        /* \"contracts-lecture/230511-1.sol\":81:773  contract Mapping {... */\n      mstore(0x40, 0x80)\n      callvalue\n      dup1\n      iszero\n      tag_1\n      jumpi\n      0x00\n      dup1\n      revert\n    tag_1:\n      pop\n      jumpi(tag_2, lt(calldatasize, 0x04))\n      shr(0xe0, calldataload(0x00))\n      dup1\n      0x53ed5143\n      eq\n      tag_3\n      jumpi\n      dup1\n      0x5470b13b\n      eq\n      tag_4\n      jumpi\n      dup1\n      0x92b93583\n      eq\n      tag_5\n      jumpi\n      dup1\n      0xb93f9b0a\n      eq\n      tag_6\n      jumpi\n    tag_2:\n      0x00\n      dup1\n      revert\n        /* \"contracts-lecture/230511-1.sol\":685:771  function getAll() public view returns(Wallet[] memory) {... */\n    tag_3:\n      tag_7\n      tag_8\n      jump\t// in\n    tag_7:\n      mload(0x40)\n      tag_9\n      swap2\n      swap1\n      tag_10\n      jump\t// in\n    tag_9:\n      mload(0x40)\n      dup1\n      swap2\n      sub\n      swap1\n      return\n        /* \"contracts-lecture/230511-1.sol\":470:570  function getWallet(uint _n) public view returns(Wallet memory) {... */\n    tag_4:\n      tag_11\n      0x04\n      dup1\n      calldatasize\n      sub\n      dup2\n      add\n      swap1\n      tag_12\n      swap2\n      swap1\n      tag_13\n      jump\t// in\n    tag_12:\n      tag_14\n      jump\t// in\n    tag_11:\n      mload(0x40)\n      tag_15\n      swap2\n      swap1\n      tag_16\n      jump\t// in\n    tag_15:\n      mload(0x40)\n      dup1\n      swap2\n      sub\n      swap1\n      return\n        /* \"contracts-lecture/230511-1.sol\":322:464  function setWallet(string memory _name, uint _number, address _account) public {... */\n    tag_5:\n      tag_17\n      0x04\n      dup1\n      calldatasize\n      sub\n      dup2\n      add\n      swap1\n      tag_18\n      swap2\n      swap1\n      tag_19\n      jump\t// in\n    tag_18:\n      tag_20\n      jump\t// in\n    tag_17:\n      stop\n        /* \"contracts-lecture/230511-1.sol\":576:679  function getAddress(uint _n) public view returns(address) {... */\n    tag_6:\n      tag_21\n      0x04\n      dup1\n      calldatasize\n      sub\n      dup2\n      add\n      swap1\n      tag_22\n      swap2\n      swap1\n      tag_13\n      jump\t// in\n    tag_22:\n      tag_23\n      jump\t// in\n    tag_21:\n      mload(0x40)\n      tag_24\n      swap2\n      swap1\n      tag_25\n      jump\t// in\n    tag_24:\n      mload(0x40)\n      dup1\n      swap2\n      sub\n      swap1\n      return\n        /* \"contracts-lecture/230511-1.sol\":685:771  function getAll() public view returns(Wallet[] memory) {... */\n    tag_8:\n        /* \"contracts-lecture/230511-1.sol\":723:738  Wallet[] memory */\n      0x60\n        /* \"contracts-lecture/230511-1.sol\":757:764  wallets */\n      0x03\n        /* \"contracts-lecture/230511-1.sol\":750:764  return wallets */\n      dup1\n      sload\n      dup1\n      0x20\n      mul\n      0x20\n      add\n      mload(0x40)\n      swap1\n      dup2\n      add\n      0x40\n      mstore\n      dup1\n      swap3\n      swap2\n      swap1\n      dup2\n      dup2\n      mstore\n      0x20\n      add\n      0x00\n      swap1\n    tag_27:\n      dup3\n      dup3\n      lt\n      iszero\n      tag_28\n      jumpi\n      dup4\n      dup3\n      swap1\n      0x00\n      mstore\n      keccak256(0x00, 0x20)\n      swap1\n      0x03\n      mul\n      add\n      mload(0x40)\n      dup1\n      0x60\n      add\n      0x40\n      mstore\n      swap1\n      dup2\n      0x00\n      dup3\n      add\n      dup1\n      sload\n      tag_30\n      swap1\n      tag_31\n      jump\t// in\n    tag_30:\n      dup1\n      0x1f\n      add\n      0x20\n      dup1\n      swap2\n      div\n      mul\n      0x20\n      add\n      mload(0x40)\n      swap1\n      dup2\n      add\n      0x40\n      mstore\n      dup1\n      swap3\n      swap2\n      swap1\n      dup2\n      dup2\n      mstore\n      0x20\n      add\n      dup3\n      dup1\n      sload\n      tag_32\n      swap1\n      tag_31\n      jump\t// in\n    tag_32:\n      dup1\n      iszero\n      tag_33\n      jumpi\n      dup1\n      0x1f\n      lt\n      tag_34\n      jumpi\n      0x0100\n      dup1\n      dup4\n      sload\n      div\n      mul\n      dup4\n      mstore\n      swap2\n      0x20\n      add\n      swap2\n      jump(tag_33)\n    tag_34:\n      dup3\n      add\n      swap2\n      swap1\n      0x00\n      mstore\n      keccak256(0x00, 0x20)\n      swap1\n    tag_35:\n      dup2\n      sload\n      dup2\n      mstore\n      swap1\n      0x01\n      add\n      swap1\n      0x20\n      add\n      dup1\n      dup4\n      gt\n      tag_35\n      jumpi\n      dup3\n      swap1\n      sub\n      0x1f\n      and\n      dup3\n      add\n      swap2\n    tag_33:\n      pop\n      pop\n      pop\n      pop\n      pop\n      dup2\n      mstore\n      0x20\n      add\n      0x01\n      dup3\n      add\n      sload\n      dup2\n      mstore\n      0x20\n      add\n      0x02\n      dup3\n      add\n      0x00\n      swap1\n      sload\n      swap1\n      0x0100\n      exp\n      swap1\n      div\n      0xffffffffffffffffffffffffffffffffffffffff\n      and\n      0xffffffffffffffffffffffffffffffffffffffff\n      and\n      0xffffffffffffffffffffffffffffffffffffffff\n      and\n      dup2\n      mstore\n      pop\n      pop\n      dup2\n      mstore\n      0x20\n      add\n      swap1\n      0x01\n      add\n      swap1\n      jump(tag_27)\n    tag_28:\n      pop\n      pop\n      pop\n      pop\n      swap1\n      pop\n        /* \"contracts-lecture/230511-1.sol\":685:771  function getAll() public view returns(Wallet[] memory) {... */\n      swap1\n      jump\t// out\n        /* \"contracts-lecture/230511-1.sol\":470:570  function getWallet(uint _n) public view returns(Wallet memory) {... */\n    tag_14:\n        /* \"contracts-lecture/230511-1.sol\":518:531  Wallet memory */\n      tag_36\n      tag_37\n      jump\t// in\n    tag_36:\n        /* \"contracts-lecture/230511-1.sol\":550:557  wallets */\n      0x03\n        /* \"contracts-lecture/230511-1.sol\":561:562  1 */\n      0x01\n        /* \"contracts-lecture/230511-1.sol\":558:560  _n */\n      dup4\n        /* \"contracts-lecture/230511-1.sol\":558:562  _n-1 */\n      tag_39\n      swap2\n      swap1\n      tag_40\n      jump\t// in\n    tag_39:\n        /* \"contracts-lecture/230511-1.sol\":550:563  wallets[_n-1] */\n      dup2\n      sload\n      dup2\n      lt\n      tag_41\n      jumpi\n      tag_42\n      tag_43\n      jump\t// in\n    tag_42:\n    tag_41:\n      swap1\n      0x00\n      mstore\n      keccak256(0x00, 0x20)\n      swap1\n      0x03\n      mul\n      add\n        /* \"contracts-lecture/230511-1.sol\":543:563  return wallets[_n-1] */\n      mload(0x40)\n      dup1\n      0x60\n      add\n      0x40\n      mstore\n      swap1\n      dup2\n      0x00\n      dup3\n      add\n      dup1\n      sload\n      tag_45\n      swap1\n      tag_31\n      jump\t// in\n    tag_45:\n      dup1\n      0x1f\n      add\n      0x20\n      dup1\n      swap2\n      div\n      mul\n      0x20\n      add\n      mload(0x40)\n      swap1\n      dup2\n      add\n      0x40\n      mstore\n      dup1\n      swap3\n      swap2\n      swap1\n      dup2\n      dup2\n      mstore\n      0x20\n      add\n      dup3\n      dup1\n      sload\n      tag_46\n      swap1\n      tag_31\n      jump\t// in\n    tag_46:\n      dup1\n      iszero\n      tag_47\n      jumpi\n      dup1\n      0x1f\n      lt\n      tag_48\n      jumpi\n      0x0100\n      dup1\n      dup4\n      sload\n      div\n      mul\n      dup4\n      mstore\n      swap2\n      0x20\n      add\n      swap2\n      jump(tag_47)\n    tag_48:\n      dup3\n      add\n      swap2\n      swap1\n      0x00\n      mstore\n      keccak256(0x00, 0x20)\n      swap1\n    tag_49:\n      dup2\n      sload\n      dup2\n      mstore\n      swap1\n      0x01\n      add\n      swap1\n      0x20\n      add\n      dup1\n      dup4\n      gt\n      tag_49\n      jumpi\n      dup3\n      swap1\n      sub\n      0x1f\n      and\n      dup3\n      add\n      swap2\n    tag_47:\n      pop\n      pop\n      pop\n      pop\n      pop\n      dup2\n      mstore\n      0x20\n      add\n      0x01\n      dup3\n      add\n      sload\n      dup2\n      mstore\n      0x20\n      add\n      0x02\n      dup3\n      add\n      0x00\n      swap1\n      sload\n      swap1\n      0x0100\n      exp\n      swap1\n      div\n      0xffffffffffffffffffffffffffffffffffffffff\n      and\n      0xffffffffffffffffffffffffffffffffffffffff\n      and\n      0xffffffffffffffffffffffffffffffffffffffff\n      and\n      dup2\n      mstore\n      pop\n      pop\n      swap1\n      pop\n        /* \"contracts-lecture/230511-1.sol\":470:570  function getWallet(uint _n) public view returns(Wallet memory) {... */\n      swap2\n      swap1\n      pop\n      jump\t// out\n        /* \"contracts-lecture/230511-1.sol\":322:464  function setWallet(string memory _name, uint _number, address _account) public {... */\n    tag_20:\n        /* \"contracts-lecture/230511-1.sol\":411:418  wallets */\n      0x03\n        /* \"contracts-lecture/230511-1.sol\":424:456  Wallet(_name, _number, _account) */\n      mload(0x40)\n      dup1\n      0x60\n      add\n      0x40\n      mstore\n      dup1\n        /* \"contracts-lecture/230511-1.sol\":431:436  _name */\n      dup6\n        /* \"contracts-lecture/230511-1.sol\":424:456  Wallet(_name, _number, _account) */\n      dup2\n      mstore\n      0x20\n      add\n        /* \"contracts-lecture/230511-1.sol\":438:445  _number */\n      dup5\n        /* \"contracts-lecture/230511-1.sol\":424:456  Wallet(_name, _number, _account) */\n      dup2\n      mstore\n      0x20\n      add\n        /* \"contracts-lecture/230511-1.sol\":447:455  _account */\n      dup4\n        /* \"contracts-lecture/230511-1.sol\":424:456  Wallet(_name, _number, _account) */\n      0xffffffffffffffffffffffffffffffffffffffff\n      and\n      dup2\n      mstore\n      pop\n        /* \"contracts-lecture/230511-1.sol\":411:457  wallets.push(Wallet(_name, _number, _account)) */\n      swap1\n      dup1\n      0x01\n      dup2\n      sload\n      add\n      dup1\n      dup3\n      sstore\n      dup1\n      swap2\n      pop\n      pop\n      0x01\n      swap1\n      sub\n      swap1\n      0x00\n      mstore\n      keccak256(0x00, 0x20)\n      swap1\n      0x03\n      mul\n      add\n      0x00\n      swap1\n      swap2\n      swap1\n      swap2\n      swap1\n      swap2\n      pop\n      0x00\n      dup3\n      add\n      mload\n      dup2\n      0x00\n      add\n      swap1\n      dup2\n      tag_52\n      swap2\n      swap1\n      tag_53\n      jump\t// in\n    tag_52:\n      pop\n      0x20\n      dup3\n      add\n      mload\n      dup2\n      0x01\n      add\n      sstore\n      0x40\n      dup3\n      add\n      mload\n      dup2\n      0x02\n      add\n      exp(0x0100, 0x00)\n      dup2\n      sload\n      dup2\n      0xffffffffffffffffffffffffffffffffffffffff\n      mul\n      not\n      and\n      swap1\n      dup4\n      0xffffffffffffffffffffffffffffffffffffffff\n      and\n      mul\n      or\n      swap1\n      sstore\n      pop\n      pop\n      pop\n        /* \"contracts-lecture/230511-1.sol\":322:464  function setWallet(string memory _name, uint _number, address _account) public {... */\n      pop\n      pop\n      pop\n      jump\t// out\n        /* \"contracts-lecture/230511-1.sol\":576:679  function getAddress(uint _n) public view returns(address) {... */\n    tag_23:\n        /* \"contracts-lecture/230511-1.sol\":625:632  address */\n      0x00\n        /* \"contracts-lecture/230511-1.sol\":651:658  wallets */\n      0x03\n        /* \"contracts-lecture/230511-1.sol\":662:663  1 */\n      0x01\n        /* \"contracts-lecture/230511-1.sol\":659:661  _n */\n      dup4\n        /* \"contracts-lecture/230511-1.sol\":659:663  _n-1 */\n      tag_55\n      swap2\n      swap1\n      tag_40\n      jump\t// in\n    tag_55:\n        /* \"contracts-lecture/230511-1.sol\":651:664  wallets[_n-1] */\n      dup2\n      sload\n      dup2\n      lt\n      tag_56\n      jumpi\n      tag_57\n      tag_43\n      jump\t// in\n    tag_57:\n    tag_56:\n      swap1\n      0x00\n      mstore\n      keccak256(0x00, 0x20)\n      swap1\n      0x03\n      mul\n      add\n        /* \"contracts-lecture/230511-1.sol\":651:672  wallets[_n-1].account */\n      0x02\n      add\n      0x00\n      swap1\n      sload\n      swap1\n      0x0100\n      exp\n      swap1\n      div\n      0xffffffffffffffffffffffffffffffffffffffff\n      and\n        /* \"contracts-lecture/230511-1.sol\":644:672  return wallets[_n-1].account */\n      swap1\n      pop\n        /* \"contracts-lecture/230511-1.sol\":576:679  function getAddress(uint _n) public view returns(address) {... */\n      swap2\n      swap1\n      pop\n      jump\t// out\n    tag_37:\n      mload(0x40)\n      dup1\n      0x60\n      add\n      0x40\n      mstore\n      dup1\n      0x60\n      dup2\n      mstore\n      0x20\n      add\n      0x00\n      dup2\n      mstore\n      0x20\n      add\n      and(0xffffffffffffffffffffffffffffffffffffffff, 0x00)\n      dup2\n      mstore\n      pop\n      swap1\n      jump\t// out\n        /* \"#utility.yul\":7:143   */\n    tag_59:\n        /* \"#utility.yul\":96:102   */\n      0x00\n        /* \"#utility.yul\":130:135   */\n      dup2\n        /* \"#utility.yul\":124:136   */\n      mload\n        /* \"#utility.yul\":114:136   */\n      swap1\n      pop\n        /* \"#utility.yul\":7:143   */\n      swap2\n      swap1\n      pop\n      jump\t// out\n        /* \"#utility.yul\":149:355   */\n    tag_60:\n        /* \"#utility.yul\":270:281   */\n      0x00\n        /* \"#utility.yul\":304:310   */\n      dup3\n        /* \"#utility.yul\":299:302   */\n      dup3\n        /* \"#utility.yul\":292:311   */\n      mstore\n        /* \"#utility.yul\":344:348   */\n      0x20\n        /* \"#utility.yul\":339:342   */\n      dup3\n        /* \"#utility.yul\":335:349   */\n      add\n        /* \"#utility.yul\":320:349   */\n      swap1\n      pop\n        /* \"#utility.yul\":149:355   */\n      swap3\n      swap2\n      pop\n      pop\n      jump\t// out\n        /* \"#utility.yul\":361:515   */\n    tag_61:\n        /* \"#utility.yul\":450:454   */\n      0x00\n        /* \"#utility.yul\":473:476   */\n      dup2\n        /* \"#utility.yul\":465:476   */\n      swap1\n      pop\n        /* \"#utility.yul\":503:507   */\n      0x20\n        /* \"#utility.yul\":498:501   */\n      dup3\n        /* \"#utility.yul\":494:508   */\n      add\n        /* \"#utility.yul\":486:508   */\n      swap1\n      pop\n        /* \"#utility.yul\":361:515   */\n      swap2\n      swap1\n      pop\n      jump\t// out\n        /* \"#utility.yul\":521:620   */\n    tag_62:\n        /* \"#utility.yul\":573:579   */\n      0x00\n        /* \"#utility.yul\":607:612   */\n      dup2\n        /* \"#utility.yul\":601:613   */\n      mload\n        /* \"#utility.yul\":591:613   */\n      swap1\n      pop\n        /* \"#utility.yul\":521:620   */\n      swap2\n      swap1\n      pop\n      jump\t// out\n        /* \"#utility.yul\":626:785   */\n    tag_63:\n        /* \"#utility.yul\":700:711   */\n      0x00\n        /* \"#utility.yul\":734:740   */\n      dup3\n        /* \"#utility.yul\":729:732   */\n      dup3\n        /* \"#utility.yul\":722:741   */\n      mstore\n        /* \"#utility.yul\":774:778   */\n      0x20\n        /* \"#utility.yul\":769:772   */\n      dup3\n        /* \"#utility.yul\":765:779   */\n      add\n        /* \"#utility.yul\":750:779   */\n      swap1\n      pop\n        /* \"#utility.yul\":626:785   */\n      swap3\n      swap2\n      pop\n      pop\n      jump\t// out\n        /* \"#utility.yul\":791:1037   */\n    tag_64:\n        /* \"#utility.yul\":872:873   */\n      0x00\n        /* \"#utility.yul\":882:995   */\n    tag_118:\n        /* \"#utility.yul\":896:902   */\n      dup4\n        /* \"#utility.yul\":893:894   */\n      dup2\n        /* \"#utility.yul\":890:903   */\n      lt\n        /* \"#utility.yul\":882:995   */\n      iszero\n      tag_120\n      jumpi\n        /* \"#utility.yul\":981:982   */\n      dup1\n        /* \"#utility.yul\":976:979   */\n      dup3\n        /* \"#utility.yul\":972:983   */\n      add\n        /* \"#utility.yul\":966:984   */\n      mload\n        /* \"#utility.yul\":962:963   */\n      dup2\n        /* \"#utility.yul\":957:960   */\n      dup5\n        /* \"#utility.yul\":953:964   */\n      add\n        /* \"#utility.yul\":946:985   */\n      mstore\n        /* \"#utility.yul\":918:920   */\n      0x20\n        /* \"#utility.yul\":915:916   */\n      dup2\n        /* \"#utility.yul\":911:921   */\n      add\n        /* \"#utility.yul\":906:921   */\n      swap1\n      pop\n        /* \"#utility.yul\":882:995   */\n      jump(tag_118)\n    tag_120:\n        /* \"#utility.yul\":1029:1030   */\n      0x00\n        /* \"#utility.yul\":1020:1026   */\n      dup5\n        /* \"#utility.yul\":1015:1018   */\n      dup5\n        /* \"#utility.yul\":1011:1027   */\n      add\n        /* \"#utility.yul\":1004:1031   */\n      mstore\n        /* \"#utility.yul\":853:1037   */\n      pop\n        /* \"#utility.yul\":791:1037   */\n      pop\n      pop\n      pop\n      jump\t// out\n        /* \"#utility.yul\":1043:1145   */\n    tag_65:\n        /* \"#utility.yul\":1084:1090   */\n      0x00\n        /* \"#utility.yul\":1135:1137   */\n      0x1f\n        /* \"#utility.yul\":1131:1138   */\n      not\n        /* \"#utility.yul\":1126:1128   */\n      0x1f\n        /* \"#utility.yul\":1119:1124   */\n      dup4\n        /* \"#utility.yul\":1115:1129   */\n      add\n        /* \"#utility.yul\":1111:1139   */\n      and\n        /* \"#utility.yul\":1101:1139   */\n      swap1\n      pop\n        /* \"#utility.yul\":1043:1145   */\n      swap2\n      swap1\n      pop\n      jump\t// out\n        /* \"#utility.yul\":1151:1508   */\n    tag_66:\n        /* \"#utility.yul\":1229:1232   */\n      0x00\n        /* \"#utility.yul\":1257:1296   */\n      tag_123\n        /* \"#utility.yul\":1290:1295   */\n      dup3\n        /* \"#utility.yul\":1257:1296   */\n      tag_62\n      jump\t// in\n    tag_123:\n        /* \"#utility.yul\":1312:1373   */\n      tag_124\n        /* \"#utility.yul\":1366:1372   */\n      dup2\n        /* \"#utility.yul\":1361:1364   */\n      dup6\n        /* \"#utility.yul\":1312:1373   */\n      tag_63\n      jump\t// in\n    tag_124:\n        /* \"#utility.yul\":1305:1373   */\n      swap4\n      pop\n        /* \"#utility.yul\":1382:1447   */\n      tag_125\n        /* \"#utility.yul\":1440:1446   */\n      dup2\n        /* \"#utility.yul\":1435:1438   */\n      dup6\n        /* \"#utility.yul\":1428:1432   */\n      0x20\n        /* \"#utility.yul\":1421:1426   */\n      dup7\n        /* \"#utility.yul\":1417:1433   */\n      add\n        /* \"#utility.yul\":1382:1447   */\n      tag_64\n      jump\t// in\n    tag_125:\n        /* \"#utility.yul\":1472:1501   */\n      tag_126\n        /* \"#utility.yul\":1494:1500   */\n      dup2\n        /* \"#utility.yul\":1472:1501   */\n      tag_65\n      jump\t// in\n    tag_126:\n        /* \"#utility.yul\":1467:1470   */\n      dup5\n        /* \"#utility.yul\":1463:1502   */\n      add\n        /* \"#utility.yul\":1456:1502   */\n      swap2\n      pop\n        /* \"#utility.yul\":1233:1508   */\n      pop\n        /* \"#utility.yul\":1151:1508   */\n      swap3\n      swap2\n      pop\n      pop\n      jump\t// out\n        /* \"#utility.yul\":1514:1591   */\n    tag_67:\n        /* \"#utility.yul\":1551:1558   */\n      0x00\n        /* \"#utility.yul\":1580:1585   */\n      dup2\n        /* \"#utility.yul\":1569:1585   */\n      swap1\n      pop\n        /* \"#utility.yul\":1514:1591   */\n      swap2\n      swap1\n      pop\n      jump\t// out\n        /* \"#utility.yul\":1597:1705   */\n    tag_68:\n        /* \"#utility.yul\":1674:1698   */\n      tag_129\n        /* \"#utility.yul\":1692:1697   */\n      dup2\n        /* \"#utility.yul\":1674:1698   */\n      tag_67\n      jump\t// in\n    tag_129:\n        /* \"#utility.yul\":1669:1672   */\n      dup3\n        /* \"#utility.yul\":1662:1699   */\n      mstore\n        /* \"#utility.yul\":1597:1705   */\n      pop\n      pop\n      jump\t// out\n        /* \"#utility.yul\":1711:1837   */\n    tag_69:\n        /* \"#utility.yul\":1748:1755   */\n      0x00\n        /* \"#utility.yul\":1788:1830   */\n      0xffffffffffffffffffffffffffffffffffffffff\n        /* \"#utility.yul\":1781:1786   */\n      dup3\n        /* \"#utility.yul\":1777:1831   */\n      and\n        /* \"#utility.yul\":1766:1831   */\n      swap1\n      pop\n        /* \"#utility.yul\":1711:1837   */\n      swap2\n      swap1\n      pop\n      jump\t// out\n        /* \"#utility.yul\":1843:1939   */\n    tag_70:\n        /* \"#utility.yul\":1880:1887   */\n      0x00\n        /* \"#utility.yul\":1909:1933   */\n      tag_132\n        /* \"#utility.yul\":1927:1932   */\n      dup3\n        /* \"#utility.yul\":1909:1933   */\n      tag_69\n      jump\t// in\n    tag_132:\n        /* \"#utility.yul\":1898:1933   */\n      swap1\n      pop\n        /* \"#utility.yul\":1843:1939   */\n      swap2\n      swap1\n      pop\n      jump\t// out\n        /* \"#utility.yul\":1945:2053   */\n    tag_71:\n        /* \"#utility.yul\":2022:2046   */\n      tag_134\n        /* \"#utility.yul\":2040:2045   */\n      dup2\n        /* \"#utility.yul\":2022:2046   */\n      tag_70\n      jump\t// in\n    tag_134:\n        /* \"#utility.yul\":2017:2020   */\n      dup3\n        /* \"#utility.yul\":2010:2047   */\n      mstore\n        /* \"#utility.yul\":1945:2053   */\n      pop\n      pop\n      jump\t// out\n        /* \"#utility.yul\":2113:2882   */\n    tag_72:\n        /* \"#utility.yul\":2216:2219   */\n      0x00\n        /* \"#utility.yul\":2252:2256   */\n      0x60\n        /* \"#utility.yul\":2247:2250   */\n      dup4\n        /* \"#utility.yul\":2243:2257   */\n      add\n        /* \"#utility.yul\":2339:2343   */\n      0x00\n        /* \"#utility.yul\":2332:2337   */\n      dup4\n        /* \"#utility.yul\":2328:2344   */\n      add\n        /* \"#utility.yul\":2322:2345   */\n      mload\n        /* \"#utility.yul\":2392:2395   */\n      dup5\n        /* \"#utility.yul\":2386:2390   */\n      dup3\n        /* \"#utility.yul\":2382:2396   */\n      sub\n        /* \"#utility.yul\":2375:2379   */\n      0x00\n        /* \"#utility.yul\":2370:2373   */\n      dup7\n        /* \"#utility.yul\":2366:2380   */\n      add\n        /* \"#utility.yul\":2359:2397   */\n      mstore\n        /* \"#utility.yul\":2418:2491   */\n      tag_136\n        /* \"#utility.yul\":2486:2490   */\n      dup3\n        /* \"#utility.yul\":2472:2484   */\n      dup3\n        /* \"#utility.yul\":2418:2491   */\n      tag_66\n      jump\t// in\n    tag_136:\n        /* \"#utility.yul\":2410:2491   */\n      swap2\n      pop\n        /* \"#utility.yul\":2267:2502   */\n      pop\n        /* \"#utility.yul\":2586:2590   */\n      0x20\n        /* \"#utility.yul\":2579:2584   */\n      dup4\n        /* \"#utility.yul\":2575:2591   */\n      add\n        /* \"#utility.yul\":2569:2592   */\n      mload\n        /* \"#utility.yul\":2605:2668   */\n      tag_137\n        /* \"#utility.yul\":2662:2666   */\n      0x20\n        /* \"#utility.yul\":2657:2660   */\n      dup7\n        /* \"#utility.yul\":2653:2667   */\n      add\n        /* \"#utility.yul\":2639:2651   */\n      dup3\n        /* \"#utility.yul\":2605:2668   */\n      tag_68\n      jump\t// in\n    tag_137:\n        /* \"#utility.yul\":2512:2678   */\n      pop\n        /* \"#utility.yul\":2763:2767   */\n      0x40\n        /* \"#utility.yul\":2756:2761   */\n      dup4\n        /* \"#utility.yul\":2752:2768   */\n      add\n        /* \"#utility.yul\":2746:2769   */\n      mload\n        /* \"#utility.yul\":2782:2845   */\n      tag_138\n        /* \"#utility.yul\":2839:2843   */\n      0x40\n        /* \"#utility.yul\":2834:2837   */\n      dup7\n        /* \"#utility.yul\":2830:2844   */\n      add\n        /* \"#utility.yul\":2816:2828   */\n      dup3\n        /* \"#utility.yul\":2782:2845   */\n      tag_71\n      jump\t// in\n    tag_138:\n        /* \"#utility.yul\":2688:2855   */\n      pop\n        /* \"#utility.yul\":2872:2876   */\n      dup1\n        /* \"#utility.yul\":2865:2876   */\n      swap2\n      pop\n        /* \"#utility.yul\":2221:2882   */\n      pop\n        /* \"#utility.yul\":2113:2882   */\n      swap3\n      swap2\n      pop\n      pop\n      jump\t// out\n        /* \"#utility.yul\":2888:3132   */\n    tag_73:\n        /* \"#utility.yul\":3001:3011   */\n      0x00\n        /* \"#utility.yul\":3036:3126   */\n      tag_140\n        /* \"#utility.yul\":3122:3125   */\n      dup4\n        /* \"#utility.yul\":3114:3120   */\n      dup4\n        /* \"#utility.yul\":3036:3126   */\n      tag_72\n      jump\t// in\n    tag_140:\n        /* \"#utility.yul\":3022:3126   */\n      swap1\n      pop\n        /* \"#utility.yul\":2888:3132   */\n      swap3\n      swap2\n      pop\n      pop\n      jump\t// out\n        /* \"#utility.yul\":3138:3273   */\n    tag_74:\n        /* \"#utility.yul\":3230:3234   */\n      0x00\n        /* \"#utility.yul\":3262:3266   */\n      0x20\n        /* \"#utility.yul\":3257:3260   */\n      dup3\n        /* \"#utility.yul\":3253:3267   */\n      add\n        /* \"#utility.yul\":3245:3267   */\n      swap1\n      pop\n        /* \"#utility.yul\":3138:3273   */\n      swap2\n      swap1\n      pop\n      jump\t// out\n        /* \"#utility.yul\":3337:4424   */\n    tag_75:\n        /* \"#utility.yul\":3500:3503   */\n      0x00\n        /* \"#utility.yul\":3529:3605   */\n      tag_143\n        /* \"#utility.yul\":3599:3604   */\n      dup3\n        /* \"#utility.yul\":3529:3605   */\n      tag_59\n      jump\t// in\n    tag_143:\n        /* \"#utility.yul\":3621:3729   */\n      tag_144\n        /* \"#utility.yul\":3722:3728   */\n      dup2\n        /* \"#utility.yul\":3717:3720   */\n      dup6\n        /* \"#utility.yul\":3621:3729   */\n      tag_60\n      jump\t// in\n    tag_144:\n        /* \"#utility.yul\":3614:3729   */\n      swap4\n      pop\n        /* \"#utility.yul\":3755:3758   */\n      dup4\n        /* \"#utility.yul\":3800:3804   */\n      0x20\n        /* \"#utility.yul\":3792:3798   */\n      dup3\n        /* \"#utility.yul\":3788:3805   */\n      mul\n        /* \"#utility.yul\":3783:3786   */\n      dup6\n        /* \"#utility.yul\":3779:3806   */\n      add\n        /* \"#utility.yul\":3830:3908   */\n      tag_145\n        /* \"#utility.yul\":3902:3907   */\n      dup6\n        /* \"#utility.yul\":3830:3908   */\n      tag_61\n      jump\t// in\n    tag_145:\n        /* \"#utility.yul\":3931:3938   */\n      dup1\n        /* \"#utility.yul\":3962:3963   */\n      0x00\n        /* \"#utility.yul\":3947:4379   */\n    tag_146:\n        /* \"#utility.yul\":3972:3978   */\n      dup6\n        /* \"#utility.yul\":3969:3970   */\n      dup2\n        /* \"#utility.yul\":3966:3979   */\n      lt\n        /* \"#utility.yul\":3947:4379   */\n      iszero\n      tag_148\n      jumpi\n        /* \"#utility.yul\":4043:4052   */\n      dup5\n        /* \"#utility.yul\":4037:4041   */\n      dup5\n        /* \"#utility.yul\":4033:4053   */\n      sub\n        /* \"#utility.yul\":4028:4031   */\n      dup10\n        /* \"#utility.yul\":4021:4054   */\n      mstore\n        /* \"#utility.yul\":4094:4100   */\n      dup2\n        /* \"#utility.yul\":4088:4101   */\n      mload\n        /* \"#utility.yul\":4122:4230   */\n      tag_149\n        /* \"#utility.yul\":4225:4229   */\n      dup6\n        /* \"#utility.yul\":4210:4223   */\n      dup3\n        /* \"#utility.yul\":4122:4230   */\n      tag_73\n      jump\t// in\n    tag_149:\n        /* \"#utility.yul\":4114:4230   */\n      swap5\n      pop\n        /* \"#utility.yul\":4253:4335   */\n      tag_150\n        /* \"#utility.yul\":4328:4334   */\n      dup4\n        /* \"#utility.yul\":4253:4335   */\n      tag_74\n      jump\t// in\n    tag_150:\n        /* \"#utility.yul\":4243:4335   */\n      swap3\n      pop\n        /* \"#utility.yul\":4364:4368   */\n      0x20\n        /* \"#utility.yul\":4359:4362   */\n      dup11\n        /* \"#utility.yul\":4355:4369   */\n      add\n        /* \"#utility.yul\":4348:4369   */\n      swap10\n      pop\n        /* \"#utility.yul\":4007:4379   */\n      pop\n        /* \"#utility.yul\":3994:3995   */\n      0x01\n        /* \"#utility.yul\":3991:3992   */\n      dup2\n        /* \"#utility.yul\":3987:3996   */\n      add\n        /* \"#utility.yul\":3982:3996   */\n      swap1\n      pop\n        /* \"#utility.yul\":3947:4379   */\n      jump(tag_146)\n    tag_148:\n        /* \"#utility.yul\":3951:3965   */\n      pop\n        /* \"#utility.yul\":4395:4399   */\n      dup3\n        /* \"#utility.yul\":4388:4399   */\n      swap8\n      pop\n        /* \"#utility.yul\":4415:4418   */\n      dup8\n        /* \"#utility.yul\":4408:4418   */\n      swap6\n      pop\n        /* \"#utility.yul\":3505:4424   */\n      pop\n      pop\n      pop\n      pop\n      pop\n        /* \"#utility.yul\":3337:4424   */\n      swap3\n      swap2\n      pop\n      pop\n      jump\t// out\n        /* \"#utility.yul\":4430:4891   */\n    tag_10:\n        /* \"#utility.yul\":4617:4621   */\n      0x00\n        /* \"#utility.yul\":4655:4657   */\n      0x20\n        /* \"#utility.yul\":4644:4653   */\n      dup3\n        /* \"#utility.yul\":4640:4658   */\n      add\n        /* \"#utility.yul\":4632:4658   */\n      swap1\n      pop\n        /* \"#utility.yul\":4704:4713   */\n      dup2\n        /* \"#utility.yul\":4698:4702   */\n      dup2\n        /* \"#utility.yul\":4694:4714   */\n      sub\n        /* \"#utility.yul\":4690:4691   */\n      0x00\n        /* \"#utility.yul\":4679:4688   */\n      dup4\n        /* \"#utility.yul\":4675:4692   */\n      add\n        /* \"#utility.yul\":4668:4715   */\n      mstore\n        /* \"#utility.yul\":4732:4884   */\n      tag_152\n        /* \"#utility.yul\":4879:4883   */\n      dup2\n        /* \"#utility.yul\":4870:4876   */\n      dup5\n        /* \"#utility.yul\":4732:4884   */\n      tag_75\n      jump\t// in\n    tag_152:\n        /* \"#utility.yul\":4724:4884   */\n      swap1\n      pop\n        /* \"#utility.yul\":4430:4891   */\n      swap3\n      swap2\n      pop\n      pop\n      jump\t// out\n        /* \"#utility.yul\":4897:4972   */\n    tag_76:\n        /* \"#utility.yul\":4930:4936   */\n      0x00\n        /* \"#utility.yul\":4963:4965   */\n      0x40\n        /* \"#utility.yul\":4957:4966   */\n      mload\n        /* \"#utility.yul\":4947:4966   */\n      swap1\n      pop\n        /* \"#utility.yul\":4897:4972   */\n      swap1\n      jump\t// out\n        /* \"#utility.yul\":4978:5095   */\n    tag_77:\n        /* \"#utility.yul\":5087:5088   */\n      0x00\n        /* \"#utility.yul\":5084:5085   */\n      dup1\n        /* \"#utility.yul\":5077:5089   */\n      revert\n        /* \"#utility.yul\":5101:5218   */\n    tag_78:\n        /* \"#utility.yul\":5210:5211   */\n      0x00\n        /* \"#utility.yul\":5207:5208   */\n      dup1\n        /* \"#utility.yul\":5200:5212   */\n      revert\n        /* \"#utility.yul\":5224:5346   */\n    tag_79:\n        /* \"#utility.yul\":5297:5321   */\n      tag_157\n        /* \"#utility.yul\":5315:5320   */\n      dup2\n        /* \"#utility.yul\":5297:5321   */\n      tag_67\n      jump\t// in\n    tag_157:\n        /* \"#utility.yul\":5290:5295   */\n      dup2\n        /* \"#utility.yul\":5287:5322   */\n      eq\n        /* \"#utility.yul\":5277:5340   */\n      tag_158\n      jumpi\n        /* \"#utility.yul\":5336:5337   */\n      0x00\n        /* \"#utility.yul\":5333:5334   */\n      dup1\n        /* \"#utility.yul\":5326:5338   */\n      revert\n        /* \"#utility.yul\":5277:5340   */\n    tag_158:\n        /* \"#utility.yul\":5224:5346   */\n      pop\n      jump\t// out\n        /* \"#utility.yul\":5352:5491   */\n    tag_80:\n        /* \"#utility.yul\":5398:5403   */\n      0x00\n        /* \"#utility.yul\":5436:5442   */\n      dup2\n        /* \"#utility.yul\":5423:5443   */\n      calldataload\n        /* \"#utility.yul\":5414:5443   */\n      swap1\n      pop\n        /* \"#utility.yul\":5452:5485   */\n      tag_160\n        /* \"#utility.yul\":5479:5484   */\n      dup2\n        /* \"#utility.yul\":5452:5485   */\n      tag_79\n      jump\t// in\n    tag_160:\n        /* \"#utility.yul\":5352:5491   */\n      swap3\n      swap2\n      pop\n      pop\n      jump\t// out\n        /* \"#utility.yul\":5497:5826   */\n    tag_13:\n        /* \"#utility.yul\":5556:5562   */\n      0x00\n        /* \"#utility.yul\":5605:5607   */\n      0x20\n        /* \"#utility.yul\":5593:5602   */\n      dup3\n        /* \"#utility.yul\":5584:5591   */\n      dup5\n        /* \"#utility.yul\":5580:5603   */\n      sub\n        /* \"#utility.yul\":5576:5608   */\n      slt\n        /* \"#utility.yul\":5573:5692   */\n      iszero\n      tag_162\n      jumpi\n        /* \"#utility.yul\":5611:5690   */\n      tag_163\n      tag_77\n      jump\t// in\n    tag_163:\n        /* \"#utility.yul\":5573:5692   */\n    tag_162:\n        /* \"#utility.yul\":5731:5732   */\n      0x00\n        /* \"#utility.yul\":5756:5809   */\n      tag_164\n        /* \"#utility.yul\":5801:5808   */\n      dup5\n        /* \"#utility.yul\":5792:5798   */\n      dup3\n        /* \"#utility.yul\":5781:5790   */\n      dup6\n        /* \"#utility.yul\":5777:5799   */\n      add\n        /* \"#utility.yul\":5756:5809   */\n      tag_80\n      jump\t// in\n    tag_164:\n        /* \"#utility.yul\":5746:5809   */\n      swap2\n      pop\n        /* \"#utility.yul\":5702:5819   */\n      pop\n        /* \"#utility.yul\":5497:5826   */\n      swap3\n      swap2\n      pop\n      pop\n      jump\t// out\n        /* \"#utility.yul\":5886:6665   */\n    tag_81:\n        /* \"#utility.yul\":5999:6002   */\n      0x00\n        /* \"#utility.yul\":6035:6039   */\n      0x60\n        /* \"#utility.yul\":6030:6033   */\n      dup4\n        /* \"#utility.yul\":6026:6040   */\n      add\n        /* \"#utility.yul\":6122:6126   */\n      0x00\n        /* \"#utility.yul\":6115:6120   */\n      dup4\n        /* \"#utility.yul\":6111:6127   */\n      add\n        /* \"#utility.yul\":6105:6128   */\n      mload\n        /* \"#utility.yul\":6175:6178   */\n      dup5\n        /* \"#utility.yul\":6169:6173   */\n      dup3\n        /* \"#utility.yul\":6165:6179   */\n      sub\n        /* \"#utility.yul\":6158:6162   */\n      0x00\n        /* \"#utility.yul\":6153:6156   */\n      dup7\n        /* \"#utility.yul\":6149:6163   */\n      add\n        /* \"#utility.yul\":6142:6180   */\n      mstore\n        /* \"#utility.yul\":6201:6274   */\n      tag_166\n        /* \"#utility.yul\":6269:6273   */\n      dup3\n        /* \"#utility.yul\":6255:6267   */\n      dup3\n        /* \"#utility.yul\":6201:6274   */\n      tag_66\n      jump\t// in\n    tag_166:\n        /* \"#utility.yul\":6193:6274   */\n      swap2\n      pop\n        /* \"#utility.yul\":6050:6285   */\n      pop\n        /* \"#utility.yul\":6369:6373   */\n      0x20\n        /* \"#utility.yul\":6362:6367   */\n      dup4\n        /* \"#utility.yul\":6358:6374   */\n      add\n        /* \"#utility.yul\":6352:6375   */\n      mload\n        /* \"#utility.yul\":6388:6451   */\n      tag_167\n        /* \"#utility.yul\":6445:6449   */\n      0x20\n        /* \"#utility.yul\":6440:6443   */\n      dup7\n        /* \"#utility.yul\":6436:6450   */\n      add\n        /* \"#utility.yul\":6422:6434   */\n      dup3\n        /* \"#utility.yul\":6388:6451   */\n      tag_68\n      jump\t// in\n    tag_167:\n        /* \"#utility.yul\":6295:6461   */\n      pop\n        /* \"#utility.yul\":6546:6550   */\n      0x40\n        /* \"#utility.yul\":6539:6544   */\n      dup4\n        /* \"#utility.yul\":6535:6551   */\n      add\n        /* \"#utility.yul\":6529:6552   */\n      mload\n        /* \"#utility.yul\":6565:6628   */\n      tag_168\n        /* \"#utility.yul\":6622:6626   */\n      0x40\n        /* \"#utility.yul\":6617:6620   */\n      dup7\n        /* \"#utility.yul\":6613:6627   */\n      add\n        /* \"#utility.yul\":6599:6611   */\n      dup3\n        /* \"#utility.yul\":6565:6628   */\n      tag_71\n      jump\t// in\n    tag_168:\n        /* \"#utility.yul\":6471:6638   */\n      pop\n        /* \"#utility.yul\":6655:6659   */\n      dup1\n        /* \"#utility.yul\":6648:6659   */\n      swap2\n      pop\n        /* \"#utility.yul\":6004:6665   */\n      pop\n        /* \"#utility.yul\":5886:6665   */\n      swap3\n      swap2\n      pop\n      pop\n      jump\t// out\n        /* \"#utility.yul\":6671:7032   */\n    tag_16:\n        /* \"#utility.yul\":6808:6812   */\n      0x00\n        /* \"#utility.yul\":6846:6848   */\n      0x20\n        /* \"#utility.yul\":6835:6844   */\n      dup3\n        /* \"#utility.yul\":6831:6849   */\n      add\n        /* \"#utility.yul\":6823:6849   */\n      swap1\n      pop\n        /* \"#utility.yul\":6895:6904   */\n      dup2\n        /* \"#utility.yul\":6889:6893   */\n      dup2\n        /* \"#utility.yul\":6885:6905   */\n      sub\n        /* \"#utility.yul\":6881:6882   */\n      0x00\n        /* \"#utility.yul\":6870:6879   */\n      dup4\n        /* \"#utility.yul\":6866:6883   */\n      add\n        /* \"#utility.yul\":6859:6906   */\n      mstore\n        /* \"#utility.yul\":6923:7025   */\n      tag_170\n        /* \"#utility.yul\":7020:7024   */\n      dup2\n        /* \"#utility.yul\":7011:7017   */\n      dup5\n        /* \"#utility.yul\":6923:7025   */\n      tag_81\n      jump\t// in\n    tag_170:\n        /* \"#utility.yul\":6915:7025   */\n      swap1\n      pop\n        /* \"#utility.yul\":6671:7032   */\n      swap3\n      swap2\n      pop\n      pop\n      jump\t// out\n        /* \"#utility.yul\":7038:7155   */\n    tag_82:\n        /* \"#utility.yul\":7147:7148   */\n      0x00\n        /* \"#utility.yul\":7144:7145   */\n      dup1\n        /* \"#utility.yul\":7137:7149   */\n      revert\n        /* \"#utility.yul\":7161:7278   */\n    tag_83:\n        /* \"#utility.yul\":7270:7271   */\n      0x00\n        /* \"#utility.yul\":7267:7268   */\n      dup1\n        /* \"#utility.yul\":7260:7272   */\n      revert\n        /* \"#utility.yul\":7284:7464   */\n    tag_84:\n        /* \"#utility.yul\":7332:7409   */\n      0x4e487b7100000000000000000000000000000000000000000000000000000000\n        /* \"#utility.yul\":7329:7330   */\n      0x00\n        /* \"#utility.yul\":7322:7410   */\n      mstore\n        /* \"#utility.yul\":7429:7433   */\n      0x41\n        /* \"#utility.yul\":7426:7427   */\n      0x04\n        /* \"#utility.yul\":7419:7434   */\n      mstore\n        /* \"#utility.yul\":7453:7457   */\n      0x24\n        /* \"#utility.yul\":7450:7451   */\n      0x00\n        /* \"#utility.yul\":7443:7458   */\n      revert\n        /* \"#utility.yul\":7470:7751   */\n    tag_85:\n        /* \"#utility.yul\":7553:7580   */\n      tag_175\n        /* \"#utility.yul\":7575:7579   */\n      dup3\n        /* \"#utility.yul\":7553:7580   */\n      tag_65\n      jump\t// in\n    tag_175:\n        /* \"#utility.yul\":7545:7551   */\n      dup2\n        /* \"#utility.yul\":7541:7581   */\n      add\n        /* \"#utility.yul\":7683:7689   */\n      dup2\n        /* \"#utility.yul\":7671:7681   */\n      dup2\n        /* \"#utility.yul\":7668:7690   */\n      lt\n        /* \"#utility.yul\":7647:7665   */\n      0xffffffffffffffff\n        /* \"#utility.yul\":7635:7645   */\n      dup3\n        /* \"#utility.yul\":7632:7666   */\n      gt\n        /* \"#utility.yul\":7629:7691   */\n      or\n        /* \"#utility.yul\":7626:7714   */\n      iszero\n      tag_176\n      jumpi\n        /* \"#utility.yul\":7694:7712   */\n      tag_177\n      tag_84\n      jump\t// in\n    tag_177:\n        /* \"#utility.yul\":7626:7714   */\n    tag_176:\n        /* \"#utility.yul\":7734:7744   */\n      dup1\n        /* \"#utility.yul\":7730:7732   */\n      0x40\n        /* \"#utility.yul\":7723:7745   */\n      mstore\n        /* \"#utility.yul\":7513:7751   */\n      pop\n        /* \"#utility.yul\":7470:7751   */\n      pop\n      pop\n      jump\t// out\n        /* \"#utility.yul\":7757:7886   */\n    tag_86:\n        /* \"#utility.yul\":7791:7797   */\n      0x00\n        /* \"#utility.yul\":7818:7838   */\n      tag_179\n      tag_76\n      jump\t// in\n    tag_179:\n        /* \"#utility.yul\":7808:7838   */\n      swap1\n      pop\n        /* \"#utility.yul\":7847:7880   */\n      tag_180\n        /* \"#utility.yul\":7875:7879   */\n      dup3\n        /* \"#utility.yul\":7867:7873   */\n      dup3\n        /* \"#utility.yul\":7847:7880   */\n      tag_85\n      jump\t// in\n    tag_180:\n        /* \"#utility.yul\":7757:7886   */\n      swap2\n      swap1\n      pop\n      jump\t// out\n        /* \"#utility.yul\":7892:8200   */\n    tag_87:\n        /* \"#utility.yul\":7954:7958   */\n      0x00\n        /* \"#utility.yul\":8044:8062   */\n      0xffffffffffffffff\n        /* \"#utility.yul\":8036:8042   */\n      dup3\n        /* \"#utility.yul\":8033:8063   */\n      gt\n        /* \"#utility.yul\":8030:8086   */\n      iszero\n      tag_182\n      jumpi\n        /* \"#utility.yul\":8066:8084   */\n      tag_183\n      tag_84\n      jump\t// in\n    tag_183:\n        /* \"#utility.yul\":8030:8086   */\n    tag_182:\n        /* \"#utility.yul\":8104:8133   */\n      tag_184\n        /* \"#utility.yul\":8126:8132   */\n      dup3\n        /* \"#utility.yul\":8104:8133   */\n      tag_65\n      jump\t// in\n    tag_184:\n        /* \"#utility.yul\":8096:8133   */\n      swap1\n      pop\n        /* \"#utility.yul\":8188:8192   */\n      0x20\n        /* \"#utility.yul\":8182:8186   */\n      dup2\n        /* \"#utility.yul\":8178:8193   */\n      add\n        /* \"#utility.yul\":8170:8193   */\n      swap1\n      pop\n        /* \"#utility.yul\":7892:8200   */\n      swap2\n      swap1\n      pop\n      jump\t// out\n        /* \"#utility.yul\":8206:8352   */\n    tag_88:\n        /* \"#utility.yul\":8303:8309   */\n      dup3\n        /* \"#utility.yul\":8298:8301   */\n      dup2\n        /* \"#utility.yul\":8293:8296   */\n      dup4\n        /* \"#utility.yul\":8280:8310   */\n      calldatacopy\n        /* \"#utility.yul\":8344:8345   */\n      0x00\n        /* \"#utility.yul\":8335:8341   */\n      dup4\n        /* \"#utility.yul\":8330:8333   */\n      dup4\n        /* \"#utility.yul\":8326:8342   */\n      add\n        /* \"#utility.yul\":8319:8346   */\n      mstore\n        /* \"#utility.yul\":8206:8352   */\n      pop\n      pop\n      pop\n      jump\t// out\n        /* \"#utility.yul\":8358:8783   */\n    tag_89:\n        /* \"#utility.yul\":8436:8441   */\n      0x00\n        /* \"#utility.yul\":8461:8527   */\n      tag_187\n        /* \"#utility.yul\":8477:8526   */\n      tag_188\n        /* \"#utility.yul\":8519:8525   */\n      dup5\n        /* \"#utility.yul\":8477:8526   */\n      tag_87\n      jump\t// in\n    tag_188:\n        /* \"#utility.yul\":8461:8527   */\n      tag_86\n      jump\t// in\n    tag_187:\n        /* \"#utility.yul\":8452:8527   */\n      swap1\n      pop\n        /* \"#utility.yul\":8550:8556   */\n      dup3\n        /* \"#utility.yul\":8543:8548   */\n      dup2\n        /* \"#utility.yul\":8536:8557   */\n      mstore\n        /* \"#utility.yul\":8588:8592   */\n      0x20\n        /* \"#utility.yul\":8581:8586   */\n      dup2\n        /* \"#utility.yul\":8577:8593   */\n      add\n        /* \"#utility.yul\":8626:8629   */\n      dup5\n        /* \"#utility.yul\":8617:8623   */\n      dup5\n        /* \"#utility.yul\":8612:8615   */\n      dup5\n        /* \"#utility.yul\":8608:8624   */\n      add\n        /* \"#utility.yul\":8605:8630   */\n      gt\n        /* \"#utility.yul\":8602:8714   */\n      iszero\n      tag_189\n      jumpi\n        /* \"#utility.yul\":8633:8712   */\n      tag_190\n      tag_83\n      jump\t// in\n    tag_190:\n        /* \"#utility.yul\":8602:8714   */\n    tag_189:\n        /* \"#utility.yul\":8723:8777   */\n      tag_191\n        /* \"#utility.yul\":8770:8776   */\n      dup5\n        /* \"#utility.yul\":8765:8768   */\n      dup3\n        /* \"#utility.yul\":8760:8763   */\n      dup6\n        /* \"#utility.yul\":8723:8777   */\n      tag_88\n      jump\t// in\n    tag_191:\n        /* \"#utility.yul\":8442:8783   */\n      pop\n        /* \"#utility.yul\":8358:8783   */\n      swap4\n      swap3\n      pop\n      pop\n      pop\n      jump\t// out\n        /* \"#utility.yul\":8803:9143   */\n    tag_90:\n        /* \"#utility.yul\":8859:8864   */\n      0x00\n        /* \"#utility.yul\":8908:8911   */\n      dup3\n        /* \"#utility.yul\":8901:8905   */\n      0x1f\n        /* \"#utility.yul\":8893:8899   */\n      dup4\n        /* \"#utility.yul\":8889:8906   */\n      add\n        /* \"#utility.yul\":8885:8912   */\n      slt\n        /* \"#utility.yul\":8875:8997   */\n      tag_193\n      jumpi\n        /* \"#utility.yul\":8916:8995   */\n      tag_194\n      tag_82\n      jump\t// in\n    tag_194:\n        /* \"#utility.yul\":8875:8997   */\n    tag_193:\n        /* \"#utility.yul\":9033:9039   */\n      dup2\n        /* \"#utility.yul\":9020:9040   */\n      calldataload\n        /* \"#utility.yul\":9058:9137   */\n      tag_195\n        /* \"#utility.yul\":9133:9136   */\n      dup5\n        /* \"#utility.yul\":9125:9131   */\n      dup3\n        /* \"#utility.yul\":9118:9122   */\n      0x20\n        /* \"#utility.yul\":9110:9116   */\n      dup7\n        /* \"#utility.yul\":9106:9123   */\n      add\n        /* \"#utility.yul\":9058:9137   */\n      tag_89\n      jump\t// in\n    tag_195:\n        /* \"#utility.yul\":9049:9137   */\n      swap2\n      pop\n        /* \"#utility.yul\":8865:9143   */\n      pop\n        /* \"#utility.yul\":8803:9143   */\n      swap3\n      swap2\n      pop\n      pop\n      jump\t// out\n        /* \"#utility.yul\":9149:9271   */\n    tag_91:\n        /* \"#utility.yul\":9222:9246   */\n      tag_197\n        /* \"#utility.yul\":9240:9245   */\n      dup2\n        /* \"#utility.yul\":9222:9246   */\n      tag_70\n      jump\t// in\n    tag_197:\n        /* \"#utility.yul\":9215:9220   */\n      dup2\n        /* \"#utility.yul\":9212:9247   */\n      eq\n        /* \"#utility.yul\":9202:9265   */\n      tag_198\n      jumpi\n        /* \"#utility.yul\":9261:9262   */\n      0x00\n        /* \"#utility.yul\":9258:9259   */\n      dup1\n        /* \"#utility.yul\":9251:9263   */\n      revert\n        /* \"#utility.yul\":9202:9265   */\n    tag_198:\n        /* \"#utility.yul\":9149:9271   */\n      pop\n      jump\t// out\n        /* \"#utility.yul\":9277:9416   */\n    tag_92:\n        /* \"#utility.yul\":9323:9328   */\n      0x00\n        /* \"#utility.yul\":9361:9367   */\n      dup2\n        /* \"#utility.yul\":9348:9368   */\n      calldataload\n        /* \"#utility.yul\":9339:9368   */\n      swap1\n      pop\n        /* \"#utility.yul\":9377:9410   */\n      tag_200\n        /* \"#utility.yul\":9404:9409   */\n      dup2\n        /* \"#utility.yul\":9377:9410   */\n      tag_91\n      jump\t// in\n    tag_200:\n        /* \"#utility.yul\":9277:9416   */\n      swap3\n      swap2\n      pop\n      pop\n      jump\t// out\n        /* \"#utility.yul\":9422:10221   */\n    tag_19:\n        /* \"#utility.yul\":9509:9515   */\n      0x00\n        /* \"#utility.yul\":9517:9523   */\n      dup1\n        /* \"#utility.yul\":9525:9531   */\n      0x00\n        /* \"#utility.yul\":9574:9576   */\n      0x60\n        /* \"#utility.yul\":9562:9571   */\n      dup5\n        /* \"#utility.yul\":9553:9560   */\n      dup7\n        /* \"#utility.yul\":9549:9572   */\n      sub\n        /* \"#utility.yul\":9545:9577   */\n      slt\n        /* \"#utility.yul\":9542:9661   */\n      iszero\n      tag_202\n      jumpi\n        /* \"#utility.yul\":9580:9659   */\n      tag_203\n      tag_77\n      jump\t// in\n    tag_203:\n        /* \"#utility.yul\":9542:9661   */\n    tag_202:\n        /* \"#utility.yul\":9728:9729   */\n      0x00\n        /* \"#utility.yul\":9717:9726   */\n      dup5\n        /* \"#utility.yul\":9713:9730   */\n      add\n        /* \"#utility.yul\":9700:9731   */\n      calldataload\n        /* \"#utility.yul\":9758:9776   */\n      0xffffffffffffffff\n        /* \"#utility.yul\":9750:9756   */\n      dup2\n        /* \"#utility.yul\":9747:9777   */\n      gt\n        /* \"#utility.yul\":9744:9861   */\n      iszero\n      tag_204\n      jumpi\n        /* \"#utility.yul\":9780:9859   */\n      tag_205\n      tag_78\n      jump\t// in\n    tag_205:\n        /* \"#utility.yul\":9744:9861   */\n    tag_204:\n        /* \"#utility.yul\":9885:9948   */\n      tag_206\n        /* \"#utility.yul\":9940:9947   */\n      dup7\n        /* \"#utility.yul\":9931:9937   */\n      dup3\n        /* \"#utility.yul\":9920:9929   */\n      dup8\n        /* \"#utility.yul\":9916:9938   */\n      add\n        /* \"#utility.yul\":9885:9948   */\n      tag_90\n      jump\t// in\n    tag_206:\n        /* \"#utility.yul\":9875:9948   */\n      swap4\n      pop\n        /* \"#utility.yul\":9671:9958   */\n      pop\n        /* \"#utility.yul\":9997:9999   */\n      0x20\n        /* \"#utility.yul\":10023:10076   */\n      tag_207\n        /* \"#utility.yul\":10068:10075   */\n      dup7\n        /* \"#utility.yul\":10059:10065   */\n      dup3\n        /* \"#utility.yul\":10048:10057   */\n      dup8\n        /* \"#utility.yul\":10044:10066   */\n      add\n        /* \"#utility.yul\":10023:10076   */\n      tag_80\n      jump\t// in\n    tag_207:\n        /* \"#utility.yul\":10013:10076   */\n      swap3\n      pop\n        /* \"#utility.yul\":9968:10086   */\n      pop\n        /* \"#utility.yul\":10125:10127   */\n      0x40\n        /* \"#utility.yul\":10151:10204   */\n      tag_208\n        /* \"#utility.yul\":10196:10203   */\n      dup7\n        /* \"#utility.yul\":10187:10193   */\n      dup3\n        /* \"#utility.yul\":10176:10185   */\n      dup8\n        /* \"#utility.yul\":10172:10194   */\n      add\n        /* \"#utility.yul\":10151:10204   */\n      tag_92\n      jump\t// in\n    tag_208:\n        /* \"#utility.yul\":10141:10204   */\n      swap2\n      pop\n        /* \"#utility.yul\":10096:10214   */\n      pop\n        /* \"#utility.yul\":9422:10221   */\n      swap3\n      pop\n      swap3\n      pop\n      swap3\n      jump\t// out\n        /* \"#utility.yul\":10227:10345   */\n    tag_93:\n        /* \"#utility.yul\":10314:10338   */\n      tag_210\n        /* \"#utility.yul\":10332:10337   */\n      dup2\n        /* \"#utility.yul\":10314:10338   */\n      tag_70\n      jump\t// in\n    tag_210:\n        /* \"#utility.yul\":10309:10312   */\n      dup3\n        /* \"#utility.yul\":10302:10339   */\n      mstore\n        /* \"#utility.yul\":10227:10345   */\n      pop\n      pop\n      jump\t// out\n        /* \"#utility.yul\":10351:10573   */\n    tag_25:\n        /* \"#utility.yul\":10444:10448   */\n      0x00\n        /* \"#utility.yul\":10482:10484   */\n      0x20\n        /* \"#utility.yul\":10471:10480   */\n      dup3\n        /* \"#utility.yul\":10467:10485   */\n      add\n        /* \"#utility.yul\":10459:10485   */\n      swap1\n      pop\n        /* \"#utility.yul\":10495:10566   */\n      tag_212\n        /* \"#utility.yul\":10563:10564   */\n      0x00\n        /* \"#utility.yul\":10552:10561   */\n      dup4\n        /* \"#utility.yul\":10548:10565   */\n      add\n        /* \"#utility.yul\":10539:10545   */\n      dup5\n        /* \"#utility.yul\":10495:10566   */\n      tag_93\n      jump\t// in\n    tag_212:\n        /* \"#utility.yul\":10351:10573   */\n      swap3\n      swap2\n      pop\n      pop\n      jump\t// out\n        /* \"#utility.yul\":10579:10759   */\n    tag_94:\n        /* \"#utility.yul\":10627:10704   */\n      0x4e487b7100000000000000000000000000000000000000000000000000000000\n        /* \"#utility.yul\":10624:10625   */\n      0x00\n        /* \"#utility.yul\":10617:10705   */\n      mstore\n        /* \"#utility.yul\":10724:10728   */\n      0x22\n        /* \"#utility.yul\":10721:10722   */\n      0x04\n        /* \"#utility.yul\":10714:10729   */\n      mstore\n        /* \"#utility.yul\":10748:10752   */\n      0x24\n        /* \"#utility.yul\":10745:10746   */\n      0x00\n        /* \"#utility.yul\":10738:10753   */\n      revert\n        /* \"#utility.yul\":10765:11085   */\n    tag_31:\n        /* \"#utility.yul\":10809:10815   */\n      0x00\n        /* \"#utility.yul\":10846:10847   */\n      0x02\n        /* \"#utility.yul\":10840:10844   */\n      dup3\n        /* \"#utility.yul\":10836:10848   */\n      div\n        /* \"#utility.yul\":10826:10848   */\n      swap1\n      pop\n        /* \"#utility.yul\":10893:10894   */\n      0x01\n        /* \"#utility.yul\":10887:10891   */\n      dup3\n        /* \"#utility.yul\":10883:10895   */\n      and\n        /* \"#utility.yul\":10914:10932   */\n      dup1\n        /* \"#utility.yul\":10904:10985   */\n      tag_215\n      jumpi\n        /* \"#utility.yul\":10970:10974   */\n      0x7f\n        /* \"#utility.yul\":10962:10968   */\n      dup3\n        /* \"#utility.yul\":10958:10975   */\n      and\n        /* \"#utility.yul\":10948:10975   */\n      swap2\n      pop\n        /* \"#utility.yul\":10904:10985   */\n    tag_215:\n        /* \"#utility.yul\":11032:11034   */\n      0x20\n        /* \"#utility.yul\":11024:11030   */\n      dup3\n        /* \"#utility.yul\":11021:11035   */\n      lt\n        /* \"#utility.yul\":11001:11019   */\n      dup2\n        /* \"#utility.yul\":10998:11036   */\n      sub\n        /* \"#utility.yul\":10995:11079   */\n      tag_216\n      jumpi\n        /* \"#utility.yul\":11051:11069   */\n      tag_217\n      tag_94\n      jump\t// in\n    tag_217:\n        /* \"#utility.yul\":10995:11079   */\n    tag_216:\n        /* \"#utility.yul\":10816:11085   */\n      pop\n        /* \"#utility.yul\":10765:11085   */\n      swap2\n      swap1\n      pop\n      jump\t// out\n        /* \"#utility.yul\":11091:11271   */\n    tag_95:\n        /* \"#utility.yul\":11139:11216   */\n      0x4e487b7100000000000000000000000000000000000000000000000000000000\n        /* \"#utility.yul\":11136:11137   */\n      0x00\n        /* \"#utility.yul\":11129:11217   */\n      mstore\n        /* \"#utility.yul\":11236:11240   */\n      0x11\n        /* \"#utility.yul\":11233:11234   */\n      0x04\n        /* \"#utility.yul\":11226:11241   */\n      mstore\n        /* \"#utility.yul\":11260:11264   */\n      0x24\n        /* \"#utility.yul\":11257:11258   */\n      0x00\n        /* \"#utility.yul\":11250:11265   */\n      revert\n        /* \"#utility.yul\":11277:11471   */\n    tag_40:\n        /* \"#utility.yul\":11317:11321   */\n      0x00\n        /* \"#utility.yul\":11337:11357   */\n      tag_220\n        /* \"#utility.yul\":11355:11356   */\n      dup3\n        /* \"#utility.yul\":11337:11357   */\n      tag_67\n      jump\t// in\n    tag_220:\n        /* \"#utility.yul\":11332:11357   */\n      swap2\n      pop\n        /* \"#utility.yul\":11371:11391   */\n      tag_221\n        /* \"#utility.yul\":11389:11390   */\n      dup4\n        /* \"#utility.yul\":11371:11391   */\n      tag_67\n      jump\t// in\n    tag_221:\n        /* \"#utility.yul\":11366:11391   */\n      swap3\n      pop\n        /* \"#utility.yul\":11415:11416   */\n      dup3\n        /* \"#utility.yul\":11412:11413   */\n      dup3\n        /* \"#utility.yul\":11408:11417   */\n      sub\n        /* \"#utility.yul\":11400:11417   */\n      swap1\n      pop\n        /* \"#utility.yul\":11439:11440   */\n      dup2\n        /* \"#utility.yul\":11433:11437   */\n      dup2\n        /* \"#utility.yul\":11430:11441   */\n      gt\n        /* \"#utility.yul\":11427:11464   */\n      iszero\n      tag_222\n      jumpi\n        /* \"#utility.yul\":11444:11462   */\n      tag_223\n      tag_95\n      jump\t// in\n    tag_223:\n        /* \"#utility.yul\":11427:11464   */\n    tag_222:\n        /* \"#utility.yul\":11277:11471   */\n      swap3\n      swap2\n      pop\n      pop\n      jump\t// out\n        /* \"#utility.yul\":11477:11657   */\n    tag_43:\n        /* \"#utility.yul\":11525:11602   */\n      0x4e487b7100000000000000000000000000000000000000000000000000000000\n        /* \"#utility.yul\":11522:11523   */\n      0x00\n        /* \"#utility.yul\":11515:11603   */\n      mstore\n        /* \"#utility.yul\":11622:11626   */\n      0x32\n        /* \"#utility.yul\":11619:11620   */\n      0x04\n        /* \"#utility.yul\":11612:11627   */\n      mstore\n        /* \"#utility.yul\":11646:11650   */\n      0x24\n        /* \"#utility.yul\":11643:11644   */\n      0x00\n        /* \"#utility.yul\":11636:11651   */\n      revert\n        /* \"#utility.yul\":11663:11804   */\n    tag_96:\n        /* \"#utility.yul\":11712:11716   */\n      0x00\n        /* \"#utility.yul\":11735:11738   */\n      dup2\n        /* \"#utility.yul\":11727:11738   */\n      swap1\n      pop\n        /* \"#utility.yul\":11758:11761   */\n      dup2\n        /* \"#utility.yul\":11755:11756   */\n      0x00\n        /* \"#utility.yul\":11748:11762   */\n      mstore\n        /* \"#utility.yul\":11792:11796   */\n      0x20\n        /* \"#utility.yul\":11789:11790   */\n      0x00\n        /* \"#utility.yul\":11779:11797   */\n      keccak256\n        /* \"#utility.yul\":11771:11797   */\n      swap1\n      pop\n        /* \"#utility.yul\":11663:11804   */\n      swap2\n      swap1\n      pop\n      jump\t// out\n        /* \"#utility.yul\":11810:11903   */\n    tag_97:\n        /* \"#utility.yul\":11847:11853   */\n      0x00\n        /* \"#utility.yul\":11894:11896   */\n      0x20\n        /* \"#utility.yul\":11889:11891   */\n      0x1f\n        /* \"#utility.yul\":11882:11887   */\n      dup4\n        /* \"#utility.yul\":11878:11892   */\n      add\n        /* \"#utility.yul\":11874:11897   */\n      div\n        /* \"#utility.yul\":11864:11897   */\n      swap1\n      pop\n        /* \"#utility.yul\":11810:11903   */\n      swap2\n      swap1\n      pop\n      jump\t// out\n        /* \"#utility.yul\":11909:12016   */\n    tag_98:\n        /* \"#utility.yul\":11953:11961   */\n      0x00\n        /* \"#utility.yul\":12003:12008   */\n      dup3\n        /* \"#utility.yul\":11997:12001   */\n      dup3\n        /* \"#utility.yul\":11993:12009   */\n      shl\n        /* \"#utility.yul\":11972:12009   */\n      swap1\n      pop\n        /* \"#utility.yul\":11909:12016   */\n      swap3\n      swap2\n      pop\n      pop\n      jump\t// out\n        /* \"#utility.yul\":12022:12415   */\n    tag_99:\n        /* \"#utility.yul\":12091:12097   */\n      0x00\n        /* \"#utility.yul\":12141:12142   */\n      0x08\n        /* \"#utility.yul\":12129:12139   */\n      dup4\n        /* \"#utility.yul\":12125:12143   */\n      mul\n        /* \"#utility.yul\":12164:12261   */\n      tag_229\n        /* \"#utility.yul\":12194:12260   */\n      0xffffffffffffffffffffffffffffffffffffffffffffffffffffffffffffffff\n        /* \"#utility.yul\":12183:12192   */\n      dup3\n        /* \"#utility.yul\":12164:12261   */\n      tag_98\n      jump\t// in\n    tag_229:\n        /* \"#utility.yul\":12282:12321   */\n      tag_230\n        /* \"#utility.yul\":12312:12320   */\n      dup7\n        /* \"#utility.yul\":12301:12310   */\n      dup4\n        /* \"#utility.yul\":12282:12321   */\n      tag_98\n      jump\t// in\n    tag_230:\n        /* \"#utility.yul\":12270:12321   */\n      swap6\n      pop\n        /* \"#utility.yul\":12354:12358   */\n      dup1\n        /* \"#utility.yul\":12350:12359   */\n      not\n        /* \"#utility.yul\":12343:12348   */\n      dup5\n        /* \"#utility.yul\":12339:12360   */\n      and\n        /* \"#utility.yul\":12330:12360   */\n      swap4\n      pop\n        /* \"#utility.yul\":12403:12407   */\n      dup1\n        /* \"#utility.yul\":12393:12401   */\n      dup7\n        /* \"#utility.yul\":12389:12408   */\n      and\n        /* \"#utility.yul\":12382:12387   */\n      dup5\n        /* \"#utility.yul\":12379:12409   */\n      or\n        /* \"#utility.yul\":12369:12409   */\n      swap3\n      pop\n        /* \"#utility.yul\":12098:12415   */\n      pop\n      pop\n        /* \"#utility.yul\":12022:12415   */\n      swap4\n      swap3\n      pop\n      pop\n      pop\n      jump\t// out\n        /* \"#utility.yul\":12421:12481   */\n    tag_100:\n        /* \"#utility.yul\":12449:12452   */\n      0x00\n        /* \"#utility.yul\":12470:12475   */\n      dup2\n        /* \"#utility.yul\":12463:12475   */\n      swap1\n      pop\n        /* \"#utility.yul\":12421:12481   */\n      swap2\n      swap1\n      pop\n      jump\t// out\n        /* \"#utility.yul\":12487:12629   */\n    tag_101:\n        /* \"#utility.yul\":12537:12546   */\n      0x00\n        /* \"#utility.yul\":12570:12623   */\n      tag_233\n        /* \"#utility.yul\":12588:12622   */\n      tag_234\n        /* \"#utility.yul\":12597:12621   */\n      tag_235\n        /* \"#utility.yul\":12615:12620   */\n      dup5\n        /* \"#utility.yul\":12597:12621   */\n      tag_67\n      jump\t// in\n    tag_235:\n        /* \"#utility.yul\":12588:12622   */\n      tag_100\n      jump\t// in\n    tag_234:\n        /* \"#utility.yul\":12570:12623   */\n      tag_67\n      jump\t// in\n    tag_233:\n        /* \"#utility.yul\":12557:12623   */\n      swap1\n      pop\n        /* \"#utility.yul\":12487:12629   */\n      swap2\n      swap1\n      pop\n      jump\t// out\n        /* \"#utility.yul\":12635:12710   */\n    tag_102:\n        /* \"#utility.yul\":12678:12681   */\n      0x00\n        /* \"#utility.yul\":12699:12704   */\n      dup2\n        /* \"#utility.yul\":12692:12704   */\n      swap1\n      pop\n        /* \"#utility.yul\":12635:12710   */\n      swap2\n      swap1\n      pop\n      jump\t// out\n        /* \"#utility.yul\":12716:12985   */\n    tag_103:\n        /* \"#utility.yul\":12826:12865   */\n      tag_238\n        /* \"#utility.yul\":12857:12864   */\n      dup4\n        /* \"#utility.yul\":12826:12865   */\n      tag_101\n      jump\t// in\n    tag_238:\n        /* \"#utility.yul\":12887:12978   */\n      tag_239\n        /* \"#utility.yul\":12936:12977   */\n      tag_240\n        /* \"#utility.yul\":12960:12976   */\n      dup3\n        /* \"#utility.yul\":12936:12977   */\n      tag_102\n      jump\t// in\n    tag_240:\n        /* \"#utility.yul\":12928:12934   */\n      dup5\n        /* \"#utility.yul\":12921:12925   */\n      dup5\n        /* \"#utility.yul\":12915:12926   */\n      sload\n        /* \"#utility.yul\":12887:12978   */\n      tag_99\n      jump\t// in\n    tag_239:\n        /* \"#utility.yul\":12881:12885   */\n      dup3\n        /* \"#utility.yul\":12874:12979   */\n      sstore\n        /* \"#utility.yul\":12792:12985   */\n      pop\n        /* \"#utility.yul\":12716:12985   */\n      pop\n      pop\n      pop\n      jump\t// out\n        /* \"#utility.yul\":12991:13064   */\n    tag_104:\n        /* \"#utility.yul\":13036:13039   */\n      0x00\n        /* \"#utility.yul\":12991:13064   */\n      swap1\n      jump\t// out\n        /* \"#utility.yul\":13070:13259   */\n    tag_105:\n        /* \"#utility.yul\":13147:13179   */\n      tag_243\n      tag_104\n      jump\t// in\n    tag_243:\n        /* \"#utility.yul\":13188:13253   */\n      tag_244\n        /* \"#utility.yul\":13246:13252   */\n      dup2\n        /* \"#utility.yul\":13238:13244   */\n      dup5\n        /* \"#utility.yul\":13232:13236   */\n      dup5\n        /* \"#utility.yul\":13188:13253   */\n      tag_103\n      jump\t// in\n    tag_244:\n        /* \"#utility.yul\":13123:13259   */\n      pop\n        /* \"#utility.yul\":13070:13259   */\n      pop\n      pop\n      jump\t// out\n        /* \"#utility.yul\":13265:13451   */\n    tag_106:\n        /* \"#utility.yul\":13325:13445   */\n    tag_246:\n        /* \"#utility.yul\":13342:13345   */\n      dup2\n        /* \"#utility.yul\":13335:13340   */\n      dup2\n        /* \"#utility.yul\":13332:13346   */\n      lt\n        /* \"#utility.yul\":13325:13445   */\n      iszero\n      tag_248\n      jumpi\n        /* \"#utility.yul\":13396:13435   */\n      tag_249\n        /* \"#utility.yul\":13433:13434   */\n      0x00\n        /* \"#utility.yul\":13426:13431   */\n      dup3\n        /* \"#utility.yul\":13396:13435   */\n      tag_105\n      jump\t// in\n    tag_249:\n        /* \"#utility.yul\":13369:13370   */\n      0x01\n        /* \"#utility.yul\":13362:13367   */\n      dup2\n        /* \"#utility.yul\":13358:13371   */\n      add\n        /* \"#utility.yul\":13349:13371   */\n      swap1\n      pop\n        /* \"#utility.yul\":13325:13445   */\n      jump(tag_246)\n    tag_248:\n        /* \"#utility.yul\":13265:13451   */\n      pop\n      pop\n      jump\t// out\n        /* \"#utility.yul\":13457:14000   */\n    tag_107:\n        /* \"#utility.yul\":13558:13560   */\n      0x1f\n        /* \"#utility.yul\":13553:13556   */\n      dup3\n        /* \"#utility.yul\":13550:13561   */\n      gt\n        /* \"#utility.yul\":13547:13993   */\n      iszero\n      tag_251\n      jumpi\n        /* \"#utility.yul\":13592:13630   */\n      tag_252\n        /* \"#utility.yul\":13624:13629   */\n      dup2\n        /* \"#utility.yul\":13592:13630   */\n      tag_96\n      jump\t// in\n    tag_252:\n        /* \"#utility.yul\":13676:13705   */\n      tag_253\n        /* \"#utility.yul\":13694:13704   */\n      dup5\n        /* \"#utility.yul\":13676:13705   */\n      tag_97\n      jump\t// in\n    tag_253:\n        /* \"#utility.yul\":13666:13674   */\n      dup2\n        /* \"#utility.yul\":13662:13706   */\n      add\n        /* \"#utility.yul\":13859:13861   */\n      0x20\n        /* \"#utility.yul\":13847:13857   */\n      dup6\n        /* \"#utility.yul\":13844:13862   */\n      lt\n        /* \"#utility.yul\":13841:13890   */\n      iszero\n      tag_254\n      jumpi\n        /* \"#utility.yul\":13880:13888   */\n      dup2\n        /* \"#utility.yul\":13865:13888   */\n      swap1\n      pop\n        /* \"#utility.yul\":13841:13890   */\n    tag_254:\n        /* \"#utility.yul\":13903:13983   */\n      tag_255\n        /* \"#utility.yul\":13959:13981   */\n      tag_256\n        /* \"#utility.yul\":13977:13980   */\n      dup6\n        /* \"#utility.yul\":13959:13981   */\n      tag_97\n      jump\t// in\n    tag_256:\n        /* \"#utility.yul\":13949:13957   */\n      dup4\n        /* \"#utility.yul\":13945:13982   */\n      add\n        /* \"#utility.yul\":13932:13943   */\n      dup3\n        /* \"#utility.yul\":13903:13983   */\n      tag_106\n      jump\t// in\n    tag_255:\n        /* \"#utility.yul\":13562:13993   */\n      pop\n      pop\n        /* \"#utility.yul\":13547:13993   */\n    tag_251:\n        /* \"#utility.yul\":13457:14000   */\n      pop\n      pop\n      pop\n      jump\t// out\n        /* \"#utility.yul\":14006:14123   */\n    tag_108:\n        /* \"#utility.yul\":14060:14068   */\n      0x00\n        /* \"#utility.yul\":14110:14115   */\n      dup3\n        /* \"#utility.yul\":14104:14108   */\n      dup3\n        /* \"#utility.yul\":14100:14116   */\n      shr\n        /* \"#utility.yul\":14079:14116   */\n      swap1\n      pop\n        /* \"#utility.yul\":14006:14123   */\n      swap3\n      swap2\n      pop\n      pop\n      jump\t// out\n        /* \"#utility.yul\":14129:14298   */\n    tag_109:\n        /* \"#utility.yul\":14173:14179   */\n      0x00\n        /* \"#utility.yul\":14206:14257   */\n      tag_259\n        /* \"#utility.yul\":14254:14255   */\n      0x00\n        /* \"#utility.yul\":14250:14256   */\n      not\n        /* \"#utility.yul\":14242:14247   */\n      dup5\n        /* \"#utility.yul\":14239:14240   */\n      0x08\n        /* \"#utility.yul\":14235:14248   */\n      mul\n        /* \"#utility.yul\":14206:14257   */\n      tag_108\n      jump\t// in\n    tag_259:\n        /* \"#utility.yul\":14202:14258   */\n      not\n        /* \"#utility.yul\":14287:14291   */\n      dup1\n        /* \"#utility.yul\":14281:14285   */\n      dup4\n        /* \"#utility.yul\":14277:14292   */\n      and\n        /* \"#utility.yul\":14267:14292   */\n      swap2\n      pop\n        /* \"#utility.yul\":14180:14298   */\n      pop\n        /* \"#utility.yul\":14129:14298   */\n      swap3\n      swap2\n      pop\n      pop\n      jump\t// out\n        /* \"#utility.yul\":14303:14598   */\n    tag_110:\n        /* \"#utility.yul\":14379:14383   */\n      0x00\n        /* \"#utility.yul\":14525:14554   */\n      tag_261\n        /* \"#utility.yul\":14550:14553   */\n      dup4\n        /* \"#utility.yul\":14544:14548   */\n      dup4\n        /* \"#utility.yul\":14525:14554   */\n      tag_109\n      jump\t// in\n    tag_261:\n        /* \"#utility.yul\":14517:14554   */\n      swap2\n      pop\n        /* \"#utility.yul\":14587:14590   */\n      dup3\n        /* \"#utility.yul\":14584:14585   */\n      0x02\n        /* \"#utility.yul\":14580:14591   */\n      mul\n        /* \"#utility.yul\":14574:14578   */\n      dup3\n        /* \"#utility.yul\":14571:14592   */\n      or\n        /* \"#utility.yul\":14563:14592   */\n      swap1\n      pop\n        /* \"#utility.yul\":14303:14598   */\n      swap3\n      swap2\n      pop\n      pop\n      jump\t// out\n        /* \"#utility.yul\":14603:15998   */\n    tag_53:\n        /* \"#utility.yul\":14720:14757   */\n      tag_263\n        /* \"#utility.yul\":14753:14756   */\n      dup3\n        /* \"#utility.yul\":14720:14757   */\n      tag_62\n      jump\t// in\n    tag_263:\n        /* \"#utility.yul\":14822:14840   */\n      0xffffffffffffffff\n        /* \"#utility.yul\":14814:14820   */\n      dup2\n        /* \"#utility.yul\":14811:14841   */\n      gt\n        /* \"#utility.yul\":14808:14864   */\n      iszero\n      tag_264\n      jumpi\n        /* \"#utility.yul\":14844:14862   */\n      tag_265\n      tag_84\n      jump\t// in\n    tag_265:\n        /* \"#utility.yul\":14808:14864   */\n    tag_264:\n        /* \"#utility.yul\":14888:14926   */\n      tag_266\n        /* \"#utility.yul\":14920:14924   */\n      dup3\n        /* \"#utility.yul\":14914:14925   */\n      sload\n        /* \"#utility.yul\":14888:14926   */\n      tag_31\n      jump\t// in\n    tag_266:\n        /* \"#utility.yul\":14973:15040   */\n      tag_267\n        /* \"#utility.yul\":15033:15039   */\n      dup3\n        /* \"#utility.yul\":15025:15031   */\n      dup3\n        /* \"#utility.yul\":15019:15023   */\n      dup6\n        /* \"#utility.yul\":14973:15040   */\n      tag_107\n      jump\t// in\n    tag_267:\n        /* \"#utility.yul\":15067:15068   */\n      0x00\n        /* \"#utility.yul\":15091:15095   */\n      0x20\n        /* \"#utility.yul\":15078:15095   */\n      swap1\n      pop\n        /* \"#utility.yul\":15123:15125   */\n      0x1f\n        /* \"#utility.yul\":15115:15121   */\n      dup4\n        /* \"#utility.yul\":15112:15126   */\n      gt\n        /* \"#utility.yul\":15140:15141   */\n      0x01\n        /* \"#utility.yul\":15135:15753   */\n      dup2\n      eq\n      tag_269\n      jumpi\n        /* \"#utility.yul\":15797:15798   */\n      0x00\n        /* \"#utility.yul\":15814:15820   */\n      dup5\n        /* \"#utility.yul\":15811:15888   */\n      iszero\n      tag_270\n      jumpi\n        /* \"#utility.yul\":15863:15872   */\n      dup3\n        /* \"#utility.yul\":15858:15861   */\n      dup8\n        /* \"#utility.yul\":15854:15873   */\n      add\n        /* \"#utility.yul\":15848:15874   */\n      mload\n        /* \"#utility.yul\":15839:15874   */\n      swap1\n      pop\n        /* \"#utility.yul\":15811:15888   */\n    tag_270:\n        /* \"#utility.yul\":15914:15981   */\n      tag_271\n        /* \"#utility.yul\":15974:15980   */\n      dup6\n        /* \"#utility.yul\":15967:15972   */\n      dup3\n        /* \"#utility.yul\":15914:15981   */\n      tag_110\n      jump\t// in\n    tag_271:\n        /* \"#utility.yul\":15908:15912   */\n      dup7\n        /* \"#utility.yul\":15901:15982   */\n      sstore\n        /* \"#utility.yul\":15770:15992   */\n      pop\n        /* \"#utility.yul\":15105:15992   */\n      jump(tag_268)\n        /* \"#utility.yul\":15135:15753   */\n    tag_269:\n        /* \"#utility.yul\":15187:15191   */\n      0x1f\n        /* \"#utility.yul\":15183:15192   */\n      not\n        /* \"#utility.yul\":15175:15181   */\n      dup5\n        /* \"#utility.yul\":15171:15193   */\n      and\n        /* \"#utility.yul\":15221:15258   */\n      tag_272\n        /* \"#utility.yul\":15253:15257   */\n      dup7\n        /* \"#utility.yul\":15221:15258   */\n      tag_96\n      jump\t// in\n    tag_272:\n        /* \"#utility.yul\":15280:15281   */\n      0x00\n        /* \"#utility.yul\":15294:15502   */\n    tag_273:\n        /* \"#utility.yul\":15308:15315   */\n      dup3\n        /* \"#utility.yul\":15305:15306   */\n      dup2\n        /* \"#utility.yul\":15302:15316   */\n      lt\n        /* \"#utility.yul\":15294:15502   */\n      iszero\n      tag_275\n      jumpi\n        /* \"#utility.yul\":15387:15396   */\n      dup5\n        /* \"#utility.yul\":15382:15385   */\n      dup10\n        /* \"#utility.yul\":15378:15397   */\n      add\n        /* \"#utility.yul\":15372:15398   */\n      mload\n        /* \"#utility.yul\":15364:15370   */\n      dup3\n        /* \"#utility.yul\":15357:15399   */\n      sstore\n        /* \"#utility.yul\":15438:15439   */\n      0x01\n        /* \"#utility.yul\":15430:15436   */\n      dup3\n        /* \"#utility.yul\":15426:15440   */\n      add\n        /* \"#utility.yul\":15416:15440   */\n      swap2\n      pop\n        /* \"#utility.yul\":15485:15487   */\n      0x20\n        /* \"#utility.yul\":15474:15483   */\n      dup6\n        /* \"#utility.yul\":15470:15488   */\n      add\n        /* \"#utility.yul\":15457:15488   */\n      swap5\n      pop\n        /* \"#utility.yul\":15331:15335   */\n      0x20\n        /* \"#utility.yul\":15328:15329   */\n      dup2\n        /* \"#utility.yul\":15324:15336   */\n      add\n        /* \"#utility.yul\":15319:15336   */\n      swap1\n      pop\n        /* \"#utility.yul\":15294:15502   */\n      jump(tag_273)\n    tag_275:\n        /* \"#utility.yul\":15530:15536   */\n      dup7\n        /* \"#utility.yul\":15521:15528   */\n      dup4\n        /* \"#utility.yul\":15518:15537   */\n      lt\n        /* \"#utility.yul\":15515:15694   */\n      iszero\n      tag_276\n      jumpi\n        /* \"#utility.yul\":15588:15597   */\n      dup5\n        /* \"#utility.yul\":15583:15586   */\n      dup10\n        /* \"#utility.yul\":15579:15598   */\n      add\n        /* \"#utility.yul\":15573:15599   */\n      mload\n        /* \"#utility.yul\":15631:15679   */\n      tag_277\n        /* \"#utility.yul\":15673:15677   */\n      0x1f\n        /* \"#utility.yul\":15665:15671   */\n      dup10\n        /* \"#utility.yul\":15661:15678   */\n      and\n        /* \"#utility.yul\":15650:15659   */\n      dup3\n        /* \"#utility.yul\":15631:15679   */\n      tag_109\n      jump\t// in\n    tag_277:\n        /* \"#utility.yul\":15623:15629   */\n      dup4\n        /* \"#utility.yul\":15616:15680   */\n      sstore\n        /* \"#utility.yul\":15538:15694   */\n      pop\n        /* \"#utility.yul\":15515:15694   */\n    tag_276:\n        /* \"#utility.yul\":15740:15741   */\n      0x01\n        /* \"#utility.yul\":15736:15737   */\n      0x02\n        /* \"#utility.yul\":15728:15734   */\n      dup9\n        /* \"#utility.yul\":15724:15738   */\n      mul\n        /* \"#utility.yul\":15720:15742   */\n      add\n        /* \"#utility.yul\":15714:15718   */\n      dup9\n        /* \"#utility.yul\":15707:15743   */\n      sstore\n        /* \"#utility.yul\":15142:15753   */\n      pop\n      pop\n      pop\n        /* \"#utility.yul\":15105:15992   */\n    tag_268:\n      pop\n        /* \"#utility.yul\":14695:15998   */\n      pop\n      pop\n      pop\n        /* \"#utility.yul\":14603:15998   */\n      pop\n      pop\n      jump\t// out\n\n    auxdata: 0xa2646970667358221220725758ea54910a4a0b0b17d9bb78ed038fd824d2c781b29938364968b61cfa7864736f6c63430008120033\n}\n",
				"bytecode": {
					"linkReferences": {},
					"object": "608060405234801561001057600080fd5b50610d6f806100206000396000f3fe608060405234801561001057600080fd5b506004361061004c5760003560e01c806353ed5143146100515780635470b13b1461006f57806392b935831461009f578063b93f9b0a146100bb575b600080fd5b6100596100eb565b60405161006691906106ce565b60405180910390f35b61008960048036038101906100849190610730565b61023c565b60405161009691906107ad565b60405180910390f35b6100b960048036038101906100b49190610930565b610376565b005b6100d560048036038101906100d09190610730565b610440565b6040516100e291906109ae565b60405180910390f35b60606003805480602002602001604051908101604052809291908181526020016000905b828210156102335783829060005260206000209060030201604051806060016040529081600082018054610142906109f8565b80601f016020809104026020016040519081016040528092919081815260200182805461016e906109f8565b80156101bb5780601f10610190576101008083540402835291602001916101bb565b820191906000526020600020905b81548152906001019060200180831161019e57829003601f168201915b50505050508152602001600182015481526020016002820160009054906101000a900473ffffffffffffffffffffffffffffffffffffffff1673ffffffffffffffffffffffffffffffffffffffff1673ffffffffffffffffffffffffffffffffffffffff16815250508152602001906001019061010f565b50505050905090565b61024461049b565b60036001836102539190610a58565b8154811061026457610263610a8c565b5b906000526020600020906003020160405180606001604052908160008201805461028d906109f8565b80601f01602080910402602001604051908101604052809291908181526020018280546102b9906109f8565b80156103065780601f106102db57610100808354040283529160200191610306565b820191906000526020600020905b8154815290600101906020018083116102e957829003601f168201915b50505050508152602001600182015481526020016002820160009054906101000a900473ffffffffffffffffffffffffffffffffffffffff1673ffffffffffffffffffffffffffffffffffffffff1673ffffffffffffffffffffffffffffffffffffffff16815250509050919050565b600360405180606001604052808581526020018481526020018373ffffffffffffffffffffffffffffffffffffffff16815250908060018154018082558091505060019003906000526020600020906003020160009091909190915060008201518160000190816103e79190610c67565b506020820151816001015560408201518160020160006101000a81548173ffffffffffffffffffffffffffffffffffffffff021916908373ffffffffffffffffffffffffffffffffffffffff1602179055505050505050565b600060036001836104519190610a58565b8154811061046257610461610a8c565b5b906000526020600020906003020160020160009054906101000a900473ffffffffffffffffffffffffffffffffffffffff169050919050565b60405180606001604052806060815260200160008152602001600073ffffffffffffffffffffffffffffffffffffffff1681525090565b600081519050919050565b600082825260208201905092915050565b6000819050602082019050919050565b600081519050919050565b600082825260208201905092915050565b60005b8381101561053857808201518184015260208101905061051d565b60008484015250505050565b6000601f19601f8301169050919050565b6000610560826104fe565b61056a8185610509565b935061057a81856020860161051a565b61058381610544565b840191505092915050565b6000819050919050565b6105a18161058e565b82525050565b600073ffffffffffffffffffffffffffffffffffffffff82169050919050565b60006105d2826105a7565b9050919050565b6105e2816105c7565b82525050565b600060608301600083015184820360008601526106058282610555565b915050602083015161061a6020860182610598565b50604083015161062d60408601826105d9565b508091505092915050565b600061064483836105e8565b905092915050565b6000602082019050919050565b6000610664826104d2565b61066e81856104dd565b935083602082028501610680856104ee565b8060005b858110156106bc578484038952815161069d8582610638565b94506106a88361064c565b925060208a01995050600181019050610684565b50829750879550505050505092915050565b600060208201905081810360008301526106e88184610659565b905092915050565b6000604051905090565b600080fd5b600080fd5b61070d8161058e565b811461071857600080fd5b50565b60008135905061072a81610704565b92915050565b600060208284031215610746576107456106fa565b5b60006107548482850161071b565b91505092915050565b6000606083016000830151848203600086015261077a8282610555565b915050602083015161078f6020860182610598565b5060408301516107a260408601826105d9565b508091505092915050565b600060208201905081810360008301526107c7818461075d565b905092915050565b600080fd5b600080fd5b7f4e487b7100000000000000000000000000000000000000000000000000000000600052604160045260246000fd5b61081182610544565b810181811067ffffffffffffffff821117156108305761082f6107d9565b5b80604052505050565b60006108436106f0565b905061084f8282610808565b919050565b600067ffffffffffffffff82111561086f5761086e6107d9565b5b61087882610544565b9050602081019050919050565b82818337600083830152505050565b60006108a76108a284610854565b610839565b9050828152602081018484840111156108c3576108c26107d4565b5b6108ce848285610885565b509392505050565b600082601f8301126108eb576108ea6107cf565b5b81356108fb848260208601610894565b91505092915050565b61090d816105c7565b811461091857600080fd5b50565b60008135905061092a81610904565b92915050565b600080600060608486031215610949576109486106fa565b5b600084013567ffffffffffffffff811115610967576109666106ff565b5b610973868287016108d6565b93505060206109848682870161071b565b92505060406109958682870161091b565b9150509250925092565b6109a8816105c7565b82525050565b60006020820190506109c3600083018461099f565b92915050565b7f4e487b7100000000000000000000000000000000000000000000000000000000600052602260045260246000fd5b60006002820490506001821680610a1057607f821691505b602082108103610a2357610a226109c9565b5b50919050565b7f4e487b7100000000000000000000000000000000000000000000000000000000600052601160045260246000fd5b6000610a638261058e565b9150610a6e8361058e565b9250828203905081811115610a8657610a85610a29565b5b92915050565b7f4e487b7100000000000000000000000000000000000000000000000000000000600052603260045260246000fd5b60008190508160005260206000209050919050565b60006020601f8301049050919050565b600082821b905092915050565b600060088302610b1d7fffffffffffffffffffffffffffffffffffffffffffffffffffffffffffffffff82610ae0565b610b278683610ae0565b95508019841693508086168417925050509392505050565b6000819050919050565b6000610b64610b5f610b5a8461058e565b610b3f565b61058e565b9050919050565b6000819050919050565b610b7e83610b49565b610b92610b8a82610b6b565b848454610aed565b825550505050565b600090565b610ba7610b9a565b610bb2818484610b75565b505050565b5b81811015610bd657610bcb600082610b9f565b600181019050610bb8565b5050565b601f821115610c1b57610bec81610abb565b610bf584610ad0565b81016020851015610c04578190505b610c18610c1085610ad0565b830182610bb7565b50505b505050565b600082821c905092915050565b6000610c3e60001984600802610c20565b1980831691505092915050565b6000610c578383610c2d565b9150826002028217905092915050565b610c70826104fe565b67ffffffffffffffff811115610c8957610c886107d9565b5b610c9382546109f8565b610c9e828285610bda565b600060209050601f831160018114610cd15760008415610cbf578287015190505b610cc98582610c4b565b865550610d31565b601f198416610cdf86610abb565b60005b82811015610d0757848901518255600182019150602085019450602081019050610ce2565b86831015610d245784890151610d20601f891682610c2d565b8355505b6001600288020188555050505b50505050505056fea2646970667358221220725758ea54910a4a0b0b17d9bb78ed038fd824d2c781b29938364968b61cfa7864736f6c63430008120033",
					"opcodes": "PUSH1 0x80 PUSH1 0x40 MSTORE CALLVALUE DUP1 ISZERO PUSH2 0x10 JUMPI PUSH1 0x0 DUP1 REVERT JUMPDEST POP PUSH2 0xD6F DUP1 PUSH2 0x20 PUSH1 0x0 CODECOPY PUSH1 0x0 RETURN INVALID PUSH1 0x80 PUSH1 0x40 MSTORE CALLVALUE DUP1 ISZERO PUSH2 0x10 JUMPI PUSH1 0x0 DUP1 REVERT JUMPDEST POP PUSH1 0x4 CALLDATASIZE LT PUSH2 0x4C JUMPI PUSH1 0x0 CALLDATALOAD PUSH1 0xE0 SHR DUP1 PUSH4 0x53ED5143 EQ PUSH2 0x51 JUMPI DUP1 PUSH4 0x5470B13B EQ PUSH2 0x6F JUMPI DUP1 PUSH4 0x92B93583 EQ PUSH2 0x9F JUMPI DUP1 PUSH4 0xB93F9B0A EQ PUSH2 0xBB JUMPI JUMPDEST PUSH1 0x0 DUP1 REVERT JUMPDEST PUSH2 0x59 PUSH2 0xEB JUMP JUMPDEST PUSH1 0x40 MLOAD PUSH2 0x66 SWAP2 SWAP1 PUSH2 0x6CE JUMP JUMPDEST PUSH1 0x40 MLOAD DUP1 SWAP2 SUB SWAP1 RETURN JUMPDEST PUSH2 0x89 PUSH1 0x4 DUP1 CALLDATASIZE SUB DUP2 ADD SWAP1 PUSH2 0x84 SWAP2 SWAP1 PUSH2 0x730 JUMP JUMPDEST PUSH2 0x23C JUMP JUMPDEST PUSH1 0x40 MLOAD PUSH2 0x96 SWAP2 SWAP1 PUSH2 0x7AD JUMP JUMPDEST PUSH1 0x40 MLOAD DUP1 SWAP2 SUB SWAP1 RETURN JUMPDEST PUSH2 0xB9 PUSH1 0x4 DUP1 CALLDATASIZE SUB DUP2 ADD SWAP1 PUSH2 0xB4 SWAP2 SWAP1 PUSH2 0x930 JUMP JUMPDEST PUSH2 0x376 JUMP JUMPDEST STOP JUMPDEST PUSH2 0xD5 PUSH1 0x4 DUP1 CALLDATASIZE SUB DUP2 ADD SWAP1 PUSH2 0xD0 SWAP2 SWAP1 PUSH2 0x730 JUMP JUMPDEST PUSH2 0x440 JUMP JUMPDEST PUSH1 0x40 MLOAD PUSH2 0xE2 SWAP2 SWAP1 PUSH2 0x9AE JUMP JUMPDEST PUSH1 0x40 MLOAD DUP1 SWAP2 SUB SWAP1 RETURN JUMPDEST PUSH1 0x60 PUSH1 0x3 DUP1 SLOAD DUP1 PUSH1 0x20 MUL PUSH1 0x20 ADD PUSH1 0x40 MLOAD SWAP1 DUP2 ADD PUSH1 0x40 MSTORE DUP1 SWAP3 SWAP2 SWAP1 DUP2 DUP2 MSTORE PUSH1 0x20 ADD PUSH1 0x0 SWAP1 JUMPDEST DUP3 DUP3 LT ISZERO PUSH2 0x233 JUMPI DUP4 DUP3 SWAP1 PUSH1 0x0 MSTORE PUSH1 0x20 PUSH1 0x0 KECCAK256 SWAP1 PUSH1 0x3 MUL ADD PUSH1 0x40 MLOAD DUP1 PUSH1 0x60 ADD PUSH1 0x40 MSTORE SWAP1 DUP2 PUSH1 0x0 DUP3 ADD DUP1 SLOAD PUSH2 0x142 SWAP1 PUSH2 0x9F8 JUMP JUMPDEST DUP1 PUSH1 0x1F ADD PUSH1 0x20 DUP1 SWAP2 DIV MUL PUSH1 0x20 ADD PUSH1 0x40 MLOAD SWAP1 DUP2 ADD PUSH1 0x40 MSTORE DUP1 SWAP3 SWAP2 SWAP1 DUP2 DUP2 MSTORE PUSH1 0x20 ADD DUP3 DUP1 SLOAD PUSH2 0x16E SWAP1 PUSH2 0x9F8 JUMP JUMPDEST DUP1 ISZERO PUSH2 0x1BB JUMPI DUP1 PUSH1 0x1F LT PUSH2 0x190 JUMPI PUSH2 0x100 DUP1 DUP4 SLOAD DIV MUL DUP4 MSTORE SWAP2 PUSH1 0x20 ADD SWAP2 PUSH2 0x1BB JUMP JUMPDEST DUP3 ADD SWAP2 SWAP1 PUSH1 0x0 MSTORE PUSH1 0x20 PUSH1 0x0 KECCAK256 SWAP1 JUMPDEST DUP2 SLOAD DUP2 MSTORE SWAP1 PUSH1 0x1 ADD SWAP1 PUSH1 0x20 ADD DUP1 DUP4 GT PUSH2 0x19E JUMPI DUP3 SWAP1 SUB PUSH1 0x1F AND DUP3 ADD SWAP2 JUMPDEST POP POP POP POP POP DUP2 MSTORE PUSH1 0x20 ADD PUSH1 0x1 DUP3 ADD SLOAD DUP2 MSTORE PUSH1 0x20 ADD PUSH1 0x2 DUP3 ADD PUSH1 0x0 SWAP1 SLOAD SWAP1 PUSH2 0x100 EXP SWAP1 DIV PUSH20 0xFFFFFFFFFFFFFFFFFFFFFFFFFFFFFFFFFFFFFFFF AND PUSH20 0xFFFFFFFFFFFFFFFFFFFFFFFFFFFFFFFFFFFFFFFF AND PUSH20 0xFFFFFFFFFFFFFFFFFFFFFFFFFFFFFFFFFFFFFFFF AND DUP2 MSTORE POP POP DUP2 MSTORE PUSH1 0x20 ADD SWAP1 PUSH1 0x1 ADD SWAP1 PUSH2 0x10F JUMP JUMPDEST POP POP POP POP SWAP1 POP SWAP1 JUMP JUMPDEST PUSH2 0x244 PUSH2 0x49B JUMP JUMPDEST PUSH1 0x3 PUSH1 0x1 DUP4 PUSH2 0x253 SWAP2 SWAP1 PUSH2 0xA58 JUMP JUMPDEST DUP2 SLOAD DUP2 LT PUSH2 0x264 JUMPI PUSH2 0x263 PUSH2 0xA8C JUMP JUMPDEST JUMPDEST SWAP1 PUSH1 0x0 MSTORE PUSH1 0x20 PUSH1 0x0 KECCAK256 SWAP1 PUSH1 0x3 MUL ADD PUSH1 0x40 MLOAD DUP1 PUSH1 0x60 ADD PUSH1 0x40 MSTORE SWAP1 DUP2 PUSH1 0x0 DUP3 ADD DUP1 SLOAD PUSH2 0x28D SWAP1 PUSH2 0x9F8 JUMP JUMPDEST DUP1 PUSH1 0x1F ADD PUSH1 0x20 DUP1 SWAP2 DIV MUL PUSH1 0x20 ADD PUSH1 0x40 MLOAD SWAP1 DUP2 ADD PUSH1 0x40 MSTORE DUP1 SWAP3 SWAP2 SWAP1 DUP2 DUP2 MSTORE PUSH1 0x20 ADD DUP3 DUP1 SLOAD PUSH2 0x2B9 SWAP1 PUSH2 0x9F8 JUMP JUMPDEST DUP1 ISZERO PUSH2 0x306 JUMPI DUP1 PUSH1 0x1F LT PUSH2 0x2DB JUMPI PUSH2 0x100 DUP1 DUP4 SLOAD DIV MUL DUP4 MSTORE SWAP2 PUSH1 0x20 ADD SWAP2 PUSH2 0x306 JUMP JUMPDEST DUP3 ADD SWAP2 SWAP1 PUSH1 0x0 MSTORE PUSH1 0x20 PUSH1 0x0 KECCAK256 SWAP1 JUMPDEST DUP2 SLOAD DUP2 MSTORE SWAP1 PUSH1 0x1 ADD SWAP1 PUSH1 0x20 ADD DUP1 DUP4 GT PUSH2 0x2E9 JUMPI DUP3 SWAP1 SUB PUSH1 0x1F AND DUP3 ADD SWAP2 JUMPDEST POP POP POP POP POP DUP2 MSTORE PUSH1 0x20 ADD PUSH1 0x1 DUP3 ADD SLOAD DUP2 MSTORE PUSH1 0x20 ADD PUSH1 0x2 DUP3 ADD PUSH1 0x0 SWAP1 SLOAD SWAP1 PUSH2 0x100 EXP SWAP1 DIV PUSH20 0xFFFFFFFFFFFFFFFFFFFFFFFFFFFFFFFFFFFFFFFF AND PUSH20 0xFFFFFFFFFFFFFFFFFFFFFFFFFFFFFFFFFFFFFFFF AND PUSH20 0xFFFFFFFFFFFFFFFFFFFFFFFFFFFFFFFFFFFFFFFF AND DUP2 MSTORE POP POP SWAP1 POP SWAP2 SWAP1 POP JUMP JUMPDEST PUSH1 0x3 PUSH1 0x40 MLOAD DUP1 PUSH1 0x60 ADD PUSH1 0x40 MSTORE DUP1 DUP6 DUP2 MSTORE PUSH1 0x20 ADD DUP5 DUP2 MSTORE PUSH1 0x20 ADD DUP4 PUSH20 0xFFFFFFFFFFFFFFFFFFFFFFFFFFFFFFFFFFFFFFFF AND DUP2 MSTORE POP SWAP1 DUP1 PUSH1 0x1 DUP2 SLOAD ADD DUP1 DUP3 SSTORE DUP1 SWAP2 POP POP PUSH1 0x1 SWAP1 SUB SWAP1 PUSH1 0x0 MSTORE PUSH1 0x20 PUSH1 0x0 KECCAK256 SWAP1 PUSH1 0x3 MUL ADD PUSH1 0x0 SWAP1 SWAP2 SWAP1 SWAP2 SWAP1 SWAP2 POP PUSH1 0x0 DUP3 ADD MLOAD DUP2 PUSH1 0x0 ADD SWAP1 DUP2 PUSH2 0x3E7 SWAP2 SWAP1 PUSH2 0xC67 JUMP JUMPDEST POP PUSH1 0x20 DUP3 ADD MLOAD DUP2 PUSH1 0x1 ADD SSTORE PUSH1 0x40 DUP3 ADD MLOAD DUP2 PUSH1 0x2 ADD PUSH1 0x0 PUSH2 0x100 EXP DUP2 SLOAD DUP2 PUSH20 0xFFFFFFFFFFFFFFFFFFFFFFFFFFFFFFFFFFFFFFFF MUL NOT AND SWAP1 DUP4 PUSH20 0xFFFFFFFFFFFFFFFFFFFFFFFFFFFFFFFFFFFFFFFF AND MUL OR SWAP1 SSTORE POP POP POP POP POP POP JUMP JUMPDEST PUSH1 0x0 PUSH1 0x3 PUSH1 0x1 DUP4 PUSH2 0x451 SWAP2 SWAP1 PUSH2 0xA58 JUMP JUMPDEST DUP2 SLOAD DUP2 LT PUSH2 0x462 JUMPI PUSH2 0x461 PUSH2 0xA8C JUMP JUMPDEST JUMPDEST SWAP1 PUSH1 0x0 MSTORE PUSH1 0x20 PUSH1 0x0 KECCAK256 SWAP1 PUSH1 0x3 MUL ADD PUSH1 0x2 ADD PUSH1 0x0 SWAP1 SLOAD SWAP1 PUSH2 0x100 EXP SWAP1 DIV PUSH20 0xFFFFFFFFFFFFFFFFFFFFFFFFFFFFFFFFFFFFFFFF AND SWAP1 POP SWAP2 SWAP1 POP JUMP JUMPDEST PUSH1 0x40 MLOAD DUP1 PUSH1 0x60 ADD PUSH1 0x40 MSTORE DUP1 PUSH1 0x60 DUP2 MSTORE PUSH1 0x20 ADD PUSH1 0x0 DUP2 MSTORE PUSH1 0x20 ADD PUSH1 0x0 PUSH20 0xFFFFFFFFFFFFFFFFFFFFFFFFFFFFFFFFFFFFFFFF AND DUP2 MSTORE POP SWAP1 JUMP JUMPDEST PUSH1 0x0 DUP2 MLOAD SWAP1 POP SWAP2 SWAP1 POP JUMP JUMPDEST PUSH1 0x0 DUP3 DUP3 MSTORE PUSH1 0x20 DUP3 ADD SWAP1 POP SWAP3 SWAP2 POP POP JUMP JUMPDEST PUSH1 0x0 DUP2 SWAP1 POP PUSH1 0x20 DUP3 ADD SWAP1 POP SWAP2 SWAP1 POP JUMP JUMPDEST PUSH1 0x0 DUP2 MLOAD SWAP1 POP SWAP2 SWAP1 POP JUMP JUMPDEST PUSH1 0x0 DUP3 DUP3 MSTORE PUSH1 0x20 DUP3 ADD SWAP1 POP SWAP3 SWAP2 POP POP JUMP JUMPDEST PUSH1 0x0 JUMPDEST DUP4 DUP2 LT ISZERO PUSH2 0x538 JUMPI DUP1 DUP3 ADD MLOAD DUP2 DUP5 ADD MSTORE PUSH1 0x20 DUP2 ADD SWAP1 POP PUSH2 0x51D JUMP JUMPDEST PUSH1 0x0 DUP5 DUP5 ADD MSTORE POP POP POP POP JUMP JUMPDEST PUSH1 0x0 PUSH1 0x1F NOT PUSH1 0x1F DUP4 ADD AND SWAP1 POP SWAP2 SWAP1 POP JUMP JUMPDEST PUSH1 0x0 PUSH2 0x560 DUP3 PUSH2 0x4FE JUMP JUMPDEST PUSH2 0x56A DUP2 DUP6 PUSH2 0x509 JUMP JUMPDEST SWAP4 POP PUSH2 0x57A DUP2 DUP6 PUSH1 0x20 DUP7 ADD PUSH2 0x51A JUMP JUMPDEST PUSH2 0x583 DUP2 PUSH2 0x544 JUMP JUMPDEST DUP5 ADD SWAP2 POP POP SWAP3 SWAP2 POP POP JUMP JUMPDEST PUSH1 0x0 DUP2 SWAP1 POP SWAP2 SWAP1 POP JUMP JUMPDEST PUSH2 0x5A1 DUP2 PUSH2 0x58E JUMP JUMPDEST DUP3 MSTORE POP POP JUMP JUMPDEST PUSH1 0x0 PUSH20 0xFFFFFFFFFFFFFFFFFFFFFFFFFFFFFFFFFFFFFFFF DUP3 AND SWAP1 POP SWAP2 SWAP1 POP JUMP JUMPDEST PUSH1 0x0 PUSH2 0x5D2 DUP3 PUSH2 0x5A7 JUMP JUMPDEST SWAP1 POP SWAP2 SWAP1 POP JUMP JUMPDEST PUSH2 0x5E2 DUP2 PUSH2 0x5C7 JUMP JUMPDEST DUP3 MSTORE POP POP JUMP JUMPDEST PUSH1 0x0 PUSH1 0x60 DUP4 ADD PUSH1 0x0 DUP4 ADD MLOAD DUP5 DUP3 SUB PUSH1 0x0 DUP7 ADD MSTORE PUSH2 0x605 DUP3 DUP3 PUSH2 0x555 JUMP JUMPDEST SWAP2 POP POP PUSH1 0x20 DUP4 ADD MLOAD PUSH2 0x61A PUSH1 0x20 DUP7 ADD DUP3 PUSH2 0x598 JUMP JUMPDEST POP PUSH1 0x40 DUP4 ADD MLOAD PUSH2 0x62D PUSH1 0x40 DUP7 ADD DUP3 PUSH2 0x5D9 JUMP JUMPDEST POP DUP1 SWAP2 POP POP SWAP3 SWAP2 POP POP JUMP JUMPDEST PUSH1 0x0 PUSH2 0x644 DUP4 DUP4 PUSH2 0x5E8 JUMP JUMPDEST SWAP1 POP SWAP3 SWAP2 POP POP JUMP JUMPDEST PUSH1 0x0 PUSH1 0x20 DUP3 ADD SWAP1 POP SWAP2 SWAP1 POP JUMP JUMPDEST PUSH1 0x0 PUSH2 0x664 DUP3 PUSH2 0x4D2 JUMP JUMPDEST PUSH2 0x66E DUP2 DUP6 PUSH2 0x4DD JUMP JUMPDEST SWAP4 POP DUP4 PUSH1 0x20 DUP3 MUL DUP6 ADD PUSH2 0x680 DUP6 PUSH2 0x4EE JUMP JUMPDEST DUP1 PUSH1 0x0 JUMPDEST DUP6 DUP2 LT ISZERO PUSH2 0x6BC JUMPI DUP5 DUP5 SUB DUP10 MSTORE DUP2 MLOAD PUSH2 0x69D DUP6 DUP3 PUSH2 0x638 JUMP JUMPDEST SWAP5 POP PUSH2 0x6A8 DUP4 PUSH2 0x64C JUMP JUMPDEST SWAP3 POP PUSH1 0x20 DUP11 ADD SWAP10 POP POP PUSH1 0x1 DUP2 ADD SWAP1 POP PUSH2 0x684 JUMP JUMPDEST POP DUP3 SWAP8 POP DUP8 SWAP6 POP POP POP POP POP POP SWAP3 SWAP2 POP POP JUMP JUMPDEST PUSH1 0x0 PUSH1 0x20 DUP3 ADD SWAP1 POP DUP2 DUP2 SUB PUSH1 0x0 DUP4 ADD MSTORE PUSH2 0x6E8 DUP2 DUP5 PUSH2 0x659 JUMP JUMPDEST SWAP1 POP SWAP3 SWAP2 POP POP JUMP JUMPDEST PUSH1 0x0 PUSH1 0x40 MLOAD SWAP1 POP SWAP1 JUMP JUMPDEST PUSH1 0x0 DUP1 REVERT JUMPDEST PUSH1 0x0 DUP1 REVERT JUMPDEST PUSH2 0x70D DUP2 PUSH2 0x58E JUMP JUMPDEST DUP2 EQ PUSH2 0x718 JUMPI PUSH1 0x0 DUP1 REVERT JUMPDEST POP JUMP JUMPDEST PUSH1 0x0 DUP2 CALLDATALOAD SWAP1 POP PUSH2 0x72A DUP2 PUSH2 0x704 JUMP JUMPDEST SWAP3 SWAP2 POP POP JUMP JUMPDEST PUSH1 0x0 PUSH1 0x20 DUP3 DUP5 SUB SLT ISZERO PUSH2 0x746 JUMPI PUSH2 0x745 PUSH2 0x6FA JUMP JUMPDEST JUMPDEST PUSH1 0x0 PUSH2 0x754 DUP5 DUP3 DUP6 ADD PUSH2 0x71B JUMP JUMPDEST SWAP2 POP POP SWAP3 SWAP2 POP POP JUMP JUMPDEST PUSH1 0x0 PUSH1 0x60 DUP4 ADD PUSH1 0x0 DUP4 ADD MLOAD DUP5 DUP3 SUB PUSH1 0x0 DUP7 ADD MSTORE PUSH2 0x77A DUP3 DUP3 PUSH2 0x555 JUMP JUMPDEST SWAP2 POP POP PUSH1 0x20 DUP4 ADD MLOAD PUSH2 0x78F PUSH1 0x20 DUP7 ADD DUP3 PUSH2 0x598 JUMP JUMPDEST POP PUSH1 0x40 DUP4 ADD MLOAD PUSH2 0x7A2 PUSH1 0x40 DUP7 ADD DUP3 PUSH2 0x5D9 JUMP JUMPDEST POP DUP1 SWAP2 POP POP SWAP3 SWAP2 POP POP JUMP JUMPDEST PUSH1 0x0 PUSH1 0x20 DUP3 ADD SWAP1 POP DUP2 DUP2 SUB PUSH1 0x0 DUP4 ADD MSTORE PUSH2 0x7C7 DUP2 DUP5 PUSH2 0x75D JUMP JUMPDEST SWAP1 POP SWAP3 SWAP2 POP POP JUMP JUMPDEST PUSH1 0x0 DUP1 REVERT JUMPDEST PUSH1 0x0 DUP1 REVERT JUMPDEST PUSH32 0x4E487B7100000000000000000000000000000000000000000000000000000000 PUSH1 0x0 MSTORE PUSH1 0x41 PUSH1 0x4 MSTORE PUSH1 0x24 PUSH1 0x0 REVERT JUMPDEST PUSH2 0x811 DUP3 PUSH2 0x544 JUMP JUMPDEST DUP2 ADD DUP2 DUP2 LT PUSH8 0xFFFFFFFFFFFFFFFF DUP3 GT OR ISZERO PUSH2 0x830 JUMPI PUSH2 0x82F PUSH2 0x7D9 JUMP JUMPDEST JUMPDEST DUP1 PUSH1 0x40 MSTORE POP POP POP JUMP JUMPDEST PUSH1 0x0 PUSH2 0x843 PUSH2 0x6F0 JUMP JUMPDEST SWAP1 POP PUSH2 0x84F DUP3 DUP3 PUSH2 0x808 JUMP JUMPDEST SWAP2 SWAP1 POP JUMP JUMPDEST PUSH1 0x0 PUSH8 0xFFFFFFFFFFFFFFFF DUP3 GT ISZERO PUSH2 0x86F JUMPI PUSH2 0x86E PUSH2 0x7D9 JUMP JUMPDEST JUMPDEST PUSH2 0x878 DUP3 PUSH2 0x544 JUMP JUMPDEST SWAP1 POP PUSH1 0x20 DUP2 ADD SWAP1 POP SWAP2 SWAP1 POP JUMP JUMPDEST DUP3 DUP2 DUP4 CALLDATACOPY PUSH1 0x0 DUP4 DUP4 ADD MSTORE POP POP POP JUMP JUMPDEST PUSH1 0x0 PUSH2 0x8A7 PUSH2 0x8A2 DUP5 PUSH2 0x854 JUMP JUMPDEST PUSH2 0x839 JUMP JUMPDEST SWAP1 POP DUP3 DUP2 MSTORE PUSH1 0x20 DUP2 ADD DUP5 DUP5 DUP5 ADD GT ISZERO PUSH2 0x8C3 JUMPI PUSH2 0x8C2 PUSH2 0x7D4 JUMP JUMPDEST JUMPDEST PUSH2 0x8CE DUP5 DUP3 DUP6 PUSH2 0x885 JUMP JUMPDEST POP SWAP4 SWAP3 POP POP POP JUMP JUMPDEST PUSH1 0x0 DUP3 PUSH1 0x1F DUP4 ADD SLT PUSH2 0x8EB JUMPI PUSH2 0x8EA PUSH2 0x7CF JUMP JUMPDEST JUMPDEST DUP2 CALLDATALOAD PUSH2 0x8FB DUP5 DUP3 PUSH1 0x20 DUP7 ADD PUSH2 0x894 JUMP JUMPDEST SWAP2 POP POP SWAP3 SWAP2 POP POP JUMP JUMPDEST PUSH2 0x90D DUP2 PUSH2 0x5C7 JUMP JUMPDEST DUP2 EQ PUSH2 0x918 JUMPI PUSH1 0x0 DUP1 REVERT JUMPDEST POP JUMP JUMPDEST PUSH1 0x0 DUP2 CALLDATALOAD SWAP1 POP PUSH2 0x92A DUP2 PUSH2 0x904 JUMP JUMPDEST SWAP3 SWAP2 POP POP JUMP JUMPDEST PUSH1 0x0 DUP1 PUSH1 0x0 PUSH1 0x60 DUP5 DUP7 SUB SLT ISZERO PUSH2 0x949 JUMPI PUSH2 0x948 PUSH2 0x6FA JUMP JUMPDEST JUMPDEST PUSH1 0x0 DUP5 ADD CALLDATALOAD PUSH8 0xFFFFFFFFFFFFFFFF DUP2 GT ISZERO PUSH2 0x967 JUMPI PUSH2 0x966 PUSH2 0x6FF JUMP JUMPDEST JUMPDEST PUSH2 0x973 DUP7 DUP3 DUP8 ADD PUSH2 0x8D6 JUMP JUMPDEST SWAP4 POP POP PUSH1 0x20 PUSH2 0x984 DUP7 DUP3 DUP8 ADD PUSH2 0x71B JUMP JUMPDEST SWAP3 POP POP PUSH1 0x40 PUSH2 0x995 DUP7 DUP3 DUP8 ADD PUSH2 0x91B JUMP JUMPDEST SWAP2 POP POP SWAP3 POP SWAP3 POP SWAP3 JUMP JUMPDEST PUSH2 0x9A8 DUP2 PUSH2 0x5C7 JUMP JUMPDEST DUP3 MSTORE POP POP JUMP JUMPDEST PUSH1 0x0 PUSH1 0x20 DUP3 ADD SWAP1 POP PUSH2 0x9C3 PUSH1 0x0 DUP4 ADD DUP5 PUSH2 0x99F JUMP JUMPDEST SWAP3 SWAP2 POP POP JUMP JUMPDEST PUSH32 0x4E487B7100000000000000000000000000000000000000000000000000000000 PUSH1 0x0 MSTORE PUSH1 0x22 PUSH1 0x4 MSTORE PUSH1 0x24 PUSH1 0x0 REVERT JUMPDEST PUSH1 0x0 PUSH1 0x2 DUP3 DIV SWAP1 POP PUSH1 0x1 DUP3 AND DUP1 PUSH2 0xA10 JUMPI PUSH1 0x7F DUP3 AND SWAP2 POP JUMPDEST PUSH1 0x20 DUP3 LT DUP2 SUB PUSH2 0xA23 JUMPI PUSH2 0xA22 PUSH2 0x9C9 JUMP JUMPDEST JUMPDEST POP SWAP2 SWAP1 POP JUMP JUMPDEST PUSH32 0x4E487B7100000000000000000000000000000000000000000000000000000000 PUSH1 0x0 MSTORE PUSH1 0x11 PUSH1 0x4 MSTORE PUSH1 0x24 PUSH1 0x0 REVERT JUMPDEST PUSH1 0x0 PUSH2 0xA63 DUP3 PUSH2 0x58E JUMP JUMPDEST SWAP2 POP PUSH2 0xA6E DUP4 PUSH2 0x58E JUMP JUMPDEST SWAP3 POP DUP3 DUP3 SUB SWAP1 POP DUP2 DUP2 GT ISZERO PUSH2 0xA86 JUMPI PUSH2 0xA85 PUSH2 0xA29 JUMP JUMPDEST JUMPDEST SWAP3 SWAP2 POP POP JUMP JUMPDEST PUSH32 0x4E487B7100000000000000000000000000000000000000000000000000000000 PUSH1 0x0 MSTORE PUSH1 0x32 PUSH1 0x4 MSTORE PUSH1 0x24 PUSH1 0x0 REVERT JUMPDEST PUSH1 0x0 DUP2 SWAP1 POP DUP2 PUSH1 0x0 MSTORE PUSH1 0x20 PUSH1 0x0 KECCAK256 SWAP1 POP SWAP2 SWAP1 POP JUMP JUMPDEST PUSH1 0x0 PUSH1 0x20 PUSH1 0x1F DUP4 ADD DIV SWAP1 POP SWAP2 SWAP1 POP JUMP JUMPDEST PUSH1 0x0 DUP3 DUP3 SHL SWAP1 POP SWAP3 SWAP2 POP POP JUMP JUMPDEST PUSH1 0x0 PUSH1 0x8 DUP4 MUL PUSH2 0xB1D PUSH32 0xFFFFFFFFFFFFFFFFFFFFFFFFFFFFFFFFFFFFFFFFFFFFFFFFFFFFFFFFFFFFFFFF DUP3 PUSH2 0xAE0 JUMP JUMPDEST PUSH2 0xB27 DUP7 DUP4 PUSH2 0xAE0 JUMP JUMPDEST SWAP6 POP DUP1 NOT DUP5 AND SWAP4 POP DUP1 DUP7 AND DUP5 OR SWAP3 POP POP POP SWAP4 SWAP3 POP POP POP JUMP JUMPDEST PUSH1 0x0 DUP2 SWAP1 POP SWAP2 SWAP1 POP JUMP JUMPDEST PUSH1 0x0 PUSH2 0xB64 PUSH2 0xB5F PUSH2 0xB5A DUP5 PUSH2 0x58E JUMP JUMPDEST PUSH2 0xB3F JUMP JUMPDEST PUSH2 0x58E JUMP JUMPDEST SWAP1 POP SWAP2 SWAP1 POP JUMP JUMPDEST PUSH1 0x0 DUP2 SWAP1 POP SWAP2 SWAP1 POP JUMP JUMPDEST PUSH2 0xB7E DUP4 PUSH2 0xB49 JUMP JUMPDEST PUSH2 0xB92 PUSH2 0xB8A DUP3 PUSH2 0xB6B JUMP JUMPDEST DUP5 DUP5 SLOAD PUSH2 0xAED JUMP JUMPDEST DUP3 SSTORE POP POP POP POP JUMP JUMPDEST PUSH1 0x0 SWAP1 JUMP JUMPDEST PUSH2 0xBA7 PUSH2 0xB9A JUMP JUMPDEST PUSH2 0xBB2 DUP2 DUP5 DUP5 PUSH2 0xB75 JUMP JUMPDEST POP POP POP JUMP JUMPDEST JUMPDEST DUP2 DUP2 LT ISZERO PUSH2 0xBD6 JUMPI PUSH2 0xBCB PUSH1 0x0 DUP3 PUSH2 0xB9F JUMP JUMPDEST PUSH1 0x1 DUP2 ADD SWAP1 POP PUSH2 0xBB8 JUMP JUMPDEST POP POP JUMP JUMPDEST PUSH1 0x1F DUP3 GT ISZERO PUSH2 0xC1B JUMPI PUSH2 0xBEC DUP2 PUSH2 0xABB JUMP JUMPDEST PUSH2 0xBF5 DUP5 PUSH2 0xAD0 JUMP JUMPDEST DUP2 ADD PUSH1 0x20 DUP6 LT ISZERO PUSH2 0xC04 JUMPI DUP2 SWAP1 POP JUMPDEST PUSH2 0xC18 PUSH2 0xC10 DUP6 PUSH2 0xAD0 JUMP JUMPDEST DUP4 ADD DUP3 PUSH2 0xBB7 JUMP JUMPDEST POP POP JUMPDEST POP POP POP JUMP JUMPDEST PUSH1 0x0 DUP3 DUP3 SHR SWAP1 POP SWAP3 SWAP2 POP POP JUMP JUMPDEST PUSH1 0x0 PUSH2 0xC3E PUSH1 0x0 NOT DUP5 PUSH1 0x8 MUL PUSH2 0xC20 JUMP JUMPDEST NOT DUP1 DUP4 AND SWAP2 POP POP SWAP3 SWAP2 POP POP JUMP JUMPDEST PUSH1 0x0 PUSH2 0xC57 DUP4 DUP4 PUSH2 0xC2D JUMP JUMPDEST SWAP2 POP DUP3 PUSH1 0x2 MUL DUP3 OR SWAP1 POP SWAP3 SWAP2 POP POP JUMP JUMPDEST PUSH2 0xC70 DUP3 PUSH2 0x4FE JUMP JUMPDEST PUSH8 0xFFFFFFFFFFFFFFFF DUP2 GT ISZERO PUSH2 0xC89 JUMPI PUSH2 0xC88 PUSH2 0x7D9 JUMP JUMPDEST JUMPDEST PUSH2 0xC93 DUP3 SLOAD PUSH2 0x9F8 JUMP JUMPDEST PUSH2 0xC9E DUP3 DUP3 DUP6 PUSH2 0xBDA JUMP JUMPDEST PUSH1 0x0 PUSH1 0x20 SWAP1 POP PUSH1 0x1F DUP4 GT PUSH1 0x1 DUP2 EQ PUSH2 0xCD1 JUMPI PUSH1 0x0 DUP5 ISZERO PUSH2 0xCBF JUMPI DUP3 DUP8 ADD MLOAD SWAP1 POP JUMPDEST PUSH2 0xCC9 DUP6 DUP3 PUSH2 0xC4B JUMP JUMPDEST DUP7 SSTORE POP PUSH2 0xD31 JUMP JUMPDEST PUSH1 0x1F NOT DUP5 AND PUSH2 0xCDF DUP7 PUSH2 0xABB JUMP JUMPDEST PUSH1 0x0 JUMPDEST DUP3 DUP2 LT ISZERO PUSH2 0xD07 JUMPI DUP5 DUP10 ADD MLOAD DUP3 SSTORE PUSH1 0x1 DUP3 ADD SWAP2 POP PUSH1 0x20 DUP6 ADD SWAP5 POP PUSH1 0x20 DUP2 ADD SWAP1 POP PUSH2 0xCE2 JUMP JUMPDEST DUP7 DUP4 LT ISZERO PUSH2 0xD24 JUMPI DUP5 DUP10 ADD MLOAD PUSH2 0xD20 PUSH1 0x1F DUP10 AND DUP3 PUSH2 0xC2D JUMP JUMPDEST DUP4 SSTORE POP JUMPDEST PUSH1 0x1 PUSH1 0x2 DUP9 MUL ADD DUP9 SSTORE POP POP POP JUMPDEST POP POP POP POP POP POP JUMP INVALID LOG2 PUSH5 0x6970667358 0x22 SLT KECCAK256 PUSH19 0x5758EA54910A4A0B0B17D9BB78ED038FD824D2 0xC7 DUP2 0xB2 SWAP10 CODESIZE CALLDATASIZE 0x49 PUSH9 0xB61CFA7864736F6C63 NUMBER STOP ADDMOD SLT STOP CALLER "
				},
				"gasEstimates": {
					"creation": {
						"codeDepositCost": "687800",
						"executionCost": "721",
						"totalCost": "688521"
					},
					"external": {
						"getAddress(uint256)": "infinite",
						"getAll()": "infinite",
						"getWallet(uint256)": "infinite",
						"setWallet(string,uint256,address)": "infinite"
					}
				},
				"methodIdentifiers": {
					"getAddress(uint256)": "b93f9b0a",
					"getAll()": "53ed5143",
					"getWallet(uint256)": "5470b13b",
					"setWallet(string,uint256,address)": "92b93583"
				}
			},
			"storageLayout": {
				"storage": [
					{
						"astId": 5,
						"contract": "contracts-lecture/230511-1.sol:Mapping",
						"label": "a",
						"offset": 0,
						"slot": "0",
						"type": "t_mapping(t_uint256,t_uint256)"
					},
					{
						"astId": 9,
						"contract": "contracts-lecture/230511-1.sol:Mapping",
						"label": "b",
						"offset": 0,
						"slot": "1",
						"type": "t_mapping(t_string_memory_ptr,t_uint256)"
					},
					{
						"astId": 21,
						"contract": "contracts-lecture/230511-1.sol:Mapping",
						"label": "c",
						"offset": 0,
						"slot": "2",
						"type": "t_mapping(t_string_memory_ptr,t_struct(Wallet)16_storage)"
					},
					{
						"astId": 25,
						"contract": "contracts-lecture/230511-1.sol:Mapping",
						"label": "wallets",
						"offset": 0,
						"slot": "3",
						"type": "t_array(t_struct(Wallet)16_storage)dyn_storage"
					}
				],
				"types": {
					"t_address": {
						"encoding": "inplace",
						"label": "address",
						"numberOfBytes": "20"
					},
					"t_array(t_struct(Wallet)16_storage)dyn_storage": {
						"base": "t_struct(Wallet)16_storage",
						"encoding": "dynamic_array",
						"label": "struct Mapping.Wallet[]",
						"numberOfBytes": "32"
					},
					"t_mapping(t_string_memory_ptr,t_struct(Wallet)16_storage)": {
						"encoding": "mapping",
						"key": "t_string_memory_ptr",
						"label": "mapping(string => struct Mapping.Wallet)",
						"numberOfBytes": "32",
						"value": "t_struct(Wallet)16_storage"
					},
					"t_mapping(t_string_memory_ptr,t_uint256)": {
						"encoding": "mapping",
						"key": "t_string_memory_ptr",
						"label": "mapping(string => uint256)",
						"numberOfBytes": "32",
						"value": "t_uint256"
					},
					"t_mapping(t_uint256,t_uint256)": {
						"encoding": "mapping",
						"key": "t_uint256",
						"label": "mapping(uint256 => uint256)",
						"numberOfBytes": "32",
						"value": "t_uint256"
					},
					"t_string_memory_ptr": {
						"encoding": "bytes",
						"label": "string",
						"numberOfBytes": "32"
					},
					"t_string_storage": {
						"encoding": "bytes",
						"label": "string",
						"numberOfBytes": "32"
					},
					"t_struct(Wallet)16_storage": {
						"encoding": "inplace",
						"label": "struct Mapping.Wallet",
						"members": [
							{
								"astId": 11,
								"contract": "contracts-lecture/230511-1.sol:Mapping",
								"label": "name",
								"offset": 0,
								"slot": "0",
								"type": "t_string_storage"
							},
							{
								"astId": 13,
								"contract": "contracts-lecture/230511-1.sol:Mapping",
								"label": "number",
								"offset": 0,
								"slot": "1",
								"type": "t_uint256"
							},
							{
								"astId": 15,
								"contract": "contracts-lecture/230511-1.sol:Mapping",
								"label": "account",
								"offset": 0,
								"slot": "2",
								"type": "t_address"
							}
						],
						"numberOfBytes": "96"
					},
					"t_uint256": {
						"encoding": "inplace",
						"label": "uint256",
						"numberOfBytes": "32"
					}
				}
			},
			"userdoc": {
				"kind": "user",
				"methods": {},
				"version": 1
			}
		}
	}
}