{
	"contracts-lecture/230511-1.sol": {
		"fixedArray": {
			"abi": [
				{
					"inputs": [
						{
							"internalType": "uint256",
							"name": "n",
							"type": "uint256"
						},
						{
							"internalType": "uint256",
							"name": "_n",
							"type": "uint256"
						}
					],
					"name": "changeA",
					"outputs": [],
					"stateMutability": "nonpayable",
					"type": "function"
				},
				{
					"inputs": [
						{
							"internalType": "uint256",
							"name": "n",
							"type": "uint256"
						},
						{
							"internalType": "uint256",
							"name": "_n",
							"type": "uint256"
						}
					],
					"name": "changeB",
					"outputs": [],
					"stateMutability": "nonpayable",
					"type": "function"
				},
				{
					"inputs": [
						{
							"internalType": "uint256",
							"name": "_n",
							"type": "uint256"
						}
					],
					"name": "setA",
					"outputs": [],
					"stateMutability": "nonpayable",
					"type": "function"
				},
				{
					"inputs": [
						{
							"internalType": "uint256",
							"name": "_n",
							"type": "uint256"
						}
					],
					"name": "setB",
					"outputs": [],
					"stateMutability": "nonpayable",
					"type": "function"
				},
				{
					"inputs": [],
					"name": "sumA",
					"outputs": [
						{
							"internalType": "uint256",
							"name": "",
							"type": "uint256"
						}
					],
					"stateMutability": "view",
					"type": "function"
				}
			],
			"devdoc": {
				"kind": "dev",
				"methods": {},
				"version": 1
			},
			"evm": {
				"assembly": "    /* \"contracts-lecture/230511-1.sol\":775:1311  contract fixedArray {... */\n  mstore(0x40, 0x80)\n  callvalue\n  dup1\n  iszero\n  tag_1\n  jumpi\n  0x00\n  dup1\n  revert\ntag_1:\n  pop\n  dataSize(sub_0)\n  dup1\n  dataOffset(sub_0)\n  0x00\n  codecopy\n  0x00\n  return\nstop\n\nsub_0: assembly {\n        /* \"contracts-lecture/230511-1.sol\":775:1311  contract fixedArray {... */\n      mstore(0x40, 0x80)\n      callvalue\n      dup1\n      iszero\n      tag_1\n      jumpi\n      0x00\n      dup1\n      revert\n    tag_1:\n      pop\n      jumpi(tag_2, lt(calldatasize, 0x04))\n      shr(0xe0, calldataload(0x00))\n      dup1\n      0x09cdcf9b\n      eq\n      tag_3\n      jumpi\n      dup1\n      0x53ad6309\n      eq\n      tag_4\n      jumpi\n      dup1\n      0x609e7a6f\n      eq\n      tag_5\n      jumpi\n      dup1\n      0xc4391288\n      eq\n      tag_6\n      jumpi\n      dup1\n      0xee919d50\n      eq\n      tag_7\n      jumpi\n    tag_2:\n      0x00\n      dup1\n      revert\n        /* \"contracts-lecture/230511-1.sol\":996:1053  function setB(uint _n) public {... */\n    tag_3:\n      tag_8\n      0x04\n      dup1\n      calldatasize\n      sub\n      dup2\n      add\n      swap1\n      tag_9\n      swap2\n      swap1\n      tag_10\n      jump\t// in\n    tag_9:\n      tag_11\n      jump\t// in\n    tag_8:\n      stop\n        /* \"contracts-lecture/230511-1.sol\":1059:1128  function changeB(uint n, uint _n) public {... */\n    tag_4:\n      tag_12\n      0x04\n      dup1\n      calldatasize\n      sub\n      dup2\n      add\n      swap1\n      tag_13\n      swap2\n      swap1\n      tag_14\n      jump\t// in\n    tag_13:\n      tag_15\n      jump\t// in\n    tag_12:\n      stop\n        /* \"contracts-lecture/230511-1.sol\":1134:1309  function sumA() public view returns(uint) {... */\n    tag_5:\n      tag_16\n      tag_17\n      jump\t// in\n    tag_16:\n      mload(0x40)\n      tag_18\n      swap2\n      swap1\n      tag_19\n      jump\t// in\n    tag_18:\n      mload(0x40)\n      dup1\n      swap2\n      sub\n      swap1\n      return\n        /* \"contracts-lecture/230511-1.sol\":921:990  function changeA(uint n, uint _n) public {... */\n    tag_6:\n      tag_20\n      0x04\n      dup1\n      calldatasize\n      sub\n      dup2\n      add\n      swap1\n      tag_21\n      swap2\n      swap1\n      tag_14\n      jump\t// in\n    tag_21:\n      tag_22\n      jump\t// in\n    tag_20:\n      stop\n        /* \"contracts-lecture/230511-1.sol\":853:915  function setA(uint _n) public {... */\n    tag_7:\n      tag_23\n      0x04\n      dup1\n      calldatasize\n      sub\n      dup2\n      add\n      swap1\n      tag_24\n      swap2\n      swap1\n      tag_10\n      jump\t// in\n    tag_24:\n      tag_25\n      jump\t// in\n    tag_23:\n      stop\n        /* \"contracts-lecture/230511-1.sol\":996:1053  function setB(uint _n) public {... */\n    tag_11:\n        /* \"contracts-lecture/230511-1.sol\":1036:1037  b */\n      0x0a\n        /* \"contracts-lecture/230511-1.sol\":1043:1045  _n */\n      dup2\n        /* \"contracts-lecture/230511-1.sol\":1036:1046  b.push(_n) */\n      swap1\n      dup1\n      0x01\n      dup2\n      sload\n      add\n      dup1\n      dup3\n      sstore\n      dup1\n      swap2\n      pop\n      pop\n      0x01\n      swap1\n      sub\n      swap1\n      0x00\n      mstore\n      keccak256(0x00, 0x20)\n      add\n      0x00\n      swap1\n      swap2\n      swap1\n      swap2\n      swap1\n      swap2\n      pop\n      sstore\n        /* \"contracts-lecture/230511-1.sol\":996:1053  function setB(uint _n) public {... */\n      pop\n      jump\t// out\n        /* \"contracts-lecture/230511-1.sol\":1059:1128  function changeB(uint n, uint _n) public {... */\n    tag_15:\n        /* \"contracts-lecture/230511-1.sol\":1119:1121  _n */\n      dup1\n        /* \"contracts-lecture/230511-1.sol\":1110:1111  b */\n      0x0a\n        /* \"contracts-lecture/230511-1.sol\":1114:1115  1 */\n      0x01\n        /* \"contracts-lecture/230511-1.sol\":1112:1113  n */\n      dup5\n        /* \"contracts-lecture/230511-1.sol\":1112:1115  n-1 */\n      tag_29\n      swap2\n      swap1\n      tag_30\n      jump\t// in\n    tag_29:\n        /* \"contracts-lecture/230511-1.sol\":1110:1116  b[n-1] */\n      dup2\n      sload\n      dup2\n      lt\n      tag_31\n      jumpi\n      tag_32\n      tag_33\n      jump\t// in\n    tag_32:\n    tag_31:\n      swap1\n      0x00\n      mstore\n      keccak256(0x00, 0x20)\n      add\n        /* \"contracts-lecture/230511-1.sol\":1110:1121  b[n-1] = _n */\n      dup2\n      swap1\n      sstore\n      pop\n        /* \"contracts-lecture/230511-1.sol\":1059:1128  function changeB(uint n, uint _n) public {... */\n      pop\n      pop\n      jump\t// out\n        /* \"contracts-lecture/230511-1.sol\":1134:1309  function sumA() public view returns(uint) {... */\n    tag_17:\n        /* \"contracts-lecture/230511-1.sol\":1170:1174  uint */\n      0x00\n        /* \"contracts-lecture/230511-1.sol\":1186:1194  uint sum */\n      dup1\n        /* \"contracts-lecture/230511-1.sol\":1210:1216  uint i */\n      0x00\n        /* \"contracts-lecture/230511-1.sol\":1205:1273  for (uint i=0; i<a.length; i++) {... */\n    tag_36:\n        /* \"contracts-lecture/230511-1.sol\":1222:1230  a.length */\n      0x0a\n        /* \"contracts-lecture/230511-1.sol\":1220:1221  i */\n      dup2\n        /* \"contracts-lecture/230511-1.sol\":1220:1230  i<a.length */\n      lt\n        /* \"contracts-lecture/230511-1.sol\":1205:1273  for (uint i=0; i<a.length; i++) {... */\n      iszero\n      tag_37\n      jumpi\n        /* \"contracts-lecture/230511-1.sol\":1258:1259  a */\n      0x00\n        /* \"contracts-lecture/230511-1.sol\":1260:1261  i */\n      dup2\n        /* \"contracts-lecture/230511-1.sol\":1258:1262  a[i] */\n      0x0a\n      dup2\n      lt\n      tag_39\n      jumpi\n      tag_40\n      tag_33\n      jump\t// in\n    tag_40:\n    tag_39:\n      add\n      sload\n        /* \"contracts-lecture/230511-1.sol\":1251:1262  sum += a[i] */\n      dup3\n      tag_42\n      swap2\n      swap1\n      tag_43\n      jump\t// in\n    tag_42:\n      swap2\n      pop\n        /* \"contracts-lecture/230511-1.sol\":1232:1235  i++ */\n      dup1\n      dup1\n      tag_44\n      swap1\n      tag_45\n      jump\t// in\n    tag_44:\n      swap2\n      pop\n      pop\n        /* \"contracts-lecture/230511-1.sol\":1205:1273  for (uint i=0; i<a.length; i++) {... */\n      jump(tag_36)\n    tag_37:\n      pop\n        /* \"contracts-lecture/230511-1.sol\":1298:1301  sum */\n      dup1\n        /* \"contracts-lecture/230511-1.sol\":1291:1301  return sum */\n      swap2\n      pop\n      pop\n        /* \"contracts-lecture/230511-1.sol\":1134:1309  function sumA() public view returns(uint) {... */\n      swap1\n      jump\t// out\n        /* \"contracts-lecture/230511-1.sol\":921:990  function changeA(uint n, uint _n) public {... */\n    tag_22:\n        /* \"contracts-lecture/230511-1.sol\":981:983  _n */\n      dup1\n        /* \"contracts-lecture/230511-1.sol\":972:973  a */\n      0x00\n        /* \"contracts-lecture/230511-1.sol\":976:977  1 */\n      0x01\n        /* \"contracts-lecture/230511-1.sol\":974:975  n */\n      dup5\n        /* \"contracts-lecture/230511-1.sol\":974:977  n-1 */\n      tag_47\n      swap2\n      swap1\n      tag_30\n      jump\t// in\n    tag_47:\n        /* \"contracts-lecture/230511-1.sol\":972:978  a[n-1] */\n      0x0a\n      dup2\n      lt\n      tag_48\n      jumpi\n      tag_49\n      tag_33\n      jump\t// in\n    tag_49:\n    tag_48:\n      add\n        /* \"contracts-lecture/230511-1.sol\":972:983  a[n-1] = _n */\n      dup2\n      swap1\n      sstore\n      pop\n        /* \"contracts-lecture/230511-1.sol\":921:990  function changeA(uint n, uint _n) public {... */\n      pop\n      pop\n      jump\t// out\n        /* \"contracts-lecture/230511-1.sol\":853:915  function setA(uint _n) public {... */\n    tag_25:\n        /* \"contracts-lecture/230511-1.sol\":906:908  _n */\n      dup1\n        /* \"contracts-lecture/230511-1.sol\":893:894  a */\n      0x00\n        /* \"contracts-lecture/230511-1.sol\":895:900  count */\n      0x0b\n      0x00\n        /* \"contracts-lecture/230511-1.sol\":895:902  count++ */\n      dup2\n      sload\n      dup1\n      swap3\n      swap2\n      swap1\n      tag_52\n      swap1\n      tag_45\n      jump\t// in\n    tag_52:\n      swap2\n      swap1\n      pop\n      sstore\n        /* \"contracts-lecture/230511-1.sol\":893:903  a[count++] */\n      0x0a\n      dup2\n      lt\n      tag_53\n      jumpi\n      tag_54\n      tag_33\n      jump\t// in\n    tag_54:\n    tag_53:\n      add\n        /* \"contracts-lecture/230511-1.sol\":893:908  a[count++] = _n */\n      dup2\n      swap1\n      sstore\n      pop\n        /* \"contracts-lecture/230511-1.sol\":853:915  function setA(uint _n) public {... */\n      pop\n      jump\t// out\n        /* \"#utility.yul\":88:205   */\n    tag_57:\n        /* \"#utility.yul\":197:198   */\n      0x00\n        /* \"#utility.yul\":194:195   */\n      dup1\n        /* \"#utility.yul\":187:199   */\n      revert\n        /* \"#utility.yul\":334:411   */\n    tag_59:\n        /* \"#utility.yul\":371:378   */\n      0x00\n        /* \"#utility.yul\":400:405   */\n      dup2\n        /* \"#utility.yul\":389:405   */\n      swap1\n      pop\n        /* \"#utility.yul\":334:411   */\n      swap2\n      swap1\n      pop\n      jump\t// out\n        /* \"#utility.yul\":417:539   */\n    tag_60:\n        /* \"#utility.yul\":490:514   */\n      tag_70\n        /* \"#utility.yul\":508:513   */\n      dup2\n        /* \"#utility.yul\":490:514   */\n      tag_59\n      jump\t// in\n    tag_70:\n        /* \"#utility.yul\":483:488   */\n      dup2\n        /* \"#utility.yul\":480:515   */\n      eq\n        /* \"#utility.yul\":470:533   */\n      tag_71\n      jumpi\n        /* \"#utility.yul\":529:530   */\n      0x00\n        /* \"#utility.yul\":526:527   */\n      dup1\n        /* \"#utility.yul\":519:531   */\n      revert\n        /* \"#utility.yul\":470:533   */\n    tag_71:\n        /* \"#utility.yul\":417:539   */\n      pop\n      jump\t// out\n        /* \"#utility.yul\":545:684   */\n    tag_61:\n        /* \"#utility.yul\":591:596   */\n      0x00\n        /* \"#utility.yul\":629:635   */\n      dup2\n        /* \"#utility.yul\":616:636   */\n      calldataload\n        /* \"#utility.yul\":607:636   */\n      swap1\n      pop\n        /* \"#utility.yul\":645:678   */\n      tag_73\n        /* \"#utility.yul\":672:677   */\n      dup2\n        /* \"#utility.yul\":645:678   */\n      tag_60\n      jump\t// in\n    tag_73:\n        /* \"#utility.yul\":545:684   */\n      swap3\n      swap2\n      pop\n      pop\n      jump\t// out\n        /* \"#utility.yul\":690:1019   */\n    tag_10:\n        /* \"#utility.yul\":749:755   */\n      0x00\n        /* \"#utility.yul\":798:800   */\n      0x20\n        /* \"#utility.yul\":786:795   */\n      dup3\n        /* \"#utility.yul\":777:784   */\n      dup5\n        /* \"#utility.yul\":773:796   */\n      sub\n        /* \"#utility.yul\":769:801   */\n      slt\n        /* \"#utility.yul\":766:885   */\n      iszero\n      tag_75\n      jumpi\n        /* \"#utility.yul\":804:883   */\n      tag_76\n      tag_57\n      jump\t// in\n    tag_76:\n        /* \"#utility.yul\":766:885   */\n    tag_75:\n        /* \"#utility.yul\":924:925   */\n      0x00\n        /* \"#utility.yul\":949:1002   */\n      tag_77\n        /* \"#utility.yul\":994:1001   */\n      dup5\n        /* \"#utility.yul\":985:991   */\n      dup3\n        /* \"#utility.yul\":974:983   */\n      dup6\n        /* \"#utility.yul\":970:992   */\n      add\n        /* \"#utility.yul\":949:1002   */\n      tag_61\n      jump\t// in\n    tag_77:\n        /* \"#utility.yul\":939:1002   */\n      swap2\n      pop\n        /* \"#utility.yul\":895:1012   */\n      pop\n        /* \"#utility.yul\":690:1019   */\n      swap3\n      swap2\n      pop\n      pop\n      jump\t// out\n        /* \"#utility.yul\":1025:1499   */\n    tag_14:\n        /* \"#utility.yul\":1093:1099   */\n      0x00\n        /* \"#utility.yul\":1101:1107   */\n      dup1\n        /* \"#utility.yul\":1150:1152   */\n      0x40\n        /* \"#utility.yul\":1138:1147   */\n      dup4\n        /* \"#utility.yul\":1129:1136   */\n      dup6\n        /* \"#utility.yul\":1125:1148   */\n      sub\n        /* \"#utility.yul\":1121:1153   */\n      slt\n        /* \"#utility.yul\":1118:1237   */\n      iszero\n      tag_79\n      jumpi\n        /* \"#utility.yul\":1156:1235   */\n      tag_80\n      tag_57\n      jump\t// in\n    tag_80:\n        /* \"#utility.yul\":1118:1237   */\n    tag_79:\n        /* \"#utility.yul\":1276:1277   */\n      0x00\n        /* \"#utility.yul\":1301:1354   */\n      tag_81\n        /* \"#utility.yul\":1346:1353   */\n      dup6\n        /* \"#utility.yul\":1337:1343   */\n      dup3\n        /* \"#utility.yul\":1326:1335   */\n      dup7\n        /* \"#utility.yul\":1322:1344   */\n      add\n        /* \"#utility.yul\":1301:1354   */\n      tag_61\n      jump\t// in\n    tag_81:\n        /* \"#utility.yul\":1291:1354   */\n      swap3\n      pop\n        /* \"#utility.yul\":1247:1364   */\n      pop\n        /* \"#utility.yul\":1403:1405   */\n      0x20\n        /* \"#utility.yul\":1429:1482   */\n      tag_82\n        /* \"#utility.yul\":1474:1481   */\n      dup6\n        /* \"#utility.yul\":1465:1471   */\n      dup3\n        /* \"#utility.yul\":1454:1463   */\n      dup7\n        /* \"#utility.yul\":1450:1472   */\n      add\n        /* \"#utility.yul\":1429:1482   */\n      tag_61\n      jump\t// in\n    tag_82:\n        /* \"#utility.yul\":1419:1482   */\n      swap2\n      pop\n        /* \"#utility.yul\":1374:1492   */\n      pop\n        /* \"#utility.yul\":1025:1499   */\n      swap3\n      pop\n      swap3\n      swap1\n      pop\n      jump\t// out\n        /* \"#utility.yul\":1505:1623   */\n    tag_62:\n        /* \"#utility.yul\":1592:1616   */\n      tag_84\n        /* \"#utility.yul\":1610:1615   */\n      dup2\n        /* \"#utility.yul\":1592:1616   */\n      tag_59\n      jump\t// in\n    tag_84:\n        /* \"#utility.yul\":1587:1590   */\n      dup3\n        /* \"#utility.yul\":1580:1617   */\n      mstore\n        /* \"#utility.yul\":1505:1623   */\n      pop\n      pop\n      jump\t// out\n        /* \"#utility.yul\":1629:1851   */\n    tag_19:\n        /* \"#utility.yul\":1722:1726   */\n      0x00\n        /* \"#utility.yul\":1760:1762   */\n      0x20\n        /* \"#utility.yul\":1749:1758   */\n      dup3\n        /* \"#utility.yul\":1745:1763   */\n      add\n        /* \"#utility.yul\":1737:1763   */\n      swap1\n      pop\n        /* \"#utility.yul\":1773:1844   */\n      tag_86\n        /* \"#utility.yul\":1841:1842   */\n      0x00\n        /* \"#utility.yul\":1830:1839   */\n      dup4\n        /* \"#utility.yul\":1826:1843   */\n      add\n        /* \"#utility.yul\":1817:1823   */\n      dup5\n        /* \"#utility.yul\":1773:1844   */\n      tag_62\n      jump\t// in\n    tag_86:\n        /* \"#utility.yul\":1629:1851   */\n      swap3\n      swap2\n      pop\n      pop\n      jump\t// out\n        /* \"#utility.yul\":1857:2037   */\n    tag_63:\n        /* \"#utility.yul\":1905:1982   */\n      0x4e487b7100000000000000000000000000000000000000000000000000000000\n        /* \"#utility.yul\":1902:1903   */\n      0x00\n        /* \"#utility.yul\":1895:1983   */\n      mstore\n        /* \"#utility.yul\":2002:2006   */\n      0x11\n        /* \"#utility.yul\":1999:2000   */\n      0x04\n        /* \"#utility.yul\":1992:2007   */\n      mstore\n        /* \"#utility.yul\":2026:2030   */\n      0x24\n        /* \"#utility.yul\":2023:2024   */\n      0x00\n        /* \"#utility.yul\":2016:2031   */\n      revert\n        /* \"#utility.yul\":2043:2237   */\n    tag_30:\n        /* \"#utility.yul\":2083:2087   */\n      0x00\n        /* \"#utility.yul\":2103:2123   */\n      tag_89\n        /* \"#utility.yul\":2121:2122   */\n      dup3\n        /* \"#utility.yul\":2103:2123   */\n      tag_59\n      jump\t// in\n    tag_89:\n        /* \"#utility.yul\":2098:2123   */\n      swap2\n      pop\n        /* \"#utility.yul\":2137:2157   */\n      tag_90\n        /* \"#utility.yul\":2155:2156   */\n      dup4\n        /* \"#utility.yul\":2137:2157   */\n      tag_59\n      jump\t// in\n    tag_90:\n        /* \"#utility.yul\":2132:2157   */\n      swap3\n      pop\n        /* \"#utility.yul\":2181:2182   */\n      dup3\n        /* \"#utility.yul\":2178:2179   */\n      dup3\n        /* \"#utility.yul\":2174:2183   */\n      sub\n        /* \"#utility.yul\":2166:2183   */\n      swap1\n      pop\n        /* \"#utility.yul\":2205:2206   */\n      dup2\n        /* \"#utility.yul\":2199:2203   */\n      dup2\n        /* \"#utility.yul\":2196:2207   */\n      gt\n        /* \"#utility.yul\":2193:2230   */\n      iszero\n      tag_91\n      jumpi\n        /* \"#utility.yul\":2210:2228   */\n      tag_92\n      tag_63\n      jump\t// in\n    tag_92:\n        /* \"#utility.yul\":2193:2230   */\n    tag_91:\n        /* \"#utility.yul\":2043:2237   */\n      swap3\n      swap2\n      pop\n      pop\n      jump\t// out\n        /* \"#utility.yul\":2243:2423   */\n    tag_33:\n        /* \"#utility.yul\":2291:2368   */\n      0x4e487b7100000000000000000000000000000000000000000000000000000000\n        /* \"#utility.yul\":2288:2289   */\n      0x00\n        /* \"#utility.yul\":2281:2369   */\n      mstore\n        /* \"#utility.yul\":2388:2392   */\n      0x32\n        /* \"#utility.yul\":2385:2386   */\n      0x04\n        /* \"#utility.yul\":2378:2393   */\n      mstore\n        /* \"#utility.yul\":2412:2416   */\n      0x24\n        /* \"#utility.yul\":2409:2410   */\n      0x00\n        /* \"#utility.yul\":2402:2417   */\n      revert\n        /* \"#utility.yul\":2429:2620   */\n    tag_43:\n        /* \"#utility.yul\":2469:2472   */\n      0x00\n        /* \"#utility.yul\":2488:2508   */\n      tag_95\n        /* \"#utility.yul\":2506:2507   */\n      dup3\n        /* \"#utility.yul\":2488:2508   */\n      tag_59\n      jump\t// in\n    tag_95:\n        /* \"#utility.yul\":2483:2508   */\n      swap2\n      pop\n        /* \"#utility.yul\":2522:2542   */\n      tag_96\n        /* \"#utility.yul\":2540:2541   */\n      dup4\n        /* \"#utility.yul\":2522:2542   */\n      tag_59\n      jump\t// in\n    tag_96:\n        /* \"#utility.yul\":2517:2542   */\n      swap3\n      pop\n        /* \"#utility.yul\":2565:2566   */\n      dup3\n        /* \"#utility.yul\":2562:2563   */\n      dup3\n        /* \"#utility.yul\":2558:2567   */\n      add\n        /* \"#utility.yul\":2551:2567   */\n      swap1\n      pop\n        /* \"#utility.yul\":2586:2589   */\n      dup1\n        /* \"#utility.yul\":2583:2584   */\n      dup3\n        /* \"#utility.yul\":2580:2590   */\n      gt\n        /* \"#utility.yul\":2577:2613   */\n      iszero\n      tag_97\n      jumpi\n        /* \"#utility.yul\":2593:2611   */\n      tag_98\n      tag_63\n      jump\t// in\n    tag_98:\n        /* \"#utility.yul\":2577:2613   */\n    tag_97:\n        /* \"#utility.yul\":2429:2620   */\n      swap3\n      swap2\n      pop\n      pop\n      jump\t// out\n        /* \"#utility.yul\":2626:2859   */\n    tag_45:\n        /* \"#utility.yul\":2665:2668   */\n      0x00\n        /* \"#utility.yul\":2688:2712   */\n      tag_100\n        /* \"#utility.yul\":2706:2711   */\n      dup3\n        /* \"#utility.yul\":2688:2712   */\n      tag_59\n      jump\t// in\n    tag_100:\n        /* \"#utility.yul\":2679:2712   */\n      swap2\n      pop\n        /* \"#utility.yul\":2734:2800   */\n      0xffffffffffffffffffffffffffffffffffffffffffffffffffffffffffffffff\n        /* \"#utility.yul\":2727:2732   */\n      dup3\n        /* \"#utility.yul\":2724:2801   */\n      sub\n        /* \"#utility.yul\":2721:2824   */\n      tag_101\n      jumpi\n        /* \"#utility.yul\":2804:2822   */\n      tag_102\n      tag_63\n      jump\t// in\n    tag_102:\n        /* \"#utility.yul\":2721:2824   */\n    tag_101:\n        /* \"#utility.yul\":2851:2852   */\n      0x01\n        /* \"#utility.yul\":2844:2849   */\n      dup3\n        /* \"#utility.yul\":2840:2853   */\n      add\n        /* \"#utility.yul\":2833:2853   */\n      swap1\n      pop\n        /* \"#utility.yul\":2626:2859   */\n      swap2\n      swap1\n      pop\n      jump\t// out\n\n    auxdata: 0xa26469706673582212200a78d7dfdbb5fcc709a896d00f05ce035b5f1117c675d089e1546df8d1284ff064736f6c63430008120033\n}\n",
				"bytecode": {
					"linkReferences": {},
					"object": "608060405234801561001057600080fd5b50610409806100206000396000f3fe608060405234801561001057600080fd5b50600436106100575760003560e01c806309cdcf9b1461005c57806353ad630914610078578063609e7a6f14610094578063c4391288146100b2578063ee919d50146100ce575b600080fd5b6100766004803603810190610071919061022e565b6100ea565b005b610092600480360381019061008d919061025b565b610116565b005b61009c610149565b6040516100a991906102aa565b60405180910390f35b6100cc60048036038101906100c7919061025b565b610196565b005b6100e860048036038101906100e3919061022e565b6101c0565b005b600a81908060018154018082558091505060019003906000526020600020016000909190919091505550565b80600a60018461012691906102f4565b8154811061013757610136610328565b5b90600052602060002001819055505050565b60008060005b600a81101561018e57600081600a811061016c5761016b610328565b5b0154826101799190610357565b915080806101869061038b565b91505061014f565b508091505090565b8060006001846101a691906102f4565b600a81106101b7576101b6610328565b5b01819055505050565b806000600b60008154809291906101d69061038b565b91905055600a81106101eb576101ea610328565b5b018190555050565b600080fd5b6000819050919050565b61020b816101f8565b811461021657600080fd5b50565b60008135905061022881610202565b92915050565b600060208284031215610244576102436101f3565b5b600061025284828501610219565b91505092915050565b60008060408385031215610272576102716101f3565b5b600061028085828601610219565b925050602061029185828601610219565b9150509250929050565b6102a4816101f8565b82525050565b60006020820190506102bf600083018461029b565b92915050565b7f4e487b7100000000000000000000000000000000000000000000000000000000600052601160045260246000fd5b60006102ff826101f8565b915061030a836101f8565b9250828203905081811115610322576103216102c5565b5b92915050565b7f4e487b7100000000000000000000000000000000000000000000000000000000600052603260045260246000fd5b6000610362826101f8565b915061036d836101f8565b9250828201905080821115610385576103846102c5565b5b92915050565b6000610396826101f8565b91507fffffffffffffffffffffffffffffffffffffffffffffffffffffffffffffffff82036103c8576103c76102c5565b5b60018201905091905056fea26469706673582212200a78d7dfdbb5fcc709a896d00f05ce035b5f1117c675d089e1546df8d1284ff064736f6c63430008120033",
					"opcodes": "PUSH1 0x80 PUSH1 0x40 MSTORE CALLVALUE DUP1 ISZERO PUSH2 0x10 JUMPI PUSH1 0x0 DUP1 REVERT JUMPDEST POP PUSH2 0x409 DUP1 PUSH2 0x20 PUSH1 0x0 CODECOPY PUSH1 0x0 RETURN INVALID PUSH1 0x80 PUSH1 0x40 MSTORE CALLVALUE DUP1 ISZERO PUSH2 0x10 JUMPI PUSH1 0x0 DUP1 REVERT JUMPDEST POP PUSH1 0x4 CALLDATASIZE LT PUSH2 0x57 JUMPI PUSH1 0x0 CALLDATALOAD PUSH1 0xE0 SHR DUP1 PUSH4 0x9CDCF9B EQ PUSH2 0x5C JUMPI DUP1 PUSH4 0x53AD6309 EQ PUSH2 0x78 JUMPI DUP1 PUSH4 0x609E7A6F EQ PUSH2 0x94 JUMPI DUP1 PUSH4 0xC4391288 EQ PUSH2 0xB2 JUMPI DUP1 PUSH4 0xEE919D50 EQ PUSH2 0xCE JUMPI JUMPDEST PUSH1 0x0 DUP1 REVERT JUMPDEST PUSH2 0x76 PUSH1 0x4 DUP1 CALLDATASIZE SUB DUP2 ADD SWAP1 PUSH2 0x71 SWAP2 SWAP1 PUSH2 0x22E JUMP JUMPDEST PUSH2 0xEA JUMP JUMPDEST STOP JUMPDEST PUSH2 0x92 PUSH1 0x4 DUP1 CALLDATASIZE SUB DUP2 ADD SWAP1 PUSH2 0x8D SWAP2 SWAP1 PUSH2 0x25B JUMP JUMPDEST PUSH2 0x116 JUMP JUMPDEST STOP JUMPDEST PUSH2 0x9C PUSH2 0x149 JUMP JUMPDEST PUSH1 0x40 MLOAD PUSH2 0xA9 SWAP2 SWAP1 PUSH2 0x2AA JUMP JUMPDEST PUSH1 0x40 MLOAD DUP1 SWAP2 SUB SWAP1 RETURN JUMPDEST PUSH2 0xCC PUSH1 0x4 DUP1 CALLDATASIZE SUB DUP2 ADD SWAP1 PUSH2 0xC7 SWAP2 SWAP1 PUSH2 0x25B JUMP JUMPDEST PUSH2 0x196 JUMP JUMPDEST STOP JUMPDEST PUSH2 0xE8 PUSH1 0x4 DUP1 CALLDATASIZE SUB DUP2 ADD SWAP1 PUSH2 0xE3 SWAP2 SWAP1 PUSH2 0x22E JUMP JUMPDEST PUSH2 0x1C0 JUMP JUMPDEST STOP JUMPDEST PUSH1 0xA DUP2 SWAP1 DUP1 PUSH1 0x1 DUP2 SLOAD ADD DUP1 DUP3 SSTORE DUP1 SWAP2 POP POP PUSH1 0x1 SWAP1 SUB SWAP1 PUSH1 0x0 MSTORE PUSH1 0x20 PUSH1 0x0 KECCAK256 ADD PUSH1 0x0 SWAP1 SWAP2 SWAP1 SWAP2 SWAP1 SWAP2 POP SSTORE POP JUMP JUMPDEST DUP1 PUSH1 0xA PUSH1 0x1 DUP5 PUSH2 0x126 SWAP2 SWAP1 PUSH2 0x2F4 JUMP JUMPDEST DUP2 SLOAD DUP2 LT PUSH2 0x137 JUMPI PUSH2 0x136 PUSH2 0x328 JUMP JUMPDEST JUMPDEST SWAP1 PUSH1 0x0 MSTORE PUSH1 0x20 PUSH1 0x0 KECCAK256 ADD DUP2 SWAP1 SSTORE POP POP POP JUMP JUMPDEST PUSH1 0x0 DUP1 PUSH1 0x0 JUMPDEST PUSH1 0xA DUP2 LT ISZERO PUSH2 0x18E JUMPI PUSH1 0x0 DUP2 PUSH1 0xA DUP2 LT PUSH2 0x16C JUMPI PUSH2 0x16B PUSH2 0x328 JUMP JUMPDEST JUMPDEST ADD SLOAD DUP3 PUSH2 0x179 SWAP2 SWAP1 PUSH2 0x357 JUMP JUMPDEST SWAP2 POP DUP1 DUP1 PUSH2 0x186 SWAP1 PUSH2 0x38B JUMP JUMPDEST SWAP2 POP POP PUSH2 0x14F JUMP JUMPDEST POP DUP1 SWAP2 POP POP SWAP1 JUMP JUMPDEST DUP1 PUSH1 0x0 PUSH1 0x1 DUP5 PUSH2 0x1A6 SWAP2 SWAP1 PUSH2 0x2F4 JUMP JUMPDEST PUSH1 0xA DUP2 LT PUSH2 0x1B7 JUMPI PUSH2 0x1B6 PUSH2 0x328 JUMP JUMPDEST JUMPDEST ADD DUP2 SWAP1 SSTORE POP POP POP JUMP JUMPDEST DUP1 PUSH1 0x0 PUSH1 0xB PUSH1 0x0 DUP2 SLOAD DUP1 SWAP3 SWAP2 SWAP1 PUSH2 0x1D6 SWAP1 PUSH2 0x38B JUMP JUMPDEST SWAP2 SWAP1 POP SSTORE PUSH1 0xA DUP2 LT PUSH2 0x1EB JUMPI PUSH2 0x1EA PUSH2 0x328 JUMP JUMPDEST JUMPDEST ADD DUP2 SWAP1 SSTORE POP POP JUMP JUMPDEST PUSH1 0x0 DUP1 REVERT JUMPDEST PUSH1 0x0 DUP2 SWAP1 POP SWAP2 SWAP1 POP JUMP JUMPDEST PUSH2 0x20B DUP2 PUSH2 0x1F8 JUMP JUMPDEST DUP2 EQ PUSH2 0x216 JUMPI PUSH1 0x0 DUP1 REVERT JUMPDEST POP JUMP JUMPDEST PUSH1 0x0 DUP2 CALLDATALOAD SWAP1 POP PUSH2 0x228 DUP2 PUSH2 0x202 JUMP JUMPDEST SWAP3 SWAP2 POP POP JUMP JUMPDEST PUSH1 0x0 PUSH1 0x20 DUP3 DUP5 SUB SLT ISZERO PUSH2 0x244 JUMPI PUSH2 0x243 PUSH2 0x1F3 JUMP JUMPDEST JUMPDEST PUSH1 0x0 PUSH2 0x252 DUP5 DUP3 DUP6 ADD PUSH2 0x219 JUMP JUMPDEST SWAP2 POP POP SWAP3 SWAP2 POP POP JUMP JUMPDEST PUSH1 0x0 DUP1 PUSH1 0x40 DUP4 DUP6 SUB SLT ISZERO PUSH2 0x272 JUMPI PUSH2 0x271 PUSH2 0x1F3 JUMP JUMPDEST JUMPDEST PUSH1 0x0 PUSH2 0x280 DUP6 DUP3 DUP7 ADD PUSH2 0x219 JUMP JUMPDEST SWAP3 POP POP PUSH1 0x20 PUSH2 0x291 DUP6 DUP3 DUP7 ADD PUSH2 0x219 JUMP JUMPDEST SWAP2 POP POP SWAP3 POP SWAP3 SWAP1 POP JUMP JUMPDEST PUSH2 0x2A4 DUP2 PUSH2 0x1F8 JUMP JUMPDEST DUP3 MSTORE POP POP JUMP JUMPDEST PUSH1 0x0 PUSH1 0x20 DUP3 ADD SWAP1 POP PUSH2 0x2BF PUSH1 0x0 DUP4 ADD DUP5 PUSH2 0x29B JUMP JUMPDEST SWAP3 SWAP2 POP POP JUMP JUMPDEST PUSH32 0x4E487B7100000000000000000000000000000000000000000000000000000000 PUSH1 0x0 MSTORE PUSH1 0x11 PUSH1 0x4 MSTORE PUSH1 0x24 PUSH1 0x0 REVERT JUMPDEST PUSH1 0x0 PUSH2 0x2FF DUP3 PUSH2 0x1F8 JUMP JUMPDEST SWAP2 POP PUSH2 0x30A DUP4 PUSH2 0x1F8 JUMP JUMPDEST SWAP3 POP DUP3 DUP3 SUB SWAP1 POP DUP2 DUP2 GT ISZERO PUSH2 0x322 JUMPI PUSH2 0x321 PUSH2 0x2C5 JUMP JUMPDEST JUMPDEST SWAP3 SWAP2 POP POP JUMP JUMPDEST PUSH32 0x4E487B7100000000000000000000000000000000000000000000000000000000 PUSH1 0x0 MSTORE PUSH1 0x32 PUSH1 0x4 MSTORE PUSH1 0x24 PUSH1 0x0 REVERT JUMPDEST PUSH1 0x0 PUSH2 0x362 DUP3 PUSH2 0x1F8 JUMP JUMPDEST SWAP2 POP PUSH2 0x36D DUP4 PUSH2 0x1F8 JUMP JUMPDEST SWAP3 POP DUP3 DUP3 ADD SWAP1 POP DUP1 DUP3 GT ISZERO PUSH2 0x385 JUMPI PUSH2 0x384 PUSH2 0x2C5 JUMP JUMPDEST JUMPDEST SWAP3 SWAP2 POP POP JUMP JUMPDEST PUSH1 0x0 PUSH2 0x396 DUP3 PUSH2 0x1F8 JUMP JUMPDEST SWAP2 POP PUSH32 0xFFFFFFFFFFFFFFFFFFFFFFFFFFFFFFFFFFFFFFFFFFFFFFFFFFFFFFFFFFFFFFFF DUP3 SUB PUSH2 0x3C8 JUMPI PUSH2 0x3C7 PUSH2 0x2C5 JUMP JUMPDEST JUMPDEST PUSH1 0x1 DUP3 ADD SWAP1 POP SWAP2 SWAP1 POP JUMP INVALID LOG2 PUSH5 0x6970667358 0x22 SLT KECCAK256 EXP PUSH25 0xD7DFDBB5FCC709A896D00F05CE035B5F1117C675D089E1546D 0xF8 0xD1 0x28 0x4F CREATE PUSH5 0x736F6C6343 STOP ADDMOD SLT STOP CALLER "
				},
				"gasEstimates": {
					"creation": {
						"codeDepositCost": "206600",
						"executionCost": "251",
						"totalCost": "206851"
					},
					"external": {
						"changeA(uint256,uint256)": "infinite",
						"changeB(uint256,uint256)": "infinite",
						"setA(uint256)": "infinite",
						"setB(uint256)": "46807",
						"sumA()": "infinite"
					}
				},
				"methodIdentifiers": {
					"changeA(uint256,uint256)": "c4391288",
					"changeB(uint256,uint256)": "53ad6309",
					"setA(uint256)": "ee919d50",
					"setB(uint256)": "09cdcf9b",
					"sumA()": "609e7a6f"
				}
			},
			"storageLayout": {
				"storage": [
					{
						"astId": 90,
						"contract": "contracts-lecture/230511-1.sol:fixedArray",
						"label": "a",
						"offset": 0,
						"slot": "0",
						"type": "t_array(t_uint256)10_storage"
					},
					{
						"astId": 93,
						"contract": "contracts-lecture/230511-1.sol:fixedArray",
						"label": "b",
						"offset": 0,
						"slot": "10",
						"type": "t_array(t_uint256)dyn_storage"
					},
					{
						"astId": 95,
						"contract": "contracts-lecture/230511-1.sol:fixedArray",
						"label": "count",
						"offset": 0,
						"slot": "11",
						"type": "t_uint256"
					}
				],
				"types": {
					"t_array(t_uint256)10_storage": {
						"base": "t_uint256",
						"encoding": "inplace",
						"label": "uint256[10]",
						"numberOfBytes": "320"
					},
					"t_array(t_uint256)dyn_storage": {
						"base": "t_uint256",
						"encoding": "dynamic_array",
						"label": "uint256[]",
						"numberOfBytes": "32"
					},
					"t_uint256": {
						"encoding": "inplace",
						"label": "uint256",
						"numberOfBytes": "32"
					}
				}
			},
			"userdoc": {
				"kind": "user",
				"methods": {},
				"version": 1
			}
		}
	}
}