{
	"contracts-lecture/230515-1.sol": {
		"REQUIRE2": {
			"abi": [
				{
					"inputs": [],
					"name": "Require1",
					"outputs": [
						{
							"internalType": "uint256",
							"name": "",
							"type": "uint256"
						}
					],
					"stateMutability": "pure",
					"type": "function"
				},
				{
					"inputs": [],
					"name": "Require2",
					"outputs": [
						{
							"internalType": "uint256",
							"name": "",
							"type": "uint256"
						}
					],
					"stateMutability": "pure",
					"type": "function"
				},
				{
					"inputs": [],
					"name": "Require3",
					"outputs": [],
					"stateMutability": "nonpayable",
					"type": "function"
				},
				{
					"inputs": [],
					"name": "Require3_2",
					"outputs": [],
					"stateMutability": "nonpayable",
					"type": "function"
				},
				{
					"inputs": [],
					"name": "Require4",
					"outputs": [],
					"stateMutability": "nonpayable",
					"type": "function"
				},
				{
					"inputs": [
						{
							"internalType": "uint256",
							"name": "_n",
							"type": "uint256"
						}
					],
					"name": "Require5",
					"outputs": [
						{
							"internalType": "bool",
							"name": "",
							"type": "bool"
						}
					],
					"stateMutability": "pure",
					"type": "function"
				},
				{
					"inputs": [
						{
							"internalType": "uint256",
							"name": "_a",
							"type": "uint256"
						}
					],
					"name": "Require6",
					"outputs": [
						{
							"internalType": "uint256",
							"name": "",
							"type": "uint256"
						}
					],
					"stateMutability": "pure",
					"type": "function"
				},
				{
					"inputs": [],
					"name": "getA",
					"outputs": [
						{
							"internalType": "uint256",
							"name": "",
							"type": "uint256"
						}
					],
					"stateMutability": "view",
					"type": "function"
				},
				{
					"inputs": [],
					"name": "getBool",
					"outputs": [
						{
							"internalType": "bool",
							"name": "",
							"type": "bool"
						}
					],
					"stateMutability": "pure",
					"type": "function"
				},
				{
					"inputs": [],
					"name": "setAasFive",
					"outputs": [],
					"stateMutability": "nonpayable",
					"type": "function"
				}
			],
			"devdoc": {
				"kind": "dev",
				"methods": {},
				"version": 1
			},
			"evm": {
				"assembly": "    /* \"contracts-lecture/230515-1.sol\":641:2286  contract REQUIRE2 {... */\n  mstore(0x40, 0x80)\n    /* \"contracts-lecture/230515-1.sol\":1142:1143  1 */\n  0x01\n    /* \"contracts-lecture/230515-1.sol\":1133:1143  uint a = 1 */\n  0x00\n  sstore\n    /* \"contracts-lecture/230515-1.sol\":641:2286  contract REQUIRE2 {... */\n  callvalue\n  dup1\n  iszero\n  tag_1\n  jumpi\n  0x00\n  dup1\n  revert\ntag_1:\n  pop\n  dataSize(sub_0)\n  dup1\n  dataOffset(sub_0)\n  0x00\n  codecopy\n  0x00\n  return\nstop\n\nsub_0: assembly {\n        /* \"contracts-lecture/230515-1.sol\":641:2286  contract REQUIRE2 {... */\n      mstore(0x40, 0x80)\n      callvalue\n      dup1\n      iszero\n      tag_1\n      jumpi\n      0x00\n      dup1\n      revert\n    tag_1:\n      pop\n      jumpi(tag_2, lt(calldatasize, 0x04))\n      shr(0xe0, calldataload(0x00))\n      dup1\n      0x95f05c78\n      gt\n      tag_13\n      jumpi\n      dup1\n      0x95f05c78\n      eq\n      tag_8\n      jumpi\n      dup1\n      0xd46300fd\n      eq\n      tag_9\n      jumpi\n      dup1\n      0xdcbf7746\n      eq\n      tag_10\n      jumpi\n      dup1\n      0xdde07ac4\n      eq\n      tag_11\n      jumpi\n      dup1\n      0xfdc4dd0b\n      eq\n      tag_12\n      jumpi\n      jump(tag_2)\n    tag_13:\n      dup1\n      0x12a7b914\n      eq\n      tag_3\n      jumpi\n      dup1\n      0x35820b7f\n      eq\n      tag_4\n      jumpi\n      dup1\n      0x6f89b4c5\n      eq\n      tag_5\n      jumpi\n      dup1\n      0x7938d4c0\n      eq\n      tag_6\n      jumpi\n      dup1\n      0x7a72b903\n      eq\n      tag_7\n      jumpi\n    tag_2:\n      0x00\n      dup1\n      revert\n        /* \"contracts-lecture/230515-1.sol\":665:753  function getBool() public pure returns(bool) {... */\n    tag_3:\n      tag_14\n      tag_15\n      jump\t// in\n    tag_14:\n      mload(0x40)\n      tag_16\n      swap2\n      swap1\n      tag_17\n      jump\t// in\n    tag_16:\n      mload(0x40)\n      dup1\n      swap2\n      sub\n      swap1\n      return\n        /* \"contracts-lecture/230515-1.sol\":1408:1590  function Require3_2() public {... */\n    tag_4:\n      tag_18\n      tag_19\n      jump\t// in\n    tag_18:\n      stop\n        /* \"contracts-lecture/230515-1.sol\":971:1127  function Require2() public pure returns(uint) {... */\n    tag_5:\n      tag_20\n      tag_21\n      jump\t// in\n    tag_20:\n      mload(0x40)\n      tag_22\n      swap2\n      swap1\n      tag_23\n      jump\t// in\n    tag_22:\n      mload(0x40)\n      dup1\n      swap2\n      sub\n      swap1\n      return\n        /* \"contracts-lecture/230515-1.sol\":2057:2284  function Require6(uint _a) public pure returns(uint) {... */\n    tag_6:\n      tag_24\n      0x04\n      dup1\n      calldatasize\n      sub\n      dup2\n      add\n      swap1\n      tag_25\n      swap2\n      swap1\n      tag_26\n      jump\t// in\n    tag_25:\n      tag_27\n      jump\t// in\n    tag_24:\n      mload(0x40)\n      tag_28\n      swap2\n      swap1\n      tag_23\n      jump\t// in\n    tag_28:\n      mload(0x40)\n      dup1\n      swap2\n      sub\n      swap1\n      return\n        /* \"contracts-lecture/230515-1.sol\":1596:1646  function setAasFive() public {... */\n    tag_7:\n      tag_29\n      tag_30\n      jump\t// in\n    tag_29:\n      stop\n        /* \"contracts-lecture/230515-1.sol\":1223:1402  function Require3() public {... */\n    tag_8:\n      tag_31\n      tag_32\n      jump\t// in\n    tag_31:\n      stop\n        /* \"contracts-lecture/230515-1.sol\":1150:1217  function getA() public view returns(uint) {... */\n    tag_9:\n      tag_33\n      tag_34\n      jump\t// in\n    tag_33:\n      mload(0x40)\n      tag_35\n      swap2\n      swap1\n      tag_23\n      jump\t// in\n    tag_35:\n      mload(0x40)\n      dup1\n      swap2\n      sub\n      swap1\n      return\n        /* \"contracts-lecture/230515-1.sol\":1685:1866  function Require4() public {... */\n    tag_10:\n      tag_36\n      tag_37\n      jump\t// in\n    tag_36:\n      stop\n        /* \"contracts-lecture/230515-1.sol\":759:965  function Require1() public pure returns(uint) {... */\n    tag_11:\n      tag_38\n      tag_39\n      jump\t// in\n    tag_38:\n      mload(0x40)\n      tag_40\n      swap2\n      swap1\n      tag_23\n      jump\t// in\n    tag_40:\n      mload(0x40)\n      dup1\n      swap2\n      sub\n      swap1\n      return\n        /* \"contracts-lecture/230515-1.sol\":1899:2023  function Require5(uint _n) public pure returns(bool) {... */\n    tag_12:\n      tag_41\n      0x04\n      dup1\n      calldatasize\n      sub\n      dup2\n      add\n      swap1\n      tag_42\n      swap2\n      swap1\n      tag_26\n      jump\t// in\n    tag_42:\n      tag_43\n      jump\t// in\n    tag_41:\n      mload(0x40)\n      tag_44\n      swap2\n      swap1\n      tag_17\n      jump\t// in\n    tag_44:\n      mload(0x40)\n      dup1\n      swap2\n      sub\n      swap1\n      return\n        /* \"contracts-lecture/230515-1.sol\":665:753  function getBool() public pure returns(bool) {... */\n    tag_15:\n        /* \"contracts-lecture/230515-1.sol\":704:708  bool */\n      0x00\n        /* \"contracts-lecture/230515-1.sol\":720:727  bool _a */\n      dup1\n        /* \"contracts-lecture/230515-1.sol\":744:746  _a */\n      dup1\n        /* \"contracts-lecture/230515-1.sol\":737:746  return _a */\n      swap2\n      pop\n      pop\n        /* \"contracts-lecture/230515-1.sol\":665:753  function getBool() public pure returns(bool) {... */\n      swap1\n      jump\t// out\n        /* \"contracts-lecture/230515-1.sol\":1408:1590  function Require3_2() public {... */\n    tag_19:\n        /* \"contracts-lecture/230515-1.sol\":1447:1453  bool c */\n      0x00\n        /* \"contracts-lecture/230515-1.sol\":1467:1468  5 */\n      0x05\n        /* \"contracts-lecture/230515-1.sol\":1463:1464  a */\n      0x00\n        /* \"contracts-lecture/230515-1.sol\":1463:1468  a = 5 */\n      dup2\n      swap1\n      sstore\n      pop\n        /* \"contracts-lecture/230515-1.sol\":1487:1488  c */\n      dup1\n        /* \"contracts-lecture/230515-1.sol\":1486:1488  !c */\n      iszero\n        /* \"contracts-lecture/230515-1.sol\":1478:1498  require(!c, \"error\") */\n      tag_47\n      jumpi\n      mload(0x40)\n      0x08c379a000000000000000000000000000000000000000000000000000000000\n      dup2\n      mstore\n      0x04\n      add\n      tag_48\n      swap1\n      tag_49\n      jump\t// in\n    tag_48:\n      mload(0x40)\n      dup1\n      swap2\n      sub\n      swap1\n      revert\n    tag_47:\n        /* \"contracts-lecture/230515-1.sol\":1437:1590  {... */\n      pop\n        /* \"contracts-lecture/230515-1.sol\":1408:1590  function Require3_2() public {... */\n      jump\t// out\n        /* \"contracts-lecture/230515-1.sol\":971:1127  function Require2() public pure returns(uint) {... */\n    tag_21:\n        /* \"contracts-lecture/230515-1.sol\":1011:1015  uint */\n      0x00\n        /* \"contracts-lecture/230515-1.sol\":1027:1034  uint _a */\n      dup1\n        /* \"contracts-lecture/230515-1.sol\":1035:1036  1 */\n      0x01\n        /* \"contracts-lecture/230515-1.sol\":1027:1036  uint _a=1 */\n      swap1\n      pop\n        /* \"contracts-lecture/230515-1.sol\":1046:1052  bool b */\n      0x00\n        /* \"contracts-lecture/230515-1.sol\":1069:1071  _a */\n      dup2\n        /* \"contracts-lecture/230515-1.sol\":1062:1071  return _a */\n      swap3\n      pop\n      pop\n      pop\n        /* \"contracts-lecture/230515-1.sol\":971:1127  function Require2() public pure returns(uint) {... */\n      swap1\n      jump\t// out\n        /* \"contracts-lecture/230515-1.sol\":2057:2284  function Require6(uint _a) public pure returns(uint) {... */\n    tag_27:\n        /* \"contracts-lecture/230515-1.sol\":2104:2108  uint */\n      0x00\n        /* \"contracts-lecture/230515-1.sol\":2129:2130  0 */\n      dup1\n        /* \"contracts-lecture/230515-1.sol\":2126:2127  3 */\n      0x03\n        /* \"contracts-lecture/230515-1.sol\":2123:2125  _a */\n      dup4\n        /* \"contracts-lecture/230515-1.sol\":2123:2127  _a%3 */\n      tag_55\n      swap2\n      swap1\n      tag_56\n      jump\t// in\n    tag_55:\n        /* \"contracts-lecture/230515-1.sol\":2123:2130  _a%3==0 */\n      sub\n        /* \"contracts-lecture/230515-1.sol\":2120:2278  if(_a%3==0) {... */\n      tag_57\n      jumpi\n        /* \"contracts-lecture/230515-1.sol\":2160:2161  0 */\n      0x00\n        /* \"contracts-lecture/230515-1.sol\":2157:2158  3 */\n      0x03\n        /* \"contracts-lecture/230515-1.sol\":2154:2156  _a */\n      dup4\n        /* \"contracts-lecture/230515-1.sol\":2154:2158  _a%3 */\n      tag_58\n      swap2\n      swap1\n      tag_56\n      jump\t// in\n    tag_58:\n        /* \"contracts-lecture/230515-1.sol\":2154:2161  _a%3!=0 */\n      sub\n        /* \"contracts-lecture/230515-1.sol\":2146:2170  require(_a%3!=0, \"nope\") */\n      tag_59\n      jumpi\n      mload(0x40)\n      0x08c379a000000000000000000000000000000000000000000000000000000000\n      dup2\n      mstore\n      0x04\n      add\n      tag_60\n      swap1\n      tag_61\n      jump\t// in\n    tag_60:\n      mload(0x40)\n      dup1\n      swap2\n      sub\n      swap1\n      revert\n    tag_59:\n        /* \"contracts-lecture/230515-1.sol\":2120:2278  if(_a%3==0) {... */\n      jump(tag_62)\n    tag_57:\n        /* \"contracts-lecture/230515-1.sol\":2197:2198  1 */\n      0x01\n        /* \"contracts-lecture/230515-1.sol\":2194:2195  3 */\n      0x03\n        /* \"contracts-lecture/230515-1.sol\":2191:2193  _a */\n      dup4\n        /* \"contracts-lecture/230515-1.sol\":2191:2195  _a%3 */\n      tag_63\n      swap2\n      swap1\n      tag_56\n      jump\t// in\n    tag_63:\n        /* \"contracts-lecture/230515-1.sol\":2191:2198  _a%3==1 */\n      sub\n        /* \"contracts-lecture/230515-1.sol\":2188:2278  if(_a%3==1) {... */\n      tag_64\n      jumpi\n        /* \"contracts-lecture/230515-1.sol\":2224:2225  3 */\n      0x03\n        /* \"contracts-lecture/230515-1.sol\":2221:2223  _a */\n      dup3\n        /* \"contracts-lecture/230515-1.sol\":2221:2225  _a%3 */\n      tag_65\n      swap2\n      swap1\n      tag_56\n      jump\t// in\n    tag_65:\n        /* \"contracts-lecture/230515-1.sol\":2214:2225  return _a%3 */\n      swap1\n      pop\n      jump(tag_54)\n        /* \"contracts-lecture/230515-1.sol\":2188:2278  if(_a%3==1) {... */\n    tag_64:\n        /* \"contracts-lecture/230515-1.sol\":2266:2267  3 */\n      0x03\n        /* \"contracts-lecture/230515-1.sol\":2263:2265  _a */\n      dup3\n        /* \"contracts-lecture/230515-1.sol\":2263:2267  _a%3 */\n      tag_67\n      swap2\n      swap1\n      tag_56\n      jump\t// in\n    tag_67:\n        /* \"contracts-lecture/230515-1.sol\":2256:2267  return _a%3 */\n      swap1\n      pop\n      jump(tag_54)\n        /* \"contracts-lecture/230515-1.sol\":2120:2278  if(_a%3==0) {... */\n    tag_62:\n        /* \"contracts-lecture/230515-1.sol\":2057:2284  function Require6(uint _a) public pure returns(uint) {... */\n    tag_54:\n      swap2\n      swap1\n      pop\n      jump\t// out\n        /* \"contracts-lecture/230515-1.sol\":1596:1646  function setAasFive() public {... */\n    tag_30:\n        /* \"contracts-lecture/230515-1.sol\":1638:1639  5 */\n      0x05\n        /* \"contracts-lecture/230515-1.sol\":1635:1636  a */\n      0x00\n        /* \"contracts-lecture/230515-1.sol\":1635:1639  a =5 */\n      dup2\n      swap1\n      sstore\n      pop\n        /* \"contracts-lecture/230515-1.sol\":1596:1646  function setAasFive() public {... */\n      jump\t// out\n        /* \"contracts-lecture/230515-1.sol\":1223:1402  function Require3() public {... */\n    tag_32:\n        /* \"contracts-lecture/230515-1.sol\":1260:1266  bool c */\n      0x00\n        /* \"contracts-lecture/230515-1.sol\":1280:1281  5 */\n      0x05\n        /* \"contracts-lecture/230515-1.sol\":1276:1277  a */\n      0x00\n        /* \"contracts-lecture/230515-1.sol\":1276:1281  a = 5 */\n      dup2\n      swap1\n      sstore\n      pop\n        /* \"contracts-lecture/230515-1.sol\":1299:1300  c */\n      dup1\n        /* \"contracts-lecture/230515-1.sol\":1291:1310  require(c, \"error\") */\n      tag_70\n      jumpi\n      mload(0x40)\n      0x08c379a000000000000000000000000000000000000000000000000000000000\n      dup2\n      mstore\n      0x04\n      add\n      tag_71\n      swap1\n      tag_49\n      jump\t// in\n    tag_71:\n      mload(0x40)\n      dup1\n      swap2\n      sub\n      swap1\n      revert\n    tag_70:\n        /* \"contracts-lecture/230515-1.sol\":1250:1402  {... */\n      pop\n        /* \"contracts-lecture/230515-1.sol\":1223:1402  function Require3() public {... */\n      jump\t// out\n        /* \"contracts-lecture/230515-1.sol\":1150:1217  function getA() public view returns(uint) {... */\n    tag_34:\n        /* \"contracts-lecture/230515-1.sol\":1186:1190  uint */\n      0x00\n        /* \"contracts-lecture/230515-1.sol\":1209:1210  a */\n      dup1\n      sload\n        /* \"contracts-lecture/230515-1.sol\":1202:1210  return a */\n      swap1\n      pop\n        /* \"contracts-lecture/230515-1.sol\":1150:1217  function getA() public view returns(uint) {... */\n      swap1\n      jump\t// out\n        /* \"contracts-lecture/230515-1.sol\":1685:1866  function Require4() public {... */\n    tag_37:\n        /* \"contracts-lecture/230515-1.sol\":1722:1728  bool c */\n      0x00\n        /* \"contracts-lecture/230515-1.sol\":1738:1750  setAasFive() */\n      tag_74\n        /* \"contracts-lecture/230515-1.sol\":1738:1748  setAasFive */\n      tag_30\n        /* \"contracts-lecture/230515-1.sol\":1738:1750  setAasFive() */\n      jump\t// in\n    tag_74:\n        /* \"contracts-lecture/230515-1.sol\":1815:1816  c */\n      dup1\n        /* \"contracts-lecture/230515-1.sol\":1807:1826  require(c, \"error\") */\n      tag_75\n      jumpi\n      mload(0x40)\n      0x08c379a000000000000000000000000000000000000000000000000000000000\n      dup2\n      mstore\n      0x04\n      add\n      tag_76\n      swap1\n      tag_49\n      jump\t// in\n    tag_76:\n      mload(0x40)\n      dup1\n      swap2\n      sub\n      swap1\n      revert\n    tag_75:\n        /* \"contracts-lecture/230515-1.sol\":1712:1866  {... */\n      pop\n        /* \"contracts-lecture/230515-1.sol\":1685:1866  function Require4() public {... */\n      jump\t// out\n        /* \"contracts-lecture/230515-1.sol\":759:965  function Require1() public pure returns(uint) {... */\n    tag_39:\n        /* \"contracts-lecture/230515-1.sol\":799:803  uint */\n      0x00\n        /* \"contracts-lecture/230515-1.sol\":815:822  uint _a */\n      dup1\n        /* \"contracts-lecture/230515-1.sol\":823:824  1 */\n      0x01\n        /* \"contracts-lecture/230515-1.sol\":815:824  uint _a=1 */\n      swap1\n      pop\n        /* \"contracts-lecture/230515-1.sol\":834:840  bool b */\n      0x00\n        /* \"contracts-lecture/230515-1.sol\":858:859  b */\n      dup1\n        /* \"contracts-lecture/230515-1.sol\":850:869  require(b, \"Error\") */\n      tag_78\n      jumpi\n      mload(0x40)\n      0x08c379a000000000000000000000000000000000000000000000000000000000\n      dup2\n      mstore\n      0x04\n      add\n      tag_79\n      swap1\n      tag_53\n      jump\t// in\n    tag_79:\n      mload(0x40)\n      dup1\n      swap2\n      sub\n      swap1\n      revert\n    tag_78:\n        /* \"contracts-lecture/230515-1.sol\":956:958  _a */\n      dup2\n        /* \"contracts-lecture/230515-1.sol\":949:958  return _a */\n      swap3\n      pop\n      pop\n      pop\n        /* \"contracts-lecture/230515-1.sol\":759:965  function Require1() public pure returns(uint) {... */\n      swap1\n      jump\t// out\n        /* \"contracts-lecture/230515-1.sol\":1899:2023  function Require5(uint _n) public pure returns(bool) {... */\n    tag_43:\n        /* \"contracts-lecture/230515-1.sol\":1946:1950  bool */\n      0x00\n        /* \"contracts-lecture/230515-1.sol\":1976:1977  0 */\n      dup1\n        /* \"contracts-lecture/230515-1.sol\":1973:1974  5 */\n      0x05\n        /* \"contracts-lecture/230515-1.sol\":1970:1972  _n */\n      dup4\n        /* \"contracts-lecture/230515-1.sol\":1970:1974  _n%5 */\n      tag_81\n      swap2\n      swap1\n      tag_56\n      jump\t// in\n    tag_81:\n        /* \"contracts-lecture/230515-1.sol\":1970:1977  _n%5==0 */\n      eq\n        /* \"contracts-lecture/230515-1.sol\":1970:1986  _n%5==0 && _n>10 */\n      dup1\n      iszero\n      tag_82\n      jumpi\n      pop\n        /* \"contracts-lecture/230515-1.sol\":1984:1986  10 */\n      0x0a\n        /* \"contracts-lecture/230515-1.sol\":1981:1983  _n */\n      dup3\n        /* \"contracts-lecture/230515-1.sol\":1981:1986  _n>10 */\n      gt\n        /* \"contracts-lecture/230515-1.sol\":1970:1986  _n%5==0 && _n>10 */\n    tag_82:\n        /* \"contracts-lecture/230515-1.sol\":1962:1995  require(_n%5==0 && _n>10, \"Nope\") */\n      tag_83\n      jumpi\n      mload(0x40)\n      0x08c379a000000000000000000000000000000000000000000000000000000000\n      dup2\n      mstore\n      0x04\n      add\n      tag_84\n      swap1\n      tag_85\n      jump\t// in\n    tag_84:\n      mload(0x40)\n      dup1\n      swap2\n      sub\n      swap1\n      revert\n    tag_83:\n        /* \"contracts-lecture/230515-1.sol\":2012:2016  true */\n      0x01\n        /* \"contracts-lecture/230515-1.sol\":2005:2016  return true */\n      swap1\n      pop\n        /* \"contracts-lecture/230515-1.sol\":1899:2023  function Require5(uint _n) public pure returns(bool) {... */\n      swap2\n      swap1\n      pop\n      jump\t// out\n        /* \"#utility.yul\":7:97   */\n    tag_86:\n        /* \"#utility.yul\":41:48   */\n      0x00\n        /* \"#utility.yul\":84:89   */\n      dup2\n        /* \"#utility.yul\":77:90   */\n      iszero\n        /* \"#utility.yul\":70:91   */\n      iszero\n        /* \"#utility.yul\":59:91   */\n      swap1\n      pop\n        /* \"#utility.yul\":7:97   */\n      swap2\n      swap1\n      pop\n      jump\t// out\n        /* \"#utility.yul\":103:212   */\n    tag_87:\n        /* \"#utility.yul\":184:205   */\n      tag_108\n        /* \"#utility.yul\":199:204   */\n      dup2\n        /* \"#utility.yul\":184:205   */\n      tag_86\n      jump\t// in\n    tag_108:\n        /* \"#utility.yul\":179:182   */\n      dup3\n        /* \"#utility.yul\":172:206   */\n      mstore\n        /* \"#utility.yul\":103:212   */\n      pop\n      pop\n      jump\t// out\n        /* \"#utility.yul\":218:428   */\n    tag_17:\n        /* \"#utility.yul\":305:309   */\n      0x00\n        /* \"#utility.yul\":343:345   */\n      0x20\n        /* \"#utility.yul\":332:341   */\n      dup3\n        /* \"#utility.yul\":328:346   */\n      add\n        /* \"#utility.yul\":320:346   */\n      swap1\n      pop\n        /* \"#utility.yul\":356:421   */\n      tag_110\n        /* \"#utility.yul\":418:419   */\n      0x00\n        /* \"#utility.yul\":407:416   */\n      dup4\n        /* \"#utility.yul\":403:420   */\n      add\n        /* \"#utility.yul\":394:400   */\n      dup5\n        /* \"#utility.yul\":356:421   */\n      tag_87\n      jump\t// in\n    tag_110:\n        /* \"#utility.yul\":218:428   */\n      swap3\n      swap2\n      pop\n      pop\n      jump\t// out\n        /* \"#utility.yul\":434:511   */\n    tag_88:\n        /* \"#utility.yul\":471:478   */\n      0x00\n        /* \"#utility.yul\":500:505   */\n      dup2\n        /* \"#utility.yul\":489:505   */\n      swap1\n      pop\n        /* \"#utility.yul\":434:511   */\n      swap2\n      swap1\n      pop\n      jump\t// out\n        /* \"#utility.yul\":517:635   */\n    tag_89:\n        /* \"#utility.yul\":604:628   */\n      tag_113\n        /* \"#utility.yul\":622:627   */\n      dup2\n        /* \"#utility.yul\":604:628   */\n      tag_88\n      jump\t// in\n    tag_113:\n        /* \"#utility.yul\":599:602   */\n      dup3\n        /* \"#utility.yul\":592:629   */\n      mstore\n        /* \"#utility.yul\":517:635   */\n      pop\n      pop\n      jump\t// out\n        /* \"#utility.yul\":641:863   */\n    tag_23:\n        /* \"#utility.yul\":734:738   */\n      0x00\n        /* \"#utility.yul\":772:774   */\n      0x20\n        /* \"#utility.yul\":761:770   */\n      dup3\n        /* \"#utility.yul\":757:775   */\n      add\n        /* \"#utility.yul\":749:775   */\n      swap1\n      pop\n        /* \"#utility.yul\":785:856   */\n      tag_115\n        /* \"#utility.yul\":853:854   */\n      0x00\n        /* \"#utility.yul\":842:851   */\n      dup4\n        /* \"#utility.yul\":838:855   */\n      add\n        /* \"#utility.yul\":829:835   */\n      dup5\n        /* \"#utility.yul\":785:856   */\n      tag_89\n      jump\t// in\n    tag_115:\n        /* \"#utility.yul\":641:863   */\n      swap3\n      swap2\n      pop\n      pop\n      jump\t// out\n        /* \"#utility.yul\":950:1067   */\n    tag_91:\n        /* \"#utility.yul\":1059:1060   */\n      0x00\n        /* \"#utility.yul\":1056:1057   */\n      dup1\n        /* \"#utility.yul\":1049:1061   */\n      revert\n        /* \"#utility.yul\":1196:1318   */\n    tag_93:\n        /* \"#utility.yul\":1269:1293   */\n      tag_120\n        /* \"#utility.yul\":1287:1292   */\n      dup2\n        /* \"#utility.yul\":1269:1293   */\n      tag_88\n      jump\t// in\n    tag_120:\n        /* \"#utility.yul\":1262:1267   */\n      dup2\n        /* \"#utility.yul\":1259:1294   */\n      eq\n        /* \"#utility.yul\":1249:1312   */\n      tag_121\n      jumpi\n        /* \"#utility.yul\":1308:1309   */\n      0x00\n        /* \"#utility.yul\":1305:1306   */\n      dup1\n        /* \"#utility.yul\":1298:1310   */\n      revert\n        /* \"#utility.yul\":1249:1312   */\n    tag_121:\n        /* \"#utility.yul\":1196:1318   */\n      pop\n      jump\t// out\n        /* \"#utility.yul\":1324:1463   */\n    tag_94:\n        /* \"#utility.yul\":1370:1375   */\n      0x00\n        /* \"#utility.yul\":1408:1414   */\n      dup2\n        /* \"#utility.yul\":1395:1415   */\n      calldataload\n        /* \"#utility.yul\":1386:1415   */\n      swap1\n      pop\n        /* \"#utility.yul\":1424:1457   */\n      tag_123\n        /* \"#utility.yul\":1451:1456   */\n      dup2\n        /* \"#utility.yul\":1424:1457   */\n      tag_93\n      jump\t// in\n    tag_123:\n        /* \"#utility.yul\":1324:1463   */\n      swap3\n      swap2\n      pop\n      pop\n      jump\t// out\n        /* \"#utility.yul\":1469:1798   */\n    tag_26:\n        /* \"#utility.yul\":1528:1534   */\n      0x00\n        /* \"#utility.yul\":1577:1579   */\n      0x20\n        /* \"#utility.yul\":1565:1574   */\n      dup3\n        /* \"#utility.yul\":1556:1563   */\n      dup5\n        /* \"#utility.yul\":1552:1575   */\n      sub\n        /* \"#utility.yul\":1548:1580   */\n      slt\n        /* \"#utility.yul\":1545:1664   */\n      iszero\n      tag_125\n      jumpi\n        /* \"#utility.yul\":1583:1662   */\n      tag_126\n      tag_91\n      jump\t// in\n    tag_126:\n        /* \"#utility.yul\":1545:1664   */\n    tag_125:\n        /* \"#utility.yul\":1703:1704   */\n      0x00\n        /* \"#utility.yul\":1728:1781   */\n      tag_127\n        /* \"#utility.yul\":1773:1780   */\n      dup5\n        /* \"#utility.yul\":1764:1770   */\n      dup3\n        /* \"#utility.yul\":1753:1762   */\n      dup6\n        /* \"#utility.yul\":1749:1771   */\n      add\n        /* \"#utility.yul\":1728:1781   */\n      tag_94\n      jump\t// in\n    tag_127:\n        /* \"#utility.yul\":1718:1781   */\n      swap2\n      pop\n        /* \"#utility.yul\":1674:1791   */\n      pop\n        /* \"#utility.yul\":1469:1798   */\n      swap3\n      swap2\n      pop\n      pop\n      jump\t// out\n        /* \"#utility.yul\":1804:1973   */\n    tag_95:\n        /* \"#utility.yul\":1888:1899   */\n      0x00\n        /* \"#utility.yul\":1922:1928   */\n      dup3\n        /* \"#utility.yul\":1917:1920   */\n      dup3\n        /* \"#utility.yul\":1910:1929   */\n      mstore\n        /* \"#utility.yul\":1962:1966   */\n      0x20\n        /* \"#utility.yul\":1957:1960   */\n      dup3\n        /* \"#utility.yul\":1953:1967   */\n      add\n        /* \"#utility.yul\":1938:1967   */\n      swap1\n      pop\n        /* \"#utility.yul\":1804:1973   */\n      swap3\n      swap2\n      pop\n      pop\n      jump\t// out\n        /* \"#utility.yul\":1979:2134   */\n    tag_96:\n        /* \"#utility.yul\":2119:2126   */\n      0x6572726f72000000000000000000000000000000000000000000000000000000\n        /* \"#utility.yul\":2115:2116   */\n      0x00\n        /* \"#utility.yul\":2107:2113   */\n      dup3\n        /* \"#utility.yul\":2103:2117   */\n      add\n        /* \"#utility.yul\":2096:2127   */\n      mstore\n        /* \"#utility.yul\":1979:2134   */\n      pop\n      jump\t// out\n        /* \"#utility.yul\":2140:2505   */\n    tag_97:\n        /* \"#utility.yul\":2282:2285   */\n      0x00\n        /* \"#utility.yul\":2303:2369   */\n      tag_131\n        /* \"#utility.yul\":2367:2368   */\n      0x05\n        /* \"#utility.yul\":2362:2365   */\n      dup4\n        /* \"#utility.yul\":2303:2369   */\n      tag_95\n      jump\t// in\n    tag_131:\n        /* \"#utility.yul\":2296:2369   */\n      swap2\n      pop\n        /* \"#utility.yul\":2378:2471   */\n      tag_132\n        /* \"#utility.yul\":2467:2470   */\n      dup3\n        /* \"#utility.yul\":2378:2471   */\n      tag_96\n      jump\t// in\n    tag_132:\n        /* \"#utility.yul\":2496:2498   */\n      0x20\n        /* \"#utility.yul\":2491:2494   */\n      dup3\n        /* \"#utility.yul\":2487:2499   */\n      add\n        /* \"#utility.yul\":2480:2499   */\n      swap1\n      pop\n        /* \"#utility.yul\":2140:2505   */\n      swap2\n      swap1\n      pop\n      jump\t// out\n        /* \"#utility.yul\":2511:2930   */\n    tag_49:\n        /* \"#utility.yul\":2677:2681   */\n      0x00\n        /* \"#utility.yul\":2715:2717   */\n      0x20\n        /* \"#utility.yul\":2704:2713   */\n      dup3\n        /* \"#utility.yul\":2700:2718   */\n      add\n        /* \"#utility.yul\":2692:2718   */\n      swap1\n      pop\n        /* \"#utility.yul\":2764:2773   */\n      dup2\n        /* \"#utility.yul\":2758:2762   */\n      dup2\n        /* \"#utility.yul\":2754:2774   */\n      sub\n        /* \"#utility.yul\":2750:2751   */\n      0x00\n        /* \"#utility.yul\":2739:2748   */\n      dup4\n        /* \"#utility.yul\":2735:2752   */\n      add\n        /* \"#utility.yul\":2728:2775   */\n      mstore\n        /* \"#utility.yul\":2792:2923   */\n      tag_134\n        /* \"#utility.yul\":2918:2922   */\n      dup2\n        /* \"#utility.yul\":2792:2923   */\n      tag_97\n      jump\t// in\n    tag_134:\n        /* \"#utility.yul\":2784:2923   */\n      swap1\n      pop\n        /* \"#utility.yul\":2511:2930   */\n      swap2\n      swap1\n      pop\n      jump\t// out\n        /* \"#utility.yul\":2936:3091   */\n    tag_98:\n        /* \"#utility.yul\":3076:3083   */\n      0x4572726f72000000000000000000000000000000000000000000000000000000\n        /* \"#utility.yul\":3072:3073   */\n      0x00\n        /* \"#utility.yul\":3064:3070   */\n      dup3\n        /* \"#utility.yul\":3060:3074   */\n      add\n        /* \"#utility.yul\":3053:3084   */\n      mstore\n        /* \"#utility.yul\":2936:3091   */\n      pop\n      jump\t// out\n        /* \"#utility.yul\":3097:3462   */\n    tag_99:\n        /* \"#utility.yul\":3239:3242   */\n      0x00\n        /* \"#utility.yul\":3260:3326   */\n      tag_137\n        /* \"#utility.yul\":3324:3325   */\n      0x05\n        /* \"#utility.yul\":3319:3322   */\n      dup4\n        /* \"#utility.yul\":3260:3326   */\n      tag_95\n      jump\t// in\n    tag_137:\n        /* \"#utility.yul\":3253:3326   */\n      swap2\n      pop\n        /* \"#utility.yul\":3335:3428   */\n      tag_138\n        /* \"#utility.yul\":3424:3427   */\n      dup3\n        /* \"#utility.yul\":3335:3428   */\n      tag_98\n      jump\t// in\n    tag_138:\n        /* \"#utility.yul\":3453:3455   */\n      0x20\n        /* \"#utility.yul\":3448:3451   */\n      dup3\n        /* \"#utility.yul\":3444:3456   */\n      add\n        /* \"#utility.yul\":3437:3456   */\n      swap1\n      pop\n        /* \"#utility.yul\":3097:3462   */\n      swap2\n      swap1\n      pop\n      jump\t// out\n        /* \"#utility.yul\":3468:3887   */\n    tag_53:\n        /* \"#utility.yul\":3634:3638   */\n      0x00\n        /* \"#utility.yul\":3672:3674   */\n      0x20\n        /* \"#utility.yul\":3661:3670   */\n      dup3\n        /* \"#utility.yul\":3657:3675   */\n      add\n        /* \"#utility.yul\":3649:3675   */\n      swap1\n      pop\n        /* \"#utility.yul\":3721:3730   */\n      dup2\n        /* \"#utility.yul\":3715:3719   */\n      dup2\n        /* \"#utility.yul\":3711:3731   */\n      sub\n        /* \"#utility.yul\":3707:3708   */\n      0x00\n        /* \"#utility.yul\":3696:3705   */\n      dup4\n        /* \"#utility.yul\":3692:3709   */\n      add\n        /* \"#utility.yul\":3685:3732   */\n      mstore\n        /* \"#utility.yul\":3749:3880   */\n      tag_140\n        /* \"#utility.yul\":3875:3879   */\n      dup2\n        /* \"#utility.yul\":3749:3880   */\n      tag_99\n      jump\t// in\n    tag_140:\n        /* \"#utility.yul\":3741:3880   */\n      swap1\n      pop\n        /* \"#utility.yul\":3468:3887   */\n      swap2\n      swap1\n      pop\n      jump\t// out\n        /* \"#utility.yul\":3893:4073   */\n    tag_100:\n        /* \"#utility.yul\":3941:4018   */\n      0x4e487b7100000000000000000000000000000000000000000000000000000000\n        /* \"#utility.yul\":3938:3939   */\n      0x00\n        /* \"#utility.yul\":3931:4019   */\n      mstore\n        /* \"#utility.yul\":4038:4042   */\n      0x12\n        /* \"#utility.yul\":4035:4036   */\n      0x04\n        /* \"#utility.yul\":4028:4043   */\n      mstore\n        /* \"#utility.yul\":4062:4066   */\n      0x24\n        /* \"#utility.yul\":4059:4060   */\n      0x00\n        /* \"#utility.yul\":4052:4067   */\n      revert\n        /* \"#utility.yul\":4079:4255   */\n    tag_56:\n        /* \"#utility.yul\":4111:4112   */\n      0x00\n        /* \"#utility.yul\":4128:4148   */\n      tag_143\n        /* \"#utility.yul\":4146:4147   */\n      dup3\n        /* \"#utility.yul\":4128:4148   */\n      tag_88\n      jump\t// in\n    tag_143:\n        /* \"#utility.yul\":4123:4148   */\n      swap2\n      pop\n        /* \"#utility.yul\":4162:4182   */\n      tag_144\n        /* \"#utility.yul\":4180:4181   */\n      dup4\n        /* \"#utility.yul\":4162:4182   */\n      tag_88\n      jump\t// in\n    tag_144:\n        /* \"#utility.yul\":4157:4182   */\n      swap3\n      pop\n        /* \"#utility.yul\":4201:4202   */\n      dup3\n        /* \"#utility.yul\":4191:4226   */\n      tag_145\n      jumpi\n        /* \"#utility.yul\":4206:4224   */\n      tag_146\n      tag_100\n      jump\t// in\n    tag_146:\n        /* \"#utility.yul\":4191:4226   */\n    tag_145:\n        /* \"#utility.yul\":4247:4248   */\n      dup3\n        /* \"#utility.yul\":4244:4245   */\n      dup3\n        /* \"#utility.yul\":4240:4249   */\n      mod\n        /* \"#utility.yul\":4235:4249   */\n      swap1\n      pop\n        /* \"#utility.yul\":4079:4255   */\n      swap3\n      swap2\n      pop\n      pop\n      jump\t// out\n        /* \"#utility.yul\":4261:4415   */\n    tag_101:\n        /* \"#utility.yul\":4401:4407   */\n      0x6e6f706500000000000000000000000000000000000000000000000000000000\n        /* \"#utility.yul\":4397:4398   */\n      0x00\n        /* \"#utility.yul\":4389:4395   */\n      dup3\n        /* \"#utility.yul\":4385:4399   */\n      add\n        /* \"#utility.yul\":4378:4408   */\n      mstore\n        /* \"#utility.yul\":4261:4415   */\n      pop\n      jump\t// out\n        /* \"#utility.yul\":4421:4786   */\n    tag_102:\n        /* \"#utility.yul\":4563:4566   */\n      0x00\n        /* \"#utility.yul\":4584:4650   */\n      tag_149\n        /* \"#utility.yul\":4648:4649   */\n      0x04\n        /* \"#utility.yul\":4643:4646   */\n      dup4\n        /* \"#utility.yul\":4584:4650   */\n      tag_95\n      jump\t// in\n    tag_149:\n        /* \"#utility.yul\":4577:4650   */\n      swap2\n      pop\n        /* \"#utility.yul\":4659:4752   */\n      tag_150\n        /* \"#utility.yul\":4748:4751   */\n      dup3\n        /* \"#utility.yul\":4659:4752   */\n      tag_101\n      jump\t// in\n    tag_150:\n        /* \"#utility.yul\":4777:4779   */\n      0x20\n        /* \"#utility.yul\":4772:4775   */\n      dup3\n        /* \"#utility.yul\":4768:4780   */\n      add\n        /* \"#utility.yul\":4761:4780   */\n      swap1\n      pop\n        /* \"#utility.yul\":4421:4786   */\n      swap2\n      swap1\n      pop\n      jump\t// out\n        /* \"#utility.yul\":4792:5211   */\n    tag_61:\n        /* \"#utility.yul\":4958:4962   */\n      0x00\n        /* \"#utility.yul\":4996:4998   */\n      0x20\n        /* \"#utility.yul\":4985:4994   */\n      dup3\n        /* \"#utility.yul\":4981:4999   */\n      add\n        /* \"#utility.yul\":4973:4999   */\n      swap1\n      pop\n        /* \"#utility.yul\":5045:5054   */\n      dup2\n        /* \"#utility.yul\":5039:5043   */\n      dup2\n        /* \"#utility.yul\":5035:5055   */\n      sub\n        /* \"#utility.yul\":5031:5032   */\n      0x00\n        /* \"#utility.yul\":5020:5029   */\n      dup4\n        /* \"#utility.yul\":5016:5033   */\n      add\n        /* \"#utility.yul\":5009:5056   */\n      mstore\n        /* \"#utility.yul\":5073:5204   */\n      tag_152\n        /* \"#utility.yul\":5199:5203   */\n      dup2\n        /* \"#utility.yul\":5073:5204   */\n      tag_102\n      jump\t// in\n    tag_152:\n        /* \"#utility.yul\":5065:5204   */\n      swap1\n      pop\n        /* \"#utility.yul\":4792:5211   */\n      swap2\n      swap1\n      pop\n      jump\t// out\n        /* \"#utility.yul\":5217:5371   */\n    tag_103:\n        /* \"#utility.yul\":5357:5363   */\n      0x4e6f706500000000000000000000000000000000000000000000000000000000\n        /* \"#utility.yul\":5353:5354   */\n      0x00\n        /* \"#utility.yul\":5345:5351   */\n      dup3\n        /* \"#utility.yul\":5341:5355   */\n      add\n        /* \"#utility.yul\":5334:5364   */\n      mstore\n        /* \"#utility.yul\":5217:5371   */\n      pop\n      jump\t// out\n        /* \"#utility.yul\":5377:5742   */\n    tag_104:\n        /* \"#utility.yul\":5519:5522   */\n      0x00\n        /* \"#utility.yul\":5540:5606   */\n      tag_155\n        /* \"#utility.yul\":5604:5605   */\n      0x04\n        /* \"#utility.yul\":5599:5602   */\n      dup4\n        /* \"#utility.yul\":5540:5606   */\n      tag_95\n      jump\t// in\n    tag_155:\n        /* \"#utility.yul\":5533:5606   */\n      swap2\n      pop\n        /* \"#utility.yul\":5615:5708   */\n      tag_156\n        /* \"#utility.yul\":5704:5707   */\n      dup3\n        /* \"#utility.yul\":5615:5708   */\n      tag_103\n      jump\t// in\n    tag_156:\n        /* \"#utility.yul\":5733:5735   */\n      0x20\n        /* \"#utility.yul\":5728:5731   */\n      dup3\n        /* \"#utility.yul\":5724:5736   */\n      add\n        /* \"#utility.yul\":5717:5736   */\n      swap1\n      pop\n        /* \"#utility.yul\":5377:5742   */\n      swap2\n      swap1\n      pop\n      jump\t// out\n        /* \"#utility.yul\":5748:6167   */\n    tag_85:\n        /* \"#utility.yul\":5914:5918   */\n      0x00\n        /* \"#utility.yul\":5952:5954   */\n      0x20\n        /* \"#utility.yul\":5941:5950   */\n      dup3\n        /* \"#utility.yul\":5937:5955   */\n      add\n        /* \"#utility.yul\":5929:5955   */\n      swap1\n      pop\n        /* \"#utility.yul\":6001:6010   */\n      dup2\n        /* \"#utility.yul\":5995:5999   */\n      dup2\n        /* \"#utility.yul\":5991:6011   */\n      sub\n        /* \"#utility.yul\":5987:5988   */\n      0x00\n        /* \"#utility.yul\":5976:5985   */\n      dup4\n        /* \"#utility.yul\":5972:5989   */\n      add\n        /* \"#utility.yul\":5965:6012   */\n      mstore\n        /* \"#utility.yul\":6029:6160   */\n      tag_158\n        /* \"#utility.yul\":6155:6159   */\n      dup2\n        /* \"#utility.yul\":6029:6160   */\n      tag_104\n      jump\t// in\n    tag_158:\n        /* \"#utility.yul\":6021:6160   */\n      swap1\n      pop\n        /* \"#utility.yul\":5748:6167   */\n      swap2\n      swap1\n      pop\n      jump\t// out\n\n    auxdata: 0xa26469706673582212203a50f9d6b16dab0ee706e08624ff7ceabff7565a1adb03eccaaeaad94e1d0cd864736f6c63430008120033\n}\n",
				"bytecode": {
					"linkReferences": {},
					"object": "6080604052600160005534801561001557600080fd5b50610739806100256000396000f3fe608060405234801561001057600080fd5b506004361061009e5760003560e01c806395f05c781161006657806395f05c7814610123578063d46300fd1461012d578063dcbf77461461014b578063dde07ac414610155578063fdc4dd0b146101735761009e565b806312a7b914146100a357806335820b7f146100c15780636f89b4c5146100cb5780637938d4c0146100e95780637a72b90314610119575b600080fd5b6100ab6101a3565b6040516100b89190610435565b60405180910390f35b6100c96101ad565b005b6100d36101fb565b6040516100e09190610469565b60405180910390f35b61010360048036038101906100fe91906104b5565b61020c565b6040516101109190610469565b60405180910390f35b6101216102b7565b005b61012b6102c1565b005b61013561030e565b6040516101429190610469565b60405180910390f35b610153610317565b005b61015d610364565b60405161016a9190610469565b60405180910390f35b61018d600480360381019061018891906104b5565b6103b5565b60405161019a9190610435565b60405180910390f35b6000808091505090565b6000600560008190555080156101f8576040517f08c379a00000000000000000000000000000000000000000000000000000000081526004016101ef9061053f565b60405180910390fd5b50565b600080600190506000819250505090565b60008060038361021c91906105fa565b0361027557600060038361023091906105fa565b03610270576040517f08c379a000000000000000000000000000000000000000000000000000000000815260040161026790610677565b60405180910390fd5b6102b1565b600160038361028491906105fa565b0361029d5760038261029691906105fa565b90506102b2565b6003826102aa91906105fa565b90506102b2565b5b919050565b6005600081905550565b600060056000819055508061030b576040517f08c379a00000000000000000000000000000000000000000000000000000000081526004016103029061053f565b60405180910390fd5b50565b60008054905090565b60006103216102b7565b80610361576040517f08c379a00000000000000000000000000000000000000000000000000000000081526004016103589061053f565b60405180910390fd5b50565b600080600190506000806103ad576040517f08c379a00000000000000000000000000000000000000000000000000000000081526004016103a4906105ab565b60405180910390fd5b819250505090565b6000806005836103c591906105fa565b1480156103d25750600a82115b610411576040517f08c379a0000000000000000000000000000000000000000000000000000000008152600401610408906106e3565b60405180910390fd5b60019050919050565b60008115159050919050565b61042f8161041a565b82525050565b600060208201905061044a6000830184610426565b92915050565b6000819050919050565b61046381610450565b82525050565b600060208201905061047e600083018461045a565b92915050565b600080fd5b61049281610450565b811461049d57600080fd5b50565b6000813590506104af81610489565b92915050565b6000602082840312156104cb576104ca610484565b5b60006104d9848285016104a0565b91505092915050565b600082825260208201905092915050565b7f6572726f72000000000000000000000000000000000000000000000000000000600082015250565b60006105296005836104e2565b9150610534826104f3565b602082019050919050565b600060208201905081810360008301526105588161051c565b9050919050565b7f4572726f72000000000000000000000000000000000000000000000000000000600082015250565b60006105956005836104e2565b91506105a08261055f565b602082019050919050565b600060208201905081810360008301526105c481610588565b9050919050565b7f4e487b7100000000000000000000000000000000000000000000000000000000600052601260045260246000fd5b600061060582610450565b915061061083610450565b9250826106205761061f6105cb565b5b828206905092915050565b7f6e6f706500000000000000000000000000000000000000000000000000000000600082015250565b60006106616004836104e2565b915061066c8261062b565b602082019050919050565b6000602082019050818103600083015261069081610654565b9050919050565b7f4e6f706500000000000000000000000000000000000000000000000000000000600082015250565b60006106cd6004836104e2565b91506106d882610697565b602082019050919050565b600060208201905081810360008301526106fc816106c0565b905091905056fea26469706673582212203a50f9d6b16dab0ee706e08624ff7ceabff7565a1adb03eccaaeaad94e1d0cd864736f6c63430008120033",
					"opcodes": "PUSH1 0x80 PUSH1 0x40 MSTORE PUSH1 0x1 PUSH1 0x0 SSTORE CALLVALUE DUP1 ISZERO PUSH2 0x15 JUMPI PUSH1 0x0 DUP1 REVERT JUMPDEST POP PUSH2 0x739 DUP1 PUSH2 0x25 PUSH1 0x0 CODECOPY PUSH1 0x0 RETURN INVALID PUSH1 0x80 PUSH1 0x40 MSTORE CALLVALUE DUP1 ISZERO PUSH2 0x10 JUMPI PUSH1 0x0 DUP1 REVERT JUMPDEST POP PUSH1 0x4 CALLDATASIZE LT PUSH2 0x9E JUMPI PUSH1 0x0 CALLDATALOAD PUSH1 0xE0 SHR DUP1 PUSH4 0x95F05C78 GT PUSH2 0x66 JUMPI DUP1 PUSH4 0x95F05C78 EQ PUSH2 0x123 JUMPI DUP1 PUSH4 0xD46300FD EQ PUSH2 0x12D JUMPI DUP1 PUSH4 0xDCBF7746 EQ PUSH2 0x14B JUMPI DUP1 PUSH4 0xDDE07AC4 EQ PUSH2 0x155 JUMPI DUP1 PUSH4 0xFDC4DD0B EQ PUSH2 0x173 JUMPI PUSH2 0x9E JUMP JUMPDEST DUP1 PUSH4 0x12A7B914 EQ PUSH2 0xA3 JUMPI DUP1 PUSH4 0x35820B7F EQ PUSH2 0xC1 JUMPI DUP1 PUSH4 0x6F89B4C5 EQ PUSH2 0xCB JUMPI DUP1 PUSH4 0x7938D4C0 EQ PUSH2 0xE9 JUMPI DUP1 PUSH4 0x7A72B903 EQ PUSH2 0x119 JUMPI JUMPDEST PUSH1 0x0 DUP1 REVERT JUMPDEST PUSH2 0xAB PUSH2 0x1A3 JUMP JUMPDEST PUSH1 0x40 MLOAD PUSH2 0xB8 SWAP2 SWAP1 PUSH2 0x435 JUMP JUMPDEST PUSH1 0x40 MLOAD DUP1 SWAP2 SUB SWAP1 RETURN JUMPDEST PUSH2 0xC9 PUSH2 0x1AD JUMP JUMPDEST STOP JUMPDEST PUSH2 0xD3 PUSH2 0x1FB JUMP JUMPDEST PUSH1 0x40 MLOAD PUSH2 0xE0 SWAP2 SWAP1 PUSH2 0x469 JUMP JUMPDEST PUSH1 0x40 MLOAD DUP1 SWAP2 SUB SWAP1 RETURN JUMPDEST PUSH2 0x103 PUSH1 0x4 DUP1 CALLDATASIZE SUB DUP2 ADD SWAP1 PUSH2 0xFE SWAP2 SWAP1 PUSH2 0x4B5 JUMP JUMPDEST PUSH2 0x20C JUMP JUMPDEST PUSH1 0x40 MLOAD PUSH2 0x110 SWAP2 SWAP1 PUSH2 0x469 JUMP JUMPDEST PUSH1 0x40 MLOAD DUP1 SWAP2 SUB SWAP1 RETURN JUMPDEST PUSH2 0x121 PUSH2 0x2B7 JUMP JUMPDEST STOP JUMPDEST PUSH2 0x12B PUSH2 0x2C1 JUMP JUMPDEST STOP JUMPDEST PUSH2 0x135 PUSH2 0x30E JUMP JUMPDEST PUSH1 0x40 MLOAD PUSH2 0x142 SWAP2 SWAP1 PUSH2 0x469 JUMP JUMPDEST PUSH1 0x40 MLOAD DUP1 SWAP2 SUB SWAP1 RETURN JUMPDEST PUSH2 0x153 PUSH2 0x317 JUMP JUMPDEST STOP JUMPDEST PUSH2 0x15D PUSH2 0x364 JUMP JUMPDEST PUSH1 0x40 MLOAD PUSH2 0x16A SWAP2 SWAP1 PUSH2 0x469 JUMP JUMPDEST PUSH1 0x40 MLOAD DUP1 SWAP2 SUB SWAP1 RETURN JUMPDEST PUSH2 0x18D PUSH1 0x4 DUP1 CALLDATASIZE SUB DUP2 ADD SWAP1 PUSH2 0x188 SWAP2 SWAP1 PUSH2 0x4B5 JUMP JUMPDEST PUSH2 0x3B5 JUMP JUMPDEST PUSH1 0x40 MLOAD PUSH2 0x19A SWAP2 SWAP1 PUSH2 0x435 JUMP JUMPDEST PUSH1 0x40 MLOAD DUP1 SWAP2 SUB SWAP1 RETURN JUMPDEST PUSH1 0x0 DUP1 DUP1 SWAP2 POP POP SWAP1 JUMP JUMPDEST PUSH1 0x0 PUSH1 0x5 PUSH1 0x0 DUP2 SWAP1 SSTORE POP DUP1 ISZERO PUSH2 0x1F8 JUMPI PUSH1 0x40 MLOAD PUSH32 0x8C379A000000000000000000000000000000000000000000000000000000000 DUP2 MSTORE PUSH1 0x4 ADD PUSH2 0x1EF SWAP1 PUSH2 0x53F JUMP JUMPDEST PUSH1 0x40 MLOAD DUP1 SWAP2 SUB SWAP1 REVERT JUMPDEST POP JUMP JUMPDEST PUSH1 0x0 DUP1 PUSH1 0x1 SWAP1 POP PUSH1 0x0 DUP2 SWAP3 POP POP POP SWAP1 JUMP JUMPDEST PUSH1 0x0 DUP1 PUSH1 0x3 DUP4 PUSH2 0x21C SWAP2 SWAP1 PUSH2 0x5FA JUMP JUMPDEST SUB PUSH2 0x275 JUMPI PUSH1 0x0 PUSH1 0x3 DUP4 PUSH2 0x230 SWAP2 SWAP1 PUSH2 0x5FA JUMP JUMPDEST SUB PUSH2 0x270 JUMPI PUSH1 0x40 MLOAD PUSH32 0x8C379A000000000000000000000000000000000000000000000000000000000 DUP2 MSTORE PUSH1 0x4 ADD PUSH2 0x267 SWAP1 PUSH2 0x677 JUMP JUMPDEST PUSH1 0x40 MLOAD DUP1 SWAP2 SUB SWAP1 REVERT JUMPDEST PUSH2 0x2B1 JUMP JUMPDEST PUSH1 0x1 PUSH1 0x3 DUP4 PUSH2 0x284 SWAP2 SWAP1 PUSH2 0x5FA JUMP JUMPDEST SUB PUSH2 0x29D JUMPI PUSH1 0x3 DUP3 PUSH2 0x296 SWAP2 SWAP1 PUSH2 0x5FA JUMP JUMPDEST SWAP1 POP PUSH2 0x2B2 JUMP JUMPDEST PUSH1 0x3 DUP3 PUSH2 0x2AA SWAP2 SWAP1 PUSH2 0x5FA JUMP JUMPDEST SWAP1 POP PUSH2 0x2B2 JUMP JUMPDEST JUMPDEST SWAP2 SWAP1 POP JUMP JUMPDEST PUSH1 0x5 PUSH1 0x0 DUP2 SWAP1 SSTORE POP JUMP JUMPDEST PUSH1 0x0 PUSH1 0x5 PUSH1 0x0 DUP2 SWAP1 SSTORE POP DUP1 PUSH2 0x30B JUMPI PUSH1 0x40 MLOAD PUSH32 0x8C379A000000000000000000000000000000000000000000000000000000000 DUP2 MSTORE PUSH1 0x4 ADD PUSH2 0x302 SWAP1 PUSH2 0x53F JUMP JUMPDEST PUSH1 0x40 MLOAD DUP1 SWAP2 SUB SWAP1 REVERT JUMPDEST POP JUMP JUMPDEST PUSH1 0x0 DUP1 SLOAD SWAP1 POP SWAP1 JUMP JUMPDEST PUSH1 0x0 PUSH2 0x321 PUSH2 0x2B7 JUMP JUMPDEST DUP1 PUSH2 0x361 JUMPI PUSH1 0x40 MLOAD PUSH32 0x8C379A000000000000000000000000000000000000000000000000000000000 DUP2 MSTORE PUSH1 0x4 ADD PUSH2 0x358 SWAP1 PUSH2 0x53F JUMP JUMPDEST PUSH1 0x40 MLOAD DUP1 SWAP2 SUB SWAP1 REVERT JUMPDEST POP JUMP JUMPDEST PUSH1 0x0 DUP1 PUSH1 0x1 SWAP1 POP PUSH1 0x0 DUP1 PUSH2 0x3AD JUMPI PUSH1 0x40 MLOAD PUSH32 0x8C379A000000000000000000000000000000000000000000000000000000000 DUP2 MSTORE PUSH1 0x4 ADD PUSH2 0x3A4 SWAP1 PUSH2 0x5AB JUMP JUMPDEST PUSH1 0x40 MLOAD DUP1 SWAP2 SUB SWAP1 REVERT JUMPDEST DUP2 SWAP3 POP POP POP SWAP1 JUMP JUMPDEST PUSH1 0x0 DUP1 PUSH1 0x5 DUP4 PUSH2 0x3C5 SWAP2 SWAP1 PUSH2 0x5FA JUMP JUMPDEST EQ DUP1 ISZERO PUSH2 0x3D2 JUMPI POP PUSH1 0xA DUP3 GT JUMPDEST PUSH2 0x411 JUMPI PUSH1 0x40 MLOAD PUSH32 0x8C379A000000000000000000000000000000000000000000000000000000000 DUP2 MSTORE PUSH1 0x4 ADD PUSH2 0x408 SWAP1 PUSH2 0x6E3 JUMP JUMPDEST PUSH1 0x40 MLOAD DUP1 SWAP2 SUB SWAP1 REVERT JUMPDEST PUSH1 0x1 SWAP1 POP SWAP2 SWAP1 POP JUMP JUMPDEST PUSH1 0x0 DUP2 ISZERO ISZERO SWAP1 POP SWAP2 SWAP1 POP JUMP JUMPDEST PUSH2 0x42F DUP2 PUSH2 0x41A JUMP JUMPDEST DUP3 MSTORE POP POP JUMP JUMPDEST PUSH1 0x0 PUSH1 0x20 DUP3 ADD SWAP1 POP PUSH2 0x44A PUSH1 0x0 DUP4 ADD DUP5 PUSH2 0x426 JUMP JUMPDEST SWAP3 SWAP2 POP POP JUMP JUMPDEST PUSH1 0x0 DUP2 SWAP1 POP SWAP2 SWAP1 POP JUMP JUMPDEST PUSH2 0x463 DUP2 PUSH2 0x450 JUMP JUMPDEST DUP3 MSTORE POP POP JUMP JUMPDEST PUSH1 0x0 PUSH1 0x20 DUP3 ADD SWAP1 POP PUSH2 0x47E PUSH1 0x0 DUP4 ADD DUP5 PUSH2 0x45A JUMP JUMPDEST SWAP3 SWAP2 POP POP JUMP JUMPDEST PUSH1 0x0 DUP1 REVERT JUMPDEST PUSH2 0x492 DUP2 PUSH2 0x450 JUMP JUMPDEST DUP2 EQ PUSH2 0x49D JUMPI PUSH1 0x0 DUP1 REVERT JUMPDEST POP JUMP JUMPDEST PUSH1 0x0 DUP2 CALLDATALOAD SWAP1 POP PUSH2 0x4AF DUP2 PUSH2 0x489 JUMP JUMPDEST SWAP3 SWAP2 POP POP JUMP JUMPDEST PUSH1 0x0 PUSH1 0x20 DUP3 DUP5 SUB SLT ISZERO PUSH2 0x4CB JUMPI PUSH2 0x4CA PUSH2 0x484 JUMP JUMPDEST JUMPDEST PUSH1 0x0 PUSH2 0x4D9 DUP5 DUP3 DUP6 ADD PUSH2 0x4A0 JUMP JUMPDEST SWAP2 POP POP SWAP3 SWAP2 POP POP JUMP JUMPDEST PUSH1 0x0 DUP3 DUP3 MSTORE PUSH1 0x20 DUP3 ADD SWAP1 POP SWAP3 SWAP2 POP POP JUMP JUMPDEST PUSH32 0x6572726F72000000000000000000000000000000000000000000000000000000 PUSH1 0x0 DUP3 ADD MSTORE POP JUMP JUMPDEST PUSH1 0x0 PUSH2 0x529 PUSH1 0x5 DUP4 PUSH2 0x4E2 JUMP JUMPDEST SWAP2 POP PUSH2 0x534 DUP3 PUSH2 0x4F3 JUMP JUMPDEST PUSH1 0x20 DUP3 ADD SWAP1 POP SWAP2 SWAP1 POP JUMP JUMPDEST PUSH1 0x0 PUSH1 0x20 DUP3 ADD SWAP1 POP DUP2 DUP2 SUB PUSH1 0x0 DUP4 ADD MSTORE PUSH2 0x558 DUP2 PUSH2 0x51C JUMP JUMPDEST SWAP1 POP SWAP2 SWAP1 POP JUMP JUMPDEST PUSH32 0x4572726F72000000000000000000000000000000000000000000000000000000 PUSH1 0x0 DUP3 ADD MSTORE POP JUMP JUMPDEST PUSH1 0x0 PUSH2 0x595 PUSH1 0x5 DUP4 PUSH2 0x4E2 JUMP JUMPDEST SWAP2 POP PUSH2 0x5A0 DUP3 PUSH2 0x55F JUMP JUMPDEST PUSH1 0x20 DUP3 ADD SWAP1 POP SWAP2 SWAP1 POP JUMP JUMPDEST PUSH1 0x0 PUSH1 0x20 DUP3 ADD SWAP1 POP DUP2 DUP2 SUB PUSH1 0x0 DUP4 ADD MSTORE PUSH2 0x5C4 DUP2 PUSH2 0x588 JUMP JUMPDEST SWAP1 POP SWAP2 SWAP1 POP JUMP JUMPDEST PUSH32 0x4E487B7100000000000000000000000000000000000000000000000000000000 PUSH1 0x0 MSTORE PUSH1 0x12 PUSH1 0x4 MSTORE PUSH1 0x24 PUSH1 0x0 REVERT JUMPDEST PUSH1 0x0 PUSH2 0x605 DUP3 PUSH2 0x450 JUMP JUMPDEST SWAP2 POP PUSH2 0x610 DUP4 PUSH2 0x450 JUMP JUMPDEST SWAP3 POP DUP3 PUSH2 0x620 JUMPI PUSH2 0x61F PUSH2 0x5CB JUMP JUMPDEST JUMPDEST DUP3 DUP3 MOD SWAP1 POP SWAP3 SWAP2 POP POP JUMP JUMPDEST PUSH32 0x6E6F706500000000000000000000000000000000000000000000000000000000 PUSH1 0x0 DUP3 ADD MSTORE POP JUMP JUMPDEST PUSH1 0x0 PUSH2 0x661 PUSH1 0x4 DUP4 PUSH2 0x4E2 JUMP JUMPDEST SWAP2 POP PUSH2 0x66C DUP3 PUSH2 0x62B JUMP JUMPDEST PUSH1 0x20 DUP3 ADD SWAP1 POP SWAP2 SWAP1 POP JUMP JUMPDEST PUSH1 0x0 PUSH1 0x20 DUP3 ADD SWAP1 POP DUP2 DUP2 SUB PUSH1 0x0 DUP4 ADD MSTORE PUSH2 0x690 DUP2 PUSH2 0x654 JUMP JUMPDEST SWAP1 POP SWAP2 SWAP1 POP JUMP JUMPDEST PUSH32 0x4E6F706500000000000000000000000000000000000000000000000000000000 PUSH1 0x0 DUP3 ADD MSTORE POP JUMP JUMPDEST PUSH1 0x0 PUSH2 0x6CD PUSH1 0x4 DUP4 PUSH2 0x4E2 JUMP JUMPDEST SWAP2 POP PUSH2 0x6D8 DUP3 PUSH2 0x697 JUMP JUMPDEST PUSH1 0x20 DUP3 ADD SWAP1 POP SWAP2 SWAP1 POP JUMP JUMPDEST PUSH1 0x0 PUSH1 0x20 DUP3 ADD SWAP1 POP DUP2 DUP2 SUB PUSH1 0x0 DUP4 ADD MSTORE PUSH2 0x6FC DUP2 PUSH2 0x6C0 JUMP JUMPDEST SWAP1 POP SWAP2 SWAP1 POP JUMP INVALID LOG2 PUSH5 0x6970667358 0x22 SLT KECCAK256 GASPRICE POP 0xF9 0xD6 0xB1 PUSH14 0xAB0EE706E08624FF7CEABFF7565A BYTE 0xDB SUB 0xEC 0xCA 0xAE 0xAA 0xD9 0x4E SAR 0xC 0xD8 PUSH5 0x736F6C6343 STOP ADDMOD SLT STOP CALLER "
				},
				"gasEstimates": {
					"creation": {
						"codeDepositCost": "369800",
						"executionCost": "22511",
						"totalCost": "392311"
					},
					"external": {
						"Require1()": "533",
						"Require2()": "400",
						"Require3()": "22567",
						"Require3_2()": "22306",
						"Require4()": "22635",
						"Require5(uint256)": "infinite",
						"Require6(uint256)": "infinite",
						"getA()": "2459",
						"getBool()": "349",
						"setAasFive()": "22347"
					}
				},
				"methodIdentifiers": {
					"Require1()": "dde07ac4",
					"Require2()": "6f89b4c5",
					"Require3()": "95f05c78",
					"Require3_2()": "35820b7f",
					"Require4()": "dcbf7746",
					"Require5(uint256)": "fdc4dd0b",
					"Require6(uint256)": "7938d4c0",
					"getA()": "d46300fd",
					"getBool()": "12a7b914",
					"setAasFive()": "7a72b903"
				}
			},
			"storageLayout": {
				"storage": [
					{
						"astId": 108,
						"contract": "contracts-lecture/230515-1.sol:REQUIRE2",
						"label": "a",
						"offset": 0,
						"slot": "0",
						"type": "t_uint256"
					}
				],
				"types": {
					"t_uint256": {
						"encoding": "inplace",
						"label": "uint256",
						"numberOfBytes": "32"
					}
				}
			},
			"userdoc": {
				"kind": "user",
				"methods": {},
				"version": 1
			}
		}
	}
}