{
	"contracts-lecture/230511-practice.sol": {
		"practice": {
			"abi": [
				{
					"inputs": [],
					"name": "getAllStudents",
					"outputs": [
						{
							"components": [
								{
									"internalType": "string",
									"name": "name",
									"type": "string"
								},
								{
									"internalType": "uint256",
									"name": "number",
									"type": "uint256"
								},
								{
									"internalType": "uint256",
									"name": "score",
									"type": "uint256"
								},
								{
									"internalType": "string",
									"name": "credit",
									"type": "string"
								},
								{
									"internalType": "string[]",
									"name": "classes",
									"type": "string[]"
								}
							],
							"internalType": "struct practice.Student[]",
							"name": "",
							"type": "tuple[]"
						}
					],
					"stateMutability": "view",
					"type": "function"
				},
				{
					"inputs": [],
					"name": "getAvg",
					"outputs": [
						{
							"internalType": "uint256",
							"name": "",
							"type": "uint256"
						}
					],
					"stateMutability": "view",
					"type": "function"
				},
				{
					"inputs": [
						{
							"internalType": "string",
							"name": "_name",
							"type": "string"
						}
					],
					"name": "getStudentByName",
					"outputs": [
						{
							"components": [
								{
									"internalType": "string",
									"name": "name",
									"type": "string"
								},
								{
									"internalType": "uint256",
									"name": "number",
									"type": "uint256"
								},
								{
									"internalType": "uint256",
									"name": "score",
									"type": "uint256"
								},
								{
									"internalType": "string",
									"name": "credit",
									"type": "string"
								},
								{
									"internalType": "string[]",
									"name": "classes",
									"type": "string[]"
								}
							],
							"internalType": "struct practice.Student",
							"name": "",
							"type": "tuple"
						}
					],
					"stateMutability": "view",
					"type": "function"
				},
				{
					"inputs": [
						{
							"internalType": "uint256",
							"name": "_number",
							"type": "uint256"
						}
					],
					"name": "getStudentByNumber",
					"outputs": [
						{
							"components": [
								{
									"internalType": "string",
									"name": "name",
									"type": "string"
								},
								{
									"internalType": "uint256",
									"name": "number",
									"type": "uint256"
								},
								{
									"internalType": "uint256",
									"name": "score",
									"type": "uint256"
								},
								{
									"internalType": "string",
									"name": "credit",
									"type": "string"
								},
								{
									"internalType": "string[]",
									"name": "classes",
									"type": "string[]"
								}
							],
							"internalType": "struct practice.Student",
							"name": "",
							"type": "tuple"
						}
					],
					"stateMutability": "view",
					"type": "function"
				},
				{
					"inputs": [],
					"name": "getStudentsNum",
					"outputs": [
						{
							"internalType": "uint256",
							"name": "",
							"type": "uint256"
						}
					],
					"stateMutability": "view",
					"type": "function"
				},
				{
					"inputs": [
						{
							"internalType": "string",
							"name": "_name",
							"type": "string"
						},
						{
							"internalType": "uint256",
							"name": "_score",
							"type": "uint256"
						},
						{
							"internalType": "string[]",
							"name": "_classes",
							"type": "string[]"
						}
					],
					"name": "pushStudent",
					"outputs": [],
					"stateMutability": "nonpayable",
					"type": "function"
				},
				{
					"inputs": [],
					"name": "selfEval",
					"outputs": [
						{
							"internalType": "bool",
							"name": "",
							"type": "bool"
						}
					],
					"stateMutability": "view",
					"type": "function"
				},
				{
					"inputs": [
						{
							"internalType": "uint256",
							"name": "_score",
							"type": "uint256"
						}
					],
					"name": "setCredit",
					"outputs": [
						{
							"internalType": "string",
							"name": "",
							"type": "string"
						}
					],
					"stateMutability": "pure",
					"type": "function"
				}
			],
			"devdoc": {
				"kind": "dev",
				"methods": {},
				"version": 1
			},
			"evm": {
				"assembly": "    /* \"contracts-lecture/230511-practice.sol\":63:3023  contract practice {... */\n  mstore(0x40, 0x80)\n  callvalue\n  dup1\n  iszero\n  tag_1\n  jumpi\n  0x00\n  dup1\n  revert\ntag_1:\n  pop\n  dataSize(sub_0)\n  dup1\n  dataOffset(sub_0)\n  0x00\n  codecopy\n  0x00\n  return\nstop\n\nsub_0: assembly {\n        /* \"contracts-lecture/230511-practice.sol\":63:3023  contract practice {... */\n      mstore(0x40, 0x80)\n      callvalue\n      dup1\n      iszero\n      tag_1\n      jumpi\n      0x00\n      dup1\n      revert\n    tag_1:\n      pop\n      jumpi(tag_2, lt(calldatasize, 0x04))\n      shr(0xe0, calldataload(0x00))\n      dup1\n      0xa05ab6d0\n      gt\n      tag_11\n      jumpi\n      dup1\n      0xa05ab6d0\n      eq\n      tag_7\n      jumpi\n      dup1\n      0xa41f985e\n      eq\n      tag_8\n      jumpi\n      dup1\n      0xe9e30927\n      eq\n      tag_9\n      jumpi\n      dup1\n      0xeac1d5b7\n      eq\n      tag_10\n      jumpi\n      jump(tag_2)\n    tag_11:\n      dup1\n      0x390b6a4c\n      eq\n      tag_3\n      jumpi\n      dup1\n      0x74aa6858\n      eq\n      tag_4\n      jumpi\n      dup1\n      0x7674f2d8\n      eq\n      tag_5\n      jumpi\n      dup1\n      0x83b41ad8\n      eq\n      tag_6\n      jumpi\n    tag_2:\n      0x00\n      dup1\n      revert\n        /* \"contracts-lecture/230511-practice.sol\":2386:2611  function getAvg() public view returns(uint) {... */\n    tag_3:\n      tag_12\n      tag_13\n      jump\t// in\n    tag_12:\n      mload(0x40)\n      tag_14\n      swap2\n      swap1\n      tag_15\n      jump\t// in\n    tag_14:\n      mload(0x40)\n      dup1\n      swap2\n      sub\n      swap1\n      return\n        /* \"contracts-lecture/230511-practice.sol\":1064:1356  function pushStudent(string memory _name, uint _score, string[] memory _classes) public {... */\n    tag_4:\n      tag_16\n      0x04\n      dup1\n      calldatasize\n      sub\n      dup2\n      add\n      swap1\n      tag_17\n      swap2\n      swap1\n      tag_18\n      jump\t// in\n    tag_17:\n      tag_19\n      jump\t// in\n    tag_16:\n      stop\n        /* \"contracts-lecture/230511-practice.sol\":1984:2075  function getStudentsNum() public view returns(uint) {... */\n    tag_5:\n      tag_20\n      tag_21\n      jump\t// in\n    tag_20:\n      mload(0x40)\n      tag_22\n      swap2\n      swap1\n      tag_15\n      jump\t// in\n    tag_22:\n      mload(0x40)\n      dup1\n      swap2\n      sub\n      swap1\n      return\n        /* \"contracts-lecture/230511-practice.sol\":1759:1885  function getStudentByName(string memory _name) public view returns(Student memory) {... */\n    tag_6:\n      tag_23\n      0x04\n      dup1\n      calldatasize\n      sub\n      dup2\n      add\n      swap1\n      tag_24\n      swap2\n      swap1\n      tag_25\n      jump\t// in\n    tag_24:\n      tag_26\n      jump\t// in\n    tag_23:\n      mload(0x40)\n      tag_27\n      swap2\n      swap1\n      tag_28\n      jump\t// in\n    tag_27:\n      mload(0x40)\n      dup1\n      swap2\n      sub\n      swap1\n      return\n        /* \"contracts-lecture/230511-practice.sol\":2754:2915  function selfEval() public view returns(bool) {... */\n    tag_7:\n      tag_29\n      tag_30\n      jump\t// in\n    tag_29:\n      mload(0x40)\n      tag_31\n      swap2\n      swap1\n      tag_32\n      jump\t// in\n    tag_31:\n      mload(0x40)\n      dup1\n      swap2\n      sub\n      swap1\n      return\n        /* \"contracts-lecture/230511-practice.sol\":1476:1597  function getStudentByNumber(uint _number) public view returns(Student memory) {... */\n    tag_8:\n      tag_33\n      0x04\n      dup1\n      calldatasize\n      sub\n      dup2\n      add\n      swap1\n      tag_34\n      swap2\n      swap1\n      tag_35\n      jump\t// in\n    tag_34:\n      tag_36\n      jump\t// in\n    tag_33:\n      mload(0x40)\n      tag_37\n      swap2\n      swap1\n      tag_28\n      jump\t// in\n    tag_37:\n      mload(0x40)\n      dup1\n      swap2\n      sub\n      swap1\n      return\n        /* \"contracts-lecture/230511-practice.sol\":2181:2277  function getAllStudents() public view returns(Student[] memory) {... */\n    tag_9:\n      tag_38\n      tag_39\n      jump\t// in\n    tag_38:\n      mload(0x40)\n      tag_40\n      swap2\n      swap1\n      tag_41\n      jump\t// in\n    tag_40:\n      mload(0x40)\n      dup1\n      swap2\n      sub\n      swap1\n      return\n        /* \"contracts-lecture/230511-practice.sol\":638:992  function setCredit(uint _score) public pure returns(string memory) {... */\n    tag_10:\n      tag_42\n      0x04\n      dup1\n      calldatasize\n      sub\n      dup2\n      add\n      swap1\n      tag_43\n      swap2\n      swap1\n      tag_35\n      jump\t// in\n    tag_43:\n      tag_44\n      jump\t// in\n    tag_42:\n      mload(0x40)\n      tag_45\n      swap2\n      swap1\n      tag_46\n      jump\t// in\n    tag_45:\n      mload(0x40)\n      dup1\n      swap2\n      sub\n      swap1\n      return\n        /* \"contracts-lecture/230511-practice.sol\":2386:2611  function getAvg() public view returns(uint) {... */\n    tag_13:\n        /* \"contracts-lecture/230511-practice.sol\":2424:2428  uint */\n      0x00\n        /* \"contracts-lecture/230511-practice.sol\":2440:2455  uint totalScore */\n      dup1\n        /* \"contracts-lecture/230511-practice.sol\":2470:2476  uint i */\n      0x00\n        /* \"contracts-lecture/230511-practice.sol\":2465:2560  for (uint i=0; i<students.length; i++) {... */\n    tag_48:\n        /* \"contracts-lecture/230511-practice.sol\":2482:2490  students */\n      0x00\n        /* \"contracts-lecture/230511-practice.sol\":2482:2497  students.length */\n      dup1\n      sload\n      swap1\n      pop\n        /* \"contracts-lecture/230511-practice.sol\":2480:2481  i */\n      dup2\n        /* \"contracts-lecture/230511-practice.sol\":2480:2497  i<students.length */\n      lt\n        /* \"contracts-lecture/230511-practice.sol\":2465:2560  for (uint i=0; i<students.length; i++) {... */\n      iszero\n      tag_49\n      jumpi\n        /* \"contracts-lecture/230511-practice.sol\":2532:2540  students */\n      0x00\n        /* \"contracts-lecture/230511-practice.sol\":2541:2542  i */\n      dup2\n        /* \"contracts-lecture/230511-practice.sol\":2532:2543  students[i] */\n      dup2\n      sload\n      dup2\n      lt\n      tag_51\n      jumpi\n      tag_52\n      tag_53\n      jump\t// in\n    tag_52:\n    tag_51:\n      swap1\n      0x00\n      mstore\n      keccak256(0x00, 0x20)\n      swap1\n      0x05\n      mul\n      add\n        /* \"contracts-lecture/230511-practice.sol\":2532:2549  students[i].score */\n      0x02\n      add\n      sload\n        /* \"contracts-lecture/230511-practice.sol\":2518:2549  totalScore += students[i].score */\n      dup3\n      tag_55\n      swap2\n      swap1\n      tag_56\n      jump\t// in\n    tag_55:\n      swap2\n      pop\n        /* \"contracts-lecture/230511-practice.sol\":2499:2502  i++ */\n      dup1\n      dup1\n      tag_57\n      swap1\n      tag_58\n      jump\t// in\n    tag_57:\n      swap2\n      pop\n      pop\n        /* \"contracts-lecture/230511-practice.sol\":2465:2560  for (uint i=0; i<students.length; i++) {... */\n      jump(tag_48)\n    tag_49:\n      pop\n        /* \"contracts-lecture/230511-practice.sol\":2589:2597  students */\n      0x00\n        /* \"contracts-lecture/230511-practice.sol\":2589:2604  students.length */\n      dup1\n      sload\n      swap1\n      pop\n        /* \"contracts-lecture/230511-practice.sol\":2576:2586  totalScore */\n      dup2\n        /* \"contracts-lecture/230511-practice.sol\":2576:2604  totalScore / students.length */\n      tag_59\n      swap2\n      swap1\n      tag_60\n      jump\t// in\n    tag_59:\n        /* \"contracts-lecture/230511-practice.sol\":2569:2604  return totalScore / students.length */\n      swap2\n      pop\n      pop\n        /* \"contracts-lecture/230511-practice.sol\":2386:2611  function getAvg() public view returns(uint) {... */\n      swap1\n      jump\t// out\n        /* \"contracts-lecture/230511-practice.sol\":1064:1356  function pushStudent(string memory _name, uint _score, string[] memory _classes) public {... */\n    tag_19:\n        /* \"contracts-lecture/230511-practice.sol\":1162:1170  students */\n      0x00\n        /* \"contracts-lecture/230511-practice.sol\":1176:1246  Student(_name, students.length+1, _score, setCredit(_score), _classes) */\n      mload(0x40)\n      dup1\n      0xa0\n      add\n      0x40\n      mstore\n      dup1\n        /* \"contracts-lecture/230511-practice.sol\":1184:1189  _name */\n      dup6\n        /* \"contracts-lecture/230511-practice.sol\":1176:1246  Student(_name, students.length+1, _score, setCredit(_score), _classes) */\n      dup2\n      mstore\n      0x20\n      add\n        /* \"contracts-lecture/230511-practice.sol\":1207:1208  1 */\n      0x01\n        /* \"contracts-lecture/230511-practice.sol\":1191:1199  students */\n      0x00\n        /* \"contracts-lecture/230511-practice.sol\":1191:1206  students.length */\n      dup1\n      sload\n      swap1\n      pop\n        /* \"contracts-lecture/230511-practice.sol\":1191:1208  students.length+1 */\n      tag_62\n      swap2\n      swap1\n      tag_56\n      jump\t// in\n    tag_62:\n        /* \"contracts-lecture/230511-practice.sol\":1176:1246  Student(_name, students.length+1, _score, setCredit(_score), _classes) */\n      dup2\n      mstore\n      0x20\n      add\n        /* \"contracts-lecture/230511-practice.sol\":1210:1216  _score */\n      dup5\n        /* \"contracts-lecture/230511-practice.sol\":1176:1246  Student(_name, students.length+1, _score, setCredit(_score), _classes) */\n      dup2\n      mstore\n      0x20\n      add\n        /* \"contracts-lecture/230511-practice.sol\":1218:1235  setCredit(_score) */\n      tag_63\n        /* \"contracts-lecture/230511-practice.sol\":1228:1234  _score */\n      dup6\n        /* \"contracts-lecture/230511-practice.sol\":1218:1227  setCredit */\n      tag_44\n        /* \"contracts-lecture/230511-practice.sol\":1218:1235  setCredit(_score) */\n      jump\t// in\n    tag_63:\n        /* \"contracts-lecture/230511-practice.sol\":1176:1246  Student(_name, students.length+1, _score, setCredit(_score), _classes) */\n      dup2\n      mstore\n      0x20\n      add\n        /* \"contracts-lecture/230511-practice.sol\":1237:1245  _classes */\n      dup4\n        /* \"contracts-lecture/230511-practice.sol\":1176:1246  Student(_name, students.length+1, _score, setCredit(_score), _classes) */\n      dup2\n      mstore\n      pop\n        /* \"contracts-lecture/230511-practice.sol\":1162:1247  students.push(Student(_name, students.length+1, _score, setCredit(_score), _classes)) */\n      swap1\n      dup1\n      0x01\n      dup2\n      sload\n      add\n      dup1\n      dup3\n      sstore\n      dup1\n      swap2\n      pop\n      pop\n      0x01\n      swap1\n      sub\n      swap1\n      0x00\n      mstore\n      keccak256(0x00, 0x20)\n      swap1\n      0x05\n      mul\n      add\n      0x00\n      swap1\n      swap2\n      swap1\n      swap2\n      swap1\n      swap2\n      pop\n      0x00\n      dup3\n      add\n      mload\n      dup2\n      0x00\n      add\n      swap1\n      dup2\n      tag_65\n      swap2\n      swap1\n      tag_66\n      jump\t// in\n    tag_65:\n      pop\n      0x20\n      dup3\n      add\n      mload\n      dup2\n      0x01\n      add\n      sstore\n      0x40\n      dup3\n      add\n      mload\n      dup2\n      0x02\n      add\n      sstore\n      0x60\n      dup3\n      add\n      mload\n      dup2\n      0x03\n      add\n      swap1\n      dup2\n      tag_67\n      swap2\n      swap1\n      tag_66\n      jump\t// in\n    tag_67:\n      pop\n      0x80\n      dup3\n      add\n      mload\n      dup2\n      0x04\n      add\n      swap1\n      dup1\n      mload\n      swap1\n      0x20\n      add\n      swap1\n      tag_68\n      swap3\n      swap2\n      swap1\n      tag_69\n      jump\t// in\n    tag_68:\n      pop\n      pop\n      pop\n        /* \"contracts-lecture/230511-practice.sol\":1279:1349  Student(_name, students.length+1, _score, setCredit(_score), _classes) */\n      mload(0x40)\n      dup1\n      0xa0\n      add\n      0x40\n      mstore\n      dup1\n        /* \"contracts-lecture/230511-practice.sol\":1287:1292  _name */\n      dup5\n        /* \"contracts-lecture/230511-practice.sol\":1279:1349  Student(_name, students.length+1, _score, setCredit(_score), _classes) */\n      dup2\n      mstore\n      0x20\n      add\n        /* \"contracts-lecture/230511-practice.sol\":1310:1311  1 */\n      0x01\n        /* \"contracts-lecture/230511-practice.sol\":1294:1302  students */\n      0x00\n        /* \"contracts-lecture/230511-practice.sol\":1294:1309  students.length */\n      dup1\n      sload\n      swap1\n      pop\n        /* \"contracts-lecture/230511-practice.sol\":1294:1311  students.length+1 */\n      tag_70\n      swap2\n      swap1\n      tag_56\n      jump\t// in\n    tag_70:\n        /* \"contracts-lecture/230511-practice.sol\":1279:1349  Student(_name, students.length+1, _score, setCredit(_score), _classes) */\n      dup2\n      mstore\n      0x20\n      add\n        /* \"contracts-lecture/230511-practice.sol\":1313:1319  _score */\n      dup4\n        /* \"contracts-lecture/230511-practice.sol\":1279:1349  Student(_name, students.length+1, _score, setCredit(_score), _classes) */\n      dup2\n      mstore\n      0x20\n      add\n        /* \"contracts-lecture/230511-practice.sol\":1321:1338  setCredit(_score) */\n      tag_71\n        /* \"contracts-lecture/230511-practice.sol\":1331:1337  _score */\n      dup5\n        /* \"contracts-lecture/230511-practice.sol\":1321:1330  setCredit */\n      tag_44\n        /* \"contracts-lecture/230511-practice.sol\":1321:1338  setCredit(_score) */\n      jump\t// in\n    tag_71:\n        /* \"contracts-lecture/230511-practice.sol\":1279:1349  Student(_name, students.length+1, _score, setCredit(_score), _classes) */\n      dup2\n      mstore\n      0x20\n      add\n        /* \"contracts-lecture/230511-practice.sol\":1340:1348  _classes */\n      dup3\n        /* \"contracts-lecture/230511-practice.sol\":1279:1349  Student(_name, students.length+1, _score, setCredit(_score), _classes) */\n      dup2\n      mstore\n      pop\n        /* \"contracts-lecture/230511-practice.sol\":1257:1269  name_Student */\n      0x01\n        /* \"contracts-lecture/230511-practice.sol\":1270:1275  _name */\n      dup5\n        /* \"contracts-lecture/230511-practice.sol\":1257:1276  name_Student[_name] */\n      mload(0x40)\n      tag_72\n      swap2\n      swap1\n      tag_73\n      jump\t// in\n    tag_72:\n      swap1\n      dup2\n      mstore\n      0x20\n      add\n      mload(0x40)\n      dup1\n      swap2\n      sub\n      swap1\n      keccak256\n        /* \"contracts-lecture/230511-practice.sol\":1257:1349  name_Student[_name] = Student(_name, students.length+1, _score, setCredit(_score), _classes) */\n      0x00\n      dup3\n      add\n      mload\n      dup2\n      0x00\n      add\n      swap1\n      dup2\n      tag_74\n      swap2\n      swap1\n      tag_66\n      jump\t// in\n    tag_74:\n      pop\n      0x20\n      dup3\n      add\n      mload\n      dup2\n      0x01\n      add\n      sstore\n      0x40\n      dup3\n      add\n      mload\n      dup2\n      0x02\n      add\n      sstore\n      0x60\n      dup3\n      add\n      mload\n      dup2\n      0x03\n      add\n      swap1\n      dup2\n      tag_75\n      swap2\n      swap1\n      tag_66\n      jump\t// in\n    tag_75:\n      pop\n      0x80\n      dup3\n      add\n      mload\n      dup2\n      0x04\n      add\n      swap1\n      dup1\n      mload\n      swap1\n      0x20\n      add\n      swap1\n      tag_76\n      swap3\n      swap2\n      swap1\n      tag_69\n      jump\t// in\n    tag_76:\n      pop\n      swap1\n      pop\n      pop\n        /* \"contracts-lecture/230511-practice.sol\":1064:1356  function pushStudent(string memory _name, uint _score, string[] memory _classes) public {... */\n      pop\n      pop\n      pop\n      jump\t// out\n        /* \"contracts-lecture/230511-practice.sol\":1984:2075  function getStudentsNum() public view returns(uint) {... */\n    tag_21:\n        /* \"contracts-lecture/230511-practice.sol\":2030:2034  uint */\n      0x00\n        /* \"contracts-lecture/230511-practice.sol\":2053:2061  students */\n      dup1\n        /* \"contracts-lecture/230511-practice.sol\":2053:2068  students.length */\n      dup1\n      sload\n      swap1\n      pop\n        /* \"contracts-lecture/230511-practice.sol\":2046:2068  return students.length */\n      swap1\n      pop\n        /* \"contracts-lecture/230511-practice.sol\":1984:2075  function getStudentsNum() public view returns(uint) {... */\n      swap1\n      jump\t// out\n        /* \"contracts-lecture/230511-practice.sol\":1759:1885  function getStudentByName(string memory _name) public view returns(Student memory) {... */\n    tag_26:\n        /* \"contracts-lecture/230511-practice.sol\":1826:1840  Student memory */\n      tag_78\n      tag_79\n      jump\t// in\n    tag_78:\n        /* \"contracts-lecture/230511-practice.sol\":1859:1871  name_Student */\n      0x01\n        /* \"contracts-lecture/230511-practice.sol\":1872:1877  _name */\n      dup3\n        /* \"contracts-lecture/230511-practice.sol\":1859:1878  name_Student[_name] */\n      mload(0x40)\n      tag_81\n      swap2\n      swap1\n      tag_73\n      jump\t// in\n    tag_81:\n      swap1\n      dup2\n      mstore\n      0x20\n      add\n      mload(0x40)\n      dup1\n      swap2\n      sub\n      swap1\n      keccak256\n        /* \"contracts-lecture/230511-practice.sol\":1852:1878  return name_Student[_name] */\n      mload(0x40)\n      dup1\n      0xa0\n      add\n      0x40\n      mstore\n      swap1\n      dup2\n      0x00\n      dup3\n      add\n      dup1\n      sload\n      tag_82\n      swap1\n      tag_83\n      jump\t// in\n    tag_82:\n      dup1\n      0x1f\n      add\n      0x20\n      dup1\n      swap2\n      div\n      mul\n      0x20\n      add\n      mload(0x40)\n      swap1\n      dup2\n      add\n      0x40\n      mstore\n      dup1\n      swap3\n      swap2\n      swap1\n      dup2\n      dup2\n      mstore\n      0x20\n      add\n      dup3\n      dup1\n      sload\n      tag_84\n      swap1\n      tag_83\n      jump\t// in\n    tag_84:\n      dup1\n      iszero\n      tag_85\n      jumpi\n      dup1\n      0x1f\n      lt\n      tag_86\n      jumpi\n      0x0100\n      dup1\n      dup4\n      sload\n      div\n      mul\n      dup4\n      mstore\n      swap2\n      0x20\n      add\n      swap2\n      jump(tag_85)\n    tag_86:\n      dup3\n      add\n      swap2\n      swap1\n      0x00\n      mstore\n      keccak256(0x00, 0x20)\n      swap1\n    tag_87:\n      dup2\n      sload\n      dup2\n      mstore\n      swap1\n      0x01\n      add\n      swap1\n      0x20\n      add\n      dup1\n      dup4\n      gt\n      tag_87\n      jumpi\n      dup3\n      swap1\n      sub\n      0x1f\n      and\n      dup3\n      add\n      swap2\n    tag_85:\n      pop\n      pop\n      pop\n      pop\n      pop\n      dup2\n      mstore\n      0x20\n      add\n      0x01\n      dup3\n      add\n      sload\n      dup2\n      mstore\n      0x20\n      add\n      0x02\n      dup3\n      add\n      sload\n      dup2\n      mstore\n      0x20\n      add\n      0x03\n      dup3\n      add\n      dup1\n      sload\n      tag_88\n      swap1\n      tag_83\n      jump\t// in\n    tag_88:\n      dup1\n      0x1f\n      add\n      0x20\n      dup1\n      swap2\n      div\n      mul\n      0x20\n      add\n      mload(0x40)\n      swap1\n      dup2\n      add\n      0x40\n      mstore\n      dup1\n      swap3\n      swap2\n      swap1\n      dup2\n      dup2\n      mstore\n      0x20\n      add\n      dup3\n      dup1\n      sload\n      tag_89\n      swap1\n      tag_83\n      jump\t// in\n    tag_89:\n      dup1\n      iszero\n      tag_90\n      jumpi\n      dup1\n      0x1f\n      lt\n      tag_91\n      jumpi\n      0x0100\n      dup1\n      dup4\n      sload\n      div\n      mul\n      dup4\n      mstore\n      swap2\n      0x20\n      add\n      swap2\n      jump(tag_90)\n    tag_91:\n      dup3\n      add\n      swap2\n      swap1\n      0x00\n      mstore\n      keccak256(0x00, 0x20)\n      swap1\n    tag_92:\n      dup2\n      sload\n      dup2\n      mstore\n      swap1\n      0x01\n      add\n      swap1\n      0x20\n      add\n      dup1\n      dup4\n      gt\n      tag_92\n      jumpi\n      dup3\n      swap1\n      sub\n      0x1f\n      and\n      dup3\n      add\n      swap2\n    tag_90:\n      pop\n      pop\n      pop\n      pop\n      pop\n      dup2\n      mstore\n      0x20\n      add\n      0x04\n      dup3\n      add\n      dup1\n      sload\n      dup1\n      0x20\n      mul\n      0x20\n      add\n      mload(0x40)\n      swap1\n      dup2\n      add\n      0x40\n      mstore\n      dup1\n      swap3\n      swap2\n      swap1\n      dup2\n      dup2\n      mstore\n      0x20\n      add\n      0x00\n      swap1\n    tag_93:\n      dup3\n      dup3\n      lt\n      iszero\n      tag_94\n      jumpi\n      dup4\n      dup3\n      swap1\n      0x00\n      mstore\n      keccak256(0x00, 0x20)\n      add\n      dup1\n      sload\n      tag_96\n      swap1\n      tag_83\n      jump\t// in\n    tag_96:\n      dup1\n      0x1f\n      add\n      0x20\n      dup1\n      swap2\n      div\n      mul\n      0x20\n      add\n      mload(0x40)\n      swap1\n      dup2\n      add\n      0x40\n      mstore\n      dup1\n      swap3\n      swap2\n      swap1\n      dup2\n      dup2\n      mstore\n      0x20\n      add\n      dup3\n      dup1\n      sload\n      tag_97\n      swap1\n      tag_83\n      jump\t// in\n    tag_97:\n      dup1\n      iszero\n      tag_98\n      jumpi\n      dup1\n      0x1f\n      lt\n      tag_99\n      jumpi\n      0x0100\n      dup1\n      dup4\n      sload\n      div\n      mul\n      dup4\n      mstore\n      swap2\n      0x20\n      add\n      swap2\n      jump(tag_98)\n    tag_99:\n      dup3\n      add\n      swap2\n      swap1\n      0x00\n      mstore\n      keccak256(0x00, 0x20)\n      swap1\n    tag_100:\n      dup2\n      sload\n      dup2\n      mstore\n      swap1\n      0x01\n      add\n      swap1\n      0x20\n      add\n      dup1\n      dup4\n      gt\n      tag_100\n      jumpi\n      dup3\n      swap1\n      sub\n      0x1f\n      and\n      dup3\n      add\n      swap2\n    tag_98:\n      pop\n      pop\n      pop\n      pop\n      pop\n      dup2\n      mstore\n      0x20\n      add\n      swap1\n      0x01\n      add\n      swap1\n      jump(tag_93)\n    tag_94:\n      pop\n      pop\n      pop\n      pop\n      dup2\n      mstore\n      pop\n      pop\n      swap1\n      pop\n        /* \"contracts-lecture/230511-practice.sol\":1759:1885  function getStudentByName(string memory _name) public view returns(Student memory) {... */\n      swap2\n      swap1\n      pop\n      jump\t// out\n        /* \"contracts-lecture/230511-practice.sol\":2754:2915  function selfEval() public view returns(bool) {... */\n    tag_30:\n        /* \"contracts-lecture/230511-practice.sol\":2794:2798  bool */\n      0x00\n        /* \"contracts-lecture/230511-practice.sol\":2826:2828  70 */\n      0x46\n        /* \"contracts-lecture/230511-practice.sol\":2814:2822  getAvg() */\n      tag_102\n        /* \"contracts-lecture/230511-practice.sol\":2814:2820  getAvg */\n      tag_13\n        /* \"contracts-lecture/230511-practice.sol\":2814:2822  getAvg() */\n      jump\t// in\n    tag_102:\n        /* \"contracts-lecture/230511-practice.sol\":2814:2828  getAvg() >= 70 */\n      lt\n        /* \"contracts-lecture/230511-practice.sol\":2810:2909  if (getAvg() >= 70) {... */\n      tag_103\n      jumpi\n        /* \"contracts-lecture/230511-practice.sol\":2851:2855  true */\n      0x01\n        /* \"contracts-lecture/230511-practice.sol\":2844:2855  return true */\n      swap1\n      pop\n      jump(tag_101)\n        /* \"contracts-lecture/230511-practice.sol\":2810:2909  if (getAvg() >= 70) {... */\n    tag_103:\n        /* \"contracts-lecture/230511-practice.sol\":2893:2898  false */\n      0x00\n        /* \"contracts-lecture/230511-practice.sol\":2886:2898  return false */\n      swap1\n      pop\n        /* \"contracts-lecture/230511-practice.sol\":2754:2915  function selfEval() public view returns(bool) {... */\n    tag_101:\n      swap1\n      jump\t// out\n        /* \"contracts-lecture/230511-practice.sol\":1476:1597  function getStudentByNumber(uint _number) public view returns(Student memory) {... */\n    tag_36:\n        /* \"contracts-lecture/230511-practice.sol\":1538:1552  Student memory */\n      tag_105\n      tag_79\n      jump\t// in\n    tag_105:\n        /* \"contracts-lecture/230511-practice.sol\":1571:1579  students */\n      0x00\n        /* \"contracts-lecture/230511-practice.sol\":1588:1589  1 */\n      0x01\n        /* \"contracts-lecture/230511-practice.sol\":1580:1587  _number */\n      dup4\n        /* \"contracts-lecture/230511-practice.sol\":1580:1589  _number-1 */\n      tag_107\n      swap2\n      swap1\n      tag_108\n      jump\t// in\n    tag_107:\n        /* \"contracts-lecture/230511-practice.sol\":1571:1590  students[_number-1] */\n      dup2\n      sload\n      dup2\n      lt\n      tag_109\n      jumpi\n      tag_110\n      tag_53\n      jump\t// in\n    tag_110:\n    tag_109:\n      swap1\n      0x00\n      mstore\n      keccak256(0x00, 0x20)\n      swap1\n      0x05\n      mul\n      add\n        /* \"contracts-lecture/230511-practice.sol\":1564:1590  return students[_number-1] */\n      mload(0x40)\n      dup1\n      0xa0\n      add\n      0x40\n      mstore\n      swap1\n      dup2\n      0x00\n      dup3\n      add\n      dup1\n      sload\n      tag_112\n      swap1\n      tag_83\n      jump\t// in\n    tag_112:\n      dup1\n      0x1f\n      add\n      0x20\n      dup1\n      swap2\n      div\n      mul\n      0x20\n      add\n      mload(0x40)\n      swap1\n      dup2\n      add\n      0x40\n      mstore\n      dup1\n      swap3\n      swap2\n      swap1\n      dup2\n      dup2\n      mstore\n      0x20\n      add\n      dup3\n      dup1\n      sload\n      tag_113\n      swap1\n      tag_83\n      jump\t// in\n    tag_113:\n      dup1\n      iszero\n      tag_114\n      jumpi\n      dup1\n      0x1f\n      lt\n      tag_115\n      jumpi\n      0x0100\n      dup1\n      dup4\n      sload\n      div\n      mul\n      dup4\n      mstore\n      swap2\n      0x20\n      add\n      swap2\n      jump(tag_114)\n    tag_115:\n      dup3\n      add\n      swap2\n      swap1\n      0x00\n      mstore\n      keccak256(0x00, 0x20)\n      swap1\n    tag_116:\n      dup2\n      sload\n      dup2\n      mstore\n      swap1\n      0x01\n      add\n      swap1\n      0x20\n      add\n      dup1\n      dup4\n      gt\n      tag_116\n      jumpi\n      dup3\n      swap1\n      sub\n      0x1f\n      and\n      dup3\n      add\n      swap2\n    tag_114:\n      pop\n      pop\n      pop\n      pop\n      pop\n      dup2\n      mstore\n      0x20\n      add\n      0x01\n      dup3\n      add\n      sload\n      dup2\n      mstore\n      0x20\n      add\n      0x02\n      dup3\n      add\n      sload\n      dup2\n      mstore\n      0x20\n      add\n      0x03\n      dup3\n      add\n      dup1\n      sload\n      tag_117\n      swap1\n      tag_83\n      jump\t// in\n    tag_117:\n      dup1\n      0x1f\n      add\n      0x20\n      dup1\n      swap2\n      div\n      mul\n      0x20\n      add\n      mload(0x40)\n      swap1\n      dup2\n      add\n      0x40\n      mstore\n      dup1\n      swap3\n      swap2\n      swap1\n      dup2\n      dup2\n      mstore\n      0x20\n      add\n      dup3\n      dup1\n      sload\n      tag_118\n      swap1\n      tag_83\n      jump\t// in\n    tag_118:\n      dup1\n      iszero\n      tag_119\n      jumpi\n      dup1\n      0x1f\n      lt\n      tag_120\n      jumpi\n      0x0100\n      dup1\n      dup4\n      sload\n      div\n      mul\n      dup4\n      mstore\n      swap2\n      0x20\n      add\n      swap2\n      jump(tag_119)\n    tag_120:\n      dup3\n      add\n      swap2\n      swap1\n      0x00\n      mstore\n      keccak256(0x00, 0x20)\n      swap1\n    tag_121:\n      dup2\n      sload\n      dup2\n      mstore\n      swap1\n      0x01\n      add\n      swap1\n      0x20\n      add\n      dup1\n      dup4\n      gt\n      tag_121\n      jumpi\n      dup3\n      swap1\n      sub\n      0x1f\n      and\n      dup3\n      add\n      swap2\n    tag_119:\n      pop\n      pop\n      pop\n      pop\n      pop\n      dup2\n      mstore\n      0x20\n      add\n      0x04\n      dup3\n      add\n      dup1\n      sload\n      dup1\n      0x20\n      mul\n      0x20\n      add\n      mload(0x40)\n      swap1\n      dup2\n      add\n      0x40\n      mstore\n      dup1\n      swap3\n      swap2\n      swap1\n      dup2\n      dup2\n      mstore\n      0x20\n      add\n      0x00\n      swap1\n    tag_122:\n      dup3\n      dup3\n      lt\n      iszero\n      tag_123\n      jumpi\n      dup4\n      dup3\n      swap1\n      0x00\n      mstore\n      keccak256(0x00, 0x20)\n      add\n      dup1\n      sload\n      tag_125\n      swap1\n      tag_83\n      jump\t// in\n    tag_125:\n      dup1\n      0x1f\n      add\n      0x20\n      dup1\n      swap2\n      div\n      mul\n      0x20\n      add\n      mload(0x40)\n      swap1\n      dup2\n      add\n      0x40\n      mstore\n      dup1\n      swap3\n      swap2\n      swap1\n      dup2\n      dup2\n      mstore\n      0x20\n      add\n      dup3\n      dup1\n      sload\n      tag_126\n      swap1\n      tag_83\n      jump\t// in\n    tag_126:\n      dup1\n      iszero\n      tag_127\n      jumpi\n      dup1\n      0x1f\n      lt\n      tag_128\n      jumpi\n      0x0100\n      dup1\n      dup4\n      sload\n      div\n      mul\n      dup4\n      mstore\n      swap2\n      0x20\n      add\n      swap2\n      jump(tag_127)\n    tag_128:\n      dup3\n      add\n      swap2\n      swap1\n      0x00\n      mstore\n      keccak256(0x00, 0x20)\n      swap1\n    tag_129:\n      dup2\n      sload\n      dup2\n      mstore\n      swap1\n      0x01\n      add\n      swap1\n      0x20\n      add\n      dup1\n      dup4\n      gt\n      tag_129\n      jumpi\n      dup3\n      swap1\n      sub\n      0x1f\n      and\n      dup3\n      add\n      swap2\n    tag_127:\n      pop\n      pop\n      pop\n      pop\n      pop\n      dup2\n      mstore\n      0x20\n      add\n      swap1\n      0x01\n      add\n      swap1\n      jump(tag_122)\n    tag_123:\n      pop\n      pop\n      pop\n      pop\n      dup2\n      mstore\n      pop\n      pop\n      swap1\n      pop\n        /* \"contracts-lecture/230511-practice.sol\":1476:1597  function getStudentByNumber(uint _number) public view returns(Student memory) {... */\n      swap2\n      swap1\n      pop\n      jump\t// out\n        /* \"contracts-lecture/230511-practice.sol\":2181:2277  function getAllStudents() public view returns(Student[] memory) {... */\n    tag_39:\n        /* \"contracts-lecture/230511-practice.sol\":2227:2243  Student[] memory */\n      0x60\n        /* \"contracts-lecture/230511-practice.sol\":2262:2270  students */\n      0x00\n        /* \"contracts-lecture/230511-practice.sol\":2255:2270  return students */\n      dup1\n      sload\n      dup1\n      0x20\n      mul\n      0x20\n      add\n      mload(0x40)\n      swap1\n      dup2\n      add\n      0x40\n      mstore\n      dup1\n      swap3\n      swap2\n      swap1\n      dup2\n      dup2\n      mstore\n      0x20\n      add\n      0x00\n      swap1\n    tag_131:\n      dup3\n      dup3\n      lt\n      iszero\n      tag_132\n      jumpi\n      dup4\n      dup3\n      swap1\n      0x00\n      mstore\n      keccak256(0x00, 0x20)\n      swap1\n      0x05\n      mul\n      add\n      mload(0x40)\n      dup1\n      0xa0\n      add\n      0x40\n      mstore\n      swap1\n      dup2\n      0x00\n      dup3\n      add\n      dup1\n      sload\n      tag_134\n      swap1\n      tag_83\n      jump\t// in\n    tag_134:\n      dup1\n      0x1f\n      add\n      0x20\n      dup1\n      swap2\n      div\n      mul\n      0x20\n      add\n      mload(0x40)\n      swap1\n      dup2\n      add\n      0x40\n      mstore\n      dup1\n      swap3\n      swap2\n      swap1\n      dup2\n      dup2\n      mstore\n      0x20\n      add\n      dup3\n      dup1\n      sload\n      tag_135\n      swap1\n      tag_83\n      jump\t// in\n    tag_135:\n      dup1\n      iszero\n      tag_136\n      jumpi\n      dup1\n      0x1f\n      lt\n      tag_137\n      jumpi\n      0x0100\n      dup1\n      dup4\n      sload\n      div\n      mul\n      dup4\n      mstore\n      swap2\n      0x20\n      add\n      swap2\n      jump(tag_136)\n    tag_137:\n      dup3\n      add\n      swap2\n      swap1\n      0x00\n      mstore\n      keccak256(0x00, 0x20)\n      swap1\n    tag_138:\n      dup2\n      sload\n      dup2\n      mstore\n      swap1\n      0x01\n      add\n      swap1\n      0x20\n      add\n      dup1\n      dup4\n      gt\n      tag_138\n      jumpi\n      dup3\n      swap1\n      sub\n      0x1f\n      and\n      dup3\n      add\n      swap2\n    tag_136:\n      pop\n      pop\n      pop\n      pop\n      pop\n      dup2\n      mstore\n      0x20\n      add\n      0x01\n      dup3\n      add\n      sload\n      dup2\n      mstore\n      0x20\n      add\n      0x02\n      dup3\n      add\n      sload\n      dup2\n      mstore\n      0x20\n      add\n      0x03\n      dup3\n      add\n      dup1\n      sload\n      tag_139\n      swap1\n      tag_83\n      jump\t// in\n    tag_139:\n      dup1\n      0x1f\n      add\n      0x20\n      dup1\n      swap2\n      div\n      mul\n      0x20\n      add\n      mload(0x40)\n      swap1\n      dup2\n      add\n      0x40\n      mstore\n      dup1\n      swap3\n      swap2\n      swap1\n      dup2\n      dup2\n      mstore\n      0x20\n      add\n      dup3\n      dup1\n      sload\n      tag_140\n      swap1\n      tag_83\n      jump\t// in\n    tag_140:\n      dup1\n      iszero\n      tag_141\n      jumpi\n      dup1\n      0x1f\n      lt\n      tag_142\n      jumpi\n      0x0100\n      dup1\n      dup4\n      sload\n      div\n      mul\n      dup4\n      mstore\n      swap2\n      0x20\n      add\n      swap2\n      jump(tag_141)\n    tag_142:\n      dup3\n      add\n      swap2\n      swap1\n      0x00\n      mstore\n      keccak256(0x00, 0x20)\n      swap1\n    tag_143:\n      dup2\n      sload\n      dup2\n      mstore\n      swap1\n      0x01\n      add\n      swap1\n      0x20\n      add\n      dup1\n      dup4\n      gt\n      tag_143\n      jumpi\n      dup3\n      swap1\n      sub\n      0x1f\n      and\n      dup3\n      add\n      swap2\n    tag_141:\n      pop\n      pop\n      pop\n      pop\n      pop\n      dup2\n      mstore\n      0x20\n      add\n      0x04\n      dup3\n      add\n      dup1\n      sload\n      dup1\n      0x20\n      mul\n      0x20\n      add\n      mload(0x40)\n      swap1\n      dup2\n      add\n      0x40\n      mstore\n      dup1\n      swap3\n      swap2\n      swap1\n      dup2\n      dup2\n      mstore\n      0x20\n      add\n      0x00\n      swap1\n    tag_144:\n      dup3\n      dup3\n      lt\n      iszero\n      tag_145\n      jumpi\n      dup4\n      dup3\n      swap1\n      0x00\n      mstore\n      keccak256(0x00, 0x20)\n      add\n      dup1\n      sload\n      tag_147\n      swap1\n      tag_83\n      jump\t// in\n    tag_147:\n      dup1\n      0x1f\n      add\n      0x20\n      dup1\n      swap2\n      div\n      mul\n      0x20\n      add\n      mload(0x40)\n      swap1\n      dup2\n      add\n      0x40\n      mstore\n      dup1\n      swap3\n      swap2\n      swap1\n      dup2\n      dup2\n      mstore\n      0x20\n      add\n      dup3\n      dup1\n      sload\n      tag_148\n      swap1\n      tag_83\n      jump\t// in\n    tag_148:\n      dup1\n      iszero\n      tag_149\n      jumpi\n      dup1\n      0x1f\n      lt\n      tag_150\n      jumpi\n      0x0100\n      dup1\n      dup4\n      sload\n      div\n      mul\n      dup4\n      mstore\n      swap2\n      0x20\n      add\n      swap2\n      jump(tag_149)\n    tag_150:\n      dup3\n      add\n      swap2\n      swap1\n      0x00\n      mstore\n      keccak256(0x00, 0x20)\n      swap1\n    tag_151:\n      dup2\n      sload\n      dup2\n      mstore\n      swap1\n      0x01\n      add\n      swap1\n      0x20\n      add\n      dup1\n      dup4\n      gt\n      tag_151\n      jumpi\n      dup3\n      swap1\n      sub\n      0x1f\n      and\n      dup3\n      add\n      swap2\n    tag_149:\n      pop\n      pop\n      pop\n      pop\n      pop\n      dup2\n      mstore\n      0x20\n      add\n      swap1\n      0x01\n      add\n      swap1\n      jump(tag_144)\n    tag_145:\n      pop\n      pop\n      pop\n      pop\n      dup2\n      mstore\n      pop\n      pop\n      dup2\n      mstore\n      0x20\n      add\n      swap1\n      0x01\n      add\n      swap1\n      jump(tag_131)\n    tag_132:\n      pop\n      pop\n      pop\n      pop\n      swap1\n      pop\n        /* \"contracts-lecture/230511-practice.sol\":2181:2277  function getAllStudents() public view returns(Student[] memory) {... */\n      swap1\n      jump\t// out\n        /* \"contracts-lecture/230511-practice.sol\":638:992  function setCredit(uint _score) public pure returns(string memory) {... */\n    tag_44:\n        /* \"contracts-lecture/230511-practice.sol\":690:703  string memory */\n      0x60\n        /* \"contracts-lecture/230511-practice.sol\":729:731  90 */\n      0x5a\n        /* \"contracts-lecture/230511-practice.sol\":719:725  _score */\n      dup3\n        /* \"contracts-lecture/230511-practice.sol\":719:731  _score >= 90 */\n      lt\n        /* \"contracts-lecture/230511-practice.sol\":715:986  if (_score >= 90) {... */\n      tag_153\n      jumpi\n        /* \"contracts-lecture/230511-practice.sol\":747:757  return \"A\" */\n      mload(0x40)\n      dup1\n      0x40\n      add\n      0x40\n      mstore\n      dup1\n      0x01\n      dup2\n      mstore\n      0x20\n      add\n      0x4100000000000000000000000000000000000000000000000000000000000000\n      dup2\n      mstore\n      pop\n      swap1\n      pop\n      jump(tag_152)\n        /* \"contracts-lecture/230511-practice.sol\":715:986  if (_score >= 90) {... */\n    tag_153:\n        /* \"contracts-lecture/230511-practice.sol\":788:790  80 */\n      0x50\n        /* \"contracts-lecture/230511-practice.sol\":778:784  _score */\n      dup3\n        /* \"contracts-lecture/230511-practice.sol\":778:790  _score >= 80 */\n      lt\n        /* \"contracts-lecture/230511-practice.sol\":774:986  if (_score >= 80) {... */\n      tag_155\n      jumpi\n        /* \"contracts-lecture/230511-practice.sol\":806:816  return \"B\" */\n      mload(0x40)\n      dup1\n      0x40\n      add\n      0x40\n      mstore\n      dup1\n      0x01\n      dup2\n      mstore\n      0x20\n      add\n      0x4200000000000000000000000000000000000000000000000000000000000000\n      dup2\n      mstore\n      pop\n      swap1\n      pop\n      jump(tag_152)\n        /* \"contracts-lecture/230511-practice.sol\":774:986  if (_score >= 80) {... */\n    tag_155:\n        /* \"contracts-lecture/230511-practice.sol\":847:849  70 */\n      0x46\n        /* \"contracts-lecture/230511-practice.sol\":837:843  _score */\n      dup3\n        /* \"contracts-lecture/230511-practice.sol\":837:849  _score >= 70 */\n      lt\n        /* \"contracts-lecture/230511-practice.sol\":833:986  if (_score >= 70) {... */\n      tag_157\n      jumpi\n        /* \"contracts-lecture/230511-practice.sol\":865:875  return \"C\" */\n      mload(0x40)\n      dup1\n      0x40\n      add\n      0x40\n      mstore\n      dup1\n      0x01\n      dup2\n      mstore\n      0x20\n      add\n      0x4300000000000000000000000000000000000000000000000000000000000000\n      dup2\n      mstore\n      pop\n      swap1\n      pop\n      jump(tag_152)\n        /* \"contracts-lecture/230511-practice.sol\":833:986  if (_score >= 70) {... */\n    tag_157:\n        /* \"contracts-lecture/230511-practice.sol\":906:908  60 */\n      0x3c\n        /* \"contracts-lecture/230511-practice.sol\":896:902  _score */\n      dup3\n        /* \"contracts-lecture/230511-practice.sol\":896:908  _score >= 60 */\n      lt\n        /* \"contracts-lecture/230511-practice.sol\":892:986  if (_score >= 60) {... */\n      tag_159\n      jumpi\n        /* \"contracts-lecture/230511-practice.sol\":924:934  return \"D\" */\n      mload(0x40)\n      dup1\n      0x40\n      add\n      0x40\n      mstore\n      dup1\n      0x01\n      dup2\n      mstore\n      0x20\n      add\n      0x4400000000000000000000000000000000000000000000000000000000000000\n      dup2\n      mstore\n      pop\n      swap1\n      pop\n      jump(tag_152)\n        /* \"contracts-lecture/230511-practice.sol\":892:986  if (_score >= 60) {... */\n    tag_159:\n        /* \"contracts-lecture/230511-practice.sol\":965:975  return \"F\" */\n      mload(0x40)\n      dup1\n      0x40\n      add\n      0x40\n      mstore\n      dup1\n      0x01\n      dup2\n      mstore\n      0x20\n      add\n      0x4600000000000000000000000000000000000000000000000000000000000000\n      dup2\n      mstore\n      pop\n      swap1\n      pop\n        /* \"contracts-lecture/230511-practice.sol\":638:992  function setCredit(uint _score) public pure returns(string memory) {... */\n    tag_152:\n      swap2\n      swap1\n      pop\n      jump\t// out\n    tag_69:\n      dup3\n      dup1\n      sload\n      dup3\n      dup3\n      sstore\n      swap1\n      0x00\n      mstore\n      keccak256(0x00, 0x20)\n      swap1\n      dup2\n      add\n      swap3\n      dup3\n      iszero\n      tag_161\n      jumpi\n      swap2\n      0x20\n      mul\n      dup3\n      add\n    tag_162:\n      dup3\n      dup2\n      gt\n      iszero\n      tag_163\n      jumpi\n      dup3\n      mload\n      dup3\n      swap1\n      dup2\n      tag_164\n      swap2\n      swap1\n      tag_66\n      jump\t// in\n    tag_164:\n      pop\n      swap2\n      0x20\n      add\n      swap2\n      swap1\n      0x01\n      add\n      swap1\n      jump(tag_162)\n    tag_163:\n    tag_161:\n      pop\n      swap1\n      pop\n      tag_165\n      swap2\n      swap1\n      tag_166\n      jump\t// in\n    tag_165:\n      pop\n      swap1\n      jump\t// out\n    tag_79:\n      mload(0x40)\n      dup1\n      0xa0\n      add\n      0x40\n      mstore\n      dup1\n      0x60\n      dup2\n      mstore\n      0x20\n      add\n      0x00\n      dup2\n      mstore\n      0x20\n      add\n      0x00\n      dup2\n      mstore\n      0x20\n      add\n      0x60\n      dup2\n      mstore\n      0x20\n      add\n      0x60\n      dup2\n      mstore\n      pop\n      swap1\n      jump\t// out\n    tag_166:\n    tag_167:\n      dup1\n      dup3\n      gt\n      iszero\n      tag_168\n      jumpi\n      0x00\n      dup2\n      dup2\n      tag_169\n      swap2\n      swap1\n      tag_170\n      jump\t// in\n    tag_169:\n      pop\n      0x01\n      add\n      jump(tag_167)\n    tag_168:\n      pop\n      swap1\n      jump\t// out\n    tag_170:\n      pop\n      dup1\n      sload\n      tag_171\n      swap1\n      tag_83\n      jump\t// in\n    tag_171:\n      0x00\n      dup3\n      sstore\n      dup1\n      0x1f\n      lt\n      tag_173\n      jumpi\n      pop\n      jump(tag_172)\n    tag_173:\n      0x1f\n      add\n      0x20\n      swap1\n      div\n      swap1\n      0x00\n      mstore\n      keccak256(0x00, 0x20)\n      swap1\n      dup2\n      add\n      swap1\n      tag_174\n      swap2\n      swap1\n      tag_175\n      jump\t// in\n    tag_174:\n    tag_172:\n      pop\n      jump\t// out\n    tag_175:\n    tag_176:\n      dup1\n      dup3\n      gt\n      iszero\n      tag_177\n      jumpi\n      0x00\n      dup2\n      0x00\n      swap1\n      sstore\n      pop\n      0x01\n      add\n      jump(tag_176)\n    tag_177:\n      pop\n      swap1\n      jump\t// out\n        /* \"#utility.yul\":7:84   */\n    tag_178:\n        /* \"#utility.yul\":44:51   */\n      0x00\n        /* \"#utility.yul\":73:78   */\n      dup2\n        /* \"#utility.yul\":62:78   */\n      swap1\n      pop\n        /* \"#utility.yul\":7:84   */\n      swap2\n      swap1\n      pop\n      jump\t// out\n        /* \"#utility.yul\":90:208   */\n    tag_179:\n        /* \"#utility.yul\":177:201   */\n      tag_245\n        /* \"#utility.yul\":195:200   */\n      dup2\n        /* \"#utility.yul\":177:201   */\n      tag_178\n      jump\t// in\n    tag_245:\n        /* \"#utility.yul\":172:175   */\n      dup3\n        /* \"#utility.yul\":165:202   */\n      mstore\n        /* \"#utility.yul\":90:208   */\n      pop\n      pop\n      jump\t// out\n        /* \"#utility.yul\":214:436   */\n    tag_15:\n        /* \"#utility.yul\":307:311   */\n      0x00\n        /* \"#utility.yul\":345:347   */\n      0x20\n        /* \"#utility.yul\":334:343   */\n      dup3\n        /* \"#utility.yul\":330:348   */\n      add\n        /* \"#utility.yul\":322:348   */\n      swap1\n      pop\n        /* \"#utility.yul\":358:429   */\n      tag_247\n        /* \"#utility.yul\":426:427   */\n      0x00\n        /* \"#utility.yul\":415:424   */\n      dup4\n        /* \"#utility.yul\":411:428   */\n      add\n        /* \"#utility.yul\":402:408   */\n      dup5\n        /* \"#utility.yul\":358:429   */\n      tag_179\n      jump\t// in\n    tag_247:\n        /* \"#utility.yul\":214:436   */\n      swap3\n      swap2\n      pop\n      pop\n      jump\t// out\n        /* \"#utility.yul\":442:517   */\n    tag_180:\n        /* \"#utility.yul\":475:481   */\n      0x00\n        /* \"#utility.yul\":508:510   */\n      0x40\n        /* \"#utility.yul\":502:511   */\n      mload\n        /* \"#utility.yul\":492:511   */\n      swap1\n      pop\n        /* \"#utility.yul\":442:517   */\n      swap1\n      jump\t// out\n        /* \"#utility.yul\":523:640   */\n    tag_181:\n        /* \"#utility.yul\":632:633   */\n      0x00\n        /* \"#utility.yul\":629:630   */\n      dup1\n        /* \"#utility.yul\":622:634   */\n      revert\n        /* \"#utility.yul\":646:763   */\n    tag_182:\n        /* \"#utility.yul\":755:756   */\n      0x00\n        /* \"#utility.yul\":752:753   */\n      dup1\n        /* \"#utility.yul\":745:757   */\n      revert\n        /* \"#utility.yul\":769:886   */\n    tag_183:\n        /* \"#utility.yul\":878:879   */\n      0x00\n        /* \"#utility.yul\":875:876   */\n      dup1\n        /* \"#utility.yul\":868:880   */\n      revert\n        /* \"#utility.yul\":892:1009   */\n    tag_184:\n        /* \"#utility.yul\":1001:1002   */\n      0x00\n        /* \"#utility.yul\":998:999   */\n      dup1\n        /* \"#utility.yul\":991:1003   */\n      revert\n        /* \"#utility.yul\":1015:1117   */\n    tag_185:\n        /* \"#utility.yul\":1056:1062   */\n      0x00\n        /* \"#utility.yul\":1107:1109   */\n      0x1f\n        /* \"#utility.yul\":1103:1110   */\n      not\n        /* \"#utility.yul\":1098:1100   */\n      0x1f\n        /* \"#utility.yul\":1091:1096   */\n      dup4\n        /* \"#utility.yul\":1087:1101   */\n      add\n        /* \"#utility.yul\":1083:1111   */\n      and\n        /* \"#utility.yul\":1073:1111   */\n      swap1\n      pop\n        /* \"#utility.yul\":1015:1117   */\n      swap2\n      swap1\n      pop\n      jump\t// out\n        /* \"#utility.yul\":1123:1303   */\n    tag_186:\n        /* \"#utility.yul\":1171:1248   */\n      0x4e487b7100000000000000000000000000000000000000000000000000000000\n        /* \"#utility.yul\":1168:1169   */\n      0x00\n        /* \"#utility.yul\":1161:1249   */\n      mstore\n        /* \"#utility.yul\":1268:1272   */\n      0x41\n        /* \"#utility.yul\":1265:1266   */\n      0x04\n        /* \"#utility.yul\":1258:1273   */\n      mstore\n        /* \"#utility.yul\":1292:1296   */\n      0x24\n        /* \"#utility.yul\":1289:1290   */\n      0x00\n        /* \"#utility.yul\":1282:1297   */\n      revert\n        /* \"#utility.yul\":1309:1590   */\n    tag_187:\n        /* \"#utility.yul\":1392:1419   */\n      tag_256\n        /* \"#utility.yul\":1414:1418   */\n      dup3\n        /* \"#utility.yul\":1392:1419   */\n      tag_185\n      jump\t// in\n    tag_256:\n        /* \"#utility.yul\":1384:1390   */\n      dup2\n        /* \"#utility.yul\":1380:1420   */\n      add\n        /* \"#utility.yul\":1522:1528   */\n      dup2\n        /* \"#utility.yul\":1510:1520   */\n      dup2\n        /* \"#utility.yul\":1507:1529   */\n      lt\n        /* \"#utility.yul\":1486:1504   */\n      0xffffffffffffffff\n        /* \"#utility.yul\":1474:1484   */\n      dup3\n        /* \"#utility.yul\":1471:1505   */\n      gt\n        /* \"#utility.yul\":1468:1530   */\n      or\n        /* \"#utility.yul\":1465:1553   */\n      iszero\n      tag_257\n      jumpi\n        /* \"#utility.yul\":1533:1551   */\n      tag_258\n      tag_186\n      jump\t// in\n    tag_258:\n        /* \"#utility.yul\":1465:1553   */\n    tag_257:\n        /* \"#utility.yul\":1573:1583   */\n      dup1\n        /* \"#utility.yul\":1569:1571   */\n      0x40\n        /* \"#utility.yul\":1562:1584   */\n      mstore\n        /* \"#utility.yul\":1352:1590   */\n      pop\n        /* \"#utility.yul\":1309:1590   */\n      pop\n      pop\n      jump\t// out\n        /* \"#utility.yul\":1596:1725   */\n    tag_188:\n        /* \"#utility.yul\":1630:1636   */\n      0x00\n        /* \"#utility.yul\":1657:1677   */\n      tag_260\n      tag_180\n      jump\t// in\n    tag_260:\n        /* \"#utility.yul\":1647:1677   */\n      swap1\n      pop\n        /* \"#utility.yul\":1686:1719   */\n      tag_261\n        /* \"#utility.yul\":1714:1718   */\n      dup3\n        /* \"#utility.yul\":1706:1712   */\n      dup3\n        /* \"#utility.yul\":1686:1719   */\n      tag_187\n      jump\t// in\n    tag_261:\n        /* \"#utility.yul\":1596:1725   */\n      swap2\n      swap1\n      pop\n      jump\t// out\n        /* \"#utility.yul\":1731:2039   */\n    tag_189:\n        /* \"#utility.yul\":1793:1797   */\n      0x00\n        /* \"#utility.yul\":1883:1901   */\n      0xffffffffffffffff\n        /* \"#utility.yul\":1875:1881   */\n      dup3\n        /* \"#utility.yul\":1872:1902   */\n      gt\n        /* \"#utility.yul\":1869:1925   */\n      iszero\n      tag_263\n      jumpi\n        /* \"#utility.yul\":1905:1923   */\n      tag_264\n      tag_186\n      jump\t// in\n    tag_264:\n        /* \"#utility.yul\":1869:1925   */\n    tag_263:\n        /* \"#utility.yul\":1943:1972   */\n      tag_265\n        /* \"#utility.yul\":1965:1971   */\n      dup3\n        /* \"#utility.yul\":1943:1972   */\n      tag_185\n      jump\t// in\n    tag_265:\n        /* \"#utility.yul\":1935:1972   */\n      swap1\n      pop\n        /* \"#utility.yul\":2027:2031   */\n      0x20\n        /* \"#utility.yul\":2021:2025   */\n      dup2\n        /* \"#utility.yul\":2017:2032   */\n      add\n        /* \"#utility.yul\":2009:2032   */\n      swap1\n      pop\n        /* \"#utility.yul\":1731:2039   */\n      swap2\n      swap1\n      pop\n      jump\t// out\n        /* \"#utility.yul\":2045:2191   */\n    tag_190:\n        /* \"#utility.yul\":2142:2148   */\n      dup3\n        /* \"#utility.yul\":2137:2140   */\n      dup2\n        /* \"#utility.yul\":2132:2135   */\n      dup4\n        /* \"#utility.yul\":2119:2149   */\n      calldatacopy\n        /* \"#utility.yul\":2183:2184   */\n      0x00\n        /* \"#utility.yul\":2174:2180   */\n      dup4\n        /* \"#utility.yul\":2169:2172   */\n      dup4\n        /* \"#utility.yul\":2165:2181   */\n      add\n        /* \"#utility.yul\":2158:2185   */\n      mstore\n        /* \"#utility.yul\":2045:2191   */\n      pop\n      pop\n      pop\n      jump\t// out\n        /* \"#utility.yul\":2197:2622   */\n    tag_191:\n        /* \"#utility.yul\":2275:2280   */\n      0x00\n        /* \"#utility.yul\":2300:2366   */\n      tag_268\n        /* \"#utility.yul\":2316:2365   */\n      tag_269\n        /* \"#utility.yul\":2358:2364   */\n      dup5\n        /* \"#utility.yul\":2316:2365   */\n      tag_189\n      jump\t// in\n    tag_269:\n        /* \"#utility.yul\":2300:2366   */\n      tag_188\n      jump\t// in\n    tag_268:\n        /* \"#utility.yul\":2291:2366   */\n      swap1\n      pop\n        /* \"#utility.yul\":2389:2395   */\n      dup3\n        /* \"#utility.yul\":2382:2387   */\n      dup2\n        /* \"#utility.yul\":2375:2396   */\n      mstore\n        /* \"#utility.yul\":2427:2431   */\n      0x20\n        /* \"#utility.yul\":2420:2425   */\n      dup2\n        /* \"#utility.yul\":2416:2432   */\n      add\n        /* \"#utility.yul\":2465:2468   */\n      dup5\n        /* \"#utility.yul\":2456:2462   */\n      dup5\n        /* \"#utility.yul\":2451:2454   */\n      dup5\n        /* \"#utility.yul\":2447:2463   */\n      add\n        /* \"#utility.yul\":2444:2469   */\n      gt\n        /* \"#utility.yul\":2441:2553   */\n      iszero\n      tag_270\n      jumpi\n        /* \"#utility.yul\":2472:2551   */\n      tag_271\n      tag_184\n      jump\t// in\n    tag_271:\n        /* \"#utility.yul\":2441:2553   */\n    tag_270:\n        /* \"#utility.yul\":2562:2616   */\n      tag_272\n        /* \"#utility.yul\":2609:2615   */\n      dup5\n        /* \"#utility.yul\":2604:2607   */\n      dup3\n        /* \"#utility.yul\":2599:2602   */\n      dup6\n        /* \"#utility.yul\":2562:2616   */\n      tag_190\n      jump\t// in\n    tag_272:\n        /* \"#utility.yul\":2281:2622   */\n      pop\n        /* \"#utility.yul\":2197:2622   */\n      swap4\n      swap3\n      pop\n      pop\n      pop\n      jump\t// out\n        /* \"#utility.yul\":2642:2982   */\n    tag_192:\n        /* \"#utility.yul\":2698:2703   */\n      0x00\n        /* \"#utility.yul\":2747:2750   */\n      dup3\n        /* \"#utility.yul\":2740:2744   */\n      0x1f\n        /* \"#utility.yul\":2732:2738   */\n      dup4\n        /* \"#utility.yul\":2728:2745   */\n      add\n        /* \"#utility.yul\":2724:2751   */\n      slt\n        /* \"#utility.yul\":2714:2836   */\n      tag_274\n      jumpi\n        /* \"#utility.yul\":2755:2834   */\n      tag_275\n      tag_183\n      jump\t// in\n    tag_275:\n        /* \"#utility.yul\":2714:2836   */\n    tag_274:\n        /* \"#utility.yul\":2872:2878   */\n      dup2\n        /* \"#utility.yul\":2859:2879   */\n      calldataload\n        /* \"#utility.yul\":2897:2976   */\n      tag_276\n        /* \"#utility.yul\":2972:2975   */\n      dup5\n        /* \"#utility.yul\":2964:2970   */\n      dup3\n        /* \"#utility.yul\":2957:2961   */\n      0x20\n        /* \"#utility.yul\":2949:2955   */\n      dup7\n        /* \"#utility.yul\":2945:2962   */\n      add\n        /* \"#utility.yul\":2897:2976   */\n      tag_191\n      jump\t// in\n    tag_276:\n        /* \"#utility.yul\":2888:2976   */\n      swap2\n      pop\n        /* \"#utility.yul\":2704:2982   */\n      pop\n        /* \"#utility.yul\":2642:2982   */\n      swap3\n      swap2\n      pop\n      pop\n      jump\t// out\n        /* \"#utility.yul\":2988:3110   */\n    tag_193:\n        /* \"#utility.yul\":3061:3085   */\n      tag_278\n        /* \"#utility.yul\":3079:3084   */\n      dup2\n        /* \"#utility.yul\":3061:3085   */\n      tag_178\n      jump\t// in\n    tag_278:\n        /* \"#utility.yul\":3054:3059   */\n      dup2\n        /* \"#utility.yul\":3051:3086   */\n      eq\n        /* \"#utility.yul\":3041:3104   */\n      tag_279\n      jumpi\n        /* \"#utility.yul\":3100:3101   */\n      0x00\n        /* \"#utility.yul\":3097:3098   */\n      dup1\n        /* \"#utility.yul\":3090:3102   */\n      revert\n        /* \"#utility.yul\":3041:3104   */\n    tag_279:\n        /* \"#utility.yul\":2988:3110   */\n      pop\n      jump\t// out\n        /* \"#utility.yul\":3116:3255   */\n    tag_194:\n        /* \"#utility.yul\":3162:3167   */\n      0x00\n        /* \"#utility.yul\":3200:3206   */\n      dup2\n        /* \"#utility.yul\":3187:3207   */\n      calldataload\n        /* \"#utility.yul\":3178:3207   */\n      swap1\n      pop\n        /* \"#utility.yul\":3216:3249   */\n      tag_281\n        /* \"#utility.yul\":3243:3248   */\n      dup2\n        /* \"#utility.yul\":3216:3249   */\n      tag_193\n      jump\t// in\n    tag_281:\n        /* \"#utility.yul\":3116:3255   */\n      swap3\n      swap2\n      pop\n      pop\n      jump\t// out\n        /* \"#utility.yul\":3261:3582   */\n    tag_195:\n        /* \"#utility.yul\":3348:3352   */\n      0x00\n        /* \"#utility.yul\":3438:3456   */\n      0xffffffffffffffff\n        /* \"#utility.yul\":3430:3436   */\n      dup3\n        /* \"#utility.yul\":3427:3457   */\n      gt\n        /* \"#utility.yul\":3424:3480   */\n      iszero\n      tag_283\n      jumpi\n        /* \"#utility.yul\":3460:3478   */\n      tag_284\n      tag_186\n      jump\t// in\n    tag_284:\n        /* \"#utility.yul\":3424:3480   */\n    tag_283:\n        /* \"#utility.yul\":3510:3514   */\n      0x20\n        /* \"#utility.yul\":3502:3508   */\n      dup3\n        /* \"#utility.yul\":3498:3515   */\n      mul\n        /* \"#utility.yul\":3490:3515   */\n      swap1\n      pop\n        /* \"#utility.yul\":3570:3574   */\n      0x20\n        /* \"#utility.yul\":3564:3568   */\n      dup2\n        /* \"#utility.yul\":3560:3575   */\n      add\n        /* \"#utility.yul\":3552:3575   */\n      swap1\n      pop\n        /* \"#utility.yul\":3261:3582   */\n      swap2\n      swap1\n      pop\n      jump\t// out\n        /* \"#utility.yul\":3588:3705   */\n    tag_196:\n        /* \"#utility.yul\":3697:3698   */\n      0x00\n        /* \"#utility.yul\":3694:3695   */\n      dup1\n        /* \"#utility.yul\":3687:3699   */\n      revert\n        /* \"#utility.yul\":3727:4672   */\n    tag_197:\n        /* \"#utility.yul\":3833:3838   */\n      0x00\n        /* \"#utility.yul\":3858:3949   */\n      tag_287\n        /* \"#utility.yul\":3874:3948   */\n      tag_288\n        /* \"#utility.yul\":3941:3947   */\n      dup5\n        /* \"#utility.yul\":3874:3948   */\n      tag_195\n      jump\t// in\n    tag_288:\n        /* \"#utility.yul\":3858:3949   */\n      tag_188\n      jump\t// in\n    tag_287:\n        /* \"#utility.yul\":3849:3949   */\n      swap1\n      pop\n        /* \"#utility.yul\":3969:3974   */\n      dup1\n        /* \"#utility.yul\":3998:4004   */\n      dup4\n        /* \"#utility.yul\":3991:3996   */\n      dup3\n        /* \"#utility.yul\":3984:4005   */\n      mstore\n        /* \"#utility.yul\":4032:4036   */\n      0x20\n        /* \"#utility.yul\":4025:4030   */\n      dup3\n        /* \"#utility.yul\":4021:4037   */\n      add\n        /* \"#utility.yul\":4014:4037   */\n      swap1\n      pop\n        /* \"#utility.yul\":4085:4089   */\n      0x20\n        /* \"#utility.yul\":4077:4083   */\n      dup5\n        /* \"#utility.yul\":4073:4090   */\n      mul\n        /* \"#utility.yul\":4065:4071   */\n      dup4\n        /* \"#utility.yul\":4061:4091   */\n      add\n        /* \"#utility.yul\":4114:4117   */\n      dup6\n        /* \"#utility.yul\":4106:4112   */\n      dup2\n        /* \"#utility.yul\":4103:4118   */\n      gt\n        /* \"#utility.yul\":4100:4222   */\n      iszero\n      tag_289\n      jumpi\n        /* \"#utility.yul\":4133:4212   */\n      tag_290\n      tag_196\n      jump\t// in\n    tag_290:\n        /* \"#utility.yul\":4100:4222   */\n    tag_289:\n        /* \"#utility.yul\":4248:4254   */\n      dup4\n        /* \"#utility.yul\":4231:4666   */\n    tag_291:\n        /* \"#utility.yul\":4265:4271   */\n      dup2\n        /* \"#utility.yul\":4260:4263   */\n      dup2\n        /* \"#utility.yul\":4257:4272   */\n      lt\n        /* \"#utility.yul\":4231:4666   */\n      iszero\n      tag_293\n      jumpi\n        /* \"#utility.yul\":4354:4357   */\n      dup1\n        /* \"#utility.yul\":4341:4358   */\n      calldataload\n        /* \"#utility.yul\":4390:4408   */\n      0xffffffffffffffff\n        /* \"#utility.yul\":4377:4388   */\n      dup2\n        /* \"#utility.yul\":4374:4409   */\n      gt\n        /* \"#utility.yul\":4371:4493   */\n      iszero\n      tag_294\n      jumpi\n        /* \"#utility.yul\":4412:4491   */\n      tag_295\n      tag_183\n      jump\t// in\n    tag_295:\n        /* \"#utility.yul\":4371:4493   */\n    tag_294:\n        /* \"#utility.yul\":4536:4547   */\n      dup1\n        /* \"#utility.yul\":4528:4534   */\n      dup7\n        /* \"#utility.yul\":4524:4548   */\n      add\n        /* \"#utility.yul\":4574:4621   */\n      tag_296\n        /* \"#utility.yul\":4617:4620   */\n      dup10\n        /* \"#utility.yul\":4605:4615   */\n      dup3\n        /* \"#utility.yul\":4574:4621   */\n      tag_192\n      jump\t// in\n    tag_296:\n        /* \"#utility.yul\":4569:4572   */\n      dup6\n        /* \"#utility.yul\":4562:4622   */\n      mstore\n        /* \"#utility.yul\":4651:4655   */\n      0x20\n        /* \"#utility.yul\":4646:4649   */\n      dup6\n        /* \"#utility.yul\":4642:4656   */\n      add\n        /* \"#utility.yul\":4635:4656   */\n      swap5\n      pop\n        /* \"#utility.yul\":4307:4666   */\n      pop\n      pop\n        /* \"#utility.yul\":4291:4295   */\n      0x20\n        /* \"#utility.yul\":4286:4289   */\n      dup2\n        /* \"#utility.yul\":4282:4296   */\n      add\n        /* \"#utility.yul\":4275:4296   */\n      swap1\n      pop\n        /* \"#utility.yul\":4231:4666   */\n      jump(tag_291)\n    tag_293:\n        /* \"#utility.yul\":4235:4256   */\n      pop\n        /* \"#utility.yul\":3839:4672   */\n      pop\n      pop\n        /* \"#utility.yul\":3727:4672   */\n      swap4\n      swap3\n      pop\n      pop\n      pop\n      jump\t// out\n        /* \"#utility.yul\":4694:5084   */\n    tag_198:\n        /* \"#utility.yul\":4775:4780   */\n      0x00\n        /* \"#utility.yul\":4824:4827   */\n      dup3\n        /* \"#utility.yul\":4817:4821   */\n      0x1f\n        /* \"#utility.yul\":4809:4815   */\n      dup4\n        /* \"#utility.yul\":4805:4822   */\n      add\n        /* \"#utility.yul\":4801:4828   */\n      slt\n        /* \"#utility.yul\":4791:4913   */\n      tag_298\n      jumpi\n        /* \"#utility.yul\":4832:4911   */\n      tag_299\n      tag_183\n      jump\t// in\n    tag_299:\n        /* \"#utility.yul\":4791:4913   */\n    tag_298:\n        /* \"#utility.yul\":4949:4955   */\n      dup2\n        /* \"#utility.yul\":4936:4956   */\n      calldataload\n        /* \"#utility.yul\":4974:5078   */\n      tag_300\n        /* \"#utility.yul\":5074:5077   */\n      dup5\n        /* \"#utility.yul\":5066:5072   */\n      dup3\n        /* \"#utility.yul\":5059:5063   */\n      0x20\n        /* \"#utility.yul\":5051:5057   */\n      dup7\n        /* \"#utility.yul\":5047:5064   */\n      add\n        /* \"#utility.yul\":4974:5078   */\n      tag_197\n      jump\t// in\n    tag_300:\n        /* \"#utility.yul\":4965:5078   */\n      swap2\n      pop\n        /* \"#utility.yul\":4781:5084   */\n      pop\n        /* \"#utility.yul\":4694:5084   */\n      swap3\n      swap2\n      pop\n      pop\n      jump\t// out\n        /* \"#utility.yul\":5090:6119   */\n    tag_18:\n        /* \"#utility.yul\":5212:5218   */\n      0x00\n        /* \"#utility.yul\":5220:5226   */\n      dup1\n        /* \"#utility.yul\":5228:5234   */\n      0x00\n        /* \"#utility.yul\":5277:5279   */\n      0x60\n        /* \"#utility.yul\":5265:5274   */\n      dup5\n        /* \"#utility.yul\":5256:5263   */\n      dup7\n        /* \"#utility.yul\":5252:5275   */\n      sub\n        /* \"#utility.yul\":5248:5280   */\n      slt\n        /* \"#utility.yul\":5245:5364   */\n      iszero\n      tag_302\n      jumpi\n        /* \"#utility.yul\":5283:5362   */\n      tag_303\n      tag_181\n      jump\t// in\n    tag_303:\n        /* \"#utility.yul\":5245:5364   */\n    tag_302:\n        /* \"#utility.yul\":5431:5432   */\n      0x00\n        /* \"#utility.yul\":5420:5429   */\n      dup5\n        /* \"#utility.yul\":5416:5433   */\n      add\n        /* \"#utility.yul\":5403:5434   */\n      calldataload\n        /* \"#utility.yul\":5461:5479   */\n      0xffffffffffffffff\n        /* \"#utility.yul\":5453:5459   */\n      dup2\n        /* \"#utility.yul\":5450:5480   */\n      gt\n        /* \"#utility.yul\":5447:5564   */\n      iszero\n      tag_304\n      jumpi\n        /* \"#utility.yul\":5483:5562   */\n      tag_305\n      tag_182\n      jump\t// in\n    tag_305:\n        /* \"#utility.yul\":5447:5564   */\n    tag_304:\n        /* \"#utility.yul\":5588:5651   */\n      tag_306\n        /* \"#utility.yul\":5643:5650   */\n      dup7\n        /* \"#utility.yul\":5634:5640   */\n      dup3\n        /* \"#utility.yul\":5623:5632   */\n      dup8\n        /* \"#utility.yul\":5619:5641   */\n      add\n        /* \"#utility.yul\":5588:5651   */\n      tag_192\n      jump\t// in\n    tag_306:\n        /* \"#utility.yul\":5578:5651   */\n      swap4\n      pop\n        /* \"#utility.yul\":5374:5661   */\n      pop\n        /* \"#utility.yul\":5700:5702   */\n      0x20\n        /* \"#utility.yul\":5726:5779   */\n      tag_307\n        /* \"#utility.yul\":5771:5778   */\n      dup7\n        /* \"#utility.yul\":5762:5768   */\n      dup3\n        /* \"#utility.yul\":5751:5760   */\n      dup8\n        /* \"#utility.yul\":5747:5769   */\n      add\n        /* \"#utility.yul\":5726:5779   */\n      tag_194\n      jump\t// in\n    tag_307:\n        /* \"#utility.yul\":5716:5779   */\n      swap3\n      pop\n        /* \"#utility.yul\":5671:5789   */\n      pop\n        /* \"#utility.yul\":5856:5858   */\n      0x40\n        /* \"#utility.yul\":5845:5854   */\n      dup5\n        /* \"#utility.yul\":5841:5859   */\n      add\n        /* \"#utility.yul\":5828:5860   */\n      calldataload\n        /* \"#utility.yul\":5887:5905   */\n      0xffffffffffffffff\n        /* \"#utility.yul\":5879:5885   */\n      dup2\n        /* \"#utility.yul\":5876:5906   */\n      gt\n        /* \"#utility.yul\":5873:5990   */\n      iszero\n      tag_308\n      jumpi\n        /* \"#utility.yul\":5909:5988   */\n      tag_309\n      tag_182\n      jump\t// in\n    tag_309:\n        /* \"#utility.yul\":5873:5990   */\n    tag_308:\n        /* \"#utility.yul\":6014:6102   */\n      tag_310\n        /* \"#utility.yul\":6094:6101   */\n      dup7\n        /* \"#utility.yul\":6085:6091   */\n      dup3\n        /* \"#utility.yul\":6074:6083   */\n      dup8\n        /* \"#utility.yul\":6070:6092   */\n      add\n        /* \"#utility.yul\":6014:6102   */\n      tag_198\n      jump\t// in\n    tag_310:\n        /* \"#utility.yul\":6004:6102   */\n      swap2\n      pop\n        /* \"#utility.yul\":5799:6112   */\n      pop\n        /* \"#utility.yul\":5090:6119   */\n      swap3\n      pop\n      swap3\n      pop\n      swap3\n      jump\t// out\n        /* \"#utility.yul\":6125:6634   */\n    tag_25:\n        /* \"#utility.yul\":6194:6200   */\n      0x00\n        /* \"#utility.yul\":6243:6245   */\n      0x20\n        /* \"#utility.yul\":6231:6240   */\n      dup3\n        /* \"#utility.yul\":6222:6229   */\n      dup5\n        /* \"#utility.yul\":6218:6241   */\n      sub\n        /* \"#utility.yul\":6214:6246   */\n      slt\n        /* \"#utility.yul\":6211:6330   */\n      iszero\n      tag_312\n      jumpi\n        /* \"#utility.yul\":6249:6328   */\n      tag_313\n      tag_181\n      jump\t// in\n    tag_313:\n        /* \"#utility.yul\":6211:6330   */\n    tag_312:\n        /* \"#utility.yul\":6397:6398   */\n      0x00\n        /* \"#utility.yul\":6386:6395   */\n      dup3\n        /* \"#utility.yul\":6382:6399   */\n      add\n        /* \"#utility.yul\":6369:6400   */\n      calldataload\n        /* \"#utility.yul\":6427:6445   */\n      0xffffffffffffffff\n        /* \"#utility.yul\":6419:6425   */\n      dup2\n        /* \"#utility.yul\":6416:6446   */\n      gt\n        /* \"#utility.yul\":6413:6530   */\n      iszero\n      tag_314\n      jumpi\n        /* \"#utility.yul\":6449:6528   */\n      tag_315\n      tag_182\n      jump\t// in\n    tag_315:\n        /* \"#utility.yul\":6413:6530   */\n    tag_314:\n        /* \"#utility.yul\":6554:6617   */\n      tag_316\n        /* \"#utility.yul\":6609:6616   */\n      dup5\n        /* \"#utility.yul\":6600:6606   */\n      dup3\n        /* \"#utility.yul\":6589:6598   */\n      dup6\n        /* \"#utility.yul\":6585:6607   */\n      add\n        /* \"#utility.yul\":6554:6617   */\n      tag_192\n      jump\t// in\n    tag_316:\n        /* \"#utility.yul\":6544:6617   */\n      swap2\n      pop\n        /* \"#utility.yul\":6340:6627   */\n      pop\n        /* \"#utility.yul\":6125:6634   */\n      swap3\n      swap2\n      pop\n      pop\n      jump\t// out\n        /* \"#utility.yul\":6640:6739   */\n    tag_199:\n        /* \"#utility.yul\":6692:6698   */\n      0x00\n        /* \"#utility.yul\":6726:6731   */\n      dup2\n        /* \"#utility.yul\":6720:6732   */\n      mload\n        /* \"#utility.yul\":6710:6732   */\n      swap1\n      pop\n        /* \"#utility.yul\":6640:6739   */\n      swap2\n      swap1\n      pop\n      jump\t// out\n        /* \"#utility.yul\":6745:6904   */\n    tag_200:\n        /* \"#utility.yul\":6819:6830   */\n      0x00\n        /* \"#utility.yul\":6853:6859   */\n      dup3\n        /* \"#utility.yul\":6848:6851   */\n      dup3\n        /* \"#utility.yul\":6841:6860   */\n      mstore\n        /* \"#utility.yul\":6893:6897   */\n      0x20\n        /* \"#utility.yul\":6888:6891   */\n      dup3\n        /* \"#utility.yul\":6884:6898   */\n      add\n        /* \"#utility.yul\":6869:6898   */\n      swap1\n      pop\n        /* \"#utility.yul\":6745:6904   */\n      swap3\n      swap2\n      pop\n      pop\n      jump\t// out\n        /* \"#utility.yul\":6910:7156   */\n    tag_201:\n        /* \"#utility.yul\":6991:6992   */\n      0x00\n        /* \"#utility.yul\":7001:7114   */\n    tag_320:\n        /* \"#utility.yul\":7015:7021   */\n      dup4\n        /* \"#utility.yul\":7012:7013   */\n      dup2\n        /* \"#utility.yul\":7009:7022   */\n      lt\n        /* \"#utility.yul\":7001:7114   */\n      iszero\n      tag_322\n      jumpi\n        /* \"#utility.yul\":7100:7101   */\n      dup1\n        /* \"#utility.yul\":7095:7098   */\n      dup3\n        /* \"#utility.yul\":7091:7102   */\n      add\n        /* \"#utility.yul\":7085:7103   */\n      mload\n        /* \"#utility.yul\":7081:7082   */\n      dup2\n        /* \"#utility.yul\":7076:7079   */\n      dup5\n        /* \"#utility.yul\":7072:7083   */\n      add\n        /* \"#utility.yul\":7065:7104   */\n      mstore\n        /* \"#utility.yul\":7037:7039   */\n      0x20\n        /* \"#utility.yul\":7034:7035   */\n      dup2\n        /* \"#utility.yul\":7030:7040   */\n      add\n        /* \"#utility.yul\":7025:7040   */\n      swap1\n      pop\n        /* \"#utility.yul\":7001:7114   */\n      jump(tag_320)\n    tag_322:\n        /* \"#utility.yul\":7148:7149   */\n      0x00\n        /* \"#utility.yul\":7139:7145   */\n      dup5\n        /* \"#utility.yul\":7134:7137   */\n      dup5\n        /* \"#utility.yul\":7130:7146   */\n      add\n        /* \"#utility.yul\":7123:7150   */\n      mstore\n        /* \"#utility.yul\":6972:7156   */\n      pop\n        /* \"#utility.yul\":6910:7156   */\n      pop\n      pop\n      pop\n      jump\t// out\n        /* \"#utility.yul\":7162:7519   */\n    tag_202:\n        /* \"#utility.yul\":7240:7243   */\n      0x00\n        /* \"#utility.yul\":7268:7307   */\n      tag_324\n        /* \"#utility.yul\":7301:7306   */\n      dup3\n        /* \"#utility.yul\":7268:7307   */\n      tag_199\n      jump\t// in\n    tag_324:\n        /* \"#utility.yul\":7323:7384   */\n      tag_325\n        /* \"#utility.yul\":7377:7383   */\n      dup2\n        /* \"#utility.yul\":7372:7375   */\n      dup6\n        /* \"#utility.yul\":7323:7384   */\n      tag_200\n      jump\t// in\n    tag_325:\n        /* \"#utility.yul\":7316:7384   */\n      swap4\n      pop\n        /* \"#utility.yul\":7393:7458   */\n      tag_326\n        /* \"#utility.yul\":7451:7457   */\n      dup2\n        /* \"#utility.yul\":7446:7449   */\n      dup6\n        /* \"#utility.yul\":7439:7443   */\n      0x20\n        /* \"#utility.yul\":7432:7437   */\n      dup7\n        /* \"#utility.yul\":7428:7444   */\n      add\n        /* \"#utility.yul\":7393:7458   */\n      tag_201\n      jump\t// in\n    tag_326:\n        /* \"#utility.yul\":7483:7512   */\n      tag_327\n        /* \"#utility.yul\":7505:7511   */\n      dup2\n        /* \"#utility.yul\":7483:7512   */\n      tag_185\n      jump\t// in\n    tag_327:\n        /* \"#utility.yul\":7478:7481   */\n      dup5\n        /* \"#utility.yul\":7474:7513   */\n      add\n        /* \"#utility.yul\":7467:7513   */\n      swap2\n      pop\n        /* \"#utility.yul\":7244:7519   */\n      pop\n        /* \"#utility.yul\":7162:7519   */\n      swap3\n      swap2\n      pop\n      pop\n      jump\t// out\n        /* \"#utility.yul\":7525:7633   */\n    tag_203:\n        /* \"#utility.yul\":7602:7626   */\n      tag_329\n        /* \"#utility.yul\":7620:7625   */\n      dup2\n        /* \"#utility.yul\":7602:7626   */\n      tag_178\n      jump\t// in\n    tag_329:\n        /* \"#utility.yul\":7597:7600   */\n      dup3\n        /* \"#utility.yul\":7590:7627   */\n      mstore\n        /* \"#utility.yul\":7525:7633   */\n      pop\n      pop\n      jump\t// out\n        /* \"#utility.yul\":7639:7763   */\n    tag_204:\n        /* \"#utility.yul\":7716:7722   */\n      0x00\n        /* \"#utility.yul\":7750:7755   */\n      dup2\n        /* \"#utility.yul\":7744:7756   */\n      mload\n        /* \"#utility.yul\":7734:7756   */\n      swap1\n      pop\n        /* \"#utility.yul\":7639:7763   */\n      swap2\n      swap1\n      pop\n      jump\t// out\n        /* \"#utility.yul\":7769:7953   */\n    tag_205:\n        /* \"#utility.yul\":7868:7879   */\n      0x00\n        /* \"#utility.yul\":7902:7908   */\n      dup3\n        /* \"#utility.yul\":7897:7900   */\n      dup3\n        /* \"#utility.yul\":7890:7909   */\n      mstore\n        /* \"#utility.yul\":7942:7946   */\n      0x20\n        /* \"#utility.yul\":7937:7940   */\n      dup3\n        /* \"#utility.yul\":7933:7947   */\n      add\n        /* \"#utility.yul\":7918:7947   */\n      swap1\n      pop\n        /* \"#utility.yul\":7769:7953   */\n      swap3\n      swap2\n      pop\n      pop\n      jump\t// out\n        /* \"#utility.yul\":7959:8101   */\n    tag_206:\n        /* \"#utility.yul\":8036:8040   */\n      0x00\n        /* \"#utility.yul\":8059:8062   */\n      dup2\n        /* \"#utility.yul\":8051:8062   */\n      swap1\n      pop\n        /* \"#utility.yul\":8089:8093   */\n      0x20\n        /* \"#utility.yul\":8084:8087   */\n      dup3\n        /* \"#utility.yul\":8080:8094   */\n      add\n        /* \"#utility.yul\":8072:8094   */\n      swap1\n      pop\n        /* \"#utility.yul\":7959:8101   */\n      swap2\n      swap1\n      pop\n      jump\t// out\n        /* \"#utility.yul\":8107:8303   */\n    tag_207:\n        /* \"#utility.yul\":8196:8206   */\n      0x00\n        /* \"#utility.yul\":8231:8297   */\n      tag_334\n        /* \"#utility.yul\":8293:8296   */\n      dup4\n        /* \"#utility.yul\":8285:8291   */\n      dup4\n        /* \"#utility.yul\":8231:8297   */\n      tag_202\n      jump\t// in\n    tag_334:\n        /* \"#utility.yul\":8217:8297   */\n      swap1\n      pop\n        /* \"#utility.yul\":8107:8303   */\n      swap3\n      swap2\n      pop\n      pop\n      jump\t// out\n        /* \"#utility.yul\":8309:8432   */\n    tag_208:\n        /* \"#utility.yul\":8389:8393   */\n      0x00\n        /* \"#utility.yul\":8421:8425   */\n      0x20\n        /* \"#utility.yul\":8416:8419   */\n      dup3\n        /* \"#utility.yul\":8412:8426   */\n      add\n        /* \"#utility.yul\":8404:8426   */\n      swap1\n      pop\n        /* \"#utility.yul\":8309:8432   */\n      swap2\n      swap1\n      pop\n      jump\t// out\n        /* \"#utility.yul\":8466:9437   */\n    tag_209:\n        /* \"#utility.yul\":8595:8598   */\n      0x00\n        /* \"#utility.yul\":8624:8688   */\n      tag_337\n        /* \"#utility.yul\":8682:8687   */\n      dup3\n        /* \"#utility.yul\":8624:8688   */\n      tag_204\n      jump\t// in\n    tag_337:\n        /* \"#utility.yul\":8704:8790   */\n      tag_338\n        /* \"#utility.yul\":8783:8789   */\n      dup2\n        /* \"#utility.yul\":8778:8781   */\n      dup6\n        /* \"#utility.yul\":8704:8790   */\n      tag_205\n      jump\t// in\n    tag_338:\n        /* \"#utility.yul\":8697:8790   */\n      swap4\n      pop\n        /* \"#utility.yul\":8816:8819   */\n      dup4\n        /* \"#utility.yul\":8861:8865   */\n      0x20\n        /* \"#utility.yul\":8853:8859   */\n      dup3\n        /* \"#utility.yul\":8849:8866   */\n      mul\n        /* \"#utility.yul\":8844:8847   */\n      dup6\n        /* \"#utility.yul\":8840:8867   */\n      add\n        /* \"#utility.yul\":8891:8957   */\n      tag_339\n        /* \"#utility.yul\":8951:8956   */\n      dup6\n        /* \"#utility.yul\":8891:8957   */\n      tag_206\n      jump\t// in\n    tag_339:\n        /* \"#utility.yul\":8980:8987   */\n      dup1\n        /* \"#utility.yul\":9011:9012   */\n      0x00\n        /* \"#utility.yul\":8996:9392   */\n    tag_340:\n        /* \"#utility.yul\":9021:9027   */\n      dup6\n        /* \"#utility.yul\":9018:9019   */\n      dup2\n        /* \"#utility.yul\":9015:9028   */\n      lt\n        /* \"#utility.yul\":8996:9392   */\n      iszero\n      tag_342\n      jumpi\n        /* \"#utility.yul\":9092:9101   */\n      dup5\n        /* \"#utility.yul\":9086:9090   */\n      dup5\n        /* \"#utility.yul\":9082:9102   */\n      sub\n        /* \"#utility.yul\":9077:9080   */\n      dup10\n        /* \"#utility.yul\":9070:9103   */\n      mstore\n        /* \"#utility.yul\":9143:9149   */\n      dup2\n        /* \"#utility.yul\":9137:9150   */\n      mload\n        /* \"#utility.yul\":9171:9255   */\n      tag_343\n        /* \"#utility.yul\":9250:9254   */\n      dup6\n        /* \"#utility.yul\":9235:9248   */\n      dup3\n        /* \"#utility.yul\":9171:9255   */\n      tag_207\n      jump\t// in\n    tag_343:\n        /* \"#utility.yul\":9163:9255   */\n      swap5\n      pop\n        /* \"#utility.yul\":9278:9348   */\n      tag_344\n        /* \"#utility.yul\":9341:9347   */\n      dup4\n        /* \"#utility.yul\":9278:9348   */\n      tag_208\n      jump\t// in\n    tag_344:\n        /* \"#utility.yul\":9268:9348   */\n      swap3\n      pop\n        /* \"#utility.yul\":9377:9381   */\n      0x20\n        /* \"#utility.yul\":9372:9375   */\n      dup11\n        /* \"#utility.yul\":9368:9382   */\n      add\n        /* \"#utility.yul\":9361:9382   */\n      swap10\n      pop\n        /* \"#utility.yul\":9056:9392   */\n      pop\n        /* \"#utility.yul\":9043:9044   */\n      0x01\n        /* \"#utility.yul\":9040:9041   */\n      dup2\n        /* \"#utility.yul\":9036:9045   */\n      add\n        /* \"#utility.yul\":9031:9045   */\n      swap1\n      pop\n        /* \"#utility.yul\":8996:9392   */\n      jump(tag_340)\n    tag_342:\n        /* \"#utility.yul\":9000:9014   */\n      pop\n        /* \"#utility.yul\":9408:9412   */\n      dup3\n        /* \"#utility.yul\":9401:9412   */\n      swap8\n      pop\n        /* \"#utility.yul\":9428:9431   */\n      dup8\n        /* \"#utility.yul\":9421:9431   */\n      swap6\n      pop\n        /* \"#utility.yul\":8600:9437   */\n      pop\n      pop\n      pop\n      pop\n      pop\n        /* \"#utility.yul\":8466:9437   */\n      swap3\n      swap2\n      pop\n      pop\n      jump\t// out\n        /* \"#utility.yul\":9501:10825   */\n    tag_210:\n        /* \"#utility.yul\":9616:9619   */\n      0x00\n        /* \"#utility.yul\":9652:9656   */\n      0xa0\n        /* \"#utility.yul\":9647:9650   */\n      dup4\n        /* \"#utility.yul\":9643:9657   */\n      add\n        /* \"#utility.yul\":9739:9743   */\n      0x00\n        /* \"#utility.yul\":9732:9737   */\n      dup4\n        /* \"#utility.yul\":9728:9744   */\n      add\n        /* \"#utility.yul\":9722:9745   */\n      mload\n        /* \"#utility.yul\":9792:9795   */\n      dup5\n        /* \"#utility.yul\":9786:9790   */\n      dup3\n        /* \"#utility.yul\":9782:9796   */\n      sub\n        /* \"#utility.yul\":9775:9779   */\n      0x00\n        /* \"#utility.yul\":9770:9773   */\n      dup7\n        /* \"#utility.yul\":9766:9780   */\n      add\n        /* \"#utility.yul\":9759:9797   */\n      mstore\n        /* \"#utility.yul\":9818:9891   */\n      tag_346\n        /* \"#utility.yul\":9886:9890   */\n      dup3\n        /* \"#utility.yul\":9872:9884   */\n      dup3\n        /* \"#utility.yul\":9818:9891   */\n      tag_202\n      jump\t// in\n    tag_346:\n        /* \"#utility.yul\":9810:9891   */\n      swap2\n      pop\n        /* \"#utility.yul\":9667:9902   */\n      pop\n        /* \"#utility.yul\":9986:9990   */\n      0x20\n        /* \"#utility.yul\":9979:9984   */\n      dup4\n        /* \"#utility.yul\":9975:9991   */\n      add\n        /* \"#utility.yul\":9969:9992   */\n      mload\n        /* \"#utility.yul\":10005:10068   */\n      tag_347\n        /* \"#utility.yul\":10062:10066   */\n      0x20\n        /* \"#utility.yul\":10057:10060   */\n      dup7\n        /* \"#utility.yul\":10053:10067   */\n      add\n        /* \"#utility.yul\":10039:10051   */\n      dup3\n        /* \"#utility.yul\":10005:10068   */\n      tag_203\n      jump\t// in\n    tag_347:\n        /* \"#utility.yul\":9912:10078   */\n      pop\n        /* \"#utility.yul\":10161:10165   */\n      0x40\n        /* \"#utility.yul\":10154:10159   */\n      dup4\n        /* \"#utility.yul\":10150:10166   */\n      add\n        /* \"#utility.yul\":10144:10167   */\n      mload\n        /* \"#utility.yul\":10180:10243   */\n      tag_348\n        /* \"#utility.yul\":10237:10241   */\n      0x40\n        /* \"#utility.yul\":10232:10235   */\n      dup7\n        /* \"#utility.yul\":10228:10242   */\n      add\n        /* \"#utility.yul\":10214:10226   */\n      dup3\n        /* \"#utility.yul\":10180:10243   */\n      tag_203\n      jump\t// in\n    tag_348:\n        /* \"#utility.yul\":10088:10253   */\n      pop\n        /* \"#utility.yul\":10337:10341   */\n      0x60\n        /* \"#utility.yul\":10330:10335   */\n      dup4\n        /* \"#utility.yul\":10326:10342   */\n      add\n        /* \"#utility.yul\":10320:10343   */\n      mload\n        /* \"#utility.yul\":10390:10393   */\n      dup5\n        /* \"#utility.yul\":10384:10388   */\n      dup3\n        /* \"#utility.yul\":10380:10394   */\n      sub\n        /* \"#utility.yul\":10373:10377   */\n      0x60\n        /* \"#utility.yul\":10368:10371   */\n      dup7\n        /* \"#utility.yul\":10364:10378   */\n      add\n        /* \"#utility.yul\":10357:10395   */\n      mstore\n        /* \"#utility.yul\":10416:10489   */\n      tag_349\n        /* \"#utility.yul\":10484:10488   */\n      dup3\n        /* \"#utility.yul\":10470:10482   */\n      dup3\n        /* \"#utility.yul\":10416:10489   */\n      tag_202\n      jump\t// in\n    tag_349:\n        /* \"#utility.yul\":10408:10489   */\n      swap2\n      pop\n        /* \"#utility.yul\":10263:10500   */\n      pop\n        /* \"#utility.yul\":10585:10589   */\n      0x80\n        /* \"#utility.yul\":10578:10583   */\n      dup4\n        /* \"#utility.yul\":10574:10590   */\n      add\n        /* \"#utility.yul\":10568:10591   */\n      mload\n        /* \"#utility.yul\":10638:10641   */\n      dup5\n        /* \"#utility.yul\":10632:10636   */\n      dup3\n        /* \"#utility.yul\":10628:10642   */\n      sub\n        /* \"#utility.yul\":10621:10625   */\n      0x80\n        /* \"#utility.yul\":10616:10619   */\n      dup7\n        /* \"#utility.yul\":10612:10626   */\n      add\n        /* \"#utility.yul\":10605:10643   */\n      mstore\n        /* \"#utility.yul\":10664:10787   */\n      tag_350\n        /* \"#utility.yul\":10782:10786   */\n      dup3\n        /* \"#utility.yul\":10768:10780   */\n      dup3\n        /* \"#utility.yul\":10664:10787   */\n      tag_209\n      jump\t// in\n    tag_350:\n        /* \"#utility.yul\":10656:10787   */\n      swap2\n      pop\n        /* \"#utility.yul\":10510:10798   */\n      pop\n        /* \"#utility.yul\":10815:10819   */\n      dup1\n        /* \"#utility.yul\":10808:10819   */\n      swap2\n      pop\n        /* \"#utility.yul\":9621:10825   */\n      pop\n        /* \"#utility.yul\":9501:10825   */\n      swap3\n      swap2\n      pop\n      pop\n      jump\t// out\n        /* \"#utility.yul\":10831:11196   */\n    tag_28:\n        /* \"#utility.yul\":10970:10974   */\n      0x00\n        /* \"#utility.yul\":11008:11010   */\n      0x20\n        /* \"#utility.yul\":10997:11006   */\n      dup3\n        /* \"#utility.yul\":10993:11011   */\n      add\n        /* \"#utility.yul\":10985:11011   */\n      swap1\n      pop\n        /* \"#utility.yul\":11057:11066   */\n      dup2\n        /* \"#utility.yul\":11051:11055   */\n      dup2\n        /* \"#utility.yul\":11047:11067   */\n      sub\n        /* \"#utility.yul\":11043:11044   */\n      0x00\n        /* \"#utility.yul\":11032:11041   */\n      dup4\n        /* \"#utility.yul\":11028:11045   */\n      add\n        /* \"#utility.yul\":11021:11068   */\n      mstore\n        /* \"#utility.yul\":11085:11189   */\n      tag_352\n        /* \"#utility.yul\":11184:11188   */\n      dup2\n        /* \"#utility.yul\":11175:11181   */\n      dup5\n        /* \"#utility.yul\":11085:11189   */\n      tag_210\n      jump\t// in\n    tag_352:\n        /* \"#utility.yul\":11077:11189   */\n      swap1\n      pop\n        /* \"#utility.yul\":10831:11196   */\n      swap3\n      swap2\n      pop\n      pop\n      jump\t// out\n        /* \"#utility.yul\":11202:11292   */\n    tag_211:\n        /* \"#utility.yul\":11236:11243   */\n      0x00\n        /* \"#utility.yul\":11279:11284   */\n      dup2\n        /* \"#utility.yul\":11272:11285   */\n      iszero\n        /* \"#utility.yul\":11265:11286   */\n      iszero\n        /* \"#utility.yul\":11254:11286   */\n      swap1\n      pop\n        /* \"#utility.yul\":11202:11292   */\n      swap2\n      swap1\n      pop\n      jump\t// out\n        /* \"#utility.yul\":11298:11407   */\n    tag_212:\n        /* \"#utility.yul\":11379:11400   */\n      tag_355\n        /* \"#utility.yul\":11394:11399   */\n      dup2\n        /* \"#utility.yul\":11379:11400   */\n      tag_211\n      jump\t// in\n    tag_355:\n        /* \"#utility.yul\":11374:11377   */\n      dup3\n        /* \"#utility.yul\":11367:11401   */\n      mstore\n        /* \"#utility.yul\":11298:11407   */\n      pop\n      pop\n      jump\t// out\n        /* \"#utility.yul\":11413:11623   */\n    tag_32:\n        /* \"#utility.yul\":11500:11504   */\n      0x00\n        /* \"#utility.yul\":11538:11540   */\n      0x20\n        /* \"#utility.yul\":11527:11536   */\n      dup3\n        /* \"#utility.yul\":11523:11541   */\n      add\n        /* \"#utility.yul\":11515:11541   */\n      swap1\n      pop\n        /* \"#utility.yul\":11551:11616   */\n      tag_357\n        /* \"#utility.yul\":11613:11614   */\n      0x00\n        /* \"#utility.yul\":11602:11611   */\n      dup4\n        /* \"#utility.yul\":11598:11615   */\n      add\n        /* \"#utility.yul\":11589:11595   */\n      dup5\n        /* \"#utility.yul\":11551:11616   */\n      tag_212\n      jump\t// in\n    tag_357:\n        /* \"#utility.yul\":11413:11623   */\n      swap3\n      swap2\n      pop\n      pop\n      jump\t// out\n        /* \"#utility.yul\":11629:11958   */\n    tag_35:\n        /* \"#utility.yul\":11688:11694   */\n      0x00\n        /* \"#utility.yul\":11737:11739   */\n      0x20\n        /* \"#utility.yul\":11725:11734   */\n      dup3\n        /* \"#utility.yul\":11716:11723   */\n      dup5\n        /* \"#utility.yul\":11712:11735   */\n      sub\n        /* \"#utility.yul\":11708:11740   */\n      slt\n        /* \"#utility.yul\":11705:11824   */\n      iszero\n      tag_359\n      jumpi\n        /* \"#utility.yul\":11743:11822   */\n      tag_360\n      tag_181\n      jump\t// in\n    tag_360:\n        /* \"#utility.yul\":11705:11824   */\n    tag_359:\n        /* \"#utility.yul\":11863:11864   */\n      0x00\n        /* \"#utility.yul\":11888:11941   */\n      tag_361\n        /* \"#utility.yul\":11933:11940   */\n      dup5\n        /* \"#utility.yul\":11924:11930   */\n      dup3\n        /* \"#utility.yul\":11913:11922   */\n      dup6\n        /* \"#utility.yul\":11909:11931   */\n      add\n        /* \"#utility.yul\":11888:11941   */\n      tag_194\n      jump\t// in\n    tag_361:\n        /* \"#utility.yul\":11878:11941   */\n      swap2\n      pop\n        /* \"#utility.yul\":11834:11951   */\n      pop\n        /* \"#utility.yul\":11629:11958   */\n      swap3\n      swap2\n      pop\n      pop\n      jump\t// out\n        /* \"#utility.yul\":11964:12101   */\n    tag_213:\n        /* \"#utility.yul\":12054:12060   */\n      0x00\n        /* \"#utility.yul\":12088:12093   */\n      dup2\n        /* \"#utility.yul\":12082:12094   */\n      mload\n        /* \"#utility.yul\":12072:12094   */\n      swap1\n      pop\n        /* \"#utility.yul\":11964:12101   */\n      swap2\n      swap1\n      pop\n      jump\t// out\n        /* \"#utility.yul\":12107:12314   */\n    tag_214:\n        /* \"#utility.yul\":12229:12240   */\n      0x00\n        /* \"#utility.yul\":12263:12269   */\n      dup3\n        /* \"#utility.yul\":12258:12261   */\n      dup3\n        /* \"#utility.yul\":12251:12270   */\n      mstore\n        /* \"#utility.yul\":12303:12307   */\n      0x20\n        /* \"#utility.yul\":12298:12301   */\n      dup3\n        /* \"#utility.yul\":12294:12308   */\n      add\n        /* \"#utility.yul\":12279:12308   */\n      swap1\n      pop\n        /* \"#utility.yul\":12107:12314   */\n      swap3\n      swap2\n      pop\n      pop\n      jump\t// out\n        /* \"#utility.yul\":12320:12475   */\n    tag_215:\n        /* \"#utility.yul\":12410:12414   */\n      0x00\n        /* \"#utility.yul\":12433:12436   */\n      dup2\n        /* \"#utility.yul\":12425:12436   */\n      swap1\n      pop\n        /* \"#utility.yul\":12463:12467   */\n      0x20\n        /* \"#utility.yul\":12458:12461   */\n      dup3\n        /* \"#utility.yul\":12454:12468   */\n      add\n        /* \"#utility.yul\":12446:12468   */\n      swap1\n      pop\n        /* \"#utility.yul\":12320:12475   */\n      swap2\n      swap1\n      pop\n      jump\t// out\n        /* \"#utility.yul\":12539:13853   */\n    tag_216:\n        /* \"#utility.yul\":12644:12647   */\n      0x00\n        /* \"#utility.yul\":12680:12684   */\n      0xa0\n        /* \"#utility.yul\":12675:12678   */\n      dup4\n        /* \"#utility.yul\":12671:12685   */\n      add\n        /* \"#utility.yul\":12767:12771   */\n      0x00\n        /* \"#utility.yul\":12760:12765   */\n      dup4\n        /* \"#utility.yul\":12756:12772   */\n      add\n        /* \"#utility.yul\":12750:12773   */\n      mload\n        /* \"#utility.yul\":12820:12823   */\n      dup5\n        /* \"#utility.yul\":12814:12818   */\n      dup3\n        /* \"#utility.yul\":12810:12824   */\n      sub\n        /* \"#utility.yul\":12803:12807   */\n      0x00\n        /* \"#utility.yul\":12798:12801   */\n      dup7\n        /* \"#utility.yul\":12794:12808   */\n      add\n        /* \"#utility.yul\":12787:12825   */\n      mstore\n        /* \"#utility.yul\":12846:12919   */\n      tag_366\n        /* \"#utility.yul\":12914:12918   */\n      dup3\n        /* \"#utility.yul\":12900:12912   */\n      dup3\n        /* \"#utility.yul\":12846:12919   */\n      tag_202\n      jump\t// in\n    tag_366:\n        /* \"#utility.yul\":12838:12919   */\n      swap2\n      pop\n        /* \"#utility.yul\":12695:12930   */\n      pop\n        /* \"#utility.yul\":13014:13018   */\n      0x20\n        /* \"#utility.yul\":13007:13012   */\n      dup4\n        /* \"#utility.yul\":13003:13019   */\n      add\n        /* \"#utility.yul\":12997:13020   */\n      mload\n        /* \"#utility.yul\":13033:13096   */\n      tag_367\n        /* \"#utility.yul\":13090:13094   */\n      0x20\n        /* \"#utility.yul\":13085:13088   */\n      dup7\n        /* \"#utility.yul\":13081:13095   */\n      add\n        /* \"#utility.yul\":13067:13079   */\n      dup3\n        /* \"#utility.yul\":13033:13096   */\n      tag_203\n      jump\t// in\n    tag_367:\n        /* \"#utility.yul\":12940:13106   */\n      pop\n        /* \"#utility.yul\":13189:13193   */\n      0x40\n        /* \"#utility.yul\":13182:13187   */\n      dup4\n        /* \"#utility.yul\":13178:13194   */\n      add\n        /* \"#utility.yul\":13172:13195   */\n      mload\n        /* \"#utility.yul\":13208:13271   */\n      tag_368\n        /* \"#utility.yul\":13265:13269   */\n      0x40\n        /* \"#utility.yul\":13260:13263   */\n      dup7\n        /* \"#utility.yul\":13256:13270   */\n      add\n        /* \"#utility.yul\":13242:13254   */\n      dup3\n        /* \"#utility.yul\":13208:13271   */\n      tag_203\n      jump\t// in\n    tag_368:\n        /* \"#utility.yul\":13116:13281   */\n      pop\n        /* \"#utility.yul\":13365:13369   */\n      0x60\n        /* \"#utility.yul\":13358:13363   */\n      dup4\n        /* \"#utility.yul\":13354:13370   */\n      add\n        /* \"#utility.yul\":13348:13371   */\n      mload\n        /* \"#utility.yul\":13418:13421   */\n      dup5\n        /* \"#utility.yul\":13412:13416   */\n      dup3\n        /* \"#utility.yul\":13408:13422   */\n      sub\n        /* \"#utility.yul\":13401:13405   */\n      0x60\n        /* \"#utility.yul\":13396:13399   */\n      dup7\n        /* \"#utility.yul\":13392:13406   */\n      add\n        /* \"#utility.yul\":13385:13423   */\n      mstore\n        /* \"#utility.yul\":13444:13517   */\n      tag_369\n        /* \"#utility.yul\":13512:13516   */\n      dup3\n        /* \"#utility.yul\":13498:13510   */\n      dup3\n        /* \"#utility.yul\":13444:13517   */\n      tag_202\n      jump\t// in\n    tag_369:\n        /* \"#utility.yul\":13436:13517   */\n      swap2\n      pop\n        /* \"#utility.yul\":13291:13528   */\n      pop\n        /* \"#utility.yul\":13613:13617   */\n      0x80\n        /* \"#utility.yul\":13606:13611   */\n      dup4\n        /* \"#utility.yul\":13602:13618   */\n      add\n        /* \"#utility.yul\":13596:13619   */\n      mload\n        /* \"#utility.yul\":13666:13669   */\n      dup5\n        /* \"#utility.yul\":13660:13664   */\n      dup3\n        /* \"#utility.yul\":13656:13670   */\n      sub\n        /* \"#utility.yul\":13649:13653   */\n      0x80\n        /* \"#utility.yul\":13644:13647   */\n      dup7\n        /* \"#utility.yul\":13640:13654   */\n      add\n        /* \"#utility.yul\":13633:13671   */\n      mstore\n        /* \"#utility.yul\":13692:13815   */\n      tag_370\n        /* \"#utility.yul\":13810:13814   */\n      dup3\n        /* \"#utility.yul\":13796:13808   */\n      dup3\n        /* \"#utility.yul\":13692:13815   */\n      tag_209\n      jump\t// in\n    tag_370:\n        /* \"#utility.yul\":13684:13815   */\n      swap2\n      pop\n        /* \"#utility.yul\":13538:13826   */\n      pop\n        /* \"#utility.yul\":13843:13847   */\n      dup1\n        /* \"#utility.yul\":13836:13847   */\n      swap2\n      pop\n        /* \"#utility.yul\":12649:13853   */\n      pop\n        /* \"#utility.yul\":12539:13853   */\n      swap3\n      swap2\n      pop\n      pop\n      jump\t// out\n        /* \"#utility.yul\":13859:14107   */\n    tag_217:\n        /* \"#utility.yul\":13974:13984   */\n      0x00\n        /* \"#utility.yul\":14009:14101   */\n      tag_372\n        /* \"#utility.yul\":14097:14100   */\n      dup4\n        /* \"#utility.yul\":14089:14095   */\n      dup4\n        /* \"#utility.yul\":14009:14101   */\n      tag_216\n      jump\t// in\n    tag_372:\n        /* \"#utility.yul\":13995:14101   */\n      swap1\n      pop\n        /* \"#utility.yul\":13859:14107   */\n      swap3\n      swap2\n      pop\n      pop\n      jump\t// out\n        /* \"#utility.yul\":14113:14249   */\n    tag_218:\n        /* \"#utility.yul\":14206:14210   */\n      0x00\n        /* \"#utility.yul\":14238:14242   */\n      0x20\n        /* \"#utility.yul\":14233:14236   */\n      dup3\n        /* \"#utility.yul\":14229:14243   */\n      add\n        /* \"#utility.yul\":14221:14243   */\n      swap1\n      pop\n        /* \"#utility.yul\":14113:14249   */\n      swap2\n      swap1\n      pop\n      jump\t// out\n        /* \"#utility.yul\":14317:15412   */\n    tag_219:\n        /* \"#utility.yul\":14482:14485   */\n      0x00\n        /* \"#utility.yul\":14511:14588   */\n      tag_375\n        /* \"#utility.yul\":14582:14587   */\n      dup3\n        /* \"#utility.yul\":14511:14588   */\n      tag_213\n      jump\t// in\n    tag_375:\n        /* \"#utility.yul\":14604:14713   */\n      tag_376\n        /* \"#utility.yul\":14706:14712   */\n      dup2\n        /* \"#utility.yul\":14701:14704   */\n      dup6\n        /* \"#utility.yul\":14604:14713   */\n      tag_214\n      jump\t// in\n    tag_376:\n        /* \"#utility.yul\":14597:14713   */\n      swap4\n      pop\n        /* \"#utility.yul\":14739:14742   */\n      dup4\n        /* \"#utility.yul\":14784:14788   */\n      0x20\n        /* \"#utility.yul\":14776:14782   */\n      dup3\n        /* \"#utility.yul\":14772:14789   */\n      mul\n        /* \"#utility.yul\":14767:14770   */\n      dup6\n        /* \"#utility.yul\":14763:14790   */\n      add\n        /* \"#utility.yul\":14814:14893   */\n      tag_377\n        /* \"#utility.yul\":14887:14892   */\n      dup6\n        /* \"#utility.yul\":14814:14893   */\n      tag_215\n      jump\t// in\n    tag_377:\n        /* \"#utility.yul\":14916:14923   */\n      dup1\n        /* \"#utility.yul\":14947:14948   */\n      0x00\n        /* \"#utility.yul\":14932:15367   */\n    tag_378:\n        /* \"#utility.yul\":14957:14963   */\n      dup6\n        /* \"#utility.yul\":14954:14955   */\n      dup2\n        /* \"#utility.yul\":14951:14964   */\n      lt\n        /* \"#utility.yul\":14932:15367   */\n      iszero\n      tag_380\n      jumpi\n        /* \"#utility.yul\":15028:15037   */\n      dup5\n        /* \"#utility.yul\":15022:15026   */\n      dup5\n        /* \"#utility.yul\":15018:15038   */\n      sub\n        /* \"#utility.yul\":15013:15016   */\n      dup10\n        /* \"#utility.yul\":15006:15039   */\n      mstore\n        /* \"#utility.yul\":15079:15085   */\n      dup2\n        /* \"#utility.yul\":15073:15086   */\n      mload\n        /* \"#utility.yul\":15107:15217   */\n      tag_381\n        /* \"#utility.yul\":15212:15216   */\n      dup6\n        /* \"#utility.yul\":15197:15210   */\n      dup3\n        /* \"#utility.yul\":15107:15217   */\n      tag_217\n      jump\t// in\n    tag_381:\n        /* \"#utility.yul\":15099:15217   */\n      swap5\n      pop\n        /* \"#utility.yul\":15240:15323   */\n      tag_382\n        /* \"#utility.yul\":15316:15322   */\n      dup4\n        /* \"#utility.yul\":15240:15323   */\n      tag_218\n      jump\t// in\n    tag_382:\n        /* \"#utility.yul\":15230:15323   */\n      swap3\n      pop\n        /* \"#utility.yul\":15352:15356   */\n      0x20\n        /* \"#utility.yul\":15347:15350   */\n      dup11\n        /* \"#utility.yul\":15343:15357   */\n      add\n        /* \"#utility.yul\":15336:15357   */\n      swap10\n      pop\n        /* \"#utility.yul\":14992:15367   */\n      pop\n        /* \"#utility.yul\":14979:14980   */\n      0x01\n        /* \"#utility.yul\":14976:14977   */\n      dup2\n        /* \"#utility.yul\":14972:14981   */\n      add\n        /* \"#utility.yul\":14967:14981   */\n      swap1\n      pop\n        /* \"#utility.yul\":14932:15367   */\n      jump(tag_378)\n    tag_380:\n        /* \"#utility.yul\":14936:14950   */\n      pop\n        /* \"#utility.yul\":15383:15387   */\n      dup3\n        /* \"#utility.yul\":15376:15387   */\n      swap8\n      pop\n        /* \"#utility.yul\":15403:15406   */\n      dup8\n        /* \"#utility.yul\":15396:15406   */\n      swap6\n      pop\n        /* \"#utility.yul\":14487:15412   */\n      pop\n      pop\n      pop\n      pop\n      pop\n        /* \"#utility.yul\":14317:15412   */\n      swap3\n      swap2\n      pop\n      pop\n      jump\t// out\n        /* \"#utility.yul\":15418:15883   */\n    tag_41:\n        /* \"#utility.yul\":15607:15611   */\n      0x00\n        /* \"#utility.yul\":15645:15647   */\n      0x20\n        /* \"#utility.yul\":15634:15643   */\n      dup3\n        /* \"#utility.yul\":15630:15648   */\n      add\n        /* \"#utility.yul\":15622:15648   */\n      swap1\n      pop\n        /* \"#utility.yul\":15694:15703   */\n      dup2\n        /* \"#utility.yul\":15688:15692   */\n      dup2\n        /* \"#utility.yul\":15684:15704   */\n      sub\n        /* \"#utility.yul\":15680:15681   */\n      0x00\n        /* \"#utility.yul\":15669:15678   */\n      dup4\n        /* \"#utility.yul\":15665:15682   */\n      add\n        /* \"#utility.yul\":15658:15705   */\n      mstore\n        /* \"#utility.yul\":15722:15876   */\n      tag_384\n        /* \"#utility.yul\":15871:15875   */\n      dup2\n        /* \"#utility.yul\":15862:15868   */\n      dup5\n        /* \"#utility.yul\":15722:15876   */\n      tag_219\n      jump\t// in\n    tag_384:\n        /* \"#utility.yul\":15714:15876   */\n      swap1\n      pop\n        /* \"#utility.yul\":15418:15883   */\n      swap3\n      swap2\n      pop\n      pop\n      jump\t// out\n        /* \"#utility.yul\":15889:16058   */\n    tag_220:\n        /* \"#utility.yul\":15973:15984   */\n      0x00\n        /* \"#utility.yul\":16007:16013   */\n      dup3\n        /* \"#utility.yul\":16002:16005   */\n      dup3\n        /* \"#utility.yul\":15995:16014   */\n      mstore\n        /* \"#utility.yul\":16047:16051   */\n      0x20\n        /* \"#utility.yul\":16042:16045   */\n      dup3\n        /* \"#utility.yul\":16038:16052   */\n      add\n        /* \"#utility.yul\":16023:16052   */\n      swap1\n      pop\n        /* \"#utility.yul\":15889:16058   */\n      swap3\n      swap2\n      pop\n      pop\n      jump\t// out\n        /* \"#utility.yul\":16064:16441   */\n    tag_221:\n        /* \"#utility.yul\":16152:16155   */\n      0x00\n        /* \"#utility.yul\":16180:16219   */\n      tag_387\n        /* \"#utility.yul\":16213:16218   */\n      dup3\n        /* \"#utility.yul\":16180:16219   */\n      tag_199\n      jump\t// in\n    tag_387:\n        /* \"#utility.yul\":16235:16306   */\n      tag_388\n        /* \"#utility.yul\":16299:16305   */\n      dup2\n        /* \"#utility.yul\":16294:16297   */\n      dup6\n        /* \"#utility.yul\":16235:16306   */\n      tag_220\n      jump\t// in\n    tag_388:\n        /* \"#utility.yul\":16228:16306   */\n      swap4\n      pop\n        /* \"#utility.yul\":16315:16380   */\n      tag_389\n        /* \"#utility.yul\":16373:16379   */\n      dup2\n        /* \"#utility.yul\":16368:16371   */\n      dup6\n        /* \"#utility.yul\":16361:16365   */\n      0x20\n        /* \"#utility.yul\":16354:16359   */\n      dup7\n        /* \"#utility.yul\":16350:16366   */\n      add\n        /* \"#utility.yul\":16315:16380   */\n      tag_201\n      jump\t// in\n    tag_389:\n        /* \"#utility.yul\":16405:16434   */\n      tag_390\n        /* \"#utility.yul\":16427:16433   */\n      dup2\n        /* \"#utility.yul\":16405:16434   */\n      tag_185\n      jump\t// in\n    tag_390:\n        /* \"#utility.yul\":16400:16403   */\n      dup5\n        /* \"#utility.yul\":16396:16435   */\n      add\n        /* \"#utility.yul\":16389:16435   */\n      swap2\n      pop\n        /* \"#utility.yul\":16156:16441   */\n      pop\n        /* \"#utility.yul\":16064:16441   */\n      swap3\n      swap2\n      pop\n      pop\n      jump\t// out\n        /* \"#utility.yul\":16447:16760   */\n    tag_46:\n        /* \"#utility.yul\":16560:16564   */\n      0x00\n        /* \"#utility.yul\":16598:16600   */\n      0x20\n        /* \"#utility.yul\":16587:16596   */\n      dup3\n        /* \"#utility.yul\":16583:16601   */\n      add\n        /* \"#utility.yul\":16575:16601   */\n      swap1\n      pop\n        /* \"#utility.yul\":16647:16656   */\n      dup2\n        /* \"#utility.yul\":16641:16645   */\n      dup2\n        /* \"#utility.yul\":16637:16657   */\n      sub\n        /* \"#utility.yul\":16633:16634   */\n      0x00\n        /* \"#utility.yul\":16622:16631   */\n      dup4\n        /* \"#utility.yul\":16618:16635   */\n      add\n        /* \"#utility.yul\":16611:16658   */\n      mstore\n        /* \"#utility.yul\":16675:16753   */\n      tag_392\n        /* \"#utility.yul\":16748:16752   */\n      dup2\n        /* \"#utility.yul\":16739:16745   */\n      dup5\n        /* \"#utility.yul\":16675:16753   */\n      tag_221\n      jump\t// in\n    tag_392:\n        /* \"#utility.yul\":16667:16753   */\n      swap1\n      pop\n        /* \"#utility.yul\":16447:16760   */\n      swap3\n      swap2\n      pop\n      pop\n      jump\t// out\n        /* \"#utility.yul\":16766:16946   */\n    tag_53:\n        /* \"#utility.yul\":16814:16891   */\n      0x4e487b7100000000000000000000000000000000000000000000000000000000\n        /* \"#utility.yul\":16811:16812   */\n      0x00\n        /* \"#utility.yul\":16804:16892   */\n      mstore\n        /* \"#utility.yul\":16911:16915   */\n      0x32\n        /* \"#utility.yul\":16908:16909   */\n      0x04\n        /* \"#utility.yul\":16901:16916   */\n      mstore\n        /* \"#utility.yul\":16935:16939   */\n      0x24\n        /* \"#utility.yul\":16932:16933   */\n      0x00\n        /* \"#utility.yul\":16925:16940   */\n      revert\n        /* \"#utility.yul\":16952:17132   */\n    tag_222:\n        /* \"#utility.yul\":17000:17077   */\n      0x4e487b7100000000000000000000000000000000000000000000000000000000\n        /* \"#utility.yul\":16997:16998   */\n      0x00\n        /* \"#utility.yul\":16990:17078   */\n      mstore\n        /* \"#utility.yul\":17097:17101   */\n      0x11\n        /* \"#utility.yul\":17094:17095   */\n      0x04\n        /* \"#utility.yul\":17087:17102   */\n      mstore\n        /* \"#utility.yul\":17121:17125   */\n      0x24\n        /* \"#utility.yul\":17118:17119   */\n      0x00\n        /* \"#utility.yul\":17111:17126   */\n      revert\n        /* \"#utility.yul\":17138:17329   */\n    tag_56:\n        /* \"#utility.yul\":17178:17181   */\n      0x00\n        /* \"#utility.yul\":17197:17217   */\n      tag_396\n        /* \"#utility.yul\":17215:17216   */\n      dup3\n        /* \"#utility.yul\":17197:17217   */\n      tag_178\n      jump\t// in\n    tag_396:\n        /* \"#utility.yul\":17192:17217   */\n      swap2\n      pop\n        /* \"#utility.yul\":17231:17251   */\n      tag_397\n        /* \"#utility.yul\":17249:17250   */\n      dup4\n        /* \"#utility.yul\":17231:17251   */\n      tag_178\n      jump\t// in\n    tag_397:\n        /* \"#utility.yul\":17226:17251   */\n      swap3\n      pop\n        /* \"#utility.yul\":17274:17275   */\n      dup3\n        /* \"#utility.yul\":17271:17272   */\n      dup3\n        /* \"#utility.yul\":17267:17276   */\n      add\n        /* \"#utility.yul\":17260:17276   */\n      swap1\n      pop\n        /* \"#utility.yul\":17295:17298   */\n      dup1\n        /* \"#utility.yul\":17292:17293   */\n      dup3\n        /* \"#utility.yul\":17289:17299   */\n      gt\n        /* \"#utility.yul\":17286:17322   */\n      iszero\n      tag_398\n      jumpi\n        /* \"#utility.yul\":17302:17320   */\n      tag_399\n      tag_222\n      jump\t// in\n    tag_399:\n        /* \"#utility.yul\":17286:17322   */\n    tag_398:\n        /* \"#utility.yul\":17138:17329   */\n      swap3\n      swap2\n      pop\n      pop\n      jump\t// out\n        /* \"#utility.yul\":17335:17568   */\n    tag_58:\n        /* \"#utility.yul\":17374:17377   */\n      0x00\n        /* \"#utility.yul\":17397:17421   */\n      tag_401\n        /* \"#utility.yul\":17415:17420   */\n      dup3\n        /* \"#utility.yul\":17397:17421   */\n      tag_178\n      jump\t// in\n    tag_401:\n        /* \"#utility.yul\":17388:17421   */\n      swap2\n      pop\n        /* \"#utility.yul\":17443:17509   */\n      0xffffffffffffffffffffffffffffffffffffffffffffffffffffffffffffffff\n        /* \"#utility.yul\":17436:17441   */\n      dup3\n        /* \"#utility.yul\":17433:17510   */\n      sub\n        /* \"#utility.yul\":17430:17533   */\n      tag_402\n      jumpi\n        /* \"#utility.yul\":17513:17531   */\n      tag_403\n      tag_222\n      jump\t// in\n    tag_403:\n        /* \"#utility.yul\":17430:17533   */\n    tag_402:\n        /* \"#utility.yul\":17560:17561   */\n      0x01\n        /* \"#utility.yul\":17553:17558   */\n      dup3\n        /* \"#utility.yul\":17549:17562   */\n      add\n        /* \"#utility.yul\":17542:17562   */\n      swap1\n      pop\n        /* \"#utility.yul\":17335:17568   */\n      swap2\n      swap1\n      pop\n      jump\t// out\n        /* \"#utility.yul\":17574:17754   */\n    tag_223:\n        /* \"#utility.yul\":17622:17699   */\n      0x4e487b7100000000000000000000000000000000000000000000000000000000\n        /* \"#utility.yul\":17619:17620   */\n      0x00\n        /* \"#utility.yul\":17612:17700   */\n      mstore\n        /* \"#utility.yul\":17719:17723   */\n      0x12\n        /* \"#utility.yul\":17716:17717   */\n      0x04\n        /* \"#utility.yul\":17709:17724   */\n      mstore\n        /* \"#utility.yul\":17743:17747   */\n      0x24\n        /* \"#utility.yul\":17740:17741   */\n      0x00\n        /* \"#utility.yul\":17733:17748   */\n      revert\n        /* \"#utility.yul\":17760:17945   */\n    tag_60:\n        /* \"#utility.yul\":17800:17801   */\n      0x00\n        /* \"#utility.yul\":17817:17837   */\n      tag_406\n        /* \"#utility.yul\":17835:17836   */\n      dup3\n        /* \"#utility.yul\":17817:17837   */\n      tag_178\n      jump\t// in\n    tag_406:\n        /* \"#utility.yul\":17812:17837   */\n      swap2\n      pop\n        /* \"#utility.yul\":17851:17871   */\n      tag_407\n        /* \"#utility.yul\":17869:17870   */\n      dup4\n        /* \"#utility.yul\":17851:17871   */\n      tag_178\n      jump\t// in\n    tag_407:\n        /* \"#utility.yul\":17846:17871   */\n      swap3\n      pop\n        /* \"#utility.yul\":17890:17891   */\n      dup3\n        /* \"#utility.yul\":17880:17915   */\n      tag_408\n      jumpi\n        /* \"#utility.yul\":17895:17913   */\n      tag_409\n      tag_223\n      jump\t// in\n    tag_409:\n        /* \"#utility.yul\":17880:17915   */\n    tag_408:\n        /* \"#utility.yul\":17937:17938   */\n      dup3\n        /* \"#utility.yul\":17934:17935   */\n      dup3\n        /* \"#utility.yul\":17930:17939   */\n      div\n        /* \"#utility.yul\":17925:17939   */\n      swap1\n      pop\n        /* \"#utility.yul\":17760:17945   */\n      swap3\n      swap2\n      pop\n      pop\n      jump\t// out\n        /* \"#utility.yul\":17951:18131   */\n    tag_224:\n        /* \"#utility.yul\":17999:18076   */\n      0x4e487b7100000000000000000000000000000000000000000000000000000000\n        /* \"#utility.yul\":17996:17997   */\n      0x00\n        /* \"#utility.yul\":17989:18077   */\n      mstore\n        /* \"#utility.yul\":18096:18100   */\n      0x22\n        /* \"#utility.yul\":18093:18094   */\n      0x04\n        /* \"#utility.yul\":18086:18101   */\n      mstore\n        /* \"#utility.yul\":18120:18124   */\n      0x24\n        /* \"#utility.yul\":18117:18118   */\n      0x00\n        /* \"#utility.yul\":18110:18125   */\n      revert\n        /* \"#utility.yul\":18137:18457   */\n    tag_83:\n        /* \"#utility.yul\":18181:18187   */\n      0x00\n        /* \"#utility.yul\":18218:18219   */\n      0x02\n        /* \"#utility.yul\":18212:18216   */\n      dup3\n        /* \"#utility.yul\":18208:18220   */\n      div\n        /* \"#utility.yul\":18198:18220   */\n      swap1\n      pop\n        /* \"#utility.yul\":18265:18266   */\n      0x01\n        /* \"#utility.yul\":18259:18263   */\n      dup3\n        /* \"#utility.yul\":18255:18267   */\n      and\n        /* \"#utility.yul\":18286:18304   */\n      dup1\n        /* \"#utility.yul\":18276:18357   */\n      tag_412\n      jumpi\n        /* \"#utility.yul\":18342:18346   */\n      0x7f\n        /* \"#utility.yul\":18334:18340   */\n      dup3\n        /* \"#utility.yul\":18330:18347   */\n      and\n        /* \"#utility.yul\":18320:18347   */\n      swap2\n      pop\n        /* \"#utility.yul\":18276:18357   */\n    tag_412:\n        /* \"#utility.yul\":18404:18406   */\n      0x20\n        /* \"#utility.yul\":18396:18402   */\n      dup3\n        /* \"#utility.yul\":18393:18407   */\n      lt\n        /* \"#utility.yul\":18373:18391   */\n      dup2\n        /* \"#utility.yul\":18370:18408   */\n      sub\n        /* \"#utility.yul\":18367:18451   */\n      tag_413\n      jumpi\n        /* \"#utility.yul\":18423:18441   */\n      tag_414\n      tag_224\n      jump\t// in\n    tag_414:\n        /* \"#utility.yul\":18367:18451   */\n    tag_413:\n        /* \"#utility.yul\":18188:18457   */\n      pop\n        /* \"#utility.yul\":18137:18457   */\n      swap2\n      swap1\n      pop\n      jump\t// out\n        /* \"#utility.yul\":18463:18604   */\n    tag_225:\n        /* \"#utility.yul\":18512:18516   */\n      0x00\n        /* \"#utility.yul\":18535:18538   */\n      dup2\n        /* \"#utility.yul\":18527:18538   */\n      swap1\n      pop\n        /* \"#utility.yul\":18558:18561   */\n      dup2\n        /* \"#utility.yul\":18555:18556   */\n      0x00\n        /* \"#utility.yul\":18548:18562   */\n      mstore\n        /* \"#utility.yul\":18592:18596   */\n      0x20\n        /* \"#utility.yul\":18589:18590   */\n      0x00\n        /* \"#utility.yul\":18579:18597   */\n      keccak256\n        /* \"#utility.yul\":18571:18597   */\n      swap1\n      pop\n        /* \"#utility.yul\":18463:18604   */\n      swap2\n      swap1\n      pop\n      jump\t// out\n        /* \"#utility.yul\":18610:18703   */\n    tag_226:\n        /* \"#utility.yul\":18647:18653   */\n      0x00\n        /* \"#utility.yul\":18694:18696   */\n      0x20\n        /* \"#utility.yul\":18689:18691   */\n      0x1f\n        /* \"#utility.yul\":18682:18687   */\n      dup4\n        /* \"#utility.yul\":18678:18692   */\n      add\n        /* \"#utility.yul\":18674:18697   */\n      div\n        /* \"#utility.yul\":18664:18697   */\n      swap1\n      pop\n        /* \"#utility.yul\":18610:18703   */\n      swap2\n      swap1\n      pop\n      jump\t// out\n        /* \"#utility.yul\":18709:18816   */\n    tag_227:\n        /* \"#utility.yul\":18753:18761   */\n      0x00\n        /* \"#utility.yul\":18803:18808   */\n      dup3\n        /* \"#utility.yul\":18797:18801   */\n      dup3\n        /* \"#utility.yul\":18793:18809   */\n      shl\n        /* \"#utility.yul\":18772:18809   */\n      swap1\n      pop\n        /* \"#utility.yul\":18709:18816   */\n      swap3\n      swap2\n      pop\n      pop\n      jump\t// out\n        /* \"#utility.yul\":18822:19215   */\n    tag_228:\n        /* \"#utility.yul\":18891:18897   */\n      0x00\n        /* \"#utility.yul\":18941:18942   */\n      0x08\n        /* \"#utility.yul\":18929:18939   */\n      dup4\n        /* \"#utility.yul\":18925:18943   */\n      mul\n        /* \"#utility.yul\":18964:19061   */\n      tag_419\n        /* \"#utility.yul\":18994:19060   */\n      0xffffffffffffffffffffffffffffffffffffffffffffffffffffffffffffffff\n        /* \"#utility.yul\":18983:18992   */\n      dup3\n        /* \"#utility.yul\":18964:19061   */\n      tag_227\n      jump\t// in\n    tag_419:\n        /* \"#utility.yul\":19082:19121   */\n      tag_420\n        /* \"#utility.yul\":19112:19120   */\n      dup7\n        /* \"#utility.yul\":19101:19110   */\n      dup4\n        /* \"#utility.yul\":19082:19121   */\n      tag_227\n      jump\t// in\n    tag_420:\n        /* \"#utility.yul\":19070:19121   */\n      swap6\n      pop\n        /* \"#utility.yul\":19154:19158   */\n      dup1\n        /* \"#utility.yul\":19150:19159   */\n      not\n        /* \"#utility.yul\":19143:19148   */\n      dup5\n        /* \"#utility.yul\":19139:19160   */\n      and\n        /* \"#utility.yul\":19130:19160   */\n      swap4\n      pop\n        /* \"#utility.yul\":19203:19207   */\n      dup1\n        /* \"#utility.yul\":19193:19201   */\n      dup7\n        /* \"#utility.yul\":19189:19208   */\n      and\n        /* \"#utility.yul\":19182:19187   */\n      dup5\n        /* \"#utility.yul\":19179:19209   */\n      or\n        /* \"#utility.yul\":19169:19209   */\n      swap3\n      pop\n        /* \"#utility.yul\":18898:19215   */\n      pop\n      pop\n        /* \"#utility.yul\":18822:19215   */\n      swap4\n      swap3\n      pop\n      pop\n      pop\n      jump\t// out\n        /* \"#utility.yul\":19221:19281   */\n    tag_229:\n        /* \"#utility.yul\":19249:19252   */\n      0x00\n        /* \"#utility.yul\":19270:19275   */\n      dup2\n        /* \"#utility.yul\":19263:19275   */\n      swap1\n      pop\n        /* \"#utility.yul\":19221:19281   */\n      swap2\n      swap1\n      pop\n      jump\t// out\n        /* \"#utility.yul\":19287:19429   */\n    tag_230:\n        /* \"#utility.yul\":19337:19346   */\n      0x00\n        /* \"#utility.yul\":19370:19423   */\n      tag_423\n        /* \"#utility.yul\":19388:19422   */\n      tag_424\n        /* \"#utility.yul\":19397:19421   */\n      tag_425\n        /* \"#utility.yul\":19415:19420   */\n      dup5\n        /* \"#utility.yul\":19397:19421   */\n      tag_178\n      jump\t// in\n    tag_425:\n        /* \"#utility.yul\":19388:19422   */\n      tag_229\n      jump\t// in\n    tag_424:\n        /* \"#utility.yul\":19370:19423   */\n      tag_178\n      jump\t// in\n    tag_423:\n        /* \"#utility.yul\":19357:19423   */\n      swap1\n      pop\n        /* \"#utility.yul\":19287:19429   */\n      swap2\n      swap1\n      pop\n      jump\t// out\n        /* \"#utility.yul\":19435:19510   */\n    tag_231:\n        /* \"#utility.yul\":19478:19481   */\n      0x00\n        /* \"#utility.yul\":19499:19504   */\n      dup2\n        /* \"#utility.yul\":19492:19504   */\n      swap1\n      pop\n        /* \"#utility.yul\":19435:19510   */\n      swap2\n      swap1\n      pop\n      jump\t// out\n        /* \"#utility.yul\":19516:19785   */\n    tag_232:\n        /* \"#utility.yul\":19626:19665   */\n      tag_428\n        /* \"#utility.yul\":19657:19664   */\n      dup4\n        /* \"#utility.yul\":19626:19665   */\n      tag_230\n      jump\t// in\n    tag_428:\n        /* \"#utility.yul\":19687:19778   */\n      tag_429\n        /* \"#utility.yul\":19736:19777   */\n      tag_430\n        /* \"#utility.yul\":19760:19776   */\n      dup3\n        /* \"#utility.yul\":19736:19777   */\n      tag_231\n      jump\t// in\n    tag_430:\n        /* \"#utility.yul\":19728:19734   */\n      dup5\n        /* \"#utility.yul\":19721:19725   */\n      dup5\n        /* \"#utility.yul\":19715:19726   */\n      sload\n        /* \"#utility.yul\":19687:19778   */\n      tag_228\n      jump\t// in\n    tag_429:\n        /* \"#utility.yul\":19681:19685   */\n      dup3\n        /* \"#utility.yul\":19674:19779   */\n      sstore\n        /* \"#utility.yul\":19592:19785   */\n      pop\n        /* \"#utility.yul\":19516:19785   */\n      pop\n      pop\n      pop\n      jump\t// out\n        /* \"#utility.yul\":19791:19864   */\n    tag_233:\n        /* \"#utility.yul\":19836:19839   */\n      0x00\n        /* \"#utility.yul\":19791:19864   */\n      swap1\n      jump\t// out\n        /* \"#utility.yul\":19870:20059   */\n    tag_234:\n        /* \"#utility.yul\":19947:19979   */\n      tag_433\n      tag_233\n      jump\t// in\n    tag_433:\n        /* \"#utility.yul\":19988:20053   */\n      tag_434\n        /* \"#utility.yul\":20046:20052   */\n      dup2\n        /* \"#utility.yul\":20038:20044   */\n      dup5\n        /* \"#utility.yul\":20032:20036   */\n      dup5\n        /* \"#utility.yul\":19988:20053   */\n      tag_232\n      jump\t// in\n    tag_434:\n        /* \"#utility.yul\":19923:20059   */\n      pop\n        /* \"#utility.yul\":19870:20059   */\n      pop\n      pop\n      jump\t// out\n        /* \"#utility.yul\":20065:20251   */\n    tag_235:\n        /* \"#utility.yul\":20125:20245   */\n    tag_436:\n        /* \"#utility.yul\":20142:20145   */\n      dup2\n        /* \"#utility.yul\":20135:20140   */\n      dup2\n        /* \"#utility.yul\":20132:20146   */\n      lt\n        /* \"#utility.yul\":20125:20245   */\n      iszero\n      tag_438\n      jumpi\n        /* \"#utility.yul\":20196:20235   */\n      tag_439\n        /* \"#utility.yul\":20233:20234   */\n      0x00\n        /* \"#utility.yul\":20226:20231   */\n      dup3\n        /* \"#utility.yul\":20196:20235   */\n      tag_234\n      jump\t// in\n    tag_439:\n        /* \"#utility.yul\":20169:20170   */\n      0x01\n        /* \"#utility.yul\":20162:20167   */\n      dup2\n        /* \"#utility.yul\":20158:20171   */\n      add\n        /* \"#utility.yul\":20149:20171   */\n      swap1\n      pop\n        /* \"#utility.yul\":20125:20245   */\n      jump(tag_436)\n    tag_438:\n        /* \"#utility.yul\":20065:20251   */\n      pop\n      pop\n      jump\t// out\n        /* \"#utility.yul\":20257:20800   */\n    tag_236:\n        /* \"#utility.yul\":20358:20360   */\n      0x1f\n        /* \"#utility.yul\":20353:20356   */\n      dup3\n        /* \"#utility.yul\":20350:20361   */\n      gt\n        /* \"#utility.yul\":20347:20793   */\n      iszero\n      tag_441\n      jumpi\n        /* \"#utility.yul\":20392:20430   */\n      tag_442\n        /* \"#utility.yul\":20424:20429   */\n      dup2\n        /* \"#utility.yul\":20392:20430   */\n      tag_225\n      jump\t// in\n    tag_442:\n        /* \"#utility.yul\":20476:20505   */\n      tag_443\n        /* \"#utility.yul\":20494:20504   */\n      dup5\n        /* \"#utility.yul\":20476:20505   */\n      tag_226\n      jump\t// in\n    tag_443:\n        /* \"#utility.yul\":20466:20474   */\n      dup2\n        /* \"#utility.yul\":20462:20506   */\n      add\n        /* \"#utility.yul\":20659:20661   */\n      0x20\n        /* \"#utility.yul\":20647:20657   */\n      dup6\n        /* \"#utility.yul\":20644:20662   */\n      lt\n        /* \"#utility.yul\":20641:20690   */\n      iszero\n      tag_444\n      jumpi\n        /* \"#utility.yul\":20680:20688   */\n      dup2\n        /* \"#utility.yul\":20665:20688   */\n      swap1\n      pop\n        /* \"#utility.yul\":20641:20690   */\n    tag_444:\n        /* \"#utility.yul\":20703:20783   */\n      tag_445\n        /* \"#utility.yul\":20759:20781   */\n      tag_446\n        /* \"#utility.yul\":20777:20780   */\n      dup6\n        /* \"#utility.yul\":20759:20781   */\n      tag_226\n      jump\t// in\n    tag_446:\n        /* \"#utility.yul\":20749:20757   */\n      dup4\n        /* \"#utility.yul\":20745:20782   */\n      add\n        /* \"#utility.yul\":20732:20743   */\n      dup3\n        /* \"#utility.yul\":20703:20783   */\n      tag_235\n      jump\t// in\n    tag_445:\n        /* \"#utility.yul\":20362:20793   */\n      pop\n      pop\n        /* \"#utility.yul\":20347:20793   */\n    tag_441:\n        /* \"#utility.yul\":20257:20800   */\n      pop\n      pop\n      pop\n      jump\t// out\n        /* \"#utility.yul\":20806:20923   */\n    tag_237:\n        /* \"#utility.yul\":20860:20868   */\n      0x00\n        /* \"#utility.yul\":20910:20915   */\n      dup3\n        /* \"#utility.yul\":20904:20908   */\n      dup3\n        /* \"#utility.yul\":20900:20916   */\n      shr\n        /* \"#utility.yul\":20879:20916   */\n      swap1\n      pop\n        /* \"#utility.yul\":20806:20923   */\n      swap3\n      swap2\n      pop\n      pop\n      jump\t// out\n        /* \"#utility.yul\":20929:21098   */\n    tag_238:\n        /* \"#utility.yul\":20973:20979   */\n      0x00\n        /* \"#utility.yul\":21006:21057   */\n      tag_449\n        /* \"#utility.yul\":21054:21055   */\n      0x00\n        /* \"#utility.yul\":21050:21056   */\n      not\n        /* \"#utility.yul\":21042:21047   */\n      dup5\n        /* \"#utility.yul\":21039:21040   */\n      0x08\n        /* \"#utility.yul\":21035:21048   */\n      mul\n        /* \"#utility.yul\":21006:21057   */\n      tag_237\n      jump\t// in\n    tag_449:\n        /* \"#utility.yul\":21002:21058   */\n      not\n        /* \"#utility.yul\":21087:21091   */\n      dup1\n        /* \"#utility.yul\":21081:21085   */\n      dup4\n        /* \"#utility.yul\":21077:21092   */\n      and\n        /* \"#utility.yul\":21067:21092   */\n      swap2\n      pop\n        /* \"#utility.yul\":20980:21098   */\n      pop\n        /* \"#utility.yul\":20929:21098   */\n      swap3\n      swap2\n      pop\n      pop\n      jump\t// out\n        /* \"#utility.yul\":21103:21398   */\n    tag_239:\n        /* \"#utility.yul\":21179:21183   */\n      0x00\n        /* \"#utility.yul\":21325:21354   */\n      tag_451\n        /* \"#utility.yul\":21350:21353   */\n      dup4\n        /* \"#utility.yul\":21344:21348   */\n      dup4\n        /* \"#utility.yul\":21325:21354   */\n      tag_238\n      jump\t// in\n    tag_451:\n        /* \"#utility.yul\":21317:21354   */\n      swap2\n      pop\n        /* \"#utility.yul\":21387:21390   */\n      dup3\n        /* \"#utility.yul\":21384:21385   */\n      0x02\n        /* \"#utility.yul\":21380:21391   */\n      mul\n        /* \"#utility.yul\":21374:21378   */\n      dup3\n        /* \"#utility.yul\":21371:21392   */\n      or\n        /* \"#utility.yul\":21363:21392   */\n      swap1\n      pop\n        /* \"#utility.yul\":21103:21398   */\n      swap3\n      swap2\n      pop\n      pop\n      jump\t// out\n        /* \"#utility.yul\":21403:22798   */\n    tag_66:\n        /* \"#utility.yul\":21520:21557   */\n      tag_453\n        /* \"#utility.yul\":21553:21556   */\n      dup3\n        /* \"#utility.yul\":21520:21557   */\n      tag_199\n      jump\t// in\n    tag_453:\n        /* \"#utility.yul\":21622:21640   */\n      0xffffffffffffffff\n        /* \"#utility.yul\":21614:21620   */\n      dup2\n        /* \"#utility.yul\":21611:21641   */\n      gt\n        /* \"#utility.yul\":21608:21664   */\n      iszero\n      tag_454\n      jumpi\n        /* \"#utility.yul\":21644:21662   */\n      tag_455\n      tag_186\n      jump\t// in\n    tag_455:\n        /* \"#utility.yul\":21608:21664   */\n    tag_454:\n        /* \"#utility.yul\":21688:21726   */\n      tag_456\n        /* \"#utility.yul\":21720:21724   */\n      dup3\n        /* \"#utility.yul\":21714:21725   */\n      sload\n        /* \"#utility.yul\":21688:21726   */\n      tag_83\n      jump\t// in\n    tag_456:\n        /* \"#utility.yul\":21773:21840   */\n      tag_457\n        /* \"#utility.yul\":21833:21839   */\n      dup3\n        /* \"#utility.yul\":21825:21831   */\n      dup3\n        /* \"#utility.yul\":21819:21823   */\n      dup6\n        /* \"#utility.yul\":21773:21840   */\n      tag_236\n      jump\t// in\n    tag_457:\n        /* \"#utility.yul\":21867:21868   */\n      0x00\n        /* \"#utility.yul\":21891:21895   */\n      0x20\n        /* \"#utility.yul\":21878:21895   */\n      swap1\n      pop\n        /* \"#utility.yul\":21923:21925   */\n      0x1f\n        /* \"#utility.yul\":21915:21921   */\n      dup4\n        /* \"#utility.yul\":21912:21926   */\n      gt\n        /* \"#utility.yul\":21940:21941   */\n      0x01\n        /* \"#utility.yul\":21935:22553   */\n      dup2\n      eq\n      tag_459\n      jumpi\n        /* \"#utility.yul\":22597:22598   */\n      0x00\n        /* \"#utility.yul\":22614:22620   */\n      dup5\n        /* \"#utility.yul\":22611:22688   */\n      iszero\n      tag_460\n      jumpi\n        /* \"#utility.yul\":22663:22672   */\n      dup3\n        /* \"#utility.yul\":22658:22661   */\n      dup8\n        /* \"#utility.yul\":22654:22673   */\n      add\n        /* \"#utility.yul\":22648:22674   */\n      mload\n        /* \"#utility.yul\":22639:22674   */\n      swap1\n      pop\n        /* \"#utility.yul\":22611:22688   */\n    tag_460:\n        /* \"#utility.yul\":22714:22781   */\n      tag_461\n        /* \"#utility.yul\":22774:22780   */\n      dup6\n        /* \"#utility.yul\":22767:22772   */\n      dup3\n        /* \"#utility.yul\":22714:22781   */\n      tag_239\n      jump\t// in\n    tag_461:\n        /* \"#utility.yul\":22708:22712   */\n      dup7\n        /* \"#utility.yul\":22701:22782   */\n      sstore\n        /* \"#utility.yul\":22570:22792   */\n      pop\n        /* \"#utility.yul\":21905:22792   */\n      jump(tag_458)\n        /* \"#utility.yul\":21935:22553   */\n    tag_459:\n        /* \"#utility.yul\":21987:21991   */\n      0x1f\n        /* \"#utility.yul\":21983:21992   */\n      not\n        /* \"#utility.yul\":21975:21981   */\n      dup5\n        /* \"#utility.yul\":21971:21993   */\n      and\n        /* \"#utility.yul\":22021:22058   */\n      tag_462\n        /* \"#utility.yul\":22053:22057   */\n      dup7\n        /* \"#utility.yul\":22021:22058   */\n      tag_225\n      jump\t// in\n    tag_462:\n        /* \"#utility.yul\":22080:22081   */\n      0x00\n        /* \"#utility.yul\":22094:22302   */\n    tag_463:\n        /* \"#utility.yul\":22108:22115   */\n      dup3\n        /* \"#utility.yul\":22105:22106   */\n      dup2\n        /* \"#utility.yul\":22102:22116   */\n      lt\n        /* \"#utility.yul\":22094:22302   */\n      iszero\n      tag_465\n      jumpi\n        /* \"#utility.yul\":22187:22196   */\n      dup5\n        /* \"#utility.yul\":22182:22185   */\n      dup10\n        /* \"#utility.yul\":22178:22197   */\n      add\n        /* \"#utility.yul\":22172:22198   */\n      mload\n        /* \"#utility.yul\":22164:22170   */\n      dup3\n        /* \"#utility.yul\":22157:22199   */\n      sstore\n        /* \"#utility.yul\":22238:22239   */\n      0x01\n        /* \"#utility.yul\":22230:22236   */\n      dup3\n        /* \"#utility.yul\":22226:22240   */\n      add\n        /* \"#utility.yul\":22216:22240   */\n      swap2\n      pop\n        /* \"#utility.yul\":22285:22287   */\n      0x20\n        /* \"#utility.yul\":22274:22283   */\n      dup6\n        /* \"#utility.yul\":22270:22288   */\n      add\n        /* \"#utility.yul\":22257:22288   */\n      swap5\n      pop\n        /* \"#utility.yul\":22131:22135   */\n      0x20\n        /* \"#utility.yul\":22128:22129   */\n      dup2\n        /* \"#utility.yul\":22124:22136   */\n      add\n        /* \"#utility.yul\":22119:22136   */\n      swap1\n      pop\n        /* \"#utility.yul\":22094:22302   */\n      jump(tag_463)\n    tag_465:\n        /* \"#utility.yul\":22330:22336   */\n      dup7\n        /* \"#utility.yul\":22321:22328   */\n      dup4\n        /* \"#utility.yul\":22318:22337   */\n      lt\n        /* \"#utility.yul\":22315:22494   */\n      iszero\n      tag_466\n      jumpi\n        /* \"#utility.yul\":22388:22397   */\n      dup5\n        /* \"#utility.yul\":22383:22386   */\n      dup10\n        /* \"#utility.yul\":22379:22398   */\n      add\n        /* \"#utility.yul\":22373:22399   */\n      mload\n        /* \"#utility.yul\":22431:22479   */\n      tag_467\n        /* \"#utility.yul\":22473:22477   */\n      0x1f\n        /* \"#utility.yul\":22465:22471   */\n      dup10\n        /* \"#utility.yul\":22461:22478   */\n      and\n        /* \"#utility.yul\":22450:22459   */\n      dup3\n        /* \"#utility.yul\":22431:22479   */\n      tag_238\n      jump\t// in\n    tag_467:\n        /* \"#utility.yul\":22423:22429   */\n      dup4\n        /* \"#utility.yul\":22416:22480   */\n      sstore\n        /* \"#utility.yul\":22338:22494   */\n      pop\n        /* \"#utility.yul\":22315:22494   */\n    tag_466:\n        /* \"#utility.yul\":22540:22541   */\n      0x01\n        /* \"#utility.yul\":22536:22537   */\n      0x02\n        /* \"#utility.yul\":22528:22534   */\n      dup9\n        /* \"#utility.yul\":22524:22538   */\n      mul\n        /* \"#utility.yul\":22520:22542   */\n      add\n        /* \"#utility.yul\":22514:22518   */\n      dup9\n        /* \"#utility.yul\":22507:22543   */\n      sstore\n        /* \"#utility.yul\":21942:22553   */\n      pop\n      pop\n      pop\n        /* \"#utility.yul\":21905:22792   */\n    tag_458:\n      pop\n        /* \"#utility.yul\":21495:22798   */\n      pop\n      pop\n      pop\n        /* \"#utility.yul\":21403:22798   */\n      pop\n      pop\n      jump\t// out\n        /* \"#utility.yul\":22804:22952   */\n    tag_240:\n        /* \"#utility.yul\":22906:22917   */\n      0x00\n        /* \"#utility.yul\":22943:22946   */\n      dup2\n        /* \"#utility.yul\":22928:22946   */\n      swap1\n      pop\n        /* \"#utility.yul\":22804:22952   */\n      swap3\n      swap2\n      pop\n      pop\n      jump\t// out\n        /* \"#utility.yul\":22958:23348   */\n    tag_241:\n        /* \"#utility.yul\":23064:23067   */\n      0x00\n        /* \"#utility.yul\":23092:23131   */\n      tag_470\n        /* \"#utility.yul\":23125:23130   */\n      dup3\n        /* \"#utility.yul\":23092:23131   */\n      tag_199\n      jump\t// in\n    tag_470:\n        /* \"#utility.yul\":23147:23236   */\n      tag_471\n        /* \"#utility.yul\":23229:23235   */\n      dup2\n        /* \"#utility.yul\":23224:23227   */\n      dup6\n        /* \"#utility.yul\":23147:23236   */\n      tag_240\n      jump\t// in\n    tag_471:\n        /* \"#utility.yul\":23140:23236   */\n      swap4\n      pop\n        /* \"#utility.yul\":23245:23310   */\n      tag_472\n        /* \"#utility.yul\":23303:23309   */\n      dup2\n        /* \"#utility.yul\":23298:23301   */\n      dup6\n        /* \"#utility.yul\":23291:23295   */\n      0x20\n        /* \"#utility.yul\":23284:23289   */\n      dup7\n        /* \"#utility.yul\":23280:23296   */\n      add\n        /* \"#utility.yul\":23245:23310   */\n      tag_201\n      jump\t// in\n    tag_472:\n        /* \"#utility.yul\":23335:23341   */\n      dup1\n        /* \"#utility.yul\":23330:23333   */\n      dup5\n        /* \"#utility.yul\":23326:23342   */\n      add\n        /* \"#utility.yul\":23319:23342   */\n      swap2\n      pop\n        /* \"#utility.yul\":23068:23348   */\n      pop\n        /* \"#utility.yul\":22958:23348   */\n      swap3\n      swap2\n      pop\n      pop\n      jump\t// out\n        /* \"#utility.yul\":23354:23629   */\n    tag_73:\n        /* \"#utility.yul\":23486:23489   */\n      0x00\n        /* \"#utility.yul\":23508:23603   */\n      tag_474\n        /* \"#utility.yul\":23599:23602   */\n      dup3\n        /* \"#utility.yul\":23590:23596   */\n      dup5\n        /* \"#utility.yul\":23508:23603   */\n      tag_241\n      jump\t// in\n    tag_474:\n        /* \"#utility.yul\":23501:23603   */\n      swap2\n      pop\n        /* \"#utility.yul\":23620:23623   */\n      dup2\n        /* \"#utility.yul\":23613:23623   */\n      swap1\n      pop\n        /* \"#utility.yul\":23354:23629   */\n      swap3\n      swap2\n      pop\n      pop\n      jump\t// out\n        /* \"#utility.yul\":23635:23829   */\n    tag_108:\n        /* \"#utility.yul\":23675:23679   */\n      0x00\n        /* \"#utility.yul\":23695:23715   */\n      tag_476\n        /* \"#utility.yul\":23713:23714   */\n      dup3\n        /* \"#utility.yul\":23695:23715   */\n      tag_178\n      jump\t// in\n    tag_476:\n        /* \"#utility.yul\":23690:23715   */\n      swap2\n      pop\n        /* \"#utility.yul\":23729:23749   */\n      tag_477\n        /* \"#utility.yul\":23747:23748   */\n      dup4\n        /* \"#utility.yul\":23729:23749   */\n      tag_178\n      jump\t// in\n    tag_477:\n        /* \"#utility.yul\":23724:23749   */\n      swap3\n      pop\n        /* \"#utility.yul\":23773:23774   */\n      dup3\n        /* \"#utility.yul\":23770:23771   */\n      dup3\n        /* \"#utility.yul\":23766:23775   */\n      sub\n        /* \"#utility.yul\":23758:23775   */\n      swap1\n      pop\n        /* \"#utility.yul\":23797:23798   */\n      dup2\n        /* \"#utility.yul\":23791:23795   */\n      dup2\n        /* \"#utility.yul\":23788:23799   */\n      gt\n        /* \"#utility.yul\":23785:23822   */\n      iszero\n      tag_478\n      jumpi\n        /* \"#utility.yul\":23802:23820   */\n      tag_479\n      tag_222\n      jump\t// in\n    tag_479:\n        /* \"#utility.yul\":23785:23822   */\n    tag_478:\n        /* \"#utility.yul\":23635:23829   */\n      swap3\n      swap2\n      pop\n      pop\n      jump\t// out\n\n    auxdata: 0xa26469706673582212204f854654bb94bc2dd7b9a6118923e2a906c82924803c74bc27ff3a8edcaac63c64736f6c63430008120033\n}\n",
				"bytecode": {
					"linkReferences": {},
					"object": "608060405234801561001057600080fd5b506119c2806100206000396000f3fe608060405234801561001057600080fd5b50600436106100885760003560e01c8063a05ab6d01161005b578063a05ab6d014610115578063a41f985e14610133578063e9e3092714610163578063eac1d5b71461018157610088565b8063390b6a4c1461008d57806374aa6858146100ab5780637674f2d8146100c757806383b41ad8146100e5575b600080fd5b6100956101b1565b6040516100a29190610d65565b60405180910390f35b6100c560048036038101906100c09190610fec565b610222565b005b6100cf6103af565b6040516100dc9190610d65565b60405180910390f35b6100ff60048036038101906100fa9190611077565b6103bb565b60405161010c9190611294565b60405180910390f35b61011d610604565b60405161012a91906112d1565b60405180910390f35b61014d600480360381019061014891906112ec565b610626565b60405161015a9190611294565b60405180910390f35b61016b61087f565b604051610178919061145f565b60405180910390f35b61019b600480360381019061019691906112ec565b610aef565b6040516101a891906114cb565b60405180910390f35b60008060005b60008054905081101561020a57600081815481106101d8576101d76114ed565b5b906000526020600020906005020160020154826101f5919061154b565b915080806102029061157f565b9150506101b7565b506000805490508161021c91906115f6565b91505090565b60006040518060a001604052808581526020016001600080549050610247919061154b565b815260200184815260200161025b85610aef565b815260200183815250908060018154018082558091505060019003906000526020600020906005020160009091909190915060008201518160000190816102a29190611833565b50602082015181600101556040820151816002015560608201518160030190816102cc9190611833565b5060808201518160040190805190602001906102e9929190610c43565b5050506040518060a00160405280848152602001600160008054905061030f919061154b565b815260200183815260200161032384610aef565b81526020018281525060018460405161033c9190611941565b9081526020016040518091039020600082015181600001908161035f9190611833565b50602082015181600101556040820151816002015560608201518160030190816103899190611833565b5060808201518160040190805190602001906103a6929190610c43565b50905050505050565b60008080549050905090565b6103c3610c9c565b6001826040516103d39190611941565b90815260200160405180910390206040518060a00160405290816000820180546103fc90611656565b80601f016020809104026020016040519081016040528092919081815260200182805461042890611656565b80156104755780601f1061044a57610100808354040283529160200191610475565b820191906000526020600020905b81548152906001019060200180831161045857829003601f168201915b5050505050815260200160018201548152602001600282015481526020016003820180546104a290611656565b80601f01602080910402602001604051908101604052809291908181526020018280546104ce90611656565b801561051b5780601f106104f05761010080835404028352916020019161051b565b820191906000526020600020905b8154815290600101906020018083116104fe57829003601f168201915b5050505050815260200160048201805480602002602001604051908101604052809291908181526020016000905b828210156105f557838290600052602060002001805461056890611656565b80601f016020809104026020016040519081016040528092919081815260200182805461059490611656565b80156105e15780601f106105b6576101008083540402835291602001916105e1565b820191906000526020600020905b8154815290600101906020018083116105c457829003601f168201915b505050505081526020019060010190610549565b50505050815250509050919050565b600060466106106101b1565b1061061e5760019050610623565b600090505b90565b61062e610c9c565b600060018361063d9190611958565b8154811061064e5761064d6114ed565b5b90600052602060002090600502016040518060a001604052908160008201805461067790611656565b80601f01602080910402602001604051908101604052809291908181526020018280546106a390611656565b80156106f05780601f106106c5576101008083540402835291602001916106f0565b820191906000526020600020905b8154815290600101906020018083116106d357829003601f168201915b50505050508152602001600182015481526020016002820154815260200160038201805461071d90611656565b80601f016020809104026020016040519081016040528092919081815260200182805461074990611656565b80156107965780601f1061076b57610100808354040283529160200191610796565b820191906000526020600020905b81548152906001019060200180831161077957829003601f168201915b5050505050815260200160048201805480602002602001604051908101604052809291908181526020016000905b828210156108705783829060005260206000200180546107e390611656565b80601f016020809104026020016040519081016040528092919081815260200182805461080f90611656565b801561085c5780601f106108315761010080835404028352916020019161085c565b820191906000526020600020905b81548152906001019060200180831161083f57829003601f168201915b5050505050815260200190600101906107c4565b50505050815250509050919050565b60606000805480602002602001604051908101604052809291908181526020016000905b82821015610ae657838290600052602060002090600502016040518060a00160405290816000820180546108d690611656565b80601f016020809104026020016040519081016040528092919081815260200182805461090290611656565b801561094f5780601f106109245761010080835404028352916020019161094f565b820191906000526020600020905b81548152906001019060200180831161093257829003601f168201915b50505050508152602001600182015481526020016002820154815260200160038201805461097c90611656565b80601f01602080910402602001604051908101604052809291908181526020018280546109a890611656565b80156109f55780601f106109ca576101008083540402835291602001916109f5565b820191906000526020600020905b8154815290600101906020018083116109d857829003601f168201915b5050505050815260200160048201805480602002602001604051908101604052809291908181526020016000905b82821015610acf578382906000526020600020018054610a4290611656565b80601f0160208091040260200160405190810160405280929190818152602001828054610a6e90611656565b8015610abb5780601f10610a9057610100808354040283529160200191610abb565b820191906000526020600020905b815481529060010190602001808311610a9e57829003601f168201915b505050505081526020019060010190610a23565b5050505081525050815260200190600101906108a3565b50505050905090565b6060605a8210610b36576040518060400160405280600181526020017f41000000000000000000000000000000000000000000000000000000000000008152509050610c3e565b60508210610b7b576040518060400160405280600181526020017f42000000000000000000000000000000000000000000000000000000000000008152509050610c3e565b60468210610bc0576040518060400160405280600181526020017f43000000000000000000000000000000000000000000000000000000000000008152509050610c3e565b603c8210610c05576040518060400160405280600181526020017f44000000000000000000000000000000000000000000000000000000000000008152509050610c3e565b6040518060400160405280600181526020017f460000000000000000000000000000000000000000000000000000000000000081525090505b919050565b828054828255906000526020600020908101928215610c8b579160200282015b82811115610c8a578251829081610c7a9190611833565b5091602001919060010190610c63565b5b509050610c989190610ccb565b5090565b6040518060a0016040528060608152602001600081526020016000815260200160608152602001606081525090565b5b80821115610ceb5760008181610ce29190610cef565b50600101610ccc565b5090565b508054610cfb90611656565b6000825580601f10610d0d5750610d2c565b601f016020900490600052602060002090810190610d2b9190610d2f565b5b50565b5b80821115610d48576000816000905550600101610d30565b5090565b6000819050919050565b610d5f81610d4c565b82525050565b6000602082019050610d7a6000830184610d56565b92915050565b6000604051905090565b600080fd5b600080fd5b600080fd5b600080fd5b6000601f19601f8301169050919050565b7f4e487b7100000000000000000000000000000000000000000000000000000000600052604160045260246000fd5b610de782610d9e565b810181811067ffffffffffffffff82111715610e0657610e05610daf565b5b80604052505050565b6000610e19610d80565b9050610e258282610dde565b919050565b600067ffffffffffffffff821115610e4557610e44610daf565b5b610e4e82610d9e565b9050602081019050919050565b82818337600083830152505050565b6000610e7d610e7884610e2a565b610e0f565b905082815260208101848484011115610e9957610e98610d99565b5b610ea4848285610e5b565b509392505050565b600082601f830112610ec157610ec0610d94565b5b8135610ed1848260208601610e6a565b91505092915050565b610ee381610d4c565b8114610eee57600080fd5b50565b600081359050610f0081610eda565b92915050565b600067ffffffffffffffff821115610f2157610f20610daf565b5b602082029050602081019050919050565b600080fd5b6000610f4a610f4584610f06565b610e0f565b90508083825260208201905060208402830185811115610f6d57610f6c610f32565b5b835b81811015610fb457803567ffffffffffffffff811115610f9257610f91610d94565b5b808601610f9f8982610eac565b85526020850194505050602081019050610f6f565b5050509392505050565b600082601f830112610fd357610fd2610d94565b5b8135610fe3848260208601610f37565b91505092915050565b60008060006060848603121561100557611004610d8a565b5b600084013567ffffffffffffffff81111561102357611022610d8f565b5b61102f86828701610eac565b935050602061104086828701610ef1565b925050604084013567ffffffffffffffff81111561106157611060610d8f565b5b61106d86828701610fbe565b9150509250925092565b60006020828403121561108d5761108c610d8a565b5b600082013567ffffffffffffffff8111156110ab576110aa610d8f565b5b6110b784828501610eac565b91505092915050565b600081519050919050565b600082825260208201905092915050565b60005b838110156110fa5780820151818401526020810190506110df565b60008484015250505050565b6000611111826110c0565b61111b81856110cb565b935061112b8185602086016110dc565b61113481610d9e565b840191505092915050565b61114881610d4c565b82525050565b600081519050919050565b600082825260208201905092915050565b6000819050602082019050919050565b60006111868383611106565b905092915050565b6000602082019050919050565b60006111a68261114e565b6111b08185611159565b9350836020820285016111c28561116a565b8060005b858110156111fe57848403895281516111df858261117a565b94506111ea8361118e565b925060208a019950506001810190506111c6565b50829750879550505050505092915050565b600060a083016000830151848203600086015261122d8282611106565b9150506020830151611242602086018261113f565b506040830151611255604086018261113f565b506060830151848203606086015261126d8282611106565b91505060808301518482036080860152611287828261119b565b9150508091505092915050565b600060208201905081810360008301526112ae8184611210565b905092915050565b60008115159050919050565b6112cb816112b6565b82525050565b60006020820190506112e660008301846112c2565b92915050565b60006020828403121561130257611301610d8a565b5b600061131084828501610ef1565b91505092915050565b600081519050919050565b600082825260208201905092915050565b6000819050602082019050919050565b600060a08301600083015184820360008601526113628282611106565b9150506020830151611377602086018261113f565b50604083015161138a604086018261113f565b50606083015184820360608601526113a28282611106565b915050608083015184820360808601526113bc828261119b565b9150508091505092915050565b60006113d58383611345565b905092915050565b6000602082019050919050565b60006113f582611319565b6113ff8185611324565b93508360208202850161141185611335565b8060005b8581101561144d578484038952815161142e85826113c9565b9450611439836113dd565b925060208a01995050600181019050611415565b50829750879550505050505092915050565b6000602082019050818103600083015261147981846113ea565b905092915050565b600082825260208201905092915050565b600061149d826110c0565b6114a78185611481565b93506114b78185602086016110dc565b6114c081610d9e565b840191505092915050565b600060208201905081810360008301526114e58184611492565b905092915050565b7f4e487b7100000000000000000000000000000000000000000000000000000000600052603260045260246000fd5b7f4e487b7100000000000000000000000000000000000000000000000000000000600052601160045260246000fd5b600061155682610d4c565b915061156183610d4c565b92508282019050808211156115795761157861151c565b5b92915050565b600061158a82610d4c565b91507fffffffffffffffffffffffffffffffffffffffffffffffffffffffffffffffff82036115bc576115bb61151c565b5b600182019050919050565b7f4e487b7100000000000000000000000000000000000000000000000000000000600052601260045260246000fd5b600061160182610d4c565b915061160c83610d4c565b92508261161c5761161b6115c7565b5b828204905092915050565b7f4e487b7100000000000000000000000000000000000000000000000000000000600052602260045260246000fd5b6000600282049050600182168061166e57607f821691505b60208210810361168157611680611627565b5b50919050565b60008190508160005260206000209050919050565b60006020601f8301049050919050565b600082821b905092915050565b6000600883026116e97fffffffffffffffffffffffffffffffffffffffffffffffffffffffffffffffff826116ac565b6116f386836116ac565b95508019841693508086168417925050509392505050565b6000819050919050565b600061173061172b61172684610d4c565b61170b565b610d4c565b9050919050565b6000819050919050565b61174a83611715565b61175e61175682611737565b8484546116b9565b825550505050565b600090565b611773611766565b61177e818484611741565b505050565b5b818110156117a25761179760008261176b565b600181019050611784565b5050565b601f8211156117e7576117b881611687565b6117c18461169c565b810160208510156117d0578190505b6117e46117dc8561169c565b830182611783565b50505b505050565b600082821c905092915050565b600061180a600019846008026117ec565b1980831691505092915050565b600061182383836117f9565b9150826002028217905092915050565b61183c826110c0565b67ffffffffffffffff81111561185557611854610daf565b5b61185f8254611656565b61186a8282856117a6565b600060209050601f83116001811461189d576000841561188b578287015190505b6118958582611817565b8655506118fd565b601f1984166118ab86611687565b60005b828110156118d3578489015182556001820191506020850194506020810190506118ae565b868310156118f057848901516118ec601f8916826117f9565b8355505b6001600288020188555050505b505050505050565b600081905092915050565b600061191b826110c0565b6119258185611905565b93506119358185602086016110dc565b80840191505092915050565b600061194d8284611910565b915081905092915050565b600061196382610d4c565b915061196e83610d4c565b92508282039050818111156119865761198561151c565b5b9291505056fea26469706673582212204f854654bb94bc2dd7b9a6118923e2a906c82924803c74bc27ff3a8edcaac63c64736f6c63430008120033",
					"opcodes": "PUSH1 0x80 PUSH1 0x40 MSTORE CALLVALUE DUP1 ISZERO PUSH2 0x10 JUMPI PUSH1 0x0 DUP1 REVERT JUMPDEST POP PUSH2 0x19C2 DUP1 PUSH2 0x20 PUSH1 0x0 CODECOPY PUSH1 0x0 RETURN INVALID PUSH1 0x80 PUSH1 0x40 MSTORE CALLVALUE DUP1 ISZERO PUSH2 0x10 JUMPI PUSH1 0x0 DUP1 REVERT JUMPDEST POP PUSH1 0x4 CALLDATASIZE LT PUSH2 0x88 JUMPI PUSH1 0x0 CALLDATALOAD PUSH1 0xE0 SHR DUP1 PUSH4 0xA05AB6D0 GT PUSH2 0x5B JUMPI DUP1 PUSH4 0xA05AB6D0 EQ PUSH2 0x115 JUMPI DUP1 PUSH4 0xA41F985E EQ PUSH2 0x133 JUMPI DUP1 PUSH4 0xE9E30927 EQ PUSH2 0x163 JUMPI DUP1 PUSH4 0xEAC1D5B7 EQ PUSH2 0x181 JUMPI PUSH2 0x88 JUMP JUMPDEST DUP1 PUSH4 0x390B6A4C EQ PUSH2 0x8D JUMPI DUP1 PUSH4 0x74AA6858 EQ PUSH2 0xAB JUMPI DUP1 PUSH4 0x7674F2D8 EQ PUSH2 0xC7 JUMPI DUP1 PUSH4 0x83B41AD8 EQ PUSH2 0xE5 JUMPI JUMPDEST PUSH1 0x0 DUP1 REVERT JUMPDEST PUSH2 0x95 PUSH2 0x1B1 JUMP JUMPDEST PUSH1 0x40 MLOAD PUSH2 0xA2 SWAP2 SWAP1 PUSH2 0xD65 JUMP JUMPDEST PUSH1 0x40 MLOAD DUP1 SWAP2 SUB SWAP1 RETURN JUMPDEST PUSH2 0xC5 PUSH1 0x4 DUP1 CALLDATASIZE SUB DUP2 ADD SWAP1 PUSH2 0xC0 SWAP2 SWAP1 PUSH2 0xFEC JUMP JUMPDEST PUSH2 0x222 JUMP JUMPDEST STOP JUMPDEST PUSH2 0xCF PUSH2 0x3AF JUMP JUMPDEST PUSH1 0x40 MLOAD PUSH2 0xDC SWAP2 SWAP1 PUSH2 0xD65 JUMP JUMPDEST PUSH1 0x40 MLOAD DUP1 SWAP2 SUB SWAP1 RETURN JUMPDEST PUSH2 0xFF PUSH1 0x4 DUP1 CALLDATASIZE SUB DUP2 ADD SWAP1 PUSH2 0xFA SWAP2 SWAP1 PUSH2 0x1077 JUMP JUMPDEST PUSH2 0x3BB JUMP JUMPDEST PUSH1 0x40 MLOAD PUSH2 0x10C SWAP2 SWAP1 PUSH2 0x1294 JUMP JUMPDEST PUSH1 0x40 MLOAD DUP1 SWAP2 SUB SWAP1 RETURN JUMPDEST PUSH2 0x11D PUSH2 0x604 JUMP JUMPDEST PUSH1 0x40 MLOAD PUSH2 0x12A SWAP2 SWAP1 PUSH2 0x12D1 JUMP JUMPDEST PUSH1 0x40 MLOAD DUP1 SWAP2 SUB SWAP1 RETURN JUMPDEST PUSH2 0x14D PUSH1 0x4 DUP1 CALLDATASIZE SUB DUP2 ADD SWAP1 PUSH2 0x148 SWAP2 SWAP1 PUSH2 0x12EC JUMP JUMPDEST PUSH2 0x626 JUMP JUMPDEST PUSH1 0x40 MLOAD PUSH2 0x15A SWAP2 SWAP1 PUSH2 0x1294 JUMP JUMPDEST PUSH1 0x40 MLOAD DUP1 SWAP2 SUB SWAP1 RETURN JUMPDEST PUSH2 0x16B PUSH2 0x87F JUMP JUMPDEST PUSH1 0x40 MLOAD PUSH2 0x178 SWAP2 SWAP1 PUSH2 0x145F JUMP JUMPDEST PUSH1 0x40 MLOAD DUP1 SWAP2 SUB SWAP1 RETURN JUMPDEST PUSH2 0x19B PUSH1 0x4 DUP1 CALLDATASIZE SUB DUP2 ADD SWAP1 PUSH2 0x196 SWAP2 SWAP1 PUSH2 0x12EC JUMP JUMPDEST PUSH2 0xAEF JUMP JUMPDEST PUSH1 0x40 MLOAD PUSH2 0x1A8 SWAP2 SWAP1 PUSH2 0x14CB JUMP JUMPDEST PUSH1 0x40 MLOAD DUP1 SWAP2 SUB SWAP1 RETURN JUMPDEST PUSH1 0x0 DUP1 PUSH1 0x0 JUMPDEST PUSH1 0x0 DUP1 SLOAD SWAP1 POP DUP2 LT ISZERO PUSH2 0x20A JUMPI PUSH1 0x0 DUP2 DUP2 SLOAD DUP2 LT PUSH2 0x1D8 JUMPI PUSH2 0x1D7 PUSH2 0x14ED JUMP JUMPDEST JUMPDEST SWAP1 PUSH1 0x0 MSTORE PUSH1 0x20 PUSH1 0x0 KECCAK256 SWAP1 PUSH1 0x5 MUL ADD PUSH1 0x2 ADD SLOAD DUP3 PUSH2 0x1F5 SWAP2 SWAP1 PUSH2 0x154B JUMP JUMPDEST SWAP2 POP DUP1 DUP1 PUSH2 0x202 SWAP1 PUSH2 0x157F JUMP JUMPDEST SWAP2 POP POP PUSH2 0x1B7 JUMP JUMPDEST POP PUSH1 0x0 DUP1 SLOAD SWAP1 POP DUP2 PUSH2 0x21C SWAP2 SWAP1 PUSH2 0x15F6 JUMP JUMPDEST SWAP2 POP POP SWAP1 JUMP JUMPDEST PUSH1 0x0 PUSH1 0x40 MLOAD DUP1 PUSH1 0xA0 ADD PUSH1 0x40 MSTORE DUP1 DUP6 DUP2 MSTORE PUSH1 0x20 ADD PUSH1 0x1 PUSH1 0x0 DUP1 SLOAD SWAP1 POP PUSH2 0x247 SWAP2 SWAP1 PUSH2 0x154B JUMP JUMPDEST DUP2 MSTORE PUSH1 0x20 ADD DUP5 DUP2 MSTORE PUSH1 0x20 ADD PUSH2 0x25B DUP6 PUSH2 0xAEF JUMP JUMPDEST DUP2 MSTORE PUSH1 0x20 ADD DUP4 DUP2 MSTORE POP SWAP1 DUP1 PUSH1 0x1 DUP2 SLOAD ADD DUP1 DUP3 SSTORE DUP1 SWAP2 POP POP PUSH1 0x1 SWAP1 SUB SWAP1 PUSH1 0x0 MSTORE PUSH1 0x20 PUSH1 0x0 KECCAK256 SWAP1 PUSH1 0x5 MUL ADD PUSH1 0x0 SWAP1 SWAP2 SWAP1 SWAP2 SWAP1 SWAP2 POP PUSH1 0x0 DUP3 ADD MLOAD DUP2 PUSH1 0x0 ADD SWAP1 DUP2 PUSH2 0x2A2 SWAP2 SWAP1 PUSH2 0x1833 JUMP JUMPDEST POP PUSH1 0x20 DUP3 ADD MLOAD DUP2 PUSH1 0x1 ADD SSTORE PUSH1 0x40 DUP3 ADD MLOAD DUP2 PUSH1 0x2 ADD SSTORE PUSH1 0x60 DUP3 ADD MLOAD DUP2 PUSH1 0x3 ADD SWAP1 DUP2 PUSH2 0x2CC SWAP2 SWAP1 PUSH2 0x1833 JUMP JUMPDEST POP PUSH1 0x80 DUP3 ADD MLOAD DUP2 PUSH1 0x4 ADD SWAP1 DUP1 MLOAD SWAP1 PUSH1 0x20 ADD SWAP1 PUSH2 0x2E9 SWAP3 SWAP2 SWAP1 PUSH2 0xC43 JUMP JUMPDEST POP POP POP PUSH1 0x40 MLOAD DUP1 PUSH1 0xA0 ADD PUSH1 0x40 MSTORE DUP1 DUP5 DUP2 MSTORE PUSH1 0x20 ADD PUSH1 0x1 PUSH1 0x0 DUP1 SLOAD SWAP1 POP PUSH2 0x30F SWAP2 SWAP1 PUSH2 0x154B JUMP JUMPDEST DUP2 MSTORE PUSH1 0x20 ADD DUP4 DUP2 MSTORE PUSH1 0x20 ADD PUSH2 0x323 DUP5 PUSH2 0xAEF JUMP JUMPDEST DUP2 MSTORE PUSH1 0x20 ADD DUP3 DUP2 MSTORE POP PUSH1 0x1 DUP5 PUSH1 0x40 MLOAD PUSH2 0x33C SWAP2 SWAP1 PUSH2 0x1941 JUMP JUMPDEST SWAP1 DUP2 MSTORE PUSH1 0x20 ADD PUSH1 0x40 MLOAD DUP1 SWAP2 SUB SWAP1 KECCAK256 PUSH1 0x0 DUP3 ADD MLOAD DUP2 PUSH1 0x0 ADD SWAP1 DUP2 PUSH2 0x35F SWAP2 SWAP1 PUSH2 0x1833 JUMP JUMPDEST POP PUSH1 0x20 DUP3 ADD MLOAD DUP2 PUSH1 0x1 ADD SSTORE PUSH1 0x40 DUP3 ADD MLOAD DUP2 PUSH1 0x2 ADD SSTORE PUSH1 0x60 DUP3 ADD MLOAD DUP2 PUSH1 0x3 ADD SWAP1 DUP2 PUSH2 0x389 SWAP2 SWAP1 PUSH2 0x1833 JUMP JUMPDEST POP PUSH1 0x80 DUP3 ADD MLOAD DUP2 PUSH1 0x4 ADD SWAP1 DUP1 MLOAD SWAP1 PUSH1 0x20 ADD SWAP1 PUSH2 0x3A6 SWAP3 SWAP2 SWAP1 PUSH2 0xC43 JUMP JUMPDEST POP SWAP1 POP POP POP POP POP JUMP JUMPDEST PUSH1 0x0 DUP1 DUP1 SLOAD SWAP1 POP SWAP1 POP SWAP1 JUMP JUMPDEST PUSH2 0x3C3 PUSH2 0xC9C JUMP JUMPDEST PUSH1 0x1 DUP3 PUSH1 0x40 MLOAD PUSH2 0x3D3 SWAP2 SWAP1 PUSH2 0x1941 JUMP JUMPDEST SWAP1 DUP2 MSTORE PUSH1 0x20 ADD PUSH1 0x40 MLOAD DUP1 SWAP2 SUB SWAP1 KECCAK256 PUSH1 0x40 MLOAD DUP1 PUSH1 0xA0 ADD PUSH1 0x40 MSTORE SWAP1 DUP2 PUSH1 0x0 DUP3 ADD DUP1 SLOAD PUSH2 0x3FC SWAP1 PUSH2 0x1656 JUMP JUMPDEST DUP1 PUSH1 0x1F ADD PUSH1 0x20 DUP1 SWAP2 DIV MUL PUSH1 0x20 ADD PUSH1 0x40 MLOAD SWAP1 DUP2 ADD PUSH1 0x40 MSTORE DUP1 SWAP3 SWAP2 SWAP1 DUP2 DUP2 MSTORE PUSH1 0x20 ADD DUP3 DUP1 SLOAD PUSH2 0x428 SWAP1 PUSH2 0x1656 JUMP JUMPDEST DUP1 ISZERO PUSH2 0x475 JUMPI DUP1 PUSH1 0x1F LT PUSH2 0x44A JUMPI PUSH2 0x100 DUP1 DUP4 SLOAD DIV MUL DUP4 MSTORE SWAP2 PUSH1 0x20 ADD SWAP2 PUSH2 0x475 JUMP JUMPDEST DUP3 ADD SWAP2 SWAP1 PUSH1 0x0 MSTORE PUSH1 0x20 PUSH1 0x0 KECCAK256 SWAP1 JUMPDEST DUP2 SLOAD DUP2 MSTORE SWAP1 PUSH1 0x1 ADD SWAP1 PUSH1 0x20 ADD DUP1 DUP4 GT PUSH2 0x458 JUMPI DUP3 SWAP1 SUB PUSH1 0x1F AND DUP3 ADD SWAP2 JUMPDEST POP POP POP POP POP DUP2 MSTORE PUSH1 0x20 ADD PUSH1 0x1 DUP3 ADD SLOAD DUP2 MSTORE PUSH1 0x20 ADD PUSH1 0x2 DUP3 ADD SLOAD DUP2 MSTORE PUSH1 0x20 ADD PUSH1 0x3 DUP3 ADD DUP1 SLOAD PUSH2 0x4A2 SWAP1 PUSH2 0x1656 JUMP JUMPDEST DUP1 PUSH1 0x1F ADD PUSH1 0x20 DUP1 SWAP2 DIV MUL PUSH1 0x20 ADD PUSH1 0x40 MLOAD SWAP1 DUP2 ADD PUSH1 0x40 MSTORE DUP1 SWAP3 SWAP2 SWAP1 DUP2 DUP2 MSTORE PUSH1 0x20 ADD DUP3 DUP1 SLOAD PUSH2 0x4CE SWAP1 PUSH2 0x1656 JUMP JUMPDEST DUP1 ISZERO PUSH2 0x51B JUMPI DUP1 PUSH1 0x1F LT PUSH2 0x4F0 JUMPI PUSH2 0x100 DUP1 DUP4 SLOAD DIV MUL DUP4 MSTORE SWAP2 PUSH1 0x20 ADD SWAP2 PUSH2 0x51B JUMP JUMPDEST DUP3 ADD SWAP2 SWAP1 PUSH1 0x0 MSTORE PUSH1 0x20 PUSH1 0x0 KECCAK256 SWAP1 JUMPDEST DUP2 SLOAD DUP2 MSTORE SWAP1 PUSH1 0x1 ADD SWAP1 PUSH1 0x20 ADD DUP1 DUP4 GT PUSH2 0x4FE JUMPI DUP3 SWAP1 SUB PUSH1 0x1F AND DUP3 ADD SWAP2 JUMPDEST POP POP POP POP POP DUP2 MSTORE PUSH1 0x20 ADD PUSH1 0x4 DUP3 ADD DUP1 SLOAD DUP1 PUSH1 0x20 MUL PUSH1 0x20 ADD PUSH1 0x40 MLOAD SWAP1 DUP2 ADD PUSH1 0x40 MSTORE DUP1 SWAP3 SWAP2 SWAP1 DUP2 DUP2 MSTORE PUSH1 0x20 ADD PUSH1 0x0 SWAP1 JUMPDEST DUP3 DUP3 LT ISZERO PUSH2 0x5F5 JUMPI DUP4 DUP3 SWAP1 PUSH1 0x0 MSTORE PUSH1 0x20 PUSH1 0x0 KECCAK256 ADD DUP1 SLOAD PUSH2 0x568 SWAP1 PUSH2 0x1656 JUMP JUMPDEST DUP1 PUSH1 0x1F ADD PUSH1 0x20 DUP1 SWAP2 DIV MUL PUSH1 0x20 ADD PUSH1 0x40 MLOAD SWAP1 DUP2 ADD PUSH1 0x40 MSTORE DUP1 SWAP3 SWAP2 SWAP1 DUP2 DUP2 MSTORE PUSH1 0x20 ADD DUP3 DUP1 SLOAD PUSH2 0x594 SWAP1 PUSH2 0x1656 JUMP JUMPDEST DUP1 ISZERO PUSH2 0x5E1 JUMPI DUP1 PUSH1 0x1F LT PUSH2 0x5B6 JUMPI PUSH2 0x100 DUP1 DUP4 SLOAD DIV MUL DUP4 MSTORE SWAP2 PUSH1 0x20 ADD SWAP2 PUSH2 0x5E1 JUMP JUMPDEST DUP3 ADD SWAP2 SWAP1 PUSH1 0x0 MSTORE PUSH1 0x20 PUSH1 0x0 KECCAK256 SWAP1 JUMPDEST DUP2 SLOAD DUP2 MSTORE SWAP1 PUSH1 0x1 ADD SWAP1 PUSH1 0x20 ADD DUP1 DUP4 GT PUSH2 0x5C4 JUMPI DUP3 SWAP1 SUB PUSH1 0x1F AND DUP3 ADD SWAP2 JUMPDEST POP POP POP POP POP DUP2 MSTORE PUSH1 0x20 ADD SWAP1 PUSH1 0x1 ADD SWAP1 PUSH2 0x549 JUMP JUMPDEST POP POP POP POP DUP2 MSTORE POP POP SWAP1 POP SWAP2 SWAP1 POP JUMP JUMPDEST PUSH1 0x0 PUSH1 0x46 PUSH2 0x610 PUSH2 0x1B1 JUMP JUMPDEST LT PUSH2 0x61E JUMPI PUSH1 0x1 SWAP1 POP PUSH2 0x623 JUMP JUMPDEST PUSH1 0x0 SWAP1 POP JUMPDEST SWAP1 JUMP JUMPDEST PUSH2 0x62E PUSH2 0xC9C JUMP JUMPDEST PUSH1 0x0 PUSH1 0x1 DUP4 PUSH2 0x63D SWAP2 SWAP1 PUSH2 0x1958 JUMP JUMPDEST DUP2 SLOAD DUP2 LT PUSH2 0x64E JUMPI PUSH2 0x64D PUSH2 0x14ED JUMP JUMPDEST JUMPDEST SWAP1 PUSH1 0x0 MSTORE PUSH1 0x20 PUSH1 0x0 KECCAK256 SWAP1 PUSH1 0x5 MUL ADD PUSH1 0x40 MLOAD DUP1 PUSH1 0xA0 ADD PUSH1 0x40 MSTORE SWAP1 DUP2 PUSH1 0x0 DUP3 ADD DUP1 SLOAD PUSH2 0x677 SWAP1 PUSH2 0x1656 JUMP JUMPDEST DUP1 PUSH1 0x1F ADD PUSH1 0x20 DUP1 SWAP2 DIV MUL PUSH1 0x20 ADD PUSH1 0x40 MLOAD SWAP1 DUP2 ADD PUSH1 0x40 MSTORE DUP1 SWAP3 SWAP2 SWAP1 DUP2 DUP2 MSTORE PUSH1 0x20 ADD DUP3 DUP1 SLOAD PUSH2 0x6A3 SWAP1 PUSH2 0x1656 JUMP JUMPDEST DUP1 ISZERO PUSH2 0x6F0 JUMPI DUP1 PUSH1 0x1F LT PUSH2 0x6C5 JUMPI PUSH2 0x100 DUP1 DUP4 SLOAD DIV MUL DUP4 MSTORE SWAP2 PUSH1 0x20 ADD SWAP2 PUSH2 0x6F0 JUMP JUMPDEST DUP3 ADD SWAP2 SWAP1 PUSH1 0x0 MSTORE PUSH1 0x20 PUSH1 0x0 KECCAK256 SWAP1 JUMPDEST DUP2 SLOAD DUP2 MSTORE SWAP1 PUSH1 0x1 ADD SWAP1 PUSH1 0x20 ADD DUP1 DUP4 GT PUSH2 0x6D3 JUMPI DUP3 SWAP1 SUB PUSH1 0x1F AND DUP3 ADD SWAP2 JUMPDEST POP POP POP POP POP DUP2 MSTORE PUSH1 0x20 ADD PUSH1 0x1 DUP3 ADD SLOAD DUP2 MSTORE PUSH1 0x20 ADD PUSH1 0x2 DUP3 ADD SLOAD DUP2 MSTORE PUSH1 0x20 ADD PUSH1 0x3 DUP3 ADD DUP1 SLOAD PUSH2 0x71D SWAP1 PUSH2 0x1656 JUMP JUMPDEST DUP1 PUSH1 0x1F ADD PUSH1 0x20 DUP1 SWAP2 DIV MUL PUSH1 0x20 ADD PUSH1 0x40 MLOAD SWAP1 DUP2 ADD PUSH1 0x40 MSTORE DUP1 SWAP3 SWAP2 SWAP1 DUP2 DUP2 MSTORE PUSH1 0x20 ADD DUP3 DUP1 SLOAD PUSH2 0x749 SWAP1 PUSH2 0x1656 JUMP JUMPDEST DUP1 ISZERO PUSH2 0x796 JUMPI DUP1 PUSH1 0x1F LT PUSH2 0x76B JUMPI PUSH2 0x100 DUP1 DUP4 SLOAD DIV MUL DUP4 MSTORE SWAP2 PUSH1 0x20 ADD SWAP2 PUSH2 0x796 JUMP JUMPDEST DUP3 ADD SWAP2 SWAP1 PUSH1 0x0 MSTORE PUSH1 0x20 PUSH1 0x0 KECCAK256 SWAP1 JUMPDEST DUP2 SLOAD DUP2 MSTORE SWAP1 PUSH1 0x1 ADD SWAP1 PUSH1 0x20 ADD DUP1 DUP4 GT PUSH2 0x779 JUMPI DUP3 SWAP1 SUB PUSH1 0x1F AND DUP3 ADD SWAP2 JUMPDEST POP POP POP POP POP DUP2 MSTORE PUSH1 0x20 ADD PUSH1 0x4 DUP3 ADD DUP1 SLOAD DUP1 PUSH1 0x20 MUL PUSH1 0x20 ADD PUSH1 0x40 MLOAD SWAP1 DUP2 ADD PUSH1 0x40 MSTORE DUP1 SWAP3 SWAP2 SWAP1 DUP2 DUP2 MSTORE PUSH1 0x20 ADD PUSH1 0x0 SWAP1 JUMPDEST DUP3 DUP3 LT ISZERO PUSH2 0x870 JUMPI DUP4 DUP3 SWAP1 PUSH1 0x0 MSTORE PUSH1 0x20 PUSH1 0x0 KECCAK256 ADD DUP1 SLOAD PUSH2 0x7E3 SWAP1 PUSH2 0x1656 JUMP JUMPDEST DUP1 PUSH1 0x1F ADD PUSH1 0x20 DUP1 SWAP2 DIV MUL PUSH1 0x20 ADD PUSH1 0x40 MLOAD SWAP1 DUP2 ADD PUSH1 0x40 MSTORE DUP1 SWAP3 SWAP2 SWAP1 DUP2 DUP2 MSTORE PUSH1 0x20 ADD DUP3 DUP1 SLOAD PUSH2 0x80F SWAP1 PUSH2 0x1656 JUMP JUMPDEST DUP1 ISZERO PUSH2 0x85C JUMPI DUP1 PUSH1 0x1F LT PUSH2 0x831 JUMPI PUSH2 0x100 DUP1 DUP4 SLOAD DIV MUL DUP4 MSTORE SWAP2 PUSH1 0x20 ADD SWAP2 PUSH2 0x85C JUMP JUMPDEST DUP3 ADD SWAP2 SWAP1 PUSH1 0x0 MSTORE PUSH1 0x20 PUSH1 0x0 KECCAK256 SWAP1 JUMPDEST DUP2 SLOAD DUP2 MSTORE SWAP1 PUSH1 0x1 ADD SWAP1 PUSH1 0x20 ADD DUP1 DUP4 GT PUSH2 0x83F JUMPI DUP3 SWAP1 SUB PUSH1 0x1F AND DUP3 ADD SWAP2 JUMPDEST POP POP POP POP POP DUP2 MSTORE PUSH1 0x20 ADD SWAP1 PUSH1 0x1 ADD SWAP1 PUSH2 0x7C4 JUMP JUMPDEST POP POP POP POP DUP2 MSTORE POP POP SWAP1 POP SWAP2 SWAP1 POP JUMP JUMPDEST PUSH1 0x60 PUSH1 0x0 DUP1 SLOAD DUP1 PUSH1 0x20 MUL PUSH1 0x20 ADD PUSH1 0x40 MLOAD SWAP1 DUP2 ADD PUSH1 0x40 MSTORE DUP1 SWAP3 SWAP2 SWAP1 DUP2 DUP2 MSTORE PUSH1 0x20 ADD PUSH1 0x0 SWAP1 JUMPDEST DUP3 DUP3 LT ISZERO PUSH2 0xAE6 JUMPI DUP4 DUP3 SWAP1 PUSH1 0x0 MSTORE PUSH1 0x20 PUSH1 0x0 KECCAK256 SWAP1 PUSH1 0x5 MUL ADD PUSH1 0x40 MLOAD DUP1 PUSH1 0xA0 ADD PUSH1 0x40 MSTORE SWAP1 DUP2 PUSH1 0x0 DUP3 ADD DUP1 SLOAD PUSH2 0x8D6 SWAP1 PUSH2 0x1656 JUMP JUMPDEST DUP1 PUSH1 0x1F ADD PUSH1 0x20 DUP1 SWAP2 DIV MUL PUSH1 0x20 ADD PUSH1 0x40 MLOAD SWAP1 DUP2 ADD PUSH1 0x40 MSTORE DUP1 SWAP3 SWAP2 SWAP1 DUP2 DUP2 MSTORE PUSH1 0x20 ADD DUP3 DUP1 SLOAD PUSH2 0x902 SWAP1 PUSH2 0x1656 JUMP JUMPDEST DUP1 ISZERO PUSH2 0x94F JUMPI DUP1 PUSH1 0x1F LT PUSH2 0x924 JUMPI PUSH2 0x100 DUP1 DUP4 SLOAD DIV MUL DUP4 MSTORE SWAP2 PUSH1 0x20 ADD SWAP2 PUSH2 0x94F JUMP JUMPDEST DUP3 ADD SWAP2 SWAP1 PUSH1 0x0 MSTORE PUSH1 0x20 PUSH1 0x0 KECCAK256 SWAP1 JUMPDEST DUP2 SLOAD DUP2 MSTORE SWAP1 PUSH1 0x1 ADD SWAP1 PUSH1 0x20 ADD DUP1 DUP4 GT PUSH2 0x932 JUMPI DUP3 SWAP1 SUB PUSH1 0x1F AND DUP3 ADD SWAP2 JUMPDEST POP POP POP POP POP DUP2 MSTORE PUSH1 0x20 ADD PUSH1 0x1 DUP3 ADD SLOAD DUP2 MSTORE PUSH1 0x20 ADD PUSH1 0x2 DUP3 ADD SLOAD DUP2 MSTORE PUSH1 0x20 ADD PUSH1 0x3 DUP3 ADD DUP1 SLOAD PUSH2 0x97C SWAP1 PUSH2 0x1656 JUMP JUMPDEST DUP1 PUSH1 0x1F ADD PUSH1 0x20 DUP1 SWAP2 DIV MUL PUSH1 0x20 ADD PUSH1 0x40 MLOAD SWAP1 DUP2 ADD PUSH1 0x40 MSTORE DUP1 SWAP3 SWAP2 SWAP1 DUP2 DUP2 MSTORE PUSH1 0x20 ADD DUP3 DUP1 SLOAD PUSH2 0x9A8 SWAP1 PUSH2 0x1656 JUMP JUMPDEST DUP1 ISZERO PUSH2 0x9F5 JUMPI DUP1 PUSH1 0x1F LT PUSH2 0x9CA JUMPI PUSH2 0x100 DUP1 DUP4 SLOAD DIV MUL DUP4 MSTORE SWAP2 PUSH1 0x20 ADD SWAP2 PUSH2 0x9F5 JUMP JUMPDEST DUP3 ADD SWAP2 SWAP1 PUSH1 0x0 MSTORE PUSH1 0x20 PUSH1 0x0 KECCAK256 SWAP1 JUMPDEST DUP2 SLOAD DUP2 MSTORE SWAP1 PUSH1 0x1 ADD SWAP1 PUSH1 0x20 ADD DUP1 DUP4 GT PUSH2 0x9D8 JUMPI DUP3 SWAP1 SUB PUSH1 0x1F AND DUP3 ADD SWAP2 JUMPDEST POP POP POP POP POP DUP2 MSTORE PUSH1 0x20 ADD PUSH1 0x4 DUP3 ADD DUP1 SLOAD DUP1 PUSH1 0x20 MUL PUSH1 0x20 ADD PUSH1 0x40 MLOAD SWAP1 DUP2 ADD PUSH1 0x40 MSTORE DUP1 SWAP3 SWAP2 SWAP1 DUP2 DUP2 MSTORE PUSH1 0x20 ADD PUSH1 0x0 SWAP1 JUMPDEST DUP3 DUP3 LT ISZERO PUSH2 0xACF JUMPI DUP4 DUP3 SWAP1 PUSH1 0x0 MSTORE PUSH1 0x20 PUSH1 0x0 KECCAK256 ADD DUP1 SLOAD PUSH2 0xA42 SWAP1 PUSH2 0x1656 JUMP JUMPDEST DUP1 PUSH1 0x1F ADD PUSH1 0x20 DUP1 SWAP2 DIV MUL PUSH1 0x20 ADD PUSH1 0x40 MLOAD SWAP1 DUP2 ADD PUSH1 0x40 MSTORE DUP1 SWAP3 SWAP2 SWAP1 DUP2 DUP2 MSTORE PUSH1 0x20 ADD DUP3 DUP1 SLOAD PUSH2 0xA6E SWAP1 PUSH2 0x1656 JUMP JUMPDEST DUP1 ISZERO PUSH2 0xABB JUMPI DUP1 PUSH1 0x1F LT PUSH2 0xA90 JUMPI PUSH2 0x100 DUP1 DUP4 SLOAD DIV MUL DUP4 MSTORE SWAP2 PUSH1 0x20 ADD SWAP2 PUSH2 0xABB JUMP JUMPDEST DUP3 ADD SWAP2 SWAP1 PUSH1 0x0 MSTORE PUSH1 0x20 PUSH1 0x0 KECCAK256 SWAP1 JUMPDEST DUP2 SLOAD DUP2 MSTORE SWAP1 PUSH1 0x1 ADD SWAP1 PUSH1 0x20 ADD DUP1 DUP4 GT PUSH2 0xA9E JUMPI DUP3 SWAP1 SUB PUSH1 0x1F AND DUP3 ADD SWAP2 JUMPDEST POP POP POP POP POP DUP2 MSTORE PUSH1 0x20 ADD SWAP1 PUSH1 0x1 ADD SWAP1 PUSH2 0xA23 JUMP JUMPDEST POP POP POP POP DUP2 MSTORE POP POP DUP2 MSTORE PUSH1 0x20 ADD SWAP1 PUSH1 0x1 ADD SWAP1 PUSH2 0x8A3 JUMP JUMPDEST POP POP POP POP SWAP1 POP SWAP1 JUMP JUMPDEST PUSH1 0x60 PUSH1 0x5A DUP3 LT PUSH2 0xB36 JUMPI PUSH1 0x40 MLOAD DUP1 PUSH1 0x40 ADD PUSH1 0x40 MSTORE DUP1 PUSH1 0x1 DUP2 MSTORE PUSH1 0x20 ADD PUSH32 0x4100000000000000000000000000000000000000000000000000000000000000 DUP2 MSTORE POP SWAP1 POP PUSH2 0xC3E JUMP JUMPDEST PUSH1 0x50 DUP3 LT PUSH2 0xB7B JUMPI PUSH1 0x40 MLOAD DUP1 PUSH1 0x40 ADD PUSH1 0x40 MSTORE DUP1 PUSH1 0x1 DUP2 MSTORE PUSH1 0x20 ADD PUSH32 0x4200000000000000000000000000000000000000000000000000000000000000 DUP2 MSTORE POP SWAP1 POP PUSH2 0xC3E JUMP JUMPDEST PUSH1 0x46 DUP3 LT PUSH2 0xBC0 JUMPI PUSH1 0x40 MLOAD DUP1 PUSH1 0x40 ADD PUSH1 0x40 MSTORE DUP1 PUSH1 0x1 DUP2 MSTORE PUSH1 0x20 ADD PUSH32 0x4300000000000000000000000000000000000000000000000000000000000000 DUP2 MSTORE POP SWAP1 POP PUSH2 0xC3E JUMP JUMPDEST PUSH1 0x3C DUP3 LT PUSH2 0xC05 JUMPI PUSH1 0x40 MLOAD DUP1 PUSH1 0x40 ADD PUSH1 0x40 MSTORE DUP1 PUSH1 0x1 DUP2 MSTORE PUSH1 0x20 ADD PUSH32 0x4400000000000000000000000000000000000000000000000000000000000000 DUP2 MSTORE POP SWAP1 POP PUSH2 0xC3E JUMP JUMPDEST PUSH1 0x40 MLOAD DUP1 PUSH1 0x40 ADD PUSH1 0x40 MSTORE DUP1 PUSH1 0x1 DUP2 MSTORE PUSH1 0x20 ADD PUSH32 0x4600000000000000000000000000000000000000000000000000000000000000 DUP2 MSTORE POP SWAP1 POP JUMPDEST SWAP2 SWAP1 POP JUMP JUMPDEST DUP3 DUP1 SLOAD DUP3 DUP3 SSTORE SWAP1 PUSH1 0x0 MSTORE PUSH1 0x20 PUSH1 0x0 KECCAK256 SWAP1 DUP2 ADD SWAP3 DUP3 ISZERO PUSH2 0xC8B JUMPI SWAP2 PUSH1 0x20 MUL DUP3 ADD JUMPDEST DUP3 DUP2 GT ISZERO PUSH2 0xC8A JUMPI DUP3 MLOAD DUP3 SWAP1 DUP2 PUSH2 0xC7A SWAP2 SWAP1 PUSH2 0x1833 JUMP JUMPDEST POP SWAP2 PUSH1 0x20 ADD SWAP2 SWAP1 PUSH1 0x1 ADD SWAP1 PUSH2 0xC63 JUMP JUMPDEST JUMPDEST POP SWAP1 POP PUSH2 0xC98 SWAP2 SWAP1 PUSH2 0xCCB JUMP JUMPDEST POP SWAP1 JUMP JUMPDEST PUSH1 0x40 MLOAD DUP1 PUSH1 0xA0 ADD PUSH1 0x40 MSTORE DUP1 PUSH1 0x60 DUP2 MSTORE PUSH1 0x20 ADD PUSH1 0x0 DUP2 MSTORE PUSH1 0x20 ADD PUSH1 0x0 DUP2 MSTORE PUSH1 0x20 ADD PUSH1 0x60 DUP2 MSTORE PUSH1 0x20 ADD PUSH1 0x60 DUP2 MSTORE POP SWAP1 JUMP JUMPDEST JUMPDEST DUP1 DUP3 GT ISZERO PUSH2 0xCEB JUMPI PUSH1 0x0 DUP2 DUP2 PUSH2 0xCE2 SWAP2 SWAP1 PUSH2 0xCEF JUMP JUMPDEST POP PUSH1 0x1 ADD PUSH2 0xCCC JUMP JUMPDEST POP SWAP1 JUMP JUMPDEST POP DUP1 SLOAD PUSH2 0xCFB SWAP1 PUSH2 0x1656 JUMP JUMPDEST PUSH1 0x0 DUP3 SSTORE DUP1 PUSH1 0x1F LT PUSH2 0xD0D JUMPI POP PUSH2 0xD2C JUMP JUMPDEST PUSH1 0x1F ADD PUSH1 0x20 SWAP1 DIV SWAP1 PUSH1 0x0 MSTORE PUSH1 0x20 PUSH1 0x0 KECCAK256 SWAP1 DUP2 ADD SWAP1 PUSH2 0xD2B SWAP2 SWAP1 PUSH2 0xD2F JUMP JUMPDEST JUMPDEST POP JUMP JUMPDEST JUMPDEST DUP1 DUP3 GT ISZERO PUSH2 0xD48 JUMPI PUSH1 0x0 DUP2 PUSH1 0x0 SWAP1 SSTORE POP PUSH1 0x1 ADD PUSH2 0xD30 JUMP JUMPDEST POP SWAP1 JUMP JUMPDEST PUSH1 0x0 DUP2 SWAP1 POP SWAP2 SWAP1 POP JUMP JUMPDEST PUSH2 0xD5F DUP2 PUSH2 0xD4C JUMP JUMPDEST DUP3 MSTORE POP POP JUMP JUMPDEST PUSH1 0x0 PUSH1 0x20 DUP3 ADD SWAP1 POP PUSH2 0xD7A PUSH1 0x0 DUP4 ADD DUP5 PUSH2 0xD56 JUMP JUMPDEST SWAP3 SWAP2 POP POP JUMP JUMPDEST PUSH1 0x0 PUSH1 0x40 MLOAD SWAP1 POP SWAP1 JUMP JUMPDEST PUSH1 0x0 DUP1 REVERT JUMPDEST PUSH1 0x0 DUP1 REVERT JUMPDEST PUSH1 0x0 DUP1 REVERT JUMPDEST PUSH1 0x0 DUP1 REVERT JUMPDEST PUSH1 0x0 PUSH1 0x1F NOT PUSH1 0x1F DUP4 ADD AND SWAP1 POP SWAP2 SWAP1 POP JUMP JUMPDEST PUSH32 0x4E487B7100000000000000000000000000000000000000000000000000000000 PUSH1 0x0 MSTORE PUSH1 0x41 PUSH1 0x4 MSTORE PUSH1 0x24 PUSH1 0x0 REVERT JUMPDEST PUSH2 0xDE7 DUP3 PUSH2 0xD9E JUMP JUMPDEST DUP2 ADD DUP2 DUP2 LT PUSH8 0xFFFFFFFFFFFFFFFF DUP3 GT OR ISZERO PUSH2 0xE06 JUMPI PUSH2 0xE05 PUSH2 0xDAF JUMP JUMPDEST JUMPDEST DUP1 PUSH1 0x40 MSTORE POP POP POP JUMP JUMPDEST PUSH1 0x0 PUSH2 0xE19 PUSH2 0xD80 JUMP JUMPDEST SWAP1 POP PUSH2 0xE25 DUP3 DUP3 PUSH2 0xDDE JUMP JUMPDEST SWAP2 SWAP1 POP JUMP JUMPDEST PUSH1 0x0 PUSH8 0xFFFFFFFFFFFFFFFF DUP3 GT ISZERO PUSH2 0xE45 JUMPI PUSH2 0xE44 PUSH2 0xDAF JUMP JUMPDEST JUMPDEST PUSH2 0xE4E DUP3 PUSH2 0xD9E JUMP JUMPDEST SWAP1 POP PUSH1 0x20 DUP2 ADD SWAP1 POP SWAP2 SWAP1 POP JUMP JUMPDEST DUP3 DUP2 DUP4 CALLDATACOPY PUSH1 0x0 DUP4 DUP4 ADD MSTORE POP POP POP JUMP JUMPDEST PUSH1 0x0 PUSH2 0xE7D PUSH2 0xE78 DUP5 PUSH2 0xE2A JUMP JUMPDEST PUSH2 0xE0F JUMP JUMPDEST SWAP1 POP DUP3 DUP2 MSTORE PUSH1 0x20 DUP2 ADD DUP5 DUP5 DUP5 ADD GT ISZERO PUSH2 0xE99 JUMPI PUSH2 0xE98 PUSH2 0xD99 JUMP JUMPDEST JUMPDEST PUSH2 0xEA4 DUP5 DUP3 DUP6 PUSH2 0xE5B JUMP JUMPDEST POP SWAP4 SWAP3 POP POP POP JUMP JUMPDEST PUSH1 0x0 DUP3 PUSH1 0x1F DUP4 ADD SLT PUSH2 0xEC1 JUMPI PUSH2 0xEC0 PUSH2 0xD94 JUMP JUMPDEST JUMPDEST DUP2 CALLDATALOAD PUSH2 0xED1 DUP5 DUP3 PUSH1 0x20 DUP7 ADD PUSH2 0xE6A JUMP JUMPDEST SWAP2 POP POP SWAP3 SWAP2 POP POP JUMP JUMPDEST PUSH2 0xEE3 DUP2 PUSH2 0xD4C JUMP JUMPDEST DUP2 EQ PUSH2 0xEEE JUMPI PUSH1 0x0 DUP1 REVERT JUMPDEST POP JUMP JUMPDEST PUSH1 0x0 DUP2 CALLDATALOAD SWAP1 POP PUSH2 0xF00 DUP2 PUSH2 0xEDA JUMP JUMPDEST SWAP3 SWAP2 POP POP JUMP JUMPDEST PUSH1 0x0 PUSH8 0xFFFFFFFFFFFFFFFF DUP3 GT ISZERO PUSH2 0xF21 JUMPI PUSH2 0xF20 PUSH2 0xDAF JUMP JUMPDEST JUMPDEST PUSH1 0x20 DUP3 MUL SWAP1 POP PUSH1 0x20 DUP2 ADD SWAP1 POP SWAP2 SWAP1 POP JUMP JUMPDEST PUSH1 0x0 DUP1 REVERT JUMPDEST PUSH1 0x0 PUSH2 0xF4A PUSH2 0xF45 DUP5 PUSH2 0xF06 JUMP JUMPDEST PUSH2 0xE0F JUMP JUMPDEST SWAP1 POP DUP1 DUP4 DUP3 MSTORE PUSH1 0x20 DUP3 ADD SWAP1 POP PUSH1 0x20 DUP5 MUL DUP4 ADD DUP6 DUP2 GT ISZERO PUSH2 0xF6D JUMPI PUSH2 0xF6C PUSH2 0xF32 JUMP JUMPDEST JUMPDEST DUP4 JUMPDEST DUP2 DUP2 LT ISZERO PUSH2 0xFB4 JUMPI DUP1 CALLDATALOAD PUSH8 0xFFFFFFFFFFFFFFFF DUP2 GT ISZERO PUSH2 0xF92 JUMPI PUSH2 0xF91 PUSH2 0xD94 JUMP JUMPDEST JUMPDEST DUP1 DUP7 ADD PUSH2 0xF9F DUP10 DUP3 PUSH2 0xEAC JUMP JUMPDEST DUP6 MSTORE PUSH1 0x20 DUP6 ADD SWAP5 POP POP POP PUSH1 0x20 DUP2 ADD SWAP1 POP PUSH2 0xF6F JUMP JUMPDEST POP POP POP SWAP4 SWAP3 POP POP POP JUMP JUMPDEST PUSH1 0x0 DUP3 PUSH1 0x1F DUP4 ADD SLT PUSH2 0xFD3 JUMPI PUSH2 0xFD2 PUSH2 0xD94 JUMP JUMPDEST JUMPDEST DUP2 CALLDATALOAD PUSH2 0xFE3 DUP5 DUP3 PUSH1 0x20 DUP7 ADD PUSH2 0xF37 JUMP JUMPDEST SWAP2 POP POP SWAP3 SWAP2 POP POP JUMP JUMPDEST PUSH1 0x0 DUP1 PUSH1 0x0 PUSH1 0x60 DUP5 DUP7 SUB SLT ISZERO PUSH2 0x1005 JUMPI PUSH2 0x1004 PUSH2 0xD8A JUMP JUMPDEST JUMPDEST PUSH1 0x0 DUP5 ADD CALLDATALOAD PUSH8 0xFFFFFFFFFFFFFFFF DUP2 GT ISZERO PUSH2 0x1023 JUMPI PUSH2 0x1022 PUSH2 0xD8F JUMP JUMPDEST JUMPDEST PUSH2 0x102F DUP7 DUP3 DUP8 ADD PUSH2 0xEAC JUMP JUMPDEST SWAP4 POP POP PUSH1 0x20 PUSH2 0x1040 DUP7 DUP3 DUP8 ADD PUSH2 0xEF1 JUMP JUMPDEST SWAP3 POP POP PUSH1 0x40 DUP5 ADD CALLDATALOAD PUSH8 0xFFFFFFFFFFFFFFFF DUP2 GT ISZERO PUSH2 0x1061 JUMPI PUSH2 0x1060 PUSH2 0xD8F JUMP JUMPDEST JUMPDEST PUSH2 0x106D DUP7 DUP3 DUP8 ADD PUSH2 0xFBE JUMP JUMPDEST SWAP2 POP POP SWAP3 POP SWAP3 POP SWAP3 JUMP JUMPDEST PUSH1 0x0 PUSH1 0x20 DUP3 DUP5 SUB SLT ISZERO PUSH2 0x108D JUMPI PUSH2 0x108C PUSH2 0xD8A JUMP JUMPDEST JUMPDEST PUSH1 0x0 DUP3 ADD CALLDATALOAD PUSH8 0xFFFFFFFFFFFFFFFF DUP2 GT ISZERO PUSH2 0x10AB JUMPI PUSH2 0x10AA PUSH2 0xD8F JUMP JUMPDEST JUMPDEST PUSH2 0x10B7 DUP5 DUP3 DUP6 ADD PUSH2 0xEAC JUMP JUMPDEST SWAP2 POP POP SWAP3 SWAP2 POP POP JUMP JUMPDEST PUSH1 0x0 DUP2 MLOAD SWAP1 POP SWAP2 SWAP1 POP JUMP JUMPDEST PUSH1 0x0 DUP3 DUP3 MSTORE PUSH1 0x20 DUP3 ADD SWAP1 POP SWAP3 SWAP2 POP POP JUMP JUMPDEST PUSH1 0x0 JUMPDEST DUP4 DUP2 LT ISZERO PUSH2 0x10FA JUMPI DUP1 DUP3 ADD MLOAD DUP2 DUP5 ADD MSTORE PUSH1 0x20 DUP2 ADD SWAP1 POP PUSH2 0x10DF JUMP JUMPDEST PUSH1 0x0 DUP5 DUP5 ADD MSTORE POP POP POP POP JUMP JUMPDEST PUSH1 0x0 PUSH2 0x1111 DUP3 PUSH2 0x10C0 JUMP JUMPDEST PUSH2 0x111B DUP2 DUP6 PUSH2 0x10CB JUMP JUMPDEST SWAP4 POP PUSH2 0x112B DUP2 DUP6 PUSH1 0x20 DUP7 ADD PUSH2 0x10DC JUMP JUMPDEST PUSH2 0x1134 DUP2 PUSH2 0xD9E JUMP JUMPDEST DUP5 ADD SWAP2 POP POP SWAP3 SWAP2 POP POP JUMP JUMPDEST PUSH2 0x1148 DUP2 PUSH2 0xD4C JUMP JUMPDEST DUP3 MSTORE POP POP JUMP JUMPDEST PUSH1 0x0 DUP2 MLOAD SWAP1 POP SWAP2 SWAP1 POP JUMP JUMPDEST PUSH1 0x0 DUP3 DUP3 MSTORE PUSH1 0x20 DUP3 ADD SWAP1 POP SWAP3 SWAP2 POP POP JUMP JUMPDEST PUSH1 0x0 DUP2 SWAP1 POP PUSH1 0x20 DUP3 ADD SWAP1 POP SWAP2 SWAP1 POP JUMP JUMPDEST PUSH1 0x0 PUSH2 0x1186 DUP4 DUP4 PUSH2 0x1106 JUMP JUMPDEST SWAP1 POP SWAP3 SWAP2 POP POP JUMP JUMPDEST PUSH1 0x0 PUSH1 0x20 DUP3 ADD SWAP1 POP SWAP2 SWAP1 POP JUMP JUMPDEST PUSH1 0x0 PUSH2 0x11A6 DUP3 PUSH2 0x114E JUMP JUMPDEST PUSH2 0x11B0 DUP2 DUP6 PUSH2 0x1159 JUMP JUMPDEST SWAP4 POP DUP4 PUSH1 0x20 DUP3 MUL DUP6 ADD PUSH2 0x11C2 DUP6 PUSH2 0x116A JUMP JUMPDEST DUP1 PUSH1 0x0 JUMPDEST DUP6 DUP2 LT ISZERO PUSH2 0x11FE JUMPI DUP5 DUP5 SUB DUP10 MSTORE DUP2 MLOAD PUSH2 0x11DF DUP6 DUP3 PUSH2 0x117A JUMP JUMPDEST SWAP5 POP PUSH2 0x11EA DUP4 PUSH2 0x118E JUMP JUMPDEST SWAP3 POP PUSH1 0x20 DUP11 ADD SWAP10 POP POP PUSH1 0x1 DUP2 ADD SWAP1 POP PUSH2 0x11C6 JUMP JUMPDEST POP DUP3 SWAP8 POP DUP8 SWAP6 POP POP POP POP POP POP SWAP3 SWAP2 POP POP JUMP JUMPDEST PUSH1 0x0 PUSH1 0xA0 DUP4 ADD PUSH1 0x0 DUP4 ADD MLOAD DUP5 DUP3 SUB PUSH1 0x0 DUP7 ADD MSTORE PUSH2 0x122D DUP3 DUP3 PUSH2 0x1106 JUMP JUMPDEST SWAP2 POP POP PUSH1 0x20 DUP4 ADD MLOAD PUSH2 0x1242 PUSH1 0x20 DUP7 ADD DUP3 PUSH2 0x113F JUMP JUMPDEST POP PUSH1 0x40 DUP4 ADD MLOAD PUSH2 0x1255 PUSH1 0x40 DUP7 ADD DUP3 PUSH2 0x113F JUMP JUMPDEST POP PUSH1 0x60 DUP4 ADD MLOAD DUP5 DUP3 SUB PUSH1 0x60 DUP7 ADD MSTORE PUSH2 0x126D DUP3 DUP3 PUSH2 0x1106 JUMP JUMPDEST SWAP2 POP POP PUSH1 0x80 DUP4 ADD MLOAD DUP5 DUP3 SUB PUSH1 0x80 DUP7 ADD MSTORE PUSH2 0x1287 DUP3 DUP3 PUSH2 0x119B JUMP JUMPDEST SWAP2 POP POP DUP1 SWAP2 POP POP SWAP3 SWAP2 POP POP JUMP JUMPDEST PUSH1 0x0 PUSH1 0x20 DUP3 ADD SWAP1 POP DUP2 DUP2 SUB PUSH1 0x0 DUP4 ADD MSTORE PUSH2 0x12AE DUP2 DUP5 PUSH2 0x1210 JUMP JUMPDEST SWAP1 POP SWAP3 SWAP2 POP POP JUMP JUMPDEST PUSH1 0x0 DUP2 ISZERO ISZERO SWAP1 POP SWAP2 SWAP1 POP JUMP JUMPDEST PUSH2 0x12CB DUP2 PUSH2 0x12B6 JUMP JUMPDEST DUP3 MSTORE POP POP JUMP JUMPDEST PUSH1 0x0 PUSH1 0x20 DUP3 ADD SWAP1 POP PUSH2 0x12E6 PUSH1 0x0 DUP4 ADD DUP5 PUSH2 0x12C2 JUMP JUMPDEST SWAP3 SWAP2 POP POP JUMP JUMPDEST PUSH1 0x0 PUSH1 0x20 DUP3 DUP5 SUB SLT ISZERO PUSH2 0x1302 JUMPI PUSH2 0x1301 PUSH2 0xD8A JUMP JUMPDEST JUMPDEST PUSH1 0x0 PUSH2 0x1310 DUP5 DUP3 DUP6 ADD PUSH2 0xEF1 JUMP JUMPDEST SWAP2 POP POP SWAP3 SWAP2 POP POP JUMP JUMPDEST PUSH1 0x0 DUP2 MLOAD SWAP1 POP SWAP2 SWAP1 POP JUMP JUMPDEST PUSH1 0x0 DUP3 DUP3 MSTORE PUSH1 0x20 DUP3 ADD SWAP1 POP SWAP3 SWAP2 POP POP JUMP JUMPDEST PUSH1 0x0 DUP2 SWAP1 POP PUSH1 0x20 DUP3 ADD SWAP1 POP SWAP2 SWAP1 POP JUMP JUMPDEST PUSH1 0x0 PUSH1 0xA0 DUP4 ADD PUSH1 0x0 DUP4 ADD MLOAD DUP5 DUP3 SUB PUSH1 0x0 DUP7 ADD MSTORE PUSH2 0x1362 DUP3 DUP3 PUSH2 0x1106 JUMP JUMPDEST SWAP2 POP POP PUSH1 0x20 DUP4 ADD MLOAD PUSH2 0x1377 PUSH1 0x20 DUP7 ADD DUP3 PUSH2 0x113F JUMP JUMPDEST POP PUSH1 0x40 DUP4 ADD MLOAD PUSH2 0x138A PUSH1 0x40 DUP7 ADD DUP3 PUSH2 0x113F JUMP JUMPDEST POP PUSH1 0x60 DUP4 ADD MLOAD DUP5 DUP3 SUB PUSH1 0x60 DUP7 ADD MSTORE PUSH2 0x13A2 DUP3 DUP3 PUSH2 0x1106 JUMP JUMPDEST SWAP2 POP POP PUSH1 0x80 DUP4 ADD MLOAD DUP5 DUP3 SUB PUSH1 0x80 DUP7 ADD MSTORE PUSH2 0x13BC DUP3 DUP3 PUSH2 0x119B JUMP JUMPDEST SWAP2 POP POP DUP1 SWAP2 POP POP SWAP3 SWAP2 POP POP JUMP JUMPDEST PUSH1 0x0 PUSH2 0x13D5 DUP4 DUP4 PUSH2 0x1345 JUMP JUMPDEST SWAP1 POP SWAP3 SWAP2 POP POP JUMP JUMPDEST PUSH1 0x0 PUSH1 0x20 DUP3 ADD SWAP1 POP SWAP2 SWAP1 POP JUMP JUMPDEST PUSH1 0x0 PUSH2 0x13F5 DUP3 PUSH2 0x1319 JUMP JUMPDEST PUSH2 0x13FF DUP2 DUP6 PUSH2 0x1324 JUMP JUMPDEST SWAP4 POP DUP4 PUSH1 0x20 DUP3 MUL DUP6 ADD PUSH2 0x1411 DUP6 PUSH2 0x1335 JUMP JUMPDEST DUP1 PUSH1 0x0 JUMPDEST DUP6 DUP2 LT ISZERO PUSH2 0x144D JUMPI DUP5 DUP5 SUB DUP10 MSTORE DUP2 MLOAD PUSH2 0x142E DUP6 DUP3 PUSH2 0x13C9 JUMP JUMPDEST SWAP5 POP PUSH2 0x1439 DUP4 PUSH2 0x13DD JUMP JUMPDEST SWAP3 POP PUSH1 0x20 DUP11 ADD SWAP10 POP POP PUSH1 0x1 DUP2 ADD SWAP1 POP PUSH2 0x1415 JUMP JUMPDEST POP DUP3 SWAP8 POP DUP8 SWAP6 POP POP POP POP POP POP SWAP3 SWAP2 POP POP JUMP JUMPDEST PUSH1 0x0 PUSH1 0x20 DUP3 ADD SWAP1 POP DUP2 DUP2 SUB PUSH1 0x0 DUP4 ADD MSTORE PUSH2 0x1479 DUP2 DUP5 PUSH2 0x13EA JUMP JUMPDEST SWAP1 POP SWAP3 SWAP2 POP POP JUMP JUMPDEST PUSH1 0x0 DUP3 DUP3 MSTORE PUSH1 0x20 DUP3 ADD SWAP1 POP SWAP3 SWAP2 POP POP JUMP JUMPDEST PUSH1 0x0 PUSH2 0x149D DUP3 PUSH2 0x10C0 JUMP JUMPDEST PUSH2 0x14A7 DUP2 DUP6 PUSH2 0x1481 JUMP JUMPDEST SWAP4 POP PUSH2 0x14B7 DUP2 DUP6 PUSH1 0x20 DUP7 ADD PUSH2 0x10DC JUMP JUMPDEST PUSH2 0x14C0 DUP2 PUSH2 0xD9E JUMP JUMPDEST DUP5 ADD SWAP2 POP POP SWAP3 SWAP2 POP POP JUMP JUMPDEST PUSH1 0x0 PUSH1 0x20 DUP3 ADD SWAP1 POP DUP2 DUP2 SUB PUSH1 0x0 DUP4 ADD MSTORE PUSH2 0x14E5 DUP2 DUP5 PUSH2 0x1492 JUMP JUMPDEST SWAP1 POP SWAP3 SWAP2 POP POP JUMP JUMPDEST PUSH32 0x4E487B7100000000000000000000000000000000000000000000000000000000 PUSH1 0x0 MSTORE PUSH1 0x32 PUSH1 0x4 MSTORE PUSH1 0x24 PUSH1 0x0 REVERT JUMPDEST PUSH32 0x4E487B7100000000000000000000000000000000000000000000000000000000 PUSH1 0x0 MSTORE PUSH1 0x11 PUSH1 0x4 MSTORE PUSH1 0x24 PUSH1 0x0 REVERT JUMPDEST PUSH1 0x0 PUSH2 0x1556 DUP3 PUSH2 0xD4C JUMP JUMPDEST SWAP2 POP PUSH2 0x1561 DUP4 PUSH2 0xD4C JUMP JUMPDEST SWAP3 POP DUP3 DUP3 ADD SWAP1 POP DUP1 DUP3 GT ISZERO PUSH2 0x1579 JUMPI PUSH2 0x1578 PUSH2 0x151C JUMP JUMPDEST JUMPDEST SWAP3 SWAP2 POP POP JUMP JUMPDEST PUSH1 0x0 PUSH2 0x158A DUP3 PUSH2 0xD4C JUMP JUMPDEST SWAP2 POP PUSH32 0xFFFFFFFFFFFFFFFFFFFFFFFFFFFFFFFFFFFFFFFFFFFFFFFFFFFFFFFFFFFFFFFF DUP3 SUB PUSH2 0x15BC JUMPI PUSH2 0x15BB PUSH2 0x151C JUMP JUMPDEST JUMPDEST PUSH1 0x1 DUP3 ADD SWAP1 POP SWAP2 SWAP1 POP JUMP JUMPDEST PUSH32 0x4E487B7100000000000000000000000000000000000000000000000000000000 PUSH1 0x0 MSTORE PUSH1 0x12 PUSH1 0x4 MSTORE PUSH1 0x24 PUSH1 0x0 REVERT JUMPDEST PUSH1 0x0 PUSH2 0x1601 DUP3 PUSH2 0xD4C JUMP JUMPDEST SWAP2 POP PUSH2 0x160C DUP4 PUSH2 0xD4C JUMP JUMPDEST SWAP3 POP DUP3 PUSH2 0x161C JUMPI PUSH2 0x161B PUSH2 0x15C7 JUMP JUMPDEST JUMPDEST DUP3 DUP3 DIV SWAP1 POP SWAP3 SWAP2 POP POP JUMP JUMPDEST PUSH32 0x4E487B7100000000000000000000000000000000000000000000000000000000 PUSH1 0x0 MSTORE PUSH1 0x22 PUSH1 0x4 MSTORE PUSH1 0x24 PUSH1 0x0 REVERT JUMPDEST PUSH1 0x0 PUSH1 0x2 DUP3 DIV SWAP1 POP PUSH1 0x1 DUP3 AND DUP1 PUSH2 0x166E JUMPI PUSH1 0x7F DUP3 AND SWAP2 POP JUMPDEST PUSH1 0x20 DUP3 LT DUP2 SUB PUSH2 0x1681 JUMPI PUSH2 0x1680 PUSH2 0x1627 JUMP JUMPDEST JUMPDEST POP SWAP2 SWAP1 POP JUMP JUMPDEST PUSH1 0x0 DUP2 SWAP1 POP DUP2 PUSH1 0x0 MSTORE PUSH1 0x20 PUSH1 0x0 KECCAK256 SWAP1 POP SWAP2 SWAP1 POP JUMP JUMPDEST PUSH1 0x0 PUSH1 0x20 PUSH1 0x1F DUP4 ADD DIV SWAP1 POP SWAP2 SWAP1 POP JUMP JUMPDEST PUSH1 0x0 DUP3 DUP3 SHL SWAP1 POP SWAP3 SWAP2 POP POP JUMP JUMPDEST PUSH1 0x0 PUSH1 0x8 DUP4 MUL PUSH2 0x16E9 PUSH32 0xFFFFFFFFFFFFFFFFFFFFFFFFFFFFFFFFFFFFFFFFFFFFFFFFFFFFFFFFFFFFFFFF DUP3 PUSH2 0x16AC JUMP JUMPDEST PUSH2 0x16F3 DUP7 DUP4 PUSH2 0x16AC JUMP JUMPDEST SWAP6 POP DUP1 NOT DUP5 AND SWAP4 POP DUP1 DUP7 AND DUP5 OR SWAP3 POP POP POP SWAP4 SWAP3 POP POP POP JUMP JUMPDEST PUSH1 0x0 DUP2 SWAP1 POP SWAP2 SWAP1 POP JUMP JUMPDEST PUSH1 0x0 PUSH2 0x1730 PUSH2 0x172B PUSH2 0x1726 DUP5 PUSH2 0xD4C JUMP JUMPDEST PUSH2 0x170B JUMP JUMPDEST PUSH2 0xD4C JUMP JUMPDEST SWAP1 POP SWAP2 SWAP1 POP JUMP JUMPDEST PUSH1 0x0 DUP2 SWAP1 POP SWAP2 SWAP1 POP JUMP JUMPDEST PUSH2 0x174A DUP4 PUSH2 0x1715 JUMP JUMPDEST PUSH2 0x175E PUSH2 0x1756 DUP3 PUSH2 0x1737 JUMP JUMPDEST DUP5 DUP5 SLOAD PUSH2 0x16B9 JUMP JUMPDEST DUP3 SSTORE POP POP POP POP JUMP JUMPDEST PUSH1 0x0 SWAP1 JUMP JUMPDEST PUSH2 0x1773 PUSH2 0x1766 JUMP JUMPDEST PUSH2 0x177E DUP2 DUP5 DUP5 PUSH2 0x1741 JUMP JUMPDEST POP POP POP JUMP JUMPDEST JUMPDEST DUP2 DUP2 LT ISZERO PUSH2 0x17A2 JUMPI PUSH2 0x1797 PUSH1 0x0 DUP3 PUSH2 0x176B JUMP JUMPDEST PUSH1 0x1 DUP2 ADD SWAP1 POP PUSH2 0x1784 JUMP JUMPDEST POP POP JUMP JUMPDEST PUSH1 0x1F DUP3 GT ISZERO PUSH2 0x17E7 JUMPI PUSH2 0x17B8 DUP2 PUSH2 0x1687 JUMP JUMPDEST PUSH2 0x17C1 DUP5 PUSH2 0x169C JUMP JUMPDEST DUP2 ADD PUSH1 0x20 DUP6 LT ISZERO PUSH2 0x17D0 JUMPI DUP2 SWAP1 POP JUMPDEST PUSH2 0x17E4 PUSH2 0x17DC DUP6 PUSH2 0x169C JUMP JUMPDEST DUP4 ADD DUP3 PUSH2 0x1783 JUMP JUMPDEST POP POP JUMPDEST POP POP POP JUMP JUMPDEST PUSH1 0x0 DUP3 DUP3 SHR SWAP1 POP SWAP3 SWAP2 POP POP JUMP JUMPDEST PUSH1 0x0 PUSH2 0x180A PUSH1 0x0 NOT DUP5 PUSH1 0x8 MUL PUSH2 0x17EC JUMP JUMPDEST NOT DUP1 DUP4 AND SWAP2 POP POP SWAP3 SWAP2 POP POP JUMP JUMPDEST PUSH1 0x0 PUSH2 0x1823 DUP4 DUP4 PUSH2 0x17F9 JUMP JUMPDEST SWAP2 POP DUP3 PUSH1 0x2 MUL DUP3 OR SWAP1 POP SWAP3 SWAP2 POP POP JUMP JUMPDEST PUSH2 0x183C DUP3 PUSH2 0x10C0 JUMP JUMPDEST PUSH8 0xFFFFFFFFFFFFFFFF DUP2 GT ISZERO PUSH2 0x1855 JUMPI PUSH2 0x1854 PUSH2 0xDAF JUMP JUMPDEST JUMPDEST PUSH2 0x185F DUP3 SLOAD PUSH2 0x1656 JUMP JUMPDEST PUSH2 0x186A DUP3 DUP3 DUP6 PUSH2 0x17A6 JUMP JUMPDEST PUSH1 0x0 PUSH1 0x20 SWAP1 POP PUSH1 0x1F DUP4 GT PUSH1 0x1 DUP2 EQ PUSH2 0x189D JUMPI PUSH1 0x0 DUP5 ISZERO PUSH2 0x188B JUMPI DUP3 DUP8 ADD MLOAD SWAP1 POP JUMPDEST PUSH2 0x1895 DUP6 DUP3 PUSH2 0x1817 JUMP JUMPDEST DUP7 SSTORE POP PUSH2 0x18FD JUMP JUMPDEST PUSH1 0x1F NOT DUP5 AND PUSH2 0x18AB DUP7 PUSH2 0x1687 JUMP JUMPDEST PUSH1 0x0 JUMPDEST DUP3 DUP2 LT ISZERO PUSH2 0x18D3 JUMPI DUP5 DUP10 ADD MLOAD DUP3 SSTORE PUSH1 0x1 DUP3 ADD SWAP2 POP PUSH1 0x20 DUP6 ADD SWAP5 POP PUSH1 0x20 DUP2 ADD SWAP1 POP PUSH2 0x18AE JUMP JUMPDEST DUP7 DUP4 LT ISZERO PUSH2 0x18F0 JUMPI DUP5 DUP10 ADD MLOAD PUSH2 0x18EC PUSH1 0x1F DUP10 AND DUP3 PUSH2 0x17F9 JUMP JUMPDEST DUP4 SSTORE POP JUMPDEST PUSH1 0x1 PUSH1 0x2 DUP9 MUL ADD DUP9 SSTORE POP POP POP JUMPDEST POP POP POP POP POP POP JUMP JUMPDEST PUSH1 0x0 DUP2 SWAP1 POP SWAP3 SWAP2 POP POP JUMP JUMPDEST PUSH1 0x0 PUSH2 0x191B DUP3 PUSH2 0x10C0 JUMP JUMPDEST PUSH2 0x1925 DUP2 DUP6 PUSH2 0x1905 JUMP JUMPDEST SWAP4 POP PUSH2 0x1935 DUP2 DUP6 PUSH1 0x20 DUP7 ADD PUSH2 0x10DC JUMP JUMPDEST DUP1 DUP5 ADD SWAP2 POP POP SWAP3 SWAP2 POP POP JUMP JUMPDEST PUSH1 0x0 PUSH2 0x194D DUP3 DUP5 PUSH2 0x1910 JUMP JUMPDEST SWAP2 POP DUP2 SWAP1 POP SWAP3 SWAP2 POP POP JUMP JUMPDEST PUSH1 0x0 PUSH2 0x1963 DUP3 PUSH2 0xD4C JUMP JUMPDEST SWAP2 POP PUSH2 0x196E DUP4 PUSH2 0xD4C JUMP JUMPDEST SWAP3 POP DUP3 DUP3 SUB SWAP1 POP DUP2 DUP2 GT ISZERO PUSH2 0x1986 JUMPI PUSH2 0x1985 PUSH2 0x151C JUMP JUMPDEST JUMPDEST SWAP3 SWAP2 POP POP JUMP INVALID LOG2 PUSH5 0x6970667358 0x22 SLT KECCAK256 0x4F DUP6 CHAINID SLOAD 0xBB SWAP5 0xBC 0x2D 0xD7 0xB9 0xA6 GT DUP10 0x23 0xE2 0xA9 MOD 0xC8 0x29 0x24 DUP1 EXTCODECOPY PUSH21 0xBC27FF3A8EDCAAC63C64736F6C6343000812003300 "
				},
				"gasEstimates": {
					"creation": {
						"codeDepositCost": "1318800",
						"executionCost": "1376",
						"totalCost": "1320176"
					},
					"external": {
						"getAllStudents()": "infinite",
						"getAvg()": "infinite",
						"getStudentByName(string)": "infinite",
						"getStudentByNumber(uint256)": "infinite",
						"getStudentsNum()": "2490",
						"pushStudent(string,uint256,string[])": "infinite",
						"selfEval()": "infinite",
						"setCredit(uint256)": "infinite"
					}
				},
				"methodIdentifiers": {
					"getAllStudents()": "e9e30927",
					"getAvg()": "390b6a4c",
					"getStudentByName(string)": "83b41ad8",
					"getStudentByNumber(uint256)": "a41f985e",
					"getStudentsNum()": "7674f2d8",
					"pushStudent(string,uint256,string[])": "74aa6858",
					"selfEval()": "a05ab6d0",
					"setCredit(uint256)": "eac1d5b7"
				}
			},
			"storageLayout": {
				"storage": [
					{
						"astId": 17,
						"contract": "contracts-lecture/230511-practice.sol:practice",
						"label": "students",
						"offset": 0,
						"slot": "0",
						"type": "t_array(t_struct(Student)13_storage)dyn_storage"
					},
					{
						"astId": 121,
						"contract": "contracts-lecture/230511-practice.sol:practice",
						"label": "name_Student",
						"offset": 0,
						"slot": "1",
						"type": "t_mapping(t_string_memory_ptr,t_struct(Student)13_storage)"
					}
				],
				"types": {
					"t_array(t_string_storage)dyn_storage": {
						"base": "t_string_storage",
						"encoding": "dynamic_array",
						"label": "string[]",
						"numberOfBytes": "32"
					},
					"t_array(t_struct(Student)13_storage)dyn_storage": {
						"base": "t_struct(Student)13_storage",
						"encoding": "dynamic_array",
						"label": "struct practice.Student[]",
						"numberOfBytes": "32"
					},
					"t_mapping(t_string_memory_ptr,t_struct(Student)13_storage)": {
						"encoding": "mapping",
						"key": "t_string_memory_ptr",
						"label": "mapping(string => struct practice.Student)",
						"numberOfBytes": "32",
						"value": "t_struct(Student)13_storage"
					},
					"t_string_memory_ptr": {
						"encoding": "bytes",
						"label": "string",
						"numberOfBytes": "32"
					},
					"t_string_storage": {
						"encoding": "bytes",
						"label": "string",
						"numberOfBytes": "32"
					},
					"t_struct(Student)13_storage": {
						"encoding": "inplace",
						"label": "struct practice.Student",
						"members": [
							{
								"astId": 3,
								"contract": "contracts-lecture/230511-practice.sol:practice",
								"label": "name",
								"offset": 0,
								"slot": "0",
								"type": "t_string_storage"
							},
							{
								"astId": 5,
								"contract": "contracts-lecture/230511-practice.sol:practice",
								"label": "number",
								"offset": 0,
								"slot": "1",
								"type": "t_uint256"
							},
							{
								"astId": 7,
								"contract": "contracts-lecture/230511-practice.sol:practice",
								"label": "score",
								"offset": 0,
								"slot": "2",
								"type": "t_uint256"
							},
							{
								"astId": 9,
								"contract": "contracts-lecture/230511-practice.sol:practice",
								"label": "credit",
								"offset": 0,
								"slot": "3",
								"type": "t_string_storage"
							},
							{
								"astId": 12,
								"contract": "contracts-lecture/230511-practice.sol:practice",
								"label": "classes",
								"offset": 0,
								"slot": "4",
								"type": "t_array(t_string_storage)dyn_storage"
							}
						],
						"numberOfBytes": "160"
					},
					"t_uint256": {
						"encoding": "inplace",
						"label": "uint256",
						"numberOfBytes": "32"
					}
				}
			},
			"userdoc": {
				"kind": "user",
				"methods": {},
				"version": 1
			}
		}
	}
}