{
	"contracts-lecture/230508-3.sol": {
		"Struct": {
			"abi": [
				{
					"inputs": [
						{
							"internalType": "uint256",
							"name": "_n",
							"type": "uint256"
						}
					],
					"name": "getBirthday",
					"outputs": [
						{
							"internalType": "uint256",
							"name": "",
							"type": "uint256"
						}
					],
					"stateMutability": "view",
					"type": "function"
				},
				{
					"inputs": [
						{
							"internalType": "uint256",
							"name": "_n",
							"type": "uint256"
						}
					],
					"name": "getStudent",
					"outputs": [
						{
							"components": [
								{
									"internalType": "string",
									"name": "name",
									"type": "string"
								},
								{
									"internalType": "uint256",
									"name": "birthday",
									"type": "uint256"
								},
								{
									"internalType": "uint256",
									"name": "number",
									"type": "uint256"
								}
							],
							"internalType": "struct Struct.Student",
							"name": "",
							"type": "tuple"
						}
					],
					"stateMutability": "view",
					"type": "function"
				},
				{
					"inputs": [
						{
							"internalType": "string",
							"name": "_name",
							"type": "string"
						},
						{
							"internalType": "uint256",
							"name": "_birthday",
							"type": "uint256"
						},
						{
							"internalType": "uint256",
							"name": "_number",
							"type": "uint256"
						}
					],
					"name": "pushStudent",
					"outputs": [],
					"stateMutability": "nonpayable",
					"type": "function"
				}
			],
			"devdoc": {
				"kind": "dev",
				"methods": {},
				"version": 1
			},
			"evm": {
				"assembly": "    /* \"contracts-lecture/230508-3.sol\":63:605  contract Struct {... */\n  mstore(0x40, 0x80)\n  callvalue\n  dup1\n  iszero\n  tag_1\n  jumpi\n  0x00\n  dup1\n  revert\ntag_1:\n  pop\n  dataSize(sub_0)\n  dup1\n  dataOffset(sub_0)\n  0x00\n  codecopy\n  0x00\n  return\nstop\n\nsub_0: assembly {\n        /* \"contracts-lecture/230508-3.sol\":63:605  contract Struct {... */\n      mstore(0x40, 0x80)\n      callvalue\n      dup1\n      iszero\n      tag_1\n      jumpi\n      0x00\n      dup1\n      revert\n    tag_1:\n      pop\n      jumpi(tag_2, lt(calldatasize, 0x04))\n      shr(0xe0, calldataload(0x00))\n      dup1\n      0x562ca543\n      eq\n      tag_3\n      jumpi\n      dup1\n      0x642f9163\n      eq\n      tag_4\n      jumpi\n      dup1\n      0xc8d2524c\n      eq\n      tag_5\n      jumpi\n    tag_2:\n      0x00\n      dup1\n      revert\n        /* \"contracts-lecture/230508-3.sol\":203:348  function pushStudent(string memory _name, uint _birthday, uint _number) public {... */\n    tag_3:\n      tag_6\n      0x04\n      dup1\n      calldatasize\n      sub\n      dup2\n      add\n      swap1\n      tag_7\n      swap2\n      swap1\n      tag_8\n      jump\t// in\n    tag_7:\n      tag_9\n      jump\t// in\n    tag_6:\n      stop\n        /* \"contracts-lecture/230508-3.sol\":354:457  function getStudent(uint _n) public view returns(Student memory) {... */\n    tag_4:\n      tag_10\n      0x04\n      dup1\n      calldatasize\n      sub\n      dup2\n      add\n      swap1\n      tag_11\n      swap2\n      swap1\n      tag_12\n      jump\t// in\n    tag_11:\n      tag_13\n      jump\t// in\n    tag_10:\n      mload(0x40)\n      tag_14\n      swap2\n      swap1\n      tag_15\n      jump\t// in\n    tag_14:\n      mload(0x40)\n      dup1\n      swap2\n      sub\n      swap1\n      return\n        /* \"contracts-lecture/230508-3.sol\":463:603  function getBirthday(uint _n) public view returns(uint) {... */\n    tag_5:\n      tag_16\n      0x04\n      dup1\n      calldatasize\n      sub\n      dup2\n      add\n      swap1\n      tag_17\n      swap2\n      swap1\n      tag_12\n      jump\t// in\n    tag_17:\n      tag_18\n      jump\t// in\n    tag_16:\n      mload(0x40)\n      tag_19\n      swap2\n      swap1\n      tag_20\n      jump\t// in\n    tag_19:\n      mload(0x40)\n      dup1\n      swap2\n      sub\n      swap1\n      return\n        /* \"contracts-lecture/230508-3.sol\":203:348  function pushStudent(string memory _name, uint _birthday, uint _number) public {... */\n    tag_9:\n        /* \"contracts-lecture/230508-3.sol\":292:300  students */\n      0x00\n        /* \"contracts-lecture/230508-3.sol\":306:340  Student(_name, _birthday, _number) */\n      mload(0x40)\n      dup1\n      0x60\n      add\n      0x40\n      mstore\n      dup1\n        /* \"contracts-lecture/230508-3.sol\":314:319  _name */\n      dup6\n        /* \"contracts-lecture/230508-3.sol\":306:340  Student(_name, _birthday, _number) */\n      dup2\n      mstore\n      0x20\n      add\n        /* \"contracts-lecture/230508-3.sol\":321:330  _birthday */\n      dup5\n        /* \"contracts-lecture/230508-3.sol\":306:340  Student(_name, _birthday, _number) */\n      dup2\n      mstore\n      0x20\n      add\n        /* \"contracts-lecture/230508-3.sol\":332:339  _number */\n      dup4\n        /* \"contracts-lecture/230508-3.sol\":306:340  Student(_name, _birthday, _number) */\n      dup2\n      mstore\n      pop\n        /* \"contracts-lecture/230508-3.sol\":292:341  students.push(Student(_name, _birthday, _number)) */\n      swap1\n      dup1\n      0x01\n      dup2\n      sload\n      add\n      dup1\n      dup3\n      sstore\n      dup1\n      swap2\n      pop\n      pop\n      0x01\n      swap1\n      sub\n      swap1\n      0x00\n      mstore\n      keccak256(0x00, 0x20)\n      swap1\n      0x03\n      mul\n      add\n      0x00\n      swap1\n      swap2\n      swap1\n      swap2\n      swap1\n      swap2\n      pop\n      0x00\n      dup3\n      add\n      mload\n      dup2\n      0x00\n      add\n      swap1\n      dup2\n      tag_23\n      swap2\n      swap1\n      tag_24\n      jump\t// in\n    tag_23:\n      pop\n      0x20\n      dup3\n      add\n      mload\n      dup2\n      0x01\n      add\n      sstore\n      0x40\n      dup3\n      add\n      mload\n      dup2\n      0x02\n      add\n      sstore\n      pop\n      pop\n        /* \"contracts-lecture/230508-3.sol\":203:348  function pushStudent(string memory _name, uint _birthday, uint _number) public {... */\n      pop\n      pop\n      pop\n      jump\t// out\n        /* \"contracts-lecture/230508-3.sol\":354:457  function getStudent(uint _n) public view returns(Student memory) {... */\n    tag_13:\n        /* \"contracts-lecture/230508-3.sol\":403:417  Student memory */\n      tag_25\n      tag_26\n      jump\t// in\n    tag_25:\n        /* \"contracts-lecture/230508-3.sol\":436:444  students */\n      0x00\n        /* \"contracts-lecture/230508-3.sol\":448:449  1 */\n      0x01\n        /* \"contracts-lecture/230508-3.sol\":445:447  _n */\n      dup4\n        /* \"contracts-lecture/230508-3.sol\":445:449  _n-1 */\n      tag_28\n      swap2\n      swap1\n      tag_29\n      jump\t// in\n    tag_28:\n        /* \"contracts-lecture/230508-3.sol\":436:450  students[_n-1] */\n      dup2\n      sload\n      dup2\n      lt\n      tag_30\n      jumpi\n      tag_31\n      tag_32\n      jump\t// in\n    tag_31:\n    tag_30:\n      swap1\n      0x00\n      mstore\n      keccak256(0x00, 0x20)\n      swap1\n      0x03\n      mul\n      add\n        /* \"contracts-lecture/230508-3.sol\":429:450  return students[_n-1] */\n      mload(0x40)\n      dup1\n      0x60\n      add\n      0x40\n      mstore\n      swap1\n      dup2\n      0x00\n      dup3\n      add\n      dup1\n      sload\n      tag_34\n      swap1\n      tag_35\n      jump\t// in\n    tag_34:\n      dup1\n      0x1f\n      add\n      0x20\n      dup1\n      swap2\n      div\n      mul\n      0x20\n      add\n      mload(0x40)\n      swap1\n      dup2\n      add\n      0x40\n      mstore\n      dup1\n      swap3\n      swap2\n      swap1\n      dup2\n      dup2\n      mstore\n      0x20\n      add\n      dup3\n      dup1\n      sload\n      tag_36\n      swap1\n      tag_35\n      jump\t// in\n    tag_36:\n      dup1\n      iszero\n      tag_37\n      jumpi\n      dup1\n      0x1f\n      lt\n      tag_38\n      jumpi\n      0x0100\n      dup1\n      dup4\n      sload\n      div\n      mul\n      dup4\n      mstore\n      swap2\n      0x20\n      add\n      swap2\n      jump(tag_37)\n    tag_38:\n      dup3\n      add\n      swap2\n      swap1\n      0x00\n      mstore\n      keccak256(0x00, 0x20)\n      swap1\n    tag_39:\n      dup2\n      sload\n      dup2\n      mstore\n      swap1\n      0x01\n      add\n      swap1\n      0x20\n      add\n      dup1\n      dup4\n      gt\n      tag_39\n      jumpi\n      dup3\n      swap1\n      sub\n      0x1f\n      and\n      dup3\n      add\n      swap2\n    tag_37:\n      pop\n      pop\n      pop\n      pop\n      pop\n      dup2\n      mstore\n      0x20\n      add\n      0x01\n      dup3\n      add\n      sload\n      dup2\n      mstore\n      0x20\n      add\n      0x02\n      dup3\n      add\n      sload\n      dup2\n      mstore\n      pop\n      pop\n      swap1\n      pop\n        /* \"contracts-lecture/230508-3.sol\":354:457  function getStudent(uint _n) public view returns(Student memory) {... */\n      swap2\n      swap1\n      pop\n      jump\t// out\n        /* \"contracts-lecture/230508-3.sol\":463:603  function getBirthday(uint _n) public view returns(uint) {... */\n    tag_18:\n        /* \"contracts-lecture/230508-3.sol\":513:517  uint */\n      0x00\n        /* \"contracts-lecture/230508-3.sol\":536:544  students */\n      dup1\n        /* \"contracts-lecture/230508-3.sol\":548:549  1 */\n      0x01\n        /* \"contracts-lecture/230508-3.sol\":545:547  _n */\n      dup4\n        /* \"contracts-lecture/230508-3.sol\":545:549  _n-1 */\n      tag_41\n      swap2\n      swap1\n      tag_29\n      jump\t// in\n    tag_41:\n        /* \"contracts-lecture/230508-3.sol\":536:550  students[_n-1] */\n      dup2\n      sload\n      dup2\n      lt\n      tag_42\n      jumpi\n      tag_43\n      tag_32\n      jump\t// in\n    tag_43:\n    tag_42:\n      swap1\n      0x00\n      mstore\n      keccak256(0x00, 0x20)\n      swap1\n      0x03\n      mul\n      add\n        /* \"contracts-lecture/230508-3.sol\":536:559  students[_n-1].birthday */\n      0x01\n      add\n      sload\n        /* \"contracts-lecture/230508-3.sol\":529:559  return students[_n-1].birthday */\n      swap1\n      pop\n        /* \"contracts-lecture/230508-3.sol\":463:603  function getBirthday(uint _n) public view returns(uint) {... */\n      swap2\n      swap1\n      pop\n      jump\t// out\n    tag_26:\n      mload(0x40)\n      dup1\n      0x60\n      add\n      0x40\n      mstore\n      dup1\n      0x60\n      dup2\n      mstore\n      0x20\n      add\n      0x00\n      dup2\n      mstore\n      0x20\n      add\n      0x00\n      dup2\n      mstore\n      pop\n      swap1\n      jump\t// out\n        /* \"#utility.yul\":7:82   */\n    tag_45:\n        /* \"#utility.yul\":40:46   */\n      0x00\n        /* \"#utility.yul\":73:75   */\n      0x40\n        /* \"#utility.yul\":67:76   */\n      mload\n        /* \"#utility.yul\":57:76   */\n      swap1\n      pop\n        /* \"#utility.yul\":7:82   */\n      swap1\n      jump\t// out\n        /* \"#utility.yul\":88:205   */\n    tag_46:\n        /* \"#utility.yul\":197:198   */\n      0x00\n        /* \"#utility.yul\":194:195   */\n      dup1\n        /* \"#utility.yul\":187:199   */\n      revert\n        /* \"#utility.yul\":211:328   */\n    tag_47:\n        /* \"#utility.yul\":320:321   */\n      0x00\n        /* \"#utility.yul\":317:318   */\n      dup1\n        /* \"#utility.yul\":310:322   */\n      revert\n        /* \"#utility.yul\":334:451   */\n    tag_48:\n        /* \"#utility.yul\":443:444   */\n      0x00\n        /* \"#utility.yul\":440:441   */\n      dup1\n        /* \"#utility.yul\":433:445   */\n      revert\n        /* \"#utility.yul\":457:574   */\n    tag_49:\n        /* \"#utility.yul\":566:567   */\n      0x00\n        /* \"#utility.yul\":563:564   */\n      dup1\n        /* \"#utility.yul\":556:568   */\n      revert\n        /* \"#utility.yul\":580:682   */\n    tag_50:\n        /* \"#utility.yul\":621:627   */\n      0x00\n        /* \"#utility.yul\":672:674   */\n      0x1f\n        /* \"#utility.yul\":668:675   */\n      not\n        /* \"#utility.yul\":663:665   */\n      0x1f\n        /* \"#utility.yul\":656:661   */\n      dup4\n        /* \"#utility.yul\":652:666   */\n      add\n        /* \"#utility.yul\":648:676   */\n      and\n        /* \"#utility.yul\":638:676   */\n      swap1\n      pop\n        /* \"#utility.yul\":580:682   */\n      swap2\n      swap1\n      pop\n      jump\t// out\n        /* \"#utility.yul\":688:868   */\n    tag_51:\n        /* \"#utility.yul\":736:813   */\n      0x4e487b7100000000000000000000000000000000000000000000000000000000\n        /* \"#utility.yul\":733:734   */\n      0x00\n        /* \"#utility.yul\":726:814   */\n      mstore\n        /* \"#utility.yul\":833:837   */\n      0x41\n        /* \"#utility.yul\":830:831   */\n      0x04\n        /* \"#utility.yul\":823:838   */\n      mstore\n        /* \"#utility.yul\":857:861   */\n      0x24\n        /* \"#utility.yul\":854:855   */\n      0x00\n        /* \"#utility.yul\":847:862   */\n      revert\n        /* \"#utility.yul\":874:1155   */\n    tag_52:\n        /* \"#utility.yul\":957:984   */\n      tag_94\n        /* \"#utility.yul\":979:983   */\n      dup3\n        /* \"#utility.yul\":957:984   */\n      tag_50\n      jump\t// in\n    tag_94:\n        /* \"#utility.yul\":949:955   */\n      dup2\n        /* \"#utility.yul\":945:985   */\n      add\n        /* \"#utility.yul\":1087:1093   */\n      dup2\n        /* \"#utility.yul\":1075:1085   */\n      dup2\n        /* \"#utility.yul\":1072:1094   */\n      lt\n        /* \"#utility.yul\":1051:1069   */\n      0xffffffffffffffff\n        /* \"#utility.yul\":1039:1049   */\n      dup3\n        /* \"#utility.yul\":1036:1070   */\n      gt\n        /* \"#utility.yul\":1033:1095   */\n      or\n        /* \"#utility.yul\":1030:1118   */\n      iszero\n      tag_95\n      jumpi\n        /* \"#utility.yul\":1098:1116   */\n      tag_96\n      tag_51\n      jump\t// in\n    tag_96:\n        /* \"#utility.yul\":1030:1118   */\n    tag_95:\n        /* \"#utility.yul\":1138:1148   */\n      dup1\n        /* \"#utility.yul\":1134:1136   */\n      0x40\n        /* \"#utility.yul\":1127:1149   */\n      mstore\n        /* \"#utility.yul\":917:1155   */\n      pop\n        /* \"#utility.yul\":874:1155   */\n      pop\n      pop\n      jump\t// out\n        /* \"#utility.yul\":1161:1290   */\n    tag_53:\n        /* \"#utility.yul\":1195:1201   */\n      0x00\n        /* \"#utility.yul\":1222:1242   */\n      tag_98\n      tag_45\n      jump\t// in\n    tag_98:\n        /* \"#utility.yul\":1212:1242   */\n      swap1\n      pop\n        /* \"#utility.yul\":1251:1284   */\n      tag_99\n        /* \"#utility.yul\":1279:1283   */\n      dup3\n        /* \"#utility.yul\":1271:1277   */\n      dup3\n        /* \"#utility.yul\":1251:1284   */\n      tag_52\n      jump\t// in\n    tag_99:\n        /* \"#utility.yul\":1161:1290   */\n      swap2\n      swap1\n      pop\n      jump\t// out\n        /* \"#utility.yul\":1296:1604   */\n    tag_54:\n        /* \"#utility.yul\":1358:1362   */\n      0x00\n        /* \"#utility.yul\":1448:1466   */\n      0xffffffffffffffff\n        /* \"#utility.yul\":1440:1446   */\n      dup3\n        /* \"#utility.yul\":1437:1467   */\n      gt\n        /* \"#utility.yul\":1434:1490   */\n      iszero\n      tag_101\n      jumpi\n        /* \"#utility.yul\":1470:1488   */\n      tag_102\n      tag_51\n      jump\t// in\n    tag_102:\n        /* \"#utility.yul\":1434:1490   */\n    tag_101:\n        /* \"#utility.yul\":1508:1537   */\n      tag_103\n        /* \"#utility.yul\":1530:1536   */\n      dup3\n        /* \"#utility.yul\":1508:1537   */\n      tag_50\n      jump\t// in\n    tag_103:\n        /* \"#utility.yul\":1500:1537   */\n      swap1\n      pop\n        /* \"#utility.yul\":1592:1596   */\n      0x20\n        /* \"#utility.yul\":1586:1590   */\n      dup2\n        /* \"#utility.yul\":1582:1597   */\n      add\n        /* \"#utility.yul\":1574:1597   */\n      swap1\n      pop\n        /* \"#utility.yul\":1296:1604   */\n      swap2\n      swap1\n      pop\n      jump\t// out\n        /* \"#utility.yul\":1610:1756   */\n    tag_55:\n        /* \"#utility.yul\":1707:1713   */\n      dup3\n        /* \"#utility.yul\":1702:1705   */\n      dup2\n        /* \"#utility.yul\":1697:1700   */\n      dup4\n        /* \"#utility.yul\":1684:1714   */\n      calldatacopy\n        /* \"#utility.yul\":1748:1749   */\n      0x00\n        /* \"#utility.yul\":1739:1745   */\n      dup4\n        /* \"#utility.yul\":1734:1737   */\n      dup4\n        /* \"#utility.yul\":1730:1746   */\n      add\n        /* \"#utility.yul\":1723:1750   */\n      mstore\n        /* \"#utility.yul\":1610:1756   */\n      pop\n      pop\n      pop\n      jump\t// out\n        /* \"#utility.yul\":1762:2187   */\n    tag_56:\n        /* \"#utility.yul\":1840:1845   */\n      0x00\n        /* \"#utility.yul\":1865:1931   */\n      tag_106\n        /* \"#utility.yul\":1881:1930   */\n      tag_107\n        /* \"#utility.yul\":1923:1929   */\n      dup5\n        /* \"#utility.yul\":1881:1930   */\n      tag_54\n      jump\t// in\n    tag_107:\n        /* \"#utility.yul\":1865:1931   */\n      tag_53\n      jump\t// in\n    tag_106:\n        /* \"#utility.yul\":1856:1931   */\n      swap1\n      pop\n        /* \"#utility.yul\":1954:1960   */\n      dup3\n        /* \"#utility.yul\":1947:1952   */\n      dup2\n        /* \"#utility.yul\":1940:1961   */\n      mstore\n        /* \"#utility.yul\":1992:1996   */\n      0x20\n        /* \"#utility.yul\":1985:1990   */\n      dup2\n        /* \"#utility.yul\":1981:1997   */\n      add\n        /* \"#utility.yul\":2030:2033   */\n      dup5\n        /* \"#utility.yul\":2021:2027   */\n      dup5\n        /* \"#utility.yul\":2016:2019   */\n      dup5\n        /* \"#utility.yul\":2012:2028   */\n      add\n        /* \"#utility.yul\":2009:2034   */\n      gt\n        /* \"#utility.yul\":2006:2118   */\n      iszero\n      tag_108\n      jumpi\n        /* \"#utility.yul\":2037:2116   */\n      tag_109\n      tag_49\n      jump\t// in\n    tag_109:\n        /* \"#utility.yul\":2006:2118   */\n    tag_108:\n        /* \"#utility.yul\":2127:2181   */\n      tag_110\n        /* \"#utility.yul\":2174:2180   */\n      dup5\n        /* \"#utility.yul\":2169:2172   */\n      dup3\n        /* \"#utility.yul\":2164:2167   */\n      dup6\n        /* \"#utility.yul\":2127:2181   */\n      tag_55\n      jump\t// in\n    tag_110:\n        /* \"#utility.yul\":1846:2187   */\n      pop\n        /* \"#utility.yul\":1762:2187   */\n      swap4\n      swap3\n      pop\n      pop\n      pop\n      jump\t// out\n        /* \"#utility.yul\":2207:2547   */\n    tag_57:\n        /* \"#utility.yul\":2263:2268   */\n      0x00\n        /* \"#utility.yul\":2312:2315   */\n      dup3\n        /* \"#utility.yul\":2305:2309   */\n      0x1f\n        /* \"#utility.yul\":2297:2303   */\n      dup4\n        /* \"#utility.yul\":2293:2310   */\n      add\n        /* \"#utility.yul\":2289:2316   */\n      slt\n        /* \"#utility.yul\":2279:2401   */\n      tag_112\n      jumpi\n        /* \"#utility.yul\":2320:2399   */\n      tag_113\n      tag_48\n      jump\t// in\n    tag_113:\n        /* \"#utility.yul\":2279:2401   */\n    tag_112:\n        /* \"#utility.yul\":2437:2443   */\n      dup2\n        /* \"#utility.yul\":2424:2444   */\n      calldataload\n        /* \"#utility.yul\":2462:2541   */\n      tag_114\n        /* \"#utility.yul\":2537:2540   */\n      dup5\n        /* \"#utility.yul\":2529:2535   */\n      dup3\n        /* \"#utility.yul\":2522:2526   */\n      0x20\n        /* \"#utility.yul\":2514:2520   */\n      dup7\n        /* \"#utility.yul\":2510:2527   */\n      add\n        /* \"#utility.yul\":2462:2541   */\n      tag_56\n      jump\t// in\n    tag_114:\n        /* \"#utility.yul\":2453:2541   */\n      swap2\n      pop\n        /* \"#utility.yul\":2269:2547   */\n      pop\n        /* \"#utility.yul\":2207:2547   */\n      swap3\n      swap2\n      pop\n      pop\n      jump\t// out\n        /* \"#utility.yul\":2553:2630   */\n    tag_58:\n        /* \"#utility.yul\":2590:2597   */\n      0x00\n        /* \"#utility.yul\":2619:2624   */\n      dup2\n        /* \"#utility.yul\":2608:2624   */\n      swap1\n      pop\n        /* \"#utility.yul\":2553:2630   */\n      swap2\n      swap1\n      pop\n      jump\t// out\n        /* \"#utility.yul\":2636:2758   */\n    tag_59:\n        /* \"#utility.yul\":2709:2733   */\n      tag_117\n        /* \"#utility.yul\":2727:2732   */\n      dup2\n        /* \"#utility.yul\":2709:2733   */\n      tag_58\n      jump\t// in\n    tag_117:\n        /* \"#utility.yul\":2702:2707   */\n      dup2\n        /* \"#utility.yul\":2699:2734   */\n      eq\n        /* \"#utility.yul\":2689:2752   */\n      tag_118\n      jumpi\n        /* \"#utility.yul\":2748:2749   */\n      0x00\n        /* \"#utility.yul\":2745:2746   */\n      dup1\n        /* \"#utility.yul\":2738:2750   */\n      revert\n        /* \"#utility.yul\":2689:2752   */\n    tag_118:\n        /* \"#utility.yul\":2636:2758   */\n      pop\n      jump\t// out\n        /* \"#utility.yul\":2764:2903   */\n    tag_60:\n        /* \"#utility.yul\":2810:2815   */\n      0x00\n        /* \"#utility.yul\":2848:2854   */\n      dup2\n        /* \"#utility.yul\":2835:2855   */\n      calldataload\n        /* \"#utility.yul\":2826:2855   */\n      swap1\n      pop\n        /* \"#utility.yul\":2864:2897   */\n      tag_120\n        /* \"#utility.yul\":2891:2896   */\n      dup2\n        /* \"#utility.yul\":2864:2897   */\n      tag_59\n      jump\t// in\n    tag_120:\n        /* \"#utility.yul\":2764:2903   */\n      swap3\n      swap2\n      pop\n      pop\n      jump\t// out\n        /* \"#utility.yul\":2909:3708   */\n    tag_8:\n        /* \"#utility.yul\":2996:3002   */\n      0x00\n        /* \"#utility.yul\":3004:3010   */\n      dup1\n        /* \"#utility.yul\":3012:3018   */\n      0x00\n        /* \"#utility.yul\":3061:3063   */\n      0x60\n        /* \"#utility.yul\":3049:3058   */\n      dup5\n        /* \"#utility.yul\":3040:3047   */\n      dup7\n        /* \"#utility.yul\":3036:3059   */\n      sub\n        /* \"#utility.yul\":3032:3064   */\n      slt\n        /* \"#utility.yul\":3029:3148   */\n      iszero\n      tag_122\n      jumpi\n        /* \"#utility.yul\":3067:3146   */\n      tag_123\n      tag_46\n      jump\t// in\n    tag_123:\n        /* \"#utility.yul\":3029:3148   */\n    tag_122:\n        /* \"#utility.yul\":3215:3216   */\n      0x00\n        /* \"#utility.yul\":3204:3213   */\n      dup5\n        /* \"#utility.yul\":3200:3217   */\n      add\n        /* \"#utility.yul\":3187:3218   */\n      calldataload\n        /* \"#utility.yul\":3245:3263   */\n      0xffffffffffffffff\n        /* \"#utility.yul\":3237:3243   */\n      dup2\n        /* \"#utility.yul\":3234:3264   */\n      gt\n        /* \"#utility.yul\":3231:3348   */\n      iszero\n      tag_124\n      jumpi\n        /* \"#utility.yul\":3267:3346   */\n      tag_125\n      tag_47\n      jump\t// in\n    tag_125:\n        /* \"#utility.yul\":3231:3348   */\n    tag_124:\n        /* \"#utility.yul\":3372:3435   */\n      tag_126\n        /* \"#utility.yul\":3427:3434   */\n      dup7\n        /* \"#utility.yul\":3418:3424   */\n      dup3\n        /* \"#utility.yul\":3407:3416   */\n      dup8\n        /* \"#utility.yul\":3403:3425   */\n      add\n        /* \"#utility.yul\":3372:3435   */\n      tag_57\n      jump\t// in\n    tag_126:\n        /* \"#utility.yul\":3362:3435   */\n      swap4\n      pop\n        /* \"#utility.yul\":3158:3445   */\n      pop\n        /* \"#utility.yul\":3484:3486   */\n      0x20\n        /* \"#utility.yul\":3510:3563   */\n      tag_127\n        /* \"#utility.yul\":3555:3562   */\n      dup7\n        /* \"#utility.yul\":3546:3552   */\n      dup3\n        /* \"#utility.yul\":3535:3544   */\n      dup8\n        /* \"#utility.yul\":3531:3553   */\n      add\n        /* \"#utility.yul\":3510:3563   */\n      tag_60\n      jump\t// in\n    tag_127:\n        /* \"#utility.yul\":3500:3563   */\n      swap3\n      pop\n        /* \"#utility.yul\":3455:3573   */\n      pop\n        /* \"#utility.yul\":3612:3614   */\n      0x40\n        /* \"#utility.yul\":3638:3691   */\n      tag_128\n        /* \"#utility.yul\":3683:3690   */\n      dup7\n        /* \"#utility.yul\":3674:3680   */\n      dup3\n        /* \"#utility.yul\":3663:3672   */\n      dup8\n        /* \"#utility.yul\":3659:3681   */\n      add\n        /* \"#utility.yul\":3638:3691   */\n      tag_60\n      jump\t// in\n    tag_128:\n        /* \"#utility.yul\":3628:3691   */\n      swap2\n      pop\n        /* \"#utility.yul\":3583:3701   */\n      pop\n        /* \"#utility.yul\":2909:3708   */\n      swap3\n      pop\n      swap3\n      pop\n      swap3\n      jump\t// out\n        /* \"#utility.yul\":3714:4043   */\n    tag_12:\n        /* \"#utility.yul\":3773:3779   */\n      0x00\n        /* \"#utility.yul\":3822:3824   */\n      0x20\n        /* \"#utility.yul\":3810:3819   */\n      dup3\n        /* \"#utility.yul\":3801:3808   */\n      dup5\n        /* \"#utility.yul\":3797:3820   */\n      sub\n        /* \"#utility.yul\":3793:3825   */\n      slt\n        /* \"#utility.yul\":3790:3909   */\n      iszero\n      tag_130\n      jumpi\n        /* \"#utility.yul\":3828:3907   */\n      tag_131\n      tag_46\n      jump\t// in\n    tag_131:\n        /* \"#utility.yul\":3790:3909   */\n    tag_130:\n        /* \"#utility.yul\":3948:3949   */\n      0x00\n        /* \"#utility.yul\":3973:4026   */\n      tag_132\n        /* \"#utility.yul\":4018:4025   */\n      dup5\n        /* \"#utility.yul\":4009:4015   */\n      dup3\n        /* \"#utility.yul\":3998:4007   */\n      dup6\n        /* \"#utility.yul\":3994:4016   */\n      add\n        /* \"#utility.yul\":3973:4026   */\n      tag_60\n      jump\t// in\n    tag_132:\n        /* \"#utility.yul\":3963:4026   */\n      swap2\n      pop\n        /* \"#utility.yul\":3919:4036   */\n      pop\n        /* \"#utility.yul\":3714:4043   */\n      swap3\n      swap2\n      pop\n      pop\n      jump\t// out\n        /* \"#utility.yul\":4049:4148   */\n    tag_61:\n        /* \"#utility.yul\":4101:4107   */\n      0x00\n        /* \"#utility.yul\":4135:4140   */\n      dup2\n        /* \"#utility.yul\":4129:4141   */\n      mload\n        /* \"#utility.yul\":4119:4141   */\n      swap1\n      pop\n        /* \"#utility.yul\":4049:4148   */\n      swap2\n      swap1\n      pop\n      jump\t// out\n        /* \"#utility.yul\":4154:4313   */\n    tag_62:\n        /* \"#utility.yul\":4228:4239   */\n      0x00\n        /* \"#utility.yul\":4262:4268   */\n      dup3\n        /* \"#utility.yul\":4257:4260   */\n      dup3\n        /* \"#utility.yul\":4250:4269   */\n      mstore\n        /* \"#utility.yul\":4302:4306   */\n      0x20\n        /* \"#utility.yul\":4297:4300   */\n      dup3\n        /* \"#utility.yul\":4293:4307   */\n      add\n        /* \"#utility.yul\":4278:4307   */\n      swap1\n      pop\n        /* \"#utility.yul\":4154:4313   */\n      swap3\n      swap2\n      pop\n      pop\n      jump\t// out\n        /* \"#utility.yul\":4319:4565   */\n    tag_63:\n        /* \"#utility.yul\":4400:4401   */\n      0x00\n        /* \"#utility.yul\":4410:4523   */\n    tag_136:\n        /* \"#utility.yul\":4424:4430   */\n      dup4\n        /* \"#utility.yul\":4421:4422   */\n      dup2\n        /* \"#utility.yul\":4418:4431   */\n      lt\n        /* \"#utility.yul\":4410:4523   */\n      iszero\n      tag_138\n      jumpi\n        /* \"#utility.yul\":4509:4510   */\n      dup1\n        /* \"#utility.yul\":4504:4507   */\n      dup3\n        /* \"#utility.yul\":4500:4511   */\n      add\n        /* \"#utility.yul\":4494:4512   */\n      mload\n        /* \"#utility.yul\":4490:4491   */\n      dup2\n        /* \"#utility.yul\":4485:4488   */\n      dup5\n        /* \"#utility.yul\":4481:4492   */\n      add\n        /* \"#utility.yul\":4474:4513   */\n      mstore\n        /* \"#utility.yul\":4446:4448   */\n      0x20\n        /* \"#utility.yul\":4443:4444   */\n      dup2\n        /* \"#utility.yul\":4439:4449   */\n      add\n        /* \"#utility.yul\":4434:4449   */\n      swap1\n      pop\n        /* \"#utility.yul\":4410:4523   */\n      jump(tag_136)\n    tag_138:\n        /* \"#utility.yul\":4557:4558   */\n      0x00\n        /* \"#utility.yul\":4548:4554   */\n      dup5\n        /* \"#utility.yul\":4543:4546   */\n      dup5\n        /* \"#utility.yul\":4539:4555   */\n      add\n        /* \"#utility.yul\":4532:4559   */\n      mstore\n        /* \"#utility.yul\":4381:4565   */\n      pop\n        /* \"#utility.yul\":4319:4565   */\n      pop\n      pop\n      pop\n      jump\t// out\n        /* \"#utility.yul\":4571:4928   */\n    tag_64:\n        /* \"#utility.yul\":4649:4652   */\n      0x00\n        /* \"#utility.yul\":4677:4716   */\n      tag_140\n        /* \"#utility.yul\":4710:4715   */\n      dup3\n        /* \"#utility.yul\":4677:4716   */\n      tag_61\n      jump\t// in\n    tag_140:\n        /* \"#utility.yul\":4732:4793   */\n      tag_141\n        /* \"#utility.yul\":4786:4792   */\n      dup2\n        /* \"#utility.yul\":4781:4784   */\n      dup6\n        /* \"#utility.yul\":4732:4793   */\n      tag_62\n      jump\t// in\n    tag_141:\n        /* \"#utility.yul\":4725:4793   */\n      swap4\n      pop\n        /* \"#utility.yul\":4802:4867   */\n      tag_142\n        /* \"#utility.yul\":4860:4866   */\n      dup2\n        /* \"#utility.yul\":4855:4858   */\n      dup6\n        /* \"#utility.yul\":4848:4852   */\n      0x20\n        /* \"#utility.yul\":4841:4846   */\n      dup7\n        /* \"#utility.yul\":4837:4853   */\n      add\n        /* \"#utility.yul\":4802:4867   */\n      tag_63\n      jump\t// in\n    tag_142:\n        /* \"#utility.yul\":4892:4921   */\n      tag_143\n        /* \"#utility.yul\":4914:4920   */\n      dup2\n        /* \"#utility.yul\":4892:4921   */\n      tag_50\n      jump\t// in\n    tag_143:\n        /* \"#utility.yul\":4887:4890   */\n      dup5\n        /* \"#utility.yul\":4883:4922   */\n      add\n        /* \"#utility.yul\":4876:4922   */\n      swap2\n      pop\n        /* \"#utility.yul\":4653:4928   */\n      pop\n        /* \"#utility.yul\":4571:4928   */\n      swap3\n      swap2\n      pop\n      pop\n      jump\t// out\n        /* \"#utility.yul\":4934:5042   */\n    tag_65:\n        /* \"#utility.yul\":5011:5035   */\n      tag_145\n        /* \"#utility.yul\":5029:5034   */\n      dup2\n        /* \"#utility.yul\":5011:5035   */\n      tag_58\n      jump\t// in\n    tag_145:\n        /* \"#utility.yul\":5006:5009   */\n      dup3\n        /* \"#utility.yul\":4999:5036   */\n      mstore\n        /* \"#utility.yul\":4934:5042   */\n      pop\n      pop\n      jump\t// out\n        /* \"#utility.yul\":5102:5882   */\n    tag_66:\n        /* \"#utility.yul\":5215:5218   */\n      0x00\n        /* \"#utility.yul\":5251:5255   */\n      0x60\n        /* \"#utility.yul\":5246:5249   */\n      dup4\n        /* \"#utility.yul\":5242:5256   */\n      add\n        /* \"#utility.yul\":5338:5342   */\n      0x00\n        /* \"#utility.yul\":5331:5336   */\n      dup4\n        /* \"#utility.yul\":5327:5343   */\n      add\n        /* \"#utility.yul\":5321:5344   */\n      mload\n        /* \"#utility.yul\":5391:5394   */\n      dup5\n        /* \"#utility.yul\":5385:5389   */\n      dup3\n        /* \"#utility.yul\":5381:5395   */\n      sub\n        /* \"#utility.yul\":5374:5378   */\n      0x00\n        /* \"#utility.yul\":5369:5372   */\n      dup7\n        /* \"#utility.yul\":5365:5379   */\n      add\n        /* \"#utility.yul\":5358:5396   */\n      mstore\n        /* \"#utility.yul\":5417:5490   */\n      tag_147\n        /* \"#utility.yul\":5485:5489   */\n      dup3\n        /* \"#utility.yul\":5471:5483   */\n      dup3\n        /* \"#utility.yul\":5417:5490   */\n      tag_64\n      jump\t// in\n    tag_147:\n        /* \"#utility.yul\":5409:5490   */\n      swap2\n      pop\n        /* \"#utility.yul\":5266:5501   */\n      pop\n        /* \"#utility.yul\":5587:5591   */\n      0x20\n        /* \"#utility.yul\":5580:5585   */\n      dup4\n        /* \"#utility.yul\":5576:5592   */\n      add\n        /* \"#utility.yul\":5570:5593   */\n      mload\n        /* \"#utility.yul\":5606:5669   */\n      tag_148\n        /* \"#utility.yul\":5663:5667   */\n      0x20\n        /* \"#utility.yul\":5658:5661   */\n      dup7\n        /* \"#utility.yul\":5654:5668   */\n      add\n        /* \"#utility.yul\":5640:5652   */\n      dup3\n        /* \"#utility.yul\":5606:5669   */\n      tag_65\n      jump\t// in\n    tag_148:\n        /* \"#utility.yul\":5511:5679   */\n      pop\n        /* \"#utility.yul\":5763:5767   */\n      0x40\n        /* \"#utility.yul\":5756:5761   */\n      dup4\n        /* \"#utility.yul\":5752:5768   */\n      add\n        /* \"#utility.yul\":5746:5769   */\n      mload\n        /* \"#utility.yul\":5782:5845   */\n      tag_149\n        /* \"#utility.yul\":5839:5843   */\n      0x40\n        /* \"#utility.yul\":5834:5837   */\n      dup7\n        /* \"#utility.yul\":5830:5844   */\n      add\n        /* \"#utility.yul\":5816:5828   */\n      dup3\n        /* \"#utility.yul\":5782:5845   */\n      tag_65\n      jump\t// in\n    tag_149:\n        /* \"#utility.yul\":5689:5855   */\n      pop\n        /* \"#utility.yul\":5872:5876   */\n      dup1\n        /* \"#utility.yul\":5865:5876   */\n      swap2\n      pop\n        /* \"#utility.yul\":5220:5882   */\n      pop\n        /* \"#utility.yul\":5102:5882   */\n      swap3\n      swap2\n      pop\n      pop\n      jump\t// out\n        /* \"#utility.yul\":5888:6249   */\n    tag_15:\n        /* \"#utility.yul\":6025:6029   */\n      0x00\n        /* \"#utility.yul\":6063:6065   */\n      0x20\n        /* \"#utility.yul\":6052:6061   */\n      dup3\n        /* \"#utility.yul\":6048:6066   */\n      add\n        /* \"#utility.yul\":6040:6066   */\n      swap1\n      pop\n        /* \"#utility.yul\":6112:6121   */\n      dup2\n        /* \"#utility.yul\":6106:6110   */\n      dup2\n        /* \"#utility.yul\":6102:6122   */\n      sub\n        /* \"#utility.yul\":6098:6099   */\n      0x00\n        /* \"#utility.yul\":6087:6096   */\n      dup4\n        /* \"#utility.yul\":6083:6100   */\n      add\n        /* \"#utility.yul\":6076:6123   */\n      mstore\n        /* \"#utility.yul\":6140:6242   */\n      tag_151\n        /* \"#utility.yul\":6237:6241   */\n      dup2\n        /* \"#utility.yul\":6228:6234   */\n      dup5\n        /* \"#utility.yul\":6140:6242   */\n      tag_66\n      jump\t// in\n    tag_151:\n        /* \"#utility.yul\":6132:6242   */\n      swap1\n      pop\n        /* \"#utility.yul\":5888:6249   */\n      swap3\n      swap2\n      pop\n      pop\n      jump\t// out\n        /* \"#utility.yul\":6255:6373   */\n    tag_67:\n        /* \"#utility.yul\":6342:6366   */\n      tag_153\n        /* \"#utility.yul\":6360:6365   */\n      dup2\n        /* \"#utility.yul\":6342:6366   */\n      tag_58\n      jump\t// in\n    tag_153:\n        /* \"#utility.yul\":6337:6340   */\n      dup3\n        /* \"#utility.yul\":6330:6367   */\n      mstore\n        /* \"#utility.yul\":6255:6373   */\n      pop\n      pop\n      jump\t// out\n        /* \"#utility.yul\":6379:6601   */\n    tag_20:\n        /* \"#utility.yul\":6472:6476   */\n      0x00\n        /* \"#utility.yul\":6510:6512   */\n      0x20\n        /* \"#utility.yul\":6499:6508   */\n      dup3\n        /* \"#utility.yul\":6495:6513   */\n      add\n        /* \"#utility.yul\":6487:6513   */\n      swap1\n      pop\n        /* \"#utility.yul\":6523:6594   */\n      tag_155\n        /* \"#utility.yul\":6591:6592   */\n      0x00\n        /* \"#utility.yul\":6580:6589   */\n      dup4\n        /* \"#utility.yul\":6576:6593   */\n      add\n        /* \"#utility.yul\":6567:6573   */\n      dup5\n        /* \"#utility.yul\":6523:6594   */\n      tag_67\n      jump\t// in\n    tag_155:\n        /* \"#utility.yul\":6379:6601   */\n      swap3\n      swap2\n      pop\n      pop\n      jump\t// out\n        /* \"#utility.yul\":6607:6787   */\n    tag_68:\n        /* \"#utility.yul\":6655:6732   */\n      0x4e487b7100000000000000000000000000000000000000000000000000000000\n        /* \"#utility.yul\":6652:6653   */\n      0x00\n        /* \"#utility.yul\":6645:6733   */\n      mstore\n        /* \"#utility.yul\":6752:6756   */\n      0x22\n        /* \"#utility.yul\":6749:6750   */\n      0x04\n        /* \"#utility.yul\":6742:6757   */\n      mstore\n        /* \"#utility.yul\":6776:6780   */\n      0x24\n        /* \"#utility.yul\":6773:6774   */\n      0x00\n        /* \"#utility.yul\":6766:6781   */\n      revert\n        /* \"#utility.yul\":6793:7113   */\n    tag_35:\n        /* \"#utility.yul\":6837:6843   */\n      0x00\n        /* \"#utility.yul\":6874:6875   */\n      0x02\n        /* \"#utility.yul\":6868:6872   */\n      dup3\n        /* \"#utility.yul\":6864:6876   */\n      div\n        /* \"#utility.yul\":6854:6876   */\n      swap1\n      pop\n        /* \"#utility.yul\":6921:6922   */\n      0x01\n        /* \"#utility.yul\":6915:6919   */\n      dup3\n        /* \"#utility.yul\":6911:6923   */\n      and\n        /* \"#utility.yul\":6942:6960   */\n      dup1\n        /* \"#utility.yul\":6932:7013   */\n      tag_158\n      jumpi\n        /* \"#utility.yul\":6998:7002   */\n      0x7f\n        /* \"#utility.yul\":6990:6996   */\n      dup3\n        /* \"#utility.yul\":6986:7003   */\n      and\n        /* \"#utility.yul\":6976:7003   */\n      swap2\n      pop\n        /* \"#utility.yul\":6932:7013   */\n    tag_158:\n        /* \"#utility.yul\":7060:7062   */\n      0x20\n        /* \"#utility.yul\":7052:7058   */\n      dup3\n        /* \"#utility.yul\":7049:7063   */\n      lt\n        /* \"#utility.yul\":7029:7047   */\n      dup2\n        /* \"#utility.yul\":7026:7064   */\n      sub\n        /* \"#utility.yul\":7023:7107   */\n      tag_159\n      jumpi\n        /* \"#utility.yul\":7079:7097   */\n      tag_160\n      tag_68\n      jump\t// in\n    tag_160:\n        /* \"#utility.yul\":7023:7107   */\n    tag_159:\n        /* \"#utility.yul\":6844:7113   */\n      pop\n        /* \"#utility.yul\":6793:7113   */\n      swap2\n      swap1\n      pop\n      jump\t// out\n        /* \"#utility.yul\":7119:7260   */\n    tag_69:\n        /* \"#utility.yul\":7168:7172   */\n      0x00\n        /* \"#utility.yul\":7191:7194   */\n      dup2\n        /* \"#utility.yul\":7183:7194   */\n      swap1\n      pop\n        /* \"#utility.yul\":7214:7217   */\n      dup2\n        /* \"#utility.yul\":7211:7212   */\n      0x00\n        /* \"#utility.yul\":7204:7218   */\n      mstore\n        /* \"#utility.yul\":7248:7252   */\n      0x20\n        /* \"#utility.yul\":7245:7246   */\n      0x00\n        /* \"#utility.yul\":7235:7253   */\n      keccak256\n        /* \"#utility.yul\":7227:7253   */\n      swap1\n      pop\n        /* \"#utility.yul\":7119:7260   */\n      swap2\n      swap1\n      pop\n      jump\t// out\n        /* \"#utility.yul\":7266:7359   */\n    tag_70:\n        /* \"#utility.yul\":7303:7309   */\n      0x00\n        /* \"#utility.yul\":7350:7352   */\n      0x20\n        /* \"#utility.yul\":7345:7347   */\n      0x1f\n        /* \"#utility.yul\":7338:7343   */\n      dup4\n        /* \"#utility.yul\":7334:7348   */\n      add\n        /* \"#utility.yul\":7330:7353   */\n      div\n        /* \"#utility.yul\":7320:7353   */\n      swap1\n      pop\n        /* \"#utility.yul\":7266:7359   */\n      swap2\n      swap1\n      pop\n      jump\t// out\n        /* \"#utility.yul\":7365:7472   */\n    tag_71:\n        /* \"#utility.yul\":7409:7417   */\n      0x00\n        /* \"#utility.yul\":7459:7464   */\n      dup3\n        /* \"#utility.yul\":7453:7457   */\n      dup3\n        /* \"#utility.yul\":7449:7465   */\n      shl\n        /* \"#utility.yul\":7428:7465   */\n      swap1\n      pop\n        /* \"#utility.yul\":7365:7472   */\n      swap3\n      swap2\n      pop\n      pop\n      jump\t// out\n        /* \"#utility.yul\":7478:7871   */\n    tag_72:\n        /* \"#utility.yul\":7547:7553   */\n      0x00\n        /* \"#utility.yul\":7597:7598   */\n      0x08\n        /* \"#utility.yul\":7585:7595   */\n      dup4\n        /* \"#utility.yul\":7581:7599   */\n      mul\n        /* \"#utility.yul\":7620:7717   */\n      tag_165\n        /* \"#utility.yul\":7650:7716   */\n      0xffffffffffffffffffffffffffffffffffffffffffffffffffffffffffffffff\n        /* \"#utility.yul\":7639:7648   */\n      dup3\n        /* \"#utility.yul\":7620:7717   */\n      tag_71\n      jump\t// in\n    tag_165:\n        /* \"#utility.yul\":7738:7777   */\n      tag_166\n        /* \"#utility.yul\":7768:7776   */\n      dup7\n        /* \"#utility.yul\":7757:7766   */\n      dup4\n        /* \"#utility.yul\":7738:7777   */\n      tag_71\n      jump\t// in\n    tag_166:\n        /* \"#utility.yul\":7726:7777   */\n      swap6\n      pop\n        /* \"#utility.yul\":7810:7814   */\n      dup1\n        /* \"#utility.yul\":7806:7815   */\n      not\n        /* \"#utility.yul\":7799:7804   */\n      dup5\n        /* \"#utility.yul\":7795:7816   */\n      and\n        /* \"#utility.yul\":7786:7816   */\n      swap4\n      pop\n        /* \"#utility.yul\":7859:7863   */\n      dup1\n        /* \"#utility.yul\":7849:7857   */\n      dup7\n        /* \"#utility.yul\":7845:7864   */\n      and\n        /* \"#utility.yul\":7838:7843   */\n      dup5\n        /* \"#utility.yul\":7835:7865   */\n      or\n        /* \"#utility.yul\":7825:7865   */\n      swap3\n      pop\n        /* \"#utility.yul\":7554:7871   */\n      pop\n      pop\n        /* \"#utility.yul\":7478:7871   */\n      swap4\n      swap3\n      pop\n      pop\n      pop\n      jump\t// out\n        /* \"#utility.yul\":7877:7937   */\n    tag_73:\n        /* \"#utility.yul\":7905:7908   */\n      0x00\n        /* \"#utility.yul\":7926:7931   */\n      dup2\n        /* \"#utility.yul\":7919:7931   */\n      swap1\n      pop\n        /* \"#utility.yul\":7877:7937   */\n      swap2\n      swap1\n      pop\n      jump\t// out\n        /* \"#utility.yul\":7943:8085   */\n    tag_74:\n        /* \"#utility.yul\":7993:8002   */\n      0x00\n        /* \"#utility.yul\":8026:8079   */\n      tag_169\n        /* \"#utility.yul\":8044:8078   */\n      tag_170\n        /* \"#utility.yul\":8053:8077   */\n      tag_171\n        /* \"#utility.yul\":8071:8076   */\n      dup5\n        /* \"#utility.yul\":8053:8077   */\n      tag_58\n      jump\t// in\n    tag_171:\n        /* \"#utility.yul\":8044:8078   */\n      tag_73\n      jump\t// in\n    tag_170:\n        /* \"#utility.yul\":8026:8079   */\n      tag_58\n      jump\t// in\n    tag_169:\n        /* \"#utility.yul\":8013:8079   */\n      swap1\n      pop\n        /* \"#utility.yul\":7943:8085   */\n      swap2\n      swap1\n      pop\n      jump\t// out\n        /* \"#utility.yul\":8091:8166   */\n    tag_75:\n        /* \"#utility.yul\":8134:8137   */\n      0x00\n        /* \"#utility.yul\":8155:8160   */\n      dup2\n        /* \"#utility.yul\":8148:8160   */\n      swap1\n      pop\n        /* \"#utility.yul\":8091:8166   */\n      swap2\n      swap1\n      pop\n      jump\t// out\n        /* \"#utility.yul\":8172:8441   */\n    tag_76:\n        /* \"#utility.yul\":8282:8321   */\n      tag_174\n        /* \"#utility.yul\":8313:8320   */\n      dup4\n        /* \"#utility.yul\":8282:8321   */\n      tag_74\n      jump\t// in\n    tag_174:\n        /* \"#utility.yul\":8343:8434   */\n      tag_175\n        /* \"#utility.yul\":8392:8433   */\n      tag_176\n        /* \"#utility.yul\":8416:8432   */\n      dup3\n        /* \"#utility.yul\":8392:8433   */\n      tag_75\n      jump\t// in\n    tag_176:\n        /* \"#utility.yul\":8384:8390   */\n      dup5\n        /* \"#utility.yul\":8377:8381   */\n      dup5\n        /* \"#utility.yul\":8371:8382   */\n      sload\n        /* \"#utility.yul\":8343:8434   */\n      tag_72\n      jump\t// in\n    tag_175:\n        /* \"#utility.yul\":8337:8341   */\n      dup3\n        /* \"#utility.yul\":8330:8435   */\n      sstore\n        /* \"#utility.yul\":8248:8441   */\n      pop\n        /* \"#utility.yul\":8172:8441   */\n      pop\n      pop\n      pop\n      jump\t// out\n        /* \"#utility.yul\":8447:8520   */\n    tag_77:\n        /* \"#utility.yul\":8492:8495   */\n      0x00\n        /* \"#utility.yul\":8447:8520   */\n      swap1\n      jump\t// out\n        /* \"#utility.yul\":8526:8715   */\n    tag_78:\n        /* \"#utility.yul\":8603:8635   */\n      tag_179\n      tag_77\n      jump\t// in\n    tag_179:\n        /* \"#utility.yul\":8644:8709   */\n      tag_180\n        /* \"#utility.yul\":8702:8708   */\n      dup2\n        /* \"#utility.yul\":8694:8700   */\n      dup5\n        /* \"#utility.yul\":8688:8692   */\n      dup5\n        /* \"#utility.yul\":8644:8709   */\n      tag_76\n      jump\t// in\n    tag_180:\n        /* \"#utility.yul\":8579:8715   */\n      pop\n        /* \"#utility.yul\":8526:8715   */\n      pop\n      pop\n      jump\t// out\n        /* \"#utility.yul\":8721:8907   */\n    tag_79:\n        /* \"#utility.yul\":8781:8901   */\n    tag_182:\n        /* \"#utility.yul\":8798:8801   */\n      dup2\n        /* \"#utility.yul\":8791:8796   */\n      dup2\n        /* \"#utility.yul\":8788:8802   */\n      lt\n        /* \"#utility.yul\":8781:8901   */\n      iszero\n      tag_184\n      jumpi\n        /* \"#utility.yul\":8852:8891   */\n      tag_185\n        /* \"#utility.yul\":8889:8890   */\n      0x00\n        /* \"#utility.yul\":8882:8887   */\n      dup3\n        /* \"#utility.yul\":8852:8891   */\n      tag_78\n      jump\t// in\n    tag_185:\n        /* \"#utility.yul\":8825:8826   */\n      0x01\n        /* \"#utility.yul\":8818:8823   */\n      dup2\n        /* \"#utility.yul\":8814:8827   */\n      add\n        /* \"#utility.yul\":8805:8827   */\n      swap1\n      pop\n        /* \"#utility.yul\":8781:8901   */\n      jump(tag_182)\n    tag_184:\n        /* \"#utility.yul\":8721:8907   */\n      pop\n      pop\n      jump\t// out\n        /* \"#utility.yul\":8913:9456   */\n    tag_80:\n        /* \"#utility.yul\":9014:9016   */\n      0x1f\n        /* \"#utility.yul\":9009:9012   */\n      dup3\n        /* \"#utility.yul\":9006:9017   */\n      gt\n        /* \"#utility.yul\":9003:9449   */\n      iszero\n      tag_187\n      jumpi\n        /* \"#utility.yul\":9048:9086   */\n      tag_188\n        /* \"#utility.yul\":9080:9085   */\n      dup2\n        /* \"#utility.yul\":9048:9086   */\n      tag_69\n      jump\t// in\n    tag_188:\n        /* \"#utility.yul\":9132:9161   */\n      tag_189\n        /* \"#utility.yul\":9150:9160   */\n      dup5\n        /* \"#utility.yul\":9132:9161   */\n      tag_70\n      jump\t// in\n    tag_189:\n        /* \"#utility.yul\":9122:9130   */\n      dup2\n        /* \"#utility.yul\":9118:9162   */\n      add\n        /* \"#utility.yul\":9315:9317   */\n      0x20\n        /* \"#utility.yul\":9303:9313   */\n      dup6\n        /* \"#utility.yul\":9300:9318   */\n      lt\n        /* \"#utility.yul\":9297:9346   */\n      iszero\n      tag_190\n      jumpi\n        /* \"#utility.yul\":9336:9344   */\n      dup2\n        /* \"#utility.yul\":9321:9344   */\n      swap1\n      pop\n        /* \"#utility.yul\":9297:9346   */\n    tag_190:\n        /* \"#utility.yul\":9359:9439   */\n      tag_191\n        /* \"#utility.yul\":9415:9437   */\n      tag_192\n        /* \"#utility.yul\":9433:9436   */\n      dup6\n        /* \"#utility.yul\":9415:9437   */\n      tag_70\n      jump\t// in\n    tag_192:\n        /* \"#utility.yul\":9405:9413   */\n      dup4\n        /* \"#utility.yul\":9401:9438   */\n      add\n        /* \"#utility.yul\":9388:9399   */\n      dup3\n        /* \"#utility.yul\":9359:9439   */\n      tag_79\n      jump\t// in\n    tag_191:\n        /* \"#utility.yul\":9018:9449   */\n      pop\n      pop\n        /* \"#utility.yul\":9003:9449   */\n    tag_187:\n        /* \"#utility.yul\":8913:9456   */\n      pop\n      pop\n      pop\n      jump\t// out\n        /* \"#utility.yul\":9462:9579   */\n    tag_81:\n        /* \"#utility.yul\":9516:9524   */\n      0x00\n        /* \"#utility.yul\":9566:9571   */\n      dup3\n        /* \"#utility.yul\":9560:9564   */\n      dup3\n        /* \"#utility.yul\":9556:9572   */\n      shr\n        /* \"#utility.yul\":9535:9572   */\n      swap1\n      pop\n        /* \"#utility.yul\":9462:9579   */\n      swap3\n      swap2\n      pop\n      pop\n      jump\t// out\n        /* \"#utility.yul\":9585:9754   */\n    tag_82:\n        /* \"#utility.yul\":9629:9635   */\n      0x00\n        /* \"#utility.yul\":9662:9713   */\n      tag_195\n        /* \"#utility.yul\":9710:9711   */\n      0x00\n        /* \"#utility.yul\":9706:9712   */\n      not\n        /* \"#utility.yul\":9698:9703   */\n      dup5\n        /* \"#utility.yul\":9695:9696   */\n      0x08\n        /* \"#utility.yul\":9691:9704   */\n      mul\n        /* \"#utility.yul\":9662:9713   */\n      tag_81\n      jump\t// in\n    tag_195:\n        /* \"#utility.yul\":9658:9714   */\n      not\n        /* \"#utility.yul\":9743:9747   */\n      dup1\n        /* \"#utility.yul\":9737:9741   */\n      dup4\n        /* \"#utility.yul\":9733:9748   */\n      and\n        /* \"#utility.yul\":9723:9748   */\n      swap2\n      pop\n        /* \"#utility.yul\":9636:9754   */\n      pop\n        /* \"#utility.yul\":9585:9754   */\n      swap3\n      swap2\n      pop\n      pop\n      jump\t// out\n        /* \"#utility.yul\":9759:10054   */\n    tag_83:\n        /* \"#utility.yul\":9835:9839   */\n      0x00\n        /* \"#utility.yul\":9981:10010   */\n      tag_197\n        /* \"#utility.yul\":10006:10009   */\n      dup4\n        /* \"#utility.yul\":10000:10004   */\n      dup4\n        /* \"#utility.yul\":9981:10010   */\n      tag_82\n      jump\t// in\n    tag_197:\n        /* \"#utility.yul\":9973:10010   */\n      swap2\n      pop\n        /* \"#utility.yul\":10043:10046   */\n      dup3\n        /* \"#utility.yul\":10040:10041   */\n      0x02\n        /* \"#utility.yul\":10036:10047   */\n      mul\n        /* \"#utility.yul\":10030:10034   */\n      dup3\n        /* \"#utility.yul\":10027:10048   */\n      or\n        /* \"#utility.yul\":10019:10048   */\n      swap1\n      pop\n        /* \"#utility.yul\":9759:10054   */\n      swap3\n      swap2\n      pop\n      pop\n      jump\t// out\n        /* \"#utility.yul\":10059:11454   */\n    tag_24:\n        /* \"#utility.yul\":10176:10213   */\n      tag_199\n        /* \"#utility.yul\":10209:10212   */\n      dup3\n        /* \"#utility.yul\":10176:10213   */\n      tag_61\n      jump\t// in\n    tag_199:\n        /* \"#utility.yul\":10278:10296   */\n      0xffffffffffffffff\n        /* \"#utility.yul\":10270:10276   */\n      dup2\n        /* \"#utility.yul\":10267:10297   */\n      gt\n        /* \"#utility.yul\":10264:10320   */\n      iszero\n      tag_200\n      jumpi\n        /* \"#utility.yul\":10300:10318   */\n      tag_201\n      tag_51\n      jump\t// in\n    tag_201:\n        /* \"#utility.yul\":10264:10320   */\n    tag_200:\n        /* \"#utility.yul\":10344:10382   */\n      tag_202\n        /* \"#utility.yul\":10376:10380   */\n      dup3\n        /* \"#utility.yul\":10370:10381   */\n      sload\n        /* \"#utility.yul\":10344:10382   */\n      tag_35\n      jump\t// in\n    tag_202:\n        /* \"#utility.yul\":10429:10496   */\n      tag_203\n        /* \"#utility.yul\":10489:10495   */\n      dup3\n        /* \"#utility.yul\":10481:10487   */\n      dup3\n        /* \"#utility.yul\":10475:10479   */\n      dup6\n        /* \"#utility.yul\":10429:10496   */\n      tag_80\n      jump\t// in\n    tag_203:\n        /* \"#utility.yul\":10523:10524   */\n      0x00\n        /* \"#utility.yul\":10547:10551   */\n      0x20\n        /* \"#utility.yul\":10534:10551   */\n      swap1\n      pop\n        /* \"#utility.yul\":10579:10581   */\n      0x1f\n        /* \"#utility.yul\":10571:10577   */\n      dup4\n        /* \"#utility.yul\":10568:10582   */\n      gt\n        /* \"#utility.yul\":10596:10597   */\n      0x01\n        /* \"#utility.yul\":10591:11209   */\n      dup2\n      eq\n      tag_205\n      jumpi\n        /* \"#utility.yul\":11253:11254   */\n      0x00\n        /* \"#utility.yul\":11270:11276   */\n      dup5\n        /* \"#utility.yul\":11267:11344   */\n      iszero\n      tag_206\n      jumpi\n        /* \"#utility.yul\":11319:11328   */\n      dup3\n        /* \"#utility.yul\":11314:11317   */\n      dup8\n        /* \"#utility.yul\":11310:11329   */\n      add\n        /* \"#utility.yul\":11304:11330   */\n      mload\n        /* \"#utility.yul\":11295:11330   */\n      swap1\n      pop\n        /* \"#utility.yul\":11267:11344   */\n    tag_206:\n        /* \"#utility.yul\":11370:11437   */\n      tag_207\n        /* \"#utility.yul\":11430:11436   */\n      dup6\n        /* \"#utility.yul\":11423:11428   */\n      dup3\n        /* \"#utility.yul\":11370:11437   */\n      tag_83\n      jump\t// in\n    tag_207:\n        /* \"#utility.yul\":11364:11368   */\n      dup7\n        /* \"#utility.yul\":11357:11438   */\n      sstore\n        /* \"#utility.yul\":11226:11448   */\n      pop\n        /* \"#utility.yul\":10561:11448   */\n      jump(tag_204)\n        /* \"#utility.yul\":10591:11209   */\n    tag_205:\n        /* \"#utility.yul\":10643:10647   */\n      0x1f\n        /* \"#utility.yul\":10639:10648   */\n      not\n        /* \"#utility.yul\":10631:10637   */\n      dup5\n        /* \"#utility.yul\":10627:10649   */\n      and\n        /* \"#utility.yul\":10677:10714   */\n      tag_208\n        /* \"#utility.yul\":10709:10713   */\n      dup7\n        /* \"#utility.yul\":10677:10714   */\n      tag_69\n      jump\t// in\n    tag_208:\n        /* \"#utility.yul\":10736:10737   */\n      0x00\n        /* \"#utility.yul\":10750:10958   */\n    tag_209:\n        /* \"#utility.yul\":10764:10771   */\n      dup3\n        /* \"#utility.yul\":10761:10762   */\n      dup2\n        /* \"#utility.yul\":10758:10772   */\n      lt\n        /* \"#utility.yul\":10750:10958   */\n      iszero\n      tag_211\n      jumpi\n        /* \"#utility.yul\":10843:10852   */\n      dup5\n        /* \"#utility.yul\":10838:10841   */\n      dup10\n        /* \"#utility.yul\":10834:10853   */\n      add\n        /* \"#utility.yul\":10828:10854   */\n      mload\n        /* \"#utility.yul\":10820:10826   */\n      dup3\n        /* \"#utility.yul\":10813:10855   */\n      sstore\n        /* \"#utility.yul\":10894:10895   */\n      0x01\n        /* \"#utility.yul\":10886:10892   */\n      dup3\n        /* \"#utility.yul\":10882:10896   */\n      add\n        /* \"#utility.yul\":10872:10896   */\n      swap2\n      pop\n        /* \"#utility.yul\":10941:10943   */\n      0x20\n        /* \"#utility.yul\":10930:10939   */\n      dup6\n        /* \"#utility.yul\":10926:10944   */\n      add\n        /* \"#utility.yul\":10913:10944   */\n      swap5\n      pop\n        /* \"#utility.yul\":10787:10791   */\n      0x20\n        /* \"#utility.yul\":10784:10785   */\n      dup2\n        /* \"#utility.yul\":10780:10792   */\n      add\n        /* \"#utility.yul\":10775:10792   */\n      swap1\n      pop\n        /* \"#utility.yul\":10750:10958   */\n      jump(tag_209)\n    tag_211:\n        /* \"#utility.yul\":10986:10992   */\n      dup7\n        /* \"#utility.yul\":10977:10984   */\n      dup4\n        /* \"#utility.yul\":10974:10993   */\n      lt\n        /* \"#utility.yul\":10971:11150   */\n      iszero\n      tag_212\n      jumpi\n        /* \"#utility.yul\":11044:11053   */\n      dup5\n        /* \"#utility.yul\":11039:11042   */\n      dup10\n        /* \"#utility.yul\":11035:11054   */\n      add\n        /* \"#utility.yul\":11029:11055   */\n      mload\n        /* \"#utility.yul\":11087:11135   */\n      tag_213\n        /* \"#utility.yul\":11129:11133   */\n      0x1f\n        /* \"#utility.yul\":11121:11127   */\n      dup10\n        /* \"#utility.yul\":11117:11134   */\n      and\n        /* \"#utility.yul\":11106:11115   */\n      dup3\n        /* \"#utility.yul\":11087:11135   */\n      tag_82\n      jump\t// in\n    tag_213:\n        /* \"#utility.yul\":11079:11085   */\n      dup4\n        /* \"#utility.yul\":11072:11136   */\n      sstore\n        /* \"#utility.yul\":10994:11150   */\n      pop\n        /* \"#utility.yul\":10971:11150   */\n    tag_212:\n        /* \"#utility.yul\":11196:11197   */\n      0x01\n        /* \"#utility.yul\":11192:11193   */\n      0x02\n        /* \"#utility.yul\":11184:11190   */\n      dup9\n        /* \"#utility.yul\":11180:11194   */\n      mul\n        /* \"#utility.yul\":11176:11198   */\n      add\n        /* \"#utility.yul\":11170:11174   */\n      dup9\n        /* \"#utility.yul\":11163:11199   */\n      sstore\n        /* \"#utility.yul\":10598:11209   */\n      pop\n      pop\n      pop\n        /* \"#utility.yul\":10561:11448   */\n    tag_204:\n      pop\n        /* \"#utility.yul\":10151:11454   */\n      pop\n      pop\n      pop\n        /* \"#utility.yul\":10059:11454   */\n      pop\n      pop\n      jump\t// out\n        /* \"#utility.yul\":11460:11640   */\n    tag_84:\n        /* \"#utility.yul\":11508:11585   */\n      0x4e487b7100000000000000000000000000000000000000000000000000000000\n        /* \"#utility.yul\":11505:11506   */\n      0x00\n        /* \"#utility.yul\":11498:11586   */\n      mstore\n        /* \"#utility.yul\":11605:11609   */\n      0x11\n        /* \"#utility.yul\":11602:11603   */\n      0x04\n        /* \"#utility.yul\":11595:11610   */\n      mstore\n        /* \"#utility.yul\":11629:11633   */\n      0x24\n        /* \"#utility.yul\":11626:11627   */\n      0x00\n        /* \"#utility.yul\":11619:11634   */\n      revert\n        /* \"#utility.yul\":11646:11840   */\n    tag_29:\n        /* \"#utility.yul\":11686:11690   */\n      0x00\n        /* \"#utility.yul\":11706:11726   */\n      tag_216\n        /* \"#utility.yul\":11724:11725   */\n      dup3\n        /* \"#utility.yul\":11706:11726   */\n      tag_58\n      jump\t// in\n    tag_216:\n        /* \"#utility.yul\":11701:11726   */\n      swap2\n      pop\n        /* \"#utility.yul\":11740:11760   */\n      tag_217\n        /* \"#utility.yul\":11758:11759   */\n      dup4\n        /* \"#utility.yul\":11740:11760   */\n      tag_58\n      jump\t// in\n    tag_217:\n        /* \"#utility.yul\":11735:11760   */\n      swap3\n      pop\n        /* \"#utility.yul\":11784:11785   */\n      dup3\n        /* \"#utility.yul\":11781:11782   */\n      dup3\n        /* \"#utility.yul\":11777:11786   */\n      sub\n        /* \"#utility.yul\":11769:11786   */\n      swap1\n      pop\n        /* \"#utility.yul\":11808:11809   */\n      dup2\n        /* \"#utility.yul\":11802:11806   */\n      dup2\n        /* \"#utility.yul\":11799:11810   */\n      gt\n        /* \"#utility.yul\":11796:11833   */\n      iszero\n      tag_218\n      jumpi\n        /* \"#utility.yul\":11813:11831   */\n      tag_219\n      tag_84\n      jump\t// in\n    tag_219:\n        /* \"#utility.yul\":11796:11833   */\n    tag_218:\n        /* \"#utility.yul\":11646:11840   */\n      swap3\n      swap2\n      pop\n      pop\n      jump\t// out\n        /* \"#utility.yul\":11846:12026   */\n    tag_32:\n        /* \"#utility.yul\":11894:11971   */\n      0x4e487b7100000000000000000000000000000000000000000000000000000000\n        /* \"#utility.yul\":11891:11892   */\n      0x00\n        /* \"#utility.yul\":11884:11972   */\n      mstore\n        /* \"#utility.yul\":11991:11995   */\n      0x32\n        /* \"#utility.yul\":11988:11989   */\n      0x04\n        /* \"#utility.yul\":11981:11996   */\n      mstore\n        /* \"#utility.yul\":12015:12019   */\n      0x24\n        /* \"#utility.yul\":12012:12013   */\n      0x00\n        /* \"#utility.yul\":12005:12020   */\n      revert\n\n    auxdata: 0xa264697066735822122079031a838a3e6431fc2b5897b633d3df1f913bdb88e41cb50a8a6da3e9073aa364736f6c63430008120033\n}\n",
				"bytecode": {
					"linkReferences": {},
					"object": "608060405234801561001057600080fd5b5061097e806100206000396000f3fe608060405234801561001057600080fd5b50600436106100415760003560e01c8063562ca54314610046578063642f916314610062578063c8d2524c14610092575b600080fd5b610060600480360381019061005b9190610412565b6100c2565b005b61007c60048036038101906100779190610481565b610139565b604051610089919061058c565b60405180910390f35b6100ac60048036038101906100a79190610481565b610227565b6040516100b991906105bd565b60405180910390f35b60006040518060600160405280858152602001848152602001838152509080600181540180825580915050600190039060005260206000209060030201600090919091909150600082015181600001908161011d91906107e4565b5060208201518160010155604082015181600201555050505050565b610141610261565b600060018361015091906108e5565b8154811061016157610160610919565b5b906000526020600020906003020160405180606001604052908160008201805461018a90610607565b80601f01602080910402602001604051908101604052809291908181526020018280546101b690610607565b80156102035780601f106101d857610100808354040283529160200191610203565b820191906000526020600020905b8154815290600101906020018083116101e657829003601f168201915b50505050508152602001600182015481526020016002820154815250509050919050565b60008060018361023791906108e5565b8154811061024857610247610919565b5b9060005260206000209060030201600101549050919050565b60405180606001604052806060815260200160008152602001600081525090565b6000604051905090565b600080fd5b600080fd5b600080fd5b600080fd5b6000601f19601f8301169050919050565b7f4e487b7100000000000000000000000000000000000000000000000000000000600052604160045260246000fd5b6102e9826102a0565b810181811067ffffffffffffffff82111715610308576103076102b1565b5b80604052505050565b600061031b610282565b905061032782826102e0565b919050565b600067ffffffffffffffff821115610347576103466102b1565b5b610350826102a0565b9050602081019050919050565b82818337600083830152505050565b600061037f61037a8461032c565b610311565b90508281526020810184848401111561039b5761039a61029b565b5b6103a684828561035d565b509392505050565b600082601f8301126103c3576103c2610296565b5b81356103d384826020860161036c565b91505092915050565b6000819050919050565b6103ef816103dc565b81146103fa57600080fd5b50565b60008135905061040c816103e6565b92915050565b60008060006060848603121561042b5761042a61028c565b5b600084013567ffffffffffffffff81111561044957610448610291565b5b610455868287016103ae565b9350506020610466868287016103fd565b9250506040610477868287016103fd565b9150509250925092565b6000602082840312156104975761049661028c565b5b60006104a5848285016103fd565b91505092915050565b600081519050919050565b600082825260208201905092915050565b60005b838110156104e85780820151818401526020810190506104cd565b60008484015250505050565b60006104ff826104ae565b61050981856104b9565b93506105198185602086016104ca565b610522816102a0565b840191505092915050565b610536816103dc565b82525050565b6000606083016000830151848203600086015261055982826104f4565b915050602083015161056e602086018261052d565b506040830151610581604086018261052d565b508091505092915050565b600060208201905081810360008301526105a6818461053c565b905092915050565b6105b7816103dc565b82525050565b60006020820190506105d260008301846105ae565b92915050565b7f4e487b7100000000000000000000000000000000000000000000000000000000600052602260045260246000fd5b6000600282049050600182168061061f57607f821691505b602082108103610632576106316105d8565b5b50919050565b60008190508160005260206000209050919050565b60006020601f8301049050919050565b600082821b905092915050565b60006008830261069a7fffffffffffffffffffffffffffffffffffffffffffffffffffffffffffffffff8261065d565b6106a4868361065d565b95508019841693508086168417925050509392505050565b6000819050919050565b60006106e16106dc6106d7846103dc565b6106bc565b6103dc565b9050919050565b6000819050919050565b6106fb836106c6565b61070f610707826106e8565b84845461066a565b825550505050565b600090565b610724610717565b61072f8184846106f2565b505050565b5b818110156107535761074860008261071c565b600181019050610735565b5050565b601f8211156107985761076981610638565b6107728461064d565b81016020851015610781578190505b61079561078d8561064d565b830182610734565b50505b505050565b600082821c905092915050565b60006107bb6000198460080261079d565b1980831691505092915050565b60006107d483836107aa565b9150826002028217905092915050565b6107ed826104ae565b67ffffffffffffffff811115610806576108056102b1565b5b6108108254610607565b61081b828285610757565b600060209050601f83116001811461084e576000841561083c578287015190505b61084685826107c8565b8655506108ae565b601f19841661085c86610638565b60005b828110156108845784890151825560018201915060208501945060208101905061085f565b868310156108a1578489015161089d601f8916826107aa565b8355505b6001600288020188555050505b505050505050565b7f4e487b7100000000000000000000000000000000000000000000000000000000600052601160045260246000fd5b60006108f0826103dc565b91506108fb836103dc565b9250828203905081811115610913576109126108b6565b5b92915050565b7f4e487b7100000000000000000000000000000000000000000000000000000000600052603260045260246000fdfea264697066735822122079031a838a3e6431fc2b5897b633d3df1f913bdb88e41cb50a8a6da3e9073aa364736f6c63430008120033",
					"opcodes": "PUSH1 0x80 PUSH1 0x40 MSTORE CALLVALUE DUP1 ISZERO PUSH2 0x10 JUMPI PUSH1 0x0 DUP1 REVERT JUMPDEST POP PUSH2 0x97E DUP1 PUSH2 0x20 PUSH1 0x0 CODECOPY PUSH1 0x0 RETURN INVALID PUSH1 0x80 PUSH1 0x40 MSTORE CALLVALUE DUP1 ISZERO PUSH2 0x10 JUMPI PUSH1 0x0 DUP1 REVERT JUMPDEST POP PUSH1 0x4 CALLDATASIZE LT PUSH2 0x41 JUMPI PUSH1 0x0 CALLDATALOAD PUSH1 0xE0 SHR DUP1 PUSH4 0x562CA543 EQ PUSH2 0x46 JUMPI DUP1 PUSH4 0x642F9163 EQ PUSH2 0x62 JUMPI DUP1 PUSH4 0xC8D2524C EQ PUSH2 0x92 JUMPI JUMPDEST PUSH1 0x0 DUP1 REVERT JUMPDEST PUSH2 0x60 PUSH1 0x4 DUP1 CALLDATASIZE SUB DUP2 ADD SWAP1 PUSH2 0x5B SWAP2 SWAP1 PUSH2 0x412 JUMP JUMPDEST PUSH2 0xC2 JUMP JUMPDEST STOP JUMPDEST PUSH2 0x7C PUSH1 0x4 DUP1 CALLDATASIZE SUB DUP2 ADD SWAP1 PUSH2 0x77 SWAP2 SWAP1 PUSH2 0x481 JUMP JUMPDEST PUSH2 0x139 JUMP JUMPDEST PUSH1 0x40 MLOAD PUSH2 0x89 SWAP2 SWAP1 PUSH2 0x58C JUMP JUMPDEST PUSH1 0x40 MLOAD DUP1 SWAP2 SUB SWAP1 RETURN JUMPDEST PUSH2 0xAC PUSH1 0x4 DUP1 CALLDATASIZE SUB DUP2 ADD SWAP1 PUSH2 0xA7 SWAP2 SWAP1 PUSH2 0x481 JUMP JUMPDEST PUSH2 0x227 JUMP JUMPDEST PUSH1 0x40 MLOAD PUSH2 0xB9 SWAP2 SWAP1 PUSH2 0x5BD JUMP JUMPDEST PUSH1 0x40 MLOAD DUP1 SWAP2 SUB SWAP1 RETURN JUMPDEST PUSH1 0x0 PUSH1 0x40 MLOAD DUP1 PUSH1 0x60 ADD PUSH1 0x40 MSTORE DUP1 DUP6 DUP2 MSTORE PUSH1 0x20 ADD DUP5 DUP2 MSTORE PUSH1 0x20 ADD DUP4 DUP2 MSTORE POP SWAP1 DUP1 PUSH1 0x1 DUP2 SLOAD ADD DUP1 DUP3 SSTORE DUP1 SWAP2 POP POP PUSH1 0x1 SWAP1 SUB SWAP1 PUSH1 0x0 MSTORE PUSH1 0x20 PUSH1 0x0 KECCAK256 SWAP1 PUSH1 0x3 MUL ADD PUSH1 0x0 SWAP1 SWAP2 SWAP1 SWAP2 SWAP1 SWAP2 POP PUSH1 0x0 DUP3 ADD MLOAD DUP2 PUSH1 0x0 ADD SWAP1 DUP2 PUSH2 0x11D SWAP2 SWAP1 PUSH2 0x7E4 JUMP JUMPDEST POP PUSH1 0x20 DUP3 ADD MLOAD DUP2 PUSH1 0x1 ADD SSTORE PUSH1 0x40 DUP3 ADD MLOAD DUP2 PUSH1 0x2 ADD SSTORE POP POP POP POP POP JUMP JUMPDEST PUSH2 0x141 PUSH2 0x261 JUMP JUMPDEST PUSH1 0x0 PUSH1 0x1 DUP4 PUSH2 0x150 SWAP2 SWAP1 PUSH2 0x8E5 JUMP JUMPDEST DUP2 SLOAD DUP2 LT PUSH2 0x161 JUMPI PUSH2 0x160 PUSH2 0x919 JUMP JUMPDEST JUMPDEST SWAP1 PUSH1 0x0 MSTORE PUSH1 0x20 PUSH1 0x0 KECCAK256 SWAP1 PUSH1 0x3 MUL ADD PUSH1 0x40 MLOAD DUP1 PUSH1 0x60 ADD PUSH1 0x40 MSTORE SWAP1 DUP2 PUSH1 0x0 DUP3 ADD DUP1 SLOAD PUSH2 0x18A SWAP1 PUSH2 0x607 JUMP JUMPDEST DUP1 PUSH1 0x1F ADD PUSH1 0x20 DUP1 SWAP2 DIV MUL PUSH1 0x20 ADD PUSH1 0x40 MLOAD SWAP1 DUP2 ADD PUSH1 0x40 MSTORE DUP1 SWAP3 SWAP2 SWAP1 DUP2 DUP2 MSTORE PUSH1 0x20 ADD DUP3 DUP1 SLOAD PUSH2 0x1B6 SWAP1 PUSH2 0x607 JUMP JUMPDEST DUP1 ISZERO PUSH2 0x203 JUMPI DUP1 PUSH1 0x1F LT PUSH2 0x1D8 JUMPI PUSH2 0x100 DUP1 DUP4 SLOAD DIV MUL DUP4 MSTORE SWAP2 PUSH1 0x20 ADD SWAP2 PUSH2 0x203 JUMP JUMPDEST DUP3 ADD SWAP2 SWAP1 PUSH1 0x0 MSTORE PUSH1 0x20 PUSH1 0x0 KECCAK256 SWAP1 JUMPDEST DUP2 SLOAD DUP2 MSTORE SWAP1 PUSH1 0x1 ADD SWAP1 PUSH1 0x20 ADD DUP1 DUP4 GT PUSH2 0x1E6 JUMPI DUP3 SWAP1 SUB PUSH1 0x1F AND DUP3 ADD SWAP2 JUMPDEST POP POP POP POP POP DUP2 MSTORE PUSH1 0x20 ADD PUSH1 0x1 DUP3 ADD SLOAD DUP2 MSTORE PUSH1 0x20 ADD PUSH1 0x2 DUP3 ADD SLOAD DUP2 MSTORE POP POP SWAP1 POP SWAP2 SWAP1 POP JUMP JUMPDEST PUSH1 0x0 DUP1 PUSH1 0x1 DUP4 PUSH2 0x237 SWAP2 SWAP1 PUSH2 0x8E5 JUMP JUMPDEST DUP2 SLOAD DUP2 LT PUSH2 0x248 JUMPI PUSH2 0x247 PUSH2 0x919 JUMP JUMPDEST JUMPDEST SWAP1 PUSH1 0x0 MSTORE PUSH1 0x20 PUSH1 0x0 KECCAK256 SWAP1 PUSH1 0x3 MUL ADD PUSH1 0x1 ADD SLOAD SWAP1 POP SWAP2 SWAP1 POP JUMP JUMPDEST PUSH1 0x40 MLOAD DUP1 PUSH1 0x60 ADD PUSH1 0x40 MSTORE DUP1 PUSH1 0x60 DUP2 MSTORE PUSH1 0x20 ADD PUSH1 0x0 DUP2 MSTORE PUSH1 0x20 ADD PUSH1 0x0 DUP2 MSTORE POP SWAP1 JUMP JUMPDEST PUSH1 0x0 PUSH1 0x40 MLOAD SWAP1 POP SWAP1 JUMP JUMPDEST PUSH1 0x0 DUP1 REVERT JUMPDEST PUSH1 0x0 DUP1 REVERT JUMPDEST PUSH1 0x0 DUP1 REVERT JUMPDEST PUSH1 0x0 DUP1 REVERT JUMPDEST PUSH1 0x0 PUSH1 0x1F NOT PUSH1 0x1F DUP4 ADD AND SWAP1 POP SWAP2 SWAP1 POP JUMP JUMPDEST PUSH32 0x4E487B7100000000000000000000000000000000000000000000000000000000 PUSH1 0x0 MSTORE PUSH1 0x41 PUSH1 0x4 MSTORE PUSH1 0x24 PUSH1 0x0 REVERT JUMPDEST PUSH2 0x2E9 DUP3 PUSH2 0x2A0 JUMP JUMPDEST DUP2 ADD DUP2 DUP2 LT PUSH8 0xFFFFFFFFFFFFFFFF DUP3 GT OR ISZERO PUSH2 0x308 JUMPI PUSH2 0x307 PUSH2 0x2B1 JUMP JUMPDEST JUMPDEST DUP1 PUSH1 0x40 MSTORE POP POP POP JUMP JUMPDEST PUSH1 0x0 PUSH2 0x31B PUSH2 0x282 JUMP JUMPDEST SWAP1 POP PUSH2 0x327 DUP3 DUP3 PUSH2 0x2E0 JUMP JUMPDEST SWAP2 SWAP1 POP JUMP JUMPDEST PUSH1 0x0 PUSH8 0xFFFFFFFFFFFFFFFF DUP3 GT ISZERO PUSH2 0x347 JUMPI PUSH2 0x346 PUSH2 0x2B1 JUMP JUMPDEST JUMPDEST PUSH2 0x350 DUP3 PUSH2 0x2A0 JUMP JUMPDEST SWAP1 POP PUSH1 0x20 DUP2 ADD SWAP1 POP SWAP2 SWAP1 POP JUMP JUMPDEST DUP3 DUP2 DUP4 CALLDATACOPY PUSH1 0x0 DUP4 DUP4 ADD MSTORE POP POP POP JUMP JUMPDEST PUSH1 0x0 PUSH2 0x37F PUSH2 0x37A DUP5 PUSH2 0x32C JUMP JUMPDEST PUSH2 0x311 JUMP JUMPDEST SWAP1 POP DUP3 DUP2 MSTORE PUSH1 0x20 DUP2 ADD DUP5 DUP5 DUP5 ADD GT ISZERO PUSH2 0x39B JUMPI PUSH2 0x39A PUSH2 0x29B JUMP JUMPDEST JUMPDEST PUSH2 0x3A6 DUP5 DUP3 DUP6 PUSH2 0x35D JUMP JUMPDEST POP SWAP4 SWAP3 POP POP POP JUMP JUMPDEST PUSH1 0x0 DUP3 PUSH1 0x1F DUP4 ADD SLT PUSH2 0x3C3 JUMPI PUSH2 0x3C2 PUSH2 0x296 JUMP JUMPDEST JUMPDEST DUP2 CALLDATALOAD PUSH2 0x3D3 DUP5 DUP3 PUSH1 0x20 DUP7 ADD PUSH2 0x36C JUMP JUMPDEST SWAP2 POP POP SWAP3 SWAP2 POP POP JUMP JUMPDEST PUSH1 0x0 DUP2 SWAP1 POP SWAP2 SWAP1 POP JUMP JUMPDEST PUSH2 0x3EF DUP2 PUSH2 0x3DC JUMP JUMPDEST DUP2 EQ PUSH2 0x3FA JUMPI PUSH1 0x0 DUP1 REVERT JUMPDEST POP JUMP JUMPDEST PUSH1 0x0 DUP2 CALLDATALOAD SWAP1 POP PUSH2 0x40C DUP2 PUSH2 0x3E6 JUMP JUMPDEST SWAP3 SWAP2 POP POP JUMP JUMPDEST PUSH1 0x0 DUP1 PUSH1 0x0 PUSH1 0x60 DUP5 DUP7 SUB SLT ISZERO PUSH2 0x42B JUMPI PUSH2 0x42A PUSH2 0x28C JUMP JUMPDEST JUMPDEST PUSH1 0x0 DUP5 ADD CALLDATALOAD PUSH8 0xFFFFFFFFFFFFFFFF DUP2 GT ISZERO PUSH2 0x449 JUMPI PUSH2 0x448 PUSH2 0x291 JUMP JUMPDEST JUMPDEST PUSH2 0x455 DUP7 DUP3 DUP8 ADD PUSH2 0x3AE JUMP JUMPDEST SWAP4 POP POP PUSH1 0x20 PUSH2 0x466 DUP7 DUP3 DUP8 ADD PUSH2 0x3FD JUMP JUMPDEST SWAP3 POP POP PUSH1 0x40 PUSH2 0x477 DUP7 DUP3 DUP8 ADD PUSH2 0x3FD JUMP JUMPDEST SWAP2 POP POP SWAP3 POP SWAP3 POP SWAP3 JUMP JUMPDEST PUSH1 0x0 PUSH1 0x20 DUP3 DUP5 SUB SLT ISZERO PUSH2 0x497 JUMPI PUSH2 0x496 PUSH2 0x28C JUMP JUMPDEST JUMPDEST PUSH1 0x0 PUSH2 0x4A5 DUP5 DUP3 DUP6 ADD PUSH2 0x3FD JUMP JUMPDEST SWAP2 POP POP SWAP3 SWAP2 POP POP JUMP JUMPDEST PUSH1 0x0 DUP2 MLOAD SWAP1 POP SWAP2 SWAP1 POP JUMP JUMPDEST PUSH1 0x0 DUP3 DUP3 MSTORE PUSH1 0x20 DUP3 ADD SWAP1 POP SWAP3 SWAP2 POP POP JUMP JUMPDEST PUSH1 0x0 JUMPDEST DUP4 DUP2 LT ISZERO PUSH2 0x4E8 JUMPI DUP1 DUP3 ADD MLOAD DUP2 DUP5 ADD MSTORE PUSH1 0x20 DUP2 ADD SWAP1 POP PUSH2 0x4CD JUMP JUMPDEST PUSH1 0x0 DUP5 DUP5 ADD MSTORE POP POP POP POP JUMP JUMPDEST PUSH1 0x0 PUSH2 0x4FF DUP3 PUSH2 0x4AE JUMP JUMPDEST PUSH2 0x509 DUP2 DUP6 PUSH2 0x4B9 JUMP JUMPDEST SWAP4 POP PUSH2 0x519 DUP2 DUP6 PUSH1 0x20 DUP7 ADD PUSH2 0x4CA JUMP JUMPDEST PUSH2 0x522 DUP2 PUSH2 0x2A0 JUMP JUMPDEST DUP5 ADD SWAP2 POP POP SWAP3 SWAP2 POP POP JUMP JUMPDEST PUSH2 0x536 DUP2 PUSH2 0x3DC JUMP JUMPDEST DUP3 MSTORE POP POP JUMP JUMPDEST PUSH1 0x0 PUSH1 0x60 DUP4 ADD PUSH1 0x0 DUP4 ADD MLOAD DUP5 DUP3 SUB PUSH1 0x0 DUP7 ADD MSTORE PUSH2 0x559 DUP3 DUP3 PUSH2 0x4F4 JUMP JUMPDEST SWAP2 POP POP PUSH1 0x20 DUP4 ADD MLOAD PUSH2 0x56E PUSH1 0x20 DUP7 ADD DUP3 PUSH2 0x52D JUMP JUMPDEST POP PUSH1 0x40 DUP4 ADD MLOAD PUSH2 0x581 PUSH1 0x40 DUP7 ADD DUP3 PUSH2 0x52D JUMP JUMPDEST POP DUP1 SWAP2 POP POP SWAP3 SWAP2 POP POP JUMP JUMPDEST PUSH1 0x0 PUSH1 0x20 DUP3 ADD SWAP1 POP DUP2 DUP2 SUB PUSH1 0x0 DUP4 ADD MSTORE PUSH2 0x5A6 DUP2 DUP5 PUSH2 0x53C JUMP JUMPDEST SWAP1 POP SWAP3 SWAP2 POP POP JUMP JUMPDEST PUSH2 0x5B7 DUP2 PUSH2 0x3DC JUMP JUMPDEST DUP3 MSTORE POP POP JUMP JUMPDEST PUSH1 0x0 PUSH1 0x20 DUP3 ADD SWAP1 POP PUSH2 0x5D2 PUSH1 0x0 DUP4 ADD DUP5 PUSH2 0x5AE JUMP JUMPDEST SWAP3 SWAP2 POP POP JUMP JUMPDEST PUSH32 0x4E487B7100000000000000000000000000000000000000000000000000000000 PUSH1 0x0 MSTORE PUSH1 0x22 PUSH1 0x4 MSTORE PUSH1 0x24 PUSH1 0x0 REVERT JUMPDEST PUSH1 0x0 PUSH1 0x2 DUP3 DIV SWAP1 POP PUSH1 0x1 DUP3 AND DUP1 PUSH2 0x61F JUMPI PUSH1 0x7F DUP3 AND SWAP2 POP JUMPDEST PUSH1 0x20 DUP3 LT DUP2 SUB PUSH2 0x632 JUMPI PUSH2 0x631 PUSH2 0x5D8 JUMP JUMPDEST JUMPDEST POP SWAP2 SWAP1 POP JUMP JUMPDEST PUSH1 0x0 DUP2 SWAP1 POP DUP2 PUSH1 0x0 MSTORE PUSH1 0x20 PUSH1 0x0 KECCAK256 SWAP1 POP SWAP2 SWAP1 POP JUMP JUMPDEST PUSH1 0x0 PUSH1 0x20 PUSH1 0x1F DUP4 ADD DIV SWAP1 POP SWAP2 SWAP1 POP JUMP JUMPDEST PUSH1 0x0 DUP3 DUP3 SHL SWAP1 POP SWAP3 SWAP2 POP POP JUMP JUMPDEST PUSH1 0x0 PUSH1 0x8 DUP4 MUL PUSH2 0x69A PUSH32 0xFFFFFFFFFFFFFFFFFFFFFFFFFFFFFFFFFFFFFFFFFFFFFFFFFFFFFFFFFFFFFFFF DUP3 PUSH2 0x65D JUMP JUMPDEST PUSH2 0x6A4 DUP7 DUP4 PUSH2 0x65D JUMP JUMPDEST SWAP6 POP DUP1 NOT DUP5 AND SWAP4 POP DUP1 DUP7 AND DUP5 OR SWAP3 POP POP POP SWAP4 SWAP3 POP POP POP JUMP JUMPDEST PUSH1 0x0 DUP2 SWAP1 POP SWAP2 SWAP1 POP JUMP JUMPDEST PUSH1 0x0 PUSH2 0x6E1 PUSH2 0x6DC PUSH2 0x6D7 DUP5 PUSH2 0x3DC JUMP JUMPDEST PUSH2 0x6BC JUMP JUMPDEST PUSH2 0x3DC JUMP JUMPDEST SWAP1 POP SWAP2 SWAP1 POP JUMP JUMPDEST PUSH1 0x0 DUP2 SWAP1 POP SWAP2 SWAP1 POP JUMP JUMPDEST PUSH2 0x6FB DUP4 PUSH2 0x6C6 JUMP JUMPDEST PUSH2 0x70F PUSH2 0x707 DUP3 PUSH2 0x6E8 JUMP JUMPDEST DUP5 DUP5 SLOAD PUSH2 0x66A JUMP JUMPDEST DUP3 SSTORE POP POP POP POP JUMP JUMPDEST PUSH1 0x0 SWAP1 JUMP JUMPDEST PUSH2 0x724 PUSH2 0x717 JUMP JUMPDEST PUSH2 0x72F DUP2 DUP5 DUP5 PUSH2 0x6F2 JUMP JUMPDEST POP POP POP JUMP JUMPDEST JUMPDEST DUP2 DUP2 LT ISZERO PUSH2 0x753 JUMPI PUSH2 0x748 PUSH1 0x0 DUP3 PUSH2 0x71C JUMP JUMPDEST PUSH1 0x1 DUP2 ADD SWAP1 POP PUSH2 0x735 JUMP JUMPDEST POP POP JUMP JUMPDEST PUSH1 0x1F DUP3 GT ISZERO PUSH2 0x798 JUMPI PUSH2 0x769 DUP2 PUSH2 0x638 JUMP JUMPDEST PUSH2 0x772 DUP5 PUSH2 0x64D JUMP JUMPDEST DUP2 ADD PUSH1 0x20 DUP6 LT ISZERO PUSH2 0x781 JUMPI DUP2 SWAP1 POP JUMPDEST PUSH2 0x795 PUSH2 0x78D DUP6 PUSH2 0x64D JUMP JUMPDEST DUP4 ADD DUP3 PUSH2 0x734 JUMP JUMPDEST POP POP JUMPDEST POP POP POP JUMP JUMPDEST PUSH1 0x0 DUP3 DUP3 SHR SWAP1 POP SWAP3 SWAP2 POP POP JUMP JUMPDEST PUSH1 0x0 PUSH2 0x7BB PUSH1 0x0 NOT DUP5 PUSH1 0x8 MUL PUSH2 0x79D JUMP JUMPDEST NOT DUP1 DUP4 AND SWAP2 POP POP SWAP3 SWAP2 POP POP JUMP JUMPDEST PUSH1 0x0 PUSH2 0x7D4 DUP4 DUP4 PUSH2 0x7AA JUMP JUMPDEST SWAP2 POP DUP3 PUSH1 0x2 MUL DUP3 OR SWAP1 POP SWAP3 SWAP2 POP POP JUMP JUMPDEST PUSH2 0x7ED DUP3 PUSH2 0x4AE JUMP JUMPDEST PUSH8 0xFFFFFFFFFFFFFFFF DUP2 GT ISZERO PUSH2 0x806 JUMPI PUSH2 0x805 PUSH2 0x2B1 JUMP JUMPDEST JUMPDEST PUSH2 0x810 DUP3 SLOAD PUSH2 0x607 JUMP JUMPDEST PUSH2 0x81B DUP3 DUP3 DUP6 PUSH2 0x757 JUMP JUMPDEST PUSH1 0x0 PUSH1 0x20 SWAP1 POP PUSH1 0x1F DUP4 GT PUSH1 0x1 DUP2 EQ PUSH2 0x84E JUMPI PUSH1 0x0 DUP5 ISZERO PUSH2 0x83C JUMPI DUP3 DUP8 ADD MLOAD SWAP1 POP JUMPDEST PUSH2 0x846 DUP6 DUP3 PUSH2 0x7C8 JUMP JUMPDEST DUP7 SSTORE POP PUSH2 0x8AE JUMP JUMPDEST PUSH1 0x1F NOT DUP5 AND PUSH2 0x85C DUP7 PUSH2 0x638 JUMP JUMPDEST PUSH1 0x0 JUMPDEST DUP3 DUP2 LT ISZERO PUSH2 0x884 JUMPI DUP5 DUP10 ADD MLOAD DUP3 SSTORE PUSH1 0x1 DUP3 ADD SWAP2 POP PUSH1 0x20 DUP6 ADD SWAP5 POP PUSH1 0x20 DUP2 ADD SWAP1 POP PUSH2 0x85F JUMP JUMPDEST DUP7 DUP4 LT ISZERO PUSH2 0x8A1 JUMPI DUP5 DUP10 ADD MLOAD PUSH2 0x89D PUSH1 0x1F DUP10 AND DUP3 PUSH2 0x7AA JUMP JUMPDEST DUP4 SSTORE POP JUMPDEST PUSH1 0x1 PUSH1 0x2 DUP9 MUL ADD DUP9 SSTORE POP POP POP JUMPDEST POP POP POP POP POP POP JUMP JUMPDEST PUSH32 0x4E487B7100000000000000000000000000000000000000000000000000000000 PUSH1 0x0 MSTORE PUSH1 0x11 PUSH1 0x4 MSTORE PUSH1 0x24 PUSH1 0x0 REVERT JUMPDEST PUSH1 0x0 PUSH2 0x8F0 DUP3 PUSH2 0x3DC JUMP JUMPDEST SWAP2 POP PUSH2 0x8FB DUP4 PUSH2 0x3DC JUMP JUMPDEST SWAP3 POP DUP3 DUP3 SUB SWAP1 POP DUP2 DUP2 GT ISZERO PUSH2 0x913 JUMPI PUSH2 0x912 PUSH2 0x8B6 JUMP JUMPDEST JUMPDEST SWAP3 SWAP2 POP POP JUMP JUMPDEST PUSH32 0x4E487B7100000000000000000000000000000000000000000000000000000000 PUSH1 0x0 MSTORE PUSH1 0x32 PUSH1 0x4 MSTORE PUSH1 0x24 PUSH1 0x0 REVERT INVALID LOG2 PUSH5 0x6970667358 0x22 SLT KECCAK256 PUSH26 0x31A838A3E6431FC2B5897B633D3DF1F913BDB88E41CB50A8A6D LOG3 0xE9 SMOD GASPRICE LOG3 PUSH5 0x736F6C6343 STOP ADDMOD SLT STOP CALLER "
				},
				"gasEstimates": {
					"creation": {
						"codeDepositCost": "486000",
						"executionCost": "518",
						"totalCost": "486518"
					},
					"external": {
						"getBirthday(uint256)": "infinite",
						"getStudent(uint256)": "infinite",
						"pushStudent(string,uint256,uint256)": "infinite"
					}
				},
				"methodIdentifiers": {
					"getBirthday(uint256)": "c8d2524c",
					"getStudent(uint256)": "642f9163",
					"pushStudent(string,uint256,uint256)": "562ca543"
				}
			},
			"storageLayout": {
				"storage": [
					{
						"astId": 12,
						"contract": "contracts-lecture/230508-3.sol:Struct",
						"label": "students",
						"offset": 0,
						"slot": "0",
						"type": "t_array(t_struct(Student)8_storage)dyn_storage"
					}
				],
				"types": {
					"t_array(t_struct(Student)8_storage)dyn_storage": {
						"base": "t_struct(Student)8_storage",
						"encoding": "dynamic_array",
						"label": "struct Struct.Student[]",
						"numberOfBytes": "32"
					},
					"t_string_storage": {
						"encoding": "bytes",
						"label": "string",
						"numberOfBytes": "32"
					},
					"t_struct(Student)8_storage": {
						"encoding": "inplace",
						"label": "struct Struct.Student",
						"members": [
							{
								"astId": 3,
								"contract": "contracts-lecture/230508-3.sol:Struct",
								"label": "name",
								"offset": 0,
								"slot": "0",
								"type": "t_string_storage"
							},
							{
								"astId": 5,
								"contract": "contracts-lecture/230508-3.sol:Struct",
								"label": "birthday",
								"offset": 0,
								"slot": "1",
								"type": "t_uint256"
							},
							{
								"astId": 7,
								"contract": "contracts-lecture/230508-3.sol:Struct",
								"label": "number",
								"offset": 0,
								"slot": "2",
								"type": "t_uint256"
							}
						],
						"numberOfBytes": "96"
					},
					"t_uint256": {
						"encoding": "inplace",
						"label": "uint256",
						"numberOfBytes": "32"
					}
				}
			},
			"userdoc": {
				"kind": "user",
				"methods": {},
				"version": 1
			}
		}
	}
}