{
	"contracts-lecture/230504-1.sol": {
		"UINTBYTES": {
			"abi": [
				{
					"inputs": [],
					"name": "getABCD",
					"outputs": [
						{
							"internalType": "uint256",
							"name": "",
							"type": "uint256"
						},
						{
							"internalType": "uint8",
							"name": "",
							"type": "uint8"
						},
						{
							"internalType": "uint16",
							"name": "",
							"type": "uint16"
						},
						{
							"internalType": "uint256",
							"name": "",
							"type": "uint256"
						}
					],
					"stateMutability": "view",
					"type": "function"
				},
				{
					"inputs": [],
					"name": "getABCD2",
					"outputs": [
						{
							"internalType": "uint256",
							"name": "",
							"type": "uint256"
						},
						{
							"internalType": "uint256",
							"name": "",
							"type": "uint256"
						},
						{
							"internalType": "uint256",
							"name": "",
							"type": "uint256"
						},
						{
							"internalType": "uint256",
							"name": "",
							"type": "uint256"
						}
					],
					"stateMutability": "view",
					"type": "function"
				},
				{
					"inputs": [
						{
							"internalType": "uint256",
							"name": "_a",
							"type": "uint256"
						},
						{
							"internalType": "uint8",
							"name": "_b",
							"type": "uint8"
						},
						{
							"internalType": "uint16",
							"name": "_c",
							"type": "uint16"
						},
						{
							"internalType": "uint256",
							"name": "_d",
							"type": "uint256"
						}
					],
					"name": "setABCD",
					"outputs": [],
					"stateMutability": "nonpayable",
					"type": "function"
				},
				{
					"inputs": [
						{
							"internalType": "uint256",
							"name": "_a",
							"type": "uint256"
						},
						{
							"internalType": "uint8",
							"name": "_b",
							"type": "uint8"
						},
						{
							"internalType": "uint8",
							"name": "_c",
							"type": "uint8"
						},
						{
							"internalType": "uint8",
							"name": "_d",
							"type": "uint8"
						}
					],
					"name": "setABCD2",
					"outputs": [],
					"stateMutability": "nonpayable",
					"type": "function"
				}
			],
			"devdoc": {
				"kind": "dev",
				"methods": {},
				"version": 1
			},
			"evm": {
				"assembly": "    /* \"contracts-lecture/230504-1.sol\":63:1255  contract UINTBYTES {... */\n  mstore(0x40, 0x80)\n  callvalue\n  dup1\n  iszero\n  tag_1\n  jumpi\n  0x00\n  dup1\n  revert\ntag_1:\n  pop\n  dataSize(sub_0)\n  dup1\n  dataOffset(sub_0)\n  0x00\n  codecopy\n  0x00\n  return\nstop\n\nsub_0: assembly {\n        /* \"contracts-lecture/230504-1.sol\":63:1255  contract UINTBYTES {... */\n      mstore(0x40, 0x80)\n      callvalue\n      dup1\n      iszero\n      tag_1\n      jumpi\n      0x00\n      dup1\n      revert\n    tag_1:\n      pop\n      jumpi(tag_2, lt(calldatasize, 0x04))\n      shr(0xe0, calldataload(0x00))\n      dup1\n      0x20f59bab\n      eq\n      tag_3\n      jumpi\n      dup1\n      0xaa80e492\n      eq\n      tag_4\n      jumpi\n      dup1\n      0xc736694e\n      eq\n      tag_5\n      jumpi\n      dup1\n      0xf010cb28\n      eq\n      tag_6\n      jumpi\n    tag_2:\n      0x00\n      dup1\n      revert\n        /* \"contracts-lecture/230504-1.sol\":362:497  function setABCD2(uint _a, uint8 _b, uint8 _c, uint8 _d) public {... */\n    tag_3:\n      tag_7\n      0x04\n      dup1\n      calldatasize\n      sub\n      dup2\n      add\n      swap1\n      tag_8\n      swap2\n      swap1\n      tag_9\n      jump\t// in\n    tag_8:\n      tag_10\n      jump\t// in\n    tag_7:\n      stop\n        /* \"contracts-lecture/230504-1.sol\":219:356  function setABCD(uint _a, uint8 _b, uint16 _c, uint256 _d) public {... */\n    tag_4:\n      tag_11\n      0x04\n      dup1\n      calldatasize\n      sub\n      dup2\n      add\n      swap1\n      tag_12\n      swap2\n      swap1\n      tag_13\n      jump\t// in\n    tag_12:\n      tag_14\n      jump\t// in\n    tag_11:\n      stop\n        /* \"contracts-lecture/230504-1.sol\":802:904  function getABCD() public view returns(uint, uint8, uint16, uint256) {... */\n    tag_5:\n      tag_15\n      tag_16\n      jump\t// in\n    tag_15:\n      mload(0x40)\n      tag_17\n      swap5\n      swap4\n      swap3\n      swap2\n      swap1\n      tag_18\n      jump\t// in\n    tag_17:\n      mload(0x40)\n      dup1\n      swap2\n      sub\n      swap1\n      return\n        /* \"contracts-lecture/230504-1.sol\":910:1007  function getABCD2() public view returns(uint, uint, uint, uint) {... */\n    tag_6:\n      tag_19\n      tag_20\n      jump\t// in\n    tag_19:\n      mload(0x40)\n      tag_21\n      swap5\n      swap4\n      swap3\n      swap2\n      swap1\n      tag_22\n      jump\t// in\n    tag_21:\n      mload(0x40)\n      dup1\n      swap2\n      sub\n      swap1\n      return\n        /* \"contracts-lecture/230504-1.sol\":362:497  function setABCD2(uint _a, uint8 _b, uint8 _c, uint8 _d) public {... */\n    tag_10:\n        /* \"contracts-lecture/230504-1.sol\":440:442  _a */\n      dup4\n        /* \"contracts-lecture/230504-1.sol\":436:437  a */\n      0x00\n        /* \"contracts-lecture/230504-1.sol\":436:442  a = _a */\n      dup2\n      swap1\n      sstore\n      pop\n        /* \"contracts-lecture/230504-1.sol\":456:458  _b */\n      dup3\n        /* \"contracts-lecture/230504-1.sol\":452:453  b */\n      0x01\n      0x00\n        /* \"contracts-lecture/230504-1.sol\":452:458  b = _b */\n      0x0100\n      exp\n      dup2\n      sload\n      dup2\n      0xff\n      mul\n      not\n      and\n      swap1\n      dup4\n      0xff\n      and\n      mul\n      or\n      swap1\n      sstore\n      pop\n        /* \"contracts-lecture/230504-1.sol\":472:474  _c */\n      dup2\n        /* \"contracts-lecture/230504-1.sol\":468:474  c = _c */\n      0xff\n      and\n        /* \"contracts-lecture/230504-1.sol\":468:469  c */\n      0x01\n      dup1\n        /* \"contracts-lecture/230504-1.sol\":468:474  c = _c */\n      0x0100\n      exp\n      dup2\n      sload\n      dup2\n      0xffff\n      mul\n      not\n      and\n      swap1\n      dup4\n      0xffff\n      and\n      mul\n      or\n      swap1\n      sstore\n      pop\n        /* \"contracts-lecture/230504-1.sol\":488:490  _d */\n      dup1\n        /* \"contracts-lecture/230504-1.sol\":484:490  d = _d */\n      0xff\n      and\n        /* \"contracts-lecture/230504-1.sol\":484:485  d */\n      0x02\n        /* \"contracts-lecture/230504-1.sol\":484:490  d = _d */\n      dup2\n      swap1\n      sstore\n      pop\n        /* \"contracts-lecture/230504-1.sol\":362:497  function setABCD2(uint _a, uint8 _b, uint8 _c, uint8 _d) public {... */\n      pop\n      pop\n      pop\n      pop\n      jump\t// out\n        /* \"contracts-lecture/230504-1.sol\":219:356  function setABCD(uint _a, uint8 _b, uint16 _c, uint256 _d) public {... */\n    tag_14:\n        /* \"contracts-lecture/230504-1.sol\":299:301  _a */\n      dup4\n        /* \"contracts-lecture/230504-1.sol\":295:296  a */\n      0x00\n        /* \"contracts-lecture/230504-1.sol\":295:301  a = _a */\n      dup2\n      swap1\n      sstore\n      pop\n        /* \"contracts-lecture/230504-1.sol\":315:317  _b */\n      dup3\n        /* \"contracts-lecture/230504-1.sol\":311:312  b */\n      0x01\n      0x00\n        /* \"contracts-lecture/230504-1.sol\":311:317  b = _b */\n      0x0100\n      exp\n      dup2\n      sload\n      dup2\n      0xff\n      mul\n      not\n      and\n      swap1\n      dup4\n      0xff\n      and\n      mul\n      or\n      swap1\n      sstore\n      pop\n        /* \"contracts-lecture/230504-1.sol\":331:333  _c */\n      dup2\n        /* \"contracts-lecture/230504-1.sol\":327:328  c */\n      0x01\n      dup1\n        /* \"contracts-lecture/230504-1.sol\":327:333  c = _c */\n      0x0100\n      exp\n      dup2\n      sload\n      dup2\n      0xffff\n      mul\n      not\n      and\n      swap1\n      dup4\n      0xffff\n      and\n      mul\n      or\n      swap1\n      sstore\n      pop\n        /* \"contracts-lecture/230504-1.sol\":347:349  _d */\n      dup1\n        /* \"contracts-lecture/230504-1.sol\":343:344  d */\n      0x02\n        /* \"contracts-lecture/230504-1.sol\":343:349  d = _d */\n      dup2\n      swap1\n      sstore\n      pop\n        /* \"contracts-lecture/230504-1.sol\":219:356  function setABCD(uint _a, uint8 _b, uint16 _c, uint256 _d) public {... */\n      pop\n      pop\n      pop\n      pop\n      jump\t// out\n        /* \"contracts-lecture/230504-1.sol\":802:904  function getABCD() public view returns(uint, uint8, uint16, uint256) {... */\n    tag_16:\n        /* \"contracts-lecture/230504-1.sol\":841:845  uint */\n      0x00\n        /* \"contracts-lecture/230504-1.sol\":847:852  uint8 */\n      dup1\n        /* \"contracts-lecture/230504-1.sol\":854:860  uint16 */\n      0x00\n        /* \"contracts-lecture/230504-1.sol\":862:869  uint256 */\n      dup1\n        /* \"contracts-lecture/230504-1.sol\":889:890  a */\n      sload(0x00)\n        /* \"contracts-lecture/230504-1.sol\":891:892  b */\n      0x01\n      0x00\n      swap1\n      sload\n      swap1\n      0x0100\n      exp\n      swap1\n      div\n      0xff\n      and\n        /* \"contracts-lecture/230504-1.sol\":893:894  c */\n      0x01\n      dup1\n      sload\n      swap1\n      0x0100\n      exp\n      swap1\n      div\n      0xffff\n      and\n        /* \"contracts-lecture/230504-1.sol\":895:896  d */\n      sload(0x02)\n        /* \"contracts-lecture/230504-1.sol\":881:897  return (a,b,c,d) */\n      swap4\n      pop\n      swap4\n      pop\n      swap4\n      pop\n      swap4\n      pop\n        /* \"contracts-lecture/230504-1.sol\":802:904  function getABCD() public view returns(uint, uint8, uint16, uint256) {... */\n      swap1\n      swap2\n      swap3\n      swap4\n      jump\t// out\n        /* \"contracts-lecture/230504-1.sol\":910:1007  function getABCD2() public view returns(uint, uint, uint, uint) {... */\n    tag_20:\n        /* \"contracts-lecture/230504-1.sol\":950:954  uint */\n      0x00\n        /* \"contracts-lecture/230504-1.sol\":956:960  uint */\n      dup1\n        /* \"contracts-lecture/230504-1.sol\":962:966  uint */\n      0x00\n        /* \"contracts-lecture/230504-1.sol\":968:972  uint */\n      dup1\n        /* \"contracts-lecture/230504-1.sol\":992:993  a */\n      sload(0x00)\n        /* \"contracts-lecture/230504-1.sol\":994:995  b */\n      0x01\n      0x00\n      swap1\n      sload\n      swap1\n      0x0100\n      exp\n      swap1\n      div\n      0xff\n      and\n        /* \"contracts-lecture/230504-1.sol\":996:997  c */\n      0x01\n      dup1\n      sload\n      swap1\n      0x0100\n      exp\n      swap1\n      div\n      0xffff\n      and\n        /* \"contracts-lecture/230504-1.sol\":998:999  d */\n      sload(0x02)\n        /* \"contracts-lecture/230504-1.sol\":984:1000  return (a,b,c,d) */\n      dup3\n      0xff\n      and\n      swap3\n      pop\n      dup2\n      0xffff\n      and\n      swap2\n      pop\n      swap4\n      pop\n      swap4\n      pop\n      swap4\n      pop\n      swap4\n      pop\n        /* \"contracts-lecture/230504-1.sol\":910:1007  function getABCD2() public view returns(uint, uint, uint, uint) {... */\n      swap1\n      swap2\n      swap3\n      swap4\n      jump\t// out\n        /* \"#utility.yul\":88:205   */\n    tag_28:\n        /* \"#utility.yul\":197:198   */\n      0x00\n        /* \"#utility.yul\":194:195   */\n      dup1\n        /* \"#utility.yul\":187:199   */\n      revert\n        /* \"#utility.yul\":334:411   */\n    tag_30:\n        /* \"#utility.yul\":371:378   */\n      0x00\n        /* \"#utility.yul\":400:405   */\n      dup2\n        /* \"#utility.yul\":389:405   */\n      swap1\n      pop\n        /* \"#utility.yul\":334:411   */\n      swap2\n      swap1\n      pop\n      jump\t// out\n        /* \"#utility.yul\":417:539   */\n    tag_31:\n        /* \"#utility.yul\":490:514   */\n      tag_48\n        /* \"#utility.yul\":508:513   */\n      dup2\n        /* \"#utility.yul\":490:514   */\n      tag_30\n      jump\t// in\n    tag_48:\n        /* \"#utility.yul\":483:488   */\n      dup2\n        /* \"#utility.yul\":480:515   */\n      eq\n        /* \"#utility.yul\":470:533   */\n      tag_49\n      jumpi\n        /* \"#utility.yul\":529:530   */\n      0x00\n        /* \"#utility.yul\":526:527   */\n      dup1\n        /* \"#utility.yul\":519:531   */\n      revert\n        /* \"#utility.yul\":470:533   */\n    tag_49:\n        /* \"#utility.yul\":417:539   */\n      pop\n      jump\t// out\n        /* \"#utility.yul\":545:684   */\n    tag_32:\n        /* \"#utility.yul\":591:596   */\n      0x00\n        /* \"#utility.yul\":629:635   */\n      dup2\n        /* \"#utility.yul\":616:636   */\n      calldataload\n        /* \"#utility.yul\":607:636   */\n      swap1\n      pop\n        /* \"#utility.yul\":645:678   */\n      tag_51\n        /* \"#utility.yul\":672:677   */\n      dup2\n        /* \"#utility.yul\":645:678   */\n      tag_31\n      jump\t// in\n    tag_51:\n        /* \"#utility.yul\":545:684   */\n      swap3\n      swap2\n      pop\n      pop\n      jump\t// out\n        /* \"#utility.yul\":690:776   */\n    tag_33:\n        /* \"#utility.yul\":725:732   */\n      0x00\n        /* \"#utility.yul\":765:769   */\n      0xff\n        /* \"#utility.yul\":758:763   */\n      dup3\n        /* \"#utility.yul\":754:770   */\n      and\n        /* \"#utility.yul\":743:770   */\n      swap1\n      pop\n        /* \"#utility.yul\":690:776   */\n      swap2\n      swap1\n      pop\n      jump\t// out\n        /* \"#utility.yul\":782:900   */\n    tag_34:\n        /* \"#utility.yul\":853:875   */\n      tag_54\n        /* \"#utility.yul\":869:874   */\n      dup2\n        /* \"#utility.yul\":853:875   */\n      tag_33\n      jump\t// in\n    tag_54:\n        /* \"#utility.yul\":846:851   */\n      dup2\n        /* \"#utility.yul\":843:876   */\n      eq\n        /* \"#utility.yul\":833:894   */\n      tag_55\n      jumpi\n        /* \"#utility.yul\":890:891   */\n      0x00\n        /* \"#utility.yul\":887:888   */\n      dup1\n        /* \"#utility.yul\":880:892   */\n      revert\n        /* \"#utility.yul\":833:894   */\n    tag_55:\n        /* \"#utility.yul\":782:900   */\n      pop\n      jump\t// out\n        /* \"#utility.yul\":906:1041   */\n    tag_35:\n        /* \"#utility.yul\":950:955   */\n      0x00\n        /* \"#utility.yul\":988:994   */\n      dup2\n        /* \"#utility.yul\":975:995   */\n      calldataload\n        /* \"#utility.yul\":966:995   */\n      swap1\n      pop\n        /* \"#utility.yul\":1004:1035   */\n      tag_57\n        /* \"#utility.yul\":1029:1034   */\n      dup2\n        /* \"#utility.yul\":1004:1035   */\n      tag_34\n      jump\t// in\n    tag_57:\n        /* \"#utility.yul\":906:1041   */\n      swap3\n      swap2\n      pop\n      pop\n      jump\t// out\n        /* \"#utility.yul\":1047:1800   */\n    tag_9:\n        /* \"#utility.yul\":1127:1133   */\n      0x00\n        /* \"#utility.yul\":1135:1141   */\n      dup1\n        /* \"#utility.yul\":1143:1149   */\n      0x00\n        /* \"#utility.yul\":1151:1157   */\n      dup1\n        /* \"#utility.yul\":1200:1203   */\n      0x80\n        /* \"#utility.yul\":1188:1197   */\n      dup6\n        /* \"#utility.yul\":1179:1186   */\n      dup8\n        /* \"#utility.yul\":1175:1198   */\n      sub\n        /* \"#utility.yul\":1171:1204   */\n      slt\n        /* \"#utility.yul\":1168:1288   */\n      iszero\n      tag_59\n      jumpi\n        /* \"#utility.yul\":1207:1286   */\n      tag_60\n      tag_28\n      jump\t// in\n    tag_60:\n        /* \"#utility.yul\":1168:1288   */\n    tag_59:\n        /* \"#utility.yul\":1327:1328   */\n      0x00\n        /* \"#utility.yul\":1352:1405   */\n      tag_61\n        /* \"#utility.yul\":1397:1404   */\n      dup8\n        /* \"#utility.yul\":1388:1394   */\n      dup3\n        /* \"#utility.yul\":1377:1386   */\n      dup9\n        /* \"#utility.yul\":1373:1395   */\n      add\n        /* \"#utility.yul\":1352:1405   */\n      tag_32\n      jump\t// in\n    tag_61:\n        /* \"#utility.yul\":1342:1405   */\n      swap5\n      pop\n        /* \"#utility.yul\":1298:1415   */\n      pop\n        /* \"#utility.yul\":1454:1456   */\n      0x20\n        /* \"#utility.yul\":1480:1531   */\n      tag_62\n        /* \"#utility.yul\":1523:1530   */\n      dup8\n        /* \"#utility.yul\":1514:1520   */\n      dup3\n        /* \"#utility.yul\":1503:1512   */\n      dup9\n        /* \"#utility.yul\":1499:1521   */\n      add\n        /* \"#utility.yul\":1480:1531   */\n      tag_35\n      jump\t// in\n    tag_62:\n        /* \"#utility.yul\":1470:1531   */\n      swap4\n      pop\n        /* \"#utility.yul\":1425:1541   */\n      pop\n        /* \"#utility.yul\":1580:1582   */\n      0x40\n        /* \"#utility.yul\":1606:1657   */\n      tag_63\n        /* \"#utility.yul\":1649:1656   */\n      dup8\n        /* \"#utility.yul\":1640:1646   */\n      dup3\n        /* \"#utility.yul\":1629:1638   */\n      dup9\n        /* \"#utility.yul\":1625:1647   */\n      add\n        /* \"#utility.yul\":1606:1657   */\n      tag_35\n      jump\t// in\n    tag_63:\n        /* \"#utility.yul\":1596:1657   */\n      swap3\n      pop\n        /* \"#utility.yul\":1551:1667   */\n      pop\n        /* \"#utility.yul\":1706:1708   */\n      0x60\n        /* \"#utility.yul\":1732:1783   */\n      tag_64\n        /* \"#utility.yul\":1775:1782   */\n      dup8\n        /* \"#utility.yul\":1766:1772   */\n      dup3\n        /* \"#utility.yul\":1755:1764   */\n      dup9\n        /* \"#utility.yul\":1751:1773   */\n      add\n        /* \"#utility.yul\":1732:1783   */\n      tag_35\n      jump\t// in\n    tag_64:\n        /* \"#utility.yul\":1722:1783   */\n      swap2\n      pop\n        /* \"#utility.yul\":1677:1793   */\n      pop\n        /* \"#utility.yul\":1047:1800   */\n      swap3\n      swap6\n      swap2\n      swap5\n      pop\n      swap3\n      pop\n      jump\t// out\n        /* \"#utility.yul\":1806:1895   */\n    tag_36:\n        /* \"#utility.yul\":1842:1849   */\n      0x00\n        /* \"#utility.yul\":1882:1888   */\n      0xffff\n        /* \"#utility.yul\":1875:1880   */\n      dup3\n        /* \"#utility.yul\":1871:1889   */\n      and\n        /* \"#utility.yul\":1860:1889   */\n      swap1\n      pop\n        /* \"#utility.yul\":1806:1895   */\n      swap2\n      swap1\n      pop\n      jump\t// out\n        /* \"#utility.yul\":1901:2021   */\n    tag_37:\n        /* \"#utility.yul\":1973:1996   */\n      tag_67\n        /* \"#utility.yul\":1990:1995   */\n      dup2\n        /* \"#utility.yul\":1973:1996   */\n      tag_36\n      jump\t// in\n    tag_67:\n        /* \"#utility.yul\":1966:1971   */\n      dup2\n        /* \"#utility.yul\":1963:1997   */\n      eq\n        /* \"#utility.yul\":1953:2015   */\n      tag_68\n      jumpi\n        /* \"#utility.yul\":2011:2012   */\n      0x00\n        /* \"#utility.yul\":2008:2009   */\n      dup1\n        /* \"#utility.yul\":2001:2013   */\n      revert\n        /* \"#utility.yul\":1953:2015   */\n    tag_68:\n        /* \"#utility.yul\":1901:2021   */\n      pop\n      jump\t// out\n        /* \"#utility.yul\":2027:2164   */\n    tag_38:\n        /* \"#utility.yul\":2072:2077   */\n      0x00\n        /* \"#utility.yul\":2110:2116   */\n      dup2\n        /* \"#utility.yul\":2097:2117   */\n      calldataload\n        /* \"#utility.yul\":2088:2117   */\n      swap1\n      pop\n        /* \"#utility.yul\":2126:2158   */\n      tag_70\n        /* \"#utility.yul\":2152:2157   */\n      dup2\n        /* \"#utility.yul\":2126:2158   */\n      tag_37\n      jump\t// in\n    tag_70:\n        /* \"#utility.yul\":2027:2164   */\n      swap3\n      swap2\n      pop\n      pop\n      jump\t// out\n        /* \"#utility.yul\":2170:2929   */\n    tag_13:\n        /* \"#utility.yul\":2253:2259   */\n      0x00\n        /* \"#utility.yul\":2261:2267   */\n      dup1\n        /* \"#utility.yul\":2269:2275   */\n      0x00\n        /* \"#utility.yul\":2277:2283   */\n      dup1\n        /* \"#utility.yul\":2326:2329   */\n      0x80\n        /* \"#utility.yul\":2314:2323   */\n      dup6\n        /* \"#utility.yul\":2305:2312   */\n      dup8\n        /* \"#utility.yul\":2301:2324   */\n      sub\n        /* \"#utility.yul\":2297:2330   */\n      slt\n        /* \"#utility.yul\":2294:2414   */\n      iszero\n      tag_72\n      jumpi\n        /* \"#utility.yul\":2333:2412   */\n      tag_73\n      tag_28\n      jump\t// in\n    tag_73:\n        /* \"#utility.yul\":2294:2414   */\n    tag_72:\n        /* \"#utility.yul\":2453:2454   */\n      0x00\n        /* \"#utility.yul\":2478:2531   */\n      tag_74\n        /* \"#utility.yul\":2523:2530   */\n      dup8\n        /* \"#utility.yul\":2514:2520   */\n      dup3\n        /* \"#utility.yul\":2503:2512   */\n      dup9\n        /* \"#utility.yul\":2499:2521   */\n      add\n        /* \"#utility.yul\":2478:2531   */\n      tag_32\n      jump\t// in\n    tag_74:\n        /* \"#utility.yul\":2468:2531   */\n      swap5\n      pop\n        /* \"#utility.yul\":2424:2541   */\n      pop\n        /* \"#utility.yul\":2580:2582   */\n      0x20\n        /* \"#utility.yul\":2606:2657   */\n      tag_75\n        /* \"#utility.yul\":2649:2656   */\n      dup8\n        /* \"#utility.yul\":2640:2646   */\n      dup3\n        /* \"#utility.yul\":2629:2638   */\n      dup9\n        /* \"#utility.yul\":2625:2647   */\n      add\n        /* \"#utility.yul\":2606:2657   */\n      tag_35\n      jump\t// in\n    tag_75:\n        /* \"#utility.yul\":2596:2657   */\n      swap4\n      pop\n        /* \"#utility.yul\":2551:2667   */\n      pop\n        /* \"#utility.yul\":2706:2708   */\n      0x40\n        /* \"#utility.yul\":2732:2784   */\n      tag_76\n        /* \"#utility.yul\":2776:2783   */\n      dup8\n        /* \"#utility.yul\":2767:2773   */\n      dup3\n        /* \"#utility.yul\":2756:2765   */\n      dup9\n        /* \"#utility.yul\":2752:2774   */\n      add\n        /* \"#utility.yul\":2732:2784   */\n      tag_38\n      jump\t// in\n    tag_76:\n        /* \"#utility.yul\":2722:2784   */\n      swap3\n      pop\n        /* \"#utility.yul\":2677:2794   */\n      pop\n        /* \"#utility.yul\":2833:2835   */\n      0x60\n        /* \"#utility.yul\":2859:2912   */\n      tag_77\n        /* \"#utility.yul\":2904:2911   */\n      dup8\n        /* \"#utility.yul\":2895:2901   */\n      dup3\n        /* \"#utility.yul\":2884:2893   */\n      dup9\n        /* \"#utility.yul\":2880:2902   */\n      add\n        /* \"#utility.yul\":2859:2912   */\n      tag_32\n      jump\t// in\n    tag_77:\n        /* \"#utility.yul\":2849:2912   */\n      swap2\n      pop\n        /* \"#utility.yul\":2804:2922   */\n      pop\n        /* \"#utility.yul\":2170:2929   */\n      swap3\n      swap6\n      swap2\n      swap5\n      pop\n      swap3\n      pop\n      jump\t// out\n        /* \"#utility.yul\":2935:3053   */\n    tag_39:\n        /* \"#utility.yul\":3022:3046   */\n      tag_79\n        /* \"#utility.yul\":3040:3045   */\n      dup2\n        /* \"#utility.yul\":3022:3046   */\n      tag_30\n      jump\t// in\n    tag_79:\n        /* \"#utility.yul\":3017:3020   */\n      dup3\n        /* \"#utility.yul\":3010:3047   */\n      mstore\n        /* \"#utility.yul\":2935:3053   */\n      pop\n      pop\n      jump\t// out\n        /* \"#utility.yul\":3059:3171   */\n    tag_40:\n        /* \"#utility.yul\":3142:3164   */\n      tag_81\n        /* \"#utility.yul\":3158:3163   */\n      dup2\n        /* \"#utility.yul\":3142:3164   */\n      tag_33\n      jump\t// in\n    tag_81:\n        /* \"#utility.yul\":3137:3140   */\n      dup3\n        /* \"#utility.yul\":3130:3165   */\n      mstore\n        /* \"#utility.yul\":3059:3171   */\n      pop\n      pop\n      jump\t// out\n        /* \"#utility.yul\":3177:3292   */\n    tag_41:\n        /* \"#utility.yul\":3262:3285   */\n      tag_83\n        /* \"#utility.yul\":3279:3284   */\n      dup2\n        /* \"#utility.yul\":3262:3285   */\n      tag_36\n      jump\t// in\n    tag_83:\n        /* \"#utility.yul\":3257:3260   */\n      dup3\n        /* \"#utility.yul\":3250:3286   */\n      mstore\n        /* \"#utility.yul\":3177:3292   */\n      pop\n      pop\n      jump\t// out\n        /* \"#utility.yul\":3298:3839   */\n    tag_18:\n        /* \"#utility.yul\":3469:3473   */\n      0x00\n        /* \"#utility.yul\":3507:3510   */\n      0x80\n        /* \"#utility.yul\":3496:3505   */\n      dup3\n        /* \"#utility.yul\":3492:3511   */\n      add\n        /* \"#utility.yul\":3484:3511   */\n      swap1\n      pop\n        /* \"#utility.yul\":3521:3592   */\n      tag_85\n        /* \"#utility.yul\":3589:3590   */\n      0x00\n        /* \"#utility.yul\":3578:3587   */\n      dup4\n        /* \"#utility.yul\":3574:3591   */\n      add\n        /* \"#utility.yul\":3565:3571   */\n      dup8\n        /* \"#utility.yul\":3521:3592   */\n      tag_39\n      jump\t// in\n    tag_85:\n        /* \"#utility.yul\":3602:3670   */\n      tag_86\n        /* \"#utility.yul\":3666:3668   */\n      0x20\n        /* \"#utility.yul\":3655:3664   */\n      dup4\n        /* \"#utility.yul\":3651:3669   */\n      add\n        /* \"#utility.yul\":3642:3648   */\n      dup7\n        /* \"#utility.yul\":3602:3670   */\n      tag_40\n      jump\t// in\n    tag_86:\n        /* \"#utility.yul\":3680:3750   */\n      tag_87\n        /* \"#utility.yul\":3746:3748   */\n      0x40\n        /* \"#utility.yul\":3735:3744   */\n      dup4\n        /* \"#utility.yul\":3731:3749   */\n      add\n        /* \"#utility.yul\":3722:3728   */\n      dup6\n        /* \"#utility.yul\":3680:3750   */\n      tag_41\n      jump\t// in\n    tag_87:\n        /* \"#utility.yul\":3760:3832   */\n      tag_88\n        /* \"#utility.yul\":3828:3830   */\n      0x60\n        /* \"#utility.yul\":3817:3826   */\n      dup4\n        /* \"#utility.yul\":3813:3831   */\n      add\n        /* \"#utility.yul\":3804:3810   */\n      dup5\n        /* \"#utility.yul\":3760:3832   */\n      tag_39\n      jump\t// in\n    tag_88:\n        /* \"#utility.yul\":3298:3839   */\n      swap6\n      swap5\n      pop\n      pop\n      pop\n      pop\n      pop\n      jump\t// out\n        /* \"#utility.yul\":3845:4398   */\n    tag_22:\n        /* \"#utility.yul\":4022:4026   */\n      0x00\n        /* \"#utility.yul\":4060:4063   */\n      0x80\n        /* \"#utility.yul\":4049:4058   */\n      dup3\n        /* \"#utility.yul\":4045:4064   */\n      add\n        /* \"#utility.yul\":4037:4064   */\n      swap1\n      pop\n        /* \"#utility.yul\":4074:4145   */\n      tag_90\n        /* \"#utility.yul\":4142:4143   */\n      0x00\n        /* \"#utility.yul\":4131:4140   */\n      dup4\n        /* \"#utility.yul\":4127:4144   */\n      add\n        /* \"#utility.yul\":4118:4124   */\n      dup8\n        /* \"#utility.yul\":4074:4145   */\n      tag_39\n      jump\t// in\n    tag_90:\n        /* \"#utility.yul\":4155:4227   */\n      tag_91\n        /* \"#utility.yul\":4223:4225   */\n      0x20\n        /* \"#utility.yul\":4212:4221   */\n      dup4\n        /* \"#utility.yul\":4208:4226   */\n      add\n        /* \"#utility.yul\":4199:4205   */\n      dup7\n        /* \"#utility.yul\":4155:4227   */\n      tag_39\n      jump\t// in\n    tag_91:\n        /* \"#utility.yul\":4237:4309   */\n      tag_92\n        /* \"#utility.yul\":4305:4307   */\n      0x40\n        /* \"#utility.yul\":4294:4303   */\n      dup4\n        /* \"#utility.yul\":4290:4308   */\n      add\n        /* \"#utility.yul\":4281:4287   */\n      dup6\n        /* \"#utility.yul\":4237:4309   */\n      tag_39\n      jump\t// in\n    tag_92:\n        /* \"#utility.yul\":4319:4391   */\n      tag_93\n        /* \"#utility.yul\":4387:4389   */\n      0x60\n        /* \"#utility.yul\":4376:4385   */\n      dup4\n        /* \"#utility.yul\":4372:4390   */\n      add\n        /* \"#utility.yul\":4363:4369   */\n      dup5\n        /* \"#utility.yul\":4319:4391   */\n      tag_39\n      jump\t// in\n    tag_93:\n        /* \"#utility.yul\":3845:4398   */\n      swap6\n      swap5\n      pop\n      pop\n      pop\n      pop\n      pop\n      jump\t// out\n\n    auxdata: 0xa26469706673582212205ac24951348eb14ca21d77fe38ef4defa76c57005e632bcb16b2de05d4cb4db264736f6c63430008120033\n}\n",
				"bytecode": {
					"linkReferences": {},
					"object": "608060405234801561001057600080fd5b5061044f806100206000396000f3fe608060405234801561001057600080fd5b506004361061004c5760003560e01c806320f59bab14610051578063aa80e4921461006d578063c736694e14610089578063f010cb28146100aa575b600080fd5b61006b6004803603810190610066919061025a565b6100cb565b005b610087600480360381019061008291906102fb565b61011c565b005b610091610167565b6040516100a1949392919061038f565b60405180910390f35b6100b26101a0565b6040516100c294939291906103d4565b60405180910390f35b8360008190555082600160006101000a81548160ff021916908360ff1602179055508160ff166001806101000a81548161ffff021916908361ffff1602179055508060ff1660028190555050505050565b8360008190555082600160006101000a81548160ff021916908360ff160217905550816001806101000a81548161ffff021916908361ffff1602179055508060028190555050505050565b600080600080600054600160009054906101000a900460ff1660018054906101000a900461ffff16600254935093509350935090919293565b600080600080600054600160009054906101000a900460ff1660018054906101000a900461ffff166002548260ff1692508161ffff169150935093509350935090919293565b600080fd5b6000819050919050565b6101fe816101eb565b811461020957600080fd5b50565b60008135905061021b816101f5565b92915050565b600060ff82169050919050565b61023781610221565b811461024257600080fd5b50565b6000813590506102548161022e565b92915050565b60008060008060808587031215610274576102736101e6565b5b60006102828782880161020c565b945050602061029387828801610245565b93505060406102a487828801610245565b92505060606102b587828801610245565b91505092959194509250565b600061ffff82169050919050565b6102d8816102c1565b81146102e357600080fd5b50565b6000813590506102f5816102cf565b92915050565b60008060008060808587031215610315576103146101e6565b5b60006103238782880161020c565b945050602061033487828801610245565b9350506040610345878288016102e6565b92505060606103568782880161020c565b91505092959194509250565b61036b816101eb565b82525050565b61037a81610221565b82525050565b610389816102c1565b82525050565b60006080820190506103a46000830187610362565b6103b16020830186610371565b6103be6040830185610380565b6103cb6060830184610362565b95945050505050565b60006080820190506103e96000830187610362565b6103f66020830186610362565b6104036040830185610362565b6104106060830184610362565b9594505050505056fea26469706673582212205ac24951348eb14ca21d77fe38ef4defa76c57005e632bcb16b2de05d4cb4db264736f6c63430008120033",
					"opcodes": "PUSH1 0x80 PUSH1 0x40 MSTORE CALLVALUE DUP1 ISZERO PUSH2 0x10 JUMPI PUSH1 0x0 DUP1 REVERT JUMPDEST POP PUSH2 0x44F DUP1 PUSH2 0x20 PUSH1 0x0 CODECOPY PUSH1 0x0 RETURN INVALID PUSH1 0x80 PUSH1 0x40 MSTORE CALLVALUE DUP1 ISZERO PUSH2 0x10 JUMPI PUSH1 0x0 DUP1 REVERT JUMPDEST POP PUSH1 0x4 CALLDATASIZE LT PUSH2 0x4C JUMPI PUSH1 0x0 CALLDATALOAD PUSH1 0xE0 SHR DUP1 PUSH4 0x20F59BAB EQ PUSH2 0x51 JUMPI DUP1 PUSH4 0xAA80E492 EQ PUSH2 0x6D JUMPI DUP1 PUSH4 0xC736694E EQ PUSH2 0x89 JUMPI DUP1 PUSH4 0xF010CB28 EQ PUSH2 0xAA JUMPI JUMPDEST PUSH1 0x0 DUP1 REVERT JUMPDEST PUSH2 0x6B PUSH1 0x4 DUP1 CALLDATASIZE SUB DUP2 ADD SWAP1 PUSH2 0x66 SWAP2 SWAP1 PUSH2 0x25A JUMP JUMPDEST PUSH2 0xCB JUMP JUMPDEST STOP JUMPDEST PUSH2 0x87 PUSH1 0x4 DUP1 CALLDATASIZE SUB DUP2 ADD SWAP1 PUSH2 0x82 SWAP2 SWAP1 PUSH2 0x2FB JUMP JUMPDEST PUSH2 0x11C JUMP JUMPDEST STOP JUMPDEST PUSH2 0x91 PUSH2 0x167 JUMP JUMPDEST PUSH1 0x40 MLOAD PUSH2 0xA1 SWAP5 SWAP4 SWAP3 SWAP2 SWAP1 PUSH2 0x38F JUMP JUMPDEST PUSH1 0x40 MLOAD DUP1 SWAP2 SUB SWAP1 RETURN JUMPDEST PUSH2 0xB2 PUSH2 0x1A0 JUMP JUMPDEST PUSH1 0x40 MLOAD PUSH2 0xC2 SWAP5 SWAP4 SWAP3 SWAP2 SWAP1 PUSH2 0x3D4 JUMP JUMPDEST PUSH1 0x40 MLOAD DUP1 SWAP2 SUB SWAP1 RETURN JUMPDEST DUP4 PUSH1 0x0 DUP2 SWAP1 SSTORE POP DUP3 PUSH1 0x1 PUSH1 0x0 PUSH2 0x100 EXP DUP2 SLOAD DUP2 PUSH1 0xFF MUL NOT AND SWAP1 DUP4 PUSH1 0xFF AND MUL OR SWAP1 SSTORE POP DUP2 PUSH1 0xFF AND PUSH1 0x1 DUP1 PUSH2 0x100 EXP DUP2 SLOAD DUP2 PUSH2 0xFFFF MUL NOT AND SWAP1 DUP4 PUSH2 0xFFFF AND MUL OR SWAP1 SSTORE POP DUP1 PUSH1 0xFF AND PUSH1 0x2 DUP2 SWAP1 SSTORE POP POP POP POP POP JUMP JUMPDEST DUP4 PUSH1 0x0 DUP2 SWAP1 SSTORE POP DUP3 PUSH1 0x1 PUSH1 0x0 PUSH2 0x100 EXP DUP2 SLOAD DUP2 PUSH1 0xFF MUL NOT AND SWAP1 DUP4 PUSH1 0xFF AND MUL OR SWAP1 SSTORE POP DUP2 PUSH1 0x1 DUP1 PUSH2 0x100 EXP DUP2 SLOAD DUP2 PUSH2 0xFFFF MUL NOT AND SWAP1 DUP4 PUSH2 0xFFFF AND MUL OR SWAP1 SSTORE POP DUP1 PUSH1 0x2 DUP2 SWAP1 SSTORE POP POP POP POP POP JUMP JUMPDEST PUSH1 0x0 DUP1 PUSH1 0x0 DUP1 PUSH1 0x0 SLOAD PUSH1 0x1 PUSH1 0x0 SWAP1 SLOAD SWAP1 PUSH2 0x100 EXP SWAP1 DIV PUSH1 0xFF AND PUSH1 0x1 DUP1 SLOAD SWAP1 PUSH2 0x100 EXP SWAP1 DIV PUSH2 0xFFFF AND PUSH1 0x2 SLOAD SWAP4 POP SWAP4 POP SWAP4 POP SWAP4 POP SWAP1 SWAP2 SWAP3 SWAP4 JUMP JUMPDEST PUSH1 0x0 DUP1 PUSH1 0x0 DUP1 PUSH1 0x0 SLOAD PUSH1 0x1 PUSH1 0x0 SWAP1 SLOAD SWAP1 PUSH2 0x100 EXP SWAP1 DIV PUSH1 0xFF AND PUSH1 0x1 DUP1 SLOAD SWAP1 PUSH2 0x100 EXP SWAP1 DIV PUSH2 0xFFFF AND PUSH1 0x2 SLOAD DUP3 PUSH1 0xFF AND SWAP3 POP DUP2 PUSH2 0xFFFF AND SWAP2 POP SWAP4 POP SWAP4 POP SWAP4 POP SWAP4 POP SWAP1 SWAP2 SWAP3 SWAP4 JUMP JUMPDEST PUSH1 0x0 DUP1 REVERT JUMPDEST PUSH1 0x0 DUP2 SWAP1 POP SWAP2 SWAP1 POP JUMP JUMPDEST PUSH2 0x1FE DUP2 PUSH2 0x1EB JUMP JUMPDEST DUP2 EQ PUSH2 0x209 JUMPI PUSH1 0x0 DUP1 REVERT JUMPDEST POP JUMP JUMPDEST PUSH1 0x0 DUP2 CALLDATALOAD SWAP1 POP PUSH2 0x21B DUP2 PUSH2 0x1F5 JUMP JUMPDEST SWAP3 SWAP2 POP POP JUMP JUMPDEST PUSH1 0x0 PUSH1 0xFF DUP3 AND SWAP1 POP SWAP2 SWAP1 POP JUMP JUMPDEST PUSH2 0x237 DUP2 PUSH2 0x221 JUMP JUMPDEST DUP2 EQ PUSH2 0x242 JUMPI PUSH1 0x0 DUP1 REVERT JUMPDEST POP JUMP JUMPDEST PUSH1 0x0 DUP2 CALLDATALOAD SWAP1 POP PUSH2 0x254 DUP2 PUSH2 0x22E JUMP JUMPDEST SWAP3 SWAP2 POP POP JUMP JUMPDEST PUSH1 0x0 DUP1 PUSH1 0x0 DUP1 PUSH1 0x80 DUP6 DUP8 SUB SLT ISZERO PUSH2 0x274 JUMPI PUSH2 0x273 PUSH2 0x1E6 JUMP JUMPDEST JUMPDEST PUSH1 0x0 PUSH2 0x282 DUP8 DUP3 DUP9 ADD PUSH2 0x20C JUMP JUMPDEST SWAP5 POP POP PUSH1 0x20 PUSH2 0x293 DUP8 DUP3 DUP9 ADD PUSH2 0x245 JUMP JUMPDEST SWAP4 POP POP PUSH1 0x40 PUSH2 0x2A4 DUP8 DUP3 DUP9 ADD PUSH2 0x245 JUMP JUMPDEST SWAP3 POP POP PUSH1 0x60 PUSH2 0x2B5 DUP8 DUP3 DUP9 ADD PUSH2 0x245 JUMP JUMPDEST SWAP2 POP POP SWAP3 SWAP6 SWAP2 SWAP5 POP SWAP3 POP JUMP JUMPDEST PUSH1 0x0 PUSH2 0xFFFF DUP3 AND SWAP1 POP SWAP2 SWAP1 POP JUMP JUMPDEST PUSH2 0x2D8 DUP2 PUSH2 0x2C1 JUMP JUMPDEST DUP2 EQ PUSH2 0x2E3 JUMPI PUSH1 0x0 DUP1 REVERT JUMPDEST POP JUMP JUMPDEST PUSH1 0x0 DUP2 CALLDATALOAD SWAP1 POP PUSH2 0x2F5 DUP2 PUSH2 0x2CF JUMP JUMPDEST SWAP3 SWAP2 POP POP JUMP JUMPDEST PUSH1 0x0 DUP1 PUSH1 0x0 DUP1 PUSH1 0x80 DUP6 DUP8 SUB SLT ISZERO PUSH2 0x315 JUMPI PUSH2 0x314 PUSH2 0x1E6 JUMP JUMPDEST JUMPDEST PUSH1 0x0 PUSH2 0x323 DUP8 DUP3 DUP9 ADD PUSH2 0x20C JUMP JUMPDEST SWAP5 POP POP PUSH1 0x20 PUSH2 0x334 DUP8 DUP3 DUP9 ADD PUSH2 0x245 JUMP JUMPDEST SWAP4 POP POP PUSH1 0x40 PUSH2 0x345 DUP8 DUP3 DUP9 ADD PUSH2 0x2E6 JUMP JUMPDEST SWAP3 POP POP PUSH1 0x60 PUSH2 0x356 DUP8 DUP3 DUP9 ADD PUSH2 0x20C JUMP JUMPDEST SWAP2 POP POP SWAP3 SWAP6 SWAP2 SWAP5 POP SWAP3 POP JUMP JUMPDEST PUSH2 0x36B DUP2 PUSH2 0x1EB JUMP JUMPDEST DUP3 MSTORE POP POP JUMP JUMPDEST PUSH2 0x37A DUP2 PUSH2 0x221 JUMP JUMPDEST DUP3 MSTORE POP POP JUMP JUMPDEST PUSH2 0x389 DUP2 PUSH2 0x2C1 JUMP JUMPDEST DUP3 MSTORE POP POP JUMP JUMPDEST PUSH1 0x0 PUSH1 0x80 DUP3 ADD SWAP1 POP PUSH2 0x3A4 PUSH1 0x0 DUP4 ADD DUP8 PUSH2 0x362 JUMP JUMPDEST PUSH2 0x3B1 PUSH1 0x20 DUP4 ADD DUP7 PUSH2 0x371 JUMP JUMPDEST PUSH2 0x3BE PUSH1 0x40 DUP4 ADD DUP6 PUSH2 0x380 JUMP JUMPDEST PUSH2 0x3CB PUSH1 0x60 DUP4 ADD DUP5 PUSH2 0x362 JUMP JUMPDEST SWAP6 SWAP5 POP POP POP POP POP JUMP JUMPDEST PUSH1 0x0 PUSH1 0x80 DUP3 ADD SWAP1 POP PUSH2 0x3E9 PUSH1 0x0 DUP4 ADD DUP8 PUSH2 0x362 JUMP JUMPDEST PUSH2 0x3F6 PUSH1 0x20 DUP4 ADD DUP7 PUSH2 0x362 JUMP JUMPDEST PUSH2 0x403 PUSH1 0x40 DUP4 ADD DUP6 PUSH2 0x362 JUMP JUMPDEST PUSH2 0x410 PUSH1 0x60 DUP4 ADD DUP5 PUSH2 0x362 JUMP JUMPDEST SWAP6 SWAP5 POP POP POP POP POP JUMP INVALID LOG2 PUSH5 0x6970667358 0x22 SLT KECCAK256 GAS 0xC2 0x49 MLOAD CALLVALUE DUP15 0xB1 0x4C LOG2 SAR PUSH24 0xFE38EF4DEFA76C57005E632BCB16B2DE05D4CB4DB264736F PUSH13 0x63430008120033000000000000 "
				},
				"gasEstimates": {
					"creation": {
						"codeDepositCost": "220600",
						"executionCost": "263",
						"totalCost": "220863"
					},
					"external": {
						"getABCD()": "infinite",
						"getABCD2()": "infinite",
						"setABCD(uint256,uint8,uint16,uint256)": "infinite",
						"setABCD2(uint256,uint8,uint8,uint8)": "infinite"
					}
				},
				"methodIdentifiers": {
					"getABCD()": "c736694e",
					"getABCD2()": "f010cb28",
					"setABCD(uint256,uint8,uint16,uint256)": "aa80e492",
					"setABCD2(uint256,uint8,uint8,uint8)": "20f59bab"
				}
			},
			"storageLayout": {
				"storage": [
					{
						"astId": 3,
						"contract": "contracts-lecture/230504-1.sol:UINTBYTES",
						"label": "a",
						"offset": 0,
						"slot": "0",
						"type": "t_uint256"
					},
					{
						"astId": 5,
						"contract": "contracts-lecture/230504-1.sol:UINTBYTES",
						"label": "b",
						"offset": 0,
						"slot": "1",
						"type": "t_uint8"
					},
					{
						"astId": 7,
						"contract": "contracts-lecture/230504-1.sol:UINTBYTES",
						"label": "c",
						"offset": 1,
						"slot": "1",
						"type": "t_uint16"
					},
					{
						"astId": 9,
						"contract": "contracts-lecture/230504-1.sol:UINTBYTES",
						"label": "d",
						"offset": 0,
						"slot": "2",
						"type": "t_uint256"
					}
				],
				"types": {
					"t_uint16": {
						"encoding": "inplace",
						"label": "uint16",
						"numberOfBytes": "2"
					},
					"t_uint256": {
						"encoding": "inplace",
						"label": "uint256",
						"numberOfBytes": "32"
					},
					"t_uint8": {
						"encoding": "inplace",
						"label": "uint8",
						"numberOfBytes": "1"
					}
				}
			},
			"userdoc": {
				"kind": "user",
				"methods": {},
				"version": 1
			}
		}
	}
}