{
	"contracts-lecture/230508-2.sol": {
		"note": {
			"abi": [
				{
					"inputs": [
						{
							"internalType": "uint256",
							"name": "_number",
							"type": "uint256"
						},
						{
							"internalType": "string",
							"name": "_name",
							"type": "string"
						},
						{
							"internalType": "bytes2",
							"name": "_password",
							"type": "bytes2"
						}
					],
					"name": "pushMember",
					"outputs": [],
					"stateMutability": "nonpayable",
					"type": "function"
				},
				{
					"inputs": [
						{
							"internalType": "uint256",
							"name": "_number",
							"type": "uint256"
						},
						{
							"internalType": "string",
							"name": "_name",
							"type": "string"
						},
						{
							"internalType": "bytes2",
							"name": "_password",
							"type": "bytes2"
						}
					],
					"name": "setM",
					"outputs": [],
					"stateMutability": "nonpayable",
					"type": "function"
				}
			],
			"devdoc": {
				"kind": "dev",
				"methods": {},
				"version": 1
			},
			"evm": {
				"assembly": "    /* \"contracts-lecture/230508-2.sol\":452:896  contract note {... */\n  mstore(0x40, 0x80)\n  callvalue\n  dup1\n  iszero\n  tag_1\n  jumpi\n  0x00\n  dup1\n  revert\ntag_1:\n  pop\n  dataSize(sub_0)\n  dup1\n  dataOffset(sub_0)\n  0x00\n  codecopy\n  0x00\n  return\nstop\n\nsub_0: assembly {\n        /* \"contracts-lecture/230508-2.sol\":452:896  contract note {... */\n      mstore(0x40, 0x80)\n      callvalue\n      dup1\n      iszero\n      tag_1\n      jumpi\n      0x00\n      dup1\n      revert\n    tag_1:\n      pop\n      jumpi(tag_2, lt(calldatasize, 0x04))\n      shr(0xe0, calldataload(0x00))\n      dup1\n      0x49d3b319\n      eq\n      tag_3\n      jumpi\n      dup1\n      0x719a0017\n      eq\n      tag_4\n      jumpi\n    tag_2:\n      0x00\n      dup1\n      revert\n        /* \"contracts-lecture/230508-2.sol\":750:894  function pushMember(uint _number, string memory _name, bytes2 _password) public {... */\n    tag_3:\n      tag_5\n      0x04\n      dup1\n      calldatasize\n      sub\n      dup2\n      add\n      swap1\n      tag_6\n      swap2\n      swap1\n      tag_7\n      jump\t// in\n    tag_6:\n      tag_8\n      jump\t// in\n    tag_5:\n      stop\n        /* \"contracts-lecture/230508-2.sol\":587:721  function setM(uint _number, string memory _name, bytes2 _password) public {... */\n    tag_4:\n      tag_9\n      0x04\n      dup1\n      calldatasize\n      sub\n      dup2\n      add\n      swap1\n      tag_10\n      swap2\n      swap1\n      tag_7\n      jump\t// in\n    tag_10:\n      tag_11\n      jump\t// in\n    tag_9:\n      stop\n        /* \"contracts-lecture/230508-2.sol\":750:894  function pushMember(uint _number, string memory _name, bytes2 _password) public {... */\n    tag_8:\n        /* \"contracts-lecture/230508-2.sol\":840:847  members */\n      0x03\n        /* \"contracts-lecture/230508-2.sol\":853:886  member(_number, _name, _password) */\n      mload(0x40)\n      dup1\n      0x60\n      add\n      0x40\n      mstore\n      dup1\n        /* \"contracts-lecture/230508-2.sol\":860:867  _number */\n      dup6\n        /* \"contracts-lecture/230508-2.sol\":853:886  member(_number, _name, _password) */\n      dup2\n      mstore\n      0x20\n      add\n        /* \"contracts-lecture/230508-2.sol\":869:874  _name */\n      dup5\n        /* \"contracts-lecture/230508-2.sol\":853:886  member(_number, _name, _password) */\n      dup2\n      mstore\n      0x20\n      add\n        /* \"contracts-lecture/230508-2.sol\":876:885  _password */\n      dup4\n        /* \"contracts-lecture/230508-2.sol\":853:886  member(_number, _name, _password) */\n      not(0xffffffffffffffffffffffffffffffffffffffffffffffffffffffffffff)\n      and\n      dup2\n      mstore\n      pop\n        /* \"contracts-lecture/230508-2.sol\":840:887  members.push(member(_number, _name, _password)) */\n      swap1\n      dup1\n      0x01\n      dup2\n      sload\n      add\n      dup1\n      dup3\n      sstore\n      dup1\n      swap2\n      pop\n      pop\n      0x01\n      swap1\n      sub\n      swap1\n      0x00\n      mstore\n      keccak256(0x00, 0x20)\n      swap1\n      0x03\n      mul\n      add\n      0x00\n      swap1\n      swap2\n      swap1\n      swap2\n      swap1\n      swap2\n      pop\n      0x00\n      dup3\n      add\n      mload\n      dup2\n      0x00\n      add\n      sstore\n      0x20\n      dup3\n      add\n      mload\n      dup2\n      0x01\n      add\n      swap1\n      dup2\n      tag_14\n      swap2\n      swap1\n      tag_15\n      jump\t// in\n    tag_14:\n      pop\n      0x40\n      dup3\n      add\n      mload\n      dup2\n      0x02\n      add\n      exp(0x0100, 0x00)\n      dup2\n      sload\n      dup2\n      0xffff\n      mul\n      not\n      and\n      swap1\n      dup4\n      0xf0\n      shr\n      mul\n      or\n      swap1\n      sstore\n      pop\n      pop\n      pop\n        /* \"contracts-lecture/230508-2.sol\":750:894  function pushMember(uint _number, string memory _name, bytes2 _password) public {... */\n      pop\n      pop\n      pop\n      jump\t// out\n        /* \"contracts-lecture/230508-2.sol\":587:721  function setM(uint _number, string memory _name, bytes2 _password) public {... */\n    tag_11:\n        /* \"contracts-lecture/230508-2.sol\":681:714  member(_number, _name, _password) */\n      mload(0x40)\n      dup1\n      0x60\n      add\n      0x40\n      mstore\n      dup1\n        /* \"contracts-lecture/230508-2.sol\":688:695  _number */\n      dup5\n        /* \"contracts-lecture/230508-2.sol\":681:714  member(_number, _name, _password) */\n      dup2\n      mstore\n      0x20\n      add\n        /* \"contracts-lecture/230508-2.sol\":697:702  _name */\n      dup4\n        /* \"contracts-lecture/230508-2.sol\":681:714  member(_number, _name, _password) */\n      dup2\n      mstore\n      0x20\n      add\n        /* \"contracts-lecture/230508-2.sol\":704:713  _password */\n      dup3\n        /* \"contracts-lecture/230508-2.sol\":681:714  member(_number, _name, _password) */\n      not(0xffffffffffffffffffffffffffffffffffffffffffffffffffffffffffff)\n      and\n      dup2\n      mstore\n      pop\n        /* \"contracts-lecture/230508-2.sol\":671:678  Michael */\n      0x00\n        /* \"contracts-lecture/230508-2.sol\":671:714  Michael = member(_number, _name, _password) */\n      dup1\n      dup3\n      add\n      mload\n      dup2\n      0x00\n      add\n      sstore\n      0x20\n      dup3\n      add\n      mload\n      dup2\n      0x01\n      add\n      swap1\n      dup2\n      tag_17\n      swap2\n      swap1\n      tag_15\n      jump\t// in\n    tag_17:\n      pop\n      0x40\n      dup3\n      add\n      mload\n      dup2\n      0x02\n      add\n      exp(0x0100, 0x00)\n      dup2\n      sload\n      dup2\n      0xffff\n      mul\n      not\n      and\n      swap1\n      dup4\n      0xf0\n      shr\n      mul\n      or\n      swap1\n      sstore\n      pop\n      swap1\n      pop\n      pop\n        /* \"contracts-lecture/230508-2.sol\":587:721  function setM(uint _number, string memory _name, bytes2 _password) public {... */\n      pop\n      pop\n      pop\n      jump\t// out\n        /* \"#utility.yul\":7:82   */\n    tag_18:\n        /* \"#utility.yul\":40:46   */\n      0x00\n        /* \"#utility.yul\":73:75   */\n      0x40\n        /* \"#utility.yul\":67:76   */\n      mload\n        /* \"#utility.yul\":57:76   */\n      swap1\n      pop\n        /* \"#utility.yul\":7:82   */\n      swap1\n      jump\t// out\n        /* \"#utility.yul\":88:205   */\n    tag_19:\n        /* \"#utility.yul\":197:198   */\n      0x00\n        /* \"#utility.yul\":194:195   */\n      dup1\n        /* \"#utility.yul\":187:199   */\n      revert\n        /* \"#utility.yul\":211:328   */\n    tag_20:\n        /* \"#utility.yul\":320:321   */\n      0x00\n        /* \"#utility.yul\":317:318   */\n      dup1\n        /* \"#utility.yul\":310:322   */\n      revert\n        /* \"#utility.yul\":334:411   */\n    tag_21:\n        /* \"#utility.yul\":371:378   */\n      0x00\n        /* \"#utility.yul\":400:405   */\n      dup2\n        /* \"#utility.yul\":389:405   */\n      swap1\n      pop\n        /* \"#utility.yul\":334:411   */\n      swap2\n      swap1\n      pop\n      jump\t// out\n        /* \"#utility.yul\":417:539   */\n    tag_22:\n        /* \"#utility.yul\":490:514   */\n      tag_61\n        /* \"#utility.yul\":508:513   */\n      dup2\n        /* \"#utility.yul\":490:514   */\n      tag_21\n      jump\t// in\n    tag_61:\n        /* \"#utility.yul\":483:488   */\n      dup2\n        /* \"#utility.yul\":480:515   */\n      eq\n        /* \"#utility.yul\":470:533   */\n      tag_62\n      jumpi\n        /* \"#utility.yul\":529:530   */\n      0x00\n        /* \"#utility.yul\":526:527   */\n      dup1\n        /* \"#utility.yul\":519:531   */\n      revert\n        /* \"#utility.yul\":470:533   */\n    tag_62:\n        /* \"#utility.yul\":417:539   */\n      pop\n      jump\t// out\n        /* \"#utility.yul\":545:684   */\n    tag_23:\n        /* \"#utility.yul\":591:596   */\n      0x00\n        /* \"#utility.yul\":629:635   */\n      dup2\n        /* \"#utility.yul\":616:636   */\n      calldataload\n        /* \"#utility.yul\":607:636   */\n      swap1\n      pop\n        /* \"#utility.yul\":645:678   */\n      tag_64\n        /* \"#utility.yul\":672:677   */\n      dup2\n        /* \"#utility.yul\":645:678   */\n      tag_22\n      jump\t// in\n    tag_64:\n        /* \"#utility.yul\":545:684   */\n      swap3\n      swap2\n      pop\n      pop\n      jump\t// out\n        /* \"#utility.yul\":690:807   */\n    tag_24:\n        /* \"#utility.yul\":799:800   */\n      0x00\n        /* \"#utility.yul\":796:797   */\n      dup1\n        /* \"#utility.yul\":789:801   */\n      revert\n        /* \"#utility.yul\":813:930   */\n    tag_25:\n        /* \"#utility.yul\":922:923   */\n      0x00\n        /* \"#utility.yul\":919:920   */\n      dup1\n        /* \"#utility.yul\":912:924   */\n      revert\n        /* \"#utility.yul\":936:1038   */\n    tag_26:\n        /* \"#utility.yul\":977:983   */\n      0x00\n        /* \"#utility.yul\":1028:1030   */\n      0x1f\n        /* \"#utility.yul\":1024:1031   */\n      not\n        /* \"#utility.yul\":1019:1021   */\n      0x1f\n        /* \"#utility.yul\":1012:1017   */\n      dup4\n        /* \"#utility.yul\":1008:1022   */\n      add\n        /* \"#utility.yul\":1004:1032   */\n      and\n        /* \"#utility.yul\":994:1032   */\n      swap1\n      pop\n        /* \"#utility.yul\":936:1038   */\n      swap2\n      swap1\n      pop\n      jump\t// out\n        /* \"#utility.yul\":1044:1224   */\n    tag_27:\n        /* \"#utility.yul\":1092:1169   */\n      0x4e487b7100000000000000000000000000000000000000000000000000000000\n        /* \"#utility.yul\":1089:1090   */\n      0x00\n        /* \"#utility.yul\":1082:1170   */\n      mstore\n        /* \"#utility.yul\":1189:1193   */\n      0x41\n        /* \"#utility.yul\":1186:1187   */\n      0x04\n        /* \"#utility.yul\":1179:1194   */\n      mstore\n        /* \"#utility.yul\":1213:1217   */\n      0x24\n        /* \"#utility.yul\":1210:1211   */\n      0x00\n        /* \"#utility.yul\":1203:1218   */\n      revert\n        /* \"#utility.yul\":1230:1511   */\n    tag_28:\n        /* \"#utility.yul\":1313:1340   */\n      tag_70\n        /* \"#utility.yul\":1335:1339   */\n      dup3\n        /* \"#utility.yul\":1313:1340   */\n      tag_26\n      jump\t// in\n    tag_70:\n        /* \"#utility.yul\":1305:1311   */\n      dup2\n        /* \"#utility.yul\":1301:1341   */\n      add\n        /* \"#utility.yul\":1443:1449   */\n      dup2\n        /* \"#utility.yul\":1431:1441   */\n      dup2\n        /* \"#utility.yul\":1428:1450   */\n      lt\n        /* \"#utility.yul\":1407:1425   */\n      0xffffffffffffffff\n        /* \"#utility.yul\":1395:1405   */\n      dup3\n        /* \"#utility.yul\":1392:1426   */\n      gt\n        /* \"#utility.yul\":1389:1451   */\n      or\n        /* \"#utility.yul\":1386:1474   */\n      iszero\n      tag_71\n      jumpi\n        /* \"#utility.yul\":1454:1472   */\n      tag_72\n      tag_27\n      jump\t// in\n    tag_72:\n        /* \"#utility.yul\":1386:1474   */\n    tag_71:\n        /* \"#utility.yul\":1494:1504   */\n      dup1\n        /* \"#utility.yul\":1490:1492   */\n      0x40\n        /* \"#utility.yul\":1483:1505   */\n      mstore\n        /* \"#utility.yul\":1273:1511   */\n      pop\n        /* \"#utility.yul\":1230:1511   */\n      pop\n      pop\n      jump\t// out\n        /* \"#utility.yul\":1517:1646   */\n    tag_29:\n        /* \"#utility.yul\":1551:1557   */\n      0x00\n        /* \"#utility.yul\":1578:1598   */\n      tag_74\n      tag_18\n      jump\t// in\n    tag_74:\n        /* \"#utility.yul\":1568:1598   */\n      swap1\n      pop\n        /* \"#utility.yul\":1607:1640   */\n      tag_75\n        /* \"#utility.yul\":1635:1639   */\n      dup3\n        /* \"#utility.yul\":1627:1633   */\n      dup3\n        /* \"#utility.yul\":1607:1640   */\n      tag_28\n      jump\t// in\n    tag_75:\n        /* \"#utility.yul\":1517:1646   */\n      swap2\n      swap1\n      pop\n      jump\t// out\n        /* \"#utility.yul\":1652:1960   */\n    tag_30:\n        /* \"#utility.yul\":1714:1718   */\n      0x00\n        /* \"#utility.yul\":1804:1822   */\n      0xffffffffffffffff\n        /* \"#utility.yul\":1796:1802   */\n      dup3\n        /* \"#utility.yul\":1793:1823   */\n      gt\n        /* \"#utility.yul\":1790:1846   */\n      iszero\n      tag_77\n      jumpi\n        /* \"#utility.yul\":1826:1844   */\n      tag_78\n      tag_27\n      jump\t// in\n    tag_78:\n        /* \"#utility.yul\":1790:1846   */\n    tag_77:\n        /* \"#utility.yul\":1864:1893   */\n      tag_79\n        /* \"#utility.yul\":1886:1892   */\n      dup3\n        /* \"#utility.yul\":1864:1893   */\n      tag_26\n      jump\t// in\n    tag_79:\n        /* \"#utility.yul\":1856:1893   */\n      swap1\n      pop\n        /* \"#utility.yul\":1948:1952   */\n      0x20\n        /* \"#utility.yul\":1942:1946   */\n      dup2\n        /* \"#utility.yul\":1938:1953   */\n      add\n        /* \"#utility.yul\":1930:1953   */\n      swap1\n      pop\n        /* \"#utility.yul\":1652:1960   */\n      swap2\n      swap1\n      pop\n      jump\t// out\n        /* \"#utility.yul\":1966:2112   */\n    tag_31:\n        /* \"#utility.yul\":2063:2069   */\n      dup3\n        /* \"#utility.yul\":2058:2061   */\n      dup2\n        /* \"#utility.yul\":2053:2056   */\n      dup4\n        /* \"#utility.yul\":2040:2070   */\n      calldatacopy\n        /* \"#utility.yul\":2104:2105   */\n      0x00\n        /* \"#utility.yul\":2095:2101   */\n      dup4\n        /* \"#utility.yul\":2090:2093   */\n      dup4\n        /* \"#utility.yul\":2086:2102   */\n      add\n        /* \"#utility.yul\":2079:2106   */\n      mstore\n        /* \"#utility.yul\":1966:2112   */\n      pop\n      pop\n      pop\n      jump\t// out\n        /* \"#utility.yul\":2118:2543   */\n    tag_32:\n        /* \"#utility.yul\":2196:2201   */\n      0x00\n        /* \"#utility.yul\":2221:2287   */\n      tag_82\n        /* \"#utility.yul\":2237:2286   */\n      tag_83\n        /* \"#utility.yul\":2279:2285   */\n      dup5\n        /* \"#utility.yul\":2237:2286   */\n      tag_30\n      jump\t// in\n    tag_83:\n        /* \"#utility.yul\":2221:2287   */\n      tag_29\n      jump\t// in\n    tag_82:\n        /* \"#utility.yul\":2212:2287   */\n      swap1\n      pop\n        /* \"#utility.yul\":2310:2316   */\n      dup3\n        /* \"#utility.yul\":2303:2308   */\n      dup2\n        /* \"#utility.yul\":2296:2317   */\n      mstore\n        /* \"#utility.yul\":2348:2352   */\n      0x20\n        /* \"#utility.yul\":2341:2346   */\n      dup2\n        /* \"#utility.yul\":2337:2353   */\n      add\n        /* \"#utility.yul\":2386:2389   */\n      dup5\n        /* \"#utility.yul\":2377:2383   */\n      dup5\n        /* \"#utility.yul\":2372:2375   */\n      dup5\n        /* \"#utility.yul\":2368:2384   */\n      add\n        /* \"#utility.yul\":2365:2390   */\n      gt\n        /* \"#utility.yul\":2362:2474   */\n      iszero\n      tag_84\n      jumpi\n        /* \"#utility.yul\":2393:2472   */\n      tag_85\n      tag_25\n      jump\t// in\n    tag_85:\n        /* \"#utility.yul\":2362:2474   */\n    tag_84:\n        /* \"#utility.yul\":2483:2537   */\n      tag_86\n        /* \"#utility.yul\":2530:2536   */\n      dup5\n        /* \"#utility.yul\":2525:2528   */\n      dup3\n        /* \"#utility.yul\":2520:2523   */\n      dup6\n        /* \"#utility.yul\":2483:2537   */\n      tag_31\n      jump\t// in\n    tag_86:\n        /* \"#utility.yul\":2202:2543   */\n      pop\n        /* \"#utility.yul\":2118:2543   */\n      swap4\n      swap3\n      pop\n      pop\n      pop\n      jump\t// out\n        /* \"#utility.yul\":2563:2903   */\n    tag_33:\n        /* \"#utility.yul\":2619:2624   */\n      0x00\n        /* \"#utility.yul\":2668:2671   */\n      dup3\n        /* \"#utility.yul\":2661:2665   */\n      0x1f\n        /* \"#utility.yul\":2653:2659   */\n      dup4\n        /* \"#utility.yul\":2649:2666   */\n      add\n        /* \"#utility.yul\":2645:2672   */\n      slt\n        /* \"#utility.yul\":2635:2757   */\n      tag_88\n      jumpi\n        /* \"#utility.yul\":2676:2755   */\n      tag_89\n      tag_24\n      jump\t// in\n    tag_89:\n        /* \"#utility.yul\":2635:2757   */\n    tag_88:\n        /* \"#utility.yul\":2793:2799   */\n      dup2\n        /* \"#utility.yul\":2780:2800   */\n      calldataload\n        /* \"#utility.yul\":2818:2897   */\n      tag_90\n        /* \"#utility.yul\":2893:2896   */\n      dup5\n        /* \"#utility.yul\":2885:2891   */\n      dup3\n        /* \"#utility.yul\":2878:2882   */\n      0x20\n        /* \"#utility.yul\":2870:2876   */\n      dup7\n        /* \"#utility.yul\":2866:2883   */\n      add\n        /* \"#utility.yul\":2818:2897   */\n      tag_32\n      jump\t// in\n    tag_90:\n        /* \"#utility.yul\":2809:2897   */\n      swap2\n      pop\n        /* \"#utility.yul\":2625:2903   */\n      pop\n        /* \"#utility.yul\":2563:2903   */\n      swap3\n      swap2\n      pop\n      pop\n      jump\t// out\n        /* \"#utility.yul\":2909:3058   */\n    tag_34:\n        /* \"#utility.yul\":2945:2952   */\n      0x00\n        /* \"#utility.yul\":2985:3051   */\n      0xffff000000000000000000000000000000000000000000000000000000000000\n        /* \"#utility.yul\":2978:2983   */\n      dup3\n        /* \"#utility.yul\":2974:3052   */\n      and\n        /* \"#utility.yul\":2963:3052   */\n      swap1\n      pop\n        /* \"#utility.yul\":2909:3058   */\n      swap2\n      swap1\n      pop\n      jump\t// out\n        /* \"#utility.yul\":3064:3184   */\n    tag_35:\n        /* \"#utility.yul\":3136:3159   */\n      tag_93\n        /* \"#utility.yul\":3153:3158   */\n      dup2\n        /* \"#utility.yul\":3136:3159   */\n      tag_34\n      jump\t// in\n    tag_93:\n        /* \"#utility.yul\":3129:3134   */\n      dup2\n        /* \"#utility.yul\":3126:3160   */\n      eq\n        /* \"#utility.yul\":3116:3178   */\n      tag_94\n      jumpi\n        /* \"#utility.yul\":3174:3175   */\n      0x00\n        /* \"#utility.yul\":3171:3172   */\n      dup1\n        /* \"#utility.yul\":3164:3176   */\n      revert\n        /* \"#utility.yul\":3116:3178   */\n    tag_94:\n        /* \"#utility.yul\":3064:3184   */\n      pop\n      jump\t// out\n        /* \"#utility.yul\":3190:3327   */\n    tag_36:\n        /* \"#utility.yul\":3235:3240   */\n      0x00\n        /* \"#utility.yul\":3273:3279   */\n      dup2\n        /* \"#utility.yul\":3260:3280   */\n      calldataload\n        /* \"#utility.yul\":3251:3280   */\n      swap1\n      pop\n        /* \"#utility.yul\":3289:3321   */\n      tag_96\n        /* \"#utility.yul\":3315:3320   */\n      dup2\n        /* \"#utility.yul\":3289:3321   */\n      tag_35\n      jump\t// in\n    tag_96:\n        /* \"#utility.yul\":3190:3327   */\n      swap3\n      swap2\n      pop\n      pop\n      jump\t// out\n        /* \"#utility.yul\":3333:4130   */\n    tag_7:\n        /* \"#utility.yul\":3419:3425   */\n      0x00\n        /* \"#utility.yul\":3427:3433   */\n      dup1\n        /* \"#utility.yul\":3435:3441   */\n      0x00\n        /* \"#utility.yul\":3484:3486   */\n      0x60\n        /* \"#utility.yul\":3472:3481   */\n      dup5\n        /* \"#utility.yul\":3463:3470   */\n      dup7\n        /* \"#utility.yul\":3459:3482   */\n      sub\n        /* \"#utility.yul\":3455:3487   */\n      slt\n        /* \"#utility.yul\":3452:3571   */\n      iszero\n      tag_98\n      jumpi\n        /* \"#utility.yul\":3490:3569   */\n      tag_99\n      tag_19\n      jump\t// in\n    tag_99:\n        /* \"#utility.yul\":3452:3571   */\n    tag_98:\n        /* \"#utility.yul\":3610:3611   */\n      0x00\n        /* \"#utility.yul\":3635:3688   */\n      tag_100\n        /* \"#utility.yul\":3680:3687   */\n      dup7\n        /* \"#utility.yul\":3671:3677   */\n      dup3\n        /* \"#utility.yul\":3660:3669   */\n      dup8\n        /* \"#utility.yul\":3656:3678   */\n      add\n        /* \"#utility.yul\":3635:3688   */\n      tag_23\n      jump\t// in\n    tag_100:\n        /* \"#utility.yul\":3625:3688   */\n      swap4\n      pop\n        /* \"#utility.yul\":3581:3698   */\n      pop\n        /* \"#utility.yul\":3765:3767   */\n      0x20\n        /* \"#utility.yul\":3754:3763   */\n      dup5\n        /* \"#utility.yul\":3750:3768   */\n      add\n        /* \"#utility.yul\":3737:3769   */\n      calldataload\n        /* \"#utility.yul\":3796:3814   */\n      0xffffffffffffffff\n        /* \"#utility.yul\":3788:3794   */\n      dup2\n        /* \"#utility.yul\":3785:3815   */\n      gt\n        /* \"#utility.yul\":3782:3899   */\n      iszero\n      tag_101\n      jumpi\n        /* \"#utility.yul\":3818:3897   */\n      tag_102\n      tag_20\n      jump\t// in\n    tag_102:\n        /* \"#utility.yul\":3782:3899   */\n    tag_101:\n        /* \"#utility.yul\":3923:3986   */\n      tag_103\n        /* \"#utility.yul\":3978:3985   */\n      dup7\n        /* \"#utility.yul\":3969:3975   */\n      dup3\n        /* \"#utility.yul\":3958:3967   */\n      dup8\n        /* \"#utility.yul\":3954:3976   */\n      add\n        /* \"#utility.yul\":3923:3986   */\n      tag_33\n      jump\t// in\n    tag_103:\n        /* \"#utility.yul\":3913:3986   */\n      swap3\n      pop\n        /* \"#utility.yul\":3708:3996   */\n      pop\n        /* \"#utility.yul\":4035:4037   */\n      0x40\n        /* \"#utility.yul\":4061:4113   */\n      tag_104\n        /* \"#utility.yul\":4105:4112   */\n      dup7\n        /* \"#utility.yul\":4096:4102   */\n      dup3\n        /* \"#utility.yul\":4085:4094   */\n      dup8\n        /* \"#utility.yul\":4081:4103   */\n      add\n        /* \"#utility.yul\":4061:4113   */\n      tag_36\n      jump\t// in\n    tag_104:\n        /* \"#utility.yul\":4051:4113   */\n      swap2\n      pop\n        /* \"#utility.yul\":4006:4123   */\n      pop\n        /* \"#utility.yul\":3333:4130   */\n      swap3\n      pop\n      swap3\n      pop\n      swap3\n      jump\t// out\n        /* \"#utility.yul\":4136:4235   */\n    tag_37:\n        /* \"#utility.yul\":4188:4194   */\n      0x00\n        /* \"#utility.yul\":4222:4227   */\n      dup2\n        /* \"#utility.yul\":4216:4228   */\n      mload\n        /* \"#utility.yul\":4206:4228   */\n      swap1\n      pop\n        /* \"#utility.yul\":4136:4235   */\n      swap2\n      swap1\n      pop\n      jump\t// out\n        /* \"#utility.yul\":4241:4421   */\n    tag_38:\n        /* \"#utility.yul\":4289:4366   */\n      0x4e487b7100000000000000000000000000000000000000000000000000000000\n        /* \"#utility.yul\":4286:4287   */\n      0x00\n        /* \"#utility.yul\":4279:4367   */\n      mstore\n        /* \"#utility.yul\":4386:4390   */\n      0x22\n        /* \"#utility.yul\":4383:4384   */\n      0x04\n        /* \"#utility.yul\":4376:4391   */\n      mstore\n        /* \"#utility.yul\":4410:4414   */\n      0x24\n        /* \"#utility.yul\":4407:4408   */\n      0x00\n        /* \"#utility.yul\":4400:4415   */\n      revert\n        /* \"#utility.yul\":4427:4747   */\n    tag_39:\n        /* \"#utility.yul\":4471:4477   */\n      0x00\n        /* \"#utility.yul\":4508:4509   */\n      0x02\n        /* \"#utility.yul\":4502:4506   */\n      dup3\n        /* \"#utility.yul\":4498:4510   */\n      div\n        /* \"#utility.yul\":4488:4510   */\n      swap1\n      pop\n        /* \"#utility.yul\":4555:4556   */\n      0x01\n        /* \"#utility.yul\":4549:4553   */\n      dup3\n        /* \"#utility.yul\":4545:4557   */\n      and\n        /* \"#utility.yul\":4576:4594   */\n      dup1\n        /* \"#utility.yul\":4566:4647   */\n      tag_108\n      jumpi\n        /* \"#utility.yul\":4632:4636   */\n      0x7f\n        /* \"#utility.yul\":4624:4630   */\n      dup3\n        /* \"#utility.yul\":4620:4637   */\n      and\n        /* \"#utility.yul\":4610:4637   */\n      swap2\n      pop\n        /* \"#utility.yul\":4566:4647   */\n    tag_108:\n        /* \"#utility.yul\":4694:4696   */\n      0x20\n        /* \"#utility.yul\":4686:4692   */\n      dup3\n        /* \"#utility.yul\":4683:4697   */\n      lt\n        /* \"#utility.yul\":4663:4681   */\n      dup2\n        /* \"#utility.yul\":4660:4698   */\n      sub\n        /* \"#utility.yul\":4657:4741   */\n      tag_109\n      jumpi\n        /* \"#utility.yul\":4713:4731   */\n      tag_110\n      tag_38\n      jump\t// in\n    tag_110:\n        /* \"#utility.yul\":4657:4741   */\n    tag_109:\n        /* \"#utility.yul\":4478:4747   */\n      pop\n        /* \"#utility.yul\":4427:4747   */\n      swap2\n      swap1\n      pop\n      jump\t// out\n        /* \"#utility.yul\":4753:4894   */\n    tag_40:\n        /* \"#utility.yul\":4802:4806   */\n      0x00\n        /* \"#utility.yul\":4825:4828   */\n      dup2\n        /* \"#utility.yul\":4817:4828   */\n      swap1\n      pop\n        /* \"#utility.yul\":4848:4851   */\n      dup2\n        /* \"#utility.yul\":4845:4846   */\n      0x00\n        /* \"#utility.yul\":4838:4852   */\n      mstore\n        /* \"#utility.yul\":4882:4886   */\n      0x20\n        /* \"#utility.yul\":4879:4880   */\n      0x00\n        /* \"#utility.yul\":4869:4887   */\n      keccak256\n        /* \"#utility.yul\":4861:4887   */\n      swap1\n      pop\n        /* \"#utility.yul\":4753:4894   */\n      swap2\n      swap1\n      pop\n      jump\t// out\n        /* \"#utility.yul\":4900:4993   */\n    tag_41:\n        /* \"#utility.yul\":4937:4943   */\n      0x00\n        /* \"#utility.yul\":4984:4986   */\n      0x20\n        /* \"#utility.yul\":4979:4981   */\n      0x1f\n        /* \"#utility.yul\":4972:4977   */\n      dup4\n        /* \"#utility.yul\":4968:4982   */\n      add\n        /* \"#utility.yul\":4964:4987   */\n      div\n        /* \"#utility.yul\":4954:4987   */\n      swap1\n      pop\n        /* \"#utility.yul\":4900:4993   */\n      swap2\n      swap1\n      pop\n      jump\t// out\n        /* \"#utility.yul\":4999:5106   */\n    tag_42:\n        /* \"#utility.yul\":5043:5051   */\n      0x00\n        /* \"#utility.yul\":5093:5098   */\n      dup3\n        /* \"#utility.yul\":5087:5091   */\n      dup3\n        /* \"#utility.yul\":5083:5099   */\n      shl\n        /* \"#utility.yul\":5062:5099   */\n      swap1\n      pop\n        /* \"#utility.yul\":4999:5106   */\n      swap3\n      swap2\n      pop\n      pop\n      jump\t// out\n        /* \"#utility.yul\":5112:5505   */\n    tag_43:\n        /* \"#utility.yul\":5181:5187   */\n      0x00\n        /* \"#utility.yul\":5231:5232   */\n      0x08\n        /* \"#utility.yul\":5219:5229   */\n      dup4\n        /* \"#utility.yul\":5215:5233   */\n      mul\n        /* \"#utility.yul\":5254:5351   */\n      tag_115\n        /* \"#utility.yul\":5284:5350   */\n      0xffffffffffffffffffffffffffffffffffffffffffffffffffffffffffffffff\n        /* \"#utility.yul\":5273:5282   */\n      dup3\n        /* \"#utility.yul\":5254:5351   */\n      tag_42\n      jump\t// in\n    tag_115:\n        /* \"#utility.yul\":5372:5411   */\n      tag_116\n        /* \"#utility.yul\":5402:5410   */\n      dup7\n        /* \"#utility.yul\":5391:5400   */\n      dup4\n        /* \"#utility.yul\":5372:5411   */\n      tag_42\n      jump\t// in\n    tag_116:\n        /* \"#utility.yul\":5360:5411   */\n      swap6\n      pop\n        /* \"#utility.yul\":5444:5448   */\n      dup1\n        /* \"#utility.yul\":5440:5449   */\n      not\n        /* \"#utility.yul\":5433:5438   */\n      dup5\n        /* \"#utility.yul\":5429:5450   */\n      and\n        /* \"#utility.yul\":5420:5450   */\n      swap4\n      pop\n        /* \"#utility.yul\":5493:5497   */\n      dup1\n        /* \"#utility.yul\":5483:5491   */\n      dup7\n        /* \"#utility.yul\":5479:5498   */\n      and\n        /* \"#utility.yul\":5472:5477   */\n      dup5\n        /* \"#utility.yul\":5469:5499   */\n      or\n        /* \"#utility.yul\":5459:5499   */\n      swap3\n      pop\n        /* \"#utility.yul\":5188:5505   */\n      pop\n      pop\n        /* \"#utility.yul\":5112:5505   */\n      swap4\n      swap3\n      pop\n      pop\n      pop\n      jump\t// out\n        /* \"#utility.yul\":5511:5571   */\n    tag_44:\n        /* \"#utility.yul\":5539:5542   */\n      0x00\n        /* \"#utility.yul\":5560:5565   */\n      dup2\n        /* \"#utility.yul\":5553:5565   */\n      swap1\n      pop\n        /* \"#utility.yul\":5511:5571   */\n      swap2\n      swap1\n      pop\n      jump\t// out\n        /* \"#utility.yul\":5577:5719   */\n    tag_45:\n        /* \"#utility.yul\":5627:5636   */\n      0x00\n        /* \"#utility.yul\":5660:5713   */\n      tag_119\n        /* \"#utility.yul\":5678:5712   */\n      tag_120\n        /* \"#utility.yul\":5687:5711   */\n      tag_121\n        /* \"#utility.yul\":5705:5710   */\n      dup5\n        /* \"#utility.yul\":5687:5711   */\n      tag_21\n      jump\t// in\n    tag_121:\n        /* \"#utility.yul\":5678:5712   */\n      tag_44\n      jump\t// in\n    tag_120:\n        /* \"#utility.yul\":5660:5713   */\n      tag_21\n      jump\t// in\n    tag_119:\n        /* \"#utility.yul\":5647:5713   */\n      swap1\n      pop\n        /* \"#utility.yul\":5577:5719   */\n      swap2\n      swap1\n      pop\n      jump\t// out\n        /* \"#utility.yul\":5725:5800   */\n    tag_46:\n        /* \"#utility.yul\":5768:5771   */\n      0x00\n        /* \"#utility.yul\":5789:5794   */\n      dup2\n        /* \"#utility.yul\":5782:5794   */\n      swap1\n      pop\n        /* \"#utility.yul\":5725:5800   */\n      swap2\n      swap1\n      pop\n      jump\t// out\n        /* \"#utility.yul\":5806:6075   */\n    tag_47:\n        /* \"#utility.yul\":5916:5955   */\n      tag_124\n        /* \"#utility.yul\":5947:5954   */\n      dup4\n        /* \"#utility.yul\":5916:5955   */\n      tag_45\n      jump\t// in\n    tag_124:\n        /* \"#utility.yul\":5977:6068   */\n      tag_125\n        /* \"#utility.yul\":6026:6067   */\n      tag_126\n        /* \"#utility.yul\":6050:6066   */\n      dup3\n        /* \"#utility.yul\":6026:6067   */\n      tag_46\n      jump\t// in\n    tag_126:\n        /* \"#utility.yul\":6018:6024   */\n      dup5\n        /* \"#utility.yul\":6011:6015   */\n      dup5\n        /* \"#utility.yul\":6005:6016   */\n      sload\n        /* \"#utility.yul\":5977:6068   */\n      tag_43\n      jump\t// in\n    tag_125:\n        /* \"#utility.yul\":5971:5975   */\n      dup3\n        /* \"#utility.yul\":5964:6069   */\n      sstore\n        /* \"#utility.yul\":5882:6075   */\n      pop\n        /* \"#utility.yul\":5806:6075   */\n      pop\n      pop\n      pop\n      jump\t// out\n        /* \"#utility.yul\":6081:6154   */\n    tag_48:\n        /* \"#utility.yul\":6126:6129   */\n      0x00\n        /* \"#utility.yul\":6081:6154   */\n      swap1\n      jump\t// out\n        /* \"#utility.yul\":6160:6349   */\n    tag_49:\n        /* \"#utility.yul\":6237:6269   */\n      tag_129\n      tag_48\n      jump\t// in\n    tag_129:\n        /* \"#utility.yul\":6278:6343   */\n      tag_130\n        /* \"#utility.yul\":6336:6342   */\n      dup2\n        /* \"#utility.yul\":6328:6334   */\n      dup5\n        /* \"#utility.yul\":6322:6326   */\n      dup5\n        /* \"#utility.yul\":6278:6343   */\n      tag_47\n      jump\t// in\n    tag_130:\n        /* \"#utility.yul\":6213:6349   */\n      pop\n        /* \"#utility.yul\":6160:6349   */\n      pop\n      pop\n      jump\t// out\n        /* \"#utility.yul\":6355:6541   */\n    tag_50:\n        /* \"#utility.yul\":6415:6535   */\n    tag_132:\n        /* \"#utility.yul\":6432:6435   */\n      dup2\n        /* \"#utility.yul\":6425:6430   */\n      dup2\n        /* \"#utility.yul\":6422:6436   */\n      lt\n        /* \"#utility.yul\":6415:6535   */\n      iszero\n      tag_134\n      jumpi\n        /* \"#utility.yul\":6486:6525   */\n      tag_135\n        /* \"#utility.yul\":6523:6524   */\n      0x00\n        /* \"#utility.yul\":6516:6521   */\n      dup3\n        /* \"#utility.yul\":6486:6525   */\n      tag_49\n      jump\t// in\n    tag_135:\n        /* \"#utility.yul\":6459:6460   */\n      0x01\n        /* \"#utility.yul\":6452:6457   */\n      dup2\n        /* \"#utility.yul\":6448:6461   */\n      add\n        /* \"#utility.yul\":6439:6461   */\n      swap1\n      pop\n        /* \"#utility.yul\":6415:6535   */\n      jump(tag_132)\n    tag_134:\n        /* \"#utility.yul\":6355:6541   */\n      pop\n      pop\n      jump\t// out\n        /* \"#utility.yul\":6547:7090   */\n    tag_51:\n        /* \"#utility.yul\":6648:6650   */\n      0x1f\n        /* \"#utility.yul\":6643:6646   */\n      dup3\n        /* \"#utility.yul\":6640:6651   */\n      gt\n        /* \"#utility.yul\":6637:7083   */\n      iszero\n      tag_137\n      jumpi\n        /* \"#utility.yul\":6682:6720   */\n      tag_138\n        /* \"#utility.yul\":6714:6719   */\n      dup2\n        /* \"#utility.yul\":6682:6720   */\n      tag_40\n      jump\t// in\n    tag_138:\n        /* \"#utility.yul\":6766:6795   */\n      tag_139\n        /* \"#utility.yul\":6784:6794   */\n      dup5\n        /* \"#utility.yul\":6766:6795   */\n      tag_41\n      jump\t// in\n    tag_139:\n        /* \"#utility.yul\":6756:6764   */\n      dup2\n        /* \"#utility.yul\":6752:6796   */\n      add\n        /* \"#utility.yul\":6949:6951   */\n      0x20\n        /* \"#utility.yul\":6937:6947   */\n      dup6\n        /* \"#utility.yul\":6934:6952   */\n      lt\n        /* \"#utility.yul\":6931:6980   */\n      iszero\n      tag_140\n      jumpi\n        /* \"#utility.yul\":6970:6978   */\n      dup2\n        /* \"#utility.yul\":6955:6978   */\n      swap1\n      pop\n        /* \"#utility.yul\":6931:6980   */\n    tag_140:\n        /* \"#utility.yul\":6993:7073   */\n      tag_141\n        /* \"#utility.yul\":7049:7071   */\n      tag_142\n        /* \"#utility.yul\":7067:7070   */\n      dup6\n        /* \"#utility.yul\":7049:7071   */\n      tag_41\n      jump\t// in\n    tag_142:\n        /* \"#utility.yul\":7039:7047   */\n      dup4\n        /* \"#utility.yul\":7035:7072   */\n      add\n        /* \"#utility.yul\":7022:7033   */\n      dup3\n        /* \"#utility.yul\":6993:7073   */\n      tag_50\n      jump\t// in\n    tag_141:\n        /* \"#utility.yul\":6652:7083   */\n      pop\n      pop\n        /* \"#utility.yul\":6637:7083   */\n    tag_137:\n        /* \"#utility.yul\":6547:7090   */\n      pop\n      pop\n      pop\n      jump\t// out\n        /* \"#utility.yul\":7096:7213   */\n    tag_52:\n        /* \"#utility.yul\":7150:7158   */\n      0x00\n        /* \"#utility.yul\":7200:7205   */\n      dup3\n        /* \"#utility.yul\":7194:7198   */\n      dup3\n        /* \"#utility.yul\":7190:7206   */\n      shr\n        /* \"#utility.yul\":7169:7206   */\n      swap1\n      pop\n        /* \"#utility.yul\":7096:7213   */\n      swap3\n      swap2\n      pop\n      pop\n      jump\t// out\n        /* \"#utility.yul\":7219:7388   */\n    tag_53:\n        /* \"#utility.yul\":7263:7269   */\n      0x00\n        /* \"#utility.yul\":7296:7347   */\n      tag_145\n        /* \"#utility.yul\":7344:7345   */\n      0x00\n        /* \"#utility.yul\":7340:7346   */\n      not\n        /* \"#utility.yul\":7332:7337   */\n      dup5\n        /* \"#utility.yul\":7329:7330   */\n      0x08\n        /* \"#utility.yul\":7325:7338   */\n      mul\n        /* \"#utility.yul\":7296:7347   */\n      tag_52\n      jump\t// in\n    tag_145:\n        /* \"#utility.yul\":7292:7348   */\n      not\n        /* \"#utility.yul\":7377:7381   */\n      dup1\n        /* \"#utility.yul\":7371:7375   */\n      dup4\n        /* \"#utility.yul\":7367:7382   */\n      and\n        /* \"#utility.yul\":7357:7382   */\n      swap2\n      pop\n        /* \"#utility.yul\":7270:7388   */\n      pop\n        /* \"#utility.yul\":7219:7388   */\n      swap3\n      swap2\n      pop\n      pop\n      jump\t// out\n        /* \"#utility.yul\":7393:7688   */\n    tag_54:\n        /* \"#utility.yul\":7469:7473   */\n      0x00\n        /* \"#utility.yul\":7615:7644   */\n      tag_147\n        /* \"#utility.yul\":7640:7643   */\n      dup4\n        /* \"#utility.yul\":7634:7638   */\n      dup4\n        /* \"#utility.yul\":7615:7644   */\n      tag_53\n      jump\t// in\n    tag_147:\n        /* \"#utility.yul\":7607:7644   */\n      swap2\n      pop\n        /* \"#utility.yul\":7677:7680   */\n      dup3\n        /* \"#utility.yul\":7674:7675   */\n      0x02\n        /* \"#utility.yul\":7670:7681   */\n      mul\n        /* \"#utility.yul\":7664:7668   */\n      dup3\n        /* \"#utility.yul\":7661:7682   */\n      or\n        /* \"#utility.yul\":7653:7682   */\n      swap1\n      pop\n        /* \"#utility.yul\":7393:7688   */\n      swap3\n      swap2\n      pop\n      pop\n      jump\t// out\n        /* \"#utility.yul\":7693:9088   */\n    tag_15:\n        /* \"#utility.yul\":7810:7847   */\n      tag_149\n        /* \"#utility.yul\":7843:7846   */\n      dup3\n        /* \"#utility.yul\":7810:7847   */\n      tag_37\n      jump\t// in\n    tag_149:\n        /* \"#utility.yul\":7912:7930   */\n      0xffffffffffffffff\n        /* \"#utility.yul\":7904:7910   */\n      dup2\n        /* \"#utility.yul\":7901:7931   */\n      gt\n        /* \"#utility.yul\":7898:7954   */\n      iszero\n      tag_150\n      jumpi\n        /* \"#utility.yul\":7934:7952   */\n      tag_151\n      tag_27\n      jump\t// in\n    tag_151:\n        /* \"#utility.yul\":7898:7954   */\n    tag_150:\n        /* \"#utility.yul\":7978:8016   */\n      tag_152\n        /* \"#utility.yul\":8010:8014   */\n      dup3\n        /* \"#utility.yul\":8004:8015   */\n      sload\n        /* \"#utility.yul\":7978:8016   */\n      tag_39\n      jump\t// in\n    tag_152:\n        /* \"#utility.yul\":8063:8130   */\n      tag_153\n        /* \"#utility.yul\":8123:8129   */\n      dup3\n        /* \"#utility.yul\":8115:8121   */\n      dup3\n        /* \"#utility.yul\":8109:8113   */\n      dup6\n        /* \"#utility.yul\":8063:8130   */\n      tag_51\n      jump\t// in\n    tag_153:\n        /* \"#utility.yul\":8157:8158   */\n      0x00\n        /* \"#utility.yul\":8181:8185   */\n      0x20\n        /* \"#utility.yul\":8168:8185   */\n      swap1\n      pop\n        /* \"#utility.yul\":8213:8215   */\n      0x1f\n        /* \"#utility.yul\":8205:8211   */\n      dup4\n        /* \"#utility.yul\":8202:8216   */\n      gt\n        /* \"#utility.yul\":8230:8231   */\n      0x01\n        /* \"#utility.yul\":8225:8843   */\n      dup2\n      eq\n      tag_155\n      jumpi\n        /* \"#utility.yul\":8887:8888   */\n      0x00\n        /* \"#utility.yul\":8904:8910   */\n      dup5\n        /* \"#utility.yul\":8901:8978   */\n      iszero\n      tag_156\n      jumpi\n        /* \"#utility.yul\":8953:8962   */\n      dup3\n        /* \"#utility.yul\":8948:8951   */\n      dup8\n        /* \"#utility.yul\":8944:8963   */\n      add\n        /* \"#utility.yul\":8938:8964   */\n      mload\n        /* \"#utility.yul\":8929:8964   */\n      swap1\n      pop\n        /* \"#utility.yul\":8901:8978   */\n    tag_156:\n        /* \"#utility.yul\":9004:9071   */\n      tag_157\n        /* \"#utility.yul\":9064:9070   */\n      dup6\n        /* \"#utility.yul\":9057:9062   */\n      dup3\n        /* \"#utility.yul\":9004:9071   */\n      tag_54\n      jump\t// in\n    tag_157:\n        /* \"#utility.yul\":8998:9002   */\n      dup7\n        /* \"#utility.yul\":8991:9072   */\n      sstore\n        /* \"#utility.yul\":8860:9082   */\n      pop\n        /* \"#utility.yul\":8195:9082   */\n      jump(tag_154)\n        /* \"#utility.yul\":8225:8843   */\n    tag_155:\n        /* \"#utility.yul\":8277:8281   */\n      0x1f\n        /* \"#utility.yul\":8273:8282   */\n      not\n        /* \"#utility.yul\":8265:8271   */\n      dup5\n        /* \"#utility.yul\":8261:8283   */\n      and\n        /* \"#utility.yul\":8311:8348   */\n      tag_158\n        /* \"#utility.yul\":8343:8347   */\n      dup7\n        /* \"#utility.yul\":8311:8348   */\n      tag_40\n      jump\t// in\n    tag_158:\n        /* \"#utility.yul\":8370:8371   */\n      0x00\n        /* \"#utility.yul\":8384:8592   */\n    tag_159:\n        /* \"#utility.yul\":8398:8405   */\n      dup3\n        /* \"#utility.yul\":8395:8396   */\n      dup2\n        /* \"#utility.yul\":8392:8406   */\n      lt\n        /* \"#utility.yul\":8384:8592   */\n      iszero\n      tag_161\n      jumpi\n        /* \"#utility.yul\":8477:8486   */\n      dup5\n        /* \"#utility.yul\":8472:8475   */\n      dup10\n        /* \"#utility.yul\":8468:8487   */\n      add\n        /* \"#utility.yul\":8462:8488   */\n      mload\n        /* \"#utility.yul\":8454:8460   */\n      dup3\n        /* \"#utility.yul\":8447:8489   */\n      sstore\n        /* \"#utility.yul\":8528:8529   */\n      0x01\n        /* \"#utility.yul\":8520:8526   */\n      dup3\n        /* \"#utility.yul\":8516:8530   */\n      add\n        /* \"#utility.yul\":8506:8530   */\n      swap2\n      pop\n        /* \"#utility.yul\":8575:8577   */\n      0x20\n        /* \"#utility.yul\":8564:8573   */\n      dup6\n        /* \"#utility.yul\":8560:8578   */\n      add\n        /* \"#utility.yul\":8547:8578   */\n      swap5\n      pop\n        /* \"#utility.yul\":8421:8425   */\n      0x20\n        /* \"#utility.yul\":8418:8419   */\n      dup2\n        /* \"#utility.yul\":8414:8426   */\n      add\n        /* \"#utility.yul\":8409:8426   */\n      swap1\n      pop\n        /* \"#utility.yul\":8384:8592   */\n      jump(tag_159)\n    tag_161:\n        /* \"#utility.yul\":8620:8626   */\n      dup7\n        /* \"#utility.yul\":8611:8618   */\n      dup4\n        /* \"#utility.yul\":8608:8627   */\n      lt\n        /* \"#utility.yul\":8605:8784   */\n      iszero\n      tag_162\n      jumpi\n        /* \"#utility.yul\":8678:8687   */\n      dup5\n        /* \"#utility.yul\":8673:8676   */\n      dup10\n        /* \"#utility.yul\":8669:8688   */\n      add\n        /* \"#utility.yul\":8663:8689   */\n      mload\n        /* \"#utility.yul\":8721:8769   */\n      tag_163\n        /* \"#utility.yul\":8763:8767   */\n      0x1f\n        /* \"#utility.yul\":8755:8761   */\n      dup10\n        /* \"#utility.yul\":8751:8768   */\n      and\n        /* \"#utility.yul\":8740:8749   */\n      dup3\n        /* \"#utility.yul\":8721:8769   */\n      tag_53\n      jump\t// in\n    tag_163:\n        /* \"#utility.yul\":8713:8719   */\n      dup4\n        /* \"#utility.yul\":8706:8770   */\n      sstore\n        /* \"#utility.yul\":8628:8784   */\n      pop\n        /* \"#utility.yul\":8605:8784   */\n    tag_162:\n        /* \"#utility.yul\":8830:8831   */\n      0x01\n        /* \"#utility.yul\":8826:8827   */\n      0x02\n        /* \"#utility.yul\":8818:8824   */\n      dup9\n        /* \"#utility.yul\":8814:8828   */\n      mul\n        /* \"#utility.yul\":8810:8832   */\n      add\n        /* \"#utility.yul\":8804:8808   */\n      dup9\n        /* \"#utility.yul\":8797:8833   */\n      sstore\n        /* \"#utility.yul\":8232:8843   */\n      pop\n      pop\n      pop\n        /* \"#utility.yul\":8195:9082   */\n    tag_154:\n      pop\n        /* \"#utility.yul\":7785:9088   */\n      pop\n      pop\n      pop\n        /* \"#utility.yul\":7693:9088   */\n      pop\n      pop\n      jump\t// out\n\n    auxdata: 0xa26469706673582212206c9413f193bcdf5de22d9724da187413ccc35b9880771ea7617c3a1536ce379964736f6c63430008120033\n}\n",
				"bytecode": {
					"linkReferences": {},
					"object": "608060405234801561001057600080fd5b50610720806100206000396000f3fe608060405234801561001057600080fd5b50600436106100365760003560e01c806349d3b3191461003b578063719a001714610057575b600080fd5b61005560048036038101906100509190610392565b610073565b005b610071600480360381019061006c9190610392565b610123565b005b60036040518060600160405280858152602001848152602001837dffffffffffffffffffffffffffffffffffffffffffffffffffffffffffff191681525090806001815401808255809150506001900390600052602060002090600302016000909190919091506000820151816000015560208201518160010190816100f99190610618565b5060408201518160020160006101000a81548161ffff021916908360f01c02179055505050505050565b6040518060600160405280848152602001838152602001827dffffffffffffffffffffffffffffffffffffffffffffffffffffffffffff19168152506000808201518160000155602082015181600101908161017f9190610618565b5060408201518160020160006101000a81548161ffff021916908360f01c0217905550905050505050565b6000604051905090565b600080fd5b600080fd5b6000819050919050565b6101d1816101be565b81146101dc57600080fd5b50565b6000813590506101ee816101c8565b92915050565b600080fd5b600080fd5b6000601f19601f8301169050919050565b7f4e487b7100000000000000000000000000000000000000000000000000000000600052604160045260246000fd5b610247826101fe565b810181811067ffffffffffffffff821117156102665761026561020f565b5b80604052505050565b60006102796101aa565b9050610285828261023e565b919050565b600067ffffffffffffffff8211156102a5576102a461020f565b5b6102ae826101fe565b9050602081019050919050565b82818337600083830152505050565b60006102dd6102d88461028a565b61026f565b9050828152602081018484840111156102f9576102f86101f9565b5b6103048482856102bb565b509392505050565b600082601f830112610321576103206101f4565b5b81356103318482602086016102ca565b91505092915050565b60007fffff00000000000000000000000000000000000000000000000000000000000082169050919050565b61036f8161033a565b811461037a57600080fd5b50565b60008135905061038c81610366565b92915050565b6000806000606084860312156103ab576103aa6101b4565b5b60006103b9868287016101df565b935050602084013567ffffffffffffffff8111156103da576103d96101b9565b5b6103e68682870161030c565b92505060406103f78682870161037d565b9150509250925092565b600081519050919050565b7f4e487b7100000000000000000000000000000000000000000000000000000000600052602260045260246000fd5b6000600282049050600182168061045357607f821691505b6020821081036104665761046561040c565b5b50919050565b60008190508160005260206000209050919050565b60006020601f8301049050919050565b600082821b905092915050565b6000600883026104ce7fffffffffffffffffffffffffffffffffffffffffffffffffffffffffffffffff82610491565b6104d88683610491565b95508019841693508086168417925050509392505050565b6000819050919050565b600061051561051061050b846101be565b6104f0565b6101be565b9050919050565b6000819050919050565b61052f836104fa565b61054361053b8261051c565b84845461049e565b825550505050565b600090565b61055861054b565b610563818484610526565b505050565b5b818110156105875761057c600082610550565b600181019050610569565b5050565b601f8211156105cc5761059d8161046c565b6105a684610481565b810160208510156105b5578190505b6105c96105c185610481565b830182610568565b50505b505050565b600082821c905092915050565b60006105ef600019846008026105d1565b1980831691505092915050565b600061060883836105de565b9150826002028217905092915050565b61062182610401565b67ffffffffffffffff81111561063a5761063961020f565b5b610644825461043b565b61064f82828561058b565b600060209050601f8311600181146106825760008415610670578287015190505b61067a85826105fc565b8655506106e2565b601f1984166106908661046c565b60005b828110156106b857848901518255600182019150602085019450602081019050610693565b868310156106d557848901516106d1601f8916826105de565b8355505b6001600288020188555050505b50505050505056fea26469706673582212206c9413f193bcdf5de22d9724da187413ccc35b9880771ea7617c3a1536ce379964736f6c63430008120033",
					"opcodes": "PUSH1 0x80 PUSH1 0x40 MSTORE CALLVALUE DUP1 ISZERO PUSH2 0x10 JUMPI PUSH1 0x0 DUP1 REVERT JUMPDEST POP PUSH2 0x720 DUP1 PUSH2 0x20 PUSH1 0x0 CODECOPY PUSH1 0x0 RETURN INVALID PUSH1 0x80 PUSH1 0x40 MSTORE CALLVALUE DUP1 ISZERO PUSH2 0x10 JUMPI PUSH1 0x0 DUP1 REVERT JUMPDEST POP PUSH1 0x4 CALLDATASIZE LT PUSH2 0x36 JUMPI PUSH1 0x0 CALLDATALOAD PUSH1 0xE0 SHR DUP1 PUSH4 0x49D3B319 EQ PUSH2 0x3B JUMPI DUP1 PUSH4 0x719A0017 EQ PUSH2 0x57 JUMPI JUMPDEST PUSH1 0x0 DUP1 REVERT JUMPDEST PUSH2 0x55 PUSH1 0x4 DUP1 CALLDATASIZE SUB DUP2 ADD SWAP1 PUSH2 0x50 SWAP2 SWAP1 PUSH2 0x392 JUMP JUMPDEST PUSH2 0x73 JUMP JUMPDEST STOP JUMPDEST PUSH2 0x71 PUSH1 0x4 DUP1 CALLDATASIZE SUB DUP2 ADD SWAP1 PUSH2 0x6C SWAP2 SWAP1 PUSH2 0x392 JUMP JUMPDEST PUSH2 0x123 JUMP JUMPDEST STOP JUMPDEST PUSH1 0x3 PUSH1 0x40 MLOAD DUP1 PUSH1 0x60 ADD PUSH1 0x40 MSTORE DUP1 DUP6 DUP2 MSTORE PUSH1 0x20 ADD DUP5 DUP2 MSTORE PUSH1 0x20 ADD DUP4 PUSH30 0xFFFFFFFFFFFFFFFFFFFFFFFFFFFFFFFFFFFFFFFFFFFFFFFFFFFFFFFFFFFF NOT AND DUP2 MSTORE POP SWAP1 DUP1 PUSH1 0x1 DUP2 SLOAD ADD DUP1 DUP3 SSTORE DUP1 SWAP2 POP POP PUSH1 0x1 SWAP1 SUB SWAP1 PUSH1 0x0 MSTORE PUSH1 0x20 PUSH1 0x0 KECCAK256 SWAP1 PUSH1 0x3 MUL ADD PUSH1 0x0 SWAP1 SWAP2 SWAP1 SWAP2 SWAP1 SWAP2 POP PUSH1 0x0 DUP3 ADD MLOAD DUP2 PUSH1 0x0 ADD SSTORE PUSH1 0x20 DUP3 ADD MLOAD DUP2 PUSH1 0x1 ADD SWAP1 DUP2 PUSH2 0xF9 SWAP2 SWAP1 PUSH2 0x618 JUMP JUMPDEST POP PUSH1 0x40 DUP3 ADD MLOAD DUP2 PUSH1 0x2 ADD PUSH1 0x0 PUSH2 0x100 EXP DUP2 SLOAD DUP2 PUSH2 0xFFFF MUL NOT AND SWAP1 DUP4 PUSH1 0xF0 SHR MUL OR SWAP1 SSTORE POP POP POP POP POP POP JUMP JUMPDEST PUSH1 0x40 MLOAD DUP1 PUSH1 0x60 ADD PUSH1 0x40 MSTORE DUP1 DUP5 DUP2 MSTORE PUSH1 0x20 ADD DUP4 DUP2 MSTORE PUSH1 0x20 ADD DUP3 PUSH30 0xFFFFFFFFFFFFFFFFFFFFFFFFFFFFFFFFFFFFFFFFFFFFFFFFFFFFFFFFFFFF NOT AND DUP2 MSTORE POP PUSH1 0x0 DUP1 DUP3 ADD MLOAD DUP2 PUSH1 0x0 ADD SSTORE PUSH1 0x20 DUP3 ADD MLOAD DUP2 PUSH1 0x1 ADD SWAP1 DUP2 PUSH2 0x17F SWAP2 SWAP1 PUSH2 0x618 JUMP JUMPDEST POP PUSH1 0x40 DUP3 ADD MLOAD DUP2 PUSH1 0x2 ADD PUSH1 0x0 PUSH2 0x100 EXP DUP2 SLOAD DUP2 PUSH2 0xFFFF MUL NOT AND SWAP1 DUP4 PUSH1 0xF0 SHR MUL OR SWAP1 SSTORE POP SWAP1 POP POP POP POP POP JUMP JUMPDEST PUSH1 0x0 PUSH1 0x40 MLOAD SWAP1 POP SWAP1 JUMP JUMPDEST PUSH1 0x0 DUP1 REVERT JUMPDEST PUSH1 0x0 DUP1 REVERT JUMPDEST PUSH1 0x0 DUP2 SWAP1 POP SWAP2 SWAP1 POP JUMP JUMPDEST PUSH2 0x1D1 DUP2 PUSH2 0x1BE JUMP JUMPDEST DUP2 EQ PUSH2 0x1DC JUMPI PUSH1 0x0 DUP1 REVERT JUMPDEST POP JUMP JUMPDEST PUSH1 0x0 DUP2 CALLDATALOAD SWAP1 POP PUSH2 0x1EE DUP2 PUSH2 0x1C8 JUMP JUMPDEST SWAP3 SWAP2 POP POP JUMP JUMPDEST PUSH1 0x0 DUP1 REVERT JUMPDEST PUSH1 0x0 DUP1 REVERT JUMPDEST PUSH1 0x0 PUSH1 0x1F NOT PUSH1 0x1F DUP4 ADD AND SWAP1 POP SWAP2 SWAP1 POP JUMP JUMPDEST PUSH32 0x4E487B7100000000000000000000000000000000000000000000000000000000 PUSH1 0x0 MSTORE PUSH1 0x41 PUSH1 0x4 MSTORE PUSH1 0x24 PUSH1 0x0 REVERT JUMPDEST PUSH2 0x247 DUP3 PUSH2 0x1FE JUMP JUMPDEST DUP2 ADD DUP2 DUP2 LT PUSH8 0xFFFFFFFFFFFFFFFF DUP3 GT OR ISZERO PUSH2 0x266 JUMPI PUSH2 0x265 PUSH2 0x20F JUMP JUMPDEST JUMPDEST DUP1 PUSH1 0x40 MSTORE POP POP POP JUMP JUMPDEST PUSH1 0x0 PUSH2 0x279 PUSH2 0x1AA JUMP JUMPDEST SWAP1 POP PUSH2 0x285 DUP3 DUP3 PUSH2 0x23E JUMP JUMPDEST SWAP2 SWAP1 POP JUMP JUMPDEST PUSH1 0x0 PUSH8 0xFFFFFFFFFFFFFFFF DUP3 GT ISZERO PUSH2 0x2A5 JUMPI PUSH2 0x2A4 PUSH2 0x20F JUMP JUMPDEST JUMPDEST PUSH2 0x2AE DUP3 PUSH2 0x1FE JUMP JUMPDEST SWAP1 POP PUSH1 0x20 DUP2 ADD SWAP1 POP SWAP2 SWAP1 POP JUMP JUMPDEST DUP3 DUP2 DUP4 CALLDATACOPY PUSH1 0x0 DUP4 DUP4 ADD MSTORE POP POP POP JUMP JUMPDEST PUSH1 0x0 PUSH2 0x2DD PUSH2 0x2D8 DUP5 PUSH2 0x28A JUMP JUMPDEST PUSH2 0x26F JUMP JUMPDEST SWAP1 POP DUP3 DUP2 MSTORE PUSH1 0x20 DUP2 ADD DUP5 DUP5 DUP5 ADD GT ISZERO PUSH2 0x2F9 JUMPI PUSH2 0x2F8 PUSH2 0x1F9 JUMP JUMPDEST JUMPDEST PUSH2 0x304 DUP5 DUP3 DUP6 PUSH2 0x2BB JUMP JUMPDEST POP SWAP4 SWAP3 POP POP POP JUMP JUMPDEST PUSH1 0x0 DUP3 PUSH1 0x1F DUP4 ADD SLT PUSH2 0x321 JUMPI PUSH2 0x320 PUSH2 0x1F4 JUMP JUMPDEST JUMPDEST DUP2 CALLDATALOAD PUSH2 0x331 DUP5 DUP3 PUSH1 0x20 DUP7 ADD PUSH2 0x2CA JUMP JUMPDEST SWAP2 POP POP SWAP3 SWAP2 POP POP JUMP JUMPDEST PUSH1 0x0 PUSH32 0xFFFF000000000000000000000000000000000000000000000000000000000000 DUP3 AND SWAP1 POP SWAP2 SWAP1 POP JUMP JUMPDEST PUSH2 0x36F DUP2 PUSH2 0x33A JUMP JUMPDEST DUP2 EQ PUSH2 0x37A JUMPI PUSH1 0x0 DUP1 REVERT JUMPDEST POP JUMP JUMPDEST PUSH1 0x0 DUP2 CALLDATALOAD SWAP1 POP PUSH2 0x38C DUP2 PUSH2 0x366 JUMP JUMPDEST SWAP3 SWAP2 POP POP JUMP JUMPDEST PUSH1 0x0 DUP1 PUSH1 0x0 PUSH1 0x60 DUP5 DUP7 SUB SLT ISZERO PUSH2 0x3AB JUMPI PUSH2 0x3AA PUSH2 0x1B4 JUMP JUMPDEST JUMPDEST PUSH1 0x0 PUSH2 0x3B9 DUP7 DUP3 DUP8 ADD PUSH2 0x1DF JUMP JUMPDEST SWAP4 POP POP PUSH1 0x20 DUP5 ADD CALLDATALOAD PUSH8 0xFFFFFFFFFFFFFFFF DUP2 GT ISZERO PUSH2 0x3DA JUMPI PUSH2 0x3D9 PUSH2 0x1B9 JUMP JUMPDEST JUMPDEST PUSH2 0x3E6 DUP7 DUP3 DUP8 ADD PUSH2 0x30C JUMP JUMPDEST SWAP3 POP POP PUSH1 0x40 PUSH2 0x3F7 DUP7 DUP3 DUP8 ADD PUSH2 0x37D JUMP JUMPDEST SWAP2 POP POP SWAP3 POP SWAP3 POP SWAP3 JUMP JUMPDEST PUSH1 0x0 DUP2 MLOAD SWAP1 POP SWAP2 SWAP1 POP JUMP JUMPDEST PUSH32 0x4E487B7100000000000000000000000000000000000000000000000000000000 PUSH1 0x0 MSTORE PUSH1 0x22 PUSH1 0x4 MSTORE PUSH1 0x24 PUSH1 0x0 REVERT JUMPDEST PUSH1 0x0 PUSH1 0x2 DUP3 DIV SWAP1 POP PUSH1 0x1 DUP3 AND DUP1 PUSH2 0x453 JUMPI PUSH1 0x7F DUP3 AND SWAP2 POP JUMPDEST PUSH1 0x20 DUP3 LT DUP2 SUB PUSH2 0x466 JUMPI PUSH2 0x465 PUSH2 0x40C JUMP JUMPDEST JUMPDEST POP SWAP2 SWAP1 POP JUMP JUMPDEST PUSH1 0x0 DUP2 SWAP1 POP DUP2 PUSH1 0x0 MSTORE PUSH1 0x20 PUSH1 0x0 KECCAK256 SWAP1 POP SWAP2 SWAP1 POP JUMP JUMPDEST PUSH1 0x0 PUSH1 0x20 PUSH1 0x1F DUP4 ADD DIV SWAP1 POP SWAP2 SWAP1 POP JUMP JUMPDEST PUSH1 0x0 DUP3 DUP3 SHL SWAP1 POP SWAP3 SWAP2 POP POP JUMP JUMPDEST PUSH1 0x0 PUSH1 0x8 DUP4 MUL PUSH2 0x4CE PUSH32 0xFFFFFFFFFFFFFFFFFFFFFFFFFFFFFFFFFFFFFFFFFFFFFFFFFFFFFFFFFFFFFFFF DUP3 PUSH2 0x491 JUMP JUMPDEST PUSH2 0x4D8 DUP7 DUP4 PUSH2 0x491 JUMP JUMPDEST SWAP6 POP DUP1 NOT DUP5 AND SWAP4 POP DUP1 DUP7 AND DUP5 OR SWAP3 POP POP POP SWAP4 SWAP3 POP POP POP JUMP JUMPDEST PUSH1 0x0 DUP2 SWAP1 POP SWAP2 SWAP1 POP JUMP JUMPDEST PUSH1 0x0 PUSH2 0x515 PUSH2 0x510 PUSH2 0x50B DUP5 PUSH2 0x1BE JUMP JUMPDEST PUSH2 0x4F0 JUMP JUMPDEST PUSH2 0x1BE JUMP JUMPDEST SWAP1 POP SWAP2 SWAP1 POP JUMP JUMPDEST PUSH1 0x0 DUP2 SWAP1 POP SWAP2 SWAP1 POP JUMP JUMPDEST PUSH2 0x52F DUP4 PUSH2 0x4FA JUMP JUMPDEST PUSH2 0x543 PUSH2 0x53B DUP3 PUSH2 0x51C JUMP JUMPDEST DUP5 DUP5 SLOAD PUSH2 0x49E JUMP JUMPDEST DUP3 SSTORE POP POP POP POP JUMP JUMPDEST PUSH1 0x0 SWAP1 JUMP JUMPDEST PUSH2 0x558 PUSH2 0x54B JUMP JUMPDEST PUSH2 0x563 DUP2 DUP5 DUP5 PUSH2 0x526 JUMP JUMPDEST POP POP POP JUMP JUMPDEST JUMPDEST DUP2 DUP2 LT ISZERO PUSH2 0x587 JUMPI PUSH2 0x57C PUSH1 0x0 DUP3 PUSH2 0x550 JUMP JUMPDEST PUSH1 0x1 DUP2 ADD SWAP1 POP PUSH2 0x569 JUMP JUMPDEST POP POP JUMP JUMPDEST PUSH1 0x1F DUP3 GT ISZERO PUSH2 0x5CC JUMPI PUSH2 0x59D DUP2 PUSH2 0x46C JUMP JUMPDEST PUSH2 0x5A6 DUP5 PUSH2 0x481 JUMP JUMPDEST DUP2 ADD PUSH1 0x20 DUP6 LT ISZERO PUSH2 0x5B5 JUMPI DUP2 SWAP1 POP JUMPDEST PUSH2 0x5C9 PUSH2 0x5C1 DUP6 PUSH2 0x481 JUMP JUMPDEST DUP4 ADD DUP3 PUSH2 0x568 JUMP JUMPDEST POP POP JUMPDEST POP POP POP JUMP JUMPDEST PUSH1 0x0 DUP3 DUP3 SHR SWAP1 POP SWAP3 SWAP2 POP POP JUMP JUMPDEST PUSH1 0x0 PUSH2 0x5EF PUSH1 0x0 NOT DUP5 PUSH1 0x8 MUL PUSH2 0x5D1 JUMP JUMPDEST NOT DUP1 DUP4 AND SWAP2 POP POP SWAP3 SWAP2 POP POP JUMP JUMPDEST PUSH1 0x0 PUSH2 0x608 DUP4 DUP4 PUSH2 0x5DE JUMP JUMPDEST SWAP2 POP DUP3 PUSH1 0x2 MUL DUP3 OR SWAP1 POP SWAP3 SWAP2 POP POP JUMP JUMPDEST PUSH2 0x621 DUP3 PUSH2 0x401 JUMP JUMPDEST PUSH8 0xFFFFFFFFFFFFFFFF DUP2 GT ISZERO PUSH2 0x63A JUMPI PUSH2 0x639 PUSH2 0x20F JUMP JUMPDEST JUMPDEST PUSH2 0x644 DUP3 SLOAD PUSH2 0x43B JUMP JUMPDEST PUSH2 0x64F DUP3 DUP3 DUP6 PUSH2 0x58B JUMP JUMPDEST PUSH1 0x0 PUSH1 0x20 SWAP1 POP PUSH1 0x1F DUP4 GT PUSH1 0x1 DUP2 EQ PUSH2 0x682 JUMPI PUSH1 0x0 DUP5 ISZERO PUSH2 0x670 JUMPI DUP3 DUP8 ADD MLOAD SWAP1 POP JUMPDEST PUSH2 0x67A DUP6 DUP3 PUSH2 0x5FC JUMP JUMPDEST DUP7 SSTORE POP PUSH2 0x6E2 JUMP JUMPDEST PUSH1 0x1F NOT DUP5 AND PUSH2 0x690 DUP7 PUSH2 0x46C JUMP JUMPDEST PUSH1 0x0 JUMPDEST DUP3 DUP2 LT ISZERO PUSH2 0x6B8 JUMPI DUP5 DUP10 ADD MLOAD DUP3 SSTORE PUSH1 0x1 DUP3 ADD SWAP2 POP PUSH1 0x20 DUP6 ADD SWAP5 POP PUSH1 0x20 DUP2 ADD SWAP1 POP PUSH2 0x693 JUMP JUMPDEST DUP7 DUP4 LT ISZERO PUSH2 0x6D5 JUMPI DUP5 DUP10 ADD MLOAD PUSH2 0x6D1 PUSH1 0x1F DUP10 AND DUP3 PUSH2 0x5DE JUMP JUMPDEST DUP4 SSTORE POP JUMPDEST PUSH1 0x1 PUSH1 0x2 DUP9 MUL ADD DUP9 SSTORE POP POP POP JUMPDEST POP POP POP POP POP POP JUMP INVALID LOG2 PUSH5 0x6970667358 0x22 SLT KECCAK256 PUSH13 0x9413F193BCDF5DE22D9724DA18 PUSH21 0x13CCC35B9880771EA7617C3A1536CE379964736F6C PUSH4 0x43000812 STOP CALLER "
				},
				"gasEstimates": {
					"creation": {
						"codeDepositCost": "364800",
						"executionCost": "399",
						"totalCost": "365199"
					},
					"external": {
						"pushMember(uint256,string,bytes2)": "infinite",
						"setM(uint256,string,bytes2)": "infinite"
					}
				},
				"methodIdentifiers": {
					"pushMember(uint256,string,bytes2)": "49d3b319",
					"setM(uint256,string,bytes2)": "719a0017"
				}
			},
			"storageLayout": {
				"storage": [
					{
						"astId": 11,
						"contract": "contracts-lecture/230508-2.sol:note",
						"label": "Michael",
						"offset": 0,
						"slot": "0",
						"type": "t_struct(member)8_storage"
					},
					{
						"astId": 33,
						"contract": "contracts-lecture/230508-2.sol:note",
						"label": "members",
						"offset": 0,
						"slot": "3",
						"type": "t_array(t_struct(member)8_storage)dyn_storage"
					}
				],
				"types": {
					"t_array(t_struct(member)8_storage)dyn_storage": {
						"base": "t_struct(member)8_storage",
						"encoding": "dynamic_array",
						"label": "struct note.member[]",
						"numberOfBytes": "32"
					},
					"t_bytes2": {
						"encoding": "inplace",
						"label": "bytes2",
						"numberOfBytes": "2"
					},
					"t_string_storage": {
						"encoding": "bytes",
						"label": "string",
						"numberOfBytes": "32"
					},
					"t_struct(member)8_storage": {
						"encoding": "inplace",
						"label": "struct note.member",
						"members": [
							{
								"astId": 3,
								"contract": "contracts-lecture/230508-2.sol:note",
								"label": "number",
								"offset": 0,
								"slot": "0",
								"type": "t_uint256"
							},
							{
								"astId": 5,
								"contract": "contracts-lecture/230508-2.sol:note",
								"label": "name",
								"offset": 0,
								"slot": "1",
								"type": "t_string_storage"
							},
							{
								"astId": 7,
								"contract": "contracts-lecture/230508-2.sol:note",
								"label": "password",
								"offset": 0,
								"slot": "2",
								"type": "t_bytes2"
							}
						],
						"numberOfBytes": "96"
					},
					"t_uint256": {
						"encoding": "inplace",
						"label": "uint256",
						"numberOfBytes": "32"
					}
				}
			},
			"userdoc": {
				"kind": "user",
				"methods": {},
				"version": 1
			}
		}
	}
}