{
	"contracts-lecture/230518-1.sol": {
		"BYTES_LENGTH": {
			"abi": [
				{
					"inputs": [
						{
							"internalType": "bytes1",
							"name": "a",
							"type": "bytes1"
						}
					],
					"name": "bytes1ToString",
					"outputs": [
						{
							"internalType": "string",
							"name": "",
							"type": "string"
						}
					],
					"stateMutability": "pure",
					"type": "function"
				},
				{
					"inputs": [
						{
							"internalType": "bytes",
							"name": "a",
							"type": "bytes"
						}
					],
					"name": "getLength",
					"outputs": [
						{
							"internalType": "uint256",
							"name": "",
							"type": "uint256"
						}
					],
					"stateMutability": "pure",
					"type": "function"
				},
				{
					"inputs": [
						{
							"internalType": "bytes1",
							"name": "a",
							"type": "bytes1"
						}
					],
					"name": "getLength1",
					"outputs": [
						{
							"internalType": "uint256",
							"name": "",
							"type": "uint256"
						}
					],
					"stateMutability": "pure",
					"type": "function"
				},
				{
					"inputs": [
						{
							"internalType": "bytes2",
							"name": "a",
							"type": "bytes2"
						}
					],
					"name": "getLength2",
					"outputs": [
						{
							"internalType": "uint256",
							"name": "",
							"type": "uint256"
						}
					],
					"stateMutability": "pure",
					"type": "function"
				},
				{
					"inputs": [
						{
							"internalType": "bytes3",
							"name": "a",
							"type": "bytes3"
						}
					],
					"name": "getLength3",
					"outputs": [
						{
							"internalType": "uint256",
							"name": "",
							"type": "uint256"
						}
					],
					"stateMutability": "pure",
					"type": "function"
				}
			],
			"devdoc": {
				"kind": "dev",
				"methods": {},
				"version": 1
			},
			"evm": {
				"assembly": "    /* \"contracts-lecture/230518-1.sol\":2070:2632  contract BYTES_LENGTH {... */\n  mstore(0x40, 0x80)\n  callvalue\n  dup1\n  iszero\n  tag_1\n  jumpi\n  0x00\n  dup1\n  revert\ntag_1:\n  pop\n  dataSize(sub_0)\n  dup1\n  dataOffset(sub_0)\n  0x00\n  codecopy\n  0x00\n  return\nstop\n\nsub_0: assembly {\n        /* \"contracts-lecture/230518-1.sol\":2070:2632  contract BYTES_LENGTH {... */\n      mstore(0x40, 0x80)\n      callvalue\n      dup1\n      iszero\n      tag_1\n      jumpi\n      0x00\n      dup1\n      revert\n    tag_1:\n      pop\n      jumpi(tag_2, lt(calldatasize, 0x04))\n      shr(0xe0, calldataload(0x00))\n      dup1\n      0x2cbc5cd5\n      eq\n      tag_3\n      jumpi\n      dup1\n      0x6114ceca\n      eq\n      tag_4\n      jumpi\n      dup1\n      0x64ad2a73\n      eq\n      tag_5\n      jumpi\n      dup1\n      0xab421f74\n      eq\n      tag_6\n      jumpi\n      dup1\n      0xc1d9d556\n      eq\n      tag_7\n      jumpi\n    tag_2:\n      0x00\n      dup1\n      revert\n        /* \"contracts-lecture/230518-1.sol\":2192:2280  function getLength2(bytes2 a) public pure returns(uint) {... */\n    tag_3:\n      tag_8\n      0x04\n      dup1\n      calldatasize\n      sub\n      dup2\n      add\n      swap1\n      tag_9\n      swap2\n      swap1\n      tag_10\n      jump\t// in\n    tag_9:\n      tag_11\n      jump\t// in\n    tag_8:\n      mload(0x40)\n      tag_12\n      swap2\n      swap1\n      tag_13\n      jump\t// in\n    tag_12:\n      mload(0x40)\n      dup1\n      swap2\n      sub\n      swap1\n      return\n        /* \"contracts-lecture/230518-1.sol\":2380:2473  function getLength(bytes memory a) public pure returns(uint) {... */\n    tag_4:\n      tag_14\n      0x04\n      dup1\n      calldatasize\n      sub\n      dup2\n      add\n      swap1\n      tag_15\n      swap2\n      swap1\n      tag_16\n      jump\t// in\n    tag_15:\n      tag_17\n      jump\t// in\n    tag_14:\n      mload(0x40)\n      tag_18\n      swap2\n      swap1\n      tag_13\n      jump\t// in\n    tag_18:\n      mload(0x40)\n      dup1\n      swap2\n      sub\n      swap1\n      return\n        /* \"contracts-lecture/230518-1.sol\":2479:2630  function bytes1ToString(bytes1 a) public pure returns(string memory) {... */\n    tag_5:\n      tag_19\n      0x04\n      dup1\n      calldatasize\n      sub\n      dup2\n      add\n      swap1\n      tag_20\n      swap2\n      swap1\n      tag_21\n      jump\t// in\n    tag_20:\n      tag_22\n      jump\t// in\n    tag_19:\n      mload(0x40)\n      tag_23\n      swap2\n      swap1\n      tag_24\n      jump\t// in\n    tag_23:\n      mload(0x40)\n      dup1\n      swap2\n      sub\n      swap1\n      return\n        /* \"contracts-lecture/230518-1.sol\":2286:2374  function getLength3(bytes3 a) public pure returns(uint) {... */\n    tag_6:\n      tag_25\n      0x04\n      dup1\n      calldatasize\n      sub\n      dup2\n      add\n      swap1\n      tag_26\n      swap2\n      swap1\n      tag_27\n      jump\t// in\n    tag_26:\n      tag_28\n      jump\t// in\n    tag_25:\n      mload(0x40)\n      tag_29\n      swap2\n      swap1\n      tag_13\n      jump\t// in\n    tag_29:\n      mload(0x40)\n      dup1\n      swap2\n      sub\n      swap1\n      return\n        /* \"contracts-lecture/230518-1.sol\":2098:2186  function getLength1(bytes1 a) public pure returns(uint) {... */\n    tag_7:\n      tag_30\n      0x04\n      dup1\n      calldatasize\n      sub\n      dup2\n      add\n      swap1\n      tag_31\n      swap2\n      swap1\n      tag_21\n      jump\t// in\n    tag_31:\n      tag_32\n      jump\t// in\n    tag_30:\n      mload(0x40)\n      tag_33\n      swap2\n      swap1\n      tag_13\n      jump\t// in\n    tag_33:\n      mload(0x40)\n      dup1\n      swap2\n      sub\n      swap1\n      return\n        /* \"contracts-lecture/230518-1.sol\":2192:2280  function getLength2(bytes2 a) public pure returns(uint) {... */\n    tag_11:\n        /* \"contracts-lecture/230518-1.sol\":2242:2246  uint */\n      0x00\n        /* \"contracts-lecture/230518-1.sol\":2265:2273  a.length */\n      0x02\n        /* \"contracts-lecture/230518-1.sol\":2258:2273  return a.length */\n      0xff\n      and\n      swap1\n      pop\n        /* \"contracts-lecture/230518-1.sol\":2192:2280  function getLength2(bytes2 a) public pure returns(uint) {... */\n      swap2\n      swap1\n      pop\n      jump\t// out\n        /* \"contracts-lecture/230518-1.sol\":2380:2473  function getLength(bytes memory a) public pure returns(uint) {... */\n    tag_17:\n        /* \"contracts-lecture/230518-1.sol\":2435:2439  uint */\n      0x00\n        /* \"contracts-lecture/230518-1.sol\":2458:2459  a */\n      dup2\n        /* \"contracts-lecture/230518-1.sol\":2458:2466  a.length */\n      mload\n        /* \"contracts-lecture/230518-1.sol\":2451:2466  return a.length */\n      swap1\n      pop\n        /* \"contracts-lecture/230518-1.sol\":2380:2473  function getLength(bytes memory a) public pure returns(uint) {... */\n      swap2\n      swap1\n      pop\n      jump\t// out\n        /* \"contracts-lecture/230518-1.sol\":2479:2630  function bytes1ToString(bytes1 a) public pure returns(string memory) {... */\n    tag_22:\n        /* \"contracts-lecture/230518-1.sol\":2533:2546  string memory */\n      0x60\n        /* \"contracts-lecture/230518-1.sol\":2558:2574  string memory _a */\n      0x00\n        /* \"contracts-lecture/230518-1.sol\":2601:2602  a */\n      dup3\n        /* \"contracts-lecture/230518-1.sol\":2584:2603  abi.encodePacked(a) */\n      add(0x20, mload(0x40))\n      tag_37\n      swap2\n      swap1\n      tag_38\n      jump\t// in\n    tag_37:\n      mload(0x40)\n      0x20\n      dup2\n      dup4\n      sub\n      sub\n      dup2\n      mstore\n      swap1\n      0x40\n      mstore\n        /* \"contracts-lecture/230518-1.sol\":2558:2604  string memory _a = string(abi.encodePacked(a)) */\n      swap1\n      pop\n        /* \"contracts-lecture/230518-1.sol\":2621:2623  _a */\n      dup1\n        /* \"contracts-lecture/230518-1.sol\":2614:2623  return _a */\n      swap2\n      pop\n      pop\n        /* \"contracts-lecture/230518-1.sol\":2479:2630  function bytes1ToString(bytes1 a) public pure returns(string memory) {... */\n      swap2\n      swap1\n      pop\n      jump\t// out\n        /* \"contracts-lecture/230518-1.sol\":2286:2374  function getLength3(bytes3 a) public pure returns(uint) {... */\n    tag_28:\n        /* \"contracts-lecture/230518-1.sol\":2336:2340  uint */\n      0x00\n        /* \"contracts-lecture/230518-1.sol\":2359:2367  a.length */\n      0x03\n        /* \"contracts-lecture/230518-1.sol\":2352:2367  return a.length */\n      0xff\n      and\n      swap1\n      pop\n        /* \"contracts-lecture/230518-1.sol\":2286:2374  function getLength3(bytes3 a) public pure returns(uint) {... */\n      swap2\n      swap1\n      pop\n      jump\t// out\n        /* \"contracts-lecture/230518-1.sol\":2098:2186  function getLength1(bytes1 a) public pure returns(uint) {... */\n    tag_32:\n        /* \"contracts-lecture/230518-1.sol\":2148:2152  uint */\n      0x00\n        /* \"contracts-lecture/230518-1.sol\":2171:2179  a.length */\n      0x01\n        /* \"contracts-lecture/230518-1.sol\":2164:2179  return a.length */\n      0xff\n      and\n      swap1\n      pop\n        /* \"contracts-lecture/230518-1.sol\":2098:2186  function getLength1(bytes1 a) public pure returns(uint) {... */\n      swap2\n      swap1\n      pop\n      jump\t// out\n        /* \"#utility.yul\":7:82   */\n    tag_41:\n        /* \"#utility.yul\":40:46   */\n      0x00\n        /* \"#utility.yul\":73:75   */\n      0x40\n        /* \"#utility.yul\":67:76   */\n      mload\n        /* \"#utility.yul\":57:76   */\n      swap1\n      pop\n        /* \"#utility.yul\":7:82   */\n      swap1\n      jump\t// out\n        /* \"#utility.yul\":88:205   */\n    tag_42:\n        /* \"#utility.yul\":197:198   */\n      0x00\n        /* \"#utility.yul\":194:195   */\n      dup1\n        /* \"#utility.yul\":187:199   */\n      revert\n        /* \"#utility.yul\":211:328   */\n    tag_43:\n        /* \"#utility.yul\":320:321   */\n      0x00\n        /* \"#utility.yul\":317:318   */\n      dup1\n        /* \"#utility.yul\":310:322   */\n      revert\n        /* \"#utility.yul\":334:483   */\n    tag_44:\n        /* \"#utility.yul\":370:377   */\n      0x00\n        /* \"#utility.yul\":410:476   */\n      0xffff000000000000000000000000000000000000000000000000000000000000\n        /* \"#utility.yul\":403:408   */\n      dup3\n        /* \"#utility.yul\":399:477   */\n      and\n        /* \"#utility.yul\":388:477   */\n      swap1\n      pop\n        /* \"#utility.yul\":334:483   */\n      swap2\n      swap1\n      pop\n      jump\t// out\n        /* \"#utility.yul\":489:609   */\n    tag_45:\n        /* \"#utility.yul\":561:584   */\n      tag_77\n        /* \"#utility.yul\":578:583   */\n      dup2\n        /* \"#utility.yul\":561:584   */\n      tag_44\n      jump\t// in\n    tag_77:\n        /* \"#utility.yul\":554:559   */\n      dup2\n        /* \"#utility.yul\":551:585   */\n      eq\n        /* \"#utility.yul\":541:603   */\n      tag_78\n      jumpi\n        /* \"#utility.yul\":599:600   */\n      0x00\n        /* \"#utility.yul\":596:597   */\n      dup1\n        /* \"#utility.yul\":589:601   */\n      revert\n        /* \"#utility.yul\":541:603   */\n    tag_78:\n        /* \"#utility.yul\":489:609   */\n      pop\n      jump\t// out\n        /* \"#utility.yul\":615:752   */\n    tag_46:\n        /* \"#utility.yul\":660:665   */\n      0x00\n        /* \"#utility.yul\":698:704   */\n      dup2\n        /* \"#utility.yul\":685:705   */\n      calldataload\n        /* \"#utility.yul\":676:705   */\n      swap1\n      pop\n        /* \"#utility.yul\":714:746   */\n      tag_80\n        /* \"#utility.yul\":740:745   */\n      dup2\n        /* \"#utility.yul\":714:746   */\n      tag_45\n      jump\t// in\n    tag_80:\n        /* \"#utility.yul\":615:752   */\n      swap3\n      swap2\n      pop\n      pop\n      jump\t// out\n        /* \"#utility.yul\":758:1085   */\n    tag_10:\n        /* \"#utility.yul\":816:822   */\n      0x00\n        /* \"#utility.yul\":865:867   */\n      0x20\n        /* \"#utility.yul\":853:862   */\n      dup3\n        /* \"#utility.yul\":844:851   */\n      dup5\n        /* \"#utility.yul\":840:863   */\n      sub\n        /* \"#utility.yul\":836:868   */\n      slt\n        /* \"#utility.yul\":833:952   */\n      iszero\n      tag_82\n      jumpi\n        /* \"#utility.yul\":871:950   */\n      tag_83\n      tag_42\n      jump\t// in\n    tag_83:\n        /* \"#utility.yul\":833:952   */\n    tag_82:\n        /* \"#utility.yul\":991:992   */\n      0x00\n        /* \"#utility.yul\":1016:1068   */\n      tag_84\n        /* \"#utility.yul\":1060:1067   */\n      dup5\n        /* \"#utility.yul\":1051:1057   */\n      dup3\n        /* \"#utility.yul\":1040:1049   */\n      dup6\n        /* \"#utility.yul\":1036:1058   */\n      add\n        /* \"#utility.yul\":1016:1068   */\n      tag_46\n      jump\t// in\n    tag_84:\n        /* \"#utility.yul\":1006:1068   */\n      swap2\n      pop\n        /* \"#utility.yul\":962:1078   */\n      pop\n        /* \"#utility.yul\":758:1085   */\n      swap3\n      swap2\n      pop\n      pop\n      jump\t// out\n        /* \"#utility.yul\":1091:1168   */\n    tag_47:\n        /* \"#utility.yul\":1128:1135   */\n      0x00\n        /* \"#utility.yul\":1157:1162   */\n      dup2\n        /* \"#utility.yul\":1146:1162   */\n      swap1\n      pop\n        /* \"#utility.yul\":1091:1168   */\n      swap2\n      swap1\n      pop\n      jump\t// out\n        /* \"#utility.yul\":1174:1292   */\n    tag_48:\n        /* \"#utility.yul\":1261:1285   */\n      tag_87\n        /* \"#utility.yul\":1279:1284   */\n      dup2\n        /* \"#utility.yul\":1261:1285   */\n      tag_47\n      jump\t// in\n    tag_87:\n        /* \"#utility.yul\":1256:1259   */\n      dup3\n        /* \"#utility.yul\":1249:1286   */\n      mstore\n        /* \"#utility.yul\":1174:1292   */\n      pop\n      pop\n      jump\t// out\n        /* \"#utility.yul\":1298:1520   */\n    tag_13:\n        /* \"#utility.yul\":1391:1395   */\n      0x00\n        /* \"#utility.yul\":1429:1431   */\n      0x20\n        /* \"#utility.yul\":1418:1427   */\n      dup3\n        /* \"#utility.yul\":1414:1432   */\n      add\n        /* \"#utility.yul\":1406:1432   */\n      swap1\n      pop\n        /* \"#utility.yul\":1442:1513   */\n      tag_89\n        /* \"#utility.yul\":1510:1511   */\n      0x00\n        /* \"#utility.yul\":1499:1508   */\n      dup4\n        /* \"#utility.yul\":1495:1512   */\n      add\n        /* \"#utility.yul\":1486:1492   */\n      dup5\n        /* \"#utility.yul\":1442:1513   */\n      tag_48\n      jump\t// in\n    tag_89:\n        /* \"#utility.yul\":1298:1520   */\n      swap3\n      swap2\n      pop\n      pop\n      jump\t// out\n        /* \"#utility.yul\":1526:1643   */\n    tag_49:\n        /* \"#utility.yul\":1635:1636   */\n      0x00\n        /* \"#utility.yul\":1632:1633   */\n      dup1\n        /* \"#utility.yul\":1625:1637   */\n      revert\n        /* \"#utility.yul\":1649:1766   */\n    tag_50:\n        /* \"#utility.yul\":1758:1759   */\n      0x00\n        /* \"#utility.yul\":1755:1756   */\n      dup1\n        /* \"#utility.yul\":1748:1760   */\n      revert\n        /* \"#utility.yul\":1772:1874   */\n    tag_51:\n        /* \"#utility.yul\":1813:1819   */\n      0x00\n        /* \"#utility.yul\":1864:1866   */\n      0x1f\n        /* \"#utility.yul\":1860:1867   */\n      not\n        /* \"#utility.yul\":1855:1857   */\n      0x1f\n        /* \"#utility.yul\":1848:1853   */\n      dup4\n        /* \"#utility.yul\":1844:1858   */\n      add\n        /* \"#utility.yul\":1840:1868   */\n      and\n        /* \"#utility.yul\":1830:1868   */\n      swap1\n      pop\n        /* \"#utility.yul\":1772:1874   */\n      swap2\n      swap1\n      pop\n      jump\t// out\n        /* \"#utility.yul\":1880:2060   */\n    tag_52:\n        /* \"#utility.yul\":1928:2005   */\n      0x4e487b7100000000000000000000000000000000000000000000000000000000\n        /* \"#utility.yul\":1925:1926   */\n      0x00\n        /* \"#utility.yul\":1918:2006   */\n      mstore\n        /* \"#utility.yul\":2025:2029   */\n      0x41\n        /* \"#utility.yul\":2022:2023   */\n      0x04\n        /* \"#utility.yul\":2015:2030   */\n      mstore\n        /* \"#utility.yul\":2049:2053   */\n      0x24\n        /* \"#utility.yul\":2046:2047   */\n      0x00\n        /* \"#utility.yul\":2039:2054   */\n      revert\n        /* \"#utility.yul\":2066:2347   */\n    tag_53:\n        /* \"#utility.yul\":2149:2176   */\n      tag_95\n        /* \"#utility.yul\":2171:2175   */\n      dup3\n        /* \"#utility.yul\":2149:2176   */\n      tag_51\n      jump\t// in\n    tag_95:\n        /* \"#utility.yul\":2141:2147   */\n      dup2\n        /* \"#utility.yul\":2137:2177   */\n      add\n        /* \"#utility.yul\":2279:2285   */\n      dup2\n        /* \"#utility.yul\":2267:2277   */\n      dup2\n        /* \"#utility.yul\":2264:2286   */\n      lt\n        /* \"#utility.yul\":2243:2261   */\n      0xffffffffffffffff\n        /* \"#utility.yul\":2231:2241   */\n      dup3\n        /* \"#utility.yul\":2228:2262   */\n      gt\n        /* \"#utility.yul\":2225:2287   */\n      or\n        /* \"#utility.yul\":2222:2310   */\n      iszero\n      tag_96\n      jumpi\n        /* \"#utility.yul\":2290:2308   */\n      tag_97\n      tag_52\n      jump\t// in\n    tag_97:\n        /* \"#utility.yul\":2222:2310   */\n    tag_96:\n        /* \"#utility.yul\":2330:2340   */\n      dup1\n        /* \"#utility.yul\":2326:2328   */\n      0x40\n        /* \"#utility.yul\":2319:2341   */\n      mstore\n        /* \"#utility.yul\":2109:2347   */\n      pop\n        /* \"#utility.yul\":2066:2347   */\n      pop\n      pop\n      jump\t// out\n        /* \"#utility.yul\":2353:2482   */\n    tag_54:\n        /* \"#utility.yul\":2387:2393   */\n      0x00\n        /* \"#utility.yul\":2414:2434   */\n      tag_99\n      tag_41\n      jump\t// in\n    tag_99:\n        /* \"#utility.yul\":2404:2434   */\n      swap1\n      pop\n        /* \"#utility.yul\":2443:2476   */\n      tag_100\n        /* \"#utility.yul\":2471:2475   */\n      dup3\n        /* \"#utility.yul\":2463:2469   */\n      dup3\n        /* \"#utility.yul\":2443:2476   */\n      tag_53\n      jump\t// in\n    tag_100:\n        /* \"#utility.yul\":2353:2482   */\n      swap2\n      swap1\n      pop\n      jump\t// out\n        /* \"#utility.yul\":2488:2795   */\n    tag_55:\n        /* \"#utility.yul\":2549:2553   */\n      0x00\n        /* \"#utility.yul\":2639:2657   */\n      0xffffffffffffffff\n        /* \"#utility.yul\":2631:2637   */\n      dup3\n        /* \"#utility.yul\":2628:2658   */\n      gt\n        /* \"#utility.yul\":2625:2681   */\n      iszero\n      tag_102\n      jumpi\n        /* \"#utility.yul\":2661:2679   */\n      tag_103\n      tag_52\n      jump\t// in\n    tag_103:\n        /* \"#utility.yul\":2625:2681   */\n    tag_102:\n        /* \"#utility.yul\":2699:2728   */\n      tag_104\n        /* \"#utility.yul\":2721:2727   */\n      dup3\n        /* \"#utility.yul\":2699:2728   */\n      tag_51\n      jump\t// in\n    tag_104:\n        /* \"#utility.yul\":2691:2728   */\n      swap1\n      pop\n        /* \"#utility.yul\":2783:2787   */\n      0x20\n        /* \"#utility.yul\":2777:2781   */\n      dup2\n        /* \"#utility.yul\":2773:2788   */\n      add\n        /* \"#utility.yul\":2765:2788   */\n      swap1\n      pop\n        /* \"#utility.yul\":2488:2795   */\n      swap2\n      swap1\n      pop\n      jump\t// out\n        /* \"#utility.yul\":2801:2947   */\n    tag_56:\n        /* \"#utility.yul\":2898:2904   */\n      dup3\n        /* \"#utility.yul\":2893:2896   */\n      dup2\n        /* \"#utility.yul\":2888:2891   */\n      dup4\n        /* \"#utility.yul\":2875:2905   */\n      calldatacopy\n        /* \"#utility.yul\":2939:2940   */\n      0x00\n        /* \"#utility.yul\":2930:2936   */\n      dup4\n        /* \"#utility.yul\":2925:2928   */\n      dup4\n        /* \"#utility.yul\":2921:2937   */\n      add\n        /* \"#utility.yul\":2914:2941   */\n      mstore\n        /* \"#utility.yul\":2801:2947   */\n      pop\n      pop\n      pop\n      jump\t// out\n        /* \"#utility.yul\":2953:3376   */\n    tag_57:\n        /* \"#utility.yul\":3030:3035   */\n      0x00\n        /* \"#utility.yul\":3055:3120   */\n      tag_107\n        /* \"#utility.yul\":3071:3119   */\n      tag_108\n        /* \"#utility.yul\":3112:3118   */\n      dup5\n        /* \"#utility.yul\":3071:3119   */\n      tag_55\n      jump\t// in\n    tag_108:\n        /* \"#utility.yul\":3055:3120   */\n      tag_54\n      jump\t// in\n    tag_107:\n        /* \"#utility.yul\":3046:3120   */\n      swap1\n      pop\n        /* \"#utility.yul\":3143:3149   */\n      dup3\n        /* \"#utility.yul\":3136:3141   */\n      dup2\n        /* \"#utility.yul\":3129:3150   */\n      mstore\n        /* \"#utility.yul\":3181:3185   */\n      0x20\n        /* \"#utility.yul\":3174:3179   */\n      dup2\n        /* \"#utility.yul\":3170:3186   */\n      add\n        /* \"#utility.yul\":3219:3222   */\n      dup5\n        /* \"#utility.yul\":3210:3216   */\n      dup5\n        /* \"#utility.yul\":3205:3208   */\n      dup5\n        /* \"#utility.yul\":3201:3217   */\n      add\n        /* \"#utility.yul\":3198:3223   */\n      gt\n        /* \"#utility.yul\":3195:3307   */\n      iszero\n      tag_109\n      jumpi\n        /* \"#utility.yul\":3226:3305   */\n      tag_110\n      tag_50\n      jump\t// in\n    tag_110:\n        /* \"#utility.yul\":3195:3307   */\n    tag_109:\n        /* \"#utility.yul\":3316:3370   */\n      tag_111\n        /* \"#utility.yul\":3363:3369   */\n      dup5\n        /* \"#utility.yul\":3358:3361   */\n      dup3\n        /* \"#utility.yul\":3353:3356   */\n      dup6\n        /* \"#utility.yul\":3316:3370   */\n      tag_56\n      jump\t// in\n    tag_111:\n        /* \"#utility.yul\":3036:3376   */\n      pop\n        /* \"#utility.yul\":2953:3376   */\n      swap4\n      swap3\n      pop\n      pop\n      pop\n      jump\t// out\n        /* \"#utility.yul\":3395:3733   */\n    tag_58:\n        /* \"#utility.yul\":3450:3455   */\n      0x00\n        /* \"#utility.yul\":3499:3502   */\n      dup3\n        /* \"#utility.yul\":3492:3496   */\n      0x1f\n        /* \"#utility.yul\":3484:3490   */\n      dup4\n        /* \"#utility.yul\":3480:3497   */\n      add\n        /* \"#utility.yul\":3476:3503   */\n      slt\n        /* \"#utility.yul\":3466:3588   */\n      tag_113\n      jumpi\n        /* \"#utility.yul\":3507:3586   */\n      tag_114\n      tag_49\n      jump\t// in\n    tag_114:\n        /* \"#utility.yul\":3466:3588   */\n    tag_113:\n        /* \"#utility.yul\":3624:3630   */\n      dup2\n        /* \"#utility.yul\":3611:3631   */\n      calldataload\n        /* \"#utility.yul\":3649:3727   */\n      tag_115\n        /* \"#utility.yul\":3723:3726   */\n      dup5\n        /* \"#utility.yul\":3715:3721   */\n      dup3\n        /* \"#utility.yul\":3708:3712   */\n      0x20\n        /* \"#utility.yul\":3700:3706   */\n      dup7\n        /* \"#utility.yul\":3696:3713   */\n      add\n        /* \"#utility.yul\":3649:3727   */\n      tag_57\n      jump\t// in\n    tag_115:\n        /* \"#utility.yul\":3640:3727   */\n      swap2\n      pop\n        /* \"#utility.yul\":3456:3733   */\n      pop\n        /* \"#utility.yul\":3395:3733   */\n      swap3\n      swap2\n      pop\n      pop\n      jump\t// out\n        /* \"#utility.yul\":3739:4246   */\n    tag_16:\n        /* \"#utility.yul\":3807:3813   */\n      0x00\n        /* \"#utility.yul\":3856:3858   */\n      0x20\n        /* \"#utility.yul\":3844:3853   */\n      dup3\n        /* \"#utility.yul\":3835:3842   */\n      dup5\n        /* \"#utility.yul\":3831:3854   */\n      sub\n        /* \"#utility.yul\":3827:3859   */\n      slt\n        /* \"#utility.yul\":3824:3943   */\n      iszero\n      tag_117\n      jumpi\n        /* \"#utility.yul\":3862:3941   */\n      tag_118\n      tag_42\n      jump\t// in\n    tag_118:\n        /* \"#utility.yul\":3824:3943   */\n    tag_117:\n        /* \"#utility.yul\":4010:4011   */\n      0x00\n        /* \"#utility.yul\":3999:4008   */\n      dup3\n        /* \"#utility.yul\":3995:4012   */\n      add\n        /* \"#utility.yul\":3982:4013   */\n      calldataload\n        /* \"#utility.yul\":4040:4058   */\n      0xffffffffffffffff\n        /* \"#utility.yul\":4032:4038   */\n      dup2\n        /* \"#utility.yul\":4029:4059   */\n      gt\n        /* \"#utility.yul\":4026:4143   */\n      iszero\n      tag_119\n      jumpi\n        /* \"#utility.yul\":4062:4141   */\n      tag_120\n      tag_43\n      jump\t// in\n    tag_120:\n        /* \"#utility.yul\":4026:4143   */\n    tag_119:\n        /* \"#utility.yul\":4167:4229   */\n      tag_121\n        /* \"#utility.yul\":4221:4228   */\n      dup5\n        /* \"#utility.yul\":4212:4218   */\n      dup3\n        /* \"#utility.yul\":4201:4210   */\n      dup6\n        /* \"#utility.yul\":4197:4219   */\n      add\n        /* \"#utility.yul\":4167:4229   */\n      tag_58\n      jump\t// in\n    tag_121:\n        /* \"#utility.yul\":4157:4229   */\n      swap2\n      pop\n        /* \"#utility.yul\":3953:4239   */\n      pop\n        /* \"#utility.yul\":3739:4246   */\n      swap3\n      swap2\n      pop\n      pop\n      jump\t// out\n        /* \"#utility.yul\":4252:4401   */\n    tag_59:\n        /* \"#utility.yul\":4288:4295   */\n      0x00\n        /* \"#utility.yul\":4328:4394   */\n      0xff00000000000000000000000000000000000000000000000000000000000000\n        /* \"#utility.yul\":4321:4326   */\n      dup3\n        /* \"#utility.yul\":4317:4395   */\n      and\n        /* \"#utility.yul\":4306:4395   */\n      swap1\n      pop\n        /* \"#utility.yul\":4252:4401   */\n      swap2\n      swap1\n      pop\n      jump\t// out\n        /* \"#utility.yul\":4407:4527   */\n    tag_60:\n        /* \"#utility.yul\":4479:4502   */\n      tag_124\n        /* \"#utility.yul\":4496:4501   */\n      dup2\n        /* \"#utility.yul\":4479:4502   */\n      tag_59\n      jump\t// in\n    tag_124:\n        /* \"#utility.yul\":4472:4477   */\n      dup2\n        /* \"#utility.yul\":4469:4503   */\n      eq\n        /* \"#utility.yul\":4459:4521   */\n      tag_125\n      jumpi\n        /* \"#utility.yul\":4517:4518   */\n      0x00\n        /* \"#utility.yul\":4514:4515   */\n      dup1\n        /* \"#utility.yul\":4507:4519   */\n      revert\n        /* \"#utility.yul\":4459:4521   */\n    tag_125:\n        /* \"#utility.yul\":4407:4527   */\n      pop\n      jump\t// out\n        /* \"#utility.yul\":4533:4670   */\n    tag_61:\n        /* \"#utility.yul\":4578:4583   */\n      0x00\n        /* \"#utility.yul\":4616:4622   */\n      dup2\n        /* \"#utility.yul\":4603:4623   */\n      calldataload\n        /* \"#utility.yul\":4594:4623   */\n      swap1\n      pop\n        /* \"#utility.yul\":4632:4664   */\n      tag_127\n        /* \"#utility.yul\":4658:4663   */\n      dup2\n        /* \"#utility.yul\":4632:4664   */\n      tag_60\n      jump\t// in\n    tag_127:\n        /* \"#utility.yul\":4533:4670   */\n      swap3\n      swap2\n      pop\n      pop\n      jump\t// out\n        /* \"#utility.yul\":4676:5003   */\n    tag_21:\n        /* \"#utility.yul\":4734:4740   */\n      0x00\n        /* \"#utility.yul\":4783:4785   */\n      0x20\n        /* \"#utility.yul\":4771:4780   */\n      dup3\n        /* \"#utility.yul\":4762:4769   */\n      dup5\n        /* \"#utility.yul\":4758:4781   */\n      sub\n        /* \"#utility.yul\":4754:4786   */\n      slt\n        /* \"#utility.yul\":4751:4870   */\n      iszero\n      tag_129\n      jumpi\n        /* \"#utility.yul\":4789:4868   */\n      tag_130\n      tag_42\n      jump\t// in\n    tag_130:\n        /* \"#utility.yul\":4751:4870   */\n    tag_129:\n        /* \"#utility.yul\":4909:4910   */\n      0x00\n        /* \"#utility.yul\":4934:4986   */\n      tag_131\n        /* \"#utility.yul\":4978:4985   */\n      dup5\n        /* \"#utility.yul\":4969:4975   */\n      dup3\n        /* \"#utility.yul\":4958:4967   */\n      dup6\n        /* \"#utility.yul\":4954:4976   */\n      add\n        /* \"#utility.yul\":4934:4986   */\n      tag_61\n      jump\t// in\n    tag_131:\n        /* \"#utility.yul\":4924:4986   */\n      swap2\n      pop\n        /* \"#utility.yul\":4880:4996   */\n      pop\n        /* \"#utility.yul\":4676:5003   */\n      swap3\n      swap2\n      pop\n      pop\n      jump\t// out\n        /* \"#utility.yul\":5009:5108   */\n    tag_62:\n        /* \"#utility.yul\":5061:5067   */\n      0x00\n        /* \"#utility.yul\":5095:5100   */\n      dup2\n        /* \"#utility.yul\":5089:5101   */\n      mload\n        /* \"#utility.yul\":5079:5101   */\n      swap1\n      pop\n        /* \"#utility.yul\":5009:5108   */\n      swap2\n      swap1\n      pop\n      jump\t// out\n        /* \"#utility.yul\":5114:5283   */\n    tag_63:\n        /* \"#utility.yul\":5198:5209   */\n      0x00\n        /* \"#utility.yul\":5232:5238   */\n      dup3\n        /* \"#utility.yul\":5227:5230   */\n      dup3\n        /* \"#utility.yul\":5220:5239   */\n      mstore\n        /* \"#utility.yul\":5272:5276   */\n      0x20\n        /* \"#utility.yul\":5267:5270   */\n      dup3\n        /* \"#utility.yul\":5263:5277   */\n      add\n        /* \"#utility.yul\":5248:5277   */\n      swap1\n      pop\n        /* \"#utility.yul\":5114:5283   */\n      swap3\n      swap2\n      pop\n      pop\n      jump\t// out\n        /* \"#utility.yul\":5289:5535   */\n    tag_64:\n        /* \"#utility.yul\":5370:5371   */\n      0x00\n        /* \"#utility.yul\":5380:5493   */\n    tag_135:\n        /* \"#utility.yul\":5394:5400   */\n      dup4\n        /* \"#utility.yul\":5391:5392   */\n      dup2\n        /* \"#utility.yul\":5388:5401   */\n      lt\n        /* \"#utility.yul\":5380:5493   */\n      iszero\n      tag_137\n      jumpi\n        /* \"#utility.yul\":5479:5480   */\n      dup1\n        /* \"#utility.yul\":5474:5477   */\n      dup3\n        /* \"#utility.yul\":5470:5481   */\n      add\n        /* \"#utility.yul\":5464:5482   */\n      mload\n        /* \"#utility.yul\":5460:5461   */\n      dup2\n        /* \"#utility.yul\":5455:5458   */\n      dup5\n        /* \"#utility.yul\":5451:5462   */\n      add\n        /* \"#utility.yul\":5444:5483   */\n      mstore\n        /* \"#utility.yul\":5416:5418   */\n      0x20\n        /* \"#utility.yul\":5413:5414   */\n      dup2\n        /* \"#utility.yul\":5409:5419   */\n      add\n        /* \"#utility.yul\":5404:5419   */\n      swap1\n      pop\n        /* \"#utility.yul\":5380:5493   */\n      jump(tag_135)\n    tag_137:\n        /* \"#utility.yul\":5527:5528   */\n      0x00\n        /* \"#utility.yul\":5518:5524   */\n      dup5\n        /* \"#utility.yul\":5513:5516   */\n      dup5\n        /* \"#utility.yul\":5509:5525   */\n      add\n        /* \"#utility.yul\":5502:5529   */\n      mstore\n        /* \"#utility.yul\":5351:5535   */\n      pop\n        /* \"#utility.yul\":5289:5535   */\n      pop\n      pop\n      pop\n      jump\t// out\n        /* \"#utility.yul\":5541:5918   */\n    tag_65:\n        /* \"#utility.yul\":5629:5632   */\n      0x00\n        /* \"#utility.yul\":5657:5696   */\n      tag_139\n        /* \"#utility.yul\":5690:5695   */\n      dup3\n        /* \"#utility.yul\":5657:5696   */\n      tag_62\n      jump\t// in\n    tag_139:\n        /* \"#utility.yul\":5712:5783   */\n      tag_140\n        /* \"#utility.yul\":5776:5782   */\n      dup2\n        /* \"#utility.yul\":5771:5774   */\n      dup6\n        /* \"#utility.yul\":5712:5783   */\n      tag_63\n      jump\t// in\n    tag_140:\n        /* \"#utility.yul\":5705:5783   */\n      swap4\n      pop\n        /* \"#utility.yul\":5792:5857   */\n      tag_141\n        /* \"#utility.yul\":5850:5856   */\n      dup2\n        /* \"#utility.yul\":5845:5848   */\n      dup6\n        /* \"#utility.yul\":5838:5842   */\n      0x20\n        /* \"#utility.yul\":5831:5836   */\n      dup7\n        /* \"#utility.yul\":5827:5843   */\n      add\n        /* \"#utility.yul\":5792:5857   */\n      tag_64\n      jump\t// in\n    tag_141:\n        /* \"#utility.yul\":5882:5911   */\n      tag_142\n        /* \"#utility.yul\":5904:5910   */\n      dup2\n        /* \"#utility.yul\":5882:5911   */\n      tag_51\n      jump\t// in\n    tag_142:\n        /* \"#utility.yul\":5877:5880   */\n      dup5\n        /* \"#utility.yul\":5873:5912   */\n      add\n        /* \"#utility.yul\":5866:5912   */\n      swap2\n      pop\n        /* \"#utility.yul\":5633:5918   */\n      pop\n        /* \"#utility.yul\":5541:5918   */\n      swap3\n      swap2\n      pop\n      pop\n      jump\t// out\n        /* \"#utility.yul\":5924:6237   */\n    tag_24:\n        /* \"#utility.yul\":6037:6041   */\n      0x00\n        /* \"#utility.yul\":6075:6077   */\n      0x20\n        /* \"#utility.yul\":6064:6073   */\n      dup3\n        /* \"#utility.yul\":6060:6078   */\n      add\n        /* \"#utility.yul\":6052:6078   */\n      swap1\n      pop\n        /* \"#utility.yul\":6124:6133   */\n      dup2\n        /* \"#utility.yul\":6118:6122   */\n      dup2\n        /* \"#utility.yul\":6114:6134   */\n      sub\n        /* \"#utility.yul\":6110:6111   */\n      0x00\n        /* \"#utility.yul\":6099:6108   */\n      dup4\n        /* \"#utility.yul\":6095:6112   */\n      add\n        /* \"#utility.yul\":6088:6135   */\n      mstore\n        /* \"#utility.yul\":6152:6230   */\n      tag_144\n        /* \"#utility.yul\":6225:6229   */\n      dup2\n        /* \"#utility.yul\":6216:6222   */\n      dup5\n        /* \"#utility.yul\":6152:6230   */\n      tag_65\n      jump\t// in\n    tag_144:\n        /* \"#utility.yul\":6144:6230   */\n      swap1\n      pop\n        /* \"#utility.yul\":5924:6237   */\n      swap3\n      swap2\n      pop\n      pop\n      jump\t// out\n        /* \"#utility.yul\":6243:6392   */\n    tag_66:\n        /* \"#utility.yul\":6279:6286   */\n      0x00\n        /* \"#utility.yul\":6319:6385   */\n      0xffffff0000000000000000000000000000000000000000000000000000000000\n        /* \"#utility.yul\":6312:6317   */\n      dup3\n        /* \"#utility.yul\":6308:6386   */\n      and\n        /* \"#utility.yul\":6297:6386   */\n      swap1\n      pop\n        /* \"#utility.yul\":6243:6392   */\n      swap2\n      swap1\n      pop\n      jump\t// out\n        /* \"#utility.yul\":6398:6518   */\n    tag_67:\n        /* \"#utility.yul\":6470:6493   */\n      tag_147\n        /* \"#utility.yul\":6487:6492   */\n      dup2\n        /* \"#utility.yul\":6470:6493   */\n      tag_66\n      jump\t// in\n    tag_147:\n        /* \"#utility.yul\":6463:6468   */\n      dup2\n        /* \"#utility.yul\":6460:6494   */\n      eq\n        /* \"#utility.yul\":6450:6512   */\n      tag_148\n      jumpi\n        /* \"#utility.yul\":6508:6509   */\n      0x00\n        /* \"#utility.yul\":6505:6506   */\n      dup1\n        /* \"#utility.yul\":6498:6510   */\n      revert\n        /* \"#utility.yul\":6450:6512   */\n    tag_148:\n        /* \"#utility.yul\":6398:6518   */\n      pop\n      jump\t// out\n        /* \"#utility.yul\":6524:6661   */\n    tag_68:\n        /* \"#utility.yul\":6569:6574   */\n      0x00\n        /* \"#utility.yul\":6607:6613   */\n      dup2\n        /* \"#utility.yul\":6594:6614   */\n      calldataload\n        /* \"#utility.yul\":6585:6614   */\n      swap1\n      pop\n        /* \"#utility.yul\":6623:6655   */\n      tag_150\n        /* \"#utility.yul\":6649:6654   */\n      dup2\n        /* \"#utility.yul\":6623:6655   */\n      tag_67\n      jump\t// in\n    tag_150:\n        /* \"#utility.yul\":6524:6661   */\n      swap3\n      swap2\n      pop\n      pop\n      jump\t// out\n        /* \"#utility.yul\":6667:6994   */\n    tag_27:\n        /* \"#utility.yul\":6725:6731   */\n      0x00\n        /* \"#utility.yul\":6774:6776   */\n      0x20\n        /* \"#utility.yul\":6762:6771   */\n      dup3\n        /* \"#utility.yul\":6753:6760   */\n      dup5\n        /* \"#utility.yul\":6749:6772   */\n      sub\n        /* \"#utility.yul\":6745:6777   */\n      slt\n        /* \"#utility.yul\":6742:6861   */\n      iszero\n      tag_152\n      jumpi\n        /* \"#utility.yul\":6780:6859   */\n      tag_153\n      tag_42\n      jump\t// in\n    tag_153:\n        /* \"#utility.yul\":6742:6861   */\n    tag_152:\n        /* \"#utility.yul\":6900:6901   */\n      0x00\n        /* \"#utility.yul\":6925:6977   */\n      tag_154\n        /* \"#utility.yul\":6969:6976   */\n      dup5\n        /* \"#utility.yul\":6960:6966   */\n      dup3\n        /* \"#utility.yul\":6949:6958   */\n      dup6\n        /* \"#utility.yul\":6945:6967   */\n      add\n        /* \"#utility.yul\":6925:6977   */\n      tag_68\n      jump\t// in\n    tag_154:\n        /* \"#utility.yul\":6915:6977   */\n      swap2\n      pop\n        /* \"#utility.yul\":6871:6987   */\n      pop\n        /* \"#utility.yul\":6667:6994   */\n      swap3\n      swap2\n      pop\n      pop\n      jump\t// out\n        /* \"#utility.yul\":7000:7078   */\n    tag_69:\n        /* \"#utility.yul\":7038:7045   */\n      0x00\n        /* \"#utility.yul\":7067:7072   */\n      dup2\n        /* \"#utility.yul\":7056:7072   */\n      swap1\n      pop\n        /* \"#utility.yul\":7000:7078   */\n      swap2\n      swap1\n      pop\n      jump\t// out\n        /* \"#utility.yul\":7084:7237   */\n    tag_70:\n        /* \"#utility.yul\":7187:7230   */\n      tag_157\n        /* \"#utility.yul\":7206:7229   */\n      tag_158\n        /* \"#utility.yul\":7223:7228   */\n      dup3\n        /* \"#utility.yul\":7206:7229   */\n      tag_59\n      jump\t// in\n    tag_158:\n        /* \"#utility.yul\":7187:7230   */\n      tag_69\n      jump\t// in\n    tag_157:\n        /* \"#utility.yul\":7182:7185   */\n      dup3\n        /* \"#utility.yul\":7175:7231   */\n      mstore\n        /* \"#utility.yul\":7084:7237   */\n      pop\n      pop\n      jump\t// out\n        /* \"#utility.yul\":7243:7494   */\n    tag_38:\n        /* \"#utility.yul\":7353:7356   */\n      0x00\n        /* \"#utility.yul\":7368:7441   */\n      tag_160\n        /* \"#utility.yul\":7437:7440   */\n      dup3\n        /* \"#utility.yul\":7428:7434   */\n      dup5\n        /* \"#utility.yul\":7368:7441   */\n      tag_70\n      jump\t// in\n    tag_160:\n        /* \"#utility.yul\":7466:7467   */\n      0x01\n        /* \"#utility.yul\":7461:7464   */\n      dup3\n        /* \"#utility.yul\":7457:7468   */\n      add\n        /* \"#utility.yul\":7450:7468   */\n      swap2\n      pop\n        /* \"#utility.yul\":7485:7488   */\n      dup2\n        /* \"#utility.yul\":7478:7488   */\n      swap1\n      pop\n        /* \"#utility.yul\":7243:7494   */\n      swap3\n      swap2\n      pop\n      pop\n      jump\t// out\n\n    auxdata: 0xa2646970667358221220988f8f009b552943f6ec0ed22a213a1ea08767992ed352095d708700748fcf0964736f6c63430008120033\n}\n",
				"bytecode": {
					"linkReferences": {},
					"object": "608060405234801561001057600080fd5b50610629806100206000396000f3fe608060405234801561001057600080fd5b50600436106100575760003560e01c80632cbc5cd51461005c5780636114ceca1461008c57806364ad2a73146100bc578063ab421f74146100ec578063c1d9d5561461011c575b600080fd5b6100766004803603810190610071919061021c565b61014c565b6040516100839190610262565b60405180910390f35b6100a660048036038101906100a191906103c3565b61015a565b6040516100b39190610262565b60405180910390f35b6100d660048036038101906100d19190610464565b610165565b6040516100e39190610510565b60405180910390f35b6101066004803603810190610101919061058a565b610194565b6040516101139190610262565b60405180910390f35b61013660048036038101906101319190610464565b6101a2565b6040516101439190610262565b60405180910390f35b6000600260ff169050919050565b600081519050919050565b606060008260405160200161017a91906105d8565b604051602081830303815290604052905080915050919050565b6000600360ff169050919050565b6000600160ff169050919050565b6000604051905090565b600080fd5b600080fd5b60007fffff00000000000000000000000000000000000000000000000000000000000082169050919050565b6101f9816101c4565b811461020457600080fd5b50565b600081359050610216816101f0565b92915050565b600060208284031215610232576102316101ba565b5b600061024084828501610207565b91505092915050565b6000819050919050565b61025c81610249565b82525050565b60006020820190506102776000830184610253565b92915050565b600080fd5b600080fd5b6000601f19601f8301169050919050565b7f4e487b7100000000000000000000000000000000000000000000000000000000600052604160045260246000fd5b6102d082610287565b810181811067ffffffffffffffff821117156102ef576102ee610298565b5b80604052505050565b60006103026101b0565b905061030e82826102c7565b919050565b600067ffffffffffffffff82111561032e5761032d610298565b5b61033782610287565b9050602081019050919050565b82818337600083830152505050565b600061036661036184610313565b6102f8565b90508281526020810184848401111561038257610381610282565b5b61038d848285610344565b509392505050565b600082601f8301126103aa576103a961027d565b5b81356103ba848260208601610353565b91505092915050565b6000602082840312156103d9576103d86101ba565b5b600082013567ffffffffffffffff8111156103f7576103f66101bf565b5b61040384828501610395565b91505092915050565b60007fff0000000000000000000000000000000000000000000000000000000000000082169050919050565b6104418161040c565b811461044c57600080fd5b50565b60008135905061045e81610438565b92915050565b60006020828403121561047a576104796101ba565b5b60006104888482850161044f565b91505092915050565b600081519050919050565b600082825260208201905092915050565b60005b838110156104cb5780820151818401526020810190506104b0565b60008484015250505050565b60006104e282610491565b6104ec818561049c565b93506104fc8185602086016104ad565b61050581610287565b840191505092915050565b6000602082019050818103600083015261052a81846104d7565b905092915050565b60007fffffff000000000000000000000000000000000000000000000000000000000082169050919050565b61056781610532565b811461057257600080fd5b50565b6000813590506105848161055e565b92915050565b6000602082840312156105a05761059f6101ba565b5b60006105ae84828501610575565b91505092915050565b6000819050919050565b6105d26105cd8261040c565b6105b7565b82525050565b60006105e482846105c1565b6001820191508190509291505056fea2646970667358221220988f8f009b552943f6ec0ed22a213a1ea08767992ed352095d708700748fcf0964736f6c63430008120033",
					"opcodes": "PUSH1 0x80 PUSH1 0x40 MSTORE CALLVALUE DUP1 ISZERO PUSH2 0x10 JUMPI PUSH1 0x0 DUP1 REVERT JUMPDEST POP PUSH2 0x629 DUP1 PUSH2 0x20 PUSH1 0x0 CODECOPY PUSH1 0x0 RETURN INVALID PUSH1 0x80 PUSH1 0x40 MSTORE CALLVALUE DUP1 ISZERO PUSH2 0x10 JUMPI PUSH1 0x0 DUP1 REVERT JUMPDEST POP PUSH1 0x4 CALLDATASIZE LT PUSH2 0x57 JUMPI PUSH1 0x0 CALLDATALOAD PUSH1 0xE0 SHR DUP1 PUSH4 0x2CBC5CD5 EQ PUSH2 0x5C JUMPI DUP1 PUSH4 0x6114CECA EQ PUSH2 0x8C JUMPI DUP1 PUSH4 0x64AD2A73 EQ PUSH2 0xBC JUMPI DUP1 PUSH4 0xAB421F74 EQ PUSH2 0xEC JUMPI DUP1 PUSH4 0xC1D9D556 EQ PUSH2 0x11C JUMPI JUMPDEST PUSH1 0x0 DUP1 REVERT JUMPDEST PUSH2 0x76 PUSH1 0x4 DUP1 CALLDATASIZE SUB DUP2 ADD SWAP1 PUSH2 0x71 SWAP2 SWAP1 PUSH2 0x21C JUMP JUMPDEST PUSH2 0x14C JUMP JUMPDEST PUSH1 0x40 MLOAD PUSH2 0x83 SWAP2 SWAP1 PUSH2 0x262 JUMP JUMPDEST PUSH1 0x40 MLOAD DUP1 SWAP2 SUB SWAP1 RETURN JUMPDEST PUSH2 0xA6 PUSH1 0x4 DUP1 CALLDATASIZE SUB DUP2 ADD SWAP1 PUSH2 0xA1 SWAP2 SWAP1 PUSH2 0x3C3 JUMP JUMPDEST PUSH2 0x15A JUMP JUMPDEST PUSH1 0x40 MLOAD PUSH2 0xB3 SWAP2 SWAP1 PUSH2 0x262 JUMP JUMPDEST PUSH1 0x40 MLOAD DUP1 SWAP2 SUB SWAP1 RETURN JUMPDEST PUSH2 0xD6 PUSH1 0x4 DUP1 CALLDATASIZE SUB DUP2 ADD SWAP1 PUSH2 0xD1 SWAP2 SWAP1 PUSH2 0x464 JUMP JUMPDEST PUSH2 0x165 JUMP JUMPDEST PUSH1 0x40 MLOAD PUSH2 0xE3 SWAP2 SWAP1 PUSH2 0x510 JUMP JUMPDEST PUSH1 0x40 MLOAD DUP1 SWAP2 SUB SWAP1 RETURN JUMPDEST PUSH2 0x106 PUSH1 0x4 DUP1 CALLDATASIZE SUB DUP2 ADD SWAP1 PUSH2 0x101 SWAP2 SWAP1 PUSH2 0x58A JUMP JUMPDEST PUSH2 0x194 JUMP JUMPDEST PUSH1 0x40 MLOAD PUSH2 0x113 SWAP2 SWAP1 PUSH2 0x262 JUMP JUMPDEST PUSH1 0x40 MLOAD DUP1 SWAP2 SUB SWAP1 RETURN JUMPDEST PUSH2 0x136 PUSH1 0x4 DUP1 CALLDATASIZE SUB DUP2 ADD SWAP1 PUSH2 0x131 SWAP2 SWAP1 PUSH2 0x464 JUMP JUMPDEST PUSH2 0x1A2 JUMP JUMPDEST PUSH1 0x40 MLOAD PUSH2 0x143 SWAP2 SWAP1 PUSH2 0x262 JUMP JUMPDEST PUSH1 0x40 MLOAD DUP1 SWAP2 SUB SWAP1 RETURN JUMPDEST PUSH1 0x0 PUSH1 0x2 PUSH1 0xFF AND SWAP1 POP SWAP2 SWAP1 POP JUMP JUMPDEST PUSH1 0x0 DUP2 MLOAD SWAP1 POP SWAP2 SWAP1 POP JUMP JUMPDEST PUSH1 0x60 PUSH1 0x0 DUP3 PUSH1 0x40 MLOAD PUSH1 0x20 ADD PUSH2 0x17A SWAP2 SWAP1 PUSH2 0x5D8 JUMP JUMPDEST PUSH1 0x40 MLOAD PUSH1 0x20 DUP2 DUP4 SUB SUB DUP2 MSTORE SWAP1 PUSH1 0x40 MSTORE SWAP1 POP DUP1 SWAP2 POP POP SWAP2 SWAP1 POP JUMP JUMPDEST PUSH1 0x0 PUSH1 0x3 PUSH1 0xFF AND SWAP1 POP SWAP2 SWAP1 POP JUMP JUMPDEST PUSH1 0x0 PUSH1 0x1 PUSH1 0xFF AND SWAP1 POP SWAP2 SWAP1 POP JUMP JUMPDEST PUSH1 0x0 PUSH1 0x40 MLOAD SWAP1 POP SWAP1 JUMP JUMPDEST PUSH1 0x0 DUP1 REVERT JUMPDEST PUSH1 0x0 DUP1 REVERT JUMPDEST PUSH1 0x0 PUSH32 0xFFFF000000000000000000000000000000000000000000000000000000000000 DUP3 AND SWAP1 POP SWAP2 SWAP1 POP JUMP JUMPDEST PUSH2 0x1F9 DUP2 PUSH2 0x1C4 JUMP JUMPDEST DUP2 EQ PUSH2 0x204 JUMPI PUSH1 0x0 DUP1 REVERT JUMPDEST POP JUMP JUMPDEST PUSH1 0x0 DUP2 CALLDATALOAD SWAP1 POP PUSH2 0x216 DUP2 PUSH2 0x1F0 JUMP JUMPDEST SWAP3 SWAP2 POP POP JUMP JUMPDEST PUSH1 0x0 PUSH1 0x20 DUP3 DUP5 SUB SLT ISZERO PUSH2 0x232 JUMPI PUSH2 0x231 PUSH2 0x1BA JUMP JUMPDEST JUMPDEST PUSH1 0x0 PUSH2 0x240 DUP5 DUP3 DUP6 ADD PUSH2 0x207 JUMP JUMPDEST SWAP2 POP POP SWAP3 SWAP2 POP POP JUMP JUMPDEST PUSH1 0x0 DUP2 SWAP1 POP SWAP2 SWAP1 POP JUMP JUMPDEST PUSH2 0x25C DUP2 PUSH2 0x249 JUMP JUMPDEST DUP3 MSTORE POP POP JUMP JUMPDEST PUSH1 0x0 PUSH1 0x20 DUP3 ADD SWAP1 POP PUSH2 0x277 PUSH1 0x0 DUP4 ADD DUP5 PUSH2 0x253 JUMP JUMPDEST SWAP3 SWAP2 POP POP JUMP JUMPDEST PUSH1 0x0 DUP1 REVERT JUMPDEST PUSH1 0x0 DUP1 REVERT JUMPDEST PUSH1 0x0 PUSH1 0x1F NOT PUSH1 0x1F DUP4 ADD AND SWAP1 POP SWAP2 SWAP1 POP JUMP JUMPDEST PUSH32 0x4E487B7100000000000000000000000000000000000000000000000000000000 PUSH1 0x0 MSTORE PUSH1 0x41 PUSH1 0x4 MSTORE PUSH1 0x24 PUSH1 0x0 REVERT JUMPDEST PUSH2 0x2D0 DUP3 PUSH2 0x287 JUMP JUMPDEST DUP2 ADD DUP2 DUP2 LT PUSH8 0xFFFFFFFFFFFFFFFF DUP3 GT OR ISZERO PUSH2 0x2EF JUMPI PUSH2 0x2EE PUSH2 0x298 JUMP JUMPDEST JUMPDEST DUP1 PUSH1 0x40 MSTORE POP POP POP JUMP JUMPDEST PUSH1 0x0 PUSH2 0x302 PUSH2 0x1B0 JUMP JUMPDEST SWAP1 POP PUSH2 0x30E DUP3 DUP3 PUSH2 0x2C7 JUMP JUMPDEST SWAP2 SWAP1 POP JUMP JUMPDEST PUSH1 0x0 PUSH8 0xFFFFFFFFFFFFFFFF DUP3 GT ISZERO PUSH2 0x32E JUMPI PUSH2 0x32D PUSH2 0x298 JUMP JUMPDEST JUMPDEST PUSH2 0x337 DUP3 PUSH2 0x287 JUMP JUMPDEST SWAP1 POP PUSH1 0x20 DUP2 ADD SWAP1 POP SWAP2 SWAP1 POP JUMP JUMPDEST DUP3 DUP2 DUP4 CALLDATACOPY PUSH1 0x0 DUP4 DUP4 ADD MSTORE POP POP POP JUMP JUMPDEST PUSH1 0x0 PUSH2 0x366 PUSH2 0x361 DUP5 PUSH2 0x313 JUMP JUMPDEST PUSH2 0x2F8 JUMP JUMPDEST SWAP1 POP DUP3 DUP2 MSTORE PUSH1 0x20 DUP2 ADD DUP5 DUP5 DUP5 ADD GT ISZERO PUSH2 0x382 JUMPI PUSH2 0x381 PUSH2 0x282 JUMP JUMPDEST JUMPDEST PUSH2 0x38D DUP5 DUP3 DUP6 PUSH2 0x344 JUMP JUMPDEST POP SWAP4 SWAP3 POP POP POP JUMP JUMPDEST PUSH1 0x0 DUP3 PUSH1 0x1F DUP4 ADD SLT PUSH2 0x3AA JUMPI PUSH2 0x3A9 PUSH2 0x27D JUMP JUMPDEST JUMPDEST DUP2 CALLDATALOAD PUSH2 0x3BA DUP5 DUP3 PUSH1 0x20 DUP7 ADD PUSH2 0x353 JUMP JUMPDEST SWAP2 POP POP SWAP3 SWAP2 POP POP JUMP JUMPDEST PUSH1 0x0 PUSH1 0x20 DUP3 DUP5 SUB SLT ISZERO PUSH2 0x3D9 JUMPI PUSH2 0x3D8 PUSH2 0x1BA JUMP JUMPDEST JUMPDEST PUSH1 0x0 DUP3 ADD CALLDATALOAD PUSH8 0xFFFFFFFFFFFFFFFF DUP2 GT ISZERO PUSH2 0x3F7 JUMPI PUSH2 0x3F6 PUSH2 0x1BF JUMP JUMPDEST JUMPDEST PUSH2 0x403 DUP5 DUP3 DUP6 ADD PUSH2 0x395 JUMP JUMPDEST SWAP2 POP POP SWAP3 SWAP2 POP POP JUMP JUMPDEST PUSH1 0x0 PUSH32 0xFF00000000000000000000000000000000000000000000000000000000000000 DUP3 AND SWAP1 POP SWAP2 SWAP1 POP JUMP JUMPDEST PUSH2 0x441 DUP2 PUSH2 0x40C JUMP JUMPDEST DUP2 EQ PUSH2 0x44C JUMPI PUSH1 0x0 DUP1 REVERT JUMPDEST POP JUMP JUMPDEST PUSH1 0x0 DUP2 CALLDATALOAD SWAP1 POP PUSH2 0x45E DUP2 PUSH2 0x438 JUMP JUMPDEST SWAP3 SWAP2 POP POP JUMP JUMPDEST PUSH1 0x0 PUSH1 0x20 DUP3 DUP5 SUB SLT ISZERO PUSH2 0x47A JUMPI PUSH2 0x479 PUSH2 0x1BA JUMP JUMPDEST JUMPDEST PUSH1 0x0 PUSH2 0x488 DUP5 DUP3 DUP6 ADD PUSH2 0x44F JUMP JUMPDEST SWAP2 POP POP SWAP3 SWAP2 POP POP JUMP JUMPDEST PUSH1 0x0 DUP2 MLOAD SWAP1 POP SWAP2 SWAP1 POP JUMP JUMPDEST PUSH1 0x0 DUP3 DUP3 MSTORE PUSH1 0x20 DUP3 ADD SWAP1 POP SWAP3 SWAP2 POP POP JUMP JUMPDEST PUSH1 0x0 JUMPDEST DUP4 DUP2 LT ISZERO PUSH2 0x4CB JUMPI DUP1 DUP3 ADD MLOAD DUP2 DUP5 ADD MSTORE PUSH1 0x20 DUP2 ADD SWAP1 POP PUSH2 0x4B0 JUMP JUMPDEST PUSH1 0x0 DUP5 DUP5 ADD MSTORE POP POP POP POP JUMP JUMPDEST PUSH1 0x0 PUSH2 0x4E2 DUP3 PUSH2 0x491 JUMP JUMPDEST PUSH2 0x4EC DUP2 DUP6 PUSH2 0x49C JUMP JUMPDEST SWAP4 POP PUSH2 0x4FC DUP2 DUP6 PUSH1 0x20 DUP7 ADD PUSH2 0x4AD JUMP JUMPDEST PUSH2 0x505 DUP2 PUSH2 0x287 JUMP JUMPDEST DUP5 ADD SWAP2 POP POP SWAP3 SWAP2 POP POP JUMP JUMPDEST PUSH1 0x0 PUSH1 0x20 DUP3 ADD SWAP1 POP DUP2 DUP2 SUB PUSH1 0x0 DUP4 ADD MSTORE PUSH2 0x52A DUP2 DUP5 PUSH2 0x4D7 JUMP JUMPDEST SWAP1 POP SWAP3 SWAP2 POP POP JUMP JUMPDEST PUSH1 0x0 PUSH32 0xFFFFFF0000000000000000000000000000000000000000000000000000000000 DUP3 AND SWAP1 POP SWAP2 SWAP1 POP JUMP JUMPDEST PUSH2 0x567 DUP2 PUSH2 0x532 JUMP JUMPDEST DUP2 EQ PUSH2 0x572 JUMPI PUSH1 0x0 DUP1 REVERT JUMPDEST POP JUMP JUMPDEST PUSH1 0x0 DUP2 CALLDATALOAD SWAP1 POP PUSH2 0x584 DUP2 PUSH2 0x55E JUMP JUMPDEST SWAP3 SWAP2 POP POP JUMP JUMPDEST PUSH1 0x0 PUSH1 0x20 DUP3 DUP5 SUB SLT ISZERO PUSH2 0x5A0 JUMPI PUSH2 0x59F PUSH2 0x1BA JUMP JUMPDEST JUMPDEST PUSH1 0x0 PUSH2 0x5AE DUP5 DUP3 DUP6 ADD PUSH2 0x575 JUMP JUMPDEST SWAP2 POP POP SWAP3 SWAP2 POP POP JUMP JUMPDEST PUSH1 0x0 DUP2 SWAP1 POP SWAP2 SWAP1 POP JUMP JUMPDEST PUSH2 0x5D2 PUSH2 0x5CD DUP3 PUSH2 0x40C JUMP JUMPDEST PUSH2 0x5B7 JUMP JUMPDEST DUP3 MSTORE POP POP JUMP JUMPDEST PUSH1 0x0 PUSH2 0x5E4 DUP3 DUP5 PUSH2 0x5C1 JUMP JUMPDEST PUSH1 0x1 DUP3 ADD SWAP2 POP DUP2 SWAP1 POP SWAP3 SWAP2 POP POP JUMP INVALID LOG2 PUSH5 0x6970667358 0x22 SLT KECCAK256 SWAP9 DUP16 DUP16 STOP SWAP12 SSTORE 0x29 NUMBER 0xF6 0xEC 0xE 0xD2 0x2A 0x21 GASPRICE 0x1E LOG0 DUP8 PUSH8 0x992ED352095D7087 STOP PUSH21 0x8FCF0964736F6C6343000812003300000000000000 "
				},
				"gasEstimates": {
					"creation": {
						"codeDepositCost": "315400",
						"executionCost": "355",
						"totalCost": "315755"
					},
					"external": {
						"bytes1ToString(bytes1)": "infinite",
						"getLength(bytes)": "infinite",
						"getLength1(bytes1)": "680",
						"getLength2(bytes2)": "592",
						"getLength3(bytes3)": "658"
					}
				},
				"methodIdentifiers": {
					"bytes1ToString(bytes1)": "64ad2a73",
					"getLength(bytes)": "6114ceca",
					"getLength1(bytes1)": "c1d9d556",
					"getLength2(bytes2)": "2cbc5cd5",
					"getLength3(bytes3)": "ab421f74"
				}
			},
			"storageLayout": {
				"storage": [],
				"types": null
			},
			"userdoc": {
				"kind": "user",
				"methods": {},
				"version": 1
			}
		}
	}
}