{
	"contracts-lecture/230511-practice.sol": {
		"practice": {
			"abi": [
				{
					"inputs": [],
					"name": "getAllStudents",
					"outputs": [
						{
							"components": [
								{
									"internalType": "string",
									"name": "name",
									"type": "string"
								},
								{
									"internalType": "uint256",
									"name": "number",
									"type": "uint256"
								},
								{
									"internalType": "uint256",
									"name": "score",
									"type": "uint256"
								},
								{
									"internalType": "string",
									"name": "credit",
									"type": "string"
								},
								{
									"internalType": "string[]",
									"name": "classes",
									"type": "string[]"
								}
							],
							"internalType": "struct practice.Student[]",
							"name": "",
							"type": "tuple[]"
						}
					],
					"stateMutability": "view",
					"type": "function"
				},
				{
					"inputs": [],
					"name": "getAvg",
					"outputs": [
						{
							"internalType": "uint256",
							"name": "",
							"type": "uint256"
						}
					],
					"stateMutability": "view",
					"type": "function"
				},
				{
					"inputs": [],
					"name": "getFClass",
					"outputs": [
						{
							"internalType": "uint256",
							"name": "",
							"type": "uint256"
						}
					],
					"stateMutability": "view",
					"type": "function"
				},
				{
					"inputs": [
						{
							"internalType": "string",
							"name": "_name",
							"type": "string"
						}
					],
					"name": "getStudentByName",
					"outputs": [
						{
							"components": [
								{
									"internalType": "string",
									"name": "name",
									"type": "string"
								},
								{
									"internalType": "uint256",
									"name": "number",
									"type": "uint256"
								},
								{
									"internalType": "uint256",
									"name": "score",
									"type": "uint256"
								},
								{
									"internalType": "string",
									"name": "credit",
									"type": "string"
								},
								{
									"internalType": "string[]",
									"name": "classes",
									"type": "string[]"
								}
							],
							"internalType": "struct practice.Student",
							"name": "",
							"type": "tuple"
						}
					],
					"stateMutability": "view",
					"type": "function"
				},
				{
					"inputs": [
						{
							"internalType": "uint256",
							"name": "_number",
							"type": "uint256"
						}
					],
					"name": "getStudentByNumber",
					"outputs": [
						{
							"components": [
								{
									"internalType": "string",
									"name": "name",
									"type": "string"
								},
								{
									"internalType": "uint256",
									"name": "number",
									"type": "uint256"
								},
								{
									"internalType": "uint256",
									"name": "score",
									"type": "uint256"
								},
								{
									"internalType": "string",
									"name": "credit",
									"type": "string"
								},
								{
									"internalType": "string[]",
									"name": "classes",
									"type": "string[]"
								}
							],
							"internalType": "struct practice.Student",
							"name": "",
							"type": "tuple"
						}
					],
					"stateMutability": "view",
					"type": "function"
				},
				{
					"inputs": [],
					"name": "getStudentsNum",
					"outputs": [
						{
							"internalType": "uint256",
							"name": "",
							"type": "uint256"
						}
					],
					"stateMutability": "view",
					"type": "function"
				},
				{
					"inputs": [
						{
							"internalType": "string",
							"name": "_name",
							"type": "string"
						},
						{
							"internalType": "uint256",
							"name": "_score",
							"type": "uint256"
						},
						{
							"internalType": "string[]",
							"name": "_classes",
							"type": "string[]"
						}
					],
					"name": "pushStudent",
					"outputs": [],
					"stateMutability": "nonpayable",
					"type": "function"
				},
				{
					"inputs": [],
					"name": "selfEval",
					"outputs": [
						{
							"internalType": "bool",
							"name": "",
							"type": "bool"
						}
					],
					"stateMutability": "view",
					"type": "function"
				},
				{
					"inputs": [
						{
							"internalType": "uint256",
							"name": "_score",
							"type": "uint256"
						}
					],
					"name": "setCredit",
					"outputs": [
						{
							"internalType": "string",
							"name": "",
							"type": "string"
						}
					],
					"stateMutability": "pure",
					"type": "function"
				}
			],
			"devdoc": {
				"kind": "dev",
				"methods": {},
				"version": 1
			},
			"evm": {
				"assembly": "    /* \"contracts-lecture/230511-practice.sol\":63:3365  contract practice {... */\n  mstore(0x40, 0x80)\n  callvalue\n  dup1\n  iszero\n  tag_1\n  jumpi\n  0x00\n  dup1\n  revert\ntag_1:\n  pop\n  dataSize(sub_0)\n  dup1\n  dataOffset(sub_0)\n  0x00\n  codecopy\n  0x00\n  return\nstop\n\nsub_0: assembly {\n        /* \"contracts-lecture/230511-practice.sol\":63:3365  contract practice {... */\n      mstore(0x40, 0x80)\n      callvalue\n      dup1\n      iszero\n      tag_1\n      jumpi\n      0x00\n      dup1\n      revert\n    tag_1:\n      pop\n      jumpi(tag_2, lt(calldatasize, 0x04))\n      shr(0xe0, calldataload(0x00))\n      dup1\n      0x83b41ad8\n      gt\n      tag_12\n      jumpi\n      dup1\n      0x83b41ad8\n      eq\n      tag_7\n      jumpi\n      dup1\n      0xa05ab6d0\n      eq\n      tag_8\n      jumpi\n      dup1\n      0xa41f985e\n      eq\n      tag_9\n      jumpi\n      dup1\n      0xe9e30927\n      eq\n      tag_10\n      jumpi\n      dup1\n      0xeac1d5b7\n      eq\n      tag_11\n      jumpi\n      jump(tag_2)\n    tag_12:\n      dup1\n      0x243e4896\n      eq\n      tag_3\n      jumpi\n      dup1\n      0x390b6a4c\n      eq\n      tag_4\n      jumpi\n      dup1\n      0x74aa6858\n      eq\n      tag_5\n      jumpi\n      dup1\n      0x7674f2d8\n      eq\n      tag_6\n      jumpi\n    tag_2:\n      0x00\n      dup1\n      revert\n        /* \"contracts-lecture/230511-practice.sol\":3026:3363  function getFClass() public view returns(uint) {... */\n    tag_3:\n      tag_13\n      tag_14\n      jump\t// in\n    tag_13:\n      mload(0x40)\n      tag_15\n      swap2\n      swap1\n      tag_16\n      jump\t// in\n    tag_15:\n      mload(0x40)\n      dup1\n      swap2\n      sub\n      swap1\n      return\n        /* \"contracts-lecture/230511-practice.sol\":2386:2611  function getAvg() public view returns(uint) {... */\n    tag_4:\n      tag_17\n      tag_18\n      jump\t// in\n    tag_17:\n      mload(0x40)\n      tag_19\n      swap2\n      swap1\n      tag_16\n      jump\t// in\n    tag_19:\n      mload(0x40)\n      dup1\n      swap2\n      sub\n      swap1\n      return\n        /* \"contracts-lecture/230511-practice.sol\":1064:1356  function pushStudent(string memory _name, uint _score, string[] memory _classes) public {... */\n    tag_5:\n      tag_20\n      0x04\n      dup1\n      calldatasize\n      sub\n      dup2\n      add\n      swap1\n      tag_21\n      swap2\n      swap1\n      tag_22\n      jump\t// in\n    tag_21:\n      tag_23\n      jump\t// in\n    tag_20:\n      stop\n        /* \"contracts-lecture/230511-practice.sol\":1984:2075  function getStudentsNum() public view returns(uint) {... */\n    tag_6:\n      tag_24\n      tag_25\n      jump\t// in\n    tag_24:\n      mload(0x40)\n      tag_26\n      swap2\n      swap1\n      tag_16\n      jump\t// in\n    tag_26:\n      mload(0x40)\n      dup1\n      swap2\n      sub\n      swap1\n      return\n        /* \"contracts-lecture/230511-practice.sol\":1759:1885  function getStudentByName(string memory _name) public view returns(Student memory) {... */\n    tag_7:\n      tag_27\n      0x04\n      dup1\n      calldatasize\n      sub\n      dup2\n      add\n      swap1\n      tag_28\n      swap2\n      swap1\n      tag_29\n      jump\t// in\n    tag_28:\n      tag_30\n      jump\t// in\n    tag_27:\n      mload(0x40)\n      tag_31\n      swap2\n      swap1\n      tag_32\n      jump\t// in\n    tag_31:\n      mload(0x40)\n      dup1\n      swap2\n      sub\n      swap1\n      return\n        /* \"contracts-lecture/230511-practice.sol\":2754:2915  function selfEval() public view returns(bool) {... */\n    tag_8:\n      tag_33\n      tag_34\n      jump\t// in\n    tag_33:\n      mload(0x40)\n      tag_35\n      swap2\n      swap1\n      tag_36\n      jump\t// in\n    tag_35:\n      mload(0x40)\n      dup1\n      swap2\n      sub\n      swap1\n      return\n        /* \"contracts-lecture/230511-practice.sol\":1476:1597  function getStudentByNumber(uint _number) public view returns(Student memory) {... */\n    tag_9:\n      tag_37\n      0x04\n      dup1\n      calldatasize\n      sub\n      dup2\n      add\n      swap1\n      tag_38\n      swap2\n      swap1\n      tag_39\n      jump\t// in\n    tag_38:\n      tag_40\n      jump\t// in\n    tag_37:\n      mload(0x40)\n      tag_41\n      swap2\n      swap1\n      tag_32\n      jump\t// in\n    tag_41:\n      mload(0x40)\n      dup1\n      swap2\n      sub\n      swap1\n      return\n        /* \"contracts-lecture/230511-practice.sol\":2181:2277  function getAllStudents() public view returns(Student[] memory) {... */\n    tag_10:\n      tag_42\n      tag_43\n      jump\t// in\n    tag_42:\n      mload(0x40)\n      tag_44\n      swap2\n      swap1\n      tag_45\n      jump\t// in\n    tag_44:\n      mload(0x40)\n      dup1\n      swap2\n      sub\n      swap1\n      return\n        /* \"contracts-lecture/230511-practice.sol\":638:992  function setCredit(uint _score) public pure returns(string memory) {... */\n    tag_11:\n      tag_46\n      0x04\n      dup1\n      calldatasize\n      sub\n      dup2\n      add\n      swap1\n      tag_47\n      swap2\n      swap1\n      tag_39\n      jump\t// in\n    tag_47:\n      tag_48\n      jump\t// in\n    tag_46:\n      mload(0x40)\n      tag_49\n      swap2\n      swap1\n      tag_50\n      jump\t// in\n    tag_49:\n      mload(0x40)\n      dup1\n      swap2\n      sub\n      swap1\n      return\n        /* \"contracts-lecture/230511-practice.sol\":3026:3363  function getFClass() public view returns(uint) {... */\n    tag_14:\n        /* \"contracts-lecture/230511-practice.sol\":3067:3071  uint */\n      0x00\n        /* \"contracts-lecture/230511-practice.sol\":3083:3091  uint num */\n      dup1\n        /* \"contracts-lecture/230511-practice.sol\":3168:3174  uint i */\n      0x00\n        /* \"contracts-lecture/230511-practice.sol\":3163:3337  for (uint i=0; i<students.length; i++) {... */\n    tag_52:\n        /* \"contracts-lecture/230511-practice.sol\":3180:3188  students */\n      0x00\n        /* \"contracts-lecture/230511-practice.sol\":3180:3195  students.length */\n      dup1\n      sload\n      swap1\n      pop\n        /* \"contracts-lecture/230511-practice.sol\":3178:3179  i */\n      dup2\n        /* \"contracts-lecture/230511-practice.sol\":3178:3195  i<students.length */\n      lt\n        /* \"contracts-lecture/230511-practice.sol\":3163:3337  for (uint i=0; i<students.length; i++) {... */\n      iszero\n      tag_53\n      jumpi\n        /* \"contracts-lecture/230511-practice.sol\":3270:3280  bytes(\"F\") */\n      mload(0x40)\n      dup1\n      0x40\n      add\n      0x40\n      mstore\n      dup1\n      0x01\n      dup2\n      mstore\n      0x20\n      add\n      0x4600000000000000000000000000000000000000000000000000000000000000\n      dup2\n      mstore\n      pop\n        /* \"contracts-lecture/230511-practice.sol\":3260:3281  keccak256(bytes(\"F\")) */\n      dup1\n      mload\n      swap1\n      0x20\n      add\n      keccak256\n        /* \"contracts-lecture/230511-practice.sol\":3236:3244  students */\n      0x00\n        /* \"contracts-lecture/230511-practice.sol\":3245:3246  i */\n      dup3\n        /* \"contracts-lecture/230511-practice.sol\":3236:3247  students[i] */\n      dup2\n      sload\n      dup2\n      lt\n      tag_55\n      jumpi\n      tag_56\n      tag_57\n      jump\t// in\n    tag_56:\n    tag_55:\n      swap1\n      0x00\n      mstore\n      keccak256(0x00, 0x20)\n      swap1\n      0x05\n      mul\n      add\n        /* \"contracts-lecture/230511-practice.sol\":3236:3254  students[i].credit */\n      0x03\n      add\n        /* \"contracts-lecture/230511-practice.sol\":3220:3256  keccak256(bytes(students[i].credit)) */\n      mload(0x40)\n      tag_59\n      swap2\n      swap1\n      tag_60\n      jump\t// in\n    tag_59:\n      mload(0x40)\n      dup1\n      swap2\n      sub\n      swap1\n      keccak256\n        /* \"contracts-lecture/230511-practice.sol\":3220:3281  keccak256(bytes(students[i].credit)) == keccak256(bytes(\"F\")) */\n      sub\n        /* \"contracts-lecture/230511-practice.sol\":3216:3327  if (keccak256(bytes(students[i].credit)) == keccak256(bytes(\"F\"))) {... */\n      tag_61\n      jumpi\n        /* \"contracts-lecture/230511-practice.sol\":3301:3307  num ++ */\n      dup2\n      dup1\n      tag_62\n      swap1\n      tag_63\n      jump\t// in\n    tag_62:\n      swap3\n      pop\n      pop\n        /* \"contracts-lecture/230511-practice.sol\":3216:3327  if (keccak256(bytes(students[i].credit)) == keccak256(bytes(\"F\"))) {... */\n    tag_61:\n        /* \"contracts-lecture/230511-practice.sol\":3197:3200  i++ */\n      dup1\n      dup1\n      tag_64\n      swap1\n      tag_63\n      jump\t// in\n    tag_64:\n      swap2\n      pop\n      pop\n        /* \"contracts-lecture/230511-practice.sol\":3163:3337  for (uint i=0; i<students.length; i++) {... */\n      jump(tag_52)\n    tag_53:\n      pop\n        /* \"contracts-lecture/230511-practice.sol\":3353:3356  num */\n      dup1\n        /* \"contracts-lecture/230511-practice.sol\":3346:3356  return num */\n      swap2\n      pop\n      pop\n        /* \"contracts-lecture/230511-practice.sol\":3026:3363  function getFClass() public view returns(uint) {... */\n      swap1\n      jump\t// out\n        /* \"contracts-lecture/230511-practice.sol\":2386:2611  function getAvg() public view returns(uint) {... */\n    tag_18:\n        /* \"contracts-lecture/230511-practice.sol\":2424:2428  uint */\n      0x00\n        /* \"contracts-lecture/230511-practice.sol\":2440:2455  uint totalScore */\n      dup1\n        /* \"contracts-lecture/230511-practice.sol\":2470:2476  uint i */\n      0x00\n        /* \"contracts-lecture/230511-practice.sol\":2465:2560  for (uint i=0; i<students.length; i++) {... */\n    tag_66:\n        /* \"contracts-lecture/230511-practice.sol\":2482:2490  students */\n      0x00\n        /* \"contracts-lecture/230511-practice.sol\":2482:2497  students.length */\n      dup1\n      sload\n      swap1\n      pop\n        /* \"contracts-lecture/230511-practice.sol\":2480:2481  i */\n      dup2\n        /* \"contracts-lecture/230511-practice.sol\":2480:2497  i<students.length */\n      lt\n        /* \"contracts-lecture/230511-practice.sol\":2465:2560  for (uint i=0; i<students.length; i++) {... */\n      iszero\n      tag_67\n      jumpi\n        /* \"contracts-lecture/230511-practice.sol\":2532:2540  students */\n      0x00\n        /* \"contracts-lecture/230511-practice.sol\":2541:2542  i */\n      dup2\n        /* \"contracts-lecture/230511-practice.sol\":2532:2543  students[i] */\n      dup2\n      sload\n      dup2\n      lt\n      tag_69\n      jumpi\n      tag_70\n      tag_57\n      jump\t// in\n    tag_70:\n    tag_69:\n      swap1\n      0x00\n      mstore\n      keccak256(0x00, 0x20)\n      swap1\n      0x05\n      mul\n      add\n        /* \"contracts-lecture/230511-practice.sol\":2532:2549  students[i].score */\n      0x02\n      add\n      sload\n        /* \"contracts-lecture/230511-practice.sol\":2518:2549  totalScore += students[i].score */\n      dup3\n      tag_72\n      swap2\n      swap1\n      tag_73\n      jump\t// in\n    tag_72:\n      swap2\n      pop\n        /* \"contracts-lecture/230511-practice.sol\":2499:2502  i++ */\n      dup1\n      dup1\n      tag_74\n      swap1\n      tag_63\n      jump\t// in\n    tag_74:\n      swap2\n      pop\n      pop\n        /* \"contracts-lecture/230511-practice.sol\":2465:2560  for (uint i=0; i<students.length; i++) {... */\n      jump(tag_66)\n    tag_67:\n      pop\n        /* \"contracts-lecture/230511-practice.sol\":2589:2597  students */\n      0x00\n        /* \"contracts-lecture/230511-practice.sol\":2589:2604  students.length */\n      dup1\n      sload\n      swap1\n      pop\n        /* \"contracts-lecture/230511-practice.sol\":2576:2586  totalScore */\n      dup2\n        /* \"contracts-lecture/230511-practice.sol\":2576:2604  totalScore / students.length */\n      tag_75\n      swap2\n      swap1\n      tag_76\n      jump\t// in\n    tag_75:\n        /* \"contracts-lecture/230511-practice.sol\":2569:2604  return totalScore / students.length */\n      swap2\n      pop\n      pop\n        /* \"contracts-lecture/230511-practice.sol\":2386:2611  function getAvg() public view returns(uint) {... */\n      swap1\n      jump\t// out\n        /* \"contracts-lecture/230511-practice.sol\":1064:1356  function pushStudent(string memory _name, uint _score, string[] memory _classes) public {... */\n    tag_23:\n        /* \"contracts-lecture/230511-practice.sol\":1162:1170  students */\n      0x00\n        /* \"contracts-lecture/230511-practice.sol\":1176:1246  Student(_name, students.length+1, _score, setCredit(_score), _classes) */\n      mload(0x40)\n      dup1\n      0xa0\n      add\n      0x40\n      mstore\n      dup1\n        /* \"contracts-lecture/230511-practice.sol\":1184:1189  _name */\n      dup6\n        /* \"contracts-lecture/230511-practice.sol\":1176:1246  Student(_name, students.length+1, _score, setCredit(_score), _classes) */\n      dup2\n      mstore\n      0x20\n      add\n        /* \"contracts-lecture/230511-practice.sol\":1207:1208  1 */\n      0x01\n        /* \"contracts-lecture/230511-practice.sol\":1191:1199  students */\n      0x00\n        /* \"contracts-lecture/230511-practice.sol\":1191:1206  students.length */\n      dup1\n      sload\n      swap1\n      pop\n        /* \"contracts-lecture/230511-practice.sol\":1191:1208  students.length+1 */\n      tag_78\n      swap2\n      swap1\n      tag_73\n      jump\t// in\n    tag_78:\n        /* \"contracts-lecture/230511-practice.sol\":1176:1246  Student(_name, students.length+1, _score, setCredit(_score), _classes) */\n      dup2\n      mstore\n      0x20\n      add\n        /* \"contracts-lecture/230511-practice.sol\":1210:1216  _score */\n      dup5\n        /* \"contracts-lecture/230511-practice.sol\":1176:1246  Student(_name, students.length+1, _score, setCredit(_score), _classes) */\n      dup2\n      mstore\n      0x20\n      add\n        /* \"contracts-lecture/230511-practice.sol\":1218:1235  setCredit(_score) */\n      tag_79\n        /* \"contracts-lecture/230511-practice.sol\":1228:1234  _score */\n      dup6\n        /* \"contracts-lecture/230511-practice.sol\":1218:1227  setCredit */\n      tag_48\n        /* \"contracts-lecture/230511-practice.sol\":1218:1235  setCredit(_score) */\n      jump\t// in\n    tag_79:\n        /* \"contracts-lecture/230511-practice.sol\":1176:1246  Student(_name, students.length+1, _score, setCredit(_score), _classes) */\n      dup2\n      mstore\n      0x20\n      add\n        /* \"contracts-lecture/230511-practice.sol\":1237:1245  _classes */\n      dup4\n        /* \"contracts-lecture/230511-practice.sol\":1176:1246  Student(_name, students.length+1, _score, setCredit(_score), _classes) */\n      dup2\n      mstore\n      pop\n        /* \"contracts-lecture/230511-practice.sol\":1162:1247  students.push(Student(_name, students.length+1, _score, setCredit(_score), _classes)) */\n      swap1\n      dup1\n      0x01\n      dup2\n      sload\n      add\n      dup1\n      dup3\n      sstore\n      dup1\n      swap2\n      pop\n      pop\n      0x01\n      swap1\n      sub\n      swap1\n      0x00\n      mstore\n      keccak256(0x00, 0x20)\n      swap1\n      0x05\n      mul\n      add\n      0x00\n      swap1\n      swap2\n      swap1\n      swap2\n      swap1\n      swap2\n      pop\n      0x00\n      dup3\n      add\n      mload\n      dup2\n      0x00\n      add\n      swap1\n      dup2\n      tag_81\n      swap2\n      swap1\n      tag_82\n      jump\t// in\n    tag_81:\n      pop\n      0x20\n      dup3\n      add\n      mload\n      dup2\n      0x01\n      add\n      sstore\n      0x40\n      dup3\n      add\n      mload\n      dup2\n      0x02\n      add\n      sstore\n      0x60\n      dup3\n      add\n      mload\n      dup2\n      0x03\n      add\n      swap1\n      dup2\n      tag_83\n      swap2\n      swap1\n      tag_82\n      jump\t// in\n    tag_83:\n      pop\n      0x80\n      dup3\n      add\n      mload\n      dup2\n      0x04\n      add\n      swap1\n      dup1\n      mload\n      swap1\n      0x20\n      add\n      swap1\n      tag_84\n      swap3\n      swap2\n      swap1\n      tag_85\n      jump\t// in\n    tag_84:\n      pop\n      pop\n      pop\n        /* \"contracts-lecture/230511-practice.sol\":1279:1349  Student(_name, students.length+1, _score, setCredit(_score), _classes) */\n      mload(0x40)\n      dup1\n      0xa0\n      add\n      0x40\n      mstore\n      dup1\n        /* \"contracts-lecture/230511-practice.sol\":1287:1292  _name */\n      dup5\n        /* \"contracts-lecture/230511-practice.sol\":1279:1349  Student(_name, students.length+1, _score, setCredit(_score), _classes) */\n      dup2\n      mstore\n      0x20\n      add\n        /* \"contracts-lecture/230511-practice.sol\":1310:1311  1 */\n      0x01\n        /* \"contracts-lecture/230511-practice.sol\":1294:1302  students */\n      0x00\n        /* \"contracts-lecture/230511-practice.sol\":1294:1309  students.length */\n      dup1\n      sload\n      swap1\n      pop\n        /* \"contracts-lecture/230511-practice.sol\":1294:1311  students.length+1 */\n      tag_86\n      swap2\n      swap1\n      tag_73\n      jump\t// in\n    tag_86:\n        /* \"contracts-lecture/230511-practice.sol\":1279:1349  Student(_name, students.length+1, _score, setCredit(_score), _classes) */\n      dup2\n      mstore\n      0x20\n      add\n        /* \"contracts-lecture/230511-practice.sol\":1313:1319  _score */\n      dup4\n        /* \"contracts-lecture/230511-practice.sol\":1279:1349  Student(_name, students.length+1, _score, setCredit(_score), _classes) */\n      dup2\n      mstore\n      0x20\n      add\n        /* \"contracts-lecture/230511-practice.sol\":1321:1338  setCredit(_score) */\n      tag_87\n        /* \"contracts-lecture/230511-practice.sol\":1331:1337  _score */\n      dup5\n        /* \"contracts-lecture/230511-practice.sol\":1321:1330  setCredit */\n      tag_48\n        /* \"contracts-lecture/230511-practice.sol\":1321:1338  setCredit(_score) */\n      jump\t// in\n    tag_87:\n        /* \"contracts-lecture/230511-practice.sol\":1279:1349  Student(_name, students.length+1, _score, setCredit(_score), _classes) */\n      dup2\n      mstore\n      0x20\n      add\n        /* \"contracts-lecture/230511-practice.sol\":1340:1348  _classes */\n      dup3\n        /* \"contracts-lecture/230511-practice.sol\":1279:1349  Student(_name, students.length+1, _score, setCredit(_score), _classes) */\n      dup2\n      mstore\n      pop\n        /* \"contracts-lecture/230511-practice.sol\":1257:1269  name_Student */\n      0x01\n        /* \"contracts-lecture/230511-practice.sol\":1270:1275  _name */\n      dup5\n        /* \"contracts-lecture/230511-practice.sol\":1257:1276  name_Student[_name] */\n      mload(0x40)\n      tag_88\n      swap2\n      swap1\n      tag_89\n      jump\t// in\n    tag_88:\n      swap1\n      dup2\n      mstore\n      0x20\n      add\n      mload(0x40)\n      dup1\n      swap2\n      sub\n      swap1\n      keccak256\n        /* \"contracts-lecture/230511-practice.sol\":1257:1349  name_Student[_name] = Student(_name, students.length+1, _score, setCredit(_score), _classes) */\n      0x00\n      dup3\n      add\n      mload\n      dup2\n      0x00\n      add\n      swap1\n      dup2\n      tag_90\n      swap2\n      swap1\n      tag_82\n      jump\t// in\n    tag_90:\n      pop\n      0x20\n      dup3\n      add\n      mload\n      dup2\n      0x01\n      add\n      sstore\n      0x40\n      dup3\n      add\n      mload\n      dup2\n      0x02\n      add\n      sstore\n      0x60\n      dup3\n      add\n      mload\n      dup2\n      0x03\n      add\n      swap1\n      dup2\n      tag_91\n      swap2\n      swap1\n      tag_82\n      jump\t// in\n    tag_91:\n      pop\n      0x80\n      dup3\n      add\n      mload\n      dup2\n      0x04\n      add\n      swap1\n      dup1\n      mload\n      swap1\n      0x20\n      add\n      swap1\n      tag_92\n      swap3\n      swap2\n      swap1\n      tag_85\n      jump\t// in\n    tag_92:\n      pop\n      swap1\n      pop\n      pop\n        /* \"contracts-lecture/230511-practice.sol\":1064:1356  function pushStudent(string memory _name, uint _score, string[] memory _classes) public {... */\n      pop\n      pop\n      pop\n      jump\t// out\n        /* \"contracts-lecture/230511-practice.sol\":1984:2075  function getStudentsNum() public view returns(uint) {... */\n    tag_25:\n        /* \"contracts-lecture/230511-practice.sol\":2030:2034  uint */\n      0x00\n        /* \"contracts-lecture/230511-practice.sol\":2053:2061  students */\n      dup1\n        /* \"contracts-lecture/230511-practice.sol\":2053:2068  students.length */\n      dup1\n      sload\n      swap1\n      pop\n        /* \"contracts-lecture/230511-practice.sol\":2046:2068  return students.length */\n      swap1\n      pop\n        /* \"contracts-lecture/230511-practice.sol\":1984:2075  function getStudentsNum() public view returns(uint) {... */\n      swap1\n      jump\t// out\n        /* \"contracts-lecture/230511-practice.sol\":1759:1885  function getStudentByName(string memory _name) public view returns(Student memory) {... */\n    tag_30:\n        /* \"contracts-lecture/230511-practice.sol\":1826:1840  Student memory */\n      tag_94\n      tag_95\n      jump\t// in\n    tag_94:\n        /* \"contracts-lecture/230511-practice.sol\":1859:1871  name_Student */\n      0x01\n        /* \"contracts-lecture/230511-practice.sol\":1872:1877  _name */\n      dup3\n        /* \"contracts-lecture/230511-practice.sol\":1859:1878  name_Student[_name] */\n      mload(0x40)\n      tag_97\n      swap2\n      swap1\n      tag_89\n      jump\t// in\n    tag_97:\n      swap1\n      dup2\n      mstore\n      0x20\n      add\n      mload(0x40)\n      dup1\n      swap2\n      sub\n      swap1\n      keccak256\n        /* \"contracts-lecture/230511-practice.sol\":1852:1878  return name_Student[_name] */\n      mload(0x40)\n      dup1\n      0xa0\n      add\n      0x40\n      mstore\n      swap1\n      dup2\n      0x00\n      dup3\n      add\n      dup1\n      sload\n      tag_98\n      swap1\n      tag_99\n      jump\t// in\n    tag_98:\n      dup1\n      0x1f\n      add\n      0x20\n      dup1\n      swap2\n      div\n      mul\n      0x20\n      add\n      mload(0x40)\n      swap1\n      dup2\n      add\n      0x40\n      mstore\n      dup1\n      swap3\n      swap2\n      swap1\n      dup2\n      dup2\n      mstore\n      0x20\n      add\n      dup3\n      dup1\n      sload\n      tag_100\n      swap1\n      tag_99\n      jump\t// in\n    tag_100:\n      dup1\n      iszero\n      tag_101\n      jumpi\n      dup1\n      0x1f\n      lt\n      tag_102\n      jumpi\n      0x0100\n      dup1\n      dup4\n      sload\n      div\n      mul\n      dup4\n      mstore\n      swap2\n      0x20\n      add\n      swap2\n      jump(tag_101)\n    tag_102:\n      dup3\n      add\n      swap2\n      swap1\n      0x00\n      mstore\n      keccak256(0x00, 0x20)\n      swap1\n    tag_103:\n      dup2\n      sload\n      dup2\n      mstore\n      swap1\n      0x01\n      add\n      swap1\n      0x20\n      add\n      dup1\n      dup4\n      gt\n      tag_103\n      jumpi\n      dup3\n      swap1\n      sub\n      0x1f\n      and\n      dup3\n      add\n      swap2\n    tag_101:\n      pop\n      pop\n      pop\n      pop\n      pop\n      dup2\n      mstore\n      0x20\n      add\n      0x01\n      dup3\n      add\n      sload\n      dup2\n      mstore\n      0x20\n      add\n      0x02\n      dup3\n      add\n      sload\n      dup2\n      mstore\n      0x20\n      add\n      0x03\n      dup3\n      add\n      dup1\n      sload\n      tag_104\n      swap1\n      tag_99\n      jump\t// in\n    tag_104:\n      dup1\n      0x1f\n      add\n      0x20\n      dup1\n      swap2\n      div\n      mul\n      0x20\n      add\n      mload(0x40)\n      swap1\n      dup2\n      add\n      0x40\n      mstore\n      dup1\n      swap3\n      swap2\n      swap1\n      dup2\n      dup2\n      mstore\n      0x20\n      add\n      dup3\n      dup1\n      sload\n      tag_105\n      swap1\n      tag_99\n      jump\t// in\n    tag_105:\n      dup1\n      iszero\n      tag_106\n      jumpi\n      dup1\n      0x1f\n      lt\n      tag_107\n      jumpi\n      0x0100\n      dup1\n      dup4\n      sload\n      div\n      mul\n      dup4\n      mstore\n      swap2\n      0x20\n      add\n      swap2\n      jump(tag_106)\n    tag_107:\n      dup3\n      add\n      swap2\n      swap1\n      0x00\n      mstore\n      keccak256(0x00, 0x20)\n      swap1\n    tag_108:\n      dup2\n      sload\n      dup2\n      mstore\n      swap1\n      0x01\n      add\n      swap1\n      0x20\n      add\n      dup1\n      dup4\n      gt\n      tag_108\n      jumpi\n      dup3\n      swap1\n      sub\n      0x1f\n      and\n      dup3\n      add\n      swap2\n    tag_106:\n      pop\n      pop\n      pop\n      pop\n      pop\n      dup2\n      mstore\n      0x20\n      add\n      0x04\n      dup3\n      add\n      dup1\n      sload\n      dup1\n      0x20\n      mul\n      0x20\n      add\n      mload(0x40)\n      swap1\n      dup2\n      add\n      0x40\n      mstore\n      dup1\n      swap3\n      swap2\n      swap1\n      dup2\n      dup2\n      mstore\n      0x20\n      add\n      0x00\n      swap1\n    tag_109:\n      dup3\n      dup3\n      lt\n      iszero\n      tag_110\n      jumpi\n      dup4\n      dup3\n      swap1\n      0x00\n      mstore\n      keccak256(0x00, 0x20)\n      add\n      dup1\n      sload\n      tag_112\n      swap1\n      tag_99\n      jump\t// in\n    tag_112:\n      dup1\n      0x1f\n      add\n      0x20\n      dup1\n      swap2\n      div\n      mul\n      0x20\n      add\n      mload(0x40)\n      swap1\n      dup2\n      add\n      0x40\n      mstore\n      dup1\n      swap3\n      swap2\n      swap1\n      dup2\n      dup2\n      mstore\n      0x20\n      add\n      dup3\n      dup1\n      sload\n      tag_113\n      swap1\n      tag_99\n      jump\t// in\n    tag_113:\n      dup1\n      iszero\n      tag_114\n      jumpi\n      dup1\n      0x1f\n      lt\n      tag_115\n      jumpi\n      0x0100\n      dup1\n      dup4\n      sload\n      div\n      mul\n      dup4\n      mstore\n      swap2\n      0x20\n      add\n      swap2\n      jump(tag_114)\n    tag_115:\n      dup3\n      add\n      swap2\n      swap1\n      0x00\n      mstore\n      keccak256(0x00, 0x20)\n      swap1\n    tag_116:\n      dup2\n      sload\n      dup2\n      mstore\n      swap1\n      0x01\n      add\n      swap1\n      0x20\n      add\n      dup1\n      dup4\n      gt\n      tag_116\n      jumpi\n      dup3\n      swap1\n      sub\n      0x1f\n      and\n      dup3\n      add\n      swap2\n    tag_114:\n      pop\n      pop\n      pop\n      pop\n      pop\n      dup2\n      mstore\n      0x20\n      add\n      swap1\n      0x01\n      add\n      swap1\n      jump(tag_109)\n    tag_110:\n      pop\n      pop\n      pop\n      pop\n      dup2\n      mstore\n      pop\n      pop\n      swap1\n      pop\n        /* \"contracts-lecture/230511-practice.sol\":1759:1885  function getStudentByName(string memory _name) public view returns(Student memory) {... */\n      swap2\n      swap1\n      pop\n      jump\t// out\n        /* \"contracts-lecture/230511-practice.sol\":2754:2915  function selfEval() public view returns(bool) {... */\n    tag_34:\n        /* \"contracts-lecture/230511-practice.sol\":2794:2798  bool */\n      0x00\n        /* \"contracts-lecture/230511-practice.sol\":2826:2828  70 */\n      0x46\n        /* \"contracts-lecture/230511-practice.sol\":2814:2822  getAvg() */\n      tag_118\n        /* \"contracts-lecture/230511-practice.sol\":2814:2820  getAvg */\n      tag_18\n        /* \"contracts-lecture/230511-practice.sol\":2814:2822  getAvg() */\n      jump\t// in\n    tag_118:\n        /* \"contracts-lecture/230511-practice.sol\":2814:2828  getAvg() >= 70 */\n      lt\n        /* \"contracts-lecture/230511-practice.sol\":2810:2909  if (getAvg() >= 70) {... */\n      tag_119\n      jumpi\n        /* \"contracts-lecture/230511-practice.sol\":2851:2855  true */\n      0x01\n        /* \"contracts-lecture/230511-practice.sol\":2844:2855  return true */\n      swap1\n      pop\n      jump(tag_117)\n        /* \"contracts-lecture/230511-practice.sol\":2810:2909  if (getAvg() >= 70) {... */\n    tag_119:\n        /* \"contracts-lecture/230511-practice.sol\":2893:2898  false */\n      0x00\n        /* \"contracts-lecture/230511-practice.sol\":2886:2898  return false */\n      swap1\n      pop\n        /* \"contracts-lecture/230511-practice.sol\":2754:2915  function selfEval() public view returns(bool) {... */\n    tag_117:\n      swap1\n      jump\t// out\n        /* \"contracts-lecture/230511-practice.sol\":1476:1597  function getStudentByNumber(uint _number) public view returns(Student memory) {... */\n    tag_40:\n        /* \"contracts-lecture/230511-practice.sol\":1538:1552  Student memory */\n      tag_121\n      tag_95\n      jump\t// in\n    tag_121:\n        /* \"contracts-lecture/230511-practice.sol\":1571:1579  students */\n      0x00\n        /* \"contracts-lecture/230511-practice.sol\":1588:1589  1 */\n      0x01\n        /* \"contracts-lecture/230511-practice.sol\":1580:1587  _number */\n      dup4\n        /* \"contracts-lecture/230511-practice.sol\":1580:1589  _number-1 */\n      tag_123\n      swap2\n      swap1\n      tag_124\n      jump\t// in\n    tag_123:\n        /* \"contracts-lecture/230511-practice.sol\":1571:1590  students[_number-1] */\n      dup2\n      sload\n      dup2\n      lt\n      tag_125\n      jumpi\n      tag_126\n      tag_57\n      jump\t// in\n    tag_126:\n    tag_125:\n      swap1\n      0x00\n      mstore\n      keccak256(0x00, 0x20)\n      swap1\n      0x05\n      mul\n      add\n        /* \"contracts-lecture/230511-practice.sol\":1564:1590  return students[_number-1] */\n      mload(0x40)\n      dup1\n      0xa0\n      add\n      0x40\n      mstore\n      swap1\n      dup2\n      0x00\n      dup3\n      add\n      dup1\n      sload\n      tag_128\n      swap1\n      tag_99\n      jump\t// in\n    tag_128:\n      dup1\n      0x1f\n      add\n      0x20\n      dup1\n      swap2\n      div\n      mul\n      0x20\n      add\n      mload(0x40)\n      swap1\n      dup2\n      add\n      0x40\n      mstore\n      dup1\n      swap3\n      swap2\n      swap1\n      dup2\n      dup2\n      mstore\n      0x20\n      add\n      dup3\n      dup1\n      sload\n      tag_129\n      swap1\n      tag_99\n      jump\t// in\n    tag_129:\n      dup1\n      iszero\n      tag_130\n      jumpi\n      dup1\n      0x1f\n      lt\n      tag_131\n      jumpi\n      0x0100\n      dup1\n      dup4\n      sload\n      div\n      mul\n      dup4\n      mstore\n      swap2\n      0x20\n      add\n      swap2\n      jump(tag_130)\n    tag_131:\n      dup3\n      add\n      swap2\n      swap1\n      0x00\n      mstore\n      keccak256(0x00, 0x20)\n      swap1\n    tag_132:\n      dup2\n      sload\n      dup2\n      mstore\n      swap1\n      0x01\n      add\n      swap1\n      0x20\n      add\n      dup1\n      dup4\n      gt\n      tag_132\n      jumpi\n      dup3\n      swap1\n      sub\n      0x1f\n      and\n      dup3\n      add\n      swap2\n    tag_130:\n      pop\n      pop\n      pop\n      pop\n      pop\n      dup2\n      mstore\n      0x20\n      add\n      0x01\n      dup3\n      add\n      sload\n      dup2\n      mstore\n      0x20\n      add\n      0x02\n      dup3\n      add\n      sload\n      dup2\n      mstore\n      0x20\n      add\n      0x03\n      dup3\n      add\n      dup1\n      sload\n      tag_133\n      swap1\n      tag_99\n      jump\t// in\n    tag_133:\n      dup1\n      0x1f\n      add\n      0x20\n      dup1\n      swap2\n      div\n      mul\n      0x20\n      add\n      mload(0x40)\n      swap1\n      dup2\n      add\n      0x40\n      mstore\n      dup1\n      swap3\n      swap2\n      swap1\n      dup2\n      dup2\n      mstore\n      0x20\n      add\n      dup3\n      dup1\n      sload\n      tag_134\n      swap1\n      tag_99\n      jump\t// in\n    tag_134:\n      dup1\n      iszero\n      tag_135\n      jumpi\n      dup1\n      0x1f\n      lt\n      tag_136\n      jumpi\n      0x0100\n      dup1\n      dup4\n      sload\n      div\n      mul\n      dup4\n      mstore\n      swap2\n      0x20\n      add\n      swap2\n      jump(tag_135)\n    tag_136:\n      dup3\n      add\n      swap2\n      swap1\n      0x00\n      mstore\n      keccak256(0x00, 0x20)\n      swap1\n    tag_137:\n      dup2\n      sload\n      dup2\n      mstore\n      swap1\n      0x01\n      add\n      swap1\n      0x20\n      add\n      dup1\n      dup4\n      gt\n      tag_137\n      jumpi\n      dup3\n      swap1\n      sub\n      0x1f\n      and\n      dup3\n      add\n      swap2\n    tag_135:\n      pop\n      pop\n      pop\n      pop\n      pop\n      dup2\n      mstore\n      0x20\n      add\n      0x04\n      dup3\n      add\n      dup1\n      sload\n      dup1\n      0x20\n      mul\n      0x20\n      add\n      mload(0x40)\n      swap1\n      dup2\n      add\n      0x40\n      mstore\n      dup1\n      swap3\n      swap2\n      swap1\n      dup2\n      dup2\n      mstore\n      0x20\n      add\n      0x00\n      swap1\n    tag_138:\n      dup3\n      dup3\n      lt\n      iszero\n      tag_139\n      jumpi\n      dup4\n      dup3\n      swap1\n      0x00\n      mstore\n      keccak256(0x00, 0x20)\n      add\n      dup1\n      sload\n      tag_141\n      swap1\n      tag_99\n      jump\t// in\n    tag_141:\n      dup1\n      0x1f\n      add\n      0x20\n      dup1\n      swap2\n      div\n      mul\n      0x20\n      add\n      mload(0x40)\n      swap1\n      dup2\n      add\n      0x40\n      mstore\n      dup1\n      swap3\n      swap2\n      swap1\n      dup2\n      dup2\n      mstore\n      0x20\n      add\n      dup3\n      dup1\n      sload\n      tag_142\n      swap1\n      tag_99\n      jump\t// in\n    tag_142:\n      dup1\n      iszero\n      tag_143\n      jumpi\n      dup1\n      0x1f\n      lt\n      tag_144\n      jumpi\n      0x0100\n      dup1\n      dup4\n      sload\n      div\n      mul\n      dup4\n      mstore\n      swap2\n      0x20\n      add\n      swap2\n      jump(tag_143)\n    tag_144:\n      dup3\n      add\n      swap2\n      swap1\n      0x00\n      mstore\n      keccak256(0x00, 0x20)\n      swap1\n    tag_145:\n      dup2\n      sload\n      dup2\n      mstore\n      swap1\n      0x01\n      add\n      swap1\n      0x20\n      add\n      dup1\n      dup4\n      gt\n      tag_145\n      jumpi\n      dup3\n      swap1\n      sub\n      0x1f\n      and\n      dup3\n      add\n      swap2\n    tag_143:\n      pop\n      pop\n      pop\n      pop\n      pop\n      dup2\n      mstore\n      0x20\n      add\n      swap1\n      0x01\n      add\n      swap1\n      jump(tag_138)\n    tag_139:\n      pop\n      pop\n      pop\n      pop\n      dup2\n      mstore\n      pop\n      pop\n      swap1\n      pop\n        /* \"contracts-lecture/230511-practice.sol\":1476:1597  function getStudentByNumber(uint _number) public view returns(Student memory) {... */\n      swap2\n      swap1\n      pop\n      jump\t// out\n        /* \"contracts-lecture/230511-practice.sol\":2181:2277  function getAllStudents() public view returns(Student[] memory) {... */\n    tag_43:\n        /* \"contracts-lecture/230511-practice.sol\":2227:2243  Student[] memory */\n      0x60\n        /* \"contracts-lecture/230511-practice.sol\":2262:2270  students */\n      0x00\n        /* \"contracts-lecture/230511-practice.sol\":2255:2270  return students */\n      dup1\n      sload\n      dup1\n      0x20\n      mul\n      0x20\n      add\n      mload(0x40)\n      swap1\n      dup2\n      add\n      0x40\n      mstore\n      dup1\n      swap3\n      swap2\n      swap1\n      dup2\n      dup2\n      mstore\n      0x20\n      add\n      0x00\n      swap1\n    tag_147:\n      dup3\n      dup3\n      lt\n      iszero\n      tag_148\n      jumpi\n      dup4\n      dup3\n      swap1\n      0x00\n      mstore\n      keccak256(0x00, 0x20)\n      swap1\n      0x05\n      mul\n      add\n      mload(0x40)\n      dup1\n      0xa0\n      add\n      0x40\n      mstore\n      swap1\n      dup2\n      0x00\n      dup3\n      add\n      dup1\n      sload\n      tag_150\n      swap1\n      tag_99\n      jump\t// in\n    tag_150:\n      dup1\n      0x1f\n      add\n      0x20\n      dup1\n      swap2\n      div\n      mul\n      0x20\n      add\n      mload(0x40)\n      swap1\n      dup2\n      add\n      0x40\n      mstore\n      dup1\n      swap3\n      swap2\n      swap1\n      dup2\n      dup2\n      mstore\n      0x20\n      add\n      dup3\n      dup1\n      sload\n      tag_151\n      swap1\n      tag_99\n      jump\t// in\n    tag_151:\n      dup1\n      iszero\n      tag_152\n      jumpi\n      dup1\n      0x1f\n      lt\n      tag_153\n      jumpi\n      0x0100\n      dup1\n      dup4\n      sload\n      div\n      mul\n      dup4\n      mstore\n      swap2\n      0x20\n      add\n      swap2\n      jump(tag_152)\n    tag_153:\n      dup3\n      add\n      swap2\n      swap1\n      0x00\n      mstore\n      keccak256(0x00, 0x20)\n      swap1\n    tag_154:\n      dup2\n      sload\n      dup2\n      mstore\n      swap1\n      0x01\n      add\n      swap1\n      0x20\n      add\n      dup1\n      dup4\n      gt\n      tag_154\n      jumpi\n      dup3\n      swap1\n      sub\n      0x1f\n      and\n      dup3\n      add\n      swap2\n    tag_152:\n      pop\n      pop\n      pop\n      pop\n      pop\n      dup2\n      mstore\n      0x20\n      add\n      0x01\n      dup3\n      add\n      sload\n      dup2\n      mstore\n      0x20\n      add\n      0x02\n      dup3\n      add\n      sload\n      dup2\n      mstore\n      0x20\n      add\n      0x03\n      dup3\n      add\n      dup1\n      sload\n      tag_155\n      swap1\n      tag_99\n      jump\t// in\n    tag_155:\n      dup1\n      0x1f\n      add\n      0x20\n      dup1\n      swap2\n      div\n      mul\n      0x20\n      add\n      mload(0x40)\n      swap1\n      dup2\n      add\n      0x40\n      mstore\n      dup1\n      swap3\n      swap2\n      swap1\n      dup2\n      dup2\n      mstore\n      0x20\n      add\n      dup3\n      dup1\n      sload\n      tag_156\n      swap1\n      tag_99\n      jump\t// in\n    tag_156:\n      dup1\n      iszero\n      tag_157\n      jumpi\n      dup1\n      0x1f\n      lt\n      tag_158\n      jumpi\n      0x0100\n      dup1\n      dup4\n      sload\n      div\n      mul\n      dup4\n      mstore\n      swap2\n      0x20\n      add\n      swap2\n      jump(tag_157)\n    tag_158:\n      dup3\n      add\n      swap2\n      swap1\n      0x00\n      mstore\n      keccak256(0x00, 0x20)\n      swap1\n    tag_159:\n      dup2\n      sload\n      dup2\n      mstore\n      swap1\n      0x01\n      add\n      swap1\n      0x20\n      add\n      dup1\n      dup4\n      gt\n      tag_159\n      jumpi\n      dup3\n      swap1\n      sub\n      0x1f\n      and\n      dup3\n      add\n      swap2\n    tag_157:\n      pop\n      pop\n      pop\n      pop\n      pop\n      dup2\n      mstore\n      0x20\n      add\n      0x04\n      dup3\n      add\n      dup1\n      sload\n      dup1\n      0x20\n      mul\n      0x20\n      add\n      mload(0x40)\n      swap1\n      dup2\n      add\n      0x40\n      mstore\n      dup1\n      swap3\n      swap2\n      swap1\n      dup2\n      dup2\n      mstore\n      0x20\n      add\n      0x00\n      swap1\n    tag_160:\n      dup3\n      dup3\n      lt\n      iszero\n      tag_161\n      jumpi\n      dup4\n      dup3\n      swap1\n      0x00\n      mstore\n      keccak256(0x00, 0x20)\n      add\n      dup1\n      sload\n      tag_163\n      swap1\n      tag_99\n      jump\t// in\n    tag_163:\n      dup1\n      0x1f\n      add\n      0x20\n      dup1\n      swap2\n      div\n      mul\n      0x20\n      add\n      mload(0x40)\n      swap1\n      dup2\n      add\n      0x40\n      mstore\n      dup1\n      swap3\n      swap2\n      swap1\n      dup2\n      dup2\n      mstore\n      0x20\n      add\n      dup3\n      dup1\n      sload\n      tag_164\n      swap1\n      tag_99\n      jump\t// in\n    tag_164:\n      dup1\n      iszero\n      tag_165\n      jumpi\n      dup1\n      0x1f\n      lt\n      tag_166\n      jumpi\n      0x0100\n      dup1\n      dup4\n      sload\n      div\n      mul\n      dup4\n      mstore\n      swap2\n      0x20\n      add\n      swap2\n      jump(tag_165)\n    tag_166:\n      dup3\n      add\n      swap2\n      swap1\n      0x00\n      mstore\n      keccak256(0x00, 0x20)\n      swap1\n    tag_167:\n      dup2\n      sload\n      dup2\n      mstore\n      swap1\n      0x01\n      add\n      swap1\n      0x20\n      add\n      dup1\n      dup4\n      gt\n      tag_167\n      jumpi\n      dup3\n      swap1\n      sub\n      0x1f\n      and\n      dup3\n      add\n      swap2\n    tag_165:\n      pop\n      pop\n      pop\n      pop\n      pop\n      dup2\n      mstore\n      0x20\n      add\n      swap1\n      0x01\n      add\n      swap1\n      jump(tag_160)\n    tag_161:\n      pop\n      pop\n      pop\n      pop\n      dup2\n      mstore\n      pop\n      pop\n      dup2\n      mstore\n      0x20\n      add\n      swap1\n      0x01\n      add\n      swap1\n      jump(tag_147)\n    tag_148:\n      pop\n      pop\n      pop\n      pop\n      swap1\n      pop\n        /* \"contracts-lecture/230511-practice.sol\":2181:2277  function getAllStudents() public view returns(Student[] memory) {... */\n      swap1\n      jump\t// out\n        /* \"contracts-lecture/230511-practice.sol\":638:992  function setCredit(uint _score) public pure returns(string memory) {... */\n    tag_48:\n        /* \"contracts-lecture/230511-practice.sol\":690:703  string memory */\n      0x60\n        /* \"contracts-lecture/230511-practice.sol\":729:731  90 */\n      0x5a\n        /* \"contracts-lecture/230511-practice.sol\":719:725  _score */\n      dup3\n        /* \"contracts-lecture/230511-practice.sol\":719:731  _score >= 90 */\n      lt\n        /* \"contracts-lecture/230511-practice.sol\":715:986  if (_score >= 90) {... */\n      tag_169\n      jumpi\n        /* \"contracts-lecture/230511-practice.sol\":747:757  return \"A\" */\n      mload(0x40)\n      dup1\n      0x40\n      add\n      0x40\n      mstore\n      dup1\n      0x01\n      dup2\n      mstore\n      0x20\n      add\n      0x4100000000000000000000000000000000000000000000000000000000000000\n      dup2\n      mstore\n      pop\n      swap1\n      pop\n      jump(tag_168)\n        /* \"contracts-lecture/230511-practice.sol\":715:986  if (_score >= 90) {... */\n    tag_169:\n        /* \"contracts-lecture/230511-practice.sol\":788:790  80 */\n      0x50\n        /* \"contracts-lecture/230511-practice.sol\":778:784  _score */\n      dup3\n        /* \"contracts-lecture/230511-practice.sol\":778:790  _score >= 80 */\n      lt\n        /* \"contracts-lecture/230511-practice.sol\":774:986  if (_score >= 80) {... */\n      tag_171\n      jumpi\n        /* \"contracts-lecture/230511-practice.sol\":806:816  return \"B\" */\n      mload(0x40)\n      dup1\n      0x40\n      add\n      0x40\n      mstore\n      dup1\n      0x01\n      dup2\n      mstore\n      0x20\n      add\n      0x4200000000000000000000000000000000000000000000000000000000000000\n      dup2\n      mstore\n      pop\n      swap1\n      pop\n      jump(tag_168)\n        /* \"contracts-lecture/230511-practice.sol\":774:986  if (_score >= 80) {... */\n    tag_171:\n        /* \"contracts-lecture/230511-practice.sol\":847:849  70 */\n      0x46\n        /* \"contracts-lecture/230511-practice.sol\":837:843  _score */\n      dup3\n        /* \"contracts-lecture/230511-practice.sol\":837:849  _score >= 70 */\n      lt\n        /* \"contracts-lecture/230511-practice.sol\":833:986  if (_score >= 70) {... */\n      tag_173\n      jumpi\n        /* \"contracts-lecture/230511-practice.sol\":865:875  return \"C\" */\n      mload(0x40)\n      dup1\n      0x40\n      add\n      0x40\n      mstore\n      dup1\n      0x01\n      dup2\n      mstore\n      0x20\n      add\n      0x4300000000000000000000000000000000000000000000000000000000000000\n      dup2\n      mstore\n      pop\n      swap1\n      pop\n      jump(tag_168)\n        /* \"contracts-lecture/230511-practice.sol\":833:986  if (_score >= 70) {... */\n    tag_173:\n        /* \"contracts-lecture/230511-practice.sol\":906:908  60 */\n      0x3c\n        /* \"contracts-lecture/230511-practice.sol\":896:902  _score */\n      dup3\n        /* \"contracts-lecture/230511-practice.sol\":896:908  _score >= 60 */\n      lt\n        /* \"contracts-lecture/230511-practice.sol\":892:986  if (_score >= 60) {... */\n      tag_175\n      jumpi\n        /* \"contracts-lecture/230511-practice.sol\":924:934  return \"D\" */\n      mload(0x40)\n      dup1\n      0x40\n      add\n      0x40\n      mstore\n      dup1\n      0x01\n      dup2\n      mstore\n      0x20\n      add\n      0x4400000000000000000000000000000000000000000000000000000000000000\n      dup2\n      mstore\n      pop\n      swap1\n      pop\n      jump(tag_168)\n        /* \"contracts-lecture/230511-practice.sol\":892:986  if (_score >= 60) {... */\n    tag_175:\n        /* \"contracts-lecture/230511-practice.sol\":965:975  return \"F\" */\n      mload(0x40)\n      dup1\n      0x40\n      add\n      0x40\n      mstore\n      dup1\n      0x01\n      dup2\n      mstore\n      0x20\n      add\n      0x4600000000000000000000000000000000000000000000000000000000000000\n      dup2\n      mstore\n      pop\n      swap1\n      pop\n        /* \"contracts-lecture/230511-practice.sol\":638:992  function setCredit(uint _score) public pure returns(string memory) {... */\n    tag_168:\n      swap2\n      swap1\n      pop\n      jump\t// out\n    tag_85:\n      dup3\n      dup1\n      sload\n      dup3\n      dup3\n      sstore\n      swap1\n      0x00\n      mstore\n      keccak256(0x00, 0x20)\n      swap1\n      dup2\n      add\n      swap3\n      dup3\n      iszero\n      tag_177\n      jumpi\n      swap2\n      0x20\n      mul\n      dup3\n      add\n    tag_178:\n      dup3\n      dup2\n      gt\n      iszero\n      tag_179\n      jumpi\n      dup3\n      mload\n      dup3\n      swap1\n      dup2\n      tag_180\n      swap2\n      swap1\n      tag_82\n      jump\t// in\n    tag_180:\n      pop\n      swap2\n      0x20\n      add\n      swap2\n      swap1\n      0x01\n      add\n      swap1\n      jump(tag_178)\n    tag_179:\n    tag_177:\n      pop\n      swap1\n      pop\n      tag_181\n      swap2\n      swap1\n      tag_182\n      jump\t// in\n    tag_181:\n      pop\n      swap1\n      jump\t// out\n    tag_95:\n      mload(0x40)\n      dup1\n      0xa0\n      add\n      0x40\n      mstore\n      dup1\n      0x60\n      dup2\n      mstore\n      0x20\n      add\n      0x00\n      dup2\n      mstore\n      0x20\n      add\n      0x00\n      dup2\n      mstore\n      0x20\n      add\n      0x60\n      dup2\n      mstore\n      0x20\n      add\n      0x60\n      dup2\n      mstore\n      pop\n      swap1\n      jump\t// out\n    tag_182:\n    tag_183:\n      dup1\n      dup3\n      gt\n      iszero\n      tag_184\n      jumpi\n      0x00\n      dup2\n      dup2\n      tag_185\n      swap2\n      swap1\n      tag_186\n      jump\t// in\n    tag_185:\n      pop\n      0x01\n      add\n      jump(tag_183)\n    tag_184:\n      pop\n      swap1\n      jump\t// out\n    tag_186:\n      pop\n      dup1\n      sload\n      tag_187\n      swap1\n      tag_99\n      jump\t// in\n    tag_187:\n      0x00\n      dup3\n      sstore\n      dup1\n      0x1f\n      lt\n      tag_189\n      jumpi\n      pop\n      jump(tag_188)\n    tag_189:\n      0x1f\n      add\n      0x20\n      swap1\n      div\n      swap1\n      0x00\n      mstore\n      keccak256(0x00, 0x20)\n      swap1\n      dup2\n      add\n      swap1\n      tag_190\n      swap2\n      swap1\n      tag_191\n      jump\t// in\n    tag_190:\n    tag_188:\n      pop\n      jump\t// out\n    tag_191:\n    tag_192:\n      dup1\n      dup3\n      gt\n      iszero\n      tag_193\n      jumpi\n      0x00\n      dup2\n      0x00\n      swap1\n      sstore\n      pop\n      0x01\n      add\n      jump(tag_192)\n    tag_193:\n      pop\n      swap1\n      jump\t// out\n        /* \"#utility.yul\":7:84   */\n    tag_194:\n        /* \"#utility.yul\":44:51   */\n      0x00\n        /* \"#utility.yul\":73:78   */\n      dup2\n        /* \"#utility.yul\":62:78   */\n      swap1\n      pop\n        /* \"#utility.yul\":7:84   */\n      swap2\n      swap1\n      pop\n      jump\t// out\n        /* \"#utility.yul\":90:208   */\n    tag_195:\n        /* \"#utility.yul\":177:201   */\n      tag_264\n        /* \"#utility.yul\":195:200   */\n      dup2\n        /* \"#utility.yul\":177:201   */\n      tag_194\n      jump\t// in\n    tag_264:\n        /* \"#utility.yul\":172:175   */\n      dup3\n        /* \"#utility.yul\":165:202   */\n      mstore\n        /* \"#utility.yul\":90:208   */\n      pop\n      pop\n      jump\t// out\n        /* \"#utility.yul\":214:436   */\n    tag_16:\n        /* \"#utility.yul\":307:311   */\n      0x00\n        /* \"#utility.yul\":345:347   */\n      0x20\n        /* \"#utility.yul\":334:343   */\n      dup3\n        /* \"#utility.yul\":330:348   */\n      add\n        /* \"#utility.yul\":322:348   */\n      swap1\n      pop\n        /* \"#utility.yul\":358:429   */\n      tag_266\n        /* \"#utility.yul\":426:427   */\n      0x00\n        /* \"#utility.yul\":415:424   */\n      dup4\n        /* \"#utility.yul\":411:428   */\n      add\n        /* \"#utility.yul\":402:408   */\n      dup5\n        /* \"#utility.yul\":358:429   */\n      tag_195\n      jump\t// in\n    tag_266:\n        /* \"#utility.yul\":214:436   */\n      swap3\n      swap2\n      pop\n      pop\n      jump\t// out\n        /* \"#utility.yul\":442:517   */\n    tag_196:\n        /* \"#utility.yul\":475:481   */\n      0x00\n        /* \"#utility.yul\":508:510   */\n      0x40\n        /* \"#utility.yul\":502:511   */\n      mload\n        /* \"#utility.yul\":492:511   */\n      swap1\n      pop\n        /* \"#utility.yul\":442:517   */\n      swap1\n      jump\t// out\n        /* \"#utility.yul\":523:640   */\n    tag_197:\n        /* \"#utility.yul\":632:633   */\n      0x00\n        /* \"#utility.yul\":629:630   */\n      dup1\n        /* \"#utility.yul\":622:634   */\n      revert\n        /* \"#utility.yul\":646:763   */\n    tag_198:\n        /* \"#utility.yul\":755:756   */\n      0x00\n        /* \"#utility.yul\":752:753   */\n      dup1\n        /* \"#utility.yul\":745:757   */\n      revert\n        /* \"#utility.yul\":769:886   */\n    tag_199:\n        /* \"#utility.yul\":878:879   */\n      0x00\n        /* \"#utility.yul\":875:876   */\n      dup1\n        /* \"#utility.yul\":868:880   */\n      revert\n        /* \"#utility.yul\":892:1009   */\n    tag_200:\n        /* \"#utility.yul\":1001:1002   */\n      0x00\n        /* \"#utility.yul\":998:999   */\n      dup1\n        /* \"#utility.yul\":991:1003   */\n      revert\n        /* \"#utility.yul\":1015:1117   */\n    tag_201:\n        /* \"#utility.yul\":1056:1062   */\n      0x00\n        /* \"#utility.yul\":1107:1109   */\n      0x1f\n        /* \"#utility.yul\":1103:1110   */\n      not\n        /* \"#utility.yul\":1098:1100   */\n      0x1f\n        /* \"#utility.yul\":1091:1096   */\n      dup4\n        /* \"#utility.yul\":1087:1101   */\n      add\n        /* \"#utility.yul\":1083:1111   */\n      and\n        /* \"#utility.yul\":1073:1111   */\n      swap1\n      pop\n        /* \"#utility.yul\":1015:1117   */\n      swap2\n      swap1\n      pop\n      jump\t// out\n        /* \"#utility.yul\":1123:1303   */\n    tag_202:\n        /* \"#utility.yul\":1171:1248   */\n      0x4e487b7100000000000000000000000000000000000000000000000000000000\n        /* \"#utility.yul\":1168:1169   */\n      0x00\n        /* \"#utility.yul\":1161:1249   */\n      mstore\n        /* \"#utility.yul\":1268:1272   */\n      0x41\n        /* \"#utility.yul\":1265:1266   */\n      0x04\n        /* \"#utility.yul\":1258:1273   */\n      mstore\n        /* \"#utility.yul\":1292:1296   */\n      0x24\n        /* \"#utility.yul\":1289:1290   */\n      0x00\n        /* \"#utility.yul\":1282:1297   */\n      revert\n        /* \"#utility.yul\":1309:1590   */\n    tag_203:\n        /* \"#utility.yul\":1392:1419   */\n      tag_275\n        /* \"#utility.yul\":1414:1418   */\n      dup3\n        /* \"#utility.yul\":1392:1419   */\n      tag_201\n      jump\t// in\n    tag_275:\n        /* \"#utility.yul\":1384:1390   */\n      dup2\n        /* \"#utility.yul\":1380:1420   */\n      add\n        /* \"#utility.yul\":1522:1528   */\n      dup2\n        /* \"#utility.yul\":1510:1520   */\n      dup2\n        /* \"#utility.yul\":1507:1529   */\n      lt\n        /* \"#utility.yul\":1486:1504   */\n      0xffffffffffffffff\n        /* \"#utility.yul\":1474:1484   */\n      dup3\n        /* \"#utility.yul\":1471:1505   */\n      gt\n        /* \"#utility.yul\":1468:1530   */\n      or\n        /* \"#utility.yul\":1465:1553   */\n      iszero\n      tag_276\n      jumpi\n        /* \"#utility.yul\":1533:1551   */\n      tag_277\n      tag_202\n      jump\t// in\n    tag_277:\n        /* \"#utility.yul\":1465:1553   */\n    tag_276:\n        /* \"#utility.yul\":1573:1583   */\n      dup1\n        /* \"#utility.yul\":1569:1571   */\n      0x40\n        /* \"#utility.yul\":1562:1584   */\n      mstore\n        /* \"#utility.yul\":1352:1590   */\n      pop\n        /* \"#utility.yul\":1309:1590   */\n      pop\n      pop\n      jump\t// out\n        /* \"#utility.yul\":1596:1725   */\n    tag_204:\n        /* \"#utility.yul\":1630:1636   */\n      0x00\n        /* \"#utility.yul\":1657:1677   */\n      tag_279\n      tag_196\n      jump\t// in\n    tag_279:\n        /* \"#utility.yul\":1647:1677   */\n      swap1\n      pop\n        /* \"#utility.yul\":1686:1719   */\n      tag_280\n        /* \"#utility.yul\":1714:1718   */\n      dup3\n        /* \"#utility.yul\":1706:1712   */\n      dup3\n        /* \"#utility.yul\":1686:1719   */\n      tag_203\n      jump\t// in\n    tag_280:\n        /* \"#utility.yul\":1596:1725   */\n      swap2\n      swap1\n      pop\n      jump\t// out\n        /* \"#utility.yul\":1731:2039   */\n    tag_205:\n        /* \"#utility.yul\":1793:1797   */\n      0x00\n        /* \"#utility.yul\":1883:1901   */\n      0xffffffffffffffff\n        /* \"#utility.yul\":1875:1881   */\n      dup3\n        /* \"#utility.yul\":1872:1902   */\n      gt\n        /* \"#utility.yul\":1869:1925   */\n      iszero\n      tag_282\n      jumpi\n        /* \"#utility.yul\":1905:1923   */\n      tag_283\n      tag_202\n      jump\t// in\n    tag_283:\n        /* \"#utility.yul\":1869:1925   */\n    tag_282:\n        /* \"#utility.yul\":1943:1972   */\n      tag_284\n        /* \"#utility.yul\":1965:1971   */\n      dup3\n        /* \"#utility.yul\":1943:1972   */\n      tag_201\n      jump\t// in\n    tag_284:\n        /* \"#utility.yul\":1935:1972   */\n      swap1\n      pop\n        /* \"#utility.yul\":2027:2031   */\n      0x20\n        /* \"#utility.yul\":2021:2025   */\n      dup2\n        /* \"#utility.yul\":2017:2032   */\n      add\n        /* \"#utility.yul\":2009:2032   */\n      swap1\n      pop\n        /* \"#utility.yul\":1731:2039   */\n      swap2\n      swap1\n      pop\n      jump\t// out\n        /* \"#utility.yul\":2045:2191   */\n    tag_206:\n        /* \"#utility.yul\":2142:2148   */\n      dup3\n        /* \"#utility.yul\":2137:2140   */\n      dup2\n        /* \"#utility.yul\":2132:2135   */\n      dup4\n        /* \"#utility.yul\":2119:2149   */\n      calldatacopy\n        /* \"#utility.yul\":2183:2184   */\n      0x00\n        /* \"#utility.yul\":2174:2180   */\n      dup4\n        /* \"#utility.yul\":2169:2172   */\n      dup4\n        /* \"#utility.yul\":2165:2181   */\n      add\n        /* \"#utility.yul\":2158:2185   */\n      mstore\n        /* \"#utility.yul\":2045:2191   */\n      pop\n      pop\n      pop\n      jump\t// out\n        /* \"#utility.yul\":2197:2622   */\n    tag_207:\n        /* \"#utility.yul\":2275:2280   */\n      0x00\n        /* \"#utility.yul\":2300:2366   */\n      tag_287\n        /* \"#utility.yul\":2316:2365   */\n      tag_288\n        /* \"#utility.yul\":2358:2364   */\n      dup5\n        /* \"#utility.yul\":2316:2365   */\n      tag_205\n      jump\t// in\n    tag_288:\n        /* \"#utility.yul\":2300:2366   */\n      tag_204\n      jump\t// in\n    tag_287:\n        /* \"#utility.yul\":2291:2366   */\n      swap1\n      pop\n        /* \"#utility.yul\":2389:2395   */\n      dup3\n        /* \"#utility.yul\":2382:2387   */\n      dup2\n        /* \"#utility.yul\":2375:2396   */\n      mstore\n        /* \"#utility.yul\":2427:2431   */\n      0x20\n        /* \"#utility.yul\":2420:2425   */\n      dup2\n        /* \"#utility.yul\":2416:2432   */\n      add\n        /* \"#utility.yul\":2465:2468   */\n      dup5\n        /* \"#utility.yul\":2456:2462   */\n      dup5\n        /* \"#utility.yul\":2451:2454   */\n      dup5\n        /* \"#utility.yul\":2447:2463   */\n      add\n        /* \"#utility.yul\":2444:2469   */\n      gt\n        /* \"#utility.yul\":2441:2553   */\n      iszero\n      tag_289\n      jumpi\n        /* \"#utility.yul\":2472:2551   */\n      tag_290\n      tag_200\n      jump\t// in\n    tag_290:\n        /* \"#utility.yul\":2441:2553   */\n    tag_289:\n        /* \"#utility.yul\":2562:2616   */\n      tag_291\n        /* \"#utility.yul\":2609:2615   */\n      dup5\n        /* \"#utility.yul\":2604:2607   */\n      dup3\n        /* \"#utility.yul\":2599:2602   */\n      dup6\n        /* \"#utility.yul\":2562:2616   */\n      tag_206\n      jump\t// in\n    tag_291:\n        /* \"#utility.yul\":2281:2622   */\n      pop\n        /* \"#utility.yul\":2197:2622   */\n      swap4\n      swap3\n      pop\n      pop\n      pop\n      jump\t// out\n        /* \"#utility.yul\":2642:2982   */\n    tag_208:\n        /* \"#utility.yul\":2698:2703   */\n      0x00\n        /* \"#utility.yul\":2747:2750   */\n      dup3\n        /* \"#utility.yul\":2740:2744   */\n      0x1f\n        /* \"#utility.yul\":2732:2738   */\n      dup4\n        /* \"#utility.yul\":2728:2745   */\n      add\n        /* \"#utility.yul\":2724:2751   */\n      slt\n        /* \"#utility.yul\":2714:2836   */\n      tag_293\n      jumpi\n        /* \"#utility.yul\":2755:2834   */\n      tag_294\n      tag_199\n      jump\t// in\n    tag_294:\n        /* \"#utility.yul\":2714:2836   */\n    tag_293:\n        /* \"#utility.yul\":2872:2878   */\n      dup2\n        /* \"#utility.yul\":2859:2879   */\n      calldataload\n        /* \"#utility.yul\":2897:2976   */\n      tag_295\n        /* \"#utility.yul\":2972:2975   */\n      dup5\n        /* \"#utility.yul\":2964:2970   */\n      dup3\n        /* \"#utility.yul\":2957:2961   */\n      0x20\n        /* \"#utility.yul\":2949:2955   */\n      dup7\n        /* \"#utility.yul\":2945:2962   */\n      add\n        /* \"#utility.yul\":2897:2976   */\n      tag_207\n      jump\t// in\n    tag_295:\n        /* \"#utility.yul\":2888:2976   */\n      swap2\n      pop\n        /* \"#utility.yul\":2704:2982   */\n      pop\n        /* \"#utility.yul\":2642:2982   */\n      swap3\n      swap2\n      pop\n      pop\n      jump\t// out\n        /* \"#utility.yul\":2988:3110   */\n    tag_209:\n        /* \"#utility.yul\":3061:3085   */\n      tag_297\n        /* \"#utility.yul\":3079:3084   */\n      dup2\n        /* \"#utility.yul\":3061:3085   */\n      tag_194\n      jump\t// in\n    tag_297:\n        /* \"#utility.yul\":3054:3059   */\n      dup2\n        /* \"#utility.yul\":3051:3086   */\n      eq\n        /* \"#utility.yul\":3041:3104   */\n      tag_298\n      jumpi\n        /* \"#utility.yul\":3100:3101   */\n      0x00\n        /* \"#utility.yul\":3097:3098   */\n      dup1\n        /* \"#utility.yul\":3090:3102   */\n      revert\n        /* \"#utility.yul\":3041:3104   */\n    tag_298:\n        /* \"#utility.yul\":2988:3110   */\n      pop\n      jump\t// out\n        /* \"#utility.yul\":3116:3255   */\n    tag_210:\n        /* \"#utility.yul\":3162:3167   */\n      0x00\n        /* \"#utility.yul\":3200:3206   */\n      dup2\n        /* \"#utility.yul\":3187:3207   */\n      calldataload\n        /* \"#utility.yul\":3178:3207   */\n      swap1\n      pop\n        /* \"#utility.yul\":3216:3249   */\n      tag_300\n        /* \"#utility.yul\":3243:3248   */\n      dup2\n        /* \"#utility.yul\":3216:3249   */\n      tag_209\n      jump\t// in\n    tag_300:\n        /* \"#utility.yul\":3116:3255   */\n      swap3\n      swap2\n      pop\n      pop\n      jump\t// out\n        /* \"#utility.yul\":3261:3582   */\n    tag_211:\n        /* \"#utility.yul\":3348:3352   */\n      0x00\n        /* \"#utility.yul\":3438:3456   */\n      0xffffffffffffffff\n        /* \"#utility.yul\":3430:3436   */\n      dup3\n        /* \"#utility.yul\":3427:3457   */\n      gt\n        /* \"#utility.yul\":3424:3480   */\n      iszero\n      tag_302\n      jumpi\n        /* \"#utility.yul\":3460:3478   */\n      tag_303\n      tag_202\n      jump\t// in\n    tag_303:\n        /* \"#utility.yul\":3424:3480   */\n    tag_302:\n        /* \"#utility.yul\":3510:3514   */\n      0x20\n        /* \"#utility.yul\":3502:3508   */\n      dup3\n        /* \"#utility.yul\":3498:3515   */\n      mul\n        /* \"#utility.yul\":3490:3515   */\n      swap1\n      pop\n        /* \"#utility.yul\":3570:3574   */\n      0x20\n        /* \"#utility.yul\":3564:3568   */\n      dup2\n        /* \"#utility.yul\":3560:3575   */\n      add\n        /* \"#utility.yul\":3552:3575   */\n      swap1\n      pop\n        /* \"#utility.yul\":3261:3582   */\n      swap2\n      swap1\n      pop\n      jump\t// out\n        /* \"#utility.yul\":3588:3705   */\n    tag_212:\n        /* \"#utility.yul\":3697:3698   */\n      0x00\n        /* \"#utility.yul\":3694:3695   */\n      dup1\n        /* \"#utility.yul\":3687:3699   */\n      revert\n        /* \"#utility.yul\":3727:4672   */\n    tag_213:\n        /* \"#utility.yul\":3833:3838   */\n      0x00\n        /* \"#utility.yul\":3858:3949   */\n      tag_306\n        /* \"#utility.yul\":3874:3948   */\n      tag_307\n        /* \"#utility.yul\":3941:3947   */\n      dup5\n        /* \"#utility.yul\":3874:3948   */\n      tag_211\n      jump\t// in\n    tag_307:\n        /* \"#utility.yul\":3858:3949   */\n      tag_204\n      jump\t// in\n    tag_306:\n        /* \"#utility.yul\":3849:3949   */\n      swap1\n      pop\n        /* \"#utility.yul\":3969:3974   */\n      dup1\n        /* \"#utility.yul\":3998:4004   */\n      dup4\n        /* \"#utility.yul\":3991:3996   */\n      dup3\n        /* \"#utility.yul\":3984:4005   */\n      mstore\n        /* \"#utility.yul\":4032:4036   */\n      0x20\n        /* \"#utility.yul\":4025:4030   */\n      dup3\n        /* \"#utility.yul\":4021:4037   */\n      add\n        /* \"#utility.yul\":4014:4037   */\n      swap1\n      pop\n        /* \"#utility.yul\":4085:4089   */\n      0x20\n        /* \"#utility.yul\":4077:4083   */\n      dup5\n        /* \"#utility.yul\":4073:4090   */\n      mul\n        /* \"#utility.yul\":4065:4071   */\n      dup4\n        /* \"#utility.yul\":4061:4091   */\n      add\n        /* \"#utility.yul\":4114:4117   */\n      dup6\n        /* \"#utility.yul\":4106:4112   */\n      dup2\n        /* \"#utility.yul\":4103:4118   */\n      gt\n        /* \"#utility.yul\":4100:4222   */\n      iszero\n      tag_308\n      jumpi\n        /* \"#utility.yul\":4133:4212   */\n      tag_309\n      tag_212\n      jump\t// in\n    tag_309:\n        /* \"#utility.yul\":4100:4222   */\n    tag_308:\n        /* \"#utility.yul\":4248:4254   */\n      dup4\n        /* \"#utility.yul\":4231:4666   */\n    tag_310:\n        /* \"#utility.yul\":4265:4271   */\n      dup2\n        /* \"#utility.yul\":4260:4263   */\n      dup2\n        /* \"#utility.yul\":4257:4272   */\n      lt\n        /* \"#utility.yul\":4231:4666   */\n      iszero\n      tag_312\n      jumpi\n        /* \"#utility.yul\":4354:4357   */\n      dup1\n        /* \"#utility.yul\":4341:4358   */\n      calldataload\n        /* \"#utility.yul\":4390:4408   */\n      0xffffffffffffffff\n        /* \"#utility.yul\":4377:4388   */\n      dup2\n        /* \"#utility.yul\":4374:4409   */\n      gt\n        /* \"#utility.yul\":4371:4493   */\n      iszero\n      tag_313\n      jumpi\n        /* \"#utility.yul\":4412:4491   */\n      tag_314\n      tag_199\n      jump\t// in\n    tag_314:\n        /* \"#utility.yul\":4371:4493   */\n    tag_313:\n        /* \"#utility.yul\":4536:4547   */\n      dup1\n        /* \"#utility.yul\":4528:4534   */\n      dup7\n        /* \"#utility.yul\":4524:4548   */\n      add\n        /* \"#utility.yul\":4574:4621   */\n      tag_315\n        /* \"#utility.yul\":4617:4620   */\n      dup10\n        /* \"#utility.yul\":4605:4615   */\n      dup3\n        /* \"#utility.yul\":4574:4621   */\n      tag_208\n      jump\t// in\n    tag_315:\n        /* \"#utility.yul\":4569:4572   */\n      dup6\n        /* \"#utility.yul\":4562:4622   */\n      mstore\n        /* \"#utility.yul\":4651:4655   */\n      0x20\n        /* \"#utility.yul\":4646:4649   */\n      dup6\n        /* \"#utility.yul\":4642:4656   */\n      add\n        /* \"#utility.yul\":4635:4656   */\n      swap5\n      pop\n        /* \"#utility.yul\":4307:4666   */\n      pop\n      pop\n        /* \"#utility.yul\":4291:4295   */\n      0x20\n        /* \"#utility.yul\":4286:4289   */\n      dup2\n        /* \"#utility.yul\":4282:4296   */\n      add\n        /* \"#utility.yul\":4275:4296   */\n      swap1\n      pop\n        /* \"#utility.yul\":4231:4666   */\n      jump(tag_310)\n    tag_312:\n        /* \"#utility.yul\":4235:4256   */\n      pop\n        /* \"#utility.yul\":3839:4672   */\n      pop\n      pop\n        /* \"#utility.yul\":3727:4672   */\n      swap4\n      swap3\n      pop\n      pop\n      pop\n      jump\t// out\n        /* \"#utility.yul\":4694:5084   */\n    tag_214:\n        /* \"#utility.yul\":4775:4780   */\n      0x00\n        /* \"#utility.yul\":4824:4827   */\n      dup3\n        /* \"#utility.yul\":4817:4821   */\n      0x1f\n        /* \"#utility.yul\":4809:4815   */\n      dup4\n        /* \"#utility.yul\":4805:4822   */\n      add\n        /* \"#utility.yul\":4801:4828   */\n      slt\n        /* \"#utility.yul\":4791:4913   */\n      tag_317\n      jumpi\n        /* \"#utility.yul\":4832:4911   */\n      tag_318\n      tag_199\n      jump\t// in\n    tag_318:\n        /* \"#utility.yul\":4791:4913   */\n    tag_317:\n        /* \"#utility.yul\":4949:4955   */\n      dup2\n        /* \"#utility.yul\":4936:4956   */\n      calldataload\n        /* \"#utility.yul\":4974:5078   */\n      tag_319\n        /* \"#utility.yul\":5074:5077   */\n      dup5\n        /* \"#utility.yul\":5066:5072   */\n      dup3\n        /* \"#utility.yul\":5059:5063   */\n      0x20\n        /* \"#utility.yul\":5051:5057   */\n      dup7\n        /* \"#utility.yul\":5047:5064   */\n      add\n        /* \"#utility.yul\":4974:5078   */\n      tag_213\n      jump\t// in\n    tag_319:\n        /* \"#utility.yul\":4965:5078   */\n      swap2\n      pop\n        /* \"#utility.yul\":4781:5084   */\n      pop\n        /* \"#utility.yul\":4694:5084   */\n      swap3\n      swap2\n      pop\n      pop\n      jump\t// out\n        /* \"#utility.yul\":5090:6119   */\n    tag_22:\n        /* \"#utility.yul\":5212:5218   */\n      0x00\n        /* \"#utility.yul\":5220:5226   */\n      dup1\n        /* \"#utility.yul\":5228:5234   */\n      0x00\n        /* \"#utility.yul\":5277:5279   */\n      0x60\n        /* \"#utility.yul\":5265:5274   */\n      dup5\n        /* \"#utility.yul\":5256:5263   */\n      dup7\n        /* \"#utility.yul\":5252:5275   */\n      sub\n        /* \"#utility.yul\":5248:5280   */\n      slt\n        /* \"#utility.yul\":5245:5364   */\n      iszero\n      tag_321\n      jumpi\n        /* \"#utility.yul\":5283:5362   */\n      tag_322\n      tag_197\n      jump\t// in\n    tag_322:\n        /* \"#utility.yul\":5245:5364   */\n    tag_321:\n        /* \"#utility.yul\":5431:5432   */\n      0x00\n        /* \"#utility.yul\":5420:5429   */\n      dup5\n        /* \"#utility.yul\":5416:5433   */\n      add\n        /* \"#utility.yul\":5403:5434   */\n      calldataload\n        /* \"#utility.yul\":5461:5479   */\n      0xffffffffffffffff\n        /* \"#utility.yul\":5453:5459   */\n      dup2\n        /* \"#utility.yul\":5450:5480   */\n      gt\n        /* \"#utility.yul\":5447:5564   */\n      iszero\n      tag_323\n      jumpi\n        /* \"#utility.yul\":5483:5562   */\n      tag_324\n      tag_198\n      jump\t// in\n    tag_324:\n        /* \"#utility.yul\":5447:5564   */\n    tag_323:\n        /* \"#utility.yul\":5588:5651   */\n      tag_325\n        /* \"#utility.yul\":5643:5650   */\n      dup7\n        /* \"#utility.yul\":5634:5640   */\n      dup3\n        /* \"#utility.yul\":5623:5632   */\n      dup8\n        /* \"#utility.yul\":5619:5641   */\n      add\n        /* \"#utility.yul\":5588:5651   */\n      tag_208\n      jump\t// in\n    tag_325:\n        /* \"#utility.yul\":5578:5651   */\n      swap4\n      pop\n        /* \"#utility.yul\":5374:5661   */\n      pop\n        /* \"#utility.yul\":5700:5702   */\n      0x20\n        /* \"#utility.yul\":5726:5779   */\n      tag_326\n        /* \"#utility.yul\":5771:5778   */\n      dup7\n        /* \"#utility.yul\":5762:5768   */\n      dup3\n        /* \"#utility.yul\":5751:5760   */\n      dup8\n        /* \"#utility.yul\":5747:5769   */\n      add\n        /* \"#utility.yul\":5726:5779   */\n      tag_210\n      jump\t// in\n    tag_326:\n        /* \"#utility.yul\":5716:5779   */\n      swap3\n      pop\n        /* \"#utility.yul\":5671:5789   */\n      pop\n        /* \"#utility.yul\":5856:5858   */\n      0x40\n        /* \"#utility.yul\":5845:5854   */\n      dup5\n        /* \"#utility.yul\":5841:5859   */\n      add\n        /* \"#utility.yul\":5828:5860   */\n      calldataload\n        /* \"#utility.yul\":5887:5905   */\n      0xffffffffffffffff\n        /* \"#utility.yul\":5879:5885   */\n      dup2\n        /* \"#utility.yul\":5876:5906   */\n      gt\n        /* \"#utility.yul\":5873:5990   */\n      iszero\n      tag_327\n      jumpi\n        /* \"#utility.yul\":5909:5988   */\n      tag_328\n      tag_198\n      jump\t// in\n    tag_328:\n        /* \"#utility.yul\":5873:5990   */\n    tag_327:\n        /* \"#utility.yul\":6014:6102   */\n      tag_329\n        /* \"#utility.yul\":6094:6101   */\n      dup7\n        /* \"#utility.yul\":6085:6091   */\n      dup3\n        /* \"#utility.yul\":6074:6083   */\n      dup8\n        /* \"#utility.yul\":6070:6092   */\n      add\n        /* \"#utility.yul\":6014:6102   */\n      tag_214\n      jump\t// in\n    tag_329:\n        /* \"#utility.yul\":6004:6102   */\n      swap2\n      pop\n        /* \"#utility.yul\":5799:6112   */\n      pop\n        /* \"#utility.yul\":5090:6119   */\n      swap3\n      pop\n      swap3\n      pop\n      swap3\n      jump\t// out\n        /* \"#utility.yul\":6125:6634   */\n    tag_29:\n        /* \"#utility.yul\":6194:6200   */\n      0x00\n        /* \"#utility.yul\":6243:6245   */\n      0x20\n        /* \"#utility.yul\":6231:6240   */\n      dup3\n        /* \"#utility.yul\":6222:6229   */\n      dup5\n        /* \"#utility.yul\":6218:6241   */\n      sub\n        /* \"#utility.yul\":6214:6246   */\n      slt\n        /* \"#utility.yul\":6211:6330   */\n      iszero\n      tag_331\n      jumpi\n        /* \"#utility.yul\":6249:6328   */\n      tag_332\n      tag_197\n      jump\t// in\n    tag_332:\n        /* \"#utility.yul\":6211:6330   */\n    tag_331:\n        /* \"#utility.yul\":6397:6398   */\n      0x00\n        /* \"#utility.yul\":6386:6395   */\n      dup3\n        /* \"#utility.yul\":6382:6399   */\n      add\n        /* \"#utility.yul\":6369:6400   */\n      calldataload\n        /* \"#utility.yul\":6427:6445   */\n      0xffffffffffffffff\n        /* \"#utility.yul\":6419:6425   */\n      dup2\n        /* \"#utility.yul\":6416:6446   */\n      gt\n        /* \"#utility.yul\":6413:6530   */\n      iszero\n      tag_333\n      jumpi\n        /* \"#utility.yul\":6449:6528   */\n      tag_334\n      tag_198\n      jump\t// in\n    tag_334:\n        /* \"#utility.yul\":6413:6530   */\n    tag_333:\n        /* \"#utility.yul\":6554:6617   */\n      tag_335\n        /* \"#utility.yul\":6609:6616   */\n      dup5\n        /* \"#utility.yul\":6600:6606   */\n      dup3\n        /* \"#utility.yul\":6589:6598   */\n      dup6\n        /* \"#utility.yul\":6585:6607   */\n      add\n        /* \"#utility.yul\":6554:6617   */\n      tag_208\n      jump\t// in\n    tag_335:\n        /* \"#utility.yul\":6544:6617   */\n      swap2\n      pop\n        /* \"#utility.yul\":6340:6627   */\n      pop\n        /* \"#utility.yul\":6125:6634   */\n      swap3\n      swap2\n      pop\n      pop\n      jump\t// out\n        /* \"#utility.yul\":6640:6739   */\n    tag_215:\n        /* \"#utility.yul\":6692:6698   */\n      0x00\n        /* \"#utility.yul\":6726:6731   */\n      dup2\n        /* \"#utility.yul\":6720:6732   */\n      mload\n        /* \"#utility.yul\":6710:6732   */\n      swap1\n      pop\n        /* \"#utility.yul\":6640:6739   */\n      swap2\n      swap1\n      pop\n      jump\t// out\n        /* \"#utility.yul\":6745:6904   */\n    tag_216:\n        /* \"#utility.yul\":6819:6830   */\n      0x00\n        /* \"#utility.yul\":6853:6859   */\n      dup3\n        /* \"#utility.yul\":6848:6851   */\n      dup3\n        /* \"#utility.yul\":6841:6860   */\n      mstore\n        /* \"#utility.yul\":6893:6897   */\n      0x20\n        /* \"#utility.yul\":6888:6891   */\n      dup3\n        /* \"#utility.yul\":6884:6898   */\n      add\n        /* \"#utility.yul\":6869:6898   */\n      swap1\n      pop\n        /* \"#utility.yul\":6745:6904   */\n      swap3\n      swap2\n      pop\n      pop\n      jump\t// out\n        /* \"#utility.yul\":6910:7156   */\n    tag_217:\n        /* \"#utility.yul\":6991:6992   */\n      0x00\n        /* \"#utility.yul\":7001:7114   */\n    tag_339:\n        /* \"#utility.yul\":7015:7021   */\n      dup4\n        /* \"#utility.yul\":7012:7013   */\n      dup2\n        /* \"#utility.yul\":7009:7022   */\n      lt\n        /* \"#utility.yul\":7001:7114   */\n      iszero\n      tag_341\n      jumpi\n        /* \"#utility.yul\":7100:7101   */\n      dup1\n        /* \"#utility.yul\":7095:7098   */\n      dup3\n        /* \"#utility.yul\":7091:7102   */\n      add\n        /* \"#utility.yul\":7085:7103   */\n      mload\n        /* \"#utility.yul\":7081:7082   */\n      dup2\n        /* \"#utility.yul\":7076:7079   */\n      dup5\n        /* \"#utility.yul\":7072:7083   */\n      add\n        /* \"#utility.yul\":7065:7104   */\n      mstore\n        /* \"#utility.yul\":7037:7039   */\n      0x20\n        /* \"#utility.yul\":7034:7035   */\n      dup2\n        /* \"#utility.yul\":7030:7040   */\n      add\n        /* \"#utility.yul\":7025:7040   */\n      swap1\n      pop\n        /* \"#utility.yul\":7001:7114   */\n      jump(tag_339)\n    tag_341:\n        /* \"#utility.yul\":7148:7149   */\n      0x00\n        /* \"#utility.yul\":7139:7145   */\n      dup5\n        /* \"#utility.yul\":7134:7137   */\n      dup5\n        /* \"#utility.yul\":7130:7146   */\n      add\n        /* \"#utility.yul\":7123:7150   */\n      mstore\n        /* \"#utility.yul\":6972:7156   */\n      pop\n        /* \"#utility.yul\":6910:7156   */\n      pop\n      pop\n      pop\n      jump\t// out\n        /* \"#utility.yul\":7162:7519   */\n    tag_218:\n        /* \"#utility.yul\":7240:7243   */\n      0x00\n        /* \"#utility.yul\":7268:7307   */\n      tag_343\n        /* \"#utility.yul\":7301:7306   */\n      dup3\n        /* \"#utility.yul\":7268:7307   */\n      tag_215\n      jump\t// in\n    tag_343:\n        /* \"#utility.yul\":7323:7384   */\n      tag_344\n        /* \"#utility.yul\":7377:7383   */\n      dup2\n        /* \"#utility.yul\":7372:7375   */\n      dup6\n        /* \"#utility.yul\":7323:7384   */\n      tag_216\n      jump\t// in\n    tag_344:\n        /* \"#utility.yul\":7316:7384   */\n      swap4\n      pop\n        /* \"#utility.yul\":7393:7458   */\n      tag_345\n        /* \"#utility.yul\":7451:7457   */\n      dup2\n        /* \"#utility.yul\":7446:7449   */\n      dup6\n        /* \"#utility.yul\":7439:7443   */\n      0x20\n        /* \"#utility.yul\":7432:7437   */\n      dup7\n        /* \"#utility.yul\":7428:7444   */\n      add\n        /* \"#utility.yul\":7393:7458   */\n      tag_217\n      jump\t// in\n    tag_345:\n        /* \"#utility.yul\":7483:7512   */\n      tag_346\n        /* \"#utility.yul\":7505:7511   */\n      dup2\n        /* \"#utility.yul\":7483:7512   */\n      tag_201\n      jump\t// in\n    tag_346:\n        /* \"#utility.yul\":7478:7481   */\n      dup5\n        /* \"#utility.yul\":7474:7513   */\n      add\n        /* \"#utility.yul\":7467:7513   */\n      swap2\n      pop\n        /* \"#utility.yul\":7244:7519   */\n      pop\n        /* \"#utility.yul\":7162:7519   */\n      swap3\n      swap2\n      pop\n      pop\n      jump\t// out\n        /* \"#utility.yul\":7525:7633   */\n    tag_219:\n        /* \"#utility.yul\":7602:7626   */\n      tag_348\n        /* \"#utility.yul\":7620:7625   */\n      dup2\n        /* \"#utility.yul\":7602:7626   */\n      tag_194\n      jump\t// in\n    tag_348:\n        /* \"#utility.yul\":7597:7600   */\n      dup3\n        /* \"#utility.yul\":7590:7627   */\n      mstore\n        /* \"#utility.yul\":7525:7633   */\n      pop\n      pop\n      jump\t// out\n        /* \"#utility.yul\":7639:7763   */\n    tag_220:\n        /* \"#utility.yul\":7716:7722   */\n      0x00\n        /* \"#utility.yul\":7750:7755   */\n      dup2\n        /* \"#utility.yul\":7744:7756   */\n      mload\n        /* \"#utility.yul\":7734:7756   */\n      swap1\n      pop\n        /* \"#utility.yul\":7639:7763   */\n      swap2\n      swap1\n      pop\n      jump\t// out\n        /* \"#utility.yul\":7769:7953   */\n    tag_221:\n        /* \"#utility.yul\":7868:7879   */\n      0x00\n        /* \"#utility.yul\":7902:7908   */\n      dup3\n        /* \"#utility.yul\":7897:7900   */\n      dup3\n        /* \"#utility.yul\":7890:7909   */\n      mstore\n        /* \"#utility.yul\":7942:7946   */\n      0x20\n        /* \"#utility.yul\":7937:7940   */\n      dup3\n        /* \"#utility.yul\":7933:7947   */\n      add\n        /* \"#utility.yul\":7918:7947   */\n      swap1\n      pop\n        /* \"#utility.yul\":7769:7953   */\n      swap3\n      swap2\n      pop\n      pop\n      jump\t// out\n        /* \"#utility.yul\":7959:8101   */\n    tag_222:\n        /* \"#utility.yul\":8036:8040   */\n      0x00\n        /* \"#utility.yul\":8059:8062   */\n      dup2\n        /* \"#utility.yul\":8051:8062   */\n      swap1\n      pop\n        /* \"#utility.yul\":8089:8093   */\n      0x20\n        /* \"#utility.yul\":8084:8087   */\n      dup3\n        /* \"#utility.yul\":8080:8094   */\n      add\n        /* \"#utility.yul\":8072:8094   */\n      swap1\n      pop\n        /* \"#utility.yul\":7959:8101   */\n      swap2\n      swap1\n      pop\n      jump\t// out\n        /* \"#utility.yul\":8107:8303   */\n    tag_223:\n        /* \"#utility.yul\":8196:8206   */\n      0x00\n        /* \"#utility.yul\":8231:8297   */\n      tag_353\n        /* \"#utility.yul\":8293:8296   */\n      dup4\n        /* \"#utility.yul\":8285:8291   */\n      dup4\n        /* \"#utility.yul\":8231:8297   */\n      tag_218\n      jump\t// in\n    tag_353:\n        /* \"#utility.yul\":8217:8297   */\n      swap1\n      pop\n        /* \"#utility.yul\":8107:8303   */\n      swap3\n      swap2\n      pop\n      pop\n      jump\t// out\n        /* \"#utility.yul\":8309:8432   */\n    tag_224:\n        /* \"#utility.yul\":8389:8393   */\n      0x00\n        /* \"#utility.yul\":8421:8425   */\n      0x20\n        /* \"#utility.yul\":8416:8419   */\n      dup3\n        /* \"#utility.yul\":8412:8426   */\n      add\n        /* \"#utility.yul\":8404:8426   */\n      swap1\n      pop\n        /* \"#utility.yul\":8309:8432   */\n      swap2\n      swap1\n      pop\n      jump\t// out\n        /* \"#utility.yul\":8466:9437   */\n    tag_225:\n        /* \"#utility.yul\":8595:8598   */\n      0x00\n        /* \"#utility.yul\":8624:8688   */\n      tag_356\n        /* \"#utility.yul\":8682:8687   */\n      dup3\n        /* \"#utility.yul\":8624:8688   */\n      tag_220\n      jump\t// in\n    tag_356:\n        /* \"#utility.yul\":8704:8790   */\n      tag_357\n        /* \"#utility.yul\":8783:8789   */\n      dup2\n        /* \"#utility.yul\":8778:8781   */\n      dup6\n        /* \"#utility.yul\":8704:8790   */\n      tag_221\n      jump\t// in\n    tag_357:\n        /* \"#utility.yul\":8697:8790   */\n      swap4\n      pop\n        /* \"#utility.yul\":8816:8819   */\n      dup4\n        /* \"#utility.yul\":8861:8865   */\n      0x20\n        /* \"#utility.yul\":8853:8859   */\n      dup3\n        /* \"#utility.yul\":8849:8866   */\n      mul\n        /* \"#utility.yul\":8844:8847   */\n      dup6\n        /* \"#utility.yul\":8840:8867   */\n      add\n        /* \"#utility.yul\":8891:8957   */\n      tag_358\n        /* \"#utility.yul\":8951:8956   */\n      dup6\n        /* \"#utility.yul\":8891:8957   */\n      tag_222\n      jump\t// in\n    tag_358:\n        /* \"#utility.yul\":8980:8987   */\n      dup1\n        /* \"#utility.yul\":9011:9012   */\n      0x00\n        /* \"#utility.yul\":8996:9392   */\n    tag_359:\n        /* \"#utility.yul\":9021:9027   */\n      dup6\n        /* \"#utility.yul\":9018:9019   */\n      dup2\n        /* \"#utility.yul\":9015:9028   */\n      lt\n        /* \"#utility.yul\":8996:9392   */\n      iszero\n      tag_361\n      jumpi\n        /* \"#utility.yul\":9092:9101   */\n      dup5\n        /* \"#utility.yul\":9086:9090   */\n      dup5\n        /* \"#utility.yul\":9082:9102   */\n      sub\n        /* \"#utility.yul\":9077:9080   */\n      dup10\n        /* \"#utility.yul\":9070:9103   */\n      mstore\n        /* \"#utility.yul\":9143:9149   */\n      dup2\n        /* \"#utility.yul\":9137:9150   */\n      mload\n        /* \"#utility.yul\":9171:9255   */\n      tag_362\n        /* \"#utility.yul\":9250:9254   */\n      dup6\n        /* \"#utility.yul\":9235:9248   */\n      dup3\n        /* \"#utility.yul\":9171:9255   */\n      tag_223\n      jump\t// in\n    tag_362:\n        /* \"#utility.yul\":9163:9255   */\n      swap5\n      pop\n        /* \"#utility.yul\":9278:9348   */\n      tag_363\n        /* \"#utility.yul\":9341:9347   */\n      dup4\n        /* \"#utility.yul\":9278:9348   */\n      tag_224\n      jump\t// in\n    tag_363:\n        /* \"#utility.yul\":9268:9348   */\n      swap3\n      pop\n        /* \"#utility.yul\":9377:9381   */\n      0x20\n        /* \"#utility.yul\":9372:9375   */\n      dup11\n        /* \"#utility.yul\":9368:9382   */\n      add\n        /* \"#utility.yul\":9361:9382   */\n      swap10\n      pop\n        /* \"#utility.yul\":9056:9392   */\n      pop\n        /* \"#utility.yul\":9043:9044   */\n      0x01\n        /* \"#utility.yul\":9040:9041   */\n      dup2\n        /* \"#utility.yul\":9036:9045   */\n      add\n        /* \"#utility.yul\":9031:9045   */\n      swap1\n      pop\n        /* \"#utility.yul\":8996:9392   */\n      jump(tag_359)\n    tag_361:\n        /* \"#utility.yul\":9000:9014   */\n      pop\n        /* \"#utility.yul\":9408:9412   */\n      dup3\n        /* \"#utility.yul\":9401:9412   */\n      swap8\n      pop\n        /* \"#utility.yul\":9428:9431   */\n      dup8\n        /* \"#utility.yul\":9421:9431   */\n      swap6\n      pop\n        /* \"#utility.yul\":8600:9437   */\n      pop\n      pop\n      pop\n      pop\n      pop\n        /* \"#utility.yul\":8466:9437   */\n      swap3\n      swap2\n      pop\n      pop\n      jump\t// out\n        /* \"#utility.yul\":9501:10825   */\n    tag_226:\n        /* \"#utility.yul\":9616:9619   */\n      0x00\n        /* \"#utility.yul\":9652:9656   */\n      0xa0\n        /* \"#utility.yul\":9647:9650   */\n      dup4\n        /* \"#utility.yul\":9643:9657   */\n      add\n        /* \"#utility.yul\":9739:9743   */\n      0x00\n        /* \"#utility.yul\":9732:9737   */\n      dup4\n        /* \"#utility.yul\":9728:9744   */\n      add\n        /* \"#utility.yul\":9722:9745   */\n      mload\n        /* \"#utility.yul\":9792:9795   */\n      dup5\n        /* \"#utility.yul\":9786:9790   */\n      dup3\n        /* \"#utility.yul\":9782:9796   */\n      sub\n        /* \"#utility.yul\":9775:9779   */\n      0x00\n        /* \"#utility.yul\":9770:9773   */\n      dup7\n        /* \"#utility.yul\":9766:9780   */\n      add\n        /* \"#utility.yul\":9759:9797   */\n      mstore\n        /* \"#utility.yul\":9818:9891   */\n      tag_365\n        /* \"#utility.yul\":9886:9890   */\n      dup3\n        /* \"#utility.yul\":9872:9884   */\n      dup3\n        /* \"#utility.yul\":9818:9891   */\n      tag_218\n      jump\t// in\n    tag_365:\n        /* \"#utility.yul\":9810:9891   */\n      swap2\n      pop\n        /* \"#utility.yul\":9667:9902   */\n      pop\n        /* \"#utility.yul\":9986:9990   */\n      0x20\n        /* \"#utility.yul\":9979:9984   */\n      dup4\n        /* \"#utility.yul\":9975:9991   */\n      add\n        /* \"#utility.yul\":9969:9992   */\n      mload\n        /* \"#utility.yul\":10005:10068   */\n      tag_366\n        /* \"#utility.yul\":10062:10066   */\n      0x20\n        /* \"#utility.yul\":10057:10060   */\n      dup7\n        /* \"#utility.yul\":10053:10067   */\n      add\n        /* \"#utility.yul\":10039:10051   */\n      dup3\n        /* \"#utility.yul\":10005:10068   */\n      tag_219\n      jump\t// in\n    tag_366:\n        /* \"#utility.yul\":9912:10078   */\n      pop\n        /* \"#utility.yul\":10161:10165   */\n      0x40\n        /* \"#utility.yul\":10154:10159   */\n      dup4\n        /* \"#utility.yul\":10150:10166   */\n      add\n        /* \"#utility.yul\":10144:10167   */\n      mload\n        /* \"#utility.yul\":10180:10243   */\n      tag_367\n        /* \"#utility.yul\":10237:10241   */\n      0x40\n        /* \"#utility.yul\":10232:10235   */\n      dup7\n        /* \"#utility.yul\":10228:10242   */\n      add\n        /* \"#utility.yul\":10214:10226   */\n      dup3\n        /* \"#utility.yul\":10180:10243   */\n      tag_219\n      jump\t// in\n    tag_367:\n        /* \"#utility.yul\":10088:10253   */\n      pop\n        /* \"#utility.yul\":10337:10341   */\n      0x60\n        /* \"#utility.yul\":10330:10335   */\n      dup4\n        /* \"#utility.yul\":10326:10342   */\n      add\n        /* \"#utility.yul\":10320:10343   */\n      mload\n        /* \"#utility.yul\":10390:10393   */\n      dup5\n        /* \"#utility.yul\":10384:10388   */\n      dup3\n        /* \"#utility.yul\":10380:10394   */\n      sub\n        /* \"#utility.yul\":10373:10377   */\n      0x60\n        /* \"#utility.yul\":10368:10371   */\n      dup7\n        /* \"#utility.yul\":10364:10378   */\n      add\n        /* \"#utility.yul\":10357:10395   */\n      mstore\n        /* \"#utility.yul\":10416:10489   */\n      tag_368\n        /* \"#utility.yul\":10484:10488   */\n      dup3\n        /* \"#utility.yul\":10470:10482   */\n      dup3\n        /* \"#utility.yul\":10416:10489   */\n      tag_218\n      jump\t// in\n    tag_368:\n        /* \"#utility.yul\":10408:10489   */\n      swap2\n      pop\n        /* \"#utility.yul\":10263:10500   */\n      pop\n        /* \"#utility.yul\":10585:10589   */\n      0x80\n        /* \"#utility.yul\":10578:10583   */\n      dup4\n        /* \"#utility.yul\":10574:10590   */\n      add\n        /* \"#utility.yul\":10568:10591   */\n      mload\n        /* \"#utility.yul\":10638:10641   */\n      dup5\n        /* \"#utility.yul\":10632:10636   */\n      dup3\n        /* \"#utility.yul\":10628:10642   */\n      sub\n        /* \"#utility.yul\":10621:10625   */\n      0x80\n        /* \"#utility.yul\":10616:10619   */\n      dup7\n        /* \"#utility.yul\":10612:10626   */\n      add\n        /* \"#utility.yul\":10605:10643   */\n      mstore\n        /* \"#utility.yul\":10664:10787   */\n      tag_369\n        /* \"#utility.yul\":10782:10786   */\n      dup3\n        /* \"#utility.yul\":10768:10780   */\n      dup3\n        /* \"#utility.yul\":10664:10787   */\n      tag_225\n      jump\t// in\n    tag_369:\n        /* \"#utility.yul\":10656:10787   */\n      swap2\n      pop\n        /* \"#utility.yul\":10510:10798   */\n      pop\n        /* \"#utility.yul\":10815:10819   */\n      dup1\n        /* \"#utility.yul\":10808:10819   */\n      swap2\n      pop\n        /* \"#utility.yul\":9621:10825   */\n      pop\n        /* \"#utility.yul\":9501:10825   */\n      swap3\n      swap2\n      pop\n      pop\n      jump\t// out\n        /* \"#utility.yul\":10831:11196   */\n    tag_32:\n        /* \"#utility.yul\":10970:10974   */\n      0x00\n        /* \"#utility.yul\":11008:11010   */\n      0x20\n        /* \"#utility.yul\":10997:11006   */\n      dup3\n        /* \"#utility.yul\":10993:11011   */\n      add\n        /* \"#utility.yul\":10985:11011   */\n      swap1\n      pop\n        /* \"#utility.yul\":11057:11066   */\n      dup2\n        /* \"#utility.yul\":11051:11055   */\n      dup2\n        /* \"#utility.yul\":11047:11067   */\n      sub\n        /* \"#utility.yul\":11043:11044   */\n      0x00\n        /* \"#utility.yul\":11032:11041   */\n      dup4\n        /* \"#utility.yul\":11028:11045   */\n      add\n        /* \"#utility.yul\":11021:11068   */\n      mstore\n        /* \"#utility.yul\":11085:11189   */\n      tag_371\n        /* \"#utility.yul\":11184:11188   */\n      dup2\n        /* \"#utility.yul\":11175:11181   */\n      dup5\n        /* \"#utility.yul\":11085:11189   */\n      tag_226\n      jump\t// in\n    tag_371:\n        /* \"#utility.yul\":11077:11189   */\n      swap1\n      pop\n        /* \"#utility.yul\":10831:11196   */\n      swap3\n      swap2\n      pop\n      pop\n      jump\t// out\n        /* \"#utility.yul\":11202:11292   */\n    tag_227:\n        /* \"#utility.yul\":11236:11243   */\n      0x00\n        /* \"#utility.yul\":11279:11284   */\n      dup2\n        /* \"#utility.yul\":11272:11285   */\n      iszero\n        /* \"#utility.yul\":11265:11286   */\n      iszero\n        /* \"#utility.yul\":11254:11286   */\n      swap1\n      pop\n        /* \"#utility.yul\":11202:11292   */\n      swap2\n      swap1\n      pop\n      jump\t// out\n        /* \"#utility.yul\":11298:11407   */\n    tag_228:\n        /* \"#utility.yul\":11379:11400   */\n      tag_374\n        /* \"#utility.yul\":11394:11399   */\n      dup2\n        /* \"#utility.yul\":11379:11400   */\n      tag_227\n      jump\t// in\n    tag_374:\n        /* \"#utility.yul\":11374:11377   */\n      dup3\n        /* \"#utility.yul\":11367:11401   */\n      mstore\n        /* \"#utility.yul\":11298:11407   */\n      pop\n      pop\n      jump\t// out\n        /* \"#utility.yul\":11413:11623   */\n    tag_36:\n        /* \"#utility.yul\":11500:11504   */\n      0x00\n        /* \"#utility.yul\":11538:11540   */\n      0x20\n        /* \"#utility.yul\":11527:11536   */\n      dup3\n        /* \"#utility.yul\":11523:11541   */\n      add\n        /* \"#utility.yul\":11515:11541   */\n      swap1\n      pop\n        /* \"#utility.yul\":11551:11616   */\n      tag_376\n        /* \"#utility.yul\":11613:11614   */\n      0x00\n        /* \"#utility.yul\":11602:11611   */\n      dup4\n        /* \"#utility.yul\":11598:11615   */\n      add\n        /* \"#utility.yul\":11589:11595   */\n      dup5\n        /* \"#utility.yul\":11551:11616   */\n      tag_228\n      jump\t// in\n    tag_376:\n        /* \"#utility.yul\":11413:11623   */\n      swap3\n      swap2\n      pop\n      pop\n      jump\t// out\n        /* \"#utility.yul\":11629:11958   */\n    tag_39:\n        /* \"#utility.yul\":11688:11694   */\n      0x00\n        /* \"#utility.yul\":11737:11739   */\n      0x20\n        /* \"#utility.yul\":11725:11734   */\n      dup3\n        /* \"#utility.yul\":11716:11723   */\n      dup5\n        /* \"#utility.yul\":11712:11735   */\n      sub\n        /* \"#utility.yul\":11708:11740   */\n      slt\n        /* \"#utility.yul\":11705:11824   */\n      iszero\n      tag_378\n      jumpi\n        /* \"#utility.yul\":11743:11822   */\n      tag_379\n      tag_197\n      jump\t// in\n    tag_379:\n        /* \"#utility.yul\":11705:11824   */\n    tag_378:\n        /* \"#utility.yul\":11863:11864   */\n      0x00\n        /* \"#utility.yul\":11888:11941   */\n      tag_380\n        /* \"#utility.yul\":11933:11940   */\n      dup5\n        /* \"#utility.yul\":11924:11930   */\n      dup3\n        /* \"#utility.yul\":11913:11922   */\n      dup6\n        /* \"#utility.yul\":11909:11931   */\n      add\n        /* \"#utility.yul\":11888:11941   */\n      tag_210\n      jump\t// in\n    tag_380:\n        /* \"#utility.yul\":11878:11941   */\n      swap2\n      pop\n        /* \"#utility.yul\":11834:11951   */\n      pop\n        /* \"#utility.yul\":11629:11958   */\n      swap3\n      swap2\n      pop\n      pop\n      jump\t// out\n        /* \"#utility.yul\":11964:12101   */\n    tag_229:\n        /* \"#utility.yul\":12054:12060   */\n      0x00\n        /* \"#utility.yul\":12088:12093   */\n      dup2\n        /* \"#utility.yul\":12082:12094   */\n      mload\n        /* \"#utility.yul\":12072:12094   */\n      swap1\n      pop\n        /* \"#utility.yul\":11964:12101   */\n      swap2\n      swap1\n      pop\n      jump\t// out\n        /* \"#utility.yul\":12107:12314   */\n    tag_230:\n        /* \"#utility.yul\":12229:12240   */\n      0x00\n        /* \"#utility.yul\":12263:12269   */\n      dup3\n        /* \"#utility.yul\":12258:12261   */\n      dup3\n        /* \"#utility.yul\":12251:12270   */\n      mstore\n        /* \"#utility.yul\":12303:12307   */\n      0x20\n        /* \"#utility.yul\":12298:12301   */\n      dup3\n        /* \"#utility.yul\":12294:12308   */\n      add\n        /* \"#utility.yul\":12279:12308   */\n      swap1\n      pop\n        /* \"#utility.yul\":12107:12314   */\n      swap3\n      swap2\n      pop\n      pop\n      jump\t// out\n        /* \"#utility.yul\":12320:12475   */\n    tag_231:\n        /* \"#utility.yul\":12410:12414   */\n      0x00\n        /* \"#utility.yul\":12433:12436   */\n      dup2\n        /* \"#utility.yul\":12425:12436   */\n      swap1\n      pop\n        /* \"#utility.yul\":12463:12467   */\n      0x20\n        /* \"#utility.yul\":12458:12461   */\n      dup3\n        /* \"#utility.yul\":12454:12468   */\n      add\n        /* \"#utility.yul\":12446:12468   */\n      swap1\n      pop\n        /* \"#utility.yul\":12320:12475   */\n      swap2\n      swap1\n      pop\n      jump\t// out\n        /* \"#utility.yul\":12539:13853   */\n    tag_232:\n        /* \"#utility.yul\":12644:12647   */\n      0x00\n        /* \"#utility.yul\":12680:12684   */\n      0xa0\n        /* \"#utility.yul\":12675:12678   */\n      dup4\n        /* \"#utility.yul\":12671:12685   */\n      add\n        /* \"#utility.yul\":12767:12771   */\n      0x00\n        /* \"#utility.yul\":12760:12765   */\n      dup4\n        /* \"#utility.yul\":12756:12772   */\n      add\n        /* \"#utility.yul\":12750:12773   */\n      mload\n        /* \"#utility.yul\":12820:12823   */\n      dup5\n        /* \"#utility.yul\":12814:12818   */\n      dup3\n        /* \"#utility.yul\":12810:12824   */\n      sub\n        /* \"#utility.yul\":12803:12807   */\n      0x00\n        /* \"#utility.yul\":12798:12801   */\n      dup7\n        /* \"#utility.yul\":12794:12808   */\n      add\n        /* \"#utility.yul\":12787:12825   */\n      mstore\n        /* \"#utility.yul\":12846:12919   */\n      tag_385\n        /* \"#utility.yul\":12914:12918   */\n      dup3\n        /* \"#utility.yul\":12900:12912   */\n      dup3\n        /* \"#utility.yul\":12846:12919   */\n      tag_218\n      jump\t// in\n    tag_385:\n        /* \"#utility.yul\":12838:12919   */\n      swap2\n      pop\n        /* \"#utility.yul\":12695:12930   */\n      pop\n        /* \"#utility.yul\":13014:13018   */\n      0x20\n        /* \"#utility.yul\":13007:13012   */\n      dup4\n        /* \"#utility.yul\":13003:13019   */\n      add\n        /* \"#utility.yul\":12997:13020   */\n      mload\n        /* \"#utility.yul\":13033:13096   */\n      tag_386\n        /* \"#utility.yul\":13090:13094   */\n      0x20\n        /* \"#utility.yul\":13085:13088   */\n      dup7\n        /* \"#utility.yul\":13081:13095   */\n      add\n        /* \"#utility.yul\":13067:13079   */\n      dup3\n        /* \"#utility.yul\":13033:13096   */\n      tag_219\n      jump\t// in\n    tag_386:\n        /* \"#utility.yul\":12940:13106   */\n      pop\n        /* \"#utility.yul\":13189:13193   */\n      0x40\n        /* \"#utility.yul\":13182:13187   */\n      dup4\n        /* \"#utility.yul\":13178:13194   */\n      add\n        /* \"#utility.yul\":13172:13195   */\n      mload\n        /* \"#utility.yul\":13208:13271   */\n      tag_387\n        /* \"#utility.yul\":13265:13269   */\n      0x40\n        /* \"#utility.yul\":13260:13263   */\n      dup7\n        /* \"#utility.yul\":13256:13270   */\n      add\n        /* \"#utility.yul\":13242:13254   */\n      dup3\n        /* \"#utility.yul\":13208:13271   */\n      tag_219\n      jump\t// in\n    tag_387:\n        /* \"#utility.yul\":13116:13281   */\n      pop\n        /* \"#utility.yul\":13365:13369   */\n      0x60\n        /* \"#utility.yul\":13358:13363   */\n      dup4\n        /* \"#utility.yul\":13354:13370   */\n      add\n        /* \"#utility.yul\":13348:13371   */\n      mload\n        /* \"#utility.yul\":13418:13421   */\n      dup5\n        /* \"#utility.yul\":13412:13416   */\n      dup3\n        /* \"#utility.yul\":13408:13422   */\n      sub\n        /* \"#utility.yul\":13401:13405   */\n      0x60\n        /* \"#utility.yul\":13396:13399   */\n      dup7\n        /* \"#utility.yul\":13392:13406   */\n      add\n        /* \"#utility.yul\":13385:13423   */\n      mstore\n        /* \"#utility.yul\":13444:13517   */\n      tag_388\n        /* \"#utility.yul\":13512:13516   */\n      dup3\n        /* \"#utility.yul\":13498:13510   */\n      dup3\n        /* \"#utility.yul\":13444:13517   */\n      tag_218\n      jump\t// in\n    tag_388:\n        /* \"#utility.yul\":13436:13517   */\n      swap2\n      pop\n        /* \"#utility.yul\":13291:13528   */\n      pop\n        /* \"#utility.yul\":13613:13617   */\n      0x80\n        /* \"#utility.yul\":13606:13611   */\n      dup4\n        /* \"#utility.yul\":13602:13618   */\n      add\n        /* \"#utility.yul\":13596:13619   */\n      mload\n        /* \"#utility.yul\":13666:13669   */\n      dup5\n        /* \"#utility.yul\":13660:13664   */\n      dup3\n        /* \"#utility.yul\":13656:13670   */\n      sub\n        /* \"#utility.yul\":13649:13653   */\n      0x80\n        /* \"#utility.yul\":13644:13647   */\n      dup7\n        /* \"#utility.yul\":13640:13654   */\n      add\n        /* \"#utility.yul\":13633:13671   */\n      mstore\n        /* \"#utility.yul\":13692:13815   */\n      tag_389\n        /* \"#utility.yul\":13810:13814   */\n      dup3\n        /* \"#utility.yul\":13796:13808   */\n      dup3\n        /* \"#utility.yul\":13692:13815   */\n      tag_225\n      jump\t// in\n    tag_389:\n        /* \"#utility.yul\":13684:13815   */\n      swap2\n      pop\n        /* \"#utility.yul\":13538:13826   */\n      pop\n        /* \"#utility.yul\":13843:13847   */\n      dup1\n        /* \"#utility.yul\":13836:13847   */\n      swap2\n      pop\n        /* \"#utility.yul\":12649:13853   */\n      pop\n        /* \"#utility.yul\":12539:13853   */\n      swap3\n      swap2\n      pop\n      pop\n      jump\t// out\n        /* \"#utility.yul\":13859:14107   */\n    tag_233:\n        /* \"#utility.yul\":13974:13984   */\n      0x00\n        /* \"#utility.yul\":14009:14101   */\n      tag_391\n        /* \"#utility.yul\":14097:14100   */\n      dup4\n        /* \"#utility.yul\":14089:14095   */\n      dup4\n        /* \"#utility.yul\":14009:14101   */\n      tag_232\n      jump\t// in\n    tag_391:\n        /* \"#utility.yul\":13995:14101   */\n      swap1\n      pop\n        /* \"#utility.yul\":13859:14107   */\n      swap3\n      swap2\n      pop\n      pop\n      jump\t// out\n        /* \"#utility.yul\":14113:14249   */\n    tag_234:\n        /* \"#utility.yul\":14206:14210   */\n      0x00\n        /* \"#utility.yul\":14238:14242   */\n      0x20\n        /* \"#utility.yul\":14233:14236   */\n      dup3\n        /* \"#utility.yul\":14229:14243   */\n      add\n        /* \"#utility.yul\":14221:14243   */\n      swap1\n      pop\n        /* \"#utility.yul\":14113:14249   */\n      swap2\n      swap1\n      pop\n      jump\t// out\n        /* \"#utility.yul\":14317:15412   */\n    tag_235:\n        /* \"#utility.yul\":14482:14485   */\n      0x00\n        /* \"#utility.yul\":14511:14588   */\n      tag_394\n        /* \"#utility.yul\":14582:14587   */\n      dup3\n        /* \"#utility.yul\":14511:14588   */\n      tag_229\n      jump\t// in\n    tag_394:\n        /* \"#utility.yul\":14604:14713   */\n      tag_395\n        /* \"#utility.yul\":14706:14712   */\n      dup2\n        /* \"#utility.yul\":14701:14704   */\n      dup6\n        /* \"#utility.yul\":14604:14713   */\n      tag_230\n      jump\t// in\n    tag_395:\n        /* \"#utility.yul\":14597:14713   */\n      swap4\n      pop\n        /* \"#utility.yul\":14739:14742   */\n      dup4\n        /* \"#utility.yul\":14784:14788   */\n      0x20\n        /* \"#utility.yul\":14776:14782   */\n      dup3\n        /* \"#utility.yul\":14772:14789   */\n      mul\n        /* \"#utility.yul\":14767:14770   */\n      dup6\n        /* \"#utility.yul\":14763:14790   */\n      add\n        /* \"#utility.yul\":14814:14893   */\n      tag_396\n        /* \"#utility.yul\":14887:14892   */\n      dup6\n        /* \"#utility.yul\":14814:14893   */\n      tag_231\n      jump\t// in\n    tag_396:\n        /* \"#utility.yul\":14916:14923   */\n      dup1\n        /* \"#utility.yul\":14947:14948   */\n      0x00\n        /* \"#utility.yul\":14932:15367   */\n    tag_397:\n        /* \"#utility.yul\":14957:14963   */\n      dup6\n        /* \"#utility.yul\":14954:14955   */\n      dup2\n        /* \"#utility.yul\":14951:14964   */\n      lt\n        /* \"#utility.yul\":14932:15367   */\n      iszero\n      tag_399\n      jumpi\n        /* \"#utility.yul\":15028:15037   */\n      dup5\n        /* \"#utility.yul\":15022:15026   */\n      dup5\n        /* \"#utility.yul\":15018:15038   */\n      sub\n        /* \"#utility.yul\":15013:15016   */\n      dup10\n        /* \"#utility.yul\":15006:15039   */\n      mstore\n        /* \"#utility.yul\":15079:15085   */\n      dup2\n        /* \"#utility.yul\":15073:15086   */\n      mload\n        /* \"#utility.yul\":15107:15217   */\n      tag_400\n        /* \"#utility.yul\":15212:15216   */\n      dup6\n        /* \"#utility.yul\":15197:15210   */\n      dup3\n        /* \"#utility.yul\":15107:15217   */\n      tag_233\n      jump\t// in\n    tag_400:\n        /* \"#utility.yul\":15099:15217   */\n      swap5\n      pop\n        /* \"#utility.yul\":15240:15323   */\n      tag_401\n        /* \"#utility.yul\":15316:15322   */\n      dup4\n        /* \"#utility.yul\":15240:15323   */\n      tag_234\n      jump\t// in\n    tag_401:\n        /* \"#utility.yul\":15230:15323   */\n      swap3\n      pop\n        /* \"#utility.yul\":15352:15356   */\n      0x20\n        /* \"#utility.yul\":15347:15350   */\n      dup11\n        /* \"#utility.yul\":15343:15357   */\n      add\n        /* \"#utility.yul\":15336:15357   */\n      swap10\n      pop\n        /* \"#utility.yul\":14992:15367   */\n      pop\n        /* \"#utility.yul\":14979:14980   */\n      0x01\n        /* \"#utility.yul\":14976:14977   */\n      dup2\n        /* \"#utility.yul\":14972:14981   */\n      add\n        /* \"#utility.yul\":14967:14981   */\n      swap1\n      pop\n        /* \"#utility.yul\":14932:15367   */\n      jump(tag_397)\n    tag_399:\n        /* \"#utility.yul\":14936:14950   */\n      pop\n        /* \"#utility.yul\":15383:15387   */\n      dup3\n        /* \"#utility.yul\":15376:15387   */\n      swap8\n      pop\n        /* \"#utility.yul\":15403:15406   */\n      dup8\n        /* \"#utility.yul\":15396:15406   */\n      swap6\n      pop\n        /* \"#utility.yul\":14487:15412   */\n      pop\n      pop\n      pop\n      pop\n      pop\n        /* \"#utility.yul\":14317:15412   */\n      swap3\n      swap2\n      pop\n      pop\n      jump\t// out\n        /* \"#utility.yul\":15418:15883   */\n    tag_45:\n        /* \"#utility.yul\":15607:15611   */\n      0x00\n        /* \"#utility.yul\":15645:15647   */\n      0x20\n        /* \"#utility.yul\":15634:15643   */\n      dup3\n        /* \"#utility.yul\":15630:15648   */\n      add\n        /* \"#utility.yul\":15622:15648   */\n      swap1\n      pop\n        /* \"#utility.yul\":15694:15703   */\n      dup2\n        /* \"#utility.yul\":15688:15692   */\n      dup2\n        /* \"#utility.yul\":15684:15704   */\n      sub\n        /* \"#utility.yul\":15680:15681   */\n      0x00\n        /* \"#utility.yul\":15669:15678   */\n      dup4\n        /* \"#utility.yul\":15665:15682   */\n      add\n        /* \"#utility.yul\":15658:15705   */\n      mstore\n        /* \"#utility.yul\":15722:15876   */\n      tag_403\n        /* \"#utility.yul\":15871:15875   */\n      dup2\n        /* \"#utility.yul\":15862:15868   */\n      dup5\n        /* \"#utility.yul\":15722:15876   */\n      tag_235\n      jump\t// in\n    tag_403:\n        /* \"#utility.yul\":15714:15876   */\n      swap1\n      pop\n        /* \"#utility.yul\":15418:15883   */\n      swap3\n      swap2\n      pop\n      pop\n      jump\t// out\n        /* \"#utility.yul\":15889:16058   */\n    tag_236:\n        /* \"#utility.yul\":15973:15984   */\n      0x00\n        /* \"#utility.yul\":16007:16013   */\n      dup3\n        /* \"#utility.yul\":16002:16005   */\n      dup3\n        /* \"#utility.yul\":15995:16014   */\n      mstore\n        /* \"#utility.yul\":16047:16051   */\n      0x20\n        /* \"#utility.yul\":16042:16045   */\n      dup3\n        /* \"#utility.yul\":16038:16052   */\n      add\n        /* \"#utility.yul\":16023:16052   */\n      swap1\n      pop\n        /* \"#utility.yul\":15889:16058   */\n      swap3\n      swap2\n      pop\n      pop\n      jump\t// out\n        /* \"#utility.yul\":16064:16441   */\n    tag_237:\n        /* \"#utility.yul\":16152:16155   */\n      0x00\n        /* \"#utility.yul\":16180:16219   */\n      tag_406\n        /* \"#utility.yul\":16213:16218   */\n      dup3\n        /* \"#utility.yul\":16180:16219   */\n      tag_215\n      jump\t// in\n    tag_406:\n        /* \"#utility.yul\":16235:16306   */\n      tag_407\n        /* \"#utility.yul\":16299:16305   */\n      dup2\n        /* \"#utility.yul\":16294:16297   */\n      dup6\n        /* \"#utility.yul\":16235:16306   */\n      tag_236\n      jump\t// in\n    tag_407:\n        /* \"#utility.yul\":16228:16306   */\n      swap4\n      pop\n        /* \"#utility.yul\":16315:16380   */\n      tag_408\n        /* \"#utility.yul\":16373:16379   */\n      dup2\n        /* \"#utility.yul\":16368:16371   */\n      dup6\n        /* \"#utility.yul\":16361:16365   */\n      0x20\n        /* \"#utility.yul\":16354:16359   */\n      dup7\n        /* \"#utility.yul\":16350:16366   */\n      add\n        /* \"#utility.yul\":16315:16380   */\n      tag_217\n      jump\t// in\n    tag_408:\n        /* \"#utility.yul\":16405:16434   */\n      tag_409\n        /* \"#utility.yul\":16427:16433   */\n      dup2\n        /* \"#utility.yul\":16405:16434   */\n      tag_201\n      jump\t// in\n    tag_409:\n        /* \"#utility.yul\":16400:16403   */\n      dup5\n        /* \"#utility.yul\":16396:16435   */\n      add\n        /* \"#utility.yul\":16389:16435   */\n      swap2\n      pop\n        /* \"#utility.yul\":16156:16441   */\n      pop\n        /* \"#utility.yul\":16064:16441   */\n      swap3\n      swap2\n      pop\n      pop\n      jump\t// out\n        /* \"#utility.yul\":16447:16760   */\n    tag_50:\n        /* \"#utility.yul\":16560:16564   */\n      0x00\n        /* \"#utility.yul\":16598:16600   */\n      0x20\n        /* \"#utility.yul\":16587:16596   */\n      dup3\n        /* \"#utility.yul\":16583:16601   */\n      add\n        /* \"#utility.yul\":16575:16601   */\n      swap1\n      pop\n        /* \"#utility.yul\":16647:16656   */\n      dup2\n        /* \"#utility.yul\":16641:16645   */\n      dup2\n        /* \"#utility.yul\":16637:16657   */\n      sub\n        /* \"#utility.yul\":16633:16634   */\n      0x00\n        /* \"#utility.yul\":16622:16631   */\n      dup4\n        /* \"#utility.yul\":16618:16635   */\n      add\n        /* \"#utility.yul\":16611:16658   */\n      mstore\n        /* \"#utility.yul\":16675:16753   */\n      tag_411\n        /* \"#utility.yul\":16748:16752   */\n      dup2\n        /* \"#utility.yul\":16739:16745   */\n      dup5\n        /* \"#utility.yul\":16675:16753   */\n      tag_237\n      jump\t// in\n    tag_411:\n        /* \"#utility.yul\":16667:16753   */\n      swap1\n      pop\n        /* \"#utility.yul\":16447:16760   */\n      swap3\n      swap2\n      pop\n      pop\n      jump\t// out\n        /* \"#utility.yul\":16766:16946   */\n    tag_57:\n        /* \"#utility.yul\":16814:16891   */\n      0x4e487b7100000000000000000000000000000000000000000000000000000000\n        /* \"#utility.yul\":16811:16812   */\n      0x00\n        /* \"#utility.yul\":16804:16892   */\n      mstore\n        /* \"#utility.yul\":16911:16915   */\n      0x32\n        /* \"#utility.yul\":16908:16909   */\n      0x04\n        /* \"#utility.yul\":16901:16916   */\n      mstore\n        /* \"#utility.yul\":16935:16939   */\n      0x24\n        /* \"#utility.yul\":16932:16933   */\n      0x00\n        /* \"#utility.yul\":16925:16940   */\n      revert\n        /* \"#utility.yul\":16952:17132   */\n    tag_238:\n        /* \"#utility.yul\":17000:17077   */\n      0x4e487b7100000000000000000000000000000000000000000000000000000000\n        /* \"#utility.yul\":16997:16998   */\n      0x00\n        /* \"#utility.yul\":16990:17078   */\n      mstore\n        /* \"#utility.yul\":17097:17101   */\n      0x22\n        /* \"#utility.yul\":17094:17095   */\n      0x04\n        /* \"#utility.yul\":17087:17102   */\n      mstore\n        /* \"#utility.yul\":17121:17125   */\n      0x24\n        /* \"#utility.yul\":17118:17119   */\n      0x00\n        /* \"#utility.yul\":17111:17126   */\n      revert\n        /* \"#utility.yul\":17138:17458   */\n    tag_99:\n        /* \"#utility.yul\":17182:17188   */\n      0x00\n        /* \"#utility.yul\":17219:17220   */\n      0x02\n        /* \"#utility.yul\":17213:17217   */\n      dup3\n        /* \"#utility.yul\":17209:17221   */\n      div\n        /* \"#utility.yul\":17199:17221   */\n      swap1\n      pop\n        /* \"#utility.yul\":17266:17267   */\n      0x01\n        /* \"#utility.yul\":17260:17264   */\n      dup3\n        /* \"#utility.yul\":17256:17268   */\n      and\n        /* \"#utility.yul\":17287:17305   */\n      dup1\n        /* \"#utility.yul\":17277:17358   */\n      tag_415\n      jumpi\n        /* \"#utility.yul\":17343:17347   */\n      0x7f\n        /* \"#utility.yul\":17335:17341   */\n      dup3\n        /* \"#utility.yul\":17331:17348   */\n      and\n        /* \"#utility.yul\":17321:17348   */\n      swap2\n      pop\n        /* \"#utility.yul\":17277:17358   */\n    tag_415:\n        /* \"#utility.yul\":17405:17407   */\n      0x20\n        /* \"#utility.yul\":17397:17403   */\n      dup3\n        /* \"#utility.yul\":17394:17408   */\n      lt\n        /* \"#utility.yul\":17374:17392   */\n      dup2\n        /* \"#utility.yul\":17371:17409   */\n      sub\n        /* \"#utility.yul\":17368:17452   */\n      tag_416\n      jumpi\n        /* \"#utility.yul\":17424:17442   */\n      tag_417\n      tag_238\n      jump\t// in\n    tag_417:\n        /* \"#utility.yul\":17368:17452   */\n    tag_416:\n        /* \"#utility.yul\":17189:17458   */\n      pop\n        /* \"#utility.yul\":17138:17458   */\n      swap2\n      swap1\n      pop\n      jump\t// out\n        /* \"#utility.yul\":17464:17611   */\n    tag_239:\n        /* \"#utility.yul\":17565:17576   */\n      0x00\n        /* \"#utility.yul\":17602:17605   */\n      dup2\n        /* \"#utility.yul\":17587:17605   */\n      swap1\n      pop\n        /* \"#utility.yul\":17464:17611   */\n      swap3\n      swap2\n      pop\n      pop\n      jump\t// out\n        /* \"#utility.yul\":17617:17761   */\n    tag_240:\n        /* \"#utility.yul\":17669:17673   */\n      0x00\n        /* \"#utility.yul\":17692:17695   */\n      dup2\n        /* \"#utility.yul\":17684:17695   */\n      swap1\n      pop\n        /* \"#utility.yul\":17715:17718   */\n      dup2\n        /* \"#utility.yul\":17712:17713   */\n      0x00\n        /* \"#utility.yul\":17705:17719   */\n      mstore\n        /* \"#utility.yul\":17749:17753   */\n      0x20\n        /* \"#utility.yul\":17746:17747   */\n      0x00\n        /* \"#utility.yul\":17736:17754   */\n      keccak256\n        /* \"#utility.yul\":17728:17754   */\n      swap1\n      pop\n        /* \"#utility.yul\":17617:17761   */\n      swap2\n      swap1\n      pop\n      jump\t// out\n        /* \"#utility.yul\":17789:18667   */\n    tag_241:\n        /* \"#utility.yul\":17894:17897   */\n      0x00\n        /* \"#utility.yul\":17931:17936   */\n      dup2\n        /* \"#utility.yul\":17925:17937   */\n      sload\n        /* \"#utility.yul\":17960:17996   */\n      tag_421\n        /* \"#utility.yul\":17986:17995   */\n      dup2\n        /* \"#utility.yul\":17960:17996   */\n      tag_99\n      jump\t// in\n    tag_421:\n        /* \"#utility.yul\":18012:18100   */\n      tag_422\n        /* \"#utility.yul\":18093:18099   */\n      dup2\n        /* \"#utility.yul\":18088:18091   */\n      dup7\n        /* \"#utility.yul\":18012:18100   */\n      tag_239\n      jump\t// in\n    tag_422:\n        /* \"#utility.yul\":18005:18100   */\n      swap5\n      pop\n        /* \"#utility.yul\":18131:18132   */\n      0x01\n        /* \"#utility.yul\":18120:18129   */\n      dup3\n        /* \"#utility.yul\":18116:18133   */\n      and\n        /* \"#utility.yul\":18147:18148   */\n      0x00\n        /* \"#utility.yul\":18142:18308   */\n      dup2\n      eq\n      tag_424\n      jumpi\n        /* \"#utility.yul\":18322:18323   */\n      0x01\n        /* \"#utility.yul\":18317:18661   */\n      dup2\n      eq\n      tag_425\n      jumpi\n        /* \"#utility.yul\":18109:18661   */\n      jump(tag_423)\n        /* \"#utility.yul\":18142:18308   */\n    tag_424:\n        /* \"#utility.yul\":18226:18230   */\n      0xff\n        /* \"#utility.yul\":18222:18231   */\n      not\n        /* \"#utility.yul\":18211:18220   */\n      dup4\n        /* \"#utility.yul\":18207:18232   */\n      and\n        /* \"#utility.yul\":18202:18205   */\n      dup7\n        /* \"#utility.yul\":18195:18233   */\n      mstore\n        /* \"#utility.yul\":18288:18294   */\n      dup2\n        /* \"#utility.yul\":18281:18295   */\n      iszero\n        /* \"#utility.yul\":18274:18296   */\n      iszero\n        /* \"#utility.yul\":18266:18272   */\n      dup3\n        /* \"#utility.yul\":18262:18297   */\n      mul\n        /* \"#utility.yul\":18257:18260   */\n      dup7\n        /* \"#utility.yul\":18253:18298   */\n      add\n        /* \"#utility.yul\":18246:18298   */\n      swap4\n      pop\n        /* \"#utility.yul\":18142:18308   */\n      jump(tag_423)\n        /* \"#utility.yul\":18317:18661   */\n    tag_425:\n        /* \"#utility.yul\":18384:18425   */\n      tag_426\n        /* \"#utility.yul\":18419:18424   */\n      dup6\n        /* \"#utility.yul\":18384:18425   */\n      tag_240\n      jump\t// in\n    tag_426:\n        /* \"#utility.yul\":18447:18448   */\n      0x00\n        /* \"#utility.yul\":18461:18615   */\n    tag_427:\n        /* \"#utility.yul\":18475:18481   */\n      dup4\n        /* \"#utility.yul\":18472:18473   */\n      dup2\n        /* \"#utility.yul\":18469:18482   */\n      lt\n        /* \"#utility.yul\":18461:18615   */\n      iszero\n      tag_429\n      jumpi\n        /* \"#utility.yul\":18549:18556   */\n      dup2\n        /* \"#utility.yul\":18543:18557   */\n      sload\n        /* \"#utility.yul\":18539:18540   */\n      dup2\n        /* \"#utility.yul\":18534:18537   */\n      dup10\n        /* \"#utility.yul\":18530:18541   */\n      add\n        /* \"#utility.yul\":18523:18558   */\n      mstore\n        /* \"#utility.yul\":18599:18600   */\n      0x01\n        /* \"#utility.yul\":18590:18597   */\n      dup3\n        /* \"#utility.yul\":18586:18601   */\n      add\n        /* \"#utility.yul\":18575:18601   */\n      swap2\n      pop\n        /* \"#utility.yul\":18497:18501   */\n      0x20\n        /* \"#utility.yul\":18494:18495   */\n      dup2\n        /* \"#utility.yul\":18490:18502   */\n      add\n        /* \"#utility.yul\":18485:18502   */\n      swap1\n      pop\n        /* \"#utility.yul\":18461:18615   */\n      jump(tag_427)\n    tag_429:\n        /* \"#utility.yul\":18644:18650   */\n      dup4\n        /* \"#utility.yul\":18639:18642   */\n      dup9\n        /* \"#utility.yul\":18635:18651   */\n      add\n        /* \"#utility.yul\":18628:18651   */\n      swap6\n      pop\n        /* \"#utility.yul\":18324:18661   */\n      pop\n      pop\n        /* \"#utility.yul\":18109:18661   */\n    tag_423:\n      pop\n        /* \"#utility.yul\":17898:18667   */\n      pop\n      pop\n        /* \"#utility.yul\":17789:18667   */\n      swap3\n      swap2\n      pop\n      pop\n      jump\t// out\n        /* \"#utility.yul\":18673:18946   */\n    tag_60:\n        /* \"#utility.yul\":18804:18807   */\n      0x00\n        /* \"#utility.yul\":18826:18920   */\n      tag_431\n        /* \"#utility.yul\":18916:18919   */\n      dup3\n        /* \"#utility.yul\":18907:18913   */\n      dup5\n        /* \"#utility.yul\":18826:18920   */\n      tag_241\n      jump\t// in\n    tag_431:\n        /* \"#utility.yul\":18819:18920   */\n      swap2\n      pop\n        /* \"#utility.yul\":18937:18940   */\n      dup2\n        /* \"#utility.yul\":18930:18940   */\n      swap1\n      pop\n        /* \"#utility.yul\":18673:18946   */\n      swap3\n      swap2\n      pop\n      pop\n      jump\t// out\n        /* \"#utility.yul\":18952:19132   */\n    tag_242:\n        /* \"#utility.yul\":19000:19077   */\n      0x4e487b7100000000000000000000000000000000000000000000000000000000\n        /* \"#utility.yul\":18997:18998   */\n      0x00\n        /* \"#utility.yul\":18990:19078   */\n      mstore\n        /* \"#utility.yul\":19097:19101   */\n      0x11\n        /* \"#utility.yul\":19094:19095   */\n      0x04\n        /* \"#utility.yul\":19087:19102   */\n      mstore\n        /* \"#utility.yul\":19121:19125   */\n      0x24\n        /* \"#utility.yul\":19118:19119   */\n      0x00\n        /* \"#utility.yul\":19111:19126   */\n      revert\n        /* \"#utility.yul\":19138:19371   */\n    tag_63:\n        /* \"#utility.yul\":19177:19180   */\n      0x00\n        /* \"#utility.yul\":19200:19224   */\n      tag_434\n        /* \"#utility.yul\":19218:19223   */\n      dup3\n        /* \"#utility.yul\":19200:19224   */\n      tag_194\n      jump\t// in\n    tag_434:\n        /* \"#utility.yul\":19191:19224   */\n      swap2\n      pop\n        /* \"#utility.yul\":19246:19312   */\n      0xffffffffffffffffffffffffffffffffffffffffffffffffffffffffffffffff\n        /* \"#utility.yul\":19239:19244   */\n      dup3\n        /* \"#utility.yul\":19236:19313   */\n      sub\n        /* \"#utility.yul\":19233:19336   */\n      tag_435\n      jumpi\n        /* \"#utility.yul\":19316:19334   */\n      tag_436\n      tag_242\n      jump\t// in\n    tag_436:\n        /* \"#utility.yul\":19233:19336   */\n    tag_435:\n        /* \"#utility.yul\":19363:19364   */\n      0x01\n        /* \"#utility.yul\":19356:19361   */\n      dup3\n        /* \"#utility.yul\":19352:19365   */\n      add\n        /* \"#utility.yul\":19345:19365   */\n      swap1\n      pop\n        /* \"#utility.yul\":19138:19371   */\n      swap2\n      swap1\n      pop\n      jump\t// out\n        /* \"#utility.yul\":19377:19568   */\n    tag_73:\n        /* \"#utility.yul\":19417:19420   */\n      0x00\n        /* \"#utility.yul\":19436:19456   */\n      tag_438\n        /* \"#utility.yul\":19454:19455   */\n      dup3\n        /* \"#utility.yul\":19436:19456   */\n      tag_194\n      jump\t// in\n    tag_438:\n        /* \"#utility.yul\":19431:19456   */\n      swap2\n      pop\n        /* \"#utility.yul\":19470:19490   */\n      tag_439\n        /* \"#utility.yul\":19488:19489   */\n      dup4\n        /* \"#utility.yul\":19470:19490   */\n      tag_194\n      jump\t// in\n    tag_439:\n        /* \"#utility.yul\":19465:19490   */\n      swap3\n      pop\n        /* \"#utility.yul\":19513:19514   */\n      dup3\n        /* \"#utility.yul\":19510:19511   */\n      dup3\n        /* \"#utility.yul\":19506:19515   */\n      add\n        /* \"#utility.yul\":19499:19515   */\n      swap1\n      pop\n        /* \"#utility.yul\":19534:19537   */\n      dup1\n        /* \"#utility.yul\":19531:19532   */\n      dup3\n        /* \"#utility.yul\":19528:19538   */\n      gt\n        /* \"#utility.yul\":19525:19561   */\n      iszero\n      tag_440\n      jumpi\n        /* \"#utility.yul\":19541:19559   */\n      tag_441\n      tag_242\n      jump\t// in\n    tag_441:\n        /* \"#utility.yul\":19525:19561   */\n    tag_440:\n        /* \"#utility.yul\":19377:19568   */\n      swap3\n      swap2\n      pop\n      pop\n      jump\t// out\n        /* \"#utility.yul\":19574:19754   */\n    tag_243:\n        /* \"#utility.yul\":19622:19699   */\n      0x4e487b7100000000000000000000000000000000000000000000000000000000\n        /* \"#utility.yul\":19619:19620   */\n      0x00\n        /* \"#utility.yul\":19612:19700   */\n      mstore\n        /* \"#utility.yul\":19719:19723   */\n      0x12\n        /* \"#utility.yul\":19716:19717   */\n      0x04\n        /* \"#utility.yul\":19709:19724   */\n      mstore\n        /* \"#utility.yul\":19743:19747   */\n      0x24\n        /* \"#utility.yul\":19740:19741   */\n      0x00\n        /* \"#utility.yul\":19733:19748   */\n      revert\n        /* \"#utility.yul\":19760:19945   */\n    tag_76:\n        /* \"#utility.yul\":19800:19801   */\n      0x00\n        /* \"#utility.yul\":19817:19837   */\n      tag_444\n        /* \"#utility.yul\":19835:19836   */\n      dup3\n        /* \"#utility.yul\":19817:19837   */\n      tag_194\n      jump\t// in\n    tag_444:\n        /* \"#utility.yul\":19812:19837   */\n      swap2\n      pop\n        /* \"#utility.yul\":19851:19871   */\n      tag_445\n        /* \"#utility.yul\":19869:19870   */\n      dup4\n        /* \"#utility.yul\":19851:19871   */\n      tag_194\n      jump\t// in\n    tag_445:\n        /* \"#utility.yul\":19846:19871   */\n      swap3\n      pop\n        /* \"#utility.yul\":19890:19891   */\n      dup3\n        /* \"#utility.yul\":19880:19915   */\n      tag_446\n      jumpi\n        /* \"#utility.yul\":19895:19913   */\n      tag_447\n      tag_243\n      jump\t// in\n    tag_447:\n        /* \"#utility.yul\":19880:19915   */\n    tag_446:\n        /* \"#utility.yul\":19937:19938   */\n      dup3\n        /* \"#utility.yul\":19934:19935   */\n      dup3\n        /* \"#utility.yul\":19930:19939   */\n      div\n        /* \"#utility.yul\":19925:19939   */\n      swap1\n      pop\n        /* \"#utility.yul\":19760:19945   */\n      swap3\n      swap2\n      pop\n      pop\n      jump\t// out\n        /* \"#utility.yul\":19951:20092   */\n    tag_244:\n        /* \"#utility.yul\":20000:20004   */\n      0x00\n        /* \"#utility.yul\":20023:20026   */\n      dup2\n        /* \"#utility.yul\":20015:20026   */\n      swap1\n      pop\n        /* \"#utility.yul\":20046:20049   */\n      dup2\n        /* \"#utility.yul\":20043:20044   */\n      0x00\n        /* \"#utility.yul\":20036:20050   */\n      mstore\n        /* \"#utility.yul\":20080:20084   */\n      0x20\n        /* \"#utility.yul\":20077:20078   */\n      0x00\n        /* \"#utility.yul\":20067:20085   */\n      keccak256\n        /* \"#utility.yul\":20059:20085   */\n      swap1\n      pop\n        /* \"#utility.yul\":19951:20092   */\n      swap2\n      swap1\n      pop\n      jump\t// out\n        /* \"#utility.yul\":20098:20191   */\n    tag_245:\n        /* \"#utility.yul\":20135:20141   */\n      0x00\n        /* \"#utility.yul\":20182:20184   */\n      0x20\n        /* \"#utility.yul\":20177:20179   */\n      0x1f\n        /* \"#utility.yul\":20170:20175   */\n      dup4\n        /* \"#utility.yul\":20166:20180   */\n      add\n        /* \"#utility.yul\":20162:20185   */\n      div\n        /* \"#utility.yul\":20152:20185   */\n      swap1\n      pop\n        /* \"#utility.yul\":20098:20191   */\n      swap2\n      swap1\n      pop\n      jump\t// out\n        /* \"#utility.yul\":20197:20304   */\n    tag_246:\n        /* \"#utility.yul\":20241:20249   */\n      0x00\n        /* \"#utility.yul\":20291:20296   */\n      dup3\n        /* \"#utility.yul\":20285:20289   */\n      dup3\n        /* \"#utility.yul\":20281:20297   */\n      shl\n        /* \"#utility.yul\":20260:20297   */\n      swap1\n      pop\n        /* \"#utility.yul\":20197:20304   */\n      swap3\n      swap2\n      pop\n      pop\n      jump\t// out\n        /* \"#utility.yul\":20310:20703   */\n    tag_247:\n        /* \"#utility.yul\":20379:20385   */\n      0x00\n        /* \"#utility.yul\":20429:20430   */\n      0x08\n        /* \"#utility.yul\":20417:20427   */\n      dup4\n        /* \"#utility.yul\":20413:20431   */\n      mul\n        /* \"#utility.yul\":20452:20549   */\n      tag_452\n        /* \"#utility.yul\":20482:20548   */\n      0xffffffffffffffffffffffffffffffffffffffffffffffffffffffffffffffff\n        /* \"#utility.yul\":20471:20480   */\n      dup3\n        /* \"#utility.yul\":20452:20549   */\n      tag_246\n      jump\t// in\n    tag_452:\n        /* \"#utility.yul\":20570:20609   */\n      tag_453\n        /* \"#utility.yul\":20600:20608   */\n      dup7\n        /* \"#utility.yul\":20589:20598   */\n      dup4\n        /* \"#utility.yul\":20570:20609   */\n      tag_246\n      jump\t// in\n    tag_453:\n        /* \"#utility.yul\":20558:20609   */\n      swap6\n      pop\n        /* \"#utility.yul\":20642:20646   */\n      dup1\n        /* \"#utility.yul\":20638:20647   */\n      not\n        /* \"#utility.yul\":20631:20636   */\n      dup5\n        /* \"#utility.yul\":20627:20648   */\n      and\n        /* \"#utility.yul\":20618:20648   */\n      swap4\n      pop\n        /* \"#utility.yul\":20691:20695   */\n      dup1\n        /* \"#utility.yul\":20681:20689   */\n      dup7\n        /* \"#utility.yul\":20677:20696   */\n      and\n        /* \"#utility.yul\":20670:20675   */\n      dup5\n        /* \"#utility.yul\":20667:20697   */\n      or\n        /* \"#utility.yul\":20657:20697   */\n      swap3\n      pop\n        /* \"#utility.yul\":20386:20703   */\n      pop\n      pop\n        /* \"#utility.yul\":20310:20703   */\n      swap4\n      swap3\n      pop\n      pop\n      pop\n      jump\t// out\n        /* \"#utility.yul\":20709:20769   */\n    tag_248:\n        /* \"#utility.yul\":20737:20740   */\n      0x00\n        /* \"#utility.yul\":20758:20763   */\n      dup2\n        /* \"#utility.yul\":20751:20763   */\n      swap1\n      pop\n        /* \"#utility.yul\":20709:20769   */\n      swap2\n      swap1\n      pop\n      jump\t// out\n        /* \"#utility.yul\":20775:20917   */\n    tag_249:\n        /* \"#utility.yul\":20825:20834   */\n      0x00\n        /* \"#utility.yul\":20858:20911   */\n      tag_456\n        /* \"#utility.yul\":20876:20910   */\n      tag_457\n        /* \"#utility.yul\":20885:20909   */\n      tag_458\n        /* \"#utility.yul\":20903:20908   */\n      dup5\n        /* \"#utility.yul\":20885:20909   */\n      tag_194\n      jump\t// in\n    tag_458:\n        /* \"#utility.yul\":20876:20910   */\n      tag_248\n      jump\t// in\n    tag_457:\n        /* \"#utility.yul\":20858:20911   */\n      tag_194\n      jump\t// in\n    tag_456:\n        /* \"#utility.yul\":20845:20911   */\n      swap1\n      pop\n        /* \"#utility.yul\":20775:20917   */\n      swap2\n      swap1\n      pop\n      jump\t// out\n        /* \"#utility.yul\":20923:20998   */\n    tag_250:\n        /* \"#utility.yul\":20966:20969   */\n      0x00\n        /* \"#utility.yul\":20987:20992   */\n      dup2\n        /* \"#utility.yul\":20980:20992   */\n      swap1\n      pop\n        /* \"#utility.yul\":20923:20998   */\n      swap2\n      swap1\n      pop\n      jump\t// out\n        /* \"#utility.yul\":21004:21273   */\n    tag_251:\n        /* \"#utility.yul\":21114:21153   */\n      tag_461\n        /* \"#utility.yul\":21145:21152   */\n      dup4\n        /* \"#utility.yul\":21114:21153   */\n      tag_249\n      jump\t// in\n    tag_461:\n        /* \"#utility.yul\":21175:21266   */\n      tag_462\n        /* \"#utility.yul\":21224:21265   */\n      tag_463\n        /* \"#utility.yul\":21248:21264   */\n      dup3\n        /* \"#utility.yul\":21224:21265   */\n      tag_250\n      jump\t// in\n    tag_463:\n        /* \"#utility.yul\":21216:21222   */\n      dup5\n        /* \"#utility.yul\":21209:21213   */\n      dup5\n        /* \"#utility.yul\":21203:21214   */\n      sload\n        /* \"#utility.yul\":21175:21266   */\n      tag_247\n      jump\t// in\n    tag_462:\n        /* \"#utility.yul\":21169:21173   */\n      dup3\n        /* \"#utility.yul\":21162:21267   */\n      sstore\n        /* \"#utility.yul\":21080:21273   */\n      pop\n        /* \"#utility.yul\":21004:21273   */\n      pop\n      pop\n      pop\n      jump\t// out\n        /* \"#utility.yul\":21279:21352   */\n    tag_252:\n        /* \"#utility.yul\":21324:21327   */\n      0x00\n        /* \"#utility.yul\":21279:21352   */\n      swap1\n      jump\t// out\n        /* \"#utility.yul\":21358:21547   */\n    tag_253:\n        /* \"#utility.yul\":21435:21467   */\n      tag_466\n      tag_252\n      jump\t// in\n    tag_466:\n        /* \"#utility.yul\":21476:21541   */\n      tag_467\n        /* \"#utility.yul\":21534:21540   */\n      dup2\n        /* \"#utility.yul\":21526:21532   */\n      dup5\n        /* \"#utility.yul\":21520:21524   */\n      dup5\n        /* \"#utility.yul\":21476:21541   */\n      tag_251\n      jump\t// in\n    tag_467:\n        /* \"#utility.yul\":21411:21547   */\n      pop\n        /* \"#utility.yul\":21358:21547   */\n      pop\n      pop\n      jump\t// out\n        /* \"#utility.yul\":21553:21739   */\n    tag_254:\n        /* \"#utility.yul\":21613:21733   */\n    tag_469:\n        /* \"#utility.yul\":21630:21633   */\n      dup2\n        /* \"#utility.yul\":21623:21628   */\n      dup2\n        /* \"#utility.yul\":21620:21634   */\n      lt\n        /* \"#utility.yul\":21613:21733   */\n      iszero\n      tag_471\n      jumpi\n        /* \"#utility.yul\":21684:21723   */\n      tag_472\n        /* \"#utility.yul\":21721:21722   */\n      0x00\n        /* \"#utility.yul\":21714:21719   */\n      dup3\n        /* \"#utility.yul\":21684:21723   */\n      tag_253\n      jump\t// in\n    tag_472:\n        /* \"#utility.yul\":21657:21658   */\n      0x01\n        /* \"#utility.yul\":21650:21655   */\n      dup2\n        /* \"#utility.yul\":21646:21659   */\n      add\n        /* \"#utility.yul\":21637:21659   */\n      swap1\n      pop\n        /* \"#utility.yul\":21613:21733   */\n      jump(tag_469)\n    tag_471:\n        /* \"#utility.yul\":21553:21739   */\n      pop\n      pop\n      jump\t// out\n        /* \"#utility.yul\":21745:22288   */\n    tag_255:\n        /* \"#utility.yul\":21846:21848   */\n      0x1f\n        /* \"#utility.yul\":21841:21844   */\n      dup3\n        /* \"#utility.yul\":21838:21849   */\n      gt\n        /* \"#utility.yul\":21835:22281   */\n      iszero\n      tag_474\n      jumpi\n        /* \"#utility.yul\":21880:21918   */\n      tag_475\n        /* \"#utility.yul\":21912:21917   */\n      dup2\n        /* \"#utility.yul\":21880:21918   */\n      tag_244\n      jump\t// in\n    tag_475:\n        /* \"#utility.yul\":21964:21993   */\n      tag_476\n        /* \"#utility.yul\":21982:21992   */\n      dup5\n        /* \"#utility.yul\":21964:21993   */\n      tag_245\n      jump\t// in\n    tag_476:\n        /* \"#utility.yul\":21954:21962   */\n      dup2\n        /* \"#utility.yul\":21950:21994   */\n      add\n        /* \"#utility.yul\":22147:22149   */\n      0x20\n        /* \"#utility.yul\":22135:22145   */\n      dup6\n        /* \"#utility.yul\":22132:22150   */\n      lt\n        /* \"#utility.yul\":22129:22178   */\n      iszero\n      tag_477\n      jumpi\n        /* \"#utility.yul\":22168:22176   */\n      dup2\n        /* \"#utility.yul\":22153:22176   */\n      swap1\n      pop\n        /* \"#utility.yul\":22129:22178   */\n    tag_477:\n        /* \"#utility.yul\":22191:22271   */\n      tag_478\n        /* \"#utility.yul\":22247:22269   */\n      tag_479\n        /* \"#utility.yul\":22265:22268   */\n      dup6\n        /* \"#utility.yul\":22247:22269   */\n      tag_245\n      jump\t// in\n    tag_479:\n        /* \"#utility.yul\":22237:22245   */\n      dup4\n        /* \"#utility.yul\":22233:22270   */\n      add\n        /* \"#utility.yul\":22220:22231   */\n      dup3\n        /* \"#utility.yul\":22191:22271   */\n      tag_254\n      jump\t// in\n    tag_478:\n        /* \"#utility.yul\":21850:22281   */\n      pop\n      pop\n        /* \"#utility.yul\":21835:22281   */\n    tag_474:\n        /* \"#utility.yul\":21745:22288   */\n      pop\n      pop\n      pop\n      jump\t// out\n        /* \"#utility.yul\":22294:22411   */\n    tag_256:\n        /* \"#utility.yul\":22348:22356   */\n      0x00\n        /* \"#utility.yul\":22398:22403   */\n      dup3\n        /* \"#utility.yul\":22392:22396   */\n      dup3\n        /* \"#utility.yul\":22388:22404   */\n      shr\n        /* \"#utility.yul\":22367:22404   */\n      swap1\n      pop\n        /* \"#utility.yul\":22294:22411   */\n      swap3\n      swap2\n      pop\n      pop\n      jump\t// out\n        /* \"#utility.yul\":22417:22586   */\n    tag_257:\n        /* \"#utility.yul\":22461:22467   */\n      0x00\n        /* \"#utility.yul\":22494:22545   */\n      tag_482\n        /* \"#utility.yul\":22542:22543   */\n      0x00\n        /* \"#utility.yul\":22538:22544   */\n      not\n        /* \"#utility.yul\":22530:22535   */\n      dup5\n        /* \"#utility.yul\":22527:22528   */\n      0x08\n        /* \"#utility.yul\":22523:22536   */\n      mul\n        /* \"#utility.yul\":22494:22545   */\n      tag_256\n      jump\t// in\n    tag_482:\n        /* \"#utility.yul\":22490:22546   */\n      not\n        /* \"#utility.yul\":22575:22579   */\n      dup1\n        /* \"#utility.yul\":22569:22573   */\n      dup4\n        /* \"#utility.yul\":22565:22580   */\n      and\n        /* \"#utility.yul\":22555:22580   */\n      swap2\n      pop\n        /* \"#utility.yul\":22468:22586   */\n      pop\n        /* \"#utility.yul\":22417:22586   */\n      swap3\n      swap2\n      pop\n      pop\n      jump\t// out\n        /* \"#utility.yul\":22591:22886   */\n    tag_258:\n        /* \"#utility.yul\":22667:22671   */\n      0x00\n        /* \"#utility.yul\":22813:22842   */\n      tag_484\n        /* \"#utility.yul\":22838:22841   */\n      dup4\n        /* \"#utility.yul\":22832:22836   */\n      dup4\n        /* \"#utility.yul\":22813:22842   */\n      tag_257\n      jump\t// in\n    tag_484:\n        /* \"#utility.yul\":22805:22842   */\n      swap2\n      pop\n        /* \"#utility.yul\":22875:22878   */\n      dup3\n        /* \"#utility.yul\":22872:22873   */\n      0x02\n        /* \"#utility.yul\":22868:22879   */\n      mul\n        /* \"#utility.yul\":22862:22866   */\n      dup3\n        /* \"#utility.yul\":22859:22880   */\n      or\n        /* \"#utility.yul\":22851:22880   */\n      swap1\n      pop\n        /* \"#utility.yul\":22591:22886   */\n      swap3\n      swap2\n      pop\n      pop\n      jump\t// out\n        /* \"#utility.yul\":22891:24286   */\n    tag_82:\n        /* \"#utility.yul\":23008:23045   */\n      tag_486\n        /* \"#utility.yul\":23041:23044   */\n      dup3\n        /* \"#utility.yul\":23008:23045   */\n      tag_215\n      jump\t// in\n    tag_486:\n        /* \"#utility.yul\":23110:23128   */\n      0xffffffffffffffff\n        /* \"#utility.yul\":23102:23108   */\n      dup2\n        /* \"#utility.yul\":23099:23129   */\n      gt\n        /* \"#utility.yul\":23096:23152   */\n      iszero\n      tag_487\n      jumpi\n        /* \"#utility.yul\":23132:23150   */\n      tag_488\n      tag_202\n      jump\t// in\n    tag_488:\n        /* \"#utility.yul\":23096:23152   */\n    tag_487:\n        /* \"#utility.yul\":23176:23214   */\n      tag_489\n        /* \"#utility.yul\":23208:23212   */\n      dup3\n        /* \"#utility.yul\":23202:23213   */\n      sload\n        /* \"#utility.yul\":23176:23214   */\n      tag_99\n      jump\t// in\n    tag_489:\n        /* \"#utility.yul\":23261:23328   */\n      tag_490\n        /* \"#utility.yul\":23321:23327   */\n      dup3\n        /* \"#utility.yul\":23313:23319   */\n      dup3\n        /* \"#utility.yul\":23307:23311   */\n      dup6\n        /* \"#utility.yul\":23261:23328   */\n      tag_255\n      jump\t// in\n    tag_490:\n        /* \"#utility.yul\":23355:23356   */\n      0x00\n        /* \"#utility.yul\":23379:23383   */\n      0x20\n        /* \"#utility.yul\":23366:23383   */\n      swap1\n      pop\n        /* \"#utility.yul\":23411:23413   */\n      0x1f\n        /* \"#utility.yul\":23403:23409   */\n      dup4\n        /* \"#utility.yul\":23400:23414   */\n      gt\n        /* \"#utility.yul\":23428:23429   */\n      0x01\n        /* \"#utility.yul\":23423:24041   */\n      dup2\n      eq\n      tag_492\n      jumpi\n        /* \"#utility.yul\":24085:24086   */\n      0x00\n        /* \"#utility.yul\":24102:24108   */\n      dup5\n        /* \"#utility.yul\":24099:24176   */\n      iszero\n      tag_493\n      jumpi\n        /* \"#utility.yul\":24151:24160   */\n      dup3\n        /* \"#utility.yul\":24146:24149   */\n      dup8\n        /* \"#utility.yul\":24142:24161   */\n      add\n        /* \"#utility.yul\":24136:24162   */\n      mload\n        /* \"#utility.yul\":24127:24162   */\n      swap1\n      pop\n        /* \"#utility.yul\":24099:24176   */\n    tag_493:\n        /* \"#utility.yul\":24202:24269   */\n      tag_494\n        /* \"#utility.yul\":24262:24268   */\n      dup6\n        /* \"#utility.yul\":24255:24260   */\n      dup3\n        /* \"#utility.yul\":24202:24269   */\n      tag_258\n      jump\t// in\n    tag_494:\n        /* \"#utility.yul\":24196:24200   */\n      dup7\n        /* \"#utility.yul\":24189:24270   */\n      sstore\n        /* \"#utility.yul\":24058:24280   */\n      pop\n        /* \"#utility.yul\":23393:24280   */\n      jump(tag_491)\n        /* \"#utility.yul\":23423:24041   */\n    tag_492:\n        /* \"#utility.yul\":23475:23479   */\n      0x1f\n        /* \"#utility.yul\":23471:23480   */\n      not\n        /* \"#utility.yul\":23463:23469   */\n      dup5\n        /* \"#utility.yul\":23459:23481   */\n      and\n        /* \"#utility.yul\":23509:23546   */\n      tag_495\n        /* \"#utility.yul\":23541:23545   */\n      dup7\n        /* \"#utility.yul\":23509:23546   */\n      tag_244\n      jump\t// in\n    tag_495:\n        /* \"#utility.yul\":23568:23569   */\n      0x00\n        /* \"#utility.yul\":23582:23790   */\n    tag_496:\n        /* \"#utility.yul\":23596:23603   */\n      dup3\n        /* \"#utility.yul\":23593:23594   */\n      dup2\n        /* \"#utility.yul\":23590:23604   */\n      lt\n        /* \"#utility.yul\":23582:23790   */\n      iszero\n      tag_498\n      jumpi\n        /* \"#utility.yul\":23675:23684   */\n      dup5\n        /* \"#utility.yul\":23670:23673   */\n      dup10\n        /* \"#utility.yul\":23666:23685   */\n      add\n        /* \"#utility.yul\":23660:23686   */\n      mload\n        /* \"#utility.yul\":23652:23658   */\n      dup3\n        /* \"#utility.yul\":23645:23687   */\n      sstore\n        /* \"#utility.yul\":23726:23727   */\n      0x01\n        /* \"#utility.yul\":23718:23724   */\n      dup3\n        /* \"#utility.yul\":23714:23728   */\n      add\n        /* \"#utility.yul\":23704:23728   */\n      swap2\n      pop\n        /* \"#utility.yul\":23773:23775   */\n      0x20\n        /* \"#utility.yul\":23762:23771   */\n      dup6\n        /* \"#utility.yul\":23758:23776   */\n      add\n        /* \"#utility.yul\":23745:23776   */\n      swap5\n      pop\n        /* \"#utility.yul\":23619:23623   */\n      0x20\n        /* \"#utility.yul\":23616:23617   */\n      dup2\n        /* \"#utility.yul\":23612:23624   */\n      add\n        /* \"#utility.yul\":23607:23624   */\n      swap1\n      pop\n        /* \"#utility.yul\":23582:23790   */\n      jump(tag_496)\n    tag_498:\n        /* \"#utility.yul\":23818:23824   */\n      dup7\n        /* \"#utility.yul\":23809:23816   */\n      dup4\n        /* \"#utility.yul\":23806:23825   */\n      lt\n        /* \"#utility.yul\":23803:23982   */\n      iszero\n      tag_499\n      jumpi\n        /* \"#utility.yul\":23876:23885   */\n      dup5\n        /* \"#utility.yul\":23871:23874   */\n      dup10\n        /* \"#utility.yul\":23867:23886   */\n      add\n        /* \"#utility.yul\":23861:23887   */\n      mload\n        /* \"#utility.yul\":23919:23967   */\n      tag_500\n        /* \"#utility.yul\":23961:23965   */\n      0x1f\n        /* \"#utility.yul\":23953:23959   */\n      dup10\n        /* \"#utility.yul\":23949:23966   */\n      and\n        /* \"#utility.yul\":23938:23947   */\n      dup3\n        /* \"#utility.yul\":23919:23967   */\n      tag_257\n      jump\t// in\n    tag_500:\n        /* \"#utility.yul\":23911:23917   */\n      dup4\n        /* \"#utility.yul\":23904:23968   */\n      sstore\n        /* \"#utility.yul\":23826:23982   */\n      pop\n        /* \"#utility.yul\":23803:23982   */\n    tag_499:\n        /* \"#utility.yul\":24028:24029   */\n      0x01\n        /* \"#utility.yul\":24024:24025   */\n      0x02\n        /* \"#utility.yul\":24016:24022   */\n      dup9\n        /* \"#utility.yul\":24012:24026   */\n      mul\n        /* \"#utility.yul\":24008:24030   */\n      add\n        /* \"#utility.yul\":24002:24006   */\n      dup9\n        /* \"#utility.yul\":23995:24031   */\n      sstore\n        /* \"#utility.yul\":23430:24041   */\n      pop\n      pop\n      pop\n        /* \"#utility.yul\":23393:24280   */\n    tag_491:\n      pop\n        /* \"#utility.yul\":22983:24286   */\n      pop\n      pop\n      pop\n        /* \"#utility.yul\":22891:24286   */\n      pop\n      pop\n      jump\t// out\n        /* \"#utility.yul\":24292:24440   */\n    tag_259:\n        /* \"#utility.yul\":24394:24405   */\n      0x00\n        /* \"#utility.yul\":24431:24434   */\n      dup2\n        /* \"#utility.yul\":24416:24434   */\n      swap1\n      pop\n        /* \"#utility.yul\":24292:24440   */\n      swap3\n      swap2\n      pop\n      pop\n      jump\t// out\n        /* \"#utility.yul\":24446:24836   */\n    tag_260:\n        /* \"#utility.yul\":24552:24555   */\n      0x00\n        /* \"#utility.yul\":24580:24619   */\n      tag_503\n        /* \"#utility.yul\":24613:24618   */\n      dup3\n        /* \"#utility.yul\":24580:24619   */\n      tag_215\n      jump\t// in\n    tag_503:\n        /* \"#utility.yul\":24635:24724   */\n      tag_504\n        /* \"#utility.yul\":24717:24723   */\n      dup2\n        /* \"#utility.yul\":24712:24715   */\n      dup6\n        /* \"#utility.yul\":24635:24724   */\n      tag_259\n      jump\t// in\n    tag_504:\n        /* \"#utility.yul\":24628:24724   */\n      swap4\n      pop\n        /* \"#utility.yul\":24733:24798   */\n      tag_505\n        /* \"#utility.yul\":24791:24797   */\n      dup2\n        /* \"#utility.yul\":24786:24789   */\n      dup6\n        /* \"#utility.yul\":24779:24783   */\n      0x20\n        /* \"#utility.yul\":24772:24777   */\n      dup7\n        /* \"#utility.yul\":24768:24784   */\n      add\n        /* \"#utility.yul\":24733:24798   */\n      tag_217\n      jump\t// in\n    tag_505:\n        /* \"#utility.yul\":24823:24829   */\n      dup1\n        /* \"#utility.yul\":24818:24821   */\n      dup5\n        /* \"#utility.yul\":24814:24830   */\n      add\n        /* \"#utility.yul\":24807:24830   */\n      swap2\n      pop\n        /* \"#utility.yul\":24556:24836   */\n      pop\n        /* \"#utility.yul\":24446:24836   */\n      swap3\n      swap2\n      pop\n      pop\n      jump\t// out\n        /* \"#utility.yul\":24842:25117   */\n    tag_89:\n        /* \"#utility.yul\":24974:24977   */\n      0x00\n        /* \"#utility.yul\":24996:25091   */\n      tag_507\n        /* \"#utility.yul\":25087:25090   */\n      dup3\n        /* \"#utility.yul\":25078:25084   */\n      dup5\n        /* \"#utility.yul\":24996:25091   */\n      tag_260\n      jump\t// in\n    tag_507:\n        /* \"#utility.yul\":24989:25091   */\n      swap2\n      pop\n        /* \"#utility.yul\":25108:25111   */\n      dup2\n        /* \"#utility.yul\":25101:25111   */\n      swap1\n      pop\n        /* \"#utility.yul\":24842:25117   */\n      swap3\n      swap2\n      pop\n      pop\n      jump\t// out\n        /* \"#utility.yul\":25123:25317   */\n    tag_124:\n        /* \"#utility.yul\":25163:25167   */\n      0x00\n        /* \"#utility.yul\":25183:25203   */\n      tag_509\n        /* \"#utility.yul\":25201:25202   */\n      dup3\n        /* \"#utility.yul\":25183:25203   */\n      tag_194\n      jump\t// in\n    tag_509:\n        /* \"#utility.yul\":25178:25203   */\n      swap2\n      pop\n        /* \"#utility.yul\":25217:25237   */\n      tag_510\n        /* \"#utility.yul\":25235:25236   */\n      dup4\n        /* \"#utility.yul\":25217:25237   */\n      tag_194\n      jump\t// in\n    tag_510:\n        /* \"#utility.yul\":25212:25237   */\n      swap3\n      pop\n        /* \"#utility.yul\":25261:25262   */\n      dup3\n        /* \"#utility.yul\":25258:25259   */\n      dup3\n        /* \"#utility.yul\":25254:25263   */\n      sub\n        /* \"#utility.yul\":25246:25263   */\n      swap1\n      pop\n        /* \"#utility.yul\":25285:25286   */\n      dup2\n        /* \"#utility.yul\":25279:25283   */\n      dup2\n        /* \"#utility.yul\":25276:25287   */\n      gt\n        /* \"#utility.yul\":25273:25310   */\n      iszero\n      tag_511\n      jumpi\n        /* \"#utility.yul\":25290:25308   */\n      tag_512\n      tag_242\n      jump\t// in\n    tag_512:\n        /* \"#utility.yul\":25273:25310   */\n    tag_511:\n        /* \"#utility.yul\":25123:25317   */\n      swap3\n      swap2\n      pop\n      pop\n      jump\t// out\n\n    auxdata: 0xa26469706673582212203390a80eea8a93f1ab1b72115151beaef7bc66a090d0ccf1d34255cdb8c876fc64736f6c63430008120033\n}\n",
				"bytecode": {
					"linkReferences": {},
					"object": "608060405234801561001057600080fd5b50611b5e806100206000396000f3fe608060405234801561001057600080fd5b50600436106100935760003560e01c806383b41ad81161006657806383b41ad81461010e578063a05ab6d01461013e578063a41f985e1461015c578063e9e309271461018c578063eac1d5b7146101aa57610093565b8063243e489614610098578063390b6a4c146100b657806374aa6858146100d45780637674f2d8146100f0575b600080fd5b6100a06101da565b6040516100ad9190610e47565b60405180910390f35b6100be610293565b6040516100cb9190610e47565b60405180910390f35b6100ee60048036038101906100e991906110ce565b610304565b005b6100f8610491565b6040516101059190610e47565b60405180910390f35b61012860048036038101906101239190611159565b61049d565b6040516101359190611376565b60405180910390f35b6101466106e6565b60405161015391906113b3565b60405180910390f35b610176600480360381019061017191906113ce565b610708565b6040516101839190611376565b60405180910390f35b610194610961565b6040516101a19190611541565b60405180910390f35b6101c460048036038101906101bf91906113ce565b610bd1565b6040516101d191906115ad565b60405180910390f35b60008060005b60008054905081101561028b576040518060400160405280600181526020017f4600000000000000000000000000000000000000000000000000000000000000815250805190602001206000828154811061023e5761023d6115cf565b5b906000526020600020906005020160030160405161025c9190611701565b60405180910390200361027857818061027490611747565b9250505b808061028390611747565b9150506101e0565b508091505090565b60008060005b6000805490508110156102ec57600081815481106102ba576102b96115cf565b5b906000526020600020906005020160020154826102d7919061178f565b915080806102e490611747565b915050610299565b50600080549050816102fe91906117f2565b91505090565b60006040518060a001604052808581526020016001600080549050610329919061178f565b815260200184815260200161033d85610bd1565b8152602001838152509080600181540180825580915050600190039060005260206000209060050201600090919091909150600082015181600001908161038491906119cf565b50602082015181600101556040820151816002015560608201518160030190816103ae91906119cf565b5060808201518160040190805190602001906103cb929190610d25565b5050506040518060a0016040528084815260200160016000805490506103f1919061178f565b815260200183815260200161040584610bd1565b81526020018281525060018460405161041e9190611add565b9081526020016040518091039020600082015181600001908161044191906119cf565b506020820151816001015560408201518160020155606082015181600301908161046b91906119cf565b506080820151816004019080519060200190610488929190610d25565b50905050505050565b60008080549050905090565b6104a5610d7e565b6001826040516104b59190611add565b90815260200160405180910390206040518060a00160405290816000820180546104de9061162d565b80601f016020809104026020016040519081016040528092919081815260200182805461050a9061162d565b80156105575780601f1061052c57610100808354040283529160200191610557565b820191906000526020600020905b81548152906001019060200180831161053a57829003601f168201915b5050505050815260200160018201548152602001600282015481526020016003820180546105849061162d565b80601f01602080910402602001604051908101604052809291908181526020018280546105b09061162d565b80156105fd5780601f106105d2576101008083540402835291602001916105fd565b820191906000526020600020905b8154815290600101906020018083116105e057829003601f168201915b5050505050815260200160048201805480602002602001604051908101604052809291908181526020016000905b828210156106d757838290600052602060002001805461064a9061162d565b80601f01602080910402602001604051908101604052809291908181526020018280546106769061162d565b80156106c35780601f10610698576101008083540402835291602001916106c3565b820191906000526020600020905b8154815290600101906020018083116106a657829003601f168201915b50505050508152602001906001019061062b565b50505050815250509050919050565b600060466106f2610293565b106107005760019050610705565b600090505b90565b610710610d7e565b600060018361071f9190611af4565b815481106107305761072f6115cf565b5b90600052602060002090600502016040518060a00160405290816000820180546107599061162d565b80601f01602080910402602001604051908101604052809291908181526020018280546107859061162d565b80156107d25780601f106107a7576101008083540402835291602001916107d2565b820191906000526020600020905b8154815290600101906020018083116107b557829003601f168201915b5050505050815260200160018201548152602001600282015481526020016003820180546107ff9061162d565b80601f016020809104026020016040519081016040528092919081815260200182805461082b9061162d565b80156108785780601f1061084d57610100808354040283529160200191610878565b820191906000526020600020905b81548152906001019060200180831161085b57829003601f168201915b5050505050815260200160048201805480602002602001604051908101604052809291908181526020016000905b828210156109525783829060005260206000200180546108c59061162d565b80601f01602080910402602001604051908101604052809291908181526020018280546108f19061162d565b801561093e5780601f106109135761010080835404028352916020019161093e565b820191906000526020600020905b81548152906001019060200180831161092157829003601f168201915b5050505050815260200190600101906108a6565b50505050815250509050919050565b60606000805480602002602001604051908101604052809291908181526020016000905b82821015610bc857838290600052602060002090600502016040518060a00160405290816000820180546109b89061162d565b80601f01602080910402602001604051908101604052809291908181526020018280546109e49061162d565b8015610a315780601f10610a0657610100808354040283529160200191610a31565b820191906000526020600020905b815481529060010190602001808311610a1457829003601f168201915b505050505081526020016001820154815260200160028201548152602001600382018054610a5e9061162d565b80601f0160208091040260200160405190810160405280929190818152602001828054610a8a9061162d565b8015610ad75780601f10610aac57610100808354040283529160200191610ad7565b820191906000526020600020905b815481529060010190602001808311610aba57829003601f168201915b5050505050815260200160048201805480602002602001604051908101604052809291908181526020016000905b82821015610bb1578382906000526020600020018054610b249061162d565b80601f0160208091040260200160405190810160405280929190818152602001828054610b509061162d565b8015610b9d5780601f10610b7257610100808354040283529160200191610b9d565b820191906000526020600020905b815481529060010190602001808311610b8057829003601f168201915b505050505081526020019060010190610b05565b505050508152505081526020019060010190610985565b50505050905090565b6060605a8210610c18576040518060400160405280600181526020017f41000000000000000000000000000000000000000000000000000000000000008152509050610d20565b60508210610c5d576040518060400160405280600181526020017f42000000000000000000000000000000000000000000000000000000000000008152509050610d20565b60468210610ca2576040518060400160405280600181526020017f43000000000000000000000000000000000000000000000000000000000000008152509050610d20565b603c8210610ce7576040518060400160405280600181526020017f44000000000000000000000000000000000000000000000000000000000000008152509050610d20565b6040518060400160405280600181526020017f460000000000000000000000000000000000000000000000000000000000000081525090505b919050565b828054828255906000526020600020908101928215610d6d579160200282015b82811115610d6c578251829081610d5c91906119cf565b5091602001919060010190610d45565b5b509050610d7a9190610dad565b5090565b6040518060a0016040528060608152602001600081526020016000815260200160608152602001606081525090565b5b80821115610dcd5760008181610dc49190610dd1565b50600101610dae565b5090565b508054610ddd9061162d565b6000825580601f10610def5750610e0e565b601f016020900490600052602060002090810190610e0d9190610e11565b5b50565b5b80821115610e2a576000816000905550600101610e12565b5090565b6000819050919050565b610e4181610e2e565b82525050565b6000602082019050610e5c6000830184610e38565b92915050565b6000604051905090565b600080fd5b600080fd5b600080fd5b600080fd5b6000601f19601f8301169050919050565b7f4e487b7100000000000000000000000000000000000000000000000000000000600052604160045260246000fd5b610ec982610e80565b810181811067ffffffffffffffff82111715610ee857610ee7610e91565b5b80604052505050565b6000610efb610e62565b9050610f078282610ec0565b919050565b600067ffffffffffffffff821115610f2757610f26610e91565b5b610f3082610e80565b9050602081019050919050565b82818337600083830152505050565b6000610f5f610f5a84610f0c565b610ef1565b905082815260208101848484011115610f7b57610f7a610e7b565b5b610f86848285610f3d565b509392505050565b600082601f830112610fa357610fa2610e76565b5b8135610fb3848260208601610f4c565b91505092915050565b610fc581610e2e565b8114610fd057600080fd5b50565b600081359050610fe281610fbc565b92915050565b600067ffffffffffffffff82111561100357611002610e91565b5b602082029050602081019050919050565b600080fd5b600061102c61102784610fe8565b610ef1565b9050808382526020820190506020840283018581111561104f5761104e611014565b5b835b8181101561109657803567ffffffffffffffff81111561107457611073610e76565b5b8086016110818982610f8e565b85526020850194505050602081019050611051565b5050509392505050565b600082601f8301126110b5576110b4610e76565b5b81356110c5848260208601611019565b91505092915050565b6000806000606084860312156110e7576110e6610e6c565b5b600084013567ffffffffffffffff81111561110557611104610e71565b5b61111186828701610f8e565b935050602061112286828701610fd3565b925050604084013567ffffffffffffffff81111561114357611142610e71565b5b61114f868287016110a0565b9150509250925092565b60006020828403121561116f5761116e610e6c565b5b600082013567ffffffffffffffff81111561118d5761118c610e71565b5b61119984828501610f8e565b91505092915050565b600081519050919050565b600082825260208201905092915050565b60005b838110156111dc5780820151818401526020810190506111c1565b60008484015250505050565b60006111f3826111a2565b6111fd81856111ad565b935061120d8185602086016111be565b61121681610e80565b840191505092915050565b61122a81610e2e565b82525050565b600081519050919050565b600082825260208201905092915050565b6000819050602082019050919050565b600061126883836111e8565b905092915050565b6000602082019050919050565b600061128882611230565b611292818561123b565b9350836020820285016112a48561124c565b8060005b858110156112e057848403895281516112c1858261125c565b94506112cc83611270565b925060208a019950506001810190506112a8565b50829750879550505050505092915050565b600060a083016000830151848203600086015261130f82826111e8565b91505060208301516113246020860182611221565b5060408301516113376040860182611221565b506060830151848203606086015261134f82826111e8565b91505060808301518482036080860152611369828261127d565b9150508091505092915050565b6000602082019050818103600083015261139081846112f2565b905092915050565b60008115159050919050565b6113ad81611398565b82525050565b60006020820190506113c860008301846113a4565b92915050565b6000602082840312156113e4576113e3610e6c565b5b60006113f284828501610fd3565b91505092915050565b600081519050919050565b600082825260208201905092915050565b6000819050602082019050919050565b600060a083016000830151848203600086015261144482826111e8565b91505060208301516114596020860182611221565b50604083015161146c6040860182611221565b506060830151848203606086015261148482826111e8565b9150506080830151848203608086015261149e828261127d565b9150508091505092915050565b60006114b78383611427565b905092915050565b6000602082019050919050565b60006114d7826113fb565b6114e18185611406565b9350836020820285016114f385611417565b8060005b8581101561152f578484038952815161151085826114ab565b945061151b836114bf565b925060208a019950506001810190506114f7565b50829750879550505050505092915050565b6000602082019050818103600083015261155b81846114cc565b905092915050565b600082825260208201905092915050565b600061157f826111a2565b6115898185611563565b93506115998185602086016111be565b6115a281610e80565b840191505092915050565b600060208201905081810360008301526115c78184611574565b905092915050565b7f4e487b7100000000000000000000000000000000000000000000000000000000600052603260045260246000fd5b7f4e487b7100000000000000000000000000000000000000000000000000000000600052602260045260246000fd5b6000600282049050600182168061164557607f821691505b602082108103611658576116576115fe565b5b50919050565b600081905092915050565b60008190508160005260206000209050919050565b6000815461168b8161162d565b611695818661165e565b945060018216600081146116b057600181146116c5576116f8565b60ff19831686528115158202860193506116f8565b6116ce85611669565b60005b838110156116f0578154818901526001820191506020810190506116d1565b838801955050505b50505092915050565b600061170d828461167e565b915081905092915050565b7f4e487b7100000000000000000000000000000000000000000000000000000000600052601160045260246000fd5b600061175282610e2e565b91507fffffffffffffffffffffffffffffffffffffffffffffffffffffffffffffffff820361178457611783611718565b5b600182019050919050565b600061179a82610e2e565b91506117a583610e2e565b92508282019050808211156117bd576117bc611718565b5b92915050565b7f4e487b7100000000000000000000000000000000000000000000000000000000600052601260045260246000fd5b60006117fd82610e2e565b915061180883610e2e565b925082611818576118176117c3565b5b828204905092915050565b60008190508160005260206000209050919050565b60006020601f8301049050919050565b600082821b905092915050565b6000600883026118857fffffffffffffffffffffffffffffffffffffffffffffffffffffffffffffffff82611848565b61188f8683611848565b95508019841693508086168417925050509392505050565b6000819050919050565b60006118cc6118c76118c284610e2e565b6118a7565b610e2e565b9050919050565b6000819050919050565b6118e6836118b1565b6118fa6118f2826118d3565b848454611855565b825550505050565b600090565b61190f611902565b61191a8184846118dd565b505050565b5b8181101561193e57611933600082611907565b600181019050611920565b5050565b601f8211156119835761195481611823565b61195d84611838565b8101602085101561196c578190505b61198061197885611838565b83018261191f565b50505b505050565b600082821c905092915050565b60006119a660001984600802611988565b1980831691505092915050565b60006119bf8383611995565b9150826002028217905092915050565b6119d8826111a2565b67ffffffffffffffff8111156119f1576119f0610e91565b5b6119fb825461162d565b611a06828285611942565b600060209050601f831160018114611a395760008415611a27578287015190505b611a3185826119b3565b865550611a99565b601f198416611a4786611823565b60005b82811015611a6f57848901518255600182019150602085019450602081019050611a4a565b86831015611a8c5784890151611a88601f891682611995565b8355505b6001600288020188555050505b505050505050565b600081905092915050565b6000611ab7826111a2565b611ac18185611aa1565b9350611ad18185602086016111be565b80840191505092915050565b6000611ae98284611aac565b915081905092915050565b6000611aff82610e2e565b9150611b0a83610e2e565b9250828203905081811115611b2257611b21611718565b5b9291505056fea26469706673582212203390a80eea8a93f1ab1b72115151beaef7bc66a090d0ccf1d34255cdb8c876fc64736f6c63430008120033",
					"opcodes": "PUSH1 0x80 PUSH1 0x40 MSTORE CALLVALUE DUP1 ISZERO PUSH2 0x10 JUMPI PUSH1 0x0 DUP1 REVERT JUMPDEST POP PUSH2 0x1B5E DUP1 PUSH2 0x20 PUSH1 0x0 CODECOPY PUSH1 0x0 RETURN INVALID PUSH1 0x80 PUSH1 0x40 MSTORE CALLVALUE DUP1 ISZERO PUSH2 0x10 JUMPI PUSH1 0x0 DUP1 REVERT JUMPDEST POP PUSH1 0x4 CALLDATASIZE LT PUSH2 0x93 JUMPI PUSH1 0x0 CALLDATALOAD PUSH1 0xE0 SHR DUP1 PUSH4 0x83B41AD8 GT PUSH2 0x66 JUMPI DUP1 PUSH4 0x83B41AD8 EQ PUSH2 0x10E JUMPI DUP1 PUSH4 0xA05AB6D0 EQ PUSH2 0x13E JUMPI DUP1 PUSH4 0xA41F985E EQ PUSH2 0x15C JUMPI DUP1 PUSH4 0xE9E30927 EQ PUSH2 0x18C JUMPI DUP1 PUSH4 0xEAC1D5B7 EQ PUSH2 0x1AA JUMPI PUSH2 0x93 JUMP JUMPDEST DUP1 PUSH4 0x243E4896 EQ PUSH2 0x98 JUMPI DUP1 PUSH4 0x390B6A4C EQ PUSH2 0xB6 JUMPI DUP1 PUSH4 0x74AA6858 EQ PUSH2 0xD4 JUMPI DUP1 PUSH4 0x7674F2D8 EQ PUSH2 0xF0 JUMPI JUMPDEST PUSH1 0x0 DUP1 REVERT JUMPDEST PUSH2 0xA0 PUSH2 0x1DA JUMP JUMPDEST PUSH1 0x40 MLOAD PUSH2 0xAD SWAP2 SWAP1 PUSH2 0xE47 JUMP JUMPDEST PUSH1 0x40 MLOAD DUP1 SWAP2 SUB SWAP1 RETURN JUMPDEST PUSH2 0xBE PUSH2 0x293 JUMP JUMPDEST PUSH1 0x40 MLOAD PUSH2 0xCB SWAP2 SWAP1 PUSH2 0xE47 JUMP JUMPDEST PUSH1 0x40 MLOAD DUP1 SWAP2 SUB SWAP1 RETURN JUMPDEST PUSH2 0xEE PUSH1 0x4 DUP1 CALLDATASIZE SUB DUP2 ADD SWAP1 PUSH2 0xE9 SWAP2 SWAP1 PUSH2 0x10CE JUMP JUMPDEST PUSH2 0x304 JUMP JUMPDEST STOP JUMPDEST PUSH2 0xF8 PUSH2 0x491 JUMP JUMPDEST PUSH1 0x40 MLOAD PUSH2 0x105 SWAP2 SWAP1 PUSH2 0xE47 JUMP JUMPDEST PUSH1 0x40 MLOAD DUP1 SWAP2 SUB SWAP1 RETURN JUMPDEST PUSH2 0x128 PUSH1 0x4 DUP1 CALLDATASIZE SUB DUP2 ADD SWAP1 PUSH2 0x123 SWAP2 SWAP1 PUSH2 0x1159 JUMP JUMPDEST PUSH2 0x49D JUMP JUMPDEST PUSH1 0x40 MLOAD PUSH2 0x135 SWAP2 SWAP1 PUSH2 0x1376 JUMP JUMPDEST PUSH1 0x40 MLOAD DUP1 SWAP2 SUB SWAP1 RETURN JUMPDEST PUSH2 0x146 PUSH2 0x6E6 JUMP JUMPDEST PUSH1 0x40 MLOAD PUSH2 0x153 SWAP2 SWAP1 PUSH2 0x13B3 JUMP JUMPDEST PUSH1 0x40 MLOAD DUP1 SWAP2 SUB SWAP1 RETURN JUMPDEST PUSH2 0x176 PUSH1 0x4 DUP1 CALLDATASIZE SUB DUP2 ADD SWAP1 PUSH2 0x171 SWAP2 SWAP1 PUSH2 0x13CE JUMP JUMPDEST PUSH2 0x708 JUMP JUMPDEST PUSH1 0x40 MLOAD PUSH2 0x183 SWAP2 SWAP1 PUSH2 0x1376 JUMP JUMPDEST PUSH1 0x40 MLOAD DUP1 SWAP2 SUB SWAP1 RETURN JUMPDEST PUSH2 0x194 PUSH2 0x961 JUMP JUMPDEST PUSH1 0x40 MLOAD PUSH2 0x1A1 SWAP2 SWAP1 PUSH2 0x1541 JUMP JUMPDEST PUSH1 0x40 MLOAD DUP1 SWAP2 SUB SWAP1 RETURN JUMPDEST PUSH2 0x1C4 PUSH1 0x4 DUP1 CALLDATASIZE SUB DUP2 ADD SWAP1 PUSH2 0x1BF SWAP2 SWAP1 PUSH2 0x13CE JUMP JUMPDEST PUSH2 0xBD1 JUMP JUMPDEST PUSH1 0x40 MLOAD PUSH2 0x1D1 SWAP2 SWAP1 PUSH2 0x15AD JUMP JUMPDEST PUSH1 0x40 MLOAD DUP1 SWAP2 SUB SWAP1 RETURN JUMPDEST PUSH1 0x0 DUP1 PUSH1 0x0 JUMPDEST PUSH1 0x0 DUP1 SLOAD SWAP1 POP DUP2 LT ISZERO PUSH2 0x28B JUMPI PUSH1 0x40 MLOAD DUP1 PUSH1 0x40 ADD PUSH1 0x40 MSTORE DUP1 PUSH1 0x1 DUP2 MSTORE PUSH1 0x20 ADD PUSH32 0x4600000000000000000000000000000000000000000000000000000000000000 DUP2 MSTORE POP DUP1 MLOAD SWAP1 PUSH1 0x20 ADD KECCAK256 PUSH1 0x0 DUP3 DUP2 SLOAD DUP2 LT PUSH2 0x23E JUMPI PUSH2 0x23D PUSH2 0x15CF JUMP JUMPDEST JUMPDEST SWAP1 PUSH1 0x0 MSTORE PUSH1 0x20 PUSH1 0x0 KECCAK256 SWAP1 PUSH1 0x5 MUL ADD PUSH1 0x3 ADD PUSH1 0x40 MLOAD PUSH2 0x25C SWAP2 SWAP1 PUSH2 0x1701 JUMP JUMPDEST PUSH1 0x40 MLOAD DUP1 SWAP2 SUB SWAP1 KECCAK256 SUB PUSH2 0x278 JUMPI DUP2 DUP1 PUSH2 0x274 SWAP1 PUSH2 0x1747 JUMP JUMPDEST SWAP3 POP POP JUMPDEST DUP1 DUP1 PUSH2 0x283 SWAP1 PUSH2 0x1747 JUMP JUMPDEST SWAP2 POP POP PUSH2 0x1E0 JUMP JUMPDEST POP DUP1 SWAP2 POP POP SWAP1 JUMP JUMPDEST PUSH1 0x0 DUP1 PUSH1 0x0 JUMPDEST PUSH1 0x0 DUP1 SLOAD SWAP1 POP DUP2 LT ISZERO PUSH2 0x2EC JUMPI PUSH1 0x0 DUP2 DUP2 SLOAD DUP2 LT PUSH2 0x2BA JUMPI PUSH2 0x2B9 PUSH2 0x15CF JUMP JUMPDEST JUMPDEST SWAP1 PUSH1 0x0 MSTORE PUSH1 0x20 PUSH1 0x0 KECCAK256 SWAP1 PUSH1 0x5 MUL ADD PUSH1 0x2 ADD SLOAD DUP3 PUSH2 0x2D7 SWAP2 SWAP1 PUSH2 0x178F JUMP JUMPDEST SWAP2 POP DUP1 DUP1 PUSH2 0x2E4 SWAP1 PUSH2 0x1747 JUMP JUMPDEST SWAP2 POP POP PUSH2 0x299 JUMP JUMPDEST POP PUSH1 0x0 DUP1 SLOAD SWAP1 POP DUP2 PUSH2 0x2FE SWAP2 SWAP1 PUSH2 0x17F2 JUMP JUMPDEST SWAP2 POP POP SWAP1 JUMP JUMPDEST PUSH1 0x0 PUSH1 0x40 MLOAD DUP1 PUSH1 0xA0 ADD PUSH1 0x40 MSTORE DUP1 DUP6 DUP2 MSTORE PUSH1 0x20 ADD PUSH1 0x1 PUSH1 0x0 DUP1 SLOAD SWAP1 POP PUSH2 0x329 SWAP2 SWAP1 PUSH2 0x178F JUMP JUMPDEST DUP2 MSTORE PUSH1 0x20 ADD DUP5 DUP2 MSTORE PUSH1 0x20 ADD PUSH2 0x33D DUP6 PUSH2 0xBD1 JUMP JUMPDEST DUP2 MSTORE PUSH1 0x20 ADD DUP4 DUP2 MSTORE POP SWAP1 DUP1 PUSH1 0x1 DUP2 SLOAD ADD DUP1 DUP3 SSTORE DUP1 SWAP2 POP POP PUSH1 0x1 SWAP1 SUB SWAP1 PUSH1 0x0 MSTORE PUSH1 0x20 PUSH1 0x0 KECCAK256 SWAP1 PUSH1 0x5 MUL ADD PUSH1 0x0 SWAP1 SWAP2 SWAP1 SWAP2 SWAP1 SWAP2 POP PUSH1 0x0 DUP3 ADD MLOAD DUP2 PUSH1 0x0 ADD SWAP1 DUP2 PUSH2 0x384 SWAP2 SWAP1 PUSH2 0x19CF JUMP JUMPDEST POP PUSH1 0x20 DUP3 ADD MLOAD DUP2 PUSH1 0x1 ADD SSTORE PUSH1 0x40 DUP3 ADD MLOAD DUP2 PUSH1 0x2 ADD SSTORE PUSH1 0x60 DUP3 ADD MLOAD DUP2 PUSH1 0x3 ADD SWAP1 DUP2 PUSH2 0x3AE SWAP2 SWAP1 PUSH2 0x19CF JUMP JUMPDEST POP PUSH1 0x80 DUP3 ADD MLOAD DUP2 PUSH1 0x4 ADD SWAP1 DUP1 MLOAD SWAP1 PUSH1 0x20 ADD SWAP1 PUSH2 0x3CB SWAP3 SWAP2 SWAP1 PUSH2 0xD25 JUMP JUMPDEST POP POP POP PUSH1 0x40 MLOAD DUP1 PUSH1 0xA0 ADD PUSH1 0x40 MSTORE DUP1 DUP5 DUP2 MSTORE PUSH1 0x20 ADD PUSH1 0x1 PUSH1 0x0 DUP1 SLOAD SWAP1 POP PUSH2 0x3F1 SWAP2 SWAP1 PUSH2 0x178F JUMP JUMPDEST DUP2 MSTORE PUSH1 0x20 ADD DUP4 DUP2 MSTORE PUSH1 0x20 ADD PUSH2 0x405 DUP5 PUSH2 0xBD1 JUMP JUMPDEST DUP2 MSTORE PUSH1 0x20 ADD DUP3 DUP2 MSTORE POP PUSH1 0x1 DUP5 PUSH1 0x40 MLOAD PUSH2 0x41E SWAP2 SWAP1 PUSH2 0x1ADD JUMP JUMPDEST SWAP1 DUP2 MSTORE PUSH1 0x20 ADD PUSH1 0x40 MLOAD DUP1 SWAP2 SUB SWAP1 KECCAK256 PUSH1 0x0 DUP3 ADD MLOAD DUP2 PUSH1 0x0 ADD SWAP1 DUP2 PUSH2 0x441 SWAP2 SWAP1 PUSH2 0x19CF JUMP JUMPDEST POP PUSH1 0x20 DUP3 ADD MLOAD DUP2 PUSH1 0x1 ADD SSTORE PUSH1 0x40 DUP3 ADD MLOAD DUP2 PUSH1 0x2 ADD SSTORE PUSH1 0x60 DUP3 ADD MLOAD DUP2 PUSH1 0x3 ADD SWAP1 DUP2 PUSH2 0x46B SWAP2 SWAP1 PUSH2 0x19CF JUMP JUMPDEST POP PUSH1 0x80 DUP3 ADD MLOAD DUP2 PUSH1 0x4 ADD SWAP1 DUP1 MLOAD SWAP1 PUSH1 0x20 ADD SWAP1 PUSH2 0x488 SWAP3 SWAP2 SWAP1 PUSH2 0xD25 JUMP JUMPDEST POP SWAP1 POP POP POP POP POP JUMP JUMPDEST PUSH1 0x0 DUP1 DUP1 SLOAD SWAP1 POP SWAP1 POP SWAP1 JUMP JUMPDEST PUSH2 0x4A5 PUSH2 0xD7E JUMP JUMPDEST PUSH1 0x1 DUP3 PUSH1 0x40 MLOAD PUSH2 0x4B5 SWAP2 SWAP1 PUSH2 0x1ADD JUMP JUMPDEST SWAP1 DUP2 MSTORE PUSH1 0x20 ADD PUSH1 0x40 MLOAD DUP1 SWAP2 SUB SWAP1 KECCAK256 PUSH1 0x40 MLOAD DUP1 PUSH1 0xA0 ADD PUSH1 0x40 MSTORE SWAP1 DUP2 PUSH1 0x0 DUP3 ADD DUP1 SLOAD PUSH2 0x4DE SWAP1 PUSH2 0x162D JUMP JUMPDEST DUP1 PUSH1 0x1F ADD PUSH1 0x20 DUP1 SWAP2 DIV MUL PUSH1 0x20 ADD PUSH1 0x40 MLOAD SWAP1 DUP2 ADD PUSH1 0x40 MSTORE DUP1 SWAP3 SWAP2 SWAP1 DUP2 DUP2 MSTORE PUSH1 0x20 ADD DUP3 DUP1 SLOAD PUSH2 0x50A SWAP1 PUSH2 0x162D JUMP JUMPDEST DUP1 ISZERO PUSH2 0x557 JUMPI DUP1 PUSH1 0x1F LT PUSH2 0x52C JUMPI PUSH2 0x100 DUP1 DUP4 SLOAD DIV MUL DUP4 MSTORE SWAP2 PUSH1 0x20 ADD SWAP2 PUSH2 0x557 JUMP JUMPDEST DUP3 ADD SWAP2 SWAP1 PUSH1 0x0 MSTORE PUSH1 0x20 PUSH1 0x0 KECCAK256 SWAP1 JUMPDEST DUP2 SLOAD DUP2 MSTORE SWAP1 PUSH1 0x1 ADD SWAP1 PUSH1 0x20 ADD DUP1 DUP4 GT PUSH2 0x53A JUMPI DUP3 SWAP1 SUB PUSH1 0x1F AND DUP3 ADD SWAP2 JUMPDEST POP POP POP POP POP DUP2 MSTORE PUSH1 0x20 ADD PUSH1 0x1 DUP3 ADD SLOAD DUP2 MSTORE PUSH1 0x20 ADD PUSH1 0x2 DUP3 ADD SLOAD DUP2 MSTORE PUSH1 0x20 ADD PUSH1 0x3 DUP3 ADD DUP1 SLOAD PUSH2 0x584 SWAP1 PUSH2 0x162D JUMP JUMPDEST DUP1 PUSH1 0x1F ADD PUSH1 0x20 DUP1 SWAP2 DIV MUL PUSH1 0x20 ADD PUSH1 0x40 MLOAD SWAP1 DUP2 ADD PUSH1 0x40 MSTORE DUP1 SWAP3 SWAP2 SWAP1 DUP2 DUP2 MSTORE PUSH1 0x20 ADD DUP3 DUP1 SLOAD PUSH2 0x5B0 SWAP1 PUSH2 0x162D JUMP JUMPDEST DUP1 ISZERO PUSH2 0x5FD JUMPI DUP1 PUSH1 0x1F LT PUSH2 0x5D2 JUMPI PUSH2 0x100 DUP1 DUP4 SLOAD DIV MUL DUP4 MSTORE SWAP2 PUSH1 0x20 ADD SWAP2 PUSH2 0x5FD JUMP JUMPDEST DUP3 ADD SWAP2 SWAP1 PUSH1 0x0 MSTORE PUSH1 0x20 PUSH1 0x0 KECCAK256 SWAP1 JUMPDEST DUP2 SLOAD DUP2 MSTORE SWAP1 PUSH1 0x1 ADD SWAP1 PUSH1 0x20 ADD DUP1 DUP4 GT PUSH2 0x5E0 JUMPI DUP3 SWAP1 SUB PUSH1 0x1F AND DUP3 ADD SWAP2 JUMPDEST POP POP POP POP POP DUP2 MSTORE PUSH1 0x20 ADD PUSH1 0x4 DUP3 ADD DUP1 SLOAD DUP1 PUSH1 0x20 MUL PUSH1 0x20 ADD PUSH1 0x40 MLOAD SWAP1 DUP2 ADD PUSH1 0x40 MSTORE DUP1 SWAP3 SWAP2 SWAP1 DUP2 DUP2 MSTORE PUSH1 0x20 ADD PUSH1 0x0 SWAP1 JUMPDEST DUP3 DUP3 LT ISZERO PUSH2 0x6D7 JUMPI DUP4 DUP3 SWAP1 PUSH1 0x0 MSTORE PUSH1 0x20 PUSH1 0x0 KECCAK256 ADD DUP1 SLOAD PUSH2 0x64A SWAP1 PUSH2 0x162D JUMP JUMPDEST DUP1 PUSH1 0x1F ADD PUSH1 0x20 DUP1 SWAP2 DIV MUL PUSH1 0x20 ADD PUSH1 0x40 MLOAD SWAP1 DUP2 ADD PUSH1 0x40 MSTORE DUP1 SWAP3 SWAP2 SWAP1 DUP2 DUP2 MSTORE PUSH1 0x20 ADD DUP3 DUP1 SLOAD PUSH2 0x676 SWAP1 PUSH2 0x162D JUMP JUMPDEST DUP1 ISZERO PUSH2 0x6C3 JUMPI DUP1 PUSH1 0x1F LT PUSH2 0x698 JUMPI PUSH2 0x100 DUP1 DUP4 SLOAD DIV MUL DUP4 MSTORE SWAP2 PUSH1 0x20 ADD SWAP2 PUSH2 0x6C3 JUMP JUMPDEST DUP3 ADD SWAP2 SWAP1 PUSH1 0x0 MSTORE PUSH1 0x20 PUSH1 0x0 KECCAK256 SWAP1 JUMPDEST DUP2 SLOAD DUP2 MSTORE SWAP1 PUSH1 0x1 ADD SWAP1 PUSH1 0x20 ADD DUP1 DUP4 GT PUSH2 0x6A6 JUMPI DUP3 SWAP1 SUB PUSH1 0x1F AND DUP3 ADD SWAP2 JUMPDEST POP POP POP POP POP DUP2 MSTORE PUSH1 0x20 ADD SWAP1 PUSH1 0x1 ADD SWAP1 PUSH2 0x62B JUMP JUMPDEST POP POP POP POP DUP2 MSTORE POP POP SWAP1 POP SWAP2 SWAP1 POP JUMP JUMPDEST PUSH1 0x0 PUSH1 0x46 PUSH2 0x6F2 PUSH2 0x293 JUMP JUMPDEST LT PUSH2 0x700 JUMPI PUSH1 0x1 SWAP1 POP PUSH2 0x705 JUMP JUMPDEST PUSH1 0x0 SWAP1 POP JUMPDEST SWAP1 JUMP JUMPDEST PUSH2 0x710 PUSH2 0xD7E JUMP JUMPDEST PUSH1 0x0 PUSH1 0x1 DUP4 PUSH2 0x71F SWAP2 SWAP1 PUSH2 0x1AF4 JUMP JUMPDEST DUP2 SLOAD DUP2 LT PUSH2 0x730 JUMPI PUSH2 0x72F PUSH2 0x15CF JUMP JUMPDEST JUMPDEST SWAP1 PUSH1 0x0 MSTORE PUSH1 0x20 PUSH1 0x0 KECCAK256 SWAP1 PUSH1 0x5 MUL ADD PUSH1 0x40 MLOAD DUP1 PUSH1 0xA0 ADD PUSH1 0x40 MSTORE SWAP1 DUP2 PUSH1 0x0 DUP3 ADD DUP1 SLOAD PUSH2 0x759 SWAP1 PUSH2 0x162D JUMP JUMPDEST DUP1 PUSH1 0x1F ADD PUSH1 0x20 DUP1 SWAP2 DIV MUL PUSH1 0x20 ADD PUSH1 0x40 MLOAD SWAP1 DUP2 ADD PUSH1 0x40 MSTORE DUP1 SWAP3 SWAP2 SWAP1 DUP2 DUP2 MSTORE PUSH1 0x20 ADD DUP3 DUP1 SLOAD PUSH2 0x785 SWAP1 PUSH2 0x162D JUMP JUMPDEST DUP1 ISZERO PUSH2 0x7D2 JUMPI DUP1 PUSH1 0x1F LT PUSH2 0x7A7 JUMPI PUSH2 0x100 DUP1 DUP4 SLOAD DIV MUL DUP4 MSTORE SWAP2 PUSH1 0x20 ADD SWAP2 PUSH2 0x7D2 JUMP JUMPDEST DUP3 ADD SWAP2 SWAP1 PUSH1 0x0 MSTORE PUSH1 0x20 PUSH1 0x0 KECCAK256 SWAP1 JUMPDEST DUP2 SLOAD DUP2 MSTORE SWAP1 PUSH1 0x1 ADD SWAP1 PUSH1 0x20 ADD DUP1 DUP4 GT PUSH2 0x7B5 JUMPI DUP3 SWAP1 SUB PUSH1 0x1F AND DUP3 ADD SWAP2 JUMPDEST POP POP POP POP POP DUP2 MSTORE PUSH1 0x20 ADD PUSH1 0x1 DUP3 ADD SLOAD DUP2 MSTORE PUSH1 0x20 ADD PUSH1 0x2 DUP3 ADD SLOAD DUP2 MSTORE PUSH1 0x20 ADD PUSH1 0x3 DUP3 ADD DUP1 SLOAD PUSH2 0x7FF SWAP1 PUSH2 0x162D JUMP JUMPDEST DUP1 PUSH1 0x1F ADD PUSH1 0x20 DUP1 SWAP2 DIV MUL PUSH1 0x20 ADD PUSH1 0x40 MLOAD SWAP1 DUP2 ADD PUSH1 0x40 MSTORE DUP1 SWAP3 SWAP2 SWAP1 DUP2 DUP2 MSTORE PUSH1 0x20 ADD DUP3 DUP1 SLOAD PUSH2 0x82B SWAP1 PUSH2 0x162D JUMP JUMPDEST DUP1 ISZERO PUSH2 0x878 JUMPI DUP1 PUSH1 0x1F LT PUSH2 0x84D JUMPI PUSH2 0x100 DUP1 DUP4 SLOAD DIV MUL DUP4 MSTORE SWAP2 PUSH1 0x20 ADD SWAP2 PUSH2 0x878 JUMP JUMPDEST DUP3 ADD SWAP2 SWAP1 PUSH1 0x0 MSTORE PUSH1 0x20 PUSH1 0x0 KECCAK256 SWAP1 JUMPDEST DUP2 SLOAD DUP2 MSTORE SWAP1 PUSH1 0x1 ADD SWAP1 PUSH1 0x20 ADD DUP1 DUP4 GT PUSH2 0x85B JUMPI DUP3 SWAP1 SUB PUSH1 0x1F AND DUP3 ADD SWAP2 JUMPDEST POP POP POP POP POP DUP2 MSTORE PUSH1 0x20 ADD PUSH1 0x4 DUP3 ADD DUP1 SLOAD DUP1 PUSH1 0x20 MUL PUSH1 0x20 ADD PUSH1 0x40 MLOAD SWAP1 DUP2 ADD PUSH1 0x40 MSTORE DUP1 SWAP3 SWAP2 SWAP1 DUP2 DUP2 MSTORE PUSH1 0x20 ADD PUSH1 0x0 SWAP1 JUMPDEST DUP3 DUP3 LT ISZERO PUSH2 0x952 JUMPI DUP4 DUP3 SWAP1 PUSH1 0x0 MSTORE PUSH1 0x20 PUSH1 0x0 KECCAK256 ADD DUP1 SLOAD PUSH2 0x8C5 SWAP1 PUSH2 0x162D JUMP JUMPDEST DUP1 PUSH1 0x1F ADD PUSH1 0x20 DUP1 SWAP2 DIV MUL PUSH1 0x20 ADD PUSH1 0x40 MLOAD SWAP1 DUP2 ADD PUSH1 0x40 MSTORE DUP1 SWAP3 SWAP2 SWAP1 DUP2 DUP2 MSTORE PUSH1 0x20 ADD DUP3 DUP1 SLOAD PUSH2 0x8F1 SWAP1 PUSH2 0x162D JUMP JUMPDEST DUP1 ISZERO PUSH2 0x93E JUMPI DUP1 PUSH1 0x1F LT PUSH2 0x913 JUMPI PUSH2 0x100 DUP1 DUP4 SLOAD DIV MUL DUP4 MSTORE SWAP2 PUSH1 0x20 ADD SWAP2 PUSH2 0x93E JUMP JUMPDEST DUP3 ADD SWAP2 SWAP1 PUSH1 0x0 MSTORE PUSH1 0x20 PUSH1 0x0 KECCAK256 SWAP1 JUMPDEST DUP2 SLOAD DUP2 MSTORE SWAP1 PUSH1 0x1 ADD SWAP1 PUSH1 0x20 ADD DUP1 DUP4 GT PUSH2 0x921 JUMPI DUP3 SWAP1 SUB PUSH1 0x1F AND DUP3 ADD SWAP2 JUMPDEST POP POP POP POP POP DUP2 MSTORE PUSH1 0x20 ADD SWAP1 PUSH1 0x1 ADD SWAP1 PUSH2 0x8A6 JUMP JUMPDEST POP POP POP POP DUP2 MSTORE POP POP SWAP1 POP SWAP2 SWAP1 POP JUMP JUMPDEST PUSH1 0x60 PUSH1 0x0 DUP1 SLOAD DUP1 PUSH1 0x20 MUL PUSH1 0x20 ADD PUSH1 0x40 MLOAD SWAP1 DUP2 ADD PUSH1 0x40 MSTORE DUP1 SWAP3 SWAP2 SWAP1 DUP2 DUP2 MSTORE PUSH1 0x20 ADD PUSH1 0x0 SWAP1 JUMPDEST DUP3 DUP3 LT ISZERO PUSH2 0xBC8 JUMPI DUP4 DUP3 SWAP1 PUSH1 0x0 MSTORE PUSH1 0x20 PUSH1 0x0 KECCAK256 SWAP1 PUSH1 0x5 MUL ADD PUSH1 0x40 MLOAD DUP1 PUSH1 0xA0 ADD PUSH1 0x40 MSTORE SWAP1 DUP2 PUSH1 0x0 DUP3 ADD DUP1 SLOAD PUSH2 0x9B8 SWAP1 PUSH2 0x162D JUMP JUMPDEST DUP1 PUSH1 0x1F ADD PUSH1 0x20 DUP1 SWAP2 DIV MUL PUSH1 0x20 ADD PUSH1 0x40 MLOAD SWAP1 DUP2 ADD PUSH1 0x40 MSTORE DUP1 SWAP3 SWAP2 SWAP1 DUP2 DUP2 MSTORE PUSH1 0x20 ADD DUP3 DUP1 SLOAD PUSH2 0x9E4 SWAP1 PUSH2 0x162D JUMP JUMPDEST DUP1 ISZERO PUSH2 0xA31 JUMPI DUP1 PUSH1 0x1F LT PUSH2 0xA06 JUMPI PUSH2 0x100 DUP1 DUP4 SLOAD DIV MUL DUP4 MSTORE SWAP2 PUSH1 0x20 ADD SWAP2 PUSH2 0xA31 JUMP JUMPDEST DUP3 ADD SWAP2 SWAP1 PUSH1 0x0 MSTORE PUSH1 0x20 PUSH1 0x0 KECCAK256 SWAP1 JUMPDEST DUP2 SLOAD DUP2 MSTORE SWAP1 PUSH1 0x1 ADD SWAP1 PUSH1 0x20 ADD DUP1 DUP4 GT PUSH2 0xA14 JUMPI DUP3 SWAP1 SUB PUSH1 0x1F AND DUP3 ADD SWAP2 JUMPDEST POP POP POP POP POP DUP2 MSTORE PUSH1 0x20 ADD PUSH1 0x1 DUP3 ADD SLOAD DUP2 MSTORE PUSH1 0x20 ADD PUSH1 0x2 DUP3 ADD SLOAD DUP2 MSTORE PUSH1 0x20 ADD PUSH1 0x3 DUP3 ADD DUP1 SLOAD PUSH2 0xA5E SWAP1 PUSH2 0x162D JUMP JUMPDEST DUP1 PUSH1 0x1F ADD PUSH1 0x20 DUP1 SWAP2 DIV MUL PUSH1 0x20 ADD PUSH1 0x40 MLOAD SWAP1 DUP2 ADD PUSH1 0x40 MSTORE DUP1 SWAP3 SWAP2 SWAP1 DUP2 DUP2 MSTORE PUSH1 0x20 ADD DUP3 DUP1 SLOAD PUSH2 0xA8A SWAP1 PUSH2 0x162D JUMP JUMPDEST DUP1 ISZERO PUSH2 0xAD7 JUMPI DUP1 PUSH1 0x1F LT PUSH2 0xAAC JUMPI PUSH2 0x100 DUP1 DUP4 SLOAD DIV MUL DUP4 MSTORE SWAP2 PUSH1 0x20 ADD SWAP2 PUSH2 0xAD7 JUMP JUMPDEST DUP3 ADD SWAP2 SWAP1 PUSH1 0x0 MSTORE PUSH1 0x20 PUSH1 0x0 KECCAK256 SWAP1 JUMPDEST DUP2 SLOAD DUP2 MSTORE SWAP1 PUSH1 0x1 ADD SWAP1 PUSH1 0x20 ADD DUP1 DUP4 GT PUSH2 0xABA JUMPI DUP3 SWAP1 SUB PUSH1 0x1F AND DUP3 ADD SWAP2 JUMPDEST POP POP POP POP POP DUP2 MSTORE PUSH1 0x20 ADD PUSH1 0x4 DUP3 ADD DUP1 SLOAD DUP1 PUSH1 0x20 MUL PUSH1 0x20 ADD PUSH1 0x40 MLOAD SWAP1 DUP2 ADD PUSH1 0x40 MSTORE DUP1 SWAP3 SWAP2 SWAP1 DUP2 DUP2 MSTORE PUSH1 0x20 ADD PUSH1 0x0 SWAP1 JUMPDEST DUP3 DUP3 LT ISZERO PUSH2 0xBB1 JUMPI DUP4 DUP3 SWAP1 PUSH1 0x0 MSTORE PUSH1 0x20 PUSH1 0x0 KECCAK256 ADD DUP1 SLOAD PUSH2 0xB24 SWAP1 PUSH2 0x162D JUMP JUMPDEST DUP1 PUSH1 0x1F ADD PUSH1 0x20 DUP1 SWAP2 DIV MUL PUSH1 0x20 ADD PUSH1 0x40 MLOAD SWAP1 DUP2 ADD PUSH1 0x40 MSTORE DUP1 SWAP3 SWAP2 SWAP1 DUP2 DUP2 MSTORE PUSH1 0x20 ADD DUP3 DUP1 SLOAD PUSH2 0xB50 SWAP1 PUSH2 0x162D JUMP JUMPDEST DUP1 ISZERO PUSH2 0xB9D JUMPI DUP1 PUSH1 0x1F LT PUSH2 0xB72 JUMPI PUSH2 0x100 DUP1 DUP4 SLOAD DIV MUL DUP4 MSTORE SWAP2 PUSH1 0x20 ADD SWAP2 PUSH2 0xB9D JUMP JUMPDEST DUP3 ADD SWAP2 SWAP1 PUSH1 0x0 MSTORE PUSH1 0x20 PUSH1 0x0 KECCAK256 SWAP1 JUMPDEST DUP2 SLOAD DUP2 MSTORE SWAP1 PUSH1 0x1 ADD SWAP1 PUSH1 0x20 ADD DUP1 DUP4 GT PUSH2 0xB80 JUMPI DUP3 SWAP1 SUB PUSH1 0x1F AND DUP3 ADD SWAP2 JUMPDEST POP POP POP POP POP DUP2 MSTORE PUSH1 0x20 ADD SWAP1 PUSH1 0x1 ADD SWAP1 PUSH2 0xB05 JUMP JUMPDEST POP POP POP POP DUP2 MSTORE POP POP DUP2 MSTORE PUSH1 0x20 ADD SWAP1 PUSH1 0x1 ADD SWAP1 PUSH2 0x985 JUMP JUMPDEST POP POP POP POP SWAP1 POP SWAP1 JUMP JUMPDEST PUSH1 0x60 PUSH1 0x5A DUP3 LT PUSH2 0xC18 JUMPI PUSH1 0x40 MLOAD DUP1 PUSH1 0x40 ADD PUSH1 0x40 MSTORE DUP1 PUSH1 0x1 DUP2 MSTORE PUSH1 0x20 ADD PUSH32 0x4100000000000000000000000000000000000000000000000000000000000000 DUP2 MSTORE POP SWAP1 POP PUSH2 0xD20 JUMP JUMPDEST PUSH1 0x50 DUP3 LT PUSH2 0xC5D JUMPI PUSH1 0x40 MLOAD DUP1 PUSH1 0x40 ADD PUSH1 0x40 MSTORE DUP1 PUSH1 0x1 DUP2 MSTORE PUSH1 0x20 ADD PUSH32 0x4200000000000000000000000000000000000000000000000000000000000000 DUP2 MSTORE POP SWAP1 POP PUSH2 0xD20 JUMP JUMPDEST PUSH1 0x46 DUP3 LT PUSH2 0xCA2 JUMPI PUSH1 0x40 MLOAD DUP1 PUSH1 0x40 ADD PUSH1 0x40 MSTORE DUP1 PUSH1 0x1 DUP2 MSTORE PUSH1 0x20 ADD PUSH32 0x4300000000000000000000000000000000000000000000000000000000000000 DUP2 MSTORE POP SWAP1 POP PUSH2 0xD20 JUMP JUMPDEST PUSH1 0x3C DUP3 LT PUSH2 0xCE7 JUMPI PUSH1 0x40 MLOAD DUP1 PUSH1 0x40 ADD PUSH1 0x40 MSTORE DUP1 PUSH1 0x1 DUP2 MSTORE PUSH1 0x20 ADD PUSH32 0x4400000000000000000000000000000000000000000000000000000000000000 DUP2 MSTORE POP SWAP1 POP PUSH2 0xD20 JUMP JUMPDEST PUSH1 0x40 MLOAD DUP1 PUSH1 0x40 ADD PUSH1 0x40 MSTORE DUP1 PUSH1 0x1 DUP2 MSTORE PUSH1 0x20 ADD PUSH32 0x4600000000000000000000000000000000000000000000000000000000000000 DUP2 MSTORE POP SWAP1 POP JUMPDEST SWAP2 SWAP1 POP JUMP JUMPDEST DUP3 DUP1 SLOAD DUP3 DUP3 SSTORE SWAP1 PUSH1 0x0 MSTORE PUSH1 0x20 PUSH1 0x0 KECCAK256 SWAP1 DUP2 ADD SWAP3 DUP3 ISZERO PUSH2 0xD6D JUMPI SWAP2 PUSH1 0x20 MUL DUP3 ADD JUMPDEST DUP3 DUP2 GT ISZERO PUSH2 0xD6C JUMPI DUP3 MLOAD DUP3 SWAP1 DUP2 PUSH2 0xD5C SWAP2 SWAP1 PUSH2 0x19CF JUMP JUMPDEST POP SWAP2 PUSH1 0x20 ADD SWAP2 SWAP1 PUSH1 0x1 ADD SWAP1 PUSH2 0xD45 JUMP JUMPDEST JUMPDEST POP SWAP1 POP PUSH2 0xD7A SWAP2 SWAP1 PUSH2 0xDAD JUMP JUMPDEST POP SWAP1 JUMP JUMPDEST PUSH1 0x40 MLOAD DUP1 PUSH1 0xA0 ADD PUSH1 0x40 MSTORE DUP1 PUSH1 0x60 DUP2 MSTORE PUSH1 0x20 ADD PUSH1 0x0 DUP2 MSTORE PUSH1 0x20 ADD PUSH1 0x0 DUP2 MSTORE PUSH1 0x20 ADD PUSH1 0x60 DUP2 MSTORE PUSH1 0x20 ADD PUSH1 0x60 DUP2 MSTORE POP SWAP1 JUMP JUMPDEST JUMPDEST DUP1 DUP3 GT ISZERO PUSH2 0xDCD JUMPI PUSH1 0x0 DUP2 DUP2 PUSH2 0xDC4 SWAP2 SWAP1 PUSH2 0xDD1 JUMP JUMPDEST POP PUSH1 0x1 ADD PUSH2 0xDAE JUMP JUMPDEST POP SWAP1 JUMP JUMPDEST POP DUP1 SLOAD PUSH2 0xDDD SWAP1 PUSH2 0x162D JUMP JUMPDEST PUSH1 0x0 DUP3 SSTORE DUP1 PUSH1 0x1F LT PUSH2 0xDEF JUMPI POP PUSH2 0xE0E JUMP JUMPDEST PUSH1 0x1F ADD PUSH1 0x20 SWAP1 DIV SWAP1 PUSH1 0x0 MSTORE PUSH1 0x20 PUSH1 0x0 KECCAK256 SWAP1 DUP2 ADD SWAP1 PUSH2 0xE0D SWAP2 SWAP1 PUSH2 0xE11 JUMP JUMPDEST JUMPDEST POP JUMP JUMPDEST JUMPDEST DUP1 DUP3 GT ISZERO PUSH2 0xE2A JUMPI PUSH1 0x0 DUP2 PUSH1 0x0 SWAP1 SSTORE POP PUSH1 0x1 ADD PUSH2 0xE12 JUMP JUMPDEST POP SWAP1 JUMP JUMPDEST PUSH1 0x0 DUP2 SWAP1 POP SWAP2 SWAP1 POP JUMP JUMPDEST PUSH2 0xE41 DUP2 PUSH2 0xE2E JUMP JUMPDEST DUP3 MSTORE POP POP JUMP JUMPDEST PUSH1 0x0 PUSH1 0x20 DUP3 ADD SWAP1 POP PUSH2 0xE5C PUSH1 0x0 DUP4 ADD DUP5 PUSH2 0xE38 JUMP JUMPDEST SWAP3 SWAP2 POP POP JUMP JUMPDEST PUSH1 0x0 PUSH1 0x40 MLOAD SWAP1 POP SWAP1 JUMP JUMPDEST PUSH1 0x0 DUP1 REVERT JUMPDEST PUSH1 0x0 DUP1 REVERT JUMPDEST PUSH1 0x0 DUP1 REVERT JUMPDEST PUSH1 0x0 DUP1 REVERT JUMPDEST PUSH1 0x0 PUSH1 0x1F NOT PUSH1 0x1F DUP4 ADD AND SWAP1 POP SWAP2 SWAP1 POP JUMP JUMPDEST PUSH32 0x4E487B7100000000000000000000000000000000000000000000000000000000 PUSH1 0x0 MSTORE PUSH1 0x41 PUSH1 0x4 MSTORE PUSH1 0x24 PUSH1 0x0 REVERT JUMPDEST PUSH2 0xEC9 DUP3 PUSH2 0xE80 JUMP JUMPDEST DUP2 ADD DUP2 DUP2 LT PUSH8 0xFFFFFFFFFFFFFFFF DUP3 GT OR ISZERO PUSH2 0xEE8 JUMPI PUSH2 0xEE7 PUSH2 0xE91 JUMP JUMPDEST JUMPDEST DUP1 PUSH1 0x40 MSTORE POP POP POP JUMP JUMPDEST PUSH1 0x0 PUSH2 0xEFB PUSH2 0xE62 JUMP JUMPDEST SWAP1 POP PUSH2 0xF07 DUP3 DUP3 PUSH2 0xEC0 JUMP JUMPDEST SWAP2 SWAP1 POP JUMP JUMPDEST PUSH1 0x0 PUSH8 0xFFFFFFFFFFFFFFFF DUP3 GT ISZERO PUSH2 0xF27 JUMPI PUSH2 0xF26 PUSH2 0xE91 JUMP JUMPDEST JUMPDEST PUSH2 0xF30 DUP3 PUSH2 0xE80 JUMP JUMPDEST SWAP1 POP PUSH1 0x20 DUP2 ADD SWAP1 POP SWAP2 SWAP1 POP JUMP JUMPDEST DUP3 DUP2 DUP4 CALLDATACOPY PUSH1 0x0 DUP4 DUP4 ADD MSTORE POP POP POP JUMP JUMPDEST PUSH1 0x0 PUSH2 0xF5F PUSH2 0xF5A DUP5 PUSH2 0xF0C JUMP JUMPDEST PUSH2 0xEF1 JUMP JUMPDEST SWAP1 POP DUP3 DUP2 MSTORE PUSH1 0x20 DUP2 ADD DUP5 DUP5 DUP5 ADD GT ISZERO PUSH2 0xF7B JUMPI PUSH2 0xF7A PUSH2 0xE7B JUMP JUMPDEST JUMPDEST PUSH2 0xF86 DUP5 DUP3 DUP6 PUSH2 0xF3D JUMP JUMPDEST POP SWAP4 SWAP3 POP POP POP JUMP JUMPDEST PUSH1 0x0 DUP3 PUSH1 0x1F DUP4 ADD SLT PUSH2 0xFA3 JUMPI PUSH2 0xFA2 PUSH2 0xE76 JUMP JUMPDEST JUMPDEST DUP2 CALLDATALOAD PUSH2 0xFB3 DUP5 DUP3 PUSH1 0x20 DUP7 ADD PUSH2 0xF4C JUMP JUMPDEST SWAP2 POP POP SWAP3 SWAP2 POP POP JUMP JUMPDEST PUSH2 0xFC5 DUP2 PUSH2 0xE2E JUMP JUMPDEST DUP2 EQ PUSH2 0xFD0 JUMPI PUSH1 0x0 DUP1 REVERT JUMPDEST POP JUMP JUMPDEST PUSH1 0x0 DUP2 CALLDATALOAD SWAP1 POP PUSH2 0xFE2 DUP2 PUSH2 0xFBC JUMP JUMPDEST SWAP3 SWAP2 POP POP JUMP JUMPDEST PUSH1 0x0 PUSH8 0xFFFFFFFFFFFFFFFF DUP3 GT ISZERO PUSH2 0x1003 JUMPI PUSH2 0x1002 PUSH2 0xE91 JUMP JUMPDEST JUMPDEST PUSH1 0x20 DUP3 MUL SWAP1 POP PUSH1 0x20 DUP2 ADD SWAP1 POP SWAP2 SWAP1 POP JUMP JUMPDEST PUSH1 0x0 DUP1 REVERT JUMPDEST PUSH1 0x0 PUSH2 0x102C PUSH2 0x1027 DUP5 PUSH2 0xFE8 JUMP JUMPDEST PUSH2 0xEF1 JUMP JUMPDEST SWAP1 POP DUP1 DUP4 DUP3 MSTORE PUSH1 0x20 DUP3 ADD SWAP1 POP PUSH1 0x20 DUP5 MUL DUP4 ADD DUP6 DUP2 GT ISZERO PUSH2 0x104F JUMPI PUSH2 0x104E PUSH2 0x1014 JUMP JUMPDEST JUMPDEST DUP4 JUMPDEST DUP2 DUP2 LT ISZERO PUSH2 0x1096 JUMPI DUP1 CALLDATALOAD PUSH8 0xFFFFFFFFFFFFFFFF DUP2 GT ISZERO PUSH2 0x1074 JUMPI PUSH2 0x1073 PUSH2 0xE76 JUMP JUMPDEST JUMPDEST DUP1 DUP7 ADD PUSH2 0x1081 DUP10 DUP3 PUSH2 0xF8E JUMP JUMPDEST DUP6 MSTORE PUSH1 0x20 DUP6 ADD SWAP5 POP POP POP PUSH1 0x20 DUP2 ADD SWAP1 POP PUSH2 0x1051 JUMP JUMPDEST POP POP POP SWAP4 SWAP3 POP POP POP JUMP JUMPDEST PUSH1 0x0 DUP3 PUSH1 0x1F DUP4 ADD SLT PUSH2 0x10B5 JUMPI PUSH2 0x10B4 PUSH2 0xE76 JUMP JUMPDEST JUMPDEST DUP2 CALLDATALOAD PUSH2 0x10C5 DUP5 DUP3 PUSH1 0x20 DUP7 ADD PUSH2 0x1019 JUMP JUMPDEST SWAP2 POP POP SWAP3 SWAP2 POP POP JUMP JUMPDEST PUSH1 0x0 DUP1 PUSH1 0x0 PUSH1 0x60 DUP5 DUP7 SUB SLT ISZERO PUSH2 0x10E7 JUMPI PUSH2 0x10E6 PUSH2 0xE6C JUMP JUMPDEST JUMPDEST PUSH1 0x0 DUP5 ADD CALLDATALOAD PUSH8 0xFFFFFFFFFFFFFFFF DUP2 GT ISZERO PUSH2 0x1105 JUMPI PUSH2 0x1104 PUSH2 0xE71 JUMP JUMPDEST JUMPDEST PUSH2 0x1111 DUP7 DUP3 DUP8 ADD PUSH2 0xF8E JUMP JUMPDEST SWAP4 POP POP PUSH1 0x20 PUSH2 0x1122 DUP7 DUP3 DUP8 ADD PUSH2 0xFD3 JUMP JUMPDEST SWAP3 POP POP PUSH1 0x40 DUP5 ADD CALLDATALOAD PUSH8 0xFFFFFFFFFFFFFFFF DUP2 GT ISZERO PUSH2 0x1143 JUMPI PUSH2 0x1142 PUSH2 0xE71 JUMP JUMPDEST JUMPDEST PUSH2 0x114F DUP7 DUP3 DUP8 ADD PUSH2 0x10A0 JUMP JUMPDEST SWAP2 POP POP SWAP3 POP SWAP3 POP SWAP3 JUMP JUMPDEST PUSH1 0x0 PUSH1 0x20 DUP3 DUP5 SUB SLT ISZERO PUSH2 0x116F JUMPI PUSH2 0x116E PUSH2 0xE6C JUMP JUMPDEST JUMPDEST PUSH1 0x0 DUP3 ADD CALLDATALOAD PUSH8 0xFFFFFFFFFFFFFFFF DUP2 GT ISZERO PUSH2 0x118D JUMPI PUSH2 0x118C PUSH2 0xE71 JUMP JUMPDEST JUMPDEST PUSH2 0x1199 DUP5 DUP3 DUP6 ADD PUSH2 0xF8E JUMP JUMPDEST SWAP2 POP POP SWAP3 SWAP2 POP POP JUMP JUMPDEST PUSH1 0x0 DUP2 MLOAD SWAP1 POP SWAP2 SWAP1 POP JUMP JUMPDEST PUSH1 0x0 DUP3 DUP3 MSTORE PUSH1 0x20 DUP3 ADD SWAP1 POP SWAP3 SWAP2 POP POP JUMP JUMPDEST PUSH1 0x0 JUMPDEST DUP4 DUP2 LT ISZERO PUSH2 0x11DC JUMPI DUP1 DUP3 ADD MLOAD DUP2 DUP5 ADD MSTORE PUSH1 0x20 DUP2 ADD SWAP1 POP PUSH2 0x11C1 JUMP JUMPDEST PUSH1 0x0 DUP5 DUP5 ADD MSTORE POP POP POP POP JUMP JUMPDEST PUSH1 0x0 PUSH2 0x11F3 DUP3 PUSH2 0x11A2 JUMP JUMPDEST PUSH2 0x11FD DUP2 DUP6 PUSH2 0x11AD JUMP JUMPDEST SWAP4 POP PUSH2 0x120D DUP2 DUP6 PUSH1 0x20 DUP7 ADD PUSH2 0x11BE JUMP JUMPDEST PUSH2 0x1216 DUP2 PUSH2 0xE80 JUMP JUMPDEST DUP5 ADD SWAP2 POP POP SWAP3 SWAP2 POP POP JUMP JUMPDEST PUSH2 0x122A DUP2 PUSH2 0xE2E JUMP JUMPDEST DUP3 MSTORE POP POP JUMP JUMPDEST PUSH1 0x0 DUP2 MLOAD SWAP1 POP SWAP2 SWAP1 POP JUMP JUMPDEST PUSH1 0x0 DUP3 DUP3 MSTORE PUSH1 0x20 DUP3 ADD SWAP1 POP SWAP3 SWAP2 POP POP JUMP JUMPDEST PUSH1 0x0 DUP2 SWAP1 POP PUSH1 0x20 DUP3 ADD SWAP1 POP SWAP2 SWAP1 POP JUMP JUMPDEST PUSH1 0x0 PUSH2 0x1268 DUP4 DUP4 PUSH2 0x11E8 JUMP JUMPDEST SWAP1 POP SWAP3 SWAP2 POP POP JUMP JUMPDEST PUSH1 0x0 PUSH1 0x20 DUP3 ADD SWAP1 POP SWAP2 SWAP1 POP JUMP JUMPDEST PUSH1 0x0 PUSH2 0x1288 DUP3 PUSH2 0x1230 JUMP JUMPDEST PUSH2 0x1292 DUP2 DUP6 PUSH2 0x123B JUMP JUMPDEST SWAP4 POP DUP4 PUSH1 0x20 DUP3 MUL DUP6 ADD PUSH2 0x12A4 DUP6 PUSH2 0x124C JUMP JUMPDEST DUP1 PUSH1 0x0 JUMPDEST DUP6 DUP2 LT ISZERO PUSH2 0x12E0 JUMPI DUP5 DUP5 SUB DUP10 MSTORE DUP2 MLOAD PUSH2 0x12C1 DUP6 DUP3 PUSH2 0x125C JUMP JUMPDEST SWAP5 POP PUSH2 0x12CC DUP4 PUSH2 0x1270 JUMP JUMPDEST SWAP3 POP PUSH1 0x20 DUP11 ADD SWAP10 POP POP PUSH1 0x1 DUP2 ADD SWAP1 POP PUSH2 0x12A8 JUMP JUMPDEST POP DUP3 SWAP8 POP DUP8 SWAP6 POP POP POP POP POP POP SWAP3 SWAP2 POP POP JUMP JUMPDEST PUSH1 0x0 PUSH1 0xA0 DUP4 ADD PUSH1 0x0 DUP4 ADD MLOAD DUP5 DUP3 SUB PUSH1 0x0 DUP7 ADD MSTORE PUSH2 0x130F DUP3 DUP3 PUSH2 0x11E8 JUMP JUMPDEST SWAP2 POP POP PUSH1 0x20 DUP4 ADD MLOAD PUSH2 0x1324 PUSH1 0x20 DUP7 ADD DUP3 PUSH2 0x1221 JUMP JUMPDEST POP PUSH1 0x40 DUP4 ADD MLOAD PUSH2 0x1337 PUSH1 0x40 DUP7 ADD DUP3 PUSH2 0x1221 JUMP JUMPDEST POP PUSH1 0x60 DUP4 ADD MLOAD DUP5 DUP3 SUB PUSH1 0x60 DUP7 ADD MSTORE PUSH2 0x134F DUP3 DUP3 PUSH2 0x11E8 JUMP JUMPDEST SWAP2 POP POP PUSH1 0x80 DUP4 ADD MLOAD DUP5 DUP3 SUB PUSH1 0x80 DUP7 ADD MSTORE PUSH2 0x1369 DUP3 DUP3 PUSH2 0x127D JUMP JUMPDEST SWAP2 POP POP DUP1 SWAP2 POP POP SWAP3 SWAP2 POP POP JUMP JUMPDEST PUSH1 0x0 PUSH1 0x20 DUP3 ADD SWAP1 POP DUP2 DUP2 SUB PUSH1 0x0 DUP4 ADD MSTORE PUSH2 0x1390 DUP2 DUP5 PUSH2 0x12F2 JUMP JUMPDEST SWAP1 POP SWAP3 SWAP2 POP POP JUMP JUMPDEST PUSH1 0x0 DUP2 ISZERO ISZERO SWAP1 POP SWAP2 SWAP1 POP JUMP JUMPDEST PUSH2 0x13AD DUP2 PUSH2 0x1398 JUMP JUMPDEST DUP3 MSTORE POP POP JUMP JUMPDEST PUSH1 0x0 PUSH1 0x20 DUP3 ADD SWAP1 POP PUSH2 0x13C8 PUSH1 0x0 DUP4 ADD DUP5 PUSH2 0x13A4 JUMP JUMPDEST SWAP3 SWAP2 POP POP JUMP JUMPDEST PUSH1 0x0 PUSH1 0x20 DUP3 DUP5 SUB SLT ISZERO PUSH2 0x13E4 JUMPI PUSH2 0x13E3 PUSH2 0xE6C JUMP JUMPDEST JUMPDEST PUSH1 0x0 PUSH2 0x13F2 DUP5 DUP3 DUP6 ADD PUSH2 0xFD3 JUMP JUMPDEST SWAP2 POP POP SWAP3 SWAP2 POP POP JUMP JUMPDEST PUSH1 0x0 DUP2 MLOAD SWAP1 POP SWAP2 SWAP1 POP JUMP JUMPDEST PUSH1 0x0 DUP3 DUP3 MSTORE PUSH1 0x20 DUP3 ADD SWAP1 POP SWAP3 SWAP2 POP POP JUMP JUMPDEST PUSH1 0x0 DUP2 SWAP1 POP PUSH1 0x20 DUP3 ADD SWAP1 POP SWAP2 SWAP1 POP JUMP JUMPDEST PUSH1 0x0 PUSH1 0xA0 DUP4 ADD PUSH1 0x0 DUP4 ADD MLOAD DUP5 DUP3 SUB PUSH1 0x0 DUP7 ADD MSTORE PUSH2 0x1444 DUP3 DUP3 PUSH2 0x11E8 JUMP JUMPDEST SWAP2 POP POP PUSH1 0x20 DUP4 ADD MLOAD PUSH2 0x1459 PUSH1 0x20 DUP7 ADD DUP3 PUSH2 0x1221 JUMP JUMPDEST POP PUSH1 0x40 DUP4 ADD MLOAD PUSH2 0x146C PUSH1 0x40 DUP7 ADD DUP3 PUSH2 0x1221 JUMP JUMPDEST POP PUSH1 0x60 DUP4 ADD MLOAD DUP5 DUP3 SUB PUSH1 0x60 DUP7 ADD MSTORE PUSH2 0x1484 DUP3 DUP3 PUSH2 0x11E8 JUMP JUMPDEST SWAP2 POP POP PUSH1 0x80 DUP4 ADD MLOAD DUP5 DUP3 SUB PUSH1 0x80 DUP7 ADD MSTORE PUSH2 0x149E DUP3 DUP3 PUSH2 0x127D JUMP JUMPDEST SWAP2 POP POP DUP1 SWAP2 POP POP SWAP3 SWAP2 POP POP JUMP JUMPDEST PUSH1 0x0 PUSH2 0x14B7 DUP4 DUP4 PUSH2 0x1427 JUMP JUMPDEST SWAP1 POP SWAP3 SWAP2 POP POP JUMP JUMPDEST PUSH1 0x0 PUSH1 0x20 DUP3 ADD SWAP1 POP SWAP2 SWAP1 POP JUMP JUMPDEST PUSH1 0x0 PUSH2 0x14D7 DUP3 PUSH2 0x13FB JUMP JUMPDEST PUSH2 0x14E1 DUP2 DUP6 PUSH2 0x1406 JUMP JUMPDEST SWAP4 POP DUP4 PUSH1 0x20 DUP3 MUL DUP6 ADD PUSH2 0x14F3 DUP6 PUSH2 0x1417 JUMP JUMPDEST DUP1 PUSH1 0x0 JUMPDEST DUP6 DUP2 LT ISZERO PUSH2 0x152F JUMPI DUP5 DUP5 SUB DUP10 MSTORE DUP2 MLOAD PUSH2 0x1510 DUP6 DUP3 PUSH2 0x14AB JUMP JUMPDEST SWAP5 POP PUSH2 0x151B DUP4 PUSH2 0x14BF JUMP JUMPDEST SWAP3 POP PUSH1 0x20 DUP11 ADD SWAP10 POP POP PUSH1 0x1 DUP2 ADD SWAP1 POP PUSH2 0x14F7 JUMP JUMPDEST POP DUP3 SWAP8 POP DUP8 SWAP6 POP POP POP POP POP POP SWAP3 SWAP2 POP POP JUMP JUMPDEST PUSH1 0x0 PUSH1 0x20 DUP3 ADD SWAP1 POP DUP2 DUP2 SUB PUSH1 0x0 DUP4 ADD MSTORE PUSH2 0x155B DUP2 DUP5 PUSH2 0x14CC JUMP JUMPDEST SWAP1 POP SWAP3 SWAP2 POP POP JUMP JUMPDEST PUSH1 0x0 DUP3 DUP3 MSTORE PUSH1 0x20 DUP3 ADD SWAP1 POP SWAP3 SWAP2 POP POP JUMP JUMPDEST PUSH1 0x0 PUSH2 0x157F DUP3 PUSH2 0x11A2 JUMP JUMPDEST PUSH2 0x1589 DUP2 DUP6 PUSH2 0x1563 JUMP JUMPDEST SWAP4 POP PUSH2 0x1599 DUP2 DUP6 PUSH1 0x20 DUP7 ADD PUSH2 0x11BE JUMP JUMPDEST PUSH2 0x15A2 DUP2 PUSH2 0xE80 JUMP JUMPDEST DUP5 ADD SWAP2 POP POP SWAP3 SWAP2 POP POP JUMP JUMPDEST PUSH1 0x0 PUSH1 0x20 DUP3 ADD SWAP1 POP DUP2 DUP2 SUB PUSH1 0x0 DUP4 ADD MSTORE PUSH2 0x15C7 DUP2 DUP5 PUSH2 0x1574 JUMP JUMPDEST SWAP1 POP SWAP3 SWAP2 POP POP JUMP JUMPDEST PUSH32 0x4E487B7100000000000000000000000000000000000000000000000000000000 PUSH1 0x0 MSTORE PUSH1 0x32 PUSH1 0x4 MSTORE PUSH1 0x24 PUSH1 0x0 REVERT JUMPDEST PUSH32 0x4E487B7100000000000000000000000000000000000000000000000000000000 PUSH1 0x0 MSTORE PUSH1 0x22 PUSH1 0x4 MSTORE PUSH1 0x24 PUSH1 0x0 REVERT JUMPDEST PUSH1 0x0 PUSH1 0x2 DUP3 DIV SWAP1 POP PUSH1 0x1 DUP3 AND DUP1 PUSH2 0x1645 JUMPI PUSH1 0x7F DUP3 AND SWAP2 POP JUMPDEST PUSH1 0x20 DUP3 LT DUP2 SUB PUSH2 0x1658 JUMPI PUSH2 0x1657 PUSH2 0x15FE JUMP JUMPDEST JUMPDEST POP SWAP2 SWAP1 POP JUMP JUMPDEST PUSH1 0x0 DUP2 SWAP1 POP SWAP3 SWAP2 POP POP JUMP JUMPDEST PUSH1 0x0 DUP2 SWAP1 POP DUP2 PUSH1 0x0 MSTORE PUSH1 0x20 PUSH1 0x0 KECCAK256 SWAP1 POP SWAP2 SWAP1 POP JUMP JUMPDEST PUSH1 0x0 DUP2 SLOAD PUSH2 0x168B DUP2 PUSH2 0x162D JUMP JUMPDEST PUSH2 0x1695 DUP2 DUP7 PUSH2 0x165E JUMP JUMPDEST SWAP5 POP PUSH1 0x1 DUP3 AND PUSH1 0x0 DUP2 EQ PUSH2 0x16B0 JUMPI PUSH1 0x1 DUP2 EQ PUSH2 0x16C5 JUMPI PUSH2 0x16F8 JUMP JUMPDEST PUSH1 0xFF NOT DUP4 AND DUP7 MSTORE DUP2 ISZERO ISZERO DUP3 MUL DUP7 ADD SWAP4 POP PUSH2 0x16F8 JUMP JUMPDEST PUSH2 0x16CE DUP6 PUSH2 0x1669 JUMP JUMPDEST PUSH1 0x0 JUMPDEST DUP4 DUP2 LT ISZERO PUSH2 0x16F0 JUMPI DUP2 SLOAD DUP2 DUP10 ADD MSTORE PUSH1 0x1 DUP3 ADD SWAP2 POP PUSH1 0x20 DUP2 ADD SWAP1 POP PUSH2 0x16D1 JUMP JUMPDEST DUP4 DUP9 ADD SWAP6 POP POP POP JUMPDEST POP POP POP SWAP3 SWAP2 POP POP JUMP JUMPDEST PUSH1 0x0 PUSH2 0x170D DUP3 DUP5 PUSH2 0x167E JUMP JUMPDEST SWAP2 POP DUP2 SWAP1 POP SWAP3 SWAP2 POP POP JUMP JUMPDEST PUSH32 0x4E487B7100000000000000000000000000000000000000000000000000000000 PUSH1 0x0 MSTORE PUSH1 0x11 PUSH1 0x4 MSTORE PUSH1 0x24 PUSH1 0x0 REVERT JUMPDEST PUSH1 0x0 PUSH2 0x1752 DUP3 PUSH2 0xE2E JUMP JUMPDEST SWAP2 POP PUSH32 0xFFFFFFFFFFFFFFFFFFFFFFFFFFFFFFFFFFFFFFFFFFFFFFFFFFFFFFFFFFFFFFFF DUP3 SUB PUSH2 0x1784 JUMPI PUSH2 0x1783 PUSH2 0x1718 JUMP JUMPDEST JUMPDEST PUSH1 0x1 DUP3 ADD SWAP1 POP SWAP2 SWAP1 POP JUMP JUMPDEST PUSH1 0x0 PUSH2 0x179A DUP3 PUSH2 0xE2E JUMP JUMPDEST SWAP2 POP PUSH2 0x17A5 DUP4 PUSH2 0xE2E JUMP JUMPDEST SWAP3 POP DUP3 DUP3 ADD SWAP1 POP DUP1 DUP3 GT ISZERO PUSH2 0x17BD JUMPI PUSH2 0x17BC PUSH2 0x1718 JUMP JUMPDEST JUMPDEST SWAP3 SWAP2 POP POP JUMP JUMPDEST PUSH32 0x4E487B7100000000000000000000000000000000000000000000000000000000 PUSH1 0x0 MSTORE PUSH1 0x12 PUSH1 0x4 MSTORE PUSH1 0x24 PUSH1 0x0 REVERT JUMPDEST PUSH1 0x0 PUSH2 0x17FD DUP3 PUSH2 0xE2E JUMP JUMPDEST SWAP2 POP PUSH2 0x1808 DUP4 PUSH2 0xE2E JUMP JUMPDEST SWAP3 POP DUP3 PUSH2 0x1818 JUMPI PUSH2 0x1817 PUSH2 0x17C3 JUMP JUMPDEST JUMPDEST DUP3 DUP3 DIV SWAP1 POP SWAP3 SWAP2 POP POP JUMP JUMPDEST PUSH1 0x0 DUP2 SWAP1 POP DUP2 PUSH1 0x0 MSTORE PUSH1 0x20 PUSH1 0x0 KECCAK256 SWAP1 POP SWAP2 SWAP1 POP JUMP JUMPDEST PUSH1 0x0 PUSH1 0x20 PUSH1 0x1F DUP4 ADD DIV SWAP1 POP SWAP2 SWAP1 POP JUMP JUMPDEST PUSH1 0x0 DUP3 DUP3 SHL SWAP1 POP SWAP3 SWAP2 POP POP JUMP JUMPDEST PUSH1 0x0 PUSH1 0x8 DUP4 MUL PUSH2 0x1885 PUSH32 0xFFFFFFFFFFFFFFFFFFFFFFFFFFFFFFFFFFFFFFFFFFFFFFFFFFFFFFFFFFFFFFFF DUP3 PUSH2 0x1848 JUMP JUMPDEST PUSH2 0x188F DUP7 DUP4 PUSH2 0x1848 JUMP JUMPDEST SWAP6 POP DUP1 NOT DUP5 AND SWAP4 POP DUP1 DUP7 AND DUP5 OR SWAP3 POP POP POP SWAP4 SWAP3 POP POP POP JUMP JUMPDEST PUSH1 0x0 DUP2 SWAP1 POP SWAP2 SWAP1 POP JUMP JUMPDEST PUSH1 0x0 PUSH2 0x18CC PUSH2 0x18C7 PUSH2 0x18C2 DUP5 PUSH2 0xE2E JUMP JUMPDEST PUSH2 0x18A7 JUMP JUMPDEST PUSH2 0xE2E JUMP JUMPDEST SWAP1 POP SWAP2 SWAP1 POP JUMP JUMPDEST PUSH1 0x0 DUP2 SWAP1 POP SWAP2 SWAP1 POP JUMP JUMPDEST PUSH2 0x18E6 DUP4 PUSH2 0x18B1 JUMP JUMPDEST PUSH2 0x18FA PUSH2 0x18F2 DUP3 PUSH2 0x18D3 JUMP JUMPDEST DUP5 DUP5 SLOAD PUSH2 0x1855 JUMP JUMPDEST DUP3 SSTORE POP POP POP POP JUMP JUMPDEST PUSH1 0x0 SWAP1 JUMP JUMPDEST PUSH2 0x190F PUSH2 0x1902 JUMP JUMPDEST PUSH2 0x191A DUP2 DUP5 DUP5 PUSH2 0x18DD JUMP JUMPDEST POP POP POP JUMP JUMPDEST JUMPDEST DUP2 DUP2 LT ISZERO PUSH2 0x193E JUMPI PUSH2 0x1933 PUSH1 0x0 DUP3 PUSH2 0x1907 JUMP JUMPDEST PUSH1 0x1 DUP2 ADD SWAP1 POP PUSH2 0x1920 JUMP JUMPDEST POP POP JUMP JUMPDEST PUSH1 0x1F DUP3 GT ISZERO PUSH2 0x1983 JUMPI PUSH2 0x1954 DUP2 PUSH2 0x1823 JUMP JUMPDEST PUSH2 0x195D DUP5 PUSH2 0x1838 JUMP JUMPDEST DUP2 ADD PUSH1 0x20 DUP6 LT ISZERO PUSH2 0x196C JUMPI DUP2 SWAP1 POP JUMPDEST PUSH2 0x1980 PUSH2 0x1978 DUP6 PUSH2 0x1838 JUMP JUMPDEST DUP4 ADD DUP3 PUSH2 0x191F JUMP JUMPDEST POP POP JUMPDEST POP POP POP JUMP JUMPDEST PUSH1 0x0 DUP3 DUP3 SHR SWAP1 POP SWAP3 SWAP2 POP POP JUMP JUMPDEST PUSH1 0x0 PUSH2 0x19A6 PUSH1 0x0 NOT DUP5 PUSH1 0x8 MUL PUSH2 0x1988 JUMP JUMPDEST NOT DUP1 DUP4 AND SWAP2 POP POP SWAP3 SWAP2 POP POP JUMP JUMPDEST PUSH1 0x0 PUSH2 0x19BF DUP4 DUP4 PUSH2 0x1995 JUMP JUMPDEST SWAP2 POP DUP3 PUSH1 0x2 MUL DUP3 OR SWAP1 POP SWAP3 SWAP2 POP POP JUMP JUMPDEST PUSH2 0x19D8 DUP3 PUSH2 0x11A2 JUMP JUMPDEST PUSH8 0xFFFFFFFFFFFFFFFF DUP2 GT ISZERO PUSH2 0x19F1 JUMPI PUSH2 0x19F0 PUSH2 0xE91 JUMP JUMPDEST JUMPDEST PUSH2 0x19FB DUP3 SLOAD PUSH2 0x162D JUMP JUMPDEST PUSH2 0x1A06 DUP3 DUP3 DUP6 PUSH2 0x1942 JUMP JUMPDEST PUSH1 0x0 PUSH1 0x20 SWAP1 POP PUSH1 0x1F DUP4 GT PUSH1 0x1 DUP2 EQ PUSH2 0x1A39 JUMPI PUSH1 0x0 DUP5 ISZERO PUSH2 0x1A27 JUMPI DUP3 DUP8 ADD MLOAD SWAP1 POP JUMPDEST PUSH2 0x1A31 DUP6 DUP3 PUSH2 0x19B3 JUMP JUMPDEST DUP7 SSTORE POP PUSH2 0x1A99 JUMP JUMPDEST PUSH1 0x1F NOT DUP5 AND PUSH2 0x1A47 DUP7 PUSH2 0x1823 JUMP JUMPDEST PUSH1 0x0 JUMPDEST DUP3 DUP2 LT ISZERO PUSH2 0x1A6F JUMPI DUP5 DUP10 ADD MLOAD DUP3 SSTORE PUSH1 0x1 DUP3 ADD SWAP2 POP PUSH1 0x20 DUP6 ADD SWAP5 POP PUSH1 0x20 DUP2 ADD SWAP1 POP PUSH2 0x1A4A JUMP JUMPDEST DUP7 DUP4 LT ISZERO PUSH2 0x1A8C JUMPI DUP5 DUP10 ADD MLOAD PUSH2 0x1A88 PUSH1 0x1F DUP10 AND DUP3 PUSH2 0x1995 JUMP JUMPDEST DUP4 SSTORE POP JUMPDEST PUSH1 0x1 PUSH1 0x2 DUP9 MUL ADD DUP9 SSTORE POP POP POP JUMPDEST POP POP POP POP POP POP JUMP JUMPDEST PUSH1 0x0 DUP2 SWAP1 POP SWAP3 SWAP2 POP POP JUMP JUMPDEST PUSH1 0x0 PUSH2 0x1AB7 DUP3 PUSH2 0x11A2 JUMP JUMPDEST PUSH2 0x1AC1 DUP2 DUP6 PUSH2 0x1AA1 JUMP JUMPDEST SWAP4 POP PUSH2 0x1AD1 DUP2 DUP6 PUSH1 0x20 DUP7 ADD PUSH2 0x11BE JUMP JUMPDEST DUP1 DUP5 ADD SWAP2 POP POP SWAP3 SWAP2 POP POP JUMP JUMPDEST PUSH1 0x0 PUSH2 0x1AE9 DUP3 DUP5 PUSH2 0x1AAC JUMP JUMPDEST SWAP2 POP DUP2 SWAP1 POP SWAP3 SWAP2 POP POP JUMP JUMPDEST PUSH1 0x0 PUSH2 0x1AFF DUP3 PUSH2 0xE2E JUMP JUMPDEST SWAP2 POP PUSH2 0x1B0A DUP4 PUSH2 0xE2E JUMP JUMPDEST SWAP3 POP DUP3 DUP3 SUB SWAP1 POP DUP2 DUP2 GT ISZERO PUSH2 0x1B22 JUMPI PUSH2 0x1B21 PUSH2 0x1718 JUMP JUMPDEST JUMPDEST SWAP3 SWAP2 POP POP JUMP INVALID LOG2 PUSH5 0x6970667358 0x22 SLT KECCAK256 CALLER SWAP1 0xA8 0xE 0xEA DUP11 SWAP4 CALL 0xAB SHL PUSH19 0x115151BEAEF7BC66A090D0CCF1D34255CDB8C8 PUSH23 0xFC64736F6C634300081200330000000000000000000000 "
				},
				"gasEstimates": {
					"creation": {
						"codeDepositCost": "1401200",
						"executionCost": "1458",
						"totalCost": "1402658"
					},
					"external": {
						"getAllStudents()": "infinite",
						"getAvg()": "infinite",
						"getFClass()": "infinite",
						"getStudentByName(string)": "infinite",
						"getStudentByNumber(uint256)": "infinite",
						"getStudentsNum()": "2512",
						"pushStudent(string,uint256,string[])": "infinite",
						"selfEval()": "infinite",
						"setCredit(uint256)": "infinite"
					}
				},
				"methodIdentifiers": {
					"getAllStudents()": "e9e30927",
					"getAvg()": "390b6a4c",
					"getFClass()": "243e4896",
					"getStudentByName(string)": "83b41ad8",
					"getStudentByNumber(uint256)": "a41f985e",
					"getStudentsNum()": "7674f2d8",
					"pushStudent(string,uint256,string[])": "74aa6858",
					"selfEval()": "a05ab6d0",
					"setCredit(uint256)": "eac1d5b7"
				}
			},
			"storageLayout": {
				"storage": [
					{
						"astId": 17,
						"contract": "contracts-lecture/230511-practice.sol:practice",
						"label": "students",
						"offset": 0,
						"slot": "0",
						"type": "t_array(t_struct(Student)13_storage)dyn_storage"
					},
					{
						"astId": 121,
						"contract": "contracts-lecture/230511-practice.sol:practice",
						"label": "name_Student",
						"offset": 0,
						"slot": "1",
						"type": "t_mapping(t_string_memory_ptr,t_struct(Student)13_storage)"
					}
				],
				"types": {
					"t_array(t_string_storage)dyn_storage": {
						"base": "t_string_storage",
						"encoding": "dynamic_array",
						"label": "string[]",
						"numberOfBytes": "32"
					},
					"t_array(t_struct(Student)13_storage)dyn_storage": {
						"base": "t_struct(Student)13_storage",
						"encoding": "dynamic_array",
						"label": "struct practice.Student[]",
						"numberOfBytes": "32"
					},
					"t_mapping(t_string_memory_ptr,t_struct(Student)13_storage)": {
						"encoding": "mapping",
						"key": "t_string_memory_ptr",
						"label": "mapping(string => struct practice.Student)",
						"numberOfBytes": "32",
						"value": "t_struct(Student)13_storage"
					},
					"t_string_memory_ptr": {
						"encoding": "bytes",
						"label": "string",
						"numberOfBytes": "32"
					},
					"t_string_storage": {
						"encoding": "bytes",
						"label": "string",
						"numberOfBytes": "32"
					},
					"t_struct(Student)13_storage": {
						"encoding": "inplace",
						"label": "struct practice.Student",
						"members": [
							{
								"astId": 3,
								"contract": "contracts-lecture/230511-practice.sol:practice",
								"label": "name",
								"offset": 0,
								"slot": "0",
								"type": "t_string_storage"
							},
							{
								"astId": 5,
								"contract": "contracts-lecture/230511-practice.sol:practice",
								"label": "number",
								"offset": 0,
								"slot": "1",
								"type": "t_uint256"
							},
							{
								"astId": 7,
								"contract": "contracts-lecture/230511-practice.sol:practice",
								"label": "score",
								"offset": 0,
								"slot": "2",
								"type": "t_uint256"
							},
							{
								"astId": 9,
								"contract": "contracts-lecture/230511-practice.sol:practice",
								"label": "credit",
								"offset": 0,
								"slot": "3",
								"type": "t_string_storage"
							},
							{
								"astId": 12,
								"contract": "contracts-lecture/230511-practice.sol:practice",
								"label": "classes",
								"offset": 0,
								"slot": "4",
								"type": "t_array(t_string_storage)dyn_storage"
							}
						],
						"numberOfBytes": "160"
					},
					"t_uint256": {
						"encoding": "inplace",
						"label": "uint256",
						"numberOfBytes": "32"
					}
				}
			},
			"userdoc": {
				"kind": "user",
				"methods": {},
				"version": 1
			}
		}
	}
}