{
	"contracts-lecture/230508-1.sol": {
		"note": {
			"abi": [
				{
					"inputs": [],
					"name": "getAllDs",
					"outputs": [
						{
							"components": [
								{
									"internalType": "uint256",
									"name": "a",
									"type": "uint256"
								},
								{
									"internalType": "string",
									"name": "b",
									"type": "string"
								},
								{
									"internalType": "bytes2",
									"name": "c",
									"type": "bytes2"
								}
							],
							"internalType": "struct note.D[]",
							"name": "",
							"type": "tuple[]"
						}
					],
					"stateMutability": "view",
					"type": "function"
				},
				{
					"inputs": [],
					"name": "getC",
					"outputs": [
						{
							"components": [
								{
									"internalType": "string",
									"name": "title",
									"type": "string"
								},
								{
									"internalType": "uint256",
									"name": "number",
									"type": "uint256"
								},
								{
									"internalType": "uint256",
									"name": "date",
									"type": "uint256"
								}
							],
							"internalType": "struct note.Class",
							"name": "",
							"type": "tuple"
						}
					],
					"stateMutability": "view",
					"type": "function"
				},
				{
					"inputs": [],
					"name": "getDD",
					"outputs": [
						{
							"components": [
								{
									"internalType": "uint256",
									"name": "a",
									"type": "uint256"
								},
								{
									"internalType": "string",
									"name": "b",
									"type": "string"
								},
								{
									"internalType": "bytes2",
									"name": "c",
									"type": "bytes2"
								}
							],
							"internalType": "struct note.D",
							"name": "",
							"type": "tuple"
						}
					],
					"stateMutability": "view",
					"type": "function"
				},
				{
					"inputs": [
						{
							"internalType": "uint256",
							"name": "_n",
							"type": "uint256"
						}
					],
					"name": "getN",
					"outputs": [
						{
							"components": [
								{
									"internalType": "uint256",
									"name": "a",
									"type": "uint256"
								},
								{
									"internalType": "string",
									"name": "b",
									"type": "string"
								},
								{
									"internalType": "bytes2",
									"name": "c",
									"type": "bytes2"
								}
							],
							"internalType": "struct note.D",
							"name": "",
							"type": "tuple"
						}
					],
					"stateMutability": "view",
					"type": "function"
				},
				{
					"inputs": [],
					"name": "getS",
					"outputs": [
						{
							"components": [
								{
									"internalType": "string",
									"name": "name",
									"type": "string"
								},
								{
									"internalType": "uint256",
									"name": "number",
									"type": "uint256"
								},
								{
									"internalType": "uint256",
									"name": "birth",
									"type": "uint256"
								}
							],
							"internalType": "struct note.Student",
							"name": "",
							"type": "tuple"
						}
					],
					"stateMutability": "view",
					"type": "function"
				},
				{
					"inputs": [
						{
							"internalType": "string",
							"name": "_title",
							"type": "string"
						},
						{
							"internalType": "uint256",
							"name": "_number",
							"type": "uint256"
						},
						{
							"internalType": "uint256",
							"name": "_date",
							"type": "uint256"
						}
					],
					"name": "pushClass",
					"outputs": [],
					"stateMutability": "nonpayable",
					"type": "function"
				},
				{
					"inputs": [
						{
							"internalType": "uint256",
							"name": "_a",
							"type": "uint256"
						},
						{
							"internalType": "string",
							"name": "_b",
							"type": "string"
						},
						{
							"internalType": "bytes2",
							"name": "_c",
							"type": "bytes2"
						}
					],
					"name": "pushD",
					"outputs": [],
					"stateMutability": "nonpayable",
					"type": "function"
				},
				{
					"inputs": [],
					"name": "pushD2",
					"outputs": [],
					"stateMutability": "nonpayable",
					"type": "function"
				},
				{
					"inputs": [
						{
							"internalType": "string",
							"name": "_name",
							"type": "string"
						},
						{
							"internalType": "uint256",
							"name": "_number",
							"type": "uint256"
						},
						{
							"internalType": "uint256",
							"name": "_birth",
							"type": "uint256"
						}
					],
					"name": "pushStudent",
					"outputs": [],
					"stateMutability": "nonpayable",
					"type": "function"
				},
				{
					"inputs": [
						{
							"internalType": "string",
							"name": "_title",
							"type": "string"
						},
						{
							"internalType": "uint256",
							"name": "_number",
							"type": "uint256"
						},
						{
							"internalType": "uint256",
							"name": "_date",
							"type": "uint256"
						}
					],
					"name": "setC",
					"outputs": [],
					"stateMutability": "nonpayable",
					"type": "function"
				},
				{
					"inputs": [
						{
							"internalType": "uint256",
							"name": "_a",
							"type": "uint256"
						},
						{
							"internalType": "string",
							"name": "_b",
							"type": "string"
						},
						{
							"internalType": "bytes2",
							"name": "_c",
							"type": "bytes2"
						}
					],
					"name": "setDD",
					"outputs": [],
					"stateMutability": "nonpayable",
					"type": "function"
				},
				{
					"inputs": [
						{
							"internalType": "string",
							"name": "_name",
							"type": "string"
						},
						{
							"internalType": "uint256",
							"name": "_number",
							"type": "uint256"
						},
						{
							"internalType": "uint256",
							"name": "_birth",
							"type": "uint256"
						}
					],
					"name": "setS",
					"outputs": [],
					"stateMutability": "nonpayable",
					"type": "function"
				}
			],
			"devdoc": {
				"kind": "dev",
				"methods": {},
				"version": 1
			},
			"evm": {
				"assembly": "    /* \"contracts-lecture/230508-1.sol\":63:2916  contract note {... */\n  mstore(0x40, 0x80)\n  callvalue\n  dup1\n  iszero\n  tag_1\n  jumpi\n  0x00\n  dup1\n  revert\ntag_1:\n  pop\n  dataSize(sub_0)\n  dup1\n  dataOffset(sub_0)\n  0x00\n  codecopy\n  0x00\n  return\nstop\n\nsub_0: assembly {\n        /* \"contracts-lecture/230508-1.sol\":63:2916  contract note {... */\n      mstore(0x40, 0x80)\n      callvalue\n      dup1\n      iszero\n      tag_1\n      jumpi\n      0x00\n      dup1\n      revert\n    tag_1:\n      pop\n      jumpi(tag_2, lt(calldatasize, 0x04))\n      shr(0xe0, calldataload(0x00))\n      dup1\n      0x9ceab7c1\n      gt\n      tag_15\n      jumpi\n      dup1\n      0x9ceab7c1\n      eq\n      tag_9\n      jumpi\n      dup1\n      0xa2375d1e\n      eq\n      tag_10\n      jumpi\n      dup1\n      0xcd914def\n      eq\n      tag_11\n      jumpi\n      dup1\n      0xe93314ab\n      eq\n      tag_12\n      jumpi\n      dup1\n      0xedeb21cf\n      eq\n      tag_13\n      jumpi\n      dup1\n      0xfb49cfbc\n      eq\n      tag_14\n      jumpi\n      jump(tag_2)\n    tag_15:\n      dup1\n      0x1908791c\n      eq\n      tag_3\n      jumpi\n      dup1\n      0x39139225\n      eq\n      tag_4\n      jumpi\n      dup1\n      0x562ca543\n      eq\n      tag_5\n      jumpi\n      dup1\n      0x626c525c\n      eq\n      tag_6\n      jumpi\n      dup1\n      0x6db75504\n      eq\n      tag_7\n      jumpi\n      dup1\n      0x93dbeaa3\n      eq\n      tag_8\n      jumpi\n    tag_2:\n      0x00\n      dup1\n      revert\n        /* \"contracts-lecture/230508-1.sol\":2083:2178  function setDD(uint _a, string memory _b, bytes2 _c) public {... */\n    tag_3:\n      tag_16\n      0x04\n      dup1\n      calldatasize\n      sub\n      dup2\n      add\n      swap1\n      tag_17\n      swap2\n      swap1\n      tag_18\n      jump\t// in\n    tag_17:\n      tag_19\n      jump\t// in\n    tag_16:\n      stop\n        /* \"contracts-lecture/230508-1.sol\":2826:2911  function getN(uint _n) public view returns(D memory) {... */\n    tag_4:\n      tag_20\n      0x04\n      dup1\n      calldatasize\n      sub\n      dup2\n      add\n      swap1\n      tag_21\n      swap2\n      swap1\n      tag_22\n      jump\t// in\n    tag_21:\n      tag_23\n      jump\t// in\n    tag_20:\n      mload(0x40)\n      tag_24\n      swap2\n      swap1\n      tag_25\n      jump\t// in\n    tag_24:\n      mload(0x40)\n      dup1\n      swap2\n      sub\n      swap1\n      return\n        /* \"contracts-lecture/230508-1.sol\":1418:1557  function pushStudent(string memory _name, uint _number, uint _birth) public {... */\n    tag_5:\n      tag_26\n      0x04\n      dup1\n      calldatasize\n      sub\n      dup2\n      add\n      swap1\n      tag_27\n      swap2\n      swap1\n      tag_28\n      jump\t// in\n    tag_27:\n      tag_29\n      jump\t// in\n    tag_26:\n      stop\n        /* \"contracts-lecture/230508-1.sol\":2250:2323  function getDD() public view returns(D memory) {... */\n    tag_6:\n      tag_30\n      tag_31\n      jump\t// in\n    tag_30:\n      mload(0x40)\n      tag_32\n      swap2\n      swap1\n      tag_25\n      jump\t// in\n    tag_32:\n      mload(0x40)\n      dup1\n      swap2\n      sub\n      swap1\n      return\n        /* \"contracts-lecture/230508-1.sol\":2592:2645  function pushD2() public {... */\n    tag_7:\n      tag_33\n      tag_34\n      jump\t// in\n    tag_33:\n      stop\n        /* \"contracts-lecture/230508-1.sol\":744:863  function setC(string memory _title, uint _number, uint _date) public {... */\n    tag_8:\n      tag_35\n      0x04\n      dup1\n      calldatasize\n      sub\n      dup2\n      add\n      swap1\n      tag_36\n      swap2\n      swap1\n      tag_28\n      jump\t// in\n    tag_36:\n      tag_37\n      jump\t// in\n    tag_35:\n      stop\n        /* \"contracts-lecture/230508-1.sol\":2651:2729  function getAllDs() public view returns(D[] memory) {... */\n    tag_9:\n      tag_38\n      tag_39\n      jump\t// in\n    tag_38:\n      mload(0x40)\n      tag_40\n      swap2\n      swap1\n      tag_41\n      jump\t// in\n    tag_40:\n      mload(0x40)\n      dup1\n      swap2\n      sub\n      swap1\n      return\n        /* \"contracts-lecture/230508-1.sol\":1070:1145  function getC() public view returns(Class memory) {... */\n    tag_10:\n      tag_42\n      tag_43\n      jump\t// in\n    tag_42:\n      mload(0x40)\n      tag_44\n      swap2\n      swap1\n      tag_45\n      jump\t// in\n    tag_44:\n      mload(0x40)\n      dup1\n      swap2\n      sub\n      swap1\n      return\n        /* \"contracts-lecture/230508-1.sol\":2487:2586  function pushD(uint _a, string memory _b, bytes2 _c) public {... */\n    tag_11:\n      tag_46\n      0x04\n      dup1\n      calldatasize\n      sub\n      dup2\n      add\n      swap1\n      tag_47\n      swap2\n      swap1\n      tag_18\n      jump\t// in\n    tag_47:\n      tag_48\n      jump\t// in\n    tag_46:\n      stop\n        /* \"contracts-lecture/230508-1.sol\":987:1064  function getS() public view returns(Student memory) {... */\n    tag_12:\n      tag_49\n      tag_50\n      jump\t// in\n    tag_49:\n      mload(0x40)\n      tag_51\n      swap2\n      swap1\n      tag_52\n      jump\t// in\n    tag_51:\n      mload(0x40)\n      dup1\n      swap2\n      sub\n      swap1\n      return\n        /* \"contracts-lecture/230508-1.sol\":1644:1778  function pushClass(string memory _title, uint _number, uint _date) public {... */\n    tag_13:\n      tag_53\n      0x04\n      dup1\n      calldatasize\n      sub\n      dup2\n      add\n      swap1\n      tag_54\n      swap2\n      swap1\n      tag_28\n      jump\t// in\n    tag_54:\n      tag_55\n      jump\t// in\n    tag_53:\n      stop\n        /* \"contracts-lecture/230508-1.sol\":617:738  function setS(string memory _name, uint _number, uint _birth) public {... */\n    tag_14:\n      tag_56\n      0x04\n      dup1\n      calldatasize\n      sub\n      dup2\n      add\n      swap1\n      tag_57\n      swap2\n      swap1\n      tag_28\n      jump\t// in\n    tag_57:\n      tag_58\n      jump\t// in\n    tag_56:\n      stop\n        /* \"contracts-lecture/230508-1.sol\":2083:2178  function setDD(uint _a, string memory _b, bytes2 _c) public {... */\n    tag_19:\n        /* \"contracts-lecture/230508-1.sol\":2158:2171  D(_a, _b, _c) */\n      mload(0x40)\n      dup1\n      0x60\n      add\n      0x40\n      mstore\n      dup1\n        /* \"contracts-lecture/230508-1.sol\":2160:2162  _a */\n      dup5\n        /* \"contracts-lecture/230508-1.sol\":2158:2171  D(_a, _b, _c) */\n      dup2\n      mstore\n      0x20\n      add\n        /* \"contracts-lecture/230508-1.sol\":2164:2166  _b */\n      dup4\n        /* \"contracts-lecture/230508-1.sol\":2158:2171  D(_a, _b, _c) */\n      dup2\n      mstore\n      0x20\n      add\n        /* \"contracts-lecture/230508-1.sol\":2168:2170  _c */\n      dup3\n        /* \"contracts-lecture/230508-1.sol\":2158:2171  D(_a, _b, _c) */\n      not(0xffffffffffffffffffffffffffffffffffffffffffffffffffffffffffff)\n      and\n      dup2\n      mstore\n      pop\n        /* \"contracts-lecture/230508-1.sol\":2153:2155  dd */\n      0x08\n        /* \"contracts-lecture/230508-1.sol\":2153:2171  dd = D(_a, _b, _c) */\n      0x00\n      dup3\n      add\n      mload\n      dup2\n      0x00\n      add\n      sstore\n      0x20\n      dup3\n      add\n      mload\n      dup2\n      0x01\n      add\n      swap1\n      dup2\n      tag_60\n      swap2\n      swap1\n      tag_61\n      jump\t// in\n    tag_60:\n      pop\n      0x40\n      dup3\n      add\n      mload\n      dup2\n      0x02\n      add\n      exp(0x0100, 0x00)\n      dup2\n      sload\n      dup2\n      0xffff\n      mul\n      not\n      and\n      swap1\n      dup4\n      0xf0\n      shr\n      mul\n      or\n      swap1\n      sstore\n      pop\n      swap1\n      pop\n      pop\n        /* \"contracts-lecture/230508-1.sol\":2083:2178  function setDD(uint _a, string memory _b, bytes2 _c) public {... */\n      pop\n      pop\n      pop\n      jump\t// out\n        /* \"contracts-lecture/230508-1.sol\":2826:2911  function getN(uint _n) public view returns(D memory) {... */\n    tag_23:\n        /* \"contracts-lecture/230508-1.sol\":2869:2877  D memory */\n      tag_62\n      tag_63\n      jump\t// in\n    tag_62:\n        /* \"contracts-lecture/230508-1.sol\":2896:2898  Ds */\n      0x0b\n        /* \"contracts-lecture/230508-1.sol\":2902:2903  1 */\n      0x01\n        /* \"contracts-lecture/230508-1.sol\":2899:2901  _n */\n      dup4\n        /* \"contracts-lecture/230508-1.sol\":2899:2903  _n-1 */\n      tag_65\n      swap2\n      swap1\n      tag_66\n      jump\t// in\n    tag_65:\n        /* \"contracts-lecture/230508-1.sol\":2896:2904  Ds[_n-1] */\n      dup2\n      sload\n      dup2\n      lt\n      tag_67\n      jumpi\n      tag_68\n      tag_69\n      jump\t// in\n    tag_68:\n    tag_67:\n      swap1\n      0x00\n      mstore\n      keccak256(0x00, 0x20)\n      swap1\n      0x03\n      mul\n      add\n        /* \"contracts-lecture/230508-1.sol\":2889:2904  return Ds[_n-1] */\n      mload(0x40)\n      dup1\n      0x60\n      add\n      0x40\n      mstore\n      swap1\n      dup2\n      0x00\n      dup3\n      add\n      sload\n      dup2\n      mstore\n      0x20\n      add\n      0x01\n      dup3\n      add\n      dup1\n      sload\n      tag_71\n      swap1\n      tag_72\n      jump\t// in\n    tag_71:\n      dup1\n      0x1f\n      add\n      0x20\n      dup1\n      swap2\n      div\n      mul\n      0x20\n      add\n      mload(0x40)\n      swap1\n      dup2\n      add\n      0x40\n      mstore\n      dup1\n      swap3\n      swap2\n      swap1\n      dup2\n      dup2\n      mstore\n      0x20\n      add\n      dup3\n      dup1\n      sload\n      tag_73\n      swap1\n      tag_72\n      jump\t// in\n    tag_73:\n      dup1\n      iszero\n      tag_74\n      jumpi\n      dup1\n      0x1f\n      lt\n      tag_75\n      jumpi\n      0x0100\n      dup1\n      dup4\n      sload\n      div\n      mul\n      dup4\n      mstore\n      swap2\n      0x20\n      add\n      swap2\n      jump(tag_74)\n    tag_75:\n      dup3\n      add\n      swap2\n      swap1\n      0x00\n      mstore\n      keccak256(0x00, 0x20)\n      swap1\n    tag_76:\n      dup2\n      sload\n      dup2\n      mstore\n      swap1\n      0x01\n      add\n      swap1\n      0x20\n      add\n      dup1\n      dup4\n      gt\n      tag_76\n      jumpi\n      dup3\n      swap1\n      sub\n      0x1f\n      and\n      dup3\n      add\n      swap2\n    tag_74:\n      pop\n      pop\n      pop\n      pop\n      pop\n      dup2\n      mstore\n      0x20\n      add\n      0x02\n      dup3\n      add\n      0x00\n      swap1\n      sload\n      swap1\n      0x0100\n      exp\n      swap1\n      div\n      0xf0\n      shl\n      not(0xffffffffffffffffffffffffffffffffffffffffffffffffffffffffffff)\n      and\n      not(0xffffffffffffffffffffffffffffffffffffffffffffffffffffffffffff)\n      and\n      dup2\n      mstore\n      pop\n      pop\n      swap1\n      pop\n        /* \"contracts-lecture/230508-1.sol\":2826:2911  function getN(uint _n) public view returns(D memory) {... */\n      swap2\n      swap1\n      pop\n      jump\t// out\n        /* \"contracts-lecture/230508-1.sol\":1418:1557  function pushStudent(string memory _name, uint _number, uint _birth) public {... */\n    tag_29:\n        /* \"contracts-lecture/230508-1.sol\":1504:1512  students */\n      0x06\n        /* \"contracts-lecture/230508-1.sol\":1518:1549  Student(_name, _number, _birth) */\n      mload(0x40)\n      dup1\n      0x60\n      add\n      0x40\n      mstore\n      dup1\n        /* \"contracts-lecture/230508-1.sol\":1526:1531  _name */\n      dup6\n        /* \"contracts-lecture/230508-1.sol\":1518:1549  Student(_name, _number, _birth) */\n      dup2\n      mstore\n      0x20\n      add\n        /* \"contracts-lecture/230508-1.sol\":1533:1540  _number */\n      dup5\n        /* \"contracts-lecture/230508-1.sol\":1518:1549  Student(_name, _number, _birth) */\n      dup2\n      mstore\n      0x20\n      add\n        /* \"contracts-lecture/230508-1.sol\":1542:1548  _birth */\n      dup4\n        /* \"contracts-lecture/230508-1.sol\":1518:1549  Student(_name, _number, _birth) */\n      dup2\n      mstore\n      pop\n        /* \"contracts-lecture/230508-1.sol\":1504:1550  students.push(Student(_name, _number, _birth)) */\n      swap1\n      dup1\n      0x01\n      dup2\n      sload\n      add\n      dup1\n      dup3\n      sstore\n      dup1\n      swap2\n      pop\n      pop\n      0x01\n      swap1\n      sub\n      swap1\n      0x00\n      mstore\n      keccak256(0x00, 0x20)\n      swap1\n      0x03\n      mul\n      add\n      0x00\n      swap1\n      swap2\n      swap1\n      swap2\n      swap1\n      swap2\n      pop\n      0x00\n      dup3\n      add\n      mload\n      dup2\n      0x00\n      add\n      swap1\n      dup2\n      tag_79\n      swap2\n      swap1\n      tag_61\n      jump\t// in\n    tag_79:\n      pop\n      0x20\n      dup3\n      add\n      mload\n      dup2\n      0x01\n      add\n      sstore\n      0x40\n      dup3\n      add\n      mload\n      dup2\n      0x02\n      add\n      sstore\n      pop\n      pop\n        /* \"contracts-lecture/230508-1.sol\":1418:1557  function pushStudent(string memory _name, uint _number, uint _birth) public {... */\n      pop\n      pop\n      pop\n      jump\t// out\n        /* \"contracts-lecture/230508-1.sol\":2250:2323  function getDD() public view returns(D memory) {... */\n    tag_31:\n        /* \"contracts-lecture/230508-1.sol\":2287:2295  D memory */\n      tag_80\n      tag_63\n      jump\t// in\n    tag_80:\n        /* \"contracts-lecture/230508-1.sol\":2314:2316  dd */\n      0x08\n        /* \"contracts-lecture/230508-1.sol\":2307:2316  return dd */\n      mload(0x40)\n      dup1\n      0x60\n      add\n      0x40\n      mstore\n      swap1\n      dup2\n      0x00\n      dup3\n      add\n      sload\n      dup2\n      mstore\n      0x20\n      add\n      0x01\n      dup3\n      add\n      dup1\n      sload\n      tag_82\n      swap1\n      tag_72\n      jump\t// in\n    tag_82:\n      dup1\n      0x1f\n      add\n      0x20\n      dup1\n      swap2\n      div\n      mul\n      0x20\n      add\n      mload(0x40)\n      swap1\n      dup2\n      add\n      0x40\n      mstore\n      dup1\n      swap3\n      swap2\n      swap1\n      dup2\n      dup2\n      mstore\n      0x20\n      add\n      dup3\n      dup1\n      sload\n      tag_83\n      swap1\n      tag_72\n      jump\t// in\n    tag_83:\n      dup1\n      iszero\n      tag_84\n      jumpi\n      dup1\n      0x1f\n      lt\n      tag_85\n      jumpi\n      0x0100\n      dup1\n      dup4\n      sload\n      div\n      mul\n      dup4\n      mstore\n      swap2\n      0x20\n      add\n      swap2\n      jump(tag_84)\n    tag_85:\n      dup3\n      add\n      swap2\n      swap1\n      0x00\n      mstore\n      keccak256(0x00, 0x20)\n      swap1\n    tag_86:\n      dup2\n      sload\n      dup2\n      mstore\n      swap1\n      0x01\n      add\n      swap1\n      0x20\n      add\n      dup1\n      dup4\n      gt\n      tag_86\n      jumpi\n      dup3\n      swap1\n      sub\n      0x1f\n      and\n      dup3\n      add\n      swap2\n    tag_84:\n      pop\n      pop\n      pop\n      pop\n      pop\n      dup2\n      mstore\n      0x20\n      add\n      0x02\n      dup3\n      add\n      0x00\n      swap1\n      sload\n      swap1\n      0x0100\n      exp\n      swap1\n      div\n      0xf0\n      shl\n      not(0xffffffffffffffffffffffffffffffffffffffffffffffffffffffffffff)\n      and\n      not(0xffffffffffffffffffffffffffffffffffffffffffffffffffffffffffff)\n      and\n      dup2\n      mstore\n      pop\n      pop\n      swap1\n      pop\n        /* \"contracts-lecture/230508-1.sol\":2250:2323  function getDD() public view returns(D memory) {... */\n      swap1\n      jump\t// out\n        /* \"contracts-lecture/230508-1.sol\":2592:2645  function pushD2() public {... */\n    tag_34:\n        /* \"contracts-lecture/230508-1.sol\":2627:2629  Ds */\n      0x0b\n        /* \"contracts-lecture/230508-1.sol\":2635:2637  dd */\n      0x08\n        /* \"contracts-lecture/230508-1.sol\":2627:2638  Ds.push(dd) */\n      swap1\n      dup1\n      0x01\n      dup2\n      sload\n      add\n      dup1\n      dup3\n      sstore\n      dup1\n      swap2\n      pop\n      pop\n      0x01\n      swap1\n      sub\n      swap1\n      0x00\n      mstore\n      keccak256(0x00, 0x20)\n      swap1\n      0x03\n      mul\n      add\n      0x00\n      swap1\n      swap2\n      swap1\n      swap2\n      swap1\n      swap2\n      pop\n      0x00\n      dup3\n      add\n      sload\n      dup2\n      0x00\n      add\n      sstore\n      0x01\n      dup3\n      add\n      dup2\n      0x01\n      add\n      swap1\n      dup2\n      tag_89\n      swap2\n      swap1\n      tag_90\n      jump\t// in\n    tag_89:\n      pop\n      0x02\n      dup3\n      add\n      0x00\n      swap1\n      sload\n      swap1\n      0x0100\n      exp\n      swap1\n      div\n      0xf0\n      shl\n      dup2\n      0x02\n      add\n      exp(0x0100, 0x00)\n      dup2\n      sload\n      dup2\n      0xffff\n      mul\n      not\n      and\n      swap1\n      dup4\n      0xf0\n      shr\n      mul\n      or\n      swap1\n      sstore\n      pop\n      pop\n      pop\n        /* \"contracts-lecture/230508-1.sol\":2592:2645  function pushD2() public {... */\n      jump\t// out\n        /* \"contracts-lecture/230508-1.sol\":744:863  function setC(string memory _title, uint _number, uint _date) public {... */\n    tag_37:\n        /* \"contracts-lecture/230508-1.sol\":827:856  Class(_title, _number, _date) */\n      mload(0x40)\n      dup1\n      0x60\n      add\n      0x40\n      mstore\n      dup1\n        /* \"contracts-lecture/230508-1.sol\":833:839  _title */\n      dup5\n        /* \"contracts-lecture/230508-1.sol\":827:856  Class(_title, _number, _date) */\n      dup2\n      mstore\n      0x20\n      add\n        /* \"contracts-lecture/230508-1.sol\":841:848  _number */\n      dup4\n        /* \"contracts-lecture/230508-1.sol\":827:856  Class(_title, _number, _date) */\n      dup2\n      mstore\n      0x20\n      add\n        /* \"contracts-lecture/230508-1.sol\":850:855  _date */\n      dup3\n        /* \"contracts-lecture/230508-1.sol\":827:856  Class(_title, _number, _date) */\n      dup2\n      mstore\n      pop\n        /* \"contracts-lecture/230508-1.sol\":823:824  c */\n      0x03\n        /* \"contracts-lecture/230508-1.sol\":823:856  c = Class(_title, _number, _date) */\n      0x00\n      dup3\n      add\n      mload\n      dup2\n      0x00\n      add\n      swap1\n      dup2\n      tag_92\n      swap2\n      swap1\n      tag_61\n      jump\t// in\n    tag_92:\n      pop\n      0x20\n      dup3\n      add\n      mload\n      dup2\n      0x01\n      add\n      sstore\n      0x40\n      dup3\n      add\n      mload\n      dup2\n      0x02\n      add\n      sstore\n      swap1\n      pop\n      pop\n        /* \"contracts-lecture/230508-1.sol\":744:863  function setC(string memory _title, uint _number, uint _date) public {... */\n      pop\n      pop\n      pop\n      jump\t// out\n        /* \"contracts-lecture/230508-1.sol\":2651:2729  function getAllDs() public view returns(D[] memory) {... */\n    tag_39:\n        /* \"contracts-lecture/230508-1.sol\":2691:2701  D[] memory */\n      0x60\n        /* \"contracts-lecture/230508-1.sol\":2720:2722  Ds */\n      0x0b\n        /* \"contracts-lecture/230508-1.sol\":2713:2722  return Ds */\n      dup1\n      sload\n      dup1\n      0x20\n      mul\n      0x20\n      add\n      mload(0x40)\n      swap1\n      dup2\n      add\n      0x40\n      mstore\n      dup1\n      swap3\n      swap2\n      swap1\n      dup2\n      dup2\n      mstore\n      0x20\n      add\n      0x00\n      swap1\n    tag_94:\n      dup3\n      dup3\n      lt\n      iszero\n      tag_95\n      jumpi\n      dup4\n      dup3\n      swap1\n      0x00\n      mstore\n      keccak256(0x00, 0x20)\n      swap1\n      0x03\n      mul\n      add\n      mload(0x40)\n      dup1\n      0x60\n      add\n      0x40\n      mstore\n      swap1\n      dup2\n      0x00\n      dup3\n      add\n      sload\n      dup2\n      mstore\n      0x20\n      add\n      0x01\n      dup3\n      add\n      dup1\n      sload\n      tag_97\n      swap1\n      tag_72\n      jump\t// in\n    tag_97:\n      dup1\n      0x1f\n      add\n      0x20\n      dup1\n      swap2\n      div\n      mul\n      0x20\n      add\n      mload(0x40)\n      swap1\n      dup2\n      add\n      0x40\n      mstore\n      dup1\n      swap3\n      swap2\n      swap1\n      dup2\n      dup2\n      mstore\n      0x20\n      add\n      dup3\n      dup1\n      sload\n      tag_98\n      swap1\n      tag_72\n      jump\t// in\n    tag_98:\n      dup1\n      iszero\n      tag_99\n      jumpi\n      dup1\n      0x1f\n      lt\n      tag_100\n      jumpi\n      0x0100\n      dup1\n      dup4\n      sload\n      div\n      mul\n      dup4\n      mstore\n      swap2\n      0x20\n      add\n      swap2\n      jump(tag_99)\n    tag_100:\n      dup3\n      add\n      swap2\n      swap1\n      0x00\n      mstore\n      keccak256(0x00, 0x20)\n      swap1\n    tag_101:\n      dup2\n      sload\n      dup2\n      mstore\n      swap1\n      0x01\n      add\n      swap1\n      0x20\n      add\n      dup1\n      dup4\n      gt\n      tag_101\n      jumpi\n      dup3\n      swap1\n      sub\n      0x1f\n      and\n      dup3\n      add\n      swap2\n    tag_99:\n      pop\n      pop\n      pop\n      pop\n      pop\n      dup2\n      mstore\n      0x20\n      add\n      0x02\n      dup3\n      add\n      0x00\n      swap1\n      sload\n      swap1\n      0x0100\n      exp\n      swap1\n      div\n      0xf0\n      shl\n      not(0xffffffffffffffffffffffffffffffffffffffffffffffffffffffffffff)\n      and\n      not(0xffffffffffffffffffffffffffffffffffffffffffffffffffffffffffff)\n      and\n      dup2\n      mstore\n      pop\n      pop\n      dup2\n      mstore\n      0x20\n      add\n      swap1\n      0x01\n      add\n      swap1\n      jump(tag_94)\n    tag_95:\n      pop\n      pop\n      pop\n      pop\n      swap1\n      pop\n        /* \"contracts-lecture/230508-1.sol\":2651:2729  function getAllDs() public view returns(D[] memory) {... */\n      swap1\n      jump\t// out\n        /* \"contracts-lecture/230508-1.sol\":1070:1145  function getC() public view returns(Class memory) {... */\n    tag_43:\n        /* \"contracts-lecture/230508-1.sol\":1106:1118  Class memory */\n      tag_102\n      tag_103\n      jump\t// in\n    tag_102:\n        /* \"contracts-lecture/230508-1.sol\":1137:1138  c */\n      0x03\n        /* \"contracts-lecture/230508-1.sol\":1130:1138  return c */\n      mload(0x40)\n      dup1\n      0x60\n      add\n      0x40\n      mstore\n      swap1\n      dup2\n      0x00\n      dup3\n      add\n      dup1\n      sload\n      tag_105\n      swap1\n      tag_72\n      jump\t// in\n    tag_105:\n      dup1\n      0x1f\n      add\n      0x20\n      dup1\n      swap2\n      div\n      mul\n      0x20\n      add\n      mload(0x40)\n      swap1\n      dup2\n      add\n      0x40\n      mstore\n      dup1\n      swap3\n      swap2\n      swap1\n      dup2\n      dup2\n      mstore\n      0x20\n      add\n      dup3\n      dup1\n      sload\n      tag_106\n      swap1\n      tag_72\n      jump\t// in\n    tag_106:\n      dup1\n      iszero\n      tag_107\n      jumpi\n      dup1\n      0x1f\n      lt\n      tag_108\n      jumpi\n      0x0100\n      dup1\n      dup4\n      sload\n      div\n      mul\n      dup4\n      mstore\n      swap2\n      0x20\n      add\n      swap2\n      jump(tag_107)\n    tag_108:\n      dup3\n      add\n      swap2\n      swap1\n      0x00\n      mstore\n      keccak256(0x00, 0x20)\n      swap1\n    tag_109:\n      dup2\n      sload\n      dup2\n      mstore\n      swap1\n      0x01\n      add\n      swap1\n      0x20\n      add\n      dup1\n      dup4\n      gt\n      tag_109\n      jumpi\n      dup3\n      swap1\n      sub\n      0x1f\n      and\n      dup3\n      add\n      swap2\n    tag_107:\n      pop\n      pop\n      pop\n      pop\n      pop\n      dup2\n      mstore\n      0x20\n      add\n      0x01\n      dup3\n      add\n      sload\n      dup2\n      mstore\n      0x20\n      add\n      0x02\n      dup3\n      add\n      sload\n      dup2\n      mstore\n      pop\n      pop\n      swap1\n      pop\n        /* \"contracts-lecture/230508-1.sol\":1070:1145  function getC() public view returns(Class memory) {... */\n      swap1\n      jump\t// out\n        /* \"contracts-lecture/230508-1.sol\":2487:2586  function pushD(uint _a, string memory _b, bytes2 _c) public {... */\n    tag_48:\n        /* \"contracts-lecture/230508-1.sol\":2557:2559  Ds */\n      0x0b\n        /* \"contracts-lecture/230508-1.sol\":2565:2578  D(_a, _b, _c) */\n      mload(0x40)\n      dup1\n      0x60\n      add\n      0x40\n      mstore\n      dup1\n        /* \"contracts-lecture/230508-1.sol\":2567:2569  _a */\n      dup6\n        /* \"contracts-lecture/230508-1.sol\":2565:2578  D(_a, _b, _c) */\n      dup2\n      mstore\n      0x20\n      add\n        /* \"contracts-lecture/230508-1.sol\":2571:2573  _b */\n      dup5\n        /* \"contracts-lecture/230508-1.sol\":2565:2578  D(_a, _b, _c) */\n      dup2\n      mstore\n      0x20\n      add\n        /* \"contracts-lecture/230508-1.sol\":2575:2577  _c */\n      dup4\n        /* \"contracts-lecture/230508-1.sol\":2565:2578  D(_a, _b, _c) */\n      not(0xffffffffffffffffffffffffffffffffffffffffffffffffffffffffffff)\n      and\n      dup2\n      mstore\n      pop\n        /* \"contracts-lecture/230508-1.sol\":2557:2579  Ds.push(D(_a, _b, _c)) */\n      swap1\n      dup1\n      0x01\n      dup2\n      sload\n      add\n      dup1\n      dup3\n      sstore\n      dup1\n      swap2\n      pop\n      pop\n      0x01\n      swap1\n      sub\n      swap1\n      0x00\n      mstore\n      keccak256(0x00, 0x20)\n      swap1\n      0x03\n      mul\n      add\n      0x00\n      swap1\n      swap2\n      swap1\n      swap2\n      swap1\n      swap2\n      pop\n      0x00\n      dup3\n      add\n      mload\n      dup2\n      0x00\n      add\n      sstore\n      0x20\n      dup3\n      add\n      mload\n      dup2\n      0x01\n      add\n      swap1\n      dup2\n      tag_112\n      swap2\n      swap1\n      tag_61\n      jump\t// in\n    tag_112:\n      pop\n      0x40\n      dup3\n      add\n      mload\n      dup2\n      0x02\n      add\n      exp(0x0100, 0x00)\n      dup2\n      sload\n      dup2\n      0xffff\n      mul\n      not\n      and\n      swap1\n      dup4\n      0xf0\n      shr\n      mul\n      or\n      swap1\n      sstore\n      pop\n      pop\n      pop\n        /* \"contracts-lecture/230508-1.sol\":2487:2586  function pushD(uint _a, string memory _b, bytes2 _c) public {... */\n      pop\n      pop\n      pop\n      jump\t// out\n        /* \"contracts-lecture/230508-1.sol\":987:1064  function getS() public view returns(Student memory) {... */\n    tag_50:\n        /* \"contracts-lecture/230508-1.sol\":1023:1037  Student memory */\n      tag_113\n      tag_114\n      jump\t// in\n    tag_113:\n        /* \"contracts-lecture/230508-1.sol\":1056:1057  s */\n      0x00\n        /* \"contracts-lecture/230508-1.sol\":1049:1057  return s */\n      mload(0x40)\n      dup1\n      0x60\n      add\n      0x40\n      mstore\n      swap1\n      dup2\n      0x00\n      dup3\n      add\n      dup1\n      sload\n      tag_116\n      swap1\n      tag_72\n      jump\t// in\n    tag_116:\n      dup1\n      0x1f\n      add\n      0x20\n      dup1\n      swap2\n      div\n      mul\n      0x20\n      add\n      mload(0x40)\n      swap1\n      dup2\n      add\n      0x40\n      mstore\n      dup1\n      swap3\n      swap2\n      swap1\n      dup2\n      dup2\n      mstore\n      0x20\n      add\n      dup3\n      dup1\n      sload\n      tag_117\n      swap1\n      tag_72\n      jump\t// in\n    tag_117:\n      dup1\n      iszero\n      tag_118\n      jumpi\n      dup1\n      0x1f\n      lt\n      tag_119\n      jumpi\n      0x0100\n      dup1\n      dup4\n      sload\n      div\n      mul\n      dup4\n      mstore\n      swap2\n      0x20\n      add\n      swap2\n      jump(tag_118)\n    tag_119:\n      dup3\n      add\n      swap2\n      swap1\n      0x00\n      mstore\n      keccak256(0x00, 0x20)\n      swap1\n    tag_120:\n      dup2\n      sload\n      dup2\n      mstore\n      swap1\n      0x01\n      add\n      swap1\n      0x20\n      add\n      dup1\n      dup4\n      gt\n      tag_120\n      jumpi\n      dup3\n      swap1\n      sub\n      0x1f\n      and\n      dup3\n      add\n      swap2\n    tag_118:\n      pop\n      pop\n      pop\n      pop\n      pop\n      dup2\n      mstore\n      0x20\n      add\n      0x01\n      dup3\n      add\n      sload\n      dup2\n      mstore\n      0x20\n      add\n      0x02\n      dup3\n      add\n      sload\n      dup2\n      mstore\n      pop\n      pop\n      swap1\n      pop\n        /* \"contracts-lecture/230508-1.sol\":987:1064  function getS() public view returns(Student memory) {... */\n      swap1\n      jump\t// out\n        /* \"contracts-lecture/230508-1.sol\":1644:1778  function pushClass(string memory _title, uint _number, uint _date) public {... */\n    tag_55:\n        /* \"contracts-lecture/230508-1.sol\":1728:1735  classes */\n      0x07\n        /* \"contracts-lecture/230508-1.sol\":1741:1770  Class(_title, _number, _date) */\n      mload(0x40)\n      dup1\n      0x60\n      add\n      0x40\n      mstore\n      dup1\n        /* \"contracts-lecture/230508-1.sol\":1747:1753  _title */\n      dup6\n        /* \"contracts-lecture/230508-1.sol\":1741:1770  Class(_title, _number, _date) */\n      dup2\n      mstore\n      0x20\n      add\n        /* \"contracts-lecture/230508-1.sol\":1755:1762  _number */\n      dup5\n        /* \"contracts-lecture/230508-1.sol\":1741:1770  Class(_title, _number, _date) */\n      dup2\n      mstore\n      0x20\n      add\n        /* \"contracts-lecture/230508-1.sol\":1764:1769  _date */\n      dup4\n        /* \"contracts-lecture/230508-1.sol\":1741:1770  Class(_title, _number, _date) */\n      dup2\n      mstore\n      pop\n        /* \"contracts-lecture/230508-1.sol\":1728:1771  classes.push(Class(_title, _number, _date)) */\n      swap1\n      dup1\n      0x01\n      dup2\n      sload\n      add\n      dup1\n      dup3\n      sstore\n      dup1\n      swap2\n      pop\n      pop\n      0x01\n      swap1\n      sub\n      swap1\n      0x00\n      mstore\n      keccak256(0x00, 0x20)\n      swap1\n      0x03\n      mul\n      add\n      0x00\n      swap1\n      swap2\n      swap1\n      swap2\n      swap1\n      swap2\n      pop\n      0x00\n      dup3\n      add\n      mload\n      dup2\n      0x00\n      add\n      swap1\n      dup2\n      tag_123\n      swap2\n      swap1\n      tag_61\n      jump\t// in\n    tag_123:\n      pop\n      0x20\n      dup3\n      add\n      mload\n      dup2\n      0x01\n      add\n      sstore\n      0x40\n      dup3\n      add\n      mload\n      dup2\n      0x02\n      add\n      sstore\n      pop\n      pop\n        /* \"contracts-lecture/230508-1.sol\":1644:1778  function pushClass(string memory _title, uint _number, uint _date) public {... */\n      pop\n      pop\n      pop\n      jump\t// out\n        /* \"contracts-lecture/230508-1.sol\":617:738  function setS(string memory _name, uint _number, uint _birth) public {... */\n    tag_58:\n        /* \"contracts-lecture/230508-1.sol\":700:731  Student(_name, _number, _birth) */\n      mload(0x40)\n      dup1\n      0x60\n      add\n      0x40\n      mstore\n      dup1\n        /* \"contracts-lecture/230508-1.sol\":708:713  _name */\n      dup5\n        /* \"contracts-lecture/230508-1.sol\":700:731  Student(_name, _number, _birth) */\n      dup2\n      mstore\n      0x20\n      add\n        /* \"contracts-lecture/230508-1.sol\":715:722  _number */\n      dup4\n        /* \"contracts-lecture/230508-1.sol\":700:731  Student(_name, _number, _birth) */\n      dup2\n      mstore\n      0x20\n      add\n        /* \"contracts-lecture/230508-1.sol\":724:730  _birth */\n      dup3\n        /* \"contracts-lecture/230508-1.sol\":700:731  Student(_name, _number, _birth) */\n      dup2\n      mstore\n      pop\n        /* \"contracts-lecture/230508-1.sol\":696:697  s */\n      0x00\n        /* \"contracts-lecture/230508-1.sol\":696:731  s = Student(_name, _number, _birth) */\n      dup1\n      dup3\n      add\n      mload\n      dup2\n      0x00\n      add\n      swap1\n      dup2\n      tag_125\n      swap2\n      swap1\n      tag_61\n      jump\t// in\n    tag_125:\n      pop\n      0x20\n      dup3\n      add\n      mload\n      dup2\n      0x01\n      add\n      sstore\n      0x40\n      dup3\n      add\n      mload\n      dup2\n      0x02\n      add\n      sstore\n      swap1\n      pop\n      pop\n        /* \"contracts-lecture/230508-1.sol\":617:738  function setS(string memory _name, uint _number, uint _birth) public {... */\n      pop\n      pop\n      pop\n      jump\t// out\n    tag_63:\n      mload(0x40)\n      dup1\n      0x60\n      add\n      0x40\n      mstore\n      dup1\n      0x00\n      dup2\n      mstore\n      0x20\n      add\n      0x60\n      dup2\n      mstore\n      0x20\n      add\n      and(not(0xffffffffffffffffffffffffffffffffffffffffffffffffffffffffffff), 0x00)\n      dup2\n      mstore\n      pop\n      swap1\n      jump\t// out\n    tag_103:\n      mload(0x40)\n      dup1\n      0x60\n      add\n      0x40\n      mstore\n      dup1\n      0x60\n      dup2\n      mstore\n      0x20\n      add\n      0x00\n      dup2\n      mstore\n      0x20\n      add\n      0x00\n      dup2\n      mstore\n      pop\n      swap1\n      jump\t// out\n    tag_114:\n      mload(0x40)\n      dup1\n      0x60\n      add\n      0x40\n      mstore\n      dup1\n      0x60\n      dup2\n      mstore\n      0x20\n      add\n      0x00\n      dup2\n      mstore\n      0x20\n      add\n      0x00\n      dup2\n      mstore\n      pop\n      swap1\n      jump\t// out\n        /* \"#utility.yul\":7:82   */\n    tag_126:\n        /* \"#utility.yul\":40:46   */\n      0x00\n        /* \"#utility.yul\":73:75   */\n      0x40\n        /* \"#utility.yul\":67:76   */\n      mload\n        /* \"#utility.yul\":57:76   */\n      swap1\n      pop\n        /* \"#utility.yul\":7:82   */\n      swap1\n      jump\t// out\n        /* \"#utility.yul\":88:205   */\n    tag_127:\n        /* \"#utility.yul\":197:198   */\n      0x00\n        /* \"#utility.yul\":194:195   */\n      dup1\n        /* \"#utility.yul\":187:199   */\n      revert\n        /* \"#utility.yul\":211:328   */\n    tag_128:\n        /* \"#utility.yul\":320:321   */\n      0x00\n        /* \"#utility.yul\":317:318   */\n      dup1\n        /* \"#utility.yul\":310:322   */\n      revert\n        /* \"#utility.yul\":334:411   */\n    tag_129:\n        /* \"#utility.yul\":371:378   */\n      0x00\n        /* \"#utility.yul\":400:405   */\n      dup2\n        /* \"#utility.yul\":389:405   */\n      swap1\n      pop\n        /* \"#utility.yul\":334:411   */\n      swap2\n      swap1\n      pop\n      jump\t// out\n        /* \"#utility.yul\":417:539   */\n    tag_130:\n        /* \"#utility.yul\":490:514   */\n      tag_185\n        /* \"#utility.yul\":508:513   */\n      dup2\n        /* \"#utility.yul\":490:514   */\n      tag_129\n      jump\t// in\n    tag_185:\n        /* \"#utility.yul\":483:488   */\n      dup2\n        /* \"#utility.yul\":480:515   */\n      eq\n        /* \"#utility.yul\":470:533   */\n      tag_186\n      jumpi\n        /* \"#utility.yul\":529:530   */\n      0x00\n        /* \"#utility.yul\":526:527   */\n      dup1\n        /* \"#utility.yul\":519:531   */\n      revert\n        /* \"#utility.yul\":470:533   */\n    tag_186:\n        /* \"#utility.yul\":417:539   */\n      pop\n      jump\t// out\n        /* \"#utility.yul\":545:684   */\n    tag_131:\n        /* \"#utility.yul\":591:596   */\n      0x00\n        /* \"#utility.yul\":629:635   */\n      dup2\n        /* \"#utility.yul\":616:636   */\n      calldataload\n        /* \"#utility.yul\":607:636   */\n      swap1\n      pop\n        /* \"#utility.yul\":645:678   */\n      tag_188\n        /* \"#utility.yul\":672:677   */\n      dup2\n        /* \"#utility.yul\":645:678   */\n      tag_130\n      jump\t// in\n    tag_188:\n        /* \"#utility.yul\":545:684   */\n      swap3\n      swap2\n      pop\n      pop\n      jump\t// out\n        /* \"#utility.yul\":690:807   */\n    tag_132:\n        /* \"#utility.yul\":799:800   */\n      0x00\n        /* \"#utility.yul\":796:797   */\n      dup1\n        /* \"#utility.yul\":789:801   */\n      revert\n        /* \"#utility.yul\":813:930   */\n    tag_133:\n        /* \"#utility.yul\":922:923   */\n      0x00\n        /* \"#utility.yul\":919:920   */\n      dup1\n        /* \"#utility.yul\":912:924   */\n      revert\n        /* \"#utility.yul\":936:1038   */\n    tag_134:\n        /* \"#utility.yul\":977:983   */\n      0x00\n        /* \"#utility.yul\":1028:1030   */\n      0x1f\n        /* \"#utility.yul\":1024:1031   */\n      not\n        /* \"#utility.yul\":1019:1021   */\n      0x1f\n        /* \"#utility.yul\":1012:1017   */\n      dup4\n        /* \"#utility.yul\":1008:1022   */\n      add\n        /* \"#utility.yul\":1004:1032   */\n      and\n        /* \"#utility.yul\":994:1032   */\n      swap1\n      pop\n        /* \"#utility.yul\":936:1038   */\n      swap2\n      swap1\n      pop\n      jump\t// out\n        /* \"#utility.yul\":1044:1224   */\n    tag_135:\n        /* \"#utility.yul\":1092:1169   */\n      0x4e487b7100000000000000000000000000000000000000000000000000000000\n        /* \"#utility.yul\":1089:1090   */\n      0x00\n        /* \"#utility.yul\":1082:1170   */\n      mstore\n        /* \"#utility.yul\":1189:1193   */\n      0x41\n        /* \"#utility.yul\":1186:1187   */\n      0x04\n        /* \"#utility.yul\":1179:1194   */\n      mstore\n        /* \"#utility.yul\":1213:1217   */\n      0x24\n        /* \"#utility.yul\":1210:1211   */\n      0x00\n        /* \"#utility.yul\":1203:1218   */\n      revert\n        /* \"#utility.yul\":1230:1511   */\n    tag_136:\n        /* \"#utility.yul\":1313:1340   */\n      tag_194\n        /* \"#utility.yul\":1335:1339   */\n      dup3\n        /* \"#utility.yul\":1313:1340   */\n      tag_134\n      jump\t// in\n    tag_194:\n        /* \"#utility.yul\":1305:1311   */\n      dup2\n        /* \"#utility.yul\":1301:1341   */\n      add\n        /* \"#utility.yul\":1443:1449   */\n      dup2\n        /* \"#utility.yul\":1431:1441   */\n      dup2\n        /* \"#utility.yul\":1428:1450   */\n      lt\n        /* \"#utility.yul\":1407:1425   */\n      0xffffffffffffffff\n        /* \"#utility.yul\":1395:1405   */\n      dup3\n        /* \"#utility.yul\":1392:1426   */\n      gt\n        /* \"#utility.yul\":1389:1451   */\n      or\n        /* \"#utility.yul\":1386:1474   */\n      iszero\n      tag_195\n      jumpi\n        /* \"#utility.yul\":1454:1472   */\n      tag_196\n      tag_135\n      jump\t// in\n    tag_196:\n        /* \"#utility.yul\":1386:1474   */\n    tag_195:\n        /* \"#utility.yul\":1494:1504   */\n      dup1\n        /* \"#utility.yul\":1490:1492   */\n      0x40\n        /* \"#utility.yul\":1483:1505   */\n      mstore\n        /* \"#utility.yul\":1273:1511   */\n      pop\n        /* \"#utility.yul\":1230:1511   */\n      pop\n      pop\n      jump\t// out\n        /* \"#utility.yul\":1517:1646   */\n    tag_137:\n        /* \"#utility.yul\":1551:1557   */\n      0x00\n        /* \"#utility.yul\":1578:1598   */\n      tag_198\n      tag_126\n      jump\t// in\n    tag_198:\n        /* \"#utility.yul\":1568:1598   */\n      swap1\n      pop\n        /* \"#utility.yul\":1607:1640   */\n      tag_199\n        /* \"#utility.yul\":1635:1639   */\n      dup3\n        /* \"#utility.yul\":1627:1633   */\n      dup3\n        /* \"#utility.yul\":1607:1640   */\n      tag_136\n      jump\t// in\n    tag_199:\n        /* \"#utility.yul\":1517:1646   */\n      swap2\n      swap1\n      pop\n      jump\t// out\n        /* \"#utility.yul\":1652:1960   */\n    tag_138:\n        /* \"#utility.yul\":1714:1718   */\n      0x00\n        /* \"#utility.yul\":1804:1822   */\n      0xffffffffffffffff\n        /* \"#utility.yul\":1796:1802   */\n      dup3\n        /* \"#utility.yul\":1793:1823   */\n      gt\n        /* \"#utility.yul\":1790:1846   */\n      iszero\n      tag_201\n      jumpi\n        /* \"#utility.yul\":1826:1844   */\n      tag_202\n      tag_135\n      jump\t// in\n    tag_202:\n        /* \"#utility.yul\":1790:1846   */\n    tag_201:\n        /* \"#utility.yul\":1864:1893   */\n      tag_203\n        /* \"#utility.yul\":1886:1892   */\n      dup3\n        /* \"#utility.yul\":1864:1893   */\n      tag_134\n      jump\t// in\n    tag_203:\n        /* \"#utility.yul\":1856:1893   */\n      swap1\n      pop\n        /* \"#utility.yul\":1948:1952   */\n      0x20\n        /* \"#utility.yul\":1942:1946   */\n      dup2\n        /* \"#utility.yul\":1938:1953   */\n      add\n        /* \"#utility.yul\":1930:1953   */\n      swap1\n      pop\n        /* \"#utility.yul\":1652:1960   */\n      swap2\n      swap1\n      pop\n      jump\t// out\n        /* \"#utility.yul\":1966:2112   */\n    tag_139:\n        /* \"#utility.yul\":2063:2069   */\n      dup3\n        /* \"#utility.yul\":2058:2061   */\n      dup2\n        /* \"#utility.yul\":2053:2056   */\n      dup4\n        /* \"#utility.yul\":2040:2070   */\n      calldatacopy\n        /* \"#utility.yul\":2104:2105   */\n      0x00\n        /* \"#utility.yul\":2095:2101   */\n      dup4\n        /* \"#utility.yul\":2090:2093   */\n      dup4\n        /* \"#utility.yul\":2086:2102   */\n      add\n        /* \"#utility.yul\":2079:2106   */\n      mstore\n        /* \"#utility.yul\":1966:2112   */\n      pop\n      pop\n      pop\n      jump\t// out\n        /* \"#utility.yul\":2118:2543   */\n    tag_140:\n        /* \"#utility.yul\":2196:2201   */\n      0x00\n        /* \"#utility.yul\":2221:2287   */\n      tag_206\n        /* \"#utility.yul\":2237:2286   */\n      tag_207\n        /* \"#utility.yul\":2279:2285   */\n      dup5\n        /* \"#utility.yul\":2237:2286   */\n      tag_138\n      jump\t// in\n    tag_207:\n        /* \"#utility.yul\":2221:2287   */\n      tag_137\n      jump\t// in\n    tag_206:\n        /* \"#utility.yul\":2212:2287   */\n      swap1\n      pop\n        /* \"#utility.yul\":2310:2316   */\n      dup3\n        /* \"#utility.yul\":2303:2308   */\n      dup2\n        /* \"#utility.yul\":2296:2317   */\n      mstore\n        /* \"#utility.yul\":2348:2352   */\n      0x20\n        /* \"#utility.yul\":2341:2346   */\n      dup2\n        /* \"#utility.yul\":2337:2353   */\n      add\n        /* \"#utility.yul\":2386:2389   */\n      dup5\n        /* \"#utility.yul\":2377:2383   */\n      dup5\n        /* \"#utility.yul\":2372:2375   */\n      dup5\n        /* \"#utility.yul\":2368:2384   */\n      add\n        /* \"#utility.yul\":2365:2390   */\n      gt\n        /* \"#utility.yul\":2362:2474   */\n      iszero\n      tag_208\n      jumpi\n        /* \"#utility.yul\":2393:2472   */\n      tag_209\n      tag_133\n      jump\t// in\n    tag_209:\n        /* \"#utility.yul\":2362:2474   */\n    tag_208:\n        /* \"#utility.yul\":2483:2537   */\n      tag_210\n        /* \"#utility.yul\":2530:2536   */\n      dup5\n        /* \"#utility.yul\":2525:2528   */\n      dup3\n        /* \"#utility.yul\":2520:2523   */\n      dup6\n        /* \"#utility.yul\":2483:2537   */\n      tag_139\n      jump\t// in\n    tag_210:\n        /* \"#utility.yul\":2202:2543   */\n      pop\n        /* \"#utility.yul\":2118:2543   */\n      swap4\n      swap3\n      pop\n      pop\n      pop\n      jump\t// out\n        /* \"#utility.yul\":2563:2903   */\n    tag_141:\n        /* \"#utility.yul\":2619:2624   */\n      0x00\n        /* \"#utility.yul\":2668:2671   */\n      dup3\n        /* \"#utility.yul\":2661:2665   */\n      0x1f\n        /* \"#utility.yul\":2653:2659   */\n      dup4\n        /* \"#utility.yul\":2649:2666   */\n      add\n        /* \"#utility.yul\":2645:2672   */\n      slt\n        /* \"#utility.yul\":2635:2757   */\n      tag_212\n      jumpi\n        /* \"#utility.yul\":2676:2755   */\n      tag_213\n      tag_132\n      jump\t// in\n    tag_213:\n        /* \"#utility.yul\":2635:2757   */\n    tag_212:\n        /* \"#utility.yul\":2793:2799   */\n      dup2\n        /* \"#utility.yul\":2780:2800   */\n      calldataload\n        /* \"#utility.yul\":2818:2897   */\n      tag_214\n        /* \"#utility.yul\":2893:2896   */\n      dup5\n        /* \"#utility.yul\":2885:2891   */\n      dup3\n        /* \"#utility.yul\":2878:2882   */\n      0x20\n        /* \"#utility.yul\":2870:2876   */\n      dup7\n        /* \"#utility.yul\":2866:2883   */\n      add\n        /* \"#utility.yul\":2818:2897   */\n      tag_140\n      jump\t// in\n    tag_214:\n        /* \"#utility.yul\":2809:2897   */\n      swap2\n      pop\n        /* \"#utility.yul\":2625:2903   */\n      pop\n        /* \"#utility.yul\":2563:2903   */\n      swap3\n      swap2\n      pop\n      pop\n      jump\t// out\n        /* \"#utility.yul\":2909:3058   */\n    tag_142:\n        /* \"#utility.yul\":2945:2952   */\n      0x00\n        /* \"#utility.yul\":2985:3051   */\n      0xffff000000000000000000000000000000000000000000000000000000000000\n        /* \"#utility.yul\":2978:2983   */\n      dup3\n        /* \"#utility.yul\":2974:3052   */\n      and\n        /* \"#utility.yul\":2963:3052   */\n      swap1\n      pop\n        /* \"#utility.yul\":2909:3058   */\n      swap2\n      swap1\n      pop\n      jump\t// out\n        /* \"#utility.yul\":3064:3184   */\n    tag_143:\n        /* \"#utility.yul\":3136:3159   */\n      tag_217\n        /* \"#utility.yul\":3153:3158   */\n      dup2\n        /* \"#utility.yul\":3136:3159   */\n      tag_142\n      jump\t// in\n    tag_217:\n        /* \"#utility.yul\":3129:3134   */\n      dup2\n        /* \"#utility.yul\":3126:3160   */\n      eq\n        /* \"#utility.yul\":3116:3178   */\n      tag_218\n      jumpi\n        /* \"#utility.yul\":3174:3175   */\n      0x00\n        /* \"#utility.yul\":3171:3172   */\n      dup1\n        /* \"#utility.yul\":3164:3176   */\n      revert\n        /* \"#utility.yul\":3116:3178   */\n    tag_218:\n        /* \"#utility.yul\":3064:3184   */\n      pop\n      jump\t// out\n        /* \"#utility.yul\":3190:3327   */\n    tag_144:\n        /* \"#utility.yul\":3235:3240   */\n      0x00\n        /* \"#utility.yul\":3273:3279   */\n      dup2\n        /* \"#utility.yul\":3260:3280   */\n      calldataload\n        /* \"#utility.yul\":3251:3280   */\n      swap1\n      pop\n        /* \"#utility.yul\":3289:3321   */\n      tag_220\n        /* \"#utility.yul\":3315:3320   */\n      dup2\n        /* \"#utility.yul\":3289:3321   */\n      tag_143\n      jump\t// in\n    tag_220:\n        /* \"#utility.yul\":3190:3327   */\n      swap3\n      swap2\n      pop\n      pop\n      jump\t// out\n        /* \"#utility.yul\":3333:4130   */\n    tag_18:\n        /* \"#utility.yul\":3419:3425   */\n      0x00\n        /* \"#utility.yul\":3427:3433   */\n      dup1\n        /* \"#utility.yul\":3435:3441   */\n      0x00\n        /* \"#utility.yul\":3484:3486   */\n      0x60\n        /* \"#utility.yul\":3472:3481   */\n      dup5\n        /* \"#utility.yul\":3463:3470   */\n      dup7\n        /* \"#utility.yul\":3459:3482   */\n      sub\n        /* \"#utility.yul\":3455:3487   */\n      slt\n        /* \"#utility.yul\":3452:3571   */\n      iszero\n      tag_222\n      jumpi\n        /* \"#utility.yul\":3490:3569   */\n      tag_223\n      tag_127\n      jump\t// in\n    tag_223:\n        /* \"#utility.yul\":3452:3571   */\n    tag_222:\n        /* \"#utility.yul\":3610:3611   */\n      0x00\n        /* \"#utility.yul\":3635:3688   */\n      tag_224\n        /* \"#utility.yul\":3680:3687   */\n      dup7\n        /* \"#utility.yul\":3671:3677   */\n      dup3\n        /* \"#utility.yul\":3660:3669   */\n      dup8\n        /* \"#utility.yul\":3656:3678   */\n      add\n        /* \"#utility.yul\":3635:3688   */\n      tag_131\n      jump\t// in\n    tag_224:\n        /* \"#utility.yul\":3625:3688   */\n      swap4\n      pop\n        /* \"#utility.yul\":3581:3698   */\n      pop\n        /* \"#utility.yul\":3765:3767   */\n      0x20\n        /* \"#utility.yul\":3754:3763   */\n      dup5\n        /* \"#utility.yul\":3750:3768   */\n      add\n        /* \"#utility.yul\":3737:3769   */\n      calldataload\n        /* \"#utility.yul\":3796:3814   */\n      0xffffffffffffffff\n        /* \"#utility.yul\":3788:3794   */\n      dup2\n        /* \"#utility.yul\":3785:3815   */\n      gt\n        /* \"#utility.yul\":3782:3899   */\n      iszero\n      tag_225\n      jumpi\n        /* \"#utility.yul\":3818:3897   */\n      tag_226\n      tag_128\n      jump\t// in\n    tag_226:\n        /* \"#utility.yul\":3782:3899   */\n    tag_225:\n        /* \"#utility.yul\":3923:3986   */\n      tag_227\n        /* \"#utility.yul\":3978:3985   */\n      dup7\n        /* \"#utility.yul\":3969:3975   */\n      dup3\n        /* \"#utility.yul\":3958:3967   */\n      dup8\n        /* \"#utility.yul\":3954:3976   */\n      add\n        /* \"#utility.yul\":3923:3986   */\n      tag_141\n      jump\t// in\n    tag_227:\n        /* \"#utility.yul\":3913:3986   */\n      swap3\n      pop\n        /* \"#utility.yul\":3708:3996   */\n      pop\n        /* \"#utility.yul\":4035:4037   */\n      0x40\n        /* \"#utility.yul\":4061:4113   */\n      tag_228\n        /* \"#utility.yul\":4105:4112   */\n      dup7\n        /* \"#utility.yul\":4096:4102   */\n      dup3\n        /* \"#utility.yul\":4085:4094   */\n      dup8\n        /* \"#utility.yul\":4081:4103   */\n      add\n        /* \"#utility.yul\":4061:4113   */\n      tag_144\n      jump\t// in\n    tag_228:\n        /* \"#utility.yul\":4051:4113   */\n      swap2\n      pop\n        /* \"#utility.yul\":4006:4123   */\n      pop\n        /* \"#utility.yul\":3333:4130   */\n      swap3\n      pop\n      swap3\n      pop\n      swap3\n      jump\t// out\n        /* \"#utility.yul\":4136:4465   */\n    tag_22:\n        /* \"#utility.yul\":4195:4201   */\n      0x00\n        /* \"#utility.yul\":4244:4246   */\n      0x20\n        /* \"#utility.yul\":4232:4241   */\n      dup3\n        /* \"#utility.yul\":4223:4230   */\n      dup5\n        /* \"#utility.yul\":4219:4242   */\n      sub\n        /* \"#utility.yul\":4215:4247   */\n      slt\n        /* \"#utility.yul\":4212:4331   */\n      iszero\n      tag_230\n      jumpi\n        /* \"#utility.yul\":4250:4329   */\n      tag_231\n      tag_127\n      jump\t// in\n    tag_231:\n        /* \"#utility.yul\":4212:4331   */\n    tag_230:\n        /* \"#utility.yul\":4370:4371   */\n      0x00\n        /* \"#utility.yul\":4395:4448   */\n      tag_232\n        /* \"#utility.yul\":4440:4447   */\n      dup5\n        /* \"#utility.yul\":4431:4437   */\n      dup3\n        /* \"#utility.yul\":4420:4429   */\n      dup6\n        /* \"#utility.yul\":4416:4438   */\n      add\n        /* \"#utility.yul\":4395:4448   */\n      tag_131\n      jump\t// in\n    tag_232:\n        /* \"#utility.yul\":4385:4448   */\n      swap2\n      pop\n        /* \"#utility.yul\":4341:4458   */\n      pop\n        /* \"#utility.yul\":4136:4465   */\n      swap3\n      swap2\n      pop\n      pop\n      jump\t// out\n        /* \"#utility.yul\":4471:4579   */\n    tag_145:\n        /* \"#utility.yul\":4548:4572   */\n      tag_234\n        /* \"#utility.yul\":4566:4571   */\n      dup2\n        /* \"#utility.yul\":4548:4572   */\n      tag_129\n      jump\t// in\n    tag_234:\n        /* \"#utility.yul\":4543:4546   */\n      dup3\n        /* \"#utility.yul\":4536:4573   */\n      mstore\n        /* \"#utility.yul\":4471:4579   */\n      pop\n      pop\n      jump\t// out\n        /* \"#utility.yul\":4585:4684   */\n    tag_146:\n        /* \"#utility.yul\":4637:4643   */\n      0x00\n        /* \"#utility.yul\":4671:4676   */\n      dup2\n        /* \"#utility.yul\":4665:4677   */\n      mload\n        /* \"#utility.yul\":4655:4677   */\n      swap1\n      pop\n        /* \"#utility.yul\":4585:4684   */\n      swap2\n      swap1\n      pop\n      jump\t// out\n        /* \"#utility.yul\":4690:4849   */\n    tag_147:\n        /* \"#utility.yul\":4764:4775   */\n      0x00\n        /* \"#utility.yul\":4798:4804   */\n      dup3\n        /* \"#utility.yul\":4793:4796   */\n      dup3\n        /* \"#utility.yul\":4786:4805   */\n      mstore\n        /* \"#utility.yul\":4838:4842   */\n      0x20\n        /* \"#utility.yul\":4833:4836   */\n      dup3\n        /* \"#utility.yul\":4829:4843   */\n      add\n        /* \"#utility.yul\":4814:4843   */\n      swap1\n      pop\n        /* \"#utility.yul\":4690:4849   */\n      swap3\n      swap2\n      pop\n      pop\n      jump\t// out\n        /* \"#utility.yul\":4855:5101   */\n    tag_148:\n        /* \"#utility.yul\":4936:4937   */\n      0x00\n        /* \"#utility.yul\":4946:5059   */\n    tag_238:\n        /* \"#utility.yul\":4960:4966   */\n      dup4\n        /* \"#utility.yul\":4957:4958   */\n      dup2\n        /* \"#utility.yul\":4954:4967   */\n      lt\n        /* \"#utility.yul\":4946:5059   */\n      iszero\n      tag_240\n      jumpi\n        /* \"#utility.yul\":5045:5046   */\n      dup1\n        /* \"#utility.yul\":5040:5043   */\n      dup3\n        /* \"#utility.yul\":5036:5047   */\n      add\n        /* \"#utility.yul\":5030:5048   */\n      mload\n        /* \"#utility.yul\":5026:5027   */\n      dup2\n        /* \"#utility.yul\":5021:5024   */\n      dup5\n        /* \"#utility.yul\":5017:5028   */\n      add\n        /* \"#utility.yul\":5010:5049   */\n      mstore\n        /* \"#utility.yul\":4982:4984   */\n      0x20\n        /* \"#utility.yul\":4979:4980   */\n      dup2\n        /* \"#utility.yul\":4975:4985   */\n      add\n        /* \"#utility.yul\":4970:4985   */\n      swap1\n      pop\n        /* \"#utility.yul\":4946:5059   */\n      jump(tag_238)\n    tag_240:\n        /* \"#utility.yul\":5093:5094   */\n      0x00\n        /* \"#utility.yul\":5084:5090   */\n      dup5\n        /* \"#utility.yul\":5079:5082   */\n      dup5\n        /* \"#utility.yul\":5075:5091   */\n      add\n        /* \"#utility.yul\":5068:5095   */\n      mstore\n        /* \"#utility.yul\":4917:5101   */\n      pop\n        /* \"#utility.yul\":4855:5101   */\n      pop\n      pop\n      pop\n      jump\t// out\n        /* \"#utility.yul\":5107:5464   */\n    tag_149:\n        /* \"#utility.yul\":5185:5188   */\n      0x00\n        /* \"#utility.yul\":5213:5252   */\n      tag_242\n        /* \"#utility.yul\":5246:5251   */\n      dup3\n        /* \"#utility.yul\":5213:5252   */\n      tag_146\n      jump\t// in\n    tag_242:\n        /* \"#utility.yul\":5268:5329   */\n      tag_243\n        /* \"#utility.yul\":5322:5328   */\n      dup2\n        /* \"#utility.yul\":5317:5320   */\n      dup6\n        /* \"#utility.yul\":5268:5329   */\n      tag_147\n      jump\t// in\n    tag_243:\n        /* \"#utility.yul\":5261:5329   */\n      swap4\n      pop\n        /* \"#utility.yul\":5338:5403   */\n      tag_244\n        /* \"#utility.yul\":5396:5402   */\n      dup2\n        /* \"#utility.yul\":5391:5394   */\n      dup6\n        /* \"#utility.yul\":5384:5388   */\n      0x20\n        /* \"#utility.yul\":5377:5382   */\n      dup7\n        /* \"#utility.yul\":5373:5389   */\n      add\n        /* \"#utility.yul\":5338:5403   */\n      tag_148\n      jump\t// in\n    tag_244:\n        /* \"#utility.yul\":5428:5457   */\n      tag_245\n        /* \"#utility.yul\":5450:5456   */\n      dup2\n        /* \"#utility.yul\":5428:5457   */\n      tag_134\n      jump\t// in\n    tag_245:\n        /* \"#utility.yul\":5423:5426   */\n      dup5\n        /* \"#utility.yul\":5419:5458   */\n      add\n        /* \"#utility.yul\":5412:5458   */\n      swap2\n      pop\n        /* \"#utility.yul\":5189:5464   */\n      pop\n        /* \"#utility.yul\":5107:5464   */\n      swap3\n      swap2\n      pop\n      pop\n      jump\t// out\n        /* \"#utility.yul\":5470:5575   */\n    tag_150:\n        /* \"#utility.yul\":5545:5568   */\n      tag_247\n        /* \"#utility.yul\":5562:5567   */\n      dup2\n        /* \"#utility.yul\":5545:5568   */\n      tag_142\n      jump\t// in\n    tag_247:\n        /* \"#utility.yul\":5540:5543   */\n      dup3\n        /* \"#utility.yul\":5533:5569   */\n      mstore\n        /* \"#utility.yul\":5470:5575   */\n      pop\n      pop\n      jump\t// out\n        /* \"#utility.yul\":5619:6374   */\n    tag_151:\n        /* \"#utility.yul\":5724:5727   */\n      0x00\n        /* \"#utility.yul\":5760:5764   */\n      0x60\n        /* \"#utility.yul\":5755:5758   */\n      dup4\n        /* \"#utility.yul\":5751:5765   */\n      add\n        /* \"#utility.yul\":5844:5848   */\n      0x00\n        /* \"#utility.yul\":5837:5842   */\n      dup4\n        /* \"#utility.yul\":5833:5849   */\n      add\n        /* \"#utility.yul\":5827:5850   */\n      mload\n        /* \"#utility.yul\":5863:5926   */\n      tag_249\n        /* \"#utility.yul\":5920:5924   */\n      0x00\n        /* \"#utility.yul\":5915:5918   */\n      dup7\n        /* \"#utility.yul\":5911:5925   */\n      add\n        /* \"#utility.yul\":5897:5909   */\n      dup3\n        /* \"#utility.yul\":5863:5926   */\n      tag_145\n      jump\t// in\n    tag_249:\n        /* \"#utility.yul\":5775:5936   */\n      pop\n        /* \"#utility.yul\":6015:6019   */\n      0x20\n        /* \"#utility.yul\":6008:6013   */\n      dup4\n        /* \"#utility.yul\":6004:6020   */\n      add\n        /* \"#utility.yul\":5998:6021   */\n      mload\n        /* \"#utility.yul\":6068:6071   */\n      dup5\n        /* \"#utility.yul\":6062:6066   */\n      dup3\n        /* \"#utility.yul\":6058:6072   */\n      sub\n        /* \"#utility.yul\":6051:6055   */\n      0x20\n        /* \"#utility.yul\":6046:6049   */\n      dup7\n        /* \"#utility.yul\":6042:6056   */\n      add\n        /* \"#utility.yul\":6035:6073   */\n      mstore\n        /* \"#utility.yul\":6094:6167   */\n      tag_250\n        /* \"#utility.yul\":6162:6166   */\n      dup3\n        /* \"#utility.yul\":6148:6160   */\n      dup3\n        /* \"#utility.yul\":6094:6167   */\n      tag_149\n      jump\t// in\n    tag_250:\n        /* \"#utility.yul\":6086:6167   */\n      swap2\n      pop\n        /* \"#utility.yul\":5946:6178   */\n      pop\n        /* \"#utility.yul\":6257:6261   */\n      0x40\n        /* \"#utility.yul\":6250:6255   */\n      dup4\n        /* \"#utility.yul\":6246:6262   */\n      add\n        /* \"#utility.yul\":6240:6263   */\n      mload\n        /* \"#utility.yul\":6276:6337   */\n      tag_251\n        /* \"#utility.yul\":6331:6335   */\n      0x40\n        /* \"#utility.yul\":6326:6329   */\n      dup7\n        /* \"#utility.yul\":6322:6336   */\n      add\n        /* \"#utility.yul\":6308:6320   */\n      dup3\n        /* \"#utility.yul\":6276:6337   */\n      tag_150\n      jump\t// in\n    tag_251:\n        /* \"#utility.yul\":6188:6347   */\n      pop\n        /* \"#utility.yul\":6364:6368   */\n      dup1\n        /* \"#utility.yul\":6357:6368   */\n      swap2\n      pop\n        /* \"#utility.yul\":5729:6374   */\n      pop\n        /* \"#utility.yul\":5619:6374   */\n      swap3\n      swap2\n      pop\n      pop\n      jump\t// out\n        /* \"#utility.yul\":6380:6725   */\n    tag_25:\n        /* \"#utility.yul\":6509:6513   */\n      0x00\n        /* \"#utility.yul\":6547:6549   */\n      0x20\n        /* \"#utility.yul\":6536:6545   */\n      dup3\n        /* \"#utility.yul\":6532:6550   */\n      add\n        /* \"#utility.yul\":6524:6550   */\n      swap1\n      pop\n        /* \"#utility.yul\":6596:6605   */\n      dup2\n        /* \"#utility.yul\":6590:6594   */\n      dup2\n        /* \"#utility.yul\":6586:6606   */\n      sub\n        /* \"#utility.yul\":6582:6583   */\n      0x00\n        /* \"#utility.yul\":6571:6580   */\n      dup4\n        /* \"#utility.yul\":6567:6584   */\n      add\n        /* \"#utility.yul\":6560:6607   */\n      mstore\n        /* \"#utility.yul\":6624:6718   */\n      tag_253\n        /* \"#utility.yul\":6713:6717   */\n      dup2\n        /* \"#utility.yul\":6704:6710   */\n      dup5\n        /* \"#utility.yul\":6624:6718   */\n      tag_151\n      jump\t// in\n    tag_253:\n        /* \"#utility.yul\":6616:6718   */\n      swap1\n      pop\n        /* \"#utility.yul\":6380:6725   */\n      swap3\n      swap2\n      pop\n      pop\n      jump\t// out\n        /* \"#utility.yul\":6731:7530   */\n    tag_28:\n        /* \"#utility.yul\":6818:6824   */\n      0x00\n        /* \"#utility.yul\":6826:6832   */\n      dup1\n        /* \"#utility.yul\":6834:6840   */\n      0x00\n        /* \"#utility.yul\":6883:6885   */\n      0x60\n        /* \"#utility.yul\":6871:6880   */\n      dup5\n        /* \"#utility.yul\":6862:6869   */\n      dup7\n        /* \"#utility.yul\":6858:6881   */\n      sub\n        /* \"#utility.yul\":6854:6886   */\n      slt\n        /* \"#utility.yul\":6851:6970   */\n      iszero\n      tag_255\n      jumpi\n        /* \"#utility.yul\":6889:6968   */\n      tag_256\n      tag_127\n      jump\t// in\n    tag_256:\n        /* \"#utility.yul\":6851:6970   */\n    tag_255:\n        /* \"#utility.yul\":7037:7038   */\n      0x00\n        /* \"#utility.yul\":7026:7035   */\n      dup5\n        /* \"#utility.yul\":7022:7039   */\n      add\n        /* \"#utility.yul\":7009:7040   */\n      calldataload\n        /* \"#utility.yul\":7067:7085   */\n      0xffffffffffffffff\n        /* \"#utility.yul\":7059:7065   */\n      dup2\n        /* \"#utility.yul\":7056:7086   */\n      gt\n        /* \"#utility.yul\":7053:7170   */\n      iszero\n      tag_257\n      jumpi\n        /* \"#utility.yul\":7089:7168   */\n      tag_258\n      tag_128\n      jump\t// in\n    tag_258:\n        /* \"#utility.yul\":7053:7170   */\n    tag_257:\n        /* \"#utility.yul\":7194:7257   */\n      tag_259\n        /* \"#utility.yul\":7249:7256   */\n      dup7\n        /* \"#utility.yul\":7240:7246   */\n      dup3\n        /* \"#utility.yul\":7229:7238   */\n      dup8\n        /* \"#utility.yul\":7225:7247   */\n      add\n        /* \"#utility.yul\":7194:7257   */\n      tag_141\n      jump\t// in\n    tag_259:\n        /* \"#utility.yul\":7184:7257   */\n      swap4\n      pop\n        /* \"#utility.yul\":6980:7267   */\n      pop\n        /* \"#utility.yul\":7306:7308   */\n      0x20\n        /* \"#utility.yul\":7332:7385   */\n      tag_260\n        /* \"#utility.yul\":7377:7384   */\n      dup7\n        /* \"#utility.yul\":7368:7374   */\n      dup3\n        /* \"#utility.yul\":7357:7366   */\n      dup8\n        /* \"#utility.yul\":7353:7375   */\n      add\n        /* \"#utility.yul\":7332:7385   */\n      tag_131\n      jump\t// in\n    tag_260:\n        /* \"#utility.yul\":7322:7385   */\n      swap3\n      pop\n        /* \"#utility.yul\":7277:7395   */\n      pop\n        /* \"#utility.yul\":7434:7436   */\n      0x40\n        /* \"#utility.yul\":7460:7513   */\n      tag_261\n        /* \"#utility.yul\":7505:7512   */\n      dup7\n        /* \"#utility.yul\":7496:7502   */\n      dup3\n        /* \"#utility.yul\":7485:7494   */\n      dup8\n        /* \"#utility.yul\":7481:7503   */\n      add\n        /* \"#utility.yul\":7460:7513   */\n      tag_131\n      jump\t// in\n    tag_261:\n        /* \"#utility.yul\":7450:7513   */\n      swap2\n      pop\n        /* \"#utility.yul\":7405:7523   */\n      pop\n        /* \"#utility.yul\":6731:7530   */\n      swap3\n      pop\n      swap3\n      pop\n      swap3\n      jump\t// out\n        /* \"#utility.yul\":7536:7668   */\n    tag_152:\n        /* \"#utility.yul\":7621:7627   */\n      0x00\n        /* \"#utility.yul\":7655:7660   */\n      dup2\n        /* \"#utility.yul\":7649:7661   */\n      mload\n        /* \"#utility.yul\":7639:7661   */\n      swap1\n      pop\n        /* \"#utility.yul\":7536:7668   */\n      swap2\n      swap1\n      pop\n      jump\t// out\n        /* \"#utility.yul\":7674:7876   */\n    tag_153:\n        /* \"#utility.yul\":7791:7802   */\n      0x00\n        /* \"#utility.yul\":7825:7831   */\n      dup3\n        /* \"#utility.yul\":7820:7823   */\n      dup3\n        /* \"#utility.yul\":7813:7832   */\n      mstore\n        /* \"#utility.yul\":7865:7869   */\n      0x20\n        /* \"#utility.yul\":7860:7863   */\n      dup3\n        /* \"#utility.yul\":7856:7870   */\n      add\n        /* \"#utility.yul\":7841:7870   */\n      swap1\n      pop\n        /* \"#utility.yul\":7674:7876   */\n      swap3\n      swap2\n      pop\n      pop\n      jump\t// out\n        /* \"#utility.yul\":7882:8032   */\n    tag_154:\n        /* \"#utility.yul\":7967:7971   */\n      0x00\n        /* \"#utility.yul\":7990:7993   */\n      dup2\n        /* \"#utility.yul\":7982:7993   */\n      swap1\n      pop\n        /* \"#utility.yul\":8020:8024   */\n      0x20\n        /* \"#utility.yul\":8015:8018   */\n      dup3\n        /* \"#utility.yul\":8011:8025   */\n      add\n        /* \"#utility.yul\":8003:8025   */\n      swap1\n      pop\n        /* \"#utility.yul\":7882:8032   */\n      swap2\n      swap1\n      pop\n      jump\t// out\n        /* \"#utility.yul\":8076:8821   */\n    tag_155:\n        /* \"#utility.yul\":8171:8174   */\n      0x00\n        /* \"#utility.yul\":8207:8211   */\n      0x60\n        /* \"#utility.yul\":8202:8205   */\n      dup4\n        /* \"#utility.yul\":8198:8212   */\n      add\n        /* \"#utility.yul\":8291:8295   */\n      0x00\n        /* \"#utility.yul\":8284:8289   */\n      dup4\n        /* \"#utility.yul\":8280:8296   */\n      add\n        /* \"#utility.yul\":8274:8297   */\n      mload\n        /* \"#utility.yul\":8310:8373   */\n      tag_266\n        /* \"#utility.yul\":8367:8371   */\n      0x00\n        /* \"#utility.yul\":8362:8365   */\n      dup7\n        /* \"#utility.yul\":8358:8372   */\n      add\n        /* \"#utility.yul\":8344:8356   */\n      dup3\n        /* \"#utility.yul\":8310:8373   */\n      tag_145\n      jump\t// in\n    tag_266:\n        /* \"#utility.yul\":8222:8383   */\n      pop\n        /* \"#utility.yul\":8462:8466   */\n      0x20\n        /* \"#utility.yul\":8455:8460   */\n      dup4\n        /* \"#utility.yul\":8451:8467   */\n      add\n        /* \"#utility.yul\":8445:8468   */\n      mload\n        /* \"#utility.yul\":8515:8518   */\n      dup5\n        /* \"#utility.yul\":8509:8513   */\n      dup3\n        /* \"#utility.yul\":8505:8519   */\n      sub\n        /* \"#utility.yul\":8498:8502   */\n      0x20\n        /* \"#utility.yul\":8493:8496   */\n      dup7\n        /* \"#utility.yul\":8489:8503   */\n      add\n        /* \"#utility.yul\":8482:8520   */\n      mstore\n        /* \"#utility.yul\":8541:8614   */\n      tag_267\n        /* \"#utility.yul\":8609:8613   */\n      dup3\n        /* \"#utility.yul\":8595:8607   */\n      dup3\n        /* \"#utility.yul\":8541:8614   */\n      tag_149\n      jump\t// in\n    tag_267:\n        /* \"#utility.yul\":8533:8614   */\n      swap2\n      pop\n        /* \"#utility.yul\":8393:8625   */\n      pop\n        /* \"#utility.yul\":8704:8708   */\n      0x40\n        /* \"#utility.yul\":8697:8702   */\n      dup4\n        /* \"#utility.yul\":8693:8709   */\n      add\n        /* \"#utility.yul\":8687:8710   */\n      mload\n        /* \"#utility.yul\":8723:8784   */\n      tag_268\n        /* \"#utility.yul\":8778:8782   */\n      0x40\n        /* \"#utility.yul\":8773:8776   */\n      dup7\n        /* \"#utility.yul\":8769:8783   */\n      add\n        /* \"#utility.yul\":8755:8767   */\n      dup3\n        /* \"#utility.yul\":8723:8784   */\n      tag_150\n      jump\t// in\n    tag_268:\n        /* \"#utility.yul\":8635:8794   */\n      pop\n        /* \"#utility.yul\":8811:8815   */\n      dup1\n        /* \"#utility.yul\":8804:8815   */\n      swap2\n      pop\n        /* \"#utility.yul\":8176:8821   */\n      pop\n        /* \"#utility.yul\":8076:8821   */\n      swap3\n      swap2\n      pop\n      pop\n      jump\t// out\n        /* \"#utility.yul\":8827:9055   */\n    tag_156:\n        /* \"#utility.yul\":8932:8942   */\n      0x00\n        /* \"#utility.yul\":8967:9049   */\n      tag_270\n        /* \"#utility.yul\":9045:9048   */\n      dup4\n        /* \"#utility.yul\":9037:9043   */\n      dup4\n        /* \"#utility.yul\":8967:9049   */\n      tag_155\n      jump\t// in\n    tag_270:\n        /* \"#utility.yul\":8953:9049   */\n      swap1\n      pop\n        /* \"#utility.yul\":8827:9055   */\n      swap3\n      swap2\n      pop\n      pop\n      jump\t// out\n        /* \"#utility.yul\":9061:9192   */\n    tag_157:\n        /* \"#utility.yul\":9149:9153   */\n      0x00\n        /* \"#utility.yul\":9181:9185   */\n      0x20\n        /* \"#utility.yul\":9176:9179   */\n      dup3\n        /* \"#utility.yul\":9172:9186   */\n      add\n        /* \"#utility.yul\":9164:9186   */\n      swap1\n      pop\n        /* \"#utility.yul\":9061:9192   */\n      swap2\n      swap1\n      pop\n      jump\t// out\n        /* \"#utility.yul\":9240:10295   */\n    tag_158:\n        /* \"#utility.yul\":9395:9398   */\n      0x00\n        /* \"#utility.yul\":9424:9496   */\n      tag_273\n        /* \"#utility.yul\":9490:9495   */\n      dup3\n        /* \"#utility.yul\":9424:9496   */\n      tag_152\n      jump\t// in\n    tag_273:\n        /* \"#utility.yul\":9512:9616   */\n      tag_274\n        /* \"#utility.yul\":9609:9615   */\n      dup2\n        /* \"#utility.yul\":9604:9607   */\n      dup6\n        /* \"#utility.yul\":9512:9616   */\n      tag_153\n      jump\t// in\n    tag_274:\n        /* \"#utility.yul\":9505:9616   */\n      swap4\n      pop\n        /* \"#utility.yul\":9642:9645   */\n      dup4\n        /* \"#utility.yul\":9687:9691   */\n      0x20\n        /* \"#utility.yul\":9679:9685   */\n      dup3\n        /* \"#utility.yul\":9675:9692   */\n      mul\n        /* \"#utility.yul\":9670:9673   */\n      dup6\n        /* \"#utility.yul\":9666:9693   */\n      add\n        /* \"#utility.yul\":9717:9791   */\n      tag_275\n        /* \"#utility.yul\":9785:9790   */\n      dup6\n        /* \"#utility.yul\":9717:9791   */\n      tag_154\n      jump\t// in\n    tag_275:\n        /* \"#utility.yul\":9814:9821   */\n      dup1\n        /* \"#utility.yul\":9845:9846   */\n      0x00\n        /* \"#utility.yul\":9830:10250   */\n    tag_276:\n        /* \"#utility.yul\":9855:9861   */\n      dup6\n        /* \"#utility.yul\":9852:9853   */\n      dup2\n        /* \"#utility.yul\":9849:9862   */\n      lt\n        /* \"#utility.yul\":9830:10250   */\n      iszero\n      tag_278\n      jumpi\n        /* \"#utility.yul\":9926:9935   */\n      dup5\n        /* \"#utility.yul\":9920:9924   */\n      dup5\n        /* \"#utility.yul\":9916:9936   */\n      sub\n        /* \"#utility.yul\":9911:9914   */\n      dup10\n        /* \"#utility.yul\":9904:9937   */\n      mstore\n        /* \"#utility.yul\":9977:9983   */\n      dup2\n        /* \"#utility.yul\":9971:9984   */\n      mload\n        /* \"#utility.yul\":10005:10105   */\n      tag_279\n        /* \"#utility.yul\":10100:10104   */\n      dup6\n        /* \"#utility.yul\":10085:10098   */\n      dup3\n        /* \"#utility.yul\":10005:10105   */\n      tag_156\n      jump\t// in\n    tag_279:\n        /* \"#utility.yul\":9997:10105   */\n      swap5\n      pop\n        /* \"#utility.yul\":10128:10206   */\n      tag_280\n        /* \"#utility.yul\":10199:10205   */\n      dup4\n        /* \"#utility.yul\":10128:10206   */\n      tag_157\n      jump\t// in\n    tag_280:\n        /* \"#utility.yul\":10118:10206   */\n      swap3\n      pop\n        /* \"#utility.yul\":10235:10239   */\n      0x20\n        /* \"#utility.yul\":10230:10233   */\n      dup11\n        /* \"#utility.yul\":10226:10240   */\n      add\n        /* \"#utility.yul\":10219:10240   */\n      swap10\n      pop\n        /* \"#utility.yul\":9890:10250   */\n      pop\n        /* \"#utility.yul\":9877:9878   */\n      0x01\n        /* \"#utility.yul\":9874:9875   */\n      dup2\n        /* \"#utility.yul\":9870:9879   */\n      add\n        /* \"#utility.yul\":9865:9879   */\n      swap1\n      pop\n        /* \"#utility.yul\":9830:10250   */\n      jump(tag_276)\n    tag_278:\n        /* \"#utility.yul\":9834:9848   */\n      pop\n        /* \"#utility.yul\":10266:10270   */\n      dup3\n        /* \"#utility.yul\":10259:10270   */\n      swap8\n      pop\n        /* \"#utility.yul\":10286:10289   */\n      dup8\n        /* \"#utility.yul\":10279:10289   */\n      swap6\n      pop\n        /* \"#utility.yul\":9400:10295   */\n      pop\n      pop\n      pop\n      pop\n      pop\n        /* \"#utility.yul\":9240:10295   */\n      swap3\n      swap2\n      pop\n      pop\n      jump\t// out\n        /* \"#utility.yul\":10301:10746   */\n    tag_41:\n        /* \"#utility.yul\":10480:10484   */\n      0x00\n        /* \"#utility.yul\":10518:10520   */\n      0x20\n        /* \"#utility.yul\":10507:10516   */\n      dup3\n        /* \"#utility.yul\":10503:10521   */\n      add\n        /* \"#utility.yul\":10495:10521   */\n      swap1\n      pop\n        /* \"#utility.yul\":10567:10576   */\n      dup2\n        /* \"#utility.yul\":10561:10565   */\n      dup2\n        /* \"#utility.yul\":10557:10577   */\n      sub\n        /* \"#utility.yul\":10553:10554   */\n      0x00\n        /* \"#utility.yul\":10542:10551   */\n      dup4\n        /* \"#utility.yul\":10538:10555   */\n      add\n        /* \"#utility.yul\":10531:10578   */\n      mstore\n        /* \"#utility.yul\":10595:10739   */\n      tag_282\n        /* \"#utility.yul\":10734:10738   */\n      dup2\n        /* \"#utility.yul\":10725:10731   */\n      dup5\n        /* \"#utility.yul\":10595:10739   */\n      tag_158\n      jump\t// in\n    tag_282:\n        /* \"#utility.yul\":10587:10739   */\n      swap1\n      pop\n        /* \"#utility.yul\":10301:10746   */\n      swap3\n      swap2\n      pop\n      pop\n      jump\t// out\n        /* \"#utility.yul\":10798:11573   */\n    tag_159:\n        /* \"#utility.yul\":10909:10912   */\n      0x00\n        /* \"#utility.yul\":10945:10949   */\n      0x60\n        /* \"#utility.yul\":10940:10943   */\n      dup4\n        /* \"#utility.yul\":10936:10950   */\n      add\n        /* \"#utility.yul\":11033:11037   */\n      0x00\n        /* \"#utility.yul\":11026:11031   */\n      dup4\n        /* \"#utility.yul\":11022:11038   */\n      add\n        /* \"#utility.yul\":11016:11039   */\n      mload\n        /* \"#utility.yul\":11086:11089   */\n      dup5\n        /* \"#utility.yul\":11080:11084   */\n      dup3\n        /* \"#utility.yul\":11076:11090   */\n      sub\n        /* \"#utility.yul\":11069:11073   */\n      0x00\n        /* \"#utility.yul\":11064:11067   */\n      dup7\n        /* \"#utility.yul\":11060:11074   */\n      add\n        /* \"#utility.yul\":11053:11091   */\n      mstore\n        /* \"#utility.yul\":11112:11185   */\n      tag_284\n        /* \"#utility.yul\":11180:11184   */\n      dup3\n        /* \"#utility.yul\":11166:11178   */\n      dup3\n        /* \"#utility.yul\":11112:11185   */\n      tag_149\n      jump\t// in\n    tag_284:\n        /* \"#utility.yul\":11104:11185   */\n      swap2\n      pop\n        /* \"#utility.yul\":10960:11196   */\n      pop\n        /* \"#utility.yul\":11280:11284   */\n      0x20\n        /* \"#utility.yul\":11273:11278   */\n      dup4\n        /* \"#utility.yul\":11269:11285   */\n      add\n        /* \"#utility.yul\":11263:11286   */\n      mload\n        /* \"#utility.yul\":11299:11362   */\n      tag_285\n        /* \"#utility.yul\":11356:11360   */\n      0x20\n        /* \"#utility.yul\":11351:11354   */\n      dup7\n        /* \"#utility.yul\":11347:11361   */\n      add\n        /* \"#utility.yul\":11333:11345   */\n      dup3\n        /* \"#utility.yul\":11299:11362   */\n      tag_145\n      jump\t// in\n    tag_285:\n        /* \"#utility.yul\":11206:11372   */\n      pop\n        /* \"#utility.yul\":11454:11458   */\n      0x40\n        /* \"#utility.yul\":11447:11452   */\n      dup4\n        /* \"#utility.yul\":11443:11459   */\n      add\n        /* \"#utility.yul\":11437:11460   */\n      mload\n        /* \"#utility.yul\":11473:11536   */\n      tag_286\n        /* \"#utility.yul\":11530:11534   */\n      0x40\n        /* \"#utility.yul\":11525:11528   */\n      dup7\n        /* \"#utility.yul\":11521:11535   */\n      add\n        /* \"#utility.yul\":11507:11519   */\n      dup3\n        /* \"#utility.yul\":11473:11536   */\n      tag_145\n      jump\t// in\n    tag_286:\n        /* \"#utility.yul\":11382:11546   */\n      pop\n        /* \"#utility.yul\":11563:11567   */\n      dup1\n        /* \"#utility.yul\":11556:11567   */\n      swap2\n      pop\n        /* \"#utility.yul\":10914:11573   */\n      pop\n        /* \"#utility.yul\":10798:11573   */\n      swap3\n      swap2\n      pop\n      pop\n      jump\t// out\n        /* \"#utility.yul\":11579:11936   */\n    tag_45:\n        /* \"#utility.yul\":11714:11718   */\n      0x00\n        /* \"#utility.yul\":11752:11754   */\n      0x20\n        /* \"#utility.yul\":11741:11750   */\n      dup3\n        /* \"#utility.yul\":11737:11755   */\n      add\n        /* \"#utility.yul\":11729:11755   */\n      swap1\n      pop\n        /* \"#utility.yul\":11801:11810   */\n      dup2\n        /* \"#utility.yul\":11795:11799   */\n      dup2\n        /* \"#utility.yul\":11791:11811   */\n      sub\n        /* \"#utility.yul\":11787:11788   */\n      0x00\n        /* \"#utility.yul\":11776:11785   */\n      dup4\n        /* \"#utility.yul\":11772:11789   */\n      add\n        /* \"#utility.yul\":11765:11812   */\n      mstore\n        /* \"#utility.yul\":11829:11929   */\n      tag_288\n        /* \"#utility.yul\":11924:11928   */\n      dup2\n        /* \"#utility.yul\":11915:11921   */\n      dup5\n        /* \"#utility.yul\":11829:11929   */\n      tag_159\n      jump\t// in\n    tag_288:\n        /* \"#utility.yul\":11821:11929   */\n      swap1\n      pop\n        /* \"#utility.yul\":11579:11936   */\n      swap3\n      swap2\n      pop\n      pop\n      jump\t// out\n        /* \"#utility.yul\":11992:12769   */\n    tag_160:\n        /* \"#utility.yul\":12105:12108   */\n      0x00\n        /* \"#utility.yul\":12141:12145   */\n      0x60\n        /* \"#utility.yul\":12136:12139   */\n      dup4\n        /* \"#utility.yul\":12132:12146   */\n      add\n        /* \"#utility.yul\":12228:12232   */\n      0x00\n        /* \"#utility.yul\":12221:12226   */\n      dup4\n        /* \"#utility.yul\":12217:12233   */\n      add\n        /* \"#utility.yul\":12211:12234   */\n      mload\n        /* \"#utility.yul\":12281:12284   */\n      dup5\n        /* \"#utility.yul\":12275:12279   */\n      dup3\n        /* \"#utility.yul\":12271:12285   */\n      sub\n        /* \"#utility.yul\":12264:12268   */\n      0x00\n        /* \"#utility.yul\":12259:12262   */\n      dup7\n        /* \"#utility.yul\":12255:12269   */\n      add\n        /* \"#utility.yul\":12248:12286   */\n      mstore\n        /* \"#utility.yul\":12307:12380   */\n      tag_290\n        /* \"#utility.yul\":12375:12379   */\n      dup3\n        /* \"#utility.yul\":12361:12373   */\n      dup3\n        /* \"#utility.yul\":12307:12380   */\n      tag_149\n      jump\t// in\n    tag_290:\n        /* \"#utility.yul\":12299:12380   */\n      swap2\n      pop\n        /* \"#utility.yul\":12156:12391   */\n      pop\n        /* \"#utility.yul\":12475:12479   */\n      0x20\n        /* \"#utility.yul\":12468:12473   */\n      dup4\n        /* \"#utility.yul\":12464:12480   */\n      add\n        /* \"#utility.yul\":12458:12481   */\n      mload\n        /* \"#utility.yul\":12494:12557   */\n      tag_291\n        /* \"#utility.yul\":12551:12555   */\n      0x20\n        /* \"#utility.yul\":12546:12549   */\n      dup7\n        /* \"#utility.yul\":12542:12556   */\n      add\n        /* \"#utility.yul\":12528:12540   */\n      dup3\n        /* \"#utility.yul\":12494:12557   */\n      tag_145\n      jump\t// in\n    tag_291:\n        /* \"#utility.yul\":12401:12567   */\n      pop\n        /* \"#utility.yul\":12650:12654   */\n      0x40\n        /* \"#utility.yul\":12643:12648   */\n      dup4\n        /* \"#utility.yul\":12639:12655   */\n      add\n        /* \"#utility.yul\":12633:12656   */\n      mload\n        /* \"#utility.yul\":12669:12732   */\n      tag_292\n        /* \"#utility.yul\":12726:12730   */\n      0x40\n        /* \"#utility.yul\":12721:12724   */\n      dup7\n        /* \"#utility.yul\":12717:12731   */\n      add\n        /* \"#utility.yul\":12703:12715   */\n      dup3\n        /* \"#utility.yul\":12669:12732   */\n      tag_145\n      jump\t// in\n    tag_292:\n        /* \"#utility.yul\":12577:12742   */\n      pop\n        /* \"#utility.yul\":12759:12763   */\n      dup1\n        /* \"#utility.yul\":12752:12763   */\n      swap2\n      pop\n        /* \"#utility.yul\":12110:12769   */\n      pop\n        /* \"#utility.yul\":11992:12769   */\n      swap3\n      swap2\n      pop\n      pop\n      jump\t// out\n        /* \"#utility.yul\":12775:13136   */\n    tag_52:\n        /* \"#utility.yul\":12912:12916   */\n      0x00\n        /* \"#utility.yul\":12950:12952   */\n      0x20\n        /* \"#utility.yul\":12939:12948   */\n      dup3\n        /* \"#utility.yul\":12935:12953   */\n      add\n        /* \"#utility.yul\":12927:12953   */\n      swap1\n      pop\n        /* \"#utility.yul\":12999:13008   */\n      dup2\n        /* \"#utility.yul\":12993:12997   */\n      dup2\n        /* \"#utility.yul\":12989:13009   */\n      sub\n        /* \"#utility.yul\":12985:12986   */\n      0x00\n        /* \"#utility.yul\":12974:12983   */\n      dup4\n        /* \"#utility.yul\":12970:12987   */\n      add\n        /* \"#utility.yul\":12963:13010   */\n      mstore\n        /* \"#utility.yul\":13027:13129   */\n      tag_294\n        /* \"#utility.yul\":13124:13128   */\n      dup2\n        /* \"#utility.yul\":13115:13121   */\n      dup5\n        /* \"#utility.yul\":13027:13129   */\n      tag_160\n      jump\t// in\n    tag_294:\n        /* \"#utility.yul\":13019:13129   */\n      swap1\n      pop\n        /* \"#utility.yul\":12775:13136   */\n      swap3\n      swap2\n      pop\n      pop\n      jump\t// out\n        /* \"#utility.yul\":13142:13322   */\n    tag_161:\n        /* \"#utility.yul\":13190:13267   */\n      0x4e487b7100000000000000000000000000000000000000000000000000000000\n        /* \"#utility.yul\":13187:13188   */\n      0x00\n        /* \"#utility.yul\":13180:13268   */\n      mstore\n        /* \"#utility.yul\":13287:13291   */\n      0x22\n        /* \"#utility.yul\":13284:13285   */\n      0x04\n        /* \"#utility.yul\":13277:13292   */\n      mstore\n        /* \"#utility.yul\":13311:13315   */\n      0x24\n        /* \"#utility.yul\":13308:13309   */\n      0x00\n        /* \"#utility.yul\":13301:13316   */\n      revert\n        /* \"#utility.yul\":13328:13648   */\n    tag_72:\n        /* \"#utility.yul\":13372:13378   */\n      0x00\n        /* \"#utility.yul\":13409:13410   */\n      0x02\n        /* \"#utility.yul\":13403:13407   */\n      dup3\n        /* \"#utility.yul\":13399:13411   */\n      div\n        /* \"#utility.yul\":13389:13411   */\n      swap1\n      pop\n        /* \"#utility.yul\":13456:13457   */\n      0x01\n        /* \"#utility.yul\":13450:13454   */\n      dup3\n        /* \"#utility.yul\":13446:13458   */\n      and\n        /* \"#utility.yul\":13477:13495   */\n      dup1\n        /* \"#utility.yul\":13467:13548   */\n      tag_297\n      jumpi\n        /* \"#utility.yul\":13533:13537   */\n      0x7f\n        /* \"#utility.yul\":13525:13531   */\n      dup3\n        /* \"#utility.yul\":13521:13538   */\n      and\n        /* \"#utility.yul\":13511:13538   */\n      swap2\n      pop\n        /* \"#utility.yul\":13467:13548   */\n    tag_297:\n        /* \"#utility.yul\":13595:13597   */\n      0x20\n        /* \"#utility.yul\":13587:13593   */\n      dup3\n        /* \"#utility.yul\":13584:13598   */\n      lt\n        /* \"#utility.yul\":13564:13582   */\n      dup2\n        /* \"#utility.yul\":13561:13599   */\n      sub\n        /* \"#utility.yul\":13558:13642   */\n      tag_298\n      jumpi\n        /* \"#utility.yul\":13614:13632   */\n      tag_299\n      tag_161\n      jump\t// in\n    tag_299:\n        /* \"#utility.yul\":13558:13642   */\n    tag_298:\n        /* \"#utility.yul\":13379:13648   */\n      pop\n        /* \"#utility.yul\":13328:13648   */\n      swap2\n      swap1\n      pop\n      jump\t// out\n        /* \"#utility.yul\":13654:13795   */\n    tag_162:\n        /* \"#utility.yul\":13703:13707   */\n      0x00\n        /* \"#utility.yul\":13726:13729   */\n      dup2\n        /* \"#utility.yul\":13718:13729   */\n      swap1\n      pop\n        /* \"#utility.yul\":13749:13752   */\n      dup2\n        /* \"#utility.yul\":13746:13747   */\n      0x00\n        /* \"#utility.yul\":13739:13753   */\n      mstore\n        /* \"#utility.yul\":13783:13787   */\n      0x20\n        /* \"#utility.yul\":13780:13781   */\n      0x00\n        /* \"#utility.yul\":13770:13788   */\n      keccak256\n        /* \"#utility.yul\":13762:13788   */\n      swap1\n      pop\n        /* \"#utility.yul\":13654:13795   */\n      swap2\n      swap1\n      pop\n      jump\t// out\n        /* \"#utility.yul\":13801:13894   */\n    tag_163:\n        /* \"#utility.yul\":13838:13844   */\n      0x00\n        /* \"#utility.yul\":13885:13887   */\n      0x20\n        /* \"#utility.yul\":13880:13882   */\n      0x1f\n        /* \"#utility.yul\":13873:13878   */\n      dup4\n        /* \"#utility.yul\":13869:13883   */\n      add\n        /* \"#utility.yul\":13865:13888   */\n      div\n        /* \"#utility.yul\":13855:13888   */\n      swap1\n      pop\n        /* \"#utility.yul\":13801:13894   */\n      swap2\n      swap1\n      pop\n      jump\t// out\n        /* \"#utility.yul\":13900:14007   */\n    tag_164:\n        /* \"#utility.yul\":13944:13952   */\n      0x00\n        /* \"#utility.yul\":13994:13999   */\n      dup3\n        /* \"#utility.yul\":13988:13992   */\n      dup3\n        /* \"#utility.yul\":13984:14000   */\n      shl\n        /* \"#utility.yul\":13963:14000   */\n      swap1\n      pop\n        /* \"#utility.yul\":13900:14007   */\n      swap3\n      swap2\n      pop\n      pop\n      jump\t// out\n        /* \"#utility.yul\":14013:14406   */\n    tag_165:\n        /* \"#utility.yul\":14082:14088   */\n      0x00\n        /* \"#utility.yul\":14132:14133   */\n      0x08\n        /* \"#utility.yul\":14120:14130   */\n      dup4\n        /* \"#utility.yul\":14116:14134   */\n      mul\n        /* \"#utility.yul\":14155:14252   */\n      tag_304\n        /* \"#utility.yul\":14185:14251   */\n      0xffffffffffffffffffffffffffffffffffffffffffffffffffffffffffffffff\n        /* \"#utility.yul\":14174:14183   */\n      dup3\n        /* \"#utility.yul\":14155:14252   */\n      tag_164\n      jump\t// in\n    tag_304:\n        /* \"#utility.yul\":14273:14312   */\n      tag_305\n        /* \"#utility.yul\":14303:14311   */\n      dup7\n        /* \"#utility.yul\":14292:14301   */\n      dup4\n        /* \"#utility.yul\":14273:14312   */\n      tag_164\n      jump\t// in\n    tag_305:\n        /* \"#utility.yul\":14261:14312   */\n      swap6\n      pop\n        /* \"#utility.yul\":14345:14349   */\n      dup1\n        /* \"#utility.yul\":14341:14350   */\n      not\n        /* \"#utility.yul\":14334:14339   */\n      dup5\n        /* \"#utility.yul\":14330:14351   */\n      and\n        /* \"#utility.yul\":14321:14351   */\n      swap4\n      pop\n        /* \"#utility.yul\":14394:14398   */\n      dup1\n        /* \"#utility.yul\":14384:14392   */\n      dup7\n        /* \"#utility.yul\":14380:14399   */\n      and\n        /* \"#utility.yul\":14373:14378   */\n      dup5\n        /* \"#utility.yul\":14370:14400   */\n      or\n        /* \"#utility.yul\":14360:14400   */\n      swap3\n      pop\n        /* \"#utility.yul\":14089:14406   */\n      pop\n      pop\n        /* \"#utility.yul\":14013:14406   */\n      swap4\n      swap3\n      pop\n      pop\n      pop\n      jump\t// out\n        /* \"#utility.yul\":14412:14472   */\n    tag_166:\n        /* \"#utility.yul\":14440:14443   */\n      0x00\n        /* \"#utility.yul\":14461:14466   */\n      dup2\n        /* \"#utility.yul\":14454:14466   */\n      swap1\n      pop\n        /* \"#utility.yul\":14412:14472   */\n      swap2\n      swap1\n      pop\n      jump\t// out\n        /* \"#utility.yul\":14478:14620   */\n    tag_167:\n        /* \"#utility.yul\":14528:14537   */\n      0x00\n        /* \"#utility.yul\":14561:14614   */\n      tag_308\n        /* \"#utility.yul\":14579:14613   */\n      tag_309\n        /* \"#utility.yul\":14588:14612   */\n      tag_310\n        /* \"#utility.yul\":14606:14611   */\n      dup5\n        /* \"#utility.yul\":14588:14612   */\n      tag_129\n      jump\t// in\n    tag_310:\n        /* \"#utility.yul\":14579:14613   */\n      tag_166\n      jump\t// in\n    tag_309:\n        /* \"#utility.yul\":14561:14614   */\n      tag_129\n      jump\t// in\n    tag_308:\n        /* \"#utility.yul\":14548:14614   */\n      swap1\n      pop\n        /* \"#utility.yul\":14478:14620   */\n      swap2\n      swap1\n      pop\n      jump\t// out\n        /* \"#utility.yul\":14626:14701   */\n    tag_168:\n        /* \"#utility.yul\":14669:14672   */\n      0x00\n        /* \"#utility.yul\":14690:14695   */\n      dup2\n        /* \"#utility.yul\":14683:14695   */\n      swap1\n      pop\n        /* \"#utility.yul\":14626:14701   */\n      swap2\n      swap1\n      pop\n      jump\t// out\n        /* \"#utility.yul\":14707:14976   */\n    tag_169:\n        /* \"#utility.yul\":14817:14856   */\n      tag_313\n        /* \"#utility.yul\":14848:14855   */\n      dup4\n        /* \"#utility.yul\":14817:14856   */\n      tag_167\n      jump\t// in\n    tag_313:\n        /* \"#utility.yul\":14878:14969   */\n      tag_314\n        /* \"#utility.yul\":14927:14968   */\n      tag_315\n        /* \"#utility.yul\":14951:14967   */\n      dup3\n        /* \"#utility.yul\":14927:14968   */\n      tag_168\n      jump\t// in\n    tag_315:\n        /* \"#utility.yul\":14919:14925   */\n      dup5\n        /* \"#utility.yul\":14912:14916   */\n      dup5\n        /* \"#utility.yul\":14906:14917   */\n      sload\n        /* \"#utility.yul\":14878:14969   */\n      tag_165\n      jump\t// in\n    tag_314:\n        /* \"#utility.yul\":14872:14876   */\n      dup3\n        /* \"#utility.yul\":14865:14970   */\n      sstore\n        /* \"#utility.yul\":14783:14976   */\n      pop\n        /* \"#utility.yul\":14707:14976   */\n      pop\n      pop\n      pop\n      jump\t// out\n        /* \"#utility.yul\":14982:15055   */\n    tag_170:\n        /* \"#utility.yul\":15027:15030   */\n      0x00\n        /* \"#utility.yul\":14982:15055   */\n      swap1\n      jump\t// out\n        /* \"#utility.yul\":15061:15250   */\n    tag_171:\n        /* \"#utility.yul\":15138:15170   */\n      tag_318\n      tag_170\n      jump\t// in\n    tag_318:\n        /* \"#utility.yul\":15179:15244   */\n      tag_319\n        /* \"#utility.yul\":15237:15243   */\n      dup2\n        /* \"#utility.yul\":15229:15235   */\n      dup5\n        /* \"#utility.yul\":15223:15227   */\n      dup5\n        /* \"#utility.yul\":15179:15244   */\n      tag_169\n      jump\t// in\n    tag_319:\n        /* \"#utility.yul\":15114:15250   */\n      pop\n        /* \"#utility.yul\":15061:15250   */\n      pop\n      pop\n      jump\t// out\n        /* \"#utility.yul\":15256:15442   */\n    tag_172:\n        /* \"#utility.yul\":15316:15436   */\n    tag_321:\n        /* \"#utility.yul\":15333:15336   */\n      dup2\n        /* \"#utility.yul\":15326:15331   */\n      dup2\n        /* \"#utility.yul\":15323:15337   */\n      lt\n        /* \"#utility.yul\":15316:15436   */\n      iszero\n      tag_323\n      jumpi\n        /* \"#utility.yul\":15387:15426   */\n      tag_324\n        /* \"#utility.yul\":15424:15425   */\n      0x00\n        /* \"#utility.yul\":15417:15422   */\n      dup3\n        /* \"#utility.yul\":15387:15426   */\n      tag_171\n      jump\t// in\n    tag_324:\n        /* \"#utility.yul\":15360:15361   */\n      0x01\n        /* \"#utility.yul\":15353:15358   */\n      dup2\n        /* \"#utility.yul\":15349:15362   */\n      add\n        /* \"#utility.yul\":15340:15362   */\n      swap1\n      pop\n        /* \"#utility.yul\":15316:15436   */\n      jump(tag_321)\n    tag_323:\n        /* \"#utility.yul\":15256:15442   */\n      pop\n      pop\n      jump\t// out\n        /* \"#utility.yul\":15448:15991   */\n    tag_173:\n        /* \"#utility.yul\":15549:15551   */\n      0x1f\n        /* \"#utility.yul\":15544:15547   */\n      dup3\n        /* \"#utility.yul\":15541:15552   */\n      gt\n        /* \"#utility.yul\":15538:15984   */\n      iszero\n      tag_326\n      jumpi\n        /* \"#utility.yul\":15583:15621   */\n      tag_327\n        /* \"#utility.yul\":15615:15620   */\n      dup2\n        /* \"#utility.yul\":15583:15621   */\n      tag_162\n      jump\t// in\n    tag_327:\n        /* \"#utility.yul\":15667:15696   */\n      tag_328\n        /* \"#utility.yul\":15685:15695   */\n      dup5\n        /* \"#utility.yul\":15667:15696   */\n      tag_163\n      jump\t// in\n    tag_328:\n        /* \"#utility.yul\":15657:15665   */\n      dup2\n        /* \"#utility.yul\":15653:15697   */\n      add\n        /* \"#utility.yul\":15850:15852   */\n      0x20\n        /* \"#utility.yul\":15838:15848   */\n      dup6\n        /* \"#utility.yul\":15835:15853   */\n      lt\n        /* \"#utility.yul\":15832:15881   */\n      iszero\n      tag_329\n      jumpi\n        /* \"#utility.yul\":15871:15879   */\n      dup2\n        /* \"#utility.yul\":15856:15879   */\n      swap1\n      pop\n        /* \"#utility.yul\":15832:15881   */\n    tag_329:\n        /* \"#utility.yul\":15894:15974   */\n      tag_330\n        /* \"#utility.yul\":15950:15972   */\n      tag_331\n        /* \"#utility.yul\":15968:15971   */\n      dup6\n        /* \"#utility.yul\":15950:15972   */\n      tag_163\n      jump\t// in\n    tag_331:\n        /* \"#utility.yul\":15940:15948   */\n      dup4\n        /* \"#utility.yul\":15936:15973   */\n      add\n        /* \"#utility.yul\":15923:15934   */\n      dup3\n        /* \"#utility.yul\":15894:15974   */\n      tag_172\n      jump\t// in\n    tag_330:\n        /* \"#utility.yul\":15553:15984   */\n      pop\n      pop\n        /* \"#utility.yul\":15538:15984   */\n    tag_326:\n        /* \"#utility.yul\":15448:15991   */\n      pop\n      pop\n      pop\n      jump\t// out\n        /* \"#utility.yul\":15997:16114   */\n    tag_174:\n        /* \"#utility.yul\":16051:16059   */\n      0x00\n        /* \"#utility.yul\":16101:16106   */\n      dup3\n        /* \"#utility.yul\":16095:16099   */\n      dup3\n        /* \"#utility.yul\":16091:16107   */\n      shr\n        /* \"#utility.yul\":16070:16107   */\n      swap1\n      pop\n        /* \"#utility.yul\":15997:16114   */\n      swap3\n      swap2\n      pop\n      pop\n      jump\t// out\n        /* \"#utility.yul\":16120:16289   */\n    tag_175:\n        /* \"#utility.yul\":16164:16170   */\n      0x00\n        /* \"#utility.yul\":16197:16248   */\n      tag_334\n        /* \"#utility.yul\":16245:16246   */\n      0x00\n        /* \"#utility.yul\":16241:16247   */\n      not\n        /* \"#utility.yul\":16233:16238   */\n      dup5\n        /* \"#utility.yul\":16230:16231   */\n      0x08\n        /* \"#utility.yul\":16226:16239   */\n      mul\n        /* \"#utility.yul\":16197:16248   */\n      tag_174\n      jump\t// in\n    tag_334:\n        /* \"#utility.yul\":16193:16249   */\n      not\n        /* \"#utility.yul\":16278:16282   */\n      dup1\n        /* \"#utility.yul\":16272:16276   */\n      dup4\n        /* \"#utility.yul\":16268:16283   */\n      and\n        /* \"#utility.yul\":16258:16283   */\n      swap2\n      pop\n        /* \"#utility.yul\":16171:16289   */\n      pop\n        /* \"#utility.yul\":16120:16289   */\n      swap3\n      swap2\n      pop\n      pop\n      jump\t// out\n        /* \"#utility.yul\":16294:16589   */\n    tag_176:\n        /* \"#utility.yul\":16370:16374   */\n      0x00\n        /* \"#utility.yul\":16516:16545   */\n      tag_336\n        /* \"#utility.yul\":16541:16544   */\n      dup4\n        /* \"#utility.yul\":16535:16539   */\n      dup4\n        /* \"#utility.yul\":16516:16545   */\n      tag_175\n      jump\t// in\n    tag_336:\n        /* \"#utility.yul\":16508:16545   */\n      swap2\n      pop\n        /* \"#utility.yul\":16578:16581   */\n      dup3\n        /* \"#utility.yul\":16575:16576   */\n      0x02\n        /* \"#utility.yul\":16571:16582   */\n      mul\n        /* \"#utility.yul\":16565:16569   */\n      dup3\n        /* \"#utility.yul\":16562:16583   */\n      or\n        /* \"#utility.yul\":16554:16583   */\n      swap1\n      pop\n        /* \"#utility.yul\":16294:16589   */\n      swap3\n      swap2\n      pop\n      pop\n      jump\t// out\n        /* \"#utility.yul\":16594:17989   */\n    tag_61:\n        /* \"#utility.yul\":16711:16748   */\n      tag_338\n        /* \"#utility.yul\":16744:16747   */\n      dup3\n        /* \"#utility.yul\":16711:16748   */\n      tag_146\n      jump\t// in\n    tag_338:\n        /* \"#utility.yul\":16813:16831   */\n      0xffffffffffffffff\n        /* \"#utility.yul\":16805:16811   */\n      dup2\n        /* \"#utility.yul\":16802:16832   */\n      gt\n        /* \"#utility.yul\":16799:16855   */\n      iszero\n      tag_339\n      jumpi\n        /* \"#utility.yul\":16835:16853   */\n      tag_340\n      tag_135\n      jump\t// in\n    tag_340:\n        /* \"#utility.yul\":16799:16855   */\n    tag_339:\n        /* \"#utility.yul\":16879:16917   */\n      tag_341\n        /* \"#utility.yul\":16911:16915   */\n      dup3\n        /* \"#utility.yul\":16905:16916   */\n      sload\n        /* \"#utility.yul\":16879:16917   */\n      tag_72\n      jump\t// in\n    tag_341:\n        /* \"#utility.yul\":16964:17031   */\n      tag_342\n        /* \"#utility.yul\":17024:17030   */\n      dup3\n        /* \"#utility.yul\":17016:17022   */\n      dup3\n        /* \"#utility.yul\":17010:17014   */\n      dup6\n        /* \"#utility.yul\":16964:17031   */\n      tag_173\n      jump\t// in\n    tag_342:\n        /* \"#utility.yul\":17058:17059   */\n      0x00\n        /* \"#utility.yul\":17082:17086   */\n      0x20\n        /* \"#utility.yul\":17069:17086   */\n      swap1\n      pop\n        /* \"#utility.yul\":17114:17116   */\n      0x1f\n        /* \"#utility.yul\":17106:17112   */\n      dup4\n        /* \"#utility.yul\":17103:17117   */\n      gt\n        /* \"#utility.yul\":17131:17132   */\n      0x01\n        /* \"#utility.yul\":17126:17744   */\n      dup2\n      eq\n      tag_344\n      jumpi\n        /* \"#utility.yul\":17788:17789   */\n      0x00\n        /* \"#utility.yul\":17805:17811   */\n      dup5\n        /* \"#utility.yul\":17802:17879   */\n      iszero\n      tag_345\n      jumpi\n        /* \"#utility.yul\":17854:17863   */\n      dup3\n        /* \"#utility.yul\":17849:17852   */\n      dup8\n        /* \"#utility.yul\":17845:17864   */\n      add\n        /* \"#utility.yul\":17839:17865   */\n      mload\n        /* \"#utility.yul\":17830:17865   */\n      swap1\n      pop\n        /* \"#utility.yul\":17802:17879   */\n    tag_345:\n        /* \"#utility.yul\":17905:17972   */\n      tag_346\n        /* \"#utility.yul\":17965:17971   */\n      dup6\n        /* \"#utility.yul\":17958:17963   */\n      dup3\n        /* \"#utility.yul\":17905:17972   */\n      tag_176\n      jump\t// in\n    tag_346:\n        /* \"#utility.yul\":17899:17903   */\n      dup7\n        /* \"#utility.yul\":17892:17973   */\n      sstore\n        /* \"#utility.yul\":17761:17983   */\n      pop\n        /* \"#utility.yul\":17096:17983   */\n      jump(tag_343)\n        /* \"#utility.yul\":17126:17744   */\n    tag_344:\n        /* \"#utility.yul\":17178:17182   */\n      0x1f\n        /* \"#utility.yul\":17174:17183   */\n      not\n        /* \"#utility.yul\":17166:17172   */\n      dup5\n        /* \"#utility.yul\":17162:17184   */\n      and\n        /* \"#utility.yul\":17212:17249   */\n      tag_347\n        /* \"#utility.yul\":17244:17248   */\n      dup7\n        /* \"#utility.yul\":17212:17249   */\n      tag_162\n      jump\t// in\n    tag_347:\n        /* \"#utility.yul\":17271:17272   */\n      0x00\n        /* \"#utility.yul\":17285:17493   */\n    tag_348:\n        /* \"#utility.yul\":17299:17306   */\n      dup3\n        /* \"#utility.yul\":17296:17297   */\n      dup2\n        /* \"#utility.yul\":17293:17307   */\n      lt\n        /* \"#utility.yul\":17285:17493   */\n      iszero\n      tag_350\n      jumpi\n        /* \"#utility.yul\":17378:17387   */\n      dup5\n        /* \"#utility.yul\":17373:17376   */\n      dup10\n        /* \"#utility.yul\":17369:17388   */\n      add\n        /* \"#utility.yul\":17363:17389   */\n      mload\n        /* \"#utility.yul\":17355:17361   */\n      dup3\n        /* \"#utility.yul\":17348:17390   */\n      sstore\n        /* \"#utility.yul\":17429:17430   */\n      0x01\n        /* \"#utility.yul\":17421:17427   */\n      dup3\n        /* \"#utility.yul\":17417:17431   */\n      add\n        /* \"#utility.yul\":17407:17431   */\n      swap2\n      pop\n        /* \"#utility.yul\":17476:17478   */\n      0x20\n        /* \"#utility.yul\":17465:17474   */\n      dup6\n        /* \"#utility.yul\":17461:17479   */\n      add\n        /* \"#utility.yul\":17448:17479   */\n      swap5\n      pop\n        /* \"#utility.yul\":17322:17326   */\n      0x20\n        /* \"#utility.yul\":17319:17320   */\n      dup2\n        /* \"#utility.yul\":17315:17327   */\n      add\n        /* \"#utility.yul\":17310:17327   */\n      swap1\n      pop\n        /* \"#utility.yul\":17285:17493   */\n      jump(tag_348)\n    tag_350:\n        /* \"#utility.yul\":17521:17527   */\n      dup7\n        /* \"#utility.yul\":17512:17519   */\n      dup4\n        /* \"#utility.yul\":17509:17528   */\n      lt\n        /* \"#utility.yul\":17506:17685   */\n      iszero\n      tag_351\n      jumpi\n        /* \"#utility.yul\":17579:17588   */\n      dup5\n        /* \"#utility.yul\":17574:17577   */\n      dup10\n        /* \"#utility.yul\":17570:17589   */\n      add\n        /* \"#utility.yul\":17564:17590   */\n      mload\n        /* \"#utility.yul\":17622:17670   */\n      tag_352\n        /* \"#utility.yul\":17664:17668   */\n      0x1f\n        /* \"#utility.yul\":17656:17662   */\n      dup10\n        /* \"#utility.yul\":17652:17669   */\n      and\n        /* \"#utility.yul\":17641:17650   */\n      dup3\n        /* \"#utility.yul\":17622:17670   */\n      tag_175\n      jump\t// in\n    tag_352:\n        /* \"#utility.yul\":17614:17620   */\n      dup4\n        /* \"#utility.yul\":17607:17671   */\n      sstore\n        /* \"#utility.yul\":17529:17685   */\n      pop\n        /* \"#utility.yul\":17506:17685   */\n    tag_351:\n        /* \"#utility.yul\":17731:17732   */\n      0x01\n        /* \"#utility.yul\":17727:17728   */\n      0x02\n        /* \"#utility.yul\":17719:17725   */\n      dup9\n        /* \"#utility.yul\":17715:17729   */\n      mul\n        /* \"#utility.yul\":17711:17733   */\n      add\n        /* \"#utility.yul\":17705:17709   */\n      dup9\n        /* \"#utility.yul\":17698:17734   */\n      sstore\n        /* \"#utility.yul\":17133:17744   */\n      pop\n      pop\n      pop\n        /* \"#utility.yul\":17096:17983   */\n    tag_343:\n      pop\n        /* \"#utility.yul\":16686:17989   */\n      pop\n      pop\n      pop\n        /* \"#utility.yul\":16594:17989   */\n      pop\n      pop\n      jump\t// out\n        /* \"#utility.yul\":17995:18175   */\n    tag_177:\n        /* \"#utility.yul\":18043:18120   */\n      0x4e487b7100000000000000000000000000000000000000000000000000000000\n        /* \"#utility.yul\":18040:18041   */\n      0x00\n        /* \"#utility.yul\":18033:18121   */\n      mstore\n        /* \"#utility.yul\":18140:18144   */\n      0x11\n        /* \"#utility.yul\":18137:18138   */\n      0x04\n        /* \"#utility.yul\":18130:18145   */\n      mstore\n        /* \"#utility.yul\":18164:18168   */\n      0x24\n        /* \"#utility.yul\":18161:18162   */\n      0x00\n        /* \"#utility.yul\":18154:18169   */\n      revert\n        /* \"#utility.yul\":18181:18375   */\n    tag_66:\n        /* \"#utility.yul\":18221:18225   */\n      0x00\n        /* \"#utility.yul\":18241:18261   */\n      tag_355\n        /* \"#utility.yul\":18259:18260   */\n      dup3\n        /* \"#utility.yul\":18241:18261   */\n      tag_129\n      jump\t// in\n    tag_355:\n        /* \"#utility.yul\":18236:18261   */\n      swap2\n      pop\n        /* \"#utility.yul\":18275:18295   */\n      tag_356\n        /* \"#utility.yul\":18293:18294   */\n      dup4\n        /* \"#utility.yul\":18275:18295   */\n      tag_129\n      jump\t// in\n    tag_356:\n        /* \"#utility.yul\":18270:18295   */\n      swap3\n      pop\n        /* \"#utility.yul\":18319:18320   */\n      dup3\n        /* \"#utility.yul\":18316:18317   */\n      dup3\n        /* \"#utility.yul\":18312:18321   */\n      sub\n        /* \"#utility.yul\":18304:18321   */\n      swap1\n      pop\n        /* \"#utility.yul\":18343:18344   */\n      dup2\n        /* \"#utility.yul\":18337:18341   */\n      dup2\n        /* \"#utility.yul\":18334:18345   */\n      gt\n        /* \"#utility.yul\":18331:18368   */\n      iszero\n      tag_357\n      jumpi\n        /* \"#utility.yul\":18348:18366   */\n      tag_358\n      tag_177\n      jump\t// in\n    tag_358:\n        /* \"#utility.yul\":18331:18368   */\n    tag_357:\n        /* \"#utility.yul\":18181:18375   */\n      swap3\n      swap2\n      pop\n      pop\n      jump\t// out\n        /* \"#utility.yul\":18381:18561   */\n    tag_69:\n        /* \"#utility.yul\":18429:18506   */\n      0x4e487b7100000000000000000000000000000000000000000000000000000000\n        /* \"#utility.yul\":18426:18427   */\n      0x00\n        /* \"#utility.yul\":18419:18507   */\n      mstore\n        /* \"#utility.yul\":18526:18530   */\n      0x32\n        /* \"#utility.yul\":18523:18524   */\n      0x04\n        /* \"#utility.yul\":18516:18531   */\n      mstore\n        /* \"#utility.yul\":18550:18554   */\n      0x24\n        /* \"#utility.yul\":18547:18548   */\n      0x00\n        /* \"#utility.yul\":18540:18555   */\n      revert\n        /* \"#utility.yul\":18567:18716   */\n    tag_178:\n        /* \"#utility.yul\":18616:18622   */\n      0x00\n        /* \"#utility.yul\":18650:18655   */\n      dup2\n        /* \"#utility.yul\":18644:18656   */\n      sload\n        /* \"#utility.yul\":18634:18656   */\n      swap1\n      pop\n        /* \"#utility.yul\":18676:18709   */\n      tag_361\n        /* \"#utility.yul\":18702:18708   */\n      dup2\n        /* \"#utility.yul\":18676:18709   */\n      tag_72\n      jump\t// in\n    tag_361:\n        /* \"#utility.yul\":18666:18709   */\n      swap1\n      pop\n        /* \"#utility.yul\":18567:18716   */\n      swap2\n      swap1\n      pop\n      jump\t// out\n        /* \"#utility.yul\":18722:20173   */\n    tag_90:\n        /* \"#utility.yul\":18833:18836   */\n      dup2\n        /* \"#utility.yul\":18827:18831   */\n      dup2\n        /* \"#utility.yul\":18824:18837   */\n      sub\n        /* \"#utility.yul\":18821:18847   */\n      tag_363\n      jumpi\n        /* \"#utility.yul\":18840:18845   */\n      pop\n      pop\n      jump(tag_362)\n        /* \"#utility.yul\":18821:18847   */\n    tag_363:\n        /* \"#utility.yul\":18871:18905   */\n      tag_364\n        /* \"#utility.yul\":18901:18904   */\n      dup3\n        /* \"#utility.yul\":18871:18905   */\n      tag_178\n      jump\t// in\n    tag_364:\n        /* \"#utility.yul\":18970:18988   */\n      0xffffffffffffffff\n        /* \"#utility.yul\":18962:18968   */\n      dup2\n        /* \"#utility.yul\":18959:18989   */\n      gt\n        /* \"#utility.yul\":18956:19012   */\n      iszero\n      tag_365\n      jumpi\n        /* \"#utility.yul\":18992:19010   */\n      tag_366\n      tag_135\n      jump\t// in\n    tag_366:\n        /* \"#utility.yul\":18956:19012   */\n    tag_365:\n        /* \"#utility.yul\":19036:19074   */\n      tag_367\n        /* \"#utility.yul\":19068:19072   */\n      dup3\n        /* \"#utility.yul\":19062:19073   */\n      sload\n        /* \"#utility.yul\":19036:19074   */\n      tag_72\n      jump\t// in\n    tag_367:\n        /* \"#utility.yul\":19121:19188   */\n      tag_368\n        /* \"#utility.yul\":19181:19187   */\n      dup3\n        /* \"#utility.yul\":19173:19179   */\n      dup3\n        /* \"#utility.yul\":19167:19171   */\n      dup6\n        /* \"#utility.yul\":19121:19188   */\n      tag_173\n      jump\t// in\n    tag_368:\n        /* \"#utility.yul\":19215:19216   */\n      0x00\n        /* \"#utility.yul\":19244:19246   */\n      0x1f\n        /* \"#utility.yul\":19236:19242   */\n      dup4\n        /* \"#utility.yul\":19233:19247   */\n      gt\n        /* \"#utility.yul\":19261:19262   */\n      0x01\n        /* \"#utility.yul\":19256:19928   */\n      dup2\n      eq\n      tag_370\n      jumpi\n        /* \"#utility.yul\":19972:19973   */\n      0x00\n        /* \"#utility.yul\":19989:19995   */\n      dup5\n        /* \"#utility.yul\":19986:20063   */\n      iszero\n      tag_371\n      jumpi\n        /* \"#utility.yul\":20038:20047   */\n      dup3\n        /* \"#utility.yul\":20033:20036   */\n      dup8\n        /* \"#utility.yul\":20029:20048   */\n      add\n        /* \"#utility.yul\":20023:20049   */\n      sload\n        /* \"#utility.yul\":20014:20049   */\n      swap1\n      pop\n        /* \"#utility.yul\":19986:20063   */\n    tag_371:\n        /* \"#utility.yul\":20089:20156   */\n      tag_372\n        /* \"#utility.yul\":20149:20155   */\n      dup6\n        /* \"#utility.yul\":20142:20147   */\n      dup3\n        /* \"#utility.yul\":20089:20156   */\n      tag_176\n      jump\t// in\n    tag_372:\n        /* \"#utility.yul\":20083:20087   */\n      dup7\n        /* \"#utility.yul\":20076:20157   */\n      sstore\n        /* \"#utility.yul\":19945:20167   */\n      pop\n        /* \"#utility.yul\":19226:20167   */\n      jump(tag_369)\n        /* \"#utility.yul\":19256:19928   */\n    tag_370:\n        /* \"#utility.yul\":19308:19312   */\n      0x1f\n        /* \"#utility.yul\":19304:19313   */\n      not\n        /* \"#utility.yul\":19296:19302   */\n      dup5\n        /* \"#utility.yul\":19292:19314   */\n      and\n        /* \"#utility.yul\":19334:19370   */\n      tag_373\n        /* \"#utility.yul\":19366:19369   */\n      dup8\n        /* \"#utility.yul\":19334:19370   */\n      tag_162\n      jump\t// in\n    tag_373:\n        /* \"#utility.yul\":19327:19370   */\n      swap7\n      pop\n        /* \"#utility.yul\":19397:19434   */\n      tag_374\n        /* \"#utility.yul\":19429:19433   */\n      dup7\n        /* \"#utility.yul\":19397:19434   */\n      tag_162\n      jump\t// in\n    tag_374:\n        /* \"#utility.yul\":19456:19457   */\n      0x00\n        /* \"#utility.yul\":19470:19677   */\n    tag_375:\n        /* \"#utility.yul\":19484:19491   */\n      dup3\n        /* \"#utility.yul\":19481:19482   */\n      dup2\n        /* \"#utility.yul\":19478:19492   */\n      lt\n        /* \"#utility.yul\":19470:19677   */\n      iszero\n      tag_377\n      jumpi\n        /* \"#utility.yul\":19563:19572   */\n      dup5\n        /* \"#utility.yul\":19558:19561   */\n      dup10\n        /* \"#utility.yul\":19554:19573   */\n      add\n        /* \"#utility.yul\":19548:19574   */\n      sload\n        /* \"#utility.yul\":19540:19546   */\n      dup3\n        /* \"#utility.yul\":19533:19575   */\n      sstore\n        /* \"#utility.yul\":19614:19615   */\n      0x01\n        /* \"#utility.yul\":19606:19612   */\n      dup3\n        /* \"#utility.yul\":19602:19616   */\n      add\n        /* \"#utility.yul\":19592:19616   */\n      swap2\n      pop\n        /* \"#utility.yul\":19661:19662   */\n      0x01\n        /* \"#utility.yul\":19650:19659   */\n      dup6\n        /* \"#utility.yul\":19646:19663   */\n      add\n        /* \"#utility.yul\":19633:19663   */\n      swap5\n      pop\n        /* \"#utility.yul\":19507:19511   */\n      0x20\n        /* \"#utility.yul\":19504:19505   */\n      dup2\n        /* \"#utility.yul\":19500:19512   */\n      add\n        /* \"#utility.yul\":19495:19512   */\n      swap1\n      pop\n        /* \"#utility.yul\":19470:19677   */\n      jump(tag_375)\n    tag_377:\n        /* \"#utility.yul\":19705:19711   */\n      dup7\n        /* \"#utility.yul\":19696:19703   */\n      dup4\n        /* \"#utility.yul\":19693:19712   */\n      lt\n        /* \"#utility.yul\":19690:19869   */\n      iszero\n      tag_378\n      jumpi\n        /* \"#utility.yul\":19763:19772   */\n      dup5\n        /* \"#utility.yul\":19758:19761   */\n      dup10\n        /* \"#utility.yul\":19754:19773   */\n      add\n        /* \"#utility.yul\":19748:19774   */\n      sload\n        /* \"#utility.yul\":19806:19854   */\n      tag_379\n        /* \"#utility.yul\":19848:19852   */\n      0x1f\n        /* \"#utility.yul\":19840:19846   */\n      dup10\n        /* \"#utility.yul\":19836:19853   */\n      and\n        /* \"#utility.yul\":19825:19834   */\n      dup3\n        /* \"#utility.yul\":19806:19854   */\n      tag_175\n      jump\t// in\n    tag_379:\n        /* \"#utility.yul\":19798:19804   */\n      dup4\n        /* \"#utility.yul\":19791:19855   */\n      sstore\n        /* \"#utility.yul\":19713:19869   */\n      pop\n        /* \"#utility.yul\":19690:19869   */\n    tag_378:\n        /* \"#utility.yul\":19915:19916   */\n      0x01\n        /* \"#utility.yul\":19911:19912   */\n      0x02\n        /* \"#utility.yul\":19903:19909   */\n      dup9\n        /* \"#utility.yul\":19899:19913   */\n      mul\n        /* \"#utility.yul\":19895:19917   */\n      add\n        /* \"#utility.yul\":19889:19893   */\n      dup9\n        /* \"#utility.yul\":19882:19918   */\n      sstore\n        /* \"#utility.yul\":19263:19928   */\n      pop\n      pop\n      pop\n        /* \"#utility.yul\":19226:20167   */\n    tag_369:\n      pop\n        /* \"#utility.yul\":18811:20173   */\n      pop\n      pop\n      pop\n        /* \"#utility.yul\":18722:20173   */\n      pop\n      pop\n    tag_362:\n      jump\t// out\n\n    auxdata: 0xa2646970667358221220a53f669c6bd3195330f120997c37485d63bbbd87506d1c47ce788f276caee75664736f6c63430008120033\n}\n",
				"bytecode": {
					"linkReferences": {},
					"object": "608060405234801561001057600080fd5b506115b7806100206000396000f3fe608060405234801561001057600080fd5b50600436106100b45760003560e01c80639ceab7c1116100715780639ceab7c114610165578063a2375d1e14610183578063cd914def146101a1578063e93314ab146101bd578063edeb21cf146101db578063fb49cfbc146101f7576100b4565b80631908791c146100b957806339139225146100d5578063562ca54314610105578063626c525c146101215780636db755041461013f57806393dbeaa314610149575b600080fd5b6100d360048036038101906100ce9190610ce1565b610213565b005b6100ef60048036038101906100ea9190610d50565b61029b565b6040516100fc9190610e6a565b60405180910390f35b61011f600480360381019061011a9190610e8c565b6103d8565b005b61012961044f565b6040516101369190610e6a565b60405180910390f35b61014761055e565b005b610163600480360381019061015e9190610e8c565b6105dd565b005b61016d61062c565b60405161017a919061100d565b60405180910390f35b61018b610780565b604051610198919061107f565b60405180910390f35b6101bb60048036038101906101b69190610ce1565b610840565b005b6101c56108f0565b6040516101d291906110f1565b60405180910390f35b6101f560048036038101906101f09190610e8c565b6109b0565b005b610211600480360381019061020c9190610e8c565b610a27565b005b6040518060600160405280848152602001838152602001827dffffffffffffffffffffffffffffffffffffffffffffffffffffffffffff19168152506008600082015181600001556020820151816001019081610270919061131f565b5060408201518160020160006101000a81548161ffff021916908360f01c0217905550905050505050565b6102a3610a75565b600b6001836102b29190611420565b815481106102c3576102c2611454565b5b9060005260206000209060030201604051806060016040529081600082015481526020016001820180546102f690611142565b80601f016020809104026020016040519081016040528092919081815260200182805461032290611142565b801561036f5780601f106103445761010080835404028352916020019161036f565b820191906000526020600020905b81548152906001019060200180831161035257829003601f168201915b505050505081526020016002820160009054906101000a900460f01b7dffffffffffffffffffffffffffffffffffffffffffffffffffffffffffff19167dffffffffffffffffffffffffffffffffffffffffffffffffffffffffffff1916815250509050919050565b600660405180606001604052808581526020018481526020018381525090806001815401808255809150506001900390600052602060002090600302016000909190919091506000820151816000019081610433919061131f565b5060208201518160010155604082015181600201555050505050565b610457610a75565b60086040518060600160405290816000820154815260200160018201805461047e90611142565b80601f01602080910402602001604051908101604052809291908181526020018280546104aa90611142565b80156104f75780601f106104cc576101008083540402835291602001916104f7565b820191906000526020600020905b8154815290600101906020018083116104da57829003601f168201915b505050505081526020016002820160009054906101000a900460f01b7dffffffffffffffffffffffffffffffffffffffffffffffffffffffffffff19167dffffffffffffffffffffffffffffffffffffffffffffffffffffffffffff191681525050905090565b600b6008908060018154018082558091505060019003906000526020600020906003020160009091909190915060008201548160000155600182018160010190816105a99190611499565b506002820160009054906101000a900460f01b8160020160006101000a81548161ffff021916908360f01c02179055505050565b6040518060600160405280848152602001838152602001828152506003600082015181600001908161060f919061131f565b506020820151816001015560408201518160020155905050505050565b6060600b805480602002602001604051908101604052809291908181526020016000905b8282101561077757838290600052602060002090600302016040518060600160405290816000820154815260200160018201805461068d90611142565b80601f01602080910402602001604051908101604052809291908181526020018280546106b990611142565b80156107065780601f106106db57610100808354040283529160200191610706565b820191906000526020600020905b8154815290600101906020018083116106e957829003601f168201915b505050505081526020016002820160009054906101000a900460f01b7dffffffffffffffffffffffffffffffffffffffffffffffffffffffffffff19167dffffffffffffffffffffffffffffffffffffffffffffffffffffffffffff19168152505081526020019060010190610650565b50505050905090565b610788610ab7565b60036040518060600160405290816000820180546107a590611142565b80601f01602080910402602001604051908101604052809291908181526020018280546107d190611142565b801561081e5780601f106107f35761010080835404028352916020019161081e565b820191906000526020600020905b81548152906001019060200180831161080157829003601f168201915b5050505050815260200160018201548152602001600282015481525050905090565b600b6040518060600160405280858152602001848152602001837dffffffffffffffffffffffffffffffffffffffffffffffffffffffffffff191681525090806001815401808255809150506001900390600052602060002090600302016000909190919091506000820151816000015560208201518160010190816108c6919061131f565b5060408201518160020160006101000a81548161ffff021916908360f01c02179055505050505050565b6108f8610ad8565b600060405180606001604052908160008201805461091590611142565b80601f016020809104026020016040519081016040528092919081815260200182805461094190611142565b801561098e5780601f106109635761010080835404028352916020019161098e565b820191906000526020600020905b81548152906001019060200180831161097157829003601f168201915b5050505050815260200160018201548152602001600282015481525050905090565b600760405180606001604052808581526020018481526020018381525090806001815401808255809150506001900390600052602060002090600302016000909190919091506000820151816000019081610a0b919061131f565b5060208201518160010155604082015181600201555050505050565b604051806060016040528084815260200183815260200182815250600080820151816000019081610a58919061131f565b506020820151816001015560408201518160020155905050505050565b6040518060600160405280600081526020016060815260200160007dffffffffffffffffffffffffffffffffffffffffffffffffffffffffffff191681525090565b60405180606001604052806060815260200160008152602001600081525090565b60405180606001604052806060815260200160008152602001600081525090565b6000604051905090565b600080fd5b600080fd5b6000819050919050565b610b2081610b0d565b8114610b2b57600080fd5b50565b600081359050610b3d81610b17565b92915050565b600080fd5b600080fd5b6000601f19601f8301169050919050565b7f4e487b7100000000000000000000000000000000000000000000000000000000600052604160045260246000fd5b610b9682610b4d565b810181811067ffffffffffffffff82111715610bb557610bb4610b5e565b5b80604052505050565b6000610bc8610af9565b9050610bd48282610b8d565b919050565b600067ffffffffffffffff821115610bf457610bf3610b5e565b5b610bfd82610b4d565b9050602081019050919050565b82818337600083830152505050565b6000610c2c610c2784610bd9565b610bbe565b905082815260208101848484011115610c4857610c47610b48565b5b610c53848285610c0a565b509392505050565b600082601f830112610c7057610c6f610b43565b5b8135610c80848260208601610c19565b91505092915050565b60007fffff00000000000000000000000000000000000000000000000000000000000082169050919050565b610cbe81610c89565b8114610cc957600080fd5b50565b600081359050610cdb81610cb5565b92915050565b600080600060608486031215610cfa57610cf9610b03565b5b6000610d0886828701610b2e565b935050602084013567ffffffffffffffff811115610d2957610d28610b08565b5b610d3586828701610c5b565b9250506040610d4686828701610ccc565b9150509250925092565b600060208284031215610d6657610d65610b03565b5b6000610d7484828501610b2e565b91505092915050565b610d8681610b0d565b82525050565b600081519050919050565b600082825260208201905092915050565b60005b83811015610dc6578082015181840152602081019050610dab565b60008484015250505050565b6000610ddd82610d8c565b610de78185610d97565b9350610df7818560208601610da8565b610e0081610b4d565b840191505092915050565b610e1481610c89565b82525050565b6000606083016000830151610e326000860182610d7d565b5060208301518482036020860152610e4a8282610dd2565b9150506040830151610e5f6040860182610e0b565b508091505092915050565b60006020820190508181036000830152610e848184610e1a565b905092915050565b600080600060608486031215610ea557610ea4610b03565b5b600084013567ffffffffffffffff811115610ec357610ec2610b08565b5b610ecf86828701610c5b565b9350506020610ee086828701610b2e565b9250506040610ef186828701610b2e565b9150509250925092565b600081519050919050565b600082825260208201905092915050565b6000819050602082019050919050565b6000606083016000830151610f3f6000860182610d7d565b5060208301518482036020860152610f578282610dd2565b9150506040830151610f6c6040860182610e0b565b508091505092915050565b6000610f838383610f27565b905092915050565b6000602082019050919050565b6000610fa382610efb565b610fad8185610f06565b935083602082028501610fbf85610f17565b8060005b85811015610ffb5784840389528151610fdc8582610f77565b9450610fe783610f8b565b925060208a01995050600181019050610fc3565b50829750879550505050505092915050565b600060208201905081810360008301526110278184610f98565b905092915050565b6000606083016000830151848203600086015261104c8282610dd2565b91505060208301516110616020860182610d7d565b5060408301516110746040860182610d7d565b508091505092915050565b60006020820190508181036000830152611099818461102f565b905092915050565b600060608301600083015184820360008601526110be8282610dd2565b91505060208301516110d36020860182610d7d565b5060408301516110e66040860182610d7d565b508091505092915050565b6000602082019050818103600083015261110b81846110a1565b905092915050565b7f4e487b7100000000000000000000000000000000000000000000000000000000600052602260045260246000fd5b6000600282049050600182168061115a57607f821691505b60208210810361116d5761116c611113565b5b50919050565b60008190508160005260206000209050919050565b60006020601f8301049050919050565b600082821b905092915050565b6000600883026111d57fffffffffffffffffffffffffffffffffffffffffffffffffffffffffffffffff82611198565b6111df8683611198565b95508019841693508086168417925050509392505050565b6000819050919050565b600061121c61121761121284610b0d565b6111f7565b610b0d565b9050919050565b6000819050919050565b61123683611201565b61124a61124282611223565b8484546111a5565b825550505050565b600090565b61125f611252565b61126a81848461122d565b505050565b5b8181101561128e57611283600082611257565b600181019050611270565b5050565b601f8211156112d3576112a481611173565b6112ad84611188565b810160208510156112bc578190505b6112d06112c885611188565b83018261126f565b50505b505050565b600082821c905092915050565b60006112f6600019846008026112d8565b1980831691505092915050565b600061130f83836112e5565b9150826002028217905092915050565b61132882610d8c565b67ffffffffffffffff81111561134157611340610b5e565b5b61134b8254611142565b611356828285611292565b600060209050601f8311600181146113895760008415611377578287015190505b6113818582611303565b8655506113e9565b601f19841661139786611173565b60005b828110156113bf5784890151825560018201915060208501945060208101905061139a565b868310156113dc57848901516113d8601f8916826112e5565b8355505b6001600288020188555050505b505050505050565b7f4e487b7100000000000000000000000000000000000000000000000000000000600052601160045260246000fd5b600061142b82610b0d565b915061143683610b0d565b925082820390508181111561144e5761144d6113f1565b5b92915050565b7f4e487b7100000000000000000000000000000000000000000000000000000000600052603260045260246000fd5b60008154905061149281611142565b9050919050565b8181036114a757505061157f565b6114b082611483565b67ffffffffffffffff8111156114c9576114c8610b5e565b5b6114d38254611142565b6114de828285611292565b6000601f83116001811461150d57600084156114fb578287015490505b6115058582611303565b865550611578565b601f19841661151b87611173565b965061152686611173565b60005b8281101561154e57848901548255600182019150600185019450602081019050611529565b8683101561156b5784890154611567601f8916826112e5565b8355505b6001600288020188555050505b5050505050505b56fea2646970667358221220a53f669c6bd3195330f120997c37485d63bbbd87506d1c47ce788f276caee75664736f6c63430008120033",
					"opcodes": "PUSH1 0x80 PUSH1 0x40 MSTORE CALLVALUE DUP1 ISZERO PUSH2 0x10 JUMPI PUSH1 0x0 DUP1 REVERT JUMPDEST POP PUSH2 0x15B7 DUP1 PUSH2 0x20 PUSH1 0x0 CODECOPY PUSH1 0x0 RETURN INVALID PUSH1 0x80 PUSH1 0x40 MSTORE CALLVALUE DUP1 ISZERO PUSH2 0x10 JUMPI PUSH1 0x0 DUP1 REVERT JUMPDEST POP PUSH1 0x4 CALLDATASIZE LT PUSH2 0xB4 JUMPI PUSH1 0x0 CALLDATALOAD PUSH1 0xE0 SHR DUP1 PUSH4 0x9CEAB7C1 GT PUSH2 0x71 JUMPI DUP1 PUSH4 0x9CEAB7C1 EQ PUSH2 0x165 JUMPI DUP1 PUSH4 0xA2375D1E EQ PUSH2 0x183 JUMPI DUP1 PUSH4 0xCD914DEF EQ PUSH2 0x1A1 JUMPI DUP1 PUSH4 0xE93314AB EQ PUSH2 0x1BD JUMPI DUP1 PUSH4 0xEDEB21CF EQ PUSH2 0x1DB JUMPI DUP1 PUSH4 0xFB49CFBC EQ PUSH2 0x1F7 JUMPI PUSH2 0xB4 JUMP JUMPDEST DUP1 PUSH4 0x1908791C EQ PUSH2 0xB9 JUMPI DUP1 PUSH4 0x39139225 EQ PUSH2 0xD5 JUMPI DUP1 PUSH4 0x562CA543 EQ PUSH2 0x105 JUMPI DUP1 PUSH4 0x626C525C EQ PUSH2 0x121 JUMPI DUP1 PUSH4 0x6DB75504 EQ PUSH2 0x13F JUMPI DUP1 PUSH4 0x93DBEAA3 EQ PUSH2 0x149 JUMPI JUMPDEST PUSH1 0x0 DUP1 REVERT JUMPDEST PUSH2 0xD3 PUSH1 0x4 DUP1 CALLDATASIZE SUB DUP2 ADD SWAP1 PUSH2 0xCE SWAP2 SWAP1 PUSH2 0xCE1 JUMP JUMPDEST PUSH2 0x213 JUMP JUMPDEST STOP JUMPDEST PUSH2 0xEF PUSH1 0x4 DUP1 CALLDATASIZE SUB DUP2 ADD SWAP1 PUSH2 0xEA SWAP2 SWAP1 PUSH2 0xD50 JUMP JUMPDEST PUSH2 0x29B JUMP JUMPDEST PUSH1 0x40 MLOAD PUSH2 0xFC SWAP2 SWAP1 PUSH2 0xE6A JUMP JUMPDEST PUSH1 0x40 MLOAD DUP1 SWAP2 SUB SWAP1 RETURN JUMPDEST PUSH2 0x11F PUSH1 0x4 DUP1 CALLDATASIZE SUB DUP2 ADD SWAP1 PUSH2 0x11A SWAP2 SWAP1 PUSH2 0xE8C JUMP JUMPDEST PUSH2 0x3D8 JUMP JUMPDEST STOP JUMPDEST PUSH2 0x129 PUSH2 0x44F JUMP JUMPDEST PUSH1 0x40 MLOAD PUSH2 0x136 SWAP2 SWAP1 PUSH2 0xE6A JUMP JUMPDEST PUSH1 0x40 MLOAD DUP1 SWAP2 SUB SWAP1 RETURN JUMPDEST PUSH2 0x147 PUSH2 0x55E JUMP JUMPDEST STOP JUMPDEST PUSH2 0x163 PUSH1 0x4 DUP1 CALLDATASIZE SUB DUP2 ADD SWAP1 PUSH2 0x15E SWAP2 SWAP1 PUSH2 0xE8C JUMP JUMPDEST PUSH2 0x5DD JUMP JUMPDEST STOP JUMPDEST PUSH2 0x16D PUSH2 0x62C JUMP JUMPDEST PUSH1 0x40 MLOAD PUSH2 0x17A SWAP2 SWAP1 PUSH2 0x100D JUMP JUMPDEST PUSH1 0x40 MLOAD DUP1 SWAP2 SUB SWAP1 RETURN JUMPDEST PUSH2 0x18B PUSH2 0x780 JUMP JUMPDEST PUSH1 0x40 MLOAD PUSH2 0x198 SWAP2 SWAP1 PUSH2 0x107F JUMP JUMPDEST PUSH1 0x40 MLOAD DUP1 SWAP2 SUB SWAP1 RETURN JUMPDEST PUSH2 0x1BB PUSH1 0x4 DUP1 CALLDATASIZE SUB DUP2 ADD SWAP1 PUSH2 0x1B6 SWAP2 SWAP1 PUSH2 0xCE1 JUMP JUMPDEST PUSH2 0x840 JUMP JUMPDEST STOP JUMPDEST PUSH2 0x1C5 PUSH2 0x8F0 JUMP JUMPDEST PUSH1 0x40 MLOAD PUSH2 0x1D2 SWAP2 SWAP1 PUSH2 0x10F1 JUMP JUMPDEST PUSH1 0x40 MLOAD DUP1 SWAP2 SUB SWAP1 RETURN JUMPDEST PUSH2 0x1F5 PUSH1 0x4 DUP1 CALLDATASIZE SUB DUP2 ADD SWAP1 PUSH2 0x1F0 SWAP2 SWAP1 PUSH2 0xE8C JUMP JUMPDEST PUSH2 0x9B0 JUMP JUMPDEST STOP JUMPDEST PUSH2 0x211 PUSH1 0x4 DUP1 CALLDATASIZE SUB DUP2 ADD SWAP1 PUSH2 0x20C SWAP2 SWAP1 PUSH2 0xE8C JUMP JUMPDEST PUSH2 0xA27 JUMP JUMPDEST STOP JUMPDEST PUSH1 0x40 MLOAD DUP1 PUSH1 0x60 ADD PUSH1 0x40 MSTORE DUP1 DUP5 DUP2 MSTORE PUSH1 0x20 ADD DUP4 DUP2 MSTORE PUSH1 0x20 ADD DUP3 PUSH30 0xFFFFFFFFFFFFFFFFFFFFFFFFFFFFFFFFFFFFFFFFFFFFFFFFFFFFFFFFFFFF NOT AND DUP2 MSTORE POP PUSH1 0x8 PUSH1 0x0 DUP3 ADD MLOAD DUP2 PUSH1 0x0 ADD SSTORE PUSH1 0x20 DUP3 ADD MLOAD DUP2 PUSH1 0x1 ADD SWAP1 DUP2 PUSH2 0x270 SWAP2 SWAP1 PUSH2 0x131F JUMP JUMPDEST POP PUSH1 0x40 DUP3 ADD MLOAD DUP2 PUSH1 0x2 ADD PUSH1 0x0 PUSH2 0x100 EXP DUP2 SLOAD DUP2 PUSH2 0xFFFF MUL NOT AND SWAP1 DUP4 PUSH1 0xF0 SHR MUL OR SWAP1 SSTORE POP SWAP1 POP POP POP POP POP JUMP JUMPDEST PUSH2 0x2A3 PUSH2 0xA75 JUMP JUMPDEST PUSH1 0xB PUSH1 0x1 DUP4 PUSH2 0x2B2 SWAP2 SWAP1 PUSH2 0x1420 JUMP JUMPDEST DUP2 SLOAD DUP2 LT PUSH2 0x2C3 JUMPI PUSH2 0x2C2 PUSH2 0x1454 JUMP JUMPDEST JUMPDEST SWAP1 PUSH1 0x0 MSTORE PUSH1 0x20 PUSH1 0x0 KECCAK256 SWAP1 PUSH1 0x3 MUL ADD PUSH1 0x40 MLOAD DUP1 PUSH1 0x60 ADD PUSH1 0x40 MSTORE SWAP1 DUP2 PUSH1 0x0 DUP3 ADD SLOAD DUP2 MSTORE PUSH1 0x20 ADD PUSH1 0x1 DUP3 ADD DUP1 SLOAD PUSH2 0x2F6 SWAP1 PUSH2 0x1142 JUMP JUMPDEST DUP1 PUSH1 0x1F ADD PUSH1 0x20 DUP1 SWAP2 DIV MUL PUSH1 0x20 ADD PUSH1 0x40 MLOAD SWAP1 DUP2 ADD PUSH1 0x40 MSTORE DUP1 SWAP3 SWAP2 SWAP1 DUP2 DUP2 MSTORE PUSH1 0x20 ADD DUP3 DUP1 SLOAD PUSH2 0x322 SWAP1 PUSH2 0x1142 JUMP JUMPDEST DUP1 ISZERO PUSH2 0x36F JUMPI DUP1 PUSH1 0x1F LT PUSH2 0x344 JUMPI PUSH2 0x100 DUP1 DUP4 SLOAD DIV MUL DUP4 MSTORE SWAP2 PUSH1 0x20 ADD SWAP2 PUSH2 0x36F JUMP JUMPDEST DUP3 ADD SWAP2 SWAP1 PUSH1 0x0 MSTORE PUSH1 0x20 PUSH1 0x0 KECCAK256 SWAP1 JUMPDEST DUP2 SLOAD DUP2 MSTORE SWAP1 PUSH1 0x1 ADD SWAP1 PUSH1 0x20 ADD DUP1 DUP4 GT PUSH2 0x352 JUMPI DUP3 SWAP1 SUB PUSH1 0x1F AND DUP3 ADD SWAP2 JUMPDEST POP POP POP POP POP DUP2 MSTORE PUSH1 0x20 ADD PUSH1 0x2 DUP3 ADD PUSH1 0x0 SWAP1 SLOAD SWAP1 PUSH2 0x100 EXP SWAP1 DIV PUSH1 0xF0 SHL PUSH30 0xFFFFFFFFFFFFFFFFFFFFFFFFFFFFFFFFFFFFFFFFFFFFFFFFFFFFFFFFFFFF NOT AND PUSH30 0xFFFFFFFFFFFFFFFFFFFFFFFFFFFFFFFFFFFFFFFFFFFFFFFFFFFFFFFFFFFF NOT AND DUP2 MSTORE POP POP SWAP1 POP SWAP2 SWAP1 POP JUMP JUMPDEST PUSH1 0x6 PUSH1 0x40 MLOAD DUP1 PUSH1 0x60 ADD PUSH1 0x40 MSTORE DUP1 DUP6 DUP2 MSTORE PUSH1 0x20 ADD DUP5 DUP2 MSTORE PUSH1 0x20 ADD DUP4 DUP2 MSTORE POP SWAP1 DUP1 PUSH1 0x1 DUP2 SLOAD ADD DUP1 DUP3 SSTORE DUP1 SWAP2 POP POP PUSH1 0x1 SWAP1 SUB SWAP1 PUSH1 0x0 MSTORE PUSH1 0x20 PUSH1 0x0 KECCAK256 SWAP1 PUSH1 0x3 MUL ADD PUSH1 0x0 SWAP1 SWAP2 SWAP1 SWAP2 SWAP1 SWAP2 POP PUSH1 0x0 DUP3 ADD MLOAD DUP2 PUSH1 0x0 ADD SWAP1 DUP2 PUSH2 0x433 SWAP2 SWAP1 PUSH2 0x131F JUMP JUMPDEST POP PUSH1 0x20 DUP3 ADD MLOAD DUP2 PUSH1 0x1 ADD SSTORE PUSH1 0x40 DUP3 ADD MLOAD DUP2 PUSH1 0x2 ADD SSTORE POP POP POP POP POP JUMP JUMPDEST PUSH2 0x457 PUSH2 0xA75 JUMP JUMPDEST PUSH1 0x8 PUSH1 0x40 MLOAD DUP1 PUSH1 0x60 ADD PUSH1 0x40 MSTORE SWAP1 DUP2 PUSH1 0x0 DUP3 ADD SLOAD DUP2 MSTORE PUSH1 0x20 ADD PUSH1 0x1 DUP3 ADD DUP1 SLOAD PUSH2 0x47E SWAP1 PUSH2 0x1142 JUMP JUMPDEST DUP1 PUSH1 0x1F ADD PUSH1 0x20 DUP1 SWAP2 DIV MUL PUSH1 0x20 ADD PUSH1 0x40 MLOAD SWAP1 DUP2 ADD PUSH1 0x40 MSTORE DUP1 SWAP3 SWAP2 SWAP1 DUP2 DUP2 MSTORE PUSH1 0x20 ADD DUP3 DUP1 SLOAD PUSH2 0x4AA SWAP1 PUSH2 0x1142 JUMP JUMPDEST DUP1 ISZERO PUSH2 0x4F7 JUMPI DUP1 PUSH1 0x1F LT PUSH2 0x4CC JUMPI PUSH2 0x100 DUP1 DUP4 SLOAD DIV MUL DUP4 MSTORE SWAP2 PUSH1 0x20 ADD SWAP2 PUSH2 0x4F7 JUMP JUMPDEST DUP3 ADD SWAP2 SWAP1 PUSH1 0x0 MSTORE PUSH1 0x20 PUSH1 0x0 KECCAK256 SWAP1 JUMPDEST DUP2 SLOAD DUP2 MSTORE SWAP1 PUSH1 0x1 ADD SWAP1 PUSH1 0x20 ADD DUP1 DUP4 GT PUSH2 0x4DA JUMPI DUP3 SWAP1 SUB PUSH1 0x1F AND DUP3 ADD SWAP2 JUMPDEST POP POP POP POP POP DUP2 MSTORE PUSH1 0x20 ADD PUSH1 0x2 DUP3 ADD PUSH1 0x0 SWAP1 SLOAD SWAP1 PUSH2 0x100 EXP SWAP1 DIV PUSH1 0xF0 SHL PUSH30 0xFFFFFFFFFFFFFFFFFFFFFFFFFFFFFFFFFFFFFFFFFFFFFFFFFFFFFFFFFFFF NOT AND PUSH30 0xFFFFFFFFFFFFFFFFFFFFFFFFFFFFFFFFFFFFFFFFFFFFFFFFFFFFFFFFFFFF NOT AND DUP2 MSTORE POP POP SWAP1 POP SWAP1 JUMP JUMPDEST PUSH1 0xB PUSH1 0x8 SWAP1 DUP1 PUSH1 0x1 DUP2 SLOAD ADD DUP1 DUP3 SSTORE DUP1 SWAP2 POP POP PUSH1 0x1 SWAP1 SUB SWAP1 PUSH1 0x0 MSTORE PUSH1 0x20 PUSH1 0x0 KECCAK256 SWAP1 PUSH1 0x3 MUL ADD PUSH1 0x0 SWAP1 SWAP2 SWAP1 SWAP2 SWAP1 SWAP2 POP PUSH1 0x0 DUP3 ADD SLOAD DUP2 PUSH1 0x0 ADD SSTORE PUSH1 0x1 DUP3 ADD DUP2 PUSH1 0x1 ADD SWAP1 DUP2 PUSH2 0x5A9 SWAP2 SWAP1 PUSH2 0x1499 JUMP JUMPDEST POP PUSH1 0x2 DUP3 ADD PUSH1 0x0 SWAP1 SLOAD SWAP1 PUSH2 0x100 EXP SWAP1 DIV PUSH1 0xF0 SHL DUP2 PUSH1 0x2 ADD PUSH1 0x0 PUSH2 0x100 EXP DUP2 SLOAD DUP2 PUSH2 0xFFFF MUL NOT AND SWAP1 DUP4 PUSH1 0xF0 SHR MUL OR SWAP1 SSTORE POP POP POP JUMP JUMPDEST PUSH1 0x40 MLOAD DUP1 PUSH1 0x60 ADD PUSH1 0x40 MSTORE DUP1 DUP5 DUP2 MSTORE PUSH1 0x20 ADD DUP4 DUP2 MSTORE PUSH1 0x20 ADD DUP3 DUP2 MSTORE POP PUSH1 0x3 PUSH1 0x0 DUP3 ADD MLOAD DUP2 PUSH1 0x0 ADD SWAP1 DUP2 PUSH2 0x60F SWAP2 SWAP1 PUSH2 0x131F JUMP JUMPDEST POP PUSH1 0x20 DUP3 ADD MLOAD DUP2 PUSH1 0x1 ADD SSTORE PUSH1 0x40 DUP3 ADD MLOAD DUP2 PUSH1 0x2 ADD SSTORE SWAP1 POP POP POP POP POP JUMP JUMPDEST PUSH1 0x60 PUSH1 0xB DUP1 SLOAD DUP1 PUSH1 0x20 MUL PUSH1 0x20 ADD PUSH1 0x40 MLOAD SWAP1 DUP2 ADD PUSH1 0x40 MSTORE DUP1 SWAP3 SWAP2 SWAP1 DUP2 DUP2 MSTORE PUSH1 0x20 ADD PUSH1 0x0 SWAP1 JUMPDEST DUP3 DUP3 LT ISZERO PUSH2 0x777 JUMPI DUP4 DUP3 SWAP1 PUSH1 0x0 MSTORE PUSH1 0x20 PUSH1 0x0 KECCAK256 SWAP1 PUSH1 0x3 MUL ADD PUSH1 0x40 MLOAD DUP1 PUSH1 0x60 ADD PUSH1 0x40 MSTORE SWAP1 DUP2 PUSH1 0x0 DUP3 ADD SLOAD DUP2 MSTORE PUSH1 0x20 ADD PUSH1 0x1 DUP3 ADD DUP1 SLOAD PUSH2 0x68D SWAP1 PUSH2 0x1142 JUMP JUMPDEST DUP1 PUSH1 0x1F ADD PUSH1 0x20 DUP1 SWAP2 DIV MUL PUSH1 0x20 ADD PUSH1 0x40 MLOAD SWAP1 DUP2 ADD PUSH1 0x40 MSTORE DUP1 SWAP3 SWAP2 SWAP1 DUP2 DUP2 MSTORE PUSH1 0x20 ADD DUP3 DUP1 SLOAD PUSH2 0x6B9 SWAP1 PUSH2 0x1142 JUMP JUMPDEST DUP1 ISZERO PUSH2 0x706 JUMPI DUP1 PUSH1 0x1F LT PUSH2 0x6DB JUMPI PUSH2 0x100 DUP1 DUP4 SLOAD DIV MUL DUP4 MSTORE SWAP2 PUSH1 0x20 ADD SWAP2 PUSH2 0x706 JUMP JUMPDEST DUP3 ADD SWAP2 SWAP1 PUSH1 0x0 MSTORE PUSH1 0x20 PUSH1 0x0 KECCAK256 SWAP1 JUMPDEST DUP2 SLOAD DUP2 MSTORE SWAP1 PUSH1 0x1 ADD SWAP1 PUSH1 0x20 ADD DUP1 DUP4 GT PUSH2 0x6E9 JUMPI DUP3 SWAP1 SUB PUSH1 0x1F AND DUP3 ADD SWAP2 JUMPDEST POP POP POP POP POP DUP2 MSTORE PUSH1 0x20 ADD PUSH1 0x2 DUP3 ADD PUSH1 0x0 SWAP1 SLOAD SWAP1 PUSH2 0x100 EXP SWAP1 DIV PUSH1 0xF0 SHL PUSH30 0xFFFFFFFFFFFFFFFFFFFFFFFFFFFFFFFFFFFFFFFFFFFFFFFFFFFFFFFFFFFF NOT AND PUSH30 0xFFFFFFFFFFFFFFFFFFFFFFFFFFFFFFFFFFFFFFFFFFFFFFFFFFFFFFFFFFFF NOT AND DUP2 MSTORE POP POP DUP2 MSTORE PUSH1 0x20 ADD SWAP1 PUSH1 0x1 ADD SWAP1 PUSH2 0x650 JUMP JUMPDEST POP POP POP POP SWAP1 POP SWAP1 JUMP JUMPDEST PUSH2 0x788 PUSH2 0xAB7 JUMP JUMPDEST PUSH1 0x3 PUSH1 0x40 MLOAD DUP1 PUSH1 0x60 ADD PUSH1 0x40 MSTORE SWAP1 DUP2 PUSH1 0x0 DUP3 ADD DUP1 SLOAD PUSH2 0x7A5 SWAP1 PUSH2 0x1142 JUMP JUMPDEST DUP1 PUSH1 0x1F ADD PUSH1 0x20 DUP1 SWAP2 DIV MUL PUSH1 0x20 ADD PUSH1 0x40 MLOAD SWAP1 DUP2 ADD PUSH1 0x40 MSTORE DUP1 SWAP3 SWAP2 SWAP1 DUP2 DUP2 MSTORE PUSH1 0x20 ADD DUP3 DUP1 SLOAD PUSH2 0x7D1 SWAP1 PUSH2 0x1142 JUMP JUMPDEST DUP1 ISZERO PUSH2 0x81E JUMPI DUP1 PUSH1 0x1F LT PUSH2 0x7F3 JUMPI PUSH2 0x100 DUP1 DUP4 SLOAD DIV MUL DUP4 MSTORE SWAP2 PUSH1 0x20 ADD SWAP2 PUSH2 0x81E JUMP JUMPDEST DUP3 ADD SWAP2 SWAP1 PUSH1 0x0 MSTORE PUSH1 0x20 PUSH1 0x0 KECCAK256 SWAP1 JUMPDEST DUP2 SLOAD DUP2 MSTORE SWAP1 PUSH1 0x1 ADD SWAP1 PUSH1 0x20 ADD DUP1 DUP4 GT PUSH2 0x801 JUMPI DUP3 SWAP1 SUB PUSH1 0x1F AND DUP3 ADD SWAP2 JUMPDEST POP POP POP POP POP DUP2 MSTORE PUSH1 0x20 ADD PUSH1 0x1 DUP3 ADD SLOAD DUP2 MSTORE PUSH1 0x20 ADD PUSH1 0x2 DUP3 ADD SLOAD DUP2 MSTORE POP POP SWAP1 POP SWAP1 JUMP JUMPDEST PUSH1 0xB PUSH1 0x40 MLOAD DUP1 PUSH1 0x60 ADD PUSH1 0x40 MSTORE DUP1 DUP6 DUP2 MSTORE PUSH1 0x20 ADD DUP5 DUP2 MSTORE PUSH1 0x20 ADD DUP4 PUSH30 0xFFFFFFFFFFFFFFFFFFFFFFFFFFFFFFFFFFFFFFFFFFFFFFFFFFFFFFFFFFFF NOT AND DUP2 MSTORE POP SWAP1 DUP1 PUSH1 0x1 DUP2 SLOAD ADD DUP1 DUP3 SSTORE DUP1 SWAP2 POP POP PUSH1 0x1 SWAP1 SUB SWAP1 PUSH1 0x0 MSTORE PUSH1 0x20 PUSH1 0x0 KECCAK256 SWAP1 PUSH1 0x3 MUL ADD PUSH1 0x0 SWAP1 SWAP2 SWAP1 SWAP2 SWAP1 SWAP2 POP PUSH1 0x0 DUP3 ADD MLOAD DUP2 PUSH1 0x0 ADD SSTORE PUSH1 0x20 DUP3 ADD MLOAD DUP2 PUSH1 0x1 ADD SWAP1 DUP2 PUSH2 0x8C6 SWAP2 SWAP1 PUSH2 0x131F JUMP JUMPDEST POP PUSH1 0x40 DUP3 ADD MLOAD DUP2 PUSH1 0x2 ADD PUSH1 0x0 PUSH2 0x100 EXP DUP2 SLOAD DUP2 PUSH2 0xFFFF MUL NOT AND SWAP1 DUP4 PUSH1 0xF0 SHR MUL OR SWAP1 SSTORE POP POP POP POP POP POP JUMP JUMPDEST PUSH2 0x8F8 PUSH2 0xAD8 JUMP JUMPDEST PUSH1 0x0 PUSH1 0x40 MLOAD DUP1 PUSH1 0x60 ADD PUSH1 0x40 MSTORE SWAP1 DUP2 PUSH1 0x0 DUP3 ADD DUP1 SLOAD PUSH2 0x915 SWAP1 PUSH2 0x1142 JUMP JUMPDEST DUP1 PUSH1 0x1F ADD PUSH1 0x20 DUP1 SWAP2 DIV MUL PUSH1 0x20 ADD PUSH1 0x40 MLOAD SWAP1 DUP2 ADD PUSH1 0x40 MSTORE DUP1 SWAP3 SWAP2 SWAP1 DUP2 DUP2 MSTORE PUSH1 0x20 ADD DUP3 DUP1 SLOAD PUSH2 0x941 SWAP1 PUSH2 0x1142 JUMP JUMPDEST DUP1 ISZERO PUSH2 0x98E JUMPI DUP1 PUSH1 0x1F LT PUSH2 0x963 JUMPI PUSH2 0x100 DUP1 DUP4 SLOAD DIV MUL DUP4 MSTORE SWAP2 PUSH1 0x20 ADD SWAP2 PUSH2 0x98E JUMP JUMPDEST DUP3 ADD SWAP2 SWAP1 PUSH1 0x0 MSTORE PUSH1 0x20 PUSH1 0x0 KECCAK256 SWAP1 JUMPDEST DUP2 SLOAD DUP2 MSTORE SWAP1 PUSH1 0x1 ADD SWAP1 PUSH1 0x20 ADD DUP1 DUP4 GT PUSH2 0x971 JUMPI DUP3 SWAP1 SUB PUSH1 0x1F AND DUP3 ADD SWAP2 JUMPDEST POP POP POP POP POP DUP2 MSTORE PUSH1 0x20 ADD PUSH1 0x1 DUP3 ADD SLOAD DUP2 MSTORE PUSH1 0x20 ADD PUSH1 0x2 DUP3 ADD SLOAD DUP2 MSTORE POP POP SWAP1 POP SWAP1 JUMP JUMPDEST PUSH1 0x7 PUSH1 0x40 MLOAD DUP1 PUSH1 0x60 ADD PUSH1 0x40 MSTORE DUP1 DUP6 DUP2 MSTORE PUSH1 0x20 ADD DUP5 DUP2 MSTORE PUSH1 0x20 ADD DUP4 DUP2 MSTORE POP SWAP1 DUP1 PUSH1 0x1 DUP2 SLOAD ADD DUP1 DUP3 SSTORE DUP1 SWAP2 POP POP PUSH1 0x1 SWAP1 SUB SWAP1 PUSH1 0x0 MSTORE PUSH1 0x20 PUSH1 0x0 KECCAK256 SWAP1 PUSH1 0x3 MUL ADD PUSH1 0x0 SWAP1 SWAP2 SWAP1 SWAP2 SWAP1 SWAP2 POP PUSH1 0x0 DUP3 ADD MLOAD DUP2 PUSH1 0x0 ADD SWAP1 DUP2 PUSH2 0xA0B SWAP2 SWAP1 PUSH2 0x131F JUMP JUMPDEST POP PUSH1 0x20 DUP3 ADD MLOAD DUP2 PUSH1 0x1 ADD SSTORE PUSH1 0x40 DUP3 ADD MLOAD DUP2 PUSH1 0x2 ADD SSTORE POP POP POP POP POP JUMP JUMPDEST PUSH1 0x40 MLOAD DUP1 PUSH1 0x60 ADD PUSH1 0x40 MSTORE DUP1 DUP5 DUP2 MSTORE PUSH1 0x20 ADD DUP4 DUP2 MSTORE PUSH1 0x20 ADD DUP3 DUP2 MSTORE POP PUSH1 0x0 DUP1 DUP3 ADD MLOAD DUP2 PUSH1 0x0 ADD SWAP1 DUP2 PUSH2 0xA58 SWAP2 SWAP1 PUSH2 0x131F JUMP JUMPDEST POP PUSH1 0x20 DUP3 ADD MLOAD DUP2 PUSH1 0x1 ADD SSTORE PUSH1 0x40 DUP3 ADD MLOAD DUP2 PUSH1 0x2 ADD SSTORE SWAP1 POP POP POP POP POP JUMP JUMPDEST PUSH1 0x40 MLOAD DUP1 PUSH1 0x60 ADD PUSH1 0x40 MSTORE DUP1 PUSH1 0x0 DUP2 MSTORE PUSH1 0x20 ADD PUSH1 0x60 DUP2 MSTORE PUSH1 0x20 ADD PUSH1 0x0 PUSH30 0xFFFFFFFFFFFFFFFFFFFFFFFFFFFFFFFFFFFFFFFFFFFFFFFFFFFFFFFFFFFF NOT AND DUP2 MSTORE POP SWAP1 JUMP JUMPDEST PUSH1 0x40 MLOAD DUP1 PUSH1 0x60 ADD PUSH1 0x40 MSTORE DUP1 PUSH1 0x60 DUP2 MSTORE PUSH1 0x20 ADD PUSH1 0x0 DUP2 MSTORE PUSH1 0x20 ADD PUSH1 0x0 DUP2 MSTORE POP SWAP1 JUMP JUMPDEST PUSH1 0x40 MLOAD DUP1 PUSH1 0x60 ADD PUSH1 0x40 MSTORE DUP1 PUSH1 0x60 DUP2 MSTORE PUSH1 0x20 ADD PUSH1 0x0 DUP2 MSTORE PUSH1 0x20 ADD PUSH1 0x0 DUP2 MSTORE POP SWAP1 JUMP JUMPDEST PUSH1 0x0 PUSH1 0x40 MLOAD SWAP1 POP SWAP1 JUMP JUMPDEST PUSH1 0x0 DUP1 REVERT JUMPDEST PUSH1 0x0 DUP1 REVERT JUMPDEST PUSH1 0x0 DUP2 SWAP1 POP SWAP2 SWAP1 POP JUMP JUMPDEST PUSH2 0xB20 DUP2 PUSH2 0xB0D JUMP JUMPDEST DUP2 EQ PUSH2 0xB2B JUMPI PUSH1 0x0 DUP1 REVERT JUMPDEST POP JUMP JUMPDEST PUSH1 0x0 DUP2 CALLDATALOAD SWAP1 POP PUSH2 0xB3D DUP2 PUSH2 0xB17 JUMP JUMPDEST SWAP3 SWAP2 POP POP JUMP JUMPDEST PUSH1 0x0 DUP1 REVERT JUMPDEST PUSH1 0x0 DUP1 REVERT JUMPDEST PUSH1 0x0 PUSH1 0x1F NOT PUSH1 0x1F DUP4 ADD AND SWAP1 POP SWAP2 SWAP1 POP JUMP JUMPDEST PUSH32 0x4E487B7100000000000000000000000000000000000000000000000000000000 PUSH1 0x0 MSTORE PUSH1 0x41 PUSH1 0x4 MSTORE PUSH1 0x24 PUSH1 0x0 REVERT JUMPDEST PUSH2 0xB96 DUP3 PUSH2 0xB4D JUMP JUMPDEST DUP2 ADD DUP2 DUP2 LT PUSH8 0xFFFFFFFFFFFFFFFF DUP3 GT OR ISZERO PUSH2 0xBB5 JUMPI PUSH2 0xBB4 PUSH2 0xB5E JUMP JUMPDEST JUMPDEST DUP1 PUSH1 0x40 MSTORE POP POP POP JUMP JUMPDEST PUSH1 0x0 PUSH2 0xBC8 PUSH2 0xAF9 JUMP JUMPDEST SWAP1 POP PUSH2 0xBD4 DUP3 DUP3 PUSH2 0xB8D JUMP JUMPDEST SWAP2 SWAP1 POP JUMP JUMPDEST PUSH1 0x0 PUSH8 0xFFFFFFFFFFFFFFFF DUP3 GT ISZERO PUSH2 0xBF4 JUMPI PUSH2 0xBF3 PUSH2 0xB5E JUMP JUMPDEST JUMPDEST PUSH2 0xBFD DUP3 PUSH2 0xB4D JUMP JUMPDEST SWAP1 POP PUSH1 0x20 DUP2 ADD SWAP1 POP SWAP2 SWAP1 POP JUMP JUMPDEST DUP3 DUP2 DUP4 CALLDATACOPY PUSH1 0x0 DUP4 DUP4 ADD MSTORE POP POP POP JUMP JUMPDEST PUSH1 0x0 PUSH2 0xC2C PUSH2 0xC27 DUP5 PUSH2 0xBD9 JUMP JUMPDEST PUSH2 0xBBE JUMP JUMPDEST SWAP1 POP DUP3 DUP2 MSTORE PUSH1 0x20 DUP2 ADD DUP5 DUP5 DUP5 ADD GT ISZERO PUSH2 0xC48 JUMPI PUSH2 0xC47 PUSH2 0xB48 JUMP JUMPDEST JUMPDEST PUSH2 0xC53 DUP5 DUP3 DUP6 PUSH2 0xC0A JUMP JUMPDEST POP SWAP4 SWAP3 POP POP POP JUMP JUMPDEST PUSH1 0x0 DUP3 PUSH1 0x1F DUP4 ADD SLT PUSH2 0xC70 JUMPI PUSH2 0xC6F PUSH2 0xB43 JUMP JUMPDEST JUMPDEST DUP2 CALLDATALOAD PUSH2 0xC80 DUP5 DUP3 PUSH1 0x20 DUP7 ADD PUSH2 0xC19 JUMP JUMPDEST SWAP2 POP POP SWAP3 SWAP2 POP POP JUMP JUMPDEST PUSH1 0x0 PUSH32 0xFFFF000000000000000000000000000000000000000000000000000000000000 DUP3 AND SWAP1 POP SWAP2 SWAP1 POP JUMP JUMPDEST PUSH2 0xCBE DUP2 PUSH2 0xC89 JUMP JUMPDEST DUP2 EQ PUSH2 0xCC9 JUMPI PUSH1 0x0 DUP1 REVERT JUMPDEST POP JUMP JUMPDEST PUSH1 0x0 DUP2 CALLDATALOAD SWAP1 POP PUSH2 0xCDB DUP2 PUSH2 0xCB5 JUMP JUMPDEST SWAP3 SWAP2 POP POP JUMP JUMPDEST PUSH1 0x0 DUP1 PUSH1 0x0 PUSH1 0x60 DUP5 DUP7 SUB SLT ISZERO PUSH2 0xCFA JUMPI PUSH2 0xCF9 PUSH2 0xB03 JUMP JUMPDEST JUMPDEST PUSH1 0x0 PUSH2 0xD08 DUP7 DUP3 DUP8 ADD PUSH2 0xB2E JUMP JUMPDEST SWAP4 POP POP PUSH1 0x20 DUP5 ADD CALLDATALOAD PUSH8 0xFFFFFFFFFFFFFFFF DUP2 GT ISZERO PUSH2 0xD29 JUMPI PUSH2 0xD28 PUSH2 0xB08 JUMP JUMPDEST JUMPDEST PUSH2 0xD35 DUP7 DUP3 DUP8 ADD PUSH2 0xC5B JUMP JUMPDEST SWAP3 POP POP PUSH1 0x40 PUSH2 0xD46 DUP7 DUP3 DUP8 ADD PUSH2 0xCCC JUMP JUMPDEST SWAP2 POP POP SWAP3 POP SWAP3 POP SWAP3 JUMP JUMPDEST PUSH1 0x0 PUSH1 0x20 DUP3 DUP5 SUB SLT ISZERO PUSH2 0xD66 JUMPI PUSH2 0xD65 PUSH2 0xB03 JUMP JUMPDEST JUMPDEST PUSH1 0x0 PUSH2 0xD74 DUP5 DUP3 DUP6 ADD PUSH2 0xB2E JUMP JUMPDEST SWAP2 POP POP SWAP3 SWAP2 POP POP JUMP JUMPDEST PUSH2 0xD86 DUP2 PUSH2 0xB0D JUMP JUMPDEST DUP3 MSTORE POP POP JUMP JUMPDEST PUSH1 0x0 DUP2 MLOAD SWAP1 POP SWAP2 SWAP1 POP JUMP JUMPDEST PUSH1 0x0 DUP3 DUP3 MSTORE PUSH1 0x20 DUP3 ADD SWAP1 POP SWAP3 SWAP2 POP POP JUMP JUMPDEST PUSH1 0x0 JUMPDEST DUP4 DUP2 LT ISZERO PUSH2 0xDC6 JUMPI DUP1 DUP3 ADD MLOAD DUP2 DUP5 ADD MSTORE PUSH1 0x20 DUP2 ADD SWAP1 POP PUSH2 0xDAB JUMP JUMPDEST PUSH1 0x0 DUP5 DUP5 ADD MSTORE POP POP POP POP JUMP JUMPDEST PUSH1 0x0 PUSH2 0xDDD DUP3 PUSH2 0xD8C JUMP JUMPDEST PUSH2 0xDE7 DUP2 DUP6 PUSH2 0xD97 JUMP JUMPDEST SWAP4 POP PUSH2 0xDF7 DUP2 DUP6 PUSH1 0x20 DUP7 ADD PUSH2 0xDA8 JUMP JUMPDEST PUSH2 0xE00 DUP2 PUSH2 0xB4D JUMP JUMPDEST DUP5 ADD SWAP2 POP POP SWAP3 SWAP2 POP POP JUMP JUMPDEST PUSH2 0xE14 DUP2 PUSH2 0xC89 JUMP JUMPDEST DUP3 MSTORE POP POP JUMP JUMPDEST PUSH1 0x0 PUSH1 0x60 DUP4 ADD PUSH1 0x0 DUP4 ADD MLOAD PUSH2 0xE32 PUSH1 0x0 DUP7 ADD DUP3 PUSH2 0xD7D JUMP JUMPDEST POP PUSH1 0x20 DUP4 ADD MLOAD DUP5 DUP3 SUB PUSH1 0x20 DUP7 ADD MSTORE PUSH2 0xE4A DUP3 DUP3 PUSH2 0xDD2 JUMP JUMPDEST SWAP2 POP POP PUSH1 0x40 DUP4 ADD MLOAD PUSH2 0xE5F PUSH1 0x40 DUP7 ADD DUP3 PUSH2 0xE0B JUMP JUMPDEST POP DUP1 SWAP2 POP POP SWAP3 SWAP2 POP POP JUMP JUMPDEST PUSH1 0x0 PUSH1 0x20 DUP3 ADD SWAP1 POP DUP2 DUP2 SUB PUSH1 0x0 DUP4 ADD MSTORE PUSH2 0xE84 DUP2 DUP5 PUSH2 0xE1A JUMP JUMPDEST SWAP1 POP SWAP3 SWAP2 POP POP JUMP JUMPDEST PUSH1 0x0 DUP1 PUSH1 0x0 PUSH1 0x60 DUP5 DUP7 SUB SLT ISZERO PUSH2 0xEA5 JUMPI PUSH2 0xEA4 PUSH2 0xB03 JUMP JUMPDEST JUMPDEST PUSH1 0x0 DUP5 ADD CALLDATALOAD PUSH8 0xFFFFFFFFFFFFFFFF DUP2 GT ISZERO PUSH2 0xEC3 JUMPI PUSH2 0xEC2 PUSH2 0xB08 JUMP JUMPDEST JUMPDEST PUSH2 0xECF DUP7 DUP3 DUP8 ADD PUSH2 0xC5B JUMP JUMPDEST SWAP4 POP POP PUSH1 0x20 PUSH2 0xEE0 DUP7 DUP3 DUP8 ADD PUSH2 0xB2E JUMP JUMPDEST SWAP3 POP POP PUSH1 0x40 PUSH2 0xEF1 DUP7 DUP3 DUP8 ADD PUSH2 0xB2E JUMP JUMPDEST SWAP2 POP POP SWAP3 POP SWAP3 POP SWAP3 JUMP JUMPDEST PUSH1 0x0 DUP2 MLOAD SWAP1 POP SWAP2 SWAP1 POP JUMP JUMPDEST PUSH1 0x0 DUP3 DUP3 MSTORE PUSH1 0x20 DUP3 ADD SWAP1 POP SWAP3 SWAP2 POP POP JUMP JUMPDEST PUSH1 0x0 DUP2 SWAP1 POP PUSH1 0x20 DUP3 ADD SWAP1 POP SWAP2 SWAP1 POP JUMP JUMPDEST PUSH1 0x0 PUSH1 0x60 DUP4 ADD PUSH1 0x0 DUP4 ADD MLOAD PUSH2 0xF3F PUSH1 0x0 DUP7 ADD DUP3 PUSH2 0xD7D JUMP JUMPDEST POP PUSH1 0x20 DUP4 ADD MLOAD DUP5 DUP3 SUB PUSH1 0x20 DUP7 ADD MSTORE PUSH2 0xF57 DUP3 DUP3 PUSH2 0xDD2 JUMP JUMPDEST SWAP2 POP POP PUSH1 0x40 DUP4 ADD MLOAD PUSH2 0xF6C PUSH1 0x40 DUP7 ADD DUP3 PUSH2 0xE0B JUMP JUMPDEST POP DUP1 SWAP2 POP POP SWAP3 SWAP2 POP POP JUMP JUMPDEST PUSH1 0x0 PUSH2 0xF83 DUP4 DUP4 PUSH2 0xF27 JUMP JUMPDEST SWAP1 POP SWAP3 SWAP2 POP POP JUMP JUMPDEST PUSH1 0x0 PUSH1 0x20 DUP3 ADD SWAP1 POP SWAP2 SWAP1 POP JUMP JUMPDEST PUSH1 0x0 PUSH2 0xFA3 DUP3 PUSH2 0xEFB JUMP JUMPDEST PUSH2 0xFAD DUP2 DUP6 PUSH2 0xF06 JUMP JUMPDEST SWAP4 POP DUP4 PUSH1 0x20 DUP3 MUL DUP6 ADD PUSH2 0xFBF DUP6 PUSH2 0xF17 JUMP JUMPDEST DUP1 PUSH1 0x0 JUMPDEST DUP6 DUP2 LT ISZERO PUSH2 0xFFB JUMPI DUP5 DUP5 SUB DUP10 MSTORE DUP2 MLOAD PUSH2 0xFDC DUP6 DUP3 PUSH2 0xF77 JUMP JUMPDEST SWAP5 POP PUSH2 0xFE7 DUP4 PUSH2 0xF8B JUMP JUMPDEST SWAP3 POP PUSH1 0x20 DUP11 ADD SWAP10 POP POP PUSH1 0x1 DUP2 ADD SWAP1 POP PUSH2 0xFC3 JUMP JUMPDEST POP DUP3 SWAP8 POP DUP8 SWAP6 POP POP POP POP POP POP SWAP3 SWAP2 POP POP JUMP JUMPDEST PUSH1 0x0 PUSH1 0x20 DUP3 ADD SWAP1 POP DUP2 DUP2 SUB PUSH1 0x0 DUP4 ADD MSTORE PUSH2 0x1027 DUP2 DUP5 PUSH2 0xF98 JUMP JUMPDEST SWAP1 POP SWAP3 SWAP2 POP POP JUMP JUMPDEST PUSH1 0x0 PUSH1 0x60 DUP4 ADD PUSH1 0x0 DUP4 ADD MLOAD DUP5 DUP3 SUB PUSH1 0x0 DUP7 ADD MSTORE PUSH2 0x104C DUP3 DUP3 PUSH2 0xDD2 JUMP JUMPDEST SWAP2 POP POP PUSH1 0x20 DUP4 ADD MLOAD PUSH2 0x1061 PUSH1 0x20 DUP7 ADD DUP3 PUSH2 0xD7D JUMP JUMPDEST POP PUSH1 0x40 DUP4 ADD MLOAD PUSH2 0x1074 PUSH1 0x40 DUP7 ADD DUP3 PUSH2 0xD7D JUMP JUMPDEST POP DUP1 SWAP2 POP POP SWAP3 SWAP2 POP POP JUMP JUMPDEST PUSH1 0x0 PUSH1 0x20 DUP3 ADD SWAP1 POP DUP2 DUP2 SUB PUSH1 0x0 DUP4 ADD MSTORE PUSH2 0x1099 DUP2 DUP5 PUSH2 0x102F JUMP JUMPDEST SWAP1 POP SWAP3 SWAP2 POP POP JUMP JUMPDEST PUSH1 0x0 PUSH1 0x60 DUP4 ADD PUSH1 0x0 DUP4 ADD MLOAD DUP5 DUP3 SUB PUSH1 0x0 DUP7 ADD MSTORE PUSH2 0x10BE DUP3 DUP3 PUSH2 0xDD2 JUMP JUMPDEST SWAP2 POP POP PUSH1 0x20 DUP4 ADD MLOAD PUSH2 0x10D3 PUSH1 0x20 DUP7 ADD DUP3 PUSH2 0xD7D JUMP JUMPDEST POP PUSH1 0x40 DUP4 ADD MLOAD PUSH2 0x10E6 PUSH1 0x40 DUP7 ADD DUP3 PUSH2 0xD7D JUMP JUMPDEST POP DUP1 SWAP2 POP POP SWAP3 SWAP2 POP POP JUMP JUMPDEST PUSH1 0x0 PUSH1 0x20 DUP3 ADD SWAP1 POP DUP2 DUP2 SUB PUSH1 0x0 DUP4 ADD MSTORE PUSH2 0x110B DUP2 DUP5 PUSH2 0x10A1 JUMP JUMPDEST SWAP1 POP SWAP3 SWAP2 POP POP JUMP JUMPDEST PUSH32 0x4E487B7100000000000000000000000000000000000000000000000000000000 PUSH1 0x0 MSTORE PUSH1 0x22 PUSH1 0x4 MSTORE PUSH1 0x24 PUSH1 0x0 REVERT JUMPDEST PUSH1 0x0 PUSH1 0x2 DUP3 DIV SWAP1 POP PUSH1 0x1 DUP3 AND DUP1 PUSH2 0x115A JUMPI PUSH1 0x7F DUP3 AND SWAP2 POP JUMPDEST PUSH1 0x20 DUP3 LT DUP2 SUB PUSH2 0x116D JUMPI PUSH2 0x116C PUSH2 0x1113 JUMP JUMPDEST JUMPDEST POP SWAP2 SWAP1 POP JUMP JUMPDEST PUSH1 0x0 DUP2 SWAP1 POP DUP2 PUSH1 0x0 MSTORE PUSH1 0x20 PUSH1 0x0 KECCAK256 SWAP1 POP SWAP2 SWAP1 POP JUMP JUMPDEST PUSH1 0x0 PUSH1 0x20 PUSH1 0x1F DUP4 ADD DIV SWAP1 POP SWAP2 SWAP1 POP JUMP JUMPDEST PUSH1 0x0 DUP3 DUP3 SHL SWAP1 POP SWAP3 SWAP2 POP POP JUMP JUMPDEST PUSH1 0x0 PUSH1 0x8 DUP4 MUL PUSH2 0x11D5 PUSH32 0xFFFFFFFFFFFFFFFFFFFFFFFFFFFFFFFFFFFFFFFFFFFFFFFFFFFFFFFFFFFFFFFF DUP3 PUSH2 0x1198 JUMP JUMPDEST PUSH2 0x11DF DUP7 DUP4 PUSH2 0x1198 JUMP JUMPDEST SWAP6 POP DUP1 NOT DUP5 AND SWAP4 POP DUP1 DUP7 AND DUP5 OR SWAP3 POP POP POP SWAP4 SWAP3 POP POP POP JUMP JUMPDEST PUSH1 0x0 DUP2 SWAP1 POP SWAP2 SWAP1 POP JUMP JUMPDEST PUSH1 0x0 PUSH2 0x121C PUSH2 0x1217 PUSH2 0x1212 DUP5 PUSH2 0xB0D JUMP JUMPDEST PUSH2 0x11F7 JUMP JUMPDEST PUSH2 0xB0D JUMP JUMPDEST SWAP1 POP SWAP2 SWAP1 POP JUMP JUMPDEST PUSH1 0x0 DUP2 SWAP1 POP SWAP2 SWAP1 POP JUMP JUMPDEST PUSH2 0x1236 DUP4 PUSH2 0x1201 JUMP JUMPDEST PUSH2 0x124A PUSH2 0x1242 DUP3 PUSH2 0x1223 JUMP JUMPDEST DUP5 DUP5 SLOAD PUSH2 0x11A5 JUMP JUMPDEST DUP3 SSTORE POP POP POP POP JUMP JUMPDEST PUSH1 0x0 SWAP1 JUMP JUMPDEST PUSH2 0x125F PUSH2 0x1252 JUMP JUMPDEST PUSH2 0x126A DUP2 DUP5 DUP5 PUSH2 0x122D JUMP JUMPDEST POP POP POP JUMP JUMPDEST JUMPDEST DUP2 DUP2 LT ISZERO PUSH2 0x128E JUMPI PUSH2 0x1283 PUSH1 0x0 DUP3 PUSH2 0x1257 JUMP JUMPDEST PUSH1 0x1 DUP2 ADD SWAP1 POP PUSH2 0x1270 JUMP JUMPDEST POP POP JUMP JUMPDEST PUSH1 0x1F DUP3 GT ISZERO PUSH2 0x12D3 JUMPI PUSH2 0x12A4 DUP2 PUSH2 0x1173 JUMP JUMPDEST PUSH2 0x12AD DUP5 PUSH2 0x1188 JUMP JUMPDEST DUP2 ADD PUSH1 0x20 DUP6 LT ISZERO PUSH2 0x12BC JUMPI DUP2 SWAP1 POP JUMPDEST PUSH2 0x12D0 PUSH2 0x12C8 DUP6 PUSH2 0x1188 JUMP JUMPDEST DUP4 ADD DUP3 PUSH2 0x126F JUMP JUMPDEST POP POP JUMPDEST POP POP POP JUMP JUMPDEST PUSH1 0x0 DUP3 DUP3 SHR SWAP1 POP SWAP3 SWAP2 POP POP JUMP JUMPDEST PUSH1 0x0 PUSH2 0x12F6 PUSH1 0x0 NOT DUP5 PUSH1 0x8 MUL PUSH2 0x12D8 JUMP JUMPDEST NOT DUP1 DUP4 AND SWAP2 POP POP SWAP3 SWAP2 POP POP JUMP JUMPDEST PUSH1 0x0 PUSH2 0x130F DUP4 DUP4 PUSH2 0x12E5 JUMP JUMPDEST SWAP2 POP DUP3 PUSH1 0x2 MUL DUP3 OR SWAP1 POP SWAP3 SWAP2 POP POP JUMP JUMPDEST PUSH2 0x1328 DUP3 PUSH2 0xD8C JUMP JUMPDEST PUSH8 0xFFFFFFFFFFFFFFFF DUP2 GT ISZERO PUSH2 0x1341 JUMPI PUSH2 0x1340 PUSH2 0xB5E JUMP JUMPDEST JUMPDEST PUSH2 0x134B DUP3 SLOAD PUSH2 0x1142 JUMP JUMPDEST PUSH2 0x1356 DUP3 DUP3 DUP6 PUSH2 0x1292 JUMP JUMPDEST PUSH1 0x0 PUSH1 0x20 SWAP1 POP PUSH1 0x1F DUP4 GT PUSH1 0x1 DUP2 EQ PUSH2 0x1389 JUMPI PUSH1 0x0 DUP5 ISZERO PUSH2 0x1377 JUMPI DUP3 DUP8 ADD MLOAD SWAP1 POP JUMPDEST PUSH2 0x1381 DUP6 DUP3 PUSH2 0x1303 JUMP JUMPDEST DUP7 SSTORE POP PUSH2 0x13E9 JUMP JUMPDEST PUSH1 0x1F NOT DUP5 AND PUSH2 0x1397 DUP7 PUSH2 0x1173 JUMP JUMPDEST PUSH1 0x0 JUMPDEST DUP3 DUP2 LT ISZERO PUSH2 0x13BF JUMPI DUP5 DUP10 ADD MLOAD DUP3 SSTORE PUSH1 0x1 DUP3 ADD SWAP2 POP PUSH1 0x20 DUP6 ADD SWAP5 POP PUSH1 0x20 DUP2 ADD SWAP1 POP PUSH2 0x139A JUMP JUMPDEST DUP7 DUP4 LT ISZERO PUSH2 0x13DC JUMPI DUP5 DUP10 ADD MLOAD PUSH2 0x13D8 PUSH1 0x1F DUP10 AND DUP3 PUSH2 0x12E5 JUMP JUMPDEST DUP4 SSTORE POP JUMPDEST PUSH1 0x1 PUSH1 0x2 DUP9 MUL ADD DUP9 SSTORE POP POP POP JUMPDEST POP POP POP POP POP POP JUMP JUMPDEST PUSH32 0x4E487B7100000000000000000000000000000000000000000000000000000000 PUSH1 0x0 MSTORE PUSH1 0x11 PUSH1 0x4 MSTORE PUSH1 0x24 PUSH1 0x0 REVERT JUMPDEST PUSH1 0x0 PUSH2 0x142B DUP3 PUSH2 0xB0D JUMP JUMPDEST SWAP2 POP PUSH2 0x1436 DUP4 PUSH2 0xB0D JUMP JUMPDEST SWAP3 POP DUP3 DUP3 SUB SWAP1 POP DUP2 DUP2 GT ISZERO PUSH2 0x144E JUMPI PUSH2 0x144D PUSH2 0x13F1 JUMP JUMPDEST JUMPDEST SWAP3 SWAP2 POP POP JUMP JUMPDEST PUSH32 0x4E487B7100000000000000000000000000000000000000000000000000000000 PUSH1 0x0 MSTORE PUSH1 0x32 PUSH1 0x4 MSTORE PUSH1 0x24 PUSH1 0x0 REVERT JUMPDEST PUSH1 0x0 DUP2 SLOAD SWAP1 POP PUSH2 0x1492 DUP2 PUSH2 0x1142 JUMP JUMPDEST SWAP1 POP SWAP2 SWAP1 POP JUMP JUMPDEST DUP2 DUP2 SUB PUSH2 0x14A7 JUMPI POP POP PUSH2 0x157F JUMP JUMPDEST PUSH2 0x14B0 DUP3 PUSH2 0x1483 JUMP JUMPDEST PUSH8 0xFFFFFFFFFFFFFFFF DUP2 GT ISZERO PUSH2 0x14C9 JUMPI PUSH2 0x14C8 PUSH2 0xB5E JUMP JUMPDEST JUMPDEST PUSH2 0x14D3 DUP3 SLOAD PUSH2 0x1142 JUMP JUMPDEST PUSH2 0x14DE DUP3 DUP3 DUP6 PUSH2 0x1292 JUMP JUMPDEST PUSH1 0x0 PUSH1 0x1F DUP4 GT PUSH1 0x1 DUP2 EQ PUSH2 0x150D JUMPI PUSH1 0x0 DUP5 ISZERO PUSH2 0x14FB JUMPI DUP3 DUP8 ADD SLOAD SWAP1 POP JUMPDEST PUSH2 0x1505 DUP6 DUP3 PUSH2 0x1303 JUMP JUMPDEST DUP7 SSTORE POP PUSH2 0x1578 JUMP JUMPDEST PUSH1 0x1F NOT DUP5 AND PUSH2 0x151B DUP8 PUSH2 0x1173 JUMP JUMPDEST SWAP7 POP PUSH2 0x1526 DUP7 PUSH2 0x1173 JUMP JUMPDEST PUSH1 0x0 JUMPDEST DUP3 DUP2 LT ISZERO PUSH2 0x154E JUMPI DUP5 DUP10 ADD SLOAD DUP3 SSTORE PUSH1 0x1 DUP3 ADD SWAP2 POP PUSH1 0x1 DUP6 ADD SWAP5 POP PUSH1 0x20 DUP2 ADD SWAP1 POP PUSH2 0x1529 JUMP JUMPDEST DUP7 DUP4 LT ISZERO PUSH2 0x156B JUMPI DUP5 DUP10 ADD SLOAD PUSH2 0x1567 PUSH1 0x1F DUP10 AND DUP3 PUSH2 0x12E5 JUMP JUMPDEST DUP4 SSTORE POP JUMPDEST PUSH1 0x1 PUSH1 0x2 DUP9 MUL ADD DUP9 SSTORE POP POP POP JUMPDEST POP POP POP POP POP POP JUMPDEST JUMP INVALID LOG2 PUSH5 0x6970667358 0x22 SLT KECCAK256 0xA5 EXTCODEHASH PUSH7 0x9C6BD3195330F1 KECCAK256 SWAP10 PUSH29 0x37485D63BBBD87506D1C47CE788F276CAEE75664736F6C634300081200 CALLER "
				},
				"gasEstimates": {
					"creation": {
						"codeDepositCost": "1111800",
						"executionCost": "1154",
						"totalCost": "1112954"
					},
					"external": {
						"getAllDs()": "infinite",
						"getC()": "infinite",
						"getDD()": "infinite",
						"getN(uint256)": "infinite",
						"getS()": "infinite",
						"pushClass(string,uint256,uint256)": "infinite",
						"pushD(uint256,string,bytes2)": "infinite",
						"pushD2()": "infinite",
						"pushStudent(string,uint256,uint256)": "infinite",
						"setC(string,uint256,uint256)": "infinite",
						"setDD(uint256,string,bytes2)": "infinite",
						"setS(string,uint256,uint256)": "infinite"
					}
				},
				"methodIdentifiers": {
					"getAllDs()": "9ceab7c1",
					"getC()": "a2375d1e",
					"getDD()": "626c525c",
					"getN(uint256)": "39139225",
					"getS()": "e93314ab",
					"pushClass(string,uint256,uint256)": "edeb21cf",
					"pushD(uint256,string,bytes2)": "cd914def",
					"pushD2()": "6db75504",
					"pushStudent(string,uint256,uint256)": "562ca543",
					"setC(string,uint256,uint256)": "93dbeaa3",
					"setDD(uint256,string,bytes2)": "1908791c",
					"setS(string,uint256,uint256)": "fb49cfbc"
				}
			},
			"storageLayout": {
				"storage": [
					{
						"astId": 18,
						"contract": "contracts-lecture/230508-1.sol:note",
						"label": "s",
						"offset": 0,
						"slot": "0",
						"type": "t_struct(Student)8_storage"
					},
					{
						"astId": 21,
						"contract": "contracts-lecture/230508-1.sol:note",
						"label": "c",
						"offset": 0,
						"slot": "3",
						"type": "t_struct(Class)15_storage"
					},
					{
						"astId": 79,
						"contract": "contracts-lecture/230508-1.sol:note",
						"label": "students",
						"offset": 0,
						"slot": "6",
						"type": "t_array(t_struct(Student)8_storage)dyn_storage"
					},
					{
						"astId": 83,
						"contract": "contracts-lecture/230508-1.sol:note",
						"label": "classes",
						"offset": 0,
						"slot": "7",
						"type": "t_array(t_struct(Class)15_storage)dyn_storage"
					},
					{
						"astId": 133,
						"contract": "contracts-lecture/230508-1.sol:note",
						"label": "dd",
						"offset": 0,
						"slot": "8",
						"type": "t_struct(D)130_storage"
					},
					{
						"astId": 164,
						"contract": "contracts-lecture/230508-1.sol:note",
						"label": "Ds",
						"offset": 0,
						"slot": "11",
						"type": "t_array(t_struct(D)130_storage)dyn_storage"
					}
				],
				"types": {
					"t_array(t_struct(Class)15_storage)dyn_storage": {
						"base": "t_struct(Class)15_storage",
						"encoding": "dynamic_array",
						"label": "struct note.Class[]",
						"numberOfBytes": "32"
					},
					"t_array(t_struct(D)130_storage)dyn_storage": {
						"base": "t_struct(D)130_storage",
						"encoding": "dynamic_array",
						"label": "struct note.D[]",
						"numberOfBytes": "32"
					},
					"t_array(t_struct(Student)8_storage)dyn_storage": {
						"base": "t_struct(Student)8_storage",
						"encoding": "dynamic_array",
						"label": "struct note.Student[]",
						"numberOfBytes": "32"
					},
					"t_bytes2": {
						"encoding": "inplace",
						"label": "bytes2",
						"numberOfBytes": "2"
					},
					"t_string_storage": {
						"encoding": "bytes",
						"label": "string",
						"numberOfBytes": "32"
					},
					"t_struct(Class)15_storage": {
						"encoding": "inplace",
						"label": "struct note.Class",
						"members": [
							{
								"astId": 10,
								"contract": "contracts-lecture/230508-1.sol:note",
								"label": "title",
								"offset": 0,
								"slot": "0",
								"type": "t_string_storage"
							},
							{
								"astId": 12,
								"contract": "contracts-lecture/230508-1.sol:note",
								"label": "number",
								"offset": 0,
								"slot": "1",
								"type": "t_uint256"
							},
							{
								"astId": 14,
								"contract": "contracts-lecture/230508-1.sol:note",
								"label": "date",
								"offset": 0,
								"slot": "2",
								"type": "t_uint256"
							}
						],
						"numberOfBytes": "96"
					},
					"t_struct(D)130_storage": {
						"encoding": "inplace",
						"label": "struct note.D",
						"members": [
							{
								"astId": 125,
								"contract": "contracts-lecture/230508-1.sol:note",
								"label": "a",
								"offset": 0,
								"slot": "0",
								"type": "t_uint256"
							},
							{
								"astId": 127,
								"contract": "contracts-lecture/230508-1.sol:note",
								"label": "b",
								"offset": 0,
								"slot": "1",
								"type": "t_string_storage"
							},
							{
								"astId": 129,
								"contract": "contracts-lecture/230508-1.sol:note",
								"label": "c",
								"offset": 0,
								"slot": "2",
								"type": "t_bytes2"
							}
						],
						"numberOfBytes": "96"
					},
					"t_struct(Student)8_storage": {
						"encoding": "inplace",
						"label": "struct note.Student",
						"members": [
							{
								"astId": 3,
								"contract": "contracts-lecture/230508-1.sol:note",
								"label": "name",
								"offset": 0,
								"slot": "0",
								"type": "t_string_storage"
							},
							{
								"astId": 5,
								"contract": "contracts-lecture/230508-1.sol:note",
								"label": "number",
								"offset": 0,
								"slot": "1",
								"type": "t_uint256"
							},
							{
								"astId": 7,
								"contract": "contracts-lecture/230508-1.sol:note",
								"label": "birth",
								"offset": 0,
								"slot": "2",
								"type": "t_uint256"
							}
						],
						"numberOfBytes": "96"
					},
					"t_uint256": {
						"encoding": "inplace",
						"label": "uint256",
						"numberOfBytes": "32"
					}
				}
			},
			"userdoc": {
				"kind": "user",
				"methods": {},
				"version": 1
			}
		}
	}
}