{
	"contracts-lecture/230510-1.sol": {
		"note": {
			"abi": [
				{
					"inputs": [
						{
							"internalType": "uint256",
							"name": "_n",
							"type": "uint256"
						}
					],
					"name": "getName",
					"outputs": [
						{
							"internalType": "string",
							"name": "",
							"type": "string"
						}
					],
					"stateMutability": "view",
					"type": "function"
				},
				{
					"inputs": [
						{
							"internalType": "string",
							"name": "_Teacher",
							"type": "string"
						}
					],
					"name": "getStudent",
					"outputs": [
						{
							"components": [
								{
									"internalType": "string",
									"name": "name",
									"type": "string"
								},
								{
									"internalType": "uint256",
									"name": "number",
									"type": "uint256"
								},
								{
									"internalType": "string[]",
									"name": "classes",
									"type": "string[]"
								}
							],
							"internalType": "struct note.Student[]",
							"name": "",
							"type": "tuple[]"
						}
					],
					"stateMutability": "view",
					"type": "function"
				},
				{
					"inputs": [
						{
							"internalType": "uint256",
							"name": "_n",
							"type": "uint256"
						}
					],
					"name": "getStudents",
					"outputs": [
						{
							"components": [
								{
									"internalType": "string",
									"name": "name",
									"type": "string"
								},
								{
									"internalType": "uint256",
									"name": "number",
									"type": "uint256"
								},
								{
									"internalType": "string[]",
									"name": "classes",
									"type": "string[]"
								}
							],
							"internalType": "struct note.Student",
							"name": "",
							"type": "tuple"
						}
					],
					"stateMutability": "view",
					"type": "function"
				},
				{
					"inputs": [
						{
							"internalType": "string",
							"name": "_Teacher",
							"type": "string"
						},
						{
							"internalType": "string",
							"name": "_name",
							"type": "string"
						},
						{
							"internalType": "uint256",
							"name": "_number",
							"type": "uint256"
						},
						{
							"internalType": "string[]",
							"name": "_classes",
							"type": "string[]"
						}
					],
					"name": "setStudent",
					"outputs": [],
					"stateMutability": "nonpayable",
					"type": "function"
				},
				{
					"inputs": [
						{
							"internalType": "string",
							"name": "_aa",
							"type": "string"
						},
						{
							"internalType": "uint256",
							"name": "_n",
							"type": "uint256"
						},
						{
							"internalType": "uint256",
							"name": "_number",
							"type": "uint256"
						}
					],
					"name": "setStudent2",
					"outputs": [],
					"stateMutability": "nonpayable",
					"type": "function"
				},
				{
					"inputs": [
						{
							"internalType": "string",
							"name": "_name",
							"type": "string"
						},
						{
							"internalType": "uint256",
							"name": "_number",
							"type": "uint256"
						},
						{
							"internalType": "string[]",
							"name": "_classes",
							"type": "string[]"
						}
					],
					"name": "setStudents",
					"outputs": [],
					"stateMutability": "nonpayable",
					"type": "function"
				}
			],
			"devdoc": {
				"kind": "dev",
				"methods": {},
				"version": 1
			},
			"evm": {
				"assembly": "    /* \"contracts-lecture/230510-1.sol\":63:1104  contract note{... */\n  mstore(0x40, 0x80)\n  callvalue\n  dup1\n  iszero\n  tag_1\n  jumpi\n  0x00\n  dup1\n  revert\ntag_1:\n  pop\n  dataSize(sub_0)\n  dup1\n  dataOffset(sub_0)\n  0x00\n  codecopy\n  0x00\n  return\nstop\n\nsub_0: assembly {\n        /* \"contracts-lecture/230510-1.sol\":63:1104  contract note{... */\n      mstore(0x40, 0x80)\n      callvalue\n      dup1\n      iszero\n      tag_1\n      jumpi\n      0x00\n      dup1\n      revert\n    tag_1:\n      pop\n      jumpi(tag_2, lt(calldatasize, 0x04))\n      shr(0xe0, calldataload(0x00))\n      dup1\n      0x6b8ff574\n      eq\n      tag_3\n      jumpi\n      dup1\n      0x75c2f8f0\n      eq\n      tag_4\n      jumpi\n      dup1\n      0x83645765\n      eq\n      tag_5\n      jumpi\n      dup1\n      0xd0296612\n      eq\n      tag_6\n      jumpi\n      dup1\n      0xebb76d68\n      eq\n      tag_7\n      jumpi\n      dup1\n      0xebe1d0da\n      eq\n      tag_8\n      jumpi\n    tag_2:\n      0x00\n      dup1\n      revert\n        /* \"contracts-lecture/230510-1.sol\":473:577  function getName(uint _n) public view returns(string memory) {... */\n    tag_3:\n      tag_9\n      0x04\n      dup1\n      calldatasize\n      sub\n      dup2\n      add\n      swap1\n      tag_10\n      swap2\n      swap1\n      tag_11\n      jump\t// in\n    tag_10:\n      tag_12\n      jump\t// in\n    tag_9:\n      mload(0x40)\n      tag_13\n      swap2\n      swap1\n      tag_14\n      jump\t// in\n    tag_13:\n      mload(0x40)\n      dup1\n      swap2\n      sub\n      swap1\n      return\n        /* \"contracts-lecture/230510-1.sol\":363:467  function getStudents(uint _n) public view returns(Student memory) {... */\n    tag_4:\n      tag_15\n      0x04\n      dup1\n      calldatasize\n      sub\n      dup2\n      add\n      swap1\n      tag_16\n      swap2\n      swap1\n      tag_11\n      jump\t// in\n    tag_16:\n      tag_17\n      jump\t// in\n    tag_15:\n      mload(0x40)\n      tag_18\n      swap2\n      swap1\n      tag_19\n      jump\t// in\n    tag_18:\n      mload(0x40)\n      dup1\n      swap2\n      sub\n      swap1\n      return\n        /* \"contracts-lecture/230510-1.sol\":635:829  function setStudent(string memory _Teacher, string memory _name, uint _number, string[] memory _classes) public {... */\n    tag_5:\n      tag_20\n      0x04\n      dup1\n      calldatasize\n      sub\n      dup2\n      add\n      swap1\n      tag_21\n      swap2\n      swap1\n      tag_22\n      jump\t// in\n    tag_21:\n      tag_23\n      jump\t// in\n    tag_20:\n      stop\n        /* \"contracts-lecture/230510-1.sol\":971:1102  function getStudent(string memory _Teacher) public view returns(Student[] memory) {... */\n    tag_6:\n      tag_24\n      0x04\n      dup1\n      calldatasize\n      sub\n      dup2\n      add\n      swap1\n      tag_25\n      swap2\n      swap1\n      tag_26\n      jump\t// in\n    tag_25:\n      tag_27\n      jump\t// in\n    tag_24:\n      mload(0x40)\n      tag_28\n      swap2\n      swap1\n      tag_29\n      jump\t// in\n    tag_28:\n      mload(0x40)\n      dup1\n      swap2\n      sub\n      swap1\n      return\n        /* \"contracts-lecture/230510-1.sol\":203:357  function setStudents(string memory _name, uint _number, string[] memory _classes) public {... */\n    tag_7:\n      tag_30\n      0x04\n      dup1\n      calldatasize\n      sub\n      dup2\n      add\n      swap1\n      tag_31\n      swap2\n      swap1\n      tag_32\n      jump\t// in\n    tag_31:\n      tag_33\n      jump\t// in\n    tag_30:\n      stop\n        /* \"contracts-lecture/230510-1.sol\":835:965  function setStudent2(string memory _aa, uint _n, uint _number) public {... */\n    tag_8:\n      tag_34\n      0x04\n      dup1\n      calldatasize\n      sub\n      dup2\n      add\n      swap1\n      tag_35\n      swap2\n      swap1\n      tag_36\n      jump\t// in\n    tag_35:\n      tag_37\n      jump\t// in\n    tag_34:\n      stop\n        /* \"contracts-lecture/230510-1.sol\":473:577  function getName(uint _n) public view returns(string memory) {... */\n    tag_12:\n        /* \"contracts-lecture/230510-1.sol\":519:532  string memory */\n      0x60\n        /* \"contracts-lecture/230510-1.sol\":551:559  students */\n      0x00\n        /* \"contracts-lecture/230510-1.sol\":563:564  1 */\n      0x01\n        /* \"contracts-lecture/230510-1.sol\":560:562  _n */\n      dup4\n        /* \"contracts-lecture/230510-1.sol\":560:564  _n-1 */\n      tag_39\n      swap2\n      swap1\n      tag_40\n      jump\t// in\n    tag_39:\n        /* \"contracts-lecture/230510-1.sol\":551:565  students[_n-1] */\n      dup2\n      sload\n      dup2\n      lt\n      tag_41\n      jumpi\n      tag_42\n      tag_43\n      jump\t// in\n    tag_42:\n    tag_41:\n      swap1\n      0x00\n      mstore\n      keccak256(0x00, 0x20)\n      swap1\n      0x03\n      mul\n      add\n        /* \"contracts-lecture/230510-1.sol\":551:570  students[_n-1].name */\n      0x00\n      add\n        /* \"contracts-lecture/230510-1.sol\":544:570  return students[_n-1].name */\n      dup1\n      sload\n      tag_45\n      swap1\n      tag_46\n      jump\t// in\n    tag_45:\n      dup1\n      0x1f\n      add\n      0x20\n      dup1\n      swap2\n      div\n      mul\n      0x20\n      add\n      mload(0x40)\n      swap1\n      dup2\n      add\n      0x40\n      mstore\n      dup1\n      swap3\n      swap2\n      swap1\n      dup2\n      dup2\n      mstore\n      0x20\n      add\n      dup3\n      dup1\n      sload\n      tag_47\n      swap1\n      tag_46\n      jump\t// in\n    tag_47:\n      dup1\n      iszero\n      tag_48\n      jumpi\n      dup1\n      0x1f\n      lt\n      tag_49\n      jumpi\n      0x0100\n      dup1\n      dup4\n      sload\n      div\n      mul\n      dup4\n      mstore\n      swap2\n      0x20\n      add\n      swap2\n      jump(tag_48)\n    tag_49:\n      dup3\n      add\n      swap2\n      swap1\n      0x00\n      mstore\n      keccak256(0x00, 0x20)\n      swap1\n    tag_50:\n      dup2\n      sload\n      dup2\n      mstore\n      swap1\n      0x01\n      add\n      swap1\n      0x20\n      add\n      dup1\n      dup4\n      gt\n      tag_50\n      jumpi\n      dup3\n      swap1\n      sub\n      0x1f\n      and\n      dup3\n      add\n      swap2\n    tag_48:\n      pop\n      pop\n      pop\n      pop\n      pop\n      swap1\n      pop\n        /* \"contracts-lecture/230510-1.sol\":473:577  function getName(uint _n) public view returns(string memory) {... */\n      swap2\n      swap1\n      pop\n      jump\t// out\n        /* \"contracts-lecture/230510-1.sol\":363:467  function getStudents(uint _n) public view returns(Student memory) {... */\n    tag_17:\n        /* \"contracts-lecture/230510-1.sol\":413:427  Student memory */\n      tag_51\n      tag_52\n      jump\t// in\n    tag_51:\n        /* \"contracts-lecture/230510-1.sol\":446:454  students */\n      0x00\n        /* \"contracts-lecture/230510-1.sol\":458:459  1 */\n      0x01\n        /* \"contracts-lecture/230510-1.sol\":455:457  _n */\n      dup4\n        /* \"contracts-lecture/230510-1.sol\":455:459  _n-1 */\n      tag_54\n      swap2\n      swap1\n      tag_40\n      jump\t// in\n    tag_54:\n        /* \"contracts-lecture/230510-1.sol\":446:460  students[_n-1] */\n      dup2\n      sload\n      dup2\n      lt\n      tag_55\n      jumpi\n      tag_56\n      tag_43\n      jump\t// in\n    tag_56:\n    tag_55:\n      swap1\n      0x00\n      mstore\n      keccak256(0x00, 0x20)\n      swap1\n      0x03\n      mul\n      add\n        /* \"contracts-lecture/230510-1.sol\":439:460  return students[_n-1] */\n      mload(0x40)\n      dup1\n      0x60\n      add\n      0x40\n      mstore\n      swap1\n      dup2\n      0x00\n      dup3\n      add\n      dup1\n      sload\n      tag_58\n      swap1\n      tag_46\n      jump\t// in\n    tag_58:\n      dup1\n      0x1f\n      add\n      0x20\n      dup1\n      swap2\n      div\n      mul\n      0x20\n      add\n      mload(0x40)\n      swap1\n      dup2\n      add\n      0x40\n      mstore\n      dup1\n      swap3\n      swap2\n      swap1\n      dup2\n      dup2\n      mstore\n      0x20\n      add\n      dup3\n      dup1\n      sload\n      tag_59\n      swap1\n      tag_46\n      jump\t// in\n    tag_59:\n      dup1\n      iszero\n      tag_60\n      jumpi\n      dup1\n      0x1f\n      lt\n      tag_61\n      jumpi\n      0x0100\n      dup1\n      dup4\n      sload\n      div\n      mul\n      dup4\n      mstore\n      swap2\n      0x20\n      add\n      swap2\n      jump(tag_60)\n    tag_61:\n      dup3\n      add\n      swap2\n      swap1\n      0x00\n      mstore\n      keccak256(0x00, 0x20)\n      swap1\n    tag_62:\n      dup2\n      sload\n      dup2\n      mstore\n      swap1\n      0x01\n      add\n      swap1\n      0x20\n      add\n      dup1\n      dup4\n      gt\n      tag_62\n      jumpi\n      dup3\n      swap1\n      sub\n      0x1f\n      and\n      dup3\n      add\n      swap2\n    tag_60:\n      pop\n      pop\n      pop\n      pop\n      pop\n      dup2\n      mstore\n      0x20\n      add\n      0x01\n      dup3\n      add\n      sload\n      dup2\n      mstore\n      0x20\n      add\n      0x02\n      dup3\n      add\n      dup1\n      sload\n      dup1\n      0x20\n      mul\n      0x20\n      add\n      mload(0x40)\n      swap1\n      dup2\n      add\n      0x40\n      mstore\n      dup1\n      swap3\n      swap2\n      swap1\n      dup2\n      dup2\n      mstore\n      0x20\n      add\n      0x00\n      swap1\n    tag_63:\n      dup3\n      dup3\n      lt\n      iszero\n      tag_64\n      jumpi\n      dup4\n      dup3\n      swap1\n      0x00\n      mstore\n      keccak256(0x00, 0x20)\n      add\n      dup1\n      sload\n      tag_66\n      swap1\n      tag_46\n      jump\t// in\n    tag_66:\n      dup1\n      0x1f\n      add\n      0x20\n      dup1\n      swap2\n      div\n      mul\n      0x20\n      add\n      mload(0x40)\n      swap1\n      dup2\n      add\n      0x40\n      mstore\n      dup1\n      swap3\n      swap2\n      swap1\n      dup2\n      dup2\n      mstore\n      0x20\n      add\n      dup3\n      dup1\n      sload\n      tag_67\n      swap1\n      tag_46\n      jump\t// in\n    tag_67:\n      dup1\n      iszero\n      tag_68\n      jumpi\n      dup1\n      0x1f\n      lt\n      tag_69\n      jumpi\n      0x0100\n      dup1\n      dup4\n      sload\n      div\n      mul\n      dup4\n      mstore\n      swap2\n      0x20\n      add\n      swap2\n      jump(tag_68)\n    tag_69:\n      dup3\n      add\n      swap2\n      swap1\n      0x00\n      mstore\n      keccak256(0x00, 0x20)\n      swap1\n    tag_70:\n      dup2\n      sload\n      dup2\n      mstore\n      swap1\n      0x01\n      add\n      swap1\n      0x20\n      add\n      dup1\n      dup4\n      gt\n      tag_70\n      jumpi\n      dup3\n      swap1\n      sub\n      0x1f\n      and\n      dup3\n      add\n      swap2\n    tag_68:\n      pop\n      pop\n      pop\n      pop\n      pop\n      dup2\n      mstore\n      0x20\n      add\n      swap1\n      0x01\n      add\n      swap1\n      jump(tag_63)\n    tag_64:\n      pop\n      pop\n      pop\n      pop\n      dup2\n      mstore\n      pop\n      pop\n      swap1\n      pop\n        /* \"contracts-lecture/230510-1.sol\":363:467  function getStudents(uint _n) public view returns(Student memory) {... */\n      swap2\n      swap1\n      pop\n      jump\t// out\n        /* \"contracts-lecture/230510-1.sol\":635:829  function setStudent(string memory _Teacher, string memory _name, uint _number, string[] memory _classes) public {... */\n    tag_23:\n        /* \"contracts-lecture/230510-1.sol\":757:772  Teacher_Student */\n      0x01\n        /* \"contracts-lecture/230510-1.sol\":773:781  _Teacher */\n      dup5\n        /* \"contracts-lecture/230510-1.sol\":757:782  Teacher_Student[_Teacher] */\n      mload(0x40)\n      tag_72\n      swap2\n      swap1\n      tag_73\n      jump\t// in\n    tag_72:\n      swap1\n      dup2\n      mstore\n      0x20\n      add\n      mload(0x40)\n      dup1\n      swap2\n      sub\n      swap1\n      keccak256\n        /* \"contracts-lecture/230510-1.sol\":788:821  Student(_name, _number, _classes) */\n      mload(0x40)\n      dup1\n      0x60\n      add\n      0x40\n      mstore\n      dup1\n        /* \"contracts-lecture/230510-1.sol\":796:801  _name */\n      dup6\n        /* \"contracts-lecture/230510-1.sol\":788:821  Student(_name, _number, _classes) */\n      dup2\n      mstore\n      0x20\n      add\n        /* \"contracts-lecture/230510-1.sol\":803:810  _number */\n      dup5\n        /* \"contracts-lecture/230510-1.sol\":788:821  Student(_name, _number, _classes) */\n      dup2\n      mstore\n      0x20\n      add\n        /* \"contracts-lecture/230510-1.sol\":812:820  _classes */\n      dup4\n        /* \"contracts-lecture/230510-1.sol\":788:821  Student(_name, _number, _classes) */\n      dup2\n      mstore\n      pop\n        /* \"contracts-lecture/230510-1.sol\":757:822  Teacher_Student[_Teacher].push(Student(_name, _number, _classes)) */\n      swap1\n      dup1\n      0x01\n      dup2\n      sload\n      add\n      dup1\n      dup3\n      sstore\n      dup1\n      swap2\n      pop\n      pop\n      0x01\n      swap1\n      sub\n      swap1\n      0x00\n      mstore\n      keccak256(0x00, 0x20)\n      swap1\n      0x03\n      mul\n      add\n      0x00\n      swap1\n      swap2\n      swap1\n      swap2\n      swap1\n      swap2\n      pop\n      0x00\n      dup3\n      add\n      mload\n      dup2\n      0x00\n      add\n      swap1\n      dup2\n      tag_75\n      swap2\n      swap1\n      tag_76\n      jump\t// in\n    tag_75:\n      pop\n      0x20\n      dup3\n      add\n      mload\n      dup2\n      0x01\n      add\n      sstore\n      0x40\n      dup3\n      add\n      mload\n      dup2\n      0x02\n      add\n      swap1\n      dup1\n      mload\n      swap1\n      0x20\n      add\n      swap1\n      tag_77\n      swap3\n      swap2\n      swap1\n      tag_78\n      jump\t// in\n    tag_77:\n      pop\n      pop\n      pop\n        /* \"contracts-lecture/230510-1.sol\":635:829  function setStudent(string memory _Teacher, string memory _name, uint _number, string[] memory _classes) public {... */\n      pop\n      pop\n      pop\n      pop\n      jump\t// out\n        /* \"contracts-lecture/230510-1.sol\":971:1102  function getStudent(string memory _Teacher) public view returns(Student[] memory) {... */\n    tag_27:\n        /* \"contracts-lecture/230510-1.sol\":1035:1051  Student[] memory */\n      0x60\n        /* \"contracts-lecture/230510-1.sol\":1070:1085  Teacher_Student */\n      0x01\n        /* \"contracts-lecture/230510-1.sol\":1086:1094  _Teacher */\n      dup3\n        /* \"contracts-lecture/230510-1.sol\":1070:1095  Teacher_Student[_Teacher] */\n      mload(0x40)\n      tag_80\n      swap2\n      swap1\n      tag_73\n      jump\t// in\n    tag_80:\n      swap1\n      dup2\n      mstore\n      0x20\n      add\n      mload(0x40)\n      dup1\n      swap2\n      sub\n      swap1\n      keccak256\n        /* \"contracts-lecture/230510-1.sol\":1063:1095  return Teacher_Student[_Teacher] */\n      dup1\n      sload\n      dup1\n      0x20\n      mul\n      0x20\n      add\n      mload(0x40)\n      swap1\n      dup2\n      add\n      0x40\n      mstore\n      dup1\n      swap3\n      swap2\n      swap1\n      dup2\n      dup2\n      mstore\n      0x20\n      add\n      0x00\n      swap1\n    tag_81:\n      dup3\n      dup3\n      lt\n      iszero\n      tag_82\n      jumpi\n      dup4\n      dup3\n      swap1\n      0x00\n      mstore\n      keccak256(0x00, 0x20)\n      swap1\n      0x03\n      mul\n      add\n      mload(0x40)\n      dup1\n      0x60\n      add\n      0x40\n      mstore\n      swap1\n      dup2\n      0x00\n      dup3\n      add\n      dup1\n      sload\n      tag_84\n      swap1\n      tag_46\n      jump\t// in\n    tag_84:\n      dup1\n      0x1f\n      add\n      0x20\n      dup1\n      swap2\n      div\n      mul\n      0x20\n      add\n      mload(0x40)\n      swap1\n      dup2\n      add\n      0x40\n      mstore\n      dup1\n      swap3\n      swap2\n      swap1\n      dup2\n      dup2\n      mstore\n      0x20\n      add\n      dup3\n      dup1\n      sload\n      tag_85\n      swap1\n      tag_46\n      jump\t// in\n    tag_85:\n      dup1\n      iszero\n      tag_86\n      jumpi\n      dup1\n      0x1f\n      lt\n      tag_87\n      jumpi\n      0x0100\n      dup1\n      dup4\n      sload\n      div\n      mul\n      dup4\n      mstore\n      swap2\n      0x20\n      add\n      swap2\n      jump(tag_86)\n    tag_87:\n      dup3\n      add\n      swap2\n      swap1\n      0x00\n      mstore\n      keccak256(0x00, 0x20)\n      swap1\n    tag_88:\n      dup2\n      sload\n      dup2\n      mstore\n      swap1\n      0x01\n      add\n      swap1\n      0x20\n      add\n      dup1\n      dup4\n      gt\n      tag_88\n      jumpi\n      dup3\n      swap1\n      sub\n      0x1f\n      and\n      dup3\n      add\n      swap2\n    tag_86:\n      pop\n      pop\n      pop\n      pop\n      pop\n      dup2\n      mstore\n      0x20\n      add\n      0x01\n      dup3\n      add\n      sload\n      dup2\n      mstore\n      0x20\n      add\n      0x02\n      dup3\n      add\n      dup1\n      sload\n      dup1\n      0x20\n      mul\n      0x20\n      add\n      mload(0x40)\n      swap1\n      dup2\n      add\n      0x40\n      mstore\n      dup1\n      swap3\n      swap2\n      swap1\n      dup2\n      dup2\n      mstore\n      0x20\n      add\n      0x00\n      swap1\n    tag_89:\n      dup3\n      dup3\n      lt\n      iszero\n      tag_90\n      jumpi\n      dup4\n      dup3\n      swap1\n      0x00\n      mstore\n      keccak256(0x00, 0x20)\n      add\n      dup1\n      sload\n      tag_92\n      swap1\n      tag_46\n      jump\t// in\n    tag_92:\n      dup1\n      0x1f\n      add\n      0x20\n      dup1\n      swap2\n      div\n      mul\n      0x20\n      add\n      mload(0x40)\n      swap1\n      dup2\n      add\n      0x40\n      mstore\n      dup1\n      swap3\n      swap2\n      swap1\n      dup2\n      dup2\n      mstore\n      0x20\n      add\n      dup3\n      dup1\n      sload\n      tag_93\n      swap1\n      tag_46\n      jump\t// in\n    tag_93:\n      dup1\n      iszero\n      tag_94\n      jumpi\n      dup1\n      0x1f\n      lt\n      tag_95\n      jumpi\n      0x0100\n      dup1\n      dup4\n      sload\n      div\n      mul\n      dup4\n      mstore\n      swap2\n      0x20\n      add\n      swap2\n      jump(tag_94)\n    tag_95:\n      dup3\n      add\n      swap2\n      swap1\n      0x00\n      mstore\n      keccak256(0x00, 0x20)\n      swap1\n    tag_96:\n      dup2\n      sload\n      dup2\n      mstore\n      swap1\n      0x01\n      add\n      swap1\n      0x20\n      add\n      dup1\n      dup4\n      gt\n      tag_96\n      jumpi\n      dup3\n      swap1\n      sub\n      0x1f\n      and\n      dup3\n      add\n      swap2\n    tag_94:\n      pop\n      pop\n      pop\n      pop\n      pop\n      dup2\n      mstore\n      0x20\n      add\n      swap1\n      0x01\n      add\n      swap1\n      jump(tag_89)\n    tag_90:\n      pop\n      pop\n      pop\n      pop\n      dup2\n      mstore\n      pop\n      pop\n      dup2\n      mstore\n      0x20\n      add\n      swap1\n      0x01\n      add\n      swap1\n      jump(tag_81)\n    tag_82:\n      pop\n      pop\n      pop\n      pop\n      swap1\n      pop\n        /* \"contracts-lecture/230510-1.sol\":971:1102  function getStudent(string memory _Teacher) public view returns(Student[] memory) {... */\n      swap2\n      swap1\n      pop\n      jump\t// out\n        /* \"contracts-lecture/230510-1.sol\":203:357  function setStudents(string memory _name, uint _number, string[] memory _classes) public {... */\n    tag_33:\n        /* \"contracts-lecture/230510-1.sol\":302:310  students */\n      0x00\n        /* \"contracts-lecture/230510-1.sol\":316:349  Student(_name, _number, _classes) */\n      mload(0x40)\n      dup1\n      0x60\n      add\n      0x40\n      mstore\n      dup1\n        /* \"contracts-lecture/230510-1.sol\":324:329  _name */\n      dup6\n        /* \"contracts-lecture/230510-1.sol\":316:349  Student(_name, _number, _classes) */\n      dup2\n      mstore\n      0x20\n      add\n        /* \"contracts-lecture/230510-1.sol\":331:338  _number */\n      dup5\n        /* \"contracts-lecture/230510-1.sol\":316:349  Student(_name, _number, _classes) */\n      dup2\n      mstore\n      0x20\n      add\n        /* \"contracts-lecture/230510-1.sol\":340:348  _classes */\n      dup4\n        /* \"contracts-lecture/230510-1.sol\":316:349  Student(_name, _number, _classes) */\n      dup2\n      mstore\n      pop\n        /* \"contracts-lecture/230510-1.sol\":302:350  students.push(Student(_name, _number, _classes)) */\n      swap1\n      dup1\n      0x01\n      dup2\n      sload\n      add\n      dup1\n      dup3\n      sstore\n      dup1\n      swap2\n      pop\n      pop\n      0x01\n      swap1\n      sub\n      swap1\n      0x00\n      mstore\n      keccak256(0x00, 0x20)\n      swap1\n      0x03\n      mul\n      add\n      0x00\n      swap1\n      swap2\n      swap1\n      swap2\n      swap1\n      swap2\n      pop\n      0x00\n      dup3\n      add\n      mload\n      dup2\n      0x00\n      add\n      swap1\n      dup2\n      tag_99\n      swap2\n      swap1\n      tag_76\n      jump\t// in\n    tag_99:\n      pop\n      0x20\n      dup3\n      add\n      mload\n      dup2\n      0x01\n      add\n      sstore\n      0x40\n      dup3\n      add\n      mload\n      dup2\n      0x02\n      add\n      swap1\n      dup1\n      mload\n      swap1\n      0x20\n      add\n      swap1\n      tag_100\n      swap3\n      swap2\n      swap1\n      tag_78\n      jump\t// in\n    tag_100:\n      pop\n      pop\n      pop\n        /* \"contracts-lecture/230510-1.sol\":203:357  function setStudents(string memory _name, uint _number, string[] memory _classes) public {... */\n      pop\n      pop\n      pop\n      jump\t// out\n        /* \"contracts-lecture/230510-1.sol\":835:965  function setStudent2(string memory _aa, uint _n, uint _number) public {... */\n    tag_37:\n        /* \"contracts-lecture/230510-1.sol\":951:958  _number */\n      dup1\n        /* \"contracts-lecture/230510-1.sol\":915:930  Teacher_Student */\n      0x01\n        /* \"contracts-lecture/230510-1.sol\":931:934  _aa */\n      dup5\n        /* \"contracts-lecture/230510-1.sol\":915:935  Teacher_Student[_aa] */\n      mload(0x40)\n      tag_102\n      swap2\n      swap1\n      tag_73\n      jump\t// in\n    tag_102:\n      swap1\n      dup2\n      mstore\n      0x20\n      add\n      mload(0x40)\n      dup1\n      swap2\n      sub\n      swap1\n      keccak256\n        /* \"contracts-lecture/230510-1.sol\":939:940  1 */\n      0x01\n        /* \"contracts-lecture/230510-1.sol\":936:938  _n */\n      dup5\n        /* \"contracts-lecture/230510-1.sol\":936:940  _n-1 */\n      tag_103\n      swap2\n      swap1\n      tag_40\n      jump\t// in\n    tag_103:\n        /* \"contracts-lecture/230510-1.sol\":915:941  Teacher_Student[_aa][_n-1] */\n      dup2\n      sload\n      dup2\n      lt\n      tag_104\n      jumpi\n      tag_105\n      tag_43\n      jump\t// in\n    tag_105:\n    tag_104:\n      swap1\n      0x00\n      mstore\n      keccak256(0x00, 0x20)\n      swap1\n      0x03\n      mul\n      add\n        /* \"contracts-lecture/230510-1.sol\":915:948  Teacher_Student[_aa][_n-1].number */\n      0x01\n      add\n        /* \"contracts-lecture/230510-1.sol\":915:958  Teacher_Student[_aa][_n-1].number = _number */\n      dup2\n      swap1\n      sstore\n      pop\n        /* \"contracts-lecture/230510-1.sol\":835:965  function setStudent2(string memory _aa, uint _n, uint _number) public {... */\n      pop\n      pop\n      pop\n      jump\t// out\n    tag_52:\n      mload(0x40)\n      dup1\n      0x60\n      add\n      0x40\n      mstore\n      dup1\n      0x60\n      dup2\n      mstore\n      0x20\n      add\n      0x00\n      dup2\n      mstore\n      0x20\n      add\n      0x60\n      dup2\n      mstore\n      pop\n      swap1\n      jump\t// out\n    tag_78:\n      dup3\n      dup1\n      sload\n      dup3\n      dup3\n      sstore\n      swap1\n      0x00\n      mstore\n      keccak256(0x00, 0x20)\n      swap1\n      dup2\n      add\n      swap3\n      dup3\n      iszero\n      tag_107\n      jumpi\n      swap2\n      0x20\n      mul\n      dup3\n      add\n    tag_108:\n      dup3\n      dup2\n      gt\n      iszero\n      tag_109\n      jumpi\n      dup3\n      mload\n      dup3\n      swap1\n      dup2\n      tag_110\n      swap2\n      swap1\n      tag_76\n      jump\t// in\n    tag_110:\n      pop\n      swap2\n      0x20\n      add\n      swap2\n      swap1\n      0x01\n      add\n      swap1\n      jump(tag_108)\n    tag_109:\n    tag_107:\n      pop\n      swap1\n      pop\n      tag_111\n      swap2\n      swap1\n      tag_112\n      jump\t// in\n    tag_111:\n      pop\n      swap1\n      jump\t// out\n    tag_112:\n    tag_113:\n      dup1\n      dup3\n      gt\n      iszero\n      tag_114\n      jumpi\n      0x00\n      dup2\n      dup2\n      tag_115\n      swap2\n      swap1\n      tag_116\n      jump\t// in\n    tag_115:\n      pop\n      0x01\n      add\n      jump(tag_113)\n    tag_114:\n      pop\n      swap1\n      jump\t// out\n    tag_116:\n      pop\n      dup1\n      sload\n      tag_117\n      swap1\n      tag_46\n      jump\t// in\n    tag_117:\n      0x00\n      dup3\n      sstore\n      dup1\n      0x1f\n      lt\n      tag_119\n      jumpi\n      pop\n      jump(tag_118)\n    tag_119:\n      0x1f\n      add\n      0x20\n      swap1\n      div\n      swap1\n      0x00\n      mstore\n      keccak256(0x00, 0x20)\n      swap1\n      dup2\n      add\n      swap1\n      tag_120\n      swap2\n      swap1\n      tag_121\n      jump\t// in\n    tag_120:\n    tag_118:\n      pop\n      jump\t// out\n    tag_121:\n    tag_122:\n      dup1\n      dup3\n      gt\n      iszero\n      tag_123\n      jumpi\n      0x00\n      dup2\n      0x00\n      swap1\n      sstore\n      pop\n      0x01\n      add\n      jump(tag_122)\n    tag_123:\n      pop\n      swap1\n      jump\t// out\n        /* \"#utility.yul\":7:82   */\n    tag_124:\n        /* \"#utility.yul\":40:46   */\n      0x00\n        /* \"#utility.yul\":73:75   */\n      0x40\n        /* \"#utility.yul\":67:76   */\n      mload\n        /* \"#utility.yul\":57:76   */\n      swap1\n      pop\n        /* \"#utility.yul\":7:82   */\n      swap1\n      jump\t// out\n        /* \"#utility.yul\":88:205   */\n    tag_125:\n        /* \"#utility.yul\":197:198   */\n      0x00\n        /* \"#utility.yul\":194:195   */\n      dup1\n        /* \"#utility.yul\":187:199   */\n      revert\n        /* \"#utility.yul\":211:328   */\n    tag_126:\n        /* \"#utility.yul\":320:321   */\n      0x00\n        /* \"#utility.yul\":317:318   */\n      dup1\n        /* \"#utility.yul\":310:322   */\n      revert\n        /* \"#utility.yul\":334:411   */\n    tag_127:\n        /* \"#utility.yul\":371:378   */\n      0x00\n        /* \"#utility.yul\":400:405   */\n      dup2\n        /* \"#utility.yul\":389:405   */\n      swap1\n      pop\n        /* \"#utility.yul\":334:411   */\n      swap2\n      swap1\n      pop\n      jump\t// out\n        /* \"#utility.yul\":417:539   */\n    tag_128:\n        /* \"#utility.yul\":490:514   */\n      tag_190\n        /* \"#utility.yul\":508:513   */\n      dup2\n        /* \"#utility.yul\":490:514   */\n      tag_127\n      jump\t// in\n    tag_190:\n        /* \"#utility.yul\":483:488   */\n      dup2\n        /* \"#utility.yul\":480:515   */\n      eq\n        /* \"#utility.yul\":470:533   */\n      tag_191\n      jumpi\n        /* \"#utility.yul\":529:530   */\n      0x00\n        /* \"#utility.yul\":526:527   */\n      dup1\n        /* \"#utility.yul\":519:531   */\n      revert\n        /* \"#utility.yul\":470:533   */\n    tag_191:\n        /* \"#utility.yul\":417:539   */\n      pop\n      jump\t// out\n        /* \"#utility.yul\":545:684   */\n    tag_129:\n        /* \"#utility.yul\":591:596   */\n      0x00\n        /* \"#utility.yul\":629:635   */\n      dup2\n        /* \"#utility.yul\":616:636   */\n      calldataload\n        /* \"#utility.yul\":607:636   */\n      swap1\n      pop\n        /* \"#utility.yul\":645:678   */\n      tag_193\n        /* \"#utility.yul\":672:677   */\n      dup2\n        /* \"#utility.yul\":645:678   */\n      tag_128\n      jump\t// in\n    tag_193:\n        /* \"#utility.yul\":545:684   */\n      swap3\n      swap2\n      pop\n      pop\n      jump\t// out\n        /* \"#utility.yul\":690:1019   */\n    tag_11:\n        /* \"#utility.yul\":749:755   */\n      0x00\n        /* \"#utility.yul\":798:800   */\n      0x20\n        /* \"#utility.yul\":786:795   */\n      dup3\n        /* \"#utility.yul\":777:784   */\n      dup5\n        /* \"#utility.yul\":773:796   */\n      sub\n        /* \"#utility.yul\":769:801   */\n      slt\n        /* \"#utility.yul\":766:885   */\n      iszero\n      tag_195\n      jumpi\n        /* \"#utility.yul\":804:883   */\n      tag_196\n      tag_125\n      jump\t// in\n    tag_196:\n        /* \"#utility.yul\":766:885   */\n    tag_195:\n        /* \"#utility.yul\":924:925   */\n      0x00\n        /* \"#utility.yul\":949:1002   */\n      tag_197\n        /* \"#utility.yul\":994:1001   */\n      dup5\n        /* \"#utility.yul\":985:991   */\n      dup3\n        /* \"#utility.yul\":974:983   */\n      dup6\n        /* \"#utility.yul\":970:992   */\n      add\n        /* \"#utility.yul\":949:1002   */\n      tag_129\n      jump\t// in\n    tag_197:\n        /* \"#utility.yul\":939:1002   */\n      swap2\n      pop\n        /* \"#utility.yul\":895:1012   */\n      pop\n        /* \"#utility.yul\":690:1019   */\n      swap3\n      swap2\n      pop\n      pop\n      jump\t// out\n        /* \"#utility.yul\":1025:1124   */\n    tag_130:\n        /* \"#utility.yul\":1077:1083   */\n      0x00\n        /* \"#utility.yul\":1111:1116   */\n      dup2\n        /* \"#utility.yul\":1105:1117   */\n      mload\n        /* \"#utility.yul\":1095:1117   */\n      swap1\n      pop\n        /* \"#utility.yul\":1025:1124   */\n      swap2\n      swap1\n      pop\n      jump\t// out\n        /* \"#utility.yul\":1130:1299   */\n    tag_131:\n        /* \"#utility.yul\":1214:1225   */\n      0x00\n        /* \"#utility.yul\":1248:1254   */\n      dup3\n        /* \"#utility.yul\":1243:1246   */\n      dup3\n        /* \"#utility.yul\":1236:1255   */\n      mstore\n        /* \"#utility.yul\":1288:1292   */\n      0x20\n        /* \"#utility.yul\":1283:1286   */\n      dup3\n        /* \"#utility.yul\":1279:1293   */\n      add\n        /* \"#utility.yul\":1264:1293   */\n      swap1\n      pop\n        /* \"#utility.yul\":1130:1299   */\n      swap3\n      swap2\n      pop\n      pop\n      jump\t// out\n        /* \"#utility.yul\":1305:1551   */\n    tag_132:\n        /* \"#utility.yul\":1386:1387   */\n      0x00\n        /* \"#utility.yul\":1396:1509   */\n    tag_201:\n        /* \"#utility.yul\":1410:1416   */\n      dup4\n        /* \"#utility.yul\":1407:1408   */\n      dup2\n        /* \"#utility.yul\":1404:1417   */\n      lt\n        /* \"#utility.yul\":1396:1509   */\n      iszero\n      tag_203\n      jumpi\n        /* \"#utility.yul\":1495:1496   */\n      dup1\n        /* \"#utility.yul\":1490:1493   */\n      dup3\n        /* \"#utility.yul\":1486:1497   */\n      add\n        /* \"#utility.yul\":1480:1498   */\n      mload\n        /* \"#utility.yul\":1476:1477   */\n      dup2\n        /* \"#utility.yul\":1471:1474   */\n      dup5\n        /* \"#utility.yul\":1467:1478   */\n      add\n        /* \"#utility.yul\":1460:1499   */\n      mstore\n        /* \"#utility.yul\":1432:1434   */\n      0x20\n        /* \"#utility.yul\":1429:1430   */\n      dup2\n        /* \"#utility.yul\":1425:1435   */\n      add\n        /* \"#utility.yul\":1420:1435   */\n      swap1\n      pop\n        /* \"#utility.yul\":1396:1509   */\n      jump(tag_201)\n    tag_203:\n        /* \"#utility.yul\":1543:1544   */\n      0x00\n        /* \"#utility.yul\":1534:1540   */\n      dup5\n        /* \"#utility.yul\":1529:1532   */\n      dup5\n        /* \"#utility.yul\":1525:1541   */\n      add\n        /* \"#utility.yul\":1518:1545   */\n      mstore\n        /* \"#utility.yul\":1367:1551   */\n      pop\n        /* \"#utility.yul\":1305:1551   */\n      pop\n      pop\n      pop\n      jump\t// out\n        /* \"#utility.yul\":1557:1659   */\n    tag_133:\n        /* \"#utility.yul\":1598:1604   */\n      0x00\n        /* \"#utility.yul\":1649:1651   */\n      0x1f\n        /* \"#utility.yul\":1645:1652   */\n      not\n        /* \"#utility.yul\":1640:1642   */\n      0x1f\n        /* \"#utility.yul\":1633:1638   */\n      dup4\n        /* \"#utility.yul\":1629:1643   */\n      add\n        /* \"#utility.yul\":1625:1653   */\n      and\n        /* \"#utility.yul\":1615:1653   */\n      swap1\n      pop\n        /* \"#utility.yul\":1557:1659   */\n      swap2\n      swap1\n      pop\n      jump\t// out\n        /* \"#utility.yul\":1665:2042   */\n    tag_134:\n        /* \"#utility.yul\":1753:1756   */\n      0x00\n        /* \"#utility.yul\":1781:1820   */\n      tag_206\n        /* \"#utility.yul\":1814:1819   */\n      dup3\n        /* \"#utility.yul\":1781:1820   */\n      tag_130\n      jump\t// in\n    tag_206:\n        /* \"#utility.yul\":1836:1907   */\n      tag_207\n        /* \"#utility.yul\":1900:1906   */\n      dup2\n        /* \"#utility.yul\":1895:1898   */\n      dup6\n        /* \"#utility.yul\":1836:1907   */\n      tag_131\n      jump\t// in\n    tag_207:\n        /* \"#utility.yul\":1829:1907   */\n      swap4\n      pop\n        /* \"#utility.yul\":1916:1981   */\n      tag_208\n        /* \"#utility.yul\":1974:1980   */\n      dup2\n        /* \"#utility.yul\":1969:1972   */\n      dup6\n        /* \"#utility.yul\":1962:1966   */\n      0x20\n        /* \"#utility.yul\":1955:1960   */\n      dup7\n        /* \"#utility.yul\":1951:1967   */\n      add\n        /* \"#utility.yul\":1916:1981   */\n      tag_132\n      jump\t// in\n    tag_208:\n        /* \"#utility.yul\":2006:2035   */\n      tag_209\n        /* \"#utility.yul\":2028:2034   */\n      dup2\n        /* \"#utility.yul\":2006:2035   */\n      tag_133\n      jump\t// in\n    tag_209:\n        /* \"#utility.yul\":2001:2004   */\n      dup5\n        /* \"#utility.yul\":1997:2036   */\n      add\n        /* \"#utility.yul\":1990:2036   */\n      swap2\n      pop\n        /* \"#utility.yul\":1757:2042   */\n      pop\n        /* \"#utility.yul\":1665:2042   */\n      swap3\n      swap2\n      pop\n      pop\n      jump\t// out\n        /* \"#utility.yul\":2048:2361   */\n    tag_14:\n        /* \"#utility.yul\":2161:2165   */\n      0x00\n        /* \"#utility.yul\":2199:2201   */\n      0x20\n        /* \"#utility.yul\":2188:2197   */\n      dup3\n        /* \"#utility.yul\":2184:2202   */\n      add\n        /* \"#utility.yul\":2176:2202   */\n      swap1\n      pop\n        /* \"#utility.yul\":2248:2257   */\n      dup2\n        /* \"#utility.yul\":2242:2246   */\n      dup2\n        /* \"#utility.yul\":2238:2258   */\n      sub\n        /* \"#utility.yul\":2234:2235   */\n      0x00\n        /* \"#utility.yul\":2223:2232   */\n      dup4\n        /* \"#utility.yul\":2219:2236   */\n      add\n        /* \"#utility.yul\":2212:2259   */\n      mstore\n        /* \"#utility.yul\":2276:2354   */\n      tag_211\n        /* \"#utility.yul\":2349:2353   */\n      dup2\n        /* \"#utility.yul\":2340:2346   */\n      dup5\n        /* \"#utility.yul\":2276:2354   */\n      tag_134\n      jump\t// in\n    tag_211:\n        /* \"#utility.yul\":2268:2354   */\n      swap1\n      pop\n        /* \"#utility.yul\":2048:2361   */\n      swap3\n      swap2\n      pop\n      pop\n      jump\t// out\n        /* \"#utility.yul\":2367:2526   */\n    tag_135:\n        /* \"#utility.yul\":2441:2452   */\n      0x00\n        /* \"#utility.yul\":2475:2481   */\n      dup3\n        /* \"#utility.yul\":2470:2473   */\n      dup3\n        /* \"#utility.yul\":2463:2482   */\n      mstore\n        /* \"#utility.yul\":2515:2519   */\n      0x20\n        /* \"#utility.yul\":2510:2513   */\n      dup3\n        /* \"#utility.yul\":2506:2520   */\n      add\n        /* \"#utility.yul\":2491:2520   */\n      swap1\n      pop\n        /* \"#utility.yul\":2367:2526   */\n      swap3\n      swap2\n      pop\n      pop\n      jump\t// out\n        /* \"#utility.yul\":2532:2889   */\n    tag_136:\n        /* \"#utility.yul\":2610:2613   */\n      0x00\n        /* \"#utility.yul\":2638:2677   */\n      tag_214\n        /* \"#utility.yul\":2671:2676   */\n      dup3\n        /* \"#utility.yul\":2638:2677   */\n      tag_130\n      jump\t// in\n    tag_214:\n        /* \"#utility.yul\":2693:2754   */\n      tag_215\n        /* \"#utility.yul\":2747:2753   */\n      dup2\n        /* \"#utility.yul\":2742:2745   */\n      dup6\n        /* \"#utility.yul\":2693:2754   */\n      tag_135\n      jump\t// in\n    tag_215:\n        /* \"#utility.yul\":2686:2754   */\n      swap4\n      pop\n        /* \"#utility.yul\":2763:2828   */\n      tag_216\n        /* \"#utility.yul\":2821:2827   */\n      dup2\n        /* \"#utility.yul\":2816:2819   */\n      dup6\n        /* \"#utility.yul\":2809:2813   */\n      0x20\n        /* \"#utility.yul\":2802:2807   */\n      dup7\n        /* \"#utility.yul\":2798:2814   */\n      add\n        /* \"#utility.yul\":2763:2828   */\n      tag_132\n      jump\t// in\n    tag_216:\n        /* \"#utility.yul\":2853:2882   */\n      tag_217\n        /* \"#utility.yul\":2875:2881   */\n      dup2\n        /* \"#utility.yul\":2853:2882   */\n      tag_133\n      jump\t// in\n    tag_217:\n        /* \"#utility.yul\":2848:2851   */\n      dup5\n        /* \"#utility.yul\":2844:2883   */\n      add\n        /* \"#utility.yul\":2837:2883   */\n      swap2\n      pop\n        /* \"#utility.yul\":2614:2889   */\n      pop\n        /* \"#utility.yul\":2532:2889   */\n      swap3\n      swap2\n      pop\n      pop\n      jump\t// out\n        /* \"#utility.yul\":2895:3003   */\n    tag_137:\n        /* \"#utility.yul\":2972:2996   */\n      tag_219\n        /* \"#utility.yul\":2990:2995   */\n      dup2\n        /* \"#utility.yul\":2972:2996   */\n      tag_127\n      jump\t// in\n    tag_219:\n        /* \"#utility.yul\":2967:2970   */\n      dup3\n        /* \"#utility.yul\":2960:2997   */\n      mstore\n        /* \"#utility.yul\":2895:3003   */\n      pop\n      pop\n      jump\t// out\n        /* \"#utility.yul\":3009:3133   */\n    tag_138:\n        /* \"#utility.yul\":3086:3092   */\n      0x00\n        /* \"#utility.yul\":3120:3125   */\n      dup2\n        /* \"#utility.yul\":3114:3126   */\n      mload\n        /* \"#utility.yul\":3104:3126   */\n      swap1\n      pop\n        /* \"#utility.yul\":3009:3133   */\n      swap2\n      swap1\n      pop\n      jump\t// out\n        /* \"#utility.yul\":3139:3323   */\n    tag_139:\n        /* \"#utility.yul\":3238:3249   */\n      0x00\n        /* \"#utility.yul\":3272:3278   */\n      dup3\n        /* \"#utility.yul\":3267:3270   */\n      dup3\n        /* \"#utility.yul\":3260:3279   */\n      mstore\n        /* \"#utility.yul\":3312:3316   */\n      0x20\n        /* \"#utility.yul\":3307:3310   */\n      dup3\n        /* \"#utility.yul\":3303:3317   */\n      add\n        /* \"#utility.yul\":3288:3317   */\n      swap1\n      pop\n        /* \"#utility.yul\":3139:3323   */\n      swap3\n      swap2\n      pop\n      pop\n      jump\t// out\n        /* \"#utility.yul\":3329:3471   */\n    tag_140:\n        /* \"#utility.yul\":3406:3410   */\n      0x00\n        /* \"#utility.yul\":3429:3432   */\n      dup2\n        /* \"#utility.yul\":3421:3432   */\n      swap1\n      pop\n        /* \"#utility.yul\":3459:3463   */\n      0x20\n        /* \"#utility.yul\":3454:3457   */\n      dup3\n        /* \"#utility.yul\":3450:3464   */\n      add\n        /* \"#utility.yul\":3442:3464   */\n      swap1\n      pop\n        /* \"#utility.yul\":3329:3471   */\n      swap2\n      swap1\n      pop\n      jump\t// out\n        /* \"#utility.yul\":3477:3673   */\n    tag_141:\n        /* \"#utility.yul\":3566:3576   */\n      0x00\n        /* \"#utility.yul\":3601:3667   */\n      tag_224\n        /* \"#utility.yul\":3663:3666   */\n      dup4\n        /* \"#utility.yul\":3655:3661   */\n      dup4\n        /* \"#utility.yul\":3601:3667   */\n      tag_136\n      jump\t// in\n    tag_224:\n        /* \"#utility.yul\":3587:3667   */\n      swap1\n      pop\n        /* \"#utility.yul\":3477:3673   */\n      swap3\n      swap2\n      pop\n      pop\n      jump\t// out\n        /* \"#utility.yul\":3679:3802   */\n    tag_142:\n        /* \"#utility.yul\":3759:3763   */\n      0x00\n        /* \"#utility.yul\":3791:3795   */\n      0x20\n        /* \"#utility.yul\":3786:3789   */\n      dup3\n        /* \"#utility.yul\":3782:3796   */\n      add\n        /* \"#utility.yul\":3774:3796   */\n      swap1\n      pop\n        /* \"#utility.yul\":3679:3802   */\n      swap2\n      swap1\n      pop\n      jump\t// out\n        /* \"#utility.yul\":3836:4807   */\n    tag_143:\n        /* \"#utility.yul\":3965:3968   */\n      0x00\n        /* \"#utility.yul\":3994:4058   */\n      tag_227\n        /* \"#utility.yul\":4052:4057   */\n      dup3\n        /* \"#utility.yul\":3994:4058   */\n      tag_138\n      jump\t// in\n    tag_227:\n        /* \"#utility.yul\":4074:4160   */\n      tag_228\n        /* \"#utility.yul\":4153:4159   */\n      dup2\n        /* \"#utility.yul\":4148:4151   */\n      dup6\n        /* \"#utility.yul\":4074:4160   */\n      tag_139\n      jump\t// in\n    tag_228:\n        /* \"#utility.yul\":4067:4160   */\n      swap4\n      pop\n        /* \"#utility.yul\":4186:4189   */\n      dup4\n        /* \"#utility.yul\":4231:4235   */\n      0x20\n        /* \"#utility.yul\":4223:4229   */\n      dup3\n        /* \"#utility.yul\":4219:4236   */\n      mul\n        /* \"#utility.yul\":4214:4217   */\n      dup6\n        /* \"#utility.yul\":4210:4237   */\n      add\n        /* \"#utility.yul\":4261:4327   */\n      tag_229\n        /* \"#utility.yul\":4321:4326   */\n      dup6\n        /* \"#utility.yul\":4261:4327   */\n      tag_140\n      jump\t// in\n    tag_229:\n        /* \"#utility.yul\":4350:4357   */\n      dup1\n        /* \"#utility.yul\":4381:4382   */\n      0x00\n        /* \"#utility.yul\":4366:4762   */\n    tag_230:\n        /* \"#utility.yul\":4391:4397   */\n      dup6\n        /* \"#utility.yul\":4388:4389   */\n      dup2\n        /* \"#utility.yul\":4385:4398   */\n      lt\n        /* \"#utility.yul\":4366:4762   */\n      iszero\n      tag_232\n      jumpi\n        /* \"#utility.yul\":4462:4471   */\n      dup5\n        /* \"#utility.yul\":4456:4460   */\n      dup5\n        /* \"#utility.yul\":4452:4472   */\n      sub\n        /* \"#utility.yul\":4447:4450   */\n      dup10\n        /* \"#utility.yul\":4440:4473   */\n      mstore\n        /* \"#utility.yul\":4513:4519   */\n      dup2\n        /* \"#utility.yul\":4507:4520   */\n      mload\n        /* \"#utility.yul\":4541:4625   */\n      tag_233\n        /* \"#utility.yul\":4620:4624   */\n      dup6\n        /* \"#utility.yul\":4605:4618   */\n      dup3\n        /* \"#utility.yul\":4541:4625   */\n      tag_141\n      jump\t// in\n    tag_233:\n        /* \"#utility.yul\":4533:4625   */\n      swap5\n      pop\n        /* \"#utility.yul\":4648:4718   */\n      tag_234\n        /* \"#utility.yul\":4711:4717   */\n      dup4\n        /* \"#utility.yul\":4648:4718   */\n      tag_142\n      jump\t// in\n    tag_234:\n        /* \"#utility.yul\":4638:4718   */\n      swap3\n      pop\n        /* \"#utility.yul\":4747:4751   */\n      0x20\n        /* \"#utility.yul\":4742:4745   */\n      dup11\n        /* \"#utility.yul\":4738:4752   */\n      add\n        /* \"#utility.yul\":4731:4752   */\n      swap10\n      pop\n        /* \"#utility.yul\":4426:4762   */\n      pop\n        /* \"#utility.yul\":4413:4414   */\n      0x01\n        /* \"#utility.yul\":4410:4411   */\n      dup2\n        /* \"#utility.yul\":4406:4415   */\n      add\n        /* \"#utility.yul\":4401:4415   */\n      swap1\n      pop\n        /* \"#utility.yul\":4366:4762   */\n      jump(tag_230)\n    tag_232:\n        /* \"#utility.yul\":4370:4384   */\n      pop\n        /* \"#utility.yul\":4778:4782   */\n      dup3\n        /* \"#utility.yul\":4771:4782   */\n      swap8\n      pop\n        /* \"#utility.yul\":4798:4801   */\n      dup8\n        /* \"#utility.yul\":4791:4801   */\n      swap6\n      pop\n        /* \"#utility.yul\":3970:4807   */\n      pop\n      pop\n      pop\n      pop\n      pop\n        /* \"#utility.yul\":3836:4807   */\n      swap3\n      swap2\n      pop\n      pop\n      jump\t// out\n        /* \"#utility.yul\":4863:5763   */\n    tag_144:\n        /* \"#utility.yul\":4976:4979   */\n      0x00\n        /* \"#utility.yul\":5012:5016   */\n      0x60\n        /* \"#utility.yul\":5007:5010   */\n      dup4\n        /* \"#utility.yul\":5003:5017   */\n      add\n        /* \"#utility.yul\":5099:5103   */\n      0x00\n        /* \"#utility.yul\":5092:5097   */\n      dup4\n        /* \"#utility.yul\":5088:5104   */\n      add\n        /* \"#utility.yul\":5082:5105   */\n      mload\n        /* \"#utility.yul\":5152:5155   */\n      dup5\n        /* \"#utility.yul\":5146:5150   */\n      dup3\n        /* \"#utility.yul\":5142:5156   */\n      sub\n        /* \"#utility.yul\":5135:5139   */\n      0x00\n        /* \"#utility.yul\":5130:5133   */\n      dup7\n        /* \"#utility.yul\":5126:5140   */\n      add\n        /* \"#utility.yul\":5119:5157   */\n      mstore\n        /* \"#utility.yul\":5178:5251   */\n      tag_236\n        /* \"#utility.yul\":5246:5250   */\n      dup3\n        /* \"#utility.yul\":5232:5244   */\n      dup3\n        /* \"#utility.yul\":5178:5251   */\n      tag_136\n      jump\t// in\n    tag_236:\n        /* \"#utility.yul\":5170:5251   */\n      swap2\n      pop\n        /* \"#utility.yul\":5027:5262   */\n      pop\n        /* \"#utility.yul\":5346:5350   */\n      0x20\n        /* \"#utility.yul\":5339:5344   */\n      dup4\n        /* \"#utility.yul\":5335:5351   */\n      add\n        /* \"#utility.yul\":5329:5352   */\n      mload\n        /* \"#utility.yul\":5365:5428   */\n      tag_237\n        /* \"#utility.yul\":5422:5426   */\n      0x20\n        /* \"#utility.yul\":5417:5420   */\n      dup7\n        /* \"#utility.yul\":5413:5427   */\n      add\n        /* \"#utility.yul\":5399:5411   */\n      dup3\n        /* \"#utility.yul\":5365:5428   */\n      tag_137\n      jump\t// in\n    tag_237:\n        /* \"#utility.yul\":5272:5438   */\n      pop\n        /* \"#utility.yul\":5523:5527   */\n      0x40\n        /* \"#utility.yul\":5516:5521   */\n      dup4\n        /* \"#utility.yul\":5512:5528   */\n      add\n        /* \"#utility.yul\":5506:5529   */\n      mload\n        /* \"#utility.yul\":5576:5579   */\n      dup5\n        /* \"#utility.yul\":5570:5574   */\n      dup3\n        /* \"#utility.yul\":5566:5580   */\n      sub\n        /* \"#utility.yul\":5559:5563   */\n      0x40\n        /* \"#utility.yul\":5554:5557   */\n      dup7\n        /* \"#utility.yul\":5550:5564   */\n      add\n        /* \"#utility.yul\":5543:5581   */\n      mstore\n        /* \"#utility.yul\":5602:5725   */\n      tag_238\n        /* \"#utility.yul\":5720:5724   */\n      dup3\n        /* \"#utility.yul\":5706:5718   */\n      dup3\n        /* \"#utility.yul\":5602:5725   */\n      tag_143\n      jump\t// in\n    tag_238:\n        /* \"#utility.yul\":5594:5725   */\n      swap2\n      pop\n        /* \"#utility.yul\":5448:5736   */\n      pop\n        /* \"#utility.yul\":5753:5757   */\n      dup1\n        /* \"#utility.yul\":5746:5757   */\n      swap2\n      pop\n        /* \"#utility.yul\":4981:5763   */\n      pop\n        /* \"#utility.yul\":4863:5763   */\n      swap3\n      swap2\n      pop\n      pop\n      jump\t// out\n        /* \"#utility.yul\":5769:6130   */\n    tag_19:\n        /* \"#utility.yul\":5906:5910   */\n      0x00\n        /* \"#utility.yul\":5944:5946   */\n      0x20\n        /* \"#utility.yul\":5933:5942   */\n      dup3\n        /* \"#utility.yul\":5929:5947   */\n      add\n        /* \"#utility.yul\":5921:5947   */\n      swap1\n      pop\n        /* \"#utility.yul\":5993:6002   */\n      dup2\n        /* \"#utility.yul\":5987:5991   */\n      dup2\n        /* \"#utility.yul\":5983:6003   */\n      sub\n        /* \"#utility.yul\":5979:5980   */\n      0x00\n        /* \"#utility.yul\":5968:5977   */\n      dup4\n        /* \"#utility.yul\":5964:5981   */\n      add\n        /* \"#utility.yul\":5957:6004   */\n      mstore\n        /* \"#utility.yul\":6021:6123   */\n      tag_240\n        /* \"#utility.yul\":6118:6122   */\n      dup2\n        /* \"#utility.yul\":6109:6115   */\n      dup5\n        /* \"#utility.yul\":6021:6123   */\n      tag_144\n      jump\t// in\n    tag_240:\n        /* \"#utility.yul\":6013:6123   */\n      swap1\n      pop\n        /* \"#utility.yul\":5769:6130   */\n      swap3\n      swap2\n      pop\n      pop\n      jump\t// out\n        /* \"#utility.yul\":6136:6253   */\n    tag_145:\n        /* \"#utility.yul\":6245:6246   */\n      0x00\n        /* \"#utility.yul\":6242:6243   */\n      dup1\n        /* \"#utility.yul\":6235:6247   */\n      revert\n        /* \"#utility.yul\":6259:6376   */\n    tag_146:\n        /* \"#utility.yul\":6368:6369   */\n      0x00\n        /* \"#utility.yul\":6365:6366   */\n      dup1\n        /* \"#utility.yul\":6358:6370   */\n      revert\n        /* \"#utility.yul\":6382:6562   */\n    tag_147:\n        /* \"#utility.yul\":6430:6507   */\n      0x4e487b7100000000000000000000000000000000000000000000000000000000\n        /* \"#utility.yul\":6427:6428   */\n      0x00\n        /* \"#utility.yul\":6420:6508   */\n      mstore\n        /* \"#utility.yul\":6527:6531   */\n      0x41\n        /* \"#utility.yul\":6524:6525   */\n      0x04\n        /* \"#utility.yul\":6517:6532   */\n      mstore\n        /* \"#utility.yul\":6551:6555   */\n      0x24\n        /* \"#utility.yul\":6548:6549   */\n      0x00\n        /* \"#utility.yul\":6541:6556   */\n      revert\n        /* \"#utility.yul\":6568:6849   */\n    tag_148:\n        /* \"#utility.yul\":6651:6678   */\n      tag_245\n        /* \"#utility.yul\":6673:6677   */\n      dup3\n        /* \"#utility.yul\":6651:6678   */\n      tag_133\n      jump\t// in\n    tag_245:\n        /* \"#utility.yul\":6643:6649   */\n      dup2\n        /* \"#utility.yul\":6639:6679   */\n      add\n        /* \"#utility.yul\":6781:6787   */\n      dup2\n        /* \"#utility.yul\":6769:6779   */\n      dup2\n        /* \"#utility.yul\":6766:6788   */\n      lt\n        /* \"#utility.yul\":6745:6763   */\n      0xffffffffffffffff\n        /* \"#utility.yul\":6733:6743   */\n      dup3\n        /* \"#utility.yul\":6730:6764   */\n      gt\n        /* \"#utility.yul\":6727:6789   */\n      or\n        /* \"#utility.yul\":6724:6812   */\n      iszero\n      tag_246\n      jumpi\n        /* \"#utility.yul\":6792:6810   */\n      tag_247\n      tag_147\n      jump\t// in\n    tag_247:\n        /* \"#utility.yul\":6724:6812   */\n    tag_246:\n        /* \"#utility.yul\":6832:6842   */\n      dup1\n        /* \"#utility.yul\":6828:6830   */\n      0x40\n        /* \"#utility.yul\":6821:6843   */\n      mstore\n        /* \"#utility.yul\":6611:6849   */\n      pop\n        /* \"#utility.yul\":6568:6849   */\n      pop\n      pop\n      jump\t// out\n        /* \"#utility.yul\":6855:6984   */\n    tag_149:\n        /* \"#utility.yul\":6889:6895   */\n      0x00\n        /* \"#utility.yul\":6916:6936   */\n      tag_249\n      tag_124\n      jump\t// in\n    tag_249:\n        /* \"#utility.yul\":6906:6936   */\n      swap1\n      pop\n        /* \"#utility.yul\":6945:6978   */\n      tag_250\n        /* \"#utility.yul\":6973:6977   */\n      dup3\n        /* \"#utility.yul\":6965:6971   */\n      dup3\n        /* \"#utility.yul\":6945:6978   */\n      tag_148\n      jump\t// in\n    tag_250:\n        /* \"#utility.yul\":6855:6984   */\n      swap2\n      swap1\n      pop\n      jump\t// out\n        /* \"#utility.yul\":6990:7298   */\n    tag_150:\n        /* \"#utility.yul\":7052:7056   */\n      0x00\n        /* \"#utility.yul\":7142:7160   */\n      0xffffffffffffffff\n        /* \"#utility.yul\":7134:7140   */\n      dup3\n        /* \"#utility.yul\":7131:7161   */\n      gt\n        /* \"#utility.yul\":7128:7184   */\n      iszero\n      tag_252\n      jumpi\n        /* \"#utility.yul\":7164:7182   */\n      tag_253\n      tag_147\n      jump\t// in\n    tag_253:\n        /* \"#utility.yul\":7128:7184   */\n    tag_252:\n        /* \"#utility.yul\":7202:7231   */\n      tag_254\n        /* \"#utility.yul\":7224:7230   */\n      dup3\n        /* \"#utility.yul\":7202:7231   */\n      tag_133\n      jump\t// in\n    tag_254:\n        /* \"#utility.yul\":7194:7231   */\n      swap1\n      pop\n        /* \"#utility.yul\":7286:7290   */\n      0x20\n        /* \"#utility.yul\":7280:7284   */\n      dup2\n        /* \"#utility.yul\":7276:7291   */\n      add\n        /* \"#utility.yul\":7268:7291   */\n      swap1\n      pop\n        /* \"#utility.yul\":6990:7298   */\n      swap2\n      swap1\n      pop\n      jump\t// out\n        /* \"#utility.yul\":7304:7450   */\n    tag_151:\n        /* \"#utility.yul\":7401:7407   */\n      dup3\n        /* \"#utility.yul\":7396:7399   */\n      dup2\n        /* \"#utility.yul\":7391:7394   */\n      dup4\n        /* \"#utility.yul\":7378:7408   */\n      calldatacopy\n        /* \"#utility.yul\":7442:7443   */\n      0x00\n        /* \"#utility.yul\":7433:7439   */\n      dup4\n        /* \"#utility.yul\":7428:7431   */\n      dup4\n        /* \"#utility.yul\":7424:7440   */\n      add\n        /* \"#utility.yul\":7417:7444   */\n      mstore\n        /* \"#utility.yul\":7304:7450   */\n      pop\n      pop\n      pop\n      jump\t// out\n        /* \"#utility.yul\":7456:7881   */\n    tag_152:\n        /* \"#utility.yul\":7534:7539   */\n      0x00\n        /* \"#utility.yul\":7559:7625   */\n      tag_257\n        /* \"#utility.yul\":7575:7624   */\n      tag_258\n        /* \"#utility.yul\":7617:7623   */\n      dup5\n        /* \"#utility.yul\":7575:7624   */\n      tag_150\n      jump\t// in\n    tag_258:\n        /* \"#utility.yul\":7559:7625   */\n      tag_149\n      jump\t// in\n    tag_257:\n        /* \"#utility.yul\":7550:7625   */\n      swap1\n      pop\n        /* \"#utility.yul\":7648:7654   */\n      dup3\n        /* \"#utility.yul\":7641:7646   */\n      dup2\n        /* \"#utility.yul\":7634:7655   */\n      mstore\n        /* \"#utility.yul\":7686:7690   */\n      0x20\n        /* \"#utility.yul\":7679:7684   */\n      dup2\n        /* \"#utility.yul\":7675:7691   */\n      add\n        /* \"#utility.yul\":7724:7727   */\n      dup5\n        /* \"#utility.yul\":7715:7721   */\n      dup5\n        /* \"#utility.yul\":7710:7713   */\n      dup5\n        /* \"#utility.yul\":7706:7722   */\n      add\n        /* \"#utility.yul\":7703:7728   */\n      gt\n        /* \"#utility.yul\":7700:7812   */\n      iszero\n      tag_259\n      jumpi\n        /* \"#utility.yul\":7731:7810   */\n      tag_260\n      tag_146\n      jump\t// in\n    tag_260:\n        /* \"#utility.yul\":7700:7812   */\n    tag_259:\n        /* \"#utility.yul\":7821:7875   */\n      tag_261\n        /* \"#utility.yul\":7868:7874   */\n      dup5\n        /* \"#utility.yul\":7863:7866   */\n      dup3\n        /* \"#utility.yul\":7858:7861   */\n      dup6\n        /* \"#utility.yul\":7821:7875   */\n      tag_151\n      jump\t// in\n    tag_261:\n        /* \"#utility.yul\":7540:7881   */\n      pop\n        /* \"#utility.yul\":7456:7881   */\n      swap4\n      swap3\n      pop\n      pop\n      pop\n      jump\t// out\n        /* \"#utility.yul\":7901:8241   */\n    tag_153:\n        /* \"#utility.yul\":7957:7962   */\n      0x00\n        /* \"#utility.yul\":8006:8009   */\n      dup3\n        /* \"#utility.yul\":7999:8003   */\n      0x1f\n        /* \"#utility.yul\":7991:7997   */\n      dup4\n        /* \"#utility.yul\":7987:8004   */\n      add\n        /* \"#utility.yul\":7983:8010   */\n      slt\n        /* \"#utility.yul\":7973:8095   */\n      tag_263\n      jumpi\n        /* \"#utility.yul\":8014:8093   */\n      tag_264\n      tag_145\n      jump\t// in\n    tag_264:\n        /* \"#utility.yul\":7973:8095   */\n    tag_263:\n        /* \"#utility.yul\":8131:8137   */\n      dup2\n        /* \"#utility.yul\":8118:8138   */\n      calldataload\n        /* \"#utility.yul\":8156:8235   */\n      tag_265\n        /* \"#utility.yul\":8231:8234   */\n      dup5\n        /* \"#utility.yul\":8223:8229   */\n      dup3\n        /* \"#utility.yul\":8216:8220   */\n      0x20\n        /* \"#utility.yul\":8208:8214   */\n      dup7\n        /* \"#utility.yul\":8204:8221   */\n      add\n        /* \"#utility.yul\":8156:8235   */\n      tag_152\n      jump\t// in\n    tag_265:\n        /* \"#utility.yul\":8147:8235   */\n      swap2\n      pop\n        /* \"#utility.yul\":7963:8241   */\n      pop\n        /* \"#utility.yul\":7901:8241   */\n      swap3\n      swap2\n      pop\n      pop\n      jump\t// out\n        /* \"#utility.yul\":8247:8568   */\n    tag_154:\n        /* \"#utility.yul\":8334:8338   */\n      0x00\n        /* \"#utility.yul\":8424:8442   */\n      0xffffffffffffffff\n        /* \"#utility.yul\":8416:8422   */\n      dup3\n        /* \"#utility.yul\":8413:8443   */\n      gt\n        /* \"#utility.yul\":8410:8466   */\n      iszero\n      tag_267\n      jumpi\n        /* \"#utility.yul\":8446:8464   */\n      tag_268\n      tag_147\n      jump\t// in\n    tag_268:\n        /* \"#utility.yul\":8410:8466   */\n    tag_267:\n        /* \"#utility.yul\":8496:8500   */\n      0x20\n        /* \"#utility.yul\":8488:8494   */\n      dup3\n        /* \"#utility.yul\":8484:8501   */\n      mul\n        /* \"#utility.yul\":8476:8501   */\n      swap1\n      pop\n        /* \"#utility.yul\":8556:8560   */\n      0x20\n        /* \"#utility.yul\":8550:8554   */\n      dup2\n        /* \"#utility.yul\":8546:8561   */\n      add\n        /* \"#utility.yul\":8538:8561   */\n      swap1\n      pop\n        /* \"#utility.yul\":8247:8568   */\n      swap2\n      swap1\n      pop\n      jump\t// out\n        /* \"#utility.yul\":8574:8691   */\n    tag_155:\n        /* \"#utility.yul\":8683:8684   */\n      0x00\n        /* \"#utility.yul\":8680:8681   */\n      dup1\n        /* \"#utility.yul\":8673:8685   */\n      revert\n        /* \"#utility.yul\":8713:9658   */\n    tag_156:\n        /* \"#utility.yul\":8819:8824   */\n      0x00\n        /* \"#utility.yul\":8844:8935   */\n      tag_271\n        /* \"#utility.yul\":8860:8934   */\n      tag_272\n        /* \"#utility.yul\":8927:8933   */\n      dup5\n        /* \"#utility.yul\":8860:8934   */\n      tag_154\n      jump\t// in\n    tag_272:\n        /* \"#utility.yul\":8844:8935   */\n      tag_149\n      jump\t// in\n    tag_271:\n        /* \"#utility.yul\":8835:8935   */\n      swap1\n      pop\n        /* \"#utility.yul\":8955:8960   */\n      dup1\n        /* \"#utility.yul\":8984:8990   */\n      dup4\n        /* \"#utility.yul\":8977:8982   */\n      dup3\n        /* \"#utility.yul\":8970:8991   */\n      mstore\n        /* \"#utility.yul\":9018:9022   */\n      0x20\n        /* \"#utility.yul\":9011:9016   */\n      dup3\n        /* \"#utility.yul\":9007:9023   */\n      add\n        /* \"#utility.yul\":9000:9023   */\n      swap1\n      pop\n        /* \"#utility.yul\":9071:9075   */\n      0x20\n        /* \"#utility.yul\":9063:9069   */\n      dup5\n        /* \"#utility.yul\":9059:9076   */\n      mul\n        /* \"#utility.yul\":9051:9057   */\n      dup4\n        /* \"#utility.yul\":9047:9077   */\n      add\n        /* \"#utility.yul\":9100:9103   */\n      dup6\n        /* \"#utility.yul\":9092:9098   */\n      dup2\n        /* \"#utility.yul\":9089:9104   */\n      gt\n        /* \"#utility.yul\":9086:9208   */\n      iszero\n      tag_273\n      jumpi\n        /* \"#utility.yul\":9119:9198   */\n      tag_274\n      tag_155\n      jump\t// in\n    tag_274:\n        /* \"#utility.yul\":9086:9208   */\n    tag_273:\n        /* \"#utility.yul\":9234:9240   */\n      dup4\n        /* \"#utility.yul\":9217:9652   */\n    tag_275:\n        /* \"#utility.yul\":9251:9257   */\n      dup2\n        /* \"#utility.yul\":9246:9249   */\n      dup2\n        /* \"#utility.yul\":9243:9258   */\n      lt\n        /* \"#utility.yul\":9217:9652   */\n      iszero\n      tag_277\n      jumpi\n        /* \"#utility.yul\":9340:9343   */\n      dup1\n        /* \"#utility.yul\":9327:9344   */\n      calldataload\n        /* \"#utility.yul\":9376:9394   */\n      0xffffffffffffffff\n        /* \"#utility.yul\":9363:9374   */\n      dup2\n        /* \"#utility.yul\":9360:9395   */\n      gt\n        /* \"#utility.yul\":9357:9479   */\n      iszero\n      tag_278\n      jumpi\n        /* \"#utility.yul\":9398:9477   */\n      tag_279\n      tag_145\n      jump\t// in\n    tag_279:\n        /* \"#utility.yul\":9357:9479   */\n    tag_278:\n        /* \"#utility.yul\":9522:9533   */\n      dup1\n        /* \"#utility.yul\":9514:9520   */\n      dup7\n        /* \"#utility.yul\":9510:9534   */\n      add\n        /* \"#utility.yul\":9560:9607   */\n      tag_280\n        /* \"#utility.yul\":9603:9606   */\n      dup10\n        /* \"#utility.yul\":9591:9601   */\n      dup3\n        /* \"#utility.yul\":9560:9607   */\n      tag_153\n      jump\t// in\n    tag_280:\n        /* \"#utility.yul\":9555:9558   */\n      dup6\n        /* \"#utility.yul\":9548:9608   */\n      mstore\n        /* \"#utility.yul\":9637:9641   */\n      0x20\n        /* \"#utility.yul\":9632:9635   */\n      dup6\n        /* \"#utility.yul\":9628:9642   */\n      add\n        /* \"#utility.yul\":9621:9642   */\n      swap5\n      pop\n        /* \"#utility.yul\":9293:9652   */\n      pop\n      pop\n        /* \"#utility.yul\":9277:9281   */\n      0x20\n        /* \"#utility.yul\":9272:9275   */\n      dup2\n        /* \"#utility.yul\":9268:9282   */\n      add\n        /* \"#utility.yul\":9261:9282   */\n      swap1\n      pop\n        /* \"#utility.yul\":9217:9652   */\n      jump(tag_275)\n    tag_277:\n        /* \"#utility.yul\":9221:9242   */\n      pop\n        /* \"#utility.yul\":8825:9658   */\n      pop\n      pop\n        /* \"#utility.yul\":8713:9658   */\n      swap4\n      swap3\n      pop\n      pop\n      pop\n      jump\t// out\n        /* \"#utility.yul\":9680:10070   */\n    tag_157:\n        /* \"#utility.yul\":9761:9766   */\n      0x00\n        /* \"#utility.yul\":9810:9813   */\n      dup3\n        /* \"#utility.yul\":9803:9807   */\n      0x1f\n        /* \"#utility.yul\":9795:9801   */\n      dup4\n        /* \"#utility.yul\":9791:9808   */\n      add\n        /* \"#utility.yul\":9787:9814   */\n      slt\n        /* \"#utility.yul\":9777:9899   */\n      tag_282\n      jumpi\n        /* \"#utility.yul\":9818:9897   */\n      tag_283\n      tag_145\n      jump\t// in\n    tag_283:\n        /* \"#utility.yul\":9777:9899   */\n    tag_282:\n        /* \"#utility.yul\":9935:9941   */\n      dup2\n        /* \"#utility.yul\":9922:9942   */\n      calldataload\n        /* \"#utility.yul\":9960:10064   */\n      tag_284\n        /* \"#utility.yul\":10060:10063   */\n      dup5\n        /* \"#utility.yul\":10052:10058   */\n      dup3\n        /* \"#utility.yul\":10045:10049   */\n      0x20\n        /* \"#utility.yul\":10037:10043   */\n      dup7\n        /* \"#utility.yul\":10033:10050   */\n      add\n        /* \"#utility.yul\":9960:10064   */\n      tag_156\n      jump\t// in\n    tag_284:\n        /* \"#utility.yul\":9951:10064   */\n      swap2\n      pop\n        /* \"#utility.yul\":9767:10070   */\n      pop\n        /* \"#utility.yul\":9680:10070   */\n      swap3\n      swap2\n      pop\n      pop\n      jump\t// out\n        /* \"#utility.yul\":10076:11431   */\n    tag_22:\n        /* \"#utility.yul\":10217:10223   */\n      0x00\n        /* \"#utility.yul\":10225:10231   */\n      dup1\n        /* \"#utility.yul\":10233:10239   */\n      0x00\n        /* \"#utility.yul\":10241:10247   */\n      dup1\n        /* \"#utility.yul\":10290:10293   */\n      0x80\n        /* \"#utility.yul\":10278:10287   */\n      dup6\n        /* \"#utility.yul\":10269:10276   */\n      dup8\n        /* \"#utility.yul\":10265:10288   */\n      sub\n        /* \"#utility.yul\":10261:10294   */\n      slt\n        /* \"#utility.yul\":10258:10378   */\n      iszero\n      tag_286\n      jumpi\n        /* \"#utility.yul\":10297:10376   */\n      tag_287\n      tag_125\n      jump\t// in\n    tag_287:\n        /* \"#utility.yul\":10258:10378   */\n    tag_286:\n        /* \"#utility.yul\":10445:10446   */\n      0x00\n        /* \"#utility.yul\":10434:10443   */\n      dup6\n        /* \"#utility.yul\":10430:10447   */\n      add\n        /* \"#utility.yul\":10417:10448   */\n      calldataload\n        /* \"#utility.yul\":10475:10493   */\n      0xffffffffffffffff\n        /* \"#utility.yul\":10467:10473   */\n      dup2\n        /* \"#utility.yul\":10464:10494   */\n      gt\n        /* \"#utility.yul\":10461:10578   */\n      iszero\n      tag_288\n      jumpi\n        /* \"#utility.yul\":10497:10576   */\n      tag_289\n      tag_126\n      jump\t// in\n    tag_289:\n        /* \"#utility.yul\":10461:10578   */\n    tag_288:\n        /* \"#utility.yul\":10602:10665   */\n      tag_290\n        /* \"#utility.yul\":10657:10664   */\n      dup8\n        /* \"#utility.yul\":10648:10654   */\n      dup3\n        /* \"#utility.yul\":10637:10646   */\n      dup9\n        /* \"#utility.yul\":10633:10655   */\n      add\n        /* \"#utility.yul\":10602:10665   */\n      tag_153\n      jump\t// in\n    tag_290:\n        /* \"#utility.yul\":10592:10665   */\n      swap5\n      pop\n        /* \"#utility.yul\":10388:10675   */\n      pop\n        /* \"#utility.yul\":10742:10744   */\n      0x20\n        /* \"#utility.yul\":10731:10740   */\n      dup6\n        /* \"#utility.yul\":10727:10745   */\n      add\n        /* \"#utility.yul\":10714:10746   */\n      calldataload\n        /* \"#utility.yul\":10773:10791   */\n      0xffffffffffffffff\n        /* \"#utility.yul\":10765:10771   */\n      dup2\n        /* \"#utility.yul\":10762:10792   */\n      gt\n        /* \"#utility.yul\":10759:10876   */\n      iszero\n      tag_291\n      jumpi\n        /* \"#utility.yul\":10795:10874   */\n      tag_292\n      tag_126\n      jump\t// in\n    tag_292:\n        /* \"#utility.yul\":10759:10876   */\n    tag_291:\n        /* \"#utility.yul\":10900:10963   */\n      tag_293\n        /* \"#utility.yul\":10955:10962   */\n      dup8\n        /* \"#utility.yul\":10946:10952   */\n      dup3\n        /* \"#utility.yul\":10935:10944   */\n      dup9\n        /* \"#utility.yul\":10931:10953   */\n      add\n        /* \"#utility.yul\":10900:10963   */\n      tag_153\n      jump\t// in\n    tag_293:\n        /* \"#utility.yul\":10890:10963   */\n      swap4\n      pop\n        /* \"#utility.yul\":10685:10973   */\n      pop\n        /* \"#utility.yul\":11012:11014   */\n      0x40\n        /* \"#utility.yul\":11038:11091   */\n      tag_294\n        /* \"#utility.yul\":11083:11090   */\n      dup8\n        /* \"#utility.yul\":11074:11080   */\n      dup3\n        /* \"#utility.yul\":11063:11072   */\n      dup9\n        /* \"#utility.yul\":11059:11081   */\n      add\n        /* \"#utility.yul\":11038:11091   */\n      tag_129\n      jump\t// in\n    tag_294:\n        /* \"#utility.yul\":11028:11091   */\n      swap3\n      pop\n        /* \"#utility.yul\":10983:11101   */\n      pop\n        /* \"#utility.yul\":11168:11170   */\n      0x60\n        /* \"#utility.yul\":11157:11166   */\n      dup6\n        /* \"#utility.yul\":11153:11171   */\n      add\n        /* \"#utility.yul\":11140:11172   */\n      calldataload\n        /* \"#utility.yul\":11199:11217   */\n      0xffffffffffffffff\n        /* \"#utility.yul\":11191:11197   */\n      dup2\n        /* \"#utility.yul\":11188:11218   */\n      gt\n        /* \"#utility.yul\":11185:11302   */\n      iszero\n      tag_295\n      jumpi\n        /* \"#utility.yul\":11221:11300   */\n      tag_296\n      tag_126\n      jump\t// in\n    tag_296:\n        /* \"#utility.yul\":11185:11302   */\n    tag_295:\n        /* \"#utility.yul\":11326:11414   */\n      tag_297\n        /* \"#utility.yul\":11406:11413   */\n      dup8\n        /* \"#utility.yul\":11397:11403   */\n      dup3\n        /* \"#utility.yul\":11386:11395   */\n      dup9\n        /* \"#utility.yul\":11382:11404   */\n      add\n        /* \"#utility.yul\":11326:11414   */\n      tag_157\n      jump\t// in\n    tag_297:\n        /* \"#utility.yul\":11316:11414   */\n      swap2\n      pop\n        /* \"#utility.yul\":11111:11424   */\n      pop\n        /* \"#utility.yul\":10076:11431   */\n      swap3\n      swap6\n      swap2\n      swap5\n      pop\n      swap3\n      pop\n      jump\t// out\n        /* \"#utility.yul\":11437:11946   */\n    tag_26:\n        /* \"#utility.yul\":11506:11512   */\n      0x00\n        /* \"#utility.yul\":11555:11557   */\n      0x20\n        /* \"#utility.yul\":11543:11552   */\n      dup3\n        /* \"#utility.yul\":11534:11541   */\n      dup5\n        /* \"#utility.yul\":11530:11553   */\n      sub\n        /* \"#utility.yul\":11526:11558   */\n      slt\n        /* \"#utility.yul\":11523:11642   */\n      iszero\n      tag_299\n      jumpi\n        /* \"#utility.yul\":11561:11640   */\n      tag_300\n      tag_125\n      jump\t// in\n    tag_300:\n        /* \"#utility.yul\":11523:11642   */\n    tag_299:\n        /* \"#utility.yul\":11709:11710   */\n      0x00\n        /* \"#utility.yul\":11698:11707   */\n      dup3\n        /* \"#utility.yul\":11694:11711   */\n      add\n        /* \"#utility.yul\":11681:11712   */\n      calldataload\n        /* \"#utility.yul\":11739:11757   */\n      0xffffffffffffffff\n        /* \"#utility.yul\":11731:11737   */\n      dup2\n        /* \"#utility.yul\":11728:11758   */\n      gt\n        /* \"#utility.yul\":11725:11842   */\n      iszero\n      tag_301\n      jumpi\n        /* \"#utility.yul\":11761:11840   */\n      tag_302\n      tag_126\n      jump\t// in\n    tag_302:\n        /* \"#utility.yul\":11725:11842   */\n    tag_301:\n        /* \"#utility.yul\":11866:11929   */\n      tag_303\n        /* \"#utility.yul\":11921:11928   */\n      dup5\n        /* \"#utility.yul\":11912:11918   */\n      dup3\n        /* \"#utility.yul\":11901:11910   */\n      dup6\n        /* \"#utility.yul\":11897:11919   */\n      add\n        /* \"#utility.yul\":11866:11929   */\n      tag_153\n      jump\t// in\n    tag_303:\n        /* \"#utility.yul\":11856:11929   */\n      swap2\n      pop\n        /* \"#utility.yul\":11652:11939   */\n      pop\n        /* \"#utility.yul\":11437:11946   */\n      swap3\n      swap2\n      pop\n      pop\n      jump\t// out\n        /* \"#utility.yul\":11952:12088   */\n    tag_158:\n        /* \"#utility.yul\":12041:12047   */\n      0x00\n        /* \"#utility.yul\":12075:12080   */\n      dup2\n        /* \"#utility.yul\":12069:12081   */\n      mload\n        /* \"#utility.yul\":12059:12081   */\n      swap1\n      pop\n        /* \"#utility.yul\":11952:12088   */\n      swap2\n      swap1\n      pop\n      jump\t// out\n        /* \"#utility.yul\":12094:12300   */\n    tag_159:\n        /* \"#utility.yul\":12215:12226   */\n      0x00\n        /* \"#utility.yul\":12249:12255   */\n      dup3\n        /* \"#utility.yul\":12244:12247   */\n      dup3\n        /* \"#utility.yul\":12237:12256   */\n      mstore\n        /* \"#utility.yul\":12289:12293   */\n      0x20\n        /* \"#utility.yul\":12284:12287   */\n      dup3\n        /* \"#utility.yul\":12280:12294   */\n      add\n        /* \"#utility.yul\":12265:12294   */\n      swap1\n      pop\n        /* \"#utility.yul\":12094:12300   */\n      swap3\n      swap2\n      pop\n      pop\n      jump\t// out\n        /* \"#utility.yul\":12306:12460   */\n    tag_160:\n        /* \"#utility.yul\":12395:12399   */\n      0x00\n        /* \"#utility.yul\":12418:12421   */\n      dup2\n        /* \"#utility.yul\":12410:12421   */\n      swap1\n      pop\n        /* \"#utility.yul\":12448:12452   */\n      0x20\n        /* \"#utility.yul\":12443:12446   */\n      dup3\n        /* \"#utility.yul\":12439:12453   */\n      add\n        /* \"#utility.yul\":12431:12453   */\n      swap1\n      pop\n        /* \"#utility.yul\":12306:12460   */\n      swap2\n      swap1\n      pop\n      jump\t// out\n        /* \"#utility.yul\":12516:13406   */\n    tag_161:\n        /* \"#utility.yul\":12619:12622   */\n      0x00\n        /* \"#utility.yul\":12655:12659   */\n      0x60\n        /* \"#utility.yul\":12650:12653   */\n      dup4\n        /* \"#utility.yul\":12646:12660   */\n      add\n        /* \"#utility.yul\":12742:12746   */\n      0x00\n        /* \"#utility.yul\":12735:12740   */\n      dup4\n        /* \"#utility.yul\":12731:12747   */\n      add\n        /* \"#utility.yul\":12725:12748   */\n      mload\n        /* \"#utility.yul\":12795:12798   */\n      dup5\n        /* \"#utility.yul\":12789:12793   */\n      dup3\n        /* \"#utility.yul\":12785:12799   */\n      sub\n        /* \"#utility.yul\":12778:12782   */\n      0x00\n        /* \"#utility.yul\":12773:12776   */\n      dup7\n        /* \"#utility.yul\":12769:12783   */\n      add\n        /* \"#utility.yul\":12762:12800   */\n      mstore\n        /* \"#utility.yul\":12821:12894   */\n      tag_308\n        /* \"#utility.yul\":12889:12893   */\n      dup3\n        /* \"#utility.yul\":12875:12887   */\n      dup3\n        /* \"#utility.yul\":12821:12894   */\n      tag_136\n      jump\t// in\n    tag_308:\n        /* \"#utility.yul\":12813:12894   */\n      swap2\n      pop\n        /* \"#utility.yul\":12670:12905   */\n      pop\n        /* \"#utility.yul\":12989:12993   */\n      0x20\n        /* \"#utility.yul\":12982:12987   */\n      dup4\n        /* \"#utility.yul\":12978:12994   */\n      add\n        /* \"#utility.yul\":12972:12995   */\n      mload\n        /* \"#utility.yul\":13008:13071   */\n      tag_309\n        /* \"#utility.yul\":13065:13069   */\n      0x20\n        /* \"#utility.yul\":13060:13063   */\n      dup7\n        /* \"#utility.yul\":13056:13070   */\n      add\n        /* \"#utility.yul\":13042:13054   */\n      dup3\n        /* \"#utility.yul\":13008:13071   */\n      tag_137\n      jump\t// in\n    tag_309:\n        /* \"#utility.yul\":12915:13081   */\n      pop\n        /* \"#utility.yul\":13166:13170   */\n      0x40\n        /* \"#utility.yul\":13159:13164   */\n      dup4\n        /* \"#utility.yul\":13155:13171   */\n      add\n        /* \"#utility.yul\":13149:13172   */\n      mload\n        /* \"#utility.yul\":13219:13222   */\n      dup5\n        /* \"#utility.yul\":13213:13217   */\n      dup3\n        /* \"#utility.yul\":13209:13223   */\n      sub\n        /* \"#utility.yul\":13202:13206   */\n      0x40\n        /* \"#utility.yul\":13197:13200   */\n      dup7\n        /* \"#utility.yul\":13193:13207   */\n      add\n        /* \"#utility.yul\":13186:13224   */\n      mstore\n        /* \"#utility.yul\":13245:13368   */\n      tag_310\n        /* \"#utility.yul\":13363:13367   */\n      dup3\n        /* \"#utility.yul\":13349:13361   */\n      dup3\n        /* \"#utility.yul\":13245:13368   */\n      tag_143\n      jump\t// in\n    tag_310:\n        /* \"#utility.yul\":13237:13368   */\n      swap2\n      pop\n        /* \"#utility.yul\":13091:13379   */\n      pop\n        /* \"#utility.yul\":13396:13400   */\n      dup1\n        /* \"#utility.yul\":13389:13400   */\n      swap2\n      pop\n        /* \"#utility.yul\":12624:13406   */\n      pop\n        /* \"#utility.yul\":12516:13406   */\n      swap3\n      swap2\n      pop\n      pop\n      jump\t// out\n        /* \"#utility.yul\":13412:13656   */\n    tag_162:\n        /* \"#utility.yul\":13525:13535   */\n      0x00\n        /* \"#utility.yul\":13560:13650   */\n      tag_312\n        /* \"#utility.yul\":13646:13649   */\n      dup4\n        /* \"#utility.yul\":13638:13644   */\n      dup4\n        /* \"#utility.yul\":13560:13650   */\n      tag_161\n      jump\t// in\n    tag_312:\n        /* \"#utility.yul\":13546:13650   */\n      swap1\n      pop\n        /* \"#utility.yul\":13412:13656   */\n      swap3\n      swap2\n      pop\n      pop\n      jump\t// out\n        /* \"#utility.yul\":13662:13797   */\n    tag_163:\n        /* \"#utility.yul\":13754:13758   */\n      0x00\n        /* \"#utility.yul\":13786:13790   */\n      0x20\n        /* \"#utility.yul\":13781:13784   */\n      dup3\n        /* \"#utility.yul\":13777:13791   */\n      add\n        /* \"#utility.yul\":13769:13791   */\n      swap1\n      pop\n        /* \"#utility.yul\":13662:13797   */\n      swap2\n      swap1\n      pop\n      jump\t// out\n        /* \"#utility.yul\":13857:14944   */\n    tag_164:\n        /* \"#utility.yul\":14020:14023   */\n      0x00\n        /* \"#utility.yul\":14049:14125   */\n      tag_315\n        /* \"#utility.yul\":14119:14124   */\n      dup3\n        /* \"#utility.yul\":14049:14125   */\n      tag_158\n      jump\t// in\n    tag_315:\n        /* \"#utility.yul\":14141:14249   */\n      tag_316\n        /* \"#utility.yul\":14242:14248   */\n      dup2\n        /* \"#utility.yul\":14237:14240   */\n      dup6\n        /* \"#utility.yul\":14141:14249   */\n      tag_159\n      jump\t// in\n    tag_316:\n        /* \"#utility.yul\":14134:14249   */\n      swap4\n      pop\n        /* \"#utility.yul\":14275:14278   */\n      dup4\n        /* \"#utility.yul\":14320:14324   */\n      0x20\n        /* \"#utility.yul\":14312:14318   */\n      dup3\n        /* \"#utility.yul\":14308:14325   */\n      mul\n        /* \"#utility.yul\":14303:14306   */\n      dup6\n        /* \"#utility.yul\":14299:14326   */\n      add\n        /* \"#utility.yul\":14350:14428   */\n      tag_317\n        /* \"#utility.yul\":14422:14427   */\n      dup6\n        /* \"#utility.yul\":14350:14428   */\n      tag_160\n      jump\t// in\n    tag_317:\n        /* \"#utility.yul\":14451:14458   */\n      dup1\n        /* \"#utility.yul\":14482:14483   */\n      0x00\n        /* \"#utility.yul\":14467:14899   */\n    tag_318:\n        /* \"#utility.yul\":14492:14498   */\n      dup6\n        /* \"#utility.yul\":14489:14490   */\n      dup2\n        /* \"#utility.yul\":14486:14499   */\n      lt\n        /* \"#utility.yul\":14467:14899   */\n      iszero\n      tag_320\n      jumpi\n        /* \"#utility.yul\":14563:14572   */\n      dup5\n        /* \"#utility.yul\":14557:14561   */\n      dup5\n        /* \"#utility.yul\":14553:14573   */\n      sub\n        /* \"#utility.yul\":14548:14551   */\n      dup10\n        /* \"#utility.yul\":14541:14574   */\n      mstore\n        /* \"#utility.yul\":14614:14620   */\n      dup2\n        /* \"#utility.yul\":14608:14621   */\n      mload\n        /* \"#utility.yul\":14642:14750   */\n      tag_321\n        /* \"#utility.yul\":14745:14749   */\n      dup6\n        /* \"#utility.yul\":14730:14743   */\n      dup3\n        /* \"#utility.yul\":14642:14750   */\n      tag_162\n      jump\t// in\n    tag_321:\n        /* \"#utility.yul\":14634:14750   */\n      swap5\n      pop\n        /* \"#utility.yul\":14773:14855   */\n      tag_322\n        /* \"#utility.yul\":14848:14854   */\n      dup4\n        /* \"#utility.yul\":14773:14855   */\n      tag_163\n      jump\t// in\n    tag_322:\n        /* \"#utility.yul\":14763:14855   */\n      swap3\n      pop\n        /* \"#utility.yul\":14884:14888   */\n      0x20\n        /* \"#utility.yul\":14879:14882   */\n      dup11\n        /* \"#utility.yul\":14875:14889   */\n      add\n        /* \"#utility.yul\":14868:14889   */\n      swap10\n      pop\n        /* \"#utility.yul\":14527:14899   */\n      pop\n        /* \"#utility.yul\":14514:14515   */\n      0x01\n        /* \"#utility.yul\":14511:14512   */\n      dup2\n        /* \"#utility.yul\":14507:14516   */\n      add\n        /* \"#utility.yul\":14502:14516   */\n      swap1\n      pop\n        /* \"#utility.yul\":14467:14899   */\n      jump(tag_318)\n    tag_320:\n        /* \"#utility.yul\":14471:14485   */\n      pop\n        /* \"#utility.yul\":14915:14919   */\n      dup3\n        /* \"#utility.yul\":14908:14919   */\n      swap8\n      pop\n        /* \"#utility.yul\":14935:14938   */\n      dup8\n        /* \"#utility.yul\":14928:14938   */\n      swap6\n      pop\n        /* \"#utility.yul\":14025:14944   */\n      pop\n      pop\n      pop\n      pop\n      pop\n        /* \"#utility.yul\":13857:14944   */\n      swap3\n      swap2\n      pop\n      pop\n      jump\t// out\n        /* \"#utility.yul\":14950:15411   */\n    tag_29:\n        /* \"#utility.yul\":15137:15141   */\n      0x00\n        /* \"#utility.yul\":15175:15177   */\n      0x20\n        /* \"#utility.yul\":15164:15173   */\n      dup3\n        /* \"#utility.yul\":15160:15178   */\n      add\n        /* \"#utility.yul\":15152:15178   */\n      swap1\n      pop\n        /* \"#utility.yul\":15224:15233   */\n      dup2\n        /* \"#utility.yul\":15218:15222   */\n      dup2\n        /* \"#utility.yul\":15214:15234   */\n      sub\n        /* \"#utility.yul\":15210:15211   */\n      0x00\n        /* \"#utility.yul\":15199:15208   */\n      dup4\n        /* \"#utility.yul\":15195:15212   */\n      add\n        /* \"#utility.yul\":15188:15235   */\n      mstore\n        /* \"#utility.yul\":15252:15404   */\n      tag_324\n        /* \"#utility.yul\":15399:15403   */\n      dup2\n        /* \"#utility.yul\":15390:15396   */\n      dup5\n        /* \"#utility.yul\":15252:15404   */\n      tag_164\n      jump\t// in\n    tag_324:\n        /* \"#utility.yul\":15244:15404   */\n      swap1\n      pop\n        /* \"#utility.yul\":14950:15411   */\n      swap3\n      swap2\n      pop\n      pop\n      jump\t// out\n        /* \"#utility.yul\":15417:16446   */\n    tag_32:\n        /* \"#utility.yul\":15539:15545   */\n      0x00\n        /* \"#utility.yul\":15547:15553   */\n      dup1\n        /* \"#utility.yul\":15555:15561   */\n      0x00\n        /* \"#utility.yul\":15604:15606   */\n      0x60\n        /* \"#utility.yul\":15592:15601   */\n      dup5\n        /* \"#utility.yul\":15583:15590   */\n      dup7\n        /* \"#utility.yul\":15579:15602   */\n      sub\n        /* \"#utility.yul\":15575:15607   */\n      slt\n        /* \"#utility.yul\":15572:15691   */\n      iszero\n      tag_326\n      jumpi\n        /* \"#utility.yul\":15610:15689   */\n      tag_327\n      tag_125\n      jump\t// in\n    tag_327:\n        /* \"#utility.yul\":15572:15691   */\n    tag_326:\n        /* \"#utility.yul\":15758:15759   */\n      0x00\n        /* \"#utility.yul\":15747:15756   */\n      dup5\n        /* \"#utility.yul\":15743:15760   */\n      add\n        /* \"#utility.yul\":15730:15761   */\n      calldataload\n        /* \"#utility.yul\":15788:15806   */\n      0xffffffffffffffff\n        /* \"#utility.yul\":15780:15786   */\n      dup2\n        /* \"#utility.yul\":15777:15807   */\n      gt\n        /* \"#utility.yul\":15774:15891   */\n      iszero\n      tag_328\n      jumpi\n        /* \"#utility.yul\":15810:15889   */\n      tag_329\n      tag_126\n      jump\t// in\n    tag_329:\n        /* \"#utility.yul\":15774:15891   */\n    tag_328:\n        /* \"#utility.yul\":15915:15978   */\n      tag_330\n        /* \"#utility.yul\":15970:15977   */\n      dup7\n        /* \"#utility.yul\":15961:15967   */\n      dup3\n        /* \"#utility.yul\":15950:15959   */\n      dup8\n        /* \"#utility.yul\":15946:15968   */\n      add\n        /* \"#utility.yul\":15915:15978   */\n      tag_153\n      jump\t// in\n    tag_330:\n        /* \"#utility.yul\":15905:15978   */\n      swap4\n      pop\n        /* \"#utility.yul\":15701:15988   */\n      pop\n        /* \"#utility.yul\":16027:16029   */\n      0x20\n        /* \"#utility.yul\":16053:16106   */\n      tag_331\n        /* \"#utility.yul\":16098:16105   */\n      dup7\n        /* \"#utility.yul\":16089:16095   */\n      dup3\n        /* \"#utility.yul\":16078:16087   */\n      dup8\n        /* \"#utility.yul\":16074:16096   */\n      add\n        /* \"#utility.yul\":16053:16106   */\n      tag_129\n      jump\t// in\n    tag_331:\n        /* \"#utility.yul\":16043:16106   */\n      swap3\n      pop\n        /* \"#utility.yul\":15998:16116   */\n      pop\n        /* \"#utility.yul\":16183:16185   */\n      0x40\n        /* \"#utility.yul\":16172:16181   */\n      dup5\n        /* \"#utility.yul\":16168:16186   */\n      add\n        /* \"#utility.yul\":16155:16187   */\n      calldataload\n        /* \"#utility.yul\":16214:16232   */\n      0xffffffffffffffff\n        /* \"#utility.yul\":16206:16212   */\n      dup2\n        /* \"#utility.yul\":16203:16233   */\n      gt\n        /* \"#utility.yul\":16200:16317   */\n      iszero\n      tag_332\n      jumpi\n        /* \"#utility.yul\":16236:16315   */\n      tag_333\n      tag_126\n      jump\t// in\n    tag_333:\n        /* \"#utility.yul\":16200:16317   */\n    tag_332:\n        /* \"#utility.yul\":16341:16429   */\n      tag_334\n        /* \"#utility.yul\":16421:16428   */\n      dup7\n        /* \"#utility.yul\":16412:16418   */\n      dup3\n        /* \"#utility.yul\":16401:16410   */\n      dup8\n        /* \"#utility.yul\":16397:16419   */\n      add\n        /* \"#utility.yul\":16341:16429   */\n      tag_157\n      jump\t// in\n    tag_334:\n        /* \"#utility.yul\":16331:16429   */\n      swap2\n      pop\n        /* \"#utility.yul\":16126:16439   */\n      pop\n        /* \"#utility.yul\":15417:16446   */\n      swap3\n      pop\n      swap3\n      pop\n      swap3\n      jump\t// out\n        /* \"#utility.yul\":16452:17251   */\n    tag_36:\n        /* \"#utility.yul\":16539:16545   */\n      0x00\n        /* \"#utility.yul\":16547:16553   */\n      dup1\n        /* \"#utility.yul\":16555:16561   */\n      0x00\n        /* \"#utility.yul\":16604:16606   */\n      0x60\n        /* \"#utility.yul\":16592:16601   */\n      dup5\n        /* \"#utility.yul\":16583:16590   */\n      dup7\n        /* \"#utility.yul\":16579:16602   */\n      sub\n        /* \"#utility.yul\":16575:16607   */\n      slt\n        /* \"#utility.yul\":16572:16691   */\n      iszero\n      tag_336\n      jumpi\n        /* \"#utility.yul\":16610:16689   */\n      tag_337\n      tag_125\n      jump\t// in\n    tag_337:\n        /* \"#utility.yul\":16572:16691   */\n    tag_336:\n        /* \"#utility.yul\":16758:16759   */\n      0x00\n        /* \"#utility.yul\":16747:16756   */\n      dup5\n        /* \"#utility.yul\":16743:16760   */\n      add\n        /* \"#utility.yul\":16730:16761   */\n      calldataload\n        /* \"#utility.yul\":16788:16806   */\n      0xffffffffffffffff\n        /* \"#utility.yul\":16780:16786   */\n      dup2\n        /* \"#utility.yul\":16777:16807   */\n      gt\n        /* \"#utility.yul\":16774:16891   */\n      iszero\n      tag_338\n      jumpi\n        /* \"#utility.yul\":16810:16889   */\n      tag_339\n      tag_126\n      jump\t// in\n    tag_339:\n        /* \"#utility.yul\":16774:16891   */\n    tag_338:\n        /* \"#utility.yul\":16915:16978   */\n      tag_340\n        /* \"#utility.yul\":16970:16977   */\n      dup7\n        /* \"#utility.yul\":16961:16967   */\n      dup3\n        /* \"#utility.yul\":16950:16959   */\n      dup8\n        /* \"#utility.yul\":16946:16968   */\n      add\n        /* \"#utility.yul\":16915:16978   */\n      tag_153\n      jump\t// in\n    tag_340:\n        /* \"#utility.yul\":16905:16978   */\n      swap4\n      pop\n        /* \"#utility.yul\":16701:16988   */\n      pop\n        /* \"#utility.yul\":17027:17029   */\n      0x20\n        /* \"#utility.yul\":17053:17106   */\n      tag_341\n        /* \"#utility.yul\":17098:17105   */\n      dup7\n        /* \"#utility.yul\":17089:17095   */\n      dup3\n        /* \"#utility.yul\":17078:17087   */\n      dup8\n        /* \"#utility.yul\":17074:17096   */\n      add\n        /* \"#utility.yul\":17053:17106   */\n      tag_129\n      jump\t// in\n    tag_341:\n        /* \"#utility.yul\":17043:17106   */\n      swap3\n      pop\n        /* \"#utility.yul\":16998:17116   */\n      pop\n        /* \"#utility.yul\":17155:17157   */\n      0x40\n        /* \"#utility.yul\":17181:17234   */\n      tag_342\n        /* \"#utility.yul\":17226:17233   */\n      dup7\n        /* \"#utility.yul\":17217:17223   */\n      dup3\n        /* \"#utility.yul\":17206:17215   */\n      dup8\n        /* \"#utility.yul\":17202:17224   */\n      add\n        /* \"#utility.yul\":17181:17234   */\n      tag_129\n      jump\t// in\n    tag_342:\n        /* \"#utility.yul\":17171:17234   */\n      swap2\n      pop\n        /* \"#utility.yul\":17126:17244   */\n      pop\n        /* \"#utility.yul\":16452:17251   */\n      swap3\n      pop\n      swap3\n      pop\n      swap3\n      jump\t// out\n        /* \"#utility.yul\":17257:17437   */\n    tag_165:\n        /* \"#utility.yul\":17305:17382   */\n      0x4e487b7100000000000000000000000000000000000000000000000000000000\n        /* \"#utility.yul\":17302:17303   */\n      0x00\n        /* \"#utility.yul\":17295:17383   */\n      mstore\n        /* \"#utility.yul\":17402:17406   */\n      0x11\n        /* \"#utility.yul\":17399:17400   */\n      0x04\n        /* \"#utility.yul\":17392:17407   */\n      mstore\n        /* \"#utility.yul\":17426:17430   */\n      0x24\n        /* \"#utility.yul\":17423:17424   */\n      0x00\n        /* \"#utility.yul\":17416:17431   */\n      revert\n        /* \"#utility.yul\":17443:17637   */\n    tag_40:\n        /* \"#utility.yul\":17483:17487   */\n      0x00\n        /* \"#utility.yul\":17503:17523   */\n      tag_345\n        /* \"#utility.yul\":17521:17522   */\n      dup3\n        /* \"#utility.yul\":17503:17523   */\n      tag_127\n      jump\t// in\n    tag_345:\n        /* \"#utility.yul\":17498:17523   */\n      swap2\n      pop\n        /* \"#utility.yul\":17537:17557   */\n      tag_346\n        /* \"#utility.yul\":17555:17556   */\n      dup4\n        /* \"#utility.yul\":17537:17557   */\n      tag_127\n      jump\t// in\n    tag_346:\n        /* \"#utility.yul\":17532:17557   */\n      swap3\n      pop\n        /* \"#utility.yul\":17581:17582   */\n      dup3\n        /* \"#utility.yul\":17578:17579   */\n      dup3\n        /* \"#utility.yul\":17574:17583   */\n      sub\n        /* \"#utility.yul\":17566:17583   */\n      swap1\n      pop\n        /* \"#utility.yul\":17605:17606   */\n      dup2\n        /* \"#utility.yul\":17599:17603   */\n      dup2\n        /* \"#utility.yul\":17596:17607   */\n      gt\n        /* \"#utility.yul\":17593:17630   */\n      iszero\n      tag_347\n      jumpi\n        /* \"#utility.yul\":17610:17628   */\n      tag_348\n      tag_165\n      jump\t// in\n    tag_348:\n        /* \"#utility.yul\":17593:17630   */\n    tag_347:\n        /* \"#utility.yul\":17443:17637   */\n      swap3\n      swap2\n      pop\n      pop\n      jump\t// out\n        /* \"#utility.yul\":17643:17823   */\n    tag_43:\n        /* \"#utility.yul\":17691:17768   */\n      0x4e487b7100000000000000000000000000000000000000000000000000000000\n        /* \"#utility.yul\":17688:17689   */\n      0x00\n        /* \"#utility.yul\":17681:17769   */\n      mstore\n        /* \"#utility.yul\":17788:17792   */\n      0x32\n        /* \"#utility.yul\":17785:17786   */\n      0x04\n        /* \"#utility.yul\":17778:17793   */\n      mstore\n        /* \"#utility.yul\":17812:17816   */\n      0x24\n        /* \"#utility.yul\":17809:17810   */\n      0x00\n        /* \"#utility.yul\":17802:17817   */\n      revert\n        /* \"#utility.yul\":17829:18009   */\n    tag_166:\n        /* \"#utility.yul\":17877:17954   */\n      0x4e487b7100000000000000000000000000000000000000000000000000000000\n        /* \"#utility.yul\":17874:17875   */\n      0x00\n        /* \"#utility.yul\":17867:17955   */\n      mstore\n        /* \"#utility.yul\":17974:17978   */\n      0x22\n        /* \"#utility.yul\":17971:17972   */\n      0x04\n        /* \"#utility.yul\":17964:17979   */\n      mstore\n        /* \"#utility.yul\":17998:18002   */\n      0x24\n        /* \"#utility.yul\":17995:17996   */\n      0x00\n        /* \"#utility.yul\":17988:18003   */\n      revert\n        /* \"#utility.yul\":18015:18335   */\n    tag_46:\n        /* \"#utility.yul\":18059:18065   */\n      0x00\n        /* \"#utility.yul\":18096:18097   */\n      0x02\n        /* \"#utility.yul\":18090:18094   */\n      dup3\n        /* \"#utility.yul\":18086:18098   */\n      div\n        /* \"#utility.yul\":18076:18098   */\n      swap1\n      pop\n        /* \"#utility.yul\":18143:18144   */\n      0x01\n        /* \"#utility.yul\":18137:18141   */\n      dup3\n        /* \"#utility.yul\":18133:18145   */\n      and\n        /* \"#utility.yul\":18164:18182   */\n      dup1\n        /* \"#utility.yul\":18154:18235   */\n      tag_352\n      jumpi\n        /* \"#utility.yul\":18220:18224   */\n      0x7f\n        /* \"#utility.yul\":18212:18218   */\n      dup3\n        /* \"#utility.yul\":18208:18225   */\n      and\n        /* \"#utility.yul\":18198:18225   */\n      swap2\n      pop\n        /* \"#utility.yul\":18154:18235   */\n    tag_352:\n        /* \"#utility.yul\":18282:18284   */\n      0x20\n        /* \"#utility.yul\":18274:18280   */\n      dup3\n        /* \"#utility.yul\":18271:18285   */\n      lt\n        /* \"#utility.yul\":18251:18269   */\n      dup2\n        /* \"#utility.yul\":18248:18286   */\n      sub\n        /* \"#utility.yul\":18245:18329   */\n      tag_353\n      jumpi\n        /* \"#utility.yul\":18301:18319   */\n      tag_354\n      tag_166\n      jump\t// in\n    tag_354:\n        /* \"#utility.yul\":18245:18329   */\n    tag_353:\n        /* \"#utility.yul\":18066:18335   */\n      pop\n        /* \"#utility.yul\":18015:18335   */\n      swap2\n      swap1\n      pop\n      jump\t// out\n        /* \"#utility.yul\":18341:18489   */\n    tag_167:\n        /* \"#utility.yul\":18443:18454   */\n      0x00\n        /* \"#utility.yul\":18480:18483   */\n      dup2\n        /* \"#utility.yul\":18465:18483   */\n      swap1\n      pop\n        /* \"#utility.yul\":18341:18489   */\n      swap3\n      swap2\n      pop\n      pop\n      jump\t// out\n        /* \"#utility.yul\":18495:18885   */\n    tag_168:\n        /* \"#utility.yul\":18601:18604   */\n      0x00\n        /* \"#utility.yul\":18629:18668   */\n      tag_357\n        /* \"#utility.yul\":18662:18667   */\n      dup3\n        /* \"#utility.yul\":18629:18668   */\n      tag_130\n      jump\t// in\n    tag_357:\n        /* \"#utility.yul\":18684:18773   */\n      tag_358\n        /* \"#utility.yul\":18766:18772   */\n      dup2\n        /* \"#utility.yul\":18761:18764   */\n      dup6\n        /* \"#utility.yul\":18684:18773   */\n      tag_167\n      jump\t// in\n    tag_358:\n        /* \"#utility.yul\":18677:18773   */\n      swap4\n      pop\n        /* \"#utility.yul\":18782:18847   */\n      tag_359\n        /* \"#utility.yul\":18840:18846   */\n      dup2\n        /* \"#utility.yul\":18835:18838   */\n      dup6\n        /* \"#utility.yul\":18828:18832   */\n      0x20\n        /* \"#utility.yul\":18821:18826   */\n      dup7\n        /* \"#utility.yul\":18817:18833   */\n      add\n        /* \"#utility.yul\":18782:18847   */\n      tag_132\n      jump\t// in\n    tag_359:\n        /* \"#utility.yul\":18872:18878   */\n      dup1\n        /* \"#utility.yul\":18867:18870   */\n      dup5\n        /* \"#utility.yul\":18863:18879   */\n      add\n        /* \"#utility.yul\":18856:18879   */\n      swap2\n      pop\n        /* \"#utility.yul\":18605:18885   */\n      pop\n        /* \"#utility.yul\":18495:18885   */\n      swap3\n      swap2\n      pop\n      pop\n      jump\t// out\n        /* \"#utility.yul\":18891:19166   */\n    tag_73:\n        /* \"#utility.yul\":19023:19026   */\n      0x00\n        /* \"#utility.yul\":19045:19140   */\n      tag_361\n        /* \"#utility.yul\":19136:19139   */\n      dup3\n        /* \"#utility.yul\":19127:19133   */\n      dup5\n        /* \"#utility.yul\":19045:19140   */\n      tag_168\n      jump\t// in\n    tag_361:\n        /* \"#utility.yul\":19038:19140   */\n      swap2\n      pop\n        /* \"#utility.yul\":19157:19160   */\n      dup2\n        /* \"#utility.yul\":19150:19160   */\n      swap1\n      pop\n        /* \"#utility.yul\":18891:19166   */\n      swap3\n      swap2\n      pop\n      pop\n      jump\t// out\n        /* \"#utility.yul\":19172:19313   */\n    tag_169:\n        /* \"#utility.yul\":19221:19225   */\n      0x00\n        /* \"#utility.yul\":19244:19247   */\n      dup2\n        /* \"#utility.yul\":19236:19247   */\n      swap1\n      pop\n        /* \"#utility.yul\":19267:19270   */\n      dup2\n        /* \"#utility.yul\":19264:19265   */\n      0x00\n        /* \"#utility.yul\":19257:19271   */\n      mstore\n        /* \"#utility.yul\":19301:19305   */\n      0x20\n        /* \"#utility.yul\":19298:19299   */\n      0x00\n        /* \"#utility.yul\":19288:19306   */\n      keccak256\n        /* \"#utility.yul\":19280:19306   */\n      swap1\n      pop\n        /* \"#utility.yul\":19172:19313   */\n      swap2\n      swap1\n      pop\n      jump\t// out\n        /* \"#utility.yul\":19319:19412   */\n    tag_170:\n        /* \"#utility.yul\":19356:19362   */\n      0x00\n        /* \"#utility.yul\":19403:19405   */\n      0x20\n        /* \"#utility.yul\":19398:19400   */\n      0x1f\n        /* \"#utility.yul\":19391:19396   */\n      dup4\n        /* \"#utility.yul\":19387:19401   */\n      add\n        /* \"#utility.yul\":19383:19406   */\n      div\n        /* \"#utility.yul\":19373:19406   */\n      swap1\n      pop\n        /* \"#utility.yul\":19319:19412   */\n      swap2\n      swap1\n      pop\n      jump\t// out\n        /* \"#utility.yul\":19418:19525   */\n    tag_171:\n        /* \"#utility.yul\":19462:19470   */\n      0x00\n        /* \"#utility.yul\":19512:19517   */\n      dup3\n        /* \"#utility.yul\":19506:19510   */\n      dup3\n        /* \"#utility.yul\":19502:19518   */\n      shl\n        /* \"#utility.yul\":19481:19518   */\n      swap1\n      pop\n        /* \"#utility.yul\":19418:19525   */\n      swap3\n      swap2\n      pop\n      pop\n      jump\t// out\n        /* \"#utility.yul\":19531:19924   */\n    tag_172:\n        /* \"#utility.yul\":19600:19606   */\n      0x00\n        /* \"#utility.yul\":19650:19651   */\n      0x08\n        /* \"#utility.yul\":19638:19648   */\n      dup4\n        /* \"#utility.yul\":19634:19652   */\n      mul\n        /* \"#utility.yul\":19673:19770   */\n      tag_366\n        /* \"#utility.yul\":19703:19769   */\n      0xffffffffffffffffffffffffffffffffffffffffffffffffffffffffffffffff\n        /* \"#utility.yul\":19692:19701   */\n      dup3\n        /* \"#utility.yul\":19673:19770   */\n      tag_171\n      jump\t// in\n    tag_366:\n        /* \"#utility.yul\":19791:19830   */\n      tag_367\n        /* \"#utility.yul\":19821:19829   */\n      dup7\n        /* \"#utility.yul\":19810:19819   */\n      dup4\n        /* \"#utility.yul\":19791:19830   */\n      tag_171\n      jump\t// in\n    tag_367:\n        /* \"#utility.yul\":19779:19830   */\n      swap6\n      pop\n        /* \"#utility.yul\":19863:19867   */\n      dup1\n        /* \"#utility.yul\":19859:19868   */\n      not\n        /* \"#utility.yul\":19852:19857   */\n      dup5\n        /* \"#utility.yul\":19848:19869   */\n      and\n        /* \"#utility.yul\":19839:19869   */\n      swap4\n      pop\n        /* \"#utility.yul\":19912:19916   */\n      dup1\n        /* \"#utility.yul\":19902:19910   */\n      dup7\n        /* \"#utility.yul\":19898:19917   */\n      and\n        /* \"#utility.yul\":19891:19896   */\n      dup5\n        /* \"#utility.yul\":19888:19918   */\n      or\n        /* \"#utility.yul\":19878:19918   */\n      swap3\n      pop\n        /* \"#utility.yul\":19607:19924   */\n      pop\n      pop\n        /* \"#utility.yul\":19531:19924   */\n      swap4\n      swap3\n      pop\n      pop\n      pop\n      jump\t// out\n        /* \"#utility.yul\":19930:19990   */\n    tag_173:\n        /* \"#utility.yul\":19958:19961   */\n      0x00\n        /* \"#utility.yul\":19979:19984   */\n      dup2\n        /* \"#utility.yul\":19972:19984   */\n      swap1\n      pop\n        /* \"#utility.yul\":19930:19990   */\n      swap2\n      swap1\n      pop\n      jump\t// out\n        /* \"#utility.yul\":19996:20138   */\n    tag_174:\n        /* \"#utility.yul\":20046:20055   */\n      0x00\n        /* \"#utility.yul\":20079:20132   */\n      tag_370\n        /* \"#utility.yul\":20097:20131   */\n      tag_371\n        /* \"#utility.yul\":20106:20130   */\n      tag_372\n        /* \"#utility.yul\":20124:20129   */\n      dup5\n        /* \"#utility.yul\":20106:20130   */\n      tag_127\n      jump\t// in\n    tag_372:\n        /* \"#utility.yul\":20097:20131   */\n      tag_173\n      jump\t// in\n    tag_371:\n        /* \"#utility.yul\":20079:20132   */\n      tag_127\n      jump\t// in\n    tag_370:\n        /* \"#utility.yul\":20066:20132   */\n      swap1\n      pop\n        /* \"#utility.yul\":19996:20138   */\n      swap2\n      swap1\n      pop\n      jump\t// out\n        /* \"#utility.yul\":20144:20219   */\n    tag_175:\n        /* \"#utility.yul\":20187:20190   */\n      0x00\n        /* \"#utility.yul\":20208:20213   */\n      dup2\n        /* \"#utility.yul\":20201:20213   */\n      swap1\n      pop\n        /* \"#utility.yul\":20144:20219   */\n      swap2\n      swap1\n      pop\n      jump\t// out\n        /* \"#utility.yul\":20225:20494   */\n    tag_176:\n        /* \"#utility.yul\":20335:20374   */\n      tag_375\n        /* \"#utility.yul\":20366:20373   */\n      dup4\n        /* \"#utility.yul\":20335:20374   */\n      tag_174\n      jump\t// in\n    tag_375:\n        /* \"#utility.yul\":20396:20487   */\n      tag_376\n        /* \"#utility.yul\":20445:20486   */\n      tag_377\n        /* \"#utility.yul\":20469:20485   */\n      dup3\n        /* \"#utility.yul\":20445:20486   */\n      tag_175\n      jump\t// in\n    tag_377:\n        /* \"#utility.yul\":20437:20443   */\n      dup5\n        /* \"#utility.yul\":20430:20434   */\n      dup5\n        /* \"#utility.yul\":20424:20435   */\n      sload\n        /* \"#utility.yul\":20396:20487   */\n      tag_172\n      jump\t// in\n    tag_376:\n        /* \"#utility.yul\":20390:20394   */\n      dup3\n        /* \"#utility.yul\":20383:20488   */\n      sstore\n        /* \"#utility.yul\":20301:20494   */\n      pop\n        /* \"#utility.yul\":20225:20494   */\n      pop\n      pop\n      pop\n      jump\t// out\n        /* \"#utility.yul\":20500:20573   */\n    tag_177:\n        /* \"#utility.yul\":20545:20548   */\n      0x00\n        /* \"#utility.yul\":20500:20573   */\n      swap1\n      jump\t// out\n        /* \"#utility.yul\":20579:20768   */\n    tag_178:\n        /* \"#utility.yul\":20656:20688   */\n      tag_380\n      tag_177\n      jump\t// in\n    tag_380:\n        /* \"#utility.yul\":20697:20762   */\n      tag_381\n        /* \"#utility.yul\":20755:20761   */\n      dup2\n        /* \"#utility.yul\":20747:20753   */\n      dup5\n        /* \"#utility.yul\":20741:20745   */\n      dup5\n        /* \"#utility.yul\":20697:20762   */\n      tag_176\n      jump\t// in\n    tag_381:\n        /* \"#utility.yul\":20632:20768   */\n      pop\n        /* \"#utility.yul\":20579:20768   */\n      pop\n      pop\n      jump\t// out\n        /* \"#utility.yul\":20774:20960   */\n    tag_179:\n        /* \"#utility.yul\":20834:20954   */\n    tag_383:\n        /* \"#utility.yul\":20851:20854   */\n      dup2\n        /* \"#utility.yul\":20844:20849   */\n      dup2\n        /* \"#utility.yul\":20841:20855   */\n      lt\n        /* \"#utility.yul\":20834:20954   */\n      iszero\n      tag_385\n      jumpi\n        /* \"#utility.yul\":20905:20944   */\n      tag_386\n        /* \"#utility.yul\":20942:20943   */\n      0x00\n        /* \"#utility.yul\":20935:20940   */\n      dup3\n        /* \"#utility.yul\":20905:20944   */\n      tag_178\n      jump\t// in\n    tag_386:\n        /* \"#utility.yul\":20878:20879   */\n      0x01\n        /* \"#utility.yul\":20871:20876   */\n      dup2\n        /* \"#utility.yul\":20867:20880   */\n      add\n        /* \"#utility.yul\":20858:20880   */\n      swap1\n      pop\n        /* \"#utility.yul\":20834:20954   */\n      jump(tag_383)\n    tag_385:\n        /* \"#utility.yul\":20774:20960   */\n      pop\n      pop\n      jump\t// out\n        /* \"#utility.yul\":20966:21509   */\n    tag_180:\n        /* \"#utility.yul\":21067:21069   */\n      0x1f\n        /* \"#utility.yul\":21062:21065   */\n      dup3\n        /* \"#utility.yul\":21059:21070   */\n      gt\n        /* \"#utility.yul\":21056:21502   */\n      iszero\n      tag_388\n      jumpi\n        /* \"#utility.yul\":21101:21139   */\n      tag_389\n        /* \"#utility.yul\":21133:21138   */\n      dup2\n        /* \"#utility.yul\":21101:21139   */\n      tag_169\n      jump\t// in\n    tag_389:\n        /* \"#utility.yul\":21185:21214   */\n      tag_390\n        /* \"#utility.yul\":21203:21213   */\n      dup5\n        /* \"#utility.yul\":21185:21214   */\n      tag_170\n      jump\t// in\n    tag_390:\n        /* \"#utility.yul\":21175:21183   */\n      dup2\n        /* \"#utility.yul\":21171:21215   */\n      add\n        /* \"#utility.yul\":21368:21370   */\n      0x20\n        /* \"#utility.yul\":21356:21366   */\n      dup6\n        /* \"#utility.yul\":21353:21371   */\n      lt\n        /* \"#utility.yul\":21350:21399   */\n      iszero\n      tag_391\n      jumpi\n        /* \"#utility.yul\":21389:21397   */\n      dup2\n        /* \"#utility.yul\":21374:21397   */\n      swap1\n      pop\n        /* \"#utility.yul\":21350:21399   */\n    tag_391:\n        /* \"#utility.yul\":21412:21492   */\n      tag_392\n        /* \"#utility.yul\":21468:21490   */\n      tag_393\n        /* \"#utility.yul\":21486:21489   */\n      dup6\n        /* \"#utility.yul\":21468:21490   */\n      tag_170\n      jump\t// in\n    tag_393:\n        /* \"#utility.yul\":21458:21466   */\n      dup4\n        /* \"#utility.yul\":21454:21491   */\n      add\n        /* \"#utility.yul\":21441:21452   */\n      dup3\n        /* \"#utility.yul\":21412:21492   */\n      tag_179\n      jump\t// in\n    tag_392:\n        /* \"#utility.yul\":21071:21502   */\n      pop\n      pop\n        /* \"#utility.yul\":21056:21502   */\n    tag_388:\n        /* \"#utility.yul\":20966:21509   */\n      pop\n      pop\n      pop\n      jump\t// out\n        /* \"#utility.yul\":21515:21632   */\n    tag_181:\n        /* \"#utility.yul\":21569:21577   */\n      0x00\n        /* \"#utility.yul\":21619:21624   */\n      dup3\n        /* \"#utility.yul\":21613:21617   */\n      dup3\n        /* \"#utility.yul\":21609:21625   */\n      shr\n        /* \"#utility.yul\":21588:21625   */\n      swap1\n      pop\n        /* \"#utility.yul\":21515:21632   */\n      swap3\n      swap2\n      pop\n      pop\n      jump\t// out\n        /* \"#utility.yul\":21638:21807   */\n    tag_182:\n        /* \"#utility.yul\":21682:21688   */\n      0x00\n        /* \"#utility.yul\":21715:21766   */\n      tag_396\n        /* \"#utility.yul\":21763:21764   */\n      0x00\n        /* \"#utility.yul\":21759:21765   */\n      not\n        /* \"#utility.yul\":21751:21756   */\n      dup5\n        /* \"#utility.yul\":21748:21749   */\n      0x08\n        /* \"#utility.yul\":21744:21757   */\n      mul\n        /* \"#utility.yul\":21715:21766   */\n      tag_181\n      jump\t// in\n    tag_396:\n        /* \"#utility.yul\":21711:21767   */\n      not\n        /* \"#utility.yul\":21796:21800   */\n      dup1\n        /* \"#utility.yul\":21790:21794   */\n      dup4\n        /* \"#utility.yul\":21786:21801   */\n      and\n        /* \"#utility.yul\":21776:21801   */\n      swap2\n      pop\n        /* \"#utility.yul\":21689:21807   */\n      pop\n        /* \"#utility.yul\":21638:21807   */\n      swap3\n      swap2\n      pop\n      pop\n      jump\t// out\n        /* \"#utility.yul\":21812:22107   */\n    tag_183:\n        /* \"#utility.yul\":21888:21892   */\n      0x00\n        /* \"#utility.yul\":22034:22063   */\n      tag_398\n        /* \"#utility.yul\":22059:22062   */\n      dup4\n        /* \"#utility.yul\":22053:22057   */\n      dup4\n        /* \"#utility.yul\":22034:22063   */\n      tag_182\n      jump\t// in\n    tag_398:\n        /* \"#utility.yul\":22026:22063   */\n      swap2\n      pop\n        /* \"#utility.yul\":22096:22099   */\n      dup3\n        /* \"#utility.yul\":22093:22094   */\n      0x02\n        /* \"#utility.yul\":22089:22100   */\n      mul\n        /* \"#utility.yul\":22083:22087   */\n      dup3\n        /* \"#utility.yul\":22080:22101   */\n      or\n        /* \"#utility.yul\":22072:22101   */\n      swap1\n      pop\n        /* \"#utility.yul\":21812:22107   */\n      swap3\n      swap2\n      pop\n      pop\n      jump\t// out\n        /* \"#utility.yul\":22112:23507   */\n    tag_76:\n        /* \"#utility.yul\":22229:22266   */\n      tag_400\n        /* \"#utility.yul\":22262:22265   */\n      dup3\n        /* \"#utility.yul\":22229:22266   */\n      tag_130\n      jump\t// in\n    tag_400:\n        /* \"#utility.yul\":22331:22349   */\n      0xffffffffffffffff\n        /* \"#utility.yul\":22323:22329   */\n      dup2\n        /* \"#utility.yul\":22320:22350   */\n      gt\n        /* \"#utility.yul\":22317:22373   */\n      iszero\n      tag_401\n      jumpi\n        /* \"#utility.yul\":22353:22371   */\n      tag_402\n      tag_147\n      jump\t// in\n    tag_402:\n        /* \"#utility.yul\":22317:22373   */\n    tag_401:\n        /* \"#utility.yul\":22397:22435   */\n      tag_403\n        /* \"#utility.yul\":22429:22433   */\n      dup3\n        /* \"#utility.yul\":22423:22434   */\n      sload\n        /* \"#utility.yul\":22397:22435   */\n      tag_46\n      jump\t// in\n    tag_403:\n        /* \"#utility.yul\":22482:22549   */\n      tag_404\n        /* \"#utility.yul\":22542:22548   */\n      dup3\n        /* \"#utility.yul\":22534:22540   */\n      dup3\n        /* \"#utility.yul\":22528:22532   */\n      dup6\n        /* \"#utility.yul\":22482:22549   */\n      tag_180\n      jump\t// in\n    tag_404:\n        /* \"#utility.yul\":22576:22577   */\n      0x00\n        /* \"#utility.yul\":22600:22604   */\n      0x20\n        /* \"#utility.yul\":22587:22604   */\n      swap1\n      pop\n        /* \"#utility.yul\":22632:22634   */\n      0x1f\n        /* \"#utility.yul\":22624:22630   */\n      dup4\n        /* \"#utility.yul\":22621:22635   */\n      gt\n        /* \"#utility.yul\":22649:22650   */\n      0x01\n        /* \"#utility.yul\":22644:23262   */\n      dup2\n      eq\n      tag_406\n      jumpi\n        /* \"#utility.yul\":23306:23307   */\n      0x00\n        /* \"#utility.yul\":23323:23329   */\n      dup5\n        /* \"#utility.yul\":23320:23397   */\n      iszero\n      tag_407\n      jumpi\n        /* \"#utility.yul\":23372:23381   */\n      dup3\n        /* \"#utility.yul\":23367:23370   */\n      dup8\n        /* \"#utility.yul\":23363:23382   */\n      add\n        /* \"#utility.yul\":23357:23383   */\n      mload\n        /* \"#utility.yul\":23348:23383   */\n      swap1\n      pop\n        /* \"#utility.yul\":23320:23397   */\n    tag_407:\n        /* \"#utility.yul\":23423:23490   */\n      tag_408\n        /* \"#utility.yul\":23483:23489   */\n      dup6\n        /* \"#utility.yul\":23476:23481   */\n      dup3\n        /* \"#utility.yul\":23423:23490   */\n      tag_183\n      jump\t// in\n    tag_408:\n        /* \"#utility.yul\":23417:23421   */\n      dup7\n        /* \"#utility.yul\":23410:23491   */\n      sstore\n        /* \"#utility.yul\":23279:23501   */\n      pop\n        /* \"#utility.yul\":22614:23501   */\n      jump(tag_405)\n        /* \"#utility.yul\":22644:23262   */\n    tag_406:\n        /* \"#utility.yul\":22696:22700   */\n      0x1f\n        /* \"#utility.yul\":22692:22701   */\n      not\n        /* \"#utility.yul\":22684:22690   */\n      dup5\n        /* \"#utility.yul\":22680:22702   */\n      and\n        /* \"#utility.yul\":22730:22767   */\n      tag_409\n        /* \"#utility.yul\":22762:22766   */\n      dup7\n        /* \"#utility.yul\":22730:22767   */\n      tag_169\n      jump\t// in\n    tag_409:\n        /* \"#utility.yul\":22789:22790   */\n      0x00\n        /* \"#utility.yul\":22803:23011   */\n    tag_410:\n        /* \"#utility.yul\":22817:22824   */\n      dup3\n        /* \"#utility.yul\":22814:22815   */\n      dup2\n        /* \"#utility.yul\":22811:22825   */\n      lt\n        /* \"#utility.yul\":22803:23011   */\n      iszero\n      tag_412\n      jumpi\n        /* \"#utility.yul\":22896:22905   */\n      dup5\n        /* \"#utility.yul\":22891:22894   */\n      dup10\n        /* \"#utility.yul\":22887:22906   */\n      add\n        /* \"#utility.yul\":22881:22907   */\n      mload\n        /* \"#utility.yul\":22873:22879   */\n      dup3\n        /* \"#utility.yul\":22866:22908   */\n      sstore\n        /* \"#utility.yul\":22947:22948   */\n      0x01\n        /* \"#utility.yul\":22939:22945   */\n      dup3\n        /* \"#utility.yul\":22935:22949   */\n      add\n        /* \"#utility.yul\":22925:22949   */\n      swap2\n      pop\n        /* \"#utility.yul\":22994:22996   */\n      0x20\n        /* \"#utility.yul\":22983:22992   */\n      dup6\n        /* \"#utility.yul\":22979:22997   */\n      add\n        /* \"#utility.yul\":22966:22997   */\n      swap5\n      pop\n        /* \"#utility.yul\":22840:22844   */\n      0x20\n        /* \"#utility.yul\":22837:22838   */\n      dup2\n        /* \"#utility.yul\":22833:22845   */\n      add\n        /* \"#utility.yul\":22828:22845   */\n      swap1\n      pop\n        /* \"#utility.yul\":22803:23011   */\n      jump(tag_410)\n    tag_412:\n        /* \"#utility.yul\":23039:23045   */\n      dup7\n        /* \"#utility.yul\":23030:23037   */\n      dup4\n        /* \"#utility.yul\":23027:23046   */\n      lt\n        /* \"#utility.yul\":23024:23203   */\n      iszero\n      tag_413\n      jumpi\n        /* \"#utility.yul\":23097:23106   */\n      dup5\n        /* \"#utility.yul\":23092:23095   */\n      dup10\n        /* \"#utility.yul\":23088:23107   */\n      add\n        /* \"#utility.yul\":23082:23108   */\n      mload\n        /* \"#utility.yul\":23140:23188   */\n      tag_414\n        /* \"#utility.yul\":23182:23186   */\n      0x1f\n        /* \"#utility.yul\":23174:23180   */\n      dup10\n        /* \"#utility.yul\":23170:23187   */\n      and\n        /* \"#utility.yul\":23159:23168   */\n      dup3\n        /* \"#utility.yul\":23140:23188   */\n      tag_182\n      jump\t// in\n    tag_414:\n        /* \"#utility.yul\":23132:23138   */\n      dup4\n        /* \"#utility.yul\":23125:23189   */\n      sstore\n        /* \"#utility.yul\":23047:23203   */\n      pop\n        /* \"#utility.yul\":23024:23203   */\n    tag_413:\n        /* \"#utility.yul\":23249:23250   */\n      0x01\n        /* \"#utility.yul\":23245:23246   */\n      0x02\n        /* \"#utility.yul\":23237:23243   */\n      dup9\n        /* \"#utility.yul\":23233:23247   */\n      mul\n        /* \"#utility.yul\":23229:23251   */\n      add\n        /* \"#utility.yul\":23223:23227   */\n      dup9\n        /* \"#utility.yul\":23216:23252   */\n      sstore\n        /* \"#utility.yul\":22651:23262   */\n      pop\n      pop\n      pop\n        /* \"#utility.yul\":22614:23501   */\n    tag_405:\n      pop\n        /* \"#utility.yul\":22204:23507   */\n      pop\n      pop\n      pop\n        /* \"#utility.yul\":22112:23507   */\n      pop\n      pop\n      jump\t// out\n\n    auxdata: 0xa2646970667358221220738943e32ce90b2d3127263e313c9ebc3606cee0616cdf577ef7a3f5b7f505f964736f6c63430008120033\n}\n",
				"bytecode": {
					"linkReferences": {},
					"object": "608060405234801561001057600080fd5b5061144a806100206000396000f3fe608060405234801561001057600080fd5b50600436106100625760003560e01c80636b8ff5741461006757806375c2f8f01461009757806383645765146100c7578063d0296612146100e3578063ebb76d6814610113578063ebe1d0da1461012f575b600080fd5b610081600480360381019061007c919061088a565b61014b565b60405161008e9190610947565b60405180910390f35b6100b160048036038101906100ac919061088a565b61020e565b6040516100be9190610adb565b60405180910390f35b6100e160048036038101906100dc9190610d18565b6103cb565b005b6100fd60048036038101906100f89190610dd3565b610472565b60405161010a9190610f35565b60405180910390f35b61012d60048036038101906101289190610f57565b610664565b005b61014960048036038101906101449190610fe2565b6106ee565b005b6060600060018361015c9190611080565b8154811061016d5761016c6110b4565b5b9060005260206000209060030201600001805461018990611112565b80601f01602080910402602001604051908101604052809291908181526020018280546101b590611112565b80156102025780601f106101d757610100808354040283529160200191610202565b820191906000526020600020905b8154815290600101906020018083116101e557829003601f168201915b50505050509050919050565b610216610745565b60006001836102259190611080565b81548110610236576102356110b4565b5b906000526020600020906003020160405180606001604052908160008201805461025f90611112565b80601f016020809104026020016040519081016040528092919081815260200182805461028b90611112565b80156102d85780601f106102ad576101008083540402835291602001916102d8565b820191906000526020600020905b8154815290600101906020018083116102bb57829003601f168201915b505050505081526020016001820154815260200160028201805480602002602001604051908101604052809291908181526020016000905b828210156103bc57838290600052602060002001805461032f90611112565b80601f016020809104026020016040519081016040528092919081815260200182805461035b90611112565b80156103a85780601f1061037d576101008083540402835291602001916103a8565b820191906000526020600020905b81548152906001019060200180831161038b57829003601f168201915b505050505081526020019060010190610310565b50505050815250509050919050565b6001846040516103db919061117f565b9081526020016040518091039020604051806060016040528085815260200184815260200183815250908060018154018082558091505060019003906000526020600020906003020160009091909190915060008201518160000190816104429190611342565b50602082015181600101556040820151816002019080519060200190610469929190610766565b50505050505050565b6060600182604051610484919061117f565b9081526020016040518091039020805480602002602001604051908101604052809291908181526020016000905b8282101561065957838290600052602060002090600302016040518060600160405290816000820180546104e590611112565b80601f016020809104026020016040519081016040528092919081815260200182805461051190611112565b801561055e5780601f106105335761010080835404028352916020019161055e565b820191906000526020600020905b81548152906001019060200180831161054157829003601f168201915b505050505081526020016001820154815260200160028201805480602002602001604051908101604052809291908181526020016000905b828210156106425783829060005260206000200180546105b590611112565b80601f01602080910402602001604051908101604052809291908181526020018280546105e190611112565b801561062e5780601f106106035761010080835404028352916020019161062e565b820191906000526020600020905b81548152906001019060200180831161061157829003601f168201915b505050505081526020019060010190610596565b5050505081525050815260200190600101906104b2565b505050509050919050565b6000604051806060016040528085815260200184815260200183815250908060018154018082558091505060019003906000526020600020906003020160009091909190915060008201518160000190816106bf9190611342565b506020820151816001015560408201518160020190805190602001906106e6929190610766565b505050505050565b806001846040516106ff919061117f565b908152602001604051809103902060018461071a9190611080565b8154811061072b5761072a6110b4565b5b906000526020600020906003020160010181905550505050565b60405180606001604052806060815260200160008152602001606081525090565b8280548282559060005260206000209081019282156107ae579160200282015b828111156107ad57825182908161079d9190611342565b5091602001919060010190610786565b5b5090506107bb91906107bf565b5090565b5b808211156107df57600081816107d691906107e3565b506001016107c0565b5090565b5080546107ef90611112565b6000825580601f106108015750610820565b601f01602090049060005260206000209081019061081f9190610823565b5b50565b5b8082111561083c576000816000905550600101610824565b5090565b6000604051905090565b600080fd5b600080fd5b6000819050919050565b61086781610854565b811461087257600080fd5b50565b6000813590506108848161085e565b92915050565b6000602082840312156108a05761089f61084a565b5b60006108ae84828501610875565b91505092915050565b600081519050919050565b600082825260208201905092915050565b60005b838110156108f15780820151818401526020810190506108d6565b60008484015250505050565b6000601f19601f8301169050919050565b6000610919826108b7565b61092381856108c2565b93506109338185602086016108d3565b61093c816108fd565b840191505092915050565b60006020820190508181036000830152610961818461090e565b905092915050565b600082825260208201905092915050565b6000610985826108b7565b61098f8185610969565b935061099f8185602086016108d3565b6109a8816108fd565b840191505092915050565b6109bc81610854565b82525050565b600081519050919050565b600082825260208201905092915050565b6000819050602082019050919050565b60006109fa838361097a565b905092915050565b6000602082019050919050565b6000610a1a826109c2565b610a2481856109cd565b935083602082028501610a36856109de565b8060005b85811015610a725784840389528151610a5385826109ee565b9450610a5e83610a02565b925060208a01995050600181019050610a3a565b50829750879550505050505092915050565b60006060830160008301518482036000860152610aa1828261097a565b9150506020830151610ab660208601826109b3565b5060408301518482036040860152610ace8282610a0f565b9150508091505092915050565b60006020820190508181036000830152610af58184610a84565b905092915050565b600080fd5b600080fd5b7f4e487b7100000000000000000000000000000000000000000000000000000000600052604160045260246000fd5b610b3f826108fd565b810181811067ffffffffffffffff82111715610b5e57610b5d610b07565b5b80604052505050565b6000610b71610840565b9050610b7d8282610b36565b919050565b600067ffffffffffffffff821115610b9d57610b9c610b07565b5b610ba6826108fd565b9050602081019050919050565b82818337600083830152505050565b6000610bd5610bd084610b82565b610b67565b905082815260208101848484011115610bf157610bf0610b02565b5b610bfc848285610bb3565b509392505050565b600082601f830112610c1957610c18610afd565b5b8135610c29848260208601610bc2565b91505092915050565b600067ffffffffffffffff821115610c4d57610c4c610b07565b5b602082029050602081019050919050565b600080fd5b6000610c76610c7184610c32565b610b67565b90508083825260208201905060208402830185811115610c9957610c98610c5e565b5b835b81811015610ce057803567ffffffffffffffff811115610cbe57610cbd610afd565b5b808601610ccb8982610c04565b85526020850194505050602081019050610c9b565b5050509392505050565b600082601f830112610cff57610cfe610afd565b5b8135610d0f848260208601610c63565b91505092915050565b60008060008060808587031215610d3257610d3161084a565b5b600085013567ffffffffffffffff811115610d5057610d4f61084f565b5b610d5c87828801610c04565b945050602085013567ffffffffffffffff811115610d7d57610d7c61084f565b5b610d8987828801610c04565b9350506040610d9a87828801610875565b925050606085013567ffffffffffffffff811115610dbb57610dba61084f565b5b610dc787828801610cea565b91505092959194509250565b600060208284031215610de957610de861084a565b5b600082013567ffffffffffffffff811115610e0757610e0661084f565b5b610e1384828501610c04565b91505092915050565b600081519050919050565b600082825260208201905092915050565b6000819050602082019050919050565b60006060830160008301518482036000860152610e65828261097a565b9150506020830151610e7a60208601826109b3565b5060408301518482036040860152610e928282610a0f565b9150508091505092915050565b6000610eab8383610e48565b905092915050565b6000602082019050919050565b6000610ecb82610e1c565b610ed58185610e27565b935083602082028501610ee785610e38565b8060005b85811015610f235784840389528151610f048582610e9f565b9450610f0f83610eb3565b925060208a01995050600181019050610eeb565b50829750879550505050505092915050565b60006020820190508181036000830152610f4f8184610ec0565b905092915050565b600080600060608486031215610f7057610f6f61084a565b5b600084013567ffffffffffffffff811115610f8e57610f8d61084f565b5b610f9a86828701610c04565b9350506020610fab86828701610875565b925050604084013567ffffffffffffffff811115610fcc57610fcb61084f565b5b610fd886828701610cea565b9150509250925092565b600080600060608486031215610ffb57610ffa61084a565b5b600084013567ffffffffffffffff8111156110195761101861084f565b5b61102586828701610c04565b935050602061103686828701610875565b925050604061104786828701610875565b9150509250925092565b7f4e487b7100000000000000000000000000000000000000000000000000000000600052601160045260246000fd5b600061108b82610854565b915061109683610854565b92508282039050818111156110ae576110ad611051565b5b92915050565b7f4e487b7100000000000000000000000000000000000000000000000000000000600052603260045260246000fd5b7f4e487b7100000000000000000000000000000000000000000000000000000000600052602260045260246000fd5b6000600282049050600182168061112a57607f821691505b60208210810361113d5761113c6110e3565b5b50919050565b600081905092915050565b6000611159826108b7565b6111638185611143565b93506111738185602086016108d3565b80840191505092915050565b600061118b828461114e565b915081905092915050565b60008190508160005260206000209050919050565b60006020601f8301049050919050565b600082821b905092915050565b6000600883026111f87fffffffffffffffffffffffffffffffffffffffffffffffffffffffffffffffff826111bb565b61120286836111bb565b95508019841693508086168417925050509392505050565b6000819050919050565b600061123f61123a61123584610854565b61121a565b610854565b9050919050565b6000819050919050565b61125983611224565b61126d61126582611246565b8484546111c8565b825550505050565b600090565b611282611275565b61128d818484611250565b505050565b5b818110156112b1576112a660008261127a565b600181019050611293565b5050565b601f8211156112f6576112c781611196565b6112d0846111ab565b810160208510156112df578190505b6112f36112eb856111ab565b830182611292565b50505b505050565b600082821c905092915050565b6000611319600019846008026112fb565b1980831691505092915050565b60006113328383611308565b9150826002028217905092915050565b61134b826108b7565b67ffffffffffffffff81111561136457611363610b07565b5b61136e8254611112565b6113798282856112b5565b600060209050601f8311600181146113ac576000841561139a578287015190505b6113a48582611326565b86555061140c565b601f1984166113ba86611196565b60005b828110156113e2578489015182556001820191506020850194506020810190506113bd565b868310156113ff57848901516113fb601f891682611308565b8355505b6001600288020188555050505b50505050505056fea2646970667358221220738943e32ce90b2d3127263e313c9ebc3606cee0616cdf577ef7a3f5b7f505f964736f6c63430008120033",
					"opcodes": "PUSH1 0x80 PUSH1 0x40 MSTORE CALLVALUE DUP1 ISZERO PUSH2 0x10 JUMPI PUSH1 0x0 DUP1 REVERT JUMPDEST POP PUSH2 0x144A DUP1 PUSH2 0x20 PUSH1 0x0 CODECOPY PUSH1 0x0 RETURN INVALID PUSH1 0x80 PUSH1 0x40 MSTORE CALLVALUE DUP1 ISZERO PUSH2 0x10 JUMPI PUSH1 0x0 DUP1 REVERT JUMPDEST POP PUSH1 0x4 CALLDATASIZE LT PUSH2 0x62 JUMPI PUSH1 0x0 CALLDATALOAD PUSH1 0xE0 SHR DUP1 PUSH4 0x6B8FF574 EQ PUSH2 0x67 JUMPI DUP1 PUSH4 0x75C2F8F0 EQ PUSH2 0x97 JUMPI DUP1 PUSH4 0x83645765 EQ PUSH2 0xC7 JUMPI DUP1 PUSH4 0xD0296612 EQ PUSH2 0xE3 JUMPI DUP1 PUSH4 0xEBB76D68 EQ PUSH2 0x113 JUMPI DUP1 PUSH4 0xEBE1D0DA EQ PUSH2 0x12F JUMPI JUMPDEST PUSH1 0x0 DUP1 REVERT JUMPDEST PUSH2 0x81 PUSH1 0x4 DUP1 CALLDATASIZE SUB DUP2 ADD SWAP1 PUSH2 0x7C SWAP2 SWAP1 PUSH2 0x88A JUMP JUMPDEST PUSH2 0x14B JUMP JUMPDEST PUSH1 0x40 MLOAD PUSH2 0x8E SWAP2 SWAP1 PUSH2 0x947 JUMP JUMPDEST PUSH1 0x40 MLOAD DUP1 SWAP2 SUB SWAP1 RETURN JUMPDEST PUSH2 0xB1 PUSH1 0x4 DUP1 CALLDATASIZE SUB DUP2 ADD SWAP1 PUSH2 0xAC SWAP2 SWAP1 PUSH2 0x88A JUMP JUMPDEST PUSH2 0x20E JUMP JUMPDEST PUSH1 0x40 MLOAD PUSH2 0xBE SWAP2 SWAP1 PUSH2 0xADB JUMP JUMPDEST PUSH1 0x40 MLOAD DUP1 SWAP2 SUB SWAP1 RETURN JUMPDEST PUSH2 0xE1 PUSH1 0x4 DUP1 CALLDATASIZE SUB DUP2 ADD SWAP1 PUSH2 0xDC SWAP2 SWAP1 PUSH2 0xD18 JUMP JUMPDEST PUSH2 0x3CB JUMP JUMPDEST STOP JUMPDEST PUSH2 0xFD PUSH1 0x4 DUP1 CALLDATASIZE SUB DUP2 ADD SWAP1 PUSH2 0xF8 SWAP2 SWAP1 PUSH2 0xDD3 JUMP JUMPDEST PUSH2 0x472 JUMP JUMPDEST PUSH1 0x40 MLOAD PUSH2 0x10A SWAP2 SWAP1 PUSH2 0xF35 JUMP JUMPDEST PUSH1 0x40 MLOAD DUP1 SWAP2 SUB SWAP1 RETURN JUMPDEST PUSH2 0x12D PUSH1 0x4 DUP1 CALLDATASIZE SUB DUP2 ADD SWAP1 PUSH2 0x128 SWAP2 SWAP1 PUSH2 0xF57 JUMP JUMPDEST PUSH2 0x664 JUMP JUMPDEST STOP JUMPDEST PUSH2 0x149 PUSH1 0x4 DUP1 CALLDATASIZE SUB DUP2 ADD SWAP1 PUSH2 0x144 SWAP2 SWAP1 PUSH2 0xFE2 JUMP JUMPDEST PUSH2 0x6EE JUMP JUMPDEST STOP JUMPDEST PUSH1 0x60 PUSH1 0x0 PUSH1 0x1 DUP4 PUSH2 0x15C SWAP2 SWAP1 PUSH2 0x1080 JUMP JUMPDEST DUP2 SLOAD DUP2 LT PUSH2 0x16D JUMPI PUSH2 0x16C PUSH2 0x10B4 JUMP JUMPDEST JUMPDEST SWAP1 PUSH1 0x0 MSTORE PUSH1 0x20 PUSH1 0x0 KECCAK256 SWAP1 PUSH1 0x3 MUL ADD PUSH1 0x0 ADD DUP1 SLOAD PUSH2 0x189 SWAP1 PUSH2 0x1112 JUMP JUMPDEST DUP1 PUSH1 0x1F ADD PUSH1 0x20 DUP1 SWAP2 DIV MUL PUSH1 0x20 ADD PUSH1 0x40 MLOAD SWAP1 DUP2 ADD PUSH1 0x40 MSTORE DUP1 SWAP3 SWAP2 SWAP1 DUP2 DUP2 MSTORE PUSH1 0x20 ADD DUP3 DUP1 SLOAD PUSH2 0x1B5 SWAP1 PUSH2 0x1112 JUMP JUMPDEST DUP1 ISZERO PUSH2 0x202 JUMPI DUP1 PUSH1 0x1F LT PUSH2 0x1D7 JUMPI PUSH2 0x100 DUP1 DUP4 SLOAD DIV MUL DUP4 MSTORE SWAP2 PUSH1 0x20 ADD SWAP2 PUSH2 0x202 JUMP JUMPDEST DUP3 ADD SWAP2 SWAP1 PUSH1 0x0 MSTORE PUSH1 0x20 PUSH1 0x0 KECCAK256 SWAP1 JUMPDEST DUP2 SLOAD DUP2 MSTORE SWAP1 PUSH1 0x1 ADD SWAP1 PUSH1 0x20 ADD DUP1 DUP4 GT PUSH2 0x1E5 JUMPI DUP3 SWAP1 SUB PUSH1 0x1F AND DUP3 ADD SWAP2 JUMPDEST POP POP POP POP POP SWAP1 POP SWAP2 SWAP1 POP JUMP JUMPDEST PUSH2 0x216 PUSH2 0x745 JUMP JUMPDEST PUSH1 0x0 PUSH1 0x1 DUP4 PUSH2 0x225 SWAP2 SWAP1 PUSH2 0x1080 JUMP JUMPDEST DUP2 SLOAD DUP2 LT PUSH2 0x236 JUMPI PUSH2 0x235 PUSH2 0x10B4 JUMP JUMPDEST JUMPDEST SWAP1 PUSH1 0x0 MSTORE PUSH1 0x20 PUSH1 0x0 KECCAK256 SWAP1 PUSH1 0x3 MUL ADD PUSH1 0x40 MLOAD DUP1 PUSH1 0x60 ADD PUSH1 0x40 MSTORE SWAP1 DUP2 PUSH1 0x0 DUP3 ADD DUP1 SLOAD PUSH2 0x25F SWAP1 PUSH2 0x1112 JUMP JUMPDEST DUP1 PUSH1 0x1F ADD PUSH1 0x20 DUP1 SWAP2 DIV MUL PUSH1 0x20 ADD PUSH1 0x40 MLOAD SWAP1 DUP2 ADD PUSH1 0x40 MSTORE DUP1 SWAP3 SWAP2 SWAP1 DUP2 DUP2 MSTORE PUSH1 0x20 ADD DUP3 DUP1 SLOAD PUSH2 0x28B SWAP1 PUSH2 0x1112 JUMP JUMPDEST DUP1 ISZERO PUSH2 0x2D8 JUMPI DUP1 PUSH1 0x1F LT PUSH2 0x2AD JUMPI PUSH2 0x100 DUP1 DUP4 SLOAD DIV MUL DUP4 MSTORE SWAP2 PUSH1 0x20 ADD SWAP2 PUSH2 0x2D8 JUMP JUMPDEST DUP3 ADD SWAP2 SWAP1 PUSH1 0x0 MSTORE PUSH1 0x20 PUSH1 0x0 KECCAK256 SWAP1 JUMPDEST DUP2 SLOAD DUP2 MSTORE SWAP1 PUSH1 0x1 ADD SWAP1 PUSH1 0x20 ADD DUP1 DUP4 GT PUSH2 0x2BB JUMPI DUP3 SWAP1 SUB PUSH1 0x1F AND DUP3 ADD SWAP2 JUMPDEST POP POP POP POP POP DUP2 MSTORE PUSH1 0x20 ADD PUSH1 0x1 DUP3 ADD SLOAD DUP2 MSTORE PUSH1 0x20 ADD PUSH1 0x2 DUP3 ADD DUP1 SLOAD DUP1 PUSH1 0x20 MUL PUSH1 0x20 ADD PUSH1 0x40 MLOAD SWAP1 DUP2 ADD PUSH1 0x40 MSTORE DUP1 SWAP3 SWAP2 SWAP1 DUP2 DUP2 MSTORE PUSH1 0x20 ADD PUSH1 0x0 SWAP1 JUMPDEST DUP3 DUP3 LT ISZERO PUSH2 0x3BC JUMPI DUP4 DUP3 SWAP1 PUSH1 0x0 MSTORE PUSH1 0x20 PUSH1 0x0 KECCAK256 ADD DUP1 SLOAD PUSH2 0x32F SWAP1 PUSH2 0x1112 JUMP JUMPDEST DUP1 PUSH1 0x1F ADD PUSH1 0x20 DUP1 SWAP2 DIV MUL PUSH1 0x20 ADD PUSH1 0x40 MLOAD SWAP1 DUP2 ADD PUSH1 0x40 MSTORE DUP1 SWAP3 SWAP2 SWAP1 DUP2 DUP2 MSTORE PUSH1 0x20 ADD DUP3 DUP1 SLOAD PUSH2 0x35B SWAP1 PUSH2 0x1112 JUMP JUMPDEST DUP1 ISZERO PUSH2 0x3A8 JUMPI DUP1 PUSH1 0x1F LT PUSH2 0x37D JUMPI PUSH2 0x100 DUP1 DUP4 SLOAD DIV MUL DUP4 MSTORE SWAP2 PUSH1 0x20 ADD SWAP2 PUSH2 0x3A8 JUMP JUMPDEST DUP3 ADD SWAP2 SWAP1 PUSH1 0x0 MSTORE PUSH1 0x20 PUSH1 0x0 KECCAK256 SWAP1 JUMPDEST DUP2 SLOAD DUP2 MSTORE SWAP1 PUSH1 0x1 ADD SWAP1 PUSH1 0x20 ADD DUP1 DUP4 GT PUSH2 0x38B JUMPI DUP3 SWAP1 SUB PUSH1 0x1F AND DUP3 ADD SWAP2 JUMPDEST POP POP POP POP POP DUP2 MSTORE PUSH1 0x20 ADD SWAP1 PUSH1 0x1 ADD SWAP1 PUSH2 0x310 JUMP JUMPDEST POP POP POP POP DUP2 MSTORE POP POP SWAP1 POP SWAP2 SWAP1 POP JUMP JUMPDEST PUSH1 0x1 DUP5 PUSH1 0x40 MLOAD PUSH2 0x3DB SWAP2 SWAP1 PUSH2 0x117F JUMP JUMPDEST SWAP1 DUP2 MSTORE PUSH1 0x20 ADD PUSH1 0x40 MLOAD DUP1 SWAP2 SUB SWAP1 KECCAK256 PUSH1 0x40 MLOAD DUP1 PUSH1 0x60 ADD PUSH1 0x40 MSTORE DUP1 DUP6 DUP2 MSTORE PUSH1 0x20 ADD DUP5 DUP2 MSTORE PUSH1 0x20 ADD DUP4 DUP2 MSTORE POP SWAP1 DUP1 PUSH1 0x1 DUP2 SLOAD ADD DUP1 DUP3 SSTORE DUP1 SWAP2 POP POP PUSH1 0x1 SWAP1 SUB SWAP1 PUSH1 0x0 MSTORE PUSH1 0x20 PUSH1 0x0 KECCAK256 SWAP1 PUSH1 0x3 MUL ADD PUSH1 0x0 SWAP1 SWAP2 SWAP1 SWAP2 SWAP1 SWAP2 POP PUSH1 0x0 DUP3 ADD MLOAD DUP2 PUSH1 0x0 ADD SWAP1 DUP2 PUSH2 0x442 SWAP2 SWAP1 PUSH2 0x1342 JUMP JUMPDEST POP PUSH1 0x20 DUP3 ADD MLOAD DUP2 PUSH1 0x1 ADD SSTORE PUSH1 0x40 DUP3 ADD MLOAD DUP2 PUSH1 0x2 ADD SWAP1 DUP1 MLOAD SWAP1 PUSH1 0x20 ADD SWAP1 PUSH2 0x469 SWAP3 SWAP2 SWAP1 PUSH2 0x766 JUMP JUMPDEST POP POP POP POP POP POP POP JUMP JUMPDEST PUSH1 0x60 PUSH1 0x1 DUP3 PUSH1 0x40 MLOAD PUSH2 0x484 SWAP2 SWAP1 PUSH2 0x117F JUMP JUMPDEST SWAP1 DUP2 MSTORE PUSH1 0x20 ADD PUSH1 0x40 MLOAD DUP1 SWAP2 SUB SWAP1 KECCAK256 DUP1 SLOAD DUP1 PUSH1 0x20 MUL PUSH1 0x20 ADD PUSH1 0x40 MLOAD SWAP1 DUP2 ADD PUSH1 0x40 MSTORE DUP1 SWAP3 SWAP2 SWAP1 DUP2 DUP2 MSTORE PUSH1 0x20 ADD PUSH1 0x0 SWAP1 JUMPDEST DUP3 DUP3 LT ISZERO PUSH2 0x659 JUMPI DUP4 DUP3 SWAP1 PUSH1 0x0 MSTORE PUSH1 0x20 PUSH1 0x0 KECCAK256 SWAP1 PUSH1 0x3 MUL ADD PUSH1 0x40 MLOAD DUP1 PUSH1 0x60 ADD PUSH1 0x40 MSTORE SWAP1 DUP2 PUSH1 0x0 DUP3 ADD DUP1 SLOAD PUSH2 0x4E5 SWAP1 PUSH2 0x1112 JUMP JUMPDEST DUP1 PUSH1 0x1F ADD PUSH1 0x20 DUP1 SWAP2 DIV MUL PUSH1 0x20 ADD PUSH1 0x40 MLOAD SWAP1 DUP2 ADD PUSH1 0x40 MSTORE DUP1 SWAP3 SWAP2 SWAP1 DUP2 DUP2 MSTORE PUSH1 0x20 ADD DUP3 DUP1 SLOAD PUSH2 0x511 SWAP1 PUSH2 0x1112 JUMP JUMPDEST DUP1 ISZERO PUSH2 0x55E JUMPI DUP1 PUSH1 0x1F LT PUSH2 0x533 JUMPI PUSH2 0x100 DUP1 DUP4 SLOAD DIV MUL DUP4 MSTORE SWAP2 PUSH1 0x20 ADD SWAP2 PUSH2 0x55E JUMP JUMPDEST DUP3 ADD SWAP2 SWAP1 PUSH1 0x0 MSTORE PUSH1 0x20 PUSH1 0x0 KECCAK256 SWAP1 JUMPDEST DUP2 SLOAD DUP2 MSTORE SWAP1 PUSH1 0x1 ADD SWAP1 PUSH1 0x20 ADD DUP1 DUP4 GT PUSH2 0x541 JUMPI DUP3 SWAP1 SUB PUSH1 0x1F AND DUP3 ADD SWAP2 JUMPDEST POP POP POP POP POP DUP2 MSTORE PUSH1 0x20 ADD PUSH1 0x1 DUP3 ADD SLOAD DUP2 MSTORE PUSH1 0x20 ADD PUSH1 0x2 DUP3 ADD DUP1 SLOAD DUP1 PUSH1 0x20 MUL PUSH1 0x20 ADD PUSH1 0x40 MLOAD SWAP1 DUP2 ADD PUSH1 0x40 MSTORE DUP1 SWAP3 SWAP2 SWAP1 DUP2 DUP2 MSTORE PUSH1 0x20 ADD PUSH1 0x0 SWAP1 JUMPDEST DUP3 DUP3 LT ISZERO PUSH2 0x642 JUMPI DUP4 DUP3 SWAP1 PUSH1 0x0 MSTORE PUSH1 0x20 PUSH1 0x0 KECCAK256 ADD DUP1 SLOAD PUSH2 0x5B5 SWAP1 PUSH2 0x1112 JUMP JUMPDEST DUP1 PUSH1 0x1F ADD PUSH1 0x20 DUP1 SWAP2 DIV MUL PUSH1 0x20 ADD PUSH1 0x40 MLOAD SWAP1 DUP2 ADD PUSH1 0x40 MSTORE DUP1 SWAP3 SWAP2 SWAP1 DUP2 DUP2 MSTORE PUSH1 0x20 ADD DUP3 DUP1 SLOAD PUSH2 0x5E1 SWAP1 PUSH2 0x1112 JUMP JUMPDEST DUP1 ISZERO PUSH2 0x62E JUMPI DUP1 PUSH1 0x1F LT PUSH2 0x603 JUMPI PUSH2 0x100 DUP1 DUP4 SLOAD DIV MUL DUP4 MSTORE SWAP2 PUSH1 0x20 ADD SWAP2 PUSH2 0x62E JUMP JUMPDEST DUP3 ADD SWAP2 SWAP1 PUSH1 0x0 MSTORE PUSH1 0x20 PUSH1 0x0 KECCAK256 SWAP1 JUMPDEST DUP2 SLOAD DUP2 MSTORE SWAP1 PUSH1 0x1 ADD SWAP1 PUSH1 0x20 ADD DUP1 DUP4 GT PUSH2 0x611 JUMPI DUP3 SWAP1 SUB PUSH1 0x1F AND DUP3 ADD SWAP2 JUMPDEST POP POP POP POP POP DUP2 MSTORE PUSH1 0x20 ADD SWAP1 PUSH1 0x1 ADD SWAP1 PUSH2 0x596 JUMP JUMPDEST POP POP POP POP DUP2 MSTORE POP POP DUP2 MSTORE PUSH1 0x20 ADD SWAP1 PUSH1 0x1 ADD SWAP1 PUSH2 0x4B2 JUMP JUMPDEST POP POP POP POP SWAP1 POP SWAP2 SWAP1 POP JUMP JUMPDEST PUSH1 0x0 PUSH1 0x40 MLOAD DUP1 PUSH1 0x60 ADD PUSH1 0x40 MSTORE DUP1 DUP6 DUP2 MSTORE PUSH1 0x20 ADD DUP5 DUP2 MSTORE PUSH1 0x20 ADD DUP4 DUP2 MSTORE POP SWAP1 DUP1 PUSH1 0x1 DUP2 SLOAD ADD DUP1 DUP3 SSTORE DUP1 SWAP2 POP POP PUSH1 0x1 SWAP1 SUB SWAP1 PUSH1 0x0 MSTORE PUSH1 0x20 PUSH1 0x0 KECCAK256 SWAP1 PUSH1 0x3 MUL ADD PUSH1 0x0 SWAP1 SWAP2 SWAP1 SWAP2 SWAP1 SWAP2 POP PUSH1 0x0 DUP3 ADD MLOAD DUP2 PUSH1 0x0 ADD SWAP1 DUP2 PUSH2 0x6BF SWAP2 SWAP1 PUSH2 0x1342 JUMP JUMPDEST POP PUSH1 0x20 DUP3 ADD MLOAD DUP2 PUSH1 0x1 ADD SSTORE PUSH1 0x40 DUP3 ADD MLOAD DUP2 PUSH1 0x2 ADD SWAP1 DUP1 MLOAD SWAP1 PUSH1 0x20 ADD SWAP1 PUSH2 0x6E6 SWAP3 SWAP2 SWAP1 PUSH2 0x766 JUMP JUMPDEST POP POP POP POP POP POP JUMP JUMPDEST DUP1 PUSH1 0x1 DUP5 PUSH1 0x40 MLOAD PUSH2 0x6FF SWAP2 SWAP1 PUSH2 0x117F JUMP JUMPDEST SWAP1 DUP2 MSTORE PUSH1 0x20 ADD PUSH1 0x40 MLOAD DUP1 SWAP2 SUB SWAP1 KECCAK256 PUSH1 0x1 DUP5 PUSH2 0x71A SWAP2 SWAP1 PUSH2 0x1080 JUMP JUMPDEST DUP2 SLOAD DUP2 LT PUSH2 0x72B JUMPI PUSH2 0x72A PUSH2 0x10B4 JUMP JUMPDEST JUMPDEST SWAP1 PUSH1 0x0 MSTORE PUSH1 0x20 PUSH1 0x0 KECCAK256 SWAP1 PUSH1 0x3 MUL ADD PUSH1 0x1 ADD DUP2 SWAP1 SSTORE POP POP POP POP JUMP JUMPDEST PUSH1 0x40 MLOAD DUP1 PUSH1 0x60 ADD PUSH1 0x40 MSTORE DUP1 PUSH1 0x60 DUP2 MSTORE PUSH1 0x20 ADD PUSH1 0x0 DUP2 MSTORE PUSH1 0x20 ADD PUSH1 0x60 DUP2 MSTORE POP SWAP1 JUMP JUMPDEST DUP3 DUP1 SLOAD DUP3 DUP3 SSTORE SWAP1 PUSH1 0x0 MSTORE PUSH1 0x20 PUSH1 0x0 KECCAK256 SWAP1 DUP2 ADD SWAP3 DUP3 ISZERO PUSH2 0x7AE JUMPI SWAP2 PUSH1 0x20 MUL DUP3 ADD JUMPDEST DUP3 DUP2 GT ISZERO PUSH2 0x7AD JUMPI DUP3 MLOAD DUP3 SWAP1 DUP2 PUSH2 0x79D SWAP2 SWAP1 PUSH2 0x1342 JUMP JUMPDEST POP SWAP2 PUSH1 0x20 ADD SWAP2 SWAP1 PUSH1 0x1 ADD SWAP1 PUSH2 0x786 JUMP JUMPDEST JUMPDEST POP SWAP1 POP PUSH2 0x7BB SWAP2 SWAP1 PUSH2 0x7BF JUMP JUMPDEST POP SWAP1 JUMP JUMPDEST JUMPDEST DUP1 DUP3 GT ISZERO PUSH2 0x7DF JUMPI PUSH1 0x0 DUP2 DUP2 PUSH2 0x7D6 SWAP2 SWAP1 PUSH2 0x7E3 JUMP JUMPDEST POP PUSH1 0x1 ADD PUSH2 0x7C0 JUMP JUMPDEST POP SWAP1 JUMP JUMPDEST POP DUP1 SLOAD PUSH2 0x7EF SWAP1 PUSH2 0x1112 JUMP JUMPDEST PUSH1 0x0 DUP3 SSTORE DUP1 PUSH1 0x1F LT PUSH2 0x801 JUMPI POP PUSH2 0x820 JUMP JUMPDEST PUSH1 0x1F ADD PUSH1 0x20 SWAP1 DIV SWAP1 PUSH1 0x0 MSTORE PUSH1 0x20 PUSH1 0x0 KECCAK256 SWAP1 DUP2 ADD SWAP1 PUSH2 0x81F SWAP2 SWAP1 PUSH2 0x823 JUMP JUMPDEST JUMPDEST POP JUMP JUMPDEST JUMPDEST DUP1 DUP3 GT ISZERO PUSH2 0x83C JUMPI PUSH1 0x0 DUP2 PUSH1 0x0 SWAP1 SSTORE POP PUSH1 0x1 ADD PUSH2 0x824 JUMP JUMPDEST POP SWAP1 JUMP JUMPDEST PUSH1 0x0 PUSH1 0x40 MLOAD SWAP1 POP SWAP1 JUMP JUMPDEST PUSH1 0x0 DUP1 REVERT JUMPDEST PUSH1 0x0 DUP1 REVERT JUMPDEST PUSH1 0x0 DUP2 SWAP1 POP SWAP2 SWAP1 POP JUMP JUMPDEST PUSH2 0x867 DUP2 PUSH2 0x854 JUMP JUMPDEST DUP2 EQ PUSH2 0x872 JUMPI PUSH1 0x0 DUP1 REVERT JUMPDEST POP JUMP JUMPDEST PUSH1 0x0 DUP2 CALLDATALOAD SWAP1 POP PUSH2 0x884 DUP2 PUSH2 0x85E JUMP JUMPDEST SWAP3 SWAP2 POP POP JUMP JUMPDEST PUSH1 0x0 PUSH1 0x20 DUP3 DUP5 SUB SLT ISZERO PUSH2 0x8A0 JUMPI PUSH2 0x89F PUSH2 0x84A JUMP JUMPDEST JUMPDEST PUSH1 0x0 PUSH2 0x8AE DUP5 DUP3 DUP6 ADD PUSH2 0x875 JUMP JUMPDEST SWAP2 POP POP SWAP3 SWAP2 POP POP JUMP JUMPDEST PUSH1 0x0 DUP2 MLOAD SWAP1 POP SWAP2 SWAP1 POP JUMP JUMPDEST PUSH1 0x0 DUP3 DUP3 MSTORE PUSH1 0x20 DUP3 ADD SWAP1 POP SWAP3 SWAP2 POP POP JUMP JUMPDEST PUSH1 0x0 JUMPDEST DUP4 DUP2 LT ISZERO PUSH2 0x8F1 JUMPI DUP1 DUP3 ADD MLOAD DUP2 DUP5 ADD MSTORE PUSH1 0x20 DUP2 ADD SWAP1 POP PUSH2 0x8D6 JUMP JUMPDEST PUSH1 0x0 DUP5 DUP5 ADD MSTORE POP POP POP POP JUMP JUMPDEST PUSH1 0x0 PUSH1 0x1F NOT PUSH1 0x1F DUP4 ADD AND SWAP1 POP SWAP2 SWAP1 POP JUMP JUMPDEST PUSH1 0x0 PUSH2 0x919 DUP3 PUSH2 0x8B7 JUMP JUMPDEST PUSH2 0x923 DUP2 DUP6 PUSH2 0x8C2 JUMP JUMPDEST SWAP4 POP PUSH2 0x933 DUP2 DUP6 PUSH1 0x20 DUP7 ADD PUSH2 0x8D3 JUMP JUMPDEST PUSH2 0x93C DUP2 PUSH2 0x8FD JUMP JUMPDEST DUP5 ADD SWAP2 POP POP SWAP3 SWAP2 POP POP JUMP JUMPDEST PUSH1 0x0 PUSH1 0x20 DUP3 ADD SWAP1 POP DUP2 DUP2 SUB PUSH1 0x0 DUP4 ADD MSTORE PUSH2 0x961 DUP2 DUP5 PUSH2 0x90E JUMP JUMPDEST SWAP1 POP SWAP3 SWAP2 POP POP JUMP JUMPDEST PUSH1 0x0 DUP3 DUP3 MSTORE PUSH1 0x20 DUP3 ADD SWAP1 POP SWAP3 SWAP2 POP POP JUMP JUMPDEST PUSH1 0x0 PUSH2 0x985 DUP3 PUSH2 0x8B7 JUMP JUMPDEST PUSH2 0x98F DUP2 DUP6 PUSH2 0x969 JUMP JUMPDEST SWAP4 POP PUSH2 0x99F DUP2 DUP6 PUSH1 0x20 DUP7 ADD PUSH2 0x8D3 JUMP JUMPDEST PUSH2 0x9A8 DUP2 PUSH2 0x8FD JUMP JUMPDEST DUP5 ADD SWAP2 POP POP SWAP3 SWAP2 POP POP JUMP JUMPDEST PUSH2 0x9BC DUP2 PUSH2 0x854 JUMP JUMPDEST DUP3 MSTORE POP POP JUMP JUMPDEST PUSH1 0x0 DUP2 MLOAD SWAP1 POP SWAP2 SWAP1 POP JUMP JUMPDEST PUSH1 0x0 DUP3 DUP3 MSTORE PUSH1 0x20 DUP3 ADD SWAP1 POP SWAP3 SWAP2 POP POP JUMP JUMPDEST PUSH1 0x0 DUP2 SWAP1 POP PUSH1 0x20 DUP3 ADD SWAP1 POP SWAP2 SWAP1 POP JUMP JUMPDEST PUSH1 0x0 PUSH2 0x9FA DUP4 DUP4 PUSH2 0x97A JUMP JUMPDEST SWAP1 POP SWAP3 SWAP2 POP POP JUMP JUMPDEST PUSH1 0x0 PUSH1 0x20 DUP3 ADD SWAP1 POP SWAP2 SWAP1 POP JUMP JUMPDEST PUSH1 0x0 PUSH2 0xA1A DUP3 PUSH2 0x9C2 JUMP JUMPDEST PUSH2 0xA24 DUP2 DUP6 PUSH2 0x9CD JUMP JUMPDEST SWAP4 POP DUP4 PUSH1 0x20 DUP3 MUL DUP6 ADD PUSH2 0xA36 DUP6 PUSH2 0x9DE JUMP JUMPDEST DUP1 PUSH1 0x0 JUMPDEST DUP6 DUP2 LT ISZERO PUSH2 0xA72 JUMPI DUP5 DUP5 SUB DUP10 MSTORE DUP2 MLOAD PUSH2 0xA53 DUP6 DUP3 PUSH2 0x9EE JUMP JUMPDEST SWAP5 POP PUSH2 0xA5E DUP4 PUSH2 0xA02 JUMP JUMPDEST SWAP3 POP PUSH1 0x20 DUP11 ADD SWAP10 POP POP PUSH1 0x1 DUP2 ADD SWAP1 POP PUSH2 0xA3A JUMP JUMPDEST POP DUP3 SWAP8 POP DUP8 SWAP6 POP POP POP POP POP POP SWAP3 SWAP2 POP POP JUMP JUMPDEST PUSH1 0x0 PUSH1 0x60 DUP4 ADD PUSH1 0x0 DUP4 ADD MLOAD DUP5 DUP3 SUB PUSH1 0x0 DUP7 ADD MSTORE PUSH2 0xAA1 DUP3 DUP3 PUSH2 0x97A JUMP JUMPDEST SWAP2 POP POP PUSH1 0x20 DUP4 ADD MLOAD PUSH2 0xAB6 PUSH1 0x20 DUP7 ADD DUP3 PUSH2 0x9B3 JUMP JUMPDEST POP PUSH1 0x40 DUP4 ADD MLOAD DUP5 DUP3 SUB PUSH1 0x40 DUP7 ADD MSTORE PUSH2 0xACE DUP3 DUP3 PUSH2 0xA0F JUMP JUMPDEST SWAP2 POP POP DUP1 SWAP2 POP POP SWAP3 SWAP2 POP POP JUMP JUMPDEST PUSH1 0x0 PUSH1 0x20 DUP3 ADD SWAP1 POP DUP2 DUP2 SUB PUSH1 0x0 DUP4 ADD MSTORE PUSH2 0xAF5 DUP2 DUP5 PUSH2 0xA84 JUMP JUMPDEST SWAP1 POP SWAP3 SWAP2 POP POP JUMP JUMPDEST PUSH1 0x0 DUP1 REVERT JUMPDEST PUSH1 0x0 DUP1 REVERT JUMPDEST PUSH32 0x4E487B7100000000000000000000000000000000000000000000000000000000 PUSH1 0x0 MSTORE PUSH1 0x41 PUSH1 0x4 MSTORE PUSH1 0x24 PUSH1 0x0 REVERT JUMPDEST PUSH2 0xB3F DUP3 PUSH2 0x8FD JUMP JUMPDEST DUP2 ADD DUP2 DUP2 LT PUSH8 0xFFFFFFFFFFFFFFFF DUP3 GT OR ISZERO PUSH2 0xB5E JUMPI PUSH2 0xB5D PUSH2 0xB07 JUMP JUMPDEST JUMPDEST DUP1 PUSH1 0x40 MSTORE POP POP POP JUMP JUMPDEST PUSH1 0x0 PUSH2 0xB71 PUSH2 0x840 JUMP JUMPDEST SWAP1 POP PUSH2 0xB7D DUP3 DUP3 PUSH2 0xB36 JUMP JUMPDEST SWAP2 SWAP1 POP JUMP JUMPDEST PUSH1 0x0 PUSH8 0xFFFFFFFFFFFFFFFF DUP3 GT ISZERO PUSH2 0xB9D JUMPI PUSH2 0xB9C PUSH2 0xB07 JUMP JUMPDEST JUMPDEST PUSH2 0xBA6 DUP3 PUSH2 0x8FD JUMP JUMPDEST SWAP1 POP PUSH1 0x20 DUP2 ADD SWAP1 POP SWAP2 SWAP1 POP JUMP JUMPDEST DUP3 DUP2 DUP4 CALLDATACOPY PUSH1 0x0 DUP4 DUP4 ADD MSTORE POP POP POP JUMP JUMPDEST PUSH1 0x0 PUSH2 0xBD5 PUSH2 0xBD0 DUP5 PUSH2 0xB82 JUMP JUMPDEST PUSH2 0xB67 JUMP JUMPDEST SWAP1 POP DUP3 DUP2 MSTORE PUSH1 0x20 DUP2 ADD DUP5 DUP5 DUP5 ADD GT ISZERO PUSH2 0xBF1 JUMPI PUSH2 0xBF0 PUSH2 0xB02 JUMP JUMPDEST JUMPDEST PUSH2 0xBFC DUP5 DUP3 DUP6 PUSH2 0xBB3 JUMP JUMPDEST POP SWAP4 SWAP3 POP POP POP JUMP JUMPDEST PUSH1 0x0 DUP3 PUSH1 0x1F DUP4 ADD SLT PUSH2 0xC19 JUMPI PUSH2 0xC18 PUSH2 0xAFD JUMP JUMPDEST JUMPDEST DUP2 CALLDATALOAD PUSH2 0xC29 DUP5 DUP3 PUSH1 0x20 DUP7 ADD PUSH2 0xBC2 JUMP JUMPDEST SWAP2 POP POP SWAP3 SWAP2 POP POP JUMP JUMPDEST PUSH1 0x0 PUSH8 0xFFFFFFFFFFFFFFFF DUP3 GT ISZERO PUSH2 0xC4D JUMPI PUSH2 0xC4C PUSH2 0xB07 JUMP JUMPDEST JUMPDEST PUSH1 0x20 DUP3 MUL SWAP1 POP PUSH1 0x20 DUP2 ADD SWAP1 POP SWAP2 SWAP1 POP JUMP JUMPDEST PUSH1 0x0 DUP1 REVERT JUMPDEST PUSH1 0x0 PUSH2 0xC76 PUSH2 0xC71 DUP5 PUSH2 0xC32 JUMP JUMPDEST PUSH2 0xB67 JUMP JUMPDEST SWAP1 POP DUP1 DUP4 DUP3 MSTORE PUSH1 0x20 DUP3 ADD SWAP1 POP PUSH1 0x20 DUP5 MUL DUP4 ADD DUP6 DUP2 GT ISZERO PUSH2 0xC99 JUMPI PUSH2 0xC98 PUSH2 0xC5E JUMP JUMPDEST JUMPDEST DUP4 JUMPDEST DUP2 DUP2 LT ISZERO PUSH2 0xCE0 JUMPI DUP1 CALLDATALOAD PUSH8 0xFFFFFFFFFFFFFFFF DUP2 GT ISZERO PUSH2 0xCBE JUMPI PUSH2 0xCBD PUSH2 0xAFD JUMP JUMPDEST JUMPDEST DUP1 DUP7 ADD PUSH2 0xCCB DUP10 DUP3 PUSH2 0xC04 JUMP JUMPDEST DUP6 MSTORE PUSH1 0x20 DUP6 ADD SWAP5 POP POP POP PUSH1 0x20 DUP2 ADD SWAP1 POP PUSH2 0xC9B JUMP JUMPDEST POP POP POP SWAP4 SWAP3 POP POP POP JUMP JUMPDEST PUSH1 0x0 DUP3 PUSH1 0x1F DUP4 ADD SLT PUSH2 0xCFF JUMPI PUSH2 0xCFE PUSH2 0xAFD JUMP JUMPDEST JUMPDEST DUP2 CALLDATALOAD PUSH2 0xD0F DUP5 DUP3 PUSH1 0x20 DUP7 ADD PUSH2 0xC63 JUMP JUMPDEST SWAP2 POP POP SWAP3 SWAP2 POP POP JUMP JUMPDEST PUSH1 0x0 DUP1 PUSH1 0x0 DUP1 PUSH1 0x80 DUP6 DUP8 SUB SLT ISZERO PUSH2 0xD32 JUMPI PUSH2 0xD31 PUSH2 0x84A JUMP JUMPDEST JUMPDEST PUSH1 0x0 DUP6 ADD CALLDATALOAD PUSH8 0xFFFFFFFFFFFFFFFF DUP2 GT ISZERO PUSH2 0xD50 JUMPI PUSH2 0xD4F PUSH2 0x84F JUMP JUMPDEST JUMPDEST PUSH2 0xD5C DUP8 DUP3 DUP9 ADD PUSH2 0xC04 JUMP JUMPDEST SWAP5 POP POP PUSH1 0x20 DUP6 ADD CALLDATALOAD PUSH8 0xFFFFFFFFFFFFFFFF DUP2 GT ISZERO PUSH2 0xD7D JUMPI PUSH2 0xD7C PUSH2 0x84F JUMP JUMPDEST JUMPDEST PUSH2 0xD89 DUP8 DUP3 DUP9 ADD PUSH2 0xC04 JUMP JUMPDEST SWAP4 POP POP PUSH1 0x40 PUSH2 0xD9A DUP8 DUP3 DUP9 ADD PUSH2 0x875 JUMP JUMPDEST SWAP3 POP POP PUSH1 0x60 DUP6 ADD CALLDATALOAD PUSH8 0xFFFFFFFFFFFFFFFF DUP2 GT ISZERO PUSH2 0xDBB JUMPI PUSH2 0xDBA PUSH2 0x84F JUMP JUMPDEST JUMPDEST PUSH2 0xDC7 DUP8 DUP3 DUP9 ADD PUSH2 0xCEA JUMP JUMPDEST SWAP2 POP POP SWAP3 SWAP6 SWAP2 SWAP5 POP SWAP3 POP JUMP JUMPDEST PUSH1 0x0 PUSH1 0x20 DUP3 DUP5 SUB SLT ISZERO PUSH2 0xDE9 JUMPI PUSH2 0xDE8 PUSH2 0x84A JUMP JUMPDEST JUMPDEST PUSH1 0x0 DUP3 ADD CALLDATALOAD PUSH8 0xFFFFFFFFFFFFFFFF DUP2 GT ISZERO PUSH2 0xE07 JUMPI PUSH2 0xE06 PUSH2 0x84F JUMP JUMPDEST JUMPDEST PUSH2 0xE13 DUP5 DUP3 DUP6 ADD PUSH2 0xC04 JUMP JUMPDEST SWAP2 POP POP SWAP3 SWAP2 POP POP JUMP JUMPDEST PUSH1 0x0 DUP2 MLOAD SWAP1 POP SWAP2 SWAP1 POP JUMP JUMPDEST PUSH1 0x0 DUP3 DUP3 MSTORE PUSH1 0x20 DUP3 ADD SWAP1 POP SWAP3 SWAP2 POP POP JUMP JUMPDEST PUSH1 0x0 DUP2 SWAP1 POP PUSH1 0x20 DUP3 ADD SWAP1 POP SWAP2 SWAP1 POP JUMP JUMPDEST PUSH1 0x0 PUSH1 0x60 DUP4 ADD PUSH1 0x0 DUP4 ADD MLOAD DUP5 DUP3 SUB PUSH1 0x0 DUP7 ADD MSTORE PUSH2 0xE65 DUP3 DUP3 PUSH2 0x97A JUMP JUMPDEST SWAP2 POP POP PUSH1 0x20 DUP4 ADD MLOAD PUSH2 0xE7A PUSH1 0x20 DUP7 ADD DUP3 PUSH2 0x9B3 JUMP JUMPDEST POP PUSH1 0x40 DUP4 ADD MLOAD DUP5 DUP3 SUB PUSH1 0x40 DUP7 ADD MSTORE PUSH2 0xE92 DUP3 DUP3 PUSH2 0xA0F JUMP JUMPDEST SWAP2 POP POP DUP1 SWAP2 POP POP SWAP3 SWAP2 POP POP JUMP JUMPDEST PUSH1 0x0 PUSH2 0xEAB DUP4 DUP4 PUSH2 0xE48 JUMP JUMPDEST SWAP1 POP SWAP3 SWAP2 POP POP JUMP JUMPDEST PUSH1 0x0 PUSH1 0x20 DUP3 ADD SWAP1 POP SWAP2 SWAP1 POP JUMP JUMPDEST PUSH1 0x0 PUSH2 0xECB DUP3 PUSH2 0xE1C JUMP JUMPDEST PUSH2 0xED5 DUP2 DUP6 PUSH2 0xE27 JUMP JUMPDEST SWAP4 POP DUP4 PUSH1 0x20 DUP3 MUL DUP6 ADD PUSH2 0xEE7 DUP6 PUSH2 0xE38 JUMP JUMPDEST DUP1 PUSH1 0x0 JUMPDEST DUP6 DUP2 LT ISZERO PUSH2 0xF23 JUMPI DUP5 DUP5 SUB DUP10 MSTORE DUP2 MLOAD PUSH2 0xF04 DUP6 DUP3 PUSH2 0xE9F JUMP JUMPDEST SWAP5 POP PUSH2 0xF0F DUP4 PUSH2 0xEB3 JUMP JUMPDEST SWAP3 POP PUSH1 0x20 DUP11 ADD SWAP10 POP POP PUSH1 0x1 DUP2 ADD SWAP1 POP PUSH2 0xEEB JUMP JUMPDEST POP DUP3 SWAP8 POP DUP8 SWAP6 POP POP POP POP POP POP SWAP3 SWAP2 POP POP JUMP JUMPDEST PUSH1 0x0 PUSH1 0x20 DUP3 ADD SWAP1 POP DUP2 DUP2 SUB PUSH1 0x0 DUP4 ADD MSTORE PUSH2 0xF4F DUP2 DUP5 PUSH2 0xEC0 JUMP JUMPDEST SWAP1 POP SWAP3 SWAP2 POP POP JUMP JUMPDEST PUSH1 0x0 DUP1 PUSH1 0x0 PUSH1 0x60 DUP5 DUP7 SUB SLT ISZERO PUSH2 0xF70 JUMPI PUSH2 0xF6F PUSH2 0x84A JUMP JUMPDEST JUMPDEST PUSH1 0x0 DUP5 ADD CALLDATALOAD PUSH8 0xFFFFFFFFFFFFFFFF DUP2 GT ISZERO PUSH2 0xF8E JUMPI PUSH2 0xF8D PUSH2 0x84F JUMP JUMPDEST JUMPDEST PUSH2 0xF9A DUP7 DUP3 DUP8 ADD PUSH2 0xC04 JUMP JUMPDEST SWAP4 POP POP PUSH1 0x20 PUSH2 0xFAB DUP7 DUP3 DUP8 ADD PUSH2 0x875 JUMP JUMPDEST SWAP3 POP POP PUSH1 0x40 DUP5 ADD CALLDATALOAD PUSH8 0xFFFFFFFFFFFFFFFF DUP2 GT ISZERO PUSH2 0xFCC JUMPI PUSH2 0xFCB PUSH2 0x84F JUMP JUMPDEST JUMPDEST PUSH2 0xFD8 DUP7 DUP3 DUP8 ADD PUSH2 0xCEA JUMP JUMPDEST SWAP2 POP POP SWAP3 POP SWAP3 POP SWAP3 JUMP JUMPDEST PUSH1 0x0 DUP1 PUSH1 0x0 PUSH1 0x60 DUP5 DUP7 SUB SLT ISZERO PUSH2 0xFFB JUMPI PUSH2 0xFFA PUSH2 0x84A JUMP JUMPDEST JUMPDEST PUSH1 0x0 DUP5 ADD CALLDATALOAD PUSH8 0xFFFFFFFFFFFFFFFF DUP2 GT ISZERO PUSH2 0x1019 JUMPI PUSH2 0x1018 PUSH2 0x84F JUMP JUMPDEST JUMPDEST PUSH2 0x1025 DUP7 DUP3 DUP8 ADD PUSH2 0xC04 JUMP JUMPDEST SWAP4 POP POP PUSH1 0x20 PUSH2 0x1036 DUP7 DUP3 DUP8 ADD PUSH2 0x875 JUMP JUMPDEST SWAP3 POP POP PUSH1 0x40 PUSH2 0x1047 DUP7 DUP3 DUP8 ADD PUSH2 0x875 JUMP JUMPDEST SWAP2 POP POP SWAP3 POP SWAP3 POP SWAP3 JUMP JUMPDEST PUSH32 0x4E487B7100000000000000000000000000000000000000000000000000000000 PUSH1 0x0 MSTORE PUSH1 0x11 PUSH1 0x4 MSTORE PUSH1 0x24 PUSH1 0x0 REVERT JUMPDEST PUSH1 0x0 PUSH2 0x108B DUP3 PUSH2 0x854 JUMP JUMPDEST SWAP2 POP PUSH2 0x1096 DUP4 PUSH2 0x854 JUMP JUMPDEST SWAP3 POP DUP3 DUP3 SUB SWAP1 POP DUP2 DUP2 GT ISZERO PUSH2 0x10AE JUMPI PUSH2 0x10AD PUSH2 0x1051 JUMP JUMPDEST JUMPDEST SWAP3 SWAP2 POP POP JUMP JUMPDEST PUSH32 0x4E487B7100000000000000000000000000000000000000000000000000000000 PUSH1 0x0 MSTORE PUSH1 0x32 PUSH1 0x4 MSTORE PUSH1 0x24 PUSH1 0x0 REVERT JUMPDEST PUSH32 0x4E487B7100000000000000000000000000000000000000000000000000000000 PUSH1 0x0 MSTORE PUSH1 0x22 PUSH1 0x4 MSTORE PUSH1 0x24 PUSH1 0x0 REVERT JUMPDEST PUSH1 0x0 PUSH1 0x2 DUP3 DIV SWAP1 POP PUSH1 0x1 DUP3 AND DUP1 PUSH2 0x112A JUMPI PUSH1 0x7F DUP3 AND SWAP2 POP JUMPDEST PUSH1 0x20 DUP3 LT DUP2 SUB PUSH2 0x113D JUMPI PUSH2 0x113C PUSH2 0x10E3 JUMP JUMPDEST JUMPDEST POP SWAP2 SWAP1 POP JUMP JUMPDEST PUSH1 0x0 DUP2 SWAP1 POP SWAP3 SWAP2 POP POP JUMP JUMPDEST PUSH1 0x0 PUSH2 0x1159 DUP3 PUSH2 0x8B7 JUMP JUMPDEST PUSH2 0x1163 DUP2 DUP6 PUSH2 0x1143 JUMP JUMPDEST SWAP4 POP PUSH2 0x1173 DUP2 DUP6 PUSH1 0x20 DUP7 ADD PUSH2 0x8D3 JUMP JUMPDEST DUP1 DUP5 ADD SWAP2 POP POP SWAP3 SWAP2 POP POP JUMP JUMPDEST PUSH1 0x0 PUSH2 0x118B DUP3 DUP5 PUSH2 0x114E JUMP JUMPDEST SWAP2 POP DUP2 SWAP1 POP SWAP3 SWAP2 POP POP JUMP JUMPDEST PUSH1 0x0 DUP2 SWAP1 POP DUP2 PUSH1 0x0 MSTORE PUSH1 0x20 PUSH1 0x0 KECCAK256 SWAP1 POP SWAP2 SWAP1 POP JUMP JUMPDEST PUSH1 0x0 PUSH1 0x20 PUSH1 0x1F DUP4 ADD DIV SWAP1 POP SWAP2 SWAP1 POP JUMP JUMPDEST PUSH1 0x0 DUP3 DUP3 SHL SWAP1 POP SWAP3 SWAP2 POP POP JUMP JUMPDEST PUSH1 0x0 PUSH1 0x8 DUP4 MUL PUSH2 0x11F8 PUSH32 0xFFFFFFFFFFFFFFFFFFFFFFFFFFFFFFFFFFFFFFFFFFFFFFFFFFFFFFFFFFFFFFFF DUP3 PUSH2 0x11BB JUMP JUMPDEST PUSH2 0x1202 DUP7 DUP4 PUSH2 0x11BB JUMP JUMPDEST SWAP6 POP DUP1 NOT DUP5 AND SWAP4 POP DUP1 DUP7 AND DUP5 OR SWAP3 POP POP POP SWAP4 SWAP3 POP POP POP JUMP JUMPDEST PUSH1 0x0 DUP2 SWAP1 POP SWAP2 SWAP1 POP JUMP JUMPDEST PUSH1 0x0 PUSH2 0x123F PUSH2 0x123A PUSH2 0x1235 DUP5 PUSH2 0x854 JUMP JUMPDEST PUSH2 0x121A JUMP JUMPDEST PUSH2 0x854 JUMP JUMPDEST SWAP1 POP SWAP2 SWAP1 POP JUMP JUMPDEST PUSH1 0x0 DUP2 SWAP1 POP SWAP2 SWAP1 POP JUMP JUMPDEST PUSH2 0x1259 DUP4 PUSH2 0x1224 JUMP JUMPDEST PUSH2 0x126D PUSH2 0x1265 DUP3 PUSH2 0x1246 JUMP JUMPDEST DUP5 DUP5 SLOAD PUSH2 0x11C8 JUMP JUMPDEST DUP3 SSTORE POP POP POP POP JUMP JUMPDEST PUSH1 0x0 SWAP1 JUMP JUMPDEST PUSH2 0x1282 PUSH2 0x1275 JUMP JUMPDEST PUSH2 0x128D DUP2 DUP5 DUP5 PUSH2 0x1250 JUMP JUMPDEST POP POP POP JUMP JUMPDEST JUMPDEST DUP2 DUP2 LT ISZERO PUSH2 0x12B1 JUMPI PUSH2 0x12A6 PUSH1 0x0 DUP3 PUSH2 0x127A JUMP JUMPDEST PUSH1 0x1 DUP2 ADD SWAP1 POP PUSH2 0x1293 JUMP JUMPDEST POP POP JUMP JUMPDEST PUSH1 0x1F DUP3 GT ISZERO PUSH2 0x12F6 JUMPI PUSH2 0x12C7 DUP2 PUSH2 0x1196 JUMP JUMPDEST PUSH2 0x12D0 DUP5 PUSH2 0x11AB JUMP JUMPDEST DUP2 ADD PUSH1 0x20 DUP6 LT ISZERO PUSH2 0x12DF JUMPI DUP2 SWAP1 POP JUMPDEST PUSH2 0x12F3 PUSH2 0x12EB DUP6 PUSH2 0x11AB JUMP JUMPDEST DUP4 ADD DUP3 PUSH2 0x1292 JUMP JUMPDEST POP POP JUMPDEST POP POP POP JUMP JUMPDEST PUSH1 0x0 DUP3 DUP3 SHR SWAP1 POP SWAP3 SWAP2 POP POP JUMP JUMPDEST PUSH1 0x0 PUSH2 0x1319 PUSH1 0x0 NOT DUP5 PUSH1 0x8 MUL PUSH2 0x12FB JUMP JUMPDEST NOT DUP1 DUP4 AND SWAP2 POP POP SWAP3 SWAP2 POP POP JUMP JUMPDEST PUSH1 0x0 PUSH2 0x1332 DUP4 DUP4 PUSH2 0x1308 JUMP JUMPDEST SWAP2 POP DUP3 PUSH1 0x2 MUL DUP3 OR SWAP1 POP SWAP3 SWAP2 POP POP JUMP JUMPDEST PUSH2 0x134B DUP3 PUSH2 0x8B7 JUMP JUMPDEST PUSH8 0xFFFFFFFFFFFFFFFF DUP2 GT ISZERO PUSH2 0x1364 JUMPI PUSH2 0x1363 PUSH2 0xB07 JUMP JUMPDEST JUMPDEST PUSH2 0x136E DUP3 SLOAD PUSH2 0x1112 JUMP JUMPDEST PUSH2 0x1379 DUP3 DUP3 DUP6 PUSH2 0x12B5 JUMP JUMPDEST PUSH1 0x0 PUSH1 0x20 SWAP1 POP PUSH1 0x1F DUP4 GT PUSH1 0x1 DUP2 EQ PUSH2 0x13AC JUMPI PUSH1 0x0 DUP5 ISZERO PUSH2 0x139A JUMPI DUP3 DUP8 ADD MLOAD SWAP1 POP JUMPDEST PUSH2 0x13A4 DUP6 DUP3 PUSH2 0x1326 JUMP JUMPDEST DUP7 SSTORE POP PUSH2 0x140C JUMP JUMPDEST PUSH1 0x1F NOT DUP5 AND PUSH2 0x13BA DUP7 PUSH2 0x1196 JUMP JUMPDEST PUSH1 0x0 JUMPDEST DUP3 DUP2 LT ISZERO PUSH2 0x13E2 JUMPI DUP5 DUP10 ADD MLOAD DUP3 SSTORE PUSH1 0x1 DUP3 ADD SWAP2 POP PUSH1 0x20 DUP6 ADD SWAP5 POP PUSH1 0x20 DUP2 ADD SWAP1 POP PUSH2 0x13BD JUMP JUMPDEST DUP7 DUP4 LT ISZERO PUSH2 0x13FF JUMPI DUP5 DUP10 ADD MLOAD PUSH2 0x13FB PUSH1 0x1F DUP10 AND DUP3 PUSH2 0x1308 JUMP JUMPDEST DUP4 SSTORE POP JUMPDEST PUSH1 0x1 PUSH1 0x2 DUP9 MUL ADD DUP9 SSTORE POP POP POP JUMPDEST POP POP POP POP POP POP JUMP INVALID LOG2 PUSH5 0x6970667358 0x22 SLT KECCAK256 PUSH20 0x8943E32CE90B2D3127263E313C9EBC3606CEE061 PUSH13 0xDF577EF7A3F5B7F505F964736F PUSH13 0x63430008120033000000000000 "
				},
				"gasEstimates": {
					"creation": {
						"codeDepositCost": "1038800",
						"executionCost": "1080",
						"totalCost": "1039880"
					},
					"external": {
						"getName(uint256)": "infinite",
						"getStudent(string)": "infinite",
						"getStudents(uint256)": "infinite",
						"setStudent(string,string,uint256,string[])": "infinite",
						"setStudent2(string,uint256,uint256)": "infinite",
						"setStudents(string,uint256,string[])": "infinite"
					}
				},
				"methodIdentifiers": {
					"getName(uint256)": "6b8ff574",
					"getStudent(string)": "d0296612",
					"getStudents(uint256)": "75c2f8f0",
					"setStudent(string,string,uint256,string[])": "83645765",
					"setStudent2(string,uint256,uint256)": "ebe1d0da",
					"setStudents(string,uint256,string[])": "ebb76d68"
				}
			},
			"storageLayout": {
				"storage": [
					{
						"astId": 13,
						"contract": "contracts-lecture/230510-1.sol:note",
						"label": "students",
						"offset": 0,
						"slot": "0",
						"type": "t_array(t_struct(Student)9_storage)dyn_storage"
					},
					{
						"astId": 70,
						"contract": "contracts-lecture/230510-1.sol:note",
						"label": "Teacher_Student",
						"offset": 0,
						"slot": "1",
						"type": "t_mapping(t_string_memory_ptr,t_array(t_struct(Student)9_storage)dyn_storage)"
					}
				],
				"types": {
					"t_array(t_string_storage)dyn_storage": {
						"base": "t_string_storage",
						"encoding": "dynamic_array",
						"label": "string[]",
						"numberOfBytes": "32"
					},
					"t_array(t_struct(Student)9_storage)dyn_storage": {
						"base": "t_struct(Student)9_storage",
						"encoding": "dynamic_array",
						"label": "struct note.Student[]",
						"numberOfBytes": "32"
					},
					"t_mapping(t_string_memory_ptr,t_array(t_struct(Student)9_storage)dyn_storage)": {
						"encoding": "mapping",
						"key": "t_string_memory_ptr",
						"label": "mapping(string => struct note.Student[])",
						"numberOfBytes": "32",
						"value": "t_array(t_struct(Student)9_storage)dyn_storage"
					},
					"t_string_memory_ptr": {
						"encoding": "bytes",
						"label": "string",
						"numberOfBytes": "32"
					},
					"t_string_storage": {
						"encoding": "bytes",
						"label": "string",
						"numberOfBytes": "32"
					},
					"t_struct(Student)9_storage": {
						"encoding": "inplace",
						"label": "struct note.Student",
						"members": [
							{
								"astId": 3,
								"contract": "contracts-lecture/230510-1.sol:note",
								"label": "name",
								"offset": 0,
								"slot": "0",
								"type": "t_string_storage"
							},
							{
								"astId": 5,
								"contract": "contracts-lecture/230510-1.sol:note",
								"label": "number",
								"offset": 0,
								"slot": "1",
								"type": "t_uint256"
							},
							{
								"astId": 8,
								"contract": "contracts-lecture/230510-1.sol:note",
								"label": "classes",
								"offset": 0,
								"slot": "2",
								"type": "t_array(t_string_storage)dyn_storage"
							}
						],
						"numberOfBytes": "96"
					},
					"t_uint256": {
						"encoding": "inplace",
						"label": "uint256",
						"numberOfBytes": "32"
					}
				}
			},
			"userdoc": {
				"kind": "user",
				"methods": {},
				"version": 1
			}
		}
	}
}