{
	"contracts-lecture/230509-1.sol": {
		"note3": {
			"abi": [
				{
					"inputs": [
						{
							"internalType": "uint256",
							"name": "_n",
							"type": "uint256"
						}
					],
					"name": "getABC",
					"outputs": [
						{
							"components": [
								{
									"internalType": "uint256",
									"name": "a",
									"type": "uint256"
								},
								{
									"internalType": "string",
									"name": "b",
									"type": "string"
								},
								{
									"internalType": "string[]",
									"name": "c",
									"type": "string[]"
								}
							],
							"internalType": "struct note3.ABC",
							"name": "",
							"type": "tuple"
						}
					],
					"stateMutability": "view",
					"type": "function"
				},
				{
					"inputs": [],
					"name": "getAll",
					"outputs": [
						{
							"components": [
								{
									"internalType": "uint256",
									"name": "a",
									"type": "uint256"
								},
								{
									"internalType": "string",
									"name": "b",
									"type": "string"
								},
								{
									"internalType": "string[]",
									"name": "c",
									"type": "string[]"
								}
							],
							"internalType": "struct note3.ABC[]",
							"name": "",
							"type": "tuple[]"
						}
					],
					"stateMutability": "view",
					"type": "function"
				},
				{
					"inputs": [
						{
							"internalType": "uint256",
							"name": "_n",
							"type": "uint256"
						}
					],
					"name": "getC",
					"outputs": [
						{
							"internalType": "string[]",
							"name": "",
							"type": "string[]"
						}
					],
					"stateMutability": "view",
					"type": "function"
				},
				{
					"inputs": [
						{
							"internalType": "uint256",
							"name": "_a",
							"type": "uint256"
						},
						{
							"internalType": "string",
							"name": "_b",
							"type": "string"
						},
						{
							"internalType": "string[]",
							"name": "_c",
							"type": "string[]"
						}
					],
					"name": "pushABC",
					"outputs": [],
					"stateMutability": "nonpayable",
					"type": "function"
				}
			],
			"devdoc": {
				"kind": "dev",
				"methods": {},
				"version": 1
			},
			"evm": {
				"assembly": "    /* \"contracts-lecture/230509-1.sol\":1080:1600  contract note3 {... */\n  mstore(0x40, 0x80)\n  callvalue\n  dup1\n  iszero\n  tag_1\n  jumpi\n  0x00\n  dup1\n  revert\ntag_1:\n  pop\n  dataSize(sub_0)\n  dup1\n  dataOffset(sub_0)\n  0x00\n  codecopy\n  0x00\n  return\nstop\n\nsub_0: assembly {\n        /* \"contracts-lecture/230509-1.sol\":1080:1600  contract note3 {... */\n      mstore(0x40, 0x80)\n      callvalue\n      dup1\n      iszero\n      tag_1\n      jumpi\n      0x00\n      dup1\n      revert\n    tag_1:\n      pop\n      jumpi(tag_2, lt(calldatasize, 0x04))\n      shr(0xe0, calldataload(0x00))\n      dup1\n      0x53ed5143\n      eq\n      tag_3\n      jumpi\n      dup1\n      0x98105d8d\n      eq\n      tag_4\n      jumpi\n      dup1\n      0xb46e04d5\n      eq\n      tag_5\n      jumpi\n      dup1\n      0xf7048c97\n      eq\n      tag_6\n      jumpi\n    tag_2:\n      0x00\n      dup1\n      revert\n        /* \"contracts-lecture/230509-1.sol\":1413:1493  function getAll() public view returns(ABC[] memory) {... */\n    tag_3:\n      tag_7\n      tag_8\n      jump\t// in\n    tag_7:\n      mload(0x40)\n      tag_9\n      swap2\n      swap1\n      tag_10\n      jump\t// in\n    tag_9:\n      mload(0x40)\n      dup1\n      swap2\n      sub\n      swap1\n      return\n        /* \"contracts-lecture/230509-1.sol\":1316:1407  function getABC(uint _n) public view returns(ABC memory) {... */\n    tag_4:\n      tag_11\n      0x04\n      dup1\n      calldatasize\n      sub\n      dup2\n      add\n      swap1\n      tag_12\n      swap2\n      swap1\n      tag_13\n      jump\t// in\n    tag_12:\n      tag_14\n      jump\t// in\n    tag_11:\n      mload(0x40)\n      tag_15\n      swap2\n      swap1\n      tag_16\n      jump\t// in\n    tag_15:\n      mload(0x40)\n      dup1\n      swap2\n      sub\n      swap1\n      return\n        /* \"contracts-lecture/230509-1.sol\":1196:1310  function pushABC(uint _a, string memory _b, string[] memory _c) public {... */\n    tag_5:\n      tag_17\n      0x04\n      dup1\n      calldatasize\n      sub\n      dup2\n      add\n      swap1\n      tag_18\n      swap2\n      swap1\n      tag_19\n      jump\t// in\n    tag_18:\n      tag_20\n      jump\t// in\n    tag_17:\n      stop\n        /* \"contracts-lecture/230509-1.sol\":1499:1595  function getC(uint _n) public view returns(string[] memory) {... */\n    tag_6:\n      tag_21\n      0x04\n      dup1\n      calldatasize\n      sub\n      dup2\n      add\n      swap1\n      tag_22\n      swap2\n      swap1\n      tag_13\n      jump\t// in\n    tag_22:\n      tag_23\n      jump\t// in\n    tag_21:\n      mload(0x40)\n      tag_24\n      swap2\n      swap1\n      tag_25\n      jump\t// in\n    tag_24:\n      mload(0x40)\n      dup1\n      swap2\n      sub\n      swap1\n      return\n        /* \"contracts-lecture/230509-1.sol\":1413:1493  function getAll() public view returns(ABC[] memory) {... */\n    tag_8:\n        /* \"contracts-lecture/230509-1.sol\":1451:1463  ABC[] memory */\n      0x60\n        /* \"contracts-lecture/230509-1.sol\":1482:1486  ABCs */\n      0x00\n        /* \"contracts-lecture/230509-1.sol\":1475:1486  return ABCs */\n      dup1\n      sload\n      dup1\n      0x20\n      mul\n      0x20\n      add\n      mload(0x40)\n      swap1\n      dup2\n      add\n      0x40\n      mstore\n      dup1\n      swap3\n      swap2\n      swap1\n      dup2\n      dup2\n      mstore\n      0x20\n      add\n      0x00\n      swap1\n    tag_27:\n      dup3\n      dup3\n      lt\n      iszero\n      tag_28\n      jumpi\n      dup4\n      dup3\n      swap1\n      0x00\n      mstore\n      keccak256(0x00, 0x20)\n      swap1\n      0x03\n      mul\n      add\n      mload(0x40)\n      dup1\n      0x60\n      add\n      0x40\n      mstore\n      swap1\n      dup2\n      0x00\n      dup3\n      add\n      sload\n      dup2\n      mstore\n      0x20\n      add\n      0x01\n      dup3\n      add\n      dup1\n      sload\n      tag_30\n      swap1\n      tag_31\n      jump\t// in\n    tag_30:\n      dup1\n      0x1f\n      add\n      0x20\n      dup1\n      swap2\n      div\n      mul\n      0x20\n      add\n      mload(0x40)\n      swap1\n      dup2\n      add\n      0x40\n      mstore\n      dup1\n      swap3\n      swap2\n      swap1\n      dup2\n      dup2\n      mstore\n      0x20\n      add\n      dup3\n      dup1\n      sload\n      tag_32\n      swap1\n      tag_31\n      jump\t// in\n    tag_32:\n      dup1\n      iszero\n      tag_33\n      jumpi\n      dup1\n      0x1f\n      lt\n      tag_34\n      jumpi\n      0x0100\n      dup1\n      dup4\n      sload\n      div\n      mul\n      dup4\n      mstore\n      swap2\n      0x20\n      add\n      swap2\n      jump(tag_33)\n    tag_34:\n      dup3\n      add\n      swap2\n      swap1\n      0x00\n      mstore\n      keccak256(0x00, 0x20)\n      swap1\n    tag_35:\n      dup2\n      sload\n      dup2\n      mstore\n      swap1\n      0x01\n      add\n      swap1\n      0x20\n      add\n      dup1\n      dup4\n      gt\n      tag_35\n      jumpi\n      dup3\n      swap1\n      sub\n      0x1f\n      and\n      dup3\n      add\n      swap2\n    tag_33:\n      pop\n      pop\n      pop\n      pop\n      pop\n      dup2\n      mstore\n      0x20\n      add\n      0x02\n      dup3\n      add\n      dup1\n      sload\n      dup1\n      0x20\n      mul\n      0x20\n      add\n      mload(0x40)\n      swap1\n      dup2\n      add\n      0x40\n      mstore\n      dup1\n      swap3\n      swap2\n      swap1\n      dup2\n      dup2\n      mstore\n      0x20\n      add\n      0x00\n      swap1\n    tag_36:\n      dup3\n      dup3\n      lt\n      iszero\n      tag_37\n      jumpi\n      dup4\n      dup3\n      swap1\n      0x00\n      mstore\n      keccak256(0x00, 0x20)\n      add\n      dup1\n      sload\n      tag_39\n      swap1\n      tag_31\n      jump\t// in\n    tag_39:\n      dup1\n      0x1f\n      add\n      0x20\n      dup1\n      swap2\n      div\n      mul\n      0x20\n      add\n      mload(0x40)\n      swap1\n      dup2\n      add\n      0x40\n      mstore\n      dup1\n      swap3\n      swap2\n      swap1\n      dup2\n      dup2\n      mstore\n      0x20\n      add\n      dup3\n      dup1\n      sload\n      tag_40\n      swap1\n      tag_31\n      jump\t// in\n    tag_40:\n      dup1\n      iszero\n      tag_41\n      jumpi\n      dup1\n      0x1f\n      lt\n      tag_42\n      jumpi\n      0x0100\n      dup1\n      dup4\n      sload\n      div\n      mul\n      dup4\n      mstore\n      swap2\n      0x20\n      add\n      swap2\n      jump(tag_41)\n    tag_42:\n      dup3\n      add\n      swap2\n      swap1\n      0x00\n      mstore\n      keccak256(0x00, 0x20)\n      swap1\n    tag_43:\n      dup2\n      sload\n      dup2\n      mstore\n      swap1\n      0x01\n      add\n      swap1\n      0x20\n      add\n      dup1\n      dup4\n      gt\n      tag_43\n      jumpi\n      dup3\n      swap1\n      sub\n      0x1f\n      and\n      dup3\n      add\n      swap2\n    tag_41:\n      pop\n      pop\n      pop\n      pop\n      pop\n      dup2\n      mstore\n      0x20\n      add\n      swap1\n      0x01\n      add\n      swap1\n      jump(tag_36)\n    tag_37:\n      pop\n      pop\n      pop\n      pop\n      dup2\n      mstore\n      pop\n      pop\n      dup2\n      mstore\n      0x20\n      add\n      swap1\n      0x01\n      add\n      swap1\n      jump(tag_27)\n    tag_28:\n      pop\n      pop\n      pop\n      pop\n      swap1\n      pop\n        /* \"contracts-lecture/230509-1.sol\":1413:1493  function getAll() public view returns(ABC[] memory) {... */\n      swap1\n      jump\t// out\n        /* \"contracts-lecture/230509-1.sol\":1316:1407  function getABC(uint _n) public view returns(ABC memory) {... */\n    tag_14:\n        /* \"contracts-lecture/230509-1.sol\":1361:1371  ABC memory */\n      tag_44\n      tag_45\n      jump\t// in\n    tag_44:\n        /* \"contracts-lecture/230509-1.sol\":1390:1394  ABCs */\n      0x00\n        /* \"contracts-lecture/230509-1.sol\":1398:1399  1 */\n      0x01\n        /* \"contracts-lecture/230509-1.sol\":1395:1397  _n */\n      dup4\n        /* \"contracts-lecture/230509-1.sol\":1395:1399  _n-1 */\n      tag_47\n      swap2\n      swap1\n      tag_48\n      jump\t// in\n    tag_47:\n        /* \"contracts-lecture/230509-1.sol\":1390:1400  ABCs[_n-1] */\n      dup2\n      sload\n      dup2\n      lt\n      tag_49\n      jumpi\n      tag_50\n      tag_51\n      jump\t// in\n    tag_50:\n    tag_49:\n      swap1\n      0x00\n      mstore\n      keccak256(0x00, 0x20)\n      swap1\n      0x03\n      mul\n      add\n        /* \"contracts-lecture/230509-1.sol\":1383:1400  return ABCs[_n-1] */\n      mload(0x40)\n      dup1\n      0x60\n      add\n      0x40\n      mstore\n      swap1\n      dup2\n      0x00\n      dup3\n      add\n      sload\n      dup2\n      mstore\n      0x20\n      add\n      0x01\n      dup3\n      add\n      dup1\n      sload\n      tag_53\n      swap1\n      tag_31\n      jump\t// in\n    tag_53:\n      dup1\n      0x1f\n      add\n      0x20\n      dup1\n      swap2\n      div\n      mul\n      0x20\n      add\n      mload(0x40)\n      swap1\n      dup2\n      add\n      0x40\n      mstore\n      dup1\n      swap3\n      swap2\n      swap1\n      dup2\n      dup2\n      mstore\n      0x20\n      add\n      dup3\n      dup1\n      sload\n      tag_54\n      swap1\n      tag_31\n      jump\t// in\n    tag_54:\n      dup1\n      iszero\n      tag_55\n      jumpi\n      dup1\n      0x1f\n      lt\n      tag_56\n      jumpi\n      0x0100\n      dup1\n      dup4\n      sload\n      div\n      mul\n      dup4\n      mstore\n      swap2\n      0x20\n      add\n      swap2\n      jump(tag_55)\n    tag_56:\n      dup3\n      add\n      swap2\n      swap1\n      0x00\n      mstore\n      keccak256(0x00, 0x20)\n      swap1\n    tag_57:\n      dup2\n      sload\n      dup2\n      mstore\n      swap1\n      0x01\n      add\n      swap1\n      0x20\n      add\n      dup1\n      dup4\n      gt\n      tag_57\n      jumpi\n      dup3\n      swap1\n      sub\n      0x1f\n      and\n      dup3\n      add\n      swap2\n    tag_55:\n      pop\n      pop\n      pop\n      pop\n      pop\n      dup2\n      mstore\n      0x20\n      add\n      0x02\n      dup3\n      add\n      dup1\n      sload\n      dup1\n      0x20\n      mul\n      0x20\n      add\n      mload(0x40)\n      swap1\n      dup2\n      add\n      0x40\n      mstore\n      dup1\n      swap3\n      swap2\n      swap1\n      dup2\n      dup2\n      mstore\n      0x20\n      add\n      0x00\n      swap1\n    tag_58:\n      dup3\n      dup3\n      lt\n      iszero\n      tag_59\n      jumpi\n      dup4\n      dup3\n      swap1\n      0x00\n      mstore\n      keccak256(0x00, 0x20)\n      add\n      dup1\n      sload\n      tag_61\n      swap1\n      tag_31\n      jump\t// in\n    tag_61:\n      dup1\n      0x1f\n      add\n      0x20\n      dup1\n      swap2\n      div\n      mul\n      0x20\n      add\n      mload(0x40)\n      swap1\n      dup2\n      add\n      0x40\n      mstore\n      dup1\n      swap3\n      swap2\n      swap1\n      dup2\n      dup2\n      mstore\n      0x20\n      add\n      dup3\n      dup1\n      sload\n      tag_62\n      swap1\n      tag_31\n      jump\t// in\n    tag_62:\n      dup1\n      iszero\n      tag_63\n      jumpi\n      dup1\n      0x1f\n      lt\n      tag_64\n      jumpi\n      0x0100\n      dup1\n      dup4\n      sload\n      div\n      mul\n      dup4\n      mstore\n      swap2\n      0x20\n      add\n      swap2\n      jump(tag_63)\n    tag_64:\n      dup3\n      add\n      swap2\n      swap1\n      0x00\n      mstore\n      keccak256(0x00, 0x20)\n      swap1\n    tag_65:\n      dup2\n      sload\n      dup2\n      mstore\n      swap1\n      0x01\n      add\n      swap1\n      0x20\n      add\n      dup1\n      dup4\n      gt\n      tag_65\n      jumpi\n      dup3\n      swap1\n      sub\n      0x1f\n      and\n      dup3\n      add\n      swap2\n    tag_63:\n      pop\n      pop\n      pop\n      pop\n      pop\n      dup2\n      mstore\n      0x20\n      add\n      swap1\n      0x01\n      add\n      swap1\n      jump(tag_58)\n    tag_59:\n      pop\n      pop\n      pop\n      pop\n      dup2\n      mstore\n      pop\n      pop\n      swap1\n      pop\n        /* \"contracts-lecture/230509-1.sol\":1316:1407  function getABC(uint _n) public view returns(ABC memory) {... */\n      swap2\n      swap1\n      pop\n      jump\t// out\n        /* \"contracts-lecture/230509-1.sol\":1196:1310  function pushABC(uint _a, string memory _b, string[] memory _c) public {... */\n    tag_20:\n        /* \"contracts-lecture/230509-1.sol\":1277:1281  ABCs */\n      0x00\n        /* \"contracts-lecture/230509-1.sol\":1287:1302  ABC(_a, _b, _c) */\n      mload(0x40)\n      dup1\n      0x60\n      add\n      0x40\n      mstore\n      dup1\n        /* \"contracts-lecture/230509-1.sol\":1291:1293  _a */\n      dup6\n        /* \"contracts-lecture/230509-1.sol\":1287:1302  ABC(_a, _b, _c) */\n      dup2\n      mstore\n      0x20\n      add\n        /* \"contracts-lecture/230509-1.sol\":1295:1297  _b */\n      dup5\n        /* \"contracts-lecture/230509-1.sol\":1287:1302  ABC(_a, _b, _c) */\n      dup2\n      mstore\n      0x20\n      add\n        /* \"contracts-lecture/230509-1.sol\":1299:1301  _c */\n      dup4\n        /* \"contracts-lecture/230509-1.sol\":1287:1302  ABC(_a, _b, _c) */\n      dup2\n      mstore\n      pop\n        /* \"contracts-lecture/230509-1.sol\":1277:1303  ABCs.push(ABC(_a, _b, _c)) */\n      swap1\n      dup1\n      0x01\n      dup2\n      sload\n      add\n      dup1\n      dup3\n      sstore\n      dup1\n      swap2\n      pop\n      pop\n      0x01\n      swap1\n      sub\n      swap1\n      0x00\n      mstore\n      keccak256(0x00, 0x20)\n      swap1\n      0x03\n      mul\n      add\n      0x00\n      swap1\n      swap2\n      swap1\n      swap2\n      swap1\n      swap2\n      pop\n      0x00\n      dup3\n      add\n      mload\n      dup2\n      0x00\n      add\n      sstore\n      0x20\n      dup3\n      add\n      mload\n      dup2\n      0x01\n      add\n      swap1\n      dup2\n      tag_68\n      swap2\n      swap1\n      tag_69\n      jump\t// in\n    tag_68:\n      pop\n      0x40\n      dup3\n      add\n      mload\n      dup2\n      0x02\n      add\n      swap1\n      dup1\n      mload\n      swap1\n      0x20\n      add\n      swap1\n      tag_70\n      swap3\n      swap2\n      swap1\n      tag_71\n      jump\t// in\n    tag_70:\n      pop\n      pop\n      pop\n        /* \"contracts-lecture/230509-1.sol\":1196:1310  function pushABC(uint _a, string memory _b, string[] memory _c) public {... */\n      pop\n      pop\n      pop\n      jump\t// out\n        /* \"contracts-lecture/230509-1.sol\":1499:1595  function getC(uint _n) public view returns(string[] memory) {... */\n    tag_23:\n        /* \"contracts-lecture/230509-1.sol\":1542:1557  string[] memory */\n      0x60\n        /* \"contracts-lecture/230509-1.sol\":1576:1580  ABCs */\n      0x00\n        /* \"contracts-lecture/230509-1.sol\":1584:1585  1 */\n      0x01\n        /* \"contracts-lecture/230509-1.sol\":1581:1583  _n */\n      dup4\n        /* \"contracts-lecture/230509-1.sol\":1581:1585  _n-1 */\n      tag_73\n      swap2\n      swap1\n      tag_48\n      jump\t// in\n    tag_73:\n        /* \"contracts-lecture/230509-1.sol\":1576:1586  ABCs[_n-1] */\n      dup2\n      sload\n      dup2\n      lt\n      tag_74\n      jumpi\n      tag_75\n      tag_51\n      jump\t// in\n    tag_75:\n    tag_74:\n      swap1\n      0x00\n      mstore\n      keccak256(0x00, 0x20)\n      swap1\n      0x03\n      mul\n      add\n        /* \"contracts-lecture/230509-1.sol\":1576:1588  ABCs[_n-1].c */\n      0x02\n      add\n        /* \"contracts-lecture/230509-1.sol\":1569:1588  return ABCs[_n-1].c */\n      dup1\n      sload\n      dup1\n      0x20\n      mul\n      0x20\n      add\n      mload(0x40)\n      swap1\n      dup2\n      add\n      0x40\n      mstore\n      dup1\n      swap3\n      swap2\n      swap1\n      dup2\n      dup2\n      mstore\n      0x20\n      add\n      0x00\n      swap1\n    tag_77:\n      dup3\n      dup3\n      lt\n      iszero\n      tag_78\n      jumpi\n      dup4\n      dup3\n      swap1\n      0x00\n      mstore\n      keccak256(0x00, 0x20)\n      add\n      dup1\n      sload\n      tag_80\n      swap1\n      tag_31\n      jump\t// in\n    tag_80:\n      dup1\n      0x1f\n      add\n      0x20\n      dup1\n      swap2\n      div\n      mul\n      0x20\n      add\n      mload(0x40)\n      swap1\n      dup2\n      add\n      0x40\n      mstore\n      dup1\n      swap3\n      swap2\n      swap1\n      dup2\n      dup2\n      mstore\n      0x20\n      add\n      dup3\n      dup1\n      sload\n      tag_81\n      swap1\n      tag_31\n      jump\t// in\n    tag_81:\n      dup1\n      iszero\n      tag_82\n      jumpi\n      dup1\n      0x1f\n      lt\n      tag_83\n      jumpi\n      0x0100\n      dup1\n      dup4\n      sload\n      div\n      mul\n      dup4\n      mstore\n      swap2\n      0x20\n      add\n      swap2\n      jump(tag_82)\n    tag_83:\n      dup3\n      add\n      swap2\n      swap1\n      0x00\n      mstore\n      keccak256(0x00, 0x20)\n      swap1\n    tag_84:\n      dup2\n      sload\n      dup2\n      mstore\n      swap1\n      0x01\n      add\n      swap1\n      0x20\n      add\n      dup1\n      dup4\n      gt\n      tag_84\n      jumpi\n      dup3\n      swap1\n      sub\n      0x1f\n      and\n      dup3\n      add\n      swap2\n    tag_82:\n      pop\n      pop\n      pop\n      pop\n      pop\n      dup2\n      mstore\n      0x20\n      add\n      swap1\n      0x01\n      add\n      swap1\n      jump(tag_77)\n    tag_78:\n      pop\n      pop\n      pop\n      pop\n      swap1\n      pop\n        /* \"contracts-lecture/230509-1.sol\":1499:1595  function getC(uint _n) public view returns(string[] memory) {... */\n      swap2\n      swap1\n      pop\n      jump\t// out\n    tag_45:\n      mload(0x40)\n      dup1\n      0x60\n      add\n      0x40\n      mstore\n      dup1\n      0x00\n      dup2\n      mstore\n      0x20\n      add\n      0x60\n      dup2\n      mstore\n      0x20\n      add\n      0x60\n      dup2\n      mstore\n      pop\n      swap1\n      jump\t// out\n    tag_71:\n      dup3\n      dup1\n      sload\n      dup3\n      dup3\n      sstore\n      swap1\n      0x00\n      mstore\n      keccak256(0x00, 0x20)\n      swap1\n      dup2\n      add\n      swap3\n      dup3\n      iszero\n      tag_85\n      jumpi\n      swap2\n      0x20\n      mul\n      dup3\n      add\n    tag_86:\n      dup3\n      dup2\n      gt\n      iszero\n      tag_87\n      jumpi\n      dup3\n      mload\n      dup3\n      swap1\n      dup2\n      tag_88\n      swap2\n      swap1\n      tag_69\n      jump\t// in\n    tag_88:\n      pop\n      swap2\n      0x20\n      add\n      swap2\n      swap1\n      0x01\n      add\n      swap1\n      jump(tag_86)\n    tag_87:\n    tag_85:\n      pop\n      swap1\n      pop\n      tag_89\n      swap2\n      swap1\n      tag_90\n      jump\t// in\n    tag_89:\n      pop\n      swap1\n      jump\t// out\n    tag_90:\n    tag_91:\n      dup1\n      dup3\n      gt\n      iszero\n      tag_92\n      jumpi\n      0x00\n      dup2\n      dup2\n      tag_93\n      swap2\n      swap1\n      tag_94\n      jump\t// in\n    tag_93:\n      pop\n      0x01\n      add\n      jump(tag_91)\n    tag_92:\n      pop\n      swap1\n      jump\t// out\n    tag_94:\n      pop\n      dup1\n      sload\n      tag_95\n      swap1\n      tag_31\n      jump\t// in\n    tag_95:\n      0x00\n      dup3\n      sstore\n      dup1\n      0x1f\n      lt\n      tag_97\n      jumpi\n      pop\n      jump(tag_96)\n    tag_97:\n      0x1f\n      add\n      0x20\n      swap1\n      div\n      swap1\n      0x00\n      mstore\n      keccak256(0x00, 0x20)\n      swap1\n      dup2\n      add\n      swap1\n      tag_98\n      swap2\n      swap1\n      tag_99\n      jump\t// in\n    tag_98:\n    tag_96:\n      pop\n      jump\t// out\n    tag_99:\n    tag_100:\n      dup1\n      dup3\n      gt\n      iszero\n      tag_101\n      jumpi\n      0x00\n      dup2\n      0x00\n      swap1\n      sstore\n      pop\n      0x01\n      add\n      jump(tag_100)\n    tag_101:\n      pop\n      swap1\n      jump\t// out\n        /* \"#utility.yul\":7:141   */\n    tag_102:\n        /* \"#utility.yul\":94:100   */\n      0x00\n        /* \"#utility.yul\":128:133   */\n      dup2\n        /* \"#utility.yul\":122:134   */\n      mload\n        /* \"#utility.yul\":112:134   */\n      swap1\n      pop\n        /* \"#utility.yul\":7:141   */\n      swap2\n      swap1\n      pop\n      jump\t// out\n        /* \"#utility.yul\":147:351   */\n    tag_103:\n        /* \"#utility.yul\":266:277   */\n      0x00\n        /* \"#utility.yul\":300:306   */\n      dup3\n        /* \"#utility.yul\":295:298   */\n      dup3\n        /* \"#utility.yul\":288:307   */\n      mstore\n        /* \"#utility.yul\":340:344   */\n      0x20\n        /* \"#utility.yul\":335:338   */\n      dup3\n        /* \"#utility.yul\":331:345   */\n      add\n        /* \"#utility.yul\":316:345   */\n      swap1\n      pop\n        /* \"#utility.yul\":147:351   */\n      swap3\n      swap2\n      pop\n      pop\n      jump\t// out\n        /* \"#utility.yul\":357:509   */\n    tag_104:\n        /* \"#utility.yul\":444:448   */\n      0x00\n        /* \"#utility.yul\":467:470   */\n      dup2\n        /* \"#utility.yul\":459:470   */\n      swap1\n      pop\n        /* \"#utility.yul\":497:501   */\n      0x20\n        /* \"#utility.yul\":492:495   */\n      dup3\n        /* \"#utility.yul\":488:502   */\n      add\n        /* \"#utility.yul\":480:502   */\n      swap1\n      pop\n        /* \"#utility.yul\":357:509   */\n      swap2\n      swap1\n      pop\n      jump\t// out\n        /* \"#utility.yul\":515:592   */\n    tag_105:\n        /* \"#utility.yul\":552:559   */\n      0x00\n        /* \"#utility.yul\":581:586   */\n      dup2\n        /* \"#utility.yul\":570:586   */\n      swap1\n      pop\n        /* \"#utility.yul\":515:592   */\n      swap2\n      swap1\n      pop\n      jump\t// out\n        /* \"#utility.yul\":598:706   */\n    tag_106:\n        /* \"#utility.yul\":675:699   */\n      tag_166\n        /* \"#utility.yul\":693:698   */\n      dup2\n        /* \"#utility.yul\":675:699   */\n      tag_105\n      jump\t// in\n    tag_166:\n        /* \"#utility.yul\":670:673   */\n      dup3\n        /* \"#utility.yul\":663:700   */\n      mstore\n        /* \"#utility.yul\":598:706   */\n      pop\n      pop\n      jump\t// out\n        /* \"#utility.yul\":712:811   */\n    tag_107:\n        /* \"#utility.yul\":764:770   */\n      0x00\n        /* \"#utility.yul\":798:803   */\n      dup2\n        /* \"#utility.yul\":792:804   */\n      mload\n        /* \"#utility.yul\":782:804   */\n      swap1\n      pop\n        /* \"#utility.yul\":712:811   */\n      swap2\n      swap1\n      pop\n      jump\t// out\n        /* \"#utility.yul\":817:976   */\n    tag_108:\n        /* \"#utility.yul\":891:902   */\n      0x00\n        /* \"#utility.yul\":925:931   */\n      dup3\n        /* \"#utility.yul\":920:923   */\n      dup3\n        /* \"#utility.yul\":913:932   */\n      mstore\n        /* \"#utility.yul\":965:969   */\n      0x20\n        /* \"#utility.yul\":960:963   */\n      dup3\n        /* \"#utility.yul\":956:970   */\n      add\n        /* \"#utility.yul\":941:970   */\n      swap1\n      pop\n        /* \"#utility.yul\":817:976   */\n      swap3\n      swap2\n      pop\n      pop\n      jump\t// out\n        /* \"#utility.yul\":982:1228   */\n    tag_109:\n        /* \"#utility.yul\":1063:1064   */\n      0x00\n        /* \"#utility.yul\":1073:1186   */\n    tag_170:\n        /* \"#utility.yul\":1087:1093   */\n      dup4\n        /* \"#utility.yul\":1084:1085   */\n      dup2\n        /* \"#utility.yul\":1081:1094   */\n      lt\n        /* \"#utility.yul\":1073:1186   */\n      iszero\n      tag_172\n      jumpi\n        /* \"#utility.yul\":1172:1173   */\n      dup1\n        /* \"#utility.yul\":1167:1170   */\n      dup3\n        /* \"#utility.yul\":1163:1174   */\n      add\n        /* \"#utility.yul\":1157:1175   */\n      mload\n        /* \"#utility.yul\":1153:1154   */\n      dup2\n        /* \"#utility.yul\":1148:1151   */\n      dup5\n        /* \"#utility.yul\":1144:1155   */\n      add\n        /* \"#utility.yul\":1137:1176   */\n      mstore\n        /* \"#utility.yul\":1109:1111   */\n      0x20\n        /* \"#utility.yul\":1106:1107   */\n      dup2\n        /* \"#utility.yul\":1102:1112   */\n      add\n        /* \"#utility.yul\":1097:1112   */\n      swap1\n      pop\n        /* \"#utility.yul\":1073:1186   */\n      jump(tag_170)\n    tag_172:\n        /* \"#utility.yul\":1220:1221   */\n      0x00\n        /* \"#utility.yul\":1211:1217   */\n      dup5\n        /* \"#utility.yul\":1206:1209   */\n      dup5\n        /* \"#utility.yul\":1202:1218   */\n      add\n        /* \"#utility.yul\":1195:1222   */\n      mstore\n        /* \"#utility.yul\":1044:1228   */\n      pop\n        /* \"#utility.yul\":982:1228   */\n      pop\n      pop\n      pop\n      jump\t// out\n        /* \"#utility.yul\":1234:1336   */\n    tag_110:\n        /* \"#utility.yul\":1275:1281   */\n      0x00\n        /* \"#utility.yul\":1326:1328   */\n      0x1f\n        /* \"#utility.yul\":1322:1329   */\n      not\n        /* \"#utility.yul\":1317:1319   */\n      0x1f\n        /* \"#utility.yul\":1310:1315   */\n      dup4\n        /* \"#utility.yul\":1306:1320   */\n      add\n        /* \"#utility.yul\":1302:1330   */\n      and\n        /* \"#utility.yul\":1292:1330   */\n      swap1\n      pop\n        /* \"#utility.yul\":1234:1336   */\n      swap2\n      swap1\n      pop\n      jump\t// out\n        /* \"#utility.yul\":1342:1699   */\n    tag_111:\n        /* \"#utility.yul\":1420:1423   */\n      0x00\n        /* \"#utility.yul\":1448:1487   */\n      tag_175\n        /* \"#utility.yul\":1481:1486   */\n      dup3\n        /* \"#utility.yul\":1448:1487   */\n      tag_107\n      jump\t// in\n    tag_175:\n        /* \"#utility.yul\":1503:1564   */\n      tag_176\n        /* \"#utility.yul\":1557:1563   */\n      dup2\n        /* \"#utility.yul\":1552:1555   */\n      dup6\n        /* \"#utility.yul\":1503:1564   */\n      tag_108\n      jump\t// in\n    tag_176:\n        /* \"#utility.yul\":1496:1564   */\n      swap4\n      pop\n        /* \"#utility.yul\":1573:1638   */\n      tag_177\n        /* \"#utility.yul\":1631:1637   */\n      dup2\n        /* \"#utility.yul\":1626:1629   */\n      dup6\n        /* \"#utility.yul\":1619:1623   */\n      0x20\n        /* \"#utility.yul\":1612:1617   */\n      dup7\n        /* \"#utility.yul\":1608:1624   */\n      add\n        /* \"#utility.yul\":1573:1638   */\n      tag_109\n      jump\t// in\n    tag_177:\n        /* \"#utility.yul\":1663:1692   */\n      tag_178\n        /* \"#utility.yul\":1685:1691   */\n      dup2\n        /* \"#utility.yul\":1663:1692   */\n      tag_110\n      jump\t// in\n    tag_178:\n        /* \"#utility.yul\":1658:1661   */\n      dup5\n        /* \"#utility.yul\":1654:1693   */\n      add\n        /* \"#utility.yul\":1647:1693   */\n      swap2\n      pop\n        /* \"#utility.yul\":1424:1699   */\n      pop\n        /* \"#utility.yul\":1342:1699   */\n      swap3\n      swap2\n      pop\n      pop\n      jump\t// out\n        /* \"#utility.yul\":1705:1829   */\n    tag_112:\n        /* \"#utility.yul\":1782:1788   */\n      0x00\n        /* \"#utility.yul\":1816:1821   */\n      dup2\n        /* \"#utility.yul\":1810:1822   */\n      mload\n        /* \"#utility.yul\":1800:1822   */\n      swap1\n      pop\n        /* \"#utility.yul\":1705:1829   */\n      swap2\n      swap1\n      pop\n      jump\t// out\n        /* \"#utility.yul\":1835:2019   */\n    tag_113:\n        /* \"#utility.yul\":1934:1945   */\n      0x00\n        /* \"#utility.yul\":1968:1974   */\n      dup3\n        /* \"#utility.yul\":1963:1966   */\n      dup3\n        /* \"#utility.yul\":1956:1975   */\n      mstore\n        /* \"#utility.yul\":2008:2012   */\n      0x20\n        /* \"#utility.yul\":2003:2006   */\n      dup3\n        /* \"#utility.yul\":1999:2013   */\n      add\n        /* \"#utility.yul\":1984:2013   */\n      swap1\n      pop\n        /* \"#utility.yul\":1835:2019   */\n      swap3\n      swap2\n      pop\n      pop\n      jump\t// out\n        /* \"#utility.yul\":2025:2167   */\n    tag_114:\n        /* \"#utility.yul\":2102:2106   */\n      0x00\n        /* \"#utility.yul\":2125:2128   */\n      dup2\n        /* \"#utility.yul\":2117:2128   */\n      swap1\n      pop\n        /* \"#utility.yul\":2155:2159   */\n      0x20\n        /* \"#utility.yul\":2150:2153   */\n      dup3\n        /* \"#utility.yul\":2146:2160   */\n      add\n        /* \"#utility.yul\":2138:2160   */\n      swap1\n      pop\n        /* \"#utility.yul\":2025:2167   */\n      swap2\n      swap1\n      pop\n      jump\t// out\n        /* \"#utility.yul\":2173:2369   */\n    tag_115:\n        /* \"#utility.yul\":2262:2272   */\n      0x00\n        /* \"#utility.yul\":2297:2363   */\n      tag_183\n        /* \"#utility.yul\":2359:2362   */\n      dup4\n        /* \"#utility.yul\":2351:2357   */\n      dup4\n        /* \"#utility.yul\":2297:2363   */\n      tag_111\n      jump\t// in\n    tag_183:\n        /* \"#utility.yul\":2283:2363   */\n      swap1\n      pop\n        /* \"#utility.yul\":2173:2369   */\n      swap3\n      swap2\n      pop\n      pop\n      jump\t// out\n        /* \"#utility.yul\":2375:2498   */\n    tag_116:\n        /* \"#utility.yul\":2455:2459   */\n      0x00\n        /* \"#utility.yul\":2487:2491   */\n      0x20\n        /* \"#utility.yul\":2482:2485   */\n      dup3\n        /* \"#utility.yul\":2478:2492   */\n      add\n        /* \"#utility.yul\":2470:2492   */\n      swap1\n      pop\n        /* \"#utility.yul\":2375:2498   */\n      swap2\n      swap1\n      pop\n      jump\t// out\n        /* \"#utility.yul\":2532:3503   */\n    tag_117:\n        /* \"#utility.yul\":2661:2664   */\n      0x00\n        /* \"#utility.yul\":2690:2754   */\n      tag_186\n        /* \"#utility.yul\":2748:2753   */\n      dup3\n        /* \"#utility.yul\":2690:2754   */\n      tag_112\n      jump\t// in\n    tag_186:\n        /* \"#utility.yul\":2770:2856   */\n      tag_187\n        /* \"#utility.yul\":2849:2855   */\n      dup2\n        /* \"#utility.yul\":2844:2847   */\n      dup6\n        /* \"#utility.yul\":2770:2856   */\n      tag_113\n      jump\t// in\n    tag_187:\n        /* \"#utility.yul\":2763:2856   */\n      swap4\n      pop\n        /* \"#utility.yul\":2882:2885   */\n      dup4\n        /* \"#utility.yul\":2927:2931   */\n      0x20\n        /* \"#utility.yul\":2919:2925   */\n      dup3\n        /* \"#utility.yul\":2915:2932   */\n      mul\n        /* \"#utility.yul\":2910:2913   */\n      dup6\n        /* \"#utility.yul\":2906:2933   */\n      add\n        /* \"#utility.yul\":2957:3023   */\n      tag_188\n        /* \"#utility.yul\":3017:3022   */\n      dup6\n        /* \"#utility.yul\":2957:3023   */\n      tag_114\n      jump\t// in\n    tag_188:\n        /* \"#utility.yul\":3046:3053   */\n      dup1\n        /* \"#utility.yul\":3077:3078   */\n      0x00\n        /* \"#utility.yul\":3062:3458   */\n    tag_189:\n        /* \"#utility.yul\":3087:3093   */\n      dup6\n        /* \"#utility.yul\":3084:3085   */\n      dup2\n        /* \"#utility.yul\":3081:3094   */\n      lt\n        /* \"#utility.yul\":3062:3458   */\n      iszero\n      tag_191\n      jumpi\n        /* \"#utility.yul\":3158:3167   */\n      dup5\n        /* \"#utility.yul\":3152:3156   */\n      dup5\n        /* \"#utility.yul\":3148:3168   */\n      sub\n        /* \"#utility.yul\":3143:3146   */\n      dup10\n        /* \"#utility.yul\":3136:3169   */\n      mstore\n        /* \"#utility.yul\":3209:3215   */\n      dup2\n        /* \"#utility.yul\":3203:3216   */\n      mload\n        /* \"#utility.yul\":3237:3321   */\n      tag_192\n        /* \"#utility.yul\":3316:3320   */\n      dup6\n        /* \"#utility.yul\":3301:3314   */\n      dup3\n        /* \"#utility.yul\":3237:3321   */\n      tag_115\n      jump\t// in\n    tag_192:\n        /* \"#utility.yul\":3229:3321   */\n      swap5\n      pop\n        /* \"#utility.yul\":3344:3414   */\n      tag_193\n        /* \"#utility.yul\":3407:3413   */\n      dup4\n        /* \"#utility.yul\":3344:3414   */\n      tag_116\n      jump\t// in\n    tag_193:\n        /* \"#utility.yul\":3334:3414   */\n      swap3\n      pop\n        /* \"#utility.yul\":3443:3447   */\n      0x20\n        /* \"#utility.yul\":3438:3441   */\n      dup11\n        /* \"#utility.yul\":3434:3448   */\n      add\n        /* \"#utility.yul\":3427:3448   */\n      swap10\n      pop\n        /* \"#utility.yul\":3122:3458   */\n      pop\n        /* \"#utility.yul\":3109:3110   */\n      0x01\n        /* \"#utility.yul\":3106:3107   */\n      dup2\n        /* \"#utility.yul\":3102:3111   */\n      add\n        /* \"#utility.yul\":3097:3111   */\n      swap1\n      pop\n        /* \"#utility.yul\":3062:3458   */\n      jump(tag_189)\n    tag_191:\n        /* \"#utility.yul\":3066:3080   */\n      pop\n        /* \"#utility.yul\":3474:3478   */\n      dup3\n        /* \"#utility.yul\":3467:3478   */\n      swap8\n      pop\n        /* \"#utility.yul\":3494:3497   */\n      dup8\n        /* \"#utility.yul\":3487:3497   */\n      swap6\n      pop\n        /* \"#utility.yul\":2666:3503   */\n      pop\n      pop\n      pop\n      pop\n      pop\n        /* \"#utility.yul\":2532:3503   */\n      swap3\n      swap2\n      pop\n      pop\n      jump\t// out\n        /* \"#utility.yul\":3553:4425   */\n    tag_118:\n        /* \"#utility.yul\":3652:3655   */\n      0x00\n        /* \"#utility.yul\":3688:3692   */\n      0x60\n        /* \"#utility.yul\":3683:3686   */\n      dup4\n        /* \"#utility.yul\":3679:3693   */\n      add\n        /* \"#utility.yul\":3772:3776   */\n      0x00\n        /* \"#utility.yul\":3765:3770   */\n      dup4\n        /* \"#utility.yul\":3761:3777   */\n      add\n        /* \"#utility.yul\":3755:3778   */\n      mload\n        /* \"#utility.yul\":3791:3854   */\n      tag_195\n        /* \"#utility.yul\":3848:3852   */\n      0x00\n        /* \"#utility.yul\":3843:3846   */\n      dup7\n        /* \"#utility.yul\":3839:3853   */\n      add\n        /* \"#utility.yul\":3825:3837   */\n      dup3\n        /* \"#utility.yul\":3791:3854   */\n      tag_106\n      jump\t// in\n    tag_195:\n        /* \"#utility.yul\":3703:3864   */\n      pop\n        /* \"#utility.yul\":3943:3947   */\n      0x20\n        /* \"#utility.yul\":3936:3941   */\n      dup4\n        /* \"#utility.yul\":3932:3948   */\n      add\n        /* \"#utility.yul\":3926:3949   */\n      mload\n        /* \"#utility.yul\":3996:3999   */\n      dup5\n        /* \"#utility.yul\":3990:3994   */\n      dup3\n        /* \"#utility.yul\":3986:4000   */\n      sub\n        /* \"#utility.yul\":3979:3983   */\n      0x20\n        /* \"#utility.yul\":3974:3977   */\n      dup7\n        /* \"#utility.yul\":3970:3984   */\n      add\n        /* \"#utility.yul\":3963:4001   */\n      mstore\n        /* \"#utility.yul\":4022:4095   */\n      tag_196\n        /* \"#utility.yul\":4090:4094   */\n      dup3\n        /* \"#utility.yul\":4076:4088   */\n      dup3\n        /* \"#utility.yul\":4022:4095   */\n      tag_111\n      jump\t// in\n    tag_196:\n        /* \"#utility.yul\":4014:4095   */\n      swap2\n      pop\n        /* \"#utility.yul\":3874:4106   */\n      pop\n        /* \"#utility.yul\":4185:4189   */\n      0x40\n        /* \"#utility.yul\":4178:4183   */\n      dup4\n        /* \"#utility.yul\":4174:4190   */\n      add\n        /* \"#utility.yul\":4168:4191   */\n      mload\n        /* \"#utility.yul\":4238:4241   */\n      dup5\n        /* \"#utility.yul\":4232:4236   */\n      dup3\n        /* \"#utility.yul\":4228:4242   */\n      sub\n        /* \"#utility.yul\":4221:4225   */\n      0x40\n        /* \"#utility.yul\":4216:4219   */\n      dup7\n        /* \"#utility.yul\":4212:4226   */\n      add\n        /* \"#utility.yul\":4205:4243   */\n      mstore\n        /* \"#utility.yul\":4264:4387   */\n      tag_197\n        /* \"#utility.yul\":4382:4386   */\n      dup3\n        /* \"#utility.yul\":4368:4380   */\n      dup3\n        /* \"#utility.yul\":4264:4387   */\n      tag_117\n      jump\t// in\n    tag_197:\n        /* \"#utility.yul\":4256:4387   */\n      swap2\n      pop\n        /* \"#utility.yul\":4116:4398   */\n      pop\n        /* \"#utility.yul\":4415:4419   */\n      dup1\n        /* \"#utility.yul\":4408:4419   */\n      swap2\n      pop\n        /* \"#utility.yul\":3657:4425   */\n      pop\n        /* \"#utility.yul\":3553:4425   */\n      swap3\n      swap2\n      pop\n      pop\n      jump\t// out\n        /* \"#utility.yul\":4431:4667   */\n    tag_119:\n        /* \"#utility.yul\":4540:4550   */\n      0x00\n        /* \"#utility.yul\":4575:4661   */\n      tag_199\n        /* \"#utility.yul\":4657:4660   */\n      dup4\n        /* \"#utility.yul\":4649:4655   */\n      dup4\n        /* \"#utility.yul\":4575:4661   */\n      tag_118\n      jump\t// in\n    tag_199:\n        /* \"#utility.yul\":4561:4661   */\n      swap1\n      pop\n        /* \"#utility.yul\":4431:4667   */\n      swap3\n      swap2\n      pop\n      pop\n      jump\t// out\n        /* \"#utility.yul\":4673:4806   */\n    tag_120:\n        /* \"#utility.yul\":4763:4767   */\n      0x00\n        /* \"#utility.yul\":4795:4799   */\n      0x20\n        /* \"#utility.yul\":4790:4793   */\n      dup3\n        /* \"#utility.yul\":4786:4800   */\n      add\n        /* \"#utility.yul\":4778:4800   */\n      swap1\n      pop\n        /* \"#utility.yul\":4673:4806   */\n      swap2\n      swap1\n      pop\n      jump\t// out\n        /* \"#utility.yul\":4860:5931   */\n    tag_121:\n        /* \"#utility.yul\":5019:5022   */\n      0x00\n        /* \"#utility.yul\":5048:5122   */\n      tag_202\n        /* \"#utility.yul\":5116:5121   */\n      dup3\n        /* \"#utility.yul\":5048:5122   */\n      tag_102\n      jump\t// in\n    tag_202:\n        /* \"#utility.yul\":5138:5244   */\n      tag_203\n        /* \"#utility.yul\":5237:5243   */\n      dup2\n        /* \"#utility.yul\":5232:5235   */\n      dup6\n        /* \"#utility.yul\":5138:5244   */\n      tag_103\n      jump\t// in\n    tag_203:\n        /* \"#utility.yul\":5131:5244   */\n      swap4\n      pop\n        /* \"#utility.yul\":5270:5273   */\n      dup4\n        /* \"#utility.yul\":5315:5319   */\n      0x20\n        /* \"#utility.yul\":5307:5313   */\n      dup3\n        /* \"#utility.yul\":5303:5320   */\n      mul\n        /* \"#utility.yul\":5298:5301   */\n      dup6\n        /* \"#utility.yul\":5294:5321   */\n      add\n        /* \"#utility.yul\":5345:5421   */\n      tag_204\n        /* \"#utility.yul\":5415:5420   */\n      dup6\n        /* \"#utility.yul\":5345:5421   */\n      tag_104\n      jump\t// in\n    tag_204:\n        /* \"#utility.yul\":5444:5451   */\n      dup1\n        /* \"#utility.yul\":5475:5476   */\n      0x00\n        /* \"#utility.yul\":5460:5886   */\n    tag_205:\n        /* \"#utility.yul\":5485:5491   */\n      dup6\n        /* \"#utility.yul\":5482:5483   */\n      dup2\n        /* \"#utility.yul\":5479:5492   */\n      lt\n        /* \"#utility.yul\":5460:5886   */\n      iszero\n      tag_207\n      jumpi\n        /* \"#utility.yul\":5556:5565   */\n      dup5\n        /* \"#utility.yul\":5550:5554   */\n      dup5\n        /* \"#utility.yul\":5546:5566   */\n      sub\n        /* \"#utility.yul\":5541:5544   */\n      dup10\n        /* \"#utility.yul\":5534:5567   */\n      mstore\n        /* \"#utility.yul\":5607:5613   */\n      dup2\n        /* \"#utility.yul\":5601:5614   */\n      mload\n        /* \"#utility.yul\":5635:5739   */\n      tag_208\n        /* \"#utility.yul\":5734:5738   */\n      dup6\n        /* \"#utility.yul\":5719:5732   */\n      dup3\n        /* \"#utility.yul\":5635:5739   */\n      tag_119\n      jump\t// in\n    tag_208:\n        /* \"#utility.yul\":5627:5739   */\n      swap5\n      pop\n        /* \"#utility.yul\":5762:5842   */\n      tag_209\n        /* \"#utility.yul\":5835:5841   */\n      dup4\n        /* \"#utility.yul\":5762:5842   */\n      tag_120\n      jump\t// in\n    tag_209:\n        /* \"#utility.yul\":5752:5842   */\n      swap3\n      pop\n        /* \"#utility.yul\":5871:5875   */\n      0x20\n        /* \"#utility.yul\":5866:5869   */\n      dup11\n        /* \"#utility.yul\":5862:5876   */\n      add\n        /* \"#utility.yul\":5855:5876   */\n      swap10\n      pop\n        /* \"#utility.yul\":5520:5886   */\n      pop\n        /* \"#utility.yul\":5507:5508   */\n      0x01\n        /* \"#utility.yul\":5504:5505   */\n      dup2\n        /* \"#utility.yul\":5500:5509   */\n      add\n        /* \"#utility.yul\":5495:5509   */\n      swap1\n      pop\n        /* \"#utility.yul\":5460:5886   */\n      jump(tag_205)\n    tag_207:\n        /* \"#utility.yul\":5464:5478   */\n      pop\n        /* \"#utility.yul\":5902:5906   */\n      dup3\n        /* \"#utility.yul\":5895:5906   */\n      swap8\n      pop\n        /* \"#utility.yul\":5922:5925   */\n      dup8\n        /* \"#utility.yul\":5915:5925   */\n      swap6\n      pop\n        /* \"#utility.yul\":5024:5931   */\n      pop\n      pop\n      pop\n      pop\n      pop\n        /* \"#utility.yul\":4860:5931   */\n      swap3\n      swap2\n      pop\n      pop\n      jump\t// out\n        /* \"#utility.yul\":5937:6390   */\n    tag_10:\n        /* \"#utility.yul\":6120:6124   */\n      0x00\n        /* \"#utility.yul\":6158:6160   */\n      0x20\n        /* \"#utility.yul\":6147:6156   */\n      dup3\n        /* \"#utility.yul\":6143:6161   */\n      add\n        /* \"#utility.yul\":6135:6161   */\n      swap1\n      pop\n        /* \"#utility.yul\":6207:6216   */\n      dup2\n        /* \"#utility.yul\":6201:6205   */\n      dup2\n        /* \"#utility.yul\":6197:6217   */\n      sub\n        /* \"#utility.yul\":6193:6194   */\n      0x00\n        /* \"#utility.yul\":6182:6191   */\n      dup4\n        /* \"#utility.yul\":6178:6195   */\n      add\n        /* \"#utility.yul\":6171:6218   */\n      mstore\n        /* \"#utility.yul\":6235:6383   */\n      tag_211\n        /* \"#utility.yul\":6378:6382   */\n      dup2\n        /* \"#utility.yul\":6369:6375   */\n      dup5\n        /* \"#utility.yul\":6235:6383   */\n      tag_121\n      jump\t// in\n    tag_211:\n        /* \"#utility.yul\":6227:6383   */\n      swap1\n      pop\n        /* \"#utility.yul\":5937:6390   */\n      swap3\n      swap2\n      pop\n      pop\n      jump\t// out\n        /* \"#utility.yul\":6396:6471   */\n    tag_122:\n        /* \"#utility.yul\":6429:6435   */\n      0x00\n        /* \"#utility.yul\":6462:6464   */\n      0x40\n        /* \"#utility.yul\":6456:6465   */\n      mload\n        /* \"#utility.yul\":6446:6465   */\n      swap1\n      pop\n        /* \"#utility.yul\":6396:6471   */\n      swap1\n      jump\t// out\n        /* \"#utility.yul\":6477:6594   */\n    tag_123:\n        /* \"#utility.yul\":6586:6587   */\n      0x00\n        /* \"#utility.yul\":6583:6584   */\n      dup1\n        /* \"#utility.yul\":6576:6588   */\n      revert\n        /* \"#utility.yul\":6600:6717   */\n    tag_124:\n        /* \"#utility.yul\":6709:6710   */\n      0x00\n        /* \"#utility.yul\":6706:6707   */\n      dup1\n        /* \"#utility.yul\":6699:6711   */\n      revert\n        /* \"#utility.yul\":6723:6845   */\n    tag_125:\n        /* \"#utility.yul\":6796:6820   */\n      tag_216\n        /* \"#utility.yul\":6814:6819   */\n      dup2\n        /* \"#utility.yul\":6796:6820   */\n      tag_105\n      jump\t// in\n    tag_216:\n        /* \"#utility.yul\":6789:6794   */\n      dup2\n        /* \"#utility.yul\":6786:6821   */\n      eq\n        /* \"#utility.yul\":6776:6839   */\n      tag_217\n      jumpi\n        /* \"#utility.yul\":6835:6836   */\n      0x00\n        /* \"#utility.yul\":6832:6833   */\n      dup1\n        /* \"#utility.yul\":6825:6837   */\n      revert\n        /* \"#utility.yul\":6776:6839   */\n    tag_217:\n        /* \"#utility.yul\":6723:6845   */\n      pop\n      jump\t// out\n        /* \"#utility.yul\":6851:6990   */\n    tag_126:\n        /* \"#utility.yul\":6897:6902   */\n      0x00\n        /* \"#utility.yul\":6935:6941   */\n      dup2\n        /* \"#utility.yul\":6922:6942   */\n      calldataload\n        /* \"#utility.yul\":6913:6942   */\n      swap1\n      pop\n        /* \"#utility.yul\":6951:6984   */\n      tag_219\n        /* \"#utility.yul\":6978:6983   */\n      dup2\n        /* \"#utility.yul\":6951:6984   */\n      tag_125\n      jump\t// in\n    tag_219:\n        /* \"#utility.yul\":6851:6990   */\n      swap3\n      swap2\n      pop\n      pop\n      jump\t// out\n        /* \"#utility.yul\":6996:7325   */\n    tag_13:\n        /* \"#utility.yul\":7055:7061   */\n      0x00\n        /* \"#utility.yul\":7104:7106   */\n      0x20\n        /* \"#utility.yul\":7092:7101   */\n      dup3\n        /* \"#utility.yul\":7083:7090   */\n      dup5\n        /* \"#utility.yul\":7079:7102   */\n      sub\n        /* \"#utility.yul\":7075:7107   */\n      slt\n        /* \"#utility.yul\":7072:7191   */\n      iszero\n      tag_221\n      jumpi\n        /* \"#utility.yul\":7110:7189   */\n      tag_222\n      tag_123\n      jump\t// in\n    tag_222:\n        /* \"#utility.yul\":7072:7191   */\n    tag_221:\n        /* \"#utility.yul\":7230:7231   */\n      0x00\n        /* \"#utility.yul\":7255:7308   */\n      tag_223\n        /* \"#utility.yul\":7300:7307   */\n      dup5\n        /* \"#utility.yul\":7291:7297   */\n      dup3\n        /* \"#utility.yul\":7280:7289   */\n      dup6\n        /* \"#utility.yul\":7276:7298   */\n      add\n        /* \"#utility.yul\":7255:7308   */\n      tag_126\n      jump\t// in\n    tag_223:\n        /* \"#utility.yul\":7245:7308   */\n      swap2\n      pop\n        /* \"#utility.yul\":7201:7318   */\n      pop\n        /* \"#utility.yul\":6996:7325   */\n      swap3\n      swap2\n      pop\n      pop\n      jump\t// out\n        /* \"#utility.yul\":7375:8257   */\n    tag_127:\n        /* \"#utility.yul\":7484:7487   */\n      0x00\n        /* \"#utility.yul\":7520:7524   */\n      0x60\n        /* \"#utility.yul\":7515:7518   */\n      dup4\n        /* \"#utility.yul\":7511:7525   */\n      add\n        /* \"#utility.yul\":7604:7608   */\n      0x00\n        /* \"#utility.yul\":7597:7602   */\n      dup4\n        /* \"#utility.yul\":7593:7609   */\n      add\n        /* \"#utility.yul\":7587:7610   */\n      mload\n        /* \"#utility.yul\":7623:7686   */\n      tag_225\n        /* \"#utility.yul\":7680:7684   */\n      0x00\n        /* \"#utility.yul\":7675:7678   */\n      dup7\n        /* \"#utility.yul\":7671:7685   */\n      add\n        /* \"#utility.yul\":7657:7669   */\n      dup3\n        /* \"#utility.yul\":7623:7686   */\n      tag_106\n      jump\t// in\n    tag_225:\n        /* \"#utility.yul\":7535:7696   */\n      pop\n        /* \"#utility.yul\":7775:7779   */\n      0x20\n        /* \"#utility.yul\":7768:7773   */\n      dup4\n        /* \"#utility.yul\":7764:7780   */\n      add\n        /* \"#utility.yul\":7758:7781   */\n      mload\n        /* \"#utility.yul\":7828:7831   */\n      dup5\n        /* \"#utility.yul\":7822:7826   */\n      dup3\n        /* \"#utility.yul\":7818:7832   */\n      sub\n        /* \"#utility.yul\":7811:7815   */\n      0x20\n        /* \"#utility.yul\":7806:7809   */\n      dup7\n        /* \"#utility.yul\":7802:7816   */\n      add\n        /* \"#utility.yul\":7795:7833   */\n      mstore\n        /* \"#utility.yul\":7854:7927   */\n      tag_226\n        /* \"#utility.yul\":7922:7926   */\n      dup3\n        /* \"#utility.yul\":7908:7920   */\n      dup3\n        /* \"#utility.yul\":7854:7927   */\n      tag_111\n      jump\t// in\n    tag_226:\n        /* \"#utility.yul\":7846:7927   */\n      swap2\n      pop\n        /* \"#utility.yul\":7706:7938   */\n      pop\n        /* \"#utility.yul\":8017:8021   */\n      0x40\n        /* \"#utility.yul\":8010:8015   */\n      dup4\n        /* \"#utility.yul\":8006:8022   */\n      add\n        /* \"#utility.yul\":8000:8023   */\n      mload\n        /* \"#utility.yul\":8070:8073   */\n      dup5\n        /* \"#utility.yul\":8064:8068   */\n      dup3\n        /* \"#utility.yul\":8060:8074   */\n      sub\n        /* \"#utility.yul\":8053:8057   */\n      0x40\n        /* \"#utility.yul\":8048:8051   */\n      dup7\n        /* \"#utility.yul\":8044:8058   */\n      add\n        /* \"#utility.yul\":8037:8075   */\n      mstore\n        /* \"#utility.yul\":8096:8219   */\n      tag_227\n        /* \"#utility.yul\":8214:8218   */\n      dup3\n        /* \"#utility.yul\":8200:8212   */\n      dup3\n        /* \"#utility.yul\":8096:8219   */\n      tag_117\n      jump\t// in\n    tag_227:\n        /* \"#utility.yul\":8088:8219   */\n      swap2\n      pop\n        /* \"#utility.yul\":7948:8230   */\n      pop\n        /* \"#utility.yul\":8247:8251   */\n      dup1\n        /* \"#utility.yul\":8240:8251   */\n      swap2\n      pop\n        /* \"#utility.yul\":7489:8257   */\n      pop\n        /* \"#utility.yul\":7375:8257   */\n      swap3\n      swap2\n      pop\n      pop\n      jump\t// out\n        /* \"#utility.yul\":8263:8616   */\n    tag_16:\n        /* \"#utility.yul\":8396:8400   */\n      0x00\n        /* \"#utility.yul\":8434:8436   */\n      0x20\n        /* \"#utility.yul\":8423:8432   */\n      dup3\n        /* \"#utility.yul\":8419:8437   */\n      add\n        /* \"#utility.yul\":8411:8437   */\n      swap1\n      pop\n        /* \"#utility.yul\":8483:8492   */\n      dup2\n        /* \"#utility.yul\":8477:8481   */\n      dup2\n        /* \"#utility.yul\":8473:8493   */\n      sub\n        /* \"#utility.yul\":8469:8470   */\n      0x00\n        /* \"#utility.yul\":8458:8467   */\n      dup4\n        /* \"#utility.yul\":8454:8471   */\n      add\n        /* \"#utility.yul\":8447:8494   */\n      mstore\n        /* \"#utility.yul\":8511:8609   */\n      tag_229\n        /* \"#utility.yul\":8604:8608   */\n      dup2\n        /* \"#utility.yul\":8595:8601   */\n      dup5\n        /* \"#utility.yul\":8511:8609   */\n      tag_127\n      jump\t// in\n    tag_229:\n        /* \"#utility.yul\":8503:8609   */\n      swap1\n      pop\n        /* \"#utility.yul\":8263:8616   */\n      swap3\n      swap2\n      pop\n      pop\n      jump\t// out\n        /* \"#utility.yul\":8622:8739   */\n    tag_128:\n        /* \"#utility.yul\":8731:8732   */\n      0x00\n        /* \"#utility.yul\":8728:8729   */\n      dup1\n        /* \"#utility.yul\":8721:8733   */\n      revert\n        /* \"#utility.yul\":8745:8862   */\n    tag_129:\n        /* \"#utility.yul\":8854:8855   */\n      0x00\n        /* \"#utility.yul\":8851:8852   */\n      dup1\n        /* \"#utility.yul\":8844:8856   */\n      revert\n        /* \"#utility.yul\":8868:9048   */\n    tag_130:\n        /* \"#utility.yul\":8916:8993   */\n      0x4e487b7100000000000000000000000000000000000000000000000000000000\n        /* \"#utility.yul\":8913:8914   */\n      0x00\n        /* \"#utility.yul\":8906:8994   */\n      mstore\n        /* \"#utility.yul\":9013:9017   */\n      0x41\n        /* \"#utility.yul\":9010:9011   */\n      0x04\n        /* \"#utility.yul\":9003:9018   */\n      mstore\n        /* \"#utility.yul\":9037:9041   */\n      0x24\n        /* \"#utility.yul\":9034:9035   */\n      0x00\n        /* \"#utility.yul\":9027:9042   */\n      revert\n        /* \"#utility.yul\":9054:9335   */\n    tag_131:\n        /* \"#utility.yul\":9137:9164   */\n      tag_234\n        /* \"#utility.yul\":9159:9163   */\n      dup3\n        /* \"#utility.yul\":9137:9164   */\n      tag_110\n      jump\t// in\n    tag_234:\n        /* \"#utility.yul\":9129:9135   */\n      dup2\n        /* \"#utility.yul\":9125:9165   */\n      add\n        /* \"#utility.yul\":9267:9273   */\n      dup2\n        /* \"#utility.yul\":9255:9265   */\n      dup2\n        /* \"#utility.yul\":9252:9274   */\n      lt\n        /* \"#utility.yul\":9231:9249   */\n      0xffffffffffffffff\n        /* \"#utility.yul\":9219:9229   */\n      dup3\n        /* \"#utility.yul\":9216:9250   */\n      gt\n        /* \"#utility.yul\":9213:9275   */\n      or\n        /* \"#utility.yul\":9210:9298   */\n      iszero\n      tag_235\n      jumpi\n        /* \"#utility.yul\":9278:9296   */\n      tag_236\n      tag_130\n      jump\t// in\n    tag_236:\n        /* \"#utility.yul\":9210:9298   */\n    tag_235:\n        /* \"#utility.yul\":9318:9328   */\n      dup1\n        /* \"#utility.yul\":9314:9316   */\n      0x40\n        /* \"#utility.yul\":9307:9329   */\n      mstore\n        /* \"#utility.yul\":9097:9335   */\n      pop\n        /* \"#utility.yul\":9054:9335   */\n      pop\n      pop\n      jump\t// out\n        /* \"#utility.yul\":9341:9470   */\n    tag_132:\n        /* \"#utility.yul\":9375:9381   */\n      0x00\n        /* \"#utility.yul\":9402:9422   */\n      tag_238\n      tag_122\n      jump\t// in\n    tag_238:\n        /* \"#utility.yul\":9392:9422   */\n      swap1\n      pop\n        /* \"#utility.yul\":9431:9464   */\n      tag_239\n        /* \"#utility.yul\":9459:9463   */\n      dup3\n        /* \"#utility.yul\":9451:9457   */\n      dup3\n        /* \"#utility.yul\":9431:9464   */\n      tag_131\n      jump\t// in\n    tag_239:\n        /* \"#utility.yul\":9341:9470   */\n      swap2\n      swap1\n      pop\n      jump\t// out\n        /* \"#utility.yul\":9476:9784   */\n    tag_133:\n        /* \"#utility.yul\":9538:9542   */\n      0x00\n        /* \"#utility.yul\":9628:9646   */\n      0xffffffffffffffff\n        /* \"#utility.yul\":9620:9626   */\n      dup3\n        /* \"#utility.yul\":9617:9647   */\n      gt\n        /* \"#utility.yul\":9614:9670   */\n      iszero\n      tag_241\n      jumpi\n        /* \"#utility.yul\":9650:9668   */\n      tag_242\n      tag_130\n      jump\t// in\n    tag_242:\n        /* \"#utility.yul\":9614:9670   */\n    tag_241:\n        /* \"#utility.yul\":9688:9717   */\n      tag_243\n        /* \"#utility.yul\":9710:9716   */\n      dup3\n        /* \"#utility.yul\":9688:9717   */\n      tag_110\n      jump\t// in\n    tag_243:\n        /* \"#utility.yul\":9680:9717   */\n      swap1\n      pop\n        /* \"#utility.yul\":9772:9776   */\n      0x20\n        /* \"#utility.yul\":9766:9770   */\n      dup2\n        /* \"#utility.yul\":9762:9777   */\n      add\n        /* \"#utility.yul\":9754:9777   */\n      swap1\n      pop\n        /* \"#utility.yul\":9476:9784   */\n      swap2\n      swap1\n      pop\n      jump\t// out\n        /* \"#utility.yul\":9790:9936   */\n    tag_134:\n        /* \"#utility.yul\":9887:9893   */\n      dup3\n        /* \"#utility.yul\":9882:9885   */\n      dup2\n        /* \"#utility.yul\":9877:9880   */\n      dup4\n        /* \"#utility.yul\":9864:9894   */\n      calldatacopy\n        /* \"#utility.yul\":9928:9929   */\n      0x00\n        /* \"#utility.yul\":9919:9925   */\n      dup4\n        /* \"#utility.yul\":9914:9917   */\n      dup4\n        /* \"#utility.yul\":9910:9926   */\n      add\n        /* \"#utility.yul\":9903:9930   */\n      mstore\n        /* \"#utility.yul\":9790:9936   */\n      pop\n      pop\n      pop\n      jump\t// out\n        /* \"#utility.yul\":9942:10367   */\n    tag_135:\n        /* \"#utility.yul\":10020:10025   */\n      0x00\n        /* \"#utility.yul\":10045:10111   */\n      tag_246\n        /* \"#utility.yul\":10061:10110   */\n      tag_247\n        /* \"#utility.yul\":10103:10109   */\n      dup5\n        /* \"#utility.yul\":10061:10110   */\n      tag_133\n      jump\t// in\n    tag_247:\n        /* \"#utility.yul\":10045:10111   */\n      tag_132\n      jump\t// in\n    tag_246:\n        /* \"#utility.yul\":10036:10111   */\n      swap1\n      pop\n        /* \"#utility.yul\":10134:10140   */\n      dup3\n        /* \"#utility.yul\":10127:10132   */\n      dup2\n        /* \"#utility.yul\":10120:10141   */\n      mstore\n        /* \"#utility.yul\":10172:10176   */\n      0x20\n        /* \"#utility.yul\":10165:10170   */\n      dup2\n        /* \"#utility.yul\":10161:10177   */\n      add\n        /* \"#utility.yul\":10210:10213   */\n      dup5\n        /* \"#utility.yul\":10201:10207   */\n      dup5\n        /* \"#utility.yul\":10196:10199   */\n      dup5\n        /* \"#utility.yul\":10192:10208   */\n      add\n        /* \"#utility.yul\":10189:10214   */\n      gt\n        /* \"#utility.yul\":10186:10298   */\n      iszero\n      tag_248\n      jumpi\n        /* \"#utility.yul\":10217:10296   */\n      tag_249\n      tag_129\n      jump\t// in\n    tag_249:\n        /* \"#utility.yul\":10186:10298   */\n    tag_248:\n        /* \"#utility.yul\":10307:10361   */\n      tag_250\n        /* \"#utility.yul\":10354:10360   */\n      dup5\n        /* \"#utility.yul\":10349:10352   */\n      dup3\n        /* \"#utility.yul\":10344:10347   */\n      dup6\n        /* \"#utility.yul\":10307:10361   */\n      tag_134\n      jump\t// in\n    tag_250:\n        /* \"#utility.yul\":10026:10367   */\n      pop\n        /* \"#utility.yul\":9942:10367   */\n      swap4\n      swap3\n      pop\n      pop\n      pop\n      jump\t// out\n        /* \"#utility.yul\":10387:10727   */\n    tag_136:\n        /* \"#utility.yul\":10443:10448   */\n      0x00\n        /* \"#utility.yul\":10492:10495   */\n      dup3\n        /* \"#utility.yul\":10485:10489   */\n      0x1f\n        /* \"#utility.yul\":10477:10483   */\n      dup4\n        /* \"#utility.yul\":10473:10490   */\n      add\n        /* \"#utility.yul\":10469:10496   */\n      slt\n        /* \"#utility.yul\":10459:10581   */\n      tag_252\n      jumpi\n        /* \"#utility.yul\":10500:10579   */\n      tag_253\n      tag_128\n      jump\t// in\n    tag_253:\n        /* \"#utility.yul\":10459:10581   */\n    tag_252:\n        /* \"#utility.yul\":10617:10623   */\n      dup2\n        /* \"#utility.yul\":10604:10624   */\n      calldataload\n        /* \"#utility.yul\":10642:10721   */\n      tag_254\n        /* \"#utility.yul\":10717:10720   */\n      dup5\n        /* \"#utility.yul\":10709:10715   */\n      dup3\n        /* \"#utility.yul\":10702:10706   */\n      0x20\n        /* \"#utility.yul\":10694:10700   */\n      dup7\n        /* \"#utility.yul\":10690:10707   */\n      add\n        /* \"#utility.yul\":10642:10721   */\n      tag_135\n      jump\t// in\n    tag_254:\n        /* \"#utility.yul\":10633:10721   */\n      swap2\n      pop\n        /* \"#utility.yul\":10449:10727   */\n      pop\n        /* \"#utility.yul\":10387:10727   */\n      swap3\n      swap2\n      pop\n      pop\n      jump\t// out\n        /* \"#utility.yul\":10733:11054   */\n    tag_137:\n        /* \"#utility.yul\":10820:10824   */\n      0x00\n        /* \"#utility.yul\":10910:10928   */\n      0xffffffffffffffff\n        /* \"#utility.yul\":10902:10908   */\n      dup3\n        /* \"#utility.yul\":10899:10929   */\n      gt\n        /* \"#utility.yul\":10896:10952   */\n      iszero\n      tag_256\n      jumpi\n        /* \"#utility.yul\":10932:10950   */\n      tag_257\n      tag_130\n      jump\t// in\n    tag_257:\n        /* \"#utility.yul\":10896:10952   */\n    tag_256:\n        /* \"#utility.yul\":10982:10986   */\n      0x20\n        /* \"#utility.yul\":10974:10980   */\n      dup3\n        /* \"#utility.yul\":10970:10987   */\n      mul\n        /* \"#utility.yul\":10962:10987   */\n      swap1\n      pop\n        /* \"#utility.yul\":11042:11046   */\n      0x20\n        /* \"#utility.yul\":11036:11040   */\n      dup2\n        /* \"#utility.yul\":11032:11047   */\n      add\n        /* \"#utility.yul\":11024:11047   */\n      swap1\n      pop\n        /* \"#utility.yul\":10733:11054   */\n      swap2\n      swap1\n      pop\n      jump\t// out\n        /* \"#utility.yul\":11060:11177   */\n    tag_138:\n        /* \"#utility.yul\":11169:11170   */\n      0x00\n        /* \"#utility.yul\":11166:11167   */\n      dup1\n        /* \"#utility.yul\":11159:11171   */\n      revert\n        /* \"#utility.yul\":11199:12144   */\n    tag_139:\n        /* \"#utility.yul\":11305:11310   */\n      0x00\n        /* \"#utility.yul\":11330:11421   */\n      tag_260\n        /* \"#utility.yul\":11346:11420   */\n      tag_261\n        /* \"#utility.yul\":11413:11419   */\n      dup5\n        /* \"#utility.yul\":11346:11420   */\n      tag_137\n      jump\t// in\n    tag_261:\n        /* \"#utility.yul\":11330:11421   */\n      tag_132\n      jump\t// in\n    tag_260:\n        /* \"#utility.yul\":11321:11421   */\n      swap1\n      pop\n        /* \"#utility.yul\":11441:11446   */\n      dup1\n        /* \"#utility.yul\":11470:11476   */\n      dup4\n        /* \"#utility.yul\":11463:11468   */\n      dup3\n        /* \"#utility.yul\":11456:11477   */\n      mstore\n        /* \"#utility.yul\":11504:11508   */\n      0x20\n        /* \"#utility.yul\":11497:11502   */\n      dup3\n        /* \"#utility.yul\":11493:11509   */\n      add\n        /* \"#utility.yul\":11486:11509   */\n      swap1\n      pop\n        /* \"#utility.yul\":11557:11561   */\n      0x20\n        /* \"#utility.yul\":11549:11555   */\n      dup5\n        /* \"#utility.yul\":11545:11562   */\n      mul\n        /* \"#utility.yul\":11537:11543   */\n      dup4\n        /* \"#utility.yul\":11533:11563   */\n      add\n        /* \"#utility.yul\":11586:11589   */\n      dup6\n        /* \"#utility.yul\":11578:11584   */\n      dup2\n        /* \"#utility.yul\":11575:11590   */\n      gt\n        /* \"#utility.yul\":11572:11694   */\n      iszero\n      tag_262\n      jumpi\n        /* \"#utility.yul\":11605:11684   */\n      tag_263\n      tag_138\n      jump\t// in\n    tag_263:\n        /* \"#utility.yul\":11572:11694   */\n    tag_262:\n        /* \"#utility.yul\":11720:11726   */\n      dup4\n        /* \"#utility.yul\":11703:12138   */\n    tag_264:\n        /* \"#utility.yul\":11737:11743   */\n      dup2\n        /* \"#utility.yul\":11732:11735   */\n      dup2\n        /* \"#utility.yul\":11729:11744   */\n      lt\n        /* \"#utility.yul\":11703:12138   */\n      iszero\n      tag_266\n      jumpi\n        /* \"#utility.yul\":11826:11829   */\n      dup1\n        /* \"#utility.yul\":11813:11830   */\n      calldataload\n        /* \"#utility.yul\":11862:11880   */\n      0xffffffffffffffff\n        /* \"#utility.yul\":11849:11860   */\n      dup2\n        /* \"#utility.yul\":11846:11881   */\n      gt\n        /* \"#utility.yul\":11843:11965   */\n      iszero\n      tag_267\n      jumpi\n        /* \"#utility.yul\":11884:11963   */\n      tag_268\n      tag_128\n      jump\t// in\n    tag_268:\n        /* \"#utility.yul\":11843:11965   */\n    tag_267:\n        /* \"#utility.yul\":12008:12019   */\n      dup1\n        /* \"#utility.yul\":12000:12006   */\n      dup7\n        /* \"#utility.yul\":11996:12020   */\n      add\n        /* \"#utility.yul\":12046:12093   */\n      tag_269\n        /* \"#utility.yul\":12089:12092   */\n      dup10\n        /* \"#utility.yul\":12077:12087   */\n      dup3\n        /* \"#utility.yul\":12046:12093   */\n      tag_136\n      jump\t// in\n    tag_269:\n        /* \"#utility.yul\":12041:12044   */\n      dup6\n        /* \"#utility.yul\":12034:12094   */\n      mstore\n        /* \"#utility.yul\":12123:12127   */\n      0x20\n        /* \"#utility.yul\":12118:12121   */\n      dup6\n        /* \"#utility.yul\":12114:12128   */\n      add\n        /* \"#utility.yul\":12107:12128   */\n      swap5\n      pop\n        /* \"#utility.yul\":11779:12138   */\n      pop\n      pop\n        /* \"#utility.yul\":11763:11767   */\n      0x20\n        /* \"#utility.yul\":11758:11761   */\n      dup2\n        /* \"#utility.yul\":11754:11768   */\n      add\n        /* \"#utility.yul\":11747:11768   */\n      swap1\n      pop\n        /* \"#utility.yul\":11703:12138   */\n      jump(tag_264)\n    tag_266:\n        /* \"#utility.yul\":11707:11728   */\n      pop\n        /* \"#utility.yul\":11311:12144   */\n      pop\n      pop\n        /* \"#utility.yul\":11199:12144   */\n      swap4\n      swap3\n      pop\n      pop\n      pop\n      jump\t// out\n        /* \"#utility.yul\":12166:12556   */\n    tag_140:\n        /* \"#utility.yul\":12247:12252   */\n      0x00\n        /* \"#utility.yul\":12296:12299   */\n      dup3\n        /* \"#utility.yul\":12289:12293   */\n      0x1f\n        /* \"#utility.yul\":12281:12287   */\n      dup4\n        /* \"#utility.yul\":12277:12294   */\n      add\n        /* \"#utility.yul\":12273:12300   */\n      slt\n        /* \"#utility.yul\":12263:12385   */\n      tag_271\n      jumpi\n        /* \"#utility.yul\":12304:12383   */\n      tag_272\n      tag_128\n      jump\t// in\n    tag_272:\n        /* \"#utility.yul\":12263:12385   */\n    tag_271:\n        /* \"#utility.yul\":12421:12427   */\n      dup2\n        /* \"#utility.yul\":12408:12428   */\n      calldataload\n        /* \"#utility.yul\":12446:12550   */\n      tag_273\n        /* \"#utility.yul\":12546:12549   */\n      dup5\n        /* \"#utility.yul\":12538:12544   */\n      dup3\n        /* \"#utility.yul\":12531:12535   */\n      0x20\n        /* \"#utility.yul\":12523:12529   */\n      dup7\n        /* \"#utility.yul\":12519:12536   */\n      add\n        /* \"#utility.yul\":12446:12550   */\n      tag_139\n      jump\t// in\n    tag_273:\n        /* \"#utility.yul\":12437:12550   */\n      swap2\n      pop\n        /* \"#utility.yul\":12253:12556   */\n      pop\n        /* \"#utility.yul\":12166:12556   */\n      swap3\n      swap2\n      pop\n      pop\n      jump\t// out\n        /* \"#utility.yul\":12562:13591   */\n    tag_19:\n        /* \"#utility.yul\":12684:12690   */\n      0x00\n        /* \"#utility.yul\":12692:12698   */\n      dup1\n        /* \"#utility.yul\":12700:12706   */\n      0x00\n        /* \"#utility.yul\":12749:12751   */\n      0x60\n        /* \"#utility.yul\":12737:12746   */\n      dup5\n        /* \"#utility.yul\":12728:12735   */\n      dup7\n        /* \"#utility.yul\":12724:12747   */\n      sub\n        /* \"#utility.yul\":12720:12752   */\n      slt\n        /* \"#utility.yul\":12717:12836   */\n      iszero\n      tag_275\n      jumpi\n        /* \"#utility.yul\":12755:12834   */\n      tag_276\n      tag_123\n      jump\t// in\n    tag_276:\n        /* \"#utility.yul\":12717:12836   */\n    tag_275:\n        /* \"#utility.yul\":12875:12876   */\n      0x00\n        /* \"#utility.yul\":12900:12953   */\n      tag_277\n        /* \"#utility.yul\":12945:12952   */\n      dup7\n        /* \"#utility.yul\":12936:12942   */\n      dup3\n        /* \"#utility.yul\":12925:12934   */\n      dup8\n        /* \"#utility.yul\":12921:12943   */\n      add\n        /* \"#utility.yul\":12900:12953   */\n      tag_126\n      jump\t// in\n    tag_277:\n        /* \"#utility.yul\":12890:12953   */\n      swap4\n      pop\n        /* \"#utility.yul\":12846:12963   */\n      pop\n        /* \"#utility.yul\":13030:13032   */\n      0x20\n        /* \"#utility.yul\":13019:13028   */\n      dup5\n        /* \"#utility.yul\":13015:13033   */\n      add\n        /* \"#utility.yul\":13002:13034   */\n      calldataload\n        /* \"#utility.yul\":13061:13079   */\n      0xffffffffffffffff\n        /* \"#utility.yul\":13053:13059   */\n      dup2\n        /* \"#utility.yul\":13050:13080   */\n      gt\n        /* \"#utility.yul\":13047:13164   */\n      iszero\n      tag_278\n      jumpi\n        /* \"#utility.yul\":13083:13162   */\n      tag_279\n      tag_124\n      jump\t// in\n    tag_279:\n        /* \"#utility.yul\":13047:13164   */\n    tag_278:\n        /* \"#utility.yul\":13188:13251   */\n      tag_280\n        /* \"#utility.yul\":13243:13250   */\n      dup7\n        /* \"#utility.yul\":13234:13240   */\n      dup3\n        /* \"#utility.yul\":13223:13232   */\n      dup8\n        /* \"#utility.yul\":13219:13241   */\n      add\n        /* \"#utility.yul\":13188:13251   */\n      tag_136\n      jump\t// in\n    tag_280:\n        /* \"#utility.yul\":13178:13251   */\n      swap3\n      pop\n        /* \"#utility.yul\":12973:13261   */\n      pop\n        /* \"#utility.yul\":13328:13330   */\n      0x40\n        /* \"#utility.yul\":13317:13326   */\n      dup5\n        /* \"#utility.yul\":13313:13331   */\n      add\n        /* \"#utility.yul\":13300:13332   */\n      calldataload\n        /* \"#utility.yul\":13359:13377   */\n      0xffffffffffffffff\n        /* \"#utility.yul\":13351:13357   */\n      dup2\n        /* \"#utility.yul\":13348:13378   */\n      gt\n        /* \"#utility.yul\":13345:13462   */\n      iszero\n      tag_281\n      jumpi\n        /* \"#utility.yul\":13381:13460   */\n      tag_282\n      tag_124\n      jump\t// in\n    tag_282:\n        /* \"#utility.yul\":13345:13462   */\n    tag_281:\n        /* \"#utility.yul\":13486:13574   */\n      tag_283\n        /* \"#utility.yul\":13566:13573   */\n      dup7\n        /* \"#utility.yul\":13557:13563   */\n      dup3\n        /* \"#utility.yul\":13546:13555   */\n      dup8\n        /* \"#utility.yul\":13542:13564   */\n      add\n        /* \"#utility.yul\":13486:13574   */\n      tag_140\n      jump\t// in\n    tag_283:\n        /* \"#utility.yul\":13476:13574   */\n      swap2\n      pop\n        /* \"#utility.yul\":13271:13584   */\n      pop\n        /* \"#utility.yul\":12562:13591   */\n      swap3\n      pop\n      swap3\n      pop\n      swap3\n      jump\t// out\n        /* \"#utility.yul\":13597:13791   */\n    tag_141:\n        /* \"#utility.yul\":13706:13717   */\n      0x00\n        /* \"#utility.yul\":13740:13746   */\n      dup3\n        /* \"#utility.yul\":13735:13738   */\n      dup3\n        /* \"#utility.yul\":13728:13747   */\n      mstore\n        /* \"#utility.yul\":13780:13784   */\n      0x20\n        /* \"#utility.yul\":13775:13778   */\n      dup3\n        /* \"#utility.yul\":13771:13785   */\n      add\n        /* \"#utility.yul\":13756:13785   */\n      swap1\n      pop\n        /* \"#utility.yul\":13597:13791   */\n      swap3\n      swap2\n      pop\n      pop\n      jump\t// out\n        /* \"#utility.yul\":13825:14816   */\n    tag_142:\n        /* \"#utility.yul\":13964:13967   */\n      0x00\n        /* \"#utility.yul\":13993:14057   */\n      tag_286\n        /* \"#utility.yul\":14051:14056   */\n      dup3\n        /* \"#utility.yul\":13993:14057   */\n      tag_112\n      jump\t// in\n    tag_286:\n        /* \"#utility.yul\":14073:14169   */\n      tag_287\n        /* \"#utility.yul\":14162:14168   */\n      dup2\n        /* \"#utility.yul\":14157:14160   */\n      dup6\n        /* \"#utility.yul\":14073:14169   */\n      tag_141\n      jump\t// in\n    tag_287:\n        /* \"#utility.yul\":14066:14169   */\n      swap4\n      pop\n        /* \"#utility.yul\":14195:14198   */\n      dup4\n        /* \"#utility.yul\":14240:14244   */\n      0x20\n        /* \"#utility.yul\":14232:14238   */\n      dup3\n        /* \"#utility.yul\":14228:14245   */\n      mul\n        /* \"#utility.yul\":14223:14226   */\n      dup6\n        /* \"#utility.yul\":14219:14246   */\n      add\n        /* \"#utility.yul\":14270:14336   */\n      tag_288\n        /* \"#utility.yul\":14330:14335   */\n      dup6\n        /* \"#utility.yul\":14270:14336   */\n      tag_114\n      jump\t// in\n    tag_288:\n        /* \"#utility.yul\":14359:14366   */\n      dup1\n        /* \"#utility.yul\":14390:14391   */\n      0x00\n        /* \"#utility.yul\":14375:14771   */\n    tag_289:\n        /* \"#utility.yul\":14400:14406   */\n      dup6\n        /* \"#utility.yul\":14397:14398   */\n      dup2\n        /* \"#utility.yul\":14394:14407   */\n      lt\n        /* \"#utility.yul\":14375:14771   */\n      iszero\n      tag_291\n      jumpi\n        /* \"#utility.yul\":14471:14480   */\n      dup5\n        /* \"#utility.yul\":14465:14469   */\n      dup5\n        /* \"#utility.yul\":14461:14481   */\n      sub\n        /* \"#utility.yul\":14456:14459   */\n      dup10\n        /* \"#utility.yul\":14449:14482   */\n      mstore\n        /* \"#utility.yul\":14522:14528   */\n      dup2\n        /* \"#utility.yul\":14516:14529   */\n      mload\n        /* \"#utility.yul\":14550:14634   */\n      tag_292\n        /* \"#utility.yul\":14629:14633   */\n      dup6\n        /* \"#utility.yul\":14614:14627   */\n      dup3\n        /* \"#utility.yul\":14550:14634   */\n      tag_115\n      jump\t// in\n    tag_292:\n        /* \"#utility.yul\":14542:14634   */\n      swap5\n      pop\n        /* \"#utility.yul\":14657:14727   */\n      tag_293\n        /* \"#utility.yul\":14720:14726   */\n      dup4\n        /* \"#utility.yul\":14657:14727   */\n      tag_116\n      jump\t// in\n    tag_293:\n        /* \"#utility.yul\":14647:14727   */\n      swap3\n      pop\n        /* \"#utility.yul\":14756:14760   */\n      0x20\n        /* \"#utility.yul\":14751:14754   */\n      dup11\n        /* \"#utility.yul\":14747:14761   */\n      add\n        /* \"#utility.yul\":14740:14761   */\n      swap10\n      pop\n        /* \"#utility.yul\":14435:14771   */\n      pop\n        /* \"#utility.yul\":14422:14423   */\n      0x01\n        /* \"#utility.yul\":14419:14420   */\n      dup2\n        /* \"#utility.yul\":14415:14424   */\n      add\n        /* \"#utility.yul\":14410:14424   */\n      swap1\n      pop\n        /* \"#utility.yul\":14375:14771   */\n      jump(tag_289)\n    tag_291:\n        /* \"#utility.yul\":14379:14393   */\n      pop\n        /* \"#utility.yul\":14787:14791   */\n      dup3\n        /* \"#utility.yul\":14780:14791   */\n      swap8\n      pop\n        /* \"#utility.yul\":14807:14810   */\n      dup8\n        /* \"#utility.yul\":14800:14810   */\n      swap6\n      pop\n        /* \"#utility.yul\":13969:14816   */\n      pop\n      pop\n      pop\n      pop\n      pop\n        /* \"#utility.yul\":13825:14816   */\n      swap3\n      swap2\n      pop\n      pop\n      jump\t// out\n        /* \"#utility.yul\":14822:15235   */\n    tag_25:\n        /* \"#utility.yul\":14985:14989   */\n      0x00\n        /* \"#utility.yul\":15023:15025   */\n      0x20\n        /* \"#utility.yul\":15012:15021   */\n      dup3\n        /* \"#utility.yul\":15008:15026   */\n      add\n        /* \"#utility.yul\":15000:15026   */\n      swap1\n      pop\n        /* \"#utility.yul\":15072:15081   */\n      dup2\n        /* \"#utility.yul\":15066:15070   */\n      dup2\n        /* \"#utility.yul\":15062:15082   */\n      sub\n        /* \"#utility.yul\":15058:15059   */\n      0x00\n        /* \"#utility.yul\":15047:15056   */\n      dup4\n        /* \"#utility.yul\":15043:15060   */\n      add\n        /* \"#utility.yul\":15036:15083   */\n      mstore\n        /* \"#utility.yul\":15100:15228   */\n      tag_295\n        /* \"#utility.yul\":15223:15227   */\n      dup2\n        /* \"#utility.yul\":15214:15220   */\n      dup5\n        /* \"#utility.yul\":15100:15228   */\n      tag_142\n      jump\t// in\n    tag_295:\n        /* \"#utility.yul\":15092:15228   */\n      swap1\n      pop\n        /* \"#utility.yul\":14822:15235   */\n      swap3\n      swap2\n      pop\n      pop\n      jump\t// out\n        /* \"#utility.yul\":15241:15421   */\n    tag_143:\n        /* \"#utility.yul\":15289:15366   */\n      0x4e487b7100000000000000000000000000000000000000000000000000000000\n        /* \"#utility.yul\":15286:15287   */\n      0x00\n        /* \"#utility.yul\":15279:15367   */\n      mstore\n        /* \"#utility.yul\":15386:15390   */\n      0x22\n        /* \"#utility.yul\":15383:15384   */\n      0x04\n        /* \"#utility.yul\":15376:15391   */\n      mstore\n        /* \"#utility.yul\":15410:15414   */\n      0x24\n        /* \"#utility.yul\":15407:15408   */\n      0x00\n        /* \"#utility.yul\":15400:15415   */\n      revert\n        /* \"#utility.yul\":15427:15747   */\n    tag_31:\n        /* \"#utility.yul\":15471:15477   */\n      0x00\n        /* \"#utility.yul\":15508:15509   */\n      0x02\n        /* \"#utility.yul\":15502:15506   */\n      dup3\n        /* \"#utility.yul\":15498:15510   */\n      div\n        /* \"#utility.yul\":15488:15510   */\n      swap1\n      pop\n        /* \"#utility.yul\":15555:15556   */\n      0x01\n        /* \"#utility.yul\":15549:15553   */\n      dup3\n        /* \"#utility.yul\":15545:15557   */\n      and\n        /* \"#utility.yul\":15576:15594   */\n      dup1\n        /* \"#utility.yul\":15566:15647   */\n      tag_298\n      jumpi\n        /* \"#utility.yul\":15632:15636   */\n      0x7f\n        /* \"#utility.yul\":15624:15630   */\n      dup3\n        /* \"#utility.yul\":15620:15637   */\n      and\n        /* \"#utility.yul\":15610:15637   */\n      swap2\n      pop\n        /* \"#utility.yul\":15566:15647   */\n    tag_298:\n        /* \"#utility.yul\":15694:15696   */\n      0x20\n        /* \"#utility.yul\":15686:15692   */\n      dup3\n        /* \"#utility.yul\":15683:15697   */\n      lt\n        /* \"#utility.yul\":15663:15681   */\n      dup2\n        /* \"#utility.yul\":15660:15698   */\n      sub\n        /* \"#utility.yul\":15657:15741   */\n      tag_299\n      jumpi\n        /* \"#utility.yul\":15713:15731   */\n      tag_300\n      tag_143\n      jump\t// in\n    tag_300:\n        /* \"#utility.yul\":15657:15741   */\n    tag_299:\n        /* \"#utility.yul\":15478:15747   */\n      pop\n        /* \"#utility.yul\":15427:15747   */\n      swap2\n      swap1\n      pop\n      jump\t// out\n        /* \"#utility.yul\":15753:15933   */\n    tag_144:\n        /* \"#utility.yul\":15801:15878   */\n      0x4e487b7100000000000000000000000000000000000000000000000000000000\n        /* \"#utility.yul\":15798:15799   */\n      0x00\n        /* \"#utility.yul\":15791:15879   */\n      mstore\n        /* \"#utility.yul\":15898:15902   */\n      0x11\n        /* \"#utility.yul\":15895:15896   */\n      0x04\n        /* \"#utility.yul\":15888:15903   */\n      mstore\n        /* \"#utility.yul\":15922:15926   */\n      0x24\n        /* \"#utility.yul\":15919:15920   */\n      0x00\n        /* \"#utility.yul\":15912:15927   */\n      revert\n        /* \"#utility.yul\":15939:16133   */\n    tag_48:\n        /* \"#utility.yul\":15979:15983   */\n      0x00\n        /* \"#utility.yul\":15999:16019   */\n      tag_303\n        /* \"#utility.yul\":16017:16018   */\n      dup3\n        /* \"#utility.yul\":15999:16019   */\n      tag_105\n      jump\t// in\n    tag_303:\n        /* \"#utility.yul\":15994:16019   */\n      swap2\n      pop\n        /* \"#utility.yul\":16033:16053   */\n      tag_304\n        /* \"#utility.yul\":16051:16052   */\n      dup4\n        /* \"#utility.yul\":16033:16053   */\n      tag_105\n      jump\t// in\n    tag_304:\n        /* \"#utility.yul\":16028:16053   */\n      swap3\n      pop\n        /* \"#utility.yul\":16077:16078   */\n      dup3\n        /* \"#utility.yul\":16074:16075   */\n      dup3\n        /* \"#utility.yul\":16070:16079   */\n      sub\n        /* \"#utility.yul\":16062:16079   */\n      swap1\n      pop\n        /* \"#utility.yul\":16101:16102   */\n      dup2\n        /* \"#utility.yul\":16095:16099   */\n      dup2\n        /* \"#utility.yul\":16092:16103   */\n      gt\n        /* \"#utility.yul\":16089:16126   */\n      iszero\n      tag_305\n      jumpi\n        /* \"#utility.yul\":16106:16124   */\n      tag_306\n      tag_144\n      jump\t// in\n    tag_306:\n        /* \"#utility.yul\":16089:16126   */\n    tag_305:\n        /* \"#utility.yul\":15939:16133   */\n      swap3\n      swap2\n      pop\n      pop\n      jump\t// out\n        /* \"#utility.yul\":16139:16319   */\n    tag_51:\n        /* \"#utility.yul\":16187:16264   */\n      0x4e487b7100000000000000000000000000000000000000000000000000000000\n        /* \"#utility.yul\":16184:16185   */\n      0x00\n        /* \"#utility.yul\":16177:16265   */\n      mstore\n        /* \"#utility.yul\":16284:16288   */\n      0x32\n        /* \"#utility.yul\":16281:16282   */\n      0x04\n        /* \"#utility.yul\":16274:16289   */\n      mstore\n        /* \"#utility.yul\":16308:16312   */\n      0x24\n        /* \"#utility.yul\":16305:16306   */\n      0x00\n        /* \"#utility.yul\":16298:16313   */\n      revert\n        /* \"#utility.yul\":16325:16466   */\n    tag_145:\n        /* \"#utility.yul\":16374:16378   */\n      0x00\n        /* \"#utility.yul\":16397:16400   */\n      dup2\n        /* \"#utility.yul\":16389:16400   */\n      swap1\n      pop\n        /* \"#utility.yul\":16420:16423   */\n      dup2\n        /* \"#utility.yul\":16417:16418   */\n      0x00\n        /* \"#utility.yul\":16410:16424   */\n      mstore\n        /* \"#utility.yul\":16454:16458   */\n      0x20\n        /* \"#utility.yul\":16451:16452   */\n      0x00\n        /* \"#utility.yul\":16441:16459   */\n      keccak256\n        /* \"#utility.yul\":16433:16459   */\n      swap1\n      pop\n        /* \"#utility.yul\":16325:16466   */\n      swap2\n      swap1\n      pop\n      jump\t// out\n        /* \"#utility.yul\":16472:16565   */\n    tag_146:\n        /* \"#utility.yul\":16509:16515   */\n      0x00\n        /* \"#utility.yul\":16556:16558   */\n      0x20\n        /* \"#utility.yul\":16551:16553   */\n      0x1f\n        /* \"#utility.yul\":16544:16549   */\n      dup4\n        /* \"#utility.yul\":16540:16554   */\n      add\n        /* \"#utility.yul\":16536:16559   */\n      div\n        /* \"#utility.yul\":16526:16559   */\n      swap1\n      pop\n        /* \"#utility.yul\":16472:16565   */\n      swap2\n      swap1\n      pop\n      jump\t// out\n        /* \"#utility.yul\":16571:16678   */\n    tag_147:\n        /* \"#utility.yul\":16615:16623   */\n      0x00\n        /* \"#utility.yul\":16665:16670   */\n      dup3\n        /* \"#utility.yul\":16659:16663   */\n      dup3\n        /* \"#utility.yul\":16655:16671   */\n      shl\n        /* \"#utility.yul\":16634:16671   */\n      swap1\n      pop\n        /* \"#utility.yul\":16571:16678   */\n      swap3\n      swap2\n      pop\n      pop\n      jump\t// out\n        /* \"#utility.yul\":16684:17077   */\n    tag_148:\n        /* \"#utility.yul\":16753:16759   */\n      0x00\n        /* \"#utility.yul\":16803:16804   */\n      0x08\n        /* \"#utility.yul\":16791:16801   */\n      dup4\n        /* \"#utility.yul\":16787:16805   */\n      mul\n        /* \"#utility.yul\":16826:16923   */\n      tag_312\n        /* \"#utility.yul\":16856:16922   */\n      0xffffffffffffffffffffffffffffffffffffffffffffffffffffffffffffffff\n        /* \"#utility.yul\":16845:16854   */\n      dup3\n        /* \"#utility.yul\":16826:16923   */\n      tag_147\n      jump\t// in\n    tag_312:\n        /* \"#utility.yul\":16944:16983   */\n      tag_313\n        /* \"#utility.yul\":16974:16982   */\n      dup7\n        /* \"#utility.yul\":16963:16972   */\n      dup4\n        /* \"#utility.yul\":16944:16983   */\n      tag_147\n      jump\t// in\n    tag_313:\n        /* \"#utility.yul\":16932:16983   */\n      swap6\n      pop\n        /* \"#utility.yul\":17016:17020   */\n      dup1\n        /* \"#utility.yul\":17012:17021   */\n      not\n        /* \"#utility.yul\":17005:17010   */\n      dup5\n        /* \"#utility.yul\":17001:17022   */\n      and\n        /* \"#utility.yul\":16992:17022   */\n      swap4\n      pop\n        /* \"#utility.yul\":17065:17069   */\n      dup1\n        /* \"#utility.yul\":17055:17063   */\n      dup7\n        /* \"#utility.yul\":17051:17070   */\n      and\n        /* \"#utility.yul\":17044:17049   */\n      dup5\n        /* \"#utility.yul\":17041:17071   */\n      or\n        /* \"#utility.yul\":17031:17071   */\n      swap3\n      pop\n        /* \"#utility.yul\":16760:17077   */\n      pop\n      pop\n        /* \"#utility.yul\":16684:17077   */\n      swap4\n      swap3\n      pop\n      pop\n      pop\n      jump\t// out\n        /* \"#utility.yul\":17083:17143   */\n    tag_149:\n        /* \"#utility.yul\":17111:17114   */\n      0x00\n        /* \"#utility.yul\":17132:17137   */\n      dup2\n        /* \"#utility.yul\":17125:17137   */\n      swap1\n      pop\n        /* \"#utility.yul\":17083:17143   */\n      swap2\n      swap1\n      pop\n      jump\t// out\n        /* \"#utility.yul\":17149:17291   */\n    tag_150:\n        /* \"#utility.yul\":17199:17208   */\n      0x00\n        /* \"#utility.yul\":17232:17285   */\n      tag_316\n        /* \"#utility.yul\":17250:17284   */\n      tag_317\n        /* \"#utility.yul\":17259:17283   */\n      tag_318\n        /* \"#utility.yul\":17277:17282   */\n      dup5\n        /* \"#utility.yul\":17259:17283   */\n      tag_105\n      jump\t// in\n    tag_318:\n        /* \"#utility.yul\":17250:17284   */\n      tag_149\n      jump\t// in\n    tag_317:\n        /* \"#utility.yul\":17232:17285   */\n      tag_105\n      jump\t// in\n    tag_316:\n        /* \"#utility.yul\":17219:17285   */\n      swap1\n      pop\n        /* \"#utility.yul\":17149:17291   */\n      swap2\n      swap1\n      pop\n      jump\t// out\n        /* \"#utility.yul\":17297:17372   */\n    tag_151:\n        /* \"#utility.yul\":17340:17343   */\n      0x00\n        /* \"#utility.yul\":17361:17366   */\n      dup2\n        /* \"#utility.yul\":17354:17366   */\n      swap1\n      pop\n        /* \"#utility.yul\":17297:17372   */\n      swap2\n      swap1\n      pop\n      jump\t// out\n        /* \"#utility.yul\":17378:17647   */\n    tag_152:\n        /* \"#utility.yul\":17488:17527   */\n      tag_321\n        /* \"#utility.yul\":17519:17526   */\n      dup4\n        /* \"#utility.yul\":17488:17527   */\n      tag_150\n      jump\t// in\n    tag_321:\n        /* \"#utility.yul\":17549:17640   */\n      tag_322\n        /* \"#utility.yul\":17598:17639   */\n      tag_323\n        /* \"#utility.yul\":17622:17638   */\n      dup3\n        /* \"#utility.yul\":17598:17639   */\n      tag_151\n      jump\t// in\n    tag_323:\n        /* \"#utility.yul\":17590:17596   */\n      dup5\n        /* \"#utility.yul\":17583:17587   */\n      dup5\n        /* \"#utility.yul\":17577:17588   */\n      sload\n        /* \"#utility.yul\":17549:17640   */\n      tag_148\n      jump\t// in\n    tag_322:\n        /* \"#utility.yul\":17543:17547   */\n      dup3\n        /* \"#utility.yul\":17536:17641   */\n      sstore\n        /* \"#utility.yul\":17454:17647   */\n      pop\n        /* \"#utility.yul\":17378:17647   */\n      pop\n      pop\n      pop\n      jump\t// out\n        /* \"#utility.yul\":17653:17726   */\n    tag_153:\n        /* \"#utility.yul\":17698:17701   */\n      0x00\n        /* \"#utility.yul\":17653:17726   */\n      swap1\n      jump\t// out\n        /* \"#utility.yul\":17732:17921   */\n    tag_154:\n        /* \"#utility.yul\":17809:17841   */\n      tag_326\n      tag_153\n      jump\t// in\n    tag_326:\n        /* \"#utility.yul\":17850:17915   */\n      tag_327\n        /* \"#utility.yul\":17908:17914   */\n      dup2\n        /* \"#utility.yul\":17900:17906   */\n      dup5\n        /* \"#utility.yul\":17894:17898   */\n      dup5\n        /* \"#utility.yul\":17850:17915   */\n      tag_152\n      jump\t// in\n    tag_327:\n        /* \"#utility.yul\":17785:17921   */\n      pop\n        /* \"#utility.yul\":17732:17921   */\n      pop\n      pop\n      jump\t// out\n        /* \"#utility.yul\":17927:18113   */\n    tag_155:\n        /* \"#utility.yul\":17987:18107   */\n    tag_329:\n        /* \"#utility.yul\":18004:18007   */\n      dup2\n        /* \"#utility.yul\":17997:18002   */\n      dup2\n        /* \"#utility.yul\":17994:18008   */\n      lt\n        /* \"#utility.yul\":17987:18107   */\n      iszero\n      tag_331\n      jumpi\n        /* \"#utility.yul\":18058:18097   */\n      tag_332\n        /* \"#utility.yul\":18095:18096   */\n      0x00\n        /* \"#utility.yul\":18088:18093   */\n      dup3\n        /* \"#utility.yul\":18058:18097   */\n      tag_154\n      jump\t// in\n    tag_332:\n        /* \"#utility.yul\":18031:18032   */\n      0x01\n        /* \"#utility.yul\":18024:18029   */\n      dup2\n        /* \"#utility.yul\":18020:18033   */\n      add\n        /* \"#utility.yul\":18011:18033   */\n      swap1\n      pop\n        /* \"#utility.yul\":17987:18107   */\n      jump(tag_329)\n    tag_331:\n        /* \"#utility.yul\":17927:18113   */\n      pop\n      pop\n      jump\t// out\n        /* \"#utility.yul\":18119:18662   */\n    tag_156:\n        /* \"#utility.yul\":18220:18222   */\n      0x1f\n        /* \"#utility.yul\":18215:18218   */\n      dup3\n        /* \"#utility.yul\":18212:18223   */\n      gt\n        /* \"#utility.yul\":18209:18655   */\n      iszero\n      tag_334\n      jumpi\n        /* \"#utility.yul\":18254:18292   */\n      tag_335\n        /* \"#utility.yul\":18286:18291   */\n      dup2\n        /* \"#utility.yul\":18254:18292   */\n      tag_145\n      jump\t// in\n    tag_335:\n        /* \"#utility.yul\":18338:18367   */\n      tag_336\n        /* \"#utility.yul\":18356:18366   */\n      dup5\n        /* \"#utility.yul\":18338:18367   */\n      tag_146\n      jump\t// in\n    tag_336:\n        /* \"#utility.yul\":18328:18336   */\n      dup2\n        /* \"#utility.yul\":18324:18368   */\n      add\n        /* \"#utility.yul\":18521:18523   */\n      0x20\n        /* \"#utility.yul\":18509:18519   */\n      dup6\n        /* \"#utility.yul\":18506:18524   */\n      lt\n        /* \"#utility.yul\":18503:18552   */\n      iszero\n      tag_337\n      jumpi\n        /* \"#utility.yul\":18542:18550   */\n      dup2\n        /* \"#utility.yul\":18527:18550   */\n      swap1\n      pop\n        /* \"#utility.yul\":18503:18552   */\n    tag_337:\n        /* \"#utility.yul\":18565:18645   */\n      tag_338\n        /* \"#utility.yul\":18621:18643   */\n      tag_339\n        /* \"#utility.yul\":18639:18642   */\n      dup6\n        /* \"#utility.yul\":18621:18643   */\n      tag_146\n      jump\t// in\n    tag_339:\n        /* \"#utility.yul\":18611:18619   */\n      dup4\n        /* \"#utility.yul\":18607:18644   */\n      add\n        /* \"#utility.yul\":18594:18605   */\n      dup3\n        /* \"#utility.yul\":18565:18645   */\n      tag_155\n      jump\t// in\n    tag_338:\n        /* \"#utility.yul\":18224:18655   */\n      pop\n      pop\n        /* \"#utility.yul\":18209:18655   */\n    tag_334:\n        /* \"#utility.yul\":18119:18662   */\n      pop\n      pop\n      pop\n      jump\t// out\n        /* \"#utility.yul\":18668:18785   */\n    tag_157:\n        /* \"#utility.yul\":18722:18730   */\n      0x00\n        /* \"#utility.yul\":18772:18777   */\n      dup3\n        /* \"#utility.yul\":18766:18770   */\n      dup3\n        /* \"#utility.yul\":18762:18778   */\n      shr\n        /* \"#utility.yul\":18741:18778   */\n      swap1\n      pop\n        /* \"#utility.yul\":18668:18785   */\n      swap3\n      swap2\n      pop\n      pop\n      jump\t// out\n        /* \"#utility.yul\":18791:18960   */\n    tag_158:\n        /* \"#utility.yul\":18835:18841   */\n      0x00\n        /* \"#utility.yul\":18868:18919   */\n      tag_342\n        /* \"#utility.yul\":18916:18917   */\n      0x00\n        /* \"#utility.yul\":18912:18918   */\n      not\n        /* \"#utility.yul\":18904:18909   */\n      dup5\n        /* \"#utility.yul\":18901:18902   */\n      0x08\n        /* \"#utility.yul\":18897:18910   */\n      mul\n        /* \"#utility.yul\":18868:18919   */\n      tag_157\n      jump\t// in\n    tag_342:\n        /* \"#utility.yul\":18864:18920   */\n      not\n        /* \"#utility.yul\":18949:18953   */\n      dup1\n        /* \"#utility.yul\":18943:18947   */\n      dup4\n        /* \"#utility.yul\":18939:18954   */\n      and\n        /* \"#utility.yul\":18929:18954   */\n      swap2\n      pop\n        /* \"#utility.yul\":18842:18960   */\n      pop\n        /* \"#utility.yul\":18791:18960   */\n      swap3\n      swap2\n      pop\n      pop\n      jump\t// out\n        /* \"#utility.yul\":18965:19260   */\n    tag_159:\n        /* \"#utility.yul\":19041:19045   */\n      0x00\n        /* \"#utility.yul\":19187:19216   */\n      tag_344\n        /* \"#utility.yul\":19212:19215   */\n      dup4\n        /* \"#utility.yul\":19206:19210   */\n      dup4\n        /* \"#utility.yul\":19187:19216   */\n      tag_158\n      jump\t// in\n    tag_344:\n        /* \"#utility.yul\":19179:19216   */\n      swap2\n      pop\n        /* \"#utility.yul\":19249:19252   */\n      dup3\n        /* \"#utility.yul\":19246:19247   */\n      0x02\n        /* \"#utility.yul\":19242:19253   */\n      mul\n        /* \"#utility.yul\":19236:19240   */\n      dup3\n        /* \"#utility.yul\":19233:19254   */\n      or\n        /* \"#utility.yul\":19225:19254   */\n      swap1\n      pop\n        /* \"#utility.yul\":18965:19260   */\n      swap3\n      swap2\n      pop\n      pop\n      jump\t// out\n        /* \"#utility.yul\":19265:20660   */\n    tag_69:\n        /* \"#utility.yul\":19382:19419   */\n      tag_346\n        /* \"#utility.yul\":19415:19418   */\n      dup3\n        /* \"#utility.yul\":19382:19419   */\n      tag_107\n      jump\t// in\n    tag_346:\n        /* \"#utility.yul\":19484:19502   */\n      0xffffffffffffffff\n        /* \"#utility.yul\":19476:19482   */\n      dup2\n        /* \"#utility.yul\":19473:19503   */\n      gt\n        /* \"#utility.yul\":19470:19526   */\n      iszero\n      tag_347\n      jumpi\n        /* \"#utility.yul\":19506:19524   */\n      tag_348\n      tag_130\n      jump\t// in\n    tag_348:\n        /* \"#utility.yul\":19470:19526   */\n    tag_347:\n        /* \"#utility.yul\":19550:19588   */\n      tag_349\n        /* \"#utility.yul\":19582:19586   */\n      dup3\n        /* \"#utility.yul\":19576:19587   */\n      sload\n        /* \"#utility.yul\":19550:19588   */\n      tag_31\n      jump\t// in\n    tag_349:\n        /* \"#utility.yul\":19635:19702   */\n      tag_350\n        /* \"#utility.yul\":19695:19701   */\n      dup3\n        /* \"#utility.yul\":19687:19693   */\n      dup3\n        /* \"#utility.yul\":19681:19685   */\n      dup6\n        /* \"#utility.yul\":19635:19702   */\n      tag_156\n      jump\t// in\n    tag_350:\n        /* \"#utility.yul\":19729:19730   */\n      0x00\n        /* \"#utility.yul\":19753:19757   */\n      0x20\n        /* \"#utility.yul\":19740:19757   */\n      swap1\n      pop\n        /* \"#utility.yul\":19785:19787   */\n      0x1f\n        /* \"#utility.yul\":19777:19783   */\n      dup4\n        /* \"#utility.yul\":19774:19788   */\n      gt\n        /* \"#utility.yul\":19802:19803   */\n      0x01\n        /* \"#utility.yul\":19797:20415   */\n      dup2\n      eq\n      tag_352\n      jumpi\n        /* \"#utility.yul\":20459:20460   */\n      0x00\n        /* \"#utility.yul\":20476:20482   */\n      dup5\n        /* \"#utility.yul\":20473:20550   */\n      iszero\n      tag_353\n      jumpi\n        /* \"#utility.yul\":20525:20534   */\n      dup3\n        /* \"#utility.yul\":20520:20523   */\n      dup8\n        /* \"#utility.yul\":20516:20535   */\n      add\n        /* \"#utility.yul\":20510:20536   */\n      mload\n        /* \"#utility.yul\":20501:20536   */\n      swap1\n      pop\n        /* \"#utility.yul\":20473:20550   */\n    tag_353:\n        /* \"#utility.yul\":20576:20643   */\n      tag_354\n        /* \"#utility.yul\":20636:20642   */\n      dup6\n        /* \"#utility.yul\":20629:20634   */\n      dup3\n        /* \"#utility.yul\":20576:20643   */\n      tag_159\n      jump\t// in\n    tag_354:\n        /* \"#utility.yul\":20570:20574   */\n      dup7\n        /* \"#utility.yul\":20563:20644   */\n      sstore\n        /* \"#utility.yul\":20432:20654   */\n      pop\n        /* \"#utility.yul\":19767:20654   */\n      jump(tag_351)\n        /* \"#utility.yul\":19797:20415   */\n    tag_352:\n        /* \"#utility.yul\":19849:19853   */\n      0x1f\n        /* \"#utility.yul\":19845:19854   */\n      not\n        /* \"#utility.yul\":19837:19843   */\n      dup5\n        /* \"#utility.yul\":19833:19855   */\n      and\n        /* \"#utility.yul\":19883:19920   */\n      tag_355\n        /* \"#utility.yul\":19915:19919   */\n      dup7\n        /* \"#utility.yul\":19883:19920   */\n      tag_145\n      jump\t// in\n    tag_355:\n        /* \"#utility.yul\":19942:19943   */\n      0x00\n        /* \"#utility.yul\":19956:20164   */\n    tag_356:\n        /* \"#utility.yul\":19970:19977   */\n      dup3\n        /* \"#utility.yul\":19967:19968   */\n      dup2\n        /* \"#utility.yul\":19964:19978   */\n      lt\n        /* \"#utility.yul\":19956:20164   */\n      iszero\n      tag_358\n      jumpi\n        /* \"#utility.yul\":20049:20058   */\n      dup5\n        /* \"#utility.yul\":20044:20047   */\n      dup10\n        /* \"#utility.yul\":20040:20059   */\n      add\n        /* \"#utility.yul\":20034:20060   */\n      mload\n        /* \"#utility.yul\":20026:20032   */\n      dup3\n        /* \"#utility.yul\":20019:20061   */\n      sstore\n        /* \"#utility.yul\":20100:20101   */\n      0x01\n        /* \"#utility.yul\":20092:20098   */\n      dup3\n        /* \"#utility.yul\":20088:20102   */\n      add\n        /* \"#utility.yul\":20078:20102   */\n      swap2\n      pop\n        /* \"#utility.yul\":20147:20149   */\n      0x20\n        /* \"#utility.yul\":20136:20145   */\n      dup6\n        /* \"#utility.yul\":20132:20150   */\n      add\n        /* \"#utility.yul\":20119:20150   */\n      swap5\n      pop\n        /* \"#utility.yul\":19993:19997   */\n      0x20\n        /* \"#utility.yul\":19990:19991   */\n      dup2\n        /* \"#utility.yul\":19986:19998   */\n      add\n        /* \"#utility.yul\":19981:19998   */\n      swap1\n      pop\n        /* \"#utility.yul\":19956:20164   */\n      jump(tag_356)\n    tag_358:\n        /* \"#utility.yul\":20192:20198   */\n      dup7\n        /* \"#utility.yul\":20183:20190   */\n      dup4\n        /* \"#utility.yul\":20180:20199   */\n      lt\n        /* \"#utility.yul\":20177:20356   */\n      iszero\n      tag_359\n      jumpi\n        /* \"#utility.yul\":20250:20259   */\n      dup5\n        /* \"#utility.yul\":20245:20248   */\n      dup10\n        /* \"#utility.yul\":20241:20260   */\n      add\n        /* \"#utility.yul\":20235:20261   */\n      mload\n        /* \"#utility.yul\":20293:20341   */\n      tag_360\n        /* \"#utility.yul\":20335:20339   */\n      0x1f\n        /* \"#utility.yul\":20327:20333   */\n      dup10\n        /* \"#utility.yul\":20323:20340   */\n      and\n        /* \"#utility.yul\":20312:20321   */\n      dup3\n        /* \"#utility.yul\":20293:20341   */\n      tag_158\n      jump\t// in\n    tag_360:\n        /* \"#utility.yul\":20285:20291   */\n      dup4\n        /* \"#utility.yul\":20278:20342   */\n      sstore\n        /* \"#utility.yul\":20200:20356   */\n      pop\n        /* \"#utility.yul\":20177:20356   */\n    tag_359:\n        /* \"#utility.yul\":20402:20403   */\n      0x01\n        /* \"#utility.yul\":20398:20399   */\n      0x02\n        /* \"#utility.yul\":20390:20396   */\n      dup9\n        /* \"#utility.yul\":20386:20400   */\n      mul\n        /* \"#utility.yul\":20382:20404   */\n      add\n        /* \"#utility.yul\":20376:20380   */\n      dup9\n        /* \"#utility.yul\":20369:20405   */\n      sstore\n        /* \"#utility.yul\":19804:20415   */\n      pop\n      pop\n      pop\n        /* \"#utility.yul\":19767:20654   */\n    tag_351:\n      pop\n        /* \"#utility.yul\":19357:20660   */\n      pop\n      pop\n      pop\n        /* \"#utility.yul\":19265:20660   */\n      pop\n      pop\n      jump\t// out\n\n    auxdata: 0xa264697066735822122028384714dde34cac7716d456826554643c294179141d040889ff9446e5212ed064736f6c63430008120033\n}\n",
				"bytecode": {
					"linkReferences": {},
					"object": "608060405234801561001057600080fd5b5061118b806100206000396000f3fe608060405234801561001057600080fd5b506004361061004c5760003560e01c806353ed51431461005157806398105d8d1461006f578063b46e04d51461009f578063f7048c97146100bb575b600080fd5b6100596100eb565b604051610066919061098f565b60405180910390f35b610089600480360381019061008491906109f1565b6102bf565b6040516100969190610a75565b60405180910390f35b6100b960048036038101906100b49190610cb2565b61047c565b005b6100d560048036038101906100d091906109f1565b610506565b6040516100e29190610dc3565b60405180910390f35b60606000805480602002602001604051908101604052809291908181526020016000905b828210156102b657838290600052602060002090600302016040518060600160405290816000820154815260200160018201805461014c90610e14565b80601f016020809104026020016040519081016040528092919081815260200182805461017890610e14565b80156101c55780601f1061019a576101008083540402835291602001916101c5565b820191906000526020600020905b8154815290600101906020018083116101a857829003601f168201915b5050505050815260200160028201805480602002602001604051908101604052809291908181526020016000905b8282101561029f57838290600052602060002001805461021290610e14565b80601f016020809104026020016040519081016040528092919081815260200182805461023e90610e14565b801561028b5780601f106102605761010080835404028352916020019161028b565b820191906000526020600020905b81548152906001019060200180831161026e57829003601f168201915b5050505050815260200190600101906101f3565b50505050815250508152602001906001019061010f565b50505050905090565b6102c7610610565b60006001836102d69190610e74565b815481106102e7576102e6610ea8565b5b90600052602060002090600302016040518060600160405290816000820154815260200160018201805461031a90610e14565b80601f016020809104026020016040519081016040528092919081815260200182805461034690610e14565b80156103935780601f1061036857610100808354040283529160200191610393565b820191906000526020600020905b81548152906001019060200180831161037657829003601f168201915b5050505050815260200160028201805480602002602001604051908101604052809291908181526020016000905b8282101561046d5783829060005260206000200180546103e090610e14565b80601f016020809104026020016040519081016040528092919081815260200182805461040c90610e14565b80156104595780601f1061042e57610100808354040283529160200191610459565b820191906000526020600020905b81548152906001019060200180831161043c57829003601f168201915b5050505050815260200190600101906103c1565b50505050815250509050919050565b600060405180606001604052808581526020018481526020018381525090806001815401808255809150506001900390600052602060002090600302016000909190919091506000820151816000015560208201518160010190816104e19190611083565b5060408201518160020190805190602001906104fe929190610631565b505050505050565b606060006001836105179190610e74565b8154811061052857610527610ea8565b5b9060005260206000209060030201600201805480602002602001604051908101604052809291908181526020016000905b8282101561060557838290600052602060002001805461057890610e14565b80601f01602080910402602001604051908101604052809291908181526020018280546105a490610e14565b80156105f15780601f106105c6576101008083540402835291602001916105f1565b820191906000526020600020905b8154815290600101906020018083116105d457829003601f168201915b505050505081526020019060010190610559565b505050509050919050565b60405180606001604052806000815260200160608152602001606081525090565b828054828255906000526020600020908101928215610679579160200282015b828111156106785782518290816106689190611083565b5091602001919060010190610651565b5b509050610686919061068a565b5090565b5b808211156106aa57600081816106a191906106ae565b5060010161068b565b5090565b5080546106ba90610e14565b6000825580601f106106cc57506106eb565b601f0160209004906000526020600020908101906106ea91906106ee565b5b50565b5b808211156107075760008160009055506001016106ef565b5090565b600081519050919050565b600082825260208201905092915050565b6000819050602082019050919050565b6000819050919050565b61074a81610737565b82525050565b600081519050919050565b600082825260208201905092915050565b60005b8381101561078a57808201518184015260208101905061076f565b60008484015250505050565b6000601f19601f8301169050919050565b60006107b282610750565b6107bc818561075b565b93506107cc81856020860161076c565b6107d581610796565b840191505092915050565b600081519050919050565b600082825260208201905092915050565b6000819050602082019050919050565b600061081883836107a7565b905092915050565b6000602082019050919050565b6000610838826107e0565b61084281856107eb565b935083602082028501610854856107fc565b8060005b858110156108905784840389528151610871858261080c565b945061087c83610820565b925060208a01995050600181019050610858565b50829750879550505050505092915050565b60006060830160008301516108ba6000860182610741565b50602083015184820360208601526108d282826107a7565b915050604083015184820360408601526108ec828261082d565b9150508091505092915050565b600061090583836108a2565b905092915050565b6000602082019050919050565b60006109258261070b565b61092f8185610716565b93508360208202850161094185610727565b8060005b8581101561097d578484038952815161095e85826108f9565b94506109698361090d565b925060208a01995050600181019050610945565b50829750879550505050505092915050565b600060208201905081810360008301526109a9818461091a565b905092915050565b6000604051905090565b600080fd5b600080fd5b6109ce81610737565b81146109d957600080fd5b50565b6000813590506109eb816109c5565b92915050565b600060208284031215610a0757610a066109bb565b5b6000610a15848285016109dc565b91505092915050565b6000606083016000830151610a366000860182610741565b5060208301518482036020860152610a4e82826107a7565b91505060408301518482036040860152610a68828261082d565b9150508091505092915050565b60006020820190508181036000830152610a8f8184610a1e565b905092915050565b600080fd5b600080fd5b7f4e487b7100000000000000000000000000000000000000000000000000000000600052604160045260246000fd5b610ad982610796565b810181811067ffffffffffffffff82111715610af857610af7610aa1565b5b80604052505050565b6000610b0b6109b1565b9050610b178282610ad0565b919050565b600067ffffffffffffffff821115610b3757610b36610aa1565b5b610b4082610796565b9050602081019050919050565b82818337600083830152505050565b6000610b6f610b6a84610b1c565b610b01565b905082815260208101848484011115610b8b57610b8a610a9c565b5b610b96848285610b4d565b509392505050565b600082601f830112610bb357610bb2610a97565b5b8135610bc3848260208601610b5c565b91505092915050565b600067ffffffffffffffff821115610be757610be6610aa1565b5b602082029050602081019050919050565b600080fd5b6000610c10610c0b84610bcc565b610b01565b90508083825260208201905060208402830185811115610c3357610c32610bf8565b5b835b81811015610c7a57803567ffffffffffffffff811115610c5857610c57610a97565b5b808601610c658982610b9e565b85526020850194505050602081019050610c35565b5050509392505050565b600082601f830112610c9957610c98610a97565b5b8135610ca9848260208601610bfd565b91505092915050565b600080600060608486031215610ccb57610cca6109bb565b5b6000610cd9868287016109dc565b935050602084013567ffffffffffffffff811115610cfa57610cf96109c0565b5b610d0686828701610b9e565b925050604084013567ffffffffffffffff811115610d2757610d266109c0565b5b610d3386828701610c84565b9150509250925092565b600082825260208201905092915050565b6000610d59826107e0565b610d638185610d3d565b935083602082028501610d75856107fc565b8060005b85811015610db15784840389528151610d92858261080c565b9450610d9d83610820565b925060208a01995050600181019050610d79565b50829750879550505050505092915050565b60006020820190508181036000830152610ddd8184610d4e565b905092915050565b7f4e487b7100000000000000000000000000000000000000000000000000000000600052602260045260246000fd5b60006002820490506001821680610e2c57607f821691505b602082108103610e3f57610e3e610de5565b5b50919050565b7f4e487b7100000000000000000000000000000000000000000000000000000000600052601160045260246000fd5b6000610e7f82610737565b9150610e8a83610737565b9250828203905081811115610ea257610ea1610e45565b5b92915050565b7f4e487b7100000000000000000000000000000000000000000000000000000000600052603260045260246000fd5b60008190508160005260206000209050919050565b60006020601f8301049050919050565b600082821b905092915050565b600060088302610f397fffffffffffffffffffffffffffffffffffffffffffffffffffffffffffffffff82610efc565b610f438683610efc565b95508019841693508086168417925050509392505050565b6000819050919050565b6000610f80610f7b610f7684610737565b610f5b565b610737565b9050919050565b6000819050919050565b610f9a83610f65565b610fae610fa682610f87565b848454610f09565b825550505050565b600090565b610fc3610fb6565b610fce818484610f91565b505050565b5b81811015610ff257610fe7600082610fbb565b600181019050610fd4565b5050565b601f8211156110375761100881610ed7565b61101184610eec565b81016020851015611020578190505b61103461102c85610eec565b830182610fd3565b50505b505050565b600082821c905092915050565b600061105a6000198460080261103c565b1980831691505092915050565b60006110738383611049565b9150826002028217905092915050565b61108c82610750565b67ffffffffffffffff8111156110a5576110a4610aa1565b5b6110af8254610e14565b6110ba828285610ff6565b600060209050601f8311600181146110ed57600084156110db578287015190505b6110e58582611067565b86555061114d565b601f1984166110fb86610ed7565b60005b82811015611123578489015182556001820191506020850194506020810190506110fe565b86831015611140578489015161113c601f891682611049565b8355505b6001600288020188555050505b50505050505056fea264697066735822122028384714dde34cac7716d456826554643c294179141d040889ff9446e5212ed064736f6c63430008120033",
					"opcodes": "PUSH1 0x80 PUSH1 0x40 MSTORE CALLVALUE DUP1 ISZERO PUSH2 0x10 JUMPI PUSH1 0x0 DUP1 REVERT JUMPDEST POP PUSH2 0x118B DUP1 PUSH2 0x20 PUSH1 0x0 CODECOPY PUSH1 0x0 RETURN INVALID PUSH1 0x80 PUSH1 0x40 MSTORE CALLVALUE DUP1 ISZERO PUSH2 0x10 JUMPI PUSH1 0x0 DUP1 REVERT JUMPDEST POP PUSH1 0x4 CALLDATASIZE LT PUSH2 0x4C JUMPI PUSH1 0x0 CALLDATALOAD PUSH1 0xE0 SHR DUP1 PUSH4 0x53ED5143 EQ PUSH2 0x51 JUMPI DUP1 PUSH4 0x98105D8D EQ PUSH2 0x6F JUMPI DUP1 PUSH4 0xB46E04D5 EQ PUSH2 0x9F JUMPI DUP1 PUSH4 0xF7048C97 EQ PUSH2 0xBB JUMPI JUMPDEST PUSH1 0x0 DUP1 REVERT JUMPDEST PUSH2 0x59 PUSH2 0xEB JUMP JUMPDEST PUSH1 0x40 MLOAD PUSH2 0x66 SWAP2 SWAP1 PUSH2 0x98F JUMP JUMPDEST PUSH1 0x40 MLOAD DUP1 SWAP2 SUB SWAP1 RETURN JUMPDEST PUSH2 0x89 PUSH1 0x4 DUP1 CALLDATASIZE SUB DUP2 ADD SWAP1 PUSH2 0x84 SWAP2 SWAP1 PUSH2 0x9F1 JUMP JUMPDEST PUSH2 0x2BF JUMP JUMPDEST PUSH1 0x40 MLOAD PUSH2 0x96 SWAP2 SWAP1 PUSH2 0xA75 JUMP JUMPDEST PUSH1 0x40 MLOAD DUP1 SWAP2 SUB SWAP1 RETURN JUMPDEST PUSH2 0xB9 PUSH1 0x4 DUP1 CALLDATASIZE SUB DUP2 ADD SWAP1 PUSH2 0xB4 SWAP2 SWAP1 PUSH2 0xCB2 JUMP JUMPDEST PUSH2 0x47C JUMP JUMPDEST STOP JUMPDEST PUSH2 0xD5 PUSH1 0x4 DUP1 CALLDATASIZE SUB DUP2 ADD SWAP1 PUSH2 0xD0 SWAP2 SWAP1 PUSH2 0x9F1 JUMP JUMPDEST PUSH2 0x506 JUMP JUMPDEST PUSH1 0x40 MLOAD PUSH2 0xE2 SWAP2 SWAP1 PUSH2 0xDC3 JUMP JUMPDEST PUSH1 0x40 MLOAD DUP1 SWAP2 SUB SWAP1 RETURN JUMPDEST PUSH1 0x60 PUSH1 0x0 DUP1 SLOAD DUP1 PUSH1 0x20 MUL PUSH1 0x20 ADD PUSH1 0x40 MLOAD SWAP1 DUP2 ADD PUSH1 0x40 MSTORE DUP1 SWAP3 SWAP2 SWAP1 DUP2 DUP2 MSTORE PUSH1 0x20 ADD PUSH1 0x0 SWAP1 JUMPDEST DUP3 DUP3 LT ISZERO PUSH2 0x2B6 JUMPI DUP4 DUP3 SWAP1 PUSH1 0x0 MSTORE PUSH1 0x20 PUSH1 0x0 KECCAK256 SWAP1 PUSH1 0x3 MUL ADD PUSH1 0x40 MLOAD DUP1 PUSH1 0x60 ADD PUSH1 0x40 MSTORE SWAP1 DUP2 PUSH1 0x0 DUP3 ADD SLOAD DUP2 MSTORE PUSH1 0x20 ADD PUSH1 0x1 DUP3 ADD DUP1 SLOAD PUSH2 0x14C SWAP1 PUSH2 0xE14 JUMP JUMPDEST DUP1 PUSH1 0x1F ADD PUSH1 0x20 DUP1 SWAP2 DIV MUL PUSH1 0x20 ADD PUSH1 0x40 MLOAD SWAP1 DUP2 ADD PUSH1 0x40 MSTORE DUP1 SWAP3 SWAP2 SWAP1 DUP2 DUP2 MSTORE PUSH1 0x20 ADD DUP3 DUP1 SLOAD PUSH2 0x178 SWAP1 PUSH2 0xE14 JUMP JUMPDEST DUP1 ISZERO PUSH2 0x1C5 JUMPI DUP1 PUSH1 0x1F LT PUSH2 0x19A JUMPI PUSH2 0x100 DUP1 DUP4 SLOAD DIV MUL DUP4 MSTORE SWAP2 PUSH1 0x20 ADD SWAP2 PUSH2 0x1C5 JUMP JUMPDEST DUP3 ADD SWAP2 SWAP1 PUSH1 0x0 MSTORE PUSH1 0x20 PUSH1 0x0 KECCAK256 SWAP1 JUMPDEST DUP2 SLOAD DUP2 MSTORE SWAP1 PUSH1 0x1 ADD SWAP1 PUSH1 0x20 ADD DUP1 DUP4 GT PUSH2 0x1A8 JUMPI DUP3 SWAP1 SUB PUSH1 0x1F AND DUP3 ADD SWAP2 JUMPDEST POP POP POP POP POP DUP2 MSTORE PUSH1 0x20 ADD PUSH1 0x2 DUP3 ADD DUP1 SLOAD DUP1 PUSH1 0x20 MUL PUSH1 0x20 ADD PUSH1 0x40 MLOAD SWAP1 DUP2 ADD PUSH1 0x40 MSTORE DUP1 SWAP3 SWAP2 SWAP1 DUP2 DUP2 MSTORE PUSH1 0x20 ADD PUSH1 0x0 SWAP1 JUMPDEST DUP3 DUP3 LT ISZERO PUSH2 0x29F JUMPI DUP4 DUP3 SWAP1 PUSH1 0x0 MSTORE PUSH1 0x20 PUSH1 0x0 KECCAK256 ADD DUP1 SLOAD PUSH2 0x212 SWAP1 PUSH2 0xE14 JUMP JUMPDEST DUP1 PUSH1 0x1F ADD PUSH1 0x20 DUP1 SWAP2 DIV MUL PUSH1 0x20 ADD PUSH1 0x40 MLOAD SWAP1 DUP2 ADD PUSH1 0x40 MSTORE DUP1 SWAP3 SWAP2 SWAP1 DUP2 DUP2 MSTORE PUSH1 0x20 ADD DUP3 DUP1 SLOAD PUSH2 0x23E SWAP1 PUSH2 0xE14 JUMP JUMPDEST DUP1 ISZERO PUSH2 0x28B JUMPI DUP1 PUSH1 0x1F LT PUSH2 0x260 JUMPI PUSH2 0x100 DUP1 DUP4 SLOAD DIV MUL DUP4 MSTORE SWAP2 PUSH1 0x20 ADD SWAP2 PUSH2 0x28B JUMP JUMPDEST DUP3 ADD SWAP2 SWAP1 PUSH1 0x0 MSTORE PUSH1 0x20 PUSH1 0x0 KECCAK256 SWAP1 JUMPDEST DUP2 SLOAD DUP2 MSTORE SWAP1 PUSH1 0x1 ADD SWAP1 PUSH1 0x20 ADD DUP1 DUP4 GT PUSH2 0x26E JUMPI DUP3 SWAP1 SUB PUSH1 0x1F AND DUP3 ADD SWAP2 JUMPDEST POP POP POP POP POP DUP2 MSTORE PUSH1 0x20 ADD SWAP1 PUSH1 0x1 ADD SWAP1 PUSH2 0x1F3 JUMP JUMPDEST POP POP POP POP DUP2 MSTORE POP POP DUP2 MSTORE PUSH1 0x20 ADD SWAP1 PUSH1 0x1 ADD SWAP1 PUSH2 0x10F JUMP JUMPDEST POP POP POP POP SWAP1 POP SWAP1 JUMP JUMPDEST PUSH2 0x2C7 PUSH2 0x610 JUMP JUMPDEST PUSH1 0x0 PUSH1 0x1 DUP4 PUSH2 0x2D6 SWAP2 SWAP1 PUSH2 0xE74 JUMP JUMPDEST DUP2 SLOAD DUP2 LT PUSH2 0x2E7 JUMPI PUSH2 0x2E6 PUSH2 0xEA8 JUMP JUMPDEST JUMPDEST SWAP1 PUSH1 0x0 MSTORE PUSH1 0x20 PUSH1 0x0 KECCAK256 SWAP1 PUSH1 0x3 MUL ADD PUSH1 0x40 MLOAD DUP1 PUSH1 0x60 ADD PUSH1 0x40 MSTORE SWAP1 DUP2 PUSH1 0x0 DUP3 ADD SLOAD DUP2 MSTORE PUSH1 0x20 ADD PUSH1 0x1 DUP3 ADD DUP1 SLOAD PUSH2 0x31A SWAP1 PUSH2 0xE14 JUMP JUMPDEST DUP1 PUSH1 0x1F ADD PUSH1 0x20 DUP1 SWAP2 DIV MUL PUSH1 0x20 ADD PUSH1 0x40 MLOAD SWAP1 DUP2 ADD PUSH1 0x40 MSTORE DUP1 SWAP3 SWAP2 SWAP1 DUP2 DUP2 MSTORE PUSH1 0x20 ADD DUP3 DUP1 SLOAD PUSH2 0x346 SWAP1 PUSH2 0xE14 JUMP JUMPDEST DUP1 ISZERO PUSH2 0x393 JUMPI DUP1 PUSH1 0x1F LT PUSH2 0x368 JUMPI PUSH2 0x100 DUP1 DUP4 SLOAD DIV MUL DUP4 MSTORE SWAP2 PUSH1 0x20 ADD SWAP2 PUSH2 0x393 JUMP JUMPDEST DUP3 ADD SWAP2 SWAP1 PUSH1 0x0 MSTORE PUSH1 0x20 PUSH1 0x0 KECCAK256 SWAP1 JUMPDEST DUP2 SLOAD DUP2 MSTORE SWAP1 PUSH1 0x1 ADD SWAP1 PUSH1 0x20 ADD DUP1 DUP4 GT PUSH2 0x376 JUMPI DUP3 SWAP1 SUB PUSH1 0x1F AND DUP3 ADD SWAP2 JUMPDEST POP POP POP POP POP DUP2 MSTORE PUSH1 0x20 ADD PUSH1 0x2 DUP3 ADD DUP1 SLOAD DUP1 PUSH1 0x20 MUL PUSH1 0x20 ADD PUSH1 0x40 MLOAD SWAP1 DUP2 ADD PUSH1 0x40 MSTORE DUP1 SWAP3 SWAP2 SWAP1 DUP2 DUP2 MSTORE PUSH1 0x20 ADD PUSH1 0x0 SWAP1 JUMPDEST DUP3 DUP3 LT ISZERO PUSH2 0x46D JUMPI DUP4 DUP3 SWAP1 PUSH1 0x0 MSTORE PUSH1 0x20 PUSH1 0x0 KECCAK256 ADD DUP1 SLOAD PUSH2 0x3E0 SWAP1 PUSH2 0xE14 JUMP JUMPDEST DUP1 PUSH1 0x1F ADD PUSH1 0x20 DUP1 SWAP2 DIV MUL PUSH1 0x20 ADD PUSH1 0x40 MLOAD SWAP1 DUP2 ADD PUSH1 0x40 MSTORE DUP1 SWAP3 SWAP2 SWAP1 DUP2 DUP2 MSTORE PUSH1 0x20 ADD DUP3 DUP1 SLOAD PUSH2 0x40C SWAP1 PUSH2 0xE14 JUMP JUMPDEST DUP1 ISZERO PUSH2 0x459 JUMPI DUP1 PUSH1 0x1F LT PUSH2 0x42E JUMPI PUSH2 0x100 DUP1 DUP4 SLOAD DIV MUL DUP4 MSTORE SWAP2 PUSH1 0x20 ADD SWAP2 PUSH2 0x459 JUMP JUMPDEST DUP3 ADD SWAP2 SWAP1 PUSH1 0x0 MSTORE PUSH1 0x20 PUSH1 0x0 KECCAK256 SWAP1 JUMPDEST DUP2 SLOAD DUP2 MSTORE SWAP1 PUSH1 0x1 ADD SWAP1 PUSH1 0x20 ADD DUP1 DUP4 GT PUSH2 0x43C JUMPI DUP3 SWAP1 SUB PUSH1 0x1F AND DUP3 ADD SWAP2 JUMPDEST POP POP POP POP POP DUP2 MSTORE PUSH1 0x20 ADD SWAP1 PUSH1 0x1 ADD SWAP1 PUSH2 0x3C1 JUMP JUMPDEST POP POP POP POP DUP2 MSTORE POP POP SWAP1 POP SWAP2 SWAP1 POP JUMP JUMPDEST PUSH1 0x0 PUSH1 0x40 MLOAD DUP1 PUSH1 0x60 ADD PUSH1 0x40 MSTORE DUP1 DUP6 DUP2 MSTORE PUSH1 0x20 ADD DUP5 DUP2 MSTORE PUSH1 0x20 ADD DUP4 DUP2 MSTORE POP SWAP1 DUP1 PUSH1 0x1 DUP2 SLOAD ADD DUP1 DUP3 SSTORE DUP1 SWAP2 POP POP PUSH1 0x1 SWAP1 SUB SWAP1 PUSH1 0x0 MSTORE PUSH1 0x20 PUSH1 0x0 KECCAK256 SWAP1 PUSH1 0x3 MUL ADD PUSH1 0x0 SWAP1 SWAP2 SWAP1 SWAP2 SWAP1 SWAP2 POP PUSH1 0x0 DUP3 ADD MLOAD DUP2 PUSH1 0x0 ADD SSTORE PUSH1 0x20 DUP3 ADD MLOAD DUP2 PUSH1 0x1 ADD SWAP1 DUP2 PUSH2 0x4E1 SWAP2 SWAP1 PUSH2 0x1083 JUMP JUMPDEST POP PUSH1 0x40 DUP3 ADD MLOAD DUP2 PUSH1 0x2 ADD SWAP1 DUP1 MLOAD SWAP1 PUSH1 0x20 ADD SWAP1 PUSH2 0x4FE SWAP3 SWAP2 SWAP1 PUSH2 0x631 JUMP JUMPDEST POP POP POP POP POP POP JUMP JUMPDEST PUSH1 0x60 PUSH1 0x0 PUSH1 0x1 DUP4 PUSH2 0x517 SWAP2 SWAP1 PUSH2 0xE74 JUMP JUMPDEST DUP2 SLOAD DUP2 LT PUSH2 0x528 JUMPI PUSH2 0x527 PUSH2 0xEA8 JUMP JUMPDEST JUMPDEST SWAP1 PUSH1 0x0 MSTORE PUSH1 0x20 PUSH1 0x0 KECCAK256 SWAP1 PUSH1 0x3 MUL ADD PUSH1 0x2 ADD DUP1 SLOAD DUP1 PUSH1 0x20 MUL PUSH1 0x20 ADD PUSH1 0x40 MLOAD SWAP1 DUP2 ADD PUSH1 0x40 MSTORE DUP1 SWAP3 SWAP2 SWAP1 DUP2 DUP2 MSTORE PUSH1 0x20 ADD PUSH1 0x0 SWAP1 JUMPDEST DUP3 DUP3 LT ISZERO PUSH2 0x605 JUMPI DUP4 DUP3 SWAP1 PUSH1 0x0 MSTORE PUSH1 0x20 PUSH1 0x0 KECCAK256 ADD DUP1 SLOAD PUSH2 0x578 SWAP1 PUSH2 0xE14 JUMP JUMPDEST DUP1 PUSH1 0x1F ADD PUSH1 0x20 DUP1 SWAP2 DIV MUL PUSH1 0x20 ADD PUSH1 0x40 MLOAD SWAP1 DUP2 ADD PUSH1 0x40 MSTORE DUP1 SWAP3 SWAP2 SWAP1 DUP2 DUP2 MSTORE PUSH1 0x20 ADD DUP3 DUP1 SLOAD PUSH2 0x5A4 SWAP1 PUSH2 0xE14 JUMP JUMPDEST DUP1 ISZERO PUSH2 0x5F1 JUMPI DUP1 PUSH1 0x1F LT PUSH2 0x5C6 JUMPI PUSH2 0x100 DUP1 DUP4 SLOAD DIV MUL DUP4 MSTORE SWAP2 PUSH1 0x20 ADD SWAP2 PUSH2 0x5F1 JUMP JUMPDEST DUP3 ADD SWAP2 SWAP1 PUSH1 0x0 MSTORE PUSH1 0x20 PUSH1 0x0 KECCAK256 SWAP1 JUMPDEST DUP2 SLOAD DUP2 MSTORE SWAP1 PUSH1 0x1 ADD SWAP1 PUSH1 0x20 ADD DUP1 DUP4 GT PUSH2 0x5D4 JUMPI DUP3 SWAP1 SUB PUSH1 0x1F AND DUP3 ADD SWAP2 JUMPDEST POP POP POP POP POP DUP2 MSTORE PUSH1 0x20 ADD SWAP1 PUSH1 0x1 ADD SWAP1 PUSH2 0x559 JUMP JUMPDEST POP POP POP POP SWAP1 POP SWAP2 SWAP1 POP JUMP JUMPDEST PUSH1 0x40 MLOAD DUP1 PUSH1 0x60 ADD PUSH1 0x40 MSTORE DUP1 PUSH1 0x0 DUP2 MSTORE PUSH1 0x20 ADD PUSH1 0x60 DUP2 MSTORE PUSH1 0x20 ADD PUSH1 0x60 DUP2 MSTORE POP SWAP1 JUMP JUMPDEST DUP3 DUP1 SLOAD DUP3 DUP3 SSTORE SWAP1 PUSH1 0x0 MSTORE PUSH1 0x20 PUSH1 0x0 KECCAK256 SWAP1 DUP2 ADD SWAP3 DUP3 ISZERO PUSH2 0x679 JUMPI SWAP2 PUSH1 0x20 MUL DUP3 ADD JUMPDEST DUP3 DUP2 GT ISZERO PUSH2 0x678 JUMPI DUP3 MLOAD DUP3 SWAP1 DUP2 PUSH2 0x668 SWAP2 SWAP1 PUSH2 0x1083 JUMP JUMPDEST POP SWAP2 PUSH1 0x20 ADD SWAP2 SWAP1 PUSH1 0x1 ADD SWAP1 PUSH2 0x651 JUMP JUMPDEST JUMPDEST POP SWAP1 POP PUSH2 0x686 SWAP2 SWAP1 PUSH2 0x68A JUMP JUMPDEST POP SWAP1 JUMP JUMPDEST JUMPDEST DUP1 DUP3 GT ISZERO PUSH2 0x6AA JUMPI PUSH1 0x0 DUP2 DUP2 PUSH2 0x6A1 SWAP2 SWAP1 PUSH2 0x6AE JUMP JUMPDEST POP PUSH1 0x1 ADD PUSH2 0x68B JUMP JUMPDEST POP SWAP1 JUMP JUMPDEST POP DUP1 SLOAD PUSH2 0x6BA SWAP1 PUSH2 0xE14 JUMP JUMPDEST PUSH1 0x0 DUP3 SSTORE DUP1 PUSH1 0x1F LT PUSH2 0x6CC JUMPI POP PUSH2 0x6EB JUMP JUMPDEST PUSH1 0x1F ADD PUSH1 0x20 SWAP1 DIV SWAP1 PUSH1 0x0 MSTORE PUSH1 0x20 PUSH1 0x0 KECCAK256 SWAP1 DUP2 ADD SWAP1 PUSH2 0x6EA SWAP2 SWAP1 PUSH2 0x6EE JUMP JUMPDEST JUMPDEST POP JUMP JUMPDEST JUMPDEST DUP1 DUP3 GT ISZERO PUSH2 0x707 JUMPI PUSH1 0x0 DUP2 PUSH1 0x0 SWAP1 SSTORE POP PUSH1 0x1 ADD PUSH2 0x6EF JUMP JUMPDEST POP SWAP1 JUMP JUMPDEST PUSH1 0x0 DUP2 MLOAD SWAP1 POP SWAP2 SWAP1 POP JUMP JUMPDEST PUSH1 0x0 DUP3 DUP3 MSTORE PUSH1 0x20 DUP3 ADD SWAP1 POP SWAP3 SWAP2 POP POP JUMP JUMPDEST PUSH1 0x0 DUP2 SWAP1 POP PUSH1 0x20 DUP3 ADD SWAP1 POP SWAP2 SWAP1 POP JUMP JUMPDEST PUSH1 0x0 DUP2 SWAP1 POP SWAP2 SWAP1 POP JUMP JUMPDEST PUSH2 0x74A DUP2 PUSH2 0x737 JUMP JUMPDEST DUP3 MSTORE POP POP JUMP JUMPDEST PUSH1 0x0 DUP2 MLOAD SWAP1 POP SWAP2 SWAP1 POP JUMP JUMPDEST PUSH1 0x0 DUP3 DUP3 MSTORE PUSH1 0x20 DUP3 ADD SWAP1 POP SWAP3 SWAP2 POP POP JUMP JUMPDEST PUSH1 0x0 JUMPDEST DUP4 DUP2 LT ISZERO PUSH2 0x78A JUMPI DUP1 DUP3 ADD MLOAD DUP2 DUP5 ADD MSTORE PUSH1 0x20 DUP2 ADD SWAP1 POP PUSH2 0x76F JUMP JUMPDEST PUSH1 0x0 DUP5 DUP5 ADD MSTORE POP POP POP POP JUMP JUMPDEST PUSH1 0x0 PUSH1 0x1F NOT PUSH1 0x1F DUP4 ADD AND SWAP1 POP SWAP2 SWAP1 POP JUMP JUMPDEST PUSH1 0x0 PUSH2 0x7B2 DUP3 PUSH2 0x750 JUMP JUMPDEST PUSH2 0x7BC DUP2 DUP6 PUSH2 0x75B JUMP JUMPDEST SWAP4 POP PUSH2 0x7CC DUP2 DUP6 PUSH1 0x20 DUP7 ADD PUSH2 0x76C JUMP JUMPDEST PUSH2 0x7D5 DUP2 PUSH2 0x796 JUMP JUMPDEST DUP5 ADD SWAP2 POP POP SWAP3 SWAP2 POP POP JUMP JUMPDEST PUSH1 0x0 DUP2 MLOAD SWAP1 POP SWAP2 SWAP1 POP JUMP JUMPDEST PUSH1 0x0 DUP3 DUP3 MSTORE PUSH1 0x20 DUP3 ADD SWAP1 POP SWAP3 SWAP2 POP POP JUMP JUMPDEST PUSH1 0x0 DUP2 SWAP1 POP PUSH1 0x20 DUP3 ADD SWAP1 POP SWAP2 SWAP1 POP JUMP JUMPDEST PUSH1 0x0 PUSH2 0x818 DUP4 DUP4 PUSH2 0x7A7 JUMP JUMPDEST SWAP1 POP SWAP3 SWAP2 POP POP JUMP JUMPDEST PUSH1 0x0 PUSH1 0x20 DUP3 ADD SWAP1 POP SWAP2 SWAP1 POP JUMP JUMPDEST PUSH1 0x0 PUSH2 0x838 DUP3 PUSH2 0x7E0 JUMP JUMPDEST PUSH2 0x842 DUP2 DUP6 PUSH2 0x7EB JUMP JUMPDEST SWAP4 POP DUP4 PUSH1 0x20 DUP3 MUL DUP6 ADD PUSH2 0x854 DUP6 PUSH2 0x7FC JUMP JUMPDEST DUP1 PUSH1 0x0 JUMPDEST DUP6 DUP2 LT ISZERO PUSH2 0x890 JUMPI DUP5 DUP5 SUB DUP10 MSTORE DUP2 MLOAD PUSH2 0x871 DUP6 DUP3 PUSH2 0x80C JUMP JUMPDEST SWAP5 POP PUSH2 0x87C DUP4 PUSH2 0x820 JUMP JUMPDEST SWAP3 POP PUSH1 0x20 DUP11 ADD SWAP10 POP POP PUSH1 0x1 DUP2 ADD SWAP1 POP PUSH2 0x858 JUMP JUMPDEST POP DUP3 SWAP8 POP DUP8 SWAP6 POP POP POP POP POP POP SWAP3 SWAP2 POP POP JUMP JUMPDEST PUSH1 0x0 PUSH1 0x60 DUP4 ADD PUSH1 0x0 DUP4 ADD MLOAD PUSH2 0x8BA PUSH1 0x0 DUP7 ADD DUP3 PUSH2 0x741 JUMP JUMPDEST POP PUSH1 0x20 DUP4 ADD MLOAD DUP5 DUP3 SUB PUSH1 0x20 DUP7 ADD MSTORE PUSH2 0x8D2 DUP3 DUP3 PUSH2 0x7A7 JUMP JUMPDEST SWAP2 POP POP PUSH1 0x40 DUP4 ADD MLOAD DUP5 DUP3 SUB PUSH1 0x40 DUP7 ADD MSTORE PUSH2 0x8EC DUP3 DUP3 PUSH2 0x82D JUMP JUMPDEST SWAP2 POP POP DUP1 SWAP2 POP POP SWAP3 SWAP2 POP POP JUMP JUMPDEST PUSH1 0x0 PUSH2 0x905 DUP4 DUP4 PUSH2 0x8A2 JUMP JUMPDEST SWAP1 POP SWAP3 SWAP2 POP POP JUMP JUMPDEST PUSH1 0x0 PUSH1 0x20 DUP3 ADD SWAP1 POP SWAP2 SWAP1 POP JUMP JUMPDEST PUSH1 0x0 PUSH2 0x925 DUP3 PUSH2 0x70B JUMP JUMPDEST PUSH2 0x92F DUP2 DUP6 PUSH2 0x716 JUMP JUMPDEST SWAP4 POP DUP4 PUSH1 0x20 DUP3 MUL DUP6 ADD PUSH2 0x941 DUP6 PUSH2 0x727 JUMP JUMPDEST DUP1 PUSH1 0x0 JUMPDEST DUP6 DUP2 LT ISZERO PUSH2 0x97D JUMPI DUP5 DUP5 SUB DUP10 MSTORE DUP2 MLOAD PUSH2 0x95E DUP6 DUP3 PUSH2 0x8F9 JUMP JUMPDEST SWAP5 POP PUSH2 0x969 DUP4 PUSH2 0x90D JUMP JUMPDEST SWAP3 POP PUSH1 0x20 DUP11 ADD SWAP10 POP POP PUSH1 0x1 DUP2 ADD SWAP1 POP PUSH2 0x945 JUMP JUMPDEST POP DUP3 SWAP8 POP DUP8 SWAP6 POP POP POP POP POP POP SWAP3 SWAP2 POP POP JUMP JUMPDEST PUSH1 0x0 PUSH1 0x20 DUP3 ADD SWAP1 POP DUP2 DUP2 SUB PUSH1 0x0 DUP4 ADD MSTORE PUSH2 0x9A9 DUP2 DUP5 PUSH2 0x91A JUMP JUMPDEST SWAP1 POP SWAP3 SWAP2 POP POP JUMP JUMPDEST PUSH1 0x0 PUSH1 0x40 MLOAD SWAP1 POP SWAP1 JUMP JUMPDEST PUSH1 0x0 DUP1 REVERT JUMPDEST PUSH1 0x0 DUP1 REVERT JUMPDEST PUSH2 0x9CE DUP2 PUSH2 0x737 JUMP JUMPDEST DUP2 EQ PUSH2 0x9D9 JUMPI PUSH1 0x0 DUP1 REVERT JUMPDEST POP JUMP JUMPDEST PUSH1 0x0 DUP2 CALLDATALOAD SWAP1 POP PUSH2 0x9EB DUP2 PUSH2 0x9C5 JUMP JUMPDEST SWAP3 SWAP2 POP POP JUMP JUMPDEST PUSH1 0x0 PUSH1 0x20 DUP3 DUP5 SUB SLT ISZERO PUSH2 0xA07 JUMPI PUSH2 0xA06 PUSH2 0x9BB JUMP JUMPDEST JUMPDEST PUSH1 0x0 PUSH2 0xA15 DUP5 DUP3 DUP6 ADD PUSH2 0x9DC JUMP JUMPDEST SWAP2 POP POP SWAP3 SWAP2 POP POP JUMP JUMPDEST PUSH1 0x0 PUSH1 0x60 DUP4 ADD PUSH1 0x0 DUP4 ADD MLOAD PUSH2 0xA36 PUSH1 0x0 DUP7 ADD DUP3 PUSH2 0x741 JUMP JUMPDEST POP PUSH1 0x20 DUP4 ADD MLOAD DUP5 DUP3 SUB PUSH1 0x20 DUP7 ADD MSTORE PUSH2 0xA4E DUP3 DUP3 PUSH2 0x7A7 JUMP JUMPDEST SWAP2 POP POP PUSH1 0x40 DUP4 ADD MLOAD DUP5 DUP3 SUB PUSH1 0x40 DUP7 ADD MSTORE PUSH2 0xA68 DUP3 DUP3 PUSH2 0x82D JUMP JUMPDEST SWAP2 POP POP DUP1 SWAP2 POP POP SWAP3 SWAP2 POP POP JUMP JUMPDEST PUSH1 0x0 PUSH1 0x20 DUP3 ADD SWAP1 POP DUP2 DUP2 SUB PUSH1 0x0 DUP4 ADD MSTORE PUSH2 0xA8F DUP2 DUP5 PUSH2 0xA1E JUMP JUMPDEST SWAP1 POP SWAP3 SWAP2 POP POP JUMP JUMPDEST PUSH1 0x0 DUP1 REVERT JUMPDEST PUSH1 0x0 DUP1 REVERT JUMPDEST PUSH32 0x4E487B7100000000000000000000000000000000000000000000000000000000 PUSH1 0x0 MSTORE PUSH1 0x41 PUSH1 0x4 MSTORE PUSH1 0x24 PUSH1 0x0 REVERT JUMPDEST PUSH2 0xAD9 DUP3 PUSH2 0x796 JUMP JUMPDEST DUP2 ADD DUP2 DUP2 LT PUSH8 0xFFFFFFFFFFFFFFFF DUP3 GT OR ISZERO PUSH2 0xAF8 JUMPI PUSH2 0xAF7 PUSH2 0xAA1 JUMP JUMPDEST JUMPDEST DUP1 PUSH1 0x40 MSTORE POP POP POP JUMP JUMPDEST PUSH1 0x0 PUSH2 0xB0B PUSH2 0x9B1 JUMP JUMPDEST SWAP1 POP PUSH2 0xB17 DUP3 DUP3 PUSH2 0xAD0 JUMP JUMPDEST SWAP2 SWAP1 POP JUMP JUMPDEST PUSH1 0x0 PUSH8 0xFFFFFFFFFFFFFFFF DUP3 GT ISZERO PUSH2 0xB37 JUMPI PUSH2 0xB36 PUSH2 0xAA1 JUMP JUMPDEST JUMPDEST PUSH2 0xB40 DUP3 PUSH2 0x796 JUMP JUMPDEST SWAP1 POP PUSH1 0x20 DUP2 ADD SWAP1 POP SWAP2 SWAP1 POP JUMP JUMPDEST DUP3 DUP2 DUP4 CALLDATACOPY PUSH1 0x0 DUP4 DUP4 ADD MSTORE POP POP POP JUMP JUMPDEST PUSH1 0x0 PUSH2 0xB6F PUSH2 0xB6A DUP5 PUSH2 0xB1C JUMP JUMPDEST PUSH2 0xB01 JUMP JUMPDEST SWAP1 POP DUP3 DUP2 MSTORE PUSH1 0x20 DUP2 ADD DUP5 DUP5 DUP5 ADD GT ISZERO PUSH2 0xB8B JUMPI PUSH2 0xB8A PUSH2 0xA9C JUMP JUMPDEST JUMPDEST PUSH2 0xB96 DUP5 DUP3 DUP6 PUSH2 0xB4D JUMP JUMPDEST POP SWAP4 SWAP3 POP POP POP JUMP JUMPDEST PUSH1 0x0 DUP3 PUSH1 0x1F DUP4 ADD SLT PUSH2 0xBB3 JUMPI PUSH2 0xBB2 PUSH2 0xA97 JUMP JUMPDEST JUMPDEST DUP2 CALLDATALOAD PUSH2 0xBC3 DUP5 DUP3 PUSH1 0x20 DUP7 ADD PUSH2 0xB5C JUMP JUMPDEST SWAP2 POP POP SWAP3 SWAP2 POP POP JUMP JUMPDEST PUSH1 0x0 PUSH8 0xFFFFFFFFFFFFFFFF DUP3 GT ISZERO PUSH2 0xBE7 JUMPI PUSH2 0xBE6 PUSH2 0xAA1 JUMP JUMPDEST JUMPDEST PUSH1 0x20 DUP3 MUL SWAP1 POP PUSH1 0x20 DUP2 ADD SWAP1 POP SWAP2 SWAP1 POP JUMP JUMPDEST PUSH1 0x0 DUP1 REVERT JUMPDEST PUSH1 0x0 PUSH2 0xC10 PUSH2 0xC0B DUP5 PUSH2 0xBCC JUMP JUMPDEST PUSH2 0xB01 JUMP JUMPDEST SWAP1 POP DUP1 DUP4 DUP3 MSTORE PUSH1 0x20 DUP3 ADD SWAP1 POP PUSH1 0x20 DUP5 MUL DUP4 ADD DUP6 DUP2 GT ISZERO PUSH2 0xC33 JUMPI PUSH2 0xC32 PUSH2 0xBF8 JUMP JUMPDEST JUMPDEST DUP4 JUMPDEST DUP2 DUP2 LT ISZERO PUSH2 0xC7A JUMPI DUP1 CALLDATALOAD PUSH8 0xFFFFFFFFFFFFFFFF DUP2 GT ISZERO PUSH2 0xC58 JUMPI PUSH2 0xC57 PUSH2 0xA97 JUMP JUMPDEST JUMPDEST DUP1 DUP7 ADD PUSH2 0xC65 DUP10 DUP3 PUSH2 0xB9E JUMP JUMPDEST DUP6 MSTORE PUSH1 0x20 DUP6 ADD SWAP5 POP POP POP PUSH1 0x20 DUP2 ADD SWAP1 POP PUSH2 0xC35 JUMP JUMPDEST POP POP POP SWAP4 SWAP3 POP POP POP JUMP JUMPDEST PUSH1 0x0 DUP3 PUSH1 0x1F DUP4 ADD SLT PUSH2 0xC99 JUMPI PUSH2 0xC98 PUSH2 0xA97 JUMP JUMPDEST JUMPDEST DUP2 CALLDATALOAD PUSH2 0xCA9 DUP5 DUP3 PUSH1 0x20 DUP7 ADD PUSH2 0xBFD JUMP JUMPDEST SWAP2 POP POP SWAP3 SWAP2 POP POP JUMP JUMPDEST PUSH1 0x0 DUP1 PUSH1 0x0 PUSH1 0x60 DUP5 DUP7 SUB SLT ISZERO PUSH2 0xCCB JUMPI PUSH2 0xCCA PUSH2 0x9BB JUMP JUMPDEST JUMPDEST PUSH1 0x0 PUSH2 0xCD9 DUP7 DUP3 DUP8 ADD PUSH2 0x9DC JUMP JUMPDEST SWAP4 POP POP PUSH1 0x20 DUP5 ADD CALLDATALOAD PUSH8 0xFFFFFFFFFFFFFFFF DUP2 GT ISZERO PUSH2 0xCFA JUMPI PUSH2 0xCF9 PUSH2 0x9C0 JUMP JUMPDEST JUMPDEST PUSH2 0xD06 DUP7 DUP3 DUP8 ADD PUSH2 0xB9E JUMP JUMPDEST SWAP3 POP POP PUSH1 0x40 DUP5 ADD CALLDATALOAD PUSH8 0xFFFFFFFFFFFFFFFF DUP2 GT ISZERO PUSH2 0xD27 JUMPI PUSH2 0xD26 PUSH2 0x9C0 JUMP JUMPDEST JUMPDEST PUSH2 0xD33 DUP7 DUP3 DUP8 ADD PUSH2 0xC84 JUMP JUMPDEST SWAP2 POP POP SWAP3 POP SWAP3 POP SWAP3 JUMP JUMPDEST PUSH1 0x0 DUP3 DUP3 MSTORE PUSH1 0x20 DUP3 ADD SWAP1 POP SWAP3 SWAP2 POP POP JUMP JUMPDEST PUSH1 0x0 PUSH2 0xD59 DUP3 PUSH2 0x7E0 JUMP JUMPDEST PUSH2 0xD63 DUP2 DUP6 PUSH2 0xD3D JUMP JUMPDEST SWAP4 POP DUP4 PUSH1 0x20 DUP3 MUL DUP6 ADD PUSH2 0xD75 DUP6 PUSH2 0x7FC JUMP JUMPDEST DUP1 PUSH1 0x0 JUMPDEST DUP6 DUP2 LT ISZERO PUSH2 0xDB1 JUMPI DUP5 DUP5 SUB DUP10 MSTORE DUP2 MLOAD PUSH2 0xD92 DUP6 DUP3 PUSH2 0x80C JUMP JUMPDEST SWAP5 POP PUSH2 0xD9D DUP4 PUSH2 0x820 JUMP JUMPDEST SWAP3 POP PUSH1 0x20 DUP11 ADD SWAP10 POP POP PUSH1 0x1 DUP2 ADD SWAP1 POP PUSH2 0xD79 JUMP JUMPDEST POP DUP3 SWAP8 POP DUP8 SWAP6 POP POP POP POP POP POP SWAP3 SWAP2 POP POP JUMP JUMPDEST PUSH1 0x0 PUSH1 0x20 DUP3 ADD SWAP1 POP DUP2 DUP2 SUB PUSH1 0x0 DUP4 ADD MSTORE PUSH2 0xDDD DUP2 DUP5 PUSH2 0xD4E JUMP JUMPDEST SWAP1 POP SWAP3 SWAP2 POP POP JUMP JUMPDEST PUSH32 0x4E487B7100000000000000000000000000000000000000000000000000000000 PUSH1 0x0 MSTORE PUSH1 0x22 PUSH1 0x4 MSTORE PUSH1 0x24 PUSH1 0x0 REVERT JUMPDEST PUSH1 0x0 PUSH1 0x2 DUP3 DIV SWAP1 POP PUSH1 0x1 DUP3 AND DUP1 PUSH2 0xE2C JUMPI PUSH1 0x7F DUP3 AND SWAP2 POP JUMPDEST PUSH1 0x20 DUP3 LT DUP2 SUB PUSH2 0xE3F JUMPI PUSH2 0xE3E PUSH2 0xDE5 JUMP JUMPDEST JUMPDEST POP SWAP2 SWAP1 POP JUMP JUMPDEST PUSH32 0x4E487B7100000000000000000000000000000000000000000000000000000000 PUSH1 0x0 MSTORE PUSH1 0x11 PUSH1 0x4 MSTORE PUSH1 0x24 PUSH1 0x0 REVERT JUMPDEST PUSH1 0x0 PUSH2 0xE7F DUP3 PUSH2 0x737 JUMP JUMPDEST SWAP2 POP PUSH2 0xE8A DUP4 PUSH2 0x737 JUMP JUMPDEST SWAP3 POP DUP3 DUP3 SUB SWAP1 POP DUP2 DUP2 GT ISZERO PUSH2 0xEA2 JUMPI PUSH2 0xEA1 PUSH2 0xE45 JUMP JUMPDEST JUMPDEST SWAP3 SWAP2 POP POP JUMP JUMPDEST PUSH32 0x4E487B7100000000000000000000000000000000000000000000000000000000 PUSH1 0x0 MSTORE PUSH1 0x32 PUSH1 0x4 MSTORE PUSH1 0x24 PUSH1 0x0 REVERT JUMPDEST PUSH1 0x0 DUP2 SWAP1 POP DUP2 PUSH1 0x0 MSTORE PUSH1 0x20 PUSH1 0x0 KECCAK256 SWAP1 POP SWAP2 SWAP1 POP JUMP JUMPDEST PUSH1 0x0 PUSH1 0x20 PUSH1 0x1F DUP4 ADD DIV SWAP1 POP SWAP2 SWAP1 POP JUMP JUMPDEST PUSH1 0x0 DUP3 DUP3 SHL SWAP1 POP SWAP3 SWAP2 POP POP JUMP JUMPDEST PUSH1 0x0 PUSH1 0x8 DUP4 MUL PUSH2 0xF39 PUSH32 0xFFFFFFFFFFFFFFFFFFFFFFFFFFFFFFFFFFFFFFFFFFFFFFFFFFFFFFFFFFFFFFFF DUP3 PUSH2 0xEFC JUMP JUMPDEST PUSH2 0xF43 DUP7 DUP4 PUSH2 0xEFC JUMP JUMPDEST SWAP6 POP DUP1 NOT DUP5 AND SWAP4 POP DUP1 DUP7 AND DUP5 OR SWAP3 POP POP POP SWAP4 SWAP3 POP POP POP JUMP JUMPDEST PUSH1 0x0 DUP2 SWAP1 POP SWAP2 SWAP1 POP JUMP JUMPDEST PUSH1 0x0 PUSH2 0xF80 PUSH2 0xF7B PUSH2 0xF76 DUP5 PUSH2 0x737 JUMP JUMPDEST PUSH2 0xF5B JUMP JUMPDEST PUSH2 0x737 JUMP JUMPDEST SWAP1 POP SWAP2 SWAP1 POP JUMP JUMPDEST PUSH1 0x0 DUP2 SWAP1 POP SWAP2 SWAP1 POP JUMP JUMPDEST PUSH2 0xF9A DUP4 PUSH2 0xF65 JUMP JUMPDEST PUSH2 0xFAE PUSH2 0xFA6 DUP3 PUSH2 0xF87 JUMP JUMPDEST DUP5 DUP5 SLOAD PUSH2 0xF09 JUMP JUMPDEST DUP3 SSTORE POP POP POP POP JUMP JUMPDEST PUSH1 0x0 SWAP1 JUMP JUMPDEST PUSH2 0xFC3 PUSH2 0xFB6 JUMP JUMPDEST PUSH2 0xFCE DUP2 DUP5 DUP5 PUSH2 0xF91 JUMP JUMPDEST POP POP POP JUMP JUMPDEST JUMPDEST DUP2 DUP2 LT ISZERO PUSH2 0xFF2 JUMPI PUSH2 0xFE7 PUSH1 0x0 DUP3 PUSH2 0xFBB JUMP JUMPDEST PUSH1 0x1 DUP2 ADD SWAP1 POP PUSH2 0xFD4 JUMP JUMPDEST POP POP JUMP JUMPDEST PUSH1 0x1F DUP3 GT ISZERO PUSH2 0x1037 JUMPI PUSH2 0x1008 DUP2 PUSH2 0xED7 JUMP JUMPDEST PUSH2 0x1011 DUP5 PUSH2 0xEEC JUMP JUMPDEST DUP2 ADD PUSH1 0x20 DUP6 LT ISZERO PUSH2 0x1020 JUMPI DUP2 SWAP1 POP JUMPDEST PUSH2 0x1034 PUSH2 0x102C DUP6 PUSH2 0xEEC JUMP JUMPDEST DUP4 ADD DUP3 PUSH2 0xFD3 JUMP JUMPDEST POP POP JUMPDEST POP POP POP JUMP JUMPDEST PUSH1 0x0 DUP3 DUP3 SHR SWAP1 POP SWAP3 SWAP2 POP POP JUMP JUMPDEST PUSH1 0x0 PUSH2 0x105A PUSH1 0x0 NOT DUP5 PUSH1 0x8 MUL PUSH2 0x103C JUMP JUMPDEST NOT DUP1 DUP4 AND SWAP2 POP POP SWAP3 SWAP2 POP POP JUMP JUMPDEST PUSH1 0x0 PUSH2 0x1073 DUP4 DUP4 PUSH2 0x1049 JUMP JUMPDEST SWAP2 POP DUP3 PUSH1 0x2 MUL DUP3 OR SWAP1 POP SWAP3 SWAP2 POP POP JUMP JUMPDEST PUSH2 0x108C DUP3 PUSH2 0x750 JUMP JUMPDEST PUSH8 0xFFFFFFFFFFFFFFFF DUP2 GT ISZERO PUSH2 0x10A5 JUMPI PUSH2 0x10A4 PUSH2 0xAA1 JUMP JUMPDEST JUMPDEST PUSH2 0x10AF DUP3 SLOAD PUSH2 0xE14 JUMP JUMPDEST PUSH2 0x10BA DUP3 DUP3 DUP6 PUSH2 0xFF6 JUMP JUMPDEST PUSH1 0x0 PUSH1 0x20 SWAP1 POP PUSH1 0x1F DUP4 GT PUSH1 0x1 DUP2 EQ PUSH2 0x10ED JUMPI PUSH1 0x0 DUP5 ISZERO PUSH2 0x10DB JUMPI DUP3 DUP8 ADD MLOAD SWAP1 POP JUMPDEST PUSH2 0x10E5 DUP6 DUP3 PUSH2 0x1067 JUMP JUMPDEST DUP7 SSTORE POP PUSH2 0x114D JUMP JUMPDEST PUSH1 0x1F NOT DUP5 AND PUSH2 0x10FB DUP7 PUSH2 0xED7 JUMP JUMPDEST PUSH1 0x0 JUMPDEST DUP3 DUP2 LT ISZERO PUSH2 0x1123 JUMPI DUP5 DUP10 ADD MLOAD DUP3 SSTORE PUSH1 0x1 DUP3 ADD SWAP2 POP PUSH1 0x20 DUP6 ADD SWAP5 POP PUSH1 0x20 DUP2 ADD SWAP1 POP PUSH2 0x10FE JUMP JUMPDEST DUP7 DUP4 LT ISZERO PUSH2 0x1140 JUMPI DUP5 DUP10 ADD MLOAD PUSH2 0x113C PUSH1 0x1F DUP10 AND DUP3 PUSH2 0x1049 JUMP JUMPDEST DUP4 SSTORE POP JUMPDEST PUSH1 0x1 PUSH1 0x2 DUP9 MUL ADD DUP9 SSTORE POP POP POP JUMPDEST POP POP POP POP POP POP JUMP INVALID LOG2 PUSH5 0x6970667358 0x22 SLT KECCAK256 0x28 CODESIZE SELFBALANCE EQ 0xDD 0xE3 0x4C 0xAC PUSH24 0x16D456826554643C294179141D040889FF9446E5212ED064 PUSH20 0x6F6C634300081200330000000000000000000000 "
				},
				"gasEstimates": {
					"creation": {
						"codeDepositCost": "898200",
						"executionCost": "935",
						"totalCost": "899135"
					},
					"external": {
						"getABC(uint256)": "infinite",
						"getAll()": "infinite",
						"getC(uint256)": "infinite",
						"pushABC(uint256,string,string[])": "infinite"
					}
				},
				"methodIdentifiers": {
					"getABC(uint256)": "98105d8d",
					"getAll()": "53ed5143",
					"getC(uint256)": "f7048c97",
					"pushABC(uint256,string,string[])": "b46e04d5"
				}
			},
			"storageLayout": {
				"storage": [
					{
						"astId": 153,
						"contract": "contracts-lecture/230509-1.sol:note3",
						"label": "ABCs",
						"offset": 0,
						"slot": "0",
						"type": "t_array(t_struct(ABC)149_storage)dyn_storage"
					}
				],
				"types": {
					"t_array(t_string_storage)dyn_storage": {
						"base": "t_string_storage",
						"encoding": "dynamic_array",
						"label": "string[]",
						"numberOfBytes": "32"
					},
					"t_array(t_struct(ABC)149_storage)dyn_storage": {
						"base": "t_struct(ABC)149_storage",
						"encoding": "dynamic_array",
						"label": "struct note3.ABC[]",
						"numberOfBytes": "32"
					},
					"t_string_storage": {
						"encoding": "bytes",
						"label": "string",
						"numberOfBytes": "32"
					},
					"t_struct(ABC)149_storage": {
						"encoding": "inplace",
						"label": "struct note3.ABC",
						"members": [
							{
								"astId": 143,
								"contract": "contracts-lecture/230509-1.sol:note3",
								"label": "a",
								"offset": 0,
								"slot": "0",
								"type": "t_uint256"
							},
							{
								"astId": 145,
								"contract": "contracts-lecture/230509-1.sol:note3",
								"label": "b",
								"offset": 0,
								"slot": "1",
								"type": "t_string_storage"
							},
							{
								"astId": 148,
								"contract": "contracts-lecture/230509-1.sol:note3",
								"label": "c",
								"offset": 0,
								"slot": "2",
								"type": "t_array(t_string_storage)dyn_storage"
							}
						],
						"numberOfBytes": "96"
					},
					"t_uint256": {
						"encoding": "inplace",
						"label": "uint256",
						"numberOfBytes": "32"
					}
				}
			},
			"userdoc": {
				"kind": "user",
				"methods": {},
				"version": 1
			}
		}
	}
}