{
	"contracts-lecture/230516-1.sol": {
		"DAD": {
			"abi": [
				{
					"inputs": [
						{
							"internalType": "uint256",
							"name": "_n",
							"type": "uint256"
						}
					],
					"name": "changeWallet",
					"outputs": [],
					"stateMutability": "nonpayable",
					"type": "function"
				},
				{
					"inputs": [],
					"name": "character",
					"outputs": [
						{
							"internalType": "string",
							"name": "",
							"type": "string"
						}
					],
					"stateMutability": "pure",
					"type": "function"
				},
				{
					"inputs": [],
					"name": "getAddress",
					"outputs": [
						{
							"internalType": "address",
							"name": "",
							"type": "address"
						}
					],
					"stateMutability": "view",
					"type": "function"
				},
				{
					"inputs": [],
					"name": "getMsgSender",
					"outputs": [
						{
							"internalType": "address",
							"name": "",
							"type": "address"
						}
					],
					"stateMutability": "view",
					"type": "function"
				},
				{
					"inputs": [],
					"name": "wallet",
					"outputs": [
						{
							"internalType": "uint256",
							"name": "",
							"type": "uint256"
						}
					],
					"stateMutability": "view",
					"type": "function"
				},
				{
					"inputs": [],
					"name": "who",
					"outputs": [
						{
							"internalType": "string",
							"name": "",
							"type": "string"
						}
					],
					"stateMutability": "pure",
					"type": "function"
				}
			],
			"devdoc": {
				"kind": "dev",
				"methods": {},
				"version": 1
			},
			"evm": {
				"assembly": "    /* \"contracts-lecture/230516-1.sol\":971:1825  contract DAD {... */\n  mstore(0x40, 0x80)\n    /* \"contracts-lecture/230516-1.sol\":1022:1025  100 */\n  0x64\n    /* \"contracts-lecture/230516-1.sol\":1003:1025  uint public wallet=100 */\n  0x01\n  sstore\n    /* \"contracts-lecture/230516-1.sol\":1079:1083  1000 */\n  0x03e8\n    /* \"contracts-lecture/230516-1.sol\":1058:1083  uint internal crypto=1000 */\n  0x02\n  sstore\n    /* \"contracts-lecture/230516-1.sol\":1167:1172  10000 */\n  0x2710\n    /* \"contracts-lecture/230516-1.sol\":1144:1172  uint private emergency=10000 */\n  0x03\n  sstore\n    /* \"contracts-lecture/230516-1.sol\":971:1825  contract DAD {... */\n  callvalue\n  dup1\n  iszero\n  tag_1\n  jumpi\n  0x00\n  dup1\n  revert\ntag_1:\n  pop\n  dataSize(sub_0)\n  dup1\n  dataOffset(sub_0)\n  0x00\n  codecopy\n  0x00\n  return\nstop\n\nsub_0: assembly {\n        /* \"contracts-lecture/230516-1.sol\":971:1825  contract DAD {... */\n      mstore(0x40, 0x80)\n      callvalue\n      dup1\n      iszero\n      tag_1\n      jumpi\n      0x00\n      dup1\n      revert\n    tag_1:\n      pop\n      jumpi(tag_2, lt(calldatasize, 0x04))\n      shr(0xe0, calldataload(0x00))\n      dup1\n      0x38cc4831\n      eq\n      tag_3\n      jumpi\n      dup1\n      0x4d2e03a0\n      eq\n      tag_4\n      jumpi\n      dup1\n      0x521eb273\n      eq\n      tag_5\n      jumpi\n      dup1\n      0x7a6ce2e1\n      eq\n      tag_6\n      jumpi\n      dup1\n      0xd6d21dfd\n      eq\n      tag_7\n      jumpi\n      dup1\n      0xfb22f715\n      eq\n      tag_8\n      jumpi\n    tag_2:\n      0x00\n      dup1\n      revert\n        /* \"contracts-lecture/230516-1.sol\":1570:1658  function getAddress() public view returns(address) {... */\n    tag_3:\n      tag_9\n      tag_10\n      jump\t// in\n    tag_9:\n      mload(0x40)\n      tag_11\n      swap2\n      swap1\n      tag_12\n      jump\t// in\n    tag_11:\n      mload(0x40)\n      dup1\n      swap2\n      sub\n      swap1\n      return\n        /* \"contracts-lecture/230516-1.sol\":1472:1564  function character() external pure returns(string memory) {... */\n    tag_4:\n      tag_13\n      tag_14\n      jump\t// in\n    tag_13:\n      mload(0x40)\n      tag_15\n      swap2\n      swap1\n      tag_16\n      jump\t// in\n    tag_15:\n      mload(0x40)\n      dup1\n      swap2\n      sub\n      swap1\n      return\n        /* \"contracts-lecture/230516-1.sol\":1003:1025  uint public wallet=100 */\n    tag_5:\n      tag_17\n      tag_18\n      jump\t// in\n    tag_17:\n      mload(0x40)\n      tag_19\n      swap2\n      swap1\n      tag_20\n      jump\t// in\n    tag_19:\n      mload(0x40)\n      dup1\n      swap2\n      sub\n      swap1\n      return\n        /* \"contracts-lecture/230516-1.sol\":1664:1751  function getMsgSender() public view returns(address) {... */\n    tag_6:\n      tag_21\n      tag_22\n      jump\t// in\n    tag_21:\n      mload(0x40)\n      tag_23\n      swap2\n      swap1\n      tag_12\n      jump\t// in\n    tag_23:\n      mload(0x40)\n      dup1\n      swap2\n      sub\n      swap1\n      return\n        /* \"contracts-lecture/230516-1.sol\":1199:1295  function who() virtual public pure returns(string memory) {... */\n    tag_7:\n      tag_24\n      tag_25\n      jump\t// in\n    tag_24:\n      mload(0x40)\n      tag_26\n      swap2\n      swap1\n      tag_16\n      jump\t// in\n    tag_26:\n      mload(0x40)\n      dup1\n      swap2\n      sub\n      swap1\n      return\n        /* \"contracts-lecture/230516-1.sol\":1757:1823  function changeWallet(uint _n) public {... */\n    tag_8:\n      tag_27\n      0x04\n      dup1\n      calldatasize\n      sub\n      dup2\n      add\n      swap1\n      tag_28\n      swap2\n      swap1\n      tag_29\n      jump\t// in\n    tag_28:\n      tag_30\n      jump\t// in\n    tag_27:\n      stop\n        /* \"contracts-lecture/230516-1.sol\":1570:1658  function getAddress() public view returns(address) {... */\n    tag_10:\n        /* \"contracts-lecture/230516-1.sol\":1612:1619  address */\n      0x00\n        /* \"contracts-lecture/230516-1.sol\":1646:1650  this */\n      address\n        /* \"contracts-lecture/230516-1.sol\":1631:1651  return address(this) */\n      swap1\n      pop\n        /* \"contracts-lecture/230516-1.sol\":1570:1658  function getAddress() public view returns(address) {... */\n      swap1\n      jump\t// out\n        /* \"contracts-lecture/230516-1.sol\":1472:1564  function character() external pure returns(string memory) {... */\n    tag_14:\n        /* \"contracts-lecture/230516-1.sol\":1515:1528  string memory */\n      0x60\n        /* \"contracts-lecture/230516-1.sol\":1540:1557  return \"not good\" */\n      mload(0x40)\n      dup1\n      0x40\n      add\n      0x40\n      mstore\n      dup1\n      0x08\n      dup2\n      mstore\n      0x20\n      add\n      0x6e6f7420676f6f64000000000000000000000000000000000000000000000000\n      dup2\n      mstore\n      pop\n      swap1\n      pop\n        /* \"contracts-lecture/230516-1.sol\":1472:1564  function character() external pure returns(string memory) {... */\n      swap1\n      jump\t// out\n        /* \"contracts-lecture/230516-1.sol\":1003:1025  uint public wallet=100 */\n    tag_18:\n      sload(0x01)\n      dup2\n      jump\t// out\n        /* \"contracts-lecture/230516-1.sol\":1664:1751  function getMsgSender() public view returns(address) {... */\n    tag_22:\n        /* \"contracts-lecture/230516-1.sol\":1708:1715  address */\n      0x00\n        /* \"contracts-lecture/230516-1.sol\":1734:1744  msg.sender */\n      caller\n        /* \"contracts-lecture/230516-1.sol\":1727:1744  return msg.sender */\n      swap1\n      pop\n        /* \"contracts-lecture/230516-1.sol\":1664:1751  function getMsgSender() public view returns(address) {... */\n      swap1\n      jump\t// out\n        /* \"contracts-lecture/230516-1.sol\":1199:1295  function who() virtual public pure returns(string memory) {... */\n    tag_25:\n        /* \"contracts-lecture/230516-1.sol\":1242:1255  string memory */\n      0x60\n        /* \"contracts-lecture/230516-1.sol\":1267:1288  return \"dad from DAD\" */\n      mload(0x40)\n      dup1\n      0x40\n      add\n      0x40\n      mstore\n      dup1\n      0x0c\n      dup2\n      mstore\n      0x20\n      add\n      0x6461642066726f6d204441440000000000000000000000000000000000000000\n      dup2\n      mstore\n      pop\n      swap1\n      pop\n        /* \"contracts-lecture/230516-1.sol\":1199:1295  function who() virtual public pure returns(string memory) {... */\n      swap1\n      jump\t// out\n        /* \"contracts-lecture/230516-1.sol\":1757:1823  function changeWallet(uint _n) public {... */\n    tag_30:\n        /* \"contracts-lecture/230516-1.sol\":1814:1816  _n */\n      dup1\n        /* \"contracts-lecture/230516-1.sol\":1805:1811  wallet */\n      0x01\n        /* \"contracts-lecture/230516-1.sol\":1805:1816  wallet = _n */\n      dup2\n      swap1\n      sstore\n      pop\n        /* \"contracts-lecture/230516-1.sol\":1757:1823  function changeWallet(uint _n) public {... */\n      pop\n      jump\t// out\n        /* \"#utility.yul\":7:133   */\n    tag_36:\n        /* \"#utility.yul\":44:51   */\n      0x00\n        /* \"#utility.yul\":84:126   */\n      0xffffffffffffffffffffffffffffffffffffffff\n        /* \"#utility.yul\":77:82   */\n      dup3\n        /* \"#utility.yul\":73:127   */\n      and\n        /* \"#utility.yul\":62:127   */\n      swap1\n      pop\n        /* \"#utility.yul\":7:133   */\n      swap2\n      swap1\n      pop\n      jump\t// out\n        /* \"#utility.yul\":139:235   */\n    tag_37:\n        /* \"#utility.yul\":176:183   */\n      0x00\n        /* \"#utility.yul\":205:229   */\n      tag_54\n        /* \"#utility.yul\":223:228   */\n      dup3\n        /* \"#utility.yul\":205:229   */\n      tag_36\n      jump\t// in\n    tag_54:\n        /* \"#utility.yul\":194:229   */\n      swap1\n      pop\n        /* \"#utility.yul\":139:235   */\n      swap2\n      swap1\n      pop\n      jump\t// out\n        /* \"#utility.yul\":241:359   */\n    tag_38:\n        /* \"#utility.yul\":328:352   */\n      tag_56\n        /* \"#utility.yul\":346:351   */\n      dup2\n        /* \"#utility.yul\":328:352   */\n      tag_37\n      jump\t// in\n    tag_56:\n        /* \"#utility.yul\":323:326   */\n      dup3\n        /* \"#utility.yul\":316:353   */\n      mstore\n        /* \"#utility.yul\":241:359   */\n      pop\n      pop\n      jump\t// out\n        /* \"#utility.yul\":365:587   */\n    tag_12:\n        /* \"#utility.yul\":458:462   */\n      0x00\n        /* \"#utility.yul\":496:498   */\n      0x20\n        /* \"#utility.yul\":485:494   */\n      dup3\n        /* \"#utility.yul\":481:499   */\n      add\n        /* \"#utility.yul\":473:499   */\n      swap1\n      pop\n        /* \"#utility.yul\":509:580   */\n      tag_58\n        /* \"#utility.yul\":577:578   */\n      0x00\n        /* \"#utility.yul\":566:575   */\n      dup4\n        /* \"#utility.yul\":562:579   */\n      add\n        /* \"#utility.yul\":553:559   */\n      dup5\n        /* \"#utility.yul\":509:580   */\n      tag_38\n      jump\t// in\n    tag_58:\n        /* \"#utility.yul\":365:587   */\n      swap3\n      swap2\n      pop\n      pop\n      jump\t// out\n        /* \"#utility.yul\":593:692   */\n    tag_39:\n        /* \"#utility.yul\":645:651   */\n      0x00\n        /* \"#utility.yul\":679:684   */\n      dup2\n        /* \"#utility.yul\":673:685   */\n      mload\n        /* \"#utility.yul\":663:685   */\n      swap1\n      pop\n        /* \"#utility.yul\":593:692   */\n      swap2\n      swap1\n      pop\n      jump\t// out\n        /* \"#utility.yul\":698:867   */\n    tag_40:\n        /* \"#utility.yul\":782:793   */\n      0x00\n        /* \"#utility.yul\":816:822   */\n      dup3\n        /* \"#utility.yul\":811:814   */\n      dup3\n        /* \"#utility.yul\":804:823   */\n      mstore\n        /* \"#utility.yul\":856:860   */\n      0x20\n        /* \"#utility.yul\":851:854   */\n      dup3\n        /* \"#utility.yul\":847:861   */\n      add\n        /* \"#utility.yul\":832:861   */\n      swap1\n      pop\n        /* \"#utility.yul\":698:867   */\n      swap3\n      swap2\n      pop\n      pop\n      jump\t// out\n        /* \"#utility.yul\":873:1119   */\n    tag_41:\n        /* \"#utility.yul\":954:955   */\n      0x00\n        /* \"#utility.yul\":964:1077   */\n    tag_62:\n        /* \"#utility.yul\":978:984   */\n      dup4\n        /* \"#utility.yul\":975:976   */\n      dup2\n        /* \"#utility.yul\":972:985   */\n      lt\n        /* \"#utility.yul\":964:1077   */\n      iszero\n      tag_64\n      jumpi\n        /* \"#utility.yul\":1063:1064   */\n      dup1\n        /* \"#utility.yul\":1058:1061   */\n      dup3\n        /* \"#utility.yul\":1054:1065   */\n      add\n        /* \"#utility.yul\":1048:1066   */\n      mload\n        /* \"#utility.yul\":1044:1045   */\n      dup2\n        /* \"#utility.yul\":1039:1042   */\n      dup5\n        /* \"#utility.yul\":1035:1046   */\n      add\n        /* \"#utility.yul\":1028:1067   */\n      mstore\n        /* \"#utility.yul\":1000:1002   */\n      0x20\n        /* \"#utility.yul\":997:998   */\n      dup2\n        /* \"#utility.yul\":993:1003   */\n      add\n        /* \"#utility.yul\":988:1003   */\n      swap1\n      pop\n        /* \"#utility.yul\":964:1077   */\n      jump(tag_62)\n    tag_64:\n        /* \"#utility.yul\":1111:1112   */\n      0x00\n        /* \"#utility.yul\":1102:1108   */\n      dup5\n        /* \"#utility.yul\":1097:1100   */\n      dup5\n        /* \"#utility.yul\":1093:1109   */\n      add\n        /* \"#utility.yul\":1086:1113   */\n      mstore\n        /* \"#utility.yul\":935:1119   */\n      pop\n        /* \"#utility.yul\":873:1119   */\n      pop\n      pop\n      pop\n      jump\t// out\n        /* \"#utility.yul\":1125:1227   */\n    tag_42:\n        /* \"#utility.yul\":1166:1172   */\n      0x00\n        /* \"#utility.yul\":1217:1219   */\n      0x1f\n        /* \"#utility.yul\":1213:1220   */\n      not\n        /* \"#utility.yul\":1208:1210   */\n      0x1f\n        /* \"#utility.yul\":1201:1206   */\n      dup4\n        /* \"#utility.yul\":1197:1211   */\n      add\n        /* \"#utility.yul\":1193:1221   */\n      and\n        /* \"#utility.yul\":1183:1221   */\n      swap1\n      pop\n        /* \"#utility.yul\":1125:1227   */\n      swap2\n      swap1\n      pop\n      jump\t// out\n        /* \"#utility.yul\":1233:1610   */\n    tag_43:\n        /* \"#utility.yul\":1321:1324   */\n      0x00\n        /* \"#utility.yul\":1349:1388   */\n      tag_67\n        /* \"#utility.yul\":1382:1387   */\n      dup3\n        /* \"#utility.yul\":1349:1388   */\n      tag_39\n      jump\t// in\n    tag_67:\n        /* \"#utility.yul\":1404:1475   */\n      tag_68\n        /* \"#utility.yul\":1468:1474   */\n      dup2\n        /* \"#utility.yul\":1463:1466   */\n      dup6\n        /* \"#utility.yul\":1404:1475   */\n      tag_40\n      jump\t// in\n    tag_68:\n        /* \"#utility.yul\":1397:1475   */\n      swap4\n      pop\n        /* \"#utility.yul\":1484:1549   */\n      tag_69\n        /* \"#utility.yul\":1542:1548   */\n      dup2\n        /* \"#utility.yul\":1537:1540   */\n      dup6\n        /* \"#utility.yul\":1530:1534   */\n      0x20\n        /* \"#utility.yul\":1523:1528   */\n      dup7\n        /* \"#utility.yul\":1519:1535   */\n      add\n        /* \"#utility.yul\":1484:1549   */\n      tag_41\n      jump\t// in\n    tag_69:\n        /* \"#utility.yul\":1574:1603   */\n      tag_70\n        /* \"#utility.yul\":1596:1602   */\n      dup2\n        /* \"#utility.yul\":1574:1603   */\n      tag_42\n      jump\t// in\n    tag_70:\n        /* \"#utility.yul\":1569:1572   */\n      dup5\n        /* \"#utility.yul\":1565:1604   */\n      add\n        /* \"#utility.yul\":1558:1604   */\n      swap2\n      pop\n        /* \"#utility.yul\":1325:1610   */\n      pop\n        /* \"#utility.yul\":1233:1610   */\n      swap3\n      swap2\n      pop\n      pop\n      jump\t// out\n        /* \"#utility.yul\":1616:1929   */\n    tag_16:\n        /* \"#utility.yul\":1729:1733   */\n      0x00\n        /* \"#utility.yul\":1767:1769   */\n      0x20\n        /* \"#utility.yul\":1756:1765   */\n      dup3\n        /* \"#utility.yul\":1752:1770   */\n      add\n        /* \"#utility.yul\":1744:1770   */\n      swap1\n      pop\n        /* \"#utility.yul\":1816:1825   */\n      dup2\n        /* \"#utility.yul\":1810:1814   */\n      dup2\n        /* \"#utility.yul\":1806:1826   */\n      sub\n        /* \"#utility.yul\":1802:1803   */\n      0x00\n        /* \"#utility.yul\":1791:1800   */\n      dup4\n        /* \"#utility.yul\":1787:1804   */\n      add\n        /* \"#utility.yul\":1780:1827   */\n      mstore\n        /* \"#utility.yul\":1844:1922   */\n      tag_72\n        /* \"#utility.yul\":1917:1921   */\n      dup2\n        /* \"#utility.yul\":1908:1914   */\n      dup5\n        /* \"#utility.yul\":1844:1922   */\n      tag_43\n      jump\t// in\n    tag_72:\n        /* \"#utility.yul\":1836:1922   */\n      swap1\n      pop\n        /* \"#utility.yul\":1616:1929   */\n      swap3\n      swap2\n      pop\n      pop\n      jump\t// out\n        /* \"#utility.yul\":1935:2012   */\n    tag_44:\n        /* \"#utility.yul\":1972:1979   */\n      0x00\n        /* \"#utility.yul\":2001:2006   */\n      dup2\n        /* \"#utility.yul\":1990:2006   */\n      swap1\n      pop\n        /* \"#utility.yul\":1935:2012   */\n      swap2\n      swap1\n      pop\n      jump\t// out\n        /* \"#utility.yul\":2018:2136   */\n    tag_45:\n        /* \"#utility.yul\":2105:2129   */\n      tag_75\n        /* \"#utility.yul\":2123:2128   */\n      dup2\n        /* \"#utility.yul\":2105:2129   */\n      tag_44\n      jump\t// in\n    tag_75:\n        /* \"#utility.yul\":2100:2103   */\n      dup3\n        /* \"#utility.yul\":2093:2130   */\n      mstore\n        /* \"#utility.yul\":2018:2136   */\n      pop\n      pop\n      jump\t// out\n        /* \"#utility.yul\":2142:2364   */\n    tag_20:\n        /* \"#utility.yul\":2235:2239   */\n      0x00\n        /* \"#utility.yul\":2273:2275   */\n      0x20\n        /* \"#utility.yul\":2262:2271   */\n      dup3\n        /* \"#utility.yul\":2258:2276   */\n      add\n        /* \"#utility.yul\":2250:2276   */\n      swap1\n      pop\n        /* \"#utility.yul\":2286:2357   */\n      tag_77\n        /* \"#utility.yul\":2354:2355   */\n      0x00\n        /* \"#utility.yul\":2343:2352   */\n      dup4\n        /* \"#utility.yul\":2339:2356   */\n      add\n        /* \"#utility.yul\":2330:2336   */\n      dup5\n        /* \"#utility.yul\":2286:2357   */\n      tag_45\n      jump\t// in\n    tag_77:\n        /* \"#utility.yul\":2142:2364   */\n      swap3\n      swap2\n      pop\n      pop\n      jump\t// out\n        /* \"#utility.yul\":2451:2568   */\n    tag_47:\n        /* \"#utility.yul\":2560:2561   */\n      0x00\n        /* \"#utility.yul\":2557:2558   */\n      dup1\n        /* \"#utility.yul\":2550:2562   */\n      revert\n        /* \"#utility.yul\":2697:2819   */\n    tag_49:\n        /* \"#utility.yul\":2770:2794   */\n      tag_82\n        /* \"#utility.yul\":2788:2793   */\n      dup2\n        /* \"#utility.yul\":2770:2794   */\n      tag_44\n      jump\t// in\n    tag_82:\n        /* \"#utility.yul\":2763:2768   */\n      dup2\n        /* \"#utility.yul\":2760:2795   */\n      eq\n        /* \"#utility.yul\":2750:2813   */\n      tag_83\n      jumpi\n        /* \"#utility.yul\":2809:2810   */\n      0x00\n        /* \"#utility.yul\":2806:2807   */\n      dup1\n        /* \"#utility.yul\":2799:2811   */\n      revert\n        /* \"#utility.yul\":2750:2813   */\n    tag_83:\n        /* \"#utility.yul\":2697:2819   */\n      pop\n      jump\t// out\n        /* \"#utility.yul\":2825:2964   */\n    tag_50:\n        /* \"#utility.yul\":2871:2876   */\n      0x00\n        /* \"#utility.yul\":2909:2915   */\n      dup2\n        /* \"#utility.yul\":2896:2916   */\n      calldataload\n        /* \"#utility.yul\":2887:2916   */\n      swap1\n      pop\n        /* \"#utility.yul\":2925:2958   */\n      tag_85\n        /* \"#utility.yul\":2952:2957   */\n      dup2\n        /* \"#utility.yul\":2925:2958   */\n      tag_49\n      jump\t// in\n    tag_85:\n        /* \"#utility.yul\":2825:2964   */\n      swap3\n      swap2\n      pop\n      pop\n      jump\t// out\n        /* \"#utility.yul\":2970:3299   */\n    tag_29:\n        /* \"#utility.yul\":3029:3035   */\n      0x00\n        /* \"#utility.yul\":3078:3080   */\n      0x20\n        /* \"#utility.yul\":3066:3075   */\n      dup3\n        /* \"#utility.yul\":3057:3064   */\n      dup5\n        /* \"#utility.yul\":3053:3076   */\n      sub\n        /* \"#utility.yul\":3049:3081   */\n      slt\n        /* \"#utility.yul\":3046:3165   */\n      iszero\n      tag_87\n      jumpi\n        /* \"#utility.yul\":3084:3163   */\n      tag_88\n      tag_47\n      jump\t// in\n    tag_88:\n        /* \"#utility.yul\":3046:3165   */\n    tag_87:\n        /* \"#utility.yul\":3204:3205   */\n      0x00\n        /* \"#utility.yul\":3229:3282   */\n      tag_89\n        /* \"#utility.yul\":3274:3281   */\n      dup5\n        /* \"#utility.yul\":3265:3271   */\n      dup3\n        /* \"#utility.yul\":3254:3263   */\n      dup6\n        /* \"#utility.yul\":3250:3272   */\n      add\n        /* \"#utility.yul\":3229:3282   */\n      tag_50\n      jump\t// in\n    tag_89:\n        /* \"#utility.yul\":3219:3282   */\n      swap2\n      pop\n        /* \"#utility.yul\":3175:3292   */\n      pop\n        /* \"#utility.yul\":2970:3299   */\n      swap3\n      swap2\n      pop\n      pop\n      jump\t// out\n\n    auxdata: 0xa26469706673582212201e48c265d58d8685c4a8f8d46af3a8faebf5f2800ce6371301364f446b0152d664736f6c63430008120033\n}\n",
				"bytecode": {
					"linkReferences": {},
					"object": "608060405260646001556103e860025561271060035534801561002157600080fd5b50610389806100316000396000f3fe608060405234801561001057600080fd5b50600436106100625760003560e01c806338cc4831146100675780634d2e03a014610085578063521eb273146100a35780637a6ce2e1146100c1578063d6d21dfd146100df578063fb22f715146100fd575b600080fd5b61006f610119565b60405161007c91906101f4565b60405180910390f35b61008d610121565b60405161009a919061029f565b60405180910390f35b6100ab61015e565b6040516100b891906102da565b60405180910390f35b6100c9610164565b6040516100d691906101f4565b60405180910390f35b6100e761016c565b6040516100f4919061029f565b60405180910390f35b61011760048036038101906101129190610326565b6101a9565b005b600030905090565b60606040518060400160405280600881526020017f6e6f7420676f6f64000000000000000000000000000000000000000000000000815250905090565b60015481565b600033905090565b60606040518060400160405280600c81526020017f6461642066726f6d204441440000000000000000000000000000000000000000815250905090565b8060018190555050565b600073ffffffffffffffffffffffffffffffffffffffff82169050919050565b60006101de826101b3565b9050919050565b6101ee816101d3565b82525050565b600060208201905061020960008301846101e5565b92915050565b600081519050919050565b600082825260208201905092915050565b60005b8381101561024957808201518184015260208101905061022e565b60008484015250505050565b6000601f19601f8301169050919050565b60006102718261020f565b61027b818561021a565b935061028b81856020860161022b565b61029481610255565b840191505092915050565b600060208201905081810360008301526102b98184610266565b905092915050565b6000819050919050565b6102d4816102c1565b82525050565b60006020820190506102ef60008301846102cb565b92915050565b600080fd5b610303816102c1565b811461030e57600080fd5b50565b600081359050610320816102fa565b92915050565b60006020828403121561033c5761033b6102f5565b5b600061034a84828501610311565b9150509291505056fea26469706673582212201e48c265d58d8685c4a8f8d46af3a8faebf5f2800ce6371301364f446b0152d664736f6c63430008120033",
					"opcodes": "PUSH1 0x80 PUSH1 0x40 MSTORE PUSH1 0x64 PUSH1 0x1 SSTORE PUSH2 0x3E8 PUSH1 0x2 SSTORE PUSH2 0x2710 PUSH1 0x3 SSTORE CALLVALUE DUP1 ISZERO PUSH2 0x21 JUMPI PUSH1 0x0 DUP1 REVERT JUMPDEST POP PUSH2 0x389 DUP1 PUSH2 0x31 PUSH1 0x0 CODECOPY PUSH1 0x0 RETURN INVALID PUSH1 0x80 PUSH1 0x40 MSTORE CALLVALUE DUP1 ISZERO PUSH2 0x10 JUMPI PUSH1 0x0 DUP1 REVERT JUMPDEST POP PUSH1 0x4 CALLDATASIZE LT PUSH2 0x62 JUMPI PUSH1 0x0 CALLDATALOAD PUSH1 0xE0 SHR DUP1 PUSH4 0x38CC4831 EQ PUSH2 0x67 JUMPI DUP1 PUSH4 0x4D2E03A0 EQ PUSH2 0x85 JUMPI DUP1 PUSH4 0x521EB273 EQ PUSH2 0xA3 JUMPI DUP1 PUSH4 0x7A6CE2E1 EQ PUSH2 0xC1 JUMPI DUP1 PUSH4 0xD6D21DFD EQ PUSH2 0xDF JUMPI DUP1 PUSH4 0xFB22F715 EQ PUSH2 0xFD JUMPI JUMPDEST PUSH1 0x0 DUP1 REVERT JUMPDEST PUSH2 0x6F PUSH2 0x119 JUMP JUMPDEST PUSH1 0x40 MLOAD PUSH2 0x7C SWAP2 SWAP1 PUSH2 0x1F4 JUMP JUMPDEST PUSH1 0x40 MLOAD DUP1 SWAP2 SUB SWAP1 RETURN JUMPDEST PUSH2 0x8D PUSH2 0x121 JUMP JUMPDEST PUSH1 0x40 MLOAD PUSH2 0x9A SWAP2 SWAP1 PUSH2 0x29F JUMP JUMPDEST PUSH1 0x40 MLOAD DUP1 SWAP2 SUB SWAP1 RETURN JUMPDEST PUSH2 0xAB PUSH2 0x15E JUMP JUMPDEST PUSH1 0x40 MLOAD PUSH2 0xB8 SWAP2 SWAP1 PUSH2 0x2DA JUMP JUMPDEST PUSH1 0x40 MLOAD DUP1 SWAP2 SUB SWAP1 RETURN JUMPDEST PUSH2 0xC9 PUSH2 0x164 JUMP JUMPDEST PUSH1 0x40 MLOAD PUSH2 0xD6 SWAP2 SWAP1 PUSH2 0x1F4 JUMP JUMPDEST PUSH1 0x40 MLOAD DUP1 SWAP2 SUB SWAP1 RETURN JUMPDEST PUSH2 0xE7 PUSH2 0x16C JUMP JUMPDEST PUSH1 0x40 MLOAD PUSH2 0xF4 SWAP2 SWAP1 PUSH2 0x29F JUMP JUMPDEST PUSH1 0x40 MLOAD DUP1 SWAP2 SUB SWAP1 RETURN JUMPDEST PUSH2 0x117 PUSH1 0x4 DUP1 CALLDATASIZE SUB DUP2 ADD SWAP1 PUSH2 0x112 SWAP2 SWAP1 PUSH2 0x326 JUMP JUMPDEST PUSH2 0x1A9 JUMP JUMPDEST STOP JUMPDEST PUSH1 0x0 ADDRESS SWAP1 POP SWAP1 JUMP JUMPDEST PUSH1 0x60 PUSH1 0x40 MLOAD DUP1 PUSH1 0x40 ADD PUSH1 0x40 MSTORE DUP1 PUSH1 0x8 DUP2 MSTORE PUSH1 0x20 ADD PUSH32 0x6E6F7420676F6F64000000000000000000000000000000000000000000000000 DUP2 MSTORE POP SWAP1 POP SWAP1 JUMP JUMPDEST PUSH1 0x1 SLOAD DUP2 JUMP JUMPDEST PUSH1 0x0 CALLER SWAP1 POP SWAP1 JUMP JUMPDEST PUSH1 0x60 PUSH1 0x40 MLOAD DUP1 PUSH1 0x40 ADD PUSH1 0x40 MSTORE DUP1 PUSH1 0xC DUP2 MSTORE PUSH1 0x20 ADD PUSH32 0x6461642066726F6D204441440000000000000000000000000000000000000000 DUP2 MSTORE POP SWAP1 POP SWAP1 JUMP JUMPDEST DUP1 PUSH1 0x1 DUP2 SWAP1 SSTORE POP POP JUMP JUMPDEST PUSH1 0x0 PUSH20 0xFFFFFFFFFFFFFFFFFFFFFFFFFFFFFFFFFFFFFFFF DUP3 AND SWAP1 POP SWAP2 SWAP1 POP JUMP JUMPDEST PUSH1 0x0 PUSH2 0x1DE DUP3 PUSH2 0x1B3 JUMP JUMPDEST SWAP1 POP SWAP2 SWAP1 POP JUMP JUMPDEST PUSH2 0x1EE DUP2 PUSH2 0x1D3 JUMP JUMPDEST DUP3 MSTORE POP POP JUMP JUMPDEST PUSH1 0x0 PUSH1 0x20 DUP3 ADD SWAP1 POP PUSH2 0x209 PUSH1 0x0 DUP4 ADD DUP5 PUSH2 0x1E5 JUMP JUMPDEST SWAP3 SWAP2 POP POP JUMP JUMPDEST PUSH1 0x0 DUP2 MLOAD SWAP1 POP SWAP2 SWAP1 POP JUMP JUMPDEST PUSH1 0x0 DUP3 DUP3 MSTORE PUSH1 0x20 DUP3 ADD SWAP1 POP SWAP3 SWAP2 POP POP JUMP JUMPDEST PUSH1 0x0 JUMPDEST DUP4 DUP2 LT ISZERO PUSH2 0x249 JUMPI DUP1 DUP3 ADD MLOAD DUP2 DUP5 ADD MSTORE PUSH1 0x20 DUP2 ADD SWAP1 POP PUSH2 0x22E JUMP JUMPDEST PUSH1 0x0 DUP5 DUP5 ADD MSTORE POP POP POP POP JUMP JUMPDEST PUSH1 0x0 PUSH1 0x1F NOT PUSH1 0x1F DUP4 ADD AND SWAP1 POP SWAP2 SWAP1 POP JUMP JUMPDEST PUSH1 0x0 PUSH2 0x271 DUP3 PUSH2 0x20F JUMP JUMPDEST PUSH2 0x27B DUP2 DUP6 PUSH2 0x21A JUMP JUMPDEST SWAP4 POP PUSH2 0x28B DUP2 DUP6 PUSH1 0x20 DUP7 ADD PUSH2 0x22B JUMP JUMPDEST PUSH2 0x294 DUP2 PUSH2 0x255 JUMP JUMPDEST DUP5 ADD SWAP2 POP POP SWAP3 SWAP2 POP POP JUMP JUMPDEST PUSH1 0x0 PUSH1 0x20 DUP3 ADD SWAP1 POP DUP2 DUP2 SUB PUSH1 0x0 DUP4 ADD MSTORE PUSH2 0x2B9 DUP2 DUP5 PUSH2 0x266 JUMP JUMPDEST SWAP1 POP SWAP3 SWAP2 POP POP JUMP JUMPDEST PUSH1 0x0 DUP2 SWAP1 POP SWAP2 SWAP1 POP JUMP JUMPDEST PUSH2 0x2D4 DUP2 PUSH2 0x2C1 JUMP JUMPDEST DUP3 MSTORE POP POP JUMP JUMPDEST PUSH1 0x0 PUSH1 0x20 DUP3 ADD SWAP1 POP PUSH2 0x2EF PUSH1 0x0 DUP4 ADD DUP5 PUSH2 0x2CB JUMP JUMPDEST SWAP3 SWAP2 POP POP JUMP JUMPDEST PUSH1 0x0 DUP1 REVERT JUMPDEST PUSH2 0x303 DUP2 PUSH2 0x2C1 JUMP JUMPDEST DUP2 EQ PUSH2 0x30E JUMPI PUSH1 0x0 DUP1 REVERT JUMPDEST POP JUMP JUMPDEST PUSH1 0x0 DUP2 CALLDATALOAD SWAP1 POP PUSH2 0x320 DUP2 PUSH2 0x2FA JUMP JUMPDEST SWAP3 SWAP2 POP POP JUMP JUMPDEST PUSH1 0x0 PUSH1 0x20 DUP3 DUP5 SUB SLT ISZERO PUSH2 0x33C JUMPI PUSH2 0x33B PUSH2 0x2F5 JUMP JUMPDEST JUMPDEST PUSH1 0x0 PUSH2 0x34A DUP5 DUP3 DUP6 ADD PUSH2 0x311 JUMP JUMPDEST SWAP2 POP POP SWAP3 SWAP2 POP POP JUMP INVALID LOG2 PUSH5 0x6970667358 0x22 SLT KECCAK256 0x1E BASEFEE 0xC2 PUSH6 0xD58D8685C4A8 0xF8 0xD4 PUSH11 0xF3A8FAEBF5F2800CE63713 ADD CALLDATASIZE 0x4F PREVRANDAO PUSH12 0x152D664736F6C6343000812 STOP CALLER "
				},
				"gasEstimates": {
					"creation": {
						"codeDepositCost": "181000",
						"executionCost": "66544",
						"totalCost": "247544"
					},
					"external": {
						"changeWallet(uint256)": "22608",
						"character()": "infinite",
						"getAddress()": "363",
						"getMsgSender()": "429",
						"wallet()": "2451",
						"who()": "infinite"
					},
					"internal": {
						"name()": "infinite",
						"password()": "infinite"
					}
				},
				"methodIdentifiers": {
					"changeWallet(uint256)": "fb22f715",
					"character()": "4d2e03a0",
					"getAddress()": "38cc4831",
					"getMsgSender()": "7a6ce2e1",
					"wallet()": "521eb273",
					"who()": "d6d21dfd"
				}
			},
			"storageLayout": {
				"storage": [
					{
						"astId": 140,
						"contract": "contracts-lecture/230516-1.sol:DAD",
						"label": "a",
						"offset": 0,
						"slot": "0",
						"type": "t_uint256"
					},
					{
						"astId": 143,
						"contract": "contracts-lecture/230516-1.sol:DAD",
						"label": "wallet",
						"offset": 0,
						"slot": "1",
						"type": "t_uint256"
					},
					{
						"astId": 146,
						"contract": "contracts-lecture/230516-1.sol:DAD",
						"label": "crypto",
						"offset": 0,
						"slot": "2",
						"type": "t_uint256"
					},
					{
						"astId": 149,
						"contract": "contracts-lecture/230516-1.sol:DAD",
						"label": "emergency",
						"offset": 0,
						"slot": "3",
						"type": "t_uint256"
					}
				],
				"types": {
					"t_uint256": {
						"encoding": "inplace",
						"label": "uint256",
						"numberOfBytes": "32"
					}
				}
			},
			"userdoc": {
				"kind": "user",
				"methods": {},
				"version": 1
			}
		}
	}
}