{
	"contracts-lecture/230516-1.sol": {
		"MOM": {
			"abi": [
				{
					"inputs": [
						{
							"internalType": "address",
							"name": "_a",
							"type": "address"
						}
					],
					"stateMutability": "nonpayable",
					"type": "constructor"
				},
				{
					"inputs": [
						{
							"internalType": "uint256",
							"name": "_a",
							"type": "uint256"
						}
					],
					"name": "changeRealWallet",
					"outputs": [],
					"stateMutability": "nonpayable",
					"type": "function"
				},
				{
					"inputs": [],
					"name": "getHusbandChar",
					"outputs": [
						{
							"internalType": "string",
							"name": "",
							"type": "string"
						}
					],
					"stateMutability": "view",
					"type": "function"
				},
				{
					"inputs": [],
					"name": "getRealWallet",
					"outputs": [
						{
							"internalType": "uint256",
							"name": "",
							"type": "uint256"
						}
					],
					"stateMutability": "view",
					"type": "function"
				},
				{
					"inputs": [],
					"name": "getWallet",
					"outputs": [
						{
							"internalType": "uint256",
							"name": "",
							"type": "uint256"
						}
					],
					"stateMutability": "view",
					"type": "function"
				},
				{
					"inputs": [],
					"name": "husGetMsgSender",
					"outputs": [
						{
							"internalType": "address",
							"name": "",
							"type": "address"
						}
					],
					"stateMutability": "view",
					"type": "function"
				},
				{
					"inputs": [],
					"name": "husbandAddress",
					"outputs": [
						{
							"internalType": "address",
							"name": "",
							"type": "address"
						}
					],
					"stateMutability": "view",
					"type": "function"
				},
				{
					"inputs": [],
					"name": "husbandAddress2",
					"outputs": [
						{
							"internalType": "address",
							"name": "",
							"type": "address"
						}
					],
					"stateMutability": "view",
					"type": "function"
				},
				{
					"inputs": [
						{
							"internalType": "address",
							"name": "_a",
							"type": "address"
						}
					],
					"name": "trackWallet",
					"outputs": [
						{
							"internalType": "uint256",
							"name": "",
							"type": "uint256"
						}
					],
					"stateMutability": "view",
					"type": "function"
				},
				{
					"inputs": [],
					"name": "who",
					"outputs": [
						{
							"internalType": "string",
							"name": "",
							"type": "string"
						}
					],
					"stateMutability": "pure",
					"type": "function"
				}
			],
			"devdoc": {
				"kind": "dev",
				"methods": {},
				"version": 1
			},
			"evm": {
				"assembly": "    /* \"contracts-lecture/230516-1.sol\":1827:3247  contract MOM {... */\n  mstore(0x40, 0x80)\n    /* \"contracts-lecture/230516-1.sol\":1860:1869  new DAD() */\n  mload(0x40)\n  tag_1\n  swap1\n  tag_2\n  jump\t// in\ntag_1:\n  mload(0x40)\n  dup1\n  swap2\n  sub\n  swap1\n  0x00\n  create\n  dup1\n  iszero\n  dup1\n  iszero\n  tag_3\n  jumpi\n  returndatasize\n  0x00\n  dup1\n  returndatacopy\n  revert(0x00, returndatasize)\ntag_3:\n  pop\n    /* \"contracts-lecture/230516-1.sol\":1846:1869  DAD husband = new DAD() */\n  0x00\n  dup1\n  0x0100\n  exp\n  dup2\n  sload\n  dup2\n  0xffffffffffffffffffffffffffffffffffffffff\n  mul\n  not\n  and\n  swap1\n  dup4\n  0xffffffffffffffffffffffffffffffffffffffff\n  and\n  mul\n  or\n  swap1\n  sstore\n  pop\n    /* \"contracts-lecture/230516-1.sol\":1897:1959  constructor(address _a) {... */\n  callvalue\n  dup1\n  iszero\n  tag_4\n  jumpi\n  0x00\n  dup1\n  revert\ntag_4:\n  pop\n  mload(0x40)\n  sub(codesize, bytecodeSize)\n  dup1\n  bytecodeSize\n  dup4\n  codecopy\n  dup2\n  dup2\n  add\n  0x40\n  mstore\n  dup2\n  add\n  swap1\n  tag_5\n  swap2\n  swap1\n  tag_6\n  jump\t// in\ntag_5:\n    /* \"contracts-lecture/230516-1.sol\":1949:1951  _a */\n  dup1\n    /* \"contracts-lecture/230516-1.sol\":1931:1942  realHusband */\n  0x01\n  0x00\n    /* \"contracts-lecture/230516-1.sol\":1931:1952  realHusband = DAD(_a) */\n  0x0100\n  exp\n  dup2\n  sload\n  dup2\n  0xffffffffffffffffffffffffffffffffffffffff\n  mul\n  not\n  and\n  swap1\n  dup4\n  0xffffffffffffffffffffffffffffffffffffffff\n  and\n  mul\n  or\n  swap1\n  sstore\n  pop\n    /* \"contracts-lecture/230516-1.sol\":1897:1959  constructor(address _a) {... */\n  pop\n    /* \"contracts-lecture/230516-1.sol\":1827:3247  contract MOM {... */\n  jump(tag_9)\ntag_2:\n  dataSize(sub_1)\n  dup1\n  dataOffset(sub_1)\n  dup4\n  codecopy\n  add\n  swap1\n  jump\t// out\n    /* \"#utility.yul\":88:205   */\ntag_11:\n    /* \"#utility.yul\":197:198   */\n  0x00\n    /* \"#utility.yul\":194:195   */\n  dup1\n    /* \"#utility.yul\":187:199   */\n  revert\n    /* \"#utility.yul\":334:460   */\ntag_13:\n    /* \"#utility.yul\":371:378   */\n  0x00\n    /* \"#utility.yul\":411:453   */\n  0xffffffffffffffffffffffffffffffffffffffff\n    /* \"#utility.yul\":404:409   */\n  dup3\n    /* \"#utility.yul\":400:454   */\n  and\n    /* \"#utility.yul\":389:454   */\n  swap1\n  pop\n    /* \"#utility.yul\":334:460   */\n  swap2\n  swap1\n  pop\n  jump\t// out\n    /* \"#utility.yul\":466:562   */\ntag_14:\n    /* \"#utility.yul\":503:510   */\n  0x00\n    /* \"#utility.yul\":532:556   */\n  tag_23\n    /* \"#utility.yul\":550:555   */\n  dup3\n    /* \"#utility.yul\":532:556   */\n  tag_13\n  jump\t// in\ntag_23:\n    /* \"#utility.yul\":521:556   */\n  swap1\n  pop\n    /* \"#utility.yul\":466:562   */\n  swap2\n  swap1\n  pop\n  jump\t// out\n    /* \"#utility.yul\":568:690   */\ntag_15:\n    /* \"#utility.yul\":641:665   */\n  tag_25\n    /* \"#utility.yul\":659:664   */\n  dup2\n    /* \"#utility.yul\":641:665   */\n  tag_14\n  jump\t// in\ntag_25:\n    /* \"#utility.yul\":634:639   */\n  dup2\n    /* \"#utility.yul\":631:666   */\n  eq\n    /* \"#utility.yul\":621:684   */\n  tag_26\n  jumpi\n    /* \"#utility.yul\":680:681   */\n  0x00\n    /* \"#utility.yul\":677:678   */\n  dup1\n    /* \"#utility.yul\":670:682   */\n  revert\n    /* \"#utility.yul\":621:684   */\ntag_26:\n    /* \"#utility.yul\":568:690   */\n  pop\n  jump\t// out\n    /* \"#utility.yul\":696:839   */\ntag_16:\n    /* \"#utility.yul\":753:758   */\n  0x00\n    /* \"#utility.yul\":784:790   */\n  dup2\n    /* \"#utility.yul\":778:791   */\n  mload\n    /* \"#utility.yul\":769:791   */\n  swap1\n  pop\n    /* \"#utility.yul\":800:833   */\n  tag_28\n    /* \"#utility.yul\":827:832   */\n  dup2\n    /* \"#utility.yul\":800:833   */\n  tag_15\n  jump\t// in\ntag_28:\n    /* \"#utility.yul\":696:839   */\n  swap3\n  swap2\n  pop\n  pop\n  jump\t// out\n    /* \"#utility.yul\":845:1196   */\ntag_6:\n    /* \"#utility.yul\":915:921   */\n  0x00\n    /* \"#utility.yul\":964:966   */\n  0x20\n    /* \"#utility.yul\":952:961   */\n  dup3\n    /* \"#utility.yul\":943:950   */\n  dup5\n    /* \"#utility.yul\":939:962   */\n  sub\n    /* \"#utility.yul\":935:967   */\n  slt\n    /* \"#utility.yul\":932:1051   */\n  iszero\n  tag_30\n  jumpi\n    /* \"#utility.yul\":970:1049   */\n  tag_31\n  tag_11\n  jump\t// in\ntag_31:\n    /* \"#utility.yul\":932:1051   */\ntag_30:\n    /* \"#utility.yul\":1090:1091   */\n  0x00\n    /* \"#utility.yul\":1115:1179   */\n  tag_32\n    /* \"#utility.yul\":1171:1178   */\n  dup5\n    /* \"#utility.yul\":1162:1168   */\n  dup3\n    /* \"#utility.yul\":1151:1160   */\n  dup6\n    /* \"#utility.yul\":1147:1169   */\n  add\n    /* \"#utility.yul\":1115:1179   */\n  tag_16\n  jump\t// in\ntag_32:\n    /* \"#utility.yul\":1105:1179   */\n  swap2\n  pop\n    /* \"#utility.yul\":1061:1189   */\n  pop\n    /* \"#utility.yul\":845:1196   */\n  swap3\n  swap2\n  pop\n  pop\n  jump\t// out\n    /* \"contracts-lecture/230516-1.sol\":1827:3247  contract MOM {... */\ntag_9:\n  dataSize(sub_0)\n  dup1\n  dataOffset(sub_0)\n  0x00\n  codecopy\n  0x00\n  return\nstop\n\nsub_0: assembly {\n        /* \"contracts-lecture/230516-1.sol\":1827:3247  contract MOM {... */\n      mstore(0x40, 0x80)\n      callvalue\n      dup1\n      iszero\n      tag_1\n      jumpi\n      0x00\n      dup1\n      revert\n    tag_1:\n      pop\n      jumpi(tag_2, lt(calldatasize, 0x04))\n      shr(0xe0, calldataload(0x00))\n      dup1\n      0x74b12a3a\n      gt\n      tag_12\n      jumpi\n      dup1\n      0x74b12a3a\n      eq\n      tag_7\n      jumpi\n      dup1\n      0x7864dfba\n      eq\n      tag_8\n      jumpi\n      dup1\n      0xa1f50cb1\n      eq\n      tag_9\n      jumpi\n      dup1\n      0xc709d36c\n      eq\n      tag_10\n      jumpi\n      dup1\n      0xd6d21dfd\n      eq\n      tag_11\n      jumpi\n      jump(tag_2)\n    tag_12:\n      dup1\n      0x0c304e4b\n      eq\n      tag_3\n      jumpi\n      dup1\n      0x13299604\n      eq\n      tag_4\n      jumpi\n      dup1\n      0x1beb761a\n      eq\n      tag_5\n      jumpi\n      dup1\n      0x1c7d5c42\n      eq\n      tag_6\n      jumpi\n    tag_2:\n      0x00\n      dup1\n      revert\n        /* \"contracts-lecture/230516-1.sol\":2490:2594  function getHusbandChar() public view returns(string memory) {... */\n    tag_3:\n      tag_13\n      tag_14\n      jump\t// in\n    tag_13:\n      mload(0x40)\n      tag_15\n      swap2\n      swap1\n      tag_16\n      jump\t// in\n    tag_15:\n      mload(0x40)\n      dup1\n      swap2\n      sub\n      swap1\n      return\n        /* \"contracts-lecture/230516-1.sol\":1965:2052  function getWallet() public view returns(uint) {... */\n    tag_4:\n      tag_17\n      tag_18\n      jump\t// in\n    tag_17:\n      mload(0x40)\n      tag_19\n      swap2\n      swap1\n      tag_20\n      jump\t// in\n    tag_19:\n      mload(0x40)\n      dup1\n      swap2\n      sub\n      swap1\n      return\n        /* \"contracts-lecture/230516-1.sol\":2058:2153  function getRealWallet() public view returns(uint) {... */\n    tag_5:\n      tag_21\n      tag_22\n      jump\t// in\n    tag_21:\n      mload(0x40)\n      tag_23\n      swap2\n      swap1\n      tag_20\n      jump\t// in\n    tag_23:\n      mload(0x40)\n      dup1\n      swap2\n      sub\n      swap1\n      return\n        /* \"contracts-lecture/230516-1.sol\":2702:2797  function husbandAddress() public view returns(address) {... */\n    tag_6:\n      tag_24\n      tag_25\n      jump\t// in\n    tag_24:\n      mload(0x40)\n      tag_26\n      swap2\n      swap1\n      tag_27\n      jump\t// in\n    tag_26:\n      mload(0x40)\n      dup1\n      swap2\n      sub\n      swap1\n      return\n        /* \"contracts-lecture/230516-1.sol\":2803:2903  function husbandAddress2() public view returns(address) {... */\n    tag_7:\n      tag_28\n      tag_29\n      jump\t// in\n    tag_28:\n      mload(0x40)\n      tag_30\n      swap2\n      swap1\n      tag_27\n      jump\t// in\n    tag_30:\n      mload(0x40)\n      dup1\n      swap2\n      sub\n      swap1\n      return\n        /* \"contracts-lecture/230516-1.sol\":2909:3011  function husGetMsgSender() public view returns(address) {... */\n    tag_8:\n      tag_31\n      tag_32\n      jump\t// in\n    tag_31:\n      mload(0x40)\n      tag_33\n      swap2\n      swap1\n      tag_27\n      jump\t// in\n    tag_33:\n      mload(0x40)\n      dup1\n      swap2\n      sub\n      swap1\n      return\n        /* \"contracts-lecture/230516-1.sol\":2159:2246  function changeRealWallet(uint _a) public {... */\n    tag_9:\n      tag_34\n      0x04\n      dup1\n      calldatasize\n      sub\n      dup2\n      add\n      swap1\n      tag_35\n      swap2\n      swap1\n      tag_36\n      jump\t// in\n    tag_35:\n      tag_37\n      jump\t// in\n    tag_34:\n      stop\n        /* \"contracts-lecture/230516-1.sol\":2252:2382  function trackWallet(address _a) public view returns(uint) {... */\n    tag_10:\n      tag_38\n      0x04\n      dup1\n      calldatasize\n      sub\n      dup2\n      add\n      swap1\n      tag_39\n      swap2\n      swap1\n      tag_40\n      jump\t// in\n    tag_39:\n      tag_41\n      jump\t// in\n    tag_38:\n      mload(0x40)\n      tag_42\n      swap2\n      swap1\n      tag_20\n      jump\t// in\n    tag_42:\n      mload(0x40)\n      dup1\n      swap2\n      sub\n      swap1\n      return\n        /* \"contracts-lecture/230516-1.sol\":2388:2484  function who() virtual public pure returns(string memory) {... */\n    tag_11:\n      tag_43\n      tag_44\n      jump\t// in\n    tag_43:\n      mload(0x40)\n      tag_45\n      swap2\n      swap1\n      tag_16\n      jump\t// in\n    tag_45:\n      mload(0x40)\n      dup1\n      swap2\n      sub\n      swap1\n      return\n        /* \"contracts-lecture/230516-1.sol\":2490:2594  function getHusbandChar() public view returns(string memory) {... */\n    tag_14:\n        /* \"contracts-lecture/230516-1.sol\":2536:2549  string memory */\n      0x60\n        /* \"contracts-lecture/230516-1.sol\":2568:2575  husband */\n      0x00\n      dup1\n      sload\n      swap1\n      0x0100\n      exp\n      swap1\n      div\n      0xffffffffffffffffffffffffffffffffffffffff\n      and\n        /* \"contracts-lecture/230516-1.sol\":2568:2585  husband.character */\n      0xffffffffffffffffffffffffffffffffffffffff\n      and\n      0x4d2e03a0\n        /* \"contracts-lecture/230516-1.sol\":2568:2587  husband.character() */\n      mload(0x40)\n      dup2\n      0xffffffff\n      and\n      0xe0\n      shl\n      dup2\n      mstore\n      0x04\n      add\n      0x00\n      mload(0x40)\n      dup1\n      dup4\n      sub\n      dup2\n      dup7\n      gas\n      staticcall\n      iszero\n      dup1\n      iszero\n      tag_48\n      jumpi\n      returndatasize\n      0x00\n      dup1\n      returndatacopy\n      revert(0x00, returndatasize)\n    tag_48:\n      pop\n      pop\n      pop\n      pop\n      mload(0x40)\n      returndatasize\n      0x00\n      dup3\n      returndatacopy\n      returndatasize\n      not(0x1f)\n      0x1f\n      dup3\n      add\n      and\n      dup3\n      add\n      dup1\n      0x40\n      mstore\n      pop\n      dup2\n      add\n      swap1\n      tag_49\n      swap2\n      swap1\n      tag_50\n      jump\t// in\n    tag_49:\n        /* \"contracts-lecture/230516-1.sol\":2561:2587  return husband.character() */\n      swap1\n      pop\n        /* \"contracts-lecture/230516-1.sol\":2490:2594  function getHusbandChar() public view returns(string memory) {... */\n      swap1\n      jump\t// out\n        /* \"contracts-lecture/230516-1.sol\":1965:2052  function getWallet() public view returns(uint) {... */\n    tag_18:\n        /* \"contracts-lecture/230516-1.sol\":2006:2010  uint */\n      0x00\n        /* \"contracts-lecture/230516-1.sol\":2029:2036  husband */\n      dup1\n      0x00\n      swap1\n      sload\n      swap1\n      0x0100\n      exp\n      swap1\n      div\n      0xffffffffffffffffffffffffffffffffffffffff\n      and\n        /* \"contracts-lecture/230516-1.sol\":2029:2043  husband.wallet */\n      0xffffffffffffffffffffffffffffffffffffffff\n      and\n      0x521eb273\n        /* \"contracts-lecture/230516-1.sol\":2029:2045  husband.wallet() */\n      mload(0x40)\n      dup2\n      0xffffffff\n      and\n      0xe0\n      shl\n      dup2\n      mstore\n      0x04\n      add\n      0x20\n      mload(0x40)\n      dup1\n      dup4\n      sub\n      dup2\n      dup7\n      gas\n      staticcall\n      iszero\n      dup1\n      iszero\n      tag_53\n      jumpi\n      returndatasize\n      0x00\n      dup1\n      returndatacopy\n      revert(0x00, returndatasize)\n    tag_53:\n      pop\n      pop\n      pop\n      pop\n      mload(0x40)\n      returndatasize\n      not(0x1f)\n      0x1f\n      dup3\n      add\n      and\n      dup3\n      add\n      dup1\n      0x40\n      mstore\n      pop\n      dup2\n      add\n      swap1\n      tag_54\n      swap2\n      swap1\n      tag_55\n      jump\t// in\n    tag_54:\n        /* \"contracts-lecture/230516-1.sol\":2022:2045  return husband.wallet() */\n      swap1\n      pop\n        /* \"contracts-lecture/230516-1.sol\":1965:2052  function getWallet() public view returns(uint) {... */\n      swap1\n      jump\t// out\n        /* \"contracts-lecture/230516-1.sol\":2058:2153  function getRealWallet() public view returns(uint) {... */\n    tag_22:\n        /* \"contracts-lecture/230516-1.sol\":2103:2107  uint */\n      0x00\n        /* \"contracts-lecture/230516-1.sol\":2126:2137  realHusband */\n      0x01\n      0x00\n      swap1\n      sload\n      swap1\n      0x0100\n      exp\n      swap1\n      div\n      0xffffffffffffffffffffffffffffffffffffffff\n      and\n        /* \"contracts-lecture/230516-1.sol\":2126:2144  realHusband.wallet */\n      0xffffffffffffffffffffffffffffffffffffffff\n      and\n      0x521eb273\n        /* \"contracts-lecture/230516-1.sol\":2126:2146  realHusband.wallet() */\n      mload(0x40)\n      dup2\n      0xffffffff\n      and\n      0xe0\n      shl\n      dup2\n      mstore\n      0x04\n      add\n      0x20\n      mload(0x40)\n      dup1\n      dup4\n      sub\n      dup2\n      dup7\n      gas\n      staticcall\n      iszero\n      dup1\n      iszero\n      tag_58\n      jumpi\n      returndatasize\n      0x00\n      dup1\n      returndatacopy\n      revert(0x00, returndatasize)\n    tag_58:\n      pop\n      pop\n      pop\n      pop\n      mload(0x40)\n      returndatasize\n      not(0x1f)\n      0x1f\n      dup3\n      add\n      and\n      dup3\n      add\n      dup1\n      0x40\n      mstore\n      pop\n      dup2\n      add\n      swap1\n      tag_59\n      swap2\n      swap1\n      tag_55\n      jump\t// in\n    tag_59:\n        /* \"contracts-lecture/230516-1.sol\":2119:2146  return realHusband.wallet() */\n      swap1\n      pop\n        /* \"contracts-lecture/230516-1.sol\":2058:2153  function getRealWallet() public view returns(uint) {... */\n      swap1\n      jump\t// out\n        /* \"contracts-lecture/230516-1.sol\":2702:2797  function husbandAddress() public view returns(address) {... */\n    tag_25:\n        /* \"contracts-lecture/230516-1.sol\":2748:2755  address */\n      0x00\n        /* \"contracts-lecture/230516-1.sol\":2782:2789  husband */\n      dup1\n      0x00\n      swap1\n      sload\n      swap1\n      0x0100\n      exp\n      swap1\n      div\n      0xffffffffffffffffffffffffffffffffffffffff\n      and\n        /* \"contracts-lecture/230516-1.sol\":2767:2790  return address(husband) */\n      swap1\n      pop\n        /* \"contracts-lecture/230516-1.sol\":2702:2797  function husbandAddress() public view returns(address) {... */\n      swap1\n      jump\t// out\n        /* \"contracts-lecture/230516-1.sol\":2803:2903  function husbandAddress2() public view returns(address) {... */\n    tag_29:\n        /* \"contracts-lecture/230516-1.sol\":2850:2857  address */\n      0x00\n        /* \"contracts-lecture/230516-1.sol\":2876:2883  husband */\n      dup1\n      0x00\n      swap1\n      sload\n      swap1\n      0x0100\n      exp\n      swap1\n      div\n      0xffffffffffffffffffffffffffffffffffffffff\n      and\n        /* \"contracts-lecture/230516-1.sol\":2876:2894  husband.getAddress */\n      0xffffffffffffffffffffffffffffffffffffffff\n      and\n      0x38cc4831\n        /* \"contracts-lecture/230516-1.sol\":2876:2896  husband.getAddress() */\n      mload(0x40)\n      dup2\n      0xffffffff\n      and\n      0xe0\n      shl\n      dup2\n      mstore\n      0x04\n      add\n      0x20\n      mload(0x40)\n      dup1\n      dup4\n      sub\n      dup2\n      dup7\n      gas\n      staticcall\n      iszero\n      dup1\n      iszero\n      tag_63\n      jumpi\n      returndatasize\n      0x00\n      dup1\n      returndatacopy\n      revert(0x00, returndatasize)\n    tag_63:\n      pop\n      pop\n      pop\n      pop\n      mload(0x40)\n      returndatasize\n      not(0x1f)\n      0x1f\n      dup3\n      add\n      and\n      dup3\n      add\n      dup1\n      0x40\n      mstore\n      pop\n      dup2\n      add\n      swap1\n      tag_64\n      swap2\n      swap1\n      tag_65\n      jump\t// in\n    tag_64:\n        /* \"contracts-lecture/230516-1.sol\":2869:2896  return husband.getAddress() */\n      swap1\n      pop\n        /* \"contracts-lecture/230516-1.sol\":2803:2903  function husbandAddress2() public view returns(address) {... */\n      swap1\n      jump\t// out\n        /* \"contracts-lecture/230516-1.sol\":2909:3011  function husGetMsgSender() public view returns(address) {... */\n    tag_32:\n        /* \"contracts-lecture/230516-1.sol\":2956:2963  address */\n      0x00\n        /* \"contracts-lecture/230516-1.sol\":2982:2989  husband */\n      dup1\n      0x00\n      swap1\n      sload\n      swap1\n      0x0100\n      exp\n      swap1\n      div\n      0xffffffffffffffffffffffffffffffffffffffff\n      and\n        /* \"contracts-lecture/230516-1.sol\":2982:3002  husband.getMsgSender */\n      0xffffffffffffffffffffffffffffffffffffffff\n      and\n      0x7a6ce2e1\n        /* \"contracts-lecture/230516-1.sol\":2982:3004  husband.getMsgSender() */\n      mload(0x40)\n      dup2\n      0xffffffff\n      and\n      0xe0\n      shl\n      dup2\n      mstore\n      0x04\n      add\n      0x20\n      mload(0x40)\n      dup1\n      dup4\n      sub\n      dup2\n      dup7\n      gas\n      staticcall\n      iszero\n      dup1\n      iszero\n      tag_68\n      jumpi\n      returndatasize\n      0x00\n      dup1\n      returndatacopy\n      revert(0x00, returndatasize)\n    tag_68:\n      pop\n      pop\n      pop\n      pop\n      mload(0x40)\n      returndatasize\n      not(0x1f)\n      0x1f\n      dup3\n      add\n      and\n      dup3\n      add\n      dup1\n      0x40\n      mstore\n      pop\n      dup2\n      add\n      swap1\n      tag_69\n      swap2\n      swap1\n      tag_65\n      jump\t// in\n    tag_69:\n        /* \"contracts-lecture/230516-1.sol\":2975:3004  return husband.getMsgSender() */\n      swap1\n      pop\n        /* \"contracts-lecture/230516-1.sol\":2909:3011  function husGetMsgSender() public view returns(address) {... */\n      swap1\n      jump\t// out\n        /* \"contracts-lecture/230516-1.sol\":2159:2246  function changeRealWallet(uint _a) public {... */\n    tag_37:\n        /* \"contracts-lecture/230516-1.sol\":2211:2222  realHusband */\n      0x01\n      0x00\n      swap1\n      sload\n      swap1\n      0x0100\n      exp\n      swap1\n      div\n      0xffffffffffffffffffffffffffffffffffffffff\n      and\n        /* \"contracts-lecture/230516-1.sol\":2211:2235  realHusband.changeWallet */\n      0xffffffffffffffffffffffffffffffffffffffff\n      and\n      0xfb22f715\n        /* \"contracts-lecture/230516-1.sol\":2236:2238  _a */\n      dup3\n        /* \"contracts-lecture/230516-1.sol\":2211:2239  realHusband.changeWallet(_a) */\n      mload(0x40)\n      dup3\n      0xffffffff\n      and\n      0xe0\n      shl\n      dup2\n      mstore\n      0x04\n      add\n      tag_71\n      swap2\n      swap1\n      tag_20\n      jump\t// in\n    tag_71:\n      0x00\n      mload(0x40)\n      dup1\n      dup4\n      sub\n      dup2\n      0x00\n      dup8\n      dup1\n      extcodesize\n      iszero\n      dup1\n      iszero\n      tag_72\n      jumpi\n      0x00\n      dup1\n      revert\n    tag_72:\n      pop\n      gas\n      call\n      iszero\n      dup1\n      iszero\n      tag_74\n      jumpi\n      returndatasize\n      0x00\n      dup1\n      returndatacopy\n      revert(0x00, returndatasize)\n    tag_74:\n      pop\n      pop\n      pop\n      pop\n        /* \"contracts-lecture/230516-1.sol\":2159:2246  function changeRealWallet(uint _a) public {... */\n      pop\n      jump\t// out\n        /* \"contracts-lecture/230516-1.sol\":2252:2382  function trackWallet(address _a) public view returns(uint) {... */\n    tag_41:\n        /* \"contracts-lecture/230516-1.sol\":2305:2309  uint */\n      0x00\n        /* \"contracts-lecture/230516-1.sol\":2321:2332  DAD copyDad */\n      dup1\n        /* \"contracts-lecture/230516-1.sol\":2339:2341  _a */\n      dup3\n        /* \"contracts-lecture/230516-1.sol\":2321:2342  DAD copyDad = DAD(_a) */\n      swap1\n      pop\n        /* \"contracts-lecture/230516-1.sol\":2359:2366  copyDad */\n      dup1\n        /* \"contracts-lecture/230516-1.sol\":2359:2373  copyDad.wallet */\n      0xffffffffffffffffffffffffffffffffffffffff\n      and\n      0x521eb273\n        /* \"contracts-lecture/230516-1.sol\":2359:2375  copyDad.wallet() */\n      mload(0x40)\n      dup2\n      0xffffffff\n      and\n      0xe0\n      shl\n      dup2\n      mstore\n      0x04\n      add\n      0x20\n      mload(0x40)\n      dup1\n      dup4\n      sub\n      dup2\n      dup7\n      gas\n      staticcall\n      iszero\n      dup1\n      iszero\n      tag_77\n      jumpi\n      returndatasize\n      0x00\n      dup1\n      returndatacopy\n      revert(0x00, returndatasize)\n    tag_77:\n      pop\n      pop\n      pop\n      pop\n      mload(0x40)\n      returndatasize\n      not(0x1f)\n      0x1f\n      dup3\n      add\n      and\n      dup3\n      add\n      dup1\n      0x40\n      mstore\n      pop\n      dup2\n      add\n      swap1\n      tag_78\n      swap2\n      swap1\n      tag_55\n      jump\t// in\n    tag_78:\n        /* \"contracts-lecture/230516-1.sol\":2352:2375  return copyDad.wallet() */\n      swap2\n      pop\n      pop\n        /* \"contracts-lecture/230516-1.sol\":2252:2382  function trackWallet(address _a) public view returns(uint) {... */\n      swap2\n      swap1\n      pop\n      jump\t// out\n        /* \"contracts-lecture/230516-1.sol\":2388:2484  function who() virtual public pure returns(string memory) {... */\n    tag_44:\n        /* \"contracts-lecture/230516-1.sol\":2431:2444  string memory */\n      0x60\n        /* \"contracts-lecture/230516-1.sol\":2456:2477  return \"mom from MOM\" */\n      mload(0x40)\n      dup1\n      0x40\n      add\n      0x40\n      mstore\n      dup1\n      0x0c\n      dup2\n      mstore\n      0x20\n      add\n      0x6d6f6d2066726f6d204d4f4d0000000000000000000000000000000000000000\n      dup2\n      mstore\n      pop\n      swap1\n      pop\n        /* \"contracts-lecture/230516-1.sol\":2388:2484  function who() virtual public pure returns(string memory) {... */\n      swap1\n      jump\t// out\n        /* \"#utility.yul\":7:106   */\n    tag_80:\n        /* \"#utility.yul\":59:65   */\n      0x00\n        /* \"#utility.yul\":93:98   */\n      dup2\n        /* \"#utility.yul\":87:99   */\n      mload\n        /* \"#utility.yul\":77:99   */\n      swap1\n      pop\n        /* \"#utility.yul\":7:106   */\n      swap2\n      swap1\n      pop\n      jump\t// out\n        /* \"#utility.yul\":112:281   */\n    tag_81:\n        /* \"#utility.yul\":196:207   */\n      0x00\n        /* \"#utility.yul\":230:236   */\n      dup3\n        /* \"#utility.yul\":225:228   */\n      dup3\n        /* \"#utility.yul\":218:237   */\n      mstore\n        /* \"#utility.yul\":270:274   */\n      0x20\n        /* \"#utility.yul\":265:268   */\n      dup3\n        /* \"#utility.yul\":261:275   */\n      add\n        /* \"#utility.yul\":246:275   */\n      swap1\n      pop\n        /* \"#utility.yul\":112:281   */\n      swap3\n      swap2\n      pop\n      pop\n      jump\t// out\n        /* \"#utility.yul\":287:533   */\n    tag_82:\n        /* \"#utility.yul\":368:369   */\n      0x00\n        /* \"#utility.yul\":378:491   */\n    tag_111:\n        /* \"#utility.yul\":392:398   */\n      dup4\n        /* \"#utility.yul\":389:390   */\n      dup2\n        /* \"#utility.yul\":386:399   */\n      lt\n        /* \"#utility.yul\":378:491   */\n      iszero\n      tag_113\n      jumpi\n        /* \"#utility.yul\":477:478   */\n      dup1\n        /* \"#utility.yul\":472:475   */\n      dup3\n        /* \"#utility.yul\":468:479   */\n      add\n        /* \"#utility.yul\":462:480   */\n      mload\n        /* \"#utility.yul\":458:459   */\n      dup2\n        /* \"#utility.yul\":453:456   */\n      dup5\n        /* \"#utility.yul\":449:460   */\n      add\n        /* \"#utility.yul\":442:481   */\n      mstore\n        /* \"#utility.yul\":414:416   */\n      0x20\n        /* \"#utility.yul\":411:412   */\n      dup2\n        /* \"#utility.yul\":407:417   */\n      add\n        /* \"#utility.yul\":402:417   */\n      swap1\n      pop\n        /* \"#utility.yul\":378:491   */\n      jump(tag_111)\n    tag_113:\n        /* \"#utility.yul\":525:526   */\n      0x00\n        /* \"#utility.yul\":516:522   */\n      dup5\n        /* \"#utility.yul\":511:514   */\n      dup5\n        /* \"#utility.yul\":507:523   */\n      add\n        /* \"#utility.yul\":500:527   */\n      mstore\n        /* \"#utility.yul\":349:533   */\n      pop\n        /* \"#utility.yul\":287:533   */\n      pop\n      pop\n      pop\n      jump\t// out\n        /* \"#utility.yul\":539:641   */\n    tag_83:\n        /* \"#utility.yul\":580:586   */\n      0x00\n        /* \"#utility.yul\":631:633   */\n      0x1f\n        /* \"#utility.yul\":627:634   */\n      not\n        /* \"#utility.yul\":622:624   */\n      0x1f\n        /* \"#utility.yul\":615:620   */\n      dup4\n        /* \"#utility.yul\":611:625   */\n      add\n        /* \"#utility.yul\":607:635   */\n      and\n        /* \"#utility.yul\":597:635   */\n      swap1\n      pop\n        /* \"#utility.yul\":539:641   */\n      swap2\n      swap1\n      pop\n      jump\t// out\n        /* \"#utility.yul\":647:1024   */\n    tag_84:\n        /* \"#utility.yul\":735:738   */\n      0x00\n        /* \"#utility.yul\":763:802   */\n      tag_116\n        /* \"#utility.yul\":796:801   */\n      dup3\n        /* \"#utility.yul\":763:802   */\n      tag_80\n      jump\t// in\n    tag_116:\n        /* \"#utility.yul\":818:889   */\n      tag_117\n        /* \"#utility.yul\":882:888   */\n      dup2\n        /* \"#utility.yul\":877:880   */\n      dup6\n        /* \"#utility.yul\":818:889   */\n      tag_81\n      jump\t// in\n    tag_117:\n        /* \"#utility.yul\":811:889   */\n      swap4\n      pop\n        /* \"#utility.yul\":898:963   */\n      tag_118\n        /* \"#utility.yul\":956:962   */\n      dup2\n        /* \"#utility.yul\":951:954   */\n      dup6\n        /* \"#utility.yul\":944:948   */\n      0x20\n        /* \"#utility.yul\":937:942   */\n      dup7\n        /* \"#utility.yul\":933:949   */\n      add\n        /* \"#utility.yul\":898:963   */\n      tag_82\n      jump\t// in\n    tag_118:\n        /* \"#utility.yul\":988:1017   */\n      tag_119\n        /* \"#utility.yul\":1010:1016   */\n      dup2\n        /* \"#utility.yul\":988:1017   */\n      tag_83\n      jump\t// in\n    tag_119:\n        /* \"#utility.yul\":983:986   */\n      dup5\n        /* \"#utility.yul\":979:1018   */\n      add\n        /* \"#utility.yul\":972:1018   */\n      swap2\n      pop\n        /* \"#utility.yul\":739:1024   */\n      pop\n        /* \"#utility.yul\":647:1024   */\n      swap3\n      swap2\n      pop\n      pop\n      jump\t// out\n        /* \"#utility.yul\":1030:1343   */\n    tag_16:\n        /* \"#utility.yul\":1143:1147   */\n      0x00\n        /* \"#utility.yul\":1181:1183   */\n      0x20\n        /* \"#utility.yul\":1170:1179   */\n      dup3\n        /* \"#utility.yul\":1166:1184   */\n      add\n        /* \"#utility.yul\":1158:1184   */\n      swap1\n      pop\n        /* \"#utility.yul\":1230:1239   */\n      dup2\n        /* \"#utility.yul\":1224:1228   */\n      dup2\n        /* \"#utility.yul\":1220:1240   */\n      sub\n        /* \"#utility.yul\":1216:1217   */\n      0x00\n        /* \"#utility.yul\":1205:1214   */\n      dup4\n        /* \"#utility.yul\":1201:1218   */\n      add\n        /* \"#utility.yul\":1194:1241   */\n      mstore\n        /* \"#utility.yul\":1258:1336   */\n      tag_121\n        /* \"#utility.yul\":1331:1335   */\n      dup2\n        /* \"#utility.yul\":1322:1328   */\n      dup5\n        /* \"#utility.yul\":1258:1336   */\n      tag_84\n      jump\t// in\n    tag_121:\n        /* \"#utility.yul\":1250:1336   */\n      swap1\n      pop\n        /* \"#utility.yul\":1030:1343   */\n      swap3\n      swap2\n      pop\n      pop\n      jump\t// out\n        /* \"#utility.yul\":1349:1426   */\n    tag_85:\n        /* \"#utility.yul\":1386:1393   */\n      0x00\n        /* \"#utility.yul\":1415:1420   */\n      dup2\n        /* \"#utility.yul\":1404:1420   */\n      swap1\n      pop\n        /* \"#utility.yul\":1349:1426   */\n      swap2\n      swap1\n      pop\n      jump\t// out\n        /* \"#utility.yul\":1432:1550   */\n    tag_86:\n        /* \"#utility.yul\":1519:1543   */\n      tag_124\n        /* \"#utility.yul\":1537:1542   */\n      dup2\n        /* \"#utility.yul\":1519:1543   */\n      tag_85\n      jump\t// in\n    tag_124:\n        /* \"#utility.yul\":1514:1517   */\n      dup3\n        /* \"#utility.yul\":1507:1544   */\n      mstore\n        /* \"#utility.yul\":1432:1550   */\n      pop\n      pop\n      jump\t// out\n        /* \"#utility.yul\":1556:1778   */\n    tag_20:\n        /* \"#utility.yul\":1649:1653   */\n      0x00\n        /* \"#utility.yul\":1687:1689   */\n      0x20\n        /* \"#utility.yul\":1676:1685   */\n      dup3\n        /* \"#utility.yul\":1672:1690   */\n      add\n        /* \"#utility.yul\":1664:1690   */\n      swap1\n      pop\n        /* \"#utility.yul\":1700:1771   */\n      tag_126\n        /* \"#utility.yul\":1768:1769   */\n      0x00\n        /* \"#utility.yul\":1757:1766   */\n      dup4\n        /* \"#utility.yul\":1753:1770   */\n      add\n        /* \"#utility.yul\":1744:1750   */\n      dup5\n        /* \"#utility.yul\":1700:1771   */\n      tag_86\n      jump\t// in\n    tag_126:\n        /* \"#utility.yul\":1556:1778   */\n      swap3\n      swap2\n      pop\n      pop\n      jump\t// out\n        /* \"#utility.yul\":1784:1910   */\n    tag_87:\n        /* \"#utility.yul\":1821:1828   */\n      0x00\n        /* \"#utility.yul\":1861:1903   */\n      0xffffffffffffffffffffffffffffffffffffffff\n        /* \"#utility.yul\":1854:1859   */\n      dup3\n        /* \"#utility.yul\":1850:1904   */\n      and\n        /* \"#utility.yul\":1839:1904   */\n      swap1\n      pop\n        /* \"#utility.yul\":1784:1910   */\n      swap2\n      swap1\n      pop\n      jump\t// out\n        /* \"#utility.yul\":1916:2012   */\n    tag_88:\n        /* \"#utility.yul\":1953:1960   */\n      0x00\n        /* \"#utility.yul\":1982:2006   */\n      tag_129\n        /* \"#utility.yul\":2000:2005   */\n      dup3\n        /* \"#utility.yul\":1982:2006   */\n      tag_87\n      jump\t// in\n    tag_129:\n        /* \"#utility.yul\":1971:2006   */\n      swap1\n      pop\n        /* \"#utility.yul\":1916:2012   */\n      swap2\n      swap1\n      pop\n      jump\t// out\n        /* \"#utility.yul\":2018:2136   */\n    tag_89:\n        /* \"#utility.yul\":2105:2129   */\n      tag_131\n        /* \"#utility.yul\":2123:2128   */\n      dup2\n        /* \"#utility.yul\":2105:2129   */\n      tag_88\n      jump\t// in\n    tag_131:\n        /* \"#utility.yul\":2100:2103   */\n      dup3\n        /* \"#utility.yul\":2093:2130   */\n      mstore\n        /* \"#utility.yul\":2018:2136   */\n      pop\n      pop\n      jump\t// out\n        /* \"#utility.yul\":2142:2364   */\n    tag_27:\n        /* \"#utility.yul\":2235:2239   */\n      0x00\n        /* \"#utility.yul\":2273:2275   */\n      0x20\n        /* \"#utility.yul\":2262:2271   */\n      dup3\n        /* \"#utility.yul\":2258:2276   */\n      add\n        /* \"#utility.yul\":2250:2276   */\n      swap1\n      pop\n        /* \"#utility.yul\":2286:2357   */\n      tag_133\n        /* \"#utility.yul\":2354:2355   */\n      0x00\n        /* \"#utility.yul\":2343:2352   */\n      dup4\n        /* \"#utility.yul\":2339:2356   */\n      add\n        /* \"#utility.yul\":2330:2336   */\n      dup5\n        /* \"#utility.yul\":2286:2357   */\n      tag_89\n      jump\t// in\n    tag_133:\n        /* \"#utility.yul\":2142:2364   */\n      swap3\n      swap2\n      pop\n      pop\n      jump\t// out\n        /* \"#utility.yul\":2370:2445   */\n    tag_90:\n        /* \"#utility.yul\":2403:2409   */\n      0x00\n        /* \"#utility.yul\":2436:2438   */\n      0x40\n        /* \"#utility.yul\":2430:2439   */\n      mload\n        /* \"#utility.yul\":2420:2439   */\n      swap1\n      pop\n        /* \"#utility.yul\":2370:2445   */\n      swap1\n      jump\t// out\n        /* \"#utility.yul\":2451:2568   */\n    tag_91:\n        /* \"#utility.yul\":2560:2561   */\n      0x00\n        /* \"#utility.yul\":2557:2558   */\n      dup1\n        /* \"#utility.yul\":2550:2562   */\n      revert\n        /* \"#utility.yul\":2574:2691   */\n    tag_92:\n        /* \"#utility.yul\":2683:2684   */\n      0x00\n        /* \"#utility.yul\":2680:2681   */\n      dup1\n        /* \"#utility.yul\":2673:2685   */\n      revert\n        /* \"#utility.yul\":2697:2819   */\n    tag_93:\n        /* \"#utility.yul\":2770:2794   */\n      tag_138\n        /* \"#utility.yul\":2788:2793   */\n      dup2\n        /* \"#utility.yul\":2770:2794   */\n      tag_85\n      jump\t// in\n    tag_138:\n        /* \"#utility.yul\":2763:2768   */\n      dup2\n        /* \"#utility.yul\":2760:2795   */\n      eq\n        /* \"#utility.yul\":2750:2813   */\n      tag_139\n      jumpi\n        /* \"#utility.yul\":2809:2810   */\n      0x00\n        /* \"#utility.yul\":2806:2807   */\n      dup1\n        /* \"#utility.yul\":2799:2811   */\n      revert\n        /* \"#utility.yul\":2750:2813   */\n    tag_139:\n        /* \"#utility.yul\":2697:2819   */\n      pop\n      jump\t// out\n        /* \"#utility.yul\":2825:2964   */\n    tag_94:\n        /* \"#utility.yul\":2871:2876   */\n      0x00\n        /* \"#utility.yul\":2909:2915   */\n      dup2\n        /* \"#utility.yul\":2896:2916   */\n      calldataload\n        /* \"#utility.yul\":2887:2916   */\n      swap1\n      pop\n        /* \"#utility.yul\":2925:2958   */\n      tag_141\n        /* \"#utility.yul\":2952:2957   */\n      dup2\n        /* \"#utility.yul\":2925:2958   */\n      tag_93\n      jump\t// in\n    tag_141:\n        /* \"#utility.yul\":2825:2964   */\n      swap3\n      swap2\n      pop\n      pop\n      jump\t// out\n        /* \"#utility.yul\":2970:3299   */\n    tag_36:\n        /* \"#utility.yul\":3029:3035   */\n      0x00\n        /* \"#utility.yul\":3078:3080   */\n      0x20\n        /* \"#utility.yul\":3066:3075   */\n      dup3\n        /* \"#utility.yul\":3057:3064   */\n      dup5\n        /* \"#utility.yul\":3053:3076   */\n      sub\n        /* \"#utility.yul\":3049:3081   */\n      slt\n        /* \"#utility.yul\":3046:3165   */\n      iszero\n      tag_143\n      jumpi\n        /* \"#utility.yul\":3084:3163   */\n      tag_144\n      tag_91\n      jump\t// in\n    tag_144:\n        /* \"#utility.yul\":3046:3165   */\n    tag_143:\n        /* \"#utility.yul\":3204:3205   */\n      0x00\n        /* \"#utility.yul\":3229:3282   */\n      tag_145\n        /* \"#utility.yul\":3274:3281   */\n      dup5\n        /* \"#utility.yul\":3265:3271   */\n      dup3\n        /* \"#utility.yul\":3254:3263   */\n      dup6\n        /* \"#utility.yul\":3250:3272   */\n      add\n        /* \"#utility.yul\":3229:3282   */\n      tag_94\n      jump\t// in\n    tag_145:\n        /* \"#utility.yul\":3219:3282   */\n      swap2\n      pop\n        /* \"#utility.yul\":3175:3292   */\n      pop\n        /* \"#utility.yul\":2970:3299   */\n      swap3\n      swap2\n      pop\n      pop\n      jump\t// out\n        /* \"#utility.yul\":3305:3427   */\n    tag_95:\n        /* \"#utility.yul\":3378:3402   */\n      tag_147\n        /* \"#utility.yul\":3396:3401   */\n      dup2\n        /* \"#utility.yul\":3378:3402   */\n      tag_88\n      jump\t// in\n    tag_147:\n        /* \"#utility.yul\":3371:3376   */\n      dup2\n        /* \"#utility.yul\":3368:3403   */\n      eq\n        /* \"#utility.yul\":3358:3421   */\n      tag_148\n      jumpi\n        /* \"#utility.yul\":3417:3418   */\n      0x00\n        /* \"#utility.yul\":3414:3415   */\n      dup1\n        /* \"#utility.yul\":3407:3419   */\n      revert\n        /* \"#utility.yul\":3358:3421   */\n    tag_148:\n        /* \"#utility.yul\":3305:3427   */\n      pop\n      jump\t// out\n        /* \"#utility.yul\":3433:3572   */\n    tag_96:\n        /* \"#utility.yul\":3479:3484   */\n      0x00\n        /* \"#utility.yul\":3517:3523   */\n      dup2\n        /* \"#utility.yul\":3504:3524   */\n      calldataload\n        /* \"#utility.yul\":3495:3524   */\n      swap1\n      pop\n        /* \"#utility.yul\":3533:3566   */\n      tag_150\n        /* \"#utility.yul\":3560:3565   */\n      dup2\n        /* \"#utility.yul\":3533:3566   */\n      tag_95\n      jump\t// in\n    tag_150:\n        /* \"#utility.yul\":3433:3572   */\n      swap3\n      swap2\n      pop\n      pop\n      jump\t// out\n        /* \"#utility.yul\":3578:3907   */\n    tag_40:\n        /* \"#utility.yul\":3637:3643   */\n      0x00\n        /* \"#utility.yul\":3686:3688   */\n      0x20\n        /* \"#utility.yul\":3674:3683   */\n      dup3\n        /* \"#utility.yul\":3665:3672   */\n      dup5\n        /* \"#utility.yul\":3661:3684   */\n      sub\n        /* \"#utility.yul\":3657:3689   */\n      slt\n        /* \"#utility.yul\":3654:3773   */\n      iszero\n      tag_152\n      jumpi\n        /* \"#utility.yul\":3692:3771   */\n      tag_153\n      tag_91\n      jump\t// in\n    tag_153:\n        /* \"#utility.yul\":3654:3773   */\n    tag_152:\n        /* \"#utility.yul\":3812:3813   */\n      0x00\n        /* \"#utility.yul\":3837:3890   */\n      tag_154\n        /* \"#utility.yul\":3882:3889   */\n      dup5\n        /* \"#utility.yul\":3873:3879   */\n      dup3\n        /* \"#utility.yul\":3862:3871   */\n      dup6\n        /* \"#utility.yul\":3858:3880   */\n      add\n        /* \"#utility.yul\":3837:3890   */\n      tag_96\n      jump\t// in\n    tag_154:\n        /* \"#utility.yul\":3827:3890   */\n      swap2\n      pop\n        /* \"#utility.yul\":3783:3900   */\n      pop\n        /* \"#utility.yul\":3578:3907   */\n      swap3\n      swap2\n      pop\n      pop\n      jump\t// out\n        /* \"#utility.yul\":3913:4030   */\n    tag_97:\n        /* \"#utility.yul\":4022:4023   */\n      0x00\n        /* \"#utility.yul\":4019:4020   */\n      dup1\n        /* \"#utility.yul\":4012:4024   */\n      revert\n        /* \"#utility.yul\":4036:4153   */\n    tag_98:\n        /* \"#utility.yul\":4145:4146   */\n      0x00\n        /* \"#utility.yul\":4142:4143   */\n      dup1\n        /* \"#utility.yul\":4135:4147   */\n      revert\n        /* \"#utility.yul\":4159:4339   */\n    tag_99:\n        /* \"#utility.yul\":4207:4284   */\n      0x4e487b7100000000000000000000000000000000000000000000000000000000\n        /* \"#utility.yul\":4204:4205   */\n      0x00\n        /* \"#utility.yul\":4197:4285   */\n      mstore\n        /* \"#utility.yul\":4304:4308   */\n      0x41\n        /* \"#utility.yul\":4301:4302   */\n      0x04\n        /* \"#utility.yul\":4294:4309   */\n      mstore\n        /* \"#utility.yul\":4328:4332   */\n      0x24\n        /* \"#utility.yul\":4325:4326   */\n      0x00\n        /* \"#utility.yul\":4318:4333   */\n      revert\n        /* \"#utility.yul\":4345:4626   */\n    tag_100:\n        /* \"#utility.yul\":4428:4455   */\n      tag_159\n        /* \"#utility.yul\":4450:4454   */\n      dup3\n        /* \"#utility.yul\":4428:4455   */\n      tag_83\n      jump\t// in\n    tag_159:\n        /* \"#utility.yul\":4420:4426   */\n      dup2\n        /* \"#utility.yul\":4416:4456   */\n      add\n        /* \"#utility.yul\":4558:4564   */\n      dup2\n        /* \"#utility.yul\":4546:4556   */\n      dup2\n        /* \"#utility.yul\":4543:4565   */\n      lt\n        /* \"#utility.yul\":4522:4540   */\n      0xffffffffffffffff\n        /* \"#utility.yul\":4510:4520   */\n      dup3\n        /* \"#utility.yul\":4507:4541   */\n      gt\n        /* \"#utility.yul\":4504:4566   */\n      or\n        /* \"#utility.yul\":4501:4589   */\n      iszero\n      tag_160\n      jumpi\n        /* \"#utility.yul\":4569:4587   */\n      tag_161\n      tag_99\n      jump\t// in\n    tag_161:\n        /* \"#utility.yul\":4501:4589   */\n    tag_160:\n        /* \"#utility.yul\":4609:4619   */\n      dup1\n        /* \"#utility.yul\":4605:4607   */\n      0x40\n        /* \"#utility.yul\":4598:4620   */\n      mstore\n        /* \"#utility.yul\":4388:4626   */\n      pop\n        /* \"#utility.yul\":4345:4626   */\n      pop\n      pop\n      jump\t// out\n        /* \"#utility.yul\":4632:4761   */\n    tag_101:\n        /* \"#utility.yul\":4666:4672   */\n      0x00\n        /* \"#utility.yul\":4693:4713   */\n      tag_163\n      tag_90\n      jump\t// in\n    tag_163:\n        /* \"#utility.yul\":4683:4713   */\n      swap1\n      pop\n        /* \"#utility.yul\":4722:4755   */\n      tag_164\n        /* \"#utility.yul\":4750:4754   */\n      dup3\n        /* \"#utility.yul\":4742:4748   */\n      dup3\n        /* \"#utility.yul\":4722:4755   */\n      tag_100\n      jump\t// in\n    tag_164:\n        /* \"#utility.yul\":4632:4761   */\n      swap2\n      swap1\n      pop\n      jump\t// out\n        /* \"#utility.yul\":4767:5075   */\n    tag_102:\n        /* \"#utility.yul\":4829:4833   */\n      0x00\n        /* \"#utility.yul\":4919:4937   */\n      0xffffffffffffffff\n        /* \"#utility.yul\":4911:4917   */\n      dup3\n        /* \"#utility.yul\":4908:4938   */\n      gt\n        /* \"#utility.yul\":4905:4961   */\n      iszero\n      tag_166\n      jumpi\n        /* \"#utility.yul\":4941:4959   */\n      tag_167\n      tag_99\n      jump\t// in\n    tag_167:\n        /* \"#utility.yul\":4905:4961   */\n    tag_166:\n        /* \"#utility.yul\":4979:5008   */\n      tag_168\n        /* \"#utility.yul\":5001:5007   */\n      dup3\n        /* \"#utility.yul\":4979:5008   */\n      tag_83\n      jump\t// in\n    tag_168:\n        /* \"#utility.yul\":4971:5008   */\n      swap1\n      pop\n        /* \"#utility.yul\":5063:5067   */\n      0x20\n        /* \"#utility.yul\":5057:5061   */\n      dup2\n        /* \"#utility.yul\":5053:5068   */\n      add\n        /* \"#utility.yul\":5045:5068   */\n      swap1\n      pop\n        /* \"#utility.yul\":4767:5075   */\n      swap2\n      swap1\n      pop\n      jump\t// out\n        /* \"#utility.yul\":5081:5515   */\n    tag_103:\n        /* \"#utility.yul\":5170:5175   */\n      0x00\n        /* \"#utility.yul\":5195:5261   */\n      tag_170\n        /* \"#utility.yul\":5211:5260   */\n      tag_171\n        /* \"#utility.yul\":5253:5259   */\n      dup5\n        /* \"#utility.yul\":5211:5260   */\n      tag_102\n      jump\t// in\n    tag_171:\n        /* \"#utility.yul\":5195:5261   */\n      tag_101\n      jump\t// in\n    tag_170:\n        /* \"#utility.yul\":5186:5261   */\n      swap1\n      pop\n        /* \"#utility.yul\":5284:5290   */\n      dup3\n        /* \"#utility.yul\":5277:5282   */\n      dup2\n        /* \"#utility.yul\":5270:5291   */\n      mstore\n        /* \"#utility.yul\":5322:5326   */\n      0x20\n        /* \"#utility.yul\":5315:5320   */\n      dup2\n        /* \"#utility.yul\":5311:5327   */\n      add\n        /* \"#utility.yul\":5360:5363   */\n      dup5\n        /* \"#utility.yul\":5351:5357   */\n      dup5\n        /* \"#utility.yul\":5346:5349   */\n      dup5\n        /* \"#utility.yul\":5342:5358   */\n      add\n        /* \"#utility.yul\":5339:5364   */\n      gt\n        /* \"#utility.yul\":5336:5448   */\n      iszero\n      tag_172\n      jumpi\n        /* \"#utility.yul\":5367:5446   */\n      tag_173\n      tag_98\n      jump\t// in\n    tag_173:\n        /* \"#utility.yul\":5336:5448   */\n    tag_172:\n        /* \"#utility.yul\":5457:5509   */\n      tag_174\n        /* \"#utility.yul\":5502:5508   */\n      dup5\n        /* \"#utility.yul\":5497:5500   */\n      dup3\n        /* \"#utility.yul\":5492:5495   */\n      dup6\n        /* \"#utility.yul\":5457:5509   */\n      tag_82\n      jump\t// in\n    tag_174:\n        /* \"#utility.yul\":5176:5515   */\n      pop\n        /* \"#utility.yul\":5081:5515   */\n      swap4\n      swap3\n      pop\n      pop\n      pop\n      jump\t// out\n        /* \"#utility.yul\":5535:5890   */\n    tag_104:\n        /* \"#utility.yul\":5602:5607   */\n      0x00\n        /* \"#utility.yul\":5651:5654   */\n      dup3\n        /* \"#utility.yul\":5644:5648   */\n      0x1f\n        /* \"#utility.yul\":5636:5642   */\n      dup4\n        /* \"#utility.yul\":5632:5649   */\n      add\n        /* \"#utility.yul\":5628:5655   */\n      slt\n        /* \"#utility.yul\":5618:5740   */\n      tag_176\n      jumpi\n        /* \"#utility.yul\":5659:5738   */\n      tag_177\n      tag_97\n      jump\t// in\n    tag_177:\n        /* \"#utility.yul\":5618:5740   */\n    tag_176:\n        /* \"#utility.yul\":5769:5775   */\n      dup2\n        /* \"#utility.yul\":5763:5776   */\n      mload\n        /* \"#utility.yul\":5794:5884   */\n      tag_178\n        /* \"#utility.yul\":5880:5883   */\n      dup5\n        /* \"#utility.yul\":5872:5878   */\n      dup3\n        /* \"#utility.yul\":5865:5869   */\n      0x20\n        /* \"#utility.yul\":5857:5863   */\n      dup7\n        /* \"#utility.yul\":5853:5870   */\n      add\n        /* \"#utility.yul\":5794:5884   */\n      tag_103\n      jump\t// in\n    tag_178:\n        /* \"#utility.yul\":5785:5884   */\n      swap2\n      pop\n        /* \"#utility.yul\":5608:5890   */\n      pop\n        /* \"#utility.yul\":5535:5890   */\n      swap3\n      swap2\n      pop\n      pop\n      jump\t// out\n        /* \"#utility.yul\":5896:6420   */\n    tag_50:\n        /* \"#utility.yul\":5976:5982   */\n      0x00\n        /* \"#utility.yul\":6025:6027   */\n      0x20\n        /* \"#utility.yul\":6013:6022   */\n      dup3\n        /* \"#utility.yul\":6004:6011   */\n      dup5\n        /* \"#utility.yul\":6000:6023   */\n      sub\n        /* \"#utility.yul\":5996:6028   */\n      slt\n        /* \"#utility.yul\":5993:6112   */\n      iszero\n      tag_180\n      jumpi\n        /* \"#utility.yul\":6031:6110   */\n      tag_181\n      tag_91\n      jump\t// in\n    tag_181:\n        /* \"#utility.yul\":5993:6112   */\n    tag_180:\n        /* \"#utility.yul\":6172:6173   */\n      0x00\n        /* \"#utility.yul\":6161:6170   */\n      dup3\n        /* \"#utility.yul\":6157:6174   */\n      add\n        /* \"#utility.yul\":6151:6175   */\n      mload\n        /* \"#utility.yul\":6202:6220   */\n      0xffffffffffffffff\n        /* \"#utility.yul\":6194:6200   */\n      dup2\n        /* \"#utility.yul\":6191:6221   */\n      gt\n        /* \"#utility.yul\":6188:6305   */\n      iszero\n      tag_182\n      jumpi\n        /* \"#utility.yul\":6224:6303   */\n      tag_183\n      tag_92\n      jump\t// in\n    tag_183:\n        /* \"#utility.yul\":6188:6305   */\n    tag_182:\n        /* \"#utility.yul\":6329:6403   */\n      tag_184\n        /* \"#utility.yul\":6395:6402   */\n      dup5\n        /* \"#utility.yul\":6386:6392   */\n      dup3\n        /* \"#utility.yul\":6375:6384   */\n      dup6\n        /* \"#utility.yul\":6371:6393   */\n      add\n        /* \"#utility.yul\":6329:6403   */\n      tag_104\n      jump\t// in\n    tag_184:\n        /* \"#utility.yul\":6319:6403   */\n      swap2\n      pop\n        /* \"#utility.yul\":6122:6413   */\n      pop\n        /* \"#utility.yul\":5896:6420   */\n      swap3\n      swap2\n      pop\n      pop\n      jump\t// out\n        /* \"#utility.yul\":6426:6569   */\n    tag_105:\n        /* \"#utility.yul\":6483:6488   */\n      0x00\n        /* \"#utility.yul\":6514:6520   */\n      dup2\n        /* \"#utility.yul\":6508:6521   */\n      mload\n        /* \"#utility.yul\":6499:6521   */\n      swap1\n      pop\n        /* \"#utility.yul\":6530:6563   */\n      tag_186\n        /* \"#utility.yul\":6557:6562   */\n      dup2\n        /* \"#utility.yul\":6530:6563   */\n      tag_93\n      jump\t// in\n    tag_186:\n        /* \"#utility.yul\":6426:6569   */\n      swap3\n      swap2\n      pop\n      pop\n      jump\t// out\n        /* \"#utility.yul\":6575:6926   */\n    tag_55:\n        /* \"#utility.yul\":6645:6651   */\n      0x00\n        /* \"#utility.yul\":6694:6696   */\n      0x20\n        /* \"#utility.yul\":6682:6691   */\n      dup3\n        /* \"#utility.yul\":6673:6680   */\n      dup5\n        /* \"#utility.yul\":6669:6692   */\n      sub\n        /* \"#utility.yul\":6665:6697   */\n      slt\n        /* \"#utility.yul\":6662:6781   */\n      iszero\n      tag_188\n      jumpi\n        /* \"#utility.yul\":6700:6779   */\n      tag_189\n      tag_91\n      jump\t// in\n    tag_189:\n        /* \"#utility.yul\":6662:6781   */\n    tag_188:\n        /* \"#utility.yul\":6820:6821   */\n      0x00\n        /* \"#utility.yul\":6845:6909   */\n      tag_190\n        /* \"#utility.yul\":6901:6908   */\n      dup5\n        /* \"#utility.yul\":6892:6898   */\n      dup3\n        /* \"#utility.yul\":6881:6890   */\n      dup6\n        /* \"#utility.yul\":6877:6899   */\n      add\n        /* \"#utility.yul\":6845:6909   */\n      tag_105\n      jump\t// in\n    tag_190:\n        /* \"#utility.yul\":6835:6909   */\n      swap2\n      pop\n        /* \"#utility.yul\":6791:6919   */\n      pop\n        /* \"#utility.yul\":6575:6926   */\n      swap3\n      swap2\n      pop\n      pop\n      jump\t// out\n        /* \"#utility.yul\":6932:7075   */\n    tag_106:\n        /* \"#utility.yul\":6989:6994   */\n      0x00\n        /* \"#utility.yul\":7020:7026   */\n      dup2\n        /* \"#utility.yul\":7014:7027   */\n      mload\n        /* \"#utility.yul\":7005:7027   */\n      swap1\n      pop\n        /* \"#utility.yul\":7036:7069   */\n      tag_192\n        /* \"#utility.yul\":7063:7068   */\n      dup2\n        /* \"#utility.yul\":7036:7069   */\n      tag_95\n      jump\t// in\n    tag_192:\n        /* \"#utility.yul\":6932:7075   */\n      swap3\n      swap2\n      pop\n      pop\n      jump\t// out\n        /* \"#utility.yul\":7081:7432   */\n    tag_65:\n        /* \"#utility.yul\":7151:7157   */\n      0x00\n        /* \"#utility.yul\":7200:7202   */\n      0x20\n        /* \"#utility.yul\":7188:7197   */\n      dup3\n        /* \"#utility.yul\":7179:7186   */\n      dup5\n        /* \"#utility.yul\":7175:7198   */\n      sub\n        /* \"#utility.yul\":7171:7203   */\n      slt\n        /* \"#utility.yul\":7168:7287   */\n      iszero\n      tag_194\n      jumpi\n        /* \"#utility.yul\":7206:7285   */\n      tag_195\n      tag_91\n      jump\t// in\n    tag_195:\n        /* \"#utility.yul\":7168:7287   */\n    tag_194:\n        /* \"#utility.yul\":7326:7327   */\n      0x00\n        /* \"#utility.yul\":7351:7415   */\n      tag_196\n        /* \"#utility.yul\":7407:7414   */\n      dup5\n        /* \"#utility.yul\":7398:7404   */\n      dup3\n        /* \"#utility.yul\":7387:7396   */\n      dup6\n        /* \"#utility.yul\":7383:7405   */\n      add\n        /* \"#utility.yul\":7351:7415   */\n      tag_106\n      jump\t// in\n    tag_196:\n        /* \"#utility.yul\":7341:7415   */\n      swap2\n      pop\n        /* \"#utility.yul\":7297:7425   */\n      pop\n        /* \"#utility.yul\":7081:7432   */\n      swap3\n      swap2\n      pop\n      pop\n      jump\t// out\n\n    auxdata: 0xa26469706673582212207123895e48c9705da67eec713a471ef289ad18fdbef7d0413df28baae83d983464736f6c63430008120033\n}\n\nsub_1: assembly {\n        /* \"contracts-lecture/230516-1.sol\":971:1825  contract DAD {... */\n      mstore(0x40, 0x80)\n        /* \"contracts-lecture/230516-1.sol\":1022:1025  100 */\n      0x64\n        /* \"contracts-lecture/230516-1.sol\":1003:1025  uint public wallet=100 */\n      0x01\n      sstore\n        /* \"contracts-lecture/230516-1.sol\":1079:1083  1000 */\n      0x03e8\n        /* \"contracts-lecture/230516-1.sol\":1058:1083  uint internal crypto=1000 */\n      0x02\n      sstore\n        /* \"contracts-lecture/230516-1.sol\":1167:1172  10000 */\n      0x2710\n        /* \"contracts-lecture/230516-1.sol\":1144:1172  uint private emergency=10000 */\n      0x03\n      sstore\n        /* \"contracts-lecture/230516-1.sol\":971:1825  contract DAD {... */\n      callvalue\n      dup1\n      iszero\n      tag_1\n      jumpi\n      0x00\n      dup1\n      revert\n    tag_1:\n      pop\n      dataSize(sub_0)\n      dup1\n      dataOffset(sub_0)\n      0x00\n      codecopy\n      0x00\n      return\n    stop\n\n    sub_0: assembly {\n            /* \"contracts-lecture/230516-1.sol\":971:1825  contract DAD {... */\n          mstore(0x40, 0x80)\n          callvalue\n          dup1\n          iszero\n          tag_1\n          jumpi\n          0x00\n          dup1\n          revert\n        tag_1:\n          pop\n          jumpi(tag_2, lt(calldatasize, 0x04))\n          shr(0xe0, calldataload(0x00))\n          dup1\n          0x38cc4831\n          eq\n          tag_3\n          jumpi\n          dup1\n          0x4d2e03a0\n          eq\n          tag_4\n          jumpi\n          dup1\n          0x521eb273\n          eq\n          tag_5\n          jumpi\n          dup1\n          0x7a6ce2e1\n          eq\n          tag_6\n          jumpi\n          dup1\n          0xd6d21dfd\n          eq\n          tag_7\n          jumpi\n          dup1\n          0xfb22f715\n          eq\n          tag_8\n          jumpi\n        tag_2:\n          0x00\n          dup1\n          revert\n            /* \"contracts-lecture/230516-1.sol\":1570:1658  function getAddress() public view returns(address) {... */\n        tag_3:\n          tag_9\n          tag_10\n          jump\t// in\n        tag_9:\n          mload(0x40)\n          tag_11\n          swap2\n          swap1\n          tag_12\n          jump\t// in\n        tag_11:\n          mload(0x40)\n          dup1\n          swap2\n          sub\n          swap1\n          return\n            /* \"contracts-lecture/230516-1.sol\":1472:1564  function character() external pure returns(string memory) {... */\n        tag_4:\n          tag_13\n          tag_14\n          jump\t// in\n        tag_13:\n          mload(0x40)\n          tag_15\n          swap2\n          swap1\n          tag_16\n          jump\t// in\n        tag_15:\n          mload(0x40)\n          dup1\n          swap2\n          sub\n          swap1\n          return\n            /* \"contracts-lecture/230516-1.sol\":1003:1025  uint public wallet=100 */\n        tag_5:\n          tag_17\n          tag_18\n          jump\t// in\n        tag_17:\n          mload(0x40)\n          tag_19\n          swap2\n          swap1\n          tag_20\n          jump\t// in\n        tag_19:\n          mload(0x40)\n          dup1\n          swap2\n          sub\n          swap1\n          return\n            /* \"contracts-lecture/230516-1.sol\":1664:1751  function getMsgSender() public view returns(address) {... */\n        tag_6:\n          tag_21\n          tag_22\n          jump\t// in\n        tag_21:\n          mload(0x40)\n          tag_23\n          swap2\n          swap1\n          tag_12\n          jump\t// in\n        tag_23:\n          mload(0x40)\n          dup1\n          swap2\n          sub\n          swap1\n          return\n            /* \"contracts-lecture/230516-1.sol\":1199:1295  function who() virtual public pure returns(string memory) {... */\n        tag_7:\n          tag_24\n          tag_25\n          jump\t// in\n        tag_24:\n          mload(0x40)\n          tag_26\n          swap2\n          swap1\n          tag_16\n          jump\t// in\n        tag_26:\n          mload(0x40)\n          dup1\n          swap2\n          sub\n          swap1\n          return\n            /* \"contracts-lecture/230516-1.sol\":1757:1823  function changeWallet(uint _n) public {... */\n        tag_8:\n          tag_27\n          0x04\n          dup1\n          calldatasize\n          sub\n          dup2\n          add\n          swap1\n          tag_28\n          swap2\n          swap1\n          tag_29\n          jump\t// in\n        tag_28:\n          tag_30\n          jump\t// in\n        tag_27:\n          stop\n            /* \"contracts-lecture/230516-1.sol\":1570:1658  function getAddress() public view returns(address) {... */\n        tag_10:\n            /* \"contracts-lecture/230516-1.sol\":1612:1619  address */\n          0x00\n            /* \"contracts-lecture/230516-1.sol\":1646:1650  this */\n          address\n            /* \"contracts-lecture/230516-1.sol\":1631:1651  return address(this) */\n          swap1\n          pop\n            /* \"contracts-lecture/230516-1.sol\":1570:1658  function getAddress() public view returns(address) {... */\n          swap1\n          jump\t// out\n            /* \"contracts-lecture/230516-1.sol\":1472:1564  function character() external pure returns(string memory) {... */\n        tag_14:\n            /* \"contracts-lecture/230516-1.sol\":1515:1528  string memory */\n          0x60\n            /* \"contracts-lecture/230516-1.sol\":1540:1557  return \"not good\" */\n          mload(0x40)\n          dup1\n          0x40\n          add\n          0x40\n          mstore\n          dup1\n          0x08\n          dup2\n          mstore\n          0x20\n          add\n          0x6e6f7420676f6f64000000000000000000000000000000000000000000000000\n          dup2\n          mstore\n          pop\n          swap1\n          pop\n            /* \"contracts-lecture/230516-1.sol\":1472:1564  function character() external pure returns(string memory) {... */\n          swap1\n          jump\t// out\n            /* \"contracts-lecture/230516-1.sol\":1003:1025  uint public wallet=100 */\n        tag_18:\n          sload(0x01)\n          dup2\n          jump\t// out\n            /* \"contracts-lecture/230516-1.sol\":1664:1751  function getMsgSender() public view returns(address) {... */\n        tag_22:\n            /* \"contracts-lecture/230516-1.sol\":1708:1715  address */\n          0x00\n            /* \"contracts-lecture/230516-1.sol\":1734:1744  msg.sender */\n          caller\n            /* \"contracts-lecture/230516-1.sol\":1727:1744  return msg.sender */\n          swap1\n          pop\n            /* \"contracts-lecture/230516-1.sol\":1664:1751  function getMsgSender() public view returns(address) {... */\n          swap1\n          jump\t// out\n            /* \"contracts-lecture/230516-1.sol\":1199:1295  function who() virtual public pure returns(string memory) {... */\n        tag_25:\n            /* \"contracts-lecture/230516-1.sol\":1242:1255  string memory */\n          0x60\n            /* \"contracts-lecture/230516-1.sol\":1267:1288  return \"dad from DAD\" */\n          mload(0x40)\n          dup1\n          0x40\n          add\n          0x40\n          mstore\n          dup1\n          0x0c\n          dup2\n          mstore\n          0x20\n          add\n          0x6461642066726f6d204441440000000000000000000000000000000000000000\n          dup2\n          mstore\n          pop\n          swap1\n          pop\n            /* \"contracts-lecture/230516-1.sol\":1199:1295  function who() virtual public pure returns(string memory) {... */\n          swap1\n          jump\t// out\n            /* \"contracts-lecture/230516-1.sol\":1757:1823  function changeWallet(uint _n) public {... */\n        tag_30:\n            /* \"contracts-lecture/230516-1.sol\":1814:1816  _n */\n          dup1\n            /* \"contracts-lecture/230516-1.sol\":1805:1811  wallet */\n          0x01\n            /* \"contracts-lecture/230516-1.sol\":1805:1816  wallet = _n */\n          dup2\n          swap1\n          sstore\n          pop\n            /* \"contracts-lecture/230516-1.sol\":1757:1823  function changeWallet(uint _n) public {... */\n          pop\n          jump\t// out\n            /* \"#utility.yul\":7:133   */\n        tag_36:\n            /* \"#utility.yul\":44:51   */\n          0x00\n            /* \"#utility.yul\":84:126   */\n          0xffffffffffffffffffffffffffffffffffffffff\n            /* \"#utility.yul\":77:82   */\n          dup3\n            /* \"#utility.yul\":73:127   */\n          and\n            /* \"#utility.yul\":62:127   */\n          swap1\n          pop\n            /* \"#utility.yul\":7:133   */\n          swap2\n          swap1\n          pop\n          jump\t// out\n            /* \"#utility.yul\":139:235   */\n        tag_37:\n            /* \"#utility.yul\":176:183   */\n          0x00\n            /* \"#utility.yul\":205:229   */\n          tag_54\n            /* \"#utility.yul\":223:228   */\n          dup3\n            /* \"#utility.yul\":205:229   */\n          tag_36\n          jump\t// in\n        tag_54:\n            /* \"#utility.yul\":194:229   */\n          swap1\n          pop\n            /* \"#utility.yul\":139:235   */\n          swap2\n          swap1\n          pop\n          jump\t// out\n            /* \"#utility.yul\":241:359   */\n        tag_38:\n            /* \"#utility.yul\":328:352   */\n          tag_56\n            /* \"#utility.yul\":346:351   */\n          dup2\n            /* \"#utility.yul\":328:352   */\n          tag_37\n          jump\t// in\n        tag_56:\n            /* \"#utility.yul\":323:326   */\n          dup3\n            /* \"#utility.yul\":316:353   */\n          mstore\n            /* \"#utility.yul\":241:359   */\n          pop\n          pop\n          jump\t// out\n            /* \"#utility.yul\":365:587   */\n        tag_12:\n            /* \"#utility.yul\":458:462   */\n          0x00\n            /* \"#utility.yul\":496:498   */\n          0x20\n            /* \"#utility.yul\":485:494   */\n          dup3\n            /* \"#utility.yul\":481:499   */\n          add\n            /* \"#utility.yul\":473:499   */\n          swap1\n          pop\n            /* \"#utility.yul\":509:580   */\n          tag_58\n            /* \"#utility.yul\":577:578   */\n          0x00\n            /* \"#utility.yul\":566:575   */\n          dup4\n            /* \"#utility.yul\":562:579   */\n          add\n            /* \"#utility.yul\":553:559   */\n          dup5\n            /* \"#utility.yul\":509:580   */\n          tag_38\n          jump\t// in\n        tag_58:\n            /* \"#utility.yul\":365:587   */\n          swap3\n          swap2\n          pop\n          pop\n          jump\t// out\n            /* \"#utility.yul\":593:692   */\n        tag_39:\n            /* \"#utility.yul\":645:651   */\n          0x00\n            /* \"#utility.yul\":679:684   */\n          dup2\n            /* \"#utility.yul\":673:685   */\n          mload\n            /* \"#utility.yul\":663:685   */\n          swap1\n          pop\n            /* \"#utility.yul\":593:692   */\n          swap2\n          swap1\n          pop\n          jump\t// out\n            /* \"#utility.yul\":698:867   */\n        tag_40:\n            /* \"#utility.yul\":782:793   */\n          0x00\n            /* \"#utility.yul\":816:822   */\n          dup3\n            /* \"#utility.yul\":811:814   */\n          dup3\n            /* \"#utility.yul\":804:823   */\n          mstore\n            /* \"#utility.yul\":856:860   */\n          0x20\n            /* \"#utility.yul\":851:854   */\n          dup3\n            /* \"#utility.yul\":847:861   */\n          add\n            /* \"#utility.yul\":832:861   */\n          swap1\n          pop\n            /* \"#utility.yul\":698:867   */\n          swap3\n          swap2\n          pop\n          pop\n          jump\t// out\n            /* \"#utility.yul\":873:1119   */\n        tag_41:\n            /* \"#utility.yul\":954:955   */\n          0x00\n            /* \"#utility.yul\":964:1077   */\n        tag_62:\n            /* \"#utility.yul\":978:984   */\n          dup4\n            /* \"#utility.yul\":975:976   */\n          dup2\n            /* \"#utility.yul\":972:985   */\n          lt\n            /* \"#utility.yul\":964:1077   */\n          iszero\n          tag_64\n          jumpi\n            /* \"#utility.yul\":1063:1064   */\n          dup1\n            /* \"#utility.yul\":1058:1061   */\n          dup3\n            /* \"#utility.yul\":1054:1065   */\n          add\n            /* \"#utility.yul\":1048:1066   */\n          mload\n            /* \"#utility.yul\":1044:1045   */\n          dup2\n            /* \"#utility.yul\":1039:1042   */\n          dup5\n            /* \"#utility.yul\":1035:1046   */\n          add\n            /* \"#utility.yul\":1028:1067   */\n          mstore\n            /* \"#utility.yul\":1000:1002   */\n          0x20\n            /* \"#utility.yul\":997:998   */\n          dup2\n            /* \"#utility.yul\":993:1003   */\n          add\n            /* \"#utility.yul\":988:1003   */\n          swap1\n          pop\n            /* \"#utility.yul\":964:1077   */\n          jump(tag_62)\n        tag_64:\n            /* \"#utility.yul\":1111:1112   */\n          0x00\n            /* \"#utility.yul\":1102:1108   */\n          dup5\n            /* \"#utility.yul\":1097:1100   */\n          dup5\n            /* \"#utility.yul\":1093:1109   */\n          add\n            /* \"#utility.yul\":1086:1113   */\n          mstore\n            /* \"#utility.yul\":935:1119   */\n          pop\n            /* \"#utility.yul\":873:1119   */\n          pop\n          pop\n          pop\n          jump\t// out\n            /* \"#utility.yul\":1125:1227   */\n        tag_42:\n            /* \"#utility.yul\":1166:1172   */\n          0x00\n            /* \"#utility.yul\":1217:1219   */\n          0x1f\n            /* \"#utility.yul\":1213:1220   */\n          not\n            /* \"#utility.yul\":1208:1210   */\n          0x1f\n            /* \"#utility.yul\":1201:1206   */\n          dup4\n            /* \"#utility.yul\":1197:1211   */\n          add\n            /* \"#utility.yul\":1193:1221   */\n          and\n            /* \"#utility.yul\":1183:1221   */\n          swap1\n          pop\n            /* \"#utility.yul\":1125:1227   */\n          swap2\n          swap1\n          pop\n          jump\t// out\n            /* \"#utility.yul\":1233:1610   */\n        tag_43:\n            /* \"#utility.yul\":1321:1324   */\n          0x00\n            /* \"#utility.yul\":1349:1388   */\n          tag_67\n            /* \"#utility.yul\":1382:1387   */\n          dup3\n            /* \"#utility.yul\":1349:1388   */\n          tag_39\n          jump\t// in\n        tag_67:\n            /* \"#utility.yul\":1404:1475   */\n          tag_68\n            /* \"#utility.yul\":1468:1474   */\n          dup2\n            /* \"#utility.yul\":1463:1466   */\n          dup6\n            /* \"#utility.yul\":1404:1475   */\n          tag_40\n          jump\t// in\n        tag_68:\n            /* \"#utility.yul\":1397:1475   */\n          swap4\n          pop\n            /* \"#utility.yul\":1484:1549   */\n          tag_69\n            /* \"#utility.yul\":1542:1548   */\n          dup2\n            /* \"#utility.yul\":1537:1540   */\n          dup6\n            /* \"#utility.yul\":1530:1534   */\n          0x20\n            /* \"#utility.yul\":1523:1528   */\n          dup7\n            /* \"#utility.yul\":1519:1535   */\n          add\n            /* \"#utility.yul\":1484:1549   */\n          tag_41\n          jump\t// in\n        tag_69:\n            /* \"#utility.yul\":1574:1603   */\n          tag_70\n            /* \"#utility.yul\":1596:1602   */\n          dup2\n            /* \"#utility.yul\":1574:1603   */\n          tag_42\n          jump\t// in\n        tag_70:\n            /* \"#utility.yul\":1569:1572   */\n          dup5\n            /* \"#utility.yul\":1565:1604   */\n          add\n            /* \"#utility.yul\":1558:1604   */\n          swap2\n          pop\n            /* \"#utility.yul\":1325:1610   */\n          pop\n            /* \"#utility.yul\":1233:1610   */\n          swap3\n          swap2\n          pop\n          pop\n          jump\t// out\n            /* \"#utility.yul\":1616:1929   */\n        tag_16:\n            /* \"#utility.yul\":1729:1733   */\n          0x00\n            /* \"#utility.yul\":1767:1769   */\n          0x20\n            /* \"#utility.yul\":1756:1765   */\n          dup3\n            /* \"#utility.yul\":1752:1770   */\n          add\n            /* \"#utility.yul\":1744:1770   */\n          swap1\n          pop\n            /* \"#utility.yul\":1816:1825   */\n          dup2\n            /* \"#utility.yul\":1810:1814   */\n          dup2\n            /* \"#utility.yul\":1806:1826   */\n          sub\n            /* \"#utility.yul\":1802:1803   */\n          0x00\n            /* \"#utility.yul\":1791:1800   */\n          dup4\n            /* \"#utility.yul\":1787:1804   */\n          add\n            /* \"#utility.yul\":1780:1827   */\n          mstore\n            /* \"#utility.yul\":1844:1922   */\n          tag_72\n            /* \"#utility.yul\":1917:1921   */\n          dup2\n            /* \"#utility.yul\":1908:1914   */\n          dup5\n            /* \"#utility.yul\":1844:1922   */\n          tag_43\n          jump\t// in\n        tag_72:\n            /* \"#utility.yul\":1836:1922   */\n          swap1\n          pop\n            /* \"#utility.yul\":1616:1929   */\n          swap3\n          swap2\n          pop\n          pop\n          jump\t// out\n            /* \"#utility.yul\":1935:2012   */\n        tag_44:\n            /* \"#utility.yul\":1972:1979   */\n          0x00\n            /* \"#utility.yul\":2001:2006   */\n          dup2\n            /* \"#utility.yul\":1990:2006   */\n          swap1\n          pop\n            /* \"#utility.yul\":1935:2012   */\n          swap2\n          swap1\n          pop\n          jump\t// out\n            /* \"#utility.yul\":2018:2136   */\n        tag_45:\n            /* \"#utility.yul\":2105:2129   */\n          tag_75\n            /* \"#utility.yul\":2123:2128   */\n          dup2\n            /* \"#utility.yul\":2105:2129   */\n          tag_44\n          jump\t// in\n        tag_75:\n            /* \"#utility.yul\":2100:2103   */\n          dup3\n            /* \"#utility.yul\":2093:2130   */\n          mstore\n            /* \"#utility.yul\":2018:2136   */\n          pop\n          pop\n          jump\t// out\n            /* \"#utility.yul\":2142:2364   */\n        tag_20:\n            /* \"#utility.yul\":2235:2239   */\n          0x00\n            /* \"#utility.yul\":2273:2275   */\n          0x20\n            /* \"#utility.yul\":2262:2271   */\n          dup3\n            /* \"#utility.yul\":2258:2276   */\n          add\n            /* \"#utility.yul\":2250:2276   */\n          swap1\n          pop\n            /* \"#utility.yul\":2286:2357   */\n          tag_77\n            /* \"#utility.yul\":2354:2355   */\n          0x00\n            /* \"#utility.yul\":2343:2352   */\n          dup4\n            /* \"#utility.yul\":2339:2356   */\n          add\n            /* \"#utility.yul\":2330:2336   */\n          dup5\n            /* \"#utility.yul\":2286:2357   */\n          tag_45\n          jump\t// in\n        tag_77:\n            /* \"#utility.yul\":2142:2364   */\n          swap3\n          swap2\n          pop\n          pop\n          jump\t// out\n            /* \"#utility.yul\":2451:2568   */\n        tag_47:\n            /* \"#utility.yul\":2560:2561   */\n          0x00\n            /* \"#utility.yul\":2557:2558   */\n          dup1\n            /* \"#utility.yul\":2550:2562   */\n          revert\n            /* \"#utility.yul\":2697:2819   */\n        tag_49:\n            /* \"#utility.yul\":2770:2794   */\n          tag_82\n            /* \"#utility.yul\":2788:2793   */\n          dup2\n            /* \"#utility.yul\":2770:2794   */\n          tag_44\n          jump\t// in\n        tag_82:\n            /* \"#utility.yul\":2763:2768   */\n          dup2\n            /* \"#utility.yul\":2760:2795   */\n          eq\n            /* \"#utility.yul\":2750:2813   */\n          tag_83\n          jumpi\n            /* \"#utility.yul\":2809:2810   */\n          0x00\n            /* \"#utility.yul\":2806:2807   */\n          dup1\n            /* \"#utility.yul\":2799:2811   */\n          revert\n            /* \"#utility.yul\":2750:2813   */\n        tag_83:\n            /* \"#utility.yul\":2697:2819   */\n          pop\n          jump\t// out\n            /* \"#utility.yul\":2825:2964   */\n        tag_50:\n            /* \"#utility.yul\":2871:2876   */\n          0x00\n            /* \"#utility.yul\":2909:2915   */\n          dup2\n            /* \"#utility.yul\":2896:2916   */\n          calldataload\n            /* \"#utility.yul\":2887:2916   */\n          swap1\n          pop\n            /* \"#utility.yul\":2925:2958   */\n          tag_85\n            /* \"#utility.yul\":2952:2957   */\n          dup2\n            /* \"#utility.yul\":2925:2958   */\n          tag_49\n          jump\t// in\n        tag_85:\n            /* \"#utility.yul\":2825:2964   */\n          swap3\n          swap2\n          pop\n          pop\n          jump\t// out\n            /* \"#utility.yul\":2970:3299   */\n        tag_29:\n            /* \"#utility.yul\":3029:3035   */\n          0x00\n            /* \"#utility.yul\":3078:3080   */\n          0x20\n            /* \"#utility.yul\":3066:3075   */\n          dup3\n            /* \"#utility.yul\":3057:3064   */\n          dup5\n            /* \"#utility.yul\":3053:3076   */\n          sub\n            /* \"#utility.yul\":3049:3081   */\n          slt\n            /* \"#utility.yul\":3046:3165   */\n          iszero\n          tag_87\n          jumpi\n            /* \"#utility.yul\":3084:3163   */\n          tag_88\n          tag_47\n          jump\t// in\n        tag_88:\n            /* \"#utility.yul\":3046:3165   */\n        tag_87:\n            /* \"#utility.yul\":3204:3205   */\n          0x00\n            /* \"#utility.yul\":3229:3282   */\n          tag_89\n            /* \"#utility.yul\":3274:3281   */\n          dup5\n            /* \"#utility.yul\":3265:3271   */\n          dup3\n            /* \"#utility.yul\":3254:3263   */\n          dup6\n            /* \"#utility.yul\":3250:3272   */\n          add\n            /* \"#utility.yul\":3229:3282   */\n          tag_50\n          jump\t// in\n        tag_89:\n            /* \"#utility.yul\":3219:3282   */\n          swap2\n          pop\n            /* \"#utility.yul\":3175:3292   */\n          pop\n            /* \"#utility.yul\":2970:3299   */\n          swap3\n          swap2\n          pop\n          pop\n          jump\t// out\n\n        auxdata: 0xa26469706673582212201e48c265d58d8685c4a8f8d46af3a8faebf5f2800ce6371301364f446b0152d664736f6c63430008120033\n    }\n}\n",
				"bytecode": {
					"linkReferences": {},
					"object": "6080604052604051610010906100e1565b604051809103906000f08015801561002c573d6000803e3d6000fd5b506000806101000a81548173ffffffffffffffffffffffffffffffffffffffff021916908373ffffffffffffffffffffffffffffffffffffffff16021790555034801561007857600080fd5b50604051610f99380380610f99833981810160405281019061009a9190610151565b80600160006101000a81548173ffffffffffffffffffffffffffffffffffffffff021916908373ffffffffffffffffffffffffffffffffffffffff1602179055505061017e565b6103ba80610bdf83390190565b600080fd5b600073ffffffffffffffffffffffffffffffffffffffff82169050919050565b600061011e826100f3565b9050919050565b61012e81610113565b811461013957600080fd5b50565b60008151905061014b81610125565b92915050565b600060208284031215610167576101666100ee565b5b60006101758482850161013c565b91505092915050565b610a528061018d6000396000f3fe608060405234801561001057600080fd5b50600436106100935760003560e01c806374b12a3a1161006657806374b12a3a146101105780637864dfba1461012e578063a1f50cb11461014c578063c709d36c14610168578063d6d21dfd1461019857610093565b80630c304e4b1461009857806313299604146100b65780631beb761a146100d45780631c7d5c42146100f2575b600080fd5b6100a06101b6565b6040516100ad91906106b1565b60405180910390f35b6100be610251565b6040516100cb91906106ec565b60405180910390f35b6100dc6102e8565b6040516100e991906106ec565b60405180910390f35b6100fa610380565b6040516101079190610748565b60405180910390f35b6101186103a9565b6040516101259190610748565b60405180910390f35b610136610440565b6040516101439190610748565b60405180910390f35b610166600480360381019061016191906107a3565b6104d7565b005b610182600480360381019061017d91906107fc565b610567565b60405161018f91906106ec565b60405180910390f35b6101a06105e4565b6040516101ad91906106b1565b60405180910390f35b606060008054906101000a900473ffffffffffffffffffffffffffffffffffffffff1673ffffffffffffffffffffffffffffffffffffffff16634d2e03a06040518163ffffffff1660e01b8152600401600060405180830381865afa158015610223573d6000803e3d6000fd5b505050506040513d6000823e3d601f19601f8201168201806040525081019061024c919061094f565b905090565b60008060009054906101000a900473ffffffffffffffffffffffffffffffffffffffff1673ffffffffffffffffffffffffffffffffffffffff1663521eb2736040518163ffffffff1660e01b8152600401602060405180830381865afa1580156102bf573d6000803e3d6000fd5b505050506040513d601f19601f820116820180604052508101906102e391906109ad565b905090565b6000600160009054906101000a900473ffffffffffffffffffffffffffffffffffffffff1673ffffffffffffffffffffffffffffffffffffffff1663521eb2736040518163ffffffff1660e01b8152600401602060405180830381865afa158015610357573d6000803e3d6000fd5b505050506040513d601f19601f8201168201806040525081019061037b91906109ad565b905090565b60008060009054906101000a900473ffffffffffffffffffffffffffffffffffffffff16905090565b60008060009054906101000a900473ffffffffffffffffffffffffffffffffffffffff1673ffffffffffffffffffffffffffffffffffffffff166338cc48316040518163ffffffff1660e01b8152600401602060405180830381865afa158015610417573d6000803e3d6000fd5b505050506040513d601f19601f8201168201806040525081019061043b91906109ef565b905090565b60008060009054906101000a900473ffffffffffffffffffffffffffffffffffffffff1673ffffffffffffffffffffffffffffffffffffffff16637a6ce2e16040518163ffffffff1660e01b8152600401602060405180830381865afa1580156104ae573d6000803e3d6000fd5b505050506040513d601f19601f820116820180604052508101906104d291906109ef565b905090565b600160009054906101000a900473ffffffffffffffffffffffffffffffffffffffff1673ffffffffffffffffffffffffffffffffffffffff1663fb22f715826040518263ffffffff1660e01b815260040161053291906106ec565b600060405180830381600087803b15801561054c57600080fd5b505af1158015610560573d6000803e3d6000fd5b5050505050565b6000808290508073ffffffffffffffffffffffffffffffffffffffff1663521eb2736040518163ffffffff1660e01b8152600401602060405180830381865afa1580156105b8573d6000803e3d6000fd5b505050506040513d601f19601f820116820180604052508101906105dc91906109ad565b915050919050565b60606040518060400160405280600c81526020017f6d6f6d2066726f6d204d4f4d0000000000000000000000000000000000000000815250905090565b600081519050919050565b600082825260208201905092915050565b60005b8381101561065b578082015181840152602081019050610640565b60008484015250505050565b6000601f19601f8301169050919050565b600061068382610621565b61068d818561062c565b935061069d81856020860161063d565b6106a681610667565b840191505092915050565b600060208201905081810360008301526106cb8184610678565b905092915050565b6000819050919050565b6106e6816106d3565b82525050565b600060208201905061070160008301846106dd565b92915050565b600073ffffffffffffffffffffffffffffffffffffffff82169050919050565b600061073282610707565b9050919050565b61074281610727565b82525050565b600060208201905061075d6000830184610739565b92915050565b6000604051905090565b600080fd5b600080fd5b610780816106d3565b811461078b57600080fd5b50565b60008135905061079d81610777565b92915050565b6000602082840312156107b9576107b861076d565b5b60006107c78482850161078e565b91505092915050565b6107d981610727565b81146107e457600080fd5b50565b6000813590506107f6816107d0565b92915050565b6000602082840312156108125761081161076d565b5b6000610820848285016107e7565b91505092915050565b600080fd5b600080fd5b7f4e487b7100000000000000000000000000000000000000000000000000000000600052604160045260246000fd5b61086b82610667565b810181811067ffffffffffffffff8211171561088a57610889610833565b5b80604052505050565b600061089d610763565b90506108a98282610862565b919050565b600067ffffffffffffffff8211156108c9576108c8610833565b5b6108d282610667565b9050602081019050919050565b60006108f26108ed846108ae565b610893565b90508281526020810184848401111561090e5761090d61082e565b5b61091984828561063d565b509392505050565b600082601f83011261093657610935610829565b5b81516109468482602086016108df565b91505092915050565b6000602082840312156109655761096461076d565b5b600082015167ffffffffffffffff81111561098357610982610772565b5b61098f84828501610921565b91505092915050565b6000815190506109a781610777565b92915050565b6000602082840312156109c3576109c261076d565b5b60006109d184828501610998565b91505092915050565b6000815190506109e9816107d0565b92915050565b600060208284031215610a0557610a0461076d565b5b6000610a13848285016109da565b9150509291505056fea26469706673582212207123895e48c9705da67eec713a471ef289ad18fdbef7d0413df28baae83d983464736f6c63430008120033608060405260646001556103e860025561271060035534801561002157600080fd5b50610389806100316000396000f3fe608060405234801561001057600080fd5b50600436106100625760003560e01c806338cc4831146100675780634d2e03a014610085578063521eb273146100a35780637a6ce2e1146100c1578063d6d21dfd146100df578063fb22f715146100fd575b600080fd5b61006f610119565b60405161007c91906101f4565b60405180910390f35b61008d610121565b60405161009a919061029f565b60405180910390f35b6100ab61015e565b6040516100b891906102da565b60405180910390f35b6100c9610164565b6040516100d691906101f4565b60405180910390f35b6100e761016c565b6040516100f4919061029f565b60405180910390f35b61011760048036038101906101129190610326565b6101a9565b005b600030905090565b60606040518060400160405280600881526020017f6e6f7420676f6f64000000000000000000000000000000000000000000000000815250905090565b60015481565b600033905090565b60606040518060400160405280600c81526020017f6461642066726f6d204441440000000000000000000000000000000000000000815250905090565b8060018190555050565b600073ffffffffffffffffffffffffffffffffffffffff82169050919050565b60006101de826101b3565b9050919050565b6101ee816101d3565b82525050565b600060208201905061020960008301846101e5565b92915050565b600081519050919050565b600082825260208201905092915050565b60005b8381101561024957808201518184015260208101905061022e565b60008484015250505050565b6000601f19601f8301169050919050565b60006102718261020f565b61027b818561021a565b935061028b81856020860161022b565b61029481610255565b840191505092915050565b600060208201905081810360008301526102b98184610266565b905092915050565b6000819050919050565b6102d4816102c1565b82525050565b60006020820190506102ef60008301846102cb565b92915050565b600080fd5b610303816102c1565b811461030e57600080fd5b50565b600081359050610320816102fa565b92915050565b60006020828403121561033c5761033b6102f5565b5b600061034a84828501610311565b9150509291505056fea26469706673582212201e48c265d58d8685c4a8f8d46af3a8faebf5f2800ce6371301364f446b0152d664736f6c63430008120033",
					"opcodes": "PUSH1 0x80 PUSH1 0x40 MSTORE PUSH1 0x40 MLOAD PUSH2 0x10 SWAP1 PUSH2 0xE1 JUMP JUMPDEST PUSH1 0x40 MLOAD DUP1 SWAP2 SUB SWAP1 PUSH1 0x0 CREATE DUP1 ISZERO DUP1 ISZERO PUSH2 0x2C JUMPI RETURNDATASIZE PUSH1 0x0 DUP1 RETURNDATACOPY RETURNDATASIZE PUSH1 0x0 REVERT JUMPDEST POP PUSH1 0x0 DUP1 PUSH2 0x100 EXP DUP2 SLOAD DUP2 PUSH20 0xFFFFFFFFFFFFFFFFFFFFFFFFFFFFFFFFFFFFFFFF MUL NOT AND SWAP1 DUP4 PUSH20 0xFFFFFFFFFFFFFFFFFFFFFFFFFFFFFFFFFFFFFFFF AND MUL OR SWAP1 SSTORE POP CALLVALUE DUP1 ISZERO PUSH2 0x78 JUMPI PUSH1 0x0 DUP1 REVERT JUMPDEST POP PUSH1 0x40 MLOAD PUSH2 0xF99 CODESIZE SUB DUP1 PUSH2 0xF99 DUP4 CODECOPY DUP2 DUP2 ADD PUSH1 0x40 MSTORE DUP2 ADD SWAP1 PUSH2 0x9A SWAP2 SWAP1 PUSH2 0x151 JUMP JUMPDEST DUP1 PUSH1 0x1 PUSH1 0x0 PUSH2 0x100 EXP DUP2 SLOAD DUP2 PUSH20 0xFFFFFFFFFFFFFFFFFFFFFFFFFFFFFFFFFFFFFFFF MUL NOT AND SWAP1 DUP4 PUSH20 0xFFFFFFFFFFFFFFFFFFFFFFFFFFFFFFFFFFFFFFFF AND MUL OR SWAP1 SSTORE POP POP PUSH2 0x17E JUMP JUMPDEST PUSH2 0x3BA DUP1 PUSH2 0xBDF DUP4 CODECOPY ADD SWAP1 JUMP JUMPDEST PUSH1 0x0 DUP1 REVERT JUMPDEST PUSH1 0x0 PUSH20 0xFFFFFFFFFFFFFFFFFFFFFFFFFFFFFFFFFFFFFFFF DUP3 AND SWAP1 POP SWAP2 SWAP1 POP JUMP JUMPDEST PUSH1 0x0 PUSH2 0x11E DUP3 PUSH2 0xF3 JUMP JUMPDEST SWAP1 POP SWAP2 SWAP1 POP JUMP JUMPDEST PUSH2 0x12E DUP2 PUSH2 0x113 JUMP JUMPDEST DUP2 EQ PUSH2 0x139 JUMPI PUSH1 0x0 DUP1 REVERT JUMPDEST POP JUMP JUMPDEST PUSH1 0x0 DUP2 MLOAD SWAP1 POP PUSH2 0x14B DUP2 PUSH2 0x125 JUMP JUMPDEST SWAP3 SWAP2 POP POP JUMP JUMPDEST PUSH1 0x0 PUSH1 0x20 DUP3 DUP5 SUB SLT ISZERO PUSH2 0x167 JUMPI PUSH2 0x166 PUSH2 0xEE JUMP JUMPDEST JUMPDEST PUSH1 0x0 PUSH2 0x175 DUP5 DUP3 DUP6 ADD PUSH2 0x13C JUMP JUMPDEST SWAP2 POP POP SWAP3 SWAP2 POP POP JUMP JUMPDEST PUSH2 0xA52 DUP1 PUSH2 0x18D PUSH1 0x0 CODECOPY PUSH1 0x0 RETURN INVALID PUSH1 0x80 PUSH1 0x40 MSTORE CALLVALUE DUP1 ISZERO PUSH2 0x10 JUMPI PUSH1 0x0 DUP1 REVERT JUMPDEST POP PUSH1 0x4 CALLDATASIZE LT PUSH2 0x93 JUMPI PUSH1 0x0 CALLDATALOAD PUSH1 0xE0 SHR DUP1 PUSH4 0x74B12A3A GT PUSH2 0x66 JUMPI DUP1 PUSH4 0x74B12A3A EQ PUSH2 0x110 JUMPI DUP1 PUSH4 0x7864DFBA EQ PUSH2 0x12E JUMPI DUP1 PUSH4 0xA1F50CB1 EQ PUSH2 0x14C JUMPI DUP1 PUSH4 0xC709D36C EQ PUSH2 0x168 JUMPI DUP1 PUSH4 0xD6D21DFD EQ PUSH2 0x198 JUMPI PUSH2 0x93 JUMP JUMPDEST DUP1 PUSH4 0xC304E4B EQ PUSH2 0x98 JUMPI DUP1 PUSH4 0x13299604 EQ PUSH2 0xB6 JUMPI DUP1 PUSH4 0x1BEB761A EQ PUSH2 0xD4 JUMPI DUP1 PUSH4 0x1C7D5C42 EQ PUSH2 0xF2 JUMPI JUMPDEST PUSH1 0x0 DUP1 REVERT JUMPDEST PUSH2 0xA0 PUSH2 0x1B6 JUMP JUMPDEST PUSH1 0x40 MLOAD PUSH2 0xAD SWAP2 SWAP1 PUSH2 0x6B1 JUMP JUMPDEST PUSH1 0x40 MLOAD DUP1 SWAP2 SUB SWAP1 RETURN JUMPDEST PUSH2 0xBE PUSH2 0x251 JUMP JUMPDEST PUSH1 0x40 MLOAD PUSH2 0xCB SWAP2 SWAP1 PUSH2 0x6EC JUMP JUMPDEST PUSH1 0x40 MLOAD DUP1 SWAP2 SUB SWAP1 RETURN JUMPDEST PUSH2 0xDC PUSH2 0x2E8 JUMP JUMPDEST PUSH1 0x40 MLOAD PUSH2 0xE9 SWAP2 SWAP1 PUSH2 0x6EC JUMP JUMPDEST PUSH1 0x40 MLOAD DUP1 SWAP2 SUB SWAP1 RETURN JUMPDEST PUSH2 0xFA PUSH2 0x380 JUMP JUMPDEST PUSH1 0x40 MLOAD PUSH2 0x107 SWAP2 SWAP1 PUSH2 0x748 JUMP JUMPDEST PUSH1 0x40 MLOAD DUP1 SWAP2 SUB SWAP1 RETURN JUMPDEST PUSH2 0x118 PUSH2 0x3A9 JUMP JUMPDEST PUSH1 0x40 MLOAD PUSH2 0x125 SWAP2 SWAP1 PUSH2 0x748 JUMP JUMPDEST PUSH1 0x40 MLOAD DUP1 SWAP2 SUB SWAP1 RETURN JUMPDEST PUSH2 0x136 PUSH2 0x440 JUMP JUMPDEST PUSH1 0x40 MLOAD PUSH2 0x143 SWAP2 SWAP1 PUSH2 0x748 JUMP JUMPDEST PUSH1 0x40 MLOAD DUP1 SWAP2 SUB SWAP1 RETURN JUMPDEST PUSH2 0x166 PUSH1 0x4 DUP1 CALLDATASIZE SUB DUP2 ADD SWAP1 PUSH2 0x161 SWAP2 SWAP1 PUSH2 0x7A3 JUMP JUMPDEST PUSH2 0x4D7 JUMP JUMPDEST STOP JUMPDEST PUSH2 0x182 PUSH1 0x4 DUP1 CALLDATASIZE SUB DUP2 ADD SWAP1 PUSH2 0x17D SWAP2 SWAP1 PUSH2 0x7FC JUMP JUMPDEST PUSH2 0x567 JUMP JUMPDEST PUSH1 0x40 MLOAD PUSH2 0x18F SWAP2 SWAP1 PUSH2 0x6EC JUMP JUMPDEST PUSH1 0x40 MLOAD DUP1 SWAP2 SUB SWAP1 RETURN JUMPDEST PUSH2 0x1A0 PUSH2 0x5E4 JUMP JUMPDEST PUSH1 0x40 MLOAD PUSH2 0x1AD SWAP2 SWAP1 PUSH2 0x6B1 JUMP JUMPDEST PUSH1 0x40 MLOAD DUP1 SWAP2 SUB SWAP1 RETURN JUMPDEST PUSH1 0x60 PUSH1 0x0 DUP1 SLOAD SWAP1 PUSH2 0x100 EXP SWAP1 DIV PUSH20 0xFFFFFFFFFFFFFFFFFFFFFFFFFFFFFFFFFFFFFFFF AND PUSH20 0xFFFFFFFFFFFFFFFFFFFFFFFFFFFFFFFFFFFFFFFF AND PUSH4 0x4D2E03A0 PUSH1 0x40 MLOAD DUP2 PUSH4 0xFFFFFFFF AND PUSH1 0xE0 SHL DUP2 MSTORE PUSH1 0x4 ADD PUSH1 0x0 PUSH1 0x40 MLOAD DUP1 DUP4 SUB DUP2 DUP7 GAS STATICCALL ISZERO DUP1 ISZERO PUSH2 0x223 JUMPI RETURNDATASIZE PUSH1 0x0 DUP1 RETURNDATACOPY RETURNDATASIZE PUSH1 0x0 REVERT JUMPDEST POP POP POP POP PUSH1 0x40 MLOAD RETURNDATASIZE PUSH1 0x0 DUP3 RETURNDATACOPY RETURNDATASIZE PUSH1 0x1F NOT PUSH1 0x1F DUP3 ADD AND DUP3 ADD DUP1 PUSH1 0x40 MSTORE POP DUP2 ADD SWAP1 PUSH2 0x24C SWAP2 SWAP1 PUSH2 0x94F JUMP JUMPDEST SWAP1 POP SWAP1 JUMP JUMPDEST PUSH1 0x0 DUP1 PUSH1 0x0 SWAP1 SLOAD SWAP1 PUSH2 0x100 EXP SWAP1 DIV PUSH20 0xFFFFFFFFFFFFFFFFFFFFFFFFFFFFFFFFFFFFFFFF AND PUSH20 0xFFFFFFFFFFFFFFFFFFFFFFFFFFFFFFFFFFFFFFFF AND PUSH4 0x521EB273 PUSH1 0x40 MLOAD DUP2 PUSH4 0xFFFFFFFF AND PUSH1 0xE0 SHL DUP2 MSTORE PUSH1 0x4 ADD PUSH1 0x20 PUSH1 0x40 MLOAD DUP1 DUP4 SUB DUP2 DUP7 GAS STATICCALL ISZERO DUP1 ISZERO PUSH2 0x2BF JUMPI RETURNDATASIZE PUSH1 0x0 DUP1 RETURNDATACOPY RETURNDATASIZE PUSH1 0x0 REVERT JUMPDEST POP POP POP POP PUSH1 0x40 MLOAD RETURNDATASIZE PUSH1 0x1F NOT PUSH1 0x1F DUP3 ADD AND DUP3 ADD DUP1 PUSH1 0x40 MSTORE POP DUP2 ADD SWAP1 PUSH2 0x2E3 SWAP2 SWAP1 PUSH2 0x9AD JUMP JUMPDEST SWAP1 POP SWAP1 JUMP JUMPDEST PUSH1 0x0 PUSH1 0x1 PUSH1 0x0 SWAP1 SLOAD SWAP1 PUSH2 0x100 EXP SWAP1 DIV PUSH20 0xFFFFFFFFFFFFFFFFFFFFFFFFFFFFFFFFFFFFFFFF AND PUSH20 0xFFFFFFFFFFFFFFFFFFFFFFFFFFFFFFFFFFFFFFFF AND PUSH4 0x521EB273 PUSH1 0x40 MLOAD DUP2 PUSH4 0xFFFFFFFF AND PUSH1 0xE0 SHL DUP2 MSTORE PUSH1 0x4 ADD PUSH1 0x20 PUSH1 0x40 MLOAD DUP1 DUP4 SUB DUP2 DUP7 GAS STATICCALL ISZERO DUP1 ISZERO PUSH2 0x357 JUMPI RETURNDATASIZE PUSH1 0x0 DUP1 RETURNDATACOPY RETURNDATASIZE PUSH1 0x0 REVERT JUMPDEST POP POP POP POP PUSH1 0x40 MLOAD RETURNDATASIZE PUSH1 0x1F NOT PUSH1 0x1F DUP3 ADD AND DUP3 ADD DUP1 PUSH1 0x40 MSTORE POP DUP2 ADD SWAP1 PUSH2 0x37B SWAP2 SWAP1 PUSH2 0x9AD JUMP JUMPDEST SWAP1 POP SWAP1 JUMP JUMPDEST PUSH1 0x0 DUP1 PUSH1 0x0 SWAP1 SLOAD SWAP1 PUSH2 0x100 EXP SWAP1 DIV PUSH20 0xFFFFFFFFFFFFFFFFFFFFFFFFFFFFFFFFFFFFFFFF AND SWAP1 POP SWAP1 JUMP JUMPDEST PUSH1 0x0 DUP1 PUSH1 0x0 SWAP1 SLOAD SWAP1 PUSH2 0x100 EXP SWAP1 DIV PUSH20 0xFFFFFFFFFFFFFFFFFFFFFFFFFFFFFFFFFFFFFFFF AND PUSH20 0xFFFFFFFFFFFFFFFFFFFFFFFFFFFFFFFFFFFFFFFF AND PUSH4 0x38CC4831 PUSH1 0x40 MLOAD DUP2 PUSH4 0xFFFFFFFF AND PUSH1 0xE0 SHL DUP2 MSTORE PUSH1 0x4 ADD PUSH1 0x20 PUSH1 0x40 MLOAD DUP1 DUP4 SUB DUP2 DUP7 GAS STATICCALL ISZERO DUP1 ISZERO PUSH2 0x417 JUMPI RETURNDATASIZE PUSH1 0x0 DUP1 RETURNDATACOPY RETURNDATASIZE PUSH1 0x0 REVERT JUMPDEST POP POP POP POP PUSH1 0x40 MLOAD RETURNDATASIZE PUSH1 0x1F NOT PUSH1 0x1F DUP3 ADD AND DUP3 ADD DUP1 PUSH1 0x40 MSTORE POP DUP2 ADD SWAP1 PUSH2 0x43B SWAP2 SWAP1 PUSH2 0x9EF JUMP JUMPDEST SWAP1 POP SWAP1 JUMP JUMPDEST PUSH1 0x0 DUP1 PUSH1 0x0 SWAP1 SLOAD SWAP1 PUSH2 0x100 EXP SWAP1 DIV PUSH20 0xFFFFFFFFFFFFFFFFFFFFFFFFFFFFFFFFFFFFFFFF AND PUSH20 0xFFFFFFFFFFFFFFFFFFFFFFFFFFFFFFFFFFFFFFFF AND PUSH4 0x7A6CE2E1 PUSH1 0x40 MLOAD DUP2 PUSH4 0xFFFFFFFF AND PUSH1 0xE0 SHL DUP2 MSTORE PUSH1 0x4 ADD PUSH1 0x20 PUSH1 0x40 MLOAD DUP1 DUP4 SUB DUP2 DUP7 GAS STATICCALL ISZERO DUP1 ISZERO PUSH2 0x4AE JUMPI RETURNDATASIZE PUSH1 0x0 DUP1 RETURNDATACOPY RETURNDATASIZE PUSH1 0x0 REVERT JUMPDEST POP POP POP POP PUSH1 0x40 MLOAD RETURNDATASIZE PUSH1 0x1F NOT PUSH1 0x1F DUP3 ADD AND DUP3 ADD DUP1 PUSH1 0x40 MSTORE POP DUP2 ADD SWAP1 PUSH2 0x4D2 SWAP2 SWAP1 PUSH2 0x9EF JUMP JUMPDEST SWAP1 POP SWAP1 JUMP JUMPDEST PUSH1 0x1 PUSH1 0x0 SWAP1 SLOAD SWAP1 PUSH2 0x100 EXP SWAP1 DIV PUSH20 0xFFFFFFFFFFFFFFFFFFFFFFFFFFFFFFFFFFFFFFFF AND PUSH20 0xFFFFFFFFFFFFFFFFFFFFFFFFFFFFFFFFFFFFFFFF AND PUSH4 0xFB22F715 DUP3 PUSH1 0x40 MLOAD DUP3 PUSH4 0xFFFFFFFF AND PUSH1 0xE0 SHL DUP2 MSTORE PUSH1 0x4 ADD PUSH2 0x532 SWAP2 SWAP1 PUSH2 0x6EC JUMP JUMPDEST PUSH1 0x0 PUSH1 0x40 MLOAD DUP1 DUP4 SUB DUP2 PUSH1 0x0 DUP8 DUP1 EXTCODESIZE ISZERO DUP1 ISZERO PUSH2 0x54C JUMPI PUSH1 0x0 DUP1 REVERT JUMPDEST POP GAS CALL ISZERO DUP1 ISZERO PUSH2 0x560 JUMPI RETURNDATASIZE PUSH1 0x0 DUP1 RETURNDATACOPY RETURNDATASIZE PUSH1 0x0 REVERT JUMPDEST POP POP POP POP POP JUMP JUMPDEST PUSH1 0x0 DUP1 DUP3 SWAP1 POP DUP1 PUSH20 0xFFFFFFFFFFFFFFFFFFFFFFFFFFFFFFFFFFFFFFFF AND PUSH4 0x521EB273 PUSH1 0x40 MLOAD DUP2 PUSH4 0xFFFFFFFF AND PUSH1 0xE0 SHL DUP2 MSTORE PUSH1 0x4 ADD PUSH1 0x20 PUSH1 0x40 MLOAD DUP1 DUP4 SUB DUP2 DUP7 GAS STATICCALL ISZERO DUP1 ISZERO PUSH2 0x5B8 JUMPI RETURNDATASIZE PUSH1 0x0 DUP1 RETURNDATACOPY RETURNDATASIZE PUSH1 0x0 REVERT JUMPDEST POP POP POP POP PUSH1 0x40 MLOAD RETURNDATASIZE PUSH1 0x1F NOT PUSH1 0x1F DUP3 ADD AND DUP3 ADD DUP1 PUSH1 0x40 MSTORE POP DUP2 ADD SWAP1 PUSH2 0x5DC SWAP2 SWAP1 PUSH2 0x9AD JUMP JUMPDEST SWAP2 POP POP SWAP2 SWAP1 POP JUMP JUMPDEST PUSH1 0x60 PUSH1 0x40 MLOAD DUP1 PUSH1 0x40 ADD PUSH1 0x40 MSTORE DUP1 PUSH1 0xC DUP2 MSTORE PUSH1 0x20 ADD PUSH32 0x6D6F6D2066726F6D204D4F4D0000000000000000000000000000000000000000 DUP2 MSTORE POP SWAP1 POP SWAP1 JUMP JUMPDEST PUSH1 0x0 DUP2 MLOAD SWAP1 POP SWAP2 SWAP1 POP JUMP JUMPDEST PUSH1 0x0 DUP3 DUP3 MSTORE PUSH1 0x20 DUP3 ADD SWAP1 POP SWAP3 SWAP2 POP POP JUMP JUMPDEST PUSH1 0x0 JUMPDEST DUP4 DUP2 LT ISZERO PUSH2 0x65B JUMPI DUP1 DUP3 ADD MLOAD DUP2 DUP5 ADD MSTORE PUSH1 0x20 DUP2 ADD SWAP1 POP PUSH2 0x640 JUMP JUMPDEST PUSH1 0x0 DUP5 DUP5 ADD MSTORE POP POP POP POP JUMP JUMPDEST PUSH1 0x0 PUSH1 0x1F NOT PUSH1 0x1F DUP4 ADD AND SWAP1 POP SWAP2 SWAP1 POP JUMP JUMPDEST PUSH1 0x0 PUSH2 0x683 DUP3 PUSH2 0x621 JUMP JUMPDEST PUSH2 0x68D DUP2 DUP6 PUSH2 0x62C JUMP JUMPDEST SWAP4 POP PUSH2 0x69D DUP2 DUP6 PUSH1 0x20 DUP7 ADD PUSH2 0x63D JUMP JUMPDEST PUSH2 0x6A6 DUP2 PUSH2 0x667 JUMP JUMPDEST DUP5 ADD SWAP2 POP POP SWAP3 SWAP2 POP POP JUMP JUMPDEST PUSH1 0x0 PUSH1 0x20 DUP3 ADD SWAP1 POP DUP2 DUP2 SUB PUSH1 0x0 DUP4 ADD MSTORE PUSH2 0x6CB DUP2 DUP5 PUSH2 0x678 JUMP JUMPDEST SWAP1 POP SWAP3 SWAP2 POP POP JUMP JUMPDEST PUSH1 0x0 DUP2 SWAP1 POP SWAP2 SWAP1 POP JUMP JUMPDEST PUSH2 0x6E6 DUP2 PUSH2 0x6D3 JUMP JUMPDEST DUP3 MSTORE POP POP JUMP JUMPDEST PUSH1 0x0 PUSH1 0x20 DUP3 ADD SWAP1 POP PUSH2 0x701 PUSH1 0x0 DUP4 ADD DUP5 PUSH2 0x6DD JUMP JUMPDEST SWAP3 SWAP2 POP POP JUMP JUMPDEST PUSH1 0x0 PUSH20 0xFFFFFFFFFFFFFFFFFFFFFFFFFFFFFFFFFFFFFFFF DUP3 AND SWAP1 POP SWAP2 SWAP1 POP JUMP JUMPDEST PUSH1 0x0 PUSH2 0x732 DUP3 PUSH2 0x707 JUMP JUMPDEST SWAP1 POP SWAP2 SWAP1 POP JUMP JUMPDEST PUSH2 0x742 DUP2 PUSH2 0x727 JUMP JUMPDEST DUP3 MSTORE POP POP JUMP JUMPDEST PUSH1 0x0 PUSH1 0x20 DUP3 ADD SWAP1 POP PUSH2 0x75D PUSH1 0x0 DUP4 ADD DUP5 PUSH2 0x739 JUMP JUMPDEST SWAP3 SWAP2 POP POP JUMP JUMPDEST PUSH1 0x0 PUSH1 0x40 MLOAD SWAP1 POP SWAP1 JUMP JUMPDEST PUSH1 0x0 DUP1 REVERT JUMPDEST PUSH1 0x0 DUP1 REVERT JUMPDEST PUSH2 0x780 DUP2 PUSH2 0x6D3 JUMP JUMPDEST DUP2 EQ PUSH2 0x78B JUMPI PUSH1 0x0 DUP1 REVERT JUMPDEST POP JUMP JUMPDEST PUSH1 0x0 DUP2 CALLDATALOAD SWAP1 POP PUSH2 0x79D DUP2 PUSH2 0x777 JUMP JUMPDEST SWAP3 SWAP2 POP POP JUMP JUMPDEST PUSH1 0x0 PUSH1 0x20 DUP3 DUP5 SUB SLT ISZERO PUSH2 0x7B9 JUMPI PUSH2 0x7B8 PUSH2 0x76D JUMP JUMPDEST JUMPDEST PUSH1 0x0 PUSH2 0x7C7 DUP5 DUP3 DUP6 ADD PUSH2 0x78E JUMP JUMPDEST SWAP2 POP POP SWAP3 SWAP2 POP POP JUMP JUMPDEST PUSH2 0x7D9 DUP2 PUSH2 0x727 JUMP JUMPDEST DUP2 EQ PUSH2 0x7E4 JUMPI PUSH1 0x0 DUP1 REVERT JUMPDEST POP JUMP JUMPDEST PUSH1 0x0 DUP2 CALLDATALOAD SWAP1 POP PUSH2 0x7F6 DUP2 PUSH2 0x7D0 JUMP JUMPDEST SWAP3 SWAP2 POP POP JUMP JUMPDEST PUSH1 0x0 PUSH1 0x20 DUP3 DUP5 SUB SLT ISZERO PUSH2 0x812 JUMPI PUSH2 0x811 PUSH2 0x76D JUMP JUMPDEST JUMPDEST PUSH1 0x0 PUSH2 0x820 DUP5 DUP3 DUP6 ADD PUSH2 0x7E7 JUMP JUMPDEST SWAP2 POP POP SWAP3 SWAP2 POP POP JUMP JUMPDEST PUSH1 0x0 DUP1 REVERT JUMPDEST PUSH1 0x0 DUP1 REVERT JUMPDEST PUSH32 0x4E487B7100000000000000000000000000000000000000000000000000000000 PUSH1 0x0 MSTORE PUSH1 0x41 PUSH1 0x4 MSTORE PUSH1 0x24 PUSH1 0x0 REVERT JUMPDEST PUSH2 0x86B DUP3 PUSH2 0x667 JUMP JUMPDEST DUP2 ADD DUP2 DUP2 LT PUSH8 0xFFFFFFFFFFFFFFFF DUP3 GT OR ISZERO PUSH2 0x88A JUMPI PUSH2 0x889 PUSH2 0x833 JUMP JUMPDEST JUMPDEST DUP1 PUSH1 0x40 MSTORE POP POP POP JUMP JUMPDEST PUSH1 0x0 PUSH2 0x89D PUSH2 0x763 JUMP JUMPDEST SWAP1 POP PUSH2 0x8A9 DUP3 DUP3 PUSH2 0x862 JUMP JUMPDEST SWAP2 SWAP1 POP JUMP JUMPDEST PUSH1 0x0 PUSH8 0xFFFFFFFFFFFFFFFF DUP3 GT ISZERO PUSH2 0x8C9 JUMPI PUSH2 0x8C8 PUSH2 0x833 JUMP JUMPDEST JUMPDEST PUSH2 0x8D2 DUP3 PUSH2 0x667 JUMP JUMPDEST SWAP1 POP PUSH1 0x20 DUP2 ADD SWAP1 POP SWAP2 SWAP1 POP JUMP JUMPDEST PUSH1 0x0 PUSH2 0x8F2 PUSH2 0x8ED DUP5 PUSH2 0x8AE JUMP JUMPDEST PUSH2 0x893 JUMP JUMPDEST SWAP1 POP DUP3 DUP2 MSTORE PUSH1 0x20 DUP2 ADD DUP5 DUP5 DUP5 ADD GT ISZERO PUSH2 0x90E JUMPI PUSH2 0x90D PUSH2 0x82E JUMP JUMPDEST JUMPDEST PUSH2 0x919 DUP5 DUP3 DUP6 PUSH2 0x63D JUMP JUMPDEST POP SWAP4 SWAP3 POP POP POP JUMP JUMPDEST PUSH1 0x0 DUP3 PUSH1 0x1F DUP4 ADD SLT PUSH2 0x936 JUMPI PUSH2 0x935 PUSH2 0x829 JUMP JUMPDEST JUMPDEST DUP2 MLOAD PUSH2 0x946 DUP5 DUP3 PUSH1 0x20 DUP7 ADD PUSH2 0x8DF JUMP JUMPDEST SWAP2 POP POP SWAP3 SWAP2 POP POP JUMP JUMPDEST PUSH1 0x0 PUSH1 0x20 DUP3 DUP5 SUB SLT ISZERO PUSH2 0x965 JUMPI PUSH2 0x964 PUSH2 0x76D JUMP JUMPDEST JUMPDEST PUSH1 0x0 DUP3 ADD MLOAD PUSH8 0xFFFFFFFFFFFFFFFF DUP2 GT ISZERO PUSH2 0x983 JUMPI PUSH2 0x982 PUSH2 0x772 JUMP JUMPDEST JUMPDEST PUSH2 0x98F DUP5 DUP3 DUP6 ADD PUSH2 0x921 JUMP JUMPDEST SWAP2 POP POP SWAP3 SWAP2 POP POP JUMP JUMPDEST PUSH1 0x0 DUP2 MLOAD SWAP1 POP PUSH2 0x9A7 DUP2 PUSH2 0x777 JUMP JUMPDEST SWAP3 SWAP2 POP POP JUMP JUMPDEST PUSH1 0x0 PUSH1 0x20 DUP3 DUP5 SUB SLT ISZERO PUSH2 0x9C3 JUMPI PUSH2 0x9C2 PUSH2 0x76D JUMP JUMPDEST JUMPDEST PUSH1 0x0 PUSH2 0x9D1 DUP5 DUP3 DUP6 ADD PUSH2 0x998 JUMP JUMPDEST SWAP2 POP POP SWAP3 SWAP2 POP POP JUMP JUMPDEST PUSH1 0x0 DUP2 MLOAD SWAP1 POP PUSH2 0x9E9 DUP2 PUSH2 0x7D0 JUMP JUMPDEST SWAP3 SWAP2 POP POP JUMP JUMPDEST PUSH1 0x0 PUSH1 0x20 DUP3 DUP5 SUB SLT ISZERO PUSH2 0xA05 JUMPI PUSH2 0xA04 PUSH2 0x76D JUMP JUMPDEST JUMPDEST PUSH1 0x0 PUSH2 0xA13 DUP5 DUP3 DUP6 ADD PUSH2 0x9DA JUMP JUMPDEST SWAP2 POP POP SWAP3 SWAP2 POP POP JUMP INVALID LOG2 PUSH5 0x6970667358 0x22 SLT KECCAK256 PUSH18 0x23895E48C9705DA67EEC713A471EF289AD18 REVERT 0xBE 0xF7 0xD0 COINBASE RETURNDATASIZE CALLCODE DUP12 0xAA 0xE8 RETURNDATASIZE SWAP9 CALLVALUE PUSH5 0x736F6C6343 STOP ADDMOD SLT STOP CALLER PUSH1 0x80 PUSH1 0x40 MSTORE PUSH1 0x64 PUSH1 0x1 SSTORE PUSH2 0x3E8 PUSH1 0x2 SSTORE PUSH2 0x2710 PUSH1 0x3 SSTORE CALLVALUE DUP1 ISZERO PUSH2 0x21 JUMPI PUSH1 0x0 DUP1 REVERT JUMPDEST POP PUSH2 0x389 DUP1 PUSH2 0x31 PUSH1 0x0 CODECOPY PUSH1 0x0 RETURN INVALID PUSH1 0x80 PUSH1 0x40 MSTORE CALLVALUE DUP1 ISZERO PUSH2 0x10 JUMPI PUSH1 0x0 DUP1 REVERT JUMPDEST POP PUSH1 0x4 CALLDATASIZE LT PUSH2 0x62 JUMPI PUSH1 0x0 CALLDATALOAD PUSH1 0xE0 SHR DUP1 PUSH4 0x38CC4831 EQ PUSH2 0x67 JUMPI DUP1 PUSH4 0x4D2E03A0 EQ PUSH2 0x85 JUMPI DUP1 PUSH4 0x521EB273 EQ PUSH2 0xA3 JUMPI DUP1 PUSH4 0x7A6CE2E1 EQ PUSH2 0xC1 JUMPI DUP1 PUSH4 0xD6D21DFD EQ PUSH2 0xDF JUMPI DUP1 PUSH4 0xFB22F715 EQ PUSH2 0xFD JUMPI JUMPDEST PUSH1 0x0 DUP1 REVERT JUMPDEST PUSH2 0x6F PUSH2 0x119 JUMP JUMPDEST PUSH1 0x40 MLOAD PUSH2 0x7C SWAP2 SWAP1 PUSH2 0x1F4 JUMP JUMPDEST PUSH1 0x40 MLOAD DUP1 SWAP2 SUB SWAP1 RETURN JUMPDEST PUSH2 0x8D PUSH2 0x121 JUMP JUMPDEST PUSH1 0x40 MLOAD PUSH2 0x9A SWAP2 SWAP1 PUSH2 0x29F JUMP JUMPDEST PUSH1 0x40 MLOAD DUP1 SWAP2 SUB SWAP1 RETURN JUMPDEST PUSH2 0xAB PUSH2 0x15E JUMP JUMPDEST PUSH1 0x40 MLOAD PUSH2 0xB8 SWAP2 SWAP1 PUSH2 0x2DA JUMP JUMPDEST PUSH1 0x40 MLOAD DUP1 SWAP2 SUB SWAP1 RETURN JUMPDEST PUSH2 0xC9 PUSH2 0x164 JUMP JUMPDEST PUSH1 0x40 MLOAD PUSH2 0xD6 SWAP2 SWAP1 PUSH2 0x1F4 JUMP JUMPDEST PUSH1 0x40 MLOAD DUP1 SWAP2 SUB SWAP1 RETURN JUMPDEST PUSH2 0xE7 PUSH2 0x16C JUMP JUMPDEST PUSH1 0x40 MLOAD PUSH2 0xF4 SWAP2 SWAP1 PUSH2 0x29F JUMP JUMPDEST PUSH1 0x40 MLOAD DUP1 SWAP2 SUB SWAP1 RETURN JUMPDEST PUSH2 0x117 PUSH1 0x4 DUP1 CALLDATASIZE SUB DUP2 ADD SWAP1 PUSH2 0x112 SWAP2 SWAP1 PUSH2 0x326 JUMP JUMPDEST PUSH2 0x1A9 JUMP JUMPDEST STOP JUMPDEST PUSH1 0x0 ADDRESS SWAP1 POP SWAP1 JUMP JUMPDEST PUSH1 0x60 PUSH1 0x40 MLOAD DUP1 PUSH1 0x40 ADD PUSH1 0x40 MSTORE DUP1 PUSH1 0x8 DUP2 MSTORE PUSH1 0x20 ADD PUSH32 0x6E6F7420676F6F64000000000000000000000000000000000000000000000000 DUP2 MSTORE POP SWAP1 POP SWAP1 JUMP JUMPDEST PUSH1 0x1 SLOAD DUP2 JUMP JUMPDEST PUSH1 0x0 CALLER SWAP1 POP SWAP1 JUMP JUMPDEST PUSH1 0x60 PUSH1 0x40 MLOAD DUP1 PUSH1 0x40 ADD PUSH1 0x40 MSTORE DUP1 PUSH1 0xC DUP2 MSTORE PUSH1 0x20 ADD PUSH32 0x6461642066726F6D204441440000000000000000000000000000000000000000 DUP2 MSTORE POP SWAP1 POP SWAP1 JUMP JUMPDEST DUP1 PUSH1 0x1 DUP2 SWAP1 SSTORE POP POP JUMP JUMPDEST PUSH1 0x0 PUSH20 0xFFFFFFFFFFFFFFFFFFFFFFFFFFFFFFFFFFFFFFFF DUP3 AND SWAP1 POP SWAP2 SWAP1 POP JUMP JUMPDEST PUSH1 0x0 PUSH2 0x1DE DUP3 PUSH2 0x1B3 JUMP JUMPDEST SWAP1 POP SWAP2 SWAP1 POP JUMP JUMPDEST PUSH2 0x1EE DUP2 PUSH2 0x1D3 JUMP JUMPDEST DUP3 MSTORE POP POP JUMP JUMPDEST PUSH1 0x0 PUSH1 0x20 DUP3 ADD SWAP1 POP PUSH2 0x209 PUSH1 0x0 DUP4 ADD DUP5 PUSH2 0x1E5 JUMP JUMPDEST SWAP3 SWAP2 POP POP JUMP JUMPDEST PUSH1 0x0 DUP2 MLOAD SWAP1 POP SWAP2 SWAP1 POP JUMP JUMPDEST PUSH1 0x0 DUP3 DUP3 MSTORE PUSH1 0x20 DUP3 ADD SWAP1 POP SWAP3 SWAP2 POP POP JUMP JUMPDEST PUSH1 0x0 JUMPDEST DUP4 DUP2 LT ISZERO PUSH2 0x249 JUMPI DUP1 DUP3 ADD MLOAD DUP2 DUP5 ADD MSTORE PUSH1 0x20 DUP2 ADD SWAP1 POP PUSH2 0x22E JUMP JUMPDEST PUSH1 0x0 DUP5 DUP5 ADD MSTORE POP POP POP POP JUMP JUMPDEST PUSH1 0x0 PUSH1 0x1F NOT PUSH1 0x1F DUP4 ADD AND SWAP1 POP SWAP2 SWAP1 POP JUMP JUMPDEST PUSH1 0x0 PUSH2 0x271 DUP3 PUSH2 0x20F JUMP JUMPDEST PUSH2 0x27B DUP2 DUP6 PUSH2 0x21A JUMP JUMPDEST SWAP4 POP PUSH2 0x28B DUP2 DUP6 PUSH1 0x20 DUP7 ADD PUSH2 0x22B JUMP JUMPDEST PUSH2 0x294 DUP2 PUSH2 0x255 JUMP JUMPDEST DUP5 ADD SWAP2 POP POP SWAP3 SWAP2 POP POP JUMP JUMPDEST PUSH1 0x0 PUSH1 0x20 DUP3 ADD SWAP1 POP DUP2 DUP2 SUB PUSH1 0x0 DUP4 ADD MSTORE PUSH2 0x2B9 DUP2 DUP5 PUSH2 0x266 JUMP JUMPDEST SWAP1 POP SWAP3 SWAP2 POP POP JUMP JUMPDEST PUSH1 0x0 DUP2 SWAP1 POP SWAP2 SWAP1 POP JUMP JUMPDEST PUSH2 0x2D4 DUP2 PUSH2 0x2C1 JUMP JUMPDEST DUP3 MSTORE POP POP JUMP JUMPDEST PUSH1 0x0 PUSH1 0x20 DUP3 ADD SWAP1 POP PUSH2 0x2EF PUSH1 0x0 DUP4 ADD DUP5 PUSH2 0x2CB JUMP JUMPDEST SWAP3 SWAP2 POP POP JUMP JUMPDEST PUSH1 0x0 DUP1 REVERT JUMPDEST PUSH2 0x303 DUP2 PUSH2 0x2C1 JUMP JUMPDEST DUP2 EQ PUSH2 0x30E JUMPI PUSH1 0x0 DUP1 REVERT JUMPDEST POP JUMP JUMPDEST PUSH1 0x0 DUP2 CALLDATALOAD SWAP1 POP PUSH2 0x320 DUP2 PUSH2 0x2FA JUMP JUMPDEST SWAP3 SWAP2 POP POP JUMP JUMPDEST PUSH1 0x0 PUSH1 0x20 DUP3 DUP5 SUB SLT ISZERO PUSH2 0x33C JUMPI PUSH2 0x33B PUSH2 0x2F5 JUMP JUMPDEST JUMPDEST PUSH1 0x0 PUSH2 0x34A DUP5 DUP3 DUP6 ADD PUSH2 0x311 JUMP JUMPDEST SWAP2 POP POP SWAP3 SWAP2 POP POP JUMP INVALID LOG2 PUSH5 0x6970667358 0x22 SLT KECCAK256 0x1E BASEFEE 0xC2 PUSH6 0xD58D8685C4A8 0xF8 0xD4 PUSH11 0xF3A8FAEBF5F2800CE63713 ADD CALLDATASIZE 0x4F PREVRANDAO PUSH12 0x152D664736F6C6343000812 STOP CALLER "
				},
				"gasEstimates": {
					"creation": {
						"codeDepositCost": "528400",
						"executionCost": "infinite",
						"totalCost": "infinite"
					},
					"external": {
						"changeRealWallet(uint256)": "infinite",
						"getHusbandChar()": "infinite",
						"getRealWallet()": "infinite",
						"getWallet()": "infinite",
						"husGetMsgSender()": "infinite",
						"husbandAddress()": "2589",
						"husbandAddress2()": "infinite",
						"trackWallet(address)": "infinite",
						"who()": "infinite"
					}
				},
				"methodIdentifiers": {
					"changeRealWallet(uint256)": "a1f50cb1",
					"getHusbandChar()": "0c304e4b",
					"getRealWallet()": "1beb761a",
					"getWallet()": "13299604",
					"husGetMsgSender()": "7864dfba",
					"husbandAddress()": "1c7d5c42",
					"husbandAddress2()": "74b12a3a",
					"trackWallet(address)": "c709d36c",
					"who()": "d6d21dfd"
				}
			},
			"storageLayout": {
				"storage": [
					{
						"astId": 219,
						"contract": "contracts-lecture/230516-1.sol:MOM",
						"label": "husband",
						"offset": 0,
						"slot": "0",
						"type": "t_contract(DAD)212"
					},
					{
						"astId": 222,
						"contract": "contracts-lecture/230516-1.sol:MOM",
						"label": "realHusband",
						"offset": 0,
						"slot": "1",
						"type": "t_contract(DAD)212"
					}
				],
				"types": {
					"t_contract(DAD)212": {
						"encoding": "inplace",
						"label": "contract DAD",
						"numberOfBytes": "20"
					}
				}
			},
			"userdoc": {
				"kind": "user",
				"methods": {},
				"version": 1
			}
		}
	}
}