{
	"contracts-lecture/230516-1.sol": {
		"CHILD": {
			"abi": [
				{
					"inputs": [
						{
							"internalType": "uint256",
							"name": "_n",
							"type": "uint256"
						}
					],
					"name": "changeWallet",
					"outputs": [],
					"stateMutability": "nonpayable",
					"type": "function"
				},
				{
					"inputs": [],
					"name": "character",
					"outputs": [
						{
							"internalType": "string",
							"name": "",
							"type": "string"
						}
					],
					"stateMutability": "pure",
					"type": "function"
				},
				{
					"inputs": [],
					"name": "dadGetMsgSender",
					"outputs": [
						{
							"internalType": "address",
							"name": "",
							"type": "address"
						}
					],
					"stateMutability": "view",
					"type": "function"
				},
				{
					"inputs": [],
					"name": "daddyGetMsgSender",
					"outputs": [
						{
							"internalType": "address",
							"name": "",
							"type": "address"
						}
					],
					"stateMutability": "view",
					"type": "function"
				},
				{
					"inputs": [],
					"name": "daddyGetMsgSender2",
					"outputs": [
						{
							"internalType": "address",
							"name": "",
							"type": "address"
						}
					],
					"stateMutability": "view",
					"type": "function"
				},
				{
					"inputs": [],
					"name": "fathersAddress",
					"outputs": [
						{
							"internalType": "address",
							"name": "",
							"type": "address"
						}
					],
					"stateMutability": "view",
					"type": "function"
				},
				{
					"inputs": [],
					"name": "fathersAddress2",
					"outputs": [
						{
							"internalType": "address",
							"name": "",
							"type": "address"
						}
					],
					"stateMutability": "view",
					"type": "function"
				},
				{
					"inputs": [],
					"name": "fathersCrypto",
					"outputs": [
						{
							"internalType": "uint256",
							"name": "",
							"type": "uint256"
						}
					],
					"stateMutability": "view",
					"type": "function"
				},
				{
					"inputs": [],
					"name": "fathersName",
					"outputs": [
						{
							"internalType": "string",
							"name": "",
							"type": "string"
						}
					],
					"stateMutability": "pure",
					"type": "function"
				},
				{
					"inputs": [],
					"name": "fathersWallet",
					"outputs": [
						{
							"internalType": "uint256",
							"name": "",
							"type": "uint256"
						}
					],
					"stateMutability": "view",
					"type": "function"
				},
				{
					"inputs": [],
					"name": "fathersWallet2",
					"outputs": [
						{
							"internalType": "uint256",
							"name": "",
							"type": "uint256"
						}
					],
					"stateMutability": "view",
					"type": "function"
				},
				{
					"inputs": [],
					"name": "getAddress",
					"outputs": [
						{
							"internalType": "address",
							"name": "",
							"type": "address"
						}
					],
					"stateMutability": "view",
					"type": "function"
				},
				{
					"inputs": [],
					"name": "getDaddy2Address",
					"outputs": [
						{
							"internalType": "address",
							"name": "",
							"type": "address"
						}
					],
					"stateMutability": "view",
					"type": "function"
				},
				{
					"inputs": [],
					"name": "getDaddy2Address2",
					"outputs": [
						{
							"internalType": "address",
							"name": "",
							"type": "address"
						}
					],
					"stateMutability": "view",
					"type": "function"
				},
				{
					"inputs": [],
					"name": "getDaddyAddress",
					"outputs": [
						{
							"internalType": "address",
							"name": "",
							"type": "address"
						}
					],
					"stateMutability": "view",
					"type": "function"
				},
				{
					"inputs": [],
					"name": "getDaddyAddress2",
					"outputs": [
						{
							"internalType": "address",
							"name": "",
							"type": "address"
						}
					],
					"stateMutability": "view",
					"type": "function"
				},
				{
					"inputs": [],
					"name": "getMsgSender",
					"outputs": [
						{
							"internalType": "address",
							"name": "",
							"type": "address"
						}
					],
					"stateMutability": "view",
					"type": "function"
				},
				{
					"inputs": [],
					"name": "wallet",
					"outputs": [
						{
							"internalType": "uint256",
							"name": "",
							"type": "uint256"
						}
					],
					"stateMutability": "view",
					"type": "function"
				},
				{
					"inputs": [],
					"name": "who",
					"outputs": [
						{
							"internalType": "string",
							"name": "",
							"type": "string"
						}
					],
					"stateMutability": "pure",
					"type": "function"
				}
			],
			"devdoc": {
				"kind": "dev",
				"methods": {},
				"version": 1
			},
			"evm": {
				"assembly": "    /* \"contracts-lecture/230516-1.sol\":3249:5477  contract CHILD is DAD {... */\n  mstore(0x40, 0x80)\n    /* \"contracts-lecture/230516-1.sol\":1022:1025  100 */\n  0x64\n    /* \"contracts-lecture/230516-1.sol\":1003:1025  uint public wallet=100 */\n  0x01\n  sstore\n    /* \"contracts-lecture/230516-1.sol\":1079:1083  1000 */\n  0x03e8\n    /* \"contracts-lecture/230516-1.sol\":1058:1083  uint internal crypto=1000 */\n  0x02\n  sstore\n    /* \"contracts-lecture/230516-1.sol\":1167:1172  10000 */\n  0x2710\n    /* \"contracts-lecture/230516-1.sol\":1144:1172  uint private emergency=10000 */\n  0x03\n  sstore\n    /* \"contracts-lecture/230516-1.sol\":4020:4029  new DAD() */\n  mload(0x40)\n  tag_1\n  swap1\n  tag_2\n  jump\t// in\ntag_1:\n  mload(0x40)\n  dup1\n  swap2\n  sub\n  swap1\n  0x00\n  create\n  dup1\n  iszero\n  dup1\n  iszero\n  tag_3\n  jumpi\n  returndatasize\n  0x00\n  dup1\n  returndatacopy\n  revert(0x00, returndatasize)\ntag_3:\n  pop\n    /* \"contracts-lecture/230516-1.sol\":4008:4029  DAD daddy = new DAD() */\n  0x04\n  exp(0x0100, 0x00)\n  dup2\n  sload\n  dup2\n  0xffffffffffffffffffffffffffffffffffffffff\n  mul\n  not\n  and\n  swap1\n  dup4\n  0xffffffffffffffffffffffffffffffffffffffff\n  and\n  mul\n  or\n  swap1\n  sstore\n  pop\n    /* \"contracts-lecture/230516-1.sol\":4048:4057  new DAD() */\n  mload(0x40)\n  tag_4\n  swap1\n  tag_2\n  jump\t// in\ntag_4:\n  mload(0x40)\n  dup1\n  swap2\n  sub\n  swap1\n  0x00\n  create\n  dup1\n  iszero\n  dup1\n  iszero\n  tag_5\n  jumpi\n  returndatasize\n  0x00\n  dup1\n  returndatacopy\n  revert(0x00, returndatasize)\ntag_5:\n  pop\n    /* \"contracts-lecture/230516-1.sol\":4035:4057  DAD daddy2 = new DAD() */\n  0x05\n  exp(0x0100, 0x00)\n  dup2\n  sload\n  dup2\n  0xffffffffffffffffffffffffffffffffffffffff\n  mul\n  not\n  and\n  swap1\n  dup4\n  0xffffffffffffffffffffffffffffffffffffffff\n  and\n  mul\n  or\n  swap1\n  sstore\n  pop\n    /* \"contracts-lecture/230516-1.sol\":3249:5477  contract CHILD is DAD {... */\n  callvalue\n  dup1\n  iszero\n  tag_6\n  jumpi\n  0x00\n  dup1\n  revert\ntag_6:\n  pop\n  jump(tag_7)\ntag_2:\n  dataSize(sub_1)\n  dup1\n  dataOffset(sub_1)\n  dup4\n  codecopy\n  add\n  swap1\n  jump\t// out\ntag_7:\n  dataSize(sub_0)\n  dup1\n  dataOffset(sub_0)\n  0x00\n  codecopy\n  0x00\n  return\nstop\n\nsub_0: assembly {\n        /* \"contracts-lecture/230516-1.sol\":3249:5477  contract CHILD is DAD {... */\n      mstore(0x40, 0x80)\n      callvalue\n      dup1\n      iszero\n      tag_1\n      jumpi\n      0x00\n      dup1\n      revert\n    tag_1:\n      pop\n      jumpi(tag_2, lt(calldatasize, 0x04))\n      shr(0xe0, calldataload(0x00))\n      dup1\n      0x8930e187\n      gt\n      tag_22\n      jumpi\n      dup1\n      0xd6d21dfd\n      gt\n      tag_23\n      jumpi\n      dup1\n      0xd6d21dfd\n      eq\n      tag_17\n      jumpi\n      dup1\n      0xf0e79e29\n      eq\n      tag_18\n      jumpi\n      dup1\n      0xf7b7bb92\n      eq\n      tag_19\n      jumpi\n      dup1\n      0xf9aff3f0\n      eq\n      tag_20\n      jumpi\n      dup1\n      0xfb22f715\n      eq\n      tag_21\n      jumpi\n      jump(tag_2)\n    tag_23:\n      dup1\n      0x8930e187\n      eq\n      tag_12\n      jumpi\n      dup1\n      0xa252a25b\n      eq\n      tag_13\n      jumpi\n      dup1\n      0xbfc8b3bc\n      eq\n      tag_14\n      jumpi\n      dup1\n      0xc2e86e29\n      eq\n      tag_15\n      jumpi\n      dup1\n      0xcb987324\n      eq\n      tag_16\n      jumpi\n      jump(tag_2)\n    tag_22:\n      dup1\n      0x6ef09944\n      gt\n      tag_24\n      jumpi\n      dup1\n      0x6ef09944\n      eq\n      tag_7\n      jumpi\n      dup1\n      0x7a6ce2e1\n      eq\n      tag_8\n      jumpi\n      dup1\n      0x7e498940\n      eq\n      tag_9\n      jumpi\n      dup1\n      0x8149837d\n      eq\n      tag_10\n      jumpi\n      dup1\n      0x8903e812\n      eq\n      tag_11\n      jumpi\n      jump(tag_2)\n    tag_24:\n      dup1\n      0x194fc6ea\n      eq\n      tag_3\n      jumpi\n      dup1\n      0x38cc4831\n      eq\n      tag_4\n      jumpi\n      dup1\n      0x4d2e03a0\n      eq\n      tag_5\n      jumpi\n      dup1\n      0x521eb273\n      eq\n      tag_6\n      jumpi\n    tag_2:\n      0x00\n      dup1\n      revert\n        /* \"contracts-lecture/230516-1.sol\":4172:4276  function daddyGetMsgSender2() public view returns(address) {... */\n    tag_3:\n      tag_25\n      tag_26\n      jump\t// in\n    tag_25:\n      mload(0x40)\n      tag_27\n      swap2\n      swap1\n      tag_28\n      jump\t// in\n    tag_27:\n      mload(0x40)\n      dup1\n      swap2\n      sub\n      swap1\n      return\n        /* \"contracts-lecture/230516-1.sol\":1570:1658  function getAddress() public view returns(address) {... */\n    tag_4:\n      tag_29\n      tag_30\n      jump\t// in\n    tag_29:\n      mload(0x40)\n      tag_31\n      swap2\n      swap1\n      tag_28\n      jump\t// in\n    tag_31:\n      mload(0x40)\n      dup1\n      swap2\n      sub\n      swap1\n      return\n        /* \"contracts-lecture/230516-1.sol\":1472:1564  function character() external pure returns(string memory) {... */\n    tag_5:\n      tag_32\n      tag_33\n      jump\t// in\n    tag_32:\n      mload(0x40)\n      tag_34\n      swap2\n      swap1\n      tag_35\n      jump\t// in\n    tag_34:\n      mload(0x40)\n      dup1\n      swap2\n      sub\n      swap1\n      return\n        /* \"contracts-lecture/230516-1.sol\":1003:1025  uint public wallet=100 */\n    tag_6:\n      tag_36\n      tag_37\n      jump\t// in\n    tag_36:\n      mload(0x40)\n      tag_38\n      swap2\n      swap1\n      tag_39\n      jump\t// in\n    tag_38:\n      mload(0x40)\n      dup1\n      swap2\n      sub\n      swap1\n      return\n        /* \"contracts-lecture/230516-1.sol\":4890:4991  function getDaddy2Address2() public view returns(address) {... */\n    tag_7:\n      tag_40\n      tag_41\n      jump\t// in\n    tag_40:\n      mload(0x40)\n      tag_42\n      swap2\n      swap1\n      tag_28\n      jump\t// in\n    tag_42:\n      mload(0x40)\n      dup1\n      swap2\n      sub\n      swap1\n      return\n        /* \"contracts-lecture/230516-1.sol\":1664:1751  function getMsgSender() public view returns(address) {... */\n    tag_8:\n      tag_43\n      tag_44\n      jump\t// in\n    tag_43:\n      mload(0x40)\n      tag_45\n      swap2\n      swap1\n      tag_28\n      jump\t// in\n    tag_45:\n      mload(0x40)\n      dup1\n      swap2\n      sub\n      swap1\n      return\n        /* \"contracts-lecture/230516-1.sol\":4583:4677  function getDaddyAddress() public view returns(address) {... */\n    tag_9:\n      tag_46\n      tag_47\n      jump\t// in\n    tag_46:\n      mload(0x40)\n      tag_48\n      swap2\n      swap1\n      tag_28\n      jump\t// in\n    tag_48:\n      mload(0x40)\n      dup1\n      swap2\n      sub\n      swap1\n      return\n        /* \"contracts-lecture/230516-1.sol\":3697:3792  function fathersAddress() public view returns(address) {... */\n    tag_10:\n      tag_49\n      tag_50\n      jump\t// in\n    tag_49:\n      mload(0x40)\n      tag_51\n      swap2\n      swap1\n      tag_28\n      jump\t// in\n    tag_51:\n      mload(0x40)\n      dup1\n      swap2\n      sub\n      swap1\n      return\n        /* \"contracts-lecture/230516-1.sol\":4788:4884  function getDaddy2Address() public view returns(address) {... */\n    tag_11:\n      tag_52\n      tag_53\n      jump\t// in\n    tag_52:\n      mload(0x40)\n      tag_54\n      swap2\n      swap1\n      tag_28\n      jump\t// in\n    tag_54:\n      mload(0x40)\n      dup1\n      swap2\n      sub\n      swap1\n      return\n        /* \"contracts-lecture/230516-1.sol\":3902:4002  function dadGetMsgSender() public view returns(address) {... */\n    tag_12:\n      tag_55\n      tag_56\n      jump\t// in\n    tag_55:\n      mload(0x40)\n      tag_57\n      swap2\n      swap1\n      tag_28\n      jump\t// in\n    tag_57:\n      mload(0x40)\n      dup1\n      swap2\n      sub\n      swap1\n      return\n        /* \"contracts-lecture/230516-1.sol\":4064:4166  function daddyGetMsgSender() public view returns(address) {... */\n    tag_13:\n      tag_58\n      tag_59\n      jump\t// in\n    tag_58:\n      mload(0x40)\n      tag_60\n      swap2\n      swap1\n      tag_28\n      jump\t// in\n    tag_60:\n      mload(0x40)\n      dup1\n      swap2\n      sub\n      swap1\n      return\n        /* \"contracts-lecture/230516-1.sol\":3415:3509  function fathersName() public pure returns(string memory) {... */\n    tag_14:\n      tag_61\n      tag_62\n      jump\t// in\n    tag_61:\n      mload(0x40)\n      tag_63\n      swap2\n      swap1\n      tag_35\n      jump\t// in\n    tag_63:\n      mload(0x40)\n      dup1\n      swap2\n      sub\n      swap1\n      return\n        /* \"contracts-lecture/230516-1.sol\":3515:3600  function fathersWallet() public view returns(uint) {... */\n    tag_15:\n      tag_64\n      tag_65\n      jump\t// in\n    tag_64:\n      mload(0x40)\n      tag_66\n      swap2\n      swap1\n      tag_39\n      jump\t// in\n    tag_66:\n      mload(0x40)\n      dup1\n      swap2\n      sub\n      swap1\n      return\n        /* \"contracts-lecture/230516-1.sol\":4683:4782  function getDaddyAddress2() public view returns(address) {... */\n    tag_16:\n      tag_67\n      tag_68\n      jump\t// in\n    tag_67:\n      mload(0x40)\n      tag_69\n      swap2\n      swap1\n      tag_28\n      jump\t// in\n    tag_69:\n      mload(0x40)\n      dup1\n      swap2\n      sub\n      swap1\n      return\n        /* \"contracts-lecture/230516-1.sol\":3277:3409  function who() override public pure returns(string memory) {... */\n    tag_17:\n      tag_70\n      tag_71\n      jump\t// in\n    tag_70:\n      mload(0x40)\n      tag_72\n      swap2\n      swap1\n      tag_35\n      jump\t// in\n    tag_72:\n      mload(0x40)\n      dup1\n      swap2\n      sub\n      swap1\n      return\n        /* \"contracts-lecture/230516-1.sol\":3606:3691  function fathersCrypto() public view returns(uint) {... */\n    tag_18:\n      tag_73\n      tag_74\n      jump\t// in\n    tag_73:\n      mload(0x40)\n      tag_75\n      swap2\n      swap1\n      tag_39\n      jump\t// in\n    tag_75:\n      mload(0x40)\n      dup1\n      swap2\n      sub\n      swap1\n      return\n        /* \"contracts-lecture/230516-1.sol\":3798:3896  function fathersAddress2() public view returns(address) {... */\n    tag_19:\n      tag_76\n      tag_77\n      jump\t// in\n    tag_76:\n      mload(0x40)\n      tag_78\n      swap2\n      swap1\n      tag_28\n      jump\t// in\n    tag_78:\n      mload(0x40)\n      dup1\n      swap2\n      sub\n      swap1\n      return\n        /* \"contracts-lecture/230516-1.sol\":4387:4477  function fathersWallet2() public view returns(uint) {... */\n    tag_20:\n      tag_79\n      tag_80\n      jump\t// in\n    tag_79:\n      mload(0x40)\n      tag_81\n      swap2\n      swap1\n      tag_39\n      jump\t// in\n    tag_81:\n      mload(0x40)\n      dup1\n      swap2\n      sub\n      swap1\n      return\n        /* \"contracts-lecture/230516-1.sol\":1757:1823  function changeWallet(uint _n) public {... */\n    tag_21:\n      tag_82\n      0x04\n      dup1\n      calldatasize\n      sub\n      dup2\n      add\n      swap1\n      tag_83\n      swap2\n      swap1\n      tag_84\n      jump\t// in\n    tag_83:\n      tag_85\n      jump\t// in\n    tag_82:\n      stop\n        /* \"contracts-lecture/230516-1.sol\":4172:4276  function daddyGetMsgSender2() public view returns(address) {... */\n    tag_26:\n        /* \"contracts-lecture/230516-1.sol\":4222:4229  address */\n      0x00\n        /* \"contracts-lecture/230516-1.sol\":4248:4254  daddy2 */\n      0x05\n      0x00\n      swap1\n      sload\n      swap1\n      0x0100\n      exp\n      swap1\n      div\n      0xffffffffffffffffffffffffffffffffffffffff\n      and\n        /* \"contracts-lecture/230516-1.sol\":4248:4267  daddy2.getMsgSender */\n      0xffffffffffffffffffffffffffffffffffffffff\n      and\n      0x7a6ce2e1\n        /* \"contracts-lecture/230516-1.sol\":4248:4269  daddy2.getMsgSender() */\n      mload(0x40)\n      dup2\n      0xffffffff\n      and\n      0xe0\n      shl\n      dup2\n      mstore\n      0x04\n      add\n      0x20\n      mload(0x40)\n      dup1\n      dup4\n      sub\n      dup2\n      dup7\n      gas\n      staticcall\n      iszero\n      dup1\n      iszero\n      tag_88\n      jumpi\n      returndatasize\n      0x00\n      dup1\n      returndatacopy\n      revert(0x00, returndatasize)\n    tag_88:\n      pop\n      pop\n      pop\n      pop\n      mload(0x40)\n      returndatasize\n      not(0x1f)\n      0x1f\n      dup3\n      add\n      and\n      dup3\n      add\n      dup1\n      0x40\n      mstore\n      pop\n      dup2\n      add\n      swap1\n      tag_89\n      swap2\n      swap1\n      tag_90\n      jump\t// in\n    tag_89:\n        /* \"contracts-lecture/230516-1.sol\":4241:4269  return daddy2.getMsgSender() */\n      swap1\n      pop\n        /* \"contracts-lecture/230516-1.sol\":4172:4276  function daddyGetMsgSender2() public view returns(address) {... */\n      swap1\n      jump\t// out\n        /* \"contracts-lecture/230516-1.sol\":1570:1658  function getAddress() public view returns(address) {... */\n    tag_30:\n        /* \"contracts-lecture/230516-1.sol\":1612:1619  address */\n      0x00\n        /* \"contracts-lecture/230516-1.sol\":1646:1650  this */\n      address\n        /* \"contracts-lecture/230516-1.sol\":1631:1651  return address(this) */\n      swap1\n      pop\n        /* \"contracts-lecture/230516-1.sol\":1570:1658  function getAddress() public view returns(address) {... */\n      swap1\n      jump\t// out\n        /* \"contracts-lecture/230516-1.sol\":1472:1564  function character() external pure returns(string memory) {... */\n    tag_33:\n        /* \"contracts-lecture/230516-1.sol\":1515:1528  string memory */\n      0x60\n        /* \"contracts-lecture/230516-1.sol\":1540:1557  return \"not good\" */\n      mload(0x40)\n      dup1\n      0x40\n      add\n      0x40\n      mstore\n      dup1\n      0x08\n      dup2\n      mstore\n      0x20\n      add\n      0x6e6f7420676f6f64000000000000000000000000000000000000000000000000\n      dup2\n      mstore\n      pop\n      swap1\n      pop\n        /* \"contracts-lecture/230516-1.sol\":1472:1564  function character() external pure returns(string memory) {... */\n      swap1\n      jump\t// out\n        /* \"contracts-lecture/230516-1.sol\":1003:1025  uint public wallet=100 */\n    tag_37:\n      sload(0x01)\n      dup2\n      jump\t// out\n        /* \"contracts-lecture/230516-1.sol\":4890:4991  function getDaddy2Address2() public view returns(address) {... */\n    tag_41:\n        /* \"contracts-lecture/230516-1.sol\":4939:4946  address */\n      0x00\n        /* \"contracts-lecture/230516-1.sol\":4965:4971  daddy2 */\n      0x05\n      0x00\n      swap1\n      sload\n      swap1\n      0x0100\n      exp\n      swap1\n      div\n      0xffffffffffffffffffffffffffffffffffffffff\n      and\n        /* \"contracts-lecture/230516-1.sol\":4965:4982  daddy2.getAddress */\n      0xffffffffffffffffffffffffffffffffffffffff\n      and\n      0x38cc4831\n        /* \"contracts-lecture/230516-1.sol\":4965:4984  daddy2.getAddress() */\n      mload(0x40)\n      dup2\n      0xffffffff\n      and\n      0xe0\n      shl\n      dup2\n      mstore\n      0x04\n      add\n      0x20\n      mload(0x40)\n      dup1\n      dup4\n      sub\n      dup2\n      dup7\n      gas\n      staticcall\n      iszero\n      dup1\n      iszero\n      tag_95\n      jumpi\n      returndatasize\n      0x00\n      dup1\n      returndatacopy\n      revert(0x00, returndatasize)\n    tag_95:\n      pop\n      pop\n      pop\n      pop\n      mload(0x40)\n      returndatasize\n      not(0x1f)\n      0x1f\n      dup3\n      add\n      and\n      dup3\n      add\n      dup1\n      0x40\n      mstore\n      pop\n      dup2\n      add\n      swap1\n      tag_96\n      swap2\n      swap1\n      tag_90\n      jump\t// in\n    tag_96:\n        /* \"contracts-lecture/230516-1.sol\":4958:4984  return daddy2.getAddress() */\n      swap1\n      pop\n        /* \"contracts-lecture/230516-1.sol\":4890:4991  function getDaddy2Address2() public view returns(address) {... */\n      swap1\n      jump\t// out\n        /* \"contracts-lecture/230516-1.sol\":1664:1751  function getMsgSender() public view returns(address) {... */\n    tag_44:\n        /* \"contracts-lecture/230516-1.sol\":1708:1715  address */\n      0x00\n        /* \"contracts-lecture/230516-1.sol\":1734:1744  msg.sender */\n      caller\n        /* \"contracts-lecture/230516-1.sol\":1727:1744  return msg.sender */\n      swap1\n      pop\n        /* \"contracts-lecture/230516-1.sol\":1664:1751  function getMsgSender() public view returns(address) {... */\n      swap1\n      jump\t// out\n        /* \"contracts-lecture/230516-1.sol\":4583:4677  function getDaddyAddress() public view returns(address) {... */\n    tag_47:\n        /* \"contracts-lecture/230516-1.sol\":4630:4637  address */\n      0x00\n        /* \"contracts-lecture/230516-1.sol\":4664:4669  daddy */\n      0x04\n      0x00\n      swap1\n      sload\n      swap1\n      0x0100\n      exp\n      swap1\n      div\n      0xffffffffffffffffffffffffffffffffffffffff\n      and\n        /* \"contracts-lecture/230516-1.sol\":4649:4670  return address(daddy) */\n      swap1\n      pop\n        /* \"contracts-lecture/230516-1.sol\":4583:4677  function getDaddyAddress() public view returns(address) {... */\n      swap1\n      jump\t// out\n        /* \"contracts-lecture/230516-1.sol\":3697:3792  function fathersAddress() public view returns(address) {... */\n    tag_50:\n        /* \"contracts-lecture/230516-1.sol\":3743:3750  address */\n      0x00\n        /* \"contracts-lecture/230516-1.sol\":3769:3785  DAD.getAddress() */\n      tag_100\n        /* \"contracts-lecture/230516-1.sol\":3769:3783  DAD.getAddress */\n      tag_30\n        /* \"contracts-lecture/230516-1.sol\":3769:3785  DAD.getAddress() */\n      jump\t// in\n    tag_100:\n        /* \"contracts-lecture/230516-1.sol\":3762:3785  return DAD.getAddress() */\n      swap1\n      pop\n        /* \"contracts-lecture/230516-1.sol\":3697:3792  function fathersAddress() public view returns(address) {... */\n      swap1\n      jump\t// out\n        /* \"contracts-lecture/230516-1.sol\":4788:4884  function getDaddy2Address() public view returns(address) {... */\n    tag_53:\n        /* \"contracts-lecture/230516-1.sol\":4836:4843  address */\n      0x00\n        /* \"contracts-lecture/230516-1.sol\":4870:4876  daddy2 */\n      0x05\n      0x00\n      swap1\n      sload\n      swap1\n      0x0100\n      exp\n      swap1\n      div\n      0xffffffffffffffffffffffffffffffffffffffff\n      and\n        /* \"contracts-lecture/230516-1.sol\":4855:4877  return address(daddy2) */\n      swap1\n      pop\n        /* \"contracts-lecture/230516-1.sol\":4788:4884  function getDaddy2Address() public view returns(address) {... */\n      swap1\n      jump\t// out\n        /* \"contracts-lecture/230516-1.sol\":3902:4002  function dadGetMsgSender() public view returns(address) {... */\n    tag_56:\n        /* \"contracts-lecture/230516-1.sol\":3949:3956  address */\n      0x00\n        /* \"contracts-lecture/230516-1.sol\":3975:3995  super.getMsgSender() */\n      tag_103\n        /* \"contracts-lecture/230516-1.sol\":3975:3993  super.getMsgSender */\n      tag_44\n        /* \"contracts-lecture/230516-1.sol\":3975:3995  super.getMsgSender() */\n      jump\t// in\n    tag_103:\n        /* \"contracts-lecture/230516-1.sol\":3968:3995  return super.getMsgSender() */\n      swap1\n      pop\n        /* \"contracts-lecture/230516-1.sol\":3902:4002  function dadGetMsgSender() public view returns(address) {... */\n      swap1\n      jump\t// out\n        /* \"contracts-lecture/230516-1.sol\":4064:4166  function daddyGetMsgSender() public view returns(address) {... */\n    tag_59:\n        /* \"contracts-lecture/230516-1.sol\":4113:4120  address */\n      0x00\n        /* \"contracts-lecture/230516-1.sol\":4139:4144  daddy */\n      0x04\n      0x00\n      swap1\n      sload\n      swap1\n      0x0100\n      exp\n      swap1\n      div\n      0xffffffffffffffffffffffffffffffffffffffff\n      and\n        /* \"contracts-lecture/230516-1.sol\":4139:4157  daddy.getMsgSender */\n      0xffffffffffffffffffffffffffffffffffffffff\n      and\n      0x7a6ce2e1\n        /* \"contracts-lecture/230516-1.sol\":4139:4159  daddy.getMsgSender() */\n      mload(0x40)\n      dup2\n      0xffffffff\n      and\n      0xe0\n      shl\n      dup2\n      mstore\n      0x04\n      add\n      0x20\n      mload(0x40)\n      dup1\n      dup4\n      sub\n      dup2\n      dup7\n      gas\n      staticcall\n      iszero\n      dup1\n      iszero\n      tag_106\n      jumpi\n      returndatasize\n      0x00\n      dup1\n      returndatacopy\n      revert(0x00, returndatasize)\n    tag_106:\n      pop\n      pop\n      pop\n      pop\n      mload(0x40)\n      returndatasize\n      not(0x1f)\n      0x1f\n      dup3\n      add\n      and\n      dup3\n      add\n      dup1\n      0x40\n      mstore\n      pop\n      dup2\n      add\n      swap1\n      tag_107\n      swap2\n      swap1\n      tag_90\n      jump\t// in\n    tag_107:\n        /* \"contracts-lecture/230516-1.sol\":4132:4159  return daddy.getMsgSender() */\n      swap1\n      pop\n        /* \"contracts-lecture/230516-1.sol\":4064:4166  function daddyGetMsgSender() public view returns(address) {... */\n      swap1\n      jump\t// out\n        /* \"contracts-lecture/230516-1.sol\":3415:3509  function fathersName() public pure returns(string memory) {... */\n    tag_62:\n        /* \"contracts-lecture/230516-1.sol\":3458:3471  string memory */\n      0x60\n        /* \"contracts-lecture/230516-1.sol\":3490:3502  super.name() */\n      tag_109\n        /* \"contracts-lecture/230516-1.sol\":3490:3500  super.name */\n      tag_110\n        /* \"contracts-lecture/230516-1.sol\":3490:3502  super.name() */\n      jump\t// in\n    tag_109:\n        /* \"contracts-lecture/230516-1.sol\":3483:3502  return super.name() */\n      swap1\n      pop\n        /* \"contracts-lecture/230516-1.sol\":3415:3509  function fathersName() public pure returns(string memory) {... */\n      swap1\n      jump\t// out\n        /* \"contracts-lecture/230516-1.sol\":3515:3600  function fathersWallet() public view returns(uint) {... */\n    tag_65:\n        /* \"contracts-lecture/230516-1.sol\":3560:3564  uint */\n      0x00\n        /* \"contracts-lecture/230516-1.sol\":3583:3593  DAD.wallet */\n      sload(0x01)\n        /* \"contracts-lecture/230516-1.sol\":3576:3593  return DAD.wallet */\n      swap1\n      pop\n        /* \"contracts-lecture/230516-1.sol\":3515:3600  function fathersWallet() public view returns(uint) {... */\n      swap1\n      jump\t// out\n        /* \"contracts-lecture/230516-1.sol\":4683:4782  function getDaddyAddress2() public view returns(address) {... */\n    tag_68:\n        /* \"contracts-lecture/230516-1.sol\":4731:4738  address */\n      0x00\n        /* \"contracts-lecture/230516-1.sol\":4757:4762  daddy */\n      0x04\n      0x00\n      swap1\n      sload\n      swap1\n      0x0100\n      exp\n      swap1\n      div\n      0xffffffffffffffffffffffffffffffffffffffff\n      and\n        /* \"contracts-lecture/230516-1.sol\":4757:4773  daddy.getAddress */\n      0xffffffffffffffffffffffffffffffffffffffff\n      and\n      0x38cc4831\n        /* \"contracts-lecture/230516-1.sol\":4757:4775  daddy.getAddress() */\n      mload(0x40)\n      dup2\n      0xffffffff\n      and\n      0xe0\n      shl\n      dup2\n      mstore\n      0x04\n      add\n      0x20\n      mload(0x40)\n      dup1\n      dup4\n      sub\n      dup2\n      dup7\n      gas\n      staticcall\n      iszero\n      dup1\n      iszero\n      tag_114\n      jumpi\n      returndatasize\n      0x00\n      dup1\n      returndatacopy\n      revert(0x00, returndatasize)\n    tag_114:\n      pop\n      pop\n      pop\n      pop\n      mload(0x40)\n      returndatasize\n      not(0x1f)\n      0x1f\n      dup3\n      add\n      and\n      dup3\n      add\n      dup1\n      0x40\n      mstore\n      pop\n      dup2\n      add\n      swap1\n      tag_115\n      swap2\n      swap1\n      tag_90\n      jump\t// in\n    tag_115:\n        /* \"contracts-lecture/230516-1.sol\":4750:4775  return daddy.getAddress() */\n      swap1\n      pop\n        /* \"contracts-lecture/230516-1.sol\":4683:4782  function getDaddyAddress2() public view returns(address) {... */\n      swap1\n      jump\t// out\n        /* \"contracts-lecture/230516-1.sol\":3277:3409  function who() override public pure returns(string memory) {... */\n    tag_71:\n        /* \"contracts-lecture/230516-1.sol\":3321:3334  string memory */\n      0x60\n        /* \"contracts-lecture/230516-1.sol\":3353:3364  super.who() */\n      tag_117\n        /* \"contracts-lecture/230516-1.sol\":3353:3362  super.who */\n      tag_118\n        /* \"contracts-lecture/230516-1.sol\":3353:3364  super.who() */\n      jump\t// in\n    tag_117:\n        /* \"contracts-lecture/230516-1.sol\":3346:3364  return super.who() */\n      swap1\n      pop\n        /* \"contracts-lecture/230516-1.sol\":3277:3409  function who() override public pure returns(string memory) {... */\n      swap1\n      jump\t// out\n        /* \"contracts-lecture/230516-1.sol\":3606:3691  function fathersCrypto() public view returns(uint) {... */\n    tag_74:\n        /* \"contracts-lecture/230516-1.sol\":3651:3655  uint */\n      0x00\n        /* \"contracts-lecture/230516-1.sol\":3674:3684  DAD.crypto */\n      sload(0x02)\n        /* \"contracts-lecture/230516-1.sol\":3667:3684  return DAD.crypto */\n      swap1\n      pop\n        /* \"contracts-lecture/230516-1.sol\":3606:3691  function fathersCrypto() public view returns(uint) {... */\n      swap1\n      jump\t// out\n        /* \"contracts-lecture/230516-1.sol\":3798:3896  function fathersAddress2() public view returns(address) {... */\n    tag_77:\n        /* \"contracts-lecture/230516-1.sol\":3845:3852  address */\n      0x00\n        /* \"contracts-lecture/230516-1.sol\":3871:3889  super.getAddress() */\n      tag_121\n        /* \"contracts-lecture/230516-1.sol\":3871:3887  super.getAddress */\n      tag_30\n        /* \"contracts-lecture/230516-1.sol\":3871:3889  super.getAddress() */\n      jump\t// in\n    tag_121:\n        /* \"contracts-lecture/230516-1.sol\":3864:3889  return super.getAddress() */\n      swap1\n      pop\n        /* \"contracts-lecture/230516-1.sol\":3798:3896  function fathersAddress2() public view returns(address) {... */\n      swap1\n      jump\t// out\n        /* \"contracts-lecture/230516-1.sol\":4387:4477  function fathersWallet2() public view returns(uint) {... */\n    tag_80:\n        /* \"contracts-lecture/230516-1.sol\":4433:4437  uint */\n      0x00\n        /* \"contracts-lecture/230516-1.sol\":4456:4461  daddy */\n      0x04\n      0x00\n      swap1\n      sload\n      swap1\n      0x0100\n      exp\n      swap1\n      div\n      0xffffffffffffffffffffffffffffffffffffffff\n      and\n        /* \"contracts-lecture/230516-1.sol\":4456:4468  daddy.wallet */\n      0xffffffffffffffffffffffffffffffffffffffff\n      and\n      0x521eb273\n        /* \"contracts-lecture/230516-1.sol\":4456:4470  daddy.wallet() */\n      mload(0x40)\n      dup2\n      0xffffffff\n      and\n      0xe0\n      shl\n      dup2\n      mstore\n      0x04\n      add\n      0x20\n      mload(0x40)\n      dup1\n      dup4\n      sub\n      dup2\n      dup7\n      gas\n      staticcall\n      iszero\n      dup1\n      iszero\n      tag_124\n      jumpi\n      returndatasize\n      0x00\n      dup1\n      returndatacopy\n      revert(0x00, returndatasize)\n    tag_124:\n      pop\n      pop\n      pop\n      pop\n      mload(0x40)\n      returndatasize\n      not(0x1f)\n      0x1f\n      dup3\n      add\n      and\n      dup3\n      add\n      dup1\n      0x40\n      mstore\n      pop\n      dup2\n      add\n      swap1\n      tag_125\n      swap2\n      swap1\n      tag_126\n      jump\t// in\n    tag_125:\n        /* \"contracts-lecture/230516-1.sol\":4449:4470  return daddy.wallet() */\n      swap1\n      pop\n        /* \"contracts-lecture/230516-1.sol\":4387:4477  function fathersWallet2() public view returns(uint) {... */\n      swap1\n      jump\t// out\n        /* \"contracts-lecture/230516-1.sol\":1757:1823  function changeWallet(uint _n) public {... */\n    tag_85:\n        /* \"contracts-lecture/230516-1.sol\":1814:1816  _n */\n      dup1\n        /* \"contracts-lecture/230516-1.sol\":1805:1811  wallet */\n      0x01\n        /* \"contracts-lecture/230516-1.sol\":1805:1816  wallet = _n */\n      dup2\n      swap1\n      sstore\n      pop\n        /* \"contracts-lecture/230516-1.sol\":1757:1823  function changeWallet(uint _n) public {... */\n      pop\n      jump\t// out\n        /* \"contracts-lecture/230516-1.sol\":1301:1385  function name() internal pure returns(string memory) {... */\n    tag_110:\n        /* \"contracts-lecture/230516-1.sol\":1339:1352  string memory */\n      0x60\n        /* \"contracts-lecture/230516-1.sol\":1364:1378  return \"David\" */\n      mload(0x40)\n      dup1\n      0x40\n      add\n      0x40\n      mstore\n      dup1\n      0x05\n      dup2\n      mstore\n      0x20\n      add\n      0x4461766964000000000000000000000000000000000000000000000000000000\n      dup2\n      mstore\n      pop\n      swap1\n      pop\n        /* \"contracts-lecture/230516-1.sol\":1301:1385  function name() internal pure returns(string memory) {... */\n      swap1\n      jump\t// out\n        /* \"contracts-lecture/230516-1.sol\":1199:1295  function who() virtual public pure returns(string memory) {... */\n    tag_118:\n        /* \"contracts-lecture/230516-1.sol\":1242:1255  string memory */\n      0x60\n        /* \"contracts-lecture/230516-1.sol\":1267:1288  return \"dad from DAD\" */\n      mload(0x40)\n      dup1\n      0x40\n      add\n      0x40\n      mstore\n      dup1\n      0x0c\n      dup2\n      mstore\n      0x20\n      add\n      0x6461642066726f6d204441440000000000000000000000000000000000000000\n      dup2\n      mstore\n      pop\n      swap1\n      pop\n        /* \"contracts-lecture/230516-1.sol\":1199:1295  function who() virtual public pure returns(string memory) {... */\n      swap1\n      jump\t// out\n        /* \"#utility.yul\":7:133   */\n    tag_130:\n        /* \"#utility.yul\":44:51   */\n      0x00\n        /* \"#utility.yul\":84:126   */\n      0xffffffffffffffffffffffffffffffffffffffff\n        /* \"#utility.yul\":77:82   */\n      dup3\n        /* \"#utility.yul\":73:127   */\n      and\n        /* \"#utility.yul\":62:127   */\n      swap1\n      pop\n        /* \"#utility.yul\":7:133   */\n      swap2\n      swap1\n      pop\n      jump\t// out\n        /* \"#utility.yul\":139:235   */\n    tag_131:\n        /* \"#utility.yul\":176:183   */\n      0x00\n        /* \"#utility.yul\":205:229   */\n      tag_151\n        /* \"#utility.yul\":223:228   */\n      dup3\n        /* \"#utility.yul\":205:229   */\n      tag_130\n      jump\t// in\n    tag_151:\n        /* \"#utility.yul\":194:229   */\n      swap1\n      pop\n        /* \"#utility.yul\":139:235   */\n      swap2\n      swap1\n      pop\n      jump\t// out\n        /* \"#utility.yul\":241:359   */\n    tag_132:\n        /* \"#utility.yul\":328:352   */\n      tag_153\n        /* \"#utility.yul\":346:351   */\n      dup2\n        /* \"#utility.yul\":328:352   */\n      tag_131\n      jump\t// in\n    tag_153:\n        /* \"#utility.yul\":323:326   */\n      dup3\n        /* \"#utility.yul\":316:353   */\n      mstore\n        /* \"#utility.yul\":241:359   */\n      pop\n      pop\n      jump\t// out\n        /* \"#utility.yul\":365:587   */\n    tag_28:\n        /* \"#utility.yul\":458:462   */\n      0x00\n        /* \"#utility.yul\":496:498   */\n      0x20\n        /* \"#utility.yul\":485:494   */\n      dup3\n        /* \"#utility.yul\":481:499   */\n      add\n        /* \"#utility.yul\":473:499   */\n      swap1\n      pop\n        /* \"#utility.yul\":509:580   */\n      tag_155\n        /* \"#utility.yul\":577:578   */\n      0x00\n        /* \"#utility.yul\":566:575   */\n      dup4\n        /* \"#utility.yul\":562:579   */\n      add\n        /* \"#utility.yul\":553:559   */\n      dup5\n        /* \"#utility.yul\":509:580   */\n      tag_132\n      jump\t// in\n    tag_155:\n        /* \"#utility.yul\":365:587   */\n      swap3\n      swap2\n      pop\n      pop\n      jump\t// out\n        /* \"#utility.yul\":593:692   */\n    tag_133:\n        /* \"#utility.yul\":645:651   */\n      0x00\n        /* \"#utility.yul\":679:684   */\n      dup2\n        /* \"#utility.yul\":673:685   */\n      mload\n        /* \"#utility.yul\":663:685   */\n      swap1\n      pop\n        /* \"#utility.yul\":593:692   */\n      swap2\n      swap1\n      pop\n      jump\t// out\n        /* \"#utility.yul\":698:867   */\n    tag_134:\n        /* \"#utility.yul\":782:793   */\n      0x00\n        /* \"#utility.yul\":816:822   */\n      dup3\n        /* \"#utility.yul\":811:814   */\n      dup3\n        /* \"#utility.yul\":804:823   */\n      mstore\n        /* \"#utility.yul\":856:860   */\n      0x20\n        /* \"#utility.yul\":851:854   */\n      dup3\n        /* \"#utility.yul\":847:861   */\n      add\n        /* \"#utility.yul\":832:861   */\n      swap1\n      pop\n        /* \"#utility.yul\":698:867   */\n      swap3\n      swap2\n      pop\n      pop\n      jump\t// out\n        /* \"#utility.yul\":873:1119   */\n    tag_135:\n        /* \"#utility.yul\":954:955   */\n      0x00\n        /* \"#utility.yul\":964:1077   */\n    tag_159:\n        /* \"#utility.yul\":978:984   */\n      dup4\n        /* \"#utility.yul\":975:976   */\n      dup2\n        /* \"#utility.yul\":972:985   */\n      lt\n        /* \"#utility.yul\":964:1077   */\n      iszero\n      tag_161\n      jumpi\n        /* \"#utility.yul\":1063:1064   */\n      dup1\n        /* \"#utility.yul\":1058:1061   */\n      dup3\n        /* \"#utility.yul\":1054:1065   */\n      add\n        /* \"#utility.yul\":1048:1066   */\n      mload\n        /* \"#utility.yul\":1044:1045   */\n      dup2\n        /* \"#utility.yul\":1039:1042   */\n      dup5\n        /* \"#utility.yul\":1035:1046   */\n      add\n        /* \"#utility.yul\":1028:1067   */\n      mstore\n        /* \"#utility.yul\":1000:1002   */\n      0x20\n        /* \"#utility.yul\":997:998   */\n      dup2\n        /* \"#utility.yul\":993:1003   */\n      add\n        /* \"#utility.yul\":988:1003   */\n      swap1\n      pop\n        /* \"#utility.yul\":964:1077   */\n      jump(tag_159)\n    tag_161:\n        /* \"#utility.yul\":1111:1112   */\n      0x00\n        /* \"#utility.yul\":1102:1108   */\n      dup5\n        /* \"#utility.yul\":1097:1100   */\n      dup5\n        /* \"#utility.yul\":1093:1109   */\n      add\n        /* \"#utility.yul\":1086:1113   */\n      mstore\n        /* \"#utility.yul\":935:1119   */\n      pop\n        /* \"#utility.yul\":873:1119   */\n      pop\n      pop\n      pop\n      jump\t// out\n        /* \"#utility.yul\":1125:1227   */\n    tag_136:\n        /* \"#utility.yul\":1166:1172   */\n      0x00\n        /* \"#utility.yul\":1217:1219   */\n      0x1f\n        /* \"#utility.yul\":1213:1220   */\n      not\n        /* \"#utility.yul\":1208:1210   */\n      0x1f\n        /* \"#utility.yul\":1201:1206   */\n      dup4\n        /* \"#utility.yul\":1197:1211   */\n      add\n        /* \"#utility.yul\":1193:1221   */\n      and\n        /* \"#utility.yul\":1183:1221   */\n      swap1\n      pop\n        /* \"#utility.yul\":1125:1227   */\n      swap2\n      swap1\n      pop\n      jump\t// out\n        /* \"#utility.yul\":1233:1610   */\n    tag_137:\n        /* \"#utility.yul\":1321:1324   */\n      0x00\n        /* \"#utility.yul\":1349:1388   */\n      tag_164\n        /* \"#utility.yul\":1382:1387   */\n      dup3\n        /* \"#utility.yul\":1349:1388   */\n      tag_133\n      jump\t// in\n    tag_164:\n        /* \"#utility.yul\":1404:1475   */\n      tag_165\n        /* \"#utility.yul\":1468:1474   */\n      dup2\n        /* \"#utility.yul\":1463:1466   */\n      dup6\n        /* \"#utility.yul\":1404:1475   */\n      tag_134\n      jump\t// in\n    tag_165:\n        /* \"#utility.yul\":1397:1475   */\n      swap4\n      pop\n        /* \"#utility.yul\":1484:1549   */\n      tag_166\n        /* \"#utility.yul\":1542:1548   */\n      dup2\n        /* \"#utility.yul\":1537:1540   */\n      dup6\n        /* \"#utility.yul\":1530:1534   */\n      0x20\n        /* \"#utility.yul\":1523:1528   */\n      dup7\n        /* \"#utility.yul\":1519:1535   */\n      add\n        /* \"#utility.yul\":1484:1549   */\n      tag_135\n      jump\t// in\n    tag_166:\n        /* \"#utility.yul\":1574:1603   */\n      tag_167\n        /* \"#utility.yul\":1596:1602   */\n      dup2\n        /* \"#utility.yul\":1574:1603   */\n      tag_136\n      jump\t// in\n    tag_167:\n        /* \"#utility.yul\":1569:1572   */\n      dup5\n        /* \"#utility.yul\":1565:1604   */\n      add\n        /* \"#utility.yul\":1558:1604   */\n      swap2\n      pop\n        /* \"#utility.yul\":1325:1610   */\n      pop\n        /* \"#utility.yul\":1233:1610   */\n      swap3\n      swap2\n      pop\n      pop\n      jump\t// out\n        /* \"#utility.yul\":1616:1929   */\n    tag_35:\n        /* \"#utility.yul\":1729:1733   */\n      0x00\n        /* \"#utility.yul\":1767:1769   */\n      0x20\n        /* \"#utility.yul\":1756:1765   */\n      dup3\n        /* \"#utility.yul\":1752:1770   */\n      add\n        /* \"#utility.yul\":1744:1770   */\n      swap1\n      pop\n        /* \"#utility.yul\":1816:1825   */\n      dup2\n        /* \"#utility.yul\":1810:1814   */\n      dup2\n        /* \"#utility.yul\":1806:1826   */\n      sub\n        /* \"#utility.yul\":1802:1803   */\n      0x00\n        /* \"#utility.yul\":1791:1800   */\n      dup4\n        /* \"#utility.yul\":1787:1804   */\n      add\n        /* \"#utility.yul\":1780:1827   */\n      mstore\n        /* \"#utility.yul\":1844:1922   */\n      tag_169\n        /* \"#utility.yul\":1917:1921   */\n      dup2\n        /* \"#utility.yul\":1908:1914   */\n      dup5\n        /* \"#utility.yul\":1844:1922   */\n      tag_137\n      jump\t// in\n    tag_169:\n        /* \"#utility.yul\":1836:1922   */\n      swap1\n      pop\n        /* \"#utility.yul\":1616:1929   */\n      swap3\n      swap2\n      pop\n      pop\n      jump\t// out\n        /* \"#utility.yul\":1935:2012   */\n    tag_138:\n        /* \"#utility.yul\":1972:1979   */\n      0x00\n        /* \"#utility.yul\":2001:2006   */\n      dup2\n        /* \"#utility.yul\":1990:2006   */\n      swap1\n      pop\n        /* \"#utility.yul\":1935:2012   */\n      swap2\n      swap1\n      pop\n      jump\t// out\n        /* \"#utility.yul\":2018:2136   */\n    tag_139:\n        /* \"#utility.yul\":2105:2129   */\n      tag_172\n        /* \"#utility.yul\":2123:2128   */\n      dup2\n        /* \"#utility.yul\":2105:2129   */\n      tag_138\n      jump\t// in\n    tag_172:\n        /* \"#utility.yul\":2100:2103   */\n      dup3\n        /* \"#utility.yul\":2093:2130   */\n      mstore\n        /* \"#utility.yul\":2018:2136   */\n      pop\n      pop\n      jump\t// out\n        /* \"#utility.yul\":2142:2364   */\n    tag_39:\n        /* \"#utility.yul\":2235:2239   */\n      0x00\n        /* \"#utility.yul\":2273:2275   */\n      0x20\n        /* \"#utility.yul\":2262:2271   */\n      dup3\n        /* \"#utility.yul\":2258:2276   */\n      add\n        /* \"#utility.yul\":2250:2276   */\n      swap1\n      pop\n        /* \"#utility.yul\":2286:2357   */\n      tag_174\n        /* \"#utility.yul\":2354:2355   */\n      0x00\n        /* \"#utility.yul\":2343:2352   */\n      dup4\n        /* \"#utility.yul\":2339:2356   */\n      add\n        /* \"#utility.yul\":2330:2336   */\n      dup5\n        /* \"#utility.yul\":2286:2357   */\n      tag_139\n      jump\t// in\n    tag_174:\n        /* \"#utility.yul\":2142:2364   */\n      swap3\n      swap2\n      pop\n      pop\n      jump\t// out\n        /* \"#utility.yul\":2451:2568   */\n    tag_141:\n        /* \"#utility.yul\":2560:2561   */\n      0x00\n        /* \"#utility.yul\":2557:2558   */\n      dup1\n        /* \"#utility.yul\":2550:2562   */\n      revert\n        /* \"#utility.yul\":2697:2819   */\n    tag_143:\n        /* \"#utility.yul\":2770:2794   */\n      tag_179\n        /* \"#utility.yul\":2788:2793   */\n      dup2\n        /* \"#utility.yul\":2770:2794   */\n      tag_138\n      jump\t// in\n    tag_179:\n        /* \"#utility.yul\":2763:2768   */\n      dup2\n        /* \"#utility.yul\":2760:2795   */\n      eq\n        /* \"#utility.yul\":2750:2813   */\n      tag_180\n      jumpi\n        /* \"#utility.yul\":2809:2810   */\n      0x00\n        /* \"#utility.yul\":2806:2807   */\n      dup1\n        /* \"#utility.yul\":2799:2811   */\n      revert\n        /* \"#utility.yul\":2750:2813   */\n    tag_180:\n        /* \"#utility.yul\":2697:2819   */\n      pop\n      jump\t// out\n        /* \"#utility.yul\":2825:2964   */\n    tag_144:\n        /* \"#utility.yul\":2871:2876   */\n      0x00\n        /* \"#utility.yul\":2909:2915   */\n      dup2\n        /* \"#utility.yul\":2896:2916   */\n      calldataload\n        /* \"#utility.yul\":2887:2916   */\n      swap1\n      pop\n        /* \"#utility.yul\":2925:2958   */\n      tag_182\n        /* \"#utility.yul\":2952:2957   */\n      dup2\n        /* \"#utility.yul\":2925:2958   */\n      tag_143\n      jump\t// in\n    tag_182:\n        /* \"#utility.yul\":2825:2964   */\n      swap3\n      swap2\n      pop\n      pop\n      jump\t// out\n        /* \"#utility.yul\":2970:3299   */\n    tag_84:\n        /* \"#utility.yul\":3029:3035   */\n      0x00\n        /* \"#utility.yul\":3078:3080   */\n      0x20\n        /* \"#utility.yul\":3066:3075   */\n      dup3\n        /* \"#utility.yul\":3057:3064   */\n      dup5\n        /* \"#utility.yul\":3053:3076   */\n      sub\n        /* \"#utility.yul\":3049:3081   */\n      slt\n        /* \"#utility.yul\":3046:3165   */\n      iszero\n      tag_184\n      jumpi\n        /* \"#utility.yul\":3084:3163   */\n      tag_185\n      tag_141\n      jump\t// in\n    tag_185:\n        /* \"#utility.yul\":3046:3165   */\n    tag_184:\n        /* \"#utility.yul\":3204:3205   */\n      0x00\n        /* \"#utility.yul\":3229:3282   */\n      tag_186\n        /* \"#utility.yul\":3274:3281   */\n      dup5\n        /* \"#utility.yul\":3265:3271   */\n      dup3\n        /* \"#utility.yul\":3254:3263   */\n      dup6\n        /* \"#utility.yul\":3250:3272   */\n      add\n        /* \"#utility.yul\":3229:3282   */\n      tag_144\n      jump\t// in\n    tag_186:\n        /* \"#utility.yul\":3219:3282   */\n      swap2\n      pop\n        /* \"#utility.yul\":3175:3292   */\n      pop\n        /* \"#utility.yul\":2970:3299   */\n      swap3\n      swap2\n      pop\n      pop\n      jump\t// out\n        /* \"#utility.yul\":3305:3427   */\n    tag_145:\n        /* \"#utility.yul\":3378:3402   */\n      tag_188\n        /* \"#utility.yul\":3396:3401   */\n      dup2\n        /* \"#utility.yul\":3378:3402   */\n      tag_131\n      jump\t// in\n    tag_188:\n        /* \"#utility.yul\":3371:3376   */\n      dup2\n        /* \"#utility.yul\":3368:3403   */\n      eq\n        /* \"#utility.yul\":3358:3421   */\n      tag_189\n      jumpi\n        /* \"#utility.yul\":3417:3418   */\n      0x00\n        /* \"#utility.yul\":3414:3415   */\n      dup1\n        /* \"#utility.yul\":3407:3419   */\n      revert\n        /* \"#utility.yul\":3358:3421   */\n    tag_189:\n        /* \"#utility.yul\":3305:3427   */\n      pop\n      jump\t// out\n        /* \"#utility.yul\":3433:3576   */\n    tag_146:\n        /* \"#utility.yul\":3490:3495   */\n      0x00\n        /* \"#utility.yul\":3521:3527   */\n      dup2\n        /* \"#utility.yul\":3515:3528   */\n      mload\n        /* \"#utility.yul\":3506:3528   */\n      swap1\n      pop\n        /* \"#utility.yul\":3537:3570   */\n      tag_191\n        /* \"#utility.yul\":3564:3569   */\n      dup2\n        /* \"#utility.yul\":3537:3570   */\n      tag_145\n      jump\t// in\n    tag_191:\n        /* \"#utility.yul\":3433:3576   */\n      swap3\n      swap2\n      pop\n      pop\n      jump\t// out\n        /* \"#utility.yul\":3582:3933   */\n    tag_90:\n        /* \"#utility.yul\":3652:3658   */\n      0x00\n        /* \"#utility.yul\":3701:3703   */\n      0x20\n        /* \"#utility.yul\":3689:3698   */\n      dup3\n        /* \"#utility.yul\":3680:3687   */\n      dup5\n        /* \"#utility.yul\":3676:3699   */\n      sub\n        /* \"#utility.yul\":3672:3704   */\n      slt\n        /* \"#utility.yul\":3669:3788   */\n      iszero\n      tag_193\n      jumpi\n        /* \"#utility.yul\":3707:3786   */\n      tag_194\n      tag_141\n      jump\t// in\n    tag_194:\n        /* \"#utility.yul\":3669:3788   */\n    tag_193:\n        /* \"#utility.yul\":3827:3828   */\n      0x00\n        /* \"#utility.yul\":3852:3916   */\n      tag_195\n        /* \"#utility.yul\":3908:3915   */\n      dup5\n        /* \"#utility.yul\":3899:3905   */\n      dup3\n        /* \"#utility.yul\":3888:3897   */\n      dup6\n        /* \"#utility.yul\":3884:3906   */\n      add\n        /* \"#utility.yul\":3852:3916   */\n      tag_146\n      jump\t// in\n    tag_195:\n        /* \"#utility.yul\":3842:3916   */\n      swap2\n      pop\n        /* \"#utility.yul\":3798:3926   */\n      pop\n        /* \"#utility.yul\":3582:3933   */\n      swap3\n      swap2\n      pop\n      pop\n      jump\t// out\n        /* \"#utility.yul\":3939:4082   */\n    tag_147:\n        /* \"#utility.yul\":3996:4001   */\n      0x00\n        /* \"#utility.yul\":4027:4033   */\n      dup2\n        /* \"#utility.yul\":4021:4034   */\n      mload\n        /* \"#utility.yul\":4012:4034   */\n      swap1\n      pop\n        /* \"#utility.yul\":4043:4076   */\n      tag_197\n        /* \"#utility.yul\":4070:4075   */\n      dup2\n        /* \"#utility.yul\":4043:4076   */\n      tag_143\n      jump\t// in\n    tag_197:\n        /* \"#utility.yul\":3939:4082   */\n      swap3\n      swap2\n      pop\n      pop\n      jump\t// out\n        /* \"#utility.yul\":4088:4439   */\n    tag_126:\n        /* \"#utility.yul\":4158:4164   */\n      0x00\n        /* \"#utility.yul\":4207:4209   */\n      0x20\n        /* \"#utility.yul\":4195:4204   */\n      dup3\n        /* \"#utility.yul\":4186:4193   */\n      dup5\n        /* \"#utility.yul\":4182:4205   */\n      sub\n        /* \"#utility.yul\":4178:4210   */\n      slt\n        /* \"#utility.yul\":4175:4294   */\n      iszero\n      tag_199\n      jumpi\n        /* \"#utility.yul\":4213:4292   */\n      tag_200\n      tag_141\n      jump\t// in\n    tag_200:\n        /* \"#utility.yul\":4175:4294   */\n    tag_199:\n        /* \"#utility.yul\":4333:4334   */\n      0x00\n        /* \"#utility.yul\":4358:4422   */\n      tag_201\n        /* \"#utility.yul\":4414:4421   */\n      dup5\n        /* \"#utility.yul\":4405:4411   */\n      dup3\n        /* \"#utility.yul\":4394:4403   */\n      dup6\n        /* \"#utility.yul\":4390:4412   */\n      add\n        /* \"#utility.yul\":4358:4422   */\n      tag_147\n      jump\t// in\n    tag_201:\n        /* \"#utility.yul\":4348:4422   */\n      swap2\n      pop\n        /* \"#utility.yul\":4304:4432   */\n      pop\n        /* \"#utility.yul\":4088:4439   */\n      swap3\n      swap2\n      pop\n      pop\n      jump\t// out\n\n    auxdata: 0xa26469706673582212209aa075269c082ce3b7ac0675698754c6b28d2db57949efc51124b0f85743f2cc64736f6c63430008120033\n}\n\nsub_1: assembly {\n        /* \"contracts-lecture/230516-1.sol\":971:1825  contract DAD {... */\n      mstore(0x40, 0x80)\n        /* \"contracts-lecture/230516-1.sol\":1022:1025  100 */\n      0x64\n        /* \"contracts-lecture/230516-1.sol\":1003:1025  uint public wallet=100 */\n      0x01\n      sstore\n        /* \"contracts-lecture/230516-1.sol\":1079:1083  1000 */\n      0x03e8\n        /* \"contracts-lecture/230516-1.sol\":1058:1083  uint internal crypto=1000 */\n      0x02\n      sstore\n        /* \"contracts-lecture/230516-1.sol\":1167:1172  10000 */\n      0x2710\n        /* \"contracts-lecture/230516-1.sol\":1144:1172  uint private emergency=10000 */\n      0x03\n      sstore\n        /* \"contracts-lecture/230516-1.sol\":971:1825  contract DAD {... */\n      callvalue\n      dup1\n      iszero\n      tag_1\n      jumpi\n      0x00\n      dup1\n      revert\n    tag_1:\n      pop\n      dataSize(sub_0)\n      dup1\n      dataOffset(sub_0)\n      0x00\n      codecopy\n      0x00\n      return\n    stop\n\n    sub_0: assembly {\n            /* \"contracts-lecture/230516-1.sol\":971:1825  contract DAD {... */\n          mstore(0x40, 0x80)\n          callvalue\n          dup1\n          iszero\n          tag_1\n          jumpi\n          0x00\n          dup1\n          revert\n        tag_1:\n          pop\n          jumpi(tag_2, lt(calldatasize, 0x04))\n          shr(0xe0, calldataload(0x00))\n          dup1\n          0x38cc4831\n          eq\n          tag_3\n          jumpi\n          dup1\n          0x4d2e03a0\n          eq\n          tag_4\n          jumpi\n          dup1\n          0x521eb273\n          eq\n          tag_5\n          jumpi\n          dup1\n          0x7a6ce2e1\n          eq\n          tag_6\n          jumpi\n          dup1\n          0xd6d21dfd\n          eq\n          tag_7\n          jumpi\n          dup1\n          0xfb22f715\n          eq\n          tag_8\n          jumpi\n        tag_2:\n          0x00\n          dup1\n          revert\n            /* \"contracts-lecture/230516-1.sol\":1570:1658  function getAddress() public view returns(address) {... */\n        tag_3:\n          tag_9\n          tag_10\n          jump\t// in\n        tag_9:\n          mload(0x40)\n          tag_11\n          swap2\n          swap1\n          tag_12\n          jump\t// in\n        tag_11:\n          mload(0x40)\n          dup1\n          swap2\n          sub\n          swap1\n          return\n            /* \"contracts-lecture/230516-1.sol\":1472:1564  function character() external pure returns(string memory) {... */\n        tag_4:\n          tag_13\n          tag_14\n          jump\t// in\n        tag_13:\n          mload(0x40)\n          tag_15\n          swap2\n          swap1\n          tag_16\n          jump\t// in\n        tag_15:\n          mload(0x40)\n          dup1\n          swap2\n          sub\n          swap1\n          return\n            /* \"contracts-lecture/230516-1.sol\":1003:1025  uint public wallet=100 */\n        tag_5:\n          tag_17\n          tag_18\n          jump\t// in\n        tag_17:\n          mload(0x40)\n          tag_19\n          swap2\n          swap1\n          tag_20\n          jump\t// in\n        tag_19:\n          mload(0x40)\n          dup1\n          swap2\n          sub\n          swap1\n          return\n            /* \"contracts-lecture/230516-1.sol\":1664:1751  function getMsgSender() public view returns(address) {... */\n        tag_6:\n          tag_21\n          tag_22\n          jump\t// in\n        tag_21:\n          mload(0x40)\n          tag_23\n          swap2\n          swap1\n          tag_12\n          jump\t// in\n        tag_23:\n          mload(0x40)\n          dup1\n          swap2\n          sub\n          swap1\n          return\n            /* \"contracts-lecture/230516-1.sol\":1199:1295  function who() virtual public pure returns(string memory) {... */\n        tag_7:\n          tag_24\n          tag_25\n          jump\t// in\n        tag_24:\n          mload(0x40)\n          tag_26\n          swap2\n          swap1\n          tag_16\n          jump\t// in\n        tag_26:\n          mload(0x40)\n          dup1\n          swap2\n          sub\n          swap1\n          return\n            /* \"contracts-lecture/230516-1.sol\":1757:1823  function changeWallet(uint _n) public {... */\n        tag_8:\n          tag_27\n          0x04\n          dup1\n          calldatasize\n          sub\n          dup2\n          add\n          swap1\n          tag_28\n          swap2\n          swap1\n          tag_29\n          jump\t// in\n        tag_28:\n          tag_30\n          jump\t// in\n        tag_27:\n          stop\n            /* \"contracts-lecture/230516-1.sol\":1570:1658  function getAddress() public view returns(address) {... */\n        tag_10:\n            /* \"contracts-lecture/230516-1.sol\":1612:1619  address */\n          0x00\n            /* \"contracts-lecture/230516-1.sol\":1646:1650  this */\n          address\n            /* \"contracts-lecture/230516-1.sol\":1631:1651  return address(this) */\n          swap1\n          pop\n            /* \"contracts-lecture/230516-1.sol\":1570:1658  function getAddress() public view returns(address) {... */\n          swap1\n          jump\t// out\n            /* \"contracts-lecture/230516-1.sol\":1472:1564  function character() external pure returns(string memory) {... */\n        tag_14:\n            /* \"contracts-lecture/230516-1.sol\":1515:1528  string memory */\n          0x60\n            /* \"contracts-lecture/230516-1.sol\":1540:1557  return \"not good\" */\n          mload(0x40)\n          dup1\n          0x40\n          add\n          0x40\n          mstore\n          dup1\n          0x08\n          dup2\n          mstore\n          0x20\n          add\n          0x6e6f7420676f6f64000000000000000000000000000000000000000000000000\n          dup2\n          mstore\n          pop\n          swap1\n          pop\n            /* \"contracts-lecture/230516-1.sol\":1472:1564  function character() external pure returns(string memory) {... */\n          swap1\n          jump\t// out\n            /* \"contracts-lecture/230516-1.sol\":1003:1025  uint public wallet=100 */\n        tag_18:\n          sload(0x01)\n          dup2\n          jump\t// out\n            /* \"contracts-lecture/230516-1.sol\":1664:1751  function getMsgSender() public view returns(address) {... */\n        tag_22:\n            /* \"contracts-lecture/230516-1.sol\":1708:1715  address */\n          0x00\n            /* \"contracts-lecture/230516-1.sol\":1734:1744  msg.sender */\n          caller\n            /* \"contracts-lecture/230516-1.sol\":1727:1744  return msg.sender */\n          swap1\n          pop\n            /* \"contracts-lecture/230516-1.sol\":1664:1751  function getMsgSender() public view returns(address) {... */\n          swap1\n          jump\t// out\n            /* \"contracts-lecture/230516-1.sol\":1199:1295  function who() virtual public pure returns(string memory) {... */\n        tag_25:\n            /* \"contracts-lecture/230516-1.sol\":1242:1255  string memory */\n          0x60\n            /* \"contracts-lecture/230516-1.sol\":1267:1288  return \"dad from DAD\" */\n          mload(0x40)\n          dup1\n          0x40\n          add\n          0x40\n          mstore\n          dup1\n          0x0c\n          dup2\n          mstore\n          0x20\n          add\n          0x6461642066726f6d204441440000000000000000000000000000000000000000\n          dup2\n          mstore\n          pop\n          swap1\n          pop\n            /* \"contracts-lecture/230516-1.sol\":1199:1295  function who() virtual public pure returns(string memory) {... */\n          swap1\n          jump\t// out\n            /* \"contracts-lecture/230516-1.sol\":1757:1823  function changeWallet(uint _n) public {... */\n        tag_30:\n            /* \"contracts-lecture/230516-1.sol\":1814:1816  _n */\n          dup1\n            /* \"contracts-lecture/230516-1.sol\":1805:1811  wallet */\n          0x01\n            /* \"contracts-lecture/230516-1.sol\":1805:1816  wallet = _n */\n          dup2\n          swap1\n          sstore\n          pop\n            /* \"contracts-lecture/230516-1.sol\":1757:1823  function changeWallet(uint _n) public {... */\n          pop\n          jump\t// out\n            /* \"#utility.yul\":7:133   */\n        tag_36:\n            /* \"#utility.yul\":44:51   */\n          0x00\n            /* \"#utility.yul\":84:126   */\n          0xffffffffffffffffffffffffffffffffffffffff\n            /* \"#utility.yul\":77:82   */\n          dup3\n            /* \"#utility.yul\":73:127   */\n          and\n            /* \"#utility.yul\":62:127   */\n          swap1\n          pop\n            /* \"#utility.yul\":7:133   */\n          swap2\n          swap1\n          pop\n          jump\t// out\n            /* \"#utility.yul\":139:235   */\n        tag_37:\n            /* \"#utility.yul\":176:183   */\n          0x00\n            /* \"#utility.yul\":205:229   */\n          tag_54\n            /* \"#utility.yul\":223:228   */\n          dup3\n            /* \"#utility.yul\":205:229   */\n          tag_36\n          jump\t// in\n        tag_54:\n            /* \"#utility.yul\":194:229   */\n          swap1\n          pop\n            /* \"#utility.yul\":139:235   */\n          swap2\n          swap1\n          pop\n          jump\t// out\n            /* \"#utility.yul\":241:359   */\n        tag_38:\n            /* \"#utility.yul\":328:352   */\n          tag_56\n            /* \"#utility.yul\":346:351   */\n          dup2\n            /* \"#utility.yul\":328:352   */\n          tag_37\n          jump\t// in\n        tag_56:\n            /* \"#utility.yul\":323:326   */\n          dup3\n            /* \"#utility.yul\":316:353   */\n          mstore\n            /* \"#utility.yul\":241:359   */\n          pop\n          pop\n          jump\t// out\n            /* \"#utility.yul\":365:587   */\n        tag_12:\n            /* \"#utility.yul\":458:462   */\n          0x00\n            /* \"#utility.yul\":496:498   */\n          0x20\n            /* \"#utility.yul\":485:494   */\n          dup3\n            /* \"#utility.yul\":481:499   */\n          add\n            /* \"#utility.yul\":473:499   */\n          swap1\n          pop\n            /* \"#utility.yul\":509:580   */\n          tag_58\n            /* \"#utility.yul\":577:578   */\n          0x00\n            /* \"#utility.yul\":566:575   */\n          dup4\n            /* \"#utility.yul\":562:579   */\n          add\n            /* \"#utility.yul\":553:559   */\n          dup5\n            /* \"#utility.yul\":509:580   */\n          tag_38\n          jump\t// in\n        tag_58:\n            /* \"#utility.yul\":365:587   */\n          swap3\n          swap2\n          pop\n          pop\n          jump\t// out\n            /* \"#utility.yul\":593:692   */\n        tag_39:\n            /* \"#utility.yul\":645:651   */\n          0x00\n            /* \"#utility.yul\":679:684   */\n          dup2\n            /* \"#utility.yul\":673:685   */\n          mload\n            /* \"#utility.yul\":663:685   */\n          swap1\n          pop\n            /* \"#utility.yul\":593:692   */\n          swap2\n          swap1\n          pop\n          jump\t// out\n            /* \"#utility.yul\":698:867   */\n        tag_40:\n            /* \"#utility.yul\":782:793   */\n          0x00\n            /* \"#utility.yul\":816:822   */\n          dup3\n            /* \"#utility.yul\":811:814   */\n          dup3\n            /* \"#utility.yul\":804:823   */\n          mstore\n            /* \"#utility.yul\":856:860   */\n          0x20\n            /* \"#utility.yul\":851:854   */\n          dup3\n            /* \"#utility.yul\":847:861   */\n          add\n            /* \"#utility.yul\":832:861   */\n          swap1\n          pop\n            /* \"#utility.yul\":698:867   */\n          swap3\n          swap2\n          pop\n          pop\n          jump\t// out\n            /* \"#utility.yul\":873:1119   */\n        tag_41:\n            /* \"#utility.yul\":954:955   */\n          0x00\n            /* \"#utility.yul\":964:1077   */\n        tag_62:\n            /* \"#utility.yul\":978:984   */\n          dup4\n            /* \"#utility.yul\":975:976   */\n          dup2\n            /* \"#utility.yul\":972:985   */\n          lt\n            /* \"#utility.yul\":964:1077   */\n          iszero\n          tag_64\n          jumpi\n            /* \"#utility.yul\":1063:1064   */\n          dup1\n            /* \"#utility.yul\":1058:1061   */\n          dup3\n            /* \"#utility.yul\":1054:1065   */\n          add\n            /* \"#utility.yul\":1048:1066   */\n          mload\n            /* \"#utility.yul\":1044:1045   */\n          dup2\n            /* \"#utility.yul\":1039:1042   */\n          dup5\n            /* \"#utility.yul\":1035:1046   */\n          add\n            /* \"#utility.yul\":1028:1067   */\n          mstore\n            /* \"#utility.yul\":1000:1002   */\n          0x20\n            /* \"#utility.yul\":997:998   */\n          dup2\n            /* \"#utility.yul\":993:1003   */\n          add\n            /* \"#utility.yul\":988:1003   */\n          swap1\n          pop\n            /* \"#utility.yul\":964:1077   */\n          jump(tag_62)\n        tag_64:\n            /* \"#utility.yul\":1111:1112   */\n          0x00\n            /* \"#utility.yul\":1102:1108   */\n          dup5\n            /* \"#utility.yul\":1097:1100   */\n          dup5\n            /* \"#utility.yul\":1093:1109   */\n          add\n            /* \"#utility.yul\":1086:1113   */\n          mstore\n            /* \"#utility.yul\":935:1119   */\n          pop\n            /* \"#utility.yul\":873:1119   */\n          pop\n          pop\n          pop\n          jump\t// out\n            /* \"#utility.yul\":1125:1227   */\n        tag_42:\n            /* \"#utility.yul\":1166:1172   */\n          0x00\n            /* \"#utility.yul\":1217:1219   */\n          0x1f\n            /* \"#utility.yul\":1213:1220   */\n          not\n            /* \"#utility.yul\":1208:1210   */\n          0x1f\n            /* \"#utility.yul\":1201:1206   */\n          dup4\n            /* \"#utility.yul\":1197:1211   */\n          add\n            /* \"#utility.yul\":1193:1221   */\n          and\n            /* \"#utility.yul\":1183:1221   */\n          swap1\n          pop\n            /* \"#utility.yul\":1125:1227   */\n          swap2\n          swap1\n          pop\n          jump\t// out\n            /* \"#utility.yul\":1233:1610   */\n        tag_43:\n            /* \"#utility.yul\":1321:1324   */\n          0x00\n            /* \"#utility.yul\":1349:1388   */\n          tag_67\n            /* \"#utility.yul\":1382:1387   */\n          dup3\n            /* \"#utility.yul\":1349:1388   */\n          tag_39\n          jump\t// in\n        tag_67:\n            /* \"#utility.yul\":1404:1475   */\n          tag_68\n            /* \"#utility.yul\":1468:1474   */\n          dup2\n            /* \"#utility.yul\":1463:1466   */\n          dup6\n            /* \"#utility.yul\":1404:1475   */\n          tag_40\n          jump\t// in\n        tag_68:\n            /* \"#utility.yul\":1397:1475   */\n          swap4\n          pop\n            /* \"#utility.yul\":1484:1549   */\n          tag_69\n            /* \"#utility.yul\":1542:1548   */\n          dup2\n            /* \"#utility.yul\":1537:1540   */\n          dup6\n            /* \"#utility.yul\":1530:1534   */\n          0x20\n            /* \"#utility.yul\":1523:1528   */\n          dup7\n            /* \"#utility.yul\":1519:1535   */\n          add\n            /* \"#utility.yul\":1484:1549   */\n          tag_41\n          jump\t// in\n        tag_69:\n            /* \"#utility.yul\":1574:1603   */\n          tag_70\n            /* \"#utility.yul\":1596:1602   */\n          dup2\n            /* \"#utility.yul\":1574:1603   */\n          tag_42\n          jump\t// in\n        tag_70:\n            /* \"#utility.yul\":1569:1572   */\n          dup5\n            /* \"#utility.yul\":1565:1604   */\n          add\n            /* \"#utility.yul\":1558:1604   */\n          swap2\n          pop\n            /* \"#utility.yul\":1325:1610   */\n          pop\n            /* \"#utility.yul\":1233:1610   */\n          swap3\n          swap2\n          pop\n          pop\n          jump\t// out\n            /* \"#utility.yul\":1616:1929   */\n        tag_16:\n            /* \"#utility.yul\":1729:1733   */\n          0x00\n            /* \"#utility.yul\":1767:1769   */\n          0x20\n            /* \"#utility.yul\":1756:1765   */\n          dup3\n            /* \"#utility.yul\":1752:1770   */\n          add\n            /* \"#utility.yul\":1744:1770   */\n          swap1\n          pop\n            /* \"#utility.yul\":1816:1825   */\n          dup2\n            /* \"#utility.yul\":1810:1814   */\n          dup2\n            /* \"#utility.yul\":1806:1826   */\n          sub\n            /* \"#utility.yul\":1802:1803   */\n          0x00\n            /* \"#utility.yul\":1791:1800   */\n          dup4\n            /* \"#utility.yul\":1787:1804   */\n          add\n            /* \"#utility.yul\":1780:1827   */\n          mstore\n            /* \"#utility.yul\":1844:1922   */\n          tag_72\n            /* \"#utility.yul\":1917:1921   */\n          dup2\n            /* \"#utility.yul\":1908:1914   */\n          dup5\n            /* \"#utility.yul\":1844:1922   */\n          tag_43\n          jump\t// in\n        tag_72:\n            /* \"#utility.yul\":1836:1922   */\n          swap1\n          pop\n            /* \"#utility.yul\":1616:1929   */\n          swap3\n          swap2\n          pop\n          pop\n          jump\t// out\n            /* \"#utility.yul\":1935:2012   */\n        tag_44:\n            /* \"#utility.yul\":1972:1979   */\n          0x00\n            /* \"#utility.yul\":2001:2006   */\n          dup2\n            /* \"#utility.yul\":1990:2006   */\n          swap1\n          pop\n            /* \"#utility.yul\":1935:2012   */\n          swap2\n          swap1\n          pop\n          jump\t// out\n            /* \"#utility.yul\":2018:2136   */\n        tag_45:\n            /* \"#utility.yul\":2105:2129   */\n          tag_75\n            /* \"#utility.yul\":2123:2128   */\n          dup2\n            /* \"#utility.yul\":2105:2129   */\n          tag_44\n          jump\t// in\n        tag_75:\n            /* \"#utility.yul\":2100:2103   */\n          dup3\n            /* \"#utility.yul\":2093:2130   */\n          mstore\n            /* \"#utility.yul\":2018:2136   */\n          pop\n          pop\n          jump\t// out\n            /* \"#utility.yul\":2142:2364   */\n        tag_20:\n            /* \"#utility.yul\":2235:2239   */\n          0x00\n            /* \"#utility.yul\":2273:2275   */\n          0x20\n            /* \"#utility.yul\":2262:2271   */\n          dup3\n            /* \"#utility.yul\":2258:2276   */\n          add\n            /* \"#utility.yul\":2250:2276   */\n          swap1\n          pop\n            /* \"#utility.yul\":2286:2357   */\n          tag_77\n            /* \"#utility.yul\":2354:2355   */\n          0x00\n            /* \"#utility.yul\":2343:2352   */\n          dup4\n            /* \"#utility.yul\":2339:2356   */\n          add\n            /* \"#utility.yul\":2330:2336   */\n          dup5\n            /* \"#utility.yul\":2286:2357   */\n          tag_45\n          jump\t// in\n        tag_77:\n            /* \"#utility.yul\":2142:2364   */\n          swap3\n          swap2\n          pop\n          pop\n          jump\t// out\n            /* \"#utility.yul\":2451:2568   */\n        tag_47:\n            /* \"#utility.yul\":2560:2561   */\n          0x00\n            /* \"#utility.yul\":2557:2558   */\n          dup1\n            /* \"#utility.yul\":2550:2562   */\n          revert\n            /* \"#utility.yul\":2697:2819   */\n        tag_49:\n            /* \"#utility.yul\":2770:2794   */\n          tag_82\n            /* \"#utility.yul\":2788:2793   */\n          dup2\n            /* \"#utility.yul\":2770:2794   */\n          tag_44\n          jump\t// in\n        tag_82:\n            /* \"#utility.yul\":2763:2768   */\n          dup2\n            /* \"#utility.yul\":2760:2795   */\n          eq\n            /* \"#utility.yul\":2750:2813   */\n          tag_83\n          jumpi\n            /* \"#utility.yul\":2809:2810   */\n          0x00\n            /* \"#utility.yul\":2806:2807   */\n          dup1\n            /* \"#utility.yul\":2799:2811   */\n          revert\n            /* \"#utility.yul\":2750:2813   */\n        tag_83:\n            /* \"#utility.yul\":2697:2819   */\n          pop\n          jump\t// out\n            /* \"#utility.yul\":2825:2964   */\n        tag_50:\n            /* \"#utility.yul\":2871:2876   */\n          0x00\n            /* \"#utility.yul\":2909:2915   */\n          dup2\n            /* \"#utility.yul\":2896:2916   */\n          calldataload\n            /* \"#utility.yul\":2887:2916   */\n          swap1\n          pop\n            /* \"#utility.yul\":2925:2958   */\n          tag_85\n            /* \"#utility.yul\":2952:2957   */\n          dup2\n            /* \"#utility.yul\":2925:2958   */\n          tag_49\n          jump\t// in\n        tag_85:\n            /* \"#utility.yul\":2825:2964   */\n          swap3\n          swap2\n          pop\n          pop\n          jump\t// out\n            /* \"#utility.yul\":2970:3299   */\n        tag_29:\n            /* \"#utility.yul\":3029:3035   */\n          0x00\n            /* \"#utility.yul\":3078:3080   */\n          0x20\n            /* \"#utility.yul\":3066:3075   */\n          dup3\n            /* \"#utility.yul\":3057:3064   */\n          dup5\n            /* \"#utility.yul\":3053:3076   */\n          sub\n            /* \"#utility.yul\":3049:3081   */\n          slt\n            /* \"#utility.yul\":3046:3165   */\n          iszero\n          tag_87\n          jumpi\n            /* \"#utility.yul\":3084:3163   */\n          tag_88\n          tag_47\n          jump\t// in\n        tag_88:\n            /* \"#utility.yul\":3046:3165   */\n        tag_87:\n            /* \"#utility.yul\":3204:3205   */\n          0x00\n            /* \"#utility.yul\":3229:3282   */\n          tag_89\n            /* \"#utility.yul\":3274:3281   */\n          dup5\n            /* \"#utility.yul\":3265:3271   */\n          dup3\n            /* \"#utility.yul\":3254:3263   */\n          dup6\n            /* \"#utility.yul\":3250:3272   */\n          add\n            /* \"#utility.yul\":3229:3282   */\n          tag_50\n          jump\t// in\n        tag_89:\n            /* \"#utility.yul\":3219:3282   */\n          swap2\n          pop\n            /* \"#utility.yul\":3175:3292   */\n          pop\n            /* \"#utility.yul\":2970:3299   */\n          swap3\n          swap2\n          pop\n          pop\n          jump\t// out\n\n        auxdata: 0xa26469706673582212201e48c265d58d8685c4a8f8d46af3a8faebf5f2800ce6371301364f446b0152d664736f6c63430008120033\n    }\n}\n",
				"bytecode": {
					"linkReferences": {},
					"object": "608060405260646001556103e8600255612710600355604051610021906100f9565b604051809103906000f08015801561003d573d6000803e3d6000fd5b50600460006101000a81548173ffffffffffffffffffffffffffffffffffffffff021916908373ffffffffffffffffffffffffffffffffffffffff16021790555060405161008a906100f9565b604051809103906000f0801580156100a6573d6000803e3d6000fd5b50600560006101000a81548173ffffffffffffffffffffffffffffffffffffffff021916908373ffffffffffffffffffffffffffffffffffffffff1602179055503480156100f357600080fd5b50610106565b6103ba80610b6683390190565b610a51806101156000396000f3fe608060405234801561001057600080fd5b50600436106101215760003560e01c80638930e187116100ad578063d6d21dfd11610071578063d6d21dfd146102ca578063f0e79e29146102e8578063f7b7bb9214610306578063f9aff3f014610324578063fb22f7151461034257610121565b80638930e18714610234578063a252a25b14610252578063bfc8b3bc14610270578063c2e86e291461028e578063cb987324146102ac57610121565b80636ef09944116100f45780636ef099441461019e5780637a6ce2e1146101bc5780637e498940146101da5780638149837d146101f85780638903e8121461021657610121565b8063194fc6ea1461012657806338cc4831146101445780634d2e03a014610162578063521eb27314610180575b600080fd5b61012e61035e565b60405161013b9190610821565b60405180910390f35b61014c6103f6565b6040516101599190610821565b60405180910390f35b61016a6103fe565b60405161017791906108cc565b60405180910390f35b61018861043b565b6040516101959190610907565b60405180910390f35b6101a6610441565b6040516101b39190610821565b60405180910390f35b6101c46104d9565b6040516101d19190610821565b60405180910390f35b6101e26104e1565b6040516101ef9190610821565b60405180910390f35b61020061050b565b60405161020d9190610821565b60405180910390f35b61021e61051a565b60405161022b9190610821565b60405180910390f35b61023c610544565b6040516102499190610821565b60405180910390f35b61025a610553565b6040516102679190610821565b60405180910390f35b6102786105eb565b60405161028591906108cc565b60405180910390f35b6102966105fa565b6040516102a39190610907565b60405180910390f35b6102b4610604565b6040516102c19190610821565b60405180910390f35b6102d261069c565b6040516102df91906108cc565b60405180910390f35b6102f06106ab565b6040516102fd9190610907565b60405180910390f35b61030e6106b5565b60405161031b9190610821565b60405180910390f35b61032c6106c4565b6040516103399190610907565b60405180910390f35b61035c60048036038101906103579190610953565b61075c565b005b6000600560009054906101000a900473ffffffffffffffffffffffffffffffffffffffff1673ffffffffffffffffffffffffffffffffffffffff16637a6ce2e16040518163ffffffff1660e01b8152600401602060405180830381865afa1580156103cd573d6000803e3d6000fd5b505050506040513d601f19601f820116820180604052508101906103f191906109ac565b905090565b600030905090565b60606040518060400160405280600881526020017f6e6f7420676f6f64000000000000000000000000000000000000000000000000815250905090565b60015481565b6000600560009054906101000a900473ffffffffffffffffffffffffffffffffffffffff1673ffffffffffffffffffffffffffffffffffffffff166338cc48316040518163ffffffff1660e01b8152600401602060405180830381865afa1580156104b0573d6000803e3d6000fd5b505050506040513d601f19601f820116820180604052508101906104d491906109ac565b905090565b600033905090565b6000600460009054906101000a900473ffffffffffffffffffffffffffffffffffffffff16905090565b60006105156103f6565b905090565b6000600560009054906101000a900473ffffffffffffffffffffffffffffffffffffffff16905090565b600061054e6104d9565b905090565b6000600460009054906101000a900473ffffffffffffffffffffffffffffffffffffffff1673ffffffffffffffffffffffffffffffffffffffff16637a6ce2e16040518163ffffffff1660e01b8152600401602060405180830381865afa1580156105c2573d6000803e3d6000fd5b505050506040513d601f19601f820116820180604052508101906105e691906109ac565b905090565b60606105f5610766565b905090565b6000600154905090565b6000600460009054906101000a900473ffffffffffffffffffffffffffffffffffffffff1673ffffffffffffffffffffffffffffffffffffffff166338cc48316040518163ffffffff1660e01b8152600401602060405180830381865afa158015610673573d6000803e3d6000fd5b505050506040513d601f19601f8201168201806040525081019061069791906109ac565b905090565b60606106a66107a3565b905090565b6000600254905090565b60006106bf6103f6565b905090565b6000600460009054906101000a900473ffffffffffffffffffffffffffffffffffffffff1673ffffffffffffffffffffffffffffffffffffffff1663521eb2736040518163ffffffff1660e01b8152600401602060405180830381865afa158015610733573d6000803e3d6000fd5b505050506040513d601f19601f8201168201806040525081019061075791906109ee565b905090565b8060018190555050565b60606040518060400160405280600581526020017f4461766964000000000000000000000000000000000000000000000000000000815250905090565b60606040518060400160405280600c81526020017f6461642066726f6d204441440000000000000000000000000000000000000000815250905090565b600073ffffffffffffffffffffffffffffffffffffffff82169050919050565b600061080b826107e0565b9050919050565b61081b81610800565b82525050565b60006020820190506108366000830184610812565b92915050565b600081519050919050565b600082825260208201905092915050565b60005b8381101561087657808201518184015260208101905061085b565b60008484015250505050565b6000601f19601f8301169050919050565b600061089e8261083c565b6108a88185610847565b93506108b8818560208601610858565b6108c181610882565b840191505092915050565b600060208201905081810360008301526108e68184610893565b905092915050565b6000819050919050565b610901816108ee565b82525050565b600060208201905061091c60008301846108f8565b92915050565b600080fd5b610930816108ee565b811461093b57600080fd5b50565b60008135905061094d81610927565b92915050565b60006020828403121561096957610968610922565b5b60006109778482850161093e565b91505092915050565b61098981610800565b811461099457600080fd5b50565b6000815190506109a681610980565b92915050565b6000602082840312156109c2576109c1610922565b5b60006109d084828501610997565b91505092915050565b6000815190506109e881610927565b92915050565b600060208284031215610a0457610a03610922565b5b6000610a12848285016109d9565b9150509291505056fea26469706673582212209aa075269c082ce3b7ac0675698754c6b28d2db57949efc51124b0f85743f2cc64736f6c63430008120033608060405260646001556103e860025561271060035534801561002157600080fd5b50610389806100316000396000f3fe608060405234801561001057600080fd5b50600436106100625760003560e01c806338cc4831146100675780634d2e03a014610085578063521eb273146100a35780637a6ce2e1146100c1578063d6d21dfd146100df578063fb22f715146100fd575b600080fd5b61006f610119565b60405161007c91906101f4565b60405180910390f35b61008d610121565b60405161009a919061029f565b60405180910390f35b6100ab61015e565b6040516100b891906102da565b60405180910390f35b6100c9610164565b6040516100d691906101f4565b60405180910390f35b6100e761016c565b6040516100f4919061029f565b60405180910390f35b61011760048036038101906101129190610326565b6101a9565b005b600030905090565b60606040518060400160405280600881526020017f6e6f7420676f6f64000000000000000000000000000000000000000000000000815250905090565b60015481565b600033905090565b60606040518060400160405280600c81526020017f6461642066726f6d204441440000000000000000000000000000000000000000815250905090565b8060018190555050565b600073ffffffffffffffffffffffffffffffffffffffff82169050919050565b60006101de826101b3565b9050919050565b6101ee816101d3565b82525050565b600060208201905061020960008301846101e5565b92915050565b600081519050919050565b600082825260208201905092915050565b60005b8381101561024957808201518184015260208101905061022e565b60008484015250505050565b6000601f19601f8301169050919050565b60006102718261020f565b61027b818561021a565b935061028b81856020860161022b565b61029481610255565b840191505092915050565b600060208201905081810360008301526102b98184610266565b905092915050565b6000819050919050565b6102d4816102c1565b82525050565b60006020820190506102ef60008301846102cb565b92915050565b600080fd5b610303816102c1565b811461030e57600080fd5b50565b600081359050610320816102fa565b92915050565b60006020828403121561033c5761033b6102f5565b5b600061034a84828501610311565b9150509291505056fea26469706673582212201e48c265d58d8685c4a8f8d46af3a8faebf5f2800ce6371301364f446b0152d664736f6c63430008120033",
					"opcodes": "PUSH1 0x80 PUSH1 0x40 MSTORE PUSH1 0x64 PUSH1 0x1 SSTORE PUSH2 0x3E8 PUSH1 0x2 SSTORE PUSH2 0x2710 PUSH1 0x3 SSTORE PUSH1 0x40 MLOAD PUSH2 0x21 SWAP1 PUSH2 0xF9 JUMP JUMPDEST PUSH1 0x40 MLOAD DUP1 SWAP2 SUB SWAP1 PUSH1 0x0 CREATE DUP1 ISZERO DUP1 ISZERO PUSH2 0x3D JUMPI RETURNDATASIZE PUSH1 0x0 DUP1 RETURNDATACOPY RETURNDATASIZE PUSH1 0x0 REVERT JUMPDEST POP PUSH1 0x4 PUSH1 0x0 PUSH2 0x100 EXP DUP2 SLOAD DUP2 PUSH20 0xFFFFFFFFFFFFFFFFFFFFFFFFFFFFFFFFFFFFFFFF MUL NOT AND SWAP1 DUP4 PUSH20 0xFFFFFFFFFFFFFFFFFFFFFFFFFFFFFFFFFFFFFFFF AND MUL OR SWAP1 SSTORE POP PUSH1 0x40 MLOAD PUSH2 0x8A SWAP1 PUSH2 0xF9 JUMP JUMPDEST PUSH1 0x40 MLOAD DUP1 SWAP2 SUB SWAP1 PUSH1 0x0 CREATE DUP1 ISZERO DUP1 ISZERO PUSH2 0xA6 JUMPI RETURNDATASIZE PUSH1 0x0 DUP1 RETURNDATACOPY RETURNDATASIZE PUSH1 0x0 REVERT JUMPDEST POP PUSH1 0x5 PUSH1 0x0 PUSH2 0x100 EXP DUP2 SLOAD DUP2 PUSH20 0xFFFFFFFFFFFFFFFFFFFFFFFFFFFFFFFFFFFFFFFF MUL NOT AND SWAP1 DUP4 PUSH20 0xFFFFFFFFFFFFFFFFFFFFFFFFFFFFFFFFFFFFFFFF AND MUL OR SWAP1 SSTORE POP CALLVALUE DUP1 ISZERO PUSH2 0xF3 JUMPI PUSH1 0x0 DUP1 REVERT JUMPDEST POP PUSH2 0x106 JUMP JUMPDEST PUSH2 0x3BA DUP1 PUSH2 0xB66 DUP4 CODECOPY ADD SWAP1 JUMP JUMPDEST PUSH2 0xA51 DUP1 PUSH2 0x115 PUSH1 0x0 CODECOPY PUSH1 0x0 RETURN INVALID PUSH1 0x80 PUSH1 0x40 MSTORE CALLVALUE DUP1 ISZERO PUSH2 0x10 JUMPI PUSH1 0x0 DUP1 REVERT JUMPDEST POP PUSH1 0x4 CALLDATASIZE LT PUSH2 0x121 JUMPI PUSH1 0x0 CALLDATALOAD PUSH1 0xE0 SHR DUP1 PUSH4 0x8930E187 GT PUSH2 0xAD JUMPI DUP1 PUSH4 0xD6D21DFD GT PUSH2 0x71 JUMPI DUP1 PUSH4 0xD6D21DFD EQ PUSH2 0x2CA JUMPI DUP1 PUSH4 0xF0E79E29 EQ PUSH2 0x2E8 JUMPI DUP1 PUSH4 0xF7B7BB92 EQ PUSH2 0x306 JUMPI DUP1 PUSH4 0xF9AFF3F0 EQ PUSH2 0x324 JUMPI DUP1 PUSH4 0xFB22F715 EQ PUSH2 0x342 JUMPI PUSH2 0x121 JUMP JUMPDEST DUP1 PUSH4 0x8930E187 EQ PUSH2 0x234 JUMPI DUP1 PUSH4 0xA252A25B EQ PUSH2 0x252 JUMPI DUP1 PUSH4 0xBFC8B3BC EQ PUSH2 0x270 JUMPI DUP1 PUSH4 0xC2E86E29 EQ PUSH2 0x28E JUMPI DUP1 PUSH4 0xCB987324 EQ PUSH2 0x2AC JUMPI PUSH2 0x121 JUMP JUMPDEST DUP1 PUSH4 0x6EF09944 GT PUSH2 0xF4 JUMPI DUP1 PUSH4 0x6EF09944 EQ PUSH2 0x19E JUMPI DUP1 PUSH4 0x7A6CE2E1 EQ PUSH2 0x1BC JUMPI DUP1 PUSH4 0x7E498940 EQ PUSH2 0x1DA JUMPI DUP1 PUSH4 0x8149837D EQ PUSH2 0x1F8 JUMPI DUP1 PUSH4 0x8903E812 EQ PUSH2 0x216 JUMPI PUSH2 0x121 JUMP JUMPDEST DUP1 PUSH4 0x194FC6EA EQ PUSH2 0x126 JUMPI DUP1 PUSH4 0x38CC4831 EQ PUSH2 0x144 JUMPI DUP1 PUSH4 0x4D2E03A0 EQ PUSH2 0x162 JUMPI DUP1 PUSH4 0x521EB273 EQ PUSH2 0x180 JUMPI JUMPDEST PUSH1 0x0 DUP1 REVERT JUMPDEST PUSH2 0x12E PUSH2 0x35E JUMP JUMPDEST PUSH1 0x40 MLOAD PUSH2 0x13B SWAP2 SWAP1 PUSH2 0x821 JUMP JUMPDEST PUSH1 0x40 MLOAD DUP1 SWAP2 SUB SWAP1 RETURN JUMPDEST PUSH2 0x14C PUSH2 0x3F6 JUMP JUMPDEST PUSH1 0x40 MLOAD PUSH2 0x159 SWAP2 SWAP1 PUSH2 0x821 JUMP JUMPDEST PUSH1 0x40 MLOAD DUP1 SWAP2 SUB SWAP1 RETURN JUMPDEST PUSH2 0x16A PUSH2 0x3FE JUMP JUMPDEST PUSH1 0x40 MLOAD PUSH2 0x177 SWAP2 SWAP1 PUSH2 0x8CC JUMP JUMPDEST PUSH1 0x40 MLOAD DUP1 SWAP2 SUB SWAP1 RETURN JUMPDEST PUSH2 0x188 PUSH2 0x43B JUMP JUMPDEST PUSH1 0x40 MLOAD PUSH2 0x195 SWAP2 SWAP1 PUSH2 0x907 JUMP JUMPDEST PUSH1 0x40 MLOAD DUP1 SWAP2 SUB SWAP1 RETURN JUMPDEST PUSH2 0x1A6 PUSH2 0x441 JUMP JUMPDEST PUSH1 0x40 MLOAD PUSH2 0x1B3 SWAP2 SWAP1 PUSH2 0x821 JUMP JUMPDEST PUSH1 0x40 MLOAD DUP1 SWAP2 SUB SWAP1 RETURN JUMPDEST PUSH2 0x1C4 PUSH2 0x4D9 JUMP JUMPDEST PUSH1 0x40 MLOAD PUSH2 0x1D1 SWAP2 SWAP1 PUSH2 0x821 JUMP JUMPDEST PUSH1 0x40 MLOAD DUP1 SWAP2 SUB SWAP1 RETURN JUMPDEST PUSH2 0x1E2 PUSH2 0x4E1 JUMP JUMPDEST PUSH1 0x40 MLOAD PUSH2 0x1EF SWAP2 SWAP1 PUSH2 0x821 JUMP JUMPDEST PUSH1 0x40 MLOAD DUP1 SWAP2 SUB SWAP1 RETURN JUMPDEST PUSH2 0x200 PUSH2 0x50B JUMP JUMPDEST PUSH1 0x40 MLOAD PUSH2 0x20D SWAP2 SWAP1 PUSH2 0x821 JUMP JUMPDEST PUSH1 0x40 MLOAD DUP1 SWAP2 SUB SWAP1 RETURN JUMPDEST PUSH2 0x21E PUSH2 0x51A JUMP JUMPDEST PUSH1 0x40 MLOAD PUSH2 0x22B SWAP2 SWAP1 PUSH2 0x821 JUMP JUMPDEST PUSH1 0x40 MLOAD DUP1 SWAP2 SUB SWAP1 RETURN JUMPDEST PUSH2 0x23C PUSH2 0x544 JUMP JUMPDEST PUSH1 0x40 MLOAD PUSH2 0x249 SWAP2 SWAP1 PUSH2 0x821 JUMP JUMPDEST PUSH1 0x40 MLOAD DUP1 SWAP2 SUB SWAP1 RETURN JUMPDEST PUSH2 0x25A PUSH2 0x553 JUMP JUMPDEST PUSH1 0x40 MLOAD PUSH2 0x267 SWAP2 SWAP1 PUSH2 0x821 JUMP JUMPDEST PUSH1 0x40 MLOAD DUP1 SWAP2 SUB SWAP1 RETURN JUMPDEST PUSH2 0x278 PUSH2 0x5EB JUMP JUMPDEST PUSH1 0x40 MLOAD PUSH2 0x285 SWAP2 SWAP1 PUSH2 0x8CC JUMP JUMPDEST PUSH1 0x40 MLOAD DUP1 SWAP2 SUB SWAP1 RETURN JUMPDEST PUSH2 0x296 PUSH2 0x5FA JUMP JUMPDEST PUSH1 0x40 MLOAD PUSH2 0x2A3 SWAP2 SWAP1 PUSH2 0x907 JUMP JUMPDEST PUSH1 0x40 MLOAD DUP1 SWAP2 SUB SWAP1 RETURN JUMPDEST PUSH2 0x2B4 PUSH2 0x604 JUMP JUMPDEST PUSH1 0x40 MLOAD PUSH2 0x2C1 SWAP2 SWAP1 PUSH2 0x821 JUMP JUMPDEST PUSH1 0x40 MLOAD DUP1 SWAP2 SUB SWAP1 RETURN JUMPDEST PUSH2 0x2D2 PUSH2 0x69C JUMP JUMPDEST PUSH1 0x40 MLOAD PUSH2 0x2DF SWAP2 SWAP1 PUSH2 0x8CC JUMP JUMPDEST PUSH1 0x40 MLOAD DUP1 SWAP2 SUB SWAP1 RETURN JUMPDEST PUSH2 0x2F0 PUSH2 0x6AB JUMP JUMPDEST PUSH1 0x40 MLOAD PUSH2 0x2FD SWAP2 SWAP1 PUSH2 0x907 JUMP JUMPDEST PUSH1 0x40 MLOAD DUP1 SWAP2 SUB SWAP1 RETURN JUMPDEST PUSH2 0x30E PUSH2 0x6B5 JUMP JUMPDEST PUSH1 0x40 MLOAD PUSH2 0x31B SWAP2 SWAP1 PUSH2 0x821 JUMP JUMPDEST PUSH1 0x40 MLOAD DUP1 SWAP2 SUB SWAP1 RETURN JUMPDEST PUSH2 0x32C PUSH2 0x6C4 JUMP JUMPDEST PUSH1 0x40 MLOAD PUSH2 0x339 SWAP2 SWAP1 PUSH2 0x907 JUMP JUMPDEST PUSH1 0x40 MLOAD DUP1 SWAP2 SUB SWAP1 RETURN JUMPDEST PUSH2 0x35C PUSH1 0x4 DUP1 CALLDATASIZE SUB DUP2 ADD SWAP1 PUSH2 0x357 SWAP2 SWAP1 PUSH2 0x953 JUMP JUMPDEST PUSH2 0x75C JUMP JUMPDEST STOP JUMPDEST PUSH1 0x0 PUSH1 0x5 PUSH1 0x0 SWAP1 SLOAD SWAP1 PUSH2 0x100 EXP SWAP1 DIV PUSH20 0xFFFFFFFFFFFFFFFFFFFFFFFFFFFFFFFFFFFFFFFF AND PUSH20 0xFFFFFFFFFFFFFFFFFFFFFFFFFFFFFFFFFFFFFFFF AND PUSH4 0x7A6CE2E1 PUSH1 0x40 MLOAD DUP2 PUSH4 0xFFFFFFFF AND PUSH1 0xE0 SHL DUP2 MSTORE PUSH1 0x4 ADD PUSH1 0x20 PUSH1 0x40 MLOAD DUP1 DUP4 SUB DUP2 DUP7 GAS STATICCALL ISZERO DUP1 ISZERO PUSH2 0x3CD JUMPI RETURNDATASIZE PUSH1 0x0 DUP1 RETURNDATACOPY RETURNDATASIZE PUSH1 0x0 REVERT JUMPDEST POP POP POP POP PUSH1 0x40 MLOAD RETURNDATASIZE PUSH1 0x1F NOT PUSH1 0x1F DUP3 ADD AND DUP3 ADD DUP1 PUSH1 0x40 MSTORE POP DUP2 ADD SWAP1 PUSH2 0x3F1 SWAP2 SWAP1 PUSH2 0x9AC JUMP JUMPDEST SWAP1 POP SWAP1 JUMP JUMPDEST PUSH1 0x0 ADDRESS SWAP1 POP SWAP1 JUMP JUMPDEST PUSH1 0x60 PUSH1 0x40 MLOAD DUP1 PUSH1 0x40 ADD PUSH1 0x40 MSTORE DUP1 PUSH1 0x8 DUP2 MSTORE PUSH1 0x20 ADD PUSH32 0x6E6F7420676F6F64000000000000000000000000000000000000000000000000 DUP2 MSTORE POP SWAP1 POP SWAP1 JUMP JUMPDEST PUSH1 0x1 SLOAD DUP2 JUMP JUMPDEST PUSH1 0x0 PUSH1 0x5 PUSH1 0x0 SWAP1 SLOAD SWAP1 PUSH2 0x100 EXP SWAP1 DIV PUSH20 0xFFFFFFFFFFFFFFFFFFFFFFFFFFFFFFFFFFFFFFFF AND PUSH20 0xFFFFFFFFFFFFFFFFFFFFFFFFFFFFFFFFFFFFFFFF AND PUSH4 0x38CC4831 PUSH1 0x40 MLOAD DUP2 PUSH4 0xFFFFFFFF AND PUSH1 0xE0 SHL DUP2 MSTORE PUSH1 0x4 ADD PUSH1 0x20 PUSH1 0x40 MLOAD DUP1 DUP4 SUB DUP2 DUP7 GAS STATICCALL ISZERO DUP1 ISZERO PUSH2 0x4B0 JUMPI RETURNDATASIZE PUSH1 0x0 DUP1 RETURNDATACOPY RETURNDATASIZE PUSH1 0x0 REVERT JUMPDEST POP POP POP POP PUSH1 0x40 MLOAD RETURNDATASIZE PUSH1 0x1F NOT PUSH1 0x1F DUP3 ADD AND DUP3 ADD DUP1 PUSH1 0x40 MSTORE POP DUP2 ADD SWAP1 PUSH2 0x4D4 SWAP2 SWAP1 PUSH2 0x9AC JUMP JUMPDEST SWAP1 POP SWAP1 JUMP JUMPDEST PUSH1 0x0 CALLER SWAP1 POP SWAP1 JUMP JUMPDEST PUSH1 0x0 PUSH1 0x4 PUSH1 0x0 SWAP1 SLOAD SWAP1 PUSH2 0x100 EXP SWAP1 DIV PUSH20 0xFFFFFFFFFFFFFFFFFFFFFFFFFFFFFFFFFFFFFFFF AND SWAP1 POP SWAP1 JUMP JUMPDEST PUSH1 0x0 PUSH2 0x515 PUSH2 0x3F6 JUMP JUMPDEST SWAP1 POP SWAP1 JUMP JUMPDEST PUSH1 0x0 PUSH1 0x5 PUSH1 0x0 SWAP1 SLOAD SWAP1 PUSH2 0x100 EXP SWAP1 DIV PUSH20 0xFFFFFFFFFFFFFFFFFFFFFFFFFFFFFFFFFFFFFFFF AND SWAP1 POP SWAP1 JUMP JUMPDEST PUSH1 0x0 PUSH2 0x54E PUSH2 0x4D9 JUMP JUMPDEST SWAP1 POP SWAP1 JUMP JUMPDEST PUSH1 0x0 PUSH1 0x4 PUSH1 0x0 SWAP1 SLOAD SWAP1 PUSH2 0x100 EXP SWAP1 DIV PUSH20 0xFFFFFFFFFFFFFFFFFFFFFFFFFFFFFFFFFFFFFFFF AND PUSH20 0xFFFFFFFFFFFFFFFFFFFFFFFFFFFFFFFFFFFFFFFF AND PUSH4 0x7A6CE2E1 PUSH1 0x40 MLOAD DUP2 PUSH4 0xFFFFFFFF AND PUSH1 0xE0 SHL DUP2 MSTORE PUSH1 0x4 ADD PUSH1 0x20 PUSH1 0x40 MLOAD DUP1 DUP4 SUB DUP2 DUP7 GAS STATICCALL ISZERO DUP1 ISZERO PUSH2 0x5C2 JUMPI RETURNDATASIZE PUSH1 0x0 DUP1 RETURNDATACOPY RETURNDATASIZE PUSH1 0x0 REVERT JUMPDEST POP POP POP POP PUSH1 0x40 MLOAD RETURNDATASIZE PUSH1 0x1F NOT PUSH1 0x1F DUP3 ADD AND DUP3 ADD DUP1 PUSH1 0x40 MSTORE POP DUP2 ADD SWAP1 PUSH2 0x5E6 SWAP2 SWAP1 PUSH2 0x9AC JUMP JUMPDEST SWAP1 POP SWAP1 JUMP JUMPDEST PUSH1 0x60 PUSH2 0x5F5 PUSH2 0x766 JUMP JUMPDEST SWAP1 POP SWAP1 JUMP JUMPDEST PUSH1 0x0 PUSH1 0x1 SLOAD SWAP1 POP SWAP1 JUMP JUMPDEST PUSH1 0x0 PUSH1 0x4 PUSH1 0x0 SWAP1 SLOAD SWAP1 PUSH2 0x100 EXP SWAP1 DIV PUSH20 0xFFFFFFFFFFFFFFFFFFFFFFFFFFFFFFFFFFFFFFFF AND PUSH20 0xFFFFFFFFFFFFFFFFFFFFFFFFFFFFFFFFFFFFFFFF AND PUSH4 0x38CC4831 PUSH1 0x40 MLOAD DUP2 PUSH4 0xFFFFFFFF AND PUSH1 0xE0 SHL DUP2 MSTORE PUSH1 0x4 ADD PUSH1 0x20 PUSH1 0x40 MLOAD DUP1 DUP4 SUB DUP2 DUP7 GAS STATICCALL ISZERO DUP1 ISZERO PUSH2 0x673 JUMPI RETURNDATASIZE PUSH1 0x0 DUP1 RETURNDATACOPY RETURNDATASIZE PUSH1 0x0 REVERT JUMPDEST POP POP POP POP PUSH1 0x40 MLOAD RETURNDATASIZE PUSH1 0x1F NOT PUSH1 0x1F DUP3 ADD AND DUP3 ADD DUP1 PUSH1 0x40 MSTORE POP DUP2 ADD SWAP1 PUSH2 0x697 SWAP2 SWAP1 PUSH2 0x9AC JUMP JUMPDEST SWAP1 POP SWAP1 JUMP JUMPDEST PUSH1 0x60 PUSH2 0x6A6 PUSH2 0x7A3 JUMP JUMPDEST SWAP1 POP SWAP1 JUMP JUMPDEST PUSH1 0x0 PUSH1 0x2 SLOAD SWAP1 POP SWAP1 JUMP JUMPDEST PUSH1 0x0 PUSH2 0x6BF PUSH2 0x3F6 JUMP JUMPDEST SWAP1 POP SWAP1 JUMP JUMPDEST PUSH1 0x0 PUSH1 0x4 PUSH1 0x0 SWAP1 SLOAD SWAP1 PUSH2 0x100 EXP SWAP1 DIV PUSH20 0xFFFFFFFFFFFFFFFFFFFFFFFFFFFFFFFFFFFFFFFF AND PUSH20 0xFFFFFFFFFFFFFFFFFFFFFFFFFFFFFFFFFFFFFFFF AND PUSH4 0x521EB273 PUSH1 0x40 MLOAD DUP2 PUSH4 0xFFFFFFFF AND PUSH1 0xE0 SHL DUP2 MSTORE PUSH1 0x4 ADD PUSH1 0x20 PUSH1 0x40 MLOAD DUP1 DUP4 SUB DUP2 DUP7 GAS STATICCALL ISZERO DUP1 ISZERO PUSH2 0x733 JUMPI RETURNDATASIZE PUSH1 0x0 DUP1 RETURNDATACOPY RETURNDATASIZE PUSH1 0x0 REVERT JUMPDEST POP POP POP POP PUSH1 0x40 MLOAD RETURNDATASIZE PUSH1 0x1F NOT PUSH1 0x1F DUP3 ADD AND DUP3 ADD DUP1 PUSH1 0x40 MSTORE POP DUP2 ADD SWAP1 PUSH2 0x757 SWAP2 SWAP1 PUSH2 0x9EE JUMP JUMPDEST SWAP1 POP SWAP1 JUMP JUMPDEST DUP1 PUSH1 0x1 DUP2 SWAP1 SSTORE POP POP JUMP JUMPDEST PUSH1 0x60 PUSH1 0x40 MLOAD DUP1 PUSH1 0x40 ADD PUSH1 0x40 MSTORE DUP1 PUSH1 0x5 DUP2 MSTORE PUSH1 0x20 ADD PUSH32 0x4461766964000000000000000000000000000000000000000000000000000000 DUP2 MSTORE POP SWAP1 POP SWAP1 JUMP JUMPDEST PUSH1 0x60 PUSH1 0x40 MLOAD DUP1 PUSH1 0x40 ADD PUSH1 0x40 MSTORE DUP1 PUSH1 0xC DUP2 MSTORE PUSH1 0x20 ADD PUSH32 0x6461642066726F6D204441440000000000000000000000000000000000000000 DUP2 MSTORE POP SWAP1 POP SWAP1 JUMP JUMPDEST PUSH1 0x0 PUSH20 0xFFFFFFFFFFFFFFFFFFFFFFFFFFFFFFFFFFFFFFFF DUP3 AND SWAP1 POP SWAP2 SWAP1 POP JUMP JUMPDEST PUSH1 0x0 PUSH2 0x80B DUP3 PUSH2 0x7E0 JUMP JUMPDEST SWAP1 POP SWAP2 SWAP1 POP JUMP JUMPDEST PUSH2 0x81B DUP2 PUSH2 0x800 JUMP JUMPDEST DUP3 MSTORE POP POP JUMP JUMPDEST PUSH1 0x0 PUSH1 0x20 DUP3 ADD SWAP1 POP PUSH2 0x836 PUSH1 0x0 DUP4 ADD DUP5 PUSH2 0x812 JUMP JUMPDEST SWAP3 SWAP2 POP POP JUMP JUMPDEST PUSH1 0x0 DUP2 MLOAD SWAP1 POP SWAP2 SWAP1 POP JUMP JUMPDEST PUSH1 0x0 DUP3 DUP3 MSTORE PUSH1 0x20 DUP3 ADD SWAP1 POP SWAP3 SWAP2 POP POP JUMP JUMPDEST PUSH1 0x0 JUMPDEST DUP4 DUP2 LT ISZERO PUSH2 0x876 JUMPI DUP1 DUP3 ADD MLOAD DUP2 DUP5 ADD MSTORE PUSH1 0x20 DUP2 ADD SWAP1 POP PUSH2 0x85B JUMP JUMPDEST PUSH1 0x0 DUP5 DUP5 ADD MSTORE POP POP POP POP JUMP JUMPDEST PUSH1 0x0 PUSH1 0x1F NOT PUSH1 0x1F DUP4 ADD AND SWAP1 POP SWAP2 SWAP1 POP JUMP JUMPDEST PUSH1 0x0 PUSH2 0x89E DUP3 PUSH2 0x83C JUMP JUMPDEST PUSH2 0x8A8 DUP2 DUP6 PUSH2 0x847 JUMP JUMPDEST SWAP4 POP PUSH2 0x8B8 DUP2 DUP6 PUSH1 0x20 DUP7 ADD PUSH2 0x858 JUMP JUMPDEST PUSH2 0x8C1 DUP2 PUSH2 0x882 JUMP JUMPDEST DUP5 ADD SWAP2 POP POP SWAP3 SWAP2 POP POP JUMP JUMPDEST PUSH1 0x0 PUSH1 0x20 DUP3 ADD SWAP1 POP DUP2 DUP2 SUB PUSH1 0x0 DUP4 ADD MSTORE PUSH2 0x8E6 DUP2 DUP5 PUSH2 0x893 JUMP JUMPDEST SWAP1 POP SWAP3 SWAP2 POP POP JUMP JUMPDEST PUSH1 0x0 DUP2 SWAP1 POP SWAP2 SWAP1 POP JUMP JUMPDEST PUSH2 0x901 DUP2 PUSH2 0x8EE JUMP JUMPDEST DUP3 MSTORE POP POP JUMP JUMPDEST PUSH1 0x0 PUSH1 0x20 DUP3 ADD SWAP1 POP PUSH2 0x91C PUSH1 0x0 DUP4 ADD DUP5 PUSH2 0x8F8 JUMP JUMPDEST SWAP3 SWAP2 POP POP JUMP JUMPDEST PUSH1 0x0 DUP1 REVERT JUMPDEST PUSH2 0x930 DUP2 PUSH2 0x8EE JUMP JUMPDEST DUP2 EQ PUSH2 0x93B JUMPI PUSH1 0x0 DUP1 REVERT JUMPDEST POP JUMP JUMPDEST PUSH1 0x0 DUP2 CALLDATALOAD SWAP1 POP PUSH2 0x94D DUP2 PUSH2 0x927 JUMP JUMPDEST SWAP3 SWAP2 POP POP JUMP JUMPDEST PUSH1 0x0 PUSH1 0x20 DUP3 DUP5 SUB SLT ISZERO PUSH2 0x969 JUMPI PUSH2 0x968 PUSH2 0x922 JUMP JUMPDEST JUMPDEST PUSH1 0x0 PUSH2 0x977 DUP5 DUP3 DUP6 ADD PUSH2 0x93E JUMP JUMPDEST SWAP2 POP POP SWAP3 SWAP2 POP POP JUMP JUMPDEST PUSH2 0x989 DUP2 PUSH2 0x800 JUMP JUMPDEST DUP2 EQ PUSH2 0x994 JUMPI PUSH1 0x0 DUP1 REVERT JUMPDEST POP JUMP JUMPDEST PUSH1 0x0 DUP2 MLOAD SWAP1 POP PUSH2 0x9A6 DUP2 PUSH2 0x980 JUMP JUMPDEST SWAP3 SWAP2 POP POP JUMP JUMPDEST PUSH1 0x0 PUSH1 0x20 DUP3 DUP5 SUB SLT ISZERO PUSH2 0x9C2 JUMPI PUSH2 0x9C1 PUSH2 0x922 JUMP JUMPDEST JUMPDEST PUSH1 0x0 PUSH2 0x9D0 DUP5 DUP3 DUP6 ADD PUSH2 0x997 JUMP JUMPDEST SWAP2 POP POP SWAP3 SWAP2 POP POP JUMP JUMPDEST PUSH1 0x0 DUP2 MLOAD SWAP1 POP PUSH2 0x9E8 DUP2 PUSH2 0x927 JUMP JUMPDEST SWAP3 SWAP2 POP POP JUMP JUMPDEST PUSH1 0x0 PUSH1 0x20 DUP3 DUP5 SUB SLT ISZERO PUSH2 0xA04 JUMPI PUSH2 0xA03 PUSH2 0x922 JUMP JUMPDEST JUMPDEST PUSH1 0x0 PUSH2 0xA12 DUP5 DUP3 DUP6 ADD PUSH2 0x9D9 JUMP JUMPDEST SWAP2 POP POP SWAP3 SWAP2 POP POP JUMP INVALID LOG2 PUSH5 0x6970667358 0x22 SLT KECCAK256 SWAP11 LOG0 PUSH22 0x269C082CE3B7AC0675698754C6B28D2DB57949EFC511 0x24 0xB0 0xF8 JUMPI NUMBER CALLCODE 0xCC PUSH5 0x736F6C6343 STOP ADDMOD SLT STOP CALLER PUSH1 0x80 PUSH1 0x40 MSTORE PUSH1 0x64 PUSH1 0x1 SSTORE PUSH2 0x3E8 PUSH1 0x2 SSTORE PUSH2 0x2710 PUSH1 0x3 SSTORE CALLVALUE DUP1 ISZERO PUSH2 0x21 JUMPI PUSH1 0x0 DUP1 REVERT JUMPDEST POP PUSH2 0x389 DUP1 PUSH2 0x31 PUSH1 0x0 CODECOPY PUSH1 0x0 RETURN INVALID PUSH1 0x80 PUSH1 0x40 MSTORE CALLVALUE DUP1 ISZERO PUSH2 0x10 JUMPI PUSH1 0x0 DUP1 REVERT JUMPDEST POP PUSH1 0x4 CALLDATASIZE LT PUSH2 0x62 JUMPI PUSH1 0x0 CALLDATALOAD PUSH1 0xE0 SHR DUP1 PUSH4 0x38CC4831 EQ PUSH2 0x67 JUMPI DUP1 PUSH4 0x4D2E03A0 EQ PUSH2 0x85 JUMPI DUP1 PUSH4 0x521EB273 EQ PUSH2 0xA3 JUMPI DUP1 PUSH4 0x7A6CE2E1 EQ PUSH2 0xC1 JUMPI DUP1 PUSH4 0xD6D21DFD EQ PUSH2 0xDF JUMPI DUP1 PUSH4 0xFB22F715 EQ PUSH2 0xFD JUMPI JUMPDEST PUSH1 0x0 DUP1 REVERT JUMPDEST PUSH2 0x6F PUSH2 0x119 JUMP JUMPDEST PUSH1 0x40 MLOAD PUSH2 0x7C SWAP2 SWAP1 PUSH2 0x1F4 JUMP JUMPDEST PUSH1 0x40 MLOAD DUP1 SWAP2 SUB SWAP1 RETURN JUMPDEST PUSH2 0x8D PUSH2 0x121 JUMP JUMPDEST PUSH1 0x40 MLOAD PUSH2 0x9A SWAP2 SWAP1 PUSH2 0x29F JUMP JUMPDEST PUSH1 0x40 MLOAD DUP1 SWAP2 SUB SWAP1 RETURN JUMPDEST PUSH2 0xAB PUSH2 0x15E JUMP JUMPDEST PUSH1 0x40 MLOAD PUSH2 0xB8 SWAP2 SWAP1 PUSH2 0x2DA JUMP JUMPDEST PUSH1 0x40 MLOAD DUP1 SWAP2 SUB SWAP1 RETURN JUMPDEST PUSH2 0xC9 PUSH2 0x164 JUMP JUMPDEST PUSH1 0x40 MLOAD PUSH2 0xD6 SWAP2 SWAP1 PUSH2 0x1F4 JUMP JUMPDEST PUSH1 0x40 MLOAD DUP1 SWAP2 SUB SWAP1 RETURN JUMPDEST PUSH2 0xE7 PUSH2 0x16C JUMP JUMPDEST PUSH1 0x40 MLOAD PUSH2 0xF4 SWAP2 SWAP1 PUSH2 0x29F JUMP JUMPDEST PUSH1 0x40 MLOAD DUP1 SWAP2 SUB SWAP1 RETURN JUMPDEST PUSH2 0x117 PUSH1 0x4 DUP1 CALLDATASIZE SUB DUP2 ADD SWAP1 PUSH2 0x112 SWAP2 SWAP1 PUSH2 0x326 JUMP JUMPDEST PUSH2 0x1A9 JUMP JUMPDEST STOP JUMPDEST PUSH1 0x0 ADDRESS SWAP1 POP SWAP1 JUMP JUMPDEST PUSH1 0x60 PUSH1 0x40 MLOAD DUP1 PUSH1 0x40 ADD PUSH1 0x40 MSTORE DUP1 PUSH1 0x8 DUP2 MSTORE PUSH1 0x20 ADD PUSH32 0x6E6F7420676F6F64000000000000000000000000000000000000000000000000 DUP2 MSTORE POP SWAP1 POP SWAP1 JUMP JUMPDEST PUSH1 0x1 SLOAD DUP2 JUMP JUMPDEST PUSH1 0x0 CALLER SWAP1 POP SWAP1 JUMP JUMPDEST PUSH1 0x60 PUSH1 0x40 MLOAD DUP1 PUSH1 0x40 ADD PUSH1 0x40 MSTORE DUP1 PUSH1 0xC DUP2 MSTORE PUSH1 0x20 ADD PUSH32 0x6461642066726F6D204441440000000000000000000000000000000000000000 DUP2 MSTORE POP SWAP1 POP SWAP1 JUMP JUMPDEST DUP1 PUSH1 0x1 DUP2 SWAP1 SSTORE POP POP JUMP JUMPDEST PUSH1 0x0 PUSH20 0xFFFFFFFFFFFFFFFFFFFFFFFFFFFFFFFFFFFFFFFF DUP3 AND SWAP1 POP SWAP2 SWAP1 POP JUMP JUMPDEST PUSH1 0x0 PUSH2 0x1DE DUP3 PUSH2 0x1B3 JUMP JUMPDEST SWAP1 POP SWAP2 SWAP1 POP JUMP JUMPDEST PUSH2 0x1EE DUP2 PUSH2 0x1D3 JUMP JUMPDEST DUP3 MSTORE POP POP JUMP JUMPDEST PUSH1 0x0 PUSH1 0x20 DUP3 ADD SWAP1 POP PUSH2 0x209 PUSH1 0x0 DUP4 ADD DUP5 PUSH2 0x1E5 JUMP JUMPDEST SWAP3 SWAP2 POP POP JUMP JUMPDEST PUSH1 0x0 DUP2 MLOAD SWAP1 POP SWAP2 SWAP1 POP JUMP JUMPDEST PUSH1 0x0 DUP3 DUP3 MSTORE PUSH1 0x20 DUP3 ADD SWAP1 POP SWAP3 SWAP2 POP POP JUMP JUMPDEST PUSH1 0x0 JUMPDEST DUP4 DUP2 LT ISZERO PUSH2 0x249 JUMPI DUP1 DUP3 ADD MLOAD DUP2 DUP5 ADD MSTORE PUSH1 0x20 DUP2 ADD SWAP1 POP PUSH2 0x22E JUMP JUMPDEST PUSH1 0x0 DUP5 DUP5 ADD MSTORE POP POP POP POP JUMP JUMPDEST PUSH1 0x0 PUSH1 0x1F NOT PUSH1 0x1F DUP4 ADD AND SWAP1 POP SWAP2 SWAP1 POP JUMP JUMPDEST PUSH1 0x0 PUSH2 0x271 DUP3 PUSH2 0x20F JUMP JUMPDEST PUSH2 0x27B DUP2 DUP6 PUSH2 0x21A JUMP JUMPDEST SWAP4 POP PUSH2 0x28B DUP2 DUP6 PUSH1 0x20 DUP7 ADD PUSH2 0x22B JUMP JUMPDEST PUSH2 0x294 DUP2 PUSH2 0x255 JUMP JUMPDEST DUP5 ADD SWAP2 POP POP SWAP3 SWAP2 POP POP JUMP JUMPDEST PUSH1 0x0 PUSH1 0x20 DUP3 ADD SWAP1 POP DUP2 DUP2 SUB PUSH1 0x0 DUP4 ADD MSTORE PUSH2 0x2B9 DUP2 DUP5 PUSH2 0x266 JUMP JUMPDEST SWAP1 POP SWAP3 SWAP2 POP POP JUMP JUMPDEST PUSH1 0x0 DUP2 SWAP1 POP SWAP2 SWAP1 POP JUMP JUMPDEST PUSH2 0x2D4 DUP2 PUSH2 0x2C1 JUMP JUMPDEST DUP3 MSTORE POP POP JUMP JUMPDEST PUSH1 0x0 PUSH1 0x20 DUP3 ADD SWAP1 POP PUSH2 0x2EF PUSH1 0x0 DUP4 ADD DUP5 PUSH2 0x2CB JUMP JUMPDEST SWAP3 SWAP2 POP POP JUMP JUMPDEST PUSH1 0x0 DUP1 REVERT JUMPDEST PUSH2 0x303 DUP2 PUSH2 0x2C1 JUMP JUMPDEST DUP2 EQ PUSH2 0x30E JUMPI PUSH1 0x0 DUP1 REVERT JUMPDEST POP JUMP JUMPDEST PUSH1 0x0 DUP2 CALLDATALOAD SWAP1 POP PUSH2 0x320 DUP2 PUSH2 0x2FA JUMP JUMPDEST SWAP3 SWAP2 POP POP JUMP JUMPDEST PUSH1 0x0 PUSH1 0x20 DUP3 DUP5 SUB SLT ISZERO PUSH2 0x33C JUMPI PUSH2 0x33B PUSH2 0x2F5 JUMP JUMPDEST JUMPDEST PUSH1 0x0 PUSH2 0x34A DUP5 DUP3 DUP6 ADD PUSH2 0x311 JUMP JUMPDEST SWAP2 POP POP SWAP3 SWAP2 POP POP JUMP INVALID LOG2 PUSH5 0x6970667358 0x22 SLT KECCAK256 0x1E BASEFEE 0xC2 PUSH6 0xD58D8685C4A8 0xF8 0xD4 PUSH11 0xF3A8FAEBF5F2800CE63713 ADD CALLDATASIZE 0x4F PREVRANDAO PUSH12 0x152D664736F6C6343000812 STOP CALLER "
				},
				"gasEstimates": {
					"creation": {
						"codeDepositCost": "528200",
						"executionCost": "infinite",
						"totalCost": "infinite"
					},
					"external": {
						"changeWallet(uint256)": "22630",
						"character()": "infinite",
						"dadGetMsgSender()": "443",
						"daddyGetMsgSender()": "infinite",
						"daddyGetMsgSender2()": "infinite",
						"fathersAddress()": "509",
						"fathersAddress2()": "486",
						"fathersCrypto()": "2481",
						"fathersName()": "infinite",
						"fathersWallet()": "2526",
						"fathersWallet2()": "infinite",
						"getAddress()": "431",
						"getDaddy2Address()": "2633",
						"getDaddy2Address2()": "infinite",
						"getDaddyAddress()": "2589",
						"getDaddyAddress2()": "infinite",
						"getMsgSender()": "430",
						"wallet()": "2519",
						"who()": "infinite"
					}
				},
				"methodIdentifiers": {
					"changeWallet(uint256)": "fb22f715",
					"character()": "4d2e03a0",
					"dadGetMsgSender()": "8930e187",
					"daddyGetMsgSender()": "a252a25b",
					"daddyGetMsgSender2()": "194fc6ea",
					"fathersAddress()": "8149837d",
					"fathersAddress2()": "f7b7bb92",
					"fathersCrypto()": "f0e79e29",
					"fathersName()": "bfc8b3bc",
					"fathersWallet()": "c2e86e29",
					"fathersWallet2()": "f9aff3f0",
					"getAddress()": "38cc4831",
					"getDaddy2Address()": "8903e812",
					"getDaddy2Address2()": "6ef09944",
					"getDaddyAddress()": "7e498940",
					"getDaddyAddress2()": "cb987324",
					"getMsgSender()": "7a6ce2e1",
					"wallet()": "521eb273",
					"who()": "d6d21dfd"
				}
			},
			"storageLayout": {
				"storage": [
					{
						"astId": 140,
						"contract": "contracts-lecture/230516-1.sol:CHILD",
						"label": "a",
						"offset": 0,
						"slot": "0",
						"type": "t_uint256"
					},
					{
						"astId": 143,
						"contract": "contracts-lecture/230516-1.sol:CHILD",
						"label": "wallet",
						"offset": 0,
						"slot": "1",
						"type": "t_uint256"
					},
					{
						"astId": 146,
						"contract": "contracts-lecture/230516-1.sol:CHILD",
						"label": "crypto",
						"offset": 0,
						"slot": "2",
						"type": "t_uint256"
					},
					{
						"astId": 149,
						"contract": "contracts-lecture/230516-1.sol:CHILD",
						"label": "emergency",
						"offset": 0,
						"slot": "3",
						"type": "t_uint256"
					},
					{
						"astId": 413,
						"contract": "contracts-lecture/230516-1.sol:CHILD",
						"label": "daddy",
						"offset": 0,
						"slot": "4",
						"type": "t_contract(DAD)212"
					},
					{
						"astId": 420,
						"contract": "contracts-lecture/230516-1.sol:CHILD",
						"label": "daddy2",
						"offset": 0,
						"slot": "5",
						"type": "t_contract(DAD)212"
					}
				],
				"types": {
					"t_contract(DAD)212": {
						"encoding": "inplace",
						"label": "contract DAD",
						"numberOfBytes": "20"
					},
					"t_uint256": {
						"encoding": "inplace",
						"label": "uint256",
						"numberOfBytes": "32"
					}
				}
			},
			"userdoc": {
				"kind": "user",
				"methods": {},
				"version": 1
			}
		}
	}
}