{
	"contracts-lecture/230509-3.sol": {
		"MAPPING": {
			"abi": [
				{
					"inputs": [
						{
							"internalType": "string",
							"name": "_Teacher",
							"type": "string"
						}
					],
					"name": "getTeacher_Class",
					"outputs": [
						{
							"components": [
								{
									"internalType": "uint256",
									"name": "number",
									"type": "uint256"
								},
								{
									"internalType": "string",
									"name": "name",
									"type": "string"
								},
								{
									"internalType": "string[]",
									"name": "classes",
									"type": "string[]"
								}
							],
							"internalType": "struct MAPPING.Student[]",
							"name": "",
							"type": "tuple[]"
						}
					],
					"stateMutability": "view",
					"type": "function"
				},
				{
					"inputs": [
						{
							"internalType": "string",
							"name": "_Teacher",
							"type": "string"
						}
					],
					"name": "getTeacher_Student",
					"outputs": [
						{
							"components": [
								{
									"internalType": "uint256",
									"name": "number",
									"type": "uint256"
								},
								{
									"internalType": "string",
									"name": "name",
									"type": "string"
								},
								{
									"internalType": "string[]",
									"name": "classes",
									"type": "string[]"
								}
							],
							"internalType": "struct MAPPING.Student",
							"name": "",
							"type": "tuple"
						}
					],
					"stateMutability": "view",
					"type": "function"
				},
				{
					"inputs": [
						{
							"internalType": "string",
							"name": "_Teacher",
							"type": "string"
						},
						{
							"internalType": "uint256",
							"name": "_number",
							"type": "uint256"
						},
						{
							"internalType": "string",
							"name": "_name",
							"type": "string"
						},
						{
							"internalType": "string[]",
							"name": "_classes",
							"type": "string[]"
						}
					],
					"name": "setTeacher_Class",
					"outputs": [],
					"stateMutability": "nonpayable",
					"type": "function"
				},
				{
					"inputs": [
						{
							"internalType": "string",
							"name": "_Teacher",
							"type": "string"
						},
						{
							"internalType": "uint256",
							"name": "number",
							"type": "uint256"
						},
						{
							"internalType": "string",
							"name": "name",
							"type": "string"
						},
						{
							"internalType": "string[]",
							"name": "classes",
							"type": "string[]"
						}
					],
					"name": "setTeacher_Student",
					"outputs": [],
					"stateMutability": "nonpayable",
					"type": "function"
				}
			],
			"devdoc": {
				"kind": "dev",
				"methods": {},
				"version": 1
			},
			"evm": {
				"assembly": "    /* \"contracts-lecture/230509-3.sol\":358:1254  contract MAPPING {... */\n  mstore(0x40, 0x80)\n  callvalue\n  dup1\n  iszero\n  tag_1\n  jumpi\n  0x00\n  dup1\n  revert\ntag_1:\n  pop\n  dataSize(sub_0)\n  dup1\n  dataOffset(sub_0)\n  0x00\n  codecopy\n  0x00\n  return\nstop\n\nsub_0: assembly {\n        /* \"contracts-lecture/230509-3.sol\":358:1254  contract MAPPING {... */\n      mstore(0x40, 0x80)\n      callvalue\n      dup1\n      iszero\n      tag_1\n      jumpi\n      0x00\n      dup1\n      revert\n    tag_1:\n      pop\n      jumpi(tag_2, lt(calldatasize, 0x04))\n      shr(0xe0, calldataload(0x00))\n      dup1\n      0x031b1b72\n      eq\n      tag_3\n      jumpi\n      dup1\n      0xabe7405e\n      eq\n      tag_4\n      jumpi\n      dup1\n      0xc013118f\n      eq\n      tag_5\n      jumpi\n      dup1\n      0xce65e706\n      eq\n      tag_6\n      jumpi\n    tag_2:\n      0x00\n      dup1\n      revert\n        /* \"contracts-lecture/230509-3.sol\":1117:1252  function getTeacher_Class(string memory _Teacher) public view returns(Student[] memory) {... */\n    tag_3:\n      tag_7\n      0x04\n      dup1\n      calldatasize\n      sub\n      dup2\n      add\n      swap1\n      tag_8\n      swap2\n      swap1\n      tag_9\n      jump\t// in\n    tag_8:\n      tag_10\n      jump\t// in\n    tag_7:\n      mload(0x40)\n      tag_11\n      swap2\n      swap1\n      tag_12\n      jump\t// in\n    tag_11:\n      mload(0x40)\n      dup1\n      swap2\n      sub\n      swap1\n      return\n        /* \"contracts-lecture/230509-3.sol\":573:760  function setTeacher_Student(string memory _Teacher,uint number,string memory name,string[] memory classes) public {... */\n    tag_4:\n      tag_13\n      0x04\n      dup1\n      calldatasize\n      sub\n      dup2\n      add\n      swap1\n      tag_14\n      swap2\n      swap1\n      tag_15\n      jump\t// in\n    tag_14:\n      tag_16\n      jump\t// in\n    tag_13:\n      stop\n        /* \"contracts-lecture/230509-3.sol\":770:907  function getTeacher_Student(string memory _Teacher) public view returns(Student memory) {... */\n    tag_5:\n      tag_17\n      0x04\n      dup1\n      calldatasize\n      sub\n      dup2\n      add\n      swap1\n      tag_18\n      swap2\n      swap1\n      tag_9\n      jump\t// in\n    tag_18:\n      tag_19\n      jump\t// in\n    tag_17:\n      mload(0x40)\n      tag_20\n      swap2\n      swap1\n      tag_21\n      jump\t// in\n    tag_20:\n      mload(0x40)\n      dup1\n      swap2\n      sub\n      swap1\n      return\n        /* \"contracts-lecture/230509-3.sol\":913:1111  function setTeacher_Class(string memory _Teacher, uint _number, string memory _name, string[] memory _classes) public {... */\n    tag_6:\n      tag_22\n      0x04\n      dup1\n      calldatasize\n      sub\n      dup2\n      add\n      swap1\n      tag_23\n      swap2\n      swap1\n      tag_15\n      jump\t// in\n    tag_23:\n      tag_24\n      jump\t// in\n    tag_22:\n      stop\n        /* \"contracts-lecture/230509-3.sol\":1117:1252  function getTeacher_Class(string memory _Teacher) public view returns(Student[] memory) {... */\n    tag_10:\n        /* \"contracts-lecture/230509-3.sol\":1187:1203  Student[] memory */\n      0x60\n        /* \"contracts-lecture/230509-3.sol\":1222:1235  Teacher_Class */\n      0x01\n        /* \"contracts-lecture/230509-3.sol\":1236:1244  _Teacher */\n      dup3\n        /* \"contracts-lecture/230509-3.sol\":1222:1245  Teacher_Class[_Teacher] */\n      mload(0x40)\n      tag_26\n      swap2\n      swap1\n      tag_27\n      jump\t// in\n    tag_26:\n      swap1\n      dup2\n      mstore\n      0x20\n      add\n      mload(0x40)\n      dup1\n      swap2\n      sub\n      swap1\n      keccak256\n        /* \"contracts-lecture/230509-3.sol\":1215:1245  return Teacher_Class[_Teacher] */\n      dup1\n      sload\n      dup1\n      0x20\n      mul\n      0x20\n      add\n      mload(0x40)\n      swap1\n      dup2\n      add\n      0x40\n      mstore\n      dup1\n      swap3\n      swap2\n      swap1\n      dup2\n      dup2\n      mstore\n      0x20\n      add\n      0x00\n      swap1\n    tag_28:\n      dup3\n      dup3\n      lt\n      iszero\n      tag_29\n      jumpi\n      dup4\n      dup3\n      swap1\n      0x00\n      mstore\n      keccak256(0x00, 0x20)\n      swap1\n      0x03\n      mul\n      add\n      mload(0x40)\n      dup1\n      0x60\n      add\n      0x40\n      mstore\n      swap1\n      dup2\n      0x00\n      dup3\n      add\n      sload\n      dup2\n      mstore\n      0x20\n      add\n      0x01\n      dup3\n      add\n      dup1\n      sload\n      tag_31\n      swap1\n      tag_32\n      jump\t// in\n    tag_31:\n      dup1\n      0x1f\n      add\n      0x20\n      dup1\n      swap2\n      div\n      mul\n      0x20\n      add\n      mload(0x40)\n      swap1\n      dup2\n      add\n      0x40\n      mstore\n      dup1\n      swap3\n      swap2\n      swap1\n      dup2\n      dup2\n      mstore\n      0x20\n      add\n      dup3\n      dup1\n      sload\n      tag_33\n      swap1\n      tag_32\n      jump\t// in\n    tag_33:\n      dup1\n      iszero\n      tag_34\n      jumpi\n      dup1\n      0x1f\n      lt\n      tag_35\n      jumpi\n      0x0100\n      dup1\n      dup4\n      sload\n      div\n      mul\n      dup4\n      mstore\n      swap2\n      0x20\n      add\n      swap2\n      jump(tag_34)\n    tag_35:\n      dup3\n      add\n      swap2\n      swap1\n      0x00\n      mstore\n      keccak256(0x00, 0x20)\n      swap1\n    tag_36:\n      dup2\n      sload\n      dup2\n      mstore\n      swap1\n      0x01\n      add\n      swap1\n      0x20\n      add\n      dup1\n      dup4\n      gt\n      tag_36\n      jumpi\n      dup3\n      swap1\n      sub\n      0x1f\n      and\n      dup3\n      add\n      swap2\n    tag_34:\n      pop\n      pop\n      pop\n      pop\n      pop\n      dup2\n      mstore\n      0x20\n      add\n      0x02\n      dup3\n      add\n      dup1\n      sload\n      dup1\n      0x20\n      mul\n      0x20\n      add\n      mload(0x40)\n      swap1\n      dup2\n      add\n      0x40\n      mstore\n      dup1\n      swap3\n      swap2\n      swap1\n      dup2\n      dup2\n      mstore\n      0x20\n      add\n      0x00\n      swap1\n    tag_37:\n      dup3\n      dup3\n      lt\n      iszero\n      tag_38\n      jumpi\n      dup4\n      dup3\n      swap1\n      0x00\n      mstore\n      keccak256(0x00, 0x20)\n      add\n      dup1\n      sload\n      tag_40\n      swap1\n      tag_32\n      jump\t// in\n    tag_40:\n      dup1\n      0x1f\n      add\n      0x20\n      dup1\n      swap2\n      div\n      mul\n      0x20\n      add\n      mload(0x40)\n      swap1\n      dup2\n      add\n      0x40\n      mstore\n      dup1\n      swap3\n      swap2\n      swap1\n      dup2\n      dup2\n      mstore\n      0x20\n      add\n      dup3\n      dup1\n      sload\n      tag_41\n      swap1\n      tag_32\n      jump\t// in\n    tag_41:\n      dup1\n      iszero\n      tag_42\n      jumpi\n      dup1\n      0x1f\n      lt\n      tag_43\n      jumpi\n      0x0100\n      dup1\n      dup4\n      sload\n      div\n      mul\n      dup4\n      mstore\n      swap2\n      0x20\n      add\n      swap2\n      jump(tag_42)\n    tag_43:\n      dup3\n      add\n      swap2\n      swap1\n      0x00\n      mstore\n      keccak256(0x00, 0x20)\n      swap1\n    tag_44:\n      dup2\n      sload\n      dup2\n      mstore\n      swap1\n      0x01\n      add\n      swap1\n      0x20\n      add\n      dup1\n      dup4\n      gt\n      tag_44\n      jumpi\n      dup3\n      swap1\n      sub\n      0x1f\n      and\n      dup3\n      add\n      swap2\n    tag_42:\n      pop\n      pop\n      pop\n      pop\n      pop\n      dup2\n      mstore\n      0x20\n      add\n      swap1\n      0x01\n      add\n      swap1\n      jump(tag_37)\n    tag_38:\n      pop\n      pop\n      pop\n      pop\n      dup2\n      mstore\n      pop\n      pop\n      dup2\n      mstore\n      0x20\n      add\n      swap1\n      0x01\n      add\n      swap1\n      jump(tag_28)\n    tag_29:\n      pop\n      pop\n      pop\n      pop\n      swap1\n      pop\n        /* \"contracts-lecture/230509-3.sol\":1117:1252  function getTeacher_Class(string memory _Teacher) public view returns(Student[] memory) {... */\n      swap2\n      swap1\n      pop\n      jump\t// out\n        /* \"contracts-lecture/230509-3.sol\":573:760  function setTeacher_Student(string memory _Teacher,uint number,string memory name,string[] memory classes) public {... */\n    tag_16:\n        /* \"contracts-lecture/230509-3.sol\":725:753  Student(number,name,classes) */\n      mload(0x40)\n      dup1\n      0x60\n      add\n      0x40\n      mstore\n      dup1\n        /* \"contracts-lecture/230509-3.sol\":733:739  number */\n      dup5\n        /* \"contracts-lecture/230509-3.sol\":725:753  Student(number,name,classes) */\n      dup2\n      mstore\n      0x20\n      add\n        /* \"contracts-lecture/230509-3.sol\":740:744  name */\n      dup4\n        /* \"contracts-lecture/230509-3.sol\":725:753  Student(number,name,classes) */\n      dup2\n      mstore\n      0x20\n      add\n        /* \"contracts-lecture/230509-3.sol\":745:752  classes */\n      dup3\n        /* \"contracts-lecture/230509-3.sol\":725:753  Student(number,name,classes) */\n      dup2\n      mstore\n      pop\n        /* \"contracts-lecture/230509-3.sol\":697:712  Teacher_Student */\n      0x00\n        /* \"contracts-lecture/230509-3.sol\":713:721  _Teacher */\n      dup6\n        /* \"contracts-lecture/230509-3.sol\":697:722  Teacher_Student[_Teacher] */\n      mload(0x40)\n      tag_46\n      swap2\n      swap1\n      tag_27\n      jump\t// in\n    tag_46:\n      swap1\n      dup2\n      mstore\n      0x20\n      add\n      mload(0x40)\n      dup1\n      swap2\n      sub\n      swap1\n      keccak256\n        /* \"contracts-lecture/230509-3.sol\":697:753  Teacher_Student[_Teacher] = Student(number,name,classes) */\n      0x00\n      dup3\n      add\n      mload\n      dup2\n      0x00\n      add\n      sstore\n      0x20\n      dup3\n      add\n      mload\n      dup2\n      0x01\n      add\n      swap1\n      dup2\n      tag_47\n      swap2\n      swap1\n      tag_48\n      jump\t// in\n    tag_47:\n      pop\n      0x40\n      dup3\n      add\n      mload\n      dup2\n      0x02\n      add\n      swap1\n      dup1\n      mload\n      swap1\n      0x20\n      add\n      swap1\n      tag_49\n      swap3\n      swap2\n      swap1\n      tag_50\n      jump\t// in\n    tag_49:\n      pop\n      swap1\n      pop\n      pop\n        /* \"contracts-lecture/230509-3.sol\":573:760  function setTeacher_Student(string memory _Teacher,uint number,string memory name,string[] memory classes) public {... */\n      pop\n      pop\n      pop\n      pop\n      jump\t// out\n        /* \"contracts-lecture/230509-3.sol\":770:907  function getTeacher_Student(string memory _Teacher) public view returns(Student memory) {... */\n    tag_19:\n        /* \"contracts-lecture/230509-3.sol\":842:856  Student memory */\n      tag_51\n      tag_52\n      jump\t// in\n    tag_51:\n        /* \"contracts-lecture/230509-3.sol\":875:890  Teacher_Student */\n      0x00\n        /* \"contracts-lecture/230509-3.sol\":891:899  _Teacher */\n      dup3\n        /* \"contracts-lecture/230509-3.sol\":875:900  Teacher_Student[_Teacher] */\n      mload(0x40)\n      tag_54\n      swap2\n      swap1\n      tag_27\n      jump\t// in\n    tag_54:\n      swap1\n      dup2\n      mstore\n      0x20\n      add\n      mload(0x40)\n      dup1\n      swap2\n      sub\n      swap1\n      keccak256\n        /* \"contracts-lecture/230509-3.sol\":868:900  return Teacher_Student[_Teacher] */\n      mload(0x40)\n      dup1\n      0x60\n      add\n      0x40\n      mstore\n      swap1\n      dup2\n      0x00\n      dup3\n      add\n      sload\n      dup2\n      mstore\n      0x20\n      add\n      0x01\n      dup3\n      add\n      dup1\n      sload\n      tag_55\n      swap1\n      tag_32\n      jump\t// in\n    tag_55:\n      dup1\n      0x1f\n      add\n      0x20\n      dup1\n      swap2\n      div\n      mul\n      0x20\n      add\n      mload(0x40)\n      swap1\n      dup2\n      add\n      0x40\n      mstore\n      dup1\n      swap3\n      swap2\n      swap1\n      dup2\n      dup2\n      mstore\n      0x20\n      add\n      dup3\n      dup1\n      sload\n      tag_56\n      swap1\n      tag_32\n      jump\t// in\n    tag_56:\n      dup1\n      iszero\n      tag_57\n      jumpi\n      dup1\n      0x1f\n      lt\n      tag_58\n      jumpi\n      0x0100\n      dup1\n      dup4\n      sload\n      div\n      mul\n      dup4\n      mstore\n      swap2\n      0x20\n      add\n      swap2\n      jump(tag_57)\n    tag_58:\n      dup3\n      add\n      swap2\n      swap1\n      0x00\n      mstore\n      keccak256(0x00, 0x20)\n      swap1\n    tag_59:\n      dup2\n      sload\n      dup2\n      mstore\n      swap1\n      0x01\n      add\n      swap1\n      0x20\n      add\n      dup1\n      dup4\n      gt\n      tag_59\n      jumpi\n      dup3\n      swap1\n      sub\n      0x1f\n      and\n      dup3\n      add\n      swap2\n    tag_57:\n      pop\n      pop\n      pop\n      pop\n      pop\n      dup2\n      mstore\n      0x20\n      add\n      0x02\n      dup3\n      add\n      dup1\n      sload\n      dup1\n      0x20\n      mul\n      0x20\n      add\n      mload(0x40)\n      swap1\n      dup2\n      add\n      0x40\n      mstore\n      dup1\n      swap3\n      swap2\n      swap1\n      dup2\n      dup2\n      mstore\n      0x20\n      add\n      0x00\n      swap1\n    tag_60:\n      dup3\n      dup3\n      lt\n      iszero\n      tag_61\n      jumpi\n      dup4\n      dup3\n      swap1\n      0x00\n      mstore\n      keccak256(0x00, 0x20)\n      add\n      dup1\n      sload\n      tag_63\n      swap1\n      tag_32\n      jump\t// in\n    tag_63:\n      dup1\n      0x1f\n      add\n      0x20\n      dup1\n      swap2\n      div\n      mul\n      0x20\n      add\n      mload(0x40)\n      swap1\n      dup2\n      add\n      0x40\n      mstore\n      dup1\n      swap3\n      swap2\n      swap1\n      dup2\n      dup2\n      mstore\n      0x20\n      add\n      dup3\n      dup1\n      sload\n      tag_64\n      swap1\n      tag_32\n      jump\t// in\n    tag_64:\n      dup1\n      iszero\n      tag_65\n      jumpi\n      dup1\n      0x1f\n      lt\n      tag_66\n      jumpi\n      0x0100\n      dup1\n      dup4\n      sload\n      div\n      mul\n      dup4\n      mstore\n      swap2\n      0x20\n      add\n      swap2\n      jump(tag_65)\n    tag_66:\n      dup3\n      add\n      swap2\n      swap1\n      0x00\n      mstore\n      keccak256(0x00, 0x20)\n      swap1\n    tag_67:\n      dup2\n      sload\n      dup2\n      mstore\n      swap1\n      0x01\n      add\n      swap1\n      0x20\n      add\n      dup1\n      dup4\n      gt\n      tag_67\n      jumpi\n      dup3\n      swap1\n      sub\n      0x1f\n      and\n      dup3\n      add\n      swap2\n    tag_65:\n      pop\n      pop\n      pop\n      pop\n      pop\n      dup2\n      mstore\n      0x20\n      add\n      swap1\n      0x01\n      add\n      swap1\n      jump(tag_60)\n    tag_61:\n      pop\n      pop\n      pop\n      pop\n      dup2\n      mstore\n      pop\n      pop\n      swap1\n      pop\n        /* \"contracts-lecture/230509-3.sol\":770:907  function getTeacher_Student(string memory _Teacher) public view returns(Student memory) {... */\n      swap2\n      swap1\n      pop\n      jump\t// out\n        /* \"contracts-lecture/230509-3.sol\":913:1111  function setTeacher_Class(string memory _Teacher, uint _number, string memory _name, string[] memory _classes) public {... */\n    tag_24:\n        /* \"contracts-lecture/230509-3.sol\":1041:1054  Teacher_Class */\n      0x01\n        /* \"contracts-lecture/230509-3.sol\":1055:1063  _Teacher */\n      dup5\n        /* \"contracts-lecture/230509-3.sol\":1041:1064  Teacher_Class[_Teacher] */\n      mload(0x40)\n      tag_69\n      swap2\n      swap1\n      tag_27\n      jump\t// in\n    tag_69:\n      swap1\n      dup2\n      mstore\n      0x20\n      add\n      mload(0x40)\n      dup1\n      swap2\n      sub\n      swap1\n      keccak256\n        /* \"contracts-lecture/230509-3.sol\":1070:1103  Student(_number, _name, _classes) */\n      mload(0x40)\n      dup1\n      0x60\n      add\n      0x40\n      mstore\n      dup1\n        /* \"contracts-lecture/230509-3.sol\":1078:1085  _number */\n      dup6\n        /* \"contracts-lecture/230509-3.sol\":1070:1103  Student(_number, _name, _classes) */\n      dup2\n      mstore\n      0x20\n      add\n        /* \"contracts-lecture/230509-3.sol\":1087:1092  _name */\n      dup5\n        /* \"contracts-lecture/230509-3.sol\":1070:1103  Student(_number, _name, _classes) */\n      dup2\n      mstore\n      0x20\n      add\n        /* \"contracts-lecture/230509-3.sol\":1094:1102  _classes */\n      dup4\n        /* \"contracts-lecture/230509-3.sol\":1070:1103  Student(_number, _name, _classes) */\n      dup2\n      mstore\n      pop\n        /* \"contracts-lecture/230509-3.sol\":1041:1104  Teacher_Class[_Teacher].push(Student(_number, _name, _classes)) */\n      swap1\n      dup1\n      0x01\n      dup2\n      sload\n      add\n      dup1\n      dup3\n      sstore\n      dup1\n      swap2\n      pop\n      pop\n      0x01\n      swap1\n      sub\n      swap1\n      0x00\n      mstore\n      keccak256(0x00, 0x20)\n      swap1\n      0x03\n      mul\n      add\n      0x00\n      swap1\n      swap2\n      swap1\n      swap2\n      swap1\n      swap2\n      pop\n      0x00\n      dup3\n      add\n      mload\n      dup2\n      0x00\n      add\n      sstore\n      0x20\n      dup3\n      add\n      mload\n      dup2\n      0x01\n      add\n      swap1\n      dup2\n      tag_71\n      swap2\n      swap1\n      tag_48\n      jump\t// in\n    tag_71:\n      pop\n      0x40\n      dup3\n      add\n      mload\n      dup2\n      0x02\n      add\n      swap1\n      dup1\n      mload\n      swap1\n      0x20\n      add\n      swap1\n      tag_72\n      swap3\n      swap2\n      swap1\n      tag_50\n      jump\t// in\n    tag_72:\n      pop\n      pop\n      pop\n        /* \"contracts-lecture/230509-3.sol\":913:1111  function setTeacher_Class(string memory _Teacher, uint _number, string memory _name, string[] memory _classes) public {... */\n      pop\n      pop\n      pop\n      pop\n      jump\t// out\n    tag_50:\n      dup3\n      dup1\n      sload\n      dup3\n      dup3\n      sstore\n      swap1\n      0x00\n      mstore\n      keccak256(0x00, 0x20)\n      swap1\n      dup2\n      add\n      swap3\n      dup3\n      iszero\n      tag_73\n      jumpi\n      swap2\n      0x20\n      mul\n      dup3\n      add\n    tag_74:\n      dup3\n      dup2\n      gt\n      iszero\n      tag_75\n      jumpi\n      dup3\n      mload\n      dup3\n      swap1\n      dup2\n      tag_76\n      swap2\n      swap1\n      tag_48\n      jump\t// in\n    tag_76:\n      pop\n      swap2\n      0x20\n      add\n      swap2\n      swap1\n      0x01\n      add\n      swap1\n      jump(tag_74)\n    tag_75:\n    tag_73:\n      pop\n      swap1\n      pop\n      tag_77\n      swap2\n      swap1\n      tag_78\n      jump\t// in\n    tag_77:\n      pop\n      swap1\n      jump\t// out\n    tag_52:\n      mload(0x40)\n      dup1\n      0x60\n      add\n      0x40\n      mstore\n      dup1\n      0x00\n      dup2\n      mstore\n      0x20\n      add\n      0x60\n      dup2\n      mstore\n      0x20\n      add\n      0x60\n      dup2\n      mstore\n      pop\n      swap1\n      jump\t// out\n    tag_78:\n    tag_79:\n      dup1\n      dup3\n      gt\n      iszero\n      tag_80\n      jumpi\n      0x00\n      dup2\n      dup2\n      tag_81\n      swap2\n      swap1\n      tag_82\n      jump\t// in\n    tag_81:\n      pop\n      0x01\n      add\n      jump(tag_79)\n    tag_80:\n      pop\n      swap1\n      jump\t// out\n    tag_82:\n      pop\n      dup1\n      sload\n      tag_83\n      swap1\n      tag_32\n      jump\t// in\n    tag_83:\n      0x00\n      dup3\n      sstore\n      dup1\n      0x1f\n      lt\n      tag_85\n      jumpi\n      pop\n      jump(tag_84)\n    tag_85:\n      0x1f\n      add\n      0x20\n      swap1\n      div\n      swap1\n      0x00\n      mstore\n      keccak256(0x00, 0x20)\n      swap1\n      dup2\n      add\n      swap1\n      tag_86\n      swap2\n      swap1\n      tag_87\n      jump\t// in\n    tag_86:\n    tag_84:\n      pop\n      jump\t// out\n    tag_87:\n    tag_88:\n      dup1\n      dup3\n      gt\n      iszero\n      tag_89\n      jumpi\n      0x00\n      dup2\n      0x00\n      swap1\n      sstore\n      pop\n      0x01\n      add\n      jump(tag_88)\n    tag_89:\n      pop\n      swap1\n      jump\t// out\n        /* \"#utility.yul\":7:82   */\n    tag_90:\n        /* \"#utility.yul\":40:46   */\n      0x00\n        /* \"#utility.yul\":73:75   */\n      0x40\n        /* \"#utility.yul\":67:76   */\n      mload\n        /* \"#utility.yul\":57:76   */\n      swap1\n      pop\n        /* \"#utility.yul\":7:82   */\n      swap1\n      jump\t// out\n        /* \"#utility.yul\":88:205   */\n    tag_91:\n        /* \"#utility.yul\":197:198   */\n      0x00\n        /* \"#utility.yul\":194:195   */\n      dup1\n        /* \"#utility.yul\":187:199   */\n      revert\n        /* \"#utility.yul\":211:328   */\n    tag_92:\n        /* \"#utility.yul\":320:321   */\n      0x00\n        /* \"#utility.yul\":317:318   */\n      dup1\n        /* \"#utility.yul\":310:322   */\n      revert\n        /* \"#utility.yul\":334:451   */\n    tag_93:\n        /* \"#utility.yul\":443:444   */\n      0x00\n        /* \"#utility.yul\":440:441   */\n      dup1\n        /* \"#utility.yul\":433:445   */\n      revert\n        /* \"#utility.yul\":457:574   */\n    tag_94:\n        /* \"#utility.yul\":566:567   */\n      0x00\n        /* \"#utility.yul\":563:564   */\n      dup1\n        /* \"#utility.yul\":556:568   */\n      revert\n        /* \"#utility.yul\":580:682   */\n    tag_95:\n        /* \"#utility.yul\":621:627   */\n      0x00\n        /* \"#utility.yul\":672:674   */\n      0x1f\n        /* \"#utility.yul\":668:675   */\n      not\n        /* \"#utility.yul\":663:665   */\n      0x1f\n        /* \"#utility.yul\":656:661   */\n      dup4\n        /* \"#utility.yul\":652:666   */\n      add\n        /* \"#utility.yul\":648:676   */\n      and\n        /* \"#utility.yul\":638:676   */\n      swap1\n      pop\n        /* \"#utility.yul\":580:682   */\n      swap2\n      swap1\n      pop\n      jump\t// out\n        /* \"#utility.yul\":688:868   */\n    tag_96:\n        /* \"#utility.yul\":736:813   */\n      0x4e487b7100000000000000000000000000000000000000000000000000000000\n        /* \"#utility.yul\":733:734   */\n      0x00\n        /* \"#utility.yul\":726:814   */\n      mstore\n        /* \"#utility.yul\":833:837   */\n      0x41\n        /* \"#utility.yul\":830:831   */\n      0x04\n        /* \"#utility.yul\":823:838   */\n      mstore\n        /* \"#utility.yul\":857:861   */\n      0x24\n        /* \"#utility.yul\":854:855   */\n      0x00\n        /* \"#utility.yul\":847:862   */\n      revert\n        /* \"#utility.yul\":874:1155   */\n    tag_97:\n        /* \"#utility.yul\":957:984   */\n      tag_156\n        /* \"#utility.yul\":979:983   */\n      dup3\n        /* \"#utility.yul\":957:984   */\n      tag_95\n      jump\t// in\n    tag_156:\n        /* \"#utility.yul\":949:955   */\n      dup2\n        /* \"#utility.yul\":945:985   */\n      add\n        /* \"#utility.yul\":1087:1093   */\n      dup2\n        /* \"#utility.yul\":1075:1085   */\n      dup2\n        /* \"#utility.yul\":1072:1094   */\n      lt\n        /* \"#utility.yul\":1051:1069   */\n      0xffffffffffffffff\n        /* \"#utility.yul\":1039:1049   */\n      dup3\n        /* \"#utility.yul\":1036:1070   */\n      gt\n        /* \"#utility.yul\":1033:1095   */\n      or\n        /* \"#utility.yul\":1030:1118   */\n      iszero\n      tag_157\n      jumpi\n        /* \"#utility.yul\":1098:1116   */\n      tag_158\n      tag_96\n      jump\t// in\n    tag_158:\n        /* \"#utility.yul\":1030:1118   */\n    tag_157:\n        /* \"#utility.yul\":1138:1148   */\n      dup1\n        /* \"#utility.yul\":1134:1136   */\n      0x40\n        /* \"#utility.yul\":1127:1149   */\n      mstore\n        /* \"#utility.yul\":917:1155   */\n      pop\n        /* \"#utility.yul\":874:1155   */\n      pop\n      pop\n      jump\t// out\n        /* \"#utility.yul\":1161:1290   */\n    tag_98:\n        /* \"#utility.yul\":1195:1201   */\n      0x00\n        /* \"#utility.yul\":1222:1242   */\n      tag_160\n      tag_90\n      jump\t// in\n    tag_160:\n        /* \"#utility.yul\":1212:1242   */\n      swap1\n      pop\n        /* \"#utility.yul\":1251:1284   */\n      tag_161\n        /* \"#utility.yul\":1279:1283   */\n      dup3\n        /* \"#utility.yul\":1271:1277   */\n      dup3\n        /* \"#utility.yul\":1251:1284   */\n      tag_97\n      jump\t// in\n    tag_161:\n        /* \"#utility.yul\":1161:1290   */\n      swap2\n      swap1\n      pop\n      jump\t// out\n        /* \"#utility.yul\":1296:1604   */\n    tag_99:\n        /* \"#utility.yul\":1358:1362   */\n      0x00\n        /* \"#utility.yul\":1448:1466   */\n      0xffffffffffffffff\n        /* \"#utility.yul\":1440:1446   */\n      dup3\n        /* \"#utility.yul\":1437:1467   */\n      gt\n        /* \"#utility.yul\":1434:1490   */\n      iszero\n      tag_163\n      jumpi\n        /* \"#utility.yul\":1470:1488   */\n      tag_164\n      tag_96\n      jump\t// in\n    tag_164:\n        /* \"#utility.yul\":1434:1490   */\n    tag_163:\n        /* \"#utility.yul\":1508:1537   */\n      tag_165\n        /* \"#utility.yul\":1530:1536   */\n      dup3\n        /* \"#utility.yul\":1508:1537   */\n      tag_95\n      jump\t// in\n    tag_165:\n        /* \"#utility.yul\":1500:1537   */\n      swap1\n      pop\n        /* \"#utility.yul\":1592:1596   */\n      0x20\n        /* \"#utility.yul\":1586:1590   */\n      dup2\n        /* \"#utility.yul\":1582:1597   */\n      add\n        /* \"#utility.yul\":1574:1597   */\n      swap1\n      pop\n        /* \"#utility.yul\":1296:1604   */\n      swap2\n      swap1\n      pop\n      jump\t// out\n        /* \"#utility.yul\":1610:1756   */\n    tag_100:\n        /* \"#utility.yul\":1707:1713   */\n      dup3\n        /* \"#utility.yul\":1702:1705   */\n      dup2\n        /* \"#utility.yul\":1697:1700   */\n      dup4\n        /* \"#utility.yul\":1684:1714   */\n      calldatacopy\n        /* \"#utility.yul\":1748:1749   */\n      0x00\n        /* \"#utility.yul\":1739:1745   */\n      dup4\n        /* \"#utility.yul\":1734:1737   */\n      dup4\n        /* \"#utility.yul\":1730:1746   */\n      add\n        /* \"#utility.yul\":1723:1750   */\n      mstore\n        /* \"#utility.yul\":1610:1756   */\n      pop\n      pop\n      pop\n      jump\t// out\n        /* \"#utility.yul\":1762:2187   */\n    tag_101:\n        /* \"#utility.yul\":1840:1845   */\n      0x00\n        /* \"#utility.yul\":1865:1931   */\n      tag_168\n        /* \"#utility.yul\":1881:1930   */\n      tag_169\n        /* \"#utility.yul\":1923:1929   */\n      dup5\n        /* \"#utility.yul\":1881:1930   */\n      tag_99\n      jump\t// in\n    tag_169:\n        /* \"#utility.yul\":1865:1931   */\n      tag_98\n      jump\t// in\n    tag_168:\n        /* \"#utility.yul\":1856:1931   */\n      swap1\n      pop\n        /* \"#utility.yul\":1954:1960   */\n      dup3\n        /* \"#utility.yul\":1947:1952   */\n      dup2\n        /* \"#utility.yul\":1940:1961   */\n      mstore\n        /* \"#utility.yul\":1992:1996   */\n      0x20\n        /* \"#utility.yul\":1985:1990   */\n      dup2\n        /* \"#utility.yul\":1981:1997   */\n      add\n        /* \"#utility.yul\":2030:2033   */\n      dup5\n        /* \"#utility.yul\":2021:2027   */\n      dup5\n        /* \"#utility.yul\":2016:2019   */\n      dup5\n        /* \"#utility.yul\":2012:2028   */\n      add\n        /* \"#utility.yul\":2009:2034   */\n      gt\n        /* \"#utility.yul\":2006:2118   */\n      iszero\n      tag_170\n      jumpi\n        /* \"#utility.yul\":2037:2116   */\n      tag_171\n      tag_94\n      jump\t// in\n    tag_171:\n        /* \"#utility.yul\":2006:2118   */\n    tag_170:\n        /* \"#utility.yul\":2127:2181   */\n      tag_172\n        /* \"#utility.yul\":2174:2180   */\n      dup5\n        /* \"#utility.yul\":2169:2172   */\n      dup3\n        /* \"#utility.yul\":2164:2167   */\n      dup6\n        /* \"#utility.yul\":2127:2181   */\n      tag_100\n      jump\t// in\n    tag_172:\n        /* \"#utility.yul\":1846:2187   */\n      pop\n        /* \"#utility.yul\":1762:2187   */\n      swap4\n      swap3\n      pop\n      pop\n      pop\n      jump\t// out\n        /* \"#utility.yul\":2207:2547   */\n    tag_102:\n        /* \"#utility.yul\":2263:2268   */\n      0x00\n        /* \"#utility.yul\":2312:2315   */\n      dup3\n        /* \"#utility.yul\":2305:2309   */\n      0x1f\n        /* \"#utility.yul\":2297:2303   */\n      dup4\n        /* \"#utility.yul\":2293:2310   */\n      add\n        /* \"#utility.yul\":2289:2316   */\n      slt\n        /* \"#utility.yul\":2279:2401   */\n      tag_174\n      jumpi\n        /* \"#utility.yul\":2320:2399   */\n      tag_175\n      tag_93\n      jump\t// in\n    tag_175:\n        /* \"#utility.yul\":2279:2401   */\n    tag_174:\n        /* \"#utility.yul\":2437:2443   */\n      dup2\n        /* \"#utility.yul\":2424:2444   */\n      calldataload\n        /* \"#utility.yul\":2462:2541   */\n      tag_176\n        /* \"#utility.yul\":2537:2540   */\n      dup5\n        /* \"#utility.yul\":2529:2535   */\n      dup3\n        /* \"#utility.yul\":2522:2526   */\n      0x20\n        /* \"#utility.yul\":2514:2520   */\n      dup7\n        /* \"#utility.yul\":2510:2527   */\n      add\n        /* \"#utility.yul\":2462:2541   */\n      tag_101\n      jump\t// in\n    tag_176:\n        /* \"#utility.yul\":2453:2541   */\n      swap2\n      pop\n        /* \"#utility.yul\":2269:2547   */\n      pop\n        /* \"#utility.yul\":2207:2547   */\n      swap3\n      swap2\n      pop\n      pop\n      jump\t// out\n        /* \"#utility.yul\":2553:3062   */\n    tag_9:\n        /* \"#utility.yul\":2622:2628   */\n      0x00\n        /* \"#utility.yul\":2671:2673   */\n      0x20\n        /* \"#utility.yul\":2659:2668   */\n      dup3\n        /* \"#utility.yul\":2650:2657   */\n      dup5\n        /* \"#utility.yul\":2646:2669   */\n      sub\n        /* \"#utility.yul\":2642:2674   */\n      slt\n        /* \"#utility.yul\":2639:2758   */\n      iszero\n      tag_178\n      jumpi\n        /* \"#utility.yul\":2677:2756   */\n      tag_179\n      tag_91\n      jump\t// in\n    tag_179:\n        /* \"#utility.yul\":2639:2758   */\n    tag_178:\n        /* \"#utility.yul\":2825:2826   */\n      0x00\n        /* \"#utility.yul\":2814:2823   */\n      dup3\n        /* \"#utility.yul\":2810:2827   */\n      add\n        /* \"#utility.yul\":2797:2828   */\n      calldataload\n        /* \"#utility.yul\":2855:2873   */\n      0xffffffffffffffff\n        /* \"#utility.yul\":2847:2853   */\n      dup2\n        /* \"#utility.yul\":2844:2874   */\n      gt\n        /* \"#utility.yul\":2841:2958   */\n      iszero\n      tag_180\n      jumpi\n        /* \"#utility.yul\":2877:2956   */\n      tag_181\n      tag_92\n      jump\t// in\n    tag_181:\n        /* \"#utility.yul\":2841:2958   */\n    tag_180:\n        /* \"#utility.yul\":2982:3045   */\n      tag_182\n        /* \"#utility.yul\":3037:3044   */\n      dup5\n        /* \"#utility.yul\":3028:3034   */\n      dup3\n        /* \"#utility.yul\":3017:3026   */\n      dup6\n        /* \"#utility.yul\":3013:3035   */\n      add\n        /* \"#utility.yul\":2982:3045   */\n      tag_102\n      jump\t// in\n    tag_182:\n        /* \"#utility.yul\":2972:3045   */\n      swap2\n      pop\n        /* \"#utility.yul\":2768:3055   */\n      pop\n        /* \"#utility.yul\":2553:3062   */\n      swap3\n      swap2\n      pop\n      pop\n      jump\t// out\n        /* \"#utility.yul\":3068:3204   */\n    tag_103:\n        /* \"#utility.yul\":3157:3163   */\n      0x00\n        /* \"#utility.yul\":3191:3196   */\n      dup2\n        /* \"#utility.yul\":3185:3197   */\n      mload\n        /* \"#utility.yul\":3175:3197   */\n      swap1\n      pop\n        /* \"#utility.yul\":3068:3204   */\n      swap2\n      swap1\n      pop\n      jump\t// out\n        /* \"#utility.yul\":3210:3416   */\n    tag_104:\n        /* \"#utility.yul\":3331:3342   */\n      0x00\n        /* \"#utility.yul\":3365:3371   */\n      dup3\n        /* \"#utility.yul\":3360:3363   */\n      dup3\n        /* \"#utility.yul\":3353:3372   */\n      mstore\n        /* \"#utility.yul\":3405:3409   */\n      0x20\n        /* \"#utility.yul\":3400:3403   */\n      dup3\n        /* \"#utility.yul\":3396:3410   */\n      add\n        /* \"#utility.yul\":3381:3410   */\n      swap1\n      pop\n        /* \"#utility.yul\":3210:3416   */\n      swap3\n      swap2\n      pop\n      pop\n      jump\t// out\n        /* \"#utility.yul\":3422:3576   */\n    tag_105:\n        /* \"#utility.yul\":3511:3515   */\n      0x00\n        /* \"#utility.yul\":3534:3537   */\n      dup2\n        /* \"#utility.yul\":3526:3537   */\n      swap1\n      pop\n        /* \"#utility.yul\":3564:3568   */\n      0x20\n        /* \"#utility.yul\":3559:3562   */\n      dup3\n        /* \"#utility.yul\":3555:3569   */\n      add\n        /* \"#utility.yul\":3547:3569   */\n      swap1\n      pop\n        /* \"#utility.yul\":3422:3576   */\n      swap2\n      swap1\n      pop\n      jump\t// out\n        /* \"#utility.yul\":3582:3659   */\n    tag_106:\n        /* \"#utility.yul\":3619:3626   */\n      0x00\n        /* \"#utility.yul\":3648:3653   */\n      dup2\n        /* \"#utility.yul\":3637:3653   */\n      swap1\n      pop\n        /* \"#utility.yul\":3582:3659   */\n      swap2\n      swap1\n      pop\n      jump\t// out\n        /* \"#utility.yul\":3665:3773   */\n    tag_107:\n        /* \"#utility.yul\":3742:3766   */\n      tag_188\n        /* \"#utility.yul\":3760:3765   */\n      dup2\n        /* \"#utility.yul\":3742:3766   */\n      tag_106\n      jump\t// in\n    tag_188:\n        /* \"#utility.yul\":3737:3740   */\n      dup3\n        /* \"#utility.yul\":3730:3767   */\n      mstore\n        /* \"#utility.yul\":3665:3773   */\n      pop\n      pop\n      jump\t// out\n        /* \"#utility.yul\":3779:3878   */\n    tag_108:\n        /* \"#utility.yul\":3831:3837   */\n      0x00\n        /* \"#utility.yul\":3865:3870   */\n      dup2\n        /* \"#utility.yul\":3859:3871   */\n      mload\n        /* \"#utility.yul\":3849:3871   */\n      swap1\n      pop\n        /* \"#utility.yul\":3779:3878   */\n      swap2\n      swap1\n      pop\n      jump\t// out\n        /* \"#utility.yul\":3884:4043   */\n    tag_109:\n        /* \"#utility.yul\":3958:3969   */\n      0x00\n        /* \"#utility.yul\":3992:3998   */\n      dup3\n        /* \"#utility.yul\":3987:3990   */\n      dup3\n        /* \"#utility.yul\":3980:3999   */\n      mstore\n        /* \"#utility.yul\":4032:4036   */\n      0x20\n        /* \"#utility.yul\":4027:4030   */\n      dup3\n        /* \"#utility.yul\":4023:4037   */\n      add\n        /* \"#utility.yul\":4008:4037   */\n      swap1\n      pop\n        /* \"#utility.yul\":3884:4043   */\n      swap3\n      swap2\n      pop\n      pop\n      jump\t// out\n        /* \"#utility.yul\":4049:4295   */\n    tag_110:\n        /* \"#utility.yul\":4130:4131   */\n      0x00\n        /* \"#utility.yul\":4140:4253   */\n    tag_192:\n        /* \"#utility.yul\":4154:4160   */\n      dup4\n        /* \"#utility.yul\":4151:4152   */\n      dup2\n        /* \"#utility.yul\":4148:4161   */\n      lt\n        /* \"#utility.yul\":4140:4253   */\n      iszero\n      tag_194\n      jumpi\n        /* \"#utility.yul\":4239:4240   */\n      dup1\n        /* \"#utility.yul\":4234:4237   */\n      dup3\n        /* \"#utility.yul\":4230:4241   */\n      add\n        /* \"#utility.yul\":4224:4242   */\n      mload\n        /* \"#utility.yul\":4220:4221   */\n      dup2\n        /* \"#utility.yul\":4215:4218   */\n      dup5\n        /* \"#utility.yul\":4211:4222   */\n      add\n        /* \"#utility.yul\":4204:4243   */\n      mstore\n        /* \"#utility.yul\":4176:4178   */\n      0x20\n        /* \"#utility.yul\":4173:4174   */\n      dup2\n        /* \"#utility.yul\":4169:4179   */\n      add\n        /* \"#utility.yul\":4164:4179   */\n      swap1\n      pop\n        /* \"#utility.yul\":4140:4253   */\n      jump(tag_192)\n    tag_194:\n        /* \"#utility.yul\":4287:4288   */\n      0x00\n        /* \"#utility.yul\":4278:4284   */\n      dup5\n        /* \"#utility.yul\":4273:4276   */\n      dup5\n        /* \"#utility.yul\":4269:4285   */\n      add\n        /* \"#utility.yul\":4262:4289   */\n      mstore\n        /* \"#utility.yul\":4111:4295   */\n      pop\n        /* \"#utility.yul\":4049:4295   */\n      pop\n      pop\n      pop\n      jump\t// out\n        /* \"#utility.yul\":4301:4658   */\n    tag_111:\n        /* \"#utility.yul\":4379:4382   */\n      0x00\n        /* \"#utility.yul\":4407:4446   */\n      tag_196\n        /* \"#utility.yul\":4440:4445   */\n      dup3\n        /* \"#utility.yul\":4407:4446   */\n      tag_108\n      jump\t// in\n    tag_196:\n        /* \"#utility.yul\":4462:4523   */\n      tag_197\n        /* \"#utility.yul\":4516:4522   */\n      dup2\n        /* \"#utility.yul\":4511:4514   */\n      dup6\n        /* \"#utility.yul\":4462:4523   */\n      tag_109\n      jump\t// in\n    tag_197:\n        /* \"#utility.yul\":4455:4523   */\n      swap4\n      pop\n        /* \"#utility.yul\":4532:4597   */\n      tag_198\n        /* \"#utility.yul\":4590:4596   */\n      dup2\n        /* \"#utility.yul\":4585:4588   */\n      dup6\n        /* \"#utility.yul\":4578:4582   */\n      0x20\n        /* \"#utility.yul\":4571:4576   */\n      dup7\n        /* \"#utility.yul\":4567:4583   */\n      add\n        /* \"#utility.yul\":4532:4597   */\n      tag_110\n      jump\t// in\n    tag_198:\n        /* \"#utility.yul\":4622:4651   */\n      tag_199\n        /* \"#utility.yul\":4644:4650   */\n      dup2\n        /* \"#utility.yul\":4622:4651   */\n      tag_95\n      jump\t// in\n    tag_199:\n        /* \"#utility.yul\":4617:4620   */\n      dup5\n        /* \"#utility.yul\":4613:4652   */\n      add\n        /* \"#utility.yul\":4606:4652   */\n      swap2\n      pop\n        /* \"#utility.yul\":4383:4658   */\n      pop\n        /* \"#utility.yul\":4301:4658   */\n      swap3\n      swap2\n      pop\n      pop\n      jump\t// out\n        /* \"#utility.yul\":4664:4788   */\n    tag_112:\n        /* \"#utility.yul\":4741:4747   */\n      0x00\n        /* \"#utility.yul\":4775:4780   */\n      dup2\n        /* \"#utility.yul\":4769:4781   */\n      mload\n        /* \"#utility.yul\":4759:4781   */\n      swap1\n      pop\n        /* \"#utility.yul\":4664:4788   */\n      swap2\n      swap1\n      pop\n      jump\t// out\n        /* \"#utility.yul\":4794:4978   */\n    tag_113:\n        /* \"#utility.yul\":4893:4904   */\n      0x00\n        /* \"#utility.yul\":4927:4933   */\n      dup3\n        /* \"#utility.yul\":4922:4925   */\n      dup3\n        /* \"#utility.yul\":4915:4934   */\n      mstore\n        /* \"#utility.yul\":4967:4971   */\n      0x20\n        /* \"#utility.yul\":4962:4965   */\n      dup3\n        /* \"#utility.yul\":4958:4972   */\n      add\n        /* \"#utility.yul\":4943:4972   */\n      swap1\n      pop\n        /* \"#utility.yul\":4794:4978   */\n      swap3\n      swap2\n      pop\n      pop\n      jump\t// out\n        /* \"#utility.yul\":4984:5126   */\n    tag_114:\n        /* \"#utility.yul\":5061:5065   */\n      0x00\n        /* \"#utility.yul\":5084:5087   */\n      dup2\n        /* \"#utility.yul\":5076:5087   */\n      swap1\n      pop\n        /* \"#utility.yul\":5114:5118   */\n      0x20\n        /* \"#utility.yul\":5109:5112   */\n      dup3\n        /* \"#utility.yul\":5105:5119   */\n      add\n        /* \"#utility.yul\":5097:5119   */\n      swap1\n      pop\n        /* \"#utility.yul\":4984:5126   */\n      swap2\n      swap1\n      pop\n      jump\t// out\n        /* \"#utility.yul\":5132:5328   */\n    tag_115:\n        /* \"#utility.yul\":5221:5231   */\n      0x00\n        /* \"#utility.yul\":5256:5322   */\n      tag_204\n        /* \"#utility.yul\":5318:5321   */\n      dup4\n        /* \"#utility.yul\":5310:5316   */\n      dup4\n        /* \"#utility.yul\":5256:5322   */\n      tag_111\n      jump\t// in\n    tag_204:\n        /* \"#utility.yul\":5242:5322   */\n      swap1\n      pop\n        /* \"#utility.yul\":5132:5328   */\n      swap3\n      swap2\n      pop\n      pop\n      jump\t// out\n        /* \"#utility.yul\":5334:5457   */\n    tag_116:\n        /* \"#utility.yul\":5414:5418   */\n      0x00\n        /* \"#utility.yul\":5446:5450   */\n      0x20\n        /* \"#utility.yul\":5441:5444   */\n      dup3\n        /* \"#utility.yul\":5437:5451   */\n      add\n        /* \"#utility.yul\":5429:5451   */\n      swap1\n      pop\n        /* \"#utility.yul\":5334:5457   */\n      swap2\n      swap1\n      pop\n      jump\t// out\n        /* \"#utility.yul\":5491:6462   */\n    tag_117:\n        /* \"#utility.yul\":5620:5623   */\n      0x00\n        /* \"#utility.yul\":5649:5713   */\n      tag_207\n        /* \"#utility.yul\":5707:5712   */\n      dup3\n        /* \"#utility.yul\":5649:5713   */\n      tag_112\n      jump\t// in\n    tag_207:\n        /* \"#utility.yul\":5729:5815   */\n      tag_208\n        /* \"#utility.yul\":5808:5814   */\n      dup2\n        /* \"#utility.yul\":5803:5806   */\n      dup6\n        /* \"#utility.yul\":5729:5815   */\n      tag_113\n      jump\t// in\n    tag_208:\n        /* \"#utility.yul\":5722:5815   */\n      swap4\n      pop\n        /* \"#utility.yul\":5841:5844   */\n      dup4\n        /* \"#utility.yul\":5886:5890   */\n      0x20\n        /* \"#utility.yul\":5878:5884   */\n      dup3\n        /* \"#utility.yul\":5874:5891   */\n      mul\n        /* \"#utility.yul\":5869:5872   */\n      dup6\n        /* \"#utility.yul\":5865:5892   */\n      add\n        /* \"#utility.yul\":5916:5982   */\n      tag_209\n        /* \"#utility.yul\":5976:5981   */\n      dup6\n        /* \"#utility.yul\":5916:5982   */\n      tag_114\n      jump\t// in\n    tag_209:\n        /* \"#utility.yul\":6005:6012   */\n      dup1\n        /* \"#utility.yul\":6036:6037   */\n      0x00\n        /* \"#utility.yul\":6021:6417   */\n    tag_210:\n        /* \"#utility.yul\":6046:6052   */\n      dup6\n        /* \"#utility.yul\":6043:6044   */\n      dup2\n        /* \"#utility.yul\":6040:6053   */\n      lt\n        /* \"#utility.yul\":6021:6417   */\n      iszero\n      tag_212\n      jumpi\n        /* \"#utility.yul\":6117:6126   */\n      dup5\n        /* \"#utility.yul\":6111:6115   */\n      dup5\n        /* \"#utility.yul\":6107:6127   */\n      sub\n        /* \"#utility.yul\":6102:6105   */\n      dup10\n        /* \"#utility.yul\":6095:6128   */\n      mstore\n        /* \"#utility.yul\":6168:6174   */\n      dup2\n        /* \"#utility.yul\":6162:6175   */\n      mload\n        /* \"#utility.yul\":6196:6280   */\n      tag_213\n        /* \"#utility.yul\":6275:6279   */\n      dup6\n        /* \"#utility.yul\":6260:6273   */\n      dup3\n        /* \"#utility.yul\":6196:6280   */\n      tag_115\n      jump\t// in\n    tag_213:\n        /* \"#utility.yul\":6188:6280   */\n      swap5\n      pop\n        /* \"#utility.yul\":6303:6373   */\n      tag_214\n        /* \"#utility.yul\":6366:6372   */\n      dup4\n        /* \"#utility.yul\":6303:6373   */\n      tag_116\n      jump\t// in\n    tag_214:\n        /* \"#utility.yul\":6293:6373   */\n      swap3\n      pop\n        /* \"#utility.yul\":6402:6406   */\n      0x20\n        /* \"#utility.yul\":6397:6400   */\n      dup11\n        /* \"#utility.yul\":6393:6407   */\n      add\n        /* \"#utility.yul\":6386:6407   */\n      swap10\n      pop\n        /* \"#utility.yul\":6081:6417   */\n      pop\n        /* \"#utility.yul\":6068:6069   */\n      0x01\n        /* \"#utility.yul\":6065:6066   */\n      dup2\n        /* \"#utility.yul\":6061:6070   */\n      add\n        /* \"#utility.yul\":6056:6070   */\n      swap1\n      pop\n        /* \"#utility.yul\":6021:6417   */\n      jump(tag_210)\n    tag_212:\n        /* \"#utility.yul\":6025:6039   */\n      pop\n        /* \"#utility.yul\":6433:6437   */\n      dup3\n        /* \"#utility.yul\":6426:6437   */\n      swap8\n      pop\n        /* \"#utility.yul\":6453:6456   */\n      dup8\n        /* \"#utility.yul\":6446:6456   */\n      swap6\n      pop\n        /* \"#utility.yul\":5625:6462   */\n      pop\n      pop\n      pop\n      pop\n      pop\n        /* \"#utility.yul\":5491:6462   */\n      swap3\n      swap2\n      pop\n      pop\n      jump\t// out\n        /* \"#utility.yul\":6524:7414   */\n    tag_118:\n        /* \"#utility.yul\":6627:6630   */\n      0x00\n        /* \"#utility.yul\":6663:6667   */\n      0x60\n        /* \"#utility.yul\":6658:6661   */\n      dup4\n        /* \"#utility.yul\":6654:6668   */\n      add\n        /* \"#utility.yul\":6752:6756   */\n      0x00\n        /* \"#utility.yul\":6745:6750   */\n      dup4\n        /* \"#utility.yul\":6741:6757   */\n      add\n        /* \"#utility.yul\":6735:6758   */\n      mload\n        /* \"#utility.yul\":6771:6834   */\n      tag_216\n        /* \"#utility.yul\":6828:6832   */\n      0x00\n        /* \"#utility.yul\":6823:6826   */\n      dup7\n        /* \"#utility.yul\":6819:6833   */\n      add\n        /* \"#utility.yul\":6805:6817   */\n      dup3\n        /* \"#utility.yul\":6771:6834   */\n      tag_107\n      jump\t// in\n    tag_216:\n        /* \"#utility.yul\":6678:6844   */\n      pop\n        /* \"#utility.yul\":6926:6930   */\n      0x20\n        /* \"#utility.yul\":6919:6924   */\n      dup4\n        /* \"#utility.yul\":6915:6931   */\n      add\n        /* \"#utility.yul\":6909:6932   */\n      mload\n        /* \"#utility.yul\":6979:6982   */\n      dup5\n        /* \"#utility.yul\":6973:6977   */\n      dup3\n        /* \"#utility.yul\":6969:6983   */\n      sub\n        /* \"#utility.yul\":6962:6966   */\n      0x20\n        /* \"#utility.yul\":6957:6960   */\n      dup7\n        /* \"#utility.yul\":6953:6967   */\n      add\n        /* \"#utility.yul\":6946:6984   */\n      mstore\n        /* \"#utility.yul\":7005:7078   */\n      tag_217\n        /* \"#utility.yul\":7073:7077   */\n      dup3\n        /* \"#utility.yul\":7059:7071   */\n      dup3\n        /* \"#utility.yul\":7005:7078   */\n      tag_111\n      jump\t// in\n    tag_217:\n        /* \"#utility.yul\":6997:7078   */\n      swap2\n      pop\n        /* \"#utility.yul\":6854:7089   */\n      pop\n        /* \"#utility.yul\":7174:7178   */\n      0x40\n        /* \"#utility.yul\":7167:7172   */\n      dup4\n        /* \"#utility.yul\":7163:7179   */\n      add\n        /* \"#utility.yul\":7157:7180   */\n      mload\n        /* \"#utility.yul\":7227:7230   */\n      dup5\n        /* \"#utility.yul\":7221:7225   */\n      dup3\n        /* \"#utility.yul\":7217:7231   */\n      sub\n        /* \"#utility.yul\":7210:7214   */\n      0x40\n        /* \"#utility.yul\":7205:7208   */\n      dup7\n        /* \"#utility.yul\":7201:7215   */\n      add\n        /* \"#utility.yul\":7194:7232   */\n      mstore\n        /* \"#utility.yul\":7253:7376   */\n      tag_218\n        /* \"#utility.yul\":7371:7375   */\n      dup3\n        /* \"#utility.yul\":7357:7369   */\n      dup3\n        /* \"#utility.yul\":7253:7376   */\n      tag_117\n      jump\t// in\n    tag_218:\n        /* \"#utility.yul\":7245:7376   */\n      swap2\n      pop\n        /* \"#utility.yul\":7099:7387   */\n      pop\n        /* \"#utility.yul\":7404:7408   */\n      dup1\n        /* \"#utility.yul\":7397:7408   */\n      swap2\n      pop\n        /* \"#utility.yul\":6632:7414   */\n      pop\n        /* \"#utility.yul\":6524:7414   */\n      swap3\n      swap2\n      pop\n      pop\n      jump\t// out\n        /* \"#utility.yul\":7420:7664   */\n    tag_119:\n        /* \"#utility.yul\":7533:7543   */\n      0x00\n        /* \"#utility.yul\":7568:7658   */\n      tag_220\n        /* \"#utility.yul\":7654:7657   */\n      dup4\n        /* \"#utility.yul\":7646:7652   */\n      dup4\n        /* \"#utility.yul\":7568:7658   */\n      tag_118\n      jump\t// in\n    tag_220:\n        /* \"#utility.yul\":7554:7658   */\n      swap1\n      pop\n        /* \"#utility.yul\":7420:7664   */\n      swap3\n      swap2\n      pop\n      pop\n      jump\t// out\n        /* \"#utility.yul\":7670:7805   */\n    tag_120:\n        /* \"#utility.yul\":7762:7766   */\n      0x00\n        /* \"#utility.yul\":7794:7798   */\n      0x20\n        /* \"#utility.yul\":7789:7792   */\n      dup3\n        /* \"#utility.yul\":7785:7799   */\n      add\n        /* \"#utility.yul\":7777:7799   */\n      swap1\n      pop\n        /* \"#utility.yul\":7670:7805   */\n      swap2\n      swap1\n      pop\n      jump\t// out\n        /* \"#utility.yul\":7871:8958   */\n    tag_121:\n        /* \"#utility.yul\":8034:8037   */\n      0x00\n        /* \"#utility.yul\":8063:8139   */\n      tag_223\n        /* \"#utility.yul\":8133:8138   */\n      dup3\n        /* \"#utility.yul\":8063:8139   */\n      tag_103\n      jump\t// in\n    tag_223:\n        /* \"#utility.yul\":8155:8263   */\n      tag_224\n        /* \"#utility.yul\":8256:8262   */\n      dup2\n        /* \"#utility.yul\":8251:8254   */\n      dup6\n        /* \"#utility.yul\":8155:8263   */\n      tag_104\n      jump\t// in\n    tag_224:\n        /* \"#utility.yul\":8148:8263   */\n      swap4\n      pop\n        /* \"#utility.yul\":8289:8292   */\n      dup4\n        /* \"#utility.yul\":8334:8338   */\n      0x20\n        /* \"#utility.yul\":8326:8332   */\n      dup3\n        /* \"#utility.yul\":8322:8339   */\n      mul\n        /* \"#utility.yul\":8317:8320   */\n      dup6\n        /* \"#utility.yul\":8313:8340   */\n      add\n        /* \"#utility.yul\":8364:8442   */\n      tag_225\n        /* \"#utility.yul\":8436:8441   */\n      dup6\n        /* \"#utility.yul\":8364:8442   */\n      tag_105\n      jump\t// in\n    tag_225:\n        /* \"#utility.yul\":8465:8472   */\n      dup1\n        /* \"#utility.yul\":8496:8497   */\n      0x00\n        /* \"#utility.yul\":8481:8913   */\n    tag_226:\n        /* \"#utility.yul\":8506:8512   */\n      dup6\n        /* \"#utility.yul\":8503:8504   */\n      dup2\n        /* \"#utility.yul\":8500:8513   */\n      lt\n        /* \"#utility.yul\":8481:8913   */\n      iszero\n      tag_228\n      jumpi\n        /* \"#utility.yul\":8577:8586   */\n      dup5\n        /* \"#utility.yul\":8571:8575   */\n      dup5\n        /* \"#utility.yul\":8567:8587   */\n      sub\n        /* \"#utility.yul\":8562:8565   */\n      dup10\n        /* \"#utility.yul\":8555:8588   */\n      mstore\n        /* \"#utility.yul\":8628:8634   */\n      dup2\n        /* \"#utility.yul\":8622:8635   */\n      mload\n        /* \"#utility.yul\":8656:8764   */\n      tag_229\n        /* \"#utility.yul\":8759:8763   */\n      dup6\n        /* \"#utility.yul\":8744:8757   */\n      dup3\n        /* \"#utility.yul\":8656:8764   */\n      tag_119\n      jump\t// in\n    tag_229:\n        /* \"#utility.yul\":8648:8764   */\n      swap5\n      pop\n        /* \"#utility.yul\":8787:8869   */\n      tag_230\n        /* \"#utility.yul\":8862:8868   */\n      dup4\n        /* \"#utility.yul\":8787:8869   */\n      tag_120\n      jump\t// in\n    tag_230:\n        /* \"#utility.yul\":8777:8869   */\n      swap3\n      pop\n        /* \"#utility.yul\":8898:8902   */\n      0x20\n        /* \"#utility.yul\":8893:8896   */\n      dup11\n        /* \"#utility.yul\":8889:8903   */\n      add\n        /* \"#utility.yul\":8882:8903   */\n      swap10\n      pop\n        /* \"#utility.yul\":8541:8913   */\n      pop\n        /* \"#utility.yul\":8528:8529   */\n      0x01\n        /* \"#utility.yul\":8525:8526   */\n      dup2\n        /* \"#utility.yul\":8521:8530   */\n      add\n        /* \"#utility.yul\":8516:8530   */\n      swap1\n      pop\n        /* \"#utility.yul\":8481:8913   */\n      jump(tag_226)\n    tag_228:\n        /* \"#utility.yul\":8485:8499   */\n      pop\n        /* \"#utility.yul\":8929:8933   */\n      dup3\n        /* \"#utility.yul\":8922:8933   */\n      swap8\n      pop\n        /* \"#utility.yul\":8949:8952   */\n      dup8\n        /* \"#utility.yul\":8942:8952   */\n      swap6\n      pop\n        /* \"#utility.yul\":8039:8958   */\n      pop\n      pop\n      pop\n      pop\n      pop\n        /* \"#utility.yul\":7871:8958   */\n      swap3\n      swap2\n      pop\n      pop\n      jump\t// out\n        /* \"#utility.yul\":8964:9425   */\n    tag_12:\n        /* \"#utility.yul\":9151:9155   */\n      0x00\n        /* \"#utility.yul\":9189:9191   */\n      0x20\n        /* \"#utility.yul\":9178:9187   */\n      dup3\n        /* \"#utility.yul\":9174:9192   */\n      add\n        /* \"#utility.yul\":9166:9192   */\n      swap1\n      pop\n        /* \"#utility.yul\":9238:9247   */\n      dup2\n        /* \"#utility.yul\":9232:9236   */\n      dup2\n        /* \"#utility.yul\":9228:9248   */\n      sub\n        /* \"#utility.yul\":9224:9225   */\n      0x00\n        /* \"#utility.yul\":9213:9222   */\n      dup4\n        /* \"#utility.yul\":9209:9226   */\n      add\n        /* \"#utility.yul\":9202:9249   */\n      mstore\n        /* \"#utility.yul\":9266:9418   */\n      tag_232\n        /* \"#utility.yul\":9413:9417   */\n      dup2\n        /* \"#utility.yul\":9404:9410   */\n      dup5\n        /* \"#utility.yul\":9266:9418   */\n      tag_121\n      jump\t// in\n    tag_232:\n        /* \"#utility.yul\":9258:9418   */\n      swap1\n      pop\n        /* \"#utility.yul\":8964:9425   */\n      swap3\n      swap2\n      pop\n      pop\n      jump\t// out\n        /* \"#utility.yul\":9431:9553   */\n    tag_122:\n        /* \"#utility.yul\":9504:9528   */\n      tag_234\n        /* \"#utility.yul\":9522:9527   */\n      dup2\n        /* \"#utility.yul\":9504:9528   */\n      tag_106\n      jump\t// in\n    tag_234:\n        /* \"#utility.yul\":9497:9502   */\n      dup2\n        /* \"#utility.yul\":9494:9529   */\n      eq\n        /* \"#utility.yul\":9484:9547   */\n      tag_235\n      jumpi\n        /* \"#utility.yul\":9543:9544   */\n      0x00\n        /* \"#utility.yul\":9540:9541   */\n      dup1\n        /* \"#utility.yul\":9533:9545   */\n      revert\n        /* \"#utility.yul\":9484:9547   */\n    tag_235:\n        /* \"#utility.yul\":9431:9553   */\n      pop\n      jump\t// out\n        /* \"#utility.yul\":9559:9698   */\n    tag_123:\n        /* \"#utility.yul\":9605:9610   */\n      0x00\n        /* \"#utility.yul\":9643:9649   */\n      dup2\n        /* \"#utility.yul\":9630:9650   */\n      calldataload\n        /* \"#utility.yul\":9621:9650   */\n      swap1\n      pop\n        /* \"#utility.yul\":9659:9692   */\n      tag_237\n        /* \"#utility.yul\":9686:9691   */\n      dup2\n        /* \"#utility.yul\":9659:9692   */\n      tag_122\n      jump\t// in\n    tag_237:\n        /* \"#utility.yul\":9559:9698   */\n      swap3\n      swap2\n      pop\n      pop\n      jump\t// out\n        /* \"#utility.yul\":9704:10025   */\n    tag_124:\n        /* \"#utility.yul\":9791:9795   */\n      0x00\n        /* \"#utility.yul\":9881:9899   */\n      0xffffffffffffffff\n        /* \"#utility.yul\":9873:9879   */\n      dup3\n        /* \"#utility.yul\":9870:9900   */\n      gt\n        /* \"#utility.yul\":9867:9923   */\n      iszero\n      tag_239\n      jumpi\n        /* \"#utility.yul\":9903:9921   */\n      tag_240\n      tag_96\n      jump\t// in\n    tag_240:\n        /* \"#utility.yul\":9867:9923   */\n    tag_239:\n        /* \"#utility.yul\":9953:9957   */\n      0x20\n        /* \"#utility.yul\":9945:9951   */\n      dup3\n        /* \"#utility.yul\":9941:9958   */\n      mul\n        /* \"#utility.yul\":9933:9958   */\n      swap1\n      pop\n        /* \"#utility.yul\":10013:10017   */\n      0x20\n        /* \"#utility.yul\":10007:10011   */\n      dup2\n        /* \"#utility.yul\":10003:10018   */\n      add\n        /* \"#utility.yul\":9995:10018   */\n      swap1\n      pop\n        /* \"#utility.yul\":9704:10025   */\n      swap2\n      swap1\n      pop\n      jump\t// out\n        /* \"#utility.yul\":10031:10148   */\n    tag_125:\n        /* \"#utility.yul\":10140:10141   */\n      0x00\n        /* \"#utility.yul\":10137:10138   */\n      dup1\n        /* \"#utility.yul\":10130:10142   */\n      revert\n        /* \"#utility.yul\":10170:11115   */\n    tag_126:\n        /* \"#utility.yul\":10276:10281   */\n      0x00\n        /* \"#utility.yul\":10301:10392   */\n      tag_243\n        /* \"#utility.yul\":10317:10391   */\n      tag_244\n        /* \"#utility.yul\":10384:10390   */\n      dup5\n        /* \"#utility.yul\":10317:10391   */\n      tag_124\n      jump\t// in\n    tag_244:\n        /* \"#utility.yul\":10301:10392   */\n      tag_98\n      jump\t// in\n    tag_243:\n        /* \"#utility.yul\":10292:10392   */\n      swap1\n      pop\n        /* \"#utility.yul\":10412:10417   */\n      dup1\n        /* \"#utility.yul\":10441:10447   */\n      dup4\n        /* \"#utility.yul\":10434:10439   */\n      dup3\n        /* \"#utility.yul\":10427:10448   */\n      mstore\n        /* \"#utility.yul\":10475:10479   */\n      0x20\n        /* \"#utility.yul\":10468:10473   */\n      dup3\n        /* \"#utility.yul\":10464:10480   */\n      add\n        /* \"#utility.yul\":10457:10480   */\n      swap1\n      pop\n        /* \"#utility.yul\":10528:10532   */\n      0x20\n        /* \"#utility.yul\":10520:10526   */\n      dup5\n        /* \"#utility.yul\":10516:10533   */\n      mul\n        /* \"#utility.yul\":10508:10514   */\n      dup4\n        /* \"#utility.yul\":10504:10534   */\n      add\n        /* \"#utility.yul\":10557:10560   */\n      dup6\n        /* \"#utility.yul\":10549:10555   */\n      dup2\n        /* \"#utility.yul\":10546:10561   */\n      gt\n        /* \"#utility.yul\":10543:10665   */\n      iszero\n      tag_245\n      jumpi\n        /* \"#utility.yul\":10576:10655   */\n      tag_246\n      tag_125\n      jump\t// in\n    tag_246:\n        /* \"#utility.yul\":10543:10665   */\n    tag_245:\n        /* \"#utility.yul\":10691:10697   */\n      dup4\n        /* \"#utility.yul\":10674:11109   */\n    tag_247:\n        /* \"#utility.yul\":10708:10714   */\n      dup2\n        /* \"#utility.yul\":10703:10706   */\n      dup2\n        /* \"#utility.yul\":10700:10715   */\n      lt\n        /* \"#utility.yul\":10674:11109   */\n      iszero\n      tag_249\n      jumpi\n        /* \"#utility.yul\":10797:10800   */\n      dup1\n        /* \"#utility.yul\":10784:10801   */\n      calldataload\n        /* \"#utility.yul\":10833:10851   */\n      0xffffffffffffffff\n        /* \"#utility.yul\":10820:10831   */\n      dup2\n        /* \"#utility.yul\":10817:10852   */\n      gt\n        /* \"#utility.yul\":10814:10936   */\n      iszero\n      tag_250\n      jumpi\n        /* \"#utility.yul\":10855:10934   */\n      tag_251\n      tag_93\n      jump\t// in\n    tag_251:\n        /* \"#utility.yul\":10814:10936   */\n    tag_250:\n        /* \"#utility.yul\":10979:10990   */\n      dup1\n        /* \"#utility.yul\":10971:10977   */\n      dup7\n        /* \"#utility.yul\":10967:10991   */\n      add\n        /* \"#utility.yul\":11017:11064   */\n      tag_252\n        /* \"#utility.yul\":11060:11063   */\n      dup10\n        /* \"#utility.yul\":11048:11058   */\n      dup3\n        /* \"#utility.yul\":11017:11064   */\n      tag_102\n      jump\t// in\n    tag_252:\n        /* \"#utility.yul\":11012:11015   */\n      dup6\n        /* \"#utility.yul\":11005:11065   */\n      mstore\n        /* \"#utility.yul\":11094:11098   */\n      0x20\n        /* \"#utility.yul\":11089:11092   */\n      dup6\n        /* \"#utility.yul\":11085:11099   */\n      add\n        /* \"#utility.yul\":11078:11099   */\n      swap5\n      pop\n        /* \"#utility.yul\":10750:11109   */\n      pop\n      pop\n        /* \"#utility.yul\":10734:10738   */\n      0x20\n        /* \"#utility.yul\":10729:10732   */\n      dup2\n        /* \"#utility.yul\":10725:10739   */\n      add\n        /* \"#utility.yul\":10718:10739   */\n      swap1\n      pop\n        /* \"#utility.yul\":10674:11109   */\n      jump(tag_247)\n    tag_249:\n        /* \"#utility.yul\":10678:10699   */\n      pop\n        /* \"#utility.yul\":10282:11115   */\n      pop\n      pop\n        /* \"#utility.yul\":10170:11115   */\n      swap4\n      swap3\n      pop\n      pop\n      pop\n      jump\t// out\n        /* \"#utility.yul\":11137:11527   */\n    tag_127:\n        /* \"#utility.yul\":11218:11223   */\n      0x00\n        /* \"#utility.yul\":11267:11270   */\n      dup3\n        /* \"#utility.yul\":11260:11264   */\n      0x1f\n        /* \"#utility.yul\":11252:11258   */\n      dup4\n        /* \"#utility.yul\":11248:11265   */\n      add\n        /* \"#utility.yul\":11244:11271   */\n      slt\n        /* \"#utility.yul\":11234:11356   */\n      tag_254\n      jumpi\n        /* \"#utility.yul\":11275:11354   */\n      tag_255\n      tag_93\n      jump\t// in\n    tag_255:\n        /* \"#utility.yul\":11234:11356   */\n    tag_254:\n        /* \"#utility.yul\":11392:11398   */\n      dup2\n        /* \"#utility.yul\":11379:11399   */\n      calldataload\n        /* \"#utility.yul\":11417:11521   */\n      tag_256\n        /* \"#utility.yul\":11517:11520   */\n      dup5\n        /* \"#utility.yul\":11509:11515   */\n      dup3\n        /* \"#utility.yul\":11502:11506   */\n      0x20\n        /* \"#utility.yul\":11494:11500   */\n      dup7\n        /* \"#utility.yul\":11490:11507   */\n      add\n        /* \"#utility.yul\":11417:11521   */\n      tag_126\n      jump\t// in\n    tag_256:\n        /* \"#utility.yul\":11408:11521   */\n      swap2\n      pop\n        /* \"#utility.yul\":11224:11527   */\n      pop\n        /* \"#utility.yul\":11137:11527   */\n      swap3\n      swap2\n      pop\n      pop\n      jump\t// out\n        /* \"#utility.yul\":11533:12888   */\n    tag_15:\n        /* \"#utility.yul\":11674:11680   */\n      0x00\n        /* \"#utility.yul\":11682:11688   */\n      dup1\n        /* \"#utility.yul\":11690:11696   */\n      0x00\n        /* \"#utility.yul\":11698:11704   */\n      dup1\n        /* \"#utility.yul\":11747:11750   */\n      0x80\n        /* \"#utility.yul\":11735:11744   */\n      dup6\n        /* \"#utility.yul\":11726:11733   */\n      dup8\n        /* \"#utility.yul\":11722:11745   */\n      sub\n        /* \"#utility.yul\":11718:11751   */\n      slt\n        /* \"#utility.yul\":11715:11835   */\n      iszero\n      tag_258\n      jumpi\n        /* \"#utility.yul\":11754:11833   */\n      tag_259\n      tag_91\n      jump\t// in\n    tag_259:\n        /* \"#utility.yul\":11715:11835   */\n    tag_258:\n        /* \"#utility.yul\":11902:11903   */\n      0x00\n        /* \"#utility.yul\":11891:11900   */\n      dup6\n        /* \"#utility.yul\":11887:11904   */\n      add\n        /* \"#utility.yul\":11874:11905   */\n      calldataload\n        /* \"#utility.yul\":11932:11950   */\n      0xffffffffffffffff\n        /* \"#utility.yul\":11924:11930   */\n      dup2\n        /* \"#utility.yul\":11921:11951   */\n      gt\n        /* \"#utility.yul\":11918:12035   */\n      iszero\n      tag_260\n      jumpi\n        /* \"#utility.yul\":11954:12033   */\n      tag_261\n      tag_92\n      jump\t// in\n    tag_261:\n        /* \"#utility.yul\":11918:12035   */\n    tag_260:\n        /* \"#utility.yul\":12059:12122   */\n      tag_262\n        /* \"#utility.yul\":12114:12121   */\n      dup8\n        /* \"#utility.yul\":12105:12111   */\n      dup3\n        /* \"#utility.yul\":12094:12103   */\n      dup9\n        /* \"#utility.yul\":12090:12112   */\n      add\n        /* \"#utility.yul\":12059:12122   */\n      tag_102\n      jump\t// in\n    tag_262:\n        /* \"#utility.yul\":12049:12122   */\n      swap5\n      pop\n        /* \"#utility.yul\":11845:12132   */\n      pop\n        /* \"#utility.yul\":12171:12173   */\n      0x20\n        /* \"#utility.yul\":12197:12250   */\n      tag_263\n        /* \"#utility.yul\":12242:12249   */\n      dup8\n        /* \"#utility.yul\":12233:12239   */\n      dup3\n        /* \"#utility.yul\":12222:12231   */\n      dup9\n        /* \"#utility.yul\":12218:12240   */\n      add\n        /* \"#utility.yul\":12197:12250   */\n      tag_123\n      jump\t// in\n    tag_263:\n        /* \"#utility.yul\":12187:12250   */\n      swap4\n      pop\n        /* \"#utility.yul\":12142:12260   */\n      pop\n        /* \"#utility.yul\":12327:12329   */\n      0x40\n        /* \"#utility.yul\":12316:12325   */\n      dup6\n        /* \"#utility.yul\":12312:12330   */\n      add\n        /* \"#utility.yul\":12299:12331   */\n      calldataload\n        /* \"#utility.yul\":12358:12376   */\n      0xffffffffffffffff\n        /* \"#utility.yul\":12350:12356   */\n      dup2\n        /* \"#utility.yul\":12347:12377   */\n      gt\n        /* \"#utility.yul\":12344:12461   */\n      iszero\n      tag_264\n      jumpi\n        /* \"#utility.yul\":12380:12459   */\n      tag_265\n      tag_92\n      jump\t// in\n    tag_265:\n        /* \"#utility.yul\":12344:12461   */\n    tag_264:\n        /* \"#utility.yul\":12485:12548   */\n      tag_266\n        /* \"#utility.yul\":12540:12547   */\n      dup8\n        /* \"#utility.yul\":12531:12537   */\n      dup3\n        /* \"#utility.yul\":12520:12529   */\n      dup9\n        /* \"#utility.yul\":12516:12538   */\n      add\n        /* \"#utility.yul\":12485:12548   */\n      tag_102\n      jump\t// in\n    tag_266:\n        /* \"#utility.yul\":12475:12548   */\n      swap3\n      pop\n        /* \"#utility.yul\":12270:12558   */\n      pop\n        /* \"#utility.yul\":12625:12627   */\n      0x60\n        /* \"#utility.yul\":12614:12623   */\n      dup6\n        /* \"#utility.yul\":12610:12628   */\n      add\n        /* \"#utility.yul\":12597:12629   */\n      calldataload\n        /* \"#utility.yul\":12656:12674   */\n      0xffffffffffffffff\n        /* \"#utility.yul\":12648:12654   */\n      dup2\n        /* \"#utility.yul\":12645:12675   */\n      gt\n        /* \"#utility.yul\":12642:12759   */\n      iszero\n      tag_267\n      jumpi\n        /* \"#utility.yul\":12678:12757   */\n      tag_268\n      tag_92\n      jump\t// in\n    tag_268:\n        /* \"#utility.yul\":12642:12759   */\n    tag_267:\n        /* \"#utility.yul\":12783:12871   */\n      tag_269\n        /* \"#utility.yul\":12863:12870   */\n      dup8\n        /* \"#utility.yul\":12854:12860   */\n      dup3\n        /* \"#utility.yul\":12843:12852   */\n      dup9\n        /* \"#utility.yul\":12839:12861   */\n      add\n        /* \"#utility.yul\":12783:12871   */\n      tag_127\n      jump\t// in\n    tag_269:\n        /* \"#utility.yul\":12773:12871   */\n      swap2\n      pop\n        /* \"#utility.yul\":12568:12881   */\n      pop\n        /* \"#utility.yul\":11533:12888   */\n      swap3\n      swap6\n      swap2\n      swap5\n      pop\n      swap3\n      pop\n      jump\t// out\n        /* \"#utility.yul\":12950:13850   */\n    tag_128:\n        /* \"#utility.yul\":13063:13066   */\n      0x00\n        /* \"#utility.yul\":13099:13103   */\n      0x60\n        /* \"#utility.yul\":13094:13097   */\n      dup4\n        /* \"#utility.yul\":13090:13104   */\n      add\n        /* \"#utility.yul\":13188:13192   */\n      0x00\n        /* \"#utility.yul\":13181:13186   */\n      dup4\n        /* \"#utility.yul\":13177:13193   */\n      add\n        /* \"#utility.yul\":13171:13194   */\n      mload\n        /* \"#utility.yul\":13207:13270   */\n      tag_271\n        /* \"#utility.yul\":13264:13268   */\n      0x00\n        /* \"#utility.yul\":13259:13262   */\n      dup7\n        /* \"#utility.yul\":13255:13269   */\n      add\n        /* \"#utility.yul\":13241:13253   */\n      dup3\n        /* \"#utility.yul\":13207:13270   */\n      tag_107\n      jump\t// in\n    tag_271:\n        /* \"#utility.yul\":13114:13280   */\n      pop\n        /* \"#utility.yul\":13362:13366   */\n      0x20\n        /* \"#utility.yul\":13355:13360   */\n      dup4\n        /* \"#utility.yul\":13351:13367   */\n      add\n        /* \"#utility.yul\":13345:13368   */\n      mload\n        /* \"#utility.yul\":13415:13418   */\n      dup5\n        /* \"#utility.yul\":13409:13413   */\n      dup3\n        /* \"#utility.yul\":13405:13419   */\n      sub\n        /* \"#utility.yul\":13398:13402   */\n      0x20\n        /* \"#utility.yul\":13393:13396   */\n      dup7\n        /* \"#utility.yul\":13389:13403   */\n      add\n        /* \"#utility.yul\":13382:13420   */\n      mstore\n        /* \"#utility.yul\":13441:13514   */\n      tag_272\n        /* \"#utility.yul\":13509:13513   */\n      dup3\n        /* \"#utility.yul\":13495:13507   */\n      dup3\n        /* \"#utility.yul\":13441:13514   */\n      tag_111\n      jump\t// in\n    tag_272:\n        /* \"#utility.yul\":13433:13514   */\n      swap2\n      pop\n        /* \"#utility.yul\":13290:13525   */\n      pop\n        /* \"#utility.yul\":13610:13614   */\n      0x40\n        /* \"#utility.yul\":13603:13608   */\n      dup4\n        /* \"#utility.yul\":13599:13615   */\n      add\n        /* \"#utility.yul\":13593:13616   */\n      mload\n        /* \"#utility.yul\":13663:13666   */\n      dup5\n        /* \"#utility.yul\":13657:13661   */\n      dup3\n        /* \"#utility.yul\":13653:13667   */\n      sub\n        /* \"#utility.yul\":13646:13650   */\n      0x40\n        /* \"#utility.yul\":13641:13644   */\n      dup7\n        /* \"#utility.yul\":13637:13651   */\n      add\n        /* \"#utility.yul\":13630:13668   */\n      mstore\n        /* \"#utility.yul\":13689:13812   */\n      tag_273\n        /* \"#utility.yul\":13807:13811   */\n      dup3\n        /* \"#utility.yul\":13793:13805   */\n      dup3\n        /* \"#utility.yul\":13689:13812   */\n      tag_117\n      jump\t// in\n    tag_273:\n        /* \"#utility.yul\":13681:13812   */\n      swap2\n      pop\n        /* \"#utility.yul\":13535:13823   */\n      pop\n        /* \"#utility.yul\":13840:13844   */\n      dup1\n        /* \"#utility.yul\":13833:13844   */\n      swap2\n      pop\n        /* \"#utility.yul\":13068:13850   */\n      pop\n        /* \"#utility.yul\":12950:13850   */\n      swap3\n      swap2\n      pop\n      pop\n      jump\t// out\n        /* \"#utility.yul\":13856:14217   */\n    tag_21:\n        /* \"#utility.yul\":13993:13997   */\n      0x00\n        /* \"#utility.yul\":14031:14033   */\n      0x20\n        /* \"#utility.yul\":14020:14029   */\n      dup3\n        /* \"#utility.yul\":14016:14034   */\n      add\n        /* \"#utility.yul\":14008:14034   */\n      swap1\n      pop\n        /* \"#utility.yul\":14080:14089   */\n      dup2\n        /* \"#utility.yul\":14074:14078   */\n      dup2\n        /* \"#utility.yul\":14070:14090   */\n      sub\n        /* \"#utility.yul\":14066:14067   */\n      0x00\n        /* \"#utility.yul\":14055:14064   */\n      dup4\n        /* \"#utility.yul\":14051:14068   */\n      add\n        /* \"#utility.yul\":14044:14091   */\n      mstore\n        /* \"#utility.yul\":14108:14210   */\n      tag_275\n        /* \"#utility.yul\":14205:14209   */\n      dup2\n        /* \"#utility.yul\":14196:14202   */\n      dup5\n        /* \"#utility.yul\":14108:14210   */\n      tag_128\n      jump\t// in\n    tag_275:\n        /* \"#utility.yul\":14100:14210   */\n      swap1\n      pop\n        /* \"#utility.yul\":13856:14217   */\n      swap3\n      swap2\n      pop\n      pop\n      jump\t// out\n        /* \"#utility.yul\":14223:14371   */\n    tag_129:\n        /* \"#utility.yul\":14325:14336   */\n      0x00\n        /* \"#utility.yul\":14362:14365   */\n      dup2\n        /* \"#utility.yul\":14347:14365   */\n      swap1\n      pop\n        /* \"#utility.yul\":14223:14371   */\n      swap3\n      swap2\n      pop\n      pop\n      jump\t// out\n        /* \"#utility.yul\":14377:14767   */\n    tag_130:\n        /* \"#utility.yul\":14483:14486   */\n      0x00\n        /* \"#utility.yul\":14511:14550   */\n      tag_278\n        /* \"#utility.yul\":14544:14549   */\n      dup3\n        /* \"#utility.yul\":14511:14550   */\n      tag_108\n      jump\t// in\n    tag_278:\n        /* \"#utility.yul\":14566:14655   */\n      tag_279\n        /* \"#utility.yul\":14648:14654   */\n      dup2\n        /* \"#utility.yul\":14643:14646   */\n      dup6\n        /* \"#utility.yul\":14566:14655   */\n      tag_129\n      jump\t// in\n    tag_279:\n        /* \"#utility.yul\":14559:14655   */\n      swap4\n      pop\n        /* \"#utility.yul\":14664:14729   */\n      tag_280\n        /* \"#utility.yul\":14722:14728   */\n      dup2\n        /* \"#utility.yul\":14717:14720   */\n      dup6\n        /* \"#utility.yul\":14710:14714   */\n      0x20\n        /* \"#utility.yul\":14703:14708   */\n      dup7\n        /* \"#utility.yul\":14699:14715   */\n      add\n        /* \"#utility.yul\":14664:14729   */\n      tag_110\n      jump\t// in\n    tag_280:\n        /* \"#utility.yul\":14754:14760   */\n      dup1\n        /* \"#utility.yul\":14749:14752   */\n      dup5\n        /* \"#utility.yul\":14745:14761   */\n      add\n        /* \"#utility.yul\":14738:14761   */\n      swap2\n      pop\n        /* \"#utility.yul\":14487:14767   */\n      pop\n        /* \"#utility.yul\":14377:14767   */\n      swap3\n      swap2\n      pop\n      pop\n      jump\t// out\n        /* \"#utility.yul\":14773:15048   */\n    tag_27:\n        /* \"#utility.yul\":14905:14908   */\n      0x00\n        /* \"#utility.yul\":14927:15022   */\n      tag_282\n        /* \"#utility.yul\":15018:15021   */\n      dup3\n        /* \"#utility.yul\":15009:15015   */\n      dup5\n        /* \"#utility.yul\":14927:15022   */\n      tag_130\n      jump\t// in\n    tag_282:\n        /* \"#utility.yul\":14920:15022   */\n      swap2\n      pop\n        /* \"#utility.yul\":15039:15042   */\n      dup2\n        /* \"#utility.yul\":15032:15042   */\n      swap1\n      pop\n        /* \"#utility.yul\":14773:15048   */\n      swap3\n      swap2\n      pop\n      pop\n      jump\t// out\n        /* \"#utility.yul\":15054:15234   */\n    tag_131:\n        /* \"#utility.yul\":15102:15179   */\n      0x4e487b7100000000000000000000000000000000000000000000000000000000\n        /* \"#utility.yul\":15099:15100   */\n      0x00\n        /* \"#utility.yul\":15092:15180   */\n      mstore\n        /* \"#utility.yul\":15199:15203   */\n      0x22\n        /* \"#utility.yul\":15196:15197   */\n      0x04\n        /* \"#utility.yul\":15189:15204   */\n      mstore\n        /* \"#utility.yul\":15223:15227   */\n      0x24\n        /* \"#utility.yul\":15220:15221   */\n      0x00\n        /* \"#utility.yul\":15213:15228   */\n      revert\n        /* \"#utility.yul\":15240:15560   */\n    tag_32:\n        /* \"#utility.yul\":15284:15290   */\n      0x00\n        /* \"#utility.yul\":15321:15322   */\n      0x02\n        /* \"#utility.yul\":15315:15319   */\n      dup3\n        /* \"#utility.yul\":15311:15323   */\n      div\n        /* \"#utility.yul\":15301:15323   */\n      swap1\n      pop\n        /* \"#utility.yul\":15368:15369   */\n      0x01\n        /* \"#utility.yul\":15362:15366   */\n      dup3\n        /* \"#utility.yul\":15358:15370   */\n      and\n        /* \"#utility.yul\":15389:15407   */\n      dup1\n        /* \"#utility.yul\":15379:15460   */\n      tag_285\n      jumpi\n        /* \"#utility.yul\":15445:15449   */\n      0x7f\n        /* \"#utility.yul\":15437:15443   */\n      dup3\n        /* \"#utility.yul\":15433:15450   */\n      and\n        /* \"#utility.yul\":15423:15450   */\n      swap2\n      pop\n        /* \"#utility.yul\":15379:15460   */\n    tag_285:\n        /* \"#utility.yul\":15507:15509   */\n      0x20\n        /* \"#utility.yul\":15499:15505   */\n      dup3\n        /* \"#utility.yul\":15496:15510   */\n      lt\n        /* \"#utility.yul\":15476:15494   */\n      dup2\n        /* \"#utility.yul\":15473:15511   */\n      sub\n        /* \"#utility.yul\":15470:15554   */\n      tag_286\n      jumpi\n        /* \"#utility.yul\":15526:15544   */\n      tag_287\n      tag_131\n      jump\t// in\n    tag_287:\n        /* \"#utility.yul\":15470:15554   */\n    tag_286:\n        /* \"#utility.yul\":15291:15560   */\n      pop\n        /* \"#utility.yul\":15240:15560   */\n      swap2\n      swap1\n      pop\n      jump\t// out\n        /* \"#utility.yul\":15566:15707   */\n    tag_132:\n        /* \"#utility.yul\":15615:15619   */\n      0x00\n        /* \"#utility.yul\":15638:15641   */\n      dup2\n        /* \"#utility.yul\":15630:15641   */\n      swap1\n      pop\n        /* \"#utility.yul\":15661:15664   */\n      dup2\n        /* \"#utility.yul\":15658:15659   */\n      0x00\n        /* \"#utility.yul\":15651:15665   */\n      mstore\n        /* \"#utility.yul\":15695:15699   */\n      0x20\n        /* \"#utility.yul\":15692:15693   */\n      0x00\n        /* \"#utility.yul\":15682:15700   */\n      keccak256\n        /* \"#utility.yul\":15674:15700   */\n      swap1\n      pop\n        /* \"#utility.yul\":15566:15707   */\n      swap2\n      swap1\n      pop\n      jump\t// out\n        /* \"#utility.yul\":15713:15806   */\n    tag_133:\n        /* \"#utility.yul\":15750:15756   */\n      0x00\n        /* \"#utility.yul\":15797:15799   */\n      0x20\n        /* \"#utility.yul\":15792:15794   */\n      0x1f\n        /* \"#utility.yul\":15785:15790   */\n      dup4\n        /* \"#utility.yul\":15781:15795   */\n      add\n        /* \"#utility.yul\":15777:15800   */\n      div\n        /* \"#utility.yul\":15767:15800   */\n      swap1\n      pop\n        /* \"#utility.yul\":15713:15806   */\n      swap2\n      swap1\n      pop\n      jump\t// out\n        /* \"#utility.yul\":15812:15919   */\n    tag_134:\n        /* \"#utility.yul\":15856:15864   */\n      0x00\n        /* \"#utility.yul\":15906:15911   */\n      dup3\n        /* \"#utility.yul\":15900:15904   */\n      dup3\n        /* \"#utility.yul\":15896:15912   */\n      shl\n        /* \"#utility.yul\":15875:15912   */\n      swap1\n      pop\n        /* \"#utility.yul\":15812:15919   */\n      swap3\n      swap2\n      pop\n      pop\n      jump\t// out\n        /* \"#utility.yul\":15925:16318   */\n    tag_135:\n        /* \"#utility.yul\":15994:16000   */\n      0x00\n        /* \"#utility.yul\":16044:16045   */\n      0x08\n        /* \"#utility.yul\":16032:16042   */\n      dup4\n        /* \"#utility.yul\":16028:16046   */\n      mul\n        /* \"#utility.yul\":16067:16164   */\n      tag_292\n        /* \"#utility.yul\":16097:16163   */\n      0xffffffffffffffffffffffffffffffffffffffffffffffffffffffffffffffff\n        /* \"#utility.yul\":16086:16095   */\n      dup3\n        /* \"#utility.yul\":16067:16164   */\n      tag_134\n      jump\t// in\n    tag_292:\n        /* \"#utility.yul\":16185:16224   */\n      tag_293\n        /* \"#utility.yul\":16215:16223   */\n      dup7\n        /* \"#utility.yul\":16204:16213   */\n      dup4\n        /* \"#utility.yul\":16185:16224   */\n      tag_134\n      jump\t// in\n    tag_293:\n        /* \"#utility.yul\":16173:16224   */\n      swap6\n      pop\n        /* \"#utility.yul\":16257:16261   */\n      dup1\n        /* \"#utility.yul\":16253:16262   */\n      not\n        /* \"#utility.yul\":16246:16251   */\n      dup5\n        /* \"#utility.yul\":16242:16263   */\n      and\n        /* \"#utility.yul\":16233:16263   */\n      swap4\n      pop\n        /* \"#utility.yul\":16306:16310   */\n      dup1\n        /* \"#utility.yul\":16296:16304   */\n      dup7\n        /* \"#utility.yul\":16292:16311   */\n      and\n        /* \"#utility.yul\":16285:16290   */\n      dup5\n        /* \"#utility.yul\":16282:16312   */\n      or\n        /* \"#utility.yul\":16272:16312   */\n      swap3\n      pop\n        /* \"#utility.yul\":16001:16318   */\n      pop\n      pop\n        /* \"#utility.yul\":15925:16318   */\n      swap4\n      swap3\n      pop\n      pop\n      pop\n      jump\t// out\n        /* \"#utility.yul\":16324:16384   */\n    tag_136:\n        /* \"#utility.yul\":16352:16355   */\n      0x00\n        /* \"#utility.yul\":16373:16378   */\n      dup2\n        /* \"#utility.yul\":16366:16378   */\n      swap1\n      pop\n        /* \"#utility.yul\":16324:16384   */\n      swap2\n      swap1\n      pop\n      jump\t// out\n        /* \"#utility.yul\":16390:16532   */\n    tag_137:\n        /* \"#utility.yul\":16440:16449   */\n      0x00\n        /* \"#utility.yul\":16473:16526   */\n      tag_296\n        /* \"#utility.yul\":16491:16525   */\n      tag_297\n        /* \"#utility.yul\":16500:16524   */\n      tag_298\n        /* \"#utility.yul\":16518:16523   */\n      dup5\n        /* \"#utility.yul\":16500:16524   */\n      tag_106\n      jump\t// in\n    tag_298:\n        /* \"#utility.yul\":16491:16525   */\n      tag_136\n      jump\t// in\n    tag_297:\n        /* \"#utility.yul\":16473:16526   */\n      tag_106\n      jump\t// in\n    tag_296:\n        /* \"#utility.yul\":16460:16526   */\n      swap1\n      pop\n        /* \"#utility.yul\":16390:16532   */\n      swap2\n      swap1\n      pop\n      jump\t// out\n        /* \"#utility.yul\":16538:16613   */\n    tag_138:\n        /* \"#utility.yul\":16581:16584   */\n      0x00\n        /* \"#utility.yul\":16602:16607   */\n      dup2\n        /* \"#utility.yul\":16595:16607   */\n      swap1\n      pop\n        /* \"#utility.yul\":16538:16613   */\n      swap2\n      swap1\n      pop\n      jump\t// out\n        /* \"#utility.yul\":16619:16888   */\n    tag_139:\n        /* \"#utility.yul\":16729:16768   */\n      tag_301\n        /* \"#utility.yul\":16760:16767   */\n      dup4\n        /* \"#utility.yul\":16729:16768   */\n      tag_137\n      jump\t// in\n    tag_301:\n        /* \"#utility.yul\":16790:16881   */\n      tag_302\n        /* \"#utility.yul\":16839:16880   */\n      tag_303\n        /* \"#utility.yul\":16863:16879   */\n      dup3\n        /* \"#utility.yul\":16839:16880   */\n      tag_138\n      jump\t// in\n    tag_303:\n        /* \"#utility.yul\":16831:16837   */\n      dup5\n        /* \"#utility.yul\":16824:16828   */\n      dup5\n        /* \"#utility.yul\":16818:16829   */\n      sload\n        /* \"#utility.yul\":16790:16881   */\n      tag_135\n      jump\t// in\n    tag_302:\n        /* \"#utility.yul\":16784:16788   */\n      dup3\n        /* \"#utility.yul\":16777:16882   */\n      sstore\n        /* \"#utility.yul\":16695:16888   */\n      pop\n        /* \"#utility.yul\":16619:16888   */\n      pop\n      pop\n      pop\n      jump\t// out\n        /* \"#utility.yul\":16894:16967   */\n    tag_140:\n        /* \"#utility.yul\":16939:16942   */\n      0x00\n        /* \"#utility.yul\":16894:16967   */\n      swap1\n      jump\t// out\n        /* \"#utility.yul\":16973:17162   */\n    tag_141:\n        /* \"#utility.yul\":17050:17082   */\n      tag_306\n      tag_140\n      jump\t// in\n    tag_306:\n        /* \"#utility.yul\":17091:17156   */\n      tag_307\n        /* \"#utility.yul\":17149:17155   */\n      dup2\n        /* \"#utility.yul\":17141:17147   */\n      dup5\n        /* \"#utility.yul\":17135:17139   */\n      dup5\n        /* \"#utility.yul\":17091:17156   */\n      tag_139\n      jump\t// in\n    tag_307:\n        /* \"#utility.yul\":17026:17162   */\n      pop\n        /* \"#utility.yul\":16973:17162   */\n      pop\n      pop\n      jump\t// out\n        /* \"#utility.yul\":17168:17354   */\n    tag_142:\n        /* \"#utility.yul\":17228:17348   */\n    tag_309:\n        /* \"#utility.yul\":17245:17248   */\n      dup2\n        /* \"#utility.yul\":17238:17243   */\n      dup2\n        /* \"#utility.yul\":17235:17249   */\n      lt\n        /* \"#utility.yul\":17228:17348   */\n      iszero\n      tag_311\n      jumpi\n        /* \"#utility.yul\":17299:17338   */\n      tag_312\n        /* \"#utility.yul\":17336:17337   */\n      0x00\n        /* \"#utility.yul\":17329:17334   */\n      dup3\n        /* \"#utility.yul\":17299:17338   */\n      tag_141\n      jump\t// in\n    tag_312:\n        /* \"#utility.yul\":17272:17273   */\n      0x01\n        /* \"#utility.yul\":17265:17270   */\n      dup2\n        /* \"#utility.yul\":17261:17274   */\n      add\n        /* \"#utility.yul\":17252:17274   */\n      swap1\n      pop\n        /* \"#utility.yul\":17228:17348   */\n      jump(tag_309)\n    tag_311:\n        /* \"#utility.yul\":17168:17354   */\n      pop\n      pop\n      jump\t// out\n        /* \"#utility.yul\":17360:17903   */\n    tag_143:\n        /* \"#utility.yul\":17461:17463   */\n      0x1f\n        /* \"#utility.yul\":17456:17459   */\n      dup3\n        /* \"#utility.yul\":17453:17464   */\n      gt\n        /* \"#utility.yul\":17450:17896   */\n      iszero\n      tag_314\n      jumpi\n        /* \"#utility.yul\":17495:17533   */\n      tag_315\n        /* \"#utility.yul\":17527:17532   */\n      dup2\n        /* \"#utility.yul\":17495:17533   */\n      tag_132\n      jump\t// in\n    tag_315:\n        /* \"#utility.yul\":17579:17608   */\n      tag_316\n        /* \"#utility.yul\":17597:17607   */\n      dup5\n        /* \"#utility.yul\":17579:17608   */\n      tag_133\n      jump\t// in\n    tag_316:\n        /* \"#utility.yul\":17569:17577   */\n      dup2\n        /* \"#utility.yul\":17565:17609   */\n      add\n        /* \"#utility.yul\":17762:17764   */\n      0x20\n        /* \"#utility.yul\":17750:17760   */\n      dup6\n        /* \"#utility.yul\":17747:17765   */\n      lt\n        /* \"#utility.yul\":17744:17793   */\n      iszero\n      tag_317\n      jumpi\n        /* \"#utility.yul\":17783:17791   */\n      dup2\n        /* \"#utility.yul\":17768:17791   */\n      swap1\n      pop\n        /* \"#utility.yul\":17744:17793   */\n    tag_317:\n        /* \"#utility.yul\":17806:17886   */\n      tag_318\n        /* \"#utility.yul\":17862:17884   */\n      tag_319\n        /* \"#utility.yul\":17880:17883   */\n      dup6\n        /* \"#utility.yul\":17862:17884   */\n      tag_133\n      jump\t// in\n    tag_319:\n        /* \"#utility.yul\":17852:17860   */\n      dup4\n        /* \"#utility.yul\":17848:17885   */\n      add\n        /* \"#utility.yul\":17835:17846   */\n      dup3\n        /* \"#utility.yul\":17806:17886   */\n      tag_142\n      jump\t// in\n    tag_318:\n        /* \"#utility.yul\":17465:17896   */\n      pop\n      pop\n        /* \"#utility.yul\":17450:17896   */\n    tag_314:\n        /* \"#utility.yul\":17360:17903   */\n      pop\n      pop\n      pop\n      jump\t// out\n        /* \"#utility.yul\":17909:18026   */\n    tag_144:\n        /* \"#utility.yul\":17963:17971   */\n      0x00\n        /* \"#utility.yul\":18013:18018   */\n      dup3\n        /* \"#utility.yul\":18007:18011   */\n      dup3\n        /* \"#utility.yul\":18003:18019   */\n      shr\n        /* \"#utility.yul\":17982:18019   */\n      swap1\n      pop\n        /* \"#utility.yul\":17909:18026   */\n      swap3\n      swap2\n      pop\n      pop\n      jump\t// out\n        /* \"#utility.yul\":18032:18201   */\n    tag_145:\n        /* \"#utility.yul\":18076:18082   */\n      0x00\n        /* \"#utility.yul\":18109:18160   */\n      tag_322\n        /* \"#utility.yul\":18157:18158   */\n      0x00\n        /* \"#utility.yul\":18153:18159   */\n      not\n        /* \"#utility.yul\":18145:18150   */\n      dup5\n        /* \"#utility.yul\":18142:18143   */\n      0x08\n        /* \"#utility.yul\":18138:18151   */\n      mul\n        /* \"#utility.yul\":18109:18160   */\n      tag_144\n      jump\t// in\n    tag_322:\n        /* \"#utility.yul\":18105:18161   */\n      not\n        /* \"#utility.yul\":18190:18194   */\n      dup1\n        /* \"#utility.yul\":18184:18188   */\n      dup4\n        /* \"#utility.yul\":18180:18195   */\n      and\n        /* \"#utility.yul\":18170:18195   */\n      swap2\n      pop\n        /* \"#utility.yul\":18083:18201   */\n      pop\n        /* \"#utility.yul\":18032:18201   */\n      swap3\n      swap2\n      pop\n      pop\n      jump\t// out\n        /* \"#utility.yul\":18206:18501   */\n    tag_146:\n        /* \"#utility.yul\":18282:18286   */\n      0x00\n        /* \"#utility.yul\":18428:18457   */\n      tag_324\n        /* \"#utility.yul\":18453:18456   */\n      dup4\n        /* \"#utility.yul\":18447:18451   */\n      dup4\n        /* \"#utility.yul\":18428:18457   */\n      tag_145\n      jump\t// in\n    tag_324:\n        /* \"#utility.yul\":18420:18457   */\n      swap2\n      pop\n        /* \"#utility.yul\":18490:18493   */\n      dup3\n        /* \"#utility.yul\":18487:18488   */\n      0x02\n        /* \"#utility.yul\":18483:18494   */\n      mul\n        /* \"#utility.yul\":18477:18481   */\n      dup3\n        /* \"#utility.yul\":18474:18495   */\n      or\n        /* \"#utility.yul\":18466:18495   */\n      swap1\n      pop\n        /* \"#utility.yul\":18206:18501   */\n      swap3\n      swap2\n      pop\n      pop\n      jump\t// out\n        /* \"#utility.yul\":18506:19901   */\n    tag_48:\n        /* \"#utility.yul\":18623:18660   */\n      tag_326\n        /* \"#utility.yul\":18656:18659   */\n      dup3\n        /* \"#utility.yul\":18623:18660   */\n      tag_108\n      jump\t// in\n    tag_326:\n        /* \"#utility.yul\":18725:18743   */\n      0xffffffffffffffff\n        /* \"#utility.yul\":18717:18723   */\n      dup2\n        /* \"#utility.yul\":18714:18744   */\n      gt\n        /* \"#utility.yul\":18711:18767   */\n      iszero\n      tag_327\n      jumpi\n        /* \"#utility.yul\":18747:18765   */\n      tag_328\n      tag_96\n      jump\t// in\n    tag_328:\n        /* \"#utility.yul\":18711:18767   */\n    tag_327:\n        /* \"#utility.yul\":18791:18829   */\n      tag_329\n        /* \"#utility.yul\":18823:18827   */\n      dup3\n        /* \"#utility.yul\":18817:18828   */\n      sload\n        /* \"#utility.yul\":18791:18829   */\n      tag_32\n      jump\t// in\n    tag_329:\n        /* \"#utility.yul\":18876:18943   */\n      tag_330\n        /* \"#utility.yul\":18936:18942   */\n      dup3\n        /* \"#utility.yul\":18928:18934   */\n      dup3\n        /* \"#utility.yul\":18922:18926   */\n      dup6\n        /* \"#utility.yul\":18876:18943   */\n      tag_143\n      jump\t// in\n    tag_330:\n        /* \"#utility.yul\":18970:18971   */\n      0x00\n        /* \"#utility.yul\":18994:18998   */\n      0x20\n        /* \"#utility.yul\":18981:18998   */\n      swap1\n      pop\n        /* \"#utility.yul\":19026:19028   */\n      0x1f\n        /* \"#utility.yul\":19018:19024   */\n      dup4\n        /* \"#utility.yul\":19015:19029   */\n      gt\n        /* \"#utility.yul\":19043:19044   */\n      0x01\n        /* \"#utility.yul\":19038:19656   */\n      dup2\n      eq\n      tag_332\n      jumpi\n        /* \"#utility.yul\":19700:19701   */\n      0x00\n        /* \"#utility.yul\":19717:19723   */\n      dup5\n        /* \"#utility.yul\":19714:19791   */\n      iszero\n      tag_333\n      jumpi\n        /* \"#utility.yul\":19766:19775   */\n      dup3\n        /* \"#utility.yul\":19761:19764   */\n      dup8\n        /* \"#utility.yul\":19757:19776   */\n      add\n        /* \"#utility.yul\":19751:19777   */\n      mload\n        /* \"#utility.yul\":19742:19777   */\n      swap1\n      pop\n        /* \"#utility.yul\":19714:19791   */\n    tag_333:\n        /* \"#utility.yul\":19817:19884   */\n      tag_334\n        /* \"#utility.yul\":19877:19883   */\n      dup6\n        /* \"#utility.yul\":19870:19875   */\n      dup3\n        /* \"#utility.yul\":19817:19884   */\n      tag_146\n      jump\t// in\n    tag_334:\n        /* \"#utility.yul\":19811:19815   */\n      dup7\n        /* \"#utility.yul\":19804:19885   */\n      sstore\n        /* \"#utility.yul\":19673:19895   */\n      pop\n        /* \"#utility.yul\":19008:19895   */\n      jump(tag_331)\n        /* \"#utility.yul\":19038:19656   */\n    tag_332:\n        /* \"#utility.yul\":19090:19094   */\n      0x1f\n        /* \"#utility.yul\":19086:19095   */\n      not\n        /* \"#utility.yul\":19078:19084   */\n      dup5\n        /* \"#utility.yul\":19074:19096   */\n      and\n        /* \"#utility.yul\":19124:19161   */\n      tag_335\n        /* \"#utility.yul\":19156:19160   */\n      dup7\n        /* \"#utility.yul\":19124:19161   */\n      tag_132\n      jump\t// in\n    tag_335:\n        /* \"#utility.yul\":19183:19184   */\n      0x00\n        /* \"#utility.yul\":19197:19405   */\n    tag_336:\n        /* \"#utility.yul\":19211:19218   */\n      dup3\n        /* \"#utility.yul\":19208:19209   */\n      dup2\n        /* \"#utility.yul\":19205:19219   */\n      lt\n        /* \"#utility.yul\":19197:19405   */\n      iszero\n      tag_338\n      jumpi\n        /* \"#utility.yul\":19290:19299   */\n      dup5\n        /* \"#utility.yul\":19285:19288   */\n      dup10\n        /* \"#utility.yul\":19281:19300   */\n      add\n        /* \"#utility.yul\":19275:19301   */\n      mload\n        /* \"#utility.yul\":19267:19273   */\n      dup3\n        /* \"#utility.yul\":19260:19302   */\n      sstore\n        /* \"#utility.yul\":19341:19342   */\n      0x01\n        /* \"#utility.yul\":19333:19339   */\n      dup3\n        /* \"#utility.yul\":19329:19343   */\n      add\n        /* \"#utility.yul\":19319:19343   */\n      swap2\n      pop\n        /* \"#utility.yul\":19388:19390   */\n      0x20\n        /* \"#utility.yul\":19377:19386   */\n      dup6\n        /* \"#utility.yul\":19373:19391   */\n      add\n        /* \"#utility.yul\":19360:19391   */\n      swap5\n      pop\n        /* \"#utility.yul\":19234:19238   */\n      0x20\n        /* \"#utility.yul\":19231:19232   */\n      dup2\n        /* \"#utility.yul\":19227:19239   */\n      add\n        /* \"#utility.yul\":19222:19239   */\n      swap1\n      pop\n        /* \"#utility.yul\":19197:19405   */\n      jump(tag_336)\n    tag_338:\n        /* \"#utility.yul\":19433:19439   */\n      dup7\n        /* \"#utility.yul\":19424:19431   */\n      dup4\n        /* \"#utility.yul\":19421:19440   */\n      lt\n        /* \"#utility.yul\":19418:19597   */\n      iszero\n      tag_339\n      jumpi\n        /* \"#utility.yul\":19491:19500   */\n      dup5\n        /* \"#utility.yul\":19486:19489   */\n      dup10\n        /* \"#utility.yul\":19482:19501   */\n      add\n        /* \"#utility.yul\":19476:19502   */\n      mload\n        /* \"#utility.yul\":19534:19582   */\n      tag_340\n        /* \"#utility.yul\":19576:19580   */\n      0x1f\n        /* \"#utility.yul\":19568:19574   */\n      dup10\n        /* \"#utility.yul\":19564:19581   */\n      and\n        /* \"#utility.yul\":19553:19562   */\n      dup3\n        /* \"#utility.yul\":19534:19582   */\n      tag_145\n      jump\t// in\n    tag_340:\n        /* \"#utility.yul\":19526:19532   */\n      dup4\n        /* \"#utility.yul\":19519:19583   */\n      sstore\n        /* \"#utility.yul\":19441:19597   */\n      pop\n        /* \"#utility.yul\":19418:19597   */\n    tag_339:\n        /* \"#utility.yul\":19643:19644   */\n      0x01\n        /* \"#utility.yul\":19639:19640   */\n      0x02\n        /* \"#utility.yul\":19631:19637   */\n      dup9\n        /* \"#utility.yul\":19627:19641   */\n      mul\n        /* \"#utility.yul\":19623:19645   */\n      add\n        /* \"#utility.yul\":19617:19621   */\n      dup9\n        /* \"#utility.yul\":19610:19646   */\n      sstore\n        /* \"#utility.yul\":19045:19656   */\n      pop\n      pop\n      pop\n        /* \"#utility.yul\":19008:19895   */\n    tag_331:\n      pop\n        /* \"#utility.yul\":18598:19901   */\n      pop\n      pop\n      pop\n        /* \"#utility.yul\":18506:19901   */\n      pop\n      pop\n      jump\t// out\n\n    auxdata: 0xa2646970667358221220cafa67a481a7d2cce44dabe99a123ca8bfa038eb23851843e4874d5ec26a2a7764736f6c63430008120033\n}\n",
				"bytecode": {
					"linkReferences": {},
					"object": "608060405234801561001057600080fd5b5061108e806100206000396000f3fe608060405234801561001057600080fd5b506004361061004c5760003560e01c8063031b1b7214610051578063abe7405e14610081578063c013118f1461009d578063ce65e706146100cd575b600080fd5b61006b60048036038101906100669190610803565b6100e9565b6040516100789190610abf565b60405180910390f35b61009b60048036038101906100969190610bf3565b6102db565b005b6100b760048036038101906100b29190610803565b61035a565b6040516100c49190610d05565b60405180910390f35b6100e760048036038101906100e29190610bf3565b610507565b005b60606001826040516100fb9190610d63565b9081526020016040518091039020805480602002602001604051908101604052809291908181526020016000905b828210156102d057838290600052602060002090600302016040518060600160405290816000820154815260200160018201805461016690610da9565b80601f016020809104026020016040519081016040528092919081815260200182805461019290610da9565b80156101df5780601f106101b4576101008083540402835291602001916101df565b820191906000526020600020905b8154815290600101906020018083116101c257829003601f168201915b5050505050815260200160028201805480602002602001604051908101604052809291908181526020016000905b828210156102b957838290600052602060002001805461022c90610da9565b80601f016020809104026020016040519081016040528092919081815260200182805461025890610da9565b80156102a55780601f1061027a576101008083540402835291602001916102a5565b820191906000526020600020905b81548152906001019060200180831161028857829003601f168201915b50505050508152602001906001019061020d565b505050508152505081526020019060010190610129565b505050509050919050565b6040518060600160405280848152602001838152602001828152506000856040516103069190610d63565b90815260200160405180910390206000820151816000015560208201518160010190816103339190610f86565b5060408201518160020190805190602001906103509291906105ae565b5090505050505050565b610362610607565b6000826040516103729190610d63565b9081526020016040518091039020604051806060016040529081600082015481526020016001820180546103a590610da9565b80601f01602080910402602001604051908101604052809291908181526020018280546103d190610da9565b801561041e5780601f106103f35761010080835404028352916020019161041e565b820191906000526020600020905b81548152906001019060200180831161040157829003601f168201915b5050505050815260200160028201805480602002602001604051908101604052809291908181526020016000905b828210156104f857838290600052602060002001805461046b90610da9565b80601f016020809104026020016040519081016040528092919081815260200182805461049790610da9565b80156104e45780601f106104b9576101008083540402835291602001916104e4565b820191906000526020600020905b8154815290600101906020018083116104c757829003601f168201915b50505050508152602001906001019061044c565b50505050815250509050919050565b6001846040516105179190610d63565b908152602001604051809103902060405180606001604052808581526020018481526020018381525090806001815401808255809150506001900390600052602060002090600302016000909190919091506000820151816000015560208201518160010190816105889190610f86565b5060408201518160020190805190602001906105a59291906105ae565b50505050505050565b8280548282559060005260206000209081019282156105f6579160200282015b828111156105f55782518290816105e59190610f86565b50916020019190600101906105ce565b5b5090506106039190610628565b5090565b60405180606001604052806000815260200160608152602001606081525090565b5b80821115610648576000818161063f919061064c565b50600101610629565b5090565b50805461065890610da9565b6000825580601f1061066a5750610689565b601f016020900490600052602060002090810190610688919061068c565b5b50565b5b808211156106a557600081600090555060010161068d565b5090565b6000604051905090565b600080fd5b600080fd5b600080fd5b600080fd5b6000601f19601f8301169050919050565b7f4e487b7100000000000000000000000000000000000000000000000000000000600052604160045260246000fd5b610710826106c7565b810181811067ffffffffffffffff8211171561072f5761072e6106d8565b5b80604052505050565b60006107426106a9565b905061074e8282610707565b919050565b600067ffffffffffffffff82111561076e5761076d6106d8565b5b610777826106c7565b9050602081019050919050565b82818337600083830152505050565b60006107a66107a184610753565b610738565b9050828152602081018484840111156107c2576107c16106c2565b5b6107cd848285610784565b509392505050565b600082601f8301126107ea576107e96106bd565b5b81356107fa848260208601610793565b91505092915050565b600060208284031215610819576108186106b3565b5b600082013567ffffffffffffffff811115610837576108366106b8565b5b610843848285016107d5565b91505092915050565b600081519050919050565b600082825260208201905092915050565b6000819050602082019050919050565b6000819050919050565b61088b81610878565b82525050565b600081519050919050565b600082825260208201905092915050565b60005b838110156108cb5780820151818401526020810190506108b0565b60008484015250505050565b60006108e282610891565b6108ec818561089c565b93506108fc8185602086016108ad565b610905816106c7565b840191505092915050565b600081519050919050565b600082825260208201905092915050565b6000819050602082019050919050565b600061094883836108d7565b905092915050565b6000602082019050919050565b600061096882610910565b610972818561091b565b9350836020820285016109848561092c565b8060005b858110156109c057848403895281516109a1858261093c565b94506109ac83610950565b925060208a01995050600181019050610988565b50829750879550505050505092915050565b60006060830160008301516109ea6000860182610882565b5060208301518482036020860152610a0282826108d7565b91505060408301518482036040860152610a1c828261095d565b9150508091505092915050565b6000610a3583836109d2565b905092915050565b6000602082019050919050565b6000610a558261084c565b610a5f8185610857565b935083602082028501610a7185610868565b8060005b85811015610aad5784840389528151610a8e8582610a29565b9450610a9983610a3d565b925060208a01995050600181019050610a75565b50829750879550505050505092915050565b60006020820190508181036000830152610ad98184610a4a565b905092915050565b610aea81610878565b8114610af557600080fd5b50565b600081359050610b0781610ae1565b92915050565b600067ffffffffffffffff821115610b2857610b276106d8565b5b602082029050602081019050919050565b600080fd5b6000610b51610b4c84610b0d565b610738565b90508083825260208201905060208402830185811115610b7457610b73610b39565b5b835b81811015610bbb57803567ffffffffffffffff811115610b9957610b986106bd565b5b808601610ba689826107d5565b85526020850194505050602081019050610b76565b5050509392505050565b600082601f830112610bda57610bd96106bd565b5b8135610bea848260208601610b3e565b91505092915050565b60008060008060808587031215610c0d57610c0c6106b3565b5b600085013567ffffffffffffffff811115610c2b57610c2a6106b8565b5b610c37878288016107d5565b9450506020610c4887828801610af8565b935050604085013567ffffffffffffffff811115610c6957610c686106b8565b5b610c75878288016107d5565b925050606085013567ffffffffffffffff811115610c9657610c956106b8565b5b610ca287828801610bc5565b91505092959194509250565b6000606083016000830151610cc66000860182610882565b5060208301518482036020860152610cde82826108d7565b91505060408301518482036040860152610cf8828261095d565b9150508091505092915050565b60006020820190508181036000830152610d1f8184610cae565b905092915050565b600081905092915050565b6000610d3d82610891565b610d478185610d27565b9350610d578185602086016108ad565b80840191505092915050565b6000610d6f8284610d32565b915081905092915050565b7f4e487b7100000000000000000000000000000000000000000000000000000000600052602260045260246000fd5b60006002820490506001821680610dc157607f821691505b602082108103610dd457610dd3610d7a565b5b50919050565b60008190508160005260206000209050919050565b60006020601f8301049050919050565b600082821b905092915050565b600060088302610e3c7fffffffffffffffffffffffffffffffffffffffffffffffffffffffffffffffff82610dff565b610e468683610dff565b95508019841693508086168417925050509392505050565b6000819050919050565b6000610e83610e7e610e7984610878565b610e5e565b610878565b9050919050565b6000819050919050565b610e9d83610e68565b610eb1610ea982610e8a565b848454610e0c565b825550505050565b600090565b610ec6610eb9565b610ed1818484610e94565b505050565b5b81811015610ef557610eea600082610ebe565b600181019050610ed7565b5050565b601f821115610f3a57610f0b81610dda565b610f1484610def565b81016020851015610f23578190505b610f37610f2f85610def565b830182610ed6565b50505b505050565b600082821c905092915050565b6000610f5d60001984600802610f3f565b1980831691505092915050565b6000610f768383610f4c565b9150826002028217905092915050565b610f8f82610891565b67ffffffffffffffff811115610fa857610fa76106d8565b5b610fb28254610da9565b610fbd828285610ef9565b600060209050601f831160018114610ff05760008415610fde578287015190505b610fe88582610f6a565b865550611050565b601f198416610ffe86610dda565b60005b8281101561102657848901518255600182019150602085019450602081019050611001565b86831015611043578489015161103f601f891682610f4c565b8355505b6001600288020188555050505b50505050505056fea2646970667358221220cafa67a481a7d2cce44dabe99a123ca8bfa038eb23851843e4874d5ec26a2a7764736f6c63430008120033",
					"opcodes": "PUSH1 0x80 PUSH1 0x40 MSTORE CALLVALUE DUP1 ISZERO PUSH2 0x10 JUMPI PUSH1 0x0 DUP1 REVERT JUMPDEST POP PUSH2 0x108E DUP1 PUSH2 0x20 PUSH1 0x0 CODECOPY PUSH1 0x0 RETURN INVALID PUSH1 0x80 PUSH1 0x40 MSTORE CALLVALUE DUP1 ISZERO PUSH2 0x10 JUMPI PUSH1 0x0 DUP1 REVERT JUMPDEST POP PUSH1 0x4 CALLDATASIZE LT PUSH2 0x4C JUMPI PUSH1 0x0 CALLDATALOAD PUSH1 0xE0 SHR DUP1 PUSH4 0x31B1B72 EQ PUSH2 0x51 JUMPI DUP1 PUSH4 0xABE7405E EQ PUSH2 0x81 JUMPI DUP1 PUSH4 0xC013118F EQ PUSH2 0x9D JUMPI DUP1 PUSH4 0xCE65E706 EQ PUSH2 0xCD JUMPI JUMPDEST PUSH1 0x0 DUP1 REVERT JUMPDEST PUSH2 0x6B PUSH1 0x4 DUP1 CALLDATASIZE SUB DUP2 ADD SWAP1 PUSH2 0x66 SWAP2 SWAP1 PUSH2 0x803 JUMP JUMPDEST PUSH2 0xE9 JUMP JUMPDEST PUSH1 0x40 MLOAD PUSH2 0x78 SWAP2 SWAP1 PUSH2 0xABF JUMP JUMPDEST PUSH1 0x40 MLOAD DUP1 SWAP2 SUB SWAP1 RETURN JUMPDEST PUSH2 0x9B PUSH1 0x4 DUP1 CALLDATASIZE SUB DUP2 ADD SWAP1 PUSH2 0x96 SWAP2 SWAP1 PUSH2 0xBF3 JUMP JUMPDEST PUSH2 0x2DB JUMP JUMPDEST STOP JUMPDEST PUSH2 0xB7 PUSH1 0x4 DUP1 CALLDATASIZE SUB DUP2 ADD SWAP1 PUSH2 0xB2 SWAP2 SWAP1 PUSH2 0x803 JUMP JUMPDEST PUSH2 0x35A JUMP JUMPDEST PUSH1 0x40 MLOAD PUSH2 0xC4 SWAP2 SWAP1 PUSH2 0xD05 JUMP JUMPDEST PUSH1 0x40 MLOAD DUP1 SWAP2 SUB SWAP1 RETURN JUMPDEST PUSH2 0xE7 PUSH1 0x4 DUP1 CALLDATASIZE SUB DUP2 ADD SWAP1 PUSH2 0xE2 SWAP2 SWAP1 PUSH2 0xBF3 JUMP JUMPDEST PUSH2 0x507 JUMP JUMPDEST STOP JUMPDEST PUSH1 0x60 PUSH1 0x1 DUP3 PUSH1 0x40 MLOAD PUSH2 0xFB SWAP2 SWAP1 PUSH2 0xD63 JUMP JUMPDEST SWAP1 DUP2 MSTORE PUSH1 0x20 ADD PUSH1 0x40 MLOAD DUP1 SWAP2 SUB SWAP1 KECCAK256 DUP1 SLOAD DUP1 PUSH1 0x20 MUL PUSH1 0x20 ADD PUSH1 0x40 MLOAD SWAP1 DUP2 ADD PUSH1 0x40 MSTORE DUP1 SWAP3 SWAP2 SWAP1 DUP2 DUP2 MSTORE PUSH1 0x20 ADD PUSH1 0x0 SWAP1 JUMPDEST DUP3 DUP3 LT ISZERO PUSH2 0x2D0 JUMPI DUP4 DUP3 SWAP1 PUSH1 0x0 MSTORE PUSH1 0x20 PUSH1 0x0 KECCAK256 SWAP1 PUSH1 0x3 MUL ADD PUSH1 0x40 MLOAD DUP1 PUSH1 0x60 ADD PUSH1 0x40 MSTORE SWAP1 DUP2 PUSH1 0x0 DUP3 ADD SLOAD DUP2 MSTORE PUSH1 0x20 ADD PUSH1 0x1 DUP3 ADD DUP1 SLOAD PUSH2 0x166 SWAP1 PUSH2 0xDA9 JUMP JUMPDEST DUP1 PUSH1 0x1F ADD PUSH1 0x20 DUP1 SWAP2 DIV MUL PUSH1 0x20 ADD PUSH1 0x40 MLOAD SWAP1 DUP2 ADD PUSH1 0x40 MSTORE DUP1 SWAP3 SWAP2 SWAP1 DUP2 DUP2 MSTORE PUSH1 0x20 ADD DUP3 DUP1 SLOAD PUSH2 0x192 SWAP1 PUSH2 0xDA9 JUMP JUMPDEST DUP1 ISZERO PUSH2 0x1DF JUMPI DUP1 PUSH1 0x1F LT PUSH2 0x1B4 JUMPI PUSH2 0x100 DUP1 DUP4 SLOAD DIV MUL DUP4 MSTORE SWAP2 PUSH1 0x20 ADD SWAP2 PUSH2 0x1DF JUMP JUMPDEST DUP3 ADD SWAP2 SWAP1 PUSH1 0x0 MSTORE PUSH1 0x20 PUSH1 0x0 KECCAK256 SWAP1 JUMPDEST DUP2 SLOAD DUP2 MSTORE SWAP1 PUSH1 0x1 ADD SWAP1 PUSH1 0x20 ADD DUP1 DUP4 GT PUSH2 0x1C2 JUMPI DUP3 SWAP1 SUB PUSH1 0x1F AND DUP3 ADD SWAP2 JUMPDEST POP POP POP POP POP DUP2 MSTORE PUSH1 0x20 ADD PUSH1 0x2 DUP3 ADD DUP1 SLOAD DUP1 PUSH1 0x20 MUL PUSH1 0x20 ADD PUSH1 0x40 MLOAD SWAP1 DUP2 ADD PUSH1 0x40 MSTORE DUP1 SWAP3 SWAP2 SWAP1 DUP2 DUP2 MSTORE PUSH1 0x20 ADD PUSH1 0x0 SWAP1 JUMPDEST DUP3 DUP3 LT ISZERO PUSH2 0x2B9 JUMPI DUP4 DUP3 SWAP1 PUSH1 0x0 MSTORE PUSH1 0x20 PUSH1 0x0 KECCAK256 ADD DUP1 SLOAD PUSH2 0x22C SWAP1 PUSH2 0xDA9 JUMP JUMPDEST DUP1 PUSH1 0x1F ADD PUSH1 0x20 DUP1 SWAP2 DIV MUL PUSH1 0x20 ADD PUSH1 0x40 MLOAD SWAP1 DUP2 ADD PUSH1 0x40 MSTORE DUP1 SWAP3 SWAP2 SWAP1 DUP2 DUP2 MSTORE PUSH1 0x20 ADD DUP3 DUP1 SLOAD PUSH2 0x258 SWAP1 PUSH2 0xDA9 JUMP JUMPDEST DUP1 ISZERO PUSH2 0x2A5 JUMPI DUP1 PUSH1 0x1F LT PUSH2 0x27A JUMPI PUSH2 0x100 DUP1 DUP4 SLOAD DIV MUL DUP4 MSTORE SWAP2 PUSH1 0x20 ADD SWAP2 PUSH2 0x2A5 JUMP JUMPDEST DUP3 ADD SWAP2 SWAP1 PUSH1 0x0 MSTORE PUSH1 0x20 PUSH1 0x0 KECCAK256 SWAP1 JUMPDEST DUP2 SLOAD DUP2 MSTORE SWAP1 PUSH1 0x1 ADD SWAP1 PUSH1 0x20 ADD DUP1 DUP4 GT PUSH2 0x288 JUMPI DUP3 SWAP1 SUB PUSH1 0x1F AND DUP3 ADD SWAP2 JUMPDEST POP POP POP POP POP DUP2 MSTORE PUSH1 0x20 ADD SWAP1 PUSH1 0x1 ADD SWAP1 PUSH2 0x20D JUMP JUMPDEST POP POP POP POP DUP2 MSTORE POP POP DUP2 MSTORE PUSH1 0x20 ADD SWAP1 PUSH1 0x1 ADD SWAP1 PUSH2 0x129 JUMP JUMPDEST POP POP POP POP SWAP1 POP SWAP2 SWAP1 POP JUMP JUMPDEST PUSH1 0x40 MLOAD DUP1 PUSH1 0x60 ADD PUSH1 0x40 MSTORE DUP1 DUP5 DUP2 MSTORE PUSH1 0x20 ADD DUP4 DUP2 MSTORE PUSH1 0x20 ADD DUP3 DUP2 MSTORE POP PUSH1 0x0 DUP6 PUSH1 0x40 MLOAD PUSH2 0x306 SWAP2 SWAP1 PUSH2 0xD63 JUMP JUMPDEST SWAP1 DUP2 MSTORE PUSH1 0x20 ADD PUSH1 0x40 MLOAD DUP1 SWAP2 SUB SWAP1 KECCAK256 PUSH1 0x0 DUP3 ADD MLOAD DUP2 PUSH1 0x0 ADD SSTORE PUSH1 0x20 DUP3 ADD MLOAD DUP2 PUSH1 0x1 ADD SWAP1 DUP2 PUSH2 0x333 SWAP2 SWAP1 PUSH2 0xF86 JUMP JUMPDEST POP PUSH1 0x40 DUP3 ADD MLOAD DUP2 PUSH1 0x2 ADD SWAP1 DUP1 MLOAD SWAP1 PUSH1 0x20 ADD SWAP1 PUSH2 0x350 SWAP3 SWAP2 SWAP1 PUSH2 0x5AE JUMP JUMPDEST POP SWAP1 POP POP POP POP POP POP JUMP JUMPDEST PUSH2 0x362 PUSH2 0x607 JUMP JUMPDEST PUSH1 0x0 DUP3 PUSH1 0x40 MLOAD PUSH2 0x372 SWAP2 SWAP1 PUSH2 0xD63 JUMP JUMPDEST SWAP1 DUP2 MSTORE PUSH1 0x20 ADD PUSH1 0x40 MLOAD DUP1 SWAP2 SUB SWAP1 KECCAK256 PUSH1 0x40 MLOAD DUP1 PUSH1 0x60 ADD PUSH1 0x40 MSTORE SWAP1 DUP2 PUSH1 0x0 DUP3 ADD SLOAD DUP2 MSTORE PUSH1 0x20 ADD PUSH1 0x1 DUP3 ADD DUP1 SLOAD PUSH2 0x3A5 SWAP1 PUSH2 0xDA9 JUMP JUMPDEST DUP1 PUSH1 0x1F ADD PUSH1 0x20 DUP1 SWAP2 DIV MUL PUSH1 0x20 ADD PUSH1 0x40 MLOAD SWAP1 DUP2 ADD PUSH1 0x40 MSTORE DUP1 SWAP3 SWAP2 SWAP1 DUP2 DUP2 MSTORE PUSH1 0x20 ADD DUP3 DUP1 SLOAD PUSH2 0x3D1 SWAP1 PUSH2 0xDA9 JUMP JUMPDEST DUP1 ISZERO PUSH2 0x41E JUMPI DUP1 PUSH1 0x1F LT PUSH2 0x3F3 JUMPI PUSH2 0x100 DUP1 DUP4 SLOAD DIV MUL DUP4 MSTORE SWAP2 PUSH1 0x20 ADD SWAP2 PUSH2 0x41E JUMP JUMPDEST DUP3 ADD SWAP2 SWAP1 PUSH1 0x0 MSTORE PUSH1 0x20 PUSH1 0x0 KECCAK256 SWAP1 JUMPDEST DUP2 SLOAD DUP2 MSTORE SWAP1 PUSH1 0x1 ADD SWAP1 PUSH1 0x20 ADD DUP1 DUP4 GT PUSH2 0x401 JUMPI DUP3 SWAP1 SUB PUSH1 0x1F AND DUP3 ADD SWAP2 JUMPDEST POP POP POP POP POP DUP2 MSTORE PUSH1 0x20 ADD PUSH1 0x2 DUP3 ADD DUP1 SLOAD DUP1 PUSH1 0x20 MUL PUSH1 0x20 ADD PUSH1 0x40 MLOAD SWAP1 DUP2 ADD PUSH1 0x40 MSTORE DUP1 SWAP3 SWAP2 SWAP1 DUP2 DUP2 MSTORE PUSH1 0x20 ADD PUSH1 0x0 SWAP1 JUMPDEST DUP3 DUP3 LT ISZERO PUSH2 0x4F8 JUMPI DUP4 DUP3 SWAP1 PUSH1 0x0 MSTORE PUSH1 0x20 PUSH1 0x0 KECCAK256 ADD DUP1 SLOAD PUSH2 0x46B SWAP1 PUSH2 0xDA9 JUMP JUMPDEST DUP1 PUSH1 0x1F ADD PUSH1 0x20 DUP1 SWAP2 DIV MUL PUSH1 0x20 ADD PUSH1 0x40 MLOAD SWAP1 DUP2 ADD PUSH1 0x40 MSTORE DUP1 SWAP3 SWAP2 SWAP1 DUP2 DUP2 MSTORE PUSH1 0x20 ADD DUP3 DUP1 SLOAD PUSH2 0x497 SWAP1 PUSH2 0xDA9 JUMP JUMPDEST DUP1 ISZERO PUSH2 0x4E4 JUMPI DUP1 PUSH1 0x1F LT PUSH2 0x4B9 JUMPI PUSH2 0x100 DUP1 DUP4 SLOAD DIV MUL DUP4 MSTORE SWAP2 PUSH1 0x20 ADD SWAP2 PUSH2 0x4E4 JUMP JUMPDEST DUP3 ADD SWAP2 SWAP1 PUSH1 0x0 MSTORE PUSH1 0x20 PUSH1 0x0 KECCAK256 SWAP1 JUMPDEST DUP2 SLOAD DUP2 MSTORE SWAP1 PUSH1 0x1 ADD SWAP1 PUSH1 0x20 ADD DUP1 DUP4 GT PUSH2 0x4C7 JUMPI DUP3 SWAP1 SUB PUSH1 0x1F AND DUP3 ADD SWAP2 JUMPDEST POP POP POP POP POP DUP2 MSTORE PUSH1 0x20 ADD SWAP1 PUSH1 0x1 ADD SWAP1 PUSH2 0x44C JUMP JUMPDEST POP POP POP POP DUP2 MSTORE POP POP SWAP1 POP SWAP2 SWAP1 POP JUMP JUMPDEST PUSH1 0x1 DUP5 PUSH1 0x40 MLOAD PUSH2 0x517 SWAP2 SWAP1 PUSH2 0xD63 JUMP JUMPDEST SWAP1 DUP2 MSTORE PUSH1 0x20 ADD PUSH1 0x40 MLOAD DUP1 SWAP2 SUB SWAP1 KECCAK256 PUSH1 0x40 MLOAD DUP1 PUSH1 0x60 ADD PUSH1 0x40 MSTORE DUP1 DUP6 DUP2 MSTORE PUSH1 0x20 ADD DUP5 DUP2 MSTORE PUSH1 0x20 ADD DUP4 DUP2 MSTORE POP SWAP1 DUP1 PUSH1 0x1 DUP2 SLOAD ADD DUP1 DUP3 SSTORE DUP1 SWAP2 POP POP PUSH1 0x1 SWAP1 SUB SWAP1 PUSH1 0x0 MSTORE PUSH1 0x20 PUSH1 0x0 KECCAK256 SWAP1 PUSH1 0x3 MUL ADD PUSH1 0x0 SWAP1 SWAP2 SWAP1 SWAP2 SWAP1 SWAP2 POP PUSH1 0x0 DUP3 ADD MLOAD DUP2 PUSH1 0x0 ADD SSTORE PUSH1 0x20 DUP3 ADD MLOAD DUP2 PUSH1 0x1 ADD SWAP1 DUP2 PUSH2 0x588 SWAP2 SWAP1 PUSH2 0xF86 JUMP JUMPDEST POP PUSH1 0x40 DUP3 ADD MLOAD DUP2 PUSH1 0x2 ADD SWAP1 DUP1 MLOAD SWAP1 PUSH1 0x20 ADD SWAP1 PUSH2 0x5A5 SWAP3 SWAP2 SWAP1 PUSH2 0x5AE JUMP JUMPDEST POP POP POP POP POP POP POP JUMP JUMPDEST DUP3 DUP1 SLOAD DUP3 DUP3 SSTORE SWAP1 PUSH1 0x0 MSTORE PUSH1 0x20 PUSH1 0x0 KECCAK256 SWAP1 DUP2 ADD SWAP3 DUP3 ISZERO PUSH2 0x5F6 JUMPI SWAP2 PUSH1 0x20 MUL DUP3 ADD JUMPDEST DUP3 DUP2 GT ISZERO PUSH2 0x5F5 JUMPI DUP3 MLOAD DUP3 SWAP1 DUP2 PUSH2 0x5E5 SWAP2 SWAP1 PUSH2 0xF86 JUMP JUMPDEST POP SWAP2 PUSH1 0x20 ADD SWAP2 SWAP1 PUSH1 0x1 ADD SWAP1 PUSH2 0x5CE JUMP JUMPDEST JUMPDEST POP SWAP1 POP PUSH2 0x603 SWAP2 SWAP1 PUSH2 0x628 JUMP JUMPDEST POP SWAP1 JUMP JUMPDEST PUSH1 0x40 MLOAD DUP1 PUSH1 0x60 ADD PUSH1 0x40 MSTORE DUP1 PUSH1 0x0 DUP2 MSTORE PUSH1 0x20 ADD PUSH1 0x60 DUP2 MSTORE PUSH1 0x20 ADD PUSH1 0x60 DUP2 MSTORE POP SWAP1 JUMP JUMPDEST JUMPDEST DUP1 DUP3 GT ISZERO PUSH2 0x648 JUMPI PUSH1 0x0 DUP2 DUP2 PUSH2 0x63F SWAP2 SWAP1 PUSH2 0x64C JUMP JUMPDEST POP PUSH1 0x1 ADD PUSH2 0x629 JUMP JUMPDEST POP SWAP1 JUMP JUMPDEST POP DUP1 SLOAD PUSH2 0x658 SWAP1 PUSH2 0xDA9 JUMP JUMPDEST PUSH1 0x0 DUP3 SSTORE DUP1 PUSH1 0x1F LT PUSH2 0x66A JUMPI POP PUSH2 0x689 JUMP JUMPDEST PUSH1 0x1F ADD PUSH1 0x20 SWAP1 DIV SWAP1 PUSH1 0x0 MSTORE PUSH1 0x20 PUSH1 0x0 KECCAK256 SWAP1 DUP2 ADD SWAP1 PUSH2 0x688 SWAP2 SWAP1 PUSH2 0x68C JUMP JUMPDEST JUMPDEST POP JUMP JUMPDEST JUMPDEST DUP1 DUP3 GT ISZERO PUSH2 0x6A5 JUMPI PUSH1 0x0 DUP2 PUSH1 0x0 SWAP1 SSTORE POP PUSH1 0x1 ADD PUSH2 0x68D JUMP JUMPDEST POP SWAP1 JUMP JUMPDEST PUSH1 0x0 PUSH1 0x40 MLOAD SWAP1 POP SWAP1 JUMP JUMPDEST PUSH1 0x0 DUP1 REVERT JUMPDEST PUSH1 0x0 DUP1 REVERT JUMPDEST PUSH1 0x0 DUP1 REVERT JUMPDEST PUSH1 0x0 DUP1 REVERT JUMPDEST PUSH1 0x0 PUSH1 0x1F NOT PUSH1 0x1F DUP4 ADD AND SWAP1 POP SWAP2 SWAP1 POP JUMP JUMPDEST PUSH32 0x4E487B7100000000000000000000000000000000000000000000000000000000 PUSH1 0x0 MSTORE PUSH1 0x41 PUSH1 0x4 MSTORE PUSH1 0x24 PUSH1 0x0 REVERT JUMPDEST PUSH2 0x710 DUP3 PUSH2 0x6C7 JUMP JUMPDEST DUP2 ADD DUP2 DUP2 LT PUSH8 0xFFFFFFFFFFFFFFFF DUP3 GT OR ISZERO PUSH2 0x72F JUMPI PUSH2 0x72E PUSH2 0x6D8 JUMP JUMPDEST JUMPDEST DUP1 PUSH1 0x40 MSTORE POP POP POP JUMP JUMPDEST PUSH1 0x0 PUSH2 0x742 PUSH2 0x6A9 JUMP JUMPDEST SWAP1 POP PUSH2 0x74E DUP3 DUP3 PUSH2 0x707 JUMP JUMPDEST SWAP2 SWAP1 POP JUMP JUMPDEST PUSH1 0x0 PUSH8 0xFFFFFFFFFFFFFFFF DUP3 GT ISZERO PUSH2 0x76E JUMPI PUSH2 0x76D PUSH2 0x6D8 JUMP JUMPDEST JUMPDEST PUSH2 0x777 DUP3 PUSH2 0x6C7 JUMP JUMPDEST SWAP1 POP PUSH1 0x20 DUP2 ADD SWAP1 POP SWAP2 SWAP1 POP JUMP JUMPDEST DUP3 DUP2 DUP4 CALLDATACOPY PUSH1 0x0 DUP4 DUP4 ADD MSTORE POP POP POP JUMP JUMPDEST PUSH1 0x0 PUSH2 0x7A6 PUSH2 0x7A1 DUP5 PUSH2 0x753 JUMP JUMPDEST PUSH2 0x738 JUMP JUMPDEST SWAP1 POP DUP3 DUP2 MSTORE PUSH1 0x20 DUP2 ADD DUP5 DUP5 DUP5 ADD GT ISZERO PUSH2 0x7C2 JUMPI PUSH2 0x7C1 PUSH2 0x6C2 JUMP JUMPDEST JUMPDEST PUSH2 0x7CD DUP5 DUP3 DUP6 PUSH2 0x784 JUMP JUMPDEST POP SWAP4 SWAP3 POP POP POP JUMP JUMPDEST PUSH1 0x0 DUP3 PUSH1 0x1F DUP4 ADD SLT PUSH2 0x7EA JUMPI PUSH2 0x7E9 PUSH2 0x6BD JUMP JUMPDEST JUMPDEST DUP2 CALLDATALOAD PUSH2 0x7FA DUP5 DUP3 PUSH1 0x20 DUP7 ADD PUSH2 0x793 JUMP JUMPDEST SWAP2 POP POP SWAP3 SWAP2 POP POP JUMP JUMPDEST PUSH1 0x0 PUSH1 0x20 DUP3 DUP5 SUB SLT ISZERO PUSH2 0x819 JUMPI PUSH2 0x818 PUSH2 0x6B3 JUMP JUMPDEST JUMPDEST PUSH1 0x0 DUP3 ADD CALLDATALOAD PUSH8 0xFFFFFFFFFFFFFFFF DUP2 GT ISZERO PUSH2 0x837 JUMPI PUSH2 0x836 PUSH2 0x6B8 JUMP JUMPDEST JUMPDEST PUSH2 0x843 DUP5 DUP3 DUP6 ADD PUSH2 0x7D5 JUMP JUMPDEST SWAP2 POP POP SWAP3 SWAP2 POP POP JUMP JUMPDEST PUSH1 0x0 DUP2 MLOAD SWAP1 POP SWAP2 SWAP1 POP JUMP JUMPDEST PUSH1 0x0 DUP3 DUP3 MSTORE PUSH1 0x20 DUP3 ADD SWAP1 POP SWAP3 SWAP2 POP POP JUMP JUMPDEST PUSH1 0x0 DUP2 SWAP1 POP PUSH1 0x20 DUP3 ADD SWAP1 POP SWAP2 SWAP1 POP JUMP JUMPDEST PUSH1 0x0 DUP2 SWAP1 POP SWAP2 SWAP1 POP JUMP JUMPDEST PUSH2 0x88B DUP2 PUSH2 0x878 JUMP JUMPDEST DUP3 MSTORE POP POP JUMP JUMPDEST PUSH1 0x0 DUP2 MLOAD SWAP1 POP SWAP2 SWAP1 POP JUMP JUMPDEST PUSH1 0x0 DUP3 DUP3 MSTORE PUSH1 0x20 DUP3 ADD SWAP1 POP SWAP3 SWAP2 POP POP JUMP JUMPDEST PUSH1 0x0 JUMPDEST DUP4 DUP2 LT ISZERO PUSH2 0x8CB JUMPI DUP1 DUP3 ADD MLOAD DUP2 DUP5 ADD MSTORE PUSH1 0x20 DUP2 ADD SWAP1 POP PUSH2 0x8B0 JUMP JUMPDEST PUSH1 0x0 DUP5 DUP5 ADD MSTORE POP POP POP POP JUMP JUMPDEST PUSH1 0x0 PUSH2 0x8E2 DUP3 PUSH2 0x891 JUMP JUMPDEST PUSH2 0x8EC DUP2 DUP6 PUSH2 0x89C JUMP JUMPDEST SWAP4 POP PUSH2 0x8FC DUP2 DUP6 PUSH1 0x20 DUP7 ADD PUSH2 0x8AD JUMP JUMPDEST PUSH2 0x905 DUP2 PUSH2 0x6C7 JUMP JUMPDEST DUP5 ADD SWAP2 POP POP SWAP3 SWAP2 POP POP JUMP JUMPDEST PUSH1 0x0 DUP2 MLOAD SWAP1 POP SWAP2 SWAP1 POP JUMP JUMPDEST PUSH1 0x0 DUP3 DUP3 MSTORE PUSH1 0x20 DUP3 ADD SWAP1 POP SWAP3 SWAP2 POP POP JUMP JUMPDEST PUSH1 0x0 DUP2 SWAP1 POP PUSH1 0x20 DUP3 ADD SWAP1 POP SWAP2 SWAP1 POP JUMP JUMPDEST PUSH1 0x0 PUSH2 0x948 DUP4 DUP4 PUSH2 0x8D7 JUMP JUMPDEST SWAP1 POP SWAP3 SWAP2 POP POP JUMP JUMPDEST PUSH1 0x0 PUSH1 0x20 DUP3 ADD SWAP1 POP SWAP2 SWAP1 POP JUMP JUMPDEST PUSH1 0x0 PUSH2 0x968 DUP3 PUSH2 0x910 JUMP JUMPDEST PUSH2 0x972 DUP2 DUP6 PUSH2 0x91B JUMP JUMPDEST SWAP4 POP DUP4 PUSH1 0x20 DUP3 MUL DUP6 ADD PUSH2 0x984 DUP6 PUSH2 0x92C JUMP JUMPDEST DUP1 PUSH1 0x0 JUMPDEST DUP6 DUP2 LT ISZERO PUSH2 0x9C0 JUMPI DUP5 DUP5 SUB DUP10 MSTORE DUP2 MLOAD PUSH2 0x9A1 DUP6 DUP3 PUSH2 0x93C JUMP JUMPDEST SWAP5 POP PUSH2 0x9AC DUP4 PUSH2 0x950 JUMP JUMPDEST SWAP3 POP PUSH1 0x20 DUP11 ADD SWAP10 POP POP PUSH1 0x1 DUP2 ADD SWAP1 POP PUSH2 0x988 JUMP JUMPDEST POP DUP3 SWAP8 POP DUP8 SWAP6 POP POP POP POP POP POP SWAP3 SWAP2 POP POP JUMP JUMPDEST PUSH1 0x0 PUSH1 0x60 DUP4 ADD PUSH1 0x0 DUP4 ADD MLOAD PUSH2 0x9EA PUSH1 0x0 DUP7 ADD DUP3 PUSH2 0x882 JUMP JUMPDEST POP PUSH1 0x20 DUP4 ADD MLOAD DUP5 DUP3 SUB PUSH1 0x20 DUP7 ADD MSTORE PUSH2 0xA02 DUP3 DUP3 PUSH2 0x8D7 JUMP JUMPDEST SWAP2 POP POP PUSH1 0x40 DUP4 ADD MLOAD DUP5 DUP3 SUB PUSH1 0x40 DUP7 ADD MSTORE PUSH2 0xA1C DUP3 DUP3 PUSH2 0x95D JUMP JUMPDEST SWAP2 POP POP DUP1 SWAP2 POP POP SWAP3 SWAP2 POP POP JUMP JUMPDEST PUSH1 0x0 PUSH2 0xA35 DUP4 DUP4 PUSH2 0x9D2 JUMP JUMPDEST SWAP1 POP SWAP3 SWAP2 POP POP JUMP JUMPDEST PUSH1 0x0 PUSH1 0x20 DUP3 ADD SWAP1 POP SWAP2 SWAP1 POP JUMP JUMPDEST PUSH1 0x0 PUSH2 0xA55 DUP3 PUSH2 0x84C JUMP JUMPDEST PUSH2 0xA5F DUP2 DUP6 PUSH2 0x857 JUMP JUMPDEST SWAP4 POP DUP4 PUSH1 0x20 DUP3 MUL DUP6 ADD PUSH2 0xA71 DUP6 PUSH2 0x868 JUMP JUMPDEST DUP1 PUSH1 0x0 JUMPDEST DUP6 DUP2 LT ISZERO PUSH2 0xAAD JUMPI DUP5 DUP5 SUB DUP10 MSTORE DUP2 MLOAD PUSH2 0xA8E DUP6 DUP3 PUSH2 0xA29 JUMP JUMPDEST SWAP5 POP PUSH2 0xA99 DUP4 PUSH2 0xA3D JUMP JUMPDEST SWAP3 POP PUSH1 0x20 DUP11 ADD SWAP10 POP POP PUSH1 0x1 DUP2 ADD SWAP1 POP PUSH2 0xA75 JUMP JUMPDEST POP DUP3 SWAP8 POP DUP8 SWAP6 POP POP POP POP POP POP SWAP3 SWAP2 POP POP JUMP JUMPDEST PUSH1 0x0 PUSH1 0x20 DUP3 ADD SWAP1 POP DUP2 DUP2 SUB PUSH1 0x0 DUP4 ADD MSTORE PUSH2 0xAD9 DUP2 DUP5 PUSH2 0xA4A JUMP JUMPDEST SWAP1 POP SWAP3 SWAP2 POP POP JUMP JUMPDEST PUSH2 0xAEA DUP2 PUSH2 0x878 JUMP JUMPDEST DUP2 EQ PUSH2 0xAF5 JUMPI PUSH1 0x0 DUP1 REVERT JUMPDEST POP JUMP JUMPDEST PUSH1 0x0 DUP2 CALLDATALOAD SWAP1 POP PUSH2 0xB07 DUP2 PUSH2 0xAE1 JUMP JUMPDEST SWAP3 SWAP2 POP POP JUMP JUMPDEST PUSH1 0x0 PUSH8 0xFFFFFFFFFFFFFFFF DUP3 GT ISZERO PUSH2 0xB28 JUMPI PUSH2 0xB27 PUSH2 0x6D8 JUMP JUMPDEST JUMPDEST PUSH1 0x20 DUP3 MUL SWAP1 POP PUSH1 0x20 DUP2 ADD SWAP1 POP SWAP2 SWAP1 POP JUMP JUMPDEST PUSH1 0x0 DUP1 REVERT JUMPDEST PUSH1 0x0 PUSH2 0xB51 PUSH2 0xB4C DUP5 PUSH2 0xB0D JUMP JUMPDEST PUSH2 0x738 JUMP JUMPDEST SWAP1 POP DUP1 DUP4 DUP3 MSTORE PUSH1 0x20 DUP3 ADD SWAP1 POP PUSH1 0x20 DUP5 MUL DUP4 ADD DUP6 DUP2 GT ISZERO PUSH2 0xB74 JUMPI PUSH2 0xB73 PUSH2 0xB39 JUMP JUMPDEST JUMPDEST DUP4 JUMPDEST DUP2 DUP2 LT ISZERO PUSH2 0xBBB JUMPI DUP1 CALLDATALOAD PUSH8 0xFFFFFFFFFFFFFFFF DUP2 GT ISZERO PUSH2 0xB99 JUMPI PUSH2 0xB98 PUSH2 0x6BD JUMP JUMPDEST JUMPDEST DUP1 DUP7 ADD PUSH2 0xBA6 DUP10 DUP3 PUSH2 0x7D5 JUMP JUMPDEST DUP6 MSTORE PUSH1 0x20 DUP6 ADD SWAP5 POP POP POP PUSH1 0x20 DUP2 ADD SWAP1 POP PUSH2 0xB76 JUMP JUMPDEST POP POP POP SWAP4 SWAP3 POP POP POP JUMP JUMPDEST PUSH1 0x0 DUP3 PUSH1 0x1F DUP4 ADD SLT PUSH2 0xBDA JUMPI PUSH2 0xBD9 PUSH2 0x6BD JUMP JUMPDEST JUMPDEST DUP2 CALLDATALOAD PUSH2 0xBEA DUP5 DUP3 PUSH1 0x20 DUP7 ADD PUSH2 0xB3E JUMP JUMPDEST SWAP2 POP POP SWAP3 SWAP2 POP POP JUMP JUMPDEST PUSH1 0x0 DUP1 PUSH1 0x0 DUP1 PUSH1 0x80 DUP6 DUP8 SUB SLT ISZERO PUSH2 0xC0D JUMPI PUSH2 0xC0C PUSH2 0x6B3 JUMP JUMPDEST JUMPDEST PUSH1 0x0 DUP6 ADD CALLDATALOAD PUSH8 0xFFFFFFFFFFFFFFFF DUP2 GT ISZERO PUSH2 0xC2B JUMPI PUSH2 0xC2A PUSH2 0x6B8 JUMP JUMPDEST JUMPDEST PUSH2 0xC37 DUP8 DUP3 DUP9 ADD PUSH2 0x7D5 JUMP JUMPDEST SWAP5 POP POP PUSH1 0x20 PUSH2 0xC48 DUP8 DUP3 DUP9 ADD PUSH2 0xAF8 JUMP JUMPDEST SWAP4 POP POP PUSH1 0x40 DUP6 ADD CALLDATALOAD PUSH8 0xFFFFFFFFFFFFFFFF DUP2 GT ISZERO PUSH2 0xC69 JUMPI PUSH2 0xC68 PUSH2 0x6B8 JUMP JUMPDEST JUMPDEST PUSH2 0xC75 DUP8 DUP3 DUP9 ADD PUSH2 0x7D5 JUMP JUMPDEST SWAP3 POP POP PUSH1 0x60 DUP6 ADD CALLDATALOAD PUSH8 0xFFFFFFFFFFFFFFFF DUP2 GT ISZERO PUSH2 0xC96 JUMPI PUSH2 0xC95 PUSH2 0x6B8 JUMP JUMPDEST JUMPDEST PUSH2 0xCA2 DUP8 DUP3 DUP9 ADD PUSH2 0xBC5 JUMP JUMPDEST SWAP2 POP POP SWAP3 SWAP6 SWAP2 SWAP5 POP SWAP3 POP JUMP JUMPDEST PUSH1 0x0 PUSH1 0x60 DUP4 ADD PUSH1 0x0 DUP4 ADD MLOAD PUSH2 0xCC6 PUSH1 0x0 DUP7 ADD DUP3 PUSH2 0x882 JUMP JUMPDEST POP PUSH1 0x20 DUP4 ADD MLOAD DUP5 DUP3 SUB PUSH1 0x20 DUP7 ADD MSTORE PUSH2 0xCDE DUP3 DUP3 PUSH2 0x8D7 JUMP JUMPDEST SWAP2 POP POP PUSH1 0x40 DUP4 ADD MLOAD DUP5 DUP3 SUB PUSH1 0x40 DUP7 ADD MSTORE PUSH2 0xCF8 DUP3 DUP3 PUSH2 0x95D JUMP JUMPDEST SWAP2 POP POP DUP1 SWAP2 POP POP SWAP3 SWAP2 POP POP JUMP JUMPDEST PUSH1 0x0 PUSH1 0x20 DUP3 ADD SWAP1 POP DUP2 DUP2 SUB PUSH1 0x0 DUP4 ADD MSTORE PUSH2 0xD1F DUP2 DUP5 PUSH2 0xCAE JUMP JUMPDEST SWAP1 POP SWAP3 SWAP2 POP POP JUMP JUMPDEST PUSH1 0x0 DUP2 SWAP1 POP SWAP3 SWAP2 POP POP JUMP JUMPDEST PUSH1 0x0 PUSH2 0xD3D DUP3 PUSH2 0x891 JUMP JUMPDEST PUSH2 0xD47 DUP2 DUP6 PUSH2 0xD27 JUMP JUMPDEST SWAP4 POP PUSH2 0xD57 DUP2 DUP6 PUSH1 0x20 DUP7 ADD PUSH2 0x8AD JUMP JUMPDEST DUP1 DUP5 ADD SWAP2 POP POP SWAP3 SWAP2 POP POP JUMP JUMPDEST PUSH1 0x0 PUSH2 0xD6F DUP3 DUP5 PUSH2 0xD32 JUMP JUMPDEST SWAP2 POP DUP2 SWAP1 POP SWAP3 SWAP2 POP POP JUMP JUMPDEST PUSH32 0x4E487B7100000000000000000000000000000000000000000000000000000000 PUSH1 0x0 MSTORE PUSH1 0x22 PUSH1 0x4 MSTORE PUSH1 0x24 PUSH1 0x0 REVERT JUMPDEST PUSH1 0x0 PUSH1 0x2 DUP3 DIV SWAP1 POP PUSH1 0x1 DUP3 AND DUP1 PUSH2 0xDC1 JUMPI PUSH1 0x7F DUP3 AND SWAP2 POP JUMPDEST PUSH1 0x20 DUP3 LT DUP2 SUB PUSH2 0xDD4 JUMPI PUSH2 0xDD3 PUSH2 0xD7A JUMP JUMPDEST JUMPDEST POP SWAP2 SWAP1 POP JUMP JUMPDEST PUSH1 0x0 DUP2 SWAP1 POP DUP2 PUSH1 0x0 MSTORE PUSH1 0x20 PUSH1 0x0 KECCAK256 SWAP1 POP SWAP2 SWAP1 POP JUMP JUMPDEST PUSH1 0x0 PUSH1 0x20 PUSH1 0x1F DUP4 ADD DIV SWAP1 POP SWAP2 SWAP1 POP JUMP JUMPDEST PUSH1 0x0 DUP3 DUP3 SHL SWAP1 POP SWAP3 SWAP2 POP POP JUMP JUMPDEST PUSH1 0x0 PUSH1 0x8 DUP4 MUL PUSH2 0xE3C PUSH32 0xFFFFFFFFFFFFFFFFFFFFFFFFFFFFFFFFFFFFFFFFFFFFFFFFFFFFFFFFFFFFFFFF DUP3 PUSH2 0xDFF JUMP JUMPDEST PUSH2 0xE46 DUP7 DUP4 PUSH2 0xDFF JUMP JUMPDEST SWAP6 POP DUP1 NOT DUP5 AND SWAP4 POP DUP1 DUP7 AND DUP5 OR SWAP3 POP POP POP SWAP4 SWAP3 POP POP POP JUMP JUMPDEST PUSH1 0x0 DUP2 SWAP1 POP SWAP2 SWAP1 POP JUMP JUMPDEST PUSH1 0x0 PUSH2 0xE83 PUSH2 0xE7E PUSH2 0xE79 DUP5 PUSH2 0x878 JUMP JUMPDEST PUSH2 0xE5E JUMP JUMPDEST PUSH2 0x878 JUMP JUMPDEST SWAP1 POP SWAP2 SWAP1 POP JUMP JUMPDEST PUSH1 0x0 DUP2 SWAP1 POP SWAP2 SWAP1 POP JUMP JUMPDEST PUSH2 0xE9D DUP4 PUSH2 0xE68 JUMP JUMPDEST PUSH2 0xEB1 PUSH2 0xEA9 DUP3 PUSH2 0xE8A JUMP JUMPDEST DUP5 DUP5 SLOAD PUSH2 0xE0C JUMP JUMPDEST DUP3 SSTORE POP POP POP POP JUMP JUMPDEST PUSH1 0x0 SWAP1 JUMP JUMPDEST PUSH2 0xEC6 PUSH2 0xEB9 JUMP JUMPDEST PUSH2 0xED1 DUP2 DUP5 DUP5 PUSH2 0xE94 JUMP JUMPDEST POP POP POP JUMP JUMPDEST JUMPDEST DUP2 DUP2 LT ISZERO PUSH2 0xEF5 JUMPI PUSH2 0xEEA PUSH1 0x0 DUP3 PUSH2 0xEBE JUMP JUMPDEST PUSH1 0x1 DUP2 ADD SWAP1 POP PUSH2 0xED7 JUMP JUMPDEST POP POP JUMP JUMPDEST PUSH1 0x1F DUP3 GT ISZERO PUSH2 0xF3A JUMPI PUSH2 0xF0B DUP2 PUSH2 0xDDA JUMP JUMPDEST PUSH2 0xF14 DUP5 PUSH2 0xDEF JUMP JUMPDEST DUP2 ADD PUSH1 0x20 DUP6 LT ISZERO PUSH2 0xF23 JUMPI DUP2 SWAP1 POP JUMPDEST PUSH2 0xF37 PUSH2 0xF2F DUP6 PUSH2 0xDEF JUMP JUMPDEST DUP4 ADD DUP3 PUSH2 0xED6 JUMP JUMPDEST POP POP JUMPDEST POP POP POP JUMP JUMPDEST PUSH1 0x0 DUP3 DUP3 SHR SWAP1 POP SWAP3 SWAP2 POP POP JUMP JUMPDEST PUSH1 0x0 PUSH2 0xF5D PUSH1 0x0 NOT DUP5 PUSH1 0x8 MUL PUSH2 0xF3F JUMP JUMPDEST NOT DUP1 DUP4 AND SWAP2 POP POP SWAP3 SWAP2 POP POP JUMP JUMPDEST PUSH1 0x0 PUSH2 0xF76 DUP4 DUP4 PUSH2 0xF4C JUMP JUMPDEST SWAP2 POP DUP3 PUSH1 0x2 MUL DUP3 OR SWAP1 POP SWAP3 SWAP2 POP POP JUMP JUMPDEST PUSH2 0xF8F DUP3 PUSH2 0x891 JUMP JUMPDEST PUSH8 0xFFFFFFFFFFFFFFFF DUP2 GT ISZERO PUSH2 0xFA8 JUMPI PUSH2 0xFA7 PUSH2 0x6D8 JUMP JUMPDEST JUMPDEST PUSH2 0xFB2 DUP3 SLOAD PUSH2 0xDA9 JUMP JUMPDEST PUSH2 0xFBD DUP3 DUP3 DUP6 PUSH2 0xEF9 JUMP JUMPDEST PUSH1 0x0 PUSH1 0x20 SWAP1 POP PUSH1 0x1F DUP4 GT PUSH1 0x1 DUP2 EQ PUSH2 0xFF0 JUMPI PUSH1 0x0 DUP5 ISZERO PUSH2 0xFDE JUMPI DUP3 DUP8 ADD MLOAD SWAP1 POP JUMPDEST PUSH2 0xFE8 DUP6 DUP3 PUSH2 0xF6A JUMP JUMPDEST DUP7 SSTORE POP PUSH2 0x1050 JUMP JUMPDEST PUSH1 0x1F NOT DUP5 AND PUSH2 0xFFE DUP7 PUSH2 0xDDA JUMP JUMPDEST PUSH1 0x0 JUMPDEST DUP3 DUP2 LT ISZERO PUSH2 0x1026 JUMPI DUP5 DUP10 ADD MLOAD DUP3 SSTORE PUSH1 0x1 DUP3 ADD SWAP2 POP PUSH1 0x20 DUP6 ADD SWAP5 POP PUSH1 0x20 DUP2 ADD SWAP1 POP PUSH2 0x1001 JUMP JUMPDEST DUP7 DUP4 LT ISZERO PUSH2 0x1043 JUMPI DUP5 DUP10 ADD MLOAD PUSH2 0x103F PUSH1 0x1F DUP10 AND DUP3 PUSH2 0xF4C JUMP JUMPDEST DUP4 SSTORE POP JUMPDEST PUSH1 0x1 PUSH1 0x2 DUP9 MUL ADD DUP9 SSTORE POP POP POP JUMPDEST POP POP POP POP POP POP JUMP INVALID LOG2 PUSH5 0x6970667358 0x22 SLT KECCAK256 0xCA STATICCALL PUSH8 0xA481A7D2CCE44DAB 0xE9 SWAP11 SLT EXTCODECOPY 0xA8 0xBF LOG0 CODESIZE 0xEB 0x23 DUP6 XOR NUMBER 0xE4 DUP8 0x4D 0x5E 0xC2 PUSH11 0x2A7764736F6C6343000812 STOP CALLER "
				},
				"gasEstimates": {
					"creation": {
						"codeDepositCost": "847600",
						"executionCost": "883",
						"totalCost": "848483"
					},
					"external": {
						"getTeacher_Class(string)": "infinite",
						"getTeacher_Student(string)": "infinite",
						"setTeacher_Class(string,uint256,string,string[])": "infinite",
						"setTeacher_Student(string,uint256,string,string[])": "infinite"
					}
				},
				"methodIdentifiers": {
					"getTeacher_Class(string)": "031b1b72",
					"getTeacher_Student(string)": "c013118f",
					"setTeacher_Class(string,uint256,string,string[])": "ce65e706",
					"setTeacher_Student(string,uint256,string,string[])": "abe7405e"
				}
			},
			"storageLayout": {
				"storage": [
					{
						"astId": 14,
						"contract": "contracts-lecture/230509-3.sol:MAPPING",
						"label": "Teacher_Student",
						"offset": 0,
						"slot": "0",
						"type": "t_mapping(t_string_memory_ptr,t_struct(Student)9_storage)"
					},
					{
						"astId": 20,
						"contract": "contracts-lecture/230509-3.sol:MAPPING",
						"label": "Teacher_Class",
						"offset": 0,
						"slot": "1",
						"type": "t_mapping(t_string_memory_ptr,t_array(t_struct(Student)9_storage)dyn_storage)"
					}
				],
				"types": {
					"t_array(t_string_storage)dyn_storage": {
						"base": "t_string_storage",
						"encoding": "dynamic_array",
						"label": "string[]",
						"numberOfBytes": "32"
					},
					"t_array(t_struct(Student)9_storage)dyn_storage": {
						"base": "t_struct(Student)9_storage",
						"encoding": "dynamic_array",
						"label": "struct MAPPING.Student[]",
						"numberOfBytes": "32"
					},
					"t_mapping(t_string_memory_ptr,t_array(t_struct(Student)9_storage)dyn_storage)": {
						"encoding": "mapping",
						"key": "t_string_memory_ptr",
						"label": "mapping(string => struct MAPPING.Student[])",
						"numberOfBytes": "32",
						"value": "t_array(t_struct(Student)9_storage)dyn_storage"
					},
					"t_mapping(t_string_memory_ptr,t_struct(Student)9_storage)": {
						"encoding": "mapping",
						"key": "t_string_memory_ptr",
						"label": "mapping(string => struct MAPPING.Student)",
						"numberOfBytes": "32",
						"value": "t_struct(Student)9_storage"
					},
					"t_string_memory_ptr": {
						"encoding": "bytes",
						"label": "string",
						"numberOfBytes": "32"
					},
					"t_string_storage": {
						"encoding": "bytes",
						"label": "string",
						"numberOfBytes": "32"
					},
					"t_struct(Student)9_storage": {
						"encoding": "inplace",
						"label": "struct MAPPING.Student",
						"members": [
							{
								"astId": 3,
								"contract": "contracts-lecture/230509-3.sol:MAPPING",
								"label": "number",
								"offset": 0,
								"slot": "0",
								"type": "t_uint256"
							},
							{
								"astId": 5,
								"contract": "contracts-lecture/230509-3.sol:MAPPING",
								"label": "name",
								"offset": 0,
								"slot": "1",
								"type": "t_string_storage"
							},
							{
								"astId": 8,
								"contract": "contracts-lecture/230509-3.sol:MAPPING",
								"label": "classes",
								"offset": 0,
								"slot": "2",
								"type": "t_array(t_string_storage)dyn_storage"
							}
						],
						"numberOfBytes": "96"
					},
					"t_uint256": {
						"encoding": "inplace",
						"label": "uint256",
						"numberOfBytes": "32"
					}
				}
			},
			"userdoc": {
				"kind": "user",
				"methods": {},
				"version": 1
			}
		}
	}
}