{
	"contracts-lecture/230517-1.sol": {
		"A": {
			"abi": [
				{
					"inputs": [],
					"name": "ABC",
					"outputs": [
						{
							"internalType": "string",
							"name": "",
							"type": "string"
						}
					],
					"stateMutability": "view",
					"type": "function"
				},
				{
					"inputs": [],
					"name": "ABC2",
					"outputs": [
						{
							"internalType": "string",
							"name": "",
							"type": "string"
						}
					],
					"stateMutability": "view",
					"type": "function"
				},
				{
					"inputs": [],
					"name": "ABCD",
					"outputs": [
						{
							"internalType": "string",
							"name": "",
							"type": "string"
						}
					],
					"stateMutability": "view",
					"type": "function"
				},
				{
					"inputs": [],
					"name": "a",
					"outputs": [
						{
							"internalType": "uint256",
							"name": "",
							"type": "uint256"
						}
					],
					"stateMutability": "view",
					"type": "function"
				},
				{
					"inputs": [],
					"name": "b",
					"outputs": [
						{
							"internalType": "uint256",
							"name": "",
							"type": "uint256"
						}
					],
					"stateMutability": "view",
					"type": "function"
				},
				{
					"inputs": [],
					"name": "c",
					"outputs": [
						{
							"internalType": "uint256",
							"name": "",
							"type": "uint256"
						}
					],
					"stateMutability": "view",
					"type": "function"
				},
				{
					"inputs": [],
					"name": "d",
					"outputs": [
						{
							"internalType": "uint256",
							"name": "",
							"type": "uint256"
						}
					],
					"stateMutability": "view",
					"type": "function"
				},
				{
					"inputs": [
						{
							"internalType": "uint256",
							"name": "_a",
							"type": "uint256"
						},
						{
							"internalType": "uint256",
							"name": "_b",
							"type": "uint256"
						},
						{
							"internalType": "uint256",
							"name": "_c",
							"type": "uint256"
						},
						{
							"internalType": "uint256",
							"name": "_d",
							"type": "uint256"
						}
					],
					"name": "setABCD",
					"outputs": [],
					"stateMutability": "nonpayable",
					"type": "function"
				}
			],
			"devdoc": {
				"kind": "dev",
				"methods": {},
				"version": 1
			},
			"evm": {
				"assembly": "    /* \"contracts-lecture/230517-1.sol\":63:2117  contract A {... */\n  mstore(0x40, 0x80)\n  callvalue\n  dup1\n  iszero\n  tag_1\n  jumpi\n  0x00\n  dup1\n  revert\ntag_1:\n  pop\n  dataSize(sub_0)\n  dup1\n  dataOffset(sub_0)\n  0x00\n  codecopy\n  0x00\n  return\nstop\n\nsub_0: assembly {\n        /* \"contracts-lecture/230517-1.sol\":63:2117  contract A {... */\n      mstore(0x40, 0x80)\n      callvalue\n      dup1\n      iszero\n      tag_1\n      jumpi\n      0x00\n      dup1\n      revert\n    tag_1:\n      pop\n      jumpi(tag_2, lt(calldatasize, 0x04))\n      shr(0xe0, calldataload(0x00))\n      dup1\n      0x8a054ac2\n      gt\n      tag_11\n      jumpi\n      dup1\n      0x8a054ac2\n      eq\n      tag_7\n      jumpi\n      dup1\n      0xc3da42b8\n      eq\n      tag_8\n      jumpi\n      dup1\n      0xd800c96f\n      eq\n      tag_9\n      jumpi\n      dup1\n      0xe88184ca\n      eq\n      tag_10\n      jumpi\n      jump(tag_2)\n    tag_11:\n      dup1\n      0x0dbe671f\n      eq\n      tag_3\n      jumpi\n      dup1\n      0x34354f93\n      eq\n      tag_4\n      jumpi\n      dup1\n      0x4df7e3d0\n      eq\n      tag_5\n      jumpi\n      dup1\n      0x4f22856f\n      eq\n      tag_6\n      jumpi\n    tag_2:\n      0x00\n      dup1\n      revert\n        /* \"contracts-lecture/230517-1.sol\":81:94  uint public a */\n    tag_3:\n      tag_12\n      tag_13\n      jump\t// in\n    tag_12:\n      mload(0x40)\n      tag_14\n      swap2\n      swap1\n      tag_15\n      jump\t// in\n    tag_14:\n      mload(0x40)\n      dup1\n      swap2\n      sub\n      swap1\n      return\n        /* \"contracts-lecture/230517-1.sol\":270:769  function ABC() public view returns(string memory) {... */\n    tag_4:\n      tag_16\n      tag_17\n      jump\t// in\n    tag_16:\n      mload(0x40)\n      tag_18\n      swap2\n      swap1\n      tag_19\n      jump\t// in\n    tag_18:\n      mload(0x40)\n      dup1\n      swap2\n      sub\n      swap1\n      return\n        /* \"contracts-lecture/230517-1.sol\":100:113  uint public b */\n    tag_5:\n      tag_20\n      tag_21\n      jump\t// in\n    tag_20:\n      mload(0x40)\n      tag_22\n      swap2\n      swap1\n      tag_15\n      jump\t// in\n    tag_22:\n      mload(0x40)\n      dup1\n      swap2\n      sub\n      swap1\n      return\n        /* \"contracts-lecture/230517-1.sol\":158:264  function setABCD(uint _a, uint _b, uint _c, uint _d) public {... */\n    tag_6:\n      tag_23\n      0x04\n      dup1\n      calldatasize\n      sub\n      dup2\n      add\n      swap1\n      tag_24\n      swap2\n      swap1\n      tag_25\n      jump\t// in\n    tag_24:\n      tag_26\n      jump\t// in\n    tag_23:\n      stop\n        /* \"contracts-lecture/230517-1.sol\":138:151  uint public d */\n    tag_7:\n      tag_27\n      tag_28\n      jump\t// in\n    tag_27:\n      mload(0x40)\n      tag_29\n      swap2\n      swap1\n      tag_15\n      jump\t// in\n    tag_29:\n      mload(0x40)\n      dup1\n      swap2\n      sub\n      swap1\n      return\n        /* \"contracts-lecture/230517-1.sol\":119:132  uint public c */\n    tag_8:\n      tag_30\n      tag_31\n      jump\t// in\n    tag_30:\n      mload(0x40)\n      tag_32\n      swap2\n      swap1\n      tag_15\n      jump\t// in\n    tag_32:\n      mload(0x40)\n      dup1\n      swap2\n      sub\n      swap1\n      return\n        /* \"contracts-lecture/230517-1.sol\":775:1269  function ABC2() public view returns(string memory) {... */\n    tag_9:\n      tag_33\n      tag_34\n      jump\t// in\n    tag_33:\n      mload(0x40)\n      tag_35\n      swap2\n      swap1\n      tag_19\n      jump\t// in\n    tag_35:\n      mload(0x40)\n      dup1\n      swap2\n      sub\n      swap1\n      return\n        /* \"contracts-lecture/230517-1.sol\":1275:2115  function ABCD() public view returns(string memory) {... */\n    tag_10:\n      tag_36\n      tag_37\n      jump\t// in\n    tag_36:\n      mload(0x40)\n      tag_38\n      swap2\n      swap1\n      tag_19\n      jump\t// in\n    tag_38:\n      mload(0x40)\n      dup1\n      swap2\n      sub\n      swap1\n      return\n        /* \"contracts-lecture/230517-1.sol\":81:94  uint public a */\n    tag_13:\n      sload(0x00)\n      dup2\n      jump\t// out\n        /* \"contracts-lecture/230517-1.sol\":270:769  function ABC() public view returns(string memory) {... */\n    tag_17:\n        /* \"contracts-lecture/230517-1.sol\":305:318  string memory */\n      0x60\n        /* \"contracts-lecture/230517-1.sol\":342:343  0 */\n      0x00\n        /* \"contracts-lecture/230517-1.sol\":338:339  a */\n      dup1\n      sload\n        /* \"contracts-lecture/230517-1.sol\":338:343  a ==0 */\n      eq\n        /* \"contracts-lecture/230517-1.sol\":338:353  a ==0 && b != 1 */\n      dup1\n      iszero\n      tag_40\n      jumpi\n      pop\n        /* \"contracts-lecture/230517-1.sol\":352:353  1 */\n      0x01\n        /* \"contracts-lecture/230517-1.sol\":347:348  b */\n      dup1\n      sload\n        /* \"contracts-lecture/230517-1.sol\":347:353  b != 1 */\n      eq\n      iszero\n        /* \"contracts-lecture/230517-1.sol\":338:353  a ==0 && b != 1 */\n    tag_40:\n        /* \"contracts-lecture/230517-1.sol\":338:362  a ==0 && b != 1 || c ==0 */\n      dup1\n      tag_41\n      jumpi\n      pop\n        /* \"contracts-lecture/230517-1.sol\":361:362  0 */\n      0x00\n        /* \"contracts-lecture/230517-1.sol\":357:358  c */\n      sload(0x02)\n        /* \"contracts-lecture/230517-1.sol\":357:362  c ==0 */\n      eq\n        /* \"contracts-lecture/230517-1.sol\":338:362  a ==0 && b != 1 || c ==0 */\n    tag_41:\n        /* \"contracts-lecture/230517-1.sol\":330:363  require(a ==0 && b != 1 || c ==0) */\n      tag_42\n      jumpi\n      0x00\n      dup1\n      revert\n    tag_42:\n        /* \"contracts-lecture/230517-1.sol\":750:762  return \"aaa\" */\n      mload(0x40)\n      dup1\n      0x40\n      add\n      0x40\n      mstore\n      dup1\n      0x03\n      dup2\n      mstore\n      0x20\n      add\n      0x6161610000000000000000000000000000000000000000000000000000000000\n      dup2\n      mstore\n      pop\n      swap1\n      pop\n        /* \"contracts-lecture/230517-1.sol\":270:769  function ABC() public view returns(string memory) {... */\n      swap1\n      jump\t// out\n        /* \"contracts-lecture/230517-1.sol\":100:113  uint public b */\n    tag_21:\n      sload(0x01)\n      dup2\n      jump\t// out\n        /* \"contracts-lecture/230517-1.sol\":158:264  function setABCD(uint _a, uint _b, uint _c, uint _d) public {... */\n    tag_26:\n        /* \"contracts-lecture/230517-1.sol\":241:243  _a */\n      dup4\n        /* \"contracts-lecture/230517-1.sol\":245:247  _b */\n      dup4\n        /* \"contracts-lecture/230517-1.sol\":249:251  _c */\n      dup4\n        /* \"contracts-lecture/230517-1.sol\":253:255  _d */\n      dup4\n        /* \"contracts-lecture/230517-1.sol\":229:230  a */\n      0x00\n      dup1\n        /* \"contracts-lecture/230517-1.sol\":231:232  b */\n      0x01\n      0x00\n        /* \"contracts-lecture/230517-1.sol\":233:234  c */\n      0x02\n      0x00\n        /* \"contracts-lecture/230517-1.sol\":235:236  d */\n      0x03\n      0x00\n        /* \"contracts-lecture/230517-1.sol\":228:256  (a,b,c,d) = (_a, _b, _c, _d) */\n      dup9\n      swap2\n      swap1\n      pop\n      sstore\n      dup8\n      swap2\n      swap1\n      pop\n      sstore\n      dup7\n      swap2\n      swap1\n      pop\n      sstore\n      dup6\n      swap2\n      swap1\n      pop\n      sstore\n      pop\n      pop\n      pop\n      pop\n        /* \"contracts-lecture/230517-1.sol\":158:264  function setABCD(uint _a, uint _b, uint _c, uint _d) public {... */\n      pop\n      pop\n      pop\n      pop\n      jump\t// out\n        /* \"contracts-lecture/230517-1.sol\":138:151  uint public d */\n    tag_28:\n      sload(0x03)\n      dup2\n      jump\t// out\n        /* \"contracts-lecture/230517-1.sol\":119:132  uint public c */\n    tag_31:\n      sload(0x02)\n      dup2\n      jump\t// out\n        /* \"contracts-lecture/230517-1.sol\":775:1269  function ABC2() public view returns(string memory) {... */\n    tag_34:\n        /* \"contracts-lecture/230517-1.sol\":811:824  string memory */\n      0x60\n        /* \"contracts-lecture/230517-1.sol\":848:849  0 */\n      0x00\n        /* \"contracts-lecture/230517-1.sol\":844:845  a */\n      dup1\n      sload\n        /* \"contracts-lecture/230517-1.sol\":844:849  a ==0 */\n      eq\n        /* \"contracts-lecture/230517-1.sol\":844:868  a ==0 || b != 1 && c ==0 */\n      dup1\n      tag_45\n      jumpi\n      pop\n        /* \"contracts-lecture/230517-1.sol\":858:859  1 */\n      0x01\n        /* \"contracts-lecture/230517-1.sol\":853:854  b */\n      dup1\n      sload\n        /* \"contracts-lecture/230517-1.sol\":853:859  b != 1 */\n      eq\n      iszero\n        /* \"contracts-lecture/230517-1.sol\":853:868  b != 1 && c ==0 */\n      dup1\n      iszero\n      tag_46\n      jumpi\n      pop\n        /* \"contracts-lecture/230517-1.sol\":867:868  0 */\n      0x00\n        /* \"contracts-lecture/230517-1.sol\":863:864  c */\n      sload(0x02)\n        /* \"contracts-lecture/230517-1.sol\":863:868  c ==0 */\n      eq\n        /* \"contracts-lecture/230517-1.sol\":853:868  b != 1 && c ==0 */\n    tag_46:\n        /* \"contracts-lecture/230517-1.sol\":844:868  a ==0 || b != 1 && c ==0 */\n    tag_45:\n        /* \"contracts-lecture/230517-1.sol\":836:869  require(a ==0 || b != 1 && c ==0) */\n      tag_47\n      jumpi\n      0x00\n      dup1\n      revert\n    tag_47:\n        /* \"contracts-lecture/230517-1.sol\":1208:1220  return \"aaa\" */\n      mload(0x40)\n      dup1\n      0x40\n      add\n      0x40\n      mstore\n      dup1\n      0x03\n      dup2\n      mstore\n      0x20\n      add\n      0x6161610000000000000000000000000000000000000000000000000000000000\n      dup2\n      mstore\n      pop\n      swap1\n      pop\n        /* \"contracts-lecture/230517-1.sol\":775:1269  function ABC2() public view returns(string memory) {... */\n      swap1\n      jump\t// out\n        /* \"contracts-lecture/230517-1.sol\":1275:2115  function ABCD() public view returns(string memory) {... */\n    tag_37:\n        /* \"contracts-lecture/230517-1.sol\":1311:1324  string memory */\n      0x60\n        /* \"contracts-lecture/230517-1.sol\":1348:1349  0 */\n      0x00\n        /* \"contracts-lecture/230517-1.sol\":1344:1345  a */\n      dup1\n      sload\n        /* \"contracts-lecture/230517-1.sol\":1344:1349  a ==0 */\n      eq\n        /* \"contracts-lecture/230517-1.sol\":1344:1368  a ==0 || b != 1 && c ==0 */\n      dup1\n      tag_49\n      jumpi\n      pop\n        /* \"contracts-lecture/230517-1.sol\":1358:1359  1 */\n      0x01\n        /* \"contracts-lecture/230517-1.sol\":1353:1354  b */\n      dup1\n      sload\n        /* \"contracts-lecture/230517-1.sol\":1353:1359  b != 1 */\n      eq\n      iszero\n        /* \"contracts-lecture/230517-1.sol\":1353:1368  b != 1 && c ==0 */\n      dup1\n      iszero\n      tag_50\n      jumpi\n      pop\n        /* \"contracts-lecture/230517-1.sol\":1367:1368  0 */\n      0x00\n        /* \"contracts-lecture/230517-1.sol\":1363:1364  c */\n      sload(0x02)\n        /* \"contracts-lecture/230517-1.sol\":1363:1368  c ==0 */\n      eq\n        /* \"contracts-lecture/230517-1.sol\":1353:1368  b != 1 && c ==0 */\n    tag_50:\n        /* \"contracts-lecture/230517-1.sol\":1344:1368  a ==0 || b != 1 && c ==0 */\n    tag_49:\n        /* \"contracts-lecture/230517-1.sol\":1344:1376  a ==0 || b != 1 && c ==0 || d==0 */\n      dup1\n      tag_51\n      jumpi\n      pop\n        /* \"contracts-lecture/230517-1.sol\":1375:1376  0 */\n      0x00\n        /* \"contracts-lecture/230517-1.sol\":1372:1373  d */\n      sload(0x03)\n        /* \"contracts-lecture/230517-1.sol\":1372:1376  d==0 */\n      eq\n        /* \"contracts-lecture/230517-1.sol\":1344:1376  a ==0 || b != 1 && c ==0 || d==0 */\n    tag_51:\n        /* \"contracts-lecture/230517-1.sol\":1336:1377  require(a ==0 || b != 1 && c ==0 || d==0) */\n      tag_52\n      jumpi\n      0x00\n      dup1\n      revert\n    tag_52:\n        /* \"contracts-lecture/230517-1.sol\":2096:2108  return \"aaa\" */\n      mload(0x40)\n      dup1\n      0x40\n      add\n      0x40\n      mstore\n      dup1\n      0x03\n      dup2\n      mstore\n      0x20\n      add\n      0x6161610000000000000000000000000000000000000000000000000000000000\n      dup2\n      mstore\n      pop\n      swap1\n      pop\n        /* \"contracts-lecture/230517-1.sol\":1275:2115  function ABCD() public view returns(string memory) {... */\n      swap1\n      jump\t// out\n        /* \"#utility.yul\":7:84   */\n    tag_53:\n        /* \"#utility.yul\":44:51   */\n      0x00\n        /* \"#utility.yul\":73:78   */\n      dup2\n        /* \"#utility.yul\":62:78   */\n      swap1\n      pop\n        /* \"#utility.yul\":7:84   */\n      swap2\n      swap1\n      pop\n      jump\t// out\n        /* \"#utility.yul\":90:208   */\n    tag_54:\n        /* \"#utility.yul\":177:201   */\n      tag_68\n        /* \"#utility.yul\":195:200   */\n      dup2\n        /* \"#utility.yul\":177:201   */\n      tag_53\n      jump\t// in\n    tag_68:\n        /* \"#utility.yul\":172:175   */\n      dup3\n        /* \"#utility.yul\":165:202   */\n      mstore\n        /* \"#utility.yul\":90:208   */\n      pop\n      pop\n      jump\t// out\n        /* \"#utility.yul\":214:436   */\n    tag_15:\n        /* \"#utility.yul\":307:311   */\n      0x00\n        /* \"#utility.yul\":345:347   */\n      0x20\n        /* \"#utility.yul\":334:343   */\n      dup3\n        /* \"#utility.yul\":330:348   */\n      add\n        /* \"#utility.yul\":322:348   */\n      swap1\n      pop\n        /* \"#utility.yul\":358:429   */\n      tag_70\n        /* \"#utility.yul\":426:427   */\n      0x00\n        /* \"#utility.yul\":415:424   */\n      dup4\n        /* \"#utility.yul\":411:428   */\n      add\n        /* \"#utility.yul\":402:408   */\n      dup5\n        /* \"#utility.yul\":358:429   */\n      tag_54\n      jump\t// in\n    tag_70:\n        /* \"#utility.yul\":214:436   */\n      swap3\n      swap2\n      pop\n      pop\n      jump\t// out\n        /* \"#utility.yul\":442:541   */\n    tag_55:\n        /* \"#utility.yul\":494:500   */\n      0x00\n        /* \"#utility.yul\":528:533   */\n      dup2\n        /* \"#utility.yul\":522:534   */\n      mload\n        /* \"#utility.yul\":512:534   */\n      swap1\n      pop\n        /* \"#utility.yul\":442:541   */\n      swap2\n      swap1\n      pop\n      jump\t// out\n        /* \"#utility.yul\":547:716   */\n    tag_56:\n        /* \"#utility.yul\":631:642   */\n      0x00\n        /* \"#utility.yul\":665:671   */\n      dup3\n        /* \"#utility.yul\":660:663   */\n      dup3\n        /* \"#utility.yul\":653:672   */\n      mstore\n        /* \"#utility.yul\":705:709   */\n      0x20\n        /* \"#utility.yul\":700:703   */\n      dup3\n        /* \"#utility.yul\":696:710   */\n      add\n        /* \"#utility.yul\":681:710   */\n      swap1\n      pop\n        /* \"#utility.yul\":547:716   */\n      swap3\n      swap2\n      pop\n      pop\n      jump\t// out\n        /* \"#utility.yul\":722:968   */\n    tag_57:\n        /* \"#utility.yul\":803:804   */\n      0x00\n        /* \"#utility.yul\":813:926   */\n    tag_74:\n        /* \"#utility.yul\":827:833   */\n      dup4\n        /* \"#utility.yul\":824:825   */\n      dup2\n        /* \"#utility.yul\":821:834   */\n      lt\n        /* \"#utility.yul\":813:926   */\n      iszero\n      tag_76\n      jumpi\n        /* \"#utility.yul\":912:913   */\n      dup1\n        /* \"#utility.yul\":907:910   */\n      dup3\n        /* \"#utility.yul\":903:914   */\n      add\n        /* \"#utility.yul\":897:915   */\n      mload\n        /* \"#utility.yul\":893:894   */\n      dup2\n        /* \"#utility.yul\":888:891   */\n      dup5\n        /* \"#utility.yul\":884:895   */\n      add\n        /* \"#utility.yul\":877:916   */\n      mstore\n        /* \"#utility.yul\":849:851   */\n      0x20\n        /* \"#utility.yul\":846:847   */\n      dup2\n        /* \"#utility.yul\":842:852   */\n      add\n        /* \"#utility.yul\":837:852   */\n      swap1\n      pop\n        /* \"#utility.yul\":813:926   */\n      jump(tag_74)\n    tag_76:\n        /* \"#utility.yul\":960:961   */\n      0x00\n        /* \"#utility.yul\":951:957   */\n      dup5\n        /* \"#utility.yul\":946:949   */\n      dup5\n        /* \"#utility.yul\":942:958   */\n      add\n        /* \"#utility.yul\":935:962   */\n      mstore\n        /* \"#utility.yul\":784:968   */\n      pop\n        /* \"#utility.yul\":722:968   */\n      pop\n      pop\n      pop\n      jump\t// out\n        /* \"#utility.yul\":974:1076   */\n    tag_58:\n        /* \"#utility.yul\":1015:1021   */\n      0x00\n        /* \"#utility.yul\":1066:1068   */\n      0x1f\n        /* \"#utility.yul\":1062:1069   */\n      not\n        /* \"#utility.yul\":1057:1059   */\n      0x1f\n        /* \"#utility.yul\":1050:1055   */\n      dup4\n        /* \"#utility.yul\":1046:1060   */\n      add\n        /* \"#utility.yul\":1042:1070   */\n      and\n        /* \"#utility.yul\":1032:1070   */\n      swap1\n      pop\n        /* \"#utility.yul\":974:1076   */\n      swap2\n      swap1\n      pop\n      jump\t// out\n        /* \"#utility.yul\":1082:1459   */\n    tag_59:\n        /* \"#utility.yul\":1170:1173   */\n      0x00\n        /* \"#utility.yul\":1198:1237   */\n      tag_79\n        /* \"#utility.yul\":1231:1236   */\n      dup3\n        /* \"#utility.yul\":1198:1237   */\n      tag_55\n      jump\t// in\n    tag_79:\n        /* \"#utility.yul\":1253:1324   */\n      tag_80\n        /* \"#utility.yul\":1317:1323   */\n      dup2\n        /* \"#utility.yul\":1312:1315   */\n      dup6\n        /* \"#utility.yul\":1253:1324   */\n      tag_56\n      jump\t// in\n    tag_80:\n        /* \"#utility.yul\":1246:1324   */\n      swap4\n      pop\n        /* \"#utility.yul\":1333:1398   */\n      tag_81\n        /* \"#utility.yul\":1391:1397   */\n      dup2\n        /* \"#utility.yul\":1386:1389   */\n      dup6\n        /* \"#utility.yul\":1379:1383   */\n      0x20\n        /* \"#utility.yul\":1372:1377   */\n      dup7\n        /* \"#utility.yul\":1368:1384   */\n      add\n        /* \"#utility.yul\":1333:1398   */\n      tag_57\n      jump\t// in\n    tag_81:\n        /* \"#utility.yul\":1423:1452   */\n      tag_82\n        /* \"#utility.yul\":1445:1451   */\n      dup2\n        /* \"#utility.yul\":1423:1452   */\n      tag_58\n      jump\t// in\n    tag_82:\n        /* \"#utility.yul\":1418:1421   */\n      dup5\n        /* \"#utility.yul\":1414:1453   */\n      add\n        /* \"#utility.yul\":1407:1453   */\n      swap2\n      pop\n        /* \"#utility.yul\":1174:1459   */\n      pop\n        /* \"#utility.yul\":1082:1459   */\n      swap3\n      swap2\n      pop\n      pop\n      jump\t// out\n        /* \"#utility.yul\":1465:1778   */\n    tag_19:\n        /* \"#utility.yul\":1578:1582   */\n      0x00\n        /* \"#utility.yul\":1616:1618   */\n      0x20\n        /* \"#utility.yul\":1605:1614   */\n      dup3\n        /* \"#utility.yul\":1601:1619   */\n      add\n        /* \"#utility.yul\":1593:1619   */\n      swap1\n      pop\n        /* \"#utility.yul\":1665:1674   */\n      dup2\n        /* \"#utility.yul\":1659:1663   */\n      dup2\n        /* \"#utility.yul\":1655:1675   */\n      sub\n        /* \"#utility.yul\":1651:1652   */\n      0x00\n        /* \"#utility.yul\":1640:1649   */\n      dup4\n        /* \"#utility.yul\":1636:1653   */\n      add\n        /* \"#utility.yul\":1629:1676   */\n      mstore\n        /* \"#utility.yul\":1693:1771   */\n      tag_84\n        /* \"#utility.yul\":1766:1770   */\n      dup2\n        /* \"#utility.yul\":1757:1763   */\n      dup5\n        /* \"#utility.yul\":1693:1771   */\n      tag_59\n      jump\t// in\n    tag_84:\n        /* \"#utility.yul\":1685:1771   */\n      swap1\n      pop\n        /* \"#utility.yul\":1465:1778   */\n      swap3\n      swap2\n      pop\n      pop\n      jump\t// out\n        /* \"#utility.yul\":1865:1982   */\n    tag_61:\n        /* \"#utility.yul\":1974:1975   */\n      0x00\n        /* \"#utility.yul\":1971:1972   */\n      dup1\n        /* \"#utility.yul\":1964:1976   */\n      revert\n        /* \"#utility.yul\":2111:2233   */\n    tag_63:\n        /* \"#utility.yul\":2184:2208   */\n      tag_89\n        /* \"#utility.yul\":2202:2207   */\n      dup2\n        /* \"#utility.yul\":2184:2208   */\n      tag_53\n      jump\t// in\n    tag_89:\n        /* \"#utility.yul\":2177:2182   */\n      dup2\n        /* \"#utility.yul\":2174:2209   */\n      eq\n        /* \"#utility.yul\":2164:2227   */\n      tag_90\n      jumpi\n        /* \"#utility.yul\":2223:2224   */\n      0x00\n        /* \"#utility.yul\":2220:2221   */\n      dup1\n        /* \"#utility.yul\":2213:2225   */\n      revert\n        /* \"#utility.yul\":2164:2227   */\n    tag_90:\n        /* \"#utility.yul\":2111:2233   */\n      pop\n      jump\t// out\n        /* \"#utility.yul\":2239:2378   */\n    tag_64:\n        /* \"#utility.yul\":2285:2290   */\n      0x00\n        /* \"#utility.yul\":2323:2329   */\n      dup2\n        /* \"#utility.yul\":2310:2330   */\n      calldataload\n        /* \"#utility.yul\":2301:2330   */\n      swap1\n      pop\n        /* \"#utility.yul\":2339:2372   */\n      tag_92\n        /* \"#utility.yul\":2366:2371   */\n      dup2\n        /* \"#utility.yul\":2339:2372   */\n      tag_63\n      jump\t// in\n    tag_92:\n        /* \"#utility.yul\":2239:2378   */\n      swap3\n      swap2\n      pop\n      pop\n      jump\t// out\n        /* \"#utility.yul\":2384:3149   */\n    tag_25:\n        /* \"#utility.yul\":2470:2476   */\n      0x00\n        /* \"#utility.yul\":2478:2484   */\n      dup1\n        /* \"#utility.yul\":2486:2492   */\n      0x00\n        /* \"#utility.yul\":2494:2500   */\n      dup1\n        /* \"#utility.yul\":2543:2546   */\n      0x80\n        /* \"#utility.yul\":2531:2540   */\n      dup6\n        /* \"#utility.yul\":2522:2529   */\n      dup8\n        /* \"#utility.yul\":2518:2541   */\n      sub\n        /* \"#utility.yul\":2514:2547   */\n      slt\n        /* \"#utility.yul\":2511:2631   */\n      iszero\n      tag_94\n      jumpi\n        /* \"#utility.yul\":2550:2629   */\n      tag_95\n      tag_61\n      jump\t// in\n    tag_95:\n        /* \"#utility.yul\":2511:2631   */\n    tag_94:\n        /* \"#utility.yul\":2670:2671   */\n      0x00\n        /* \"#utility.yul\":2695:2748   */\n      tag_96\n        /* \"#utility.yul\":2740:2747   */\n      dup8\n        /* \"#utility.yul\":2731:2737   */\n      dup3\n        /* \"#utility.yul\":2720:2729   */\n      dup9\n        /* \"#utility.yul\":2716:2738   */\n      add\n        /* \"#utility.yul\":2695:2748   */\n      tag_64\n      jump\t// in\n    tag_96:\n        /* \"#utility.yul\":2685:2748   */\n      swap5\n      pop\n        /* \"#utility.yul\":2641:2758   */\n      pop\n        /* \"#utility.yul\":2797:2799   */\n      0x20\n        /* \"#utility.yul\":2823:2876   */\n      tag_97\n        /* \"#utility.yul\":2868:2875   */\n      dup8\n        /* \"#utility.yul\":2859:2865   */\n      dup3\n        /* \"#utility.yul\":2848:2857   */\n      dup9\n        /* \"#utility.yul\":2844:2866   */\n      add\n        /* \"#utility.yul\":2823:2876   */\n      tag_64\n      jump\t// in\n    tag_97:\n        /* \"#utility.yul\":2813:2876   */\n      swap4\n      pop\n        /* \"#utility.yul\":2768:2886   */\n      pop\n        /* \"#utility.yul\":2925:2927   */\n      0x40\n        /* \"#utility.yul\":2951:3004   */\n      tag_98\n        /* \"#utility.yul\":2996:3003   */\n      dup8\n        /* \"#utility.yul\":2987:2993   */\n      dup3\n        /* \"#utility.yul\":2976:2985   */\n      dup9\n        /* \"#utility.yul\":2972:2994   */\n      add\n        /* \"#utility.yul\":2951:3004   */\n      tag_64\n      jump\t// in\n    tag_98:\n        /* \"#utility.yul\":2941:3004   */\n      swap3\n      pop\n        /* \"#utility.yul\":2896:3014   */\n      pop\n        /* \"#utility.yul\":3053:3055   */\n      0x60\n        /* \"#utility.yul\":3079:3132   */\n      tag_99\n        /* \"#utility.yul\":3124:3131   */\n      dup8\n        /* \"#utility.yul\":3115:3121   */\n      dup3\n        /* \"#utility.yul\":3104:3113   */\n      dup9\n        /* \"#utility.yul\":3100:3122   */\n      add\n        /* \"#utility.yul\":3079:3132   */\n      tag_64\n      jump\t// in\n    tag_99:\n        /* \"#utility.yul\":3069:3132   */\n      swap2\n      pop\n        /* \"#utility.yul\":3024:3142   */\n      pop\n        /* \"#utility.yul\":2384:3149   */\n      swap3\n      swap6\n      swap2\n      swap5\n      pop\n      swap3\n      pop\n      jump\t// out\n\n    auxdata: 0xa2646970667358221220eb4a7bf221804f863b8964dc277c5b62601e079a58279325b2f206bd8613ceb964736f6c63430008120033\n}\n",
				"bytecode": {
					"linkReferences": {},
					"object": "608060405234801561001057600080fd5b506104b7806100206000396000f3fe608060405234801561001057600080fd5b50600436106100885760003560e01c80638a054ac21161005b5780638a054ac214610103578063c3da42b814610121578063d800c96f1461013f578063e88184ca1461015d57610088565b80630dbe671f1461008d57806334354f93146100ab5780634df7e3d0146100c95780634f22856f146100e7575b600080fd5b61009561017b565b6040516100a2919061031c565b60405180910390f35b6100b3610181565b6040516100c091906103c7565b60405180910390f35b6100d16101e7565b6040516100de919061031c565b60405180910390f35b61010160048036038101906100fc919061041a565b6101ed565b005b61010b61021e565b604051610118919061031c565b60405180910390f35b610129610224565b604051610136919061031c565b60405180910390f35b61014761022a565b60405161015491906103c7565b60405180910390f35b610165610290565b60405161017291906103c7565b60405180910390f35b60005481565b60606000805414801561019657506001805414155b806101a357506000600254145b6101ac57600080fd5b6040518060400160405280600381526020017f6161610000000000000000000000000000000000000000000000000000000000815250905090565b60015481565b8383838360008060016000600260006003600088919050558791905055869190505585919050555050505050505050565b60035481565b60025481565b606060008054148061024c5750600180541415801561024b57506000600254145b5b61025557600080fd5b6040518060400160405280600381526020017f6161610000000000000000000000000000000000000000000000000000000000815250905090565b60606000805414806102b2575060018054141580156102b157506000600254145b5b806102bf57506000600354145b6102c857600080fd5b6040518060400160405280600381526020017f6161610000000000000000000000000000000000000000000000000000000000815250905090565b6000819050919050565b61031681610303565b82525050565b6000602082019050610331600083018461030d565b92915050565b600081519050919050565b600082825260208201905092915050565b60005b83811015610371578082015181840152602081019050610356565b60008484015250505050565b6000601f19601f8301169050919050565b600061039982610337565b6103a38185610342565b93506103b3818560208601610353565b6103bc8161037d565b840191505092915050565b600060208201905081810360008301526103e1818461038e565b905092915050565b600080fd5b6103f781610303565b811461040257600080fd5b50565b600081359050610414816103ee565b92915050565b60008060008060808587031215610434576104336103e9565b5b600061044287828801610405565b945050602061045387828801610405565b935050604061046487828801610405565b925050606061047587828801610405565b9150509295919450925056fea2646970667358221220eb4a7bf221804f863b8964dc277c5b62601e079a58279325b2f206bd8613ceb964736f6c63430008120033",
					"opcodes": "PUSH1 0x80 PUSH1 0x40 MSTORE CALLVALUE DUP1 ISZERO PUSH2 0x10 JUMPI PUSH1 0x0 DUP1 REVERT JUMPDEST POP PUSH2 0x4B7 DUP1 PUSH2 0x20 PUSH1 0x0 CODECOPY PUSH1 0x0 RETURN INVALID PUSH1 0x80 PUSH1 0x40 MSTORE CALLVALUE DUP1 ISZERO PUSH2 0x10 JUMPI PUSH1 0x0 DUP1 REVERT JUMPDEST POP PUSH1 0x4 CALLDATASIZE LT PUSH2 0x88 JUMPI PUSH1 0x0 CALLDATALOAD PUSH1 0xE0 SHR DUP1 PUSH4 0x8A054AC2 GT PUSH2 0x5B JUMPI DUP1 PUSH4 0x8A054AC2 EQ PUSH2 0x103 JUMPI DUP1 PUSH4 0xC3DA42B8 EQ PUSH2 0x121 JUMPI DUP1 PUSH4 0xD800C96F EQ PUSH2 0x13F JUMPI DUP1 PUSH4 0xE88184CA EQ PUSH2 0x15D JUMPI PUSH2 0x88 JUMP JUMPDEST DUP1 PUSH4 0xDBE671F EQ PUSH2 0x8D JUMPI DUP1 PUSH4 0x34354F93 EQ PUSH2 0xAB JUMPI DUP1 PUSH4 0x4DF7E3D0 EQ PUSH2 0xC9 JUMPI DUP1 PUSH4 0x4F22856F EQ PUSH2 0xE7 JUMPI JUMPDEST PUSH1 0x0 DUP1 REVERT JUMPDEST PUSH2 0x95 PUSH2 0x17B JUMP JUMPDEST PUSH1 0x40 MLOAD PUSH2 0xA2 SWAP2 SWAP1 PUSH2 0x31C JUMP JUMPDEST PUSH1 0x40 MLOAD DUP1 SWAP2 SUB SWAP1 RETURN JUMPDEST PUSH2 0xB3 PUSH2 0x181 JUMP JUMPDEST PUSH1 0x40 MLOAD PUSH2 0xC0 SWAP2 SWAP1 PUSH2 0x3C7 JUMP JUMPDEST PUSH1 0x40 MLOAD DUP1 SWAP2 SUB SWAP1 RETURN JUMPDEST PUSH2 0xD1 PUSH2 0x1E7 JUMP JUMPDEST PUSH1 0x40 MLOAD PUSH2 0xDE SWAP2 SWAP1 PUSH2 0x31C JUMP JUMPDEST PUSH1 0x40 MLOAD DUP1 SWAP2 SUB SWAP1 RETURN JUMPDEST PUSH2 0x101 PUSH1 0x4 DUP1 CALLDATASIZE SUB DUP2 ADD SWAP1 PUSH2 0xFC SWAP2 SWAP1 PUSH2 0x41A JUMP JUMPDEST PUSH2 0x1ED JUMP JUMPDEST STOP JUMPDEST PUSH2 0x10B PUSH2 0x21E JUMP JUMPDEST PUSH1 0x40 MLOAD PUSH2 0x118 SWAP2 SWAP1 PUSH2 0x31C JUMP JUMPDEST PUSH1 0x40 MLOAD DUP1 SWAP2 SUB SWAP1 RETURN JUMPDEST PUSH2 0x129 PUSH2 0x224 JUMP JUMPDEST PUSH1 0x40 MLOAD PUSH2 0x136 SWAP2 SWAP1 PUSH2 0x31C JUMP JUMPDEST PUSH1 0x40 MLOAD DUP1 SWAP2 SUB SWAP1 RETURN JUMPDEST PUSH2 0x147 PUSH2 0x22A JUMP JUMPDEST PUSH1 0x40 MLOAD PUSH2 0x154 SWAP2 SWAP1 PUSH2 0x3C7 JUMP JUMPDEST PUSH1 0x40 MLOAD DUP1 SWAP2 SUB SWAP1 RETURN JUMPDEST PUSH2 0x165 PUSH2 0x290 JUMP JUMPDEST PUSH1 0x40 MLOAD PUSH2 0x172 SWAP2 SWAP1 PUSH2 0x3C7 JUMP JUMPDEST PUSH1 0x40 MLOAD DUP1 SWAP2 SUB SWAP1 RETURN JUMPDEST PUSH1 0x0 SLOAD DUP2 JUMP JUMPDEST PUSH1 0x60 PUSH1 0x0 DUP1 SLOAD EQ DUP1 ISZERO PUSH2 0x196 JUMPI POP PUSH1 0x1 DUP1 SLOAD EQ ISZERO JUMPDEST DUP1 PUSH2 0x1A3 JUMPI POP PUSH1 0x0 PUSH1 0x2 SLOAD EQ JUMPDEST PUSH2 0x1AC JUMPI PUSH1 0x0 DUP1 REVERT JUMPDEST PUSH1 0x40 MLOAD DUP1 PUSH1 0x40 ADD PUSH1 0x40 MSTORE DUP1 PUSH1 0x3 DUP2 MSTORE PUSH1 0x20 ADD PUSH32 0x6161610000000000000000000000000000000000000000000000000000000000 DUP2 MSTORE POP SWAP1 POP SWAP1 JUMP JUMPDEST PUSH1 0x1 SLOAD DUP2 JUMP JUMPDEST DUP4 DUP4 DUP4 DUP4 PUSH1 0x0 DUP1 PUSH1 0x1 PUSH1 0x0 PUSH1 0x2 PUSH1 0x0 PUSH1 0x3 PUSH1 0x0 DUP9 SWAP2 SWAP1 POP SSTORE DUP8 SWAP2 SWAP1 POP SSTORE DUP7 SWAP2 SWAP1 POP SSTORE DUP6 SWAP2 SWAP1 POP SSTORE POP POP POP POP POP POP POP POP JUMP JUMPDEST PUSH1 0x3 SLOAD DUP2 JUMP JUMPDEST PUSH1 0x2 SLOAD DUP2 JUMP JUMPDEST PUSH1 0x60 PUSH1 0x0 DUP1 SLOAD EQ DUP1 PUSH2 0x24C JUMPI POP PUSH1 0x1 DUP1 SLOAD EQ ISZERO DUP1 ISZERO PUSH2 0x24B JUMPI POP PUSH1 0x0 PUSH1 0x2 SLOAD EQ JUMPDEST JUMPDEST PUSH2 0x255 JUMPI PUSH1 0x0 DUP1 REVERT JUMPDEST PUSH1 0x40 MLOAD DUP1 PUSH1 0x40 ADD PUSH1 0x40 MSTORE DUP1 PUSH1 0x3 DUP2 MSTORE PUSH1 0x20 ADD PUSH32 0x6161610000000000000000000000000000000000000000000000000000000000 DUP2 MSTORE POP SWAP1 POP SWAP1 JUMP JUMPDEST PUSH1 0x60 PUSH1 0x0 DUP1 SLOAD EQ DUP1 PUSH2 0x2B2 JUMPI POP PUSH1 0x1 DUP1 SLOAD EQ ISZERO DUP1 ISZERO PUSH2 0x2B1 JUMPI POP PUSH1 0x0 PUSH1 0x2 SLOAD EQ JUMPDEST JUMPDEST DUP1 PUSH2 0x2BF JUMPI POP PUSH1 0x0 PUSH1 0x3 SLOAD EQ JUMPDEST PUSH2 0x2C8 JUMPI PUSH1 0x0 DUP1 REVERT JUMPDEST PUSH1 0x40 MLOAD DUP1 PUSH1 0x40 ADD PUSH1 0x40 MSTORE DUP1 PUSH1 0x3 DUP2 MSTORE PUSH1 0x20 ADD PUSH32 0x6161610000000000000000000000000000000000000000000000000000000000 DUP2 MSTORE POP SWAP1 POP SWAP1 JUMP JUMPDEST PUSH1 0x0 DUP2 SWAP1 POP SWAP2 SWAP1 POP JUMP JUMPDEST PUSH2 0x316 DUP2 PUSH2 0x303 JUMP JUMPDEST DUP3 MSTORE POP POP JUMP JUMPDEST PUSH1 0x0 PUSH1 0x20 DUP3 ADD SWAP1 POP PUSH2 0x331 PUSH1 0x0 DUP4 ADD DUP5 PUSH2 0x30D JUMP JUMPDEST SWAP3 SWAP2 POP POP JUMP JUMPDEST PUSH1 0x0 DUP2 MLOAD SWAP1 POP SWAP2 SWAP1 POP JUMP JUMPDEST PUSH1 0x0 DUP3 DUP3 MSTORE PUSH1 0x20 DUP3 ADD SWAP1 POP SWAP3 SWAP2 POP POP JUMP JUMPDEST PUSH1 0x0 JUMPDEST DUP4 DUP2 LT ISZERO PUSH2 0x371 JUMPI DUP1 DUP3 ADD MLOAD DUP2 DUP5 ADD MSTORE PUSH1 0x20 DUP2 ADD SWAP1 POP PUSH2 0x356 JUMP JUMPDEST PUSH1 0x0 DUP5 DUP5 ADD MSTORE POP POP POP POP JUMP JUMPDEST PUSH1 0x0 PUSH1 0x1F NOT PUSH1 0x1F DUP4 ADD AND SWAP1 POP SWAP2 SWAP1 POP JUMP JUMPDEST PUSH1 0x0 PUSH2 0x399 DUP3 PUSH2 0x337 JUMP JUMPDEST PUSH2 0x3A3 DUP2 DUP6 PUSH2 0x342 JUMP JUMPDEST SWAP4 POP PUSH2 0x3B3 DUP2 DUP6 PUSH1 0x20 DUP7 ADD PUSH2 0x353 JUMP JUMPDEST PUSH2 0x3BC DUP2 PUSH2 0x37D JUMP JUMPDEST DUP5 ADD SWAP2 POP POP SWAP3 SWAP2 POP POP JUMP JUMPDEST PUSH1 0x0 PUSH1 0x20 DUP3 ADD SWAP1 POP DUP2 DUP2 SUB PUSH1 0x0 DUP4 ADD MSTORE PUSH2 0x3E1 DUP2 DUP5 PUSH2 0x38E JUMP JUMPDEST SWAP1 POP SWAP3 SWAP2 POP POP JUMP JUMPDEST PUSH1 0x0 DUP1 REVERT JUMPDEST PUSH2 0x3F7 DUP2 PUSH2 0x303 JUMP JUMPDEST DUP2 EQ PUSH2 0x402 JUMPI PUSH1 0x0 DUP1 REVERT JUMPDEST POP JUMP JUMPDEST PUSH1 0x0 DUP2 CALLDATALOAD SWAP1 POP PUSH2 0x414 DUP2 PUSH2 0x3EE JUMP JUMPDEST SWAP3 SWAP2 POP POP JUMP JUMPDEST PUSH1 0x0 DUP1 PUSH1 0x0 DUP1 PUSH1 0x80 DUP6 DUP8 SUB SLT ISZERO PUSH2 0x434 JUMPI PUSH2 0x433 PUSH2 0x3E9 JUMP JUMPDEST JUMPDEST PUSH1 0x0 PUSH2 0x442 DUP8 DUP3 DUP9 ADD PUSH2 0x405 JUMP JUMPDEST SWAP5 POP POP PUSH1 0x20 PUSH2 0x453 DUP8 DUP3 DUP9 ADD PUSH2 0x405 JUMP JUMPDEST SWAP4 POP POP PUSH1 0x40 PUSH2 0x464 DUP8 DUP3 DUP9 ADD PUSH2 0x405 JUMP JUMPDEST SWAP3 POP POP PUSH1 0x60 PUSH2 0x475 DUP8 DUP3 DUP9 ADD PUSH2 0x405 JUMP JUMPDEST SWAP2 POP POP SWAP3 SWAP6 SWAP2 SWAP5 POP SWAP3 POP JUMP INVALID LOG2 PUSH5 0x6970667358 0x22 SLT KECCAK256 0xEB 0x4A PUSH28 0xF221804F863B8964DC277C5B62601E079A58279325B2F206BD8613CE 0xB9 PUSH5 0x736F6C6343 STOP ADDMOD SLT STOP CALLER "
				},
				"gasEstimates": {
					"creation": {
						"codeDepositCost": "241400",
						"executionCost": "281",
						"totalCost": "241681"
					},
					"external": {
						"ABC()": "infinite",
						"ABC2()": "infinite",
						"ABCD()": "infinite",
						"a()": "2430",
						"b()": "2474",
						"c()": "2451",
						"d()": "2429",
						"setABCD(uint256,uint256,uint256,uint256)": "infinite"
					}
				},
				"methodIdentifiers": {
					"ABC()": "34354f93",
					"ABC2()": "d800c96f",
					"ABCD()": "e88184ca",
					"a()": "0dbe671f",
					"b()": "4df7e3d0",
					"c()": "c3da42b8",
					"d()": "8a054ac2",
					"setABCD(uint256,uint256,uint256,uint256)": "4f22856f"
				}
			},
			"storageLayout": {
				"storage": [
					{
						"astId": 3,
						"contract": "contracts-lecture/230517-1.sol:A",
						"label": "a",
						"offset": 0,
						"slot": "0",
						"type": "t_uint256"
					},
					{
						"astId": 5,
						"contract": "contracts-lecture/230517-1.sol:A",
						"label": "b",
						"offset": 0,
						"slot": "1",
						"type": "t_uint256"
					},
					{
						"astId": 7,
						"contract": "contracts-lecture/230517-1.sol:A",
						"label": "c",
						"offset": 0,
						"slot": "2",
						"type": "t_uint256"
					},
					{
						"astId": 9,
						"contract": "contracts-lecture/230517-1.sol:A",
						"label": "d",
						"offset": 0,
						"slot": "3",
						"type": "t_uint256"
					}
				],
				"types": {
					"t_uint256": {
						"encoding": "inplace",
						"label": "uint256",
						"numberOfBytes": "32"
					}
				}
			},
			"userdoc": {
				"kind": "user",
				"methods": {},
				"version": 1
			}
		}
	}
}