{
	"contracts-lecture/230517-1.sol": {
		"B": {
			"abi": [
				{
					"inputs": [],
					"name": "deposit",
					"outputs": [],
					"stateMutability": "payable",
					"type": "function"
				},
				{
					"inputs": [
						{
							"internalType": "address payable",
							"name": "_to",
							"type": "address"
						},
						{
							"internalType": "uint256",
							"name": "_amount",
							"type": "uint256"
						}
					],
					"name": "transferTo",
					"outputs": [],
					"stateMutability": "nonpayable",
					"type": "function"
				}
			],
			"devdoc": {
				"kind": "dev",
				"methods": {},
				"version": 1
			},
			"evm": {
				"assembly": "    /* \"contracts-lecture/230517-1.sol\":2119:2311  contract B {... */\n  mstore(0x40, 0x80)\n    /* \"contracts-lecture/230517-1.sol\":2189:2196  1 ether */\n  0x0de0b6b3a7640000\n    /* \"contracts-lecture/230517-1.sol\":2178:2196  uint eth = 1 ether */\n  0x00\n  sstore\n    /* \"contracts-lecture/230517-1.sol\":2119:2311  contract B {... */\n  callvalue\n  dup1\n  iszero\n  tag_1\n  jumpi\n  0x00\n  dup1\n  revert\ntag_1:\n  pop\n  dataSize(sub_0)\n  dup1\n  dataOffset(sub_0)\n  0x00\n  codecopy\n  0x00\n  return\nstop\n\nsub_0: assembly {\n        /* \"contracts-lecture/230517-1.sol\":2119:2311  contract B {... */\n      mstore(0x40, 0x80)\n      jumpi(tag_1, lt(calldatasize, 0x04))\n      shr(0xe0, calldataload(0x00))\n      dup1\n      0x2ccb1b30\n      eq\n      tag_2\n      jumpi\n      dup1\n      0xd0e30db0\n      eq\n      tag_3\n      jumpi\n    tag_1:\n      0x00\n      dup1\n      revert\n        /* \"contracts-lecture/230517-1.sol\":2203:2309  function transferTo(address payable _to, uint _amount) public {... */\n    tag_2:\n      callvalue\n      dup1\n      iszero\n      tag_4\n      jumpi\n      0x00\n      dup1\n      revert\n    tag_4:\n      pop\n      tag_5\n      0x04\n      dup1\n      calldatasize\n      sub\n      dup2\n      add\n      swap1\n      tag_6\n      swap2\n      swap1\n      tag_7\n      jump\t// in\n    tag_6:\n      tag_8\n      jump\t// in\n    tag_5:\n      stop\n        /* \"contracts-lecture/230517-1.sol\":2136:2172  function deposit() public payable {} */\n    tag_3:\n      tag_9\n      tag_10\n      jump\t// in\n    tag_9:\n      stop\n        /* \"contracts-lecture/230517-1.sol\":2203:2309  function transferTo(address payable _to, uint _amount) public {... */\n    tag_8:\n        /* \"contracts-lecture/230517-1.sol\":2275:2278  _to */\n      dup2\n        /* \"contracts-lecture/230517-1.sol\":2275:2287  _to.transfer */\n      0xffffffffffffffffffffffffffffffffffffffff\n      and\n        /* \"contracts-lecture/230517-1.sol\":2275:2302  _to.transfer(_amount * eth) */\n      0x08fc\n        /* \"contracts-lecture/230517-1.sol\":2298:2301  eth */\n      sload(0x00)\n        /* \"contracts-lecture/230517-1.sol\":2288:2295  _amount */\n      dup4\n        /* \"contracts-lecture/230517-1.sol\":2288:2301  _amount * eth */\n      tag_12\n      swap2\n      swap1\n      tag_13\n      jump\t// in\n    tag_12:\n        /* \"contracts-lecture/230517-1.sol\":2275:2302  _to.transfer(_amount * eth) */\n      swap1\n      dup2\n      iszero\n      mul\n      swap1\n      mload(0x40)\n      0x00\n      mload(0x40)\n      dup1\n      dup4\n      sub\n      dup2\n      dup6\n      dup9\n      dup9\n      call\n      swap4\n      pop\n      pop\n      pop\n      pop\n      iszero\n      dup1\n      iszero\n      tag_15\n      jumpi\n      returndatasize\n      0x00\n      dup1\n      returndatacopy\n      revert(0x00, returndatasize)\n    tag_15:\n      pop\n        /* \"contracts-lecture/230517-1.sol\":2203:2309  function transferTo(address payable _to, uint _amount) public {... */\n      pop\n      pop\n      jump\t// out\n        /* \"contracts-lecture/230517-1.sol\":2136:2172  function deposit() public payable {} */\n    tag_10:\n      jump\t// out\n        /* \"#utility.yul\":88:205   */\n    tag_18:\n        /* \"#utility.yul\":197:198   */\n      0x00\n        /* \"#utility.yul\":194:195   */\n      dup1\n        /* \"#utility.yul\":187:199   */\n      revert\n        /* \"#utility.yul\":334:460   */\n    tag_20:\n        /* \"#utility.yul\":371:378   */\n      0x00\n        /* \"#utility.yul\":411:453   */\n      0xffffffffffffffffffffffffffffffffffffffff\n        /* \"#utility.yul\":404:409   */\n      dup3\n        /* \"#utility.yul\":400:454   */\n      and\n        /* \"#utility.yul\":389:454   */\n      swap1\n      pop\n        /* \"#utility.yul\":334:460   */\n      swap2\n      swap1\n      pop\n      jump\t// out\n        /* \"#utility.yul\":466:570   */\n    tag_21:\n        /* \"#utility.yul\":511:518   */\n      0x00\n        /* \"#utility.yul\":540:564   */\n      tag_34\n        /* \"#utility.yul\":558:563   */\n      dup3\n        /* \"#utility.yul\":540:564   */\n      tag_20\n      jump\t// in\n    tag_34:\n        /* \"#utility.yul\":529:564   */\n      swap1\n      pop\n        /* \"#utility.yul\":466:570   */\n      swap2\n      swap1\n      pop\n      jump\t// out\n        /* \"#utility.yul\":576:714   */\n    tag_22:\n        /* \"#utility.yul\":657:689   */\n      tag_36\n        /* \"#utility.yul\":683:688   */\n      dup2\n        /* \"#utility.yul\":657:689   */\n      tag_21\n      jump\t// in\n    tag_36:\n        /* \"#utility.yul\":650:655   */\n      dup2\n        /* \"#utility.yul\":647:690   */\n      eq\n        /* \"#utility.yul\":637:708   */\n      tag_37\n      jumpi\n        /* \"#utility.yul\":704:705   */\n      0x00\n        /* \"#utility.yul\":701:702   */\n      dup1\n        /* \"#utility.yul\":694:706   */\n      revert\n        /* \"#utility.yul\":637:708   */\n    tag_37:\n        /* \"#utility.yul\":576:714   */\n      pop\n      jump\t// out\n        /* \"#utility.yul\":720:875   */\n    tag_23:\n        /* \"#utility.yul\":774:779   */\n      0x00\n        /* \"#utility.yul\":812:818   */\n      dup2\n        /* \"#utility.yul\":799:819   */\n      calldataload\n        /* \"#utility.yul\":790:819   */\n      swap1\n      pop\n        /* \"#utility.yul\":828:869   */\n      tag_39\n        /* \"#utility.yul\":863:868   */\n      dup2\n        /* \"#utility.yul\":828:869   */\n      tag_22\n      jump\t// in\n    tag_39:\n        /* \"#utility.yul\":720:875   */\n      swap3\n      swap2\n      pop\n      pop\n      jump\t// out\n        /* \"#utility.yul\":881:958   */\n    tag_24:\n        /* \"#utility.yul\":918:925   */\n      0x00\n        /* \"#utility.yul\":947:952   */\n      dup2\n        /* \"#utility.yul\":936:952   */\n      swap1\n      pop\n        /* \"#utility.yul\":881:958   */\n      swap2\n      swap1\n      pop\n      jump\t// out\n        /* \"#utility.yul\":964:1086   */\n    tag_25:\n        /* \"#utility.yul\":1037:1061   */\n      tag_42\n        /* \"#utility.yul\":1055:1060   */\n      dup2\n        /* \"#utility.yul\":1037:1061   */\n      tag_24\n      jump\t// in\n    tag_42:\n        /* \"#utility.yul\":1030:1035   */\n      dup2\n        /* \"#utility.yul\":1027:1062   */\n      eq\n        /* \"#utility.yul\":1017:1080   */\n      tag_43\n      jumpi\n        /* \"#utility.yul\":1076:1077   */\n      0x00\n        /* \"#utility.yul\":1073:1074   */\n      dup1\n        /* \"#utility.yul\":1066:1078   */\n      revert\n        /* \"#utility.yul\":1017:1080   */\n    tag_43:\n        /* \"#utility.yul\":964:1086   */\n      pop\n      jump\t// out\n        /* \"#utility.yul\":1092:1231   */\n    tag_26:\n        /* \"#utility.yul\":1138:1143   */\n      0x00\n        /* \"#utility.yul\":1176:1182   */\n      dup2\n        /* \"#utility.yul\":1163:1183   */\n      calldataload\n        /* \"#utility.yul\":1154:1183   */\n      swap1\n      pop\n        /* \"#utility.yul\":1192:1225   */\n      tag_45\n        /* \"#utility.yul\":1219:1224   */\n      dup2\n        /* \"#utility.yul\":1192:1225   */\n      tag_25\n      jump\t// in\n    tag_45:\n        /* \"#utility.yul\":1092:1231   */\n      swap3\n      swap2\n      pop\n      pop\n      jump\t// out\n        /* \"#utility.yul\":1237:1727   */\n    tag_7:\n        /* \"#utility.yul\":1313:1319   */\n      0x00\n        /* \"#utility.yul\":1321:1327   */\n      dup1\n        /* \"#utility.yul\":1370:1372   */\n      0x40\n        /* \"#utility.yul\":1358:1367   */\n      dup4\n        /* \"#utility.yul\":1349:1356   */\n      dup6\n        /* \"#utility.yul\":1345:1368   */\n      sub\n        /* \"#utility.yul\":1341:1373   */\n      slt\n        /* \"#utility.yul\":1338:1457   */\n      iszero\n      tag_47\n      jumpi\n        /* \"#utility.yul\":1376:1455   */\n      tag_48\n      tag_18\n      jump\t// in\n    tag_48:\n        /* \"#utility.yul\":1338:1457   */\n    tag_47:\n        /* \"#utility.yul\":1496:1497   */\n      0x00\n        /* \"#utility.yul\":1521:1582   */\n      tag_49\n        /* \"#utility.yul\":1574:1581   */\n      dup6\n        /* \"#utility.yul\":1565:1571   */\n      dup3\n        /* \"#utility.yul\":1554:1563   */\n      dup7\n        /* \"#utility.yul\":1550:1572   */\n      add\n        /* \"#utility.yul\":1521:1582   */\n      tag_23\n      jump\t// in\n    tag_49:\n        /* \"#utility.yul\":1511:1582   */\n      swap3\n      pop\n        /* \"#utility.yul\":1467:1592   */\n      pop\n        /* \"#utility.yul\":1631:1633   */\n      0x20\n        /* \"#utility.yul\":1657:1710   */\n      tag_50\n        /* \"#utility.yul\":1702:1709   */\n      dup6\n        /* \"#utility.yul\":1693:1699   */\n      dup3\n        /* \"#utility.yul\":1682:1691   */\n      dup7\n        /* \"#utility.yul\":1678:1700   */\n      add\n        /* \"#utility.yul\":1657:1710   */\n      tag_26\n      jump\t// in\n    tag_50:\n        /* \"#utility.yul\":1647:1710   */\n      swap2\n      pop\n        /* \"#utility.yul\":1602:1720   */\n      pop\n        /* \"#utility.yul\":1237:1727   */\n      swap3\n      pop\n      swap3\n      swap1\n      pop\n      jump\t// out\n        /* \"#utility.yul\":1733:1913   */\n    tag_27:\n        /* \"#utility.yul\":1781:1858   */\n      0x4e487b7100000000000000000000000000000000000000000000000000000000\n        /* \"#utility.yul\":1778:1779   */\n      0x00\n        /* \"#utility.yul\":1771:1859   */\n      mstore\n        /* \"#utility.yul\":1878:1882   */\n      0x11\n        /* \"#utility.yul\":1875:1876   */\n      0x04\n        /* \"#utility.yul\":1868:1883   */\n      mstore\n        /* \"#utility.yul\":1902:1906   */\n      0x24\n        /* \"#utility.yul\":1899:1900   */\n      0x00\n        /* \"#utility.yul\":1892:1907   */\n      revert\n        /* \"#utility.yul\":1919:2329   */\n    tag_13:\n        /* \"#utility.yul\":1959:1966   */\n      0x00\n        /* \"#utility.yul\":1982:2002   */\n      tag_53\n        /* \"#utility.yul\":2000:2001   */\n      dup3\n        /* \"#utility.yul\":1982:2002   */\n      tag_24\n      jump\t// in\n    tag_53:\n        /* \"#utility.yul\":1977:2002   */\n      swap2\n      pop\n        /* \"#utility.yul\":2016:2036   */\n      tag_54\n        /* \"#utility.yul\":2034:2035   */\n      dup4\n        /* \"#utility.yul\":2016:2036   */\n      tag_24\n      jump\t// in\n    tag_54:\n        /* \"#utility.yul\":2011:2036   */\n      swap3\n      pop\n        /* \"#utility.yul\":2071:2072   */\n      dup3\n        /* \"#utility.yul\":2068:2069   */\n      dup3\n        /* \"#utility.yul\":2064:2073   */\n      mul\n        /* \"#utility.yul\":2093:2123   */\n      tag_55\n        /* \"#utility.yul\":2111:2122   */\n      dup2\n        /* \"#utility.yul\":2093:2123   */\n      tag_24\n      jump\t// in\n    tag_55:\n        /* \"#utility.yul\":2082:2123   */\n      swap2\n      pop\n        /* \"#utility.yul\":2272:2273   */\n      dup3\n        /* \"#utility.yul\":2263:2270   */\n      dup3\n        /* \"#utility.yul\":2259:2274   */\n      div\n        /* \"#utility.yul\":2256:2257   */\n      dup5\n        /* \"#utility.yul\":2253:2275   */\n      eq\n        /* \"#utility.yul\":2233:2234   */\n      dup4\n        /* \"#utility.yul\":2226:2235   */\n      iszero\n        /* \"#utility.yul\":2206:2289   */\n      or\n        /* \"#utility.yul\":2183:2322   */\n      tag_56\n      jumpi\n        /* \"#utility.yul\":2302:2320   */\n      tag_57\n      tag_27\n      jump\t// in\n    tag_57:\n        /* \"#utility.yul\":2183:2322   */\n    tag_56:\n        /* \"#utility.yul\":1967:2329   */\n      pop\n        /* \"#utility.yul\":1919:2329   */\n      swap3\n      swap2\n      pop\n      pop\n      jump\t// out\n\n    auxdata: 0xa2646970667358221220cb32ea69c424865ef92fbd0ea310722aacec3f6141855234cce743eef7a17af564736f6c63430008120033\n}\n",
				"bytecode": {
					"linkReferences": {},
					"object": "6080604052670de0b6b3a764000060005534801561001c57600080fd5b5061023b8061002c6000396000f3fe6080604052600436106100295760003560e01c80632ccb1b301461002e578063d0e30db014610057575b600080fd5b34801561003a57600080fd5b5061005560048036038101906100509190610154565b610061565b005b61005f6100b9565b005b8173ffffffffffffffffffffffffffffffffffffffff166108fc6000548361008991906101c3565b9081150290604051600060405180830381858888f193505050501580156100b4573d6000803e3d6000fd5b505050565b565b600080fd5b600073ffffffffffffffffffffffffffffffffffffffff82169050919050565b60006100eb826100c0565b9050919050565b6100fb816100e0565b811461010657600080fd5b50565b600081359050610118816100f2565b92915050565b6000819050919050565b6101318161011e565b811461013c57600080fd5b50565b60008135905061014e81610128565b92915050565b6000806040838503121561016b5761016a6100bb565b5b600061017985828601610109565b925050602061018a8582860161013f565b9150509250929050565b7f4e487b7100000000000000000000000000000000000000000000000000000000600052601160045260246000fd5b60006101ce8261011e565b91506101d98361011e565b92508282026101e78161011e565b915082820484148315176101fe576101fd610194565b5b509291505056fea2646970667358221220cb32ea69c424865ef92fbd0ea310722aacec3f6141855234cce743eef7a17af564736f6c63430008120033",
					"opcodes": "PUSH1 0x80 PUSH1 0x40 MSTORE PUSH8 0xDE0B6B3A7640000 PUSH1 0x0 SSTORE CALLVALUE DUP1 ISZERO PUSH2 0x1C JUMPI PUSH1 0x0 DUP1 REVERT JUMPDEST POP PUSH2 0x23B DUP1 PUSH2 0x2C PUSH1 0x0 CODECOPY PUSH1 0x0 RETURN INVALID PUSH1 0x80 PUSH1 0x40 MSTORE PUSH1 0x4 CALLDATASIZE LT PUSH2 0x29 JUMPI PUSH1 0x0 CALLDATALOAD PUSH1 0xE0 SHR DUP1 PUSH4 0x2CCB1B30 EQ PUSH2 0x2E JUMPI DUP1 PUSH4 0xD0E30DB0 EQ PUSH2 0x57 JUMPI JUMPDEST PUSH1 0x0 DUP1 REVERT JUMPDEST CALLVALUE DUP1 ISZERO PUSH2 0x3A JUMPI PUSH1 0x0 DUP1 REVERT JUMPDEST POP PUSH2 0x55 PUSH1 0x4 DUP1 CALLDATASIZE SUB DUP2 ADD SWAP1 PUSH2 0x50 SWAP2 SWAP1 PUSH2 0x154 JUMP JUMPDEST PUSH2 0x61 JUMP JUMPDEST STOP JUMPDEST PUSH2 0x5F PUSH2 0xB9 JUMP JUMPDEST STOP JUMPDEST DUP2 PUSH20 0xFFFFFFFFFFFFFFFFFFFFFFFFFFFFFFFFFFFFFFFF AND PUSH2 0x8FC PUSH1 0x0 SLOAD DUP4 PUSH2 0x89 SWAP2 SWAP1 PUSH2 0x1C3 JUMP JUMPDEST SWAP1 DUP2 ISZERO MUL SWAP1 PUSH1 0x40 MLOAD PUSH1 0x0 PUSH1 0x40 MLOAD DUP1 DUP4 SUB DUP2 DUP6 DUP9 DUP9 CALL SWAP4 POP POP POP POP ISZERO DUP1 ISZERO PUSH2 0xB4 JUMPI RETURNDATASIZE PUSH1 0x0 DUP1 RETURNDATACOPY RETURNDATASIZE PUSH1 0x0 REVERT JUMPDEST POP POP POP JUMP JUMPDEST JUMP JUMPDEST PUSH1 0x0 DUP1 REVERT JUMPDEST PUSH1 0x0 PUSH20 0xFFFFFFFFFFFFFFFFFFFFFFFFFFFFFFFFFFFFFFFF DUP3 AND SWAP1 POP SWAP2 SWAP1 POP JUMP JUMPDEST PUSH1 0x0 PUSH2 0xEB DUP3 PUSH2 0xC0 JUMP JUMPDEST SWAP1 POP SWAP2 SWAP1 POP JUMP JUMPDEST PUSH2 0xFB DUP2 PUSH2 0xE0 JUMP JUMPDEST DUP2 EQ PUSH2 0x106 JUMPI PUSH1 0x0 DUP1 REVERT JUMPDEST POP JUMP JUMPDEST PUSH1 0x0 DUP2 CALLDATALOAD SWAP1 POP PUSH2 0x118 DUP2 PUSH2 0xF2 JUMP JUMPDEST SWAP3 SWAP2 POP POP JUMP JUMPDEST PUSH1 0x0 DUP2 SWAP1 POP SWAP2 SWAP1 POP JUMP JUMPDEST PUSH2 0x131 DUP2 PUSH2 0x11E JUMP JUMPDEST DUP2 EQ PUSH2 0x13C JUMPI PUSH1 0x0 DUP1 REVERT JUMPDEST POP JUMP JUMPDEST PUSH1 0x0 DUP2 CALLDATALOAD SWAP1 POP PUSH2 0x14E DUP2 PUSH2 0x128 JUMP JUMPDEST SWAP3 SWAP2 POP POP JUMP JUMPDEST PUSH1 0x0 DUP1 PUSH1 0x40 DUP4 DUP6 SUB SLT ISZERO PUSH2 0x16B JUMPI PUSH2 0x16A PUSH2 0xBB JUMP JUMPDEST JUMPDEST PUSH1 0x0 PUSH2 0x179 DUP6 DUP3 DUP7 ADD PUSH2 0x109 JUMP JUMPDEST SWAP3 POP POP PUSH1 0x20 PUSH2 0x18A DUP6 DUP3 DUP7 ADD PUSH2 0x13F JUMP JUMPDEST SWAP2 POP POP SWAP3 POP SWAP3 SWAP1 POP JUMP JUMPDEST PUSH32 0x4E487B7100000000000000000000000000000000000000000000000000000000 PUSH1 0x0 MSTORE PUSH1 0x11 PUSH1 0x4 MSTORE PUSH1 0x24 PUSH1 0x0 REVERT JUMPDEST PUSH1 0x0 PUSH2 0x1CE DUP3 PUSH2 0x11E JUMP JUMPDEST SWAP2 POP PUSH2 0x1D9 DUP4 PUSH2 0x11E JUMP JUMPDEST SWAP3 POP DUP3 DUP3 MUL PUSH2 0x1E7 DUP2 PUSH2 0x11E JUMP JUMPDEST SWAP2 POP DUP3 DUP3 DIV DUP5 EQ DUP4 ISZERO OR PUSH2 0x1FE JUMPI PUSH2 0x1FD PUSH2 0x194 JUMP JUMPDEST JUMPDEST POP SWAP3 SWAP2 POP POP JUMP INVALID LOG2 PUSH5 0x6970667358 0x22 SLT KECCAK256 0xCB ORIGIN 0xEA PUSH10 0xC424865EF92FBD0EA310 PUSH19 0x2AACEC3F6141855234CCE743EEF7A17AF56473 PUSH16 0x6C634300081200330000000000000000 "
				},
				"gasEstimates": {
					"creation": {
						"codeDepositCost": "114200",
						"executionCost": "22265",
						"totalCost": "136465"
					},
					"external": {
						"deposit()": "120",
						"transferTo(address,uint256)": "infinite"
					}
				},
				"methodIdentifiers": {
					"deposit()": "d0e30db0",
					"transferTo(address,uint256)": "2ccb1b30"
				}
			},
			"storageLayout": {
				"storage": [
					{
						"astId": 111,
						"contract": "contracts-lecture/230517-1.sol:B",
						"label": "eth",
						"offset": 0,
						"slot": "0",
						"type": "t_uint256"
					}
				],
				"types": {
					"t_uint256": {
						"encoding": "inplace",
						"label": "uint256",
						"numberOfBytes": "32"
					}
				}
			},
			"userdoc": {
				"kind": "user",
				"methods": {},
				"version": 1
			}
		}
	}
}