{
	"contracts-lecture/230504-2.sol": {
		"BYTES": {
			"abi": [
				{
					"inputs": [],
					"name": "getABC",
					"outputs": [
						{
							"internalType": "bytes",
							"name": "",
							"type": "bytes"
						},
						{
							"internalType": "bytes1",
							"name": "",
							"type": "bytes1"
						},
						{
							"internalType": "bytes2",
							"name": "",
							"type": "bytes2"
						},
						{
							"internalType": "bytes32",
							"name": "",
							"type": "bytes32"
						}
					],
					"stateMutability": "view",
					"type": "function"
				},
				{
					"inputs": [
						{
							"internalType": "bytes",
							"name": "_a",
							"type": "bytes"
						},
						{
							"internalType": "bytes1",
							"name": "_b",
							"type": "bytes1"
						},
						{
							"internalType": "bytes2",
							"name": "_c",
							"type": "bytes2"
						},
						{
							"internalType": "bytes32",
							"name": "_d",
							"type": "bytes32"
						}
					],
					"name": "setABC",
					"outputs": [],
					"stateMutability": "nonpayable",
					"type": "function"
				}
			],
			"devdoc": {
				"kind": "dev",
				"methods": {},
				"version": 1
			},
			"evm": {
				"assembly": "    /* \"contracts-lecture/230504-2.sol\":63:407  contract BYTES {... */\n  mstore(0x40, 0x80)\n  callvalue\n  dup1\n  iszero\n  tag_1\n  jumpi\n  0x00\n  dup1\n  revert\ntag_1:\n  pop\n  dataSize(sub_0)\n  dup1\n  dataOffset(sub_0)\n  0x00\n  codecopy\n  0x00\n  return\nstop\n\nsub_0: assembly {\n        /* \"contracts-lecture/230504-2.sol\":63:407  contract BYTES {... */\n      mstore(0x40, 0x80)\n      callvalue\n      dup1\n      iszero\n      tag_1\n      jumpi\n      0x00\n      dup1\n      revert\n    tag_1:\n      pop\n      jumpi(tag_2, lt(calldatasize, 0x04))\n      shr(0xe0, calldataload(0x00))\n      dup1\n      0x79860ccf\n      eq\n      tag_3\n      jumpi\n      dup1\n      0x87522f79\n      eq\n      tag_4\n      jumpi\n    tag_2:\n      0x00\n      dup1\n      revert\n        /* \"contracts-lecture/230504-2.sol\":141:286  function setABC(bytes memory _a, bytes1 _b, bytes2 _c, bytes32 _d) public {... */\n    tag_3:\n      tag_5\n      0x04\n      dup1\n      calldatasize\n      sub\n      dup2\n      add\n      swap1\n      tag_6\n      swap2\n      swap1\n      tag_7\n      jump\t// in\n    tag_6:\n      tag_8\n      jump\t// in\n    tag_5:\n      stop\n        /* \"contracts-lecture/230504-2.sol\":292:405  function getABC() public view returns(bytes memory, bytes1, bytes2, bytes32) {... */\n    tag_4:\n      tag_9\n      tag_10\n      jump\t// in\n    tag_9:\n      mload(0x40)\n      tag_11\n      swap5\n      swap4\n      swap3\n      swap2\n      swap1\n      tag_12\n      jump\t// in\n    tag_11:\n      mload(0x40)\n      dup1\n      swap2\n      sub\n      swap1\n      return\n        /* \"contracts-lecture/230504-2.sol\":141:286  function setABC(bytes memory _a, bytes1 _b, bytes2 _c, bytes32 _d) public {... */\n    tag_8:\n        /* \"contracts-lecture/230504-2.sol\":229:231  _a */\n      dup4\n        /* \"contracts-lecture/230504-2.sol\":225:226  a */\n      0x00\n        /* \"contracts-lecture/230504-2.sol\":225:231  a = _a */\n      swap1\n      dup2\n      tag_14\n      swap2\n      swap1\n      tag_15\n      jump\t// in\n    tag_14:\n      pop\n        /* \"contracts-lecture/230504-2.sol\":245:247  _b */\n      dup3\n        /* \"contracts-lecture/230504-2.sol\":241:242  b */\n      0x01\n      0x00\n        /* \"contracts-lecture/230504-2.sol\":241:247  b = _b */\n      0x0100\n      exp\n      dup2\n      sload\n      dup2\n      0xff\n      mul\n      not\n      and\n      swap1\n      dup4\n      0xf8\n      shr\n      mul\n      or\n      swap1\n      sstore\n      pop\n        /* \"contracts-lecture/230504-2.sol\":261:263  _c */\n      dup2\n        /* \"contracts-lecture/230504-2.sol\":257:258  c */\n      0x01\n      dup1\n        /* \"contracts-lecture/230504-2.sol\":257:263  c = _c */\n      0x0100\n      exp\n      dup2\n      sload\n      dup2\n      0xffff\n      mul\n      not\n      and\n      swap1\n      dup4\n      0xf0\n      shr\n      mul\n      or\n      swap1\n      sstore\n      pop\n        /* \"contracts-lecture/230504-2.sol\":277:279  _d */\n      dup1\n        /* \"contracts-lecture/230504-2.sol\":273:274  d */\n      0x02\n        /* \"contracts-lecture/230504-2.sol\":273:279  d = _d */\n      dup2\n      swap1\n      sstore\n      pop\n        /* \"contracts-lecture/230504-2.sol\":141:286  function setABC(bytes memory _a, bytes1 _b, bytes2 _c, bytes32 _d) public {... */\n      pop\n      pop\n      pop\n      pop\n      jump\t// out\n        /* \"contracts-lecture/230504-2.sol\":292:405  function getABC() public view returns(bytes memory, bytes1, bytes2, bytes32) {... */\n    tag_10:\n        /* \"contracts-lecture/230504-2.sol\":330:342  bytes memory */\n      0x60\n        /* \"contracts-lecture/230504-2.sol\":344:350  bytes1 */\n      0x00\n        /* \"contracts-lecture/230504-2.sol\":352:358  bytes2 */\n      dup1\n        /* \"contracts-lecture/230504-2.sol\":360:367  bytes32 */\n      0x00\n        /* \"contracts-lecture/230504-2.sol\":387:388  a */\n      dup1\n        /* \"contracts-lecture/230504-2.sol\":390:391  b */\n      0x01\n      0x00\n      swap1\n      sload\n      swap1\n      0x0100\n      exp\n      swap1\n      div\n      0xf8\n      shl\n        /* \"contracts-lecture/230504-2.sol\":393:394  c */\n      0x01\n      dup1\n      sload\n      swap1\n      0x0100\n      exp\n      swap1\n      div\n      0xf0\n      shl\n        /* \"contracts-lecture/230504-2.sol\":396:397  d */\n      sload(0x02)\n        /* \"contracts-lecture/230504-2.sol\":379:398  return (a, b, c, d) */\n      dup4\n      dup1\n      sload\n      tag_17\n      swap1\n      tag_18\n      jump\t// in\n    tag_17:\n      dup1\n      0x1f\n      add\n      0x20\n      dup1\n      swap2\n      div\n      mul\n      0x20\n      add\n      mload(0x40)\n      swap1\n      dup2\n      add\n      0x40\n      mstore\n      dup1\n      swap3\n      swap2\n      swap1\n      dup2\n      dup2\n      mstore\n      0x20\n      add\n      dup3\n      dup1\n      sload\n      tag_19\n      swap1\n      tag_18\n      jump\t// in\n    tag_19:\n      dup1\n      iszero\n      tag_20\n      jumpi\n      dup1\n      0x1f\n      lt\n      tag_21\n      jumpi\n      0x0100\n      dup1\n      dup4\n      sload\n      div\n      mul\n      dup4\n      mstore\n      swap2\n      0x20\n      add\n      swap2\n      jump(tag_20)\n    tag_21:\n      dup3\n      add\n      swap2\n      swap1\n      0x00\n      mstore\n      keccak256(0x00, 0x20)\n      swap1\n    tag_22:\n      dup2\n      sload\n      dup2\n      mstore\n      swap1\n      0x01\n      add\n      swap1\n      0x20\n      add\n      dup1\n      dup4\n      gt\n      tag_22\n      jumpi\n      dup3\n      swap1\n      sub\n      0x1f\n      and\n      dup3\n      add\n      swap2\n    tag_20:\n      pop\n      pop\n      pop\n      pop\n      pop\n      swap4\n      pop\n      swap4\n      pop\n      swap4\n      pop\n      swap4\n      pop\n      swap4\n      pop\n        /* \"contracts-lecture/230504-2.sol\":292:405  function getABC() public view returns(bytes memory, bytes1, bytes2, bytes32) {... */\n      swap1\n      swap2\n      swap3\n      swap4\n      jump\t// out\n        /* \"#utility.yul\":7:82   */\n    tag_23:\n        /* \"#utility.yul\":40:46   */\n      0x00\n        /* \"#utility.yul\":73:75   */\n      0x40\n        /* \"#utility.yul\":67:76   */\n      mload\n        /* \"#utility.yul\":57:76   */\n      swap1\n      pop\n        /* \"#utility.yul\":7:82   */\n      swap1\n      jump\t// out\n        /* \"#utility.yul\":88:205   */\n    tag_24:\n        /* \"#utility.yul\":197:198   */\n      0x00\n        /* \"#utility.yul\":194:195   */\n      dup1\n        /* \"#utility.yul\":187:199   */\n      revert\n        /* \"#utility.yul\":211:328   */\n    tag_25:\n        /* \"#utility.yul\":320:321   */\n      0x00\n        /* \"#utility.yul\":317:318   */\n      dup1\n        /* \"#utility.yul\":310:322   */\n      revert\n        /* \"#utility.yul\":334:451   */\n    tag_26:\n        /* \"#utility.yul\":443:444   */\n      0x00\n        /* \"#utility.yul\":440:441   */\n      dup1\n        /* \"#utility.yul\":433:445   */\n      revert\n        /* \"#utility.yul\":457:574   */\n    tag_27:\n        /* \"#utility.yul\":566:567   */\n      0x00\n        /* \"#utility.yul\":563:564   */\n      dup1\n        /* \"#utility.yul\":556:568   */\n      revert\n        /* \"#utility.yul\":580:682   */\n    tag_28:\n        /* \"#utility.yul\":621:627   */\n      0x00\n        /* \"#utility.yul\":672:674   */\n      0x1f\n        /* \"#utility.yul\":668:675   */\n      not\n        /* \"#utility.yul\":663:665   */\n      0x1f\n        /* \"#utility.yul\":656:661   */\n      dup4\n        /* \"#utility.yul\":652:666   */\n      add\n        /* \"#utility.yul\":648:676   */\n      and\n        /* \"#utility.yul\":638:676   */\n      swap1\n      pop\n        /* \"#utility.yul\":580:682   */\n      swap2\n      swap1\n      pop\n      jump\t// out\n        /* \"#utility.yul\":688:868   */\n    tag_29:\n        /* \"#utility.yul\":736:813   */\n      0x4e487b7100000000000000000000000000000000000000000000000000000000\n        /* \"#utility.yul\":733:734   */\n      0x00\n        /* \"#utility.yul\":726:814   */\n      mstore\n        /* \"#utility.yul\":833:837   */\n      0x41\n        /* \"#utility.yul\":830:831   */\n      0x04\n        /* \"#utility.yul\":823:838   */\n      mstore\n        /* \"#utility.yul\":857:861   */\n      0x24\n        /* \"#utility.yul\":854:855   */\n      0x00\n        /* \"#utility.yul\":847:862   */\n      revert\n        /* \"#utility.yul\":874:1155   */\n    tag_30:\n        /* \"#utility.yul\":957:984   */\n      tag_78\n        /* \"#utility.yul\":979:983   */\n      dup3\n        /* \"#utility.yul\":957:984   */\n      tag_28\n      jump\t// in\n    tag_78:\n        /* \"#utility.yul\":949:955   */\n      dup2\n        /* \"#utility.yul\":945:985   */\n      add\n        /* \"#utility.yul\":1087:1093   */\n      dup2\n        /* \"#utility.yul\":1075:1085   */\n      dup2\n        /* \"#utility.yul\":1072:1094   */\n      lt\n        /* \"#utility.yul\":1051:1069   */\n      0xffffffffffffffff\n        /* \"#utility.yul\":1039:1049   */\n      dup3\n        /* \"#utility.yul\":1036:1070   */\n      gt\n        /* \"#utility.yul\":1033:1095   */\n      or\n        /* \"#utility.yul\":1030:1118   */\n      iszero\n      tag_79\n      jumpi\n        /* \"#utility.yul\":1098:1116   */\n      tag_80\n      tag_29\n      jump\t// in\n    tag_80:\n        /* \"#utility.yul\":1030:1118   */\n    tag_79:\n        /* \"#utility.yul\":1138:1148   */\n      dup1\n        /* \"#utility.yul\":1134:1136   */\n      0x40\n        /* \"#utility.yul\":1127:1149   */\n      mstore\n        /* \"#utility.yul\":917:1155   */\n      pop\n        /* \"#utility.yul\":874:1155   */\n      pop\n      pop\n      jump\t// out\n        /* \"#utility.yul\":1161:1290   */\n    tag_31:\n        /* \"#utility.yul\":1195:1201   */\n      0x00\n        /* \"#utility.yul\":1222:1242   */\n      tag_82\n      tag_23\n      jump\t// in\n    tag_82:\n        /* \"#utility.yul\":1212:1242   */\n      swap1\n      pop\n        /* \"#utility.yul\":1251:1284   */\n      tag_83\n        /* \"#utility.yul\":1279:1283   */\n      dup3\n        /* \"#utility.yul\":1271:1277   */\n      dup3\n        /* \"#utility.yul\":1251:1284   */\n      tag_30\n      jump\t// in\n    tag_83:\n        /* \"#utility.yul\":1161:1290   */\n      swap2\n      swap1\n      pop\n      jump\t// out\n        /* \"#utility.yul\":1296:1603   */\n    tag_32:\n        /* \"#utility.yul\":1357:1361   */\n      0x00\n        /* \"#utility.yul\":1447:1465   */\n      0xffffffffffffffff\n        /* \"#utility.yul\":1439:1445   */\n      dup3\n        /* \"#utility.yul\":1436:1466   */\n      gt\n        /* \"#utility.yul\":1433:1489   */\n      iszero\n      tag_85\n      jumpi\n        /* \"#utility.yul\":1469:1487   */\n      tag_86\n      tag_29\n      jump\t// in\n    tag_86:\n        /* \"#utility.yul\":1433:1489   */\n    tag_85:\n        /* \"#utility.yul\":1507:1536   */\n      tag_87\n        /* \"#utility.yul\":1529:1535   */\n      dup3\n        /* \"#utility.yul\":1507:1536   */\n      tag_28\n      jump\t// in\n    tag_87:\n        /* \"#utility.yul\":1499:1536   */\n      swap1\n      pop\n        /* \"#utility.yul\":1591:1595   */\n      0x20\n        /* \"#utility.yul\":1585:1589   */\n      dup2\n        /* \"#utility.yul\":1581:1596   */\n      add\n        /* \"#utility.yul\":1573:1596   */\n      swap1\n      pop\n        /* \"#utility.yul\":1296:1603   */\n      swap2\n      swap1\n      pop\n      jump\t// out\n        /* \"#utility.yul\":1609:1755   */\n    tag_33:\n        /* \"#utility.yul\":1706:1712   */\n      dup3\n        /* \"#utility.yul\":1701:1704   */\n      dup2\n        /* \"#utility.yul\":1696:1699   */\n      dup4\n        /* \"#utility.yul\":1683:1713   */\n      calldatacopy\n        /* \"#utility.yul\":1747:1748   */\n      0x00\n        /* \"#utility.yul\":1738:1744   */\n      dup4\n        /* \"#utility.yul\":1733:1736   */\n      dup4\n        /* \"#utility.yul\":1729:1745   */\n      add\n        /* \"#utility.yul\":1722:1749   */\n      mstore\n        /* \"#utility.yul\":1609:1755   */\n      pop\n      pop\n      pop\n      jump\t// out\n        /* \"#utility.yul\":1761:2184   */\n    tag_34:\n        /* \"#utility.yul\":1838:1843   */\n      0x00\n        /* \"#utility.yul\":1863:1928   */\n      tag_90\n        /* \"#utility.yul\":1879:1927   */\n      tag_91\n        /* \"#utility.yul\":1920:1926   */\n      dup5\n        /* \"#utility.yul\":1879:1927   */\n      tag_32\n      jump\t// in\n    tag_91:\n        /* \"#utility.yul\":1863:1928   */\n      tag_31\n      jump\t// in\n    tag_90:\n        /* \"#utility.yul\":1854:1928   */\n      swap1\n      pop\n        /* \"#utility.yul\":1951:1957   */\n      dup3\n        /* \"#utility.yul\":1944:1949   */\n      dup2\n        /* \"#utility.yul\":1937:1958   */\n      mstore\n        /* \"#utility.yul\":1989:1993   */\n      0x20\n        /* \"#utility.yul\":1982:1987   */\n      dup2\n        /* \"#utility.yul\":1978:1994   */\n      add\n        /* \"#utility.yul\":2027:2030   */\n      dup5\n        /* \"#utility.yul\":2018:2024   */\n      dup5\n        /* \"#utility.yul\":2013:2016   */\n      dup5\n        /* \"#utility.yul\":2009:2025   */\n      add\n        /* \"#utility.yul\":2006:2031   */\n      gt\n        /* \"#utility.yul\":2003:2115   */\n      iszero\n      tag_92\n      jumpi\n        /* \"#utility.yul\":2034:2113   */\n      tag_93\n      tag_27\n      jump\t// in\n    tag_93:\n        /* \"#utility.yul\":2003:2115   */\n    tag_92:\n        /* \"#utility.yul\":2124:2178   */\n      tag_94\n        /* \"#utility.yul\":2171:2177   */\n      dup5\n        /* \"#utility.yul\":2166:2169   */\n      dup3\n        /* \"#utility.yul\":2161:2164   */\n      dup6\n        /* \"#utility.yul\":2124:2178   */\n      tag_33\n      jump\t// in\n    tag_94:\n        /* \"#utility.yul\":1844:2184   */\n      pop\n        /* \"#utility.yul\":1761:2184   */\n      swap4\n      swap3\n      pop\n      pop\n      pop\n      jump\t// out\n        /* \"#utility.yul\":2203:2541   */\n    tag_35:\n        /* \"#utility.yul\":2258:2263   */\n      0x00\n        /* \"#utility.yul\":2307:2310   */\n      dup3\n        /* \"#utility.yul\":2300:2304   */\n      0x1f\n        /* \"#utility.yul\":2292:2298   */\n      dup4\n        /* \"#utility.yul\":2288:2305   */\n      add\n        /* \"#utility.yul\":2284:2311   */\n      slt\n        /* \"#utility.yul\":2274:2396   */\n      tag_96\n      jumpi\n        /* \"#utility.yul\":2315:2394   */\n      tag_97\n      tag_26\n      jump\t// in\n    tag_97:\n        /* \"#utility.yul\":2274:2396   */\n    tag_96:\n        /* \"#utility.yul\":2432:2438   */\n      dup2\n        /* \"#utility.yul\":2419:2439   */\n      calldataload\n        /* \"#utility.yul\":2457:2535   */\n      tag_98\n        /* \"#utility.yul\":2531:2534   */\n      dup5\n        /* \"#utility.yul\":2523:2529   */\n      dup3\n        /* \"#utility.yul\":2516:2520   */\n      0x20\n        /* \"#utility.yul\":2508:2514   */\n      dup7\n        /* \"#utility.yul\":2504:2521   */\n      add\n        /* \"#utility.yul\":2457:2535   */\n      tag_34\n      jump\t// in\n    tag_98:\n        /* \"#utility.yul\":2448:2535   */\n      swap2\n      pop\n        /* \"#utility.yul\":2264:2541   */\n      pop\n        /* \"#utility.yul\":2203:2541   */\n      swap3\n      swap2\n      pop\n      pop\n      jump\t// out\n        /* \"#utility.yul\":2547:2696   */\n    tag_36:\n        /* \"#utility.yul\":2583:2590   */\n      0x00\n        /* \"#utility.yul\":2623:2689   */\n      0xff00000000000000000000000000000000000000000000000000000000000000\n        /* \"#utility.yul\":2616:2621   */\n      dup3\n        /* \"#utility.yul\":2612:2690   */\n      and\n        /* \"#utility.yul\":2601:2690   */\n      swap1\n      pop\n        /* \"#utility.yul\":2547:2696   */\n      swap2\n      swap1\n      pop\n      jump\t// out\n        /* \"#utility.yul\":2702:2822   */\n    tag_37:\n        /* \"#utility.yul\":2774:2797   */\n      tag_101\n        /* \"#utility.yul\":2791:2796   */\n      dup2\n        /* \"#utility.yul\":2774:2797   */\n      tag_36\n      jump\t// in\n    tag_101:\n        /* \"#utility.yul\":2767:2772   */\n      dup2\n        /* \"#utility.yul\":2764:2798   */\n      eq\n        /* \"#utility.yul\":2754:2816   */\n      tag_102\n      jumpi\n        /* \"#utility.yul\":2812:2813   */\n      0x00\n        /* \"#utility.yul\":2809:2810   */\n      dup1\n        /* \"#utility.yul\":2802:2814   */\n      revert\n        /* \"#utility.yul\":2754:2816   */\n    tag_102:\n        /* \"#utility.yul\":2702:2822   */\n      pop\n      jump\t// out\n        /* \"#utility.yul\":2828:2965   */\n    tag_38:\n        /* \"#utility.yul\":2873:2878   */\n      0x00\n        /* \"#utility.yul\":2911:2917   */\n      dup2\n        /* \"#utility.yul\":2898:2918   */\n      calldataload\n        /* \"#utility.yul\":2889:2918   */\n      swap1\n      pop\n        /* \"#utility.yul\":2927:2959   */\n      tag_104\n        /* \"#utility.yul\":2953:2958   */\n      dup2\n        /* \"#utility.yul\":2927:2959   */\n      tag_37\n      jump\t// in\n    tag_104:\n        /* \"#utility.yul\":2828:2965   */\n      swap3\n      swap2\n      pop\n      pop\n      jump\t// out\n        /* \"#utility.yul\":2971:3120   */\n    tag_39:\n        /* \"#utility.yul\":3007:3014   */\n      0x00\n        /* \"#utility.yul\":3047:3113   */\n      0xffff000000000000000000000000000000000000000000000000000000000000\n        /* \"#utility.yul\":3040:3045   */\n      dup3\n        /* \"#utility.yul\":3036:3114   */\n      and\n        /* \"#utility.yul\":3025:3114   */\n      swap1\n      pop\n        /* \"#utility.yul\":2971:3120   */\n      swap2\n      swap1\n      pop\n      jump\t// out\n        /* \"#utility.yul\":3126:3246   */\n    tag_40:\n        /* \"#utility.yul\":3198:3221   */\n      tag_107\n        /* \"#utility.yul\":3215:3220   */\n      dup2\n        /* \"#utility.yul\":3198:3221   */\n      tag_39\n      jump\t// in\n    tag_107:\n        /* \"#utility.yul\":3191:3196   */\n      dup2\n        /* \"#utility.yul\":3188:3222   */\n      eq\n        /* \"#utility.yul\":3178:3240   */\n      tag_108\n      jumpi\n        /* \"#utility.yul\":3236:3237   */\n      0x00\n        /* \"#utility.yul\":3233:3234   */\n      dup1\n        /* \"#utility.yul\":3226:3238   */\n      revert\n        /* \"#utility.yul\":3178:3240   */\n    tag_108:\n        /* \"#utility.yul\":3126:3246   */\n      pop\n      jump\t// out\n        /* \"#utility.yul\":3252:3389   */\n    tag_41:\n        /* \"#utility.yul\":3297:3302   */\n      0x00\n        /* \"#utility.yul\":3335:3341   */\n      dup2\n        /* \"#utility.yul\":3322:3342   */\n      calldataload\n        /* \"#utility.yul\":3313:3342   */\n      swap1\n      pop\n        /* \"#utility.yul\":3351:3383   */\n      tag_110\n        /* \"#utility.yul\":3377:3382   */\n      dup2\n        /* \"#utility.yul\":3351:3383   */\n      tag_40\n      jump\t// in\n    tag_110:\n        /* \"#utility.yul\":3252:3389   */\n      swap3\n      swap2\n      pop\n      pop\n      jump\t// out\n        /* \"#utility.yul\":3395:3472   */\n    tag_42:\n        /* \"#utility.yul\":3432:3439   */\n      0x00\n        /* \"#utility.yul\":3461:3466   */\n      dup2\n        /* \"#utility.yul\":3450:3466   */\n      swap1\n      pop\n        /* \"#utility.yul\":3395:3472   */\n      swap2\n      swap1\n      pop\n      jump\t// out\n        /* \"#utility.yul\":3478:3600   */\n    tag_43:\n        /* \"#utility.yul\":3551:3575   */\n      tag_113\n        /* \"#utility.yul\":3569:3574   */\n      dup2\n        /* \"#utility.yul\":3551:3575   */\n      tag_42\n      jump\t// in\n    tag_113:\n        /* \"#utility.yul\":3544:3549   */\n      dup2\n        /* \"#utility.yul\":3541:3576   */\n      eq\n        /* \"#utility.yul\":3531:3594   */\n      tag_114\n      jumpi\n        /* \"#utility.yul\":3590:3591   */\n      0x00\n        /* \"#utility.yul\":3587:3588   */\n      dup1\n        /* \"#utility.yul\":3580:3592   */\n      revert\n        /* \"#utility.yul\":3531:3594   */\n    tag_114:\n        /* \"#utility.yul\":3478:3600   */\n      pop\n      jump\t// out\n        /* \"#utility.yul\":3606:3745   */\n    tag_44:\n        /* \"#utility.yul\":3652:3657   */\n      0x00\n        /* \"#utility.yul\":3690:3696   */\n      dup2\n        /* \"#utility.yul\":3677:3697   */\n      calldataload\n        /* \"#utility.yul\":3668:3697   */\n      swap1\n      pop\n        /* \"#utility.yul\":3706:3739   */\n      tag_116\n        /* \"#utility.yul\":3733:3738   */\n      dup2\n        /* \"#utility.yul\":3706:3739   */\n      tag_43\n      jump\t// in\n    tag_116:\n        /* \"#utility.yul\":3606:3745   */\n      swap3\n      swap2\n      pop\n      pop\n      jump\t// out\n        /* \"#utility.yul\":3751:4690   */\n    tag_7:\n        /* \"#utility.yul\":3844:3850   */\n      0x00\n        /* \"#utility.yul\":3852:3858   */\n      dup1\n        /* \"#utility.yul\":3860:3866   */\n      0x00\n        /* \"#utility.yul\":3868:3874   */\n      dup1\n        /* \"#utility.yul\":3917:3920   */\n      0x80\n        /* \"#utility.yul\":3905:3914   */\n      dup6\n        /* \"#utility.yul\":3896:3903   */\n      dup8\n        /* \"#utility.yul\":3892:3915   */\n      sub\n        /* \"#utility.yul\":3888:3921   */\n      slt\n        /* \"#utility.yul\":3885:4005   */\n      iszero\n      tag_118\n      jumpi\n        /* \"#utility.yul\":3924:4003   */\n      tag_119\n      tag_24\n      jump\t// in\n    tag_119:\n        /* \"#utility.yul\":3885:4005   */\n    tag_118:\n        /* \"#utility.yul\":4072:4073   */\n      0x00\n        /* \"#utility.yul\":4061:4070   */\n      dup6\n        /* \"#utility.yul\":4057:4074   */\n      add\n        /* \"#utility.yul\":4044:4075   */\n      calldataload\n        /* \"#utility.yul\":4102:4120   */\n      0xffffffffffffffff\n        /* \"#utility.yul\":4094:4100   */\n      dup2\n        /* \"#utility.yul\":4091:4121   */\n      gt\n        /* \"#utility.yul\":4088:4205   */\n      iszero\n      tag_120\n      jumpi\n        /* \"#utility.yul\":4124:4203   */\n      tag_121\n      tag_25\n      jump\t// in\n    tag_121:\n        /* \"#utility.yul\":4088:4205   */\n    tag_120:\n        /* \"#utility.yul\":4229:4291   */\n      tag_122\n        /* \"#utility.yul\":4283:4290   */\n      dup8\n        /* \"#utility.yul\":4274:4280   */\n      dup3\n        /* \"#utility.yul\":4263:4272   */\n      dup9\n        /* \"#utility.yul\":4259:4281   */\n      add\n        /* \"#utility.yul\":4229:4291   */\n      tag_35\n      jump\t// in\n    tag_122:\n        /* \"#utility.yul\":4219:4291   */\n      swap5\n      pop\n        /* \"#utility.yul\":4015:4301   */\n      pop\n        /* \"#utility.yul\":4340:4342   */\n      0x20\n        /* \"#utility.yul\":4366:4418   */\n      tag_123\n        /* \"#utility.yul\":4410:4417   */\n      dup8\n        /* \"#utility.yul\":4401:4407   */\n      dup3\n        /* \"#utility.yul\":4390:4399   */\n      dup9\n        /* \"#utility.yul\":4386:4408   */\n      add\n        /* \"#utility.yul\":4366:4418   */\n      tag_38\n      jump\t// in\n    tag_123:\n        /* \"#utility.yul\":4356:4418   */\n      swap4\n      pop\n        /* \"#utility.yul\":4311:4428   */\n      pop\n        /* \"#utility.yul\":4467:4469   */\n      0x40\n        /* \"#utility.yul\":4493:4545   */\n      tag_124\n        /* \"#utility.yul\":4537:4544   */\n      dup8\n        /* \"#utility.yul\":4528:4534   */\n      dup3\n        /* \"#utility.yul\":4517:4526   */\n      dup9\n        /* \"#utility.yul\":4513:4535   */\n      add\n        /* \"#utility.yul\":4493:4545   */\n      tag_41\n      jump\t// in\n    tag_124:\n        /* \"#utility.yul\":4483:4545   */\n      swap3\n      pop\n        /* \"#utility.yul\":4438:4555   */\n      pop\n        /* \"#utility.yul\":4594:4596   */\n      0x60\n        /* \"#utility.yul\":4620:4673   */\n      tag_125\n        /* \"#utility.yul\":4665:4672   */\n      dup8\n        /* \"#utility.yul\":4656:4662   */\n      dup3\n        /* \"#utility.yul\":4645:4654   */\n      dup9\n        /* \"#utility.yul\":4641:4663   */\n      add\n        /* \"#utility.yul\":4620:4673   */\n      tag_44\n      jump\t// in\n    tag_125:\n        /* \"#utility.yul\":4610:4673   */\n      swap2\n      pop\n        /* \"#utility.yul\":4565:4683   */\n      pop\n        /* \"#utility.yul\":3751:4690   */\n      swap3\n      swap6\n      swap2\n      swap5\n      pop\n      swap3\n      pop\n      jump\t// out\n        /* \"#utility.yul\":4696:4794   */\n    tag_45:\n        /* \"#utility.yul\":4747:4753   */\n      0x00\n        /* \"#utility.yul\":4781:4786   */\n      dup2\n        /* \"#utility.yul\":4775:4787   */\n      mload\n        /* \"#utility.yul\":4765:4787   */\n      swap1\n      pop\n        /* \"#utility.yul\":4696:4794   */\n      swap2\n      swap1\n      pop\n      jump\t// out\n        /* \"#utility.yul\":4800:4968   */\n    tag_46:\n        /* \"#utility.yul\":4883:4894   */\n      0x00\n        /* \"#utility.yul\":4917:4923   */\n      dup3\n        /* \"#utility.yul\":4912:4915   */\n      dup3\n        /* \"#utility.yul\":4905:4924   */\n      mstore\n        /* \"#utility.yul\":4957:4961   */\n      0x20\n        /* \"#utility.yul\":4952:4955   */\n      dup3\n        /* \"#utility.yul\":4948:4962   */\n      add\n        /* \"#utility.yul\":4933:4962   */\n      swap1\n      pop\n        /* \"#utility.yul\":4800:4968   */\n      swap3\n      swap2\n      pop\n      pop\n      jump\t// out\n        /* \"#utility.yul\":4974:5220   */\n    tag_47:\n        /* \"#utility.yul\":5055:5056   */\n      0x00\n        /* \"#utility.yul\":5065:5178   */\n    tag_129:\n        /* \"#utility.yul\":5079:5085   */\n      dup4\n        /* \"#utility.yul\":5076:5077   */\n      dup2\n        /* \"#utility.yul\":5073:5086   */\n      lt\n        /* \"#utility.yul\":5065:5178   */\n      iszero\n      tag_131\n      jumpi\n        /* \"#utility.yul\":5164:5165   */\n      dup1\n        /* \"#utility.yul\":5159:5162   */\n      dup3\n        /* \"#utility.yul\":5155:5166   */\n      add\n        /* \"#utility.yul\":5149:5167   */\n      mload\n        /* \"#utility.yul\":5145:5146   */\n      dup2\n        /* \"#utility.yul\":5140:5143   */\n      dup5\n        /* \"#utility.yul\":5136:5147   */\n      add\n        /* \"#utility.yul\":5129:5168   */\n      mstore\n        /* \"#utility.yul\":5101:5103   */\n      0x20\n        /* \"#utility.yul\":5098:5099   */\n      dup2\n        /* \"#utility.yul\":5094:5104   */\n      add\n        /* \"#utility.yul\":5089:5104   */\n      swap1\n      pop\n        /* \"#utility.yul\":5065:5178   */\n      jump(tag_129)\n    tag_131:\n        /* \"#utility.yul\":5212:5213   */\n      0x00\n        /* \"#utility.yul\":5203:5209   */\n      dup5\n        /* \"#utility.yul\":5198:5201   */\n      dup5\n        /* \"#utility.yul\":5194:5210   */\n      add\n        /* \"#utility.yul\":5187:5214   */\n      mstore\n        /* \"#utility.yul\":5036:5220   */\n      pop\n        /* \"#utility.yul\":4974:5220   */\n      pop\n      pop\n      pop\n      jump\t// out\n        /* \"#utility.yul\":5226:5599   */\n    tag_48:\n        /* \"#utility.yul\":5312:5315   */\n      0x00\n        /* \"#utility.yul\":5340:5378   */\n      tag_133\n        /* \"#utility.yul\":5372:5377   */\n      dup3\n        /* \"#utility.yul\":5340:5378   */\n      tag_45\n      jump\t// in\n    tag_133:\n        /* \"#utility.yul\":5394:5464   */\n      tag_134\n        /* \"#utility.yul\":5457:5463   */\n      dup2\n        /* \"#utility.yul\":5452:5455   */\n      dup6\n        /* \"#utility.yul\":5394:5464   */\n      tag_46\n      jump\t// in\n    tag_134:\n        /* \"#utility.yul\":5387:5464   */\n      swap4\n      pop\n        /* \"#utility.yul\":5473:5538   */\n      tag_135\n        /* \"#utility.yul\":5531:5537   */\n      dup2\n        /* \"#utility.yul\":5526:5529   */\n      dup6\n        /* \"#utility.yul\":5519:5523   */\n      0x20\n        /* \"#utility.yul\":5512:5517   */\n      dup7\n        /* \"#utility.yul\":5508:5524   */\n      add\n        /* \"#utility.yul\":5473:5538   */\n      tag_47\n      jump\t// in\n    tag_135:\n        /* \"#utility.yul\":5563:5592   */\n      tag_136\n        /* \"#utility.yul\":5585:5591   */\n      dup2\n        /* \"#utility.yul\":5563:5592   */\n      tag_28\n      jump\t// in\n    tag_136:\n        /* \"#utility.yul\":5558:5561   */\n      dup5\n        /* \"#utility.yul\":5554:5593   */\n      add\n        /* \"#utility.yul\":5547:5593   */\n      swap2\n      pop\n        /* \"#utility.yul\":5316:5599   */\n      pop\n        /* \"#utility.yul\":5226:5599   */\n      swap3\n      swap2\n      pop\n      pop\n      jump\t// out\n        /* \"#utility.yul\":5605:5720   */\n    tag_49:\n        /* \"#utility.yul\":5690:5713   */\n      tag_138\n        /* \"#utility.yul\":5707:5712   */\n      dup2\n        /* \"#utility.yul\":5690:5713   */\n      tag_36\n      jump\t// in\n    tag_138:\n        /* \"#utility.yul\":5685:5688   */\n      dup3\n        /* \"#utility.yul\":5678:5714   */\n      mstore\n        /* \"#utility.yul\":5605:5720   */\n      pop\n      pop\n      jump\t// out\n        /* \"#utility.yul\":5726:5841   */\n    tag_50:\n        /* \"#utility.yul\":5811:5834   */\n      tag_140\n        /* \"#utility.yul\":5828:5833   */\n      dup2\n        /* \"#utility.yul\":5811:5834   */\n      tag_39\n      jump\t// in\n    tag_140:\n        /* \"#utility.yul\":5806:5809   */\n      dup3\n        /* \"#utility.yul\":5799:5835   */\n      mstore\n        /* \"#utility.yul\":5726:5841   */\n      pop\n      pop\n      jump\t// out\n        /* \"#utility.yul\":5847:5965   */\n    tag_51:\n        /* \"#utility.yul\":5934:5958   */\n      tag_142\n        /* \"#utility.yul\":5952:5957   */\n      dup2\n        /* \"#utility.yul\":5934:5958   */\n      tag_42\n      jump\t// in\n    tag_142:\n        /* \"#utility.yul\":5929:5932   */\n      dup3\n        /* \"#utility.yul\":5922:5959   */\n      mstore\n        /* \"#utility.yul\":5847:5965   */\n      pop\n      pop\n      jump\t// out\n        /* \"#utility.yul\":5971:6603   */\n    tag_12:\n        /* \"#utility.yul\":6162:6166   */\n      0x00\n        /* \"#utility.yul\":6200:6203   */\n      0x80\n        /* \"#utility.yul\":6189:6198   */\n      dup3\n        /* \"#utility.yul\":6185:6204   */\n      add\n        /* \"#utility.yul\":6177:6204   */\n      swap1\n      pop\n        /* \"#utility.yul\":6250:6259   */\n      dup2\n        /* \"#utility.yul\":6244:6248   */\n      dup2\n        /* \"#utility.yul\":6240:6260   */\n      sub\n        /* \"#utility.yul\":6236:6237   */\n      0x00\n        /* \"#utility.yul\":6225:6234   */\n      dup4\n        /* \"#utility.yul\":6221:6238   */\n      add\n        /* \"#utility.yul\":6214:6261   */\n      mstore\n        /* \"#utility.yul\":6278:6354   */\n      tag_144\n        /* \"#utility.yul\":6349:6353   */\n      dup2\n        /* \"#utility.yul\":6340:6346   */\n      dup8\n        /* \"#utility.yul\":6278:6354   */\n      tag_48\n      jump\t// in\n    tag_144:\n        /* \"#utility.yul\":6270:6354   */\n      swap1\n      pop\n        /* \"#utility.yul\":6364:6434   */\n      tag_145\n        /* \"#utility.yul\":6430:6432   */\n      0x20\n        /* \"#utility.yul\":6419:6428   */\n      dup4\n        /* \"#utility.yul\":6415:6433   */\n      add\n        /* \"#utility.yul\":6406:6412   */\n      dup7\n        /* \"#utility.yul\":6364:6434   */\n      tag_49\n      jump\t// in\n    tag_145:\n        /* \"#utility.yul\":6444:6514   */\n      tag_146\n        /* \"#utility.yul\":6510:6512   */\n      0x40\n        /* \"#utility.yul\":6499:6508   */\n      dup4\n        /* \"#utility.yul\":6495:6513   */\n      add\n        /* \"#utility.yul\":6486:6492   */\n      dup6\n        /* \"#utility.yul\":6444:6514   */\n      tag_50\n      jump\t// in\n    tag_146:\n        /* \"#utility.yul\":6524:6596   */\n      tag_147\n        /* \"#utility.yul\":6592:6594   */\n      0x60\n        /* \"#utility.yul\":6581:6590   */\n      dup4\n        /* \"#utility.yul\":6577:6595   */\n      add\n        /* \"#utility.yul\":6568:6574   */\n      dup5\n        /* \"#utility.yul\":6524:6596   */\n      tag_51\n      jump\t// in\n    tag_147:\n        /* \"#utility.yul\":5971:6603   */\n      swap6\n      swap5\n      pop\n      pop\n      pop\n      pop\n      pop\n      jump\t// out\n        /* \"#utility.yul\":6609:6789   */\n    tag_52:\n        /* \"#utility.yul\":6657:6734   */\n      0x4e487b7100000000000000000000000000000000000000000000000000000000\n        /* \"#utility.yul\":6654:6655   */\n      0x00\n        /* \"#utility.yul\":6647:6735   */\n      mstore\n        /* \"#utility.yul\":6754:6758   */\n      0x22\n        /* \"#utility.yul\":6751:6752   */\n      0x04\n        /* \"#utility.yul\":6744:6759   */\n      mstore\n        /* \"#utility.yul\":6778:6782   */\n      0x24\n        /* \"#utility.yul\":6775:6776   */\n      0x00\n        /* \"#utility.yul\":6768:6783   */\n      revert\n        /* \"#utility.yul\":6795:7115   */\n    tag_18:\n        /* \"#utility.yul\":6839:6845   */\n      0x00\n        /* \"#utility.yul\":6876:6877   */\n      0x02\n        /* \"#utility.yul\":6870:6874   */\n      dup3\n        /* \"#utility.yul\":6866:6878   */\n      div\n        /* \"#utility.yul\":6856:6878   */\n      swap1\n      pop\n        /* \"#utility.yul\":6923:6924   */\n      0x01\n        /* \"#utility.yul\":6917:6921   */\n      dup3\n        /* \"#utility.yul\":6913:6925   */\n      and\n        /* \"#utility.yul\":6944:6962   */\n      dup1\n        /* \"#utility.yul\":6934:7015   */\n      tag_150\n      jumpi\n        /* \"#utility.yul\":7000:7004   */\n      0x7f\n        /* \"#utility.yul\":6992:6998   */\n      dup3\n        /* \"#utility.yul\":6988:7005   */\n      and\n        /* \"#utility.yul\":6978:7005   */\n      swap2\n      pop\n        /* \"#utility.yul\":6934:7015   */\n    tag_150:\n        /* \"#utility.yul\":7062:7064   */\n      0x20\n        /* \"#utility.yul\":7054:7060   */\n      dup3\n        /* \"#utility.yul\":7051:7065   */\n      lt\n        /* \"#utility.yul\":7031:7049   */\n      dup2\n        /* \"#utility.yul\":7028:7066   */\n      sub\n        /* \"#utility.yul\":7025:7109   */\n      tag_151\n      jumpi\n        /* \"#utility.yul\":7081:7099   */\n      tag_152\n      tag_52\n      jump\t// in\n    tag_152:\n        /* \"#utility.yul\":7025:7109   */\n    tag_151:\n        /* \"#utility.yul\":6846:7115   */\n      pop\n        /* \"#utility.yul\":6795:7115   */\n      swap2\n      swap1\n      pop\n      jump\t// out\n        /* \"#utility.yul\":7121:7261   */\n    tag_53:\n        /* \"#utility.yul\":7169:7173   */\n      0x00\n        /* \"#utility.yul\":7192:7195   */\n      dup2\n        /* \"#utility.yul\":7184:7195   */\n      swap1\n      pop\n        /* \"#utility.yul\":7215:7218   */\n      dup2\n        /* \"#utility.yul\":7212:7213   */\n      0x00\n        /* \"#utility.yul\":7205:7219   */\n      mstore\n        /* \"#utility.yul\":7249:7253   */\n      0x20\n        /* \"#utility.yul\":7246:7247   */\n      0x00\n        /* \"#utility.yul\":7236:7254   */\n      keccak256\n        /* \"#utility.yul\":7228:7254   */\n      swap1\n      pop\n        /* \"#utility.yul\":7121:7261   */\n      swap2\n      swap1\n      pop\n      jump\t// out\n        /* \"#utility.yul\":7267:7360   */\n    tag_54:\n        /* \"#utility.yul\":7304:7310   */\n      0x00\n        /* \"#utility.yul\":7351:7353   */\n      0x20\n        /* \"#utility.yul\":7346:7348   */\n      0x1f\n        /* \"#utility.yul\":7339:7344   */\n      dup4\n        /* \"#utility.yul\":7335:7349   */\n      add\n        /* \"#utility.yul\":7331:7354   */\n      div\n        /* \"#utility.yul\":7321:7354   */\n      swap1\n      pop\n        /* \"#utility.yul\":7267:7360   */\n      swap2\n      swap1\n      pop\n      jump\t// out\n        /* \"#utility.yul\":7366:7473   */\n    tag_55:\n        /* \"#utility.yul\":7410:7418   */\n      0x00\n        /* \"#utility.yul\":7460:7465   */\n      dup3\n        /* \"#utility.yul\":7454:7458   */\n      dup3\n        /* \"#utility.yul\":7450:7466   */\n      shl\n        /* \"#utility.yul\":7429:7466   */\n      swap1\n      pop\n        /* \"#utility.yul\":7366:7473   */\n      swap3\n      swap2\n      pop\n      pop\n      jump\t// out\n        /* \"#utility.yul\":7479:7872   */\n    tag_56:\n        /* \"#utility.yul\":7548:7554   */\n      0x00\n        /* \"#utility.yul\":7598:7599   */\n      0x08\n        /* \"#utility.yul\":7586:7596   */\n      dup4\n        /* \"#utility.yul\":7582:7600   */\n      mul\n        /* \"#utility.yul\":7621:7718   */\n      tag_157\n        /* \"#utility.yul\":7651:7717   */\n      0xffffffffffffffffffffffffffffffffffffffffffffffffffffffffffffffff\n        /* \"#utility.yul\":7640:7649   */\n      dup3\n        /* \"#utility.yul\":7621:7718   */\n      tag_55\n      jump\t// in\n    tag_157:\n        /* \"#utility.yul\":7739:7778   */\n      tag_158\n        /* \"#utility.yul\":7769:7777   */\n      dup7\n        /* \"#utility.yul\":7758:7767   */\n      dup4\n        /* \"#utility.yul\":7739:7778   */\n      tag_55\n      jump\t// in\n    tag_158:\n        /* \"#utility.yul\":7727:7778   */\n      swap6\n      pop\n        /* \"#utility.yul\":7811:7815   */\n      dup1\n        /* \"#utility.yul\":7807:7816   */\n      not\n        /* \"#utility.yul\":7800:7805   */\n      dup5\n        /* \"#utility.yul\":7796:7817   */\n      and\n        /* \"#utility.yul\":7787:7817   */\n      swap4\n      pop\n        /* \"#utility.yul\":7860:7864   */\n      dup1\n        /* \"#utility.yul\":7850:7858   */\n      dup7\n        /* \"#utility.yul\":7846:7865   */\n      and\n        /* \"#utility.yul\":7839:7844   */\n      dup5\n        /* \"#utility.yul\":7836:7866   */\n      or\n        /* \"#utility.yul\":7826:7866   */\n      swap3\n      pop\n        /* \"#utility.yul\":7555:7872   */\n      pop\n      pop\n        /* \"#utility.yul\":7479:7872   */\n      swap4\n      swap3\n      pop\n      pop\n      pop\n      jump\t// out\n        /* \"#utility.yul\":7878:7955   */\n    tag_57:\n        /* \"#utility.yul\":7915:7922   */\n      0x00\n        /* \"#utility.yul\":7944:7949   */\n      dup2\n        /* \"#utility.yul\":7933:7949   */\n      swap1\n      pop\n        /* \"#utility.yul\":7878:7955   */\n      swap2\n      swap1\n      pop\n      jump\t// out\n        /* \"#utility.yul\":7961:8021   */\n    tag_58:\n        /* \"#utility.yul\":7989:7992   */\n      0x00\n        /* \"#utility.yul\":8010:8015   */\n      dup2\n        /* \"#utility.yul\":8003:8015   */\n      swap1\n      pop\n        /* \"#utility.yul\":7961:8021   */\n      swap2\n      swap1\n      pop\n      jump\t// out\n        /* \"#utility.yul\":8027:8169   */\n    tag_59:\n        /* \"#utility.yul\":8077:8086   */\n      0x00\n        /* \"#utility.yul\":8110:8163   */\n      tag_162\n        /* \"#utility.yul\":8128:8162   */\n      tag_163\n        /* \"#utility.yul\":8137:8161   */\n      tag_164\n        /* \"#utility.yul\":8155:8160   */\n      dup5\n        /* \"#utility.yul\":8137:8161   */\n      tag_57\n      jump\t// in\n    tag_164:\n        /* \"#utility.yul\":8128:8162   */\n      tag_58\n      jump\t// in\n    tag_163:\n        /* \"#utility.yul\":8110:8163   */\n      tag_57\n      jump\t// in\n    tag_162:\n        /* \"#utility.yul\":8097:8163   */\n      swap1\n      pop\n        /* \"#utility.yul\":8027:8169   */\n      swap2\n      swap1\n      pop\n      jump\t// out\n        /* \"#utility.yul\":8175:8250   */\n    tag_60:\n        /* \"#utility.yul\":8218:8221   */\n      0x00\n        /* \"#utility.yul\":8239:8244   */\n      dup2\n        /* \"#utility.yul\":8232:8244   */\n      swap1\n      pop\n        /* \"#utility.yul\":8175:8250   */\n      swap2\n      swap1\n      pop\n      jump\t// out\n        /* \"#utility.yul\":8256:8525   */\n    tag_61:\n        /* \"#utility.yul\":8366:8405   */\n      tag_167\n        /* \"#utility.yul\":8397:8404   */\n      dup4\n        /* \"#utility.yul\":8366:8405   */\n      tag_59\n      jump\t// in\n    tag_167:\n        /* \"#utility.yul\":8427:8518   */\n      tag_168\n        /* \"#utility.yul\":8476:8517   */\n      tag_169\n        /* \"#utility.yul\":8500:8516   */\n      dup3\n        /* \"#utility.yul\":8476:8517   */\n      tag_60\n      jump\t// in\n    tag_169:\n        /* \"#utility.yul\":8468:8474   */\n      dup5\n        /* \"#utility.yul\":8461:8465   */\n      dup5\n        /* \"#utility.yul\":8455:8466   */\n      sload\n        /* \"#utility.yul\":8427:8518   */\n      tag_56\n      jump\t// in\n    tag_168:\n        /* \"#utility.yul\":8421:8425   */\n      dup3\n        /* \"#utility.yul\":8414:8519   */\n      sstore\n        /* \"#utility.yul\":8332:8525   */\n      pop\n        /* \"#utility.yul\":8256:8525   */\n      pop\n      pop\n      pop\n      jump\t// out\n        /* \"#utility.yul\":8531:8604   */\n    tag_62:\n        /* \"#utility.yul\":8576:8579   */\n      0x00\n        /* \"#utility.yul\":8531:8604   */\n      swap1\n      jump\t// out\n        /* \"#utility.yul\":8610:8799   */\n    tag_63:\n        /* \"#utility.yul\":8687:8719   */\n      tag_172\n      tag_62\n      jump\t// in\n    tag_172:\n        /* \"#utility.yul\":8728:8793   */\n      tag_173\n        /* \"#utility.yul\":8786:8792   */\n      dup2\n        /* \"#utility.yul\":8778:8784   */\n      dup5\n        /* \"#utility.yul\":8772:8776   */\n      dup5\n        /* \"#utility.yul\":8728:8793   */\n      tag_61\n      jump\t// in\n    tag_173:\n        /* \"#utility.yul\":8663:8799   */\n      pop\n        /* \"#utility.yul\":8610:8799   */\n      pop\n      pop\n      jump\t// out\n        /* \"#utility.yul\":8805:8991   */\n    tag_64:\n        /* \"#utility.yul\":8865:8985   */\n    tag_175:\n        /* \"#utility.yul\":8882:8885   */\n      dup2\n        /* \"#utility.yul\":8875:8880   */\n      dup2\n        /* \"#utility.yul\":8872:8886   */\n      lt\n        /* \"#utility.yul\":8865:8985   */\n      iszero\n      tag_177\n      jumpi\n        /* \"#utility.yul\":8936:8975   */\n      tag_178\n        /* \"#utility.yul\":8973:8974   */\n      0x00\n        /* \"#utility.yul\":8966:8971   */\n      dup3\n        /* \"#utility.yul\":8936:8975   */\n      tag_63\n      jump\t// in\n    tag_178:\n        /* \"#utility.yul\":8909:8910   */\n      0x01\n        /* \"#utility.yul\":8902:8907   */\n      dup2\n        /* \"#utility.yul\":8898:8911   */\n      add\n        /* \"#utility.yul\":8889:8911   */\n      swap1\n      pop\n        /* \"#utility.yul\":8865:8985   */\n      jump(tag_175)\n    tag_177:\n        /* \"#utility.yul\":8805:8991   */\n      pop\n      pop\n      jump\t// out\n        /* \"#utility.yul\":8997:9538   */\n    tag_65:\n        /* \"#utility.yul\":9097:9099   */\n      0x1f\n        /* \"#utility.yul\":9092:9095   */\n      dup3\n        /* \"#utility.yul\":9089:9100   */\n      gt\n        /* \"#utility.yul\":9086:9531   */\n      iszero\n      tag_180\n      jumpi\n        /* \"#utility.yul\":9131:9168   */\n      tag_181\n        /* \"#utility.yul\":9162:9167   */\n      dup2\n        /* \"#utility.yul\":9131:9168   */\n      tag_53\n      jump\t// in\n    tag_181:\n        /* \"#utility.yul\":9214:9243   */\n      tag_182\n        /* \"#utility.yul\":9232:9242   */\n      dup5\n        /* \"#utility.yul\":9214:9243   */\n      tag_54\n      jump\t// in\n    tag_182:\n        /* \"#utility.yul\":9204:9212   */\n      dup2\n        /* \"#utility.yul\":9200:9244   */\n      add\n        /* \"#utility.yul\":9397:9399   */\n      0x20\n        /* \"#utility.yul\":9385:9395   */\n      dup6\n        /* \"#utility.yul\":9382:9400   */\n      lt\n        /* \"#utility.yul\":9379:9428   */\n      iszero\n      tag_183\n      jumpi\n        /* \"#utility.yul\":9418:9426   */\n      dup2\n        /* \"#utility.yul\":9403:9426   */\n      swap1\n      pop\n        /* \"#utility.yul\":9379:9428   */\n    tag_183:\n        /* \"#utility.yul\":9441:9521   */\n      tag_184\n        /* \"#utility.yul\":9497:9519   */\n      tag_185\n        /* \"#utility.yul\":9515:9518   */\n      dup6\n        /* \"#utility.yul\":9497:9519   */\n      tag_54\n      jump\t// in\n    tag_185:\n        /* \"#utility.yul\":9487:9495   */\n      dup4\n        /* \"#utility.yul\":9483:9520   */\n      add\n        /* \"#utility.yul\":9470:9481   */\n      dup3\n        /* \"#utility.yul\":9441:9521   */\n      tag_64\n      jump\t// in\n    tag_184:\n        /* \"#utility.yul\":9101:9531   */\n      pop\n      pop\n        /* \"#utility.yul\":9086:9531   */\n    tag_180:\n        /* \"#utility.yul\":8997:9538   */\n      pop\n      pop\n      pop\n      jump\t// out\n        /* \"#utility.yul\":9544:9661   */\n    tag_66:\n        /* \"#utility.yul\":9598:9606   */\n      0x00\n        /* \"#utility.yul\":9648:9653   */\n      dup3\n        /* \"#utility.yul\":9642:9646   */\n      dup3\n        /* \"#utility.yul\":9638:9654   */\n      shr\n        /* \"#utility.yul\":9617:9654   */\n      swap1\n      pop\n        /* \"#utility.yul\":9544:9661   */\n      swap3\n      swap2\n      pop\n      pop\n      jump\t// out\n        /* \"#utility.yul\":9667:9836   */\n    tag_67:\n        /* \"#utility.yul\":9711:9717   */\n      0x00\n        /* \"#utility.yul\":9744:9795   */\n      tag_188\n        /* \"#utility.yul\":9792:9793   */\n      0x00\n        /* \"#utility.yul\":9788:9794   */\n      not\n        /* \"#utility.yul\":9780:9785   */\n      dup5\n        /* \"#utility.yul\":9777:9778   */\n      0x08\n        /* \"#utility.yul\":9773:9786   */\n      mul\n        /* \"#utility.yul\":9744:9795   */\n      tag_66\n      jump\t// in\n    tag_188:\n        /* \"#utility.yul\":9740:9796   */\n      not\n        /* \"#utility.yul\":9825:9829   */\n      dup1\n        /* \"#utility.yul\":9819:9823   */\n      dup4\n        /* \"#utility.yul\":9815:9830   */\n      and\n        /* \"#utility.yul\":9805:9830   */\n      swap2\n      pop\n        /* \"#utility.yul\":9718:9836   */\n      pop\n        /* \"#utility.yul\":9667:9836   */\n      swap3\n      swap2\n      pop\n      pop\n      jump\t// out\n        /* \"#utility.yul\":9841:10136   */\n    tag_68:\n        /* \"#utility.yul\":9917:9921   */\n      0x00\n        /* \"#utility.yul\":10063:10092   */\n      tag_190\n        /* \"#utility.yul\":10088:10091   */\n      dup4\n        /* \"#utility.yul\":10082:10086   */\n      dup4\n        /* \"#utility.yul\":10063:10092   */\n      tag_67\n      jump\t// in\n    tag_190:\n        /* \"#utility.yul\":10055:10092   */\n      swap2\n      pop\n        /* \"#utility.yul\":10125:10128   */\n      dup3\n        /* \"#utility.yul\":10122:10123   */\n      0x02\n        /* \"#utility.yul\":10118:10129   */\n      mul\n        /* \"#utility.yul\":10112:10116   */\n      dup3\n        /* \"#utility.yul\":10109:10130   */\n      or\n        /* \"#utility.yul\":10101:10130   */\n      swap1\n      pop\n        /* \"#utility.yul\":9841:10136   */\n      swap3\n      swap2\n      pop\n      pop\n      jump\t// out\n        /* \"#utility.yul\":10141:11531   */\n    tag_15:\n        /* \"#utility.yul\":10256:10292   */\n      tag_192\n        /* \"#utility.yul\":10288:10291   */\n      dup3\n        /* \"#utility.yul\":10256:10292   */\n      tag_45\n      jump\t// in\n    tag_192:\n        /* \"#utility.yul\":10357:10375   */\n      0xffffffffffffffff\n        /* \"#utility.yul\":10349:10355   */\n      dup2\n        /* \"#utility.yul\":10346:10376   */\n      gt\n        /* \"#utility.yul\":10343:10399   */\n      iszero\n      tag_193\n      jumpi\n        /* \"#utility.yul\":10379:10397   */\n      tag_194\n      tag_29\n      jump\t// in\n    tag_194:\n        /* \"#utility.yul\":10343:10399   */\n    tag_193:\n        /* \"#utility.yul\":10423:10461   */\n      tag_195\n        /* \"#utility.yul\":10455:10459   */\n      dup3\n        /* \"#utility.yul\":10449:10460   */\n      sload\n        /* \"#utility.yul\":10423:10461   */\n      tag_18\n      jump\t// in\n    tag_195:\n        /* \"#utility.yul\":10508:10574   */\n      tag_196\n        /* \"#utility.yul\":10567:10573   */\n      dup3\n        /* \"#utility.yul\":10559:10565   */\n      dup3\n        /* \"#utility.yul\":10553:10557   */\n      dup6\n        /* \"#utility.yul\":10508:10574   */\n      tag_65\n      jump\t// in\n    tag_196:\n        /* \"#utility.yul\":10601:10602   */\n      0x00\n        /* \"#utility.yul\":10625:10629   */\n      0x20\n        /* \"#utility.yul\":10612:10629   */\n      swap1\n      pop\n        /* \"#utility.yul\":10657:10659   */\n      0x1f\n        /* \"#utility.yul\":10649:10655   */\n      dup4\n        /* \"#utility.yul\":10646:10660   */\n      gt\n        /* \"#utility.yul\":10674:10675   */\n      0x01\n        /* \"#utility.yul\":10669:11286   */\n      dup2\n      eq\n      tag_198\n      jumpi\n        /* \"#utility.yul\":11330:11331   */\n      0x00\n        /* \"#utility.yul\":11347:11353   */\n      dup5\n        /* \"#utility.yul\":11344:11421   */\n      iszero\n      tag_199\n      jumpi\n        /* \"#utility.yul\":11396:11405   */\n      dup3\n        /* \"#utility.yul\":11391:11394   */\n      dup8\n        /* \"#utility.yul\":11387:11406   */\n      add\n        /* \"#utility.yul\":11381:11407   */\n      mload\n        /* \"#utility.yul\":11372:11407   */\n      swap1\n      pop\n        /* \"#utility.yul\":11344:11421   */\n    tag_199:\n        /* \"#utility.yul\":11447:11514   */\n      tag_200\n        /* \"#utility.yul\":11507:11513   */\n      dup6\n        /* \"#utility.yul\":11500:11505   */\n      dup3\n        /* \"#utility.yul\":11447:11514   */\n      tag_68\n      jump\t// in\n    tag_200:\n        /* \"#utility.yul\":11441:11445   */\n      dup7\n        /* \"#utility.yul\":11434:11515   */\n      sstore\n        /* \"#utility.yul\":11303:11525   */\n      pop\n        /* \"#utility.yul\":10639:11525   */\n      jump(tag_197)\n        /* \"#utility.yul\":10669:11286   */\n    tag_198:\n        /* \"#utility.yul\":10721:10725   */\n      0x1f\n        /* \"#utility.yul\":10717:10726   */\n      not\n        /* \"#utility.yul\":10709:10715   */\n      dup5\n        /* \"#utility.yul\":10705:10727   */\n      and\n        /* \"#utility.yul\":10755:10791   */\n      tag_201\n        /* \"#utility.yul\":10786:10790   */\n      dup7\n        /* \"#utility.yul\":10755:10791   */\n      tag_53\n      jump\t// in\n    tag_201:\n        /* \"#utility.yul\":10813:10814   */\n      0x00\n        /* \"#utility.yul\":10827:11035   */\n    tag_202:\n        /* \"#utility.yul\":10841:10848   */\n      dup3\n        /* \"#utility.yul\":10838:10839   */\n      dup2\n        /* \"#utility.yul\":10835:10849   */\n      lt\n        /* \"#utility.yul\":10827:11035   */\n      iszero\n      tag_204\n      jumpi\n        /* \"#utility.yul\":10920:10929   */\n      dup5\n        /* \"#utility.yul\":10915:10918   */\n      dup10\n        /* \"#utility.yul\":10911:10930   */\n      add\n        /* \"#utility.yul\":10905:10931   */\n      mload\n        /* \"#utility.yul\":10897:10903   */\n      dup3\n        /* \"#utility.yul\":10890:10932   */\n      sstore\n        /* \"#utility.yul\":10971:10972   */\n      0x01\n        /* \"#utility.yul\":10963:10969   */\n      dup3\n        /* \"#utility.yul\":10959:10973   */\n      add\n        /* \"#utility.yul\":10949:10973   */\n      swap2\n      pop\n        /* \"#utility.yul\":11018:11020   */\n      0x20\n        /* \"#utility.yul\":11007:11016   */\n      dup6\n        /* \"#utility.yul\":11003:11021   */\n      add\n        /* \"#utility.yul\":10990:11021   */\n      swap5\n      pop\n        /* \"#utility.yul\":10864:10868   */\n      0x20\n        /* \"#utility.yul\":10861:10862   */\n      dup2\n        /* \"#utility.yul\":10857:10869   */\n      add\n        /* \"#utility.yul\":10852:10869   */\n      swap1\n      pop\n        /* \"#utility.yul\":10827:11035   */\n      jump(tag_202)\n    tag_204:\n        /* \"#utility.yul\":11063:11069   */\n      dup7\n        /* \"#utility.yul\":11054:11061   */\n      dup4\n        /* \"#utility.yul\":11051:11070   */\n      lt\n        /* \"#utility.yul\":11048:11227   */\n      iszero\n      tag_205\n      jumpi\n        /* \"#utility.yul\":11121:11130   */\n      dup5\n        /* \"#utility.yul\":11116:11119   */\n      dup10\n        /* \"#utility.yul\":11112:11131   */\n      add\n        /* \"#utility.yul\":11106:11132   */\n      mload\n        /* \"#utility.yul\":11164:11212   */\n      tag_206\n        /* \"#utility.yul\":11206:11210   */\n      0x1f\n        /* \"#utility.yul\":11198:11204   */\n      dup10\n        /* \"#utility.yul\":11194:11211   */\n      and\n        /* \"#utility.yul\":11183:11192   */\n      dup3\n        /* \"#utility.yul\":11164:11212   */\n      tag_67\n      jump\t// in\n    tag_206:\n        /* \"#utility.yul\":11156:11162   */\n      dup4\n        /* \"#utility.yul\":11149:11213   */\n      sstore\n        /* \"#utility.yul\":11071:11227   */\n      pop\n        /* \"#utility.yul\":11048:11227   */\n    tag_205:\n        /* \"#utility.yul\":11273:11274   */\n      0x01\n        /* \"#utility.yul\":11269:11270   */\n      0x02\n        /* \"#utility.yul\":11261:11267   */\n      dup9\n        /* \"#utility.yul\":11257:11271   */\n      mul\n        /* \"#utility.yul\":11253:11275   */\n      add\n        /* \"#utility.yul\":11247:11251   */\n      dup9\n        /* \"#utility.yul\":11240:11276   */\n      sstore\n        /* \"#utility.yul\":10676:11286   */\n      pop\n      pop\n      pop\n        /* \"#utility.yul\":10639:11525   */\n    tag_197:\n      pop\n        /* \"#utility.yul\":10231:11531   */\n      pop\n      pop\n      pop\n        /* \"#utility.yul\":10141:11531   */\n      pop\n      pop\n      jump\t// out\n\n    auxdata: 0xa26469706673582212206fc7fb1bdf3d0570c48b0ce8c1d2cff91feec5258a649ca1c5ea98fc6c13b90d64736f6c63430008120033\n}\n",
				"bytecode": {
					"linkReferences": {},
					"object": "608060405234801561001057600080fd5b50610867806100206000396000f3fe608060405234801561001057600080fd5b50600436106100365760003560e01c806379860ccf1461003b57806387522f7914610057575b600080fd5b610055600480360381019061005091906103ce565b610078565b005b61005f6100cb565b60405161006f94939291906104fd565b60405180910390f35b8360009081610087919061075f565b5082600160006101000a81548160ff021916908360f81c0217905550816001806101000a81548161ffff021916908360f01c02179055508060028190555050505050565b6060600080600080600160009054906101000a900460f81b60018054906101000a900460f01b60025483805461010090610578565b80601f016020809104026020016040519081016040528092919081815260200182805461012c90610578565b80156101795780601f1061014e57610100808354040283529160200191610179565b820191906000526020600020905b81548152906001019060200180831161015c57829003601f168201915b50505050509350935093509350935090919293565b6000604051905090565b600080fd5b600080fd5b600080fd5b600080fd5b6000601f19601f8301169050919050565b7f4e487b7100000000000000000000000000000000000000000000000000000000600052604160045260246000fd5b6101f5826101ac565b810181811067ffffffffffffffff82111715610214576102136101bd565b5b80604052505050565b600061022761018e565b905061023382826101ec565b919050565b600067ffffffffffffffff821115610253576102526101bd565b5b61025c826101ac565b9050602081019050919050565b82818337600083830152505050565b600061028b61028684610238565b61021d565b9050828152602081018484840111156102a7576102a66101a7565b5b6102b2848285610269565b509392505050565b600082601f8301126102cf576102ce6101a2565b5b81356102df848260208601610278565b91505092915050565b60007fff0000000000000000000000000000000000000000000000000000000000000082169050919050565b61031d816102e8565b811461032857600080fd5b50565b60008135905061033a81610314565b92915050565b60007fffff00000000000000000000000000000000000000000000000000000000000082169050919050565b61037581610340565b811461038057600080fd5b50565b6000813590506103928161036c565b92915050565b6000819050919050565b6103ab81610398565b81146103b657600080fd5b50565b6000813590506103c8816103a2565b92915050565b600080600080608085870312156103e8576103e7610198565b5b600085013567ffffffffffffffff8111156104065761040561019d565b5b610412878288016102ba565b94505060206104238782880161032b565b935050604061043487828801610383565b9250506060610445878288016103b9565b91505092959194509250565b600081519050919050565b600082825260208201905092915050565b60005b8381101561048b578082015181840152602081019050610470565b60008484015250505050565b60006104a282610451565b6104ac818561045c565b93506104bc81856020860161046d565b6104c5816101ac565b840191505092915050565b6104d9816102e8565b82525050565b6104e881610340565b82525050565b6104f781610398565b82525050565b600060808201905081810360008301526105178187610497565b905061052660208301866104d0565b61053360408301856104df565b61054060608301846104ee565b95945050505050565b7f4e487b7100000000000000000000000000000000000000000000000000000000600052602260045260246000fd5b6000600282049050600182168061059057607f821691505b6020821081036105a3576105a2610549565b5b50919050565b60008190508160005260206000209050919050565b60006020601f8301049050919050565b600082821b905092915050565b60006008830261060b7fffffffffffffffffffffffffffffffffffffffffffffffffffffffffffffffff826105ce565b61061586836105ce565b95508019841693508086168417925050509392505050565b6000819050919050565b6000819050919050565b600061065c6106576106528461062d565b610637565b61062d565b9050919050565b6000819050919050565b61067683610641565b61068a61068282610663565b8484546105db565b825550505050565b600090565b61069f610692565b6106aa81848461066d565b505050565b5b818110156106ce576106c3600082610697565b6001810190506106b0565b5050565b601f821115610713576106e4816105a9565b6106ed846105be565b810160208510156106fc578190505b610710610708856105be565b8301826106af565b50505b505050565b600082821c905092915050565b600061073660001984600802610718565b1980831691505092915050565b600061074f8383610725565b9150826002028217905092915050565b61076882610451565b67ffffffffffffffff811115610781576107806101bd565b5b61078b8254610578565b6107968282856106d2565b600060209050601f8311600181146107c957600084156107b7578287015190505b6107c18582610743565b865550610829565b601f1984166107d7866105a9565b60005b828110156107ff578489015182556001820191506020850194506020810190506107da565b8683101561081c5784890151610818601f891682610725565b8355505b6001600288020188555050505b50505050505056fea26469706673582212206fc7fb1bdf3d0570c48b0ce8c1d2cff91feec5258a649ca1c5ea98fc6c13b90d64736f6c63430008120033",
					"opcodes": "PUSH1 0x80 PUSH1 0x40 MSTORE CALLVALUE DUP1 ISZERO PUSH2 0x10 JUMPI PUSH1 0x0 DUP1 REVERT JUMPDEST POP PUSH2 0x867 DUP1 PUSH2 0x20 PUSH1 0x0 CODECOPY PUSH1 0x0 RETURN INVALID PUSH1 0x80 PUSH1 0x40 MSTORE CALLVALUE DUP1 ISZERO PUSH2 0x10 JUMPI PUSH1 0x0 DUP1 REVERT JUMPDEST POP PUSH1 0x4 CALLDATASIZE LT PUSH2 0x36 JUMPI PUSH1 0x0 CALLDATALOAD PUSH1 0xE0 SHR DUP1 PUSH4 0x79860CCF EQ PUSH2 0x3B JUMPI DUP1 PUSH4 0x87522F79 EQ PUSH2 0x57 JUMPI JUMPDEST PUSH1 0x0 DUP1 REVERT JUMPDEST PUSH2 0x55 PUSH1 0x4 DUP1 CALLDATASIZE SUB DUP2 ADD SWAP1 PUSH2 0x50 SWAP2 SWAP1 PUSH2 0x3CE JUMP JUMPDEST PUSH2 0x78 JUMP JUMPDEST STOP JUMPDEST PUSH2 0x5F PUSH2 0xCB JUMP JUMPDEST PUSH1 0x40 MLOAD PUSH2 0x6F SWAP5 SWAP4 SWAP3 SWAP2 SWAP1 PUSH2 0x4FD JUMP JUMPDEST PUSH1 0x40 MLOAD DUP1 SWAP2 SUB SWAP1 RETURN JUMPDEST DUP4 PUSH1 0x0 SWAP1 DUP2 PUSH2 0x87 SWAP2 SWAP1 PUSH2 0x75F JUMP JUMPDEST POP DUP3 PUSH1 0x1 PUSH1 0x0 PUSH2 0x100 EXP DUP2 SLOAD DUP2 PUSH1 0xFF MUL NOT AND SWAP1 DUP4 PUSH1 0xF8 SHR MUL OR SWAP1 SSTORE POP DUP2 PUSH1 0x1 DUP1 PUSH2 0x100 EXP DUP2 SLOAD DUP2 PUSH2 0xFFFF MUL NOT AND SWAP1 DUP4 PUSH1 0xF0 SHR MUL OR SWAP1 SSTORE POP DUP1 PUSH1 0x2 DUP2 SWAP1 SSTORE POP POP POP POP POP JUMP JUMPDEST PUSH1 0x60 PUSH1 0x0 DUP1 PUSH1 0x0 DUP1 PUSH1 0x1 PUSH1 0x0 SWAP1 SLOAD SWAP1 PUSH2 0x100 EXP SWAP1 DIV PUSH1 0xF8 SHL PUSH1 0x1 DUP1 SLOAD SWAP1 PUSH2 0x100 EXP SWAP1 DIV PUSH1 0xF0 SHL PUSH1 0x2 SLOAD DUP4 DUP1 SLOAD PUSH2 0x100 SWAP1 PUSH2 0x578 JUMP JUMPDEST DUP1 PUSH1 0x1F ADD PUSH1 0x20 DUP1 SWAP2 DIV MUL PUSH1 0x20 ADD PUSH1 0x40 MLOAD SWAP1 DUP2 ADD PUSH1 0x40 MSTORE DUP1 SWAP3 SWAP2 SWAP1 DUP2 DUP2 MSTORE PUSH1 0x20 ADD DUP3 DUP1 SLOAD PUSH2 0x12C SWAP1 PUSH2 0x578 JUMP JUMPDEST DUP1 ISZERO PUSH2 0x179 JUMPI DUP1 PUSH1 0x1F LT PUSH2 0x14E JUMPI PUSH2 0x100 DUP1 DUP4 SLOAD DIV MUL DUP4 MSTORE SWAP2 PUSH1 0x20 ADD SWAP2 PUSH2 0x179 JUMP JUMPDEST DUP3 ADD SWAP2 SWAP1 PUSH1 0x0 MSTORE PUSH1 0x20 PUSH1 0x0 KECCAK256 SWAP1 JUMPDEST DUP2 SLOAD DUP2 MSTORE SWAP1 PUSH1 0x1 ADD SWAP1 PUSH1 0x20 ADD DUP1 DUP4 GT PUSH2 0x15C JUMPI DUP3 SWAP1 SUB PUSH1 0x1F AND DUP3 ADD SWAP2 JUMPDEST POP POP POP POP POP SWAP4 POP SWAP4 POP SWAP4 POP SWAP4 POP SWAP4 POP SWAP1 SWAP2 SWAP3 SWAP4 JUMP JUMPDEST PUSH1 0x0 PUSH1 0x40 MLOAD SWAP1 POP SWAP1 JUMP JUMPDEST PUSH1 0x0 DUP1 REVERT JUMPDEST PUSH1 0x0 DUP1 REVERT JUMPDEST PUSH1 0x0 DUP1 REVERT JUMPDEST PUSH1 0x0 DUP1 REVERT JUMPDEST PUSH1 0x0 PUSH1 0x1F NOT PUSH1 0x1F DUP4 ADD AND SWAP1 POP SWAP2 SWAP1 POP JUMP JUMPDEST PUSH32 0x4E487B7100000000000000000000000000000000000000000000000000000000 PUSH1 0x0 MSTORE PUSH1 0x41 PUSH1 0x4 MSTORE PUSH1 0x24 PUSH1 0x0 REVERT JUMPDEST PUSH2 0x1F5 DUP3 PUSH2 0x1AC JUMP JUMPDEST DUP2 ADD DUP2 DUP2 LT PUSH8 0xFFFFFFFFFFFFFFFF DUP3 GT OR ISZERO PUSH2 0x214 JUMPI PUSH2 0x213 PUSH2 0x1BD JUMP JUMPDEST JUMPDEST DUP1 PUSH1 0x40 MSTORE POP POP POP JUMP JUMPDEST PUSH1 0x0 PUSH2 0x227 PUSH2 0x18E JUMP JUMPDEST SWAP1 POP PUSH2 0x233 DUP3 DUP3 PUSH2 0x1EC JUMP JUMPDEST SWAP2 SWAP1 POP JUMP JUMPDEST PUSH1 0x0 PUSH8 0xFFFFFFFFFFFFFFFF DUP3 GT ISZERO PUSH2 0x253 JUMPI PUSH2 0x252 PUSH2 0x1BD JUMP JUMPDEST JUMPDEST PUSH2 0x25C DUP3 PUSH2 0x1AC JUMP JUMPDEST SWAP1 POP PUSH1 0x20 DUP2 ADD SWAP1 POP SWAP2 SWAP1 POP JUMP JUMPDEST DUP3 DUP2 DUP4 CALLDATACOPY PUSH1 0x0 DUP4 DUP4 ADD MSTORE POP POP POP JUMP JUMPDEST PUSH1 0x0 PUSH2 0x28B PUSH2 0x286 DUP5 PUSH2 0x238 JUMP JUMPDEST PUSH2 0x21D JUMP JUMPDEST SWAP1 POP DUP3 DUP2 MSTORE PUSH1 0x20 DUP2 ADD DUP5 DUP5 DUP5 ADD GT ISZERO PUSH2 0x2A7 JUMPI PUSH2 0x2A6 PUSH2 0x1A7 JUMP JUMPDEST JUMPDEST PUSH2 0x2B2 DUP5 DUP3 DUP6 PUSH2 0x269 JUMP JUMPDEST POP SWAP4 SWAP3 POP POP POP JUMP JUMPDEST PUSH1 0x0 DUP3 PUSH1 0x1F DUP4 ADD SLT PUSH2 0x2CF JUMPI PUSH2 0x2CE PUSH2 0x1A2 JUMP JUMPDEST JUMPDEST DUP2 CALLDATALOAD PUSH2 0x2DF DUP5 DUP3 PUSH1 0x20 DUP7 ADD PUSH2 0x278 JUMP JUMPDEST SWAP2 POP POP SWAP3 SWAP2 POP POP JUMP JUMPDEST PUSH1 0x0 PUSH32 0xFF00000000000000000000000000000000000000000000000000000000000000 DUP3 AND SWAP1 POP SWAP2 SWAP1 POP JUMP JUMPDEST PUSH2 0x31D DUP2 PUSH2 0x2E8 JUMP JUMPDEST DUP2 EQ PUSH2 0x328 JUMPI PUSH1 0x0 DUP1 REVERT JUMPDEST POP JUMP JUMPDEST PUSH1 0x0 DUP2 CALLDATALOAD SWAP1 POP PUSH2 0x33A DUP2 PUSH2 0x314 JUMP JUMPDEST SWAP3 SWAP2 POP POP JUMP JUMPDEST PUSH1 0x0 PUSH32 0xFFFF000000000000000000000000000000000000000000000000000000000000 DUP3 AND SWAP1 POP SWAP2 SWAP1 POP JUMP JUMPDEST PUSH2 0x375 DUP2 PUSH2 0x340 JUMP JUMPDEST DUP2 EQ PUSH2 0x380 JUMPI PUSH1 0x0 DUP1 REVERT JUMPDEST POP JUMP JUMPDEST PUSH1 0x0 DUP2 CALLDATALOAD SWAP1 POP PUSH2 0x392 DUP2 PUSH2 0x36C JUMP JUMPDEST SWAP3 SWAP2 POP POP JUMP JUMPDEST PUSH1 0x0 DUP2 SWAP1 POP SWAP2 SWAP1 POP JUMP JUMPDEST PUSH2 0x3AB DUP2 PUSH2 0x398 JUMP JUMPDEST DUP2 EQ PUSH2 0x3B6 JUMPI PUSH1 0x0 DUP1 REVERT JUMPDEST POP JUMP JUMPDEST PUSH1 0x0 DUP2 CALLDATALOAD SWAP1 POP PUSH2 0x3C8 DUP2 PUSH2 0x3A2 JUMP JUMPDEST SWAP3 SWAP2 POP POP JUMP JUMPDEST PUSH1 0x0 DUP1 PUSH1 0x0 DUP1 PUSH1 0x80 DUP6 DUP8 SUB SLT ISZERO PUSH2 0x3E8 JUMPI PUSH2 0x3E7 PUSH2 0x198 JUMP JUMPDEST JUMPDEST PUSH1 0x0 DUP6 ADD CALLDATALOAD PUSH8 0xFFFFFFFFFFFFFFFF DUP2 GT ISZERO PUSH2 0x406 JUMPI PUSH2 0x405 PUSH2 0x19D JUMP JUMPDEST JUMPDEST PUSH2 0x412 DUP8 DUP3 DUP9 ADD PUSH2 0x2BA JUMP JUMPDEST SWAP5 POP POP PUSH1 0x20 PUSH2 0x423 DUP8 DUP3 DUP9 ADD PUSH2 0x32B JUMP JUMPDEST SWAP4 POP POP PUSH1 0x40 PUSH2 0x434 DUP8 DUP3 DUP9 ADD PUSH2 0x383 JUMP JUMPDEST SWAP3 POP POP PUSH1 0x60 PUSH2 0x445 DUP8 DUP3 DUP9 ADD PUSH2 0x3B9 JUMP JUMPDEST SWAP2 POP POP SWAP3 SWAP6 SWAP2 SWAP5 POP SWAP3 POP JUMP JUMPDEST PUSH1 0x0 DUP2 MLOAD SWAP1 POP SWAP2 SWAP1 POP JUMP JUMPDEST PUSH1 0x0 DUP3 DUP3 MSTORE PUSH1 0x20 DUP3 ADD SWAP1 POP SWAP3 SWAP2 POP POP JUMP JUMPDEST PUSH1 0x0 JUMPDEST DUP4 DUP2 LT ISZERO PUSH2 0x48B JUMPI DUP1 DUP3 ADD MLOAD DUP2 DUP5 ADD MSTORE PUSH1 0x20 DUP2 ADD SWAP1 POP PUSH2 0x470 JUMP JUMPDEST PUSH1 0x0 DUP5 DUP5 ADD MSTORE POP POP POP POP JUMP JUMPDEST PUSH1 0x0 PUSH2 0x4A2 DUP3 PUSH2 0x451 JUMP JUMPDEST PUSH2 0x4AC DUP2 DUP6 PUSH2 0x45C JUMP JUMPDEST SWAP4 POP PUSH2 0x4BC DUP2 DUP6 PUSH1 0x20 DUP7 ADD PUSH2 0x46D JUMP JUMPDEST PUSH2 0x4C5 DUP2 PUSH2 0x1AC JUMP JUMPDEST DUP5 ADD SWAP2 POP POP SWAP3 SWAP2 POP POP JUMP JUMPDEST PUSH2 0x4D9 DUP2 PUSH2 0x2E8 JUMP JUMPDEST DUP3 MSTORE POP POP JUMP JUMPDEST PUSH2 0x4E8 DUP2 PUSH2 0x340 JUMP JUMPDEST DUP3 MSTORE POP POP JUMP JUMPDEST PUSH2 0x4F7 DUP2 PUSH2 0x398 JUMP JUMPDEST DUP3 MSTORE POP POP JUMP JUMPDEST PUSH1 0x0 PUSH1 0x80 DUP3 ADD SWAP1 POP DUP2 DUP2 SUB PUSH1 0x0 DUP4 ADD MSTORE PUSH2 0x517 DUP2 DUP8 PUSH2 0x497 JUMP JUMPDEST SWAP1 POP PUSH2 0x526 PUSH1 0x20 DUP4 ADD DUP7 PUSH2 0x4D0 JUMP JUMPDEST PUSH2 0x533 PUSH1 0x40 DUP4 ADD DUP6 PUSH2 0x4DF JUMP JUMPDEST PUSH2 0x540 PUSH1 0x60 DUP4 ADD DUP5 PUSH2 0x4EE JUMP JUMPDEST SWAP6 SWAP5 POP POP POP POP POP JUMP JUMPDEST PUSH32 0x4E487B7100000000000000000000000000000000000000000000000000000000 PUSH1 0x0 MSTORE PUSH1 0x22 PUSH1 0x4 MSTORE PUSH1 0x24 PUSH1 0x0 REVERT JUMPDEST PUSH1 0x0 PUSH1 0x2 DUP3 DIV SWAP1 POP PUSH1 0x1 DUP3 AND DUP1 PUSH2 0x590 JUMPI PUSH1 0x7F DUP3 AND SWAP2 POP JUMPDEST PUSH1 0x20 DUP3 LT DUP2 SUB PUSH2 0x5A3 JUMPI PUSH2 0x5A2 PUSH2 0x549 JUMP JUMPDEST JUMPDEST POP SWAP2 SWAP1 POP JUMP JUMPDEST PUSH1 0x0 DUP2 SWAP1 POP DUP2 PUSH1 0x0 MSTORE PUSH1 0x20 PUSH1 0x0 KECCAK256 SWAP1 POP SWAP2 SWAP1 POP JUMP JUMPDEST PUSH1 0x0 PUSH1 0x20 PUSH1 0x1F DUP4 ADD DIV SWAP1 POP SWAP2 SWAP1 POP JUMP JUMPDEST PUSH1 0x0 DUP3 DUP3 SHL SWAP1 POP SWAP3 SWAP2 POP POP JUMP JUMPDEST PUSH1 0x0 PUSH1 0x8 DUP4 MUL PUSH2 0x60B PUSH32 0xFFFFFFFFFFFFFFFFFFFFFFFFFFFFFFFFFFFFFFFFFFFFFFFFFFFFFFFFFFFFFFFF DUP3 PUSH2 0x5CE JUMP JUMPDEST PUSH2 0x615 DUP7 DUP4 PUSH2 0x5CE JUMP JUMPDEST SWAP6 POP DUP1 NOT DUP5 AND SWAP4 POP DUP1 DUP7 AND DUP5 OR SWAP3 POP POP POP SWAP4 SWAP3 POP POP POP JUMP JUMPDEST PUSH1 0x0 DUP2 SWAP1 POP SWAP2 SWAP1 POP JUMP JUMPDEST PUSH1 0x0 DUP2 SWAP1 POP SWAP2 SWAP1 POP JUMP JUMPDEST PUSH1 0x0 PUSH2 0x65C PUSH2 0x657 PUSH2 0x652 DUP5 PUSH2 0x62D JUMP JUMPDEST PUSH2 0x637 JUMP JUMPDEST PUSH2 0x62D JUMP JUMPDEST SWAP1 POP SWAP2 SWAP1 POP JUMP JUMPDEST PUSH1 0x0 DUP2 SWAP1 POP SWAP2 SWAP1 POP JUMP JUMPDEST PUSH2 0x676 DUP4 PUSH2 0x641 JUMP JUMPDEST PUSH2 0x68A PUSH2 0x682 DUP3 PUSH2 0x663 JUMP JUMPDEST DUP5 DUP5 SLOAD PUSH2 0x5DB JUMP JUMPDEST DUP3 SSTORE POP POP POP POP JUMP JUMPDEST PUSH1 0x0 SWAP1 JUMP JUMPDEST PUSH2 0x69F PUSH2 0x692 JUMP JUMPDEST PUSH2 0x6AA DUP2 DUP5 DUP5 PUSH2 0x66D JUMP JUMPDEST POP POP POP JUMP JUMPDEST JUMPDEST DUP2 DUP2 LT ISZERO PUSH2 0x6CE JUMPI PUSH2 0x6C3 PUSH1 0x0 DUP3 PUSH2 0x697 JUMP JUMPDEST PUSH1 0x1 DUP2 ADD SWAP1 POP PUSH2 0x6B0 JUMP JUMPDEST POP POP JUMP JUMPDEST PUSH1 0x1F DUP3 GT ISZERO PUSH2 0x713 JUMPI PUSH2 0x6E4 DUP2 PUSH2 0x5A9 JUMP JUMPDEST PUSH2 0x6ED DUP5 PUSH2 0x5BE JUMP JUMPDEST DUP2 ADD PUSH1 0x20 DUP6 LT ISZERO PUSH2 0x6FC JUMPI DUP2 SWAP1 POP JUMPDEST PUSH2 0x710 PUSH2 0x708 DUP6 PUSH2 0x5BE JUMP JUMPDEST DUP4 ADD DUP3 PUSH2 0x6AF JUMP JUMPDEST POP POP JUMPDEST POP POP POP JUMP JUMPDEST PUSH1 0x0 DUP3 DUP3 SHR SWAP1 POP SWAP3 SWAP2 POP POP JUMP JUMPDEST PUSH1 0x0 PUSH2 0x736 PUSH1 0x0 NOT DUP5 PUSH1 0x8 MUL PUSH2 0x718 JUMP JUMPDEST NOT DUP1 DUP4 AND SWAP2 POP POP SWAP3 SWAP2 POP POP JUMP JUMPDEST PUSH1 0x0 PUSH2 0x74F DUP4 DUP4 PUSH2 0x725 JUMP JUMPDEST SWAP2 POP DUP3 PUSH1 0x2 MUL DUP3 OR SWAP1 POP SWAP3 SWAP2 POP POP JUMP JUMPDEST PUSH2 0x768 DUP3 PUSH2 0x451 JUMP JUMPDEST PUSH8 0xFFFFFFFFFFFFFFFF DUP2 GT ISZERO PUSH2 0x781 JUMPI PUSH2 0x780 PUSH2 0x1BD JUMP JUMPDEST JUMPDEST PUSH2 0x78B DUP3 SLOAD PUSH2 0x578 JUMP JUMPDEST PUSH2 0x796 DUP3 DUP3 DUP6 PUSH2 0x6D2 JUMP JUMPDEST PUSH1 0x0 PUSH1 0x20 SWAP1 POP PUSH1 0x1F DUP4 GT PUSH1 0x1 DUP2 EQ PUSH2 0x7C9 JUMPI PUSH1 0x0 DUP5 ISZERO PUSH2 0x7B7 JUMPI DUP3 DUP8 ADD MLOAD SWAP1 POP JUMPDEST PUSH2 0x7C1 DUP6 DUP3 PUSH2 0x743 JUMP JUMPDEST DUP7 SSTORE POP PUSH2 0x829 JUMP JUMPDEST PUSH1 0x1F NOT DUP5 AND PUSH2 0x7D7 DUP7 PUSH2 0x5A9 JUMP JUMPDEST PUSH1 0x0 JUMPDEST DUP3 DUP2 LT ISZERO PUSH2 0x7FF JUMPI DUP5 DUP10 ADD MLOAD DUP3 SSTORE PUSH1 0x1 DUP3 ADD SWAP2 POP PUSH1 0x20 DUP6 ADD SWAP5 POP PUSH1 0x20 DUP2 ADD SWAP1 POP PUSH2 0x7DA JUMP JUMPDEST DUP7 DUP4 LT ISZERO PUSH2 0x81C JUMPI DUP5 DUP10 ADD MLOAD PUSH2 0x818 PUSH1 0x1F DUP10 AND DUP3 PUSH2 0x725 JUMP JUMPDEST DUP4 SSTORE POP JUMPDEST PUSH1 0x1 PUSH1 0x2 DUP9 MUL ADD DUP9 SSTORE POP POP POP JUMPDEST POP POP POP POP POP POP JUMP INVALID LOG2 PUSH5 0x6970667358 0x22 SLT KECCAK256 PUSH16 0xC7FB1BDF3D0570C48B0CE8C1D2CFF91F 0xEE 0xC5 0x25 DUP11 PUSH5 0x9CA1C5EA98 0xFC PUSH13 0x13B90D64736F6C634300081200 CALLER "
				},
				"gasEstimates": {
					"creation": {
						"codeDepositCost": "430200",
						"executionCost": "468",
						"totalCost": "430668"
					},
					"external": {
						"getABC()": "infinite",
						"setABC(bytes,bytes1,bytes2,bytes32)": "infinite"
					}
				},
				"methodIdentifiers": {
					"getABC()": "87522f79",
					"setABC(bytes,bytes1,bytes2,bytes32)": "79860ccf"
				}
			},
			"storageLayout": {
				"storage": [
					{
						"astId": 3,
						"contract": "contracts-lecture/230504-2.sol:BYTES",
						"label": "a",
						"offset": 0,
						"slot": "0",
						"type": "t_bytes_storage"
					},
					{
						"astId": 5,
						"contract": "contracts-lecture/230504-2.sol:BYTES",
						"label": "b",
						"offset": 0,
						"slot": "1",
						"type": "t_bytes1"
					},
					{
						"astId": 7,
						"contract": "contracts-lecture/230504-2.sol:BYTES",
						"label": "c",
						"offset": 1,
						"slot": "1",
						"type": "t_bytes2"
					},
					{
						"astId": 9,
						"contract": "contracts-lecture/230504-2.sol:BYTES",
						"label": "d",
						"offset": 0,
						"slot": "2",
						"type": "t_bytes32"
					}
				],
				"types": {
					"t_bytes1": {
						"encoding": "inplace",
						"label": "bytes1",
						"numberOfBytes": "1"
					},
					"t_bytes2": {
						"encoding": "inplace",
						"label": "bytes2",
						"numberOfBytes": "2"
					},
					"t_bytes32": {
						"encoding": "inplace",
						"label": "bytes32",
						"numberOfBytes": "32"
					},
					"t_bytes_storage": {
						"encoding": "bytes",
						"label": "bytes",
						"numberOfBytes": "32"
					}
				}
			},
			"userdoc": {
				"kind": "user",
				"methods": {},
				"version": 1
			}
		}
	}
}