{
	"contracts-lecture/230508-test.sol": {
		"note1": {
			"abi": [
				{
					"inputs": [
						{
							"internalType": "uint256",
							"name": "_n",
							"type": "uint256"
						}
					],
					"name": "getA",
					"outputs": [
						{
							"internalType": "uint256",
							"name": "",
							"type": "uint256"
						}
					],
					"stateMutability": "view",
					"type": "function"
				},
				{
					"inputs": [],
					"name": "getDD",
					"outputs": [
						{
							"components": [
								{
									"internalType": "uint256",
									"name": "a",
									"type": "uint256"
								},
								{
									"internalType": "string",
									"name": "b",
									"type": "string"
								},
								{
									"internalType": "bytes2",
									"name": "c",
									"type": "bytes2"
								}
							],
							"internalType": "struct note1.D",
							"name": "",
							"type": "tuple"
						}
					],
					"stateMutability": "view",
					"type": "function"
				},
				{
					"inputs": [],
					"name": "getLength",
					"outputs": [
						{
							"internalType": "uint256",
							"name": "",
							"type": "uint256"
						}
					],
					"stateMutability": "view",
					"type": "function"
				},
				{
					"inputs": [
						{
							"internalType": "uint256",
							"name": "_n",
							"type": "uint256"
						}
					],
					"name": "getN",
					"outputs": [
						{
							"components": [
								{
									"internalType": "uint256",
									"name": "a",
									"type": "uint256"
								},
								{
									"internalType": "string",
									"name": "b",
									"type": "string"
								},
								{
									"internalType": "bytes2",
									"name": "c",
									"type": "bytes2"
								}
							],
							"internalType": "struct note1.D",
							"name": "",
							"type": "tuple"
						}
					],
					"stateMutability": "view",
					"type": "function"
				},
				{
					"inputs": [
						{
							"internalType": "uint256",
							"name": "_a",
							"type": "uint256"
						},
						{
							"internalType": "string",
							"name": "_b",
							"type": "string"
						},
						{
							"internalType": "bytes2",
							"name": "_c",
							"type": "bytes2"
						}
					],
					"name": "pushD",
					"outputs": [],
					"stateMutability": "nonpayable",
					"type": "function"
				},
				{
					"inputs": [],
					"name": "pushD2",
					"outputs": [],
					"stateMutability": "nonpayable",
					"type": "function"
				},
				{
					"inputs": [
						{
							"internalType": "uint256",
							"name": "_a",
							"type": "uint256"
						},
						{
							"internalType": "string",
							"name": "_b",
							"type": "string"
						},
						{
							"internalType": "bytes2",
							"name": "_c",
							"type": "bytes2"
						}
					],
					"name": "setDD",
					"outputs": [],
					"stateMutability": "nonpayable",
					"type": "function"
				}
			],
			"devdoc": {
				"kind": "dev",
				"methods": {},
				"version": 1
			},
			"evm": {
				"assembly": "    /* \"contracts-lecture/230508-test.sol\":63:788  contract note1 {... */\n  mstore(0x40, 0x80)\n  callvalue\n  dup1\n  iszero\n  tag_1\n  jumpi\n  0x00\n  dup1\n  revert\ntag_1:\n  pop\n  dataSize(sub_0)\n  dup1\n  dataOffset(sub_0)\n  0x00\n  codecopy\n  0x00\n  return\nstop\n\nsub_0: assembly {\n        /* \"contracts-lecture/230508-test.sol\":63:788  contract note1 {... */\n      mstore(0x40, 0x80)\n      callvalue\n      dup1\n      iszero\n      tag_1\n      jumpi\n      0x00\n      dup1\n      revert\n    tag_1:\n      pop\n      jumpi(tag_2, lt(calldatasize, 0x04))\n      shr(0xe0, calldataload(0x00))\n      dup1\n      0x6db75504\n      gt\n      tag_10\n      jumpi\n      dup1\n      0x6db75504\n      eq\n      tag_6\n      jumpi\n      dup1\n      0xbe1c766b\n      eq\n      tag_7\n      jumpi\n      dup1\n      0xcd914def\n      eq\n      tag_8\n      jumpi\n      dup1\n      0xd82cf790\n      eq\n      tag_9\n      jumpi\n      jump(tag_2)\n    tag_10:\n      dup1\n      0x1908791c\n      eq\n      tag_3\n      jumpi\n      dup1\n      0x39139225\n      eq\n      tag_4\n      jumpi\n      dup1\n      0x626c525c\n      eq\n      tag_5\n      jumpi\n    tag_2:\n      0x00\n      dup1\n      revert\n        /* \"contracts-lecture/230508-test.sol\":169:264  function setDD(uint _a, string memory _b, bytes2 _c) public {... */\n    tag_3:\n      tag_11\n      0x04\n      dup1\n      calldatasize\n      sub\n      dup2\n      add\n      swap1\n      tag_12\n      swap2\n      swap1\n      tag_13\n      jump\t// in\n    tag_12:\n      tag_14\n      jump\t// in\n    tag_11:\n      stop\n        /* \"contracts-lecture/230508-test.sol\":612:697  function getN(uint _n) public view returns(D memory) {... */\n    tag_4:\n      tag_15\n      0x04\n      dup1\n      calldatasize\n      sub\n      dup2\n      add\n      swap1\n      tag_16\n      swap2\n      swap1\n      tag_17\n      jump\t// in\n    tag_16:\n      tag_18\n      jump\t// in\n    tag_15:\n      mload(0x40)\n      tag_19\n      swap2\n      swap1\n      tag_20\n      jump\t// in\n    tag_19:\n      mload(0x40)\n      dup1\n      swap2\n      sub\n      swap1\n      return\n        /* \"contracts-lecture/230508-test.sol\":270:343  function getDD() public view returns(D memory) {... */\n    tag_5:\n      tag_21\n      tag_22\n      jump\t// in\n    tag_21:\n      mload(0x40)\n      tag_23\n      swap2\n      swap1\n      tag_20\n      jump\t// in\n    tag_23:\n      mload(0x40)\n      dup1\n      swap2\n      sub\n      swap1\n      return\n        /* \"contracts-lecture/230508-test.sol\":467:520  function pushD2() public {... */\n    tag_6:\n      tag_24\n      tag_25\n      jump\t// in\n    tag_24:\n      stop\n        /* \"contracts-lecture/230508-test.sol\":526:606  function getLength() public view returns(uint) {... */\n    tag_7:\n      tag_26\n      tag_27\n      jump\t// in\n    tag_26:\n      mload(0x40)\n      tag_28\n      swap2\n      swap1\n      tag_29\n      jump\t// in\n    tag_28:\n      mload(0x40)\n      dup1\n      swap2\n      sub\n      swap1\n      return\n        /* \"contracts-lecture/230508-test.sol\":362:461  function pushD(uint _a, string memory _b, bytes2 _c) public {... */\n    tag_8:\n      tag_30\n      0x04\n      dup1\n      calldatasize\n      sub\n      dup2\n      add\n      swap1\n      tag_31\n      swap2\n      swap1\n      tag_13\n      jump\t// in\n    tag_31:\n      tag_32\n      jump\t// in\n    tag_30:\n      stop\n        /* \"contracts-lecture/230508-test.sol\":703:786  function getA(uint _n) public view returns(uint) {... */\n    tag_9:\n      tag_33\n      0x04\n      dup1\n      calldatasize\n      sub\n      dup2\n      add\n      swap1\n      tag_34\n      swap2\n      swap1\n      tag_17\n      jump\t// in\n    tag_34:\n      tag_35\n      jump\t// in\n    tag_33:\n      mload(0x40)\n      tag_36\n      swap2\n      swap1\n      tag_29\n      jump\t// in\n    tag_36:\n      mload(0x40)\n      dup1\n      swap2\n      sub\n      swap1\n      return\n        /* \"contracts-lecture/230508-test.sol\":169:264  function setDD(uint _a, string memory _b, bytes2 _c) public {... */\n    tag_14:\n        /* \"contracts-lecture/230508-test.sol\":244:257  D(_a, _b, _c) */\n      mload(0x40)\n      dup1\n      0x60\n      add\n      0x40\n      mstore\n      dup1\n        /* \"contracts-lecture/230508-test.sol\":246:248  _a */\n      dup5\n        /* \"contracts-lecture/230508-test.sol\":244:257  D(_a, _b, _c) */\n      dup2\n      mstore\n      0x20\n      add\n        /* \"contracts-lecture/230508-test.sol\":250:252  _b */\n      dup4\n        /* \"contracts-lecture/230508-test.sol\":244:257  D(_a, _b, _c) */\n      dup2\n      mstore\n      0x20\n      add\n        /* \"contracts-lecture/230508-test.sol\":254:256  _c */\n      dup3\n        /* \"contracts-lecture/230508-test.sol\":244:257  D(_a, _b, _c) */\n      not(0xffffffffffffffffffffffffffffffffffffffffffffffffffffffffffff)\n      and\n      dup2\n      mstore\n      pop\n        /* \"contracts-lecture/230508-test.sol\":239:241  dd */\n      0x00\n        /* \"contracts-lecture/230508-test.sol\":239:257  dd = D(_a, _b, _c) */\n      dup1\n      dup3\n      add\n      mload\n      dup2\n      0x00\n      add\n      sstore\n      0x20\n      dup3\n      add\n      mload\n      dup2\n      0x01\n      add\n      swap1\n      dup2\n      tag_38\n      swap2\n      swap1\n      tag_39\n      jump\t// in\n    tag_38:\n      pop\n      0x40\n      dup3\n      add\n      mload\n      dup2\n      0x02\n      add\n      exp(0x0100, 0x00)\n      dup2\n      sload\n      dup2\n      0xffff\n      mul\n      not\n      and\n      swap1\n      dup4\n      0xf0\n      shr\n      mul\n      or\n      swap1\n      sstore\n      pop\n      swap1\n      pop\n      pop\n        /* \"contracts-lecture/230508-test.sol\":169:264  function setDD(uint _a, string memory _b, bytes2 _c) public {... */\n      pop\n      pop\n      pop\n      jump\t// out\n        /* \"contracts-lecture/230508-test.sol\":612:697  function getN(uint _n) public view returns(D memory) {... */\n    tag_18:\n        /* \"contracts-lecture/230508-test.sol\":655:663  D memory */\n      tag_40\n      tag_41\n      jump\t// in\n    tag_40:\n        /* \"contracts-lecture/230508-test.sol\":682:684  Ds */\n      0x03\n        /* \"contracts-lecture/230508-test.sol\":688:689  1 */\n      0x01\n        /* \"contracts-lecture/230508-test.sol\":685:687  _n */\n      dup4\n        /* \"contracts-lecture/230508-test.sol\":685:689  _n-1 */\n      tag_43\n      swap2\n      swap1\n      tag_44\n      jump\t// in\n    tag_43:\n        /* \"contracts-lecture/230508-test.sol\":682:690  Ds[_n-1] */\n      dup2\n      sload\n      dup2\n      lt\n      tag_45\n      jumpi\n      tag_46\n      tag_47\n      jump\t// in\n    tag_46:\n    tag_45:\n      swap1\n      0x00\n      mstore\n      keccak256(0x00, 0x20)\n      swap1\n      0x03\n      mul\n      add\n        /* \"contracts-lecture/230508-test.sol\":675:690  return Ds[_n-1] */\n      mload(0x40)\n      dup1\n      0x60\n      add\n      0x40\n      mstore\n      swap1\n      dup2\n      0x00\n      dup3\n      add\n      sload\n      dup2\n      mstore\n      0x20\n      add\n      0x01\n      dup3\n      add\n      dup1\n      sload\n      tag_49\n      swap1\n      tag_50\n      jump\t// in\n    tag_49:\n      dup1\n      0x1f\n      add\n      0x20\n      dup1\n      swap2\n      div\n      mul\n      0x20\n      add\n      mload(0x40)\n      swap1\n      dup2\n      add\n      0x40\n      mstore\n      dup1\n      swap3\n      swap2\n      swap1\n      dup2\n      dup2\n      mstore\n      0x20\n      add\n      dup3\n      dup1\n      sload\n      tag_51\n      swap1\n      tag_50\n      jump\t// in\n    tag_51:\n      dup1\n      iszero\n      tag_52\n      jumpi\n      dup1\n      0x1f\n      lt\n      tag_53\n      jumpi\n      0x0100\n      dup1\n      dup4\n      sload\n      div\n      mul\n      dup4\n      mstore\n      swap2\n      0x20\n      add\n      swap2\n      jump(tag_52)\n    tag_53:\n      dup3\n      add\n      swap2\n      swap1\n      0x00\n      mstore\n      keccak256(0x00, 0x20)\n      swap1\n    tag_54:\n      dup2\n      sload\n      dup2\n      mstore\n      swap1\n      0x01\n      add\n      swap1\n      0x20\n      add\n      dup1\n      dup4\n      gt\n      tag_54\n      jumpi\n      dup3\n      swap1\n      sub\n      0x1f\n      and\n      dup3\n      add\n      swap2\n    tag_52:\n      pop\n      pop\n      pop\n      pop\n      pop\n      dup2\n      mstore\n      0x20\n      add\n      0x02\n      dup3\n      add\n      0x00\n      swap1\n      sload\n      swap1\n      0x0100\n      exp\n      swap1\n      div\n      0xf0\n      shl\n      not(0xffffffffffffffffffffffffffffffffffffffffffffffffffffffffffff)\n      and\n      not(0xffffffffffffffffffffffffffffffffffffffffffffffffffffffffffff)\n      and\n      dup2\n      mstore\n      pop\n      pop\n      swap1\n      pop\n        /* \"contracts-lecture/230508-test.sol\":612:697  function getN(uint _n) public view returns(D memory) {... */\n      swap2\n      swap1\n      pop\n      jump\t// out\n        /* \"contracts-lecture/230508-test.sol\":270:343  function getDD() public view returns(D memory) {... */\n    tag_22:\n        /* \"contracts-lecture/230508-test.sol\":307:315  D memory */\n      tag_55\n      tag_41\n      jump\t// in\n    tag_55:\n        /* \"contracts-lecture/230508-test.sol\":334:336  dd */\n      0x00\n        /* \"contracts-lecture/230508-test.sol\":327:336  return dd */\n      mload(0x40)\n      dup1\n      0x60\n      add\n      0x40\n      mstore\n      swap1\n      dup2\n      0x00\n      dup3\n      add\n      sload\n      dup2\n      mstore\n      0x20\n      add\n      0x01\n      dup3\n      add\n      dup1\n      sload\n      tag_57\n      swap1\n      tag_50\n      jump\t// in\n    tag_57:\n      dup1\n      0x1f\n      add\n      0x20\n      dup1\n      swap2\n      div\n      mul\n      0x20\n      add\n      mload(0x40)\n      swap1\n      dup2\n      add\n      0x40\n      mstore\n      dup1\n      swap3\n      swap2\n      swap1\n      dup2\n      dup2\n      mstore\n      0x20\n      add\n      dup3\n      dup1\n      sload\n      tag_58\n      swap1\n      tag_50\n      jump\t// in\n    tag_58:\n      dup1\n      iszero\n      tag_59\n      jumpi\n      dup1\n      0x1f\n      lt\n      tag_60\n      jumpi\n      0x0100\n      dup1\n      dup4\n      sload\n      div\n      mul\n      dup4\n      mstore\n      swap2\n      0x20\n      add\n      swap2\n      jump(tag_59)\n    tag_60:\n      dup3\n      add\n      swap2\n      swap1\n      0x00\n      mstore\n      keccak256(0x00, 0x20)\n      swap1\n    tag_61:\n      dup2\n      sload\n      dup2\n      mstore\n      swap1\n      0x01\n      add\n      swap1\n      0x20\n      add\n      dup1\n      dup4\n      gt\n      tag_61\n      jumpi\n      dup3\n      swap1\n      sub\n      0x1f\n      and\n      dup3\n      add\n      swap2\n    tag_59:\n      pop\n      pop\n      pop\n      pop\n      pop\n      dup2\n      mstore\n      0x20\n      add\n      0x02\n      dup3\n      add\n      0x00\n      swap1\n      sload\n      swap1\n      0x0100\n      exp\n      swap1\n      div\n      0xf0\n      shl\n      not(0xffffffffffffffffffffffffffffffffffffffffffffffffffffffffffff)\n      and\n      not(0xffffffffffffffffffffffffffffffffffffffffffffffffffffffffffff)\n      and\n      dup2\n      mstore\n      pop\n      pop\n      swap1\n      pop\n        /* \"contracts-lecture/230508-test.sol\":270:343  function getDD() public view returns(D memory) {... */\n      swap1\n      jump\t// out\n        /* \"contracts-lecture/230508-test.sol\":467:520  function pushD2() public {... */\n    tag_25:\n        /* \"contracts-lecture/230508-test.sol\":502:504  Ds */\n      0x03\n        /* \"contracts-lecture/230508-test.sol\":510:512  dd */\n      0x00\n        /* \"contracts-lecture/230508-test.sol\":502:513  Ds.push(dd) */\n      swap1\n      dup1\n      0x01\n      dup2\n      sload\n      add\n      dup1\n      dup3\n      sstore\n      dup1\n      swap2\n      pop\n      pop\n      0x01\n      swap1\n      sub\n      swap1\n      0x00\n      mstore\n      keccak256(0x00, 0x20)\n      swap1\n      0x03\n      mul\n      add\n      0x00\n      swap1\n      swap2\n      swap1\n      swap2\n      swap1\n      swap2\n      pop\n      0x00\n      dup3\n      add\n      sload\n      dup2\n      0x00\n      add\n      sstore\n      0x01\n      dup3\n      add\n      dup2\n      0x01\n      add\n      swap1\n      dup2\n      tag_64\n      swap2\n      swap1\n      tag_65\n      jump\t// in\n    tag_64:\n      pop\n      0x02\n      dup3\n      add\n      0x00\n      swap1\n      sload\n      swap1\n      0x0100\n      exp\n      swap1\n      div\n      0xf0\n      shl\n      dup2\n      0x02\n      add\n      exp(0x0100, 0x00)\n      dup2\n      sload\n      dup2\n      0xffff\n      mul\n      not\n      and\n      swap1\n      dup4\n      0xf0\n      shr\n      mul\n      or\n      swap1\n      sstore\n      pop\n      pop\n      pop\n        /* \"contracts-lecture/230508-test.sol\":467:520  function pushD2() public {... */\n      jump\t// out\n        /* \"contracts-lecture/230508-test.sol\":526:606  function getLength() public view returns(uint) {... */\n    tag_27:\n        /* \"contracts-lecture/230508-test.sol\":567:571  uint */\n      0x00\n        /* \"contracts-lecture/230508-test.sol\":590:592  Ds */\n      0x03\n        /* \"contracts-lecture/230508-test.sol\":590:599  Ds.length */\n      dup1\n      sload\n      swap1\n      pop\n        /* \"contracts-lecture/230508-test.sol\":583:599  return Ds.length */\n      swap1\n      pop\n        /* \"contracts-lecture/230508-test.sol\":526:606  function getLength() public view returns(uint) {... */\n      swap1\n      jump\t// out\n        /* \"contracts-lecture/230508-test.sol\":362:461  function pushD(uint _a, string memory _b, bytes2 _c) public {... */\n    tag_32:\n        /* \"contracts-lecture/230508-test.sol\":432:434  Ds */\n      0x03\n        /* \"contracts-lecture/230508-test.sol\":440:453  D(_a, _b, _c) */\n      mload(0x40)\n      dup1\n      0x60\n      add\n      0x40\n      mstore\n      dup1\n        /* \"contracts-lecture/230508-test.sol\":442:444  _a */\n      dup6\n        /* \"contracts-lecture/230508-test.sol\":440:453  D(_a, _b, _c) */\n      dup2\n      mstore\n      0x20\n      add\n        /* \"contracts-lecture/230508-test.sol\":446:448  _b */\n      dup5\n        /* \"contracts-lecture/230508-test.sol\":440:453  D(_a, _b, _c) */\n      dup2\n      mstore\n      0x20\n      add\n        /* \"contracts-lecture/230508-test.sol\":450:452  _c */\n      dup4\n        /* \"contracts-lecture/230508-test.sol\":440:453  D(_a, _b, _c) */\n      not(0xffffffffffffffffffffffffffffffffffffffffffffffffffffffffffff)\n      and\n      dup2\n      mstore\n      pop\n        /* \"contracts-lecture/230508-test.sol\":432:454  Ds.push(D(_a, _b, _c)) */\n      swap1\n      dup1\n      0x01\n      dup2\n      sload\n      add\n      dup1\n      dup3\n      sstore\n      dup1\n      swap2\n      pop\n      pop\n      0x01\n      swap1\n      sub\n      swap1\n      0x00\n      mstore\n      keccak256(0x00, 0x20)\n      swap1\n      0x03\n      mul\n      add\n      0x00\n      swap1\n      swap2\n      swap1\n      swap2\n      swap1\n      swap2\n      pop\n      0x00\n      dup3\n      add\n      mload\n      dup2\n      0x00\n      add\n      sstore\n      0x20\n      dup3\n      add\n      mload\n      dup2\n      0x01\n      add\n      swap1\n      dup2\n      tag_69\n      swap2\n      swap1\n      tag_39\n      jump\t// in\n    tag_69:\n      pop\n      0x40\n      dup3\n      add\n      mload\n      dup2\n      0x02\n      add\n      exp(0x0100, 0x00)\n      dup2\n      sload\n      dup2\n      0xffff\n      mul\n      not\n      and\n      swap1\n      dup4\n      0xf0\n      shr\n      mul\n      or\n      swap1\n      sstore\n      pop\n      pop\n      pop\n        /* \"contracts-lecture/230508-test.sol\":362:461  function pushD(uint _a, string memory _b, bytes2 _c) public {... */\n      pop\n      pop\n      pop\n      jump\t// out\n        /* \"contracts-lecture/230508-test.sol\":703:786  function getA(uint _n) public view returns(uint) {... */\n    tag_35:\n        /* \"contracts-lecture/230508-test.sol\":746:750  uint */\n      0x00\n        /* \"contracts-lecture/230508-test.sol\":769:771  Ds */\n      0x03\n        /* \"contracts-lecture/230508-test.sol\":775:776  1 */\n      0x01\n        /* \"contracts-lecture/230508-test.sol\":772:774  _n */\n      dup4\n        /* \"contracts-lecture/230508-test.sol\":772:776  _n-1 */\n      tag_71\n      swap2\n      swap1\n      tag_44\n      jump\t// in\n    tag_71:\n        /* \"contracts-lecture/230508-test.sol\":769:777  Ds[_n-1] */\n      dup2\n      sload\n      dup2\n      lt\n      tag_72\n      jumpi\n      tag_73\n      tag_47\n      jump\t// in\n    tag_73:\n    tag_72:\n      swap1\n      0x00\n      mstore\n      keccak256(0x00, 0x20)\n      swap1\n      0x03\n      mul\n      add\n        /* \"contracts-lecture/230508-test.sol\":769:779  Ds[_n-1].a */\n      0x00\n      add\n      sload\n        /* \"contracts-lecture/230508-test.sol\":762:779  return Ds[_n-1].a */\n      swap1\n      pop\n        /* \"contracts-lecture/230508-test.sol\":703:786  function getA(uint _n) public view returns(uint) {... */\n      swap2\n      swap1\n      pop\n      jump\t// out\n    tag_41:\n      mload(0x40)\n      dup1\n      0x60\n      add\n      0x40\n      mstore\n      dup1\n      0x00\n      dup2\n      mstore\n      0x20\n      add\n      0x60\n      dup2\n      mstore\n      0x20\n      add\n      and(not(0xffffffffffffffffffffffffffffffffffffffffffffffffffffffffffff), 0x00)\n      dup2\n      mstore\n      pop\n      swap1\n      jump\t// out\n        /* \"#utility.yul\":7:82   */\n    tag_75:\n        /* \"#utility.yul\":40:46   */\n      0x00\n        /* \"#utility.yul\":73:75   */\n      0x40\n        /* \"#utility.yul\":67:76   */\n      mload\n        /* \"#utility.yul\":57:76   */\n      swap1\n      pop\n        /* \"#utility.yul\":7:82   */\n      swap1\n      jump\t// out\n        /* \"#utility.yul\":88:205   */\n    tag_76:\n        /* \"#utility.yul\":197:198   */\n      0x00\n        /* \"#utility.yul\":194:195   */\n      dup1\n        /* \"#utility.yul\":187:199   */\n      revert\n        /* \"#utility.yul\":211:328   */\n    tag_77:\n        /* \"#utility.yul\":320:321   */\n      0x00\n        /* \"#utility.yul\":317:318   */\n      dup1\n        /* \"#utility.yul\":310:322   */\n      revert\n        /* \"#utility.yul\":334:411   */\n    tag_78:\n        /* \"#utility.yul\":371:378   */\n      0x00\n        /* \"#utility.yul\":400:405   */\n      dup2\n        /* \"#utility.yul\":389:405   */\n      swap1\n      pop\n        /* \"#utility.yul\":334:411   */\n      swap2\n      swap1\n      pop\n      jump\t// out\n        /* \"#utility.yul\":417:539   */\n    tag_79:\n        /* \"#utility.yul\":490:514   */\n      tag_126\n        /* \"#utility.yul\":508:513   */\n      dup2\n        /* \"#utility.yul\":490:514   */\n      tag_78\n      jump\t// in\n    tag_126:\n        /* \"#utility.yul\":483:488   */\n      dup2\n        /* \"#utility.yul\":480:515   */\n      eq\n        /* \"#utility.yul\":470:533   */\n      tag_127\n      jumpi\n        /* \"#utility.yul\":529:530   */\n      0x00\n        /* \"#utility.yul\":526:527   */\n      dup1\n        /* \"#utility.yul\":519:531   */\n      revert\n        /* \"#utility.yul\":470:533   */\n    tag_127:\n        /* \"#utility.yul\":417:539   */\n      pop\n      jump\t// out\n        /* \"#utility.yul\":545:684   */\n    tag_80:\n        /* \"#utility.yul\":591:596   */\n      0x00\n        /* \"#utility.yul\":629:635   */\n      dup2\n        /* \"#utility.yul\":616:636   */\n      calldataload\n        /* \"#utility.yul\":607:636   */\n      swap1\n      pop\n        /* \"#utility.yul\":645:678   */\n      tag_129\n        /* \"#utility.yul\":672:677   */\n      dup2\n        /* \"#utility.yul\":645:678   */\n      tag_79\n      jump\t// in\n    tag_129:\n        /* \"#utility.yul\":545:684   */\n      swap3\n      swap2\n      pop\n      pop\n      jump\t// out\n        /* \"#utility.yul\":690:807   */\n    tag_81:\n        /* \"#utility.yul\":799:800   */\n      0x00\n        /* \"#utility.yul\":796:797   */\n      dup1\n        /* \"#utility.yul\":789:801   */\n      revert\n        /* \"#utility.yul\":813:930   */\n    tag_82:\n        /* \"#utility.yul\":922:923   */\n      0x00\n        /* \"#utility.yul\":919:920   */\n      dup1\n        /* \"#utility.yul\":912:924   */\n      revert\n        /* \"#utility.yul\":936:1038   */\n    tag_83:\n        /* \"#utility.yul\":977:983   */\n      0x00\n        /* \"#utility.yul\":1028:1030   */\n      0x1f\n        /* \"#utility.yul\":1024:1031   */\n      not\n        /* \"#utility.yul\":1019:1021   */\n      0x1f\n        /* \"#utility.yul\":1012:1017   */\n      dup4\n        /* \"#utility.yul\":1008:1022   */\n      add\n        /* \"#utility.yul\":1004:1032   */\n      and\n        /* \"#utility.yul\":994:1032   */\n      swap1\n      pop\n        /* \"#utility.yul\":936:1038   */\n      swap2\n      swap1\n      pop\n      jump\t// out\n        /* \"#utility.yul\":1044:1224   */\n    tag_84:\n        /* \"#utility.yul\":1092:1169   */\n      0x4e487b7100000000000000000000000000000000000000000000000000000000\n        /* \"#utility.yul\":1089:1090   */\n      0x00\n        /* \"#utility.yul\":1082:1170   */\n      mstore\n        /* \"#utility.yul\":1189:1193   */\n      0x41\n        /* \"#utility.yul\":1186:1187   */\n      0x04\n        /* \"#utility.yul\":1179:1194   */\n      mstore\n        /* \"#utility.yul\":1213:1217   */\n      0x24\n        /* \"#utility.yul\":1210:1211   */\n      0x00\n        /* \"#utility.yul\":1203:1218   */\n      revert\n        /* \"#utility.yul\":1230:1511   */\n    tag_85:\n        /* \"#utility.yul\":1313:1340   */\n      tag_135\n        /* \"#utility.yul\":1335:1339   */\n      dup3\n        /* \"#utility.yul\":1313:1340   */\n      tag_83\n      jump\t// in\n    tag_135:\n        /* \"#utility.yul\":1305:1311   */\n      dup2\n        /* \"#utility.yul\":1301:1341   */\n      add\n        /* \"#utility.yul\":1443:1449   */\n      dup2\n        /* \"#utility.yul\":1431:1441   */\n      dup2\n        /* \"#utility.yul\":1428:1450   */\n      lt\n        /* \"#utility.yul\":1407:1425   */\n      0xffffffffffffffff\n        /* \"#utility.yul\":1395:1405   */\n      dup3\n        /* \"#utility.yul\":1392:1426   */\n      gt\n        /* \"#utility.yul\":1389:1451   */\n      or\n        /* \"#utility.yul\":1386:1474   */\n      iszero\n      tag_136\n      jumpi\n        /* \"#utility.yul\":1454:1472   */\n      tag_137\n      tag_84\n      jump\t// in\n    tag_137:\n        /* \"#utility.yul\":1386:1474   */\n    tag_136:\n        /* \"#utility.yul\":1494:1504   */\n      dup1\n        /* \"#utility.yul\":1490:1492   */\n      0x40\n        /* \"#utility.yul\":1483:1505   */\n      mstore\n        /* \"#utility.yul\":1273:1511   */\n      pop\n        /* \"#utility.yul\":1230:1511   */\n      pop\n      pop\n      jump\t// out\n        /* \"#utility.yul\":1517:1646   */\n    tag_86:\n        /* \"#utility.yul\":1551:1557   */\n      0x00\n        /* \"#utility.yul\":1578:1598   */\n      tag_139\n      tag_75\n      jump\t// in\n    tag_139:\n        /* \"#utility.yul\":1568:1598   */\n      swap1\n      pop\n        /* \"#utility.yul\":1607:1640   */\n      tag_140\n        /* \"#utility.yul\":1635:1639   */\n      dup3\n        /* \"#utility.yul\":1627:1633   */\n      dup3\n        /* \"#utility.yul\":1607:1640   */\n      tag_85\n      jump\t// in\n    tag_140:\n        /* \"#utility.yul\":1517:1646   */\n      swap2\n      swap1\n      pop\n      jump\t// out\n        /* \"#utility.yul\":1652:1960   */\n    tag_87:\n        /* \"#utility.yul\":1714:1718   */\n      0x00\n        /* \"#utility.yul\":1804:1822   */\n      0xffffffffffffffff\n        /* \"#utility.yul\":1796:1802   */\n      dup3\n        /* \"#utility.yul\":1793:1823   */\n      gt\n        /* \"#utility.yul\":1790:1846   */\n      iszero\n      tag_142\n      jumpi\n        /* \"#utility.yul\":1826:1844   */\n      tag_143\n      tag_84\n      jump\t// in\n    tag_143:\n        /* \"#utility.yul\":1790:1846   */\n    tag_142:\n        /* \"#utility.yul\":1864:1893   */\n      tag_144\n        /* \"#utility.yul\":1886:1892   */\n      dup3\n        /* \"#utility.yul\":1864:1893   */\n      tag_83\n      jump\t// in\n    tag_144:\n        /* \"#utility.yul\":1856:1893   */\n      swap1\n      pop\n        /* \"#utility.yul\":1948:1952   */\n      0x20\n        /* \"#utility.yul\":1942:1946   */\n      dup2\n        /* \"#utility.yul\":1938:1953   */\n      add\n        /* \"#utility.yul\":1930:1953   */\n      swap1\n      pop\n        /* \"#utility.yul\":1652:1960   */\n      swap2\n      swap1\n      pop\n      jump\t// out\n        /* \"#utility.yul\":1966:2112   */\n    tag_88:\n        /* \"#utility.yul\":2063:2069   */\n      dup3\n        /* \"#utility.yul\":2058:2061   */\n      dup2\n        /* \"#utility.yul\":2053:2056   */\n      dup4\n        /* \"#utility.yul\":2040:2070   */\n      calldatacopy\n        /* \"#utility.yul\":2104:2105   */\n      0x00\n        /* \"#utility.yul\":2095:2101   */\n      dup4\n        /* \"#utility.yul\":2090:2093   */\n      dup4\n        /* \"#utility.yul\":2086:2102   */\n      add\n        /* \"#utility.yul\":2079:2106   */\n      mstore\n        /* \"#utility.yul\":1966:2112   */\n      pop\n      pop\n      pop\n      jump\t// out\n        /* \"#utility.yul\":2118:2543   */\n    tag_89:\n        /* \"#utility.yul\":2196:2201   */\n      0x00\n        /* \"#utility.yul\":2221:2287   */\n      tag_147\n        /* \"#utility.yul\":2237:2286   */\n      tag_148\n        /* \"#utility.yul\":2279:2285   */\n      dup5\n        /* \"#utility.yul\":2237:2286   */\n      tag_87\n      jump\t// in\n    tag_148:\n        /* \"#utility.yul\":2221:2287   */\n      tag_86\n      jump\t// in\n    tag_147:\n        /* \"#utility.yul\":2212:2287   */\n      swap1\n      pop\n        /* \"#utility.yul\":2310:2316   */\n      dup3\n        /* \"#utility.yul\":2303:2308   */\n      dup2\n        /* \"#utility.yul\":2296:2317   */\n      mstore\n        /* \"#utility.yul\":2348:2352   */\n      0x20\n        /* \"#utility.yul\":2341:2346   */\n      dup2\n        /* \"#utility.yul\":2337:2353   */\n      add\n        /* \"#utility.yul\":2386:2389   */\n      dup5\n        /* \"#utility.yul\":2377:2383   */\n      dup5\n        /* \"#utility.yul\":2372:2375   */\n      dup5\n        /* \"#utility.yul\":2368:2384   */\n      add\n        /* \"#utility.yul\":2365:2390   */\n      gt\n        /* \"#utility.yul\":2362:2474   */\n      iszero\n      tag_149\n      jumpi\n        /* \"#utility.yul\":2393:2472   */\n      tag_150\n      tag_82\n      jump\t// in\n    tag_150:\n        /* \"#utility.yul\":2362:2474   */\n    tag_149:\n        /* \"#utility.yul\":2483:2537   */\n      tag_151\n        /* \"#utility.yul\":2530:2536   */\n      dup5\n        /* \"#utility.yul\":2525:2528   */\n      dup3\n        /* \"#utility.yul\":2520:2523   */\n      dup6\n        /* \"#utility.yul\":2483:2537   */\n      tag_88\n      jump\t// in\n    tag_151:\n        /* \"#utility.yul\":2202:2543   */\n      pop\n        /* \"#utility.yul\":2118:2543   */\n      swap4\n      swap3\n      pop\n      pop\n      pop\n      jump\t// out\n        /* \"#utility.yul\":2563:2903   */\n    tag_90:\n        /* \"#utility.yul\":2619:2624   */\n      0x00\n        /* \"#utility.yul\":2668:2671   */\n      dup3\n        /* \"#utility.yul\":2661:2665   */\n      0x1f\n        /* \"#utility.yul\":2653:2659   */\n      dup4\n        /* \"#utility.yul\":2649:2666   */\n      add\n        /* \"#utility.yul\":2645:2672   */\n      slt\n        /* \"#utility.yul\":2635:2757   */\n      tag_153\n      jumpi\n        /* \"#utility.yul\":2676:2755   */\n      tag_154\n      tag_81\n      jump\t// in\n    tag_154:\n        /* \"#utility.yul\":2635:2757   */\n    tag_153:\n        /* \"#utility.yul\":2793:2799   */\n      dup2\n        /* \"#utility.yul\":2780:2800   */\n      calldataload\n        /* \"#utility.yul\":2818:2897   */\n      tag_155\n        /* \"#utility.yul\":2893:2896   */\n      dup5\n        /* \"#utility.yul\":2885:2891   */\n      dup3\n        /* \"#utility.yul\":2878:2882   */\n      0x20\n        /* \"#utility.yul\":2870:2876   */\n      dup7\n        /* \"#utility.yul\":2866:2883   */\n      add\n        /* \"#utility.yul\":2818:2897   */\n      tag_89\n      jump\t// in\n    tag_155:\n        /* \"#utility.yul\":2809:2897   */\n      swap2\n      pop\n        /* \"#utility.yul\":2625:2903   */\n      pop\n        /* \"#utility.yul\":2563:2903   */\n      swap3\n      swap2\n      pop\n      pop\n      jump\t// out\n        /* \"#utility.yul\":2909:3058   */\n    tag_91:\n        /* \"#utility.yul\":2945:2952   */\n      0x00\n        /* \"#utility.yul\":2985:3051   */\n      0xffff000000000000000000000000000000000000000000000000000000000000\n        /* \"#utility.yul\":2978:2983   */\n      dup3\n        /* \"#utility.yul\":2974:3052   */\n      and\n        /* \"#utility.yul\":2963:3052   */\n      swap1\n      pop\n        /* \"#utility.yul\":2909:3058   */\n      swap2\n      swap1\n      pop\n      jump\t// out\n        /* \"#utility.yul\":3064:3184   */\n    tag_92:\n        /* \"#utility.yul\":3136:3159   */\n      tag_158\n        /* \"#utility.yul\":3153:3158   */\n      dup2\n        /* \"#utility.yul\":3136:3159   */\n      tag_91\n      jump\t// in\n    tag_158:\n        /* \"#utility.yul\":3129:3134   */\n      dup2\n        /* \"#utility.yul\":3126:3160   */\n      eq\n        /* \"#utility.yul\":3116:3178   */\n      tag_159\n      jumpi\n        /* \"#utility.yul\":3174:3175   */\n      0x00\n        /* \"#utility.yul\":3171:3172   */\n      dup1\n        /* \"#utility.yul\":3164:3176   */\n      revert\n        /* \"#utility.yul\":3116:3178   */\n    tag_159:\n        /* \"#utility.yul\":3064:3184   */\n      pop\n      jump\t// out\n        /* \"#utility.yul\":3190:3327   */\n    tag_93:\n        /* \"#utility.yul\":3235:3240   */\n      0x00\n        /* \"#utility.yul\":3273:3279   */\n      dup2\n        /* \"#utility.yul\":3260:3280   */\n      calldataload\n        /* \"#utility.yul\":3251:3280   */\n      swap1\n      pop\n        /* \"#utility.yul\":3289:3321   */\n      tag_161\n        /* \"#utility.yul\":3315:3320   */\n      dup2\n        /* \"#utility.yul\":3289:3321   */\n      tag_92\n      jump\t// in\n    tag_161:\n        /* \"#utility.yul\":3190:3327   */\n      swap3\n      swap2\n      pop\n      pop\n      jump\t// out\n        /* \"#utility.yul\":3333:4130   */\n    tag_13:\n        /* \"#utility.yul\":3419:3425   */\n      0x00\n        /* \"#utility.yul\":3427:3433   */\n      dup1\n        /* \"#utility.yul\":3435:3441   */\n      0x00\n        /* \"#utility.yul\":3484:3486   */\n      0x60\n        /* \"#utility.yul\":3472:3481   */\n      dup5\n        /* \"#utility.yul\":3463:3470   */\n      dup7\n        /* \"#utility.yul\":3459:3482   */\n      sub\n        /* \"#utility.yul\":3455:3487   */\n      slt\n        /* \"#utility.yul\":3452:3571   */\n      iszero\n      tag_163\n      jumpi\n        /* \"#utility.yul\":3490:3569   */\n      tag_164\n      tag_76\n      jump\t// in\n    tag_164:\n        /* \"#utility.yul\":3452:3571   */\n    tag_163:\n        /* \"#utility.yul\":3610:3611   */\n      0x00\n        /* \"#utility.yul\":3635:3688   */\n      tag_165\n        /* \"#utility.yul\":3680:3687   */\n      dup7\n        /* \"#utility.yul\":3671:3677   */\n      dup3\n        /* \"#utility.yul\":3660:3669   */\n      dup8\n        /* \"#utility.yul\":3656:3678   */\n      add\n        /* \"#utility.yul\":3635:3688   */\n      tag_80\n      jump\t// in\n    tag_165:\n        /* \"#utility.yul\":3625:3688   */\n      swap4\n      pop\n        /* \"#utility.yul\":3581:3698   */\n      pop\n        /* \"#utility.yul\":3765:3767   */\n      0x20\n        /* \"#utility.yul\":3754:3763   */\n      dup5\n        /* \"#utility.yul\":3750:3768   */\n      add\n        /* \"#utility.yul\":3737:3769   */\n      calldataload\n        /* \"#utility.yul\":3796:3814   */\n      0xffffffffffffffff\n        /* \"#utility.yul\":3788:3794   */\n      dup2\n        /* \"#utility.yul\":3785:3815   */\n      gt\n        /* \"#utility.yul\":3782:3899   */\n      iszero\n      tag_166\n      jumpi\n        /* \"#utility.yul\":3818:3897   */\n      tag_167\n      tag_77\n      jump\t// in\n    tag_167:\n        /* \"#utility.yul\":3782:3899   */\n    tag_166:\n        /* \"#utility.yul\":3923:3986   */\n      tag_168\n        /* \"#utility.yul\":3978:3985   */\n      dup7\n        /* \"#utility.yul\":3969:3975   */\n      dup3\n        /* \"#utility.yul\":3958:3967   */\n      dup8\n        /* \"#utility.yul\":3954:3976   */\n      add\n        /* \"#utility.yul\":3923:3986   */\n      tag_90\n      jump\t// in\n    tag_168:\n        /* \"#utility.yul\":3913:3986   */\n      swap3\n      pop\n        /* \"#utility.yul\":3708:3996   */\n      pop\n        /* \"#utility.yul\":4035:4037   */\n      0x40\n        /* \"#utility.yul\":4061:4113   */\n      tag_169\n        /* \"#utility.yul\":4105:4112   */\n      dup7\n        /* \"#utility.yul\":4096:4102   */\n      dup3\n        /* \"#utility.yul\":4085:4094   */\n      dup8\n        /* \"#utility.yul\":4081:4103   */\n      add\n        /* \"#utility.yul\":4061:4113   */\n      tag_93\n      jump\t// in\n    tag_169:\n        /* \"#utility.yul\":4051:4113   */\n      swap2\n      pop\n        /* \"#utility.yul\":4006:4123   */\n      pop\n        /* \"#utility.yul\":3333:4130   */\n      swap3\n      pop\n      swap3\n      pop\n      swap3\n      jump\t// out\n        /* \"#utility.yul\":4136:4465   */\n    tag_17:\n        /* \"#utility.yul\":4195:4201   */\n      0x00\n        /* \"#utility.yul\":4244:4246   */\n      0x20\n        /* \"#utility.yul\":4232:4241   */\n      dup3\n        /* \"#utility.yul\":4223:4230   */\n      dup5\n        /* \"#utility.yul\":4219:4242   */\n      sub\n        /* \"#utility.yul\":4215:4247   */\n      slt\n        /* \"#utility.yul\":4212:4331   */\n      iszero\n      tag_171\n      jumpi\n        /* \"#utility.yul\":4250:4329   */\n      tag_172\n      tag_76\n      jump\t// in\n    tag_172:\n        /* \"#utility.yul\":4212:4331   */\n    tag_171:\n        /* \"#utility.yul\":4370:4371   */\n      0x00\n        /* \"#utility.yul\":4395:4448   */\n      tag_173\n        /* \"#utility.yul\":4440:4447   */\n      dup5\n        /* \"#utility.yul\":4431:4437   */\n      dup3\n        /* \"#utility.yul\":4420:4429   */\n      dup6\n        /* \"#utility.yul\":4416:4438   */\n      add\n        /* \"#utility.yul\":4395:4448   */\n      tag_80\n      jump\t// in\n    tag_173:\n        /* \"#utility.yul\":4385:4448   */\n      swap2\n      pop\n        /* \"#utility.yul\":4341:4458   */\n      pop\n        /* \"#utility.yul\":4136:4465   */\n      swap3\n      swap2\n      pop\n      pop\n      jump\t// out\n        /* \"#utility.yul\":4471:4579   */\n    tag_94:\n        /* \"#utility.yul\":4548:4572   */\n      tag_175\n        /* \"#utility.yul\":4566:4571   */\n      dup2\n        /* \"#utility.yul\":4548:4572   */\n      tag_78\n      jump\t// in\n    tag_175:\n        /* \"#utility.yul\":4543:4546   */\n      dup3\n        /* \"#utility.yul\":4536:4573   */\n      mstore\n        /* \"#utility.yul\":4471:4579   */\n      pop\n      pop\n      jump\t// out\n        /* \"#utility.yul\":4585:4684   */\n    tag_95:\n        /* \"#utility.yul\":4637:4643   */\n      0x00\n        /* \"#utility.yul\":4671:4676   */\n      dup2\n        /* \"#utility.yul\":4665:4677   */\n      mload\n        /* \"#utility.yul\":4655:4677   */\n      swap1\n      pop\n        /* \"#utility.yul\":4585:4684   */\n      swap2\n      swap1\n      pop\n      jump\t// out\n        /* \"#utility.yul\":4690:4849   */\n    tag_96:\n        /* \"#utility.yul\":4764:4775   */\n      0x00\n        /* \"#utility.yul\":4798:4804   */\n      dup3\n        /* \"#utility.yul\":4793:4796   */\n      dup3\n        /* \"#utility.yul\":4786:4805   */\n      mstore\n        /* \"#utility.yul\":4838:4842   */\n      0x20\n        /* \"#utility.yul\":4833:4836   */\n      dup3\n        /* \"#utility.yul\":4829:4843   */\n      add\n        /* \"#utility.yul\":4814:4843   */\n      swap1\n      pop\n        /* \"#utility.yul\":4690:4849   */\n      swap3\n      swap2\n      pop\n      pop\n      jump\t// out\n        /* \"#utility.yul\":4855:5101   */\n    tag_97:\n        /* \"#utility.yul\":4936:4937   */\n      0x00\n        /* \"#utility.yul\":4946:5059   */\n    tag_179:\n        /* \"#utility.yul\":4960:4966   */\n      dup4\n        /* \"#utility.yul\":4957:4958   */\n      dup2\n        /* \"#utility.yul\":4954:4967   */\n      lt\n        /* \"#utility.yul\":4946:5059   */\n      iszero\n      tag_181\n      jumpi\n        /* \"#utility.yul\":5045:5046   */\n      dup1\n        /* \"#utility.yul\":5040:5043   */\n      dup3\n        /* \"#utility.yul\":5036:5047   */\n      add\n        /* \"#utility.yul\":5030:5048   */\n      mload\n        /* \"#utility.yul\":5026:5027   */\n      dup2\n        /* \"#utility.yul\":5021:5024   */\n      dup5\n        /* \"#utility.yul\":5017:5028   */\n      add\n        /* \"#utility.yul\":5010:5049   */\n      mstore\n        /* \"#utility.yul\":4982:4984   */\n      0x20\n        /* \"#utility.yul\":4979:4980   */\n      dup2\n        /* \"#utility.yul\":4975:4985   */\n      add\n        /* \"#utility.yul\":4970:4985   */\n      swap1\n      pop\n        /* \"#utility.yul\":4946:5059   */\n      jump(tag_179)\n    tag_181:\n        /* \"#utility.yul\":5093:5094   */\n      0x00\n        /* \"#utility.yul\":5084:5090   */\n      dup5\n        /* \"#utility.yul\":5079:5082   */\n      dup5\n        /* \"#utility.yul\":5075:5091   */\n      add\n        /* \"#utility.yul\":5068:5095   */\n      mstore\n        /* \"#utility.yul\":4917:5101   */\n      pop\n        /* \"#utility.yul\":4855:5101   */\n      pop\n      pop\n      pop\n      jump\t// out\n        /* \"#utility.yul\":5107:5464   */\n    tag_98:\n        /* \"#utility.yul\":5185:5188   */\n      0x00\n        /* \"#utility.yul\":5213:5252   */\n      tag_183\n        /* \"#utility.yul\":5246:5251   */\n      dup3\n        /* \"#utility.yul\":5213:5252   */\n      tag_95\n      jump\t// in\n    tag_183:\n        /* \"#utility.yul\":5268:5329   */\n      tag_184\n        /* \"#utility.yul\":5322:5328   */\n      dup2\n        /* \"#utility.yul\":5317:5320   */\n      dup6\n        /* \"#utility.yul\":5268:5329   */\n      tag_96\n      jump\t// in\n    tag_184:\n        /* \"#utility.yul\":5261:5329   */\n      swap4\n      pop\n        /* \"#utility.yul\":5338:5403   */\n      tag_185\n        /* \"#utility.yul\":5396:5402   */\n      dup2\n        /* \"#utility.yul\":5391:5394   */\n      dup6\n        /* \"#utility.yul\":5384:5388   */\n      0x20\n        /* \"#utility.yul\":5377:5382   */\n      dup7\n        /* \"#utility.yul\":5373:5389   */\n      add\n        /* \"#utility.yul\":5338:5403   */\n      tag_97\n      jump\t// in\n    tag_185:\n        /* \"#utility.yul\":5428:5457   */\n      tag_186\n        /* \"#utility.yul\":5450:5456   */\n      dup2\n        /* \"#utility.yul\":5428:5457   */\n      tag_83\n      jump\t// in\n    tag_186:\n        /* \"#utility.yul\":5423:5426   */\n      dup5\n        /* \"#utility.yul\":5419:5458   */\n      add\n        /* \"#utility.yul\":5412:5458   */\n      swap2\n      pop\n        /* \"#utility.yul\":5189:5464   */\n      pop\n        /* \"#utility.yul\":5107:5464   */\n      swap3\n      swap2\n      pop\n      pop\n      jump\t// out\n        /* \"#utility.yul\":5470:5575   */\n    tag_99:\n        /* \"#utility.yul\":5545:5568   */\n      tag_188\n        /* \"#utility.yul\":5562:5567   */\n      dup2\n        /* \"#utility.yul\":5545:5568   */\n      tag_91\n      jump\t// in\n    tag_188:\n        /* \"#utility.yul\":5540:5543   */\n      dup3\n        /* \"#utility.yul\":5533:5569   */\n      mstore\n        /* \"#utility.yul\":5470:5575   */\n      pop\n      pop\n      jump\t// out\n        /* \"#utility.yul\":5621:6372   */\n    tag_100:\n        /* \"#utility.yul\":5722:5725   */\n      0x00\n        /* \"#utility.yul\":5758:5762   */\n      0x60\n        /* \"#utility.yul\":5753:5756   */\n      dup4\n        /* \"#utility.yul\":5749:5763   */\n      add\n        /* \"#utility.yul\":5842:5846   */\n      0x00\n        /* \"#utility.yul\":5835:5840   */\n      dup4\n        /* \"#utility.yul\":5831:5847   */\n      add\n        /* \"#utility.yul\":5825:5848   */\n      mload\n        /* \"#utility.yul\":5861:5924   */\n      tag_190\n        /* \"#utility.yul\":5918:5922   */\n      0x00\n        /* \"#utility.yul\":5913:5916   */\n      dup7\n        /* \"#utility.yul\":5909:5923   */\n      add\n        /* \"#utility.yul\":5895:5907   */\n      dup3\n        /* \"#utility.yul\":5861:5924   */\n      tag_94\n      jump\t// in\n    tag_190:\n        /* \"#utility.yul\":5773:5934   */\n      pop\n        /* \"#utility.yul\":6013:6017   */\n      0x20\n        /* \"#utility.yul\":6006:6011   */\n      dup4\n        /* \"#utility.yul\":6002:6018   */\n      add\n        /* \"#utility.yul\":5996:6019   */\n      mload\n        /* \"#utility.yul\":6066:6069   */\n      dup5\n        /* \"#utility.yul\":6060:6064   */\n      dup3\n        /* \"#utility.yul\":6056:6070   */\n      sub\n        /* \"#utility.yul\":6049:6053   */\n      0x20\n        /* \"#utility.yul\":6044:6047   */\n      dup7\n        /* \"#utility.yul\":6040:6054   */\n      add\n        /* \"#utility.yul\":6033:6071   */\n      mstore\n        /* \"#utility.yul\":6092:6165   */\n      tag_191\n        /* \"#utility.yul\":6160:6164   */\n      dup3\n        /* \"#utility.yul\":6146:6158   */\n      dup3\n        /* \"#utility.yul\":6092:6165   */\n      tag_98\n      jump\t// in\n    tag_191:\n        /* \"#utility.yul\":6084:6165   */\n      swap2\n      pop\n        /* \"#utility.yul\":5944:6176   */\n      pop\n        /* \"#utility.yul\":6255:6259   */\n      0x40\n        /* \"#utility.yul\":6248:6253   */\n      dup4\n        /* \"#utility.yul\":6244:6260   */\n      add\n        /* \"#utility.yul\":6238:6261   */\n      mload\n        /* \"#utility.yul\":6274:6335   */\n      tag_192\n        /* \"#utility.yul\":6329:6333   */\n      0x40\n        /* \"#utility.yul\":6324:6327   */\n      dup7\n        /* \"#utility.yul\":6320:6334   */\n      add\n        /* \"#utility.yul\":6306:6318   */\n      dup3\n        /* \"#utility.yul\":6274:6335   */\n      tag_99\n      jump\t// in\n    tag_192:\n        /* \"#utility.yul\":6186:6345   */\n      pop\n        /* \"#utility.yul\":6362:6366   */\n      dup1\n        /* \"#utility.yul\":6355:6366   */\n      swap2\n      pop\n        /* \"#utility.yul\":5727:6372   */\n      pop\n        /* \"#utility.yul\":5621:6372   */\n      swap3\n      swap2\n      pop\n      pop\n      jump\t// out\n        /* \"#utility.yul\":6378:6715   */\n    tag_20:\n        /* \"#utility.yul\":6503:6507   */\n      0x00\n        /* \"#utility.yul\":6541:6543   */\n      0x20\n        /* \"#utility.yul\":6530:6539   */\n      dup3\n        /* \"#utility.yul\":6526:6544   */\n      add\n        /* \"#utility.yul\":6518:6544   */\n      swap1\n      pop\n        /* \"#utility.yul\":6590:6599   */\n      dup2\n        /* \"#utility.yul\":6584:6588   */\n      dup2\n        /* \"#utility.yul\":6580:6600   */\n      sub\n        /* \"#utility.yul\":6576:6577   */\n      0x00\n        /* \"#utility.yul\":6565:6574   */\n      dup4\n        /* \"#utility.yul\":6561:6578   */\n      add\n        /* \"#utility.yul\":6554:6601   */\n      mstore\n        /* \"#utility.yul\":6618:6708   */\n      tag_194\n        /* \"#utility.yul\":6703:6707   */\n      dup2\n        /* \"#utility.yul\":6694:6700   */\n      dup5\n        /* \"#utility.yul\":6618:6708   */\n      tag_100\n      jump\t// in\n    tag_194:\n        /* \"#utility.yul\":6610:6708   */\n      swap1\n      pop\n        /* \"#utility.yul\":6378:6715   */\n      swap3\n      swap2\n      pop\n      pop\n      jump\t// out\n        /* \"#utility.yul\":6721:6839   */\n    tag_101:\n        /* \"#utility.yul\":6808:6832   */\n      tag_196\n        /* \"#utility.yul\":6826:6831   */\n      dup2\n        /* \"#utility.yul\":6808:6832   */\n      tag_78\n      jump\t// in\n    tag_196:\n        /* \"#utility.yul\":6803:6806   */\n      dup3\n        /* \"#utility.yul\":6796:6833   */\n      mstore\n        /* \"#utility.yul\":6721:6839   */\n      pop\n      pop\n      jump\t// out\n        /* \"#utility.yul\":6845:7067   */\n    tag_29:\n        /* \"#utility.yul\":6938:6942   */\n      0x00\n        /* \"#utility.yul\":6976:6978   */\n      0x20\n        /* \"#utility.yul\":6965:6974   */\n      dup3\n        /* \"#utility.yul\":6961:6979   */\n      add\n        /* \"#utility.yul\":6953:6979   */\n      swap1\n      pop\n        /* \"#utility.yul\":6989:7060   */\n      tag_198\n        /* \"#utility.yul\":7057:7058   */\n      0x00\n        /* \"#utility.yul\":7046:7055   */\n      dup4\n        /* \"#utility.yul\":7042:7059   */\n      add\n        /* \"#utility.yul\":7033:7039   */\n      dup5\n        /* \"#utility.yul\":6989:7060   */\n      tag_101\n      jump\t// in\n    tag_198:\n        /* \"#utility.yul\":6845:7067   */\n      swap3\n      swap2\n      pop\n      pop\n      jump\t// out\n        /* \"#utility.yul\":7073:7253   */\n    tag_102:\n        /* \"#utility.yul\":7121:7198   */\n      0x4e487b7100000000000000000000000000000000000000000000000000000000\n        /* \"#utility.yul\":7118:7119   */\n      0x00\n        /* \"#utility.yul\":7111:7199   */\n      mstore\n        /* \"#utility.yul\":7218:7222   */\n      0x22\n        /* \"#utility.yul\":7215:7216   */\n      0x04\n        /* \"#utility.yul\":7208:7223   */\n      mstore\n        /* \"#utility.yul\":7242:7246   */\n      0x24\n        /* \"#utility.yul\":7239:7240   */\n      0x00\n        /* \"#utility.yul\":7232:7247   */\n      revert\n        /* \"#utility.yul\":7259:7579   */\n    tag_50:\n        /* \"#utility.yul\":7303:7309   */\n      0x00\n        /* \"#utility.yul\":7340:7341   */\n      0x02\n        /* \"#utility.yul\":7334:7338   */\n      dup3\n        /* \"#utility.yul\":7330:7342   */\n      div\n        /* \"#utility.yul\":7320:7342   */\n      swap1\n      pop\n        /* \"#utility.yul\":7387:7388   */\n      0x01\n        /* \"#utility.yul\":7381:7385   */\n      dup3\n        /* \"#utility.yul\":7377:7389   */\n      and\n        /* \"#utility.yul\":7408:7426   */\n      dup1\n        /* \"#utility.yul\":7398:7479   */\n      tag_201\n      jumpi\n        /* \"#utility.yul\":7464:7468   */\n      0x7f\n        /* \"#utility.yul\":7456:7462   */\n      dup3\n        /* \"#utility.yul\":7452:7469   */\n      and\n        /* \"#utility.yul\":7442:7469   */\n      swap2\n      pop\n        /* \"#utility.yul\":7398:7479   */\n    tag_201:\n        /* \"#utility.yul\":7526:7528   */\n      0x20\n        /* \"#utility.yul\":7518:7524   */\n      dup3\n        /* \"#utility.yul\":7515:7529   */\n      lt\n        /* \"#utility.yul\":7495:7513   */\n      dup2\n        /* \"#utility.yul\":7492:7530   */\n      sub\n        /* \"#utility.yul\":7489:7573   */\n      tag_202\n      jumpi\n        /* \"#utility.yul\":7545:7563   */\n      tag_203\n      tag_102\n      jump\t// in\n    tag_203:\n        /* \"#utility.yul\":7489:7573   */\n    tag_202:\n        /* \"#utility.yul\":7310:7579   */\n      pop\n        /* \"#utility.yul\":7259:7579   */\n      swap2\n      swap1\n      pop\n      jump\t// out\n        /* \"#utility.yul\":7585:7726   */\n    tag_103:\n        /* \"#utility.yul\":7634:7638   */\n      0x00\n        /* \"#utility.yul\":7657:7660   */\n      dup2\n        /* \"#utility.yul\":7649:7660   */\n      swap1\n      pop\n        /* \"#utility.yul\":7680:7683   */\n      dup2\n        /* \"#utility.yul\":7677:7678   */\n      0x00\n        /* \"#utility.yul\":7670:7684   */\n      mstore\n        /* \"#utility.yul\":7714:7718   */\n      0x20\n        /* \"#utility.yul\":7711:7712   */\n      0x00\n        /* \"#utility.yul\":7701:7719   */\n      keccak256\n        /* \"#utility.yul\":7693:7719   */\n      swap1\n      pop\n        /* \"#utility.yul\":7585:7726   */\n      swap2\n      swap1\n      pop\n      jump\t// out\n        /* \"#utility.yul\":7732:7825   */\n    tag_104:\n        /* \"#utility.yul\":7769:7775   */\n      0x00\n        /* \"#utility.yul\":7816:7818   */\n      0x20\n        /* \"#utility.yul\":7811:7813   */\n      0x1f\n        /* \"#utility.yul\":7804:7809   */\n      dup4\n        /* \"#utility.yul\":7800:7814   */\n      add\n        /* \"#utility.yul\":7796:7819   */\n      div\n        /* \"#utility.yul\":7786:7819   */\n      swap1\n      pop\n        /* \"#utility.yul\":7732:7825   */\n      swap2\n      swap1\n      pop\n      jump\t// out\n        /* \"#utility.yul\":7831:7938   */\n    tag_105:\n        /* \"#utility.yul\":7875:7883   */\n      0x00\n        /* \"#utility.yul\":7925:7930   */\n      dup3\n        /* \"#utility.yul\":7919:7923   */\n      dup3\n        /* \"#utility.yul\":7915:7931   */\n      shl\n        /* \"#utility.yul\":7894:7931   */\n      swap1\n      pop\n        /* \"#utility.yul\":7831:7938   */\n      swap3\n      swap2\n      pop\n      pop\n      jump\t// out\n        /* \"#utility.yul\":7944:8337   */\n    tag_106:\n        /* \"#utility.yul\":8013:8019   */\n      0x00\n        /* \"#utility.yul\":8063:8064   */\n      0x08\n        /* \"#utility.yul\":8051:8061   */\n      dup4\n        /* \"#utility.yul\":8047:8065   */\n      mul\n        /* \"#utility.yul\":8086:8183   */\n      tag_208\n        /* \"#utility.yul\":8116:8182   */\n      0xffffffffffffffffffffffffffffffffffffffffffffffffffffffffffffffff\n        /* \"#utility.yul\":8105:8114   */\n      dup3\n        /* \"#utility.yul\":8086:8183   */\n      tag_105\n      jump\t// in\n    tag_208:\n        /* \"#utility.yul\":8204:8243   */\n      tag_209\n        /* \"#utility.yul\":8234:8242   */\n      dup7\n        /* \"#utility.yul\":8223:8232   */\n      dup4\n        /* \"#utility.yul\":8204:8243   */\n      tag_105\n      jump\t// in\n    tag_209:\n        /* \"#utility.yul\":8192:8243   */\n      swap6\n      pop\n        /* \"#utility.yul\":8276:8280   */\n      dup1\n        /* \"#utility.yul\":8272:8281   */\n      not\n        /* \"#utility.yul\":8265:8270   */\n      dup5\n        /* \"#utility.yul\":8261:8282   */\n      and\n        /* \"#utility.yul\":8252:8282   */\n      swap4\n      pop\n        /* \"#utility.yul\":8325:8329   */\n      dup1\n        /* \"#utility.yul\":8315:8323   */\n      dup7\n        /* \"#utility.yul\":8311:8330   */\n      and\n        /* \"#utility.yul\":8304:8309   */\n      dup5\n        /* \"#utility.yul\":8301:8331   */\n      or\n        /* \"#utility.yul\":8291:8331   */\n      swap3\n      pop\n        /* \"#utility.yul\":8020:8337   */\n      pop\n      pop\n        /* \"#utility.yul\":7944:8337   */\n      swap4\n      swap3\n      pop\n      pop\n      pop\n      jump\t// out\n        /* \"#utility.yul\":8343:8403   */\n    tag_107:\n        /* \"#utility.yul\":8371:8374   */\n      0x00\n        /* \"#utility.yul\":8392:8397   */\n      dup2\n        /* \"#utility.yul\":8385:8397   */\n      swap1\n      pop\n        /* \"#utility.yul\":8343:8403   */\n      swap2\n      swap1\n      pop\n      jump\t// out\n        /* \"#utility.yul\":8409:8551   */\n    tag_108:\n        /* \"#utility.yul\":8459:8468   */\n      0x00\n        /* \"#utility.yul\":8492:8545   */\n      tag_212\n        /* \"#utility.yul\":8510:8544   */\n      tag_213\n        /* \"#utility.yul\":8519:8543   */\n      tag_214\n        /* \"#utility.yul\":8537:8542   */\n      dup5\n        /* \"#utility.yul\":8519:8543   */\n      tag_78\n      jump\t// in\n    tag_214:\n        /* \"#utility.yul\":8510:8544   */\n      tag_107\n      jump\t// in\n    tag_213:\n        /* \"#utility.yul\":8492:8545   */\n      tag_78\n      jump\t// in\n    tag_212:\n        /* \"#utility.yul\":8479:8545   */\n      swap1\n      pop\n        /* \"#utility.yul\":8409:8551   */\n      swap2\n      swap1\n      pop\n      jump\t// out\n        /* \"#utility.yul\":8557:8632   */\n    tag_109:\n        /* \"#utility.yul\":8600:8603   */\n      0x00\n        /* \"#utility.yul\":8621:8626   */\n      dup2\n        /* \"#utility.yul\":8614:8626   */\n      swap1\n      pop\n        /* \"#utility.yul\":8557:8632   */\n      swap2\n      swap1\n      pop\n      jump\t// out\n        /* \"#utility.yul\":8638:8907   */\n    tag_110:\n        /* \"#utility.yul\":8748:8787   */\n      tag_217\n        /* \"#utility.yul\":8779:8786   */\n      dup4\n        /* \"#utility.yul\":8748:8787   */\n      tag_108\n      jump\t// in\n    tag_217:\n        /* \"#utility.yul\":8809:8900   */\n      tag_218\n        /* \"#utility.yul\":8858:8899   */\n      tag_219\n        /* \"#utility.yul\":8882:8898   */\n      dup3\n        /* \"#utility.yul\":8858:8899   */\n      tag_109\n      jump\t// in\n    tag_219:\n        /* \"#utility.yul\":8850:8856   */\n      dup5\n        /* \"#utility.yul\":8843:8847   */\n      dup5\n        /* \"#utility.yul\":8837:8848   */\n      sload\n        /* \"#utility.yul\":8809:8900   */\n      tag_106\n      jump\t// in\n    tag_218:\n        /* \"#utility.yul\":8803:8807   */\n      dup3\n        /* \"#utility.yul\":8796:8901   */\n      sstore\n        /* \"#utility.yul\":8714:8907   */\n      pop\n        /* \"#utility.yul\":8638:8907   */\n      pop\n      pop\n      pop\n      jump\t// out\n        /* \"#utility.yul\":8913:8986   */\n    tag_111:\n        /* \"#utility.yul\":8958:8961   */\n      0x00\n        /* \"#utility.yul\":8913:8986   */\n      swap1\n      jump\t// out\n        /* \"#utility.yul\":8992:9181   */\n    tag_112:\n        /* \"#utility.yul\":9069:9101   */\n      tag_222\n      tag_111\n      jump\t// in\n    tag_222:\n        /* \"#utility.yul\":9110:9175   */\n      tag_223\n        /* \"#utility.yul\":9168:9174   */\n      dup2\n        /* \"#utility.yul\":9160:9166   */\n      dup5\n        /* \"#utility.yul\":9154:9158   */\n      dup5\n        /* \"#utility.yul\":9110:9175   */\n      tag_110\n      jump\t// in\n    tag_223:\n        /* \"#utility.yul\":9045:9181   */\n      pop\n        /* \"#utility.yul\":8992:9181   */\n      pop\n      pop\n      jump\t// out\n        /* \"#utility.yul\":9187:9373   */\n    tag_113:\n        /* \"#utility.yul\":9247:9367   */\n    tag_225:\n        /* \"#utility.yul\":9264:9267   */\n      dup2\n        /* \"#utility.yul\":9257:9262   */\n      dup2\n        /* \"#utility.yul\":9254:9268   */\n      lt\n        /* \"#utility.yul\":9247:9367   */\n      iszero\n      tag_227\n      jumpi\n        /* \"#utility.yul\":9318:9357   */\n      tag_228\n        /* \"#utility.yul\":9355:9356   */\n      0x00\n        /* \"#utility.yul\":9348:9353   */\n      dup3\n        /* \"#utility.yul\":9318:9357   */\n      tag_112\n      jump\t// in\n    tag_228:\n        /* \"#utility.yul\":9291:9292   */\n      0x01\n        /* \"#utility.yul\":9284:9289   */\n      dup2\n        /* \"#utility.yul\":9280:9293   */\n      add\n        /* \"#utility.yul\":9271:9293   */\n      swap1\n      pop\n        /* \"#utility.yul\":9247:9367   */\n      jump(tag_225)\n    tag_227:\n        /* \"#utility.yul\":9187:9373   */\n      pop\n      pop\n      jump\t// out\n        /* \"#utility.yul\":9379:9922   */\n    tag_114:\n        /* \"#utility.yul\":9480:9482   */\n      0x1f\n        /* \"#utility.yul\":9475:9478   */\n      dup3\n        /* \"#utility.yul\":9472:9483   */\n      gt\n        /* \"#utility.yul\":9469:9915   */\n      iszero\n      tag_230\n      jumpi\n        /* \"#utility.yul\":9514:9552   */\n      tag_231\n        /* \"#utility.yul\":9546:9551   */\n      dup2\n        /* \"#utility.yul\":9514:9552   */\n      tag_103\n      jump\t// in\n    tag_231:\n        /* \"#utility.yul\":9598:9627   */\n      tag_232\n        /* \"#utility.yul\":9616:9626   */\n      dup5\n        /* \"#utility.yul\":9598:9627   */\n      tag_104\n      jump\t// in\n    tag_232:\n        /* \"#utility.yul\":9588:9596   */\n      dup2\n        /* \"#utility.yul\":9584:9628   */\n      add\n        /* \"#utility.yul\":9781:9783   */\n      0x20\n        /* \"#utility.yul\":9769:9779   */\n      dup6\n        /* \"#utility.yul\":9766:9784   */\n      lt\n        /* \"#utility.yul\":9763:9812   */\n      iszero\n      tag_233\n      jumpi\n        /* \"#utility.yul\":9802:9810   */\n      dup2\n        /* \"#utility.yul\":9787:9810   */\n      swap1\n      pop\n        /* \"#utility.yul\":9763:9812   */\n    tag_233:\n        /* \"#utility.yul\":9825:9905   */\n      tag_234\n        /* \"#utility.yul\":9881:9903   */\n      tag_235\n        /* \"#utility.yul\":9899:9902   */\n      dup6\n        /* \"#utility.yul\":9881:9903   */\n      tag_104\n      jump\t// in\n    tag_235:\n        /* \"#utility.yul\":9871:9879   */\n      dup4\n        /* \"#utility.yul\":9867:9904   */\n      add\n        /* \"#utility.yul\":9854:9865   */\n      dup3\n        /* \"#utility.yul\":9825:9905   */\n      tag_113\n      jump\t// in\n    tag_234:\n        /* \"#utility.yul\":9484:9915   */\n      pop\n      pop\n        /* \"#utility.yul\":9469:9915   */\n    tag_230:\n        /* \"#utility.yul\":9379:9922   */\n      pop\n      pop\n      pop\n      jump\t// out\n        /* \"#utility.yul\":9928:10045   */\n    tag_115:\n        /* \"#utility.yul\":9982:9990   */\n      0x00\n        /* \"#utility.yul\":10032:10037   */\n      dup3\n        /* \"#utility.yul\":10026:10030   */\n      dup3\n        /* \"#utility.yul\":10022:10038   */\n      shr\n        /* \"#utility.yul\":10001:10038   */\n      swap1\n      pop\n        /* \"#utility.yul\":9928:10045   */\n      swap3\n      swap2\n      pop\n      pop\n      jump\t// out\n        /* \"#utility.yul\":10051:10220   */\n    tag_116:\n        /* \"#utility.yul\":10095:10101   */\n      0x00\n        /* \"#utility.yul\":10128:10179   */\n      tag_238\n        /* \"#utility.yul\":10176:10177   */\n      0x00\n        /* \"#utility.yul\":10172:10178   */\n      not\n        /* \"#utility.yul\":10164:10169   */\n      dup5\n        /* \"#utility.yul\":10161:10162   */\n      0x08\n        /* \"#utility.yul\":10157:10170   */\n      mul\n        /* \"#utility.yul\":10128:10179   */\n      tag_115\n      jump\t// in\n    tag_238:\n        /* \"#utility.yul\":10124:10180   */\n      not\n        /* \"#utility.yul\":10209:10213   */\n      dup1\n        /* \"#utility.yul\":10203:10207   */\n      dup4\n        /* \"#utility.yul\":10199:10214   */\n      and\n        /* \"#utility.yul\":10189:10214   */\n      swap2\n      pop\n        /* \"#utility.yul\":10102:10220   */\n      pop\n        /* \"#utility.yul\":10051:10220   */\n      swap3\n      swap2\n      pop\n      pop\n      jump\t// out\n        /* \"#utility.yul\":10225:10520   */\n    tag_117:\n        /* \"#utility.yul\":10301:10305   */\n      0x00\n        /* \"#utility.yul\":10447:10476   */\n      tag_240\n        /* \"#utility.yul\":10472:10475   */\n      dup4\n        /* \"#utility.yul\":10466:10470   */\n      dup4\n        /* \"#utility.yul\":10447:10476   */\n      tag_116\n      jump\t// in\n    tag_240:\n        /* \"#utility.yul\":10439:10476   */\n      swap2\n      pop\n        /* \"#utility.yul\":10509:10512   */\n      dup3\n        /* \"#utility.yul\":10506:10507   */\n      0x02\n        /* \"#utility.yul\":10502:10513   */\n      mul\n        /* \"#utility.yul\":10496:10500   */\n      dup3\n        /* \"#utility.yul\":10493:10514   */\n      or\n        /* \"#utility.yul\":10485:10514   */\n      swap1\n      pop\n        /* \"#utility.yul\":10225:10520   */\n      swap3\n      swap2\n      pop\n      pop\n      jump\t// out\n        /* \"#utility.yul\":10525:11920   */\n    tag_39:\n        /* \"#utility.yul\":10642:10679   */\n      tag_242\n        /* \"#utility.yul\":10675:10678   */\n      dup3\n        /* \"#utility.yul\":10642:10679   */\n      tag_95\n      jump\t// in\n    tag_242:\n        /* \"#utility.yul\":10744:10762   */\n      0xffffffffffffffff\n        /* \"#utility.yul\":10736:10742   */\n      dup2\n        /* \"#utility.yul\":10733:10763   */\n      gt\n        /* \"#utility.yul\":10730:10786   */\n      iszero\n      tag_243\n      jumpi\n        /* \"#utility.yul\":10766:10784   */\n      tag_244\n      tag_84\n      jump\t// in\n    tag_244:\n        /* \"#utility.yul\":10730:10786   */\n    tag_243:\n        /* \"#utility.yul\":10810:10848   */\n      tag_245\n        /* \"#utility.yul\":10842:10846   */\n      dup3\n        /* \"#utility.yul\":10836:10847   */\n      sload\n        /* \"#utility.yul\":10810:10848   */\n      tag_50\n      jump\t// in\n    tag_245:\n        /* \"#utility.yul\":10895:10962   */\n      tag_246\n        /* \"#utility.yul\":10955:10961   */\n      dup3\n        /* \"#utility.yul\":10947:10953   */\n      dup3\n        /* \"#utility.yul\":10941:10945   */\n      dup6\n        /* \"#utility.yul\":10895:10962   */\n      tag_114\n      jump\t// in\n    tag_246:\n        /* \"#utility.yul\":10989:10990   */\n      0x00\n        /* \"#utility.yul\":11013:11017   */\n      0x20\n        /* \"#utility.yul\":11000:11017   */\n      swap1\n      pop\n        /* \"#utility.yul\":11045:11047   */\n      0x1f\n        /* \"#utility.yul\":11037:11043   */\n      dup4\n        /* \"#utility.yul\":11034:11048   */\n      gt\n        /* \"#utility.yul\":11062:11063   */\n      0x01\n        /* \"#utility.yul\":11057:11675   */\n      dup2\n      eq\n      tag_248\n      jumpi\n        /* \"#utility.yul\":11719:11720   */\n      0x00\n        /* \"#utility.yul\":11736:11742   */\n      dup5\n        /* \"#utility.yul\":11733:11810   */\n      iszero\n      tag_249\n      jumpi\n        /* \"#utility.yul\":11785:11794   */\n      dup3\n        /* \"#utility.yul\":11780:11783   */\n      dup8\n        /* \"#utility.yul\":11776:11795   */\n      add\n        /* \"#utility.yul\":11770:11796   */\n      mload\n        /* \"#utility.yul\":11761:11796   */\n      swap1\n      pop\n        /* \"#utility.yul\":11733:11810   */\n    tag_249:\n        /* \"#utility.yul\":11836:11903   */\n      tag_250\n        /* \"#utility.yul\":11896:11902   */\n      dup6\n        /* \"#utility.yul\":11889:11894   */\n      dup3\n        /* \"#utility.yul\":11836:11903   */\n      tag_117\n      jump\t// in\n    tag_250:\n        /* \"#utility.yul\":11830:11834   */\n      dup7\n        /* \"#utility.yul\":11823:11904   */\n      sstore\n        /* \"#utility.yul\":11692:11914   */\n      pop\n        /* \"#utility.yul\":11027:11914   */\n      jump(tag_247)\n        /* \"#utility.yul\":11057:11675   */\n    tag_248:\n        /* \"#utility.yul\":11109:11113   */\n      0x1f\n        /* \"#utility.yul\":11105:11114   */\n      not\n        /* \"#utility.yul\":11097:11103   */\n      dup5\n        /* \"#utility.yul\":11093:11115   */\n      and\n        /* \"#utility.yul\":11143:11180   */\n      tag_251\n        /* \"#utility.yul\":11175:11179   */\n      dup7\n        /* \"#utility.yul\":11143:11180   */\n      tag_103\n      jump\t// in\n    tag_251:\n        /* \"#utility.yul\":11202:11203   */\n      0x00\n        /* \"#utility.yul\":11216:11424   */\n    tag_252:\n        /* \"#utility.yul\":11230:11237   */\n      dup3\n        /* \"#utility.yul\":11227:11228   */\n      dup2\n        /* \"#utility.yul\":11224:11238   */\n      lt\n        /* \"#utility.yul\":11216:11424   */\n      iszero\n      tag_254\n      jumpi\n        /* \"#utility.yul\":11309:11318   */\n      dup5\n        /* \"#utility.yul\":11304:11307   */\n      dup10\n        /* \"#utility.yul\":11300:11319   */\n      add\n        /* \"#utility.yul\":11294:11320   */\n      mload\n        /* \"#utility.yul\":11286:11292   */\n      dup3\n        /* \"#utility.yul\":11279:11321   */\n      sstore\n        /* \"#utility.yul\":11360:11361   */\n      0x01\n        /* \"#utility.yul\":11352:11358   */\n      dup3\n        /* \"#utility.yul\":11348:11362   */\n      add\n        /* \"#utility.yul\":11338:11362   */\n      swap2\n      pop\n        /* \"#utility.yul\":11407:11409   */\n      0x20\n        /* \"#utility.yul\":11396:11405   */\n      dup6\n        /* \"#utility.yul\":11392:11410   */\n      add\n        /* \"#utility.yul\":11379:11410   */\n      swap5\n      pop\n        /* \"#utility.yul\":11253:11257   */\n      0x20\n        /* \"#utility.yul\":11250:11251   */\n      dup2\n        /* \"#utility.yul\":11246:11258   */\n      add\n        /* \"#utility.yul\":11241:11258   */\n      swap1\n      pop\n        /* \"#utility.yul\":11216:11424   */\n      jump(tag_252)\n    tag_254:\n        /* \"#utility.yul\":11452:11458   */\n      dup7\n        /* \"#utility.yul\":11443:11450   */\n      dup4\n        /* \"#utility.yul\":11440:11459   */\n      lt\n        /* \"#utility.yul\":11437:11616   */\n      iszero\n      tag_255\n      jumpi\n        /* \"#utility.yul\":11510:11519   */\n      dup5\n        /* \"#utility.yul\":11505:11508   */\n      dup10\n        /* \"#utility.yul\":11501:11520   */\n      add\n        /* \"#utility.yul\":11495:11521   */\n      mload\n        /* \"#utility.yul\":11553:11601   */\n      tag_256\n        /* \"#utility.yul\":11595:11599   */\n      0x1f\n        /* \"#utility.yul\":11587:11593   */\n      dup10\n        /* \"#utility.yul\":11583:11600   */\n      and\n        /* \"#utility.yul\":11572:11581   */\n      dup3\n        /* \"#utility.yul\":11553:11601   */\n      tag_116\n      jump\t// in\n    tag_256:\n        /* \"#utility.yul\":11545:11551   */\n      dup4\n        /* \"#utility.yul\":11538:11602   */\n      sstore\n        /* \"#utility.yul\":11460:11616   */\n      pop\n        /* \"#utility.yul\":11437:11616   */\n    tag_255:\n        /* \"#utility.yul\":11662:11663   */\n      0x01\n        /* \"#utility.yul\":11658:11659   */\n      0x02\n        /* \"#utility.yul\":11650:11656   */\n      dup9\n        /* \"#utility.yul\":11646:11660   */\n      mul\n        /* \"#utility.yul\":11642:11664   */\n      add\n        /* \"#utility.yul\":11636:11640   */\n      dup9\n        /* \"#utility.yul\":11629:11665   */\n      sstore\n        /* \"#utility.yul\":11064:11675   */\n      pop\n      pop\n      pop\n        /* \"#utility.yul\":11027:11914   */\n    tag_247:\n      pop\n        /* \"#utility.yul\":10617:11920   */\n      pop\n      pop\n      pop\n        /* \"#utility.yul\":10525:11920   */\n      pop\n      pop\n      jump\t// out\n        /* \"#utility.yul\":11926:12106   */\n    tag_118:\n        /* \"#utility.yul\":11974:12051   */\n      0x4e487b7100000000000000000000000000000000000000000000000000000000\n        /* \"#utility.yul\":11971:11972   */\n      0x00\n        /* \"#utility.yul\":11964:12052   */\n      mstore\n        /* \"#utility.yul\":12071:12075   */\n      0x11\n        /* \"#utility.yul\":12068:12069   */\n      0x04\n        /* \"#utility.yul\":12061:12076   */\n      mstore\n        /* \"#utility.yul\":12095:12099   */\n      0x24\n        /* \"#utility.yul\":12092:12093   */\n      0x00\n        /* \"#utility.yul\":12085:12100   */\n      revert\n        /* \"#utility.yul\":12112:12306   */\n    tag_44:\n        /* \"#utility.yul\":12152:12156   */\n      0x00\n        /* \"#utility.yul\":12172:12192   */\n      tag_259\n        /* \"#utility.yul\":12190:12191   */\n      dup3\n        /* \"#utility.yul\":12172:12192   */\n      tag_78\n      jump\t// in\n    tag_259:\n        /* \"#utility.yul\":12167:12192   */\n      swap2\n      pop\n        /* \"#utility.yul\":12206:12226   */\n      tag_260\n        /* \"#utility.yul\":12224:12225   */\n      dup4\n        /* \"#utility.yul\":12206:12226   */\n      tag_78\n      jump\t// in\n    tag_260:\n        /* \"#utility.yul\":12201:12226   */\n      swap3\n      pop\n        /* \"#utility.yul\":12250:12251   */\n      dup3\n        /* \"#utility.yul\":12247:12248   */\n      dup3\n        /* \"#utility.yul\":12243:12252   */\n      sub\n        /* \"#utility.yul\":12235:12252   */\n      swap1\n      pop\n        /* \"#utility.yul\":12274:12275   */\n      dup2\n        /* \"#utility.yul\":12268:12272   */\n      dup2\n        /* \"#utility.yul\":12265:12276   */\n      gt\n        /* \"#utility.yul\":12262:12299   */\n      iszero\n      tag_261\n      jumpi\n        /* \"#utility.yul\":12279:12297   */\n      tag_262\n      tag_118\n      jump\t// in\n    tag_262:\n        /* \"#utility.yul\":12262:12299   */\n    tag_261:\n        /* \"#utility.yul\":12112:12306   */\n      swap3\n      swap2\n      pop\n      pop\n      jump\t// out\n        /* \"#utility.yul\":12312:12492   */\n    tag_47:\n        /* \"#utility.yul\":12360:12437   */\n      0x4e487b7100000000000000000000000000000000000000000000000000000000\n        /* \"#utility.yul\":12357:12358   */\n      0x00\n        /* \"#utility.yul\":12350:12438   */\n      mstore\n        /* \"#utility.yul\":12457:12461   */\n      0x32\n        /* \"#utility.yul\":12454:12455   */\n      0x04\n        /* \"#utility.yul\":12447:12462   */\n      mstore\n        /* \"#utility.yul\":12481:12485   */\n      0x24\n        /* \"#utility.yul\":12478:12479   */\n      0x00\n        /* \"#utility.yul\":12471:12486   */\n      revert\n        /* \"#utility.yul\":12498:12647   */\n    tag_119:\n        /* \"#utility.yul\":12547:12553   */\n      0x00\n        /* \"#utility.yul\":12581:12586   */\n      dup2\n        /* \"#utility.yul\":12575:12587   */\n      sload\n        /* \"#utility.yul\":12565:12587   */\n      swap1\n      pop\n        /* \"#utility.yul\":12607:12640   */\n      tag_265\n        /* \"#utility.yul\":12633:12639   */\n      dup2\n        /* \"#utility.yul\":12607:12640   */\n      tag_50\n      jump\t// in\n    tag_265:\n        /* \"#utility.yul\":12597:12640   */\n      swap1\n      pop\n        /* \"#utility.yul\":12498:12647   */\n      swap2\n      swap1\n      pop\n      jump\t// out\n        /* \"#utility.yul\":12653:14104   */\n    tag_65:\n        /* \"#utility.yul\":12764:12767   */\n      dup2\n        /* \"#utility.yul\":12758:12762   */\n      dup2\n        /* \"#utility.yul\":12755:12768   */\n      sub\n        /* \"#utility.yul\":12752:12778   */\n      tag_267\n      jumpi\n        /* \"#utility.yul\":12771:12776   */\n      pop\n      pop\n      jump(tag_266)\n        /* \"#utility.yul\":12752:12778   */\n    tag_267:\n        /* \"#utility.yul\":12802:12836   */\n      tag_268\n        /* \"#utility.yul\":12832:12835   */\n      dup3\n        /* \"#utility.yul\":12802:12836   */\n      tag_119\n      jump\t// in\n    tag_268:\n        /* \"#utility.yul\":12901:12919   */\n      0xffffffffffffffff\n        /* \"#utility.yul\":12893:12899   */\n      dup2\n        /* \"#utility.yul\":12890:12920   */\n      gt\n        /* \"#utility.yul\":12887:12943   */\n      iszero\n      tag_269\n      jumpi\n        /* \"#utility.yul\":12923:12941   */\n      tag_270\n      tag_84\n      jump\t// in\n    tag_270:\n        /* \"#utility.yul\":12887:12943   */\n    tag_269:\n        /* \"#utility.yul\":12967:13005   */\n      tag_271\n        /* \"#utility.yul\":12999:13003   */\n      dup3\n        /* \"#utility.yul\":12993:13004   */\n      sload\n        /* \"#utility.yul\":12967:13005   */\n      tag_50\n      jump\t// in\n    tag_271:\n        /* \"#utility.yul\":13052:13119   */\n      tag_272\n        /* \"#utility.yul\":13112:13118   */\n      dup3\n        /* \"#utility.yul\":13104:13110   */\n      dup3\n        /* \"#utility.yul\":13098:13102   */\n      dup6\n        /* \"#utility.yul\":13052:13119   */\n      tag_114\n      jump\t// in\n    tag_272:\n        /* \"#utility.yul\":13146:13147   */\n      0x00\n        /* \"#utility.yul\":13175:13177   */\n      0x1f\n        /* \"#utility.yul\":13167:13173   */\n      dup4\n        /* \"#utility.yul\":13164:13178   */\n      gt\n        /* \"#utility.yul\":13192:13193   */\n      0x01\n        /* \"#utility.yul\":13187:13859   */\n      dup2\n      eq\n      tag_274\n      jumpi\n        /* \"#utility.yul\":13903:13904   */\n      0x00\n        /* \"#utility.yul\":13920:13926   */\n      dup5\n        /* \"#utility.yul\":13917:13994   */\n      iszero\n      tag_275\n      jumpi\n        /* \"#utility.yul\":13969:13978   */\n      dup3\n        /* \"#utility.yul\":13964:13967   */\n      dup8\n        /* \"#utility.yul\":13960:13979   */\n      add\n        /* \"#utility.yul\":13954:13980   */\n      sload\n        /* \"#utility.yul\":13945:13980   */\n      swap1\n      pop\n        /* \"#utility.yul\":13917:13994   */\n    tag_275:\n        /* \"#utility.yul\":14020:14087   */\n      tag_276\n        /* \"#utility.yul\":14080:14086   */\n      dup6\n        /* \"#utility.yul\":14073:14078   */\n      dup3\n        /* \"#utility.yul\":14020:14087   */\n      tag_117\n      jump\t// in\n    tag_276:\n        /* \"#utility.yul\":14014:14018   */\n      dup7\n        /* \"#utility.yul\":14007:14088   */\n      sstore\n        /* \"#utility.yul\":13876:14098   */\n      pop\n        /* \"#utility.yul\":13157:14098   */\n      jump(tag_273)\n        /* \"#utility.yul\":13187:13859   */\n    tag_274:\n        /* \"#utility.yul\":13239:13243   */\n      0x1f\n        /* \"#utility.yul\":13235:13244   */\n      not\n        /* \"#utility.yul\":13227:13233   */\n      dup5\n        /* \"#utility.yul\":13223:13245   */\n      and\n        /* \"#utility.yul\":13265:13301   */\n      tag_277\n        /* \"#utility.yul\":13297:13300   */\n      dup8\n        /* \"#utility.yul\":13265:13301   */\n      tag_103\n      jump\t// in\n    tag_277:\n        /* \"#utility.yul\":13258:13301   */\n      swap7\n      pop\n        /* \"#utility.yul\":13328:13365   */\n      tag_278\n        /* \"#utility.yul\":13360:13364   */\n      dup7\n        /* \"#utility.yul\":13328:13365   */\n      tag_103\n      jump\t// in\n    tag_278:\n        /* \"#utility.yul\":13387:13388   */\n      0x00\n        /* \"#utility.yul\":13401:13608   */\n    tag_279:\n        /* \"#utility.yul\":13415:13422   */\n      dup3\n        /* \"#utility.yul\":13412:13413   */\n      dup2\n        /* \"#utility.yul\":13409:13423   */\n      lt\n        /* \"#utility.yul\":13401:13608   */\n      iszero\n      tag_281\n      jumpi\n        /* \"#utility.yul\":13494:13503   */\n      dup5\n        /* \"#utility.yul\":13489:13492   */\n      dup10\n        /* \"#utility.yul\":13485:13504   */\n      add\n        /* \"#utility.yul\":13479:13505   */\n      sload\n        /* \"#utility.yul\":13471:13477   */\n      dup3\n        /* \"#utility.yul\":13464:13506   */\n      sstore\n        /* \"#utility.yul\":13545:13546   */\n      0x01\n        /* \"#utility.yul\":13537:13543   */\n      dup3\n        /* \"#utility.yul\":13533:13547   */\n      add\n        /* \"#utility.yul\":13523:13547   */\n      swap2\n      pop\n        /* \"#utility.yul\":13592:13593   */\n      0x01\n        /* \"#utility.yul\":13581:13590   */\n      dup6\n        /* \"#utility.yul\":13577:13594   */\n      add\n        /* \"#utility.yul\":13564:13594   */\n      swap5\n      pop\n        /* \"#utility.yul\":13438:13442   */\n      0x20\n        /* \"#utility.yul\":13435:13436   */\n      dup2\n        /* \"#utility.yul\":13431:13443   */\n      add\n        /* \"#utility.yul\":13426:13443   */\n      swap1\n      pop\n        /* \"#utility.yul\":13401:13608   */\n      jump(tag_279)\n    tag_281:\n        /* \"#utility.yul\":13636:13642   */\n      dup7\n        /* \"#utility.yul\":13627:13634   */\n      dup4\n        /* \"#utility.yul\":13624:13643   */\n      lt\n        /* \"#utility.yul\":13621:13800   */\n      iszero\n      tag_282\n      jumpi\n        /* \"#utility.yul\":13694:13703   */\n      dup5\n        /* \"#utility.yul\":13689:13692   */\n      dup10\n        /* \"#utility.yul\":13685:13704   */\n      add\n        /* \"#utility.yul\":13679:13705   */\n      sload\n        /* \"#utility.yul\":13737:13785   */\n      tag_283\n        /* \"#utility.yul\":13779:13783   */\n      0x1f\n        /* \"#utility.yul\":13771:13777   */\n      dup10\n        /* \"#utility.yul\":13767:13784   */\n      and\n        /* \"#utility.yul\":13756:13765   */\n      dup3\n        /* \"#utility.yul\":13737:13785   */\n      tag_116\n      jump\t// in\n    tag_283:\n        /* \"#utility.yul\":13729:13735   */\n      dup4\n        /* \"#utility.yul\":13722:13786   */\n      sstore\n        /* \"#utility.yul\":13644:13800   */\n      pop\n        /* \"#utility.yul\":13621:13800   */\n    tag_282:\n        /* \"#utility.yul\":13846:13847   */\n      0x01\n        /* \"#utility.yul\":13842:13843   */\n      0x02\n        /* \"#utility.yul\":13834:13840   */\n      dup9\n        /* \"#utility.yul\":13830:13844   */\n      mul\n        /* \"#utility.yul\":13826:13848   */\n      add\n        /* \"#utility.yul\":13820:13824   */\n      dup9\n        /* \"#utility.yul\":13813:13849   */\n      sstore\n        /* \"#utility.yul\":13194:13859   */\n      pop\n      pop\n      pop\n        /* \"#utility.yul\":13157:14098   */\n    tag_273:\n      pop\n        /* \"#utility.yul\":12742:14104   */\n      pop\n      pop\n      pop\n        /* \"#utility.yul\":12653:14104   */\n      pop\n      pop\n    tag_266:\n      jump\t// out\n\n    auxdata: 0xa2646970667358221220e9b2f09023aa9b8d519753998cf0b16a99e5c703afbd4db85e6d2ce13065cb5364736f6c63430008120033\n}\n",
				"bytecode": {
					"linkReferences": {},
					"object": "608060405234801561001057600080fd5b50610e4d806100206000396000f3fe608060405234801561001057600080fd5b506004361061007d5760003560e01c80636db755041161005b5780636db75504146100ec578063be1c766b146100f6578063cd914def14610114578063d82cf790146101305761007d565b80631908791c14610082578063391392251461009e578063626c525c146100ce575b600080fd5b61009c600480360381019061009791906107d4565b610160565b005b6100b860048036038101906100b39190610843565b6101e7565b6040516100c5919061095d565b60405180910390f35b6100d6610324565b6040516100e3919061095d565b60405180910390f35b6100f4610433565b005b6100fe6104b2565b60405161010b919061098e565b60405180910390f35b61012e600480360381019061012991906107d4565b6104bf565b005b61014a60048036038101906101459190610843565b61056f565b604051610157919061098e565b60405180910390f35b6040518060600160405280848152602001838152602001827dffffffffffffffffffffffffffffffffffffffffffffffffffffffffffff1916815250600080820151816000015560208201518160010190816101bc9190610bb5565b5060408201518160020160006101000a81548161ffff021916908360f01c0217905550905050505050565b6101ef6105aa565b60036001836101fe9190610cb6565b8154811061020f5761020e610cea565b5b906000526020600020906003020160405180606001604052908160008201548152602001600182018054610242906109d8565b80601f016020809104026020016040519081016040528092919081815260200182805461026e906109d8565b80156102bb5780601f10610290576101008083540402835291602001916102bb565b820191906000526020600020905b81548152906001019060200180831161029e57829003601f168201915b505050505081526020016002820160009054906101000a900460f01b7dffffffffffffffffffffffffffffffffffffffffffffffffffffffffffff19167dffffffffffffffffffffffffffffffffffffffffffffffffffffffffffff1916815250509050919050565b61032c6105aa565b600060405180606001604052908160008201548152602001600182018054610353906109d8565b80601f016020809104026020016040519081016040528092919081815260200182805461037f906109d8565b80156103cc5780601f106103a1576101008083540402835291602001916103cc565b820191906000526020600020905b8154815290600101906020018083116103af57829003601f168201915b505050505081526020016002820160009054906101000a900460f01b7dffffffffffffffffffffffffffffffffffffffffffffffffffffffffffff19167dffffffffffffffffffffffffffffffffffffffffffffffffffffffffffff191681525050905090565b600360009080600181540180825580915050600190039060005260206000209060030201600090919091909150600082015481600001556001820181600101908161047e9190610d2f565b506002820160009054906101000a900460f01b8160020160006101000a81548161ffff021916908360f01c02179055505050565b6000600380549050905090565b60036040518060600160405280858152602001848152602001837dffffffffffffffffffffffffffffffffffffffffffffffffffffffffffff191681525090806001815401808255809150506001900390600052602060002090600302016000909190919091506000820151816000015560208201518160010190816105459190610bb5565b5060408201518160020160006101000a81548161ffff021916908360f01c02179055505050505050565b600060036001836105809190610cb6565b8154811061059157610590610cea565b5b9060005260206000209060030201600001549050919050565b6040518060600160405280600081526020016060815260200160007dffffffffffffffffffffffffffffffffffffffffffffffffffffffffffff191681525090565b6000604051905090565b600080fd5b600080fd5b6000819050919050565b61061381610600565b811461061e57600080fd5b50565b6000813590506106308161060a565b92915050565b600080fd5b600080fd5b6000601f19601f8301169050919050565b7f4e487b7100000000000000000000000000000000000000000000000000000000600052604160045260246000fd5b61068982610640565b810181811067ffffffffffffffff821117156106a8576106a7610651565b5b80604052505050565b60006106bb6105ec565b90506106c78282610680565b919050565b600067ffffffffffffffff8211156106e7576106e6610651565b5b6106f082610640565b9050602081019050919050565b82818337600083830152505050565b600061071f61071a846106cc565b6106b1565b90508281526020810184848401111561073b5761073a61063b565b5b6107468482856106fd565b509392505050565b600082601f83011261076357610762610636565b5b813561077384826020860161070c565b91505092915050565b60007fffff00000000000000000000000000000000000000000000000000000000000082169050919050565b6107b18161077c565b81146107bc57600080fd5b50565b6000813590506107ce816107a8565b92915050565b6000806000606084860312156107ed576107ec6105f6565b5b60006107fb86828701610621565b935050602084013567ffffffffffffffff81111561081c5761081b6105fb565b5b6108288682870161074e565b9250506040610839868287016107bf565b9150509250925092565b600060208284031215610859576108586105f6565b5b600061086784828501610621565b91505092915050565b61087981610600565b82525050565b600081519050919050565b600082825260208201905092915050565b60005b838110156108b957808201518184015260208101905061089e565b60008484015250505050565b60006108d08261087f565b6108da818561088a565b93506108ea81856020860161089b565b6108f381610640565b840191505092915050565b6109078161077c565b82525050565b60006060830160008301516109256000860182610870565b506020830151848203602086015261093d82826108c5565b915050604083015161095260408601826108fe565b508091505092915050565b60006020820190508181036000830152610977818461090d565b905092915050565b61098881610600565b82525050565b60006020820190506109a3600083018461097f565b92915050565b7f4e487b7100000000000000000000000000000000000000000000000000000000600052602260045260246000fd5b600060028204905060018216806109f057607f821691505b602082108103610a0357610a026109a9565b5b50919050565b60008190508160005260206000209050919050565b60006020601f8301049050919050565b600082821b905092915050565b600060088302610a6b7fffffffffffffffffffffffffffffffffffffffffffffffffffffffffffffffff82610a2e565b610a758683610a2e565b95508019841693508086168417925050509392505050565b6000819050919050565b6000610ab2610aad610aa884610600565b610a8d565b610600565b9050919050565b6000819050919050565b610acc83610a97565b610ae0610ad882610ab9565b848454610a3b565b825550505050565b600090565b610af5610ae8565b610b00818484610ac3565b505050565b5b81811015610b2457610b19600082610aed565b600181019050610b06565b5050565b601f821115610b6957610b3a81610a09565b610b4384610a1e565b81016020851015610b52578190505b610b66610b5e85610a1e565b830182610b05565b50505b505050565b600082821c905092915050565b6000610b8c60001984600802610b6e565b1980831691505092915050565b6000610ba58383610b7b565b9150826002028217905092915050565b610bbe8261087f565b67ffffffffffffffff811115610bd757610bd6610651565b5b610be182546109d8565b610bec828285610b28565b600060209050601f831160018114610c1f5760008415610c0d578287015190505b610c178582610b99565b865550610c7f565b601f198416610c2d86610a09565b60005b82811015610c5557848901518255600182019150602085019450602081019050610c30565b86831015610c725784890151610c6e601f891682610b7b565b8355505b6001600288020188555050505b505050505050565b7f4e487b7100000000000000000000000000000000000000000000000000000000600052601160045260246000fd5b6000610cc182610600565b9150610ccc83610600565b9250828203905081811115610ce457610ce3610c87565b5b92915050565b7f4e487b7100000000000000000000000000000000000000000000000000000000600052603260045260246000fd5b600081549050610d28816109d8565b9050919050565b818103610d3d575050610e15565b610d4682610d19565b67ffffffffffffffff811115610d5f57610d5e610651565b5b610d6982546109d8565b610d74828285610b28565b6000601f831160018114610da35760008415610d91578287015490505b610d9b8582610b99565b865550610e0e565b601f198416610db187610a09565b9650610dbc86610a09565b60005b82811015610de457848901548255600182019150600185019450602081019050610dbf565b86831015610e015784890154610dfd601f891682610b7b565b8355505b6001600288020188555050505b5050505050505b56fea2646970667358221220e9b2f09023aa9b8d519753998cf0b16a99e5c703afbd4db85e6d2ce13065cb5364736f6c63430008120033",
					"opcodes": "PUSH1 0x80 PUSH1 0x40 MSTORE CALLVALUE DUP1 ISZERO PUSH2 0x10 JUMPI PUSH1 0x0 DUP1 REVERT JUMPDEST POP PUSH2 0xE4D DUP1 PUSH2 0x20 PUSH1 0x0 CODECOPY PUSH1 0x0 RETURN INVALID PUSH1 0x80 PUSH1 0x40 MSTORE CALLVALUE DUP1 ISZERO PUSH2 0x10 JUMPI PUSH1 0x0 DUP1 REVERT JUMPDEST POP PUSH1 0x4 CALLDATASIZE LT PUSH2 0x7D JUMPI PUSH1 0x0 CALLDATALOAD PUSH1 0xE0 SHR DUP1 PUSH4 0x6DB75504 GT PUSH2 0x5B JUMPI DUP1 PUSH4 0x6DB75504 EQ PUSH2 0xEC JUMPI DUP1 PUSH4 0xBE1C766B EQ PUSH2 0xF6 JUMPI DUP1 PUSH4 0xCD914DEF EQ PUSH2 0x114 JUMPI DUP1 PUSH4 0xD82CF790 EQ PUSH2 0x130 JUMPI PUSH2 0x7D JUMP JUMPDEST DUP1 PUSH4 0x1908791C EQ PUSH2 0x82 JUMPI DUP1 PUSH4 0x39139225 EQ PUSH2 0x9E JUMPI DUP1 PUSH4 0x626C525C EQ PUSH2 0xCE JUMPI JUMPDEST PUSH1 0x0 DUP1 REVERT JUMPDEST PUSH2 0x9C PUSH1 0x4 DUP1 CALLDATASIZE SUB DUP2 ADD SWAP1 PUSH2 0x97 SWAP2 SWAP1 PUSH2 0x7D4 JUMP JUMPDEST PUSH2 0x160 JUMP JUMPDEST STOP JUMPDEST PUSH2 0xB8 PUSH1 0x4 DUP1 CALLDATASIZE SUB DUP2 ADD SWAP1 PUSH2 0xB3 SWAP2 SWAP1 PUSH2 0x843 JUMP JUMPDEST PUSH2 0x1E7 JUMP JUMPDEST PUSH1 0x40 MLOAD PUSH2 0xC5 SWAP2 SWAP1 PUSH2 0x95D JUMP JUMPDEST PUSH1 0x40 MLOAD DUP1 SWAP2 SUB SWAP1 RETURN JUMPDEST PUSH2 0xD6 PUSH2 0x324 JUMP JUMPDEST PUSH1 0x40 MLOAD PUSH2 0xE3 SWAP2 SWAP1 PUSH2 0x95D JUMP JUMPDEST PUSH1 0x40 MLOAD DUP1 SWAP2 SUB SWAP1 RETURN JUMPDEST PUSH2 0xF4 PUSH2 0x433 JUMP JUMPDEST STOP JUMPDEST PUSH2 0xFE PUSH2 0x4B2 JUMP JUMPDEST PUSH1 0x40 MLOAD PUSH2 0x10B SWAP2 SWAP1 PUSH2 0x98E JUMP JUMPDEST PUSH1 0x40 MLOAD DUP1 SWAP2 SUB SWAP1 RETURN JUMPDEST PUSH2 0x12E PUSH1 0x4 DUP1 CALLDATASIZE SUB DUP2 ADD SWAP1 PUSH2 0x129 SWAP2 SWAP1 PUSH2 0x7D4 JUMP JUMPDEST PUSH2 0x4BF JUMP JUMPDEST STOP JUMPDEST PUSH2 0x14A PUSH1 0x4 DUP1 CALLDATASIZE SUB DUP2 ADD SWAP1 PUSH2 0x145 SWAP2 SWAP1 PUSH2 0x843 JUMP JUMPDEST PUSH2 0x56F JUMP JUMPDEST PUSH1 0x40 MLOAD PUSH2 0x157 SWAP2 SWAP1 PUSH2 0x98E JUMP JUMPDEST PUSH1 0x40 MLOAD DUP1 SWAP2 SUB SWAP1 RETURN JUMPDEST PUSH1 0x40 MLOAD DUP1 PUSH1 0x60 ADD PUSH1 0x40 MSTORE DUP1 DUP5 DUP2 MSTORE PUSH1 0x20 ADD DUP4 DUP2 MSTORE PUSH1 0x20 ADD DUP3 PUSH30 0xFFFFFFFFFFFFFFFFFFFFFFFFFFFFFFFFFFFFFFFFFFFFFFFFFFFFFFFFFFFF NOT AND DUP2 MSTORE POP PUSH1 0x0 DUP1 DUP3 ADD MLOAD DUP2 PUSH1 0x0 ADD SSTORE PUSH1 0x20 DUP3 ADD MLOAD DUP2 PUSH1 0x1 ADD SWAP1 DUP2 PUSH2 0x1BC SWAP2 SWAP1 PUSH2 0xBB5 JUMP JUMPDEST POP PUSH1 0x40 DUP3 ADD MLOAD DUP2 PUSH1 0x2 ADD PUSH1 0x0 PUSH2 0x100 EXP DUP2 SLOAD DUP2 PUSH2 0xFFFF MUL NOT AND SWAP1 DUP4 PUSH1 0xF0 SHR MUL OR SWAP1 SSTORE POP SWAP1 POP POP POP POP POP JUMP JUMPDEST PUSH2 0x1EF PUSH2 0x5AA JUMP JUMPDEST PUSH1 0x3 PUSH1 0x1 DUP4 PUSH2 0x1FE SWAP2 SWAP1 PUSH2 0xCB6 JUMP JUMPDEST DUP2 SLOAD DUP2 LT PUSH2 0x20F JUMPI PUSH2 0x20E PUSH2 0xCEA JUMP JUMPDEST JUMPDEST SWAP1 PUSH1 0x0 MSTORE PUSH1 0x20 PUSH1 0x0 KECCAK256 SWAP1 PUSH1 0x3 MUL ADD PUSH1 0x40 MLOAD DUP1 PUSH1 0x60 ADD PUSH1 0x40 MSTORE SWAP1 DUP2 PUSH1 0x0 DUP3 ADD SLOAD DUP2 MSTORE PUSH1 0x20 ADD PUSH1 0x1 DUP3 ADD DUP1 SLOAD PUSH2 0x242 SWAP1 PUSH2 0x9D8 JUMP JUMPDEST DUP1 PUSH1 0x1F ADD PUSH1 0x20 DUP1 SWAP2 DIV MUL PUSH1 0x20 ADD PUSH1 0x40 MLOAD SWAP1 DUP2 ADD PUSH1 0x40 MSTORE DUP1 SWAP3 SWAP2 SWAP1 DUP2 DUP2 MSTORE PUSH1 0x20 ADD DUP3 DUP1 SLOAD PUSH2 0x26E SWAP1 PUSH2 0x9D8 JUMP JUMPDEST DUP1 ISZERO PUSH2 0x2BB JUMPI DUP1 PUSH1 0x1F LT PUSH2 0x290 JUMPI PUSH2 0x100 DUP1 DUP4 SLOAD DIV MUL DUP4 MSTORE SWAP2 PUSH1 0x20 ADD SWAP2 PUSH2 0x2BB JUMP JUMPDEST DUP3 ADD SWAP2 SWAP1 PUSH1 0x0 MSTORE PUSH1 0x20 PUSH1 0x0 KECCAK256 SWAP1 JUMPDEST DUP2 SLOAD DUP2 MSTORE SWAP1 PUSH1 0x1 ADD SWAP1 PUSH1 0x20 ADD DUP1 DUP4 GT PUSH2 0x29E JUMPI DUP3 SWAP1 SUB PUSH1 0x1F AND DUP3 ADD SWAP2 JUMPDEST POP POP POP POP POP DUP2 MSTORE PUSH1 0x20 ADD PUSH1 0x2 DUP3 ADD PUSH1 0x0 SWAP1 SLOAD SWAP1 PUSH2 0x100 EXP SWAP1 DIV PUSH1 0xF0 SHL PUSH30 0xFFFFFFFFFFFFFFFFFFFFFFFFFFFFFFFFFFFFFFFFFFFFFFFFFFFFFFFFFFFF NOT AND PUSH30 0xFFFFFFFFFFFFFFFFFFFFFFFFFFFFFFFFFFFFFFFFFFFFFFFFFFFFFFFFFFFF NOT AND DUP2 MSTORE POP POP SWAP1 POP SWAP2 SWAP1 POP JUMP JUMPDEST PUSH2 0x32C PUSH2 0x5AA JUMP JUMPDEST PUSH1 0x0 PUSH1 0x40 MLOAD DUP1 PUSH1 0x60 ADD PUSH1 0x40 MSTORE SWAP1 DUP2 PUSH1 0x0 DUP3 ADD SLOAD DUP2 MSTORE PUSH1 0x20 ADD PUSH1 0x1 DUP3 ADD DUP1 SLOAD PUSH2 0x353 SWAP1 PUSH2 0x9D8 JUMP JUMPDEST DUP1 PUSH1 0x1F ADD PUSH1 0x20 DUP1 SWAP2 DIV MUL PUSH1 0x20 ADD PUSH1 0x40 MLOAD SWAP1 DUP2 ADD PUSH1 0x40 MSTORE DUP1 SWAP3 SWAP2 SWAP1 DUP2 DUP2 MSTORE PUSH1 0x20 ADD DUP3 DUP1 SLOAD PUSH2 0x37F SWAP1 PUSH2 0x9D8 JUMP JUMPDEST DUP1 ISZERO PUSH2 0x3CC JUMPI DUP1 PUSH1 0x1F LT PUSH2 0x3A1 JUMPI PUSH2 0x100 DUP1 DUP4 SLOAD DIV MUL DUP4 MSTORE SWAP2 PUSH1 0x20 ADD SWAP2 PUSH2 0x3CC JUMP JUMPDEST DUP3 ADD SWAP2 SWAP1 PUSH1 0x0 MSTORE PUSH1 0x20 PUSH1 0x0 KECCAK256 SWAP1 JUMPDEST DUP2 SLOAD DUP2 MSTORE SWAP1 PUSH1 0x1 ADD SWAP1 PUSH1 0x20 ADD DUP1 DUP4 GT PUSH2 0x3AF JUMPI DUP3 SWAP1 SUB PUSH1 0x1F AND DUP3 ADD SWAP2 JUMPDEST POP POP POP POP POP DUP2 MSTORE PUSH1 0x20 ADD PUSH1 0x2 DUP3 ADD PUSH1 0x0 SWAP1 SLOAD SWAP1 PUSH2 0x100 EXP SWAP1 DIV PUSH1 0xF0 SHL PUSH30 0xFFFFFFFFFFFFFFFFFFFFFFFFFFFFFFFFFFFFFFFFFFFFFFFFFFFFFFFFFFFF NOT AND PUSH30 0xFFFFFFFFFFFFFFFFFFFFFFFFFFFFFFFFFFFFFFFFFFFFFFFFFFFFFFFFFFFF NOT AND DUP2 MSTORE POP POP SWAP1 POP SWAP1 JUMP JUMPDEST PUSH1 0x3 PUSH1 0x0 SWAP1 DUP1 PUSH1 0x1 DUP2 SLOAD ADD DUP1 DUP3 SSTORE DUP1 SWAP2 POP POP PUSH1 0x1 SWAP1 SUB SWAP1 PUSH1 0x0 MSTORE PUSH1 0x20 PUSH1 0x0 KECCAK256 SWAP1 PUSH1 0x3 MUL ADD PUSH1 0x0 SWAP1 SWAP2 SWAP1 SWAP2 SWAP1 SWAP2 POP PUSH1 0x0 DUP3 ADD SLOAD DUP2 PUSH1 0x0 ADD SSTORE PUSH1 0x1 DUP3 ADD DUP2 PUSH1 0x1 ADD SWAP1 DUP2 PUSH2 0x47E SWAP2 SWAP1 PUSH2 0xD2F JUMP JUMPDEST POP PUSH1 0x2 DUP3 ADD PUSH1 0x0 SWAP1 SLOAD SWAP1 PUSH2 0x100 EXP SWAP1 DIV PUSH1 0xF0 SHL DUP2 PUSH1 0x2 ADD PUSH1 0x0 PUSH2 0x100 EXP DUP2 SLOAD DUP2 PUSH2 0xFFFF MUL NOT AND SWAP1 DUP4 PUSH1 0xF0 SHR MUL OR SWAP1 SSTORE POP POP POP JUMP JUMPDEST PUSH1 0x0 PUSH1 0x3 DUP1 SLOAD SWAP1 POP SWAP1 POP SWAP1 JUMP JUMPDEST PUSH1 0x3 PUSH1 0x40 MLOAD DUP1 PUSH1 0x60 ADD PUSH1 0x40 MSTORE DUP1 DUP6 DUP2 MSTORE PUSH1 0x20 ADD DUP5 DUP2 MSTORE PUSH1 0x20 ADD DUP4 PUSH30 0xFFFFFFFFFFFFFFFFFFFFFFFFFFFFFFFFFFFFFFFFFFFFFFFFFFFFFFFFFFFF NOT AND DUP2 MSTORE POP SWAP1 DUP1 PUSH1 0x1 DUP2 SLOAD ADD DUP1 DUP3 SSTORE DUP1 SWAP2 POP POP PUSH1 0x1 SWAP1 SUB SWAP1 PUSH1 0x0 MSTORE PUSH1 0x20 PUSH1 0x0 KECCAK256 SWAP1 PUSH1 0x3 MUL ADD PUSH1 0x0 SWAP1 SWAP2 SWAP1 SWAP2 SWAP1 SWAP2 POP PUSH1 0x0 DUP3 ADD MLOAD DUP2 PUSH1 0x0 ADD SSTORE PUSH1 0x20 DUP3 ADD MLOAD DUP2 PUSH1 0x1 ADD SWAP1 DUP2 PUSH2 0x545 SWAP2 SWAP1 PUSH2 0xBB5 JUMP JUMPDEST POP PUSH1 0x40 DUP3 ADD MLOAD DUP2 PUSH1 0x2 ADD PUSH1 0x0 PUSH2 0x100 EXP DUP2 SLOAD DUP2 PUSH2 0xFFFF MUL NOT AND SWAP1 DUP4 PUSH1 0xF0 SHR MUL OR SWAP1 SSTORE POP POP POP POP POP POP JUMP JUMPDEST PUSH1 0x0 PUSH1 0x3 PUSH1 0x1 DUP4 PUSH2 0x580 SWAP2 SWAP1 PUSH2 0xCB6 JUMP JUMPDEST DUP2 SLOAD DUP2 LT PUSH2 0x591 JUMPI PUSH2 0x590 PUSH2 0xCEA JUMP JUMPDEST JUMPDEST SWAP1 PUSH1 0x0 MSTORE PUSH1 0x20 PUSH1 0x0 KECCAK256 SWAP1 PUSH1 0x3 MUL ADD PUSH1 0x0 ADD SLOAD SWAP1 POP SWAP2 SWAP1 POP JUMP JUMPDEST PUSH1 0x40 MLOAD DUP1 PUSH1 0x60 ADD PUSH1 0x40 MSTORE DUP1 PUSH1 0x0 DUP2 MSTORE PUSH1 0x20 ADD PUSH1 0x60 DUP2 MSTORE PUSH1 0x20 ADD PUSH1 0x0 PUSH30 0xFFFFFFFFFFFFFFFFFFFFFFFFFFFFFFFFFFFFFFFFFFFFFFFFFFFFFFFFFFFF NOT AND DUP2 MSTORE POP SWAP1 JUMP JUMPDEST PUSH1 0x0 PUSH1 0x40 MLOAD SWAP1 POP SWAP1 JUMP JUMPDEST PUSH1 0x0 DUP1 REVERT JUMPDEST PUSH1 0x0 DUP1 REVERT JUMPDEST PUSH1 0x0 DUP2 SWAP1 POP SWAP2 SWAP1 POP JUMP JUMPDEST PUSH2 0x613 DUP2 PUSH2 0x600 JUMP JUMPDEST DUP2 EQ PUSH2 0x61E JUMPI PUSH1 0x0 DUP1 REVERT JUMPDEST POP JUMP JUMPDEST PUSH1 0x0 DUP2 CALLDATALOAD SWAP1 POP PUSH2 0x630 DUP2 PUSH2 0x60A JUMP JUMPDEST SWAP3 SWAP2 POP POP JUMP JUMPDEST PUSH1 0x0 DUP1 REVERT JUMPDEST PUSH1 0x0 DUP1 REVERT JUMPDEST PUSH1 0x0 PUSH1 0x1F NOT PUSH1 0x1F DUP4 ADD AND SWAP1 POP SWAP2 SWAP1 POP JUMP JUMPDEST PUSH32 0x4E487B7100000000000000000000000000000000000000000000000000000000 PUSH1 0x0 MSTORE PUSH1 0x41 PUSH1 0x4 MSTORE PUSH1 0x24 PUSH1 0x0 REVERT JUMPDEST PUSH2 0x689 DUP3 PUSH2 0x640 JUMP JUMPDEST DUP2 ADD DUP2 DUP2 LT PUSH8 0xFFFFFFFFFFFFFFFF DUP3 GT OR ISZERO PUSH2 0x6A8 JUMPI PUSH2 0x6A7 PUSH2 0x651 JUMP JUMPDEST JUMPDEST DUP1 PUSH1 0x40 MSTORE POP POP POP JUMP JUMPDEST PUSH1 0x0 PUSH2 0x6BB PUSH2 0x5EC JUMP JUMPDEST SWAP1 POP PUSH2 0x6C7 DUP3 DUP3 PUSH2 0x680 JUMP JUMPDEST SWAP2 SWAP1 POP JUMP JUMPDEST PUSH1 0x0 PUSH8 0xFFFFFFFFFFFFFFFF DUP3 GT ISZERO PUSH2 0x6E7 JUMPI PUSH2 0x6E6 PUSH2 0x651 JUMP JUMPDEST JUMPDEST PUSH2 0x6F0 DUP3 PUSH2 0x640 JUMP JUMPDEST SWAP1 POP PUSH1 0x20 DUP2 ADD SWAP1 POP SWAP2 SWAP1 POP JUMP JUMPDEST DUP3 DUP2 DUP4 CALLDATACOPY PUSH1 0x0 DUP4 DUP4 ADD MSTORE POP POP POP JUMP JUMPDEST PUSH1 0x0 PUSH2 0x71F PUSH2 0x71A DUP5 PUSH2 0x6CC JUMP JUMPDEST PUSH2 0x6B1 JUMP JUMPDEST SWAP1 POP DUP3 DUP2 MSTORE PUSH1 0x20 DUP2 ADD DUP5 DUP5 DUP5 ADD GT ISZERO PUSH2 0x73B JUMPI PUSH2 0x73A PUSH2 0x63B JUMP JUMPDEST JUMPDEST PUSH2 0x746 DUP5 DUP3 DUP6 PUSH2 0x6FD JUMP JUMPDEST POP SWAP4 SWAP3 POP POP POP JUMP JUMPDEST PUSH1 0x0 DUP3 PUSH1 0x1F DUP4 ADD SLT PUSH2 0x763 JUMPI PUSH2 0x762 PUSH2 0x636 JUMP JUMPDEST JUMPDEST DUP2 CALLDATALOAD PUSH2 0x773 DUP5 DUP3 PUSH1 0x20 DUP7 ADD PUSH2 0x70C JUMP JUMPDEST SWAP2 POP POP SWAP3 SWAP2 POP POP JUMP JUMPDEST PUSH1 0x0 PUSH32 0xFFFF000000000000000000000000000000000000000000000000000000000000 DUP3 AND SWAP1 POP SWAP2 SWAP1 POP JUMP JUMPDEST PUSH2 0x7B1 DUP2 PUSH2 0x77C JUMP JUMPDEST DUP2 EQ PUSH2 0x7BC JUMPI PUSH1 0x0 DUP1 REVERT JUMPDEST POP JUMP JUMPDEST PUSH1 0x0 DUP2 CALLDATALOAD SWAP1 POP PUSH2 0x7CE DUP2 PUSH2 0x7A8 JUMP JUMPDEST SWAP3 SWAP2 POP POP JUMP JUMPDEST PUSH1 0x0 DUP1 PUSH1 0x0 PUSH1 0x60 DUP5 DUP7 SUB SLT ISZERO PUSH2 0x7ED JUMPI PUSH2 0x7EC PUSH2 0x5F6 JUMP JUMPDEST JUMPDEST PUSH1 0x0 PUSH2 0x7FB DUP7 DUP3 DUP8 ADD PUSH2 0x621 JUMP JUMPDEST SWAP4 POP POP PUSH1 0x20 DUP5 ADD CALLDATALOAD PUSH8 0xFFFFFFFFFFFFFFFF DUP2 GT ISZERO PUSH2 0x81C JUMPI PUSH2 0x81B PUSH2 0x5FB JUMP JUMPDEST JUMPDEST PUSH2 0x828 DUP7 DUP3 DUP8 ADD PUSH2 0x74E JUMP JUMPDEST SWAP3 POP POP PUSH1 0x40 PUSH2 0x839 DUP7 DUP3 DUP8 ADD PUSH2 0x7BF JUMP JUMPDEST SWAP2 POP POP SWAP3 POP SWAP3 POP SWAP3 JUMP JUMPDEST PUSH1 0x0 PUSH1 0x20 DUP3 DUP5 SUB SLT ISZERO PUSH2 0x859 JUMPI PUSH2 0x858 PUSH2 0x5F6 JUMP JUMPDEST JUMPDEST PUSH1 0x0 PUSH2 0x867 DUP5 DUP3 DUP6 ADD PUSH2 0x621 JUMP JUMPDEST SWAP2 POP POP SWAP3 SWAP2 POP POP JUMP JUMPDEST PUSH2 0x879 DUP2 PUSH2 0x600 JUMP JUMPDEST DUP3 MSTORE POP POP JUMP JUMPDEST PUSH1 0x0 DUP2 MLOAD SWAP1 POP SWAP2 SWAP1 POP JUMP JUMPDEST PUSH1 0x0 DUP3 DUP3 MSTORE PUSH1 0x20 DUP3 ADD SWAP1 POP SWAP3 SWAP2 POP POP JUMP JUMPDEST PUSH1 0x0 JUMPDEST DUP4 DUP2 LT ISZERO PUSH2 0x8B9 JUMPI DUP1 DUP3 ADD MLOAD DUP2 DUP5 ADD MSTORE PUSH1 0x20 DUP2 ADD SWAP1 POP PUSH2 0x89E JUMP JUMPDEST PUSH1 0x0 DUP5 DUP5 ADD MSTORE POP POP POP POP JUMP JUMPDEST PUSH1 0x0 PUSH2 0x8D0 DUP3 PUSH2 0x87F JUMP JUMPDEST PUSH2 0x8DA DUP2 DUP6 PUSH2 0x88A JUMP JUMPDEST SWAP4 POP PUSH2 0x8EA DUP2 DUP6 PUSH1 0x20 DUP7 ADD PUSH2 0x89B JUMP JUMPDEST PUSH2 0x8F3 DUP2 PUSH2 0x640 JUMP JUMPDEST DUP5 ADD SWAP2 POP POP SWAP3 SWAP2 POP POP JUMP JUMPDEST PUSH2 0x907 DUP2 PUSH2 0x77C JUMP JUMPDEST DUP3 MSTORE POP POP JUMP JUMPDEST PUSH1 0x0 PUSH1 0x60 DUP4 ADD PUSH1 0x0 DUP4 ADD MLOAD PUSH2 0x925 PUSH1 0x0 DUP7 ADD DUP3 PUSH2 0x870 JUMP JUMPDEST POP PUSH1 0x20 DUP4 ADD MLOAD DUP5 DUP3 SUB PUSH1 0x20 DUP7 ADD MSTORE PUSH2 0x93D DUP3 DUP3 PUSH2 0x8C5 JUMP JUMPDEST SWAP2 POP POP PUSH1 0x40 DUP4 ADD MLOAD PUSH2 0x952 PUSH1 0x40 DUP7 ADD DUP3 PUSH2 0x8FE JUMP JUMPDEST POP DUP1 SWAP2 POP POP SWAP3 SWAP2 POP POP JUMP JUMPDEST PUSH1 0x0 PUSH1 0x20 DUP3 ADD SWAP1 POP DUP2 DUP2 SUB PUSH1 0x0 DUP4 ADD MSTORE PUSH2 0x977 DUP2 DUP5 PUSH2 0x90D JUMP JUMPDEST SWAP1 POP SWAP3 SWAP2 POP POP JUMP JUMPDEST PUSH2 0x988 DUP2 PUSH2 0x600 JUMP JUMPDEST DUP3 MSTORE POP POP JUMP JUMPDEST PUSH1 0x0 PUSH1 0x20 DUP3 ADD SWAP1 POP PUSH2 0x9A3 PUSH1 0x0 DUP4 ADD DUP5 PUSH2 0x97F JUMP JUMPDEST SWAP3 SWAP2 POP POP JUMP JUMPDEST PUSH32 0x4E487B7100000000000000000000000000000000000000000000000000000000 PUSH1 0x0 MSTORE PUSH1 0x22 PUSH1 0x4 MSTORE PUSH1 0x24 PUSH1 0x0 REVERT JUMPDEST PUSH1 0x0 PUSH1 0x2 DUP3 DIV SWAP1 POP PUSH1 0x1 DUP3 AND DUP1 PUSH2 0x9F0 JUMPI PUSH1 0x7F DUP3 AND SWAP2 POP JUMPDEST PUSH1 0x20 DUP3 LT DUP2 SUB PUSH2 0xA03 JUMPI PUSH2 0xA02 PUSH2 0x9A9 JUMP JUMPDEST JUMPDEST POP SWAP2 SWAP1 POP JUMP JUMPDEST PUSH1 0x0 DUP2 SWAP1 POP DUP2 PUSH1 0x0 MSTORE PUSH1 0x20 PUSH1 0x0 KECCAK256 SWAP1 POP SWAP2 SWAP1 POP JUMP JUMPDEST PUSH1 0x0 PUSH1 0x20 PUSH1 0x1F DUP4 ADD DIV SWAP1 POP SWAP2 SWAP1 POP JUMP JUMPDEST PUSH1 0x0 DUP3 DUP3 SHL SWAP1 POP SWAP3 SWAP2 POP POP JUMP JUMPDEST PUSH1 0x0 PUSH1 0x8 DUP4 MUL PUSH2 0xA6B PUSH32 0xFFFFFFFFFFFFFFFFFFFFFFFFFFFFFFFFFFFFFFFFFFFFFFFFFFFFFFFFFFFFFFFF DUP3 PUSH2 0xA2E JUMP JUMPDEST PUSH2 0xA75 DUP7 DUP4 PUSH2 0xA2E JUMP JUMPDEST SWAP6 POP DUP1 NOT DUP5 AND SWAP4 POP DUP1 DUP7 AND DUP5 OR SWAP3 POP POP POP SWAP4 SWAP3 POP POP POP JUMP JUMPDEST PUSH1 0x0 DUP2 SWAP1 POP SWAP2 SWAP1 POP JUMP JUMPDEST PUSH1 0x0 PUSH2 0xAB2 PUSH2 0xAAD PUSH2 0xAA8 DUP5 PUSH2 0x600 JUMP JUMPDEST PUSH2 0xA8D JUMP JUMPDEST PUSH2 0x600 JUMP JUMPDEST SWAP1 POP SWAP2 SWAP1 POP JUMP JUMPDEST PUSH1 0x0 DUP2 SWAP1 POP SWAP2 SWAP1 POP JUMP JUMPDEST PUSH2 0xACC DUP4 PUSH2 0xA97 JUMP JUMPDEST PUSH2 0xAE0 PUSH2 0xAD8 DUP3 PUSH2 0xAB9 JUMP JUMPDEST DUP5 DUP5 SLOAD PUSH2 0xA3B JUMP JUMPDEST DUP3 SSTORE POP POP POP POP JUMP JUMPDEST PUSH1 0x0 SWAP1 JUMP JUMPDEST PUSH2 0xAF5 PUSH2 0xAE8 JUMP JUMPDEST PUSH2 0xB00 DUP2 DUP5 DUP5 PUSH2 0xAC3 JUMP JUMPDEST POP POP POP JUMP JUMPDEST JUMPDEST DUP2 DUP2 LT ISZERO PUSH2 0xB24 JUMPI PUSH2 0xB19 PUSH1 0x0 DUP3 PUSH2 0xAED JUMP JUMPDEST PUSH1 0x1 DUP2 ADD SWAP1 POP PUSH2 0xB06 JUMP JUMPDEST POP POP JUMP JUMPDEST PUSH1 0x1F DUP3 GT ISZERO PUSH2 0xB69 JUMPI PUSH2 0xB3A DUP2 PUSH2 0xA09 JUMP JUMPDEST PUSH2 0xB43 DUP5 PUSH2 0xA1E JUMP JUMPDEST DUP2 ADD PUSH1 0x20 DUP6 LT ISZERO PUSH2 0xB52 JUMPI DUP2 SWAP1 POP JUMPDEST PUSH2 0xB66 PUSH2 0xB5E DUP6 PUSH2 0xA1E JUMP JUMPDEST DUP4 ADD DUP3 PUSH2 0xB05 JUMP JUMPDEST POP POP JUMPDEST POP POP POP JUMP JUMPDEST PUSH1 0x0 DUP3 DUP3 SHR SWAP1 POP SWAP3 SWAP2 POP POP JUMP JUMPDEST PUSH1 0x0 PUSH2 0xB8C PUSH1 0x0 NOT DUP5 PUSH1 0x8 MUL PUSH2 0xB6E JUMP JUMPDEST NOT DUP1 DUP4 AND SWAP2 POP POP SWAP3 SWAP2 POP POP JUMP JUMPDEST PUSH1 0x0 PUSH2 0xBA5 DUP4 DUP4 PUSH2 0xB7B JUMP JUMPDEST SWAP2 POP DUP3 PUSH1 0x2 MUL DUP3 OR SWAP1 POP SWAP3 SWAP2 POP POP JUMP JUMPDEST PUSH2 0xBBE DUP3 PUSH2 0x87F JUMP JUMPDEST PUSH8 0xFFFFFFFFFFFFFFFF DUP2 GT ISZERO PUSH2 0xBD7 JUMPI PUSH2 0xBD6 PUSH2 0x651 JUMP JUMPDEST JUMPDEST PUSH2 0xBE1 DUP3 SLOAD PUSH2 0x9D8 JUMP JUMPDEST PUSH2 0xBEC DUP3 DUP3 DUP6 PUSH2 0xB28 JUMP JUMPDEST PUSH1 0x0 PUSH1 0x20 SWAP1 POP PUSH1 0x1F DUP4 GT PUSH1 0x1 DUP2 EQ PUSH2 0xC1F JUMPI PUSH1 0x0 DUP5 ISZERO PUSH2 0xC0D JUMPI DUP3 DUP8 ADD MLOAD SWAP1 POP JUMPDEST PUSH2 0xC17 DUP6 DUP3 PUSH2 0xB99 JUMP JUMPDEST DUP7 SSTORE POP PUSH2 0xC7F JUMP JUMPDEST PUSH1 0x1F NOT DUP5 AND PUSH2 0xC2D DUP7 PUSH2 0xA09 JUMP JUMPDEST PUSH1 0x0 JUMPDEST DUP3 DUP2 LT ISZERO PUSH2 0xC55 JUMPI DUP5 DUP10 ADD MLOAD DUP3 SSTORE PUSH1 0x1 DUP3 ADD SWAP2 POP PUSH1 0x20 DUP6 ADD SWAP5 POP PUSH1 0x20 DUP2 ADD SWAP1 POP PUSH2 0xC30 JUMP JUMPDEST DUP7 DUP4 LT ISZERO PUSH2 0xC72 JUMPI DUP5 DUP10 ADD MLOAD PUSH2 0xC6E PUSH1 0x1F DUP10 AND DUP3 PUSH2 0xB7B JUMP JUMPDEST DUP4 SSTORE POP JUMPDEST PUSH1 0x1 PUSH1 0x2 DUP9 MUL ADD DUP9 SSTORE POP POP POP JUMPDEST POP POP POP POP POP POP JUMP JUMPDEST PUSH32 0x4E487B7100000000000000000000000000000000000000000000000000000000 PUSH1 0x0 MSTORE PUSH1 0x11 PUSH1 0x4 MSTORE PUSH1 0x24 PUSH1 0x0 REVERT JUMPDEST PUSH1 0x0 PUSH2 0xCC1 DUP3 PUSH2 0x600 JUMP JUMPDEST SWAP2 POP PUSH2 0xCCC DUP4 PUSH2 0x600 JUMP JUMPDEST SWAP3 POP DUP3 DUP3 SUB SWAP1 POP DUP2 DUP2 GT ISZERO PUSH2 0xCE4 JUMPI PUSH2 0xCE3 PUSH2 0xC87 JUMP JUMPDEST JUMPDEST SWAP3 SWAP2 POP POP JUMP JUMPDEST PUSH32 0x4E487B7100000000000000000000000000000000000000000000000000000000 PUSH1 0x0 MSTORE PUSH1 0x32 PUSH1 0x4 MSTORE PUSH1 0x24 PUSH1 0x0 REVERT JUMPDEST PUSH1 0x0 DUP2 SLOAD SWAP1 POP PUSH2 0xD28 DUP2 PUSH2 0x9D8 JUMP JUMPDEST SWAP1 POP SWAP2 SWAP1 POP JUMP JUMPDEST DUP2 DUP2 SUB PUSH2 0xD3D JUMPI POP POP PUSH2 0xE15 JUMP JUMPDEST PUSH2 0xD46 DUP3 PUSH2 0xD19 JUMP JUMPDEST PUSH8 0xFFFFFFFFFFFFFFFF DUP2 GT ISZERO PUSH2 0xD5F JUMPI PUSH2 0xD5E PUSH2 0x651 JUMP JUMPDEST JUMPDEST PUSH2 0xD69 DUP3 SLOAD PUSH2 0x9D8 JUMP JUMPDEST PUSH2 0xD74 DUP3 DUP3 DUP6 PUSH2 0xB28 JUMP JUMPDEST PUSH1 0x0 PUSH1 0x1F DUP4 GT PUSH1 0x1 DUP2 EQ PUSH2 0xDA3 JUMPI PUSH1 0x0 DUP5 ISZERO PUSH2 0xD91 JUMPI DUP3 DUP8 ADD SLOAD SWAP1 POP JUMPDEST PUSH2 0xD9B DUP6 DUP3 PUSH2 0xB99 JUMP JUMPDEST DUP7 SSTORE POP PUSH2 0xE0E JUMP JUMPDEST PUSH1 0x1F NOT DUP5 AND PUSH2 0xDB1 DUP8 PUSH2 0xA09 JUMP JUMPDEST SWAP7 POP PUSH2 0xDBC DUP7 PUSH2 0xA09 JUMP JUMPDEST PUSH1 0x0 JUMPDEST DUP3 DUP2 LT ISZERO PUSH2 0xDE4 JUMPI DUP5 DUP10 ADD SLOAD DUP3 SSTORE PUSH1 0x1 DUP3 ADD SWAP2 POP PUSH1 0x1 DUP6 ADD SWAP5 POP PUSH1 0x20 DUP2 ADD SWAP1 POP PUSH2 0xDBF JUMP JUMPDEST DUP7 DUP4 LT ISZERO PUSH2 0xE01 JUMPI DUP5 DUP10 ADD SLOAD PUSH2 0xDFD PUSH1 0x1F DUP10 AND DUP3 PUSH2 0xB7B JUMP JUMPDEST DUP4 SSTORE POP JUMPDEST PUSH1 0x1 PUSH1 0x2 DUP9 MUL ADD DUP9 SSTORE POP POP POP JUMPDEST POP POP POP POP POP POP JUMPDEST JUMP INVALID LOG2 PUSH5 0x6970667358 0x22 SLT KECCAK256 0xE9 0xB2 CREATE SWAP1 0x23 0xAA SWAP12 DUP14 MLOAD SWAP8 MSTORE8 SWAP10 DUP13 CREATE 0xB1 PUSH11 0x99E5C703AFBD4DB85E6D2C 0xE1 ADDRESS PUSH6 0xCB5364736F6C PUSH4 0x43000812 STOP CALLER "
				},
				"gasEstimates": {
					"creation": {
						"codeDepositCost": "732200",
						"executionCost": "766",
						"totalCost": "732966"
					},
					"external": {
						"getA(uint256)": "infinite",
						"getDD()": "infinite",
						"getLength()": "2467",
						"getN(uint256)": "infinite",
						"pushD(uint256,string,bytes2)": "infinite",
						"pushD2()": "infinite",
						"setDD(uint256,string,bytes2)": "infinite"
					}
				},
				"methodIdentifiers": {
					"getA(uint256)": "d82cf790",
					"getDD()": "626c525c",
					"getLength()": "be1c766b",
					"getN(uint256)": "39139225",
					"pushD(uint256,string,bytes2)": "cd914def",
					"pushD2()": "6db75504",
					"setDD(uint256,string,bytes2)": "1908791c"
				}
			},
			"storageLayout": {
				"storage": [
					{
						"astId": 11,
						"contract": "contracts-lecture/230508-test.sol:note1",
						"label": "dd",
						"offset": 0,
						"slot": "0",
						"type": "t_struct(D)8_storage"
					},
					{
						"astId": 42,
						"contract": "contracts-lecture/230508-test.sol:note1",
						"label": "Ds",
						"offset": 0,
						"slot": "3",
						"type": "t_array(t_struct(D)8_storage)dyn_storage"
					}
				],
				"types": {
					"t_array(t_struct(D)8_storage)dyn_storage": {
						"base": "t_struct(D)8_storage",
						"encoding": "dynamic_array",
						"label": "struct note1.D[]",
						"numberOfBytes": "32"
					},
					"t_bytes2": {
						"encoding": "inplace",
						"label": "bytes2",
						"numberOfBytes": "2"
					},
					"t_string_storage": {
						"encoding": "bytes",
						"label": "string",
						"numberOfBytes": "32"
					},
					"t_struct(D)8_storage": {
						"encoding": "inplace",
						"label": "struct note1.D",
						"members": [
							{
								"astId": 3,
								"contract": "contracts-lecture/230508-test.sol:note1",
								"label": "a",
								"offset": 0,
								"slot": "0",
								"type": "t_uint256"
							},
							{
								"astId": 5,
								"contract": "contracts-lecture/230508-test.sol:note1",
								"label": "b",
								"offset": 0,
								"slot": "1",
								"type": "t_string_storage"
							},
							{
								"astId": 7,
								"contract": "contracts-lecture/230508-test.sol:note1",
								"label": "c",
								"offset": 0,
								"slot": "2",
								"type": "t_bytes2"
							}
						],
						"numberOfBytes": "96"
					},
					"t_uint256": {
						"encoding": "inplace",
						"label": "uint256",
						"numberOfBytes": "32"
					}
				}
			},
			"userdoc": {
				"kind": "user",
				"methods": {},
				"version": 1
			}
		}
	}
}