{
	"contracts-lecture/230508-test.sol": {
		"note2": {
			"abi": [
				{
					"inputs": [],
					"name": "getA",
					"outputs": [
						{
							"internalType": "address",
							"name": "",
							"type": "address"
						}
					],
					"stateMutability": "view",
					"type": "function"
				},
				{
					"inputs": [],
					"name": "getA2",
					"outputs": [
						{
							"internalType": "bytes20",
							"name": "",
							"type": "bytes20"
						}
					],
					"stateMutability": "view",
					"type": "function"
				},
				{
					"inputs": [],
					"name": "getAddress",
					"outputs": [
						{
							"internalType": "address",
							"name": "",
							"type": "address"
						}
					],
					"stateMutability": "view",
					"type": "function"
				},
				{
					"inputs": [],
					"name": "getContractBalance",
					"outputs": [
						{
							"internalType": "uint256",
							"name": "",
							"type": "uint256"
						}
					],
					"stateMutability": "view",
					"type": "function"
				},
				{
					"inputs": [],
					"name": "getMyAddress",
					"outputs": [
						{
							"internalType": "address",
							"name": "",
							"type": "address"
						}
					],
					"stateMutability": "view",
					"type": "function"
				},
				{
					"inputs": [],
					"name": "getMyBalance",
					"outputs": [
						{
							"internalType": "uint256",
							"name": "",
							"type": "uint256"
						}
					],
					"stateMutability": "view",
					"type": "function"
				},
				{
					"inputs": [
						{
							"internalType": "address",
							"name": "_a",
							"type": "address"
						}
					],
					"name": "setA",
					"outputs": [],
					"stateMutability": "nonpayable",
					"type": "function"
				},
				{
					"inputs": [
						{
							"internalType": "bytes20",
							"name": "_a",
							"type": "bytes20"
						}
					],
					"name": "setA2",
					"outputs": [],
					"stateMutability": "nonpayable",
					"type": "function"
				}
			],
			"devdoc": {
				"kind": "dev",
				"methods": {},
				"version": 1
			},
			"evm": {
				"assembly": "    /* \"contracts-lecture/230508-test.sol\":790:1529  contract note2 {... */\n  mstore(0x40, 0x80)\n  callvalue\n  dup1\n  iszero\n  tag_1\n  jumpi\n  0x00\n  dup1\n  revert\ntag_1:\n  pop\n  dataSize(sub_0)\n  dup1\n  dataOffset(sub_0)\n  0x00\n  codecopy\n  0x00\n  return\nstop\n\nsub_0: assembly {\n        /* \"contracts-lecture/230508-test.sol\":790:1529  contract note2 {... */\n      mstore(0x40, 0x80)\n      callvalue\n      dup1\n      iszero\n      tag_1\n      jumpi\n      0x00\n      dup1\n      revert\n    tag_1:\n      pop\n      jumpi(tag_2, lt(calldatasize, 0x04))\n      shr(0xe0, calldataload(0x00))\n      dup1\n      0x9a166299\n      gt\n      tag_11\n      jumpi\n      dup1\n      0x9a166299\n      eq\n      tag_7\n      jumpi\n      dup1\n      0x9e8994bd\n      eq\n      tag_8\n      jumpi\n      dup1\n      0xd46300fd\n      eq\n      tag_9\n      jumpi\n      dup1\n      0xf95a0ad2\n      eq\n      tag_10\n      jumpi\n      jump(tag_2)\n    tag_11:\n      dup1\n      0x38cc4831\n      eq\n      tag_3\n      jumpi\n      dup1\n      0x3c60e808\n      eq\n      tag_4\n      jumpi\n      dup1\n      0x4c738909\n      eq\n      tag_5\n      jumpi\n      dup1\n      0x6f9fb98a\n      eq\n      tag_6\n      jumpi\n    tag_2:\n      0x00\n      dup1\n      revert\n        /* \"contracts-lecture/230508-test.sol\":827:915  function getAddress() public view returns(address) {... */\n    tag_3:\n      tag_12\n      tag_13\n      jump\t// in\n    tag_12:\n      mload(0x40)\n      tag_14\n      swap2\n      swap1\n      tag_15\n      jump\t// in\n    tag_14:\n      mload(0x40)\n      dup1\n      swap2\n      sub\n      swap1\n      return\n        /* \"contracts-lecture/230508-test.sol\":1299:1365  function setA2(bytes20 _a) public {... */\n    tag_4:\n      tag_16\n      0x04\n      dup1\n      calldatasize\n      sub\n      dup2\n      add\n      swap1\n      tag_17\n      swap2\n      swap1\n      tag_18\n      jump\t// in\n    tag_17:\n      tag_19\n      jump\t// in\n    tag_16:\n      stop\n        /* \"contracts-lecture/230508-test.sol\":1023:1124  function getMyBalance() public view returns(uint) {... */\n    tag_5:\n      tag_20\n      tag_21\n      jump\t// in\n    tag_20:\n      mload(0x40)\n      tag_22\n      swap2\n      swap1\n      tag_23\n      jump\t// in\n    tag_22:\n      mload(0x40)\n      dup1\n      swap2\n      sub\n      swap1\n      return\n        /* \"contracts-lecture/230508-test.sol\":1130:1231  function getContractBalance() public view returns(uint) {... */\n    tag_6:\n      tag_24\n      tag_25\n      jump\t// in\n    tag_24:\n      mload(0x40)\n      tag_26\n      swap2\n      swap1\n      tag_23\n      jump\t// in\n    tag_26:\n      mload(0x40)\n      dup1\n      swap2\n      sub\n      swap1\n      return\n        /* \"contracts-lecture/230508-test.sol\":921:1017  function getMyAddress() public view returns(address) {... */\n    tag_7:\n      tag_27\n      tag_28\n      jump\t// in\n    tag_27:\n      mload(0x40)\n      tag_29\n      swap2\n      swap1\n      tag_15\n      jump\t// in\n    tag_29:\n      mload(0x40)\n      dup1\n      swap2\n      sub\n      swap1\n      return\n        /* \"contracts-lecture/230508-test.sol\":1447:1527  function getA2() public view returns(bytes20) {... */\n    tag_8:\n      tag_30\n      tag_31\n      jump\t// in\n    tag_30:\n      mload(0x40)\n      tag_32\n      swap2\n      swap1\n      tag_33\n      jump\t// in\n    tag_32:\n      mload(0x40)\n      dup1\n      swap2\n      sub\n      swap1\n      return\n        /* \"contracts-lecture/230508-test.sol\":1371:1441  function getA() public view returns(address) {... */\n    tag_9:\n      tag_34\n      tag_35\n      jump\t// in\n    tag_34:\n      mload(0x40)\n      tag_36\n      swap2\n      swap1\n      tag_15\n      jump\t// in\n    tag_36:\n      mload(0x40)\n      dup1\n      swap2\n      sub\n      swap1\n      return\n        /* \"contracts-lecture/230508-test.sol\":1237:1293  function setA(address _a) public {... */\n    tag_10:\n      tag_37\n      0x04\n      dup1\n      calldatasize\n      sub\n      dup2\n      add\n      swap1\n      tag_38\n      swap2\n      swap1\n      tag_39\n      jump\t// in\n    tag_38:\n      tag_40\n      jump\t// in\n    tag_37:\n      stop\n        /* \"contracts-lecture/230508-test.sol\":827:915  function getAddress() public view returns(address) {... */\n    tag_13:\n        /* \"contracts-lecture/230508-test.sol\":869:876  address */\n      0x00\n        /* \"contracts-lecture/230508-test.sol\":903:907  this */\n      address\n        /* \"contracts-lecture/230508-test.sol\":888:908  return address(this) */\n      swap1\n      pop\n        /* \"contracts-lecture/230508-test.sol\":827:915  function getAddress() public view returns(address) {... */\n      swap1\n      jump\t// out\n        /* \"contracts-lecture/230508-test.sol\":1299:1365  function setA2(bytes20 _a) public {... */\n    tag_19:\n        /* \"contracts-lecture/230508-test.sol\":1355:1357  _a */\n      dup1\n        /* \"contracts-lecture/230508-test.sol\":1347:1358  address(_a) */\n      0x60\n      shr\n        /* \"contracts-lecture/230508-test.sol\":1343:1344  a */\n      0x00\n      dup1\n        /* \"contracts-lecture/230508-test.sol\":1343:1358  a = address(_a) */\n      0x0100\n      exp\n      dup2\n      sload\n      dup2\n      0xffffffffffffffffffffffffffffffffffffffff\n      mul\n      not\n      and\n      swap1\n      dup4\n      0xffffffffffffffffffffffffffffffffffffffff\n      and\n      mul\n      or\n      swap1\n      sstore\n      pop\n        /* \"contracts-lecture/230508-test.sol\":1299:1365  function setA2(bytes20 _a) public {... */\n      pop\n      jump\t// out\n        /* \"contracts-lecture/230508-test.sol\":1023:1124  function getMyBalance() public view returns(uint) {... */\n    tag_21:\n        /* \"contracts-lecture/230508-test.sol\":1067:1071  uint */\n      0x00\n        /* \"contracts-lecture/230508-test.sol\":1098:1108  msg.sender */\n      caller\n        /* \"contracts-lecture/230508-test.sol\":1090:1117  address(msg.sender).balance */\n      0xffffffffffffffffffffffffffffffffffffffff\n      and\n      balance\n        /* \"contracts-lecture/230508-test.sol\":1083:1117  return address(msg.sender).balance */\n      swap1\n      pop\n        /* \"contracts-lecture/230508-test.sol\":1023:1124  function getMyBalance() public view returns(uint) {... */\n      swap1\n      jump\t// out\n        /* \"contracts-lecture/230508-test.sol\":1130:1231  function getContractBalance() public view returns(uint) {... */\n    tag_25:\n        /* \"contracts-lecture/230508-test.sol\":1180:1184  uint */\n      0x00\n        /* \"contracts-lecture/230508-test.sol\":1203:1224  address(this).balance */\n      selfbalance\n        /* \"contracts-lecture/230508-test.sol\":1196:1224  return address(this).balance */\n      swap1\n      pop\n        /* \"contracts-lecture/230508-test.sol\":1130:1231  function getContractBalance() public view returns(uint) {... */\n      swap1\n      jump\t// out\n        /* \"contracts-lecture/230508-test.sol\":921:1017  function getMyAddress() public view returns(address) {... */\n    tag_28:\n        /* \"contracts-lecture/230508-test.sol\":965:972  address */\n      0x00\n        /* \"contracts-lecture/230508-test.sol\":999:1009  msg.sender */\n      caller\n        /* \"contracts-lecture/230508-test.sol\":984:1010  return address(msg.sender) */\n      swap1\n      pop\n        /* \"contracts-lecture/230508-test.sol\":921:1017  function getMyAddress() public view returns(address) {... */\n      swap1\n      jump\t// out\n        /* \"contracts-lecture/230508-test.sol\":1447:1527  function getA2() public view returns(bytes20) {... */\n    tag_31:\n        /* \"contracts-lecture/230508-test.sol\":1484:1491  bytes20 */\n      0x00\n        /* \"contracts-lecture/230508-test.sol\":1518:1519  a */\n      dup1\n      0x00\n      swap1\n      sload\n      swap1\n      0x0100\n      exp\n      swap1\n      div\n      0xffffffffffffffffffffffffffffffffffffffff\n      and\n        /* \"contracts-lecture/230508-test.sol\":1510:1520  bytes20(a) */\n      0x60\n      shl\n        /* \"contracts-lecture/230508-test.sol\":1503:1520  return bytes20(a) */\n      swap1\n      pop\n        /* \"contracts-lecture/230508-test.sol\":1447:1527  function getA2() public view returns(bytes20) {... */\n      swap1\n      jump\t// out\n        /* \"contracts-lecture/230508-test.sol\":1371:1441  function getA() public view returns(address) {... */\n    tag_35:\n        /* \"contracts-lecture/230508-test.sol\":1407:1414  address */\n      0x00\n        /* \"contracts-lecture/230508-test.sol\":1433:1434  a */\n      dup1\n      0x00\n      swap1\n      sload\n      swap1\n      0x0100\n      exp\n      swap1\n      div\n      0xffffffffffffffffffffffffffffffffffffffff\n      and\n        /* \"contracts-lecture/230508-test.sol\":1426:1434  return a */\n      swap1\n      pop\n        /* \"contracts-lecture/230508-test.sol\":1371:1441  function getA() public view returns(address) {... */\n      swap1\n      jump\t// out\n        /* \"contracts-lecture/230508-test.sol\":1237:1293  function setA(address _a) public {... */\n    tag_40:\n        /* \"contracts-lecture/230508-test.sol\":1284:1286  _a */\n      dup1\n        /* \"contracts-lecture/230508-test.sol\":1280:1281  a */\n      0x00\n      dup1\n        /* \"contracts-lecture/230508-test.sol\":1280:1286  a = _a */\n      0x0100\n      exp\n      dup2\n      sload\n      dup2\n      0xffffffffffffffffffffffffffffffffffffffff\n      mul\n      not\n      and\n      swap1\n      dup4\n      0xffffffffffffffffffffffffffffffffffffffff\n      and\n      mul\n      or\n      swap1\n      sstore\n      pop\n        /* \"contracts-lecture/230508-test.sol\":1237:1293  function setA(address _a) public {... */\n      pop\n      jump\t// out\n        /* \"#utility.yul\":7:133   */\n    tag_49:\n        /* \"#utility.yul\":44:51   */\n      0x00\n        /* \"#utility.yul\":84:126   */\n      0xffffffffffffffffffffffffffffffffffffffff\n        /* \"#utility.yul\":77:82   */\n      dup3\n        /* \"#utility.yul\":73:127   */\n      and\n        /* \"#utility.yul\":62:127   */\n      swap1\n      pop\n        /* \"#utility.yul\":7:133   */\n      swap2\n      swap1\n      pop\n      jump\t// out\n        /* \"#utility.yul\":139:235   */\n    tag_50:\n        /* \"#utility.yul\":176:183   */\n      0x00\n        /* \"#utility.yul\":205:229   */\n      tag_66\n        /* \"#utility.yul\":223:228   */\n      dup3\n        /* \"#utility.yul\":205:229   */\n      tag_49\n      jump\t// in\n    tag_66:\n        /* \"#utility.yul\":194:229   */\n      swap1\n      pop\n        /* \"#utility.yul\":139:235   */\n      swap2\n      swap1\n      pop\n      jump\t// out\n        /* \"#utility.yul\":241:359   */\n    tag_51:\n        /* \"#utility.yul\":328:352   */\n      tag_68\n        /* \"#utility.yul\":346:351   */\n      dup2\n        /* \"#utility.yul\":328:352   */\n      tag_50\n      jump\t// in\n    tag_68:\n        /* \"#utility.yul\":323:326   */\n      dup3\n        /* \"#utility.yul\":316:353   */\n      mstore\n        /* \"#utility.yul\":241:359   */\n      pop\n      pop\n      jump\t// out\n        /* \"#utility.yul\":365:587   */\n    tag_15:\n        /* \"#utility.yul\":458:462   */\n      0x00\n        /* \"#utility.yul\":496:498   */\n      0x20\n        /* \"#utility.yul\":485:494   */\n      dup3\n        /* \"#utility.yul\":481:499   */\n      add\n        /* \"#utility.yul\":473:499   */\n      swap1\n      pop\n        /* \"#utility.yul\":509:580   */\n      tag_70\n        /* \"#utility.yul\":577:578   */\n      0x00\n        /* \"#utility.yul\":566:575   */\n      dup4\n        /* \"#utility.yul\":562:579   */\n      add\n        /* \"#utility.yul\":553:559   */\n      dup5\n        /* \"#utility.yul\":509:580   */\n      tag_51\n      jump\t// in\n    tag_70:\n        /* \"#utility.yul\":365:587   */\n      swap3\n      swap2\n      pop\n      pop\n      jump\t// out\n        /* \"#utility.yul\":674:791   */\n    tag_53:\n        /* \"#utility.yul\":783:784   */\n      0x00\n        /* \"#utility.yul\":780:781   */\n      dup1\n        /* \"#utility.yul\":773:785   */\n      revert\n        /* \"#utility.yul\":920:1070   */\n    tag_55:\n        /* \"#utility.yul\":957:964   */\n      0x00\n        /* \"#utility.yul\":997:1063   */\n      0xffffffffffffffffffffffffffffffffffffffff000000000000000000000000\n        /* \"#utility.yul\":990:995   */\n      dup3\n        /* \"#utility.yul\":986:1064   */\n      and\n        /* \"#utility.yul\":975:1064   */\n      swap1\n      pop\n        /* \"#utility.yul\":920:1070   */\n      swap2\n      swap1\n      pop\n      jump\t// out\n        /* \"#utility.yul\":1076:1198   */\n    tag_56:\n        /* \"#utility.yul\":1149:1173   */\n      tag_76\n        /* \"#utility.yul\":1167:1172   */\n      dup2\n        /* \"#utility.yul\":1149:1173   */\n      tag_55\n      jump\t// in\n    tag_76:\n        /* \"#utility.yul\":1142:1147   */\n      dup2\n        /* \"#utility.yul\":1139:1174   */\n      eq\n        /* \"#utility.yul\":1129:1192   */\n      tag_77\n      jumpi\n        /* \"#utility.yul\":1188:1189   */\n      0x00\n        /* \"#utility.yul\":1185:1186   */\n      dup1\n        /* \"#utility.yul\":1178:1190   */\n      revert\n        /* \"#utility.yul\":1129:1192   */\n    tag_77:\n        /* \"#utility.yul\":1076:1198   */\n      pop\n      jump\t// out\n        /* \"#utility.yul\":1204:1343   */\n    tag_57:\n        /* \"#utility.yul\":1250:1255   */\n      0x00\n        /* \"#utility.yul\":1288:1294   */\n      dup2\n        /* \"#utility.yul\":1275:1295   */\n      calldataload\n        /* \"#utility.yul\":1266:1295   */\n      swap1\n      pop\n        /* \"#utility.yul\":1304:1337   */\n      tag_79\n        /* \"#utility.yul\":1331:1336   */\n      dup2\n        /* \"#utility.yul\":1304:1337   */\n      tag_56\n      jump\t// in\n    tag_79:\n        /* \"#utility.yul\":1204:1343   */\n      swap3\n      swap2\n      pop\n      pop\n      jump\t// out\n        /* \"#utility.yul\":1349:1678   */\n    tag_18:\n        /* \"#utility.yul\":1408:1414   */\n      0x00\n        /* \"#utility.yul\":1457:1459   */\n      0x20\n        /* \"#utility.yul\":1445:1454   */\n      dup3\n        /* \"#utility.yul\":1436:1443   */\n      dup5\n        /* \"#utility.yul\":1432:1455   */\n      sub\n        /* \"#utility.yul\":1428:1460   */\n      slt\n        /* \"#utility.yul\":1425:1544   */\n      iszero\n      tag_81\n      jumpi\n        /* \"#utility.yul\":1463:1542   */\n      tag_82\n      tag_53\n      jump\t// in\n    tag_82:\n        /* \"#utility.yul\":1425:1544   */\n    tag_81:\n        /* \"#utility.yul\":1583:1584   */\n      0x00\n        /* \"#utility.yul\":1608:1661   */\n      tag_83\n        /* \"#utility.yul\":1653:1660   */\n      dup5\n        /* \"#utility.yul\":1644:1650   */\n      dup3\n        /* \"#utility.yul\":1633:1642   */\n      dup6\n        /* \"#utility.yul\":1629:1651   */\n      add\n        /* \"#utility.yul\":1608:1661   */\n      tag_57\n      jump\t// in\n    tag_83:\n        /* \"#utility.yul\":1598:1661   */\n      swap2\n      pop\n        /* \"#utility.yul\":1554:1671   */\n      pop\n        /* \"#utility.yul\":1349:1678   */\n      swap3\n      swap2\n      pop\n      pop\n      jump\t// out\n        /* \"#utility.yul\":1684:1761   */\n    tag_58:\n        /* \"#utility.yul\":1721:1728   */\n      0x00\n        /* \"#utility.yul\":1750:1755   */\n      dup2\n        /* \"#utility.yul\":1739:1755   */\n      swap1\n      pop\n        /* \"#utility.yul\":1684:1761   */\n      swap2\n      swap1\n      pop\n      jump\t// out\n        /* \"#utility.yul\":1767:1885   */\n    tag_59:\n        /* \"#utility.yul\":1854:1878   */\n      tag_86\n        /* \"#utility.yul\":1872:1877   */\n      dup2\n        /* \"#utility.yul\":1854:1878   */\n      tag_58\n      jump\t// in\n    tag_86:\n        /* \"#utility.yul\":1849:1852   */\n      dup3\n        /* \"#utility.yul\":1842:1879   */\n      mstore\n        /* \"#utility.yul\":1767:1885   */\n      pop\n      pop\n      jump\t// out\n        /* \"#utility.yul\":1891:2113   */\n    tag_23:\n        /* \"#utility.yul\":1984:1988   */\n      0x00\n        /* \"#utility.yul\":2022:2024   */\n      0x20\n        /* \"#utility.yul\":2011:2020   */\n      dup3\n        /* \"#utility.yul\":2007:2025   */\n      add\n        /* \"#utility.yul\":1999:2025   */\n      swap1\n      pop\n        /* \"#utility.yul\":2035:2106   */\n      tag_88\n        /* \"#utility.yul\":2103:2104   */\n      0x00\n        /* \"#utility.yul\":2092:2101   */\n      dup4\n        /* \"#utility.yul\":2088:2105   */\n      add\n        /* \"#utility.yul\":2079:2085   */\n      dup5\n        /* \"#utility.yul\":2035:2106   */\n      tag_59\n      jump\t// in\n    tag_88:\n        /* \"#utility.yul\":1891:2113   */\n      swap3\n      swap2\n      pop\n      pop\n      jump\t// out\n        /* \"#utility.yul\":2119:2237   */\n    tag_60:\n        /* \"#utility.yul\":2206:2230   */\n      tag_90\n        /* \"#utility.yul\":2224:2229   */\n      dup2\n        /* \"#utility.yul\":2206:2230   */\n      tag_55\n      jump\t// in\n    tag_90:\n        /* \"#utility.yul\":2201:2204   */\n      dup3\n        /* \"#utility.yul\":2194:2231   */\n      mstore\n        /* \"#utility.yul\":2119:2237   */\n      pop\n      pop\n      jump\t// out\n        /* \"#utility.yul\":2243:2465   */\n    tag_33:\n        /* \"#utility.yul\":2336:2340   */\n      0x00\n        /* \"#utility.yul\":2374:2376   */\n      0x20\n        /* \"#utility.yul\":2363:2372   */\n      dup3\n        /* \"#utility.yul\":2359:2377   */\n      add\n        /* \"#utility.yul\":2351:2377   */\n      swap1\n      pop\n        /* \"#utility.yul\":2387:2458   */\n      tag_92\n        /* \"#utility.yul\":2455:2456   */\n      0x00\n        /* \"#utility.yul\":2444:2453   */\n      dup4\n        /* \"#utility.yul\":2440:2457   */\n      add\n        /* \"#utility.yul\":2431:2437   */\n      dup5\n        /* \"#utility.yul\":2387:2458   */\n      tag_60\n      jump\t// in\n    tag_92:\n        /* \"#utility.yul\":2243:2465   */\n      swap3\n      swap2\n      pop\n      pop\n      jump\t// out\n        /* \"#utility.yul\":2471:2593   */\n    tag_61:\n        /* \"#utility.yul\":2544:2568   */\n      tag_94\n        /* \"#utility.yul\":2562:2567   */\n      dup2\n        /* \"#utility.yul\":2544:2568   */\n      tag_50\n      jump\t// in\n    tag_94:\n        /* \"#utility.yul\":2537:2542   */\n      dup2\n        /* \"#utility.yul\":2534:2569   */\n      eq\n        /* \"#utility.yul\":2524:2587   */\n      tag_95\n      jumpi\n        /* \"#utility.yul\":2583:2584   */\n      0x00\n        /* \"#utility.yul\":2580:2581   */\n      dup1\n        /* \"#utility.yul\":2573:2585   */\n      revert\n        /* \"#utility.yul\":2524:2587   */\n    tag_95:\n        /* \"#utility.yul\":2471:2593   */\n      pop\n      jump\t// out\n        /* \"#utility.yul\":2599:2738   */\n    tag_62:\n        /* \"#utility.yul\":2645:2650   */\n      0x00\n        /* \"#utility.yul\":2683:2689   */\n      dup2\n        /* \"#utility.yul\":2670:2690   */\n      calldataload\n        /* \"#utility.yul\":2661:2690   */\n      swap1\n      pop\n        /* \"#utility.yul\":2699:2732   */\n      tag_97\n        /* \"#utility.yul\":2726:2731   */\n      dup2\n        /* \"#utility.yul\":2699:2732   */\n      tag_61\n      jump\t// in\n    tag_97:\n        /* \"#utility.yul\":2599:2738   */\n      swap3\n      swap2\n      pop\n      pop\n      jump\t// out\n        /* \"#utility.yul\":2744:3073   */\n    tag_39:\n        /* \"#utility.yul\":2803:2809   */\n      0x00\n        /* \"#utility.yul\":2852:2854   */\n      0x20\n        /* \"#utility.yul\":2840:2849   */\n      dup3\n        /* \"#utility.yul\":2831:2838   */\n      dup5\n        /* \"#utility.yul\":2827:2850   */\n      sub\n        /* \"#utility.yul\":2823:2855   */\n      slt\n        /* \"#utility.yul\":2820:2939   */\n      iszero\n      tag_99\n      jumpi\n        /* \"#utility.yul\":2858:2937   */\n      tag_100\n      tag_53\n      jump\t// in\n    tag_100:\n        /* \"#utility.yul\":2820:2939   */\n    tag_99:\n        /* \"#utility.yul\":2978:2979   */\n      0x00\n        /* \"#utility.yul\":3003:3056   */\n      tag_101\n        /* \"#utility.yul\":3048:3055   */\n      dup5\n        /* \"#utility.yul\":3039:3045   */\n      dup3\n        /* \"#utility.yul\":3028:3037   */\n      dup6\n        /* \"#utility.yul\":3024:3046   */\n      add\n        /* \"#utility.yul\":3003:3056   */\n      tag_62\n      jump\t// in\n    tag_101:\n        /* \"#utility.yul\":2993:3056   */\n      swap2\n      pop\n        /* \"#utility.yul\":2949:3066   */\n      pop\n        /* \"#utility.yul\":2744:3073   */\n      swap3\n      swap2\n      pop\n      pop\n      jump\t// out\n\n    auxdata: 0xa2646970667358221220c44784a301a24fc27f4870f91c45b603a27f1646c48323a818805b5582f4da0464736f6c63430008120033\n}\n",
				"bytecode": {
					"linkReferences": {},
					"object": "608060405234801561001057600080fd5b50610461806100206000396000f3fe608060405234801561001057600080fd5b50600436106100885760003560e01c80639a1662991161005b5780639a166299146101035780639e8994bd14610121578063d46300fd1461013f578063f95a0ad21461015d57610088565b806338cc48311461008d5780633c60e808146100ab5780634c738909146100c75780636f9fb98a146100e5575b600080fd5b610095610179565b6040516100a291906102cf565b60405180910390f35b6100c560048036038101906100c09190610347565b610181565b005b6100cf6101c7565b6040516100dc919061038d565b60405180910390f35b6100ed6101e6565b6040516100fa919061038d565b60405180910390f35b61010b6101ee565b60405161011891906102cf565b60405180910390f35b6101296101f6565b60405161013691906103b7565b60405180910390f35b610147610222565b60405161015491906102cf565b60405180910390f35b610177600480360381019061017291906103fe565b61024b565b005b600030905090565b8060601c6000806101000a81548173ffffffffffffffffffffffffffffffffffffffff021916908373ffffffffffffffffffffffffffffffffffffffff16021790555050565b60003373ffffffffffffffffffffffffffffffffffffffff1631905090565b600047905090565b600033905090565b60008060009054906101000a900473ffffffffffffffffffffffffffffffffffffffff1660601b905090565b60008060009054906101000a900473ffffffffffffffffffffffffffffffffffffffff16905090565b806000806101000a81548173ffffffffffffffffffffffffffffffffffffffff021916908373ffffffffffffffffffffffffffffffffffffffff16021790555050565b600073ffffffffffffffffffffffffffffffffffffffff82169050919050565b60006102b98261028e565b9050919050565b6102c9816102ae565b82525050565b60006020820190506102e460008301846102c0565b92915050565b600080fd5b60007fffffffffffffffffffffffffffffffffffffffff00000000000000000000000082169050919050565b610324816102ef565b811461032f57600080fd5b50565b6000813590506103418161031b565b92915050565b60006020828403121561035d5761035c6102ea565b5b600061036b84828501610332565b91505092915050565b6000819050919050565b61038781610374565b82525050565b60006020820190506103a2600083018461037e565b92915050565b6103b1816102ef565b82525050565b60006020820190506103cc60008301846103a8565b92915050565b6103db816102ae565b81146103e657600080fd5b50565b6000813590506103f8816103d2565b92915050565b600060208284031215610414576104136102ea565b5b6000610422848285016103e9565b9150509291505056fea2646970667358221220c44784a301a24fc27f4870f91c45b603a27f1646c48323a818805b5582f4da0464736f6c63430008120033",
					"opcodes": "PUSH1 0x80 PUSH1 0x40 MSTORE CALLVALUE DUP1 ISZERO PUSH2 0x10 JUMPI PUSH1 0x0 DUP1 REVERT JUMPDEST POP PUSH2 0x461 DUP1 PUSH2 0x20 PUSH1 0x0 CODECOPY PUSH1 0x0 RETURN INVALID PUSH1 0x80 PUSH1 0x40 MSTORE CALLVALUE DUP1 ISZERO PUSH2 0x10 JUMPI PUSH1 0x0 DUP1 REVERT JUMPDEST POP PUSH1 0x4 CALLDATASIZE LT PUSH2 0x88 JUMPI PUSH1 0x0 CALLDATALOAD PUSH1 0xE0 SHR DUP1 PUSH4 0x9A166299 GT PUSH2 0x5B JUMPI DUP1 PUSH4 0x9A166299 EQ PUSH2 0x103 JUMPI DUP1 PUSH4 0x9E8994BD EQ PUSH2 0x121 JUMPI DUP1 PUSH4 0xD46300FD EQ PUSH2 0x13F JUMPI DUP1 PUSH4 0xF95A0AD2 EQ PUSH2 0x15D JUMPI PUSH2 0x88 JUMP JUMPDEST DUP1 PUSH4 0x38CC4831 EQ PUSH2 0x8D JUMPI DUP1 PUSH4 0x3C60E808 EQ PUSH2 0xAB JUMPI DUP1 PUSH4 0x4C738909 EQ PUSH2 0xC7 JUMPI DUP1 PUSH4 0x6F9FB98A EQ PUSH2 0xE5 JUMPI JUMPDEST PUSH1 0x0 DUP1 REVERT JUMPDEST PUSH2 0x95 PUSH2 0x179 JUMP JUMPDEST PUSH1 0x40 MLOAD PUSH2 0xA2 SWAP2 SWAP1 PUSH2 0x2CF JUMP JUMPDEST PUSH1 0x40 MLOAD DUP1 SWAP2 SUB SWAP1 RETURN JUMPDEST PUSH2 0xC5 PUSH1 0x4 DUP1 CALLDATASIZE SUB DUP2 ADD SWAP1 PUSH2 0xC0 SWAP2 SWAP1 PUSH2 0x347 JUMP JUMPDEST PUSH2 0x181 JUMP JUMPDEST STOP JUMPDEST PUSH2 0xCF PUSH2 0x1C7 JUMP JUMPDEST PUSH1 0x40 MLOAD PUSH2 0xDC SWAP2 SWAP1 PUSH2 0x38D JUMP JUMPDEST PUSH1 0x40 MLOAD DUP1 SWAP2 SUB SWAP1 RETURN JUMPDEST PUSH2 0xED PUSH2 0x1E6 JUMP JUMPDEST PUSH1 0x40 MLOAD PUSH2 0xFA SWAP2 SWAP1 PUSH2 0x38D JUMP JUMPDEST PUSH1 0x40 MLOAD DUP1 SWAP2 SUB SWAP1 RETURN JUMPDEST PUSH2 0x10B PUSH2 0x1EE JUMP JUMPDEST PUSH1 0x40 MLOAD PUSH2 0x118 SWAP2 SWAP1 PUSH2 0x2CF JUMP JUMPDEST PUSH1 0x40 MLOAD DUP1 SWAP2 SUB SWAP1 RETURN JUMPDEST PUSH2 0x129 PUSH2 0x1F6 JUMP JUMPDEST PUSH1 0x40 MLOAD PUSH2 0x136 SWAP2 SWAP1 PUSH2 0x3B7 JUMP JUMPDEST PUSH1 0x40 MLOAD DUP1 SWAP2 SUB SWAP1 RETURN JUMPDEST PUSH2 0x147 PUSH2 0x222 JUMP JUMPDEST PUSH1 0x40 MLOAD PUSH2 0x154 SWAP2 SWAP1 PUSH2 0x2CF JUMP JUMPDEST PUSH1 0x40 MLOAD DUP1 SWAP2 SUB SWAP1 RETURN JUMPDEST PUSH2 0x177 PUSH1 0x4 DUP1 CALLDATASIZE SUB DUP2 ADD SWAP1 PUSH2 0x172 SWAP2 SWAP1 PUSH2 0x3FE JUMP JUMPDEST PUSH2 0x24B JUMP JUMPDEST STOP JUMPDEST PUSH1 0x0 ADDRESS SWAP1 POP SWAP1 JUMP JUMPDEST DUP1 PUSH1 0x60 SHR PUSH1 0x0 DUP1 PUSH2 0x100 EXP DUP2 SLOAD DUP2 PUSH20 0xFFFFFFFFFFFFFFFFFFFFFFFFFFFFFFFFFFFFFFFF MUL NOT AND SWAP1 DUP4 PUSH20 0xFFFFFFFFFFFFFFFFFFFFFFFFFFFFFFFFFFFFFFFF AND MUL OR SWAP1 SSTORE POP POP JUMP JUMPDEST PUSH1 0x0 CALLER PUSH20 0xFFFFFFFFFFFFFFFFFFFFFFFFFFFFFFFFFFFFFFFF AND BALANCE SWAP1 POP SWAP1 JUMP JUMPDEST PUSH1 0x0 SELFBALANCE SWAP1 POP SWAP1 JUMP JUMPDEST PUSH1 0x0 CALLER SWAP1 POP SWAP1 JUMP JUMPDEST PUSH1 0x0 DUP1 PUSH1 0x0 SWAP1 SLOAD SWAP1 PUSH2 0x100 EXP SWAP1 DIV PUSH20 0xFFFFFFFFFFFFFFFFFFFFFFFFFFFFFFFFFFFFFFFF AND PUSH1 0x60 SHL SWAP1 POP SWAP1 JUMP JUMPDEST PUSH1 0x0 DUP1 PUSH1 0x0 SWAP1 SLOAD SWAP1 PUSH2 0x100 EXP SWAP1 DIV PUSH20 0xFFFFFFFFFFFFFFFFFFFFFFFFFFFFFFFFFFFFFFFF AND SWAP1 POP SWAP1 JUMP JUMPDEST DUP1 PUSH1 0x0 DUP1 PUSH2 0x100 EXP DUP2 SLOAD DUP2 PUSH20 0xFFFFFFFFFFFFFFFFFFFFFFFFFFFFFFFFFFFFFFFF MUL NOT AND SWAP1 DUP4 PUSH20 0xFFFFFFFFFFFFFFFFFFFFFFFFFFFFFFFFFFFFFFFF AND MUL OR SWAP1 SSTORE POP POP JUMP JUMPDEST PUSH1 0x0 PUSH20 0xFFFFFFFFFFFFFFFFFFFFFFFFFFFFFFFFFFFFFFFF DUP3 AND SWAP1 POP SWAP2 SWAP1 POP JUMP JUMPDEST PUSH1 0x0 PUSH2 0x2B9 DUP3 PUSH2 0x28E JUMP JUMPDEST SWAP1 POP SWAP2 SWAP1 POP JUMP JUMPDEST PUSH2 0x2C9 DUP2 PUSH2 0x2AE JUMP JUMPDEST DUP3 MSTORE POP POP JUMP JUMPDEST PUSH1 0x0 PUSH1 0x20 DUP3 ADD SWAP1 POP PUSH2 0x2E4 PUSH1 0x0 DUP4 ADD DUP5 PUSH2 0x2C0 JUMP JUMPDEST SWAP3 SWAP2 POP POP JUMP JUMPDEST PUSH1 0x0 DUP1 REVERT JUMPDEST PUSH1 0x0 PUSH32 0xFFFFFFFFFFFFFFFFFFFFFFFFFFFFFFFFFFFFFFFF000000000000000000000000 DUP3 AND SWAP1 POP SWAP2 SWAP1 POP JUMP JUMPDEST PUSH2 0x324 DUP2 PUSH2 0x2EF JUMP JUMPDEST DUP2 EQ PUSH2 0x32F JUMPI PUSH1 0x0 DUP1 REVERT JUMPDEST POP JUMP JUMPDEST PUSH1 0x0 DUP2 CALLDATALOAD SWAP1 POP PUSH2 0x341 DUP2 PUSH2 0x31B JUMP JUMPDEST SWAP3 SWAP2 POP POP JUMP JUMPDEST PUSH1 0x0 PUSH1 0x20 DUP3 DUP5 SUB SLT ISZERO PUSH2 0x35D JUMPI PUSH2 0x35C PUSH2 0x2EA JUMP JUMPDEST JUMPDEST PUSH1 0x0 PUSH2 0x36B DUP5 DUP3 DUP6 ADD PUSH2 0x332 JUMP JUMPDEST SWAP2 POP POP SWAP3 SWAP2 POP POP JUMP JUMPDEST PUSH1 0x0 DUP2 SWAP1 POP SWAP2 SWAP1 POP JUMP JUMPDEST PUSH2 0x387 DUP2 PUSH2 0x374 JUMP JUMPDEST DUP3 MSTORE POP POP JUMP JUMPDEST PUSH1 0x0 PUSH1 0x20 DUP3 ADD SWAP1 POP PUSH2 0x3A2 PUSH1 0x0 DUP4 ADD DUP5 PUSH2 0x37E JUMP JUMPDEST SWAP3 SWAP2 POP POP JUMP JUMPDEST PUSH2 0x3B1 DUP2 PUSH2 0x2EF JUMP JUMPDEST DUP3 MSTORE POP POP JUMP JUMPDEST PUSH1 0x0 PUSH1 0x20 DUP3 ADD SWAP1 POP PUSH2 0x3CC PUSH1 0x0 DUP4 ADD DUP5 PUSH2 0x3A8 JUMP JUMPDEST SWAP3 SWAP2 POP POP JUMP JUMPDEST PUSH2 0x3DB DUP2 PUSH2 0x2AE JUMP JUMPDEST DUP2 EQ PUSH2 0x3E6 JUMPI PUSH1 0x0 DUP1 REVERT JUMPDEST POP JUMP JUMPDEST PUSH1 0x0 DUP2 CALLDATALOAD SWAP1 POP PUSH2 0x3F8 DUP2 PUSH2 0x3D2 JUMP JUMPDEST SWAP3 SWAP2 POP POP JUMP JUMPDEST PUSH1 0x0 PUSH1 0x20 DUP3 DUP5 SUB SLT ISZERO PUSH2 0x414 JUMPI PUSH2 0x413 PUSH2 0x2EA JUMP JUMPDEST JUMPDEST PUSH1 0x0 PUSH2 0x422 DUP5 DUP3 DUP6 ADD PUSH2 0x3E9 JUMP JUMPDEST SWAP2 POP POP SWAP3 SWAP2 POP POP JUMP INVALID LOG2 PUSH5 0x6970667358 0x22 SLT KECCAK256 0xC4 SELFBALANCE DUP5 LOG3 ADD LOG2 0x4F 0xC2 PUSH32 0x4870F91C45B603A27F1646C48323A818805B5582F4DA0464736F6C6343000812 STOP CALLER "
				},
				"gasEstimates": {
					"creation": {
						"codeDepositCost": "224200",
						"executionCost": "269",
						"totalCost": "224469"
					},
					"external": {
						"getA()": "2566",
						"getA2()": "2507",
						"getAddress()": "386",
						"getContractBalance()": "406",
						"getMyAddress()": "385",
						"getMyBalance()": "2987",
						"setA(address)": "24788",
						"setA2(bytes20)": "24708"
					}
				},
				"methodIdentifiers": {
					"getA()": "d46300fd",
					"getA2()": "9e8994bd",
					"getAddress()": "38cc4831",
					"getContractBalance()": "6f9fb98a",
					"getMyAddress()": "9a166299",
					"getMyBalance()": "4c738909",
					"setA(address)": "f95a0ad2",
					"setA2(bytes20)": "3c60e808"
				}
			},
			"storageLayout": {
				"storage": [
					{
						"astId": 114,
						"contract": "contracts-lecture/230508-test.sol:note2",
						"label": "a",
						"offset": 0,
						"slot": "0",
						"type": "t_address"
					}
				],
				"types": {
					"t_address": {
						"encoding": "inplace",
						"label": "address",
						"numberOfBytes": "20"
					}
				}
			},
			"userdoc": {
				"kind": "user",
				"methods": {},
				"version": 1
			}
		}
	}
}