{
	"contracts-lecture/230509-test.sol": {
		"test2": {
			"abi": [
				{
					"inputs": [],
					"name": "getAll",
					"outputs": [
						{
							"components": [
								{
									"internalType": "string",
									"name": "a",
									"type": "string"
								},
								{
									"internalType": "uint256",
									"name": "b",
									"type": "uint256"
								},
								{
									"internalType": "bytes2",
									"name": "c",
									"type": "bytes2"
								}
							],
							"internalType": "struct test2.D[]",
							"name": "",
							"type": "tuple[]"
						}
					],
					"stateMutability": "view",
					"type": "function"
				},
				{
					"inputs": [
						{
							"internalType": "uint256",
							"name": "_n",
							"type": "uint256"
						}
					],
					"name": "getD",
					"outputs": [
						{
							"components": [
								{
									"internalType": "string",
									"name": "a",
									"type": "string"
								},
								{
									"internalType": "uint256",
									"name": "b",
									"type": "uint256"
								},
								{
									"internalType": "bytes2",
									"name": "c",
									"type": "bytes2"
								}
							],
							"internalType": "struct test2.D",
							"name": "",
							"type": "tuple"
						}
					],
					"stateMutability": "view",
					"type": "function"
				},
				{
					"inputs": [
						{
							"internalType": "string",
							"name": "_a",
							"type": "string"
						},
						{
							"internalType": "uint256",
							"name": "_b",
							"type": "uint256"
						},
						{
							"internalType": "bytes2",
							"name": "_c",
							"type": "bytes2"
						}
					],
					"name": "pushD",
					"outputs": [],
					"stateMutability": "nonpayable",
					"type": "function"
				},
				{
					"inputs": [
						{
							"internalType": "string",
							"name": "_a",
							"type": "string"
						},
						{
							"internalType": "uint256",
							"name": "_b",
							"type": "uint256"
						},
						{
							"internalType": "bytes2",
							"name": "_c",
							"type": "bytes2"
						}
					],
					"name": "setDDD",
					"outputs": [],
					"stateMutability": "nonpayable",
					"type": "function"
				}
			],
			"devdoc": {
				"kind": "dev",
				"methods": {},
				"version": 1
			},
			"evm": {
				"assembly": "    /* \"contracts-lecture/230509-test.sol\":562:1075  contract test2 {... */\n  mstore(0x40, 0x80)\n  callvalue\n  dup1\n  iszero\n  tag_1\n  jumpi\n  0x00\n  dup1\n  revert\ntag_1:\n  pop\n  dataSize(sub_0)\n  dup1\n  dataOffset(sub_0)\n  0x00\n  codecopy\n  0x00\n  return\nstop\n\nsub_0: assembly {\n        /* \"contracts-lecture/230509-test.sol\":562:1075  contract test2 {... */\n      mstore(0x40, 0x80)\n      callvalue\n      dup1\n      iszero\n      tag_1\n      jumpi\n      0x00\n      dup1\n      revert\n    tag_1:\n      pop\n      jumpi(tag_2, lt(calldatasize, 0x04))\n      shr(0xe0, calldataload(0x00))\n      dup1\n      0x53ed5143\n      eq\n      tag_3\n      jumpi\n      dup1\n      0x6bf22a50\n      eq\n      tag_4\n      jumpi\n      dup1\n      0x7cd0690d\n      eq\n      tag_5\n      jumpi\n      dup1\n      0xb3a84c92\n      eq\n      tag_6\n      jumpi\n    tag_2:\n      0x00\n      dup1\n      revert\n        /* \"contracts-lecture/230509-test.sol\":789:869  function getAll() public view returns(D[] memory) {... */\n    tag_3:\n      tag_7\n      tag_8\n      jump\t// in\n    tag_7:\n      mload(0x40)\n      tag_9\n      swap2\n      swap1\n      tag_10\n      jump\t// in\n    tag_9:\n      mload(0x40)\n      dup1\n      swap2\n      sub\n      swap1\n      return\n        /* \"contracts-lecture/230509-test.sol\":669:766  function setDDD(string memory _a, uint _b, bytes2 _c) public {... */\n    tag_4:\n      tag_11\n      0x04\n      dup1\n      calldatasize\n      sub\n      dup2\n      add\n      swap1\n      tag_12\n      swap2\n      swap1\n      tag_13\n      jump\t// in\n    tag_12:\n      tag_14\n      jump\t// in\n    tag_11:\n      stop\n        /* \"contracts-lecture/230509-test.sol\":970:1073  function pushD(string memory _a, uint _b, bytes2 _c) public {... */\n    tag_5:\n      tag_15\n      0x04\n      dup1\n      calldatasize\n      sub\n      dup2\n      add\n      swap1\n      tag_16\n      swap2\n      swap1\n      tag_13\n      jump\t// in\n    tag_16:\n      tag_17\n      jump\t// in\n    tag_15:\n      stop\n        /* \"contracts-lecture/230509-test.sol\":875:964  function getD(uint _n) public view returns(D memory) {... */\n    tag_6:\n      tag_18\n      0x04\n      dup1\n      calldatasize\n      sub\n      dup2\n      add\n      swap1\n      tag_19\n      swap2\n      swap1\n      tag_20\n      jump\t// in\n    tag_19:\n      tag_21\n      jump\t// in\n    tag_18:\n      mload(0x40)\n      tag_22\n      swap2\n      swap1\n      tag_23\n      jump\t// in\n    tag_22:\n      mload(0x40)\n      dup1\n      swap2\n      sub\n      swap1\n      return\n        /* \"contracts-lecture/230509-test.sol\":789:869  function getAll() public view returns(D[] memory) {... */\n    tag_8:\n        /* \"contracts-lecture/230509-test.sol\":827:837  D[] memory */\n      0x60\n        /* \"contracts-lecture/230509-test.sol\":856:862  D_list */\n      0x03\n        /* \"contracts-lecture/230509-test.sol\":849:862  return D_list */\n      dup1\n      sload\n      dup1\n      0x20\n      mul\n      0x20\n      add\n      mload(0x40)\n      swap1\n      dup2\n      add\n      0x40\n      mstore\n      dup1\n      swap3\n      swap2\n      swap1\n      dup2\n      dup2\n      mstore\n      0x20\n      add\n      0x00\n      swap1\n    tag_25:\n      dup3\n      dup3\n      lt\n      iszero\n      tag_26\n      jumpi\n      dup4\n      dup3\n      swap1\n      0x00\n      mstore\n      keccak256(0x00, 0x20)\n      swap1\n      0x03\n      mul\n      add\n      mload(0x40)\n      dup1\n      0x60\n      add\n      0x40\n      mstore\n      swap1\n      dup2\n      0x00\n      dup3\n      add\n      dup1\n      sload\n      tag_28\n      swap1\n      tag_29\n      jump\t// in\n    tag_28:\n      dup1\n      0x1f\n      add\n      0x20\n      dup1\n      swap2\n      div\n      mul\n      0x20\n      add\n      mload(0x40)\n      swap1\n      dup2\n      add\n      0x40\n      mstore\n      dup1\n      swap3\n      swap2\n      swap1\n      dup2\n      dup2\n      mstore\n      0x20\n      add\n      dup3\n      dup1\n      sload\n      tag_30\n      swap1\n      tag_29\n      jump\t// in\n    tag_30:\n      dup1\n      iszero\n      tag_31\n      jumpi\n      dup1\n      0x1f\n      lt\n      tag_32\n      jumpi\n      0x0100\n      dup1\n      dup4\n      sload\n      div\n      mul\n      dup4\n      mstore\n      swap2\n      0x20\n      add\n      swap2\n      jump(tag_31)\n    tag_32:\n      dup3\n      add\n      swap2\n      swap1\n      0x00\n      mstore\n      keccak256(0x00, 0x20)\n      swap1\n    tag_33:\n      dup2\n      sload\n      dup2\n      mstore\n      swap1\n      0x01\n      add\n      swap1\n      0x20\n      add\n      dup1\n      dup4\n      gt\n      tag_33\n      jumpi\n      dup3\n      swap1\n      sub\n      0x1f\n      and\n      dup3\n      add\n      swap2\n    tag_31:\n      pop\n      pop\n      pop\n      pop\n      pop\n      dup2\n      mstore\n      0x20\n      add\n      0x01\n      dup3\n      add\n      sload\n      dup2\n      mstore\n      0x20\n      add\n      0x02\n      dup3\n      add\n      0x00\n      swap1\n      sload\n      swap1\n      0x0100\n      exp\n      swap1\n      div\n      0xf0\n      shl\n      not(0xffffffffffffffffffffffffffffffffffffffffffffffffffffffffffff)\n      and\n      not(0xffffffffffffffffffffffffffffffffffffffffffffffffffffffffffff)\n      and\n      dup2\n      mstore\n      pop\n      pop\n      dup2\n      mstore\n      0x20\n      add\n      swap1\n      0x01\n      add\n      swap1\n      jump(tag_25)\n    tag_26:\n      pop\n      pop\n      pop\n      pop\n      swap1\n      pop\n        /* \"contracts-lecture/230509-test.sol\":789:869  function getAll() public view returns(D[] memory) {... */\n      swap1\n      jump\t// out\n        /* \"contracts-lecture/230509-test.sol\":669:766  function setDDD(string memory _a, uint _b, bytes2 _c) public {... */\n    tag_14:\n        /* \"contracts-lecture/230509-test.sol\":746:759  D(_a, _b, _c) */\n      mload(0x40)\n      dup1\n      0x60\n      add\n      0x40\n      mstore\n      dup1\n        /* \"contracts-lecture/230509-test.sol\":748:750  _a */\n      dup5\n        /* \"contracts-lecture/230509-test.sol\":746:759  D(_a, _b, _c) */\n      dup2\n      mstore\n      0x20\n      add\n        /* \"contracts-lecture/230509-test.sol\":752:754  _b */\n      dup4\n        /* \"contracts-lecture/230509-test.sol\":746:759  D(_a, _b, _c) */\n      dup2\n      mstore\n      0x20\n      add\n        /* \"contracts-lecture/230509-test.sol\":756:758  _c */\n      dup3\n        /* \"contracts-lecture/230509-test.sol\":746:759  D(_a, _b, _c) */\n      not(0xffffffffffffffffffffffffffffffffffffffffffffffffffffffffffff)\n      and\n      dup2\n      mstore\n      pop\n        /* \"contracts-lecture/230509-test.sol\":740:743  ddd */\n      0x00\n        /* \"contracts-lecture/230509-test.sol\":740:759  ddd = D(_a, _b, _c) */\n      dup1\n      dup3\n      add\n      mload\n      dup2\n      0x00\n      add\n      swap1\n      dup2\n      tag_35\n      swap2\n      swap1\n      tag_36\n      jump\t// in\n    tag_35:\n      pop\n      0x20\n      dup3\n      add\n      mload\n      dup2\n      0x01\n      add\n      sstore\n      0x40\n      dup3\n      add\n      mload\n      dup2\n      0x02\n      add\n      exp(0x0100, 0x00)\n      dup2\n      sload\n      dup2\n      0xffff\n      mul\n      not\n      and\n      swap1\n      dup4\n      0xf0\n      shr\n      mul\n      or\n      swap1\n      sstore\n      pop\n      swap1\n      pop\n      pop\n        /* \"contracts-lecture/230509-test.sol\":669:766  function setDDD(string memory _a, uint _b, bytes2 _c) public {... */\n      pop\n      pop\n      pop\n      jump\t// out\n        /* \"contracts-lecture/230509-test.sol\":970:1073  function pushD(string memory _a, uint _b, bytes2 _c) public {... */\n    tag_17:\n        /* \"contracts-lecture/230509-test.sol\":1040:1046  D_list */\n      0x03\n        /* \"contracts-lecture/230509-test.sol\":1052:1065  D(_a, _b, _c) */\n      mload(0x40)\n      dup1\n      0x60\n      add\n      0x40\n      mstore\n      dup1\n        /* \"contracts-lecture/230509-test.sol\":1054:1056  _a */\n      dup6\n        /* \"contracts-lecture/230509-test.sol\":1052:1065  D(_a, _b, _c) */\n      dup2\n      mstore\n      0x20\n      add\n        /* \"contracts-lecture/230509-test.sol\":1058:1060  _b */\n      dup5\n        /* \"contracts-lecture/230509-test.sol\":1052:1065  D(_a, _b, _c) */\n      dup2\n      mstore\n      0x20\n      add\n        /* \"contracts-lecture/230509-test.sol\":1062:1064  _c */\n      dup4\n        /* \"contracts-lecture/230509-test.sol\":1052:1065  D(_a, _b, _c) */\n      not(0xffffffffffffffffffffffffffffffffffffffffffffffffffffffffffff)\n      and\n      dup2\n      mstore\n      pop\n        /* \"contracts-lecture/230509-test.sol\":1040:1066  D_list.push(D(_a, _b, _c)) */\n      swap1\n      dup1\n      0x01\n      dup2\n      sload\n      add\n      dup1\n      dup3\n      sstore\n      dup1\n      swap2\n      pop\n      pop\n      0x01\n      swap1\n      sub\n      swap1\n      0x00\n      mstore\n      keccak256(0x00, 0x20)\n      swap1\n      0x03\n      mul\n      add\n      0x00\n      swap1\n      swap2\n      swap1\n      swap2\n      swap1\n      swap2\n      pop\n      0x00\n      dup3\n      add\n      mload\n      dup2\n      0x00\n      add\n      swap1\n      dup2\n      tag_39\n      swap2\n      swap1\n      tag_36\n      jump\t// in\n    tag_39:\n      pop\n      0x20\n      dup3\n      add\n      mload\n      dup2\n      0x01\n      add\n      sstore\n      0x40\n      dup3\n      add\n      mload\n      dup2\n      0x02\n      add\n      exp(0x0100, 0x00)\n      dup2\n      sload\n      dup2\n      0xffff\n      mul\n      not\n      and\n      swap1\n      dup4\n      0xf0\n      shr\n      mul\n      or\n      swap1\n      sstore\n      pop\n      pop\n      pop\n        /* \"contracts-lecture/230509-test.sol\":970:1073  function pushD(string memory _a, uint _b, bytes2 _c) public {... */\n      pop\n      pop\n      pop\n      jump\t// out\n        /* \"contracts-lecture/230509-test.sol\":875:964  function getD(uint _n) public view returns(D memory) {... */\n    tag_21:\n        /* \"contracts-lecture/230509-test.sol\":918:926  D memory */\n      tag_40\n      tag_41\n      jump\t// in\n    tag_40:\n        /* \"contracts-lecture/230509-test.sol\":945:951  D_list */\n      0x03\n        /* \"contracts-lecture/230509-test.sol\":955:956  1 */\n      0x01\n        /* \"contracts-lecture/230509-test.sol\":952:954  _n */\n      dup4\n        /* \"contracts-lecture/230509-test.sol\":952:956  _n-1 */\n      tag_43\n      swap2\n      swap1\n      tag_44\n      jump\t// in\n    tag_43:\n        /* \"contracts-lecture/230509-test.sol\":945:957  D_list[_n-1] */\n      dup2\n      sload\n      dup2\n      lt\n      tag_45\n      jumpi\n      tag_46\n      tag_47\n      jump\t// in\n    tag_46:\n    tag_45:\n      swap1\n      0x00\n      mstore\n      keccak256(0x00, 0x20)\n      swap1\n      0x03\n      mul\n      add\n        /* \"contracts-lecture/230509-test.sol\":938:957  return D_list[_n-1] */\n      mload(0x40)\n      dup1\n      0x60\n      add\n      0x40\n      mstore\n      swap1\n      dup2\n      0x00\n      dup3\n      add\n      dup1\n      sload\n      tag_49\n      swap1\n      tag_29\n      jump\t// in\n    tag_49:\n      dup1\n      0x1f\n      add\n      0x20\n      dup1\n      swap2\n      div\n      mul\n      0x20\n      add\n      mload(0x40)\n      swap1\n      dup2\n      add\n      0x40\n      mstore\n      dup1\n      swap3\n      swap2\n      swap1\n      dup2\n      dup2\n      mstore\n      0x20\n      add\n      dup3\n      dup1\n      sload\n      tag_50\n      swap1\n      tag_29\n      jump\t// in\n    tag_50:\n      dup1\n      iszero\n      tag_51\n      jumpi\n      dup1\n      0x1f\n      lt\n      tag_52\n      jumpi\n      0x0100\n      dup1\n      dup4\n      sload\n      div\n      mul\n      dup4\n      mstore\n      swap2\n      0x20\n      add\n      swap2\n      jump(tag_51)\n    tag_52:\n      dup3\n      add\n      swap2\n      swap1\n      0x00\n      mstore\n      keccak256(0x00, 0x20)\n      swap1\n    tag_53:\n      dup2\n      sload\n      dup2\n      mstore\n      swap1\n      0x01\n      add\n      swap1\n      0x20\n      add\n      dup1\n      dup4\n      gt\n      tag_53\n      jumpi\n      dup3\n      swap1\n      sub\n      0x1f\n      and\n      dup3\n      add\n      swap2\n    tag_51:\n      pop\n      pop\n      pop\n      pop\n      pop\n      dup2\n      mstore\n      0x20\n      add\n      0x01\n      dup3\n      add\n      sload\n      dup2\n      mstore\n      0x20\n      add\n      0x02\n      dup3\n      add\n      0x00\n      swap1\n      sload\n      swap1\n      0x0100\n      exp\n      swap1\n      div\n      0xf0\n      shl\n      not(0xffffffffffffffffffffffffffffffffffffffffffffffffffffffffffff)\n      and\n      not(0xffffffffffffffffffffffffffffffffffffffffffffffffffffffffffff)\n      and\n      dup2\n      mstore\n      pop\n      pop\n      swap1\n      pop\n        /* \"contracts-lecture/230509-test.sol\":875:964  function getD(uint _n) public view returns(D memory) {... */\n      swap2\n      swap1\n      pop\n      jump\t// out\n    tag_41:\n      mload(0x40)\n      dup1\n      0x60\n      add\n      0x40\n      mstore\n      dup1\n      0x60\n      dup2\n      mstore\n      0x20\n      add\n      0x00\n      dup2\n      mstore\n      0x20\n      add\n      and(not(0xffffffffffffffffffffffffffffffffffffffffffffffffffffffffffff), 0x00)\n      dup2\n      mstore\n      pop\n      swap1\n      jump\t// out\n        /* \"#utility.yul\":7:138   */\n    tag_54:\n        /* \"#utility.yul\":91:97   */\n      0x00\n        /* \"#utility.yul\":125:130   */\n      dup2\n        /* \"#utility.yul\":119:131   */\n      mload\n        /* \"#utility.yul\":109:131   */\n      swap1\n      pop\n        /* \"#utility.yul\":7:138   */\n      swap2\n      swap1\n      pop\n      jump\t// out\n        /* \"#utility.yul\":144:345   */\n    tag_55:\n        /* \"#utility.yul\":260:271   */\n      0x00\n        /* \"#utility.yul\":294:300   */\n      dup3\n        /* \"#utility.yul\":289:292   */\n      dup3\n        /* \"#utility.yul\":282:301   */\n      mstore\n        /* \"#utility.yul\":334:338   */\n      0x20\n        /* \"#utility.yul\":329:332   */\n      dup3\n        /* \"#utility.yul\":325:339   */\n      add\n        /* \"#utility.yul\":310:339   */\n      swap1\n      pop\n        /* \"#utility.yul\":144:345   */\n      swap3\n      swap2\n      pop\n      pop\n      jump\t// out\n        /* \"#utility.yul\":351:500   */\n    tag_56:\n        /* \"#utility.yul\":435:439   */\n      0x00\n        /* \"#utility.yul\":458:461   */\n      dup2\n        /* \"#utility.yul\":450:461   */\n      swap1\n      pop\n        /* \"#utility.yul\":488:492   */\n      0x20\n        /* \"#utility.yul\":483:486   */\n      dup3\n        /* \"#utility.yul\":479:493   */\n      add\n        /* \"#utility.yul\":471:493   */\n      swap1\n      pop\n        /* \"#utility.yul\":351:500   */\n      swap2\n      swap1\n      pop\n      jump\t// out\n        /* \"#utility.yul\":506:605   */\n    tag_57:\n        /* \"#utility.yul\":558:564   */\n      0x00\n        /* \"#utility.yul\":592:597   */\n      dup2\n        /* \"#utility.yul\":586:598   */\n      mload\n        /* \"#utility.yul\":576:598   */\n      swap1\n      pop\n        /* \"#utility.yul\":506:605   */\n      swap2\n      swap1\n      pop\n      jump\t// out\n        /* \"#utility.yul\":611:770   */\n    tag_58:\n        /* \"#utility.yul\":685:696   */\n      0x00\n        /* \"#utility.yul\":719:725   */\n      dup3\n        /* \"#utility.yul\":714:717   */\n      dup3\n        /* \"#utility.yul\":707:726   */\n      mstore\n        /* \"#utility.yul\":759:763   */\n      0x20\n        /* \"#utility.yul\":754:757   */\n      dup3\n        /* \"#utility.yul\":750:764   */\n      add\n        /* \"#utility.yul\":735:764   */\n      swap1\n      pop\n        /* \"#utility.yul\":611:770   */\n      swap3\n      swap2\n      pop\n      pop\n      jump\t// out\n        /* \"#utility.yul\":776:1022   */\n    tag_59:\n        /* \"#utility.yul\":857:858   */\n      0x00\n        /* \"#utility.yul\":867:980   */\n    tag_111:\n        /* \"#utility.yul\":881:887   */\n      dup4\n        /* \"#utility.yul\":878:879   */\n      dup2\n        /* \"#utility.yul\":875:888   */\n      lt\n        /* \"#utility.yul\":867:980   */\n      iszero\n      tag_113\n      jumpi\n        /* \"#utility.yul\":966:967   */\n      dup1\n        /* \"#utility.yul\":961:964   */\n      dup3\n        /* \"#utility.yul\":957:968   */\n      add\n        /* \"#utility.yul\":951:969   */\n      mload\n        /* \"#utility.yul\":947:948   */\n      dup2\n        /* \"#utility.yul\":942:945   */\n      dup5\n        /* \"#utility.yul\":938:949   */\n      add\n        /* \"#utility.yul\":931:970   */\n      mstore\n        /* \"#utility.yul\":903:905   */\n      0x20\n        /* \"#utility.yul\":900:901   */\n      dup2\n        /* \"#utility.yul\":896:906   */\n      add\n        /* \"#utility.yul\":891:906   */\n      swap1\n      pop\n        /* \"#utility.yul\":867:980   */\n      jump(tag_111)\n    tag_113:\n        /* \"#utility.yul\":1014:1015   */\n      0x00\n        /* \"#utility.yul\":1005:1011   */\n      dup5\n        /* \"#utility.yul\":1000:1003   */\n      dup5\n        /* \"#utility.yul\":996:1012   */\n      add\n        /* \"#utility.yul\":989:1016   */\n      mstore\n        /* \"#utility.yul\":838:1022   */\n      pop\n        /* \"#utility.yul\":776:1022   */\n      pop\n      pop\n      pop\n      jump\t// out\n        /* \"#utility.yul\":1028:1130   */\n    tag_60:\n        /* \"#utility.yul\":1069:1075   */\n      0x00\n        /* \"#utility.yul\":1120:1122   */\n      0x1f\n        /* \"#utility.yul\":1116:1123   */\n      not\n        /* \"#utility.yul\":1111:1113   */\n      0x1f\n        /* \"#utility.yul\":1104:1109   */\n      dup4\n        /* \"#utility.yul\":1100:1114   */\n      add\n        /* \"#utility.yul\":1096:1124   */\n      and\n        /* \"#utility.yul\":1086:1124   */\n      swap1\n      pop\n        /* \"#utility.yul\":1028:1130   */\n      swap2\n      swap1\n      pop\n      jump\t// out\n        /* \"#utility.yul\":1136:1493   */\n    tag_61:\n        /* \"#utility.yul\":1214:1217   */\n      0x00\n        /* \"#utility.yul\":1242:1281   */\n      tag_116\n        /* \"#utility.yul\":1275:1280   */\n      dup3\n        /* \"#utility.yul\":1242:1281   */\n      tag_57\n      jump\t// in\n    tag_116:\n        /* \"#utility.yul\":1297:1358   */\n      tag_117\n        /* \"#utility.yul\":1351:1357   */\n      dup2\n        /* \"#utility.yul\":1346:1349   */\n      dup6\n        /* \"#utility.yul\":1297:1358   */\n      tag_58\n      jump\t// in\n    tag_117:\n        /* \"#utility.yul\":1290:1358   */\n      swap4\n      pop\n        /* \"#utility.yul\":1367:1432   */\n      tag_118\n        /* \"#utility.yul\":1425:1431   */\n      dup2\n        /* \"#utility.yul\":1420:1423   */\n      dup6\n        /* \"#utility.yul\":1413:1417   */\n      0x20\n        /* \"#utility.yul\":1406:1411   */\n      dup7\n        /* \"#utility.yul\":1402:1418   */\n      add\n        /* \"#utility.yul\":1367:1432   */\n      tag_59\n      jump\t// in\n    tag_118:\n        /* \"#utility.yul\":1457:1486   */\n      tag_119\n        /* \"#utility.yul\":1479:1485   */\n      dup2\n        /* \"#utility.yul\":1457:1486   */\n      tag_60\n      jump\t// in\n    tag_119:\n        /* \"#utility.yul\":1452:1455   */\n      dup5\n        /* \"#utility.yul\":1448:1487   */\n      add\n        /* \"#utility.yul\":1441:1487   */\n      swap2\n      pop\n        /* \"#utility.yul\":1218:1493   */\n      pop\n        /* \"#utility.yul\":1136:1493   */\n      swap3\n      swap2\n      pop\n      pop\n      jump\t// out\n        /* \"#utility.yul\":1499:1576   */\n    tag_62:\n        /* \"#utility.yul\":1536:1543   */\n      0x00\n        /* \"#utility.yul\":1565:1570   */\n      dup2\n        /* \"#utility.yul\":1554:1570   */\n      swap1\n      pop\n        /* \"#utility.yul\":1499:1576   */\n      swap2\n      swap1\n      pop\n      jump\t// out\n        /* \"#utility.yul\":1582:1690   */\n    tag_63:\n        /* \"#utility.yul\":1659:1683   */\n      tag_122\n        /* \"#utility.yul\":1677:1682   */\n      dup2\n        /* \"#utility.yul\":1659:1683   */\n      tag_62\n      jump\t// in\n    tag_122:\n        /* \"#utility.yul\":1654:1657   */\n      dup3\n        /* \"#utility.yul\":1647:1684   */\n      mstore\n        /* \"#utility.yul\":1582:1690   */\n      pop\n      pop\n      jump\t// out\n        /* \"#utility.yul\":1696:1845   */\n    tag_64:\n        /* \"#utility.yul\":1732:1739   */\n      0x00\n        /* \"#utility.yul\":1772:1838   */\n      0xffff000000000000000000000000000000000000000000000000000000000000\n        /* \"#utility.yul\":1765:1770   */\n      dup3\n        /* \"#utility.yul\":1761:1839   */\n      and\n        /* \"#utility.yul\":1750:1839   */\n      swap1\n      pop\n        /* \"#utility.yul\":1696:1845   */\n      swap2\n      swap1\n      pop\n      jump\t// out\n        /* \"#utility.yul\":1851:1956   */\n    tag_65:\n        /* \"#utility.yul\":1926:1949   */\n      tag_125\n        /* \"#utility.yul\":1943:1948   */\n      dup2\n        /* \"#utility.yul\":1926:1949   */\n      tag_64\n      jump\t// in\n    tag_125:\n        /* \"#utility.yul\":1921:1924   */\n      dup3\n        /* \"#utility.yul\":1914:1950   */\n      mstore\n        /* \"#utility.yul\":1851:1956   */\n      pop\n      pop\n      jump\t// out\n        /* \"#utility.yul\":2002:2745   */\n    tag_66:\n        /* \"#utility.yul\":2095:2098   */\n      0x00\n        /* \"#utility.yul\":2131:2135   */\n      0x60\n        /* \"#utility.yul\":2126:2129   */\n      dup4\n        /* \"#utility.yul\":2122:2136   */\n      add\n        /* \"#utility.yul\":2215:2219   */\n      0x00\n        /* \"#utility.yul\":2208:2213   */\n      dup4\n        /* \"#utility.yul\":2204:2220   */\n      add\n        /* \"#utility.yul\":2198:2221   */\n      mload\n        /* \"#utility.yul\":2268:2271   */\n      dup5\n        /* \"#utility.yul\":2262:2266   */\n      dup3\n        /* \"#utility.yul\":2258:2272   */\n      sub\n        /* \"#utility.yul\":2251:2255   */\n      0x00\n        /* \"#utility.yul\":2246:2249   */\n      dup7\n        /* \"#utility.yul\":2242:2256   */\n      add\n        /* \"#utility.yul\":2235:2273   */\n      mstore\n        /* \"#utility.yul\":2294:2367   */\n      tag_127\n        /* \"#utility.yul\":2362:2366   */\n      dup3\n        /* \"#utility.yul\":2348:2360   */\n      dup3\n        /* \"#utility.yul\":2294:2367   */\n      tag_61\n      jump\t// in\n    tag_127:\n        /* \"#utility.yul\":2286:2367   */\n      swap2\n      pop\n        /* \"#utility.yul\":2146:2378   */\n      pop\n        /* \"#utility.yul\":2457:2461   */\n      0x20\n        /* \"#utility.yul\":2450:2455   */\n      dup4\n        /* \"#utility.yul\":2446:2462   */\n      add\n        /* \"#utility.yul\":2440:2463   */\n      mload\n        /* \"#utility.yul\":2476:2539   */\n      tag_128\n        /* \"#utility.yul\":2533:2537   */\n      0x20\n        /* \"#utility.yul\":2528:2531   */\n      dup7\n        /* \"#utility.yul\":2524:2538   */\n      add\n        /* \"#utility.yul\":2510:2522   */\n      dup3\n        /* \"#utility.yul\":2476:2539   */\n      tag_63\n      jump\t// in\n    tag_128:\n        /* \"#utility.yul\":2388:2549   */\n      pop\n        /* \"#utility.yul\":2628:2632   */\n      0x40\n        /* \"#utility.yul\":2621:2626   */\n      dup4\n        /* \"#utility.yul\":2617:2633   */\n      add\n        /* \"#utility.yul\":2611:2634   */\n      mload\n        /* \"#utility.yul\":2647:2708   */\n      tag_129\n        /* \"#utility.yul\":2702:2706   */\n      0x40\n        /* \"#utility.yul\":2697:2700   */\n      dup7\n        /* \"#utility.yul\":2693:2707   */\n      add\n        /* \"#utility.yul\":2679:2691   */\n      dup3\n        /* \"#utility.yul\":2647:2708   */\n      tag_65\n      jump\t// in\n    tag_129:\n        /* \"#utility.yul\":2559:2718   */\n      pop\n        /* \"#utility.yul\":2735:2739   */\n      dup1\n        /* \"#utility.yul\":2728:2739   */\n      swap2\n      pop\n        /* \"#utility.yul\":2100:2745   */\n      pop\n        /* \"#utility.yul\":2002:2745   */\n      swap3\n      swap2\n      pop\n      pop\n      jump\t// out\n        /* \"#utility.yul\":2751:2975   */\n    tag_67:\n        /* \"#utility.yul\":2854:2864   */\n      0x00\n        /* \"#utility.yul\":2889:2969   */\n      tag_131\n        /* \"#utility.yul\":2965:2968   */\n      dup4\n        /* \"#utility.yul\":2957:2963   */\n      dup4\n        /* \"#utility.yul\":2889:2969   */\n      tag_66\n      jump\t// in\n    tag_131:\n        /* \"#utility.yul\":2875:2969   */\n      swap1\n      pop\n        /* \"#utility.yul\":2751:2975   */\n      swap3\n      swap2\n      pop\n      pop\n      jump\t// out\n        /* \"#utility.yul\":2981:3111   */\n    tag_68:\n        /* \"#utility.yul\":3068:3072   */\n      0x00\n        /* \"#utility.yul\":3100:3104   */\n      0x20\n        /* \"#utility.yul\":3095:3098   */\n      dup3\n        /* \"#utility.yul\":3091:3105   */\n      add\n        /* \"#utility.yul\":3083:3105   */\n      swap1\n      pop\n        /* \"#utility.yul\":2981:3111   */\n      swap2\n      swap1\n      pop\n      jump\t// out\n        /* \"#utility.yul\":3161:4208   */\n    tag_69:\n        /* \"#utility.yul\":3314:3317   */\n      0x00\n        /* \"#utility.yul\":3343:3414   */\n      tag_134\n        /* \"#utility.yul\":3408:3413   */\n      dup3\n        /* \"#utility.yul\":3343:3414   */\n      tag_54\n      jump\t// in\n    tag_134:\n        /* \"#utility.yul\":3430:3533   */\n      tag_135\n        /* \"#utility.yul\":3526:3532   */\n      dup2\n        /* \"#utility.yul\":3521:3524   */\n      dup6\n        /* \"#utility.yul\":3430:3533   */\n      tag_55\n      jump\t// in\n    tag_135:\n        /* \"#utility.yul\":3423:3533   */\n      swap4\n      pop\n        /* \"#utility.yul\":3559:3562   */\n      dup4\n        /* \"#utility.yul\":3604:3608   */\n      0x20\n        /* \"#utility.yul\":3596:3602   */\n      dup3\n        /* \"#utility.yul\":3592:3609   */\n      mul\n        /* \"#utility.yul\":3587:3590   */\n      dup6\n        /* \"#utility.yul\":3583:3610   */\n      add\n        /* \"#utility.yul\":3634:3707   */\n      tag_136\n        /* \"#utility.yul\":3701:3706   */\n      dup6\n        /* \"#utility.yul\":3634:3707   */\n      tag_56\n      jump\t// in\n    tag_136:\n        /* \"#utility.yul\":3730:3737   */\n      dup1\n        /* \"#utility.yul\":3761:3762   */\n      0x00\n        /* \"#utility.yul\":3746:4163   */\n    tag_137:\n        /* \"#utility.yul\":3771:3777   */\n      dup6\n        /* \"#utility.yul\":3768:3769   */\n      dup2\n        /* \"#utility.yul\":3765:3778   */\n      lt\n        /* \"#utility.yul\":3746:4163   */\n      iszero\n      tag_139\n      jumpi\n        /* \"#utility.yul\":3842:3851   */\n      dup5\n        /* \"#utility.yul\":3836:3840   */\n      dup5\n        /* \"#utility.yul\":3832:3852   */\n      sub\n        /* \"#utility.yul\":3827:3830   */\n      dup10\n        /* \"#utility.yul\":3820:3853   */\n      mstore\n        /* \"#utility.yul\":3893:3899   */\n      dup2\n        /* \"#utility.yul\":3887:3900   */\n      mload\n        /* \"#utility.yul\":3921:4019   */\n      tag_140\n        /* \"#utility.yul\":4014:4018   */\n      dup6\n        /* \"#utility.yul\":3999:4012   */\n      dup3\n        /* \"#utility.yul\":3921:4019   */\n      tag_67\n      jump\t// in\n    tag_140:\n        /* \"#utility.yul\":3913:4019   */\n      swap5\n      pop\n        /* \"#utility.yul\":4042:4119   */\n      tag_141\n        /* \"#utility.yul\":4112:4118   */\n      dup4\n        /* \"#utility.yul\":4042:4119   */\n      tag_68\n      jump\t// in\n    tag_141:\n        /* \"#utility.yul\":4032:4119   */\n      swap3\n      pop\n        /* \"#utility.yul\":4148:4152   */\n      0x20\n        /* \"#utility.yul\":4143:4146   */\n      dup11\n        /* \"#utility.yul\":4139:4153   */\n      add\n        /* \"#utility.yul\":4132:4153   */\n      swap10\n      pop\n        /* \"#utility.yul\":3806:4163   */\n      pop\n        /* \"#utility.yul\":3793:3794   */\n      0x01\n        /* \"#utility.yul\":3790:3791   */\n      dup2\n        /* \"#utility.yul\":3786:3795   */\n      add\n        /* \"#utility.yul\":3781:3795   */\n      swap1\n      pop\n        /* \"#utility.yul\":3746:4163   */\n      jump(tag_137)\n    tag_139:\n        /* \"#utility.yul\":3750:3764   */\n      pop\n        /* \"#utility.yul\":4179:4183   */\n      dup3\n        /* \"#utility.yul\":4172:4183   */\n      swap8\n      pop\n        /* \"#utility.yul\":4199:4202   */\n      dup8\n        /* \"#utility.yul\":4192:4202   */\n      swap6\n      pop\n        /* \"#utility.yul\":3319:4208   */\n      pop\n      pop\n      pop\n      pop\n      pop\n        /* \"#utility.yul\":3161:4208   */\n      swap3\n      swap2\n      pop\n      pop\n      jump\t// out\n        /* \"#utility.yul\":4214:4655   */\n    tag_10:\n        /* \"#utility.yul\":4391:4395   */\n      0x00\n        /* \"#utility.yul\":4429:4431   */\n      0x20\n        /* \"#utility.yul\":4418:4427   */\n      dup3\n        /* \"#utility.yul\":4414:4432   */\n      add\n        /* \"#utility.yul\":4406:4432   */\n      swap1\n      pop\n        /* \"#utility.yul\":4478:4487   */\n      dup2\n        /* \"#utility.yul\":4472:4476   */\n      dup2\n        /* \"#utility.yul\":4468:4488   */\n      sub\n        /* \"#utility.yul\":4464:4465   */\n      0x00\n        /* \"#utility.yul\":4453:4462   */\n      dup4\n        /* \"#utility.yul\":4449:4466   */\n      add\n        /* \"#utility.yul\":4442:4489   */\n      mstore\n        /* \"#utility.yul\":4506:4648   */\n      tag_143\n        /* \"#utility.yul\":4643:4647   */\n      dup2\n        /* \"#utility.yul\":4634:4640   */\n      dup5\n        /* \"#utility.yul\":4506:4648   */\n      tag_69\n      jump\t// in\n    tag_143:\n        /* \"#utility.yul\":4498:4648   */\n      swap1\n      pop\n        /* \"#utility.yul\":4214:4655   */\n      swap3\n      swap2\n      pop\n      pop\n      jump\t// out\n        /* \"#utility.yul\":4661:4736   */\n    tag_70:\n        /* \"#utility.yul\":4694:4700   */\n      0x00\n        /* \"#utility.yul\":4727:4729   */\n      0x40\n        /* \"#utility.yul\":4721:4730   */\n      mload\n        /* \"#utility.yul\":4711:4730   */\n      swap1\n      pop\n        /* \"#utility.yul\":4661:4736   */\n      swap1\n      jump\t// out\n        /* \"#utility.yul\":4742:4859   */\n    tag_71:\n        /* \"#utility.yul\":4851:4852   */\n      0x00\n        /* \"#utility.yul\":4848:4849   */\n      dup1\n        /* \"#utility.yul\":4841:4853   */\n      revert\n        /* \"#utility.yul\":4865:4982   */\n    tag_72:\n        /* \"#utility.yul\":4974:4975   */\n      0x00\n        /* \"#utility.yul\":4971:4972   */\n      dup1\n        /* \"#utility.yul\":4964:4976   */\n      revert\n        /* \"#utility.yul\":4988:5105   */\n    tag_73:\n        /* \"#utility.yul\":5097:5098   */\n      0x00\n        /* \"#utility.yul\":5094:5095   */\n      dup1\n        /* \"#utility.yul\":5087:5099   */\n      revert\n        /* \"#utility.yul\":5111:5228   */\n    tag_74:\n        /* \"#utility.yul\":5220:5221   */\n      0x00\n        /* \"#utility.yul\":5217:5218   */\n      dup1\n        /* \"#utility.yul\":5210:5222   */\n      revert\n        /* \"#utility.yul\":5234:5414   */\n    tag_75:\n        /* \"#utility.yul\":5282:5359   */\n      0x4e487b7100000000000000000000000000000000000000000000000000000000\n        /* \"#utility.yul\":5279:5280   */\n      0x00\n        /* \"#utility.yul\":5272:5360   */\n      mstore\n        /* \"#utility.yul\":5379:5383   */\n      0x41\n        /* \"#utility.yul\":5376:5377   */\n      0x04\n        /* \"#utility.yul\":5369:5384   */\n      mstore\n        /* \"#utility.yul\":5403:5407   */\n      0x24\n        /* \"#utility.yul\":5400:5401   */\n      0x00\n        /* \"#utility.yul\":5393:5408   */\n      revert\n        /* \"#utility.yul\":5420:5701   */\n    tag_76:\n        /* \"#utility.yul\":5503:5530   */\n      tag_151\n        /* \"#utility.yul\":5525:5529   */\n      dup3\n        /* \"#utility.yul\":5503:5530   */\n      tag_60\n      jump\t// in\n    tag_151:\n        /* \"#utility.yul\":5495:5501   */\n      dup2\n        /* \"#utility.yul\":5491:5531   */\n      add\n        /* \"#utility.yul\":5633:5639   */\n      dup2\n        /* \"#utility.yul\":5621:5631   */\n      dup2\n        /* \"#utility.yul\":5618:5640   */\n      lt\n        /* \"#utility.yul\":5597:5615   */\n      0xffffffffffffffff\n        /* \"#utility.yul\":5585:5595   */\n      dup3\n        /* \"#utility.yul\":5582:5616   */\n      gt\n        /* \"#utility.yul\":5579:5641   */\n      or\n        /* \"#utility.yul\":5576:5664   */\n      iszero\n      tag_152\n      jumpi\n        /* \"#utility.yul\":5644:5662   */\n      tag_153\n      tag_75\n      jump\t// in\n    tag_153:\n        /* \"#utility.yul\":5576:5664   */\n    tag_152:\n        /* \"#utility.yul\":5684:5694   */\n      dup1\n        /* \"#utility.yul\":5680:5682   */\n      0x40\n        /* \"#utility.yul\":5673:5695   */\n      mstore\n        /* \"#utility.yul\":5463:5701   */\n      pop\n        /* \"#utility.yul\":5420:5701   */\n      pop\n      pop\n      jump\t// out\n        /* \"#utility.yul\":5707:5836   */\n    tag_77:\n        /* \"#utility.yul\":5741:5747   */\n      0x00\n        /* \"#utility.yul\":5768:5788   */\n      tag_155\n      tag_70\n      jump\t// in\n    tag_155:\n        /* \"#utility.yul\":5758:5788   */\n      swap1\n      pop\n        /* \"#utility.yul\":5797:5830   */\n      tag_156\n        /* \"#utility.yul\":5825:5829   */\n      dup3\n        /* \"#utility.yul\":5817:5823   */\n      dup3\n        /* \"#utility.yul\":5797:5830   */\n      tag_76\n      jump\t// in\n    tag_156:\n        /* \"#utility.yul\":5707:5836   */\n      swap2\n      swap1\n      pop\n      jump\t// out\n        /* \"#utility.yul\":5842:6150   */\n    tag_78:\n        /* \"#utility.yul\":5904:5908   */\n      0x00\n        /* \"#utility.yul\":5994:6012   */\n      0xffffffffffffffff\n        /* \"#utility.yul\":5986:5992   */\n      dup3\n        /* \"#utility.yul\":5983:6013   */\n      gt\n        /* \"#utility.yul\":5980:6036   */\n      iszero\n      tag_158\n      jumpi\n        /* \"#utility.yul\":6016:6034   */\n      tag_159\n      tag_75\n      jump\t// in\n    tag_159:\n        /* \"#utility.yul\":5980:6036   */\n    tag_158:\n        /* \"#utility.yul\":6054:6083   */\n      tag_160\n        /* \"#utility.yul\":6076:6082   */\n      dup3\n        /* \"#utility.yul\":6054:6083   */\n      tag_60\n      jump\t// in\n    tag_160:\n        /* \"#utility.yul\":6046:6083   */\n      swap1\n      pop\n        /* \"#utility.yul\":6138:6142   */\n      0x20\n        /* \"#utility.yul\":6132:6136   */\n      dup2\n        /* \"#utility.yul\":6128:6143   */\n      add\n        /* \"#utility.yul\":6120:6143   */\n      swap1\n      pop\n        /* \"#utility.yul\":5842:6150   */\n      swap2\n      swap1\n      pop\n      jump\t// out\n        /* \"#utility.yul\":6156:6302   */\n    tag_79:\n        /* \"#utility.yul\":6253:6259   */\n      dup3\n        /* \"#utility.yul\":6248:6251   */\n      dup2\n        /* \"#utility.yul\":6243:6246   */\n      dup4\n        /* \"#utility.yul\":6230:6260   */\n      calldatacopy\n        /* \"#utility.yul\":6294:6295   */\n      0x00\n        /* \"#utility.yul\":6285:6291   */\n      dup4\n        /* \"#utility.yul\":6280:6283   */\n      dup4\n        /* \"#utility.yul\":6276:6292   */\n      add\n        /* \"#utility.yul\":6269:6296   */\n      mstore\n        /* \"#utility.yul\":6156:6302   */\n      pop\n      pop\n      pop\n      jump\t// out\n        /* \"#utility.yul\":6308:6733   */\n    tag_80:\n        /* \"#utility.yul\":6386:6391   */\n      0x00\n        /* \"#utility.yul\":6411:6477   */\n      tag_163\n        /* \"#utility.yul\":6427:6476   */\n      tag_164\n        /* \"#utility.yul\":6469:6475   */\n      dup5\n        /* \"#utility.yul\":6427:6476   */\n      tag_78\n      jump\t// in\n    tag_164:\n        /* \"#utility.yul\":6411:6477   */\n      tag_77\n      jump\t// in\n    tag_163:\n        /* \"#utility.yul\":6402:6477   */\n      swap1\n      pop\n        /* \"#utility.yul\":6500:6506   */\n      dup3\n        /* \"#utility.yul\":6493:6498   */\n      dup2\n        /* \"#utility.yul\":6486:6507   */\n      mstore\n        /* \"#utility.yul\":6538:6542   */\n      0x20\n        /* \"#utility.yul\":6531:6536   */\n      dup2\n        /* \"#utility.yul\":6527:6543   */\n      add\n        /* \"#utility.yul\":6576:6579   */\n      dup5\n        /* \"#utility.yul\":6567:6573   */\n      dup5\n        /* \"#utility.yul\":6562:6565   */\n      dup5\n        /* \"#utility.yul\":6558:6574   */\n      add\n        /* \"#utility.yul\":6555:6580   */\n      gt\n        /* \"#utility.yul\":6552:6664   */\n      iszero\n      tag_165\n      jumpi\n        /* \"#utility.yul\":6583:6662   */\n      tag_166\n      tag_74\n      jump\t// in\n    tag_166:\n        /* \"#utility.yul\":6552:6664   */\n    tag_165:\n        /* \"#utility.yul\":6673:6727   */\n      tag_167\n        /* \"#utility.yul\":6720:6726   */\n      dup5\n        /* \"#utility.yul\":6715:6718   */\n      dup3\n        /* \"#utility.yul\":6710:6713   */\n      dup6\n        /* \"#utility.yul\":6673:6727   */\n      tag_79\n      jump\t// in\n    tag_167:\n        /* \"#utility.yul\":6392:6733   */\n      pop\n        /* \"#utility.yul\":6308:6733   */\n      swap4\n      swap3\n      pop\n      pop\n      pop\n      jump\t// out\n        /* \"#utility.yul\":6753:7093   */\n    tag_81:\n        /* \"#utility.yul\":6809:6814   */\n      0x00\n        /* \"#utility.yul\":6858:6861   */\n      dup3\n        /* \"#utility.yul\":6851:6855   */\n      0x1f\n        /* \"#utility.yul\":6843:6849   */\n      dup4\n        /* \"#utility.yul\":6839:6856   */\n      add\n        /* \"#utility.yul\":6835:6862   */\n      slt\n        /* \"#utility.yul\":6825:6947   */\n      tag_169\n      jumpi\n        /* \"#utility.yul\":6866:6945   */\n      tag_170\n      tag_73\n      jump\t// in\n    tag_170:\n        /* \"#utility.yul\":6825:6947   */\n    tag_169:\n        /* \"#utility.yul\":6983:6989   */\n      dup2\n        /* \"#utility.yul\":6970:6990   */\n      calldataload\n        /* \"#utility.yul\":7008:7087   */\n      tag_171\n        /* \"#utility.yul\":7083:7086   */\n      dup5\n        /* \"#utility.yul\":7075:7081   */\n      dup3\n        /* \"#utility.yul\":7068:7072   */\n      0x20\n        /* \"#utility.yul\":7060:7066   */\n      dup7\n        /* \"#utility.yul\":7056:7073   */\n      add\n        /* \"#utility.yul\":7008:7087   */\n      tag_80\n      jump\t// in\n    tag_171:\n        /* \"#utility.yul\":6999:7087   */\n      swap2\n      pop\n        /* \"#utility.yul\":6815:7093   */\n      pop\n        /* \"#utility.yul\":6753:7093   */\n      swap3\n      swap2\n      pop\n      pop\n      jump\t// out\n        /* \"#utility.yul\":7099:7221   */\n    tag_82:\n        /* \"#utility.yul\":7172:7196   */\n      tag_173\n        /* \"#utility.yul\":7190:7195   */\n      dup2\n        /* \"#utility.yul\":7172:7196   */\n      tag_62\n      jump\t// in\n    tag_173:\n        /* \"#utility.yul\":7165:7170   */\n      dup2\n        /* \"#utility.yul\":7162:7197   */\n      eq\n        /* \"#utility.yul\":7152:7215   */\n      tag_174\n      jumpi\n        /* \"#utility.yul\":7211:7212   */\n      0x00\n        /* \"#utility.yul\":7208:7209   */\n      dup1\n        /* \"#utility.yul\":7201:7213   */\n      revert\n        /* \"#utility.yul\":7152:7215   */\n    tag_174:\n        /* \"#utility.yul\":7099:7221   */\n      pop\n      jump\t// out\n        /* \"#utility.yul\":7227:7366   */\n    tag_83:\n        /* \"#utility.yul\":7273:7278   */\n      0x00\n        /* \"#utility.yul\":7311:7317   */\n      dup2\n        /* \"#utility.yul\":7298:7318   */\n      calldataload\n        /* \"#utility.yul\":7289:7318   */\n      swap1\n      pop\n        /* \"#utility.yul\":7327:7360   */\n      tag_176\n        /* \"#utility.yul\":7354:7359   */\n      dup2\n        /* \"#utility.yul\":7327:7360   */\n      tag_82\n      jump\t// in\n    tag_176:\n        /* \"#utility.yul\":7227:7366   */\n      swap3\n      swap2\n      pop\n      pop\n      jump\t// out\n        /* \"#utility.yul\":7372:7492   */\n    tag_84:\n        /* \"#utility.yul\":7444:7467   */\n      tag_178\n        /* \"#utility.yul\":7461:7466   */\n      dup2\n        /* \"#utility.yul\":7444:7467   */\n      tag_64\n      jump\t// in\n    tag_178:\n        /* \"#utility.yul\":7437:7442   */\n      dup2\n        /* \"#utility.yul\":7434:7468   */\n      eq\n        /* \"#utility.yul\":7424:7486   */\n      tag_179\n      jumpi\n        /* \"#utility.yul\":7482:7483   */\n      0x00\n        /* \"#utility.yul\":7479:7480   */\n      dup1\n        /* \"#utility.yul\":7472:7484   */\n      revert\n        /* \"#utility.yul\":7424:7486   */\n    tag_179:\n        /* \"#utility.yul\":7372:7492   */\n      pop\n      jump\t// out\n        /* \"#utility.yul\":7498:7635   */\n    tag_85:\n        /* \"#utility.yul\":7543:7548   */\n      0x00\n        /* \"#utility.yul\":7581:7587   */\n      dup2\n        /* \"#utility.yul\":7568:7588   */\n      calldataload\n        /* \"#utility.yul\":7559:7588   */\n      swap1\n      pop\n        /* \"#utility.yul\":7597:7629   */\n      tag_181\n        /* \"#utility.yul\":7623:7628   */\n      dup2\n        /* \"#utility.yul\":7597:7629   */\n      tag_84\n      jump\t// in\n    tag_181:\n        /* \"#utility.yul\":7498:7635   */\n      swap3\n      swap2\n      pop\n      pop\n      jump\t// out\n        /* \"#utility.yul\":7641:8438   */\n    tag_13:\n        /* \"#utility.yul\":7727:7733   */\n      0x00\n        /* \"#utility.yul\":7735:7741   */\n      dup1\n        /* \"#utility.yul\":7743:7749   */\n      0x00\n        /* \"#utility.yul\":7792:7794   */\n      0x60\n        /* \"#utility.yul\":7780:7789   */\n      dup5\n        /* \"#utility.yul\":7771:7778   */\n      dup7\n        /* \"#utility.yul\":7767:7790   */\n      sub\n        /* \"#utility.yul\":7763:7795   */\n      slt\n        /* \"#utility.yul\":7760:7879   */\n      iszero\n      tag_183\n      jumpi\n        /* \"#utility.yul\":7798:7877   */\n      tag_184\n      tag_71\n      jump\t// in\n    tag_184:\n        /* \"#utility.yul\":7760:7879   */\n    tag_183:\n        /* \"#utility.yul\":7946:7947   */\n      0x00\n        /* \"#utility.yul\":7935:7944   */\n      dup5\n        /* \"#utility.yul\":7931:7948   */\n      add\n        /* \"#utility.yul\":7918:7949   */\n      calldataload\n        /* \"#utility.yul\":7976:7994   */\n      0xffffffffffffffff\n        /* \"#utility.yul\":7968:7974   */\n      dup2\n        /* \"#utility.yul\":7965:7995   */\n      gt\n        /* \"#utility.yul\":7962:8079   */\n      iszero\n      tag_185\n      jumpi\n        /* \"#utility.yul\":7998:8077   */\n      tag_186\n      tag_72\n      jump\t// in\n    tag_186:\n        /* \"#utility.yul\":7962:8079   */\n    tag_185:\n        /* \"#utility.yul\":8103:8166   */\n      tag_187\n        /* \"#utility.yul\":8158:8165   */\n      dup7\n        /* \"#utility.yul\":8149:8155   */\n      dup3\n        /* \"#utility.yul\":8138:8147   */\n      dup8\n        /* \"#utility.yul\":8134:8156   */\n      add\n        /* \"#utility.yul\":8103:8166   */\n      tag_81\n      jump\t// in\n    tag_187:\n        /* \"#utility.yul\":8093:8166   */\n      swap4\n      pop\n        /* \"#utility.yul\":7889:8176   */\n      pop\n        /* \"#utility.yul\":8215:8217   */\n      0x20\n        /* \"#utility.yul\":8241:8294   */\n      tag_188\n        /* \"#utility.yul\":8286:8293   */\n      dup7\n        /* \"#utility.yul\":8277:8283   */\n      dup3\n        /* \"#utility.yul\":8266:8275   */\n      dup8\n        /* \"#utility.yul\":8262:8284   */\n      add\n        /* \"#utility.yul\":8241:8294   */\n      tag_83\n      jump\t// in\n    tag_188:\n        /* \"#utility.yul\":8231:8294   */\n      swap3\n      pop\n        /* \"#utility.yul\":8186:8304   */\n      pop\n        /* \"#utility.yul\":8343:8345   */\n      0x40\n        /* \"#utility.yul\":8369:8421   */\n      tag_189\n        /* \"#utility.yul\":8413:8420   */\n      dup7\n        /* \"#utility.yul\":8404:8410   */\n      dup3\n        /* \"#utility.yul\":8393:8402   */\n      dup8\n        /* \"#utility.yul\":8389:8411   */\n      add\n        /* \"#utility.yul\":8369:8421   */\n      tag_85\n      jump\t// in\n    tag_189:\n        /* \"#utility.yul\":8359:8421   */\n      swap2\n      pop\n        /* \"#utility.yul\":8314:8431   */\n      pop\n        /* \"#utility.yul\":7641:8438   */\n      swap3\n      pop\n      swap3\n      pop\n      swap3\n      jump\t// out\n        /* \"#utility.yul\":8444:8773   */\n    tag_20:\n        /* \"#utility.yul\":8503:8509   */\n      0x00\n        /* \"#utility.yul\":8552:8554   */\n      0x20\n        /* \"#utility.yul\":8540:8549   */\n      dup3\n        /* \"#utility.yul\":8531:8538   */\n      dup5\n        /* \"#utility.yul\":8527:8550   */\n      sub\n        /* \"#utility.yul\":8523:8555   */\n      slt\n        /* \"#utility.yul\":8520:8639   */\n      iszero\n      tag_191\n      jumpi\n        /* \"#utility.yul\":8558:8637   */\n      tag_192\n      tag_71\n      jump\t// in\n    tag_192:\n        /* \"#utility.yul\":8520:8639   */\n    tag_191:\n        /* \"#utility.yul\":8678:8679   */\n      0x00\n        /* \"#utility.yul\":8703:8756   */\n      tag_193\n        /* \"#utility.yul\":8748:8755   */\n      dup5\n        /* \"#utility.yul\":8739:8745   */\n      dup3\n        /* \"#utility.yul\":8728:8737   */\n      dup6\n        /* \"#utility.yul\":8724:8746   */\n      add\n        /* \"#utility.yul\":8703:8756   */\n      tag_83\n      jump\t// in\n    tag_193:\n        /* \"#utility.yul\":8693:8756   */\n      swap2\n      pop\n        /* \"#utility.yul\":8649:8766   */\n      pop\n        /* \"#utility.yul\":8444:8773   */\n      swap3\n      swap2\n      pop\n      pop\n      jump\t// out\n        /* \"#utility.yul\":8819:9572   */\n    tag_86:\n        /* \"#utility.yul\":8922:8925   */\n      0x00\n        /* \"#utility.yul\":8958:8962   */\n      0x60\n        /* \"#utility.yul\":8953:8956   */\n      dup4\n        /* \"#utility.yul\":8949:8963   */\n      add\n        /* \"#utility.yul\":9042:9046   */\n      0x00\n        /* \"#utility.yul\":9035:9040   */\n      dup4\n        /* \"#utility.yul\":9031:9047   */\n      add\n        /* \"#utility.yul\":9025:9048   */\n      mload\n        /* \"#utility.yul\":9095:9098   */\n      dup5\n        /* \"#utility.yul\":9089:9093   */\n      dup3\n        /* \"#utility.yul\":9085:9099   */\n      sub\n        /* \"#utility.yul\":9078:9082   */\n      0x00\n        /* \"#utility.yul\":9073:9076   */\n      dup7\n        /* \"#utility.yul\":9069:9083   */\n      add\n        /* \"#utility.yul\":9062:9100   */\n      mstore\n        /* \"#utility.yul\":9121:9194   */\n      tag_195\n        /* \"#utility.yul\":9189:9193   */\n      dup3\n        /* \"#utility.yul\":9175:9187   */\n      dup3\n        /* \"#utility.yul\":9121:9194   */\n      tag_61\n      jump\t// in\n    tag_195:\n        /* \"#utility.yul\":9113:9194   */\n      swap2\n      pop\n        /* \"#utility.yul\":8973:9205   */\n      pop\n        /* \"#utility.yul\":9284:9288   */\n      0x20\n        /* \"#utility.yul\":9277:9282   */\n      dup4\n        /* \"#utility.yul\":9273:9289   */\n      add\n        /* \"#utility.yul\":9267:9290   */\n      mload\n        /* \"#utility.yul\":9303:9366   */\n      tag_196\n        /* \"#utility.yul\":9360:9364   */\n      0x20\n        /* \"#utility.yul\":9355:9358   */\n      dup7\n        /* \"#utility.yul\":9351:9365   */\n      add\n        /* \"#utility.yul\":9337:9349   */\n      dup3\n        /* \"#utility.yul\":9303:9366   */\n      tag_63\n      jump\t// in\n    tag_196:\n        /* \"#utility.yul\":9215:9376   */\n      pop\n        /* \"#utility.yul\":9455:9459   */\n      0x40\n        /* \"#utility.yul\":9448:9453   */\n      dup4\n        /* \"#utility.yul\":9444:9460   */\n      add\n        /* \"#utility.yul\":9438:9461   */\n      mload\n        /* \"#utility.yul\":9474:9535   */\n      tag_197\n        /* \"#utility.yul\":9529:9533   */\n      0x40\n        /* \"#utility.yul\":9524:9527   */\n      dup7\n        /* \"#utility.yul\":9520:9534   */\n      add\n        /* \"#utility.yul\":9506:9518   */\n      dup3\n        /* \"#utility.yul\":9474:9535   */\n      tag_65\n      jump\t// in\n    tag_197:\n        /* \"#utility.yul\":9386:9545   */\n      pop\n        /* \"#utility.yul\":9562:9566   */\n      dup1\n        /* \"#utility.yul\":9555:9566   */\n      swap2\n      pop\n        /* \"#utility.yul\":8927:9572   */\n      pop\n        /* \"#utility.yul\":8819:9572   */\n      swap3\n      swap2\n      pop\n      pop\n      jump\t// out\n        /* \"#utility.yul\":9578:9919   */\n    tag_23:\n        /* \"#utility.yul\":9705:9709   */\n      0x00\n        /* \"#utility.yul\":9743:9745   */\n      0x20\n        /* \"#utility.yul\":9732:9741   */\n      dup3\n        /* \"#utility.yul\":9728:9746   */\n      add\n        /* \"#utility.yul\":9720:9746   */\n      swap1\n      pop\n        /* \"#utility.yul\":9792:9801   */\n      dup2\n        /* \"#utility.yul\":9786:9790   */\n      dup2\n        /* \"#utility.yul\":9782:9802   */\n      sub\n        /* \"#utility.yul\":9778:9779   */\n      0x00\n        /* \"#utility.yul\":9767:9776   */\n      dup4\n        /* \"#utility.yul\":9763:9780   */\n      add\n        /* \"#utility.yul\":9756:9803   */\n      mstore\n        /* \"#utility.yul\":9820:9912   */\n      tag_199\n        /* \"#utility.yul\":9907:9911   */\n      dup2\n        /* \"#utility.yul\":9898:9904   */\n      dup5\n        /* \"#utility.yul\":9820:9912   */\n      tag_86\n      jump\t// in\n    tag_199:\n        /* \"#utility.yul\":9812:9912   */\n      swap1\n      pop\n        /* \"#utility.yul\":9578:9919   */\n      swap3\n      swap2\n      pop\n      pop\n      jump\t// out\n        /* \"#utility.yul\":9925:10105   */\n    tag_87:\n        /* \"#utility.yul\":9973:10050   */\n      0x4e487b7100000000000000000000000000000000000000000000000000000000\n        /* \"#utility.yul\":9970:9971   */\n      0x00\n        /* \"#utility.yul\":9963:10051   */\n      mstore\n        /* \"#utility.yul\":10070:10074   */\n      0x22\n        /* \"#utility.yul\":10067:10068   */\n      0x04\n        /* \"#utility.yul\":10060:10075   */\n      mstore\n        /* \"#utility.yul\":10094:10098   */\n      0x24\n        /* \"#utility.yul\":10091:10092   */\n      0x00\n        /* \"#utility.yul\":10084:10099   */\n      revert\n        /* \"#utility.yul\":10111:10431   */\n    tag_29:\n        /* \"#utility.yul\":10155:10161   */\n      0x00\n        /* \"#utility.yul\":10192:10193   */\n      0x02\n        /* \"#utility.yul\":10186:10190   */\n      dup3\n        /* \"#utility.yul\":10182:10194   */\n      div\n        /* \"#utility.yul\":10172:10194   */\n      swap1\n      pop\n        /* \"#utility.yul\":10239:10240   */\n      0x01\n        /* \"#utility.yul\":10233:10237   */\n      dup3\n        /* \"#utility.yul\":10229:10241   */\n      and\n        /* \"#utility.yul\":10260:10278   */\n      dup1\n        /* \"#utility.yul\":10250:10331   */\n      tag_202\n      jumpi\n        /* \"#utility.yul\":10316:10320   */\n      0x7f\n        /* \"#utility.yul\":10308:10314   */\n      dup3\n        /* \"#utility.yul\":10304:10321   */\n      and\n        /* \"#utility.yul\":10294:10321   */\n      swap2\n      pop\n        /* \"#utility.yul\":10250:10331   */\n    tag_202:\n        /* \"#utility.yul\":10378:10380   */\n      0x20\n        /* \"#utility.yul\":10370:10376   */\n      dup3\n        /* \"#utility.yul\":10367:10381   */\n      lt\n        /* \"#utility.yul\":10347:10365   */\n      dup2\n        /* \"#utility.yul\":10344:10382   */\n      sub\n        /* \"#utility.yul\":10341:10425   */\n      tag_203\n      jumpi\n        /* \"#utility.yul\":10397:10415   */\n      tag_204\n      tag_87\n      jump\t// in\n    tag_204:\n        /* \"#utility.yul\":10341:10425   */\n    tag_203:\n        /* \"#utility.yul\":10162:10431   */\n      pop\n        /* \"#utility.yul\":10111:10431   */\n      swap2\n      swap1\n      pop\n      jump\t// out\n        /* \"#utility.yul\":10437:10578   */\n    tag_88:\n        /* \"#utility.yul\":10486:10490   */\n      0x00\n        /* \"#utility.yul\":10509:10512   */\n      dup2\n        /* \"#utility.yul\":10501:10512   */\n      swap1\n      pop\n        /* \"#utility.yul\":10532:10535   */\n      dup2\n        /* \"#utility.yul\":10529:10530   */\n      0x00\n        /* \"#utility.yul\":10522:10536   */\n      mstore\n        /* \"#utility.yul\":10566:10570   */\n      0x20\n        /* \"#utility.yul\":10563:10564   */\n      0x00\n        /* \"#utility.yul\":10553:10571   */\n      keccak256\n        /* \"#utility.yul\":10545:10571   */\n      swap1\n      pop\n        /* \"#utility.yul\":10437:10578   */\n      swap2\n      swap1\n      pop\n      jump\t// out\n        /* \"#utility.yul\":10584:10677   */\n    tag_89:\n        /* \"#utility.yul\":10621:10627   */\n      0x00\n        /* \"#utility.yul\":10668:10670   */\n      0x20\n        /* \"#utility.yul\":10663:10665   */\n      0x1f\n        /* \"#utility.yul\":10656:10661   */\n      dup4\n        /* \"#utility.yul\":10652:10666   */\n      add\n        /* \"#utility.yul\":10648:10671   */\n      div\n        /* \"#utility.yul\":10638:10671   */\n      swap1\n      pop\n        /* \"#utility.yul\":10584:10677   */\n      swap2\n      swap1\n      pop\n      jump\t// out\n        /* \"#utility.yul\":10683:10790   */\n    tag_90:\n        /* \"#utility.yul\":10727:10735   */\n      0x00\n        /* \"#utility.yul\":10777:10782   */\n      dup3\n        /* \"#utility.yul\":10771:10775   */\n      dup3\n        /* \"#utility.yul\":10767:10783   */\n      shl\n        /* \"#utility.yul\":10746:10783   */\n      swap1\n      pop\n        /* \"#utility.yul\":10683:10790   */\n      swap3\n      swap2\n      pop\n      pop\n      jump\t// out\n        /* \"#utility.yul\":10796:11189   */\n    tag_91:\n        /* \"#utility.yul\":10865:10871   */\n      0x00\n        /* \"#utility.yul\":10915:10916   */\n      0x08\n        /* \"#utility.yul\":10903:10913   */\n      dup4\n        /* \"#utility.yul\":10899:10917   */\n      mul\n        /* \"#utility.yul\":10938:11035   */\n      tag_209\n        /* \"#utility.yul\":10968:11034   */\n      0xffffffffffffffffffffffffffffffffffffffffffffffffffffffffffffffff\n        /* \"#utility.yul\":10957:10966   */\n      dup3\n        /* \"#utility.yul\":10938:11035   */\n      tag_90\n      jump\t// in\n    tag_209:\n        /* \"#utility.yul\":11056:11095   */\n      tag_210\n        /* \"#utility.yul\":11086:11094   */\n      dup7\n        /* \"#utility.yul\":11075:11084   */\n      dup4\n        /* \"#utility.yul\":11056:11095   */\n      tag_90\n      jump\t// in\n    tag_210:\n        /* \"#utility.yul\":11044:11095   */\n      swap6\n      pop\n        /* \"#utility.yul\":11128:11132   */\n      dup1\n        /* \"#utility.yul\":11124:11133   */\n      not\n        /* \"#utility.yul\":11117:11122   */\n      dup5\n        /* \"#utility.yul\":11113:11134   */\n      and\n        /* \"#utility.yul\":11104:11134   */\n      swap4\n      pop\n        /* \"#utility.yul\":11177:11181   */\n      dup1\n        /* \"#utility.yul\":11167:11175   */\n      dup7\n        /* \"#utility.yul\":11163:11182   */\n      and\n        /* \"#utility.yul\":11156:11161   */\n      dup5\n        /* \"#utility.yul\":11153:11183   */\n      or\n        /* \"#utility.yul\":11143:11183   */\n      swap3\n      pop\n        /* \"#utility.yul\":10872:11189   */\n      pop\n      pop\n        /* \"#utility.yul\":10796:11189   */\n      swap4\n      swap3\n      pop\n      pop\n      pop\n      jump\t// out\n        /* \"#utility.yul\":11195:11255   */\n    tag_92:\n        /* \"#utility.yul\":11223:11226   */\n      0x00\n        /* \"#utility.yul\":11244:11249   */\n      dup2\n        /* \"#utility.yul\":11237:11249   */\n      swap1\n      pop\n        /* \"#utility.yul\":11195:11255   */\n      swap2\n      swap1\n      pop\n      jump\t// out\n        /* \"#utility.yul\":11261:11403   */\n    tag_93:\n        /* \"#utility.yul\":11311:11320   */\n      0x00\n        /* \"#utility.yul\":11344:11397   */\n      tag_213\n        /* \"#utility.yul\":11362:11396   */\n      tag_214\n        /* \"#utility.yul\":11371:11395   */\n      tag_215\n        /* \"#utility.yul\":11389:11394   */\n      dup5\n        /* \"#utility.yul\":11371:11395   */\n      tag_62\n      jump\t// in\n    tag_215:\n        /* \"#utility.yul\":11362:11396   */\n      tag_92\n      jump\t// in\n    tag_214:\n        /* \"#utility.yul\":11344:11397   */\n      tag_62\n      jump\t// in\n    tag_213:\n        /* \"#utility.yul\":11331:11397   */\n      swap1\n      pop\n        /* \"#utility.yul\":11261:11403   */\n      swap2\n      swap1\n      pop\n      jump\t// out\n        /* \"#utility.yul\":11409:11484   */\n    tag_94:\n        /* \"#utility.yul\":11452:11455   */\n      0x00\n        /* \"#utility.yul\":11473:11478   */\n      dup2\n        /* \"#utility.yul\":11466:11478   */\n      swap1\n      pop\n        /* \"#utility.yul\":11409:11484   */\n      swap2\n      swap1\n      pop\n      jump\t// out\n        /* \"#utility.yul\":11490:11759   */\n    tag_95:\n        /* \"#utility.yul\":11600:11639   */\n      tag_218\n        /* \"#utility.yul\":11631:11638   */\n      dup4\n        /* \"#utility.yul\":11600:11639   */\n      tag_93\n      jump\t// in\n    tag_218:\n        /* \"#utility.yul\":11661:11752   */\n      tag_219\n        /* \"#utility.yul\":11710:11751   */\n      tag_220\n        /* \"#utility.yul\":11734:11750   */\n      dup3\n        /* \"#utility.yul\":11710:11751   */\n      tag_94\n      jump\t// in\n    tag_220:\n        /* \"#utility.yul\":11702:11708   */\n      dup5\n        /* \"#utility.yul\":11695:11699   */\n      dup5\n        /* \"#utility.yul\":11689:11700   */\n      sload\n        /* \"#utility.yul\":11661:11752   */\n      tag_91\n      jump\t// in\n    tag_219:\n        /* \"#utility.yul\":11655:11659   */\n      dup3\n        /* \"#utility.yul\":11648:11753   */\n      sstore\n        /* \"#utility.yul\":11566:11759   */\n      pop\n        /* \"#utility.yul\":11490:11759   */\n      pop\n      pop\n      pop\n      jump\t// out\n        /* \"#utility.yul\":11765:11838   */\n    tag_96:\n        /* \"#utility.yul\":11810:11813   */\n      0x00\n        /* \"#utility.yul\":11765:11838   */\n      swap1\n      jump\t// out\n        /* \"#utility.yul\":11844:12033   */\n    tag_97:\n        /* \"#utility.yul\":11921:11953   */\n      tag_223\n      tag_96\n      jump\t// in\n    tag_223:\n        /* \"#utility.yul\":11962:12027   */\n      tag_224\n        /* \"#utility.yul\":12020:12026   */\n      dup2\n        /* \"#utility.yul\":12012:12018   */\n      dup5\n        /* \"#utility.yul\":12006:12010   */\n      dup5\n        /* \"#utility.yul\":11962:12027   */\n      tag_95\n      jump\t// in\n    tag_224:\n        /* \"#utility.yul\":11897:12033   */\n      pop\n        /* \"#utility.yul\":11844:12033   */\n      pop\n      pop\n      jump\t// out\n        /* \"#utility.yul\":12039:12225   */\n    tag_98:\n        /* \"#utility.yul\":12099:12219   */\n    tag_226:\n        /* \"#utility.yul\":12116:12119   */\n      dup2\n        /* \"#utility.yul\":12109:12114   */\n      dup2\n        /* \"#utility.yul\":12106:12120   */\n      lt\n        /* \"#utility.yul\":12099:12219   */\n      iszero\n      tag_228\n      jumpi\n        /* \"#utility.yul\":12170:12209   */\n      tag_229\n        /* \"#utility.yul\":12207:12208   */\n      0x00\n        /* \"#utility.yul\":12200:12205   */\n      dup3\n        /* \"#utility.yul\":12170:12209   */\n      tag_97\n      jump\t// in\n    tag_229:\n        /* \"#utility.yul\":12143:12144   */\n      0x01\n        /* \"#utility.yul\":12136:12141   */\n      dup2\n        /* \"#utility.yul\":12132:12145   */\n      add\n        /* \"#utility.yul\":12123:12145   */\n      swap1\n      pop\n        /* \"#utility.yul\":12099:12219   */\n      jump(tag_226)\n    tag_228:\n        /* \"#utility.yul\":12039:12225   */\n      pop\n      pop\n      jump\t// out\n        /* \"#utility.yul\":12231:12774   */\n    tag_99:\n        /* \"#utility.yul\":12332:12334   */\n      0x1f\n        /* \"#utility.yul\":12327:12330   */\n      dup3\n        /* \"#utility.yul\":12324:12335   */\n      gt\n        /* \"#utility.yul\":12321:12767   */\n      iszero\n      tag_231\n      jumpi\n        /* \"#utility.yul\":12366:12404   */\n      tag_232\n        /* \"#utility.yul\":12398:12403   */\n      dup2\n        /* \"#utility.yul\":12366:12404   */\n      tag_88\n      jump\t// in\n    tag_232:\n        /* \"#utility.yul\":12450:12479   */\n      tag_233\n        /* \"#utility.yul\":12468:12478   */\n      dup5\n        /* \"#utility.yul\":12450:12479   */\n      tag_89\n      jump\t// in\n    tag_233:\n        /* \"#utility.yul\":12440:12448   */\n      dup2\n        /* \"#utility.yul\":12436:12480   */\n      add\n        /* \"#utility.yul\":12633:12635   */\n      0x20\n        /* \"#utility.yul\":12621:12631   */\n      dup6\n        /* \"#utility.yul\":12618:12636   */\n      lt\n        /* \"#utility.yul\":12615:12664   */\n      iszero\n      tag_234\n      jumpi\n        /* \"#utility.yul\":12654:12662   */\n      dup2\n        /* \"#utility.yul\":12639:12662   */\n      swap1\n      pop\n        /* \"#utility.yul\":12615:12664   */\n    tag_234:\n        /* \"#utility.yul\":12677:12757   */\n      tag_235\n        /* \"#utility.yul\":12733:12755   */\n      tag_236\n        /* \"#utility.yul\":12751:12754   */\n      dup6\n        /* \"#utility.yul\":12733:12755   */\n      tag_89\n      jump\t// in\n    tag_236:\n        /* \"#utility.yul\":12723:12731   */\n      dup4\n        /* \"#utility.yul\":12719:12756   */\n      add\n        /* \"#utility.yul\":12706:12717   */\n      dup3\n        /* \"#utility.yul\":12677:12757   */\n      tag_98\n      jump\t// in\n    tag_235:\n        /* \"#utility.yul\":12336:12767   */\n      pop\n      pop\n        /* \"#utility.yul\":12321:12767   */\n    tag_231:\n        /* \"#utility.yul\":12231:12774   */\n      pop\n      pop\n      pop\n      jump\t// out\n        /* \"#utility.yul\":12780:12897   */\n    tag_100:\n        /* \"#utility.yul\":12834:12842   */\n      0x00\n        /* \"#utility.yul\":12884:12889   */\n      dup3\n        /* \"#utility.yul\":12878:12882   */\n      dup3\n        /* \"#utility.yul\":12874:12890   */\n      shr\n        /* \"#utility.yul\":12853:12890   */\n      swap1\n      pop\n        /* \"#utility.yul\":12780:12897   */\n      swap3\n      swap2\n      pop\n      pop\n      jump\t// out\n        /* \"#utility.yul\":12903:13072   */\n    tag_101:\n        /* \"#utility.yul\":12947:12953   */\n      0x00\n        /* \"#utility.yul\":12980:13031   */\n      tag_239\n        /* \"#utility.yul\":13028:13029   */\n      0x00\n        /* \"#utility.yul\":13024:13030   */\n      not\n        /* \"#utility.yul\":13016:13021   */\n      dup5\n        /* \"#utility.yul\":13013:13014   */\n      0x08\n        /* \"#utility.yul\":13009:13022   */\n      mul\n        /* \"#utility.yul\":12980:13031   */\n      tag_100\n      jump\t// in\n    tag_239:\n        /* \"#utility.yul\":12976:13032   */\n      not\n        /* \"#utility.yul\":13061:13065   */\n      dup1\n        /* \"#utility.yul\":13055:13059   */\n      dup4\n        /* \"#utility.yul\":13051:13066   */\n      and\n        /* \"#utility.yul\":13041:13066   */\n      swap2\n      pop\n        /* \"#utility.yul\":12954:13072   */\n      pop\n        /* \"#utility.yul\":12903:13072   */\n      swap3\n      swap2\n      pop\n      pop\n      jump\t// out\n        /* \"#utility.yul\":13077:13372   */\n    tag_102:\n        /* \"#utility.yul\":13153:13157   */\n      0x00\n        /* \"#utility.yul\":13299:13328   */\n      tag_241\n        /* \"#utility.yul\":13324:13327   */\n      dup4\n        /* \"#utility.yul\":13318:13322   */\n      dup4\n        /* \"#utility.yul\":13299:13328   */\n      tag_101\n      jump\t// in\n    tag_241:\n        /* \"#utility.yul\":13291:13328   */\n      swap2\n      pop\n        /* \"#utility.yul\":13361:13364   */\n      dup3\n        /* \"#utility.yul\":13358:13359   */\n      0x02\n        /* \"#utility.yul\":13354:13365   */\n      mul\n        /* \"#utility.yul\":13348:13352   */\n      dup3\n        /* \"#utility.yul\":13345:13366   */\n      or\n        /* \"#utility.yul\":13337:13366   */\n      swap1\n      pop\n        /* \"#utility.yul\":13077:13372   */\n      swap3\n      swap2\n      pop\n      pop\n      jump\t// out\n        /* \"#utility.yul\":13377:14772   */\n    tag_36:\n        /* \"#utility.yul\":13494:13531   */\n      tag_243\n        /* \"#utility.yul\":13527:13530   */\n      dup3\n        /* \"#utility.yul\":13494:13531   */\n      tag_57\n      jump\t// in\n    tag_243:\n        /* \"#utility.yul\":13596:13614   */\n      0xffffffffffffffff\n        /* \"#utility.yul\":13588:13594   */\n      dup2\n        /* \"#utility.yul\":13585:13615   */\n      gt\n        /* \"#utility.yul\":13582:13638   */\n      iszero\n      tag_244\n      jumpi\n        /* \"#utility.yul\":13618:13636   */\n      tag_245\n      tag_75\n      jump\t// in\n    tag_245:\n        /* \"#utility.yul\":13582:13638   */\n    tag_244:\n        /* \"#utility.yul\":13662:13700   */\n      tag_246\n        /* \"#utility.yul\":13694:13698   */\n      dup3\n        /* \"#utility.yul\":13688:13699   */\n      sload\n        /* \"#utility.yul\":13662:13700   */\n      tag_29\n      jump\t// in\n    tag_246:\n        /* \"#utility.yul\":13747:13814   */\n      tag_247\n        /* \"#utility.yul\":13807:13813   */\n      dup3\n        /* \"#utility.yul\":13799:13805   */\n      dup3\n        /* \"#utility.yul\":13793:13797   */\n      dup6\n        /* \"#utility.yul\":13747:13814   */\n      tag_99\n      jump\t// in\n    tag_247:\n        /* \"#utility.yul\":13841:13842   */\n      0x00\n        /* \"#utility.yul\":13865:13869   */\n      0x20\n        /* \"#utility.yul\":13852:13869   */\n      swap1\n      pop\n        /* \"#utility.yul\":13897:13899   */\n      0x1f\n        /* \"#utility.yul\":13889:13895   */\n      dup4\n        /* \"#utility.yul\":13886:13900   */\n      gt\n        /* \"#utility.yul\":13914:13915   */\n      0x01\n        /* \"#utility.yul\":13909:14527   */\n      dup2\n      eq\n      tag_249\n      jumpi\n        /* \"#utility.yul\":14571:14572   */\n      0x00\n        /* \"#utility.yul\":14588:14594   */\n      dup5\n        /* \"#utility.yul\":14585:14662   */\n      iszero\n      tag_250\n      jumpi\n        /* \"#utility.yul\":14637:14646   */\n      dup3\n        /* \"#utility.yul\":14632:14635   */\n      dup8\n        /* \"#utility.yul\":14628:14647   */\n      add\n        /* \"#utility.yul\":14622:14648   */\n      mload\n        /* \"#utility.yul\":14613:14648   */\n      swap1\n      pop\n        /* \"#utility.yul\":14585:14662   */\n    tag_250:\n        /* \"#utility.yul\":14688:14755   */\n      tag_251\n        /* \"#utility.yul\":14748:14754   */\n      dup6\n        /* \"#utility.yul\":14741:14746   */\n      dup3\n        /* \"#utility.yul\":14688:14755   */\n      tag_102\n      jump\t// in\n    tag_251:\n        /* \"#utility.yul\":14682:14686   */\n      dup7\n        /* \"#utility.yul\":14675:14756   */\n      sstore\n        /* \"#utility.yul\":14544:14766   */\n      pop\n        /* \"#utility.yul\":13879:14766   */\n      jump(tag_248)\n        /* \"#utility.yul\":13909:14527   */\n    tag_249:\n        /* \"#utility.yul\":13961:13965   */\n      0x1f\n        /* \"#utility.yul\":13957:13966   */\n      not\n        /* \"#utility.yul\":13949:13955   */\n      dup5\n        /* \"#utility.yul\":13945:13967   */\n      and\n        /* \"#utility.yul\":13995:14032   */\n      tag_252\n        /* \"#utility.yul\":14027:14031   */\n      dup7\n        /* \"#utility.yul\":13995:14032   */\n      tag_88\n      jump\t// in\n    tag_252:\n        /* \"#utility.yul\":14054:14055   */\n      0x00\n        /* \"#utility.yul\":14068:14276   */\n    tag_253:\n        /* \"#utility.yul\":14082:14089   */\n      dup3\n        /* \"#utility.yul\":14079:14080   */\n      dup2\n        /* \"#utility.yul\":14076:14090   */\n      lt\n        /* \"#utility.yul\":14068:14276   */\n      iszero\n      tag_255\n      jumpi\n        /* \"#utility.yul\":14161:14170   */\n      dup5\n        /* \"#utility.yul\":14156:14159   */\n      dup10\n        /* \"#utility.yul\":14152:14171   */\n      add\n        /* \"#utility.yul\":14146:14172   */\n      mload\n        /* \"#utility.yul\":14138:14144   */\n      dup3\n        /* \"#utility.yul\":14131:14173   */\n      sstore\n        /* \"#utility.yul\":14212:14213   */\n      0x01\n        /* \"#utility.yul\":14204:14210   */\n      dup3\n        /* \"#utility.yul\":14200:14214   */\n      add\n        /* \"#utility.yul\":14190:14214   */\n      swap2\n      pop\n        /* \"#utility.yul\":14259:14261   */\n      0x20\n        /* \"#utility.yul\":14248:14257   */\n      dup6\n        /* \"#utility.yul\":14244:14262   */\n      add\n        /* \"#utility.yul\":14231:14262   */\n      swap5\n      pop\n        /* \"#utility.yul\":14105:14109   */\n      0x20\n        /* \"#utility.yul\":14102:14103   */\n      dup2\n        /* \"#utility.yul\":14098:14110   */\n      add\n        /* \"#utility.yul\":14093:14110   */\n      swap1\n      pop\n        /* \"#utility.yul\":14068:14276   */\n      jump(tag_253)\n    tag_255:\n        /* \"#utility.yul\":14304:14310   */\n      dup7\n        /* \"#utility.yul\":14295:14302   */\n      dup4\n        /* \"#utility.yul\":14292:14311   */\n      lt\n        /* \"#utility.yul\":14289:14468   */\n      iszero\n      tag_256\n      jumpi\n        /* \"#utility.yul\":14362:14371   */\n      dup5\n        /* \"#utility.yul\":14357:14360   */\n      dup10\n        /* \"#utility.yul\":14353:14372   */\n      add\n        /* \"#utility.yul\":14347:14373   */\n      mload\n        /* \"#utility.yul\":14405:14453   */\n      tag_257\n        /* \"#utility.yul\":14447:14451   */\n      0x1f\n        /* \"#utility.yul\":14439:14445   */\n      dup10\n        /* \"#utility.yul\":14435:14452   */\n      and\n        /* \"#utility.yul\":14424:14433   */\n      dup3\n        /* \"#utility.yul\":14405:14453   */\n      tag_101\n      jump\t// in\n    tag_257:\n        /* \"#utility.yul\":14397:14403   */\n      dup4\n        /* \"#utility.yul\":14390:14454   */\n      sstore\n        /* \"#utility.yul\":14312:14468   */\n      pop\n        /* \"#utility.yul\":14289:14468   */\n    tag_256:\n        /* \"#utility.yul\":14514:14515   */\n      0x01\n        /* \"#utility.yul\":14510:14511   */\n      0x02\n        /* \"#utility.yul\":14502:14508   */\n      dup9\n        /* \"#utility.yul\":14498:14512   */\n      mul\n        /* \"#utility.yul\":14494:14516   */\n      add\n        /* \"#utility.yul\":14488:14492   */\n      dup9\n        /* \"#utility.yul\":14481:14517   */\n      sstore\n        /* \"#utility.yul\":13916:14527   */\n      pop\n      pop\n      pop\n        /* \"#utility.yul\":13879:14766   */\n    tag_248:\n      pop\n        /* \"#utility.yul\":13469:14772   */\n      pop\n      pop\n      pop\n        /* \"#utility.yul\":13377:14772   */\n      pop\n      pop\n      jump\t// out\n        /* \"#utility.yul\":14778:14958   */\n    tag_103:\n        /* \"#utility.yul\":14826:14903   */\n      0x4e487b7100000000000000000000000000000000000000000000000000000000\n        /* \"#utility.yul\":14823:14824   */\n      0x00\n        /* \"#utility.yul\":14816:14904   */\n      mstore\n        /* \"#utility.yul\":14923:14927   */\n      0x11\n        /* \"#utility.yul\":14920:14921   */\n      0x04\n        /* \"#utility.yul\":14913:14928   */\n      mstore\n        /* \"#utility.yul\":14947:14951   */\n      0x24\n        /* \"#utility.yul\":14944:14945   */\n      0x00\n        /* \"#utility.yul\":14937:14952   */\n      revert\n        /* \"#utility.yul\":14964:15158   */\n    tag_44:\n        /* \"#utility.yul\":15004:15008   */\n      0x00\n        /* \"#utility.yul\":15024:15044   */\n      tag_260\n        /* \"#utility.yul\":15042:15043   */\n      dup3\n        /* \"#utility.yul\":15024:15044   */\n      tag_62\n      jump\t// in\n    tag_260:\n        /* \"#utility.yul\":15019:15044   */\n      swap2\n      pop\n        /* \"#utility.yul\":15058:15078   */\n      tag_261\n        /* \"#utility.yul\":15076:15077   */\n      dup4\n        /* \"#utility.yul\":15058:15078   */\n      tag_62\n      jump\t// in\n    tag_261:\n        /* \"#utility.yul\":15053:15078   */\n      swap3\n      pop\n        /* \"#utility.yul\":15102:15103   */\n      dup3\n        /* \"#utility.yul\":15099:15100   */\n      dup3\n        /* \"#utility.yul\":15095:15104   */\n      sub\n        /* \"#utility.yul\":15087:15104   */\n      swap1\n      pop\n        /* \"#utility.yul\":15126:15127   */\n      dup2\n        /* \"#utility.yul\":15120:15124   */\n      dup2\n        /* \"#utility.yul\":15117:15128   */\n      gt\n        /* \"#utility.yul\":15114:15151   */\n      iszero\n      tag_262\n      jumpi\n        /* \"#utility.yul\":15131:15149   */\n      tag_263\n      tag_103\n      jump\t// in\n    tag_263:\n        /* \"#utility.yul\":15114:15151   */\n    tag_262:\n        /* \"#utility.yul\":14964:15158   */\n      swap3\n      swap2\n      pop\n      pop\n      jump\t// out\n        /* \"#utility.yul\":15164:15344   */\n    tag_47:\n        /* \"#utility.yul\":15212:15289   */\n      0x4e487b7100000000000000000000000000000000000000000000000000000000\n        /* \"#utility.yul\":15209:15210   */\n      0x00\n        /* \"#utility.yul\":15202:15290   */\n      mstore\n        /* \"#utility.yul\":15309:15313   */\n      0x32\n        /* \"#utility.yul\":15306:15307   */\n      0x04\n        /* \"#utility.yul\":15299:15314   */\n      mstore\n        /* \"#utility.yul\":15333:15337   */\n      0x24\n        /* \"#utility.yul\":15330:15331   */\n      0x00\n        /* \"#utility.yul\":15323:15338   */\n      revert\n\n    auxdata: 0xa26469706673582212208c43bfb0286b00561e67e865919fedc6466f8437a4b53874d073e9e4081934b464736f6c63430008120033\n}\n",
				"bytecode": {
					"linkReferences": {},
					"object": "608060405234801561001057600080fd5b50610d4e806100206000396000f3fe608060405234801561001057600080fd5b506004361061004c5760003560e01c806353ed5143146100515780636bf22a501461006f5780637cd0690d1461008b578063b3a84c92146100a7575b600080fd5b6100596100d7565b60405161006691906106d7565b60405180910390f35b6100896004803603810190610084919061089a565b61022b565b005b6100a560048036038101906100a0919061089a565b6102b2565b005b6100c160048036038101906100bc9190610909565b610362565b6040516100ce9190610986565b60405180910390f35b60606003805480602002602001604051908101604052809291908181526020016000905b82821015610222578382906000526020600020906003020160405180606001604052908160008201805461012e906109d7565b80601f016020809104026020016040519081016040528092919081815260200182805461015a906109d7565b80156101a75780601f1061017c576101008083540402835291602001916101a7565b820191906000526020600020905b81548152906001019060200180831161018a57829003601f168201915b50505050508152602001600182015481526020016002820160009054906101000a900460f01b7dffffffffffffffffffffffffffffffffffffffffffffffffffffffffffff19167dffffffffffffffffffffffffffffffffffffffffffffffffffffffffffff191681525050815260200190600101906100fb565b50505050905090565b6040518060600160405280848152602001838152602001827dffffffffffffffffffffffffffffffffffffffffffffffffffffffffffff191681525060008082015181600001908161027d9190610bb4565b506020820151816001015560408201518160020160006101000a81548161ffff021916908360f01c0217905550905050505050565b60036040518060600160405280858152602001848152602001837dffffffffffffffffffffffffffffffffffffffffffffffffffffffffffff19168152509080600181540180825580915050600190039060005260206000209060030201600090919091909150600082015181600001908161032e9190610bb4565b506020820151816001015560408201518160020160006101000a81548161ffff021916908360f01c02179055505050505050565b61036a61049f565b60036001836103799190610cb5565b8154811061038a57610389610ce9565b5b90600052602060002090600302016040518060600160405290816000820180546103b3906109d7565b80601f01602080910402602001604051908101604052809291908181526020018280546103df906109d7565b801561042c5780601f106104015761010080835404028352916020019161042c565b820191906000526020600020905b81548152906001019060200180831161040f57829003601f168201915b50505050508152602001600182015481526020016002820160009054906101000a900460f01b7dffffffffffffffffffffffffffffffffffffffffffffffffffffffffffff19167dffffffffffffffffffffffffffffffffffffffffffffffffffffffffffff1916815250509050919050565b6040518060600160405280606081526020016000815260200160007dffffffffffffffffffffffffffffffffffffffffffffffffffffffffffff191681525090565b600081519050919050565b600082825260208201905092915050565b6000819050602082019050919050565b600081519050919050565b600082825260208201905092915050565b60005b8381101561054757808201518184015260208101905061052c565b60008484015250505050565b6000601f19601f8301169050919050565b600061056f8261050d565b6105798185610518565b9350610589818560208601610529565b61059281610553565b840191505092915050565b6000819050919050565b6105b08161059d565b82525050565b60007fffff00000000000000000000000000000000000000000000000000000000000082169050919050565b6105eb816105b6565b82525050565b6000606083016000830151848203600086015261060e8282610564565b915050602083015161062360208601826105a7565b50604083015161063660408601826105e2565b508091505092915050565b600061064d83836105f1565b905092915050565b6000602082019050919050565b600061066d826104e1565b61067781856104ec565b935083602082028501610689856104fd565b8060005b858110156106c557848403895281516106a68582610641565b94506106b183610655565b925060208a0199505060018101905061068d565b50829750879550505050505092915050565b600060208201905081810360008301526106f18184610662565b905092915050565b6000604051905090565b600080fd5b600080fd5b600080fd5b600080fd5b7f4e487b7100000000000000000000000000000000000000000000000000000000600052604160045260246000fd5b61074f82610553565b810181811067ffffffffffffffff8211171561076e5761076d610717565b5b80604052505050565b60006107816106f9565b905061078d8282610746565b919050565b600067ffffffffffffffff8211156107ad576107ac610717565b5b6107b682610553565b9050602081019050919050565b82818337600083830152505050565b60006107e56107e084610792565b610777565b90508281526020810184848401111561080157610800610712565b5b61080c8482856107c3565b509392505050565b600082601f8301126108295761082861070d565b5b81356108398482602086016107d2565b91505092915050565b61084b8161059d565b811461085657600080fd5b50565b60008135905061086881610842565b92915050565b610877816105b6565b811461088257600080fd5b50565b6000813590506108948161086e565b92915050565b6000806000606084860312156108b3576108b2610703565b5b600084013567ffffffffffffffff8111156108d1576108d0610708565b5b6108dd86828701610814565b93505060206108ee86828701610859565b92505060406108ff86828701610885565b9150509250925092565b60006020828403121561091f5761091e610703565b5b600061092d84828501610859565b91505092915050565b600060608301600083015184820360008601526109538282610564565b915050602083015161096860208601826105a7565b50604083015161097b60408601826105e2565b508091505092915050565b600060208201905081810360008301526109a08184610936565b905092915050565b7f4e487b7100000000000000000000000000000000000000000000000000000000600052602260045260246000fd5b600060028204905060018216806109ef57607f821691505b602082108103610a0257610a016109a8565b5b50919050565b60008190508160005260206000209050919050565b60006020601f8301049050919050565b600082821b905092915050565b600060088302610a6a7fffffffffffffffffffffffffffffffffffffffffffffffffffffffffffffffff82610a2d565b610a748683610a2d565b95508019841693508086168417925050509392505050565b6000819050919050565b6000610ab1610aac610aa78461059d565b610a8c565b61059d565b9050919050565b6000819050919050565b610acb83610a96565b610adf610ad782610ab8565b848454610a3a565b825550505050565b600090565b610af4610ae7565b610aff818484610ac2565b505050565b5b81811015610b2357610b18600082610aec565b600181019050610b05565b5050565b601f821115610b6857610b3981610a08565b610b4284610a1d565b81016020851015610b51578190505b610b65610b5d85610a1d565b830182610b04565b50505b505050565b600082821c905092915050565b6000610b8b60001984600802610b6d565b1980831691505092915050565b6000610ba48383610b7a565b9150826002028217905092915050565b610bbd8261050d565b67ffffffffffffffff811115610bd657610bd5610717565b5b610be082546109d7565b610beb828285610b27565b600060209050601f831160018114610c1e5760008415610c0c578287015190505b610c168582610b98565b865550610c7e565b601f198416610c2c86610a08565b60005b82811015610c5457848901518255600182019150602085019450602081019050610c2f565b86831015610c715784890151610c6d601f891682610b7a565b8355505b6001600288020188555050505b505050505050565b7f4e487b7100000000000000000000000000000000000000000000000000000000600052601160045260246000fd5b6000610cc08261059d565b9150610ccb8361059d565b9250828203905081811115610ce357610ce2610c86565b5b92915050565b7f4e487b7100000000000000000000000000000000000000000000000000000000600052603260045260246000fdfea26469706673582212208c43bfb0286b00561e67e865919fedc6466f8437a4b53874d073e9e4081934b464736f6c63430008120033",
					"opcodes": "PUSH1 0x80 PUSH1 0x40 MSTORE CALLVALUE DUP1 ISZERO PUSH2 0x10 JUMPI PUSH1 0x0 DUP1 REVERT JUMPDEST POP PUSH2 0xD4E DUP1 PUSH2 0x20 PUSH1 0x0 CODECOPY PUSH1 0x0 RETURN INVALID PUSH1 0x80 PUSH1 0x40 MSTORE CALLVALUE DUP1 ISZERO PUSH2 0x10 JUMPI PUSH1 0x0 DUP1 REVERT JUMPDEST POP PUSH1 0x4 CALLDATASIZE LT PUSH2 0x4C JUMPI PUSH1 0x0 CALLDATALOAD PUSH1 0xE0 SHR DUP1 PUSH4 0x53ED5143 EQ PUSH2 0x51 JUMPI DUP1 PUSH4 0x6BF22A50 EQ PUSH2 0x6F JUMPI DUP1 PUSH4 0x7CD0690D EQ PUSH2 0x8B JUMPI DUP1 PUSH4 0xB3A84C92 EQ PUSH2 0xA7 JUMPI JUMPDEST PUSH1 0x0 DUP1 REVERT JUMPDEST PUSH2 0x59 PUSH2 0xD7 JUMP JUMPDEST PUSH1 0x40 MLOAD PUSH2 0x66 SWAP2 SWAP1 PUSH2 0x6D7 JUMP JUMPDEST PUSH1 0x40 MLOAD DUP1 SWAP2 SUB SWAP1 RETURN JUMPDEST PUSH2 0x89 PUSH1 0x4 DUP1 CALLDATASIZE SUB DUP2 ADD SWAP1 PUSH2 0x84 SWAP2 SWAP1 PUSH2 0x89A JUMP JUMPDEST PUSH2 0x22B JUMP JUMPDEST STOP JUMPDEST PUSH2 0xA5 PUSH1 0x4 DUP1 CALLDATASIZE SUB DUP2 ADD SWAP1 PUSH2 0xA0 SWAP2 SWAP1 PUSH2 0x89A JUMP JUMPDEST PUSH2 0x2B2 JUMP JUMPDEST STOP JUMPDEST PUSH2 0xC1 PUSH1 0x4 DUP1 CALLDATASIZE SUB DUP2 ADD SWAP1 PUSH2 0xBC SWAP2 SWAP1 PUSH2 0x909 JUMP JUMPDEST PUSH2 0x362 JUMP JUMPDEST PUSH1 0x40 MLOAD PUSH2 0xCE SWAP2 SWAP1 PUSH2 0x986 JUMP JUMPDEST PUSH1 0x40 MLOAD DUP1 SWAP2 SUB SWAP1 RETURN JUMPDEST PUSH1 0x60 PUSH1 0x3 DUP1 SLOAD DUP1 PUSH1 0x20 MUL PUSH1 0x20 ADD PUSH1 0x40 MLOAD SWAP1 DUP2 ADD PUSH1 0x40 MSTORE DUP1 SWAP3 SWAP2 SWAP1 DUP2 DUP2 MSTORE PUSH1 0x20 ADD PUSH1 0x0 SWAP1 JUMPDEST DUP3 DUP3 LT ISZERO PUSH2 0x222 JUMPI DUP4 DUP3 SWAP1 PUSH1 0x0 MSTORE PUSH1 0x20 PUSH1 0x0 KECCAK256 SWAP1 PUSH1 0x3 MUL ADD PUSH1 0x40 MLOAD DUP1 PUSH1 0x60 ADD PUSH1 0x40 MSTORE SWAP1 DUP2 PUSH1 0x0 DUP3 ADD DUP1 SLOAD PUSH2 0x12E SWAP1 PUSH2 0x9D7 JUMP JUMPDEST DUP1 PUSH1 0x1F ADD PUSH1 0x20 DUP1 SWAP2 DIV MUL PUSH1 0x20 ADD PUSH1 0x40 MLOAD SWAP1 DUP2 ADD PUSH1 0x40 MSTORE DUP1 SWAP3 SWAP2 SWAP1 DUP2 DUP2 MSTORE PUSH1 0x20 ADD DUP3 DUP1 SLOAD PUSH2 0x15A SWAP1 PUSH2 0x9D7 JUMP JUMPDEST DUP1 ISZERO PUSH2 0x1A7 JUMPI DUP1 PUSH1 0x1F LT PUSH2 0x17C JUMPI PUSH2 0x100 DUP1 DUP4 SLOAD DIV MUL DUP4 MSTORE SWAP2 PUSH1 0x20 ADD SWAP2 PUSH2 0x1A7 JUMP JUMPDEST DUP3 ADD SWAP2 SWAP1 PUSH1 0x0 MSTORE PUSH1 0x20 PUSH1 0x0 KECCAK256 SWAP1 JUMPDEST DUP2 SLOAD DUP2 MSTORE SWAP1 PUSH1 0x1 ADD SWAP1 PUSH1 0x20 ADD DUP1 DUP4 GT PUSH2 0x18A JUMPI DUP3 SWAP1 SUB PUSH1 0x1F AND DUP3 ADD SWAP2 JUMPDEST POP POP POP POP POP DUP2 MSTORE PUSH1 0x20 ADD PUSH1 0x1 DUP3 ADD SLOAD DUP2 MSTORE PUSH1 0x20 ADD PUSH1 0x2 DUP3 ADD PUSH1 0x0 SWAP1 SLOAD SWAP1 PUSH2 0x100 EXP SWAP1 DIV PUSH1 0xF0 SHL PUSH30 0xFFFFFFFFFFFFFFFFFFFFFFFFFFFFFFFFFFFFFFFFFFFFFFFFFFFFFFFFFFFF NOT AND PUSH30 0xFFFFFFFFFFFFFFFFFFFFFFFFFFFFFFFFFFFFFFFFFFFFFFFFFFFFFFFFFFFF NOT AND DUP2 MSTORE POP POP DUP2 MSTORE PUSH1 0x20 ADD SWAP1 PUSH1 0x1 ADD SWAP1 PUSH2 0xFB JUMP JUMPDEST POP POP POP POP SWAP1 POP SWAP1 JUMP JUMPDEST PUSH1 0x40 MLOAD DUP1 PUSH1 0x60 ADD PUSH1 0x40 MSTORE DUP1 DUP5 DUP2 MSTORE PUSH1 0x20 ADD DUP4 DUP2 MSTORE PUSH1 0x20 ADD DUP3 PUSH30 0xFFFFFFFFFFFFFFFFFFFFFFFFFFFFFFFFFFFFFFFFFFFFFFFFFFFFFFFFFFFF NOT AND DUP2 MSTORE POP PUSH1 0x0 DUP1 DUP3 ADD MLOAD DUP2 PUSH1 0x0 ADD SWAP1 DUP2 PUSH2 0x27D SWAP2 SWAP1 PUSH2 0xBB4 JUMP JUMPDEST POP PUSH1 0x20 DUP3 ADD MLOAD DUP2 PUSH1 0x1 ADD SSTORE PUSH1 0x40 DUP3 ADD MLOAD DUP2 PUSH1 0x2 ADD PUSH1 0x0 PUSH2 0x100 EXP DUP2 SLOAD DUP2 PUSH2 0xFFFF MUL NOT AND SWAP1 DUP4 PUSH1 0xF0 SHR MUL OR SWAP1 SSTORE POP SWAP1 POP POP POP POP POP JUMP JUMPDEST PUSH1 0x3 PUSH1 0x40 MLOAD DUP1 PUSH1 0x60 ADD PUSH1 0x40 MSTORE DUP1 DUP6 DUP2 MSTORE PUSH1 0x20 ADD DUP5 DUP2 MSTORE PUSH1 0x20 ADD DUP4 PUSH30 0xFFFFFFFFFFFFFFFFFFFFFFFFFFFFFFFFFFFFFFFFFFFFFFFFFFFFFFFFFFFF NOT AND DUP2 MSTORE POP SWAP1 DUP1 PUSH1 0x1 DUP2 SLOAD ADD DUP1 DUP3 SSTORE DUP1 SWAP2 POP POP PUSH1 0x1 SWAP1 SUB SWAP1 PUSH1 0x0 MSTORE PUSH1 0x20 PUSH1 0x0 KECCAK256 SWAP1 PUSH1 0x3 MUL ADD PUSH1 0x0 SWAP1 SWAP2 SWAP1 SWAP2 SWAP1 SWAP2 POP PUSH1 0x0 DUP3 ADD MLOAD DUP2 PUSH1 0x0 ADD SWAP1 DUP2 PUSH2 0x32E SWAP2 SWAP1 PUSH2 0xBB4 JUMP JUMPDEST POP PUSH1 0x20 DUP3 ADD MLOAD DUP2 PUSH1 0x1 ADD SSTORE PUSH1 0x40 DUP3 ADD MLOAD DUP2 PUSH1 0x2 ADD PUSH1 0x0 PUSH2 0x100 EXP DUP2 SLOAD DUP2 PUSH2 0xFFFF MUL NOT AND SWAP1 DUP4 PUSH1 0xF0 SHR MUL OR SWAP1 SSTORE POP POP POP POP POP POP JUMP JUMPDEST PUSH2 0x36A PUSH2 0x49F JUMP JUMPDEST PUSH1 0x3 PUSH1 0x1 DUP4 PUSH2 0x379 SWAP2 SWAP1 PUSH2 0xCB5 JUMP JUMPDEST DUP2 SLOAD DUP2 LT PUSH2 0x38A JUMPI PUSH2 0x389 PUSH2 0xCE9 JUMP JUMPDEST JUMPDEST SWAP1 PUSH1 0x0 MSTORE PUSH1 0x20 PUSH1 0x0 KECCAK256 SWAP1 PUSH1 0x3 MUL ADD PUSH1 0x40 MLOAD DUP1 PUSH1 0x60 ADD PUSH1 0x40 MSTORE SWAP1 DUP2 PUSH1 0x0 DUP3 ADD DUP1 SLOAD PUSH2 0x3B3 SWAP1 PUSH2 0x9D7 JUMP JUMPDEST DUP1 PUSH1 0x1F ADD PUSH1 0x20 DUP1 SWAP2 DIV MUL PUSH1 0x20 ADD PUSH1 0x40 MLOAD SWAP1 DUP2 ADD PUSH1 0x40 MSTORE DUP1 SWAP3 SWAP2 SWAP1 DUP2 DUP2 MSTORE PUSH1 0x20 ADD DUP3 DUP1 SLOAD PUSH2 0x3DF SWAP1 PUSH2 0x9D7 JUMP JUMPDEST DUP1 ISZERO PUSH2 0x42C JUMPI DUP1 PUSH1 0x1F LT PUSH2 0x401 JUMPI PUSH2 0x100 DUP1 DUP4 SLOAD DIV MUL DUP4 MSTORE SWAP2 PUSH1 0x20 ADD SWAP2 PUSH2 0x42C JUMP JUMPDEST DUP3 ADD SWAP2 SWAP1 PUSH1 0x0 MSTORE PUSH1 0x20 PUSH1 0x0 KECCAK256 SWAP1 JUMPDEST DUP2 SLOAD DUP2 MSTORE SWAP1 PUSH1 0x1 ADD SWAP1 PUSH1 0x20 ADD DUP1 DUP4 GT PUSH2 0x40F JUMPI DUP3 SWAP1 SUB PUSH1 0x1F AND DUP3 ADD SWAP2 JUMPDEST POP POP POP POP POP DUP2 MSTORE PUSH1 0x20 ADD PUSH1 0x1 DUP3 ADD SLOAD DUP2 MSTORE PUSH1 0x20 ADD PUSH1 0x2 DUP3 ADD PUSH1 0x0 SWAP1 SLOAD SWAP1 PUSH2 0x100 EXP SWAP1 DIV PUSH1 0xF0 SHL PUSH30 0xFFFFFFFFFFFFFFFFFFFFFFFFFFFFFFFFFFFFFFFFFFFFFFFFFFFFFFFFFFFF NOT AND PUSH30 0xFFFFFFFFFFFFFFFFFFFFFFFFFFFFFFFFFFFFFFFFFFFFFFFFFFFFFFFFFFFF NOT AND DUP2 MSTORE POP POP SWAP1 POP SWAP2 SWAP1 POP JUMP JUMPDEST PUSH1 0x40 MLOAD DUP1 PUSH1 0x60 ADD PUSH1 0x40 MSTORE DUP1 PUSH1 0x60 DUP2 MSTORE PUSH1 0x20 ADD PUSH1 0x0 DUP2 MSTORE PUSH1 0x20 ADD PUSH1 0x0 PUSH30 0xFFFFFFFFFFFFFFFFFFFFFFFFFFFFFFFFFFFFFFFFFFFFFFFFFFFFFFFFFFFF NOT AND DUP2 MSTORE POP SWAP1 JUMP JUMPDEST PUSH1 0x0 DUP2 MLOAD SWAP1 POP SWAP2 SWAP1 POP JUMP JUMPDEST PUSH1 0x0 DUP3 DUP3 MSTORE PUSH1 0x20 DUP3 ADD SWAP1 POP SWAP3 SWAP2 POP POP JUMP JUMPDEST PUSH1 0x0 DUP2 SWAP1 POP PUSH1 0x20 DUP3 ADD SWAP1 POP SWAP2 SWAP1 POP JUMP JUMPDEST PUSH1 0x0 DUP2 MLOAD SWAP1 POP SWAP2 SWAP1 POP JUMP JUMPDEST PUSH1 0x0 DUP3 DUP3 MSTORE PUSH1 0x20 DUP3 ADD SWAP1 POP SWAP3 SWAP2 POP POP JUMP JUMPDEST PUSH1 0x0 JUMPDEST DUP4 DUP2 LT ISZERO PUSH2 0x547 JUMPI DUP1 DUP3 ADD MLOAD DUP2 DUP5 ADD MSTORE PUSH1 0x20 DUP2 ADD SWAP1 POP PUSH2 0x52C JUMP JUMPDEST PUSH1 0x0 DUP5 DUP5 ADD MSTORE POP POP POP POP JUMP JUMPDEST PUSH1 0x0 PUSH1 0x1F NOT PUSH1 0x1F DUP4 ADD AND SWAP1 POP SWAP2 SWAP1 POP JUMP JUMPDEST PUSH1 0x0 PUSH2 0x56F DUP3 PUSH2 0x50D JUMP JUMPDEST PUSH2 0x579 DUP2 DUP6 PUSH2 0x518 JUMP JUMPDEST SWAP4 POP PUSH2 0x589 DUP2 DUP6 PUSH1 0x20 DUP7 ADD PUSH2 0x529 JUMP JUMPDEST PUSH2 0x592 DUP2 PUSH2 0x553 JUMP JUMPDEST DUP5 ADD SWAP2 POP POP SWAP3 SWAP2 POP POP JUMP JUMPDEST PUSH1 0x0 DUP2 SWAP1 POP SWAP2 SWAP1 POP JUMP JUMPDEST PUSH2 0x5B0 DUP2 PUSH2 0x59D JUMP JUMPDEST DUP3 MSTORE POP POP JUMP JUMPDEST PUSH1 0x0 PUSH32 0xFFFF000000000000000000000000000000000000000000000000000000000000 DUP3 AND SWAP1 POP SWAP2 SWAP1 POP JUMP JUMPDEST PUSH2 0x5EB DUP2 PUSH2 0x5B6 JUMP JUMPDEST DUP3 MSTORE POP POP JUMP JUMPDEST PUSH1 0x0 PUSH1 0x60 DUP4 ADD PUSH1 0x0 DUP4 ADD MLOAD DUP5 DUP3 SUB PUSH1 0x0 DUP7 ADD MSTORE PUSH2 0x60E DUP3 DUP3 PUSH2 0x564 JUMP JUMPDEST SWAP2 POP POP PUSH1 0x20 DUP4 ADD MLOAD PUSH2 0x623 PUSH1 0x20 DUP7 ADD DUP3 PUSH2 0x5A7 JUMP JUMPDEST POP PUSH1 0x40 DUP4 ADD MLOAD PUSH2 0x636 PUSH1 0x40 DUP7 ADD DUP3 PUSH2 0x5E2 JUMP JUMPDEST POP DUP1 SWAP2 POP POP SWAP3 SWAP2 POP POP JUMP JUMPDEST PUSH1 0x0 PUSH2 0x64D DUP4 DUP4 PUSH2 0x5F1 JUMP JUMPDEST SWAP1 POP SWAP3 SWAP2 POP POP JUMP JUMPDEST PUSH1 0x0 PUSH1 0x20 DUP3 ADD SWAP1 POP SWAP2 SWAP1 POP JUMP JUMPDEST PUSH1 0x0 PUSH2 0x66D DUP3 PUSH2 0x4E1 JUMP JUMPDEST PUSH2 0x677 DUP2 DUP6 PUSH2 0x4EC JUMP JUMPDEST SWAP4 POP DUP4 PUSH1 0x20 DUP3 MUL DUP6 ADD PUSH2 0x689 DUP6 PUSH2 0x4FD JUMP JUMPDEST DUP1 PUSH1 0x0 JUMPDEST DUP6 DUP2 LT ISZERO PUSH2 0x6C5 JUMPI DUP5 DUP5 SUB DUP10 MSTORE DUP2 MLOAD PUSH2 0x6A6 DUP6 DUP3 PUSH2 0x641 JUMP JUMPDEST SWAP5 POP PUSH2 0x6B1 DUP4 PUSH2 0x655 JUMP JUMPDEST SWAP3 POP PUSH1 0x20 DUP11 ADD SWAP10 POP POP PUSH1 0x1 DUP2 ADD SWAP1 POP PUSH2 0x68D JUMP JUMPDEST POP DUP3 SWAP8 POP DUP8 SWAP6 POP POP POP POP POP POP SWAP3 SWAP2 POP POP JUMP JUMPDEST PUSH1 0x0 PUSH1 0x20 DUP3 ADD SWAP1 POP DUP2 DUP2 SUB PUSH1 0x0 DUP4 ADD MSTORE PUSH2 0x6F1 DUP2 DUP5 PUSH2 0x662 JUMP JUMPDEST SWAP1 POP SWAP3 SWAP2 POP POP JUMP JUMPDEST PUSH1 0x0 PUSH1 0x40 MLOAD SWAP1 POP SWAP1 JUMP JUMPDEST PUSH1 0x0 DUP1 REVERT JUMPDEST PUSH1 0x0 DUP1 REVERT JUMPDEST PUSH1 0x0 DUP1 REVERT JUMPDEST PUSH1 0x0 DUP1 REVERT JUMPDEST PUSH32 0x4E487B7100000000000000000000000000000000000000000000000000000000 PUSH1 0x0 MSTORE PUSH1 0x41 PUSH1 0x4 MSTORE PUSH1 0x24 PUSH1 0x0 REVERT JUMPDEST PUSH2 0x74F DUP3 PUSH2 0x553 JUMP JUMPDEST DUP2 ADD DUP2 DUP2 LT PUSH8 0xFFFFFFFFFFFFFFFF DUP3 GT OR ISZERO PUSH2 0x76E JUMPI PUSH2 0x76D PUSH2 0x717 JUMP JUMPDEST JUMPDEST DUP1 PUSH1 0x40 MSTORE POP POP POP JUMP JUMPDEST PUSH1 0x0 PUSH2 0x781 PUSH2 0x6F9 JUMP JUMPDEST SWAP1 POP PUSH2 0x78D DUP3 DUP3 PUSH2 0x746 JUMP JUMPDEST SWAP2 SWAP1 POP JUMP JUMPDEST PUSH1 0x0 PUSH8 0xFFFFFFFFFFFFFFFF DUP3 GT ISZERO PUSH2 0x7AD JUMPI PUSH2 0x7AC PUSH2 0x717 JUMP JUMPDEST JUMPDEST PUSH2 0x7B6 DUP3 PUSH2 0x553 JUMP JUMPDEST SWAP1 POP PUSH1 0x20 DUP2 ADD SWAP1 POP SWAP2 SWAP1 POP JUMP JUMPDEST DUP3 DUP2 DUP4 CALLDATACOPY PUSH1 0x0 DUP4 DUP4 ADD MSTORE POP POP POP JUMP JUMPDEST PUSH1 0x0 PUSH2 0x7E5 PUSH2 0x7E0 DUP5 PUSH2 0x792 JUMP JUMPDEST PUSH2 0x777 JUMP JUMPDEST SWAP1 POP DUP3 DUP2 MSTORE PUSH1 0x20 DUP2 ADD DUP5 DUP5 DUP5 ADD GT ISZERO PUSH2 0x801 JUMPI PUSH2 0x800 PUSH2 0x712 JUMP JUMPDEST JUMPDEST PUSH2 0x80C DUP5 DUP3 DUP6 PUSH2 0x7C3 JUMP JUMPDEST POP SWAP4 SWAP3 POP POP POP JUMP JUMPDEST PUSH1 0x0 DUP3 PUSH1 0x1F DUP4 ADD SLT PUSH2 0x829 JUMPI PUSH2 0x828 PUSH2 0x70D JUMP JUMPDEST JUMPDEST DUP2 CALLDATALOAD PUSH2 0x839 DUP5 DUP3 PUSH1 0x20 DUP7 ADD PUSH2 0x7D2 JUMP JUMPDEST SWAP2 POP POP SWAP3 SWAP2 POP POP JUMP JUMPDEST PUSH2 0x84B DUP2 PUSH2 0x59D JUMP JUMPDEST DUP2 EQ PUSH2 0x856 JUMPI PUSH1 0x0 DUP1 REVERT JUMPDEST POP JUMP JUMPDEST PUSH1 0x0 DUP2 CALLDATALOAD SWAP1 POP PUSH2 0x868 DUP2 PUSH2 0x842 JUMP JUMPDEST SWAP3 SWAP2 POP POP JUMP JUMPDEST PUSH2 0x877 DUP2 PUSH2 0x5B6 JUMP JUMPDEST DUP2 EQ PUSH2 0x882 JUMPI PUSH1 0x0 DUP1 REVERT JUMPDEST POP JUMP JUMPDEST PUSH1 0x0 DUP2 CALLDATALOAD SWAP1 POP PUSH2 0x894 DUP2 PUSH2 0x86E JUMP JUMPDEST SWAP3 SWAP2 POP POP JUMP JUMPDEST PUSH1 0x0 DUP1 PUSH1 0x0 PUSH1 0x60 DUP5 DUP7 SUB SLT ISZERO PUSH2 0x8B3 JUMPI PUSH2 0x8B2 PUSH2 0x703 JUMP JUMPDEST JUMPDEST PUSH1 0x0 DUP5 ADD CALLDATALOAD PUSH8 0xFFFFFFFFFFFFFFFF DUP2 GT ISZERO PUSH2 0x8D1 JUMPI PUSH2 0x8D0 PUSH2 0x708 JUMP JUMPDEST JUMPDEST PUSH2 0x8DD DUP7 DUP3 DUP8 ADD PUSH2 0x814 JUMP JUMPDEST SWAP4 POP POP PUSH1 0x20 PUSH2 0x8EE DUP7 DUP3 DUP8 ADD PUSH2 0x859 JUMP JUMPDEST SWAP3 POP POP PUSH1 0x40 PUSH2 0x8FF DUP7 DUP3 DUP8 ADD PUSH2 0x885 JUMP JUMPDEST SWAP2 POP POP SWAP3 POP SWAP3 POP SWAP3 JUMP JUMPDEST PUSH1 0x0 PUSH1 0x20 DUP3 DUP5 SUB SLT ISZERO PUSH2 0x91F JUMPI PUSH2 0x91E PUSH2 0x703 JUMP JUMPDEST JUMPDEST PUSH1 0x0 PUSH2 0x92D DUP5 DUP3 DUP6 ADD PUSH2 0x859 JUMP JUMPDEST SWAP2 POP POP SWAP3 SWAP2 POP POP JUMP JUMPDEST PUSH1 0x0 PUSH1 0x60 DUP4 ADD PUSH1 0x0 DUP4 ADD MLOAD DUP5 DUP3 SUB PUSH1 0x0 DUP7 ADD MSTORE PUSH2 0x953 DUP3 DUP3 PUSH2 0x564 JUMP JUMPDEST SWAP2 POP POP PUSH1 0x20 DUP4 ADD MLOAD PUSH2 0x968 PUSH1 0x20 DUP7 ADD DUP3 PUSH2 0x5A7 JUMP JUMPDEST POP PUSH1 0x40 DUP4 ADD MLOAD PUSH2 0x97B PUSH1 0x40 DUP7 ADD DUP3 PUSH2 0x5E2 JUMP JUMPDEST POP DUP1 SWAP2 POP POP SWAP3 SWAP2 POP POP JUMP JUMPDEST PUSH1 0x0 PUSH1 0x20 DUP3 ADD SWAP1 POP DUP2 DUP2 SUB PUSH1 0x0 DUP4 ADD MSTORE PUSH2 0x9A0 DUP2 DUP5 PUSH2 0x936 JUMP JUMPDEST SWAP1 POP SWAP3 SWAP2 POP POP JUMP JUMPDEST PUSH32 0x4E487B7100000000000000000000000000000000000000000000000000000000 PUSH1 0x0 MSTORE PUSH1 0x22 PUSH1 0x4 MSTORE PUSH1 0x24 PUSH1 0x0 REVERT JUMPDEST PUSH1 0x0 PUSH1 0x2 DUP3 DIV SWAP1 POP PUSH1 0x1 DUP3 AND DUP1 PUSH2 0x9EF JUMPI PUSH1 0x7F DUP3 AND SWAP2 POP JUMPDEST PUSH1 0x20 DUP3 LT DUP2 SUB PUSH2 0xA02 JUMPI PUSH2 0xA01 PUSH2 0x9A8 JUMP JUMPDEST JUMPDEST POP SWAP2 SWAP1 POP JUMP JUMPDEST PUSH1 0x0 DUP2 SWAP1 POP DUP2 PUSH1 0x0 MSTORE PUSH1 0x20 PUSH1 0x0 KECCAK256 SWAP1 POP SWAP2 SWAP1 POP JUMP JUMPDEST PUSH1 0x0 PUSH1 0x20 PUSH1 0x1F DUP4 ADD DIV SWAP1 POP SWAP2 SWAP1 POP JUMP JUMPDEST PUSH1 0x0 DUP3 DUP3 SHL SWAP1 POP SWAP3 SWAP2 POP POP JUMP JUMPDEST PUSH1 0x0 PUSH1 0x8 DUP4 MUL PUSH2 0xA6A PUSH32 0xFFFFFFFFFFFFFFFFFFFFFFFFFFFFFFFFFFFFFFFFFFFFFFFFFFFFFFFFFFFFFFFF DUP3 PUSH2 0xA2D JUMP JUMPDEST PUSH2 0xA74 DUP7 DUP4 PUSH2 0xA2D JUMP JUMPDEST SWAP6 POP DUP1 NOT DUP5 AND SWAP4 POP DUP1 DUP7 AND DUP5 OR SWAP3 POP POP POP SWAP4 SWAP3 POP POP POP JUMP JUMPDEST PUSH1 0x0 DUP2 SWAP1 POP SWAP2 SWAP1 POP JUMP JUMPDEST PUSH1 0x0 PUSH2 0xAB1 PUSH2 0xAAC PUSH2 0xAA7 DUP5 PUSH2 0x59D JUMP JUMPDEST PUSH2 0xA8C JUMP JUMPDEST PUSH2 0x59D JUMP JUMPDEST SWAP1 POP SWAP2 SWAP1 POP JUMP JUMPDEST PUSH1 0x0 DUP2 SWAP1 POP SWAP2 SWAP1 POP JUMP JUMPDEST PUSH2 0xACB DUP4 PUSH2 0xA96 JUMP JUMPDEST PUSH2 0xADF PUSH2 0xAD7 DUP3 PUSH2 0xAB8 JUMP JUMPDEST DUP5 DUP5 SLOAD PUSH2 0xA3A JUMP JUMPDEST DUP3 SSTORE POP POP POP POP JUMP JUMPDEST PUSH1 0x0 SWAP1 JUMP JUMPDEST PUSH2 0xAF4 PUSH2 0xAE7 JUMP JUMPDEST PUSH2 0xAFF DUP2 DUP5 DUP5 PUSH2 0xAC2 JUMP JUMPDEST POP POP POP JUMP JUMPDEST JUMPDEST DUP2 DUP2 LT ISZERO PUSH2 0xB23 JUMPI PUSH2 0xB18 PUSH1 0x0 DUP3 PUSH2 0xAEC JUMP JUMPDEST PUSH1 0x1 DUP2 ADD SWAP1 POP PUSH2 0xB05 JUMP JUMPDEST POP POP JUMP JUMPDEST PUSH1 0x1F DUP3 GT ISZERO PUSH2 0xB68 JUMPI PUSH2 0xB39 DUP2 PUSH2 0xA08 JUMP JUMPDEST PUSH2 0xB42 DUP5 PUSH2 0xA1D JUMP JUMPDEST DUP2 ADD PUSH1 0x20 DUP6 LT ISZERO PUSH2 0xB51 JUMPI DUP2 SWAP1 POP JUMPDEST PUSH2 0xB65 PUSH2 0xB5D DUP6 PUSH2 0xA1D JUMP JUMPDEST DUP4 ADD DUP3 PUSH2 0xB04 JUMP JUMPDEST POP POP JUMPDEST POP POP POP JUMP JUMPDEST PUSH1 0x0 DUP3 DUP3 SHR SWAP1 POP SWAP3 SWAP2 POP POP JUMP JUMPDEST PUSH1 0x0 PUSH2 0xB8B PUSH1 0x0 NOT DUP5 PUSH1 0x8 MUL PUSH2 0xB6D JUMP JUMPDEST NOT DUP1 DUP4 AND SWAP2 POP POP SWAP3 SWAP2 POP POP JUMP JUMPDEST PUSH1 0x0 PUSH2 0xBA4 DUP4 DUP4 PUSH2 0xB7A JUMP JUMPDEST SWAP2 POP DUP3 PUSH1 0x2 MUL DUP3 OR SWAP1 POP SWAP3 SWAP2 POP POP JUMP JUMPDEST PUSH2 0xBBD DUP3 PUSH2 0x50D JUMP JUMPDEST PUSH8 0xFFFFFFFFFFFFFFFF DUP2 GT ISZERO PUSH2 0xBD6 JUMPI PUSH2 0xBD5 PUSH2 0x717 JUMP JUMPDEST JUMPDEST PUSH2 0xBE0 DUP3 SLOAD PUSH2 0x9D7 JUMP JUMPDEST PUSH2 0xBEB DUP3 DUP3 DUP6 PUSH2 0xB27 JUMP JUMPDEST PUSH1 0x0 PUSH1 0x20 SWAP1 POP PUSH1 0x1F DUP4 GT PUSH1 0x1 DUP2 EQ PUSH2 0xC1E JUMPI PUSH1 0x0 DUP5 ISZERO PUSH2 0xC0C JUMPI DUP3 DUP8 ADD MLOAD SWAP1 POP JUMPDEST PUSH2 0xC16 DUP6 DUP3 PUSH2 0xB98 JUMP JUMPDEST DUP7 SSTORE POP PUSH2 0xC7E JUMP JUMPDEST PUSH1 0x1F NOT DUP5 AND PUSH2 0xC2C DUP7 PUSH2 0xA08 JUMP JUMPDEST PUSH1 0x0 JUMPDEST DUP3 DUP2 LT ISZERO PUSH2 0xC54 JUMPI DUP5 DUP10 ADD MLOAD DUP3 SSTORE PUSH1 0x1 DUP3 ADD SWAP2 POP PUSH1 0x20 DUP6 ADD SWAP5 POP PUSH1 0x20 DUP2 ADD SWAP1 POP PUSH2 0xC2F JUMP JUMPDEST DUP7 DUP4 LT ISZERO PUSH2 0xC71 JUMPI DUP5 DUP10 ADD MLOAD PUSH2 0xC6D PUSH1 0x1F DUP10 AND DUP3 PUSH2 0xB7A JUMP JUMPDEST DUP4 SSTORE POP JUMPDEST PUSH1 0x1 PUSH1 0x2 DUP9 MUL ADD DUP9 SSTORE POP POP POP JUMPDEST POP POP POP POP POP POP JUMP JUMPDEST PUSH32 0x4E487B7100000000000000000000000000000000000000000000000000000000 PUSH1 0x0 MSTORE PUSH1 0x11 PUSH1 0x4 MSTORE PUSH1 0x24 PUSH1 0x0 REVERT JUMPDEST PUSH1 0x0 PUSH2 0xCC0 DUP3 PUSH2 0x59D JUMP JUMPDEST SWAP2 POP PUSH2 0xCCB DUP4 PUSH2 0x59D JUMP JUMPDEST SWAP3 POP DUP3 DUP3 SUB SWAP1 POP DUP2 DUP2 GT ISZERO PUSH2 0xCE3 JUMPI PUSH2 0xCE2 PUSH2 0xC86 JUMP JUMPDEST JUMPDEST SWAP3 SWAP2 POP POP JUMP JUMPDEST PUSH32 0x4E487B7100000000000000000000000000000000000000000000000000000000 PUSH1 0x0 MSTORE PUSH1 0x32 PUSH1 0x4 MSTORE PUSH1 0x24 PUSH1 0x0 REVERT INVALID LOG2 PUSH5 0x6970667358 0x22 SLT KECCAK256 DUP13 NUMBER 0xBF 0xB0 0x28 PUSH12 0x561E67E865919FEDC6466F DUP5 CALLDATACOPY LOG4 0xB5 CODESIZE PUSH21 0xD073E9E4081934B464736F6C634300081200330000 "
				},
				"gasEstimates": {
					"creation": {
						"codeDepositCost": "681200",
						"executionCost": "715",
						"totalCost": "681915"
					},
					"external": {
						"getAll()": "infinite",
						"getD(uint256)": "infinite",
						"pushD(string,uint256,bytes2)": "infinite",
						"setDDD(string,uint256,bytes2)": "infinite"
					}
				},
				"methodIdentifiers": {
					"getAll()": "53ed5143",
					"getD(uint256)": "b3a84c92",
					"pushD(string,uint256,bytes2)": "7cd0690d",
					"setDDD(string,uint256,bytes2)": "6bf22a50"
				}
			},
			"storageLayout": {
				"storage": [
					{
						"astId": 73,
						"contract": "contracts-lecture/230509-test.sol:test2",
						"label": "ddd",
						"offset": 0,
						"slot": "0",
						"type": "t_struct(D)70_storage"
					},
					{
						"astId": 95,
						"contract": "contracts-lecture/230509-test.sol:test2",
						"label": "D_list",
						"offset": 0,
						"slot": "3",
						"type": "t_array(t_struct(D)70_storage)dyn_storage"
					}
				],
				"types": {
					"t_array(t_struct(D)70_storage)dyn_storage": {
						"base": "t_struct(D)70_storage",
						"encoding": "dynamic_array",
						"label": "struct test2.D[]",
						"numberOfBytes": "32"
					},
					"t_bytes2": {
						"encoding": "inplace",
						"label": "bytes2",
						"numberOfBytes": "2"
					},
					"t_string_storage": {
						"encoding": "bytes",
						"label": "string",
						"numberOfBytes": "32"
					},
					"t_struct(D)70_storage": {
						"encoding": "inplace",
						"label": "struct test2.D",
						"members": [
							{
								"astId": 65,
								"contract": "contracts-lecture/230509-test.sol:test2",
								"label": "a",
								"offset": 0,
								"slot": "0",
								"type": "t_string_storage"
							},
							{
								"astId": 67,
								"contract": "contracts-lecture/230509-test.sol:test2",
								"label": "b",
								"offset": 0,
								"slot": "1",
								"type": "t_uint256"
							},
							{
								"astId": 69,
								"contract": "contracts-lecture/230509-test.sol:test2",
								"label": "c",
								"offset": 0,
								"slot": "2",
								"type": "t_bytes2"
							}
						],
						"numberOfBytes": "96"
					},
					"t_uint256": {
						"encoding": "inplace",
						"label": "uint256",
						"numberOfBytes": "32"
					}
				}
			},
			"userdoc": {
				"kind": "user",
				"methods": {},
				"version": 1
			}
		}
	}
}