{
	"contracts-lecture/230504-3.sol": {
		"Struct": {
			"abi": [
				{
					"inputs": [],
					"name": "getLength",
					"outputs": [
						{
							"internalType": "uint256",
							"name": "",
							"type": "uint256"
						}
					],
					"stateMutability": "view",
					"type": "function"
				},
				{
					"inputs": [
						{
							"internalType": "uint256",
							"name": "_n",
							"type": "uint256"
						}
					],
					"name": "getStudent",
					"outputs": [
						{
							"components": [
								{
									"internalType": "string",
									"name": "name",
									"type": "string"
								},
								{
									"internalType": "string",
									"name": "gender",
									"type": "string"
								},
								{
									"internalType": "uint256",
									"name": "number",
									"type": "uint256"
								},
								{
									"internalType": "uint256",
									"name": "birthday",
									"type": "uint256"
								}
							],
							"internalType": "struct Struct.Student",
							"name": "",
							"type": "tuple"
						}
					],
					"stateMutability": "view",
					"type": "function"
				},
				{
					"inputs": [],
					"name": "getStudentS",
					"outputs": [
						{
							"components": [
								{
									"internalType": "string",
									"name": "name",
									"type": "string"
								},
								{
									"internalType": "string",
									"name": "gender",
									"type": "string"
								},
								{
									"internalType": "uint256",
									"name": "number",
									"type": "uint256"
								},
								{
									"internalType": "uint256",
									"name": "birthday",
									"type": "uint256"
								}
							],
							"internalType": "struct Struct.Student",
							"name": "",
							"type": "tuple"
						}
					],
					"stateMutability": "view",
					"type": "function"
				},
				{
					"inputs": [],
					"name": "getStudents",
					"outputs": [
						{
							"components": [
								{
									"internalType": "string",
									"name": "name",
									"type": "string"
								},
								{
									"internalType": "string",
									"name": "gender",
									"type": "string"
								},
								{
									"internalType": "uint256",
									"name": "number",
									"type": "uint256"
								},
								{
									"internalType": "uint256",
									"name": "birthday",
									"type": "uint256"
								}
							],
							"internalType": "struct Struct.Student[]",
							"name": "",
							"type": "tuple[]"
						}
					],
					"stateMutability": "view",
					"type": "function"
				},
				{
					"inputs": [],
					"name": "popStudent",
					"outputs": [],
					"stateMutability": "nonpayable",
					"type": "function"
				},
				{
					"inputs": [
						{
							"internalType": "string",
							"name": "_name",
							"type": "string"
						},
						{
							"internalType": "string",
							"name": "_gender",
							"type": "string"
						},
						{
							"internalType": "uint256",
							"name": "_number",
							"type": "uint256"
						},
						{
							"internalType": "uint256",
							"name": "_birth",
							"type": "uint256"
						}
					],
					"name": "pushStudent",
					"outputs": [],
					"stateMutability": "nonpayable",
					"type": "function"
				},
				{
					"inputs": [
						{
							"internalType": "string",
							"name": "_name",
							"type": "string"
						},
						{
							"internalType": "string",
							"name": "_gender",
							"type": "string"
						},
						{
							"internalType": "uint256",
							"name": "_number",
							"type": "uint256"
						},
						{
							"internalType": "uint256",
							"name": "_birth",
							"type": "uint256"
						}
					],
					"name": "setStudentS",
					"outputs": [],
					"stateMutability": "nonpayable",
					"type": "function"
				}
			],
			"devdoc": {
				"kind": "dev",
				"methods": {},
				"version": 1
			},
			"evm": {
				"assembly": "    /* \"contracts-lecture/230504-3.sol\":3540:4733  contract Struct {... */\n  mstore(0x40, 0x80)\n  callvalue\n  dup1\n  iszero\n  tag_1\n  jumpi\n  0x00\n  dup1\n  revert\ntag_1:\n  pop\n  dataSize(sub_0)\n  dup1\n  dataOffset(sub_0)\n  0x00\n  codecopy\n  0x00\n  return\nstop\n\nsub_0: assembly {\n        /* \"contracts-lecture/230504-3.sol\":3540:4733  contract Struct {... */\n      mstore(0x40, 0x80)\n      callvalue\n      dup1\n      iszero\n      tag_1\n      jumpi\n      0x00\n      dup1\n      revert\n    tag_1:\n      pop\n      jumpi(tag_2, lt(calldatasize, 0x04))\n      shr(0xe0, calldataload(0x00))\n      dup1\n      0xa259aeae\n      gt\n      tag_10\n      jumpi\n      dup1\n      0xa259aeae\n      eq\n      tag_6\n      jumpi\n      dup1\n      0xbe1c766b\n      eq\n      tag_7\n      jumpi\n      dup1\n      0xca5d45f7\n      eq\n      tag_8\n      jumpi\n      dup1\n      0xf1d064b3\n      eq\n      tag_9\n      jumpi\n      jump(tag_2)\n    tag_10:\n      dup1\n      0x025d478c\n      eq\n      tag_3\n      jumpi\n      dup1\n      0x41571887\n      eq\n      tag_4\n      jumpi\n      dup1\n      0x642f9163\n      eq\n      tag_5\n      jumpi\n    tag_2:\n      0x00\n      dup1\n      revert\n        /* \"contracts-lecture/230504-3.sol\":4051:4135  function getStudentS() public view returns(Student memory) {... */\n    tag_3:\n      tag_11\n      tag_12\n      jump\t// in\n    tag_11:\n      mload(0x40)\n      tag_13\n      swap2\n      swap1\n      tag_14\n      jump\t// in\n    tag_13:\n      mload(0x40)\n      dup1\n      swap2\n      sub\n      swap1\n      return\n        /* \"contracts-lecture/230504-3.sol\":4371:4431  function popStudent() public {... */\n    tag_4:\n      tag_15\n      tag_16\n      jump\t// in\n    tag_15:\n      stop\n        /* \"contracts-lecture/230504-3.sol\":4529:4632  function getStudent(uint _n) public view returns(Student memory) {... */\n    tag_5:\n      tag_17\n      0x04\n      dup1\n      calldatasize\n      sub\n      dup2\n      add\n      swap1\n      tag_18\n      swap2\n      swap1\n      tag_19\n      jump\t// in\n    tag_18:\n      tag_20\n      jump\t// in\n    tag_17:\n      mload(0x40)\n      tag_21\n      swap2\n      swap1\n      tag_14\n      jump\t// in\n    tag_21:\n      mload(0x40)\n      dup1\n      swap2\n      sub\n      swap1\n      return\n        /* \"contracts-lecture/230504-3.sol\":3885:4045  function setStudentS(string memory _name, string memory _gender, uint _number, uint _birth) public {... */\n    tag_6:\n      tag_22\n      0x04\n      dup1\n      calldatasize\n      sub\n      dup2\n      add\n      swap1\n      tag_23\n      swap2\n      swap1\n      tag_24\n      jump\t// in\n    tag_23:\n      tag_25\n      jump\t// in\n    tag_22:\n      stop\n        /* \"contracts-lecture/230504-3.sol\":4437:4523  function getLength() public view returns(uint) {... */\n    tag_7:\n      tag_26\n      tag_27\n      jump\t// in\n    tag_26:\n      mload(0x40)\n      tag_28\n      swap2\n      swap1\n      tag_29\n      jump\t// in\n    tag_28:\n      mload(0x40)\n      dup1\n      swap2\n      sub\n      swap1\n      return\n        /* \"contracts-lecture/230504-3.sol\":4141:4365  function pushStudent(string memory _name, string memory _gender, uint _number, uint _birth) public {... */\n    tag_8:\n      tag_30\n      0x04\n      dup1\n      calldatasize\n      sub\n      dup2\n      add\n      swap1\n      tag_31\n      swap2\n      swap1\n      tag_24\n      jump\t// in\n    tag_31:\n      tag_32\n      jump\t// in\n    tag_30:\n      stop\n        /* \"contracts-lecture/230504-3.sol\":4638:4731  function getStudents() public view returns(Student[] memory) {... */\n    tag_9:\n      tag_33\n      tag_34\n      jump\t// in\n    tag_33:\n      mload(0x40)\n      tag_35\n      swap2\n      swap1\n      tag_36\n      jump\t// in\n    tag_35:\n      mload(0x40)\n      dup1\n      swap2\n      sub\n      swap1\n      return\n        /* \"contracts-lecture/230504-3.sol\":4051:4135  function getStudentS() public view returns(Student memory) {... */\n    tag_12:\n        /* \"contracts-lecture/230504-3.sol\":4094:4108  Student memory */\n      tag_37\n      tag_38\n      jump\t// in\n    tag_37:\n        /* \"contracts-lecture/230504-3.sol\":4127:4128  s */\n      0x00\n        /* \"contracts-lecture/230504-3.sol\":4120:4128  return s */\n      mload(0x40)\n      dup1\n      0x80\n      add\n      0x40\n      mstore\n      swap1\n      dup2\n      0x00\n      dup3\n      add\n      dup1\n      sload\n      tag_40\n      swap1\n      tag_41\n      jump\t// in\n    tag_40:\n      dup1\n      0x1f\n      add\n      0x20\n      dup1\n      swap2\n      div\n      mul\n      0x20\n      add\n      mload(0x40)\n      swap1\n      dup2\n      add\n      0x40\n      mstore\n      dup1\n      swap3\n      swap2\n      swap1\n      dup2\n      dup2\n      mstore\n      0x20\n      add\n      dup3\n      dup1\n      sload\n      tag_42\n      swap1\n      tag_41\n      jump\t// in\n    tag_42:\n      dup1\n      iszero\n      tag_43\n      jumpi\n      dup1\n      0x1f\n      lt\n      tag_44\n      jumpi\n      0x0100\n      dup1\n      dup4\n      sload\n      div\n      mul\n      dup4\n      mstore\n      swap2\n      0x20\n      add\n      swap2\n      jump(tag_43)\n    tag_44:\n      dup3\n      add\n      swap2\n      swap1\n      0x00\n      mstore\n      keccak256(0x00, 0x20)\n      swap1\n    tag_45:\n      dup2\n      sload\n      dup2\n      mstore\n      swap1\n      0x01\n      add\n      swap1\n      0x20\n      add\n      dup1\n      dup4\n      gt\n      tag_45\n      jumpi\n      dup3\n      swap1\n      sub\n      0x1f\n      and\n      dup3\n      add\n      swap2\n    tag_43:\n      pop\n      pop\n      pop\n      pop\n      pop\n      dup2\n      mstore\n      0x20\n      add\n      0x01\n      dup3\n      add\n      dup1\n      sload\n      tag_46\n      swap1\n      tag_41\n      jump\t// in\n    tag_46:\n      dup1\n      0x1f\n      add\n      0x20\n      dup1\n      swap2\n      div\n      mul\n      0x20\n      add\n      mload(0x40)\n      swap1\n      dup2\n      add\n      0x40\n      mstore\n      dup1\n      swap3\n      swap2\n      swap1\n      dup2\n      dup2\n      mstore\n      0x20\n      add\n      dup3\n      dup1\n      sload\n      tag_47\n      swap1\n      tag_41\n      jump\t// in\n    tag_47:\n      dup1\n      iszero\n      tag_48\n      jumpi\n      dup1\n      0x1f\n      lt\n      tag_49\n      jumpi\n      0x0100\n      dup1\n      dup4\n      sload\n      div\n      mul\n      dup4\n      mstore\n      swap2\n      0x20\n      add\n      swap2\n      jump(tag_48)\n    tag_49:\n      dup3\n      add\n      swap2\n      swap1\n      0x00\n      mstore\n      keccak256(0x00, 0x20)\n      swap1\n    tag_50:\n      dup2\n      sload\n      dup2\n      mstore\n      swap1\n      0x01\n      add\n      swap1\n      0x20\n      add\n      dup1\n      dup4\n      gt\n      tag_50\n      jumpi\n      dup3\n      swap1\n      sub\n      0x1f\n      and\n      dup3\n      add\n      swap2\n    tag_48:\n      pop\n      pop\n      pop\n      pop\n      pop\n      dup2\n      mstore\n      0x20\n      add\n      0x02\n      dup3\n      add\n      sload\n      dup2\n      mstore\n      0x20\n      add\n      0x03\n      dup3\n      add\n      sload\n      dup2\n      mstore\n      pop\n      pop\n      swap1\n      pop\n        /* \"contracts-lecture/230504-3.sol\":4051:4135  function getStudentS() public view returns(Student memory) {... */\n      swap1\n      jump\t// out\n        /* \"contracts-lecture/230504-3.sol\":4371:4431  function popStudent() public {... */\n    tag_16:\n        /* \"contracts-lecture/230504-3.sol\":4410:4418  students */\n      0x04\n        /* \"contracts-lecture/230504-3.sol\":4410:4424  students.pop() */\n      dup1\n      sload\n      dup1\n      tag_52\n      jumpi\n      tag_53\n      tag_54\n      jump\t// in\n    tag_53:\n    tag_52:\n      0x01\n      swap1\n      sub\n      dup2\n      dup2\n      swap1\n      0x00\n      mstore\n      keccak256(0x00, 0x20)\n      swap1\n      0x04\n      mul\n      add\n      0x00\n      dup1\n      dup3\n      add\n      0x00\n      tag_56\n      swap2\n      swap1\n      tag_57\n      jump\t// in\n    tag_56:\n      0x01\n      dup3\n      add\n      0x00\n      tag_58\n      swap2\n      swap1\n      tag_57\n      jump\t// in\n    tag_58:\n      0x02\n      dup3\n      add\n      0x00\n      swap1\n      sstore\n      0x03\n      dup3\n      add\n      0x00\n      swap1\n      sstore\n      pop\n      pop\n      swap1\n      sstore\n        /* \"contracts-lecture/230504-3.sol\":4371:4431  function popStudent() public {... */\n      jump\t// out\n        /* \"contracts-lecture/230504-3.sol\":4529:4632  function getStudent(uint _n) public view returns(Student memory) {... */\n    tag_20:\n        /* \"contracts-lecture/230504-3.sol\":4578:4592  Student memory */\n      tag_59\n      tag_38\n      jump\t// in\n    tag_59:\n        /* \"contracts-lecture/230504-3.sol\":4611:4619  students */\n      0x04\n        /* \"contracts-lecture/230504-3.sol\":4623:4624  1 */\n      0x01\n        /* \"contracts-lecture/230504-3.sol\":4620:4622  _n */\n      dup4\n        /* \"contracts-lecture/230504-3.sol\":4620:4624  _n-1 */\n      tag_61\n      swap2\n      swap1\n      tag_62\n      jump\t// in\n    tag_61:\n        /* \"contracts-lecture/230504-3.sol\":4611:4625  students[_n-1] */\n      dup2\n      sload\n      dup2\n      lt\n      tag_63\n      jumpi\n      tag_64\n      tag_65\n      jump\t// in\n    tag_64:\n    tag_63:\n      swap1\n      0x00\n      mstore\n      keccak256(0x00, 0x20)\n      swap1\n      0x04\n      mul\n      add\n        /* \"contracts-lecture/230504-3.sol\":4604:4625  return students[_n-1] */\n      mload(0x40)\n      dup1\n      0x80\n      add\n      0x40\n      mstore\n      swap1\n      dup2\n      0x00\n      dup3\n      add\n      dup1\n      sload\n      tag_67\n      swap1\n      tag_41\n      jump\t// in\n    tag_67:\n      dup1\n      0x1f\n      add\n      0x20\n      dup1\n      swap2\n      div\n      mul\n      0x20\n      add\n      mload(0x40)\n      swap1\n      dup2\n      add\n      0x40\n      mstore\n      dup1\n      swap3\n      swap2\n      swap1\n      dup2\n      dup2\n      mstore\n      0x20\n      add\n      dup3\n      dup1\n      sload\n      tag_68\n      swap1\n      tag_41\n      jump\t// in\n    tag_68:\n      dup1\n      iszero\n      tag_69\n      jumpi\n      dup1\n      0x1f\n      lt\n      tag_70\n      jumpi\n      0x0100\n      dup1\n      dup4\n      sload\n      div\n      mul\n      dup4\n      mstore\n      swap2\n      0x20\n      add\n      swap2\n      jump(tag_69)\n    tag_70:\n      dup3\n      add\n      swap2\n      swap1\n      0x00\n      mstore\n      keccak256(0x00, 0x20)\n      swap1\n    tag_71:\n      dup2\n      sload\n      dup2\n      mstore\n      swap1\n      0x01\n      add\n      swap1\n      0x20\n      add\n      dup1\n      dup4\n      gt\n      tag_71\n      jumpi\n      dup3\n      swap1\n      sub\n      0x1f\n      and\n      dup3\n      add\n      swap2\n    tag_69:\n      pop\n      pop\n      pop\n      pop\n      pop\n      dup2\n      mstore\n      0x20\n      add\n      0x01\n      dup3\n      add\n      dup1\n      sload\n      tag_72\n      swap1\n      tag_41\n      jump\t// in\n    tag_72:\n      dup1\n      0x1f\n      add\n      0x20\n      dup1\n      swap2\n      div\n      mul\n      0x20\n      add\n      mload(0x40)\n      swap1\n      dup2\n      add\n      0x40\n      mstore\n      dup1\n      swap3\n      swap2\n      swap1\n      dup2\n      dup2\n      mstore\n      0x20\n      add\n      dup3\n      dup1\n      sload\n      tag_73\n      swap1\n      tag_41\n      jump\t// in\n    tag_73:\n      dup1\n      iszero\n      tag_74\n      jumpi\n      dup1\n      0x1f\n      lt\n      tag_75\n      jumpi\n      0x0100\n      dup1\n      dup4\n      sload\n      div\n      mul\n      dup4\n      mstore\n      swap2\n      0x20\n      add\n      swap2\n      jump(tag_74)\n    tag_75:\n      dup3\n      add\n      swap2\n      swap1\n      0x00\n      mstore\n      keccak256(0x00, 0x20)\n      swap1\n    tag_76:\n      dup2\n      sload\n      dup2\n      mstore\n      swap1\n      0x01\n      add\n      swap1\n      0x20\n      add\n      dup1\n      dup4\n      gt\n      tag_76\n      jumpi\n      dup3\n      swap1\n      sub\n      0x1f\n      and\n      dup3\n      add\n      swap2\n    tag_74:\n      pop\n      pop\n      pop\n      pop\n      pop\n      dup2\n      mstore\n      0x20\n      add\n      0x02\n      dup3\n      add\n      sload\n      dup2\n      mstore\n      0x20\n      add\n      0x03\n      dup3\n      add\n      sload\n      dup2\n      mstore\n      pop\n      pop\n      swap1\n      pop\n        /* \"contracts-lecture/230504-3.sol\":4529:4632  function getStudent(uint _n) public view returns(Student memory) {... */\n      swap2\n      swap1\n      pop\n      jump\t// out\n        /* \"contracts-lecture/230504-3.sol\":3885:4045  function setStudentS(string memory _name, string memory _gender, uint _number, uint _birth) public {... */\n    tag_25:\n        /* \"contracts-lecture/230504-3.sol\":3998:4038  Student(_name, _gender, _number, _birth) */\n      mload(0x40)\n      dup1\n      0x80\n      add\n      0x40\n      mstore\n      dup1\n        /* \"contracts-lecture/230504-3.sol\":4006:4011  _name */\n      dup6\n        /* \"contracts-lecture/230504-3.sol\":3998:4038  Student(_name, _gender, _number, _birth) */\n      dup2\n      mstore\n      0x20\n      add\n        /* \"contracts-lecture/230504-3.sol\":4013:4020  _gender */\n      dup5\n        /* \"contracts-lecture/230504-3.sol\":3998:4038  Student(_name, _gender, _number, _birth) */\n      dup2\n      mstore\n      0x20\n      add\n        /* \"contracts-lecture/230504-3.sol\":4022:4029  _number */\n      dup4\n        /* \"contracts-lecture/230504-3.sol\":3998:4038  Student(_name, _gender, _number, _birth) */\n      dup2\n      mstore\n      0x20\n      add\n        /* \"contracts-lecture/230504-3.sol\":4031:4037  _birth */\n      dup3\n        /* \"contracts-lecture/230504-3.sol\":3998:4038  Student(_name, _gender, _number, _birth) */\n      dup2\n      mstore\n      pop\n        /* \"contracts-lecture/230504-3.sol\":3994:3995  s */\n      0x00\n        /* \"contracts-lecture/230504-3.sol\":3994:4038  s = Student(_name, _gender, _number, _birth) */\n      dup1\n      dup3\n      add\n      mload\n      dup2\n      0x00\n      add\n      swap1\n      dup2\n      tag_78\n      swap2\n      swap1\n      tag_79\n      jump\t// in\n    tag_78:\n      pop\n      0x20\n      dup3\n      add\n      mload\n      dup2\n      0x01\n      add\n      swap1\n      dup2\n      tag_80\n      swap2\n      swap1\n      tag_79\n      jump\t// in\n    tag_80:\n      pop\n      0x40\n      dup3\n      add\n      mload\n      dup2\n      0x02\n      add\n      sstore\n      0x60\n      dup3\n      add\n      mload\n      dup2\n      0x03\n      add\n      sstore\n      swap1\n      pop\n      pop\n        /* \"contracts-lecture/230504-3.sol\":3885:4045  function setStudentS(string memory _name, string memory _gender, uint _number, uint _birth) public {... */\n      pop\n      pop\n      pop\n      pop\n      jump\t// out\n        /* \"contracts-lecture/230504-3.sol\":4437:4523  function getLength() public view returns(uint) {... */\n    tag_27:\n        /* \"contracts-lecture/230504-3.sol\":4478:4482  uint */\n      0x00\n        /* \"contracts-lecture/230504-3.sol\":4501:4509  students */\n      0x04\n        /* \"contracts-lecture/230504-3.sol\":4501:4516  students.length */\n      dup1\n      sload\n      swap1\n      pop\n        /* \"contracts-lecture/230504-3.sol\":4494:4516  return students.length */\n      swap1\n      pop\n        /* \"contracts-lecture/230504-3.sol\":4437:4523  function getLength() public view returns(uint) {... */\n      swap1\n      jump\t// out\n        /* \"contracts-lecture/230504-3.sol\":4141:4365  function pushStudent(string memory _name, string memory _gender, uint _number, uint _birth) public {... */\n    tag_32:\n        /* \"contracts-lecture/230504-3.sol\":4250:4258  students */\n      0x04\n        /* \"contracts-lecture/230504-3.sol\":4264:4304  Student(_name, _gender, _number, _birth) */\n      mload(0x40)\n      dup1\n      0x80\n      add\n      0x40\n      mstore\n      dup1\n        /* \"contracts-lecture/230504-3.sol\":4272:4277  _name */\n      dup7\n        /* \"contracts-lecture/230504-3.sol\":4264:4304  Student(_name, _gender, _number, _birth) */\n      dup2\n      mstore\n      0x20\n      add\n        /* \"contracts-lecture/230504-3.sol\":4279:4286  _gender */\n      dup6\n        /* \"contracts-lecture/230504-3.sol\":4264:4304  Student(_name, _gender, _number, _birth) */\n      dup2\n      mstore\n      0x20\n      add\n        /* \"contracts-lecture/230504-3.sol\":4288:4295  _number */\n      dup5\n        /* \"contracts-lecture/230504-3.sol\":4264:4304  Student(_name, _gender, _number, _birth) */\n      dup2\n      mstore\n      0x20\n      add\n        /* \"contracts-lecture/230504-3.sol\":4297:4303  _birth */\n      dup4\n        /* \"contracts-lecture/230504-3.sol\":4264:4304  Student(_name, _gender, _number, _birth) */\n      dup2\n      mstore\n      pop\n        /* \"contracts-lecture/230504-3.sol\":4250:4305  students.push(Student(_name, _gender, _number, _birth)) */\n      swap1\n      dup1\n      0x01\n      dup2\n      sload\n      add\n      dup1\n      dup3\n      sstore\n      dup1\n      swap2\n      pop\n      pop\n      0x01\n      swap1\n      sub\n      swap1\n      0x00\n      mstore\n      keccak256(0x00, 0x20)\n      swap1\n      0x04\n      mul\n      add\n      0x00\n      swap1\n      swap2\n      swap1\n      swap2\n      swap1\n      swap2\n      pop\n      0x00\n      dup3\n      add\n      mload\n      dup2\n      0x00\n      add\n      swap1\n      dup2\n      tag_84\n      swap2\n      swap1\n      tag_79\n      jump\t// in\n    tag_84:\n      pop\n      0x20\n      dup3\n      add\n      mload\n      dup2\n      0x01\n      add\n      swap1\n      dup2\n      tag_85\n      swap2\n      swap1\n      tag_79\n      jump\t// in\n    tag_85:\n      pop\n      0x40\n      dup3\n      add\n      mload\n      dup2\n      0x02\n      add\n      sstore\n      0x60\n      dup3\n      add\n      mload\n      dup2\n      0x03\n      add\n      sstore\n      pop\n      pop\n        /* \"contracts-lecture/230504-3.sol\":4141:4365  function pushStudent(string memory _name, string memory _gender, uint _number, uint _birth) public {... */\n      pop\n      pop\n      pop\n      pop\n      jump\t// out\n        /* \"contracts-lecture/230504-3.sol\":4638:4731  function getStudents() public view returns(Student[] memory) {... */\n    tag_34:\n        /* \"contracts-lecture/230504-3.sol\":4681:4697  Student[] memory */\n      0x60\n        /* \"contracts-lecture/230504-3.sol\":4716:4724  students */\n      0x04\n        /* \"contracts-lecture/230504-3.sol\":4709:4724  return students */\n      dup1\n      sload\n      dup1\n      0x20\n      mul\n      0x20\n      add\n      mload(0x40)\n      swap1\n      dup2\n      add\n      0x40\n      mstore\n      dup1\n      swap3\n      swap2\n      swap1\n      dup2\n      dup2\n      mstore\n      0x20\n      add\n      0x00\n      swap1\n    tag_87:\n      dup3\n      dup3\n      lt\n      iszero\n      tag_88\n      jumpi\n      dup4\n      dup3\n      swap1\n      0x00\n      mstore\n      keccak256(0x00, 0x20)\n      swap1\n      0x04\n      mul\n      add\n      mload(0x40)\n      dup1\n      0x80\n      add\n      0x40\n      mstore\n      swap1\n      dup2\n      0x00\n      dup3\n      add\n      dup1\n      sload\n      tag_90\n      swap1\n      tag_41\n      jump\t// in\n    tag_90:\n      dup1\n      0x1f\n      add\n      0x20\n      dup1\n      swap2\n      div\n      mul\n      0x20\n      add\n      mload(0x40)\n      swap1\n      dup2\n      add\n      0x40\n      mstore\n      dup1\n      swap3\n      swap2\n      swap1\n      dup2\n      dup2\n      mstore\n      0x20\n      add\n      dup3\n      dup1\n      sload\n      tag_91\n      swap1\n      tag_41\n      jump\t// in\n    tag_91:\n      dup1\n      iszero\n      tag_92\n      jumpi\n      dup1\n      0x1f\n      lt\n      tag_93\n      jumpi\n      0x0100\n      dup1\n      dup4\n      sload\n      div\n      mul\n      dup4\n      mstore\n      swap2\n      0x20\n      add\n      swap2\n      jump(tag_92)\n    tag_93:\n      dup3\n      add\n      swap2\n      swap1\n      0x00\n      mstore\n      keccak256(0x00, 0x20)\n      swap1\n    tag_94:\n      dup2\n      sload\n      dup2\n      mstore\n      swap1\n      0x01\n      add\n      swap1\n      0x20\n      add\n      dup1\n      dup4\n      gt\n      tag_94\n      jumpi\n      dup3\n      swap1\n      sub\n      0x1f\n      and\n      dup3\n      add\n      swap2\n    tag_92:\n      pop\n      pop\n      pop\n      pop\n      pop\n      dup2\n      mstore\n      0x20\n      add\n      0x01\n      dup3\n      add\n      dup1\n      sload\n      tag_95\n      swap1\n      tag_41\n      jump\t// in\n    tag_95:\n      dup1\n      0x1f\n      add\n      0x20\n      dup1\n      swap2\n      div\n      mul\n      0x20\n      add\n      mload(0x40)\n      swap1\n      dup2\n      add\n      0x40\n      mstore\n      dup1\n      swap3\n      swap2\n      swap1\n      dup2\n      dup2\n      mstore\n      0x20\n      add\n      dup3\n      dup1\n      sload\n      tag_96\n      swap1\n      tag_41\n      jump\t// in\n    tag_96:\n      dup1\n      iszero\n      tag_97\n      jumpi\n      dup1\n      0x1f\n      lt\n      tag_98\n      jumpi\n      0x0100\n      dup1\n      dup4\n      sload\n      div\n      mul\n      dup4\n      mstore\n      swap2\n      0x20\n      add\n      swap2\n      jump(tag_97)\n    tag_98:\n      dup3\n      add\n      swap2\n      swap1\n      0x00\n      mstore\n      keccak256(0x00, 0x20)\n      swap1\n    tag_99:\n      dup2\n      sload\n      dup2\n      mstore\n      swap1\n      0x01\n      add\n      swap1\n      0x20\n      add\n      dup1\n      dup4\n      gt\n      tag_99\n      jumpi\n      dup3\n      swap1\n      sub\n      0x1f\n      and\n      dup3\n      add\n      swap2\n    tag_97:\n      pop\n      pop\n      pop\n      pop\n      pop\n      dup2\n      mstore\n      0x20\n      add\n      0x02\n      dup3\n      add\n      sload\n      dup2\n      mstore\n      0x20\n      add\n      0x03\n      dup3\n      add\n      sload\n      dup2\n      mstore\n      pop\n      pop\n      dup2\n      mstore\n      0x20\n      add\n      swap1\n      0x01\n      add\n      swap1\n      jump(tag_87)\n    tag_88:\n      pop\n      pop\n      pop\n      pop\n      swap1\n      pop\n        /* \"contracts-lecture/230504-3.sol\":4638:4731  function getStudents() public view returns(Student[] memory) {... */\n      swap1\n      jump\t// out\n    tag_38:\n      mload(0x40)\n      dup1\n      0x80\n      add\n      0x40\n      mstore\n      dup1\n      0x60\n      dup2\n      mstore\n      0x20\n      add\n      0x60\n      dup2\n      mstore\n      0x20\n      add\n      0x00\n      dup2\n      mstore\n      0x20\n      add\n      0x00\n      dup2\n      mstore\n      pop\n      swap1\n      jump\t// out\n    tag_57:\n      pop\n      dup1\n      sload\n      tag_100\n      swap1\n      tag_41\n      jump\t// in\n    tag_100:\n      0x00\n      dup3\n      sstore\n      dup1\n      0x1f\n      lt\n      tag_102\n      jumpi\n      pop\n      jump(tag_101)\n    tag_102:\n      0x1f\n      add\n      0x20\n      swap1\n      div\n      swap1\n      0x00\n      mstore\n      keccak256(0x00, 0x20)\n      swap1\n      dup2\n      add\n      swap1\n      tag_103\n      swap2\n      swap1\n      tag_104\n      jump\t// in\n    tag_103:\n    tag_101:\n      pop\n      jump\t// out\n    tag_104:\n    tag_105:\n      dup1\n      dup3\n      gt\n      iszero\n      tag_106\n      jumpi\n      0x00\n      dup2\n      0x00\n      swap1\n      sstore\n      pop\n      0x01\n      add\n      jump(tag_105)\n    tag_106:\n      pop\n      swap1\n      jump\t// out\n        /* \"#utility.yul\":7:106   */\n    tag_107:\n        /* \"#utility.yul\":59:65   */\n      0x00\n        /* \"#utility.yul\":93:98   */\n      dup2\n        /* \"#utility.yul\":87:99   */\n      mload\n        /* \"#utility.yul\":77:99   */\n      swap1\n      pop\n        /* \"#utility.yul\":7:106   */\n      swap2\n      swap1\n      pop\n      jump\t// out\n        /* \"#utility.yul\":112:271   */\n    tag_108:\n        /* \"#utility.yul\":186:197   */\n      0x00\n        /* \"#utility.yul\":220:226   */\n      dup3\n        /* \"#utility.yul\":215:218   */\n      dup3\n        /* \"#utility.yul\":208:227   */\n      mstore\n        /* \"#utility.yul\":260:264   */\n      0x20\n        /* \"#utility.yul\":255:258   */\n      dup3\n        /* \"#utility.yul\":251:265   */\n      add\n        /* \"#utility.yul\":236:265   */\n      swap1\n      pop\n        /* \"#utility.yul\":112:271   */\n      swap3\n      swap2\n      pop\n      pop\n      jump\t// out\n        /* \"#utility.yul\":277:523   */\n    tag_109:\n        /* \"#utility.yul\":358:359   */\n      0x00\n        /* \"#utility.yul\":368:481   */\n    tag_158:\n        /* \"#utility.yul\":382:388   */\n      dup4\n        /* \"#utility.yul\":379:380   */\n      dup2\n        /* \"#utility.yul\":376:389   */\n      lt\n        /* \"#utility.yul\":368:481   */\n      iszero\n      tag_160\n      jumpi\n        /* \"#utility.yul\":467:468   */\n      dup1\n        /* \"#utility.yul\":462:465   */\n      dup3\n        /* \"#utility.yul\":458:469   */\n      add\n        /* \"#utility.yul\":452:470   */\n      mload\n        /* \"#utility.yul\":448:449   */\n      dup2\n        /* \"#utility.yul\":443:446   */\n      dup5\n        /* \"#utility.yul\":439:450   */\n      add\n        /* \"#utility.yul\":432:471   */\n      mstore\n        /* \"#utility.yul\":404:406   */\n      0x20\n        /* \"#utility.yul\":401:402   */\n      dup2\n        /* \"#utility.yul\":397:407   */\n      add\n        /* \"#utility.yul\":392:407   */\n      swap1\n      pop\n        /* \"#utility.yul\":368:481   */\n      jump(tag_158)\n    tag_160:\n        /* \"#utility.yul\":515:516   */\n      0x00\n        /* \"#utility.yul\":506:512   */\n      dup5\n        /* \"#utility.yul\":501:504   */\n      dup5\n        /* \"#utility.yul\":497:513   */\n      add\n        /* \"#utility.yul\":490:517   */\n      mstore\n        /* \"#utility.yul\":339:523   */\n      pop\n        /* \"#utility.yul\":277:523   */\n      pop\n      pop\n      pop\n      jump\t// out\n        /* \"#utility.yul\":529:631   */\n    tag_110:\n        /* \"#utility.yul\":570:576   */\n      0x00\n        /* \"#utility.yul\":621:623   */\n      0x1f\n        /* \"#utility.yul\":617:624   */\n      not\n        /* \"#utility.yul\":612:614   */\n      0x1f\n        /* \"#utility.yul\":605:610   */\n      dup4\n        /* \"#utility.yul\":601:615   */\n      add\n        /* \"#utility.yul\":597:625   */\n      and\n        /* \"#utility.yul\":587:625   */\n      swap1\n      pop\n        /* \"#utility.yul\":529:631   */\n      swap2\n      swap1\n      pop\n      jump\t// out\n        /* \"#utility.yul\":637:994   */\n    tag_111:\n        /* \"#utility.yul\":715:718   */\n      0x00\n        /* \"#utility.yul\":743:782   */\n      tag_163\n        /* \"#utility.yul\":776:781   */\n      dup3\n        /* \"#utility.yul\":743:782   */\n      tag_107\n      jump\t// in\n    tag_163:\n        /* \"#utility.yul\":798:859   */\n      tag_164\n        /* \"#utility.yul\":852:858   */\n      dup2\n        /* \"#utility.yul\":847:850   */\n      dup6\n        /* \"#utility.yul\":798:859   */\n      tag_108\n      jump\t// in\n    tag_164:\n        /* \"#utility.yul\":791:859   */\n      swap4\n      pop\n        /* \"#utility.yul\":868:933   */\n      tag_165\n        /* \"#utility.yul\":926:932   */\n      dup2\n        /* \"#utility.yul\":921:924   */\n      dup6\n        /* \"#utility.yul\":914:918   */\n      0x20\n        /* \"#utility.yul\":907:912   */\n      dup7\n        /* \"#utility.yul\":903:919   */\n      add\n        /* \"#utility.yul\":868:933   */\n      tag_109\n      jump\t// in\n    tag_165:\n        /* \"#utility.yul\":958:987   */\n      tag_166\n        /* \"#utility.yul\":980:986   */\n      dup2\n        /* \"#utility.yul\":958:987   */\n      tag_110\n      jump\t// in\n    tag_166:\n        /* \"#utility.yul\":953:956   */\n      dup5\n        /* \"#utility.yul\":949:988   */\n      add\n        /* \"#utility.yul\":942:988   */\n      swap2\n      pop\n        /* \"#utility.yul\":719:994   */\n      pop\n        /* \"#utility.yul\":637:994   */\n      swap3\n      swap2\n      pop\n      pop\n      jump\t// out\n        /* \"#utility.yul\":1000:1077   */\n    tag_112:\n        /* \"#utility.yul\":1037:1044   */\n      0x00\n        /* \"#utility.yul\":1066:1071   */\n      dup2\n        /* \"#utility.yul\":1055:1071   */\n      swap1\n      pop\n        /* \"#utility.yul\":1000:1077   */\n      swap2\n      swap1\n      pop\n      jump\t// out\n        /* \"#utility.yul\":1083:1191   */\n    tag_113:\n        /* \"#utility.yul\":1160:1184   */\n      tag_169\n        /* \"#utility.yul\":1178:1183   */\n      dup2\n        /* \"#utility.yul\":1160:1184   */\n      tag_112\n      jump\t// in\n    tag_169:\n        /* \"#utility.yul\":1155:1158   */\n      dup3\n        /* \"#utility.yul\":1148:1185   */\n      mstore\n        /* \"#utility.yul\":1083:1191   */\n      pop\n      pop\n      jump\t// out\n        /* \"#utility.yul\":1251:2282   */\n    tag_114:\n        /* \"#utility.yul\":1368:1371   */\n      0x00\n        /* \"#utility.yul\":1404:1408   */\n      0x80\n        /* \"#utility.yul\":1399:1402   */\n      dup4\n        /* \"#utility.yul\":1395:1409   */\n      add\n        /* \"#utility.yul\":1491:1495   */\n      0x00\n        /* \"#utility.yul\":1484:1489   */\n      dup4\n        /* \"#utility.yul\":1480:1496   */\n      add\n        /* \"#utility.yul\":1474:1497   */\n      mload\n        /* \"#utility.yul\":1544:1547   */\n      dup5\n        /* \"#utility.yul\":1538:1542   */\n      dup3\n        /* \"#utility.yul\":1534:1548   */\n      sub\n        /* \"#utility.yul\":1527:1531   */\n      0x00\n        /* \"#utility.yul\":1522:1525   */\n      dup7\n        /* \"#utility.yul\":1518:1532   */\n      add\n        /* \"#utility.yul\":1511:1549   */\n      mstore\n        /* \"#utility.yul\":1570:1643   */\n      tag_171\n        /* \"#utility.yul\":1638:1642   */\n      dup3\n        /* \"#utility.yul\":1624:1636   */\n      dup3\n        /* \"#utility.yul\":1570:1643   */\n      tag_111\n      jump\t// in\n    tag_171:\n        /* \"#utility.yul\":1562:1643   */\n      swap2\n      pop\n        /* \"#utility.yul\":1419:1654   */\n      pop\n        /* \"#utility.yul\":1738:1742   */\n      0x20\n        /* \"#utility.yul\":1731:1736   */\n      dup4\n        /* \"#utility.yul\":1727:1743   */\n      add\n        /* \"#utility.yul\":1721:1744   */\n      mload\n        /* \"#utility.yul\":1791:1794   */\n      dup5\n        /* \"#utility.yul\":1785:1789   */\n      dup3\n        /* \"#utility.yul\":1781:1795   */\n      sub\n        /* \"#utility.yul\":1774:1778   */\n      0x20\n        /* \"#utility.yul\":1769:1772   */\n      dup7\n        /* \"#utility.yul\":1765:1779   */\n      add\n        /* \"#utility.yul\":1758:1796   */\n      mstore\n        /* \"#utility.yul\":1817:1890   */\n      tag_172\n        /* \"#utility.yul\":1885:1889   */\n      dup3\n        /* \"#utility.yul\":1871:1883   */\n      dup3\n        /* \"#utility.yul\":1817:1890   */\n      tag_111\n      jump\t// in\n    tag_172:\n        /* \"#utility.yul\":1809:1890   */\n      swap2\n      pop\n        /* \"#utility.yul\":1664:1901   */\n      pop\n        /* \"#utility.yul\":1985:1989   */\n      0x40\n        /* \"#utility.yul\":1978:1983   */\n      dup4\n        /* \"#utility.yul\":1974:1990   */\n      add\n        /* \"#utility.yul\":1968:1991   */\n      mload\n        /* \"#utility.yul\":2004:2067   */\n      tag_173\n        /* \"#utility.yul\":2061:2065   */\n      0x40\n        /* \"#utility.yul\":2056:2059   */\n      dup7\n        /* \"#utility.yul\":2052:2066   */\n      add\n        /* \"#utility.yul\":2038:2050   */\n      dup3\n        /* \"#utility.yul\":2004:2067   */\n      tag_113\n      jump\t// in\n    tag_173:\n        /* \"#utility.yul\":1911:2077   */\n      pop\n        /* \"#utility.yul\":2163:2167   */\n      0x60\n        /* \"#utility.yul\":2156:2161   */\n      dup4\n        /* \"#utility.yul\":2152:2168   */\n      add\n        /* \"#utility.yul\":2146:2169   */\n      mload\n        /* \"#utility.yul\":2182:2245   */\n      tag_174\n        /* \"#utility.yul\":2239:2243   */\n      0x60\n        /* \"#utility.yul\":2234:2237   */\n      dup7\n        /* \"#utility.yul\":2230:2244   */\n      add\n        /* \"#utility.yul\":2216:2228   */\n      dup3\n        /* \"#utility.yul\":2182:2245   */\n      tag_113\n      jump\t// in\n    tag_174:\n        /* \"#utility.yul\":2087:2255   */\n      pop\n        /* \"#utility.yul\":2272:2276   */\n      dup1\n        /* \"#utility.yul\":2265:2276   */\n      swap2\n      pop\n        /* \"#utility.yul\":1373:2282   */\n      pop\n        /* \"#utility.yul\":1251:2282   */\n      swap3\n      swap2\n      pop\n      pop\n      jump\t// out\n        /* \"#utility.yul\":2288:2657   */\n    tag_14:\n        /* \"#utility.yul\":2429:2433   */\n      0x00\n        /* \"#utility.yul\":2467:2469   */\n      0x20\n        /* \"#utility.yul\":2456:2465   */\n      dup3\n        /* \"#utility.yul\":2452:2470   */\n      add\n        /* \"#utility.yul\":2444:2470   */\n      swap1\n      pop\n        /* \"#utility.yul\":2516:2525   */\n      dup2\n        /* \"#utility.yul\":2510:2514   */\n      dup2\n        /* \"#utility.yul\":2506:2526   */\n      sub\n        /* \"#utility.yul\":2502:2503   */\n      0x00\n        /* \"#utility.yul\":2491:2500   */\n      dup4\n        /* \"#utility.yul\":2487:2504   */\n      add\n        /* \"#utility.yul\":2480:2527   */\n      mstore\n        /* \"#utility.yul\":2544:2650   */\n      tag_176\n        /* \"#utility.yul\":2645:2649   */\n      dup2\n        /* \"#utility.yul\":2636:2642   */\n      dup5\n        /* \"#utility.yul\":2544:2650   */\n      tag_114\n      jump\t// in\n    tag_176:\n        /* \"#utility.yul\":2536:2650   */\n      swap1\n      pop\n        /* \"#utility.yul\":2288:2657   */\n      swap3\n      swap2\n      pop\n      pop\n      jump\t// out\n        /* \"#utility.yul\":2663:2738   */\n    tag_115:\n        /* \"#utility.yul\":2696:2702   */\n      0x00\n        /* \"#utility.yul\":2729:2731   */\n      0x40\n        /* \"#utility.yul\":2723:2732   */\n      mload\n        /* \"#utility.yul\":2713:2732   */\n      swap1\n      pop\n        /* \"#utility.yul\":2663:2738   */\n      swap1\n      jump\t// out\n        /* \"#utility.yul\":2744:2861   */\n    tag_116:\n        /* \"#utility.yul\":2853:2854   */\n      0x00\n        /* \"#utility.yul\":2850:2851   */\n      dup1\n        /* \"#utility.yul\":2843:2855   */\n      revert\n        /* \"#utility.yul\":2867:2984   */\n    tag_117:\n        /* \"#utility.yul\":2976:2977   */\n      0x00\n        /* \"#utility.yul\":2973:2974   */\n      dup1\n        /* \"#utility.yul\":2966:2978   */\n      revert\n        /* \"#utility.yul\":2990:3112   */\n    tag_118:\n        /* \"#utility.yul\":3063:3087   */\n      tag_181\n        /* \"#utility.yul\":3081:3086   */\n      dup2\n        /* \"#utility.yul\":3063:3087   */\n      tag_112\n      jump\t// in\n    tag_181:\n        /* \"#utility.yul\":3056:3061   */\n      dup2\n        /* \"#utility.yul\":3053:3088   */\n      eq\n        /* \"#utility.yul\":3043:3106   */\n      tag_182\n      jumpi\n        /* \"#utility.yul\":3102:3103   */\n      0x00\n        /* \"#utility.yul\":3099:3100   */\n      dup1\n        /* \"#utility.yul\":3092:3104   */\n      revert\n        /* \"#utility.yul\":3043:3106   */\n    tag_182:\n        /* \"#utility.yul\":2990:3112   */\n      pop\n      jump\t// out\n        /* \"#utility.yul\":3118:3257   */\n    tag_119:\n        /* \"#utility.yul\":3164:3169   */\n      0x00\n        /* \"#utility.yul\":3202:3208   */\n      dup2\n        /* \"#utility.yul\":3189:3209   */\n      calldataload\n        /* \"#utility.yul\":3180:3209   */\n      swap1\n      pop\n        /* \"#utility.yul\":3218:3251   */\n      tag_184\n        /* \"#utility.yul\":3245:3250   */\n      dup2\n        /* \"#utility.yul\":3218:3251   */\n      tag_118\n      jump\t// in\n    tag_184:\n        /* \"#utility.yul\":3118:3257   */\n      swap3\n      swap2\n      pop\n      pop\n      jump\t// out\n        /* \"#utility.yul\":3263:3592   */\n    tag_19:\n        /* \"#utility.yul\":3322:3328   */\n      0x00\n        /* \"#utility.yul\":3371:3373   */\n      0x20\n        /* \"#utility.yul\":3359:3368   */\n      dup3\n        /* \"#utility.yul\":3350:3357   */\n      dup5\n        /* \"#utility.yul\":3346:3369   */\n      sub\n        /* \"#utility.yul\":3342:3374   */\n      slt\n        /* \"#utility.yul\":3339:3458   */\n      iszero\n      tag_186\n      jumpi\n        /* \"#utility.yul\":3377:3456   */\n      tag_187\n      tag_116\n      jump\t// in\n    tag_187:\n        /* \"#utility.yul\":3339:3458   */\n    tag_186:\n        /* \"#utility.yul\":3497:3498   */\n      0x00\n        /* \"#utility.yul\":3522:3575   */\n      tag_188\n        /* \"#utility.yul\":3567:3574   */\n      dup5\n        /* \"#utility.yul\":3558:3564   */\n      dup3\n        /* \"#utility.yul\":3547:3556   */\n      dup6\n        /* \"#utility.yul\":3543:3565   */\n      add\n        /* \"#utility.yul\":3522:3575   */\n      tag_119\n      jump\t// in\n    tag_188:\n        /* \"#utility.yul\":3512:3575   */\n      swap2\n      pop\n        /* \"#utility.yul\":3468:3585   */\n      pop\n        /* \"#utility.yul\":3263:3592   */\n      swap3\n      swap2\n      pop\n      pop\n      jump\t// out\n        /* \"#utility.yul\":3598:3715   */\n    tag_120:\n        /* \"#utility.yul\":3707:3708   */\n      0x00\n        /* \"#utility.yul\":3704:3705   */\n      dup1\n        /* \"#utility.yul\":3697:3709   */\n      revert\n        /* \"#utility.yul\":3721:3838   */\n    tag_121:\n        /* \"#utility.yul\":3830:3831   */\n      0x00\n        /* \"#utility.yul\":3827:3828   */\n      dup1\n        /* \"#utility.yul\":3820:3832   */\n      revert\n        /* \"#utility.yul\":3844:4024   */\n    tag_122:\n        /* \"#utility.yul\":3892:3969   */\n      0x4e487b7100000000000000000000000000000000000000000000000000000000\n        /* \"#utility.yul\":3889:3890   */\n      0x00\n        /* \"#utility.yul\":3882:3970   */\n      mstore\n        /* \"#utility.yul\":3989:3993   */\n      0x41\n        /* \"#utility.yul\":3986:3987   */\n      0x04\n        /* \"#utility.yul\":3979:3994   */\n      mstore\n        /* \"#utility.yul\":4013:4017   */\n      0x24\n        /* \"#utility.yul\":4010:4011   */\n      0x00\n        /* \"#utility.yul\":4003:4018   */\n      revert\n        /* \"#utility.yul\":4030:4311   */\n    tag_123:\n        /* \"#utility.yul\":4113:4140   */\n      tag_193\n        /* \"#utility.yul\":4135:4139   */\n      dup3\n        /* \"#utility.yul\":4113:4140   */\n      tag_110\n      jump\t// in\n    tag_193:\n        /* \"#utility.yul\":4105:4111   */\n      dup2\n        /* \"#utility.yul\":4101:4141   */\n      add\n        /* \"#utility.yul\":4243:4249   */\n      dup2\n        /* \"#utility.yul\":4231:4241   */\n      dup2\n        /* \"#utility.yul\":4228:4250   */\n      lt\n        /* \"#utility.yul\":4207:4225   */\n      0xffffffffffffffff\n        /* \"#utility.yul\":4195:4205   */\n      dup3\n        /* \"#utility.yul\":4192:4226   */\n      gt\n        /* \"#utility.yul\":4189:4251   */\n      or\n        /* \"#utility.yul\":4186:4274   */\n      iszero\n      tag_194\n      jumpi\n        /* \"#utility.yul\":4254:4272   */\n      tag_195\n      tag_122\n      jump\t// in\n    tag_195:\n        /* \"#utility.yul\":4186:4274   */\n    tag_194:\n        /* \"#utility.yul\":4294:4304   */\n      dup1\n        /* \"#utility.yul\":4290:4292   */\n      0x40\n        /* \"#utility.yul\":4283:4305   */\n      mstore\n        /* \"#utility.yul\":4073:4311   */\n      pop\n        /* \"#utility.yul\":4030:4311   */\n      pop\n      pop\n      jump\t// out\n        /* \"#utility.yul\":4317:4446   */\n    tag_124:\n        /* \"#utility.yul\":4351:4357   */\n      0x00\n        /* \"#utility.yul\":4378:4398   */\n      tag_197\n      tag_115\n      jump\t// in\n    tag_197:\n        /* \"#utility.yul\":4368:4398   */\n      swap1\n      pop\n        /* \"#utility.yul\":4407:4440   */\n      tag_198\n        /* \"#utility.yul\":4435:4439   */\n      dup3\n        /* \"#utility.yul\":4427:4433   */\n      dup3\n        /* \"#utility.yul\":4407:4440   */\n      tag_123\n      jump\t// in\n    tag_198:\n        /* \"#utility.yul\":4317:4446   */\n      swap2\n      swap1\n      pop\n      jump\t// out\n        /* \"#utility.yul\":4452:4760   */\n    tag_125:\n        /* \"#utility.yul\":4514:4518   */\n      0x00\n        /* \"#utility.yul\":4604:4622   */\n      0xffffffffffffffff\n        /* \"#utility.yul\":4596:4602   */\n      dup3\n        /* \"#utility.yul\":4593:4623   */\n      gt\n        /* \"#utility.yul\":4590:4646   */\n      iszero\n      tag_200\n      jumpi\n        /* \"#utility.yul\":4626:4644   */\n      tag_201\n      tag_122\n      jump\t// in\n    tag_201:\n        /* \"#utility.yul\":4590:4646   */\n    tag_200:\n        /* \"#utility.yul\":4664:4693   */\n      tag_202\n        /* \"#utility.yul\":4686:4692   */\n      dup3\n        /* \"#utility.yul\":4664:4693   */\n      tag_110\n      jump\t// in\n    tag_202:\n        /* \"#utility.yul\":4656:4693   */\n      swap1\n      pop\n        /* \"#utility.yul\":4748:4752   */\n      0x20\n        /* \"#utility.yul\":4742:4746   */\n      dup2\n        /* \"#utility.yul\":4738:4753   */\n      add\n        /* \"#utility.yul\":4730:4753   */\n      swap1\n      pop\n        /* \"#utility.yul\":4452:4760   */\n      swap2\n      swap1\n      pop\n      jump\t// out\n        /* \"#utility.yul\":4766:4912   */\n    tag_126:\n        /* \"#utility.yul\":4863:4869   */\n      dup3\n        /* \"#utility.yul\":4858:4861   */\n      dup2\n        /* \"#utility.yul\":4853:4856   */\n      dup4\n        /* \"#utility.yul\":4840:4870   */\n      calldatacopy\n        /* \"#utility.yul\":4904:4905   */\n      0x00\n        /* \"#utility.yul\":4895:4901   */\n      dup4\n        /* \"#utility.yul\":4890:4893   */\n      dup4\n        /* \"#utility.yul\":4886:4902   */\n      add\n        /* \"#utility.yul\":4879:4906   */\n      mstore\n        /* \"#utility.yul\":4766:4912   */\n      pop\n      pop\n      pop\n      jump\t// out\n        /* \"#utility.yul\":4918:5343   */\n    tag_127:\n        /* \"#utility.yul\":4996:5001   */\n      0x00\n        /* \"#utility.yul\":5021:5087   */\n      tag_205\n        /* \"#utility.yul\":5037:5086   */\n      tag_206\n        /* \"#utility.yul\":5079:5085   */\n      dup5\n        /* \"#utility.yul\":5037:5086   */\n      tag_125\n      jump\t// in\n    tag_206:\n        /* \"#utility.yul\":5021:5087   */\n      tag_124\n      jump\t// in\n    tag_205:\n        /* \"#utility.yul\":5012:5087   */\n      swap1\n      pop\n        /* \"#utility.yul\":5110:5116   */\n      dup3\n        /* \"#utility.yul\":5103:5108   */\n      dup2\n        /* \"#utility.yul\":5096:5117   */\n      mstore\n        /* \"#utility.yul\":5148:5152   */\n      0x20\n        /* \"#utility.yul\":5141:5146   */\n      dup2\n        /* \"#utility.yul\":5137:5153   */\n      add\n        /* \"#utility.yul\":5186:5189   */\n      dup5\n        /* \"#utility.yul\":5177:5183   */\n      dup5\n        /* \"#utility.yul\":5172:5175   */\n      dup5\n        /* \"#utility.yul\":5168:5184   */\n      add\n        /* \"#utility.yul\":5165:5190   */\n      gt\n        /* \"#utility.yul\":5162:5274   */\n      iszero\n      tag_207\n      jumpi\n        /* \"#utility.yul\":5193:5272   */\n      tag_208\n      tag_121\n      jump\t// in\n    tag_208:\n        /* \"#utility.yul\":5162:5274   */\n    tag_207:\n        /* \"#utility.yul\":5283:5337   */\n      tag_209\n        /* \"#utility.yul\":5330:5336   */\n      dup5\n        /* \"#utility.yul\":5325:5328   */\n      dup3\n        /* \"#utility.yul\":5320:5323   */\n      dup6\n        /* \"#utility.yul\":5283:5337   */\n      tag_126\n      jump\t// in\n    tag_209:\n        /* \"#utility.yul\":5002:5343   */\n      pop\n        /* \"#utility.yul\":4918:5343   */\n      swap4\n      swap3\n      pop\n      pop\n      pop\n      jump\t// out\n        /* \"#utility.yul\":5363:5703   */\n    tag_128:\n        /* \"#utility.yul\":5419:5424   */\n      0x00\n        /* \"#utility.yul\":5468:5471   */\n      dup3\n        /* \"#utility.yul\":5461:5465   */\n      0x1f\n        /* \"#utility.yul\":5453:5459   */\n      dup4\n        /* \"#utility.yul\":5449:5466   */\n      add\n        /* \"#utility.yul\":5445:5472   */\n      slt\n        /* \"#utility.yul\":5435:5557   */\n      tag_211\n      jumpi\n        /* \"#utility.yul\":5476:5555   */\n      tag_212\n      tag_120\n      jump\t// in\n    tag_212:\n        /* \"#utility.yul\":5435:5557   */\n    tag_211:\n        /* \"#utility.yul\":5593:5599   */\n      dup2\n        /* \"#utility.yul\":5580:5600   */\n      calldataload\n        /* \"#utility.yul\":5618:5697   */\n      tag_213\n        /* \"#utility.yul\":5693:5696   */\n      dup5\n        /* \"#utility.yul\":5685:5691   */\n      dup3\n        /* \"#utility.yul\":5678:5682   */\n      0x20\n        /* \"#utility.yul\":5670:5676   */\n      dup7\n        /* \"#utility.yul\":5666:5683   */\n      add\n        /* \"#utility.yul\":5618:5697   */\n      tag_127\n      jump\t// in\n    tag_213:\n        /* \"#utility.yul\":5609:5697   */\n      swap2\n      pop\n        /* \"#utility.yul\":5425:5703   */\n      pop\n        /* \"#utility.yul\":5363:5703   */\n      swap3\n      swap2\n      pop\n      pop\n      jump\t// out\n        /* \"#utility.yul\":5709:6834   */\n    tag_24:\n        /* \"#utility.yul\":5815:5821   */\n      0x00\n        /* \"#utility.yul\":5823:5829   */\n      dup1\n        /* \"#utility.yul\":5831:5837   */\n      0x00\n        /* \"#utility.yul\":5839:5845   */\n      dup1\n        /* \"#utility.yul\":5888:5891   */\n      0x80\n        /* \"#utility.yul\":5876:5885   */\n      dup6\n        /* \"#utility.yul\":5867:5874   */\n      dup8\n        /* \"#utility.yul\":5863:5886   */\n      sub\n        /* \"#utility.yul\":5859:5892   */\n      slt\n        /* \"#utility.yul\":5856:5976   */\n      iszero\n      tag_215\n      jumpi\n        /* \"#utility.yul\":5895:5974   */\n      tag_216\n      tag_116\n      jump\t// in\n    tag_216:\n        /* \"#utility.yul\":5856:5976   */\n    tag_215:\n        /* \"#utility.yul\":6043:6044   */\n      0x00\n        /* \"#utility.yul\":6032:6041   */\n      dup6\n        /* \"#utility.yul\":6028:6045   */\n      add\n        /* \"#utility.yul\":6015:6046   */\n      calldataload\n        /* \"#utility.yul\":6073:6091   */\n      0xffffffffffffffff\n        /* \"#utility.yul\":6065:6071   */\n      dup2\n        /* \"#utility.yul\":6062:6092   */\n      gt\n        /* \"#utility.yul\":6059:6176   */\n      iszero\n      tag_217\n      jumpi\n        /* \"#utility.yul\":6095:6174   */\n      tag_218\n      tag_117\n      jump\t// in\n    tag_218:\n        /* \"#utility.yul\":6059:6176   */\n    tag_217:\n        /* \"#utility.yul\":6200:6263   */\n      tag_219\n        /* \"#utility.yul\":6255:6262   */\n      dup8\n        /* \"#utility.yul\":6246:6252   */\n      dup3\n        /* \"#utility.yul\":6235:6244   */\n      dup9\n        /* \"#utility.yul\":6231:6253   */\n      add\n        /* \"#utility.yul\":6200:6263   */\n      tag_128\n      jump\t// in\n    tag_219:\n        /* \"#utility.yul\":6190:6263   */\n      swap5\n      pop\n        /* \"#utility.yul\":5986:6273   */\n      pop\n        /* \"#utility.yul\":6340:6342   */\n      0x20\n        /* \"#utility.yul\":6329:6338   */\n      dup6\n        /* \"#utility.yul\":6325:6343   */\n      add\n        /* \"#utility.yul\":6312:6344   */\n      calldataload\n        /* \"#utility.yul\":6371:6389   */\n      0xffffffffffffffff\n        /* \"#utility.yul\":6363:6369   */\n      dup2\n        /* \"#utility.yul\":6360:6390   */\n      gt\n        /* \"#utility.yul\":6357:6474   */\n      iszero\n      tag_220\n      jumpi\n        /* \"#utility.yul\":6393:6472   */\n      tag_221\n      tag_117\n      jump\t// in\n    tag_221:\n        /* \"#utility.yul\":6357:6474   */\n    tag_220:\n        /* \"#utility.yul\":6498:6561   */\n      tag_222\n        /* \"#utility.yul\":6553:6560   */\n      dup8\n        /* \"#utility.yul\":6544:6550   */\n      dup3\n        /* \"#utility.yul\":6533:6542   */\n      dup9\n        /* \"#utility.yul\":6529:6551   */\n      add\n        /* \"#utility.yul\":6498:6561   */\n      tag_128\n      jump\t// in\n    tag_222:\n        /* \"#utility.yul\":6488:6561   */\n      swap4\n      pop\n        /* \"#utility.yul\":6283:6571   */\n      pop\n        /* \"#utility.yul\":6610:6612   */\n      0x40\n        /* \"#utility.yul\":6636:6689   */\n      tag_223\n        /* \"#utility.yul\":6681:6688   */\n      dup8\n        /* \"#utility.yul\":6672:6678   */\n      dup3\n        /* \"#utility.yul\":6661:6670   */\n      dup9\n        /* \"#utility.yul\":6657:6679   */\n      add\n        /* \"#utility.yul\":6636:6689   */\n      tag_119\n      jump\t// in\n    tag_223:\n        /* \"#utility.yul\":6626:6689   */\n      swap3\n      pop\n        /* \"#utility.yul\":6581:6699   */\n      pop\n        /* \"#utility.yul\":6738:6740   */\n      0x60\n        /* \"#utility.yul\":6764:6817   */\n      tag_224\n        /* \"#utility.yul\":6809:6816   */\n      dup8\n        /* \"#utility.yul\":6800:6806   */\n      dup3\n        /* \"#utility.yul\":6789:6798   */\n      dup9\n        /* \"#utility.yul\":6785:6807   */\n      add\n        /* \"#utility.yul\":6764:6817   */\n      tag_119\n      jump\t// in\n    tag_224:\n        /* \"#utility.yul\":6754:6817   */\n      swap2\n      pop\n        /* \"#utility.yul\":6709:6827   */\n      pop\n        /* \"#utility.yul\":5709:6834   */\n      swap3\n      swap6\n      swap2\n      swap5\n      pop\n      swap3\n      pop\n      jump\t// out\n        /* \"#utility.yul\":6840:6958   */\n    tag_129:\n        /* \"#utility.yul\":6927:6951   */\n      tag_226\n        /* \"#utility.yul\":6945:6950   */\n      dup2\n        /* \"#utility.yul\":6927:6951   */\n      tag_112\n      jump\t// in\n    tag_226:\n        /* \"#utility.yul\":6922:6925   */\n      dup3\n        /* \"#utility.yul\":6915:6952   */\n      mstore\n        /* \"#utility.yul\":6840:6958   */\n      pop\n      pop\n      jump\t// out\n        /* \"#utility.yul\":6964:7186   */\n    tag_29:\n        /* \"#utility.yul\":7057:7061   */\n      0x00\n        /* \"#utility.yul\":7095:7097   */\n      0x20\n        /* \"#utility.yul\":7084:7093   */\n      dup3\n        /* \"#utility.yul\":7080:7098   */\n      add\n        /* \"#utility.yul\":7072:7098   */\n      swap1\n      pop\n        /* \"#utility.yul\":7108:7179   */\n      tag_228\n        /* \"#utility.yul\":7176:7177   */\n      0x00\n        /* \"#utility.yul\":7165:7174   */\n      dup4\n        /* \"#utility.yul\":7161:7178   */\n      add\n        /* \"#utility.yul\":7152:7158   */\n      dup5\n        /* \"#utility.yul\":7108:7179   */\n      tag_129\n      jump\t// in\n    tag_228:\n        /* \"#utility.yul\":6964:7186   */\n      swap3\n      swap2\n      pop\n      pop\n      jump\t// out\n        /* \"#utility.yul\":7192:7330   */\n    tag_130:\n        /* \"#utility.yul\":7283:7289   */\n      0x00\n        /* \"#utility.yul\":7317:7322   */\n      dup2\n        /* \"#utility.yul\":7311:7323   */\n      mload\n        /* \"#utility.yul\":7301:7323   */\n      swap1\n      pop\n        /* \"#utility.yul\":7192:7330   */\n      swap2\n      swap1\n      pop\n      jump\t// out\n        /* \"#utility.yul\":7336:7544   */\n    tag_131:\n        /* \"#utility.yul\":7459:7470   */\n      0x00\n        /* \"#utility.yul\":7493:7499   */\n      dup3\n        /* \"#utility.yul\":7488:7491   */\n      dup3\n        /* \"#utility.yul\":7481:7500   */\n      mstore\n        /* \"#utility.yul\":7533:7537   */\n      0x20\n        /* \"#utility.yul\":7528:7531   */\n      dup3\n        /* \"#utility.yul\":7524:7538   */\n      add\n        /* \"#utility.yul\":7509:7538   */\n      swap1\n      pop\n        /* \"#utility.yul\":7336:7544   */\n      swap3\n      swap2\n      pop\n      pop\n      jump\t// out\n        /* \"#utility.yul\":7550:7706   */\n    tag_132:\n        /* \"#utility.yul\":7641:7645   */\n      0x00\n        /* \"#utility.yul\":7664:7667   */\n      dup2\n        /* \"#utility.yul\":7656:7667   */\n      swap1\n      pop\n        /* \"#utility.yul\":7694:7698   */\n      0x20\n        /* \"#utility.yul\":7689:7692   */\n      dup3\n        /* \"#utility.yul\":7685:7699   */\n      add\n        /* \"#utility.yul\":7677:7699   */\n      swap1\n      pop\n        /* \"#utility.yul\":7550:7706   */\n      swap2\n      swap1\n      pop\n      jump\t// out\n        /* \"#utility.yul\":7766:8787   */\n    tag_133:\n        /* \"#utility.yul\":7873:7876   */\n      0x00\n        /* \"#utility.yul\":7909:7913   */\n      0x80\n        /* \"#utility.yul\":7904:7907   */\n      dup4\n        /* \"#utility.yul\":7900:7914   */\n      add\n        /* \"#utility.yul\":7996:8000   */\n      0x00\n        /* \"#utility.yul\":7989:7994   */\n      dup4\n        /* \"#utility.yul\":7985:8001   */\n      add\n        /* \"#utility.yul\":7979:8002   */\n      mload\n        /* \"#utility.yul\":8049:8052   */\n      dup5\n        /* \"#utility.yul\":8043:8047   */\n      dup3\n        /* \"#utility.yul\":8039:8053   */\n      sub\n        /* \"#utility.yul\":8032:8036   */\n      0x00\n        /* \"#utility.yul\":8027:8030   */\n      dup7\n        /* \"#utility.yul\":8023:8037   */\n      add\n        /* \"#utility.yul\":8016:8054   */\n      mstore\n        /* \"#utility.yul\":8075:8148   */\n      tag_233\n        /* \"#utility.yul\":8143:8147   */\n      dup3\n        /* \"#utility.yul\":8129:8141   */\n      dup3\n        /* \"#utility.yul\":8075:8148   */\n      tag_111\n      jump\t// in\n    tag_233:\n        /* \"#utility.yul\":8067:8148   */\n      swap2\n      pop\n        /* \"#utility.yul\":7924:8159   */\n      pop\n        /* \"#utility.yul\":8243:8247   */\n      0x20\n        /* \"#utility.yul\":8236:8241   */\n      dup4\n        /* \"#utility.yul\":8232:8248   */\n      add\n        /* \"#utility.yul\":8226:8249   */\n      mload\n        /* \"#utility.yul\":8296:8299   */\n      dup5\n        /* \"#utility.yul\":8290:8294   */\n      dup3\n        /* \"#utility.yul\":8286:8300   */\n      sub\n        /* \"#utility.yul\":8279:8283   */\n      0x20\n        /* \"#utility.yul\":8274:8277   */\n      dup7\n        /* \"#utility.yul\":8270:8284   */\n      add\n        /* \"#utility.yul\":8263:8301   */\n      mstore\n        /* \"#utility.yul\":8322:8395   */\n      tag_234\n        /* \"#utility.yul\":8390:8394   */\n      dup3\n        /* \"#utility.yul\":8376:8388   */\n      dup3\n        /* \"#utility.yul\":8322:8395   */\n      tag_111\n      jump\t// in\n    tag_234:\n        /* \"#utility.yul\":8314:8395   */\n      swap2\n      pop\n        /* \"#utility.yul\":8169:8406   */\n      pop\n        /* \"#utility.yul\":8490:8494   */\n      0x40\n        /* \"#utility.yul\":8483:8488   */\n      dup4\n        /* \"#utility.yul\":8479:8495   */\n      add\n        /* \"#utility.yul\":8473:8496   */\n      mload\n        /* \"#utility.yul\":8509:8572   */\n      tag_235\n        /* \"#utility.yul\":8566:8570   */\n      0x40\n        /* \"#utility.yul\":8561:8564   */\n      dup7\n        /* \"#utility.yul\":8557:8571   */\n      add\n        /* \"#utility.yul\":8543:8555   */\n      dup3\n        /* \"#utility.yul\":8509:8572   */\n      tag_113\n      jump\t// in\n    tag_235:\n        /* \"#utility.yul\":8416:8582   */\n      pop\n        /* \"#utility.yul\":8668:8672   */\n      0x60\n        /* \"#utility.yul\":8661:8666   */\n      dup4\n        /* \"#utility.yul\":8657:8673   */\n      add\n        /* \"#utility.yul\":8651:8674   */\n      mload\n        /* \"#utility.yul\":8687:8750   */\n      tag_236\n        /* \"#utility.yul\":8744:8748   */\n      0x60\n        /* \"#utility.yul\":8739:8742   */\n      dup7\n        /* \"#utility.yul\":8735:8749   */\n      add\n        /* \"#utility.yul\":8721:8733   */\n      dup3\n        /* \"#utility.yul\":8687:8750   */\n      tag_113\n      jump\t// in\n    tag_236:\n        /* \"#utility.yul\":8592:8760   */\n      pop\n        /* \"#utility.yul\":8777:8781   */\n      dup1\n        /* \"#utility.yul\":8770:8781   */\n      swap2\n      pop\n        /* \"#utility.yul\":7878:8787   */\n      pop\n        /* \"#utility.yul\":7766:8787   */\n      swap3\n      swap2\n      pop\n      pop\n      jump\t// out\n        /* \"#utility.yul\":8793:9045   */\n    tag_134:\n        /* \"#utility.yul\":8910:8920   */\n      0x00\n        /* \"#utility.yul\":8945:9039   */\n      tag_238\n        /* \"#utility.yul\":9035:9038   */\n      dup4\n        /* \"#utility.yul\":9027:9033   */\n      dup4\n        /* \"#utility.yul\":8945:9039   */\n      tag_133\n      jump\t// in\n    tag_238:\n        /* \"#utility.yul\":8931:9039   */\n      swap1\n      pop\n        /* \"#utility.yul\":8793:9045   */\n      swap3\n      swap2\n      pop\n      pop\n      jump\t// out\n        /* \"#utility.yul\":9051:9188   */\n    tag_135:\n        /* \"#utility.yul\":9145:9149   */\n      0x00\n        /* \"#utility.yul\":9177:9181   */\n      0x20\n        /* \"#utility.yul\":9172:9175   */\n      dup3\n        /* \"#utility.yul\":9168:9182   */\n      add\n        /* \"#utility.yul\":9160:9182   */\n      swap1\n      pop\n        /* \"#utility.yul\":9051:9188   */\n      swap2\n      swap1\n      pop\n      jump\t// out\n        /* \"#utility.yul\":9252:10355   */\n    tag_136:\n        /* \"#utility.yul\":9419:9422   */\n      0x00\n        /* \"#utility.yul\":9448:9526   */\n      tag_241\n        /* \"#utility.yul\":9520:9525   */\n      dup3\n        /* \"#utility.yul\":9448:9526   */\n      tag_130\n      jump\t// in\n    tag_241:\n        /* \"#utility.yul\":9542:9652   */\n      tag_242\n        /* \"#utility.yul\":9645:9651   */\n      dup2\n        /* \"#utility.yul\":9640:9643   */\n      dup6\n        /* \"#utility.yul\":9542:9652   */\n      tag_131\n      jump\t// in\n    tag_242:\n        /* \"#utility.yul\":9535:9652   */\n      swap4\n      pop\n        /* \"#utility.yul\":9678:9681   */\n      dup4\n        /* \"#utility.yul\":9723:9727   */\n      0x20\n        /* \"#utility.yul\":9715:9721   */\n      dup3\n        /* \"#utility.yul\":9711:9728   */\n      mul\n        /* \"#utility.yul\":9706:9709   */\n      dup6\n        /* \"#utility.yul\":9702:9729   */\n      add\n        /* \"#utility.yul\":9753:9833   */\n      tag_243\n        /* \"#utility.yul\":9827:9832   */\n      dup6\n        /* \"#utility.yul\":9753:9833   */\n      tag_132\n      jump\t// in\n    tag_243:\n        /* \"#utility.yul\":9856:9863   */\n      dup1\n        /* \"#utility.yul\":9887:9888   */\n      0x00\n        /* \"#utility.yul\":9872:10310   */\n    tag_244:\n        /* \"#utility.yul\":9897:9903   */\n      dup6\n        /* \"#utility.yul\":9894:9895   */\n      dup2\n        /* \"#utility.yul\":9891:9904   */\n      lt\n        /* \"#utility.yul\":9872:10310   */\n      iszero\n      tag_246\n      jumpi\n        /* \"#utility.yul\":9968:9977   */\n      dup5\n        /* \"#utility.yul\":9962:9966   */\n      dup5\n        /* \"#utility.yul\":9958:9978   */\n      sub\n        /* \"#utility.yul\":9953:9956   */\n      dup10\n        /* \"#utility.yul\":9946:9979   */\n      mstore\n        /* \"#utility.yul\":10019:10025   */\n      dup2\n        /* \"#utility.yul\":10013:10026   */\n      mload\n        /* \"#utility.yul\":10047:10159   */\n      tag_247\n        /* \"#utility.yul\":10154:10158   */\n      dup6\n        /* \"#utility.yul\":10139:10152   */\n      dup3\n        /* \"#utility.yul\":10047:10159   */\n      tag_134\n      jump\t// in\n    tag_247:\n        /* \"#utility.yul\":10039:10159   */\n      swap5\n      pop\n        /* \"#utility.yul\":10182:10266   */\n      tag_248\n        /* \"#utility.yul\":10259:10265   */\n      dup4\n        /* \"#utility.yul\":10182:10266   */\n      tag_135\n      jump\t// in\n    tag_248:\n        /* \"#utility.yul\":10172:10266   */\n      swap3\n      pop\n        /* \"#utility.yul\":10295:10299   */\n      0x20\n        /* \"#utility.yul\":10290:10293   */\n      dup11\n        /* \"#utility.yul\":10286:10300   */\n      add\n        /* \"#utility.yul\":10279:10300   */\n      swap10\n      pop\n        /* \"#utility.yul\":9932:10310   */\n      pop\n        /* \"#utility.yul\":9919:9920   */\n      0x01\n        /* \"#utility.yul\":9916:9917   */\n      dup2\n        /* \"#utility.yul\":9912:9921   */\n      add\n        /* \"#utility.yul\":9907:9921   */\n      swap1\n      pop\n        /* \"#utility.yul\":9872:10310   */\n      jump(tag_244)\n    tag_246:\n        /* \"#utility.yul\":9876:9890   */\n      pop\n        /* \"#utility.yul\":10326:10330   */\n      dup3\n        /* \"#utility.yul\":10319:10330   */\n      swap8\n      pop\n        /* \"#utility.yul\":10346:10349   */\n      dup8\n        /* \"#utility.yul\":10339:10349   */\n      swap6\n      pop\n        /* \"#utility.yul\":9424:10355   */\n      pop\n      pop\n      pop\n      pop\n      pop\n        /* \"#utility.yul\":9252:10355   */\n      swap3\n      swap2\n      pop\n      pop\n      jump\t// out\n        /* \"#utility.yul\":10361:10830   */\n    tag_36:\n        /* \"#utility.yul\":10552:10556   */\n      0x00\n        /* \"#utility.yul\":10590:10592   */\n      0x20\n        /* \"#utility.yul\":10579:10588   */\n      dup3\n        /* \"#utility.yul\":10575:10593   */\n      add\n        /* \"#utility.yul\":10567:10593   */\n      swap1\n      pop\n        /* \"#utility.yul\":10639:10648   */\n      dup2\n        /* \"#utility.yul\":10633:10637   */\n      dup2\n        /* \"#utility.yul\":10629:10649   */\n      sub\n        /* \"#utility.yul\":10625:10626   */\n      0x00\n        /* \"#utility.yul\":10614:10623   */\n      dup4\n        /* \"#utility.yul\":10610:10627   */\n      add\n        /* \"#utility.yul\":10603:10650   */\n      mstore\n        /* \"#utility.yul\":10667:10823   */\n      tag_250\n        /* \"#utility.yul\":10818:10822   */\n      dup2\n        /* \"#utility.yul\":10809:10815   */\n      dup5\n        /* \"#utility.yul\":10667:10823   */\n      tag_136\n      jump\t// in\n    tag_250:\n        /* \"#utility.yul\":10659:10823   */\n      swap1\n      pop\n        /* \"#utility.yul\":10361:10830   */\n      swap3\n      swap2\n      pop\n      pop\n      jump\t// out\n        /* \"#utility.yul\":10836:11016   */\n    tag_137:\n        /* \"#utility.yul\":10884:10961   */\n      0x4e487b7100000000000000000000000000000000000000000000000000000000\n        /* \"#utility.yul\":10881:10882   */\n      0x00\n        /* \"#utility.yul\":10874:10962   */\n      mstore\n        /* \"#utility.yul\":10981:10985   */\n      0x22\n        /* \"#utility.yul\":10978:10979   */\n      0x04\n        /* \"#utility.yul\":10971:10986   */\n      mstore\n        /* \"#utility.yul\":11005:11009   */\n      0x24\n        /* \"#utility.yul\":11002:11003   */\n      0x00\n        /* \"#utility.yul\":10995:11010   */\n      revert\n        /* \"#utility.yul\":11022:11342   */\n    tag_41:\n        /* \"#utility.yul\":11066:11072   */\n      0x00\n        /* \"#utility.yul\":11103:11104   */\n      0x02\n        /* \"#utility.yul\":11097:11101   */\n      dup3\n        /* \"#utility.yul\":11093:11105   */\n      div\n        /* \"#utility.yul\":11083:11105   */\n      swap1\n      pop\n        /* \"#utility.yul\":11150:11151   */\n      0x01\n        /* \"#utility.yul\":11144:11148   */\n      dup3\n        /* \"#utility.yul\":11140:11152   */\n      and\n        /* \"#utility.yul\":11171:11189   */\n      dup1\n        /* \"#utility.yul\":11161:11242   */\n      tag_253\n      jumpi\n        /* \"#utility.yul\":11227:11231   */\n      0x7f\n        /* \"#utility.yul\":11219:11225   */\n      dup3\n        /* \"#utility.yul\":11215:11232   */\n      and\n        /* \"#utility.yul\":11205:11232   */\n      swap2\n      pop\n        /* \"#utility.yul\":11161:11242   */\n    tag_253:\n        /* \"#utility.yul\":11289:11291   */\n      0x20\n        /* \"#utility.yul\":11281:11287   */\n      dup3\n        /* \"#utility.yul\":11278:11292   */\n      lt\n        /* \"#utility.yul\":11258:11276   */\n      dup2\n        /* \"#utility.yul\":11255:11293   */\n      sub\n        /* \"#utility.yul\":11252:11336   */\n      tag_254\n      jumpi\n        /* \"#utility.yul\":11308:11326   */\n      tag_255\n      tag_137\n      jump\t// in\n    tag_255:\n        /* \"#utility.yul\":11252:11336   */\n    tag_254:\n        /* \"#utility.yul\":11073:11342   */\n      pop\n        /* \"#utility.yul\":11022:11342   */\n      swap2\n      swap1\n      pop\n      jump\t// out\n        /* \"#utility.yul\":11348:11528   */\n    tag_54:\n        /* \"#utility.yul\":11396:11473   */\n      0x4e487b7100000000000000000000000000000000000000000000000000000000\n        /* \"#utility.yul\":11393:11394   */\n      0x00\n        /* \"#utility.yul\":11386:11474   */\n      mstore\n        /* \"#utility.yul\":11493:11497   */\n      0x31\n        /* \"#utility.yul\":11490:11491   */\n      0x04\n        /* \"#utility.yul\":11483:11498   */\n      mstore\n        /* \"#utility.yul\":11517:11521   */\n      0x24\n        /* \"#utility.yul\":11514:11515   */\n      0x00\n        /* \"#utility.yul\":11507:11522   */\n      revert\n        /* \"#utility.yul\":11534:11714   */\n    tag_138:\n        /* \"#utility.yul\":11582:11659   */\n      0x4e487b7100000000000000000000000000000000000000000000000000000000\n        /* \"#utility.yul\":11579:11580   */\n      0x00\n        /* \"#utility.yul\":11572:11660   */\n      mstore\n        /* \"#utility.yul\":11679:11683   */\n      0x11\n        /* \"#utility.yul\":11676:11677   */\n      0x04\n        /* \"#utility.yul\":11669:11684   */\n      mstore\n        /* \"#utility.yul\":11703:11707   */\n      0x24\n        /* \"#utility.yul\":11700:11701   */\n      0x00\n        /* \"#utility.yul\":11693:11708   */\n      revert\n        /* \"#utility.yul\":11720:11914   */\n    tag_62:\n        /* \"#utility.yul\":11760:11764   */\n      0x00\n        /* \"#utility.yul\":11780:11800   */\n      tag_259\n        /* \"#utility.yul\":11798:11799   */\n      dup3\n        /* \"#utility.yul\":11780:11800   */\n      tag_112\n      jump\t// in\n    tag_259:\n        /* \"#utility.yul\":11775:11800   */\n      swap2\n      pop\n        /* \"#utility.yul\":11814:11834   */\n      tag_260\n        /* \"#utility.yul\":11832:11833   */\n      dup4\n        /* \"#utility.yul\":11814:11834   */\n      tag_112\n      jump\t// in\n    tag_260:\n        /* \"#utility.yul\":11809:11834   */\n      swap3\n      pop\n        /* \"#utility.yul\":11858:11859   */\n      dup3\n        /* \"#utility.yul\":11855:11856   */\n      dup3\n        /* \"#utility.yul\":11851:11860   */\n      sub\n        /* \"#utility.yul\":11843:11860   */\n      swap1\n      pop\n        /* \"#utility.yul\":11882:11883   */\n      dup2\n        /* \"#utility.yul\":11876:11880   */\n      dup2\n        /* \"#utility.yul\":11873:11884   */\n      gt\n        /* \"#utility.yul\":11870:11907   */\n      iszero\n      tag_261\n      jumpi\n        /* \"#utility.yul\":11887:11905   */\n      tag_262\n      tag_138\n      jump\t// in\n    tag_262:\n        /* \"#utility.yul\":11870:11907   */\n    tag_261:\n        /* \"#utility.yul\":11720:11914   */\n      swap3\n      swap2\n      pop\n      pop\n      jump\t// out\n        /* \"#utility.yul\":11920:12100   */\n    tag_65:\n        /* \"#utility.yul\":11968:12045   */\n      0x4e487b7100000000000000000000000000000000000000000000000000000000\n        /* \"#utility.yul\":11965:11966   */\n      0x00\n        /* \"#utility.yul\":11958:12046   */\n      mstore\n        /* \"#utility.yul\":12065:12069   */\n      0x32\n        /* \"#utility.yul\":12062:12063   */\n      0x04\n        /* \"#utility.yul\":12055:12070   */\n      mstore\n        /* \"#utility.yul\":12089:12093   */\n      0x24\n        /* \"#utility.yul\":12086:12087   */\n      0x00\n        /* \"#utility.yul\":12079:12094   */\n      revert\n        /* \"#utility.yul\":12106:12247   */\n    tag_139:\n        /* \"#utility.yul\":12155:12159   */\n      0x00\n        /* \"#utility.yul\":12178:12181   */\n      dup2\n        /* \"#utility.yul\":12170:12181   */\n      swap1\n      pop\n        /* \"#utility.yul\":12201:12204   */\n      dup2\n        /* \"#utility.yul\":12198:12199   */\n      0x00\n        /* \"#utility.yul\":12191:12205   */\n      mstore\n        /* \"#utility.yul\":12235:12239   */\n      0x20\n        /* \"#utility.yul\":12232:12233   */\n      0x00\n        /* \"#utility.yul\":12222:12240   */\n      keccak256\n        /* \"#utility.yul\":12214:12240   */\n      swap1\n      pop\n        /* \"#utility.yul\":12106:12247   */\n      swap2\n      swap1\n      pop\n      jump\t// out\n        /* \"#utility.yul\":12253:12346   */\n    tag_140:\n        /* \"#utility.yul\":12290:12296   */\n      0x00\n        /* \"#utility.yul\":12337:12339   */\n      0x20\n        /* \"#utility.yul\":12332:12334   */\n      0x1f\n        /* \"#utility.yul\":12325:12330   */\n      dup4\n        /* \"#utility.yul\":12321:12335   */\n      add\n        /* \"#utility.yul\":12317:12340   */\n      div\n        /* \"#utility.yul\":12307:12340   */\n      swap1\n      pop\n        /* \"#utility.yul\":12253:12346   */\n      swap2\n      swap1\n      pop\n      jump\t// out\n        /* \"#utility.yul\":12352:12459   */\n    tag_141:\n        /* \"#utility.yul\":12396:12404   */\n      0x00\n        /* \"#utility.yul\":12446:12451   */\n      dup3\n        /* \"#utility.yul\":12440:12444   */\n      dup3\n        /* \"#utility.yul\":12436:12452   */\n      shl\n        /* \"#utility.yul\":12415:12452   */\n      swap1\n      pop\n        /* \"#utility.yul\":12352:12459   */\n      swap3\n      swap2\n      pop\n      pop\n      jump\t// out\n        /* \"#utility.yul\":12465:12858   */\n    tag_142:\n        /* \"#utility.yul\":12534:12540   */\n      0x00\n        /* \"#utility.yul\":12584:12585   */\n      0x08\n        /* \"#utility.yul\":12572:12582   */\n      dup4\n        /* \"#utility.yul\":12568:12586   */\n      mul\n        /* \"#utility.yul\":12607:12704   */\n      tag_268\n        /* \"#utility.yul\":12637:12703   */\n      0xffffffffffffffffffffffffffffffffffffffffffffffffffffffffffffffff\n        /* \"#utility.yul\":12626:12635   */\n      dup3\n        /* \"#utility.yul\":12607:12704   */\n      tag_141\n      jump\t// in\n    tag_268:\n        /* \"#utility.yul\":12725:12764   */\n      tag_269\n        /* \"#utility.yul\":12755:12763   */\n      dup7\n        /* \"#utility.yul\":12744:12753   */\n      dup4\n        /* \"#utility.yul\":12725:12764   */\n      tag_141\n      jump\t// in\n    tag_269:\n        /* \"#utility.yul\":12713:12764   */\n      swap6\n      pop\n        /* \"#utility.yul\":12797:12801   */\n      dup1\n        /* \"#utility.yul\":12793:12802   */\n      not\n        /* \"#utility.yul\":12786:12791   */\n      dup5\n        /* \"#utility.yul\":12782:12803   */\n      and\n        /* \"#utility.yul\":12773:12803   */\n      swap4\n      pop\n        /* \"#utility.yul\":12846:12850   */\n      dup1\n        /* \"#utility.yul\":12836:12844   */\n      dup7\n        /* \"#utility.yul\":12832:12851   */\n      and\n        /* \"#utility.yul\":12825:12830   */\n      dup5\n        /* \"#utility.yul\":12822:12852   */\n      or\n        /* \"#utility.yul\":12812:12852   */\n      swap3\n      pop\n        /* \"#utility.yul\":12541:12858   */\n      pop\n      pop\n        /* \"#utility.yul\":12465:12858   */\n      swap4\n      swap3\n      pop\n      pop\n      pop\n      jump\t// out\n        /* \"#utility.yul\":12864:12924   */\n    tag_143:\n        /* \"#utility.yul\":12892:12895   */\n      0x00\n        /* \"#utility.yul\":12913:12918   */\n      dup2\n        /* \"#utility.yul\":12906:12918   */\n      swap1\n      pop\n        /* \"#utility.yul\":12864:12924   */\n      swap2\n      swap1\n      pop\n      jump\t// out\n        /* \"#utility.yul\":12930:13072   */\n    tag_144:\n        /* \"#utility.yul\":12980:12989   */\n      0x00\n        /* \"#utility.yul\":13013:13066   */\n      tag_272\n        /* \"#utility.yul\":13031:13065   */\n      tag_273\n        /* \"#utility.yul\":13040:13064   */\n      tag_274\n        /* \"#utility.yul\":13058:13063   */\n      dup5\n        /* \"#utility.yul\":13040:13064   */\n      tag_112\n      jump\t// in\n    tag_274:\n        /* \"#utility.yul\":13031:13065   */\n      tag_143\n      jump\t// in\n    tag_273:\n        /* \"#utility.yul\":13013:13066   */\n      tag_112\n      jump\t// in\n    tag_272:\n        /* \"#utility.yul\":13000:13066   */\n      swap1\n      pop\n        /* \"#utility.yul\":12930:13072   */\n      swap2\n      swap1\n      pop\n      jump\t// out\n        /* \"#utility.yul\":13078:13153   */\n    tag_145:\n        /* \"#utility.yul\":13121:13124   */\n      0x00\n        /* \"#utility.yul\":13142:13147   */\n      dup2\n        /* \"#utility.yul\":13135:13147   */\n      swap1\n      pop\n        /* \"#utility.yul\":13078:13153   */\n      swap2\n      swap1\n      pop\n      jump\t// out\n        /* \"#utility.yul\":13159:13428   */\n    tag_146:\n        /* \"#utility.yul\":13269:13308   */\n      tag_277\n        /* \"#utility.yul\":13300:13307   */\n      dup4\n        /* \"#utility.yul\":13269:13308   */\n      tag_144\n      jump\t// in\n    tag_277:\n        /* \"#utility.yul\":13330:13421   */\n      tag_278\n        /* \"#utility.yul\":13379:13420   */\n      tag_279\n        /* \"#utility.yul\":13403:13419   */\n      dup3\n        /* \"#utility.yul\":13379:13420   */\n      tag_145\n      jump\t// in\n    tag_279:\n        /* \"#utility.yul\":13371:13377   */\n      dup5\n        /* \"#utility.yul\":13364:13368   */\n      dup5\n        /* \"#utility.yul\":13358:13369   */\n      sload\n        /* \"#utility.yul\":13330:13421   */\n      tag_142\n      jump\t// in\n    tag_278:\n        /* \"#utility.yul\":13324:13328   */\n      dup3\n        /* \"#utility.yul\":13317:13422   */\n      sstore\n        /* \"#utility.yul\":13235:13428   */\n      pop\n        /* \"#utility.yul\":13159:13428   */\n      pop\n      pop\n      pop\n      jump\t// out\n        /* \"#utility.yul\":13434:13507   */\n    tag_147:\n        /* \"#utility.yul\":13479:13482   */\n      0x00\n        /* \"#utility.yul\":13434:13507   */\n      swap1\n      jump\t// out\n        /* \"#utility.yul\":13513:13702   */\n    tag_148:\n        /* \"#utility.yul\":13590:13622   */\n      tag_282\n      tag_147\n      jump\t// in\n    tag_282:\n        /* \"#utility.yul\":13631:13696   */\n      tag_283\n        /* \"#utility.yul\":13689:13695   */\n      dup2\n        /* \"#utility.yul\":13681:13687   */\n      dup5\n        /* \"#utility.yul\":13675:13679   */\n      dup5\n        /* \"#utility.yul\":13631:13696   */\n      tag_146\n      jump\t// in\n    tag_283:\n        /* \"#utility.yul\":13566:13702   */\n      pop\n        /* \"#utility.yul\":13513:13702   */\n      pop\n      pop\n      jump\t// out\n        /* \"#utility.yul\":13708:13894   */\n    tag_149:\n        /* \"#utility.yul\":13768:13888   */\n    tag_285:\n        /* \"#utility.yul\":13785:13788   */\n      dup2\n        /* \"#utility.yul\":13778:13783   */\n      dup2\n        /* \"#utility.yul\":13775:13789   */\n      lt\n        /* \"#utility.yul\":13768:13888   */\n      iszero\n      tag_287\n      jumpi\n        /* \"#utility.yul\":13839:13878   */\n      tag_288\n        /* \"#utility.yul\":13876:13877   */\n      0x00\n        /* \"#utility.yul\":13869:13874   */\n      dup3\n        /* \"#utility.yul\":13839:13878   */\n      tag_148\n      jump\t// in\n    tag_288:\n        /* \"#utility.yul\":13812:13813   */\n      0x01\n        /* \"#utility.yul\":13805:13810   */\n      dup2\n        /* \"#utility.yul\":13801:13814   */\n      add\n        /* \"#utility.yul\":13792:13814   */\n      swap1\n      pop\n        /* \"#utility.yul\":13768:13888   */\n      jump(tag_285)\n    tag_287:\n        /* \"#utility.yul\":13708:13894   */\n      pop\n      pop\n      jump\t// out\n        /* \"#utility.yul\":13900:14443   */\n    tag_150:\n        /* \"#utility.yul\":14001:14003   */\n      0x1f\n        /* \"#utility.yul\":13996:13999   */\n      dup3\n        /* \"#utility.yul\":13993:14004   */\n      gt\n        /* \"#utility.yul\":13990:14436   */\n      iszero\n      tag_290\n      jumpi\n        /* \"#utility.yul\":14035:14073   */\n      tag_291\n        /* \"#utility.yul\":14067:14072   */\n      dup2\n        /* \"#utility.yul\":14035:14073   */\n      tag_139\n      jump\t// in\n    tag_291:\n        /* \"#utility.yul\":14119:14148   */\n      tag_292\n        /* \"#utility.yul\":14137:14147   */\n      dup5\n        /* \"#utility.yul\":14119:14148   */\n      tag_140\n      jump\t// in\n    tag_292:\n        /* \"#utility.yul\":14109:14117   */\n      dup2\n        /* \"#utility.yul\":14105:14149   */\n      add\n        /* \"#utility.yul\":14302:14304   */\n      0x20\n        /* \"#utility.yul\":14290:14300   */\n      dup6\n        /* \"#utility.yul\":14287:14305   */\n      lt\n        /* \"#utility.yul\":14284:14333   */\n      iszero\n      tag_293\n      jumpi\n        /* \"#utility.yul\":14323:14331   */\n      dup2\n        /* \"#utility.yul\":14308:14331   */\n      swap1\n      pop\n        /* \"#utility.yul\":14284:14333   */\n    tag_293:\n        /* \"#utility.yul\":14346:14426   */\n      tag_294\n        /* \"#utility.yul\":14402:14424   */\n      tag_295\n        /* \"#utility.yul\":14420:14423   */\n      dup6\n        /* \"#utility.yul\":14402:14424   */\n      tag_140\n      jump\t// in\n    tag_295:\n        /* \"#utility.yul\":14392:14400   */\n      dup4\n        /* \"#utility.yul\":14388:14425   */\n      add\n        /* \"#utility.yul\":14375:14386   */\n      dup3\n        /* \"#utility.yul\":14346:14426   */\n      tag_149\n      jump\t// in\n    tag_294:\n        /* \"#utility.yul\":14005:14436   */\n      pop\n      pop\n        /* \"#utility.yul\":13990:14436   */\n    tag_290:\n        /* \"#utility.yul\":13900:14443   */\n      pop\n      pop\n      pop\n      jump\t// out\n        /* \"#utility.yul\":14449:14566   */\n    tag_151:\n        /* \"#utility.yul\":14503:14511   */\n      0x00\n        /* \"#utility.yul\":14553:14558   */\n      dup3\n        /* \"#utility.yul\":14547:14551   */\n      dup3\n        /* \"#utility.yul\":14543:14559   */\n      shr\n        /* \"#utility.yul\":14522:14559   */\n      swap1\n      pop\n        /* \"#utility.yul\":14449:14566   */\n      swap3\n      swap2\n      pop\n      pop\n      jump\t// out\n        /* \"#utility.yul\":14572:14741   */\n    tag_152:\n        /* \"#utility.yul\":14616:14622   */\n      0x00\n        /* \"#utility.yul\":14649:14700   */\n      tag_298\n        /* \"#utility.yul\":14697:14698   */\n      0x00\n        /* \"#utility.yul\":14693:14699   */\n      not\n        /* \"#utility.yul\":14685:14690   */\n      dup5\n        /* \"#utility.yul\":14682:14683   */\n      0x08\n        /* \"#utility.yul\":14678:14691   */\n      mul\n        /* \"#utility.yul\":14649:14700   */\n      tag_151\n      jump\t// in\n    tag_298:\n        /* \"#utility.yul\":14645:14701   */\n      not\n        /* \"#utility.yul\":14730:14734   */\n      dup1\n        /* \"#utility.yul\":14724:14728   */\n      dup4\n        /* \"#utility.yul\":14720:14735   */\n      and\n        /* \"#utility.yul\":14710:14735   */\n      swap2\n      pop\n        /* \"#utility.yul\":14623:14741   */\n      pop\n        /* \"#utility.yul\":14572:14741   */\n      swap3\n      swap2\n      pop\n      pop\n      jump\t// out\n        /* \"#utility.yul\":14746:15041   */\n    tag_153:\n        /* \"#utility.yul\":14822:14826   */\n      0x00\n        /* \"#utility.yul\":14968:14997   */\n      tag_300\n        /* \"#utility.yul\":14993:14996   */\n      dup4\n        /* \"#utility.yul\":14987:14991   */\n      dup4\n        /* \"#utility.yul\":14968:14997   */\n      tag_152\n      jump\t// in\n    tag_300:\n        /* \"#utility.yul\":14960:14997   */\n      swap2\n      pop\n        /* \"#utility.yul\":15030:15033   */\n      dup3\n        /* \"#utility.yul\":15027:15028   */\n      0x02\n        /* \"#utility.yul\":15023:15034   */\n      mul\n        /* \"#utility.yul\":15017:15021   */\n      dup3\n        /* \"#utility.yul\":15014:15035   */\n      or\n        /* \"#utility.yul\":15006:15035   */\n      swap1\n      pop\n        /* \"#utility.yul\":14746:15041   */\n      swap3\n      swap2\n      pop\n      pop\n      jump\t// out\n        /* \"#utility.yul\":15046:16441   */\n    tag_79:\n        /* \"#utility.yul\":15163:15200   */\n      tag_302\n        /* \"#utility.yul\":15196:15199   */\n      dup3\n        /* \"#utility.yul\":15163:15200   */\n      tag_107\n      jump\t// in\n    tag_302:\n        /* \"#utility.yul\":15265:15283   */\n      0xffffffffffffffff\n        /* \"#utility.yul\":15257:15263   */\n      dup2\n        /* \"#utility.yul\":15254:15284   */\n      gt\n        /* \"#utility.yul\":15251:15307   */\n      iszero\n      tag_303\n      jumpi\n        /* \"#utility.yul\":15287:15305   */\n      tag_304\n      tag_122\n      jump\t// in\n    tag_304:\n        /* \"#utility.yul\":15251:15307   */\n    tag_303:\n        /* \"#utility.yul\":15331:15369   */\n      tag_305\n        /* \"#utility.yul\":15363:15367   */\n      dup3\n        /* \"#utility.yul\":15357:15368   */\n      sload\n        /* \"#utility.yul\":15331:15369   */\n      tag_41\n      jump\t// in\n    tag_305:\n        /* \"#utility.yul\":15416:15483   */\n      tag_306\n        /* \"#utility.yul\":15476:15482   */\n      dup3\n        /* \"#utility.yul\":15468:15474   */\n      dup3\n        /* \"#utility.yul\":15462:15466   */\n      dup6\n        /* \"#utility.yul\":15416:15483   */\n      tag_150\n      jump\t// in\n    tag_306:\n        /* \"#utility.yul\":15510:15511   */\n      0x00\n        /* \"#utility.yul\":15534:15538   */\n      0x20\n        /* \"#utility.yul\":15521:15538   */\n      swap1\n      pop\n        /* \"#utility.yul\":15566:15568   */\n      0x1f\n        /* \"#utility.yul\":15558:15564   */\n      dup4\n        /* \"#utility.yul\":15555:15569   */\n      gt\n        /* \"#utility.yul\":15583:15584   */\n      0x01\n        /* \"#utility.yul\":15578:16196   */\n      dup2\n      eq\n      tag_308\n      jumpi\n        /* \"#utility.yul\":16240:16241   */\n      0x00\n        /* \"#utility.yul\":16257:16263   */\n      dup5\n        /* \"#utility.yul\":16254:16331   */\n      iszero\n      tag_309\n      jumpi\n        /* \"#utility.yul\":16306:16315   */\n      dup3\n        /* \"#utility.yul\":16301:16304   */\n      dup8\n        /* \"#utility.yul\":16297:16316   */\n      add\n        /* \"#utility.yul\":16291:16317   */\n      mload\n        /* \"#utility.yul\":16282:16317   */\n      swap1\n      pop\n        /* \"#utility.yul\":16254:16331   */\n    tag_309:\n        /* \"#utility.yul\":16357:16424   */\n      tag_310\n        /* \"#utility.yul\":16417:16423   */\n      dup6\n        /* \"#utility.yul\":16410:16415   */\n      dup3\n        /* \"#utility.yul\":16357:16424   */\n      tag_153\n      jump\t// in\n    tag_310:\n        /* \"#utility.yul\":16351:16355   */\n      dup7\n        /* \"#utility.yul\":16344:16425   */\n      sstore\n        /* \"#utility.yul\":16213:16435   */\n      pop\n        /* \"#utility.yul\":15548:16435   */\n      jump(tag_307)\n        /* \"#utility.yul\":15578:16196   */\n    tag_308:\n        /* \"#utility.yul\":15630:15634   */\n      0x1f\n        /* \"#utility.yul\":15626:15635   */\n      not\n        /* \"#utility.yul\":15618:15624   */\n      dup5\n        /* \"#utility.yul\":15614:15636   */\n      and\n        /* \"#utility.yul\":15664:15701   */\n      tag_311\n        /* \"#utility.yul\":15696:15700   */\n      dup7\n        /* \"#utility.yul\":15664:15701   */\n      tag_139\n      jump\t// in\n    tag_311:\n        /* \"#utility.yul\":15723:15724   */\n      0x00\n        /* \"#utility.yul\":15737:15945   */\n    tag_312:\n        /* \"#utility.yul\":15751:15758   */\n      dup3\n        /* \"#utility.yul\":15748:15749   */\n      dup2\n        /* \"#utility.yul\":15745:15759   */\n      lt\n        /* \"#utility.yul\":15737:15945   */\n      iszero\n      tag_314\n      jumpi\n        /* \"#utility.yul\":15830:15839   */\n      dup5\n        /* \"#utility.yul\":15825:15828   */\n      dup10\n        /* \"#utility.yul\":15821:15840   */\n      add\n        /* \"#utility.yul\":15815:15841   */\n      mload\n        /* \"#utility.yul\":15807:15813   */\n      dup3\n        /* \"#utility.yul\":15800:15842   */\n      sstore\n        /* \"#utility.yul\":15881:15882   */\n      0x01\n        /* \"#utility.yul\":15873:15879   */\n      dup3\n        /* \"#utility.yul\":15869:15883   */\n      add\n        /* \"#utility.yul\":15859:15883   */\n      swap2\n      pop\n        /* \"#utility.yul\":15928:15930   */\n      0x20\n        /* \"#utility.yul\":15917:15926   */\n      dup6\n        /* \"#utility.yul\":15913:15931   */\n      add\n        /* \"#utility.yul\":15900:15931   */\n      swap5\n      pop\n        /* \"#utility.yul\":15774:15778   */\n      0x20\n        /* \"#utility.yul\":15771:15772   */\n      dup2\n        /* \"#utility.yul\":15767:15779   */\n      add\n        /* \"#utility.yul\":15762:15779   */\n      swap1\n      pop\n        /* \"#utility.yul\":15737:15945   */\n      jump(tag_312)\n    tag_314:\n        /* \"#utility.yul\":15973:15979   */\n      dup7\n        /* \"#utility.yul\":15964:15971   */\n      dup4\n        /* \"#utility.yul\":15961:15980   */\n      lt\n        /* \"#utility.yul\":15958:16137   */\n      iszero\n      tag_315\n      jumpi\n        /* \"#utility.yul\":16031:16040   */\n      dup5\n        /* \"#utility.yul\":16026:16029   */\n      dup10\n        /* \"#utility.yul\":16022:16041   */\n      add\n        /* \"#utility.yul\":16016:16042   */\n      mload\n        /* \"#utility.yul\":16074:16122   */\n      tag_316\n        /* \"#utility.yul\":16116:16120   */\n      0x1f\n        /* \"#utility.yul\":16108:16114   */\n      dup10\n        /* \"#utility.yul\":16104:16121   */\n      and\n        /* \"#utility.yul\":16093:16102   */\n      dup3\n        /* \"#utility.yul\":16074:16122   */\n      tag_152\n      jump\t// in\n    tag_316:\n        /* \"#utility.yul\":16066:16072   */\n      dup4\n        /* \"#utility.yul\":16059:16123   */\n      sstore\n        /* \"#utility.yul\":15981:16137   */\n      pop\n        /* \"#utility.yul\":15958:16137   */\n    tag_315:\n        /* \"#utility.yul\":16183:16184   */\n      0x01\n        /* \"#utility.yul\":16179:16180   */\n      0x02\n        /* \"#utility.yul\":16171:16177   */\n      dup9\n        /* \"#utility.yul\":16167:16181   */\n      mul\n        /* \"#utility.yul\":16163:16185   */\n      add\n        /* \"#utility.yul\":16157:16161   */\n      dup9\n        /* \"#utility.yul\":16150:16186   */\n      sstore\n        /* \"#utility.yul\":15585:16196   */\n      pop\n      pop\n      pop\n        /* \"#utility.yul\":15548:16435   */\n    tag_307:\n      pop\n        /* \"#utility.yul\":15138:16441   */\n      pop\n      pop\n      pop\n        /* \"#utility.yul\":15046:16441   */\n      pop\n      pop\n      jump\t// out\n\n    auxdata: 0xa264697066735822122007e7eb192985e69bea8469eac090a2098ce15a4d75837666306f8ee8f2bb12ce64736f6c63430008120033\n}\n",
				"bytecode": {
					"linkReferences": {},
					"object": "608060405234801561001057600080fd5b50611068806100206000396000f3fe608060405234801561001057600080fd5b506004361061007d5760003560e01c8063a259aeae1161005b578063a259aeae146100da578063be1c766b146100f6578063ca5d45f714610114578063f1d064b3146101305761007d565b8063025d478c1461008257806341571887146100a0578063642f9163146100aa575b600080fd5b61008a61014e565b60405161009791906108b8565b60405180910390f35b6100a86102a0565b005b6100c460048036038101906100bf919061091a565b6102fd565b6040516100d191906108b8565b60405180910390f35b6100f460048036038101906100ef9190610a7c565b61047d565b005b6100fe6104e8565b60405161010b9190610b2a565b60405180910390f35b61012e60048036038101906101299190610a7c565b6104f5565b005b610138610589565b6040516101459190610c71565b60405180910390f35b610156610720565b600060405180608001604052908160008201805461017390610cc2565b80601f016020809104026020016040519081016040528092919081815260200182805461019f90610cc2565b80156101ec5780601f106101c1576101008083540402835291602001916101ec565b820191906000526020600020905b8154815290600101906020018083116101cf57829003601f168201915b5050505050815260200160018201805461020590610cc2565b80601f016020809104026020016040519081016040528092919081815260200182805461023190610cc2565b801561027e5780601f106102535761010080835404028352916020019161027e565b820191906000526020600020905b81548152906001019060200180831161026157829003601f168201915b5050505050815260200160028201548152602001600382015481525050905090565b60048054806102b2576102b1610cf3565b5b6001900381819060005260206000209060040201600080820160006102d79190610748565b6001820160006102e79190610748565b6002820160009055600382016000905550509055565b610305610720565b60046001836103149190610d51565b8154811061032557610324610d85565b5b906000526020600020906004020160405180608001604052908160008201805461034e90610cc2565b80601f016020809104026020016040519081016040528092919081815260200182805461037a90610cc2565b80156103c75780601f1061039c576101008083540402835291602001916103c7565b820191906000526020600020905b8154815290600101906020018083116103aa57829003601f168201915b505050505081526020016001820180546103e090610cc2565b80601f016020809104026020016040519081016040528092919081815260200182805461040c90610cc2565b80156104595780601f1061042e57610100808354040283529160200191610459565b820191906000526020600020905b81548152906001019060200180831161043c57829003601f168201915b50505050508152602001600282015481526020016003820154815250509050919050565b6040518060800160405280858152602001848152602001838152602001828152506000808201518160000190816104b49190610f60565b5060208201518160010190816104ca9190610f60565b50604082015181600201556060820151816003015590505050505050565b6000600480549050905090565b6004604051806080016040528086815260200185815260200184815260200183815250908060018154018082558091505060019003906000526020600020906004020160009091909190915060008201518160000190816105569190610f60565b50602082015181600101908161056c9190610f60565b506040820151816002015560608201518160030155505050505050565b60606004805480602002602001604051908101604052809291908181526020016000905b8282101561071757838290600052602060002090600402016040518060800160405290816000820180546105e090610cc2565b80601f016020809104026020016040519081016040528092919081815260200182805461060c90610cc2565b80156106595780601f1061062e57610100808354040283529160200191610659565b820191906000526020600020905b81548152906001019060200180831161063c57829003601f168201915b5050505050815260200160018201805461067290610cc2565b80601f016020809104026020016040519081016040528092919081815260200182805461069e90610cc2565b80156106eb5780601f106106c0576101008083540402835291602001916106eb565b820191906000526020600020905b8154815290600101906020018083116106ce57829003601f168201915b5050505050815260200160028201548152602001600382015481525050815260200190600101906105ad565b50505050905090565b6040518060800160405280606081526020016060815260200160008152602001600081525090565b50805461075490610cc2565b6000825580601f106107665750610785565b601f0160209004906000526020600020908101906107849190610788565b5b50565b5b808211156107a1576000816000905550600101610789565b5090565b600081519050919050565b600082825260208201905092915050565b60005b838110156107df5780820151818401526020810190506107c4565b60008484015250505050565b6000601f19601f8301169050919050565b6000610807826107a5565b61081181856107b0565b93506108218185602086016107c1565b61082a816107eb565b840191505092915050565b6000819050919050565b61084881610835565b82525050565b6000608083016000830151848203600086015261086b82826107fc565b9150506020830151848203602086015261088582826107fc565b915050604083015161089a604086018261083f565b5060608301516108ad606086018261083f565b508091505092915050565b600060208201905081810360008301526108d2818461084e565b905092915050565b6000604051905090565b600080fd5b600080fd5b6108f781610835565b811461090257600080fd5b50565b600081359050610914816108ee565b92915050565b6000602082840312156109305761092f6108e4565b5b600061093e84828501610905565b91505092915050565b600080fd5b600080fd5b7f4e487b7100000000000000000000000000000000000000000000000000000000600052604160045260246000fd5b610989826107eb565b810181811067ffffffffffffffff821117156109a8576109a7610951565b5b80604052505050565b60006109bb6108da565b90506109c78282610980565b919050565b600067ffffffffffffffff8211156109e7576109e6610951565b5b6109f0826107eb565b9050602081019050919050565b82818337600083830152505050565b6000610a1f610a1a846109cc565b6109b1565b905082815260208101848484011115610a3b57610a3a61094c565b5b610a468482856109fd565b509392505050565b600082601f830112610a6357610a62610947565b5b8135610a73848260208601610a0c565b91505092915050565b60008060008060808587031215610a9657610a956108e4565b5b600085013567ffffffffffffffff811115610ab457610ab36108e9565b5b610ac087828801610a4e565b945050602085013567ffffffffffffffff811115610ae157610ae06108e9565b5b610aed87828801610a4e565b9350506040610afe87828801610905565b9250506060610b0f87828801610905565b91505092959194509250565b610b2481610835565b82525050565b6000602082019050610b3f6000830184610b1b565b92915050565b600081519050919050565b600082825260208201905092915050565b6000819050602082019050919050565b60006080830160008301518482036000860152610b8e82826107fc565b91505060208301518482036020860152610ba882826107fc565b9150506040830151610bbd604086018261083f565b506060830151610bd0606086018261083f565b508091505092915050565b6000610be78383610b71565b905092915050565b6000602082019050919050565b6000610c0782610b45565b610c118185610b50565b935083602082028501610c2385610b61565b8060005b85811015610c5f5784840389528151610c408582610bdb565b9450610c4b83610bef565b925060208a01995050600181019050610c27565b50829750879550505050505092915050565b60006020820190508181036000830152610c8b8184610bfc565b905092915050565b7f4e487b7100000000000000000000000000000000000000000000000000000000600052602260045260246000fd5b60006002820490506001821680610cda57607f821691505b602082108103610ced57610cec610c93565b5b50919050565b7f4e487b7100000000000000000000000000000000000000000000000000000000600052603160045260246000fd5b7f4e487b7100000000000000000000000000000000000000000000000000000000600052601160045260246000fd5b6000610d5c82610835565b9150610d6783610835565b9250828203905081811115610d7f57610d7e610d22565b5b92915050565b7f4e487b7100000000000000000000000000000000000000000000000000000000600052603260045260246000fd5b60008190508160005260206000209050919050565b60006020601f8301049050919050565b600082821b905092915050565b600060088302610e167fffffffffffffffffffffffffffffffffffffffffffffffffffffffffffffffff82610dd9565b610e208683610dd9565b95508019841693508086168417925050509392505050565b6000819050919050565b6000610e5d610e58610e5384610835565b610e38565b610835565b9050919050565b6000819050919050565b610e7783610e42565b610e8b610e8382610e64565b848454610de6565b825550505050565b600090565b610ea0610e93565b610eab818484610e6e565b505050565b5b81811015610ecf57610ec4600082610e98565b600181019050610eb1565b5050565b601f821115610f1457610ee581610db4565b610eee84610dc9565b81016020851015610efd578190505b610f11610f0985610dc9565b830182610eb0565b50505b505050565b600082821c905092915050565b6000610f3760001984600802610f19565b1980831691505092915050565b6000610f508383610f26565b9150826002028217905092915050565b610f69826107a5565b67ffffffffffffffff811115610f8257610f81610951565b5b610f8c8254610cc2565b610f97828285610ed3565b600060209050601f831160018114610fca5760008415610fb8578287015190505b610fc28582610f44565b86555061102a565b601f198416610fd886610db4565b60005b8281101561100057848901518255600182019150602085019450602081019050610fdb565b8683101561101d5784890151611019601f891682610f26565b8355505b6001600288020188555050505b50505050505056fea264697066735822122007e7eb192985e69bea8469eac090a2098ce15a4d75837666306f8ee8f2bb12ce64736f6c63430008120033",
					"opcodes": "PUSH1 0x80 PUSH1 0x40 MSTORE CALLVALUE DUP1 ISZERO PUSH2 0x10 JUMPI PUSH1 0x0 DUP1 REVERT JUMPDEST POP PUSH2 0x1068 DUP1 PUSH2 0x20 PUSH1 0x0 CODECOPY PUSH1 0x0 RETURN INVALID PUSH1 0x80 PUSH1 0x40 MSTORE CALLVALUE DUP1 ISZERO PUSH2 0x10 JUMPI PUSH1 0x0 DUP1 REVERT JUMPDEST POP PUSH1 0x4 CALLDATASIZE LT PUSH2 0x7D JUMPI PUSH1 0x0 CALLDATALOAD PUSH1 0xE0 SHR DUP1 PUSH4 0xA259AEAE GT PUSH2 0x5B JUMPI DUP1 PUSH4 0xA259AEAE EQ PUSH2 0xDA JUMPI DUP1 PUSH4 0xBE1C766B EQ PUSH2 0xF6 JUMPI DUP1 PUSH4 0xCA5D45F7 EQ PUSH2 0x114 JUMPI DUP1 PUSH4 0xF1D064B3 EQ PUSH2 0x130 JUMPI PUSH2 0x7D JUMP JUMPDEST DUP1 PUSH4 0x25D478C EQ PUSH2 0x82 JUMPI DUP1 PUSH4 0x41571887 EQ PUSH2 0xA0 JUMPI DUP1 PUSH4 0x642F9163 EQ PUSH2 0xAA JUMPI JUMPDEST PUSH1 0x0 DUP1 REVERT JUMPDEST PUSH2 0x8A PUSH2 0x14E JUMP JUMPDEST PUSH1 0x40 MLOAD PUSH2 0x97 SWAP2 SWAP1 PUSH2 0x8B8 JUMP JUMPDEST PUSH1 0x40 MLOAD DUP1 SWAP2 SUB SWAP1 RETURN JUMPDEST PUSH2 0xA8 PUSH2 0x2A0 JUMP JUMPDEST STOP JUMPDEST PUSH2 0xC4 PUSH1 0x4 DUP1 CALLDATASIZE SUB DUP2 ADD SWAP1 PUSH2 0xBF SWAP2 SWAP1 PUSH2 0x91A JUMP JUMPDEST PUSH2 0x2FD JUMP JUMPDEST PUSH1 0x40 MLOAD PUSH2 0xD1 SWAP2 SWAP1 PUSH2 0x8B8 JUMP JUMPDEST PUSH1 0x40 MLOAD DUP1 SWAP2 SUB SWAP1 RETURN JUMPDEST PUSH2 0xF4 PUSH1 0x4 DUP1 CALLDATASIZE SUB DUP2 ADD SWAP1 PUSH2 0xEF SWAP2 SWAP1 PUSH2 0xA7C JUMP JUMPDEST PUSH2 0x47D JUMP JUMPDEST STOP JUMPDEST PUSH2 0xFE PUSH2 0x4E8 JUMP JUMPDEST PUSH1 0x40 MLOAD PUSH2 0x10B SWAP2 SWAP1 PUSH2 0xB2A JUMP JUMPDEST PUSH1 0x40 MLOAD DUP1 SWAP2 SUB SWAP1 RETURN JUMPDEST PUSH2 0x12E PUSH1 0x4 DUP1 CALLDATASIZE SUB DUP2 ADD SWAP1 PUSH2 0x129 SWAP2 SWAP1 PUSH2 0xA7C JUMP JUMPDEST PUSH2 0x4F5 JUMP JUMPDEST STOP JUMPDEST PUSH2 0x138 PUSH2 0x589 JUMP JUMPDEST PUSH1 0x40 MLOAD PUSH2 0x145 SWAP2 SWAP1 PUSH2 0xC71 JUMP JUMPDEST PUSH1 0x40 MLOAD DUP1 SWAP2 SUB SWAP1 RETURN JUMPDEST PUSH2 0x156 PUSH2 0x720 JUMP JUMPDEST PUSH1 0x0 PUSH1 0x40 MLOAD DUP1 PUSH1 0x80 ADD PUSH1 0x40 MSTORE SWAP1 DUP2 PUSH1 0x0 DUP3 ADD DUP1 SLOAD PUSH2 0x173 SWAP1 PUSH2 0xCC2 JUMP JUMPDEST DUP1 PUSH1 0x1F ADD PUSH1 0x20 DUP1 SWAP2 DIV MUL PUSH1 0x20 ADD PUSH1 0x40 MLOAD SWAP1 DUP2 ADD PUSH1 0x40 MSTORE DUP1 SWAP3 SWAP2 SWAP1 DUP2 DUP2 MSTORE PUSH1 0x20 ADD DUP3 DUP1 SLOAD PUSH2 0x19F SWAP1 PUSH2 0xCC2 JUMP JUMPDEST DUP1 ISZERO PUSH2 0x1EC JUMPI DUP1 PUSH1 0x1F LT PUSH2 0x1C1 JUMPI PUSH2 0x100 DUP1 DUP4 SLOAD DIV MUL DUP4 MSTORE SWAP2 PUSH1 0x20 ADD SWAP2 PUSH2 0x1EC JUMP JUMPDEST DUP3 ADD SWAP2 SWAP1 PUSH1 0x0 MSTORE PUSH1 0x20 PUSH1 0x0 KECCAK256 SWAP1 JUMPDEST DUP2 SLOAD DUP2 MSTORE SWAP1 PUSH1 0x1 ADD SWAP1 PUSH1 0x20 ADD DUP1 DUP4 GT PUSH2 0x1CF JUMPI DUP3 SWAP1 SUB PUSH1 0x1F AND DUP3 ADD SWAP2 JUMPDEST POP POP POP POP POP DUP2 MSTORE PUSH1 0x20 ADD PUSH1 0x1 DUP3 ADD DUP1 SLOAD PUSH2 0x205 SWAP1 PUSH2 0xCC2 JUMP JUMPDEST DUP1 PUSH1 0x1F ADD PUSH1 0x20 DUP1 SWAP2 DIV MUL PUSH1 0x20 ADD PUSH1 0x40 MLOAD SWAP1 DUP2 ADD PUSH1 0x40 MSTORE DUP1 SWAP3 SWAP2 SWAP1 DUP2 DUP2 MSTORE PUSH1 0x20 ADD DUP3 DUP1 SLOAD PUSH2 0x231 SWAP1 PUSH2 0xCC2 JUMP JUMPDEST DUP1 ISZERO PUSH2 0x27E JUMPI DUP1 PUSH1 0x1F LT PUSH2 0x253 JUMPI PUSH2 0x100 DUP1 DUP4 SLOAD DIV MUL DUP4 MSTORE SWAP2 PUSH1 0x20 ADD SWAP2 PUSH2 0x27E JUMP JUMPDEST DUP3 ADD SWAP2 SWAP1 PUSH1 0x0 MSTORE PUSH1 0x20 PUSH1 0x0 KECCAK256 SWAP1 JUMPDEST DUP2 SLOAD DUP2 MSTORE SWAP1 PUSH1 0x1 ADD SWAP1 PUSH1 0x20 ADD DUP1 DUP4 GT PUSH2 0x261 JUMPI DUP3 SWAP1 SUB PUSH1 0x1F AND DUP3 ADD SWAP2 JUMPDEST POP POP POP POP POP DUP2 MSTORE PUSH1 0x20 ADD PUSH1 0x2 DUP3 ADD SLOAD DUP2 MSTORE PUSH1 0x20 ADD PUSH1 0x3 DUP3 ADD SLOAD DUP2 MSTORE POP POP SWAP1 POP SWAP1 JUMP JUMPDEST PUSH1 0x4 DUP1 SLOAD DUP1 PUSH2 0x2B2 JUMPI PUSH2 0x2B1 PUSH2 0xCF3 JUMP JUMPDEST JUMPDEST PUSH1 0x1 SWAP1 SUB DUP2 DUP2 SWAP1 PUSH1 0x0 MSTORE PUSH1 0x20 PUSH1 0x0 KECCAK256 SWAP1 PUSH1 0x4 MUL ADD PUSH1 0x0 DUP1 DUP3 ADD PUSH1 0x0 PUSH2 0x2D7 SWAP2 SWAP1 PUSH2 0x748 JUMP JUMPDEST PUSH1 0x1 DUP3 ADD PUSH1 0x0 PUSH2 0x2E7 SWAP2 SWAP1 PUSH2 0x748 JUMP JUMPDEST PUSH1 0x2 DUP3 ADD PUSH1 0x0 SWAP1 SSTORE PUSH1 0x3 DUP3 ADD PUSH1 0x0 SWAP1 SSTORE POP POP SWAP1 SSTORE JUMP JUMPDEST PUSH2 0x305 PUSH2 0x720 JUMP JUMPDEST PUSH1 0x4 PUSH1 0x1 DUP4 PUSH2 0x314 SWAP2 SWAP1 PUSH2 0xD51 JUMP JUMPDEST DUP2 SLOAD DUP2 LT PUSH2 0x325 JUMPI PUSH2 0x324 PUSH2 0xD85 JUMP JUMPDEST JUMPDEST SWAP1 PUSH1 0x0 MSTORE PUSH1 0x20 PUSH1 0x0 KECCAK256 SWAP1 PUSH1 0x4 MUL ADD PUSH1 0x40 MLOAD DUP1 PUSH1 0x80 ADD PUSH1 0x40 MSTORE SWAP1 DUP2 PUSH1 0x0 DUP3 ADD DUP1 SLOAD PUSH2 0x34E SWAP1 PUSH2 0xCC2 JUMP JUMPDEST DUP1 PUSH1 0x1F ADD PUSH1 0x20 DUP1 SWAP2 DIV MUL PUSH1 0x20 ADD PUSH1 0x40 MLOAD SWAP1 DUP2 ADD PUSH1 0x40 MSTORE DUP1 SWAP3 SWAP2 SWAP1 DUP2 DUP2 MSTORE PUSH1 0x20 ADD DUP3 DUP1 SLOAD PUSH2 0x37A SWAP1 PUSH2 0xCC2 JUMP JUMPDEST DUP1 ISZERO PUSH2 0x3C7 JUMPI DUP1 PUSH1 0x1F LT PUSH2 0x39C JUMPI PUSH2 0x100 DUP1 DUP4 SLOAD DIV MUL DUP4 MSTORE SWAP2 PUSH1 0x20 ADD SWAP2 PUSH2 0x3C7 JUMP JUMPDEST DUP3 ADD SWAP2 SWAP1 PUSH1 0x0 MSTORE PUSH1 0x20 PUSH1 0x0 KECCAK256 SWAP1 JUMPDEST DUP2 SLOAD DUP2 MSTORE SWAP1 PUSH1 0x1 ADD SWAP1 PUSH1 0x20 ADD DUP1 DUP4 GT PUSH2 0x3AA JUMPI DUP3 SWAP1 SUB PUSH1 0x1F AND DUP3 ADD SWAP2 JUMPDEST POP POP POP POP POP DUP2 MSTORE PUSH1 0x20 ADD PUSH1 0x1 DUP3 ADD DUP1 SLOAD PUSH2 0x3E0 SWAP1 PUSH2 0xCC2 JUMP JUMPDEST DUP1 PUSH1 0x1F ADD PUSH1 0x20 DUP1 SWAP2 DIV MUL PUSH1 0x20 ADD PUSH1 0x40 MLOAD SWAP1 DUP2 ADD PUSH1 0x40 MSTORE DUP1 SWAP3 SWAP2 SWAP1 DUP2 DUP2 MSTORE PUSH1 0x20 ADD DUP3 DUP1 SLOAD PUSH2 0x40C SWAP1 PUSH2 0xCC2 JUMP JUMPDEST DUP1 ISZERO PUSH2 0x459 JUMPI DUP1 PUSH1 0x1F LT PUSH2 0x42E JUMPI PUSH2 0x100 DUP1 DUP4 SLOAD DIV MUL DUP4 MSTORE SWAP2 PUSH1 0x20 ADD SWAP2 PUSH2 0x459 JUMP JUMPDEST DUP3 ADD SWAP2 SWAP1 PUSH1 0x0 MSTORE PUSH1 0x20 PUSH1 0x0 KECCAK256 SWAP1 JUMPDEST DUP2 SLOAD DUP2 MSTORE SWAP1 PUSH1 0x1 ADD SWAP1 PUSH1 0x20 ADD DUP1 DUP4 GT PUSH2 0x43C JUMPI DUP3 SWAP1 SUB PUSH1 0x1F AND DUP3 ADD SWAP2 JUMPDEST POP POP POP POP POP DUP2 MSTORE PUSH1 0x20 ADD PUSH1 0x2 DUP3 ADD SLOAD DUP2 MSTORE PUSH1 0x20 ADD PUSH1 0x3 DUP3 ADD SLOAD DUP2 MSTORE POP POP SWAP1 POP SWAP2 SWAP1 POP JUMP JUMPDEST PUSH1 0x40 MLOAD DUP1 PUSH1 0x80 ADD PUSH1 0x40 MSTORE DUP1 DUP6 DUP2 MSTORE PUSH1 0x20 ADD DUP5 DUP2 MSTORE PUSH1 0x20 ADD DUP4 DUP2 MSTORE PUSH1 0x20 ADD DUP3 DUP2 MSTORE POP PUSH1 0x0 DUP1 DUP3 ADD MLOAD DUP2 PUSH1 0x0 ADD SWAP1 DUP2 PUSH2 0x4B4 SWAP2 SWAP1 PUSH2 0xF60 JUMP JUMPDEST POP PUSH1 0x20 DUP3 ADD MLOAD DUP2 PUSH1 0x1 ADD SWAP1 DUP2 PUSH2 0x4CA SWAP2 SWAP1 PUSH2 0xF60 JUMP JUMPDEST POP PUSH1 0x40 DUP3 ADD MLOAD DUP2 PUSH1 0x2 ADD SSTORE PUSH1 0x60 DUP3 ADD MLOAD DUP2 PUSH1 0x3 ADD SSTORE SWAP1 POP POP POP POP POP POP JUMP JUMPDEST PUSH1 0x0 PUSH1 0x4 DUP1 SLOAD SWAP1 POP SWAP1 POP SWAP1 JUMP JUMPDEST PUSH1 0x4 PUSH1 0x40 MLOAD DUP1 PUSH1 0x80 ADD PUSH1 0x40 MSTORE DUP1 DUP7 DUP2 MSTORE PUSH1 0x20 ADD DUP6 DUP2 MSTORE PUSH1 0x20 ADD DUP5 DUP2 MSTORE PUSH1 0x20 ADD DUP4 DUP2 MSTORE POP SWAP1 DUP1 PUSH1 0x1 DUP2 SLOAD ADD DUP1 DUP3 SSTORE DUP1 SWAP2 POP POP PUSH1 0x1 SWAP1 SUB SWAP1 PUSH1 0x0 MSTORE PUSH1 0x20 PUSH1 0x0 KECCAK256 SWAP1 PUSH1 0x4 MUL ADD PUSH1 0x0 SWAP1 SWAP2 SWAP1 SWAP2 SWAP1 SWAP2 POP PUSH1 0x0 DUP3 ADD MLOAD DUP2 PUSH1 0x0 ADD SWAP1 DUP2 PUSH2 0x556 SWAP2 SWAP1 PUSH2 0xF60 JUMP JUMPDEST POP PUSH1 0x20 DUP3 ADD MLOAD DUP2 PUSH1 0x1 ADD SWAP1 DUP2 PUSH2 0x56C SWAP2 SWAP1 PUSH2 0xF60 JUMP JUMPDEST POP PUSH1 0x40 DUP3 ADD MLOAD DUP2 PUSH1 0x2 ADD SSTORE PUSH1 0x60 DUP3 ADD MLOAD DUP2 PUSH1 0x3 ADD SSTORE POP POP POP POP POP POP JUMP JUMPDEST PUSH1 0x60 PUSH1 0x4 DUP1 SLOAD DUP1 PUSH1 0x20 MUL PUSH1 0x20 ADD PUSH1 0x40 MLOAD SWAP1 DUP2 ADD PUSH1 0x40 MSTORE DUP1 SWAP3 SWAP2 SWAP1 DUP2 DUP2 MSTORE PUSH1 0x20 ADD PUSH1 0x0 SWAP1 JUMPDEST DUP3 DUP3 LT ISZERO PUSH2 0x717 JUMPI DUP4 DUP3 SWAP1 PUSH1 0x0 MSTORE PUSH1 0x20 PUSH1 0x0 KECCAK256 SWAP1 PUSH1 0x4 MUL ADD PUSH1 0x40 MLOAD DUP1 PUSH1 0x80 ADD PUSH1 0x40 MSTORE SWAP1 DUP2 PUSH1 0x0 DUP3 ADD DUP1 SLOAD PUSH2 0x5E0 SWAP1 PUSH2 0xCC2 JUMP JUMPDEST DUP1 PUSH1 0x1F ADD PUSH1 0x20 DUP1 SWAP2 DIV MUL PUSH1 0x20 ADD PUSH1 0x40 MLOAD SWAP1 DUP2 ADD PUSH1 0x40 MSTORE DUP1 SWAP3 SWAP2 SWAP1 DUP2 DUP2 MSTORE PUSH1 0x20 ADD DUP3 DUP1 SLOAD PUSH2 0x60C SWAP1 PUSH2 0xCC2 JUMP JUMPDEST DUP1 ISZERO PUSH2 0x659 JUMPI DUP1 PUSH1 0x1F LT PUSH2 0x62E JUMPI PUSH2 0x100 DUP1 DUP4 SLOAD DIV MUL DUP4 MSTORE SWAP2 PUSH1 0x20 ADD SWAP2 PUSH2 0x659 JUMP JUMPDEST DUP3 ADD SWAP2 SWAP1 PUSH1 0x0 MSTORE PUSH1 0x20 PUSH1 0x0 KECCAK256 SWAP1 JUMPDEST DUP2 SLOAD DUP2 MSTORE SWAP1 PUSH1 0x1 ADD SWAP1 PUSH1 0x20 ADD DUP1 DUP4 GT PUSH2 0x63C JUMPI DUP3 SWAP1 SUB PUSH1 0x1F AND DUP3 ADD SWAP2 JUMPDEST POP POP POP POP POP DUP2 MSTORE PUSH1 0x20 ADD PUSH1 0x1 DUP3 ADD DUP1 SLOAD PUSH2 0x672 SWAP1 PUSH2 0xCC2 JUMP JUMPDEST DUP1 PUSH1 0x1F ADD PUSH1 0x20 DUP1 SWAP2 DIV MUL PUSH1 0x20 ADD PUSH1 0x40 MLOAD SWAP1 DUP2 ADD PUSH1 0x40 MSTORE DUP1 SWAP3 SWAP2 SWAP1 DUP2 DUP2 MSTORE PUSH1 0x20 ADD DUP3 DUP1 SLOAD PUSH2 0x69E SWAP1 PUSH2 0xCC2 JUMP JUMPDEST DUP1 ISZERO PUSH2 0x6EB JUMPI DUP1 PUSH1 0x1F LT PUSH2 0x6C0 JUMPI PUSH2 0x100 DUP1 DUP4 SLOAD DIV MUL DUP4 MSTORE SWAP2 PUSH1 0x20 ADD SWAP2 PUSH2 0x6EB JUMP JUMPDEST DUP3 ADD SWAP2 SWAP1 PUSH1 0x0 MSTORE PUSH1 0x20 PUSH1 0x0 KECCAK256 SWAP1 JUMPDEST DUP2 SLOAD DUP2 MSTORE SWAP1 PUSH1 0x1 ADD SWAP1 PUSH1 0x20 ADD DUP1 DUP4 GT PUSH2 0x6CE JUMPI DUP3 SWAP1 SUB PUSH1 0x1F AND DUP3 ADD SWAP2 JUMPDEST POP POP POP POP POP DUP2 MSTORE PUSH1 0x20 ADD PUSH1 0x2 DUP3 ADD SLOAD DUP2 MSTORE PUSH1 0x20 ADD PUSH1 0x3 DUP3 ADD SLOAD DUP2 MSTORE POP POP DUP2 MSTORE PUSH1 0x20 ADD SWAP1 PUSH1 0x1 ADD SWAP1 PUSH2 0x5AD JUMP JUMPDEST POP POP POP POP SWAP1 POP SWAP1 JUMP JUMPDEST PUSH1 0x40 MLOAD DUP1 PUSH1 0x80 ADD PUSH1 0x40 MSTORE DUP1 PUSH1 0x60 DUP2 MSTORE PUSH1 0x20 ADD PUSH1 0x60 DUP2 MSTORE PUSH1 0x20 ADD PUSH1 0x0 DUP2 MSTORE PUSH1 0x20 ADD PUSH1 0x0 DUP2 MSTORE POP SWAP1 JUMP JUMPDEST POP DUP1 SLOAD PUSH2 0x754 SWAP1 PUSH2 0xCC2 JUMP JUMPDEST PUSH1 0x0 DUP3 SSTORE DUP1 PUSH1 0x1F LT PUSH2 0x766 JUMPI POP PUSH2 0x785 JUMP JUMPDEST PUSH1 0x1F ADD PUSH1 0x20 SWAP1 DIV SWAP1 PUSH1 0x0 MSTORE PUSH1 0x20 PUSH1 0x0 KECCAK256 SWAP1 DUP2 ADD SWAP1 PUSH2 0x784 SWAP2 SWAP1 PUSH2 0x788 JUMP JUMPDEST JUMPDEST POP JUMP JUMPDEST JUMPDEST DUP1 DUP3 GT ISZERO PUSH2 0x7A1 JUMPI PUSH1 0x0 DUP2 PUSH1 0x0 SWAP1 SSTORE POP PUSH1 0x1 ADD PUSH2 0x789 JUMP JUMPDEST POP SWAP1 JUMP JUMPDEST PUSH1 0x0 DUP2 MLOAD SWAP1 POP SWAP2 SWAP1 POP JUMP JUMPDEST PUSH1 0x0 DUP3 DUP3 MSTORE PUSH1 0x20 DUP3 ADD SWAP1 POP SWAP3 SWAP2 POP POP JUMP JUMPDEST PUSH1 0x0 JUMPDEST DUP4 DUP2 LT ISZERO PUSH2 0x7DF JUMPI DUP1 DUP3 ADD MLOAD DUP2 DUP5 ADD MSTORE PUSH1 0x20 DUP2 ADD SWAP1 POP PUSH2 0x7C4 JUMP JUMPDEST PUSH1 0x0 DUP5 DUP5 ADD MSTORE POP POP POP POP JUMP JUMPDEST PUSH1 0x0 PUSH1 0x1F NOT PUSH1 0x1F DUP4 ADD AND SWAP1 POP SWAP2 SWAP1 POP JUMP JUMPDEST PUSH1 0x0 PUSH2 0x807 DUP3 PUSH2 0x7A5 JUMP JUMPDEST PUSH2 0x811 DUP2 DUP6 PUSH2 0x7B0 JUMP JUMPDEST SWAP4 POP PUSH2 0x821 DUP2 DUP6 PUSH1 0x20 DUP7 ADD PUSH2 0x7C1 JUMP JUMPDEST PUSH2 0x82A DUP2 PUSH2 0x7EB JUMP JUMPDEST DUP5 ADD SWAP2 POP POP SWAP3 SWAP2 POP POP JUMP JUMPDEST PUSH1 0x0 DUP2 SWAP1 POP SWAP2 SWAP1 POP JUMP JUMPDEST PUSH2 0x848 DUP2 PUSH2 0x835 JUMP JUMPDEST DUP3 MSTORE POP POP JUMP JUMPDEST PUSH1 0x0 PUSH1 0x80 DUP4 ADD PUSH1 0x0 DUP4 ADD MLOAD DUP5 DUP3 SUB PUSH1 0x0 DUP7 ADD MSTORE PUSH2 0x86B DUP3 DUP3 PUSH2 0x7FC JUMP JUMPDEST SWAP2 POP POP PUSH1 0x20 DUP4 ADD MLOAD DUP5 DUP3 SUB PUSH1 0x20 DUP7 ADD MSTORE PUSH2 0x885 DUP3 DUP3 PUSH2 0x7FC JUMP JUMPDEST SWAP2 POP POP PUSH1 0x40 DUP4 ADD MLOAD PUSH2 0x89A PUSH1 0x40 DUP7 ADD DUP3 PUSH2 0x83F JUMP JUMPDEST POP PUSH1 0x60 DUP4 ADD MLOAD PUSH2 0x8AD PUSH1 0x60 DUP7 ADD DUP3 PUSH2 0x83F JUMP JUMPDEST POP DUP1 SWAP2 POP POP SWAP3 SWAP2 POP POP JUMP JUMPDEST PUSH1 0x0 PUSH1 0x20 DUP3 ADD SWAP1 POP DUP2 DUP2 SUB PUSH1 0x0 DUP4 ADD MSTORE PUSH2 0x8D2 DUP2 DUP5 PUSH2 0x84E JUMP JUMPDEST SWAP1 POP SWAP3 SWAP2 POP POP JUMP JUMPDEST PUSH1 0x0 PUSH1 0x40 MLOAD SWAP1 POP SWAP1 JUMP JUMPDEST PUSH1 0x0 DUP1 REVERT JUMPDEST PUSH1 0x0 DUP1 REVERT JUMPDEST PUSH2 0x8F7 DUP2 PUSH2 0x835 JUMP JUMPDEST DUP2 EQ PUSH2 0x902 JUMPI PUSH1 0x0 DUP1 REVERT JUMPDEST POP JUMP JUMPDEST PUSH1 0x0 DUP2 CALLDATALOAD SWAP1 POP PUSH2 0x914 DUP2 PUSH2 0x8EE JUMP JUMPDEST SWAP3 SWAP2 POP POP JUMP JUMPDEST PUSH1 0x0 PUSH1 0x20 DUP3 DUP5 SUB SLT ISZERO PUSH2 0x930 JUMPI PUSH2 0x92F PUSH2 0x8E4 JUMP JUMPDEST JUMPDEST PUSH1 0x0 PUSH2 0x93E DUP5 DUP3 DUP6 ADD PUSH2 0x905 JUMP JUMPDEST SWAP2 POP POP SWAP3 SWAP2 POP POP JUMP JUMPDEST PUSH1 0x0 DUP1 REVERT JUMPDEST PUSH1 0x0 DUP1 REVERT JUMPDEST PUSH32 0x4E487B7100000000000000000000000000000000000000000000000000000000 PUSH1 0x0 MSTORE PUSH1 0x41 PUSH1 0x4 MSTORE PUSH1 0x24 PUSH1 0x0 REVERT JUMPDEST PUSH2 0x989 DUP3 PUSH2 0x7EB JUMP JUMPDEST DUP2 ADD DUP2 DUP2 LT PUSH8 0xFFFFFFFFFFFFFFFF DUP3 GT OR ISZERO PUSH2 0x9A8 JUMPI PUSH2 0x9A7 PUSH2 0x951 JUMP JUMPDEST JUMPDEST DUP1 PUSH1 0x40 MSTORE POP POP POP JUMP JUMPDEST PUSH1 0x0 PUSH2 0x9BB PUSH2 0x8DA JUMP JUMPDEST SWAP1 POP PUSH2 0x9C7 DUP3 DUP3 PUSH2 0x980 JUMP JUMPDEST SWAP2 SWAP1 POP JUMP JUMPDEST PUSH1 0x0 PUSH8 0xFFFFFFFFFFFFFFFF DUP3 GT ISZERO PUSH2 0x9E7 JUMPI PUSH2 0x9E6 PUSH2 0x951 JUMP JUMPDEST JUMPDEST PUSH2 0x9F0 DUP3 PUSH2 0x7EB JUMP JUMPDEST SWAP1 POP PUSH1 0x20 DUP2 ADD SWAP1 POP SWAP2 SWAP1 POP JUMP JUMPDEST DUP3 DUP2 DUP4 CALLDATACOPY PUSH1 0x0 DUP4 DUP4 ADD MSTORE POP POP POP JUMP JUMPDEST PUSH1 0x0 PUSH2 0xA1F PUSH2 0xA1A DUP5 PUSH2 0x9CC JUMP JUMPDEST PUSH2 0x9B1 JUMP JUMPDEST SWAP1 POP DUP3 DUP2 MSTORE PUSH1 0x20 DUP2 ADD DUP5 DUP5 DUP5 ADD GT ISZERO PUSH2 0xA3B JUMPI PUSH2 0xA3A PUSH2 0x94C JUMP JUMPDEST JUMPDEST PUSH2 0xA46 DUP5 DUP3 DUP6 PUSH2 0x9FD JUMP JUMPDEST POP SWAP4 SWAP3 POP POP POP JUMP JUMPDEST PUSH1 0x0 DUP3 PUSH1 0x1F DUP4 ADD SLT PUSH2 0xA63 JUMPI PUSH2 0xA62 PUSH2 0x947 JUMP JUMPDEST JUMPDEST DUP2 CALLDATALOAD PUSH2 0xA73 DUP5 DUP3 PUSH1 0x20 DUP7 ADD PUSH2 0xA0C JUMP JUMPDEST SWAP2 POP POP SWAP3 SWAP2 POP POP JUMP JUMPDEST PUSH1 0x0 DUP1 PUSH1 0x0 DUP1 PUSH1 0x80 DUP6 DUP8 SUB SLT ISZERO PUSH2 0xA96 JUMPI PUSH2 0xA95 PUSH2 0x8E4 JUMP JUMPDEST JUMPDEST PUSH1 0x0 DUP6 ADD CALLDATALOAD PUSH8 0xFFFFFFFFFFFFFFFF DUP2 GT ISZERO PUSH2 0xAB4 JUMPI PUSH2 0xAB3 PUSH2 0x8E9 JUMP JUMPDEST JUMPDEST PUSH2 0xAC0 DUP8 DUP3 DUP9 ADD PUSH2 0xA4E JUMP JUMPDEST SWAP5 POP POP PUSH1 0x20 DUP6 ADD CALLDATALOAD PUSH8 0xFFFFFFFFFFFFFFFF DUP2 GT ISZERO PUSH2 0xAE1 JUMPI PUSH2 0xAE0 PUSH2 0x8E9 JUMP JUMPDEST JUMPDEST PUSH2 0xAED DUP8 DUP3 DUP9 ADD PUSH2 0xA4E JUMP JUMPDEST SWAP4 POP POP PUSH1 0x40 PUSH2 0xAFE DUP8 DUP3 DUP9 ADD PUSH2 0x905 JUMP JUMPDEST SWAP3 POP POP PUSH1 0x60 PUSH2 0xB0F DUP8 DUP3 DUP9 ADD PUSH2 0x905 JUMP JUMPDEST SWAP2 POP POP SWAP3 SWAP6 SWAP2 SWAP5 POP SWAP3 POP JUMP JUMPDEST PUSH2 0xB24 DUP2 PUSH2 0x835 JUMP JUMPDEST DUP3 MSTORE POP POP JUMP JUMPDEST PUSH1 0x0 PUSH1 0x20 DUP3 ADD SWAP1 POP PUSH2 0xB3F PUSH1 0x0 DUP4 ADD DUP5 PUSH2 0xB1B JUMP JUMPDEST SWAP3 SWAP2 POP POP JUMP JUMPDEST PUSH1 0x0 DUP2 MLOAD SWAP1 POP SWAP2 SWAP1 POP JUMP JUMPDEST PUSH1 0x0 DUP3 DUP3 MSTORE PUSH1 0x20 DUP3 ADD SWAP1 POP SWAP3 SWAP2 POP POP JUMP JUMPDEST PUSH1 0x0 DUP2 SWAP1 POP PUSH1 0x20 DUP3 ADD SWAP1 POP SWAP2 SWAP1 POP JUMP JUMPDEST PUSH1 0x0 PUSH1 0x80 DUP4 ADD PUSH1 0x0 DUP4 ADD MLOAD DUP5 DUP3 SUB PUSH1 0x0 DUP7 ADD MSTORE PUSH2 0xB8E DUP3 DUP3 PUSH2 0x7FC JUMP JUMPDEST SWAP2 POP POP PUSH1 0x20 DUP4 ADD MLOAD DUP5 DUP3 SUB PUSH1 0x20 DUP7 ADD MSTORE PUSH2 0xBA8 DUP3 DUP3 PUSH2 0x7FC JUMP JUMPDEST SWAP2 POP POP PUSH1 0x40 DUP4 ADD MLOAD PUSH2 0xBBD PUSH1 0x40 DUP7 ADD DUP3 PUSH2 0x83F JUMP JUMPDEST POP PUSH1 0x60 DUP4 ADD MLOAD PUSH2 0xBD0 PUSH1 0x60 DUP7 ADD DUP3 PUSH2 0x83F JUMP JUMPDEST POP DUP1 SWAP2 POP POP SWAP3 SWAP2 POP POP JUMP JUMPDEST PUSH1 0x0 PUSH2 0xBE7 DUP4 DUP4 PUSH2 0xB71 JUMP JUMPDEST SWAP1 POP SWAP3 SWAP2 POP POP JUMP JUMPDEST PUSH1 0x0 PUSH1 0x20 DUP3 ADD SWAP1 POP SWAP2 SWAP1 POP JUMP JUMPDEST PUSH1 0x0 PUSH2 0xC07 DUP3 PUSH2 0xB45 JUMP JUMPDEST PUSH2 0xC11 DUP2 DUP6 PUSH2 0xB50 JUMP JUMPDEST SWAP4 POP DUP4 PUSH1 0x20 DUP3 MUL DUP6 ADD PUSH2 0xC23 DUP6 PUSH2 0xB61 JUMP JUMPDEST DUP1 PUSH1 0x0 JUMPDEST DUP6 DUP2 LT ISZERO PUSH2 0xC5F JUMPI DUP5 DUP5 SUB DUP10 MSTORE DUP2 MLOAD PUSH2 0xC40 DUP6 DUP3 PUSH2 0xBDB JUMP JUMPDEST SWAP5 POP PUSH2 0xC4B DUP4 PUSH2 0xBEF JUMP JUMPDEST SWAP3 POP PUSH1 0x20 DUP11 ADD SWAP10 POP POP PUSH1 0x1 DUP2 ADD SWAP1 POP PUSH2 0xC27 JUMP JUMPDEST POP DUP3 SWAP8 POP DUP8 SWAP6 POP POP POP POP POP POP SWAP3 SWAP2 POP POP JUMP JUMPDEST PUSH1 0x0 PUSH1 0x20 DUP3 ADD SWAP1 POP DUP2 DUP2 SUB PUSH1 0x0 DUP4 ADD MSTORE PUSH2 0xC8B DUP2 DUP5 PUSH2 0xBFC JUMP JUMPDEST SWAP1 POP SWAP3 SWAP2 POP POP JUMP JUMPDEST PUSH32 0x4E487B7100000000000000000000000000000000000000000000000000000000 PUSH1 0x0 MSTORE PUSH1 0x22 PUSH1 0x4 MSTORE PUSH1 0x24 PUSH1 0x0 REVERT JUMPDEST PUSH1 0x0 PUSH1 0x2 DUP3 DIV SWAP1 POP PUSH1 0x1 DUP3 AND DUP1 PUSH2 0xCDA JUMPI PUSH1 0x7F DUP3 AND SWAP2 POP JUMPDEST PUSH1 0x20 DUP3 LT DUP2 SUB PUSH2 0xCED JUMPI PUSH2 0xCEC PUSH2 0xC93 JUMP JUMPDEST JUMPDEST POP SWAP2 SWAP1 POP JUMP JUMPDEST PUSH32 0x4E487B7100000000000000000000000000000000000000000000000000000000 PUSH1 0x0 MSTORE PUSH1 0x31 PUSH1 0x4 MSTORE PUSH1 0x24 PUSH1 0x0 REVERT JUMPDEST PUSH32 0x4E487B7100000000000000000000000000000000000000000000000000000000 PUSH1 0x0 MSTORE PUSH1 0x11 PUSH1 0x4 MSTORE PUSH1 0x24 PUSH1 0x0 REVERT JUMPDEST PUSH1 0x0 PUSH2 0xD5C DUP3 PUSH2 0x835 JUMP JUMPDEST SWAP2 POP PUSH2 0xD67 DUP4 PUSH2 0x835 JUMP JUMPDEST SWAP3 POP DUP3 DUP3 SUB SWAP1 POP DUP2 DUP2 GT ISZERO PUSH2 0xD7F JUMPI PUSH2 0xD7E PUSH2 0xD22 JUMP JUMPDEST JUMPDEST SWAP3 SWAP2 POP POP JUMP JUMPDEST PUSH32 0x4E487B7100000000000000000000000000000000000000000000000000000000 PUSH1 0x0 MSTORE PUSH1 0x32 PUSH1 0x4 MSTORE PUSH1 0x24 PUSH1 0x0 REVERT JUMPDEST PUSH1 0x0 DUP2 SWAP1 POP DUP2 PUSH1 0x0 MSTORE PUSH1 0x20 PUSH1 0x0 KECCAK256 SWAP1 POP SWAP2 SWAP1 POP JUMP JUMPDEST PUSH1 0x0 PUSH1 0x20 PUSH1 0x1F DUP4 ADD DIV SWAP1 POP SWAP2 SWAP1 POP JUMP JUMPDEST PUSH1 0x0 DUP3 DUP3 SHL SWAP1 POP SWAP3 SWAP2 POP POP JUMP JUMPDEST PUSH1 0x0 PUSH1 0x8 DUP4 MUL PUSH2 0xE16 PUSH32 0xFFFFFFFFFFFFFFFFFFFFFFFFFFFFFFFFFFFFFFFFFFFFFFFFFFFFFFFFFFFFFFFF DUP3 PUSH2 0xDD9 JUMP JUMPDEST PUSH2 0xE20 DUP7 DUP4 PUSH2 0xDD9 JUMP JUMPDEST SWAP6 POP DUP1 NOT DUP5 AND SWAP4 POP DUP1 DUP7 AND DUP5 OR SWAP3 POP POP POP SWAP4 SWAP3 POP POP POP JUMP JUMPDEST PUSH1 0x0 DUP2 SWAP1 POP SWAP2 SWAP1 POP JUMP JUMPDEST PUSH1 0x0 PUSH2 0xE5D PUSH2 0xE58 PUSH2 0xE53 DUP5 PUSH2 0x835 JUMP JUMPDEST PUSH2 0xE38 JUMP JUMPDEST PUSH2 0x835 JUMP JUMPDEST SWAP1 POP SWAP2 SWAP1 POP JUMP JUMPDEST PUSH1 0x0 DUP2 SWAP1 POP SWAP2 SWAP1 POP JUMP JUMPDEST PUSH2 0xE77 DUP4 PUSH2 0xE42 JUMP JUMPDEST PUSH2 0xE8B PUSH2 0xE83 DUP3 PUSH2 0xE64 JUMP JUMPDEST DUP5 DUP5 SLOAD PUSH2 0xDE6 JUMP JUMPDEST DUP3 SSTORE POP POP POP POP JUMP JUMPDEST PUSH1 0x0 SWAP1 JUMP JUMPDEST PUSH2 0xEA0 PUSH2 0xE93 JUMP JUMPDEST PUSH2 0xEAB DUP2 DUP5 DUP5 PUSH2 0xE6E JUMP JUMPDEST POP POP POP JUMP JUMPDEST JUMPDEST DUP2 DUP2 LT ISZERO PUSH2 0xECF JUMPI PUSH2 0xEC4 PUSH1 0x0 DUP3 PUSH2 0xE98 JUMP JUMPDEST PUSH1 0x1 DUP2 ADD SWAP1 POP PUSH2 0xEB1 JUMP JUMPDEST POP POP JUMP JUMPDEST PUSH1 0x1F DUP3 GT ISZERO PUSH2 0xF14 JUMPI PUSH2 0xEE5 DUP2 PUSH2 0xDB4 JUMP JUMPDEST PUSH2 0xEEE DUP5 PUSH2 0xDC9 JUMP JUMPDEST DUP2 ADD PUSH1 0x20 DUP6 LT ISZERO PUSH2 0xEFD JUMPI DUP2 SWAP1 POP JUMPDEST PUSH2 0xF11 PUSH2 0xF09 DUP6 PUSH2 0xDC9 JUMP JUMPDEST DUP4 ADD DUP3 PUSH2 0xEB0 JUMP JUMPDEST POP POP JUMPDEST POP POP POP JUMP JUMPDEST PUSH1 0x0 DUP3 DUP3 SHR SWAP1 POP SWAP3 SWAP2 POP POP JUMP JUMPDEST PUSH1 0x0 PUSH2 0xF37 PUSH1 0x0 NOT DUP5 PUSH1 0x8 MUL PUSH2 0xF19 JUMP JUMPDEST NOT DUP1 DUP4 AND SWAP2 POP POP SWAP3 SWAP2 POP POP JUMP JUMPDEST PUSH1 0x0 PUSH2 0xF50 DUP4 DUP4 PUSH2 0xF26 JUMP JUMPDEST SWAP2 POP DUP3 PUSH1 0x2 MUL DUP3 OR SWAP1 POP SWAP3 SWAP2 POP POP JUMP JUMPDEST PUSH2 0xF69 DUP3 PUSH2 0x7A5 JUMP JUMPDEST PUSH8 0xFFFFFFFFFFFFFFFF DUP2 GT ISZERO PUSH2 0xF82 JUMPI PUSH2 0xF81 PUSH2 0x951 JUMP JUMPDEST JUMPDEST PUSH2 0xF8C DUP3 SLOAD PUSH2 0xCC2 JUMP JUMPDEST PUSH2 0xF97 DUP3 DUP3 DUP6 PUSH2 0xED3 JUMP JUMPDEST PUSH1 0x0 PUSH1 0x20 SWAP1 POP PUSH1 0x1F DUP4 GT PUSH1 0x1 DUP2 EQ PUSH2 0xFCA JUMPI PUSH1 0x0 DUP5 ISZERO PUSH2 0xFB8 JUMPI DUP3 DUP8 ADD MLOAD SWAP1 POP JUMPDEST PUSH2 0xFC2 DUP6 DUP3 PUSH2 0xF44 JUMP JUMPDEST DUP7 SSTORE POP PUSH2 0x102A JUMP JUMPDEST PUSH1 0x1F NOT DUP5 AND PUSH2 0xFD8 DUP7 PUSH2 0xDB4 JUMP JUMPDEST PUSH1 0x0 JUMPDEST DUP3 DUP2 LT ISZERO PUSH2 0x1000 JUMPI DUP5 DUP10 ADD MLOAD DUP3 SSTORE PUSH1 0x1 DUP3 ADD SWAP2 POP PUSH1 0x20 DUP6 ADD SWAP5 POP PUSH1 0x20 DUP2 ADD SWAP1 POP PUSH2 0xFDB JUMP JUMPDEST DUP7 DUP4 LT ISZERO PUSH2 0x101D JUMPI DUP5 DUP10 ADD MLOAD PUSH2 0x1019 PUSH1 0x1F DUP10 AND DUP3 PUSH2 0xF26 JUMP JUMPDEST DUP4 SSTORE POP JUMPDEST PUSH1 0x1 PUSH1 0x2 DUP9 MUL ADD DUP9 SSTORE POP POP POP JUMPDEST POP POP POP POP POP POP JUMP INVALID LOG2 PUSH5 0x6970667358 0x22 SLT KECCAK256 SMOD 0xE7 0xEB NOT 0x29 DUP6 0xE6 SWAP12 0xEA DUP5 PUSH10 0xEAC090A2098CE15A4D75 DUP4 PUSH23 0x66306F8EE8F2BB12CE64736F6C63430008120033000000 "
				},
				"gasEstimates": {
					"creation": {
						"codeDepositCost": "840000",
						"executionCost": "877",
						"totalCost": "840877"
					},
					"external": {
						"getLength()": "2467",
						"getStudent(uint256)": "infinite",
						"getStudentS()": "infinite",
						"getStudents()": "infinite",
						"popStudent()": "infinite",
						"pushStudent(string,string,uint256,uint256)": "infinite",
						"setStudentS(string,string,uint256,uint256)": "infinite"
					}
				},
				"methodIdentifiers": {
					"getLength()": "be1c766b",
					"getStudent(uint256)": "642f9163",
					"getStudentS()": "025d478c",
					"getStudents()": "f1d064b3",
					"popStudent()": "41571887",
					"pushStudent(string,string,uint256,uint256)": "ca5d45f7",
					"setStudentS(string,string,uint256,uint256)": "a259aeae"
				}
			},
			"storageLayout": {
				"storage": [
					{
						"astId": 371,
						"contract": "contracts-lecture/230504-3.sol:Struct",
						"label": "s",
						"offset": 0,
						"slot": "0",
						"type": "t_struct(Student)368_storage"
					},
					{
						"astId": 375,
						"contract": "contracts-lecture/230504-3.sol:Struct",
						"label": "students",
						"offset": 0,
						"slot": "4",
						"type": "t_array(t_struct(Student)368_storage)dyn_storage"
					}
				],
				"types": {
					"t_array(t_struct(Student)368_storage)dyn_storage": {
						"base": "t_struct(Student)368_storage",
						"encoding": "dynamic_array",
						"label": "struct Struct.Student[]",
						"numberOfBytes": "32"
					},
					"t_string_storage": {
						"encoding": "bytes",
						"label": "string",
						"numberOfBytes": "32"
					},
					"t_struct(Student)368_storage": {
						"encoding": "inplace",
						"label": "struct Struct.Student",
						"members": [
							{
								"astId": 361,
								"contract": "contracts-lecture/230504-3.sol:Struct",
								"label": "name",
								"offset": 0,
								"slot": "0",
								"type": "t_string_storage"
							},
							{
								"astId": 363,
								"contract": "contracts-lecture/230504-3.sol:Struct",
								"label": "gender",
								"offset": 0,
								"slot": "1",
								"type": "t_string_storage"
							},
							{
								"astId": 365,
								"contract": "contracts-lecture/230504-3.sol:Struct",
								"label": "number",
								"offset": 0,
								"slot": "2",
								"type": "t_uint256"
							},
							{
								"astId": 367,
								"contract": "contracts-lecture/230504-3.sol:Struct",
								"label": "birthday",
								"offset": 0,
								"slot": "3",
								"type": "t_uint256"
							}
						],
						"numberOfBytes": "128"
					},
					"t_uint256": {
						"encoding": "inplace",
						"label": "uint256",
						"numberOfBytes": "32"
					}
				}
			},
			"userdoc": {
				"kind": "user",
				"methods": {},
				"version": 1
			}
		}
	}
}