{
	"contracts-lecture/230510-2.sol": {
		"IF2": {
			"abi": [
				{
					"inputs": [],
					"name": "getStudents",
					"outputs": [
						{
							"components": [
								{
									"internalType": "uint256",
									"name": "number",
									"type": "uint256"
								},
								{
									"internalType": "string",
									"name": "name",
									"type": "string"
								},
								{
									"internalType": "uint256",
									"name": "score",
									"type": "uint256"
								},
								{
									"internalType": "string",
									"name": "credit",
									"type": "string"
								}
							],
							"internalType": "struct IF2.student[]",
							"name": "",
							"type": "tuple[]"
						}
					],
					"stateMutability": "view",
					"type": "function"
				},
				{
					"inputs": [],
					"name": "getStudentsABC",
					"outputs": [
						{
							"components": [
								{
									"internalType": "uint256",
									"name": "number",
									"type": "uint256"
								},
								{
									"internalType": "string",
									"name": "name",
									"type": "string"
								},
								{
									"internalType": "uint256",
									"name": "score",
									"type": "uint256"
								},
								{
									"internalType": "string",
									"name": "credit",
									"type": "string"
								}
							],
							"internalType": "struct IF2.student",
							"name": "",
							"type": "tuple"
						},
						{
							"components": [
								{
									"internalType": "uint256",
									"name": "number",
									"type": "uint256"
								},
								{
									"internalType": "string",
									"name": "name",
									"type": "string"
								},
								{
									"internalType": "uint256",
									"name": "score",
									"type": "uint256"
								},
								{
									"internalType": "string",
									"name": "credit",
									"type": "string"
								}
							],
							"internalType": "struct IF2.student",
							"name": "",
							"type": "tuple"
						},
						{
							"components": [
								{
									"internalType": "uint256",
									"name": "number",
									"type": "uint256"
								},
								{
									"internalType": "string",
									"name": "name",
									"type": "string"
								},
								{
									"internalType": "uint256",
									"name": "score",
									"type": "uint256"
								},
								{
									"internalType": "string",
									"name": "credit",
									"type": "string"
								}
							],
							"internalType": "struct IF2.student",
							"name": "",
							"type": "tuple"
						}
					],
					"stateMutability": "view",
					"type": "function"
				},
				{
					"inputs": [
						{
							"internalType": "uint256",
							"name": "_number",
							"type": "uint256"
						},
						{
							"internalType": "string",
							"name": "_name",
							"type": "string"
						},
						{
							"internalType": "uint256",
							"name": "_score",
							"type": "uint256"
						}
					],
					"name": "pushStudent",
					"outputs": [],
					"stateMutability": "nonpayable",
					"type": "function"
				},
				{
					"inputs": [
						{
							"internalType": "uint256",
							"name": "_number",
							"type": "uint256"
						},
						{
							"internalType": "string",
							"name": "_name",
							"type": "string"
						},
						{
							"internalType": "uint256",
							"name": "_score",
							"type": "uint256"
						}
					],
					"name": "pushStudent2",
					"outputs": [],
					"stateMutability": "nonpayable",
					"type": "function"
				},
				{
					"inputs": [
						{
							"internalType": "uint256",
							"name": "_score",
							"type": "uint256"
						}
					],
					"name": "setGrade",
					"outputs": [
						{
							"internalType": "string",
							"name": "",
							"type": "string"
						}
					],
					"stateMutability": "pure",
					"type": "function"
				}
			],
			"devdoc": {
				"kind": "dev",
				"methods": {},
				"version": 1
			},
			"evm": {
				"assembly": "    /* \"contracts-lecture/230510-2.sol\":3007:4229  contract IF2 {... */\n  mstore(0x40, 0x80)\n  callvalue\n  dup1\n  iszero\n  tag_1\n  jumpi\n  0x00\n  dup1\n  revert\ntag_1:\n  pop\n  dataSize(sub_0)\n  dup1\n  dataOffset(sub_0)\n  0x00\n  codecopy\n  0x00\n  return\nstop\n\nsub_0: assembly {\n        /* \"contracts-lecture/230510-2.sol\":3007:4229  contract IF2 {... */\n      mstore(0x40, 0x80)\n      callvalue\n      dup1\n      iszero\n      tag_1\n      jumpi\n      0x00\n      dup1\n      revert\n    tag_1:\n      pop\n      jumpi(tag_2, lt(calldatasize, 0x04))\n      shr(0xe0, calldataload(0x00))\n      dup1\n      0x3b4598b1\n      eq\n      tag_3\n      jumpi\n      dup1\n      0x448e1bed\n      eq\n      tag_4\n      jumpi\n      dup1\n      0x674271cd\n      eq\n      tag_5\n      jumpi\n      dup1\n      0xc731f947\n      eq\n      tag_6\n      jumpi\n      dup1\n      0xf1d064b3\n      eq\n      tag_7\n      jumpi\n    tag_2:\n      0x00\n      dup1\n      revert\n        /* \"contracts-lecture/230510-2.sol\":3324:3702  function pushStudent(uint _number, string memory _name, uint _score) public {... */\n    tag_3:\n      tag_8\n      0x04\n      dup1\n      calldatasize\n      sub\n      dup2\n      add\n      swap1\n      tag_9\n      swap2\n      swap1\n      tag_10\n      jump\t// in\n    tag_9:\n      tag_11\n      jump\t// in\n    tag_8:\n      stop\n        /* \"contracts-lecture/230510-2.sol\":3195:3319  function getStudentsABC() public view returns(student memory, student memory, student memory) {... */\n    tag_4:\n      tag_12\n      tag_13\n      jump\t// in\n    tag_12:\n      mload(0x40)\n      tag_14\n      swap4\n      swap3\n      swap2\n      swap1\n      tag_15\n      jump\t// in\n    tag_14:\n      mload(0x40)\n      dup1\n      swap2\n      sub\n      swap1\n      return\n        /* \"contracts-lecture/230510-2.sol\":3963:4227  function setGrade(uint _score) public pure returns(string memory) {... */\n    tag_5:\n      tag_16\n      0x04\n      dup1\n      calldatasize\n      sub\n      dup2\n      add\n      swap1\n      tag_17\n      swap2\n      swap1\n      tag_18\n      jump\t// in\n    tag_17:\n      tag_19\n      jump\t// in\n    tag_16:\n      mload(0x40)\n      tag_20\n      swap2\n      swap1\n      tag_21\n      jump\t// in\n    tag_20:\n      mload(0x40)\n      dup1\n      swap2\n      sub\n      swap1\n      return\n        /* \"contracts-lecture/230510-2.sol\":3707:3863  function pushStudent2(uint _number, string memory _name, uint _score) public {... */\n    tag_6:\n      tag_22\n      0x04\n      dup1\n      calldatasize\n      sub\n      dup2\n      add\n      swap1\n      tag_23\n      swap2\n      swap1\n      tag_10\n      jump\t// in\n    tag_23:\n      tag_24\n      jump\t// in\n    tag_22:\n      stop\n        /* \"contracts-lecture/230510-2.sol\":3868:3958  function getStudents() public view returns(student[] memory) {... */\n    tag_7:\n      tag_25\n      tag_26\n      jump\t// in\n    tag_25:\n      mload(0x40)\n      tag_27\n      swap2\n      swap1\n      tag_28\n      jump\t// in\n    tag_27:\n      mload(0x40)\n      dup1\n      swap2\n      sub\n      swap1\n      return\n        /* \"contracts-lecture/230510-2.sol\":3324:3702  function pushStudent(uint _number, string memory _name, uint _score) public {... */\n    tag_11:\n        /* \"contracts-lecture/230510-2.sol\":3408:3429  string memory _credit */\n      0x60\n        /* \"contracts-lecture/230510-2.sol\":3448:3450  90 */\n      0x5a\n        /* \"contracts-lecture/230510-2.sol\":3440:3446  _score */\n      dup3\n        /* \"contracts-lecture/230510-2.sol\":3440:3450  _score>=90 */\n      lt\n        /* \"contracts-lecture/230510-2.sol\":3437:3634  if(_score>=90) {... */\n      tag_30\n      jumpi\n        /* \"contracts-lecture/230510-2.sol\":3463:3476  _credit = 'A' */\n      mload(0x40)\n      dup1\n      0x40\n      add\n      0x40\n      mstore\n      dup1\n      0x01\n      dup2\n      mstore\n      0x20\n      add\n      0x4100000000000000000000000000000000000000000000000000000000000000\n      dup2\n      mstore\n      pop\n      swap1\n      pop\n        /* \"contracts-lecture/230510-2.sol\":3437:3634  if(_score>=90) {... */\n      jump(tag_31)\n    tag_30:\n        /* \"contracts-lecture/230510-2.sol\":3503:3505  80 */\n      0x50\n        /* \"contracts-lecture/230510-2.sol\":3494:3500  _score */\n      dup3\n        /* \"contracts-lecture/230510-2.sol\":3494:3505  _score >=80 */\n      lt\n        /* \"contracts-lecture/230510-2.sol\":3491:3634  if(_score >=80) {... */\n      tag_32\n      jumpi\n        /* \"contracts-lecture/230510-2.sol\":3518:3531  _credit = 'B' */\n      mload(0x40)\n      dup1\n      0x40\n      add\n      0x40\n      mstore\n      dup1\n      0x01\n      dup2\n      mstore\n      0x20\n      add\n      0x4200000000000000000000000000000000000000000000000000000000000000\n      dup2\n      mstore\n      pop\n      swap1\n      pop\n        /* \"contracts-lecture/230510-2.sol\":3491:3634  if(_score >=80) {... */\n      jump(tag_33)\n    tag_32:\n        /* \"contracts-lecture/230510-2.sol\":3558:3560  70 */\n      0x46\n        /* \"contracts-lecture/230510-2.sol\":3549:3555  _score */\n      dup3\n        /* \"contracts-lecture/230510-2.sol\":3549:3560  _score >=70 */\n      lt\n        /* \"contracts-lecture/230510-2.sol\":3546:3634  if(_score >=70) {... */\n      tag_34\n      jumpi\n        /* \"contracts-lecture/230510-2.sol\":3573:3586  _credit = 'C' */\n      mload(0x40)\n      dup1\n      0x40\n      add\n      0x40\n      mstore\n      dup1\n      0x01\n      dup2\n      mstore\n      0x20\n      add\n      0x4300000000000000000000000000000000000000000000000000000000000000\n      dup2\n      mstore\n      pop\n      swap1\n      pop\n        /* \"contracts-lecture/230510-2.sol\":3546:3634  if(_score >=70) {... */\n      jump(tag_35)\n    tag_34:\n        /* \"contracts-lecture/230510-2.sol\":3612:3625  _credit = 'F' */\n      mload(0x40)\n      dup1\n      0x40\n      add\n      0x40\n      mstore\n      dup1\n      0x01\n      dup2\n      mstore\n      0x20\n      add\n      0x4600000000000000000000000000000000000000000000000000000000000000\n      dup2\n      mstore\n      pop\n      swap1\n      pop\n        /* \"contracts-lecture/230510-2.sol\":3546:3634  if(_score >=70) {... */\n    tag_35:\n        /* \"contracts-lecture/230510-2.sol\":3491:3634  if(_score >=80) {... */\n    tag_33:\n        /* \"contracts-lecture/230510-2.sol\":3437:3634  if(_score>=90) {... */\n    tag_31:\n        /* \"contracts-lecture/230510-2.sol\":3641:3649  Students */\n      0x0c\n        /* \"contracts-lecture/230510-2.sol\":3655:3695  student(_number, _name, _score, _credit) */\n      mload(0x40)\n      dup1\n      0x80\n      add\n      0x40\n      mstore\n      dup1\n        /* \"contracts-lecture/230510-2.sol\":3663:3670  _number */\n      dup7\n        /* \"contracts-lecture/230510-2.sol\":3655:3695  student(_number, _name, _score, _credit) */\n      dup2\n      mstore\n      0x20\n      add\n        /* \"contracts-lecture/230510-2.sol\":3672:3677  _name */\n      dup6\n        /* \"contracts-lecture/230510-2.sol\":3655:3695  student(_number, _name, _score, _credit) */\n      dup2\n      mstore\n      0x20\n      add\n        /* \"contracts-lecture/230510-2.sol\":3679:3685  _score */\n      dup5\n        /* \"contracts-lecture/230510-2.sol\":3655:3695  student(_number, _name, _score, _credit) */\n      dup2\n      mstore\n      0x20\n      add\n        /* \"contracts-lecture/230510-2.sol\":3687:3694  _credit */\n      dup4\n        /* \"contracts-lecture/230510-2.sol\":3655:3695  student(_number, _name, _score, _credit) */\n      dup2\n      mstore\n      pop\n        /* \"contracts-lecture/230510-2.sol\":3641:3696  Students.push(student(_number, _name, _score, _credit)) */\n      swap1\n      dup1\n      0x01\n      dup2\n      sload\n      add\n      dup1\n      dup3\n      sstore\n      dup1\n      swap2\n      pop\n      pop\n      0x01\n      swap1\n      sub\n      swap1\n      0x00\n      mstore\n      keccak256(0x00, 0x20)\n      swap1\n      0x04\n      mul\n      add\n      0x00\n      swap1\n      swap2\n      swap1\n      swap2\n      swap1\n      swap2\n      pop\n      0x00\n      dup3\n      add\n      mload\n      dup2\n      0x00\n      add\n      sstore\n      0x20\n      dup3\n      add\n      mload\n      dup2\n      0x01\n      add\n      swap1\n      dup2\n      tag_37\n      swap2\n      swap1\n      tag_38\n      jump\t// in\n    tag_37:\n      pop\n      0x40\n      dup3\n      add\n      mload\n      dup2\n      0x02\n      add\n      sstore\n      0x60\n      dup3\n      add\n      mload\n      dup2\n      0x03\n      add\n      swap1\n      dup2\n      tag_39\n      swap2\n      swap1\n      tag_38\n      jump\t// in\n    tag_39:\n      pop\n      pop\n      pop\n        /* \"contracts-lecture/230510-2.sol\":3400:3702  {... */\n      pop\n        /* \"contracts-lecture/230510-2.sol\":3324:3702  function pushStudent(uint _number, string memory _name, uint _score) public {... */\n      pop\n      pop\n      pop\n      jump\t// out\n        /* \"contracts-lecture/230510-2.sol\":3195:3319  function getStudentsABC() public view returns(student memory, student memory, student memory) {... */\n    tag_13:\n        /* \"contracts-lecture/230510-2.sol\":3241:3255  student memory */\n      tag_40\n      tag_41\n      jump\t// in\n    tag_40:\n        /* \"contracts-lecture/230510-2.sol\":3257:3271  student memory */\n      tag_42\n      tag_41\n      jump\t// in\n    tag_42:\n        /* \"contracts-lecture/230510-2.sol\":3273:3287  student memory */\n      tag_43\n      tag_41\n      jump\t// in\n    tag_43:\n        /* \"contracts-lecture/230510-2.sol\":3305:3306  a */\n      0x00\n        /* \"contracts-lecture/230510-2.sol\":3308:3309  b */\n      0x04\n        /* \"contracts-lecture/230510-2.sol\":3311:3312  c */\n      0x08\n        /* \"contracts-lecture/230510-2.sol\":3297:3313  return (a, b, c) */\n      dup3\n      mload(0x40)\n      dup1\n      0x80\n      add\n      0x40\n      mstore\n      swap1\n      dup2\n      0x00\n      dup3\n      add\n      sload\n      dup2\n      mstore\n      0x20\n      add\n      0x01\n      dup3\n      add\n      dup1\n      sload\n      tag_45\n      swap1\n      tag_46\n      jump\t// in\n    tag_45:\n      dup1\n      0x1f\n      add\n      0x20\n      dup1\n      swap2\n      div\n      mul\n      0x20\n      add\n      mload(0x40)\n      swap1\n      dup2\n      add\n      0x40\n      mstore\n      dup1\n      swap3\n      swap2\n      swap1\n      dup2\n      dup2\n      mstore\n      0x20\n      add\n      dup3\n      dup1\n      sload\n      tag_47\n      swap1\n      tag_46\n      jump\t// in\n    tag_47:\n      dup1\n      iszero\n      tag_48\n      jumpi\n      dup1\n      0x1f\n      lt\n      tag_49\n      jumpi\n      0x0100\n      dup1\n      dup4\n      sload\n      div\n      mul\n      dup4\n      mstore\n      swap2\n      0x20\n      add\n      swap2\n      jump(tag_48)\n    tag_49:\n      dup3\n      add\n      swap2\n      swap1\n      0x00\n      mstore\n      keccak256(0x00, 0x20)\n      swap1\n    tag_50:\n      dup2\n      sload\n      dup2\n      mstore\n      swap1\n      0x01\n      add\n      swap1\n      0x20\n      add\n      dup1\n      dup4\n      gt\n      tag_50\n      jumpi\n      dup3\n      swap1\n      sub\n      0x1f\n      and\n      dup3\n      add\n      swap2\n    tag_48:\n      pop\n      pop\n      pop\n      pop\n      pop\n      dup2\n      mstore\n      0x20\n      add\n      0x02\n      dup3\n      add\n      sload\n      dup2\n      mstore\n      0x20\n      add\n      0x03\n      dup3\n      add\n      dup1\n      sload\n      tag_51\n      swap1\n      tag_46\n      jump\t// in\n    tag_51:\n      dup1\n      0x1f\n      add\n      0x20\n      dup1\n      swap2\n      div\n      mul\n      0x20\n      add\n      mload(0x40)\n      swap1\n      dup2\n      add\n      0x40\n      mstore\n      dup1\n      swap3\n      swap2\n      swap1\n      dup2\n      dup2\n      mstore\n      0x20\n      add\n      dup3\n      dup1\n      sload\n      tag_52\n      swap1\n      tag_46\n      jump\t// in\n    tag_52:\n      dup1\n      iszero\n      tag_53\n      jumpi\n      dup1\n      0x1f\n      lt\n      tag_54\n      jumpi\n      0x0100\n      dup1\n      dup4\n      sload\n      div\n      mul\n      dup4\n      mstore\n      swap2\n      0x20\n      add\n      swap2\n      jump(tag_53)\n    tag_54:\n      dup3\n      add\n      swap2\n      swap1\n      0x00\n      mstore\n      keccak256(0x00, 0x20)\n      swap1\n    tag_55:\n      dup2\n      sload\n      dup2\n      mstore\n      swap1\n      0x01\n      add\n      swap1\n      0x20\n      add\n      dup1\n      dup4\n      gt\n      tag_55\n      jumpi\n      dup3\n      swap1\n      sub\n      0x1f\n      and\n      dup3\n      add\n      swap2\n    tag_53:\n      pop\n      pop\n      pop\n      pop\n      pop\n      dup2\n      mstore\n      pop\n      pop\n      swap3\n      pop\n      dup2\n      mload(0x40)\n      dup1\n      0x80\n      add\n      0x40\n      mstore\n      swap1\n      dup2\n      0x00\n      dup3\n      add\n      sload\n      dup2\n      mstore\n      0x20\n      add\n      0x01\n      dup3\n      add\n      dup1\n      sload\n      tag_56\n      swap1\n      tag_46\n      jump\t// in\n    tag_56:\n      dup1\n      0x1f\n      add\n      0x20\n      dup1\n      swap2\n      div\n      mul\n      0x20\n      add\n      mload(0x40)\n      swap1\n      dup2\n      add\n      0x40\n      mstore\n      dup1\n      swap3\n      swap2\n      swap1\n      dup2\n      dup2\n      mstore\n      0x20\n      add\n      dup3\n      dup1\n      sload\n      tag_57\n      swap1\n      tag_46\n      jump\t// in\n    tag_57:\n      dup1\n      iszero\n      tag_58\n      jumpi\n      dup1\n      0x1f\n      lt\n      tag_59\n      jumpi\n      0x0100\n      dup1\n      dup4\n      sload\n      div\n      mul\n      dup4\n      mstore\n      swap2\n      0x20\n      add\n      swap2\n      jump(tag_58)\n    tag_59:\n      dup3\n      add\n      swap2\n      swap1\n      0x00\n      mstore\n      keccak256(0x00, 0x20)\n      swap1\n    tag_60:\n      dup2\n      sload\n      dup2\n      mstore\n      swap1\n      0x01\n      add\n      swap1\n      0x20\n      add\n      dup1\n      dup4\n      gt\n      tag_60\n      jumpi\n      dup3\n      swap1\n      sub\n      0x1f\n      and\n      dup3\n      add\n      swap2\n    tag_58:\n      pop\n      pop\n      pop\n      pop\n      pop\n      dup2\n      mstore\n      0x20\n      add\n      0x02\n      dup3\n      add\n      sload\n      dup2\n      mstore\n      0x20\n      add\n      0x03\n      dup3\n      add\n      dup1\n      sload\n      tag_61\n      swap1\n      tag_46\n      jump\t// in\n    tag_61:\n      dup1\n      0x1f\n      add\n      0x20\n      dup1\n      swap2\n      div\n      mul\n      0x20\n      add\n      mload(0x40)\n      swap1\n      dup2\n      add\n      0x40\n      mstore\n      dup1\n      swap3\n      swap2\n      swap1\n      dup2\n      dup2\n      mstore\n      0x20\n      add\n      dup3\n      dup1\n      sload\n      tag_62\n      swap1\n      tag_46\n      jump\t// in\n    tag_62:\n      dup1\n      iszero\n      tag_63\n      jumpi\n      dup1\n      0x1f\n      lt\n      tag_64\n      jumpi\n      0x0100\n      dup1\n      dup4\n      sload\n      div\n      mul\n      dup4\n      mstore\n      swap2\n      0x20\n      add\n      swap2\n      jump(tag_63)\n    tag_64:\n      dup3\n      add\n      swap2\n      swap1\n      0x00\n      mstore\n      keccak256(0x00, 0x20)\n      swap1\n    tag_65:\n      dup2\n      sload\n      dup2\n      mstore\n      swap1\n      0x01\n      add\n      swap1\n      0x20\n      add\n      dup1\n      dup4\n      gt\n      tag_65\n      jumpi\n      dup3\n      swap1\n      sub\n      0x1f\n      and\n      dup3\n      add\n      swap2\n    tag_63:\n      pop\n      pop\n      pop\n      pop\n      pop\n      dup2\n      mstore\n      pop\n      pop\n      swap2\n      pop\n      dup1\n      mload(0x40)\n      dup1\n      0x80\n      add\n      0x40\n      mstore\n      swap1\n      dup2\n      0x00\n      dup3\n      add\n      sload\n      dup2\n      mstore\n      0x20\n      add\n      0x01\n      dup3\n      add\n      dup1\n      sload\n      tag_66\n      swap1\n      tag_46\n      jump\t// in\n    tag_66:\n      dup1\n      0x1f\n      add\n      0x20\n      dup1\n      swap2\n      div\n      mul\n      0x20\n      add\n      mload(0x40)\n      swap1\n      dup2\n      add\n      0x40\n      mstore\n      dup1\n      swap3\n      swap2\n      swap1\n      dup2\n      dup2\n      mstore\n      0x20\n      add\n      dup3\n      dup1\n      sload\n      tag_67\n      swap1\n      tag_46\n      jump\t// in\n    tag_67:\n      dup1\n      iszero\n      tag_68\n      jumpi\n      dup1\n      0x1f\n      lt\n      tag_69\n      jumpi\n      0x0100\n      dup1\n      dup4\n      sload\n      div\n      mul\n      dup4\n      mstore\n      swap2\n      0x20\n      add\n      swap2\n      jump(tag_68)\n    tag_69:\n      dup3\n      add\n      swap2\n      swap1\n      0x00\n      mstore\n      keccak256(0x00, 0x20)\n      swap1\n    tag_70:\n      dup2\n      sload\n      dup2\n      mstore\n      swap1\n      0x01\n      add\n      swap1\n      0x20\n      add\n      dup1\n      dup4\n      gt\n      tag_70\n      jumpi\n      dup3\n      swap1\n      sub\n      0x1f\n      and\n      dup3\n      add\n      swap2\n    tag_68:\n      pop\n      pop\n      pop\n      pop\n      pop\n      dup2\n      mstore\n      0x20\n      add\n      0x02\n      dup3\n      add\n      sload\n      dup2\n      mstore\n      0x20\n      add\n      0x03\n      dup3\n      add\n      dup1\n      sload\n      tag_71\n      swap1\n      tag_46\n      jump\t// in\n    tag_71:\n      dup1\n      0x1f\n      add\n      0x20\n      dup1\n      swap2\n      div\n      mul\n      0x20\n      add\n      mload(0x40)\n      swap1\n      dup2\n      add\n      0x40\n      mstore\n      dup1\n      swap3\n      swap2\n      swap1\n      dup2\n      dup2\n      mstore\n      0x20\n      add\n      dup3\n      dup1\n      sload\n      tag_72\n      swap1\n      tag_46\n      jump\t// in\n    tag_72:\n      dup1\n      iszero\n      tag_73\n      jumpi\n      dup1\n      0x1f\n      lt\n      tag_74\n      jumpi\n      0x0100\n      dup1\n      dup4\n      sload\n      div\n      mul\n      dup4\n      mstore\n      swap2\n      0x20\n      add\n      swap2\n      jump(tag_73)\n    tag_74:\n      dup3\n      add\n      swap2\n      swap1\n      0x00\n      mstore\n      keccak256(0x00, 0x20)\n      swap1\n    tag_75:\n      dup2\n      sload\n      dup2\n      mstore\n      swap1\n      0x01\n      add\n      swap1\n      0x20\n      add\n      dup1\n      dup4\n      gt\n      tag_75\n      jumpi\n      dup3\n      swap1\n      sub\n      0x1f\n      and\n      dup3\n      add\n      swap2\n    tag_73:\n      pop\n      pop\n      pop\n      pop\n      pop\n      dup2\n      mstore\n      pop\n      pop\n      swap1\n      pop\n      swap3\n      pop\n      swap3\n      pop\n      swap3\n      pop\n        /* \"contracts-lecture/230510-2.sol\":3195:3319  function getStudentsABC() public view returns(student memory, student memory, student memory) {... */\n      swap1\n      swap2\n      swap3\n      jump\t// out\n        /* \"contracts-lecture/230510-2.sol\":3963:4227  function setGrade(uint _score) public pure returns(string memory) {... */\n    tag_19:\n        /* \"contracts-lecture/230510-2.sol\":4014:4027  string memory */\n      0x60\n        /* \"contracts-lecture/230510-2.sol\":4048:4050  90 */\n      0x5a\n        /* \"contracts-lecture/230510-2.sol\":4040:4046  _score */\n      dup3\n        /* \"contracts-lecture/230510-2.sol\":4040:4050  _score>=90 */\n      lt\n        /* \"contracts-lecture/230510-2.sol\":4037:4222  if(_score>=90) {... */\n      tag_77\n      jumpi\n        /* \"contracts-lecture/230510-2.sol\":4063:4073  return 'A' */\n      mload(0x40)\n      dup1\n      0x40\n      add\n      0x40\n      mstore\n      dup1\n      0x01\n      dup2\n      mstore\n      0x20\n      add\n      0x4100000000000000000000000000000000000000000000000000000000000000\n      dup2\n      mstore\n      pop\n      swap1\n      pop\n      jump(tag_76)\n        /* \"contracts-lecture/230510-2.sol\":4037:4222  if(_score>=90) {... */\n    tag_77:\n        /* \"contracts-lecture/230510-2.sol\":4100:4102  80 */\n      0x50\n        /* \"contracts-lecture/230510-2.sol\":4091:4097  _score */\n      dup3\n        /* \"contracts-lecture/230510-2.sol\":4091:4102  _score >=80 */\n      lt\n        /* \"contracts-lecture/230510-2.sol\":4088:4222  if(_score >=80) {... */\n      tag_79\n      jumpi\n        /* \"contracts-lecture/230510-2.sol\":4115:4125  return 'B' */\n      mload(0x40)\n      dup1\n      0x40\n      add\n      0x40\n      mstore\n      dup1\n      0x01\n      dup2\n      mstore\n      0x20\n      add\n      0x4200000000000000000000000000000000000000000000000000000000000000\n      dup2\n      mstore\n      pop\n      swap1\n      pop\n      jump(tag_76)\n        /* \"contracts-lecture/230510-2.sol\":4088:4222  if(_score >=80) {... */\n    tag_79:\n        /* \"contracts-lecture/230510-2.sol\":4152:4154  70 */\n      0x46\n        /* \"contracts-lecture/230510-2.sol\":4143:4149  _score */\n      dup3\n        /* \"contracts-lecture/230510-2.sol\":4143:4154  _score >=70 */\n      lt\n        /* \"contracts-lecture/230510-2.sol\":4140:4222  if(_score >=70) {... */\n      tag_81\n      jumpi\n        /* \"contracts-lecture/230510-2.sol\":4167:4177  return 'C' */\n      mload(0x40)\n      dup1\n      0x40\n      add\n      0x40\n      mstore\n      dup1\n      0x01\n      dup2\n      mstore\n      0x20\n      add\n      0x4300000000000000000000000000000000000000000000000000000000000000\n      dup2\n      mstore\n      pop\n      swap1\n      pop\n      jump(tag_76)\n        /* \"contracts-lecture/230510-2.sol\":4140:4222  if(_score >=70) {... */\n    tag_81:\n        /* \"contracts-lecture/230510-2.sol\":4203:4213  return 'F' */\n      mload(0x40)\n      dup1\n      0x40\n      add\n      0x40\n      mstore\n      dup1\n      0x01\n      dup2\n      mstore\n      0x20\n      add\n      0x4600000000000000000000000000000000000000000000000000000000000000\n      dup2\n      mstore\n      pop\n      swap1\n      pop\n        /* \"contracts-lecture/230510-2.sol\":3963:4227  function setGrade(uint _score) public pure returns(string memory) {... */\n    tag_76:\n      swap2\n      swap1\n      pop\n      jump\t// out\n        /* \"contracts-lecture/230510-2.sol\":3707:3863  function pushStudent2(uint _number, string memory _name, uint _score) public {... */\n    tag_24:\n        /* \"contracts-lecture/230510-2.sol\":3793:3801  Students */\n      0x0c\n        /* \"contracts-lecture/230510-2.sol\":3807:3856  student(_number, _name, _score, setGrade(_score)) */\n      mload(0x40)\n      dup1\n      0x80\n      add\n      0x40\n      mstore\n      dup1\n        /* \"contracts-lecture/230510-2.sol\":3815:3822  _number */\n      dup6\n        /* \"contracts-lecture/230510-2.sol\":3807:3856  student(_number, _name, _score, setGrade(_score)) */\n      dup2\n      mstore\n      0x20\n      add\n        /* \"contracts-lecture/230510-2.sol\":3824:3829  _name */\n      dup5\n        /* \"contracts-lecture/230510-2.sol\":3807:3856  student(_number, _name, _score, setGrade(_score)) */\n      dup2\n      mstore\n      0x20\n      add\n        /* \"contracts-lecture/230510-2.sol\":3831:3837  _score */\n      dup4\n        /* \"contracts-lecture/230510-2.sol\":3807:3856  student(_number, _name, _score, setGrade(_score)) */\n      dup2\n      mstore\n      0x20\n      add\n        /* \"contracts-lecture/230510-2.sol\":3839:3855  setGrade(_score) */\n      tag_84\n        /* \"contracts-lecture/230510-2.sol\":3848:3854  _score */\n      dup5\n        /* \"contracts-lecture/230510-2.sol\":3839:3847  setGrade */\n      tag_19\n        /* \"contracts-lecture/230510-2.sol\":3839:3855  setGrade(_score) */\n      jump\t// in\n    tag_84:\n        /* \"contracts-lecture/230510-2.sol\":3807:3856  student(_number, _name, _score, setGrade(_score)) */\n      dup2\n      mstore\n      pop\n        /* \"contracts-lecture/230510-2.sol\":3793:3857  Students.push(student(_number, _name, _score, setGrade(_score))) */\n      swap1\n      dup1\n      0x01\n      dup2\n      sload\n      add\n      dup1\n      dup3\n      sstore\n      dup1\n      swap2\n      pop\n      pop\n      0x01\n      swap1\n      sub\n      swap1\n      0x00\n      mstore\n      keccak256(0x00, 0x20)\n      swap1\n      0x04\n      mul\n      add\n      0x00\n      swap1\n      swap2\n      swap1\n      swap2\n      swap1\n      swap2\n      pop\n      0x00\n      dup3\n      add\n      mload\n      dup2\n      0x00\n      add\n      sstore\n      0x20\n      dup3\n      add\n      mload\n      dup2\n      0x01\n      add\n      swap1\n      dup2\n      tag_86\n      swap2\n      swap1\n      tag_38\n      jump\t// in\n    tag_86:\n      pop\n      0x40\n      dup3\n      add\n      mload\n      dup2\n      0x02\n      add\n      sstore\n      0x60\n      dup3\n      add\n      mload\n      dup2\n      0x03\n      add\n      swap1\n      dup2\n      tag_87\n      swap2\n      swap1\n      tag_38\n      jump\t// in\n    tag_87:\n      pop\n      pop\n      pop\n        /* \"contracts-lecture/230510-2.sol\":3707:3863  function pushStudent2(uint _number, string memory _name, uint _score) public {... */\n      pop\n      pop\n      pop\n      jump\t// out\n        /* \"contracts-lecture/230510-2.sol\":3868:3958  function getStudents() public view returns(student[] memory) {... */\n    tag_26:\n        /* \"contracts-lecture/230510-2.sol\":3911:3927  student[] memory */\n      0x60\n        /* \"contracts-lecture/230510-2.sol\":3944:3952  Students */\n      0x0c\n        /* \"contracts-lecture/230510-2.sol\":3937:3952  return Students */\n      dup1\n      sload\n      dup1\n      0x20\n      mul\n      0x20\n      add\n      mload(0x40)\n      swap1\n      dup2\n      add\n      0x40\n      mstore\n      dup1\n      swap3\n      swap2\n      swap1\n      dup2\n      dup2\n      mstore\n      0x20\n      add\n      0x00\n      swap1\n    tag_89:\n      dup3\n      dup3\n      lt\n      iszero\n      tag_90\n      jumpi\n      dup4\n      dup3\n      swap1\n      0x00\n      mstore\n      keccak256(0x00, 0x20)\n      swap1\n      0x04\n      mul\n      add\n      mload(0x40)\n      dup1\n      0x80\n      add\n      0x40\n      mstore\n      swap1\n      dup2\n      0x00\n      dup3\n      add\n      sload\n      dup2\n      mstore\n      0x20\n      add\n      0x01\n      dup3\n      add\n      dup1\n      sload\n      tag_92\n      swap1\n      tag_46\n      jump\t// in\n    tag_92:\n      dup1\n      0x1f\n      add\n      0x20\n      dup1\n      swap2\n      div\n      mul\n      0x20\n      add\n      mload(0x40)\n      swap1\n      dup2\n      add\n      0x40\n      mstore\n      dup1\n      swap3\n      swap2\n      swap1\n      dup2\n      dup2\n      mstore\n      0x20\n      add\n      dup3\n      dup1\n      sload\n      tag_93\n      swap1\n      tag_46\n      jump\t// in\n    tag_93:\n      dup1\n      iszero\n      tag_94\n      jumpi\n      dup1\n      0x1f\n      lt\n      tag_95\n      jumpi\n      0x0100\n      dup1\n      dup4\n      sload\n      div\n      mul\n      dup4\n      mstore\n      swap2\n      0x20\n      add\n      swap2\n      jump(tag_94)\n    tag_95:\n      dup3\n      add\n      swap2\n      swap1\n      0x00\n      mstore\n      keccak256(0x00, 0x20)\n      swap1\n    tag_96:\n      dup2\n      sload\n      dup2\n      mstore\n      swap1\n      0x01\n      add\n      swap1\n      0x20\n      add\n      dup1\n      dup4\n      gt\n      tag_96\n      jumpi\n      dup3\n      swap1\n      sub\n      0x1f\n      and\n      dup3\n      add\n      swap2\n    tag_94:\n      pop\n      pop\n      pop\n      pop\n      pop\n      dup2\n      mstore\n      0x20\n      add\n      0x02\n      dup3\n      add\n      sload\n      dup2\n      mstore\n      0x20\n      add\n      0x03\n      dup3\n      add\n      dup1\n      sload\n      tag_97\n      swap1\n      tag_46\n      jump\t// in\n    tag_97:\n      dup1\n      0x1f\n      add\n      0x20\n      dup1\n      swap2\n      div\n      mul\n      0x20\n      add\n      mload(0x40)\n      swap1\n      dup2\n      add\n      0x40\n      mstore\n      dup1\n      swap3\n      swap2\n      swap1\n      dup2\n      dup2\n      mstore\n      0x20\n      add\n      dup3\n      dup1\n      sload\n      tag_98\n      swap1\n      tag_46\n      jump\t// in\n    tag_98:\n      dup1\n      iszero\n      tag_99\n      jumpi\n      dup1\n      0x1f\n      lt\n      tag_100\n      jumpi\n      0x0100\n      dup1\n      dup4\n      sload\n      div\n      mul\n      dup4\n      mstore\n      swap2\n      0x20\n      add\n      swap2\n      jump(tag_99)\n    tag_100:\n      dup3\n      add\n      swap2\n      swap1\n      0x00\n      mstore\n      keccak256(0x00, 0x20)\n      swap1\n    tag_101:\n      dup2\n      sload\n      dup2\n      mstore\n      swap1\n      0x01\n      add\n      swap1\n      0x20\n      add\n      dup1\n      dup4\n      gt\n      tag_101\n      jumpi\n      dup3\n      swap1\n      sub\n      0x1f\n      and\n      dup3\n      add\n      swap2\n    tag_99:\n      pop\n      pop\n      pop\n      pop\n      pop\n      dup2\n      mstore\n      pop\n      pop\n      dup2\n      mstore\n      0x20\n      add\n      swap1\n      0x01\n      add\n      swap1\n      jump(tag_89)\n    tag_90:\n      pop\n      pop\n      pop\n      pop\n      swap1\n      pop\n        /* \"contracts-lecture/230510-2.sol\":3868:3958  function getStudents() public view returns(student[] memory) {... */\n      swap1\n      jump\t// out\n    tag_41:\n      mload(0x40)\n      dup1\n      0x80\n      add\n      0x40\n      mstore\n      dup1\n      0x00\n      dup2\n      mstore\n      0x20\n      add\n      0x60\n      dup2\n      mstore\n      0x20\n      add\n      0x00\n      dup2\n      mstore\n      0x20\n      add\n      0x60\n      dup2\n      mstore\n      pop\n      swap1\n      jump\t// out\n        /* \"#utility.yul\":7:82   */\n    tag_102:\n        /* \"#utility.yul\":40:46   */\n      0x00\n        /* \"#utility.yul\":73:75   */\n      0x40\n        /* \"#utility.yul\":67:76   */\n      mload\n        /* \"#utility.yul\":57:76   */\n      swap1\n      pop\n        /* \"#utility.yul\":7:82   */\n      swap1\n      jump\t// out\n        /* \"#utility.yul\":88:205   */\n    tag_103:\n        /* \"#utility.yul\":197:198   */\n      0x00\n        /* \"#utility.yul\":194:195   */\n      dup1\n        /* \"#utility.yul\":187:199   */\n      revert\n        /* \"#utility.yul\":211:328   */\n    tag_104:\n        /* \"#utility.yul\":320:321   */\n      0x00\n        /* \"#utility.yul\":317:318   */\n      dup1\n        /* \"#utility.yul\":310:322   */\n      revert\n        /* \"#utility.yul\":334:411   */\n    tag_105:\n        /* \"#utility.yul\":371:378   */\n      0x00\n        /* \"#utility.yul\":400:405   */\n      dup2\n        /* \"#utility.yul\":389:405   */\n      swap1\n      pop\n        /* \"#utility.yul\":334:411   */\n      swap2\n      swap1\n      pop\n      jump\t// out\n        /* \"#utility.yul\":417:539   */\n    tag_106:\n        /* \"#utility.yul\":490:514   */\n      tag_155\n        /* \"#utility.yul\":508:513   */\n      dup2\n        /* \"#utility.yul\":490:514   */\n      tag_105\n      jump\t// in\n    tag_155:\n        /* \"#utility.yul\":483:488   */\n      dup2\n        /* \"#utility.yul\":480:515   */\n      eq\n        /* \"#utility.yul\":470:533   */\n      tag_156\n      jumpi\n        /* \"#utility.yul\":529:530   */\n      0x00\n        /* \"#utility.yul\":526:527   */\n      dup1\n        /* \"#utility.yul\":519:531   */\n      revert\n        /* \"#utility.yul\":470:533   */\n    tag_156:\n        /* \"#utility.yul\":417:539   */\n      pop\n      jump\t// out\n        /* \"#utility.yul\":545:684   */\n    tag_107:\n        /* \"#utility.yul\":591:596   */\n      0x00\n        /* \"#utility.yul\":629:635   */\n      dup2\n        /* \"#utility.yul\":616:636   */\n      calldataload\n        /* \"#utility.yul\":607:636   */\n      swap1\n      pop\n        /* \"#utility.yul\":645:678   */\n      tag_158\n        /* \"#utility.yul\":672:677   */\n      dup2\n        /* \"#utility.yul\":645:678   */\n      tag_106\n      jump\t// in\n    tag_158:\n        /* \"#utility.yul\":545:684   */\n      swap3\n      swap2\n      pop\n      pop\n      jump\t// out\n        /* \"#utility.yul\":690:807   */\n    tag_108:\n        /* \"#utility.yul\":799:800   */\n      0x00\n        /* \"#utility.yul\":796:797   */\n      dup1\n        /* \"#utility.yul\":789:801   */\n      revert\n        /* \"#utility.yul\":813:930   */\n    tag_109:\n        /* \"#utility.yul\":922:923   */\n      0x00\n        /* \"#utility.yul\":919:920   */\n      dup1\n        /* \"#utility.yul\":912:924   */\n      revert\n        /* \"#utility.yul\":936:1038   */\n    tag_110:\n        /* \"#utility.yul\":977:983   */\n      0x00\n        /* \"#utility.yul\":1028:1030   */\n      0x1f\n        /* \"#utility.yul\":1024:1031   */\n      not\n        /* \"#utility.yul\":1019:1021   */\n      0x1f\n        /* \"#utility.yul\":1012:1017   */\n      dup4\n        /* \"#utility.yul\":1008:1022   */\n      add\n        /* \"#utility.yul\":1004:1032   */\n      and\n        /* \"#utility.yul\":994:1032   */\n      swap1\n      pop\n        /* \"#utility.yul\":936:1038   */\n      swap2\n      swap1\n      pop\n      jump\t// out\n        /* \"#utility.yul\":1044:1224   */\n    tag_111:\n        /* \"#utility.yul\":1092:1169   */\n      0x4e487b7100000000000000000000000000000000000000000000000000000000\n        /* \"#utility.yul\":1089:1090   */\n      0x00\n        /* \"#utility.yul\":1082:1170   */\n      mstore\n        /* \"#utility.yul\":1189:1193   */\n      0x41\n        /* \"#utility.yul\":1186:1187   */\n      0x04\n        /* \"#utility.yul\":1179:1194   */\n      mstore\n        /* \"#utility.yul\":1213:1217   */\n      0x24\n        /* \"#utility.yul\":1210:1211   */\n      0x00\n        /* \"#utility.yul\":1203:1218   */\n      revert\n        /* \"#utility.yul\":1230:1511   */\n    tag_112:\n        /* \"#utility.yul\":1313:1340   */\n      tag_164\n        /* \"#utility.yul\":1335:1339   */\n      dup3\n        /* \"#utility.yul\":1313:1340   */\n      tag_110\n      jump\t// in\n    tag_164:\n        /* \"#utility.yul\":1305:1311   */\n      dup2\n        /* \"#utility.yul\":1301:1341   */\n      add\n        /* \"#utility.yul\":1443:1449   */\n      dup2\n        /* \"#utility.yul\":1431:1441   */\n      dup2\n        /* \"#utility.yul\":1428:1450   */\n      lt\n        /* \"#utility.yul\":1407:1425   */\n      0xffffffffffffffff\n        /* \"#utility.yul\":1395:1405   */\n      dup3\n        /* \"#utility.yul\":1392:1426   */\n      gt\n        /* \"#utility.yul\":1389:1451   */\n      or\n        /* \"#utility.yul\":1386:1474   */\n      iszero\n      tag_165\n      jumpi\n        /* \"#utility.yul\":1454:1472   */\n      tag_166\n      tag_111\n      jump\t// in\n    tag_166:\n        /* \"#utility.yul\":1386:1474   */\n    tag_165:\n        /* \"#utility.yul\":1494:1504   */\n      dup1\n        /* \"#utility.yul\":1490:1492   */\n      0x40\n        /* \"#utility.yul\":1483:1505   */\n      mstore\n        /* \"#utility.yul\":1273:1511   */\n      pop\n        /* \"#utility.yul\":1230:1511   */\n      pop\n      pop\n      jump\t// out\n        /* \"#utility.yul\":1517:1646   */\n    tag_113:\n        /* \"#utility.yul\":1551:1557   */\n      0x00\n        /* \"#utility.yul\":1578:1598   */\n      tag_168\n      tag_102\n      jump\t// in\n    tag_168:\n        /* \"#utility.yul\":1568:1598   */\n      swap1\n      pop\n        /* \"#utility.yul\":1607:1640   */\n      tag_169\n        /* \"#utility.yul\":1635:1639   */\n      dup3\n        /* \"#utility.yul\":1627:1633   */\n      dup3\n        /* \"#utility.yul\":1607:1640   */\n      tag_112\n      jump\t// in\n    tag_169:\n        /* \"#utility.yul\":1517:1646   */\n      swap2\n      swap1\n      pop\n      jump\t// out\n        /* \"#utility.yul\":1652:1960   */\n    tag_114:\n        /* \"#utility.yul\":1714:1718   */\n      0x00\n        /* \"#utility.yul\":1804:1822   */\n      0xffffffffffffffff\n        /* \"#utility.yul\":1796:1802   */\n      dup3\n        /* \"#utility.yul\":1793:1823   */\n      gt\n        /* \"#utility.yul\":1790:1846   */\n      iszero\n      tag_171\n      jumpi\n        /* \"#utility.yul\":1826:1844   */\n      tag_172\n      tag_111\n      jump\t// in\n    tag_172:\n        /* \"#utility.yul\":1790:1846   */\n    tag_171:\n        /* \"#utility.yul\":1864:1893   */\n      tag_173\n        /* \"#utility.yul\":1886:1892   */\n      dup3\n        /* \"#utility.yul\":1864:1893   */\n      tag_110\n      jump\t// in\n    tag_173:\n        /* \"#utility.yul\":1856:1893   */\n      swap1\n      pop\n        /* \"#utility.yul\":1948:1952   */\n      0x20\n        /* \"#utility.yul\":1942:1946   */\n      dup2\n        /* \"#utility.yul\":1938:1953   */\n      add\n        /* \"#utility.yul\":1930:1953   */\n      swap1\n      pop\n        /* \"#utility.yul\":1652:1960   */\n      swap2\n      swap1\n      pop\n      jump\t// out\n        /* \"#utility.yul\":1966:2112   */\n    tag_115:\n        /* \"#utility.yul\":2063:2069   */\n      dup3\n        /* \"#utility.yul\":2058:2061   */\n      dup2\n        /* \"#utility.yul\":2053:2056   */\n      dup4\n        /* \"#utility.yul\":2040:2070   */\n      calldatacopy\n        /* \"#utility.yul\":2104:2105   */\n      0x00\n        /* \"#utility.yul\":2095:2101   */\n      dup4\n        /* \"#utility.yul\":2090:2093   */\n      dup4\n        /* \"#utility.yul\":2086:2102   */\n      add\n        /* \"#utility.yul\":2079:2106   */\n      mstore\n        /* \"#utility.yul\":1966:2112   */\n      pop\n      pop\n      pop\n      jump\t// out\n        /* \"#utility.yul\":2118:2543   */\n    tag_116:\n        /* \"#utility.yul\":2196:2201   */\n      0x00\n        /* \"#utility.yul\":2221:2287   */\n      tag_176\n        /* \"#utility.yul\":2237:2286   */\n      tag_177\n        /* \"#utility.yul\":2279:2285   */\n      dup5\n        /* \"#utility.yul\":2237:2286   */\n      tag_114\n      jump\t// in\n    tag_177:\n        /* \"#utility.yul\":2221:2287   */\n      tag_113\n      jump\t// in\n    tag_176:\n        /* \"#utility.yul\":2212:2287   */\n      swap1\n      pop\n        /* \"#utility.yul\":2310:2316   */\n      dup3\n        /* \"#utility.yul\":2303:2308   */\n      dup2\n        /* \"#utility.yul\":2296:2317   */\n      mstore\n        /* \"#utility.yul\":2348:2352   */\n      0x20\n        /* \"#utility.yul\":2341:2346   */\n      dup2\n        /* \"#utility.yul\":2337:2353   */\n      add\n        /* \"#utility.yul\":2386:2389   */\n      dup5\n        /* \"#utility.yul\":2377:2383   */\n      dup5\n        /* \"#utility.yul\":2372:2375   */\n      dup5\n        /* \"#utility.yul\":2368:2384   */\n      add\n        /* \"#utility.yul\":2365:2390   */\n      gt\n        /* \"#utility.yul\":2362:2474   */\n      iszero\n      tag_178\n      jumpi\n        /* \"#utility.yul\":2393:2472   */\n      tag_179\n      tag_109\n      jump\t// in\n    tag_179:\n        /* \"#utility.yul\":2362:2474   */\n    tag_178:\n        /* \"#utility.yul\":2483:2537   */\n      tag_180\n        /* \"#utility.yul\":2530:2536   */\n      dup5\n        /* \"#utility.yul\":2525:2528   */\n      dup3\n        /* \"#utility.yul\":2520:2523   */\n      dup6\n        /* \"#utility.yul\":2483:2537   */\n      tag_115\n      jump\t// in\n    tag_180:\n        /* \"#utility.yul\":2202:2543   */\n      pop\n        /* \"#utility.yul\":2118:2543   */\n      swap4\n      swap3\n      pop\n      pop\n      pop\n      jump\t// out\n        /* \"#utility.yul\":2563:2903   */\n    tag_117:\n        /* \"#utility.yul\":2619:2624   */\n      0x00\n        /* \"#utility.yul\":2668:2671   */\n      dup3\n        /* \"#utility.yul\":2661:2665   */\n      0x1f\n        /* \"#utility.yul\":2653:2659   */\n      dup4\n        /* \"#utility.yul\":2649:2666   */\n      add\n        /* \"#utility.yul\":2645:2672   */\n      slt\n        /* \"#utility.yul\":2635:2757   */\n      tag_182\n      jumpi\n        /* \"#utility.yul\":2676:2755   */\n      tag_183\n      tag_108\n      jump\t// in\n    tag_183:\n        /* \"#utility.yul\":2635:2757   */\n    tag_182:\n        /* \"#utility.yul\":2793:2799   */\n      dup2\n        /* \"#utility.yul\":2780:2800   */\n      calldataload\n        /* \"#utility.yul\":2818:2897   */\n      tag_184\n        /* \"#utility.yul\":2893:2896   */\n      dup5\n        /* \"#utility.yul\":2885:2891   */\n      dup3\n        /* \"#utility.yul\":2878:2882   */\n      0x20\n        /* \"#utility.yul\":2870:2876   */\n      dup7\n        /* \"#utility.yul\":2866:2883   */\n      add\n        /* \"#utility.yul\":2818:2897   */\n      tag_116\n      jump\t// in\n    tag_184:\n        /* \"#utility.yul\":2809:2897   */\n      swap2\n      pop\n        /* \"#utility.yul\":2625:2903   */\n      pop\n        /* \"#utility.yul\":2563:2903   */\n      swap3\n      swap2\n      pop\n      pop\n      jump\t// out\n        /* \"#utility.yul\":2909:3708   */\n    tag_10:\n        /* \"#utility.yul\":2996:3002   */\n      0x00\n        /* \"#utility.yul\":3004:3010   */\n      dup1\n        /* \"#utility.yul\":3012:3018   */\n      0x00\n        /* \"#utility.yul\":3061:3063   */\n      0x60\n        /* \"#utility.yul\":3049:3058   */\n      dup5\n        /* \"#utility.yul\":3040:3047   */\n      dup7\n        /* \"#utility.yul\":3036:3059   */\n      sub\n        /* \"#utility.yul\":3032:3064   */\n      slt\n        /* \"#utility.yul\":3029:3148   */\n      iszero\n      tag_186\n      jumpi\n        /* \"#utility.yul\":3067:3146   */\n      tag_187\n      tag_103\n      jump\t// in\n    tag_187:\n        /* \"#utility.yul\":3029:3148   */\n    tag_186:\n        /* \"#utility.yul\":3187:3188   */\n      0x00\n        /* \"#utility.yul\":3212:3265   */\n      tag_188\n        /* \"#utility.yul\":3257:3264   */\n      dup7\n        /* \"#utility.yul\":3248:3254   */\n      dup3\n        /* \"#utility.yul\":3237:3246   */\n      dup8\n        /* \"#utility.yul\":3233:3255   */\n      add\n        /* \"#utility.yul\":3212:3265   */\n      tag_107\n      jump\t// in\n    tag_188:\n        /* \"#utility.yul\":3202:3265   */\n      swap4\n      pop\n        /* \"#utility.yul\":3158:3275   */\n      pop\n        /* \"#utility.yul\":3342:3344   */\n      0x20\n        /* \"#utility.yul\":3331:3340   */\n      dup5\n        /* \"#utility.yul\":3327:3345   */\n      add\n        /* \"#utility.yul\":3314:3346   */\n      calldataload\n        /* \"#utility.yul\":3373:3391   */\n      0xffffffffffffffff\n        /* \"#utility.yul\":3365:3371   */\n      dup2\n        /* \"#utility.yul\":3362:3392   */\n      gt\n        /* \"#utility.yul\":3359:3476   */\n      iszero\n      tag_189\n      jumpi\n        /* \"#utility.yul\":3395:3474   */\n      tag_190\n      tag_104\n      jump\t// in\n    tag_190:\n        /* \"#utility.yul\":3359:3476   */\n    tag_189:\n        /* \"#utility.yul\":3500:3563   */\n      tag_191\n        /* \"#utility.yul\":3555:3562   */\n      dup7\n        /* \"#utility.yul\":3546:3552   */\n      dup3\n        /* \"#utility.yul\":3535:3544   */\n      dup8\n        /* \"#utility.yul\":3531:3553   */\n      add\n        /* \"#utility.yul\":3500:3563   */\n      tag_117\n      jump\t// in\n    tag_191:\n        /* \"#utility.yul\":3490:3563   */\n      swap3\n      pop\n        /* \"#utility.yul\":3285:3573   */\n      pop\n        /* \"#utility.yul\":3612:3614   */\n      0x40\n        /* \"#utility.yul\":3638:3691   */\n      tag_192\n        /* \"#utility.yul\":3683:3690   */\n      dup7\n        /* \"#utility.yul\":3674:3680   */\n      dup3\n        /* \"#utility.yul\":3663:3672   */\n      dup8\n        /* \"#utility.yul\":3659:3681   */\n      add\n        /* \"#utility.yul\":3638:3691   */\n      tag_107\n      jump\t// in\n    tag_192:\n        /* \"#utility.yul\":3628:3691   */\n      swap2\n      pop\n        /* \"#utility.yul\":3583:3701   */\n      pop\n        /* \"#utility.yul\":2909:3708   */\n      swap3\n      pop\n      swap3\n      pop\n      swap3\n      jump\t// out\n        /* \"#utility.yul\":3714:3822   */\n    tag_118:\n        /* \"#utility.yul\":3791:3815   */\n      tag_194\n        /* \"#utility.yul\":3809:3814   */\n      dup2\n        /* \"#utility.yul\":3791:3815   */\n      tag_105\n      jump\t// in\n    tag_194:\n        /* \"#utility.yul\":3786:3789   */\n      dup3\n        /* \"#utility.yul\":3779:3816   */\n      mstore\n        /* \"#utility.yul\":3714:3822   */\n      pop\n      pop\n      jump\t// out\n        /* \"#utility.yul\":3828:3927   */\n    tag_119:\n        /* \"#utility.yul\":3880:3886   */\n      0x00\n        /* \"#utility.yul\":3914:3919   */\n      dup2\n        /* \"#utility.yul\":3908:3920   */\n      mload\n        /* \"#utility.yul\":3898:3920   */\n      swap1\n      pop\n        /* \"#utility.yul\":3828:3927   */\n      swap2\n      swap1\n      pop\n      jump\t// out\n        /* \"#utility.yul\":3933:4092   */\n    tag_120:\n        /* \"#utility.yul\":4007:4018   */\n      0x00\n        /* \"#utility.yul\":4041:4047   */\n      dup3\n        /* \"#utility.yul\":4036:4039   */\n      dup3\n        /* \"#utility.yul\":4029:4048   */\n      mstore\n        /* \"#utility.yul\":4081:4085   */\n      0x20\n        /* \"#utility.yul\":4076:4079   */\n      dup3\n        /* \"#utility.yul\":4072:4086   */\n      add\n        /* \"#utility.yul\":4057:4086   */\n      swap1\n      pop\n        /* \"#utility.yul\":3933:4092   */\n      swap3\n      swap2\n      pop\n      pop\n      jump\t// out\n        /* \"#utility.yul\":4098:4344   */\n    tag_121:\n        /* \"#utility.yul\":4179:4180   */\n      0x00\n        /* \"#utility.yul\":4189:4302   */\n    tag_198:\n        /* \"#utility.yul\":4203:4209   */\n      dup4\n        /* \"#utility.yul\":4200:4201   */\n      dup2\n        /* \"#utility.yul\":4197:4210   */\n      lt\n        /* \"#utility.yul\":4189:4302   */\n      iszero\n      tag_200\n      jumpi\n        /* \"#utility.yul\":4288:4289   */\n      dup1\n        /* \"#utility.yul\":4283:4286   */\n      dup3\n        /* \"#utility.yul\":4279:4290   */\n      add\n        /* \"#utility.yul\":4273:4291   */\n      mload\n        /* \"#utility.yul\":4269:4270   */\n      dup2\n        /* \"#utility.yul\":4264:4267   */\n      dup5\n        /* \"#utility.yul\":4260:4271   */\n      add\n        /* \"#utility.yul\":4253:4292   */\n      mstore\n        /* \"#utility.yul\":4225:4227   */\n      0x20\n        /* \"#utility.yul\":4222:4223   */\n      dup2\n        /* \"#utility.yul\":4218:4228   */\n      add\n        /* \"#utility.yul\":4213:4228   */\n      swap1\n      pop\n        /* \"#utility.yul\":4189:4302   */\n      jump(tag_198)\n    tag_200:\n        /* \"#utility.yul\":4336:4337   */\n      0x00\n        /* \"#utility.yul\":4327:4333   */\n      dup5\n        /* \"#utility.yul\":4322:4325   */\n      dup5\n        /* \"#utility.yul\":4318:4334   */\n      add\n        /* \"#utility.yul\":4311:4338   */\n      mstore\n        /* \"#utility.yul\":4160:4344   */\n      pop\n        /* \"#utility.yul\":4098:4344   */\n      pop\n      pop\n      pop\n      jump\t// out\n        /* \"#utility.yul\":4350:4707   */\n    tag_122:\n        /* \"#utility.yul\":4428:4431   */\n      0x00\n        /* \"#utility.yul\":4456:4495   */\n      tag_202\n        /* \"#utility.yul\":4489:4494   */\n      dup3\n        /* \"#utility.yul\":4456:4495   */\n      tag_119\n      jump\t// in\n    tag_202:\n        /* \"#utility.yul\":4511:4572   */\n      tag_203\n        /* \"#utility.yul\":4565:4571   */\n      dup2\n        /* \"#utility.yul\":4560:4563   */\n      dup6\n        /* \"#utility.yul\":4511:4572   */\n      tag_120\n      jump\t// in\n    tag_203:\n        /* \"#utility.yul\":4504:4572   */\n      swap4\n      pop\n        /* \"#utility.yul\":4581:4646   */\n      tag_204\n        /* \"#utility.yul\":4639:4645   */\n      dup2\n        /* \"#utility.yul\":4634:4637   */\n      dup6\n        /* \"#utility.yul\":4627:4631   */\n      0x20\n        /* \"#utility.yul\":4620:4625   */\n      dup7\n        /* \"#utility.yul\":4616:4632   */\n      add\n        /* \"#utility.yul\":4581:4646   */\n      tag_121\n      jump\t// in\n    tag_204:\n        /* \"#utility.yul\":4671:4700   */\n      tag_205\n        /* \"#utility.yul\":4693:4699   */\n      dup2\n        /* \"#utility.yul\":4671:4700   */\n      tag_110\n      jump\t// in\n    tag_205:\n        /* \"#utility.yul\":4666:4669   */\n      dup5\n        /* \"#utility.yul\":4662:4701   */\n      add\n        /* \"#utility.yul\":4655:4701   */\n      swap2\n      pop\n        /* \"#utility.yul\":4432:4707   */\n      pop\n        /* \"#utility.yul\":4350:4707   */\n      swap3\n      swap2\n      pop\n      pop\n      jump\t// out\n        /* \"#utility.yul\":4761:5789   */\n    tag_123:\n        /* \"#utility.yul\":4878:4881   */\n      0x00\n        /* \"#utility.yul\":4914:4918   */\n      0x80\n        /* \"#utility.yul\":4909:4912   */\n      dup4\n        /* \"#utility.yul\":4905:4919   */\n      add\n        /* \"#utility.yul\":5003:5007   */\n      0x00\n        /* \"#utility.yul\":4996:5001   */\n      dup4\n        /* \"#utility.yul\":4992:5008   */\n      add\n        /* \"#utility.yul\":4986:5009   */\n      mload\n        /* \"#utility.yul\":5022:5085   */\n      tag_207\n        /* \"#utility.yul\":5079:5083   */\n      0x00\n        /* \"#utility.yul\":5074:5077   */\n      dup7\n        /* \"#utility.yul\":5070:5084   */\n      add\n        /* \"#utility.yul\":5056:5068   */\n      dup3\n        /* \"#utility.yul\":5022:5085   */\n      tag_118\n      jump\t// in\n    tag_207:\n        /* \"#utility.yul\":4929:5095   */\n      pop\n        /* \"#utility.yul\":5177:5181   */\n      0x20\n        /* \"#utility.yul\":5170:5175   */\n      dup4\n        /* \"#utility.yul\":5166:5182   */\n      add\n        /* \"#utility.yul\":5160:5183   */\n      mload\n        /* \"#utility.yul\":5230:5233   */\n      dup5\n        /* \"#utility.yul\":5224:5228   */\n      dup3\n        /* \"#utility.yul\":5220:5234   */\n      sub\n        /* \"#utility.yul\":5213:5217   */\n      0x20\n        /* \"#utility.yul\":5208:5211   */\n      dup7\n        /* \"#utility.yul\":5204:5218   */\n      add\n        /* \"#utility.yul\":5197:5235   */\n      mstore\n        /* \"#utility.yul\":5256:5329   */\n      tag_208\n        /* \"#utility.yul\":5324:5328   */\n      dup3\n        /* \"#utility.yul\":5310:5322   */\n      dup3\n        /* \"#utility.yul\":5256:5329   */\n      tag_122\n      jump\t// in\n    tag_208:\n        /* \"#utility.yul\":5248:5329   */\n      swap2\n      pop\n        /* \"#utility.yul\":5105:5340   */\n      pop\n        /* \"#utility.yul\":5423:5427   */\n      0x40\n        /* \"#utility.yul\":5416:5421   */\n      dup4\n        /* \"#utility.yul\":5412:5428   */\n      add\n        /* \"#utility.yul\":5406:5429   */\n      mload\n        /* \"#utility.yul\":5442:5505   */\n      tag_209\n        /* \"#utility.yul\":5499:5503   */\n      0x40\n        /* \"#utility.yul\":5494:5497   */\n      dup7\n        /* \"#utility.yul\":5490:5504   */\n      add\n        /* \"#utility.yul\":5476:5488   */\n      dup3\n        /* \"#utility.yul\":5442:5505   */\n      tag_118\n      jump\t// in\n    tag_209:\n        /* \"#utility.yul\":5350:5515   */\n      pop\n        /* \"#utility.yul\":5599:5603   */\n      0x60\n        /* \"#utility.yul\":5592:5597   */\n      dup4\n        /* \"#utility.yul\":5588:5604   */\n      add\n        /* \"#utility.yul\":5582:5605   */\n      mload\n        /* \"#utility.yul\":5652:5655   */\n      dup5\n        /* \"#utility.yul\":5646:5650   */\n      dup3\n        /* \"#utility.yul\":5642:5656   */\n      sub\n        /* \"#utility.yul\":5635:5639   */\n      0x60\n        /* \"#utility.yul\":5630:5633   */\n      dup7\n        /* \"#utility.yul\":5626:5640   */\n      add\n        /* \"#utility.yul\":5619:5657   */\n      mstore\n        /* \"#utility.yul\":5678:5751   */\n      tag_210\n        /* \"#utility.yul\":5746:5750   */\n      dup3\n        /* \"#utility.yul\":5732:5744   */\n      dup3\n        /* \"#utility.yul\":5678:5751   */\n      tag_122\n      jump\t// in\n    tag_210:\n        /* \"#utility.yul\":5670:5751   */\n      swap2\n      pop\n        /* \"#utility.yul\":5525:5762   */\n      pop\n        /* \"#utility.yul\":5779:5783   */\n      dup1\n        /* \"#utility.yul\":5772:5783   */\n      swap2\n      pop\n        /* \"#utility.yul\":4883:5789   */\n      pop\n        /* \"#utility.yul\":4761:5789   */\n      swap3\n      swap2\n      pop\n      pop\n      jump\t// out\n        /* \"#utility.yul\":5795:6678   */\n    tag_15:\n        /* \"#utility.yul\":6088:6092   */\n      0x00\n        /* \"#utility.yul\":6126:6128   */\n      0x60\n        /* \"#utility.yul\":6115:6124   */\n      dup3\n        /* \"#utility.yul\":6111:6129   */\n      add\n        /* \"#utility.yul\":6103:6129   */\n      swap1\n      pop\n        /* \"#utility.yul\":6175:6184   */\n      dup2\n        /* \"#utility.yul\":6169:6173   */\n      dup2\n        /* \"#utility.yul\":6165:6185   */\n      sub\n        /* \"#utility.yul\":6161:6162   */\n      0x00\n        /* \"#utility.yul\":6150:6159   */\n      dup4\n        /* \"#utility.yul\":6146:6163   */\n      add\n        /* \"#utility.yul\":6139:6186   */\n      mstore\n        /* \"#utility.yul\":6203:6309   */\n      tag_212\n        /* \"#utility.yul\":6304:6308   */\n      dup2\n        /* \"#utility.yul\":6295:6301   */\n      dup7\n        /* \"#utility.yul\":6203:6309   */\n      tag_123\n      jump\t// in\n    tag_212:\n        /* \"#utility.yul\":6195:6309   */\n      swap1\n      pop\n        /* \"#utility.yul\":6356:6365   */\n      dup2\n        /* \"#utility.yul\":6350:6354   */\n      dup2\n        /* \"#utility.yul\":6346:6366   */\n      sub\n        /* \"#utility.yul\":6341:6343   */\n      0x20\n        /* \"#utility.yul\":6330:6339   */\n      dup4\n        /* \"#utility.yul\":6326:6344   */\n      add\n        /* \"#utility.yul\":6319:6367   */\n      mstore\n        /* \"#utility.yul\":6384:6490   */\n      tag_213\n        /* \"#utility.yul\":6485:6489   */\n      dup2\n        /* \"#utility.yul\":6476:6482   */\n      dup6\n        /* \"#utility.yul\":6384:6490   */\n      tag_123\n      jump\t// in\n    tag_213:\n        /* \"#utility.yul\":6376:6490   */\n      swap1\n      pop\n        /* \"#utility.yul\":6537:6546   */\n      dup2\n        /* \"#utility.yul\":6531:6535   */\n      dup2\n        /* \"#utility.yul\":6527:6547   */\n      sub\n        /* \"#utility.yul\":6522:6524   */\n      0x40\n        /* \"#utility.yul\":6511:6520   */\n      dup4\n        /* \"#utility.yul\":6507:6525   */\n      add\n        /* \"#utility.yul\":6500:6548   */\n      mstore\n        /* \"#utility.yul\":6565:6671   */\n      tag_214\n        /* \"#utility.yul\":6666:6670   */\n      dup2\n        /* \"#utility.yul\":6657:6663   */\n      dup5\n        /* \"#utility.yul\":6565:6671   */\n      tag_123\n      jump\t// in\n    tag_214:\n        /* \"#utility.yul\":6557:6671   */\n      swap1\n      pop\n        /* \"#utility.yul\":5795:6678   */\n      swap5\n      swap4\n      pop\n      pop\n      pop\n      pop\n      jump\t// out\n        /* \"#utility.yul\":6684:7013   */\n    tag_18:\n        /* \"#utility.yul\":6743:6749   */\n      0x00\n        /* \"#utility.yul\":6792:6794   */\n      0x20\n        /* \"#utility.yul\":6780:6789   */\n      dup3\n        /* \"#utility.yul\":6771:6778   */\n      dup5\n        /* \"#utility.yul\":6767:6790   */\n      sub\n        /* \"#utility.yul\":6763:6795   */\n      slt\n        /* \"#utility.yul\":6760:6879   */\n      iszero\n      tag_216\n      jumpi\n        /* \"#utility.yul\":6798:6877   */\n      tag_217\n      tag_103\n      jump\t// in\n    tag_217:\n        /* \"#utility.yul\":6760:6879   */\n    tag_216:\n        /* \"#utility.yul\":6918:6919   */\n      0x00\n        /* \"#utility.yul\":6943:6996   */\n      tag_218\n        /* \"#utility.yul\":6988:6995   */\n      dup5\n        /* \"#utility.yul\":6979:6985   */\n      dup3\n        /* \"#utility.yul\":6968:6977   */\n      dup6\n        /* \"#utility.yul\":6964:6986   */\n      add\n        /* \"#utility.yul\":6943:6996   */\n      tag_107\n      jump\t// in\n    tag_218:\n        /* \"#utility.yul\":6933:6996   */\n      swap2\n      pop\n        /* \"#utility.yul\":6889:7006   */\n      pop\n        /* \"#utility.yul\":6684:7013   */\n      swap3\n      swap2\n      pop\n      pop\n      jump\t// out\n        /* \"#utility.yul\":7019:7188   */\n    tag_124:\n        /* \"#utility.yul\":7103:7114   */\n      0x00\n        /* \"#utility.yul\":7137:7143   */\n      dup3\n        /* \"#utility.yul\":7132:7135   */\n      dup3\n        /* \"#utility.yul\":7125:7144   */\n      mstore\n        /* \"#utility.yul\":7177:7181   */\n      0x20\n        /* \"#utility.yul\":7172:7175   */\n      dup3\n        /* \"#utility.yul\":7168:7182   */\n      add\n        /* \"#utility.yul\":7153:7182   */\n      swap1\n      pop\n        /* \"#utility.yul\":7019:7188   */\n      swap3\n      swap2\n      pop\n      pop\n      jump\t// out\n        /* \"#utility.yul\":7194:7571   */\n    tag_125:\n        /* \"#utility.yul\":7282:7285   */\n      0x00\n        /* \"#utility.yul\":7310:7349   */\n      tag_221\n        /* \"#utility.yul\":7343:7348   */\n      dup3\n        /* \"#utility.yul\":7310:7349   */\n      tag_119\n      jump\t// in\n    tag_221:\n        /* \"#utility.yul\":7365:7436   */\n      tag_222\n        /* \"#utility.yul\":7429:7435   */\n      dup2\n        /* \"#utility.yul\":7424:7427   */\n      dup6\n        /* \"#utility.yul\":7365:7436   */\n      tag_124\n      jump\t// in\n    tag_222:\n        /* \"#utility.yul\":7358:7436   */\n      swap4\n      pop\n        /* \"#utility.yul\":7445:7510   */\n      tag_223\n        /* \"#utility.yul\":7503:7509   */\n      dup2\n        /* \"#utility.yul\":7498:7501   */\n      dup6\n        /* \"#utility.yul\":7491:7495   */\n      0x20\n        /* \"#utility.yul\":7484:7489   */\n      dup7\n        /* \"#utility.yul\":7480:7496   */\n      add\n        /* \"#utility.yul\":7445:7510   */\n      tag_121\n      jump\t// in\n    tag_223:\n        /* \"#utility.yul\":7535:7564   */\n      tag_224\n        /* \"#utility.yul\":7557:7563   */\n      dup2\n        /* \"#utility.yul\":7535:7564   */\n      tag_110\n      jump\t// in\n    tag_224:\n        /* \"#utility.yul\":7530:7533   */\n      dup5\n        /* \"#utility.yul\":7526:7565   */\n      add\n        /* \"#utility.yul\":7519:7565   */\n      swap2\n      pop\n        /* \"#utility.yul\":7286:7571   */\n      pop\n        /* \"#utility.yul\":7194:7571   */\n      swap3\n      swap2\n      pop\n      pop\n      jump\t// out\n        /* \"#utility.yul\":7577:7890   */\n    tag_21:\n        /* \"#utility.yul\":7690:7694   */\n      0x00\n        /* \"#utility.yul\":7728:7730   */\n      0x20\n        /* \"#utility.yul\":7717:7726   */\n      dup3\n        /* \"#utility.yul\":7713:7731   */\n      add\n        /* \"#utility.yul\":7705:7731   */\n      swap1\n      pop\n        /* \"#utility.yul\":7777:7786   */\n      dup2\n        /* \"#utility.yul\":7771:7775   */\n      dup2\n        /* \"#utility.yul\":7767:7787   */\n      sub\n        /* \"#utility.yul\":7763:7764   */\n      0x00\n        /* \"#utility.yul\":7752:7761   */\n      dup4\n        /* \"#utility.yul\":7748:7765   */\n      add\n        /* \"#utility.yul\":7741:7788   */\n      mstore\n        /* \"#utility.yul\":7805:7883   */\n      tag_226\n        /* \"#utility.yul\":7878:7882   */\n      dup2\n        /* \"#utility.yul\":7869:7875   */\n      dup5\n        /* \"#utility.yul\":7805:7883   */\n      tag_125\n      jump\t// in\n    tag_226:\n        /* \"#utility.yul\":7797:7883   */\n      swap1\n      pop\n        /* \"#utility.yul\":7577:7890   */\n      swap3\n      swap2\n      pop\n      pop\n      jump\t// out\n        /* \"#utility.yul\":7896:8034   */\n    tag_126:\n        /* \"#utility.yul\":7987:7993   */\n      0x00\n        /* \"#utility.yul\":8021:8026   */\n      dup2\n        /* \"#utility.yul\":8015:8027   */\n      mload\n        /* \"#utility.yul\":8005:8027   */\n      swap1\n      pop\n        /* \"#utility.yul\":7896:8034   */\n      swap2\n      swap1\n      pop\n      jump\t// out\n        /* \"#utility.yul\":8040:8248   */\n    tag_127:\n        /* \"#utility.yul\":8163:8174   */\n      0x00\n        /* \"#utility.yul\":8197:8203   */\n      dup3\n        /* \"#utility.yul\":8192:8195   */\n      dup3\n        /* \"#utility.yul\":8185:8204   */\n      mstore\n        /* \"#utility.yul\":8237:8241   */\n      0x20\n        /* \"#utility.yul\":8232:8235   */\n      dup3\n        /* \"#utility.yul\":8228:8242   */\n      add\n        /* \"#utility.yul\":8213:8242   */\n      swap1\n      pop\n        /* \"#utility.yul\":8040:8248   */\n      swap3\n      swap2\n      pop\n      pop\n      jump\t// out\n        /* \"#utility.yul\":8254:8410   */\n    tag_128:\n        /* \"#utility.yul\":8345:8349   */\n      0x00\n        /* \"#utility.yul\":8368:8371   */\n      dup2\n        /* \"#utility.yul\":8360:8371   */\n      swap1\n      pop\n        /* \"#utility.yul\":8398:8402   */\n      0x20\n        /* \"#utility.yul\":8393:8396   */\n      dup3\n        /* \"#utility.yul\":8389:8403   */\n      add\n        /* \"#utility.yul\":8381:8403   */\n      swap1\n      pop\n        /* \"#utility.yul\":8254:8410   */\n      swap2\n      swap1\n      pop\n      jump\t// out\n        /* \"#utility.yul\":8464:9482   */\n    tag_129:\n        /* \"#utility.yul\":8571:8574   */\n      0x00\n        /* \"#utility.yul\":8607:8611   */\n      0x80\n        /* \"#utility.yul\":8602:8605   */\n      dup4\n        /* \"#utility.yul\":8598:8612   */\n      add\n        /* \"#utility.yul\":8696:8700   */\n      0x00\n        /* \"#utility.yul\":8689:8694   */\n      dup4\n        /* \"#utility.yul\":8685:8701   */\n      add\n        /* \"#utility.yul\":8679:8702   */\n      mload\n        /* \"#utility.yul\":8715:8778   */\n      tag_231\n        /* \"#utility.yul\":8772:8776   */\n      0x00\n        /* \"#utility.yul\":8767:8770   */\n      dup7\n        /* \"#utility.yul\":8763:8777   */\n      add\n        /* \"#utility.yul\":8749:8761   */\n      dup3\n        /* \"#utility.yul\":8715:8778   */\n      tag_118\n      jump\t// in\n    tag_231:\n        /* \"#utility.yul\":8622:8788   */\n      pop\n        /* \"#utility.yul\":8870:8874   */\n      0x20\n        /* \"#utility.yul\":8863:8868   */\n      dup4\n        /* \"#utility.yul\":8859:8875   */\n      add\n        /* \"#utility.yul\":8853:8876   */\n      mload\n        /* \"#utility.yul\":8923:8926   */\n      dup5\n        /* \"#utility.yul\":8917:8921   */\n      dup3\n        /* \"#utility.yul\":8913:8927   */\n      sub\n        /* \"#utility.yul\":8906:8910   */\n      0x20\n        /* \"#utility.yul\":8901:8904   */\n      dup7\n        /* \"#utility.yul\":8897:8911   */\n      add\n        /* \"#utility.yul\":8890:8928   */\n      mstore\n        /* \"#utility.yul\":8949:9022   */\n      tag_232\n        /* \"#utility.yul\":9017:9021   */\n      dup3\n        /* \"#utility.yul\":9003:9015   */\n      dup3\n        /* \"#utility.yul\":8949:9022   */\n      tag_122\n      jump\t// in\n    tag_232:\n        /* \"#utility.yul\":8941:9022   */\n      swap2\n      pop\n        /* \"#utility.yul\":8798:9033   */\n      pop\n        /* \"#utility.yul\":9116:9120   */\n      0x40\n        /* \"#utility.yul\":9109:9114   */\n      dup4\n        /* \"#utility.yul\":9105:9121   */\n      add\n        /* \"#utility.yul\":9099:9122   */\n      mload\n        /* \"#utility.yul\":9135:9198   */\n      tag_233\n        /* \"#utility.yul\":9192:9196   */\n      0x40\n        /* \"#utility.yul\":9187:9190   */\n      dup7\n        /* \"#utility.yul\":9183:9197   */\n      add\n        /* \"#utility.yul\":9169:9181   */\n      dup3\n        /* \"#utility.yul\":9135:9198   */\n      tag_118\n      jump\t// in\n    tag_233:\n        /* \"#utility.yul\":9043:9208   */\n      pop\n        /* \"#utility.yul\":9292:9296   */\n      0x60\n        /* \"#utility.yul\":9285:9290   */\n      dup4\n        /* \"#utility.yul\":9281:9297   */\n      add\n        /* \"#utility.yul\":9275:9298   */\n      mload\n        /* \"#utility.yul\":9345:9348   */\n      dup5\n        /* \"#utility.yul\":9339:9343   */\n      dup3\n        /* \"#utility.yul\":9335:9349   */\n      sub\n        /* \"#utility.yul\":9328:9332   */\n      0x60\n        /* \"#utility.yul\":9323:9326   */\n      dup7\n        /* \"#utility.yul\":9319:9333   */\n      add\n        /* \"#utility.yul\":9312:9350   */\n      mstore\n        /* \"#utility.yul\":9371:9444   */\n      tag_234\n        /* \"#utility.yul\":9439:9443   */\n      dup3\n        /* \"#utility.yul\":9425:9437   */\n      dup3\n        /* \"#utility.yul\":9371:9444   */\n      tag_122\n      jump\t// in\n    tag_234:\n        /* \"#utility.yul\":9363:9444   */\n      swap2\n      pop\n        /* \"#utility.yul\":9218:9455   */\n      pop\n        /* \"#utility.yul\":9472:9476   */\n      dup1\n        /* \"#utility.yul\":9465:9476   */\n      swap2\n      pop\n        /* \"#utility.yul\":8576:9482   */\n      pop\n        /* \"#utility.yul\":8464:9482   */\n      swap3\n      swap2\n      pop\n      pop\n      jump\t// out\n        /* \"#utility.yul\":9488:9740   */\n    tag_130:\n        /* \"#utility.yul\":9605:9615   */\n      0x00\n        /* \"#utility.yul\":9640:9734   */\n      tag_236\n        /* \"#utility.yul\":9730:9733   */\n      dup4\n        /* \"#utility.yul\":9722:9728   */\n      dup4\n        /* \"#utility.yul\":9640:9734   */\n      tag_129\n      jump\t// in\n    tag_236:\n        /* \"#utility.yul\":9626:9734   */\n      swap1\n      pop\n        /* \"#utility.yul\":9488:9740   */\n      swap3\n      swap2\n      pop\n      pop\n      jump\t// out\n        /* \"#utility.yul\":9746:9883   */\n    tag_131:\n        /* \"#utility.yul\":9840:9844   */\n      0x00\n        /* \"#utility.yul\":9872:9876   */\n      0x20\n        /* \"#utility.yul\":9867:9870   */\n      dup3\n        /* \"#utility.yul\":9863:9877   */\n      add\n        /* \"#utility.yul\":9855:9877   */\n      swap1\n      pop\n        /* \"#utility.yul\":9746:9883   */\n      swap2\n      swap1\n      pop\n      jump\t// out\n        /* \"#utility.yul\":9941:11044   */\n    tag_132:\n        /* \"#utility.yul\":10108:10111   */\n      0x00\n        /* \"#utility.yul\":10137:10215   */\n      tag_239\n        /* \"#utility.yul\":10209:10214   */\n      dup3\n        /* \"#utility.yul\":10137:10215   */\n      tag_126\n      jump\t// in\n    tag_239:\n        /* \"#utility.yul\":10231:10341   */\n      tag_240\n        /* \"#utility.yul\":10334:10340   */\n      dup2\n        /* \"#utility.yul\":10329:10332   */\n      dup6\n        /* \"#utility.yul\":10231:10341   */\n      tag_127\n      jump\t// in\n    tag_240:\n        /* \"#utility.yul\":10224:10341   */\n      swap4\n      pop\n        /* \"#utility.yul\":10367:10370   */\n      dup4\n        /* \"#utility.yul\":10412:10416   */\n      0x20\n        /* \"#utility.yul\":10404:10410   */\n      dup3\n        /* \"#utility.yul\":10400:10417   */\n      mul\n        /* \"#utility.yul\":10395:10398   */\n      dup6\n        /* \"#utility.yul\":10391:10418   */\n      add\n        /* \"#utility.yul\":10442:10522   */\n      tag_241\n        /* \"#utility.yul\":10516:10521   */\n      dup6\n        /* \"#utility.yul\":10442:10522   */\n      tag_128\n      jump\t// in\n    tag_241:\n        /* \"#utility.yul\":10545:10552   */\n      dup1\n        /* \"#utility.yul\":10576:10577   */\n      0x00\n        /* \"#utility.yul\":10561:10999   */\n    tag_242:\n        /* \"#utility.yul\":10586:10592   */\n      dup6\n        /* \"#utility.yul\":10583:10584   */\n      dup2\n        /* \"#utility.yul\":10580:10593   */\n      lt\n        /* \"#utility.yul\":10561:10999   */\n      iszero\n      tag_244\n      jumpi\n        /* \"#utility.yul\":10657:10666   */\n      dup5\n        /* \"#utility.yul\":10651:10655   */\n      dup5\n        /* \"#utility.yul\":10647:10667   */\n      sub\n        /* \"#utility.yul\":10642:10645   */\n      dup10\n        /* \"#utility.yul\":10635:10668   */\n      mstore\n        /* \"#utility.yul\":10708:10714   */\n      dup2\n        /* \"#utility.yul\":10702:10715   */\n      mload\n        /* \"#utility.yul\":10736:10848   */\n      tag_245\n        /* \"#utility.yul\":10843:10847   */\n      dup6\n        /* \"#utility.yul\":10828:10841   */\n      dup3\n        /* \"#utility.yul\":10736:10848   */\n      tag_130\n      jump\t// in\n    tag_245:\n        /* \"#utility.yul\":10728:10848   */\n      swap5\n      pop\n        /* \"#utility.yul\":10871:10955   */\n      tag_246\n        /* \"#utility.yul\":10948:10954   */\n      dup4\n        /* \"#utility.yul\":10871:10955   */\n      tag_131\n      jump\t// in\n    tag_246:\n        /* \"#utility.yul\":10861:10955   */\n      swap3\n      pop\n        /* \"#utility.yul\":10984:10988   */\n      0x20\n        /* \"#utility.yul\":10979:10982   */\n      dup11\n        /* \"#utility.yul\":10975:10989   */\n      add\n        /* \"#utility.yul\":10968:10989   */\n      swap10\n      pop\n        /* \"#utility.yul\":10621:10999   */\n      pop\n        /* \"#utility.yul\":10608:10609   */\n      0x01\n        /* \"#utility.yul\":10605:10606   */\n      dup2\n        /* \"#utility.yul\":10601:10610   */\n      add\n        /* \"#utility.yul\":10596:10610   */\n      swap1\n      pop\n        /* \"#utility.yul\":10561:10999   */\n      jump(tag_242)\n    tag_244:\n        /* \"#utility.yul\":10565:10579   */\n      pop\n        /* \"#utility.yul\":11015:11019   */\n      dup3\n        /* \"#utility.yul\":11008:11019   */\n      swap8\n      pop\n        /* \"#utility.yul\":11035:11038   */\n      dup8\n        /* \"#utility.yul\":11028:11038   */\n      swap6\n      pop\n        /* \"#utility.yul\":10113:11044   */\n      pop\n      pop\n      pop\n      pop\n      pop\n        /* \"#utility.yul\":9941:11044   */\n      swap3\n      swap2\n      pop\n      pop\n      jump\t// out\n        /* \"#utility.yul\":11050:11519   */\n    tag_28:\n        /* \"#utility.yul\":11241:11245   */\n      0x00\n        /* \"#utility.yul\":11279:11281   */\n      0x20\n        /* \"#utility.yul\":11268:11277   */\n      dup3\n        /* \"#utility.yul\":11264:11282   */\n      add\n        /* \"#utility.yul\":11256:11282   */\n      swap1\n      pop\n        /* \"#utility.yul\":11328:11337   */\n      dup2\n        /* \"#utility.yul\":11322:11326   */\n      dup2\n        /* \"#utility.yul\":11318:11338   */\n      sub\n        /* \"#utility.yul\":11314:11315   */\n      0x00\n        /* \"#utility.yul\":11303:11312   */\n      dup4\n        /* \"#utility.yul\":11299:11316   */\n      add\n        /* \"#utility.yul\":11292:11339   */\n      mstore\n        /* \"#utility.yul\":11356:11512   */\n      tag_248\n        /* \"#utility.yul\":11507:11511   */\n      dup2\n        /* \"#utility.yul\":11498:11504   */\n      dup5\n        /* \"#utility.yul\":11356:11512   */\n      tag_132\n      jump\t// in\n    tag_248:\n        /* \"#utility.yul\":11348:11512   */\n      swap1\n      pop\n        /* \"#utility.yul\":11050:11519   */\n      swap3\n      swap2\n      pop\n      pop\n      jump\t// out\n        /* \"#utility.yul\":11525:11705   */\n    tag_133:\n        /* \"#utility.yul\":11573:11650   */\n      0x4e487b7100000000000000000000000000000000000000000000000000000000\n        /* \"#utility.yul\":11570:11571   */\n      0x00\n        /* \"#utility.yul\":11563:11651   */\n      mstore\n        /* \"#utility.yul\":11670:11674   */\n      0x22\n        /* \"#utility.yul\":11667:11668   */\n      0x04\n        /* \"#utility.yul\":11660:11675   */\n      mstore\n        /* \"#utility.yul\":11694:11698   */\n      0x24\n        /* \"#utility.yul\":11691:11692   */\n      0x00\n        /* \"#utility.yul\":11684:11699   */\n      revert\n        /* \"#utility.yul\":11711:12031   */\n    tag_46:\n        /* \"#utility.yul\":11755:11761   */\n      0x00\n        /* \"#utility.yul\":11792:11793   */\n      0x02\n        /* \"#utility.yul\":11786:11790   */\n      dup3\n        /* \"#utility.yul\":11782:11794   */\n      div\n        /* \"#utility.yul\":11772:11794   */\n      swap1\n      pop\n        /* \"#utility.yul\":11839:11840   */\n      0x01\n        /* \"#utility.yul\":11833:11837   */\n      dup3\n        /* \"#utility.yul\":11829:11841   */\n      and\n        /* \"#utility.yul\":11860:11878   */\n      dup1\n        /* \"#utility.yul\":11850:11931   */\n      tag_251\n      jumpi\n        /* \"#utility.yul\":11916:11920   */\n      0x7f\n        /* \"#utility.yul\":11908:11914   */\n      dup3\n        /* \"#utility.yul\":11904:11921   */\n      and\n        /* \"#utility.yul\":11894:11921   */\n      swap2\n      pop\n        /* \"#utility.yul\":11850:11931   */\n    tag_251:\n        /* \"#utility.yul\":11978:11980   */\n      0x20\n        /* \"#utility.yul\":11970:11976   */\n      dup3\n        /* \"#utility.yul\":11967:11981   */\n      lt\n        /* \"#utility.yul\":11947:11965   */\n      dup2\n        /* \"#utility.yul\":11944:11982   */\n      sub\n        /* \"#utility.yul\":11941:12025   */\n      tag_252\n      jumpi\n        /* \"#utility.yul\":11997:12015   */\n      tag_253\n      tag_133\n      jump\t// in\n    tag_253:\n        /* \"#utility.yul\":11941:12025   */\n    tag_252:\n        /* \"#utility.yul\":11762:12031   */\n      pop\n        /* \"#utility.yul\":11711:12031   */\n      swap2\n      swap1\n      pop\n      jump\t// out\n        /* \"#utility.yul\":12037:12178   */\n    tag_134:\n        /* \"#utility.yul\":12086:12090   */\n      0x00\n        /* \"#utility.yul\":12109:12112   */\n      dup2\n        /* \"#utility.yul\":12101:12112   */\n      swap1\n      pop\n        /* \"#utility.yul\":12132:12135   */\n      dup2\n        /* \"#utility.yul\":12129:12130   */\n      0x00\n        /* \"#utility.yul\":12122:12136   */\n      mstore\n        /* \"#utility.yul\":12166:12170   */\n      0x20\n        /* \"#utility.yul\":12163:12164   */\n      0x00\n        /* \"#utility.yul\":12153:12171   */\n      keccak256\n        /* \"#utility.yul\":12145:12171   */\n      swap1\n      pop\n        /* \"#utility.yul\":12037:12178   */\n      swap2\n      swap1\n      pop\n      jump\t// out\n        /* \"#utility.yul\":12184:12277   */\n    tag_135:\n        /* \"#utility.yul\":12221:12227   */\n      0x00\n        /* \"#utility.yul\":12268:12270   */\n      0x20\n        /* \"#utility.yul\":12263:12265   */\n      0x1f\n        /* \"#utility.yul\":12256:12261   */\n      dup4\n        /* \"#utility.yul\":12252:12266   */\n      add\n        /* \"#utility.yul\":12248:12271   */\n      div\n        /* \"#utility.yul\":12238:12271   */\n      swap1\n      pop\n        /* \"#utility.yul\":12184:12277   */\n      swap2\n      swap1\n      pop\n      jump\t// out\n        /* \"#utility.yul\":12283:12390   */\n    tag_136:\n        /* \"#utility.yul\":12327:12335   */\n      0x00\n        /* \"#utility.yul\":12377:12382   */\n      dup3\n        /* \"#utility.yul\":12371:12375   */\n      dup3\n        /* \"#utility.yul\":12367:12383   */\n      shl\n        /* \"#utility.yul\":12346:12383   */\n      swap1\n      pop\n        /* \"#utility.yul\":12283:12390   */\n      swap3\n      swap2\n      pop\n      pop\n      jump\t// out\n        /* \"#utility.yul\":12396:12789   */\n    tag_137:\n        /* \"#utility.yul\":12465:12471   */\n      0x00\n        /* \"#utility.yul\":12515:12516   */\n      0x08\n        /* \"#utility.yul\":12503:12513   */\n      dup4\n        /* \"#utility.yul\":12499:12517   */\n      mul\n        /* \"#utility.yul\":12538:12635   */\n      tag_258\n        /* \"#utility.yul\":12568:12634   */\n      0xffffffffffffffffffffffffffffffffffffffffffffffffffffffffffffffff\n        /* \"#utility.yul\":12557:12566   */\n      dup3\n        /* \"#utility.yul\":12538:12635   */\n      tag_136\n      jump\t// in\n    tag_258:\n        /* \"#utility.yul\":12656:12695   */\n      tag_259\n        /* \"#utility.yul\":12686:12694   */\n      dup7\n        /* \"#utility.yul\":12675:12684   */\n      dup4\n        /* \"#utility.yul\":12656:12695   */\n      tag_136\n      jump\t// in\n    tag_259:\n        /* \"#utility.yul\":12644:12695   */\n      swap6\n      pop\n        /* \"#utility.yul\":12728:12732   */\n      dup1\n        /* \"#utility.yul\":12724:12733   */\n      not\n        /* \"#utility.yul\":12717:12722   */\n      dup5\n        /* \"#utility.yul\":12713:12734   */\n      and\n        /* \"#utility.yul\":12704:12734   */\n      swap4\n      pop\n        /* \"#utility.yul\":12777:12781   */\n      dup1\n        /* \"#utility.yul\":12767:12775   */\n      dup7\n        /* \"#utility.yul\":12763:12782   */\n      and\n        /* \"#utility.yul\":12756:12761   */\n      dup5\n        /* \"#utility.yul\":12753:12783   */\n      or\n        /* \"#utility.yul\":12743:12783   */\n      swap3\n      pop\n        /* \"#utility.yul\":12472:12789   */\n      pop\n      pop\n        /* \"#utility.yul\":12396:12789   */\n      swap4\n      swap3\n      pop\n      pop\n      pop\n      jump\t// out\n        /* \"#utility.yul\":12795:12855   */\n    tag_138:\n        /* \"#utility.yul\":12823:12826   */\n      0x00\n        /* \"#utility.yul\":12844:12849   */\n      dup2\n        /* \"#utility.yul\":12837:12849   */\n      swap1\n      pop\n        /* \"#utility.yul\":12795:12855   */\n      swap2\n      swap1\n      pop\n      jump\t// out\n        /* \"#utility.yul\":12861:13003   */\n    tag_139:\n        /* \"#utility.yul\":12911:12920   */\n      0x00\n        /* \"#utility.yul\":12944:12997   */\n      tag_262\n        /* \"#utility.yul\":12962:12996   */\n      tag_263\n        /* \"#utility.yul\":12971:12995   */\n      tag_264\n        /* \"#utility.yul\":12989:12994   */\n      dup5\n        /* \"#utility.yul\":12971:12995   */\n      tag_105\n      jump\t// in\n    tag_264:\n        /* \"#utility.yul\":12962:12996   */\n      tag_138\n      jump\t// in\n    tag_263:\n        /* \"#utility.yul\":12944:12997   */\n      tag_105\n      jump\t// in\n    tag_262:\n        /* \"#utility.yul\":12931:12997   */\n      swap1\n      pop\n        /* \"#utility.yul\":12861:13003   */\n      swap2\n      swap1\n      pop\n      jump\t// out\n        /* \"#utility.yul\":13009:13084   */\n    tag_140:\n        /* \"#utility.yul\":13052:13055   */\n      0x00\n        /* \"#utility.yul\":13073:13078   */\n      dup2\n        /* \"#utility.yul\":13066:13078   */\n      swap1\n      pop\n        /* \"#utility.yul\":13009:13084   */\n      swap2\n      swap1\n      pop\n      jump\t// out\n        /* \"#utility.yul\":13090:13359   */\n    tag_141:\n        /* \"#utility.yul\":13200:13239   */\n      tag_267\n        /* \"#utility.yul\":13231:13238   */\n      dup4\n        /* \"#utility.yul\":13200:13239   */\n      tag_139\n      jump\t// in\n    tag_267:\n        /* \"#utility.yul\":13261:13352   */\n      tag_268\n        /* \"#utility.yul\":13310:13351   */\n      tag_269\n        /* \"#utility.yul\":13334:13350   */\n      dup3\n        /* \"#utility.yul\":13310:13351   */\n      tag_140\n      jump\t// in\n    tag_269:\n        /* \"#utility.yul\":13302:13308   */\n      dup5\n        /* \"#utility.yul\":13295:13299   */\n      dup5\n        /* \"#utility.yul\":13289:13300   */\n      sload\n        /* \"#utility.yul\":13261:13352   */\n      tag_137\n      jump\t// in\n    tag_268:\n        /* \"#utility.yul\":13255:13259   */\n      dup3\n        /* \"#utility.yul\":13248:13353   */\n      sstore\n        /* \"#utility.yul\":13166:13359   */\n      pop\n        /* \"#utility.yul\":13090:13359   */\n      pop\n      pop\n      pop\n      jump\t// out\n        /* \"#utility.yul\":13365:13438   */\n    tag_142:\n        /* \"#utility.yul\":13410:13413   */\n      0x00\n        /* \"#utility.yul\":13365:13438   */\n      swap1\n      jump\t// out\n        /* \"#utility.yul\":13444:13633   */\n    tag_143:\n        /* \"#utility.yul\":13521:13553   */\n      tag_272\n      tag_142\n      jump\t// in\n    tag_272:\n        /* \"#utility.yul\":13562:13627   */\n      tag_273\n        /* \"#utility.yul\":13620:13626   */\n      dup2\n        /* \"#utility.yul\":13612:13618   */\n      dup5\n        /* \"#utility.yul\":13606:13610   */\n      dup5\n        /* \"#utility.yul\":13562:13627   */\n      tag_141\n      jump\t// in\n    tag_273:\n        /* \"#utility.yul\":13497:13633   */\n      pop\n        /* \"#utility.yul\":13444:13633   */\n      pop\n      pop\n      jump\t// out\n        /* \"#utility.yul\":13639:13825   */\n    tag_144:\n        /* \"#utility.yul\":13699:13819   */\n    tag_275:\n        /* \"#utility.yul\":13716:13719   */\n      dup2\n        /* \"#utility.yul\":13709:13714   */\n      dup2\n        /* \"#utility.yul\":13706:13720   */\n      lt\n        /* \"#utility.yul\":13699:13819   */\n      iszero\n      tag_277\n      jumpi\n        /* \"#utility.yul\":13770:13809   */\n      tag_278\n        /* \"#utility.yul\":13807:13808   */\n      0x00\n        /* \"#utility.yul\":13800:13805   */\n      dup3\n        /* \"#utility.yul\":13770:13809   */\n      tag_143\n      jump\t// in\n    tag_278:\n        /* \"#utility.yul\":13743:13744   */\n      0x01\n        /* \"#utility.yul\":13736:13741   */\n      dup2\n        /* \"#utility.yul\":13732:13745   */\n      add\n        /* \"#utility.yul\":13723:13745   */\n      swap1\n      pop\n        /* \"#utility.yul\":13699:13819   */\n      jump(tag_275)\n    tag_277:\n        /* \"#utility.yul\":13639:13825   */\n      pop\n      pop\n      jump\t// out\n        /* \"#utility.yul\":13831:14374   */\n    tag_145:\n        /* \"#utility.yul\":13932:13934   */\n      0x1f\n        /* \"#utility.yul\":13927:13930   */\n      dup3\n        /* \"#utility.yul\":13924:13935   */\n      gt\n        /* \"#utility.yul\":13921:14367   */\n      iszero\n      tag_280\n      jumpi\n        /* \"#utility.yul\":13966:14004   */\n      tag_281\n        /* \"#utility.yul\":13998:14003   */\n      dup2\n        /* \"#utility.yul\":13966:14004   */\n      tag_134\n      jump\t// in\n    tag_281:\n        /* \"#utility.yul\":14050:14079   */\n      tag_282\n        /* \"#utility.yul\":14068:14078   */\n      dup5\n        /* \"#utility.yul\":14050:14079   */\n      tag_135\n      jump\t// in\n    tag_282:\n        /* \"#utility.yul\":14040:14048   */\n      dup2\n        /* \"#utility.yul\":14036:14080   */\n      add\n        /* \"#utility.yul\":14233:14235   */\n      0x20\n        /* \"#utility.yul\":14221:14231   */\n      dup6\n        /* \"#utility.yul\":14218:14236   */\n      lt\n        /* \"#utility.yul\":14215:14264   */\n      iszero\n      tag_283\n      jumpi\n        /* \"#utility.yul\":14254:14262   */\n      dup2\n        /* \"#utility.yul\":14239:14262   */\n      swap1\n      pop\n        /* \"#utility.yul\":14215:14264   */\n    tag_283:\n        /* \"#utility.yul\":14277:14357   */\n      tag_284\n        /* \"#utility.yul\":14333:14355   */\n      tag_285\n        /* \"#utility.yul\":14351:14354   */\n      dup6\n        /* \"#utility.yul\":14333:14355   */\n      tag_135\n      jump\t// in\n    tag_285:\n        /* \"#utility.yul\":14323:14331   */\n      dup4\n        /* \"#utility.yul\":14319:14356   */\n      add\n        /* \"#utility.yul\":14306:14317   */\n      dup3\n        /* \"#utility.yul\":14277:14357   */\n      tag_144\n      jump\t// in\n    tag_284:\n        /* \"#utility.yul\":13936:14367   */\n      pop\n      pop\n        /* \"#utility.yul\":13921:14367   */\n    tag_280:\n        /* \"#utility.yul\":13831:14374   */\n      pop\n      pop\n      pop\n      jump\t// out\n        /* \"#utility.yul\":14380:14497   */\n    tag_146:\n        /* \"#utility.yul\":14434:14442   */\n      0x00\n        /* \"#utility.yul\":14484:14489   */\n      dup3\n        /* \"#utility.yul\":14478:14482   */\n      dup3\n        /* \"#utility.yul\":14474:14490   */\n      shr\n        /* \"#utility.yul\":14453:14490   */\n      swap1\n      pop\n        /* \"#utility.yul\":14380:14497   */\n      swap3\n      swap2\n      pop\n      pop\n      jump\t// out\n        /* \"#utility.yul\":14503:14672   */\n    tag_147:\n        /* \"#utility.yul\":14547:14553   */\n      0x00\n        /* \"#utility.yul\":14580:14631   */\n      tag_288\n        /* \"#utility.yul\":14628:14629   */\n      0x00\n        /* \"#utility.yul\":14624:14630   */\n      not\n        /* \"#utility.yul\":14616:14621   */\n      dup5\n        /* \"#utility.yul\":14613:14614   */\n      0x08\n        /* \"#utility.yul\":14609:14622   */\n      mul\n        /* \"#utility.yul\":14580:14631   */\n      tag_146\n      jump\t// in\n    tag_288:\n        /* \"#utility.yul\":14576:14632   */\n      not\n        /* \"#utility.yul\":14661:14665   */\n      dup1\n        /* \"#utility.yul\":14655:14659   */\n      dup4\n        /* \"#utility.yul\":14651:14666   */\n      and\n        /* \"#utility.yul\":14641:14666   */\n      swap2\n      pop\n        /* \"#utility.yul\":14554:14672   */\n      pop\n        /* \"#utility.yul\":14503:14672   */\n      swap3\n      swap2\n      pop\n      pop\n      jump\t// out\n        /* \"#utility.yul\":14677:14972   */\n    tag_148:\n        /* \"#utility.yul\":14753:14757   */\n      0x00\n        /* \"#utility.yul\":14899:14928   */\n      tag_290\n        /* \"#utility.yul\":14924:14927   */\n      dup4\n        /* \"#utility.yul\":14918:14922   */\n      dup4\n        /* \"#utility.yul\":14899:14928   */\n      tag_147\n      jump\t// in\n    tag_290:\n        /* \"#utility.yul\":14891:14928   */\n      swap2\n      pop\n        /* \"#utility.yul\":14961:14964   */\n      dup3\n        /* \"#utility.yul\":14958:14959   */\n      0x02\n        /* \"#utility.yul\":14954:14965   */\n      mul\n        /* \"#utility.yul\":14948:14952   */\n      dup3\n        /* \"#utility.yul\":14945:14966   */\n      or\n        /* \"#utility.yul\":14937:14966   */\n      swap1\n      pop\n        /* \"#utility.yul\":14677:14972   */\n      swap3\n      swap2\n      pop\n      pop\n      jump\t// out\n        /* \"#utility.yul\":14977:16372   */\n    tag_38:\n        /* \"#utility.yul\":15094:15131   */\n      tag_292\n        /* \"#utility.yul\":15127:15130   */\n      dup3\n        /* \"#utility.yul\":15094:15131   */\n      tag_119\n      jump\t// in\n    tag_292:\n        /* \"#utility.yul\":15196:15214   */\n      0xffffffffffffffff\n        /* \"#utility.yul\":15188:15194   */\n      dup2\n        /* \"#utility.yul\":15185:15215   */\n      gt\n        /* \"#utility.yul\":15182:15238   */\n      iszero\n      tag_293\n      jumpi\n        /* \"#utility.yul\":15218:15236   */\n      tag_294\n      tag_111\n      jump\t// in\n    tag_294:\n        /* \"#utility.yul\":15182:15238   */\n    tag_293:\n        /* \"#utility.yul\":15262:15300   */\n      tag_295\n        /* \"#utility.yul\":15294:15298   */\n      dup3\n        /* \"#utility.yul\":15288:15299   */\n      sload\n        /* \"#utility.yul\":15262:15300   */\n      tag_46\n      jump\t// in\n    tag_295:\n        /* \"#utility.yul\":15347:15414   */\n      tag_296\n        /* \"#utility.yul\":15407:15413   */\n      dup3\n        /* \"#utility.yul\":15399:15405   */\n      dup3\n        /* \"#utility.yul\":15393:15397   */\n      dup6\n        /* \"#utility.yul\":15347:15414   */\n      tag_145\n      jump\t// in\n    tag_296:\n        /* \"#utility.yul\":15441:15442   */\n      0x00\n        /* \"#utility.yul\":15465:15469   */\n      0x20\n        /* \"#utility.yul\":15452:15469   */\n      swap1\n      pop\n        /* \"#utility.yul\":15497:15499   */\n      0x1f\n        /* \"#utility.yul\":15489:15495   */\n      dup4\n        /* \"#utility.yul\":15486:15500   */\n      gt\n        /* \"#utility.yul\":15514:15515   */\n      0x01\n        /* \"#utility.yul\":15509:16127   */\n      dup2\n      eq\n      tag_298\n      jumpi\n        /* \"#utility.yul\":16171:16172   */\n      0x00\n        /* \"#utility.yul\":16188:16194   */\n      dup5\n        /* \"#utility.yul\":16185:16262   */\n      iszero\n      tag_299\n      jumpi\n        /* \"#utility.yul\":16237:16246   */\n      dup3\n        /* \"#utility.yul\":16232:16235   */\n      dup8\n        /* \"#utility.yul\":16228:16247   */\n      add\n        /* \"#utility.yul\":16222:16248   */\n      mload\n        /* \"#utility.yul\":16213:16248   */\n      swap1\n      pop\n        /* \"#utility.yul\":16185:16262   */\n    tag_299:\n        /* \"#utility.yul\":16288:16355   */\n      tag_300\n        /* \"#utility.yul\":16348:16354   */\n      dup6\n        /* \"#utility.yul\":16341:16346   */\n      dup3\n        /* \"#utility.yul\":16288:16355   */\n      tag_148\n      jump\t// in\n    tag_300:\n        /* \"#utility.yul\":16282:16286   */\n      dup7\n        /* \"#utility.yul\":16275:16356   */\n      sstore\n        /* \"#utility.yul\":16144:16366   */\n      pop\n        /* \"#utility.yul\":15479:16366   */\n      jump(tag_297)\n        /* \"#utility.yul\":15509:16127   */\n    tag_298:\n        /* \"#utility.yul\":15561:15565   */\n      0x1f\n        /* \"#utility.yul\":15557:15566   */\n      not\n        /* \"#utility.yul\":15549:15555   */\n      dup5\n        /* \"#utility.yul\":15545:15567   */\n      and\n        /* \"#utility.yul\":15595:15632   */\n      tag_301\n        /* \"#utility.yul\":15627:15631   */\n      dup7\n        /* \"#utility.yul\":15595:15632   */\n      tag_134\n      jump\t// in\n    tag_301:\n        /* \"#utility.yul\":15654:15655   */\n      0x00\n        /* \"#utility.yul\":15668:15876   */\n    tag_302:\n        /* \"#utility.yul\":15682:15689   */\n      dup3\n        /* \"#utility.yul\":15679:15680   */\n      dup2\n        /* \"#utility.yul\":15676:15690   */\n      lt\n        /* \"#utility.yul\":15668:15876   */\n      iszero\n      tag_304\n      jumpi\n        /* \"#utility.yul\":15761:15770   */\n      dup5\n        /* \"#utility.yul\":15756:15759   */\n      dup10\n        /* \"#utility.yul\":15752:15771   */\n      add\n        /* \"#utility.yul\":15746:15772   */\n      mload\n        /* \"#utility.yul\":15738:15744   */\n      dup3\n        /* \"#utility.yul\":15731:15773   */\n      sstore\n        /* \"#utility.yul\":15812:15813   */\n      0x01\n        /* \"#utility.yul\":15804:15810   */\n      dup3\n        /* \"#utility.yul\":15800:15814   */\n      add\n        /* \"#utility.yul\":15790:15814   */\n      swap2\n      pop\n        /* \"#utility.yul\":15859:15861   */\n      0x20\n        /* \"#utility.yul\":15848:15857   */\n      dup6\n        /* \"#utility.yul\":15844:15862   */\n      add\n        /* \"#utility.yul\":15831:15862   */\n      swap5\n      pop\n        /* \"#utility.yul\":15705:15709   */\n      0x20\n        /* \"#utility.yul\":15702:15703   */\n      dup2\n        /* \"#utility.yul\":15698:15710   */\n      add\n        /* \"#utility.yul\":15693:15710   */\n      swap1\n      pop\n        /* \"#utility.yul\":15668:15876   */\n      jump(tag_302)\n    tag_304:\n        /* \"#utility.yul\":15904:15910   */\n      dup7\n        /* \"#utility.yul\":15895:15902   */\n      dup4\n        /* \"#utility.yul\":15892:15911   */\n      lt\n        /* \"#utility.yul\":15889:16068   */\n      iszero\n      tag_305\n      jumpi\n        /* \"#utility.yul\":15962:15971   */\n      dup5\n        /* \"#utility.yul\":15957:15960   */\n      dup10\n        /* \"#utility.yul\":15953:15972   */\n      add\n        /* \"#utility.yul\":15947:15973   */\n      mload\n        /* \"#utility.yul\":16005:16053   */\n      tag_306\n        /* \"#utility.yul\":16047:16051   */\n      0x1f\n        /* \"#utility.yul\":16039:16045   */\n      dup10\n        /* \"#utility.yul\":16035:16052   */\n      and\n        /* \"#utility.yul\":16024:16033   */\n      dup3\n        /* \"#utility.yul\":16005:16053   */\n      tag_147\n      jump\t// in\n    tag_306:\n        /* \"#utility.yul\":15997:16003   */\n      dup4\n        /* \"#utility.yul\":15990:16054   */\n      sstore\n        /* \"#utility.yul\":15912:16068   */\n      pop\n        /* \"#utility.yul\":15889:16068   */\n    tag_305:\n        /* \"#utility.yul\":16114:16115   */\n      0x01\n        /* \"#utility.yul\":16110:16111   */\n      0x02\n        /* \"#utility.yul\":16102:16108   */\n      dup9\n        /* \"#utility.yul\":16098:16112   */\n      mul\n        /* \"#utility.yul\":16094:16116   */\n      add\n        /* \"#utility.yul\":16088:16092   */\n      dup9\n        /* \"#utility.yul\":16081:16117   */\n      sstore\n        /* \"#utility.yul\":15516:16127   */\n      pop\n      pop\n      pop\n        /* \"#utility.yul\":15479:16366   */\n    tag_297:\n      pop\n        /* \"#utility.yul\":15069:16372   */\n      pop\n      pop\n      pop\n        /* \"#utility.yul\":14977:16372   */\n      pop\n      pop\n      jump\t// out\n\n    auxdata: 0xa2646970667358221220560a44a833cf7cca925049cef32b09bcb5f33648efe44a3da6fd22744b188b3d64736f6c63430008120033\n}\n",
				"bytecode": {
					"linkReferences": {},
					"object": "608060405234801561001057600080fd5b50611244806100206000396000f3fe608060405234801561001057600080fd5b50600436106100575760003560e01c80633b4598b11461005c578063448e1bed14610078578063674271cd14610098578063c731f947146100c8578063f1d064b3146100e4575b600080fd5b61007660048036038101906100719190610b96565b610102565b005b6100806102a2565b60405161008f93929190610cfd565b60405180910390f35b6100b260048036038101906100ad9190610d49565b61069d565b6040516100bf9190610dc0565b60405180910390f35b6100e260048036038101906100dd9190610b96565b6107ac565b005b6100ec610847565b6040516100f99190610f0e565b60405180910390f35b6060605a8210610149576040518060400160405280600181526020017f4100000000000000000000000000000000000000000000000000000000000000815250905061020e565b6050821061018e576040518060400160405280600181526020017f4200000000000000000000000000000000000000000000000000000000000000815250905061020d565b604682106101d3576040518060400160405280600181526020017f4300000000000000000000000000000000000000000000000000000000000000815250905061020c565b6040518060400160405280600181526020017f460000000000000000000000000000000000000000000000000000000000000081525090505b5b5b600c6040518060800160405280868152602001858152602001848152602001838152509080600181540180825580915050600190039060005260206000209060040201600090919091909150600082015181600001556020820151816001019081610279919061113c565b50604082015181600201556060820151816003019081610299919061113c565b50505050505050565b6102aa6109de565b6102b26109de565b6102ba6109de565b60006004600882604051806080016040529081600082015481526020016001820180546102e690610f5f565b80601f016020809104026020016040519081016040528092919081815260200182805461031290610f5f565b801561035f5780601f106103345761010080835404028352916020019161035f565b820191906000526020600020905b81548152906001019060200180831161034257829003601f168201915b505050505081526020016002820154815260200160038201805461038290610f5f565b80601f01602080910402602001604051908101604052809291908181526020018280546103ae90610f5f565b80156103fb5780601f106103d0576101008083540402835291602001916103fb565b820191906000526020600020905b8154815290600101906020018083116103de57829003601f168201915b5050505050815250509250816040518060800160405290816000820154815260200160018201805461042c90610f5f565b80601f016020809104026020016040519081016040528092919081815260200182805461045890610f5f565b80156104a55780601f1061047a576101008083540402835291602001916104a5565b820191906000526020600020905b81548152906001019060200180831161048857829003601f168201915b50505050508152602001600282015481526020016003820180546104c890610f5f565b80601f01602080910402602001604051908101604052809291908181526020018280546104f490610f5f565b80156105415780601f1061051657610100808354040283529160200191610541565b820191906000526020600020905b81548152906001019060200180831161052457829003601f168201915b5050505050815250509150806040518060800160405290816000820154815260200160018201805461057290610f5f565b80601f016020809104026020016040519081016040528092919081815260200182805461059e90610f5f565b80156105eb5780601f106105c0576101008083540402835291602001916105eb565b820191906000526020600020905b8154815290600101906020018083116105ce57829003601f168201915b505050505081526020016002820154815260200160038201805461060e90610f5f565b80601f016020809104026020016040519081016040528092919081815260200182805461063a90610f5f565b80156106875780601f1061065c57610100808354040283529160200191610687565b820191906000526020600020905b81548152906001019060200180831161066a57829003601f168201915b5050505050815250509050925092509250909192565b6060605a82106106e4576040518060400160405280600181526020017f410000000000000000000000000000000000000000000000000000000000000081525090506107a7565b60508210610729576040518060400160405280600181526020017f420000000000000000000000000000000000000000000000000000000000000081525090506107a7565b6046821061076e576040518060400160405280600181526020017f430000000000000000000000000000000000000000000000000000000000000081525090506107a7565b6040518060400160405280600181526020017f460000000000000000000000000000000000000000000000000000000000000081525090505b919050565b600c60405180608001604052808581526020018481526020018381526020016107d48461069d565b815250908060018154018082558091505060019003906000526020600020906004020160009091909190915060008201518160000155602082015181600101908161081f919061113c565b5060408201518160020155606082015181600301908161083f919061113c565b505050505050565b6060600c805480602002602001604051908101604052809291908181526020016000905b828210156109d55783829060005260206000209060040201604051806080016040529081600082015481526020016001820180546108a890610f5f565b80601f01602080910402602001604051908101604052809291908181526020018280546108d490610f5f565b80156109215780601f106108f657610100808354040283529160200191610921565b820191906000526020600020905b81548152906001019060200180831161090457829003601f168201915b505050505081526020016002820154815260200160038201805461094490610f5f565b80601f016020809104026020016040519081016040528092919081815260200182805461097090610f5f565b80156109bd5780601f10610992576101008083540402835291602001916109bd565b820191906000526020600020905b8154815290600101906020018083116109a057829003601f168201915b5050505050815250508152602001906001019061086b565b50505050905090565b6040518060800160405280600081526020016060815260200160008152602001606081525090565b6000604051905090565b600080fd5b600080fd5b6000819050919050565b610a2d81610a1a565b8114610a3857600080fd5b50565b600081359050610a4a81610a24565b92915050565b600080fd5b600080fd5b6000601f19601f8301169050919050565b7f4e487b7100000000000000000000000000000000000000000000000000000000600052604160045260246000fd5b610aa382610a5a565b810181811067ffffffffffffffff82111715610ac257610ac1610a6b565b5b80604052505050565b6000610ad5610a06565b9050610ae18282610a9a565b919050565b600067ffffffffffffffff821115610b0157610b00610a6b565b5b610b0a82610a5a565b9050602081019050919050565b82818337600083830152505050565b6000610b39610b3484610ae6565b610acb565b905082815260208101848484011115610b5557610b54610a55565b5b610b60848285610b17565b509392505050565b600082601f830112610b7d57610b7c610a50565b5b8135610b8d848260208601610b26565b91505092915050565b600080600060608486031215610baf57610bae610a10565b5b6000610bbd86828701610a3b565b935050602084013567ffffffffffffffff811115610bde57610bdd610a15565b5b610bea86828701610b68565b9250506040610bfb86828701610a3b565b9150509250925092565b610c0e81610a1a565b82525050565b600081519050919050565b600082825260208201905092915050565b60005b83811015610c4e578082015181840152602081019050610c33565b60008484015250505050565b6000610c6582610c14565b610c6f8185610c1f565b9350610c7f818560208601610c30565b610c8881610a5a565b840191505092915050565b6000608083016000830151610cab6000860182610c05565b5060208301518482036020860152610cc38282610c5a565b9150506040830151610cd86040860182610c05565b5060608301518482036060860152610cf08282610c5a565b9150508091505092915050565b60006060820190508181036000830152610d178186610c93565b90508181036020830152610d2b8185610c93565b90508181036040830152610d3f8184610c93565b9050949350505050565b600060208284031215610d5f57610d5e610a10565b5b6000610d6d84828501610a3b565b91505092915050565b600082825260208201905092915050565b6000610d9282610c14565b610d9c8185610d76565b9350610dac818560208601610c30565b610db581610a5a565b840191505092915050565b60006020820190508181036000830152610dda8184610d87565b905092915050565b600081519050919050565b600082825260208201905092915050565b6000819050602082019050919050565b6000608083016000830151610e266000860182610c05565b5060208301518482036020860152610e3e8282610c5a565b9150506040830151610e536040860182610c05565b5060608301518482036060860152610e6b8282610c5a565b9150508091505092915050565b6000610e848383610e0e565b905092915050565b6000602082019050919050565b6000610ea482610de2565b610eae8185610ded565b935083602082028501610ec085610dfe565b8060005b85811015610efc5784840389528151610edd8582610e78565b9450610ee883610e8c565b925060208a01995050600181019050610ec4565b50829750879550505050505092915050565b60006020820190508181036000830152610f288184610e99565b905092915050565b7f4e487b7100000000000000000000000000000000000000000000000000000000600052602260045260246000fd5b60006002820490506001821680610f7757607f821691505b602082108103610f8a57610f89610f30565b5b50919050565b60008190508160005260206000209050919050565b60006020601f8301049050919050565b600082821b905092915050565b600060088302610ff27fffffffffffffffffffffffffffffffffffffffffffffffffffffffffffffffff82610fb5565b610ffc8683610fb5565b95508019841693508086168417925050509392505050565b6000819050919050565b600061103961103461102f84610a1a565b611014565b610a1a565b9050919050565b6000819050919050565b6110538361101e565b61106761105f82611040565b848454610fc2565b825550505050565b600090565b61107c61106f565b61108781848461104a565b505050565b5b818110156110ab576110a0600082611074565b60018101905061108d565b5050565b601f8211156110f0576110c181610f90565b6110ca84610fa5565b810160208510156110d9578190505b6110ed6110e585610fa5565b83018261108c565b50505b505050565b600082821c905092915050565b6000611113600019846008026110f5565b1980831691505092915050565b600061112c8383611102565b9150826002028217905092915050565b61114582610c14565b67ffffffffffffffff81111561115e5761115d610a6b565b5b6111688254610f5f565b6111738282856110af565b600060209050601f8311600181146111a65760008415611194578287015190505b61119e8582611120565b865550611206565b601f1984166111b486610f90565b60005b828110156111dc578489015182556001820191506020850194506020810190506111b7565b868310156111f957848901516111f5601f891682611102565b8355505b6001600288020188555050505b50505050505056fea2646970667358221220560a44a833cf7cca925049cef32b09bcb5f33648efe44a3da6fd22744b188b3d64736f6c63430008120033",
					"opcodes": "PUSH1 0x80 PUSH1 0x40 MSTORE CALLVALUE DUP1 ISZERO PUSH2 0x10 JUMPI PUSH1 0x0 DUP1 REVERT JUMPDEST POP PUSH2 0x1244 DUP1 PUSH2 0x20 PUSH1 0x0 CODECOPY PUSH1 0x0 RETURN INVALID PUSH1 0x80 PUSH1 0x40 MSTORE CALLVALUE DUP1 ISZERO PUSH2 0x10 JUMPI PUSH1 0x0 DUP1 REVERT JUMPDEST POP PUSH1 0x4 CALLDATASIZE LT PUSH2 0x57 JUMPI PUSH1 0x0 CALLDATALOAD PUSH1 0xE0 SHR DUP1 PUSH4 0x3B4598B1 EQ PUSH2 0x5C JUMPI DUP1 PUSH4 0x448E1BED EQ PUSH2 0x78 JUMPI DUP1 PUSH4 0x674271CD EQ PUSH2 0x98 JUMPI DUP1 PUSH4 0xC731F947 EQ PUSH2 0xC8 JUMPI DUP1 PUSH4 0xF1D064B3 EQ PUSH2 0xE4 JUMPI JUMPDEST PUSH1 0x0 DUP1 REVERT JUMPDEST PUSH2 0x76 PUSH1 0x4 DUP1 CALLDATASIZE SUB DUP2 ADD SWAP1 PUSH2 0x71 SWAP2 SWAP1 PUSH2 0xB96 JUMP JUMPDEST PUSH2 0x102 JUMP JUMPDEST STOP JUMPDEST PUSH2 0x80 PUSH2 0x2A2 JUMP JUMPDEST PUSH1 0x40 MLOAD PUSH2 0x8F SWAP4 SWAP3 SWAP2 SWAP1 PUSH2 0xCFD JUMP JUMPDEST PUSH1 0x40 MLOAD DUP1 SWAP2 SUB SWAP1 RETURN JUMPDEST PUSH2 0xB2 PUSH1 0x4 DUP1 CALLDATASIZE SUB DUP2 ADD SWAP1 PUSH2 0xAD SWAP2 SWAP1 PUSH2 0xD49 JUMP JUMPDEST PUSH2 0x69D JUMP JUMPDEST PUSH1 0x40 MLOAD PUSH2 0xBF SWAP2 SWAP1 PUSH2 0xDC0 JUMP JUMPDEST PUSH1 0x40 MLOAD DUP1 SWAP2 SUB SWAP1 RETURN JUMPDEST PUSH2 0xE2 PUSH1 0x4 DUP1 CALLDATASIZE SUB DUP2 ADD SWAP1 PUSH2 0xDD SWAP2 SWAP1 PUSH2 0xB96 JUMP JUMPDEST PUSH2 0x7AC JUMP JUMPDEST STOP JUMPDEST PUSH2 0xEC PUSH2 0x847 JUMP JUMPDEST PUSH1 0x40 MLOAD PUSH2 0xF9 SWAP2 SWAP1 PUSH2 0xF0E JUMP JUMPDEST PUSH1 0x40 MLOAD DUP1 SWAP2 SUB SWAP1 RETURN JUMPDEST PUSH1 0x60 PUSH1 0x5A DUP3 LT PUSH2 0x149 JUMPI PUSH1 0x40 MLOAD DUP1 PUSH1 0x40 ADD PUSH1 0x40 MSTORE DUP1 PUSH1 0x1 DUP2 MSTORE PUSH1 0x20 ADD PUSH32 0x4100000000000000000000000000000000000000000000000000000000000000 DUP2 MSTORE POP SWAP1 POP PUSH2 0x20E JUMP JUMPDEST PUSH1 0x50 DUP3 LT PUSH2 0x18E JUMPI PUSH1 0x40 MLOAD DUP1 PUSH1 0x40 ADD PUSH1 0x40 MSTORE DUP1 PUSH1 0x1 DUP2 MSTORE PUSH1 0x20 ADD PUSH32 0x4200000000000000000000000000000000000000000000000000000000000000 DUP2 MSTORE POP SWAP1 POP PUSH2 0x20D JUMP JUMPDEST PUSH1 0x46 DUP3 LT PUSH2 0x1D3 JUMPI PUSH1 0x40 MLOAD DUP1 PUSH1 0x40 ADD PUSH1 0x40 MSTORE DUP1 PUSH1 0x1 DUP2 MSTORE PUSH1 0x20 ADD PUSH32 0x4300000000000000000000000000000000000000000000000000000000000000 DUP2 MSTORE POP SWAP1 POP PUSH2 0x20C JUMP JUMPDEST PUSH1 0x40 MLOAD DUP1 PUSH1 0x40 ADD PUSH1 0x40 MSTORE DUP1 PUSH1 0x1 DUP2 MSTORE PUSH1 0x20 ADD PUSH32 0x4600000000000000000000000000000000000000000000000000000000000000 DUP2 MSTORE POP SWAP1 POP JUMPDEST JUMPDEST JUMPDEST PUSH1 0xC PUSH1 0x40 MLOAD DUP1 PUSH1 0x80 ADD PUSH1 0x40 MSTORE DUP1 DUP7 DUP2 MSTORE PUSH1 0x20 ADD DUP6 DUP2 MSTORE PUSH1 0x20 ADD DUP5 DUP2 MSTORE PUSH1 0x20 ADD DUP4 DUP2 MSTORE POP SWAP1 DUP1 PUSH1 0x1 DUP2 SLOAD ADD DUP1 DUP3 SSTORE DUP1 SWAP2 POP POP PUSH1 0x1 SWAP1 SUB SWAP1 PUSH1 0x0 MSTORE PUSH1 0x20 PUSH1 0x0 KECCAK256 SWAP1 PUSH1 0x4 MUL ADD PUSH1 0x0 SWAP1 SWAP2 SWAP1 SWAP2 SWAP1 SWAP2 POP PUSH1 0x0 DUP3 ADD MLOAD DUP2 PUSH1 0x0 ADD SSTORE PUSH1 0x20 DUP3 ADD MLOAD DUP2 PUSH1 0x1 ADD SWAP1 DUP2 PUSH2 0x279 SWAP2 SWAP1 PUSH2 0x113C JUMP JUMPDEST POP PUSH1 0x40 DUP3 ADD MLOAD DUP2 PUSH1 0x2 ADD SSTORE PUSH1 0x60 DUP3 ADD MLOAD DUP2 PUSH1 0x3 ADD SWAP1 DUP2 PUSH2 0x299 SWAP2 SWAP1 PUSH2 0x113C JUMP JUMPDEST POP POP POP POP POP POP POP JUMP JUMPDEST PUSH2 0x2AA PUSH2 0x9DE JUMP JUMPDEST PUSH2 0x2B2 PUSH2 0x9DE JUMP JUMPDEST PUSH2 0x2BA PUSH2 0x9DE JUMP JUMPDEST PUSH1 0x0 PUSH1 0x4 PUSH1 0x8 DUP3 PUSH1 0x40 MLOAD DUP1 PUSH1 0x80 ADD PUSH1 0x40 MSTORE SWAP1 DUP2 PUSH1 0x0 DUP3 ADD SLOAD DUP2 MSTORE PUSH1 0x20 ADD PUSH1 0x1 DUP3 ADD DUP1 SLOAD PUSH2 0x2E6 SWAP1 PUSH2 0xF5F JUMP JUMPDEST DUP1 PUSH1 0x1F ADD PUSH1 0x20 DUP1 SWAP2 DIV MUL PUSH1 0x20 ADD PUSH1 0x40 MLOAD SWAP1 DUP2 ADD PUSH1 0x40 MSTORE DUP1 SWAP3 SWAP2 SWAP1 DUP2 DUP2 MSTORE PUSH1 0x20 ADD DUP3 DUP1 SLOAD PUSH2 0x312 SWAP1 PUSH2 0xF5F JUMP JUMPDEST DUP1 ISZERO PUSH2 0x35F JUMPI DUP1 PUSH1 0x1F LT PUSH2 0x334 JUMPI PUSH2 0x100 DUP1 DUP4 SLOAD DIV MUL DUP4 MSTORE SWAP2 PUSH1 0x20 ADD SWAP2 PUSH2 0x35F JUMP JUMPDEST DUP3 ADD SWAP2 SWAP1 PUSH1 0x0 MSTORE PUSH1 0x20 PUSH1 0x0 KECCAK256 SWAP1 JUMPDEST DUP2 SLOAD DUP2 MSTORE SWAP1 PUSH1 0x1 ADD SWAP1 PUSH1 0x20 ADD DUP1 DUP4 GT PUSH2 0x342 JUMPI DUP3 SWAP1 SUB PUSH1 0x1F AND DUP3 ADD SWAP2 JUMPDEST POP POP POP POP POP DUP2 MSTORE PUSH1 0x20 ADD PUSH1 0x2 DUP3 ADD SLOAD DUP2 MSTORE PUSH1 0x20 ADD PUSH1 0x3 DUP3 ADD DUP1 SLOAD PUSH2 0x382 SWAP1 PUSH2 0xF5F JUMP JUMPDEST DUP1 PUSH1 0x1F ADD PUSH1 0x20 DUP1 SWAP2 DIV MUL PUSH1 0x20 ADD PUSH1 0x40 MLOAD SWAP1 DUP2 ADD PUSH1 0x40 MSTORE DUP1 SWAP3 SWAP2 SWAP1 DUP2 DUP2 MSTORE PUSH1 0x20 ADD DUP3 DUP1 SLOAD PUSH2 0x3AE SWAP1 PUSH2 0xF5F JUMP JUMPDEST DUP1 ISZERO PUSH2 0x3FB JUMPI DUP1 PUSH1 0x1F LT PUSH2 0x3D0 JUMPI PUSH2 0x100 DUP1 DUP4 SLOAD DIV MUL DUP4 MSTORE SWAP2 PUSH1 0x20 ADD SWAP2 PUSH2 0x3FB JUMP JUMPDEST DUP3 ADD SWAP2 SWAP1 PUSH1 0x0 MSTORE PUSH1 0x20 PUSH1 0x0 KECCAK256 SWAP1 JUMPDEST DUP2 SLOAD DUP2 MSTORE SWAP1 PUSH1 0x1 ADD SWAP1 PUSH1 0x20 ADD DUP1 DUP4 GT PUSH2 0x3DE JUMPI DUP3 SWAP1 SUB PUSH1 0x1F AND DUP3 ADD SWAP2 JUMPDEST POP POP POP POP POP DUP2 MSTORE POP POP SWAP3 POP DUP2 PUSH1 0x40 MLOAD DUP1 PUSH1 0x80 ADD PUSH1 0x40 MSTORE SWAP1 DUP2 PUSH1 0x0 DUP3 ADD SLOAD DUP2 MSTORE PUSH1 0x20 ADD PUSH1 0x1 DUP3 ADD DUP1 SLOAD PUSH2 0x42C SWAP1 PUSH2 0xF5F JUMP JUMPDEST DUP1 PUSH1 0x1F ADD PUSH1 0x20 DUP1 SWAP2 DIV MUL PUSH1 0x20 ADD PUSH1 0x40 MLOAD SWAP1 DUP2 ADD PUSH1 0x40 MSTORE DUP1 SWAP3 SWAP2 SWAP1 DUP2 DUP2 MSTORE PUSH1 0x20 ADD DUP3 DUP1 SLOAD PUSH2 0x458 SWAP1 PUSH2 0xF5F JUMP JUMPDEST DUP1 ISZERO PUSH2 0x4A5 JUMPI DUP1 PUSH1 0x1F LT PUSH2 0x47A JUMPI PUSH2 0x100 DUP1 DUP4 SLOAD DIV MUL DUP4 MSTORE SWAP2 PUSH1 0x20 ADD SWAP2 PUSH2 0x4A5 JUMP JUMPDEST DUP3 ADD SWAP2 SWAP1 PUSH1 0x0 MSTORE PUSH1 0x20 PUSH1 0x0 KECCAK256 SWAP1 JUMPDEST DUP2 SLOAD DUP2 MSTORE SWAP1 PUSH1 0x1 ADD SWAP1 PUSH1 0x20 ADD DUP1 DUP4 GT PUSH2 0x488 JUMPI DUP3 SWAP1 SUB PUSH1 0x1F AND DUP3 ADD SWAP2 JUMPDEST POP POP POP POP POP DUP2 MSTORE PUSH1 0x20 ADD PUSH1 0x2 DUP3 ADD SLOAD DUP2 MSTORE PUSH1 0x20 ADD PUSH1 0x3 DUP3 ADD DUP1 SLOAD PUSH2 0x4C8 SWAP1 PUSH2 0xF5F JUMP JUMPDEST DUP1 PUSH1 0x1F ADD PUSH1 0x20 DUP1 SWAP2 DIV MUL PUSH1 0x20 ADD PUSH1 0x40 MLOAD SWAP1 DUP2 ADD PUSH1 0x40 MSTORE DUP1 SWAP3 SWAP2 SWAP1 DUP2 DUP2 MSTORE PUSH1 0x20 ADD DUP3 DUP1 SLOAD PUSH2 0x4F4 SWAP1 PUSH2 0xF5F JUMP JUMPDEST DUP1 ISZERO PUSH2 0x541 JUMPI DUP1 PUSH1 0x1F LT PUSH2 0x516 JUMPI PUSH2 0x100 DUP1 DUP4 SLOAD DIV MUL DUP4 MSTORE SWAP2 PUSH1 0x20 ADD SWAP2 PUSH2 0x541 JUMP JUMPDEST DUP3 ADD SWAP2 SWAP1 PUSH1 0x0 MSTORE PUSH1 0x20 PUSH1 0x0 KECCAK256 SWAP1 JUMPDEST DUP2 SLOAD DUP2 MSTORE SWAP1 PUSH1 0x1 ADD SWAP1 PUSH1 0x20 ADD DUP1 DUP4 GT PUSH2 0x524 JUMPI DUP3 SWAP1 SUB PUSH1 0x1F AND DUP3 ADD SWAP2 JUMPDEST POP POP POP POP POP DUP2 MSTORE POP POP SWAP2 POP DUP1 PUSH1 0x40 MLOAD DUP1 PUSH1 0x80 ADD PUSH1 0x40 MSTORE SWAP1 DUP2 PUSH1 0x0 DUP3 ADD SLOAD DUP2 MSTORE PUSH1 0x20 ADD PUSH1 0x1 DUP3 ADD DUP1 SLOAD PUSH2 0x572 SWAP1 PUSH2 0xF5F JUMP JUMPDEST DUP1 PUSH1 0x1F ADD PUSH1 0x20 DUP1 SWAP2 DIV MUL PUSH1 0x20 ADD PUSH1 0x40 MLOAD SWAP1 DUP2 ADD PUSH1 0x40 MSTORE DUP1 SWAP3 SWAP2 SWAP1 DUP2 DUP2 MSTORE PUSH1 0x20 ADD DUP3 DUP1 SLOAD PUSH2 0x59E SWAP1 PUSH2 0xF5F JUMP JUMPDEST DUP1 ISZERO PUSH2 0x5EB JUMPI DUP1 PUSH1 0x1F LT PUSH2 0x5C0 JUMPI PUSH2 0x100 DUP1 DUP4 SLOAD DIV MUL DUP4 MSTORE SWAP2 PUSH1 0x20 ADD SWAP2 PUSH2 0x5EB JUMP JUMPDEST DUP3 ADD SWAP2 SWAP1 PUSH1 0x0 MSTORE PUSH1 0x20 PUSH1 0x0 KECCAK256 SWAP1 JUMPDEST DUP2 SLOAD DUP2 MSTORE SWAP1 PUSH1 0x1 ADD SWAP1 PUSH1 0x20 ADD DUP1 DUP4 GT PUSH2 0x5CE JUMPI DUP3 SWAP1 SUB PUSH1 0x1F AND DUP3 ADD SWAP2 JUMPDEST POP POP POP POP POP DUP2 MSTORE PUSH1 0x20 ADD PUSH1 0x2 DUP3 ADD SLOAD DUP2 MSTORE PUSH1 0x20 ADD PUSH1 0x3 DUP3 ADD DUP1 SLOAD PUSH2 0x60E SWAP1 PUSH2 0xF5F JUMP JUMPDEST DUP1 PUSH1 0x1F ADD PUSH1 0x20 DUP1 SWAP2 DIV MUL PUSH1 0x20 ADD PUSH1 0x40 MLOAD SWAP1 DUP2 ADD PUSH1 0x40 MSTORE DUP1 SWAP3 SWAP2 SWAP1 DUP2 DUP2 MSTORE PUSH1 0x20 ADD DUP3 DUP1 SLOAD PUSH2 0x63A SWAP1 PUSH2 0xF5F JUMP JUMPDEST DUP1 ISZERO PUSH2 0x687 JUMPI DUP1 PUSH1 0x1F LT PUSH2 0x65C JUMPI PUSH2 0x100 DUP1 DUP4 SLOAD DIV MUL DUP4 MSTORE SWAP2 PUSH1 0x20 ADD SWAP2 PUSH2 0x687 JUMP JUMPDEST DUP3 ADD SWAP2 SWAP1 PUSH1 0x0 MSTORE PUSH1 0x20 PUSH1 0x0 KECCAK256 SWAP1 JUMPDEST DUP2 SLOAD DUP2 MSTORE SWAP1 PUSH1 0x1 ADD SWAP1 PUSH1 0x20 ADD DUP1 DUP4 GT PUSH2 0x66A JUMPI DUP3 SWAP1 SUB PUSH1 0x1F AND DUP3 ADD SWAP2 JUMPDEST POP POP POP POP POP DUP2 MSTORE POP POP SWAP1 POP SWAP3 POP SWAP3 POP SWAP3 POP SWAP1 SWAP2 SWAP3 JUMP JUMPDEST PUSH1 0x60 PUSH1 0x5A DUP3 LT PUSH2 0x6E4 JUMPI PUSH1 0x40 MLOAD DUP1 PUSH1 0x40 ADD PUSH1 0x40 MSTORE DUP1 PUSH1 0x1 DUP2 MSTORE PUSH1 0x20 ADD PUSH32 0x4100000000000000000000000000000000000000000000000000000000000000 DUP2 MSTORE POP SWAP1 POP PUSH2 0x7A7 JUMP JUMPDEST PUSH1 0x50 DUP3 LT PUSH2 0x729 JUMPI PUSH1 0x40 MLOAD DUP1 PUSH1 0x40 ADD PUSH1 0x40 MSTORE DUP1 PUSH1 0x1 DUP2 MSTORE PUSH1 0x20 ADD PUSH32 0x4200000000000000000000000000000000000000000000000000000000000000 DUP2 MSTORE POP SWAP1 POP PUSH2 0x7A7 JUMP JUMPDEST PUSH1 0x46 DUP3 LT PUSH2 0x76E JUMPI PUSH1 0x40 MLOAD DUP1 PUSH1 0x40 ADD PUSH1 0x40 MSTORE DUP1 PUSH1 0x1 DUP2 MSTORE PUSH1 0x20 ADD PUSH32 0x4300000000000000000000000000000000000000000000000000000000000000 DUP2 MSTORE POP SWAP1 POP PUSH2 0x7A7 JUMP JUMPDEST PUSH1 0x40 MLOAD DUP1 PUSH1 0x40 ADD PUSH1 0x40 MSTORE DUP1 PUSH1 0x1 DUP2 MSTORE PUSH1 0x20 ADD PUSH32 0x4600000000000000000000000000000000000000000000000000000000000000 DUP2 MSTORE POP SWAP1 POP JUMPDEST SWAP2 SWAP1 POP JUMP JUMPDEST PUSH1 0xC PUSH1 0x40 MLOAD DUP1 PUSH1 0x80 ADD PUSH1 0x40 MSTORE DUP1 DUP6 DUP2 MSTORE PUSH1 0x20 ADD DUP5 DUP2 MSTORE PUSH1 0x20 ADD DUP4 DUP2 MSTORE PUSH1 0x20 ADD PUSH2 0x7D4 DUP5 PUSH2 0x69D JUMP JUMPDEST DUP2 MSTORE POP SWAP1 DUP1 PUSH1 0x1 DUP2 SLOAD ADD DUP1 DUP3 SSTORE DUP1 SWAP2 POP POP PUSH1 0x1 SWAP1 SUB SWAP1 PUSH1 0x0 MSTORE PUSH1 0x20 PUSH1 0x0 KECCAK256 SWAP1 PUSH1 0x4 MUL ADD PUSH1 0x0 SWAP1 SWAP2 SWAP1 SWAP2 SWAP1 SWAP2 POP PUSH1 0x0 DUP3 ADD MLOAD DUP2 PUSH1 0x0 ADD SSTORE PUSH1 0x20 DUP3 ADD MLOAD DUP2 PUSH1 0x1 ADD SWAP1 DUP2 PUSH2 0x81F SWAP2 SWAP1 PUSH2 0x113C JUMP JUMPDEST POP PUSH1 0x40 DUP3 ADD MLOAD DUP2 PUSH1 0x2 ADD SSTORE PUSH1 0x60 DUP3 ADD MLOAD DUP2 PUSH1 0x3 ADD SWAP1 DUP2 PUSH2 0x83F SWAP2 SWAP1 PUSH2 0x113C JUMP JUMPDEST POP POP POP POP POP POP JUMP JUMPDEST PUSH1 0x60 PUSH1 0xC DUP1 SLOAD DUP1 PUSH1 0x20 MUL PUSH1 0x20 ADD PUSH1 0x40 MLOAD SWAP1 DUP2 ADD PUSH1 0x40 MSTORE DUP1 SWAP3 SWAP2 SWAP1 DUP2 DUP2 MSTORE PUSH1 0x20 ADD PUSH1 0x0 SWAP1 JUMPDEST DUP3 DUP3 LT ISZERO PUSH2 0x9D5 JUMPI DUP4 DUP3 SWAP1 PUSH1 0x0 MSTORE PUSH1 0x20 PUSH1 0x0 KECCAK256 SWAP1 PUSH1 0x4 MUL ADD PUSH1 0x40 MLOAD DUP1 PUSH1 0x80 ADD PUSH1 0x40 MSTORE SWAP1 DUP2 PUSH1 0x0 DUP3 ADD SLOAD DUP2 MSTORE PUSH1 0x20 ADD PUSH1 0x1 DUP3 ADD DUP1 SLOAD PUSH2 0x8A8 SWAP1 PUSH2 0xF5F JUMP JUMPDEST DUP1 PUSH1 0x1F ADD PUSH1 0x20 DUP1 SWAP2 DIV MUL PUSH1 0x20 ADD PUSH1 0x40 MLOAD SWAP1 DUP2 ADD PUSH1 0x40 MSTORE DUP1 SWAP3 SWAP2 SWAP1 DUP2 DUP2 MSTORE PUSH1 0x20 ADD DUP3 DUP1 SLOAD PUSH2 0x8D4 SWAP1 PUSH2 0xF5F JUMP JUMPDEST DUP1 ISZERO PUSH2 0x921 JUMPI DUP1 PUSH1 0x1F LT PUSH2 0x8F6 JUMPI PUSH2 0x100 DUP1 DUP4 SLOAD DIV MUL DUP4 MSTORE SWAP2 PUSH1 0x20 ADD SWAP2 PUSH2 0x921 JUMP JUMPDEST DUP3 ADD SWAP2 SWAP1 PUSH1 0x0 MSTORE PUSH1 0x20 PUSH1 0x0 KECCAK256 SWAP1 JUMPDEST DUP2 SLOAD DUP2 MSTORE SWAP1 PUSH1 0x1 ADD SWAP1 PUSH1 0x20 ADD DUP1 DUP4 GT PUSH2 0x904 JUMPI DUP3 SWAP1 SUB PUSH1 0x1F AND DUP3 ADD SWAP2 JUMPDEST POP POP POP POP POP DUP2 MSTORE PUSH1 0x20 ADD PUSH1 0x2 DUP3 ADD SLOAD DUP2 MSTORE PUSH1 0x20 ADD PUSH1 0x3 DUP3 ADD DUP1 SLOAD PUSH2 0x944 SWAP1 PUSH2 0xF5F JUMP JUMPDEST DUP1 PUSH1 0x1F ADD PUSH1 0x20 DUP1 SWAP2 DIV MUL PUSH1 0x20 ADD PUSH1 0x40 MLOAD SWAP1 DUP2 ADD PUSH1 0x40 MSTORE DUP1 SWAP3 SWAP2 SWAP1 DUP2 DUP2 MSTORE PUSH1 0x20 ADD DUP3 DUP1 SLOAD PUSH2 0x970 SWAP1 PUSH2 0xF5F JUMP JUMPDEST DUP1 ISZERO PUSH2 0x9BD JUMPI DUP1 PUSH1 0x1F LT PUSH2 0x992 JUMPI PUSH2 0x100 DUP1 DUP4 SLOAD DIV MUL DUP4 MSTORE SWAP2 PUSH1 0x20 ADD SWAP2 PUSH2 0x9BD JUMP JUMPDEST DUP3 ADD SWAP2 SWAP1 PUSH1 0x0 MSTORE PUSH1 0x20 PUSH1 0x0 KECCAK256 SWAP1 JUMPDEST DUP2 SLOAD DUP2 MSTORE SWAP1 PUSH1 0x1 ADD SWAP1 PUSH1 0x20 ADD DUP1 DUP4 GT PUSH2 0x9A0 JUMPI DUP3 SWAP1 SUB PUSH1 0x1F AND DUP3 ADD SWAP2 JUMPDEST POP POP POP POP POP DUP2 MSTORE POP POP DUP2 MSTORE PUSH1 0x20 ADD SWAP1 PUSH1 0x1 ADD SWAP1 PUSH2 0x86B JUMP JUMPDEST POP POP POP POP SWAP1 POP SWAP1 JUMP JUMPDEST PUSH1 0x40 MLOAD DUP1 PUSH1 0x80 ADD PUSH1 0x40 MSTORE DUP1 PUSH1 0x0 DUP2 MSTORE PUSH1 0x20 ADD PUSH1 0x60 DUP2 MSTORE PUSH1 0x20 ADD PUSH1 0x0 DUP2 MSTORE PUSH1 0x20 ADD PUSH1 0x60 DUP2 MSTORE POP SWAP1 JUMP JUMPDEST PUSH1 0x0 PUSH1 0x40 MLOAD SWAP1 POP SWAP1 JUMP JUMPDEST PUSH1 0x0 DUP1 REVERT JUMPDEST PUSH1 0x0 DUP1 REVERT JUMPDEST PUSH1 0x0 DUP2 SWAP1 POP SWAP2 SWAP1 POP JUMP JUMPDEST PUSH2 0xA2D DUP2 PUSH2 0xA1A JUMP JUMPDEST DUP2 EQ PUSH2 0xA38 JUMPI PUSH1 0x0 DUP1 REVERT JUMPDEST POP JUMP JUMPDEST PUSH1 0x0 DUP2 CALLDATALOAD SWAP1 POP PUSH2 0xA4A DUP2 PUSH2 0xA24 JUMP JUMPDEST SWAP3 SWAP2 POP POP JUMP JUMPDEST PUSH1 0x0 DUP1 REVERT JUMPDEST PUSH1 0x0 DUP1 REVERT JUMPDEST PUSH1 0x0 PUSH1 0x1F NOT PUSH1 0x1F DUP4 ADD AND SWAP1 POP SWAP2 SWAP1 POP JUMP JUMPDEST PUSH32 0x4E487B7100000000000000000000000000000000000000000000000000000000 PUSH1 0x0 MSTORE PUSH1 0x41 PUSH1 0x4 MSTORE PUSH1 0x24 PUSH1 0x0 REVERT JUMPDEST PUSH2 0xAA3 DUP3 PUSH2 0xA5A JUMP JUMPDEST DUP2 ADD DUP2 DUP2 LT PUSH8 0xFFFFFFFFFFFFFFFF DUP3 GT OR ISZERO PUSH2 0xAC2 JUMPI PUSH2 0xAC1 PUSH2 0xA6B JUMP JUMPDEST JUMPDEST DUP1 PUSH1 0x40 MSTORE POP POP POP JUMP JUMPDEST PUSH1 0x0 PUSH2 0xAD5 PUSH2 0xA06 JUMP JUMPDEST SWAP1 POP PUSH2 0xAE1 DUP3 DUP3 PUSH2 0xA9A JUMP JUMPDEST SWAP2 SWAP1 POP JUMP JUMPDEST PUSH1 0x0 PUSH8 0xFFFFFFFFFFFFFFFF DUP3 GT ISZERO PUSH2 0xB01 JUMPI PUSH2 0xB00 PUSH2 0xA6B JUMP JUMPDEST JUMPDEST PUSH2 0xB0A DUP3 PUSH2 0xA5A JUMP JUMPDEST SWAP1 POP PUSH1 0x20 DUP2 ADD SWAP1 POP SWAP2 SWAP1 POP JUMP JUMPDEST DUP3 DUP2 DUP4 CALLDATACOPY PUSH1 0x0 DUP4 DUP4 ADD MSTORE POP POP POP JUMP JUMPDEST PUSH1 0x0 PUSH2 0xB39 PUSH2 0xB34 DUP5 PUSH2 0xAE6 JUMP JUMPDEST PUSH2 0xACB JUMP JUMPDEST SWAP1 POP DUP3 DUP2 MSTORE PUSH1 0x20 DUP2 ADD DUP5 DUP5 DUP5 ADD GT ISZERO PUSH2 0xB55 JUMPI PUSH2 0xB54 PUSH2 0xA55 JUMP JUMPDEST JUMPDEST PUSH2 0xB60 DUP5 DUP3 DUP6 PUSH2 0xB17 JUMP JUMPDEST POP SWAP4 SWAP3 POP POP POP JUMP JUMPDEST PUSH1 0x0 DUP3 PUSH1 0x1F DUP4 ADD SLT PUSH2 0xB7D JUMPI PUSH2 0xB7C PUSH2 0xA50 JUMP JUMPDEST JUMPDEST DUP2 CALLDATALOAD PUSH2 0xB8D DUP5 DUP3 PUSH1 0x20 DUP7 ADD PUSH2 0xB26 JUMP JUMPDEST SWAP2 POP POP SWAP3 SWAP2 POP POP JUMP JUMPDEST PUSH1 0x0 DUP1 PUSH1 0x0 PUSH1 0x60 DUP5 DUP7 SUB SLT ISZERO PUSH2 0xBAF JUMPI PUSH2 0xBAE PUSH2 0xA10 JUMP JUMPDEST JUMPDEST PUSH1 0x0 PUSH2 0xBBD DUP7 DUP3 DUP8 ADD PUSH2 0xA3B JUMP JUMPDEST SWAP4 POP POP PUSH1 0x20 DUP5 ADD CALLDATALOAD PUSH8 0xFFFFFFFFFFFFFFFF DUP2 GT ISZERO PUSH2 0xBDE JUMPI PUSH2 0xBDD PUSH2 0xA15 JUMP JUMPDEST JUMPDEST PUSH2 0xBEA DUP7 DUP3 DUP8 ADD PUSH2 0xB68 JUMP JUMPDEST SWAP3 POP POP PUSH1 0x40 PUSH2 0xBFB DUP7 DUP3 DUP8 ADD PUSH2 0xA3B JUMP JUMPDEST SWAP2 POP POP SWAP3 POP SWAP3 POP SWAP3 JUMP JUMPDEST PUSH2 0xC0E DUP2 PUSH2 0xA1A JUMP JUMPDEST DUP3 MSTORE POP POP JUMP JUMPDEST PUSH1 0x0 DUP2 MLOAD SWAP1 POP SWAP2 SWAP1 POP JUMP JUMPDEST PUSH1 0x0 DUP3 DUP3 MSTORE PUSH1 0x20 DUP3 ADD SWAP1 POP SWAP3 SWAP2 POP POP JUMP JUMPDEST PUSH1 0x0 JUMPDEST DUP4 DUP2 LT ISZERO PUSH2 0xC4E JUMPI DUP1 DUP3 ADD MLOAD DUP2 DUP5 ADD MSTORE PUSH1 0x20 DUP2 ADD SWAP1 POP PUSH2 0xC33 JUMP JUMPDEST PUSH1 0x0 DUP5 DUP5 ADD MSTORE POP POP POP POP JUMP JUMPDEST PUSH1 0x0 PUSH2 0xC65 DUP3 PUSH2 0xC14 JUMP JUMPDEST PUSH2 0xC6F DUP2 DUP6 PUSH2 0xC1F JUMP JUMPDEST SWAP4 POP PUSH2 0xC7F DUP2 DUP6 PUSH1 0x20 DUP7 ADD PUSH2 0xC30 JUMP JUMPDEST PUSH2 0xC88 DUP2 PUSH2 0xA5A JUMP JUMPDEST DUP5 ADD SWAP2 POP POP SWAP3 SWAP2 POP POP JUMP JUMPDEST PUSH1 0x0 PUSH1 0x80 DUP4 ADD PUSH1 0x0 DUP4 ADD MLOAD PUSH2 0xCAB PUSH1 0x0 DUP7 ADD DUP3 PUSH2 0xC05 JUMP JUMPDEST POP PUSH1 0x20 DUP4 ADD MLOAD DUP5 DUP3 SUB PUSH1 0x20 DUP7 ADD MSTORE PUSH2 0xCC3 DUP3 DUP3 PUSH2 0xC5A JUMP JUMPDEST SWAP2 POP POP PUSH1 0x40 DUP4 ADD MLOAD PUSH2 0xCD8 PUSH1 0x40 DUP7 ADD DUP3 PUSH2 0xC05 JUMP JUMPDEST POP PUSH1 0x60 DUP4 ADD MLOAD DUP5 DUP3 SUB PUSH1 0x60 DUP7 ADD MSTORE PUSH2 0xCF0 DUP3 DUP3 PUSH2 0xC5A JUMP JUMPDEST SWAP2 POP POP DUP1 SWAP2 POP POP SWAP3 SWAP2 POP POP JUMP JUMPDEST PUSH1 0x0 PUSH1 0x60 DUP3 ADD SWAP1 POP DUP2 DUP2 SUB PUSH1 0x0 DUP4 ADD MSTORE PUSH2 0xD17 DUP2 DUP7 PUSH2 0xC93 JUMP JUMPDEST SWAP1 POP DUP2 DUP2 SUB PUSH1 0x20 DUP4 ADD MSTORE PUSH2 0xD2B DUP2 DUP6 PUSH2 0xC93 JUMP JUMPDEST SWAP1 POP DUP2 DUP2 SUB PUSH1 0x40 DUP4 ADD MSTORE PUSH2 0xD3F DUP2 DUP5 PUSH2 0xC93 JUMP JUMPDEST SWAP1 POP SWAP5 SWAP4 POP POP POP POP JUMP JUMPDEST PUSH1 0x0 PUSH1 0x20 DUP3 DUP5 SUB SLT ISZERO PUSH2 0xD5F JUMPI PUSH2 0xD5E PUSH2 0xA10 JUMP JUMPDEST JUMPDEST PUSH1 0x0 PUSH2 0xD6D DUP5 DUP3 DUP6 ADD PUSH2 0xA3B JUMP JUMPDEST SWAP2 POP POP SWAP3 SWAP2 POP POP JUMP JUMPDEST PUSH1 0x0 DUP3 DUP3 MSTORE PUSH1 0x20 DUP3 ADD SWAP1 POP SWAP3 SWAP2 POP POP JUMP JUMPDEST PUSH1 0x0 PUSH2 0xD92 DUP3 PUSH2 0xC14 JUMP JUMPDEST PUSH2 0xD9C DUP2 DUP6 PUSH2 0xD76 JUMP JUMPDEST SWAP4 POP PUSH2 0xDAC DUP2 DUP6 PUSH1 0x20 DUP7 ADD PUSH2 0xC30 JUMP JUMPDEST PUSH2 0xDB5 DUP2 PUSH2 0xA5A JUMP JUMPDEST DUP5 ADD SWAP2 POP POP SWAP3 SWAP2 POP POP JUMP JUMPDEST PUSH1 0x0 PUSH1 0x20 DUP3 ADD SWAP1 POP DUP2 DUP2 SUB PUSH1 0x0 DUP4 ADD MSTORE PUSH2 0xDDA DUP2 DUP5 PUSH2 0xD87 JUMP JUMPDEST SWAP1 POP SWAP3 SWAP2 POP POP JUMP JUMPDEST PUSH1 0x0 DUP2 MLOAD SWAP1 POP SWAP2 SWAP1 POP JUMP JUMPDEST PUSH1 0x0 DUP3 DUP3 MSTORE PUSH1 0x20 DUP3 ADD SWAP1 POP SWAP3 SWAP2 POP POP JUMP JUMPDEST PUSH1 0x0 DUP2 SWAP1 POP PUSH1 0x20 DUP3 ADD SWAP1 POP SWAP2 SWAP1 POP JUMP JUMPDEST PUSH1 0x0 PUSH1 0x80 DUP4 ADD PUSH1 0x0 DUP4 ADD MLOAD PUSH2 0xE26 PUSH1 0x0 DUP7 ADD DUP3 PUSH2 0xC05 JUMP JUMPDEST POP PUSH1 0x20 DUP4 ADD MLOAD DUP5 DUP3 SUB PUSH1 0x20 DUP7 ADD MSTORE PUSH2 0xE3E DUP3 DUP3 PUSH2 0xC5A JUMP JUMPDEST SWAP2 POP POP PUSH1 0x40 DUP4 ADD MLOAD PUSH2 0xE53 PUSH1 0x40 DUP7 ADD DUP3 PUSH2 0xC05 JUMP JUMPDEST POP PUSH1 0x60 DUP4 ADD MLOAD DUP5 DUP3 SUB PUSH1 0x60 DUP7 ADD MSTORE PUSH2 0xE6B DUP3 DUP3 PUSH2 0xC5A JUMP JUMPDEST SWAP2 POP POP DUP1 SWAP2 POP POP SWAP3 SWAP2 POP POP JUMP JUMPDEST PUSH1 0x0 PUSH2 0xE84 DUP4 DUP4 PUSH2 0xE0E JUMP JUMPDEST SWAP1 POP SWAP3 SWAP2 POP POP JUMP JUMPDEST PUSH1 0x0 PUSH1 0x20 DUP3 ADD SWAP1 POP SWAP2 SWAP1 POP JUMP JUMPDEST PUSH1 0x0 PUSH2 0xEA4 DUP3 PUSH2 0xDE2 JUMP JUMPDEST PUSH2 0xEAE DUP2 DUP6 PUSH2 0xDED JUMP JUMPDEST SWAP4 POP DUP4 PUSH1 0x20 DUP3 MUL DUP6 ADD PUSH2 0xEC0 DUP6 PUSH2 0xDFE JUMP JUMPDEST DUP1 PUSH1 0x0 JUMPDEST DUP6 DUP2 LT ISZERO PUSH2 0xEFC JUMPI DUP5 DUP5 SUB DUP10 MSTORE DUP2 MLOAD PUSH2 0xEDD DUP6 DUP3 PUSH2 0xE78 JUMP JUMPDEST SWAP5 POP PUSH2 0xEE8 DUP4 PUSH2 0xE8C JUMP JUMPDEST SWAP3 POP PUSH1 0x20 DUP11 ADD SWAP10 POP POP PUSH1 0x1 DUP2 ADD SWAP1 POP PUSH2 0xEC4 JUMP JUMPDEST POP DUP3 SWAP8 POP DUP8 SWAP6 POP POP POP POP POP POP SWAP3 SWAP2 POP POP JUMP JUMPDEST PUSH1 0x0 PUSH1 0x20 DUP3 ADD SWAP1 POP DUP2 DUP2 SUB PUSH1 0x0 DUP4 ADD MSTORE PUSH2 0xF28 DUP2 DUP5 PUSH2 0xE99 JUMP JUMPDEST SWAP1 POP SWAP3 SWAP2 POP POP JUMP JUMPDEST PUSH32 0x4E487B7100000000000000000000000000000000000000000000000000000000 PUSH1 0x0 MSTORE PUSH1 0x22 PUSH1 0x4 MSTORE PUSH1 0x24 PUSH1 0x0 REVERT JUMPDEST PUSH1 0x0 PUSH1 0x2 DUP3 DIV SWAP1 POP PUSH1 0x1 DUP3 AND DUP1 PUSH2 0xF77 JUMPI PUSH1 0x7F DUP3 AND SWAP2 POP JUMPDEST PUSH1 0x20 DUP3 LT DUP2 SUB PUSH2 0xF8A JUMPI PUSH2 0xF89 PUSH2 0xF30 JUMP JUMPDEST JUMPDEST POP SWAP2 SWAP1 POP JUMP JUMPDEST PUSH1 0x0 DUP2 SWAP1 POP DUP2 PUSH1 0x0 MSTORE PUSH1 0x20 PUSH1 0x0 KECCAK256 SWAP1 POP SWAP2 SWAP1 POP JUMP JUMPDEST PUSH1 0x0 PUSH1 0x20 PUSH1 0x1F DUP4 ADD DIV SWAP1 POP SWAP2 SWAP1 POP JUMP JUMPDEST PUSH1 0x0 DUP3 DUP3 SHL SWAP1 POP SWAP3 SWAP2 POP POP JUMP JUMPDEST PUSH1 0x0 PUSH1 0x8 DUP4 MUL PUSH2 0xFF2 PUSH32 0xFFFFFFFFFFFFFFFFFFFFFFFFFFFFFFFFFFFFFFFFFFFFFFFFFFFFFFFFFFFFFFFF DUP3 PUSH2 0xFB5 JUMP JUMPDEST PUSH2 0xFFC DUP7 DUP4 PUSH2 0xFB5 JUMP JUMPDEST SWAP6 POP DUP1 NOT DUP5 AND SWAP4 POP DUP1 DUP7 AND DUP5 OR SWAP3 POP POP POP SWAP4 SWAP3 POP POP POP JUMP JUMPDEST PUSH1 0x0 DUP2 SWAP1 POP SWAP2 SWAP1 POP JUMP JUMPDEST PUSH1 0x0 PUSH2 0x1039 PUSH2 0x1034 PUSH2 0x102F DUP5 PUSH2 0xA1A JUMP JUMPDEST PUSH2 0x1014 JUMP JUMPDEST PUSH2 0xA1A JUMP JUMPDEST SWAP1 POP SWAP2 SWAP1 POP JUMP JUMPDEST PUSH1 0x0 DUP2 SWAP1 POP SWAP2 SWAP1 POP JUMP JUMPDEST PUSH2 0x1053 DUP4 PUSH2 0x101E JUMP JUMPDEST PUSH2 0x1067 PUSH2 0x105F DUP3 PUSH2 0x1040 JUMP JUMPDEST DUP5 DUP5 SLOAD PUSH2 0xFC2 JUMP JUMPDEST DUP3 SSTORE POP POP POP POP JUMP JUMPDEST PUSH1 0x0 SWAP1 JUMP JUMPDEST PUSH2 0x107C PUSH2 0x106F JUMP JUMPDEST PUSH2 0x1087 DUP2 DUP5 DUP5 PUSH2 0x104A JUMP JUMPDEST POP POP POP JUMP JUMPDEST JUMPDEST DUP2 DUP2 LT ISZERO PUSH2 0x10AB JUMPI PUSH2 0x10A0 PUSH1 0x0 DUP3 PUSH2 0x1074 JUMP JUMPDEST PUSH1 0x1 DUP2 ADD SWAP1 POP PUSH2 0x108D JUMP JUMPDEST POP POP JUMP JUMPDEST PUSH1 0x1F DUP3 GT ISZERO PUSH2 0x10F0 JUMPI PUSH2 0x10C1 DUP2 PUSH2 0xF90 JUMP JUMPDEST PUSH2 0x10CA DUP5 PUSH2 0xFA5 JUMP JUMPDEST DUP2 ADD PUSH1 0x20 DUP6 LT ISZERO PUSH2 0x10D9 JUMPI DUP2 SWAP1 POP JUMPDEST PUSH2 0x10ED PUSH2 0x10E5 DUP6 PUSH2 0xFA5 JUMP JUMPDEST DUP4 ADD DUP3 PUSH2 0x108C JUMP JUMPDEST POP POP JUMPDEST POP POP POP JUMP JUMPDEST PUSH1 0x0 DUP3 DUP3 SHR SWAP1 POP SWAP3 SWAP2 POP POP JUMP JUMPDEST PUSH1 0x0 PUSH2 0x1113 PUSH1 0x0 NOT DUP5 PUSH1 0x8 MUL PUSH2 0x10F5 JUMP JUMPDEST NOT DUP1 DUP4 AND SWAP2 POP POP SWAP3 SWAP2 POP POP JUMP JUMPDEST PUSH1 0x0 PUSH2 0x112C DUP4 DUP4 PUSH2 0x1102 JUMP JUMPDEST SWAP2 POP DUP3 PUSH1 0x2 MUL DUP3 OR SWAP1 POP SWAP3 SWAP2 POP POP JUMP JUMPDEST PUSH2 0x1145 DUP3 PUSH2 0xC14 JUMP JUMPDEST PUSH8 0xFFFFFFFFFFFFFFFF DUP2 GT ISZERO PUSH2 0x115E JUMPI PUSH2 0x115D PUSH2 0xA6B JUMP JUMPDEST JUMPDEST PUSH2 0x1168 DUP3 SLOAD PUSH2 0xF5F JUMP JUMPDEST PUSH2 0x1173 DUP3 DUP3 DUP6 PUSH2 0x10AF JUMP JUMPDEST PUSH1 0x0 PUSH1 0x20 SWAP1 POP PUSH1 0x1F DUP4 GT PUSH1 0x1 DUP2 EQ PUSH2 0x11A6 JUMPI PUSH1 0x0 DUP5 ISZERO PUSH2 0x1194 JUMPI DUP3 DUP8 ADD MLOAD SWAP1 POP JUMPDEST PUSH2 0x119E DUP6 DUP3 PUSH2 0x1120 JUMP JUMPDEST DUP7 SSTORE POP PUSH2 0x1206 JUMP JUMPDEST PUSH1 0x1F NOT DUP5 AND PUSH2 0x11B4 DUP7 PUSH2 0xF90 JUMP JUMPDEST PUSH1 0x0 JUMPDEST DUP3 DUP2 LT ISZERO PUSH2 0x11DC JUMPI DUP5 DUP10 ADD MLOAD DUP3 SSTORE PUSH1 0x1 DUP3 ADD SWAP2 POP PUSH1 0x20 DUP6 ADD SWAP5 POP PUSH1 0x20 DUP2 ADD SWAP1 POP PUSH2 0x11B7 JUMP JUMPDEST DUP7 DUP4 LT ISZERO PUSH2 0x11F9 JUMPI DUP5 DUP10 ADD MLOAD PUSH2 0x11F5 PUSH1 0x1F DUP10 AND DUP3 PUSH2 0x1102 JUMP JUMPDEST DUP4 SSTORE POP JUMPDEST PUSH1 0x1 PUSH1 0x2 DUP9 MUL ADD DUP9 SSTORE POP POP POP JUMPDEST POP POP POP POP POP POP JUMP INVALID LOG2 PUSH5 0x6970667358 0x22 SLT KECCAK256 JUMP EXP PREVRANDAO 0xA8 CALLER 0xCF PUSH29 0xCA925049CEF32B09BCB5F33648EFE44A3DA6FD22744B188B3D64736F6C PUSH4 0x43000812 STOP CALLER "
				},
				"gasEstimates": {
					"creation": {
						"codeDepositCost": "935200",
						"executionCost": "975",
						"totalCost": "936175"
					},
					"external": {
						"getStudents()": "infinite",
						"getStudentsABC()": "infinite",
						"pushStudent(uint256,string,uint256)": "infinite",
						"pushStudent2(uint256,string,uint256)": "infinite",
						"setGrade(uint256)": "infinite"
					}
				},
				"methodIdentifiers": {
					"getStudents()": "f1d064b3",
					"getStudentsABC()": "448e1bed",
					"pushStudent(uint256,string,uint256)": "3b4598b1",
					"pushStudent2(uint256,string,uint256)": "c731f947",
					"setGrade(uint256)": "674271cd"
				}
			},
			"storageLayout": {
				"storage": [
					{
						"astId": 349,
						"contract": "contracts-lecture/230510-2.sol:IF2",
						"label": "a",
						"offset": 0,
						"slot": "0",
						"type": "t_struct(student)346_storage"
					},
					{
						"astId": 352,
						"contract": "contracts-lecture/230510-2.sol:IF2",
						"label": "b",
						"offset": 0,
						"slot": "4",
						"type": "t_struct(student)346_storage"
					},
					{
						"astId": 355,
						"contract": "contracts-lecture/230510-2.sol:IF2",
						"label": "c",
						"offset": 0,
						"slot": "8",
						"type": "t_struct(student)346_storage"
					},
					{
						"astId": 359,
						"contract": "contracts-lecture/230510-2.sol:IF2",
						"label": "Students",
						"offset": 0,
						"slot": "12",
						"type": "t_array(t_struct(student)346_storage)dyn_storage"
					}
				],
				"types": {
					"t_array(t_struct(student)346_storage)dyn_storage": {
						"base": "t_struct(student)346_storage",
						"encoding": "dynamic_array",
						"label": "struct IF2.student[]",
						"numberOfBytes": "32"
					},
					"t_string_storage": {
						"encoding": "bytes",
						"label": "string",
						"numberOfBytes": "32"
					},
					"t_struct(student)346_storage": {
						"encoding": "inplace",
						"label": "struct IF2.student",
						"members": [
							{
								"astId": 339,
								"contract": "contracts-lecture/230510-2.sol:IF2",
								"label": "number",
								"offset": 0,
								"slot": "0",
								"type": "t_uint256"
							},
							{
								"astId": 341,
								"contract": "contracts-lecture/230510-2.sol:IF2",
								"label": "name",
								"offset": 0,
								"slot": "1",
								"type": "t_string_storage"
							},
							{
								"astId": 343,
								"contract": "contracts-lecture/230510-2.sol:IF2",
								"label": "score",
								"offset": 0,
								"slot": "2",
								"type": "t_uint256"
							},
							{
								"astId": 345,
								"contract": "contracts-lecture/230510-2.sol:IF2",
								"label": "credit",
								"offset": 0,
								"slot": "3",
								"type": "t_string_storage"
							}
						],
						"numberOfBytes": "128"
					},
					"t_uint256": {
						"encoding": "inplace",
						"label": "uint256",
						"numberOfBytes": "32"
					}
				}
			},
			"userdoc": {
				"kind": "user",
				"methods": {},
				"version": 1
			}
		}
	}
}