{
	"contracts-lecture/230510-2.sol": {
		"IF": {
			"abi": [
				{
					"inputs": [
						{
							"internalType": "uint256",
							"name": "_n",
							"type": "uint256"
						}
					],
					"name": "evenOrOdd",
					"outputs": [],
					"stateMutability": "nonpayable",
					"type": "function"
				},
				{
					"inputs": [],
					"name": "getEvenAndOdd",
					"outputs": [
						{
							"internalType": "uint256[]",
							"name": "",
							"type": "uint256[]"
						},
						{
							"internalType": "uint256[]",
							"name": "",
							"type": "uint256[]"
						}
					],
					"stateMutability": "view",
					"type": "function"
				},
				{
					"inputs": [],
					"name": "getStudents",
					"outputs": [
						{
							"components": [
								{
									"internalType": "uint256",
									"name": "number",
									"type": "uint256"
								},
								{
									"internalType": "string",
									"name": "name",
									"type": "string"
								},
								{
									"internalType": "uint256",
									"name": "score",
									"type": "uint256"
								},
								{
									"internalType": "string",
									"name": "credit",
									"type": "string"
								}
							],
							"internalType": "struct IF.student",
							"name": "",
							"type": "tuple"
						},
						{
							"components": [
								{
									"internalType": "uint256",
									"name": "number",
									"type": "uint256"
								},
								{
									"internalType": "string",
									"name": "name",
									"type": "string"
								},
								{
									"internalType": "uint256",
									"name": "score",
									"type": "uint256"
								},
								{
									"internalType": "string",
									"name": "credit",
									"type": "string"
								}
							],
							"internalType": "struct IF.student",
							"name": "",
							"type": "tuple"
						},
						{
							"components": [
								{
									"internalType": "uint256",
									"name": "number",
									"type": "uint256"
								},
								{
									"internalType": "string",
									"name": "name",
									"type": "string"
								},
								{
									"internalType": "uint256",
									"name": "score",
									"type": "uint256"
								},
								{
									"internalType": "string",
									"name": "credit",
									"type": "string"
								}
							],
							"internalType": "struct IF.student",
							"name": "",
							"type": "tuple"
						}
					],
					"stateMutability": "view",
					"type": "function"
				},
				{
					"inputs": [
						{
							"internalType": "uint256",
							"name": "_number",
							"type": "uint256"
						},
						{
							"internalType": "string",
							"name": "_name",
							"type": "string"
						},
						{
							"internalType": "uint256",
							"name": "_score",
							"type": "uint256"
						}
					],
					"name": "setAlice",
					"outputs": [],
					"stateMutability": "nonpayable",
					"type": "function"
				},
				{
					"inputs": [
						{
							"internalType": "uint256",
							"name": "_number",
							"type": "uint256"
						},
						{
							"internalType": "string",
							"name": "_name",
							"type": "string"
						},
						{
							"internalType": "uint256",
							"name": "_score",
							"type": "uint256"
						}
					],
					"name": "setBob",
					"outputs": [],
					"stateMutability": "nonpayable",
					"type": "function"
				},
				{
					"inputs": [
						{
							"internalType": "uint256",
							"name": "_number",
							"type": "uint256"
						},
						{
							"internalType": "string",
							"name": "_name",
							"type": "string"
						},
						{
							"internalType": "uint256",
							"name": "_score",
							"type": "uint256"
						}
					],
					"name": "setCharlie",
					"outputs": [],
					"stateMutability": "nonpayable",
					"type": "function"
				},
				{
					"inputs": [
						{
							"internalType": "uint256",
							"name": "_score",
							"type": "uint256"
						}
					],
					"name": "setGrade",
					"outputs": [
						{
							"internalType": "string",
							"name": "",
							"type": "string"
						}
					],
					"stateMutability": "pure",
					"type": "function"
				},
				{
					"inputs": [
						{
							"internalType": "uint256",
							"name": "_score",
							"type": "uint256"
						}
					],
					"name": "setGrade2",
					"outputs": [
						{
							"internalType": "string",
							"name": "",
							"type": "string"
						}
					],
					"stateMutability": "pure",
					"type": "function"
				},
				{
					"inputs": [
						{
							"internalType": "uint256",
							"name": "_n",
							"type": "uint256"
						}
					],
					"name": "ternary",
					"outputs": [],
					"stateMutability": "nonpayable",
					"type": "function"
				}
			],
			"devdoc": {
				"kind": "dev",
				"methods": {},
				"version": 1
			},
			"evm": {
				"assembly": "    /* \"contracts-lecture/230510-2.sol\":63:3005  contract IF {... */\n  mstore(0x40, 0x80)\n  callvalue\n  dup1\n  iszero\n  tag_1\n  jumpi\n  0x00\n  dup1\n  revert\ntag_1:\n  pop\n  dataSize(sub_0)\n  dup1\n  dataOffset(sub_0)\n  0x00\n  codecopy\n  0x00\n  return\nstop\n\nsub_0: assembly {\n        /* \"contracts-lecture/230510-2.sol\":63:3005  contract IF {... */\n      mstore(0x40, 0x80)\n      callvalue\n      dup1\n      iszero\n      tag_1\n      jumpi\n      0x00\n      dup1\n      revert\n    tag_1:\n      pop\n      jumpi(tag_2, lt(calldatasize, 0x04))\n      shr(0xe0, calldataload(0x00))\n      dup1\n      0x9c95ff40\n      gt\n      tag_12\n      jumpi\n      dup1\n      0x9c95ff40\n      eq\n      tag_7\n      jumpi\n      dup1\n      0x9db1e7da\n      eq\n      tag_8\n      jumpi\n      dup1\n      0x9fec8626\n      eq\n      tag_9\n      jumpi\n      dup1\n      0xad8364a4\n      eq\n      tag_10\n      jumpi\n      dup1\n      0xf1d064b3\n      eq\n      tag_11\n      jumpi\n      jump(tag_2)\n    tag_12:\n      dup1\n      0x55278c5b\n      eq\n      tag_3\n      jumpi\n      dup1\n      0x5e0d84a8\n      eq\n      tag_4\n      jumpi\n      dup1\n      0x674271cd\n      eq\n      tag_5\n      jumpi\n      dup1\n      0x82ee7780\n      eq\n      tag_6\n      jumpi\n    tag_2:\n      0x00\n      dup1\n      revert\n        /* \"contracts-lecture/230510-2.sol\":1121:1293  function ternary(uint _n) public {... */\n    tag_3:\n      tag_13\n      0x04\n      dup1\n      calldatasize\n      sub\n      dup2\n      add\n      swap1\n      tag_14\n      swap2\n      swap1\n      tag_15\n      jump\t// in\n    tag_14:\n      tag_16\n      jump\t// in\n    tag_13:\n      stop\n        /* \"contracts-lecture/230510-2.sol\":438:652  function setGrade2(uint _score) public pure returns(string memory) {... */\n    tag_4:\n      tag_17\n      0x04\n      dup1\n      calldatasize\n      sub\n      dup2\n      add\n      swap1\n      tag_18\n      swap2\n      swap1\n      tag_15\n      jump\t// in\n    tag_18:\n      tag_19\n      jump\t// in\n    tag_17:\n      mload(0x40)\n      tag_20\n      swap2\n      swap1\n      tag_21\n      jump\t// in\n    tag_20:\n      mload(0x40)\n      dup1\n      swap2\n      sub\n      swap1\n      return\n        /* \"contracts-lecture/230510-2.sol\":129:359  function setGrade(uint _score) public pure returns(string memory) {... */\n    tag_5:\n      tag_22\n      0x04\n      dup1\n      calldatasize\n      sub\n      dup2\n      add\n      swap1\n      tag_23\n      swap2\n      swap1\n      tag_15\n      jump\t// in\n    tag_23:\n      tag_24\n      jump\t// in\n    tag_22:\n      mload(0x40)\n      tag_25\n      swap2\n      swap1\n      tag_21\n      jump\t// in\n    tag_25:\n      mload(0x40)\n      dup1\n      swap2\n      sub\n      swap1\n      return\n        /* \"contracts-lecture/230510-2.sol\":750:887  function evenOrOdd(uint _n) public {... */\n    tag_6:\n      tag_26\n      0x04\n      dup1\n      calldatasize\n      sub\n      dup2\n      add\n      swap1\n      tag_27\n      swap2\n      swap1\n      tag_15\n      jump\t// in\n    tag_27:\n      tag_28\n      jump\t// in\n    tag_26:\n      stop\n        /* \"contracts-lecture/230510-2.sol\":892:999  function getEvenAndOdd() public view returns(uint[] memory, uint[] memory) {... */\n    tag_7:\n      tag_29\n      tag_30\n      jump\t// in\n    tag_29:\n      mload(0x40)\n      tag_31\n      swap3\n      swap2\n      swap1\n      tag_32\n      jump\t// in\n    tag_31:\n      mload(0x40)\n      dup1\n      swap2\n      sub\n      swap1\n      return\n        /* \"contracts-lecture/230510-2.sol\":2122:2487  function setBob(uint _number, string memory _name, uint _score) public {... */\n    tag_8:\n      tag_33\n      0x04\n      dup1\n      calldatasize\n      sub\n      dup2\n      add\n      swap1\n      tag_34\n      swap2\n      swap1\n      tag_35\n      jump\t// in\n    tag_34:\n      tag_36\n      jump\t// in\n    tag_33:\n      stop\n        /* \"contracts-lecture/230510-2.sol\":1748:2117  function setAlice(uint _number, string memory _name, uint _score) public {... */\n    tag_9:\n      tag_37\n      0x04\n      dup1\n      calldatasize\n      sub\n      dup2\n      add\n      swap1\n      tag_38\n      swap2\n      swap1\n      tag_35\n      jump\t// in\n    tag_38:\n      tag_39\n      jump\t// in\n    tag_37:\n      stop\n        /* \"contracts-lecture/230510-2.sol\":2492:2865  function setCharlie(uint _number, string memory _name, uint _score) public {... */\n    tag_10:\n      tag_40\n      0x04\n      dup1\n      calldatasize\n      sub\n      dup2\n      add\n      swap1\n      tag_41\n      swap2\n      swap1\n      tag_35\n      jump\t// in\n    tag_41:\n      tag_42\n      jump\t// in\n    tag_40:\n      stop\n        /* \"contracts-lecture/230510-2.sol\":2870:3003  function getStudents() public view returns(student memory, student memory, student memory) {... */\n    tag_11:\n      tag_43\n      tag_44\n      jump\t// in\n    tag_43:\n      mload(0x40)\n      tag_45\n      swap4\n      swap3\n      swap2\n      swap1\n      tag_46\n      jump\t// in\n    tag_45:\n      mload(0x40)\n      dup1\n      swap2\n      sub\n      swap1\n      return\n        /* \"contracts-lecture/230510-2.sol\":1121:1293  function ternary(uint _n) public {... */\n    tag_16:\n        /* \"contracts-lecture/230510-2.sol\":1171:1172  1 */\n      0x01\n        /* \"contracts-lecture/230510-2.sol\":1168:1169  3 */\n      0x03\n        /* \"contracts-lecture/230510-2.sol\":1165:1167  _n */\n      dup3\n        /* \"contracts-lecture/230510-2.sol\":1165:1169  _n%3 */\n      tag_48\n      swap2\n      swap1\n      tag_49\n      jump\t// in\n    tag_48:\n        /* \"contracts-lecture/230510-2.sol\":1165:1172  _n%3==1 */\n      sub\n        /* \"contracts-lecture/230510-2.sol\":1162:1288  if(_n%3==1) {... */\n      tag_50\n      jumpi\n        /* \"contracts-lecture/230510-2.sol\":1185:1186  A */\n      0x02\n        /* \"contracts-lecture/230510-2.sol\":1192:1194  _n */\n      dup2\n        /* \"contracts-lecture/230510-2.sol\":1185:1195  A.push(_n) */\n      swap1\n      dup1\n      0x01\n      dup2\n      sload\n      add\n      dup1\n      dup3\n      sstore\n      dup1\n      swap2\n      pop\n      pop\n      0x01\n      swap1\n      sub\n      swap1\n      0x00\n      mstore\n      keccak256(0x00, 0x20)\n      add\n      0x00\n      swap1\n      swap2\n      swap1\n      swap2\n      swap1\n      swap2\n      pop\n      sstore\n        /* \"contracts-lecture/230510-2.sol\":1162:1288  if(_n%3==1) {... */\n      jump(tag_52)\n    tag_50:\n        /* \"contracts-lecture/230510-2.sol\":1219:1220  2 */\n      0x02\n        /* \"contracts-lecture/230510-2.sol\":1216:1217  3 */\n      0x03\n        /* \"contracts-lecture/230510-2.sol\":1213:1215  _n */\n      dup3\n        /* \"contracts-lecture/230510-2.sol\":1213:1217  _n%3 */\n      tag_53\n      swap2\n      swap1\n      tag_49\n      jump\t// in\n    tag_53:\n        /* \"contracts-lecture/230510-2.sol\":1213:1220  _n%3==2 */\n      sub\n        /* \"contracts-lecture/230510-2.sol\":1210:1288  if(_n%3==2) {... */\n      tag_54\n      jumpi\n        /* \"contracts-lecture/230510-2.sol\":1233:1234  B */\n      0x03\n        /* \"contracts-lecture/230510-2.sol\":1240:1242  _n */\n      dup2\n        /* \"contracts-lecture/230510-2.sol\":1233:1243  B.push(_n) */\n      swap1\n      dup1\n      0x01\n      dup2\n      sload\n      add\n      dup1\n      dup3\n      sstore\n      dup1\n      swap2\n      pop\n      pop\n      0x01\n      swap1\n      sub\n      swap1\n      0x00\n      mstore\n      keccak256(0x00, 0x20)\n      add\n      0x00\n      swap1\n      swap2\n      swap1\n      swap2\n      swap1\n      swap2\n      pop\n      sstore\n        /* \"contracts-lecture/230510-2.sol\":1210:1288  if(_n%3==2) {... */\n      jump(tag_56)\n    tag_54:\n        /* \"contracts-lecture/230510-2.sol\":1269:1270  C */\n      0x04\n        /* \"contracts-lecture/230510-2.sol\":1276:1278  _n */\n      dup2\n        /* \"contracts-lecture/230510-2.sol\":1269:1279  C.push(_n) */\n      swap1\n      dup1\n      0x01\n      dup2\n      sload\n      add\n      dup1\n      dup3\n      sstore\n      dup1\n      swap2\n      pop\n      pop\n      0x01\n      swap1\n      sub\n      swap1\n      0x00\n      mstore\n      keccak256(0x00, 0x20)\n      add\n      0x00\n      swap1\n      swap2\n      swap1\n      swap2\n      swap1\n      swap2\n      pop\n      sstore\n        /* \"contracts-lecture/230510-2.sol\":1210:1288  if(_n%3==2) {... */\n    tag_56:\n        /* \"contracts-lecture/230510-2.sol\":1162:1288  if(_n%3==1) {... */\n    tag_52:\n        /* \"contracts-lecture/230510-2.sol\":1121:1293  function ternary(uint _n) public {... */\n      pop\n      jump\t// out\n        /* \"contracts-lecture/230510-2.sol\":438:652  function setGrade2(uint _score) public pure returns(string memory) {... */\n    tag_19:\n        /* \"contracts-lecture/230510-2.sol\":490:503  string memory */\n      0x60\n        /* \"contracts-lecture/230510-2.sol\":525:527  70 */\n      0x46\n        /* \"contracts-lecture/230510-2.sol\":516:522  _score */\n      dup3\n        /* \"contracts-lecture/230510-2.sol\":516:527  _score >=70 */\n      lt\n        /* \"contracts-lecture/230510-2.sol\":513:647  if(_score >=70) {... */\n      tag_59\n      jumpi\n        /* \"contracts-lecture/230510-2.sol\":540:550  return \"A\" */\n      mload(0x40)\n      dup1\n      0x40\n      add\n      0x40\n      mstore\n      dup1\n      0x01\n      dup2\n      mstore\n      0x20\n      add\n      0x4100000000000000000000000000000000000000000000000000000000000000\n      dup2\n      mstore\n      pop\n      swap1\n      pop\n      jump(tag_58)\n        /* \"contracts-lecture/230510-2.sol\":513:647  if(_score >=70) {... */\n    tag_59:\n        /* \"contracts-lecture/230510-2.sol\":577:579  50 */\n      0x32\n        /* \"contracts-lecture/230510-2.sol\":568:574  _score */\n      dup3\n        /* \"contracts-lecture/230510-2.sol\":568:579  _score >=50 */\n      lt\n        /* \"contracts-lecture/230510-2.sol\":565:647  if(_score >=50) {... */\n      tag_61\n      jumpi\n        /* \"contracts-lecture/230510-2.sol\":592:602  return \"B\" */\n      mload(0x40)\n      dup1\n      0x40\n      add\n      0x40\n      mstore\n      dup1\n      0x01\n      dup2\n      mstore\n      0x20\n      add\n      0x4200000000000000000000000000000000000000000000000000000000000000\n      dup2\n      mstore\n      pop\n      swap1\n      pop\n      jump(tag_58)\n        /* \"contracts-lecture/230510-2.sol\":565:647  if(_score >=50) {... */\n    tag_61:\n        /* \"contracts-lecture/230510-2.sol\":628:638  return \"C\" */\n      mload(0x40)\n      dup1\n      0x40\n      add\n      0x40\n      mstore\n      dup1\n      0x01\n      dup2\n      mstore\n      0x20\n      add\n      0x4300000000000000000000000000000000000000000000000000000000000000\n      dup2\n      mstore\n      pop\n      swap1\n      pop\n        /* \"contracts-lecture/230510-2.sol\":438:652  function setGrade2(uint _score) public pure returns(string memory) {... */\n    tag_58:\n      swap2\n      swap1\n      pop\n      jump\t// out\n        /* \"contracts-lecture/230510-2.sol\":129:359  function setGrade(uint _score) public pure returns(string memory) {... */\n    tag_24:\n        /* \"contracts-lecture/230510-2.sol\":180:193  string memory */\n      0x60\n        /* \"contracts-lecture/230510-2.sol\":215:217  50 */\n      0x32\n        /* \"contracts-lecture/230510-2.sol\":206:212  _score */\n      dup3\n        /* \"contracts-lecture/230510-2.sol\":206:217  _score >=50 */\n      lt\n        /* \"contracts-lecture/230510-2.sol\":203:354  if(_score >=50) { /*if(조건문), <- 이번 경우는 _score가 50보다 높을 때*/... */\n      tag_64\n      jumpi\n        /* \"contracts-lecture/230510-2.sol\":299:309  return \"P\" */\n      mload(0x40)\n      dup1\n      0x40\n      add\n      0x40\n      mstore\n      dup1\n      0x01\n      dup2\n      mstore\n      0x20\n      add\n      0x5000000000000000000000000000000000000000000000000000000000000000\n      dup2\n      mstore\n      pop\n      swap1\n      pop\n      jump(tag_63)\n        /* \"contracts-lecture/230510-2.sol\":203:354  if(_score >=50) { /*if(조건문), <- 이번 경우는 _score가 50보다 높을 때*/... */\n    tag_64:\n        /* \"contracts-lecture/230510-2.sol\":335:345  return \"F\" */\n      mload(0x40)\n      dup1\n      0x40\n      add\n      0x40\n      mstore\n      dup1\n      0x01\n      dup2\n      mstore\n      0x20\n      add\n      0x4600000000000000000000000000000000000000000000000000000000000000\n      dup2\n      mstore\n      pop\n      swap1\n      pop\n        /* \"contracts-lecture/230510-2.sol\":129:359  function setGrade(uint _score) public pure returns(string memory) {... */\n    tag_63:\n      swap2\n      swap1\n      pop\n      jump\t// out\n        /* \"contracts-lecture/230510-2.sol\":750:887  function evenOrOdd(uint _n) public {... */\n    tag_28:\n        /* \"contracts-lecture/230510-2.sol\":802:803  0 */\n      0x00\n        /* \"contracts-lecture/230510-2.sol\":799:800  2 */\n      0x02\n        /* \"contracts-lecture/230510-2.sol\":796:798  _n */\n      dup3\n        /* \"contracts-lecture/230510-2.sol\":796:800  _n%2 */\n      tag_67\n      swap2\n      swap1\n      tag_49\n      jump\t// in\n    tag_67:\n        /* \"contracts-lecture/230510-2.sol\":796:803  _n%2==0 */\n      sub\n        /* \"contracts-lecture/230510-2.sol\":793:882  if(_n%2==0) {... */\n      tag_68\n      jumpi\n        /* \"contracts-lecture/230510-2.sol\":816:820  even */\n      0x00\n        /* \"contracts-lecture/230510-2.sol\":826:828  _n */\n      dup2\n        /* \"contracts-lecture/230510-2.sol\":816:829  even.push(_n) */\n      swap1\n      dup1\n      0x01\n      dup2\n      sload\n      add\n      dup1\n      dup3\n      sstore\n      dup1\n      swap2\n      pop\n      pop\n      0x01\n      swap1\n      sub\n      swap1\n      0x00\n      mstore\n      keccak256(0x00, 0x20)\n      add\n      0x00\n      swap1\n      swap2\n      swap1\n      swap2\n      swap1\n      swap2\n      pop\n      sstore\n        /* \"contracts-lecture/230510-2.sol\":793:882  if(_n%2==0) {... */\n      jump(tag_70)\n    tag_68:\n        /* \"contracts-lecture/230510-2.sol\":861:864  odd */\n      0x01\n        /* \"contracts-lecture/230510-2.sol\":870:872  _n */\n      dup2\n        /* \"contracts-lecture/230510-2.sol\":861:873  odd.push(_n) */\n      swap1\n      dup1\n      0x01\n      dup2\n      sload\n      add\n      dup1\n      dup3\n      sstore\n      dup1\n      swap2\n      pop\n      pop\n      0x01\n      swap1\n      sub\n      swap1\n      0x00\n      mstore\n      keccak256(0x00, 0x20)\n      add\n      0x00\n      swap1\n      swap2\n      swap1\n      swap2\n      swap1\n      swap2\n      pop\n      sstore\n        /* \"contracts-lecture/230510-2.sol\":793:882  if(_n%2==0) {... */\n    tag_70:\n        /* \"contracts-lecture/230510-2.sol\":750:887  function evenOrOdd(uint _n) public {... */\n      pop\n      jump\t// out\n        /* \"contracts-lecture/230510-2.sol\":892:999  function getEvenAndOdd() public view returns(uint[] memory, uint[] memory) {... */\n    tag_30:\n        /* \"contracts-lecture/230510-2.sol\":937:950  uint[] memory */\n      0x60\n        /* \"contracts-lecture/230510-2.sol\":952:965  uint[] memory */\n      dup1\n        /* \"contracts-lecture/230510-2.sol\":983:986  odd */\n      0x01\n        /* \"contracts-lecture/230510-2.sol\":988:992  even */\n      0x00\n        /* \"contracts-lecture/230510-2.sol\":975:993  return (odd, even) */\n      dup2\n      dup1\n      sload\n      dup1\n      0x20\n      mul\n      0x20\n      add\n      mload(0x40)\n      swap1\n      dup2\n      add\n      0x40\n      mstore\n      dup1\n      swap3\n      swap2\n      swap1\n      dup2\n      dup2\n      mstore\n      0x20\n      add\n      dup3\n      dup1\n      sload\n      dup1\n      iszero\n      tag_73\n      jumpi\n      0x20\n      mul\n      dup3\n      add\n      swap2\n      swap1\n      0x00\n      mstore\n      keccak256(0x00, 0x20)\n      swap1\n    tag_74:\n      dup2\n      sload\n      dup2\n      mstore\n      0x20\n      add\n      swap1\n      0x01\n      add\n      swap1\n      dup1\n      dup4\n      gt\n      tag_74\n      jumpi\n    tag_73:\n      pop\n      pop\n      pop\n      pop\n      pop\n      swap2\n      pop\n      dup1\n      dup1\n      sload\n      dup1\n      0x20\n      mul\n      0x20\n      add\n      mload(0x40)\n      swap1\n      dup2\n      add\n      0x40\n      mstore\n      dup1\n      swap3\n      swap2\n      swap1\n      dup2\n      dup2\n      mstore\n      0x20\n      add\n      dup3\n      dup1\n      sload\n      dup1\n      iszero\n      tag_75\n      jumpi\n      0x20\n      mul\n      dup3\n      add\n      swap2\n      swap1\n      0x00\n      mstore\n      keccak256(0x00, 0x20)\n      swap1\n    tag_76:\n      dup2\n      sload\n      dup2\n      mstore\n      0x20\n      add\n      swap1\n      0x01\n      add\n      swap1\n      dup1\n      dup4\n      gt\n      tag_76\n      jumpi\n    tag_75:\n      pop\n      pop\n      pop\n      pop\n      pop\n      swap1\n      pop\n      swap2\n      pop\n      swap2\n      pop\n        /* \"contracts-lecture/230510-2.sol\":892:999  function getEvenAndOdd() public view returns(uint[] memory, uint[] memory) {... */\n      swap1\n      swap2\n      jump\t// out\n        /* \"contracts-lecture/230510-2.sol\":2122:2487  function setBob(uint _number, string memory _name, uint _score) public {... */\n    tag_36:\n        /* \"contracts-lecture/230510-2.sol\":2201:2222  string memory _credit */\n      0x60\n        /* \"contracts-lecture/230510-2.sol\":2241:2243  90 */\n      0x5a\n        /* \"contracts-lecture/230510-2.sol\":2233:2239  _score */\n      dup3\n        /* \"contracts-lecture/230510-2.sol\":2233:2243  _score>=90 */\n      lt\n        /* \"contracts-lecture/230510-2.sol\":2230:2427  if(_score>=90) {... */\n      tag_78\n      jumpi\n        /* \"contracts-lecture/230510-2.sol\":2256:2269  _credit = 'A' */\n      mload(0x40)\n      dup1\n      0x40\n      add\n      0x40\n      mstore\n      dup1\n      0x01\n      dup2\n      mstore\n      0x20\n      add\n      0x4100000000000000000000000000000000000000000000000000000000000000\n      dup2\n      mstore\n      pop\n      swap1\n      pop\n        /* \"contracts-lecture/230510-2.sol\":2230:2427  if(_score>=90) {... */\n      jump(tag_79)\n    tag_78:\n        /* \"contracts-lecture/230510-2.sol\":2296:2298  80 */\n      0x50\n        /* \"contracts-lecture/230510-2.sol\":2287:2293  _score */\n      dup3\n        /* \"contracts-lecture/230510-2.sol\":2287:2298  _score >=80 */\n      lt\n        /* \"contracts-lecture/230510-2.sol\":2284:2427  if(_score >=80) {... */\n      tag_80\n      jumpi\n        /* \"contracts-lecture/230510-2.sol\":2311:2324  _credit = 'B' */\n      mload(0x40)\n      dup1\n      0x40\n      add\n      0x40\n      mstore\n      dup1\n      0x01\n      dup2\n      mstore\n      0x20\n      add\n      0x4200000000000000000000000000000000000000000000000000000000000000\n      dup2\n      mstore\n      pop\n      swap1\n      pop\n        /* \"contracts-lecture/230510-2.sol\":2284:2427  if(_score >=80) {... */\n      jump(tag_81)\n    tag_80:\n        /* \"contracts-lecture/230510-2.sol\":2351:2353  70 */\n      0x46\n        /* \"contracts-lecture/230510-2.sol\":2342:2348  _score */\n      dup3\n        /* \"contracts-lecture/230510-2.sol\":2342:2353  _score >=70 */\n      lt\n        /* \"contracts-lecture/230510-2.sol\":2339:2427  if(_score >=70) {... */\n      tag_82\n      jumpi\n        /* \"contracts-lecture/230510-2.sol\":2366:2379  _credit = 'C' */\n      mload(0x40)\n      dup1\n      0x40\n      add\n      0x40\n      mstore\n      dup1\n      0x01\n      dup2\n      mstore\n      0x20\n      add\n      0x4300000000000000000000000000000000000000000000000000000000000000\n      dup2\n      mstore\n      pop\n      swap1\n      pop\n        /* \"contracts-lecture/230510-2.sol\":2339:2427  if(_score >=70) {... */\n      jump(tag_83)\n    tag_82:\n        /* \"contracts-lecture/230510-2.sol\":2405:2418  _credit = 'F' */\n      mload(0x40)\n      dup1\n      0x40\n      add\n      0x40\n      mstore\n      dup1\n      0x01\n      dup2\n      mstore\n      0x20\n      add\n      0x4600000000000000000000000000000000000000000000000000000000000000\n      dup2\n      mstore\n      pop\n      swap1\n      pop\n        /* \"contracts-lecture/230510-2.sol\":2339:2427  if(_score >=70) {... */\n    tag_83:\n        /* \"contracts-lecture/230510-2.sol\":2284:2427  if(_score >=80) {... */\n    tag_81:\n        /* \"contracts-lecture/230510-2.sol\":2230:2427  if(_score>=90) {... */\n    tag_79:\n        /* \"contracts-lecture/230510-2.sol\":2441:2481  student(_number, _name, _score, _credit) */\n      mload(0x40)\n      dup1\n      0x80\n      add\n      0x40\n      mstore\n      dup1\n        /* \"contracts-lecture/230510-2.sol\":2449:2456  _number */\n      dup6\n        /* \"contracts-lecture/230510-2.sol\":2441:2481  student(_number, _name, _score, _credit) */\n      dup2\n      mstore\n      0x20\n      add\n        /* \"contracts-lecture/230510-2.sol\":2458:2463  _name */\n      dup5\n        /* \"contracts-lecture/230510-2.sol\":2441:2481  student(_number, _name, _score, _credit) */\n      dup2\n      mstore\n      0x20\n      add\n        /* \"contracts-lecture/230510-2.sol\":2465:2471  _score */\n      dup4\n        /* \"contracts-lecture/230510-2.sol\":2441:2481  student(_number, _name, _score, _credit) */\n      dup2\n      mstore\n      0x20\n      add\n        /* \"contracts-lecture/230510-2.sol\":2473:2480  _credit */\n      dup3\n        /* \"contracts-lecture/230510-2.sol\":2441:2481  student(_number, _name, _score, _credit) */\n      dup2\n      mstore\n      pop\n        /* \"contracts-lecture/230510-2.sol\":2435:2438  Bob */\n      0x09\n        /* \"contracts-lecture/230510-2.sol\":2435:2481  Bob = student(_number, _name, _score, _credit) */\n      0x00\n      dup3\n      add\n      mload\n      dup2\n      0x00\n      add\n      sstore\n      0x20\n      dup3\n      add\n      mload\n      dup2\n      0x01\n      add\n      swap1\n      dup2\n      tag_84\n      swap2\n      swap1\n      tag_85\n      jump\t// in\n    tag_84:\n      pop\n      0x40\n      dup3\n      add\n      mload\n      dup2\n      0x02\n      add\n      sstore\n      0x60\n      dup3\n      add\n      mload\n      dup2\n      0x03\n      add\n      swap1\n      dup2\n      tag_86\n      swap2\n      swap1\n      tag_85\n      jump\t// in\n    tag_86:\n      pop\n      swap1\n      pop\n      pop\n        /* \"contracts-lecture/230510-2.sol\":2193:2487  {... */\n      pop\n        /* \"contracts-lecture/230510-2.sol\":2122:2487  function setBob(uint _number, string memory _name, uint _score) public {... */\n      pop\n      pop\n      pop\n      jump\t// out\n        /* \"contracts-lecture/230510-2.sol\":1748:2117  function setAlice(uint _number, string memory _name, uint _score) public {... */\n    tag_39:\n        /* \"contracts-lecture/230510-2.sol\":1829:1850  string memory _credit */\n      0x60\n        /* \"contracts-lecture/230510-2.sol\":1869:1871  90 */\n      0x5a\n        /* \"contracts-lecture/230510-2.sol\":1861:1867  _score */\n      dup3\n        /* \"contracts-lecture/230510-2.sol\":1861:1871  _score>=90 */\n      lt\n        /* \"contracts-lecture/230510-2.sol\":1858:2055  if(_score>=90) {... */\n      tag_88\n      jumpi\n        /* \"contracts-lecture/230510-2.sol\":1884:1897  _credit = 'A' */\n      mload(0x40)\n      dup1\n      0x40\n      add\n      0x40\n      mstore\n      dup1\n      0x01\n      dup2\n      mstore\n      0x20\n      add\n      0x4100000000000000000000000000000000000000000000000000000000000000\n      dup2\n      mstore\n      pop\n      swap1\n      pop\n        /* \"contracts-lecture/230510-2.sol\":1858:2055  if(_score>=90) {... */\n      jump(tag_89)\n    tag_88:\n        /* \"contracts-lecture/230510-2.sol\":1924:1926  80 */\n      0x50\n        /* \"contracts-lecture/230510-2.sol\":1915:1921  _score */\n      dup3\n        /* \"contracts-lecture/230510-2.sol\":1915:1926  _score >=80 */\n      lt\n        /* \"contracts-lecture/230510-2.sol\":1912:2055  if(_score >=80) {... */\n      tag_90\n      jumpi\n        /* \"contracts-lecture/230510-2.sol\":1939:1952  _credit = 'B' */\n      mload(0x40)\n      dup1\n      0x40\n      add\n      0x40\n      mstore\n      dup1\n      0x01\n      dup2\n      mstore\n      0x20\n      add\n      0x4200000000000000000000000000000000000000000000000000000000000000\n      dup2\n      mstore\n      pop\n      swap1\n      pop\n        /* \"contracts-lecture/230510-2.sol\":1912:2055  if(_score >=80) {... */\n      jump(tag_91)\n    tag_90:\n        /* \"contracts-lecture/230510-2.sol\":1979:1981  70 */\n      0x46\n        /* \"contracts-lecture/230510-2.sol\":1970:1976  _score */\n      dup3\n        /* \"contracts-lecture/230510-2.sol\":1970:1981  _score >=70 */\n      lt\n        /* \"contracts-lecture/230510-2.sol\":1967:2055  if(_score >=70) {... */\n      tag_92\n      jumpi\n        /* \"contracts-lecture/230510-2.sol\":1994:2007  _credit = 'C' */\n      mload(0x40)\n      dup1\n      0x40\n      add\n      0x40\n      mstore\n      dup1\n      0x01\n      dup2\n      mstore\n      0x20\n      add\n      0x4300000000000000000000000000000000000000000000000000000000000000\n      dup2\n      mstore\n      pop\n      swap1\n      pop\n        /* \"contracts-lecture/230510-2.sol\":1967:2055  if(_score >=70) {... */\n      jump(tag_93)\n    tag_92:\n        /* \"contracts-lecture/230510-2.sol\":2033:2046  _credit = 'F' */\n      mload(0x40)\n      dup1\n      0x40\n      add\n      0x40\n      mstore\n      dup1\n      0x01\n      dup2\n      mstore\n      0x20\n      add\n      0x4600000000000000000000000000000000000000000000000000000000000000\n      dup2\n      mstore\n      pop\n      swap1\n      pop\n        /* \"contracts-lecture/230510-2.sol\":1967:2055  if(_score >=70) {... */\n    tag_93:\n        /* \"contracts-lecture/230510-2.sol\":1912:2055  if(_score >=80) {... */\n    tag_91:\n        /* \"contracts-lecture/230510-2.sol\":1858:2055  if(_score>=90) {... */\n    tag_89:\n        /* \"contracts-lecture/230510-2.sol\":2071:2111  student(_number, _name, _score, _credit) */\n      mload(0x40)\n      dup1\n      0x80\n      add\n      0x40\n      mstore\n      dup1\n        /* \"contracts-lecture/230510-2.sol\":2079:2086  _number */\n      dup6\n        /* \"contracts-lecture/230510-2.sol\":2071:2111  student(_number, _name, _score, _credit) */\n      dup2\n      mstore\n      0x20\n      add\n        /* \"contracts-lecture/230510-2.sol\":2088:2093  _name */\n      dup5\n        /* \"contracts-lecture/230510-2.sol\":2071:2111  student(_number, _name, _score, _credit) */\n      dup2\n      mstore\n      0x20\n      add\n        /* \"contracts-lecture/230510-2.sol\":2095:2101  _score */\n      dup4\n        /* \"contracts-lecture/230510-2.sol\":2071:2111  student(_number, _name, _score, _credit) */\n      dup2\n      mstore\n      0x20\n      add\n        /* \"contracts-lecture/230510-2.sol\":2103:2110  _credit */\n      dup3\n        /* \"contracts-lecture/230510-2.sol\":2071:2111  student(_number, _name, _score, _credit) */\n      dup2\n      mstore\n      pop\n        /* \"contracts-lecture/230510-2.sol\":2063:2068  Alice */\n      0x05\n        /* \"contracts-lecture/230510-2.sol\":2063:2111  Alice = student(_number, _name, _score, _credit) */\n      0x00\n      dup3\n      add\n      mload\n      dup2\n      0x00\n      add\n      sstore\n      0x20\n      dup3\n      add\n      mload\n      dup2\n      0x01\n      add\n      swap1\n      dup2\n      tag_94\n      swap2\n      swap1\n      tag_85\n      jump\t// in\n    tag_94:\n      pop\n      0x40\n      dup3\n      add\n      mload\n      dup2\n      0x02\n      add\n      sstore\n      0x60\n      dup3\n      add\n      mload\n      dup2\n      0x03\n      add\n      swap1\n      dup2\n      tag_95\n      swap2\n      swap1\n      tag_85\n      jump\t// in\n    tag_95:\n      pop\n      swap1\n      pop\n      pop\n        /* \"contracts-lecture/230510-2.sol\":1821:2117  {... */\n      pop\n        /* \"contracts-lecture/230510-2.sol\":1748:2117  function setAlice(uint _number, string memory _name, uint _score) public {... */\n      pop\n      pop\n      pop\n      jump\t// out\n        /* \"contracts-lecture/230510-2.sol\":2492:2865  function setCharlie(uint _number, string memory _name, uint _score) public {... */\n    tag_42:\n        /* \"contracts-lecture/230510-2.sol\":2575:2596  string memory _credit */\n      0x60\n        /* \"contracts-lecture/230510-2.sol\":2615:2617  90 */\n      0x5a\n        /* \"contracts-lecture/230510-2.sol\":2607:2613  _score */\n      dup3\n        /* \"contracts-lecture/230510-2.sol\":2607:2617  _score>=90 */\n      lt\n        /* \"contracts-lecture/230510-2.sol\":2604:2801  if(_score>=90) {... */\n      tag_97\n      jumpi\n        /* \"contracts-lecture/230510-2.sol\":2630:2643  _credit = 'A' */\n      mload(0x40)\n      dup1\n      0x40\n      add\n      0x40\n      mstore\n      dup1\n      0x01\n      dup2\n      mstore\n      0x20\n      add\n      0x4100000000000000000000000000000000000000000000000000000000000000\n      dup2\n      mstore\n      pop\n      swap1\n      pop\n        /* \"contracts-lecture/230510-2.sol\":2604:2801  if(_score>=90) {... */\n      jump(tag_98)\n    tag_97:\n        /* \"contracts-lecture/230510-2.sol\":2670:2672  80 */\n      0x50\n        /* \"contracts-lecture/230510-2.sol\":2661:2667  _score */\n      dup3\n        /* \"contracts-lecture/230510-2.sol\":2661:2672  _score >=80 */\n      lt\n        /* \"contracts-lecture/230510-2.sol\":2658:2801  if(_score >=80) {... */\n      tag_99\n      jumpi\n        /* \"contracts-lecture/230510-2.sol\":2685:2698  _credit = 'B' */\n      mload(0x40)\n      dup1\n      0x40\n      add\n      0x40\n      mstore\n      dup1\n      0x01\n      dup2\n      mstore\n      0x20\n      add\n      0x4200000000000000000000000000000000000000000000000000000000000000\n      dup2\n      mstore\n      pop\n      swap1\n      pop\n        /* \"contracts-lecture/230510-2.sol\":2658:2801  if(_score >=80) {... */\n      jump(tag_100)\n    tag_99:\n        /* \"contracts-lecture/230510-2.sol\":2725:2727  70 */\n      0x46\n        /* \"contracts-lecture/230510-2.sol\":2716:2722  _score */\n      dup3\n        /* \"contracts-lecture/230510-2.sol\":2716:2727  _score >=70 */\n      lt\n        /* \"contracts-lecture/230510-2.sol\":2713:2801  if(_score >=70) {... */\n      tag_101\n      jumpi\n        /* \"contracts-lecture/230510-2.sol\":2740:2753  _credit = 'C' */\n      mload(0x40)\n      dup1\n      0x40\n      add\n      0x40\n      mstore\n      dup1\n      0x01\n      dup2\n      mstore\n      0x20\n      add\n      0x4300000000000000000000000000000000000000000000000000000000000000\n      dup2\n      mstore\n      pop\n      swap1\n      pop\n        /* \"contracts-lecture/230510-2.sol\":2713:2801  if(_score >=70) {... */\n      jump(tag_102)\n    tag_101:\n        /* \"contracts-lecture/230510-2.sol\":2779:2792  _credit = 'F' */\n      mload(0x40)\n      dup1\n      0x40\n      add\n      0x40\n      mstore\n      dup1\n      0x01\n      dup2\n      mstore\n      0x20\n      add\n      0x4600000000000000000000000000000000000000000000000000000000000000\n      dup2\n      mstore\n      pop\n      swap1\n      pop\n        /* \"contracts-lecture/230510-2.sol\":2713:2801  if(_score >=70) {... */\n    tag_102:\n        /* \"contracts-lecture/230510-2.sol\":2658:2801  if(_score >=80) {... */\n    tag_100:\n        /* \"contracts-lecture/230510-2.sol\":2604:2801  if(_score>=90) {... */\n    tag_98:\n        /* \"contracts-lecture/230510-2.sol\":2819:2859  student(_number, _name, _score, _credit) */\n      mload(0x40)\n      dup1\n      0x80\n      add\n      0x40\n      mstore\n      dup1\n        /* \"contracts-lecture/230510-2.sol\":2827:2834  _number */\n      dup6\n        /* \"contracts-lecture/230510-2.sol\":2819:2859  student(_number, _name, _score, _credit) */\n      dup2\n      mstore\n      0x20\n      add\n        /* \"contracts-lecture/230510-2.sol\":2836:2841  _name */\n      dup5\n        /* \"contracts-lecture/230510-2.sol\":2819:2859  student(_number, _name, _score, _credit) */\n      dup2\n      mstore\n      0x20\n      add\n        /* \"contracts-lecture/230510-2.sol\":2843:2849  _score */\n      dup4\n        /* \"contracts-lecture/230510-2.sol\":2819:2859  student(_number, _name, _score, _credit) */\n      dup2\n      mstore\n      0x20\n      add\n        /* \"contracts-lecture/230510-2.sol\":2851:2858  _credit */\n      dup3\n        /* \"contracts-lecture/230510-2.sol\":2819:2859  student(_number, _name, _score, _credit) */\n      dup2\n      mstore\n      pop\n        /* \"contracts-lecture/230510-2.sol\":2809:2816  Charlie */\n      0x0d\n        /* \"contracts-lecture/230510-2.sol\":2809:2859  Charlie = student(_number, _name, _score, _credit) */\n      0x00\n      dup3\n      add\n      mload\n      dup2\n      0x00\n      add\n      sstore\n      0x20\n      dup3\n      add\n      mload\n      dup2\n      0x01\n      add\n      swap1\n      dup2\n      tag_103\n      swap2\n      swap1\n      tag_85\n      jump\t// in\n    tag_103:\n      pop\n      0x40\n      dup3\n      add\n      mload\n      dup2\n      0x02\n      add\n      sstore\n      0x60\n      dup3\n      add\n      mload\n      dup2\n      0x03\n      add\n      swap1\n      dup2\n      tag_104\n      swap2\n      swap1\n      tag_85\n      jump\t// in\n    tag_104:\n      pop\n      swap1\n      pop\n      pop\n        /* \"contracts-lecture/230510-2.sol\":2567:2865  {... */\n      pop\n        /* \"contracts-lecture/230510-2.sol\":2492:2865  function setCharlie(uint _number, string memory _name, uint _score) public {... */\n      pop\n      pop\n      pop\n      jump\t// out\n        /* \"contracts-lecture/230510-2.sol\":2870:3003  function getStudents() public view returns(student memory, student memory, student memory) {... */\n    tag_44:\n        /* \"contracts-lecture/230510-2.sol\":2913:2927  student memory */\n      tag_105\n      tag_106\n      jump\t// in\n    tag_105:\n        /* \"contracts-lecture/230510-2.sol\":2929:2943  student memory */\n      tag_107\n      tag_106\n      jump\t// in\n    tag_107:\n        /* \"contracts-lecture/230510-2.sol\":2945:2959  student memory */\n      tag_108\n      tag_106\n      jump\t// in\n    tag_108:\n        /* \"contracts-lecture/230510-2.sol\":2977:2982  Alice */\n      0x05\n        /* \"contracts-lecture/230510-2.sol\":2984:2987  Bob */\n      0x09\n        /* \"contracts-lecture/230510-2.sol\":2989:2996  Charlie */\n      0x0d\n        /* \"contracts-lecture/230510-2.sol\":2969:2997  return (Alice, Bob, Charlie) */\n      dup3\n      mload(0x40)\n      dup1\n      0x80\n      add\n      0x40\n      mstore\n      swap1\n      dup2\n      0x00\n      dup3\n      add\n      sload\n      dup2\n      mstore\n      0x20\n      add\n      0x01\n      dup3\n      add\n      dup1\n      sload\n      tag_110\n      swap1\n      tag_111\n      jump\t// in\n    tag_110:\n      dup1\n      0x1f\n      add\n      0x20\n      dup1\n      swap2\n      div\n      mul\n      0x20\n      add\n      mload(0x40)\n      swap1\n      dup2\n      add\n      0x40\n      mstore\n      dup1\n      swap3\n      swap2\n      swap1\n      dup2\n      dup2\n      mstore\n      0x20\n      add\n      dup3\n      dup1\n      sload\n      tag_112\n      swap1\n      tag_111\n      jump\t// in\n    tag_112:\n      dup1\n      iszero\n      tag_113\n      jumpi\n      dup1\n      0x1f\n      lt\n      tag_114\n      jumpi\n      0x0100\n      dup1\n      dup4\n      sload\n      div\n      mul\n      dup4\n      mstore\n      swap2\n      0x20\n      add\n      swap2\n      jump(tag_113)\n    tag_114:\n      dup3\n      add\n      swap2\n      swap1\n      0x00\n      mstore\n      keccak256(0x00, 0x20)\n      swap1\n    tag_115:\n      dup2\n      sload\n      dup2\n      mstore\n      swap1\n      0x01\n      add\n      swap1\n      0x20\n      add\n      dup1\n      dup4\n      gt\n      tag_115\n      jumpi\n      dup3\n      swap1\n      sub\n      0x1f\n      and\n      dup3\n      add\n      swap2\n    tag_113:\n      pop\n      pop\n      pop\n      pop\n      pop\n      dup2\n      mstore\n      0x20\n      add\n      0x02\n      dup3\n      add\n      sload\n      dup2\n      mstore\n      0x20\n      add\n      0x03\n      dup3\n      add\n      dup1\n      sload\n      tag_116\n      swap1\n      tag_111\n      jump\t// in\n    tag_116:\n      dup1\n      0x1f\n      add\n      0x20\n      dup1\n      swap2\n      div\n      mul\n      0x20\n      add\n      mload(0x40)\n      swap1\n      dup2\n      add\n      0x40\n      mstore\n      dup1\n      swap3\n      swap2\n      swap1\n      dup2\n      dup2\n      mstore\n      0x20\n      add\n      dup3\n      dup1\n      sload\n      tag_117\n      swap1\n      tag_111\n      jump\t// in\n    tag_117:\n      dup1\n      iszero\n      tag_118\n      jumpi\n      dup1\n      0x1f\n      lt\n      tag_119\n      jumpi\n      0x0100\n      dup1\n      dup4\n      sload\n      div\n      mul\n      dup4\n      mstore\n      swap2\n      0x20\n      add\n      swap2\n      jump(tag_118)\n    tag_119:\n      dup3\n      add\n      swap2\n      swap1\n      0x00\n      mstore\n      keccak256(0x00, 0x20)\n      swap1\n    tag_120:\n      dup2\n      sload\n      dup2\n      mstore\n      swap1\n      0x01\n      add\n      swap1\n      0x20\n      add\n      dup1\n      dup4\n      gt\n      tag_120\n      jumpi\n      dup3\n      swap1\n      sub\n      0x1f\n      and\n      dup3\n      add\n      swap2\n    tag_118:\n      pop\n      pop\n      pop\n      pop\n      pop\n      dup2\n      mstore\n      pop\n      pop\n      swap3\n      pop\n      dup2\n      mload(0x40)\n      dup1\n      0x80\n      add\n      0x40\n      mstore\n      swap1\n      dup2\n      0x00\n      dup3\n      add\n      sload\n      dup2\n      mstore\n      0x20\n      add\n      0x01\n      dup3\n      add\n      dup1\n      sload\n      tag_121\n      swap1\n      tag_111\n      jump\t// in\n    tag_121:\n      dup1\n      0x1f\n      add\n      0x20\n      dup1\n      swap2\n      div\n      mul\n      0x20\n      add\n      mload(0x40)\n      swap1\n      dup2\n      add\n      0x40\n      mstore\n      dup1\n      swap3\n      swap2\n      swap1\n      dup2\n      dup2\n      mstore\n      0x20\n      add\n      dup3\n      dup1\n      sload\n      tag_122\n      swap1\n      tag_111\n      jump\t// in\n    tag_122:\n      dup1\n      iszero\n      tag_123\n      jumpi\n      dup1\n      0x1f\n      lt\n      tag_124\n      jumpi\n      0x0100\n      dup1\n      dup4\n      sload\n      div\n      mul\n      dup4\n      mstore\n      swap2\n      0x20\n      add\n      swap2\n      jump(tag_123)\n    tag_124:\n      dup3\n      add\n      swap2\n      swap1\n      0x00\n      mstore\n      keccak256(0x00, 0x20)\n      swap1\n    tag_125:\n      dup2\n      sload\n      dup2\n      mstore\n      swap1\n      0x01\n      add\n      swap1\n      0x20\n      add\n      dup1\n      dup4\n      gt\n      tag_125\n      jumpi\n      dup3\n      swap1\n      sub\n      0x1f\n      and\n      dup3\n      add\n      swap2\n    tag_123:\n      pop\n      pop\n      pop\n      pop\n      pop\n      dup2\n      mstore\n      0x20\n      add\n      0x02\n      dup3\n      add\n      sload\n      dup2\n      mstore\n      0x20\n      add\n      0x03\n      dup3\n      add\n      dup1\n      sload\n      tag_126\n      swap1\n      tag_111\n      jump\t// in\n    tag_126:\n      dup1\n      0x1f\n      add\n      0x20\n      dup1\n      swap2\n      div\n      mul\n      0x20\n      add\n      mload(0x40)\n      swap1\n      dup2\n      add\n      0x40\n      mstore\n      dup1\n      swap3\n      swap2\n      swap1\n      dup2\n      dup2\n      mstore\n      0x20\n      add\n      dup3\n      dup1\n      sload\n      tag_127\n      swap1\n      tag_111\n      jump\t// in\n    tag_127:\n      dup1\n      iszero\n      tag_128\n      jumpi\n      dup1\n      0x1f\n      lt\n      tag_129\n      jumpi\n      0x0100\n      dup1\n      dup4\n      sload\n      div\n      mul\n      dup4\n      mstore\n      swap2\n      0x20\n      add\n      swap2\n      jump(tag_128)\n    tag_129:\n      dup3\n      add\n      swap2\n      swap1\n      0x00\n      mstore\n      keccak256(0x00, 0x20)\n      swap1\n    tag_130:\n      dup2\n      sload\n      dup2\n      mstore\n      swap1\n      0x01\n      add\n      swap1\n      0x20\n      add\n      dup1\n      dup4\n      gt\n      tag_130\n      jumpi\n      dup3\n      swap1\n      sub\n      0x1f\n      and\n      dup3\n      add\n      swap2\n    tag_128:\n      pop\n      pop\n      pop\n      pop\n      pop\n      dup2\n      mstore\n      pop\n      pop\n      swap2\n      pop\n      dup1\n      mload(0x40)\n      dup1\n      0x80\n      add\n      0x40\n      mstore\n      swap1\n      dup2\n      0x00\n      dup3\n      add\n      sload\n      dup2\n      mstore\n      0x20\n      add\n      0x01\n      dup3\n      add\n      dup1\n      sload\n      tag_131\n      swap1\n      tag_111\n      jump\t// in\n    tag_131:\n      dup1\n      0x1f\n      add\n      0x20\n      dup1\n      swap2\n      div\n      mul\n      0x20\n      add\n      mload(0x40)\n      swap1\n      dup2\n      add\n      0x40\n      mstore\n      dup1\n      swap3\n      swap2\n      swap1\n      dup2\n      dup2\n      mstore\n      0x20\n      add\n      dup3\n      dup1\n      sload\n      tag_132\n      swap1\n      tag_111\n      jump\t// in\n    tag_132:\n      dup1\n      iszero\n      tag_133\n      jumpi\n      dup1\n      0x1f\n      lt\n      tag_134\n      jumpi\n      0x0100\n      dup1\n      dup4\n      sload\n      div\n      mul\n      dup4\n      mstore\n      swap2\n      0x20\n      add\n      swap2\n      jump(tag_133)\n    tag_134:\n      dup3\n      add\n      swap2\n      swap1\n      0x00\n      mstore\n      keccak256(0x00, 0x20)\n      swap1\n    tag_135:\n      dup2\n      sload\n      dup2\n      mstore\n      swap1\n      0x01\n      add\n      swap1\n      0x20\n      add\n      dup1\n      dup4\n      gt\n      tag_135\n      jumpi\n      dup3\n      swap1\n      sub\n      0x1f\n      and\n      dup3\n      add\n      swap2\n    tag_133:\n      pop\n      pop\n      pop\n      pop\n      pop\n      dup2\n      mstore\n      0x20\n      add\n      0x02\n      dup3\n      add\n      sload\n      dup2\n      mstore\n      0x20\n      add\n      0x03\n      dup3\n      add\n      dup1\n      sload\n      tag_136\n      swap1\n      tag_111\n      jump\t// in\n    tag_136:\n      dup1\n      0x1f\n      add\n      0x20\n      dup1\n      swap2\n      div\n      mul\n      0x20\n      add\n      mload(0x40)\n      swap1\n      dup2\n      add\n      0x40\n      mstore\n      dup1\n      swap3\n      swap2\n      swap1\n      dup2\n      dup2\n      mstore\n      0x20\n      add\n      dup3\n      dup1\n      sload\n      tag_137\n      swap1\n      tag_111\n      jump\t// in\n    tag_137:\n      dup1\n      iszero\n      tag_138\n      jumpi\n      dup1\n      0x1f\n      lt\n      tag_139\n      jumpi\n      0x0100\n      dup1\n      dup4\n      sload\n      div\n      mul\n      dup4\n      mstore\n      swap2\n      0x20\n      add\n      swap2\n      jump(tag_138)\n    tag_139:\n      dup3\n      add\n      swap2\n      swap1\n      0x00\n      mstore\n      keccak256(0x00, 0x20)\n      swap1\n    tag_140:\n      dup2\n      sload\n      dup2\n      mstore\n      swap1\n      0x01\n      add\n      swap1\n      0x20\n      add\n      dup1\n      dup4\n      gt\n      tag_140\n      jumpi\n      dup3\n      swap1\n      sub\n      0x1f\n      and\n      dup3\n      add\n      swap2\n    tag_138:\n      pop\n      pop\n      pop\n      pop\n      pop\n      dup2\n      mstore\n      pop\n      pop\n      swap1\n      pop\n      swap3\n      pop\n      swap3\n      pop\n      swap3\n      pop\n        /* \"contracts-lecture/230510-2.sol\":2870:3003  function getStudents() public view returns(student memory, student memory, student memory) {... */\n      swap1\n      swap2\n      swap3\n      jump\t// out\n    tag_106:\n      mload(0x40)\n      dup1\n      0x80\n      add\n      0x40\n      mstore\n      dup1\n      0x00\n      dup2\n      mstore\n      0x20\n      add\n      0x60\n      dup2\n      mstore\n      0x20\n      add\n      0x00\n      dup2\n      mstore\n      0x20\n      add\n      0x60\n      dup2\n      mstore\n      pop\n      swap1\n      jump\t// out\n        /* \"#utility.yul\":7:82   */\n    tag_141:\n        /* \"#utility.yul\":40:46   */\n      0x00\n        /* \"#utility.yul\":73:75   */\n      0x40\n        /* \"#utility.yul\":67:76   */\n      mload\n        /* \"#utility.yul\":57:76   */\n      swap1\n      pop\n        /* \"#utility.yul\":7:82   */\n      swap1\n      jump\t// out\n        /* \"#utility.yul\":88:205   */\n    tag_142:\n        /* \"#utility.yul\":197:198   */\n      0x00\n        /* \"#utility.yul\":194:195   */\n      dup1\n        /* \"#utility.yul\":187:199   */\n      revert\n        /* \"#utility.yul\":211:328   */\n    tag_143:\n        /* \"#utility.yul\":320:321   */\n      0x00\n        /* \"#utility.yul\":317:318   */\n      dup1\n        /* \"#utility.yul\":310:322   */\n      revert\n        /* \"#utility.yul\":334:411   */\n    tag_144:\n        /* \"#utility.yul\":371:378   */\n      0x00\n        /* \"#utility.yul\":400:405   */\n      dup2\n        /* \"#utility.yul\":389:405   */\n      swap1\n      pop\n        /* \"#utility.yul\":334:411   */\n      swap2\n      swap1\n      pop\n      jump\t// out\n        /* \"#utility.yul\":417:539   */\n    tag_145:\n        /* \"#utility.yul\":490:514   */\n      tag_194\n        /* \"#utility.yul\":508:513   */\n      dup2\n        /* \"#utility.yul\":490:514   */\n      tag_144\n      jump\t// in\n    tag_194:\n        /* \"#utility.yul\":483:488   */\n      dup2\n        /* \"#utility.yul\":480:515   */\n      eq\n        /* \"#utility.yul\":470:533   */\n      tag_195\n      jumpi\n        /* \"#utility.yul\":529:530   */\n      0x00\n        /* \"#utility.yul\":526:527   */\n      dup1\n        /* \"#utility.yul\":519:531   */\n      revert\n        /* \"#utility.yul\":470:533   */\n    tag_195:\n        /* \"#utility.yul\":417:539   */\n      pop\n      jump\t// out\n        /* \"#utility.yul\":545:684   */\n    tag_146:\n        /* \"#utility.yul\":591:596   */\n      0x00\n        /* \"#utility.yul\":629:635   */\n      dup2\n        /* \"#utility.yul\":616:636   */\n      calldataload\n        /* \"#utility.yul\":607:636   */\n      swap1\n      pop\n        /* \"#utility.yul\":645:678   */\n      tag_197\n        /* \"#utility.yul\":672:677   */\n      dup2\n        /* \"#utility.yul\":645:678   */\n      tag_145\n      jump\t// in\n    tag_197:\n        /* \"#utility.yul\":545:684   */\n      swap3\n      swap2\n      pop\n      pop\n      jump\t// out\n        /* \"#utility.yul\":690:1019   */\n    tag_15:\n        /* \"#utility.yul\":749:755   */\n      0x00\n        /* \"#utility.yul\":798:800   */\n      0x20\n        /* \"#utility.yul\":786:795   */\n      dup3\n        /* \"#utility.yul\":777:784   */\n      dup5\n        /* \"#utility.yul\":773:796   */\n      sub\n        /* \"#utility.yul\":769:801   */\n      slt\n        /* \"#utility.yul\":766:885   */\n      iszero\n      tag_199\n      jumpi\n        /* \"#utility.yul\":804:883   */\n      tag_200\n      tag_142\n      jump\t// in\n    tag_200:\n        /* \"#utility.yul\":766:885   */\n    tag_199:\n        /* \"#utility.yul\":924:925   */\n      0x00\n        /* \"#utility.yul\":949:1002   */\n      tag_201\n        /* \"#utility.yul\":994:1001   */\n      dup5\n        /* \"#utility.yul\":985:991   */\n      dup3\n        /* \"#utility.yul\":974:983   */\n      dup6\n        /* \"#utility.yul\":970:992   */\n      add\n        /* \"#utility.yul\":949:1002   */\n      tag_146\n      jump\t// in\n    tag_201:\n        /* \"#utility.yul\":939:1002   */\n      swap2\n      pop\n        /* \"#utility.yul\":895:1012   */\n      pop\n        /* \"#utility.yul\":690:1019   */\n      swap3\n      swap2\n      pop\n      pop\n      jump\t// out\n        /* \"#utility.yul\":1025:1124   */\n    tag_147:\n        /* \"#utility.yul\":1077:1083   */\n      0x00\n        /* \"#utility.yul\":1111:1116   */\n      dup2\n        /* \"#utility.yul\":1105:1117   */\n      mload\n        /* \"#utility.yul\":1095:1117   */\n      swap1\n      pop\n        /* \"#utility.yul\":1025:1124   */\n      swap2\n      swap1\n      pop\n      jump\t// out\n        /* \"#utility.yul\":1130:1299   */\n    tag_148:\n        /* \"#utility.yul\":1214:1225   */\n      0x00\n        /* \"#utility.yul\":1248:1254   */\n      dup3\n        /* \"#utility.yul\":1243:1246   */\n      dup3\n        /* \"#utility.yul\":1236:1255   */\n      mstore\n        /* \"#utility.yul\":1288:1292   */\n      0x20\n        /* \"#utility.yul\":1283:1286   */\n      dup3\n        /* \"#utility.yul\":1279:1293   */\n      add\n        /* \"#utility.yul\":1264:1293   */\n      swap1\n      pop\n        /* \"#utility.yul\":1130:1299   */\n      swap3\n      swap2\n      pop\n      pop\n      jump\t// out\n        /* \"#utility.yul\":1305:1551   */\n    tag_149:\n        /* \"#utility.yul\":1386:1387   */\n      0x00\n        /* \"#utility.yul\":1396:1509   */\n    tag_205:\n        /* \"#utility.yul\":1410:1416   */\n      dup4\n        /* \"#utility.yul\":1407:1408   */\n      dup2\n        /* \"#utility.yul\":1404:1417   */\n      lt\n        /* \"#utility.yul\":1396:1509   */\n      iszero\n      tag_207\n      jumpi\n        /* \"#utility.yul\":1495:1496   */\n      dup1\n        /* \"#utility.yul\":1490:1493   */\n      dup3\n        /* \"#utility.yul\":1486:1497   */\n      add\n        /* \"#utility.yul\":1480:1498   */\n      mload\n        /* \"#utility.yul\":1476:1477   */\n      dup2\n        /* \"#utility.yul\":1471:1474   */\n      dup5\n        /* \"#utility.yul\":1467:1478   */\n      add\n        /* \"#utility.yul\":1460:1499   */\n      mstore\n        /* \"#utility.yul\":1432:1434   */\n      0x20\n        /* \"#utility.yul\":1429:1430   */\n      dup2\n        /* \"#utility.yul\":1425:1435   */\n      add\n        /* \"#utility.yul\":1420:1435   */\n      swap1\n      pop\n        /* \"#utility.yul\":1396:1509   */\n      jump(tag_205)\n    tag_207:\n        /* \"#utility.yul\":1543:1544   */\n      0x00\n        /* \"#utility.yul\":1534:1540   */\n      dup5\n        /* \"#utility.yul\":1529:1532   */\n      dup5\n        /* \"#utility.yul\":1525:1541   */\n      add\n        /* \"#utility.yul\":1518:1545   */\n      mstore\n        /* \"#utility.yul\":1367:1551   */\n      pop\n        /* \"#utility.yul\":1305:1551   */\n      pop\n      pop\n      pop\n      jump\t// out\n        /* \"#utility.yul\":1557:1659   */\n    tag_150:\n        /* \"#utility.yul\":1598:1604   */\n      0x00\n        /* \"#utility.yul\":1649:1651   */\n      0x1f\n        /* \"#utility.yul\":1645:1652   */\n      not\n        /* \"#utility.yul\":1640:1642   */\n      0x1f\n        /* \"#utility.yul\":1633:1638   */\n      dup4\n        /* \"#utility.yul\":1629:1643   */\n      add\n        /* \"#utility.yul\":1625:1653   */\n      and\n        /* \"#utility.yul\":1615:1653   */\n      swap1\n      pop\n        /* \"#utility.yul\":1557:1659   */\n      swap2\n      swap1\n      pop\n      jump\t// out\n        /* \"#utility.yul\":1665:2042   */\n    tag_151:\n        /* \"#utility.yul\":1753:1756   */\n      0x00\n        /* \"#utility.yul\":1781:1820   */\n      tag_210\n        /* \"#utility.yul\":1814:1819   */\n      dup3\n        /* \"#utility.yul\":1781:1820   */\n      tag_147\n      jump\t// in\n    tag_210:\n        /* \"#utility.yul\":1836:1907   */\n      tag_211\n        /* \"#utility.yul\":1900:1906   */\n      dup2\n        /* \"#utility.yul\":1895:1898   */\n      dup6\n        /* \"#utility.yul\":1836:1907   */\n      tag_148\n      jump\t// in\n    tag_211:\n        /* \"#utility.yul\":1829:1907   */\n      swap4\n      pop\n        /* \"#utility.yul\":1916:1981   */\n      tag_212\n        /* \"#utility.yul\":1974:1980   */\n      dup2\n        /* \"#utility.yul\":1969:1972   */\n      dup6\n        /* \"#utility.yul\":1962:1966   */\n      0x20\n        /* \"#utility.yul\":1955:1960   */\n      dup7\n        /* \"#utility.yul\":1951:1967   */\n      add\n        /* \"#utility.yul\":1916:1981   */\n      tag_149\n      jump\t// in\n    tag_212:\n        /* \"#utility.yul\":2006:2035   */\n      tag_213\n        /* \"#utility.yul\":2028:2034   */\n      dup2\n        /* \"#utility.yul\":2006:2035   */\n      tag_150\n      jump\t// in\n    tag_213:\n        /* \"#utility.yul\":2001:2004   */\n      dup5\n        /* \"#utility.yul\":1997:2036   */\n      add\n        /* \"#utility.yul\":1990:2036   */\n      swap2\n      pop\n        /* \"#utility.yul\":1757:2042   */\n      pop\n        /* \"#utility.yul\":1665:2042   */\n      swap3\n      swap2\n      pop\n      pop\n      jump\t// out\n        /* \"#utility.yul\":2048:2361   */\n    tag_21:\n        /* \"#utility.yul\":2161:2165   */\n      0x00\n        /* \"#utility.yul\":2199:2201   */\n      0x20\n        /* \"#utility.yul\":2188:2197   */\n      dup3\n        /* \"#utility.yul\":2184:2202   */\n      add\n        /* \"#utility.yul\":2176:2202   */\n      swap1\n      pop\n        /* \"#utility.yul\":2248:2257   */\n      dup2\n        /* \"#utility.yul\":2242:2246   */\n      dup2\n        /* \"#utility.yul\":2238:2258   */\n      sub\n        /* \"#utility.yul\":2234:2235   */\n      0x00\n        /* \"#utility.yul\":2223:2232   */\n      dup4\n        /* \"#utility.yul\":2219:2236   */\n      add\n        /* \"#utility.yul\":2212:2259   */\n      mstore\n        /* \"#utility.yul\":2276:2354   */\n      tag_215\n        /* \"#utility.yul\":2349:2353   */\n      dup2\n        /* \"#utility.yul\":2340:2346   */\n      dup5\n        /* \"#utility.yul\":2276:2354   */\n      tag_151\n      jump\t// in\n    tag_215:\n        /* \"#utility.yul\":2268:2354   */\n      swap1\n      pop\n        /* \"#utility.yul\":2048:2361   */\n      swap3\n      swap2\n      pop\n      pop\n      jump\t// out\n        /* \"#utility.yul\":2367:2481   */\n    tag_152:\n        /* \"#utility.yul\":2434:2440   */\n      0x00\n        /* \"#utility.yul\":2468:2473   */\n      dup2\n        /* \"#utility.yul\":2462:2474   */\n      mload\n        /* \"#utility.yul\":2452:2474   */\n      swap1\n      pop\n        /* \"#utility.yul\":2367:2481   */\n      swap2\n      swap1\n      pop\n      jump\t// out\n        /* \"#utility.yul\":2487:2671   */\n    tag_153:\n        /* \"#utility.yul\":2586:2597   */\n      0x00\n        /* \"#utility.yul\":2620:2626   */\n      dup3\n        /* \"#utility.yul\":2615:2618   */\n      dup3\n        /* \"#utility.yul\":2608:2627   */\n      mstore\n        /* \"#utility.yul\":2660:2664   */\n      0x20\n        /* \"#utility.yul\":2655:2658   */\n      dup3\n        /* \"#utility.yul\":2651:2665   */\n      add\n        /* \"#utility.yul\":2636:2665   */\n      swap1\n      pop\n        /* \"#utility.yul\":2487:2671   */\n      swap3\n      swap2\n      pop\n      pop\n      jump\t// out\n        /* \"#utility.yul\":2677:2809   */\n    tag_154:\n        /* \"#utility.yul\":2744:2748   */\n      0x00\n        /* \"#utility.yul\":2767:2770   */\n      dup2\n        /* \"#utility.yul\":2759:2770   */\n      swap1\n      pop\n        /* \"#utility.yul\":2797:2801   */\n      0x20\n        /* \"#utility.yul\":2792:2795   */\n      dup3\n        /* \"#utility.yul\":2788:2802   */\n      add\n        /* \"#utility.yul\":2780:2802   */\n      swap1\n      pop\n        /* \"#utility.yul\":2677:2809   */\n      swap2\n      swap1\n      pop\n      jump\t// out\n        /* \"#utility.yul\":2815:2923   */\n    tag_155:\n        /* \"#utility.yul\":2892:2916   */\n      tag_220\n        /* \"#utility.yul\":2910:2915   */\n      dup2\n        /* \"#utility.yul\":2892:2916   */\n      tag_144\n      jump\t// in\n    tag_220:\n        /* \"#utility.yul\":2887:2890   */\n      dup3\n        /* \"#utility.yul\":2880:2917   */\n      mstore\n        /* \"#utility.yul\":2815:2923   */\n      pop\n      pop\n      jump\t// out\n        /* \"#utility.yul\":2929:3108   */\n    tag_156:\n        /* \"#utility.yul\":2998:3008   */\n      0x00\n        /* \"#utility.yul\":3019:3065   */\n      tag_222\n        /* \"#utility.yul\":3061:3064   */\n      dup4\n        /* \"#utility.yul\":3053:3059   */\n      dup4\n        /* \"#utility.yul\":3019:3065   */\n      tag_155\n      jump\t// in\n    tag_222:\n        /* \"#utility.yul\":3097:3101   */\n      0x20\n        /* \"#utility.yul\":3092:3095   */\n      dup4\n        /* \"#utility.yul\":3088:3102   */\n      add\n        /* \"#utility.yul\":3074:3102   */\n      swap1\n      pop\n        /* \"#utility.yul\":2929:3108   */\n      swap3\n      swap2\n      pop\n      pop\n      jump\t// out\n        /* \"#utility.yul\":3114:3227   */\n    tag_157:\n        /* \"#utility.yul\":3184:3188   */\n      0x00\n        /* \"#utility.yul\":3216:3220   */\n      0x20\n        /* \"#utility.yul\":3211:3214   */\n      dup3\n        /* \"#utility.yul\":3207:3221   */\n      add\n        /* \"#utility.yul\":3199:3221   */\n      swap1\n      pop\n        /* \"#utility.yul\":3114:3227   */\n      swap2\n      swap1\n      pop\n      jump\t// out\n        /* \"#utility.yul\":3263:3995   */\n    tag_158:\n        /* \"#utility.yul\":3382:3385   */\n      0x00\n        /* \"#utility.yul\":3411:3465   */\n      tag_225\n        /* \"#utility.yul\":3459:3464   */\n      dup3\n        /* \"#utility.yul\":3411:3465   */\n      tag_152\n      jump\t// in\n    tag_225:\n        /* \"#utility.yul\":3481:3567   */\n      tag_226\n        /* \"#utility.yul\":3560:3566   */\n      dup2\n        /* \"#utility.yul\":3555:3558   */\n      dup6\n        /* \"#utility.yul\":3481:3567   */\n      tag_153\n      jump\t// in\n    tag_226:\n        /* \"#utility.yul\":3474:3567   */\n      swap4\n      pop\n        /* \"#utility.yul\":3591:3647   */\n      tag_227\n        /* \"#utility.yul\":3641:3646   */\n      dup4\n        /* \"#utility.yul\":3591:3647   */\n      tag_154\n      jump\t// in\n    tag_227:\n        /* \"#utility.yul\":3670:3677   */\n      dup1\n        /* \"#utility.yul\":3701:3702   */\n      0x00\n        /* \"#utility.yul\":3686:3970   */\n    tag_228:\n        /* \"#utility.yul\":3711:3717   */\n      dup4\n        /* \"#utility.yul\":3708:3709   */\n      dup2\n        /* \"#utility.yul\":3705:3718   */\n      lt\n        /* \"#utility.yul\":3686:3970   */\n      iszero\n      tag_230\n      jumpi\n        /* \"#utility.yul\":3787:3793   */\n      dup2\n        /* \"#utility.yul\":3781:3794   */\n      mload\n        /* \"#utility.yul\":3814:3877   */\n      tag_231\n        /* \"#utility.yul\":3873:3876   */\n      dup9\n        /* \"#utility.yul\":3858:3871   */\n      dup3\n        /* \"#utility.yul\":3814:3877   */\n      tag_156\n      jump\t// in\n    tag_231:\n        /* \"#utility.yul\":3807:3877   */\n      swap8\n      pop\n        /* \"#utility.yul\":3900:3960   */\n      tag_232\n        /* \"#utility.yul\":3953:3959   */\n      dup4\n        /* \"#utility.yul\":3900:3960   */\n      tag_157\n      jump\t// in\n    tag_232:\n        /* \"#utility.yul\":3890:3960   */\n      swap3\n      pop\n        /* \"#utility.yul\":3746:3970   */\n      pop\n        /* \"#utility.yul\":3733:3734   */\n      0x01\n        /* \"#utility.yul\":3730:3731   */\n      dup2\n        /* \"#utility.yul\":3726:3735   */\n      add\n        /* \"#utility.yul\":3721:3735   */\n      swap1\n      pop\n        /* \"#utility.yul\":3686:3970   */\n      jump(tag_228)\n    tag_230:\n        /* \"#utility.yul\":3690:3704   */\n      pop\n        /* \"#utility.yul\":3986:3989   */\n      dup6\n        /* \"#utility.yul\":3979:3989   */\n      swap4\n      pop\n        /* \"#utility.yul\":3387:3995   */\n      pop\n      pop\n      pop\n        /* \"#utility.yul\":3263:3995   */\n      swap3\n      swap2\n      pop\n      pop\n      jump\t// out\n        /* \"#utility.yul\":4001:4635   */\n    tag_32:\n        /* \"#utility.yul\":4222:4226   */\n      0x00\n        /* \"#utility.yul\":4260:4262   */\n      0x40\n        /* \"#utility.yul\":4249:4258   */\n      dup3\n        /* \"#utility.yul\":4245:4263   */\n      add\n        /* \"#utility.yul\":4237:4263   */\n      swap1\n      pop\n        /* \"#utility.yul\":4309:4318   */\n      dup2\n        /* \"#utility.yul\":4303:4307   */\n      dup2\n        /* \"#utility.yul\":4299:4319   */\n      sub\n        /* \"#utility.yul\":4295:4296   */\n      0x00\n        /* \"#utility.yul\":4284:4293   */\n      dup4\n        /* \"#utility.yul\":4280:4297   */\n      add\n        /* \"#utility.yul\":4273:4320   */\n      mstore\n        /* \"#utility.yul\":4337:4445   */\n      tag_234\n        /* \"#utility.yul\":4440:4444   */\n      dup2\n        /* \"#utility.yul\":4431:4437   */\n      dup6\n        /* \"#utility.yul\":4337:4445   */\n      tag_158\n      jump\t// in\n    tag_234:\n        /* \"#utility.yul\":4329:4445   */\n      swap1\n      pop\n        /* \"#utility.yul\":4492:4501   */\n      dup2\n        /* \"#utility.yul\":4486:4490   */\n      dup2\n        /* \"#utility.yul\":4482:4502   */\n      sub\n        /* \"#utility.yul\":4477:4479   */\n      0x20\n        /* \"#utility.yul\":4466:4475   */\n      dup4\n        /* \"#utility.yul\":4462:4480   */\n      add\n        /* \"#utility.yul\":4455:4503   */\n      mstore\n        /* \"#utility.yul\":4520:4628   */\n      tag_235\n        /* \"#utility.yul\":4623:4627   */\n      dup2\n        /* \"#utility.yul\":4614:4620   */\n      dup5\n        /* \"#utility.yul\":4520:4628   */\n      tag_158\n      jump\t// in\n    tag_235:\n        /* \"#utility.yul\":4512:4628   */\n      swap1\n      pop\n        /* \"#utility.yul\":4001:4635   */\n      swap4\n      swap3\n      pop\n      pop\n      pop\n      jump\t// out\n        /* \"#utility.yul\":4641:4758   */\n    tag_159:\n        /* \"#utility.yul\":4750:4751   */\n      0x00\n        /* \"#utility.yul\":4747:4748   */\n      dup1\n        /* \"#utility.yul\":4740:4752   */\n      revert\n        /* \"#utility.yul\":4764:4881   */\n    tag_160:\n        /* \"#utility.yul\":4873:4874   */\n      0x00\n        /* \"#utility.yul\":4870:4871   */\n      dup1\n        /* \"#utility.yul\":4863:4875   */\n      revert\n        /* \"#utility.yul\":4887:5067   */\n    tag_161:\n        /* \"#utility.yul\":4935:5012   */\n      0x4e487b7100000000000000000000000000000000000000000000000000000000\n        /* \"#utility.yul\":4932:4933   */\n      0x00\n        /* \"#utility.yul\":4925:5013   */\n      mstore\n        /* \"#utility.yul\":5032:5036   */\n      0x41\n        /* \"#utility.yul\":5029:5030   */\n      0x04\n        /* \"#utility.yul\":5022:5037   */\n      mstore\n        /* \"#utility.yul\":5056:5060   */\n      0x24\n        /* \"#utility.yul\":5053:5054   */\n      0x00\n        /* \"#utility.yul\":5046:5061   */\n      revert\n        /* \"#utility.yul\":5073:5354   */\n    tag_162:\n        /* \"#utility.yul\":5156:5183   */\n      tag_240\n        /* \"#utility.yul\":5178:5182   */\n      dup3\n        /* \"#utility.yul\":5156:5183   */\n      tag_150\n      jump\t// in\n    tag_240:\n        /* \"#utility.yul\":5148:5154   */\n      dup2\n        /* \"#utility.yul\":5144:5184   */\n      add\n        /* \"#utility.yul\":5286:5292   */\n      dup2\n        /* \"#utility.yul\":5274:5284   */\n      dup2\n        /* \"#utility.yul\":5271:5293   */\n      lt\n        /* \"#utility.yul\":5250:5268   */\n      0xffffffffffffffff\n        /* \"#utility.yul\":5238:5248   */\n      dup3\n        /* \"#utility.yul\":5235:5269   */\n      gt\n        /* \"#utility.yul\":5232:5294   */\n      or\n        /* \"#utility.yul\":5229:5317   */\n      iszero\n      tag_241\n      jumpi\n        /* \"#utility.yul\":5297:5315   */\n      tag_242\n      tag_161\n      jump\t// in\n    tag_242:\n        /* \"#utility.yul\":5229:5317   */\n    tag_241:\n        /* \"#utility.yul\":5337:5347   */\n      dup1\n        /* \"#utility.yul\":5333:5335   */\n      0x40\n        /* \"#utility.yul\":5326:5348   */\n      mstore\n        /* \"#utility.yul\":5116:5354   */\n      pop\n        /* \"#utility.yul\":5073:5354   */\n      pop\n      pop\n      jump\t// out\n        /* \"#utility.yul\":5360:5489   */\n    tag_163:\n        /* \"#utility.yul\":5394:5400   */\n      0x00\n        /* \"#utility.yul\":5421:5441   */\n      tag_244\n      tag_141\n      jump\t// in\n    tag_244:\n        /* \"#utility.yul\":5411:5441   */\n      swap1\n      pop\n        /* \"#utility.yul\":5450:5483   */\n      tag_245\n        /* \"#utility.yul\":5478:5482   */\n      dup3\n        /* \"#utility.yul\":5470:5476   */\n      dup3\n        /* \"#utility.yul\":5450:5483   */\n      tag_162\n      jump\t// in\n    tag_245:\n        /* \"#utility.yul\":5360:5489   */\n      swap2\n      swap1\n      pop\n      jump\t// out\n        /* \"#utility.yul\":5495:5803   */\n    tag_164:\n        /* \"#utility.yul\":5557:5561   */\n      0x00\n        /* \"#utility.yul\":5647:5665   */\n      0xffffffffffffffff\n        /* \"#utility.yul\":5639:5645   */\n      dup3\n        /* \"#utility.yul\":5636:5666   */\n      gt\n        /* \"#utility.yul\":5633:5689   */\n      iszero\n      tag_247\n      jumpi\n        /* \"#utility.yul\":5669:5687   */\n      tag_248\n      tag_161\n      jump\t// in\n    tag_248:\n        /* \"#utility.yul\":5633:5689   */\n    tag_247:\n        /* \"#utility.yul\":5707:5736   */\n      tag_249\n        /* \"#utility.yul\":5729:5735   */\n      dup3\n        /* \"#utility.yul\":5707:5736   */\n      tag_150\n      jump\t// in\n    tag_249:\n        /* \"#utility.yul\":5699:5736   */\n      swap1\n      pop\n        /* \"#utility.yul\":5791:5795   */\n      0x20\n        /* \"#utility.yul\":5785:5789   */\n      dup2\n        /* \"#utility.yul\":5781:5796   */\n      add\n        /* \"#utility.yul\":5773:5796   */\n      swap1\n      pop\n        /* \"#utility.yul\":5495:5803   */\n      swap2\n      swap1\n      pop\n      jump\t// out\n        /* \"#utility.yul\":5809:5955   */\n    tag_165:\n        /* \"#utility.yul\":5906:5912   */\n      dup3\n        /* \"#utility.yul\":5901:5904   */\n      dup2\n        /* \"#utility.yul\":5896:5899   */\n      dup4\n        /* \"#utility.yul\":5883:5913   */\n      calldatacopy\n        /* \"#utility.yul\":5947:5948   */\n      0x00\n        /* \"#utility.yul\":5938:5944   */\n      dup4\n        /* \"#utility.yul\":5933:5936   */\n      dup4\n        /* \"#utility.yul\":5929:5945   */\n      add\n        /* \"#utility.yul\":5922:5949   */\n      mstore\n        /* \"#utility.yul\":5809:5955   */\n      pop\n      pop\n      pop\n      jump\t// out\n        /* \"#utility.yul\":5961:6386   */\n    tag_166:\n        /* \"#utility.yul\":6039:6044   */\n      0x00\n        /* \"#utility.yul\":6064:6130   */\n      tag_252\n        /* \"#utility.yul\":6080:6129   */\n      tag_253\n        /* \"#utility.yul\":6122:6128   */\n      dup5\n        /* \"#utility.yul\":6080:6129   */\n      tag_164\n      jump\t// in\n    tag_253:\n        /* \"#utility.yul\":6064:6130   */\n      tag_163\n      jump\t// in\n    tag_252:\n        /* \"#utility.yul\":6055:6130   */\n      swap1\n      pop\n        /* \"#utility.yul\":6153:6159   */\n      dup3\n        /* \"#utility.yul\":6146:6151   */\n      dup2\n        /* \"#utility.yul\":6139:6160   */\n      mstore\n        /* \"#utility.yul\":6191:6195   */\n      0x20\n        /* \"#utility.yul\":6184:6189   */\n      dup2\n        /* \"#utility.yul\":6180:6196   */\n      add\n        /* \"#utility.yul\":6229:6232   */\n      dup5\n        /* \"#utility.yul\":6220:6226   */\n      dup5\n        /* \"#utility.yul\":6215:6218   */\n      dup5\n        /* \"#utility.yul\":6211:6227   */\n      add\n        /* \"#utility.yul\":6208:6233   */\n      gt\n        /* \"#utility.yul\":6205:6317   */\n      iszero\n      tag_254\n      jumpi\n        /* \"#utility.yul\":6236:6315   */\n      tag_255\n      tag_160\n      jump\t// in\n    tag_255:\n        /* \"#utility.yul\":6205:6317   */\n    tag_254:\n        /* \"#utility.yul\":6326:6380   */\n      tag_256\n        /* \"#utility.yul\":6373:6379   */\n      dup5\n        /* \"#utility.yul\":6368:6371   */\n      dup3\n        /* \"#utility.yul\":6363:6366   */\n      dup6\n        /* \"#utility.yul\":6326:6380   */\n      tag_165\n      jump\t// in\n    tag_256:\n        /* \"#utility.yul\":6045:6386   */\n      pop\n        /* \"#utility.yul\":5961:6386   */\n      swap4\n      swap3\n      pop\n      pop\n      pop\n      jump\t// out\n        /* \"#utility.yul\":6406:6746   */\n    tag_167:\n        /* \"#utility.yul\":6462:6467   */\n      0x00\n        /* \"#utility.yul\":6511:6514   */\n      dup3\n        /* \"#utility.yul\":6504:6508   */\n      0x1f\n        /* \"#utility.yul\":6496:6502   */\n      dup4\n        /* \"#utility.yul\":6492:6509   */\n      add\n        /* \"#utility.yul\":6488:6515   */\n      slt\n        /* \"#utility.yul\":6478:6600   */\n      tag_258\n      jumpi\n        /* \"#utility.yul\":6519:6598   */\n      tag_259\n      tag_159\n      jump\t// in\n    tag_259:\n        /* \"#utility.yul\":6478:6600   */\n    tag_258:\n        /* \"#utility.yul\":6636:6642   */\n      dup2\n        /* \"#utility.yul\":6623:6643   */\n      calldataload\n        /* \"#utility.yul\":6661:6740   */\n      tag_260\n        /* \"#utility.yul\":6736:6739   */\n      dup5\n        /* \"#utility.yul\":6728:6734   */\n      dup3\n        /* \"#utility.yul\":6721:6725   */\n      0x20\n        /* \"#utility.yul\":6713:6719   */\n      dup7\n        /* \"#utility.yul\":6709:6726   */\n      add\n        /* \"#utility.yul\":6661:6740   */\n      tag_166\n      jump\t// in\n    tag_260:\n        /* \"#utility.yul\":6652:6740   */\n      swap2\n      pop\n        /* \"#utility.yul\":6468:6746   */\n      pop\n        /* \"#utility.yul\":6406:6746   */\n      swap3\n      swap2\n      pop\n      pop\n      jump\t// out\n        /* \"#utility.yul\":6752:7551   */\n    tag_35:\n        /* \"#utility.yul\":6839:6845   */\n      0x00\n        /* \"#utility.yul\":6847:6853   */\n      dup1\n        /* \"#utility.yul\":6855:6861   */\n      0x00\n        /* \"#utility.yul\":6904:6906   */\n      0x60\n        /* \"#utility.yul\":6892:6901   */\n      dup5\n        /* \"#utility.yul\":6883:6890   */\n      dup7\n        /* \"#utility.yul\":6879:6902   */\n      sub\n        /* \"#utility.yul\":6875:6907   */\n      slt\n        /* \"#utility.yul\":6872:6991   */\n      iszero\n      tag_262\n      jumpi\n        /* \"#utility.yul\":6910:6989   */\n      tag_263\n      tag_142\n      jump\t// in\n    tag_263:\n        /* \"#utility.yul\":6872:6991   */\n    tag_262:\n        /* \"#utility.yul\":7030:7031   */\n      0x00\n        /* \"#utility.yul\":7055:7108   */\n      tag_264\n        /* \"#utility.yul\":7100:7107   */\n      dup7\n        /* \"#utility.yul\":7091:7097   */\n      dup3\n        /* \"#utility.yul\":7080:7089   */\n      dup8\n        /* \"#utility.yul\":7076:7098   */\n      add\n        /* \"#utility.yul\":7055:7108   */\n      tag_146\n      jump\t// in\n    tag_264:\n        /* \"#utility.yul\":7045:7108   */\n      swap4\n      pop\n        /* \"#utility.yul\":7001:7118   */\n      pop\n        /* \"#utility.yul\":7185:7187   */\n      0x20\n        /* \"#utility.yul\":7174:7183   */\n      dup5\n        /* \"#utility.yul\":7170:7188   */\n      add\n        /* \"#utility.yul\":7157:7189   */\n      calldataload\n        /* \"#utility.yul\":7216:7234   */\n      0xffffffffffffffff\n        /* \"#utility.yul\":7208:7214   */\n      dup2\n        /* \"#utility.yul\":7205:7235   */\n      gt\n        /* \"#utility.yul\":7202:7319   */\n      iszero\n      tag_265\n      jumpi\n        /* \"#utility.yul\":7238:7317   */\n      tag_266\n      tag_143\n      jump\t// in\n    tag_266:\n        /* \"#utility.yul\":7202:7319   */\n    tag_265:\n        /* \"#utility.yul\":7343:7406   */\n      tag_267\n        /* \"#utility.yul\":7398:7405   */\n      dup7\n        /* \"#utility.yul\":7389:7395   */\n      dup3\n        /* \"#utility.yul\":7378:7387   */\n      dup8\n        /* \"#utility.yul\":7374:7396   */\n      add\n        /* \"#utility.yul\":7343:7406   */\n      tag_167\n      jump\t// in\n    tag_267:\n        /* \"#utility.yul\":7333:7406   */\n      swap3\n      pop\n        /* \"#utility.yul\":7128:7416   */\n      pop\n        /* \"#utility.yul\":7455:7457   */\n      0x40\n        /* \"#utility.yul\":7481:7534   */\n      tag_268\n        /* \"#utility.yul\":7526:7533   */\n      dup7\n        /* \"#utility.yul\":7517:7523   */\n      dup3\n        /* \"#utility.yul\":7506:7515   */\n      dup8\n        /* \"#utility.yul\":7502:7524   */\n      add\n        /* \"#utility.yul\":7481:7534   */\n      tag_146\n      jump\t// in\n    tag_268:\n        /* \"#utility.yul\":7471:7534   */\n      swap2\n      pop\n        /* \"#utility.yul\":7426:7544   */\n      pop\n        /* \"#utility.yul\":6752:7551   */\n      swap3\n      pop\n      swap3\n      pop\n      swap3\n      jump\t// out\n        /* \"#utility.yul\":7557:7716   */\n    tag_168:\n        /* \"#utility.yul\":7631:7642   */\n      0x00\n        /* \"#utility.yul\":7665:7671   */\n      dup3\n        /* \"#utility.yul\":7660:7663   */\n      dup3\n        /* \"#utility.yul\":7653:7672   */\n      mstore\n        /* \"#utility.yul\":7705:7709   */\n      0x20\n        /* \"#utility.yul\":7700:7703   */\n      dup3\n        /* \"#utility.yul\":7696:7710   */\n      add\n        /* \"#utility.yul\":7681:7710   */\n      swap1\n      pop\n        /* \"#utility.yul\":7557:7716   */\n      swap3\n      swap2\n      pop\n      pop\n      jump\t// out\n        /* \"#utility.yul\":7722:8079   */\n    tag_169:\n        /* \"#utility.yul\":7800:7803   */\n      0x00\n        /* \"#utility.yul\":7828:7867   */\n      tag_271\n        /* \"#utility.yul\":7861:7866   */\n      dup3\n        /* \"#utility.yul\":7828:7867   */\n      tag_147\n      jump\t// in\n    tag_271:\n        /* \"#utility.yul\":7883:7944   */\n      tag_272\n        /* \"#utility.yul\":7937:7943   */\n      dup2\n        /* \"#utility.yul\":7932:7935   */\n      dup6\n        /* \"#utility.yul\":7883:7944   */\n      tag_168\n      jump\t// in\n    tag_272:\n        /* \"#utility.yul\":7876:7944   */\n      swap4\n      pop\n        /* \"#utility.yul\":7953:8018   */\n      tag_273\n        /* \"#utility.yul\":8011:8017   */\n      dup2\n        /* \"#utility.yul\":8006:8009   */\n      dup6\n        /* \"#utility.yul\":7999:8003   */\n      0x20\n        /* \"#utility.yul\":7992:7997   */\n      dup7\n        /* \"#utility.yul\":7988:8004   */\n      add\n        /* \"#utility.yul\":7953:8018   */\n      tag_149\n      jump\t// in\n    tag_273:\n        /* \"#utility.yul\":8043:8072   */\n      tag_274\n        /* \"#utility.yul\":8065:8071   */\n      dup2\n        /* \"#utility.yul\":8043:8072   */\n      tag_150\n      jump\t// in\n    tag_274:\n        /* \"#utility.yul\":8038:8041   */\n      dup5\n        /* \"#utility.yul\":8034:8073   */\n      add\n        /* \"#utility.yul\":8027:8073   */\n      swap2\n      pop\n        /* \"#utility.yul\":7804:8079   */\n      pop\n        /* \"#utility.yul\":7722:8079   */\n      swap3\n      swap2\n      pop\n      pop\n      jump\t// out\n        /* \"#utility.yul\":8131:9159   */\n    tag_170:\n        /* \"#utility.yul\":8248:8251   */\n      0x00\n        /* \"#utility.yul\":8284:8288   */\n      0x80\n        /* \"#utility.yul\":8279:8282   */\n      dup4\n        /* \"#utility.yul\":8275:8289   */\n      add\n        /* \"#utility.yul\":8373:8377   */\n      0x00\n        /* \"#utility.yul\":8366:8371   */\n      dup4\n        /* \"#utility.yul\":8362:8378   */\n      add\n        /* \"#utility.yul\":8356:8379   */\n      mload\n        /* \"#utility.yul\":8392:8455   */\n      tag_276\n        /* \"#utility.yul\":8449:8453   */\n      0x00\n        /* \"#utility.yul\":8444:8447   */\n      dup7\n        /* \"#utility.yul\":8440:8454   */\n      add\n        /* \"#utility.yul\":8426:8438   */\n      dup3\n        /* \"#utility.yul\":8392:8455   */\n      tag_155\n      jump\t// in\n    tag_276:\n        /* \"#utility.yul\":8299:8465   */\n      pop\n        /* \"#utility.yul\":8547:8551   */\n      0x20\n        /* \"#utility.yul\":8540:8545   */\n      dup4\n        /* \"#utility.yul\":8536:8552   */\n      add\n        /* \"#utility.yul\":8530:8553   */\n      mload\n        /* \"#utility.yul\":8600:8603   */\n      dup5\n        /* \"#utility.yul\":8594:8598   */\n      dup3\n        /* \"#utility.yul\":8590:8604   */\n      sub\n        /* \"#utility.yul\":8583:8587   */\n      0x20\n        /* \"#utility.yul\":8578:8581   */\n      dup7\n        /* \"#utility.yul\":8574:8588   */\n      add\n        /* \"#utility.yul\":8567:8605   */\n      mstore\n        /* \"#utility.yul\":8626:8699   */\n      tag_277\n        /* \"#utility.yul\":8694:8698   */\n      dup3\n        /* \"#utility.yul\":8680:8692   */\n      dup3\n        /* \"#utility.yul\":8626:8699   */\n      tag_169\n      jump\t// in\n    tag_277:\n        /* \"#utility.yul\":8618:8699   */\n      swap2\n      pop\n        /* \"#utility.yul\":8475:8710   */\n      pop\n        /* \"#utility.yul\":8793:8797   */\n      0x40\n        /* \"#utility.yul\":8786:8791   */\n      dup4\n        /* \"#utility.yul\":8782:8798   */\n      add\n        /* \"#utility.yul\":8776:8799   */\n      mload\n        /* \"#utility.yul\":8812:8875   */\n      tag_278\n        /* \"#utility.yul\":8869:8873   */\n      0x40\n        /* \"#utility.yul\":8864:8867   */\n      dup7\n        /* \"#utility.yul\":8860:8874   */\n      add\n        /* \"#utility.yul\":8846:8858   */\n      dup3\n        /* \"#utility.yul\":8812:8875   */\n      tag_155\n      jump\t// in\n    tag_278:\n        /* \"#utility.yul\":8720:8885   */\n      pop\n        /* \"#utility.yul\":8969:8973   */\n      0x60\n        /* \"#utility.yul\":8962:8967   */\n      dup4\n        /* \"#utility.yul\":8958:8974   */\n      add\n        /* \"#utility.yul\":8952:8975   */\n      mload\n        /* \"#utility.yul\":9022:9025   */\n      dup5\n        /* \"#utility.yul\":9016:9020   */\n      dup3\n        /* \"#utility.yul\":9012:9026   */\n      sub\n        /* \"#utility.yul\":9005:9009   */\n      0x60\n        /* \"#utility.yul\":9000:9003   */\n      dup7\n        /* \"#utility.yul\":8996:9010   */\n      add\n        /* \"#utility.yul\":8989:9027   */\n      mstore\n        /* \"#utility.yul\":9048:9121   */\n      tag_279\n        /* \"#utility.yul\":9116:9120   */\n      dup3\n        /* \"#utility.yul\":9102:9114   */\n      dup3\n        /* \"#utility.yul\":9048:9121   */\n      tag_169\n      jump\t// in\n    tag_279:\n        /* \"#utility.yul\":9040:9121   */\n      swap2\n      pop\n        /* \"#utility.yul\":8895:9132   */\n      pop\n        /* \"#utility.yul\":9149:9153   */\n      dup1\n        /* \"#utility.yul\":9142:9153   */\n      swap2\n      pop\n        /* \"#utility.yul\":8253:9159   */\n      pop\n        /* \"#utility.yul\":8131:9159   */\n      swap3\n      swap2\n      pop\n      pop\n      jump\t// out\n        /* \"#utility.yul\":9165:10048   */\n    tag_46:\n        /* \"#utility.yul\":9458:9462   */\n      0x00\n        /* \"#utility.yul\":9496:9498   */\n      0x60\n        /* \"#utility.yul\":9485:9494   */\n      dup3\n        /* \"#utility.yul\":9481:9499   */\n      add\n        /* \"#utility.yul\":9473:9499   */\n      swap1\n      pop\n        /* \"#utility.yul\":9545:9554   */\n      dup2\n        /* \"#utility.yul\":9539:9543   */\n      dup2\n        /* \"#utility.yul\":9535:9555   */\n      sub\n        /* \"#utility.yul\":9531:9532   */\n      0x00\n        /* \"#utility.yul\":9520:9529   */\n      dup4\n        /* \"#utility.yul\":9516:9533   */\n      add\n        /* \"#utility.yul\":9509:9556   */\n      mstore\n        /* \"#utility.yul\":9573:9679   */\n      tag_281\n        /* \"#utility.yul\":9674:9678   */\n      dup2\n        /* \"#utility.yul\":9665:9671   */\n      dup7\n        /* \"#utility.yul\":9573:9679   */\n      tag_170\n      jump\t// in\n    tag_281:\n        /* \"#utility.yul\":9565:9679   */\n      swap1\n      pop\n        /* \"#utility.yul\":9726:9735   */\n      dup2\n        /* \"#utility.yul\":9720:9724   */\n      dup2\n        /* \"#utility.yul\":9716:9736   */\n      sub\n        /* \"#utility.yul\":9711:9713   */\n      0x20\n        /* \"#utility.yul\":9700:9709   */\n      dup4\n        /* \"#utility.yul\":9696:9714   */\n      add\n        /* \"#utility.yul\":9689:9737   */\n      mstore\n        /* \"#utility.yul\":9754:9860   */\n      tag_282\n        /* \"#utility.yul\":9855:9859   */\n      dup2\n        /* \"#utility.yul\":9846:9852   */\n      dup6\n        /* \"#utility.yul\":9754:9860   */\n      tag_170\n      jump\t// in\n    tag_282:\n        /* \"#utility.yul\":9746:9860   */\n      swap1\n      pop\n        /* \"#utility.yul\":9907:9916   */\n      dup2\n        /* \"#utility.yul\":9901:9905   */\n      dup2\n        /* \"#utility.yul\":9897:9917   */\n      sub\n        /* \"#utility.yul\":9892:9894   */\n      0x40\n        /* \"#utility.yul\":9881:9890   */\n      dup4\n        /* \"#utility.yul\":9877:9895   */\n      add\n        /* \"#utility.yul\":9870:9918   */\n      mstore\n        /* \"#utility.yul\":9935:10041   */\n      tag_283\n        /* \"#utility.yul\":10036:10040   */\n      dup2\n        /* \"#utility.yul\":10027:10033   */\n      dup5\n        /* \"#utility.yul\":9935:10041   */\n      tag_170\n      jump\t// in\n    tag_283:\n        /* \"#utility.yul\":9927:10041   */\n      swap1\n      pop\n        /* \"#utility.yul\":9165:10048   */\n      swap5\n      swap4\n      pop\n      pop\n      pop\n      pop\n      jump\t// out\n        /* \"#utility.yul\":10054:10234   */\n    tag_171:\n        /* \"#utility.yul\":10102:10179   */\n      0x4e487b7100000000000000000000000000000000000000000000000000000000\n        /* \"#utility.yul\":10099:10100   */\n      0x00\n        /* \"#utility.yul\":10092:10180   */\n      mstore\n        /* \"#utility.yul\":10199:10203   */\n      0x12\n        /* \"#utility.yul\":10196:10197   */\n      0x04\n        /* \"#utility.yul\":10189:10204   */\n      mstore\n        /* \"#utility.yul\":10223:10227   */\n      0x24\n        /* \"#utility.yul\":10220:10221   */\n      0x00\n        /* \"#utility.yul\":10213:10228   */\n      revert\n        /* \"#utility.yul\":10240:10416   */\n    tag_49:\n        /* \"#utility.yul\":10272:10273   */\n      0x00\n        /* \"#utility.yul\":10289:10309   */\n      tag_286\n        /* \"#utility.yul\":10307:10308   */\n      dup3\n        /* \"#utility.yul\":10289:10309   */\n      tag_144\n      jump\t// in\n    tag_286:\n        /* \"#utility.yul\":10284:10309   */\n      swap2\n      pop\n        /* \"#utility.yul\":10323:10343   */\n      tag_287\n        /* \"#utility.yul\":10341:10342   */\n      dup4\n        /* \"#utility.yul\":10323:10343   */\n      tag_144\n      jump\t// in\n    tag_287:\n        /* \"#utility.yul\":10318:10343   */\n      swap3\n      pop\n        /* \"#utility.yul\":10362:10363   */\n      dup3\n        /* \"#utility.yul\":10352:10387   */\n      tag_288\n      jumpi\n        /* \"#utility.yul\":10367:10385   */\n      tag_289\n      tag_171\n      jump\t// in\n    tag_289:\n        /* \"#utility.yul\":10352:10387   */\n    tag_288:\n        /* \"#utility.yul\":10408:10409   */\n      dup3\n        /* \"#utility.yul\":10405:10406   */\n      dup3\n        /* \"#utility.yul\":10401:10410   */\n      mod\n        /* \"#utility.yul\":10396:10410   */\n      swap1\n      pop\n        /* \"#utility.yul\":10240:10416   */\n      swap3\n      swap2\n      pop\n      pop\n      jump\t// out\n        /* \"#utility.yul\":10422:10602   */\n    tag_172:\n        /* \"#utility.yul\":10470:10547   */\n      0x4e487b7100000000000000000000000000000000000000000000000000000000\n        /* \"#utility.yul\":10467:10468   */\n      0x00\n        /* \"#utility.yul\":10460:10548   */\n      mstore\n        /* \"#utility.yul\":10567:10571   */\n      0x22\n        /* \"#utility.yul\":10564:10565   */\n      0x04\n        /* \"#utility.yul\":10557:10572   */\n      mstore\n        /* \"#utility.yul\":10591:10595   */\n      0x24\n        /* \"#utility.yul\":10588:10589   */\n      0x00\n        /* \"#utility.yul\":10581:10596   */\n      revert\n        /* \"#utility.yul\":10608:10928   */\n    tag_111:\n        /* \"#utility.yul\":10652:10658   */\n      0x00\n        /* \"#utility.yul\":10689:10690   */\n      0x02\n        /* \"#utility.yul\":10683:10687   */\n      dup3\n        /* \"#utility.yul\":10679:10691   */\n      div\n        /* \"#utility.yul\":10669:10691   */\n      swap1\n      pop\n        /* \"#utility.yul\":10736:10737   */\n      0x01\n        /* \"#utility.yul\":10730:10734   */\n      dup3\n        /* \"#utility.yul\":10726:10738   */\n      and\n        /* \"#utility.yul\":10757:10775   */\n      dup1\n        /* \"#utility.yul\":10747:10828   */\n      tag_292\n      jumpi\n        /* \"#utility.yul\":10813:10817   */\n      0x7f\n        /* \"#utility.yul\":10805:10811   */\n      dup3\n        /* \"#utility.yul\":10801:10818   */\n      and\n        /* \"#utility.yul\":10791:10818   */\n      swap2\n      pop\n        /* \"#utility.yul\":10747:10828   */\n    tag_292:\n        /* \"#utility.yul\":10875:10877   */\n      0x20\n        /* \"#utility.yul\":10867:10873   */\n      dup3\n        /* \"#utility.yul\":10864:10878   */\n      lt\n        /* \"#utility.yul\":10844:10862   */\n      dup2\n        /* \"#utility.yul\":10841:10879   */\n      sub\n        /* \"#utility.yul\":10838:10922   */\n      tag_293\n      jumpi\n        /* \"#utility.yul\":10894:10912   */\n      tag_294\n      tag_172\n      jump\t// in\n    tag_294:\n        /* \"#utility.yul\":10838:10922   */\n    tag_293:\n        /* \"#utility.yul\":10659:10928   */\n      pop\n        /* \"#utility.yul\":10608:10928   */\n      swap2\n      swap1\n      pop\n      jump\t// out\n        /* \"#utility.yul\":10934:11075   */\n    tag_173:\n        /* \"#utility.yul\":10983:10987   */\n      0x00\n        /* \"#utility.yul\":11006:11009   */\n      dup2\n        /* \"#utility.yul\":10998:11009   */\n      swap1\n      pop\n        /* \"#utility.yul\":11029:11032   */\n      dup2\n        /* \"#utility.yul\":11026:11027   */\n      0x00\n        /* \"#utility.yul\":11019:11033   */\n      mstore\n        /* \"#utility.yul\":11063:11067   */\n      0x20\n        /* \"#utility.yul\":11060:11061   */\n      0x00\n        /* \"#utility.yul\":11050:11068   */\n      keccak256\n        /* \"#utility.yul\":11042:11068   */\n      swap1\n      pop\n        /* \"#utility.yul\":10934:11075   */\n      swap2\n      swap1\n      pop\n      jump\t// out\n        /* \"#utility.yul\":11081:11174   */\n    tag_174:\n        /* \"#utility.yul\":11118:11124   */\n      0x00\n        /* \"#utility.yul\":11165:11167   */\n      0x20\n        /* \"#utility.yul\":11160:11162   */\n      0x1f\n        /* \"#utility.yul\":11153:11158   */\n      dup4\n        /* \"#utility.yul\":11149:11163   */\n      add\n        /* \"#utility.yul\":11145:11168   */\n      div\n        /* \"#utility.yul\":11135:11168   */\n      swap1\n      pop\n        /* \"#utility.yul\":11081:11174   */\n      swap2\n      swap1\n      pop\n      jump\t// out\n        /* \"#utility.yul\":11180:11287   */\n    tag_175:\n        /* \"#utility.yul\":11224:11232   */\n      0x00\n        /* \"#utility.yul\":11274:11279   */\n      dup3\n        /* \"#utility.yul\":11268:11272   */\n      dup3\n        /* \"#utility.yul\":11264:11280   */\n      shl\n        /* \"#utility.yul\":11243:11280   */\n      swap1\n      pop\n        /* \"#utility.yul\":11180:11287   */\n      swap3\n      swap2\n      pop\n      pop\n      jump\t// out\n        /* \"#utility.yul\":11293:11686   */\n    tag_176:\n        /* \"#utility.yul\":11362:11368   */\n      0x00\n        /* \"#utility.yul\":11412:11413   */\n      0x08\n        /* \"#utility.yul\":11400:11410   */\n      dup4\n        /* \"#utility.yul\":11396:11414   */\n      mul\n        /* \"#utility.yul\":11435:11532   */\n      tag_299\n        /* \"#utility.yul\":11465:11531   */\n      0xffffffffffffffffffffffffffffffffffffffffffffffffffffffffffffffff\n        /* \"#utility.yul\":11454:11463   */\n      dup3\n        /* \"#utility.yul\":11435:11532   */\n      tag_175\n      jump\t// in\n    tag_299:\n        /* \"#utility.yul\":11553:11592   */\n      tag_300\n        /* \"#utility.yul\":11583:11591   */\n      dup7\n        /* \"#utility.yul\":11572:11581   */\n      dup4\n        /* \"#utility.yul\":11553:11592   */\n      tag_175\n      jump\t// in\n    tag_300:\n        /* \"#utility.yul\":11541:11592   */\n      swap6\n      pop\n        /* \"#utility.yul\":11625:11629   */\n      dup1\n        /* \"#utility.yul\":11621:11630   */\n      not\n        /* \"#utility.yul\":11614:11619   */\n      dup5\n        /* \"#utility.yul\":11610:11631   */\n      and\n        /* \"#utility.yul\":11601:11631   */\n      swap4\n      pop\n        /* \"#utility.yul\":11674:11678   */\n      dup1\n        /* \"#utility.yul\":11664:11672   */\n      dup7\n        /* \"#utility.yul\":11660:11679   */\n      and\n        /* \"#utility.yul\":11653:11658   */\n      dup5\n        /* \"#utility.yul\":11650:11680   */\n      or\n        /* \"#utility.yul\":11640:11680   */\n      swap3\n      pop\n        /* \"#utility.yul\":11369:11686   */\n      pop\n      pop\n        /* \"#utility.yul\":11293:11686   */\n      swap4\n      swap3\n      pop\n      pop\n      pop\n      jump\t// out\n        /* \"#utility.yul\":11692:11752   */\n    tag_177:\n        /* \"#utility.yul\":11720:11723   */\n      0x00\n        /* \"#utility.yul\":11741:11746   */\n      dup2\n        /* \"#utility.yul\":11734:11746   */\n      swap1\n      pop\n        /* \"#utility.yul\":11692:11752   */\n      swap2\n      swap1\n      pop\n      jump\t// out\n        /* \"#utility.yul\":11758:11900   */\n    tag_178:\n        /* \"#utility.yul\":11808:11817   */\n      0x00\n        /* \"#utility.yul\":11841:11894   */\n      tag_303\n        /* \"#utility.yul\":11859:11893   */\n      tag_304\n        /* \"#utility.yul\":11868:11892   */\n      tag_305\n        /* \"#utility.yul\":11886:11891   */\n      dup5\n        /* \"#utility.yul\":11868:11892   */\n      tag_144\n      jump\t// in\n    tag_305:\n        /* \"#utility.yul\":11859:11893   */\n      tag_177\n      jump\t// in\n    tag_304:\n        /* \"#utility.yul\":11841:11894   */\n      tag_144\n      jump\t// in\n    tag_303:\n        /* \"#utility.yul\":11828:11894   */\n      swap1\n      pop\n        /* \"#utility.yul\":11758:11900   */\n      swap2\n      swap1\n      pop\n      jump\t// out\n        /* \"#utility.yul\":11906:11981   */\n    tag_179:\n        /* \"#utility.yul\":11949:11952   */\n      0x00\n        /* \"#utility.yul\":11970:11975   */\n      dup2\n        /* \"#utility.yul\":11963:11975   */\n      swap1\n      pop\n        /* \"#utility.yul\":11906:11981   */\n      swap2\n      swap1\n      pop\n      jump\t// out\n        /* \"#utility.yul\":11987:12256   */\n    tag_180:\n        /* \"#utility.yul\":12097:12136   */\n      tag_308\n        /* \"#utility.yul\":12128:12135   */\n      dup4\n        /* \"#utility.yul\":12097:12136   */\n      tag_178\n      jump\t// in\n    tag_308:\n        /* \"#utility.yul\":12158:12249   */\n      tag_309\n        /* \"#utility.yul\":12207:12248   */\n      tag_310\n        /* \"#utility.yul\":12231:12247   */\n      dup3\n        /* \"#utility.yul\":12207:12248   */\n      tag_179\n      jump\t// in\n    tag_310:\n        /* \"#utility.yul\":12199:12205   */\n      dup5\n        /* \"#utility.yul\":12192:12196   */\n      dup5\n        /* \"#utility.yul\":12186:12197   */\n      sload\n        /* \"#utility.yul\":12158:12249   */\n      tag_176\n      jump\t// in\n    tag_309:\n        /* \"#utility.yul\":12152:12156   */\n      dup3\n        /* \"#utility.yul\":12145:12250   */\n      sstore\n        /* \"#utility.yul\":12063:12256   */\n      pop\n        /* \"#utility.yul\":11987:12256   */\n      pop\n      pop\n      pop\n      jump\t// out\n        /* \"#utility.yul\":12262:12335   */\n    tag_181:\n        /* \"#utility.yul\":12307:12310   */\n      0x00\n        /* \"#utility.yul\":12262:12335   */\n      swap1\n      jump\t// out\n        /* \"#utility.yul\":12341:12530   */\n    tag_182:\n        /* \"#utility.yul\":12418:12450   */\n      tag_313\n      tag_181\n      jump\t// in\n    tag_313:\n        /* \"#utility.yul\":12459:12524   */\n      tag_314\n        /* \"#utility.yul\":12517:12523   */\n      dup2\n        /* \"#utility.yul\":12509:12515   */\n      dup5\n        /* \"#utility.yul\":12503:12507   */\n      dup5\n        /* \"#utility.yul\":12459:12524   */\n      tag_180\n      jump\t// in\n    tag_314:\n        /* \"#utility.yul\":12394:12530   */\n      pop\n        /* \"#utility.yul\":12341:12530   */\n      pop\n      pop\n      jump\t// out\n        /* \"#utility.yul\":12536:12722   */\n    tag_183:\n        /* \"#utility.yul\":12596:12716   */\n    tag_316:\n        /* \"#utility.yul\":12613:12616   */\n      dup2\n        /* \"#utility.yul\":12606:12611   */\n      dup2\n        /* \"#utility.yul\":12603:12617   */\n      lt\n        /* \"#utility.yul\":12596:12716   */\n      iszero\n      tag_318\n      jumpi\n        /* \"#utility.yul\":12667:12706   */\n      tag_319\n        /* \"#utility.yul\":12704:12705   */\n      0x00\n        /* \"#utility.yul\":12697:12702   */\n      dup3\n        /* \"#utility.yul\":12667:12706   */\n      tag_182\n      jump\t// in\n    tag_319:\n        /* \"#utility.yul\":12640:12641   */\n      0x01\n        /* \"#utility.yul\":12633:12638   */\n      dup2\n        /* \"#utility.yul\":12629:12642   */\n      add\n        /* \"#utility.yul\":12620:12642   */\n      swap1\n      pop\n        /* \"#utility.yul\":12596:12716   */\n      jump(tag_316)\n    tag_318:\n        /* \"#utility.yul\":12536:12722   */\n      pop\n      pop\n      jump\t// out\n        /* \"#utility.yul\":12728:13271   */\n    tag_184:\n        /* \"#utility.yul\":12829:12831   */\n      0x1f\n        /* \"#utility.yul\":12824:12827   */\n      dup3\n        /* \"#utility.yul\":12821:12832   */\n      gt\n        /* \"#utility.yul\":12818:13264   */\n      iszero\n      tag_321\n      jumpi\n        /* \"#utility.yul\":12863:12901   */\n      tag_322\n        /* \"#utility.yul\":12895:12900   */\n      dup2\n        /* \"#utility.yul\":12863:12901   */\n      tag_173\n      jump\t// in\n    tag_322:\n        /* \"#utility.yul\":12947:12976   */\n      tag_323\n        /* \"#utility.yul\":12965:12975   */\n      dup5\n        /* \"#utility.yul\":12947:12976   */\n      tag_174\n      jump\t// in\n    tag_323:\n        /* \"#utility.yul\":12937:12945   */\n      dup2\n        /* \"#utility.yul\":12933:12977   */\n      add\n        /* \"#utility.yul\":13130:13132   */\n      0x20\n        /* \"#utility.yul\":13118:13128   */\n      dup6\n        /* \"#utility.yul\":13115:13133   */\n      lt\n        /* \"#utility.yul\":13112:13161   */\n      iszero\n      tag_324\n      jumpi\n        /* \"#utility.yul\":13151:13159   */\n      dup2\n        /* \"#utility.yul\":13136:13159   */\n      swap1\n      pop\n        /* \"#utility.yul\":13112:13161   */\n    tag_324:\n        /* \"#utility.yul\":13174:13254   */\n      tag_325\n        /* \"#utility.yul\":13230:13252   */\n      tag_326\n        /* \"#utility.yul\":13248:13251   */\n      dup6\n        /* \"#utility.yul\":13230:13252   */\n      tag_174\n      jump\t// in\n    tag_326:\n        /* \"#utility.yul\":13220:13228   */\n      dup4\n        /* \"#utility.yul\":13216:13253   */\n      add\n        /* \"#utility.yul\":13203:13214   */\n      dup3\n        /* \"#utility.yul\":13174:13254   */\n      tag_183\n      jump\t// in\n    tag_325:\n        /* \"#utility.yul\":12833:13264   */\n      pop\n      pop\n        /* \"#utility.yul\":12818:13264   */\n    tag_321:\n        /* \"#utility.yul\":12728:13271   */\n      pop\n      pop\n      pop\n      jump\t// out\n        /* \"#utility.yul\":13277:13394   */\n    tag_185:\n        /* \"#utility.yul\":13331:13339   */\n      0x00\n        /* \"#utility.yul\":13381:13386   */\n      dup3\n        /* \"#utility.yul\":13375:13379   */\n      dup3\n        /* \"#utility.yul\":13371:13387   */\n      shr\n        /* \"#utility.yul\":13350:13387   */\n      swap1\n      pop\n        /* \"#utility.yul\":13277:13394   */\n      swap3\n      swap2\n      pop\n      pop\n      jump\t// out\n        /* \"#utility.yul\":13400:13569   */\n    tag_186:\n        /* \"#utility.yul\":13444:13450   */\n      0x00\n        /* \"#utility.yul\":13477:13528   */\n      tag_329\n        /* \"#utility.yul\":13525:13526   */\n      0x00\n        /* \"#utility.yul\":13521:13527   */\n      not\n        /* \"#utility.yul\":13513:13518   */\n      dup5\n        /* \"#utility.yul\":13510:13511   */\n      0x08\n        /* \"#utility.yul\":13506:13519   */\n      mul\n        /* \"#utility.yul\":13477:13528   */\n      tag_185\n      jump\t// in\n    tag_329:\n        /* \"#utility.yul\":13473:13529   */\n      not\n        /* \"#utility.yul\":13558:13562   */\n      dup1\n        /* \"#utility.yul\":13552:13556   */\n      dup4\n        /* \"#utility.yul\":13548:13563   */\n      and\n        /* \"#utility.yul\":13538:13563   */\n      swap2\n      pop\n        /* \"#utility.yul\":13451:13569   */\n      pop\n        /* \"#utility.yul\":13400:13569   */\n      swap3\n      swap2\n      pop\n      pop\n      jump\t// out\n        /* \"#utility.yul\":13574:13869   */\n    tag_187:\n        /* \"#utility.yul\":13650:13654   */\n      0x00\n        /* \"#utility.yul\":13796:13825   */\n      tag_331\n        /* \"#utility.yul\":13821:13824   */\n      dup4\n        /* \"#utility.yul\":13815:13819   */\n      dup4\n        /* \"#utility.yul\":13796:13825   */\n      tag_186\n      jump\t// in\n    tag_331:\n        /* \"#utility.yul\":13788:13825   */\n      swap2\n      pop\n        /* \"#utility.yul\":13858:13861   */\n      dup3\n        /* \"#utility.yul\":13855:13856   */\n      0x02\n        /* \"#utility.yul\":13851:13862   */\n      mul\n        /* \"#utility.yul\":13845:13849   */\n      dup3\n        /* \"#utility.yul\":13842:13863   */\n      or\n        /* \"#utility.yul\":13834:13863   */\n      swap1\n      pop\n        /* \"#utility.yul\":13574:13869   */\n      swap3\n      swap2\n      pop\n      pop\n      jump\t// out\n        /* \"#utility.yul\":13874:15269   */\n    tag_85:\n        /* \"#utility.yul\":13991:14028   */\n      tag_333\n        /* \"#utility.yul\":14024:14027   */\n      dup3\n        /* \"#utility.yul\":13991:14028   */\n      tag_147\n      jump\t// in\n    tag_333:\n        /* \"#utility.yul\":14093:14111   */\n      0xffffffffffffffff\n        /* \"#utility.yul\":14085:14091   */\n      dup2\n        /* \"#utility.yul\":14082:14112   */\n      gt\n        /* \"#utility.yul\":14079:14135   */\n      iszero\n      tag_334\n      jumpi\n        /* \"#utility.yul\":14115:14133   */\n      tag_335\n      tag_161\n      jump\t// in\n    tag_335:\n        /* \"#utility.yul\":14079:14135   */\n    tag_334:\n        /* \"#utility.yul\":14159:14197   */\n      tag_336\n        /* \"#utility.yul\":14191:14195   */\n      dup3\n        /* \"#utility.yul\":14185:14196   */\n      sload\n        /* \"#utility.yul\":14159:14197   */\n      tag_111\n      jump\t// in\n    tag_336:\n        /* \"#utility.yul\":14244:14311   */\n      tag_337\n        /* \"#utility.yul\":14304:14310   */\n      dup3\n        /* \"#utility.yul\":14296:14302   */\n      dup3\n        /* \"#utility.yul\":14290:14294   */\n      dup6\n        /* \"#utility.yul\":14244:14311   */\n      tag_184\n      jump\t// in\n    tag_337:\n        /* \"#utility.yul\":14338:14339   */\n      0x00\n        /* \"#utility.yul\":14362:14366   */\n      0x20\n        /* \"#utility.yul\":14349:14366   */\n      swap1\n      pop\n        /* \"#utility.yul\":14394:14396   */\n      0x1f\n        /* \"#utility.yul\":14386:14392   */\n      dup4\n        /* \"#utility.yul\":14383:14397   */\n      gt\n        /* \"#utility.yul\":14411:14412   */\n      0x01\n        /* \"#utility.yul\":14406:15024   */\n      dup2\n      eq\n      tag_339\n      jumpi\n        /* \"#utility.yul\":15068:15069   */\n      0x00\n        /* \"#utility.yul\":15085:15091   */\n      dup5\n        /* \"#utility.yul\":15082:15159   */\n      iszero\n      tag_340\n      jumpi\n        /* \"#utility.yul\":15134:15143   */\n      dup3\n        /* \"#utility.yul\":15129:15132   */\n      dup8\n        /* \"#utility.yul\":15125:15144   */\n      add\n        /* \"#utility.yul\":15119:15145   */\n      mload\n        /* \"#utility.yul\":15110:15145   */\n      swap1\n      pop\n        /* \"#utility.yul\":15082:15159   */\n    tag_340:\n        /* \"#utility.yul\":15185:15252   */\n      tag_341\n        /* \"#utility.yul\":15245:15251   */\n      dup6\n        /* \"#utility.yul\":15238:15243   */\n      dup3\n        /* \"#utility.yul\":15185:15252   */\n      tag_187\n      jump\t// in\n    tag_341:\n        /* \"#utility.yul\":15179:15183   */\n      dup7\n        /* \"#utility.yul\":15172:15253   */\n      sstore\n        /* \"#utility.yul\":15041:15263   */\n      pop\n        /* \"#utility.yul\":14376:15263   */\n      jump(tag_338)\n        /* \"#utility.yul\":14406:15024   */\n    tag_339:\n        /* \"#utility.yul\":14458:14462   */\n      0x1f\n        /* \"#utility.yul\":14454:14463   */\n      not\n        /* \"#utility.yul\":14446:14452   */\n      dup5\n        /* \"#utility.yul\":14442:14464   */\n      and\n        /* \"#utility.yul\":14492:14529   */\n      tag_342\n        /* \"#utility.yul\":14524:14528   */\n      dup7\n        /* \"#utility.yul\":14492:14529   */\n      tag_173\n      jump\t// in\n    tag_342:\n        /* \"#utility.yul\":14551:14552   */\n      0x00\n        /* \"#utility.yul\":14565:14773   */\n    tag_343:\n        /* \"#utility.yul\":14579:14586   */\n      dup3\n        /* \"#utility.yul\":14576:14577   */\n      dup2\n        /* \"#utility.yul\":14573:14587   */\n      lt\n        /* \"#utility.yul\":14565:14773   */\n      iszero\n      tag_345\n      jumpi\n        /* \"#utility.yul\":14658:14667   */\n      dup5\n        /* \"#utility.yul\":14653:14656   */\n      dup10\n        /* \"#utility.yul\":14649:14668   */\n      add\n        /* \"#utility.yul\":14643:14669   */\n      mload\n        /* \"#utility.yul\":14635:14641   */\n      dup3\n        /* \"#utility.yul\":14628:14670   */\n      sstore\n        /* \"#utility.yul\":14709:14710   */\n      0x01\n        /* \"#utility.yul\":14701:14707   */\n      dup3\n        /* \"#utility.yul\":14697:14711   */\n      add\n        /* \"#utility.yul\":14687:14711   */\n      swap2\n      pop\n        /* \"#utility.yul\":14756:14758   */\n      0x20\n        /* \"#utility.yul\":14745:14754   */\n      dup6\n        /* \"#utility.yul\":14741:14759   */\n      add\n        /* \"#utility.yul\":14728:14759   */\n      swap5\n      pop\n        /* \"#utility.yul\":14602:14606   */\n      0x20\n        /* \"#utility.yul\":14599:14600   */\n      dup2\n        /* \"#utility.yul\":14595:14607   */\n      add\n        /* \"#utility.yul\":14590:14607   */\n      swap1\n      pop\n        /* \"#utility.yul\":14565:14773   */\n      jump(tag_343)\n    tag_345:\n        /* \"#utility.yul\":14801:14807   */\n      dup7\n        /* \"#utility.yul\":14792:14799   */\n      dup4\n        /* \"#utility.yul\":14789:14808   */\n      lt\n        /* \"#utility.yul\":14786:14965   */\n      iszero\n      tag_346\n      jumpi\n        /* \"#utility.yul\":14859:14868   */\n      dup5\n        /* \"#utility.yul\":14854:14857   */\n      dup10\n        /* \"#utility.yul\":14850:14869   */\n      add\n        /* \"#utility.yul\":14844:14870   */\n      mload\n        /* \"#utility.yul\":14902:14950   */\n      tag_347\n        /* \"#utility.yul\":14944:14948   */\n      0x1f\n        /* \"#utility.yul\":14936:14942   */\n      dup10\n        /* \"#utility.yul\":14932:14949   */\n      and\n        /* \"#utility.yul\":14921:14930   */\n      dup3\n        /* \"#utility.yul\":14902:14950   */\n      tag_186\n      jump\t// in\n    tag_347:\n        /* \"#utility.yul\":14894:14900   */\n      dup4\n        /* \"#utility.yul\":14887:14951   */\n      sstore\n        /* \"#utility.yul\":14809:14965   */\n      pop\n        /* \"#utility.yul\":14786:14965   */\n    tag_346:\n        /* \"#utility.yul\":15011:15012   */\n      0x01\n        /* \"#utility.yul\":15007:15008   */\n      0x02\n        /* \"#utility.yul\":14999:15005   */\n      dup9\n        /* \"#utility.yul\":14995:15009   */\n      mul\n        /* \"#utility.yul\":14991:15013   */\n      add\n        /* \"#utility.yul\":14985:14989   */\n      dup9\n        /* \"#utility.yul\":14978:15014   */\n      sstore\n        /* \"#utility.yul\":14413:15024   */\n      pop\n      pop\n      pop\n        /* \"#utility.yul\":14376:15263   */\n    tag_338:\n      pop\n        /* \"#utility.yul\":13966:15269   */\n      pop\n      pop\n      pop\n        /* \"#utility.yul\":13874:15269   */\n      pop\n      pop\n      jump\t// out\n\n    auxdata: 0xa2646970667358221220cb81c2a781d24ee0a6cc2c8d1c41a606d39547a7e41272d92dd598cac64d201164736f6c63430008120033\n}\n",
				"bytecode": {
					"linkReferences": {},
					"object": "608060405234801561001057600080fd5b506115a7806100206000396000f3fe608060405234801561001057600080fd5b50600436106100935760003560e01c80639c95ff40116100665780639c95ff40146101305780639db1e7da1461014f5780639fec86261461016b578063ad8364a414610187578063f1d064b3146101a357610093565b806355278c5b146100985780635e0d84a8146100b4578063674271cd146100e457806382ee778014610114575b600080fd5b6100b260048036038101906100ad9190610dbb565b6101c3565b005b6100ce60048036038101906100c99190610dbb565b610275565b6040516100db9190610e78565b60405180910390f35b6100fe60048036038101906100f99190610dbb565b61033f565b60405161010b9190610e78565b60405180910390f35b61012e60048036038101906101299190610dbb565b6103c4565b005b610138610433565b604051610146929190610f58565b60405180910390f35b610169600480360381019061016491906110c4565b6104e6565b005b610185600480360381019061018091906110c4565b61065e565b005b6101a1600480360381019061019c91906110c4565b6107d6565b005b6101ab61094e565b6040516101ba939291906111e7565b60405180910390f35b60016003826101d29190611262565b03610205576002819080600181540180825580915050600190039060005260206000200160009091909190915055610272565b60026003826102149190611262565b03610247576003819080600181540180825580915050600190039060005260206000200160009091909190915055610271565b60048190806001815401808255809150506001900390600052602060002001600090919091909150555b5b50565b6060604682106102bc576040518060400160405280600181526020017f4100000000000000000000000000000000000000000000000000000000000000815250905061033a565b60328210610301576040518060400160405280600181526020017f4200000000000000000000000000000000000000000000000000000000000000815250905061033a565b6040518060400160405280600181526020017f430000000000000000000000000000000000000000000000000000000000000081525090505b919050565b606060328210610386576040518060400160405280600181526020017f500000000000000000000000000000000000000000000000000000000000000081525090506103bf565b6040518060400160405280600181526020017f460000000000000000000000000000000000000000000000000000000000000081525090505b919050565b60006002826103d39190611262565b03610406576000819080600181540180825580915050600190039060005260206000200160009091909190915055610430565b60018190806001815401808255809150506001900390600052602060002001600090919091909150555b50565b606080600160008180548060200260200160405190810160405280929190818152602001828054801561048557602002820191906000526020600020905b815481526020019060010190808311610471575b50505050509150808054806020026020016040519081016040528092919081815260200182805480156104d757602002820191906000526020600020905b8154815260200190600101908083116104c3575b50505050509050915091509091565b6060605a821061052d576040518060400160405280600181526020017f410000000000000000000000000000000000000000000000000000000000000081525090506105f2565b60508210610572576040518060400160405280600181526020017f420000000000000000000000000000000000000000000000000000000000000081525090506105f1565b604682106105b7576040518060400160405280600181526020017f430000000000000000000000000000000000000000000000000000000000000081525090506105f0565b6040518060400160405280600181526020017f460000000000000000000000000000000000000000000000000000000000000081525090505b5b5b6040518060800160405280858152602001848152602001838152602001828152506009600082015181600001556020820151816001019081610634919061149f565b50604082015181600201556060820151816003019081610654919061149f565b5090505050505050565b6060605a82106106a5576040518060400160405280600181526020017f4100000000000000000000000000000000000000000000000000000000000000815250905061076a565b605082106106ea576040518060400160405280600181526020017f42000000000000000000000000000000000000000000000000000000000000008152509050610769565b6046821061072f576040518060400160405280600181526020017f43000000000000000000000000000000000000000000000000000000000000008152509050610768565b6040518060400160405280600181526020017f460000000000000000000000000000000000000000000000000000000000000081525090505b5b5b60405180608001604052808581526020018481526020018381526020018281525060056000820151816000015560208201518160010190816107ac919061149f565b506040820151816002015560608201518160030190816107cc919061149f565b5090505050505050565b6060605a821061081d576040518060400160405280600181526020017f410000000000000000000000000000000000000000000000000000000000000081525090506108e2565b60508210610862576040518060400160405280600181526020017f420000000000000000000000000000000000000000000000000000000000000081525090506108e1565b604682106108a7576040518060400160405280600181526020017f430000000000000000000000000000000000000000000000000000000000000081525090506108e0565b6040518060400160405280600181526020017f460000000000000000000000000000000000000000000000000000000000000081525090505b5b5b604051806080016040528085815260200184815260200183815260200182815250600d600082015181600001556020820151816001019081610924919061149f565b50604082015181600201556060820151816003019081610944919061149f565b5090505050505050565b610956610d49565b61095e610d49565b610966610d49565b60056009600d8260405180608001604052908160008201548152602001600182018054610992906112c2565b80601f01602080910402602001604051908101604052809291908181526020018280546109be906112c2565b8015610a0b5780601f106109e057610100808354040283529160200191610a0b565b820191906000526020600020905b8154815290600101906020018083116109ee57829003601f168201915b5050505050815260200160028201548152602001600382018054610a2e906112c2565b80601f0160208091040260200160405190810160405280929190818152602001828054610a5a906112c2565b8015610aa75780601f10610a7c57610100808354040283529160200191610aa7565b820191906000526020600020905b815481529060010190602001808311610a8a57829003601f168201915b50505050508152505092508160405180608001604052908160008201548152602001600182018054610ad8906112c2565b80601f0160208091040260200160405190810160405280929190818152602001828054610b04906112c2565b8015610b515780601f10610b2657610100808354040283529160200191610b51565b820191906000526020600020905b815481529060010190602001808311610b3457829003601f168201915b5050505050815260200160028201548152602001600382018054610b74906112c2565b80601f0160208091040260200160405190810160405280929190818152602001828054610ba0906112c2565b8015610bed5780601f10610bc257610100808354040283529160200191610bed565b820191906000526020600020905b815481529060010190602001808311610bd057829003601f168201915b50505050508152505091508060405180608001604052908160008201548152602001600182018054610c1e906112c2565b80601f0160208091040260200160405190810160405280929190818152602001828054610c4a906112c2565b8015610c975780601f10610c6c57610100808354040283529160200191610c97565b820191906000526020600020905b815481529060010190602001808311610c7a57829003601f168201915b5050505050815260200160028201548152602001600382018054610cba906112c2565b80601f0160208091040260200160405190810160405280929190818152602001828054610ce6906112c2565b8015610d335780601f10610d0857610100808354040283529160200191610d33565b820191906000526020600020905b815481529060010190602001808311610d1657829003601f168201915b5050505050815250509050925092509250909192565b6040518060800160405280600081526020016060815260200160008152602001606081525090565b6000604051905090565b600080fd5b600080fd5b6000819050919050565b610d9881610d85565b8114610da357600080fd5b50565b600081359050610db581610d8f565b92915050565b600060208284031215610dd157610dd0610d7b565b5b6000610ddf84828501610da6565b91505092915050565b600081519050919050565b600082825260208201905092915050565b60005b83811015610e22578082015181840152602081019050610e07565b60008484015250505050565b6000601f19601f8301169050919050565b6000610e4a82610de8565b610e548185610df3565b9350610e64818560208601610e04565b610e6d81610e2e565b840191505092915050565b60006020820190508181036000830152610e928184610e3f565b905092915050565b600081519050919050565b600082825260208201905092915050565b6000819050602082019050919050565b610ecf81610d85565b82525050565b6000610ee18383610ec6565b60208301905092915050565b6000602082019050919050565b6000610f0582610e9a565b610f0f8185610ea5565b9350610f1a83610eb6565b8060005b83811015610f4b578151610f328882610ed5565b9750610f3d83610eed565b925050600181019050610f1e565b5085935050505092915050565b60006040820190508181036000830152610f728185610efa565b90508181036020830152610f868184610efa565b90509392505050565b600080fd5b600080fd5b7f4e487b7100000000000000000000000000000000000000000000000000000000600052604160045260246000fd5b610fd182610e2e565b810181811067ffffffffffffffff82111715610ff057610fef610f99565b5b80604052505050565b6000611003610d71565b905061100f8282610fc8565b919050565b600067ffffffffffffffff82111561102f5761102e610f99565b5b61103882610e2e565b9050602081019050919050565b82818337600083830152505050565b600061106761106284611014565b610ff9565b90508281526020810184848401111561108357611082610f94565b5b61108e848285611045565b509392505050565b600082601f8301126110ab576110aa610f8f565b5b81356110bb848260208601611054565b91505092915050565b6000806000606084860312156110dd576110dc610d7b565b5b60006110eb86828701610da6565b935050602084013567ffffffffffffffff81111561110c5761110b610d80565b5b61111886828701611096565b925050604061112986828701610da6565b9150509250925092565b600082825260208201905092915050565b600061114f82610de8565b6111598185611133565b9350611169818560208601610e04565b61117281610e2e565b840191505092915050565b60006080830160008301516111956000860182610ec6565b50602083015184820360208601526111ad8282611144565b91505060408301516111c26040860182610ec6565b50606083015184820360608601526111da8282611144565b9150508091505092915050565b60006060820190508181036000830152611201818661117d565b90508181036020830152611215818561117d565b90508181036040830152611229818461117d565b9050949350505050565b7f4e487b7100000000000000000000000000000000000000000000000000000000600052601260045260246000fd5b600061126d82610d85565b915061127883610d85565b92508261128857611287611233565b5b828206905092915050565b7f4e487b7100000000000000000000000000000000000000000000000000000000600052602260045260246000fd5b600060028204905060018216806112da57607f821691505b6020821081036112ed576112ec611293565b5b50919050565b60008190508160005260206000209050919050565b60006020601f8301049050919050565b600082821b905092915050565b6000600883026113557fffffffffffffffffffffffffffffffffffffffffffffffffffffffffffffffff82611318565b61135f8683611318565b95508019841693508086168417925050509392505050565b6000819050919050565b600061139c61139761139284610d85565b611377565b610d85565b9050919050565b6000819050919050565b6113b683611381565b6113ca6113c2826113a3565b848454611325565b825550505050565b600090565b6113df6113d2565b6113ea8184846113ad565b505050565b5b8181101561140e576114036000826113d7565b6001810190506113f0565b5050565b601f82111561145357611424816112f3565b61142d84611308565b8101602085101561143c578190505b61145061144885611308565b8301826113ef565b50505b505050565b600082821c905092915050565b600061147660001984600802611458565b1980831691505092915050565b600061148f8383611465565b9150826002028217905092915050565b6114a882610de8565b67ffffffffffffffff8111156114c1576114c0610f99565b5b6114cb82546112c2565b6114d6828285611412565b600060209050601f83116001811461150957600084156114f7578287015190505b6115018582611483565b865550611569565b601f198416611517866112f3565b60005b8281101561153f5784890151825560018201915060208501945060208101905061151a565b8683101561155c5784890151611558601f891682611465565b8355505b6001600288020188555050505b50505050505056fea2646970667358221220cb81c2a781d24ee0a6cc2c8d1c41a606d39547a7e41272d92dd598cac64d201164736f6c63430008120033",
					"opcodes": "PUSH1 0x80 PUSH1 0x40 MSTORE CALLVALUE DUP1 ISZERO PUSH2 0x10 JUMPI PUSH1 0x0 DUP1 REVERT JUMPDEST POP PUSH2 0x15A7 DUP1 PUSH2 0x20 PUSH1 0x0 CODECOPY PUSH1 0x0 RETURN INVALID PUSH1 0x80 PUSH1 0x40 MSTORE CALLVALUE DUP1 ISZERO PUSH2 0x10 JUMPI PUSH1 0x0 DUP1 REVERT JUMPDEST POP PUSH1 0x4 CALLDATASIZE LT PUSH2 0x93 JUMPI PUSH1 0x0 CALLDATALOAD PUSH1 0xE0 SHR DUP1 PUSH4 0x9C95FF40 GT PUSH2 0x66 JUMPI DUP1 PUSH4 0x9C95FF40 EQ PUSH2 0x130 JUMPI DUP1 PUSH4 0x9DB1E7DA EQ PUSH2 0x14F JUMPI DUP1 PUSH4 0x9FEC8626 EQ PUSH2 0x16B JUMPI DUP1 PUSH4 0xAD8364A4 EQ PUSH2 0x187 JUMPI DUP1 PUSH4 0xF1D064B3 EQ PUSH2 0x1A3 JUMPI PUSH2 0x93 JUMP JUMPDEST DUP1 PUSH4 0x55278C5B EQ PUSH2 0x98 JUMPI DUP1 PUSH4 0x5E0D84A8 EQ PUSH2 0xB4 JUMPI DUP1 PUSH4 0x674271CD EQ PUSH2 0xE4 JUMPI DUP1 PUSH4 0x82EE7780 EQ PUSH2 0x114 JUMPI JUMPDEST PUSH1 0x0 DUP1 REVERT JUMPDEST PUSH2 0xB2 PUSH1 0x4 DUP1 CALLDATASIZE SUB DUP2 ADD SWAP1 PUSH2 0xAD SWAP2 SWAP1 PUSH2 0xDBB JUMP JUMPDEST PUSH2 0x1C3 JUMP JUMPDEST STOP JUMPDEST PUSH2 0xCE PUSH1 0x4 DUP1 CALLDATASIZE SUB DUP2 ADD SWAP1 PUSH2 0xC9 SWAP2 SWAP1 PUSH2 0xDBB JUMP JUMPDEST PUSH2 0x275 JUMP JUMPDEST PUSH1 0x40 MLOAD PUSH2 0xDB SWAP2 SWAP1 PUSH2 0xE78 JUMP JUMPDEST PUSH1 0x40 MLOAD DUP1 SWAP2 SUB SWAP1 RETURN JUMPDEST PUSH2 0xFE PUSH1 0x4 DUP1 CALLDATASIZE SUB DUP2 ADD SWAP1 PUSH2 0xF9 SWAP2 SWAP1 PUSH2 0xDBB JUMP JUMPDEST PUSH2 0x33F JUMP JUMPDEST PUSH1 0x40 MLOAD PUSH2 0x10B SWAP2 SWAP1 PUSH2 0xE78 JUMP JUMPDEST PUSH1 0x40 MLOAD DUP1 SWAP2 SUB SWAP1 RETURN JUMPDEST PUSH2 0x12E PUSH1 0x4 DUP1 CALLDATASIZE SUB DUP2 ADD SWAP1 PUSH2 0x129 SWAP2 SWAP1 PUSH2 0xDBB JUMP JUMPDEST PUSH2 0x3C4 JUMP JUMPDEST STOP JUMPDEST PUSH2 0x138 PUSH2 0x433 JUMP JUMPDEST PUSH1 0x40 MLOAD PUSH2 0x146 SWAP3 SWAP2 SWAP1 PUSH2 0xF58 JUMP JUMPDEST PUSH1 0x40 MLOAD DUP1 SWAP2 SUB SWAP1 RETURN JUMPDEST PUSH2 0x169 PUSH1 0x4 DUP1 CALLDATASIZE SUB DUP2 ADD SWAP1 PUSH2 0x164 SWAP2 SWAP1 PUSH2 0x10C4 JUMP JUMPDEST PUSH2 0x4E6 JUMP JUMPDEST STOP JUMPDEST PUSH2 0x185 PUSH1 0x4 DUP1 CALLDATASIZE SUB DUP2 ADD SWAP1 PUSH2 0x180 SWAP2 SWAP1 PUSH2 0x10C4 JUMP JUMPDEST PUSH2 0x65E JUMP JUMPDEST STOP JUMPDEST PUSH2 0x1A1 PUSH1 0x4 DUP1 CALLDATASIZE SUB DUP2 ADD SWAP1 PUSH2 0x19C SWAP2 SWAP1 PUSH2 0x10C4 JUMP JUMPDEST PUSH2 0x7D6 JUMP JUMPDEST STOP JUMPDEST PUSH2 0x1AB PUSH2 0x94E JUMP JUMPDEST PUSH1 0x40 MLOAD PUSH2 0x1BA SWAP4 SWAP3 SWAP2 SWAP1 PUSH2 0x11E7 JUMP JUMPDEST PUSH1 0x40 MLOAD DUP1 SWAP2 SUB SWAP1 RETURN JUMPDEST PUSH1 0x1 PUSH1 0x3 DUP3 PUSH2 0x1D2 SWAP2 SWAP1 PUSH2 0x1262 JUMP JUMPDEST SUB PUSH2 0x205 JUMPI PUSH1 0x2 DUP2 SWAP1 DUP1 PUSH1 0x1 DUP2 SLOAD ADD DUP1 DUP3 SSTORE DUP1 SWAP2 POP POP PUSH1 0x1 SWAP1 SUB SWAP1 PUSH1 0x0 MSTORE PUSH1 0x20 PUSH1 0x0 KECCAK256 ADD PUSH1 0x0 SWAP1 SWAP2 SWAP1 SWAP2 SWAP1 SWAP2 POP SSTORE PUSH2 0x272 JUMP JUMPDEST PUSH1 0x2 PUSH1 0x3 DUP3 PUSH2 0x214 SWAP2 SWAP1 PUSH2 0x1262 JUMP JUMPDEST SUB PUSH2 0x247 JUMPI PUSH1 0x3 DUP2 SWAP1 DUP1 PUSH1 0x1 DUP2 SLOAD ADD DUP1 DUP3 SSTORE DUP1 SWAP2 POP POP PUSH1 0x1 SWAP1 SUB SWAP1 PUSH1 0x0 MSTORE PUSH1 0x20 PUSH1 0x0 KECCAK256 ADD PUSH1 0x0 SWAP1 SWAP2 SWAP1 SWAP2 SWAP1 SWAP2 POP SSTORE PUSH2 0x271 JUMP JUMPDEST PUSH1 0x4 DUP2 SWAP1 DUP1 PUSH1 0x1 DUP2 SLOAD ADD DUP1 DUP3 SSTORE DUP1 SWAP2 POP POP PUSH1 0x1 SWAP1 SUB SWAP1 PUSH1 0x0 MSTORE PUSH1 0x20 PUSH1 0x0 KECCAK256 ADD PUSH1 0x0 SWAP1 SWAP2 SWAP1 SWAP2 SWAP1 SWAP2 POP SSTORE JUMPDEST JUMPDEST POP JUMP JUMPDEST PUSH1 0x60 PUSH1 0x46 DUP3 LT PUSH2 0x2BC JUMPI PUSH1 0x40 MLOAD DUP1 PUSH1 0x40 ADD PUSH1 0x40 MSTORE DUP1 PUSH1 0x1 DUP2 MSTORE PUSH1 0x20 ADD PUSH32 0x4100000000000000000000000000000000000000000000000000000000000000 DUP2 MSTORE POP SWAP1 POP PUSH2 0x33A JUMP JUMPDEST PUSH1 0x32 DUP3 LT PUSH2 0x301 JUMPI PUSH1 0x40 MLOAD DUP1 PUSH1 0x40 ADD PUSH1 0x40 MSTORE DUP1 PUSH1 0x1 DUP2 MSTORE PUSH1 0x20 ADD PUSH32 0x4200000000000000000000000000000000000000000000000000000000000000 DUP2 MSTORE POP SWAP1 POP PUSH2 0x33A JUMP JUMPDEST PUSH1 0x40 MLOAD DUP1 PUSH1 0x40 ADD PUSH1 0x40 MSTORE DUP1 PUSH1 0x1 DUP2 MSTORE PUSH1 0x20 ADD PUSH32 0x4300000000000000000000000000000000000000000000000000000000000000 DUP2 MSTORE POP SWAP1 POP JUMPDEST SWAP2 SWAP1 POP JUMP JUMPDEST PUSH1 0x60 PUSH1 0x32 DUP3 LT PUSH2 0x386 JUMPI PUSH1 0x40 MLOAD DUP1 PUSH1 0x40 ADD PUSH1 0x40 MSTORE DUP1 PUSH1 0x1 DUP2 MSTORE PUSH1 0x20 ADD PUSH32 0x5000000000000000000000000000000000000000000000000000000000000000 DUP2 MSTORE POP SWAP1 POP PUSH2 0x3BF JUMP JUMPDEST PUSH1 0x40 MLOAD DUP1 PUSH1 0x40 ADD PUSH1 0x40 MSTORE DUP1 PUSH1 0x1 DUP2 MSTORE PUSH1 0x20 ADD PUSH32 0x4600000000000000000000000000000000000000000000000000000000000000 DUP2 MSTORE POP SWAP1 POP JUMPDEST SWAP2 SWAP1 POP JUMP JUMPDEST PUSH1 0x0 PUSH1 0x2 DUP3 PUSH2 0x3D3 SWAP2 SWAP1 PUSH2 0x1262 JUMP JUMPDEST SUB PUSH2 0x406 JUMPI PUSH1 0x0 DUP2 SWAP1 DUP1 PUSH1 0x1 DUP2 SLOAD ADD DUP1 DUP3 SSTORE DUP1 SWAP2 POP POP PUSH1 0x1 SWAP1 SUB SWAP1 PUSH1 0x0 MSTORE PUSH1 0x20 PUSH1 0x0 KECCAK256 ADD PUSH1 0x0 SWAP1 SWAP2 SWAP1 SWAP2 SWAP1 SWAP2 POP SSTORE PUSH2 0x430 JUMP JUMPDEST PUSH1 0x1 DUP2 SWAP1 DUP1 PUSH1 0x1 DUP2 SLOAD ADD DUP1 DUP3 SSTORE DUP1 SWAP2 POP POP PUSH1 0x1 SWAP1 SUB SWAP1 PUSH1 0x0 MSTORE PUSH1 0x20 PUSH1 0x0 KECCAK256 ADD PUSH1 0x0 SWAP1 SWAP2 SWAP1 SWAP2 SWAP1 SWAP2 POP SSTORE JUMPDEST POP JUMP JUMPDEST PUSH1 0x60 DUP1 PUSH1 0x1 PUSH1 0x0 DUP2 DUP1 SLOAD DUP1 PUSH1 0x20 MUL PUSH1 0x20 ADD PUSH1 0x40 MLOAD SWAP1 DUP2 ADD PUSH1 0x40 MSTORE DUP1 SWAP3 SWAP2 SWAP1 DUP2 DUP2 MSTORE PUSH1 0x20 ADD DUP3 DUP1 SLOAD DUP1 ISZERO PUSH2 0x485 JUMPI PUSH1 0x20 MUL DUP3 ADD SWAP2 SWAP1 PUSH1 0x0 MSTORE PUSH1 0x20 PUSH1 0x0 KECCAK256 SWAP1 JUMPDEST DUP2 SLOAD DUP2 MSTORE PUSH1 0x20 ADD SWAP1 PUSH1 0x1 ADD SWAP1 DUP1 DUP4 GT PUSH2 0x471 JUMPI JUMPDEST POP POP POP POP POP SWAP2 POP DUP1 DUP1 SLOAD DUP1 PUSH1 0x20 MUL PUSH1 0x20 ADD PUSH1 0x40 MLOAD SWAP1 DUP2 ADD PUSH1 0x40 MSTORE DUP1 SWAP3 SWAP2 SWAP1 DUP2 DUP2 MSTORE PUSH1 0x20 ADD DUP3 DUP1 SLOAD DUP1 ISZERO PUSH2 0x4D7 JUMPI PUSH1 0x20 MUL DUP3 ADD SWAP2 SWAP1 PUSH1 0x0 MSTORE PUSH1 0x20 PUSH1 0x0 KECCAK256 SWAP1 JUMPDEST DUP2 SLOAD DUP2 MSTORE PUSH1 0x20 ADD SWAP1 PUSH1 0x1 ADD SWAP1 DUP1 DUP4 GT PUSH2 0x4C3 JUMPI JUMPDEST POP POP POP POP POP SWAP1 POP SWAP2 POP SWAP2 POP SWAP1 SWAP2 JUMP JUMPDEST PUSH1 0x60 PUSH1 0x5A DUP3 LT PUSH2 0x52D JUMPI PUSH1 0x40 MLOAD DUP1 PUSH1 0x40 ADD PUSH1 0x40 MSTORE DUP1 PUSH1 0x1 DUP2 MSTORE PUSH1 0x20 ADD PUSH32 0x4100000000000000000000000000000000000000000000000000000000000000 DUP2 MSTORE POP SWAP1 POP PUSH2 0x5F2 JUMP JUMPDEST PUSH1 0x50 DUP3 LT PUSH2 0x572 JUMPI PUSH1 0x40 MLOAD DUP1 PUSH1 0x40 ADD PUSH1 0x40 MSTORE DUP1 PUSH1 0x1 DUP2 MSTORE PUSH1 0x20 ADD PUSH32 0x4200000000000000000000000000000000000000000000000000000000000000 DUP2 MSTORE POP SWAP1 POP PUSH2 0x5F1 JUMP JUMPDEST PUSH1 0x46 DUP3 LT PUSH2 0x5B7 JUMPI PUSH1 0x40 MLOAD DUP1 PUSH1 0x40 ADD PUSH1 0x40 MSTORE DUP1 PUSH1 0x1 DUP2 MSTORE PUSH1 0x20 ADD PUSH32 0x4300000000000000000000000000000000000000000000000000000000000000 DUP2 MSTORE POP SWAP1 POP PUSH2 0x5F0 JUMP JUMPDEST PUSH1 0x40 MLOAD DUP1 PUSH1 0x40 ADD PUSH1 0x40 MSTORE DUP1 PUSH1 0x1 DUP2 MSTORE PUSH1 0x20 ADD PUSH32 0x4600000000000000000000000000000000000000000000000000000000000000 DUP2 MSTORE POP SWAP1 POP JUMPDEST JUMPDEST JUMPDEST PUSH1 0x40 MLOAD DUP1 PUSH1 0x80 ADD PUSH1 0x40 MSTORE DUP1 DUP6 DUP2 MSTORE PUSH1 0x20 ADD DUP5 DUP2 MSTORE PUSH1 0x20 ADD DUP4 DUP2 MSTORE PUSH1 0x20 ADD DUP3 DUP2 MSTORE POP PUSH1 0x9 PUSH1 0x0 DUP3 ADD MLOAD DUP2 PUSH1 0x0 ADD SSTORE PUSH1 0x20 DUP3 ADD MLOAD DUP2 PUSH1 0x1 ADD SWAP1 DUP2 PUSH2 0x634 SWAP2 SWAP1 PUSH2 0x149F JUMP JUMPDEST POP PUSH1 0x40 DUP3 ADD MLOAD DUP2 PUSH1 0x2 ADD SSTORE PUSH1 0x60 DUP3 ADD MLOAD DUP2 PUSH1 0x3 ADD SWAP1 DUP2 PUSH2 0x654 SWAP2 SWAP1 PUSH2 0x149F JUMP JUMPDEST POP SWAP1 POP POP POP POP POP POP JUMP JUMPDEST PUSH1 0x60 PUSH1 0x5A DUP3 LT PUSH2 0x6A5 JUMPI PUSH1 0x40 MLOAD DUP1 PUSH1 0x40 ADD PUSH1 0x40 MSTORE DUP1 PUSH1 0x1 DUP2 MSTORE PUSH1 0x20 ADD PUSH32 0x4100000000000000000000000000000000000000000000000000000000000000 DUP2 MSTORE POP SWAP1 POP PUSH2 0x76A JUMP JUMPDEST PUSH1 0x50 DUP3 LT PUSH2 0x6EA JUMPI PUSH1 0x40 MLOAD DUP1 PUSH1 0x40 ADD PUSH1 0x40 MSTORE DUP1 PUSH1 0x1 DUP2 MSTORE PUSH1 0x20 ADD PUSH32 0x4200000000000000000000000000000000000000000000000000000000000000 DUP2 MSTORE POP SWAP1 POP PUSH2 0x769 JUMP JUMPDEST PUSH1 0x46 DUP3 LT PUSH2 0x72F JUMPI PUSH1 0x40 MLOAD DUP1 PUSH1 0x40 ADD PUSH1 0x40 MSTORE DUP1 PUSH1 0x1 DUP2 MSTORE PUSH1 0x20 ADD PUSH32 0x4300000000000000000000000000000000000000000000000000000000000000 DUP2 MSTORE POP SWAP1 POP PUSH2 0x768 JUMP JUMPDEST PUSH1 0x40 MLOAD DUP1 PUSH1 0x40 ADD PUSH1 0x40 MSTORE DUP1 PUSH1 0x1 DUP2 MSTORE PUSH1 0x20 ADD PUSH32 0x4600000000000000000000000000000000000000000000000000000000000000 DUP2 MSTORE POP SWAP1 POP JUMPDEST JUMPDEST JUMPDEST PUSH1 0x40 MLOAD DUP1 PUSH1 0x80 ADD PUSH1 0x40 MSTORE DUP1 DUP6 DUP2 MSTORE PUSH1 0x20 ADD DUP5 DUP2 MSTORE PUSH1 0x20 ADD DUP4 DUP2 MSTORE PUSH1 0x20 ADD DUP3 DUP2 MSTORE POP PUSH1 0x5 PUSH1 0x0 DUP3 ADD MLOAD DUP2 PUSH1 0x0 ADD SSTORE PUSH1 0x20 DUP3 ADD MLOAD DUP2 PUSH1 0x1 ADD SWAP1 DUP2 PUSH2 0x7AC SWAP2 SWAP1 PUSH2 0x149F JUMP JUMPDEST POP PUSH1 0x40 DUP3 ADD MLOAD DUP2 PUSH1 0x2 ADD SSTORE PUSH1 0x60 DUP3 ADD MLOAD DUP2 PUSH1 0x3 ADD SWAP1 DUP2 PUSH2 0x7CC SWAP2 SWAP1 PUSH2 0x149F JUMP JUMPDEST POP SWAP1 POP POP POP POP POP POP JUMP JUMPDEST PUSH1 0x60 PUSH1 0x5A DUP3 LT PUSH2 0x81D JUMPI PUSH1 0x40 MLOAD DUP1 PUSH1 0x40 ADD PUSH1 0x40 MSTORE DUP1 PUSH1 0x1 DUP2 MSTORE PUSH1 0x20 ADD PUSH32 0x4100000000000000000000000000000000000000000000000000000000000000 DUP2 MSTORE POP SWAP1 POP PUSH2 0x8E2 JUMP JUMPDEST PUSH1 0x50 DUP3 LT PUSH2 0x862 JUMPI PUSH1 0x40 MLOAD DUP1 PUSH1 0x40 ADD PUSH1 0x40 MSTORE DUP1 PUSH1 0x1 DUP2 MSTORE PUSH1 0x20 ADD PUSH32 0x4200000000000000000000000000000000000000000000000000000000000000 DUP2 MSTORE POP SWAP1 POP PUSH2 0x8E1 JUMP JUMPDEST PUSH1 0x46 DUP3 LT PUSH2 0x8A7 JUMPI PUSH1 0x40 MLOAD DUP1 PUSH1 0x40 ADD PUSH1 0x40 MSTORE DUP1 PUSH1 0x1 DUP2 MSTORE PUSH1 0x20 ADD PUSH32 0x4300000000000000000000000000000000000000000000000000000000000000 DUP2 MSTORE POP SWAP1 POP PUSH2 0x8E0 JUMP JUMPDEST PUSH1 0x40 MLOAD DUP1 PUSH1 0x40 ADD PUSH1 0x40 MSTORE DUP1 PUSH1 0x1 DUP2 MSTORE PUSH1 0x20 ADD PUSH32 0x4600000000000000000000000000000000000000000000000000000000000000 DUP2 MSTORE POP SWAP1 POP JUMPDEST JUMPDEST JUMPDEST PUSH1 0x40 MLOAD DUP1 PUSH1 0x80 ADD PUSH1 0x40 MSTORE DUP1 DUP6 DUP2 MSTORE PUSH1 0x20 ADD DUP5 DUP2 MSTORE PUSH1 0x20 ADD DUP4 DUP2 MSTORE PUSH1 0x20 ADD DUP3 DUP2 MSTORE POP PUSH1 0xD PUSH1 0x0 DUP3 ADD MLOAD DUP2 PUSH1 0x0 ADD SSTORE PUSH1 0x20 DUP3 ADD MLOAD DUP2 PUSH1 0x1 ADD SWAP1 DUP2 PUSH2 0x924 SWAP2 SWAP1 PUSH2 0x149F JUMP JUMPDEST POP PUSH1 0x40 DUP3 ADD MLOAD DUP2 PUSH1 0x2 ADD SSTORE PUSH1 0x60 DUP3 ADD MLOAD DUP2 PUSH1 0x3 ADD SWAP1 DUP2 PUSH2 0x944 SWAP2 SWAP1 PUSH2 0x149F JUMP JUMPDEST POP SWAP1 POP POP POP POP POP POP JUMP JUMPDEST PUSH2 0x956 PUSH2 0xD49 JUMP JUMPDEST PUSH2 0x95E PUSH2 0xD49 JUMP JUMPDEST PUSH2 0x966 PUSH2 0xD49 JUMP JUMPDEST PUSH1 0x5 PUSH1 0x9 PUSH1 0xD DUP3 PUSH1 0x40 MLOAD DUP1 PUSH1 0x80 ADD PUSH1 0x40 MSTORE SWAP1 DUP2 PUSH1 0x0 DUP3 ADD SLOAD DUP2 MSTORE PUSH1 0x20 ADD PUSH1 0x1 DUP3 ADD DUP1 SLOAD PUSH2 0x992 SWAP1 PUSH2 0x12C2 JUMP JUMPDEST DUP1 PUSH1 0x1F ADD PUSH1 0x20 DUP1 SWAP2 DIV MUL PUSH1 0x20 ADD PUSH1 0x40 MLOAD SWAP1 DUP2 ADD PUSH1 0x40 MSTORE DUP1 SWAP3 SWAP2 SWAP1 DUP2 DUP2 MSTORE PUSH1 0x20 ADD DUP3 DUP1 SLOAD PUSH2 0x9BE SWAP1 PUSH2 0x12C2 JUMP JUMPDEST DUP1 ISZERO PUSH2 0xA0B JUMPI DUP1 PUSH1 0x1F LT PUSH2 0x9E0 JUMPI PUSH2 0x100 DUP1 DUP4 SLOAD DIV MUL DUP4 MSTORE SWAP2 PUSH1 0x20 ADD SWAP2 PUSH2 0xA0B JUMP JUMPDEST DUP3 ADD SWAP2 SWAP1 PUSH1 0x0 MSTORE PUSH1 0x20 PUSH1 0x0 KECCAK256 SWAP1 JUMPDEST DUP2 SLOAD DUP2 MSTORE SWAP1 PUSH1 0x1 ADD SWAP1 PUSH1 0x20 ADD DUP1 DUP4 GT PUSH2 0x9EE JUMPI DUP3 SWAP1 SUB PUSH1 0x1F AND DUP3 ADD SWAP2 JUMPDEST POP POP POP POP POP DUP2 MSTORE PUSH1 0x20 ADD PUSH1 0x2 DUP3 ADD SLOAD DUP2 MSTORE PUSH1 0x20 ADD PUSH1 0x3 DUP3 ADD DUP1 SLOAD PUSH2 0xA2E SWAP1 PUSH2 0x12C2 JUMP JUMPDEST DUP1 PUSH1 0x1F ADD PUSH1 0x20 DUP1 SWAP2 DIV MUL PUSH1 0x20 ADD PUSH1 0x40 MLOAD SWAP1 DUP2 ADD PUSH1 0x40 MSTORE DUP1 SWAP3 SWAP2 SWAP1 DUP2 DUP2 MSTORE PUSH1 0x20 ADD DUP3 DUP1 SLOAD PUSH2 0xA5A SWAP1 PUSH2 0x12C2 JUMP JUMPDEST DUP1 ISZERO PUSH2 0xAA7 JUMPI DUP1 PUSH1 0x1F LT PUSH2 0xA7C JUMPI PUSH2 0x100 DUP1 DUP4 SLOAD DIV MUL DUP4 MSTORE SWAP2 PUSH1 0x20 ADD SWAP2 PUSH2 0xAA7 JUMP JUMPDEST DUP3 ADD SWAP2 SWAP1 PUSH1 0x0 MSTORE PUSH1 0x20 PUSH1 0x0 KECCAK256 SWAP1 JUMPDEST DUP2 SLOAD DUP2 MSTORE SWAP1 PUSH1 0x1 ADD SWAP1 PUSH1 0x20 ADD DUP1 DUP4 GT PUSH2 0xA8A JUMPI DUP3 SWAP1 SUB PUSH1 0x1F AND DUP3 ADD SWAP2 JUMPDEST POP POP POP POP POP DUP2 MSTORE POP POP SWAP3 POP DUP2 PUSH1 0x40 MLOAD DUP1 PUSH1 0x80 ADD PUSH1 0x40 MSTORE SWAP1 DUP2 PUSH1 0x0 DUP3 ADD SLOAD DUP2 MSTORE PUSH1 0x20 ADD PUSH1 0x1 DUP3 ADD DUP1 SLOAD PUSH2 0xAD8 SWAP1 PUSH2 0x12C2 JUMP JUMPDEST DUP1 PUSH1 0x1F ADD PUSH1 0x20 DUP1 SWAP2 DIV MUL PUSH1 0x20 ADD PUSH1 0x40 MLOAD SWAP1 DUP2 ADD PUSH1 0x40 MSTORE DUP1 SWAP3 SWAP2 SWAP1 DUP2 DUP2 MSTORE PUSH1 0x20 ADD DUP3 DUP1 SLOAD PUSH2 0xB04 SWAP1 PUSH2 0x12C2 JUMP JUMPDEST DUP1 ISZERO PUSH2 0xB51 JUMPI DUP1 PUSH1 0x1F LT PUSH2 0xB26 JUMPI PUSH2 0x100 DUP1 DUP4 SLOAD DIV MUL DUP4 MSTORE SWAP2 PUSH1 0x20 ADD SWAP2 PUSH2 0xB51 JUMP JUMPDEST DUP3 ADD SWAP2 SWAP1 PUSH1 0x0 MSTORE PUSH1 0x20 PUSH1 0x0 KECCAK256 SWAP1 JUMPDEST DUP2 SLOAD DUP2 MSTORE SWAP1 PUSH1 0x1 ADD SWAP1 PUSH1 0x20 ADD DUP1 DUP4 GT PUSH2 0xB34 JUMPI DUP3 SWAP1 SUB PUSH1 0x1F AND DUP3 ADD SWAP2 JUMPDEST POP POP POP POP POP DUP2 MSTORE PUSH1 0x20 ADD PUSH1 0x2 DUP3 ADD SLOAD DUP2 MSTORE PUSH1 0x20 ADD PUSH1 0x3 DUP3 ADD DUP1 SLOAD PUSH2 0xB74 SWAP1 PUSH2 0x12C2 JUMP JUMPDEST DUP1 PUSH1 0x1F ADD PUSH1 0x20 DUP1 SWAP2 DIV MUL PUSH1 0x20 ADD PUSH1 0x40 MLOAD SWAP1 DUP2 ADD PUSH1 0x40 MSTORE DUP1 SWAP3 SWAP2 SWAP1 DUP2 DUP2 MSTORE PUSH1 0x20 ADD DUP3 DUP1 SLOAD PUSH2 0xBA0 SWAP1 PUSH2 0x12C2 JUMP JUMPDEST DUP1 ISZERO PUSH2 0xBED JUMPI DUP1 PUSH1 0x1F LT PUSH2 0xBC2 JUMPI PUSH2 0x100 DUP1 DUP4 SLOAD DIV MUL DUP4 MSTORE SWAP2 PUSH1 0x20 ADD SWAP2 PUSH2 0xBED JUMP JUMPDEST DUP3 ADD SWAP2 SWAP1 PUSH1 0x0 MSTORE PUSH1 0x20 PUSH1 0x0 KECCAK256 SWAP1 JUMPDEST DUP2 SLOAD DUP2 MSTORE SWAP1 PUSH1 0x1 ADD SWAP1 PUSH1 0x20 ADD DUP1 DUP4 GT PUSH2 0xBD0 JUMPI DUP3 SWAP1 SUB PUSH1 0x1F AND DUP3 ADD SWAP2 JUMPDEST POP POP POP POP POP DUP2 MSTORE POP POP SWAP2 POP DUP1 PUSH1 0x40 MLOAD DUP1 PUSH1 0x80 ADD PUSH1 0x40 MSTORE SWAP1 DUP2 PUSH1 0x0 DUP3 ADD SLOAD DUP2 MSTORE PUSH1 0x20 ADD PUSH1 0x1 DUP3 ADD DUP1 SLOAD PUSH2 0xC1E SWAP1 PUSH2 0x12C2 JUMP JUMPDEST DUP1 PUSH1 0x1F ADD PUSH1 0x20 DUP1 SWAP2 DIV MUL PUSH1 0x20 ADD PUSH1 0x40 MLOAD SWAP1 DUP2 ADD PUSH1 0x40 MSTORE DUP1 SWAP3 SWAP2 SWAP1 DUP2 DUP2 MSTORE PUSH1 0x20 ADD DUP3 DUP1 SLOAD PUSH2 0xC4A SWAP1 PUSH2 0x12C2 JUMP JUMPDEST DUP1 ISZERO PUSH2 0xC97 JUMPI DUP1 PUSH1 0x1F LT PUSH2 0xC6C JUMPI PUSH2 0x100 DUP1 DUP4 SLOAD DIV MUL DUP4 MSTORE SWAP2 PUSH1 0x20 ADD SWAP2 PUSH2 0xC97 JUMP JUMPDEST DUP3 ADD SWAP2 SWAP1 PUSH1 0x0 MSTORE PUSH1 0x20 PUSH1 0x0 KECCAK256 SWAP1 JUMPDEST DUP2 SLOAD DUP2 MSTORE SWAP1 PUSH1 0x1 ADD SWAP1 PUSH1 0x20 ADD DUP1 DUP4 GT PUSH2 0xC7A JUMPI DUP3 SWAP1 SUB PUSH1 0x1F AND DUP3 ADD SWAP2 JUMPDEST POP POP POP POP POP DUP2 MSTORE PUSH1 0x20 ADD PUSH1 0x2 DUP3 ADD SLOAD DUP2 MSTORE PUSH1 0x20 ADD PUSH1 0x3 DUP3 ADD DUP1 SLOAD PUSH2 0xCBA SWAP1 PUSH2 0x12C2 JUMP JUMPDEST DUP1 PUSH1 0x1F ADD PUSH1 0x20 DUP1 SWAP2 DIV MUL PUSH1 0x20 ADD PUSH1 0x40 MLOAD SWAP1 DUP2 ADD PUSH1 0x40 MSTORE DUP1 SWAP3 SWAP2 SWAP1 DUP2 DUP2 MSTORE PUSH1 0x20 ADD DUP3 DUP1 SLOAD PUSH2 0xCE6 SWAP1 PUSH2 0x12C2 JUMP JUMPDEST DUP1 ISZERO PUSH2 0xD33 JUMPI DUP1 PUSH1 0x1F LT PUSH2 0xD08 JUMPI PUSH2 0x100 DUP1 DUP4 SLOAD DIV MUL DUP4 MSTORE SWAP2 PUSH1 0x20 ADD SWAP2 PUSH2 0xD33 JUMP JUMPDEST DUP3 ADD SWAP2 SWAP1 PUSH1 0x0 MSTORE PUSH1 0x20 PUSH1 0x0 KECCAK256 SWAP1 JUMPDEST DUP2 SLOAD DUP2 MSTORE SWAP1 PUSH1 0x1 ADD SWAP1 PUSH1 0x20 ADD DUP1 DUP4 GT PUSH2 0xD16 JUMPI DUP3 SWAP1 SUB PUSH1 0x1F AND DUP3 ADD SWAP2 JUMPDEST POP POP POP POP POP DUP2 MSTORE POP POP SWAP1 POP SWAP3 POP SWAP3 POP SWAP3 POP SWAP1 SWAP2 SWAP3 JUMP JUMPDEST PUSH1 0x40 MLOAD DUP1 PUSH1 0x80 ADD PUSH1 0x40 MSTORE DUP1 PUSH1 0x0 DUP2 MSTORE PUSH1 0x20 ADD PUSH1 0x60 DUP2 MSTORE PUSH1 0x20 ADD PUSH1 0x0 DUP2 MSTORE PUSH1 0x20 ADD PUSH1 0x60 DUP2 MSTORE POP SWAP1 JUMP JUMPDEST PUSH1 0x0 PUSH1 0x40 MLOAD SWAP1 POP SWAP1 JUMP JUMPDEST PUSH1 0x0 DUP1 REVERT JUMPDEST PUSH1 0x0 DUP1 REVERT JUMPDEST PUSH1 0x0 DUP2 SWAP1 POP SWAP2 SWAP1 POP JUMP JUMPDEST PUSH2 0xD98 DUP2 PUSH2 0xD85 JUMP JUMPDEST DUP2 EQ PUSH2 0xDA3 JUMPI PUSH1 0x0 DUP1 REVERT JUMPDEST POP JUMP JUMPDEST PUSH1 0x0 DUP2 CALLDATALOAD SWAP1 POP PUSH2 0xDB5 DUP2 PUSH2 0xD8F JUMP JUMPDEST SWAP3 SWAP2 POP POP JUMP JUMPDEST PUSH1 0x0 PUSH1 0x20 DUP3 DUP5 SUB SLT ISZERO PUSH2 0xDD1 JUMPI PUSH2 0xDD0 PUSH2 0xD7B JUMP JUMPDEST JUMPDEST PUSH1 0x0 PUSH2 0xDDF DUP5 DUP3 DUP6 ADD PUSH2 0xDA6 JUMP JUMPDEST SWAP2 POP POP SWAP3 SWAP2 POP POP JUMP JUMPDEST PUSH1 0x0 DUP2 MLOAD SWAP1 POP SWAP2 SWAP1 POP JUMP JUMPDEST PUSH1 0x0 DUP3 DUP3 MSTORE PUSH1 0x20 DUP3 ADD SWAP1 POP SWAP3 SWAP2 POP POP JUMP JUMPDEST PUSH1 0x0 JUMPDEST DUP4 DUP2 LT ISZERO PUSH2 0xE22 JUMPI DUP1 DUP3 ADD MLOAD DUP2 DUP5 ADD MSTORE PUSH1 0x20 DUP2 ADD SWAP1 POP PUSH2 0xE07 JUMP JUMPDEST PUSH1 0x0 DUP5 DUP5 ADD MSTORE POP POP POP POP JUMP JUMPDEST PUSH1 0x0 PUSH1 0x1F NOT PUSH1 0x1F DUP4 ADD AND SWAP1 POP SWAP2 SWAP1 POP JUMP JUMPDEST PUSH1 0x0 PUSH2 0xE4A DUP3 PUSH2 0xDE8 JUMP JUMPDEST PUSH2 0xE54 DUP2 DUP6 PUSH2 0xDF3 JUMP JUMPDEST SWAP4 POP PUSH2 0xE64 DUP2 DUP6 PUSH1 0x20 DUP7 ADD PUSH2 0xE04 JUMP JUMPDEST PUSH2 0xE6D DUP2 PUSH2 0xE2E JUMP JUMPDEST DUP5 ADD SWAP2 POP POP SWAP3 SWAP2 POP POP JUMP JUMPDEST PUSH1 0x0 PUSH1 0x20 DUP3 ADD SWAP1 POP DUP2 DUP2 SUB PUSH1 0x0 DUP4 ADD MSTORE PUSH2 0xE92 DUP2 DUP5 PUSH2 0xE3F JUMP JUMPDEST SWAP1 POP SWAP3 SWAP2 POP POP JUMP JUMPDEST PUSH1 0x0 DUP2 MLOAD SWAP1 POP SWAP2 SWAP1 POP JUMP JUMPDEST PUSH1 0x0 DUP3 DUP3 MSTORE PUSH1 0x20 DUP3 ADD SWAP1 POP SWAP3 SWAP2 POP POP JUMP JUMPDEST PUSH1 0x0 DUP2 SWAP1 POP PUSH1 0x20 DUP3 ADD SWAP1 POP SWAP2 SWAP1 POP JUMP JUMPDEST PUSH2 0xECF DUP2 PUSH2 0xD85 JUMP JUMPDEST DUP3 MSTORE POP POP JUMP JUMPDEST PUSH1 0x0 PUSH2 0xEE1 DUP4 DUP4 PUSH2 0xEC6 JUMP JUMPDEST PUSH1 0x20 DUP4 ADD SWAP1 POP SWAP3 SWAP2 POP POP JUMP JUMPDEST PUSH1 0x0 PUSH1 0x20 DUP3 ADD SWAP1 POP SWAP2 SWAP1 POP JUMP JUMPDEST PUSH1 0x0 PUSH2 0xF05 DUP3 PUSH2 0xE9A JUMP JUMPDEST PUSH2 0xF0F DUP2 DUP6 PUSH2 0xEA5 JUMP JUMPDEST SWAP4 POP PUSH2 0xF1A DUP4 PUSH2 0xEB6 JUMP JUMPDEST DUP1 PUSH1 0x0 JUMPDEST DUP4 DUP2 LT ISZERO PUSH2 0xF4B JUMPI DUP2 MLOAD PUSH2 0xF32 DUP9 DUP3 PUSH2 0xED5 JUMP JUMPDEST SWAP8 POP PUSH2 0xF3D DUP4 PUSH2 0xEED JUMP JUMPDEST SWAP3 POP POP PUSH1 0x1 DUP2 ADD SWAP1 POP PUSH2 0xF1E JUMP JUMPDEST POP DUP6 SWAP4 POP POP POP POP SWAP3 SWAP2 POP POP JUMP JUMPDEST PUSH1 0x0 PUSH1 0x40 DUP3 ADD SWAP1 POP DUP2 DUP2 SUB PUSH1 0x0 DUP4 ADD MSTORE PUSH2 0xF72 DUP2 DUP6 PUSH2 0xEFA JUMP JUMPDEST SWAP1 POP DUP2 DUP2 SUB PUSH1 0x20 DUP4 ADD MSTORE PUSH2 0xF86 DUP2 DUP5 PUSH2 0xEFA JUMP JUMPDEST SWAP1 POP SWAP4 SWAP3 POP POP POP JUMP JUMPDEST PUSH1 0x0 DUP1 REVERT JUMPDEST PUSH1 0x0 DUP1 REVERT JUMPDEST PUSH32 0x4E487B7100000000000000000000000000000000000000000000000000000000 PUSH1 0x0 MSTORE PUSH1 0x41 PUSH1 0x4 MSTORE PUSH1 0x24 PUSH1 0x0 REVERT JUMPDEST PUSH2 0xFD1 DUP3 PUSH2 0xE2E JUMP JUMPDEST DUP2 ADD DUP2 DUP2 LT PUSH8 0xFFFFFFFFFFFFFFFF DUP3 GT OR ISZERO PUSH2 0xFF0 JUMPI PUSH2 0xFEF PUSH2 0xF99 JUMP JUMPDEST JUMPDEST DUP1 PUSH1 0x40 MSTORE POP POP POP JUMP JUMPDEST PUSH1 0x0 PUSH2 0x1003 PUSH2 0xD71 JUMP JUMPDEST SWAP1 POP PUSH2 0x100F DUP3 DUP3 PUSH2 0xFC8 JUMP JUMPDEST SWAP2 SWAP1 POP JUMP JUMPDEST PUSH1 0x0 PUSH8 0xFFFFFFFFFFFFFFFF DUP3 GT ISZERO PUSH2 0x102F JUMPI PUSH2 0x102E PUSH2 0xF99 JUMP JUMPDEST JUMPDEST PUSH2 0x1038 DUP3 PUSH2 0xE2E JUMP JUMPDEST SWAP1 POP PUSH1 0x20 DUP2 ADD SWAP1 POP SWAP2 SWAP1 POP JUMP JUMPDEST DUP3 DUP2 DUP4 CALLDATACOPY PUSH1 0x0 DUP4 DUP4 ADD MSTORE POP POP POP JUMP JUMPDEST PUSH1 0x0 PUSH2 0x1067 PUSH2 0x1062 DUP5 PUSH2 0x1014 JUMP JUMPDEST PUSH2 0xFF9 JUMP JUMPDEST SWAP1 POP DUP3 DUP2 MSTORE PUSH1 0x20 DUP2 ADD DUP5 DUP5 DUP5 ADD GT ISZERO PUSH2 0x1083 JUMPI PUSH2 0x1082 PUSH2 0xF94 JUMP JUMPDEST JUMPDEST PUSH2 0x108E DUP5 DUP3 DUP6 PUSH2 0x1045 JUMP JUMPDEST POP SWAP4 SWAP3 POP POP POP JUMP JUMPDEST PUSH1 0x0 DUP3 PUSH1 0x1F DUP4 ADD SLT PUSH2 0x10AB JUMPI PUSH2 0x10AA PUSH2 0xF8F JUMP JUMPDEST JUMPDEST DUP2 CALLDATALOAD PUSH2 0x10BB DUP5 DUP3 PUSH1 0x20 DUP7 ADD PUSH2 0x1054 JUMP JUMPDEST SWAP2 POP POP SWAP3 SWAP2 POP POP JUMP JUMPDEST PUSH1 0x0 DUP1 PUSH1 0x0 PUSH1 0x60 DUP5 DUP7 SUB SLT ISZERO PUSH2 0x10DD JUMPI PUSH2 0x10DC PUSH2 0xD7B JUMP JUMPDEST JUMPDEST PUSH1 0x0 PUSH2 0x10EB DUP7 DUP3 DUP8 ADD PUSH2 0xDA6 JUMP JUMPDEST SWAP4 POP POP PUSH1 0x20 DUP5 ADD CALLDATALOAD PUSH8 0xFFFFFFFFFFFFFFFF DUP2 GT ISZERO PUSH2 0x110C JUMPI PUSH2 0x110B PUSH2 0xD80 JUMP JUMPDEST JUMPDEST PUSH2 0x1118 DUP7 DUP3 DUP8 ADD PUSH2 0x1096 JUMP JUMPDEST SWAP3 POP POP PUSH1 0x40 PUSH2 0x1129 DUP7 DUP3 DUP8 ADD PUSH2 0xDA6 JUMP JUMPDEST SWAP2 POP POP SWAP3 POP SWAP3 POP SWAP3 JUMP JUMPDEST PUSH1 0x0 DUP3 DUP3 MSTORE PUSH1 0x20 DUP3 ADD SWAP1 POP SWAP3 SWAP2 POP POP JUMP JUMPDEST PUSH1 0x0 PUSH2 0x114F DUP3 PUSH2 0xDE8 JUMP JUMPDEST PUSH2 0x1159 DUP2 DUP6 PUSH2 0x1133 JUMP JUMPDEST SWAP4 POP PUSH2 0x1169 DUP2 DUP6 PUSH1 0x20 DUP7 ADD PUSH2 0xE04 JUMP JUMPDEST PUSH2 0x1172 DUP2 PUSH2 0xE2E JUMP JUMPDEST DUP5 ADD SWAP2 POP POP SWAP3 SWAP2 POP POP JUMP JUMPDEST PUSH1 0x0 PUSH1 0x80 DUP4 ADD PUSH1 0x0 DUP4 ADD MLOAD PUSH2 0x1195 PUSH1 0x0 DUP7 ADD DUP3 PUSH2 0xEC6 JUMP JUMPDEST POP PUSH1 0x20 DUP4 ADD MLOAD DUP5 DUP3 SUB PUSH1 0x20 DUP7 ADD MSTORE PUSH2 0x11AD DUP3 DUP3 PUSH2 0x1144 JUMP JUMPDEST SWAP2 POP POP PUSH1 0x40 DUP4 ADD MLOAD PUSH2 0x11C2 PUSH1 0x40 DUP7 ADD DUP3 PUSH2 0xEC6 JUMP JUMPDEST POP PUSH1 0x60 DUP4 ADD MLOAD DUP5 DUP3 SUB PUSH1 0x60 DUP7 ADD MSTORE PUSH2 0x11DA DUP3 DUP3 PUSH2 0x1144 JUMP JUMPDEST SWAP2 POP POP DUP1 SWAP2 POP POP SWAP3 SWAP2 POP POP JUMP JUMPDEST PUSH1 0x0 PUSH1 0x60 DUP3 ADD SWAP1 POP DUP2 DUP2 SUB PUSH1 0x0 DUP4 ADD MSTORE PUSH2 0x1201 DUP2 DUP7 PUSH2 0x117D JUMP JUMPDEST SWAP1 POP DUP2 DUP2 SUB PUSH1 0x20 DUP4 ADD MSTORE PUSH2 0x1215 DUP2 DUP6 PUSH2 0x117D JUMP JUMPDEST SWAP1 POP DUP2 DUP2 SUB PUSH1 0x40 DUP4 ADD MSTORE PUSH2 0x1229 DUP2 DUP5 PUSH2 0x117D JUMP JUMPDEST SWAP1 POP SWAP5 SWAP4 POP POP POP POP JUMP JUMPDEST PUSH32 0x4E487B7100000000000000000000000000000000000000000000000000000000 PUSH1 0x0 MSTORE PUSH1 0x12 PUSH1 0x4 MSTORE PUSH1 0x24 PUSH1 0x0 REVERT JUMPDEST PUSH1 0x0 PUSH2 0x126D DUP3 PUSH2 0xD85 JUMP JUMPDEST SWAP2 POP PUSH2 0x1278 DUP4 PUSH2 0xD85 JUMP JUMPDEST SWAP3 POP DUP3 PUSH2 0x1288 JUMPI PUSH2 0x1287 PUSH2 0x1233 JUMP JUMPDEST JUMPDEST DUP3 DUP3 MOD SWAP1 POP SWAP3 SWAP2 POP POP JUMP JUMPDEST PUSH32 0x4E487B7100000000000000000000000000000000000000000000000000000000 PUSH1 0x0 MSTORE PUSH1 0x22 PUSH1 0x4 MSTORE PUSH1 0x24 PUSH1 0x0 REVERT JUMPDEST PUSH1 0x0 PUSH1 0x2 DUP3 DIV SWAP1 POP PUSH1 0x1 DUP3 AND DUP1 PUSH2 0x12DA JUMPI PUSH1 0x7F DUP3 AND SWAP2 POP JUMPDEST PUSH1 0x20 DUP3 LT DUP2 SUB PUSH2 0x12ED JUMPI PUSH2 0x12EC PUSH2 0x1293 JUMP JUMPDEST JUMPDEST POP SWAP2 SWAP1 POP JUMP JUMPDEST PUSH1 0x0 DUP2 SWAP1 POP DUP2 PUSH1 0x0 MSTORE PUSH1 0x20 PUSH1 0x0 KECCAK256 SWAP1 POP SWAP2 SWAP1 POP JUMP JUMPDEST PUSH1 0x0 PUSH1 0x20 PUSH1 0x1F DUP4 ADD DIV SWAP1 POP SWAP2 SWAP1 POP JUMP JUMPDEST PUSH1 0x0 DUP3 DUP3 SHL SWAP1 POP SWAP3 SWAP2 POP POP JUMP JUMPDEST PUSH1 0x0 PUSH1 0x8 DUP4 MUL PUSH2 0x1355 PUSH32 0xFFFFFFFFFFFFFFFFFFFFFFFFFFFFFFFFFFFFFFFFFFFFFFFFFFFFFFFFFFFFFFFF DUP3 PUSH2 0x1318 JUMP JUMPDEST PUSH2 0x135F DUP7 DUP4 PUSH2 0x1318 JUMP JUMPDEST SWAP6 POP DUP1 NOT DUP5 AND SWAP4 POP DUP1 DUP7 AND DUP5 OR SWAP3 POP POP POP SWAP4 SWAP3 POP POP POP JUMP JUMPDEST PUSH1 0x0 DUP2 SWAP1 POP SWAP2 SWAP1 POP JUMP JUMPDEST PUSH1 0x0 PUSH2 0x139C PUSH2 0x1397 PUSH2 0x1392 DUP5 PUSH2 0xD85 JUMP JUMPDEST PUSH2 0x1377 JUMP JUMPDEST PUSH2 0xD85 JUMP JUMPDEST SWAP1 POP SWAP2 SWAP1 POP JUMP JUMPDEST PUSH1 0x0 DUP2 SWAP1 POP SWAP2 SWAP1 POP JUMP JUMPDEST PUSH2 0x13B6 DUP4 PUSH2 0x1381 JUMP JUMPDEST PUSH2 0x13CA PUSH2 0x13C2 DUP3 PUSH2 0x13A3 JUMP JUMPDEST DUP5 DUP5 SLOAD PUSH2 0x1325 JUMP JUMPDEST DUP3 SSTORE POP POP POP POP JUMP JUMPDEST PUSH1 0x0 SWAP1 JUMP JUMPDEST PUSH2 0x13DF PUSH2 0x13D2 JUMP JUMPDEST PUSH2 0x13EA DUP2 DUP5 DUP5 PUSH2 0x13AD JUMP JUMPDEST POP POP POP JUMP JUMPDEST JUMPDEST DUP2 DUP2 LT ISZERO PUSH2 0x140E JUMPI PUSH2 0x1403 PUSH1 0x0 DUP3 PUSH2 0x13D7 JUMP JUMPDEST PUSH1 0x1 DUP2 ADD SWAP1 POP PUSH2 0x13F0 JUMP JUMPDEST POP POP JUMP JUMPDEST PUSH1 0x1F DUP3 GT ISZERO PUSH2 0x1453 JUMPI PUSH2 0x1424 DUP2 PUSH2 0x12F3 JUMP JUMPDEST PUSH2 0x142D DUP5 PUSH2 0x1308 JUMP JUMPDEST DUP2 ADD PUSH1 0x20 DUP6 LT ISZERO PUSH2 0x143C JUMPI DUP2 SWAP1 POP JUMPDEST PUSH2 0x1450 PUSH2 0x1448 DUP6 PUSH2 0x1308 JUMP JUMPDEST DUP4 ADD DUP3 PUSH2 0x13EF JUMP JUMPDEST POP POP JUMPDEST POP POP POP JUMP JUMPDEST PUSH1 0x0 DUP3 DUP3 SHR SWAP1 POP SWAP3 SWAP2 POP POP JUMP JUMPDEST PUSH1 0x0 PUSH2 0x1476 PUSH1 0x0 NOT DUP5 PUSH1 0x8 MUL PUSH2 0x1458 JUMP JUMPDEST NOT DUP1 DUP4 AND SWAP2 POP POP SWAP3 SWAP2 POP POP JUMP JUMPDEST PUSH1 0x0 PUSH2 0x148F DUP4 DUP4 PUSH2 0x1465 JUMP JUMPDEST SWAP2 POP DUP3 PUSH1 0x2 MUL DUP3 OR SWAP1 POP SWAP3 SWAP2 POP POP JUMP JUMPDEST PUSH2 0x14A8 DUP3 PUSH2 0xDE8 JUMP JUMPDEST PUSH8 0xFFFFFFFFFFFFFFFF DUP2 GT ISZERO PUSH2 0x14C1 JUMPI PUSH2 0x14C0 PUSH2 0xF99 JUMP JUMPDEST JUMPDEST PUSH2 0x14CB DUP3 SLOAD PUSH2 0x12C2 JUMP JUMPDEST PUSH2 0x14D6 DUP3 DUP3 DUP6 PUSH2 0x1412 JUMP JUMPDEST PUSH1 0x0 PUSH1 0x20 SWAP1 POP PUSH1 0x1F DUP4 GT PUSH1 0x1 DUP2 EQ PUSH2 0x1509 JUMPI PUSH1 0x0 DUP5 ISZERO PUSH2 0x14F7 JUMPI DUP3 DUP8 ADD MLOAD SWAP1 POP JUMPDEST PUSH2 0x1501 DUP6 DUP3 PUSH2 0x1483 JUMP JUMPDEST DUP7 SSTORE POP PUSH2 0x1569 JUMP JUMPDEST PUSH1 0x1F NOT DUP5 AND PUSH2 0x1517 DUP7 PUSH2 0x12F3 JUMP JUMPDEST PUSH1 0x0 JUMPDEST DUP3 DUP2 LT ISZERO PUSH2 0x153F JUMPI DUP5 DUP10 ADD MLOAD DUP3 SSTORE PUSH1 0x1 DUP3 ADD SWAP2 POP PUSH1 0x20 DUP6 ADD SWAP5 POP PUSH1 0x20 DUP2 ADD SWAP1 POP PUSH2 0x151A JUMP JUMPDEST DUP7 DUP4 LT ISZERO PUSH2 0x155C JUMPI DUP5 DUP10 ADD MLOAD PUSH2 0x1558 PUSH1 0x1F DUP10 AND DUP3 PUSH2 0x1465 JUMP JUMPDEST DUP4 SSTORE POP JUMPDEST PUSH1 0x1 PUSH1 0x2 DUP9 MUL ADD DUP9 SSTORE POP POP POP JUMPDEST POP POP POP POP POP POP JUMP INVALID LOG2 PUSH5 0x6970667358 0x22 SLT KECCAK256 0xCB DUP2 0xC2 0xA7 DUP2 0xD2 0x4E 0xE0 0xA6 0xCC 0x2C DUP14 SHR COINBASE 0xA6 MOD 0xD3 SWAP6 SELFBALANCE 0xA7 0xE4 SLT PUSH19 0xD92DD598CAC64D201164736F6C634300081200 CALLER "
				},
				"gasEstimates": {
					"creation": {
						"codeDepositCost": "1108600",
						"executionCost": "1154",
						"totalCost": "1109754"
					},
					"external": {
						"evenOrOdd(uint256)": "infinite",
						"getEvenAndOdd()": "infinite",
						"getStudents()": "infinite",
						"setAlice(uint256,string,uint256)": "infinite",
						"setBob(uint256,string,uint256)": "infinite",
						"setCharlie(uint256,string,uint256)": "infinite",
						"setGrade(uint256)": "infinite",
						"setGrade2(uint256)": "infinite",
						"ternary(uint256)": "infinite"
					}
				},
				"methodIdentifiers": {
					"evenOrOdd(uint256)": "82ee7780",
					"getEvenAndOdd()": "9c95ff40",
					"getStudents()": "f1d064b3",
					"setAlice(uint256,string,uint256)": "9fec8626",
					"setBob(uint256,string,uint256)": "9db1e7da",
					"setCharlie(uint256,string,uint256)": "ad8364a4",
					"setGrade(uint256)": "674271cd",
					"setGrade2(uint256)": "5e0d84a8",
					"ternary(uint256)": "55278c5b"
				}
			},
			"storageLayout": {
				"storage": [
					{
						"astId": 47,
						"contract": "contracts-lecture/230510-2.sol:IF",
						"label": "even",
						"offset": 0,
						"slot": "0",
						"type": "t_array(t_uint256)dyn_storage"
					},
					{
						"astId": 50,
						"contract": "contracts-lecture/230510-2.sol:IF",
						"label": "odd",
						"offset": 0,
						"slot": "1",
						"type": "t_array(t_uint256)dyn_storage"
					},
					{
						"astId": 93,
						"contract": "contracts-lecture/230510-2.sol:IF",
						"label": "A",
						"offset": 0,
						"slot": "2",
						"type": "t_array(t_uint256)dyn_storage"
					},
					{
						"astId": 96,
						"contract": "contracts-lecture/230510-2.sol:IF",
						"label": "B",
						"offset": 0,
						"slot": "3",
						"type": "t_array(t_uint256)dyn_storage"
					},
					{
						"astId": 99,
						"contract": "contracts-lecture/230510-2.sol:IF",
						"label": "C",
						"offset": 0,
						"slot": "4",
						"type": "t_array(t_uint256)dyn_storage"
					},
					{
						"astId": 150,
						"contract": "contracts-lecture/230510-2.sol:IF",
						"label": "Alice",
						"offset": 0,
						"slot": "5",
						"type": "t_struct(student)147_storage"
					},
					{
						"astId": 153,
						"contract": "contracts-lecture/230510-2.sol:IF",
						"label": "Bob",
						"offset": 0,
						"slot": "9",
						"type": "t_struct(student)147_storage"
					},
					{
						"astId": 156,
						"contract": "contracts-lecture/230510-2.sol:IF",
						"label": "Charlie",
						"offset": 0,
						"slot": "13",
						"type": "t_struct(student)147_storage"
					}
				],
				"types": {
					"t_array(t_uint256)dyn_storage": {
						"base": "t_uint256",
						"encoding": "dynamic_array",
						"label": "uint256[]",
						"numberOfBytes": "32"
					},
					"t_string_storage": {
						"encoding": "bytes",
						"label": "string",
						"numberOfBytes": "32"
					},
					"t_struct(student)147_storage": {
						"encoding": "inplace",
						"label": "struct IF.student",
						"members": [
							{
								"astId": 140,
								"contract": "contracts-lecture/230510-2.sol:IF",
								"label": "number",
								"offset": 0,
								"slot": "0",
								"type": "t_uint256"
							},
							{
								"astId": 142,
								"contract": "contracts-lecture/230510-2.sol:IF",
								"label": "name",
								"offset": 0,
								"slot": "1",
								"type": "t_string_storage"
							},
							{
								"astId": 144,
								"contract": "contracts-lecture/230510-2.sol:IF",
								"label": "score",
								"offset": 0,
								"slot": "2",
								"type": "t_uint256"
							},
							{
								"astId": 146,
								"contract": "contracts-lecture/230510-2.sol:IF",
								"label": "credit",
								"offset": 0,
								"slot": "3",
								"type": "t_string_storage"
							}
						],
						"numberOfBytes": "128"
					},
					"t_uint256": {
						"encoding": "inplace",
						"label": "uint256",
						"numberOfBytes": "32"
					}
				}
			},
			"userdoc": {
				"kind": "user",
				"methods": {},
				"version": 1
			}
		}
	}
}