{
	"contracts-lecture/230510-2.sol": {
		"ENUM3": {
			"abi": [
				{
					"inputs": [],
					"name": "getA",
					"outputs": [
						{
							"internalType": "uint256",
							"name": "",
							"type": "uint256"
						}
					],
					"stateMutability": "view",
					"type": "function"
				},
				{
					"inputs": [],
					"name": "getST",
					"outputs": [
						{
							"internalType": "enum ENUM3.Status",
							"name": "",
							"type": "uint8"
						}
					],
					"stateMutability": "view",
					"type": "function"
				},
				{
					"inputs": [],
					"name": "higher",
					"outputs": [],
					"stateMutability": "nonpayable",
					"type": "function"
				},
				{
					"inputs": [],
					"name": "lower",
					"outputs": [],
					"stateMutability": "nonpayable",
					"type": "function"
				},
				{
					"inputs": [],
					"name": "setA",
					"outputs": [],
					"stateMutability": "nonpayable",
					"type": "function"
				}
			],
			"devdoc": {
				"kind": "dev",
				"methods": {},
				"version": 1
			},
			"evm": {
				"assembly": "    /* \"contracts-lecture/230510-2.sol\":5506:6114  contract ENUM3 {... */\n  mstore(0x40, 0x80)\n    /* \"contracts-lecture/230510-2.sol\":5619:5620  5 */\n  0x05\n    /* \"contracts-lecture/230510-2.sol\":5610:5620  uint a = 5 */\n  0x01\n  sstore\n    /* \"contracts-lecture/230510-2.sol\":5506:6114  contract ENUM3 {... */\n  callvalue\n  dup1\n  iszero\n  tag_1\n  jumpi\n  0x00\n  dup1\n  revert\ntag_1:\n  pop\n  dataSize(sub_0)\n  dup1\n  dataOffset(sub_0)\n  0x00\n  codecopy\n  0x00\n  return\nstop\n\nsub_0: assembly {\n        /* \"contracts-lecture/230510-2.sol\":5506:6114  contract ENUM3 {... */\n      mstore(0x40, 0x80)\n      callvalue\n      dup1\n      iszero\n      tag_1\n      jumpi\n      0x00\n      dup1\n      revert\n    tag_1:\n      pop\n      jumpi(tag_2, lt(calldatasize, 0x04))\n      shr(0xe0, calldataload(0x00))\n      dup1\n      0x1fc376f7\n      eq\n      tag_3\n      jumpi\n      dup1\n      0x3bbaf50e\n      eq\n      tag_4\n      jumpi\n      dup1\n      0xb7b3ebb9\n      eq\n      tag_5\n      jumpi\n      dup1\n      0xb951486d\n      eq\n      tag_6\n      jumpi\n      dup1\n      0xd46300fd\n      eq\n      tag_7\n      jumpi\n    tag_2:\n      0x00\n      dup1\n      revert\n        /* \"contracts-lecture/230510-2.sol\":5766:5962  function setA() public {... */\n    tag_3:\n      tag_8\n      tag_9\n      jump\t// in\n    tag_8:\n      stop\n        /* \"contracts-lecture/230510-2.sol\":6041:6112  function getST() public view returns(Status) {... */\n    tag_4:\n      tag_10\n      tag_11\n      jump\t// in\n    tag_10:\n      mload(0x40)\n      tag_12\n      swap2\n      swap1\n      tag_13\n      jump\t// in\n    tag_12:\n      mload(0x40)\n      dup1\n      swap2\n      sub\n      swap1\n      return\n        /* \"contracts-lecture/230510-2.sol\":5627:5689  function higher() public {... */\n    tag_5:\n      tag_14\n      tag_15\n      jump\t// in\n    tag_14:\n      stop\n        /* \"contracts-lecture/230510-2.sol\":5695:5756  function lower() public {... */\n    tag_6:\n      tag_16\n      tag_17\n      jump\t// in\n    tag_16:\n      stop\n        /* \"contracts-lecture/230510-2.sol\":5968:6035  function getA() public view returns(uint) {... */\n    tag_7:\n      tag_18\n      tag_19\n      jump\t// in\n    tag_18:\n      mload(0x40)\n      tag_20\n      swap2\n      swap1\n      tag_21\n      jump\t// in\n    tag_20:\n      mload(0x40)\n      dup1\n      swap2\n      sub\n      swap1\n      return\n        /* \"contracts-lecture/230510-2.sol\":5766:5962  function setA() public {... */\n    tag_9:\n        /* \"contracts-lecture/230510-2.sol\":5806:5807  7 */\n      0x07\n        /* \"contracts-lecture/230510-2.sol\":5803:5804  a */\n      sload(0x01)\n        /* \"contracts-lecture/230510-2.sol\":5803:5807  a>=7 */\n      lt\n        /* \"contracts-lecture/230510-2.sol\":5799:5956  if (a>=7) {... */\n      tag_23\n      jumpi\n        /* \"contracts-lecture/230510-2.sol\":5828:5839  Status.high */\n      0x01\n        /* \"contracts-lecture/230510-2.sol\":5823:5825  st */\n      0x00\n      dup1\n        /* \"contracts-lecture/230510-2.sol\":5823:5839  st = Status.high */\n      0x0100\n      exp\n      dup2\n      sload\n      dup2\n      0xff\n      mul\n      not\n      and\n      swap1\n      dup4\n      0x02\n      dup2\n      gt\n      iszero\n      tag_24\n      jumpi\n      tag_25\n      tag_26\n      jump\t// in\n    tag_25:\n    tag_24:\n      mul\n      or\n      swap1\n      sstore\n      pop\n        /* \"contracts-lecture/230510-2.sol\":5799:5956  if (a>=7) {... */\n      jump(tag_27)\n    tag_23:\n        /* \"contracts-lecture/230510-2.sol\":5863:5864  3 */\n      0x03\n        /* \"contracts-lecture/230510-2.sol\":5860:5861  a */\n      sload(0x01)\n        /* \"contracts-lecture/230510-2.sol\":5860:5864  a<=3 */\n      gt\n        /* \"contracts-lecture/230510-2.sol\":5856:5956  if (a<=3) {... */\n      tag_28\n      jumpi\n        /* \"contracts-lecture/230510-2.sol\":5885:5895  Status.low */\n      0x02\n        /* \"contracts-lecture/230510-2.sol\":5880:5882  st */\n      0x00\n      dup1\n        /* \"contracts-lecture/230510-2.sol\":5880:5895  st = Status.low */\n      0x0100\n      exp\n      dup2\n      sload\n      dup2\n      0xff\n      mul\n      not\n      and\n      swap1\n      dup4\n      0x02\n      dup2\n      gt\n      iszero\n      tag_29\n      jumpi\n      tag_30\n      tag_26\n      jump\t// in\n    tag_30:\n    tag_29:\n      mul\n      or\n      swap1\n      sstore\n      pop\n        /* \"contracts-lecture/230510-2.sol\":5856:5956  if (a<=3) {... */\n      jump(tag_31)\n    tag_28:\n        /* \"contracts-lecture/230510-2.sol\":5931:5945  Status.neutral */\n      0x00\n        /* \"contracts-lecture/230510-2.sol\":5926:5928  st */\n      dup1\n      0x00\n        /* \"contracts-lecture/230510-2.sol\":5926:5945  st = Status.neutral */\n      0x0100\n      exp\n      dup2\n      sload\n      dup2\n      0xff\n      mul\n      not\n      and\n      swap1\n      dup4\n      0x02\n      dup2\n      gt\n      iszero\n      tag_32\n      jumpi\n      tag_33\n      tag_26\n      jump\t// in\n    tag_33:\n    tag_32:\n      mul\n      or\n      swap1\n      sstore\n      pop\n        /* \"contracts-lecture/230510-2.sol\":5856:5956  if (a<=3) {... */\n    tag_31:\n        /* \"contracts-lecture/230510-2.sol\":5799:5956  if (a>=7) {... */\n    tag_27:\n        /* \"contracts-lecture/230510-2.sol\":5766:5962  function setA() public {... */\n      jump\t// out\n        /* \"contracts-lecture/230510-2.sol\":6041:6112  function getST() public view returns(Status) {... */\n    tag_11:\n        /* \"contracts-lecture/230510-2.sol\":6078:6084  Status */\n      0x00\n        /* \"contracts-lecture/230510-2.sol\":6103:6105  st */\n      dup1\n      0x00\n      swap1\n      sload\n      swap1\n      0x0100\n      exp\n      swap1\n      div\n      0xff\n      and\n        /* \"contracts-lecture/230510-2.sol\":6096:6105  return st */\n      swap1\n      pop\n        /* \"contracts-lecture/230510-2.sol\":6041:6112  function getST() public view returns(Status) {... */\n      swap1\n      jump\t// out\n        /* \"contracts-lecture/230510-2.sol\":5627:5689  function higher() public {... */\n    tag_15:\n        /* \"contracts-lecture/230510-2.sol\":5662:5663  a */\n      0x01\n      0x00\n        /* \"contracts-lecture/230510-2.sol\":5662:5666  a ++ */\n      dup2\n      sload\n      dup1\n      swap3\n      swap2\n      swap1\n      tag_36\n      swap1\n      tag_37\n      jump\t// in\n    tag_36:\n      swap2\n      swap1\n      pop\n      sstore\n      pop\n        /* \"contracts-lecture/230510-2.sol\":5676:5682  setA() */\n      tag_38\n        /* \"contracts-lecture/230510-2.sol\":5676:5680  setA */\n      tag_9\n        /* \"contracts-lecture/230510-2.sol\":5676:5682  setA() */\n      jump\t// in\n    tag_38:\n        /* \"contracts-lecture/230510-2.sol\":5627:5689  function higher() public {... */\n      jump\t// out\n        /* \"contracts-lecture/230510-2.sol\":5695:5756  function lower() public {... */\n    tag_17:\n        /* \"contracts-lecture/230510-2.sol\":5729:5730  a */\n      0x01\n      0x00\n        /* \"contracts-lecture/230510-2.sol\":5729:5733  a -- */\n      dup2\n      sload\n      dup1\n      swap3\n      swap2\n      swap1\n      tag_40\n      swap1\n      tag_41\n      jump\t// in\n    tag_40:\n      swap2\n      swap1\n      pop\n      sstore\n      pop\n        /* \"contracts-lecture/230510-2.sol\":5743:5749  setA() */\n      tag_42\n        /* \"contracts-lecture/230510-2.sol\":5743:5747  setA */\n      tag_9\n        /* \"contracts-lecture/230510-2.sol\":5743:5749  setA() */\n      jump\t// in\n    tag_42:\n        /* \"contracts-lecture/230510-2.sol\":5695:5756  function lower() public {... */\n      jump\t// out\n        /* \"contracts-lecture/230510-2.sol\":5968:6035  function getA() public view returns(uint) {... */\n    tag_19:\n        /* \"contracts-lecture/230510-2.sol\":6004:6008  uint */\n      0x00\n        /* \"contracts-lecture/230510-2.sol\":6027:6028  a */\n      sload(0x01)\n        /* \"contracts-lecture/230510-2.sol\":6020:6028  return a */\n      swap1\n      pop\n        /* \"contracts-lecture/230510-2.sol\":5968:6035  function getA() public view returns(uint) {... */\n      swap1\n      jump\t// out\n        /* \"#utility.yul\":7:187   */\n    tag_26:\n        /* \"#utility.yul\":55:132   */\n      0x4e487b7100000000000000000000000000000000000000000000000000000000\n        /* \"#utility.yul\":52:53   */\n      0x00\n        /* \"#utility.yul\":45:133   */\n      mstore\n        /* \"#utility.yul\":152:156   */\n      0x21\n        /* \"#utility.yul\":149:150   */\n      0x04\n        /* \"#utility.yul\":142:157   */\n      mstore\n        /* \"#utility.yul\":176:180   */\n      0x24\n        /* \"#utility.yul\":173:174   */\n      0x00\n        /* \"#utility.yul\":166:181   */\n      revert\n        /* \"#utility.yul\":193:308   */\n    tag_44:\n        /* \"#utility.yul\":276:277   */\n      0x03\n        /* \"#utility.yul\":269:274   */\n      dup2\n        /* \"#utility.yul\":266:278   */\n      lt\n        /* \"#utility.yul\":256:302   */\n      tag_54\n      jumpi\n        /* \"#utility.yul\":282:300   */\n      tag_55\n      tag_26\n      jump\t// in\n    tag_55:\n        /* \"#utility.yul\":256:302   */\n    tag_54:\n        /* \"#utility.yul\":193:308   */\n      pop\n      jump\t// out\n        /* \"#utility.yul\":314:445   */\n    tag_45:\n        /* \"#utility.yul\":361:368   */\n      0x00\n        /* \"#utility.yul\":390:395   */\n      dup2\n        /* \"#utility.yul\":379:395   */\n      swap1\n      pop\n        /* \"#utility.yul\":396:439   */\n      tag_57\n        /* \"#utility.yul\":433:438   */\n      dup3\n        /* \"#utility.yul\":396:439   */\n      tag_44\n      jump\t// in\n    tag_57:\n        /* \"#utility.yul\":314:445   */\n      swap2\n      swap1\n      pop\n      jump\t// out\n        /* \"#utility.yul\":451:582   */\n    tag_46:\n        /* \"#utility.yul\":509:518   */\n      0x00\n        /* \"#utility.yul\":542:576   */\n      tag_59\n        /* \"#utility.yul\":570:575   */\n      dup3\n        /* \"#utility.yul\":542:576   */\n      tag_45\n      jump\t// in\n    tag_59:\n        /* \"#utility.yul\":529:576   */\n      swap1\n      pop\n        /* \"#utility.yul\":451:582   */\n      swap2\n      swap1\n      pop\n      jump\t// out\n        /* \"#utility.yul\":588:735   */\n    tag_47:\n        /* \"#utility.yul\":683:728   */\n      tag_61\n        /* \"#utility.yul\":722:727   */\n      dup2\n        /* \"#utility.yul\":683:728   */\n      tag_46\n      jump\t// in\n    tag_61:\n        /* \"#utility.yul\":678:681   */\n      dup3\n        /* \"#utility.yul\":671:729   */\n      mstore\n        /* \"#utility.yul\":588:735   */\n      pop\n      pop\n      jump\t// out\n        /* \"#utility.yul\":741:979   */\n    tag_13:\n        /* \"#utility.yul\":842:846   */\n      0x00\n        /* \"#utility.yul\":880:882   */\n      0x20\n        /* \"#utility.yul\":869:878   */\n      dup3\n        /* \"#utility.yul\":865:883   */\n      add\n        /* \"#utility.yul\":857:883   */\n      swap1\n      pop\n        /* \"#utility.yul\":893:972   */\n      tag_63\n        /* \"#utility.yul\":969:970   */\n      0x00\n        /* \"#utility.yul\":958:967   */\n      dup4\n        /* \"#utility.yul\":954:971   */\n      add\n        /* \"#utility.yul\":945:951   */\n      dup5\n        /* \"#utility.yul\":893:972   */\n      tag_47\n      jump\t// in\n    tag_63:\n        /* \"#utility.yul\":741:979   */\n      swap3\n      swap2\n      pop\n      pop\n      jump\t// out\n        /* \"#utility.yul\":985:1062   */\n    tag_48:\n        /* \"#utility.yul\":1022:1029   */\n      0x00\n        /* \"#utility.yul\":1051:1056   */\n      dup2\n        /* \"#utility.yul\":1040:1056   */\n      swap1\n      pop\n        /* \"#utility.yul\":985:1062   */\n      swap2\n      swap1\n      pop\n      jump\t// out\n        /* \"#utility.yul\":1068:1186   */\n    tag_49:\n        /* \"#utility.yul\":1155:1179   */\n      tag_66\n        /* \"#utility.yul\":1173:1178   */\n      dup2\n        /* \"#utility.yul\":1155:1179   */\n      tag_48\n      jump\t// in\n    tag_66:\n        /* \"#utility.yul\":1150:1153   */\n      dup3\n        /* \"#utility.yul\":1143:1180   */\n      mstore\n        /* \"#utility.yul\":1068:1186   */\n      pop\n      pop\n      jump\t// out\n        /* \"#utility.yul\":1192:1414   */\n    tag_21:\n        /* \"#utility.yul\":1285:1289   */\n      0x00\n        /* \"#utility.yul\":1323:1325   */\n      0x20\n        /* \"#utility.yul\":1312:1321   */\n      dup3\n        /* \"#utility.yul\":1308:1326   */\n      add\n        /* \"#utility.yul\":1300:1326   */\n      swap1\n      pop\n        /* \"#utility.yul\":1336:1407   */\n      tag_68\n        /* \"#utility.yul\":1404:1405   */\n      0x00\n        /* \"#utility.yul\":1393:1402   */\n      dup4\n        /* \"#utility.yul\":1389:1406   */\n      add\n        /* \"#utility.yul\":1380:1386   */\n      dup5\n        /* \"#utility.yul\":1336:1407   */\n      tag_49\n      jump\t// in\n    tag_68:\n        /* \"#utility.yul\":1192:1414   */\n      swap3\n      swap2\n      pop\n      pop\n      jump\t// out\n        /* \"#utility.yul\":1420:1600   */\n    tag_50:\n        /* \"#utility.yul\":1468:1545   */\n      0x4e487b7100000000000000000000000000000000000000000000000000000000\n        /* \"#utility.yul\":1465:1466   */\n      0x00\n        /* \"#utility.yul\":1458:1546   */\n      mstore\n        /* \"#utility.yul\":1565:1569   */\n      0x11\n        /* \"#utility.yul\":1562:1563   */\n      0x04\n        /* \"#utility.yul\":1555:1570   */\n      mstore\n        /* \"#utility.yul\":1589:1593   */\n      0x24\n        /* \"#utility.yul\":1586:1587   */\n      0x00\n        /* \"#utility.yul\":1579:1594   */\n      revert\n        /* \"#utility.yul\":1606:1839   */\n    tag_37:\n        /* \"#utility.yul\":1645:1648   */\n      0x00\n        /* \"#utility.yul\":1668:1692   */\n      tag_71\n        /* \"#utility.yul\":1686:1691   */\n      dup3\n        /* \"#utility.yul\":1668:1692   */\n      tag_48\n      jump\t// in\n    tag_71:\n        /* \"#utility.yul\":1659:1692   */\n      swap2\n      pop\n        /* \"#utility.yul\":1714:1780   */\n      0xffffffffffffffffffffffffffffffffffffffffffffffffffffffffffffffff\n        /* \"#utility.yul\":1707:1712   */\n      dup3\n        /* \"#utility.yul\":1704:1781   */\n      sub\n        /* \"#utility.yul\":1701:1804   */\n      tag_72\n      jumpi\n        /* \"#utility.yul\":1784:1802   */\n      tag_73\n      tag_50\n      jump\t// in\n    tag_73:\n        /* \"#utility.yul\":1701:1804   */\n    tag_72:\n        /* \"#utility.yul\":1831:1832   */\n      0x01\n        /* \"#utility.yul\":1824:1829   */\n      dup3\n        /* \"#utility.yul\":1820:1833   */\n      add\n        /* \"#utility.yul\":1813:1833   */\n      swap1\n      pop\n        /* \"#utility.yul\":1606:1839   */\n      swap2\n      swap1\n      pop\n      jump\t// out\n        /* \"#utility.yul\":1845:2016   */\n    tag_41:\n        /* \"#utility.yul\":1884:1887   */\n      0x00\n        /* \"#utility.yul\":1907:1931   */\n      tag_75\n        /* \"#utility.yul\":1925:1930   */\n      dup3\n        /* \"#utility.yul\":1907:1931   */\n      tag_48\n      jump\t// in\n    tag_75:\n        /* \"#utility.yul\":1898:1931   */\n      swap2\n      pop\n        /* \"#utility.yul\":1953:1957   */\n      0x00\n        /* \"#utility.yul\":1946:1951   */\n      dup3\n        /* \"#utility.yul\":1943:1958   */\n      sub\n        /* \"#utility.yul\":1940:1981   */\n      tag_76\n      jumpi\n        /* \"#utility.yul\":1961:1979   */\n      tag_77\n      tag_50\n      jump\t// in\n    tag_77:\n        /* \"#utility.yul\":1940:1981   */\n    tag_76:\n        /* \"#utility.yul\":2008:2009   */\n      0x01\n        /* \"#utility.yul\":2001:2006   */\n      dup3\n        /* \"#utility.yul\":1997:2010   */\n      sub\n        /* \"#utility.yul\":1990:2010   */\n      swap1\n      pop\n        /* \"#utility.yul\":1845:2016   */\n      swap2\n      swap1\n      pop\n      jump\t// out\n\n    auxdata: 0xa26469706673582212208ee85c69d11b24b4ec71e2eff65d56fa3cc4cb823176746dd7ef6c4471dda38b64736f6c63430008120033\n}\n",
				"bytecode": {
					"linkReferences": {},
					"object": "6080604052600560015534801561001557600080fd5b50610356806100256000396000f3fe608060405234801561001057600080fd5b50600436106100575760003560e01c80631fc376f71461005c5780633bbaf50e14610066578063b7b3ebb914610084578063b951486d1461008e578063d46300fd14610098575b600080fd5b6100646100b6565b005b61006e610156565b60405161007b9190610231565b60405180910390f35b61008c61016c565b005b61009661018e565b005b6100a06101b0565b6040516100ad9190610265565b60405180910390f35b6007600154106100ef5760016000806101000a81548160ff021916908360028111156100e5576100e46101ba565b5b0217905550610154565b6003600154116101285760026000806101000a81548160ff0219169083600281111561011e5761011d6101ba565b5b0217905550610153565b60008060006101000a81548160ff0219169083600281111561014d5761014c6101ba565b5b02179055505b5b565b60008060009054906101000a900460ff16905090565b6001600081548092919061017f906102af565b919050555061018c6100b6565b565b600160008154809291906101a1906102f7565b91905055506101ae6100b6565b565b6000600154905090565b7f4e487b7100000000000000000000000000000000000000000000000000000000600052602160045260246000fd5b600381106101fa576101f96101ba565b5b50565b600081905061020b826101e9565b919050565b600061021b826101fd565b9050919050565b61022b81610210565b82525050565b60006020820190506102466000830184610222565b92915050565b6000819050919050565b61025f8161024c565b82525050565b600060208201905061027a6000830184610256565b92915050565b7f4e487b7100000000000000000000000000000000000000000000000000000000600052601160045260246000fd5b60006102ba8261024c565b91507fffffffffffffffffffffffffffffffffffffffffffffffffffffffffffffffff82036102ec576102eb610280565b5b600182019050919050565b60006103028261024c565b91506000820361031557610314610280565b5b60018203905091905056fea26469706673582212208ee85c69d11b24b4ec71e2eff65d56fa3cc4cb823176746dd7ef6c4471dda38b64736f6c63430008120033",
					"opcodes": "PUSH1 0x80 PUSH1 0x40 MSTORE PUSH1 0x5 PUSH1 0x1 SSTORE CALLVALUE DUP1 ISZERO PUSH2 0x15 JUMPI PUSH1 0x0 DUP1 REVERT JUMPDEST POP PUSH2 0x356 DUP1 PUSH2 0x25 PUSH1 0x0 CODECOPY PUSH1 0x0 RETURN INVALID PUSH1 0x80 PUSH1 0x40 MSTORE CALLVALUE DUP1 ISZERO PUSH2 0x10 JUMPI PUSH1 0x0 DUP1 REVERT JUMPDEST POP PUSH1 0x4 CALLDATASIZE LT PUSH2 0x57 JUMPI PUSH1 0x0 CALLDATALOAD PUSH1 0xE0 SHR DUP1 PUSH4 0x1FC376F7 EQ PUSH2 0x5C JUMPI DUP1 PUSH4 0x3BBAF50E EQ PUSH2 0x66 JUMPI DUP1 PUSH4 0xB7B3EBB9 EQ PUSH2 0x84 JUMPI DUP1 PUSH4 0xB951486D EQ PUSH2 0x8E JUMPI DUP1 PUSH4 0xD46300FD EQ PUSH2 0x98 JUMPI JUMPDEST PUSH1 0x0 DUP1 REVERT JUMPDEST PUSH2 0x64 PUSH2 0xB6 JUMP JUMPDEST STOP JUMPDEST PUSH2 0x6E PUSH2 0x156 JUMP JUMPDEST PUSH1 0x40 MLOAD PUSH2 0x7B SWAP2 SWAP1 PUSH2 0x231 JUMP JUMPDEST PUSH1 0x40 MLOAD DUP1 SWAP2 SUB SWAP1 RETURN JUMPDEST PUSH2 0x8C PUSH2 0x16C JUMP JUMPDEST STOP JUMPDEST PUSH2 0x96 PUSH2 0x18E JUMP JUMPDEST STOP JUMPDEST PUSH2 0xA0 PUSH2 0x1B0 JUMP JUMPDEST PUSH1 0x40 MLOAD PUSH2 0xAD SWAP2 SWAP1 PUSH2 0x265 JUMP JUMPDEST PUSH1 0x40 MLOAD DUP1 SWAP2 SUB SWAP1 RETURN JUMPDEST PUSH1 0x7 PUSH1 0x1 SLOAD LT PUSH2 0xEF JUMPI PUSH1 0x1 PUSH1 0x0 DUP1 PUSH2 0x100 EXP DUP2 SLOAD DUP2 PUSH1 0xFF MUL NOT AND SWAP1 DUP4 PUSH1 0x2 DUP2 GT ISZERO PUSH2 0xE5 JUMPI PUSH2 0xE4 PUSH2 0x1BA JUMP JUMPDEST JUMPDEST MUL OR SWAP1 SSTORE POP PUSH2 0x154 JUMP JUMPDEST PUSH1 0x3 PUSH1 0x1 SLOAD GT PUSH2 0x128 JUMPI PUSH1 0x2 PUSH1 0x0 DUP1 PUSH2 0x100 EXP DUP2 SLOAD DUP2 PUSH1 0xFF MUL NOT AND SWAP1 DUP4 PUSH1 0x2 DUP2 GT ISZERO PUSH2 0x11E JUMPI PUSH2 0x11D PUSH2 0x1BA JUMP JUMPDEST JUMPDEST MUL OR SWAP1 SSTORE POP PUSH2 0x153 JUMP JUMPDEST PUSH1 0x0 DUP1 PUSH1 0x0 PUSH2 0x100 EXP DUP2 SLOAD DUP2 PUSH1 0xFF MUL NOT AND SWAP1 DUP4 PUSH1 0x2 DUP2 GT ISZERO PUSH2 0x14D JUMPI PUSH2 0x14C PUSH2 0x1BA JUMP JUMPDEST JUMPDEST MUL OR SWAP1 SSTORE POP JUMPDEST JUMPDEST JUMP JUMPDEST PUSH1 0x0 DUP1 PUSH1 0x0 SWAP1 SLOAD SWAP1 PUSH2 0x100 EXP SWAP1 DIV PUSH1 0xFF AND SWAP1 POP SWAP1 JUMP JUMPDEST PUSH1 0x1 PUSH1 0x0 DUP2 SLOAD DUP1 SWAP3 SWAP2 SWAP1 PUSH2 0x17F SWAP1 PUSH2 0x2AF JUMP JUMPDEST SWAP2 SWAP1 POP SSTORE POP PUSH2 0x18C PUSH2 0xB6 JUMP JUMPDEST JUMP JUMPDEST PUSH1 0x1 PUSH1 0x0 DUP2 SLOAD DUP1 SWAP3 SWAP2 SWAP1 PUSH2 0x1A1 SWAP1 PUSH2 0x2F7 JUMP JUMPDEST SWAP2 SWAP1 POP SSTORE POP PUSH2 0x1AE PUSH2 0xB6 JUMP JUMPDEST JUMP JUMPDEST PUSH1 0x0 PUSH1 0x1 SLOAD SWAP1 POP SWAP1 JUMP JUMPDEST PUSH32 0x4E487B7100000000000000000000000000000000000000000000000000000000 PUSH1 0x0 MSTORE PUSH1 0x21 PUSH1 0x4 MSTORE PUSH1 0x24 PUSH1 0x0 REVERT JUMPDEST PUSH1 0x3 DUP2 LT PUSH2 0x1FA JUMPI PUSH2 0x1F9 PUSH2 0x1BA JUMP JUMPDEST JUMPDEST POP JUMP JUMPDEST PUSH1 0x0 DUP2 SWAP1 POP PUSH2 0x20B DUP3 PUSH2 0x1E9 JUMP JUMPDEST SWAP2 SWAP1 POP JUMP JUMPDEST PUSH1 0x0 PUSH2 0x21B DUP3 PUSH2 0x1FD JUMP JUMPDEST SWAP1 POP SWAP2 SWAP1 POP JUMP JUMPDEST PUSH2 0x22B DUP2 PUSH2 0x210 JUMP JUMPDEST DUP3 MSTORE POP POP JUMP JUMPDEST PUSH1 0x0 PUSH1 0x20 DUP3 ADD SWAP1 POP PUSH2 0x246 PUSH1 0x0 DUP4 ADD DUP5 PUSH2 0x222 JUMP JUMPDEST SWAP3 SWAP2 POP POP JUMP JUMPDEST PUSH1 0x0 DUP2 SWAP1 POP SWAP2 SWAP1 POP JUMP JUMPDEST PUSH2 0x25F DUP2 PUSH2 0x24C JUMP JUMPDEST DUP3 MSTORE POP POP JUMP JUMPDEST PUSH1 0x0 PUSH1 0x20 DUP3 ADD SWAP1 POP PUSH2 0x27A PUSH1 0x0 DUP4 ADD DUP5 PUSH2 0x256 JUMP JUMPDEST SWAP3 SWAP2 POP POP JUMP JUMPDEST PUSH32 0x4E487B7100000000000000000000000000000000000000000000000000000000 PUSH1 0x0 MSTORE PUSH1 0x11 PUSH1 0x4 MSTORE PUSH1 0x24 PUSH1 0x0 REVERT JUMPDEST PUSH1 0x0 PUSH2 0x2BA DUP3 PUSH2 0x24C JUMP JUMPDEST SWAP2 POP PUSH32 0xFFFFFFFFFFFFFFFFFFFFFFFFFFFFFFFFFFFFFFFFFFFFFFFFFFFFFFFFFFFFFFFF DUP3 SUB PUSH2 0x2EC JUMPI PUSH2 0x2EB PUSH2 0x280 JUMP JUMPDEST JUMPDEST PUSH1 0x1 DUP3 ADD SWAP1 POP SWAP2 SWAP1 POP JUMP JUMPDEST PUSH1 0x0 PUSH2 0x302 DUP3 PUSH2 0x24C JUMP JUMPDEST SWAP2 POP PUSH1 0x0 DUP3 SUB PUSH2 0x315 JUMPI PUSH2 0x314 PUSH2 0x280 JUMP JUMPDEST JUMPDEST PUSH1 0x1 DUP3 SUB SWAP1 POP SWAP2 SWAP1 POP JUMP INVALID LOG2 PUSH5 0x6970667358 0x22 SLT KECCAK256 DUP15 0xE8 0x5C PUSH10 0xD11B24B4EC71E2EFF65D JUMP STATICCALL EXTCODECOPY 0xC4 0xCB DUP3 BALANCE PUSH23 0x746DD7EF6C4471DDA38B64736F6C634300081200330000 "
				},
				"gasEstimates": {
					"creation": {
						"codeDepositCost": "170800",
						"executionCost": "22320",
						"totalCost": "193120"
					},
					"external": {
						"getA()": "2503",
						"getST()": "2568",
						"higher()": "53092",
						"lower()": "53114",
						"setA()": "28667"
					}
				},
				"methodIdentifiers": {
					"getA()": "d46300fd",
					"getST()": "3bbaf50e",
					"higher()": "b7b3ebb9",
					"lower()": "b951486d",
					"setA()": "1fc376f7"
				}
			},
			"storageLayout": {
				"storage": [
					{
						"astId": 666,
						"contract": "contracts-lecture/230510-2.sol:ENUM3",
						"label": "st",
						"offset": 0,
						"slot": "0",
						"type": "t_enum(Status)663"
					},
					{
						"astId": 669,
						"contract": "contracts-lecture/230510-2.sol:ENUM3",
						"label": "a",
						"offset": 0,
						"slot": "1",
						"type": "t_uint256"
					}
				],
				"types": {
					"t_enum(Status)663": {
						"encoding": "inplace",
						"label": "enum ENUM3.Status",
						"numberOfBytes": "1"
					},
					"t_uint256": {
						"encoding": "inplace",
						"label": "uint256",
						"numberOfBytes": "32"
					}
				}
			},
			"userdoc": {
				"kind": "user",
				"methods": {},
				"version": 1
			}
		}
	}
}