{
	"contracts-lecture/230508.sol": {
		"note": {
			"abi": [
				{
					"inputs": [],
					"name": "getC",
					"outputs": [
						{
							"components": [
								{
									"internalType": "string",
									"name": "title",
									"type": "string"
								},
								{
									"internalType": "uint256",
									"name": "number",
									"type": "uint256"
								},
								{
									"internalType": "uint256",
									"name": "date",
									"type": "uint256"
								}
							],
							"internalType": "struct note.Class",
							"name": "",
							"type": "tuple"
						}
					],
					"stateMutability": "view",
					"type": "function"
				},
				{
					"inputs": [],
					"name": "getS",
					"outputs": [
						{
							"components": [
								{
									"internalType": "string",
									"name": "name",
									"type": "string"
								},
								{
									"internalType": "uint256",
									"name": "number",
									"type": "uint256"
								},
								{
									"internalType": "uint256",
									"name": "birth",
									"type": "uint256"
								}
							],
							"internalType": "struct note.Student",
							"name": "",
							"type": "tuple"
						}
					],
					"stateMutability": "view",
					"type": "function"
				},
				{
					"inputs": [
						{
							"internalType": "string",
							"name": "_title",
							"type": "string"
						},
						{
							"internalType": "uint256",
							"name": "_number",
							"type": "uint256"
						},
						{
							"internalType": "uint256",
							"name": "_date",
							"type": "uint256"
						}
					],
					"name": "pushClass",
					"outputs": [],
					"stateMutability": "nonpayable",
					"type": "function"
				},
				{
					"inputs": [
						{
							"internalType": "uint256",
							"name": "_a",
							"type": "uint256"
						},
						{
							"internalType": "string",
							"name": "_b",
							"type": "string"
						},
						{
							"internalType": "bytes2",
							"name": "_c",
							"type": "bytes2"
						}
					],
					"name": "pushD",
					"outputs": [],
					"stateMutability": "nonpayable",
					"type": "function"
				},
				{
					"inputs": [
						{
							"internalType": "string",
							"name": "_name",
							"type": "string"
						},
						{
							"internalType": "uint256",
							"name": "_number",
							"type": "uint256"
						},
						{
							"internalType": "uint256",
							"name": "_birth",
							"type": "uint256"
						}
					],
					"name": "pushStudent",
					"outputs": [],
					"stateMutability": "nonpayable",
					"type": "function"
				},
				{
					"inputs": [
						{
							"internalType": "string",
							"name": "_title",
							"type": "string"
						},
						{
							"internalType": "uint256",
							"name": "_number",
							"type": "uint256"
						},
						{
							"internalType": "uint256",
							"name": "_date",
							"type": "uint256"
						}
					],
					"name": "setC",
					"outputs": [],
					"stateMutability": "nonpayable",
					"type": "function"
				},
				{
					"inputs": [
						{
							"internalType": "uint256",
							"name": "_a",
							"type": "uint256"
						},
						{
							"internalType": "string",
							"name": "_b",
							"type": "string"
						},
						{
							"internalType": "bytes2",
							"name": "_c",
							"type": "bytes2"
						}
					],
					"name": "setDD",
					"outputs": [],
					"stateMutability": "nonpayable",
					"type": "function"
				},
				{
					"inputs": [
						{
							"internalType": "string",
							"name": "_name",
							"type": "string"
						},
						{
							"internalType": "uint256",
							"name": "_number",
							"type": "uint256"
						},
						{
							"internalType": "uint256",
							"name": "_birth",
							"type": "uint256"
						}
					],
					"name": "setS",
					"outputs": [],
					"stateMutability": "nonpayable",
					"type": "function"
				}
			],
			"devdoc": {
				"kind": "dev",
				"methods": {},
				"version": 1
			},
			"evm": {
				"assembly": "    /* \"contracts-lecture/230508.sol\":63:2450  contract note {... */\n  mstore(0x40, 0x80)\n  callvalue\n  dup1\n  iszero\n  tag_1\n  jumpi\n  0x00\n  dup1\n  revert\ntag_1:\n  pop\n  dataSize(sub_0)\n  dup1\n  dataOffset(sub_0)\n  0x00\n  codecopy\n  0x00\n  return\nstop\n\nsub_0: assembly {\n        /* \"contracts-lecture/230508.sol\":63:2450  contract note {... */\n      mstore(0x40, 0x80)\n      callvalue\n      dup1\n      iszero\n      tag_1\n      jumpi\n      0x00\n      dup1\n      revert\n    tag_1:\n      pop\n      jumpi(tag_2, lt(calldatasize, 0x04))\n      shr(0xe0, calldataload(0x00))\n      dup1\n      0xcd914def\n      gt\n      tag_11\n      jumpi\n      dup1\n      0xcd914def\n      eq\n      tag_7\n      jumpi\n      dup1\n      0xe93314ab\n      eq\n      tag_8\n      jumpi\n      dup1\n      0xedeb21cf\n      eq\n      tag_9\n      jumpi\n      dup1\n      0xfb49cfbc\n      eq\n      tag_10\n      jumpi\n      jump(tag_2)\n    tag_11:\n      dup1\n      0x1908791c\n      eq\n      tag_3\n      jumpi\n      dup1\n      0x562ca543\n      eq\n      tag_4\n      jumpi\n      dup1\n      0x93dbeaa3\n      eq\n      tag_5\n      jumpi\n      dup1\n      0xa2375d1e\n      eq\n      tag_6\n      jumpi\n    tag_2:\n      0x00\n      dup1\n      revert\n        /* \"contracts-lecture/230508.sol\":2090:2185  function setDD(uint _a, string memory _b, bytes2 _c) public {... */\n    tag_3:\n      tag_12\n      0x04\n      dup1\n      calldatasize\n      sub\n      dup2\n      add\n      swap1\n      tag_13\n      swap2\n      swap1\n      tag_14\n      jump\t// in\n    tag_13:\n      tag_15\n      jump\t// in\n    tag_12:\n      stop\n        /* \"contracts-lecture/230508.sol\":1424:1563  function pushStudent(string memory _name, uint _number, uint _birth) public {... */\n    tag_4:\n      tag_16\n      0x04\n      dup1\n      calldatasize\n      sub\n      dup2\n      add\n      swap1\n      tag_17\n      swap2\n      swap1\n      tag_18\n      jump\t// in\n    tag_17:\n      tag_19\n      jump\t// in\n    tag_16:\n      stop\n        /* \"contracts-lecture/230508.sol\":747:866  function setC(string memory _title, uint _number, uint _date) public {... */\n    tag_5:\n      tag_20\n      0x04\n      dup1\n      calldatasize\n      sub\n      dup2\n      add\n      swap1\n      tag_21\n      swap2\n      swap1\n      tag_18\n      jump\t// in\n    tag_21:\n      tag_22\n      jump\t// in\n    tag_20:\n      stop\n        /* \"contracts-lecture/230508.sol\":1074:1149  function getC() public view returns(Class memory) {... */\n    tag_6:\n      tag_23\n      tag_24\n      jump\t// in\n    tag_23:\n      mload(0x40)\n      tag_25\n      swap2\n      swap1\n      tag_26\n      jump\t// in\n    tag_25:\n      mload(0x40)\n      dup1\n      swap2\n      sub\n      swap1\n      return\n        /* \"contracts-lecture/230508.sol\":2349:2448  function pushD(uint _a, string memory _b, bytes2 _c) public {... */\n    tag_7:\n      tag_27\n      0x04\n      dup1\n      calldatasize\n      sub\n      dup2\n      add\n      swap1\n      tag_28\n      swap2\n      swap1\n      tag_14\n      jump\t// in\n    tag_28:\n      tag_29\n      jump\t// in\n    tag_27:\n      stop\n        /* \"contracts-lecture/230508.sol\":991:1068  function getS() public view returns(Student memory) {... */\n    tag_8:\n      tag_30\n      tag_31\n      jump\t// in\n    tag_30:\n      mload(0x40)\n      tag_32\n      swap2\n      swap1\n      tag_33\n      jump\t// in\n    tag_32:\n      mload(0x40)\n      dup1\n      swap2\n      sub\n      swap1\n      return\n        /* \"contracts-lecture/230508.sol\":1651:1785  function pushClass(string memory _title, uint _number, uint _date) public {... */\n    tag_9:\n      tag_34\n      0x04\n      dup1\n      calldatasize\n      sub\n      dup2\n      add\n      swap1\n      tag_35\n      swap2\n      swap1\n      tag_18\n      jump\t// in\n    tag_35:\n      tag_36\n      jump\t// in\n    tag_34:\n      stop\n        /* \"contracts-lecture/230508.sol\":620:741  function setS(string memory _name, uint _number, uint _birth) public {... */\n    tag_10:\n      tag_37\n      0x04\n      dup1\n      calldatasize\n      sub\n      dup2\n      add\n      swap1\n      tag_38\n      swap2\n      swap1\n      tag_18\n      jump\t// in\n    tag_38:\n      tag_39\n      jump\t// in\n    tag_37:\n      stop\n        /* \"contracts-lecture/230508.sol\":2090:2185  function setDD(uint _a, string memory _b, bytes2 _c) public {... */\n    tag_15:\n        /* \"contracts-lecture/230508.sol\":2165:2178  D(_a, _b, _c) */\n      mload(0x40)\n      dup1\n      0x60\n      add\n      0x40\n      mstore\n      dup1\n        /* \"contracts-lecture/230508.sol\":2167:2169  _a */\n      dup5\n        /* \"contracts-lecture/230508.sol\":2165:2178  D(_a, _b, _c) */\n      dup2\n      mstore\n      0x20\n      add\n        /* \"contracts-lecture/230508.sol\":2171:2173  _b */\n      dup4\n        /* \"contracts-lecture/230508.sol\":2165:2178  D(_a, _b, _c) */\n      dup2\n      mstore\n      0x20\n      add\n        /* \"contracts-lecture/230508.sol\":2175:2177  _c */\n      dup3\n        /* \"contracts-lecture/230508.sol\":2165:2178  D(_a, _b, _c) */\n      not(0xffffffffffffffffffffffffffffffffffffffffffffffffffffffffffff)\n      and\n      dup2\n      mstore\n      pop\n        /* \"contracts-lecture/230508.sol\":2160:2162  dd */\n      0x08\n        /* \"contracts-lecture/230508.sol\":2160:2178  dd = D(_a, _b, _c) */\n      0x00\n      dup3\n      add\n      mload\n      dup2\n      0x00\n      add\n      sstore\n      0x20\n      dup3\n      add\n      mload\n      dup2\n      0x01\n      add\n      swap1\n      dup2\n      tag_41\n      swap2\n      swap1\n      tag_42\n      jump\t// in\n    tag_41:\n      pop\n      0x40\n      dup3\n      add\n      mload\n      dup2\n      0x02\n      add\n      exp(0x0100, 0x00)\n      dup2\n      sload\n      dup2\n      0xffff\n      mul\n      not\n      and\n      swap1\n      dup4\n      0xf0\n      shr\n      mul\n      or\n      swap1\n      sstore\n      pop\n      swap1\n      pop\n      pop\n        /* \"contracts-lecture/230508.sol\":2090:2185  function setDD(uint _a, string memory _b, bytes2 _c) public {... */\n      pop\n      pop\n      pop\n      jump\t// out\n        /* \"contracts-lecture/230508.sol\":1424:1563  function pushStudent(string memory _name, uint _number, uint _birth) public {... */\n    tag_19:\n        /* \"contracts-lecture/230508.sol\":1510:1518  students */\n      0x06\n        /* \"contracts-lecture/230508.sol\":1524:1555  Student(_name, _number, _birth) */\n      mload(0x40)\n      dup1\n      0x60\n      add\n      0x40\n      mstore\n      dup1\n        /* \"contracts-lecture/230508.sol\":1532:1537  _name */\n      dup6\n        /* \"contracts-lecture/230508.sol\":1524:1555  Student(_name, _number, _birth) */\n      dup2\n      mstore\n      0x20\n      add\n        /* \"contracts-lecture/230508.sol\":1539:1546  _number */\n      dup5\n        /* \"contracts-lecture/230508.sol\":1524:1555  Student(_name, _number, _birth) */\n      dup2\n      mstore\n      0x20\n      add\n        /* \"contracts-lecture/230508.sol\":1548:1554  _birth */\n      dup4\n        /* \"contracts-lecture/230508.sol\":1524:1555  Student(_name, _number, _birth) */\n      dup2\n      mstore\n      pop\n        /* \"contracts-lecture/230508.sol\":1510:1556  students.push(Student(_name, _number, _birth)) */\n      swap1\n      dup1\n      0x01\n      dup2\n      sload\n      add\n      dup1\n      dup3\n      sstore\n      dup1\n      swap2\n      pop\n      pop\n      0x01\n      swap1\n      sub\n      swap1\n      0x00\n      mstore\n      keccak256(0x00, 0x20)\n      swap1\n      0x03\n      mul\n      add\n      0x00\n      swap1\n      swap2\n      swap1\n      swap2\n      swap1\n      swap2\n      pop\n      0x00\n      dup3\n      add\n      mload\n      dup2\n      0x00\n      add\n      swap1\n      dup2\n      tag_45\n      swap2\n      swap1\n      tag_42\n      jump\t// in\n    tag_45:\n      pop\n      0x20\n      dup3\n      add\n      mload\n      dup2\n      0x01\n      add\n      sstore\n      0x40\n      dup3\n      add\n      mload\n      dup2\n      0x02\n      add\n      sstore\n      pop\n      pop\n        /* \"contracts-lecture/230508.sol\":1424:1563  function pushStudent(string memory _name, uint _number, uint _birth) public {... */\n      pop\n      pop\n      pop\n      jump\t// out\n        /* \"contracts-lecture/230508.sol\":747:866  function setC(string memory _title, uint _number, uint _date) public {... */\n    tag_22:\n        /* \"contracts-lecture/230508.sol\":830:859  Class(_title, _number, _date) */\n      mload(0x40)\n      dup1\n      0x60\n      add\n      0x40\n      mstore\n      dup1\n        /* \"contracts-lecture/230508.sol\":836:842  _title */\n      dup5\n        /* \"contracts-lecture/230508.sol\":830:859  Class(_title, _number, _date) */\n      dup2\n      mstore\n      0x20\n      add\n        /* \"contracts-lecture/230508.sol\":844:851  _number */\n      dup4\n        /* \"contracts-lecture/230508.sol\":830:859  Class(_title, _number, _date) */\n      dup2\n      mstore\n      0x20\n      add\n        /* \"contracts-lecture/230508.sol\":853:858  _date */\n      dup3\n        /* \"contracts-lecture/230508.sol\":830:859  Class(_title, _number, _date) */\n      dup2\n      mstore\n      pop\n        /* \"contracts-lecture/230508.sol\":826:827  c */\n      0x03\n        /* \"contracts-lecture/230508.sol\":826:859  c = Class(_title, _number, _date) */\n      0x00\n      dup3\n      add\n      mload\n      dup2\n      0x00\n      add\n      swap1\n      dup2\n      tag_47\n      swap2\n      swap1\n      tag_42\n      jump\t// in\n    tag_47:\n      pop\n      0x20\n      dup3\n      add\n      mload\n      dup2\n      0x01\n      add\n      sstore\n      0x40\n      dup3\n      add\n      mload\n      dup2\n      0x02\n      add\n      sstore\n      swap1\n      pop\n      pop\n        /* \"contracts-lecture/230508.sol\":747:866  function setC(string memory _title, uint _number, uint _date) public {... */\n      pop\n      pop\n      pop\n      jump\t// out\n        /* \"contracts-lecture/230508.sol\":1074:1149  function getC() public view returns(Class memory) {... */\n    tag_24:\n        /* \"contracts-lecture/230508.sol\":1110:1122  Class memory */\n      tag_48\n      tag_49\n      jump\t// in\n    tag_48:\n        /* \"contracts-lecture/230508.sol\":1141:1142  c */\n      0x03\n        /* \"contracts-lecture/230508.sol\":1134:1142  return c */\n      mload(0x40)\n      dup1\n      0x60\n      add\n      0x40\n      mstore\n      swap1\n      dup2\n      0x00\n      dup3\n      add\n      dup1\n      sload\n      tag_51\n      swap1\n      tag_52\n      jump\t// in\n    tag_51:\n      dup1\n      0x1f\n      add\n      0x20\n      dup1\n      swap2\n      div\n      mul\n      0x20\n      add\n      mload(0x40)\n      swap1\n      dup2\n      add\n      0x40\n      mstore\n      dup1\n      swap3\n      swap2\n      swap1\n      dup2\n      dup2\n      mstore\n      0x20\n      add\n      dup3\n      dup1\n      sload\n      tag_53\n      swap1\n      tag_52\n      jump\t// in\n    tag_53:\n      dup1\n      iszero\n      tag_54\n      jumpi\n      dup1\n      0x1f\n      lt\n      tag_55\n      jumpi\n      0x0100\n      dup1\n      dup4\n      sload\n      div\n      mul\n      dup4\n      mstore\n      swap2\n      0x20\n      add\n      swap2\n      jump(tag_54)\n    tag_55:\n      dup3\n      add\n      swap2\n      swap1\n      0x00\n      mstore\n      keccak256(0x00, 0x20)\n      swap1\n    tag_56:\n      dup2\n      sload\n      dup2\n      mstore\n      swap1\n      0x01\n      add\n      swap1\n      0x20\n      add\n      dup1\n      dup4\n      gt\n      tag_56\n      jumpi\n      dup3\n      swap1\n      sub\n      0x1f\n      and\n      dup3\n      add\n      swap2\n    tag_54:\n      pop\n      pop\n      pop\n      pop\n      pop\n      dup2\n      mstore\n      0x20\n      add\n      0x01\n      dup3\n      add\n      sload\n      dup2\n      mstore\n      0x20\n      add\n      0x02\n      dup3\n      add\n      sload\n      dup2\n      mstore\n      pop\n      pop\n      swap1\n      pop\n        /* \"contracts-lecture/230508.sol\":1074:1149  function getC() public view returns(Class memory) {... */\n      swap1\n      jump\t// out\n        /* \"contracts-lecture/230508.sol\":2349:2448  function pushD(uint _a, string memory _b, bytes2 _c) public {... */\n    tag_29:\n        /* \"contracts-lecture/230508.sol\":2419:2421  Ds */\n      0x0b\n        /* \"contracts-lecture/230508.sol\":2427:2440  D(_a, _b, _c) */\n      mload(0x40)\n      dup1\n      0x60\n      add\n      0x40\n      mstore\n      dup1\n        /* \"contracts-lecture/230508.sol\":2429:2431  _a */\n      dup6\n        /* \"contracts-lecture/230508.sol\":2427:2440  D(_a, _b, _c) */\n      dup2\n      mstore\n      0x20\n      add\n        /* \"contracts-lecture/230508.sol\":2433:2435  _b */\n      dup5\n        /* \"contracts-lecture/230508.sol\":2427:2440  D(_a, _b, _c) */\n      dup2\n      mstore\n      0x20\n      add\n        /* \"contracts-lecture/230508.sol\":2437:2439  _c */\n      dup4\n        /* \"contracts-lecture/230508.sol\":2427:2440  D(_a, _b, _c) */\n      not(0xffffffffffffffffffffffffffffffffffffffffffffffffffffffffffff)\n      and\n      dup2\n      mstore\n      pop\n        /* \"contracts-lecture/230508.sol\":2419:2441  Ds.push(D(_a, _b, _c)) */\n      swap1\n      dup1\n      0x01\n      dup2\n      sload\n      add\n      dup1\n      dup3\n      sstore\n      dup1\n      swap2\n      pop\n      pop\n      0x01\n      swap1\n      sub\n      swap1\n      0x00\n      mstore\n      keccak256(0x00, 0x20)\n      swap1\n      0x03\n      mul\n      add\n      0x00\n      swap1\n      swap2\n      swap1\n      swap2\n      swap1\n      swap2\n      pop\n      0x00\n      dup3\n      add\n      mload\n      dup2\n      0x00\n      add\n      sstore\n      0x20\n      dup3\n      add\n      mload\n      dup2\n      0x01\n      add\n      swap1\n      dup2\n      tag_59\n      swap2\n      swap1\n      tag_42\n      jump\t// in\n    tag_59:\n      pop\n      0x40\n      dup3\n      add\n      mload\n      dup2\n      0x02\n      add\n      exp(0x0100, 0x00)\n      dup2\n      sload\n      dup2\n      0xffff\n      mul\n      not\n      and\n      swap1\n      dup4\n      0xf0\n      shr\n      mul\n      or\n      swap1\n      sstore\n      pop\n      pop\n      pop\n        /* \"contracts-lecture/230508.sol\":2349:2448  function pushD(uint _a, string memory _b, bytes2 _c) public {... */\n      pop\n      pop\n      pop\n      jump\t// out\n        /* \"contracts-lecture/230508.sol\":991:1068  function getS() public view returns(Student memory) {... */\n    tag_31:\n        /* \"contracts-lecture/230508.sol\":1027:1041  Student memory */\n      tag_60\n      tag_61\n      jump\t// in\n    tag_60:\n        /* \"contracts-lecture/230508.sol\":1060:1061  s */\n      0x00\n        /* \"contracts-lecture/230508.sol\":1053:1061  return s */\n      mload(0x40)\n      dup1\n      0x60\n      add\n      0x40\n      mstore\n      swap1\n      dup2\n      0x00\n      dup3\n      add\n      dup1\n      sload\n      tag_63\n      swap1\n      tag_52\n      jump\t// in\n    tag_63:\n      dup1\n      0x1f\n      add\n      0x20\n      dup1\n      swap2\n      div\n      mul\n      0x20\n      add\n      mload(0x40)\n      swap1\n      dup2\n      add\n      0x40\n      mstore\n      dup1\n      swap3\n      swap2\n      swap1\n      dup2\n      dup2\n      mstore\n      0x20\n      add\n      dup3\n      dup1\n      sload\n      tag_64\n      swap1\n      tag_52\n      jump\t// in\n    tag_64:\n      dup1\n      iszero\n      tag_65\n      jumpi\n      dup1\n      0x1f\n      lt\n      tag_66\n      jumpi\n      0x0100\n      dup1\n      dup4\n      sload\n      div\n      mul\n      dup4\n      mstore\n      swap2\n      0x20\n      add\n      swap2\n      jump(tag_65)\n    tag_66:\n      dup3\n      add\n      swap2\n      swap1\n      0x00\n      mstore\n      keccak256(0x00, 0x20)\n      swap1\n    tag_67:\n      dup2\n      sload\n      dup2\n      mstore\n      swap1\n      0x01\n      add\n      swap1\n      0x20\n      add\n      dup1\n      dup4\n      gt\n      tag_67\n      jumpi\n      dup3\n      swap1\n      sub\n      0x1f\n      and\n      dup3\n      add\n      swap2\n    tag_65:\n      pop\n      pop\n      pop\n      pop\n      pop\n      dup2\n      mstore\n      0x20\n      add\n      0x01\n      dup3\n      add\n      sload\n      dup2\n      mstore\n      0x20\n      add\n      0x02\n      dup3\n      add\n      sload\n      dup2\n      mstore\n      pop\n      pop\n      swap1\n      pop\n        /* \"contracts-lecture/230508.sol\":991:1068  function getS() public view returns(Student memory) {... */\n      swap1\n      jump\t// out\n        /* \"contracts-lecture/230508.sol\":1651:1785  function pushClass(string memory _title, uint _number, uint _date) public {... */\n    tag_36:\n        /* \"contracts-lecture/230508.sol\":1735:1742  classes */\n      0x07\n        /* \"contracts-lecture/230508.sol\":1748:1777  Class(_title, _number, _date) */\n      mload(0x40)\n      dup1\n      0x60\n      add\n      0x40\n      mstore\n      dup1\n        /* \"contracts-lecture/230508.sol\":1754:1760  _title */\n      dup6\n        /* \"contracts-lecture/230508.sol\":1748:1777  Class(_title, _number, _date) */\n      dup2\n      mstore\n      0x20\n      add\n        /* \"contracts-lecture/230508.sol\":1762:1769  _number */\n      dup5\n        /* \"contracts-lecture/230508.sol\":1748:1777  Class(_title, _number, _date) */\n      dup2\n      mstore\n      0x20\n      add\n        /* \"contracts-lecture/230508.sol\":1771:1776  _date */\n      dup4\n        /* \"contracts-lecture/230508.sol\":1748:1777  Class(_title, _number, _date) */\n      dup2\n      mstore\n      pop\n        /* \"contracts-lecture/230508.sol\":1735:1778  classes.push(Class(_title, _number, _date)) */\n      swap1\n      dup1\n      0x01\n      dup2\n      sload\n      add\n      dup1\n      dup3\n      sstore\n      dup1\n      swap2\n      pop\n      pop\n      0x01\n      swap1\n      sub\n      swap1\n      0x00\n      mstore\n      keccak256(0x00, 0x20)\n      swap1\n      0x03\n      mul\n      add\n      0x00\n      swap1\n      swap2\n      swap1\n      swap2\n      swap1\n      swap2\n      pop\n      0x00\n      dup3\n      add\n      mload\n      dup2\n      0x00\n      add\n      swap1\n      dup2\n      tag_70\n      swap2\n      swap1\n      tag_42\n      jump\t// in\n    tag_70:\n      pop\n      0x20\n      dup3\n      add\n      mload\n      dup2\n      0x01\n      add\n      sstore\n      0x40\n      dup3\n      add\n      mload\n      dup2\n      0x02\n      add\n      sstore\n      pop\n      pop\n        /* \"contracts-lecture/230508.sol\":1651:1785  function pushClass(string memory _title, uint _number, uint _date) public {... */\n      pop\n      pop\n      pop\n      jump\t// out\n        /* \"contracts-lecture/230508.sol\":620:741  function setS(string memory _name, uint _number, uint _birth) public {... */\n    tag_39:\n        /* \"contracts-lecture/230508.sol\":703:734  Student(_name, _number, _birth) */\n      mload(0x40)\n      dup1\n      0x60\n      add\n      0x40\n      mstore\n      dup1\n        /* \"contracts-lecture/230508.sol\":711:716  _name */\n      dup5\n        /* \"contracts-lecture/230508.sol\":703:734  Student(_name, _number, _birth) */\n      dup2\n      mstore\n      0x20\n      add\n        /* \"contracts-lecture/230508.sol\":718:725  _number */\n      dup4\n        /* \"contracts-lecture/230508.sol\":703:734  Student(_name, _number, _birth) */\n      dup2\n      mstore\n      0x20\n      add\n        /* \"contracts-lecture/230508.sol\":727:733  _birth */\n      dup3\n        /* \"contracts-lecture/230508.sol\":703:734  Student(_name, _number, _birth) */\n      dup2\n      mstore\n      pop\n        /* \"contracts-lecture/230508.sol\":699:700  s */\n      0x00\n        /* \"contracts-lecture/230508.sol\":699:734  s = Student(_name, _number, _birth) */\n      dup1\n      dup3\n      add\n      mload\n      dup2\n      0x00\n      add\n      swap1\n      dup2\n      tag_72\n      swap2\n      swap1\n      tag_42\n      jump\t// in\n    tag_72:\n      pop\n      0x20\n      dup3\n      add\n      mload\n      dup2\n      0x01\n      add\n      sstore\n      0x40\n      dup3\n      add\n      mload\n      dup2\n      0x02\n      add\n      sstore\n      swap1\n      pop\n      pop\n        /* \"contracts-lecture/230508.sol\":620:741  function setS(string memory _name, uint _number, uint _birth) public {... */\n      pop\n      pop\n      pop\n      jump\t// out\n    tag_49:\n      mload(0x40)\n      dup1\n      0x60\n      add\n      0x40\n      mstore\n      dup1\n      0x60\n      dup2\n      mstore\n      0x20\n      add\n      0x00\n      dup2\n      mstore\n      0x20\n      add\n      0x00\n      dup2\n      mstore\n      pop\n      swap1\n      jump\t// out\n    tag_61:\n      mload(0x40)\n      dup1\n      0x60\n      add\n      0x40\n      mstore\n      dup1\n      0x60\n      dup2\n      mstore\n      0x20\n      add\n      0x00\n      dup2\n      mstore\n      0x20\n      add\n      0x00\n      dup2\n      mstore\n      pop\n      swap1\n      jump\t// out\n        /* \"#utility.yul\":7:82   */\n    tag_73:\n        /* \"#utility.yul\":40:46   */\n      0x00\n        /* \"#utility.yul\":73:75   */\n      0x40\n        /* \"#utility.yul\":67:76   */\n      mload\n        /* \"#utility.yul\":57:76   */\n      swap1\n      pop\n        /* \"#utility.yul\":7:82   */\n      swap1\n      jump\t// out\n        /* \"#utility.yul\":88:205   */\n    tag_74:\n        /* \"#utility.yul\":197:198   */\n      0x00\n        /* \"#utility.yul\":194:195   */\n      dup1\n        /* \"#utility.yul\":187:199   */\n      revert\n        /* \"#utility.yul\":211:328   */\n    tag_75:\n        /* \"#utility.yul\":320:321   */\n      0x00\n        /* \"#utility.yul\":317:318   */\n      dup1\n        /* \"#utility.yul\":310:322   */\n      revert\n        /* \"#utility.yul\":334:411   */\n    tag_76:\n        /* \"#utility.yul\":371:378   */\n      0x00\n        /* \"#utility.yul\":400:405   */\n      dup2\n        /* \"#utility.yul\":389:405   */\n      swap1\n      pop\n        /* \"#utility.yul\":334:411   */\n      swap2\n      swap1\n      pop\n      jump\t// out\n        /* \"#utility.yul\":417:539   */\n    tag_77:\n        /* \"#utility.yul\":490:514   */\n      tag_121\n        /* \"#utility.yul\":508:513   */\n      dup2\n        /* \"#utility.yul\":490:514   */\n      tag_76\n      jump\t// in\n    tag_121:\n        /* \"#utility.yul\":483:488   */\n      dup2\n        /* \"#utility.yul\":480:515   */\n      eq\n        /* \"#utility.yul\":470:533   */\n      tag_122\n      jumpi\n        /* \"#utility.yul\":529:530   */\n      0x00\n        /* \"#utility.yul\":526:527   */\n      dup1\n        /* \"#utility.yul\":519:531   */\n      revert\n        /* \"#utility.yul\":470:533   */\n    tag_122:\n        /* \"#utility.yul\":417:539   */\n      pop\n      jump\t// out\n        /* \"#utility.yul\":545:684   */\n    tag_78:\n        /* \"#utility.yul\":591:596   */\n      0x00\n        /* \"#utility.yul\":629:635   */\n      dup2\n        /* \"#utility.yul\":616:636   */\n      calldataload\n        /* \"#utility.yul\":607:636   */\n      swap1\n      pop\n        /* \"#utility.yul\":645:678   */\n      tag_124\n        /* \"#utility.yul\":672:677   */\n      dup2\n        /* \"#utility.yul\":645:678   */\n      tag_77\n      jump\t// in\n    tag_124:\n        /* \"#utility.yul\":545:684   */\n      swap3\n      swap2\n      pop\n      pop\n      jump\t// out\n        /* \"#utility.yul\":690:807   */\n    tag_79:\n        /* \"#utility.yul\":799:800   */\n      0x00\n        /* \"#utility.yul\":796:797   */\n      dup1\n        /* \"#utility.yul\":789:801   */\n      revert\n        /* \"#utility.yul\":813:930   */\n    tag_80:\n        /* \"#utility.yul\":922:923   */\n      0x00\n        /* \"#utility.yul\":919:920   */\n      dup1\n        /* \"#utility.yul\":912:924   */\n      revert\n        /* \"#utility.yul\":936:1038   */\n    tag_81:\n        /* \"#utility.yul\":977:983   */\n      0x00\n        /* \"#utility.yul\":1028:1030   */\n      0x1f\n        /* \"#utility.yul\":1024:1031   */\n      not\n        /* \"#utility.yul\":1019:1021   */\n      0x1f\n        /* \"#utility.yul\":1012:1017   */\n      dup4\n        /* \"#utility.yul\":1008:1022   */\n      add\n        /* \"#utility.yul\":1004:1032   */\n      and\n        /* \"#utility.yul\":994:1032   */\n      swap1\n      pop\n        /* \"#utility.yul\":936:1038   */\n      swap2\n      swap1\n      pop\n      jump\t// out\n        /* \"#utility.yul\":1044:1224   */\n    tag_82:\n        /* \"#utility.yul\":1092:1169   */\n      0x4e487b7100000000000000000000000000000000000000000000000000000000\n        /* \"#utility.yul\":1089:1090   */\n      0x00\n        /* \"#utility.yul\":1082:1170   */\n      mstore\n        /* \"#utility.yul\":1189:1193   */\n      0x41\n        /* \"#utility.yul\":1186:1187   */\n      0x04\n        /* \"#utility.yul\":1179:1194   */\n      mstore\n        /* \"#utility.yul\":1213:1217   */\n      0x24\n        /* \"#utility.yul\":1210:1211   */\n      0x00\n        /* \"#utility.yul\":1203:1218   */\n      revert\n        /* \"#utility.yul\":1230:1511   */\n    tag_83:\n        /* \"#utility.yul\":1313:1340   */\n      tag_130\n        /* \"#utility.yul\":1335:1339   */\n      dup3\n        /* \"#utility.yul\":1313:1340   */\n      tag_81\n      jump\t// in\n    tag_130:\n        /* \"#utility.yul\":1305:1311   */\n      dup2\n        /* \"#utility.yul\":1301:1341   */\n      add\n        /* \"#utility.yul\":1443:1449   */\n      dup2\n        /* \"#utility.yul\":1431:1441   */\n      dup2\n        /* \"#utility.yul\":1428:1450   */\n      lt\n        /* \"#utility.yul\":1407:1425   */\n      0xffffffffffffffff\n        /* \"#utility.yul\":1395:1405   */\n      dup3\n        /* \"#utility.yul\":1392:1426   */\n      gt\n        /* \"#utility.yul\":1389:1451   */\n      or\n        /* \"#utility.yul\":1386:1474   */\n      iszero\n      tag_131\n      jumpi\n        /* \"#utility.yul\":1454:1472   */\n      tag_132\n      tag_82\n      jump\t// in\n    tag_132:\n        /* \"#utility.yul\":1386:1474   */\n    tag_131:\n        /* \"#utility.yul\":1494:1504   */\n      dup1\n        /* \"#utility.yul\":1490:1492   */\n      0x40\n        /* \"#utility.yul\":1483:1505   */\n      mstore\n        /* \"#utility.yul\":1273:1511   */\n      pop\n        /* \"#utility.yul\":1230:1511   */\n      pop\n      pop\n      jump\t// out\n        /* \"#utility.yul\":1517:1646   */\n    tag_84:\n        /* \"#utility.yul\":1551:1557   */\n      0x00\n        /* \"#utility.yul\":1578:1598   */\n      tag_134\n      tag_73\n      jump\t// in\n    tag_134:\n        /* \"#utility.yul\":1568:1598   */\n      swap1\n      pop\n        /* \"#utility.yul\":1607:1640   */\n      tag_135\n        /* \"#utility.yul\":1635:1639   */\n      dup3\n        /* \"#utility.yul\":1627:1633   */\n      dup3\n        /* \"#utility.yul\":1607:1640   */\n      tag_83\n      jump\t// in\n    tag_135:\n        /* \"#utility.yul\":1517:1646   */\n      swap2\n      swap1\n      pop\n      jump\t// out\n        /* \"#utility.yul\":1652:1960   */\n    tag_85:\n        /* \"#utility.yul\":1714:1718   */\n      0x00\n        /* \"#utility.yul\":1804:1822   */\n      0xffffffffffffffff\n        /* \"#utility.yul\":1796:1802   */\n      dup3\n        /* \"#utility.yul\":1793:1823   */\n      gt\n        /* \"#utility.yul\":1790:1846   */\n      iszero\n      tag_137\n      jumpi\n        /* \"#utility.yul\":1826:1844   */\n      tag_138\n      tag_82\n      jump\t// in\n    tag_138:\n        /* \"#utility.yul\":1790:1846   */\n    tag_137:\n        /* \"#utility.yul\":1864:1893   */\n      tag_139\n        /* \"#utility.yul\":1886:1892   */\n      dup3\n        /* \"#utility.yul\":1864:1893   */\n      tag_81\n      jump\t// in\n    tag_139:\n        /* \"#utility.yul\":1856:1893   */\n      swap1\n      pop\n        /* \"#utility.yul\":1948:1952   */\n      0x20\n        /* \"#utility.yul\":1942:1946   */\n      dup2\n        /* \"#utility.yul\":1938:1953   */\n      add\n        /* \"#utility.yul\":1930:1953   */\n      swap1\n      pop\n        /* \"#utility.yul\":1652:1960   */\n      swap2\n      swap1\n      pop\n      jump\t// out\n        /* \"#utility.yul\":1966:2112   */\n    tag_86:\n        /* \"#utility.yul\":2063:2069   */\n      dup3\n        /* \"#utility.yul\":2058:2061   */\n      dup2\n        /* \"#utility.yul\":2053:2056   */\n      dup4\n        /* \"#utility.yul\":2040:2070   */\n      calldatacopy\n        /* \"#utility.yul\":2104:2105   */\n      0x00\n        /* \"#utility.yul\":2095:2101   */\n      dup4\n        /* \"#utility.yul\":2090:2093   */\n      dup4\n        /* \"#utility.yul\":2086:2102   */\n      add\n        /* \"#utility.yul\":2079:2106   */\n      mstore\n        /* \"#utility.yul\":1966:2112   */\n      pop\n      pop\n      pop\n      jump\t// out\n        /* \"#utility.yul\":2118:2543   */\n    tag_87:\n        /* \"#utility.yul\":2196:2201   */\n      0x00\n        /* \"#utility.yul\":2221:2287   */\n      tag_142\n        /* \"#utility.yul\":2237:2286   */\n      tag_143\n        /* \"#utility.yul\":2279:2285   */\n      dup5\n        /* \"#utility.yul\":2237:2286   */\n      tag_85\n      jump\t// in\n    tag_143:\n        /* \"#utility.yul\":2221:2287   */\n      tag_84\n      jump\t// in\n    tag_142:\n        /* \"#utility.yul\":2212:2287   */\n      swap1\n      pop\n        /* \"#utility.yul\":2310:2316   */\n      dup3\n        /* \"#utility.yul\":2303:2308   */\n      dup2\n        /* \"#utility.yul\":2296:2317   */\n      mstore\n        /* \"#utility.yul\":2348:2352   */\n      0x20\n        /* \"#utility.yul\":2341:2346   */\n      dup2\n        /* \"#utility.yul\":2337:2353   */\n      add\n        /* \"#utility.yul\":2386:2389   */\n      dup5\n        /* \"#utility.yul\":2377:2383   */\n      dup5\n        /* \"#utility.yul\":2372:2375   */\n      dup5\n        /* \"#utility.yul\":2368:2384   */\n      add\n        /* \"#utility.yul\":2365:2390   */\n      gt\n        /* \"#utility.yul\":2362:2474   */\n      iszero\n      tag_144\n      jumpi\n        /* \"#utility.yul\":2393:2472   */\n      tag_145\n      tag_80\n      jump\t// in\n    tag_145:\n        /* \"#utility.yul\":2362:2474   */\n    tag_144:\n        /* \"#utility.yul\":2483:2537   */\n      tag_146\n        /* \"#utility.yul\":2530:2536   */\n      dup5\n        /* \"#utility.yul\":2525:2528   */\n      dup3\n        /* \"#utility.yul\":2520:2523   */\n      dup6\n        /* \"#utility.yul\":2483:2537   */\n      tag_86\n      jump\t// in\n    tag_146:\n        /* \"#utility.yul\":2202:2543   */\n      pop\n        /* \"#utility.yul\":2118:2543   */\n      swap4\n      swap3\n      pop\n      pop\n      pop\n      jump\t// out\n        /* \"#utility.yul\":2563:2903   */\n    tag_88:\n        /* \"#utility.yul\":2619:2624   */\n      0x00\n        /* \"#utility.yul\":2668:2671   */\n      dup3\n        /* \"#utility.yul\":2661:2665   */\n      0x1f\n        /* \"#utility.yul\":2653:2659   */\n      dup4\n        /* \"#utility.yul\":2649:2666   */\n      add\n        /* \"#utility.yul\":2645:2672   */\n      slt\n        /* \"#utility.yul\":2635:2757   */\n      tag_148\n      jumpi\n        /* \"#utility.yul\":2676:2755   */\n      tag_149\n      tag_79\n      jump\t// in\n    tag_149:\n        /* \"#utility.yul\":2635:2757   */\n    tag_148:\n        /* \"#utility.yul\":2793:2799   */\n      dup2\n        /* \"#utility.yul\":2780:2800   */\n      calldataload\n        /* \"#utility.yul\":2818:2897   */\n      tag_150\n        /* \"#utility.yul\":2893:2896   */\n      dup5\n        /* \"#utility.yul\":2885:2891   */\n      dup3\n        /* \"#utility.yul\":2878:2882   */\n      0x20\n        /* \"#utility.yul\":2870:2876   */\n      dup7\n        /* \"#utility.yul\":2866:2883   */\n      add\n        /* \"#utility.yul\":2818:2897   */\n      tag_87\n      jump\t// in\n    tag_150:\n        /* \"#utility.yul\":2809:2897   */\n      swap2\n      pop\n        /* \"#utility.yul\":2625:2903   */\n      pop\n        /* \"#utility.yul\":2563:2903   */\n      swap3\n      swap2\n      pop\n      pop\n      jump\t// out\n        /* \"#utility.yul\":2909:3058   */\n    tag_89:\n        /* \"#utility.yul\":2945:2952   */\n      0x00\n        /* \"#utility.yul\":2985:3051   */\n      0xffff000000000000000000000000000000000000000000000000000000000000\n        /* \"#utility.yul\":2978:2983   */\n      dup3\n        /* \"#utility.yul\":2974:3052   */\n      and\n        /* \"#utility.yul\":2963:3052   */\n      swap1\n      pop\n        /* \"#utility.yul\":2909:3058   */\n      swap2\n      swap1\n      pop\n      jump\t// out\n        /* \"#utility.yul\":3064:3184   */\n    tag_90:\n        /* \"#utility.yul\":3136:3159   */\n      tag_153\n        /* \"#utility.yul\":3153:3158   */\n      dup2\n        /* \"#utility.yul\":3136:3159   */\n      tag_89\n      jump\t// in\n    tag_153:\n        /* \"#utility.yul\":3129:3134   */\n      dup2\n        /* \"#utility.yul\":3126:3160   */\n      eq\n        /* \"#utility.yul\":3116:3178   */\n      tag_154\n      jumpi\n        /* \"#utility.yul\":3174:3175   */\n      0x00\n        /* \"#utility.yul\":3171:3172   */\n      dup1\n        /* \"#utility.yul\":3164:3176   */\n      revert\n        /* \"#utility.yul\":3116:3178   */\n    tag_154:\n        /* \"#utility.yul\":3064:3184   */\n      pop\n      jump\t// out\n        /* \"#utility.yul\":3190:3327   */\n    tag_91:\n        /* \"#utility.yul\":3235:3240   */\n      0x00\n        /* \"#utility.yul\":3273:3279   */\n      dup2\n        /* \"#utility.yul\":3260:3280   */\n      calldataload\n        /* \"#utility.yul\":3251:3280   */\n      swap1\n      pop\n        /* \"#utility.yul\":3289:3321   */\n      tag_156\n        /* \"#utility.yul\":3315:3320   */\n      dup2\n        /* \"#utility.yul\":3289:3321   */\n      tag_90\n      jump\t// in\n    tag_156:\n        /* \"#utility.yul\":3190:3327   */\n      swap3\n      swap2\n      pop\n      pop\n      jump\t// out\n        /* \"#utility.yul\":3333:4130   */\n    tag_14:\n        /* \"#utility.yul\":3419:3425   */\n      0x00\n        /* \"#utility.yul\":3427:3433   */\n      dup1\n        /* \"#utility.yul\":3435:3441   */\n      0x00\n        /* \"#utility.yul\":3484:3486   */\n      0x60\n        /* \"#utility.yul\":3472:3481   */\n      dup5\n        /* \"#utility.yul\":3463:3470   */\n      dup7\n        /* \"#utility.yul\":3459:3482   */\n      sub\n        /* \"#utility.yul\":3455:3487   */\n      slt\n        /* \"#utility.yul\":3452:3571   */\n      iszero\n      tag_158\n      jumpi\n        /* \"#utility.yul\":3490:3569   */\n      tag_159\n      tag_74\n      jump\t// in\n    tag_159:\n        /* \"#utility.yul\":3452:3571   */\n    tag_158:\n        /* \"#utility.yul\":3610:3611   */\n      0x00\n        /* \"#utility.yul\":3635:3688   */\n      tag_160\n        /* \"#utility.yul\":3680:3687   */\n      dup7\n        /* \"#utility.yul\":3671:3677   */\n      dup3\n        /* \"#utility.yul\":3660:3669   */\n      dup8\n        /* \"#utility.yul\":3656:3678   */\n      add\n        /* \"#utility.yul\":3635:3688   */\n      tag_78\n      jump\t// in\n    tag_160:\n        /* \"#utility.yul\":3625:3688   */\n      swap4\n      pop\n        /* \"#utility.yul\":3581:3698   */\n      pop\n        /* \"#utility.yul\":3765:3767   */\n      0x20\n        /* \"#utility.yul\":3754:3763   */\n      dup5\n        /* \"#utility.yul\":3750:3768   */\n      add\n        /* \"#utility.yul\":3737:3769   */\n      calldataload\n        /* \"#utility.yul\":3796:3814   */\n      0xffffffffffffffff\n        /* \"#utility.yul\":3788:3794   */\n      dup2\n        /* \"#utility.yul\":3785:3815   */\n      gt\n        /* \"#utility.yul\":3782:3899   */\n      iszero\n      tag_161\n      jumpi\n        /* \"#utility.yul\":3818:3897   */\n      tag_162\n      tag_75\n      jump\t// in\n    tag_162:\n        /* \"#utility.yul\":3782:3899   */\n    tag_161:\n        /* \"#utility.yul\":3923:3986   */\n      tag_163\n        /* \"#utility.yul\":3978:3985   */\n      dup7\n        /* \"#utility.yul\":3969:3975   */\n      dup3\n        /* \"#utility.yul\":3958:3967   */\n      dup8\n        /* \"#utility.yul\":3954:3976   */\n      add\n        /* \"#utility.yul\":3923:3986   */\n      tag_88\n      jump\t// in\n    tag_163:\n        /* \"#utility.yul\":3913:3986   */\n      swap3\n      pop\n        /* \"#utility.yul\":3708:3996   */\n      pop\n        /* \"#utility.yul\":4035:4037   */\n      0x40\n        /* \"#utility.yul\":4061:4113   */\n      tag_164\n        /* \"#utility.yul\":4105:4112   */\n      dup7\n        /* \"#utility.yul\":4096:4102   */\n      dup3\n        /* \"#utility.yul\":4085:4094   */\n      dup8\n        /* \"#utility.yul\":4081:4103   */\n      add\n        /* \"#utility.yul\":4061:4113   */\n      tag_91\n      jump\t// in\n    tag_164:\n        /* \"#utility.yul\":4051:4113   */\n      swap2\n      pop\n        /* \"#utility.yul\":4006:4123   */\n      pop\n        /* \"#utility.yul\":3333:4130   */\n      swap3\n      pop\n      swap3\n      pop\n      swap3\n      jump\t// out\n        /* \"#utility.yul\":4136:4935   */\n    tag_18:\n        /* \"#utility.yul\":4223:4229   */\n      0x00\n        /* \"#utility.yul\":4231:4237   */\n      dup1\n        /* \"#utility.yul\":4239:4245   */\n      0x00\n        /* \"#utility.yul\":4288:4290   */\n      0x60\n        /* \"#utility.yul\":4276:4285   */\n      dup5\n        /* \"#utility.yul\":4267:4274   */\n      dup7\n        /* \"#utility.yul\":4263:4286   */\n      sub\n        /* \"#utility.yul\":4259:4291   */\n      slt\n        /* \"#utility.yul\":4256:4375   */\n      iszero\n      tag_166\n      jumpi\n        /* \"#utility.yul\":4294:4373   */\n      tag_167\n      tag_74\n      jump\t// in\n    tag_167:\n        /* \"#utility.yul\":4256:4375   */\n    tag_166:\n        /* \"#utility.yul\":4442:4443   */\n      0x00\n        /* \"#utility.yul\":4431:4440   */\n      dup5\n        /* \"#utility.yul\":4427:4444   */\n      add\n        /* \"#utility.yul\":4414:4445   */\n      calldataload\n        /* \"#utility.yul\":4472:4490   */\n      0xffffffffffffffff\n        /* \"#utility.yul\":4464:4470   */\n      dup2\n        /* \"#utility.yul\":4461:4491   */\n      gt\n        /* \"#utility.yul\":4458:4575   */\n      iszero\n      tag_168\n      jumpi\n        /* \"#utility.yul\":4494:4573   */\n      tag_169\n      tag_75\n      jump\t// in\n    tag_169:\n        /* \"#utility.yul\":4458:4575   */\n    tag_168:\n        /* \"#utility.yul\":4599:4662   */\n      tag_170\n        /* \"#utility.yul\":4654:4661   */\n      dup7\n        /* \"#utility.yul\":4645:4651   */\n      dup3\n        /* \"#utility.yul\":4634:4643   */\n      dup8\n        /* \"#utility.yul\":4630:4652   */\n      add\n        /* \"#utility.yul\":4599:4662   */\n      tag_88\n      jump\t// in\n    tag_170:\n        /* \"#utility.yul\":4589:4662   */\n      swap4\n      pop\n        /* \"#utility.yul\":4385:4672   */\n      pop\n        /* \"#utility.yul\":4711:4713   */\n      0x20\n        /* \"#utility.yul\":4737:4790   */\n      tag_171\n        /* \"#utility.yul\":4782:4789   */\n      dup7\n        /* \"#utility.yul\":4773:4779   */\n      dup3\n        /* \"#utility.yul\":4762:4771   */\n      dup8\n        /* \"#utility.yul\":4758:4780   */\n      add\n        /* \"#utility.yul\":4737:4790   */\n      tag_78\n      jump\t// in\n    tag_171:\n        /* \"#utility.yul\":4727:4790   */\n      swap3\n      pop\n        /* \"#utility.yul\":4682:4800   */\n      pop\n        /* \"#utility.yul\":4839:4841   */\n      0x40\n        /* \"#utility.yul\":4865:4918   */\n      tag_172\n        /* \"#utility.yul\":4910:4917   */\n      dup7\n        /* \"#utility.yul\":4901:4907   */\n      dup3\n        /* \"#utility.yul\":4890:4899   */\n      dup8\n        /* \"#utility.yul\":4886:4908   */\n      add\n        /* \"#utility.yul\":4865:4918   */\n      tag_78\n      jump\t// in\n    tag_172:\n        /* \"#utility.yul\":4855:4918   */\n      swap2\n      pop\n        /* \"#utility.yul\":4810:4928   */\n      pop\n        /* \"#utility.yul\":4136:4935   */\n      swap3\n      pop\n      swap3\n      pop\n      swap3\n      jump\t// out\n        /* \"#utility.yul\":4941:5040   */\n    tag_92:\n        /* \"#utility.yul\":4993:4999   */\n      0x00\n        /* \"#utility.yul\":5027:5032   */\n      dup2\n        /* \"#utility.yul\":5021:5033   */\n      mload\n        /* \"#utility.yul\":5011:5033   */\n      swap1\n      pop\n        /* \"#utility.yul\":4941:5040   */\n      swap2\n      swap1\n      pop\n      jump\t// out\n        /* \"#utility.yul\":5046:5205   */\n    tag_93:\n        /* \"#utility.yul\":5120:5131   */\n      0x00\n        /* \"#utility.yul\":5154:5160   */\n      dup3\n        /* \"#utility.yul\":5149:5152   */\n      dup3\n        /* \"#utility.yul\":5142:5161   */\n      mstore\n        /* \"#utility.yul\":5194:5198   */\n      0x20\n        /* \"#utility.yul\":5189:5192   */\n      dup3\n        /* \"#utility.yul\":5185:5199   */\n      add\n        /* \"#utility.yul\":5170:5199   */\n      swap1\n      pop\n        /* \"#utility.yul\":5046:5205   */\n      swap3\n      swap2\n      pop\n      pop\n      jump\t// out\n        /* \"#utility.yul\":5211:5457   */\n    tag_94:\n        /* \"#utility.yul\":5292:5293   */\n      0x00\n        /* \"#utility.yul\":5302:5415   */\n    tag_176:\n        /* \"#utility.yul\":5316:5322   */\n      dup4\n        /* \"#utility.yul\":5313:5314   */\n      dup2\n        /* \"#utility.yul\":5310:5323   */\n      lt\n        /* \"#utility.yul\":5302:5415   */\n      iszero\n      tag_178\n      jumpi\n        /* \"#utility.yul\":5401:5402   */\n      dup1\n        /* \"#utility.yul\":5396:5399   */\n      dup3\n        /* \"#utility.yul\":5392:5403   */\n      add\n        /* \"#utility.yul\":5386:5404   */\n      mload\n        /* \"#utility.yul\":5382:5383   */\n      dup2\n        /* \"#utility.yul\":5377:5380   */\n      dup5\n        /* \"#utility.yul\":5373:5384   */\n      add\n        /* \"#utility.yul\":5366:5405   */\n      mstore\n        /* \"#utility.yul\":5338:5340   */\n      0x20\n        /* \"#utility.yul\":5335:5336   */\n      dup2\n        /* \"#utility.yul\":5331:5341   */\n      add\n        /* \"#utility.yul\":5326:5341   */\n      swap1\n      pop\n        /* \"#utility.yul\":5302:5415   */\n      jump(tag_176)\n    tag_178:\n        /* \"#utility.yul\":5449:5450   */\n      0x00\n        /* \"#utility.yul\":5440:5446   */\n      dup5\n        /* \"#utility.yul\":5435:5438   */\n      dup5\n        /* \"#utility.yul\":5431:5447   */\n      add\n        /* \"#utility.yul\":5424:5451   */\n      mstore\n        /* \"#utility.yul\":5273:5457   */\n      pop\n        /* \"#utility.yul\":5211:5457   */\n      pop\n      pop\n      pop\n      jump\t// out\n        /* \"#utility.yul\":5463:5820   */\n    tag_95:\n        /* \"#utility.yul\":5541:5544   */\n      0x00\n        /* \"#utility.yul\":5569:5608   */\n      tag_180\n        /* \"#utility.yul\":5602:5607   */\n      dup3\n        /* \"#utility.yul\":5569:5608   */\n      tag_92\n      jump\t// in\n    tag_180:\n        /* \"#utility.yul\":5624:5685   */\n      tag_181\n        /* \"#utility.yul\":5678:5684   */\n      dup2\n        /* \"#utility.yul\":5673:5676   */\n      dup6\n        /* \"#utility.yul\":5624:5685   */\n      tag_93\n      jump\t// in\n    tag_181:\n        /* \"#utility.yul\":5617:5685   */\n      swap4\n      pop\n        /* \"#utility.yul\":5694:5759   */\n      tag_182\n        /* \"#utility.yul\":5752:5758   */\n      dup2\n        /* \"#utility.yul\":5747:5750   */\n      dup6\n        /* \"#utility.yul\":5740:5744   */\n      0x20\n        /* \"#utility.yul\":5733:5738   */\n      dup7\n        /* \"#utility.yul\":5729:5745   */\n      add\n        /* \"#utility.yul\":5694:5759   */\n      tag_94\n      jump\t// in\n    tag_182:\n        /* \"#utility.yul\":5784:5813   */\n      tag_183\n        /* \"#utility.yul\":5806:5812   */\n      dup2\n        /* \"#utility.yul\":5784:5813   */\n      tag_81\n      jump\t// in\n    tag_183:\n        /* \"#utility.yul\":5779:5782   */\n      dup5\n        /* \"#utility.yul\":5775:5814   */\n      add\n        /* \"#utility.yul\":5768:5814   */\n      swap2\n      pop\n        /* \"#utility.yul\":5545:5820   */\n      pop\n        /* \"#utility.yul\":5463:5820   */\n      swap3\n      swap2\n      pop\n      pop\n      jump\t// out\n        /* \"#utility.yul\":5826:5934   */\n    tag_96:\n        /* \"#utility.yul\":5903:5927   */\n      tag_185\n        /* \"#utility.yul\":5921:5926   */\n      dup2\n        /* \"#utility.yul\":5903:5927   */\n      tag_76\n      jump\t// in\n    tag_185:\n        /* \"#utility.yul\":5898:5901   */\n      dup3\n        /* \"#utility.yul\":5891:5928   */\n      mstore\n        /* \"#utility.yul\":5826:5934   */\n      pop\n      pop\n      jump\t// out\n        /* \"#utility.yul\":5986:6761   */\n    tag_97:\n        /* \"#utility.yul\":6097:6100   */\n      0x00\n        /* \"#utility.yul\":6133:6137   */\n      0x60\n        /* \"#utility.yul\":6128:6131   */\n      dup4\n        /* \"#utility.yul\":6124:6138   */\n      add\n        /* \"#utility.yul\":6221:6225   */\n      0x00\n        /* \"#utility.yul\":6214:6219   */\n      dup4\n        /* \"#utility.yul\":6210:6226   */\n      add\n        /* \"#utility.yul\":6204:6227   */\n      mload\n        /* \"#utility.yul\":6274:6277   */\n      dup5\n        /* \"#utility.yul\":6268:6272   */\n      dup3\n        /* \"#utility.yul\":6264:6278   */\n      sub\n        /* \"#utility.yul\":6257:6261   */\n      0x00\n        /* \"#utility.yul\":6252:6255   */\n      dup7\n        /* \"#utility.yul\":6248:6262   */\n      add\n        /* \"#utility.yul\":6241:6279   */\n      mstore\n        /* \"#utility.yul\":6300:6373   */\n      tag_187\n        /* \"#utility.yul\":6368:6372   */\n      dup3\n        /* \"#utility.yul\":6354:6366   */\n      dup3\n        /* \"#utility.yul\":6300:6373   */\n      tag_95\n      jump\t// in\n    tag_187:\n        /* \"#utility.yul\":6292:6373   */\n      swap2\n      pop\n        /* \"#utility.yul\":6148:6384   */\n      pop\n        /* \"#utility.yul\":6468:6472   */\n      0x20\n        /* \"#utility.yul\":6461:6466   */\n      dup4\n        /* \"#utility.yul\":6457:6473   */\n      add\n        /* \"#utility.yul\":6451:6474   */\n      mload\n        /* \"#utility.yul\":6487:6550   */\n      tag_188\n        /* \"#utility.yul\":6544:6548   */\n      0x20\n        /* \"#utility.yul\":6539:6542   */\n      dup7\n        /* \"#utility.yul\":6535:6549   */\n      add\n        /* \"#utility.yul\":6521:6533   */\n      dup3\n        /* \"#utility.yul\":6487:6550   */\n      tag_96\n      jump\t// in\n    tag_188:\n        /* \"#utility.yul\":6394:6560   */\n      pop\n        /* \"#utility.yul\":6642:6646   */\n      0x40\n        /* \"#utility.yul\":6635:6640   */\n      dup4\n        /* \"#utility.yul\":6631:6647   */\n      add\n        /* \"#utility.yul\":6625:6648   */\n      mload\n        /* \"#utility.yul\":6661:6724   */\n      tag_189\n        /* \"#utility.yul\":6718:6722   */\n      0x40\n        /* \"#utility.yul\":6713:6716   */\n      dup7\n        /* \"#utility.yul\":6709:6723   */\n      add\n        /* \"#utility.yul\":6695:6707   */\n      dup3\n        /* \"#utility.yul\":6661:6724   */\n      tag_96\n      jump\t// in\n    tag_189:\n        /* \"#utility.yul\":6570:6734   */\n      pop\n        /* \"#utility.yul\":6751:6755   */\n      dup1\n        /* \"#utility.yul\":6744:6755   */\n      swap2\n      pop\n        /* \"#utility.yul\":6102:6761   */\n      pop\n        /* \"#utility.yul\":5986:6761   */\n      swap3\n      swap2\n      pop\n      pop\n      jump\t// out\n        /* \"#utility.yul\":6767:7124   */\n    tag_26:\n        /* \"#utility.yul\":6902:6906   */\n      0x00\n        /* \"#utility.yul\":6940:6942   */\n      0x20\n        /* \"#utility.yul\":6929:6938   */\n      dup3\n        /* \"#utility.yul\":6925:6943   */\n      add\n        /* \"#utility.yul\":6917:6943   */\n      swap1\n      pop\n        /* \"#utility.yul\":6989:6998   */\n      dup2\n        /* \"#utility.yul\":6983:6987   */\n      dup2\n        /* \"#utility.yul\":6979:6999   */\n      sub\n        /* \"#utility.yul\":6975:6976   */\n      0x00\n        /* \"#utility.yul\":6964:6973   */\n      dup4\n        /* \"#utility.yul\":6960:6977   */\n      add\n        /* \"#utility.yul\":6953:7000   */\n      mstore\n        /* \"#utility.yul\":7017:7117   */\n      tag_191\n        /* \"#utility.yul\":7112:7116   */\n      dup2\n        /* \"#utility.yul\":7103:7109   */\n      dup5\n        /* \"#utility.yul\":7017:7117   */\n      tag_97\n      jump\t// in\n    tag_191:\n        /* \"#utility.yul\":7009:7117   */\n      swap1\n      pop\n        /* \"#utility.yul\":6767:7124   */\n      swap3\n      swap2\n      pop\n      pop\n      jump\t// out\n        /* \"#utility.yul\":7180:7957   */\n    tag_98:\n        /* \"#utility.yul\":7293:7296   */\n      0x00\n        /* \"#utility.yul\":7329:7333   */\n      0x60\n        /* \"#utility.yul\":7324:7327   */\n      dup4\n        /* \"#utility.yul\":7320:7334   */\n      add\n        /* \"#utility.yul\":7416:7420   */\n      0x00\n        /* \"#utility.yul\":7409:7414   */\n      dup4\n        /* \"#utility.yul\":7405:7421   */\n      add\n        /* \"#utility.yul\":7399:7422   */\n      mload\n        /* \"#utility.yul\":7469:7472   */\n      dup5\n        /* \"#utility.yul\":7463:7467   */\n      dup3\n        /* \"#utility.yul\":7459:7473   */\n      sub\n        /* \"#utility.yul\":7452:7456   */\n      0x00\n        /* \"#utility.yul\":7447:7450   */\n      dup7\n        /* \"#utility.yul\":7443:7457   */\n      add\n        /* \"#utility.yul\":7436:7474   */\n      mstore\n        /* \"#utility.yul\":7495:7568   */\n      tag_193\n        /* \"#utility.yul\":7563:7567   */\n      dup3\n        /* \"#utility.yul\":7549:7561   */\n      dup3\n        /* \"#utility.yul\":7495:7568   */\n      tag_95\n      jump\t// in\n    tag_193:\n        /* \"#utility.yul\":7487:7568   */\n      swap2\n      pop\n        /* \"#utility.yul\":7344:7579   */\n      pop\n        /* \"#utility.yul\":7663:7667   */\n      0x20\n        /* \"#utility.yul\":7656:7661   */\n      dup4\n        /* \"#utility.yul\":7652:7668   */\n      add\n        /* \"#utility.yul\":7646:7669   */\n      mload\n        /* \"#utility.yul\":7682:7745   */\n      tag_194\n        /* \"#utility.yul\":7739:7743   */\n      0x20\n        /* \"#utility.yul\":7734:7737   */\n      dup7\n        /* \"#utility.yul\":7730:7744   */\n      add\n        /* \"#utility.yul\":7716:7728   */\n      dup3\n        /* \"#utility.yul\":7682:7745   */\n      tag_96\n      jump\t// in\n    tag_194:\n        /* \"#utility.yul\":7589:7755   */\n      pop\n        /* \"#utility.yul\":7838:7842   */\n      0x40\n        /* \"#utility.yul\":7831:7836   */\n      dup4\n        /* \"#utility.yul\":7827:7843   */\n      add\n        /* \"#utility.yul\":7821:7844   */\n      mload\n        /* \"#utility.yul\":7857:7920   */\n      tag_195\n        /* \"#utility.yul\":7914:7918   */\n      0x40\n        /* \"#utility.yul\":7909:7912   */\n      dup7\n        /* \"#utility.yul\":7905:7919   */\n      add\n        /* \"#utility.yul\":7891:7903   */\n      dup3\n        /* \"#utility.yul\":7857:7920   */\n      tag_96\n      jump\t// in\n    tag_195:\n        /* \"#utility.yul\":7765:7930   */\n      pop\n        /* \"#utility.yul\":7947:7951   */\n      dup1\n        /* \"#utility.yul\":7940:7951   */\n      swap2\n      pop\n        /* \"#utility.yul\":7298:7957   */\n      pop\n        /* \"#utility.yul\":7180:7957   */\n      swap3\n      swap2\n      pop\n      pop\n      jump\t// out\n        /* \"#utility.yul\":7963:8324   */\n    tag_33:\n        /* \"#utility.yul\":8100:8104   */\n      0x00\n        /* \"#utility.yul\":8138:8140   */\n      0x20\n        /* \"#utility.yul\":8127:8136   */\n      dup3\n        /* \"#utility.yul\":8123:8141   */\n      add\n        /* \"#utility.yul\":8115:8141   */\n      swap1\n      pop\n        /* \"#utility.yul\":8187:8196   */\n      dup2\n        /* \"#utility.yul\":8181:8185   */\n      dup2\n        /* \"#utility.yul\":8177:8197   */\n      sub\n        /* \"#utility.yul\":8173:8174   */\n      0x00\n        /* \"#utility.yul\":8162:8171   */\n      dup4\n        /* \"#utility.yul\":8158:8175   */\n      add\n        /* \"#utility.yul\":8151:8198   */\n      mstore\n        /* \"#utility.yul\":8215:8317   */\n      tag_197\n        /* \"#utility.yul\":8312:8316   */\n      dup2\n        /* \"#utility.yul\":8303:8309   */\n      dup5\n        /* \"#utility.yul\":8215:8317   */\n      tag_98\n      jump\t// in\n    tag_197:\n        /* \"#utility.yul\":8207:8317   */\n      swap1\n      pop\n        /* \"#utility.yul\":7963:8324   */\n      swap3\n      swap2\n      pop\n      pop\n      jump\t// out\n        /* \"#utility.yul\":8330:8510   */\n    tag_99:\n        /* \"#utility.yul\":8378:8455   */\n      0x4e487b7100000000000000000000000000000000000000000000000000000000\n        /* \"#utility.yul\":8375:8376   */\n      0x00\n        /* \"#utility.yul\":8368:8456   */\n      mstore\n        /* \"#utility.yul\":8475:8479   */\n      0x22\n        /* \"#utility.yul\":8472:8473   */\n      0x04\n        /* \"#utility.yul\":8465:8480   */\n      mstore\n        /* \"#utility.yul\":8499:8503   */\n      0x24\n        /* \"#utility.yul\":8496:8497   */\n      0x00\n        /* \"#utility.yul\":8489:8504   */\n      revert\n        /* \"#utility.yul\":8516:8836   */\n    tag_52:\n        /* \"#utility.yul\":8560:8566   */\n      0x00\n        /* \"#utility.yul\":8597:8598   */\n      0x02\n        /* \"#utility.yul\":8591:8595   */\n      dup3\n        /* \"#utility.yul\":8587:8599   */\n      div\n        /* \"#utility.yul\":8577:8599   */\n      swap1\n      pop\n        /* \"#utility.yul\":8644:8645   */\n      0x01\n        /* \"#utility.yul\":8638:8642   */\n      dup3\n        /* \"#utility.yul\":8634:8646   */\n      and\n        /* \"#utility.yul\":8665:8683   */\n      dup1\n        /* \"#utility.yul\":8655:8736   */\n      tag_200\n      jumpi\n        /* \"#utility.yul\":8721:8725   */\n      0x7f\n        /* \"#utility.yul\":8713:8719   */\n      dup3\n        /* \"#utility.yul\":8709:8726   */\n      and\n        /* \"#utility.yul\":8699:8726   */\n      swap2\n      pop\n        /* \"#utility.yul\":8655:8736   */\n    tag_200:\n        /* \"#utility.yul\":8783:8785   */\n      0x20\n        /* \"#utility.yul\":8775:8781   */\n      dup3\n        /* \"#utility.yul\":8772:8786   */\n      lt\n        /* \"#utility.yul\":8752:8770   */\n      dup2\n        /* \"#utility.yul\":8749:8787   */\n      sub\n        /* \"#utility.yul\":8746:8830   */\n      tag_201\n      jumpi\n        /* \"#utility.yul\":8802:8820   */\n      tag_202\n      tag_99\n      jump\t// in\n    tag_202:\n        /* \"#utility.yul\":8746:8830   */\n    tag_201:\n        /* \"#utility.yul\":8567:8836   */\n      pop\n        /* \"#utility.yul\":8516:8836   */\n      swap2\n      swap1\n      pop\n      jump\t// out\n        /* \"#utility.yul\":8842:8983   */\n    tag_100:\n        /* \"#utility.yul\":8891:8895   */\n      0x00\n        /* \"#utility.yul\":8914:8917   */\n      dup2\n        /* \"#utility.yul\":8906:8917   */\n      swap1\n      pop\n        /* \"#utility.yul\":8937:8940   */\n      dup2\n        /* \"#utility.yul\":8934:8935   */\n      0x00\n        /* \"#utility.yul\":8927:8941   */\n      mstore\n        /* \"#utility.yul\":8971:8975   */\n      0x20\n        /* \"#utility.yul\":8968:8969   */\n      0x00\n        /* \"#utility.yul\":8958:8976   */\n      keccak256\n        /* \"#utility.yul\":8950:8976   */\n      swap1\n      pop\n        /* \"#utility.yul\":8842:8983   */\n      swap2\n      swap1\n      pop\n      jump\t// out\n        /* \"#utility.yul\":8989:9082   */\n    tag_101:\n        /* \"#utility.yul\":9026:9032   */\n      0x00\n        /* \"#utility.yul\":9073:9075   */\n      0x20\n        /* \"#utility.yul\":9068:9070   */\n      0x1f\n        /* \"#utility.yul\":9061:9066   */\n      dup4\n        /* \"#utility.yul\":9057:9071   */\n      add\n        /* \"#utility.yul\":9053:9076   */\n      div\n        /* \"#utility.yul\":9043:9076   */\n      swap1\n      pop\n        /* \"#utility.yul\":8989:9082   */\n      swap2\n      swap1\n      pop\n      jump\t// out\n        /* \"#utility.yul\":9088:9195   */\n    tag_102:\n        /* \"#utility.yul\":9132:9140   */\n      0x00\n        /* \"#utility.yul\":9182:9187   */\n      dup3\n        /* \"#utility.yul\":9176:9180   */\n      dup3\n        /* \"#utility.yul\":9172:9188   */\n      shl\n        /* \"#utility.yul\":9151:9188   */\n      swap1\n      pop\n        /* \"#utility.yul\":9088:9195   */\n      swap3\n      swap2\n      pop\n      pop\n      jump\t// out\n        /* \"#utility.yul\":9201:9594   */\n    tag_103:\n        /* \"#utility.yul\":9270:9276   */\n      0x00\n        /* \"#utility.yul\":9320:9321   */\n      0x08\n        /* \"#utility.yul\":9308:9318   */\n      dup4\n        /* \"#utility.yul\":9304:9322   */\n      mul\n        /* \"#utility.yul\":9343:9440   */\n      tag_207\n        /* \"#utility.yul\":9373:9439   */\n      0xffffffffffffffffffffffffffffffffffffffffffffffffffffffffffffffff\n        /* \"#utility.yul\":9362:9371   */\n      dup3\n        /* \"#utility.yul\":9343:9440   */\n      tag_102\n      jump\t// in\n    tag_207:\n        /* \"#utility.yul\":9461:9500   */\n      tag_208\n        /* \"#utility.yul\":9491:9499   */\n      dup7\n        /* \"#utility.yul\":9480:9489   */\n      dup4\n        /* \"#utility.yul\":9461:9500   */\n      tag_102\n      jump\t// in\n    tag_208:\n        /* \"#utility.yul\":9449:9500   */\n      swap6\n      pop\n        /* \"#utility.yul\":9533:9537   */\n      dup1\n        /* \"#utility.yul\":9529:9538   */\n      not\n        /* \"#utility.yul\":9522:9527   */\n      dup5\n        /* \"#utility.yul\":9518:9539   */\n      and\n        /* \"#utility.yul\":9509:9539   */\n      swap4\n      pop\n        /* \"#utility.yul\":9582:9586   */\n      dup1\n        /* \"#utility.yul\":9572:9580   */\n      dup7\n        /* \"#utility.yul\":9568:9587   */\n      and\n        /* \"#utility.yul\":9561:9566   */\n      dup5\n        /* \"#utility.yul\":9558:9588   */\n      or\n        /* \"#utility.yul\":9548:9588   */\n      swap3\n      pop\n        /* \"#utility.yul\":9277:9594   */\n      pop\n      pop\n        /* \"#utility.yul\":9201:9594   */\n      swap4\n      swap3\n      pop\n      pop\n      pop\n      jump\t// out\n        /* \"#utility.yul\":9600:9660   */\n    tag_104:\n        /* \"#utility.yul\":9628:9631   */\n      0x00\n        /* \"#utility.yul\":9649:9654   */\n      dup2\n        /* \"#utility.yul\":9642:9654   */\n      swap1\n      pop\n        /* \"#utility.yul\":9600:9660   */\n      swap2\n      swap1\n      pop\n      jump\t// out\n        /* \"#utility.yul\":9666:9808   */\n    tag_105:\n        /* \"#utility.yul\":9716:9725   */\n      0x00\n        /* \"#utility.yul\":9749:9802   */\n      tag_211\n        /* \"#utility.yul\":9767:9801   */\n      tag_212\n        /* \"#utility.yul\":9776:9800   */\n      tag_213\n        /* \"#utility.yul\":9794:9799   */\n      dup5\n        /* \"#utility.yul\":9776:9800   */\n      tag_76\n      jump\t// in\n    tag_213:\n        /* \"#utility.yul\":9767:9801   */\n      tag_104\n      jump\t// in\n    tag_212:\n        /* \"#utility.yul\":9749:9802   */\n      tag_76\n      jump\t// in\n    tag_211:\n        /* \"#utility.yul\":9736:9802   */\n      swap1\n      pop\n        /* \"#utility.yul\":9666:9808   */\n      swap2\n      swap1\n      pop\n      jump\t// out\n        /* \"#utility.yul\":9814:9889   */\n    tag_106:\n        /* \"#utility.yul\":9857:9860   */\n      0x00\n        /* \"#utility.yul\":9878:9883   */\n      dup2\n        /* \"#utility.yul\":9871:9883   */\n      swap1\n      pop\n        /* \"#utility.yul\":9814:9889   */\n      swap2\n      swap1\n      pop\n      jump\t// out\n        /* \"#utility.yul\":9895:10164   */\n    tag_107:\n        /* \"#utility.yul\":10005:10044   */\n      tag_216\n        /* \"#utility.yul\":10036:10043   */\n      dup4\n        /* \"#utility.yul\":10005:10044   */\n      tag_105\n      jump\t// in\n    tag_216:\n        /* \"#utility.yul\":10066:10157   */\n      tag_217\n        /* \"#utility.yul\":10115:10156   */\n      tag_218\n        /* \"#utility.yul\":10139:10155   */\n      dup3\n        /* \"#utility.yul\":10115:10156   */\n      tag_106\n      jump\t// in\n    tag_218:\n        /* \"#utility.yul\":10107:10113   */\n      dup5\n        /* \"#utility.yul\":10100:10104   */\n      dup5\n        /* \"#utility.yul\":10094:10105   */\n      sload\n        /* \"#utility.yul\":10066:10157   */\n      tag_103\n      jump\t// in\n    tag_217:\n        /* \"#utility.yul\":10060:10064   */\n      dup3\n        /* \"#utility.yul\":10053:10158   */\n      sstore\n        /* \"#utility.yul\":9971:10164   */\n      pop\n        /* \"#utility.yul\":9895:10164   */\n      pop\n      pop\n      pop\n      jump\t// out\n        /* \"#utility.yul\":10170:10243   */\n    tag_108:\n        /* \"#utility.yul\":10215:10218   */\n      0x00\n        /* \"#utility.yul\":10170:10243   */\n      swap1\n      jump\t// out\n        /* \"#utility.yul\":10249:10438   */\n    tag_109:\n        /* \"#utility.yul\":10326:10358   */\n      tag_221\n      tag_108\n      jump\t// in\n    tag_221:\n        /* \"#utility.yul\":10367:10432   */\n      tag_222\n        /* \"#utility.yul\":10425:10431   */\n      dup2\n        /* \"#utility.yul\":10417:10423   */\n      dup5\n        /* \"#utility.yul\":10411:10415   */\n      dup5\n        /* \"#utility.yul\":10367:10432   */\n      tag_107\n      jump\t// in\n    tag_222:\n        /* \"#utility.yul\":10302:10438   */\n      pop\n        /* \"#utility.yul\":10249:10438   */\n      pop\n      pop\n      jump\t// out\n        /* \"#utility.yul\":10444:10630   */\n    tag_110:\n        /* \"#utility.yul\":10504:10624   */\n    tag_224:\n        /* \"#utility.yul\":10521:10524   */\n      dup2\n        /* \"#utility.yul\":10514:10519   */\n      dup2\n        /* \"#utility.yul\":10511:10525   */\n      lt\n        /* \"#utility.yul\":10504:10624   */\n      iszero\n      tag_226\n      jumpi\n        /* \"#utility.yul\":10575:10614   */\n      tag_227\n        /* \"#utility.yul\":10612:10613   */\n      0x00\n        /* \"#utility.yul\":10605:10610   */\n      dup3\n        /* \"#utility.yul\":10575:10614   */\n      tag_109\n      jump\t// in\n    tag_227:\n        /* \"#utility.yul\":10548:10549   */\n      0x01\n        /* \"#utility.yul\":10541:10546   */\n      dup2\n        /* \"#utility.yul\":10537:10550   */\n      add\n        /* \"#utility.yul\":10528:10550   */\n      swap1\n      pop\n        /* \"#utility.yul\":10504:10624   */\n      jump(tag_224)\n    tag_226:\n        /* \"#utility.yul\":10444:10630   */\n      pop\n      pop\n      jump\t// out\n        /* \"#utility.yul\":10636:11179   */\n    tag_111:\n        /* \"#utility.yul\":10737:10739   */\n      0x1f\n        /* \"#utility.yul\":10732:10735   */\n      dup3\n        /* \"#utility.yul\":10729:10740   */\n      gt\n        /* \"#utility.yul\":10726:11172   */\n      iszero\n      tag_229\n      jumpi\n        /* \"#utility.yul\":10771:10809   */\n      tag_230\n        /* \"#utility.yul\":10803:10808   */\n      dup2\n        /* \"#utility.yul\":10771:10809   */\n      tag_100\n      jump\t// in\n    tag_230:\n        /* \"#utility.yul\":10855:10884   */\n      tag_231\n        /* \"#utility.yul\":10873:10883   */\n      dup5\n        /* \"#utility.yul\":10855:10884   */\n      tag_101\n      jump\t// in\n    tag_231:\n        /* \"#utility.yul\":10845:10853   */\n      dup2\n        /* \"#utility.yul\":10841:10885   */\n      add\n        /* \"#utility.yul\":11038:11040   */\n      0x20\n        /* \"#utility.yul\":11026:11036   */\n      dup6\n        /* \"#utility.yul\":11023:11041   */\n      lt\n        /* \"#utility.yul\":11020:11069   */\n      iszero\n      tag_232\n      jumpi\n        /* \"#utility.yul\":11059:11067   */\n      dup2\n        /* \"#utility.yul\":11044:11067   */\n      swap1\n      pop\n        /* \"#utility.yul\":11020:11069   */\n    tag_232:\n        /* \"#utility.yul\":11082:11162   */\n      tag_233\n        /* \"#utility.yul\":11138:11160   */\n      tag_234\n        /* \"#utility.yul\":11156:11159   */\n      dup6\n        /* \"#utility.yul\":11138:11160   */\n      tag_101\n      jump\t// in\n    tag_234:\n        /* \"#utility.yul\":11128:11136   */\n      dup4\n        /* \"#utility.yul\":11124:11161   */\n      add\n        /* \"#utility.yul\":11111:11122   */\n      dup3\n        /* \"#utility.yul\":11082:11162   */\n      tag_110\n      jump\t// in\n    tag_233:\n        /* \"#utility.yul\":10741:11172   */\n      pop\n      pop\n        /* \"#utility.yul\":10726:11172   */\n    tag_229:\n        /* \"#utility.yul\":10636:11179   */\n      pop\n      pop\n      pop\n      jump\t// out\n        /* \"#utility.yul\":11185:11302   */\n    tag_112:\n        /* \"#utility.yul\":11239:11247   */\n      0x00\n        /* \"#utility.yul\":11289:11294   */\n      dup3\n        /* \"#utility.yul\":11283:11287   */\n      dup3\n        /* \"#utility.yul\":11279:11295   */\n      shr\n        /* \"#utility.yul\":11258:11295   */\n      swap1\n      pop\n        /* \"#utility.yul\":11185:11302   */\n      swap3\n      swap2\n      pop\n      pop\n      jump\t// out\n        /* \"#utility.yul\":11308:11477   */\n    tag_113:\n        /* \"#utility.yul\":11352:11358   */\n      0x00\n        /* \"#utility.yul\":11385:11436   */\n      tag_237\n        /* \"#utility.yul\":11433:11434   */\n      0x00\n        /* \"#utility.yul\":11429:11435   */\n      not\n        /* \"#utility.yul\":11421:11426   */\n      dup5\n        /* \"#utility.yul\":11418:11419   */\n      0x08\n        /* \"#utility.yul\":11414:11427   */\n      mul\n        /* \"#utility.yul\":11385:11436   */\n      tag_112\n      jump\t// in\n    tag_237:\n        /* \"#utility.yul\":11381:11437   */\n      not\n        /* \"#utility.yul\":11466:11470   */\n      dup1\n        /* \"#utility.yul\":11460:11464   */\n      dup4\n        /* \"#utility.yul\":11456:11471   */\n      and\n        /* \"#utility.yul\":11446:11471   */\n      swap2\n      pop\n        /* \"#utility.yul\":11359:11477   */\n      pop\n        /* \"#utility.yul\":11308:11477   */\n      swap3\n      swap2\n      pop\n      pop\n      jump\t// out\n        /* \"#utility.yul\":11482:11777   */\n    tag_114:\n        /* \"#utility.yul\":11558:11562   */\n      0x00\n        /* \"#utility.yul\":11704:11733   */\n      tag_239\n        /* \"#utility.yul\":11729:11732   */\n      dup4\n        /* \"#utility.yul\":11723:11727   */\n      dup4\n        /* \"#utility.yul\":11704:11733   */\n      tag_113\n      jump\t// in\n    tag_239:\n        /* \"#utility.yul\":11696:11733   */\n      swap2\n      pop\n        /* \"#utility.yul\":11766:11769   */\n      dup3\n        /* \"#utility.yul\":11763:11764   */\n      0x02\n        /* \"#utility.yul\":11759:11770   */\n      mul\n        /* \"#utility.yul\":11753:11757   */\n      dup3\n        /* \"#utility.yul\":11750:11771   */\n      or\n        /* \"#utility.yul\":11742:11771   */\n      swap1\n      pop\n        /* \"#utility.yul\":11482:11777   */\n      swap3\n      swap2\n      pop\n      pop\n      jump\t// out\n        /* \"#utility.yul\":11782:13177   */\n    tag_42:\n        /* \"#utility.yul\":11899:11936   */\n      tag_241\n        /* \"#utility.yul\":11932:11935   */\n      dup3\n        /* \"#utility.yul\":11899:11936   */\n      tag_92\n      jump\t// in\n    tag_241:\n        /* \"#utility.yul\":12001:12019   */\n      0xffffffffffffffff\n        /* \"#utility.yul\":11993:11999   */\n      dup2\n        /* \"#utility.yul\":11990:12020   */\n      gt\n        /* \"#utility.yul\":11987:12043   */\n      iszero\n      tag_242\n      jumpi\n        /* \"#utility.yul\":12023:12041   */\n      tag_243\n      tag_82\n      jump\t// in\n    tag_243:\n        /* \"#utility.yul\":11987:12043   */\n    tag_242:\n        /* \"#utility.yul\":12067:12105   */\n      tag_244\n        /* \"#utility.yul\":12099:12103   */\n      dup3\n        /* \"#utility.yul\":12093:12104   */\n      sload\n        /* \"#utility.yul\":12067:12105   */\n      tag_52\n      jump\t// in\n    tag_244:\n        /* \"#utility.yul\":12152:12219   */\n      tag_245\n        /* \"#utility.yul\":12212:12218   */\n      dup3\n        /* \"#utility.yul\":12204:12210   */\n      dup3\n        /* \"#utility.yul\":12198:12202   */\n      dup6\n        /* \"#utility.yul\":12152:12219   */\n      tag_111\n      jump\t// in\n    tag_245:\n        /* \"#utility.yul\":12246:12247   */\n      0x00\n        /* \"#utility.yul\":12270:12274   */\n      0x20\n        /* \"#utility.yul\":12257:12274   */\n      swap1\n      pop\n        /* \"#utility.yul\":12302:12304   */\n      0x1f\n        /* \"#utility.yul\":12294:12300   */\n      dup4\n        /* \"#utility.yul\":12291:12305   */\n      gt\n        /* \"#utility.yul\":12319:12320   */\n      0x01\n        /* \"#utility.yul\":12314:12932   */\n      dup2\n      eq\n      tag_247\n      jumpi\n        /* \"#utility.yul\":12976:12977   */\n      0x00\n        /* \"#utility.yul\":12993:12999   */\n      dup5\n        /* \"#utility.yul\":12990:13067   */\n      iszero\n      tag_248\n      jumpi\n        /* \"#utility.yul\":13042:13051   */\n      dup3\n        /* \"#utility.yul\":13037:13040   */\n      dup8\n        /* \"#utility.yul\":13033:13052   */\n      add\n        /* \"#utility.yul\":13027:13053   */\n      mload\n        /* \"#utility.yul\":13018:13053   */\n      swap1\n      pop\n        /* \"#utility.yul\":12990:13067   */\n    tag_248:\n        /* \"#utility.yul\":13093:13160   */\n      tag_249\n        /* \"#utility.yul\":13153:13159   */\n      dup6\n        /* \"#utility.yul\":13146:13151   */\n      dup3\n        /* \"#utility.yul\":13093:13160   */\n      tag_114\n      jump\t// in\n    tag_249:\n        /* \"#utility.yul\":13087:13091   */\n      dup7\n        /* \"#utility.yul\":13080:13161   */\n      sstore\n        /* \"#utility.yul\":12949:13171   */\n      pop\n        /* \"#utility.yul\":12284:13171   */\n      jump(tag_246)\n        /* \"#utility.yul\":12314:12932   */\n    tag_247:\n        /* \"#utility.yul\":12366:12370   */\n      0x1f\n        /* \"#utility.yul\":12362:12371   */\n      not\n        /* \"#utility.yul\":12354:12360   */\n      dup5\n        /* \"#utility.yul\":12350:12372   */\n      and\n        /* \"#utility.yul\":12400:12437   */\n      tag_250\n        /* \"#utility.yul\":12432:12436   */\n      dup7\n        /* \"#utility.yul\":12400:12437   */\n      tag_100\n      jump\t// in\n    tag_250:\n        /* \"#utility.yul\":12459:12460   */\n      0x00\n        /* \"#utility.yul\":12473:12681   */\n    tag_251:\n        /* \"#utility.yul\":12487:12494   */\n      dup3\n        /* \"#utility.yul\":12484:12485   */\n      dup2\n        /* \"#utility.yul\":12481:12495   */\n      lt\n        /* \"#utility.yul\":12473:12681   */\n      iszero\n      tag_253\n      jumpi\n        /* \"#utility.yul\":12566:12575   */\n      dup5\n        /* \"#utility.yul\":12561:12564   */\n      dup10\n        /* \"#utility.yul\":12557:12576   */\n      add\n        /* \"#utility.yul\":12551:12577   */\n      mload\n        /* \"#utility.yul\":12543:12549   */\n      dup3\n        /* \"#utility.yul\":12536:12578   */\n      sstore\n        /* \"#utility.yul\":12617:12618   */\n      0x01\n        /* \"#utility.yul\":12609:12615   */\n      dup3\n        /* \"#utility.yul\":12605:12619   */\n      add\n        /* \"#utility.yul\":12595:12619   */\n      swap2\n      pop\n        /* \"#utility.yul\":12664:12666   */\n      0x20\n        /* \"#utility.yul\":12653:12662   */\n      dup6\n        /* \"#utility.yul\":12649:12667   */\n      add\n        /* \"#utility.yul\":12636:12667   */\n      swap5\n      pop\n        /* \"#utility.yul\":12510:12514   */\n      0x20\n        /* \"#utility.yul\":12507:12508   */\n      dup2\n        /* \"#utility.yul\":12503:12515   */\n      add\n        /* \"#utility.yul\":12498:12515   */\n      swap1\n      pop\n        /* \"#utility.yul\":12473:12681   */\n      jump(tag_251)\n    tag_253:\n        /* \"#utility.yul\":12709:12715   */\n      dup7\n        /* \"#utility.yul\":12700:12707   */\n      dup4\n        /* \"#utility.yul\":12697:12716   */\n      lt\n        /* \"#utility.yul\":12694:12873   */\n      iszero\n      tag_254\n      jumpi\n        /* \"#utility.yul\":12767:12776   */\n      dup5\n        /* \"#utility.yul\":12762:12765   */\n      dup10\n        /* \"#utility.yul\":12758:12777   */\n      add\n        /* \"#utility.yul\":12752:12778   */\n      mload\n        /* \"#utility.yul\":12810:12858   */\n      tag_255\n        /* \"#utility.yul\":12852:12856   */\n      0x1f\n        /* \"#utility.yul\":12844:12850   */\n      dup10\n        /* \"#utility.yul\":12840:12857   */\n      and\n        /* \"#utility.yul\":12829:12838   */\n      dup3\n        /* \"#utility.yul\":12810:12858   */\n      tag_113\n      jump\t// in\n    tag_255:\n        /* \"#utility.yul\":12802:12808   */\n      dup4\n        /* \"#utility.yul\":12795:12859   */\n      sstore\n        /* \"#utility.yul\":12717:12873   */\n      pop\n        /* \"#utility.yul\":12694:12873   */\n    tag_254:\n        /* \"#utility.yul\":12919:12920   */\n      0x01\n        /* \"#utility.yul\":12915:12916   */\n      0x02\n        /* \"#utility.yul\":12907:12913   */\n      dup9\n        /* \"#utility.yul\":12903:12917   */\n      mul\n        /* \"#utility.yul\":12899:12921   */\n      add\n        /* \"#utility.yul\":12893:12897   */\n      dup9\n        /* \"#utility.yul\":12886:12922   */\n      sstore\n        /* \"#utility.yul\":12321:12932   */\n      pop\n      pop\n      pop\n        /* \"#utility.yul\":12284:13171   */\n    tag_246:\n      pop\n        /* \"#utility.yul\":11874:13177   */\n      pop\n      pop\n      pop\n        /* \"#utility.yul\":11782:13177   */\n      pop\n      pop\n      jump\t// out\n\n    auxdata: 0xa264697066735822122079754f43544464b326994af8119518092efc74aa02eb41753a40f732a1e5e47564736f6c63430008120033\n}\n",
				"bytecode": {
					"linkReferences": {},
					"object": "608060405234801561001057600080fd5b50610d42806100206000396000f3fe608060405234801561001057600080fd5b50600436106100885760003560e01c8063cd914def1161005b578063cd914def146100ff578063e93314ab1461011b578063edeb21cf14610139578063fb49cfbc1461015557610088565b80631908791c1461008d578063562ca543146100a957806393dbeaa3146100c5578063a2375d1e146100e1575b600080fd5b6100a760048036038101906100a291906107de565b610171565b005b6100c360048036038101906100be919061084d565b6101f9565b005b6100df60048036038101906100da919061084d565b610270565b005b6100e96102bf565b6040516100f6919061099a565b60405180910390f35b610119600480360381019061011491906107de565b61037f565b005b61012361042f565b6040516101309190610a0c565b60405180910390f35b610153600480360381019061014e919061084d565b6104ef565b005b61016f600480360381019061016a919061084d565b610566565b005b6040518060600160405280848152602001838152602001827dffffffffffffffffffffffffffffffffffffffffffffffffffffffffffff191681525060086000820151816000015560208201518160010190816101ce9190610c3a565b5060408201518160020160006101000a81548161ffff021916908360f01c0217905550905050505050565b6006604051806060016040528085815260200184815260200183815250908060018154018082558091505060019003906000526020600020906003020160009091909190915060008201518160000190816102549190610c3a565b5060208201518160010155604082015181600201555050505050565b604051806060016040528084815260200183815260200182815250600360008201518160000190816102a29190610c3a565b506020820151816001015560408201518160020155905050505050565b6102c76105b4565b60036040518060600160405290816000820180546102e490610a5d565b80601f016020809104026020016040519081016040528092919081815260200182805461031090610a5d565b801561035d5780601f106103325761010080835404028352916020019161035d565b820191906000526020600020905b81548152906001019060200180831161034057829003601f168201915b5050505050815260200160018201548152602001600282015481525050905090565b600b6040518060600160405280858152602001848152602001837dffffffffffffffffffffffffffffffffffffffffffffffffffffffffffff191681525090806001815401808255809150506001900390600052602060002090600302016000909190919091506000820151816000015560208201518160010190816104059190610c3a565b5060408201518160020160006101000a81548161ffff021916908360f01c02179055505050505050565b6104376105d5565b600060405180606001604052908160008201805461045490610a5d565b80601f016020809104026020016040519081016040528092919081815260200182805461048090610a5d565b80156104cd5780601f106104a2576101008083540402835291602001916104cd565b820191906000526020600020905b8154815290600101906020018083116104b057829003601f168201915b5050505050815260200160018201548152602001600282015481525050905090565b60076040518060600160405280858152602001848152602001838152509080600181540180825580915050600190039060005260206000209060030201600090919091909150600082015181600001908161054a9190610c3a565b5060208201518160010155604082015181600201555050505050565b6040518060600160405280848152602001838152602001828152506000808201518160000190816105979190610c3a565b506020820151816001015560408201518160020155905050505050565b60405180606001604052806060815260200160008152602001600081525090565b60405180606001604052806060815260200160008152602001600081525090565b6000604051905090565b600080fd5b600080fd5b6000819050919050565b61061d8161060a565b811461062857600080fd5b50565b60008135905061063a81610614565b92915050565b600080fd5b600080fd5b6000601f19601f8301169050919050565b7f4e487b7100000000000000000000000000000000000000000000000000000000600052604160045260246000fd5b6106938261064a565b810181811067ffffffffffffffff821117156106b2576106b161065b565b5b80604052505050565b60006106c56105f6565b90506106d1828261068a565b919050565b600067ffffffffffffffff8211156106f1576106f061065b565b5b6106fa8261064a565b9050602081019050919050565b82818337600083830152505050565b6000610729610724846106d6565b6106bb565b90508281526020810184848401111561074557610744610645565b5b610750848285610707565b509392505050565b600082601f83011261076d5761076c610640565b5b813561077d848260208601610716565b91505092915050565b60007fffff00000000000000000000000000000000000000000000000000000000000082169050919050565b6107bb81610786565b81146107c657600080fd5b50565b6000813590506107d8816107b2565b92915050565b6000806000606084860312156107f7576107f6610600565b5b60006108058682870161062b565b935050602084013567ffffffffffffffff81111561082657610825610605565b5b61083286828701610758565b9250506040610843868287016107c9565b9150509250925092565b60008060006060848603121561086657610865610600565b5b600084013567ffffffffffffffff81111561088457610883610605565b5b61089086828701610758565b93505060206108a18682870161062b565b92505060406108b28682870161062b565b9150509250925092565b600081519050919050565b600082825260208201905092915050565b60005b838110156108f65780820151818401526020810190506108db565b60008484015250505050565b600061090d826108bc565b61091781856108c7565b93506109278185602086016108d8565b6109308161064a565b840191505092915050565b6109448161060a565b82525050565b600060608301600083015184820360008601526109678282610902565b915050602083015161097c602086018261093b565b50604083015161098f604086018261093b565b508091505092915050565b600060208201905081810360008301526109b4818461094a565b905092915050565b600060608301600083015184820360008601526109d98282610902565b91505060208301516109ee602086018261093b565b506040830151610a01604086018261093b565b508091505092915050565b60006020820190508181036000830152610a2681846109bc565b905092915050565b7f4e487b7100000000000000000000000000000000000000000000000000000000600052602260045260246000fd5b60006002820490506001821680610a7557607f821691505b602082108103610a8857610a87610a2e565b5b50919050565b60008190508160005260206000209050919050565b60006020601f8301049050919050565b600082821b905092915050565b600060088302610af07fffffffffffffffffffffffffffffffffffffffffffffffffffffffffffffffff82610ab3565b610afa8683610ab3565b95508019841693508086168417925050509392505050565b6000819050919050565b6000610b37610b32610b2d8461060a565b610b12565b61060a565b9050919050565b6000819050919050565b610b5183610b1c565b610b65610b5d82610b3e565b848454610ac0565b825550505050565b600090565b610b7a610b6d565b610b85818484610b48565b505050565b5b81811015610ba957610b9e600082610b72565b600181019050610b8b565b5050565b601f821115610bee57610bbf81610a8e565b610bc884610aa3565b81016020851015610bd7578190505b610beb610be385610aa3565b830182610b8a565b50505b505050565b600082821c905092915050565b6000610c1160001984600802610bf3565b1980831691505092915050565b6000610c2a8383610c00565b9150826002028217905092915050565b610c43826108bc565b67ffffffffffffffff811115610c5c57610c5b61065b565b5b610c668254610a5d565b610c71828285610bad565b600060209050601f831160018114610ca45760008415610c92578287015190505b610c9c8582610c1e565b865550610d04565b601f198416610cb286610a8e565b60005b82811015610cda57848901518255600182019150602085019450602081019050610cb5565b86831015610cf75784890151610cf3601f891682610c00565b8355505b6001600288020188555050505b50505050505056fea264697066735822122079754f43544464b326994af8119518092efc74aa02eb41753a40f732a1e5e47564736f6c63430008120033",
					"opcodes": "PUSH1 0x80 PUSH1 0x40 MSTORE CALLVALUE DUP1 ISZERO PUSH2 0x10 JUMPI PUSH1 0x0 DUP1 REVERT JUMPDEST POP PUSH2 0xD42 DUP1 PUSH2 0x20 PUSH1 0x0 CODECOPY PUSH1 0x0 RETURN INVALID PUSH1 0x80 PUSH1 0x40 MSTORE CALLVALUE DUP1 ISZERO PUSH2 0x10 JUMPI PUSH1 0x0 DUP1 REVERT JUMPDEST POP PUSH1 0x4 CALLDATASIZE LT PUSH2 0x88 JUMPI PUSH1 0x0 CALLDATALOAD PUSH1 0xE0 SHR DUP1 PUSH4 0xCD914DEF GT PUSH2 0x5B JUMPI DUP1 PUSH4 0xCD914DEF EQ PUSH2 0xFF JUMPI DUP1 PUSH4 0xE93314AB EQ PUSH2 0x11B JUMPI DUP1 PUSH4 0xEDEB21CF EQ PUSH2 0x139 JUMPI DUP1 PUSH4 0xFB49CFBC EQ PUSH2 0x155 JUMPI PUSH2 0x88 JUMP JUMPDEST DUP1 PUSH4 0x1908791C EQ PUSH2 0x8D JUMPI DUP1 PUSH4 0x562CA543 EQ PUSH2 0xA9 JUMPI DUP1 PUSH4 0x93DBEAA3 EQ PUSH2 0xC5 JUMPI DUP1 PUSH4 0xA2375D1E EQ PUSH2 0xE1 JUMPI JUMPDEST PUSH1 0x0 DUP1 REVERT JUMPDEST PUSH2 0xA7 PUSH1 0x4 DUP1 CALLDATASIZE SUB DUP2 ADD SWAP1 PUSH2 0xA2 SWAP2 SWAP1 PUSH2 0x7DE JUMP JUMPDEST PUSH2 0x171 JUMP JUMPDEST STOP JUMPDEST PUSH2 0xC3 PUSH1 0x4 DUP1 CALLDATASIZE SUB DUP2 ADD SWAP1 PUSH2 0xBE SWAP2 SWAP1 PUSH2 0x84D JUMP JUMPDEST PUSH2 0x1F9 JUMP JUMPDEST STOP JUMPDEST PUSH2 0xDF PUSH1 0x4 DUP1 CALLDATASIZE SUB DUP2 ADD SWAP1 PUSH2 0xDA SWAP2 SWAP1 PUSH2 0x84D JUMP JUMPDEST PUSH2 0x270 JUMP JUMPDEST STOP JUMPDEST PUSH2 0xE9 PUSH2 0x2BF JUMP JUMPDEST PUSH1 0x40 MLOAD PUSH2 0xF6 SWAP2 SWAP1 PUSH2 0x99A JUMP JUMPDEST PUSH1 0x40 MLOAD DUP1 SWAP2 SUB SWAP1 RETURN JUMPDEST PUSH2 0x119 PUSH1 0x4 DUP1 CALLDATASIZE SUB DUP2 ADD SWAP1 PUSH2 0x114 SWAP2 SWAP1 PUSH2 0x7DE JUMP JUMPDEST PUSH2 0x37F JUMP JUMPDEST STOP JUMPDEST PUSH2 0x123 PUSH2 0x42F JUMP JUMPDEST PUSH1 0x40 MLOAD PUSH2 0x130 SWAP2 SWAP1 PUSH2 0xA0C JUMP JUMPDEST PUSH1 0x40 MLOAD DUP1 SWAP2 SUB SWAP1 RETURN JUMPDEST PUSH2 0x153 PUSH1 0x4 DUP1 CALLDATASIZE SUB DUP2 ADD SWAP1 PUSH2 0x14E SWAP2 SWAP1 PUSH2 0x84D JUMP JUMPDEST PUSH2 0x4EF JUMP JUMPDEST STOP JUMPDEST PUSH2 0x16F PUSH1 0x4 DUP1 CALLDATASIZE SUB DUP2 ADD SWAP1 PUSH2 0x16A SWAP2 SWAP1 PUSH2 0x84D JUMP JUMPDEST PUSH2 0x566 JUMP JUMPDEST STOP JUMPDEST PUSH1 0x40 MLOAD DUP1 PUSH1 0x60 ADD PUSH1 0x40 MSTORE DUP1 DUP5 DUP2 MSTORE PUSH1 0x20 ADD DUP4 DUP2 MSTORE PUSH1 0x20 ADD DUP3 PUSH30 0xFFFFFFFFFFFFFFFFFFFFFFFFFFFFFFFFFFFFFFFFFFFFFFFFFFFFFFFFFFFF NOT AND DUP2 MSTORE POP PUSH1 0x8 PUSH1 0x0 DUP3 ADD MLOAD DUP2 PUSH1 0x0 ADD SSTORE PUSH1 0x20 DUP3 ADD MLOAD DUP2 PUSH1 0x1 ADD SWAP1 DUP2 PUSH2 0x1CE SWAP2 SWAP1 PUSH2 0xC3A JUMP JUMPDEST POP PUSH1 0x40 DUP3 ADD MLOAD DUP2 PUSH1 0x2 ADD PUSH1 0x0 PUSH2 0x100 EXP DUP2 SLOAD DUP2 PUSH2 0xFFFF MUL NOT AND SWAP1 DUP4 PUSH1 0xF0 SHR MUL OR SWAP1 SSTORE POP SWAP1 POP POP POP POP POP JUMP JUMPDEST PUSH1 0x6 PUSH1 0x40 MLOAD DUP1 PUSH1 0x60 ADD PUSH1 0x40 MSTORE DUP1 DUP6 DUP2 MSTORE PUSH1 0x20 ADD DUP5 DUP2 MSTORE PUSH1 0x20 ADD DUP4 DUP2 MSTORE POP SWAP1 DUP1 PUSH1 0x1 DUP2 SLOAD ADD DUP1 DUP3 SSTORE DUP1 SWAP2 POP POP PUSH1 0x1 SWAP1 SUB SWAP1 PUSH1 0x0 MSTORE PUSH1 0x20 PUSH1 0x0 KECCAK256 SWAP1 PUSH1 0x3 MUL ADD PUSH1 0x0 SWAP1 SWAP2 SWAP1 SWAP2 SWAP1 SWAP2 POP PUSH1 0x0 DUP3 ADD MLOAD DUP2 PUSH1 0x0 ADD SWAP1 DUP2 PUSH2 0x254 SWAP2 SWAP1 PUSH2 0xC3A JUMP JUMPDEST POP PUSH1 0x20 DUP3 ADD MLOAD DUP2 PUSH1 0x1 ADD SSTORE PUSH1 0x40 DUP3 ADD MLOAD DUP2 PUSH1 0x2 ADD SSTORE POP POP POP POP POP JUMP JUMPDEST PUSH1 0x40 MLOAD DUP1 PUSH1 0x60 ADD PUSH1 0x40 MSTORE DUP1 DUP5 DUP2 MSTORE PUSH1 0x20 ADD DUP4 DUP2 MSTORE PUSH1 0x20 ADD DUP3 DUP2 MSTORE POP PUSH1 0x3 PUSH1 0x0 DUP3 ADD MLOAD DUP2 PUSH1 0x0 ADD SWAP1 DUP2 PUSH2 0x2A2 SWAP2 SWAP1 PUSH2 0xC3A JUMP JUMPDEST POP PUSH1 0x20 DUP3 ADD MLOAD DUP2 PUSH1 0x1 ADD SSTORE PUSH1 0x40 DUP3 ADD MLOAD DUP2 PUSH1 0x2 ADD SSTORE SWAP1 POP POP POP POP POP JUMP JUMPDEST PUSH2 0x2C7 PUSH2 0x5B4 JUMP JUMPDEST PUSH1 0x3 PUSH1 0x40 MLOAD DUP1 PUSH1 0x60 ADD PUSH1 0x40 MSTORE SWAP1 DUP2 PUSH1 0x0 DUP3 ADD DUP1 SLOAD PUSH2 0x2E4 SWAP1 PUSH2 0xA5D JUMP JUMPDEST DUP1 PUSH1 0x1F ADD PUSH1 0x20 DUP1 SWAP2 DIV MUL PUSH1 0x20 ADD PUSH1 0x40 MLOAD SWAP1 DUP2 ADD PUSH1 0x40 MSTORE DUP1 SWAP3 SWAP2 SWAP1 DUP2 DUP2 MSTORE PUSH1 0x20 ADD DUP3 DUP1 SLOAD PUSH2 0x310 SWAP1 PUSH2 0xA5D JUMP JUMPDEST DUP1 ISZERO PUSH2 0x35D JUMPI DUP1 PUSH1 0x1F LT PUSH2 0x332 JUMPI PUSH2 0x100 DUP1 DUP4 SLOAD DIV MUL DUP4 MSTORE SWAP2 PUSH1 0x20 ADD SWAP2 PUSH2 0x35D JUMP JUMPDEST DUP3 ADD SWAP2 SWAP1 PUSH1 0x0 MSTORE PUSH1 0x20 PUSH1 0x0 KECCAK256 SWAP1 JUMPDEST DUP2 SLOAD DUP2 MSTORE SWAP1 PUSH1 0x1 ADD SWAP1 PUSH1 0x20 ADD DUP1 DUP4 GT PUSH2 0x340 JUMPI DUP3 SWAP1 SUB PUSH1 0x1F AND DUP3 ADD SWAP2 JUMPDEST POP POP POP POP POP DUP2 MSTORE PUSH1 0x20 ADD PUSH1 0x1 DUP3 ADD SLOAD DUP2 MSTORE PUSH1 0x20 ADD PUSH1 0x2 DUP3 ADD SLOAD DUP2 MSTORE POP POP SWAP1 POP SWAP1 JUMP JUMPDEST PUSH1 0xB PUSH1 0x40 MLOAD DUP1 PUSH1 0x60 ADD PUSH1 0x40 MSTORE DUP1 DUP6 DUP2 MSTORE PUSH1 0x20 ADD DUP5 DUP2 MSTORE PUSH1 0x20 ADD DUP4 PUSH30 0xFFFFFFFFFFFFFFFFFFFFFFFFFFFFFFFFFFFFFFFFFFFFFFFFFFFFFFFFFFFF NOT AND DUP2 MSTORE POP SWAP1 DUP1 PUSH1 0x1 DUP2 SLOAD ADD DUP1 DUP3 SSTORE DUP1 SWAP2 POP POP PUSH1 0x1 SWAP1 SUB SWAP1 PUSH1 0x0 MSTORE PUSH1 0x20 PUSH1 0x0 KECCAK256 SWAP1 PUSH1 0x3 MUL ADD PUSH1 0x0 SWAP1 SWAP2 SWAP1 SWAP2 SWAP1 SWAP2 POP PUSH1 0x0 DUP3 ADD MLOAD DUP2 PUSH1 0x0 ADD SSTORE PUSH1 0x20 DUP3 ADD MLOAD DUP2 PUSH1 0x1 ADD SWAP1 DUP2 PUSH2 0x405 SWAP2 SWAP1 PUSH2 0xC3A JUMP JUMPDEST POP PUSH1 0x40 DUP3 ADD MLOAD DUP2 PUSH1 0x2 ADD PUSH1 0x0 PUSH2 0x100 EXP DUP2 SLOAD DUP2 PUSH2 0xFFFF MUL NOT AND SWAP1 DUP4 PUSH1 0xF0 SHR MUL OR SWAP1 SSTORE POP POP POP POP POP POP JUMP JUMPDEST PUSH2 0x437 PUSH2 0x5D5 JUMP JUMPDEST PUSH1 0x0 PUSH1 0x40 MLOAD DUP1 PUSH1 0x60 ADD PUSH1 0x40 MSTORE SWAP1 DUP2 PUSH1 0x0 DUP3 ADD DUP1 SLOAD PUSH2 0x454 SWAP1 PUSH2 0xA5D JUMP JUMPDEST DUP1 PUSH1 0x1F ADD PUSH1 0x20 DUP1 SWAP2 DIV MUL PUSH1 0x20 ADD PUSH1 0x40 MLOAD SWAP1 DUP2 ADD PUSH1 0x40 MSTORE DUP1 SWAP3 SWAP2 SWAP1 DUP2 DUP2 MSTORE PUSH1 0x20 ADD DUP3 DUP1 SLOAD PUSH2 0x480 SWAP1 PUSH2 0xA5D JUMP JUMPDEST DUP1 ISZERO PUSH2 0x4CD JUMPI DUP1 PUSH1 0x1F LT PUSH2 0x4A2 JUMPI PUSH2 0x100 DUP1 DUP4 SLOAD DIV MUL DUP4 MSTORE SWAP2 PUSH1 0x20 ADD SWAP2 PUSH2 0x4CD JUMP JUMPDEST DUP3 ADD SWAP2 SWAP1 PUSH1 0x0 MSTORE PUSH1 0x20 PUSH1 0x0 KECCAK256 SWAP1 JUMPDEST DUP2 SLOAD DUP2 MSTORE SWAP1 PUSH1 0x1 ADD SWAP1 PUSH1 0x20 ADD DUP1 DUP4 GT PUSH2 0x4B0 JUMPI DUP3 SWAP1 SUB PUSH1 0x1F AND DUP3 ADD SWAP2 JUMPDEST POP POP POP POP POP DUP2 MSTORE PUSH1 0x20 ADD PUSH1 0x1 DUP3 ADD SLOAD DUP2 MSTORE PUSH1 0x20 ADD PUSH1 0x2 DUP3 ADD SLOAD DUP2 MSTORE POP POP SWAP1 POP SWAP1 JUMP JUMPDEST PUSH1 0x7 PUSH1 0x40 MLOAD DUP1 PUSH1 0x60 ADD PUSH1 0x40 MSTORE DUP1 DUP6 DUP2 MSTORE PUSH1 0x20 ADD DUP5 DUP2 MSTORE PUSH1 0x20 ADD DUP4 DUP2 MSTORE POP SWAP1 DUP1 PUSH1 0x1 DUP2 SLOAD ADD DUP1 DUP3 SSTORE DUP1 SWAP2 POP POP PUSH1 0x1 SWAP1 SUB SWAP1 PUSH1 0x0 MSTORE PUSH1 0x20 PUSH1 0x0 KECCAK256 SWAP1 PUSH1 0x3 MUL ADD PUSH1 0x0 SWAP1 SWAP2 SWAP1 SWAP2 SWAP1 SWAP2 POP PUSH1 0x0 DUP3 ADD MLOAD DUP2 PUSH1 0x0 ADD SWAP1 DUP2 PUSH2 0x54A SWAP2 SWAP1 PUSH2 0xC3A JUMP JUMPDEST POP PUSH1 0x20 DUP3 ADD MLOAD DUP2 PUSH1 0x1 ADD SSTORE PUSH1 0x40 DUP3 ADD MLOAD DUP2 PUSH1 0x2 ADD SSTORE POP POP POP POP POP JUMP JUMPDEST PUSH1 0x40 MLOAD DUP1 PUSH1 0x60 ADD PUSH1 0x40 MSTORE DUP1 DUP5 DUP2 MSTORE PUSH1 0x20 ADD DUP4 DUP2 MSTORE PUSH1 0x20 ADD DUP3 DUP2 MSTORE POP PUSH1 0x0 DUP1 DUP3 ADD MLOAD DUP2 PUSH1 0x0 ADD SWAP1 DUP2 PUSH2 0x597 SWAP2 SWAP1 PUSH2 0xC3A JUMP JUMPDEST POP PUSH1 0x20 DUP3 ADD MLOAD DUP2 PUSH1 0x1 ADD SSTORE PUSH1 0x40 DUP3 ADD MLOAD DUP2 PUSH1 0x2 ADD SSTORE SWAP1 POP POP POP POP POP JUMP JUMPDEST PUSH1 0x40 MLOAD DUP1 PUSH1 0x60 ADD PUSH1 0x40 MSTORE DUP1 PUSH1 0x60 DUP2 MSTORE PUSH1 0x20 ADD PUSH1 0x0 DUP2 MSTORE PUSH1 0x20 ADD PUSH1 0x0 DUP2 MSTORE POP SWAP1 JUMP JUMPDEST PUSH1 0x40 MLOAD DUP1 PUSH1 0x60 ADD PUSH1 0x40 MSTORE DUP1 PUSH1 0x60 DUP2 MSTORE PUSH1 0x20 ADD PUSH1 0x0 DUP2 MSTORE PUSH1 0x20 ADD PUSH1 0x0 DUP2 MSTORE POP SWAP1 JUMP JUMPDEST PUSH1 0x0 PUSH1 0x40 MLOAD SWAP1 POP SWAP1 JUMP JUMPDEST PUSH1 0x0 DUP1 REVERT JUMPDEST PUSH1 0x0 DUP1 REVERT JUMPDEST PUSH1 0x0 DUP2 SWAP1 POP SWAP2 SWAP1 POP JUMP JUMPDEST PUSH2 0x61D DUP2 PUSH2 0x60A JUMP JUMPDEST DUP2 EQ PUSH2 0x628 JUMPI PUSH1 0x0 DUP1 REVERT JUMPDEST POP JUMP JUMPDEST PUSH1 0x0 DUP2 CALLDATALOAD SWAP1 POP PUSH2 0x63A DUP2 PUSH2 0x614 JUMP JUMPDEST SWAP3 SWAP2 POP POP JUMP JUMPDEST PUSH1 0x0 DUP1 REVERT JUMPDEST PUSH1 0x0 DUP1 REVERT JUMPDEST PUSH1 0x0 PUSH1 0x1F NOT PUSH1 0x1F DUP4 ADD AND SWAP1 POP SWAP2 SWAP1 POP JUMP JUMPDEST PUSH32 0x4E487B7100000000000000000000000000000000000000000000000000000000 PUSH1 0x0 MSTORE PUSH1 0x41 PUSH1 0x4 MSTORE PUSH1 0x24 PUSH1 0x0 REVERT JUMPDEST PUSH2 0x693 DUP3 PUSH2 0x64A JUMP JUMPDEST DUP2 ADD DUP2 DUP2 LT PUSH8 0xFFFFFFFFFFFFFFFF DUP3 GT OR ISZERO PUSH2 0x6B2 JUMPI PUSH2 0x6B1 PUSH2 0x65B JUMP JUMPDEST JUMPDEST DUP1 PUSH1 0x40 MSTORE POP POP POP JUMP JUMPDEST PUSH1 0x0 PUSH2 0x6C5 PUSH2 0x5F6 JUMP JUMPDEST SWAP1 POP PUSH2 0x6D1 DUP3 DUP3 PUSH2 0x68A JUMP JUMPDEST SWAP2 SWAP1 POP JUMP JUMPDEST PUSH1 0x0 PUSH8 0xFFFFFFFFFFFFFFFF DUP3 GT ISZERO PUSH2 0x6F1 JUMPI PUSH2 0x6F0 PUSH2 0x65B JUMP JUMPDEST JUMPDEST PUSH2 0x6FA DUP3 PUSH2 0x64A JUMP JUMPDEST SWAP1 POP PUSH1 0x20 DUP2 ADD SWAP1 POP SWAP2 SWAP1 POP JUMP JUMPDEST DUP3 DUP2 DUP4 CALLDATACOPY PUSH1 0x0 DUP4 DUP4 ADD MSTORE POP POP POP JUMP JUMPDEST PUSH1 0x0 PUSH2 0x729 PUSH2 0x724 DUP5 PUSH2 0x6D6 JUMP JUMPDEST PUSH2 0x6BB JUMP JUMPDEST SWAP1 POP DUP3 DUP2 MSTORE PUSH1 0x20 DUP2 ADD DUP5 DUP5 DUP5 ADD GT ISZERO PUSH2 0x745 JUMPI PUSH2 0x744 PUSH2 0x645 JUMP JUMPDEST JUMPDEST PUSH2 0x750 DUP5 DUP3 DUP6 PUSH2 0x707 JUMP JUMPDEST POP SWAP4 SWAP3 POP POP POP JUMP JUMPDEST PUSH1 0x0 DUP3 PUSH1 0x1F DUP4 ADD SLT PUSH2 0x76D JUMPI PUSH2 0x76C PUSH2 0x640 JUMP JUMPDEST JUMPDEST DUP2 CALLDATALOAD PUSH2 0x77D DUP5 DUP3 PUSH1 0x20 DUP7 ADD PUSH2 0x716 JUMP JUMPDEST SWAP2 POP POP SWAP3 SWAP2 POP POP JUMP JUMPDEST PUSH1 0x0 PUSH32 0xFFFF000000000000000000000000000000000000000000000000000000000000 DUP3 AND SWAP1 POP SWAP2 SWAP1 POP JUMP JUMPDEST PUSH2 0x7BB DUP2 PUSH2 0x786 JUMP JUMPDEST DUP2 EQ PUSH2 0x7C6 JUMPI PUSH1 0x0 DUP1 REVERT JUMPDEST POP JUMP JUMPDEST PUSH1 0x0 DUP2 CALLDATALOAD SWAP1 POP PUSH2 0x7D8 DUP2 PUSH2 0x7B2 JUMP JUMPDEST SWAP3 SWAP2 POP POP JUMP JUMPDEST PUSH1 0x0 DUP1 PUSH1 0x0 PUSH1 0x60 DUP5 DUP7 SUB SLT ISZERO PUSH2 0x7F7 JUMPI PUSH2 0x7F6 PUSH2 0x600 JUMP JUMPDEST JUMPDEST PUSH1 0x0 PUSH2 0x805 DUP7 DUP3 DUP8 ADD PUSH2 0x62B JUMP JUMPDEST SWAP4 POP POP PUSH1 0x20 DUP5 ADD CALLDATALOAD PUSH8 0xFFFFFFFFFFFFFFFF DUP2 GT ISZERO PUSH2 0x826 JUMPI PUSH2 0x825 PUSH2 0x605 JUMP JUMPDEST JUMPDEST PUSH2 0x832 DUP7 DUP3 DUP8 ADD PUSH2 0x758 JUMP JUMPDEST SWAP3 POP POP PUSH1 0x40 PUSH2 0x843 DUP7 DUP3 DUP8 ADD PUSH2 0x7C9 JUMP JUMPDEST SWAP2 POP POP SWAP3 POP SWAP3 POP SWAP3 JUMP JUMPDEST PUSH1 0x0 DUP1 PUSH1 0x0 PUSH1 0x60 DUP5 DUP7 SUB SLT ISZERO PUSH2 0x866 JUMPI PUSH2 0x865 PUSH2 0x600 JUMP JUMPDEST JUMPDEST PUSH1 0x0 DUP5 ADD CALLDATALOAD PUSH8 0xFFFFFFFFFFFFFFFF DUP2 GT ISZERO PUSH2 0x884 JUMPI PUSH2 0x883 PUSH2 0x605 JUMP JUMPDEST JUMPDEST PUSH2 0x890 DUP7 DUP3 DUP8 ADD PUSH2 0x758 JUMP JUMPDEST SWAP4 POP POP PUSH1 0x20 PUSH2 0x8A1 DUP7 DUP3 DUP8 ADD PUSH2 0x62B JUMP JUMPDEST SWAP3 POP POP PUSH1 0x40 PUSH2 0x8B2 DUP7 DUP3 DUP8 ADD PUSH2 0x62B JUMP JUMPDEST SWAP2 POP POP SWAP3 POP SWAP3 POP SWAP3 JUMP JUMPDEST PUSH1 0x0 DUP2 MLOAD SWAP1 POP SWAP2 SWAP1 POP JUMP JUMPDEST PUSH1 0x0 DUP3 DUP3 MSTORE PUSH1 0x20 DUP3 ADD SWAP1 POP SWAP3 SWAP2 POP POP JUMP JUMPDEST PUSH1 0x0 JUMPDEST DUP4 DUP2 LT ISZERO PUSH2 0x8F6 JUMPI DUP1 DUP3 ADD MLOAD DUP2 DUP5 ADD MSTORE PUSH1 0x20 DUP2 ADD SWAP1 POP PUSH2 0x8DB JUMP JUMPDEST PUSH1 0x0 DUP5 DUP5 ADD MSTORE POP POP POP POP JUMP JUMPDEST PUSH1 0x0 PUSH2 0x90D DUP3 PUSH2 0x8BC JUMP JUMPDEST PUSH2 0x917 DUP2 DUP6 PUSH2 0x8C7 JUMP JUMPDEST SWAP4 POP PUSH2 0x927 DUP2 DUP6 PUSH1 0x20 DUP7 ADD PUSH2 0x8D8 JUMP JUMPDEST PUSH2 0x930 DUP2 PUSH2 0x64A JUMP JUMPDEST DUP5 ADD SWAP2 POP POP SWAP3 SWAP2 POP POP JUMP JUMPDEST PUSH2 0x944 DUP2 PUSH2 0x60A JUMP JUMPDEST DUP3 MSTORE POP POP JUMP JUMPDEST PUSH1 0x0 PUSH1 0x60 DUP4 ADD PUSH1 0x0 DUP4 ADD MLOAD DUP5 DUP3 SUB PUSH1 0x0 DUP7 ADD MSTORE PUSH2 0x967 DUP3 DUP3 PUSH2 0x902 JUMP JUMPDEST SWAP2 POP POP PUSH1 0x20 DUP4 ADD MLOAD PUSH2 0x97C PUSH1 0x20 DUP7 ADD DUP3 PUSH2 0x93B JUMP JUMPDEST POP PUSH1 0x40 DUP4 ADD MLOAD PUSH2 0x98F PUSH1 0x40 DUP7 ADD DUP3 PUSH2 0x93B JUMP JUMPDEST POP DUP1 SWAP2 POP POP SWAP3 SWAP2 POP POP JUMP JUMPDEST PUSH1 0x0 PUSH1 0x20 DUP3 ADD SWAP1 POP DUP2 DUP2 SUB PUSH1 0x0 DUP4 ADD MSTORE PUSH2 0x9B4 DUP2 DUP5 PUSH2 0x94A JUMP JUMPDEST SWAP1 POP SWAP3 SWAP2 POP POP JUMP JUMPDEST PUSH1 0x0 PUSH1 0x60 DUP4 ADD PUSH1 0x0 DUP4 ADD MLOAD DUP5 DUP3 SUB PUSH1 0x0 DUP7 ADD MSTORE PUSH2 0x9D9 DUP3 DUP3 PUSH2 0x902 JUMP JUMPDEST SWAP2 POP POP PUSH1 0x20 DUP4 ADD MLOAD PUSH2 0x9EE PUSH1 0x20 DUP7 ADD DUP3 PUSH2 0x93B JUMP JUMPDEST POP PUSH1 0x40 DUP4 ADD MLOAD PUSH2 0xA01 PUSH1 0x40 DUP7 ADD DUP3 PUSH2 0x93B JUMP JUMPDEST POP DUP1 SWAP2 POP POP SWAP3 SWAP2 POP POP JUMP JUMPDEST PUSH1 0x0 PUSH1 0x20 DUP3 ADD SWAP1 POP DUP2 DUP2 SUB PUSH1 0x0 DUP4 ADD MSTORE PUSH2 0xA26 DUP2 DUP5 PUSH2 0x9BC JUMP JUMPDEST SWAP1 POP SWAP3 SWAP2 POP POP JUMP JUMPDEST PUSH32 0x4E487B7100000000000000000000000000000000000000000000000000000000 PUSH1 0x0 MSTORE PUSH1 0x22 PUSH1 0x4 MSTORE PUSH1 0x24 PUSH1 0x0 REVERT JUMPDEST PUSH1 0x0 PUSH1 0x2 DUP3 DIV SWAP1 POP PUSH1 0x1 DUP3 AND DUP1 PUSH2 0xA75 JUMPI PUSH1 0x7F DUP3 AND SWAP2 POP JUMPDEST PUSH1 0x20 DUP3 LT DUP2 SUB PUSH2 0xA88 JUMPI PUSH2 0xA87 PUSH2 0xA2E JUMP JUMPDEST JUMPDEST POP SWAP2 SWAP1 POP JUMP JUMPDEST PUSH1 0x0 DUP2 SWAP1 POP DUP2 PUSH1 0x0 MSTORE PUSH1 0x20 PUSH1 0x0 KECCAK256 SWAP1 POP SWAP2 SWAP1 POP JUMP JUMPDEST PUSH1 0x0 PUSH1 0x20 PUSH1 0x1F DUP4 ADD DIV SWAP1 POP SWAP2 SWAP1 POP JUMP JUMPDEST PUSH1 0x0 DUP3 DUP3 SHL SWAP1 POP SWAP3 SWAP2 POP POP JUMP JUMPDEST PUSH1 0x0 PUSH1 0x8 DUP4 MUL PUSH2 0xAF0 PUSH32 0xFFFFFFFFFFFFFFFFFFFFFFFFFFFFFFFFFFFFFFFFFFFFFFFFFFFFFFFFFFFFFFFF DUP3 PUSH2 0xAB3 JUMP JUMPDEST PUSH2 0xAFA DUP7 DUP4 PUSH2 0xAB3 JUMP JUMPDEST SWAP6 POP DUP1 NOT DUP5 AND SWAP4 POP DUP1 DUP7 AND DUP5 OR SWAP3 POP POP POP SWAP4 SWAP3 POP POP POP JUMP JUMPDEST PUSH1 0x0 DUP2 SWAP1 POP SWAP2 SWAP1 POP JUMP JUMPDEST PUSH1 0x0 PUSH2 0xB37 PUSH2 0xB32 PUSH2 0xB2D DUP5 PUSH2 0x60A JUMP JUMPDEST PUSH2 0xB12 JUMP JUMPDEST PUSH2 0x60A JUMP JUMPDEST SWAP1 POP SWAP2 SWAP1 POP JUMP JUMPDEST PUSH1 0x0 DUP2 SWAP1 POP SWAP2 SWAP1 POP JUMP JUMPDEST PUSH2 0xB51 DUP4 PUSH2 0xB1C JUMP JUMPDEST PUSH2 0xB65 PUSH2 0xB5D DUP3 PUSH2 0xB3E JUMP JUMPDEST DUP5 DUP5 SLOAD PUSH2 0xAC0 JUMP JUMPDEST DUP3 SSTORE POP POP POP POP JUMP JUMPDEST PUSH1 0x0 SWAP1 JUMP JUMPDEST PUSH2 0xB7A PUSH2 0xB6D JUMP JUMPDEST PUSH2 0xB85 DUP2 DUP5 DUP5 PUSH2 0xB48 JUMP JUMPDEST POP POP POP JUMP JUMPDEST JUMPDEST DUP2 DUP2 LT ISZERO PUSH2 0xBA9 JUMPI PUSH2 0xB9E PUSH1 0x0 DUP3 PUSH2 0xB72 JUMP JUMPDEST PUSH1 0x1 DUP2 ADD SWAP1 POP PUSH2 0xB8B JUMP JUMPDEST POP POP JUMP JUMPDEST PUSH1 0x1F DUP3 GT ISZERO PUSH2 0xBEE JUMPI PUSH2 0xBBF DUP2 PUSH2 0xA8E JUMP JUMPDEST PUSH2 0xBC8 DUP5 PUSH2 0xAA3 JUMP JUMPDEST DUP2 ADD PUSH1 0x20 DUP6 LT ISZERO PUSH2 0xBD7 JUMPI DUP2 SWAP1 POP JUMPDEST PUSH2 0xBEB PUSH2 0xBE3 DUP6 PUSH2 0xAA3 JUMP JUMPDEST DUP4 ADD DUP3 PUSH2 0xB8A JUMP JUMPDEST POP POP JUMPDEST POP POP POP JUMP JUMPDEST PUSH1 0x0 DUP3 DUP3 SHR SWAP1 POP SWAP3 SWAP2 POP POP JUMP JUMPDEST PUSH1 0x0 PUSH2 0xC11 PUSH1 0x0 NOT DUP5 PUSH1 0x8 MUL PUSH2 0xBF3 JUMP JUMPDEST NOT DUP1 DUP4 AND SWAP2 POP POP SWAP3 SWAP2 POP POP JUMP JUMPDEST PUSH1 0x0 PUSH2 0xC2A DUP4 DUP4 PUSH2 0xC00 JUMP JUMPDEST SWAP2 POP DUP3 PUSH1 0x2 MUL DUP3 OR SWAP1 POP SWAP3 SWAP2 POP POP JUMP JUMPDEST PUSH2 0xC43 DUP3 PUSH2 0x8BC JUMP JUMPDEST PUSH8 0xFFFFFFFFFFFFFFFF DUP2 GT ISZERO PUSH2 0xC5C JUMPI PUSH2 0xC5B PUSH2 0x65B JUMP JUMPDEST JUMPDEST PUSH2 0xC66 DUP3 SLOAD PUSH2 0xA5D JUMP JUMPDEST PUSH2 0xC71 DUP3 DUP3 DUP6 PUSH2 0xBAD JUMP JUMPDEST PUSH1 0x0 PUSH1 0x20 SWAP1 POP PUSH1 0x1F DUP4 GT PUSH1 0x1 DUP2 EQ PUSH2 0xCA4 JUMPI PUSH1 0x0 DUP5 ISZERO PUSH2 0xC92 JUMPI DUP3 DUP8 ADD MLOAD SWAP1 POP JUMPDEST PUSH2 0xC9C DUP6 DUP3 PUSH2 0xC1E JUMP JUMPDEST DUP7 SSTORE POP PUSH2 0xD04 JUMP JUMPDEST PUSH1 0x1F NOT DUP5 AND PUSH2 0xCB2 DUP7 PUSH2 0xA8E JUMP JUMPDEST PUSH1 0x0 JUMPDEST DUP3 DUP2 LT ISZERO PUSH2 0xCDA JUMPI DUP5 DUP10 ADD MLOAD DUP3 SSTORE PUSH1 0x1 DUP3 ADD SWAP2 POP PUSH1 0x20 DUP6 ADD SWAP5 POP PUSH1 0x20 DUP2 ADD SWAP1 POP PUSH2 0xCB5 JUMP JUMPDEST DUP7 DUP4 LT ISZERO PUSH2 0xCF7 JUMPI DUP5 DUP10 ADD MLOAD PUSH2 0xCF3 PUSH1 0x1F DUP10 AND DUP3 PUSH2 0xC00 JUMP JUMPDEST DUP4 SSTORE POP JUMPDEST PUSH1 0x1 PUSH1 0x2 DUP9 MUL ADD DUP9 SSTORE POP POP POP JUMPDEST POP POP POP POP POP POP JUMP INVALID LOG2 PUSH5 0x6970667358 0x22 SLT KECCAK256 PUSH26 0x754F43544464B326994AF8119518092EFC74AA02EB41753A40F7 ORIGIN LOG1 0xE5 0xE4 PUSH22 0x64736F6C634300081200330000000000000000000000 "
				},
				"gasEstimates": {
					"creation": {
						"codeDepositCost": "678800",
						"executionCost": "715",
						"totalCost": "679515"
					},
					"external": {
						"getC()": "infinite",
						"getS()": "infinite",
						"pushClass(string,uint256,uint256)": "infinite",
						"pushD(uint256,string,bytes2)": "infinite",
						"pushStudent(string,uint256,uint256)": "infinite",
						"setC(string,uint256,uint256)": "infinite",
						"setDD(uint256,string,bytes2)": "infinite",
						"setS(string,uint256,uint256)": "infinite"
					}
				},
				"methodIdentifiers": {
					"getC()": "a2375d1e",
					"getS()": "e93314ab",
					"pushClass(string,uint256,uint256)": "edeb21cf",
					"pushD(uint256,string,bytes2)": "cd914def",
					"pushStudent(string,uint256,uint256)": "562ca543",
					"setC(string,uint256,uint256)": "93dbeaa3",
					"setDD(uint256,string,bytes2)": "1908791c",
					"setS(string,uint256,uint256)": "fb49cfbc"
				}
			},
			"storageLayout": {
				"storage": [
					{
						"astId": 18,
						"contract": "contracts-lecture/230508.sol:note",
						"label": "s",
						"offset": 0,
						"slot": "0",
						"type": "t_struct(Student)8_storage"
					},
					{
						"astId": 21,
						"contract": "contracts-lecture/230508.sol:note",
						"label": "c",
						"offset": 0,
						"slot": "3",
						"type": "t_struct(Class)15_storage"
					},
					{
						"astId": 79,
						"contract": "contracts-lecture/230508.sol:note",
						"label": "students",
						"offset": 0,
						"slot": "6",
						"type": "t_array(t_struct(Student)8_storage)dyn_storage"
					},
					{
						"astId": 83,
						"contract": "contracts-lecture/230508.sol:note",
						"label": "classes",
						"offset": 0,
						"slot": "7",
						"type": "t_array(t_struct(Class)15_storage)dyn_storage"
					},
					{
						"astId": 133,
						"contract": "contracts-lecture/230508.sol:note",
						"label": "dd",
						"offset": 0,
						"slot": "8",
						"type": "t_struct(D)130_storage"
					},
					{
						"astId": 155,
						"contract": "contracts-lecture/230508.sol:note",
						"label": "Ds",
						"offset": 0,
						"slot": "11",
						"type": "t_array(t_struct(D)130_storage)dyn_storage"
					}
				],
				"types": {
					"t_array(t_struct(Class)15_storage)dyn_storage": {
						"base": "t_struct(Class)15_storage",
						"encoding": "dynamic_array",
						"label": "struct note.Class[]",
						"numberOfBytes": "32"
					},
					"t_array(t_struct(D)130_storage)dyn_storage": {
						"base": "t_struct(D)130_storage",
						"encoding": "dynamic_array",
						"label": "struct note.D[]",
						"numberOfBytes": "32"
					},
					"t_array(t_struct(Student)8_storage)dyn_storage": {
						"base": "t_struct(Student)8_storage",
						"encoding": "dynamic_array",
						"label": "struct note.Student[]",
						"numberOfBytes": "32"
					},
					"t_bytes2": {
						"encoding": "inplace",
						"label": "bytes2",
						"numberOfBytes": "2"
					},
					"t_string_storage": {
						"encoding": "bytes",
						"label": "string",
						"numberOfBytes": "32"
					},
					"t_struct(Class)15_storage": {
						"encoding": "inplace",
						"label": "struct note.Class",
						"members": [
							{
								"astId": 10,
								"contract": "contracts-lecture/230508.sol:note",
								"label": "title",
								"offset": 0,
								"slot": "0",
								"type": "t_string_storage"
							},
							{
								"astId": 12,
								"contract": "contracts-lecture/230508.sol:note",
								"label": "number",
								"offset": 0,
								"slot": "1",
								"type": "t_uint256"
							},
							{
								"astId": 14,
								"contract": "contracts-lecture/230508.sol:note",
								"label": "date",
								"offset": 0,
								"slot": "2",
								"type": "t_uint256"
							}
						],
						"numberOfBytes": "96"
					},
					"t_struct(D)130_storage": {
						"encoding": "inplace",
						"label": "struct note.D",
						"members": [
							{
								"astId": 125,
								"contract": "contracts-lecture/230508.sol:note",
								"label": "a",
								"offset": 0,
								"slot": "0",
								"type": "t_uint256"
							},
							{
								"astId": 127,
								"contract": "contracts-lecture/230508.sol:note",
								"label": "b",
								"offset": 0,
								"slot": "1",
								"type": "t_string_storage"
							},
							{
								"astId": 129,
								"contract": "contracts-lecture/230508.sol:note",
								"label": "c",
								"offset": 0,
								"slot": "2",
								"type": "t_bytes2"
							}
						],
						"numberOfBytes": "96"
					},
					"t_struct(Student)8_storage": {
						"encoding": "inplace",
						"label": "struct note.Student",
						"members": [
							{
								"astId": 3,
								"contract": "contracts-lecture/230508.sol:note",
								"label": "name",
								"offset": 0,
								"slot": "0",
								"type": "t_string_storage"
							},
							{
								"astId": 5,
								"contract": "contracts-lecture/230508.sol:note",
								"label": "number",
								"offset": 0,
								"slot": "1",
								"type": "t_uint256"
							},
							{
								"astId": 7,
								"contract": "contracts-lecture/230508.sol:note",
								"label": "birth",
								"offset": 0,
								"slot": "2",
								"type": "t_uint256"
							}
						],
						"numberOfBytes": "96"
					},
					"t_uint256": {
						"encoding": "inplace",
						"label": "uint256",
						"numberOfBytes": "32"
					}
				}
			},
			"userdoc": {
				"kind": "user",
				"methods": {},
				"version": 1
			}
		}
	}
}