{
	"contracts-basic/week4.sol": {
		"_34": {
			"abi": [
				{
					"inputs": [],
					"name": "getAvg",
					"outputs": [
						{
							"internalType": "uint256",
							"name": "",
							"type": "uint256"
						}
					],
					"stateMutability": "view",
					"type": "function"
				}
			],
			"devdoc": {
				"kind": "dev",
				"methods": {},
				"version": 1
			},
			"evm": {
				"assembly": "    /* \"contracts-basic/week4.sol\":941:1287  contract _34 {... */\n  mstore(0x40, 0x80)\n  callvalue\n  dup1\n  iszero\n  tag_1\n  jumpi\n  0x00\n  dup1\n  revert\ntag_1:\n  pop\n  dataSize(sub_0)\n  dup1\n  dataOffset(sub_0)\n  0x00\n  codecopy\n  0x00\n  return\nstop\n\nsub_0: assembly {\n        /* \"contracts-basic/week4.sol\":941:1287  contract _34 {... */\n      mstore(0x40, 0x80)\n      callvalue\n      dup1\n      iszero\n      tag_1\n      jumpi\n      0x00\n      dup1\n      revert\n    tag_1:\n      pop\n      jumpi(tag_2, lt(calldatasize, 0x04))\n      shr(0xe0, calldataload(0x00))\n      dup1\n      0x390b6a4c\n      eq\n      tag_3\n      jumpi\n    tag_2:\n      0x00\n      dup1\n      revert\n        /* \"contracts-basic/week4.sol\":1075:1285  function getAvg() public view returns(uint) {... */\n    tag_3:\n      tag_4\n      tag_5\n      jump\t// in\n    tag_4:\n      mload(0x40)\n      tag_6\n      swap2\n      swap1\n      tag_7\n      jump\t// in\n    tag_6:\n      mload(0x40)\n      dup1\n      swap2\n      sub\n      swap1\n      return\n    tag_5:\n        /* \"contracts-basic/week4.sol\":1113:1117  uint */\n      0x00\n        /* \"contracts-basic/week4.sol\":1129:1139  uint total */\n      dup1\n        /* \"contracts-basic/week4.sol\":1154:1160  uint i */\n      0x00\n        /* \"contracts-basic/week4.sol\":1149:1239  for (uint i=0; i<students.length; i++) {... */\n    tag_9:\n        /* \"contracts-basic/week4.sol\":1166:1174  students */\n      0x00\n        /* \"contracts-basic/week4.sol\":1166:1181  students.length */\n      dup1\n      sload\n      swap1\n      pop\n        /* \"contracts-basic/week4.sol\":1164:1165  i */\n      dup2\n        /* \"contracts-basic/week4.sol\":1164:1181  i<students.length */\n      lt\n        /* \"contracts-basic/week4.sol\":1149:1239  for (uint i=0; i<students.length; i++) {... */\n      iszero\n      tag_10\n      jumpi\n        /* \"contracts-basic/week4.sol\":1211:1219  students */\n      0x00\n        /* \"contracts-basic/week4.sol\":1220:1221  i */\n      dup2\n        /* \"contracts-basic/week4.sol\":1211:1222  students[i] */\n      dup2\n      sload\n      dup2\n      lt\n      tag_12\n      jumpi\n      tag_13\n      tag_14\n      jump\t// in\n    tag_13:\n    tag_12:\n      swap1\n      0x00\n      mstore\n      keccak256(0x00, 0x20)\n      swap1\n      0x03\n      mul\n      add\n        /* \"contracts-basic/week4.sol\":1211:1228  students[i].score */\n      0x02\n      add\n      sload\n        /* \"contracts-basic/week4.sol\":1202:1228  total += students[i].score */\n      dup3\n      tag_16\n      swap2\n      swap1\n      tag_17\n      jump\t// in\n    tag_16:\n      swap2\n      pop\n        /* \"contracts-basic/week4.sol\":1183:1186  i++ */\n      dup1\n      dup1\n      tag_18\n      swap1\n      tag_19\n      jump\t// in\n    tag_18:\n      swap2\n      pop\n      pop\n        /* \"contracts-basic/week4.sol\":1149:1239  for (uint i=0; i<students.length; i++) {... */\n      jump(tag_9)\n    tag_10:\n      pop\n        /* \"contracts-basic/week4.sol\":1263:1271  students */\n      0x00\n        /* \"contracts-basic/week4.sol\":1263:1278  students.length */\n      dup1\n      sload\n      swap1\n      pop\n        /* \"contracts-basic/week4.sol\":1255:1260  total */\n      dup2\n        /* \"contracts-basic/week4.sol\":1255:1278  total / students.length */\n      tag_20\n      swap2\n      swap1\n      tag_21\n      jump\t// in\n    tag_20:\n        /* \"contracts-basic/week4.sol\":1248:1278  return total / students.length */\n      swap2\n      pop\n      pop\n        /* \"contracts-basic/week4.sol\":1075:1285  function getAvg() public view returns(uint) {... */\n      swap1\n      jump\t// out\n        /* \"#utility.yul\":7:84   */\n    tag_22:\n        /* \"#utility.yul\":44:51   */\n      0x00\n        /* \"#utility.yul\":73:78   */\n      dup2\n        /* \"#utility.yul\":62:78   */\n      swap1\n      pop\n        /* \"#utility.yul\":7:84   */\n      swap2\n      swap1\n      pop\n      jump\t// out\n        /* \"#utility.yul\":90:208   */\n    tag_23:\n        /* \"#utility.yul\":177:201   */\n      tag_29\n        /* \"#utility.yul\":195:200   */\n      dup2\n        /* \"#utility.yul\":177:201   */\n      tag_22\n      jump\t// in\n    tag_29:\n        /* \"#utility.yul\":172:175   */\n      dup3\n        /* \"#utility.yul\":165:202   */\n      mstore\n        /* \"#utility.yul\":90:208   */\n      pop\n      pop\n      jump\t// out\n        /* \"#utility.yul\":214:436   */\n    tag_7:\n        /* \"#utility.yul\":307:311   */\n      0x00\n        /* \"#utility.yul\":345:347   */\n      0x20\n        /* \"#utility.yul\":334:343   */\n      dup3\n        /* \"#utility.yul\":330:348   */\n      add\n        /* \"#utility.yul\":322:348   */\n      swap1\n      pop\n        /* \"#utility.yul\":358:429   */\n      tag_31\n        /* \"#utility.yul\":426:427   */\n      0x00\n        /* \"#utility.yul\":415:424   */\n      dup4\n        /* \"#utility.yul\":411:428   */\n      add\n        /* \"#utility.yul\":402:408   */\n      dup5\n        /* \"#utility.yul\":358:429   */\n      tag_23\n      jump\t// in\n    tag_31:\n        /* \"#utility.yul\":214:436   */\n      swap3\n      swap2\n      pop\n      pop\n      jump\t// out\n        /* \"#utility.yul\":442:622   */\n    tag_14:\n        /* \"#utility.yul\":490:567   */\n      0x4e487b7100000000000000000000000000000000000000000000000000000000\n        /* \"#utility.yul\":487:488   */\n      0x00\n        /* \"#utility.yul\":480:568   */\n      mstore\n        /* \"#utility.yul\":587:591   */\n      0x32\n        /* \"#utility.yul\":584:585   */\n      0x04\n        /* \"#utility.yul\":577:592   */\n      mstore\n        /* \"#utility.yul\":611:615   */\n      0x24\n        /* \"#utility.yul\":608:609   */\n      0x00\n        /* \"#utility.yul\":601:616   */\n      revert\n        /* \"#utility.yul\":628:808   */\n    tag_24:\n        /* \"#utility.yul\":676:753   */\n      0x4e487b7100000000000000000000000000000000000000000000000000000000\n        /* \"#utility.yul\":673:674   */\n      0x00\n        /* \"#utility.yul\":666:754   */\n      mstore\n        /* \"#utility.yul\":773:777   */\n      0x11\n        /* \"#utility.yul\":770:771   */\n      0x04\n        /* \"#utility.yul\":763:778   */\n      mstore\n        /* \"#utility.yul\":797:801   */\n      0x24\n        /* \"#utility.yul\":794:795   */\n      0x00\n        /* \"#utility.yul\":787:802   */\n      revert\n        /* \"#utility.yul\":814:1005   */\n    tag_17:\n        /* \"#utility.yul\":854:857   */\n      0x00\n        /* \"#utility.yul\":873:893   */\n      tag_35\n        /* \"#utility.yul\":891:892   */\n      dup3\n        /* \"#utility.yul\":873:893   */\n      tag_22\n      jump\t// in\n    tag_35:\n        /* \"#utility.yul\":868:893   */\n      swap2\n      pop\n        /* \"#utility.yul\":907:927   */\n      tag_36\n        /* \"#utility.yul\":925:926   */\n      dup4\n        /* \"#utility.yul\":907:927   */\n      tag_22\n      jump\t// in\n    tag_36:\n        /* \"#utility.yul\":902:927   */\n      swap3\n      pop\n        /* \"#utility.yul\":950:951   */\n      dup3\n        /* \"#utility.yul\":947:948   */\n      dup3\n        /* \"#utility.yul\":943:952   */\n      add\n        /* \"#utility.yul\":936:952   */\n      swap1\n      pop\n        /* \"#utility.yul\":971:974   */\n      dup1\n        /* \"#utility.yul\":968:969   */\n      dup3\n        /* \"#utility.yul\":965:975   */\n      gt\n        /* \"#utility.yul\":962:998   */\n      iszero\n      tag_37\n      jumpi\n        /* \"#utility.yul\":978:996   */\n      tag_38\n      tag_24\n      jump\t// in\n    tag_38:\n        /* \"#utility.yul\":962:998   */\n    tag_37:\n        /* \"#utility.yul\":814:1005   */\n      swap3\n      swap2\n      pop\n      pop\n      jump\t// out\n        /* \"#utility.yul\":1011:1244   */\n    tag_19:\n        /* \"#utility.yul\":1050:1053   */\n      0x00\n        /* \"#utility.yul\":1073:1097   */\n      tag_40\n        /* \"#utility.yul\":1091:1096   */\n      dup3\n        /* \"#utility.yul\":1073:1097   */\n      tag_22\n      jump\t// in\n    tag_40:\n        /* \"#utility.yul\":1064:1097   */\n      swap2\n      pop\n        /* \"#utility.yul\":1119:1185   */\n      0xffffffffffffffffffffffffffffffffffffffffffffffffffffffffffffffff\n        /* \"#utility.yul\":1112:1117   */\n      dup3\n        /* \"#utility.yul\":1109:1186   */\n      sub\n        /* \"#utility.yul\":1106:1209   */\n      tag_41\n      jumpi\n        /* \"#utility.yul\":1189:1207   */\n      tag_42\n      tag_24\n      jump\t// in\n    tag_42:\n        /* \"#utility.yul\":1106:1209   */\n    tag_41:\n        /* \"#utility.yul\":1236:1237   */\n      0x01\n        /* \"#utility.yul\":1229:1234   */\n      dup3\n        /* \"#utility.yul\":1225:1238   */\n      add\n        /* \"#utility.yul\":1218:1238   */\n      swap1\n      pop\n        /* \"#utility.yul\":1011:1244   */\n      swap2\n      swap1\n      pop\n      jump\t// out\n        /* \"#utility.yul\":1250:1430   */\n    tag_25:\n        /* \"#utility.yul\":1298:1375   */\n      0x4e487b7100000000000000000000000000000000000000000000000000000000\n        /* \"#utility.yul\":1295:1296   */\n      0x00\n        /* \"#utility.yul\":1288:1376   */\n      mstore\n        /* \"#utility.yul\":1395:1399   */\n      0x12\n        /* \"#utility.yul\":1392:1393   */\n      0x04\n        /* \"#utility.yul\":1385:1400   */\n      mstore\n        /* \"#utility.yul\":1419:1423   */\n      0x24\n        /* \"#utility.yul\":1416:1417   */\n      0x00\n        /* \"#utility.yul\":1409:1424   */\n      revert\n        /* \"#utility.yul\":1436:1621   */\n    tag_21:\n        /* \"#utility.yul\":1476:1477   */\n      0x00\n        /* \"#utility.yul\":1493:1513   */\n      tag_45\n        /* \"#utility.yul\":1511:1512   */\n      dup3\n        /* \"#utility.yul\":1493:1513   */\n      tag_22\n      jump\t// in\n    tag_45:\n        /* \"#utility.yul\":1488:1513   */\n      swap2\n      pop\n        /* \"#utility.yul\":1527:1547   */\n      tag_46\n        /* \"#utility.yul\":1545:1546   */\n      dup4\n        /* \"#utility.yul\":1527:1547   */\n      tag_22\n      jump\t// in\n    tag_46:\n        /* \"#utility.yul\":1522:1547   */\n      swap3\n      pop\n        /* \"#utility.yul\":1566:1567   */\n      dup3\n        /* \"#utility.yul\":1556:1591   */\n      tag_47\n      jumpi\n        /* \"#utility.yul\":1571:1589   */\n      tag_48\n      tag_25\n      jump\t// in\n    tag_48:\n        /* \"#utility.yul\":1556:1591   */\n    tag_47:\n        /* \"#utility.yul\":1613:1614   */\n      dup3\n        /* \"#utility.yul\":1610:1611   */\n      dup3\n        /* \"#utility.yul\":1606:1615   */\n      div\n        /* \"#utility.yul\":1601:1615   */\n      swap1\n      pop\n        /* \"#utility.yul\":1436:1621   */\n      swap3\n      swap2\n      pop\n      pop\n      jump\t// out\n\n    auxdata: 0xa264697066735822122000272fe6aef70835fb9f9295a561c6cd389a16425319f3eac77d5cb334e19c5c64736f6c63430008120033\n}\n",
				"bytecode": {
					"linkReferences": {},
					"object": "608060405234801561001057600080fd5b50610263806100206000396000f3fe608060405234801561001057600080fd5b506004361061002b5760003560e01c8063390b6a4c14610030575b600080fd5b61003861004e565b60405161004591906100d8565b60405180910390f35b60008060005b6000805490508110156100a75760008181548110610075576100746100f3565b5b906000526020600020906003020160020154826100929190610151565b9150808061009f90610185565b915050610054565b50600080549050816100b991906101fc565b91505090565b6000819050919050565b6100d2816100bf565b82525050565b60006020820190506100ed60008301846100c9565b92915050565b7f4e487b7100000000000000000000000000000000000000000000000000000000600052603260045260246000fd5b7f4e487b7100000000000000000000000000000000000000000000000000000000600052601160045260246000fd5b600061015c826100bf565b9150610167836100bf565b925082820190508082111561017f5761017e610122565b5b92915050565b6000610190826100bf565b91507fffffffffffffffffffffffffffffffffffffffffffffffffffffffffffffffff82036101c2576101c1610122565b5b600182019050919050565b7f4e487b7100000000000000000000000000000000000000000000000000000000600052601260045260246000fd5b6000610207826100bf565b9150610212836100bf565b925082610222576102216101cd565b5b82820490509291505056fea264697066735822122000272fe6aef70835fb9f9295a561c6cd389a16425319f3eac77d5cb334e19c5c64736f6c63430008120033",
					"opcodes": "PUSH1 0x80 PUSH1 0x40 MSTORE CALLVALUE DUP1 ISZERO PUSH2 0x10 JUMPI PUSH1 0x0 DUP1 REVERT JUMPDEST POP PUSH2 0x263 DUP1 PUSH2 0x20 PUSH1 0x0 CODECOPY PUSH1 0x0 RETURN INVALID PUSH1 0x80 PUSH1 0x40 MSTORE CALLVALUE DUP1 ISZERO PUSH2 0x10 JUMPI PUSH1 0x0 DUP1 REVERT JUMPDEST POP PUSH1 0x4 CALLDATASIZE LT PUSH2 0x2B JUMPI PUSH1 0x0 CALLDATALOAD PUSH1 0xE0 SHR DUP1 PUSH4 0x390B6A4C EQ PUSH2 0x30 JUMPI JUMPDEST PUSH1 0x0 DUP1 REVERT JUMPDEST PUSH2 0x38 PUSH2 0x4E JUMP JUMPDEST PUSH1 0x40 MLOAD PUSH2 0x45 SWAP2 SWAP1 PUSH2 0xD8 JUMP JUMPDEST PUSH1 0x40 MLOAD DUP1 SWAP2 SUB SWAP1 RETURN JUMPDEST PUSH1 0x0 DUP1 PUSH1 0x0 JUMPDEST PUSH1 0x0 DUP1 SLOAD SWAP1 POP DUP2 LT ISZERO PUSH2 0xA7 JUMPI PUSH1 0x0 DUP2 DUP2 SLOAD DUP2 LT PUSH2 0x75 JUMPI PUSH2 0x74 PUSH2 0xF3 JUMP JUMPDEST JUMPDEST SWAP1 PUSH1 0x0 MSTORE PUSH1 0x20 PUSH1 0x0 KECCAK256 SWAP1 PUSH1 0x3 MUL ADD PUSH1 0x2 ADD SLOAD DUP3 PUSH2 0x92 SWAP2 SWAP1 PUSH2 0x151 JUMP JUMPDEST SWAP2 POP DUP1 DUP1 PUSH2 0x9F SWAP1 PUSH2 0x185 JUMP JUMPDEST SWAP2 POP POP PUSH2 0x54 JUMP JUMPDEST POP PUSH1 0x0 DUP1 SLOAD SWAP1 POP DUP2 PUSH2 0xB9 SWAP2 SWAP1 PUSH2 0x1FC JUMP JUMPDEST SWAP2 POP POP SWAP1 JUMP JUMPDEST PUSH1 0x0 DUP2 SWAP1 POP SWAP2 SWAP1 POP JUMP JUMPDEST PUSH2 0xD2 DUP2 PUSH2 0xBF JUMP JUMPDEST DUP3 MSTORE POP POP JUMP JUMPDEST PUSH1 0x0 PUSH1 0x20 DUP3 ADD SWAP1 POP PUSH2 0xED PUSH1 0x0 DUP4 ADD DUP5 PUSH2 0xC9 JUMP JUMPDEST SWAP3 SWAP2 POP POP JUMP JUMPDEST PUSH32 0x4E487B7100000000000000000000000000000000000000000000000000000000 PUSH1 0x0 MSTORE PUSH1 0x32 PUSH1 0x4 MSTORE PUSH1 0x24 PUSH1 0x0 REVERT JUMPDEST PUSH32 0x4E487B7100000000000000000000000000000000000000000000000000000000 PUSH1 0x0 MSTORE PUSH1 0x11 PUSH1 0x4 MSTORE PUSH1 0x24 PUSH1 0x0 REVERT JUMPDEST PUSH1 0x0 PUSH2 0x15C DUP3 PUSH2 0xBF JUMP JUMPDEST SWAP2 POP PUSH2 0x167 DUP4 PUSH2 0xBF JUMP JUMPDEST SWAP3 POP DUP3 DUP3 ADD SWAP1 POP DUP1 DUP3 GT ISZERO PUSH2 0x17F JUMPI PUSH2 0x17E PUSH2 0x122 JUMP JUMPDEST JUMPDEST SWAP3 SWAP2 POP POP JUMP JUMPDEST PUSH1 0x0 PUSH2 0x190 DUP3 PUSH2 0xBF JUMP JUMPDEST SWAP2 POP PUSH32 0xFFFFFFFFFFFFFFFFFFFFFFFFFFFFFFFFFFFFFFFFFFFFFFFFFFFFFFFFFFFFFFFF DUP3 SUB PUSH2 0x1C2 JUMPI PUSH2 0x1C1 PUSH2 0x122 JUMP JUMPDEST JUMPDEST PUSH1 0x1 DUP3 ADD SWAP1 POP SWAP2 SWAP1 POP JUMP JUMPDEST PUSH32 0x4E487B7100000000000000000000000000000000000000000000000000000000 PUSH1 0x0 MSTORE PUSH1 0x12 PUSH1 0x4 MSTORE PUSH1 0x24 PUSH1 0x0 REVERT JUMPDEST PUSH1 0x0 PUSH2 0x207 DUP3 PUSH2 0xBF JUMP JUMPDEST SWAP2 POP PUSH2 0x212 DUP4 PUSH2 0xBF JUMP JUMPDEST SWAP3 POP DUP3 PUSH2 0x222 JUMPI PUSH2 0x221 PUSH2 0x1CD JUMP JUMPDEST JUMPDEST DUP3 DUP3 DIV SWAP1 POP SWAP3 SWAP2 POP POP JUMP INVALID LOG2 PUSH5 0x6970667358 0x22 SLT KECCAK256 STOP 0x27 0x2F 0xE6 0xAE 0xF7 ADDMOD CALLDATALOAD 0xFB SWAP16 SWAP3 SWAP6 0xA5 PUSH2 0xC6CD CODESIZE SWAP11 AND TIMESTAMP MSTORE8 NOT RETURN 0xEA 0xC7 PUSH30 0x5CB334E19C5C64736F6C6343000812003300000000000000000000000000 "
				},
				"gasEstimates": {
					"creation": {
						"codeDepositCost": "122200",
						"executionCost": "171",
						"totalCost": "122371"
					},
					"external": {
						"getAvg()": "infinite"
					}
				},
				"methodIdentifiers": {
					"getAvg()": "390b6a4c"
				}
			},
			"storageLayout": {
				"storage": [
					{
						"astId": 130,
						"contract": "contracts-basic/week4.sol:_34",
						"label": "students",
						"offset": 0,
						"slot": "0",
						"type": "t_array(t_struct(student)126_storage)dyn_storage"
					}
				],
				"types": {
					"t_array(t_struct(student)126_storage)dyn_storage": {
						"base": "t_struct(student)126_storage",
						"encoding": "dynamic_array",
						"label": "struct _34.student[]",
						"numberOfBytes": "32"
					},
					"t_string_storage": {
						"encoding": "bytes",
						"label": "string",
						"numberOfBytes": "32"
					},
					"t_struct(student)126_storage": {
						"encoding": "inplace",
						"label": "struct _34.student",
						"members": [
							{
								"astId": 121,
								"contract": "contracts-basic/week4.sol:_34",
								"label": "name",
								"offset": 0,
								"slot": "0",
								"type": "t_string_storage"
							},
							{
								"astId": 123,
								"contract": "contracts-basic/week4.sol:_34",
								"label": "number",
								"offset": 0,
								"slot": "1",
								"type": "t_uint256"
							},
							{
								"astId": 125,
								"contract": "contracts-basic/week4.sol:_34",
								"label": "score",
								"offset": 0,
								"slot": "2",
								"type": "t_uint256"
							}
						],
						"numberOfBytes": "96"
					},
					"t_uint256": {
						"encoding": "inplace",
						"label": "uint256",
						"numberOfBytes": "32"
					}
				}
			},
			"userdoc": {
				"kind": "user",
				"methods": {},
				"version": 1
			}
		}
	}
}