{
	"contracts-basic/week4.sol": {
		"_36": {
			"abi": [
				{
					"inputs": [
						{
							"internalType": "uint256",
							"name": "a",
							"type": "uint256"
						}
					],
					"name": "returnStatus",
					"outputs": [
						{
							"internalType": "enum _36.Status",
							"name": "",
							"type": "uint8"
						}
					],
					"stateMutability": "pure",
					"type": "function"
				}
			],
			"devdoc": {
				"kind": "dev",
				"methods": {},
				"version": 1
			},
			"evm": {
				"assembly": "    /* \"contracts-basic/week4.sol\":1618:1948  contract _36 {... */\n  mstore(0x40, 0x80)\n  callvalue\n  dup1\n  iszero\n  tag_1\n  jumpi\n  0x00\n  dup1\n  revert\ntag_1:\n  pop\n  dataSize(sub_0)\n  dup1\n  dataOffset(sub_0)\n  0x00\n  codecopy\n  0x00\n  return\nstop\n\nsub_0: assembly {\n        /* \"contracts-basic/week4.sol\":1618:1948  contract _36 {... */\n      mstore(0x40, 0x80)\n      callvalue\n      dup1\n      iszero\n      tag_1\n      jumpi\n      0x00\n      dup1\n      revert\n    tag_1:\n      pop\n      jumpi(tag_2, lt(calldatasize, 0x04))\n      shr(0xe0, calldataload(0x00))\n      dup1\n      0xe661b3d5\n      eq\n      tag_3\n      jumpi\n    tag_2:\n      0x00\n      dup1\n      revert\n        /* \"contracts-basic/week4.sol\":1705:1946  function returnStatus(uint a) public pure returns(Status) {... */\n    tag_3:\n      tag_4\n      0x04\n      dup1\n      calldatasize\n      sub\n      dup2\n      add\n      swap1\n      tag_5\n      swap2\n      swap1\n      tag_6\n      jump\t// in\n    tag_5:\n      tag_7\n      jump\t// in\n    tag_4:\n      mload(0x40)\n      tag_8\n      swap2\n      swap1\n      tag_9\n      jump\t// in\n    tag_8:\n      mload(0x40)\n      dup1\n      swap2\n      sub\n      swap1\n      return\n    tag_7:\n        /* \"contracts-basic/week4.sol\":1755:1761  Status */\n      0x00\n        /* \"contracts-basic/week4.sol\":1782:1783  7 */\n      0x07\n        /* \"contracts-basic/week4.sol\":1777:1778  a */\n      dup3\n        /* \"contracts-basic/week4.sol\":1777:1783  a >= 7 */\n      lt\n        /* \"contracts-basic/week4.sol\":1773:1940  if (a >= 7) {... */\n      tag_11\n      jumpi\n        /* \"contracts-basic/week4.sol\":1806:1817  Status.high */\n      0x00\n        /* \"contracts-basic/week4.sol\":1799:1817  return Status.high */\n      swap1\n      pop\n      jump(tag_10)\n        /* \"contracts-basic/week4.sol\":1773:1940  if (a >= 7) {... */\n    tag_11:\n        /* \"contracts-basic/week4.sol\":1843:1844  4 */\n      0x04\n        /* \"contracts-basic/week4.sol\":1838:1839  a */\n      dup3\n        /* \"contracts-basic/week4.sol\":1838:1844  a >= 4 */\n      lt\n        /* \"contracts-basic/week4.sol\":1834:1940  if (a >= 4) {... */\n      tag_13\n      jumpi\n        /* \"contracts-basic/week4.sol\":1867:1881  Status.neutral */\n      0x01\n        /* \"contracts-basic/week4.sol\":1860:1881  return Status.neutral */\n      swap1\n      pop\n      jump(tag_10)\n        /* \"contracts-basic/week4.sol\":1834:1940  if (a >= 4) {... */\n    tag_13:\n        /* \"contracts-basic/week4.sol\":1919:1929  Status.low */\n      0x02\n        /* \"contracts-basic/week4.sol\":1912:1929  return Status.low */\n      swap1\n      pop\n        /* \"contracts-basic/week4.sol\":1705:1946  function returnStatus(uint a) public pure returns(Status) {... */\n    tag_10:\n      swap2\n      swap1\n      pop\n      jump\t// out\n        /* \"#utility.yul\":88:205   */\n    tag_16:\n        /* \"#utility.yul\":197:198   */\n      0x00\n        /* \"#utility.yul\":194:195   */\n      dup1\n        /* \"#utility.yul\":187:199   */\n      revert\n        /* \"#utility.yul\":334:411   */\n    tag_18:\n        /* \"#utility.yul\":371:378   */\n      0x00\n        /* \"#utility.yul\":400:405   */\n      dup2\n        /* \"#utility.yul\":389:405   */\n      swap1\n      pop\n        /* \"#utility.yul\":334:411   */\n      swap2\n      swap1\n      pop\n      jump\t// out\n        /* \"#utility.yul\":417:539   */\n    tag_19:\n        /* \"#utility.yul\":490:514   */\n      tag_32\n        /* \"#utility.yul\":508:513   */\n      dup2\n        /* \"#utility.yul\":490:514   */\n      tag_18\n      jump\t// in\n    tag_32:\n        /* \"#utility.yul\":483:488   */\n      dup2\n        /* \"#utility.yul\":480:515   */\n      eq\n        /* \"#utility.yul\":470:533   */\n      tag_33\n      jumpi\n        /* \"#utility.yul\":529:530   */\n      0x00\n        /* \"#utility.yul\":526:527   */\n      dup1\n        /* \"#utility.yul\":519:531   */\n      revert\n        /* \"#utility.yul\":470:533   */\n    tag_33:\n        /* \"#utility.yul\":417:539   */\n      pop\n      jump\t// out\n        /* \"#utility.yul\":545:684   */\n    tag_20:\n        /* \"#utility.yul\":591:596   */\n      0x00\n        /* \"#utility.yul\":629:635   */\n      dup2\n        /* \"#utility.yul\":616:636   */\n      calldataload\n        /* \"#utility.yul\":607:636   */\n      swap1\n      pop\n        /* \"#utility.yul\":645:678   */\n      tag_35\n        /* \"#utility.yul\":672:677   */\n      dup2\n        /* \"#utility.yul\":645:678   */\n      tag_19\n      jump\t// in\n    tag_35:\n        /* \"#utility.yul\":545:684   */\n      swap3\n      swap2\n      pop\n      pop\n      jump\t// out\n        /* \"#utility.yul\":690:1019   */\n    tag_6:\n        /* \"#utility.yul\":749:755   */\n      0x00\n        /* \"#utility.yul\":798:800   */\n      0x20\n        /* \"#utility.yul\":786:795   */\n      dup3\n        /* \"#utility.yul\":777:784   */\n      dup5\n        /* \"#utility.yul\":773:796   */\n      sub\n        /* \"#utility.yul\":769:801   */\n      slt\n        /* \"#utility.yul\":766:885   */\n      iszero\n      tag_37\n      jumpi\n        /* \"#utility.yul\":804:883   */\n      tag_38\n      tag_16\n      jump\t// in\n    tag_38:\n        /* \"#utility.yul\":766:885   */\n    tag_37:\n        /* \"#utility.yul\":924:925   */\n      0x00\n        /* \"#utility.yul\":949:1002   */\n      tag_39\n        /* \"#utility.yul\":994:1001   */\n      dup5\n        /* \"#utility.yul\":985:991   */\n      dup3\n        /* \"#utility.yul\":974:983   */\n      dup6\n        /* \"#utility.yul\":970:992   */\n      add\n        /* \"#utility.yul\":949:1002   */\n      tag_20\n      jump\t// in\n    tag_39:\n        /* \"#utility.yul\":939:1002   */\n      swap2\n      pop\n        /* \"#utility.yul\":895:1012   */\n      pop\n        /* \"#utility.yul\":690:1019   */\n      swap3\n      swap2\n      pop\n      pop\n      jump\t// out\n        /* \"#utility.yul\":1025:1205   */\n    tag_21:\n        /* \"#utility.yul\":1073:1150   */\n      0x4e487b7100000000000000000000000000000000000000000000000000000000\n        /* \"#utility.yul\":1070:1071   */\n      0x00\n        /* \"#utility.yul\":1063:1151   */\n      mstore\n        /* \"#utility.yul\":1170:1174   */\n      0x21\n        /* \"#utility.yul\":1167:1168   */\n      0x04\n        /* \"#utility.yul\":1160:1175   */\n      mstore\n        /* \"#utility.yul\":1194:1198   */\n      0x24\n        /* \"#utility.yul\":1191:1192   */\n      0x00\n        /* \"#utility.yul\":1184:1199   */\n      revert\n        /* \"#utility.yul\":1211:1326   */\n    tag_22:\n        /* \"#utility.yul\":1294:1295   */\n      0x03\n        /* \"#utility.yul\":1287:1292   */\n      dup2\n        /* \"#utility.yul\":1284:1296   */\n      lt\n        /* \"#utility.yul\":1274:1320   */\n      tag_42\n      jumpi\n        /* \"#utility.yul\":1300:1318   */\n      tag_43\n      tag_21\n      jump\t// in\n    tag_43:\n        /* \"#utility.yul\":1274:1320   */\n    tag_42:\n        /* \"#utility.yul\":1211:1326   */\n      pop\n      jump\t// out\n        /* \"#utility.yul\":1332:1463   */\n    tag_23:\n        /* \"#utility.yul\":1379:1386   */\n      0x00\n        /* \"#utility.yul\":1408:1413   */\n      dup2\n        /* \"#utility.yul\":1397:1413   */\n      swap1\n      pop\n        /* \"#utility.yul\":1414:1457   */\n      tag_45\n        /* \"#utility.yul\":1451:1456   */\n      dup3\n        /* \"#utility.yul\":1414:1457   */\n      tag_22\n      jump\t// in\n    tag_45:\n        /* \"#utility.yul\":1332:1463   */\n      swap2\n      swap1\n      pop\n      jump\t// out\n        /* \"#utility.yul\":1469:1600   */\n    tag_24:\n        /* \"#utility.yul\":1527:1536   */\n      0x00\n        /* \"#utility.yul\":1560:1594   */\n      tag_47\n        /* \"#utility.yul\":1588:1593   */\n      dup3\n        /* \"#utility.yul\":1560:1594   */\n      tag_23\n      jump\t// in\n    tag_47:\n        /* \"#utility.yul\":1547:1594   */\n      swap1\n      pop\n        /* \"#utility.yul\":1469:1600   */\n      swap2\n      swap1\n      pop\n      jump\t// out\n        /* \"#utility.yul\":1606:1753   */\n    tag_25:\n        /* \"#utility.yul\":1701:1746   */\n      tag_49\n        /* \"#utility.yul\":1740:1745   */\n      dup2\n        /* \"#utility.yul\":1701:1746   */\n      tag_24\n      jump\t// in\n    tag_49:\n        /* \"#utility.yul\":1696:1699   */\n      dup3\n        /* \"#utility.yul\":1689:1747   */\n      mstore\n        /* \"#utility.yul\":1606:1753   */\n      pop\n      pop\n      jump\t// out\n        /* \"#utility.yul\":1759:1997   */\n    tag_9:\n        /* \"#utility.yul\":1860:1864   */\n      0x00\n        /* \"#utility.yul\":1898:1900   */\n      0x20\n        /* \"#utility.yul\":1887:1896   */\n      dup3\n        /* \"#utility.yul\":1883:1901   */\n      add\n        /* \"#utility.yul\":1875:1901   */\n      swap1\n      pop\n        /* \"#utility.yul\":1911:1990   */\n      tag_51\n        /* \"#utility.yul\":1987:1988   */\n      0x00\n        /* \"#utility.yul\":1976:1985   */\n      dup4\n        /* \"#utility.yul\":1972:1989   */\n      add\n        /* \"#utility.yul\":1963:1969   */\n      dup5\n        /* \"#utility.yul\":1911:1990   */\n      tag_25\n      jump\t// in\n    tag_51:\n        /* \"#utility.yul\":1759:1997   */\n      swap3\n      swap2\n      pop\n      pop\n      jump\t// out\n\n    auxdata: 0xa2646970667358221220cca823e7e11dfb2e1fa263c193bfe1f24a8835c43f14a4e6cb2a1f7b76eac1e564736f6c63430008120033\n}\n",
				"bytecode": {
					"linkReferences": {},
					"object": "608060405234801561001057600080fd5b506101be806100206000396000f3fe608060405234801561001057600080fd5b506004361061002b5760003560e01c8063e661b3d514610030575b600080fd5b61004a600480360381019061004591906100c9565b610060565b604051610057919061016d565b60405180910390f35b6000600782106100735760009050610089565b600482106100845760019050610089565b600290505b919050565b600080fd5b6000819050919050565b6100a681610093565b81146100b157600080fd5b50565b6000813590506100c38161009d565b92915050565b6000602082840312156100df576100de61008e565b5b60006100ed848285016100b4565b91505092915050565b7f4e487b7100000000000000000000000000000000000000000000000000000000600052602160045260246000fd5b60038110610136576101356100f6565b5b50565b600081905061014782610125565b919050565b600061015782610139565b9050919050565b6101678161014c565b82525050565b6000602082019050610182600083018461015e565b9291505056fea2646970667358221220cca823e7e11dfb2e1fa263c193bfe1f24a8835c43f14a4e6cb2a1f7b76eac1e564736f6c63430008120033",
					"opcodes": "PUSH1 0x80 PUSH1 0x40 MSTORE CALLVALUE DUP1 ISZERO PUSH2 0x10 JUMPI PUSH1 0x0 DUP1 REVERT JUMPDEST POP PUSH2 0x1BE DUP1 PUSH2 0x20 PUSH1 0x0 CODECOPY PUSH1 0x0 RETURN INVALID PUSH1 0x80 PUSH1 0x40 MSTORE CALLVALUE DUP1 ISZERO PUSH2 0x10 JUMPI PUSH1 0x0 DUP1 REVERT JUMPDEST POP PUSH1 0x4 CALLDATASIZE LT PUSH2 0x2B JUMPI PUSH1 0x0 CALLDATALOAD PUSH1 0xE0 SHR DUP1 PUSH4 0xE661B3D5 EQ PUSH2 0x30 JUMPI JUMPDEST PUSH1 0x0 DUP1 REVERT JUMPDEST PUSH2 0x4A PUSH1 0x4 DUP1 CALLDATASIZE SUB DUP2 ADD SWAP1 PUSH2 0x45 SWAP2 SWAP1 PUSH2 0xC9 JUMP JUMPDEST PUSH2 0x60 JUMP JUMPDEST PUSH1 0x40 MLOAD PUSH2 0x57 SWAP2 SWAP1 PUSH2 0x16D JUMP JUMPDEST PUSH1 0x40 MLOAD DUP1 SWAP2 SUB SWAP1 RETURN JUMPDEST PUSH1 0x0 PUSH1 0x7 DUP3 LT PUSH2 0x73 JUMPI PUSH1 0x0 SWAP1 POP PUSH2 0x89 JUMP JUMPDEST PUSH1 0x4 DUP3 LT PUSH2 0x84 JUMPI PUSH1 0x1 SWAP1 POP PUSH2 0x89 JUMP JUMPDEST PUSH1 0x2 SWAP1 POP JUMPDEST SWAP2 SWAP1 POP JUMP JUMPDEST PUSH1 0x0 DUP1 REVERT JUMPDEST PUSH1 0x0 DUP2 SWAP1 POP SWAP2 SWAP1 POP JUMP JUMPDEST PUSH2 0xA6 DUP2 PUSH2 0x93 JUMP JUMPDEST DUP2 EQ PUSH2 0xB1 JUMPI PUSH1 0x0 DUP1 REVERT JUMPDEST POP JUMP JUMPDEST PUSH1 0x0 DUP2 CALLDATALOAD SWAP1 POP PUSH2 0xC3 DUP2 PUSH2 0x9D JUMP JUMPDEST SWAP3 SWAP2 POP POP JUMP JUMPDEST PUSH1 0x0 PUSH1 0x20 DUP3 DUP5 SUB SLT ISZERO PUSH2 0xDF JUMPI PUSH2 0xDE PUSH2 0x8E JUMP JUMPDEST JUMPDEST PUSH1 0x0 PUSH2 0xED DUP5 DUP3 DUP6 ADD PUSH2 0xB4 JUMP JUMPDEST SWAP2 POP POP SWAP3 SWAP2 POP POP JUMP JUMPDEST PUSH32 0x4E487B7100000000000000000000000000000000000000000000000000000000 PUSH1 0x0 MSTORE PUSH1 0x21 PUSH1 0x4 MSTORE PUSH1 0x24 PUSH1 0x0 REVERT JUMPDEST PUSH1 0x3 DUP2 LT PUSH2 0x136 JUMPI PUSH2 0x135 PUSH2 0xF6 JUMP JUMPDEST JUMPDEST POP JUMP JUMPDEST PUSH1 0x0 DUP2 SWAP1 POP PUSH2 0x147 DUP3 PUSH2 0x125 JUMP JUMPDEST SWAP2 SWAP1 POP JUMP JUMPDEST PUSH1 0x0 PUSH2 0x157 DUP3 PUSH2 0x139 JUMP JUMPDEST SWAP1 POP SWAP2 SWAP1 POP JUMP JUMPDEST PUSH2 0x167 DUP2 PUSH2 0x14C JUMP JUMPDEST DUP3 MSTORE POP POP JUMP JUMPDEST PUSH1 0x0 PUSH1 0x20 DUP3 ADD SWAP1 POP PUSH2 0x182 PUSH1 0x0 DUP4 ADD DUP5 PUSH2 0x15E JUMP JUMPDEST SWAP3 SWAP2 POP POP JUMP INVALID LOG2 PUSH5 0x6970667358 0x22 SLT KECCAK256 0xCC 0xA8 0x23 0xE7 0xE1 SAR 0xFB 0x2E 0x1F LOG2 PUSH4 0xC193BFE1 CALLCODE 0x4A DUP9 CALLDATALOAD 0xC4 EXTCODEHASH EQ LOG4 0xE6 0xCB 0x2A 0x1F PUSH28 0x76EAC1E564736F6C6343000812003300000000000000000000000000 "
				},
				"gasEstimates": {
					"creation": {
						"codeDepositCost": "89200",
						"executionCost": "135",
						"totalCost": "89335"
					},
					"external": {
						"returnStatus(uint256)": "732"
					}
				},
				"methodIdentifiers": {
					"returnStatus(uint256)": "e661b3d5"
				}
			},
			"storageLayout": {
				"storage": [],
				"types": null
			},
			"userdoc": {
				"kind": "user",
				"methods": {},
				"version": 1
			}
		}
	}
}