{
	"contracts-basic/week4.sol": {
		"_40": {
			"abi": [
				{
					"inputs": [
						{
							"internalType": "uint256[]",
							"name": "_numbers",
							"type": "uint256[]"
						}
					],
					"name": "sorting",
					"outputs": [
						{
							"internalType": "uint256[]",
							"name": "",
							"type": "uint256[]"
						},
						{
							"internalType": "uint256[]",
							"name": "",
							"type": "uint256[]"
						}
					],
					"stateMutability": "pure",
					"type": "function"
				}
			],
			"devdoc": {
				"kind": "dev",
				"methods": {},
				"version": 1
			},
			"evm": {
				"assembly": "    /* \"contracts-basic/week4.sol\":3135:3944  contract _40 {... */\n  mstore(0x40, 0x80)\n  callvalue\n  dup1\n  iszero\n  tag_1\n  jumpi\n  0x00\n  dup1\n  revert\ntag_1:\n  pop\n  dataSize(sub_0)\n  dup1\n  dataOffset(sub_0)\n  0x00\n  codecopy\n  0x00\n  return\nstop\n\nsub_0: assembly {\n        /* \"contracts-basic/week4.sol\":3135:3944  contract _40 {... */\n      mstore(0x40, 0x80)\n      callvalue\n      dup1\n      iszero\n      tag_1\n      jumpi\n      0x00\n      dup1\n      revert\n    tag_1:\n      pop\n      jumpi(tag_2, lt(calldatasize, 0x04))\n      shr(0xe0, calldataload(0x00))\n      dup1\n      0x4910c813\n      eq\n      tag_3\n      jumpi\n    tag_2:\n      0x00\n      dup1\n      revert\n        /* \"contracts-basic/week4.sol\":3154:3942  function sorting(uint[] memory _numbers) public pure returns(uint[] memory, uint[] memory) {... */\n    tag_3:\n      tag_4\n      0x04\n      dup1\n      calldatasize\n      sub\n      dup2\n      add\n      swap1\n      tag_5\n      swap2\n      swap1\n      tag_6\n      jump\t// in\n    tag_5:\n      tag_7\n      jump\t// in\n    tag_4:\n      mload(0x40)\n      tag_8\n      swap3\n      swap2\n      swap1\n      tag_9\n      jump\t// in\n    tag_8:\n      mload(0x40)\n      dup1\n      swap2\n      sub\n      swap1\n      return\n    tag_7:\n        /* \"contracts-basic/week4.sol\":3215:3228  uint[] memory */\n      0x60\n        /* \"contracts-basic/week4.sol\":3230:3243  uint[] memory */\n      dup1\n        /* \"contracts-basic/week4.sol\":3255:3277  uint[] memory centrals */\n      0x60\n        /* \"contracts-basic/week4.sol\":3287:3307  uint[] memory arrays */\n      dup1\n        /* \"contracts-basic/week4.sol\":3323:3329  uint i */\n      0x00\n        /* \"contracts-basic/week4.sol\":3318:3583  for (uint i=0; i<_numbers.length-1; i++) {... */\n    tag_11:\n        /* \"contracts-basic/week4.sol\":3351:3352  1 */\n      0x01\n        /* \"contracts-basic/week4.sol\":3335:3343  _numbers */\n      dup7\n        /* \"contracts-basic/week4.sol\":3335:3350  _numbers.length */\n      mload\n        /* \"contracts-basic/week4.sol\":3335:3352  _numbers.length-1 */\n      tag_14\n      swap2\n      swap1\n      tag_15\n      jump\t// in\n    tag_14:\n        /* \"contracts-basic/week4.sol\":3333:3334  i */\n      dup2\n        /* \"contracts-basic/week4.sol\":3333:3352  i<_numbers.length-1 */\n      lt\n        /* \"contracts-basic/week4.sol\":3318:3583  for (uint i=0; i<_numbers.length-1; i++) {... */\n      iszero\n      tag_12\n      jumpi\n        /* \"contracts-basic/week4.sol\":3378:3384  uint j */\n      0x00\n        /* \"contracts-basic/week4.sol\":3387:3388  1 */\n      0x01\n        /* \"contracts-basic/week4.sol\":3385:3386  i */\n      dup3\n        /* \"contracts-basic/week4.sol\":3385:3388  i+1 */\n      tag_19\n      swap2\n      swap1\n      tag_20\n      jump\t// in\n    tag_19:\n        /* \"contracts-basic/week4.sol\":3378:3388  uint j=i+1 */\n      swap1\n      pop\n        /* \"contracts-basic/week4.sol\":3373:3573  for (uint j=i+1; j<_numbers.length; j++) {... */\n    tag_16:\n        /* \"contracts-basic/week4.sol\":3392:3400  _numbers */\n      dup7\n        /* \"contracts-basic/week4.sol\":3392:3407  _numbers.length */\n      mload\n        /* \"contracts-basic/week4.sol\":3390:3391  j */\n      dup2\n        /* \"contracts-basic/week4.sol\":3390:3407  j<_numbers.length */\n      lt\n        /* \"contracts-basic/week4.sol\":3373:3573  for (uint j=i+1; j<_numbers.length; j++) {... */\n      iszero\n      tag_17\n      jumpi\n        /* \"contracts-basic/week4.sol\":3450:3458  _numbers */\n      dup7\n        /* \"contracts-basic/week4.sol\":3459:3460  j */\n      dup2\n        /* \"contracts-basic/week4.sol\":3450:3461  _numbers[j] */\n      dup2\n      mload\n      dup2\n      lt\n      tag_21\n      jumpi\n      tag_22\n      tag_23\n      jump\t// in\n    tag_22:\n    tag_21:\n      0x20\n      mul\n      0x20\n      add\n      add\n      mload\n        /* \"contracts-basic/week4.sol\":3436:3444  _numbers */\n      dup8\n        /* \"contracts-basic/week4.sol\":3445:3446  i */\n      dup4\n        /* \"contracts-basic/week4.sol\":3436:3447  _numbers[i] */\n      dup2\n      mload\n      dup2\n      lt\n      tag_24\n      jumpi\n      tag_25\n      tag_23\n      jump\t// in\n    tag_25:\n    tag_24:\n      0x20\n      mul\n      0x20\n      add\n      add\n      mload\n        /* \"contracts-basic/week4.sol\":3436:3461  _numbers[i] > _numbers[j] */\n      gt\n        /* \"contracts-basic/week4.sol\":3432:3559  if (_numbers[i] > _numbers[j]) {... */\n      iszero\n      tag_26\n      jumpi\n        /* \"contracts-basic/week4.sol\":3515:3523  _numbers */\n      dup7\n        /* \"contracts-basic/week4.sol\":3524:3525  j */\n      dup2\n        /* \"contracts-basic/week4.sol\":3515:3526  _numbers[j] */\n      dup2\n      mload\n      dup2\n      lt\n      tag_27\n      jumpi\n      tag_28\n      tag_23\n      jump\t// in\n    tag_28:\n    tag_27:\n      0x20\n      mul\n      0x20\n      add\n      add\n      mload\n        /* \"contracts-basic/week4.sol\":3528:3536  _numbers */\n      dup8\n        /* \"contracts-basic/week4.sol\":3537:3538  i */\n      dup4\n        /* \"contracts-basic/week4.sol\":3528:3539  _numbers[i] */\n      dup2\n      mload\n      dup2\n      lt\n      tag_29\n      jumpi\n      tag_30\n      tag_23\n      jump\t// in\n    tag_30:\n    tag_29:\n      0x20\n      mul\n      0x20\n      add\n      add\n      mload\n        /* \"contracts-basic/week4.sol\":3486:3494  _numbers */\n      dup9\n        /* \"contracts-basic/week4.sol\":3495:3496  i */\n      dup5\n        /* \"contracts-basic/week4.sol\":3486:3497  _numbers[i] */\n      dup2\n      mload\n      dup2\n      lt\n      tag_31\n      jumpi\n      tag_32\n      tag_23\n      jump\t// in\n    tag_32:\n    tag_31:\n      0x20\n      mul\n      0x20\n      add\n      add\n        /* \"contracts-basic/week4.sol\":3499:3507  _numbers */\n      dup10\n        /* \"contracts-basic/week4.sol\":3508:3509  j */\n      dup5\n        /* \"contracts-basic/week4.sol\":3499:3510  _numbers[j] */\n      dup2\n      mload\n      dup2\n      lt\n      tag_33\n      jumpi\n      tag_34\n      tag_23\n      jump\t// in\n    tag_34:\n    tag_33:\n      0x20\n      mul\n      0x20\n      add\n      add\n        /* \"contracts-basic/week4.sol\":3485:3540  (_numbers[i], _numbers[j]) = (_numbers[j], _numbers[i]) */\n      dup3\n      dup2\n      mstore\n      pop\n      dup3\n      dup2\n      mstore\n      pop\n      pop\n      pop\n        /* \"contracts-basic/week4.sol\":3432:3559  if (_numbers[i] > _numbers[j]) {... */\n    tag_26:\n        /* \"contracts-basic/week4.sol\":3409:3412  j++ */\n      dup1\n      dup1\n      tag_35\n      swap1\n      tag_36\n      jump\t// in\n    tag_35:\n      swap2\n      pop\n      pop\n        /* \"contracts-basic/week4.sol\":3373:3573  for (uint j=i+1; j<_numbers.length; j++) {... */\n      jump(tag_16)\n    tag_17:\n      pop\n        /* \"contracts-basic/week4.sol\":3354:3357  i++ */\n      dup1\n      dup1\n      tag_37\n      swap1\n      tag_36\n      jump\t// in\n    tag_37:\n      swap2\n      pop\n      pop\n        /* \"contracts-basic/week4.sol\":3318:3583  for (uint i=0; i<_numbers.length-1; i++) {... */\n      jump(tag_11)\n    tag_12:\n      pop\n        /* \"contracts-basic/week4.sol\":3610:3618  _numbers */\n      dup5\n        /* \"contracts-basic/week4.sol\":3601:3618  arrays = _numbers */\n      swap1\n      pop\n        /* \"contracts-basic/week4.sol\":3662:3663  0 */\n      0x00\n        /* \"contracts-basic/week4.sol\":3657:3658  2 */\n      0x02\n        /* \"contracts-basic/week4.sol\":3641:3647  arrays */\n      dup3\n        /* \"contracts-basic/week4.sol\":3641:3654  arrays.length */\n      mload\n        /* \"contracts-basic/week4.sol\":3641:3658  arrays.length % 2 */\n      tag_38\n      swap2\n      swap1\n      tag_39\n      jump\t// in\n    tag_38:\n        /* \"contracts-basic/week4.sol\":3641:3663  arrays.length % 2 == 0 */\n      sub\n        /* \"contracts-basic/week4.sol\":3637:3936  if (arrays.length % 2 == 0) {... */\n      tag_40\n      jumpi\n        /* \"contracts-basic/week4.sol\":3693:3699  arrays */\n      dup1\n        /* \"contracts-basic/week4.sol\":3722:3723  1 */\n      0x01\n        /* \"contracts-basic/week4.sol\":3717:3718  2 */\n      0x02\n        /* \"contracts-basic/week4.sol\":3701:3707  arrays */\n      dup4\n        /* \"contracts-basic/week4.sol\":3701:3714  arrays.length */\n      mload\n        /* \"contracts-basic/week4.sol\":3701:3718  arrays.length / 2 */\n      tag_41\n      swap2\n      swap1\n      tag_42\n      jump\t// in\n    tag_41:\n        /* \"contracts-basic/week4.sol\":3700:3723  (arrays.length / 2) - 1 */\n      tag_43\n      swap2\n      swap1\n      tag_15\n      jump\t// in\n    tag_43:\n        /* \"contracts-basic/week4.sol\":3693:3724  arrays[(arrays.length / 2) - 1] */\n      dup2\n      mload\n      dup2\n      lt\n      tag_44\n      jumpi\n      tag_45\n      tag_23\n      jump\t// in\n    tag_45:\n    tag_44:\n      0x20\n      mul\n      0x20\n      add\n      add\n      mload\n        /* \"contracts-basic/week4.sol\":3679:3687  centrals */\n      dup3\n        /* \"contracts-basic/week4.sol\":3688:3689  0 */\n      0x00\n        /* \"contracts-basic/week4.sol\":3679:3690  centrals[0] */\n      dup2\n      mload\n      dup2\n      lt\n      tag_46\n      jumpi\n      tag_47\n      tag_23\n      jump\t// in\n    tag_47:\n    tag_46:\n      0x20\n      mul\n      0x20\n      add\n      add\n        /* \"contracts-basic/week4.sol\":3679:3724  centrals[0] = arrays[(arrays.length / 2) - 1] */\n      dup2\n      dup2\n      mstore\n      pop\n      pop\n        /* \"contracts-basic/week4.sol\":3752:3758  arrays */\n      dup1\n        /* \"contracts-basic/week4.sol\":3775:3776  2 */\n      0x02\n        /* \"contracts-basic/week4.sol\":3759:3765  arrays */\n      dup3\n        /* \"contracts-basic/week4.sol\":3759:3772  arrays.length */\n      mload\n        /* \"contracts-basic/week4.sol\":3759:3776  arrays.length / 2 */\n      tag_48\n      swap2\n      swap1\n      tag_42\n      jump\t// in\n    tag_48:\n        /* \"contracts-basic/week4.sol\":3752:3777  arrays[arrays.length / 2] */\n      dup2\n      mload\n      dup2\n      lt\n      tag_49\n      jumpi\n      tag_50\n      tag_23\n      jump\t// in\n    tag_50:\n    tag_49:\n      0x20\n      mul\n      0x20\n      add\n      add\n      mload\n        /* \"contracts-basic/week4.sol\":3738:3746  centrals */\n      dup3\n        /* \"contracts-basic/week4.sol\":3747:3748  1 */\n      0x01\n        /* \"contracts-basic/week4.sol\":3738:3749  centrals[1] */\n      dup2\n      mload\n      dup2\n      lt\n      tag_51\n      jumpi\n      tag_52\n      tag_23\n      jump\t// in\n    tag_52:\n    tag_51:\n      0x20\n      mul\n      0x20\n      add\n      add\n        /* \"contracts-basic/week4.sol\":3738:3777  centrals[1] = arrays[arrays.length / 2] */\n      dup2\n      dup2\n      mstore\n      pop\n      pop\n        /* \"contracts-basic/week4.sol\":3799:3807  centrals */\n      dup2\n        /* \"contracts-basic/week4.sol\":3809:3815  arrays */\n      dup2\n        /* \"contracts-basic/week4.sol\":3791:3816  return (centrals, arrays) */\n      swap4\n      pop\n      swap4\n      pop\n      pop\n      pop\n      jump(tag_10)\n        /* \"contracts-basic/week4.sol\":3637:3936  if (arrays.length % 2 == 0) {... */\n    tag_40:\n        /* \"contracts-basic/week4.sol\":3861:3867  arrays */\n      dup1\n        /* \"contracts-basic/week4.sol\":3884:3885  2 */\n      0x02\n        /* \"contracts-basic/week4.sol\":3868:3874  arrays */\n      dup3\n        /* \"contracts-basic/week4.sol\":3868:3881  arrays.length */\n      mload\n        /* \"contracts-basic/week4.sol\":3868:3885  arrays.length / 2 */\n      tag_54\n      swap2\n      swap1\n      tag_42\n      jump\t// in\n    tag_54:\n        /* \"contracts-basic/week4.sol\":3861:3886  arrays[arrays.length / 2] */\n      dup2\n      mload\n      dup2\n      lt\n      tag_55\n      jumpi\n      tag_56\n      tag_23\n      jump\t// in\n    tag_56:\n    tag_55:\n      0x20\n      mul\n      0x20\n      add\n      add\n      mload\n        /* \"contracts-basic/week4.sol\":3847:3855  centrals */\n      dup3\n        /* \"contracts-basic/week4.sol\":3856:3857  0 */\n      0x00\n        /* \"contracts-basic/week4.sol\":3847:3858  centrals[0] */\n      dup2\n      mload\n      dup2\n      lt\n      tag_57\n      jumpi\n      tag_58\n      tag_23\n      jump\t// in\n    tag_58:\n    tag_57:\n      0x20\n      mul\n      0x20\n      add\n      add\n        /* \"contracts-basic/week4.sol\":3847:3886  centrals[0] = arrays[arrays.length / 2] */\n      dup2\n      dup2\n      mstore\n      pop\n      pop\n        /* \"contracts-basic/week4.sol\":3908:3916  centrals */\n      dup2\n        /* \"contracts-basic/week4.sol\":3918:3924  arrays */\n      dup2\n        /* \"contracts-basic/week4.sol\":3900:3925  return (centrals, arrays) */\n      swap4\n      pop\n      swap4\n      pop\n      pop\n      pop\n        /* \"contracts-basic/week4.sol\":3154:3942  function sorting(uint[] memory _numbers) public pure returns(uint[] memory, uint[] memory) {... */\n    tag_10:\n      swap2\n      pop\n      swap2\n      jump\t// out\n        /* \"#utility.yul\":7:82   */\n    tag_59:\n        /* \"#utility.yul\":40:46   */\n      0x00\n        /* \"#utility.yul\":73:75   */\n      0x40\n        /* \"#utility.yul\":67:76   */\n      mload\n        /* \"#utility.yul\":57:76   */\n      swap1\n      pop\n        /* \"#utility.yul\":7:82   */\n      swap1\n      jump\t// out\n        /* \"#utility.yul\":88:205   */\n    tag_60:\n        /* \"#utility.yul\":197:198   */\n      0x00\n        /* \"#utility.yul\":194:195   */\n      dup1\n        /* \"#utility.yul\":187:199   */\n      revert\n        /* \"#utility.yul\":211:328   */\n    tag_61:\n        /* \"#utility.yul\":320:321   */\n      0x00\n        /* \"#utility.yul\":317:318   */\n      dup1\n        /* \"#utility.yul\":310:322   */\n      revert\n        /* \"#utility.yul\":334:451   */\n    tag_62:\n        /* \"#utility.yul\":443:444   */\n      0x00\n        /* \"#utility.yul\":440:441   */\n      dup1\n        /* \"#utility.yul\":433:445   */\n      revert\n        /* \"#utility.yul\":457:559   */\n    tag_63:\n        /* \"#utility.yul\":498:504   */\n      0x00\n        /* \"#utility.yul\":549:551   */\n      0x1f\n        /* \"#utility.yul\":545:552   */\n      not\n        /* \"#utility.yul\":540:542   */\n      0x1f\n        /* \"#utility.yul\":533:538   */\n      dup4\n        /* \"#utility.yul\":529:543   */\n      add\n        /* \"#utility.yul\":525:553   */\n      and\n        /* \"#utility.yul\":515:553   */\n      swap1\n      pop\n        /* \"#utility.yul\":457:559   */\n      swap2\n      swap1\n      pop\n      jump\t// out\n        /* \"#utility.yul\":565:745   */\n    tag_64:\n        /* \"#utility.yul\":613:690   */\n      0x4e487b7100000000000000000000000000000000000000000000000000000000\n        /* \"#utility.yul\":610:611   */\n      0x00\n        /* \"#utility.yul\":603:691   */\n      mstore\n        /* \"#utility.yul\":710:714   */\n      0x41\n        /* \"#utility.yul\":707:708   */\n      0x04\n        /* \"#utility.yul\":700:715   */\n      mstore\n        /* \"#utility.yul\":734:738   */\n      0x24\n        /* \"#utility.yul\":731:732   */\n      0x00\n        /* \"#utility.yul\":724:739   */\n      revert\n        /* \"#utility.yul\":751:1032   */\n    tag_65:\n        /* \"#utility.yul\":834:861   */\n      tag_91\n        /* \"#utility.yul\":856:860   */\n      dup3\n        /* \"#utility.yul\":834:861   */\n      tag_63\n      jump\t// in\n    tag_91:\n        /* \"#utility.yul\":826:832   */\n      dup2\n        /* \"#utility.yul\":822:862   */\n      add\n        /* \"#utility.yul\":964:970   */\n      dup2\n        /* \"#utility.yul\":952:962   */\n      dup2\n        /* \"#utility.yul\":949:971   */\n      lt\n        /* \"#utility.yul\":928:946   */\n      0xffffffffffffffff\n        /* \"#utility.yul\":916:926   */\n      dup3\n        /* \"#utility.yul\":913:947   */\n      gt\n        /* \"#utility.yul\":910:972   */\n      or\n        /* \"#utility.yul\":907:995   */\n      iszero\n      tag_92\n      jumpi\n        /* \"#utility.yul\":975:993   */\n      tag_93\n      tag_64\n      jump\t// in\n    tag_93:\n        /* \"#utility.yul\":907:995   */\n    tag_92:\n        /* \"#utility.yul\":1015:1025   */\n      dup1\n        /* \"#utility.yul\":1011:1013   */\n      0x40\n        /* \"#utility.yul\":1004:1026   */\n      mstore\n        /* \"#utility.yul\":794:1032   */\n      pop\n        /* \"#utility.yul\":751:1032   */\n      pop\n      pop\n      jump\t// out\n        /* \"#utility.yul\":1038:1167   */\n    tag_66:\n        /* \"#utility.yul\":1072:1078   */\n      0x00\n        /* \"#utility.yul\":1099:1119   */\n      tag_95\n      tag_59\n      jump\t// in\n    tag_95:\n        /* \"#utility.yul\":1089:1119   */\n      swap1\n      pop\n        /* \"#utility.yul\":1128:1161   */\n      tag_96\n        /* \"#utility.yul\":1156:1160   */\n      dup3\n        /* \"#utility.yul\":1148:1154   */\n      dup3\n        /* \"#utility.yul\":1128:1161   */\n      tag_65\n      jump\t// in\n    tag_96:\n        /* \"#utility.yul\":1038:1167   */\n      swap2\n      swap1\n      pop\n      jump\t// out\n        /* \"#utility.yul\":1173:1484   */\n    tag_67:\n        /* \"#utility.yul\":1250:1254   */\n      0x00\n        /* \"#utility.yul\":1340:1358   */\n      0xffffffffffffffff\n        /* \"#utility.yul\":1332:1338   */\n      dup3\n        /* \"#utility.yul\":1329:1359   */\n      gt\n        /* \"#utility.yul\":1326:1382   */\n      iszero\n      tag_98\n      jumpi\n        /* \"#utility.yul\":1362:1380   */\n      tag_99\n      tag_64\n      jump\t// in\n    tag_99:\n        /* \"#utility.yul\":1326:1382   */\n    tag_98:\n        /* \"#utility.yul\":1412:1416   */\n      0x20\n        /* \"#utility.yul\":1404:1410   */\n      dup3\n        /* \"#utility.yul\":1400:1417   */\n      mul\n        /* \"#utility.yul\":1392:1417   */\n      swap1\n      pop\n        /* \"#utility.yul\":1472:1476   */\n      0x20\n        /* \"#utility.yul\":1466:1470   */\n      dup2\n        /* \"#utility.yul\":1462:1477   */\n      add\n        /* \"#utility.yul\":1454:1477   */\n      swap1\n      pop\n        /* \"#utility.yul\":1173:1484   */\n      swap2\n      swap1\n      pop\n      jump\t// out\n        /* \"#utility.yul\":1490:1607   */\n    tag_68:\n        /* \"#utility.yul\":1599:1600   */\n      0x00\n        /* \"#utility.yul\":1596:1597   */\n      dup1\n        /* \"#utility.yul\":1589:1601   */\n      revert\n        /* \"#utility.yul\":1613:1690   */\n    tag_69:\n        /* \"#utility.yul\":1650:1657   */\n      0x00\n        /* \"#utility.yul\":1679:1684   */\n      dup2\n        /* \"#utility.yul\":1668:1684   */\n      swap1\n      pop\n        /* \"#utility.yul\":1613:1690   */\n      swap2\n      swap1\n      pop\n      jump\t// out\n        /* \"#utility.yul\":1696:1818   */\n    tag_70:\n        /* \"#utility.yul\":1769:1793   */\n      tag_103\n        /* \"#utility.yul\":1787:1792   */\n      dup2\n        /* \"#utility.yul\":1769:1793   */\n      tag_69\n      jump\t// in\n    tag_103:\n        /* \"#utility.yul\":1762:1767   */\n      dup2\n        /* \"#utility.yul\":1759:1794   */\n      eq\n        /* \"#utility.yul\":1749:1812   */\n      tag_104\n      jumpi\n        /* \"#utility.yul\":1808:1809   */\n      0x00\n        /* \"#utility.yul\":1805:1806   */\n      dup1\n        /* \"#utility.yul\":1798:1810   */\n      revert\n        /* \"#utility.yul\":1749:1812   */\n    tag_104:\n        /* \"#utility.yul\":1696:1818   */\n      pop\n      jump\t// out\n        /* \"#utility.yul\":1824:1963   */\n    tag_71:\n        /* \"#utility.yul\":1870:1875   */\n      0x00\n        /* \"#utility.yul\":1908:1914   */\n      dup2\n        /* \"#utility.yul\":1895:1915   */\n      calldataload\n        /* \"#utility.yul\":1886:1915   */\n      swap1\n      pop\n        /* \"#utility.yul\":1924:1957   */\n      tag_106\n        /* \"#utility.yul\":1951:1956   */\n      dup2\n        /* \"#utility.yul\":1924:1957   */\n      tag_70\n      jump\t// in\n    tag_106:\n        /* \"#utility.yul\":1824:1963   */\n      swap3\n      swap2\n      pop\n      pop\n      jump\t// out\n        /* \"#utility.yul\":1986:2696   */\n    tag_72:\n        /* \"#utility.yul\":2082:2087   */\n      0x00\n        /* \"#utility.yul\":2107:2188   */\n      tag_108\n        /* \"#utility.yul\":2123:2187   */\n      tag_109\n        /* \"#utility.yul\":2180:2186   */\n      dup5\n        /* \"#utility.yul\":2123:2187   */\n      tag_67\n      jump\t// in\n    tag_109:\n        /* \"#utility.yul\":2107:2188   */\n      tag_66\n      jump\t// in\n    tag_108:\n        /* \"#utility.yul\":2098:2188   */\n      swap1\n      pop\n        /* \"#utility.yul\":2208:2213   */\n      dup1\n        /* \"#utility.yul\":2237:2243   */\n      dup4\n        /* \"#utility.yul\":2230:2235   */\n      dup3\n        /* \"#utility.yul\":2223:2244   */\n      mstore\n        /* \"#utility.yul\":2271:2275   */\n      0x20\n        /* \"#utility.yul\":2264:2269   */\n      dup3\n        /* \"#utility.yul\":2260:2276   */\n      add\n        /* \"#utility.yul\":2253:2276   */\n      swap1\n      pop\n        /* \"#utility.yul\":2324:2328   */\n      0x20\n        /* \"#utility.yul\":2316:2322   */\n      dup5\n        /* \"#utility.yul\":2312:2329   */\n      mul\n        /* \"#utility.yul\":2304:2310   */\n      dup4\n        /* \"#utility.yul\":2300:2330   */\n      add\n        /* \"#utility.yul\":2353:2356   */\n      dup6\n        /* \"#utility.yul\":2345:2351   */\n      dup2\n        /* \"#utility.yul\":2342:2357   */\n      gt\n        /* \"#utility.yul\":2339:2461   */\n      iszero\n      tag_110\n      jumpi\n        /* \"#utility.yul\":2372:2451   */\n      tag_111\n      tag_68\n      jump\t// in\n    tag_111:\n        /* \"#utility.yul\":2339:2461   */\n    tag_110:\n        /* \"#utility.yul\":2487:2493   */\n      dup4\n        /* \"#utility.yul\":2470:2690   */\n    tag_112:\n        /* \"#utility.yul\":2504:2510   */\n      dup2\n        /* \"#utility.yul\":2499:2502   */\n      dup2\n        /* \"#utility.yul\":2496:2511   */\n      lt\n        /* \"#utility.yul\":2470:2690   */\n      iszero\n      tag_114\n      jumpi\n        /* \"#utility.yul\":2579:2582   */\n      dup1\n        /* \"#utility.yul\":2608:2645   */\n      tag_115\n        /* \"#utility.yul\":2641:2644   */\n      dup9\n        /* \"#utility.yul\":2629:2639   */\n      dup3\n        /* \"#utility.yul\":2608:2645   */\n      tag_71\n      jump\t// in\n    tag_115:\n        /* \"#utility.yul\":2603:2606   */\n      dup5\n        /* \"#utility.yul\":2596:2646   */\n      mstore\n        /* \"#utility.yul\":2675:2679   */\n      0x20\n        /* \"#utility.yul\":2670:2673   */\n      dup5\n        /* \"#utility.yul\":2666:2680   */\n      add\n        /* \"#utility.yul\":2659:2680   */\n      swap4\n      pop\n        /* \"#utility.yul\":2546:2690   */\n      pop\n        /* \"#utility.yul\":2530:2534   */\n      0x20\n        /* \"#utility.yul\":2525:2528   */\n      dup2\n        /* \"#utility.yul\":2521:2535   */\n      add\n        /* \"#utility.yul\":2514:2535   */\n      swap1\n      pop\n        /* \"#utility.yul\":2470:2690   */\n      jump(tag_112)\n    tag_114:\n        /* \"#utility.yul\":2474:2495   */\n      pop\n        /* \"#utility.yul\":2088:2696   */\n      pop\n      pop\n        /* \"#utility.yul\":1986:2696   */\n      swap4\n      swap3\n      pop\n      pop\n      pop\n      jump\t// out\n        /* \"#utility.yul\":2719:3089   */\n    tag_73:\n        /* \"#utility.yul\":2790:2795   */\n      0x00\n        /* \"#utility.yul\":2839:2842   */\n      dup3\n        /* \"#utility.yul\":2832:2836   */\n      0x1f\n        /* \"#utility.yul\":2824:2830   */\n      dup4\n        /* \"#utility.yul\":2820:2837   */\n      add\n        /* \"#utility.yul\":2816:2843   */\n      slt\n        /* \"#utility.yul\":2806:2928   */\n      tag_117\n      jumpi\n        /* \"#utility.yul\":2847:2926   */\n      tag_118\n      tag_62\n      jump\t// in\n    tag_118:\n        /* \"#utility.yul\":2806:2928   */\n    tag_117:\n        /* \"#utility.yul\":2964:2970   */\n      dup2\n        /* \"#utility.yul\":2951:2971   */\n      calldataload\n        /* \"#utility.yul\":2989:3083   */\n      tag_119\n        /* \"#utility.yul\":3079:3082   */\n      dup5\n        /* \"#utility.yul\":3071:3077   */\n      dup3\n        /* \"#utility.yul\":3064:3068   */\n      0x20\n        /* \"#utility.yul\":3056:3062   */\n      dup7\n        /* \"#utility.yul\":3052:3069   */\n      add\n        /* \"#utility.yul\":2989:3083   */\n      tag_72\n      jump\t// in\n    tag_119:\n        /* \"#utility.yul\":2980:3083   */\n      swap2\n      pop\n        /* \"#utility.yul\":2796:3089   */\n      pop\n        /* \"#utility.yul\":2719:3089   */\n      swap3\n      swap2\n      pop\n      pop\n      jump\t// out\n        /* \"#utility.yul\":3095:3634   */\n    tag_6:\n        /* \"#utility.yul\":3179:3185   */\n      0x00\n        /* \"#utility.yul\":3228:3230   */\n      0x20\n        /* \"#utility.yul\":3216:3225   */\n      dup3\n        /* \"#utility.yul\":3207:3214   */\n      dup5\n        /* \"#utility.yul\":3203:3226   */\n      sub\n        /* \"#utility.yul\":3199:3231   */\n      slt\n        /* \"#utility.yul\":3196:3315   */\n      iszero\n      tag_121\n      jumpi\n        /* \"#utility.yul\":3234:3313   */\n      tag_122\n      tag_60\n      jump\t// in\n    tag_122:\n        /* \"#utility.yul\":3196:3315   */\n    tag_121:\n        /* \"#utility.yul\":3382:3383   */\n      0x00\n        /* \"#utility.yul\":3371:3380   */\n      dup3\n        /* \"#utility.yul\":3367:3384   */\n      add\n        /* \"#utility.yul\":3354:3385   */\n      calldataload\n        /* \"#utility.yul\":3412:3430   */\n      0xffffffffffffffff\n        /* \"#utility.yul\":3404:3410   */\n      dup2\n        /* \"#utility.yul\":3401:3431   */\n      gt\n        /* \"#utility.yul\":3398:3515   */\n      iszero\n      tag_123\n      jumpi\n        /* \"#utility.yul\":3434:3513   */\n      tag_124\n      tag_61\n      jump\t// in\n    tag_124:\n        /* \"#utility.yul\":3398:3515   */\n    tag_123:\n        /* \"#utility.yul\":3539:3617   */\n      tag_125\n        /* \"#utility.yul\":3609:3616   */\n      dup5\n        /* \"#utility.yul\":3600:3606   */\n      dup3\n        /* \"#utility.yul\":3589:3598   */\n      dup6\n        /* \"#utility.yul\":3585:3607   */\n      add\n        /* \"#utility.yul\":3539:3617   */\n      tag_73\n      jump\t// in\n    tag_125:\n        /* \"#utility.yul\":3529:3617   */\n      swap2\n      pop\n        /* \"#utility.yul\":3325:3627   */\n      pop\n        /* \"#utility.yul\":3095:3634   */\n      swap3\n      swap2\n      pop\n      pop\n      jump\t// out\n        /* \"#utility.yul\":3640:3754   */\n    tag_74:\n        /* \"#utility.yul\":3707:3713   */\n      0x00\n        /* \"#utility.yul\":3741:3746   */\n      dup2\n        /* \"#utility.yul\":3735:3747   */\n      mload\n        /* \"#utility.yul\":3725:3747   */\n      swap1\n      pop\n        /* \"#utility.yul\":3640:3754   */\n      swap2\n      swap1\n      pop\n      jump\t// out\n        /* \"#utility.yul\":3760:3944   */\n    tag_75:\n        /* \"#utility.yul\":3859:3870   */\n      0x00\n        /* \"#utility.yul\":3893:3899   */\n      dup3\n        /* \"#utility.yul\":3888:3891   */\n      dup3\n        /* \"#utility.yul\":3881:3900   */\n      mstore\n        /* \"#utility.yul\":3933:3937   */\n      0x20\n        /* \"#utility.yul\":3928:3931   */\n      dup3\n        /* \"#utility.yul\":3924:3938   */\n      add\n        /* \"#utility.yul\":3909:3938   */\n      swap1\n      pop\n        /* \"#utility.yul\":3760:3944   */\n      swap3\n      swap2\n      pop\n      pop\n      jump\t// out\n        /* \"#utility.yul\":3950:4082   */\n    tag_76:\n        /* \"#utility.yul\":4017:4021   */\n      0x00\n        /* \"#utility.yul\":4040:4043   */\n      dup2\n        /* \"#utility.yul\":4032:4043   */\n      swap1\n      pop\n        /* \"#utility.yul\":4070:4074   */\n      0x20\n        /* \"#utility.yul\":4065:4068   */\n      dup3\n        /* \"#utility.yul\":4061:4075   */\n      add\n        /* \"#utility.yul\":4053:4075   */\n      swap1\n      pop\n        /* \"#utility.yul\":3950:4082   */\n      swap2\n      swap1\n      pop\n      jump\t// out\n        /* \"#utility.yul\":4088:4196   */\n    tag_77:\n        /* \"#utility.yul\":4165:4189   */\n      tag_130\n        /* \"#utility.yul\":4183:4188   */\n      dup2\n        /* \"#utility.yul\":4165:4189   */\n      tag_69\n      jump\t// in\n    tag_130:\n        /* \"#utility.yul\":4160:4163   */\n      dup3\n        /* \"#utility.yul\":4153:4190   */\n      mstore\n        /* \"#utility.yul\":4088:4196   */\n      pop\n      pop\n      jump\t// out\n        /* \"#utility.yul\":4202:4381   */\n    tag_78:\n        /* \"#utility.yul\":4271:4281   */\n      0x00\n        /* \"#utility.yul\":4292:4338   */\n      tag_132\n        /* \"#utility.yul\":4334:4337   */\n      dup4\n        /* \"#utility.yul\":4326:4332   */\n      dup4\n        /* \"#utility.yul\":4292:4338   */\n      tag_77\n      jump\t// in\n    tag_132:\n        /* \"#utility.yul\":4370:4374   */\n      0x20\n        /* \"#utility.yul\":4365:4368   */\n      dup4\n        /* \"#utility.yul\":4361:4375   */\n      add\n        /* \"#utility.yul\":4347:4375   */\n      swap1\n      pop\n        /* \"#utility.yul\":4202:4381   */\n      swap3\n      swap2\n      pop\n      pop\n      jump\t// out\n        /* \"#utility.yul\":4387:4500   */\n    tag_79:\n        /* \"#utility.yul\":4457:4461   */\n      0x00\n        /* \"#utility.yul\":4489:4493   */\n      0x20\n        /* \"#utility.yul\":4484:4487   */\n      dup3\n        /* \"#utility.yul\":4480:4494   */\n      add\n        /* \"#utility.yul\":4472:4494   */\n      swap1\n      pop\n        /* \"#utility.yul\":4387:4500   */\n      swap2\n      swap1\n      pop\n      jump\t// out\n        /* \"#utility.yul\":4536:5268   */\n    tag_80:\n        /* \"#utility.yul\":4655:4658   */\n      0x00\n        /* \"#utility.yul\":4684:4738   */\n      tag_135\n        /* \"#utility.yul\":4732:4737   */\n      dup3\n        /* \"#utility.yul\":4684:4738   */\n      tag_74\n      jump\t// in\n    tag_135:\n        /* \"#utility.yul\":4754:4840   */\n      tag_136\n        /* \"#utility.yul\":4833:4839   */\n      dup2\n        /* \"#utility.yul\":4828:4831   */\n      dup6\n        /* \"#utility.yul\":4754:4840   */\n      tag_75\n      jump\t// in\n    tag_136:\n        /* \"#utility.yul\":4747:4840   */\n      swap4\n      pop\n        /* \"#utility.yul\":4864:4920   */\n      tag_137\n        /* \"#utility.yul\":4914:4919   */\n      dup4\n        /* \"#utility.yul\":4864:4920   */\n      tag_76\n      jump\t// in\n    tag_137:\n        /* \"#utility.yul\":4943:4950   */\n      dup1\n        /* \"#utility.yul\":4974:4975   */\n      0x00\n        /* \"#utility.yul\":4959:5243   */\n    tag_138:\n        /* \"#utility.yul\":4984:4990   */\n      dup4\n        /* \"#utility.yul\":4981:4982   */\n      dup2\n        /* \"#utility.yul\":4978:4991   */\n      lt\n        /* \"#utility.yul\":4959:5243   */\n      iszero\n      tag_140\n      jumpi\n        /* \"#utility.yul\":5060:5066   */\n      dup2\n        /* \"#utility.yul\":5054:5067   */\n      mload\n        /* \"#utility.yul\":5087:5150   */\n      tag_141\n        /* \"#utility.yul\":5146:5149   */\n      dup9\n        /* \"#utility.yul\":5131:5144   */\n      dup3\n        /* \"#utility.yul\":5087:5150   */\n      tag_78\n      jump\t// in\n    tag_141:\n        /* \"#utility.yul\":5080:5150   */\n      swap8\n      pop\n        /* \"#utility.yul\":5173:5233   */\n      tag_142\n        /* \"#utility.yul\":5226:5232   */\n      dup4\n        /* \"#utility.yul\":5173:5233   */\n      tag_79\n      jump\t// in\n    tag_142:\n        /* \"#utility.yul\":5163:5233   */\n      swap3\n      pop\n        /* \"#utility.yul\":5019:5243   */\n      pop\n        /* \"#utility.yul\":5006:5007   */\n      0x01\n        /* \"#utility.yul\":5003:5004   */\n      dup2\n        /* \"#utility.yul\":4999:5008   */\n      add\n        /* \"#utility.yul\":4994:5008   */\n      swap1\n      pop\n        /* \"#utility.yul\":4959:5243   */\n      jump(tag_138)\n    tag_140:\n        /* \"#utility.yul\":4963:4977   */\n      pop\n        /* \"#utility.yul\":5259:5262   */\n      dup6\n        /* \"#utility.yul\":5252:5262   */\n      swap4\n      pop\n        /* \"#utility.yul\":4660:5268   */\n      pop\n      pop\n      pop\n        /* \"#utility.yul\":4536:5268   */\n      swap3\n      swap2\n      pop\n      pop\n      jump\t// out\n        /* \"#utility.yul\":5274:5908   */\n    tag_9:\n        /* \"#utility.yul\":5495:5499   */\n      0x00\n        /* \"#utility.yul\":5533:5535   */\n      0x40\n        /* \"#utility.yul\":5522:5531   */\n      dup3\n        /* \"#utility.yul\":5518:5536   */\n      add\n        /* \"#utility.yul\":5510:5536   */\n      swap1\n      pop\n        /* \"#utility.yul\":5582:5591   */\n      dup2\n        /* \"#utility.yul\":5576:5580   */\n      dup2\n        /* \"#utility.yul\":5572:5592   */\n      sub\n        /* \"#utility.yul\":5568:5569   */\n      0x00\n        /* \"#utility.yul\":5557:5566   */\n      dup4\n        /* \"#utility.yul\":5553:5570   */\n      add\n        /* \"#utility.yul\":5546:5593   */\n      mstore\n        /* \"#utility.yul\":5610:5718   */\n      tag_144\n        /* \"#utility.yul\":5713:5717   */\n      dup2\n        /* \"#utility.yul\":5704:5710   */\n      dup6\n        /* \"#utility.yul\":5610:5718   */\n      tag_80\n      jump\t// in\n    tag_144:\n        /* \"#utility.yul\":5602:5718   */\n      swap1\n      pop\n        /* \"#utility.yul\":5765:5774   */\n      dup2\n        /* \"#utility.yul\":5759:5763   */\n      dup2\n        /* \"#utility.yul\":5755:5775   */\n      sub\n        /* \"#utility.yul\":5750:5752   */\n      0x20\n        /* \"#utility.yul\":5739:5748   */\n      dup4\n        /* \"#utility.yul\":5735:5753   */\n      add\n        /* \"#utility.yul\":5728:5776   */\n      mstore\n        /* \"#utility.yul\":5793:5901   */\n      tag_145\n        /* \"#utility.yul\":5896:5900   */\n      dup2\n        /* \"#utility.yul\":5887:5893   */\n      dup5\n        /* \"#utility.yul\":5793:5901   */\n      tag_80\n      jump\t// in\n    tag_145:\n        /* \"#utility.yul\":5785:5901   */\n      swap1\n      pop\n        /* \"#utility.yul\":5274:5908   */\n      swap4\n      swap3\n      pop\n      pop\n      pop\n      jump\t// out\n        /* \"#utility.yul\":5914:6094   */\n    tag_81:\n        /* \"#utility.yul\":5962:6039   */\n      0x4e487b7100000000000000000000000000000000000000000000000000000000\n        /* \"#utility.yul\":5959:5960   */\n      0x00\n        /* \"#utility.yul\":5952:6040   */\n      mstore\n        /* \"#utility.yul\":6059:6063   */\n      0x11\n        /* \"#utility.yul\":6056:6057   */\n      0x04\n        /* \"#utility.yul\":6049:6064   */\n      mstore\n        /* \"#utility.yul\":6083:6087   */\n      0x24\n        /* \"#utility.yul\":6080:6081   */\n      0x00\n        /* \"#utility.yul\":6073:6088   */\n      revert\n        /* \"#utility.yul\":6100:6294   */\n    tag_15:\n        /* \"#utility.yul\":6140:6144   */\n      0x00\n        /* \"#utility.yul\":6160:6180   */\n      tag_148\n        /* \"#utility.yul\":6178:6179   */\n      dup3\n        /* \"#utility.yul\":6160:6180   */\n      tag_69\n      jump\t// in\n    tag_148:\n        /* \"#utility.yul\":6155:6180   */\n      swap2\n      pop\n        /* \"#utility.yul\":6194:6214   */\n      tag_149\n        /* \"#utility.yul\":6212:6213   */\n      dup4\n        /* \"#utility.yul\":6194:6214   */\n      tag_69\n      jump\t// in\n    tag_149:\n        /* \"#utility.yul\":6189:6214   */\n      swap3\n      pop\n        /* \"#utility.yul\":6238:6239   */\n      dup3\n        /* \"#utility.yul\":6235:6236   */\n      dup3\n        /* \"#utility.yul\":6231:6240   */\n      sub\n        /* \"#utility.yul\":6223:6240   */\n      swap1\n      pop\n        /* \"#utility.yul\":6262:6263   */\n      dup2\n        /* \"#utility.yul\":6256:6260   */\n      dup2\n        /* \"#utility.yul\":6253:6264   */\n      gt\n        /* \"#utility.yul\":6250:6287   */\n      iszero\n      tag_150\n      jumpi\n        /* \"#utility.yul\":6267:6285   */\n      tag_151\n      tag_81\n      jump\t// in\n    tag_151:\n        /* \"#utility.yul\":6250:6287   */\n    tag_150:\n        /* \"#utility.yul\":6100:6294   */\n      swap3\n      swap2\n      pop\n      pop\n      jump\t// out\n        /* \"#utility.yul\":6300:6491   */\n    tag_20:\n        /* \"#utility.yul\":6340:6343   */\n      0x00\n        /* \"#utility.yul\":6359:6379   */\n      tag_153\n        /* \"#utility.yul\":6377:6378   */\n      dup3\n        /* \"#utility.yul\":6359:6379   */\n      tag_69\n      jump\t// in\n    tag_153:\n        /* \"#utility.yul\":6354:6379   */\n      swap2\n      pop\n        /* \"#utility.yul\":6393:6413   */\n      tag_154\n        /* \"#utility.yul\":6411:6412   */\n      dup4\n        /* \"#utility.yul\":6393:6413   */\n      tag_69\n      jump\t// in\n    tag_154:\n        /* \"#utility.yul\":6388:6413   */\n      swap3\n      pop\n        /* \"#utility.yul\":6436:6437   */\n      dup3\n        /* \"#utility.yul\":6433:6434   */\n      dup3\n        /* \"#utility.yul\":6429:6438   */\n      add\n        /* \"#utility.yul\":6422:6438   */\n      swap1\n      pop\n        /* \"#utility.yul\":6457:6460   */\n      dup1\n        /* \"#utility.yul\":6454:6455   */\n      dup3\n        /* \"#utility.yul\":6451:6461   */\n      gt\n        /* \"#utility.yul\":6448:6484   */\n      iszero\n      tag_155\n      jumpi\n        /* \"#utility.yul\":6464:6482   */\n      tag_156\n      tag_81\n      jump\t// in\n    tag_156:\n        /* \"#utility.yul\":6448:6484   */\n    tag_155:\n        /* \"#utility.yul\":6300:6491   */\n      swap3\n      swap2\n      pop\n      pop\n      jump\t// out\n        /* \"#utility.yul\":6497:6677   */\n    tag_23:\n        /* \"#utility.yul\":6545:6622   */\n      0x4e487b7100000000000000000000000000000000000000000000000000000000\n        /* \"#utility.yul\":6542:6543   */\n      0x00\n        /* \"#utility.yul\":6535:6623   */\n      mstore\n        /* \"#utility.yul\":6642:6646   */\n      0x32\n        /* \"#utility.yul\":6639:6640   */\n      0x04\n        /* \"#utility.yul\":6632:6647   */\n      mstore\n        /* \"#utility.yul\":6666:6670   */\n      0x24\n        /* \"#utility.yul\":6663:6664   */\n      0x00\n        /* \"#utility.yul\":6656:6671   */\n      revert\n        /* \"#utility.yul\":6683:6916   */\n    tag_36:\n        /* \"#utility.yul\":6722:6725   */\n      0x00\n        /* \"#utility.yul\":6745:6769   */\n      tag_159\n        /* \"#utility.yul\":6763:6768   */\n      dup3\n        /* \"#utility.yul\":6745:6769   */\n      tag_69\n      jump\t// in\n    tag_159:\n        /* \"#utility.yul\":6736:6769   */\n      swap2\n      pop\n        /* \"#utility.yul\":6791:6857   */\n      0xffffffffffffffffffffffffffffffffffffffffffffffffffffffffffffffff\n        /* \"#utility.yul\":6784:6789   */\n      dup3\n        /* \"#utility.yul\":6781:6858   */\n      sub\n        /* \"#utility.yul\":6778:6881   */\n      tag_160\n      jumpi\n        /* \"#utility.yul\":6861:6879   */\n      tag_161\n      tag_81\n      jump\t// in\n    tag_161:\n        /* \"#utility.yul\":6778:6881   */\n    tag_160:\n        /* \"#utility.yul\":6908:6909   */\n      0x01\n        /* \"#utility.yul\":6901:6906   */\n      dup3\n        /* \"#utility.yul\":6897:6910   */\n      add\n        /* \"#utility.yul\":6890:6910   */\n      swap1\n      pop\n        /* \"#utility.yul\":6683:6916   */\n      swap2\n      swap1\n      pop\n      jump\t// out\n        /* \"#utility.yul\":6922:7102   */\n    tag_82:\n        /* \"#utility.yul\":6970:7047   */\n      0x4e487b7100000000000000000000000000000000000000000000000000000000\n        /* \"#utility.yul\":6967:6968   */\n      0x00\n        /* \"#utility.yul\":6960:7048   */\n      mstore\n        /* \"#utility.yul\":7067:7071   */\n      0x12\n        /* \"#utility.yul\":7064:7065   */\n      0x04\n        /* \"#utility.yul\":7057:7072   */\n      mstore\n        /* \"#utility.yul\":7091:7095   */\n      0x24\n        /* \"#utility.yul\":7088:7089   */\n      0x00\n        /* \"#utility.yul\":7081:7096   */\n      revert\n        /* \"#utility.yul\":7108:7284   */\n    tag_39:\n        /* \"#utility.yul\":7140:7141   */\n      0x00\n        /* \"#utility.yul\":7157:7177   */\n      tag_164\n        /* \"#utility.yul\":7175:7176   */\n      dup3\n        /* \"#utility.yul\":7157:7177   */\n      tag_69\n      jump\t// in\n    tag_164:\n        /* \"#utility.yul\":7152:7177   */\n      swap2\n      pop\n        /* \"#utility.yul\":7191:7211   */\n      tag_165\n        /* \"#utility.yul\":7209:7210   */\n      dup4\n        /* \"#utility.yul\":7191:7211   */\n      tag_69\n      jump\t// in\n    tag_165:\n        /* \"#utility.yul\":7186:7211   */\n      swap3\n      pop\n        /* \"#utility.yul\":7230:7231   */\n      dup3\n        /* \"#utility.yul\":7220:7255   */\n      tag_166\n      jumpi\n        /* \"#utility.yul\":7235:7253   */\n      tag_167\n      tag_82\n      jump\t// in\n    tag_167:\n        /* \"#utility.yul\":7220:7255   */\n    tag_166:\n        /* \"#utility.yul\":7276:7277   */\n      dup3\n        /* \"#utility.yul\":7273:7274   */\n      dup3\n        /* \"#utility.yul\":7269:7278   */\n      mod\n        /* \"#utility.yul\":7264:7278   */\n      swap1\n      pop\n        /* \"#utility.yul\":7108:7284   */\n      swap3\n      swap2\n      pop\n      pop\n      jump\t// out\n        /* \"#utility.yul\":7290:7475   */\n    tag_42:\n        /* \"#utility.yul\":7330:7331   */\n      0x00\n        /* \"#utility.yul\":7347:7367   */\n      tag_169\n        /* \"#utility.yul\":7365:7366   */\n      dup3\n        /* \"#utility.yul\":7347:7367   */\n      tag_69\n      jump\t// in\n    tag_169:\n        /* \"#utility.yul\":7342:7367   */\n      swap2\n      pop\n        /* \"#utility.yul\":7381:7401   */\n      tag_170\n        /* \"#utility.yul\":7399:7400   */\n      dup4\n        /* \"#utility.yul\":7381:7401   */\n      tag_69\n      jump\t// in\n    tag_170:\n        /* \"#utility.yul\":7376:7401   */\n      swap3\n      pop\n        /* \"#utility.yul\":7420:7421   */\n      dup3\n        /* \"#utility.yul\":7410:7445   */\n      tag_171\n      jumpi\n        /* \"#utility.yul\":7425:7443   */\n      tag_172\n      tag_82\n      jump\t// in\n    tag_172:\n        /* \"#utility.yul\":7410:7445   */\n    tag_171:\n        /* \"#utility.yul\":7467:7468   */\n      dup3\n        /* \"#utility.yul\":7464:7465   */\n      dup3\n        /* \"#utility.yul\":7460:7469   */\n      div\n        /* \"#utility.yul\":7455:7469   */\n      swap1\n      pop\n        /* \"#utility.yul\":7290:7475   */\n      swap3\n      swap2\n      pop\n      pop\n      jump\t// out\n\n    auxdata: 0xa264697066735822122095a3b55aa093ec21d7db2400bb78bcd0a36292fd0506f279c4faaf6a6b9676fa64736f6c63430008120033\n}\n",
				"bytecode": {
					"linkReferences": {},
					"object": "608060405234801561001057600080fd5b50610740806100206000396000f3fe608060405234801561001057600080fd5b506004361061002b5760003560e01c80634910c81314610030575b600080fd5b61004a6004803603810190610045919061042d565b610061565b604051610058929190610534565b60405180910390f35b60608060608060005b60018651610078919061059a565b81101561017257600060018261008e91906105ce565b90505b865181101561015e578681815181106100ad576100ac610602565b5b60200260200101518783815181106100c8576100c7610602565b5b6020026020010151111561014b578681815181106100e9576100e8610602565b5b602002602001015187838151811061010457610103610602565b5b602002602001015188848151811061011f5761011e610602565b5b6020026020010189848151811061013957610138610602565b5b60200260200101828152508281525050505b808061015690610631565b915050610091565b50808061016a90610631565b91505061006a565b5084905060006002825161018691906106a8565b03610234578060016002835161019c91906106d9565b6101a6919061059a565b815181106101b7576101b6610602565b5b6020026020010151826000815181106101d3576101d2610602565b5b60200260200101818152505080600282516101ee91906106d9565b815181106101ff576101fe610602565b5b60200260200101518260018151811061021b5761021a610602565b5b6020026020010181815250508181935093505050610285565b806002825161024391906106d9565b8151811061025457610253610602565b5b6020026020010151826000815181106102705761026f610602565b5b60200260200101818152505081819350935050505b915091565b6000604051905090565b600080fd5b600080fd5b600080fd5b6000601f19601f8301169050919050565b7f4e487b7100000000000000000000000000000000000000000000000000000000600052604160045260246000fd5b6102ec826102a3565b810181811067ffffffffffffffff8211171561030b5761030a6102b4565b5b80604052505050565b600061031e61028a565b905061032a82826102e3565b919050565b600067ffffffffffffffff82111561034a576103496102b4565b5b602082029050602081019050919050565b600080fd5b6000819050919050565b61037381610360565b811461037e57600080fd5b50565b6000813590506103908161036a565b92915050565b60006103a96103a48461032f565b610314565b905080838252602082019050602084028301858111156103cc576103cb61035b565b5b835b818110156103f557806103e18882610381565b8452602084019350506020810190506103ce565b5050509392505050565b600082601f8301126104145761041361029e565b5b8135610424848260208601610396565b91505092915050565b60006020828403121561044357610442610294565b5b600082013567ffffffffffffffff81111561046157610460610299565b5b61046d848285016103ff565b91505092915050565b600081519050919050565b600082825260208201905092915050565b6000819050602082019050919050565b6104ab81610360565b82525050565b60006104bd83836104a2565b60208301905092915050565b6000602082019050919050565b60006104e182610476565b6104eb8185610481565b93506104f683610492565b8060005b8381101561052757815161050e88826104b1565b9750610519836104c9565b9250506001810190506104fa565b5085935050505092915050565b6000604082019050818103600083015261054e81856104d6565b9050818103602083015261056281846104d6565b90509392505050565b7f4e487b7100000000000000000000000000000000000000000000000000000000600052601160045260246000fd5b60006105a582610360565b91506105b083610360565b92508282039050818111156105c8576105c761056b565b5b92915050565b60006105d982610360565b91506105e483610360565b92508282019050808211156105fc576105fb61056b565b5b92915050565b7f4e487b7100000000000000000000000000000000000000000000000000000000600052603260045260246000fd5b600061063c82610360565b91507fffffffffffffffffffffffffffffffffffffffffffffffffffffffffffffffff820361066e5761066d61056b565b5b600182019050919050565b7f4e487b7100000000000000000000000000000000000000000000000000000000600052601260045260246000fd5b60006106b382610360565b91506106be83610360565b9250826106ce576106cd610679565b5b828206905092915050565b60006106e482610360565b91506106ef83610360565b9250826106ff576106fe610679565b5b82820490509291505056fea264697066735822122095a3b55aa093ec21d7db2400bb78bcd0a36292fd0506f279c4faaf6a6b9676fa64736f6c63430008120033",
					"opcodes": "PUSH1 0x80 PUSH1 0x40 MSTORE CALLVALUE DUP1 ISZERO PUSH2 0x10 JUMPI PUSH1 0x0 DUP1 REVERT JUMPDEST POP PUSH2 0x740 DUP1 PUSH2 0x20 PUSH1 0x0 CODECOPY PUSH1 0x0 RETURN INVALID PUSH1 0x80 PUSH1 0x40 MSTORE CALLVALUE DUP1 ISZERO PUSH2 0x10 JUMPI PUSH1 0x0 DUP1 REVERT JUMPDEST POP PUSH1 0x4 CALLDATASIZE LT PUSH2 0x2B JUMPI PUSH1 0x0 CALLDATALOAD PUSH1 0xE0 SHR DUP1 PUSH4 0x4910C813 EQ PUSH2 0x30 JUMPI JUMPDEST PUSH1 0x0 DUP1 REVERT JUMPDEST PUSH2 0x4A PUSH1 0x4 DUP1 CALLDATASIZE SUB DUP2 ADD SWAP1 PUSH2 0x45 SWAP2 SWAP1 PUSH2 0x42D JUMP JUMPDEST PUSH2 0x61 JUMP JUMPDEST PUSH1 0x40 MLOAD PUSH2 0x58 SWAP3 SWAP2 SWAP1 PUSH2 0x534 JUMP JUMPDEST PUSH1 0x40 MLOAD DUP1 SWAP2 SUB SWAP1 RETURN JUMPDEST PUSH1 0x60 DUP1 PUSH1 0x60 DUP1 PUSH1 0x0 JUMPDEST PUSH1 0x1 DUP7 MLOAD PUSH2 0x78 SWAP2 SWAP1 PUSH2 0x59A JUMP JUMPDEST DUP2 LT ISZERO PUSH2 0x172 JUMPI PUSH1 0x0 PUSH1 0x1 DUP3 PUSH2 0x8E SWAP2 SWAP1 PUSH2 0x5CE JUMP JUMPDEST SWAP1 POP JUMPDEST DUP7 MLOAD DUP2 LT ISZERO PUSH2 0x15E JUMPI DUP7 DUP2 DUP2 MLOAD DUP2 LT PUSH2 0xAD JUMPI PUSH2 0xAC PUSH2 0x602 JUMP JUMPDEST JUMPDEST PUSH1 0x20 MUL PUSH1 0x20 ADD ADD MLOAD DUP8 DUP4 DUP2 MLOAD DUP2 LT PUSH2 0xC8 JUMPI PUSH2 0xC7 PUSH2 0x602 JUMP JUMPDEST JUMPDEST PUSH1 0x20 MUL PUSH1 0x20 ADD ADD MLOAD GT ISZERO PUSH2 0x14B JUMPI DUP7 DUP2 DUP2 MLOAD DUP2 LT PUSH2 0xE9 JUMPI PUSH2 0xE8 PUSH2 0x602 JUMP JUMPDEST JUMPDEST PUSH1 0x20 MUL PUSH1 0x20 ADD ADD MLOAD DUP8 DUP4 DUP2 MLOAD DUP2 LT PUSH2 0x104 JUMPI PUSH2 0x103 PUSH2 0x602 JUMP JUMPDEST JUMPDEST PUSH1 0x20 MUL PUSH1 0x20 ADD ADD MLOAD DUP9 DUP5 DUP2 MLOAD DUP2 LT PUSH2 0x11F JUMPI PUSH2 0x11E PUSH2 0x602 JUMP JUMPDEST JUMPDEST PUSH1 0x20 MUL PUSH1 0x20 ADD ADD DUP10 DUP5 DUP2 MLOAD DUP2 LT PUSH2 0x139 JUMPI PUSH2 0x138 PUSH2 0x602 JUMP JUMPDEST JUMPDEST PUSH1 0x20 MUL PUSH1 0x20 ADD ADD DUP3 DUP2 MSTORE POP DUP3 DUP2 MSTORE POP POP POP JUMPDEST DUP1 DUP1 PUSH2 0x156 SWAP1 PUSH2 0x631 JUMP JUMPDEST SWAP2 POP POP PUSH2 0x91 JUMP JUMPDEST POP DUP1 DUP1 PUSH2 0x16A SWAP1 PUSH2 0x631 JUMP JUMPDEST SWAP2 POP POP PUSH2 0x6A JUMP JUMPDEST POP DUP5 SWAP1 POP PUSH1 0x0 PUSH1 0x2 DUP3 MLOAD PUSH2 0x186 SWAP2 SWAP1 PUSH2 0x6A8 JUMP JUMPDEST SUB PUSH2 0x234 JUMPI DUP1 PUSH1 0x1 PUSH1 0x2 DUP4 MLOAD PUSH2 0x19C SWAP2 SWAP1 PUSH2 0x6D9 JUMP JUMPDEST PUSH2 0x1A6 SWAP2 SWAP1 PUSH2 0x59A JUMP JUMPDEST DUP2 MLOAD DUP2 LT PUSH2 0x1B7 JUMPI PUSH2 0x1B6 PUSH2 0x602 JUMP JUMPDEST JUMPDEST PUSH1 0x20 MUL PUSH1 0x20 ADD ADD MLOAD DUP3 PUSH1 0x0 DUP2 MLOAD DUP2 LT PUSH2 0x1D3 JUMPI PUSH2 0x1D2 PUSH2 0x602 JUMP JUMPDEST JUMPDEST PUSH1 0x20 MUL PUSH1 0x20 ADD ADD DUP2 DUP2 MSTORE POP POP DUP1 PUSH1 0x2 DUP3 MLOAD PUSH2 0x1EE SWAP2 SWAP1 PUSH2 0x6D9 JUMP JUMPDEST DUP2 MLOAD DUP2 LT PUSH2 0x1FF JUMPI PUSH2 0x1FE PUSH2 0x602 JUMP JUMPDEST JUMPDEST PUSH1 0x20 MUL PUSH1 0x20 ADD ADD MLOAD DUP3 PUSH1 0x1 DUP2 MLOAD DUP2 LT PUSH2 0x21B JUMPI PUSH2 0x21A PUSH2 0x602 JUMP JUMPDEST JUMPDEST PUSH1 0x20 MUL PUSH1 0x20 ADD ADD DUP2 DUP2 MSTORE POP POP DUP2 DUP2 SWAP4 POP SWAP4 POP POP POP PUSH2 0x285 JUMP JUMPDEST DUP1 PUSH1 0x2 DUP3 MLOAD PUSH2 0x243 SWAP2 SWAP1 PUSH2 0x6D9 JUMP JUMPDEST DUP2 MLOAD DUP2 LT PUSH2 0x254 JUMPI PUSH2 0x253 PUSH2 0x602 JUMP JUMPDEST JUMPDEST PUSH1 0x20 MUL PUSH1 0x20 ADD ADD MLOAD DUP3 PUSH1 0x0 DUP2 MLOAD DUP2 LT PUSH2 0x270 JUMPI PUSH2 0x26F PUSH2 0x602 JUMP JUMPDEST JUMPDEST PUSH1 0x20 MUL PUSH1 0x20 ADD ADD DUP2 DUP2 MSTORE POP POP DUP2 DUP2 SWAP4 POP SWAP4 POP POP POP JUMPDEST SWAP2 POP SWAP2 JUMP JUMPDEST PUSH1 0x0 PUSH1 0x40 MLOAD SWAP1 POP SWAP1 JUMP JUMPDEST PUSH1 0x0 DUP1 REVERT JUMPDEST PUSH1 0x0 DUP1 REVERT JUMPDEST PUSH1 0x0 DUP1 REVERT JUMPDEST PUSH1 0x0 PUSH1 0x1F NOT PUSH1 0x1F DUP4 ADD AND SWAP1 POP SWAP2 SWAP1 POP JUMP JUMPDEST PUSH32 0x4E487B7100000000000000000000000000000000000000000000000000000000 PUSH1 0x0 MSTORE PUSH1 0x41 PUSH1 0x4 MSTORE PUSH1 0x24 PUSH1 0x0 REVERT JUMPDEST PUSH2 0x2EC DUP3 PUSH2 0x2A3 JUMP JUMPDEST DUP2 ADD DUP2 DUP2 LT PUSH8 0xFFFFFFFFFFFFFFFF DUP3 GT OR ISZERO PUSH2 0x30B JUMPI PUSH2 0x30A PUSH2 0x2B4 JUMP JUMPDEST JUMPDEST DUP1 PUSH1 0x40 MSTORE POP POP POP JUMP JUMPDEST PUSH1 0x0 PUSH2 0x31E PUSH2 0x28A JUMP JUMPDEST SWAP1 POP PUSH2 0x32A DUP3 DUP3 PUSH2 0x2E3 JUMP JUMPDEST SWAP2 SWAP1 POP JUMP JUMPDEST PUSH1 0x0 PUSH8 0xFFFFFFFFFFFFFFFF DUP3 GT ISZERO PUSH2 0x34A JUMPI PUSH2 0x349 PUSH2 0x2B4 JUMP JUMPDEST JUMPDEST PUSH1 0x20 DUP3 MUL SWAP1 POP PUSH1 0x20 DUP2 ADD SWAP1 POP SWAP2 SWAP1 POP JUMP JUMPDEST PUSH1 0x0 DUP1 REVERT JUMPDEST PUSH1 0x0 DUP2 SWAP1 POP SWAP2 SWAP1 POP JUMP JUMPDEST PUSH2 0x373 DUP2 PUSH2 0x360 JUMP JUMPDEST DUP2 EQ PUSH2 0x37E JUMPI PUSH1 0x0 DUP1 REVERT JUMPDEST POP JUMP JUMPDEST PUSH1 0x0 DUP2 CALLDATALOAD SWAP1 POP PUSH2 0x390 DUP2 PUSH2 0x36A JUMP JUMPDEST SWAP3 SWAP2 POP POP JUMP JUMPDEST PUSH1 0x0 PUSH2 0x3A9 PUSH2 0x3A4 DUP5 PUSH2 0x32F JUMP JUMPDEST PUSH2 0x314 JUMP JUMPDEST SWAP1 POP DUP1 DUP4 DUP3 MSTORE PUSH1 0x20 DUP3 ADD SWAP1 POP PUSH1 0x20 DUP5 MUL DUP4 ADD DUP6 DUP2 GT ISZERO PUSH2 0x3CC JUMPI PUSH2 0x3CB PUSH2 0x35B JUMP JUMPDEST JUMPDEST DUP4 JUMPDEST DUP2 DUP2 LT ISZERO PUSH2 0x3F5 JUMPI DUP1 PUSH2 0x3E1 DUP9 DUP3 PUSH2 0x381 JUMP JUMPDEST DUP5 MSTORE PUSH1 0x20 DUP5 ADD SWAP4 POP POP PUSH1 0x20 DUP2 ADD SWAP1 POP PUSH2 0x3CE JUMP JUMPDEST POP POP POP SWAP4 SWAP3 POP POP POP JUMP JUMPDEST PUSH1 0x0 DUP3 PUSH1 0x1F DUP4 ADD SLT PUSH2 0x414 JUMPI PUSH2 0x413 PUSH2 0x29E JUMP JUMPDEST JUMPDEST DUP2 CALLDATALOAD PUSH2 0x424 DUP5 DUP3 PUSH1 0x20 DUP7 ADD PUSH2 0x396 JUMP JUMPDEST SWAP2 POP POP SWAP3 SWAP2 POP POP JUMP JUMPDEST PUSH1 0x0 PUSH1 0x20 DUP3 DUP5 SUB SLT ISZERO PUSH2 0x443 JUMPI PUSH2 0x442 PUSH2 0x294 JUMP JUMPDEST JUMPDEST PUSH1 0x0 DUP3 ADD CALLDATALOAD PUSH8 0xFFFFFFFFFFFFFFFF DUP2 GT ISZERO PUSH2 0x461 JUMPI PUSH2 0x460 PUSH2 0x299 JUMP JUMPDEST JUMPDEST PUSH2 0x46D DUP5 DUP3 DUP6 ADD PUSH2 0x3FF JUMP JUMPDEST SWAP2 POP POP SWAP3 SWAP2 POP POP JUMP JUMPDEST PUSH1 0x0 DUP2 MLOAD SWAP1 POP SWAP2 SWAP1 POP JUMP JUMPDEST PUSH1 0x0 DUP3 DUP3 MSTORE PUSH1 0x20 DUP3 ADD SWAP1 POP SWAP3 SWAP2 POP POP JUMP JUMPDEST PUSH1 0x0 DUP2 SWAP1 POP PUSH1 0x20 DUP3 ADD SWAP1 POP SWAP2 SWAP1 POP JUMP JUMPDEST PUSH2 0x4AB DUP2 PUSH2 0x360 JUMP JUMPDEST DUP3 MSTORE POP POP JUMP JUMPDEST PUSH1 0x0 PUSH2 0x4BD DUP4 DUP4 PUSH2 0x4A2 JUMP JUMPDEST PUSH1 0x20 DUP4 ADD SWAP1 POP SWAP3 SWAP2 POP POP JUMP JUMPDEST PUSH1 0x0 PUSH1 0x20 DUP3 ADD SWAP1 POP SWAP2 SWAP1 POP JUMP JUMPDEST PUSH1 0x0 PUSH2 0x4E1 DUP3 PUSH2 0x476 JUMP JUMPDEST PUSH2 0x4EB DUP2 DUP6 PUSH2 0x481 JUMP JUMPDEST SWAP4 POP PUSH2 0x4F6 DUP4 PUSH2 0x492 JUMP JUMPDEST DUP1 PUSH1 0x0 JUMPDEST DUP4 DUP2 LT ISZERO PUSH2 0x527 JUMPI DUP2 MLOAD PUSH2 0x50E DUP9 DUP3 PUSH2 0x4B1 JUMP JUMPDEST SWAP8 POP PUSH2 0x519 DUP4 PUSH2 0x4C9 JUMP JUMPDEST SWAP3 POP POP PUSH1 0x1 DUP2 ADD SWAP1 POP PUSH2 0x4FA JUMP JUMPDEST POP DUP6 SWAP4 POP POP POP POP SWAP3 SWAP2 POP POP JUMP JUMPDEST PUSH1 0x0 PUSH1 0x40 DUP3 ADD SWAP1 POP DUP2 DUP2 SUB PUSH1 0x0 DUP4 ADD MSTORE PUSH2 0x54E DUP2 DUP6 PUSH2 0x4D6 JUMP JUMPDEST SWAP1 POP DUP2 DUP2 SUB PUSH1 0x20 DUP4 ADD MSTORE PUSH2 0x562 DUP2 DUP5 PUSH2 0x4D6 JUMP JUMPDEST SWAP1 POP SWAP4 SWAP3 POP POP POP JUMP JUMPDEST PUSH32 0x4E487B7100000000000000000000000000000000000000000000000000000000 PUSH1 0x0 MSTORE PUSH1 0x11 PUSH1 0x4 MSTORE PUSH1 0x24 PUSH1 0x0 REVERT JUMPDEST PUSH1 0x0 PUSH2 0x5A5 DUP3 PUSH2 0x360 JUMP JUMPDEST SWAP2 POP PUSH2 0x5B0 DUP4 PUSH2 0x360 JUMP JUMPDEST SWAP3 POP DUP3 DUP3 SUB SWAP1 POP DUP2 DUP2 GT ISZERO PUSH2 0x5C8 JUMPI PUSH2 0x5C7 PUSH2 0x56B JUMP JUMPDEST JUMPDEST SWAP3 SWAP2 POP POP JUMP JUMPDEST PUSH1 0x0 PUSH2 0x5D9 DUP3 PUSH2 0x360 JUMP JUMPDEST SWAP2 POP PUSH2 0x5E4 DUP4 PUSH2 0x360 JUMP JUMPDEST SWAP3 POP DUP3 DUP3 ADD SWAP1 POP DUP1 DUP3 GT ISZERO PUSH2 0x5FC JUMPI PUSH2 0x5FB PUSH2 0x56B JUMP JUMPDEST JUMPDEST SWAP3 SWAP2 POP POP JUMP JUMPDEST PUSH32 0x4E487B7100000000000000000000000000000000000000000000000000000000 PUSH1 0x0 MSTORE PUSH1 0x32 PUSH1 0x4 MSTORE PUSH1 0x24 PUSH1 0x0 REVERT JUMPDEST PUSH1 0x0 PUSH2 0x63C DUP3 PUSH2 0x360 JUMP JUMPDEST SWAP2 POP PUSH32 0xFFFFFFFFFFFFFFFFFFFFFFFFFFFFFFFFFFFFFFFFFFFFFFFFFFFFFFFFFFFFFFFF DUP3 SUB PUSH2 0x66E JUMPI PUSH2 0x66D PUSH2 0x56B JUMP JUMPDEST JUMPDEST PUSH1 0x1 DUP3 ADD SWAP1 POP SWAP2 SWAP1 POP JUMP JUMPDEST PUSH32 0x4E487B7100000000000000000000000000000000000000000000000000000000 PUSH1 0x0 MSTORE PUSH1 0x12 PUSH1 0x4 MSTORE PUSH1 0x24 PUSH1 0x0 REVERT JUMPDEST PUSH1 0x0 PUSH2 0x6B3 DUP3 PUSH2 0x360 JUMP JUMPDEST SWAP2 POP PUSH2 0x6BE DUP4 PUSH2 0x360 JUMP JUMPDEST SWAP3 POP DUP3 PUSH2 0x6CE JUMPI PUSH2 0x6CD PUSH2 0x679 JUMP JUMPDEST JUMPDEST DUP3 DUP3 MOD SWAP1 POP SWAP3 SWAP2 POP POP JUMP JUMPDEST PUSH1 0x0 PUSH2 0x6E4 DUP3 PUSH2 0x360 JUMP JUMPDEST SWAP2 POP PUSH2 0x6EF DUP4 PUSH2 0x360 JUMP JUMPDEST SWAP3 POP DUP3 PUSH2 0x6FF JUMPI PUSH2 0x6FE PUSH2 0x679 JUMP JUMPDEST JUMPDEST DUP3 DUP3 DIV SWAP1 POP SWAP3 SWAP2 POP POP JUMP INVALID LOG2 PUSH5 0x6970667358 0x22 SLT KECCAK256 SWAP6 LOG3 0xB5 GAS LOG0 SWAP4 0xEC 0x21 0xD7 0xDB 0x24 STOP 0xBB PUSH25 0xBCD0A36292FD0506F279C4FAAF6A6B9676FA64736F6C634300 ADDMOD SLT STOP CALLER "
				},
				"gasEstimates": {
					"creation": {
						"codeDepositCost": "371200",
						"executionCost": "405",
						"totalCost": "371605"
					},
					"external": {
						"sorting(uint256[])": "infinite"
					}
				},
				"methodIdentifiers": {
					"sorting(uint256[])": "4910c813"
				}
			},
			"storageLayout": {
				"storage": [],
				"types": null
			},
			"userdoc": {
				"kind": "user",
				"methods": {},
				"version": 1
			}
		}
	}
}