{
	"contracts-basic/week4.sol": {
		"_39": {
			"abi": [
				{
					"inputs": [
						{
							"internalType": "uint256",
							"name": "_n",
							"type": "uint256"
						}
					],
					"name": "returnNumbers",
					"outputs": [
						{
							"internalType": "uint256",
							"name": "",
							"type": "uint256"
						},
						{
							"internalType": "uint256",
							"name": "",
							"type": "uint256"
						},
						{
							"internalType": "uint256",
							"name": "",
							"type": "uint256"
						},
						{
							"internalType": "uint256",
							"name": "",
							"type": "uint256"
						}
					],
					"stateMutability": "pure",
					"type": "function"
				}
			],
			"devdoc": {
				"kind": "dev",
				"methods": {},
				"version": 1
			},
			"evm": {
				"assembly": "    /* \"contracts-basic/week4.sol\":2987:3133  contract _39 {... */\n  mstore(0x40, 0x80)\n  callvalue\n  dup1\n  iszero\n  tag_1\n  jumpi\n  0x00\n  dup1\n  revert\ntag_1:\n  pop\n  dataSize(sub_0)\n  dup1\n  dataOffset(sub_0)\n  0x00\n  codecopy\n  0x00\n  return\nstop\n\nsub_0: assembly {\n        /* \"contracts-basic/week4.sol\":2987:3133  contract _39 {... */\n      mstore(0x40, 0x80)\n      callvalue\n      dup1\n      iszero\n      tag_1\n      jumpi\n      0x00\n      dup1\n      revert\n    tag_1:\n      pop\n      jumpi(tag_2, lt(calldatasize, 0x04))\n      shr(0xe0, calldataload(0x00))\n      dup1\n      0x4f159107\n      eq\n      tag_3\n      jumpi\n    tag_2:\n      0x00\n      dup1\n      revert\n        /* \"contracts-basic/week4.sol\":3006:3131  function returnNumbers(uint _n) public pure returns (uint, uint, uint, uint) {... */\n    tag_3:\n      tag_4\n      0x04\n      dup1\n      calldatasize\n      sub\n      dup2\n      add\n      swap1\n      tag_5\n      swap2\n      swap1\n      tag_6\n      jump\t// in\n    tag_5:\n      tag_7\n      jump\t// in\n    tag_4:\n      mload(0x40)\n      tag_8\n      swap5\n      swap4\n      swap3\n      swap2\n      swap1\n      tag_9\n      jump\t// in\n    tag_8:\n      mload(0x40)\n      dup1\n      swap2\n      sub\n      swap1\n      return\n    tag_7:\n        /* \"contracts-basic/week4.sol\":3059:3063  uint */\n      0x00\n        /* \"contracts-basic/week4.sol\":3065:3069  uint */\n      dup1\n        /* \"contracts-basic/week4.sol\":3071:3075  uint */\n      0x00\n        /* \"contracts-basic/week4.sol\":3077:3081  uint */\n      dup1\n        /* \"contracts-basic/week4.sol\":3104:3105  2 */\n      0x02\n        /* \"contracts-basic/week4.sol\":3101:3103  _n */\n      dup6\n        /* \"contracts-basic/week4.sol\":3101:3105  _n/2 */\n      tag_11\n      swap2\n      swap1\n      tag_12\n      jump\t// in\n    tag_11:\n        /* \"contracts-basic/week4.sol\":3110:3111  3 */\n      0x03\n        /* \"contracts-basic/week4.sol\":3107:3109  _n */\n      dup7\n        /* \"contracts-basic/week4.sol\":3107:3111  _n/3 */\n      tag_13\n      swap2\n      swap1\n      tag_12\n      jump\t// in\n    tag_13:\n        /* \"contracts-basic/week4.sol\":3116:3117  5 */\n      0x05\n        /* \"contracts-basic/week4.sol\":3113:3115  _n */\n      dup8\n        /* \"contracts-basic/week4.sol\":3113:3117  _n/5 */\n      tag_14\n      swap2\n      swap1\n      tag_12\n      jump\t// in\n    tag_14:\n        /* \"contracts-basic/week4.sol\":3122:3123  7 */\n      0x07\n        /* \"contracts-basic/week4.sol\":3119:3121  _n */\n      dup9\n        /* \"contracts-basic/week4.sol\":3119:3123  _n/7 */\n      tag_15\n      swap2\n      swap1\n      tag_12\n      jump\t// in\n    tag_15:\n        /* \"contracts-basic/week4.sol\":3093:3124  return (_n/2, _n/3, _n/5, _n/7) */\n      swap4\n      pop\n      swap4\n      pop\n      swap4\n      pop\n      swap4\n      pop\n        /* \"contracts-basic/week4.sol\":3006:3131  function returnNumbers(uint _n) public pure returns (uint, uint, uint, uint) {... */\n      swap2\n      swap4\n      pop\n      swap2\n      swap4\n      jump\t// out\n        /* \"#utility.yul\":88:205   */\n    tag_17:\n        /* \"#utility.yul\":197:198   */\n      0x00\n        /* \"#utility.yul\":194:195   */\n      dup1\n        /* \"#utility.yul\":187:199   */\n      revert\n        /* \"#utility.yul\":334:411   */\n    tag_19:\n        /* \"#utility.yul\":371:378   */\n      0x00\n        /* \"#utility.yul\":400:405   */\n      dup2\n        /* \"#utility.yul\":389:405   */\n      swap1\n      pop\n        /* \"#utility.yul\":334:411   */\n      swap2\n      swap1\n      pop\n      jump\t// out\n        /* \"#utility.yul\":417:539   */\n    tag_20:\n        /* \"#utility.yul\":490:514   */\n      tag_31\n        /* \"#utility.yul\":508:513   */\n      dup2\n        /* \"#utility.yul\":490:514   */\n      tag_19\n      jump\t// in\n    tag_31:\n        /* \"#utility.yul\":483:488   */\n      dup2\n        /* \"#utility.yul\":480:515   */\n      eq\n        /* \"#utility.yul\":470:533   */\n      tag_32\n      jumpi\n        /* \"#utility.yul\":529:530   */\n      0x00\n        /* \"#utility.yul\":526:527   */\n      dup1\n        /* \"#utility.yul\":519:531   */\n      revert\n        /* \"#utility.yul\":470:533   */\n    tag_32:\n        /* \"#utility.yul\":417:539   */\n      pop\n      jump\t// out\n        /* \"#utility.yul\":545:684   */\n    tag_21:\n        /* \"#utility.yul\":591:596   */\n      0x00\n        /* \"#utility.yul\":629:635   */\n      dup2\n        /* \"#utility.yul\":616:636   */\n      calldataload\n        /* \"#utility.yul\":607:636   */\n      swap1\n      pop\n        /* \"#utility.yul\":645:678   */\n      tag_34\n        /* \"#utility.yul\":672:677   */\n      dup2\n        /* \"#utility.yul\":645:678   */\n      tag_20\n      jump\t// in\n    tag_34:\n        /* \"#utility.yul\":545:684   */\n      swap3\n      swap2\n      pop\n      pop\n      jump\t// out\n        /* \"#utility.yul\":690:1019   */\n    tag_6:\n        /* \"#utility.yul\":749:755   */\n      0x00\n        /* \"#utility.yul\":798:800   */\n      0x20\n        /* \"#utility.yul\":786:795   */\n      dup3\n        /* \"#utility.yul\":777:784   */\n      dup5\n        /* \"#utility.yul\":773:796   */\n      sub\n        /* \"#utility.yul\":769:801   */\n      slt\n        /* \"#utility.yul\":766:885   */\n      iszero\n      tag_36\n      jumpi\n        /* \"#utility.yul\":804:883   */\n      tag_37\n      tag_17\n      jump\t// in\n    tag_37:\n        /* \"#utility.yul\":766:885   */\n    tag_36:\n        /* \"#utility.yul\":924:925   */\n      0x00\n        /* \"#utility.yul\":949:1002   */\n      tag_38\n        /* \"#utility.yul\":994:1001   */\n      dup5\n        /* \"#utility.yul\":985:991   */\n      dup3\n        /* \"#utility.yul\":974:983   */\n      dup6\n        /* \"#utility.yul\":970:992   */\n      add\n        /* \"#utility.yul\":949:1002   */\n      tag_21\n      jump\t// in\n    tag_38:\n        /* \"#utility.yul\":939:1002   */\n      swap2\n      pop\n        /* \"#utility.yul\":895:1012   */\n      pop\n        /* \"#utility.yul\":690:1019   */\n      swap3\n      swap2\n      pop\n      pop\n      jump\t// out\n        /* \"#utility.yul\":1025:1143   */\n    tag_22:\n        /* \"#utility.yul\":1112:1136   */\n      tag_40\n        /* \"#utility.yul\":1130:1135   */\n      dup2\n        /* \"#utility.yul\":1112:1136   */\n      tag_19\n      jump\t// in\n    tag_40:\n        /* \"#utility.yul\":1107:1110   */\n      dup3\n        /* \"#utility.yul\":1100:1137   */\n      mstore\n        /* \"#utility.yul\":1025:1143   */\n      pop\n      pop\n      jump\t// out\n        /* \"#utility.yul\":1149:1702   */\n    tag_9:\n        /* \"#utility.yul\":1326:1330   */\n      0x00\n        /* \"#utility.yul\":1364:1367   */\n      0x80\n        /* \"#utility.yul\":1353:1362   */\n      dup3\n        /* \"#utility.yul\":1349:1368   */\n      add\n        /* \"#utility.yul\":1341:1368   */\n      swap1\n      pop\n        /* \"#utility.yul\":1378:1449   */\n      tag_42\n        /* \"#utility.yul\":1446:1447   */\n      0x00\n        /* \"#utility.yul\":1435:1444   */\n      dup4\n        /* \"#utility.yul\":1431:1448   */\n      add\n        /* \"#utility.yul\":1422:1428   */\n      dup8\n        /* \"#utility.yul\":1378:1449   */\n      tag_22\n      jump\t// in\n    tag_42:\n        /* \"#utility.yul\":1459:1531   */\n      tag_43\n        /* \"#utility.yul\":1527:1529   */\n      0x20\n        /* \"#utility.yul\":1516:1525   */\n      dup4\n        /* \"#utility.yul\":1512:1530   */\n      add\n        /* \"#utility.yul\":1503:1509   */\n      dup7\n        /* \"#utility.yul\":1459:1531   */\n      tag_22\n      jump\t// in\n    tag_43:\n        /* \"#utility.yul\":1541:1613   */\n      tag_44\n        /* \"#utility.yul\":1609:1611   */\n      0x40\n        /* \"#utility.yul\":1598:1607   */\n      dup4\n        /* \"#utility.yul\":1594:1612   */\n      add\n        /* \"#utility.yul\":1585:1591   */\n      dup6\n        /* \"#utility.yul\":1541:1613   */\n      tag_22\n      jump\t// in\n    tag_44:\n        /* \"#utility.yul\":1623:1695   */\n      tag_45\n        /* \"#utility.yul\":1691:1693   */\n      0x60\n        /* \"#utility.yul\":1680:1689   */\n      dup4\n        /* \"#utility.yul\":1676:1694   */\n      add\n        /* \"#utility.yul\":1667:1673   */\n      dup5\n        /* \"#utility.yul\":1623:1695   */\n      tag_22\n      jump\t// in\n    tag_45:\n        /* \"#utility.yul\":1149:1702   */\n      swap6\n      swap5\n      pop\n      pop\n      pop\n      pop\n      pop\n      jump\t// out\n        /* \"#utility.yul\":1708:1888   */\n    tag_23:\n        /* \"#utility.yul\":1756:1833   */\n      0x4e487b7100000000000000000000000000000000000000000000000000000000\n        /* \"#utility.yul\":1753:1754   */\n      0x00\n        /* \"#utility.yul\":1746:1834   */\n      mstore\n        /* \"#utility.yul\":1853:1857   */\n      0x12\n        /* \"#utility.yul\":1850:1851   */\n      0x04\n        /* \"#utility.yul\":1843:1858   */\n      mstore\n        /* \"#utility.yul\":1877:1881   */\n      0x24\n        /* \"#utility.yul\":1874:1875   */\n      0x00\n        /* \"#utility.yul\":1867:1882   */\n      revert\n        /* \"#utility.yul\":2080:2265   */\n    tag_12:\n        /* \"#utility.yul\":2120:2121   */\n      0x00\n        /* \"#utility.yul\":2137:2157   */\n      tag_49\n        /* \"#utility.yul\":2155:2156   */\n      dup3\n        /* \"#utility.yul\":2137:2157   */\n      tag_19\n      jump\t// in\n    tag_49:\n        /* \"#utility.yul\":2132:2157   */\n      swap2\n      pop\n        /* \"#utility.yul\":2171:2191   */\n      tag_50\n        /* \"#utility.yul\":2189:2190   */\n      dup4\n        /* \"#utility.yul\":2171:2191   */\n      tag_19\n      jump\t// in\n    tag_50:\n        /* \"#utility.yul\":2166:2191   */\n      swap3\n      pop\n        /* \"#utility.yul\":2210:2211   */\n      dup3\n        /* \"#utility.yul\":2200:2235   */\n      tag_51\n      jumpi\n        /* \"#utility.yul\":2215:2233   */\n      tag_52\n      tag_23\n      jump\t// in\n    tag_52:\n        /* \"#utility.yul\":2200:2235   */\n    tag_51:\n        /* \"#utility.yul\":2257:2258   */\n      dup3\n        /* \"#utility.yul\":2254:2255   */\n      dup3\n        /* \"#utility.yul\":2250:2259   */\n      div\n        /* \"#utility.yul\":2245:2259   */\n      swap1\n      pop\n        /* \"#utility.yul\":2080:2265   */\n      swap3\n      swap2\n      pop\n      pop\n      jump\t// out\n\n    auxdata: 0xa26469706673582212207a3955f40adca9aabe567ef1e291574619bc009b235750667861c8c100f2bee064736f6c63430008120033\n}\n",
				"bytecode": {
					"linkReferences": {},
					"object": "608060405234801561001057600080fd5b506101fe806100206000396000f3fe608060405234801561001057600080fd5b506004361061002b5760003560e01c80634f15910714610030575b600080fd5b61004a600480360381019061004591906100e7565b610063565b60405161005a9493929190610123565b60405180910390f35b6000806000806002856100769190610197565b6003866100839190610197565b6005876100909190610197565b60078861009d9190610197565b93509350935093509193509193565b600080fd5b6000819050919050565b6100c4816100b1565b81146100cf57600080fd5b50565b6000813590506100e1816100bb565b92915050565b6000602082840312156100fd576100fc6100ac565b5b600061010b848285016100d2565b91505092915050565b61011d816100b1565b82525050565b60006080820190506101386000830187610114565b6101456020830186610114565b6101526040830185610114565b61015f6060830184610114565b95945050505050565b7f4e487b7100000000000000000000000000000000000000000000000000000000600052601260045260246000fd5b60006101a2826100b1565b91506101ad836100b1565b9250826101bd576101bc610168565b5b82820490509291505056fea26469706673582212207a3955f40adca9aabe567ef1e291574619bc009b235750667861c8c100f2bee064736f6c63430008120033",
					"opcodes": "PUSH1 0x80 PUSH1 0x40 MSTORE CALLVALUE DUP1 ISZERO PUSH2 0x10 JUMPI PUSH1 0x0 DUP1 REVERT JUMPDEST POP PUSH2 0x1FE DUP1 PUSH2 0x20 PUSH1 0x0 CODECOPY PUSH1 0x0 RETURN INVALID PUSH1 0x80 PUSH1 0x40 MSTORE CALLVALUE DUP1 ISZERO PUSH2 0x10 JUMPI PUSH1 0x0 DUP1 REVERT JUMPDEST POP PUSH1 0x4 CALLDATASIZE LT PUSH2 0x2B JUMPI PUSH1 0x0 CALLDATALOAD PUSH1 0xE0 SHR DUP1 PUSH4 0x4F159107 EQ PUSH2 0x30 JUMPI JUMPDEST PUSH1 0x0 DUP1 REVERT JUMPDEST PUSH2 0x4A PUSH1 0x4 DUP1 CALLDATASIZE SUB DUP2 ADD SWAP1 PUSH2 0x45 SWAP2 SWAP1 PUSH2 0xE7 JUMP JUMPDEST PUSH2 0x63 JUMP JUMPDEST PUSH1 0x40 MLOAD PUSH2 0x5A SWAP5 SWAP4 SWAP3 SWAP2 SWAP1 PUSH2 0x123 JUMP JUMPDEST PUSH1 0x40 MLOAD DUP1 SWAP2 SUB SWAP1 RETURN JUMPDEST PUSH1 0x0 DUP1 PUSH1 0x0 DUP1 PUSH1 0x2 DUP6 PUSH2 0x76 SWAP2 SWAP1 PUSH2 0x197 JUMP JUMPDEST PUSH1 0x3 DUP7 PUSH2 0x83 SWAP2 SWAP1 PUSH2 0x197 JUMP JUMPDEST PUSH1 0x5 DUP8 PUSH2 0x90 SWAP2 SWAP1 PUSH2 0x197 JUMP JUMPDEST PUSH1 0x7 DUP9 PUSH2 0x9D SWAP2 SWAP1 PUSH2 0x197 JUMP JUMPDEST SWAP4 POP SWAP4 POP SWAP4 POP SWAP4 POP SWAP2 SWAP4 POP SWAP2 SWAP4 JUMP JUMPDEST PUSH1 0x0 DUP1 REVERT JUMPDEST PUSH1 0x0 DUP2 SWAP1 POP SWAP2 SWAP1 POP JUMP JUMPDEST PUSH2 0xC4 DUP2 PUSH2 0xB1 JUMP JUMPDEST DUP2 EQ PUSH2 0xCF JUMPI PUSH1 0x0 DUP1 REVERT JUMPDEST POP JUMP JUMPDEST PUSH1 0x0 DUP2 CALLDATALOAD SWAP1 POP PUSH2 0xE1 DUP2 PUSH2 0xBB JUMP JUMPDEST SWAP3 SWAP2 POP POP JUMP JUMPDEST PUSH1 0x0 PUSH1 0x20 DUP3 DUP5 SUB SLT ISZERO PUSH2 0xFD JUMPI PUSH2 0xFC PUSH2 0xAC JUMP JUMPDEST JUMPDEST PUSH1 0x0 PUSH2 0x10B DUP5 DUP3 DUP6 ADD PUSH2 0xD2 JUMP JUMPDEST SWAP2 POP POP SWAP3 SWAP2 POP POP JUMP JUMPDEST PUSH2 0x11D DUP2 PUSH2 0xB1 JUMP JUMPDEST DUP3 MSTORE POP POP JUMP JUMPDEST PUSH1 0x0 PUSH1 0x80 DUP3 ADD SWAP1 POP PUSH2 0x138 PUSH1 0x0 DUP4 ADD DUP8 PUSH2 0x114 JUMP JUMPDEST PUSH2 0x145 PUSH1 0x20 DUP4 ADD DUP7 PUSH2 0x114 JUMP JUMPDEST PUSH2 0x152 PUSH1 0x40 DUP4 ADD DUP6 PUSH2 0x114 JUMP JUMPDEST PUSH2 0x15F PUSH1 0x60 DUP4 ADD DUP5 PUSH2 0x114 JUMP JUMPDEST SWAP6 SWAP5 POP POP POP POP POP JUMP JUMPDEST PUSH32 0x4E487B7100000000000000000000000000000000000000000000000000000000 PUSH1 0x0 MSTORE PUSH1 0x12 PUSH1 0x4 MSTORE PUSH1 0x24 PUSH1 0x0 REVERT JUMPDEST PUSH1 0x0 PUSH2 0x1A2 DUP3 PUSH2 0xB1 JUMP JUMPDEST SWAP2 POP PUSH2 0x1AD DUP4 PUSH2 0xB1 JUMP JUMPDEST SWAP3 POP DUP3 PUSH2 0x1BD JUMPI PUSH2 0x1BC PUSH2 0x168 JUMP JUMPDEST JUMPDEST DUP3 DUP3 DIV SWAP1 POP SWAP3 SWAP2 POP POP JUMP INVALID LOG2 PUSH5 0x6970667358 0x22 SLT KECCAK256 PUSH27 0x3955F40ADCA9AABE567EF1E291574619BC009B235750667861C8C1 STOP CALLCODE 0xBE 0xE0 PUSH5 0x736F6C6343 STOP ADDMOD SLT STOP CALLER "
				},
				"gasEstimates": {
					"creation": {
						"codeDepositCost": "102000",
						"executionCost": "147",
						"totalCost": "102147"
					},
					"external": {
						"returnNumbers(uint256)": "infinite"
					}
				},
				"methodIdentifiers": {
					"returnNumbers(uint256)": "4f159107"
				}
			},
			"storageLayout": {
				"storage": [],
				"types": null
			},
			"userdoc": {
				"kind": "user",
				"methods": {},
				"version": 1
			}
		}
	}
}