{
	"contracts-basic/week4.sol": {
		"_38": {
			"abi": [
				{
					"inputs": [],
					"stateMutability": "nonpayable",
					"type": "constructor"
				},
				{
					"inputs": [],
					"name": "changeToB",
					"outputs": [],
					"stateMutability": "nonpayable",
					"type": "function"
				},
				{
					"inputs": [],
					"name": "changeToC",
					"outputs": [],
					"stateMutability": "nonpayable",
					"type": "function"
				},
				{
					"inputs": [],
					"name": "getA",
					"outputs": [
						{
							"internalType": "string",
							"name": "",
							"type": "string"
						}
					],
					"stateMutability": "view",
					"type": "function"
				},
				{
					"inputs": [],
					"name": "owner",
					"outputs": [
						{
							"internalType": "address payable",
							"name": "",
							"type": "address"
						}
					],
					"stateMutability": "view",
					"type": "function"
				}
			],
			"devdoc": {
				"kind": "dev",
				"methods": {},
				"version": 1
			},
			"evm": {
				"assembly": "    /* \"contracts-basic/week4.sol\":2531:2985  contract _38 {... */\n  mstore(0x40, 0x80)\n    /* \"contracts-basic/week4.sol\":2585:2599  string a = \"A\" */\n  mload(0x40)\n  dup1\n  0x40\n  add\n  0x40\n  mstore\n  dup1\n  0x01\n  dup2\n  mstore\n  0x20\n  add\n  0x4100000000000000000000000000000000000000000000000000000000000000\n  dup2\n  mstore\n  pop\n  0x01\n  swap1\n  dup2\n  tag_1\n  swap2\n  swap1\n  tag_2\n  jump\t// in\ntag_1:\n  pop\n    /* \"contracts-basic/week4.sol\":2606:2664  constructor() {... */\n  callvalue\n  dup1\n  iszero\n  tag_3\n  jumpi\n  0x00\n  dup1\n  revert\ntag_3:\n  pop\n    /* \"contracts-basic/week4.sol\":2646:2656  msg.sender */\n  caller\n    /* \"contracts-basic/week4.sol\":2630:2635  owner */\n  0x00\n  dup1\n    /* \"contracts-basic/week4.sol\":2630:2657  owner = payable(msg.sender) */\n  0x0100\n  exp\n  dup2\n  sload\n  dup2\n  0xffffffffffffffffffffffffffffffffffffffff\n  mul\n  not\n  and\n  swap1\n  dup4\n  0xffffffffffffffffffffffffffffffffffffffff\n  and\n  mul\n  or\n  swap1\n  sstore\n  pop\n    /* \"contracts-basic/week4.sol\":2531:2985  contract _38 {... */\n  jump(tag_6)\n    /* \"#utility.yul\":7:106   */\ntag_7:\n    /* \"#utility.yul\":59:65   */\n  0x00\n    /* \"#utility.yul\":93:98   */\n  dup2\n    /* \"#utility.yul\":87:99   */\n  mload\n    /* \"#utility.yul\":77:99   */\n  swap1\n  pop\n    /* \"#utility.yul\":7:106   */\n  swap2\n  swap1\n  pop\n  jump\t// out\n    /* \"#utility.yul\":112:292   */\ntag_8:\n    /* \"#utility.yul\":160:237   */\n  0x4e487b7100000000000000000000000000000000000000000000000000000000\n    /* \"#utility.yul\":157:158   */\n  0x00\n    /* \"#utility.yul\":150:238   */\n  mstore\n    /* \"#utility.yul\":257:261   */\n  0x41\n    /* \"#utility.yul\":254:255   */\n  0x04\n    /* \"#utility.yul\":247:262   */\n  mstore\n    /* \"#utility.yul\":281:285   */\n  0x24\n    /* \"#utility.yul\":278:279   */\n  0x00\n    /* \"#utility.yul\":271:286   */\n  revert\n    /* \"#utility.yul\":298:478   */\ntag_9:\n    /* \"#utility.yul\":346:423   */\n  0x4e487b7100000000000000000000000000000000000000000000000000000000\n    /* \"#utility.yul\":343:344   */\n  0x00\n    /* \"#utility.yul\":336:424   */\n  mstore\n    /* \"#utility.yul\":443:447   */\n  0x22\n    /* \"#utility.yul\":440:441   */\n  0x04\n    /* \"#utility.yul\":433:448   */\n  mstore\n    /* \"#utility.yul\":467:471   */\n  0x24\n    /* \"#utility.yul\":464:465   */\n  0x00\n    /* \"#utility.yul\":457:472   */\n  revert\n    /* \"#utility.yul\":484:804   */\ntag_10:\n    /* \"#utility.yul\":528:534   */\n  0x00\n    /* \"#utility.yul\":565:566   */\n  0x02\n    /* \"#utility.yul\":559:563   */\n  dup3\n    /* \"#utility.yul\":555:567   */\n  div\n    /* \"#utility.yul\":545:567   */\n  swap1\n  pop\n    /* \"#utility.yul\":612:613   */\n  0x01\n    /* \"#utility.yul\":606:610   */\n  dup3\n    /* \"#utility.yul\":602:614   */\n  and\n    /* \"#utility.yul\":633:651   */\n  dup1\n    /* \"#utility.yul\":623:704   */\n  tag_32\n  jumpi\n    /* \"#utility.yul\":689:693   */\n  0x7f\n    /* \"#utility.yul\":681:687   */\n  dup3\n    /* \"#utility.yul\":677:694   */\n  and\n    /* \"#utility.yul\":667:694   */\n  swap2\n  pop\n    /* \"#utility.yul\":623:704   */\ntag_32:\n    /* \"#utility.yul\":751:753   */\n  0x20\n    /* \"#utility.yul\":743:749   */\n  dup3\n    /* \"#utility.yul\":740:754   */\n  lt\n    /* \"#utility.yul\":720:738   */\n  dup2\n    /* \"#utility.yul\":717:755   */\n  sub\n    /* \"#utility.yul\":714:798   */\n  tag_33\n  jumpi\n    /* \"#utility.yul\":770:788   */\n  tag_34\n  tag_9\n  jump\t// in\ntag_34:\n    /* \"#utility.yul\":714:798   */\ntag_33:\n    /* \"#utility.yul\":535:804   */\n  pop\n    /* \"#utility.yul\":484:804   */\n  swap2\n  swap1\n  pop\n  jump\t// out\n    /* \"#utility.yul\":810:951   */\ntag_11:\n    /* \"#utility.yul\":859:863   */\n  0x00\n    /* \"#utility.yul\":882:885   */\n  dup2\n    /* \"#utility.yul\":874:885   */\n  swap1\n  pop\n    /* \"#utility.yul\":905:908   */\n  dup2\n    /* \"#utility.yul\":902:903   */\n  0x00\n    /* \"#utility.yul\":895:909   */\n  mstore\n    /* \"#utility.yul\":939:943   */\n  0x20\n    /* \"#utility.yul\":936:937   */\n  0x00\n    /* \"#utility.yul\":926:944   */\n  keccak256\n    /* \"#utility.yul\":918:944   */\n  swap1\n  pop\n    /* \"#utility.yul\":810:951   */\n  swap2\n  swap1\n  pop\n  jump\t// out\n    /* \"#utility.yul\":957:1050   */\ntag_12:\n    /* \"#utility.yul\":994:1000   */\n  0x00\n    /* \"#utility.yul\":1041:1043   */\n  0x20\n    /* \"#utility.yul\":1036:1038   */\n  0x1f\n    /* \"#utility.yul\":1029:1034   */\n  dup4\n    /* \"#utility.yul\":1025:1039   */\n  add\n    /* \"#utility.yul\":1021:1044   */\n  div\n    /* \"#utility.yul\":1011:1044   */\n  swap1\n  pop\n    /* \"#utility.yul\":957:1050   */\n  swap2\n  swap1\n  pop\n  jump\t// out\n    /* \"#utility.yul\":1056:1163   */\ntag_13:\n    /* \"#utility.yul\":1100:1108   */\n  0x00\n    /* \"#utility.yul\":1150:1155   */\n  dup3\n    /* \"#utility.yul\":1144:1148   */\n  dup3\n    /* \"#utility.yul\":1140:1156   */\n  shl\n    /* \"#utility.yul\":1119:1156   */\n  swap1\n  pop\n    /* \"#utility.yul\":1056:1163   */\n  swap3\n  swap2\n  pop\n  pop\n  jump\t// out\n    /* \"#utility.yul\":1169:1562   */\ntag_14:\n    /* \"#utility.yul\":1238:1244   */\n  0x00\n    /* \"#utility.yul\":1288:1289   */\n  0x08\n    /* \"#utility.yul\":1276:1286   */\n  dup4\n    /* \"#utility.yul\":1272:1290   */\n  mul\n    /* \"#utility.yul\":1311:1408   */\n  tag_39\n    /* \"#utility.yul\":1341:1407   */\n  0xffffffffffffffffffffffffffffffffffffffffffffffffffffffffffffffff\n    /* \"#utility.yul\":1330:1339   */\n  dup3\n    /* \"#utility.yul\":1311:1408   */\n  tag_13\n  jump\t// in\ntag_39:\n    /* \"#utility.yul\":1429:1468   */\n  tag_40\n    /* \"#utility.yul\":1459:1467   */\n  dup7\n    /* \"#utility.yul\":1448:1457   */\n  dup4\n    /* \"#utility.yul\":1429:1468   */\n  tag_13\n  jump\t// in\ntag_40:\n    /* \"#utility.yul\":1417:1468   */\n  swap6\n  pop\n    /* \"#utility.yul\":1501:1505   */\n  dup1\n    /* \"#utility.yul\":1497:1506   */\n  not\n    /* \"#utility.yul\":1490:1495   */\n  dup5\n    /* \"#utility.yul\":1486:1507   */\n  and\n    /* \"#utility.yul\":1477:1507   */\n  swap4\n  pop\n    /* \"#utility.yul\":1550:1554   */\n  dup1\n    /* \"#utility.yul\":1540:1548   */\n  dup7\n    /* \"#utility.yul\":1536:1555   */\n  and\n    /* \"#utility.yul\":1529:1534   */\n  dup5\n    /* \"#utility.yul\":1526:1556   */\n  or\n    /* \"#utility.yul\":1516:1556   */\n  swap3\n  pop\n    /* \"#utility.yul\":1245:1562   */\n  pop\n  pop\n    /* \"#utility.yul\":1169:1562   */\n  swap4\n  swap3\n  pop\n  pop\n  pop\n  jump\t// out\n    /* \"#utility.yul\":1568:1645   */\ntag_15:\n    /* \"#utility.yul\":1605:1612   */\n  0x00\n    /* \"#utility.yul\":1634:1639   */\n  dup2\n    /* \"#utility.yul\":1623:1639   */\n  swap1\n  pop\n    /* \"#utility.yul\":1568:1645   */\n  swap2\n  swap1\n  pop\n  jump\t// out\n    /* \"#utility.yul\":1651:1711   */\ntag_16:\n    /* \"#utility.yul\":1679:1682   */\n  0x00\n    /* \"#utility.yul\":1700:1705   */\n  dup2\n    /* \"#utility.yul\":1693:1705   */\n  swap1\n  pop\n    /* \"#utility.yul\":1651:1711   */\n  swap2\n  swap1\n  pop\n  jump\t// out\n    /* \"#utility.yul\":1717:1859   */\ntag_17:\n    /* \"#utility.yul\":1767:1776   */\n  0x00\n    /* \"#utility.yul\":1800:1853   */\n  tag_44\n    /* \"#utility.yul\":1818:1852   */\n  tag_45\n    /* \"#utility.yul\":1827:1851   */\n  tag_46\n    /* \"#utility.yul\":1845:1850   */\n  dup5\n    /* \"#utility.yul\":1827:1851   */\n  tag_15\n  jump\t// in\ntag_46:\n    /* \"#utility.yul\":1818:1852   */\n  tag_16\n  jump\t// in\ntag_45:\n    /* \"#utility.yul\":1800:1853   */\n  tag_15\n  jump\t// in\ntag_44:\n    /* \"#utility.yul\":1787:1853   */\n  swap1\n  pop\n    /* \"#utility.yul\":1717:1859   */\n  swap2\n  swap1\n  pop\n  jump\t// out\n    /* \"#utility.yul\":1865:1940   */\ntag_18:\n    /* \"#utility.yul\":1908:1911   */\n  0x00\n    /* \"#utility.yul\":1929:1934   */\n  dup2\n    /* \"#utility.yul\":1922:1934   */\n  swap1\n  pop\n    /* \"#utility.yul\":1865:1940   */\n  swap2\n  swap1\n  pop\n  jump\t// out\n    /* \"#utility.yul\":1946:2215   */\ntag_19:\n    /* \"#utility.yul\":2056:2095   */\n  tag_49\n    /* \"#utility.yul\":2087:2094   */\n  dup4\n    /* \"#utility.yul\":2056:2095   */\n  tag_17\n  jump\t// in\ntag_49:\n    /* \"#utility.yul\":2117:2208   */\n  tag_50\n    /* \"#utility.yul\":2166:2207   */\n  tag_51\n    /* \"#utility.yul\":2190:2206   */\n  dup3\n    /* \"#utility.yul\":2166:2207   */\n  tag_18\n  jump\t// in\ntag_51:\n    /* \"#utility.yul\":2158:2164   */\n  dup5\n    /* \"#utility.yul\":2151:2155   */\n  dup5\n    /* \"#utility.yul\":2145:2156   */\n  sload\n    /* \"#utility.yul\":2117:2208   */\n  tag_14\n  jump\t// in\ntag_50:\n    /* \"#utility.yul\":2111:2115   */\n  dup3\n    /* \"#utility.yul\":2104:2209   */\n  sstore\n    /* \"#utility.yul\":2022:2215   */\n  pop\n    /* \"#utility.yul\":1946:2215   */\n  pop\n  pop\n  pop\n  jump\t// out\n    /* \"#utility.yul\":2221:2294   */\ntag_20:\n    /* \"#utility.yul\":2266:2269   */\n  0x00\n    /* \"#utility.yul\":2221:2294   */\n  swap1\n  jump\t// out\n    /* \"#utility.yul\":2300:2489   */\ntag_21:\n    /* \"#utility.yul\":2377:2409   */\n  tag_54\n  tag_20\n  jump\t// in\ntag_54:\n    /* \"#utility.yul\":2418:2483   */\n  tag_55\n    /* \"#utility.yul\":2476:2482   */\n  dup2\n    /* \"#utility.yul\":2468:2474   */\n  dup5\n    /* \"#utility.yul\":2462:2466   */\n  dup5\n    /* \"#utility.yul\":2418:2483   */\n  tag_19\n  jump\t// in\ntag_55:\n    /* \"#utility.yul\":2353:2489   */\n  pop\n    /* \"#utility.yul\":2300:2489   */\n  pop\n  pop\n  jump\t// out\n    /* \"#utility.yul\":2495:2681   */\ntag_22:\n    /* \"#utility.yul\":2555:2675   */\ntag_57:\n    /* \"#utility.yul\":2572:2575   */\n  dup2\n    /* \"#utility.yul\":2565:2570   */\n  dup2\n    /* \"#utility.yul\":2562:2576   */\n  lt\n    /* \"#utility.yul\":2555:2675   */\n  iszero\n  tag_59\n  jumpi\n    /* \"#utility.yul\":2626:2665   */\n  tag_60\n    /* \"#utility.yul\":2663:2664   */\n  0x00\n    /* \"#utility.yul\":2656:2661   */\n  dup3\n    /* \"#utility.yul\":2626:2665   */\n  tag_21\n  jump\t// in\ntag_60:\n    /* \"#utility.yul\":2599:2600   */\n  0x01\n    /* \"#utility.yul\":2592:2597   */\n  dup2\n    /* \"#utility.yul\":2588:2601   */\n  add\n    /* \"#utility.yul\":2579:2601   */\n  swap1\n  pop\n    /* \"#utility.yul\":2555:2675   */\n  jump(tag_57)\ntag_59:\n    /* \"#utility.yul\":2495:2681   */\n  pop\n  pop\n  jump\t// out\n    /* \"#utility.yul\":2687:3230   */\ntag_23:\n    /* \"#utility.yul\":2788:2790   */\n  0x1f\n    /* \"#utility.yul\":2783:2786   */\n  dup3\n    /* \"#utility.yul\":2780:2791   */\n  gt\n    /* \"#utility.yul\":2777:3223   */\n  iszero\n  tag_62\n  jumpi\n    /* \"#utility.yul\":2822:2860   */\n  tag_63\n    /* \"#utility.yul\":2854:2859   */\n  dup2\n    /* \"#utility.yul\":2822:2860   */\n  tag_11\n  jump\t// in\ntag_63:\n    /* \"#utility.yul\":2906:2935   */\n  tag_64\n    /* \"#utility.yul\":2924:2934   */\n  dup5\n    /* \"#utility.yul\":2906:2935   */\n  tag_12\n  jump\t// in\ntag_64:\n    /* \"#utility.yul\":2896:2904   */\n  dup2\n    /* \"#utility.yul\":2892:2936   */\n  add\n    /* \"#utility.yul\":3089:3091   */\n  0x20\n    /* \"#utility.yul\":3077:3087   */\n  dup6\n    /* \"#utility.yul\":3074:3092   */\n  lt\n    /* \"#utility.yul\":3071:3120   */\n  iszero\n  tag_65\n  jumpi\n    /* \"#utility.yul\":3110:3118   */\n  dup2\n    /* \"#utility.yul\":3095:3118   */\n  swap1\n  pop\n    /* \"#utility.yul\":3071:3120   */\ntag_65:\n    /* \"#utility.yul\":3133:3213   */\n  tag_66\n    /* \"#utility.yul\":3189:3211   */\n  tag_67\n    /* \"#utility.yul\":3207:3210   */\n  dup6\n    /* \"#utility.yul\":3189:3211   */\n  tag_12\n  jump\t// in\ntag_67:\n    /* \"#utility.yul\":3179:3187   */\n  dup4\n    /* \"#utility.yul\":3175:3212   */\n  add\n    /* \"#utility.yul\":3162:3173   */\n  dup3\n    /* \"#utility.yul\":3133:3213   */\n  tag_22\n  jump\t// in\ntag_66:\n    /* \"#utility.yul\":2792:3223   */\n  pop\n  pop\n    /* \"#utility.yul\":2777:3223   */\ntag_62:\n    /* \"#utility.yul\":2687:3230   */\n  pop\n  pop\n  pop\n  jump\t// out\n    /* \"#utility.yul\":3236:3353   */\ntag_24:\n    /* \"#utility.yul\":3290:3298   */\n  0x00\n    /* \"#utility.yul\":3340:3345   */\n  dup3\n    /* \"#utility.yul\":3334:3338   */\n  dup3\n    /* \"#utility.yul\":3330:3346   */\n  shr\n    /* \"#utility.yul\":3309:3346   */\n  swap1\n  pop\n    /* \"#utility.yul\":3236:3353   */\n  swap3\n  swap2\n  pop\n  pop\n  jump\t// out\n    /* \"#utility.yul\":3359:3528   */\ntag_25:\n    /* \"#utility.yul\":3403:3409   */\n  0x00\n    /* \"#utility.yul\":3436:3487   */\n  tag_70\n    /* \"#utility.yul\":3484:3485   */\n  0x00\n    /* \"#utility.yul\":3480:3486   */\n  not\n    /* \"#utility.yul\":3472:3477   */\n  dup5\n    /* \"#utility.yul\":3469:3470   */\n  0x08\n    /* \"#utility.yul\":3465:3478   */\n  mul\n    /* \"#utility.yul\":3436:3487   */\n  tag_24\n  jump\t// in\ntag_70:\n    /* \"#utility.yul\":3432:3488   */\n  not\n    /* \"#utility.yul\":3517:3521   */\n  dup1\n    /* \"#utility.yul\":3511:3515   */\n  dup4\n    /* \"#utility.yul\":3507:3522   */\n  and\n    /* \"#utility.yul\":3497:3522   */\n  swap2\n  pop\n    /* \"#utility.yul\":3410:3528   */\n  pop\n    /* \"#utility.yul\":3359:3528   */\n  swap3\n  swap2\n  pop\n  pop\n  jump\t// out\n    /* \"#utility.yul\":3533:3828   */\ntag_26:\n    /* \"#utility.yul\":3609:3613   */\n  0x00\n    /* \"#utility.yul\":3755:3784   */\n  tag_72\n    /* \"#utility.yul\":3780:3783   */\n  dup4\n    /* \"#utility.yul\":3774:3778   */\n  dup4\n    /* \"#utility.yul\":3755:3784   */\n  tag_25\n  jump\t// in\ntag_72:\n    /* \"#utility.yul\":3747:3784   */\n  swap2\n  pop\n    /* \"#utility.yul\":3817:3820   */\n  dup3\n    /* \"#utility.yul\":3814:3815   */\n  0x02\n    /* \"#utility.yul\":3810:3821   */\n  mul\n    /* \"#utility.yul\":3804:3808   */\n  dup3\n    /* \"#utility.yul\":3801:3822   */\n  or\n    /* \"#utility.yul\":3793:3822   */\n  swap1\n  pop\n    /* \"#utility.yul\":3533:3828   */\n  swap3\n  swap2\n  pop\n  pop\n  jump\t// out\n    /* \"#utility.yul\":3833:5228   */\ntag_2:\n    /* \"#utility.yul\":3950:3987   */\n  tag_74\n    /* \"#utility.yul\":3983:3986   */\n  dup3\n    /* \"#utility.yul\":3950:3987   */\n  tag_7\n  jump\t// in\ntag_74:\n    /* \"#utility.yul\":4052:4070   */\n  0xffffffffffffffff\n    /* \"#utility.yul\":4044:4050   */\n  dup2\n    /* \"#utility.yul\":4041:4071   */\n  gt\n    /* \"#utility.yul\":4038:4094   */\n  iszero\n  tag_75\n  jumpi\n    /* \"#utility.yul\":4074:4092   */\n  tag_76\n  tag_8\n  jump\t// in\ntag_76:\n    /* \"#utility.yul\":4038:4094   */\ntag_75:\n    /* \"#utility.yul\":4118:4156   */\n  tag_77\n    /* \"#utility.yul\":4150:4154   */\n  dup3\n    /* \"#utility.yul\":4144:4155   */\n  sload\n    /* \"#utility.yul\":4118:4156   */\n  tag_10\n  jump\t// in\ntag_77:\n    /* \"#utility.yul\":4203:4270   */\n  tag_78\n    /* \"#utility.yul\":4263:4269   */\n  dup3\n    /* \"#utility.yul\":4255:4261   */\n  dup3\n    /* \"#utility.yul\":4249:4253   */\n  dup6\n    /* \"#utility.yul\":4203:4270   */\n  tag_23\n  jump\t// in\ntag_78:\n    /* \"#utility.yul\":4297:4298   */\n  0x00\n    /* \"#utility.yul\":4321:4325   */\n  0x20\n    /* \"#utility.yul\":4308:4325   */\n  swap1\n  pop\n    /* \"#utility.yul\":4353:4355   */\n  0x1f\n    /* \"#utility.yul\":4345:4351   */\n  dup4\n    /* \"#utility.yul\":4342:4356   */\n  gt\n    /* \"#utility.yul\":4370:4371   */\n  0x01\n    /* \"#utility.yul\":4365:4983   */\n  dup2\n  eq\n  tag_80\n  jumpi\n    /* \"#utility.yul\":5027:5028   */\n  0x00\n    /* \"#utility.yul\":5044:5050   */\n  dup5\n    /* \"#utility.yul\":5041:5118   */\n  iszero\n  tag_81\n  jumpi\n    /* \"#utility.yul\":5093:5102   */\n  dup3\n    /* \"#utility.yul\":5088:5091   */\n  dup8\n    /* \"#utility.yul\":5084:5103   */\n  add\n    /* \"#utility.yul\":5078:5104   */\n  mload\n    /* \"#utility.yul\":5069:5104   */\n  swap1\n  pop\n    /* \"#utility.yul\":5041:5118   */\ntag_81:\n    /* \"#utility.yul\":5144:5211   */\n  tag_82\n    /* \"#utility.yul\":5204:5210   */\n  dup6\n    /* \"#utility.yul\":5197:5202   */\n  dup3\n    /* \"#utility.yul\":5144:5211   */\n  tag_26\n  jump\t// in\ntag_82:\n    /* \"#utility.yul\":5138:5142   */\n  dup7\n    /* \"#utility.yul\":5131:5212   */\n  sstore\n    /* \"#utility.yul\":5000:5222   */\n  pop\n    /* \"#utility.yul\":4335:5222   */\n  jump(tag_79)\n    /* \"#utility.yul\":4365:4983   */\ntag_80:\n    /* \"#utility.yul\":4417:4421   */\n  0x1f\n    /* \"#utility.yul\":4413:4422   */\n  not\n    /* \"#utility.yul\":4405:4411   */\n  dup5\n    /* \"#utility.yul\":4401:4423   */\n  and\n    /* \"#utility.yul\":4451:4488   */\n  tag_83\n    /* \"#utility.yul\":4483:4487   */\n  dup7\n    /* \"#utility.yul\":4451:4488   */\n  tag_11\n  jump\t// in\ntag_83:\n    /* \"#utility.yul\":4510:4511   */\n  0x00\n    /* \"#utility.yul\":4524:4732   */\ntag_84:\n    /* \"#utility.yul\":4538:4545   */\n  dup3\n    /* \"#utility.yul\":4535:4536   */\n  dup2\n    /* \"#utility.yul\":4532:4546   */\n  lt\n    /* \"#utility.yul\":4524:4732   */\n  iszero\n  tag_86\n  jumpi\n    /* \"#utility.yul\":4617:4626   */\n  dup5\n    /* \"#utility.yul\":4612:4615   */\n  dup10\n    /* \"#utility.yul\":4608:4627   */\n  add\n    /* \"#utility.yul\":4602:4628   */\n  mload\n    /* \"#utility.yul\":4594:4600   */\n  dup3\n    /* \"#utility.yul\":4587:4629   */\n  sstore\n    /* \"#utility.yul\":4668:4669   */\n  0x01\n    /* \"#utility.yul\":4660:4666   */\n  dup3\n    /* \"#utility.yul\":4656:4670   */\n  add\n    /* \"#utility.yul\":4646:4670   */\n  swap2\n  pop\n    /* \"#utility.yul\":4715:4717   */\n  0x20\n    /* \"#utility.yul\":4704:4713   */\n  dup6\n    /* \"#utility.yul\":4700:4718   */\n  add\n    /* \"#utility.yul\":4687:4718   */\n  swap5\n  pop\n    /* \"#utility.yul\":4561:4565   */\n  0x20\n    /* \"#utility.yul\":4558:4559   */\n  dup2\n    /* \"#utility.yul\":4554:4566   */\n  add\n    /* \"#utility.yul\":4549:4566   */\n  swap1\n  pop\n    /* \"#utility.yul\":4524:4732   */\n  jump(tag_84)\ntag_86:\n    /* \"#utility.yul\":4760:4766   */\n  dup7\n    /* \"#utility.yul\":4751:4758   */\n  dup4\n    /* \"#utility.yul\":4748:4767   */\n  lt\n    /* \"#utility.yul\":4745:4924   */\n  iszero\n  tag_87\n  jumpi\n    /* \"#utility.yul\":4818:4827   */\n  dup5\n    /* \"#utility.yul\":4813:4816   */\n  dup10\n    /* \"#utility.yul\":4809:4828   */\n  add\n    /* \"#utility.yul\":4803:4829   */\n  mload\n    /* \"#utility.yul\":4861:4909   */\n  tag_88\n    /* \"#utility.yul\":4903:4907   */\n  0x1f\n    /* \"#utility.yul\":4895:4901   */\n  dup10\n    /* \"#utility.yul\":4891:4908   */\n  and\n    /* \"#utility.yul\":4880:4889   */\n  dup3\n    /* \"#utility.yul\":4861:4909   */\n  tag_25\n  jump\t// in\ntag_88:\n    /* \"#utility.yul\":4853:4859   */\n  dup4\n    /* \"#utility.yul\":4846:4910   */\n  sstore\n    /* \"#utility.yul\":4768:4924   */\n  pop\n    /* \"#utility.yul\":4745:4924   */\ntag_87:\n    /* \"#utility.yul\":4970:4971   */\n  0x01\n    /* \"#utility.yul\":4966:4967   */\n  0x02\n    /* \"#utility.yul\":4958:4964   */\n  dup9\n    /* \"#utility.yul\":4954:4968   */\n  mul\n    /* \"#utility.yul\":4950:4972   */\n  add\n    /* \"#utility.yul\":4944:4948   */\n  dup9\n    /* \"#utility.yul\":4937:4973   */\n  sstore\n    /* \"#utility.yul\":4372:4983   */\n  pop\n  pop\n  pop\n    /* \"#utility.yul\":4335:5222   */\ntag_79:\n  pop\n    /* \"#utility.yul\":3925:5228   */\n  pop\n  pop\n  pop\n    /* \"#utility.yul\":3833:5228   */\n  pop\n  pop\n  jump\t// out\n    /* \"contracts-basic/week4.sol\":2531:2985  contract _38 {... */\ntag_6:\n  dataSize(sub_0)\n  dup1\n  dataOffset(sub_0)\n  0x00\n  codecopy\n  0x00\n  return\nstop\n\nsub_0: assembly {\n        /* \"contracts-basic/week4.sol\":2531:2985  contract _38 {... */\n      mstore(0x40, 0x80)\n      callvalue\n      dup1\n      iszero\n      tag_1\n      jumpi\n      0x00\n      dup1\n      revert\n    tag_1:\n      pop\n      jumpi(tag_2, lt(calldatasize, 0x04))\n      shr(0xe0, calldataload(0x00))\n      dup1\n      0x65111229\n      eq\n      tag_3\n      jumpi\n      dup1\n      0x70c0d050\n      eq\n      tag_4\n      jumpi\n      dup1\n      0x8da5cb5b\n      eq\n      tag_5\n      jumpi\n      dup1\n      0xd46300fd\n      eq\n      tag_6\n      jumpi\n    tag_2:\n      0x00\n      dup1\n      revert\n        /* \"contracts-basic/week4.sol\":2839:2901  function changeToC() public onlyOwner {... */\n    tag_3:\n      tag_7\n      tag_8\n      jump\t// in\n    tag_7:\n      stop\n        /* \"contracts-basic/week4.sol\":2771:2833  function changeToB() public onlyOwner {... */\n    tag_4:\n      tag_9\n      tag_10\n      jump\t// in\n    tag_9:\n      stop\n        /* \"contracts-basic/week4.sol\":2550:2578  address payable public owner */\n    tag_5:\n      tag_11\n      tag_12\n      jump\t// in\n    tag_11:\n      mload(0x40)\n      tag_13\n      swap2\n      swap1\n      tag_14\n      jump\t// in\n    tag_13:\n      mload(0x40)\n      dup1\n      swap2\n      sub\n      swap1\n      return\n        /* \"contracts-basic/week4.sol\":2907:2983  function getA() public view returns(string memory) {... */\n    tag_6:\n      tag_15\n      tag_16\n      jump\t// in\n    tag_15:\n      mload(0x40)\n      tag_17\n      swap2\n      swap1\n      tag_18\n      jump\t// in\n    tag_17:\n      mload(0x40)\n      dup1\n      swap2\n      sub\n      swap1\n      return\n        /* \"contracts-basic/week4.sol\":2839:2901  function changeToC() public onlyOwner {... */\n    tag_8:\n        /* \"contracts-basic/week4.sol\":2727:2732  owner */\n      0x00\n      dup1\n      sload\n      swap1\n      0x0100\n      exp\n      swap1\n      div\n      0xffffffffffffffffffffffffffffffffffffffff\n      and\n        /* \"contracts-basic/week4.sol\":2713:2732  msg.sender == owner */\n      0xffffffffffffffffffffffffffffffffffffffff\n      and\n        /* \"contracts-basic/week4.sol\":2713:2723  msg.sender */\n      caller\n        /* \"contracts-basic/week4.sol\":2713:2732  msg.sender == owner */\n      0xffffffffffffffffffffffffffffffffffffffff\n      and\n      eq\n        /* \"contracts-basic/week4.sol\":2704:2747  require (msg.sender == owner, \"only owner\") */\n      tag_20\n      jumpi\n      mload(0x40)\n      0x08c379a000000000000000000000000000000000000000000000000000000000\n      dup2\n      mstore\n      0x04\n      add\n      tag_21\n      swap1\n      tag_22\n      jump\t// in\n    tag_21:\n      mload(0x40)\n      dup1\n      swap2\n      sub\n      swap1\n      revert\n    tag_20:\n        /* \"contracts-basic/week4.sol\":2887:2894  a = \"C\" */\n      mload(0x40)\n      dup1\n      0x40\n      add\n      0x40\n      mstore\n      dup1\n      0x01\n      dup2\n      mstore\n      0x20\n      add\n      0x4300000000000000000000000000000000000000000000000000000000000000\n      dup2\n      mstore\n      pop\n        /* \"contracts-basic/week4.sol\":2887:2888  a */\n      0x01\n        /* \"contracts-basic/week4.sol\":2887:2894  a = \"C\" */\n      swap1\n      dup2\n      tag_24\n      swap2\n      swap1\n      tag_25\n      jump\t// in\n    tag_24:\n      pop\n        /* \"contracts-basic/week4.sol\":2839:2901  function changeToC() public onlyOwner {... */\n      jump\t// out\n        /* \"contracts-basic/week4.sol\":2771:2833  function changeToB() public onlyOwner {... */\n    tag_10:\n        /* \"contracts-basic/week4.sol\":2727:2732  owner */\n      0x00\n      dup1\n      sload\n      swap1\n      0x0100\n      exp\n      swap1\n      div\n      0xffffffffffffffffffffffffffffffffffffffff\n      and\n        /* \"contracts-basic/week4.sol\":2713:2732  msg.sender == owner */\n      0xffffffffffffffffffffffffffffffffffffffff\n      and\n        /* \"contracts-basic/week4.sol\":2713:2723  msg.sender */\n      caller\n        /* \"contracts-basic/week4.sol\":2713:2732  msg.sender == owner */\n      0xffffffffffffffffffffffffffffffffffffffff\n      and\n      eq\n        /* \"contracts-basic/week4.sol\":2704:2747  require (msg.sender == owner, \"only owner\") */\n      tag_27\n      jumpi\n      mload(0x40)\n      0x08c379a000000000000000000000000000000000000000000000000000000000\n      dup2\n      mstore\n      0x04\n      add\n      tag_28\n      swap1\n      tag_22\n      jump\t// in\n    tag_28:\n      mload(0x40)\n      dup1\n      swap2\n      sub\n      swap1\n      revert\n    tag_27:\n        /* \"contracts-basic/week4.sol\":2819:2826  a = \"B\" */\n      mload(0x40)\n      dup1\n      0x40\n      add\n      0x40\n      mstore\n      dup1\n      0x01\n      dup2\n      mstore\n      0x20\n      add\n      0x4200000000000000000000000000000000000000000000000000000000000000\n      dup2\n      mstore\n      pop\n        /* \"contracts-basic/week4.sol\":2819:2820  a */\n      0x01\n        /* \"contracts-basic/week4.sol\":2819:2826  a = \"B\" */\n      swap1\n      dup2\n      tag_30\n      swap2\n      swap1\n      tag_25\n      jump\t// in\n    tag_30:\n      pop\n        /* \"contracts-basic/week4.sol\":2771:2833  function changeToB() public onlyOwner {... */\n      jump\t// out\n        /* \"contracts-basic/week4.sol\":2550:2578  address payable public owner */\n    tag_12:\n      0x00\n      dup1\n      sload\n      swap1\n      0x0100\n      exp\n      swap1\n      div\n      0xffffffffffffffffffffffffffffffffffffffff\n      and\n      dup2\n      jump\t// out\n        /* \"contracts-basic/week4.sol\":2907:2983  function getA() public view returns(string memory) {... */\n    tag_16:\n        /* \"contracts-basic/week4.sol\":2943:2956  string memory */\n      0x60\n        /* \"contracts-basic/week4.sol\":2975:2976  a */\n      0x01\n        /* \"contracts-basic/week4.sol\":2968:2976  return a */\n      dup1\n      sload\n      tag_32\n      swap1\n      tag_33\n      jump\t// in\n    tag_32:\n      dup1\n      0x1f\n      add\n      0x20\n      dup1\n      swap2\n      div\n      mul\n      0x20\n      add\n      mload(0x40)\n      swap1\n      dup2\n      add\n      0x40\n      mstore\n      dup1\n      swap3\n      swap2\n      swap1\n      dup2\n      dup2\n      mstore\n      0x20\n      add\n      dup3\n      dup1\n      sload\n      tag_34\n      swap1\n      tag_33\n      jump\t// in\n    tag_34:\n      dup1\n      iszero\n      tag_35\n      jumpi\n      dup1\n      0x1f\n      lt\n      tag_36\n      jumpi\n      0x0100\n      dup1\n      dup4\n      sload\n      div\n      mul\n      dup4\n      mstore\n      swap2\n      0x20\n      add\n      swap2\n      jump(tag_35)\n    tag_36:\n      dup3\n      add\n      swap2\n      swap1\n      0x00\n      mstore\n      keccak256(0x00, 0x20)\n      swap1\n    tag_37:\n      dup2\n      sload\n      dup2\n      mstore\n      swap1\n      0x01\n      add\n      swap1\n      0x20\n      add\n      dup1\n      dup4\n      gt\n      tag_37\n      jumpi\n      dup3\n      swap1\n      sub\n      0x1f\n      and\n      dup3\n      add\n      swap2\n    tag_35:\n      pop\n      pop\n      pop\n      pop\n      pop\n      swap1\n      pop\n        /* \"contracts-basic/week4.sol\":2907:2983  function getA() public view returns(string memory) {... */\n      swap1\n      jump\t// out\n        /* \"#utility.yul\":7:133   */\n    tag_38:\n        /* \"#utility.yul\":44:51   */\n      0x00\n        /* \"#utility.yul\":84:126   */\n      0xffffffffffffffffffffffffffffffffffffffff\n        /* \"#utility.yul\":77:82   */\n      dup3\n        /* \"#utility.yul\":73:127   */\n      and\n        /* \"#utility.yul\":62:127   */\n      swap1\n      pop\n        /* \"#utility.yul\":7:133   */\n      swap2\n      swap1\n      pop\n      jump\t// out\n        /* \"#utility.yul\":139:243   */\n    tag_39:\n        /* \"#utility.yul\":184:191   */\n      0x00\n        /* \"#utility.yul\":213:237   */\n      tag_69\n        /* \"#utility.yul\":231:236   */\n      dup3\n        /* \"#utility.yul\":213:237   */\n      tag_38\n      jump\t// in\n    tag_69:\n        /* \"#utility.yul\":202:237   */\n      swap1\n      pop\n        /* \"#utility.yul\":139:243   */\n      swap2\n      swap1\n      pop\n      jump\t// out\n        /* \"#utility.yul\":249:391   */\n    tag_40:\n        /* \"#utility.yul\":352:384   */\n      tag_71\n        /* \"#utility.yul\":378:383   */\n      dup2\n        /* \"#utility.yul\":352:384   */\n      tag_39\n      jump\t// in\n    tag_71:\n        /* \"#utility.yul\":347:350   */\n      dup3\n        /* \"#utility.yul\":340:385   */\n      mstore\n        /* \"#utility.yul\":249:391   */\n      pop\n      pop\n      jump\t// out\n        /* \"#utility.yul\":397:651   */\n    tag_14:\n        /* \"#utility.yul\":506:510   */\n      0x00\n        /* \"#utility.yul\":544:546   */\n      0x20\n        /* \"#utility.yul\":533:542   */\n      dup3\n        /* \"#utility.yul\":529:547   */\n      add\n        /* \"#utility.yul\":521:547   */\n      swap1\n      pop\n        /* \"#utility.yul\":557:644   */\n      tag_73\n        /* \"#utility.yul\":641:642   */\n      0x00\n        /* \"#utility.yul\":630:639   */\n      dup4\n        /* \"#utility.yul\":626:643   */\n      add\n        /* \"#utility.yul\":617:623   */\n      dup5\n        /* \"#utility.yul\":557:644   */\n      tag_40\n      jump\t// in\n    tag_73:\n        /* \"#utility.yul\":397:651   */\n      swap3\n      swap2\n      pop\n      pop\n      jump\t// out\n        /* \"#utility.yul\":657:756   */\n    tag_41:\n        /* \"#utility.yul\":709:715   */\n      0x00\n        /* \"#utility.yul\":743:748   */\n      dup2\n        /* \"#utility.yul\":737:749   */\n      mload\n        /* \"#utility.yul\":727:749   */\n      swap1\n      pop\n        /* \"#utility.yul\":657:756   */\n      swap2\n      swap1\n      pop\n      jump\t// out\n        /* \"#utility.yul\":762:931   */\n    tag_42:\n        /* \"#utility.yul\":846:857   */\n      0x00\n        /* \"#utility.yul\":880:886   */\n      dup3\n        /* \"#utility.yul\":875:878   */\n      dup3\n        /* \"#utility.yul\":868:887   */\n      mstore\n        /* \"#utility.yul\":920:924   */\n      0x20\n        /* \"#utility.yul\":915:918   */\n      dup3\n        /* \"#utility.yul\":911:925   */\n      add\n        /* \"#utility.yul\":896:925   */\n      swap1\n      pop\n        /* \"#utility.yul\":762:931   */\n      swap3\n      swap2\n      pop\n      pop\n      jump\t// out\n        /* \"#utility.yul\":937:1183   */\n    tag_43:\n        /* \"#utility.yul\":1018:1019   */\n      0x00\n        /* \"#utility.yul\":1028:1141   */\n    tag_77:\n        /* \"#utility.yul\":1042:1048   */\n      dup4\n        /* \"#utility.yul\":1039:1040   */\n      dup2\n        /* \"#utility.yul\":1036:1049   */\n      lt\n        /* \"#utility.yul\":1028:1141   */\n      iszero\n      tag_79\n      jumpi\n        /* \"#utility.yul\":1127:1128   */\n      dup1\n        /* \"#utility.yul\":1122:1125   */\n      dup3\n        /* \"#utility.yul\":1118:1129   */\n      add\n        /* \"#utility.yul\":1112:1130   */\n      mload\n        /* \"#utility.yul\":1108:1109   */\n      dup2\n        /* \"#utility.yul\":1103:1106   */\n      dup5\n        /* \"#utility.yul\":1099:1110   */\n      add\n        /* \"#utility.yul\":1092:1131   */\n      mstore\n        /* \"#utility.yul\":1064:1066   */\n      0x20\n        /* \"#utility.yul\":1061:1062   */\n      dup2\n        /* \"#utility.yul\":1057:1067   */\n      add\n        /* \"#utility.yul\":1052:1067   */\n      swap1\n      pop\n        /* \"#utility.yul\":1028:1141   */\n      jump(tag_77)\n    tag_79:\n        /* \"#utility.yul\":1175:1176   */\n      0x00\n        /* \"#utility.yul\":1166:1172   */\n      dup5\n        /* \"#utility.yul\":1161:1164   */\n      dup5\n        /* \"#utility.yul\":1157:1173   */\n      add\n        /* \"#utility.yul\":1150:1177   */\n      mstore\n        /* \"#utility.yul\":999:1183   */\n      pop\n        /* \"#utility.yul\":937:1183   */\n      pop\n      pop\n      pop\n      jump\t// out\n        /* \"#utility.yul\":1189:1291   */\n    tag_44:\n        /* \"#utility.yul\":1230:1236   */\n      0x00\n        /* \"#utility.yul\":1281:1283   */\n      0x1f\n        /* \"#utility.yul\":1277:1284   */\n      not\n        /* \"#utility.yul\":1272:1274   */\n      0x1f\n        /* \"#utility.yul\":1265:1270   */\n      dup4\n        /* \"#utility.yul\":1261:1275   */\n      add\n        /* \"#utility.yul\":1257:1285   */\n      and\n        /* \"#utility.yul\":1247:1285   */\n      swap1\n      pop\n        /* \"#utility.yul\":1189:1291   */\n      swap2\n      swap1\n      pop\n      jump\t// out\n        /* \"#utility.yul\":1297:1674   */\n    tag_45:\n        /* \"#utility.yul\":1385:1388   */\n      0x00\n        /* \"#utility.yul\":1413:1452   */\n      tag_82\n        /* \"#utility.yul\":1446:1451   */\n      dup3\n        /* \"#utility.yul\":1413:1452   */\n      tag_41\n      jump\t// in\n    tag_82:\n        /* \"#utility.yul\":1468:1539   */\n      tag_83\n        /* \"#utility.yul\":1532:1538   */\n      dup2\n        /* \"#utility.yul\":1527:1530   */\n      dup6\n        /* \"#utility.yul\":1468:1539   */\n      tag_42\n      jump\t// in\n    tag_83:\n        /* \"#utility.yul\":1461:1539   */\n      swap4\n      pop\n        /* \"#utility.yul\":1548:1613   */\n      tag_84\n        /* \"#utility.yul\":1606:1612   */\n      dup2\n        /* \"#utility.yul\":1601:1604   */\n      dup6\n        /* \"#utility.yul\":1594:1598   */\n      0x20\n        /* \"#utility.yul\":1587:1592   */\n      dup7\n        /* \"#utility.yul\":1583:1599   */\n      add\n        /* \"#utility.yul\":1548:1613   */\n      tag_43\n      jump\t// in\n    tag_84:\n        /* \"#utility.yul\":1638:1667   */\n      tag_85\n        /* \"#utility.yul\":1660:1666   */\n      dup2\n        /* \"#utility.yul\":1638:1667   */\n      tag_44\n      jump\t// in\n    tag_85:\n        /* \"#utility.yul\":1633:1636   */\n      dup5\n        /* \"#utility.yul\":1629:1668   */\n      add\n        /* \"#utility.yul\":1622:1668   */\n      swap2\n      pop\n        /* \"#utility.yul\":1389:1674   */\n      pop\n        /* \"#utility.yul\":1297:1674   */\n      swap3\n      swap2\n      pop\n      pop\n      jump\t// out\n        /* \"#utility.yul\":1680:1993   */\n    tag_18:\n        /* \"#utility.yul\":1793:1797   */\n      0x00\n        /* \"#utility.yul\":1831:1833   */\n      0x20\n        /* \"#utility.yul\":1820:1829   */\n      dup3\n        /* \"#utility.yul\":1816:1834   */\n      add\n        /* \"#utility.yul\":1808:1834   */\n      swap1\n      pop\n        /* \"#utility.yul\":1880:1889   */\n      dup2\n        /* \"#utility.yul\":1874:1878   */\n      dup2\n        /* \"#utility.yul\":1870:1890   */\n      sub\n        /* \"#utility.yul\":1866:1867   */\n      0x00\n        /* \"#utility.yul\":1855:1864   */\n      dup4\n        /* \"#utility.yul\":1851:1868   */\n      add\n        /* \"#utility.yul\":1844:1891   */\n      mstore\n        /* \"#utility.yul\":1908:1986   */\n      tag_87\n        /* \"#utility.yul\":1981:1985   */\n      dup2\n        /* \"#utility.yul\":1972:1978   */\n      dup5\n        /* \"#utility.yul\":1908:1986   */\n      tag_45\n      jump\t// in\n    tag_87:\n        /* \"#utility.yul\":1900:1986   */\n      swap1\n      pop\n        /* \"#utility.yul\":1680:1993   */\n      swap3\n      swap2\n      pop\n      pop\n      jump\t// out\n        /* \"#utility.yul\":1999:2159   */\n    tag_46:\n        /* \"#utility.yul\":2139:2151   */\n      0x6f6e6c79206f776e657200000000000000000000000000000000000000000000\n        /* \"#utility.yul\":2135:2136   */\n      0x00\n        /* \"#utility.yul\":2127:2133   */\n      dup3\n        /* \"#utility.yul\":2123:2137   */\n      add\n        /* \"#utility.yul\":2116:2152   */\n      mstore\n        /* \"#utility.yul\":1999:2159   */\n      pop\n      jump\t// out\n        /* \"#utility.yul\":2165:2531   */\n    tag_47:\n        /* \"#utility.yul\":2307:2310   */\n      0x00\n        /* \"#utility.yul\":2328:2395   */\n      tag_90\n        /* \"#utility.yul\":2392:2394   */\n      0x0a\n        /* \"#utility.yul\":2387:2390   */\n      dup4\n        /* \"#utility.yul\":2328:2395   */\n      tag_42\n      jump\t// in\n    tag_90:\n        /* \"#utility.yul\":2321:2395   */\n      swap2\n      pop\n        /* \"#utility.yul\":2404:2497   */\n      tag_91\n        /* \"#utility.yul\":2493:2496   */\n      dup3\n        /* \"#utility.yul\":2404:2497   */\n      tag_46\n      jump\t// in\n    tag_91:\n        /* \"#utility.yul\":2522:2524   */\n      0x20\n        /* \"#utility.yul\":2517:2520   */\n      dup3\n        /* \"#utility.yul\":2513:2525   */\n      add\n        /* \"#utility.yul\":2506:2525   */\n      swap1\n      pop\n        /* \"#utility.yul\":2165:2531   */\n      swap2\n      swap1\n      pop\n      jump\t// out\n        /* \"#utility.yul\":2537:2956   */\n    tag_22:\n        /* \"#utility.yul\":2703:2707   */\n      0x00\n        /* \"#utility.yul\":2741:2743   */\n      0x20\n        /* \"#utility.yul\":2730:2739   */\n      dup3\n        /* \"#utility.yul\":2726:2744   */\n      add\n        /* \"#utility.yul\":2718:2744   */\n      swap1\n      pop\n        /* \"#utility.yul\":2790:2799   */\n      dup2\n        /* \"#utility.yul\":2784:2788   */\n      dup2\n        /* \"#utility.yul\":2780:2800   */\n      sub\n        /* \"#utility.yul\":2776:2777   */\n      0x00\n        /* \"#utility.yul\":2765:2774   */\n      dup4\n        /* \"#utility.yul\":2761:2778   */\n      add\n        /* \"#utility.yul\":2754:2801   */\n      mstore\n        /* \"#utility.yul\":2818:2949   */\n      tag_93\n        /* \"#utility.yul\":2944:2948   */\n      dup2\n        /* \"#utility.yul\":2818:2949   */\n      tag_47\n      jump\t// in\n    tag_93:\n        /* \"#utility.yul\":2810:2949   */\n      swap1\n      pop\n        /* \"#utility.yul\":2537:2956   */\n      swap2\n      swap1\n      pop\n      jump\t// out\n        /* \"#utility.yul\":2962:3142   */\n    tag_48:\n        /* \"#utility.yul\":3010:3087   */\n      0x4e487b7100000000000000000000000000000000000000000000000000000000\n        /* \"#utility.yul\":3007:3008   */\n      0x00\n        /* \"#utility.yul\":3000:3088   */\n      mstore\n        /* \"#utility.yul\":3107:3111   */\n      0x41\n        /* \"#utility.yul\":3104:3105   */\n      0x04\n        /* \"#utility.yul\":3097:3112   */\n      mstore\n        /* \"#utility.yul\":3131:3135   */\n      0x24\n        /* \"#utility.yul\":3128:3129   */\n      0x00\n        /* \"#utility.yul\":3121:3136   */\n      revert\n        /* \"#utility.yul\":3148:3328   */\n    tag_49:\n        /* \"#utility.yul\":3196:3273   */\n      0x4e487b7100000000000000000000000000000000000000000000000000000000\n        /* \"#utility.yul\":3193:3194   */\n      0x00\n        /* \"#utility.yul\":3186:3274   */\n      mstore\n        /* \"#utility.yul\":3293:3297   */\n      0x22\n        /* \"#utility.yul\":3290:3291   */\n      0x04\n        /* \"#utility.yul\":3283:3298   */\n      mstore\n        /* \"#utility.yul\":3317:3321   */\n      0x24\n        /* \"#utility.yul\":3314:3315   */\n      0x00\n        /* \"#utility.yul\":3307:3322   */\n      revert\n        /* \"#utility.yul\":3334:3654   */\n    tag_33:\n        /* \"#utility.yul\":3378:3384   */\n      0x00\n        /* \"#utility.yul\":3415:3416   */\n      0x02\n        /* \"#utility.yul\":3409:3413   */\n      dup3\n        /* \"#utility.yul\":3405:3417   */\n      div\n        /* \"#utility.yul\":3395:3417   */\n      swap1\n      pop\n        /* \"#utility.yul\":3462:3463   */\n      0x01\n        /* \"#utility.yul\":3456:3460   */\n      dup3\n        /* \"#utility.yul\":3452:3464   */\n      and\n        /* \"#utility.yul\":3483:3501   */\n      dup1\n        /* \"#utility.yul\":3473:3554   */\n      tag_97\n      jumpi\n        /* \"#utility.yul\":3539:3543   */\n      0x7f\n        /* \"#utility.yul\":3531:3537   */\n      dup3\n        /* \"#utility.yul\":3527:3544   */\n      and\n        /* \"#utility.yul\":3517:3544   */\n      swap2\n      pop\n        /* \"#utility.yul\":3473:3554   */\n    tag_97:\n        /* \"#utility.yul\":3601:3603   */\n      0x20\n        /* \"#utility.yul\":3593:3599   */\n      dup3\n        /* \"#utility.yul\":3590:3604   */\n      lt\n        /* \"#utility.yul\":3570:3588   */\n      dup2\n        /* \"#utility.yul\":3567:3605   */\n      sub\n        /* \"#utility.yul\":3564:3648   */\n      tag_98\n      jumpi\n        /* \"#utility.yul\":3620:3638   */\n      tag_99\n      tag_49\n      jump\t// in\n    tag_99:\n        /* \"#utility.yul\":3564:3648   */\n    tag_98:\n        /* \"#utility.yul\":3385:3654   */\n      pop\n        /* \"#utility.yul\":3334:3654   */\n      swap2\n      swap1\n      pop\n      jump\t// out\n        /* \"#utility.yul\":3660:3801   */\n    tag_50:\n        /* \"#utility.yul\":3709:3713   */\n      0x00\n        /* \"#utility.yul\":3732:3735   */\n      dup2\n        /* \"#utility.yul\":3724:3735   */\n      swap1\n      pop\n        /* \"#utility.yul\":3755:3758   */\n      dup2\n        /* \"#utility.yul\":3752:3753   */\n      0x00\n        /* \"#utility.yul\":3745:3759   */\n      mstore\n        /* \"#utility.yul\":3789:3793   */\n      0x20\n        /* \"#utility.yul\":3786:3787   */\n      0x00\n        /* \"#utility.yul\":3776:3794   */\n      keccak256\n        /* \"#utility.yul\":3768:3794   */\n      swap1\n      pop\n        /* \"#utility.yul\":3660:3801   */\n      swap2\n      swap1\n      pop\n      jump\t// out\n        /* \"#utility.yul\":3807:3900   */\n    tag_51:\n        /* \"#utility.yul\":3844:3850   */\n      0x00\n        /* \"#utility.yul\":3891:3893   */\n      0x20\n        /* \"#utility.yul\":3886:3888   */\n      0x1f\n        /* \"#utility.yul\":3879:3884   */\n      dup4\n        /* \"#utility.yul\":3875:3889   */\n      add\n        /* \"#utility.yul\":3871:3894   */\n      div\n        /* \"#utility.yul\":3861:3894   */\n      swap1\n      pop\n        /* \"#utility.yul\":3807:3900   */\n      swap2\n      swap1\n      pop\n      jump\t// out\n        /* \"#utility.yul\":3906:4013   */\n    tag_52:\n        /* \"#utility.yul\":3950:3958   */\n      0x00\n        /* \"#utility.yul\":4000:4005   */\n      dup3\n        /* \"#utility.yul\":3994:3998   */\n      dup3\n        /* \"#utility.yul\":3990:4006   */\n      shl\n        /* \"#utility.yul\":3969:4006   */\n      swap1\n      pop\n        /* \"#utility.yul\":3906:4013   */\n      swap3\n      swap2\n      pop\n      pop\n      jump\t// out\n        /* \"#utility.yul\":4019:4412   */\n    tag_53:\n        /* \"#utility.yul\":4088:4094   */\n      0x00\n        /* \"#utility.yul\":4138:4139   */\n      0x08\n        /* \"#utility.yul\":4126:4136   */\n      dup4\n        /* \"#utility.yul\":4122:4140   */\n      mul\n        /* \"#utility.yul\":4161:4258   */\n      tag_104\n        /* \"#utility.yul\":4191:4257   */\n      0xffffffffffffffffffffffffffffffffffffffffffffffffffffffffffffffff\n        /* \"#utility.yul\":4180:4189   */\n      dup3\n        /* \"#utility.yul\":4161:4258   */\n      tag_52\n      jump\t// in\n    tag_104:\n        /* \"#utility.yul\":4279:4318   */\n      tag_105\n        /* \"#utility.yul\":4309:4317   */\n      dup7\n        /* \"#utility.yul\":4298:4307   */\n      dup4\n        /* \"#utility.yul\":4279:4318   */\n      tag_52\n      jump\t// in\n    tag_105:\n        /* \"#utility.yul\":4267:4318   */\n      swap6\n      pop\n        /* \"#utility.yul\":4351:4355   */\n      dup1\n        /* \"#utility.yul\":4347:4356   */\n      not\n        /* \"#utility.yul\":4340:4345   */\n      dup5\n        /* \"#utility.yul\":4336:4357   */\n      and\n        /* \"#utility.yul\":4327:4357   */\n      swap4\n      pop\n        /* \"#utility.yul\":4400:4404   */\n      dup1\n        /* \"#utility.yul\":4390:4398   */\n      dup7\n        /* \"#utility.yul\":4386:4405   */\n      and\n        /* \"#utility.yul\":4379:4384   */\n      dup5\n        /* \"#utility.yul\":4376:4406   */\n      or\n        /* \"#utility.yul\":4366:4406   */\n      swap3\n      pop\n        /* \"#utility.yul\":4095:4412   */\n      pop\n      pop\n        /* \"#utility.yul\":4019:4412   */\n      swap4\n      swap3\n      pop\n      pop\n      pop\n      jump\t// out\n        /* \"#utility.yul\":4418:4495   */\n    tag_54:\n        /* \"#utility.yul\":4455:4462   */\n      0x00\n        /* \"#utility.yul\":4484:4489   */\n      dup2\n        /* \"#utility.yul\":4473:4489   */\n      swap1\n      pop\n        /* \"#utility.yul\":4418:4495   */\n      swap2\n      swap1\n      pop\n      jump\t// out\n        /* \"#utility.yul\":4501:4561   */\n    tag_55:\n        /* \"#utility.yul\":4529:4532   */\n      0x00\n        /* \"#utility.yul\":4550:4555   */\n      dup2\n        /* \"#utility.yul\":4543:4555   */\n      swap1\n      pop\n        /* \"#utility.yul\":4501:4561   */\n      swap2\n      swap1\n      pop\n      jump\t// out\n        /* \"#utility.yul\":4567:4709   */\n    tag_56:\n        /* \"#utility.yul\":4617:4626   */\n      0x00\n        /* \"#utility.yul\":4650:4703   */\n      tag_109\n        /* \"#utility.yul\":4668:4702   */\n      tag_110\n        /* \"#utility.yul\":4677:4701   */\n      tag_111\n        /* \"#utility.yul\":4695:4700   */\n      dup5\n        /* \"#utility.yul\":4677:4701   */\n      tag_54\n      jump\t// in\n    tag_111:\n        /* \"#utility.yul\":4668:4702   */\n      tag_55\n      jump\t// in\n    tag_110:\n        /* \"#utility.yul\":4650:4703   */\n      tag_54\n      jump\t// in\n    tag_109:\n        /* \"#utility.yul\":4637:4703   */\n      swap1\n      pop\n        /* \"#utility.yul\":4567:4709   */\n      swap2\n      swap1\n      pop\n      jump\t// out\n        /* \"#utility.yul\":4715:4790   */\n    tag_57:\n        /* \"#utility.yul\":4758:4761   */\n      0x00\n        /* \"#utility.yul\":4779:4784   */\n      dup2\n        /* \"#utility.yul\":4772:4784   */\n      swap1\n      pop\n        /* \"#utility.yul\":4715:4790   */\n      swap2\n      swap1\n      pop\n      jump\t// out\n        /* \"#utility.yul\":4796:5065   */\n    tag_58:\n        /* \"#utility.yul\":4906:4945   */\n      tag_114\n        /* \"#utility.yul\":4937:4944   */\n      dup4\n        /* \"#utility.yul\":4906:4945   */\n      tag_56\n      jump\t// in\n    tag_114:\n        /* \"#utility.yul\":4967:5058   */\n      tag_115\n        /* \"#utility.yul\":5016:5057   */\n      tag_116\n        /* \"#utility.yul\":5040:5056   */\n      dup3\n        /* \"#utility.yul\":5016:5057   */\n      tag_57\n      jump\t// in\n    tag_116:\n        /* \"#utility.yul\":5008:5014   */\n      dup5\n        /* \"#utility.yul\":5001:5005   */\n      dup5\n        /* \"#utility.yul\":4995:5006   */\n      sload\n        /* \"#utility.yul\":4967:5058   */\n      tag_53\n      jump\t// in\n    tag_115:\n        /* \"#utility.yul\":4961:4965   */\n      dup3\n        /* \"#utility.yul\":4954:5059   */\n      sstore\n        /* \"#utility.yul\":4872:5065   */\n      pop\n        /* \"#utility.yul\":4796:5065   */\n      pop\n      pop\n      pop\n      jump\t// out\n        /* \"#utility.yul\":5071:5144   */\n    tag_59:\n        /* \"#utility.yul\":5116:5119   */\n      0x00\n        /* \"#utility.yul\":5071:5144   */\n      swap1\n      jump\t// out\n        /* \"#utility.yul\":5150:5339   */\n    tag_60:\n        /* \"#utility.yul\":5227:5259   */\n      tag_119\n      tag_59\n      jump\t// in\n    tag_119:\n        /* \"#utility.yul\":5268:5333   */\n      tag_120\n        /* \"#utility.yul\":5326:5332   */\n      dup2\n        /* \"#utility.yul\":5318:5324   */\n      dup5\n        /* \"#utility.yul\":5312:5316   */\n      dup5\n        /* \"#utility.yul\":5268:5333   */\n      tag_58\n      jump\t// in\n    tag_120:\n        /* \"#utility.yul\":5203:5339   */\n      pop\n        /* \"#utility.yul\":5150:5339   */\n      pop\n      pop\n      jump\t// out\n        /* \"#utility.yul\":5345:5531   */\n    tag_61:\n        /* \"#utility.yul\":5405:5525   */\n    tag_122:\n        /* \"#utility.yul\":5422:5425   */\n      dup2\n        /* \"#utility.yul\":5415:5420   */\n      dup2\n        /* \"#utility.yul\":5412:5426   */\n      lt\n        /* \"#utility.yul\":5405:5525   */\n      iszero\n      tag_124\n      jumpi\n        /* \"#utility.yul\":5476:5515   */\n      tag_125\n        /* \"#utility.yul\":5513:5514   */\n      0x00\n        /* \"#utility.yul\":5506:5511   */\n      dup3\n        /* \"#utility.yul\":5476:5515   */\n      tag_60\n      jump\t// in\n    tag_125:\n        /* \"#utility.yul\":5449:5450   */\n      0x01\n        /* \"#utility.yul\":5442:5447   */\n      dup2\n        /* \"#utility.yul\":5438:5451   */\n      add\n        /* \"#utility.yul\":5429:5451   */\n      swap1\n      pop\n        /* \"#utility.yul\":5405:5525   */\n      jump(tag_122)\n    tag_124:\n        /* \"#utility.yul\":5345:5531   */\n      pop\n      pop\n      jump\t// out\n        /* \"#utility.yul\":5537:6080   */\n    tag_62:\n        /* \"#utility.yul\":5638:5640   */\n      0x1f\n        /* \"#utility.yul\":5633:5636   */\n      dup3\n        /* \"#utility.yul\":5630:5641   */\n      gt\n        /* \"#utility.yul\":5627:6073   */\n      iszero\n      tag_127\n      jumpi\n        /* \"#utility.yul\":5672:5710   */\n      tag_128\n        /* \"#utility.yul\":5704:5709   */\n      dup2\n        /* \"#utility.yul\":5672:5710   */\n      tag_50\n      jump\t// in\n    tag_128:\n        /* \"#utility.yul\":5756:5785   */\n      tag_129\n        /* \"#utility.yul\":5774:5784   */\n      dup5\n        /* \"#utility.yul\":5756:5785   */\n      tag_51\n      jump\t// in\n    tag_129:\n        /* \"#utility.yul\":5746:5754   */\n      dup2\n        /* \"#utility.yul\":5742:5786   */\n      add\n        /* \"#utility.yul\":5939:5941   */\n      0x20\n        /* \"#utility.yul\":5927:5937   */\n      dup6\n        /* \"#utility.yul\":5924:5942   */\n      lt\n        /* \"#utility.yul\":5921:5970   */\n      iszero\n      tag_130\n      jumpi\n        /* \"#utility.yul\":5960:5968   */\n      dup2\n        /* \"#utility.yul\":5945:5968   */\n      swap1\n      pop\n        /* \"#utility.yul\":5921:5970   */\n    tag_130:\n        /* \"#utility.yul\":5983:6063   */\n      tag_131\n        /* \"#utility.yul\":6039:6061   */\n      tag_132\n        /* \"#utility.yul\":6057:6060   */\n      dup6\n        /* \"#utility.yul\":6039:6061   */\n      tag_51\n      jump\t// in\n    tag_132:\n        /* \"#utility.yul\":6029:6037   */\n      dup4\n        /* \"#utility.yul\":6025:6062   */\n      add\n        /* \"#utility.yul\":6012:6023   */\n      dup3\n        /* \"#utility.yul\":5983:6063   */\n      tag_61\n      jump\t// in\n    tag_131:\n        /* \"#utility.yul\":5642:6073   */\n      pop\n      pop\n        /* \"#utility.yul\":5627:6073   */\n    tag_127:\n        /* \"#utility.yul\":5537:6080   */\n      pop\n      pop\n      pop\n      jump\t// out\n        /* \"#utility.yul\":6086:6203   */\n    tag_63:\n        /* \"#utility.yul\":6140:6148   */\n      0x00\n        /* \"#utility.yul\":6190:6195   */\n      dup3\n        /* \"#utility.yul\":6184:6188   */\n      dup3\n        /* \"#utility.yul\":6180:6196   */\n      shr\n        /* \"#utility.yul\":6159:6196   */\n      swap1\n      pop\n        /* \"#utility.yul\":6086:6203   */\n      swap3\n      swap2\n      pop\n      pop\n      jump\t// out\n        /* \"#utility.yul\":6209:6378   */\n    tag_64:\n        /* \"#utility.yul\":6253:6259   */\n      0x00\n        /* \"#utility.yul\":6286:6337   */\n      tag_135\n        /* \"#utility.yul\":6334:6335   */\n      0x00\n        /* \"#utility.yul\":6330:6336   */\n      not\n        /* \"#utility.yul\":6322:6327   */\n      dup5\n        /* \"#utility.yul\":6319:6320   */\n      0x08\n        /* \"#utility.yul\":6315:6328   */\n      mul\n        /* \"#utility.yul\":6286:6337   */\n      tag_63\n      jump\t// in\n    tag_135:\n        /* \"#utility.yul\":6282:6338   */\n      not\n        /* \"#utility.yul\":6367:6371   */\n      dup1\n        /* \"#utility.yul\":6361:6365   */\n      dup4\n        /* \"#utility.yul\":6357:6372   */\n      and\n        /* \"#utility.yul\":6347:6372   */\n      swap2\n      pop\n        /* \"#utility.yul\":6260:6378   */\n      pop\n        /* \"#utility.yul\":6209:6378   */\n      swap3\n      swap2\n      pop\n      pop\n      jump\t// out\n        /* \"#utility.yul\":6383:6678   */\n    tag_65:\n        /* \"#utility.yul\":6459:6463   */\n      0x00\n        /* \"#utility.yul\":6605:6634   */\n      tag_137\n        /* \"#utility.yul\":6630:6633   */\n      dup4\n        /* \"#utility.yul\":6624:6628   */\n      dup4\n        /* \"#utility.yul\":6605:6634   */\n      tag_64\n      jump\t// in\n    tag_137:\n        /* \"#utility.yul\":6597:6634   */\n      swap2\n      pop\n        /* \"#utility.yul\":6667:6670   */\n      dup3\n        /* \"#utility.yul\":6664:6665   */\n      0x02\n        /* \"#utility.yul\":6660:6671   */\n      mul\n        /* \"#utility.yul\":6654:6658   */\n      dup3\n        /* \"#utility.yul\":6651:6672   */\n      or\n        /* \"#utility.yul\":6643:6672   */\n      swap1\n      pop\n        /* \"#utility.yul\":6383:6678   */\n      swap3\n      swap2\n      pop\n      pop\n      jump\t// out\n        /* \"#utility.yul\":6683:8078   */\n    tag_25:\n        /* \"#utility.yul\":6800:6837   */\n      tag_139\n        /* \"#utility.yul\":6833:6836   */\n      dup3\n        /* \"#utility.yul\":6800:6837   */\n      tag_41\n      jump\t// in\n    tag_139:\n        /* \"#utility.yul\":6902:6920   */\n      0xffffffffffffffff\n        /* \"#utility.yul\":6894:6900   */\n      dup2\n        /* \"#utility.yul\":6891:6921   */\n      gt\n        /* \"#utility.yul\":6888:6944   */\n      iszero\n      tag_140\n      jumpi\n        /* \"#utility.yul\":6924:6942   */\n      tag_141\n      tag_48\n      jump\t// in\n    tag_141:\n        /* \"#utility.yul\":6888:6944   */\n    tag_140:\n        /* \"#utility.yul\":6968:7006   */\n      tag_142\n        /* \"#utility.yul\":7000:7004   */\n      dup3\n        /* \"#utility.yul\":6994:7005   */\n      sload\n        /* \"#utility.yul\":6968:7006   */\n      tag_33\n      jump\t// in\n    tag_142:\n        /* \"#utility.yul\":7053:7120   */\n      tag_143\n        /* \"#utility.yul\":7113:7119   */\n      dup3\n        /* \"#utility.yul\":7105:7111   */\n      dup3\n        /* \"#utility.yul\":7099:7103   */\n      dup6\n        /* \"#utility.yul\":7053:7120   */\n      tag_62\n      jump\t// in\n    tag_143:\n        /* \"#utility.yul\":7147:7148   */\n      0x00\n        /* \"#utility.yul\":7171:7175   */\n      0x20\n        /* \"#utility.yul\":7158:7175   */\n      swap1\n      pop\n        /* \"#utility.yul\":7203:7205   */\n      0x1f\n        /* \"#utility.yul\":7195:7201   */\n      dup4\n        /* \"#utility.yul\":7192:7206   */\n      gt\n        /* \"#utility.yul\":7220:7221   */\n      0x01\n        /* \"#utility.yul\":7215:7833   */\n      dup2\n      eq\n      tag_145\n      jumpi\n        /* \"#utility.yul\":7877:7878   */\n      0x00\n        /* \"#utility.yul\":7894:7900   */\n      dup5\n        /* \"#utility.yul\":7891:7968   */\n      iszero\n      tag_146\n      jumpi\n        /* \"#utility.yul\":7943:7952   */\n      dup3\n        /* \"#utility.yul\":7938:7941   */\n      dup8\n        /* \"#utility.yul\":7934:7953   */\n      add\n        /* \"#utility.yul\":7928:7954   */\n      mload\n        /* \"#utility.yul\":7919:7954   */\n      swap1\n      pop\n        /* \"#utility.yul\":7891:7968   */\n    tag_146:\n        /* \"#utility.yul\":7994:8061   */\n      tag_147\n        /* \"#utility.yul\":8054:8060   */\n      dup6\n        /* \"#utility.yul\":8047:8052   */\n      dup3\n        /* \"#utility.yul\":7994:8061   */\n      tag_65\n      jump\t// in\n    tag_147:\n        /* \"#utility.yul\":7988:7992   */\n      dup7\n        /* \"#utility.yul\":7981:8062   */\n      sstore\n        /* \"#utility.yul\":7850:8072   */\n      pop\n        /* \"#utility.yul\":7185:8072   */\n      jump(tag_144)\n        /* \"#utility.yul\":7215:7833   */\n    tag_145:\n        /* \"#utility.yul\":7267:7271   */\n      0x1f\n        /* \"#utility.yul\":7263:7272   */\n      not\n        /* \"#utility.yul\":7255:7261   */\n      dup5\n        /* \"#utility.yul\":7251:7273   */\n      and\n        /* \"#utility.yul\":7301:7338   */\n      tag_148\n        /* \"#utility.yul\":7333:7337   */\n      dup7\n        /* \"#utility.yul\":7301:7338   */\n      tag_50\n      jump\t// in\n    tag_148:\n        /* \"#utility.yul\":7360:7361   */\n      0x00\n        /* \"#utility.yul\":7374:7582   */\n    tag_149:\n        /* \"#utility.yul\":7388:7395   */\n      dup3\n        /* \"#utility.yul\":7385:7386   */\n      dup2\n        /* \"#utility.yul\":7382:7396   */\n      lt\n        /* \"#utility.yul\":7374:7582   */\n      iszero\n      tag_151\n      jumpi\n        /* \"#utility.yul\":7467:7476   */\n      dup5\n        /* \"#utility.yul\":7462:7465   */\n      dup10\n        /* \"#utility.yul\":7458:7477   */\n      add\n        /* \"#utility.yul\":7452:7478   */\n      mload\n        /* \"#utility.yul\":7444:7450   */\n      dup3\n        /* \"#utility.yul\":7437:7479   */\n      sstore\n        /* \"#utility.yul\":7518:7519   */\n      0x01\n        /* \"#utility.yul\":7510:7516   */\n      dup3\n        /* \"#utility.yul\":7506:7520   */\n      add\n        /* \"#utility.yul\":7496:7520   */\n      swap2\n      pop\n        /* \"#utility.yul\":7565:7567   */\n      0x20\n        /* \"#utility.yul\":7554:7563   */\n      dup6\n        /* \"#utility.yul\":7550:7568   */\n      add\n        /* \"#utility.yul\":7537:7568   */\n      swap5\n      pop\n        /* \"#utility.yul\":7411:7415   */\n      0x20\n        /* \"#utility.yul\":7408:7409   */\n      dup2\n        /* \"#utility.yul\":7404:7416   */\n      add\n        /* \"#utility.yul\":7399:7416   */\n      swap1\n      pop\n        /* \"#utility.yul\":7374:7582   */\n      jump(tag_149)\n    tag_151:\n        /* \"#utility.yul\":7610:7616   */\n      dup7\n        /* \"#utility.yul\":7601:7608   */\n      dup4\n        /* \"#utility.yul\":7598:7617   */\n      lt\n        /* \"#utility.yul\":7595:7774   */\n      iszero\n      tag_152\n      jumpi\n        /* \"#utility.yul\":7668:7677   */\n      dup5\n        /* \"#utility.yul\":7663:7666   */\n      dup10\n        /* \"#utility.yul\":7659:7678   */\n      add\n        /* \"#utility.yul\":7653:7679   */\n      mload\n        /* \"#utility.yul\":7711:7759   */\n      tag_153\n        /* \"#utility.yul\":7753:7757   */\n      0x1f\n        /* \"#utility.yul\":7745:7751   */\n      dup10\n        /* \"#utility.yul\":7741:7758   */\n      and\n        /* \"#utility.yul\":7730:7739   */\n      dup3\n        /* \"#utility.yul\":7711:7759   */\n      tag_64\n      jump\t// in\n    tag_153:\n        /* \"#utility.yul\":7703:7709   */\n      dup4\n        /* \"#utility.yul\":7696:7760   */\n      sstore\n        /* \"#utility.yul\":7618:7774   */\n      pop\n        /* \"#utility.yul\":7595:7774   */\n    tag_152:\n        /* \"#utility.yul\":7820:7821   */\n      0x01\n        /* \"#utility.yul\":7816:7817   */\n      0x02\n        /* \"#utility.yul\":7808:7814   */\n      dup9\n        /* \"#utility.yul\":7804:7818   */\n      mul\n        /* \"#utility.yul\":7800:7822   */\n      add\n        /* \"#utility.yul\":7794:7798   */\n      dup9\n        /* \"#utility.yul\":7787:7823   */\n      sstore\n        /* \"#utility.yul\":7222:7833   */\n      pop\n      pop\n      pop\n        /* \"#utility.yul\":7185:8072   */\n    tag_144:\n      pop\n        /* \"#utility.yul\":6775:8078   */\n      pop\n      pop\n      pop\n        /* \"#utility.yul\":6683:8078   */\n      pop\n      pop\n      jump\t// out\n\n    auxdata: 0xa264697066735822122004f5e1ac8fc5b288c1449dc803723661819db61ff4b0aa79f125f01c8f8abf9b64736f6c63430008120033\n}\n",
				"bytecode": {
					"linkReferences": {},
					"object": "60806040526040518060400160405280600181526020017f4100000000000000000000000000000000000000000000000000000000000000815250600190816200004a919062000319565b503480156200005857600080fd5b50336000806101000a81548173ffffffffffffffffffffffffffffffffffffffff021916908373ffffffffffffffffffffffffffffffffffffffff16021790555062000400565b600081519050919050565b7f4e487b7100000000000000000000000000000000000000000000000000000000600052604160045260246000fd5b7f4e487b7100000000000000000000000000000000000000000000000000000000600052602260045260246000fd5b600060028204905060018216806200012157607f821691505b602082108103620001375762000136620000d9565b5b50919050565b60008190508160005260206000209050919050565b60006020601f8301049050919050565b600082821b905092915050565b600060088302620001a17fffffffffffffffffffffffffffffffffffffffffffffffffffffffffffffffff8262000162565b620001ad868362000162565b95508019841693508086168417925050509392505050565b6000819050919050565b6000819050919050565b6000620001fa620001f4620001ee84620001c5565b620001cf565b620001c5565b9050919050565b6000819050919050565b6200021683620001d9565b6200022e620002258262000201565b8484546200016f565b825550505050565b600090565b6200024562000236565b620002528184846200020b565b505050565b5b818110156200027a576200026e6000826200023b565b60018101905062000258565b5050565b601f821115620002c95762000293816200013d565b6200029e8462000152565b81016020851015620002ae578190505b620002c6620002bd8562000152565b83018262000257565b50505b505050565b600082821c905092915050565b6000620002ee60001984600802620002ce565b1980831691505092915050565b6000620003098383620002db565b9150826002028217905092915050565b62000324826200009f565b67ffffffffffffffff81111562000340576200033f620000aa565b5b6200034c825462000108565b620003598282856200027e565b600060209050601f8311600181146200039157600084156200037c578287015190505b620003888582620002fb565b865550620003f8565b601f198416620003a1866200013d565b60005b82811015620003cb57848901518255600182019150602085019450602081019050620003a4565b86831015620003eb5784890151620003e7601f891682620002db565b8355505b6001600288020188555050505b505050505050565b6107c880620004106000396000f3fe608060405234801561001057600080fd5b506004361061004c5760003560e01c8063651112291461005157806370c0d0501461005b5780638da5cb5b14610065578063d46300fd14610083575b600080fd5b6100596100a1565b005b610063610176565b005b61006d61024b565b60405161007a9190610342565b60405180910390f35b61008b61026f565b60405161009891906103ed565b60405180910390f35b60008054906101000a900473ffffffffffffffffffffffffffffffffffffffff1673ffffffffffffffffffffffffffffffffffffffff163373ffffffffffffffffffffffffffffffffffffffff161461012f576040517f08c379a00000000000000000000000000000000000000000000000000000000081526004016101269061045b565b60405180910390fd5b6040518060400160405280600181526020017f43000000000000000000000000000000000000000000000000000000000000008152506001908161017391906106c0565b50565b60008054906101000a900473ffffffffffffffffffffffffffffffffffffffff1673ffffffffffffffffffffffffffffffffffffffff163373ffffffffffffffffffffffffffffffffffffffff1614610204576040517f08c379a00000000000000000000000000000000000000000000000000000000081526004016101fb9061045b565b60405180910390fd5b6040518060400160405280600181526020017f42000000000000000000000000000000000000000000000000000000000000008152506001908161024891906106c0565b50565b60008054906101000a900473ffffffffffffffffffffffffffffffffffffffff1681565b60606001805461027e906104d9565b80601f01602080910402602001604051908101604052809291908181526020018280546102aa906104d9565b80156102f75780601f106102cc576101008083540402835291602001916102f7565b820191906000526020600020905b8154815290600101906020018083116102da57829003601f168201915b5050505050905090565b600073ffffffffffffffffffffffffffffffffffffffff82169050919050565b600061032c82610301565b9050919050565b61033c81610321565b82525050565b60006020820190506103576000830184610333565b92915050565b600081519050919050565b600082825260208201905092915050565b60005b8381101561039757808201518184015260208101905061037c565b60008484015250505050565b6000601f19601f8301169050919050565b60006103bf8261035d565b6103c98185610368565b93506103d9818560208601610379565b6103e2816103a3565b840191505092915050565b6000602082019050818103600083015261040781846103b4565b905092915050565b7f6f6e6c79206f776e657200000000000000000000000000000000000000000000600082015250565b6000610445600a83610368565b91506104508261040f565b602082019050919050565b6000602082019050818103600083015261047481610438565b9050919050565b7f4e487b7100000000000000000000000000000000000000000000000000000000600052604160045260246000fd5b7f4e487b7100000000000000000000000000000000000000000000000000000000600052602260045260246000fd5b600060028204905060018216806104f157607f821691505b602082108103610504576105036104aa565b5b50919050565b60008190508160005260206000209050919050565b60006020601f8301049050919050565b600082821b905092915050565b60006008830261056c7fffffffffffffffffffffffffffffffffffffffffffffffffffffffffffffffff8261052f565b610576868361052f565b95508019841693508086168417925050509392505050565b6000819050919050565b6000819050919050565b60006105bd6105b86105b38461058e565b610598565b61058e565b9050919050565b6000819050919050565b6105d7836105a2565b6105eb6105e3826105c4565b84845461053c565b825550505050565b600090565b6106006105f3565b61060b8184846105ce565b505050565b5b8181101561062f576106246000826105f8565b600181019050610611565b5050565b601f821115610674576106458161050a565b61064e8461051f565b8101602085101561065d578190505b6106716106698561051f565b830182610610565b50505b505050565b600082821c905092915050565b600061069760001984600802610679565b1980831691505092915050565b60006106b08383610686565b9150826002028217905092915050565b6106c98261035d565b67ffffffffffffffff8111156106e2576106e161047b565b5b6106ec82546104d9565b6106f7828285610633565b600060209050601f83116001811461072a5760008415610718578287015190505b61072285826106a4565b86555061078a565b601f1984166107388661050a565b60005b828110156107605784890151825560018201915060208501945060208101905061073b565b8683101561077d5784890151610779601f891682610686565b8355505b6001600288020188555050505b50505050505056fea264697066735822122004f5e1ac8fc5b288c1449dc803723661819db61ff4b0aa79f125f01c8f8abf9b64736f6c63430008120033",
					"opcodes": "PUSH1 0x80 PUSH1 0x40 MSTORE PUSH1 0x40 MLOAD DUP1 PUSH1 0x40 ADD PUSH1 0x40 MSTORE DUP1 PUSH1 0x1 DUP2 MSTORE PUSH1 0x20 ADD PUSH32 0x4100000000000000000000000000000000000000000000000000000000000000 DUP2 MSTORE POP PUSH1 0x1 SWAP1 DUP2 PUSH3 0x4A SWAP2 SWAP1 PUSH3 0x319 JUMP JUMPDEST POP CALLVALUE DUP1 ISZERO PUSH3 0x58 JUMPI PUSH1 0x0 DUP1 REVERT JUMPDEST POP CALLER PUSH1 0x0 DUP1 PUSH2 0x100 EXP DUP2 SLOAD DUP2 PUSH20 0xFFFFFFFFFFFFFFFFFFFFFFFFFFFFFFFFFFFFFFFF MUL NOT AND SWAP1 DUP4 PUSH20 0xFFFFFFFFFFFFFFFFFFFFFFFFFFFFFFFFFFFFFFFF AND MUL OR SWAP1 SSTORE POP PUSH3 0x400 JUMP JUMPDEST PUSH1 0x0 DUP2 MLOAD SWAP1 POP SWAP2 SWAP1 POP JUMP JUMPDEST PUSH32 0x4E487B7100000000000000000000000000000000000000000000000000000000 PUSH1 0x0 MSTORE PUSH1 0x41 PUSH1 0x4 MSTORE PUSH1 0x24 PUSH1 0x0 REVERT JUMPDEST PUSH32 0x4E487B7100000000000000000000000000000000000000000000000000000000 PUSH1 0x0 MSTORE PUSH1 0x22 PUSH1 0x4 MSTORE PUSH1 0x24 PUSH1 0x0 REVERT JUMPDEST PUSH1 0x0 PUSH1 0x2 DUP3 DIV SWAP1 POP PUSH1 0x1 DUP3 AND DUP1 PUSH3 0x121 JUMPI PUSH1 0x7F DUP3 AND SWAP2 POP JUMPDEST PUSH1 0x20 DUP3 LT DUP2 SUB PUSH3 0x137 JUMPI PUSH3 0x136 PUSH3 0xD9 JUMP JUMPDEST JUMPDEST POP SWAP2 SWAP1 POP JUMP JUMPDEST PUSH1 0x0 DUP2 SWAP1 POP DUP2 PUSH1 0x0 MSTORE PUSH1 0x20 PUSH1 0x0 KECCAK256 SWAP1 POP SWAP2 SWAP1 POP JUMP JUMPDEST PUSH1 0x0 PUSH1 0x20 PUSH1 0x1F DUP4 ADD DIV SWAP1 POP SWAP2 SWAP1 POP JUMP JUMPDEST PUSH1 0x0 DUP3 DUP3 SHL SWAP1 POP SWAP3 SWAP2 POP POP JUMP JUMPDEST PUSH1 0x0 PUSH1 0x8 DUP4 MUL PUSH3 0x1A1 PUSH32 0xFFFFFFFFFFFFFFFFFFFFFFFFFFFFFFFFFFFFFFFFFFFFFFFFFFFFFFFFFFFFFFFF DUP3 PUSH3 0x162 JUMP JUMPDEST PUSH3 0x1AD DUP7 DUP4 PUSH3 0x162 JUMP JUMPDEST SWAP6 POP DUP1 NOT DUP5 AND SWAP4 POP DUP1 DUP7 AND DUP5 OR SWAP3 POP POP POP SWAP4 SWAP3 POP POP POP JUMP JUMPDEST PUSH1 0x0 DUP2 SWAP1 POP SWAP2 SWAP1 POP JUMP JUMPDEST PUSH1 0x0 DUP2 SWAP1 POP SWAP2 SWAP1 POP JUMP JUMPDEST PUSH1 0x0 PUSH3 0x1FA PUSH3 0x1F4 PUSH3 0x1EE DUP5 PUSH3 0x1C5 JUMP JUMPDEST PUSH3 0x1CF JUMP JUMPDEST PUSH3 0x1C5 JUMP JUMPDEST SWAP1 POP SWAP2 SWAP1 POP JUMP JUMPDEST PUSH1 0x0 DUP2 SWAP1 POP SWAP2 SWAP1 POP JUMP JUMPDEST PUSH3 0x216 DUP4 PUSH3 0x1D9 JUMP JUMPDEST PUSH3 0x22E PUSH3 0x225 DUP3 PUSH3 0x201 JUMP JUMPDEST DUP5 DUP5 SLOAD PUSH3 0x16F JUMP JUMPDEST DUP3 SSTORE POP POP POP POP JUMP JUMPDEST PUSH1 0x0 SWAP1 JUMP JUMPDEST PUSH3 0x245 PUSH3 0x236 JUMP JUMPDEST PUSH3 0x252 DUP2 DUP5 DUP5 PUSH3 0x20B JUMP JUMPDEST POP POP POP JUMP JUMPDEST JUMPDEST DUP2 DUP2 LT ISZERO PUSH3 0x27A JUMPI PUSH3 0x26E PUSH1 0x0 DUP3 PUSH3 0x23B JUMP JUMPDEST PUSH1 0x1 DUP2 ADD SWAP1 POP PUSH3 0x258 JUMP JUMPDEST POP POP JUMP JUMPDEST PUSH1 0x1F DUP3 GT ISZERO PUSH3 0x2C9 JUMPI PUSH3 0x293 DUP2 PUSH3 0x13D JUMP JUMPDEST PUSH3 0x29E DUP5 PUSH3 0x152 JUMP JUMPDEST DUP2 ADD PUSH1 0x20 DUP6 LT ISZERO PUSH3 0x2AE JUMPI DUP2 SWAP1 POP JUMPDEST PUSH3 0x2C6 PUSH3 0x2BD DUP6 PUSH3 0x152 JUMP JUMPDEST DUP4 ADD DUP3 PUSH3 0x257 JUMP JUMPDEST POP POP JUMPDEST POP POP POP JUMP JUMPDEST PUSH1 0x0 DUP3 DUP3 SHR SWAP1 POP SWAP3 SWAP2 POP POP JUMP JUMPDEST PUSH1 0x0 PUSH3 0x2EE PUSH1 0x0 NOT DUP5 PUSH1 0x8 MUL PUSH3 0x2CE JUMP JUMPDEST NOT DUP1 DUP4 AND SWAP2 POP POP SWAP3 SWAP2 POP POP JUMP JUMPDEST PUSH1 0x0 PUSH3 0x309 DUP4 DUP4 PUSH3 0x2DB JUMP JUMPDEST SWAP2 POP DUP3 PUSH1 0x2 MUL DUP3 OR SWAP1 POP SWAP3 SWAP2 POP POP JUMP JUMPDEST PUSH3 0x324 DUP3 PUSH3 0x9F JUMP JUMPDEST PUSH8 0xFFFFFFFFFFFFFFFF DUP2 GT ISZERO PUSH3 0x340 JUMPI PUSH3 0x33F PUSH3 0xAA JUMP JUMPDEST JUMPDEST PUSH3 0x34C DUP3 SLOAD PUSH3 0x108 JUMP JUMPDEST PUSH3 0x359 DUP3 DUP3 DUP6 PUSH3 0x27E JUMP JUMPDEST PUSH1 0x0 PUSH1 0x20 SWAP1 POP PUSH1 0x1F DUP4 GT PUSH1 0x1 DUP2 EQ PUSH3 0x391 JUMPI PUSH1 0x0 DUP5 ISZERO PUSH3 0x37C JUMPI DUP3 DUP8 ADD MLOAD SWAP1 POP JUMPDEST PUSH3 0x388 DUP6 DUP3 PUSH3 0x2FB JUMP JUMPDEST DUP7 SSTORE POP PUSH3 0x3F8 JUMP JUMPDEST PUSH1 0x1F NOT DUP5 AND PUSH3 0x3A1 DUP7 PUSH3 0x13D JUMP JUMPDEST PUSH1 0x0 JUMPDEST DUP3 DUP2 LT ISZERO PUSH3 0x3CB JUMPI DUP5 DUP10 ADD MLOAD DUP3 SSTORE PUSH1 0x1 DUP3 ADD SWAP2 POP PUSH1 0x20 DUP6 ADD SWAP5 POP PUSH1 0x20 DUP2 ADD SWAP1 POP PUSH3 0x3A4 JUMP JUMPDEST DUP7 DUP4 LT ISZERO PUSH3 0x3EB JUMPI DUP5 DUP10 ADD MLOAD PUSH3 0x3E7 PUSH1 0x1F DUP10 AND DUP3 PUSH3 0x2DB JUMP JUMPDEST DUP4 SSTORE POP JUMPDEST PUSH1 0x1 PUSH1 0x2 DUP9 MUL ADD DUP9 SSTORE POP POP POP JUMPDEST POP POP POP POP POP POP JUMP JUMPDEST PUSH2 0x7C8 DUP1 PUSH3 0x410 PUSH1 0x0 CODECOPY PUSH1 0x0 RETURN INVALID PUSH1 0x80 PUSH1 0x40 MSTORE CALLVALUE DUP1 ISZERO PUSH2 0x10 JUMPI PUSH1 0x0 DUP1 REVERT JUMPDEST POP PUSH1 0x4 CALLDATASIZE LT PUSH2 0x4C JUMPI PUSH1 0x0 CALLDATALOAD PUSH1 0xE0 SHR DUP1 PUSH4 0x65111229 EQ PUSH2 0x51 JUMPI DUP1 PUSH4 0x70C0D050 EQ PUSH2 0x5B JUMPI DUP1 PUSH4 0x8DA5CB5B EQ PUSH2 0x65 JUMPI DUP1 PUSH4 0xD46300FD EQ PUSH2 0x83 JUMPI JUMPDEST PUSH1 0x0 DUP1 REVERT JUMPDEST PUSH2 0x59 PUSH2 0xA1 JUMP JUMPDEST STOP JUMPDEST PUSH2 0x63 PUSH2 0x176 JUMP JUMPDEST STOP JUMPDEST PUSH2 0x6D PUSH2 0x24B JUMP JUMPDEST PUSH1 0x40 MLOAD PUSH2 0x7A SWAP2 SWAP1 PUSH2 0x342 JUMP JUMPDEST PUSH1 0x40 MLOAD DUP1 SWAP2 SUB SWAP1 RETURN JUMPDEST PUSH2 0x8B PUSH2 0x26F JUMP JUMPDEST PUSH1 0x40 MLOAD PUSH2 0x98 SWAP2 SWAP1 PUSH2 0x3ED JUMP JUMPDEST PUSH1 0x40 MLOAD DUP1 SWAP2 SUB SWAP1 RETURN JUMPDEST PUSH1 0x0 DUP1 SLOAD SWAP1 PUSH2 0x100 EXP SWAP1 DIV PUSH20 0xFFFFFFFFFFFFFFFFFFFFFFFFFFFFFFFFFFFFFFFF AND PUSH20 0xFFFFFFFFFFFFFFFFFFFFFFFFFFFFFFFFFFFFFFFF AND CALLER PUSH20 0xFFFFFFFFFFFFFFFFFFFFFFFFFFFFFFFFFFFFFFFF AND EQ PUSH2 0x12F JUMPI PUSH1 0x40 MLOAD PUSH32 0x8C379A000000000000000000000000000000000000000000000000000000000 DUP2 MSTORE PUSH1 0x4 ADD PUSH2 0x126 SWAP1 PUSH2 0x45B JUMP JUMPDEST PUSH1 0x40 MLOAD DUP1 SWAP2 SUB SWAP1 REVERT JUMPDEST PUSH1 0x40 MLOAD DUP1 PUSH1 0x40 ADD PUSH1 0x40 MSTORE DUP1 PUSH1 0x1 DUP2 MSTORE PUSH1 0x20 ADD PUSH32 0x4300000000000000000000000000000000000000000000000000000000000000 DUP2 MSTORE POP PUSH1 0x1 SWAP1 DUP2 PUSH2 0x173 SWAP2 SWAP1 PUSH2 0x6C0 JUMP JUMPDEST POP JUMP JUMPDEST PUSH1 0x0 DUP1 SLOAD SWAP1 PUSH2 0x100 EXP SWAP1 DIV PUSH20 0xFFFFFFFFFFFFFFFFFFFFFFFFFFFFFFFFFFFFFFFF AND PUSH20 0xFFFFFFFFFFFFFFFFFFFFFFFFFFFFFFFFFFFFFFFF AND CALLER PUSH20 0xFFFFFFFFFFFFFFFFFFFFFFFFFFFFFFFFFFFFFFFF AND EQ PUSH2 0x204 JUMPI PUSH1 0x40 MLOAD PUSH32 0x8C379A000000000000000000000000000000000000000000000000000000000 DUP2 MSTORE PUSH1 0x4 ADD PUSH2 0x1FB SWAP1 PUSH2 0x45B JUMP JUMPDEST PUSH1 0x40 MLOAD DUP1 SWAP2 SUB SWAP1 REVERT JUMPDEST PUSH1 0x40 MLOAD DUP1 PUSH1 0x40 ADD PUSH1 0x40 MSTORE DUP1 PUSH1 0x1 DUP2 MSTORE PUSH1 0x20 ADD PUSH32 0x4200000000000000000000000000000000000000000000000000000000000000 DUP2 MSTORE POP PUSH1 0x1 SWAP1 DUP2 PUSH2 0x248 SWAP2 SWAP1 PUSH2 0x6C0 JUMP JUMPDEST POP JUMP JUMPDEST PUSH1 0x0 DUP1 SLOAD SWAP1 PUSH2 0x100 EXP SWAP1 DIV PUSH20 0xFFFFFFFFFFFFFFFFFFFFFFFFFFFFFFFFFFFFFFFF AND DUP2 JUMP JUMPDEST PUSH1 0x60 PUSH1 0x1 DUP1 SLOAD PUSH2 0x27E SWAP1 PUSH2 0x4D9 JUMP JUMPDEST DUP1 PUSH1 0x1F ADD PUSH1 0x20 DUP1 SWAP2 DIV MUL PUSH1 0x20 ADD PUSH1 0x40 MLOAD SWAP1 DUP2 ADD PUSH1 0x40 MSTORE DUP1 SWAP3 SWAP2 SWAP1 DUP2 DUP2 MSTORE PUSH1 0x20 ADD DUP3 DUP1 SLOAD PUSH2 0x2AA SWAP1 PUSH2 0x4D9 JUMP JUMPDEST DUP1 ISZERO PUSH2 0x2F7 JUMPI DUP1 PUSH1 0x1F LT PUSH2 0x2CC JUMPI PUSH2 0x100 DUP1 DUP4 SLOAD DIV MUL DUP4 MSTORE SWAP2 PUSH1 0x20 ADD SWAP2 PUSH2 0x2F7 JUMP JUMPDEST DUP3 ADD SWAP2 SWAP1 PUSH1 0x0 MSTORE PUSH1 0x20 PUSH1 0x0 KECCAK256 SWAP1 JUMPDEST DUP2 SLOAD DUP2 MSTORE SWAP1 PUSH1 0x1 ADD SWAP1 PUSH1 0x20 ADD DUP1 DUP4 GT PUSH2 0x2DA JUMPI DUP3 SWAP1 SUB PUSH1 0x1F AND DUP3 ADD SWAP2 JUMPDEST POP POP POP POP POP SWAP1 POP SWAP1 JUMP JUMPDEST PUSH1 0x0 PUSH20 0xFFFFFFFFFFFFFFFFFFFFFFFFFFFFFFFFFFFFFFFF DUP3 AND SWAP1 POP SWAP2 SWAP1 POP JUMP JUMPDEST PUSH1 0x0 PUSH2 0x32C DUP3 PUSH2 0x301 JUMP JUMPDEST SWAP1 POP SWAP2 SWAP1 POP JUMP JUMPDEST PUSH2 0x33C DUP2 PUSH2 0x321 JUMP JUMPDEST DUP3 MSTORE POP POP JUMP JUMPDEST PUSH1 0x0 PUSH1 0x20 DUP3 ADD SWAP1 POP PUSH2 0x357 PUSH1 0x0 DUP4 ADD DUP5 PUSH2 0x333 JUMP JUMPDEST SWAP3 SWAP2 POP POP JUMP JUMPDEST PUSH1 0x0 DUP2 MLOAD SWAP1 POP SWAP2 SWAP1 POP JUMP JUMPDEST PUSH1 0x0 DUP3 DUP3 MSTORE PUSH1 0x20 DUP3 ADD SWAP1 POP SWAP3 SWAP2 POP POP JUMP JUMPDEST PUSH1 0x0 JUMPDEST DUP4 DUP2 LT ISZERO PUSH2 0x397 JUMPI DUP1 DUP3 ADD MLOAD DUP2 DUP5 ADD MSTORE PUSH1 0x20 DUP2 ADD SWAP1 POP PUSH2 0x37C JUMP JUMPDEST PUSH1 0x0 DUP5 DUP5 ADD MSTORE POP POP POP POP JUMP JUMPDEST PUSH1 0x0 PUSH1 0x1F NOT PUSH1 0x1F DUP4 ADD AND SWAP1 POP SWAP2 SWAP1 POP JUMP JUMPDEST PUSH1 0x0 PUSH2 0x3BF DUP3 PUSH2 0x35D JUMP JUMPDEST PUSH2 0x3C9 DUP2 DUP6 PUSH2 0x368 JUMP JUMPDEST SWAP4 POP PUSH2 0x3D9 DUP2 DUP6 PUSH1 0x20 DUP7 ADD PUSH2 0x379 JUMP JUMPDEST PUSH2 0x3E2 DUP2 PUSH2 0x3A3 JUMP JUMPDEST DUP5 ADD SWAP2 POP POP SWAP3 SWAP2 POP POP JUMP JUMPDEST PUSH1 0x0 PUSH1 0x20 DUP3 ADD SWAP1 POP DUP2 DUP2 SUB PUSH1 0x0 DUP4 ADD MSTORE PUSH2 0x407 DUP2 DUP5 PUSH2 0x3B4 JUMP JUMPDEST SWAP1 POP SWAP3 SWAP2 POP POP JUMP JUMPDEST PUSH32 0x6F6E6C79206F776E657200000000000000000000000000000000000000000000 PUSH1 0x0 DUP3 ADD MSTORE POP JUMP JUMPDEST PUSH1 0x0 PUSH2 0x445 PUSH1 0xA DUP4 PUSH2 0x368 JUMP JUMPDEST SWAP2 POP PUSH2 0x450 DUP3 PUSH2 0x40F JUMP JUMPDEST PUSH1 0x20 DUP3 ADD SWAP1 POP SWAP2 SWAP1 POP JUMP JUMPDEST PUSH1 0x0 PUSH1 0x20 DUP3 ADD SWAP1 POP DUP2 DUP2 SUB PUSH1 0x0 DUP4 ADD MSTORE PUSH2 0x474 DUP2 PUSH2 0x438 JUMP JUMPDEST SWAP1 POP SWAP2 SWAP1 POP JUMP JUMPDEST PUSH32 0x4E487B7100000000000000000000000000000000000000000000000000000000 PUSH1 0x0 MSTORE PUSH1 0x41 PUSH1 0x4 MSTORE PUSH1 0x24 PUSH1 0x0 REVERT JUMPDEST PUSH32 0x4E487B7100000000000000000000000000000000000000000000000000000000 PUSH1 0x0 MSTORE PUSH1 0x22 PUSH1 0x4 MSTORE PUSH1 0x24 PUSH1 0x0 REVERT JUMPDEST PUSH1 0x0 PUSH1 0x2 DUP3 DIV SWAP1 POP PUSH1 0x1 DUP3 AND DUP1 PUSH2 0x4F1 JUMPI PUSH1 0x7F DUP3 AND SWAP2 POP JUMPDEST PUSH1 0x20 DUP3 LT DUP2 SUB PUSH2 0x504 JUMPI PUSH2 0x503 PUSH2 0x4AA JUMP JUMPDEST JUMPDEST POP SWAP2 SWAP1 POP JUMP JUMPDEST PUSH1 0x0 DUP2 SWAP1 POP DUP2 PUSH1 0x0 MSTORE PUSH1 0x20 PUSH1 0x0 KECCAK256 SWAP1 POP SWAP2 SWAP1 POP JUMP JUMPDEST PUSH1 0x0 PUSH1 0x20 PUSH1 0x1F DUP4 ADD DIV SWAP1 POP SWAP2 SWAP1 POP JUMP JUMPDEST PUSH1 0x0 DUP3 DUP3 SHL SWAP1 POP SWAP3 SWAP2 POP POP JUMP JUMPDEST PUSH1 0x0 PUSH1 0x8 DUP4 MUL PUSH2 0x56C PUSH32 0xFFFFFFFFFFFFFFFFFFFFFFFFFFFFFFFFFFFFFFFFFFFFFFFFFFFFFFFFFFFFFFFF DUP3 PUSH2 0x52F JUMP JUMPDEST PUSH2 0x576 DUP7 DUP4 PUSH2 0x52F JUMP JUMPDEST SWAP6 POP DUP1 NOT DUP5 AND SWAP4 POP DUP1 DUP7 AND DUP5 OR SWAP3 POP POP POP SWAP4 SWAP3 POP POP POP JUMP JUMPDEST PUSH1 0x0 DUP2 SWAP1 POP SWAP2 SWAP1 POP JUMP JUMPDEST PUSH1 0x0 DUP2 SWAP1 POP SWAP2 SWAP1 POP JUMP JUMPDEST PUSH1 0x0 PUSH2 0x5BD PUSH2 0x5B8 PUSH2 0x5B3 DUP5 PUSH2 0x58E JUMP JUMPDEST PUSH2 0x598 JUMP JUMPDEST PUSH2 0x58E JUMP JUMPDEST SWAP1 POP SWAP2 SWAP1 POP JUMP JUMPDEST PUSH1 0x0 DUP2 SWAP1 POP SWAP2 SWAP1 POP JUMP JUMPDEST PUSH2 0x5D7 DUP4 PUSH2 0x5A2 JUMP JUMPDEST PUSH2 0x5EB PUSH2 0x5E3 DUP3 PUSH2 0x5C4 JUMP JUMPDEST DUP5 DUP5 SLOAD PUSH2 0x53C JUMP JUMPDEST DUP3 SSTORE POP POP POP POP JUMP JUMPDEST PUSH1 0x0 SWAP1 JUMP JUMPDEST PUSH2 0x600 PUSH2 0x5F3 JUMP JUMPDEST PUSH2 0x60B DUP2 DUP5 DUP5 PUSH2 0x5CE JUMP JUMPDEST POP POP POP JUMP JUMPDEST JUMPDEST DUP2 DUP2 LT ISZERO PUSH2 0x62F JUMPI PUSH2 0x624 PUSH1 0x0 DUP3 PUSH2 0x5F8 JUMP JUMPDEST PUSH1 0x1 DUP2 ADD SWAP1 POP PUSH2 0x611 JUMP JUMPDEST POP POP JUMP JUMPDEST PUSH1 0x1F DUP3 GT ISZERO PUSH2 0x674 JUMPI PUSH2 0x645 DUP2 PUSH2 0x50A JUMP JUMPDEST PUSH2 0x64E DUP5 PUSH2 0x51F JUMP JUMPDEST DUP2 ADD PUSH1 0x20 DUP6 LT ISZERO PUSH2 0x65D JUMPI DUP2 SWAP1 POP JUMPDEST PUSH2 0x671 PUSH2 0x669 DUP6 PUSH2 0x51F JUMP JUMPDEST DUP4 ADD DUP3 PUSH2 0x610 JUMP JUMPDEST POP POP JUMPDEST POP POP POP JUMP JUMPDEST PUSH1 0x0 DUP3 DUP3 SHR SWAP1 POP SWAP3 SWAP2 POP POP JUMP JUMPDEST PUSH1 0x0 PUSH2 0x697 PUSH1 0x0 NOT DUP5 PUSH1 0x8 MUL PUSH2 0x679 JUMP JUMPDEST NOT DUP1 DUP4 AND SWAP2 POP POP SWAP3 SWAP2 POP POP JUMP JUMPDEST PUSH1 0x0 PUSH2 0x6B0 DUP4 DUP4 PUSH2 0x686 JUMP JUMPDEST SWAP2 POP DUP3 PUSH1 0x2 MUL DUP3 OR SWAP1 POP SWAP3 SWAP2 POP POP JUMP JUMPDEST PUSH2 0x6C9 DUP3 PUSH2 0x35D JUMP JUMPDEST PUSH8 0xFFFFFFFFFFFFFFFF DUP2 GT ISZERO PUSH2 0x6E2 JUMPI PUSH2 0x6E1 PUSH2 0x47B JUMP JUMPDEST JUMPDEST PUSH2 0x6EC DUP3 SLOAD PUSH2 0x4D9 JUMP JUMPDEST PUSH2 0x6F7 DUP3 DUP3 DUP6 PUSH2 0x633 JUMP JUMPDEST PUSH1 0x0 PUSH1 0x20 SWAP1 POP PUSH1 0x1F DUP4 GT PUSH1 0x1 DUP2 EQ PUSH2 0x72A JUMPI PUSH1 0x0 DUP5 ISZERO PUSH2 0x718 JUMPI DUP3 DUP8 ADD MLOAD SWAP1 POP JUMPDEST PUSH2 0x722 DUP6 DUP3 PUSH2 0x6A4 JUMP JUMPDEST DUP7 SSTORE POP PUSH2 0x78A JUMP JUMPDEST PUSH1 0x1F NOT DUP5 AND PUSH2 0x738 DUP7 PUSH2 0x50A JUMP JUMPDEST PUSH1 0x0 JUMPDEST DUP3 DUP2 LT ISZERO PUSH2 0x760 JUMPI DUP5 DUP10 ADD MLOAD DUP3 SSTORE PUSH1 0x1 DUP3 ADD SWAP2 POP PUSH1 0x20 DUP6 ADD SWAP5 POP PUSH1 0x20 DUP2 ADD SWAP1 POP PUSH2 0x73B JUMP JUMPDEST DUP7 DUP4 LT ISZERO PUSH2 0x77D JUMPI DUP5 DUP10 ADD MLOAD PUSH2 0x779 PUSH1 0x1F DUP10 AND DUP3 PUSH2 0x686 JUMP JUMPDEST DUP4 SSTORE POP JUMPDEST PUSH1 0x1 PUSH1 0x2 DUP9 MUL ADD DUP9 SSTORE POP POP POP JUMPDEST POP POP POP POP POP POP JUMP INVALID LOG2 PUSH5 0x6970667358 0x22 SLT KECCAK256 DIV CREATE2 0xE1 0xAC DUP16 0xC5 0xB2 DUP9 0xC1 PREVRANDAO SWAP14 0xC8 SUB PUSH19 0x3661819DB61FF4B0AA79F125F01C8F8ABF9B64 PUSH20 0x6F6C634300081200330000000000000000000000 "
				},
				"gasEstimates": {
					"creation": {
						"codeDepositCost": "398400",
						"executionCost": "infinite",
						"totalCost": "infinite"
					},
					"external": {
						"changeToB()": "infinite",
						"changeToC()": "infinite",
						"getA()": "infinite",
						"owner()": "2533"
					}
				},
				"methodIdentifiers": {
					"changeToB()": "70c0d050",
					"changeToC()": "65111229",
					"getA()": "d46300fd",
					"owner()": "8da5cb5b"
				}
			},
			"storageLayout": {
				"storage": [
					{
						"astId": 329,
						"contract": "contracts-basic/week4.sol:_38",
						"label": "owner",
						"offset": 0,
						"slot": "0",
						"type": "t_address_payable"
					},
					{
						"astId": 332,
						"contract": "contracts-basic/week4.sol:_38",
						"label": "a",
						"offset": 0,
						"slot": "1",
						"type": "t_string_storage"
					}
				],
				"types": {
					"t_address_payable": {
						"encoding": "inplace",
						"label": "address payable",
						"numberOfBytes": "20"
					},
					"t_string_storage": {
						"encoding": "bytes",
						"label": "string",
						"numberOfBytes": "32"
					}
				}
			},
			"userdoc": {
				"kind": "user",
				"methods": {},
				"version": 1
			}
		}
	}
}