{
	"contracts-basic/week4.sol": {
		"_33": {
			"abi": [
				{
					"inputs": [
						{
							"internalType": "string",
							"name": "_name",
							"type": "string"
						}
					],
					"name": "getMemberByName",
					"outputs": [
						{
							"components": [
								{
									"internalType": "string",
									"name": "name",
									"type": "string"
								},
								{
									"internalType": "uint256",
									"name": "number",
									"type": "uint256"
								},
								{
									"internalType": "address",
									"name": "account",
									"type": "address"
								},
								{
									"internalType": "uint256",
									"name": "birth",
									"type": "uint256"
								}
							],
							"internalType": "struct _33.Member",
							"name": "",
							"type": "tuple"
						}
					],
					"stateMutability": "view",
					"type": "function"
				},
				{
					"inputs": [
						{
							"internalType": "string",
							"name": "_name",
							"type": "string"
						},
						{
							"internalType": "uint256",
							"name": "_number",
							"type": "uint256"
						},
						{
							"internalType": "uint256",
							"name": "_birth",
							"type": "uint256"
						}
					],
					"name": "setMember",
					"outputs": [],
					"stateMutability": "nonpayable",
					"type": "function"
				}
			],
			"devdoc": {
				"kind": "dev",
				"methods": {},
				"version": 1
			},
			"evm": {
				"assembly": "    /* \"contracts-basic/week4.sol\":474:939  contract _33 {... */\n  mstore(0x40, 0x80)\n  callvalue\n  dup1\n  iszero\n  tag_1\n  jumpi\n  0x00\n  dup1\n  revert\ntag_1:\n  pop\n  dataSize(sub_0)\n  dup1\n  dataOffset(sub_0)\n  0x00\n  codecopy\n  0x00\n  return\nstop\n\nsub_0: assembly {\n        /* \"contracts-basic/week4.sol\":474:939  contract _33 {... */\n      mstore(0x40, 0x80)\n      callvalue\n      dup1\n      iszero\n      tag_1\n      jumpi\n      0x00\n      dup1\n      revert\n    tag_1:\n      pop\n      jumpi(tag_2, lt(calldatasize, 0x04))\n      shr(0xe0, calldataload(0x00))\n      dup1\n      0x722459fd\n      eq\n      tag_3\n      jumpi\n      dup1\n      0x7f72e725\n      eq\n      tag_4\n      jumpi\n    tag_2:\n      0x00\n      dup1\n      revert\n        /* \"contracts-basic/week4.sol\":651:804  function setMember(string memory _name, uint _number, uint _birth) public {... */\n    tag_3:\n      tag_5\n      0x04\n      dup1\n      calldatasize\n      sub\n      dup2\n      add\n      swap1\n      tag_6\n      swap2\n      swap1\n      tag_7\n      jump\t// in\n    tag_6:\n      tag_8\n      jump\t// in\n    tag_5:\n      stop\n        /* \"contracts-basic/week4.sol\":814:936  function getMemberByName(string memory _name) public view returns(Member memory) {... */\n    tag_4:\n      tag_9\n      0x04\n      dup1\n      calldatasize\n      sub\n      dup2\n      add\n      swap1\n      tag_10\n      swap2\n      swap1\n      tag_11\n      jump\t// in\n    tag_10:\n      tag_12\n      jump\t// in\n    tag_9:\n      mload(0x40)\n      tag_13\n      swap2\n      swap1\n      tag_14\n      jump\t// in\n    tag_13:\n      mload(0x40)\n      dup1\n      swap2\n      sub\n      swap1\n      return\n        /* \"contracts-basic/week4.sol\":651:804  function setMember(string memory _name, uint _number, uint _birth) public {... */\n    tag_8:\n        /* \"contracts-basic/week4.sol\":755:797  Member(_name, _number, msg.sender, _birth) */\n      mload(0x40)\n      dup1\n      0x80\n      add\n      0x40\n      mstore\n      dup1\n        /* \"contracts-basic/week4.sol\":762:767  _name */\n      dup5\n        /* \"contracts-basic/week4.sol\":755:797  Member(_name, _number, msg.sender, _birth) */\n      dup2\n      mstore\n      0x20\n      add\n        /* \"contracts-basic/week4.sol\":769:776  _number */\n      dup4\n        /* \"contracts-basic/week4.sol\":755:797  Member(_name, _number, msg.sender, _birth) */\n      dup2\n      mstore\n      0x20\n      add\n        /* \"contracts-basic/week4.sol\":778:788  msg.sender */\n      caller\n        /* \"contracts-basic/week4.sol\":755:797  Member(_name, _number, msg.sender, _birth) */\n      0xffffffffffffffffffffffffffffffffffffffff\n      and\n      dup2\n      mstore\n      0x20\n      add\n        /* \"contracts-basic/week4.sol\":790:796  _birth */\n      dup3\n        /* \"contracts-basic/week4.sol\":755:797  Member(_name, _number, msg.sender, _birth) */\n      dup2\n      mstore\n      pop\n        /* \"contracts-basic/week4.sol\":735:745  nameSearch */\n      0x00\n        /* \"contracts-basic/week4.sol\":746:751  _name */\n      dup5\n        /* \"contracts-basic/week4.sol\":735:752  nameSearch[_name] */\n      mload(0x40)\n      tag_16\n      swap2\n      swap1\n      tag_17\n      jump\t// in\n    tag_16:\n      swap1\n      dup2\n      mstore\n      0x20\n      add\n      mload(0x40)\n      dup1\n      swap2\n      sub\n      swap1\n      keccak256\n        /* \"contracts-basic/week4.sol\":735:797  nameSearch[_name] = Member(_name, _number, msg.sender, _birth) */\n      0x00\n      dup3\n      add\n      mload\n      dup2\n      0x00\n      add\n      swap1\n      dup2\n      tag_18\n      swap2\n      swap1\n      tag_19\n      jump\t// in\n    tag_18:\n      pop\n      0x20\n      dup3\n      add\n      mload\n      dup2\n      0x01\n      add\n      sstore\n      0x40\n      dup3\n      add\n      mload\n      dup2\n      0x02\n      add\n      exp(0x0100, 0x00)\n      dup2\n      sload\n      dup2\n      0xffffffffffffffffffffffffffffffffffffffff\n      mul\n      not\n      and\n      swap1\n      dup4\n      0xffffffffffffffffffffffffffffffffffffffff\n      and\n      mul\n      or\n      swap1\n      sstore\n      pop\n      0x60\n      dup3\n      add\n      mload\n      dup2\n      0x03\n      add\n      sstore\n      swap1\n      pop\n      pop\n        /* \"contracts-basic/week4.sol\":651:804  function setMember(string memory _name, uint _number, uint _birth) public {... */\n      pop\n      pop\n      pop\n      jump\t// out\n        /* \"contracts-basic/week4.sol\":814:936  function getMemberByName(string memory _name) public view returns(Member memory) {... */\n    tag_12:\n        /* \"contracts-basic/week4.sol\":880:893  Member memory */\n      tag_20\n      tag_21\n      jump\t// in\n    tag_20:\n        /* \"contracts-basic/week4.sol\":912:922  nameSearch */\n      0x00\n        /* \"contracts-basic/week4.sol\":923:928  _name */\n      dup3\n        /* \"contracts-basic/week4.sol\":912:929  nameSearch[_name] */\n      mload(0x40)\n      tag_23\n      swap2\n      swap1\n      tag_17\n      jump\t// in\n    tag_23:\n      swap1\n      dup2\n      mstore\n      0x20\n      add\n      mload(0x40)\n      dup1\n      swap2\n      sub\n      swap1\n      keccak256\n        /* \"contracts-basic/week4.sol\":905:929  return nameSearch[_name] */\n      mload(0x40)\n      dup1\n      0x80\n      add\n      0x40\n      mstore\n      swap1\n      dup2\n      0x00\n      dup3\n      add\n      dup1\n      sload\n      tag_24\n      swap1\n      tag_25\n      jump\t// in\n    tag_24:\n      dup1\n      0x1f\n      add\n      0x20\n      dup1\n      swap2\n      div\n      mul\n      0x20\n      add\n      mload(0x40)\n      swap1\n      dup2\n      add\n      0x40\n      mstore\n      dup1\n      swap3\n      swap2\n      swap1\n      dup2\n      dup2\n      mstore\n      0x20\n      add\n      dup3\n      dup1\n      sload\n      tag_26\n      swap1\n      tag_25\n      jump\t// in\n    tag_26:\n      dup1\n      iszero\n      tag_27\n      jumpi\n      dup1\n      0x1f\n      lt\n      tag_28\n      jumpi\n      0x0100\n      dup1\n      dup4\n      sload\n      div\n      mul\n      dup4\n      mstore\n      swap2\n      0x20\n      add\n      swap2\n      jump(tag_27)\n    tag_28:\n      dup3\n      add\n      swap2\n      swap1\n      0x00\n      mstore\n      keccak256(0x00, 0x20)\n      swap1\n    tag_29:\n      dup2\n      sload\n      dup2\n      mstore\n      swap1\n      0x01\n      add\n      swap1\n      0x20\n      add\n      dup1\n      dup4\n      gt\n      tag_29\n      jumpi\n      dup3\n      swap1\n      sub\n      0x1f\n      and\n      dup3\n      add\n      swap2\n    tag_27:\n      pop\n      pop\n      pop\n      pop\n      pop\n      dup2\n      mstore\n      0x20\n      add\n      0x01\n      dup3\n      add\n      sload\n      dup2\n      mstore\n      0x20\n      add\n      0x02\n      dup3\n      add\n      0x00\n      swap1\n      sload\n      swap1\n      0x0100\n      exp\n      swap1\n      div\n      0xffffffffffffffffffffffffffffffffffffffff\n      and\n      0xffffffffffffffffffffffffffffffffffffffff\n      and\n      0xffffffffffffffffffffffffffffffffffffffff\n      and\n      dup2\n      mstore\n      0x20\n      add\n      0x03\n      dup3\n      add\n      sload\n      dup2\n      mstore\n      pop\n      pop\n      swap1\n      pop\n        /* \"contracts-basic/week4.sol\":814:936  function getMemberByName(string memory _name) public view returns(Member memory) {... */\n      swap2\n      swap1\n      pop\n      jump\t// out\n    tag_21:\n      mload(0x40)\n      dup1\n      0x80\n      add\n      0x40\n      mstore\n      dup1\n      0x60\n      dup2\n      mstore\n      0x20\n      add\n      0x00\n      dup2\n      mstore\n      0x20\n      add\n      and(0xffffffffffffffffffffffffffffffffffffffff, 0x00)\n      dup2\n      mstore\n      0x20\n      add\n      0x00\n      dup2\n      mstore\n      pop\n      swap1\n      jump\t// out\n        /* \"#utility.yul\":7:82   */\n    tag_30:\n        /* \"#utility.yul\":40:46   */\n      0x00\n        /* \"#utility.yul\":73:75   */\n      0x40\n        /* \"#utility.yul\":67:76   */\n      mload\n        /* \"#utility.yul\":57:76   */\n      swap1\n      pop\n        /* \"#utility.yul\":7:82   */\n      swap1\n      jump\t// out\n        /* \"#utility.yul\":88:205   */\n    tag_31:\n        /* \"#utility.yul\":197:198   */\n      0x00\n        /* \"#utility.yul\":194:195   */\n      dup1\n        /* \"#utility.yul\":187:199   */\n      revert\n        /* \"#utility.yul\":211:328   */\n    tag_32:\n        /* \"#utility.yul\":320:321   */\n      0x00\n        /* \"#utility.yul\":317:318   */\n      dup1\n        /* \"#utility.yul\":310:322   */\n      revert\n        /* \"#utility.yul\":334:451   */\n    tag_33:\n        /* \"#utility.yul\":443:444   */\n      0x00\n        /* \"#utility.yul\":440:441   */\n      dup1\n        /* \"#utility.yul\":433:445   */\n      revert\n        /* \"#utility.yul\":457:574   */\n    tag_34:\n        /* \"#utility.yul\":566:567   */\n      0x00\n        /* \"#utility.yul\":563:564   */\n      dup1\n        /* \"#utility.yul\":556:568   */\n      revert\n        /* \"#utility.yul\":580:682   */\n    tag_35:\n        /* \"#utility.yul\":621:627   */\n      0x00\n        /* \"#utility.yul\":672:674   */\n      0x1f\n        /* \"#utility.yul\":668:675   */\n      not\n        /* \"#utility.yul\":663:665   */\n      0x1f\n        /* \"#utility.yul\":656:661   */\n      dup4\n        /* \"#utility.yul\":652:666   */\n      add\n        /* \"#utility.yul\":648:676   */\n      and\n        /* \"#utility.yul\":638:676   */\n      swap1\n      pop\n        /* \"#utility.yul\":580:682   */\n      swap2\n      swap1\n      pop\n      jump\t// out\n        /* \"#utility.yul\":688:868   */\n    tag_36:\n        /* \"#utility.yul\":736:813   */\n      0x4e487b7100000000000000000000000000000000000000000000000000000000\n        /* \"#utility.yul\":733:734   */\n      0x00\n        /* \"#utility.yul\":726:814   */\n      mstore\n        /* \"#utility.yul\":833:837   */\n      0x41\n        /* \"#utility.yul\":830:831   */\n      0x04\n        /* \"#utility.yul\":823:838   */\n      mstore\n        /* \"#utility.yul\":857:861   */\n      0x24\n        /* \"#utility.yul\":854:855   */\n      0x00\n        /* \"#utility.yul\":847:862   */\n      revert\n        /* \"#utility.yul\":874:1155   */\n    tag_37:\n        /* \"#utility.yul\":957:984   */\n      tag_82\n        /* \"#utility.yul\":979:983   */\n      dup3\n        /* \"#utility.yul\":957:984   */\n      tag_35\n      jump\t// in\n    tag_82:\n        /* \"#utility.yul\":949:955   */\n      dup2\n        /* \"#utility.yul\":945:985   */\n      add\n        /* \"#utility.yul\":1087:1093   */\n      dup2\n        /* \"#utility.yul\":1075:1085   */\n      dup2\n        /* \"#utility.yul\":1072:1094   */\n      lt\n        /* \"#utility.yul\":1051:1069   */\n      0xffffffffffffffff\n        /* \"#utility.yul\":1039:1049   */\n      dup3\n        /* \"#utility.yul\":1036:1070   */\n      gt\n        /* \"#utility.yul\":1033:1095   */\n      or\n        /* \"#utility.yul\":1030:1118   */\n      iszero\n      tag_83\n      jumpi\n        /* \"#utility.yul\":1098:1116   */\n      tag_84\n      tag_36\n      jump\t// in\n    tag_84:\n        /* \"#utility.yul\":1030:1118   */\n    tag_83:\n        /* \"#utility.yul\":1138:1148   */\n      dup1\n        /* \"#utility.yul\":1134:1136   */\n      0x40\n        /* \"#utility.yul\":1127:1149   */\n      mstore\n        /* \"#utility.yul\":917:1155   */\n      pop\n        /* \"#utility.yul\":874:1155   */\n      pop\n      pop\n      jump\t// out\n        /* \"#utility.yul\":1161:1290   */\n    tag_38:\n        /* \"#utility.yul\":1195:1201   */\n      0x00\n        /* \"#utility.yul\":1222:1242   */\n      tag_86\n      tag_30\n      jump\t// in\n    tag_86:\n        /* \"#utility.yul\":1212:1242   */\n      swap1\n      pop\n        /* \"#utility.yul\":1251:1284   */\n      tag_87\n        /* \"#utility.yul\":1279:1283   */\n      dup3\n        /* \"#utility.yul\":1271:1277   */\n      dup3\n        /* \"#utility.yul\":1251:1284   */\n      tag_37\n      jump\t// in\n    tag_87:\n        /* \"#utility.yul\":1161:1290   */\n      swap2\n      swap1\n      pop\n      jump\t// out\n        /* \"#utility.yul\":1296:1604   */\n    tag_39:\n        /* \"#utility.yul\":1358:1362   */\n      0x00\n        /* \"#utility.yul\":1448:1466   */\n      0xffffffffffffffff\n        /* \"#utility.yul\":1440:1446   */\n      dup3\n        /* \"#utility.yul\":1437:1467   */\n      gt\n        /* \"#utility.yul\":1434:1490   */\n      iszero\n      tag_89\n      jumpi\n        /* \"#utility.yul\":1470:1488   */\n      tag_90\n      tag_36\n      jump\t// in\n    tag_90:\n        /* \"#utility.yul\":1434:1490   */\n    tag_89:\n        /* \"#utility.yul\":1508:1537   */\n      tag_91\n        /* \"#utility.yul\":1530:1536   */\n      dup3\n        /* \"#utility.yul\":1508:1537   */\n      tag_35\n      jump\t// in\n    tag_91:\n        /* \"#utility.yul\":1500:1537   */\n      swap1\n      pop\n        /* \"#utility.yul\":1592:1596   */\n      0x20\n        /* \"#utility.yul\":1586:1590   */\n      dup2\n        /* \"#utility.yul\":1582:1597   */\n      add\n        /* \"#utility.yul\":1574:1597   */\n      swap1\n      pop\n        /* \"#utility.yul\":1296:1604   */\n      swap2\n      swap1\n      pop\n      jump\t// out\n        /* \"#utility.yul\":1610:1756   */\n    tag_40:\n        /* \"#utility.yul\":1707:1713   */\n      dup3\n        /* \"#utility.yul\":1702:1705   */\n      dup2\n        /* \"#utility.yul\":1697:1700   */\n      dup4\n        /* \"#utility.yul\":1684:1714   */\n      calldatacopy\n        /* \"#utility.yul\":1748:1749   */\n      0x00\n        /* \"#utility.yul\":1739:1745   */\n      dup4\n        /* \"#utility.yul\":1734:1737   */\n      dup4\n        /* \"#utility.yul\":1730:1746   */\n      add\n        /* \"#utility.yul\":1723:1750   */\n      mstore\n        /* \"#utility.yul\":1610:1756   */\n      pop\n      pop\n      pop\n      jump\t// out\n        /* \"#utility.yul\":1762:2187   */\n    tag_41:\n        /* \"#utility.yul\":1840:1845   */\n      0x00\n        /* \"#utility.yul\":1865:1931   */\n      tag_94\n        /* \"#utility.yul\":1881:1930   */\n      tag_95\n        /* \"#utility.yul\":1923:1929   */\n      dup5\n        /* \"#utility.yul\":1881:1930   */\n      tag_39\n      jump\t// in\n    tag_95:\n        /* \"#utility.yul\":1865:1931   */\n      tag_38\n      jump\t// in\n    tag_94:\n        /* \"#utility.yul\":1856:1931   */\n      swap1\n      pop\n        /* \"#utility.yul\":1954:1960   */\n      dup3\n        /* \"#utility.yul\":1947:1952   */\n      dup2\n        /* \"#utility.yul\":1940:1961   */\n      mstore\n        /* \"#utility.yul\":1992:1996   */\n      0x20\n        /* \"#utility.yul\":1985:1990   */\n      dup2\n        /* \"#utility.yul\":1981:1997   */\n      add\n        /* \"#utility.yul\":2030:2033   */\n      dup5\n        /* \"#utility.yul\":2021:2027   */\n      dup5\n        /* \"#utility.yul\":2016:2019   */\n      dup5\n        /* \"#utility.yul\":2012:2028   */\n      add\n        /* \"#utility.yul\":2009:2034   */\n      gt\n        /* \"#utility.yul\":2006:2118   */\n      iszero\n      tag_96\n      jumpi\n        /* \"#utility.yul\":2037:2116   */\n      tag_97\n      tag_34\n      jump\t// in\n    tag_97:\n        /* \"#utility.yul\":2006:2118   */\n    tag_96:\n        /* \"#utility.yul\":2127:2181   */\n      tag_98\n        /* \"#utility.yul\":2174:2180   */\n      dup5\n        /* \"#utility.yul\":2169:2172   */\n      dup3\n        /* \"#utility.yul\":2164:2167   */\n      dup6\n        /* \"#utility.yul\":2127:2181   */\n      tag_40\n      jump\t// in\n    tag_98:\n        /* \"#utility.yul\":1846:2187   */\n      pop\n        /* \"#utility.yul\":1762:2187   */\n      swap4\n      swap3\n      pop\n      pop\n      pop\n      jump\t// out\n        /* \"#utility.yul\":2207:2547   */\n    tag_42:\n        /* \"#utility.yul\":2263:2268   */\n      0x00\n        /* \"#utility.yul\":2312:2315   */\n      dup3\n        /* \"#utility.yul\":2305:2309   */\n      0x1f\n        /* \"#utility.yul\":2297:2303   */\n      dup4\n        /* \"#utility.yul\":2293:2310   */\n      add\n        /* \"#utility.yul\":2289:2316   */\n      slt\n        /* \"#utility.yul\":2279:2401   */\n      tag_100\n      jumpi\n        /* \"#utility.yul\":2320:2399   */\n      tag_101\n      tag_33\n      jump\t// in\n    tag_101:\n        /* \"#utility.yul\":2279:2401   */\n    tag_100:\n        /* \"#utility.yul\":2437:2443   */\n      dup2\n        /* \"#utility.yul\":2424:2444   */\n      calldataload\n        /* \"#utility.yul\":2462:2541   */\n      tag_102\n        /* \"#utility.yul\":2537:2540   */\n      dup5\n        /* \"#utility.yul\":2529:2535   */\n      dup3\n        /* \"#utility.yul\":2522:2526   */\n      0x20\n        /* \"#utility.yul\":2514:2520   */\n      dup7\n        /* \"#utility.yul\":2510:2527   */\n      add\n        /* \"#utility.yul\":2462:2541   */\n      tag_41\n      jump\t// in\n    tag_102:\n        /* \"#utility.yul\":2453:2541   */\n      swap2\n      pop\n        /* \"#utility.yul\":2269:2547   */\n      pop\n        /* \"#utility.yul\":2207:2547   */\n      swap3\n      swap2\n      pop\n      pop\n      jump\t// out\n        /* \"#utility.yul\":2553:2630   */\n    tag_43:\n        /* \"#utility.yul\":2590:2597   */\n      0x00\n        /* \"#utility.yul\":2619:2624   */\n      dup2\n        /* \"#utility.yul\":2608:2624   */\n      swap1\n      pop\n        /* \"#utility.yul\":2553:2630   */\n      swap2\n      swap1\n      pop\n      jump\t// out\n        /* \"#utility.yul\":2636:2758   */\n    tag_44:\n        /* \"#utility.yul\":2709:2733   */\n      tag_105\n        /* \"#utility.yul\":2727:2732   */\n      dup2\n        /* \"#utility.yul\":2709:2733   */\n      tag_43\n      jump\t// in\n    tag_105:\n        /* \"#utility.yul\":2702:2707   */\n      dup2\n        /* \"#utility.yul\":2699:2734   */\n      eq\n        /* \"#utility.yul\":2689:2752   */\n      tag_106\n      jumpi\n        /* \"#utility.yul\":2748:2749   */\n      0x00\n        /* \"#utility.yul\":2745:2746   */\n      dup1\n        /* \"#utility.yul\":2738:2750   */\n      revert\n        /* \"#utility.yul\":2689:2752   */\n    tag_106:\n        /* \"#utility.yul\":2636:2758   */\n      pop\n      jump\t// out\n        /* \"#utility.yul\":2764:2903   */\n    tag_45:\n        /* \"#utility.yul\":2810:2815   */\n      0x00\n        /* \"#utility.yul\":2848:2854   */\n      dup2\n        /* \"#utility.yul\":2835:2855   */\n      calldataload\n        /* \"#utility.yul\":2826:2855   */\n      swap1\n      pop\n        /* \"#utility.yul\":2864:2897   */\n      tag_108\n        /* \"#utility.yul\":2891:2896   */\n      dup2\n        /* \"#utility.yul\":2864:2897   */\n      tag_44\n      jump\t// in\n    tag_108:\n        /* \"#utility.yul\":2764:2903   */\n      swap3\n      swap2\n      pop\n      pop\n      jump\t// out\n        /* \"#utility.yul\":2909:3708   */\n    tag_7:\n        /* \"#utility.yul\":2996:3002   */\n      0x00\n        /* \"#utility.yul\":3004:3010   */\n      dup1\n        /* \"#utility.yul\":3012:3018   */\n      0x00\n        /* \"#utility.yul\":3061:3063   */\n      0x60\n        /* \"#utility.yul\":3049:3058   */\n      dup5\n        /* \"#utility.yul\":3040:3047   */\n      dup7\n        /* \"#utility.yul\":3036:3059   */\n      sub\n        /* \"#utility.yul\":3032:3064   */\n      slt\n        /* \"#utility.yul\":3029:3148   */\n      iszero\n      tag_110\n      jumpi\n        /* \"#utility.yul\":3067:3146   */\n      tag_111\n      tag_31\n      jump\t// in\n    tag_111:\n        /* \"#utility.yul\":3029:3148   */\n    tag_110:\n        /* \"#utility.yul\":3215:3216   */\n      0x00\n        /* \"#utility.yul\":3204:3213   */\n      dup5\n        /* \"#utility.yul\":3200:3217   */\n      add\n        /* \"#utility.yul\":3187:3218   */\n      calldataload\n        /* \"#utility.yul\":3245:3263   */\n      0xffffffffffffffff\n        /* \"#utility.yul\":3237:3243   */\n      dup2\n        /* \"#utility.yul\":3234:3264   */\n      gt\n        /* \"#utility.yul\":3231:3348   */\n      iszero\n      tag_112\n      jumpi\n        /* \"#utility.yul\":3267:3346   */\n      tag_113\n      tag_32\n      jump\t// in\n    tag_113:\n        /* \"#utility.yul\":3231:3348   */\n    tag_112:\n        /* \"#utility.yul\":3372:3435   */\n      tag_114\n        /* \"#utility.yul\":3427:3434   */\n      dup7\n        /* \"#utility.yul\":3418:3424   */\n      dup3\n        /* \"#utility.yul\":3407:3416   */\n      dup8\n        /* \"#utility.yul\":3403:3425   */\n      add\n        /* \"#utility.yul\":3372:3435   */\n      tag_42\n      jump\t// in\n    tag_114:\n        /* \"#utility.yul\":3362:3435   */\n      swap4\n      pop\n        /* \"#utility.yul\":3158:3445   */\n      pop\n        /* \"#utility.yul\":3484:3486   */\n      0x20\n        /* \"#utility.yul\":3510:3563   */\n      tag_115\n        /* \"#utility.yul\":3555:3562   */\n      dup7\n        /* \"#utility.yul\":3546:3552   */\n      dup3\n        /* \"#utility.yul\":3535:3544   */\n      dup8\n        /* \"#utility.yul\":3531:3553   */\n      add\n        /* \"#utility.yul\":3510:3563   */\n      tag_45\n      jump\t// in\n    tag_115:\n        /* \"#utility.yul\":3500:3563   */\n      swap3\n      pop\n        /* \"#utility.yul\":3455:3573   */\n      pop\n        /* \"#utility.yul\":3612:3614   */\n      0x40\n        /* \"#utility.yul\":3638:3691   */\n      tag_116\n        /* \"#utility.yul\":3683:3690   */\n      dup7\n        /* \"#utility.yul\":3674:3680   */\n      dup3\n        /* \"#utility.yul\":3663:3672   */\n      dup8\n        /* \"#utility.yul\":3659:3681   */\n      add\n        /* \"#utility.yul\":3638:3691   */\n      tag_45\n      jump\t// in\n    tag_116:\n        /* \"#utility.yul\":3628:3691   */\n      swap2\n      pop\n        /* \"#utility.yul\":3583:3701   */\n      pop\n        /* \"#utility.yul\":2909:3708   */\n      swap3\n      pop\n      swap3\n      pop\n      swap3\n      jump\t// out\n        /* \"#utility.yul\":3714:4223   */\n    tag_11:\n        /* \"#utility.yul\":3783:3789   */\n      0x00\n        /* \"#utility.yul\":3832:3834   */\n      0x20\n        /* \"#utility.yul\":3820:3829   */\n      dup3\n        /* \"#utility.yul\":3811:3818   */\n      dup5\n        /* \"#utility.yul\":3807:3830   */\n      sub\n        /* \"#utility.yul\":3803:3835   */\n      slt\n        /* \"#utility.yul\":3800:3919   */\n      iszero\n      tag_118\n      jumpi\n        /* \"#utility.yul\":3838:3917   */\n      tag_119\n      tag_31\n      jump\t// in\n    tag_119:\n        /* \"#utility.yul\":3800:3919   */\n    tag_118:\n        /* \"#utility.yul\":3986:3987   */\n      0x00\n        /* \"#utility.yul\":3975:3984   */\n      dup3\n        /* \"#utility.yul\":3971:3988   */\n      add\n        /* \"#utility.yul\":3958:3989   */\n      calldataload\n        /* \"#utility.yul\":4016:4034   */\n      0xffffffffffffffff\n        /* \"#utility.yul\":4008:4014   */\n      dup2\n        /* \"#utility.yul\":4005:4035   */\n      gt\n        /* \"#utility.yul\":4002:4119   */\n      iszero\n      tag_120\n      jumpi\n        /* \"#utility.yul\":4038:4117   */\n      tag_121\n      tag_32\n      jump\t// in\n    tag_121:\n        /* \"#utility.yul\":4002:4119   */\n    tag_120:\n        /* \"#utility.yul\":4143:4206   */\n      tag_122\n        /* \"#utility.yul\":4198:4205   */\n      dup5\n        /* \"#utility.yul\":4189:4195   */\n      dup3\n        /* \"#utility.yul\":4178:4187   */\n      dup6\n        /* \"#utility.yul\":4174:4196   */\n      add\n        /* \"#utility.yul\":4143:4206   */\n      tag_42\n      jump\t// in\n    tag_122:\n        /* \"#utility.yul\":4133:4206   */\n      swap2\n      pop\n        /* \"#utility.yul\":3929:4216   */\n      pop\n        /* \"#utility.yul\":3714:4223   */\n      swap3\n      swap2\n      pop\n      pop\n      jump\t// out\n        /* \"#utility.yul\":4229:4328   */\n    tag_46:\n        /* \"#utility.yul\":4281:4287   */\n      0x00\n        /* \"#utility.yul\":4315:4320   */\n      dup2\n        /* \"#utility.yul\":4309:4321   */\n      mload\n        /* \"#utility.yul\":4299:4321   */\n      swap1\n      pop\n        /* \"#utility.yul\":4229:4328   */\n      swap2\n      swap1\n      pop\n      jump\t// out\n        /* \"#utility.yul\":4334:4493   */\n    tag_47:\n        /* \"#utility.yul\":4408:4419   */\n      0x00\n        /* \"#utility.yul\":4442:4448   */\n      dup3\n        /* \"#utility.yul\":4437:4440   */\n      dup3\n        /* \"#utility.yul\":4430:4449   */\n      mstore\n        /* \"#utility.yul\":4482:4486   */\n      0x20\n        /* \"#utility.yul\":4477:4480   */\n      dup3\n        /* \"#utility.yul\":4473:4487   */\n      add\n        /* \"#utility.yul\":4458:4487   */\n      swap1\n      pop\n        /* \"#utility.yul\":4334:4493   */\n      swap3\n      swap2\n      pop\n      pop\n      jump\t// out\n        /* \"#utility.yul\":4499:4745   */\n    tag_48:\n        /* \"#utility.yul\":4580:4581   */\n      0x00\n        /* \"#utility.yul\":4590:4703   */\n    tag_126:\n        /* \"#utility.yul\":4604:4610   */\n      dup4\n        /* \"#utility.yul\":4601:4602   */\n      dup2\n        /* \"#utility.yul\":4598:4611   */\n      lt\n        /* \"#utility.yul\":4590:4703   */\n      iszero\n      tag_128\n      jumpi\n        /* \"#utility.yul\":4689:4690   */\n      dup1\n        /* \"#utility.yul\":4684:4687   */\n      dup3\n        /* \"#utility.yul\":4680:4691   */\n      add\n        /* \"#utility.yul\":4674:4692   */\n      mload\n        /* \"#utility.yul\":4670:4671   */\n      dup2\n        /* \"#utility.yul\":4665:4668   */\n      dup5\n        /* \"#utility.yul\":4661:4672   */\n      add\n        /* \"#utility.yul\":4654:4693   */\n      mstore\n        /* \"#utility.yul\":4626:4628   */\n      0x20\n        /* \"#utility.yul\":4623:4624   */\n      dup2\n        /* \"#utility.yul\":4619:4629   */\n      add\n        /* \"#utility.yul\":4614:4629   */\n      swap1\n      pop\n        /* \"#utility.yul\":4590:4703   */\n      jump(tag_126)\n    tag_128:\n        /* \"#utility.yul\":4737:4738   */\n      0x00\n        /* \"#utility.yul\":4728:4734   */\n      dup5\n        /* \"#utility.yul\":4723:4726   */\n      dup5\n        /* \"#utility.yul\":4719:4735   */\n      add\n        /* \"#utility.yul\":4712:4739   */\n      mstore\n        /* \"#utility.yul\":4561:4745   */\n      pop\n        /* \"#utility.yul\":4499:4745   */\n      pop\n      pop\n      pop\n      jump\t// out\n        /* \"#utility.yul\":4751:5108   */\n    tag_49:\n        /* \"#utility.yul\":4829:4832   */\n      0x00\n        /* \"#utility.yul\":4857:4896   */\n      tag_130\n        /* \"#utility.yul\":4890:4895   */\n      dup3\n        /* \"#utility.yul\":4857:4896   */\n      tag_46\n      jump\t// in\n    tag_130:\n        /* \"#utility.yul\":4912:4973   */\n      tag_131\n        /* \"#utility.yul\":4966:4972   */\n      dup2\n        /* \"#utility.yul\":4961:4964   */\n      dup6\n        /* \"#utility.yul\":4912:4973   */\n      tag_47\n      jump\t// in\n    tag_131:\n        /* \"#utility.yul\":4905:4973   */\n      swap4\n      pop\n        /* \"#utility.yul\":4982:5047   */\n      tag_132\n        /* \"#utility.yul\":5040:5046   */\n      dup2\n        /* \"#utility.yul\":5035:5038   */\n      dup6\n        /* \"#utility.yul\":5028:5032   */\n      0x20\n        /* \"#utility.yul\":5021:5026   */\n      dup7\n        /* \"#utility.yul\":5017:5033   */\n      add\n        /* \"#utility.yul\":4982:5047   */\n      tag_48\n      jump\t// in\n    tag_132:\n        /* \"#utility.yul\":5072:5101   */\n      tag_133\n        /* \"#utility.yul\":5094:5100   */\n      dup2\n        /* \"#utility.yul\":5072:5101   */\n      tag_35\n      jump\t// in\n    tag_133:\n        /* \"#utility.yul\":5067:5070   */\n      dup5\n        /* \"#utility.yul\":5063:5102   */\n      add\n        /* \"#utility.yul\":5056:5102   */\n      swap2\n      pop\n        /* \"#utility.yul\":4833:5108   */\n      pop\n        /* \"#utility.yul\":4751:5108   */\n      swap3\n      swap2\n      pop\n      pop\n      jump\t// out\n        /* \"#utility.yul\":5114:5222   */\n    tag_50:\n        /* \"#utility.yul\":5191:5215   */\n      tag_135\n        /* \"#utility.yul\":5209:5214   */\n      dup2\n        /* \"#utility.yul\":5191:5215   */\n      tag_43\n      jump\t// in\n    tag_135:\n        /* \"#utility.yul\":5186:5189   */\n      dup3\n        /* \"#utility.yul\":5179:5216   */\n      mstore\n        /* \"#utility.yul\":5114:5222   */\n      pop\n      pop\n      jump\t// out\n        /* \"#utility.yul\":5228:5354   */\n    tag_51:\n        /* \"#utility.yul\":5265:5272   */\n      0x00\n        /* \"#utility.yul\":5305:5347   */\n      0xffffffffffffffffffffffffffffffffffffffff\n        /* \"#utility.yul\":5298:5303   */\n      dup3\n        /* \"#utility.yul\":5294:5348   */\n      and\n        /* \"#utility.yul\":5283:5348   */\n      swap1\n      pop\n        /* \"#utility.yul\":5228:5354   */\n      swap2\n      swap1\n      pop\n      jump\t// out\n        /* \"#utility.yul\":5360:5456   */\n    tag_52:\n        /* \"#utility.yul\":5397:5404   */\n      0x00\n        /* \"#utility.yul\":5426:5450   */\n      tag_138\n        /* \"#utility.yul\":5444:5449   */\n      dup3\n        /* \"#utility.yul\":5426:5450   */\n      tag_51\n      jump\t// in\n    tag_138:\n        /* \"#utility.yul\":5415:5450   */\n      swap1\n      pop\n        /* \"#utility.yul\":5360:5456   */\n      swap2\n      swap1\n      pop\n      jump\t// out\n        /* \"#utility.yul\":5462:5570   */\n    tag_53:\n        /* \"#utility.yul\":5539:5563   */\n      tag_140\n        /* \"#utility.yul\":5557:5562   */\n      dup2\n        /* \"#utility.yul\":5539:5563   */\n      tag_52\n      jump\t// in\n    tag_140:\n        /* \"#utility.yul\":5534:5537   */\n      dup3\n        /* \"#utility.yul\":5527:5564   */\n      mstore\n        /* \"#utility.yul\":5462:5570   */\n      pop\n      pop\n      jump\t// out\n        /* \"#utility.yul\":5622:6576   */\n    tag_54:\n        /* \"#utility.yul\":5735:5738   */\n      0x00\n        /* \"#utility.yul\":5771:5775   */\n      0x80\n        /* \"#utility.yul\":5766:5769   */\n      dup4\n        /* \"#utility.yul\":5762:5776   */\n      add\n        /* \"#utility.yul\":5858:5862   */\n      0x00\n        /* \"#utility.yul\":5851:5856   */\n      dup4\n        /* \"#utility.yul\":5847:5863   */\n      add\n        /* \"#utility.yul\":5841:5864   */\n      mload\n        /* \"#utility.yul\":5911:5914   */\n      dup5\n        /* \"#utility.yul\":5905:5909   */\n      dup3\n        /* \"#utility.yul\":5901:5915   */\n      sub\n        /* \"#utility.yul\":5894:5898   */\n      0x00\n        /* \"#utility.yul\":5889:5892   */\n      dup7\n        /* \"#utility.yul\":5885:5899   */\n      add\n        /* \"#utility.yul\":5878:5916   */\n      mstore\n        /* \"#utility.yul\":5937:6010   */\n      tag_142\n        /* \"#utility.yul\":6005:6009   */\n      dup3\n        /* \"#utility.yul\":5991:6003   */\n      dup3\n        /* \"#utility.yul\":5937:6010   */\n      tag_49\n      jump\t// in\n    tag_142:\n        /* \"#utility.yul\":5929:6010   */\n      swap2\n      pop\n        /* \"#utility.yul\":5786:6021   */\n      pop\n        /* \"#utility.yul\":6105:6109   */\n      0x20\n        /* \"#utility.yul\":6098:6103   */\n      dup4\n        /* \"#utility.yul\":6094:6110   */\n      add\n        /* \"#utility.yul\":6088:6111   */\n      mload\n        /* \"#utility.yul\":6124:6187   */\n      tag_143\n        /* \"#utility.yul\":6181:6185   */\n      0x20\n        /* \"#utility.yul\":6176:6179   */\n      dup7\n        /* \"#utility.yul\":6172:6186   */\n      add\n        /* \"#utility.yul\":6158:6170   */\n      dup3\n        /* \"#utility.yul\":6124:6187   */\n      tag_50\n      jump\t// in\n    tag_143:\n        /* \"#utility.yul\":6031:6197   */\n      pop\n        /* \"#utility.yul\":6282:6286   */\n      0x40\n        /* \"#utility.yul\":6275:6280   */\n      dup4\n        /* \"#utility.yul\":6271:6287   */\n      add\n        /* \"#utility.yul\":6265:6288   */\n      mload\n        /* \"#utility.yul\":6301:6364   */\n      tag_144\n        /* \"#utility.yul\":6358:6362   */\n      0x40\n        /* \"#utility.yul\":6353:6356   */\n      dup7\n        /* \"#utility.yul\":6349:6363   */\n      add\n        /* \"#utility.yul\":6335:6347   */\n      dup3\n        /* \"#utility.yul\":6301:6364   */\n      tag_53\n      jump\t// in\n    tag_144:\n        /* \"#utility.yul\":6207:6374   */\n      pop\n        /* \"#utility.yul\":6457:6461   */\n      0x60\n        /* \"#utility.yul\":6450:6455   */\n      dup4\n        /* \"#utility.yul\":6446:6462   */\n      add\n        /* \"#utility.yul\":6440:6463   */\n      mload\n        /* \"#utility.yul\":6476:6539   */\n      tag_145\n        /* \"#utility.yul\":6533:6537   */\n      0x60\n        /* \"#utility.yul\":6528:6531   */\n      dup7\n        /* \"#utility.yul\":6524:6538   */\n      add\n        /* \"#utility.yul\":6510:6522   */\n      dup3\n        /* \"#utility.yul\":6476:6539   */\n      tag_50\n      jump\t// in\n    tag_145:\n        /* \"#utility.yul\":6384:6549   */\n      pop\n        /* \"#utility.yul\":6566:6570   */\n      dup1\n        /* \"#utility.yul\":6559:6570   */\n      swap2\n      pop\n        /* \"#utility.yul\":5740:6576   */\n      pop\n        /* \"#utility.yul\":5622:6576   */\n      swap3\n      swap2\n      pop\n      pop\n      jump\t// out\n        /* \"#utility.yul\":6582:6943   */\n    tag_14:\n        /* \"#utility.yul\":6719:6723   */\n      0x00\n        /* \"#utility.yul\":6757:6759   */\n      0x20\n        /* \"#utility.yul\":6746:6755   */\n      dup3\n        /* \"#utility.yul\":6742:6760   */\n      add\n        /* \"#utility.yul\":6734:6760   */\n      swap1\n      pop\n        /* \"#utility.yul\":6806:6815   */\n      dup2\n        /* \"#utility.yul\":6800:6804   */\n      dup2\n        /* \"#utility.yul\":6796:6816   */\n      sub\n        /* \"#utility.yul\":6792:6793   */\n      0x00\n        /* \"#utility.yul\":6781:6790   */\n      dup4\n        /* \"#utility.yul\":6777:6794   */\n      add\n        /* \"#utility.yul\":6770:6817   */\n      mstore\n        /* \"#utility.yul\":6834:6936   */\n      tag_147\n        /* \"#utility.yul\":6931:6935   */\n      dup2\n        /* \"#utility.yul\":6922:6928   */\n      dup5\n        /* \"#utility.yul\":6834:6936   */\n      tag_54\n      jump\t// in\n    tag_147:\n        /* \"#utility.yul\":6826:6936   */\n      swap1\n      pop\n        /* \"#utility.yul\":6582:6943   */\n      swap3\n      swap2\n      pop\n      pop\n      jump\t// out\n        /* \"#utility.yul\":6949:7097   */\n    tag_55:\n        /* \"#utility.yul\":7051:7062   */\n      0x00\n        /* \"#utility.yul\":7088:7091   */\n      dup2\n        /* \"#utility.yul\":7073:7091   */\n      swap1\n      pop\n        /* \"#utility.yul\":6949:7097   */\n      swap3\n      swap2\n      pop\n      pop\n      jump\t// out\n        /* \"#utility.yul\":7103:7493   */\n    tag_56:\n        /* \"#utility.yul\":7209:7212   */\n      0x00\n        /* \"#utility.yul\":7237:7276   */\n      tag_150\n        /* \"#utility.yul\":7270:7275   */\n      dup3\n        /* \"#utility.yul\":7237:7276   */\n      tag_46\n      jump\t// in\n    tag_150:\n        /* \"#utility.yul\":7292:7381   */\n      tag_151\n        /* \"#utility.yul\":7374:7380   */\n      dup2\n        /* \"#utility.yul\":7369:7372   */\n      dup6\n        /* \"#utility.yul\":7292:7381   */\n      tag_55\n      jump\t// in\n    tag_151:\n        /* \"#utility.yul\":7285:7381   */\n      swap4\n      pop\n        /* \"#utility.yul\":7390:7455   */\n      tag_152\n        /* \"#utility.yul\":7448:7454   */\n      dup2\n        /* \"#utility.yul\":7443:7446   */\n      dup6\n        /* \"#utility.yul\":7436:7440   */\n      0x20\n        /* \"#utility.yul\":7429:7434   */\n      dup7\n        /* \"#utility.yul\":7425:7441   */\n      add\n        /* \"#utility.yul\":7390:7455   */\n      tag_48\n      jump\t// in\n    tag_152:\n        /* \"#utility.yul\":7480:7486   */\n      dup1\n        /* \"#utility.yul\":7475:7478   */\n      dup5\n        /* \"#utility.yul\":7471:7487   */\n      add\n        /* \"#utility.yul\":7464:7487   */\n      swap2\n      pop\n        /* \"#utility.yul\":7213:7493   */\n      pop\n        /* \"#utility.yul\":7103:7493   */\n      swap3\n      swap2\n      pop\n      pop\n      jump\t// out\n        /* \"#utility.yul\":7499:7774   */\n    tag_17:\n        /* \"#utility.yul\":7631:7634   */\n      0x00\n        /* \"#utility.yul\":7653:7748   */\n      tag_154\n        /* \"#utility.yul\":7744:7747   */\n      dup3\n        /* \"#utility.yul\":7735:7741   */\n      dup5\n        /* \"#utility.yul\":7653:7748   */\n      tag_56\n      jump\t// in\n    tag_154:\n        /* \"#utility.yul\":7646:7748   */\n      swap2\n      pop\n        /* \"#utility.yul\":7765:7768   */\n      dup2\n        /* \"#utility.yul\":7758:7768   */\n      swap1\n      pop\n        /* \"#utility.yul\":7499:7774   */\n      swap3\n      swap2\n      pop\n      pop\n      jump\t// out\n        /* \"#utility.yul\":7780:7960   */\n    tag_57:\n        /* \"#utility.yul\":7828:7905   */\n      0x4e487b7100000000000000000000000000000000000000000000000000000000\n        /* \"#utility.yul\":7825:7826   */\n      0x00\n        /* \"#utility.yul\":7818:7906   */\n      mstore\n        /* \"#utility.yul\":7925:7929   */\n      0x22\n        /* \"#utility.yul\":7922:7923   */\n      0x04\n        /* \"#utility.yul\":7915:7930   */\n      mstore\n        /* \"#utility.yul\":7949:7953   */\n      0x24\n        /* \"#utility.yul\":7946:7947   */\n      0x00\n        /* \"#utility.yul\":7939:7954   */\n      revert\n        /* \"#utility.yul\":7966:8286   */\n    tag_25:\n        /* \"#utility.yul\":8010:8016   */\n      0x00\n        /* \"#utility.yul\":8047:8048   */\n      0x02\n        /* \"#utility.yul\":8041:8045   */\n      dup3\n        /* \"#utility.yul\":8037:8049   */\n      div\n        /* \"#utility.yul\":8027:8049   */\n      swap1\n      pop\n        /* \"#utility.yul\":8094:8095   */\n      0x01\n        /* \"#utility.yul\":8088:8092   */\n      dup3\n        /* \"#utility.yul\":8084:8096   */\n      and\n        /* \"#utility.yul\":8115:8133   */\n      dup1\n        /* \"#utility.yul\":8105:8186   */\n      tag_157\n      jumpi\n        /* \"#utility.yul\":8171:8175   */\n      0x7f\n        /* \"#utility.yul\":8163:8169   */\n      dup3\n        /* \"#utility.yul\":8159:8176   */\n      and\n        /* \"#utility.yul\":8149:8176   */\n      swap2\n      pop\n        /* \"#utility.yul\":8105:8186   */\n    tag_157:\n        /* \"#utility.yul\":8233:8235   */\n      0x20\n        /* \"#utility.yul\":8225:8231   */\n      dup3\n        /* \"#utility.yul\":8222:8236   */\n      lt\n        /* \"#utility.yul\":8202:8220   */\n      dup2\n        /* \"#utility.yul\":8199:8237   */\n      sub\n        /* \"#utility.yul\":8196:8280   */\n      tag_158\n      jumpi\n        /* \"#utility.yul\":8252:8270   */\n      tag_159\n      tag_57\n      jump\t// in\n    tag_159:\n        /* \"#utility.yul\":8196:8280   */\n    tag_158:\n        /* \"#utility.yul\":8017:8286   */\n      pop\n        /* \"#utility.yul\":7966:8286   */\n      swap2\n      swap1\n      pop\n      jump\t// out\n        /* \"#utility.yul\":8292:8433   */\n    tag_58:\n        /* \"#utility.yul\":8341:8345   */\n      0x00\n        /* \"#utility.yul\":8364:8367   */\n      dup2\n        /* \"#utility.yul\":8356:8367   */\n      swap1\n      pop\n        /* \"#utility.yul\":8387:8390   */\n      dup2\n        /* \"#utility.yul\":8384:8385   */\n      0x00\n        /* \"#utility.yul\":8377:8391   */\n      mstore\n        /* \"#utility.yul\":8421:8425   */\n      0x20\n        /* \"#utility.yul\":8418:8419   */\n      0x00\n        /* \"#utility.yul\":8408:8426   */\n      keccak256\n        /* \"#utility.yul\":8400:8426   */\n      swap1\n      pop\n        /* \"#utility.yul\":8292:8433   */\n      swap2\n      swap1\n      pop\n      jump\t// out\n        /* \"#utility.yul\":8439:8532   */\n    tag_59:\n        /* \"#utility.yul\":8476:8482   */\n      0x00\n        /* \"#utility.yul\":8523:8525   */\n      0x20\n        /* \"#utility.yul\":8518:8520   */\n      0x1f\n        /* \"#utility.yul\":8511:8516   */\n      dup4\n        /* \"#utility.yul\":8507:8521   */\n      add\n        /* \"#utility.yul\":8503:8526   */\n      div\n        /* \"#utility.yul\":8493:8526   */\n      swap1\n      pop\n        /* \"#utility.yul\":8439:8532   */\n      swap2\n      swap1\n      pop\n      jump\t// out\n        /* \"#utility.yul\":8538:8645   */\n    tag_60:\n        /* \"#utility.yul\":8582:8590   */\n      0x00\n        /* \"#utility.yul\":8632:8637   */\n      dup3\n        /* \"#utility.yul\":8626:8630   */\n      dup3\n        /* \"#utility.yul\":8622:8638   */\n      shl\n        /* \"#utility.yul\":8601:8638   */\n      swap1\n      pop\n        /* \"#utility.yul\":8538:8645   */\n      swap3\n      swap2\n      pop\n      pop\n      jump\t// out\n        /* \"#utility.yul\":8651:9044   */\n    tag_61:\n        /* \"#utility.yul\":8720:8726   */\n      0x00\n        /* \"#utility.yul\":8770:8771   */\n      0x08\n        /* \"#utility.yul\":8758:8768   */\n      dup4\n        /* \"#utility.yul\":8754:8772   */\n      mul\n        /* \"#utility.yul\":8793:8890   */\n      tag_164\n        /* \"#utility.yul\":8823:8889   */\n      0xffffffffffffffffffffffffffffffffffffffffffffffffffffffffffffffff\n        /* \"#utility.yul\":8812:8821   */\n      dup3\n        /* \"#utility.yul\":8793:8890   */\n      tag_60\n      jump\t// in\n    tag_164:\n        /* \"#utility.yul\":8911:8950   */\n      tag_165\n        /* \"#utility.yul\":8941:8949   */\n      dup7\n        /* \"#utility.yul\":8930:8939   */\n      dup4\n        /* \"#utility.yul\":8911:8950   */\n      tag_60\n      jump\t// in\n    tag_165:\n        /* \"#utility.yul\":8899:8950   */\n      swap6\n      pop\n        /* \"#utility.yul\":8983:8987   */\n      dup1\n        /* \"#utility.yul\":8979:8988   */\n      not\n        /* \"#utility.yul\":8972:8977   */\n      dup5\n        /* \"#utility.yul\":8968:8989   */\n      and\n        /* \"#utility.yul\":8959:8989   */\n      swap4\n      pop\n        /* \"#utility.yul\":9032:9036   */\n      dup1\n        /* \"#utility.yul\":9022:9030   */\n      dup7\n        /* \"#utility.yul\":9018:9037   */\n      and\n        /* \"#utility.yul\":9011:9016   */\n      dup5\n        /* \"#utility.yul\":9008:9038   */\n      or\n        /* \"#utility.yul\":8998:9038   */\n      swap3\n      pop\n        /* \"#utility.yul\":8727:9044   */\n      pop\n      pop\n        /* \"#utility.yul\":8651:9044   */\n      swap4\n      swap3\n      pop\n      pop\n      pop\n      jump\t// out\n        /* \"#utility.yul\":9050:9110   */\n    tag_62:\n        /* \"#utility.yul\":9078:9081   */\n      0x00\n        /* \"#utility.yul\":9099:9104   */\n      dup2\n        /* \"#utility.yul\":9092:9104   */\n      swap1\n      pop\n        /* \"#utility.yul\":9050:9110   */\n      swap2\n      swap1\n      pop\n      jump\t// out\n        /* \"#utility.yul\":9116:9258   */\n    tag_63:\n        /* \"#utility.yul\":9166:9175   */\n      0x00\n        /* \"#utility.yul\":9199:9252   */\n      tag_168\n        /* \"#utility.yul\":9217:9251   */\n      tag_169\n        /* \"#utility.yul\":9226:9250   */\n      tag_170\n        /* \"#utility.yul\":9244:9249   */\n      dup5\n        /* \"#utility.yul\":9226:9250   */\n      tag_43\n      jump\t// in\n    tag_170:\n        /* \"#utility.yul\":9217:9251   */\n      tag_62\n      jump\t// in\n    tag_169:\n        /* \"#utility.yul\":9199:9252   */\n      tag_43\n      jump\t// in\n    tag_168:\n        /* \"#utility.yul\":9186:9252   */\n      swap1\n      pop\n        /* \"#utility.yul\":9116:9258   */\n      swap2\n      swap1\n      pop\n      jump\t// out\n        /* \"#utility.yul\":9264:9339   */\n    tag_64:\n        /* \"#utility.yul\":9307:9310   */\n      0x00\n        /* \"#utility.yul\":9328:9333   */\n      dup2\n        /* \"#utility.yul\":9321:9333   */\n      swap1\n      pop\n        /* \"#utility.yul\":9264:9339   */\n      swap2\n      swap1\n      pop\n      jump\t// out\n        /* \"#utility.yul\":9345:9614   */\n    tag_65:\n        /* \"#utility.yul\":9455:9494   */\n      tag_173\n        /* \"#utility.yul\":9486:9493   */\n      dup4\n        /* \"#utility.yul\":9455:9494   */\n      tag_63\n      jump\t// in\n    tag_173:\n        /* \"#utility.yul\":9516:9607   */\n      tag_174\n        /* \"#utility.yul\":9565:9606   */\n      tag_175\n        /* \"#utility.yul\":9589:9605   */\n      dup3\n        /* \"#utility.yul\":9565:9606   */\n      tag_64\n      jump\t// in\n    tag_175:\n        /* \"#utility.yul\":9557:9563   */\n      dup5\n        /* \"#utility.yul\":9550:9554   */\n      dup5\n        /* \"#utility.yul\":9544:9555   */\n      sload\n        /* \"#utility.yul\":9516:9607   */\n      tag_61\n      jump\t// in\n    tag_174:\n        /* \"#utility.yul\":9510:9514   */\n      dup3\n        /* \"#utility.yul\":9503:9608   */\n      sstore\n        /* \"#utility.yul\":9421:9614   */\n      pop\n        /* \"#utility.yul\":9345:9614   */\n      pop\n      pop\n      pop\n      jump\t// out\n        /* \"#utility.yul\":9620:9693   */\n    tag_66:\n        /* \"#utility.yul\":9665:9668   */\n      0x00\n        /* \"#utility.yul\":9620:9693   */\n      swap1\n      jump\t// out\n        /* \"#utility.yul\":9699:9888   */\n    tag_67:\n        /* \"#utility.yul\":9776:9808   */\n      tag_178\n      tag_66\n      jump\t// in\n    tag_178:\n        /* \"#utility.yul\":9817:9882   */\n      tag_179\n        /* \"#utility.yul\":9875:9881   */\n      dup2\n        /* \"#utility.yul\":9867:9873   */\n      dup5\n        /* \"#utility.yul\":9861:9865   */\n      dup5\n        /* \"#utility.yul\":9817:9882   */\n      tag_65\n      jump\t// in\n    tag_179:\n        /* \"#utility.yul\":9752:9888   */\n      pop\n        /* \"#utility.yul\":9699:9888   */\n      pop\n      pop\n      jump\t// out\n        /* \"#utility.yul\":9894:10080   */\n    tag_68:\n        /* \"#utility.yul\":9954:10074   */\n    tag_181:\n        /* \"#utility.yul\":9971:9974   */\n      dup2\n        /* \"#utility.yul\":9964:9969   */\n      dup2\n        /* \"#utility.yul\":9961:9975   */\n      lt\n        /* \"#utility.yul\":9954:10074   */\n      iszero\n      tag_183\n      jumpi\n        /* \"#utility.yul\":10025:10064   */\n      tag_184\n        /* \"#utility.yul\":10062:10063   */\n      0x00\n        /* \"#utility.yul\":10055:10060   */\n      dup3\n        /* \"#utility.yul\":10025:10064   */\n      tag_67\n      jump\t// in\n    tag_184:\n        /* \"#utility.yul\":9998:9999   */\n      0x01\n        /* \"#utility.yul\":9991:9996   */\n      dup2\n        /* \"#utility.yul\":9987:10000   */\n      add\n        /* \"#utility.yul\":9978:10000   */\n      swap1\n      pop\n        /* \"#utility.yul\":9954:10074   */\n      jump(tag_181)\n    tag_183:\n        /* \"#utility.yul\":9894:10080   */\n      pop\n      pop\n      jump\t// out\n        /* \"#utility.yul\":10086:10629   */\n    tag_69:\n        /* \"#utility.yul\":10187:10189   */\n      0x1f\n        /* \"#utility.yul\":10182:10185   */\n      dup3\n        /* \"#utility.yul\":10179:10190   */\n      gt\n        /* \"#utility.yul\":10176:10622   */\n      iszero\n      tag_186\n      jumpi\n        /* \"#utility.yul\":10221:10259   */\n      tag_187\n        /* \"#utility.yul\":10253:10258   */\n      dup2\n        /* \"#utility.yul\":10221:10259   */\n      tag_58\n      jump\t// in\n    tag_187:\n        /* \"#utility.yul\":10305:10334   */\n      tag_188\n        /* \"#utility.yul\":10323:10333   */\n      dup5\n        /* \"#utility.yul\":10305:10334   */\n      tag_59\n      jump\t// in\n    tag_188:\n        /* \"#utility.yul\":10295:10303   */\n      dup2\n        /* \"#utility.yul\":10291:10335   */\n      add\n        /* \"#utility.yul\":10488:10490   */\n      0x20\n        /* \"#utility.yul\":10476:10486   */\n      dup6\n        /* \"#utility.yul\":10473:10491   */\n      lt\n        /* \"#utility.yul\":10470:10519   */\n      iszero\n      tag_189\n      jumpi\n        /* \"#utility.yul\":10509:10517   */\n      dup2\n        /* \"#utility.yul\":10494:10517   */\n      swap1\n      pop\n        /* \"#utility.yul\":10470:10519   */\n    tag_189:\n        /* \"#utility.yul\":10532:10612   */\n      tag_190\n        /* \"#utility.yul\":10588:10610   */\n      tag_191\n        /* \"#utility.yul\":10606:10609   */\n      dup6\n        /* \"#utility.yul\":10588:10610   */\n      tag_59\n      jump\t// in\n    tag_191:\n        /* \"#utility.yul\":10578:10586   */\n      dup4\n        /* \"#utility.yul\":10574:10611   */\n      add\n        /* \"#utility.yul\":10561:10572   */\n      dup3\n        /* \"#utility.yul\":10532:10612   */\n      tag_68\n      jump\t// in\n    tag_190:\n        /* \"#utility.yul\":10191:10622   */\n      pop\n      pop\n        /* \"#utility.yul\":10176:10622   */\n    tag_186:\n        /* \"#utility.yul\":10086:10629   */\n      pop\n      pop\n      pop\n      jump\t// out\n        /* \"#utility.yul\":10635:10752   */\n    tag_70:\n        /* \"#utility.yul\":10689:10697   */\n      0x00\n        /* \"#utility.yul\":10739:10744   */\n      dup3\n        /* \"#utility.yul\":10733:10737   */\n      dup3\n        /* \"#utility.yul\":10729:10745   */\n      shr\n        /* \"#utility.yul\":10708:10745   */\n      swap1\n      pop\n        /* \"#utility.yul\":10635:10752   */\n      swap3\n      swap2\n      pop\n      pop\n      jump\t// out\n        /* \"#utility.yul\":10758:10927   */\n    tag_71:\n        /* \"#utility.yul\":10802:10808   */\n      0x00\n        /* \"#utility.yul\":10835:10886   */\n      tag_194\n        /* \"#utility.yul\":10883:10884   */\n      0x00\n        /* \"#utility.yul\":10879:10885   */\n      not\n        /* \"#utility.yul\":10871:10876   */\n      dup5\n        /* \"#utility.yul\":10868:10869   */\n      0x08\n        /* \"#utility.yul\":10864:10877   */\n      mul\n        /* \"#utility.yul\":10835:10886   */\n      tag_70\n      jump\t// in\n    tag_194:\n        /* \"#utility.yul\":10831:10887   */\n      not\n        /* \"#utility.yul\":10916:10920   */\n      dup1\n        /* \"#utility.yul\":10910:10914   */\n      dup4\n        /* \"#utility.yul\":10906:10921   */\n      and\n        /* \"#utility.yul\":10896:10921   */\n      swap2\n      pop\n        /* \"#utility.yul\":10809:10927   */\n      pop\n        /* \"#utility.yul\":10758:10927   */\n      swap3\n      swap2\n      pop\n      pop\n      jump\t// out\n        /* \"#utility.yul\":10932:11227   */\n    tag_72:\n        /* \"#utility.yul\":11008:11012   */\n      0x00\n        /* \"#utility.yul\":11154:11183   */\n      tag_196\n        /* \"#utility.yul\":11179:11182   */\n      dup4\n        /* \"#utility.yul\":11173:11177   */\n      dup4\n        /* \"#utility.yul\":11154:11183   */\n      tag_71\n      jump\t// in\n    tag_196:\n        /* \"#utility.yul\":11146:11183   */\n      swap2\n      pop\n        /* \"#utility.yul\":11216:11219   */\n      dup3\n        /* \"#utility.yul\":11213:11214   */\n      0x02\n        /* \"#utility.yul\":11209:11220   */\n      mul\n        /* \"#utility.yul\":11203:11207   */\n      dup3\n        /* \"#utility.yul\":11200:11221   */\n      or\n        /* \"#utility.yul\":11192:11221   */\n      swap1\n      pop\n        /* \"#utility.yul\":10932:11227   */\n      swap3\n      swap2\n      pop\n      pop\n      jump\t// out\n        /* \"#utility.yul\":11232:12627   */\n    tag_19:\n        /* \"#utility.yul\":11349:11386   */\n      tag_198\n        /* \"#utility.yul\":11382:11385   */\n      dup3\n        /* \"#utility.yul\":11349:11386   */\n      tag_46\n      jump\t// in\n    tag_198:\n        /* \"#utility.yul\":11451:11469   */\n      0xffffffffffffffff\n        /* \"#utility.yul\":11443:11449   */\n      dup2\n        /* \"#utility.yul\":11440:11470   */\n      gt\n        /* \"#utility.yul\":11437:11493   */\n      iszero\n      tag_199\n      jumpi\n        /* \"#utility.yul\":11473:11491   */\n      tag_200\n      tag_36\n      jump\t// in\n    tag_200:\n        /* \"#utility.yul\":11437:11493   */\n    tag_199:\n        /* \"#utility.yul\":11517:11555   */\n      tag_201\n        /* \"#utility.yul\":11549:11553   */\n      dup3\n        /* \"#utility.yul\":11543:11554   */\n      sload\n        /* \"#utility.yul\":11517:11555   */\n      tag_25\n      jump\t// in\n    tag_201:\n        /* \"#utility.yul\":11602:11669   */\n      tag_202\n        /* \"#utility.yul\":11662:11668   */\n      dup3\n        /* \"#utility.yul\":11654:11660   */\n      dup3\n        /* \"#utility.yul\":11648:11652   */\n      dup6\n        /* \"#utility.yul\":11602:11669   */\n      tag_69\n      jump\t// in\n    tag_202:\n        /* \"#utility.yul\":11696:11697   */\n      0x00\n        /* \"#utility.yul\":11720:11724   */\n      0x20\n        /* \"#utility.yul\":11707:11724   */\n      swap1\n      pop\n        /* \"#utility.yul\":11752:11754   */\n      0x1f\n        /* \"#utility.yul\":11744:11750   */\n      dup4\n        /* \"#utility.yul\":11741:11755   */\n      gt\n        /* \"#utility.yul\":11769:11770   */\n      0x01\n        /* \"#utility.yul\":11764:12382   */\n      dup2\n      eq\n      tag_204\n      jumpi\n        /* \"#utility.yul\":12426:12427   */\n      0x00\n        /* \"#utility.yul\":12443:12449   */\n      dup5\n        /* \"#utility.yul\":12440:12517   */\n      iszero\n      tag_205\n      jumpi\n        /* \"#utility.yul\":12492:12501   */\n      dup3\n        /* \"#utility.yul\":12487:12490   */\n      dup8\n        /* \"#utility.yul\":12483:12502   */\n      add\n        /* \"#utility.yul\":12477:12503   */\n      mload\n        /* \"#utility.yul\":12468:12503   */\n      swap1\n      pop\n        /* \"#utility.yul\":12440:12517   */\n    tag_205:\n        /* \"#utility.yul\":12543:12610   */\n      tag_206\n        /* \"#utility.yul\":12603:12609   */\n      dup6\n        /* \"#utility.yul\":12596:12601   */\n      dup3\n        /* \"#utility.yul\":12543:12610   */\n      tag_72\n      jump\t// in\n    tag_206:\n        /* \"#utility.yul\":12537:12541   */\n      dup7\n        /* \"#utility.yul\":12530:12611   */\n      sstore\n        /* \"#utility.yul\":12399:12621   */\n      pop\n        /* \"#utility.yul\":11734:12621   */\n      jump(tag_203)\n        /* \"#utility.yul\":11764:12382   */\n    tag_204:\n        /* \"#utility.yul\":11816:11820   */\n      0x1f\n        /* \"#utility.yul\":11812:11821   */\n      not\n        /* \"#utility.yul\":11804:11810   */\n      dup5\n        /* \"#utility.yul\":11800:11822   */\n      and\n        /* \"#utility.yul\":11850:11887   */\n      tag_207\n        /* \"#utility.yul\":11882:11886   */\n      dup7\n        /* \"#utility.yul\":11850:11887   */\n      tag_58\n      jump\t// in\n    tag_207:\n        /* \"#utility.yul\":11909:11910   */\n      0x00\n        /* \"#utility.yul\":11923:12131   */\n    tag_208:\n        /* \"#utility.yul\":11937:11944   */\n      dup3\n        /* \"#utility.yul\":11934:11935   */\n      dup2\n        /* \"#utility.yul\":11931:11945   */\n      lt\n        /* \"#utility.yul\":11923:12131   */\n      iszero\n      tag_210\n      jumpi\n        /* \"#utility.yul\":12016:12025   */\n      dup5\n        /* \"#utility.yul\":12011:12014   */\n      dup10\n        /* \"#utility.yul\":12007:12026   */\n      add\n        /* \"#utility.yul\":12001:12027   */\n      mload\n        /* \"#utility.yul\":11993:11999   */\n      dup3\n        /* \"#utility.yul\":11986:12028   */\n      sstore\n        /* \"#utility.yul\":12067:12068   */\n      0x01\n        /* \"#utility.yul\":12059:12065   */\n      dup3\n        /* \"#utility.yul\":12055:12069   */\n      add\n        /* \"#utility.yul\":12045:12069   */\n      swap2\n      pop\n        /* \"#utility.yul\":12114:12116   */\n      0x20\n        /* \"#utility.yul\":12103:12112   */\n      dup6\n        /* \"#utility.yul\":12099:12117   */\n      add\n        /* \"#utility.yul\":12086:12117   */\n      swap5\n      pop\n        /* \"#utility.yul\":11960:11964   */\n      0x20\n        /* \"#utility.yul\":11957:11958   */\n      dup2\n        /* \"#utility.yul\":11953:11965   */\n      add\n        /* \"#utility.yul\":11948:11965   */\n      swap1\n      pop\n        /* \"#utility.yul\":11923:12131   */\n      jump(tag_208)\n    tag_210:\n        /* \"#utility.yul\":12159:12165   */\n      dup7\n        /* \"#utility.yul\":12150:12157   */\n      dup4\n        /* \"#utility.yul\":12147:12166   */\n      lt\n        /* \"#utility.yul\":12144:12323   */\n      iszero\n      tag_211\n      jumpi\n        /* \"#utility.yul\":12217:12226   */\n      dup5\n        /* \"#utility.yul\":12212:12215   */\n      dup10\n        /* \"#utility.yul\":12208:12227   */\n      add\n        /* \"#utility.yul\":12202:12228   */\n      mload\n        /* \"#utility.yul\":12260:12308   */\n      tag_212\n        /* \"#utility.yul\":12302:12306   */\n      0x1f\n        /* \"#utility.yul\":12294:12300   */\n      dup10\n        /* \"#utility.yul\":12290:12307   */\n      and\n        /* \"#utility.yul\":12279:12288   */\n      dup3\n        /* \"#utility.yul\":12260:12308   */\n      tag_71\n      jump\t// in\n    tag_212:\n        /* \"#utility.yul\":12252:12258   */\n      dup4\n        /* \"#utility.yul\":12245:12309   */\n      sstore\n        /* \"#utility.yul\":12167:12323   */\n      pop\n        /* \"#utility.yul\":12144:12323   */\n    tag_211:\n        /* \"#utility.yul\":12369:12370   */\n      0x01\n        /* \"#utility.yul\":12365:12366   */\n      0x02\n        /* \"#utility.yul\":12357:12363   */\n      dup9\n        /* \"#utility.yul\":12353:12367   */\n      mul\n        /* \"#utility.yul\":12349:12371   */\n      add\n        /* \"#utility.yul\":12343:12347   */\n      dup9\n        /* \"#utility.yul\":12336:12372   */\n      sstore\n        /* \"#utility.yul\":11771:12382   */\n      pop\n      pop\n      pop\n        /* \"#utility.yul\":11734:12621   */\n    tag_203:\n      pop\n        /* \"#utility.yul\":11324:12627   */\n      pop\n      pop\n      pop\n        /* \"#utility.yul\":11232:12627   */\n      pop\n      pop\n      jump\t// out\n\n    auxdata: 0xa2646970667358221220b4fab94ddeec3d42af5345e79608c26dc80d69323f612206700523864939106964736f6c63430008120033\n}\n",
				"bytecode": {
					"linkReferences": {},
					"object": "608060405234801561001057600080fd5b506109ca806100206000396000f3fe608060405234801561001057600080fd5b50600436106100365760003560e01c8063722459fd1461003b5780637f72e72514610057575b600080fd5b61005560048036038101906100509190610457565b610087565b005b610071600480360381019061006c91906104c6565b610155565b60405161007e9190610641565b60405180910390f35b60405180608001604052808481526020018381526020013373ffffffffffffffffffffffffffffffffffffffff168152602001828152506000846040516100ce919061069f565b908152602001604051809103902060008201518160000190816100f191906108c2565b506020820151816001015560408201518160020160006101000a81548173ffffffffffffffffffffffffffffffffffffffff021916908373ffffffffffffffffffffffffffffffffffffffff16021790555060608201518160030155905050505050565b61015d610289565b60008260405161016d919061069f565b9081526020016040518091039020604051806080016040529081600082018054610196906106e5565b80601f01602080910402602001604051908101604052809291908181526020018280546101c2906106e5565b801561020f5780601f106101e45761010080835404028352916020019161020f565b820191906000526020600020905b8154815290600101906020018083116101f257829003601f168201915b50505050508152602001600182015481526020016002820160009054906101000a900473ffffffffffffffffffffffffffffffffffffffff1673ffffffffffffffffffffffffffffffffffffffff1673ffffffffffffffffffffffffffffffffffffffff1681526020016003820154815250509050919050565b60405180608001604052806060815260200160008152602001600073ffffffffffffffffffffffffffffffffffffffff168152602001600081525090565b6000604051905090565b600080fd5b600080fd5b600080fd5b600080fd5b6000601f19601f8301169050919050565b7f4e487b7100000000000000000000000000000000000000000000000000000000600052604160045260246000fd5b61032e826102e5565b810181811067ffffffffffffffff8211171561034d5761034c6102f6565b5b80604052505050565b60006103606102c7565b905061036c8282610325565b919050565b600067ffffffffffffffff82111561038c5761038b6102f6565b5b610395826102e5565b9050602081019050919050565b82818337600083830152505050565b60006103c46103bf84610371565b610356565b9050828152602081018484840111156103e0576103df6102e0565b5b6103eb8482856103a2565b509392505050565b600082601f830112610408576104076102db565b5b81356104188482602086016103b1565b91505092915050565b6000819050919050565b61043481610421565b811461043f57600080fd5b50565b6000813590506104518161042b565b92915050565b6000806000606084860312156104705761046f6102d1565b5b600084013567ffffffffffffffff81111561048e5761048d6102d6565b5b61049a868287016103f3565b93505060206104ab86828701610442565b92505060406104bc86828701610442565b9150509250925092565b6000602082840312156104dc576104db6102d1565b5b600082013567ffffffffffffffff8111156104fa576104f96102d6565b5b610506848285016103f3565b91505092915050565b600081519050919050565b600082825260208201905092915050565b60005b8381101561054957808201518184015260208101905061052e565b60008484015250505050565b60006105608261050f565b61056a818561051a565b935061057a81856020860161052b565b610583816102e5565b840191505092915050565b61059781610421565b82525050565b600073ffffffffffffffffffffffffffffffffffffffff82169050919050565b60006105c88261059d565b9050919050565b6105d8816105bd565b82525050565b600060808301600083015184820360008601526105fb8282610555565b9150506020830151610610602086018261058e565b50604083015161062360408601826105cf565b506060830151610636606086018261058e565b508091505092915050565b6000602082019050818103600083015261065b81846105de565b905092915050565b600081905092915050565b60006106798261050f565b6106838185610663565b935061069381856020860161052b565b80840191505092915050565b60006106ab828461066e565b915081905092915050565b7f4e487b7100000000000000000000000000000000000000000000000000000000600052602260045260246000fd5b600060028204905060018216806106fd57607f821691505b6020821081036107105761070f6106b6565b5b50919050565b60008190508160005260206000209050919050565b60006020601f8301049050919050565b600082821b905092915050565b6000600883026107787fffffffffffffffffffffffffffffffffffffffffffffffffffffffffffffffff8261073b565b610782868361073b565b95508019841693508086168417925050509392505050565b6000819050919050565b60006107bf6107ba6107b584610421565b61079a565b610421565b9050919050565b6000819050919050565b6107d9836107a4565b6107ed6107e5826107c6565b848454610748565b825550505050565b600090565b6108026107f5565b61080d8184846107d0565b505050565b5b81811015610831576108266000826107fa565b600181019050610813565b5050565b601f8211156108765761084781610716565b6108508461072b565b8101602085101561085f578190505b61087361086b8561072b565b830182610812565b50505b505050565b600082821c905092915050565b60006108996000198460080261087b565b1980831691505092915050565b60006108b28383610888565b9150826002028217905092915050565b6108cb8261050f565b67ffffffffffffffff8111156108e4576108e36102f6565b5b6108ee82546106e5565b6108f9828285610835565b600060209050601f83116001811461092c576000841561091a578287015190505b61092485826108a6565b86555061098c565b601f19841661093a86610716565b60005b828110156109625784890151825560018201915060208501945060208101905061093d565b8683101561097f578489015161097b601f891682610888565b8355505b6001600288020188555050505b50505050505056fea2646970667358221220b4fab94ddeec3d42af5345e79608c26dc80d69323f612206700523864939106964736f6c63430008120033",
					"opcodes": "PUSH1 0x80 PUSH1 0x40 MSTORE CALLVALUE DUP1 ISZERO PUSH2 0x10 JUMPI PUSH1 0x0 DUP1 REVERT JUMPDEST POP PUSH2 0x9CA DUP1 PUSH2 0x20 PUSH1 0x0 CODECOPY PUSH1 0x0 RETURN INVALID PUSH1 0x80 PUSH1 0x40 MSTORE CALLVALUE DUP1 ISZERO PUSH2 0x10 JUMPI PUSH1 0x0 DUP1 REVERT JUMPDEST POP PUSH1 0x4 CALLDATASIZE LT PUSH2 0x36 JUMPI PUSH1 0x0 CALLDATALOAD PUSH1 0xE0 SHR DUP1 PUSH4 0x722459FD EQ PUSH2 0x3B JUMPI DUP1 PUSH4 0x7F72E725 EQ PUSH2 0x57 JUMPI JUMPDEST PUSH1 0x0 DUP1 REVERT JUMPDEST PUSH2 0x55 PUSH1 0x4 DUP1 CALLDATASIZE SUB DUP2 ADD SWAP1 PUSH2 0x50 SWAP2 SWAP1 PUSH2 0x457 JUMP JUMPDEST PUSH2 0x87 JUMP JUMPDEST STOP JUMPDEST PUSH2 0x71 PUSH1 0x4 DUP1 CALLDATASIZE SUB DUP2 ADD SWAP1 PUSH2 0x6C SWAP2 SWAP1 PUSH2 0x4C6 JUMP JUMPDEST PUSH2 0x155 JUMP JUMPDEST PUSH1 0x40 MLOAD PUSH2 0x7E SWAP2 SWAP1 PUSH2 0x641 JUMP JUMPDEST PUSH1 0x40 MLOAD DUP1 SWAP2 SUB SWAP1 RETURN JUMPDEST PUSH1 0x40 MLOAD DUP1 PUSH1 0x80 ADD PUSH1 0x40 MSTORE DUP1 DUP5 DUP2 MSTORE PUSH1 0x20 ADD DUP4 DUP2 MSTORE PUSH1 0x20 ADD CALLER PUSH20 0xFFFFFFFFFFFFFFFFFFFFFFFFFFFFFFFFFFFFFFFF AND DUP2 MSTORE PUSH1 0x20 ADD DUP3 DUP2 MSTORE POP PUSH1 0x0 DUP5 PUSH1 0x40 MLOAD PUSH2 0xCE SWAP2 SWAP1 PUSH2 0x69F JUMP JUMPDEST SWAP1 DUP2 MSTORE PUSH1 0x20 ADD PUSH1 0x40 MLOAD DUP1 SWAP2 SUB SWAP1 KECCAK256 PUSH1 0x0 DUP3 ADD MLOAD DUP2 PUSH1 0x0 ADD SWAP1 DUP2 PUSH2 0xF1 SWAP2 SWAP1 PUSH2 0x8C2 JUMP JUMPDEST POP PUSH1 0x20 DUP3 ADD MLOAD DUP2 PUSH1 0x1 ADD SSTORE PUSH1 0x40 DUP3 ADD MLOAD DUP2 PUSH1 0x2 ADD PUSH1 0x0 PUSH2 0x100 EXP DUP2 SLOAD DUP2 PUSH20 0xFFFFFFFFFFFFFFFFFFFFFFFFFFFFFFFFFFFFFFFF MUL NOT AND SWAP1 DUP4 PUSH20 0xFFFFFFFFFFFFFFFFFFFFFFFFFFFFFFFFFFFFFFFF AND MUL OR SWAP1 SSTORE POP PUSH1 0x60 DUP3 ADD MLOAD DUP2 PUSH1 0x3 ADD SSTORE SWAP1 POP POP POP POP POP JUMP JUMPDEST PUSH2 0x15D PUSH2 0x289 JUMP JUMPDEST PUSH1 0x0 DUP3 PUSH1 0x40 MLOAD PUSH2 0x16D SWAP2 SWAP1 PUSH2 0x69F JUMP JUMPDEST SWAP1 DUP2 MSTORE PUSH1 0x20 ADD PUSH1 0x40 MLOAD DUP1 SWAP2 SUB SWAP1 KECCAK256 PUSH1 0x40 MLOAD DUP1 PUSH1 0x80 ADD PUSH1 0x40 MSTORE SWAP1 DUP2 PUSH1 0x0 DUP3 ADD DUP1 SLOAD PUSH2 0x196 SWAP1 PUSH2 0x6E5 JUMP JUMPDEST DUP1 PUSH1 0x1F ADD PUSH1 0x20 DUP1 SWAP2 DIV MUL PUSH1 0x20 ADD PUSH1 0x40 MLOAD SWAP1 DUP2 ADD PUSH1 0x40 MSTORE DUP1 SWAP3 SWAP2 SWAP1 DUP2 DUP2 MSTORE PUSH1 0x20 ADD DUP3 DUP1 SLOAD PUSH2 0x1C2 SWAP1 PUSH2 0x6E5 JUMP JUMPDEST DUP1 ISZERO PUSH2 0x20F JUMPI DUP1 PUSH1 0x1F LT PUSH2 0x1E4 JUMPI PUSH2 0x100 DUP1 DUP4 SLOAD DIV MUL DUP4 MSTORE SWAP2 PUSH1 0x20 ADD SWAP2 PUSH2 0x20F JUMP JUMPDEST DUP3 ADD SWAP2 SWAP1 PUSH1 0x0 MSTORE PUSH1 0x20 PUSH1 0x0 KECCAK256 SWAP1 JUMPDEST DUP2 SLOAD DUP2 MSTORE SWAP1 PUSH1 0x1 ADD SWAP1 PUSH1 0x20 ADD DUP1 DUP4 GT PUSH2 0x1F2 JUMPI DUP3 SWAP1 SUB PUSH1 0x1F AND DUP3 ADD SWAP2 JUMPDEST POP POP POP POP POP DUP2 MSTORE PUSH1 0x20 ADD PUSH1 0x1 DUP3 ADD SLOAD DUP2 MSTORE PUSH1 0x20 ADD PUSH1 0x2 DUP3 ADD PUSH1 0x0 SWAP1 SLOAD SWAP1 PUSH2 0x100 EXP SWAP1 DIV PUSH20 0xFFFFFFFFFFFFFFFFFFFFFFFFFFFFFFFFFFFFFFFF AND PUSH20 0xFFFFFFFFFFFFFFFFFFFFFFFFFFFFFFFFFFFFFFFF AND PUSH20 0xFFFFFFFFFFFFFFFFFFFFFFFFFFFFFFFFFFFFFFFF AND DUP2 MSTORE PUSH1 0x20 ADD PUSH1 0x3 DUP3 ADD SLOAD DUP2 MSTORE POP POP SWAP1 POP SWAP2 SWAP1 POP JUMP JUMPDEST PUSH1 0x40 MLOAD DUP1 PUSH1 0x80 ADD PUSH1 0x40 MSTORE DUP1 PUSH1 0x60 DUP2 MSTORE PUSH1 0x20 ADD PUSH1 0x0 DUP2 MSTORE PUSH1 0x20 ADD PUSH1 0x0 PUSH20 0xFFFFFFFFFFFFFFFFFFFFFFFFFFFFFFFFFFFFFFFF AND DUP2 MSTORE PUSH1 0x20 ADD PUSH1 0x0 DUP2 MSTORE POP SWAP1 JUMP JUMPDEST PUSH1 0x0 PUSH1 0x40 MLOAD SWAP1 POP SWAP1 JUMP JUMPDEST PUSH1 0x0 DUP1 REVERT JUMPDEST PUSH1 0x0 DUP1 REVERT JUMPDEST PUSH1 0x0 DUP1 REVERT JUMPDEST PUSH1 0x0 DUP1 REVERT JUMPDEST PUSH1 0x0 PUSH1 0x1F NOT PUSH1 0x1F DUP4 ADD AND SWAP1 POP SWAP2 SWAP1 POP JUMP JUMPDEST PUSH32 0x4E487B7100000000000000000000000000000000000000000000000000000000 PUSH1 0x0 MSTORE PUSH1 0x41 PUSH1 0x4 MSTORE PUSH1 0x24 PUSH1 0x0 REVERT JUMPDEST PUSH2 0x32E DUP3 PUSH2 0x2E5 JUMP JUMPDEST DUP2 ADD DUP2 DUP2 LT PUSH8 0xFFFFFFFFFFFFFFFF DUP3 GT OR ISZERO PUSH2 0x34D JUMPI PUSH2 0x34C PUSH2 0x2F6 JUMP JUMPDEST JUMPDEST DUP1 PUSH1 0x40 MSTORE POP POP POP JUMP JUMPDEST PUSH1 0x0 PUSH2 0x360 PUSH2 0x2C7 JUMP JUMPDEST SWAP1 POP PUSH2 0x36C DUP3 DUP3 PUSH2 0x325 JUMP JUMPDEST SWAP2 SWAP1 POP JUMP JUMPDEST PUSH1 0x0 PUSH8 0xFFFFFFFFFFFFFFFF DUP3 GT ISZERO PUSH2 0x38C JUMPI PUSH2 0x38B PUSH2 0x2F6 JUMP JUMPDEST JUMPDEST PUSH2 0x395 DUP3 PUSH2 0x2E5 JUMP JUMPDEST SWAP1 POP PUSH1 0x20 DUP2 ADD SWAP1 POP SWAP2 SWAP1 POP JUMP JUMPDEST DUP3 DUP2 DUP4 CALLDATACOPY PUSH1 0x0 DUP4 DUP4 ADD MSTORE POP POP POP JUMP JUMPDEST PUSH1 0x0 PUSH2 0x3C4 PUSH2 0x3BF DUP5 PUSH2 0x371 JUMP JUMPDEST PUSH2 0x356 JUMP JUMPDEST SWAP1 POP DUP3 DUP2 MSTORE PUSH1 0x20 DUP2 ADD DUP5 DUP5 DUP5 ADD GT ISZERO PUSH2 0x3E0 JUMPI PUSH2 0x3DF PUSH2 0x2E0 JUMP JUMPDEST JUMPDEST PUSH2 0x3EB DUP5 DUP3 DUP6 PUSH2 0x3A2 JUMP JUMPDEST POP SWAP4 SWAP3 POP POP POP JUMP JUMPDEST PUSH1 0x0 DUP3 PUSH1 0x1F DUP4 ADD SLT PUSH2 0x408 JUMPI PUSH2 0x407 PUSH2 0x2DB JUMP JUMPDEST JUMPDEST DUP2 CALLDATALOAD PUSH2 0x418 DUP5 DUP3 PUSH1 0x20 DUP7 ADD PUSH2 0x3B1 JUMP JUMPDEST SWAP2 POP POP SWAP3 SWAP2 POP POP JUMP JUMPDEST PUSH1 0x0 DUP2 SWAP1 POP SWAP2 SWAP1 POP JUMP JUMPDEST PUSH2 0x434 DUP2 PUSH2 0x421 JUMP JUMPDEST DUP2 EQ PUSH2 0x43F JUMPI PUSH1 0x0 DUP1 REVERT JUMPDEST POP JUMP JUMPDEST PUSH1 0x0 DUP2 CALLDATALOAD SWAP1 POP PUSH2 0x451 DUP2 PUSH2 0x42B JUMP JUMPDEST SWAP3 SWAP2 POP POP JUMP JUMPDEST PUSH1 0x0 DUP1 PUSH1 0x0 PUSH1 0x60 DUP5 DUP7 SUB SLT ISZERO PUSH2 0x470 JUMPI PUSH2 0x46F PUSH2 0x2D1 JUMP JUMPDEST JUMPDEST PUSH1 0x0 DUP5 ADD CALLDATALOAD PUSH8 0xFFFFFFFFFFFFFFFF DUP2 GT ISZERO PUSH2 0x48E JUMPI PUSH2 0x48D PUSH2 0x2D6 JUMP JUMPDEST JUMPDEST PUSH2 0x49A DUP7 DUP3 DUP8 ADD PUSH2 0x3F3 JUMP JUMPDEST SWAP4 POP POP PUSH1 0x20 PUSH2 0x4AB DUP7 DUP3 DUP8 ADD PUSH2 0x442 JUMP JUMPDEST SWAP3 POP POP PUSH1 0x40 PUSH2 0x4BC DUP7 DUP3 DUP8 ADD PUSH2 0x442 JUMP JUMPDEST SWAP2 POP POP SWAP3 POP SWAP3 POP SWAP3 JUMP JUMPDEST PUSH1 0x0 PUSH1 0x20 DUP3 DUP5 SUB SLT ISZERO PUSH2 0x4DC JUMPI PUSH2 0x4DB PUSH2 0x2D1 JUMP JUMPDEST JUMPDEST PUSH1 0x0 DUP3 ADD CALLDATALOAD PUSH8 0xFFFFFFFFFFFFFFFF DUP2 GT ISZERO PUSH2 0x4FA JUMPI PUSH2 0x4F9 PUSH2 0x2D6 JUMP JUMPDEST JUMPDEST PUSH2 0x506 DUP5 DUP3 DUP6 ADD PUSH2 0x3F3 JUMP JUMPDEST SWAP2 POP POP SWAP3 SWAP2 POP POP JUMP JUMPDEST PUSH1 0x0 DUP2 MLOAD SWAP1 POP SWAP2 SWAP1 POP JUMP JUMPDEST PUSH1 0x0 DUP3 DUP3 MSTORE PUSH1 0x20 DUP3 ADD SWAP1 POP SWAP3 SWAP2 POP POP JUMP JUMPDEST PUSH1 0x0 JUMPDEST DUP4 DUP2 LT ISZERO PUSH2 0x549 JUMPI DUP1 DUP3 ADD MLOAD DUP2 DUP5 ADD MSTORE PUSH1 0x20 DUP2 ADD SWAP1 POP PUSH2 0x52E JUMP JUMPDEST PUSH1 0x0 DUP5 DUP5 ADD MSTORE POP POP POP POP JUMP JUMPDEST PUSH1 0x0 PUSH2 0x560 DUP3 PUSH2 0x50F JUMP JUMPDEST PUSH2 0x56A DUP2 DUP6 PUSH2 0x51A JUMP JUMPDEST SWAP4 POP PUSH2 0x57A DUP2 DUP6 PUSH1 0x20 DUP7 ADD PUSH2 0x52B JUMP JUMPDEST PUSH2 0x583 DUP2 PUSH2 0x2E5 JUMP JUMPDEST DUP5 ADD SWAP2 POP POP SWAP3 SWAP2 POP POP JUMP JUMPDEST PUSH2 0x597 DUP2 PUSH2 0x421 JUMP JUMPDEST DUP3 MSTORE POP POP JUMP JUMPDEST PUSH1 0x0 PUSH20 0xFFFFFFFFFFFFFFFFFFFFFFFFFFFFFFFFFFFFFFFF DUP3 AND SWAP1 POP SWAP2 SWAP1 POP JUMP JUMPDEST PUSH1 0x0 PUSH2 0x5C8 DUP3 PUSH2 0x59D JUMP JUMPDEST SWAP1 POP SWAP2 SWAP1 POP JUMP JUMPDEST PUSH2 0x5D8 DUP2 PUSH2 0x5BD JUMP JUMPDEST DUP3 MSTORE POP POP JUMP JUMPDEST PUSH1 0x0 PUSH1 0x80 DUP4 ADD PUSH1 0x0 DUP4 ADD MLOAD DUP5 DUP3 SUB PUSH1 0x0 DUP7 ADD MSTORE PUSH2 0x5FB DUP3 DUP3 PUSH2 0x555 JUMP JUMPDEST SWAP2 POP POP PUSH1 0x20 DUP4 ADD MLOAD PUSH2 0x610 PUSH1 0x20 DUP7 ADD DUP3 PUSH2 0x58E JUMP JUMPDEST POP PUSH1 0x40 DUP4 ADD MLOAD PUSH2 0x623 PUSH1 0x40 DUP7 ADD DUP3 PUSH2 0x5CF JUMP JUMPDEST POP PUSH1 0x60 DUP4 ADD MLOAD PUSH2 0x636 PUSH1 0x60 DUP7 ADD DUP3 PUSH2 0x58E JUMP JUMPDEST POP DUP1 SWAP2 POP POP SWAP3 SWAP2 POP POP JUMP JUMPDEST PUSH1 0x0 PUSH1 0x20 DUP3 ADD SWAP1 POP DUP2 DUP2 SUB PUSH1 0x0 DUP4 ADD MSTORE PUSH2 0x65B DUP2 DUP5 PUSH2 0x5DE JUMP JUMPDEST SWAP1 POP SWAP3 SWAP2 POP POP JUMP JUMPDEST PUSH1 0x0 DUP2 SWAP1 POP SWAP3 SWAP2 POP POP JUMP JUMPDEST PUSH1 0x0 PUSH2 0x679 DUP3 PUSH2 0x50F JUMP JUMPDEST PUSH2 0x683 DUP2 DUP6 PUSH2 0x663 JUMP JUMPDEST SWAP4 POP PUSH2 0x693 DUP2 DUP6 PUSH1 0x20 DUP7 ADD PUSH2 0x52B JUMP JUMPDEST DUP1 DUP5 ADD SWAP2 POP POP SWAP3 SWAP2 POP POP JUMP JUMPDEST PUSH1 0x0 PUSH2 0x6AB DUP3 DUP5 PUSH2 0x66E JUMP JUMPDEST SWAP2 POP DUP2 SWAP1 POP SWAP3 SWAP2 POP POP JUMP JUMPDEST PUSH32 0x4E487B7100000000000000000000000000000000000000000000000000000000 PUSH1 0x0 MSTORE PUSH1 0x22 PUSH1 0x4 MSTORE PUSH1 0x24 PUSH1 0x0 REVERT JUMPDEST PUSH1 0x0 PUSH1 0x2 DUP3 DIV SWAP1 POP PUSH1 0x1 DUP3 AND DUP1 PUSH2 0x6FD JUMPI PUSH1 0x7F DUP3 AND SWAP2 POP JUMPDEST PUSH1 0x20 DUP3 LT DUP2 SUB PUSH2 0x710 JUMPI PUSH2 0x70F PUSH2 0x6B6 JUMP JUMPDEST JUMPDEST POP SWAP2 SWAP1 POP JUMP JUMPDEST PUSH1 0x0 DUP2 SWAP1 POP DUP2 PUSH1 0x0 MSTORE PUSH1 0x20 PUSH1 0x0 KECCAK256 SWAP1 POP SWAP2 SWAP1 POP JUMP JUMPDEST PUSH1 0x0 PUSH1 0x20 PUSH1 0x1F DUP4 ADD DIV SWAP1 POP SWAP2 SWAP1 POP JUMP JUMPDEST PUSH1 0x0 DUP3 DUP3 SHL SWAP1 POP SWAP3 SWAP2 POP POP JUMP JUMPDEST PUSH1 0x0 PUSH1 0x8 DUP4 MUL PUSH2 0x778 PUSH32 0xFFFFFFFFFFFFFFFFFFFFFFFFFFFFFFFFFFFFFFFFFFFFFFFFFFFFFFFFFFFFFFFF DUP3 PUSH2 0x73B JUMP JUMPDEST PUSH2 0x782 DUP7 DUP4 PUSH2 0x73B JUMP JUMPDEST SWAP6 POP DUP1 NOT DUP5 AND SWAP4 POP DUP1 DUP7 AND DUP5 OR SWAP3 POP POP POP SWAP4 SWAP3 POP POP POP JUMP JUMPDEST PUSH1 0x0 DUP2 SWAP1 POP SWAP2 SWAP1 POP JUMP JUMPDEST PUSH1 0x0 PUSH2 0x7BF PUSH2 0x7BA PUSH2 0x7B5 DUP5 PUSH2 0x421 JUMP JUMPDEST PUSH2 0x79A JUMP JUMPDEST PUSH2 0x421 JUMP JUMPDEST SWAP1 POP SWAP2 SWAP1 POP JUMP JUMPDEST PUSH1 0x0 DUP2 SWAP1 POP SWAP2 SWAP1 POP JUMP JUMPDEST PUSH2 0x7D9 DUP4 PUSH2 0x7A4 JUMP JUMPDEST PUSH2 0x7ED PUSH2 0x7E5 DUP3 PUSH2 0x7C6 JUMP JUMPDEST DUP5 DUP5 SLOAD PUSH2 0x748 JUMP JUMPDEST DUP3 SSTORE POP POP POP POP JUMP JUMPDEST PUSH1 0x0 SWAP1 JUMP JUMPDEST PUSH2 0x802 PUSH2 0x7F5 JUMP JUMPDEST PUSH2 0x80D DUP2 DUP5 DUP5 PUSH2 0x7D0 JUMP JUMPDEST POP POP POP JUMP JUMPDEST JUMPDEST DUP2 DUP2 LT ISZERO PUSH2 0x831 JUMPI PUSH2 0x826 PUSH1 0x0 DUP3 PUSH2 0x7FA JUMP JUMPDEST PUSH1 0x1 DUP2 ADD SWAP1 POP PUSH2 0x813 JUMP JUMPDEST POP POP JUMP JUMPDEST PUSH1 0x1F DUP3 GT ISZERO PUSH2 0x876 JUMPI PUSH2 0x847 DUP2 PUSH2 0x716 JUMP JUMPDEST PUSH2 0x850 DUP5 PUSH2 0x72B JUMP JUMPDEST DUP2 ADD PUSH1 0x20 DUP6 LT ISZERO PUSH2 0x85F JUMPI DUP2 SWAP1 POP JUMPDEST PUSH2 0x873 PUSH2 0x86B DUP6 PUSH2 0x72B JUMP JUMPDEST DUP4 ADD DUP3 PUSH2 0x812 JUMP JUMPDEST POP POP JUMPDEST POP POP POP JUMP JUMPDEST PUSH1 0x0 DUP3 DUP3 SHR SWAP1 POP SWAP3 SWAP2 POP POP JUMP JUMPDEST PUSH1 0x0 PUSH2 0x899 PUSH1 0x0 NOT DUP5 PUSH1 0x8 MUL PUSH2 0x87B JUMP JUMPDEST NOT DUP1 DUP4 AND SWAP2 POP POP SWAP3 SWAP2 POP POP JUMP JUMPDEST PUSH1 0x0 PUSH2 0x8B2 DUP4 DUP4 PUSH2 0x888 JUMP JUMPDEST SWAP2 POP DUP3 PUSH1 0x2 MUL DUP3 OR SWAP1 POP SWAP3 SWAP2 POP POP JUMP JUMPDEST PUSH2 0x8CB DUP3 PUSH2 0x50F JUMP JUMPDEST PUSH8 0xFFFFFFFFFFFFFFFF DUP2 GT ISZERO PUSH2 0x8E4 JUMPI PUSH2 0x8E3 PUSH2 0x2F6 JUMP JUMPDEST JUMPDEST PUSH2 0x8EE DUP3 SLOAD PUSH2 0x6E5 JUMP JUMPDEST PUSH2 0x8F9 DUP3 DUP3 DUP6 PUSH2 0x835 JUMP JUMPDEST PUSH1 0x0 PUSH1 0x20 SWAP1 POP PUSH1 0x1F DUP4 GT PUSH1 0x1 DUP2 EQ PUSH2 0x92C JUMPI PUSH1 0x0 DUP5 ISZERO PUSH2 0x91A JUMPI DUP3 DUP8 ADD MLOAD SWAP1 POP JUMPDEST PUSH2 0x924 DUP6 DUP3 PUSH2 0x8A6 JUMP JUMPDEST DUP7 SSTORE POP PUSH2 0x98C JUMP JUMPDEST PUSH1 0x1F NOT DUP5 AND PUSH2 0x93A DUP7 PUSH2 0x716 JUMP JUMPDEST PUSH1 0x0 JUMPDEST DUP3 DUP2 LT ISZERO PUSH2 0x962 JUMPI DUP5 DUP10 ADD MLOAD DUP3 SSTORE PUSH1 0x1 DUP3 ADD SWAP2 POP PUSH1 0x20 DUP6 ADD SWAP5 POP PUSH1 0x20 DUP2 ADD SWAP1 POP PUSH2 0x93D JUMP JUMPDEST DUP7 DUP4 LT ISZERO PUSH2 0x97F JUMPI DUP5 DUP10 ADD MLOAD PUSH2 0x97B PUSH1 0x1F DUP10 AND DUP3 PUSH2 0x888 JUMP JUMPDEST DUP4 SSTORE POP JUMPDEST PUSH1 0x1 PUSH1 0x2 DUP9 MUL ADD DUP9 SSTORE POP POP POP JUMPDEST POP POP POP POP POP POP JUMP INVALID LOG2 PUSH5 0x6970667358 0x22 SLT KECCAK256 0xB4 STATICCALL 0xB9 0x4D 0xDE 0xEC RETURNDATASIZE TIMESTAMP 0xAF MSTORE8 GASLIMIT 0xE7 SWAP7 ADDMOD 0xC2 PUSH14 0xC80D69323F612206700523864939 LT PUSH10 0x64736F6C634300081200 CALLER "
				},
				"gasEstimates": {
					"creation": {
						"codeDepositCost": "501200",
						"executionCost": "537",
						"totalCost": "501737"
					},
					"external": {
						"getMemberByName(string)": "infinite",
						"setMember(string,uint256,uint256)": "infinite"
					}
				},
				"methodIdentifiers": {
					"getMemberByName(string)": "7f72e725",
					"setMember(string,uint256,uint256)": "722459fd"
				}
			},
			"storageLayout": {
				"storage": [
					{
						"astId": 83,
						"contract": "contracts-basic/week4.sol:_33",
						"label": "nameSearch",
						"offset": 0,
						"slot": "0",
						"type": "t_mapping(t_string_memory_ptr,t_struct(Member)78_storage)"
					}
				],
				"types": {
					"t_address": {
						"encoding": "inplace",
						"label": "address",
						"numberOfBytes": "20"
					},
					"t_mapping(t_string_memory_ptr,t_struct(Member)78_storage)": {
						"encoding": "mapping",
						"key": "t_string_memory_ptr",
						"label": "mapping(string => struct _33.Member)",
						"numberOfBytes": "32",
						"value": "t_struct(Member)78_storage"
					},
					"t_string_memory_ptr": {
						"encoding": "bytes",
						"label": "string",
						"numberOfBytes": "32"
					},
					"t_string_storage": {
						"encoding": "bytes",
						"label": "string",
						"numberOfBytes": "32"
					},
					"t_struct(Member)78_storage": {
						"encoding": "inplace",
						"label": "struct _33.Member",
						"members": [
							{
								"astId": 71,
								"contract": "contracts-basic/week4.sol:_33",
								"label": "name",
								"offset": 0,
								"slot": "0",
								"type": "t_string_storage"
							},
							{
								"astId": 73,
								"contract": "contracts-basic/week4.sol:_33",
								"label": "number",
								"offset": 0,
								"slot": "1",
								"type": "t_uint256"
							},
							{
								"astId": 75,
								"contract": "contracts-basic/week4.sol:_33",
								"label": "account",
								"offset": 0,
								"slot": "2",
								"type": "t_address"
							},
							{
								"astId": 77,
								"contract": "contracts-basic/week4.sol:_33",
								"label": "birth",
								"offset": 0,
								"slot": "3",
								"type": "t_uint256"
							}
						],
						"numberOfBytes": "128"
					},
					"t_uint256": {
						"encoding": "inplace",
						"label": "uint256",
						"numberOfBytes": "32"
					}
				}
			},
			"userdoc": {
				"kind": "user",
				"methods": {},
				"version": 1
			}
		}
	}
}