{
	"contracts-basic/week5.sol": {
		"_50": {
			"abi": [
				{
					"inputs": [
						{
							"internalType": "uint256",
							"name": "a",
							"type": "uint256"
						},
						{
							"internalType": "uint256",
							"name": "b",
							"type": "uint256"
						},
						{
							"internalType": "uint256",
							"name": "c",
							"type": "uint256"
						}
					],
					"name": "nums",
					"outputs": [
						{
							"internalType": "uint256",
							"name": "",
							"type": "uint256"
						}
					],
					"stateMutability": "pure",
					"type": "function"
				}
			],
			"devdoc": {
				"kind": "dev",
				"methods": {},
				"version": 1
			},
			"evm": {
				"assembly": "    /* \"contracts-basic/week5.sol\":4067:4208  contract _50 {... */\n  mstore(0x40, 0x80)\n  callvalue\n  dup1\n  iszero\n  tag_1\n  jumpi\n  0x00\n  dup1\n  revert\ntag_1:\n  pop\n  dataSize(sub_0)\n  dup1\n  dataOffset(sub_0)\n  0x00\n  codecopy\n  0x00\n  return\nstop\n\nsub_0: assembly {\n        /* \"contracts-basic/week5.sol\":4067:4208  contract _50 {... */\n      mstore(0x40, 0x80)\n      callvalue\n      dup1\n      iszero\n      tag_1\n      jumpi\n      0x00\n      dup1\n      revert\n    tag_1:\n      pop\n      jumpi(tag_2, lt(calldatasize, 0x04))\n      shr(0xe0, calldataload(0x00))\n      dup1\n      0x60861a5a\n      eq\n      tag_3\n      jumpi\n    tag_2:\n      0x00\n      dup1\n      revert\n        /* \"contracts-basic/week5.sol\":4086:4206  function nums(uint a, uint b, uint c) public pure returns(uint) {... */\n    tag_3:\n      tag_4\n      0x04\n      dup1\n      calldatasize\n      sub\n      dup2\n      add\n      swap1\n      tag_5\n      swap2\n      swap1\n      tag_6\n      jump\t// in\n    tag_5:\n      tag_7\n      jump\t// in\n    tag_4:\n      mload(0x40)\n      tag_8\n      swap2\n      swap1\n      tag_9\n      jump\t// in\n    tag_8:\n      mload(0x40)\n      dup1\n      swap2\n      sub\n      swap1\n      return\n    tag_7:\n        /* \"contracts-basic/week5.sol\":4144:4148  uint */\n      0x00\n        /* \"contracts-basic/week5.sol\":4196:4197  1 */\n      0x01\n        /* \"contracts-basic/week5.sol\":4192:4193  c */\n      dup3\n        /* \"contracts-basic/week5.sol\":4192:4197  c * 1 */\n      tag_11\n      swap2\n      swap1\n      tag_12\n      jump\t// in\n    tag_11:\n        /* \"contracts-basic/week5.sol\":4185:4187  10 */\n      0x0a\n        /* \"contracts-basic/week5.sol\":4181:4182  b */\n      dup5\n        /* \"contracts-basic/week5.sol\":4181:4187  b * 10 */\n      tag_13\n      swap2\n      swap1\n      tag_12\n      jump\t// in\n    tag_13:\n        /* \"contracts-basic/week5.sol\":4173:4176  100 */\n      0x64\n        /* \"contracts-basic/week5.sol\":4169:4170  a */\n      dup7\n        /* \"contracts-basic/week5.sol\":4169:4176  a * 100 */\n      tag_14\n      swap2\n      swap1\n      tag_12\n      jump\t// in\n    tag_14:\n        /* \"contracts-basic/week5.sol\":4168:4188  (a * 100) + (b * 10) */\n      tag_15\n      swap2\n      swap1\n      tag_16\n      jump\t// in\n    tag_15:\n        /* \"contracts-basic/week5.sol\":4168:4198  (a * 100) + (b * 10) + (c * 1) */\n      tag_17\n      swap2\n      swap1\n      tag_16\n      jump\t// in\n    tag_17:\n        /* \"contracts-basic/week5.sol\":4160:4199  return ((a * 100) + (b * 10) + (c * 1)) */\n      swap1\n      pop\n        /* \"contracts-basic/week5.sol\":4086:4206  function nums(uint a, uint b, uint c) public pure returns(uint) {... */\n      swap4\n      swap3\n      pop\n      pop\n      pop\n      jump\t// out\n        /* \"#utility.yul\":88:205   */\n    tag_19:\n        /* \"#utility.yul\":197:198   */\n      0x00\n        /* \"#utility.yul\":194:195   */\n      dup1\n        /* \"#utility.yul\":187:199   */\n      revert\n        /* \"#utility.yul\":334:411   */\n    tag_21:\n        /* \"#utility.yul\":371:378   */\n      0x00\n        /* \"#utility.yul\":400:405   */\n      dup2\n        /* \"#utility.yul\":389:405   */\n      swap1\n      pop\n        /* \"#utility.yul\":334:411   */\n      swap2\n      swap1\n      pop\n      jump\t// out\n        /* \"#utility.yul\":417:539   */\n    tag_22:\n        /* \"#utility.yul\":490:514   */\n      tag_32\n        /* \"#utility.yul\":508:513   */\n      dup2\n        /* \"#utility.yul\":490:514   */\n      tag_21\n      jump\t// in\n    tag_32:\n        /* \"#utility.yul\":483:488   */\n      dup2\n        /* \"#utility.yul\":480:515   */\n      eq\n        /* \"#utility.yul\":470:533   */\n      tag_33\n      jumpi\n        /* \"#utility.yul\":529:530   */\n      0x00\n        /* \"#utility.yul\":526:527   */\n      dup1\n        /* \"#utility.yul\":519:531   */\n      revert\n        /* \"#utility.yul\":470:533   */\n    tag_33:\n        /* \"#utility.yul\":417:539   */\n      pop\n      jump\t// out\n        /* \"#utility.yul\":545:684   */\n    tag_23:\n        /* \"#utility.yul\":591:596   */\n      0x00\n        /* \"#utility.yul\":629:635   */\n      dup2\n        /* \"#utility.yul\":616:636   */\n      calldataload\n        /* \"#utility.yul\":607:636   */\n      swap1\n      pop\n        /* \"#utility.yul\":645:678   */\n      tag_35\n        /* \"#utility.yul\":672:677   */\n      dup2\n        /* \"#utility.yul\":645:678   */\n      tag_22\n      jump\t// in\n    tag_35:\n        /* \"#utility.yul\":545:684   */\n      swap3\n      swap2\n      pop\n      pop\n      jump\t// out\n        /* \"#utility.yul\":690:1309   */\n    tag_6:\n        /* \"#utility.yul\":767:773   */\n      0x00\n        /* \"#utility.yul\":775:781   */\n      dup1\n        /* \"#utility.yul\":783:789   */\n      0x00\n        /* \"#utility.yul\":832:834   */\n      0x60\n        /* \"#utility.yul\":820:829   */\n      dup5\n        /* \"#utility.yul\":811:818   */\n      dup7\n        /* \"#utility.yul\":807:830   */\n      sub\n        /* \"#utility.yul\":803:835   */\n      slt\n        /* \"#utility.yul\":800:919   */\n      iszero\n      tag_37\n      jumpi\n        /* \"#utility.yul\":838:917   */\n      tag_38\n      tag_19\n      jump\t// in\n    tag_38:\n        /* \"#utility.yul\":800:919   */\n    tag_37:\n        /* \"#utility.yul\":958:959   */\n      0x00\n        /* \"#utility.yul\":983:1036   */\n      tag_39\n        /* \"#utility.yul\":1028:1035   */\n      dup7\n        /* \"#utility.yul\":1019:1025   */\n      dup3\n        /* \"#utility.yul\":1008:1017   */\n      dup8\n        /* \"#utility.yul\":1004:1026   */\n      add\n        /* \"#utility.yul\":983:1036   */\n      tag_23\n      jump\t// in\n    tag_39:\n        /* \"#utility.yul\":973:1036   */\n      swap4\n      pop\n        /* \"#utility.yul\":929:1046   */\n      pop\n        /* \"#utility.yul\":1085:1087   */\n      0x20\n        /* \"#utility.yul\":1111:1164   */\n      tag_40\n        /* \"#utility.yul\":1156:1163   */\n      dup7\n        /* \"#utility.yul\":1147:1153   */\n      dup3\n        /* \"#utility.yul\":1136:1145   */\n      dup8\n        /* \"#utility.yul\":1132:1154   */\n      add\n        /* \"#utility.yul\":1111:1164   */\n      tag_23\n      jump\t// in\n    tag_40:\n        /* \"#utility.yul\":1101:1164   */\n      swap3\n      pop\n        /* \"#utility.yul\":1056:1174   */\n      pop\n        /* \"#utility.yul\":1213:1215   */\n      0x40\n        /* \"#utility.yul\":1239:1292   */\n      tag_41\n        /* \"#utility.yul\":1284:1291   */\n      dup7\n        /* \"#utility.yul\":1275:1281   */\n      dup3\n        /* \"#utility.yul\":1264:1273   */\n      dup8\n        /* \"#utility.yul\":1260:1282   */\n      add\n        /* \"#utility.yul\":1239:1292   */\n      tag_23\n      jump\t// in\n    tag_41:\n        /* \"#utility.yul\":1229:1292   */\n      swap2\n      pop\n        /* \"#utility.yul\":1184:1302   */\n      pop\n        /* \"#utility.yul\":690:1309   */\n      swap3\n      pop\n      swap3\n      pop\n      swap3\n      jump\t// out\n        /* \"#utility.yul\":1315:1433   */\n    tag_24:\n        /* \"#utility.yul\":1402:1426   */\n      tag_43\n        /* \"#utility.yul\":1420:1425   */\n      dup2\n        /* \"#utility.yul\":1402:1426   */\n      tag_21\n      jump\t// in\n    tag_43:\n        /* \"#utility.yul\":1397:1400   */\n      dup3\n        /* \"#utility.yul\":1390:1427   */\n      mstore\n        /* \"#utility.yul\":1315:1433   */\n      pop\n      pop\n      jump\t// out\n        /* \"#utility.yul\":1439:1661   */\n    tag_9:\n        /* \"#utility.yul\":1532:1536   */\n      0x00\n        /* \"#utility.yul\":1570:1572   */\n      0x20\n        /* \"#utility.yul\":1559:1568   */\n      dup3\n        /* \"#utility.yul\":1555:1573   */\n      add\n        /* \"#utility.yul\":1547:1573   */\n      swap1\n      pop\n        /* \"#utility.yul\":1583:1654   */\n      tag_45\n        /* \"#utility.yul\":1651:1652   */\n      0x00\n        /* \"#utility.yul\":1640:1649   */\n      dup4\n        /* \"#utility.yul\":1636:1653   */\n      add\n        /* \"#utility.yul\":1627:1633   */\n      dup5\n        /* \"#utility.yul\":1583:1654   */\n      tag_24\n      jump\t// in\n    tag_45:\n        /* \"#utility.yul\":1439:1661   */\n      swap3\n      swap2\n      pop\n      pop\n      jump\t// out\n        /* \"#utility.yul\":1667:1847   */\n    tag_25:\n        /* \"#utility.yul\":1715:1792   */\n      0x4e487b7100000000000000000000000000000000000000000000000000000000\n        /* \"#utility.yul\":1712:1713   */\n      0x00\n        /* \"#utility.yul\":1705:1793   */\n      mstore\n        /* \"#utility.yul\":1812:1816   */\n      0x11\n        /* \"#utility.yul\":1809:1810   */\n      0x04\n        /* \"#utility.yul\":1802:1817   */\n      mstore\n        /* \"#utility.yul\":1836:1840   */\n      0x24\n        /* \"#utility.yul\":1833:1834   */\n      0x00\n        /* \"#utility.yul\":1826:1841   */\n      revert\n        /* \"#utility.yul\":1853:2263   */\n    tag_12:\n        /* \"#utility.yul\":1893:1900   */\n      0x00\n        /* \"#utility.yul\":1916:1936   */\n      tag_48\n        /* \"#utility.yul\":1934:1935   */\n      dup3\n        /* \"#utility.yul\":1916:1936   */\n      tag_21\n      jump\t// in\n    tag_48:\n        /* \"#utility.yul\":1911:1936   */\n      swap2\n      pop\n        /* \"#utility.yul\":1950:1970   */\n      tag_49\n        /* \"#utility.yul\":1968:1969   */\n      dup4\n        /* \"#utility.yul\":1950:1970   */\n      tag_21\n      jump\t// in\n    tag_49:\n        /* \"#utility.yul\":1945:1970   */\n      swap3\n      pop\n        /* \"#utility.yul\":2005:2006   */\n      dup3\n        /* \"#utility.yul\":2002:2003   */\n      dup3\n        /* \"#utility.yul\":1998:2007   */\n      mul\n        /* \"#utility.yul\":2027:2057   */\n      tag_50\n        /* \"#utility.yul\":2045:2056   */\n      dup2\n        /* \"#utility.yul\":2027:2057   */\n      tag_21\n      jump\t// in\n    tag_50:\n        /* \"#utility.yul\":2016:2057   */\n      swap2\n      pop\n        /* \"#utility.yul\":2206:2207   */\n      dup3\n        /* \"#utility.yul\":2197:2204   */\n      dup3\n        /* \"#utility.yul\":2193:2208   */\n      div\n        /* \"#utility.yul\":2190:2191   */\n      dup5\n        /* \"#utility.yul\":2187:2209   */\n      eq\n        /* \"#utility.yul\":2167:2168   */\n      dup4\n        /* \"#utility.yul\":2160:2169   */\n      iszero\n        /* \"#utility.yul\":2140:2223   */\n      or\n        /* \"#utility.yul\":2117:2256   */\n      tag_51\n      jumpi\n        /* \"#utility.yul\":2236:2254   */\n      tag_52\n      tag_25\n      jump\t// in\n    tag_52:\n        /* \"#utility.yul\":2117:2256   */\n    tag_51:\n        /* \"#utility.yul\":1901:2263   */\n      pop\n        /* \"#utility.yul\":1853:2263   */\n      swap3\n      swap2\n      pop\n      pop\n      jump\t// out\n        /* \"#utility.yul\":2269:2460   */\n    tag_16:\n        /* \"#utility.yul\":2309:2312   */\n      0x00\n        /* \"#utility.yul\":2328:2348   */\n      tag_54\n        /* \"#utility.yul\":2346:2347   */\n      dup3\n        /* \"#utility.yul\":2328:2348   */\n      tag_21\n      jump\t// in\n    tag_54:\n        /* \"#utility.yul\":2323:2348   */\n      swap2\n      pop\n        /* \"#utility.yul\":2362:2382   */\n      tag_55\n        /* \"#utility.yul\":2380:2381   */\n      dup4\n        /* \"#utility.yul\":2362:2382   */\n      tag_21\n      jump\t// in\n    tag_55:\n        /* \"#utility.yul\":2357:2382   */\n      swap3\n      pop\n        /* \"#utility.yul\":2405:2406   */\n      dup3\n        /* \"#utility.yul\":2402:2403   */\n      dup3\n        /* \"#utility.yul\":2398:2407   */\n      add\n        /* \"#utility.yul\":2391:2407   */\n      swap1\n      pop\n        /* \"#utility.yul\":2426:2429   */\n      dup1\n        /* \"#utility.yul\":2423:2424   */\n      dup3\n        /* \"#utility.yul\":2420:2430   */\n      gt\n        /* \"#utility.yul\":2417:2453   */\n      iszero\n      tag_56\n      jumpi\n        /* \"#utility.yul\":2433:2451   */\n      tag_57\n      tag_25\n      jump\t// in\n    tag_57:\n        /* \"#utility.yul\":2417:2453   */\n    tag_56:\n        /* \"#utility.yul\":2269:2460   */\n      swap3\n      swap2\n      pop\n      pop\n      jump\t// out\n\n    auxdata: 0xa264697066735822122009a4ebcf74643310a6cf65a6d5e2a2824bbf2bd123d3652b3db67095743915bf64736f6c63430008120033\n}\n",
				"bytecode": {
					"linkReferences": {},
					"object": "608060405234801561001057600080fd5b50610239806100206000396000f3fe608060405234801561001057600080fd5b506004361061002b5760003560e01c806360861a5a14610030575b600080fd5b61004a600480360381019061004591906100e1565b610060565b6040516100579190610143565b60405180910390f35b600060018261006f919061018d565b600a8461007c919061018d565b606486610089919061018d565b61009391906101cf565b61009d91906101cf565b90509392505050565b600080fd5b6000819050919050565b6100be816100ab565b81146100c957600080fd5b50565b6000813590506100db816100b5565b92915050565b6000806000606084860312156100fa576100f96100a6565b5b6000610108868287016100cc565b9350506020610119868287016100cc565b925050604061012a868287016100cc565b9150509250925092565b61013d816100ab565b82525050565b60006020820190506101586000830184610134565b92915050565b7f4e487b7100000000000000000000000000000000000000000000000000000000600052601160045260246000fd5b6000610198826100ab565b91506101a3836100ab565b92508282026101b1816100ab565b915082820484148315176101c8576101c761015e565b5b5092915050565b60006101da826100ab565b91506101e5836100ab565b92508282019050808211156101fd576101fc61015e565b5b9291505056fea264697066735822122009a4ebcf74643310a6cf65a6d5e2a2824bbf2bd123d3652b3db67095743915bf64736f6c63430008120033",
					"opcodes": "PUSH1 0x80 PUSH1 0x40 MSTORE CALLVALUE DUP1 ISZERO PUSH2 0x10 JUMPI PUSH1 0x0 DUP1 REVERT JUMPDEST POP PUSH2 0x239 DUP1 PUSH2 0x20 PUSH1 0x0 CODECOPY PUSH1 0x0 RETURN INVALID PUSH1 0x80 PUSH1 0x40 MSTORE CALLVALUE DUP1 ISZERO PUSH2 0x10 JUMPI PUSH1 0x0 DUP1 REVERT JUMPDEST POP PUSH1 0x4 CALLDATASIZE LT PUSH2 0x2B JUMPI PUSH1 0x0 CALLDATALOAD PUSH1 0xE0 SHR DUP1 PUSH4 0x60861A5A EQ PUSH2 0x30 JUMPI JUMPDEST PUSH1 0x0 DUP1 REVERT JUMPDEST PUSH2 0x4A PUSH1 0x4 DUP1 CALLDATASIZE SUB DUP2 ADD SWAP1 PUSH2 0x45 SWAP2 SWAP1 PUSH2 0xE1 JUMP JUMPDEST PUSH2 0x60 JUMP JUMPDEST PUSH1 0x40 MLOAD PUSH2 0x57 SWAP2 SWAP1 PUSH2 0x143 JUMP JUMPDEST PUSH1 0x40 MLOAD DUP1 SWAP2 SUB SWAP1 RETURN JUMPDEST PUSH1 0x0 PUSH1 0x1 DUP3 PUSH2 0x6F SWAP2 SWAP1 PUSH2 0x18D JUMP JUMPDEST PUSH1 0xA DUP5 PUSH2 0x7C SWAP2 SWAP1 PUSH2 0x18D JUMP JUMPDEST PUSH1 0x64 DUP7 PUSH2 0x89 SWAP2 SWAP1 PUSH2 0x18D JUMP JUMPDEST PUSH2 0x93 SWAP2 SWAP1 PUSH2 0x1CF JUMP JUMPDEST PUSH2 0x9D SWAP2 SWAP1 PUSH2 0x1CF JUMP JUMPDEST SWAP1 POP SWAP4 SWAP3 POP POP POP JUMP JUMPDEST PUSH1 0x0 DUP1 REVERT JUMPDEST PUSH1 0x0 DUP2 SWAP1 POP SWAP2 SWAP1 POP JUMP JUMPDEST PUSH2 0xBE DUP2 PUSH2 0xAB JUMP JUMPDEST DUP2 EQ PUSH2 0xC9 JUMPI PUSH1 0x0 DUP1 REVERT JUMPDEST POP JUMP JUMPDEST PUSH1 0x0 DUP2 CALLDATALOAD SWAP1 POP PUSH2 0xDB DUP2 PUSH2 0xB5 JUMP JUMPDEST SWAP3 SWAP2 POP POP JUMP JUMPDEST PUSH1 0x0 DUP1 PUSH1 0x0 PUSH1 0x60 DUP5 DUP7 SUB SLT ISZERO PUSH2 0xFA JUMPI PUSH2 0xF9 PUSH2 0xA6 JUMP JUMPDEST JUMPDEST PUSH1 0x0 PUSH2 0x108 DUP7 DUP3 DUP8 ADD PUSH2 0xCC JUMP JUMPDEST SWAP4 POP POP PUSH1 0x20 PUSH2 0x119 DUP7 DUP3 DUP8 ADD PUSH2 0xCC JUMP JUMPDEST SWAP3 POP POP PUSH1 0x40 PUSH2 0x12A DUP7 DUP3 DUP8 ADD PUSH2 0xCC JUMP JUMPDEST SWAP2 POP POP SWAP3 POP SWAP3 POP SWAP3 JUMP JUMPDEST PUSH2 0x13D DUP2 PUSH2 0xAB JUMP JUMPDEST DUP3 MSTORE POP POP JUMP JUMPDEST PUSH1 0x0 PUSH1 0x20 DUP3 ADD SWAP1 POP PUSH2 0x158 PUSH1 0x0 DUP4 ADD DUP5 PUSH2 0x134 JUMP JUMPDEST SWAP3 SWAP2 POP POP JUMP JUMPDEST PUSH32 0x4E487B7100000000000000000000000000000000000000000000000000000000 PUSH1 0x0 MSTORE PUSH1 0x11 PUSH1 0x4 MSTORE PUSH1 0x24 PUSH1 0x0 REVERT JUMPDEST PUSH1 0x0 PUSH2 0x198 DUP3 PUSH2 0xAB JUMP JUMPDEST SWAP2 POP PUSH2 0x1A3 DUP4 PUSH2 0xAB JUMP JUMPDEST SWAP3 POP DUP3 DUP3 MUL PUSH2 0x1B1 DUP2 PUSH2 0xAB JUMP JUMPDEST SWAP2 POP DUP3 DUP3 DIV DUP5 EQ DUP4 ISZERO OR PUSH2 0x1C8 JUMPI PUSH2 0x1C7 PUSH2 0x15E JUMP JUMPDEST JUMPDEST POP SWAP3 SWAP2 POP POP JUMP JUMPDEST PUSH1 0x0 PUSH2 0x1DA DUP3 PUSH2 0xAB JUMP JUMPDEST SWAP2 POP PUSH2 0x1E5 DUP4 PUSH2 0xAB JUMP JUMPDEST SWAP3 POP DUP3 DUP3 ADD SWAP1 POP DUP1 DUP3 GT ISZERO PUSH2 0x1FD JUMPI PUSH2 0x1FC PUSH2 0x15E JUMP JUMPDEST JUMPDEST SWAP3 SWAP2 POP POP JUMP INVALID LOG2 PUSH5 0x6970667358 0x22 SLT KECCAK256 MULMOD LOG4 0xEB 0xCF PUSH21 0x643310A6CF65A6D5E2A2824BBF2BD123D3652B3DB6 PUSH17 0x95743915BF64736F6C6343000812003300 "
				},
				"gasEstimates": {
					"creation": {
						"codeDepositCost": "113800",
						"executionCost": "159",
						"totalCost": "113959"
					},
					"external": {
						"nums(uint256,uint256,uint256)": "infinite"
					}
				},
				"methodIdentifiers": {
					"nums(uint256,uint256,uint256)": "60861a5a"
				}
			},
			"storageLayout": {
				"storage": [],
				"types": null
			},
			"userdoc": {
				"kind": "user",
				"methods": {},
				"version": 1
			}
		}
	}
}