{
	"contracts-basic/week1.sol": {
		"last": {
			"abi": [
				{
					"inputs": [],
					"name": "getAll",
					"outputs": [
						{
							"internalType": "uint256[]",
							"name": "",
							"type": "uint256[]"
						}
					],
					"stateMutability": "view",
					"type": "function"
				},
				{
					"inputs": [
						{
							"internalType": "uint256",
							"name": "_n",
							"type": "uint256"
						}
					],
					"name": "getN",
					"outputs": [
						{
							"internalType": "uint256",
							"name": "",
							"type": "uint256"
						}
					],
					"stateMutability": "view",
					"type": "function"
				},
				{
					"inputs": [],
					"name": "popNum",
					"outputs": [],
					"stateMutability": "nonpayable",
					"type": "function"
				},
				{
					"inputs": [
						{
							"internalType": "uint256",
							"name": "_n",
							"type": "uint256"
						}
					],
					"name": "pushNum",
					"outputs": [],
					"stateMutability": "nonpayable",
					"type": "function"
				}
			],
			"devdoc": {
				"kind": "dev",
				"methods": {},
				"version": 1
			},
			"evm": {
				"assembly": "    /* \"contracts-basic/week1.sol\":2144:2496  contract last {... */\n  mstore(0x40, 0x80)\n  callvalue\n  dup1\n  iszero\n  tag_1\n  jumpi\n  0x00\n  dup1\n  revert\ntag_1:\n  pop\n  dataSize(sub_0)\n  dup1\n  dataOffset(sub_0)\n  0x00\n  codecopy\n  0x00\n  return\nstop\n\nsub_0: assembly {\n        /* \"contracts-basic/week1.sol\":2144:2496  contract last {... */\n      mstore(0x40, 0x80)\n      callvalue\n      dup1\n      iszero\n      tag_1\n      jumpi\n      0x00\n      dup1\n      revert\n    tag_1:\n      pop\n      jumpi(tag_2, lt(calldatasize, 0x04))\n      shr(0xe0, calldataload(0x00))\n      dup1\n      0x39139225\n      eq\n      tag_3\n      jumpi\n      dup1\n      0x53ed5143\n      eq\n      tag_4\n      jumpi\n      dup1\n      0xbc07865f\n      eq\n      tag_5\n      jumpi\n      dup1\n      0xe65d1594\n      eq\n      tag_6\n      jumpi\n    tag_2:\n      0x00\n      dup1\n      revert\n        /* \"contracts-basic/week1.sol\":2408:2494  function getN(uint _n) public view returns(uint) {... */\n    tag_3:\n      tag_7\n      0x04\n      dup1\n      calldatasize\n      sub\n      dup2\n      add\n      swap1\n      tag_8\n      swap2\n      swap1\n      tag_9\n      jump\t// in\n    tag_8:\n      tag_10\n      jump\t// in\n    tag_7:\n      mload(0x40)\n      tag_11\n      swap2\n      swap1\n      tag_12\n      jump\t// in\n    tag_11:\n      mload(0x40)\n      dup1\n      swap2\n      sub\n      swap1\n      return\n        /* \"contracts-basic/week1.sol\":2318:2402  function getAll() public view returns(uint[] memory) {... */\n    tag_4:\n      tag_13\n      tag_14\n      jump\t// in\n    tag_13:\n      mload(0x40)\n      tag_15\n      swap2\n      swap1\n      tag_16\n      jump\t// in\n    tag_15:\n      mload(0x40)\n      dup1\n      swap2\n      sub\n      swap1\n      return\n        /* \"contracts-basic/week1.sol\":2185:2251  function pushNum(uint _n) public {... */\n    tag_5:\n      tag_17\n      0x04\n      dup1\n      calldatasize\n      sub\n      dup2\n      add\n      swap1\n      tag_18\n      swap2\n      swap1\n      tag_9\n      jump\t// in\n    tag_18:\n      tag_19\n      jump\t// in\n    tag_17:\n      stop\n        /* \"contracts-basic/week1.sol\":2257:2312  function popNum() public {... */\n    tag_6:\n      tag_20\n      tag_21\n      jump\t// in\n    tag_20:\n      stop\n        /* \"contracts-basic/week1.sol\":2408:2494  function getN(uint _n) public view returns(uint) {... */\n    tag_10:\n        /* \"contracts-basic/week1.sol\":2451:2455  uint */\n      0x00\n        /* \"contracts-basic/week1.sol\":2474:2481  numbers */\n      dup1\n        /* \"contracts-basic/week1.sol\":2485:2486  1 */\n      0x01\n        /* \"contracts-basic/week1.sol\":2482:2484  _n */\n      dup4\n        /* \"contracts-basic/week1.sol\":2482:2486  _n-1 */\n      tag_23\n      swap2\n      swap1\n      tag_24\n      jump\t// in\n    tag_23:\n        /* \"contracts-basic/week1.sol\":2474:2487  numbers[_n-1] */\n      dup2\n      sload\n      dup2\n      lt\n      tag_25\n      jumpi\n      tag_26\n      tag_27\n      jump\t// in\n    tag_26:\n    tag_25:\n      swap1\n      0x00\n      mstore\n      keccak256(0x00, 0x20)\n      add\n      sload\n        /* \"contracts-basic/week1.sol\":2467:2487  return numbers[_n-1] */\n      swap1\n      pop\n        /* \"contracts-basic/week1.sol\":2408:2494  function getN(uint _n) public view returns(uint) {... */\n      swap2\n      swap1\n      pop\n      jump\t// out\n        /* \"contracts-basic/week1.sol\":2318:2402  function getAll() public view returns(uint[] memory) {... */\n    tag_14:\n        /* \"contracts-basic/week1.sol\":2356:2369  uint[] memory */\n      0x60\n        /* \"contracts-basic/week1.sol\":2388:2395  numbers */\n      0x00\n        /* \"contracts-basic/week1.sol\":2381:2395  return numbers */\n      dup1\n      sload\n      dup1\n      0x20\n      mul\n      0x20\n      add\n      mload(0x40)\n      swap1\n      dup2\n      add\n      0x40\n      mstore\n      dup1\n      swap3\n      swap2\n      swap1\n      dup2\n      dup2\n      mstore\n      0x20\n      add\n      dup3\n      dup1\n      sload\n      dup1\n      iszero\n      tag_30\n      jumpi\n      0x20\n      mul\n      dup3\n      add\n      swap2\n      swap1\n      0x00\n      mstore\n      keccak256(0x00, 0x20)\n      swap1\n    tag_31:\n      dup2\n      sload\n      dup2\n      mstore\n      0x20\n      add\n      swap1\n      0x01\n      add\n      swap1\n      dup1\n      dup4\n      gt\n      tag_31\n      jumpi\n    tag_30:\n      pop\n      pop\n      pop\n      pop\n      pop\n      swap1\n      pop\n        /* \"contracts-basic/week1.sol\":2318:2402  function getAll() public view returns(uint[] memory) {... */\n      swap1\n      jump\t// out\n        /* \"contracts-basic/week1.sol\":2185:2251  function pushNum(uint _n) public {... */\n    tag_19:\n        /* \"contracts-basic/week1.sol\":2228:2235  numbers */\n      0x00\n        /* \"contracts-basic/week1.sol\":2241:2243  _n */\n      dup2\n        /* \"contracts-basic/week1.sol\":2228:2244  numbers.push(_n) */\n      swap1\n      dup1\n      0x01\n      dup2\n      sload\n      add\n      dup1\n      dup3\n      sstore\n      dup1\n      swap2\n      pop\n      pop\n      0x01\n      swap1\n      sub\n      swap1\n      0x00\n      mstore\n      keccak256(0x00, 0x20)\n      add\n      0x00\n      swap1\n      swap2\n      swap1\n      swap2\n      swap1\n      swap2\n      pop\n      sstore\n        /* \"contracts-basic/week1.sol\":2185:2251  function pushNum(uint _n) public {... */\n      pop\n      jump\t// out\n        /* \"contracts-basic/week1.sol\":2257:2312  function popNum() public {... */\n    tag_21:\n        /* \"contracts-basic/week1.sol\":2292:2299  numbers */\n      0x00\n        /* \"contracts-basic/week1.sol\":2292:2305  numbers.pop() */\n      dup1\n      sload\n      dup1\n      tag_35\n      jumpi\n      tag_36\n      tag_37\n      jump\t// in\n    tag_36:\n    tag_35:\n      0x01\n      swap1\n      sub\n      dup2\n      dup2\n      swap1\n      0x00\n      mstore\n      keccak256(0x00, 0x20)\n      add\n      0x00\n      swap1\n      sstore\n      swap1\n      sstore\n        /* \"contracts-basic/week1.sol\":2257:2312  function popNum() public {... */\n      jump\t// out\n        /* \"#utility.yul\":88:205   */\n    tag_40:\n        /* \"#utility.yul\":197:198   */\n      0x00\n        /* \"#utility.yul\":194:195   */\n      dup1\n        /* \"#utility.yul\":187:199   */\n      revert\n        /* \"#utility.yul\":334:411   */\n    tag_42:\n        /* \"#utility.yul\":371:378   */\n      0x00\n        /* \"#utility.yul\":400:405   */\n      dup2\n        /* \"#utility.yul\":389:405   */\n      swap1\n      pop\n        /* \"#utility.yul\":334:411   */\n      swap2\n      swap1\n      pop\n      jump\t// out\n        /* \"#utility.yul\":417:539   */\n    tag_43:\n        /* \"#utility.yul\":490:514   */\n      tag_60\n        /* \"#utility.yul\":508:513   */\n      dup2\n        /* \"#utility.yul\":490:514   */\n      tag_42\n      jump\t// in\n    tag_60:\n        /* \"#utility.yul\":483:488   */\n      dup2\n        /* \"#utility.yul\":480:515   */\n      eq\n        /* \"#utility.yul\":470:533   */\n      tag_61\n      jumpi\n        /* \"#utility.yul\":529:530   */\n      0x00\n        /* \"#utility.yul\":526:527   */\n      dup1\n        /* \"#utility.yul\":519:531   */\n      revert\n        /* \"#utility.yul\":470:533   */\n    tag_61:\n        /* \"#utility.yul\":417:539   */\n      pop\n      jump\t// out\n        /* \"#utility.yul\":545:684   */\n    tag_44:\n        /* \"#utility.yul\":591:596   */\n      0x00\n        /* \"#utility.yul\":629:635   */\n      dup2\n        /* \"#utility.yul\":616:636   */\n      calldataload\n        /* \"#utility.yul\":607:636   */\n      swap1\n      pop\n        /* \"#utility.yul\":645:678   */\n      tag_63\n        /* \"#utility.yul\":672:677   */\n      dup2\n        /* \"#utility.yul\":645:678   */\n      tag_43\n      jump\t// in\n    tag_63:\n        /* \"#utility.yul\":545:684   */\n      swap3\n      swap2\n      pop\n      pop\n      jump\t// out\n        /* \"#utility.yul\":690:1019   */\n    tag_9:\n        /* \"#utility.yul\":749:755   */\n      0x00\n        /* \"#utility.yul\":798:800   */\n      0x20\n        /* \"#utility.yul\":786:795   */\n      dup3\n        /* \"#utility.yul\":777:784   */\n      dup5\n        /* \"#utility.yul\":773:796   */\n      sub\n        /* \"#utility.yul\":769:801   */\n      slt\n        /* \"#utility.yul\":766:885   */\n      iszero\n      tag_65\n      jumpi\n        /* \"#utility.yul\":804:883   */\n      tag_66\n      tag_40\n      jump\t// in\n    tag_66:\n        /* \"#utility.yul\":766:885   */\n    tag_65:\n        /* \"#utility.yul\":924:925   */\n      0x00\n        /* \"#utility.yul\":949:1002   */\n      tag_67\n        /* \"#utility.yul\":994:1001   */\n      dup5\n        /* \"#utility.yul\":985:991   */\n      dup3\n        /* \"#utility.yul\":974:983   */\n      dup6\n        /* \"#utility.yul\":970:992   */\n      add\n        /* \"#utility.yul\":949:1002   */\n      tag_44\n      jump\t// in\n    tag_67:\n        /* \"#utility.yul\":939:1002   */\n      swap2\n      pop\n        /* \"#utility.yul\":895:1012   */\n      pop\n        /* \"#utility.yul\":690:1019   */\n      swap3\n      swap2\n      pop\n      pop\n      jump\t// out\n        /* \"#utility.yul\":1025:1143   */\n    tag_45:\n        /* \"#utility.yul\":1112:1136   */\n      tag_69\n        /* \"#utility.yul\":1130:1135   */\n      dup2\n        /* \"#utility.yul\":1112:1136   */\n      tag_42\n      jump\t// in\n    tag_69:\n        /* \"#utility.yul\":1107:1110   */\n      dup3\n        /* \"#utility.yul\":1100:1137   */\n      mstore\n        /* \"#utility.yul\":1025:1143   */\n      pop\n      pop\n      jump\t// out\n        /* \"#utility.yul\":1149:1371   */\n    tag_12:\n        /* \"#utility.yul\":1242:1246   */\n      0x00\n        /* \"#utility.yul\":1280:1282   */\n      0x20\n        /* \"#utility.yul\":1269:1278   */\n      dup3\n        /* \"#utility.yul\":1265:1283   */\n      add\n        /* \"#utility.yul\":1257:1283   */\n      swap1\n      pop\n        /* \"#utility.yul\":1293:1364   */\n      tag_71\n        /* \"#utility.yul\":1361:1362   */\n      0x00\n        /* \"#utility.yul\":1350:1359   */\n      dup4\n        /* \"#utility.yul\":1346:1363   */\n      add\n        /* \"#utility.yul\":1337:1343   */\n      dup5\n        /* \"#utility.yul\":1293:1364   */\n      tag_45\n      jump\t// in\n    tag_71:\n        /* \"#utility.yul\":1149:1371   */\n      swap3\n      swap2\n      pop\n      pop\n      jump\t// out\n        /* \"#utility.yul\":1377:1491   */\n    tag_46:\n        /* \"#utility.yul\":1444:1450   */\n      0x00\n        /* \"#utility.yul\":1478:1483   */\n      dup2\n        /* \"#utility.yul\":1472:1484   */\n      mload\n        /* \"#utility.yul\":1462:1484   */\n      swap1\n      pop\n        /* \"#utility.yul\":1377:1491   */\n      swap2\n      swap1\n      pop\n      jump\t// out\n        /* \"#utility.yul\":1497:1681   */\n    tag_47:\n        /* \"#utility.yul\":1596:1607   */\n      0x00\n        /* \"#utility.yul\":1630:1636   */\n      dup3\n        /* \"#utility.yul\":1625:1628   */\n      dup3\n        /* \"#utility.yul\":1618:1637   */\n      mstore\n        /* \"#utility.yul\":1670:1674   */\n      0x20\n        /* \"#utility.yul\":1665:1668   */\n      dup3\n        /* \"#utility.yul\":1661:1675   */\n      add\n        /* \"#utility.yul\":1646:1675   */\n      swap1\n      pop\n        /* \"#utility.yul\":1497:1681   */\n      swap3\n      swap2\n      pop\n      pop\n      jump\t// out\n        /* \"#utility.yul\":1687:1819   */\n    tag_48:\n        /* \"#utility.yul\":1754:1758   */\n      0x00\n        /* \"#utility.yul\":1777:1780   */\n      dup2\n        /* \"#utility.yul\":1769:1780   */\n      swap1\n      pop\n        /* \"#utility.yul\":1807:1811   */\n      0x20\n        /* \"#utility.yul\":1802:1805   */\n      dup3\n        /* \"#utility.yul\":1798:1812   */\n      add\n        /* \"#utility.yul\":1790:1812   */\n      swap1\n      pop\n        /* \"#utility.yul\":1687:1819   */\n      swap2\n      swap1\n      pop\n      jump\t// out\n        /* \"#utility.yul\":1825:1933   */\n    tag_49:\n        /* \"#utility.yul\":1902:1926   */\n      tag_76\n        /* \"#utility.yul\":1920:1925   */\n      dup2\n        /* \"#utility.yul\":1902:1926   */\n      tag_42\n      jump\t// in\n    tag_76:\n        /* \"#utility.yul\":1897:1900   */\n      dup3\n        /* \"#utility.yul\":1890:1927   */\n      mstore\n        /* \"#utility.yul\":1825:1933   */\n      pop\n      pop\n      jump\t// out\n        /* \"#utility.yul\":1939:2118   */\n    tag_50:\n        /* \"#utility.yul\":2008:2018   */\n      0x00\n        /* \"#utility.yul\":2029:2075   */\n      tag_78\n        /* \"#utility.yul\":2071:2074   */\n      dup4\n        /* \"#utility.yul\":2063:2069   */\n      dup4\n        /* \"#utility.yul\":2029:2075   */\n      tag_49\n      jump\t// in\n    tag_78:\n        /* \"#utility.yul\":2107:2111   */\n      0x20\n        /* \"#utility.yul\":2102:2105   */\n      dup4\n        /* \"#utility.yul\":2098:2112   */\n      add\n        /* \"#utility.yul\":2084:2112   */\n      swap1\n      pop\n        /* \"#utility.yul\":1939:2118   */\n      swap3\n      swap2\n      pop\n      pop\n      jump\t// out\n        /* \"#utility.yul\":2124:2237   */\n    tag_51:\n        /* \"#utility.yul\":2194:2198   */\n      0x00\n        /* \"#utility.yul\":2226:2230   */\n      0x20\n        /* \"#utility.yul\":2221:2224   */\n      dup3\n        /* \"#utility.yul\":2217:2231   */\n      add\n        /* \"#utility.yul\":2209:2231   */\n      swap1\n      pop\n        /* \"#utility.yul\":2124:2237   */\n      swap2\n      swap1\n      pop\n      jump\t// out\n        /* \"#utility.yul\":2273:3005   */\n    tag_52:\n        /* \"#utility.yul\":2392:2395   */\n      0x00\n        /* \"#utility.yul\":2421:2475   */\n      tag_81\n        /* \"#utility.yul\":2469:2474   */\n      dup3\n        /* \"#utility.yul\":2421:2475   */\n      tag_46\n      jump\t// in\n    tag_81:\n        /* \"#utility.yul\":2491:2577   */\n      tag_82\n        /* \"#utility.yul\":2570:2576   */\n      dup2\n        /* \"#utility.yul\":2565:2568   */\n      dup6\n        /* \"#utility.yul\":2491:2577   */\n      tag_47\n      jump\t// in\n    tag_82:\n        /* \"#utility.yul\":2484:2577   */\n      swap4\n      pop\n        /* \"#utility.yul\":2601:2657   */\n      tag_83\n        /* \"#utility.yul\":2651:2656   */\n      dup4\n        /* \"#utility.yul\":2601:2657   */\n      tag_48\n      jump\t// in\n    tag_83:\n        /* \"#utility.yul\":2680:2687   */\n      dup1\n        /* \"#utility.yul\":2711:2712   */\n      0x00\n        /* \"#utility.yul\":2696:2980   */\n    tag_84:\n        /* \"#utility.yul\":2721:2727   */\n      dup4\n        /* \"#utility.yul\":2718:2719   */\n      dup2\n        /* \"#utility.yul\":2715:2728   */\n      lt\n        /* \"#utility.yul\":2696:2980   */\n      iszero\n      tag_86\n      jumpi\n        /* \"#utility.yul\":2797:2803   */\n      dup2\n        /* \"#utility.yul\":2791:2804   */\n      mload\n        /* \"#utility.yul\":2824:2887   */\n      tag_87\n        /* \"#utility.yul\":2883:2886   */\n      dup9\n        /* \"#utility.yul\":2868:2881   */\n      dup3\n        /* \"#utility.yul\":2824:2887   */\n      tag_50\n      jump\t// in\n    tag_87:\n        /* \"#utility.yul\":2817:2887   */\n      swap8\n      pop\n        /* \"#utility.yul\":2910:2970   */\n      tag_88\n        /* \"#utility.yul\":2963:2969   */\n      dup4\n        /* \"#utility.yul\":2910:2970   */\n      tag_51\n      jump\t// in\n    tag_88:\n        /* \"#utility.yul\":2900:2970   */\n      swap3\n      pop\n        /* \"#utility.yul\":2756:2980   */\n      pop\n        /* \"#utility.yul\":2743:2744   */\n      0x01\n        /* \"#utility.yul\":2740:2741   */\n      dup2\n        /* \"#utility.yul\":2736:2745   */\n      add\n        /* \"#utility.yul\":2731:2745   */\n      swap1\n      pop\n        /* \"#utility.yul\":2696:2980   */\n      jump(tag_84)\n    tag_86:\n        /* \"#utility.yul\":2700:2714   */\n      pop\n        /* \"#utility.yul\":2996:2999   */\n      dup6\n        /* \"#utility.yul\":2989:2999   */\n      swap4\n      pop\n        /* \"#utility.yul\":2397:3005   */\n      pop\n      pop\n      pop\n        /* \"#utility.yul\":2273:3005   */\n      swap3\n      swap2\n      pop\n      pop\n      jump\t// out\n        /* \"#utility.yul\":3011:3384   */\n    tag_16:\n        /* \"#utility.yul\":3154:3158   */\n      0x00\n        /* \"#utility.yul\":3192:3194   */\n      0x20\n        /* \"#utility.yul\":3181:3190   */\n      dup3\n        /* \"#utility.yul\":3177:3195   */\n      add\n        /* \"#utility.yul\":3169:3195   */\n      swap1\n      pop\n        /* \"#utility.yul\":3241:3250   */\n      dup2\n        /* \"#utility.yul\":3235:3239   */\n      dup2\n        /* \"#utility.yul\":3231:3251   */\n      sub\n        /* \"#utility.yul\":3227:3228   */\n      0x00\n        /* \"#utility.yul\":3216:3225   */\n      dup4\n        /* \"#utility.yul\":3212:3229   */\n      add\n        /* \"#utility.yul\":3205:3252   */\n      mstore\n        /* \"#utility.yul\":3269:3377   */\n      tag_90\n        /* \"#utility.yul\":3372:3376   */\n      dup2\n        /* \"#utility.yul\":3363:3369   */\n      dup5\n        /* \"#utility.yul\":3269:3377   */\n      tag_52\n      jump\t// in\n    tag_90:\n        /* \"#utility.yul\":3261:3377   */\n      swap1\n      pop\n        /* \"#utility.yul\":3011:3384   */\n      swap3\n      swap2\n      pop\n      pop\n      jump\t// out\n        /* \"#utility.yul\":3390:3570   */\n    tag_53:\n        /* \"#utility.yul\":3438:3515   */\n      0x4e487b7100000000000000000000000000000000000000000000000000000000\n        /* \"#utility.yul\":3435:3436   */\n      0x00\n        /* \"#utility.yul\":3428:3516   */\n      mstore\n        /* \"#utility.yul\":3535:3539   */\n      0x11\n        /* \"#utility.yul\":3532:3533   */\n      0x04\n        /* \"#utility.yul\":3525:3540   */\n      mstore\n        /* \"#utility.yul\":3559:3563   */\n      0x24\n        /* \"#utility.yul\":3556:3557   */\n      0x00\n        /* \"#utility.yul\":3549:3564   */\n      revert\n        /* \"#utility.yul\":3576:3770   */\n    tag_24:\n        /* \"#utility.yul\":3616:3620   */\n      0x00\n        /* \"#utility.yul\":3636:3656   */\n      tag_93\n        /* \"#utility.yul\":3654:3655   */\n      dup3\n        /* \"#utility.yul\":3636:3656   */\n      tag_42\n      jump\t// in\n    tag_93:\n        /* \"#utility.yul\":3631:3656   */\n      swap2\n      pop\n        /* \"#utility.yul\":3670:3690   */\n      tag_94\n        /* \"#utility.yul\":3688:3689   */\n      dup4\n        /* \"#utility.yul\":3670:3690   */\n      tag_42\n      jump\t// in\n    tag_94:\n        /* \"#utility.yul\":3665:3690   */\n      swap3\n      pop\n        /* \"#utility.yul\":3714:3715   */\n      dup3\n        /* \"#utility.yul\":3711:3712   */\n      dup3\n        /* \"#utility.yul\":3707:3716   */\n      sub\n        /* \"#utility.yul\":3699:3716   */\n      swap1\n      pop\n        /* \"#utility.yul\":3738:3739   */\n      dup2\n        /* \"#utility.yul\":3732:3736   */\n      dup2\n        /* \"#utility.yul\":3729:3740   */\n      gt\n        /* \"#utility.yul\":3726:3763   */\n      iszero\n      tag_95\n      jumpi\n        /* \"#utility.yul\":3743:3761   */\n      tag_96\n      tag_53\n      jump\t// in\n    tag_96:\n        /* \"#utility.yul\":3726:3763   */\n    tag_95:\n        /* \"#utility.yul\":3576:3770   */\n      swap3\n      swap2\n      pop\n      pop\n      jump\t// out\n        /* \"#utility.yul\":3776:3956   */\n    tag_27:\n        /* \"#utility.yul\":3824:3901   */\n      0x4e487b7100000000000000000000000000000000000000000000000000000000\n        /* \"#utility.yul\":3821:3822   */\n      0x00\n        /* \"#utility.yul\":3814:3902   */\n      mstore\n        /* \"#utility.yul\":3921:3925   */\n      0x32\n        /* \"#utility.yul\":3918:3919   */\n      0x04\n        /* \"#utility.yul\":3911:3926   */\n      mstore\n        /* \"#utility.yul\":3945:3949   */\n      0x24\n        /* \"#utility.yul\":3942:3943   */\n      0x00\n        /* \"#utility.yul\":3935:3950   */\n      revert\n        /* \"#utility.yul\":3962:4142   */\n    tag_37:\n        /* \"#utility.yul\":4010:4087   */\n      0x4e487b7100000000000000000000000000000000000000000000000000000000\n        /* \"#utility.yul\":4007:4008   */\n      0x00\n        /* \"#utility.yul\":4000:4088   */\n      mstore\n        /* \"#utility.yul\":4107:4111   */\n      0x31\n        /* \"#utility.yul\":4104:4105   */\n      0x04\n        /* \"#utility.yul\":4097:4112   */\n      mstore\n        /* \"#utility.yul\":4131:4135   */\n      0x24\n        /* \"#utility.yul\":4128:4129   */\n      0x00\n        /* \"#utility.yul\":4121:4136   */\n      revert\n\n    auxdata: 0xa2646970667358221220d55d649a2353e0f403e73502b18f5ecf6155087616769cbcdcafcb7248f53ba464736f6c63430008120033\n}\n",
				"bytecode": {
					"linkReferences": {},
					"object": "608060405234801561001057600080fd5b5061040f806100206000396000f3fe608060405234801561001057600080fd5b506004361061004c5760003560e01c8063391392251461005157806353ed514314610081578063bc07865f1461009f578063e65d1594146100bb575b600080fd5b61006b600480360381019061006691906101e1565b6100c5565b604051610078919061021d565b60405180910390f35b6100896100f8565b60405161009691906102f6565b60405180910390f35b6100b960048036038101906100b491906101e1565b610150565b005b6100c361017c565b005b6000806001836100d59190610347565b815481106100e6576100e561037b565b5b90600052602060002001549050919050565b6060600080548060200260200160405190810160405280929190818152602001828054801561014657602002820191906000526020600020905b815481526020019060010190808311610132575b5050505050905090565b600081908060018154018082558091505060019003906000526020600020016000909190919091505550565b600080548061018e5761018d6103aa565b5b60019003818190600052602060002001600090559055565b600080fd5b6000819050919050565b6101be816101ab565b81146101c957600080fd5b50565b6000813590506101db816101b5565b92915050565b6000602082840312156101f7576101f66101a6565b5b6000610205848285016101cc565b91505092915050565b610217816101ab565b82525050565b6000602082019050610232600083018461020e565b92915050565b600081519050919050565b600082825260208201905092915050565b6000819050602082019050919050565b61026d816101ab565b82525050565b600061027f8383610264565b60208301905092915050565b6000602082019050919050565b60006102a382610238565b6102ad8185610243565b93506102b883610254565b8060005b838110156102e95781516102d08882610273565b97506102db8361028b565b9250506001810190506102bc565b5085935050505092915050565b600060208201905081810360008301526103108184610298565b905092915050565b7f4e487b7100000000000000000000000000000000000000000000000000000000600052601160045260246000fd5b6000610352826101ab565b915061035d836101ab565b925082820390508181111561037557610374610318565b5b92915050565b7f4e487b7100000000000000000000000000000000000000000000000000000000600052603260045260246000fd5b7f4e487b7100000000000000000000000000000000000000000000000000000000600052603160045260246000fdfea2646970667358221220d55d649a2353e0f403e73502b18f5ecf6155087616769cbcdcafcb7248f53ba464736f6c63430008120033",
					"opcodes": "PUSH1 0x80 PUSH1 0x40 MSTORE CALLVALUE DUP1 ISZERO PUSH2 0x10 JUMPI PUSH1 0x0 DUP1 REVERT JUMPDEST POP PUSH2 0x40F DUP1 PUSH2 0x20 PUSH1 0x0 CODECOPY PUSH1 0x0 RETURN INVALID PUSH1 0x80 PUSH1 0x40 MSTORE CALLVALUE DUP1 ISZERO PUSH2 0x10 JUMPI PUSH1 0x0 DUP1 REVERT JUMPDEST POP PUSH1 0x4 CALLDATASIZE LT PUSH2 0x4C JUMPI PUSH1 0x0 CALLDATALOAD PUSH1 0xE0 SHR DUP1 PUSH4 0x39139225 EQ PUSH2 0x51 JUMPI DUP1 PUSH4 0x53ED5143 EQ PUSH2 0x81 JUMPI DUP1 PUSH4 0xBC07865F EQ PUSH2 0x9F JUMPI DUP1 PUSH4 0xE65D1594 EQ PUSH2 0xBB JUMPI JUMPDEST PUSH1 0x0 DUP1 REVERT JUMPDEST PUSH2 0x6B PUSH1 0x4 DUP1 CALLDATASIZE SUB DUP2 ADD SWAP1 PUSH2 0x66 SWAP2 SWAP1 PUSH2 0x1E1 JUMP JUMPDEST PUSH2 0xC5 JUMP JUMPDEST PUSH1 0x40 MLOAD PUSH2 0x78 SWAP2 SWAP1 PUSH2 0x21D JUMP JUMPDEST PUSH1 0x40 MLOAD DUP1 SWAP2 SUB SWAP1 RETURN JUMPDEST PUSH2 0x89 PUSH2 0xF8 JUMP JUMPDEST PUSH1 0x40 MLOAD PUSH2 0x96 SWAP2 SWAP1 PUSH2 0x2F6 JUMP JUMPDEST PUSH1 0x40 MLOAD DUP1 SWAP2 SUB SWAP1 RETURN JUMPDEST PUSH2 0xB9 PUSH1 0x4 DUP1 CALLDATASIZE SUB DUP2 ADD SWAP1 PUSH2 0xB4 SWAP2 SWAP1 PUSH2 0x1E1 JUMP JUMPDEST PUSH2 0x150 JUMP JUMPDEST STOP JUMPDEST PUSH2 0xC3 PUSH2 0x17C JUMP JUMPDEST STOP JUMPDEST PUSH1 0x0 DUP1 PUSH1 0x1 DUP4 PUSH2 0xD5 SWAP2 SWAP1 PUSH2 0x347 JUMP JUMPDEST DUP2 SLOAD DUP2 LT PUSH2 0xE6 JUMPI PUSH2 0xE5 PUSH2 0x37B JUMP JUMPDEST JUMPDEST SWAP1 PUSH1 0x0 MSTORE PUSH1 0x20 PUSH1 0x0 KECCAK256 ADD SLOAD SWAP1 POP SWAP2 SWAP1 POP JUMP JUMPDEST PUSH1 0x60 PUSH1 0x0 DUP1 SLOAD DUP1 PUSH1 0x20 MUL PUSH1 0x20 ADD PUSH1 0x40 MLOAD SWAP1 DUP2 ADD PUSH1 0x40 MSTORE DUP1 SWAP3 SWAP2 SWAP1 DUP2 DUP2 MSTORE PUSH1 0x20 ADD DUP3 DUP1 SLOAD DUP1 ISZERO PUSH2 0x146 JUMPI PUSH1 0x20 MUL DUP3 ADD SWAP2 SWAP1 PUSH1 0x0 MSTORE PUSH1 0x20 PUSH1 0x0 KECCAK256 SWAP1 JUMPDEST DUP2 SLOAD DUP2 MSTORE PUSH1 0x20 ADD SWAP1 PUSH1 0x1 ADD SWAP1 DUP1 DUP4 GT PUSH2 0x132 JUMPI JUMPDEST POP POP POP POP POP SWAP1 POP SWAP1 JUMP JUMPDEST PUSH1 0x0 DUP2 SWAP1 DUP1 PUSH1 0x1 DUP2 SLOAD ADD DUP1 DUP3 SSTORE DUP1 SWAP2 POP POP PUSH1 0x1 SWAP1 SUB SWAP1 PUSH1 0x0 MSTORE PUSH1 0x20 PUSH1 0x0 KECCAK256 ADD PUSH1 0x0 SWAP1 SWAP2 SWAP1 SWAP2 SWAP1 SWAP2 POP SSTORE POP JUMP JUMPDEST PUSH1 0x0 DUP1 SLOAD DUP1 PUSH2 0x18E JUMPI PUSH2 0x18D PUSH2 0x3AA JUMP JUMPDEST JUMPDEST PUSH1 0x1 SWAP1 SUB DUP2 DUP2 SWAP1 PUSH1 0x0 MSTORE PUSH1 0x20 PUSH1 0x0 KECCAK256 ADD PUSH1 0x0 SWAP1 SSTORE SWAP1 SSTORE JUMP JUMPDEST PUSH1 0x0 DUP1 REVERT JUMPDEST PUSH1 0x0 DUP2 SWAP1 POP SWAP2 SWAP1 POP JUMP JUMPDEST PUSH2 0x1BE DUP2 PUSH2 0x1AB JUMP JUMPDEST DUP2 EQ PUSH2 0x1C9 JUMPI PUSH1 0x0 DUP1 REVERT JUMPDEST POP JUMP JUMPDEST PUSH1 0x0 DUP2 CALLDATALOAD SWAP1 POP PUSH2 0x1DB DUP2 PUSH2 0x1B5 JUMP JUMPDEST SWAP3 SWAP2 POP POP JUMP JUMPDEST PUSH1 0x0 PUSH1 0x20 DUP3 DUP5 SUB SLT ISZERO PUSH2 0x1F7 JUMPI PUSH2 0x1F6 PUSH2 0x1A6 JUMP JUMPDEST JUMPDEST PUSH1 0x0 PUSH2 0x205 DUP5 DUP3 DUP6 ADD PUSH2 0x1CC JUMP JUMPDEST SWAP2 POP POP SWAP3 SWAP2 POP POP JUMP JUMPDEST PUSH2 0x217 DUP2 PUSH2 0x1AB JUMP JUMPDEST DUP3 MSTORE POP POP JUMP JUMPDEST PUSH1 0x0 PUSH1 0x20 DUP3 ADD SWAP1 POP PUSH2 0x232 PUSH1 0x0 DUP4 ADD DUP5 PUSH2 0x20E JUMP JUMPDEST SWAP3 SWAP2 POP POP JUMP JUMPDEST PUSH1 0x0 DUP2 MLOAD SWAP1 POP SWAP2 SWAP1 POP JUMP JUMPDEST PUSH1 0x0 DUP3 DUP3 MSTORE PUSH1 0x20 DUP3 ADD SWAP1 POP SWAP3 SWAP2 POP POP JUMP JUMPDEST PUSH1 0x0 DUP2 SWAP1 POP PUSH1 0x20 DUP3 ADD SWAP1 POP SWAP2 SWAP1 POP JUMP JUMPDEST PUSH2 0x26D DUP2 PUSH2 0x1AB JUMP JUMPDEST DUP3 MSTORE POP POP JUMP JUMPDEST PUSH1 0x0 PUSH2 0x27F DUP4 DUP4 PUSH2 0x264 JUMP JUMPDEST PUSH1 0x20 DUP4 ADD SWAP1 POP SWAP3 SWAP2 POP POP JUMP JUMPDEST PUSH1 0x0 PUSH1 0x20 DUP3 ADD SWAP1 POP SWAP2 SWAP1 POP JUMP JUMPDEST PUSH1 0x0 PUSH2 0x2A3 DUP3 PUSH2 0x238 JUMP JUMPDEST PUSH2 0x2AD DUP2 DUP6 PUSH2 0x243 JUMP JUMPDEST SWAP4 POP PUSH2 0x2B8 DUP4 PUSH2 0x254 JUMP JUMPDEST DUP1 PUSH1 0x0 JUMPDEST DUP4 DUP2 LT ISZERO PUSH2 0x2E9 JUMPI DUP2 MLOAD PUSH2 0x2D0 DUP9 DUP3 PUSH2 0x273 JUMP JUMPDEST SWAP8 POP PUSH2 0x2DB DUP4 PUSH2 0x28B JUMP JUMPDEST SWAP3 POP POP PUSH1 0x1 DUP2 ADD SWAP1 POP PUSH2 0x2BC JUMP JUMPDEST POP DUP6 SWAP4 POP POP POP POP SWAP3 SWAP2 POP POP JUMP JUMPDEST PUSH1 0x0 PUSH1 0x20 DUP3 ADD SWAP1 POP DUP2 DUP2 SUB PUSH1 0x0 DUP4 ADD MSTORE PUSH2 0x310 DUP2 DUP5 PUSH2 0x298 JUMP JUMPDEST SWAP1 POP SWAP3 SWAP2 POP POP JUMP JUMPDEST PUSH32 0x4E487B7100000000000000000000000000000000000000000000000000000000 PUSH1 0x0 MSTORE PUSH1 0x11 PUSH1 0x4 MSTORE PUSH1 0x24 PUSH1 0x0 REVERT JUMPDEST PUSH1 0x0 PUSH2 0x352 DUP3 PUSH2 0x1AB JUMP JUMPDEST SWAP2 POP PUSH2 0x35D DUP4 PUSH2 0x1AB JUMP JUMPDEST SWAP3 POP DUP3 DUP3 SUB SWAP1 POP DUP2 DUP2 GT ISZERO PUSH2 0x375 JUMPI PUSH2 0x374 PUSH2 0x318 JUMP JUMPDEST JUMPDEST SWAP3 SWAP2 POP POP JUMP JUMPDEST PUSH32 0x4E487B7100000000000000000000000000000000000000000000000000000000 PUSH1 0x0 MSTORE PUSH1 0x32 PUSH1 0x4 MSTORE PUSH1 0x24 PUSH1 0x0 REVERT JUMPDEST PUSH32 0x4E487B7100000000000000000000000000000000000000000000000000000000 PUSH1 0x0 MSTORE PUSH1 0x31 PUSH1 0x4 MSTORE PUSH1 0x24 PUSH1 0x0 REVERT INVALID LOG2 PUSH5 0x6970667358 0x22 SLT KECCAK256 0xD5 0x5D PUSH5 0x9A2353E0F4 SUB 0xE7 CALLDATALOAD MUL 0xB1 DUP16 0x5E 0xCF PUSH2 0x5508 PUSH23 0x16769CBCDCAFCB7248F53BA464736F6C63430008120033 "
				},
				"gasEstimates": {
					"creation": {
						"codeDepositCost": "207800",
						"executionCost": "251",
						"totalCost": "208051"
					},
					"external": {
						"getAll()": "infinite",
						"getN(uint256)": "infinite",
						"popNum()": "29489",
						"pushNum(uint256)": "46851"
					}
				},
				"methodIdentifiers": {
					"getAll()": "53ed5143",
					"getN(uint256)": "39139225",
					"popNum()": "e65d1594",
					"pushNum(uint256)": "bc07865f"
				}
			},
			"storageLayout": {
				"storage": [
					{
						"astId": 309,
						"contract": "contracts-basic/week1.sol:last",
						"label": "numbers",
						"offset": 0,
						"slot": "0",
						"type": "t_array(t_uint256)dyn_storage"
					}
				],
				"types": {
					"t_array(t_uint256)dyn_storage": {
						"base": "t_uint256",
						"encoding": "dynamic_array",
						"label": "uint256[]",
						"numberOfBytes": "32"
					},
					"t_uint256": {
						"encoding": "inplace",
						"label": "uint256",
						"numberOfBytes": "32"
					}
				}
			},
			"userdoc": {
				"kind": "user",
				"methods": {},
				"version": 1
			}
		}
	}
}