{
	"contracts-basic/week1.sol": {
		"Calculator": {
			"abi": [
				{
					"inputs": [
						{
							"internalType": "uint256",
							"name": "_a",
							"type": "uint256"
						},
						{
							"internalType": "uint256",
							"name": "_b",
							"type": "uint256"
						}
					],
					"name": "add",
					"outputs": [
						{
							"internalType": "uint256",
							"name": "",
							"type": "uint256"
						}
					],
					"stateMutability": "pure",
					"type": "function"
				},
				{
					"inputs": [
						{
							"internalType": "uint256",
							"name": "_n",
							"type": "uint256"
						}
					],
					"name": "cubic",
					"outputs": [
						{
							"internalType": "uint256",
							"name": "",
							"type": "uint256"
						}
					],
					"stateMutability": "pure",
					"type": "function"
				},
				{
					"inputs": [
						{
							"internalType": "uint256",
							"name": "_a",
							"type": "uint256"
						},
						{
							"internalType": "uint256",
							"name": "_b",
							"type": "uint256"
						}
					],
					"name": "divide",
					"outputs": [
						{
							"internalType": "uint256",
							"name": "",
							"type": "uint256"
						}
					],
					"stateMutability": "pure",
					"type": "function"
				},
				{
					"inputs": [
						{
							"internalType": "uint256",
							"name": "_a",
							"type": "uint256"
						},
						{
							"internalType": "uint256",
							"name": "_b",
							"type": "uint256"
						}
					],
					"name": "multiply",
					"outputs": [
						{
							"internalType": "uint256",
							"name": "",
							"type": "uint256"
						}
					],
					"stateMutability": "pure",
					"type": "function"
				},
				{
					"inputs": [
						{
							"internalType": "uint256",
							"name": "_n",
							"type": "uint256"
						}
					],
					"name": "square",
					"outputs": [
						{
							"internalType": "uint256",
							"name": "",
							"type": "uint256"
						}
					],
					"stateMutability": "pure",
					"type": "function"
				},
				{
					"inputs": [
						{
							"internalType": "uint256",
							"name": "_a",
							"type": "uint256"
						},
						{
							"internalType": "uint256",
							"name": "_b",
							"type": "uint256"
						}
					],
					"name": "substract",
					"outputs": [
						{
							"internalType": "uint256",
							"name": "",
							"type": "uint256"
						}
					],
					"stateMutability": "pure",
					"type": "function"
				}
			],
			"devdoc": {
				"kind": "dev",
				"methods": {},
				"version": 1
			},
			"evm": {
				"assembly": "    /* \"contracts-basic/week1.sol\":63:659  contract Calculator {... */\n  mstore(0x40, 0x80)\n  callvalue\n  dup1\n  iszero\n  tag_1\n  jumpi\n  0x00\n  dup1\n  revert\ntag_1:\n  pop\n  dataSize(sub_0)\n  dup1\n  dataOffset(sub_0)\n  0x00\n  codecopy\n  0x00\n  return\nstop\n\nsub_0: assembly {\n        /* \"contracts-basic/week1.sol\":63:659  contract Calculator {... */\n      mstore(0x40, 0x80)\n      callvalue\n      dup1\n      iszero\n      tag_1\n      jumpi\n      0x00\n      dup1\n      revert\n    tag_1:\n      pop\n      jumpi(tag_2, lt(calldatasize, 0x04))\n      shr(0xe0, calldataload(0x00))\n      dup1\n      0x165c4a16\n      eq\n      tag_3\n      jumpi\n      dup1\n      0x31735cfb\n      eq\n      tag_4\n      jumpi\n      dup1\n      0x5d4e1e5c\n      eq\n      tag_5\n      jumpi\n      dup1\n      0x771602f7\n      eq\n      tag_6\n      jumpi\n      dup1\n      0x7b292909\n      eq\n      tag_7\n      jumpi\n      dup1\n      0xf88e9fbf\n      eq\n      tag_8\n      jumpi\n    tag_2:\n      0x00\n      dup1\n      revert\n        /* \"contracts-basic/week1.sol\":292:385  function multiply(uint _a, uint _b) public pure returns(uint) {... */\n    tag_3:\n      tag_9\n      0x04\n      dup1\n      calldatasize\n      sub\n      dup2\n      add\n      swap1\n      tag_10\n      swap2\n      swap1\n      tag_11\n      jump\t// in\n    tag_10:\n      tag_12\n      jump\t// in\n    tag_9:\n      mload(0x40)\n      tag_13\n      swap2\n      swap1\n      tag_14\n      jump\t// in\n    tag_13:\n      mload(0x40)\n      dup1\n      swap2\n      sub\n      swap1\n      return\n        /* \"contracts-basic/week1.sol\":576:657  function cubic(uint _n) public pure returns(uint) {... */\n    tag_4:\n      tag_15\n      0x04\n      dup1\n      calldatasize\n      sub\n      dup2\n      add\n      swap1\n      tag_16\n      swap2\n      swap1\n      tag_17\n      jump\t// in\n    tag_16:\n      tag_18\n      jump\t// in\n    tag_15:\n      mload(0x40)\n      tag_19\n      swap2\n      swap1\n      tag_14\n      jump\t// in\n    tag_19:\n      mload(0x40)\n      dup1\n      swap2\n      sub\n      swap1\n      return\n        /* \"contracts-basic/week1.sol\":188:282  function substract(uint _a, uint _b) public pure returns(uint) {... */\n    tag_5:\n      tag_20\n      0x04\n      dup1\n      calldatasize\n      sub\n      dup2\n      add\n      swap1\n      tag_21\n      swap2\n      swap1\n      tag_11\n      jump\t// in\n    tag_21:\n      tag_22\n      jump\t// in\n    tag_20:\n      mload(0x40)\n      tag_23\n      swap2\n      swap1\n      tag_14\n      jump\t// in\n    tag_23:\n      mload(0x40)\n      dup1\n      swap2\n      sub\n      swap1\n      return\n        /* \"contracts-basic/week1.sol\":89:177  function add(uint _a, uint _b) public pure returns(uint) {... */\n    tag_6:\n      tag_24\n      0x04\n      dup1\n      calldatasize\n      sub\n      dup2\n      add\n      swap1\n      tag_25\n      swap2\n      swap1\n      tag_11\n      jump\t// in\n    tag_25:\n      tag_26\n      jump\t// in\n    tag_24:\n      mload(0x40)\n      tag_27\n      swap2\n      swap1\n      tag_14\n      jump\t// in\n    tag_27:\n      mload(0x40)\n      dup1\n      swap2\n      sub\n      swap1\n      return\n        /* \"contracts-basic/week1.sol\":488:570  function square(uint _n) public pure returns(uint) {... */\n    tag_7:\n      tag_28\n      0x04\n      dup1\n      calldatasize\n      sub\n      dup2\n      add\n      swap1\n      tag_29\n      swap2\n      swap1\n      tag_17\n      jump\t// in\n    tag_29:\n      tag_30\n      jump\t// in\n    tag_28:\n      mload(0x40)\n      tag_31\n      swap2\n      swap1\n      tag_14\n      jump\t// in\n    tag_31:\n      mload(0x40)\n      dup1\n      swap2\n      sub\n      swap1\n      return\n        /* \"contracts-basic/week1.sol\":391:482  function divide(uint _a, uint _b) public pure returns(uint) {... */\n    tag_8:\n      tag_32\n      0x04\n      dup1\n      calldatasize\n      sub\n      dup2\n      add\n      swap1\n      tag_33\n      swap2\n      swap1\n      tag_11\n      jump\t// in\n    tag_33:\n      tag_34\n      jump\t// in\n    tag_32:\n      mload(0x40)\n      tag_35\n      swap2\n      swap1\n      tag_14\n      jump\t// in\n    tag_35:\n      mload(0x40)\n      dup1\n      swap2\n      sub\n      swap1\n      return\n        /* \"contracts-basic/week1.sol\":292:385  function multiply(uint _a, uint _b) public pure returns(uint) {... */\n    tag_12:\n        /* \"contracts-basic/week1.sol\":348:352  uint */\n      0x00\n        /* \"contracts-basic/week1.sol\":375:377  _b */\n      dup2\n        /* \"contracts-basic/week1.sol\":372:374  _a */\n      dup4\n        /* \"contracts-basic/week1.sol\":372:377  _a*_b */\n      tag_37\n      swap2\n      swap1\n      tag_38\n      jump\t// in\n    tag_37:\n        /* \"contracts-basic/week1.sol\":364:378  return (_a*_b) */\n      swap1\n      pop\n        /* \"contracts-basic/week1.sol\":292:385  function multiply(uint _a, uint _b) public pure returns(uint) {... */\n      swap3\n      swap2\n      pop\n      pop\n      jump\t// out\n        /* \"contracts-basic/week1.sol\":576:657  function cubic(uint _n) public pure returns(uint) {... */\n    tag_18:\n        /* \"contracts-basic/week1.sol\":620:624  uint */\n      0x00\n        /* \"contracts-basic/week1.sol\":648:649  3 */\n      0x03\n        /* \"contracts-basic/week1.sol\":644:646  _n */\n      dup3\n        /* \"contracts-basic/week1.sol\":644:649  _n**3 */\n      tag_40\n      swap2\n      swap1\n      tag_41\n      jump\t// in\n    tag_40:\n        /* \"contracts-basic/week1.sol\":636:650  return (_n**3) */\n      swap1\n      pop\n        /* \"contracts-basic/week1.sol\":576:657  function cubic(uint _n) public pure returns(uint) {... */\n      swap2\n      swap1\n      pop\n      jump\t// out\n        /* \"contracts-basic/week1.sol\":188:282  function substract(uint _a, uint _b) public pure returns(uint) {... */\n    tag_22:\n        /* \"contracts-basic/week1.sol\":245:249  uint */\n      0x00\n        /* \"contracts-basic/week1.sol\":272:274  _b */\n      dup2\n        /* \"contracts-basic/week1.sol\":269:271  _a */\n      dup4\n        /* \"contracts-basic/week1.sol\":269:274  _a-_b */\n      tag_43\n      swap2\n      swap1\n      tag_44\n      jump\t// in\n    tag_43:\n        /* \"contracts-basic/week1.sol\":261:275  return (_a-_b) */\n      swap1\n      pop\n        /* \"contracts-basic/week1.sol\":188:282  function substract(uint _a, uint _b) public pure returns(uint) {... */\n      swap3\n      swap2\n      pop\n      pop\n      jump\t// out\n        /* \"contracts-basic/week1.sol\":89:177  function add(uint _a, uint _b) public pure returns(uint) {... */\n    tag_26:\n        /* \"contracts-basic/week1.sol\":140:144  uint */\n      0x00\n        /* \"contracts-basic/week1.sol\":167:169  _b */\n      dup2\n        /* \"contracts-basic/week1.sol\":164:166  _a */\n      dup4\n        /* \"contracts-basic/week1.sol\":164:169  _a+_b */\n      tag_46\n      swap2\n      swap1\n      tag_47\n      jump\t// in\n    tag_46:\n        /* \"contracts-basic/week1.sol\":156:170  return (_a+_b) */\n      swap1\n      pop\n        /* \"contracts-basic/week1.sol\":89:177  function add(uint _a, uint _b) public pure returns(uint) {... */\n      swap3\n      swap2\n      pop\n      pop\n      jump\t// out\n        /* \"contracts-basic/week1.sol\":488:570  function square(uint _n) public pure returns(uint) {... */\n    tag_30:\n        /* \"contracts-basic/week1.sol\":533:537  uint */\n      0x00\n        /* \"contracts-basic/week1.sol\":561:562  2 */\n      0x02\n        /* \"contracts-basic/week1.sol\":557:559  _n */\n      dup3\n        /* \"contracts-basic/week1.sol\":557:562  _n**2 */\n      tag_49\n      swap2\n      swap1\n      tag_41\n      jump\t// in\n    tag_49:\n        /* \"contracts-basic/week1.sol\":549:563  return (_n**2) */\n      swap1\n      pop\n        /* \"contracts-basic/week1.sol\":488:570  function square(uint _n) public pure returns(uint) {... */\n      swap2\n      swap1\n      pop\n      jump\t// out\n        /* \"contracts-basic/week1.sol\":391:482  function divide(uint _a, uint _b) public pure returns(uint) {... */\n    tag_34:\n        /* \"contracts-basic/week1.sol\":445:449  uint */\n      0x00\n        /* \"contracts-basic/week1.sol\":472:474  _b */\n      dup2\n        /* \"contracts-basic/week1.sol\":469:471  _a */\n      dup4\n        /* \"contracts-basic/week1.sol\":469:474  _a/_b */\n      tag_51\n      swap2\n      swap1\n      tag_52\n      jump\t// in\n    tag_51:\n        /* \"contracts-basic/week1.sol\":461:475  return (_a/_b) */\n      swap1\n      pop\n        /* \"contracts-basic/week1.sol\":391:482  function divide(uint _a, uint _b) public pure returns(uint) {... */\n      swap3\n      swap2\n      pop\n      pop\n      jump\t// out\n        /* \"#utility.yul\":88:205   */\n    tag_54:\n        /* \"#utility.yul\":197:198   */\n      0x00\n        /* \"#utility.yul\":194:195   */\n      dup1\n        /* \"#utility.yul\":187:199   */\n      revert\n        /* \"#utility.yul\":334:411   */\n    tag_56:\n        /* \"#utility.yul\":371:378   */\n      0x00\n        /* \"#utility.yul\":400:405   */\n      dup2\n        /* \"#utility.yul\":389:405   */\n      swap1\n      pop\n        /* \"#utility.yul\":334:411   */\n      swap2\n      swap1\n      pop\n      jump\t// out\n        /* \"#utility.yul\":417:539   */\n    tag_57:\n        /* \"#utility.yul\":490:514   */\n      tag_72\n        /* \"#utility.yul\":508:513   */\n      dup2\n        /* \"#utility.yul\":490:514   */\n      tag_56\n      jump\t// in\n    tag_72:\n        /* \"#utility.yul\":483:488   */\n      dup2\n        /* \"#utility.yul\":480:515   */\n      eq\n        /* \"#utility.yul\":470:533   */\n      tag_73\n      jumpi\n        /* \"#utility.yul\":529:530   */\n      0x00\n        /* \"#utility.yul\":526:527   */\n      dup1\n        /* \"#utility.yul\":519:531   */\n      revert\n        /* \"#utility.yul\":470:533   */\n    tag_73:\n        /* \"#utility.yul\":417:539   */\n      pop\n      jump\t// out\n        /* \"#utility.yul\":545:684   */\n    tag_58:\n        /* \"#utility.yul\":591:596   */\n      0x00\n        /* \"#utility.yul\":629:635   */\n      dup2\n        /* \"#utility.yul\":616:636   */\n      calldataload\n        /* \"#utility.yul\":607:636   */\n      swap1\n      pop\n        /* \"#utility.yul\":645:678   */\n      tag_75\n        /* \"#utility.yul\":672:677   */\n      dup2\n        /* \"#utility.yul\":645:678   */\n      tag_57\n      jump\t// in\n    tag_75:\n        /* \"#utility.yul\":545:684   */\n      swap3\n      swap2\n      pop\n      pop\n      jump\t// out\n        /* \"#utility.yul\":690:1164   */\n    tag_11:\n        /* \"#utility.yul\":758:764   */\n      0x00\n        /* \"#utility.yul\":766:772   */\n      dup1\n        /* \"#utility.yul\":815:817   */\n      0x40\n        /* \"#utility.yul\":803:812   */\n      dup4\n        /* \"#utility.yul\":794:801   */\n      dup6\n        /* \"#utility.yul\":790:813   */\n      sub\n        /* \"#utility.yul\":786:818   */\n      slt\n        /* \"#utility.yul\":783:902   */\n      iszero\n      tag_77\n      jumpi\n        /* \"#utility.yul\":821:900   */\n      tag_78\n      tag_54\n      jump\t// in\n    tag_78:\n        /* \"#utility.yul\":783:902   */\n    tag_77:\n        /* \"#utility.yul\":941:942   */\n      0x00\n        /* \"#utility.yul\":966:1019   */\n      tag_79\n        /* \"#utility.yul\":1011:1018   */\n      dup6\n        /* \"#utility.yul\":1002:1008   */\n      dup3\n        /* \"#utility.yul\":991:1000   */\n      dup7\n        /* \"#utility.yul\":987:1009   */\n      add\n        /* \"#utility.yul\":966:1019   */\n      tag_58\n      jump\t// in\n    tag_79:\n        /* \"#utility.yul\":956:1019   */\n      swap3\n      pop\n        /* \"#utility.yul\":912:1029   */\n      pop\n        /* \"#utility.yul\":1068:1070   */\n      0x20\n        /* \"#utility.yul\":1094:1147   */\n      tag_80\n        /* \"#utility.yul\":1139:1146   */\n      dup6\n        /* \"#utility.yul\":1130:1136   */\n      dup3\n        /* \"#utility.yul\":1119:1128   */\n      dup7\n        /* \"#utility.yul\":1115:1137   */\n      add\n        /* \"#utility.yul\":1094:1147   */\n      tag_58\n      jump\t// in\n    tag_80:\n        /* \"#utility.yul\":1084:1147   */\n      swap2\n      pop\n        /* \"#utility.yul\":1039:1157   */\n      pop\n        /* \"#utility.yul\":690:1164   */\n      swap3\n      pop\n      swap3\n      swap1\n      pop\n      jump\t// out\n        /* \"#utility.yul\":1170:1288   */\n    tag_59:\n        /* \"#utility.yul\":1257:1281   */\n      tag_82\n        /* \"#utility.yul\":1275:1280   */\n      dup2\n        /* \"#utility.yul\":1257:1281   */\n      tag_56\n      jump\t// in\n    tag_82:\n        /* \"#utility.yul\":1252:1255   */\n      dup3\n        /* \"#utility.yul\":1245:1282   */\n      mstore\n        /* \"#utility.yul\":1170:1288   */\n      pop\n      pop\n      jump\t// out\n        /* \"#utility.yul\":1294:1516   */\n    tag_14:\n        /* \"#utility.yul\":1387:1391   */\n      0x00\n        /* \"#utility.yul\":1425:1427   */\n      0x20\n        /* \"#utility.yul\":1414:1423   */\n      dup3\n        /* \"#utility.yul\":1410:1428   */\n      add\n        /* \"#utility.yul\":1402:1428   */\n      swap1\n      pop\n        /* \"#utility.yul\":1438:1509   */\n      tag_84\n        /* \"#utility.yul\":1506:1507   */\n      0x00\n        /* \"#utility.yul\":1495:1504   */\n      dup4\n        /* \"#utility.yul\":1491:1508   */\n      add\n        /* \"#utility.yul\":1482:1488   */\n      dup5\n        /* \"#utility.yul\":1438:1509   */\n      tag_59\n      jump\t// in\n    tag_84:\n        /* \"#utility.yul\":1294:1516   */\n      swap3\n      swap2\n      pop\n      pop\n      jump\t// out\n        /* \"#utility.yul\":1522:1851   */\n    tag_17:\n        /* \"#utility.yul\":1581:1587   */\n      0x00\n        /* \"#utility.yul\":1630:1632   */\n      0x20\n        /* \"#utility.yul\":1618:1627   */\n      dup3\n        /* \"#utility.yul\":1609:1616   */\n      dup5\n        /* \"#utility.yul\":1605:1628   */\n      sub\n        /* \"#utility.yul\":1601:1633   */\n      slt\n        /* \"#utility.yul\":1598:1717   */\n      iszero\n      tag_86\n      jumpi\n        /* \"#utility.yul\":1636:1715   */\n      tag_87\n      tag_54\n      jump\t// in\n    tag_87:\n        /* \"#utility.yul\":1598:1717   */\n    tag_86:\n        /* \"#utility.yul\":1756:1757   */\n      0x00\n        /* \"#utility.yul\":1781:1834   */\n      tag_88\n        /* \"#utility.yul\":1826:1833   */\n      dup5\n        /* \"#utility.yul\":1817:1823   */\n      dup3\n        /* \"#utility.yul\":1806:1815   */\n      dup6\n        /* \"#utility.yul\":1802:1824   */\n      add\n        /* \"#utility.yul\":1781:1834   */\n      tag_58\n      jump\t// in\n    tag_88:\n        /* \"#utility.yul\":1771:1834   */\n      swap2\n      pop\n        /* \"#utility.yul\":1727:1844   */\n      pop\n        /* \"#utility.yul\":1522:1851   */\n      swap3\n      swap2\n      pop\n      pop\n      jump\t// out\n        /* \"#utility.yul\":1857:2037   */\n    tag_60:\n        /* \"#utility.yul\":1905:1982   */\n      0x4e487b7100000000000000000000000000000000000000000000000000000000\n        /* \"#utility.yul\":1902:1903   */\n      0x00\n        /* \"#utility.yul\":1895:1983   */\n      mstore\n        /* \"#utility.yul\":2002:2006   */\n      0x11\n        /* \"#utility.yul\":1999:2000   */\n      0x04\n        /* \"#utility.yul\":1992:2007   */\n      mstore\n        /* \"#utility.yul\":2026:2030   */\n      0x24\n        /* \"#utility.yul\":2023:2024   */\n      0x00\n        /* \"#utility.yul\":2016:2031   */\n      revert\n        /* \"#utility.yul\":2043:2453   */\n    tag_38:\n        /* \"#utility.yul\":2083:2090   */\n      0x00\n        /* \"#utility.yul\":2106:2126   */\n      tag_91\n        /* \"#utility.yul\":2124:2125   */\n      dup3\n        /* \"#utility.yul\":2106:2126   */\n      tag_56\n      jump\t// in\n    tag_91:\n        /* \"#utility.yul\":2101:2126   */\n      swap2\n      pop\n        /* \"#utility.yul\":2140:2160   */\n      tag_92\n        /* \"#utility.yul\":2158:2159   */\n      dup4\n        /* \"#utility.yul\":2140:2160   */\n      tag_56\n      jump\t// in\n    tag_92:\n        /* \"#utility.yul\":2135:2160   */\n      swap3\n      pop\n        /* \"#utility.yul\":2195:2196   */\n      dup3\n        /* \"#utility.yul\":2192:2193   */\n      dup3\n        /* \"#utility.yul\":2188:2197   */\n      mul\n        /* \"#utility.yul\":2217:2247   */\n      tag_93\n        /* \"#utility.yul\":2235:2246   */\n      dup2\n        /* \"#utility.yul\":2217:2247   */\n      tag_56\n      jump\t// in\n    tag_93:\n        /* \"#utility.yul\":2206:2247   */\n      swap2\n      pop\n        /* \"#utility.yul\":2396:2397   */\n      dup3\n        /* \"#utility.yul\":2387:2394   */\n      dup3\n        /* \"#utility.yul\":2383:2398   */\n      div\n        /* \"#utility.yul\":2380:2381   */\n      dup5\n        /* \"#utility.yul\":2377:2399   */\n      eq\n        /* \"#utility.yul\":2357:2358   */\n      dup4\n        /* \"#utility.yul\":2350:2359   */\n      iszero\n        /* \"#utility.yul\":2330:2413   */\n      or\n        /* \"#utility.yul\":2307:2446   */\n      tag_94\n      jumpi\n        /* \"#utility.yul\":2426:2444   */\n      tag_95\n      tag_60\n      jump\t// in\n    tag_95:\n        /* \"#utility.yul\":2307:2446   */\n    tag_94:\n        /* \"#utility.yul\":2091:2453   */\n      pop\n        /* \"#utility.yul\":2043:2453   */\n      swap3\n      swap2\n      pop\n      pop\n      jump\t// out\n        /* \"#utility.yul\":2459:2561   */\n    tag_61:\n        /* \"#utility.yul\":2501:2509   */\n      0x00\n        /* \"#utility.yul\":2548:2553   */\n      dup2\n        /* \"#utility.yul\":2545:2546   */\n      0x01\n        /* \"#utility.yul\":2541:2554   */\n      shr\n        /* \"#utility.yul\":2520:2554   */\n      swap1\n      pop\n        /* \"#utility.yul\":2459:2561   */\n      swap2\n      swap1\n      pop\n      jump\t// out\n        /* \"#utility.yul\":2567:3415   */\n    tag_62:\n        /* \"#utility.yul\":2628:2633   */\n      0x00\n        /* \"#utility.yul\":2635:2639   */\n      dup1\n        /* \"#utility.yul\":2659:2665   */\n      dup3\n        /* \"#utility.yul\":2650:2665   */\n      swap2\n      pop\n        /* \"#utility.yul\":2683:2688   */\n      dup4\n        /* \"#utility.yul\":2674:2688   */\n      swap1\n      pop\n        /* \"#utility.yul\":2697:3409   */\n    tag_98:\n        /* \"#utility.yul\":2718:2719   */\n      0x01\n        /* \"#utility.yul\":2708:2716   */\n      dup6\n        /* \"#utility.yul\":2705:2720   */\n      gt\n        /* \"#utility.yul\":2697:3409   */\n      iszero\n      tag_100\n      jumpi\n        /* \"#utility.yul\":2813:2817   */\n      dup1\n        /* \"#utility.yul\":2808:2811   */\n      dup7\n        /* \"#utility.yul\":2804:2818   */\n      div\n        /* \"#utility.yul\":2798:2802   */\n      dup2\n        /* \"#utility.yul\":2795:2819   */\n      gt\n        /* \"#utility.yul\":2792:2842   */\n      iszero\n      tag_101\n      jumpi\n        /* \"#utility.yul\":2822:2840   */\n      tag_102\n      tag_60\n      jump\t// in\n    tag_102:\n        /* \"#utility.yul\":2792:2842   */\n    tag_101:\n        /* \"#utility.yul\":2872:2873   */\n      0x01\n        /* \"#utility.yul\":2862:2870   */\n      dup6\n        /* \"#utility.yul\":2858:2874   */\n      and\n        /* \"#utility.yul\":2855:3306   */\n      iszero\n      tag_103\n      jumpi\n        /* \"#utility.yul\":3287:3291   */\n      dup1\n        /* \"#utility.yul\":3280:3285   */\n      dup3\n        /* \"#utility.yul\":3276:3292   */\n      mul\n        /* \"#utility.yul\":3267:3292   */\n      swap2\n      pop\n        /* \"#utility.yul\":2855:3306   */\n    tag_103:\n        /* \"#utility.yul\":3337:3341   */\n      dup1\n        /* \"#utility.yul\":3331:3335   */\n      dup2\n        /* \"#utility.yul\":3327:3342   */\n      mul\n        /* \"#utility.yul\":3319:3342   */\n      swap1\n      pop\n        /* \"#utility.yul\":3367:3399   */\n      tag_104\n        /* \"#utility.yul\":3390:3398   */\n      dup6\n        /* \"#utility.yul\":3367:3399   */\n      tag_61\n      jump\t// in\n    tag_104:\n        /* \"#utility.yul\":3355:3399   */\n      swap5\n      pop\n        /* \"#utility.yul\":2697:3409   */\n      jump(tag_98)\n    tag_100:\n        /* \"#utility.yul\":2567:3415   */\n      swap5\n      pop\n      swap5\n      swap3\n      pop\n      pop\n      pop\n      jump\t// out\n        /* \"#utility.yul\":3421:4494   */\n    tag_63:\n        /* \"#utility.yul\":3475:3480   */\n      0x00\n        /* \"#utility.yul\":3666:3674   */\n      dup3\n        /* \"#utility.yul\":3656:3696   */\n      tag_106\n      jumpi\n        /* \"#utility.yul\":3687:3688   */\n      0x01\n        /* \"#utility.yul\":3678:3688   */\n      swap1\n      pop\n        /* \"#utility.yul\":3689:3694   */\n      jump(tag_105)\n        /* \"#utility.yul\":3656:3696   */\n    tag_106:\n        /* \"#utility.yul\":3715:3719   */\n      dup2\n        /* \"#utility.yul\":3705:3741   */\n      tag_107\n      jumpi\n        /* \"#utility.yul\":3732:3733   */\n      0x00\n        /* \"#utility.yul\":3723:3733   */\n      swap1\n      pop\n        /* \"#utility.yul\":3734:3739   */\n      jump(tag_105)\n        /* \"#utility.yul\":3705:3741   */\n    tag_107:\n        /* \"#utility.yul\":3801:3805   */\n      dup2\n        /* \"#utility.yul\":3849:3850   */\n      0x01\n        /* \"#utility.yul\":3844:3871   */\n      dup2\n      eq\n      tag_109\n      jumpi\n        /* \"#utility.yul\":3885:3886   */\n      0x02\n        /* \"#utility.yul\":3880:4071   */\n      dup2\n      eq\n      tag_110\n      jumpi\n        /* \"#utility.yul\":3794:4071   */\n      jump(tag_108)\n        /* \"#utility.yul\":3844:3871   */\n    tag_109:\n        /* \"#utility.yul\":3862:3863   */\n      0x01\n        /* \"#utility.yul\":3853:3863   */\n      swap2\n      pop\n        /* \"#utility.yul\":3864:3869   */\n      pop\n      jump(tag_105)\n        /* \"#utility.yul\":3880:4071   */\n    tag_110:\n        /* \"#utility.yul\":3925:3928   */\n      0xff\n        /* \"#utility.yul\":3915:3923   */\n      dup5\n        /* \"#utility.yul\":3912:3929   */\n      gt\n        /* \"#utility.yul\":3909:3952   */\n      iszero\n      tag_111\n      jumpi\n        /* \"#utility.yul\":3932:3950   */\n      tag_112\n      tag_60\n      jump\t// in\n    tag_112:\n        /* \"#utility.yul\":3909:3952   */\n    tag_111:\n        /* \"#utility.yul\":3981:3989   */\n      dup4\n        /* \"#utility.yul\":3978:3979   */\n      0x02\n        /* \"#utility.yul\":3974:3990   */\n      exp\n        /* \"#utility.yul\":3965:3990   */\n      swap2\n      pop\n        /* \"#utility.yul\":4016:4019   */\n      dup5\n        /* \"#utility.yul\":4009:4014   */\n      dup3\n        /* \"#utility.yul\":4006:4020   */\n      gt\n        /* \"#utility.yul\":4003:4043   */\n      iszero\n      tag_113\n      jumpi\n        /* \"#utility.yul\":4023:4041   */\n      tag_114\n      tag_60\n      jump\t// in\n    tag_114:\n        /* \"#utility.yul\":4003:4043   */\n    tag_113:\n        /* \"#utility.yul\":4056:4061   */\n      pop\n      jump(tag_105)\n        /* \"#utility.yul\":3794:4071   */\n    tag_108:\n      pop\n        /* \"#utility.yul\":4180:4182   */\n      0x20\n        /* \"#utility.yul\":4170:4178   */\n      dup4\n        /* \"#utility.yul\":4167:4183   */\n      lt\n        /* \"#utility.yul\":4161:4164   */\n      0x0133\n        /* \"#utility.yul\":4155:4159   */\n      dup4\n        /* \"#utility.yul\":4152:4165   */\n      lt\n        /* \"#utility.yul\":4148:4184   */\n      and\n        /* \"#utility.yul\":4130:4132   */\n      0x4e\n        /* \"#utility.yul\":4120:4128   */\n      dup5\n        /* \"#utility.yul\":4117:4133   */\n      lt\n        /* \"#utility.yul\":4112:4114   */\n      0x0b\n        /* \"#utility.yul\":4106:4110   */\n      dup5\n        /* \"#utility.yul\":4103:4115   */\n      lt\n        /* \"#utility.yul\":4099:4134   */\n      and\n        /* \"#utility.yul\":4083:4194   */\n      or\n        /* \"#utility.yul\":4080:4326   */\n      iszero\n      tag_115\n      jumpi\n        /* \"#utility.yul\":4236:4244   */\n      dup3\n        /* \"#utility.yul\":4230:4234   */\n      dup3\n        /* \"#utility.yul\":4226:4245   */\n      exp\n        /* \"#utility.yul\":4217:4245   */\n      swap1\n      pop\n        /* \"#utility.yul\":4271:4274   */\n      dup4\n        /* \"#utility.yul\":4264:4269   */\n      dup2\n        /* \"#utility.yul\":4261:4275   */\n      gt\n        /* \"#utility.yul\":4258:4298   */\n      iszero\n      tag_116\n      jumpi\n        /* \"#utility.yul\":4278:4296   */\n      tag_117\n      tag_60\n      jump\t// in\n    tag_117:\n        /* \"#utility.yul\":4258:4298   */\n    tag_116:\n        /* \"#utility.yul\":4311:4316   */\n      jump(tag_105)\n        /* \"#utility.yul\":4080:4326   */\n    tag_115:\n        /* \"#utility.yul\":4351:4393   */\n      tag_118\n        /* \"#utility.yul\":4389:4392   */\n      dup5\n        /* \"#utility.yul\":4379:4387   */\n      dup5\n        /* \"#utility.yul\":4373:4377   */\n      dup5\n        /* \"#utility.yul\":4370:4371   */\n      0x01\n        /* \"#utility.yul\":4351:4393   */\n      tag_62\n      jump\t// in\n    tag_118:\n        /* \"#utility.yul\":4336:4393   */\n      swap3\n      pop\n      swap1\n      pop\n        /* \"#utility.yul\":4425:4429   */\n      dup2\n        /* \"#utility.yul\":4420:4423   */\n      dup5\n        /* \"#utility.yul\":4416:4430   */\n      div\n        /* \"#utility.yul\":4409:4414   */\n      dup2\n        /* \"#utility.yul\":4406:4431   */\n      gt\n        /* \"#utility.yul\":4403:4454   */\n      iszero\n      tag_119\n      jumpi\n        /* \"#utility.yul\":4434:4452   */\n      tag_120\n      tag_60\n      jump\t// in\n    tag_120:\n        /* \"#utility.yul\":4403:4454   */\n    tag_119:\n        /* \"#utility.yul\":4483:4487   */\n      dup2\n        /* \"#utility.yul\":4476:4481   */\n      dup2\n        /* \"#utility.yul\":4472:4488   */\n      mul\n        /* \"#utility.yul\":4463:4488   */\n      swap1\n      pop\n        /* \"#utility.yul\":3421:4494   */\n    tag_105:\n      swap4\n      swap3\n      pop\n      pop\n      pop\n      jump\t// out\n        /* \"#utility.yul\":4500:4586   */\n    tag_64:\n        /* \"#utility.yul\":4535:4542   */\n      0x00\n        /* \"#utility.yul\":4575:4579   */\n      0xff\n        /* \"#utility.yul\":4568:4573   */\n      dup3\n        /* \"#utility.yul\":4564:4580   */\n      and\n        /* \"#utility.yul\":4553:4580   */\n      swap1\n      pop\n        /* \"#utility.yul\":4500:4586   */\n      swap2\n      swap1\n      pop\n      jump\t// out\n        /* \"#utility.yul\":4592:4873   */\n    tag_41:\n        /* \"#utility.yul\":4650:4655   */\n      0x00\n        /* \"#utility.yul\":4674:4697   */\n      tag_123\n        /* \"#utility.yul\":4692:4696   */\n      dup3\n        /* \"#utility.yul\":4674:4697   */\n      tag_56\n      jump\t// in\n    tag_123:\n        /* \"#utility.yul\":4666:4697   */\n      swap2\n      pop\n        /* \"#utility.yul\":4718:4743   */\n      tag_124\n        /* \"#utility.yul\":4734:4742   */\n      dup4\n        /* \"#utility.yul\":4718:4743   */\n      tag_64\n      jump\t// in\n    tag_124:\n        /* \"#utility.yul\":4706:4743   */\n      swap3\n      pop\n        /* \"#utility.yul\":4762:4866   */\n      tag_125\n        /* \"#utility.yul\":4799:4865   */\n      0xffffffffffffffffffffffffffffffffffffffffffffffffffffffffffffffff\n        /* \"#utility.yul\":4789:4797   */\n      dup5\n        /* \"#utility.yul\":4783:4787   */\n      dup5\n        /* \"#utility.yul\":4762:4866   */\n      tag_63\n      jump\t// in\n    tag_125:\n        /* \"#utility.yul\":4753:4866   */\n      swap1\n      pop\n        /* \"#utility.yul\":4592:4873   */\n      swap3\n      swap2\n      pop\n      pop\n      jump\t// out\n        /* \"#utility.yul\":4879:5073   */\n    tag_44:\n        /* \"#utility.yul\":4919:4923   */\n      0x00\n        /* \"#utility.yul\":4939:4959   */\n      tag_127\n        /* \"#utility.yul\":4957:4958   */\n      dup3\n        /* \"#utility.yul\":4939:4959   */\n      tag_56\n      jump\t// in\n    tag_127:\n        /* \"#utility.yul\":4934:4959   */\n      swap2\n      pop\n        /* \"#utility.yul\":4973:4993   */\n      tag_128\n        /* \"#utility.yul\":4991:4992   */\n      dup4\n        /* \"#utility.yul\":4973:4993   */\n      tag_56\n      jump\t// in\n    tag_128:\n        /* \"#utility.yul\":4968:4993   */\n      swap3\n      pop\n        /* \"#utility.yul\":5017:5018   */\n      dup3\n        /* \"#utility.yul\":5014:5015   */\n      dup3\n        /* \"#utility.yul\":5010:5019   */\n      sub\n        /* \"#utility.yul\":5002:5019   */\n      swap1\n      pop\n        /* \"#utility.yul\":5041:5042   */\n      dup2\n        /* \"#utility.yul\":5035:5039   */\n      dup2\n        /* \"#utility.yul\":5032:5043   */\n      gt\n        /* \"#utility.yul\":5029:5066   */\n      iszero\n      tag_129\n      jumpi\n        /* \"#utility.yul\":5046:5064   */\n      tag_130\n      tag_60\n      jump\t// in\n    tag_130:\n        /* \"#utility.yul\":5029:5066   */\n    tag_129:\n        /* \"#utility.yul\":4879:5073   */\n      swap3\n      swap2\n      pop\n      pop\n      jump\t// out\n        /* \"#utility.yul\":5079:5270   */\n    tag_47:\n        /* \"#utility.yul\":5119:5122   */\n      0x00\n        /* \"#utility.yul\":5138:5158   */\n      tag_132\n        /* \"#utility.yul\":5156:5157   */\n      dup3\n        /* \"#utility.yul\":5138:5158   */\n      tag_56\n      jump\t// in\n    tag_132:\n        /* \"#utility.yul\":5133:5158   */\n      swap2\n      pop\n        /* \"#utility.yul\":5172:5192   */\n      tag_133\n        /* \"#utility.yul\":5190:5191   */\n      dup4\n        /* \"#utility.yul\":5172:5192   */\n      tag_56\n      jump\t// in\n    tag_133:\n        /* \"#utility.yul\":5167:5192   */\n      swap3\n      pop\n        /* \"#utility.yul\":5215:5216   */\n      dup3\n        /* \"#utility.yul\":5212:5213   */\n      dup3\n        /* \"#utility.yul\":5208:5217   */\n      add\n        /* \"#utility.yul\":5201:5217   */\n      swap1\n      pop\n        /* \"#utility.yul\":5236:5239   */\n      dup1\n        /* \"#utility.yul\":5233:5234   */\n      dup3\n        /* \"#utility.yul\":5230:5240   */\n      gt\n        /* \"#utility.yul\":5227:5263   */\n      iszero\n      tag_134\n      jumpi\n        /* \"#utility.yul\":5243:5261   */\n      tag_135\n      tag_60\n      jump\t// in\n    tag_135:\n        /* \"#utility.yul\":5227:5263   */\n    tag_134:\n        /* \"#utility.yul\":5079:5270   */\n      swap3\n      swap2\n      pop\n      pop\n      jump\t// out\n        /* \"#utility.yul\":5276:5456   */\n    tag_65:\n        /* \"#utility.yul\":5324:5401   */\n      0x4e487b7100000000000000000000000000000000000000000000000000000000\n        /* \"#utility.yul\":5321:5322   */\n      0x00\n        /* \"#utility.yul\":5314:5402   */\n      mstore\n        /* \"#utility.yul\":5421:5425   */\n      0x12\n        /* \"#utility.yul\":5418:5419   */\n      0x04\n        /* \"#utility.yul\":5411:5426   */\n      mstore\n        /* \"#utility.yul\":5445:5449   */\n      0x24\n        /* \"#utility.yul\":5442:5443   */\n      0x00\n        /* \"#utility.yul\":5435:5450   */\n      revert\n        /* \"#utility.yul\":5462:5647   */\n    tag_52:\n        /* \"#utility.yul\":5502:5503   */\n      0x00\n        /* \"#utility.yul\":5519:5539   */\n      tag_138\n        /* \"#utility.yul\":5537:5538   */\n      dup3\n        /* \"#utility.yul\":5519:5539   */\n      tag_56\n      jump\t// in\n    tag_138:\n        /* \"#utility.yul\":5514:5539   */\n      swap2\n      pop\n        /* \"#utility.yul\":5553:5573   */\n      tag_139\n        /* \"#utility.yul\":5571:5572   */\n      dup4\n        /* \"#utility.yul\":5553:5573   */\n      tag_56\n      jump\t// in\n    tag_139:\n        /* \"#utility.yul\":5548:5573   */\n      swap3\n      pop\n        /* \"#utility.yul\":5592:5593   */\n      dup3\n        /* \"#utility.yul\":5582:5617   */\n      tag_140\n      jumpi\n        /* \"#utility.yul\":5597:5615   */\n      tag_141\n      tag_65\n      jump\t// in\n    tag_141:\n        /* \"#utility.yul\":5582:5617   */\n    tag_140:\n        /* \"#utility.yul\":5639:5640   */\n      dup3\n        /* \"#utility.yul\":5636:5637   */\n      dup3\n        /* \"#utility.yul\":5632:5641   */\n      div\n        /* \"#utility.yul\":5627:5641   */\n      swap1\n      pop\n        /* \"#utility.yul\":5462:5647   */\n      swap3\n      swap2\n      pop\n      pop\n      jump\t// out\n\n    auxdata: 0xa26469706673582212209b2e2ca1d2e0cd841afab42306889f2773b1b94feabaaf6bb52c8eccbbea9c3864736f6c63430008120033\n}\n",
				"bytecode": {
					"linkReferences": {},
					"object": "608060405234801561001057600080fd5b506105d7806100206000396000f3fe608060405234801561001057600080fd5b50600436106100625760003560e01c8063165c4a161461006757806331735cfb146100975780635d4e1e5c146100c7578063771602f7146100f75780637b29290914610127578063f88e9fbf14610157575b600080fd5b610081600480360381019061007c9190610246565b610187565b60405161008e9190610295565b60405180910390f35b6100b160048036038101906100ac91906102b0565b61019d565b6040516100be9190610295565b60405180910390f35b6100e160048036038101906100dc9190610246565b6101b3565b6040516100ee9190610295565b60405180910390f35b610111600480360381019061010c9190610246565b6101c9565b60405161011e9190610295565b60405180910390f35b610141600480360381019061013c91906102b0565b6101df565b60405161014e9190610295565b60405180910390f35b610171600480360381019061016c9190610246565b6101f5565b60405161017e9190610295565b60405180910390f35b60008183610195919061030c565b905092915050565b60006003826101ac919061048e565b9050919050565b600081836101c191906104d9565b905092915050565b600081836101d7919061050d565b905092915050565b60006002826101ee919061048e565b9050919050565b600081836102039190610570565b905092915050565b600080fd5b6000819050919050565b61022381610210565b811461022e57600080fd5b50565b6000813590506102408161021a565b92915050565b6000806040838503121561025d5761025c61020b565b5b600061026b85828601610231565b925050602061027c85828601610231565b9150509250929050565b61028f81610210565b82525050565b60006020820190506102aa6000830184610286565b92915050565b6000602082840312156102c6576102c561020b565b5b60006102d484828501610231565b91505092915050565b7f4e487b7100000000000000000000000000000000000000000000000000000000600052601160045260246000fd5b600061031782610210565b915061032283610210565b925082820261033081610210565b91508282048414831517610347576103466102dd565b5b5092915050565b60008160011c9050919050565b6000808291508390505b60018511156103a557808604811115610381576103806102dd565b5b60018516156103905780820291505b808102905061039e8561034e565b9450610365565b94509492505050565b6000826103be576001905061047a565b816103cc576000905061047a565b81600181146103e257600281146103ec5761041b565b600191505061047a565b60ff8411156103fe576103fd6102dd565b5b8360020a915084821115610415576104146102dd565b5b5061047a565b5060208310610133831016604e8410600b84101617156104505782820a90508381111561044b5761044a6102dd565b5b61047a565b61045d848484600161035b565b92509050818404811115610474576104736102dd565b5b81810290505b9392505050565b600060ff82169050919050565b600061049982610210565b91506104a483610481565b92506104d17fffffffffffffffffffffffffffffffffffffffffffffffffffffffffffffffff84846103ae565b905092915050565b60006104e482610210565b91506104ef83610210565b9250828203905081811115610507576105066102dd565b5b92915050565b600061051882610210565b915061052383610210565b925082820190508082111561053b5761053a6102dd565b5b92915050565b7f4e487b7100000000000000000000000000000000000000000000000000000000600052601260045260246000fd5b600061057b82610210565b915061058683610210565b92508261059657610595610541565b5b82820490509291505056fea26469706673582212209b2e2ca1d2e0cd841afab42306889f2773b1b94feabaaf6bb52c8eccbbea9c3864736f6c63430008120033",
					"opcodes": "PUSH1 0x80 PUSH1 0x40 MSTORE CALLVALUE DUP1 ISZERO PUSH2 0x10 JUMPI PUSH1 0x0 DUP1 REVERT JUMPDEST POP PUSH2 0x5D7 DUP1 PUSH2 0x20 PUSH1 0x0 CODECOPY PUSH1 0x0 RETURN INVALID PUSH1 0x80 PUSH1 0x40 MSTORE CALLVALUE DUP1 ISZERO PUSH2 0x10 JUMPI PUSH1 0x0 DUP1 REVERT JUMPDEST POP PUSH1 0x4 CALLDATASIZE LT PUSH2 0x62 JUMPI PUSH1 0x0 CALLDATALOAD PUSH1 0xE0 SHR DUP1 PUSH4 0x165C4A16 EQ PUSH2 0x67 JUMPI DUP1 PUSH4 0x31735CFB EQ PUSH2 0x97 JUMPI DUP1 PUSH4 0x5D4E1E5C EQ PUSH2 0xC7 JUMPI DUP1 PUSH4 0x771602F7 EQ PUSH2 0xF7 JUMPI DUP1 PUSH4 0x7B292909 EQ PUSH2 0x127 JUMPI DUP1 PUSH4 0xF88E9FBF EQ PUSH2 0x157 JUMPI JUMPDEST PUSH1 0x0 DUP1 REVERT JUMPDEST PUSH2 0x81 PUSH1 0x4 DUP1 CALLDATASIZE SUB DUP2 ADD SWAP1 PUSH2 0x7C SWAP2 SWAP1 PUSH2 0x246 JUMP JUMPDEST PUSH2 0x187 JUMP JUMPDEST PUSH1 0x40 MLOAD PUSH2 0x8E SWAP2 SWAP1 PUSH2 0x295 JUMP JUMPDEST PUSH1 0x40 MLOAD DUP1 SWAP2 SUB SWAP1 RETURN JUMPDEST PUSH2 0xB1 PUSH1 0x4 DUP1 CALLDATASIZE SUB DUP2 ADD SWAP1 PUSH2 0xAC SWAP2 SWAP1 PUSH2 0x2B0 JUMP JUMPDEST PUSH2 0x19D JUMP JUMPDEST PUSH1 0x40 MLOAD PUSH2 0xBE SWAP2 SWAP1 PUSH2 0x295 JUMP JUMPDEST PUSH1 0x40 MLOAD DUP1 SWAP2 SUB SWAP1 RETURN JUMPDEST PUSH2 0xE1 PUSH1 0x4 DUP1 CALLDATASIZE SUB DUP2 ADD SWAP1 PUSH2 0xDC SWAP2 SWAP1 PUSH2 0x246 JUMP JUMPDEST PUSH2 0x1B3 JUMP JUMPDEST PUSH1 0x40 MLOAD PUSH2 0xEE SWAP2 SWAP1 PUSH2 0x295 JUMP JUMPDEST PUSH1 0x40 MLOAD DUP1 SWAP2 SUB SWAP1 RETURN JUMPDEST PUSH2 0x111 PUSH1 0x4 DUP1 CALLDATASIZE SUB DUP2 ADD SWAP1 PUSH2 0x10C SWAP2 SWAP1 PUSH2 0x246 JUMP JUMPDEST PUSH2 0x1C9 JUMP JUMPDEST PUSH1 0x40 MLOAD PUSH2 0x11E SWAP2 SWAP1 PUSH2 0x295 JUMP JUMPDEST PUSH1 0x40 MLOAD DUP1 SWAP2 SUB SWAP1 RETURN JUMPDEST PUSH2 0x141 PUSH1 0x4 DUP1 CALLDATASIZE SUB DUP2 ADD SWAP1 PUSH2 0x13C SWAP2 SWAP1 PUSH2 0x2B0 JUMP JUMPDEST PUSH2 0x1DF JUMP JUMPDEST PUSH1 0x40 MLOAD PUSH2 0x14E SWAP2 SWAP1 PUSH2 0x295 JUMP JUMPDEST PUSH1 0x40 MLOAD DUP1 SWAP2 SUB SWAP1 RETURN JUMPDEST PUSH2 0x171 PUSH1 0x4 DUP1 CALLDATASIZE SUB DUP2 ADD SWAP1 PUSH2 0x16C SWAP2 SWAP1 PUSH2 0x246 JUMP JUMPDEST PUSH2 0x1F5 JUMP JUMPDEST PUSH1 0x40 MLOAD PUSH2 0x17E SWAP2 SWAP1 PUSH2 0x295 JUMP JUMPDEST PUSH1 0x40 MLOAD DUP1 SWAP2 SUB SWAP1 RETURN JUMPDEST PUSH1 0x0 DUP2 DUP4 PUSH2 0x195 SWAP2 SWAP1 PUSH2 0x30C JUMP JUMPDEST SWAP1 POP SWAP3 SWAP2 POP POP JUMP JUMPDEST PUSH1 0x0 PUSH1 0x3 DUP3 PUSH2 0x1AC SWAP2 SWAP1 PUSH2 0x48E JUMP JUMPDEST SWAP1 POP SWAP2 SWAP1 POP JUMP JUMPDEST PUSH1 0x0 DUP2 DUP4 PUSH2 0x1C1 SWAP2 SWAP1 PUSH2 0x4D9 JUMP JUMPDEST SWAP1 POP SWAP3 SWAP2 POP POP JUMP JUMPDEST PUSH1 0x0 DUP2 DUP4 PUSH2 0x1D7 SWAP2 SWAP1 PUSH2 0x50D JUMP JUMPDEST SWAP1 POP SWAP3 SWAP2 POP POP JUMP JUMPDEST PUSH1 0x0 PUSH1 0x2 DUP3 PUSH2 0x1EE SWAP2 SWAP1 PUSH2 0x48E JUMP JUMPDEST SWAP1 POP SWAP2 SWAP1 POP JUMP JUMPDEST PUSH1 0x0 DUP2 DUP4 PUSH2 0x203 SWAP2 SWAP1 PUSH2 0x570 JUMP JUMPDEST SWAP1 POP SWAP3 SWAP2 POP POP JUMP JUMPDEST PUSH1 0x0 DUP1 REVERT JUMPDEST PUSH1 0x0 DUP2 SWAP1 POP SWAP2 SWAP1 POP JUMP JUMPDEST PUSH2 0x223 DUP2 PUSH2 0x210 JUMP JUMPDEST DUP2 EQ PUSH2 0x22E JUMPI PUSH1 0x0 DUP1 REVERT JUMPDEST POP JUMP JUMPDEST PUSH1 0x0 DUP2 CALLDATALOAD SWAP1 POP PUSH2 0x240 DUP2 PUSH2 0x21A JUMP JUMPDEST SWAP3 SWAP2 POP POP JUMP JUMPDEST PUSH1 0x0 DUP1 PUSH1 0x40 DUP4 DUP6 SUB SLT ISZERO PUSH2 0x25D JUMPI PUSH2 0x25C PUSH2 0x20B JUMP JUMPDEST JUMPDEST PUSH1 0x0 PUSH2 0x26B DUP6 DUP3 DUP7 ADD PUSH2 0x231 JUMP JUMPDEST SWAP3 POP POP PUSH1 0x20 PUSH2 0x27C DUP6 DUP3 DUP7 ADD PUSH2 0x231 JUMP JUMPDEST SWAP2 POP POP SWAP3 POP SWAP3 SWAP1 POP JUMP JUMPDEST PUSH2 0x28F DUP2 PUSH2 0x210 JUMP JUMPDEST DUP3 MSTORE POP POP JUMP JUMPDEST PUSH1 0x0 PUSH1 0x20 DUP3 ADD SWAP1 POP PUSH2 0x2AA PUSH1 0x0 DUP4 ADD DUP5 PUSH2 0x286 JUMP JUMPDEST SWAP3 SWAP2 POP POP JUMP JUMPDEST PUSH1 0x0 PUSH1 0x20 DUP3 DUP5 SUB SLT ISZERO PUSH2 0x2C6 JUMPI PUSH2 0x2C5 PUSH2 0x20B JUMP JUMPDEST JUMPDEST PUSH1 0x0 PUSH2 0x2D4 DUP5 DUP3 DUP6 ADD PUSH2 0x231 JUMP JUMPDEST SWAP2 POP POP SWAP3 SWAP2 POP POP JUMP JUMPDEST PUSH32 0x4E487B7100000000000000000000000000000000000000000000000000000000 PUSH1 0x0 MSTORE PUSH1 0x11 PUSH1 0x4 MSTORE PUSH1 0x24 PUSH1 0x0 REVERT JUMPDEST PUSH1 0x0 PUSH2 0x317 DUP3 PUSH2 0x210 JUMP JUMPDEST SWAP2 POP PUSH2 0x322 DUP4 PUSH2 0x210 JUMP JUMPDEST SWAP3 POP DUP3 DUP3 MUL PUSH2 0x330 DUP2 PUSH2 0x210 JUMP JUMPDEST SWAP2 POP DUP3 DUP3 DIV DUP5 EQ DUP4 ISZERO OR PUSH2 0x347 JUMPI PUSH2 0x346 PUSH2 0x2DD JUMP JUMPDEST JUMPDEST POP SWAP3 SWAP2 POP POP JUMP JUMPDEST PUSH1 0x0 DUP2 PUSH1 0x1 SHR SWAP1 POP SWAP2 SWAP1 POP JUMP JUMPDEST PUSH1 0x0 DUP1 DUP3 SWAP2 POP DUP4 SWAP1 POP JUMPDEST PUSH1 0x1 DUP6 GT ISZERO PUSH2 0x3A5 JUMPI DUP1 DUP7 DIV DUP2 GT ISZERO PUSH2 0x381 JUMPI PUSH2 0x380 PUSH2 0x2DD JUMP JUMPDEST JUMPDEST PUSH1 0x1 DUP6 AND ISZERO PUSH2 0x390 JUMPI DUP1 DUP3 MUL SWAP2 POP JUMPDEST DUP1 DUP2 MUL SWAP1 POP PUSH2 0x39E DUP6 PUSH2 0x34E JUMP JUMPDEST SWAP5 POP PUSH2 0x365 JUMP JUMPDEST SWAP5 POP SWAP5 SWAP3 POP POP POP JUMP JUMPDEST PUSH1 0x0 DUP3 PUSH2 0x3BE JUMPI PUSH1 0x1 SWAP1 POP PUSH2 0x47A JUMP JUMPDEST DUP2 PUSH2 0x3CC JUMPI PUSH1 0x0 SWAP1 POP PUSH2 0x47A JUMP JUMPDEST DUP2 PUSH1 0x1 DUP2 EQ PUSH2 0x3E2 JUMPI PUSH1 0x2 DUP2 EQ PUSH2 0x3EC JUMPI PUSH2 0x41B JUMP JUMPDEST PUSH1 0x1 SWAP2 POP POP PUSH2 0x47A JUMP JUMPDEST PUSH1 0xFF DUP5 GT ISZERO PUSH2 0x3FE JUMPI PUSH2 0x3FD PUSH2 0x2DD JUMP JUMPDEST JUMPDEST DUP4 PUSH1 0x2 EXP SWAP2 POP DUP5 DUP3 GT ISZERO PUSH2 0x415 JUMPI PUSH2 0x414 PUSH2 0x2DD JUMP JUMPDEST JUMPDEST POP PUSH2 0x47A JUMP JUMPDEST POP PUSH1 0x20 DUP4 LT PUSH2 0x133 DUP4 LT AND PUSH1 0x4E DUP5 LT PUSH1 0xB DUP5 LT AND OR ISZERO PUSH2 0x450 JUMPI DUP3 DUP3 EXP SWAP1 POP DUP4 DUP2 GT ISZERO PUSH2 0x44B JUMPI PUSH2 0x44A PUSH2 0x2DD JUMP JUMPDEST JUMPDEST PUSH2 0x47A JUMP JUMPDEST PUSH2 0x45D DUP5 DUP5 DUP5 PUSH1 0x1 PUSH2 0x35B JUMP JUMPDEST SWAP3 POP SWAP1 POP DUP2 DUP5 DIV DUP2 GT ISZERO PUSH2 0x474 JUMPI PUSH2 0x473 PUSH2 0x2DD JUMP JUMPDEST JUMPDEST DUP2 DUP2 MUL SWAP1 POP JUMPDEST SWAP4 SWAP3 POP POP POP JUMP JUMPDEST PUSH1 0x0 PUSH1 0xFF DUP3 AND SWAP1 POP SWAP2 SWAP1 POP JUMP JUMPDEST PUSH1 0x0 PUSH2 0x499 DUP3 PUSH2 0x210 JUMP JUMPDEST SWAP2 POP PUSH2 0x4A4 DUP4 PUSH2 0x481 JUMP JUMPDEST SWAP3 POP PUSH2 0x4D1 PUSH32 0xFFFFFFFFFFFFFFFFFFFFFFFFFFFFFFFFFFFFFFFFFFFFFFFFFFFFFFFFFFFFFFFF DUP5 DUP5 PUSH2 0x3AE JUMP JUMPDEST SWAP1 POP SWAP3 SWAP2 POP POP JUMP JUMPDEST PUSH1 0x0 PUSH2 0x4E4 DUP3 PUSH2 0x210 JUMP JUMPDEST SWAP2 POP PUSH2 0x4EF DUP4 PUSH2 0x210 JUMP JUMPDEST SWAP3 POP DUP3 DUP3 SUB SWAP1 POP DUP2 DUP2 GT ISZERO PUSH2 0x507 JUMPI PUSH2 0x506 PUSH2 0x2DD JUMP JUMPDEST JUMPDEST SWAP3 SWAP2 POP POP JUMP JUMPDEST PUSH1 0x0 PUSH2 0x518 DUP3 PUSH2 0x210 JUMP JUMPDEST SWAP2 POP PUSH2 0x523 DUP4 PUSH2 0x210 JUMP JUMPDEST SWAP3 POP DUP3 DUP3 ADD SWAP1 POP DUP1 DUP3 GT ISZERO PUSH2 0x53B JUMPI PUSH2 0x53A PUSH2 0x2DD JUMP JUMPDEST JUMPDEST SWAP3 SWAP2 POP POP JUMP JUMPDEST PUSH32 0x4E487B7100000000000000000000000000000000000000000000000000000000 PUSH1 0x0 MSTORE PUSH1 0x12 PUSH1 0x4 MSTORE PUSH1 0x24 PUSH1 0x0 REVERT JUMPDEST PUSH1 0x0 PUSH2 0x57B DUP3 PUSH2 0x210 JUMP JUMPDEST SWAP2 POP PUSH2 0x586 DUP4 PUSH2 0x210 JUMP JUMPDEST SWAP3 POP DUP3 PUSH2 0x596 JUMPI PUSH2 0x595 PUSH2 0x541 JUMP JUMPDEST JUMPDEST DUP3 DUP3 DIV SWAP1 POP SWAP3 SWAP2 POP POP JUMP INVALID LOG2 PUSH5 0x6970667358 0x22 SLT KECCAK256 SWAP12 0x2E 0x2C LOG1 0xD2 0xE0 0xCD DUP5 BYTE STATICCALL 0xB4 0x23 MOD DUP9 SWAP16 0x27 PUSH20 0xB1B94FEABAAF6BB52C8ECCBBEA9C3864736F6C63 NUMBER STOP ADDMOD SLT STOP CALLER "
				},
				"gasEstimates": {
					"creation": {
						"codeDepositCost": "299000",
						"executionCost": "337",
						"totalCost": "299337"
					},
					"external": {
						"add(uint256,uint256)": "infinite",
						"cubic(uint256)": "infinite",
						"divide(uint256,uint256)": "infinite",
						"multiply(uint256,uint256)": "infinite",
						"square(uint256)": "infinite",
						"substract(uint256,uint256)": "infinite"
					}
				},
				"methodIdentifiers": {
					"add(uint256,uint256)": "771602f7",
					"cubic(uint256)": "31735cfb",
					"divide(uint256,uint256)": "f88e9fbf",
					"multiply(uint256,uint256)": "165c4a16",
					"square(uint256)": "7b292909",
					"substract(uint256,uint256)": "5d4e1e5c"
				}
			},
			"storageLayout": {
				"storage": [],
				"types": null
			},
			"userdoc": {
				"kind": "user",
				"methods": {},
				"version": 1
			}
		}
	}
}