{
	"contracts-basic/week1.sol": {
		"ABC": {
			"abi": [
				{
					"inputs": [
						{
							"internalType": "uint256",
							"name": "_n",
							"type": "uint256"
						}
					],
					"name": "getABC",
					"outputs": [
						{
							"internalType": "string",
							"name": "",
							"type": "string"
						}
					],
					"stateMutability": "pure",
					"type": "function"
				}
			],
			"devdoc": {
				"kind": "dev",
				"methods": {},
				"version": 1
			},
			"evm": {
				"assembly": "    /* \"contracts-basic/week1.sol\":1665:2005  contract ABC {... */\n  mstore(0x40, 0x80)\n  callvalue\n  dup1\n  iszero\n  tag_1\n  jumpi\n  0x00\n  dup1\n  revert\ntag_1:\n  pop\n  dataSize(sub_0)\n  dup1\n  dataOffset(sub_0)\n  0x00\n  codecopy\n  0x00\n  return\nstop\n\nsub_0: assembly {\n        /* \"contracts-basic/week1.sol\":1665:2005  contract ABC {... */\n      mstore(0x40, 0x80)\n      callvalue\n      dup1\n      iszero\n      tag_1\n      jumpi\n      0x00\n      dup1\n      revert\n    tag_1:\n      pop\n      jumpi(tag_2, lt(calldatasize, 0x04))\n      shr(0xe0, calldataload(0x00))\n      dup1\n      0x98105d8d\n      eq\n      tag_3\n      jumpi\n    tag_2:\n      0x00\n      dup1\n      revert\n        /* \"contracts-basic/week1.sol\":1684:2003  function getABC(uint _n) public pure returns(string memory) {... */\n    tag_3:\n      tag_4\n      0x04\n      dup1\n      calldatasize\n      sub\n      dup2\n      add\n      swap1\n      tag_5\n      swap2\n      swap1\n      tag_6\n      jump\t// in\n    tag_5:\n      tag_7\n      jump\t// in\n    tag_4:\n      mload(0x40)\n      tag_8\n      swap2\n      swap1\n      tag_9\n      jump\t// in\n    tag_8:\n      mload(0x40)\n      dup1\n      swap2\n      sub\n      swap1\n      return\n    tag_7:\n        /* \"contracts-basic/week1.sol\":1729:1742  string memory */\n      0x60\n        /* \"contracts-basic/week1.sol\":1764:1765  1 */\n      0x01\n        /* \"contracts-basic/week1.sol\":1758:1760  _n */\n      dup3\n        /* \"contracts-basic/week1.sol\":1758:1765  _n >= 1 */\n      lt\n      iszero\n        /* \"contracts-basic/week1.sol\":1758:1777  _n >= 1 && _n <= 10 */\n      dup1\n      iszero\n      tag_11\n      jumpi\n      pop\n        /* \"contracts-basic/week1.sol\":1775:1777  10 */\n      0x0a\n        /* \"contracts-basic/week1.sol\":1769:1771  _n */\n      dup3\n        /* \"contracts-basic/week1.sol\":1769:1777  _n <= 10 */\n      gt\n      iszero\n        /* \"contracts-basic/week1.sol\":1758:1777  _n >= 1 && _n <= 10 */\n    tag_11:\n        /* \"contracts-basic/week1.sol\":1754:1997  if (_n >= 1 && _n <= 10) {... */\n      iszero\n      tag_12\n      jumpi\n        /* \"contracts-basic/week1.sol\":1793:1803  return \"A\" */\n      mload(0x40)\n      dup1\n      0x40\n      add\n      0x40\n      mstore\n      dup1\n      0x01\n      dup2\n      mstore\n      0x20\n      add\n      0x4100000000000000000000000000000000000000000000000000000000000000\n      dup2\n      mstore\n      pop\n      swap1\n      pop\n      jump(tag_10)\n        /* \"contracts-basic/week1.sol\":1754:1997  if (_n >= 1 && _n <= 10) {... */\n    tag_12:\n        /* \"contracts-basic/week1.sol\":1830:1832  11 */\n      0x0b\n        /* \"contracts-basic/week1.sol\":1824:1826  _n */\n      dup3\n        /* \"contracts-basic/week1.sol\":1824:1832  _n >= 11 */\n      lt\n      iszero\n        /* \"contracts-basic/week1.sol\":1824:1843  _n >= 11 && _n <=20 */\n      dup1\n      iszero\n      tag_14\n      jumpi\n      pop\n        /* \"contracts-basic/week1.sol\":1841:1843  20 */\n      0x14\n        /* \"contracts-basic/week1.sol\":1836:1838  _n */\n      dup3\n        /* \"contracts-basic/week1.sol\":1836:1843  _n <=20 */\n      gt\n      iszero\n        /* \"contracts-basic/week1.sol\":1824:1843  _n >= 11 && _n <=20 */\n    tag_14:\n        /* \"contracts-basic/week1.sol\":1820:1997  if (_n >= 11 && _n <=20) {... */\n      iszero\n      tag_15\n      jumpi\n        /* \"contracts-basic/week1.sol\":1859:1869  return \"B\" */\n      mload(0x40)\n      dup1\n      0x40\n      add\n      0x40\n      mstore\n      dup1\n      0x01\n      dup2\n      mstore\n      0x20\n      add\n      0x4200000000000000000000000000000000000000000000000000000000000000\n      dup2\n      mstore\n      pop\n      swap1\n      pop\n      jump(tag_10)\n        /* \"contracts-basic/week1.sol\":1820:1997  if (_n >= 11 && _n <=20) {... */\n    tag_15:\n        /* \"contracts-basic/week1.sol\":1896:1898  21 */\n      0x15\n        /* \"contracts-basic/week1.sol\":1890:1892  _n */\n      dup3\n        /* \"contracts-basic/week1.sol\":1890:1898  _n >= 21 */\n      lt\n      iszero\n        /* \"contracts-basic/week1.sol\":1890:1909  _n >= 21 && _n <=30 */\n      dup1\n      iszero\n      tag_17\n      jumpi\n      pop\n        /* \"contracts-basic/week1.sol\":1907:1909  30 */\n      0x1e\n        /* \"contracts-basic/week1.sol\":1902:1904  _n */\n      dup3\n        /* \"contracts-basic/week1.sol\":1902:1909  _n <=30 */\n      gt\n      iszero\n        /* \"contracts-basic/week1.sol\":1890:1909  _n >= 21 && _n <=30 */\n    tag_17:\n        /* \"contracts-basic/week1.sol\":1886:1997  if (_n >= 21 && _n <=30) {... */\n      iszero\n      tag_18\n      jumpi\n        /* \"contracts-basic/week1.sol\":1925:1935  return \"C\" */\n      mload(0x40)\n      dup1\n      0x40\n      add\n      0x40\n      mstore\n      dup1\n      0x01\n      dup2\n      mstore\n      0x20\n      add\n      0x4300000000000000000000000000000000000000000000000000000000000000\n      dup2\n      mstore\n      pop\n      swap1\n      pop\n      jump(tag_10)\n        /* \"contracts-basic/week1.sol\":1886:1997  if (_n >= 21 && _n <=30) {... */\n    tag_18:\n        /* \"contracts-basic/week1.sol\":1966:1986  return \"invalid num\" */\n      mload(0x40)\n      dup1\n      0x40\n      add\n      0x40\n      mstore\n      dup1\n      0x0b\n      dup2\n      mstore\n      0x20\n      add\n      0x696e76616c6964206e756d000000000000000000000000000000000000000000\n      dup2\n      mstore\n      pop\n      swap1\n      pop\n        /* \"contracts-basic/week1.sol\":1684:2003  function getABC(uint _n) public pure returns(string memory) {... */\n    tag_10:\n      swap2\n      swap1\n      pop\n      jump\t// out\n        /* \"#utility.yul\":88:205   */\n    tag_21:\n        /* \"#utility.yul\":197:198   */\n      0x00\n        /* \"#utility.yul\":194:195   */\n      dup1\n        /* \"#utility.yul\":187:199   */\n      revert\n        /* \"#utility.yul\":334:411   */\n    tag_23:\n        /* \"#utility.yul\":371:378   */\n      0x00\n        /* \"#utility.yul\":400:405   */\n      dup2\n        /* \"#utility.yul\":389:405   */\n      swap1\n      pop\n        /* \"#utility.yul\":334:411   */\n      swap2\n      swap1\n      pop\n      jump\t// out\n        /* \"#utility.yul\":417:539   */\n    tag_24:\n        /* \"#utility.yul\":490:514   */\n      tag_37\n        /* \"#utility.yul\":508:513   */\n      dup2\n        /* \"#utility.yul\":490:514   */\n      tag_23\n      jump\t// in\n    tag_37:\n        /* \"#utility.yul\":483:488   */\n      dup2\n        /* \"#utility.yul\":480:515   */\n      eq\n        /* \"#utility.yul\":470:533   */\n      tag_38\n      jumpi\n        /* \"#utility.yul\":529:530   */\n      0x00\n        /* \"#utility.yul\":526:527   */\n      dup1\n        /* \"#utility.yul\":519:531   */\n      revert\n        /* \"#utility.yul\":470:533   */\n    tag_38:\n        /* \"#utility.yul\":417:539   */\n      pop\n      jump\t// out\n        /* \"#utility.yul\":545:684   */\n    tag_25:\n        /* \"#utility.yul\":591:596   */\n      0x00\n        /* \"#utility.yul\":629:635   */\n      dup2\n        /* \"#utility.yul\":616:636   */\n      calldataload\n        /* \"#utility.yul\":607:636   */\n      swap1\n      pop\n        /* \"#utility.yul\":645:678   */\n      tag_40\n        /* \"#utility.yul\":672:677   */\n      dup2\n        /* \"#utility.yul\":645:678   */\n      tag_24\n      jump\t// in\n    tag_40:\n        /* \"#utility.yul\":545:684   */\n      swap3\n      swap2\n      pop\n      pop\n      jump\t// out\n        /* \"#utility.yul\":690:1019   */\n    tag_6:\n        /* \"#utility.yul\":749:755   */\n      0x00\n        /* \"#utility.yul\":798:800   */\n      0x20\n        /* \"#utility.yul\":786:795   */\n      dup3\n        /* \"#utility.yul\":777:784   */\n      dup5\n        /* \"#utility.yul\":773:796   */\n      sub\n        /* \"#utility.yul\":769:801   */\n      slt\n        /* \"#utility.yul\":766:885   */\n      iszero\n      tag_42\n      jumpi\n        /* \"#utility.yul\":804:883   */\n      tag_43\n      tag_21\n      jump\t// in\n    tag_43:\n        /* \"#utility.yul\":766:885   */\n    tag_42:\n        /* \"#utility.yul\":924:925   */\n      0x00\n        /* \"#utility.yul\":949:1002   */\n      tag_44\n        /* \"#utility.yul\":994:1001   */\n      dup5\n        /* \"#utility.yul\":985:991   */\n      dup3\n        /* \"#utility.yul\":974:983   */\n      dup6\n        /* \"#utility.yul\":970:992   */\n      add\n        /* \"#utility.yul\":949:1002   */\n      tag_25\n      jump\t// in\n    tag_44:\n        /* \"#utility.yul\":939:1002   */\n      swap2\n      pop\n        /* \"#utility.yul\":895:1012   */\n      pop\n        /* \"#utility.yul\":690:1019   */\n      swap3\n      swap2\n      pop\n      pop\n      jump\t// out\n        /* \"#utility.yul\":1025:1124   */\n    tag_26:\n        /* \"#utility.yul\":1077:1083   */\n      0x00\n        /* \"#utility.yul\":1111:1116   */\n      dup2\n        /* \"#utility.yul\":1105:1117   */\n      mload\n        /* \"#utility.yul\":1095:1117   */\n      swap1\n      pop\n        /* \"#utility.yul\":1025:1124   */\n      swap2\n      swap1\n      pop\n      jump\t// out\n        /* \"#utility.yul\":1130:1299   */\n    tag_27:\n        /* \"#utility.yul\":1214:1225   */\n      0x00\n        /* \"#utility.yul\":1248:1254   */\n      dup3\n        /* \"#utility.yul\":1243:1246   */\n      dup3\n        /* \"#utility.yul\":1236:1255   */\n      mstore\n        /* \"#utility.yul\":1288:1292   */\n      0x20\n        /* \"#utility.yul\":1283:1286   */\n      dup3\n        /* \"#utility.yul\":1279:1293   */\n      add\n        /* \"#utility.yul\":1264:1293   */\n      swap1\n      pop\n        /* \"#utility.yul\":1130:1299   */\n      swap3\n      swap2\n      pop\n      pop\n      jump\t// out\n        /* \"#utility.yul\":1305:1551   */\n    tag_28:\n        /* \"#utility.yul\":1386:1387   */\n      0x00\n        /* \"#utility.yul\":1396:1509   */\n    tag_48:\n        /* \"#utility.yul\":1410:1416   */\n      dup4\n        /* \"#utility.yul\":1407:1408   */\n      dup2\n        /* \"#utility.yul\":1404:1417   */\n      lt\n        /* \"#utility.yul\":1396:1509   */\n      iszero\n      tag_50\n      jumpi\n        /* \"#utility.yul\":1495:1496   */\n      dup1\n        /* \"#utility.yul\":1490:1493   */\n      dup3\n        /* \"#utility.yul\":1486:1497   */\n      add\n        /* \"#utility.yul\":1480:1498   */\n      mload\n        /* \"#utility.yul\":1476:1477   */\n      dup2\n        /* \"#utility.yul\":1471:1474   */\n      dup5\n        /* \"#utility.yul\":1467:1478   */\n      add\n        /* \"#utility.yul\":1460:1499   */\n      mstore\n        /* \"#utility.yul\":1432:1434   */\n      0x20\n        /* \"#utility.yul\":1429:1430   */\n      dup2\n        /* \"#utility.yul\":1425:1435   */\n      add\n        /* \"#utility.yul\":1420:1435   */\n      swap1\n      pop\n        /* \"#utility.yul\":1396:1509   */\n      jump(tag_48)\n    tag_50:\n        /* \"#utility.yul\":1543:1544   */\n      0x00\n        /* \"#utility.yul\":1534:1540   */\n      dup5\n        /* \"#utility.yul\":1529:1532   */\n      dup5\n        /* \"#utility.yul\":1525:1541   */\n      add\n        /* \"#utility.yul\":1518:1545   */\n      mstore\n        /* \"#utility.yul\":1367:1551   */\n      pop\n        /* \"#utility.yul\":1305:1551   */\n      pop\n      pop\n      pop\n      jump\t// out\n        /* \"#utility.yul\":1557:1659   */\n    tag_29:\n        /* \"#utility.yul\":1598:1604   */\n      0x00\n        /* \"#utility.yul\":1649:1651   */\n      0x1f\n        /* \"#utility.yul\":1645:1652   */\n      not\n        /* \"#utility.yul\":1640:1642   */\n      0x1f\n        /* \"#utility.yul\":1633:1638   */\n      dup4\n        /* \"#utility.yul\":1629:1643   */\n      add\n        /* \"#utility.yul\":1625:1653   */\n      and\n        /* \"#utility.yul\":1615:1653   */\n      swap1\n      pop\n        /* \"#utility.yul\":1557:1659   */\n      swap2\n      swap1\n      pop\n      jump\t// out\n        /* \"#utility.yul\":1665:2042   */\n    tag_30:\n        /* \"#utility.yul\":1753:1756   */\n      0x00\n        /* \"#utility.yul\":1781:1820   */\n      tag_53\n        /* \"#utility.yul\":1814:1819   */\n      dup3\n        /* \"#utility.yul\":1781:1820   */\n      tag_26\n      jump\t// in\n    tag_53:\n        /* \"#utility.yul\":1836:1907   */\n      tag_54\n        /* \"#utility.yul\":1900:1906   */\n      dup2\n        /* \"#utility.yul\":1895:1898   */\n      dup6\n        /* \"#utility.yul\":1836:1907   */\n      tag_27\n      jump\t// in\n    tag_54:\n        /* \"#utility.yul\":1829:1907   */\n      swap4\n      pop\n        /* \"#utility.yul\":1916:1981   */\n      tag_55\n        /* \"#utility.yul\":1974:1980   */\n      dup2\n        /* \"#utility.yul\":1969:1972   */\n      dup6\n        /* \"#utility.yul\":1962:1966   */\n      0x20\n        /* \"#utility.yul\":1955:1960   */\n      dup7\n        /* \"#utility.yul\":1951:1967   */\n      add\n        /* \"#utility.yul\":1916:1981   */\n      tag_28\n      jump\t// in\n    tag_55:\n        /* \"#utility.yul\":2006:2035   */\n      tag_56\n        /* \"#utility.yul\":2028:2034   */\n      dup2\n        /* \"#utility.yul\":2006:2035   */\n      tag_29\n      jump\t// in\n    tag_56:\n        /* \"#utility.yul\":2001:2004   */\n      dup5\n        /* \"#utility.yul\":1997:2036   */\n      add\n        /* \"#utility.yul\":1990:2036   */\n      swap2\n      pop\n        /* \"#utility.yul\":1757:2042   */\n      pop\n        /* \"#utility.yul\":1665:2042   */\n      swap3\n      swap2\n      pop\n      pop\n      jump\t// out\n        /* \"#utility.yul\":2048:2361   */\n    tag_9:\n        /* \"#utility.yul\":2161:2165   */\n      0x00\n        /* \"#utility.yul\":2199:2201   */\n      0x20\n        /* \"#utility.yul\":2188:2197   */\n      dup3\n        /* \"#utility.yul\":2184:2202   */\n      add\n        /* \"#utility.yul\":2176:2202   */\n      swap1\n      pop\n        /* \"#utility.yul\":2248:2257   */\n      dup2\n        /* \"#utility.yul\":2242:2246   */\n      dup2\n        /* \"#utility.yul\":2238:2258   */\n      sub\n        /* \"#utility.yul\":2234:2235   */\n      0x00\n        /* \"#utility.yul\":2223:2232   */\n      dup4\n        /* \"#utility.yul\":2219:2236   */\n      add\n        /* \"#utility.yul\":2212:2259   */\n      mstore\n        /* \"#utility.yul\":2276:2354   */\n      tag_58\n        /* \"#utility.yul\":2349:2353   */\n      dup2\n        /* \"#utility.yul\":2340:2346   */\n      dup5\n        /* \"#utility.yul\":2276:2354   */\n      tag_30\n      jump\t// in\n    tag_58:\n        /* \"#utility.yul\":2268:2354   */\n      swap1\n      pop\n        /* \"#utility.yul\":2048:2361   */\n      swap3\n      swap2\n      pop\n      pop\n      jump\t// out\n\n    auxdata: 0xa2646970667358221220d57424c0e8d1774102224476172ef50650cdb734cda57c74f07a8e16caa91dd664736f6c63430008120033\n}\n",
				"bytecode": {
					"linkReferences": {},
					"object": "608060405234801561001057600080fd5b506102ec806100206000396000f3fe608060405234801561001057600080fd5b506004361061002b5760003560e01c806398105d8d14610030575b600080fd5b61004a600480360381019061004591906101d7565b610060565b6040516100579190610294565b60405180910390f35b6060600182101580156100745750600a8211155b156100b6576040518060400160405280600181526020017f41000000000000000000000000000000000000000000000000000000000000008152509050610197565b600b82101580156100c8575060148211155b1561010a576040518060400160405280600181526020017f42000000000000000000000000000000000000000000000000000000000000008152509050610197565b6015821015801561011c5750601e8211155b1561015e576040518060400160405280600181526020017f43000000000000000000000000000000000000000000000000000000000000008152509050610197565b6040518060400160405280600b81526020017f696e76616c6964206e756d00000000000000000000000000000000000000000081525090505b919050565b600080fd5b6000819050919050565b6101b4816101a1565b81146101bf57600080fd5b50565b6000813590506101d1816101ab565b92915050565b6000602082840312156101ed576101ec61019c565b5b60006101fb848285016101c2565b91505092915050565b600081519050919050565b600082825260208201905092915050565b60005b8381101561023e578082015181840152602081019050610223565b60008484015250505050565b6000601f19601f8301169050919050565b600061026682610204565b610270818561020f565b9350610280818560208601610220565b6102898161024a565b840191505092915050565b600060208201905081810360008301526102ae818461025b565b90509291505056fea2646970667358221220d57424c0e8d1774102224476172ef50650cdb734cda57c74f07a8e16caa91dd664736f6c63430008120033",
					"opcodes": "PUSH1 0x80 PUSH1 0x40 MSTORE CALLVALUE DUP1 ISZERO PUSH2 0x10 JUMPI PUSH1 0x0 DUP1 REVERT JUMPDEST POP PUSH2 0x2EC DUP1 PUSH2 0x20 PUSH1 0x0 CODECOPY PUSH1 0x0 RETURN INVALID PUSH1 0x80 PUSH1 0x40 MSTORE CALLVALUE DUP1 ISZERO PUSH2 0x10 JUMPI PUSH1 0x0 DUP1 REVERT JUMPDEST POP PUSH1 0x4 CALLDATASIZE LT PUSH2 0x2B JUMPI PUSH1 0x0 CALLDATALOAD PUSH1 0xE0 SHR DUP1 PUSH4 0x98105D8D EQ PUSH2 0x30 JUMPI JUMPDEST PUSH1 0x0 DUP1 REVERT JUMPDEST PUSH2 0x4A PUSH1 0x4 DUP1 CALLDATASIZE SUB DUP2 ADD SWAP1 PUSH2 0x45 SWAP2 SWAP1 PUSH2 0x1D7 JUMP JUMPDEST PUSH2 0x60 JUMP JUMPDEST PUSH1 0x40 MLOAD PUSH2 0x57 SWAP2 SWAP1 PUSH2 0x294 JUMP JUMPDEST PUSH1 0x40 MLOAD DUP1 SWAP2 SUB SWAP1 RETURN JUMPDEST PUSH1 0x60 PUSH1 0x1 DUP3 LT ISZERO DUP1 ISZERO PUSH2 0x74 JUMPI POP PUSH1 0xA DUP3 GT ISZERO JUMPDEST ISZERO PUSH2 0xB6 JUMPI PUSH1 0x40 MLOAD DUP1 PUSH1 0x40 ADD PUSH1 0x40 MSTORE DUP1 PUSH1 0x1 DUP2 MSTORE PUSH1 0x20 ADD PUSH32 0x4100000000000000000000000000000000000000000000000000000000000000 DUP2 MSTORE POP SWAP1 POP PUSH2 0x197 JUMP JUMPDEST PUSH1 0xB DUP3 LT ISZERO DUP1 ISZERO PUSH2 0xC8 JUMPI POP PUSH1 0x14 DUP3 GT ISZERO JUMPDEST ISZERO PUSH2 0x10A JUMPI PUSH1 0x40 MLOAD DUP1 PUSH1 0x40 ADD PUSH1 0x40 MSTORE DUP1 PUSH1 0x1 DUP2 MSTORE PUSH1 0x20 ADD PUSH32 0x4200000000000000000000000000000000000000000000000000000000000000 DUP2 MSTORE POP SWAP1 POP PUSH2 0x197 JUMP JUMPDEST PUSH1 0x15 DUP3 LT ISZERO DUP1 ISZERO PUSH2 0x11C JUMPI POP PUSH1 0x1E DUP3 GT ISZERO JUMPDEST ISZERO PUSH2 0x15E JUMPI PUSH1 0x40 MLOAD DUP1 PUSH1 0x40 ADD PUSH1 0x40 MSTORE DUP1 PUSH1 0x1 DUP2 MSTORE PUSH1 0x20 ADD PUSH32 0x4300000000000000000000000000000000000000000000000000000000000000 DUP2 MSTORE POP SWAP1 POP PUSH2 0x197 JUMP JUMPDEST PUSH1 0x40 MLOAD DUP1 PUSH1 0x40 ADD PUSH1 0x40 MSTORE DUP1 PUSH1 0xB DUP2 MSTORE PUSH1 0x20 ADD PUSH32 0x696E76616C6964206E756D000000000000000000000000000000000000000000 DUP2 MSTORE POP SWAP1 POP JUMPDEST SWAP2 SWAP1 POP JUMP JUMPDEST PUSH1 0x0 DUP1 REVERT JUMPDEST PUSH1 0x0 DUP2 SWAP1 POP SWAP2 SWAP1 POP JUMP JUMPDEST PUSH2 0x1B4 DUP2 PUSH2 0x1A1 JUMP JUMPDEST DUP2 EQ PUSH2 0x1BF JUMPI PUSH1 0x0 DUP1 REVERT JUMPDEST POP JUMP JUMPDEST PUSH1 0x0 DUP2 CALLDATALOAD SWAP1 POP PUSH2 0x1D1 DUP2 PUSH2 0x1AB JUMP JUMPDEST SWAP3 SWAP2 POP POP JUMP JUMPDEST PUSH1 0x0 PUSH1 0x20 DUP3 DUP5 SUB SLT ISZERO PUSH2 0x1ED JUMPI PUSH2 0x1EC PUSH2 0x19C JUMP JUMPDEST JUMPDEST PUSH1 0x0 PUSH2 0x1FB DUP5 DUP3 DUP6 ADD PUSH2 0x1C2 JUMP JUMPDEST SWAP2 POP POP SWAP3 SWAP2 POP POP JUMP JUMPDEST PUSH1 0x0 DUP2 MLOAD SWAP1 POP SWAP2 SWAP1 POP JUMP JUMPDEST PUSH1 0x0 DUP3 DUP3 MSTORE PUSH1 0x20 DUP3 ADD SWAP1 POP SWAP3 SWAP2 POP POP JUMP JUMPDEST PUSH1 0x0 JUMPDEST DUP4 DUP2 LT ISZERO PUSH2 0x23E JUMPI DUP1 DUP3 ADD MLOAD DUP2 DUP5 ADD MSTORE PUSH1 0x20 DUP2 ADD SWAP1 POP PUSH2 0x223 JUMP JUMPDEST PUSH1 0x0 DUP5 DUP5 ADD MSTORE POP POP POP POP JUMP JUMPDEST PUSH1 0x0 PUSH1 0x1F NOT PUSH1 0x1F DUP4 ADD AND SWAP1 POP SWAP2 SWAP1 POP JUMP JUMPDEST PUSH1 0x0 PUSH2 0x266 DUP3 PUSH2 0x204 JUMP JUMPDEST PUSH2 0x270 DUP2 DUP6 PUSH2 0x20F JUMP JUMPDEST SWAP4 POP PUSH2 0x280 DUP2 DUP6 PUSH1 0x20 DUP7 ADD PUSH2 0x220 JUMP JUMPDEST PUSH2 0x289 DUP2 PUSH2 0x24A JUMP JUMPDEST DUP5 ADD SWAP2 POP POP SWAP3 SWAP2 POP POP JUMP JUMPDEST PUSH1 0x0 PUSH1 0x20 DUP3 ADD SWAP1 POP DUP2 DUP2 SUB PUSH1 0x0 DUP4 ADD MSTORE PUSH2 0x2AE DUP2 DUP5 PUSH2 0x25B JUMP JUMPDEST SWAP1 POP SWAP3 SWAP2 POP POP JUMP INVALID LOG2 PUSH5 0x6970667358 0x22 SLT KECCAK256 0xD5 PUSH21 0x24C0E8D1774102224476172EF50650CDB734CDA57C PUSH21 0xF07A8E16CAA91DD664736F6C634300081200330000 "
				},
				"gasEstimates": {
					"creation": {
						"codeDepositCost": "149600",
						"executionCost": "196",
						"totalCost": "149796"
					},
					"external": {
						"getABC(uint256)": "infinite"
					}
				},
				"methodIdentifiers": {
					"getABC(uint256)": "98105d8d"
				}
			},
			"storageLayout": {
				"storage": [],
				"types": null
			},
			"userdoc": {
				"kind": "user",
				"methods": {},
				"version": 1
			}
		}
	}
}