{
	"contracts-basic/week2.sol": {
		"_14": {
			"abi": [
				{
					"inputs": [
						{
							"internalType": "string",
							"name": "_name",
							"type": "string"
						},
						{
							"internalType": "string[]",
							"name": "_classes",
							"type": "string[]"
						}
					],
					"name": "setStudent",
					"outputs": [],
					"stateMutability": "nonpayable",
					"type": "function"
				}
			],
			"devdoc": {
				"kind": "dev",
				"methods": {},
				"version": 1
			},
			"evm": {
				"assembly": "    /* \"contracts-basic/week2.sol\":764:1055  contract _14 {... */\n  mstore(0x40, 0x80)\n  callvalue\n  dup1\n  iszero\n  tag_1\n  jumpi\n  0x00\n  dup1\n  revert\ntag_1:\n  pop\n  dataSize(sub_0)\n  dup1\n  dataOffset(sub_0)\n  0x00\n  codecopy\n  0x00\n  return\nstop\n\nsub_0: assembly {\n        /* \"contracts-basic/week2.sol\":764:1055  contract _14 {... */\n      mstore(0x40, 0x80)\n      callvalue\n      dup1\n      iszero\n      tag_1\n      jumpi\n      0x00\n      dup1\n      revert\n    tag_1:\n      pop\n      jumpi(tag_2, lt(calldatasize, 0x04))\n      shr(0xe0, calldataload(0x00))\n      dup1\n      0x7283a069\n      eq\n      tag_3\n      jumpi\n    tag_2:\n      0x00\n      dup1\n      revert\n        /* \"contracts-basic/week2.sol\":904:1053  function setStudent(string memory _name, string[] memory _classes) public {... */\n    tag_3:\n      tag_4\n      0x04\n      dup1\n      calldatasize\n      sub\n      dup2\n      add\n      swap1\n      tag_5\n      swap2\n      swap1\n      tag_6\n      jump\t// in\n    tag_5:\n      tag_7\n      jump\t// in\n    tag_4:\n      stop\n    tag_7:\n        /* \"contracts-basic/week2.sol\":988:996  students */\n      0x00\n        /* \"contracts-basic/week2.sol\":1002:1045  student(students.length+1, _name, _classes) */\n      mload(0x40)\n      dup1\n      0x60\n      add\n      0x40\n      mstore\n      dup1\n        /* \"contracts-basic/week2.sol\":1026:1027  1 */\n      0x01\n        /* \"contracts-basic/week2.sol\":1010:1018  students */\n      0x00\n        /* \"contracts-basic/week2.sol\":1010:1025  students.length */\n      dup1\n      sload\n      swap1\n      pop\n        /* \"contracts-basic/week2.sol\":1010:1027  students.length+1 */\n      tag_9\n      swap2\n      swap1\n      tag_10\n      jump\t// in\n    tag_9:\n        /* \"contracts-basic/week2.sol\":1002:1045  student(students.length+1, _name, _classes) */\n      dup2\n      mstore\n      0x20\n      add\n        /* \"contracts-basic/week2.sol\":1029:1034  _name */\n      dup5\n        /* \"contracts-basic/week2.sol\":1002:1045  student(students.length+1, _name, _classes) */\n      dup2\n      mstore\n      0x20\n      add\n        /* \"contracts-basic/week2.sol\":1036:1044  _classes */\n      dup4\n        /* \"contracts-basic/week2.sol\":1002:1045  student(students.length+1, _name, _classes) */\n      dup2\n      mstore\n      pop\n        /* \"contracts-basic/week2.sol\":988:1046  students.push(student(students.length+1, _name, _classes)) */\n      swap1\n      dup1\n      0x01\n      dup2\n      sload\n      add\n      dup1\n      dup3\n      sstore\n      dup1\n      swap2\n      pop\n      pop\n      0x01\n      swap1\n      sub\n      swap1\n      0x00\n      mstore\n      keccak256(0x00, 0x20)\n      swap1\n      0x03\n      mul\n      add\n      0x00\n      swap1\n      swap2\n      swap1\n      swap2\n      swap1\n      swap2\n      pop\n      0x00\n      dup3\n      add\n      mload\n      dup2\n      0x00\n      add\n      sstore\n      0x20\n      dup3\n      add\n      mload\n      dup2\n      0x01\n      add\n      swap1\n      dup2\n      tag_12\n      swap2\n      swap1\n      tag_13\n      jump\t// in\n    tag_12:\n      pop\n      0x40\n      dup3\n      add\n      mload\n      dup2\n      0x02\n      add\n      swap1\n      dup1\n      mload\n      swap1\n      0x20\n      add\n      swap1\n      tag_14\n      swap3\n      swap2\n      swap1\n      tag_15\n      jump\t// in\n    tag_14:\n      pop\n      pop\n      pop\n        /* \"contracts-basic/week2.sol\":904:1053  function setStudent(string memory _name, string[] memory _classes) public {... */\n      pop\n      pop\n      jump\t// out\n    tag_15:\n      dup3\n      dup1\n      sload\n      dup3\n      dup3\n      sstore\n      swap1\n      0x00\n      mstore\n      keccak256(0x00, 0x20)\n      swap1\n      dup2\n      add\n      swap3\n      dup3\n      iszero\n      tag_16\n      jumpi\n      swap2\n      0x20\n      mul\n      dup3\n      add\n    tag_17:\n      dup3\n      dup2\n      gt\n      iszero\n      tag_18\n      jumpi\n      dup3\n      mload\n      dup3\n      swap1\n      dup2\n      tag_19\n      swap2\n      swap1\n      tag_13\n      jump\t// in\n    tag_19:\n      pop\n      swap2\n      0x20\n      add\n      swap2\n      swap1\n      0x01\n      add\n      swap1\n      jump(tag_17)\n    tag_18:\n    tag_16:\n      pop\n      swap1\n      pop\n      tag_20\n      swap2\n      swap1\n      tag_21\n      jump\t// in\n    tag_20:\n      pop\n      swap1\n      jump\t// out\n    tag_21:\n    tag_22:\n      dup1\n      dup3\n      gt\n      iszero\n      tag_23\n      jumpi\n      0x00\n      dup2\n      dup2\n      tag_24\n      swap2\n      swap1\n      tag_25\n      jump\t// in\n    tag_24:\n      pop\n      0x01\n      add\n      jump(tag_22)\n    tag_23:\n      pop\n      swap1\n      jump\t// out\n    tag_25:\n      pop\n      dup1\n      sload\n      tag_26\n      swap1\n      tag_27\n      jump\t// in\n    tag_26:\n      0x00\n      dup3\n      sstore\n      dup1\n      0x1f\n      lt\n      tag_29\n      jumpi\n      pop\n      jump(tag_28)\n    tag_29:\n      0x1f\n      add\n      0x20\n      swap1\n      div\n      swap1\n      0x00\n      mstore\n      keccak256(0x00, 0x20)\n      swap1\n      dup2\n      add\n      swap1\n      tag_30\n      swap2\n      swap1\n      tag_31\n      jump\t// in\n    tag_30:\n    tag_28:\n      pop\n      jump\t// out\n    tag_31:\n    tag_32:\n      dup1\n      dup3\n      gt\n      iszero\n      tag_33\n      jumpi\n      0x00\n      dup2\n      0x00\n      swap1\n      sstore\n      pop\n      0x01\n      add\n      jump(tag_32)\n    tag_33:\n      pop\n      swap1\n      jump\t// out\n        /* \"#utility.yul\":7:82   */\n    tag_34:\n        /* \"#utility.yul\":40:46   */\n      0x00\n        /* \"#utility.yul\":73:75   */\n      0x40\n        /* \"#utility.yul\":67:76   */\n      mload\n        /* \"#utility.yul\":57:76   */\n      swap1\n      pop\n        /* \"#utility.yul\":7:82   */\n      swap1\n      jump\t// out\n        /* \"#utility.yul\":88:205   */\n    tag_35:\n        /* \"#utility.yul\":197:198   */\n      0x00\n        /* \"#utility.yul\":194:195   */\n      dup1\n        /* \"#utility.yul\":187:199   */\n      revert\n        /* \"#utility.yul\":211:328   */\n    tag_36:\n        /* \"#utility.yul\":320:321   */\n      0x00\n        /* \"#utility.yul\":317:318   */\n      dup1\n        /* \"#utility.yul\":310:322   */\n      revert\n        /* \"#utility.yul\":334:451   */\n    tag_37:\n        /* \"#utility.yul\":443:444   */\n      0x00\n        /* \"#utility.yul\":440:441   */\n      dup1\n        /* \"#utility.yul\":433:445   */\n      revert\n        /* \"#utility.yul\":457:574   */\n    tag_38:\n        /* \"#utility.yul\":566:567   */\n      0x00\n        /* \"#utility.yul\":563:564   */\n      dup1\n        /* \"#utility.yul\":556:568   */\n      revert\n        /* \"#utility.yul\":580:682   */\n    tag_39:\n        /* \"#utility.yul\":621:627   */\n      0x00\n        /* \"#utility.yul\":672:674   */\n      0x1f\n        /* \"#utility.yul\":668:675   */\n      not\n        /* \"#utility.yul\":663:665   */\n      0x1f\n        /* \"#utility.yul\":656:661   */\n      dup4\n        /* \"#utility.yul\":652:666   */\n      add\n        /* \"#utility.yul\":648:676   */\n      and\n        /* \"#utility.yul\":638:676   */\n      swap1\n      pop\n        /* \"#utility.yul\":580:682   */\n      swap2\n      swap1\n      pop\n      jump\t// out\n        /* \"#utility.yul\":688:868   */\n    tag_40:\n        /* \"#utility.yul\":736:813   */\n      0x4e487b7100000000000000000000000000000000000000000000000000000000\n        /* \"#utility.yul\":733:734   */\n      0x00\n        /* \"#utility.yul\":726:814   */\n      mstore\n        /* \"#utility.yul\":833:837   */\n      0x41\n        /* \"#utility.yul\":830:831   */\n      0x04\n        /* \"#utility.yul\":823:838   */\n      mstore\n        /* \"#utility.yul\":857:861   */\n      0x24\n        /* \"#utility.yul\":854:855   */\n      0x00\n        /* \"#utility.yul\":847:862   */\n      revert\n        /* \"#utility.yul\":874:1155   */\n    tag_41:\n        /* \"#utility.yul\":957:984   */\n      tag_79\n        /* \"#utility.yul\":979:983   */\n      dup3\n        /* \"#utility.yul\":957:984   */\n      tag_39\n      jump\t// in\n    tag_79:\n        /* \"#utility.yul\":949:955   */\n      dup2\n        /* \"#utility.yul\":945:985   */\n      add\n        /* \"#utility.yul\":1087:1093   */\n      dup2\n        /* \"#utility.yul\":1075:1085   */\n      dup2\n        /* \"#utility.yul\":1072:1094   */\n      lt\n        /* \"#utility.yul\":1051:1069   */\n      0xffffffffffffffff\n        /* \"#utility.yul\":1039:1049   */\n      dup3\n        /* \"#utility.yul\":1036:1070   */\n      gt\n        /* \"#utility.yul\":1033:1095   */\n      or\n        /* \"#utility.yul\":1030:1118   */\n      iszero\n      tag_80\n      jumpi\n        /* \"#utility.yul\":1098:1116   */\n      tag_81\n      tag_40\n      jump\t// in\n    tag_81:\n        /* \"#utility.yul\":1030:1118   */\n    tag_80:\n        /* \"#utility.yul\":1138:1148   */\n      dup1\n        /* \"#utility.yul\":1134:1136   */\n      0x40\n        /* \"#utility.yul\":1127:1149   */\n      mstore\n        /* \"#utility.yul\":917:1155   */\n      pop\n        /* \"#utility.yul\":874:1155   */\n      pop\n      pop\n      jump\t// out\n        /* \"#utility.yul\":1161:1290   */\n    tag_42:\n        /* \"#utility.yul\":1195:1201   */\n      0x00\n        /* \"#utility.yul\":1222:1242   */\n      tag_83\n      tag_34\n      jump\t// in\n    tag_83:\n        /* \"#utility.yul\":1212:1242   */\n      swap1\n      pop\n        /* \"#utility.yul\":1251:1284   */\n      tag_84\n        /* \"#utility.yul\":1279:1283   */\n      dup3\n        /* \"#utility.yul\":1271:1277   */\n      dup3\n        /* \"#utility.yul\":1251:1284   */\n      tag_41\n      jump\t// in\n    tag_84:\n        /* \"#utility.yul\":1161:1290   */\n      swap2\n      swap1\n      pop\n      jump\t// out\n        /* \"#utility.yul\":1296:1604   */\n    tag_43:\n        /* \"#utility.yul\":1358:1362   */\n      0x00\n        /* \"#utility.yul\":1448:1466   */\n      0xffffffffffffffff\n        /* \"#utility.yul\":1440:1446   */\n      dup3\n        /* \"#utility.yul\":1437:1467   */\n      gt\n        /* \"#utility.yul\":1434:1490   */\n      iszero\n      tag_86\n      jumpi\n        /* \"#utility.yul\":1470:1488   */\n      tag_87\n      tag_40\n      jump\t// in\n    tag_87:\n        /* \"#utility.yul\":1434:1490   */\n    tag_86:\n        /* \"#utility.yul\":1508:1537   */\n      tag_88\n        /* \"#utility.yul\":1530:1536   */\n      dup3\n        /* \"#utility.yul\":1508:1537   */\n      tag_39\n      jump\t// in\n    tag_88:\n        /* \"#utility.yul\":1500:1537   */\n      swap1\n      pop\n        /* \"#utility.yul\":1592:1596   */\n      0x20\n        /* \"#utility.yul\":1586:1590   */\n      dup2\n        /* \"#utility.yul\":1582:1597   */\n      add\n        /* \"#utility.yul\":1574:1597   */\n      swap1\n      pop\n        /* \"#utility.yul\":1296:1604   */\n      swap2\n      swap1\n      pop\n      jump\t// out\n        /* \"#utility.yul\":1610:1756   */\n    tag_44:\n        /* \"#utility.yul\":1707:1713   */\n      dup3\n        /* \"#utility.yul\":1702:1705   */\n      dup2\n        /* \"#utility.yul\":1697:1700   */\n      dup4\n        /* \"#utility.yul\":1684:1714   */\n      calldatacopy\n        /* \"#utility.yul\":1748:1749   */\n      0x00\n        /* \"#utility.yul\":1739:1745   */\n      dup4\n        /* \"#utility.yul\":1734:1737   */\n      dup4\n        /* \"#utility.yul\":1730:1746   */\n      add\n        /* \"#utility.yul\":1723:1750   */\n      mstore\n        /* \"#utility.yul\":1610:1756   */\n      pop\n      pop\n      pop\n      jump\t// out\n        /* \"#utility.yul\":1762:2187   */\n    tag_45:\n        /* \"#utility.yul\":1840:1845   */\n      0x00\n        /* \"#utility.yul\":1865:1931   */\n      tag_91\n        /* \"#utility.yul\":1881:1930   */\n      tag_92\n        /* \"#utility.yul\":1923:1929   */\n      dup5\n        /* \"#utility.yul\":1881:1930   */\n      tag_43\n      jump\t// in\n    tag_92:\n        /* \"#utility.yul\":1865:1931   */\n      tag_42\n      jump\t// in\n    tag_91:\n        /* \"#utility.yul\":1856:1931   */\n      swap1\n      pop\n        /* \"#utility.yul\":1954:1960   */\n      dup3\n        /* \"#utility.yul\":1947:1952   */\n      dup2\n        /* \"#utility.yul\":1940:1961   */\n      mstore\n        /* \"#utility.yul\":1992:1996   */\n      0x20\n        /* \"#utility.yul\":1985:1990   */\n      dup2\n        /* \"#utility.yul\":1981:1997   */\n      add\n        /* \"#utility.yul\":2030:2033   */\n      dup5\n        /* \"#utility.yul\":2021:2027   */\n      dup5\n        /* \"#utility.yul\":2016:2019   */\n      dup5\n        /* \"#utility.yul\":2012:2028   */\n      add\n        /* \"#utility.yul\":2009:2034   */\n      gt\n        /* \"#utility.yul\":2006:2118   */\n      iszero\n      tag_93\n      jumpi\n        /* \"#utility.yul\":2037:2116   */\n      tag_94\n      tag_38\n      jump\t// in\n    tag_94:\n        /* \"#utility.yul\":2006:2118   */\n    tag_93:\n        /* \"#utility.yul\":2127:2181   */\n      tag_95\n        /* \"#utility.yul\":2174:2180   */\n      dup5\n        /* \"#utility.yul\":2169:2172   */\n      dup3\n        /* \"#utility.yul\":2164:2167   */\n      dup6\n        /* \"#utility.yul\":2127:2181   */\n      tag_44\n      jump\t// in\n    tag_95:\n        /* \"#utility.yul\":1846:2187   */\n      pop\n        /* \"#utility.yul\":1762:2187   */\n      swap4\n      swap3\n      pop\n      pop\n      pop\n      jump\t// out\n        /* \"#utility.yul\":2207:2547   */\n    tag_46:\n        /* \"#utility.yul\":2263:2268   */\n      0x00\n        /* \"#utility.yul\":2312:2315   */\n      dup3\n        /* \"#utility.yul\":2305:2309   */\n      0x1f\n        /* \"#utility.yul\":2297:2303   */\n      dup4\n        /* \"#utility.yul\":2293:2310   */\n      add\n        /* \"#utility.yul\":2289:2316   */\n      slt\n        /* \"#utility.yul\":2279:2401   */\n      tag_97\n      jumpi\n        /* \"#utility.yul\":2320:2399   */\n      tag_98\n      tag_37\n      jump\t// in\n    tag_98:\n        /* \"#utility.yul\":2279:2401   */\n    tag_97:\n        /* \"#utility.yul\":2437:2443   */\n      dup2\n        /* \"#utility.yul\":2424:2444   */\n      calldataload\n        /* \"#utility.yul\":2462:2541   */\n      tag_99\n        /* \"#utility.yul\":2537:2540   */\n      dup5\n        /* \"#utility.yul\":2529:2535   */\n      dup3\n        /* \"#utility.yul\":2522:2526   */\n      0x20\n        /* \"#utility.yul\":2514:2520   */\n      dup7\n        /* \"#utility.yul\":2510:2527   */\n      add\n        /* \"#utility.yul\":2462:2541   */\n      tag_45\n      jump\t// in\n    tag_99:\n        /* \"#utility.yul\":2453:2541   */\n      swap2\n      pop\n        /* \"#utility.yul\":2269:2547   */\n      pop\n        /* \"#utility.yul\":2207:2547   */\n      swap3\n      swap2\n      pop\n      pop\n      jump\t// out\n        /* \"#utility.yul\":2553:2874   */\n    tag_47:\n        /* \"#utility.yul\":2640:2644   */\n      0x00\n        /* \"#utility.yul\":2730:2748   */\n      0xffffffffffffffff\n        /* \"#utility.yul\":2722:2728   */\n      dup3\n        /* \"#utility.yul\":2719:2749   */\n      gt\n        /* \"#utility.yul\":2716:2772   */\n      iszero\n      tag_101\n      jumpi\n        /* \"#utility.yul\":2752:2770   */\n      tag_102\n      tag_40\n      jump\t// in\n    tag_102:\n        /* \"#utility.yul\":2716:2772   */\n    tag_101:\n        /* \"#utility.yul\":2802:2806   */\n      0x20\n        /* \"#utility.yul\":2794:2800   */\n      dup3\n        /* \"#utility.yul\":2790:2807   */\n      mul\n        /* \"#utility.yul\":2782:2807   */\n      swap1\n      pop\n        /* \"#utility.yul\":2862:2866   */\n      0x20\n        /* \"#utility.yul\":2856:2860   */\n      dup2\n        /* \"#utility.yul\":2852:2867   */\n      add\n        /* \"#utility.yul\":2844:2867   */\n      swap1\n      pop\n        /* \"#utility.yul\":2553:2874   */\n      swap2\n      swap1\n      pop\n      jump\t// out\n        /* \"#utility.yul\":2880:2997   */\n    tag_48:\n        /* \"#utility.yul\":2989:2990   */\n      0x00\n        /* \"#utility.yul\":2986:2987   */\n      dup1\n        /* \"#utility.yul\":2979:2991   */\n      revert\n        /* \"#utility.yul\":3019:3964   */\n    tag_49:\n        /* \"#utility.yul\":3125:3130   */\n      0x00\n        /* \"#utility.yul\":3150:3241   */\n      tag_105\n        /* \"#utility.yul\":3166:3240   */\n      tag_106\n        /* \"#utility.yul\":3233:3239   */\n      dup5\n        /* \"#utility.yul\":3166:3240   */\n      tag_47\n      jump\t// in\n    tag_106:\n        /* \"#utility.yul\":3150:3241   */\n      tag_42\n      jump\t// in\n    tag_105:\n        /* \"#utility.yul\":3141:3241   */\n      swap1\n      pop\n        /* \"#utility.yul\":3261:3266   */\n      dup1\n        /* \"#utility.yul\":3290:3296   */\n      dup4\n        /* \"#utility.yul\":3283:3288   */\n      dup3\n        /* \"#utility.yul\":3276:3297   */\n      mstore\n        /* \"#utility.yul\":3324:3328   */\n      0x20\n        /* \"#utility.yul\":3317:3322   */\n      dup3\n        /* \"#utility.yul\":3313:3329   */\n      add\n        /* \"#utility.yul\":3306:3329   */\n      swap1\n      pop\n        /* \"#utility.yul\":3377:3381   */\n      0x20\n        /* \"#utility.yul\":3369:3375   */\n      dup5\n        /* \"#utility.yul\":3365:3382   */\n      mul\n        /* \"#utility.yul\":3357:3363   */\n      dup4\n        /* \"#utility.yul\":3353:3383   */\n      add\n        /* \"#utility.yul\":3406:3409   */\n      dup6\n        /* \"#utility.yul\":3398:3404   */\n      dup2\n        /* \"#utility.yul\":3395:3410   */\n      gt\n        /* \"#utility.yul\":3392:3514   */\n      iszero\n      tag_107\n      jumpi\n        /* \"#utility.yul\":3425:3504   */\n      tag_108\n      tag_48\n      jump\t// in\n    tag_108:\n        /* \"#utility.yul\":3392:3514   */\n    tag_107:\n        /* \"#utility.yul\":3540:3546   */\n      dup4\n        /* \"#utility.yul\":3523:3958   */\n    tag_109:\n        /* \"#utility.yul\":3557:3563   */\n      dup2\n        /* \"#utility.yul\":3552:3555   */\n      dup2\n        /* \"#utility.yul\":3549:3564   */\n      lt\n        /* \"#utility.yul\":3523:3958   */\n      iszero\n      tag_111\n      jumpi\n        /* \"#utility.yul\":3646:3649   */\n      dup1\n        /* \"#utility.yul\":3633:3650   */\n      calldataload\n        /* \"#utility.yul\":3682:3700   */\n      0xffffffffffffffff\n        /* \"#utility.yul\":3669:3680   */\n      dup2\n        /* \"#utility.yul\":3666:3701   */\n      gt\n        /* \"#utility.yul\":3663:3785   */\n      iszero\n      tag_112\n      jumpi\n        /* \"#utility.yul\":3704:3783   */\n      tag_113\n      tag_37\n      jump\t// in\n    tag_113:\n        /* \"#utility.yul\":3663:3785   */\n    tag_112:\n        /* \"#utility.yul\":3828:3839   */\n      dup1\n        /* \"#utility.yul\":3820:3826   */\n      dup7\n        /* \"#utility.yul\":3816:3840   */\n      add\n        /* \"#utility.yul\":3866:3913   */\n      tag_114\n        /* \"#utility.yul\":3909:3912   */\n      dup10\n        /* \"#utility.yul\":3897:3907   */\n      dup3\n        /* \"#utility.yul\":3866:3913   */\n      tag_46\n      jump\t// in\n    tag_114:\n        /* \"#utility.yul\":3861:3864   */\n      dup6\n        /* \"#utility.yul\":3854:3914   */\n      mstore\n        /* \"#utility.yul\":3943:3947   */\n      0x20\n        /* \"#utility.yul\":3938:3941   */\n      dup6\n        /* \"#utility.yul\":3934:3948   */\n      add\n        /* \"#utility.yul\":3927:3948   */\n      swap5\n      pop\n        /* \"#utility.yul\":3599:3958   */\n      pop\n      pop\n        /* \"#utility.yul\":3583:3587   */\n      0x20\n        /* \"#utility.yul\":3578:3581   */\n      dup2\n        /* \"#utility.yul\":3574:3588   */\n      add\n        /* \"#utility.yul\":3567:3588   */\n      swap1\n      pop\n        /* \"#utility.yul\":3523:3958   */\n      jump(tag_109)\n    tag_111:\n        /* \"#utility.yul\":3527:3548   */\n      pop\n        /* \"#utility.yul\":3131:3964   */\n      pop\n      pop\n        /* \"#utility.yul\":3019:3964   */\n      swap4\n      swap3\n      pop\n      pop\n      pop\n      jump\t// out\n        /* \"#utility.yul\":3986:4376   */\n    tag_50:\n        /* \"#utility.yul\":4067:4072   */\n      0x00\n        /* \"#utility.yul\":4116:4119   */\n      dup3\n        /* \"#utility.yul\":4109:4113   */\n      0x1f\n        /* \"#utility.yul\":4101:4107   */\n      dup4\n        /* \"#utility.yul\":4097:4114   */\n      add\n        /* \"#utility.yul\":4093:4120   */\n      slt\n        /* \"#utility.yul\":4083:4205   */\n      tag_116\n      jumpi\n        /* \"#utility.yul\":4124:4203   */\n      tag_117\n      tag_37\n      jump\t// in\n    tag_117:\n        /* \"#utility.yul\":4083:4205   */\n    tag_116:\n        /* \"#utility.yul\":4241:4247   */\n      dup2\n        /* \"#utility.yul\":4228:4248   */\n      calldataload\n        /* \"#utility.yul\":4266:4370   */\n      tag_118\n        /* \"#utility.yul\":4366:4369   */\n      dup5\n        /* \"#utility.yul\":4358:4364   */\n      dup3\n        /* \"#utility.yul\":4351:4355   */\n      0x20\n        /* \"#utility.yul\":4343:4349   */\n      dup7\n        /* \"#utility.yul\":4339:4356   */\n      add\n        /* \"#utility.yul\":4266:4370   */\n      tag_49\n      jump\t// in\n    tag_118:\n        /* \"#utility.yul\":4257:4370   */\n      swap2\n      pop\n        /* \"#utility.yul\":4073:4376   */\n      pop\n        /* \"#utility.yul\":3986:4376   */\n      swap3\n      swap2\n      pop\n      pop\n      jump\t// out\n        /* \"#utility.yul\":4382:5266   */\n    tag_6:\n        /* \"#utility.yul\":4495:4501   */\n      0x00\n        /* \"#utility.yul\":4503:4509   */\n      dup1\n        /* \"#utility.yul\":4552:4554   */\n      0x40\n        /* \"#utility.yul\":4540:4549   */\n      dup4\n        /* \"#utility.yul\":4531:4538   */\n      dup6\n        /* \"#utility.yul\":4527:4550   */\n      sub\n        /* \"#utility.yul\":4523:4555   */\n      slt\n        /* \"#utility.yul\":4520:4639   */\n      iszero\n      tag_120\n      jumpi\n        /* \"#utility.yul\":4558:4637   */\n      tag_121\n      tag_35\n      jump\t// in\n    tag_121:\n        /* \"#utility.yul\":4520:4639   */\n    tag_120:\n        /* \"#utility.yul\":4706:4707   */\n      0x00\n        /* \"#utility.yul\":4695:4704   */\n      dup4\n        /* \"#utility.yul\":4691:4708   */\n      add\n        /* \"#utility.yul\":4678:4709   */\n      calldataload\n        /* \"#utility.yul\":4736:4754   */\n      0xffffffffffffffff\n        /* \"#utility.yul\":4728:4734   */\n      dup2\n        /* \"#utility.yul\":4725:4755   */\n      gt\n        /* \"#utility.yul\":4722:4839   */\n      iszero\n      tag_122\n      jumpi\n        /* \"#utility.yul\":4758:4837   */\n      tag_123\n      tag_36\n      jump\t// in\n    tag_123:\n        /* \"#utility.yul\":4722:4839   */\n    tag_122:\n        /* \"#utility.yul\":4863:4926   */\n      tag_124\n        /* \"#utility.yul\":4918:4925   */\n      dup6\n        /* \"#utility.yul\":4909:4915   */\n      dup3\n        /* \"#utility.yul\":4898:4907   */\n      dup7\n        /* \"#utility.yul\":4894:4916   */\n      add\n        /* \"#utility.yul\":4863:4926   */\n      tag_46\n      jump\t// in\n    tag_124:\n        /* \"#utility.yul\":4853:4926   */\n      swap3\n      pop\n        /* \"#utility.yul\":4649:4936   */\n      pop\n        /* \"#utility.yul\":5003:5005   */\n      0x20\n        /* \"#utility.yul\":4992:5001   */\n      dup4\n        /* \"#utility.yul\":4988:5006   */\n      add\n        /* \"#utility.yul\":4975:5007   */\n      calldataload\n        /* \"#utility.yul\":5034:5052   */\n      0xffffffffffffffff\n        /* \"#utility.yul\":5026:5032   */\n      dup2\n        /* \"#utility.yul\":5023:5053   */\n      gt\n        /* \"#utility.yul\":5020:5137   */\n      iszero\n      tag_125\n      jumpi\n        /* \"#utility.yul\":5056:5135   */\n      tag_126\n      tag_36\n      jump\t// in\n    tag_126:\n        /* \"#utility.yul\":5020:5137   */\n    tag_125:\n        /* \"#utility.yul\":5161:5249   */\n      tag_127\n        /* \"#utility.yul\":5241:5248   */\n      dup6\n        /* \"#utility.yul\":5232:5238   */\n      dup3\n        /* \"#utility.yul\":5221:5230   */\n      dup7\n        /* \"#utility.yul\":5217:5239   */\n      add\n        /* \"#utility.yul\":5161:5249   */\n      tag_50\n      jump\t// in\n    tag_127:\n        /* \"#utility.yul\":5151:5249   */\n      swap2\n      pop\n        /* \"#utility.yul\":4946:5259   */\n      pop\n        /* \"#utility.yul\":4382:5266   */\n      swap3\n      pop\n      swap3\n      swap1\n      pop\n      jump\t// out\n        /* \"#utility.yul\":5272:5349   */\n    tag_51:\n        /* \"#utility.yul\":5309:5316   */\n      0x00\n        /* \"#utility.yul\":5338:5343   */\n      dup2\n        /* \"#utility.yul\":5327:5343   */\n      swap1\n      pop\n        /* \"#utility.yul\":5272:5349   */\n      swap2\n      swap1\n      pop\n      jump\t// out\n        /* \"#utility.yul\":5355:5535   */\n    tag_52:\n        /* \"#utility.yul\":5403:5480   */\n      0x4e487b7100000000000000000000000000000000000000000000000000000000\n        /* \"#utility.yul\":5400:5401   */\n      0x00\n        /* \"#utility.yul\":5393:5481   */\n      mstore\n        /* \"#utility.yul\":5500:5504   */\n      0x11\n        /* \"#utility.yul\":5497:5498   */\n      0x04\n        /* \"#utility.yul\":5490:5505   */\n      mstore\n        /* \"#utility.yul\":5524:5528   */\n      0x24\n        /* \"#utility.yul\":5521:5522   */\n      0x00\n        /* \"#utility.yul\":5514:5529   */\n      revert\n        /* \"#utility.yul\":5541:5732   */\n    tag_10:\n        /* \"#utility.yul\":5581:5584   */\n      0x00\n        /* \"#utility.yul\":5600:5620   */\n      tag_131\n        /* \"#utility.yul\":5618:5619   */\n      dup3\n        /* \"#utility.yul\":5600:5620   */\n      tag_51\n      jump\t// in\n    tag_131:\n        /* \"#utility.yul\":5595:5620   */\n      swap2\n      pop\n        /* \"#utility.yul\":5634:5654   */\n      tag_132\n        /* \"#utility.yul\":5652:5653   */\n      dup4\n        /* \"#utility.yul\":5634:5654   */\n      tag_51\n      jump\t// in\n    tag_132:\n        /* \"#utility.yul\":5629:5654   */\n      swap3\n      pop\n        /* \"#utility.yul\":5677:5678   */\n      dup3\n        /* \"#utility.yul\":5674:5675   */\n      dup3\n        /* \"#utility.yul\":5670:5679   */\n      add\n        /* \"#utility.yul\":5663:5679   */\n      swap1\n      pop\n        /* \"#utility.yul\":5698:5701   */\n      dup1\n        /* \"#utility.yul\":5695:5696   */\n      dup3\n        /* \"#utility.yul\":5692:5702   */\n      gt\n        /* \"#utility.yul\":5689:5725   */\n      iszero\n      tag_133\n      jumpi\n        /* \"#utility.yul\":5705:5723   */\n      tag_134\n      tag_52\n      jump\t// in\n    tag_134:\n        /* \"#utility.yul\":5689:5725   */\n    tag_133:\n        /* \"#utility.yul\":5541:5732   */\n      swap3\n      swap2\n      pop\n      pop\n      jump\t// out\n        /* \"#utility.yul\":5738:5837   */\n    tag_53:\n        /* \"#utility.yul\":5790:5796   */\n      0x00\n        /* \"#utility.yul\":5824:5829   */\n      dup2\n        /* \"#utility.yul\":5818:5830   */\n      mload\n        /* \"#utility.yul\":5808:5830   */\n      swap1\n      pop\n        /* \"#utility.yul\":5738:5837   */\n      swap2\n      swap1\n      pop\n      jump\t// out\n        /* \"#utility.yul\":5843:6023   */\n    tag_54:\n        /* \"#utility.yul\":5891:5968   */\n      0x4e487b7100000000000000000000000000000000000000000000000000000000\n        /* \"#utility.yul\":5888:5889   */\n      0x00\n        /* \"#utility.yul\":5881:5969   */\n      mstore\n        /* \"#utility.yul\":5988:5992   */\n      0x22\n        /* \"#utility.yul\":5985:5986   */\n      0x04\n        /* \"#utility.yul\":5978:5993   */\n      mstore\n        /* \"#utility.yul\":6012:6016   */\n      0x24\n        /* \"#utility.yul\":6009:6010   */\n      0x00\n        /* \"#utility.yul\":6002:6017   */\n      revert\n        /* \"#utility.yul\":6029:6349   */\n    tag_27:\n        /* \"#utility.yul\":6073:6079   */\n      0x00\n        /* \"#utility.yul\":6110:6111   */\n      0x02\n        /* \"#utility.yul\":6104:6108   */\n      dup3\n        /* \"#utility.yul\":6100:6112   */\n      div\n        /* \"#utility.yul\":6090:6112   */\n      swap1\n      pop\n        /* \"#utility.yul\":6157:6158   */\n      0x01\n        /* \"#utility.yul\":6151:6155   */\n      dup3\n        /* \"#utility.yul\":6147:6159   */\n      and\n        /* \"#utility.yul\":6178:6196   */\n      dup1\n        /* \"#utility.yul\":6168:6249   */\n      tag_138\n      jumpi\n        /* \"#utility.yul\":6234:6238   */\n      0x7f\n        /* \"#utility.yul\":6226:6232   */\n      dup3\n        /* \"#utility.yul\":6222:6239   */\n      and\n        /* \"#utility.yul\":6212:6239   */\n      swap2\n      pop\n        /* \"#utility.yul\":6168:6249   */\n    tag_138:\n        /* \"#utility.yul\":6296:6298   */\n      0x20\n        /* \"#utility.yul\":6288:6294   */\n      dup3\n        /* \"#utility.yul\":6285:6299   */\n      lt\n        /* \"#utility.yul\":6265:6283   */\n      dup2\n        /* \"#utility.yul\":6262:6300   */\n      sub\n        /* \"#utility.yul\":6259:6343   */\n      tag_139\n      jumpi\n        /* \"#utility.yul\":6315:6333   */\n      tag_140\n      tag_54\n      jump\t// in\n    tag_140:\n        /* \"#utility.yul\":6259:6343   */\n    tag_139:\n        /* \"#utility.yul\":6080:6349   */\n      pop\n        /* \"#utility.yul\":6029:6349   */\n      swap2\n      swap1\n      pop\n      jump\t// out\n        /* \"#utility.yul\":6355:6496   */\n    tag_55:\n        /* \"#utility.yul\":6404:6408   */\n      0x00\n        /* \"#utility.yul\":6427:6430   */\n      dup2\n        /* \"#utility.yul\":6419:6430   */\n      swap1\n      pop\n        /* \"#utility.yul\":6450:6453   */\n      dup2\n        /* \"#utility.yul\":6447:6448   */\n      0x00\n        /* \"#utility.yul\":6440:6454   */\n      mstore\n        /* \"#utility.yul\":6484:6488   */\n      0x20\n        /* \"#utility.yul\":6481:6482   */\n      0x00\n        /* \"#utility.yul\":6471:6489   */\n      keccak256\n        /* \"#utility.yul\":6463:6489   */\n      swap1\n      pop\n        /* \"#utility.yul\":6355:6496   */\n      swap2\n      swap1\n      pop\n      jump\t// out\n        /* \"#utility.yul\":6502:6595   */\n    tag_56:\n        /* \"#utility.yul\":6539:6545   */\n      0x00\n        /* \"#utility.yul\":6586:6588   */\n      0x20\n        /* \"#utility.yul\":6581:6583   */\n      0x1f\n        /* \"#utility.yul\":6574:6579   */\n      dup4\n        /* \"#utility.yul\":6570:6584   */\n      add\n        /* \"#utility.yul\":6566:6589   */\n      div\n        /* \"#utility.yul\":6556:6589   */\n      swap1\n      pop\n        /* \"#utility.yul\":6502:6595   */\n      swap2\n      swap1\n      pop\n      jump\t// out\n        /* \"#utility.yul\":6601:6708   */\n    tag_57:\n        /* \"#utility.yul\":6645:6653   */\n      0x00\n        /* \"#utility.yul\":6695:6700   */\n      dup3\n        /* \"#utility.yul\":6689:6693   */\n      dup3\n        /* \"#utility.yul\":6685:6701   */\n      shl\n        /* \"#utility.yul\":6664:6701   */\n      swap1\n      pop\n        /* \"#utility.yul\":6601:6708   */\n      swap3\n      swap2\n      pop\n      pop\n      jump\t// out\n        /* \"#utility.yul\":6714:7107   */\n    tag_58:\n        /* \"#utility.yul\":6783:6789   */\n      0x00\n        /* \"#utility.yul\":6833:6834   */\n      0x08\n        /* \"#utility.yul\":6821:6831   */\n      dup4\n        /* \"#utility.yul\":6817:6835   */\n      mul\n        /* \"#utility.yul\":6856:6953   */\n      tag_145\n        /* \"#utility.yul\":6886:6952   */\n      0xffffffffffffffffffffffffffffffffffffffffffffffffffffffffffffffff\n        /* \"#utility.yul\":6875:6884   */\n      dup3\n        /* \"#utility.yul\":6856:6953   */\n      tag_57\n      jump\t// in\n    tag_145:\n        /* \"#utility.yul\":6974:7013   */\n      tag_146\n        /* \"#utility.yul\":7004:7012   */\n      dup7\n        /* \"#utility.yul\":6993:7002   */\n      dup4\n        /* \"#utility.yul\":6974:7013   */\n      tag_57\n      jump\t// in\n    tag_146:\n        /* \"#utility.yul\":6962:7013   */\n      swap6\n      pop\n        /* \"#utility.yul\":7046:7050   */\n      dup1\n        /* \"#utility.yul\":7042:7051   */\n      not\n        /* \"#utility.yul\":7035:7040   */\n      dup5\n        /* \"#utility.yul\":7031:7052   */\n      and\n        /* \"#utility.yul\":7022:7052   */\n      swap4\n      pop\n        /* \"#utility.yul\":7095:7099   */\n      dup1\n        /* \"#utility.yul\":7085:7093   */\n      dup7\n        /* \"#utility.yul\":7081:7100   */\n      and\n        /* \"#utility.yul\":7074:7079   */\n      dup5\n        /* \"#utility.yul\":7071:7101   */\n      or\n        /* \"#utility.yul\":7061:7101   */\n      swap3\n      pop\n        /* \"#utility.yul\":6790:7107   */\n      pop\n      pop\n        /* \"#utility.yul\":6714:7107   */\n      swap4\n      swap3\n      pop\n      pop\n      pop\n      jump\t// out\n        /* \"#utility.yul\":7113:7173   */\n    tag_59:\n        /* \"#utility.yul\":7141:7144   */\n      0x00\n        /* \"#utility.yul\":7162:7167   */\n      dup2\n        /* \"#utility.yul\":7155:7167   */\n      swap1\n      pop\n        /* \"#utility.yul\":7113:7173   */\n      swap2\n      swap1\n      pop\n      jump\t// out\n        /* \"#utility.yul\":7179:7321   */\n    tag_60:\n        /* \"#utility.yul\":7229:7238   */\n      0x00\n        /* \"#utility.yul\":7262:7315   */\n      tag_149\n        /* \"#utility.yul\":7280:7314   */\n      tag_150\n        /* \"#utility.yul\":7289:7313   */\n      tag_151\n        /* \"#utility.yul\":7307:7312   */\n      dup5\n        /* \"#utility.yul\":7289:7313   */\n      tag_51\n      jump\t// in\n    tag_151:\n        /* \"#utility.yul\":7280:7314   */\n      tag_59\n      jump\t// in\n    tag_150:\n        /* \"#utility.yul\":7262:7315   */\n      tag_51\n      jump\t// in\n    tag_149:\n        /* \"#utility.yul\":7249:7315   */\n      swap1\n      pop\n        /* \"#utility.yul\":7179:7321   */\n      swap2\n      swap1\n      pop\n      jump\t// out\n        /* \"#utility.yul\":7327:7402   */\n    tag_61:\n        /* \"#utility.yul\":7370:7373   */\n      0x00\n        /* \"#utility.yul\":7391:7396   */\n      dup2\n        /* \"#utility.yul\":7384:7396   */\n      swap1\n      pop\n        /* \"#utility.yul\":7327:7402   */\n      swap2\n      swap1\n      pop\n      jump\t// out\n        /* \"#utility.yul\":7408:7677   */\n    tag_62:\n        /* \"#utility.yul\":7518:7557   */\n      tag_154\n        /* \"#utility.yul\":7549:7556   */\n      dup4\n        /* \"#utility.yul\":7518:7557   */\n      tag_60\n      jump\t// in\n    tag_154:\n        /* \"#utility.yul\":7579:7670   */\n      tag_155\n        /* \"#utility.yul\":7628:7669   */\n      tag_156\n        /* \"#utility.yul\":7652:7668   */\n      dup3\n        /* \"#utility.yul\":7628:7669   */\n      tag_61\n      jump\t// in\n    tag_156:\n        /* \"#utility.yul\":7620:7626   */\n      dup5\n        /* \"#utility.yul\":7613:7617   */\n      dup5\n        /* \"#utility.yul\":7607:7618   */\n      sload\n        /* \"#utility.yul\":7579:7670   */\n      tag_58\n      jump\t// in\n    tag_155:\n        /* \"#utility.yul\":7573:7577   */\n      dup3\n        /* \"#utility.yul\":7566:7671   */\n      sstore\n        /* \"#utility.yul\":7484:7677   */\n      pop\n        /* \"#utility.yul\":7408:7677   */\n      pop\n      pop\n      pop\n      jump\t// out\n        /* \"#utility.yul\":7683:7756   */\n    tag_63:\n        /* \"#utility.yul\":7728:7731   */\n      0x00\n        /* \"#utility.yul\":7683:7756   */\n      swap1\n      jump\t// out\n        /* \"#utility.yul\":7762:7951   */\n    tag_64:\n        /* \"#utility.yul\":7839:7871   */\n      tag_159\n      tag_63\n      jump\t// in\n    tag_159:\n        /* \"#utility.yul\":7880:7945   */\n      tag_160\n        /* \"#utility.yul\":7938:7944   */\n      dup2\n        /* \"#utility.yul\":7930:7936   */\n      dup5\n        /* \"#utility.yul\":7924:7928   */\n      dup5\n        /* \"#utility.yul\":7880:7945   */\n      tag_62\n      jump\t// in\n    tag_160:\n        /* \"#utility.yul\":7815:7951   */\n      pop\n        /* \"#utility.yul\":7762:7951   */\n      pop\n      pop\n      jump\t// out\n        /* \"#utility.yul\":7957:8143   */\n    tag_65:\n        /* \"#utility.yul\":8017:8137   */\n    tag_162:\n        /* \"#utility.yul\":8034:8037   */\n      dup2\n        /* \"#utility.yul\":8027:8032   */\n      dup2\n        /* \"#utility.yul\":8024:8038   */\n      lt\n        /* \"#utility.yul\":8017:8137   */\n      iszero\n      tag_164\n      jumpi\n        /* \"#utility.yul\":8088:8127   */\n      tag_165\n        /* \"#utility.yul\":8125:8126   */\n      0x00\n        /* \"#utility.yul\":8118:8123   */\n      dup3\n        /* \"#utility.yul\":8088:8127   */\n      tag_64\n      jump\t// in\n    tag_165:\n        /* \"#utility.yul\":8061:8062   */\n      0x01\n        /* \"#utility.yul\":8054:8059   */\n      dup2\n        /* \"#utility.yul\":8050:8063   */\n      add\n        /* \"#utility.yul\":8041:8063   */\n      swap1\n      pop\n        /* \"#utility.yul\":8017:8137   */\n      jump(tag_162)\n    tag_164:\n        /* \"#utility.yul\":7957:8143   */\n      pop\n      pop\n      jump\t// out\n        /* \"#utility.yul\":8149:8692   */\n    tag_66:\n        /* \"#utility.yul\":8250:8252   */\n      0x1f\n        /* \"#utility.yul\":8245:8248   */\n      dup3\n        /* \"#utility.yul\":8242:8253   */\n      gt\n        /* \"#utility.yul\":8239:8685   */\n      iszero\n      tag_167\n      jumpi\n        /* \"#utility.yul\":8284:8322   */\n      tag_168\n        /* \"#utility.yul\":8316:8321   */\n      dup2\n        /* \"#utility.yul\":8284:8322   */\n      tag_55\n      jump\t// in\n    tag_168:\n        /* \"#utility.yul\":8368:8397   */\n      tag_169\n        /* \"#utility.yul\":8386:8396   */\n      dup5\n        /* \"#utility.yul\":8368:8397   */\n      tag_56\n      jump\t// in\n    tag_169:\n        /* \"#utility.yul\":8358:8366   */\n      dup2\n        /* \"#utility.yul\":8354:8398   */\n      add\n        /* \"#utility.yul\":8551:8553   */\n      0x20\n        /* \"#utility.yul\":8539:8549   */\n      dup6\n        /* \"#utility.yul\":8536:8554   */\n      lt\n        /* \"#utility.yul\":8533:8582   */\n      iszero\n      tag_170\n      jumpi\n        /* \"#utility.yul\":8572:8580   */\n      dup2\n        /* \"#utility.yul\":8557:8580   */\n      swap1\n      pop\n        /* \"#utility.yul\":8533:8582   */\n    tag_170:\n        /* \"#utility.yul\":8595:8675   */\n      tag_171\n        /* \"#utility.yul\":8651:8673   */\n      tag_172\n        /* \"#utility.yul\":8669:8672   */\n      dup6\n        /* \"#utility.yul\":8651:8673   */\n      tag_56\n      jump\t// in\n    tag_172:\n        /* \"#utility.yul\":8641:8649   */\n      dup4\n        /* \"#utility.yul\":8637:8674   */\n      add\n        /* \"#utility.yul\":8624:8635   */\n      dup3\n        /* \"#utility.yul\":8595:8675   */\n      tag_65\n      jump\t// in\n    tag_171:\n        /* \"#utility.yul\":8254:8685   */\n      pop\n      pop\n        /* \"#utility.yul\":8239:8685   */\n    tag_167:\n        /* \"#utility.yul\":8149:8692   */\n      pop\n      pop\n      pop\n      jump\t// out\n        /* \"#utility.yul\":8698:8815   */\n    tag_67:\n        /* \"#utility.yul\":8752:8760   */\n      0x00\n        /* \"#utility.yul\":8802:8807   */\n      dup3\n        /* \"#utility.yul\":8796:8800   */\n      dup3\n        /* \"#utility.yul\":8792:8808   */\n      shr\n        /* \"#utility.yul\":8771:8808   */\n      swap1\n      pop\n        /* \"#utility.yul\":8698:8815   */\n      swap3\n      swap2\n      pop\n      pop\n      jump\t// out\n        /* \"#utility.yul\":8821:8990   */\n    tag_68:\n        /* \"#utility.yul\":8865:8871   */\n      0x00\n        /* \"#utility.yul\":8898:8949   */\n      tag_175\n        /* \"#utility.yul\":8946:8947   */\n      0x00\n        /* \"#utility.yul\":8942:8948   */\n      not\n        /* \"#utility.yul\":8934:8939   */\n      dup5\n        /* \"#utility.yul\":8931:8932   */\n      0x08\n        /* \"#utility.yul\":8927:8940   */\n      mul\n        /* \"#utility.yul\":8898:8949   */\n      tag_67\n      jump\t// in\n    tag_175:\n        /* \"#utility.yul\":8894:8950   */\n      not\n        /* \"#utility.yul\":8979:8983   */\n      dup1\n        /* \"#utility.yul\":8973:8977   */\n      dup4\n        /* \"#utility.yul\":8969:8984   */\n      and\n        /* \"#utility.yul\":8959:8984   */\n      swap2\n      pop\n        /* \"#utility.yul\":8872:8990   */\n      pop\n        /* \"#utility.yul\":8821:8990   */\n      swap3\n      swap2\n      pop\n      pop\n      jump\t// out\n        /* \"#utility.yul\":8995:9290   */\n    tag_69:\n        /* \"#utility.yul\":9071:9075   */\n      0x00\n        /* \"#utility.yul\":9217:9246   */\n      tag_177\n        /* \"#utility.yul\":9242:9245   */\n      dup4\n        /* \"#utility.yul\":9236:9240   */\n      dup4\n        /* \"#utility.yul\":9217:9246   */\n      tag_68\n      jump\t// in\n    tag_177:\n        /* \"#utility.yul\":9209:9246   */\n      swap2\n      pop\n        /* \"#utility.yul\":9279:9282   */\n      dup3\n        /* \"#utility.yul\":9276:9277   */\n      0x02\n        /* \"#utility.yul\":9272:9283   */\n      mul\n        /* \"#utility.yul\":9266:9270   */\n      dup3\n        /* \"#utility.yul\":9263:9284   */\n      or\n        /* \"#utility.yul\":9255:9284   */\n      swap1\n      pop\n        /* \"#utility.yul\":8995:9290   */\n      swap3\n      swap2\n      pop\n      pop\n      jump\t// out\n        /* \"#utility.yul\":9295:10690   */\n    tag_13:\n        /* \"#utility.yul\":9412:9449   */\n      tag_179\n        /* \"#utility.yul\":9445:9448   */\n      dup3\n        /* \"#utility.yul\":9412:9449   */\n      tag_53\n      jump\t// in\n    tag_179:\n        /* \"#utility.yul\":9514:9532   */\n      0xffffffffffffffff\n        /* \"#utility.yul\":9506:9512   */\n      dup2\n        /* \"#utility.yul\":9503:9533   */\n      gt\n        /* \"#utility.yul\":9500:9556   */\n      iszero\n      tag_180\n      jumpi\n        /* \"#utility.yul\":9536:9554   */\n      tag_181\n      tag_40\n      jump\t// in\n    tag_181:\n        /* \"#utility.yul\":9500:9556   */\n    tag_180:\n        /* \"#utility.yul\":9580:9618   */\n      tag_182\n        /* \"#utility.yul\":9612:9616   */\n      dup3\n        /* \"#utility.yul\":9606:9617   */\n      sload\n        /* \"#utility.yul\":9580:9618   */\n      tag_27\n      jump\t// in\n    tag_182:\n        /* \"#utility.yul\":9665:9732   */\n      tag_183\n        /* \"#utility.yul\":9725:9731   */\n      dup3\n        /* \"#utility.yul\":9717:9723   */\n      dup3\n        /* \"#utility.yul\":9711:9715   */\n      dup6\n        /* \"#utility.yul\":9665:9732   */\n      tag_66\n      jump\t// in\n    tag_183:\n        /* \"#utility.yul\":9759:9760   */\n      0x00\n        /* \"#utility.yul\":9783:9787   */\n      0x20\n        /* \"#utility.yul\":9770:9787   */\n      swap1\n      pop\n        /* \"#utility.yul\":9815:9817   */\n      0x1f\n        /* \"#utility.yul\":9807:9813   */\n      dup4\n        /* \"#utility.yul\":9804:9818   */\n      gt\n        /* \"#utility.yul\":9832:9833   */\n      0x01\n        /* \"#utility.yul\":9827:10445   */\n      dup2\n      eq\n      tag_185\n      jumpi\n        /* \"#utility.yul\":10489:10490   */\n      0x00\n        /* \"#utility.yul\":10506:10512   */\n      dup5\n        /* \"#utility.yul\":10503:10580   */\n      iszero\n      tag_186\n      jumpi\n        /* \"#utility.yul\":10555:10564   */\n      dup3\n        /* \"#utility.yul\":10550:10553   */\n      dup8\n        /* \"#utility.yul\":10546:10565   */\n      add\n        /* \"#utility.yul\":10540:10566   */\n      mload\n        /* \"#utility.yul\":10531:10566   */\n      swap1\n      pop\n        /* \"#utility.yul\":10503:10580   */\n    tag_186:\n        /* \"#utility.yul\":10606:10673   */\n      tag_187\n        /* \"#utility.yul\":10666:10672   */\n      dup6\n        /* \"#utility.yul\":10659:10664   */\n      dup3\n        /* \"#utility.yul\":10606:10673   */\n      tag_69\n      jump\t// in\n    tag_187:\n        /* \"#utility.yul\":10600:10604   */\n      dup7\n        /* \"#utility.yul\":10593:10674   */\n      sstore\n        /* \"#utility.yul\":10462:10684   */\n      pop\n        /* \"#utility.yul\":9797:10684   */\n      jump(tag_184)\n        /* \"#utility.yul\":9827:10445   */\n    tag_185:\n        /* \"#utility.yul\":9879:9883   */\n      0x1f\n        /* \"#utility.yul\":9875:9884   */\n      not\n        /* \"#utility.yul\":9867:9873   */\n      dup5\n        /* \"#utility.yul\":9863:9885   */\n      and\n        /* \"#utility.yul\":9913:9950   */\n      tag_188\n        /* \"#utility.yul\":9945:9949   */\n      dup7\n        /* \"#utility.yul\":9913:9950   */\n      tag_55\n      jump\t// in\n    tag_188:\n        /* \"#utility.yul\":9972:9973   */\n      0x00\n        /* \"#utility.yul\":9986:10194   */\n    tag_189:\n        /* \"#utility.yul\":10000:10007   */\n      dup3\n        /* \"#utility.yul\":9997:9998   */\n      dup2\n        /* \"#utility.yul\":9994:10008   */\n      lt\n        /* \"#utility.yul\":9986:10194   */\n      iszero\n      tag_191\n      jumpi\n        /* \"#utility.yul\":10079:10088   */\n      dup5\n        /* \"#utility.yul\":10074:10077   */\n      dup10\n        /* \"#utility.yul\":10070:10089   */\n      add\n        /* \"#utility.yul\":10064:10090   */\n      mload\n        /* \"#utility.yul\":10056:10062   */\n      dup3\n        /* \"#utility.yul\":10049:10091   */\n      sstore\n        /* \"#utility.yul\":10130:10131   */\n      0x01\n        /* \"#utility.yul\":10122:10128   */\n      dup3\n        /* \"#utility.yul\":10118:10132   */\n      add\n        /* \"#utility.yul\":10108:10132   */\n      swap2\n      pop\n        /* \"#utility.yul\":10177:10179   */\n      0x20\n        /* \"#utility.yul\":10166:10175   */\n      dup6\n        /* \"#utility.yul\":10162:10180   */\n      add\n        /* \"#utility.yul\":10149:10180   */\n      swap5\n      pop\n        /* \"#utility.yul\":10023:10027   */\n      0x20\n        /* \"#utility.yul\":10020:10021   */\n      dup2\n        /* \"#utility.yul\":10016:10028   */\n      add\n        /* \"#utility.yul\":10011:10028   */\n      swap1\n      pop\n        /* \"#utility.yul\":9986:10194   */\n      jump(tag_189)\n    tag_191:\n        /* \"#utility.yul\":10222:10228   */\n      dup7\n        /* \"#utility.yul\":10213:10220   */\n      dup4\n        /* \"#utility.yul\":10210:10229   */\n      lt\n        /* \"#utility.yul\":10207:10386   */\n      iszero\n      tag_192\n      jumpi\n        /* \"#utility.yul\":10280:10289   */\n      dup5\n        /* \"#utility.yul\":10275:10278   */\n      dup10\n        /* \"#utility.yul\":10271:10290   */\n      add\n        /* \"#utility.yul\":10265:10291   */\n      mload\n        /* \"#utility.yul\":10323:10371   */\n      tag_193\n        /* \"#utility.yul\":10365:10369   */\n      0x1f\n        /* \"#utility.yul\":10357:10363   */\n      dup10\n        /* \"#utility.yul\":10353:10370   */\n      and\n        /* \"#utility.yul\":10342:10351   */\n      dup3\n        /* \"#utility.yul\":10323:10371   */\n      tag_68\n      jump\t// in\n    tag_193:\n        /* \"#utility.yul\":10315:10321   */\n      dup4\n        /* \"#utility.yul\":10308:10372   */\n      sstore\n        /* \"#utility.yul\":10230:10386   */\n      pop\n        /* \"#utility.yul\":10207:10386   */\n    tag_192:\n        /* \"#utility.yul\":10432:10433   */\n      0x01\n        /* \"#utility.yul\":10428:10429   */\n      0x02\n        /* \"#utility.yul\":10420:10426   */\n      dup9\n        /* \"#utility.yul\":10416:10430   */\n      mul\n        /* \"#utility.yul\":10412:10434   */\n      add\n        /* \"#utility.yul\":10406:10410   */\n      dup9\n        /* \"#utility.yul\":10399:10435   */\n      sstore\n        /* \"#utility.yul\":9834:10445   */\n      pop\n      pop\n      pop\n        /* \"#utility.yul\":9797:10684   */\n    tag_184:\n      pop\n        /* \"#utility.yul\":9387:10690   */\n      pop\n      pop\n      pop\n        /* \"#utility.yul\":9295:10690   */\n      pop\n      pop\n      jump\t// out\n\n    auxdata: 0xa2646970667358221220c631e5ff68a0c90c91e421c4e1e2c3e1b6aa8057e5758a927217038446d1c45764736f6c63430008120033\n}\n",
				"bytecode": {
					"linkReferences": {},
					"object": "608060405234801561001057600080fd5b50610804806100206000396000f3fe608060405234801561001057600080fd5b506004361061002b5760003560e01c80637283a06914610030575b600080fd5b61004a60048036038101906100459190610400565b61004c565b005b60006040518060600160405280600160008054905061006b91906104b1565b81526020018481526020018381525090806001815401808255809150506001900390600052602060002090600302016000909190919091506000820151816000015560208201518160010190816100c291906106fc565b5060408201518160020190805190602001906100df9291906100e6565b5050505050565b82805482825590600052602060002090810192821561012e579160200282015b8281111561012d57825182908161011d91906106fc565b5091602001919060010190610106565b5b50905061013b919061013f565b5090565b5b8082111561015f57600081816101569190610163565b50600101610140565b5090565b50805461016f9061051f565b6000825580601f1061018157506101a0565b601f01602090049060005260206000209081019061019f91906101a3565b5b50565b5b808211156101bc5760008160009055506001016101a4565b5090565b6000604051905090565b600080fd5b600080fd5b600080fd5b600080fd5b6000601f19601f8301169050919050565b7f4e487b7100000000000000000000000000000000000000000000000000000000600052604160045260246000fd5b610227826101de565b810181811067ffffffffffffffff82111715610246576102456101ef565b5b80604052505050565b60006102596101c0565b9050610265828261021e565b919050565b600067ffffffffffffffff821115610285576102846101ef565b5b61028e826101de565b9050602081019050919050565b82818337600083830152505050565b60006102bd6102b88461026a565b61024f565b9050828152602081018484840111156102d9576102d86101d9565b5b6102e484828561029b565b509392505050565b600082601f830112610301576103006101d4565b5b81356103118482602086016102aa565b91505092915050565b600067ffffffffffffffff821115610335576103346101ef565b5b602082029050602081019050919050565b600080fd5b600061035e6103598461031a565b61024f565b9050808382526020820190506020840283018581111561038157610380610346565b5b835b818110156103c857803567ffffffffffffffff8111156103a6576103a56101d4565b5b8086016103b389826102ec565b85526020850194505050602081019050610383565b5050509392505050565b600082601f8301126103e7576103e66101d4565b5b81356103f784826020860161034b565b91505092915050565b60008060408385031215610417576104166101ca565b5b600083013567ffffffffffffffff811115610435576104346101cf565b5b610441858286016102ec565b925050602083013567ffffffffffffffff811115610462576104616101cf565b5b61046e858286016103d2565b9150509250929050565b6000819050919050565b7f4e487b7100000000000000000000000000000000000000000000000000000000600052601160045260246000fd5b60006104bc82610478565b91506104c783610478565b92508282019050808211156104df576104de610482565b5b92915050565b600081519050919050565b7f4e487b7100000000000000000000000000000000000000000000000000000000600052602260045260246000fd5b6000600282049050600182168061053757607f821691505b60208210810361054a576105496104f0565b5b50919050565b60008190508160005260206000209050919050565b60006020601f8301049050919050565b600082821b905092915050565b6000600883026105b27fffffffffffffffffffffffffffffffffffffffffffffffffffffffffffffffff82610575565b6105bc8683610575565b95508019841693508086168417925050509392505050565b6000819050919050565b60006105f96105f46105ef84610478565b6105d4565b610478565b9050919050565b6000819050919050565b610613836105de565b61062761061f82610600565b848454610582565b825550505050565b600090565b61063c61062f565b61064781848461060a565b505050565b5b8181101561066b57610660600082610634565b60018101905061064d565b5050565b601f8211156106b05761068181610550565b61068a84610565565b81016020851015610699578190505b6106ad6106a585610565565b83018261064c565b50505b505050565b600082821c905092915050565b60006106d3600019846008026106b5565b1980831691505092915050565b60006106ec83836106c2565b9150826002028217905092915050565b610705826104e5565b67ffffffffffffffff81111561071e5761071d6101ef565b5b610728825461051f565b61073382828561066f565b600060209050601f8311600181146107665760008415610754578287015190505b61075e85826106e0565b8655506107c6565b601f19841661077486610550565b60005b8281101561079c57848901518255600182019150602085019450602081019050610777565b868310156107b957848901516107b5601f8916826106c2565b8355505b6001600288020188555050505b50505050505056fea2646970667358221220c631e5ff68a0c90c91e421c4e1e2c3e1b6aa8057e5758a927217038446d1c45764736f6c63430008120033",
					"opcodes": "PUSH1 0x80 PUSH1 0x40 MSTORE CALLVALUE DUP1 ISZERO PUSH2 0x10 JUMPI PUSH1 0x0 DUP1 REVERT JUMPDEST POP PUSH2 0x804 DUP1 PUSH2 0x20 PUSH1 0x0 CODECOPY PUSH1 0x0 RETURN INVALID PUSH1 0x80 PUSH1 0x40 MSTORE CALLVALUE DUP1 ISZERO PUSH2 0x10 JUMPI PUSH1 0x0 DUP1 REVERT JUMPDEST POP PUSH1 0x4 CALLDATASIZE LT PUSH2 0x2B JUMPI PUSH1 0x0 CALLDATALOAD PUSH1 0xE0 SHR DUP1 PUSH4 0x7283A069 EQ PUSH2 0x30 JUMPI JUMPDEST PUSH1 0x0 DUP1 REVERT JUMPDEST PUSH2 0x4A PUSH1 0x4 DUP1 CALLDATASIZE SUB DUP2 ADD SWAP1 PUSH2 0x45 SWAP2 SWAP1 PUSH2 0x400 JUMP JUMPDEST PUSH2 0x4C JUMP JUMPDEST STOP JUMPDEST PUSH1 0x0 PUSH1 0x40 MLOAD DUP1 PUSH1 0x60 ADD PUSH1 0x40 MSTORE DUP1 PUSH1 0x1 PUSH1 0x0 DUP1 SLOAD SWAP1 POP PUSH2 0x6B SWAP2 SWAP1 PUSH2 0x4B1 JUMP JUMPDEST DUP2 MSTORE PUSH1 0x20 ADD DUP5 DUP2 MSTORE PUSH1 0x20 ADD DUP4 DUP2 MSTORE POP SWAP1 DUP1 PUSH1 0x1 DUP2 SLOAD ADD DUP1 DUP3 SSTORE DUP1 SWAP2 POP POP PUSH1 0x1 SWAP1 SUB SWAP1 PUSH1 0x0 MSTORE PUSH1 0x20 PUSH1 0x0 KECCAK256 SWAP1 PUSH1 0x3 MUL ADD PUSH1 0x0 SWAP1 SWAP2 SWAP1 SWAP2 SWAP1 SWAP2 POP PUSH1 0x0 DUP3 ADD MLOAD DUP2 PUSH1 0x0 ADD SSTORE PUSH1 0x20 DUP3 ADD MLOAD DUP2 PUSH1 0x1 ADD SWAP1 DUP2 PUSH2 0xC2 SWAP2 SWAP1 PUSH2 0x6FC JUMP JUMPDEST POP PUSH1 0x40 DUP3 ADD MLOAD DUP2 PUSH1 0x2 ADD SWAP1 DUP1 MLOAD SWAP1 PUSH1 0x20 ADD SWAP1 PUSH2 0xDF SWAP3 SWAP2 SWAP1 PUSH2 0xE6 JUMP JUMPDEST POP POP POP POP POP JUMP JUMPDEST DUP3 DUP1 SLOAD DUP3 DUP3 SSTORE SWAP1 PUSH1 0x0 MSTORE PUSH1 0x20 PUSH1 0x0 KECCAK256 SWAP1 DUP2 ADD SWAP3 DUP3 ISZERO PUSH2 0x12E JUMPI SWAP2 PUSH1 0x20 MUL DUP3 ADD JUMPDEST DUP3 DUP2 GT ISZERO PUSH2 0x12D JUMPI DUP3 MLOAD DUP3 SWAP1 DUP2 PUSH2 0x11D SWAP2 SWAP1 PUSH2 0x6FC JUMP JUMPDEST POP SWAP2 PUSH1 0x20 ADD SWAP2 SWAP1 PUSH1 0x1 ADD SWAP1 PUSH2 0x106 JUMP JUMPDEST JUMPDEST POP SWAP1 POP PUSH2 0x13B SWAP2 SWAP1 PUSH2 0x13F JUMP JUMPDEST POP SWAP1 JUMP JUMPDEST JUMPDEST DUP1 DUP3 GT ISZERO PUSH2 0x15F JUMPI PUSH1 0x0 DUP2 DUP2 PUSH2 0x156 SWAP2 SWAP1 PUSH2 0x163 JUMP JUMPDEST POP PUSH1 0x1 ADD PUSH2 0x140 JUMP JUMPDEST POP SWAP1 JUMP JUMPDEST POP DUP1 SLOAD PUSH2 0x16F SWAP1 PUSH2 0x51F JUMP JUMPDEST PUSH1 0x0 DUP3 SSTORE DUP1 PUSH1 0x1F LT PUSH2 0x181 JUMPI POP PUSH2 0x1A0 JUMP JUMPDEST PUSH1 0x1F ADD PUSH1 0x20 SWAP1 DIV SWAP1 PUSH1 0x0 MSTORE PUSH1 0x20 PUSH1 0x0 KECCAK256 SWAP1 DUP2 ADD SWAP1 PUSH2 0x19F SWAP2 SWAP1 PUSH2 0x1A3 JUMP JUMPDEST JUMPDEST POP JUMP JUMPDEST JUMPDEST DUP1 DUP3 GT ISZERO PUSH2 0x1BC JUMPI PUSH1 0x0 DUP2 PUSH1 0x0 SWAP1 SSTORE POP PUSH1 0x1 ADD PUSH2 0x1A4 JUMP JUMPDEST POP SWAP1 JUMP JUMPDEST PUSH1 0x0 PUSH1 0x40 MLOAD SWAP1 POP SWAP1 JUMP JUMPDEST PUSH1 0x0 DUP1 REVERT JUMPDEST PUSH1 0x0 DUP1 REVERT JUMPDEST PUSH1 0x0 DUP1 REVERT JUMPDEST PUSH1 0x0 DUP1 REVERT JUMPDEST PUSH1 0x0 PUSH1 0x1F NOT PUSH1 0x1F DUP4 ADD AND SWAP1 POP SWAP2 SWAP1 POP JUMP JUMPDEST PUSH32 0x4E487B7100000000000000000000000000000000000000000000000000000000 PUSH1 0x0 MSTORE PUSH1 0x41 PUSH1 0x4 MSTORE PUSH1 0x24 PUSH1 0x0 REVERT JUMPDEST PUSH2 0x227 DUP3 PUSH2 0x1DE JUMP JUMPDEST DUP2 ADD DUP2 DUP2 LT PUSH8 0xFFFFFFFFFFFFFFFF DUP3 GT OR ISZERO PUSH2 0x246 JUMPI PUSH2 0x245 PUSH2 0x1EF JUMP JUMPDEST JUMPDEST DUP1 PUSH1 0x40 MSTORE POP POP POP JUMP JUMPDEST PUSH1 0x0 PUSH2 0x259 PUSH2 0x1C0 JUMP JUMPDEST SWAP1 POP PUSH2 0x265 DUP3 DUP3 PUSH2 0x21E JUMP JUMPDEST SWAP2 SWAP1 POP JUMP JUMPDEST PUSH1 0x0 PUSH8 0xFFFFFFFFFFFFFFFF DUP3 GT ISZERO PUSH2 0x285 JUMPI PUSH2 0x284 PUSH2 0x1EF JUMP JUMPDEST JUMPDEST PUSH2 0x28E DUP3 PUSH2 0x1DE JUMP JUMPDEST SWAP1 POP PUSH1 0x20 DUP2 ADD SWAP1 POP SWAP2 SWAP1 POP JUMP JUMPDEST DUP3 DUP2 DUP4 CALLDATACOPY PUSH1 0x0 DUP4 DUP4 ADD MSTORE POP POP POP JUMP JUMPDEST PUSH1 0x0 PUSH2 0x2BD PUSH2 0x2B8 DUP5 PUSH2 0x26A JUMP JUMPDEST PUSH2 0x24F JUMP JUMPDEST SWAP1 POP DUP3 DUP2 MSTORE PUSH1 0x20 DUP2 ADD DUP5 DUP5 DUP5 ADD GT ISZERO PUSH2 0x2D9 JUMPI PUSH2 0x2D8 PUSH2 0x1D9 JUMP JUMPDEST JUMPDEST PUSH2 0x2E4 DUP5 DUP3 DUP6 PUSH2 0x29B JUMP JUMPDEST POP SWAP4 SWAP3 POP POP POP JUMP JUMPDEST PUSH1 0x0 DUP3 PUSH1 0x1F DUP4 ADD SLT PUSH2 0x301 JUMPI PUSH2 0x300 PUSH2 0x1D4 JUMP JUMPDEST JUMPDEST DUP2 CALLDATALOAD PUSH2 0x311 DUP5 DUP3 PUSH1 0x20 DUP7 ADD PUSH2 0x2AA JUMP JUMPDEST SWAP2 POP POP SWAP3 SWAP2 POP POP JUMP JUMPDEST PUSH1 0x0 PUSH8 0xFFFFFFFFFFFFFFFF DUP3 GT ISZERO PUSH2 0x335 JUMPI PUSH2 0x334 PUSH2 0x1EF JUMP JUMPDEST JUMPDEST PUSH1 0x20 DUP3 MUL SWAP1 POP PUSH1 0x20 DUP2 ADD SWAP1 POP SWAP2 SWAP1 POP JUMP JUMPDEST PUSH1 0x0 DUP1 REVERT JUMPDEST PUSH1 0x0 PUSH2 0x35E PUSH2 0x359 DUP5 PUSH2 0x31A JUMP JUMPDEST PUSH2 0x24F JUMP JUMPDEST SWAP1 POP DUP1 DUP4 DUP3 MSTORE PUSH1 0x20 DUP3 ADD SWAP1 POP PUSH1 0x20 DUP5 MUL DUP4 ADD DUP6 DUP2 GT ISZERO PUSH2 0x381 JUMPI PUSH2 0x380 PUSH2 0x346 JUMP JUMPDEST JUMPDEST DUP4 JUMPDEST DUP2 DUP2 LT ISZERO PUSH2 0x3C8 JUMPI DUP1 CALLDATALOAD PUSH8 0xFFFFFFFFFFFFFFFF DUP2 GT ISZERO PUSH2 0x3A6 JUMPI PUSH2 0x3A5 PUSH2 0x1D4 JUMP JUMPDEST JUMPDEST DUP1 DUP7 ADD PUSH2 0x3B3 DUP10 DUP3 PUSH2 0x2EC JUMP JUMPDEST DUP6 MSTORE PUSH1 0x20 DUP6 ADD SWAP5 POP POP POP PUSH1 0x20 DUP2 ADD SWAP1 POP PUSH2 0x383 JUMP JUMPDEST POP POP POP SWAP4 SWAP3 POP POP POP JUMP JUMPDEST PUSH1 0x0 DUP3 PUSH1 0x1F DUP4 ADD SLT PUSH2 0x3E7 JUMPI PUSH2 0x3E6 PUSH2 0x1D4 JUMP JUMPDEST JUMPDEST DUP2 CALLDATALOAD PUSH2 0x3F7 DUP5 DUP3 PUSH1 0x20 DUP7 ADD PUSH2 0x34B JUMP JUMPDEST SWAP2 POP POP SWAP3 SWAP2 POP POP JUMP JUMPDEST PUSH1 0x0 DUP1 PUSH1 0x40 DUP4 DUP6 SUB SLT ISZERO PUSH2 0x417 JUMPI PUSH2 0x416 PUSH2 0x1CA JUMP JUMPDEST JUMPDEST PUSH1 0x0 DUP4 ADD CALLDATALOAD PUSH8 0xFFFFFFFFFFFFFFFF DUP2 GT ISZERO PUSH2 0x435 JUMPI PUSH2 0x434 PUSH2 0x1CF JUMP JUMPDEST JUMPDEST PUSH2 0x441 DUP6 DUP3 DUP7 ADD PUSH2 0x2EC JUMP JUMPDEST SWAP3 POP POP PUSH1 0x20 DUP4 ADD CALLDATALOAD PUSH8 0xFFFFFFFFFFFFFFFF DUP2 GT ISZERO PUSH2 0x462 JUMPI PUSH2 0x461 PUSH2 0x1CF JUMP JUMPDEST JUMPDEST PUSH2 0x46E DUP6 DUP3 DUP7 ADD PUSH2 0x3D2 JUMP JUMPDEST SWAP2 POP POP SWAP3 POP SWAP3 SWAP1 POP JUMP JUMPDEST PUSH1 0x0 DUP2 SWAP1 POP SWAP2 SWAP1 POP JUMP JUMPDEST PUSH32 0x4E487B7100000000000000000000000000000000000000000000000000000000 PUSH1 0x0 MSTORE PUSH1 0x11 PUSH1 0x4 MSTORE PUSH1 0x24 PUSH1 0x0 REVERT JUMPDEST PUSH1 0x0 PUSH2 0x4BC DUP3 PUSH2 0x478 JUMP JUMPDEST SWAP2 POP PUSH2 0x4C7 DUP4 PUSH2 0x478 JUMP JUMPDEST SWAP3 POP DUP3 DUP3 ADD SWAP1 POP DUP1 DUP3 GT ISZERO PUSH2 0x4DF JUMPI PUSH2 0x4DE PUSH2 0x482 JUMP JUMPDEST JUMPDEST SWAP3 SWAP2 POP POP JUMP JUMPDEST PUSH1 0x0 DUP2 MLOAD SWAP1 POP SWAP2 SWAP1 POP JUMP JUMPDEST PUSH32 0x4E487B7100000000000000000000000000000000000000000000000000000000 PUSH1 0x0 MSTORE PUSH1 0x22 PUSH1 0x4 MSTORE PUSH1 0x24 PUSH1 0x0 REVERT JUMPDEST PUSH1 0x0 PUSH1 0x2 DUP3 DIV SWAP1 POP PUSH1 0x1 DUP3 AND DUP1 PUSH2 0x537 JUMPI PUSH1 0x7F DUP3 AND SWAP2 POP JUMPDEST PUSH1 0x20 DUP3 LT DUP2 SUB PUSH2 0x54A JUMPI PUSH2 0x549 PUSH2 0x4F0 JUMP JUMPDEST JUMPDEST POP SWAP2 SWAP1 POP JUMP JUMPDEST PUSH1 0x0 DUP2 SWAP1 POP DUP2 PUSH1 0x0 MSTORE PUSH1 0x20 PUSH1 0x0 KECCAK256 SWAP1 POP SWAP2 SWAP1 POP JUMP JUMPDEST PUSH1 0x0 PUSH1 0x20 PUSH1 0x1F DUP4 ADD DIV SWAP1 POP SWAP2 SWAP1 POP JUMP JUMPDEST PUSH1 0x0 DUP3 DUP3 SHL SWAP1 POP SWAP3 SWAP2 POP POP JUMP JUMPDEST PUSH1 0x0 PUSH1 0x8 DUP4 MUL PUSH2 0x5B2 PUSH32 0xFFFFFFFFFFFFFFFFFFFFFFFFFFFFFFFFFFFFFFFFFFFFFFFFFFFFFFFFFFFFFFFF DUP3 PUSH2 0x575 JUMP JUMPDEST PUSH2 0x5BC DUP7 DUP4 PUSH2 0x575 JUMP JUMPDEST SWAP6 POP DUP1 NOT DUP5 AND SWAP4 POP DUP1 DUP7 AND DUP5 OR SWAP3 POP POP POP SWAP4 SWAP3 POP POP POP JUMP JUMPDEST PUSH1 0x0 DUP2 SWAP1 POP SWAP2 SWAP1 POP JUMP JUMPDEST PUSH1 0x0 PUSH2 0x5F9 PUSH2 0x5F4 PUSH2 0x5EF DUP5 PUSH2 0x478 JUMP JUMPDEST PUSH2 0x5D4 JUMP JUMPDEST PUSH2 0x478 JUMP JUMPDEST SWAP1 POP SWAP2 SWAP1 POP JUMP JUMPDEST PUSH1 0x0 DUP2 SWAP1 POP SWAP2 SWAP1 POP JUMP JUMPDEST PUSH2 0x613 DUP4 PUSH2 0x5DE JUMP JUMPDEST PUSH2 0x627 PUSH2 0x61F DUP3 PUSH2 0x600 JUMP JUMPDEST DUP5 DUP5 SLOAD PUSH2 0x582 JUMP JUMPDEST DUP3 SSTORE POP POP POP POP JUMP JUMPDEST PUSH1 0x0 SWAP1 JUMP JUMPDEST PUSH2 0x63C PUSH2 0x62F JUMP JUMPDEST PUSH2 0x647 DUP2 DUP5 DUP5 PUSH2 0x60A JUMP JUMPDEST POP POP POP JUMP JUMPDEST JUMPDEST DUP2 DUP2 LT ISZERO PUSH2 0x66B JUMPI PUSH2 0x660 PUSH1 0x0 DUP3 PUSH2 0x634 JUMP JUMPDEST PUSH1 0x1 DUP2 ADD SWAP1 POP PUSH2 0x64D JUMP JUMPDEST POP POP JUMP JUMPDEST PUSH1 0x1F DUP3 GT ISZERO PUSH2 0x6B0 JUMPI PUSH2 0x681 DUP2 PUSH2 0x550 JUMP JUMPDEST PUSH2 0x68A DUP5 PUSH2 0x565 JUMP JUMPDEST DUP2 ADD PUSH1 0x20 DUP6 LT ISZERO PUSH2 0x699 JUMPI DUP2 SWAP1 POP JUMPDEST PUSH2 0x6AD PUSH2 0x6A5 DUP6 PUSH2 0x565 JUMP JUMPDEST DUP4 ADD DUP3 PUSH2 0x64C JUMP JUMPDEST POP POP JUMPDEST POP POP POP JUMP JUMPDEST PUSH1 0x0 DUP3 DUP3 SHR SWAP1 POP SWAP3 SWAP2 POP POP JUMP JUMPDEST PUSH1 0x0 PUSH2 0x6D3 PUSH1 0x0 NOT DUP5 PUSH1 0x8 MUL PUSH2 0x6B5 JUMP JUMPDEST NOT DUP1 DUP4 AND SWAP2 POP POP SWAP3 SWAP2 POP POP JUMP JUMPDEST PUSH1 0x0 PUSH2 0x6EC DUP4 DUP4 PUSH2 0x6C2 JUMP JUMPDEST SWAP2 POP DUP3 PUSH1 0x2 MUL DUP3 OR SWAP1 POP SWAP3 SWAP2 POP POP JUMP JUMPDEST PUSH2 0x705 DUP3 PUSH2 0x4E5 JUMP JUMPDEST PUSH8 0xFFFFFFFFFFFFFFFF DUP2 GT ISZERO PUSH2 0x71E JUMPI PUSH2 0x71D PUSH2 0x1EF JUMP JUMPDEST JUMPDEST PUSH2 0x728 DUP3 SLOAD PUSH2 0x51F JUMP JUMPDEST PUSH2 0x733 DUP3 DUP3 DUP6 PUSH2 0x66F JUMP JUMPDEST PUSH1 0x0 PUSH1 0x20 SWAP1 POP PUSH1 0x1F DUP4 GT PUSH1 0x1 DUP2 EQ PUSH2 0x766 JUMPI PUSH1 0x0 DUP5 ISZERO PUSH2 0x754 JUMPI DUP3 DUP8 ADD MLOAD SWAP1 POP JUMPDEST PUSH2 0x75E DUP6 DUP3 PUSH2 0x6E0 JUMP JUMPDEST DUP7 SSTORE POP PUSH2 0x7C6 JUMP JUMPDEST PUSH1 0x1F NOT DUP5 AND PUSH2 0x774 DUP7 PUSH2 0x550 JUMP JUMPDEST PUSH1 0x0 JUMPDEST DUP3 DUP2 LT ISZERO PUSH2 0x79C JUMPI DUP5 DUP10 ADD MLOAD DUP3 SSTORE PUSH1 0x1 DUP3 ADD SWAP2 POP PUSH1 0x20 DUP6 ADD SWAP5 POP PUSH1 0x20 DUP2 ADD SWAP1 POP PUSH2 0x777 JUMP JUMPDEST DUP7 DUP4 LT ISZERO PUSH2 0x7B9 JUMPI DUP5 DUP10 ADD MLOAD PUSH2 0x7B5 PUSH1 0x1F DUP10 AND DUP3 PUSH2 0x6C2 JUMP JUMPDEST DUP4 SSTORE POP JUMPDEST PUSH1 0x1 PUSH1 0x2 DUP9 MUL ADD DUP9 SSTORE POP POP POP JUMPDEST POP POP POP POP POP POP JUMP INVALID LOG2 PUSH5 0x6970667358 0x22 SLT KECCAK256 0xC6 BALANCE 0xE5 SELFDESTRUCT PUSH9 0xA0C90C91E421C4E1E2 0xC3 0xE1 0xB6 0xAA DUP1 JUMPI 0xE5 PUSH22 0x8A927217038446D1C45764736F6C6343000812003300 "
				},
				"gasEstimates": {
					"creation": {
						"codeDepositCost": "410400",
						"executionCost": "449",
						"totalCost": "410849"
					},
					"external": {
						"setStudent(string,string[])": "infinite"
					}
				},
				"methodIdentifiers": {
					"setStudent(string,string[])": "7283a069"
				}
			},
			"storageLayout": {
				"storage": [
					{
						"astId": 122,
						"contract": "contracts-basic/week2.sol:_14",
						"label": "students",
						"offset": 0,
						"slot": "0",
						"type": "t_array(t_struct(student)118_storage)dyn_storage"
					}
				],
				"types": {
					"t_array(t_string_storage)dyn_storage": {
						"base": "t_string_storage",
						"encoding": "dynamic_array",
						"label": "string[]",
						"numberOfBytes": "32"
					},
					"t_array(t_struct(student)118_storage)dyn_storage": {
						"base": "t_struct(student)118_storage",
						"encoding": "dynamic_array",
						"label": "struct _14.student[]",
						"numberOfBytes": "32"
					},
					"t_string_storage": {
						"encoding": "bytes",
						"label": "string",
						"numberOfBytes": "32"
					},
					"t_struct(student)118_storage": {
						"encoding": "inplace",
						"label": "struct _14.student",
						"members": [
							{
								"astId": 112,
								"contract": "contracts-basic/week2.sol:_14",
								"label": "number",
								"offset": 0,
								"slot": "0",
								"type": "t_uint256"
							},
							{
								"astId": 114,
								"contract": "contracts-basic/week2.sol:_14",
								"label": "name",
								"offset": 0,
								"slot": "1",
								"type": "t_string_storage"
							},
							{
								"astId": 117,
								"contract": "contracts-basic/week2.sol:_14",
								"label": "classes",
								"offset": 0,
								"slot": "2",
								"type": "t_array(t_string_storage)dyn_storage"
							}
						],
						"numberOfBytes": "96"
					},
					"t_uint256": {
						"encoding": "inplace",
						"label": "uint256",
						"numberOfBytes": "32"
					}
				}
			},
			"userdoc": {
				"kind": "user",
				"methods": {},
				"version": 1
			}
		}
	}
}