{
	"contracts-basic/week3.sol": {
		"_25": {
			"abi": [
				{
					"inputs": [
						{
							"internalType": "uint256",
							"name": "n",
							"type": "uint256"
						}
					],
					"name": "autoPush",
					"outputs": [],
					"stateMutability": "nonpayable",
					"type": "function"
				},
				{
					"inputs": [
						{
							"internalType": "uint256",
							"name": "n",
							"type": "uint256"
						}
					],
					"name": "autoPush2",
					"outputs": [],
					"stateMutability": "nonpayable",
					"type": "function"
				}
			],
			"devdoc": {
				"kind": "dev",
				"methods": {},
				"version": 1
			},
			"evm": {
				"assembly": "    /* \"contracts-basic/week3.sol\":799:1087  contract _25 {... */\n  mstore(0x40, 0x80)\n  callvalue\n  dup1\n  iszero\n  tag_1\n  jumpi\n  0x00\n  dup1\n  revert\ntag_1:\n  pop\n  dataSize(sub_0)\n  dup1\n  dataOffset(sub_0)\n  0x00\n  codecopy\n  0x00\n  return\nstop\n\nsub_0: assembly {\n        /* \"contracts-basic/week3.sol\":799:1087  contract _25 {... */\n      mstore(0x40, 0x80)\n      callvalue\n      dup1\n      iszero\n      tag_1\n      jumpi\n      0x00\n      dup1\n      revert\n    tag_1:\n      pop\n      jumpi(tag_2, lt(calldatasize, 0x04))\n      shr(0xe0, calldataload(0x00))\n      dup1\n      0x85e0d5f0\n      eq\n      tag_3\n      jumpi\n      dup1\n      0xb47b3463\n      eq\n      tag_4\n      jumpi\n    tag_2:\n      0x00\n      dup1\n      revert\n        /* \"contracts-basic/week3.sol\":951:1085  function autoPush2(uint n) public {... */\n    tag_3:\n      tag_5\n      0x04\n      dup1\n      calldatasize\n      sub\n      dup2\n      add\n      swap1\n      tag_6\n      swap2\n      swap1\n      tag_7\n      jump\t// in\n    tag_6:\n      tag_8\n      jump\t// in\n    tag_5:\n      stop\n        /* \"contracts-basic/week3.sol\":833:945  function autoPush(uint n) public {... */\n    tag_4:\n      tag_9\n      0x04\n      dup1\n      calldatasize\n      sub\n      dup2\n      add\n      swap1\n      tag_10\n      swap2\n      swap1\n      tag_7\n      jump\t// in\n    tag_10:\n      tag_11\n      jump\t// in\n    tag_9:\n      stop\n        /* \"contracts-basic/week3.sol\":951:1085  function autoPush2(uint n) public {... */\n    tag_8:\n        /* \"contracts-basic/week3.sol\":995:1060  while (n > 0) {... */\n    tag_13:\n        /* \"contracts-basic/week3.sol\":1006:1007  0 */\n      0x00\n        /* \"contracts-basic/week3.sol\":1002:1003  n */\n      dup2\n        /* \"contracts-basic/week3.sol\":1002:1007  n > 0 */\n      gt\n        /* \"contracts-basic/week3.sol\":995:1060  while (n > 0) {... */\n      iszero\n      tag_14\n      jumpi\n        /* \"contracts-basic/week3.sol\":1023:1024  A */\n      0x00\n        /* \"contracts-basic/week3.sol\":1030:1031  n */\n      dup2\n        /* \"contracts-basic/week3.sol\":1023:1032  A.push(n) */\n      swap1\n      dup1\n      0x01\n      dup2\n      sload\n      add\n      dup1\n      dup3\n      sstore\n      dup1\n      swap2\n      pop\n      pop\n      0x01\n      swap1\n      sub\n      swap1\n      0x00\n      mstore\n      keccak256(0x00, 0x20)\n      add\n      0x00\n      swap1\n      swap2\n      swap1\n      swap2\n      swap1\n      swap2\n      pop\n      sstore\n        /* \"contracts-basic/week3.sol\":1046:1049  n-- */\n      dup1\n      dup1\n      tag_16\n      swap1\n      tag_17\n      jump\t// in\n    tag_16:\n      swap2\n      pop\n      pop\n        /* \"contracts-basic/week3.sol\":995:1060  while (n > 0) {... */\n      jump(tag_13)\n    tag_14:\n        /* \"contracts-basic/week3.sol\":1069:1070  A */\n      0x00\n        /* \"contracts-basic/week3.sol\":1076:1077  0 */\n      dup1\n        /* \"contracts-basic/week3.sol\":1069:1078  A.push(0) */\n      dup1\n      0x01\n      dup2\n      sload\n      add\n      dup1\n      dup3\n      sstore\n      dup1\n      swap2\n      pop\n      pop\n      0x01\n      swap1\n      sub\n      swap1\n      0x00\n      mstore\n      keccak256(0x00, 0x20)\n      add\n      0x00\n      swap1\n      swap2\n      swap1\n      swap2\n      swap1\n      swap2\n      pop\n      sstore\n        /* \"contracts-basic/week3.sol\":951:1085  function autoPush2(uint n) public {... */\n      pop\n      jump\t// out\n        /* \"contracts-basic/week3.sol\":833:945  function autoPush(uint n) public {... */\n    tag_11:\n        /* \"contracts-basic/week3.sol\":881:887  uint i */\n      0x00\n        /* \"contracts-basic/week3.sol\":890:891  1 */\n      0x01\n        /* \"contracts-basic/week3.sol\":888:889  n */\n      dup3\n        /* \"contracts-basic/week3.sol\":888:891  n+1 */\n      tag_23\n      swap2\n      swap1\n      tag_24\n      jump\t// in\n    tag_23:\n        /* \"contracts-basic/week3.sol\":881:891  uint i=n+1 */\n      swap1\n      pop\n        /* \"contracts-basic/week3.sol\":876:939  for (uint i=n+1; i>0; i--) {... */\n    tag_20:\n        /* \"contracts-basic/week3.sol\":895:896  0 */\n      0x00\n        /* \"contracts-basic/week3.sol\":893:894  i */\n      dup2\n        /* \"contracts-basic/week3.sol\":893:896  i>0 */\n      gt\n        /* \"contracts-basic/week3.sol\":876:939  for (uint i=n+1; i>0; i--) {... */\n      iszero\n      tag_21\n      jumpi\n        /* \"contracts-basic/week3.sol\":917:918  A */\n      0x00\n        /* \"contracts-basic/week3.sol\":926:927  1 */\n      0x01\n        /* \"contracts-basic/week3.sol\":924:925  i */\n      dup3\n        /* \"contracts-basic/week3.sol\":924:927  i-1 */\n      tag_25\n      swap2\n      swap1\n      tag_26\n      jump\t// in\n    tag_25:\n        /* \"contracts-basic/week3.sol\":917:928  A.push(i-1) */\n      swap1\n      dup1\n      0x01\n      dup2\n      sload\n      add\n      dup1\n      dup3\n      sstore\n      dup1\n      swap2\n      pop\n      pop\n      0x01\n      swap1\n      sub\n      swap1\n      0x00\n      mstore\n      keccak256(0x00, 0x20)\n      add\n      0x00\n      swap1\n      swap2\n      swap1\n      swap2\n      swap1\n      swap2\n      pop\n      sstore\n        /* \"contracts-basic/week3.sol\":898:901  i-- */\n      dup1\n      dup1\n      tag_28\n      swap1\n      tag_17\n      jump\t// in\n    tag_28:\n      swap2\n      pop\n      pop\n        /* \"contracts-basic/week3.sol\":876:939  for (uint i=n+1; i>0; i--) {... */\n      jump(tag_20)\n    tag_21:\n      pop\n        /* \"contracts-basic/week3.sol\":833:945  function autoPush(uint n) public {... */\n      pop\n      jump\t// out\n        /* \"#utility.yul\":88:205   */\n    tag_30:\n        /* \"#utility.yul\":197:198   */\n      0x00\n        /* \"#utility.yul\":194:195   */\n      dup1\n        /* \"#utility.yul\":187:199   */\n      revert\n        /* \"#utility.yul\":334:411   */\n    tag_32:\n        /* \"#utility.yul\":371:378   */\n      0x00\n        /* \"#utility.yul\":400:405   */\n      dup2\n        /* \"#utility.yul\":389:405   */\n      swap1\n      pop\n        /* \"#utility.yul\":334:411   */\n      swap2\n      swap1\n      pop\n      jump\t// out\n        /* \"#utility.yul\":417:539   */\n    tag_33:\n        /* \"#utility.yul\":490:514   */\n      tag_42\n        /* \"#utility.yul\":508:513   */\n      dup2\n        /* \"#utility.yul\":490:514   */\n      tag_32\n      jump\t// in\n    tag_42:\n        /* \"#utility.yul\":483:488   */\n      dup2\n        /* \"#utility.yul\":480:515   */\n      eq\n        /* \"#utility.yul\":470:533   */\n      tag_43\n      jumpi\n        /* \"#utility.yul\":529:530   */\n      0x00\n        /* \"#utility.yul\":526:527   */\n      dup1\n        /* \"#utility.yul\":519:531   */\n      revert\n        /* \"#utility.yul\":470:533   */\n    tag_43:\n        /* \"#utility.yul\":417:539   */\n      pop\n      jump\t// out\n        /* \"#utility.yul\":545:684   */\n    tag_34:\n        /* \"#utility.yul\":591:596   */\n      0x00\n        /* \"#utility.yul\":629:635   */\n      dup2\n        /* \"#utility.yul\":616:636   */\n      calldataload\n        /* \"#utility.yul\":607:636   */\n      swap1\n      pop\n        /* \"#utility.yul\":645:678   */\n      tag_45\n        /* \"#utility.yul\":672:677   */\n      dup2\n        /* \"#utility.yul\":645:678   */\n      tag_33\n      jump\t// in\n    tag_45:\n        /* \"#utility.yul\":545:684   */\n      swap3\n      swap2\n      pop\n      pop\n      jump\t// out\n        /* \"#utility.yul\":690:1019   */\n    tag_7:\n        /* \"#utility.yul\":749:755   */\n      0x00\n        /* \"#utility.yul\":798:800   */\n      0x20\n        /* \"#utility.yul\":786:795   */\n      dup3\n        /* \"#utility.yul\":777:784   */\n      dup5\n        /* \"#utility.yul\":773:796   */\n      sub\n        /* \"#utility.yul\":769:801   */\n      slt\n        /* \"#utility.yul\":766:885   */\n      iszero\n      tag_47\n      jumpi\n        /* \"#utility.yul\":804:883   */\n      tag_48\n      tag_30\n      jump\t// in\n    tag_48:\n        /* \"#utility.yul\":766:885   */\n    tag_47:\n        /* \"#utility.yul\":924:925   */\n      0x00\n        /* \"#utility.yul\":949:1002   */\n      tag_49\n        /* \"#utility.yul\":994:1001   */\n      dup5\n        /* \"#utility.yul\":985:991   */\n      dup3\n        /* \"#utility.yul\":974:983   */\n      dup6\n        /* \"#utility.yul\":970:992   */\n      add\n        /* \"#utility.yul\":949:1002   */\n      tag_34\n      jump\t// in\n    tag_49:\n        /* \"#utility.yul\":939:1002   */\n      swap2\n      pop\n        /* \"#utility.yul\":895:1012   */\n      pop\n        /* \"#utility.yul\":690:1019   */\n      swap3\n      swap2\n      pop\n      pop\n      jump\t// out\n        /* \"#utility.yul\":1025:1205   */\n    tag_35:\n        /* \"#utility.yul\":1073:1150   */\n      0x4e487b7100000000000000000000000000000000000000000000000000000000\n        /* \"#utility.yul\":1070:1071   */\n      0x00\n        /* \"#utility.yul\":1063:1151   */\n      mstore\n        /* \"#utility.yul\":1170:1174   */\n      0x11\n        /* \"#utility.yul\":1167:1168   */\n      0x04\n        /* \"#utility.yul\":1160:1175   */\n      mstore\n        /* \"#utility.yul\":1194:1198   */\n      0x24\n        /* \"#utility.yul\":1191:1192   */\n      0x00\n        /* \"#utility.yul\":1184:1199   */\n      revert\n        /* \"#utility.yul\":1211:1382   */\n    tag_17:\n        /* \"#utility.yul\":1250:1253   */\n      0x00\n        /* \"#utility.yul\":1273:1297   */\n      tag_52\n        /* \"#utility.yul\":1291:1296   */\n      dup3\n        /* \"#utility.yul\":1273:1297   */\n      tag_32\n      jump\t// in\n    tag_52:\n        /* \"#utility.yul\":1264:1297   */\n      swap2\n      pop\n        /* \"#utility.yul\":1319:1323   */\n      0x00\n        /* \"#utility.yul\":1312:1317   */\n      dup3\n        /* \"#utility.yul\":1309:1324   */\n      sub\n        /* \"#utility.yul\":1306:1347   */\n      tag_53\n      jumpi\n        /* \"#utility.yul\":1327:1345   */\n      tag_54\n      tag_35\n      jump\t// in\n    tag_54:\n        /* \"#utility.yul\":1306:1347   */\n    tag_53:\n        /* \"#utility.yul\":1374:1375   */\n      0x01\n        /* \"#utility.yul\":1367:1372   */\n      dup3\n        /* \"#utility.yul\":1363:1376   */\n      sub\n        /* \"#utility.yul\":1356:1376   */\n      swap1\n      pop\n        /* \"#utility.yul\":1211:1382   */\n      swap2\n      swap1\n      pop\n      jump\t// out\n        /* \"#utility.yul\":1388:1579   */\n    tag_24:\n        /* \"#utility.yul\":1428:1431   */\n      0x00\n        /* \"#utility.yul\":1447:1467   */\n      tag_56\n        /* \"#utility.yul\":1465:1466   */\n      dup3\n        /* \"#utility.yul\":1447:1467   */\n      tag_32\n      jump\t// in\n    tag_56:\n        /* \"#utility.yul\":1442:1467   */\n      swap2\n      pop\n        /* \"#utility.yul\":1481:1501   */\n      tag_57\n        /* \"#utility.yul\":1499:1500   */\n      dup4\n        /* \"#utility.yul\":1481:1501   */\n      tag_32\n      jump\t// in\n    tag_57:\n        /* \"#utility.yul\":1476:1501   */\n      swap3\n      pop\n        /* \"#utility.yul\":1524:1525   */\n      dup3\n        /* \"#utility.yul\":1521:1522   */\n      dup3\n        /* \"#utility.yul\":1517:1526   */\n      add\n        /* \"#utility.yul\":1510:1526   */\n      swap1\n      pop\n        /* \"#utility.yul\":1545:1548   */\n      dup1\n        /* \"#utility.yul\":1542:1543   */\n      dup3\n        /* \"#utility.yul\":1539:1549   */\n      gt\n        /* \"#utility.yul\":1536:1572   */\n      iszero\n      tag_58\n      jumpi\n        /* \"#utility.yul\":1552:1570   */\n      tag_59\n      tag_35\n      jump\t// in\n    tag_59:\n        /* \"#utility.yul\":1536:1572   */\n    tag_58:\n        /* \"#utility.yul\":1388:1579   */\n      swap3\n      swap2\n      pop\n      pop\n      jump\t// out\n        /* \"#utility.yul\":1585:1779   */\n    tag_26:\n        /* \"#utility.yul\":1625:1629   */\n      0x00\n        /* \"#utility.yul\":1645:1665   */\n      tag_61\n        /* \"#utility.yul\":1663:1664   */\n      dup3\n        /* \"#utility.yul\":1645:1665   */\n      tag_32\n      jump\t// in\n    tag_61:\n        /* \"#utility.yul\":1640:1665   */\n      swap2\n      pop\n        /* \"#utility.yul\":1679:1699   */\n      tag_62\n        /* \"#utility.yul\":1697:1698   */\n      dup4\n        /* \"#utility.yul\":1679:1699   */\n      tag_32\n      jump\t// in\n    tag_62:\n        /* \"#utility.yul\":1674:1699   */\n      swap3\n      pop\n        /* \"#utility.yul\":1723:1724   */\n      dup3\n        /* \"#utility.yul\":1720:1721   */\n      dup3\n        /* \"#utility.yul\":1716:1725   */\n      sub\n        /* \"#utility.yul\":1708:1725   */\n      swap1\n      pop\n        /* \"#utility.yul\":1747:1748   */\n      dup2\n        /* \"#utility.yul\":1741:1745   */\n      dup2\n        /* \"#utility.yul\":1738:1749   */\n      gt\n        /* \"#utility.yul\":1735:1772   */\n      iszero\n      tag_63\n      jumpi\n        /* \"#utility.yul\":1752:1770   */\n      tag_64\n      tag_35\n      jump\t// in\n    tag_64:\n        /* \"#utility.yul\":1735:1772   */\n    tag_63:\n        /* \"#utility.yul\":1585:1779   */\n      swap3\n      swap2\n      pop\n      pop\n      jump\t// out\n\n    auxdata: 0xa2646970667358221220a1da3db4f74315324237760c0522e25056e0841359ee1e830825f46b6bc99a0764736f6c63430008120033\n}\n",
				"bytecode": {
					"linkReferences": {},
					"object": "608060405234801561001057600080fd5b506102a9806100206000396000f3fe608060405234801561001057600080fd5b50600436106100365760003560e01c806385e0d5f01461003b578063b47b346314610057575b600080fd5b61005560048036038101906100509190610186565b610073565b005b610071600480360381019061006c9190610186565b6100e4565b005b5b60008111156100b957600081908060018154018082558091505060019003906000526020600020016000909190919091505580806100b1906101e2565b915050610074565b6000808060018154018082558091505060019003906000526020600020016000909190919091505550565b60006001826100f3919061020b565b90505b600081111561014757600060018261010e919061023f565b9080600181540180825580915050600190039060005260206000200160009091909190915055808061013f906101e2565b9150506100f6565b5050565b600080fd5b6000819050919050565b61016381610150565b811461016e57600080fd5b50565b6000813590506101808161015a565b92915050565b60006020828403121561019c5761019b61014b565b5b60006101aa84828501610171565b91505092915050565b7f4e487b7100000000000000000000000000000000000000000000000000000000600052601160045260246000fd5b60006101ed82610150565b915060008203610200576101ff6101b3565b5b600182039050919050565b600061021682610150565b915061022183610150565b9250828201905080821115610239576102386101b3565b5b92915050565b600061024a82610150565b915061025583610150565b925082820390508181111561026d5761026c6101b3565b5b9291505056fea2646970667358221220a1da3db4f74315324237760c0522e25056e0841359ee1e830825f46b6bc99a0764736f6c63430008120033",
					"opcodes": "PUSH1 0x80 PUSH1 0x40 MSTORE CALLVALUE DUP1 ISZERO PUSH2 0x10 JUMPI PUSH1 0x0 DUP1 REVERT JUMPDEST POP PUSH2 0x2A9 DUP1 PUSH2 0x20 PUSH1 0x0 CODECOPY PUSH1 0x0 RETURN INVALID PUSH1 0x80 PUSH1 0x40 MSTORE CALLVALUE DUP1 ISZERO PUSH2 0x10 JUMPI PUSH1 0x0 DUP1 REVERT JUMPDEST POP PUSH1 0x4 CALLDATASIZE LT PUSH2 0x36 JUMPI PUSH1 0x0 CALLDATALOAD PUSH1 0xE0 SHR DUP1 PUSH4 0x85E0D5F0 EQ PUSH2 0x3B JUMPI DUP1 PUSH4 0xB47B3463 EQ PUSH2 0x57 JUMPI JUMPDEST PUSH1 0x0 DUP1 REVERT JUMPDEST PUSH2 0x55 PUSH1 0x4 DUP1 CALLDATASIZE SUB DUP2 ADD SWAP1 PUSH2 0x50 SWAP2 SWAP1 PUSH2 0x186 JUMP JUMPDEST PUSH2 0x73 JUMP JUMPDEST STOP JUMPDEST PUSH2 0x71 PUSH1 0x4 DUP1 CALLDATASIZE SUB DUP2 ADD SWAP1 PUSH2 0x6C SWAP2 SWAP1 PUSH2 0x186 JUMP JUMPDEST PUSH2 0xE4 JUMP JUMPDEST STOP JUMPDEST JUMPDEST PUSH1 0x0 DUP2 GT ISZERO PUSH2 0xB9 JUMPI PUSH1 0x0 DUP2 SWAP1 DUP1 PUSH1 0x1 DUP2 SLOAD ADD DUP1 DUP3 SSTORE DUP1 SWAP2 POP POP PUSH1 0x1 SWAP1 SUB SWAP1 PUSH1 0x0 MSTORE PUSH1 0x20 PUSH1 0x0 KECCAK256 ADD PUSH1 0x0 SWAP1 SWAP2 SWAP1 SWAP2 SWAP1 SWAP2 POP SSTORE DUP1 DUP1 PUSH2 0xB1 SWAP1 PUSH2 0x1E2 JUMP JUMPDEST SWAP2 POP POP PUSH2 0x74 JUMP JUMPDEST PUSH1 0x0 DUP1 DUP1 PUSH1 0x1 DUP2 SLOAD ADD DUP1 DUP3 SSTORE DUP1 SWAP2 POP POP PUSH1 0x1 SWAP1 SUB SWAP1 PUSH1 0x0 MSTORE PUSH1 0x20 PUSH1 0x0 KECCAK256 ADD PUSH1 0x0 SWAP1 SWAP2 SWAP1 SWAP2 SWAP1 SWAP2 POP SSTORE POP JUMP JUMPDEST PUSH1 0x0 PUSH1 0x1 DUP3 PUSH2 0xF3 SWAP2 SWAP1 PUSH2 0x20B JUMP JUMPDEST SWAP1 POP JUMPDEST PUSH1 0x0 DUP2 GT ISZERO PUSH2 0x147 JUMPI PUSH1 0x0 PUSH1 0x1 DUP3 PUSH2 0x10E SWAP2 SWAP1 PUSH2 0x23F JUMP JUMPDEST SWAP1 DUP1 PUSH1 0x1 DUP2 SLOAD ADD DUP1 DUP3 SSTORE DUP1 SWAP2 POP POP PUSH1 0x1 SWAP1 SUB SWAP1 PUSH1 0x0 MSTORE PUSH1 0x20 PUSH1 0x0 KECCAK256 ADD PUSH1 0x0 SWAP1 SWAP2 SWAP1 SWAP2 SWAP1 SWAP2 POP SSTORE DUP1 DUP1 PUSH2 0x13F SWAP1 PUSH2 0x1E2 JUMP JUMPDEST SWAP2 POP POP PUSH2 0xF6 JUMP JUMPDEST POP POP JUMP JUMPDEST PUSH1 0x0 DUP1 REVERT JUMPDEST PUSH1 0x0 DUP2 SWAP1 POP SWAP2 SWAP1 POP JUMP JUMPDEST PUSH2 0x163 DUP2 PUSH2 0x150 JUMP JUMPDEST DUP2 EQ PUSH2 0x16E JUMPI PUSH1 0x0 DUP1 REVERT JUMPDEST POP JUMP JUMPDEST PUSH1 0x0 DUP2 CALLDATALOAD SWAP1 POP PUSH2 0x180 DUP2 PUSH2 0x15A JUMP JUMPDEST SWAP3 SWAP2 POP POP JUMP JUMPDEST PUSH1 0x0 PUSH1 0x20 DUP3 DUP5 SUB SLT ISZERO PUSH2 0x19C JUMPI PUSH2 0x19B PUSH2 0x14B JUMP JUMPDEST JUMPDEST PUSH1 0x0 PUSH2 0x1AA DUP5 DUP3 DUP6 ADD PUSH2 0x171 JUMP JUMPDEST SWAP2 POP POP SWAP3 SWAP2 POP POP JUMP JUMPDEST PUSH32 0x4E487B7100000000000000000000000000000000000000000000000000000000 PUSH1 0x0 MSTORE PUSH1 0x11 PUSH1 0x4 MSTORE PUSH1 0x24 PUSH1 0x0 REVERT JUMPDEST PUSH1 0x0 PUSH2 0x1ED DUP3 PUSH2 0x150 JUMP JUMPDEST SWAP2 POP PUSH1 0x0 DUP3 SUB PUSH2 0x200 JUMPI PUSH2 0x1FF PUSH2 0x1B3 JUMP JUMPDEST JUMPDEST PUSH1 0x1 DUP3 SUB SWAP1 POP SWAP2 SWAP1 POP JUMP JUMPDEST PUSH1 0x0 PUSH2 0x216 DUP3 PUSH2 0x150 JUMP JUMPDEST SWAP2 POP PUSH2 0x221 DUP4 PUSH2 0x150 JUMP JUMPDEST SWAP3 POP DUP3 DUP3 ADD SWAP1 POP DUP1 DUP3 GT ISZERO PUSH2 0x239 JUMPI PUSH2 0x238 PUSH2 0x1B3 JUMP JUMPDEST JUMPDEST SWAP3 SWAP2 POP POP JUMP JUMPDEST PUSH1 0x0 PUSH2 0x24A DUP3 PUSH2 0x150 JUMP JUMPDEST SWAP2 POP PUSH2 0x255 DUP4 PUSH2 0x150 JUMP JUMPDEST SWAP3 POP DUP3 DUP3 SUB SWAP1 POP DUP2 DUP2 GT ISZERO PUSH2 0x26D JUMPI PUSH2 0x26C PUSH2 0x1B3 JUMP JUMPDEST JUMPDEST SWAP3 SWAP2 POP POP JUMP INVALID LOG2 PUSH5 0x6970667358 0x22 SLT KECCAK256 LOG1 0xDA RETURNDATASIZE 0xB4 0xF7 NUMBER ISZERO ORIGIN TIMESTAMP CALLDATACOPY PUSH23 0xC0522E25056E0841359EE1E830825F46B6BC99A076473 PUSH16 0x6C634300081200330000000000000000 "
				},
				"gasEstimates": {
					"creation": {
						"codeDepositCost": "136200",
						"executionCost": "183",
						"totalCost": "136383"
					},
					"external": {
						"autoPush(uint256)": "infinite",
						"autoPush2(uint256)": "infinite"
					}
				},
				"methodIdentifiers": {
					"autoPush(uint256)": "b47b3463",
					"autoPush2(uint256)": "85e0d5f0"
				}
			},
			"storageLayout": {
				"storage": [
					{
						"astId": 106,
						"contract": "contracts-basic/week3.sol:_25",
						"label": "A",
						"offset": 0,
						"slot": "0",
						"type": "t_array(t_uint256)dyn_storage"
					}
				],
				"types": {
					"t_array(t_uint256)dyn_storage": {
						"base": "t_uint256",
						"encoding": "dynamic_array",
						"label": "uint256[]",
						"numberOfBytes": "32"
					},
					"t_uint256": {
						"encoding": "inplace",
						"label": "uint256",
						"numberOfBytes": "32"
					}
				}
			},
			"userdoc": {
				"kind": "user",
				"methods": {},
				"version": 1
			}
		}
	}
}