{
	"contracts-test/230511-test1-answer.sol": {
		"QUIZ1": {
			"abi": [
				{
					"inputs": [],
					"name": "FClass",
					"outputs": [
						{
							"components": [
								{
									"internalType": "string",
									"name": "name",
									"type": "string"
								},
								{
									"internalType": "uint256",
									"name": "number",
									"type": "uint256"
								},
								{
									"internalType": "uint256",
									"name": "score",
									"type": "uint256"
								},
								{
									"internalType": "string",
									"name": "credit",
									"type": "string"
								},
								{
									"internalType": "string[]",
									"name": "classes",
									"type": "string[]"
								}
							],
							"internalType": "struct QUIZ1.Student[]",
							"name": "",
							"type": "tuple[]"
						}
					],
					"stateMutability": "view",
					"type": "function"
				},
				{
					"inputs": [],
					"name": "FClass2",
					"outputs": [
						{
							"internalType": "uint256",
							"name": "",
							"type": "uint256"
						},
						{
							"internalType": "uint256",
							"name": "",
							"type": "uint256"
						},
						{
							"components": [
								{
									"internalType": "string",
									"name": "name",
									"type": "string"
								},
								{
									"internalType": "uint256",
									"name": "number",
									"type": "uint256"
								},
								{
									"internalType": "uint256",
									"name": "score",
									"type": "uint256"
								},
								{
									"internalType": "string",
									"name": "credit",
									"type": "string"
								},
								{
									"internalType": "string[]",
									"name": "classes",
									"type": "string[]"
								}
							],
							"internalType": "struct QUIZ1.Student[]",
							"name": "",
							"type": "tuple[]"
						}
					],
					"stateMutability": "view",
					"type": "function"
				},
				{
					"inputs": [],
					"name": "SClass",
					"outputs": [
						{
							"components": [
								{
									"internalType": "string",
									"name": "name",
									"type": "string"
								},
								{
									"internalType": "uint256",
									"name": "number",
									"type": "uint256"
								},
								{
									"internalType": "uint256",
									"name": "score",
									"type": "uint256"
								},
								{
									"internalType": "string",
									"name": "credit",
									"type": "string"
								},
								{
									"internalType": "string[]",
									"name": "classes",
									"type": "string[]"
								}
							],
							"internalType": "struct QUIZ1.Student[]",
							"name": "",
							"type": "tuple[]"
						}
					],
					"stateMutability": "view",
					"type": "function"
				},
				{
					"inputs": [],
					"name": "getAllStudents",
					"outputs": [
						{
							"components": [
								{
									"internalType": "string",
									"name": "name",
									"type": "string"
								},
								{
									"internalType": "uint256",
									"name": "number",
									"type": "uint256"
								},
								{
									"internalType": "uint256",
									"name": "score",
									"type": "uint256"
								},
								{
									"internalType": "string",
									"name": "credit",
									"type": "string"
								},
								{
									"internalType": "string[]",
									"name": "classes",
									"type": "string[]"
								}
							],
							"internalType": "struct QUIZ1.Student[]",
							"name": "",
							"type": "tuple[]"
						}
					],
					"stateMutability": "view",
					"type": "function"
				},
				{
					"inputs": [],
					"name": "getAverage",
					"outputs": [
						{
							"internalType": "uint256",
							"name": "",
							"type": "uint256"
						}
					],
					"stateMutability": "view",
					"type": "function"
				},
				{
					"inputs": [
						{
							"internalType": "uint256",
							"name": "_number",
							"type": "uint256"
						}
					],
					"name": "getStudent",
					"outputs": [
						{
							"components": [
								{
									"internalType": "string",
									"name": "name",
									"type": "string"
								},
								{
									"internalType": "uint256",
									"name": "number",
									"type": "uint256"
								},
								{
									"internalType": "uint256",
									"name": "score",
									"type": "uint256"
								},
								{
									"internalType": "string",
									"name": "credit",
									"type": "string"
								},
								{
									"internalType": "string[]",
									"name": "classes",
									"type": "string[]"
								}
							],
							"internalType": "struct QUIZ1.Student",
							"name": "",
							"type": "tuple"
						}
					],
					"stateMutability": "view",
					"type": "function"
				},
				{
					"inputs": [
						{
							"internalType": "string",
							"name": "_name",
							"type": "string"
						}
					],
					"name": "getStudent2",
					"outputs": [
						{
							"components": [
								{
									"internalType": "string",
									"name": "name",
									"type": "string"
								},
								{
									"internalType": "uint256",
									"name": "number",
									"type": "uint256"
								},
								{
									"internalType": "uint256",
									"name": "score",
									"type": "uint256"
								},
								{
									"internalType": "string",
									"name": "credit",
									"type": "string"
								},
								{
									"internalType": "string[]",
									"name": "classes",
									"type": "string[]"
								}
							],
							"internalType": "struct QUIZ1.Student",
							"name": "",
							"type": "tuple"
						}
					],
					"stateMutability": "view",
					"type": "function"
				},
				{
					"inputs": [
						{
							"internalType": "string",
							"name": "_name",
							"type": "string"
						}
					],
					"name": "getStudentScore",
					"outputs": [
						{
							"internalType": "uint256",
							"name": "",
							"type": "uint256"
						}
					],
					"stateMutability": "view",
					"type": "function"
				},
				{
					"inputs": [],
					"name": "getStudentsNumber",
					"outputs": [
						{
							"internalType": "uint256",
							"name": "",
							"type": "uint256"
						}
					],
					"stateMutability": "view",
					"type": "function"
				},
				{
					"inputs": [
						{
							"internalType": "string",
							"name": "_name",
							"type": "string"
						},
						{
							"internalType": "uint256",
							"name": "_score",
							"type": "uint256"
						},
						{
							"internalType": "string[]",
							"name": "_classes",
							"type": "string[]"
						}
					],
					"name": "pushStudent",
					"outputs": [],
					"stateMutability": "nonpayable",
					"type": "function"
				},
				{
					"inputs": [],
					"name": "selfEva",
					"outputs": [
						{
							"internalType": "bool",
							"name": "",
							"type": "bool"
						}
					],
					"stateMutability": "view",
					"type": "function"
				},
				{
					"inputs": [
						{
							"internalType": "uint256",
							"name": "_score",
							"type": "uint256"
						}
					],
					"name": "setCredit",
					"outputs": [
						{
							"internalType": "string",
							"name": "",
							"type": "string"
						}
					],
					"stateMutability": "pure",
					"type": "function"
				}
			],
			"devdoc": {
				"kind": "dev",
				"methods": {},
				"version": 1
			},
			"evm": {
				"assembly": "    /* \"contracts-test/230511-test1-answer.sol\":63:5158  contract QUIZ1 {... */\n  mstore(0x40, 0x80)\n  callvalue\n  dup1\n  iszero\n  tag_1\n  jumpi\n  0x00\n  dup1\n  revert\ntag_1:\n  pop\n  dataSize(sub_0)\n  dup1\n  dataOffset(sub_0)\n  0x00\n  codecopy\n  0x00\n  return\nstop\n\nsub_0: assembly {\n        /* \"contracts-test/230511-test1-answer.sol\":63:5158  contract QUIZ1 {... */\n      mstore(0x40, 0x80)\n      callvalue\n      dup1\n      iszero\n      tag_1\n      jumpi\n      0x00\n      dup1\n      revert\n    tag_1:\n      pop\n      jumpi(tag_2, lt(calldatasize, 0x04))\n      shr(0xe0, calldataload(0x00))\n      dup1\n      0x95863d62\n      gt\n      tag_15\n      jumpi\n      dup1\n      0x95863d62\n      eq\n      tag_9\n      jumpi\n      dup1\n      0x9a2a5815\n      eq\n      tag_10\n      jumpi\n      dup1\n      0xd437d7ca\n      eq\n      tag_11\n      jumpi\n      dup1\n      0xe5521501\n      eq\n      tag_12\n      jumpi\n      dup1\n      0xe9e30927\n      eq\n      tag_13\n      jumpi\n      dup1\n      0xeac1d5b7\n      eq\n      tag_14\n      jumpi\n      jump(tag_2)\n    tag_15:\n      dup1\n      0x1cfd4566\n      eq\n      tag_3\n      jumpi\n      dup1\n      0x21055acb\n      eq\n      tag_4\n      jumpi\n      dup1\n      0x23abd657\n      eq\n      tag_5\n      jumpi\n      dup1\n      0x642f9163\n      eq\n      tag_6\n      jumpi\n      dup1\n      0x74aa6858\n      eq\n      tag_7\n      jumpi\n      dup1\n      0x75d073eb\n      eq\n      tag_8\n      jumpi\n    tag_2:\n      0x00\n      dup1\n      revert\n        /* \"contracts-test/230511-test1-answer.sol\":4585:5156  function SClass() public view returns(Student[] memory){... */\n    tag_3:\n      tag_16\n      tag_17\n      jump\t// in\n    tag_16:\n      mload(0x40)\n      tag_18\n      swap2\n      swap1\n      tag_19\n      jump\t// in\n    tag_18:\n      mload(0x40)\n      dup1\n      swap2\n      sub\n      swap1\n      return\n        /* \"contracts-test/230511-test1-answer.sol\":2583:2931  function getAverage() public view returns(uint) {... */\n    tag_4:\n      tag_20\n      tag_21\n      jump\t// in\n    tag_20:\n      mload(0x40)\n      tag_22\n      swap2\n      swap1\n      tag_23\n      jump\t// in\n    tag_22:\n      mload(0x40)\n      dup1\n      swap2\n      sub\n      swap1\n      return\n        /* \"contracts-test/230511-test1-answer.sol\":3931:4579  function FClass2() public view returns(/*Student[] memory*/ uint, uint, Student[] memory) {... */\n    tag_5:\n      tag_24\n      tag_25\n      jump\t// in\n    tag_24:\n      mload(0x40)\n      tag_26\n      swap4\n      swap3\n      swap2\n      swap1\n      tag_27\n      jump\t// in\n    tag_26:\n      mload(0x40)\n      dup1\n      swap2\n      sub\n      swap1\n      return\n        /* \"contracts-test/230511-test1-answer.sol\":1842:1955  function getStudent(uint _number) public view returns(Student memory) {... */\n    tag_6:\n      tag_28\n      0x04\n      dup1\n      calldatasize\n      sub\n      dup2\n      add\n      swap1\n      tag_29\n      swap2\n      swap1\n      tag_30\n      jump\t// in\n    tag_29:\n      tag_31\n      jump\t// in\n    tag_28:\n      mload(0x40)\n      tag_32\n      swap2\n      swap1\n      tag_33\n      jump\t// in\n    tag_32:\n      mload(0x40)\n      dup1\n      swap2\n      sub\n      swap1\n      return\n        /* \"contracts-test/230511-test1-answer.sol\":1031:1333  function pushStudent(string memory _name, uint _score, string[] memory _classes) public {... */\n    tag_7:\n      tag_34\n      0x04\n      dup1\n      calldatasize\n      sub\n      dup2\n      add\n      swap1\n      tag_35\n      swap2\n      swap1\n      tag_36\n      jump\t// in\n    tag_35:\n      tag_37\n      jump\t// in\n    tag_34:\n      stop\n        /* \"contracts-test/230511-test1-answer.sol\":3347:3925  function FClass() public view returns(Student[] memory) {... */\n    tag_8:\n      tag_38\n      tag_39\n      jump\t// in\n    tag_38:\n      mload(0x40)\n      tag_40\n      swap2\n      swap1\n      tag_19\n      jump\t// in\n    tag_40:\n      mload(0x40)\n      dup1\n      swap2\n      sub\n      swap1\n      return\n        /* \"contracts-test/230511-test1-answer.sol\":2116:2237  function getStudent2(string memory _name) public view returns(Student memory) {... */\n    tag_9:\n      tag_41\n      0x04\n      dup1\n      calldatasize\n      sub\n      dup2\n      add\n      swap1\n      tag_42\n      swap2\n      swap1\n      tag_43\n      jump\t// in\n    tag_42:\n      tag_44\n      jump\t// in\n    tag_41:\n      mload(0x40)\n      tag_45\n      swap2\n      swap1\n      tag_33\n      jump\t// in\n    tag_45:\n      mload(0x40)\n      dup1\n      swap2\n      sub\n      swap1\n      return\n        /* \"contracts-test/230511-test1-answer.sol\":3074:3236  function selfEva() public view returns(bool) {... */\n    tag_10:\n      tag_46\n      tag_47\n      jump\t// in\n    tag_46:\n      mload(0x40)\n      tag_48\n      swap2\n      swap1\n      tag_49\n      jump\t// in\n    tag_48:\n      mload(0x40)\n      dup1\n      swap2\n      sub\n      swap1\n      return\n        /* \"contracts-test/230511-test1-answer.sol\":1431:1525  function getStudentsNumber() public view returns(uint) {... */\n    tag_11:\n      tag_50\n      tag_51\n      jump\t// in\n    tag_50:\n      mload(0x40)\n      tag_52\n      swap2\n      swap1\n      tag_23\n      jump\t// in\n    tag_52:\n      mload(0x40)\n      dup1\n      swap2\n      sub\n      swap1\n      return\n        /* \"contracts-test/230511-test1-answer.sol\":2353:2474  function getStudentScore(string memory _name) public view returns(uint) {... */\n    tag_12:\n      tag_53\n      0x04\n      dup1\n      calldatasize\n      sub\n      dup2\n      add\n      swap1\n      tag_54\n      swap2\n      swap1\n      tag_43\n      jump\t// in\n    tag_54:\n      tag_55\n      jump\t// in\n    tag_53:\n      mload(0x40)\n      tag_56\n      swap2\n      swap1\n      tag_23\n      jump\t// in\n    tag_56:\n      mload(0x40)\n      dup1\n      swap2\n      sub\n      swap1\n      return\n        /* \"contracts-test/230511-test1-answer.sol\":1630:1726  function getAllStudents() public view returns(Student[] memory) {... */\n    tag_13:\n      tag_57\n      tag_58\n      jump\t// in\n    tag_57:\n      mload(0x40)\n      tag_59\n      swap2\n      swap1\n      tag_19\n      jump\t// in\n    tag_59:\n      mload(0x40)\n      dup1\n      swap2\n      sub\n      swap1\n      return\n        /* \"contracts-test/230511-test1-answer.sol\":507:851  function setCredit(uint _score) public pure returns(string memory) {... */\n    tag_14:\n      tag_60\n      0x04\n      dup1\n      calldatasize\n      sub\n      dup2\n      add\n      swap1\n      tag_61\n      swap2\n      swap1\n      tag_30\n      jump\t// in\n    tag_61:\n      tag_62\n      jump\t// in\n    tag_60:\n      mload(0x40)\n      tag_63\n      swap2\n      swap1\n      tag_64\n      jump\t// in\n    tag_63:\n      mload(0x40)\n      dup1\n      swap2\n      sub\n      swap1\n      return\n        /* \"contracts-test/230511-test1-answer.sol\":4585:5156  function SClass() public view returns(Student[] memory){... */\n    tag_17:\n        /* \"contracts-test/230511-test1-answer.sol\":4623:4639  Student[] memory */\n      0x60\n        /* \"contracts-test/230511-test1-answer.sol\":4650:4677  Student[] memory S_Students */\n      0x00\n        /* \"contracts-test/230511-test1-answer.sol\":4680:4688  students */\n      dup1\n        /* \"contracts-test/230511-test1-answer.sol\":4650:4688  Student[] memory S_Students = students */\n      dup1\n      sload\n      dup1\n      0x20\n      mul\n      0x20\n      add\n      mload(0x40)\n      swap1\n      dup2\n      add\n      0x40\n      mstore\n      dup1\n      swap3\n      swap2\n      swap1\n      dup2\n      dup2\n      mstore\n      0x20\n      add\n      0x00\n      swap1\n    tag_66:\n      dup3\n      dup3\n      lt\n      iszero\n      tag_67\n      jumpi\n      dup4\n      dup3\n      swap1\n      0x00\n      mstore\n      keccak256(0x00, 0x20)\n      swap1\n      0x05\n      mul\n      add\n      mload(0x40)\n      dup1\n      0xa0\n      add\n      0x40\n      mstore\n      swap1\n      dup2\n      0x00\n      dup3\n      add\n      dup1\n      sload\n      tag_69\n      swap1\n      tag_70\n      jump\t// in\n    tag_69:\n      dup1\n      0x1f\n      add\n      0x20\n      dup1\n      swap2\n      div\n      mul\n      0x20\n      add\n      mload(0x40)\n      swap1\n      dup2\n      add\n      0x40\n      mstore\n      dup1\n      swap3\n      swap2\n      swap1\n      dup2\n      dup2\n      mstore\n      0x20\n      add\n      dup3\n      dup1\n      sload\n      tag_71\n      swap1\n      tag_70\n      jump\t// in\n    tag_71:\n      dup1\n      iszero\n      tag_72\n      jumpi\n      dup1\n      0x1f\n      lt\n      tag_73\n      jumpi\n      0x0100\n      dup1\n      dup4\n      sload\n      div\n      mul\n      dup4\n      mstore\n      swap2\n      0x20\n      add\n      swap2\n      jump(tag_72)\n    tag_73:\n      dup3\n      add\n      swap2\n      swap1\n      0x00\n      mstore\n      keccak256(0x00, 0x20)\n      swap1\n    tag_74:\n      dup2\n      sload\n      dup2\n      mstore\n      swap1\n      0x01\n      add\n      swap1\n      0x20\n      add\n      dup1\n      dup4\n      gt\n      tag_74\n      jumpi\n      dup3\n      swap1\n      sub\n      0x1f\n      and\n      dup3\n      add\n      swap2\n    tag_72:\n      pop\n      pop\n      pop\n      pop\n      pop\n      dup2\n      mstore\n      0x20\n      add\n      0x01\n      dup3\n      add\n      sload\n      dup2\n      mstore\n      0x20\n      add\n      0x02\n      dup3\n      add\n      sload\n      dup2\n      mstore\n      0x20\n      add\n      0x03\n      dup3\n      add\n      dup1\n      sload\n      tag_75\n      swap1\n      tag_70\n      jump\t// in\n    tag_75:\n      dup1\n      0x1f\n      add\n      0x20\n      dup1\n      swap2\n      div\n      mul\n      0x20\n      add\n      mload(0x40)\n      swap1\n      dup2\n      add\n      0x40\n      mstore\n      dup1\n      swap3\n      swap2\n      swap1\n      dup2\n      dup2\n      mstore\n      0x20\n      add\n      dup3\n      dup1\n      sload\n      tag_76\n      swap1\n      tag_70\n      jump\t// in\n    tag_76:\n      dup1\n      iszero\n      tag_77\n      jumpi\n      dup1\n      0x1f\n      lt\n      tag_78\n      jumpi\n      0x0100\n      dup1\n      dup4\n      sload\n      div\n      mul\n      dup4\n      mstore\n      swap2\n      0x20\n      add\n      swap2\n      jump(tag_77)\n    tag_78:\n      dup3\n      add\n      swap2\n      swap1\n      0x00\n      mstore\n      keccak256(0x00, 0x20)\n      swap1\n    tag_79:\n      dup2\n      sload\n      dup2\n      mstore\n      swap1\n      0x01\n      add\n      swap1\n      0x20\n      add\n      dup1\n      dup4\n      gt\n      tag_79\n      jumpi\n      dup3\n      swap1\n      sub\n      0x1f\n      and\n      dup3\n      add\n      swap2\n    tag_77:\n      pop\n      pop\n      pop\n      pop\n      pop\n      dup2\n      mstore\n      0x20\n      add\n      0x04\n      dup3\n      add\n      dup1\n      sload\n      dup1\n      0x20\n      mul\n      0x20\n      add\n      mload(0x40)\n      swap1\n      dup2\n      add\n      0x40\n      mstore\n      dup1\n      swap3\n      swap2\n      swap1\n      dup2\n      dup2\n      mstore\n      0x20\n      add\n      0x00\n      swap1\n    tag_80:\n      dup3\n      dup3\n      lt\n      iszero\n      tag_81\n      jumpi\n      dup4\n      dup3\n      swap1\n      0x00\n      mstore\n      keccak256(0x00, 0x20)\n      add\n      dup1\n      sload\n      tag_83\n      swap1\n      tag_70\n      jump\t// in\n    tag_83:\n      dup1\n      0x1f\n      add\n      0x20\n      dup1\n      swap2\n      div\n      mul\n      0x20\n      add\n      mload(0x40)\n      swap1\n      dup2\n      add\n      0x40\n      mstore\n      dup1\n      swap3\n      swap2\n      swap1\n      dup2\n      dup2\n      mstore\n      0x20\n      add\n      dup3\n      dup1\n      sload\n      tag_84\n      swap1\n      tag_70\n      jump\t// in\n    tag_84:\n      dup1\n      iszero\n      tag_85\n      jumpi\n      dup1\n      0x1f\n      lt\n      tag_86\n      jumpi\n      0x0100\n      dup1\n      dup4\n      sload\n      div\n      mul\n      dup4\n      mstore\n      swap2\n      0x20\n      add\n      swap2\n      jump(tag_85)\n    tag_86:\n      dup3\n      add\n      swap2\n      swap1\n      0x00\n      mstore\n      keccak256(0x00, 0x20)\n      swap1\n    tag_87:\n      dup2\n      sload\n      dup2\n      mstore\n      swap1\n      0x01\n      add\n      swap1\n      0x20\n      add\n      dup1\n      dup4\n      gt\n      tag_87\n      jumpi\n      dup3\n      swap1\n      sub\n      0x1f\n      and\n      dup3\n      add\n      swap2\n    tag_85:\n      pop\n      pop\n      pop\n      pop\n      pop\n      dup2\n      mstore\n      0x20\n      add\n      swap1\n      0x01\n      add\n      swap1\n      jump(tag_80)\n    tag_81:\n      pop\n      pop\n      pop\n      pop\n      dup2\n      mstore\n      pop\n      pop\n      dup2\n      mstore\n      0x20\n      add\n      swap1\n      0x01\n      add\n      swap1\n      jump(tag_66)\n    tag_67:\n      pop\n      pop\n      pop\n      pop\n      swap1\n      pop\n        /* \"contracts-test/230511-test1-answer.sol\":4698:4722  Student[] memory S_Class */\n      0x00\n        /* \"contracts-test/230511-test1-answer.sol\":4739:4740  4 */\n      0x04\n        /* \"contracts-test/230511-test1-answer.sol\":4725:4741  new Student[](4) */\n      0xffffffffffffffff\n      dup2\n      gt\n      iszero\n      tag_88\n      jumpi\n      tag_89\n      tag_90\n      jump\t// in\n    tag_89:\n    tag_88:\n      mload(0x40)\n      swap1\n      dup1\n      dup3\n      mstore\n      dup1\n      0x20\n      mul\n      0x20\n      add\n      dup3\n      add\n      0x40\n      mstore\n      dup1\n      iszero\n      tag_91\n      jumpi\n      dup2\n      0x20\n      add\n    tag_92:\n      tag_93\n      tag_94\n      jump\t// in\n    tag_93:\n      dup2\n      mstore\n      0x20\n      add\n      swap1\n      0x01\n      swap1\n      sub\n      swap1\n      dup2\n      tag_92\n      jumpi\n      swap1\n      pop\n    tag_91:\n      pop\n        /* \"contracts-test/230511-test1-answer.sol\":4698:4741  Student[] memory S_Class = new Student[](4) */\n      swap1\n      pop\n        /* \"contracts-test/230511-test1-answer.sol\":4756:4762  uint i */\n      0x00\n        /* \"contracts-test/230511-test1-answer.sol\":4752:5040  for(uint i=0;i<S_Students.length-1;i++) {... */\n    tag_95:\n        /* \"contracts-test/230511-test1-answer.sol\":4785:4786  1 */\n      0x01\n        /* \"contracts-test/230511-test1-answer.sol\":4767:4777  S_Students */\n      dup4\n        /* \"contracts-test/230511-test1-answer.sol\":4767:4784  S_Students.length */\n      mload\n        /* \"contracts-test/230511-test1-answer.sol\":4767:4786  S_Students.length-1 */\n      tag_98\n      swap2\n      swap1\n      tag_99\n      jump\t// in\n    tag_98:\n        /* \"contracts-test/230511-test1-answer.sol\":4765:4766  i */\n      dup2\n        /* \"contracts-test/230511-test1-answer.sol\":4765:4786  i<S_Students.length-1 */\n      lt\n        /* \"contracts-test/230511-test1-answer.sol\":4752:5040  for(uint i=0;i<S_Students.length-1;i++) {... */\n      iszero\n      tag_96\n      jumpi\n        /* \"contracts-test/230511-test1-answer.sol\":4810:4816  uint j */\n      0x00\n        /* \"contracts-test/230511-test1-answer.sol\":4819:4820  1 */\n      0x01\n        /* \"contracts-test/230511-test1-answer.sol\":4817:4818  i */\n      dup3\n        /* \"contracts-test/230511-test1-answer.sol\":4817:4820  i+1 */\n      tag_103\n      swap2\n      swap1\n      tag_104\n      jump\t// in\n    tag_103:\n        /* \"contracts-test/230511-test1-answer.sol\":4810:4820  uint j=i+1 */\n      swap1\n      pop\n        /* \"contracts-test/230511-test1-answer.sol\":4806:5030  for(uint j=i+1; j<S_Students.length ;j++) {... */\n    tag_100:\n        /* \"contracts-test/230511-test1-answer.sol\":4824:4834  S_Students */\n      dup4\n        /* \"contracts-test/230511-test1-answer.sol\":4824:4841  S_Students.length */\n      mload\n        /* \"contracts-test/230511-test1-answer.sol\":4822:4823  j */\n      dup2\n        /* \"contracts-test/230511-test1-answer.sol\":4822:4841  j<S_Students.length */\n      lt\n        /* \"contracts-test/230511-test1-answer.sol\":4806:5030  for(uint j=i+1; j<S_Students.length ;j++) {... */\n      iszero\n      tag_101\n      jumpi\n        /* \"contracts-test/230511-test1-answer.sol\":4891:4901  S_Students */\n      dup4\n        /* \"contracts-test/230511-test1-answer.sol\":4902:4903  j */\n      dup2\n        /* \"contracts-test/230511-test1-answer.sol\":4891:4904  S_Students[j] */\n      dup2\n      mload\n      dup2\n      lt\n      tag_105\n      jumpi\n      tag_106\n      tag_107\n      jump\t// in\n    tag_106:\n    tag_105:\n      0x20\n      mul\n      0x20\n      add\n      add\n      mload\n        /* \"contracts-test/230511-test1-answer.sol\":4891:4910  S_Students[j].score */\n      0x40\n      add\n      mload\n        /* \"contracts-test/230511-test1-answer.sol\":4869:4879  S_Students */\n      dup5\n        /* \"contracts-test/230511-test1-answer.sol\":4880:4881  i */\n      dup4\n        /* \"contracts-test/230511-test1-answer.sol\":4869:4882  S_Students[i] */\n      dup2\n      mload\n      dup2\n      lt\n      tag_108\n      jumpi\n      tag_109\n      tag_107\n      jump\t// in\n    tag_109:\n    tag_108:\n      0x20\n      mul\n      0x20\n      add\n      add\n      mload\n        /* \"contracts-test/230511-test1-answer.sol\":4869:4888  S_Students[i].score */\n      0x40\n      add\n      mload\n        /* \"contracts-test/230511-test1-answer.sol\":4869:4910  S_Students[i].score < S_Students[j].score */\n      lt\n        /* \"contracts-test/230511-test1-answer.sol\":4866:5016  if(S_Students[i].score < S_Students[j].score) {... */\n      iszero\n      tag_110\n      jumpi\n        /* \"contracts-test/230511-test1-answer.sol\":4968:4978  S_Students */\n      dup4\n        /* \"contracts-test/230511-test1-answer.sol\":4979:4980  j */\n      dup2\n        /* \"contracts-test/230511-test1-answer.sol\":4968:4981  S_Students[j] */\n      dup2\n      mload\n      dup2\n      lt\n      tag_111\n      jumpi\n      tag_112\n      tag_107\n      jump\t// in\n    tag_112:\n    tag_111:\n      0x20\n      mul\n      0x20\n      add\n      add\n      mload\n        /* \"contracts-test/230511-test1-answer.sol\":4983:4993  S_Students */\n      dup5\n        /* \"contracts-test/230511-test1-answer.sol\":4994:4995  i */\n      dup4\n        /* \"contracts-test/230511-test1-answer.sol\":4983:4996  S_Students[i] */\n      dup2\n      mload\n      dup2\n      lt\n      tag_113\n      jumpi\n      tag_114\n      tag_107\n      jump\t// in\n    tag_114:\n    tag_113:\n      0x20\n      mul\n      0x20\n      add\n      add\n      mload\n        /* \"contracts-test/230511-test1-answer.sol\":4935:4945  S_Students */\n      dup6\n        /* \"contracts-test/230511-test1-answer.sol\":4946:4947  i */\n      dup5\n        /* \"contracts-test/230511-test1-answer.sol\":4935:4948  S_Students[i] */\n      dup2\n      mload\n      dup2\n      lt\n      tag_115\n      jumpi\n      tag_116\n      tag_107\n      jump\t// in\n    tag_116:\n    tag_115:\n      0x20\n      mul\n      0x20\n      add\n      add\n        /* \"contracts-test/230511-test1-answer.sol\":4950:4960  S_Students */\n      dup7\n        /* \"contracts-test/230511-test1-answer.sol\":4961:4962  j */\n      dup5\n        /* \"contracts-test/230511-test1-answer.sol\":4950:4963  S_Students[j] */\n      dup2\n      mload\n      dup2\n      lt\n      tag_117\n      jumpi\n      tag_118\n      tag_107\n      jump\t// in\n    tag_118:\n    tag_117:\n      0x20\n      mul\n      0x20\n      add\n      add\n        /* \"contracts-test/230511-test1-answer.sol\":4934:4997  (S_Students[i], S_Students[j]) = (S_Students[j], S_Students[i]) */\n      dup3\n      swap1\n      mstore\n      dup3\n      swap1\n      mstore\n      pop\n      pop\n        /* \"contracts-test/230511-test1-answer.sol\":4866:5016  if(S_Students[i].score < S_Students[j].score) {... */\n    tag_110:\n        /* \"contracts-test/230511-test1-answer.sol\":4843:4846  j++ */\n      dup1\n      dup1\n      tag_119\n      swap1\n      tag_120\n      jump\t// in\n    tag_119:\n      swap2\n      pop\n      pop\n        /* \"contracts-test/230511-test1-answer.sol\":4806:5030  for(uint j=i+1; j<S_Students.length ;j++) {... */\n      jump(tag_100)\n    tag_101:\n      pop\n        /* \"contracts-test/230511-test1-answer.sol\":4787:4790  i++ */\n      dup1\n      dup1\n      tag_121\n      swap1\n      tag_120\n      jump\t// in\n    tag_121:\n      swap2\n      pop\n      pop\n        /* \"contracts-test/230511-test1-answer.sol\":4752:5040  for(uint i=0;i<S_Students.length-1;i++) {... */\n      jump(tag_95)\n    tag_96:\n      pop\n        /* \"contracts-test/230511-test1-answer.sol\":5054:5060  uint i */\n      0x00\n        /* \"contracts-test/230511-test1-answer.sol\":5050:5125  for(uint i=0; i<4; i++) {... */\n    tag_122:\n        /* \"contracts-test/230511-test1-answer.sol\":5066:5067  4 */\n      0x04\n        /* \"contracts-test/230511-test1-answer.sol\":5064:5065  i */\n      dup2\n        /* \"contracts-test/230511-test1-answer.sol\":5064:5067  i<4 */\n      lt\n        /* \"contracts-test/230511-test1-answer.sol\":5050:5125  for(uint i=0; i<4; i++) {... */\n      iszero\n      tag_123\n      jumpi\n        /* \"contracts-test/230511-test1-answer.sol\":5101:5111  S_Students */\n      dup3\n        /* \"contracts-test/230511-test1-answer.sol\":5112:5113  i */\n      dup2\n        /* \"contracts-test/230511-test1-answer.sol\":5101:5114  S_Students[i] */\n      dup2\n      mload\n      dup2\n      lt\n      tag_125\n      jumpi\n      tag_126\n      tag_107\n      jump\t// in\n    tag_126:\n    tag_125:\n      0x20\n      mul\n      0x20\n      add\n      add\n      mload\n        /* \"contracts-test/230511-test1-answer.sol\":5088:5095  S_Class */\n      dup3\n        /* \"contracts-test/230511-test1-answer.sol\":5096:5097  i */\n      dup3\n        /* \"contracts-test/230511-test1-answer.sol\":5088:5098  S_Class[i] */\n      dup2\n      mload\n      dup2\n      lt\n      tag_127\n      jumpi\n      tag_128\n      tag_107\n      jump\t// in\n    tag_128:\n    tag_127:\n      0x20\n      mul\n      0x20\n      add\n      add\n        /* \"contracts-test/230511-test1-answer.sol\":5088:5114  S_Class[i] = S_Students[i] */\n      dup2\n      swap1\n      mstore\n      pop\n        /* \"contracts-test/230511-test1-answer.sol\":5069:5072  i++ */\n      dup1\n      dup1\n      tag_129\n      swap1\n      tag_120\n      jump\t// in\n    tag_129:\n      swap2\n      pop\n      pop\n        /* \"contracts-test/230511-test1-answer.sol\":5050:5125  for(uint i=0; i<4; i++) {... */\n      jump(tag_122)\n    tag_123:\n      pop\n        /* \"contracts-test/230511-test1-answer.sol\":5142:5149  S_Class */\n      dup1\n        /* \"contracts-test/230511-test1-answer.sol\":5135:5149  return S_Class */\n      swap3\n      pop\n      pop\n      pop\n        /* \"contracts-test/230511-test1-answer.sol\":4585:5156  function SClass() public view returns(Student[] memory){... */\n      swap1\n      jump\t// out\n        /* \"contracts-test/230511-test1-answer.sol\":2583:2931  function getAverage() public view returns(uint) {... */\n    tag_21:\n        /* \"contracts-test/230511-test1-answer.sol\":2625:2629  uint */\n      0x00\n        /* \"contracts-test/230511-test1-answer.sol\":2641:2656  uint totalScore */\n      dup1\n        /* \"contracts-test/230511-test1-answer.sol\":2670:2676  uint i */\n      0x00\n        /* \"contracts-test/230511-test1-answer.sol\":2666:2807  for(uint i=0; i<students.length; i++) {... */\n    tag_131:\n        /* \"contracts-test/230511-test1-answer.sol\":2682:2690  students */\n      0x00\n        /* \"contracts-test/230511-test1-answer.sol\":2682:2697  students.length */\n      dup1\n      sload\n      swap1\n      pop\n        /* \"contracts-test/230511-test1-answer.sol\":2680:2681  i */\n      dup2\n        /* \"contracts-test/230511-test1-answer.sol\":2680:2697  i<students.length */\n      lt\n        /* \"contracts-test/230511-test1-answer.sol\":2666:2807  for(uint i=0; i<students.length; i++) {... */\n      iszero\n      tag_132\n      jumpi\n        /* \"contracts-test/230511-test1-answer.sol\":2744:2752  students */\n      0x00\n        /* \"contracts-test/230511-test1-answer.sol\":2753:2754  i */\n      dup2\n        /* \"contracts-test/230511-test1-answer.sol\":2744:2755  students[i] */\n      dup2\n      sload\n      dup2\n      lt\n      tag_134\n      jumpi\n      tag_135\n      tag_107\n      jump\t// in\n    tag_135:\n    tag_134:\n      swap1\n      0x00\n      mstore\n      keccak256(0x00, 0x20)\n      swap1\n      0x05\n      mul\n      add\n        /* \"contracts-test/230511-test1-answer.sol\":2744:2761  students[i].score */\n      0x02\n      add\n      sload\n        /* \"contracts-test/230511-test1-answer.sol\":2731:2741  totalScore */\n      dup3\n        /* \"contracts-test/230511-test1-answer.sol\":2731:2761  totalScore + students[i].score */\n      tag_137\n      swap2\n      swap1\n      tag_104\n      jump\t// in\n    tag_137:\n        /* \"contracts-test/230511-test1-answer.sol\":2718:2761  totalScore = totalScore + students[i].score */\n      swap2\n      pop\n        /* \"contracts-test/230511-test1-answer.sol\":2699:2702  i++ */\n      dup1\n      dup1\n      tag_138\n      swap1\n      tag_120\n      jump\t// in\n    tag_138:\n      swap2\n      pop\n      pop\n        /* \"contracts-test/230511-test1-answer.sol\":2666:2807  for(uint i=0; i<students.length; i++) {... */\n      jump(tag_131)\n    tag_132:\n      pop\n        /* \"contracts-test/230511-test1-answer.sol\":2837:2845  students */\n      0x00\n        /* \"contracts-test/230511-test1-answer.sol\":2837:2852  students.length */\n      dup1\n      sload\n      swap1\n      pop\n        /* \"contracts-test/230511-test1-answer.sol\":2824:2834  totalScore */\n      dup2\n        /* \"contracts-test/230511-test1-answer.sol\":2824:2852  totalScore / students.length */\n      tag_139\n      swap2\n      swap1\n      tag_140\n      jump\t// in\n    tag_139:\n        /* \"contracts-test/230511-test1-answer.sol\":2817:2852  return totalScore / students.length */\n      swap2\n      pop\n      pop\n        /* \"contracts-test/230511-test1-answer.sol\":2583:2931  function getAverage() public view returns(uint) {... */\n      swap1\n      jump\t// out\n        /* \"contracts-test/230511-test1-answer.sol\":3931:4579  function FClass2() public view returns(/*Student[] memory*/ uint, uint, Student[] memory) {... */\n    tag_25:\n        /* \"contracts-test/230511-test1-answer.sol\":3991:3995  uint */\n      0x00\n        /* \"contracts-test/230511-test1-answer.sol\":3997:4001  uint */\n      dup1\n        /* \"contracts-test/230511-test1-answer.sol\":4003:4019  Student[] memory */\n      0x60\n        /* \"contracts-test/230511-test1-answer.sol\":4031:4058  Student[] memory F_Students */\n      0x00\n        /* \"contracts-test/230511-test1-answer.sol\":4061:4069  students */\n      dup1\n        /* \"contracts-test/230511-test1-answer.sol\":4031:4069  Student[] memory F_Students = students */\n      dup1\n      sload\n      dup1\n      0x20\n      mul\n      0x20\n      add\n      mload(0x40)\n      swap1\n      dup2\n      add\n      0x40\n      mstore\n      dup1\n      swap3\n      swap2\n      swap1\n      dup2\n      dup2\n      mstore\n      0x20\n      add\n      0x00\n      swap1\n    tag_142:\n      dup3\n      dup3\n      lt\n      iszero\n      tag_143\n      jumpi\n      dup4\n      dup3\n      swap1\n      0x00\n      mstore\n      keccak256(0x00, 0x20)\n      swap1\n      0x05\n      mul\n      add\n      mload(0x40)\n      dup1\n      0xa0\n      add\n      0x40\n      mstore\n      swap1\n      dup2\n      0x00\n      dup3\n      add\n      dup1\n      sload\n      tag_145\n      swap1\n      tag_70\n      jump\t// in\n    tag_145:\n      dup1\n      0x1f\n      add\n      0x20\n      dup1\n      swap2\n      div\n      mul\n      0x20\n      add\n      mload(0x40)\n      swap1\n      dup2\n      add\n      0x40\n      mstore\n      dup1\n      swap3\n      swap2\n      swap1\n      dup2\n      dup2\n      mstore\n      0x20\n      add\n      dup3\n      dup1\n      sload\n      tag_146\n      swap1\n      tag_70\n      jump\t// in\n    tag_146:\n      dup1\n      iszero\n      tag_147\n      jumpi\n      dup1\n      0x1f\n      lt\n      tag_148\n      jumpi\n      0x0100\n      dup1\n      dup4\n      sload\n      div\n      mul\n      dup4\n      mstore\n      swap2\n      0x20\n      add\n      swap2\n      jump(tag_147)\n    tag_148:\n      dup3\n      add\n      swap2\n      swap1\n      0x00\n      mstore\n      keccak256(0x00, 0x20)\n      swap1\n    tag_149:\n      dup2\n      sload\n      dup2\n      mstore\n      swap1\n      0x01\n      add\n      swap1\n      0x20\n      add\n      dup1\n      dup4\n      gt\n      tag_149\n      jumpi\n      dup3\n      swap1\n      sub\n      0x1f\n      and\n      dup3\n      add\n      swap2\n    tag_147:\n      pop\n      pop\n      pop\n      pop\n      pop\n      dup2\n      mstore\n      0x20\n      add\n      0x01\n      dup3\n      add\n      sload\n      dup2\n      mstore\n      0x20\n      add\n      0x02\n      dup3\n      add\n      sload\n      dup2\n      mstore\n      0x20\n      add\n      0x03\n      dup3\n      add\n      dup1\n      sload\n      tag_150\n      swap1\n      tag_70\n      jump\t// in\n    tag_150:\n      dup1\n      0x1f\n      add\n      0x20\n      dup1\n      swap2\n      div\n      mul\n      0x20\n      add\n      mload(0x40)\n      swap1\n      dup2\n      add\n      0x40\n      mstore\n      dup1\n      swap3\n      swap2\n      swap1\n      dup2\n      dup2\n      mstore\n      0x20\n      add\n      dup3\n      dup1\n      sload\n      tag_151\n      swap1\n      tag_70\n      jump\t// in\n    tag_151:\n      dup1\n      iszero\n      tag_152\n      jumpi\n      dup1\n      0x1f\n      lt\n      tag_153\n      jumpi\n      0x0100\n      dup1\n      dup4\n      sload\n      div\n      mul\n      dup4\n      mstore\n      swap2\n      0x20\n      add\n      swap2\n      jump(tag_152)\n    tag_153:\n      dup3\n      add\n      swap2\n      swap1\n      0x00\n      mstore\n      keccak256(0x00, 0x20)\n      swap1\n    tag_154:\n      dup2\n      sload\n      dup2\n      mstore\n      swap1\n      0x01\n      add\n      swap1\n      0x20\n      add\n      dup1\n      dup4\n      gt\n      tag_154\n      jumpi\n      dup3\n      swap1\n      sub\n      0x1f\n      and\n      dup3\n      add\n      swap2\n    tag_152:\n      pop\n      pop\n      pop\n      pop\n      pop\n      dup2\n      mstore\n      0x20\n      add\n      0x04\n      dup3\n      add\n      dup1\n      sload\n      dup1\n      0x20\n      mul\n      0x20\n      add\n      mload(0x40)\n      swap1\n      dup2\n      add\n      0x40\n      mstore\n      dup1\n      swap3\n      swap2\n      swap1\n      dup2\n      dup2\n      mstore\n      0x20\n      add\n      0x00\n      swap1\n    tag_155:\n      dup3\n      dup3\n      lt\n      iszero\n      tag_156\n      jumpi\n      dup4\n      dup3\n      swap1\n      0x00\n      mstore\n      keccak256(0x00, 0x20)\n      add\n      dup1\n      sload\n      tag_158\n      swap1\n      tag_70\n      jump\t// in\n    tag_158:\n      dup1\n      0x1f\n      add\n      0x20\n      dup1\n      swap2\n      div\n      mul\n      0x20\n      add\n      mload(0x40)\n      swap1\n      dup2\n      add\n      0x40\n      mstore\n      dup1\n      swap3\n      swap2\n      swap1\n      dup2\n      dup2\n      mstore\n      0x20\n      add\n      dup3\n      dup1\n      sload\n      tag_159\n      swap1\n      tag_70\n      jump\t// in\n    tag_159:\n      dup1\n      iszero\n      tag_160\n      jumpi\n      dup1\n      0x1f\n      lt\n      tag_161\n      jumpi\n      0x0100\n      dup1\n      dup4\n      sload\n      div\n      mul\n      dup4\n      mstore\n      swap2\n      0x20\n      add\n      swap2\n      jump(tag_160)\n    tag_161:\n      dup3\n      add\n      swap2\n      swap1\n      0x00\n      mstore\n      keccak256(0x00, 0x20)\n      swap1\n    tag_162:\n      dup2\n      sload\n      dup2\n      mstore\n      swap1\n      0x01\n      add\n      swap1\n      0x20\n      add\n      dup1\n      dup4\n      gt\n      tag_162\n      jumpi\n      dup3\n      swap1\n      sub\n      0x1f\n      and\n      dup3\n      add\n      swap2\n    tag_160:\n      pop\n      pop\n      pop\n      pop\n      pop\n      dup2\n      mstore\n      0x20\n      add\n      swap1\n      0x01\n      add\n      swap1\n      jump(tag_155)\n    tag_156:\n      pop\n      pop\n      pop\n      pop\n      dup2\n      mstore\n      pop\n      pop\n      dup2\n      mstore\n      0x20\n      add\n      swap1\n      0x01\n      add\n      swap1\n      jump(tag_142)\n    tag_143:\n      pop\n      pop\n      pop\n      pop\n      swap1\n      pop\n        /* \"contracts-test/230511-test1-answer.sol\":4079:4105  Student[] memory F_Storage */\n      0x60\n        /* \"contracts-test/230511-test1-answer.sol\":4116:4126  uint count */\n      0x00\n        /* \"contracts-test/230511-test1-answer.sol\":4141:4147  uint i */\n      dup1\n        /* \"contracts-test/230511-test1-answer.sol\":4148:4149  0 */\n      0x00\n        /* \"contracts-test/230511-test1-answer.sol\":4141:4149  uint i=0 */\n      swap1\n      pop\n        /* \"contracts-test/230511-test1-answer.sol\":4137:4520  for(uint i=0; i<students.length; i++) {... */\n    tag_163:\n        /* \"contracts-test/230511-test1-answer.sol\":4153:4161  students */\n      0x00\n        /* \"contracts-test/230511-test1-answer.sol\":4153:4168  students.length */\n      dup1\n      sload\n      swap1\n      pop\n        /* \"contracts-test/230511-test1-answer.sol\":4151:4152  i */\n      dup2\n        /* \"contracts-test/230511-test1-answer.sol\":4151:4168  i<students.length */\n      lt\n        /* \"contracts-test/230511-test1-answer.sol\":4137:4520  for(uint i=0; i<students.length; i++) {... */\n      iszero\n      tag_164\n      jumpi\n        /* \"contracts-test/230511-test1-answer.sol\":4242:4252  bytes(\"F\") */\n      mload(0x40)\n      dup1\n      0x40\n      add\n      0x40\n      mstore\n      dup1\n      0x01\n      dup2\n      mstore\n      0x20\n      add\n      0x4600000000000000000000000000000000000000000000000000000000000000\n      dup2\n      mstore\n      pop\n        /* \"contracts-test/230511-test1-answer.sol\":4232:4253  keccak256(bytes(\"F\")) */\n      dup1\n      mload\n      swap1\n      0x20\n      add\n      keccak256\n        /* \"contracts-test/230511-test1-answer.sol\":4208:4216  students */\n      0x00\n        /* \"contracts-test/230511-test1-answer.sol\":4217:4218  i */\n      dup3\n        /* \"contracts-test/230511-test1-answer.sol\":4208:4219  students[i] */\n      dup2\n      sload\n      dup2\n      lt\n      tag_166\n      jumpi\n      tag_167\n      tag_107\n      jump\t// in\n    tag_167:\n    tag_166:\n      swap1\n      0x00\n      mstore\n      keccak256(0x00, 0x20)\n      swap1\n      0x05\n      mul\n      add\n        /* \"contracts-test/230511-test1-answer.sol\":4208:4226  students[i].credit */\n      0x03\n      add\n        /* \"contracts-test/230511-test1-answer.sol\":4192:4228  keccak256(bytes(students[i].credit)) */\n      mload(0x40)\n      tag_169\n      swap2\n      swap1\n      tag_170\n      jump\t// in\n    tag_169:\n      mload(0x40)\n      dup1\n      swap2\n      sub\n      swap1\n      keccak256\n        /* \"contracts-test/230511-test1-answer.sol\":4192:4253  keccak256(bytes(students[i].credit)) == keccak256(bytes(\"F\")) */\n      sub\n        /* \"contracts-test/230511-test1-answer.sol\":4189:4510  if(keccak256(bytes(students[i].credit)) == keccak256(bytes(\"F\"))) {... */\n      tag_171\n      jumpi\n        /* \"contracts-test/230511-test1-answer.sol\":4273:4280  count++ */\n      dup2\n      dup1\n      tag_172\n      swap1\n      tag_120\n      jump\t// in\n    tag_172:\n      swap3\n      pop\n      pop\n        /* \"contracts-test/230511-test1-answer.sol\":4320:4328  students */\n      0x00\n        /* \"contracts-test/230511-test1-answer.sol\":4329:4330  i */\n      dup2\n        /* \"contracts-test/230511-test1-answer.sol\":4320:4331  students[i] */\n      dup2\n      sload\n      dup2\n      lt\n      tag_173\n      jumpi\n      tag_174\n      tag_107\n      jump\t// in\n    tag_174:\n    tag_173:\n      swap1\n      0x00\n      mstore\n      keccak256(0x00, 0x20)\n      swap1\n      0x05\n      mul\n      add\n        /* \"contracts-test/230511-test1-answer.sol\":4298:4331  F_Students[count-1] = students[i] */\n      mload(0x40)\n      dup1\n      0xa0\n      add\n      0x40\n      mstore\n      swap1\n      dup2\n      0x00\n      dup3\n      add\n      dup1\n      sload\n      tag_176\n      swap1\n      tag_70\n      jump\t// in\n    tag_176:\n      dup1\n      0x1f\n      add\n      0x20\n      dup1\n      swap2\n      div\n      mul\n      0x20\n      add\n      mload(0x40)\n      swap1\n      dup2\n      add\n      0x40\n      mstore\n      dup1\n      swap3\n      swap2\n      swap1\n      dup2\n      dup2\n      mstore\n      0x20\n      add\n      dup3\n      dup1\n      sload\n      tag_177\n      swap1\n      tag_70\n      jump\t// in\n    tag_177:\n      dup1\n      iszero\n      tag_178\n      jumpi\n      dup1\n      0x1f\n      lt\n      tag_179\n      jumpi\n      0x0100\n      dup1\n      dup4\n      sload\n      div\n      mul\n      dup4\n      mstore\n      swap2\n      0x20\n      add\n      swap2\n      jump(tag_178)\n    tag_179:\n      dup3\n      add\n      swap2\n      swap1\n      0x00\n      mstore\n      keccak256(0x00, 0x20)\n      swap1\n    tag_180:\n      dup2\n      sload\n      dup2\n      mstore\n      swap1\n      0x01\n      add\n      swap1\n      0x20\n      add\n      dup1\n      dup4\n      gt\n      tag_180\n      jumpi\n      dup3\n      swap1\n      sub\n      0x1f\n      and\n      dup3\n      add\n      swap2\n    tag_178:\n      pop\n      pop\n      pop\n      pop\n      pop\n      dup2\n      mstore\n      0x20\n      add\n      0x01\n      dup3\n      add\n      sload\n      dup2\n      mstore\n      0x20\n      add\n      0x02\n      dup3\n      add\n      sload\n      dup2\n      mstore\n      0x20\n      add\n      0x03\n      dup3\n      add\n      dup1\n      sload\n      tag_181\n      swap1\n      tag_70\n      jump\t// in\n    tag_181:\n      dup1\n      0x1f\n      add\n      0x20\n      dup1\n      swap2\n      div\n      mul\n      0x20\n      add\n      mload(0x40)\n      swap1\n      dup2\n      add\n      0x40\n      mstore\n      dup1\n      swap3\n      swap2\n      swap1\n      dup2\n      dup2\n      mstore\n      0x20\n      add\n      dup3\n      dup1\n      sload\n      tag_182\n      swap1\n      tag_70\n      jump\t// in\n    tag_182:\n      dup1\n      iszero\n      tag_183\n      jumpi\n      dup1\n      0x1f\n      lt\n      tag_184\n      jumpi\n      0x0100\n      dup1\n      dup4\n      sload\n      div\n      mul\n      dup4\n      mstore\n      swap2\n      0x20\n      add\n      swap2\n      jump(tag_183)\n    tag_184:\n      dup3\n      add\n      swap2\n      swap1\n      0x00\n      mstore\n      keccak256(0x00, 0x20)\n      swap1\n    tag_185:\n      dup2\n      sload\n      dup2\n      mstore\n      swap1\n      0x01\n      add\n      swap1\n      0x20\n      add\n      dup1\n      dup4\n      gt\n      tag_185\n      jumpi\n      dup3\n      swap1\n      sub\n      0x1f\n      and\n      dup3\n      add\n      swap2\n    tag_183:\n      pop\n      pop\n      pop\n      pop\n      pop\n      dup2\n      mstore\n      0x20\n      add\n      0x04\n      dup3\n      add\n      dup1\n      sload\n      dup1\n      0x20\n      mul\n      0x20\n      add\n      mload(0x40)\n      swap1\n      dup2\n      add\n      0x40\n      mstore\n      dup1\n      swap3\n      swap2\n      swap1\n      dup2\n      dup2\n      mstore\n      0x20\n      add\n      0x00\n      swap1\n    tag_186:\n      dup3\n      dup3\n      lt\n      iszero\n      tag_187\n      jumpi\n      dup4\n      dup3\n      swap1\n      0x00\n      mstore\n      keccak256(0x00, 0x20)\n      add\n      dup1\n      sload\n      tag_189\n      swap1\n      tag_70\n      jump\t// in\n    tag_189:\n      dup1\n      0x1f\n      add\n      0x20\n      dup1\n      swap2\n      div\n      mul\n      0x20\n      add\n      mload(0x40)\n      swap1\n      dup2\n      add\n      0x40\n      mstore\n      dup1\n      swap3\n      swap2\n      swap1\n      dup2\n      dup2\n      mstore\n      0x20\n      add\n      dup3\n      dup1\n      sload\n      tag_190\n      swap1\n      tag_70\n      jump\t// in\n    tag_190:\n      dup1\n      iszero\n      tag_191\n      jumpi\n      dup1\n      0x1f\n      lt\n      tag_192\n      jumpi\n      0x0100\n      dup1\n      dup4\n      sload\n      div\n      mul\n      dup4\n      mstore\n      swap2\n      0x20\n      add\n      swap2\n      jump(tag_191)\n    tag_192:\n      dup3\n      add\n      swap2\n      swap1\n      0x00\n      mstore\n      keccak256(0x00, 0x20)\n      swap1\n    tag_193:\n      dup2\n      sload\n      dup2\n      mstore\n      swap1\n      0x01\n      add\n      swap1\n      0x20\n      add\n      dup1\n      dup4\n      gt\n      tag_193\n      jumpi\n      dup3\n      swap1\n      sub\n      0x1f\n      and\n      dup3\n      add\n      swap2\n    tag_191:\n      pop\n      pop\n      pop\n      pop\n      pop\n      dup2\n      mstore\n      0x20\n      add\n      swap1\n      0x01\n      add\n      swap1\n      jump(tag_186)\n    tag_187:\n      pop\n      pop\n      pop\n      pop\n      dup2\n      mstore\n      pop\n      pop\n        /* \"contracts-test/230511-test1-answer.sol\":4298:4308  F_Students */\n      dup5\n        /* \"contracts-test/230511-test1-answer.sol\":4315:4316  1 */\n      0x01\n        /* \"contracts-test/230511-test1-answer.sol\":4309:4314  count */\n      dup5\n        /* \"contracts-test/230511-test1-answer.sol\":4309:4316  count-1 */\n      tag_194\n      swap2\n      swap1\n      tag_99\n      jump\t// in\n    tag_194:\n        /* \"contracts-test/230511-test1-answer.sol\":4298:4317  F_Students[count-1] */\n      dup2\n      mload\n      dup2\n      lt\n      tag_195\n      jumpi\n      tag_196\n      tag_107\n      jump\t// in\n    tag_196:\n    tag_195:\n      0x20\n      mul\n      0x20\n      add\n      add\n        /* \"contracts-test/230511-test1-answer.sol\":4298:4331  F_Students[count-1] = students[i] */\n      dup2\n      swap1\n      mstore\n      pop\n        /* \"contracts-test/230511-test1-answer.sol\":4375:4380  count */\n      dup2\n        /* \"contracts-test/230511-test1-answer.sol\":4361:4381  new Student[](count) */\n      0xffffffffffffffff\n      dup2\n      gt\n      iszero\n      tag_197\n      jumpi\n      tag_198\n      tag_90\n      jump\t// in\n    tag_198:\n    tag_197:\n      mload(0x40)\n      swap1\n      dup1\n      dup3\n      mstore\n      dup1\n      0x20\n      mul\n      0x20\n      add\n      dup3\n      add\n      0x40\n      mstore\n      dup1\n      iszero\n      tag_199\n      jumpi\n      dup2\n      0x20\n      add\n    tag_200:\n      tag_201\n      tag_94\n      jump\t// in\n    tag_201:\n      dup2\n      mstore\n      0x20\n      add\n      swap1\n      0x01\n      swap1\n      sub\n      swap1\n      dup2\n      tag_200\n      jumpi\n      swap1\n      pop\n    tag_199:\n      pop\n        /* \"contracts-test/230511-test1-answer.sol\":4349:4381  F_Storage = new Student[](count) */\n      swap3\n      pop\n        /* \"contracts-test/230511-test1-answer.sol\":4403:4409  uint j */\n      0x00\n        /* \"contracts-test/230511-test1-answer.sol\":4399:4496  for(uint j=0; j<count; j++) {... */\n    tag_202:\n        /* \"contracts-test/230511-test1-answer.sol\":4415:4420  count */\n      dup3\n        /* \"contracts-test/230511-test1-answer.sol\":4413:4414  j */\n      dup2\n        /* \"contracts-test/230511-test1-answer.sol\":4413:4420  j<count */\n      lt\n        /* \"contracts-test/230511-test1-answer.sol\":4399:4496  for(uint j=0; j<count; j++) {... */\n      iszero\n      tag_203\n      jumpi\n        /* \"contracts-test/230511-test1-answer.sol\":4464:4474  F_Students */\n      dup5\n        /* \"contracts-test/230511-test1-answer.sol\":4475:4476  j */\n      dup2\n        /* \"contracts-test/230511-test1-answer.sol\":4464:4477  F_Students[j] */\n      dup2\n      mload\n      dup2\n      lt\n      tag_205\n      jumpi\n      tag_206\n      tag_107\n      jump\t// in\n    tag_206:\n    tag_205:\n      0x20\n      mul\n      0x20\n      add\n      add\n      mload\n        /* \"contracts-test/230511-test1-answer.sol\":4449:4458  F_Storage */\n      dup5\n        /* \"contracts-test/230511-test1-answer.sol\":4459:4460  j */\n      dup3\n        /* \"contracts-test/230511-test1-answer.sol\":4449:4461  F_Storage[j] */\n      dup2\n      mload\n      dup2\n      lt\n      tag_207\n      jumpi\n      tag_208\n      tag_107\n      jump\t// in\n    tag_208:\n    tag_207:\n      0x20\n      mul\n      0x20\n      add\n      add\n        /* \"contracts-test/230511-test1-answer.sol\":4449:4477  F_Storage[j] = F_Students[j] */\n      dup2\n      swap1\n      mstore\n      pop\n        /* \"contracts-test/230511-test1-answer.sol\":4422:4425  j++ */\n      dup1\n      dup1\n      tag_209\n      swap1\n      tag_120\n      jump\t// in\n    tag_209:\n      swap2\n      pop\n      pop\n        /* \"contracts-test/230511-test1-answer.sol\":4399:4496  for(uint j=0; j<count; j++) {... */\n      jump(tag_202)\n    tag_203:\n      pop\n        /* \"contracts-test/230511-test1-answer.sol\":4189:4510  if(keccak256(bytes(students[i].credit)) == keccak256(bytes(\"F\"))) {... */\n    tag_171:\n        /* \"contracts-test/230511-test1-answer.sol\":4170:4173  i++ */\n      dup1\n      dup1\n      tag_210\n      swap1\n      tag_120\n      jump\t// in\n    tag_210:\n      swap2\n      pop\n      pop\n        /* \"contracts-test/230511-test1-answer.sol\":4137:4520  for(uint i=0; i<students.length; i++) {... */\n      jump(tag_163)\n    tag_164:\n      pop\n        /* \"contracts-test/230511-test1-answer.sol\":4537:4546  F_Storage */\n      dup2\n        /* \"contracts-test/230511-test1-answer.sol\":4537:4553  F_Storage.length */\n      mload\n        /* \"contracts-test/230511-test1-answer.sol\":4555:4560  count */\n      dup2\n        /* \"contracts-test/230511-test1-answer.sol\":4562:4571  F_Storage */\n      dup4\n        /* \"contracts-test/230511-test1-answer.sol\":4529:4572  return (F_Storage.length, count, F_Storage) */\n      swap6\n      pop\n      swap6\n      pop\n      swap6\n      pop\n      pop\n      pop\n      pop\n        /* \"contracts-test/230511-test1-answer.sol\":3931:4579  function FClass2() public view returns(/*Student[] memory*/ uint, uint, Student[] memory) {... */\n      swap1\n      swap2\n      swap3\n      jump\t// out\n        /* \"contracts-test/230511-test1-answer.sol\":1842:1955  function getStudent(uint _number) public view returns(Student memory) {... */\n    tag_31:\n        /* \"contracts-test/230511-test1-answer.sol\":1896:1910  Student memory */\n      tag_211\n      tag_94\n      jump\t// in\n    tag_211:\n        /* \"contracts-test/230511-test1-answer.sol\":1929:1937  students */\n      0x00\n        /* \"contracts-test/230511-test1-answer.sol\":1946:1947  1 */\n      0x01\n        /* \"contracts-test/230511-test1-answer.sol\":1938:1945  _number */\n      dup4\n        /* \"contracts-test/230511-test1-answer.sol\":1938:1947  _number-1 */\n      tag_213\n      swap2\n      swap1\n      tag_99\n      jump\t// in\n    tag_213:\n        /* \"contracts-test/230511-test1-answer.sol\":1929:1948  students[_number-1] */\n      dup2\n      sload\n      dup2\n      lt\n      tag_214\n      jumpi\n      tag_215\n      tag_107\n      jump\t// in\n    tag_215:\n    tag_214:\n      swap1\n      0x00\n      mstore\n      keccak256(0x00, 0x20)\n      swap1\n      0x05\n      mul\n      add\n        /* \"contracts-test/230511-test1-answer.sol\":1922:1948  return students[_number-1] */\n      mload(0x40)\n      dup1\n      0xa0\n      add\n      0x40\n      mstore\n      swap1\n      dup2\n      0x00\n      dup3\n      add\n      dup1\n      sload\n      tag_217\n      swap1\n      tag_70\n      jump\t// in\n    tag_217:\n      dup1\n      0x1f\n      add\n      0x20\n      dup1\n      swap2\n      div\n      mul\n      0x20\n      add\n      mload(0x40)\n      swap1\n      dup2\n      add\n      0x40\n      mstore\n      dup1\n      swap3\n      swap2\n      swap1\n      dup2\n      dup2\n      mstore\n      0x20\n      add\n      dup3\n      dup1\n      sload\n      tag_218\n      swap1\n      tag_70\n      jump\t// in\n    tag_218:\n      dup1\n      iszero\n      tag_219\n      jumpi\n      dup1\n      0x1f\n      lt\n      tag_220\n      jumpi\n      0x0100\n      dup1\n      dup4\n      sload\n      div\n      mul\n      dup4\n      mstore\n      swap2\n      0x20\n      add\n      swap2\n      jump(tag_219)\n    tag_220:\n      dup3\n      add\n      swap2\n      swap1\n      0x00\n      mstore\n      keccak256(0x00, 0x20)\n      swap1\n    tag_221:\n      dup2\n      sload\n      dup2\n      mstore\n      swap1\n      0x01\n      add\n      swap1\n      0x20\n      add\n      dup1\n      dup4\n      gt\n      tag_221\n      jumpi\n      dup3\n      swap1\n      sub\n      0x1f\n      and\n      dup3\n      add\n      swap2\n    tag_219:\n      pop\n      pop\n      pop\n      pop\n      pop\n      dup2\n      mstore\n      0x20\n      add\n      0x01\n      dup3\n      add\n      sload\n      dup2\n      mstore\n      0x20\n      add\n      0x02\n      dup3\n      add\n      sload\n      dup2\n      mstore\n      0x20\n      add\n      0x03\n      dup3\n      add\n      dup1\n      sload\n      tag_222\n      swap1\n      tag_70\n      jump\t// in\n    tag_222:\n      dup1\n      0x1f\n      add\n      0x20\n      dup1\n      swap2\n      div\n      mul\n      0x20\n      add\n      mload(0x40)\n      swap1\n      dup2\n      add\n      0x40\n      mstore\n      dup1\n      swap3\n      swap2\n      swap1\n      dup2\n      dup2\n      mstore\n      0x20\n      add\n      dup3\n      dup1\n      sload\n      tag_223\n      swap1\n      tag_70\n      jump\t// in\n    tag_223:\n      dup1\n      iszero\n      tag_224\n      jumpi\n      dup1\n      0x1f\n      lt\n      tag_225\n      jumpi\n      0x0100\n      dup1\n      dup4\n      sload\n      div\n      mul\n      dup4\n      mstore\n      swap2\n      0x20\n      add\n      swap2\n      jump(tag_224)\n    tag_225:\n      dup3\n      add\n      swap2\n      swap1\n      0x00\n      mstore\n      keccak256(0x00, 0x20)\n      swap1\n    tag_226:\n      dup2\n      sload\n      dup2\n      mstore\n      swap1\n      0x01\n      add\n      swap1\n      0x20\n      add\n      dup1\n      dup4\n      gt\n      tag_226\n      jumpi\n      dup3\n      swap1\n      sub\n      0x1f\n      and\n      dup3\n      add\n      swap2\n    tag_224:\n      pop\n      pop\n      pop\n      pop\n      pop\n      dup2\n      mstore\n      0x20\n      add\n      0x04\n      dup3\n      add\n      dup1\n      sload\n      dup1\n      0x20\n      mul\n      0x20\n      add\n      mload(0x40)\n      swap1\n      dup2\n      add\n      0x40\n      mstore\n      dup1\n      swap3\n      swap2\n      swap1\n      dup2\n      dup2\n      mstore\n      0x20\n      add\n      0x00\n      swap1\n    tag_227:\n      dup3\n      dup3\n      lt\n      iszero\n      tag_228\n      jumpi\n      dup4\n      dup3\n      swap1\n      0x00\n      mstore\n      keccak256(0x00, 0x20)\n      add\n      dup1\n      sload\n      tag_230\n      swap1\n      tag_70\n      jump\t// in\n    tag_230:\n      dup1\n      0x1f\n      add\n      0x20\n      dup1\n      swap2\n      div\n      mul\n      0x20\n      add\n      mload(0x40)\n      swap1\n      dup2\n      add\n      0x40\n      mstore\n      dup1\n      swap3\n      swap2\n      swap1\n      dup2\n      dup2\n      mstore\n      0x20\n      add\n      dup3\n      dup1\n      sload\n      tag_231\n      swap1\n      tag_70\n      jump\t// in\n    tag_231:\n      dup1\n      iszero\n      tag_232\n      jumpi\n      dup1\n      0x1f\n      lt\n      tag_233\n      jumpi\n      0x0100\n      dup1\n      dup4\n      sload\n      div\n      mul\n      dup4\n      mstore\n      swap2\n      0x20\n      add\n      swap2\n      jump(tag_232)\n    tag_233:\n      dup3\n      add\n      swap2\n      swap1\n      0x00\n      mstore\n      keccak256(0x00, 0x20)\n      swap1\n    tag_234:\n      dup2\n      sload\n      dup2\n      mstore\n      swap1\n      0x01\n      add\n      swap1\n      0x20\n      add\n      dup1\n      dup4\n      gt\n      tag_234\n      jumpi\n      dup3\n      swap1\n      sub\n      0x1f\n      and\n      dup3\n      add\n      swap2\n    tag_232:\n      pop\n      pop\n      pop\n      pop\n      pop\n      dup2\n      mstore\n      0x20\n      add\n      swap1\n      0x01\n      add\n      swap1\n      jump(tag_227)\n    tag_228:\n      pop\n      pop\n      pop\n      pop\n      dup2\n      mstore\n      pop\n      pop\n      swap1\n      pop\n        /* \"contracts-test/230511-test1-answer.sol\":1842:1955  function getStudent(uint _number) public view returns(Student memory) {... */\n      swap2\n      swap1\n      pop\n      jump\t// out\n        /* \"contracts-test/230511-test1-answer.sol\":1031:1333  function pushStudent(string memory _name, uint _score, string[] memory _classes) public {... */\n    tag_37:\n        /* \"contracts-test/230511-test1-answer.sol\":1129:1137  students */\n      0x00\n        /* \"contracts-test/230511-test1-answer.sol\":1143:1225  Student(_name, /*count++*/ students.length+1, _score, setCredit(_score), _classes) */\n      mload(0x40)\n      dup1\n      0xa0\n      add\n      0x40\n      mstore\n      dup1\n        /* \"contracts-test/230511-test1-answer.sol\":1151:1156  _name */\n      dup6\n        /* \"contracts-test/230511-test1-answer.sol\":1143:1225  Student(_name, /*count++*/ students.length+1, _score, setCredit(_score), _classes) */\n      dup2\n      mstore\n      0x20\n      add\n        /* \"contracts-test/230511-test1-answer.sol\":1186:1187  1 */\n      0x01\n        /* \"contracts-test/230511-test1-answer.sol\":1170:1178  students */\n      0x00\n        /* \"contracts-test/230511-test1-answer.sol\":1170:1185  students.length */\n      dup1\n      sload\n      swap1\n      pop\n        /* \"contracts-test/230511-test1-answer.sol\":1170:1187  students.length+1 */\n      tag_236\n      swap2\n      swap1\n      tag_104\n      jump\t// in\n    tag_236:\n        /* \"contracts-test/230511-test1-answer.sol\":1143:1225  Student(_name, /*count++*/ students.length+1, _score, setCredit(_score), _classes) */\n      dup2\n      mstore\n      0x20\n      add\n        /* \"contracts-test/230511-test1-answer.sol\":1189:1195  _score */\n      dup5\n        /* \"contracts-test/230511-test1-answer.sol\":1143:1225  Student(_name, /*count++*/ students.length+1, _score, setCredit(_score), _classes) */\n      dup2\n      mstore\n      0x20\n      add\n        /* \"contracts-test/230511-test1-answer.sol\":1197:1214  setCredit(_score) */\n      tag_237\n        /* \"contracts-test/230511-test1-answer.sol\":1207:1213  _score */\n      dup6\n        /* \"contracts-test/230511-test1-answer.sol\":1197:1206  setCredit */\n      tag_62\n        /* \"contracts-test/230511-test1-answer.sol\":1197:1214  setCredit(_score) */\n      jump\t// in\n    tag_237:\n        /* \"contracts-test/230511-test1-answer.sol\":1143:1225  Student(_name, /*count++*/ students.length+1, _score, setCredit(_score), _classes) */\n      dup2\n      mstore\n      0x20\n      add\n        /* \"contracts-test/230511-test1-answer.sol\":1216:1224  _classes */\n      dup4\n        /* \"contracts-test/230511-test1-answer.sol\":1143:1225  Student(_name, /*count++*/ students.length+1, _score, setCredit(_score), _classes) */\n      dup2\n      mstore\n      pop\n        /* \"contracts-test/230511-test1-answer.sol\":1129:1226  students.push(Student(_name, /*count++*/ students.length+1, _score, setCredit(_score), _classes)) */\n      swap1\n      dup1\n      0x01\n      dup2\n      sload\n      add\n      dup1\n      dup3\n      sstore\n      dup1\n      swap2\n      pop\n      pop\n      0x01\n      swap1\n      sub\n      swap1\n      0x00\n      mstore\n      keccak256(0x00, 0x20)\n      swap1\n      0x05\n      mul\n      add\n      0x00\n      swap1\n      swap2\n      swap1\n      swap2\n      swap1\n      swap2\n      pop\n      0x00\n      dup3\n      add\n      mload\n      dup2\n      0x00\n      add\n      swap1\n      dup2\n      tag_239\n      swap2\n      swap1\n      tag_240\n      jump\t// in\n    tag_239:\n      pop\n      0x20\n      dup3\n      add\n      mload\n      dup2\n      0x01\n      add\n      sstore\n      0x40\n      dup3\n      add\n      mload\n      dup2\n      0x02\n      add\n      sstore\n      0x60\n      dup3\n      add\n      mload\n      dup2\n      0x03\n      add\n      swap1\n      dup2\n      tag_241\n      swap2\n      swap1\n      tag_240\n      jump\t// in\n    tag_241:\n      pop\n      0x80\n      dup3\n      add\n      mload\n      dup2\n      0x04\n      add\n      swap1\n      dup1\n      mload\n      swap1\n      0x20\n      add\n      swap1\n      tag_242\n      swap3\n      swap2\n      swap1\n      tag_243\n      jump\t// in\n    tag_242:\n      pop\n      pop\n      pop\n        /* \"contracts-test/230511-test1-answer.sol\":1258:1326  Student(_name, students.length, _score, setCredit(_score), _classes) */\n      mload(0x40)\n      dup1\n      0xa0\n      add\n      0x40\n      mstore\n      dup1\n        /* \"contracts-test/230511-test1-answer.sol\":1266:1271  _name */\n      dup5\n        /* \"contracts-test/230511-test1-answer.sol\":1258:1326  Student(_name, students.length, _score, setCredit(_score), _classes) */\n      dup2\n      mstore\n      0x20\n      add\n        /* \"contracts-test/230511-test1-answer.sol\":1273:1281  students */\n      0x00\n        /* \"contracts-test/230511-test1-answer.sol\":1273:1288  students.length */\n      dup1\n      sload\n      swap1\n      pop\n        /* \"contracts-test/230511-test1-answer.sol\":1258:1326  Student(_name, students.length, _score, setCredit(_score), _classes) */\n      dup2\n      mstore\n      0x20\n      add\n        /* \"contracts-test/230511-test1-answer.sol\":1290:1296  _score */\n      dup4\n        /* \"contracts-test/230511-test1-answer.sol\":1258:1326  Student(_name, students.length, _score, setCredit(_score), _classes) */\n      dup2\n      mstore\n      0x20\n      add\n        /* \"contracts-test/230511-test1-answer.sol\":1298:1315  setCredit(_score) */\n      tag_244\n        /* \"contracts-test/230511-test1-answer.sol\":1308:1314  _score */\n      dup5\n        /* \"contracts-test/230511-test1-answer.sol\":1298:1307  setCredit */\n      tag_62\n        /* \"contracts-test/230511-test1-answer.sol\":1298:1315  setCredit(_score) */\n      jump\t// in\n    tag_244:\n        /* \"contracts-test/230511-test1-answer.sol\":1258:1326  Student(_name, students.length, _score, setCredit(_score), _classes) */\n      dup2\n      mstore\n      0x20\n      add\n        /* \"contracts-test/230511-test1-answer.sol\":1317:1325  _classes */\n      dup3\n        /* \"contracts-test/230511-test1-answer.sol\":1258:1326  Student(_name, students.length, _score, setCredit(_score), _classes) */\n      dup2\n      mstore\n      pop\n        /* \"contracts-test/230511-test1-answer.sol\":1236:1248  name_Student */\n      0x01\n        /* \"contracts-test/230511-test1-answer.sol\":1249:1254  _name */\n      dup5\n        /* \"contracts-test/230511-test1-answer.sol\":1236:1255  name_Student[_name] */\n      mload(0x40)\n      tag_245\n      swap2\n      swap1\n      tag_246\n      jump\t// in\n    tag_245:\n      swap1\n      dup2\n      mstore\n      0x20\n      add\n      mload(0x40)\n      dup1\n      swap2\n      sub\n      swap1\n      keccak256\n        /* \"contracts-test/230511-test1-answer.sol\":1236:1326  name_Student[_name] = Student(_name, students.length, _score, setCredit(_score), _classes) */\n      0x00\n      dup3\n      add\n      mload\n      dup2\n      0x00\n      add\n      swap1\n      dup2\n      tag_247\n      swap2\n      swap1\n      tag_240\n      jump\t// in\n    tag_247:\n      pop\n      0x20\n      dup3\n      add\n      mload\n      dup2\n      0x01\n      add\n      sstore\n      0x40\n      dup3\n      add\n      mload\n      dup2\n      0x02\n      add\n      sstore\n      0x60\n      dup3\n      add\n      mload\n      dup2\n      0x03\n      add\n      swap1\n      dup2\n      tag_248\n      swap2\n      swap1\n      tag_240\n      jump\t// in\n    tag_248:\n      pop\n      0x80\n      dup3\n      add\n      mload\n      dup2\n      0x04\n      add\n      swap1\n      dup1\n      mload\n      swap1\n      0x20\n      add\n      swap1\n      tag_249\n      swap3\n      swap2\n      swap1\n      tag_243\n      jump\t// in\n    tag_249:\n      pop\n      swap1\n      pop\n      pop\n        /* \"contracts-test/230511-test1-answer.sol\":1031:1333  function pushStudent(string memory _name, uint _score, string[] memory _classes) public {... */\n      pop\n      pop\n      pop\n      jump\t// out\n        /* \"contracts-test/230511-test1-answer.sol\":3347:3925  function FClass() public view returns(Student[] memory) {... */\n    tag_39:\n        /* \"contracts-test/230511-test1-answer.sol\":3385:3401  Student[] memory */\n      0x60\n        /* \"contracts-test/230511-test1-answer.sol\":3413:3421  uint num */\n      0x00\n        /* \"contracts-test/230511-test1-answer.sol\":3436:3442  uint i */\n      dup1\n        /* \"contracts-test/230511-test1-answer.sol\":3443:3444  0 */\n      0x00\n        /* \"contracts-test/230511-test1-answer.sol\":3436:3444  uint i=0 */\n      swap1\n      pop\n        /* \"contracts-test/230511-test1-answer.sol\":3432:3597  for(uint i=0; i<students.length;i++) {... */\n    tag_251:\n        /* \"contracts-test/230511-test1-answer.sol\":3448:3456  students */\n      0x00\n        /* \"contracts-test/230511-test1-answer.sol\":3448:3463  students.length */\n      dup1\n      sload\n      swap1\n      pop\n        /* \"contracts-test/230511-test1-answer.sol\":3446:3447  i */\n      dup2\n        /* \"contracts-test/230511-test1-answer.sol\":3446:3463  i<students.length */\n      lt\n        /* \"contracts-test/230511-test1-answer.sol\":3432:3597  for(uint i=0; i<students.length;i++) {... */\n      iszero\n      tag_252\n      jumpi\n        /* \"contracts-test/230511-test1-answer.sol\":3536:3546  bytes(\"F\") */\n      mload(0x40)\n      dup1\n      0x40\n      add\n      0x40\n      mstore\n      dup1\n      0x01\n      dup2\n      mstore\n      0x20\n      add\n      0x4600000000000000000000000000000000000000000000000000000000000000\n      dup2\n      mstore\n      pop\n        /* \"contracts-test/230511-test1-answer.sol\":3526:3547  keccak256(bytes(\"F\")) */\n      dup1\n      mload\n      swap1\n      0x20\n      add\n      keccak256\n        /* \"contracts-test/230511-test1-answer.sol\":3502:3510  students */\n      0x00\n        /* \"contracts-test/230511-test1-answer.sol\":3511:3512  i */\n      dup3\n        /* \"contracts-test/230511-test1-answer.sol\":3502:3513  students[i] */\n      dup2\n      sload\n      dup2\n      lt\n      tag_254\n      jumpi\n      tag_255\n      tag_107\n      jump\t// in\n    tag_255:\n    tag_254:\n      swap1\n      0x00\n      mstore\n      keccak256(0x00, 0x20)\n      swap1\n      0x05\n      mul\n      add\n        /* \"contracts-test/230511-test1-answer.sol\":3502:3520  students[i].credit */\n      0x03\n      add\n        /* \"contracts-test/230511-test1-answer.sol\":3486:3522  keccak256(bytes(students[i].credit)) */\n      mload(0x40)\n      tag_257\n      swap2\n      swap1\n      tag_170\n      jump\t// in\n    tag_257:\n      mload(0x40)\n      dup1\n      swap2\n      sub\n      swap1\n      keccak256\n        /* \"contracts-test/230511-test1-answer.sol\":3486:3547  keccak256(bytes(students[i].credit)) == keccak256(bytes(\"F\")) */\n      sub\n        /* \"contracts-test/230511-test1-answer.sol\":3483:3587  if(keccak256(bytes(students[i].credit)) == keccak256(bytes(\"F\"))) {... */\n      tag_258\n      jumpi\n        /* \"contracts-test/230511-test1-answer.sol\":3567:3572  num++ */\n      dup2\n      dup1\n      tag_259\n      swap1\n      tag_120\n      jump\t// in\n    tag_259:\n      swap3\n      pop\n      pop\n        /* \"contracts-test/230511-test1-answer.sol\":3483:3587  if(keccak256(bytes(students[i].credit)) == keccak256(bytes(\"F\"))) {... */\n    tag_258:\n        /* \"contracts-test/230511-test1-answer.sol\":3464:3467  i++ */\n      dup1\n      dup1\n      tag_260\n      swap1\n      tag_120\n      jump\t// in\n    tag_260:\n      swap2\n      pop\n      pop\n        /* \"contracts-test/230511-test1-answer.sol\":3432:3597  for(uint i=0; i<students.length;i++) {... */\n      jump(tag_251)\n    tag_252:\n      pop\n        /* \"contracts-test/230511-test1-answer.sol\":3607:3633  Student[] memory F_Storage */\n      0x00\n        /* \"contracts-test/230511-test1-answer.sol\":3650:3653  num */\n      dup2\n        /* \"contracts-test/230511-test1-answer.sol\":3636:3654  new Student[](num) */\n      0xffffffffffffffff\n      dup2\n      gt\n      iszero\n      tag_261\n      jumpi\n      tag_262\n      tag_90\n      jump\t// in\n    tag_262:\n    tag_261:\n      mload(0x40)\n      swap1\n      dup1\n      dup3\n      mstore\n      dup1\n      0x20\n      mul\n      0x20\n      add\n      dup3\n      add\n      0x40\n      mstore\n      dup1\n      iszero\n      tag_263\n      jumpi\n      dup2\n      0x20\n      add\n    tag_264:\n      tag_265\n      tag_94\n      jump\t// in\n    tag_265:\n      dup2\n      mstore\n      0x20\n      add\n      swap1\n      0x01\n      swap1\n      sub\n      swap1\n      dup2\n      tag_264\n      jumpi\n      swap1\n      pop\n    tag_263:\n      pop\n        /* \"contracts-test/230511-test1-answer.sol\":3607:3654  Student[] memory F_Storage = new Student[](num) */\n      swap1\n      pop\n        /* \"contracts-test/230511-test1-answer.sol\":3665:3674  uint _num */\n      0x00\n        /* \"contracts-test/230511-test1-answer.sol\":3689:3695  uint i */\n      dup1\n        /* \"contracts-test/230511-test1-answer.sol\":3696:3697  0 */\n      0x00\n        /* \"contracts-test/230511-test1-answer.sol\":3689:3697  uint i=0 */\n      swap1\n      pop\n        /* \"contracts-test/230511-test1-answer.sol\":3685:3892  for(uint i=0; i<students.length;i++) {... */\n    tag_266:\n        /* \"contracts-test/230511-test1-answer.sol\":3701:3709  students */\n      0x00\n        /* \"contracts-test/230511-test1-answer.sol\":3701:3716  students.length */\n      dup1\n      sload\n      swap1\n      pop\n        /* \"contracts-test/230511-test1-answer.sol\":3699:3700  i */\n      dup2\n        /* \"contracts-test/230511-test1-answer.sol\":3699:3716  i<students.length */\n      lt\n        /* \"contracts-test/230511-test1-answer.sol\":3685:3892  for(uint i=0; i<students.length;i++) {... */\n      iszero\n      tag_267\n      jumpi\n        /* \"contracts-test/230511-test1-answer.sol\":3789:3799  bytes(\"F\") */\n      mload(0x40)\n      dup1\n      0x40\n      add\n      0x40\n      mstore\n      dup1\n      0x01\n      dup2\n      mstore\n      0x20\n      add\n      0x4600000000000000000000000000000000000000000000000000000000000000\n      dup2\n      mstore\n      pop\n        /* \"contracts-test/230511-test1-answer.sol\":3779:3800  keccak256(bytes(\"F\")) */\n      dup1\n      mload\n      swap1\n      0x20\n      add\n      keccak256\n        /* \"contracts-test/230511-test1-answer.sol\":3755:3763  students */\n      0x00\n        /* \"contracts-test/230511-test1-answer.sol\":3764:3765  i */\n      dup3\n        /* \"contracts-test/230511-test1-answer.sol\":3755:3766  students[i] */\n      dup2\n      sload\n      dup2\n      lt\n      tag_269\n      jumpi\n      tag_270\n      tag_107\n      jump\t// in\n    tag_270:\n    tag_269:\n      swap1\n      0x00\n      mstore\n      keccak256(0x00, 0x20)\n      swap1\n      0x05\n      mul\n      add\n        /* \"contracts-test/230511-test1-answer.sol\":3755:3773  students[i].credit */\n      0x03\n      add\n        /* \"contracts-test/230511-test1-answer.sol\":3739:3775  keccak256(bytes(students[i].credit)) */\n      mload(0x40)\n      tag_272\n      swap2\n      swap1\n      tag_170\n      jump\t// in\n    tag_272:\n      mload(0x40)\n      dup1\n      swap2\n      sub\n      swap1\n      keccak256\n        /* \"contracts-test/230511-test1-answer.sol\":3739:3800  keccak256(bytes(students[i].credit)) == keccak256(bytes(\"F\")) */\n      sub\n        /* \"contracts-test/230511-test1-answer.sol\":3736:3862  if(keccak256(bytes(students[i].credit)) == keccak256(bytes(\"F\"))) {... */\n      tag_273\n      jumpi\n        /* \"contracts-test/230511-test1-answer.sol\":3836:3844  students */\n      0x00\n        /* \"contracts-test/230511-test1-answer.sol\":3845:3846  i */\n      dup2\n        /* \"contracts-test/230511-test1-answer.sol\":3836:3847  students[i] */\n      dup2\n      sload\n      dup2\n      lt\n      tag_274\n      jumpi\n      tag_275\n      tag_107\n      jump\t// in\n    tag_275:\n    tag_274:\n      swap1\n      0x00\n      mstore\n      keccak256(0x00, 0x20)\n      swap1\n      0x05\n      mul\n      add\n        /* \"contracts-test/230511-test1-answer.sol\":3820:3847  F_Storage[_num]=students[i] */\n      mload(0x40)\n      dup1\n      0xa0\n      add\n      0x40\n      mstore\n      swap1\n      dup2\n      0x00\n      dup3\n      add\n      dup1\n      sload\n      tag_277\n      swap1\n      tag_70\n      jump\t// in\n    tag_277:\n      dup1\n      0x1f\n      add\n      0x20\n      dup1\n      swap2\n      div\n      mul\n      0x20\n      add\n      mload(0x40)\n      swap1\n      dup2\n      add\n      0x40\n      mstore\n      dup1\n      swap3\n      swap2\n      swap1\n      dup2\n      dup2\n      mstore\n      0x20\n      add\n      dup3\n      dup1\n      sload\n      tag_278\n      swap1\n      tag_70\n      jump\t// in\n    tag_278:\n      dup1\n      iszero\n      tag_279\n      jumpi\n      dup1\n      0x1f\n      lt\n      tag_280\n      jumpi\n      0x0100\n      dup1\n      dup4\n      sload\n      div\n      mul\n      dup4\n      mstore\n      swap2\n      0x20\n      add\n      swap2\n      jump(tag_279)\n    tag_280:\n      dup3\n      add\n      swap2\n      swap1\n      0x00\n      mstore\n      keccak256(0x00, 0x20)\n      swap1\n    tag_281:\n      dup2\n      sload\n      dup2\n      mstore\n      swap1\n      0x01\n      add\n      swap1\n      0x20\n      add\n      dup1\n      dup4\n      gt\n      tag_281\n      jumpi\n      dup3\n      swap1\n      sub\n      0x1f\n      and\n      dup3\n      add\n      swap2\n    tag_279:\n      pop\n      pop\n      pop\n      pop\n      pop\n      dup2\n      mstore\n      0x20\n      add\n      0x01\n      dup3\n      add\n      sload\n      dup2\n      mstore\n      0x20\n      add\n      0x02\n      dup3\n      add\n      sload\n      dup2\n      mstore\n      0x20\n      add\n      0x03\n      dup3\n      add\n      dup1\n      sload\n      tag_282\n      swap1\n      tag_70\n      jump\t// in\n    tag_282:\n      dup1\n      0x1f\n      add\n      0x20\n      dup1\n      swap2\n      div\n      mul\n      0x20\n      add\n      mload(0x40)\n      swap1\n      dup2\n      add\n      0x40\n      mstore\n      dup1\n      swap3\n      swap2\n      swap1\n      dup2\n      dup2\n      mstore\n      0x20\n      add\n      dup3\n      dup1\n      sload\n      tag_283\n      swap1\n      tag_70\n      jump\t// in\n    tag_283:\n      dup1\n      iszero\n      tag_284\n      jumpi\n      dup1\n      0x1f\n      lt\n      tag_285\n      jumpi\n      0x0100\n      dup1\n      dup4\n      sload\n      div\n      mul\n      dup4\n      mstore\n      swap2\n      0x20\n      add\n      swap2\n      jump(tag_284)\n    tag_285:\n      dup3\n      add\n      swap2\n      swap1\n      0x00\n      mstore\n      keccak256(0x00, 0x20)\n      swap1\n    tag_286:\n      dup2\n      sload\n      dup2\n      mstore\n      swap1\n      0x01\n      add\n      swap1\n      0x20\n      add\n      dup1\n      dup4\n      gt\n      tag_286\n      jumpi\n      dup3\n      swap1\n      sub\n      0x1f\n      and\n      dup3\n      add\n      swap2\n    tag_284:\n      pop\n      pop\n      pop\n      pop\n      pop\n      dup2\n      mstore\n      0x20\n      add\n      0x04\n      dup3\n      add\n      dup1\n      sload\n      dup1\n      0x20\n      mul\n      0x20\n      add\n      mload(0x40)\n      swap1\n      dup2\n      add\n      0x40\n      mstore\n      dup1\n      swap3\n      swap2\n      swap1\n      dup2\n      dup2\n      mstore\n      0x20\n      add\n      0x00\n      swap1\n    tag_287:\n      dup3\n      dup3\n      lt\n      iszero\n      tag_288\n      jumpi\n      dup4\n      dup3\n      swap1\n      0x00\n      mstore\n      keccak256(0x00, 0x20)\n      add\n      dup1\n      sload\n      tag_290\n      swap1\n      tag_70\n      jump\t// in\n    tag_290:\n      dup1\n      0x1f\n      add\n      0x20\n      dup1\n      swap2\n      div\n      mul\n      0x20\n      add\n      mload(0x40)\n      swap1\n      dup2\n      add\n      0x40\n      mstore\n      dup1\n      swap3\n      swap2\n      swap1\n      dup2\n      dup2\n      mstore\n      0x20\n      add\n      dup3\n      dup1\n      sload\n      tag_291\n      swap1\n      tag_70\n      jump\t// in\n    tag_291:\n      dup1\n      iszero\n      tag_292\n      jumpi\n      dup1\n      0x1f\n      lt\n      tag_293\n      jumpi\n      0x0100\n      dup1\n      dup4\n      sload\n      div\n      mul\n      dup4\n      mstore\n      swap2\n      0x20\n      add\n      swap2\n      jump(tag_292)\n    tag_293:\n      dup3\n      add\n      swap2\n      swap1\n      0x00\n      mstore\n      keccak256(0x00, 0x20)\n      swap1\n    tag_294:\n      dup2\n      sload\n      dup2\n      mstore\n      swap1\n      0x01\n      add\n      swap1\n      0x20\n      add\n      dup1\n      dup4\n      gt\n      tag_294\n      jumpi\n      dup3\n      swap1\n      sub\n      0x1f\n      and\n      dup3\n      add\n      swap2\n    tag_292:\n      pop\n      pop\n      pop\n      pop\n      pop\n      dup2\n      mstore\n      0x20\n      add\n      swap1\n      0x01\n      add\n      swap1\n      jump(tag_287)\n    tag_288:\n      pop\n      pop\n      pop\n      pop\n      dup2\n      mstore\n      pop\n      pop\n        /* \"contracts-test/230511-test1-answer.sol\":3820:3829  F_Storage */\n      dup4\n        /* \"contracts-test/230511-test1-answer.sol\":3830:3834  _num */\n      dup4\n        /* \"contracts-test/230511-test1-answer.sol\":3820:3835  F_Storage[_num] */\n      dup2\n      mload\n      dup2\n      lt\n      tag_295\n      jumpi\n      tag_296\n      tag_107\n      jump\t// in\n    tag_296:\n    tag_295:\n      0x20\n      mul\n      0x20\n      add\n      add\n        /* \"contracts-test/230511-test1-answer.sol\":3820:3847  F_Storage[_num]=students[i] */\n      dup2\n      swap1\n      mstore\n      pop\n        /* \"contracts-test/230511-test1-answer.sol\":3736:3862  if(keccak256(bytes(students[i].credit)) == keccak256(bytes(\"F\"))) {... */\n    tag_273:\n        /* \"contracts-test/230511-test1-answer.sol\":3875:3881  _num++ */\n      dup2\n      dup1\n      tag_297\n      swap1\n      tag_120\n      jump\t// in\n    tag_297:\n      swap3\n      pop\n      pop\n        /* \"contracts-test/230511-test1-answer.sol\":3717:3720  i++ */\n      dup1\n      dup1\n      tag_298\n      swap1\n      tag_120\n      jump\t// in\n    tag_298:\n      swap2\n      pop\n      pop\n        /* \"contracts-test/230511-test1-answer.sol\":3685:3892  for(uint i=0; i<students.length;i++) {... */\n      jump(tag_266)\n    tag_267:\n      pop\n        /* \"contracts-test/230511-test1-answer.sol\":3909:3918  F_Storage */\n      dup2\n        /* \"contracts-test/230511-test1-answer.sol\":3902:3918  return F_Storage */\n      swap4\n      pop\n      pop\n      pop\n      pop\n        /* \"contracts-test/230511-test1-answer.sol\":3347:3925  function FClass() public view returns(Student[] memory) {... */\n      swap1\n      jump\t// out\n        /* \"contracts-test/230511-test1-answer.sol\":2116:2237  function getStudent2(string memory _name) public view returns(Student memory) {... */\n    tag_44:\n        /* \"contracts-test/230511-test1-answer.sol\":2178:2192  Student memory */\n      tag_299\n      tag_94\n      jump\t// in\n    tag_299:\n        /* \"contracts-test/230511-test1-answer.sol\":2211:2223  name_Student */\n      0x01\n        /* \"contracts-test/230511-test1-answer.sol\":2224:2229  _name */\n      dup3\n        /* \"contracts-test/230511-test1-answer.sol\":2211:2230  name_Student[_name] */\n      mload(0x40)\n      tag_301\n      swap2\n      swap1\n      tag_246\n      jump\t// in\n    tag_301:\n      swap1\n      dup2\n      mstore\n      0x20\n      add\n      mload(0x40)\n      dup1\n      swap2\n      sub\n      swap1\n      keccak256\n        /* \"contracts-test/230511-test1-answer.sol\":2204:2230  return name_Student[_name] */\n      mload(0x40)\n      dup1\n      0xa0\n      add\n      0x40\n      mstore\n      swap1\n      dup2\n      0x00\n      dup3\n      add\n      dup1\n      sload\n      tag_302\n      swap1\n      tag_70\n      jump\t// in\n    tag_302:\n      dup1\n      0x1f\n      add\n      0x20\n      dup1\n      swap2\n      div\n      mul\n      0x20\n      add\n      mload(0x40)\n      swap1\n      dup2\n      add\n      0x40\n      mstore\n      dup1\n      swap3\n      swap2\n      swap1\n      dup2\n      dup2\n      mstore\n      0x20\n      add\n      dup3\n      dup1\n      sload\n      tag_303\n      swap1\n      tag_70\n      jump\t// in\n    tag_303:\n      dup1\n      iszero\n      tag_304\n      jumpi\n      dup1\n      0x1f\n      lt\n      tag_305\n      jumpi\n      0x0100\n      dup1\n      dup4\n      sload\n      div\n      mul\n      dup4\n      mstore\n      swap2\n      0x20\n      add\n      swap2\n      jump(tag_304)\n    tag_305:\n      dup3\n      add\n      swap2\n      swap1\n      0x00\n      mstore\n      keccak256(0x00, 0x20)\n      swap1\n    tag_306:\n      dup2\n      sload\n      dup2\n      mstore\n      swap1\n      0x01\n      add\n      swap1\n      0x20\n      add\n      dup1\n      dup4\n      gt\n      tag_306\n      jumpi\n      dup3\n      swap1\n      sub\n      0x1f\n      and\n      dup3\n      add\n      swap2\n    tag_304:\n      pop\n      pop\n      pop\n      pop\n      pop\n      dup2\n      mstore\n      0x20\n      add\n      0x01\n      dup3\n      add\n      sload\n      dup2\n      mstore\n      0x20\n      add\n      0x02\n      dup3\n      add\n      sload\n      dup2\n      mstore\n      0x20\n      add\n      0x03\n      dup3\n      add\n      dup1\n      sload\n      tag_307\n      swap1\n      tag_70\n      jump\t// in\n    tag_307:\n      dup1\n      0x1f\n      add\n      0x20\n      dup1\n      swap2\n      div\n      mul\n      0x20\n      add\n      mload(0x40)\n      swap1\n      dup2\n      add\n      0x40\n      mstore\n      dup1\n      swap3\n      swap2\n      swap1\n      dup2\n      dup2\n      mstore\n      0x20\n      add\n      dup3\n      dup1\n      sload\n      tag_308\n      swap1\n      tag_70\n      jump\t// in\n    tag_308:\n      dup1\n      iszero\n      tag_309\n      jumpi\n      dup1\n      0x1f\n      lt\n      tag_310\n      jumpi\n      0x0100\n      dup1\n      dup4\n      sload\n      div\n      mul\n      dup4\n      mstore\n      swap2\n      0x20\n      add\n      swap2\n      jump(tag_309)\n    tag_310:\n      dup3\n      add\n      swap2\n      swap1\n      0x00\n      mstore\n      keccak256(0x00, 0x20)\n      swap1\n    tag_311:\n      dup2\n      sload\n      dup2\n      mstore\n      swap1\n      0x01\n      add\n      swap1\n      0x20\n      add\n      dup1\n      dup4\n      gt\n      tag_311\n      jumpi\n      dup3\n      swap1\n      sub\n      0x1f\n      and\n      dup3\n      add\n      swap2\n    tag_309:\n      pop\n      pop\n      pop\n      pop\n      pop\n      dup2\n      mstore\n      0x20\n      add\n      0x04\n      dup3\n      add\n      dup1\n      sload\n      dup1\n      0x20\n      mul\n      0x20\n      add\n      mload(0x40)\n      swap1\n      dup2\n      add\n      0x40\n      mstore\n      dup1\n      swap3\n      swap2\n      swap1\n      dup2\n      dup2\n      mstore\n      0x20\n      add\n      0x00\n      swap1\n    tag_312:\n      dup3\n      dup3\n      lt\n      iszero\n      tag_313\n      jumpi\n      dup4\n      dup3\n      swap1\n      0x00\n      mstore\n      keccak256(0x00, 0x20)\n      add\n      dup1\n      sload\n      tag_315\n      swap1\n      tag_70\n      jump\t// in\n    tag_315:\n      dup1\n      0x1f\n      add\n      0x20\n      dup1\n      swap2\n      div\n      mul\n      0x20\n      add\n      mload(0x40)\n      swap1\n      dup2\n      add\n      0x40\n      mstore\n      dup1\n      swap3\n      swap2\n      swap1\n      dup2\n      dup2\n      mstore\n      0x20\n      add\n      dup3\n      dup1\n      sload\n      tag_316\n      swap1\n      tag_70\n      jump\t// in\n    tag_316:\n      dup1\n      iszero\n      tag_317\n      jumpi\n      dup1\n      0x1f\n      lt\n      tag_318\n      jumpi\n      0x0100\n      dup1\n      dup4\n      sload\n      div\n      mul\n      dup4\n      mstore\n      swap2\n      0x20\n      add\n      swap2\n      jump(tag_317)\n    tag_318:\n      dup3\n      add\n      swap2\n      swap1\n      0x00\n      mstore\n      keccak256(0x00, 0x20)\n      swap1\n    tag_319:\n      dup2\n      sload\n      dup2\n      mstore\n      swap1\n      0x01\n      add\n      swap1\n      0x20\n      add\n      dup1\n      dup4\n      gt\n      tag_319\n      jumpi\n      dup3\n      swap1\n      sub\n      0x1f\n      and\n      dup3\n      add\n      swap2\n    tag_317:\n      pop\n      pop\n      pop\n      pop\n      pop\n      dup2\n      mstore\n      0x20\n      add\n      swap1\n      0x01\n      add\n      swap1\n      jump(tag_312)\n    tag_313:\n      pop\n      pop\n      pop\n      pop\n      dup2\n      mstore\n      pop\n      pop\n      swap1\n      pop\n        /* \"contracts-test/230511-test1-answer.sol\":2116:2237  function getStudent2(string memory _name) public view returns(Student memory) {... */\n      swap2\n      swap1\n      pop\n      jump\t// out\n        /* \"contracts-test/230511-test1-answer.sol\":3074:3236  function selfEva() public view returns(bool) {... */\n    tag_47:\n        /* \"contracts-test/230511-test1-answer.sol\":3113:3117  bool */\n      0x00\n        /* \"contracts-test/230511-test1-answer.sol\":3147:3149  70 */\n      0x46\n        /* \"contracts-test/230511-test1-answer.sol\":3132:3144  getAverage() */\n      tag_321\n        /* \"contracts-test/230511-test1-answer.sol\":3132:3142  getAverage */\n      tag_21\n        /* \"contracts-test/230511-test1-answer.sol\":3132:3144  getAverage() */\n      jump\t// in\n    tag_321:\n        /* \"contracts-test/230511-test1-answer.sol\":3132:3149  getAverage() >=70 */\n      lt\n        /* \"contracts-test/230511-test1-answer.sol\":3129:3230  if(getAverage() >=70) {... */\n      tag_322\n      jumpi\n        /* \"contracts-test/230511-test1-answer.sol\":3172:3176  true */\n      0x01\n        /* \"contracts-test/230511-test1-answer.sol\":3165:3176  return true */\n      swap1\n      pop\n      jump(tag_320)\n        /* \"contracts-test/230511-test1-answer.sol\":3129:3230  if(getAverage() >=70) {... */\n    tag_322:\n        /* \"contracts-test/230511-test1-answer.sol\":3214:3219  false */\n      0x00\n        /* \"contracts-test/230511-test1-answer.sol\":3207:3219  return false */\n      swap1\n      pop\n        /* \"contracts-test/230511-test1-answer.sol\":3074:3236  function selfEva() public view returns(bool) {... */\n    tag_320:\n      swap1\n      jump\t// out\n        /* \"contracts-test/230511-test1-answer.sol\":1431:1525  function getStudentsNumber() public view returns(uint) {... */\n    tag_51:\n        /* \"contracts-test/230511-test1-answer.sol\":1480:1484  uint */\n      0x00\n        /* \"contracts-test/230511-test1-answer.sol\":1503:1511  students */\n      dup1\n        /* \"contracts-test/230511-test1-answer.sol\":1503:1518  students.length */\n      dup1\n      sload\n      swap1\n      pop\n        /* \"contracts-test/230511-test1-answer.sol\":1496:1518  return students.length */\n      swap1\n      pop\n        /* \"contracts-test/230511-test1-answer.sol\":1431:1525  function getStudentsNumber() public view returns(uint) {... */\n      swap1\n      jump\t// out\n        /* \"contracts-test/230511-test1-answer.sol\":2353:2474  function getStudentScore(string memory _name) public view returns(uint) {... */\n    tag_55:\n        /* \"contracts-test/230511-test1-answer.sol\":2419:2423  uint */\n      0x00\n        /* \"contracts-test/230511-test1-answer.sol\":2442:2454  name_Student */\n      0x01\n        /* \"contracts-test/230511-test1-answer.sol\":2455:2460  _name */\n      dup3\n        /* \"contracts-test/230511-test1-answer.sol\":2442:2461  name_Student[_name] */\n      mload(0x40)\n      tag_326\n      swap2\n      swap1\n      tag_246\n      jump\t// in\n    tag_326:\n      swap1\n      dup2\n      mstore\n      0x20\n      add\n      mload(0x40)\n      dup1\n      swap2\n      sub\n      swap1\n      keccak256\n        /* \"contracts-test/230511-test1-answer.sol\":2442:2467  name_Student[_name].score */\n      0x02\n      add\n      sload\n        /* \"contracts-test/230511-test1-answer.sol\":2435:2467  return name_Student[_name].score */\n      swap1\n      pop\n        /* \"contracts-test/230511-test1-answer.sol\":2353:2474  function getStudentScore(string memory _name) public view returns(uint) {... */\n      swap2\n      swap1\n      pop\n      jump\t// out\n        /* \"contracts-test/230511-test1-answer.sol\":1630:1726  function getAllStudents() public view returns(Student[] memory) {... */\n    tag_58:\n        /* \"contracts-test/230511-test1-answer.sol\":1676:1692  Student[] memory */\n      0x60\n        /* \"contracts-test/230511-test1-answer.sol\":1711:1719  students */\n      0x00\n        /* \"contracts-test/230511-test1-answer.sol\":1704:1719  return students */\n      dup1\n      sload\n      dup1\n      0x20\n      mul\n      0x20\n      add\n      mload(0x40)\n      swap1\n      dup2\n      add\n      0x40\n      mstore\n      dup1\n      swap3\n      swap2\n      swap1\n      dup2\n      dup2\n      mstore\n      0x20\n      add\n      0x00\n      swap1\n    tag_328:\n      dup3\n      dup3\n      lt\n      iszero\n      tag_329\n      jumpi\n      dup4\n      dup3\n      swap1\n      0x00\n      mstore\n      keccak256(0x00, 0x20)\n      swap1\n      0x05\n      mul\n      add\n      mload(0x40)\n      dup1\n      0xa0\n      add\n      0x40\n      mstore\n      swap1\n      dup2\n      0x00\n      dup3\n      add\n      dup1\n      sload\n      tag_331\n      swap1\n      tag_70\n      jump\t// in\n    tag_331:\n      dup1\n      0x1f\n      add\n      0x20\n      dup1\n      swap2\n      div\n      mul\n      0x20\n      add\n      mload(0x40)\n      swap1\n      dup2\n      add\n      0x40\n      mstore\n      dup1\n      swap3\n      swap2\n      swap1\n      dup2\n      dup2\n      mstore\n      0x20\n      add\n      dup3\n      dup1\n      sload\n      tag_332\n      swap1\n      tag_70\n      jump\t// in\n    tag_332:\n      dup1\n      iszero\n      tag_333\n      jumpi\n      dup1\n      0x1f\n      lt\n      tag_334\n      jumpi\n      0x0100\n      dup1\n      dup4\n      sload\n      div\n      mul\n      dup4\n      mstore\n      swap2\n      0x20\n      add\n      swap2\n      jump(tag_333)\n    tag_334:\n      dup3\n      add\n      swap2\n      swap1\n      0x00\n      mstore\n      keccak256(0x00, 0x20)\n      swap1\n    tag_335:\n      dup2\n      sload\n      dup2\n      mstore\n      swap1\n      0x01\n      add\n      swap1\n      0x20\n      add\n      dup1\n      dup4\n      gt\n      tag_335\n      jumpi\n      dup3\n      swap1\n      sub\n      0x1f\n      and\n      dup3\n      add\n      swap2\n    tag_333:\n      pop\n      pop\n      pop\n      pop\n      pop\n      dup2\n      mstore\n      0x20\n      add\n      0x01\n      dup3\n      add\n      sload\n      dup2\n      mstore\n      0x20\n      add\n      0x02\n      dup3\n      add\n      sload\n      dup2\n      mstore\n      0x20\n      add\n      0x03\n      dup3\n      add\n      dup1\n      sload\n      tag_336\n      swap1\n      tag_70\n      jump\t// in\n    tag_336:\n      dup1\n      0x1f\n      add\n      0x20\n      dup1\n      swap2\n      div\n      mul\n      0x20\n      add\n      mload(0x40)\n      swap1\n      dup2\n      add\n      0x40\n      mstore\n      dup1\n      swap3\n      swap2\n      swap1\n      dup2\n      dup2\n      mstore\n      0x20\n      add\n      dup3\n      dup1\n      sload\n      tag_337\n      swap1\n      tag_70\n      jump\t// in\n    tag_337:\n      dup1\n      iszero\n      tag_338\n      jumpi\n      dup1\n      0x1f\n      lt\n      tag_339\n      jumpi\n      0x0100\n      dup1\n      dup4\n      sload\n      div\n      mul\n      dup4\n      mstore\n      swap2\n      0x20\n      add\n      swap2\n      jump(tag_338)\n    tag_339:\n      dup3\n      add\n      swap2\n      swap1\n      0x00\n      mstore\n      keccak256(0x00, 0x20)\n      swap1\n    tag_340:\n      dup2\n      sload\n      dup2\n      mstore\n      swap1\n      0x01\n      add\n      swap1\n      0x20\n      add\n      dup1\n      dup4\n      gt\n      tag_340\n      jumpi\n      dup3\n      swap1\n      sub\n      0x1f\n      and\n      dup3\n      add\n      swap2\n    tag_338:\n      pop\n      pop\n      pop\n      pop\n      pop\n      dup2\n      mstore\n      0x20\n      add\n      0x04\n      dup3\n      add\n      dup1\n      sload\n      dup1\n      0x20\n      mul\n      0x20\n      add\n      mload(0x40)\n      swap1\n      dup2\n      add\n      0x40\n      mstore\n      dup1\n      swap3\n      swap2\n      swap1\n      dup2\n      dup2\n      mstore\n      0x20\n      add\n      0x00\n      swap1\n    tag_341:\n      dup3\n      dup3\n      lt\n      iszero\n      tag_342\n      jumpi\n      dup4\n      dup3\n      swap1\n      0x00\n      mstore\n      keccak256(0x00, 0x20)\n      add\n      dup1\n      sload\n      tag_344\n      swap1\n      tag_70\n      jump\t// in\n    tag_344:\n      dup1\n      0x1f\n      add\n      0x20\n      dup1\n      swap2\n      div\n      mul\n      0x20\n      add\n      mload(0x40)\n      swap1\n      dup2\n      add\n      0x40\n      mstore\n      dup1\n      swap3\n      swap2\n      swap1\n      dup2\n      dup2\n      mstore\n      0x20\n      add\n      dup3\n      dup1\n      sload\n      tag_345\n      swap1\n      tag_70\n      jump\t// in\n    tag_345:\n      dup1\n      iszero\n      tag_346\n      jumpi\n      dup1\n      0x1f\n      lt\n      tag_347\n      jumpi\n      0x0100\n      dup1\n      dup4\n      sload\n      div\n      mul\n      dup4\n      mstore\n      swap2\n      0x20\n      add\n      swap2\n      jump(tag_346)\n    tag_347:\n      dup3\n      add\n      swap2\n      swap1\n      0x00\n      mstore\n      keccak256(0x00, 0x20)\n      swap1\n    tag_348:\n      dup2\n      sload\n      dup2\n      mstore\n      swap1\n      0x01\n      add\n      swap1\n      0x20\n      add\n      dup1\n      dup4\n      gt\n      tag_348\n      jumpi\n      dup3\n      swap1\n      sub\n      0x1f\n      and\n      dup3\n      add\n      swap2\n    tag_346:\n      pop\n      pop\n      pop\n      pop\n      pop\n      dup2\n      mstore\n      0x20\n      add\n      swap1\n      0x01\n      add\n      swap1\n      jump(tag_341)\n    tag_342:\n      pop\n      pop\n      pop\n      pop\n      dup2\n      mstore\n      pop\n      pop\n      dup2\n      mstore\n      0x20\n      add\n      swap1\n      0x01\n      add\n      swap1\n      jump(tag_328)\n    tag_329:\n      pop\n      pop\n      pop\n      pop\n      swap1\n      pop\n        /* \"contracts-test/230511-test1-answer.sol\":1630:1726  function getAllStudents() public view returns(Student[] memory) {... */\n      swap1\n      jump\t// out\n        /* \"contracts-test/230511-test1-answer.sol\":507:851  function setCredit(uint _score) public pure returns(string memory) {... */\n    tag_62:\n        /* \"contracts-test/230511-test1-answer.sol\":559:572  string memory */\n      0x60\n        /* \"contracts-test/230511-test1-answer.sol\":596:598  90 */\n      0x5a\n        /* \"contracts-test/230511-test1-answer.sol\":587:593  _score */\n      dup3\n        /* \"contracts-test/230511-test1-answer.sol\":587:598  _score >=90 */\n      lt\n        /* \"contracts-test/230511-test1-answer.sol\":584:845  if(_score >=90) {... */\n      tag_350\n      jumpi\n        /* \"contracts-test/230511-test1-answer.sol\":614:624  return \"A\" */\n      mload(0x40)\n      dup1\n      0x40\n      add\n      0x40\n      mstore\n      dup1\n      0x01\n      dup2\n      mstore\n      0x20\n      add\n      0x4100000000000000000000000000000000000000000000000000000000000000\n      dup2\n      mstore\n      pop\n      swap1\n      pop\n      jump(tag_349)\n        /* \"contracts-test/230511-test1-answer.sol\":584:845  if(_score >=90) {... */\n    tag_350:\n        /* \"contracts-test/230511-test1-answer.sol\":653:655  80 */\n      0x50\n        /* \"contracts-test/230511-test1-answer.sol\":644:650  _score */\n      dup3\n        /* \"contracts-test/230511-test1-answer.sol\":644:655  _score >=80 */\n      lt\n        /* \"contracts-test/230511-test1-answer.sol\":641:845  if(_score >=80) {... */\n      tag_352\n      jumpi\n        /* \"contracts-test/230511-test1-answer.sol\":671:681  return \"B\" */\n      mload(0x40)\n      dup1\n      0x40\n      add\n      0x40\n      mstore\n      dup1\n      0x01\n      dup2\n      mstore\n      0x20\n      add\n      0x4200000000000000000000000000000000000000000000000000000000000000\n      dup2\n      mstore\n      pop\n      swap1\n      pop\n      jump(tag_349)\n        /* \"contracts-test/230511-test1-answer.sol\":641:845  if(_score >=80) {... */\n    tag_352:\n        /* \"contracts-test/230511-test1-answer.sol\":710:712  70 */\n      0x46\n        /* \"contracts-test/230511-test1-answer.sol\":701:707  _score */\n      dup3\n        /* \"contracts-test/230511-test1-answer.sol\":701:712  _score >=70 */\n      lt\n        /* \"contracts-test/230511-test1-answer.sol\":698:845  if(_score >=70) {... */\n      tag_354\n      jumpi\n        /* \"contracts-test/230511-test1-answer.sol\":728:738  return \"C\" */\n      mload(0x40)\n      dup1\n      0x40\n      add\n      0x40\n      mstore\n      dup1\n      0x01\n      dup2\n      mstore\n      0x20\n      add\n      0x4300000000000000000000000000000000000000000000000000000000000000\n      dup2\n      mstore\n      pop\n      swap1\n      pop\n      jump(tag_349)\n        /* \"contracts-test/230511-test1-answer.sol\":698:845  if(_score >=70) {... */\n    tag_354:\n        /* \"contracts-test/230511-test1-answer.sol\":766:768  60 */\n      0x3c\n        /* \"contracts-test/230511-test1-answer.sol\":757:763  _score */\n      dup3\n        /* \"contracts-test/230511-test1-answer.sol\":757:768  _score >=60 */\n      lt\n        /* \"contracts-test/230511-test1-answer.sol\":754:845  if(_score >=60) {... */\n      tag_356\n      jumpi\n        /* \"contracts-test/230511-test1-answer.sol\":784:794  return \"D\" */\n      mload(0x40)\n      dup1\n      0x40\n      add\n      0x40\n      mstore\n      dup1\n      0x01\n      dup2\n      mstore\n      0x20\n      add\n      0x4400000000000000000000000000000000000000000000000000000000000000\n      dup2\n      mstore\n      pop\n      swap1\n      pop\n      jump(tag_349)\n        /* \"contracts-test/230511-test1-answer.sol\":754:845  if(_score >=60) {... */\n    tag_356:\n        /* \"contracts-test/230511-test1-answer.sol\":824:834  return \"F\" */\n      mload(0x40)\n      dup1\n      0x40\n      add\n      0x40\n      mstore\n      dup1\n      0x01\n      dup2\n      mstore\n      0x20\n      add\n      0x4600000000000000000000000000000000000000000000000000000000000000\n      dup2\n      mstore\n      pop\n      swap1\n      pop\n        /* \"contracts-test/230511-test1-answer.sol\":507:851  function setCredit(uint _score) public pure returns(string memory) {... */\n    tag_349:\n      swap2\n      swap1\n      pop\n      jump\t// out\n    tag_94:\n      mload(0x40)\n      dup1\n      0xa0\n      add\n      0x40\n      mstore\n      dup1\n      0x60\n      dup2\n      mstore\n      0x20\n      add\n      0x00\n      dup2\n      mstore\n      0x20\n      add\n      0x00\n      dup2\n      mstore\n      0x20\n      add\n      0x60\n      dup2\n      mstore\n      0x20\n      add\n      0x60\n      dup2\n      mstore\n      pop\n      swap1\n      jump\t// out\n    tag_243:\n      dup3\n      dup1\n      sload\n      dup3\n      dup3\n      sstore\n      swap1\n      0x00\n      mstore\n      keccak256(0x00, 0x20)\n      swap1\n      dup2\n      add\n      swap3\n      dup3\n      iszero\n      tag_358\n      jumpi\n      swap2\n      0x20\n      mul\n      dup3\n      add\n    tag_359:\n      dup3\n      dup2\n      gt\n      iszero\n      tag_360\n      jumpi\n      dup3\n      mload\n      dup3\n      swap1\n      dup2\n      tag_361\n      swap2\n      swap1\n      tag_240\n      jump\t// in\n    tag_361:\n      pop\n      swap2\n      0x20\n      add\n      swap2\n      swap1\n      0x01\n      add\n      swap1\n      jump(tag_359)\n    tag_360:\n    tag_358:\n      pop\n      swap1\n      pop\n      tag_362\n      swap2\n      swap1\n      tag_363\n      jump\t// in\n    tag_362:\n      pop\n      swap1\n      jump\t// out\n    tag_363:\n    tag_364:\n      dup1\n      dup3\n      gt\n      iszero\n      tag_365\n      jumpi\n      0x00\n      dup2\n      dup2\n      tag_366\n      swap2\n      swap1\n      tag_367\n      jump\t// in\n    tag_366:\n      pop\n      0x01\n      add\n      jump(tag_364)\n    tag_365:\n      pop\n      swap1\n      jump\t// out\n    tag_367:\n      pop\n      dup1\n      sload\n      tag_368\n      swap1\n      tag_70\n      jump\t// in\n    tag_368:\n      0x00\n      dup3\n      sstore\n      dup1\n      0x1f\n      lt\n      tag_370\n      jumpi\n      pop\n      jump(tag_369)\n    tag_370:\n      0x1f\n      add\n      0x20\n      swap1\n      div\n      swap1\n      0x00\n      mstore\n      keccak256(0x00, 0x20)\n      swap1\n      dup2\n      add\n      swap1\n      tag_371\n      swap2\n      swap1\n      tag_372\n      jump\t// in\n    tag_371:\n    tag_369:\n      pop\n      jump\t// out\n    tag_372:\n    tag_373:\n      dup1\n      dup3\n      gt\n      iszero\n      tag_374\n      jumpi\n      0x00\n      dup2\n      0x00\n      swap1\n      sstore\n      pop\n      0x01\n      add\n      jump(tag_373)\n    tag_374:\n      pop\n      swap1\n      jump\t// out\n        /* \"#utility.yul\":7:144   */\n    tag_375:\n        /* \"#utility.yul\":97:103   */\n      0x00\n        /* \"#utility.yul\":131:136   */\n      dup2\n        /* \"#utility.yul\":125:137   */\n      mload\n        /* \"#utility.yul\":115:137   */\n      swap1\n      pop\n        /* \"#utility.yul\":7:144   */\n      swap2\n      swap1\n      pop\n      jump\t// out\n        /* \"#utility.yul\":150:357   */\n    tag_376:\n        /* \"#utility.yul\":272:283   */\n      0x00\n        /* \"#utility.yul\":306:312   */\n      dup3\n        /* \"#utility.yul\":301:304   */\n      dup3\n        /* \"#utility.yul\":294:313   */\n      mstore\n        /* \"#utility.yul\":346:350   */\n      0x20\n        /* \"#utility.yul\":341:344   */\n      dup3\n        /* \"#utility.yul\":337:351   */\n      add\n        /* \"#utility.yul\":322:351   */\n      swap1\n      pop\n        /* \"#utility.yul\":150:357   */\n      swap3\n      swap2\n      pop\n      pop\n      jump\t// out\n        /* \"#utility.yul\":363:518   */\n    tag_377:\n        /* \"#utility.yul\":453:457   */\n      0x00\n        /* \"#utility.yul\":476:479   */\n      dup2\n        /* \"#utility.yul\":468:479   */\n      swap1\n      pop\n        /* \"#utility.yul\":506:510   */\n      0x20\n        /* \"#utility.yul\":501:504   */\n      dup3\n        /* \"#utility.yul\":497:511   */\n      add\n        /* \"#utility.yul\":489:511   */\n      swap1\n      pop\n        /* \"#utility.yul\":363:518   */\n      swap2\n      swap1\n      pop\n      jump\t// out\n        /* \"#utility.yul\":524:623   */\n    tag_378:\n        /* \"#utility.yul\":576:582   */\n      0x00\n        /* \"#utility.yul\":610:615   */\n      dup2\n        /* \"#utility.yul\":604:616   */\n      mload\n        /* \"#utility.yul\":594:616   */\n      swap1\n      pop\n        /* \"#utility.yul\":524:623   */\n      swap2\n      swap1\n      pop\n      jump\t// out\n        /* \"#utility.yul\":629:788   */\n    tag_379:\n        /* \"#utility.yul\":703:714   */\n      0x00\n        /* \"#utility.yul\":737:743   */\n      dup3\n        /* \"#utility.yul\":732:735   */\n      dup3\n        /* \"#utility.yul\":725:744   */\n      mstore\n        /* \"#utility.yul\":777:781   */\n      0x20\n        /* \"#utility.yul\":772:775   */\n      dup3\n        /* \"#utility.yul\":768:782   */\n      add\n        /* \"#utility.yul\":753:782   */\n      swap1\n      pop\n        /* \"#utility.yul\":629:788   */\n      swap3\n      swap2\n      pop\n      pop\n      jump\t// out\n        /* \"#utility.yul\":794:1040   */\n    tag_380:\n        /* \"#utility.yul\":875:876   */\n      0x00\n        /* \"#utility.yul\":885:998   */\n    tag_448:\n        /* \"#utility.yul\":899:905   */\n      dup4\n        /* \"#utility.yul\":896:897   */\n      dup2\n        /* \"#utility.yul\":893:906   */\n      lt\n        /* \"#utility.yul\":885:998   */\n      iszero\n      tag_450\n      jumpi\n        /* \"#utility.yul\":984:985   */\n      dup1\n        /* \"#utility.yul\":979:982   */\n      dup3\n        /* \"#utility.yul\":975:986   */\n      add\n        /* \"#utility.yul\":969:987   */\n      mload\n        /* \"#utility.yul\":965:966   */\n      dup2\n        /* \"#utility.yul\":960:963   */\n      dup5\n        /* \"#utility.yul\":956:967   */\n      add\n        /* \"#utility.yul\":949:988   */\n      mstore\n        /* \"#utility.yul\":921:923   */\n      0x20\n        /* \"#utility.yul\":918:919   */\n      dup2\n        /* \"#utility.yul\":914:924   */\n      add\n        /* \"#utility.yul\":909:924   */\n      swap1\n      pop\n        /* \"#utility.yul\":885:998   */\n      jump(tag_448)\n    tag_450:\n        /* \"#utility.yul\":1032:1033   */\n      0x00\n        /* \"#utility.yul\":1023:1029   */\n      dup5\n        /* \"#utility.yul\":1018:1021   */\n      dup5\n        /* \"#utility.yul\":1014:1030   */\n      add\n        /* \"#utility.yul\":1007:1034   */\n      mstore\n        /* \"#utility.yul\":856:1040   */\n      pop\n        /* \"#utility.yul\":794:1040   */\n      pop\n      pop\n      pop\n      jump\t// out\n        /* \"#utility.yul\":1046:1148   */\n    tag_381:\n        /* \"#utility.yul\":1087:1093   */\n      0x00\n        /* \"#utility.yul\":1138:1140   */\n      0x1f\n        /* \"#utility.yul\":1134:1141   */\n      not\n        /* \"#utility.yul\":1129:1131   */\n      0x1f\n        /* \"#utility.yul\":1122:1127   */\n      dup4\n        /* \"#utility.yul\":1118:1132   */\n      add\n        /* \"#utility.yul\":1114:1142   */\n      and\n        /* \"#utility.yul\":1104:1142   */\n      swap1\n      pop\n        /* \"#utility.yul\":1046:1148   */\n      swap2\n      swap1\n      pop\n      jump\t// out\n        /* \"#utility.yul\":1154:1511   */\n    tag_382:\n        /* \"#utility.yul\":1232:1235   */\n      0x00\n        /* \"#utility.yul\":1260:1299   */\n      tag_453\n        /* \"#utility.yul\":1293:1298   */\n      dup3\n        /* \"#utility.yul\":1260:1299   */\n      tag_378\n      jump\t// in\n    tag_453:\n        /* \"#utility.yul\":1315:1376   */\n      tag_454\n        /* \"#utility.yul\":1369:1375   */\n      dup2\n        /* \"#utility.yul\":1364:1367   */\n      dup6\n        /* \"#utility.yul\":1315:1376   */\n      tag_379\n      jump\t// in\n    tag_454:\n        /* \"#utility.yul\":1308:1376   */\n      swap4\n      pop\n        /* \"#utility.yul\":1385:1450   */\n      tag_455\n        /* \"#utility.yul\":1443:1449   */\n      dup2\n        /* \"#utility.yul\":1438:1441   */\n      dup6\n        /* \"#utility.yul\":1431:1435   */\n      0x20\n        /* \"#utility.yul\":1424:1429   */\n      dup7\n        /* \"#utility.yul\":1420:1436   */\n      add\n        /* \"#utility.yul\":1385:1450   */\n      tag_380\n      jump\t// in\n    tag_455:\n        /* \"#utility.yul\":1475:1504   */\n      tag_456\n        /* \"#utility.yul\":1497:1503   */\n      dup2\n        /* \"#utility.yul\":1475:1504   */\n      tag_381\n      jump\t// in\n    tag_456:\n        /* \"#utility.yul\":1470:1473   */\n      dup5\n        /* \"#utility.yul\":1466:1505   */\n      add\n        /* \"#utility.yul\":1459:1505   */\n      swap2\n      pop\n        /* \"#utility.yul\":1236:1511   */\n      pop\n        /* \"#utility.yul\":1154:1511   */\n      swap3\n      swap2\n      pop\n      pop\n      jump\t// out\n        /* \"#utility.yul\":1517:1594   */\n    tag_383:\n        /* \"#utility.yul\":1554:1561   */\n      0x00\n        /* \"#utility.yul\":1583:1588   */\n      dup2\n        /* \"#utility.yul\":1572:1588   */\n      swap1\n      pop\n        /* \"#utility.yul\":1517:1594   */\n      swap2\n      swap1\n      pop\n      jump\t// out\n        /* \"#utility.yul\":1600:1708   */\n    tag_384:\n        /* \"#utility.yul\":1677:1701   */\n      tag_459\n        /* \"#utility.yul\":1695:1700   */\n      dup2\n        /* \"#utility.yul\":1677:1701   */\n      tag_383\n      jump\t// in\n    tag_459:\n        /* \"#utility.yul\":1672:1675   */\n      dup3\n        /* \"#utility.yul\":1665:1702   */\n      mstore\n        /* \"#utility.yul\":1600:1708   */\n      pop\n      pop\n      jump\t// out\n        /* \"#utility.yul\":1714:1838   */\n    tag_385:\n        /* \"#utility.yul\":1791:1797   */\n      0x00\n        /* \"#utility.yul\":1825:1830   */\n      dup2\n        /* \"#utility.yul\":1819:1831   */\n      mload\n        /* \"#utility.yul\":1809:1831   */\n      swap1\n      pop\n        /* \"#utility.yul\":1714:1838   */\n      swap2\n      swap1\n      pop\n      jump\t// out\n        /* \"#utility.yul\":1844:2028   */\n    tag_386:\n        /* \"#utility.yul\":1943:1954   */\n      0x00\n        /* \"#utility.yul\":1977:1983   */\n      dup3\n        /* \"#utility.yul\":1972:1975   */\n      dup3\n        /* \"#utility.yul\":1965:1984   */\n      mstore\n        /* \"#utility.yul\":2017:2021   */\n      0x20\n        /* \"#utility.yul\":2012:2015   */\n      dup3\n        /* \"#utility.yul\":2008:2022   */\n      add\n        /* \"#utility.yul\":1993:2022   */\n      swap1\n      pop\n        /* \"#utility.yul\":1844:2028   */\n      swap3\n      swap2\n      pop\n      pop\n      jump\t// out\n        /* \"#utility.yul\":2034:2176   */\n    tag_387:\n        /* \"#utility.yul\":2111:2115   */\n      0x00\n        /* \"#utility.yul\":2134:2137   */\n      dup2\n        /* \"#utility.yul\":2126:2137   */\n      swap1\n      pop\n        /* \"#utility.yul\":2164:2168   */\n      0x20\n        /* \"#utility.yul\":2159:2162   */\n      dup3\n        /* \"#utility.yul\":2155:2169   */\n      add\n        /* \"#utility.yul\":2147:2169   */\n      swap1\n      pop\n        /* \"#utility.yul\":2034:2176   */\n      swap2\n      swap1\n      pop\n      jump\t// out\n        /* \"#utility.yul\":2182:2378   */\n    tag_388:\n        /* \"#utility.yul\":2271:2281   */\n      0x00\n        /* \"#utility.yul\":2306:2372   */\n      tag_464\n        /* \"#utility.yul\":2368:2371   */\n      dup4\n        /* \"#utility.yul\":2360:2366   */\n      dup4\n        /* \"#utility.yul\":2306:2372   */\n      tag_382\n      jump\t// in\n    tag_464:\n        /* \"#utility.yul\":2292:2372   */\n      swap1\n      pop\n        /* \"#utility.yul\":2182:2378   */\n      swap3\n      swap2\n      pop\n      pop\n      jump\t// out\n        /* \"#utility.yul\":2384:2507   */\n    tag_389:\n        /* \"#utility.yul\":2464:2468   */\n      0x00\n        /* \"#utility.yul\":2496:2500   */\n      0x20\n        /* \"#utility.yul\":2491:2494   */\n      dup3\n        /* \"#utility.yul\":2487:2501   */\n      add\n        /* \"#utility.yul\":2479:2501   */\n      swap1\n      pop\n        /* \"#utility.yul\":2384:2507   */\n      swap2\n      swap1\n      pop\n      jump\t// out\n        /* \"#utility.yul\":2541:3512   */\n    tag_390:\n        /* \"#utility.yul\":2670:2673   */\n      0x00\n        /* \"#utility.yul\":2699:2763   */\n      tag_467\n        /* \"#utility.yul\":2757:2762   */\n      dup3\n        /* \"#utility.yul\":2699:2763   */\n      tag_385\n      jump\t// in\n    tag_467:\n        /* \"#utility.yul\":2779:2865   */\n      tag_468\n        /* \"#utility.yul\":2858:2864   */\n      dup2\n        /* \"#utility.yul\":2853:2856   */\n      dup6\n        /* \"#utility.yul\":2779:2865   */\n      tag_386\n      jump\t// in\n    tag_468:\n        /* \"#utility.yul\":2772:2865   */\n      swap4\n      pop\n        /* \"#utility.yul\":2891:2894   */\n      dup4\n        /* \"#utility.yul\":2936:2940   */\n      0x20\n        /* \"#utility.yul\":2928:2934   */\n      dup3\n        /* \"#utility.yul\":2924:2941   */\n      mul\n        /* \"#utility.yul\":2919:2922   */\n      dup6\n        /* \"#utility.yul\":2915:2942   */\n      add\n        /* \"#utility.yul\":2966:3032   */\n      tag_469\n        /* \"#utility.yul\":3026:3031   */\n      dup6\n        /* \"#utility.yul\":2966:3032   */\n      tag_387\n      jump\t// in\n    tag_469:\n        /* \"#utility.yul\":3055:3062   */\n      dup1\n        /* \"#utility.yul\":3086:3087   */\n      0x00\n        /* \"#utility.yul\":3071:3467   */\n    tag_470:\n        /* \"#utility.yul\":3096:3102   */\n      dup6\n        /* \"#utility.yul\":3093:3094   */\n      dup2\n        /* \"#utility.yul\":3090:3103   */\n      lt\n        /* \"#utility.yul\":3071:3467   */\n      iszero\n      tag_472\n      jumpi\n        /* \"#utility.yul\":3167:3176   */\n      dup5\n        /* \"#utility.yul\":3161:3165   */\n      dup5\n        /* \"#utility.yul\":3157:3177   */\n      sub\n        /* \"#utility.yul\":3152:3155   */\n      dup10\n        /* \"#utility.yul\":3145:3178   */\n      mstore\n        /* \"#utility.yul\":3218:3224   */\n      dup2\n        /* \"#utility.yul\":3212:3225   */\n      mload\n        /* \"#utility.yul\":3246:3330   */\n      tag_473\n        /* \"#utility.yul\":3325:3329   */\n      dup6\n        /* \"#utility.yul\":3310:3323   */\n      dup3\n        /* \"#utility.yul\":3246:3330   */\n      tag_388\n      jump\t// in\n    tag_473:\n        /* \"#utility.yul\":3238:3330   */\n      swap5\n      pop\n        /* \"#utility.yul\":3353:3423   */\n      tag_474\n        /* \"#utility.yul\":3416:3422   */\n      dup4\n        /* \"#utility.yul\":3353:3423   */\n      tag_389\n      jump\t// in\n    tag_474:\n        /* \"#utility.yul\":3343:3423   */\n      swap3\n      pop\n        /* \"#utility.yul\":3452:3456   */\n      0x20\n        /* \"#utility.yul\":3447:3450   */\n      dup11\n        /* \"#utility.yul\":3443:3457   */\n      add\n        /* \"#utility.yul\":3436:3457   */\n      swap10\n      pop\n        /* \"#utility.yul\":3131:3467   */\n      pop\n        /* \"#utility.yul\":3118:3119   */\n      0x01\n        /* \"#utility.yul\":3115:3116   */\n      dup2\n        /* \"#utility.yul\":3111:3120   */\n      add\n        /* \"#utility.yul\":3106:3120   */\n      swap1\n      pop\n        /* \"#utility.yul\":3071:3467   */\n      jump(tag_470)\n    tag_472:\n        /* \"#utility.yul\":3075:3089   */\n      pop\n        /* \"#utility.yul\":3483:3487   */\n      dup3\n        /* \"#utility.yul\":3476:3487   */\n      swap8\n      pop\n        /* \"#utility.yul\":3503:3506   */\n      dup8\n        /* \"#utility.yul\":3496:3506   */\n      swap6\n      pop\n        /* \"#utility.yul\":2675:3512   */\n      pop\n      pop\n      pop\n      pop\n      pop\n        /* \"#utility.yul\":2541:3512   */\n      swap3\n      swap2\n      pop\n      pop\n      jump\t// out\n        /* \"#utility.yul\":3570:4884   */\n    tag_391:\n        /* \"#utility.yul\":3675:3678   */\n      0x00\n        /* \"#utility.yul\":3711:3715   */\n      0xa0\n        /* \"#utility.yul\":3706:3709   */\n      dup4\n        /* \"#utility.yul\":3702:3716   */\n      add\n        /* \"#utility.yul\":3798:3802   */\n      0x00\n        /* \"#utility.yul\":3791:3796   */\n      dup4\n        /* \"#utility.yul\":3787:3803   */\n      add\n        /* \"#utility.yul\":3781:3804   */\n      mload\n        /* \"#utility.yul\":3851:3854   */\n      dup5\n        /* \"#utility.yul\":3845:3849   */\n      dup3\n        /* \"#utility.yul\":3841:3855   */\n      sub\n        /* \"#utility.yul\":3834:3838   */\n      0x00\n        /* \"#utility.yul\":3829:3832   */\n      dup7\n        /* \"#utility.yul\":3825:3839   */\n      add\n        /* \"#utility.yul\":3818:3856   */\n      mstore\n        /* \"#utility.yul\":3877:3950   */\n      tag_476\n        /* \"#utility.yul\":3945:3949   */\n      dup3\n        /* \"#utility.yul\":3931:3943   */\n      dup3\n        /* \"#utility.yul\":3877:3950   */\n      tag_382\n      jump\t// in\n    tag_476:\n        /* \"#utility.yul\":3869:3950   */\n      swap2\n      pop\n        /* \"#utility.yul\":3726:3961   */\n      pop\n        /* \"#utility.yul\":4045:4049   */\n      0x20\n        /* \"#utility.yul\":4038:4043   */\n      dup4\n        /* \"#utility.yul\":4034:4050   */\n      add\n        /* \"#utility.yul\":4028:4051   */\n      mload\n        /* \"#utility.yul\":4064:4127   */\n      tag_477\n        /* \"#utility.yul\":4121:4125   */\n      0x20\n        /* \"#utility.yul\":4116:4119   */\n      dup7\n        /* \"#utility.yul\":4112:4126   */\n      add\n        /* \"#utility.yul\":4098:4110   */\n      dup3\n        /* \"#utility.yul\":4064:4127   */\n      tag_384\n      jump\t// in\n    tag_477:\n        /* \"#utility.yul\":3971:4137   */\n      pop\n        /* \"#utility.yul\":4220:4224   */\n      0x40\n        /* \"#utility.yul\":4213:4218   */\n      dup4\n        /* \"#utility.yul\":4209:4225   */\n      add\n        /* \"#utility.yul\":4203:4226   */\n      mload\n        /* \"#utility.yul\":4239:4302   */\n      tag_478\n        /* \"#utility.yul\":4296:4300   */\n      0x40\n        /* \"#utility.yul\":4291:4294   */\n      dup7\n        /* \"#utility.yul\":4287:4301   */\n      add\n        /* \"#utility.yul\":4273:4285   */\n      dup3\n        /* \"#utility.yul\":4239:4302   */\n      tag_384\n      jump\t// in\n    tag_478:\n        /* \"#utility.yul\":4147:4312   */\n      pop\n        /* \"#utility.yul\":4396:4400   */\n      0x60\n        /* \"#utility.yul\":4389:4394   */\n      dup4\n        /* \"#utility.yul\":4385:4401   */\n      add\n        /* \"#utility.yul\":4379:4402   */\n      mload\n        /* \"#utility.yul\":4449:4452   */\n      dup5\n        /* \"#utility.yul\":4443:4447   */\n      dup3\n        /* \"#utility.yul\":4439:4453   */\n      sub\n        /* \"#utility.yul\":4432:4436   */\n      0x60\n        /* \"#utility.yul\":4427:4430   */\n      dup7\n        /* \"#utility.yul\":4423:4437   */\n      add\n        /* \"#utility.yul\":4416:4454   */\n      mstore\n        /* \"#utility.yul\":4475:4548   */\n      tag_479\n        /* \"#utility.yul\":4543:4547   */\n      dup3\n        /* \"#utility.yul\":4529:4541   */\n      dup3\n        /* \"#utility.yul\":4475:4548   */\n      tag_382\n      jump\t// in\n    tag_479:\n        /* \"#utility.yul\":4467:4548   */\n      swap2\n      pop\n        /* \"#utility.yul\":4322:4559   */\n      pop\n        /* \"#utility.yul\":4644:4648   */\n      0x80\n        /* \"#utility.yul\":4637:4642   */\n      dup4\n        /* \"#utility.yul\":4633:4649   */\n      add\n        /* \"#utility.yul\":4627:4650   */\n      mload\n        /* \"#utility.yul\":4697:4700   */\n      dup5\n        /* \"#utility.yul\":4691:4695   */\n      dup3\n        /* \"#utility.yul\":4687:4701   */\n      sub\n        /* \"#utility.yul\":4680:4684   */\n      0x80\n        /* \"#utility.yul\":4675:4678   */\n      dup7\n        /* \"#utility.yul\":4671:4685   */\n      add\n        /* \"#utility.yul\":4664:4702   */\n      mstore\n        /* \"#utility.yul\":4723:4846   */\n      tag_480\n        /* \"#utility.yul\":4841:4845   */\n      dup3\n        /* \"#utility.yul\":4827:4839   */\n      dup3\n        /* \"#utility.yul\":4723:4846   */\n      tag_390\n      jump\t// in\n    tag_480:\n        /* \"#utility.yul\":4715:4846   */\n      swap2\n      pop\n        /* \"#utility.yul\":4569:4857   */\n      pop\n        /* \"#utility.yul\":4874:4878   */\n      dup1\n        /* \"#utility.yul\":4867:4878   */\n      swap2\n      pop\n        /* \"#utility.yul\":3680:4884   */\n      pop\n        /* \"#utility.yul\":3570:4884   */\n      swap3\n      swap2\n      pop\n      pop\n      jump\t// out\n        /* \"#utility.yul\":4890:5138   */\n    tag_392:\n        /* \"#utility.yul\":5005:5015   */\n      0x00\n        /* \"#utility.yul\":5040:5132   */\n      tag_482\n        /* \"#utility.yul\":5128:5131   */\n      dup4\n        /* \"#utility.yul\":5120:5126   */\n      dup4\n        /* \"#utility.yul\":5040:5132   */\n      tag_391\n      jump\t// in\n    tag_482:\n        /* \"#utility.yul\":5026:5132   */\n      swap1\n      pop\n        /* \"#utility.yul\":4890:5138   */\n      swap3\n      swap2\n      pop\n      pop\n      jump\t// out\n        /* \"#utility.yul\":5144:5280   */\n    tag_393:\n        /* \"#utility.yul\":5237:5241   */\n      0x00\n        /* \"#utility.yul\":5269:5273   */\n      0x20\n        /* \"#utility.yul\":5264:5267   */\n      dup3\n        /* \"#utility.yul\":5260:5274   */\n      add\n        /* \"#utility.yul\":5252:5274   */\n      swap1\n      pop\n        /* \"#utility.yul\":5144:5280   */\n      swap2\n      swap1\n      pop\n      jump\t// out\n        /* \"#utility.yul\":5342:6437   */\n    tag_394:\n        /* \"#utility.yul\":5507:5510   */\n      0x00\n        /* \"#utility.yul\":5536:5613   */\n      tag_485\n        /* \"#utility.yul\":5607:5612   */\n      dup3\n        /* \"#utility.yul\":5536:5613   */\n      tag_375\n      jump\t// in\n    tag_485:\n        /* \"#utility.yul\":5629:5738   */\n      tag_486\n        /* \"#utility.yul\":5731:5737   */\n      dup2\n        /* \"#utility.yul\":5726:5729   */\n      dup6\n        /* \"#utility.yul\":5629:5738   */\n      tag_376\n      jump\t// in\n    tag_486:\n        /* \"#utility.yul\":5622:5738   */\n      swap4\n      pop\n        /* \"#utility.yul\":5764:5767   */\n      dup4\n        /* \"#utility.yul\":5809:5813   */\n      0x20\n        /* \"#utility.yul\":5801:5807   */\n      dup3\n        /* \"#utility.yul\":5797:5814   */\n      mul\n        /* \"#utility.yul\":5792:5795   */\n      dup6\n        /* \"#utility.yul\":5788:5815   */\n      add\n        /* \"#utility.yul\":5839:5918   */\n      tag_487\n        /* \"#utility.yul\":5912:5917   */\n      dup6\n        /* \"#utility.yul\":5839:5918   */\n      tag_377\n      jump\t// in\n    tag_487:\n        /* \"#utility.yul\":5941:5948   */\n      dup1\n        /* \"#utility.yul\":5972:5973   */\n      0x00\n        /* \"#utility.yul\":5957:6392   */\n    tag_488:\n        /* \"#utility.yul\":5982:5988   */\n      dup6\n        /* \"#utility.yul\":5979:5980   */\n      dup2\n        /* \"#utility.yul\":5976:5989   */\n      lt\n        /* \"#utility.yul\":5957:6392   */\n      iszero\n      tag_490\n      jumpi\n        /* \"#utility.yul\":6053:6062   */\n      dup5\n        /* \"#utility.yul\":6047:6051   */\n      dup5\n        /* \"#utility.yul\":6043:6063   */\n      sub\n        /* \"#utility.yul\":6038:6041   */\n      dup10\n        /* \"#utility.yul\":6031:6064   */\n      mstore\n        /* \"#utility.yul\":6104:6110   */\n      dup2\n        /* \"#utility.yul\":6098:6111   */\n      mload\n        /* \"#utility.yul\":6132:6242   */\n      tag_491\n        /* \"#utility.yul\":6237:6241   */\n      dup6\n        /* \"#utility.yul\":6222:6235   */\n      dup3\n        /* \"#utility.yul\":6132:6242   */\n      tag_392\n      jump\t// in\n    tag_491:\n        /* \"#utility.yul\":6124:6242   */\n      swap5\n      pop\n        /* \"#utility.yul\":6265:6348   */\n      tag_492\n        /* \"#utility.yul\":6341:6347   */\n      dup4\n        /* \"#utility.yul\":6265:6348   */\n      tag_393\n      jump\t// in\n    tag_492:\n        /* \"#utility.yul\":6255:6348   */\n      swap3\n      pop\n        /* \"#utility.yul\":6377:6381   */\n      0x20\n        /* \"#utility.yul\":6372:6375   */\n      dup11\n        /* \"#utility.yul\":6368:6382   */\n      add\n        /* \"#utility.yul\":6361:6382   */\n      swap10\n      pop\n        /* \"#utility.yul\":6017:6392   */\n      pop\n        /* \"#utility.yul\":6004:6005   */\n      0x01\n        /* \"#utility.yul\":6001:6002   */\n      dup2\n        /* \"#utility.yul\":5997:6006   */\n      add\n        /* \"#utility.yul\":5992:6006   */\n      swap1\n      pop\n        /* \"#utility.yul\":5957:6392   */\n      jump(tag_488)\n    tag_490:\n        /* \"#utility.yul\":5961:5975   */\n      pop\n        /* \"#utility.yul\":6408:6412   */\n      dup3\n        /* \"#utility.yul\":6401:6412   */\n      swap8\n      pop\n        /* \"#utility.yul\":6428:6431   */\n      dup8\n        /* \"#utility.yul\":6421:6431   */\n      swap6\n      pop\n        /* \"#utility.yul\":5512:6437   */\n      pop\n      pop\n      pop\n      pop\n      pop\n        /* \"#utility.yul\":5342:6437   */\n      swap3\n      swap2\n      pop\n      pop\n      jump\t// out\n        /* \"#utility.yul\":6443:6908   */\n    tag_19:\n        /* \"#utility.yul\":6632:6636   */\n      0x00\n        /* \"#utility.yul\":6670:6672   */\n      0x20\n        /* \"#utility.yul\":6659:6668   */\n      dup3\n        /* \"#utility.yul\":6655:6673   */\n      add\n        /* \"#utility.yul\":6647:6673   */\n      swap1\n      pop\n        /* \"#utility.yul\":6719:6728   */\n      dup2\n        /* \"#utility.yul\":6713:6717   */\n      dup2\n        /* \"#utility.yul\":6709:6729   */\n      sub\n        /* \"#utility.yul\":6705:6706   */\n      0x00\n        /* \"#utility.yul\":6694:6703   */\n      dup4\n        /* \"#utility.yul\":6690:6707   */\n      add\n        /* \"#utility.yul\":6683:6730   */\n      mstore\n        /* \"#utility.yul\":6747:6901   */\n      tag_494\n        /* \"#utility.yul\":6896:6900   */\n      dup2\n        /* \"#utility.yul\":6887:6893   */\n      dup5\n        /* \"#utility.yul\":6747:6901   */\n      tag_394\n      jump\t// in\n    tag_494:\n        /* \"#utility.yul\":6739:6901   */\n      swap1\n      pop\n        /* \"#utility.yul\":6443:6908   */\n      swap3\n      swap2\n      pop\n      pop\n      jump\t// out\n        /* \"#utility.yul\":6914:7032   */\n    tag_395:\n        /* \"#utility.yul\":7001:7025   */\n      tag_496\n        /* \"#utility.yul\":7019:7024   */\n      dup2\n        /* \"#utility.yul\":7001:7025   */\n      tag_383\n      jump\t// in\n    tag_496:\n        /* \"#utility.yul\":6996:6999   */\n      dup3\n        /* \"#utility.yul\":6989:7026   */\n      mstore\n        /* \"#utility.yul\":6914:7032   */\n      pop\n      pop\n      jump\t// out\n        /* \"#utility.yul\":7038:7260   */\n    tag_23:\n        /* \"#utility.yul\":7131:7135   */\n      0x00\n        /* \"#utility.yul\":7169:7171   */\n      0x20\n        /* \"#utility.yul\":7158:7167   */\n      dup3\n        /* \"#utility.yul\":7154:7172   */\n      add\n        /* \"#utility.yul\":7146:7172   */\n      swap1\n      pop\n        /* \"#utility.yul\":7182:7253   */\n      tag_498\n        /* \"#utility.yul\":7250:7251   */\n      0x00\n        /* \"#utility.yul\":7239:7248   */\n      dup4\n        /* \"#utility.yul\":7235:7252   */\n      add\n        /* \"#utility.yul\":7226:7232   */\n      dup5\n        /* \"#utility.yul\":7182:7253   */\n      tag_395\n      jump\t// in\n    tag_498:\n        /* \"#utility.yul\":7038:7260   */\n      swap3\n      swap2\n      pop\n      pop\n      jump\t// out\n        /* \"#utility.yul\":7266:7951   */\n    tag_27:\n        /* \"#utility.yul\":7511:7515   */\n      0x00\n        /* \"#utility.yul\":7549:7551   */\n      0x60\n        /* \"#utility.yul\":7538:7547   */\n      dup3\n        /* \"#utility.yul\":7534:7552   */\n      add\n        /* \"#utility.yul\":7526:7552   */\n      swap1\n      pop\n        /* \"#utility.yul\":7562:7633   */\n      tag_500\n        /* \"#utility.yul\":7630:7631   */\n      0x00\n        /* \"#utility.yul\":7619:7628   */\n      dup4\n        /* \"#utility.yul\":7615:7632   */\n      add\n        /* \"#utility.yul\":7606:7612   */\n      dup7\n        /* \"#utility.yul\":7562:7633   */\n      tag_395\n      jump\t// in\n    tag_500:\n        /* \"#utility.yul\":7643:7715   */\n      tag_501\n        /* \"#utility.yul\":7711:7713   */\n      0x20\n        /* \"#utility.yul\":7700:7709   */\n      dup4\n        /* \"#utility.yul\":7696:7714   */\n      add\n        /* \"#utility.yul\":7687:7693   */\n      dup6\n        /* \"#utility.yul\":7643:7715   */\n      tag_395\n      jump\t// in\n    tag_501:\n        /* \"#utility.yul\":7762:7771   */\n      dup2\n        /* \"#utility.yul\":7756:7760   */\n      dup2\n        /* \"#utility.yul\":7752:7772   */\n      sub\n        /* \"#utility.yul\":7747:7749   */\n      0x40\n        /* \"#utility.yul\":7736:7745   */\n      dup4\n        /* \"#utility.yul\":7732:7750   */\n      add\n        /* \"#utility.yul\":7725:7773   */\n      mstore\n        /* \"#utility.yul\":7790:7944   */\n      tag_502\n        /* \"#utility.yul\":7939:7943   */\n      dup2\n        /* \"#utility.yul\":7930:7936   */\n      dup5\n        /* \"#utility.yul\":7790:7944   */\n      tag_394\n      jump\t// in\n    tag_502:\n        /* \"#utility.yul\":7782:7944   */\n      swap1\n      pop\n        /* \"#utility.yul\":7266:7951   */\n      swap5\n      swap4\n      pop\n      pop\n      pop\n      pop\n      jump\t// out\n        /* \"#utility.yul\":7957:8032   */\n    tag_396:\n        /* \"#utility.yul\":7990:7996   */\n      0x00\n        /* \"#utility.yul\":8023:8025   */\n      0x40\n        /* \"#utility.yul\":8017:8026   */\n      mload\n        /* \"#utility.yul\":8007:8026   */\n      swap1\n      pop\n        /* \"#utility.yul\":7957:8032   */\n      swap1\n      jump\t// out\n        /* \"#utility.yul\":8038:8155   */\n    tag_397:\n        /* \"#utility.yul\":8147:8148   */\n      0x00\n        /* \"#utility.yul\":8144:8145   */\n      dup1\n        /* \"#utility.yul\":8137:8149   */\n      revert\n        /* \"#utility.yul\":8161:8278   */\n    tag_398:\n        /* \"#utility.yul\":8270:8271   */\n      0x00\n        /* \"#utility.yul\":8267:8268   */\n      dup1\n        /* \"#utility.yul\":8260:8272   */\n      revert\n        /* \"#utility.yul\":8284:8406   */\n    tag_399:\n        /* \"#utility.yul\":8357:8381   */\n      tag_507\n        /* \"#utility.yul\":8375:8380   */\n      dup2\n        /* \"#utility.yul\":8357:8381   */\n      tag_383\n      jump\t// in\n    tag_507:\n        /* \"#utility.yul\":8350:8355   */\n      dup2\n        /* \"#utility.yul\":8347:8382   */\n      eq\n        /* \"#utility.yul\":8337:8400   */\n      tag_508\n      jumpi\n        /* \"#utility.yul\":8396:8397   */\n      0x00\n        /* \"#utility.yul\":8393:8394   */\n      dup1\n        /* \"#utility.yul\":8386:8398   */\n      revert\n        /* \"#utility.yul\":8337:8400   */\n    tag_508:\n        /* \"#utility.yul\":8284:8406   */\n      pop\n      jump\t// out\n        /* \"#utility.yul\":8412:8551   */\n    tag_400:\n        /* \"#utility.yul\":8458:8463   */\n      0x00\n        /* \"#utility.yul\":8496:8502   */\n      dup2\n        /* \"#utility.yul\":8483:8503   */\n      calldataload\n        /* \"#utility.yul\":8474:8503   */\n      swap1\n      pop\n        /* \"#utility.yul\":8512:8545   */\n      tag_510\n        /* \"#utility.yul\":8539:8544   */\n      dup2\n        /* \"#utility.yul\":8512:8545   */\n      tag_399\n      jump\t// in\n    tag_510:\n        /* \"#utility.yul\":8412:8551   */\n      swap3\n      swap2\n      pop\n      pop\n      jump\t// out\n        /* \"#utility.yul\":8557:8886   */\n    tag_30:\n        /* \"#utility.yul\":8616:8622   */\n      0x00\n        /* \"#utility.yul\":8665:8667   */\n      0x20\n        /* \"#utility.yul\":8653:8662   */\n      dup3\n        /* \"#utility.yul\":8644:8651   */\n      dup5\n        /* \"#utility.yul\":8640:8663   */\n      sub\n        /* \"#utility.yul\":8636:8668   */\n      slt\n        /* \"#utility.yul\":8633:8752   */\n      iszero\n      tag_512\n      jumpi\n        /* \"#utility.yul\":8671:8750   */\n      tag_513\n      tag_397\n      jump\t// in\n    tag_513:\n        /* \"#utility.yul\":8633:8752   */\n    tag_512:\n        /* \"#utility.yul\":8791:8792   */\n      0x00\n        /* \"#utility.yul\":8816:8869   */\n      tag_514\n        /* \"#utility.yul\":8861:8868   */\n      dup5\n        /* \"#utility.yul\":8852:8858   */\n      dup3\n        /* \"#utility.yul\":8841:8850   */\n      dup6\n        /* \"#utility.yul\":8837:8859   */\n      add\n        /* \"#utility.yul\":8816:8869   */\n      tag_400\n      jump\t// in\n    tag_514:\n        /* \"#utility.yul\":8806:8869   */\n      swap2\n      pop\n        /* \"#utility.yul\":8762:8879   */\n      pop\n        /* \"#utility.yul\":8557:8886   */\n      swap3\n      swap2\n      pop\n      pop\n      jump\t// out\n        /* \"#utility.yul\":8944:10268   */\n    tag_401:\n        /* \"#utility.yul\":9059:9062   */\n      0x00\n        /* \"#utility.yul\":9095:9099   */\n      0xa0\n        /* \"#utility.yul\":9090:9093   */\n      dup4\n        /* \"#utility.yul\":9086:9100   */\n      add\n        /* \"#utility.yul\":9182:9186   */\n      0x00\n        /* \"#utility.yul\":9175:9180   */\n      dup4\n        /* \"#utility.yul\":9171:9187   */\n      add\n        /* \"#utility.yul\":9165:9188   */\n      mload\n        /* \"#utility.yul\":9235:9238   */\n      dup5\n        /* \"#utility.yul\":9229:9233   */\n      dup3\n        /* \"#utility.yul\":9225:9239   */\n      sub\n        /* \"#utility.yul\":9218:9222   */\n      0x00\n        /* \"#utility.yul\":9213:9216   */\n      dup7\n        /* \"#utility.yul\":9209:9223   */\n      add\n        /* \"#utility.yul\":9202:9240   */\n      mstore\n        /* \"#utility.yul\":9261:9334   */\n      tag_516\n        /* \"#utility.yul\":9329:9333   */\n      dup3\n        /* \"#utility.yul\":9315:9327   */\n      dup3\n        /* \"#utility.yul\":9261:9334   */\n      tag_382\n      jump\t// in\n    tag_516:\n        /* \"#utility.yul\":9253:9334   */\n      swap2\n      pop\n        /* \"#utility.yul\":9110:9345   */\n      pop\n        /* \"#utility.yul\":9429:9433   */\n      0x20\n        /* \"#utility.yul\":9422:9427   */\n      dup4\n        /* \"#utility.yul\":9418:9434   */\n      add\n        /* \"#utility.yul\":9412:9435   */\n      mload\n        /* \"#utility.yul\":9448:9511   */\n      tag_517\n        /* \"#utility.yul\":9505:9509   */\n      0x20\n        /* \"#utility.yul\":9500:9503   */\n      dup7\n        /* \"#utility.yul\":9496:9510   */\n      add\n        /* \"#utility.yul\":9482:9494   */\n      dup3\n        /* \"#utility.yul\":9448:9511   */\n      tag_384\n      jump\t// in\n    tag_517:\n        /* \"#utility.yul\":9355:9521   */\n      pop\n        /* \"#utility.yul\":9604:9608   */\n      0x40\n        /* \"#utility.yul\":9597:9602   */\n      dup4\n        /* \"#utility.yul\":9593:9609   */\n      add\n        /* \"#utility.yul\":9587:9610   */\n      mload\n        /* \"#utility.yul\":9623:9686   */\n      tag_518\n        /* \"#utility.yul\":9680:9684   */\n      0x40\n        /* \"#utility.yul\":9675:9678   */\n      dup7\n        /* \"#utility.yul\":9671:9685   */\n      add\n        /* \"#utility.yul\":9657:9669   */\n      dup3\n        /* \"#utility.yul\":9623:9686   */\n      tag_384\n      jump\t// in\n    tag_518:\n        /* \"#utility.yul\":9531:9696   */\n      pop\n        /* \"#utility.yul\":9780:9784   */\n      0x60\n        /* \"#utility.yul\":9773:9778   */\n      dup4\n        /* \"#utility.yul\":9769:9785   */\n      add\n        /* \"#utility.yul\":9763:9786   */\n      mload\n        /* \"#utility.yul\":9833:9836   */\n      dup5\n        /* \"#utility.yul\":9827:9831   */\n      dup3\n        /* \"#utility.yul\":9823:9837   */\n      sub\n        /* \"#utility.yul\":9816:9820   */\n      0x60\n        /* \"#utility.yul\":9811:9814   */\n      dup7\n        /* \"#utility.yul\":9807:9821   */\n      add\n        /* \"#utility.yul\":9800:9838   */\n      mstore\n        /* \"#utility.yul\":9859:9932   */\n      tag_519\n        /* \"#utility.yul\":9927:9931   */\n      dup3\n        /* \"#utility.yul\":9913:9925   */\n      dup3\n        /* \"#utility.yul\":9859:9932   */\n      tag_382\n      jump\t// in\n    tag_519:\n        /* \"#utility.yul\":9851:9932   */\n      swap2\n      pop\n        /* \"#utility.yul\":9706:9943   */\n      pop\n        /* \"#utility.yul\":10028:10032   */\n      0x80\n        /* \"#utility.yul\":10021:10026   */\n      dup4\n        /* \"#utility.yul\":10017:10033   */\n      add\n        /* \"#utility.yul\":10011:10034   */\n      mload\n        /* \"#utility.yul\":10081:10084   */\n      dup5\n        /* \"#utility.yul\":10075:10079   */\n      dup3\n        /* \"#utility.yul\":10071:10085   */\n      sub\n        /* \"#utility.yul\":10064:10068   */\n      0x80\n        /* \"#utility.yul\":10059:10062   */\n      dup7\n        /* \"#utility.yul\":10055:10069   */\n      add\n        /* \"#utility.yul\":10048:10086   */\n      mstore\n        /* \"#utility.yul\":10107:10230   */\n      tag_520\n        /* \"#utility.yul\":10225:10229   */\n      dup3\n        /* \"#utility.yul\":10211:10223   */\n      dup3\n        /* \"#utility.yul\":10107:10230   */\n      tag_390\n      jump\t// in\n    tag_520:\n        /* \"#utility.yul\":10099:10230   */\n      swap2\n      pop\n        /* \"#utility.yul\":9953:10241   */\n      pop\n        /* \"#utility.yul\":10258:10262   */\n      dup1\n        /* \"#utility.yul\":10251:10262   */\n      swap2\n      pop\n        /* \"#utility.yul\":9064:10268   */\n      pop\n        /* \"#utility.yul\":8944:10268   */\n      swap3\n      swap2\n      pop\n      pop\n      jump\t// out\n        /* \"#utility.yul\":10274:10639   */\n    tag_33:\n        /* \"#utility.yul\":10413:10417   */\n      0x00\n        /* \"#utility.yul\":10451:10453   */\n      0x20\n        /* \"#utility.yul\":10440:10449   */\n      dup3\n        /* \"#utility.yul\":10436:10454   */\n      add\n        /* \"#utility.yul\":10428:10454   */\n      swap1\n      pop\n        /* \"#utility.yul\":10500:10509   */\n      dup2\n        /* \"#utility.yul\":10494:10498   */\n      dup2\n        /* \"#utility.yul\":10490:10510   */\n      sub\n        /* \"#utility.yul\":10486:10487   */\n      0x00\n        /* \"#utility.yul\":10475:10484   */\n      dup4\n        /* \"#utility.yul\":10471:10488   */\n      add\n        /* \"#utility.yul\":10464:10511   */\n      mstore\n        /* \"#utility.yul\":10528:10632   */\n      tag_522\n        /* \"#utility.yul\":10627:10631   */\n      dup2\n        /* \"#utility.yul\":10618:10624   */\n      dup5\n        /* \"#utility.yul\":10528:10632   */\n      tag_401\n      jump\t// in\n    tag_522:\n        /* \"#utility.yul\":10520:10632   */\n      swap1\n      pop\n        /* \"#utility.yul\":10274:10639   */\n      swap3\n      swap2\n      pop\n      pop\n      jump\t// out\n        /* \"#utility.yul\":10645:10762   */\n    tag_402:\n        /* \"#utility.yul\":10754:10755   */\n      0x00\n        /* \"#utility.yul\":10751:10752   */\n      dup1\n        /* \"#utility.yul\":10744:10756   */\n      revert\n        /* \"#utility.yul\":10768:10885   */\n    tag_403:\n        /* \"#utility.yul\":10877:10878   */\n      0x00\n        /* \"#utility.yul\":10874:10875   */\n      dup1\n        /* \"#utility.yul\":10867:10879   */\n      revert\n        /* \"#utility.yul\":10891:11071   */\n    tag_90:\n        /* \"#utility.yul\":10939:11016   */\n      0x4e487b7100000000000000000000000000000000000000000000000000000000\n        /* \"#utility.yul\":10936:10937   */\n      0x00\n        /* \"#utility.yul\":10929:11017   */\n      mstore\n        /* \"#utility.yul\":11036:11040   */\n      0x41\n        /* \"#utility.yul\":11033:11034   */\n      0x04\n        /* \"#utility.yul\":11026:11041   */\n      mstore\n        /* \"#utility.yul\":11060:11064   */\n      0x24\n        /* \"#utility.yul\":11057:11058   */\n      0x00\n        /* \"#utility.yul\":11050:11065   */\n      revert\n        /* \"#utility.yul\":11077:11358   */\n    tag_404:\n        /* \"#utility.yul\":11160:11187   */\n      tag_527\n        /* \"#utility.yul\":11182:11186   */\n      dup3\n        /* \"#utility.yul\":11160:11187   */\n      tag_381\n      jump\t// in\n    tag_527:\n        /* \"#utility.yul\":11152:11158   */\n      dup2\n        /* \"#utility.yul\":11148:11188   */\n      add\n        /* \"#utility.yul\":11290:11296   */\n      dup2\n        /* \"#utility.yul\":11278:11288   */\n      dup2\n        /* \"#utility.yul\":11275:11297   */\n      lt\n        /* \"#utility.yul\":11254:11272   */\n      0xffffffffffffffff\n        /* \"#utility.yul\":11242:11252   */\n      dup3\n        /* \"#utility.yul\":11239:11273   */\n      gt\n        /* \"#utility.yul\":11236:11298   */\n      or\n        /* \"#utility.yul\":11233:11321   */\n      iszero\n      tag_528\n      jumpi\n        /* \"#utility.yul\":11301:11319   */\n      tag_529\n      tag_90\n      jump\t// in\n    tag_529:\n        /* \"#utility.yul\":11233:11321   */\n    tag_528:\n        /* \"#utility.yul\":11341:11351   */\n      dup1\n        /* \"#utility.yul\":11337:11339   */\n      0x40\n        /* \"#utility.yul\":11330:11352   */\n      mstore\n        /* \"#utility.yul\":11120:11358   */\n      pop\n        /* \"#utility.yul\":11077:11358   */\n      pop\n      pop\n      jump\t// out\n        /* \"#utility.yul\":11364:11493   */\n    tag_405:\n        /* \"#utility.yul\":11398:11404   */\n      0x00\n        /* \"#utility.yul\":11425:11445   */\n      tag_531\n      tag_396\n      jump\t// in\n    tag_531:\n        /* \"#utility.yul\":11415:11445   */\n      swap1\n      pop\n        /* \"#utility.yul\":11454:11487   */\n      tag_532\n        /* \"#utility.yul\":11482:11486   */\n      dup3\n        /* \"#utility.yul\":11474:11480   */\n      dup3\n        /* \"#utility.yul\":11454:11487   */\n      tag_404\n      jump\t// in\n    tag_532:\n        /* \"#utility.yul\":11364:11493   */\n      swap2\n      swap1\n      pop\n      jump\t// out\n        /* \"#utility.yul\":11499:11807   */\n    tag_406:\n        /* \"#utility.yul\":11561:11565   */\n      0x00\n        /* \"#utility.yul\":11651:11669   */\n      0xffffffffffffffff\n        /* \"#utility.yul\":11643:11649   */\n      dup3\n        /* \"#utility.yul\":11640:11670   */\n      gt\n        /* \"#utility.yul\":11637:11693   */\n      iszero\n      tag_534\n      jumpi\n        /* \"#utility.yul\":11673:11691   */\n      tag_535\n      tag_90\n      jump\t// in\n    tag_535:\n        /* \"#utility.yul\":11637:11693   */\n    tag_534:\n        /* \"#utility.yul\":11711:11740   */\n      tag_536\n        /* \"#utility.yul\":11733:11739   */\n      dup3\n        /* \"#utility.yul\":11711:11740   */\n      tag_381\n      jump\t// in\n    tag_536:\n        /* \"#utility.yul\":11703:11740   */\n      swap1\n      pop\n        /* \"#utility.yul\":11795:11799   */\n      0x20\n        /* \"#utility.yul\":11789:11793   */\n      dup2\n        /* \"#utility.yul\":11785:11800   */\n      add\n        /* \"#utility.yul\":11777:11800   */\n      swap1\n      pop\n        /* \"#utility.yul\":11499:11807   */\n      swap2\n      swap1\n      pop\n      jump\t// out\n        /* \"#utility.yul\":11813:11959   */\n    tag_407:\n        /* \"#utility.yul\":11910:11916   */\n      dup3\n        /* \"#utility.yul\":11905:11908   */\n      dup2\n        /* \"#utility.yul\":11900:11903   */\n      dup4\n        /* \"#utility.yul\":11887:11917   */\n      calldatacopy\n        /* \"#utility.yul\":11951:11952   */\n      0x00\n        /* \"#utility.yul\":11942:11948   */\n      dup4\n        /* \"#utility.yul\":11937:11940   */\n      dup4\n        /* \"#utility.yul\":11933:11949   */\n      add\n        /* \"#utility.yul\":11926:11953   */\n      mstore\n        /* \"#utility.yul\":11813:11959   */\n      pop\n      pop\n      pop\n      jump\t// out\n        /* \"#utility.yul\":11965:12390   */\n    tag_408:\n        /* \"#utility.yul\":12043:12048   */\n      0x00\n        /* \"#utility.yul\":12068:12134   */\n      tag_539\n        /* \"#utility.yul\":12084:12133   */\n      tag_540\n        /* \"#utility.yul\":12126:12132   */\n      dup5\n        /* \"#utility.yul\":12084:12133   */\n      tag_406\n      jump\t// in\n    tag_540:\n        /* \"#utility.yul\":12068:12134   */\n      tag_405\n      jump\t// in\n    tag_539:\n        /* \"#utility.yul\":12059:12134   */\n      swap1\n      pop\n        /* \"#utility.yul\":12157:12163   */\n      dup3\n        /* \"#utility.yul\":12150:12155   */\n      dup2\n        /* \"#utility.yul\":12143:12164   */\n      mstore\n        /* \"#utility.yul\":12195:12199   */\n      0x20\n        /* \"#utility.yul\":12188:12193   */\n      dup2\n        /* \"#utility.yul\":12184:12200   */\n      add\n        /* \"#utility.yul\":12233:12236   */\n      dup5\n        /* \"#utility.yul\":12224:12230   */\n      dup5\n        /* \"#utility.yul\":12219:12222   */\n      dup5\n        /* \"#utility.yul\":12215:12231   */\n      add\n        /* \"#utility.yul\":12212:12237   */\n      gt\n        /* \"#utility.yul\":12209:12321   */\n      iszero\n      tag_541\n      jumpi\n        /* \"#utility.yul\":12240:12319   */\n      tag_542\n      tag_403\n      jump\t// in\n    tag_542:\n        /* \"#utility.yul\":12209:12321   */\n    tag_541:\n        /* \"#utility.yul\":12330:12384   */\n      tag_543\n        /* \"#utility.yul\":12377:12383   */\n      dup5\n        /* \"#utility.yul\":12372:12375   */\n      dup3\n        /* \"#utility.yul\":12367:12370   */\n      dup6\n        /* \"#utility.yul\":12330:12384   */\n      tag_407\n      jump\t// in\n    tag_543:\n        /* \"#utility.yul\":12049:12390   */\n      pop\n        /* \"#utility.yul\":11965:12390   */\n      swap4\n      swap3\n      pop\n      pop\n      pop\n      jump\t// out\n        /* \"#utility.yul\":12410:12750   */\n    tag_409:\n        /* \"#utility.yul\":12466:12471   */\n      0x00\n        /* \"#utility.yul\":12515:12518   */\n      dup3\n        /* \"#utility.yul\":12508:12512   */\n      0x1f\n        /* \"#utility.yul\":12500:12506   */\n      dup4\n        /* \"#utility.yul\":12496:12513   */\n      add\n        /* \"#utility.yul\":12492:12519   */\n      slt\n        /* \"#utility.yul\":12482:12604   */\n      tag_545\n      jumpi\n        /* \"#utility.yul\":12523:12602   */\n      tag_546\n      tag_402\n      jump\t// in\n    tag_546:\n        /* \"#utility.yul\":12482:12604   */\n    tag_545:\n        /* \"#utility.yul\":12640:12646   */\n      dup2\n        /* \"#utility.yul\":12627:12647   */\n      calldataload\n        /* \"#utility.yul\":12665:12744   */\n      tag_547\n        /* \"#utility.yul\":12740:12743   */\n      dup5\n        /* \"#utility.yul\":12732:12738   */\n      dup3\n        /* \"#utility.yul\":12725:12729   */\n      0x20\n        /* \"#utility.yul\":12717:12723   */\n      dup7\n        /* \"#utility.yul\":12713:12730   */\n      add\n        /* \"#utility.yul\":12665:12744   */\n      tag_408\n      jump\t// in\n    tag_547:\n        /* \"#utility.yul\":12656:12744   */\n      swap2\n      pop\n        /* \"#utility.yul\":12472:12750   */\n      pop\n        /* \"#utility.yul\":12410:12750   */\n      swap3\n      swap2\n      pop\n      pop\n      jump\t// out\n        /* \"#utility.yul\":12756:13077   */\n    tag_410:\n        /* \"#utility.yul\":12843:12847   */\n      0x00\n        /* \"#utility.yul\":12933:12951   */\n      0xffffffffffffffff\n        /* \"#utility.yul\":12925:12931   */\n      dup3\n        /* \"#utility.yul\":12922:12952   */\n      gt\n        /* \"#utility.yul\":12919:12975   */\n      iszero\n      tag_549\n      jumpi\n        /* \"#utility.yul\":12955:12973   */\n      tag_550\n      tag_90\n      jump\t// in\n    tag_550:\n        /* \"#utility.yul\":12919:12975   */\n    tag_549:\n        /* \"#utility.yul\":13005:13009   */\n      0x20\n        /* \"#utility.yul\":12997:13003   */\n      dup3\n        /* \"#utility.yul\":12993:13010   */\n      mul\n        /* \"#utility.yul\":12985:13010   */\n      swap1\n      pop\n        /* \"#utility.yul\":13065:13069   */\n      0x20\n        /* \"#utility.yul\":13059:13063   */\n      dup2\n        /* \"#utility.yul\":13055:13070   */\n      add\n        /* \"#utility.yul\":13047:13070   */\n      swap1\n      pop\n        /* \"#utility.yul\":12756:13077   */\n      swap2\n      swap1\n      pop\n      jump\t// out\n        /* \"#utility.yul\":13083:13200   */\n    tag_411:\n        /* \"#utility.yul\":13192:13193   */\n      0x00\n        /* \"#utility.yul\":13189:13190   */\n      dup1\n        /* \"#utility.yul\":13182:13194   */\n      revert\n        /* \"#utility.yul\":13222:14167   */\n    tag_412:\n        /* \"#utility.yul\":13328:13333   */\n      0x00\n        /* \"#utility.yul\":13353:13444   */\n      tag_553\n        /* \"#utility.yul\":13369:13443   */\n      tag_554\n        /* \"#utility.yul\":13436:13442   */\n      dup5\n        /* \"#utility.yul\":13369:13443   */\n      tag_410\n      jump\t// in\n    tag_554:\n        /* \"#utility.yul\":13353:13444   */\n      tag_405\n      jump\t// in\n    tag_553:\n        /* \"#utility.yul\":13344:13444   */\n      swap1\n      pop\n        /* \"#utility.yul\":13464:13469   */\n      dup1\n        /* \"#utility.yul\":13493:13499   */\n      dup4\n        /* \"#utility.yul\":13486:13491   */\n      dup3\n        /* \"#utility.yul\":13479:13500   */\n      mstore\n        /* \"#utility.yul\":13527:13531   */\n      0x20\n        /* \"#utility.yul\":13520:13525   */\n      dup3\n        /* \"#utility.yul\":13516:13532   */\n      add\n        /* \"#utility.yul\":13509:13532   */\n      swap1\n      pop\n        /* \"#utility.yul\":13580:13584   */\n      0x20\n        /* \"#utility.yul\":13572:13578   */\n      dup5\n        /* \"#utility.yul\":13568:13585   */\n      mul\n        /* \"#utility.yul\":13560:13566   */\n      dup4\n        /* \"#utility.yul\":13556:13586   */\n      add\n        /* \"#utility.yul\":13609:13612   */\n      dup6\n        /* \"#utility.yul\":13601:13607   */\n      dup2\n        /* \"#utility.yul\":13598:13613   */\n      gt\n        /* \"#utility.yul\":13595:13717   */\n      iszero\n      tag_555\n      jumpi\n        /* \"#utility.yul\":13628:13707   */\n      tag_556\n      tag_411\n      jump\t// in\n    tag_556:\n        /* \"#utility.yul\":13595:13717   */\n    tag_555:\n        /* \"#utility.yul\":13743:13749   */\n      dup4\n        /* \"#utility.yul\":13726:14161   */\n    tag_557:\n        /* \"#utility.yul\":13760:13766   */\n      dup2\n        /* \"#utility.yul\":13755:13758   */\n      dup2\n        /* \"#utility.yul\":13752:13767   */\n      lt\n        /* \"#utility.yul\":13726:14161   */\n      iszero\n      tag_559\n      jumpi\n        /* \"#utility.yul\":13849:13852   */\n      dup1\n        /* \"#utility.yul\":13836:13853   */\n      calldataload\n        /* \"#utility.yul\":13885:13903   */\n      0xffffffffffffffff\n        /* \"#utility.yul\":13872:13883   */\n      dup2\n        /* \"#utility.yul\":13869:13904   */\n      gt\n        /* \"#utility.yul\":13866:13988   */\n      iszero\n      tag_560\n      jumpi\n        /* \"#utility.yul\":13907:13986   */\n      tag_561\n      tag_402\n      jump\t// in\n    tag_561:\n        /* \"#utility.yul\":13866:13988   */\n    tag_560:\n        /* \"#utility.yul\":14031:14042   */\n      dup1\n        /* \"#utility.yul\":14023:14029   */\n      dup7\n        /* \"#utility.yul\":14019:14043   */\n      add\n        /* \"#utility.yul\":14069:14116   */\n      tag_562\n        /* \"#utility.yul\":14112:14115   */\n      dup10\n        /* \"#utility.yul\":14100:14110   */\n      dup3\n        /* \"#utility.yul\":14069:14116   */\n      tag_409\n      jump\t// in\n    tag_562:\n        /* \"#utility.yul\":14064:14067   */\n      dup6\n        /* \"#utility.yul\":14057:14117   */\n      mstore\n        /* \"#utility.yul\":14146:14150   */\n      0x20\n        /* \"#utility.yul\":14141:14144   */\n      dup6\n        /* \"#utility.yul\":14137:14151   */\n      add\n        /* \"#utility.yul\":14130:14151   */\n      swap5\n      pop\n        /* \"#utility.yul\":13802:14161   */\n      pop\n      pop\n        /* \"#utility.yul\":13786:13790   */\n      0x20\n        /* \"#utility.yul\":13781:13784   */\n      dup2\n        /* \"#utility.yul\":13777:13791   */\n      add\n        /* \"#utility.yul\":13770:13791   */\n      swap1\n      pop\n        /* \"#utility.yul\":13726:14161   */\n      jump(tag_557)\n    tag_559:\n        /* \"#utility.yul\":13730:13751   */\n      pop\n        /* \"#utility.yul\":13334:14167   */\n      pop\n      pop\n        /* \"#utility.yul\":13222:14167   */\n      swap4\n      swap3\n      pop\n      pop\n      pop\n      jump\t// out\n        /* \"#utility.yul\":14189:14579   */\n    tag_413:\n        /* \"#utility.yul\":14270:14275   */\n      0x00\n        /* \"#utility.yul\":14319:14322   */\n      dup3\n        /* \"#utility.yul\":14312:14316   */\n      0x1f\n        /* \"#utility.yul\":14304:14310   */\n      dup4\n        /* \"#utility.yul\":14300:14317   */\n      add\n        /* \"#utility.yul\":14296:14323   */\n      slt\n        /* \"#utility.yul\":14286:14408   */\n      tag_564\n      jumpi\n        /* \"#utility.yul\":14327:14406   */\n      tag_565\n      tag_402\n      jump\t// in\n    tag_565:\n        /* \"#utility.yul\":14286:14408   */\n    tag_564:\n        /* \"#utility.yul\":14444:14450   */\n      dup2\n        /* \"#utility.yul\":14431:14451   */\n      calldataload\n        /* \"#utility.yul\":14469:14573   */\n      tag_566\n        /* \"#utility.yul\":14569:14572   */\n      dup5\n        /* \"#utility.yul\":14561:14567   */\n      dup3\n        /* \"#utility.yul\":14554:14558   */\n      0x20\n        /* \"#utility.yul\":14546:14552   */\n      dup7\n        /* \"#utility.yul\":14542:14559   */\n      add\n        /* \"#utility.yul\":14469:14573   */\n      tag_412\n      jump\t// in\n    tag_566:\n        /* \"#utility.yul\":14460:14573   */\n      swap2\n      pop\n        /* \"#utility.yul\":14276:14579   */\n      pop\n        /* \"#utility.yul\":14189:14579   */\n      swap3\n      swap2\n      pop\n      pop\n      jump\t// out\n        /* \"#utility.yul\":14585:15614   */\n    tag_36:\n        /* \"#utility.yul\":14707:14713   */\n      0x00\n        /* \"#utility.yul\":14715:14721   */\n      dup1\n        /* \"#utility.yul\":14723:14729   */\n      0x00\n        /* \"#utility.yul\":14772:14774   */\n      0x60\n        /* \"#utility.yul\":14760:14769   */\n      dup5\n        /* \"#utility.yul\":14751:14758   */\n      dup7\n        /* \"#utility.yul\":14747:14770   */\n      sub\n        /* \"#utility.yul\":14743:14775   */\n      slt\n        /* \"#utility.yul\":14740:14859   */\n      iszero\n      tag_568\n      jumpi\n        /* \"#utility.yul\":14778:14857   */\n      tag_569\n      tag_397\n      jump\t// in\n    tag_569:\n        /* \"#utility.yul\":14740:14859   */\n    tag_568:\n        /* \"#utility.yul\":14926:14927   */\n      0x00\n        /* \"#utility.yul\":14915:14924   */\n      dup5\n        /* \"#utility.yul\":14911:14928   */\n      add\n        /* \"#utility.yul\":14898:14929   */\n      calldataload\n        /* \"#utility.yul\":14956:14974   */\n      0xffffffffffffffff\n        /* \"#utility.yul\":14948:14954   */\n      dup2\n        /* \"#utility.yul\":14945:14975   */\n      gt\n        /* \"#utility.yul\":14942:15059   */\n      iszero\n      tag_570\n      jumpi\n        /* \"#utility.yul\":14978:15057   */\n      tag_571\n      tag_398\n      jump\t// in\n    tag_571:\n        /* \"#utility.yul\":14942:15059   */\n    tag_570:\n        /* \"#utility.yul\":15083:15146   */\n      tag_572\n        /* \"#utility.yul\":15138:15145   */\n      dup7\n        /* \"#utility.yul\":15129:15135   */\n      dup3\n        /* \"#utility.yul\":15118:15127   */\n      dup8\n        /* \"#utility.yul\":15114:15136   */\n      add\n        /* \"#utility.yul\":15083:15146   */\n      tag_409\n      jump\t// in\n    tag_572:\n        /* \"#utility.yul\":15073:15146   */\n      swap4\n      pop\n        /* \"#utility.yul\":14869:15156   */\n      pop\n        /* \"#utility.yul\":15195:15197   */\n      0x20\n        /* \"#utility.yul\":15221:15274   */\n      tag_573\n        /* \"#utility.yul\":15266:15273   */\n      dup7\n        /* \"#utility.yul\":15257:15263   */\n      dup3\n        /* \"#utility.yul\":15246:15255   */\n      dup8\n        /* \"#utility.yul\":15242:15264   */\n      add\n        /* \"#utility.yul\":15221:15274   */\n      tag_400\n      jump\t// in\n    tag_573:\n        /* \"#utility.yul\":15211:15274   */\n      swap3\n      pop\n        /* \"#utility.yul\":15166:15284   */\n      pop\n        /* \"#utility.yul\":15351:15353   */\n      0x40\n        /* \"#utility.yul\":15340:15349   */\n      dup5\n        /* \"#utility.yul\":15336:15354   */\n      add\n        /* \"#utility.yul\":15323:15355   */\n      calldataload\n        /* \"#utility.yul\":15382:15400   */\n      0xffffffffffffffff\n        /* \"#utility.yul\":15374:15380   */\n      dup2\n        /* \"#utility.yul\":15371:15401   */\n      gt\n        /* \"#utility.yul\":15368:15485   */\n      iszero\n      tag_574\n      jumpi\n        /* \"#utility.yul\":15404:15483   */\n      tag_575\n      tag_398\n      jump\t// in\n    tag_575:\n        /* \"#utility.yul\":15368:15485   */\n    tag_574:\n        /* \"#utility.yul\":15509:15597   */\n      tag_576\n        /* \"#utility.yul\":15589:15596   */\n      dup7\n        /* \"#utility.yul\":15580:15586   */\n      dup3\n        /* \"#utility.yul\":15569:15578   */\n      dup8\n        /* \"#utility.yul\":15565:15587   */\n      add\n        /* \"#utility.yul\":15509:15597   */\n      tag_413\n      jump\t// in\n    tag_576:\n        /* \"#utility.yul\":15499:15597   */\n      swap2\n      pop\n        /* \"#utility.yul\":15294:15607   */\n      pop\n        /* \"#utility.yul\":14585:15614   */\n      swap3\n      pop\n      swap3\n      pop\n      swap3\n      jump\t// out\n        /* \"#utility.yul\":15620:16129   */\n    tag_43:\n        /* \"#utility.yul\":15689:15695   */\n      0x00\n        /* \"#utility.yul\":15738:15740   */\n      0x20\n        /* \"#utility.yul\":15726:15735   */\n      dup3\n        /* \"#utility.yul\":15717:15724   */\n      dup5\n        /* \"#utility.yul\":15713:15736   */\n      sub\n        /* \"#utility.yul\":15709:15741   */\n      slt\n        /* \"#utility.yul\":15706:15825   */\n      iszero\n      tag_578\n      jumpi\n        /* \"#utility.yul\":15744:15823   */\n      tag_579\n      tag_397\n      jump\t// in\n    tag_579:\n        /* \"#utility.yul\":15706:15825   */\n    tag_578:\n        /* \"#utility.yul\":15892:15893   */\n      0x00\n        /* \"#utility.yul\":15881:15890   */\n      dup3\n        /* \"#utility.yul\":15877:15894   */\n      add\n        /* \"#utility.yul\":15864:15895   */\n      calldataload\n        /* \"#utility.yul\":15922:15940   */\n      0xffffffffffffffff\n        /* \"#utility.yul\":15914:15920   */\n      dup2\n        /* \"#utility.yul\":15911:15941   */\n      gt\n        /* \"#utility.yul\":15908:16025   */\n      iszero\n      tag_580\n      jumpi\n        /* \"#utility.yul\":15944:16023   */\n      tag_581\n      tag_398\n      jump\t// in\n    tag_581:\n        /* \"#utility.yul\":15908:16025   */\n    tag_580:\n        /* \"#utility.yul\":16049:16112   */\n      tag_582\n        /* \"#utility.yul\":16104:16111   */\n      dup5\n        /* \"#utility.yul\":16095:16101   */\n      dup3\n        /* \"#utility.yul\":16084:16093   */\n      dup6\n        /* \"#utility.yul\":16080:16102   */\n      add\n        /* \"#utility.yul\":16049:16112   */\n      tag_409\n      jump\t// in\n    tag_582:\n        /* \"#utility.yul\":16039:16112   */\n      swap2\n      pop\n        /* \"#utility.yul\":15835:16122   */\n      pop\n        /* \"#utility.yul\":15620:16129   */\n      swap3\n      swap2\n      pop\n      pop\n      jump\t// out\n        /* \"#utility.yul\":16135:16225   */\n    tag_414:\n        /* \"#utility.yul\":16169:16176   */\n      0x00\n        /* \"#utility.yul\":16212:16217   */\n      dup2\n        /* \"#utility.yul\":16205:16218   */\n      iszero\n        /* \"#utility.yul\":16198:16219   */\n      iszero\n        /* \"#utility.yul\":16187:16219   */\n      swap1\n      pop\n        /* \"#utility.yul\":16135:16225   */\n      swap2\n      swap1\n      pop\n      jump\t// out\n        /* \"#utility.yul\":16231:16340   */\n    tag_415:\n        /* \"#utility.yul\":16312:16333   */\n      tag_585\n        /* \"#utility.yul\":16327:16332   */\n      dup2\n        /* \"#utility.yul\":16312:16333   */\n      tag_414\n      jump\t// in\n    tag_585:\n        /* \"#utility.yul\":16307:16310   */\n      dup3\n        /* \"#utility.yul\":16300:16334   */\n      mstore\n        /* \"#utility.yul\":16231:16340   */\n      pop\n      pop\n      jump\t// out\n        /* \"#utility.yul\":16346:16556   */\n    tag_49:\n        /* \"#utility.yul\":16433:16437   */\n      0x00\n        /* \"#utility.yul\":16471:16473   */\n      0x20\n        /* \"#utility.yul\":16460:16469   */\n      dup3\n        /* \"#utility.yul\":16456:16474   */\n      add\n        /* \"#utility.yul\":16448:16474   */\n      swap1\n      pop\n        /* \"#utility.yul\":16484:16549   */\n      tag_587\n        /* \"#utility.yul\":16546:16547   */\n      0x00\n        /* \"#utility.yul\":16535:16544   */\n      dup4\n        /* \"#utility.yul\":16531:16548   */\n      add\n        /* \"#utility.yul\":16522:16528   */\n      dup5\n        /* \"#utility.yul\":16484:16549   */\n      tag_415\n      jump\t// in\n    tag_587:\n        /* \"#utility.yul\":16346:16556   */\n      swap3\n      swap2\n      pop\n      pop\n      jump\t// out\n        /* \"#utility.yul\":16562:16731   */\n    tag_416:\n        /* \"#utility.yul\":16646:16657   */\n      0x00\n        /* \"#utility.yul\":16680:16686   */\n      dup3\n        /* \"#utility.yul\":16675:16678   */\n      dup3\n        /* \"#utility.yul\":16668:16687   */\n      mstore\n        /* \"#utility.yul\":16720:16724   */\n      0x20\n        /* \"#utility.yul\":16715:16718   */\n      dup3\n        /* \"#utility.yul\":16711:16725   */\n      add\n        /* \"#utility.yul\":16696:16725   */\n      swap1\n      pop\n        /* \"#utility.yul\":16562:16731   */\n      swap3\n      swap2\n      pop\n      pop\n      jump\t// out\n        /* \"#utility.yul\":16737:17114   */\n    tag_417:\n        /* \"#utility.yul\":16825:16828   */\n      0x00\n        /* \"#utility.yul\":16853:16892   */\n      tag_590\n        /* \"#utility.yul\":16886:16891   */\n      dup3\n        /* \"#utility.yul\":16853:16892   */\n      tag_378\n      jump\t// in\n    tag_590:\n        /* \"#utility.yul\":16908:16979   */\n      tag_591\n        /* \"#utility.yul\":16972:16978   */\n      dup2\n        /* \"#utility.yul\":16967:16970   */\n      dup6\n        /* \"#utility.yul\":16908:16979   */\n      tag_416\n      jump\t// in\n    tag_591:\n        /* \"#utility.yul\":16901:16979   */\n      swap4\n      pop\n        /* \"#utility.yul\":16988:17053   */\n      tag_592\n        /* \"#utility.yul\":17046:17052   */\n      dup2\n        /* \"#utility.yul\":17041:17044   */\n      dup6\n        /* \"#utility.yul\":17034:17038   */\n      0x20\n        /* \"#utility.yul\":17027:17032   */\n      dup7\n        /* \"#utility.yul\":17023:17039   */\n      add\n        /* \"#utility.yul\":16988:17053   */\n      tag_380\n      jump\t// in\n    tag_592:\n        /* \"#utility.yul\":17078:17107   */\n      tag_593\n        /* \"#utility.yul\":17100:17106   */\n      dup2\n        /* \"#utility.yul\":17078:17107   */\n      tag_381\n      jump\t// in\n    tag_593:\n        /* \"#utility.yul\":17073:17076   */\n      dup5\n        /* \"#utility.yul\":17069:17108   */\n      add\n        /* \"#utility.yul\":17062:17108   */\n      swap2\n      pop\n        /* \"#utility.yul\":16829:17114   */\n      pop\n        /* \"#utility.yul\":16737:17114   */\n      swap3\n      swap2\n      pop\n      pop\n      jump\t// out\n        /* \"#utility.yul\":17120:17433   */\n    tag_64:\n        /* \"#utility.yul\":17233:17237   */\n      0x00\n        /* \"#utility.yul\":17271:17273   */\n      0x20\n        /* \"#utility.yul\":17260:17269   */\n      dup3\n        /* \"#utility.yul\":17256:17274   */\n      add\n        /* \"#utility.yul\":17248:17274   */\n      swap1\n      pop\n        /* \"#utility.yul\":17320:17329   */\n      dup2\n        /* \"#utility.yul\":17314:17318   */\n      dup2\n        /* \"#utility.yul\":17310:17330   */\n      sub\n        /* \"#utility.yul\":17306:17307   */\n      0x00\n        /* \"#utility.yul\":17295:17304   */\n      dup4\n        /* \"#utility.yul\":17291:17308   */\n      add\n        /* \"#utility.yul\":17284:17331   */\n      mstore\n        /* \"#utility.yul\":17348:17426   */\n      tag_595\n        /* \"#utility.yul\":17421:17425   */\n      dup2\n        /* \"#utility.yul\":17412:17418   */\n      dup5\n        /* \"#utility.yul\":17348:17426   */\n      tag_417\n      jump\t// in\n    tag_595:\n        /* \"#utility.yul\":17340:17426   */\n      swap1\n      pop\n        /* \"#utility.yul\":17120:17433   */\n      swap3\n      swap2\n      pop\n      pop\n      jump\t// out\n        /* \"#utility.yul\":17439:17619   */\n    tag_418:\n        /* \"#utility.yul\":17487:17564   */\n      0x4e487b7100000000000000000000000000000000000000000000000000000000\n        /* \"#utility.yul\":17484:17485   */\n      0x00\n        /* \"#utility.yul\":17477:17565   */\n      mstore\n        /* \"#utility.yul\":17584:17588   */\n      0x22\n        /* \"#utility.yul\":17581:17582   */\n      0x04\n        /* \"#utility.yul\":17574:17589   */\n      mstore\n        /* \"#utility.yul\":17608:17612   */\n      0x24\n        /* \"#utility.yul\":17605:17606   */\n      0x00\n        /* \"#utility.yul\":17598:17613   */\n      revert\n        /* \"#utility.yul\":17625:17945   */\n    tag_70:\n        /* \"#utility.yul\":17669:17675   */\n      0x00\n        /* \"#utility.yul\":17706:17707   */\n      0x02\n        /* \"#utility.yul\":17700:17704   */\n      dup3\n        /* \"#utility.yul\":17696:17708   */\n      div\n        /* \"#utility.yul\":17686:17708   */\n      swap1\n      pop\n        /* \"#utility.yul\":17753:17754   */\n      0x01\n        /* \"#utility.yul\":17747:17751   */\n      dup3\n        /* \"#utility.yul\":17743:17755   */\n      and\n        /* \"#utility.yul\":17774:17792   */\n      dup1\n        /* \"#utility.yul\":17764:17845   */\n      tag_598\n      jumpi\n        /* \"#utility.yul\":17830:17834   */\n      0x7f\n        /* \"#utility.yul\":17822:17828   */\n      dup3\n        /* \"#utility.yul\":17818:17835   */\n      and\n        /* \"#utility.yul\":17808:17835   */\n      swap2\n      pop\n        /* \"#utility.yul\":17764:17845   */\n    tag_598:\n        /* \"#utility.yul\":17892:17894   */\n      0x20\n        /* \"#utility.yul\":17884:17890   */\n      dup3\n        /* \"#utility.yul\":17881:17895   */\n      lt\n        /* \"#utility.yul\":17861:17879   */\n      dup2\n        /* \"#utility.yul\":17858:17896   */\n      sub\n        /* \"#utility.yul\":17855:17939   */\n      tag_599\n      jumpi\n        /* \"#utility.yul\":17911:17929   */\n      tag_600\n      tag_418\n      jump\t// in\n    tag_600:\n        /* \"#utility.yul\":17855:17939   */\n    tag_599:\n        /* \"#utility.yul\":17676:17945   */\n      pop\n        /* \"#utility.yul\":17625:17945   */\n      swap2\n      swap1\n      pop\n      jump\t// out\n        /* \"#utility.yul\":17951:18131   */\n    tag_419:\n        /* \"#utility.yul\":17999:18076   */\n      0x4e487b7100000000000000000000000000000000000000000000000000000000\n        /* \"#utility.yul\":17996:17997   */\n      0x00\n        /* \"#utility.yul\":17989:18077   */\n      mstore\n        /* \"#utility.yul\":18096:18100   */\n      0x11\n        /* \"#utility.yul\":18093:18094   */\n      0x04\n        /* \"#utility.yul\":18086:18101   */\n      mstore\n        /* \"#utility.yul\":18120:18124   */\n      0x24\n        /* \"#utility.yul\":18117:18118   */\n      0x00\n        /* \"#utility.yul\":18110:18125   */\n      revert\n        /* \"#utility.yul\":18137:18331   */\n    tag_99:\n        /* \"#utility.yul\":18177:18181   */\n      0x00\n        /* \"#utility.yul\":18197:18217   */\n      tag_603\n        /* \"#utility.yul\":18215:18216   */\n      dup3\n        /* \"#utility.yul\":18197:18217   */\n      tag_383\n      jump\t// in\n    tag_603:\n        /* \"#utility.yul\":18192:18217   */\n      swap2\n      pop\n        /* \"#utility.yul\":18231:18251   */\n      tag_604\n        /* \"#utility.yul\":18249:18250   */\n      dup4\n        /* \"#utility.yul\":18231:18251   */\n      tag_383\n      jump\t// in\n    tag_604:\n        /* \"#utility.yul\":18226:18251   */\n      swap3\n      pop\n        /* \"#utility.yul\":18275:18276   */\n      dup3\n        /* \"#utility.yul\":18272:18273   */\n      dup3\n        /* \"#utility.yul\":18268:18277   */\n      sub\n        /* \"#utility.yul\":18260:18277   */\n      swap1\n      pop\n        /* \"#utility.yul\":18299:18300   */\n      dup2\n        /* \"#utility.yul\":18293:18297   */\n      dup2\n        /* \"#utility.yul\":18290:18301   */\n      gt\n        /* \"#utility.yul\":18287:18324   */\n      iszero\n      tag_605\n      jumpi\n        /* \"#utility.yul\":18304:18322   */\n      tag_606\n      tag_419\n      jump\t// in\n    tag_606:\n        /* \"#utility.yul\":18287:18324   */\n    tag_605:\n        /* \"#utility.yul\":18137:18331   */\n      swap3\n      swap2\n      pop\n      pop\n      jump\t// out\n        /* \"#utility.yul\":18337:18528   */\n    tag_104:\n        /* \"#utility.yul\":18377:18380   */\n      0x00\n        /* \"#utility.yul\":18396:18416   */\n      tag_608\n        /* \"#utility.yul\":18414:18415   */\n      dup3\n        /* \"#utility.yul\":18396:18416   */\n      tag_383\n      jump\t// in\n    tag_608:\n        /* \"#utility.yul\":18391:18416   */\n      swap2\n      pop\n        /* \"#utility.yul\":18430:18450   */\n      tag_609\n        /* \"#utility.yul\":18448:18449   */\n      dup4\n        /* \"#utility.yul\":18430:18450   */\n      tag_383\n      jump\t// in\n    tag_609:\n        /* \"#utility.yul\":18425:18450   */\n      swap3\n      pop\n        /* \"#utility.yul\":18473:18474   */\n      dup3\n        /* \"#utility.yul\":18470:18471   */\n      dup3\n        /* \"#utility.yul\":18466:18475   */\n      add\n        /* \"#utility.yul\":18459:18475   */\n      swap1\n      pop\n        /* \"#utility.yul\":18494:18497   */\n      dup1\n        /* \"#utility.yul\":18491:18492   */\n      dup3\n        /* \"#utility.yul\":18488:18498   */\n      gt\n        /* \"#utility.yul\":18485:18521   */\n      iszero\n      tag_610\n      jumpi\n        /* \"#utility.yul\":18501:18519   */\n      tag_611\n      tag_419\n      jump\t// in\n    tag_611:\n        /* \"#utility.yul\":18485:18521   */\n    tag_610:\n        /* \"#utility.yul\":18337:18528   */\n      swap3\n      swap2\n      pop\n      pop\n      jump\t// out\n        /* \"#utility.yul\":18534:18714   */\n    tag_107:\n        /* \"#utility.yul\":18582:18659   */\n      0x4e487b7100000000000000000000000000000000000000000000000000000000\n        /* \"#utility.yul\":18579:18580   */\n      0x00\n        /* \"#utility.yul\":18572:18660   */\n      mstore\n        /* \"#utility.yul\":18679:18683   */\n      0x32\n        /* \"#utility.yul\":18676:18677   */\n      0x04\n        /* \"#utility.yul\":18669:18684   */\n      mstore\n        /* \"#utility.yul\":18703:18707   */\n      0x24\n        /* \"#utility.yul\":18700:18701   */\n      0x00\n        /* \"#utility.yul\":18693:18708   */\n      revert\n        /* \"#utility.yul\":18720:18953   */\n    tag_120:\n        /* \"#utility.yul\":18759:18762   */\n      0x00\n        /* \"#utility.yul\":18782:18806   */\n      tag_614\n        /* \"#utility.yul\":18800:18805   */\n      dup3\n        /* \"#utility.yul\":18782:18806   */\n      tag_383\n      jump\t// in\n    tag_614:\n        /* \"#utility.yul\":18773:18806   */\n      swap2\n      pop\n        /* \"#utility.yul\":18828:18894   */\n      0xffffffffffffffffffffffffffffffffffffffffffffffffffffffffffffffff\n        /* \"#utility.yul\":18821:18826   */\n      dup3\n        /* \"#utility.yul\":18818:18895   */\n      sub\n        /* \"#utility.yul\":18815:18918   */\n      tag_615\n      jumpi\n        /* \"#utility.yul\":18898:18916   */\n      tag_616\n      tag_419\n      jump\t// in\n    tag_616:\n        /* \"#utility.yul\":18815:18918   */\n    tag_615:\n        /* \"#utility.yul\":18945:18946   */\n      0x01\n        /* \"#utility.yul\":18938:18943   */\n      dup3\n        /* \"#utility.yul\":18934:18947   */\n      add\n        /* \"#utility.yul\":18927:18947   */\n      swap1\n      pop\n        /* \"#utility.yul\":18720:18953   */\n      swap2\n      swap1\n      pop\n      jump\t// out\n        /* \"#utility.yul\":18959:19139   */\n    tag_420:\n        /* \"#utility.yul\":19007:19084   */\n      0x4e487b7100000000000000000000000000000000000000000000000000000000\n        /* \"#utility.yul\":19004:19005   */\n      0x00\n        /* \"#utility.yul\":18997:19085   */\n      mstore\n        /* \"#utility.yul\":19104:19108   */\n      0x12\n        /* \"#utility.yul\":19101:19102   */\n      0x04\n        /* \"#utility.yul\":19094:19109   */\n      mstore\n        /* \"#utility.yul\":19128:19132   */\n      0x24\n        /* \"#utility.yul\":19125:19126   */\n      0x00\n        /* \"#utility.yul\":19118:19133   */\n      revert\n        /* \"#utility.yul\":19145:19330   */\n    tag_140:\n        /* \"#utility.yul\":19185:19186   */\n      0x00\n        /* \"#utility.yul\":19202:19222   */\n      tag_619\n        /* \"#utility.yul\":19220:19221   */\n      dup3\n        /* \"#utility.yul\":19202:19222   */\n      tag_383\n      jump\t// in\n    tag_619:\n        /* \"#utility.yul\":19197:19222   */\n      swap2\n      pop\n        /* \"#utility.yul\":19236:19256   */\n      tag_620\n        /* \"#utility.yul\":19254:19255   */\n      dup4\n        /* \"#utility.yul\":19236:19256   */\n      tag_383\n      jump\t// in\n    tag_620:\n        /* \"#utility.yul\":19231:19256   */\n      swap3\n      pop\n        /* \"#utility.yul\":19275:19276   */\n      dup3\n        /* \"#utility.yul\":19265:19300   */\n      tag_621\n      jumpi\n        /* \"#utility.yul\":19280:19298   */\n      tag_622\n      tag_420\n      jump\t// in\n    tag_622:\n        /* \"#utility.yul\":19265:19300   */\n    tag_621:\n        /* \"#utility.yul\":19322:19323   */\n      dup3\n        /* \"#utility.yul\":19319:19320   */\n      dup3\n        /* \"#utility.yul\":19315:19324   */\n      div\n        /* \"#utility.yul\":19310:19324   */\n      swap1\n      pop\n        /* \"#utility.yul\":19145:19330   */\n      swap3\n      swap2\n      pop\n      pop\n      jump\t// out\n        /* \"#utility.yul\":19336:19483   */\n    tag_421:\n        /* \"#utility.yul\":19437:19448   */\n      0x00\n        /* \"#utility.yul\":19474:19477   */\n      dup2\n        /* \"#utility.yul\":19459:19477   */\n      swap1\n      pop\n        /* \"#utility.yul\":19336:19483   */\n      swap3\n      swap2\n      pop\n      pop\n      jump\t// out\n        /* \"#utility.yul\":19489:19633   */\n    tag_422:\n        /* \"#utility.yul\":19541:19545   */\n      0x00\n        /* \"#utility.yul\":19564:19567   */\n      dup2\n        /* \"#utility.yul\":19556:19567   */\n      swap1\n      pop\n        /* \"#utility.yul\":19587:19590   */\n      dup2\n        /* \"#utility.yul\":19584:19585   */\n      0x00\n        /* \"#utility.yul\":19577:19591   */\n      mstore\n        /* \"#utility.yul\":19621:19625   */\n      0x20\n        /* \"#utility.yul\":19618:19619   */\n      0x00\n        /* \"#utility.yul\":19608:19626   */\n      keccak256\n        /* \"#utility.yul\":19600:19626   */\n      swap1\n      pop\n        /* \"#utility.yul\":19489:19633   */\n      swap2\n      swap1\n      pop\n      jump\t// out\n        /* \"#utility.yul\":19661:20539   */\n    tag_423:\n        /* \"#utility.yul\":19766:19769   */\n      0x00\n        /* \"#utility.yul\":19803:19808   */\n      dup2\n        /* \"#utility.yul\":19797:19809   */\n      sload\n        /* \"#utility.yul\":19832:19868   */\n      tag_626\n        /* \"#utility.yul\":19858:19867   */\n      dup2\n        /* \"#utility.yul\":19832:19868   */\n      tag_70\n      jump\t// in\n    tag_626:\n        /* \"#utility.yul\":19884:19972   */\n      tag_627\n        /* \"#utility.yul\":19965:19971   */\n      dup2\n        /* \"#utility.yul\":19960:19963   */\n      dup7\n        /* \"#utility.yul\":19884:19972   */\n      tag_421\n      jump\t// in\n    tag_627:\n        /* \"#utility.yul\":19877:19972   */\n      swap5\n      pop\n        /* \"#utility.yul\":20003:20004   */\n      0x01\n        /* \"#utility.yul\":19992:20001   */\n      dup3\n        /* \"#utility.yul\":19988:20005   */\n      and\n        /* \"#utility.yul\":20019:20020   */\n      0x00\n        /* \"#utility.yul\":20014:20180   */\n      dup2\n      eq\n      tag_629\n      jumpi\n        /* \"#utility.yul\":20194:20195   */\n      0x01\n        /* \"#utility.yul\":20189:20533   */\n      dup2\n      eq\n      tag_630\n      jumpi\n        /* \"#utility.yul\":19981:20533   */\n      jump(tag_628)\n        /* \"#utility.yul\":20014:20180   */\n    tag_629:\n        /* \"#utility.yul\":20098:20102   */\n      0xff\n        /* \"#utility.yul\":20094:20103   */\n      not\n        /* \"#utility.yul\":20083:20092   */\n      dup4\n        /* \"#utility.yul\":20079:20104   */\n      and\n        /* \"#utility.yul\":20074:20077   */\n      dup7\n        /* \"#utility.yul\":20067:20105   */\n      mstore\n        /* \"#utility.yul\":20160:20166   */\n      dup2\n        /* \"#utility.yul\":20153:20167   */\n      iszero\n        /* \"#utility.yul\":20146:20168   */\n      iszero\n        /* \"#utility.yul\":20138:20144   */\n      dup3\n        /* \"#utility.yul\":20134:20169   */\n      mul\n        /* \"#utility.yul\":20129:20132   */\n      dup7\n        /* \"#utility.yul\":20125:20170   */\n      add\n        /* \"#utility.yul\":20118:20170   */\n      swap4\n      pop\n        /* \"#utility.yul\":20014:20180   */\n      jump(tag_628)\n        /* \"#utility.yul\":20189:20533   */\n    tag_630:\n        /* \"#utility.yul\":20256:20297   */\n      tag_631\n        /* \"#utility.yul\":20291:20296   */\n      dup6\n        /* \"#utility.yul\":20256:20297   */\n      tag_422\n      jump\t// in\n    tag_631:\n        /* \"#utility.yul\":20319:20320   */\n      0x00\n        /* \"#utility.yul\":20333:20487   */\n    tag_632:\n        /* \"#utility.yul\":20347:20353   */\n      dup4\n        /* \"#utility.yul\":20344:20345   */\n      dup2\n        /* \"#utility.yul\":20341:20354   */\n      lt\n        /* \"#utility.yul\":20333:20487   */\n      iszero\n      tag_634\n      jumpi\n        /* \"#utility.yul\":20421:20428   */\n      dup2\n        /* \"#utility.yul\":20415:20429   */\n      sload\n        /* \"#utility.yul\":20411:20412   */\n      dup2\n        /* \"#utility.yul\":20406:20409   */\n      dup10\n        /* \"#utility.yul\":20402:20413   */\n      add\n        /* \"#utility.yul\":20395:20430   */\n      mstore\n        /* \"#utility.yul\":20471:20472   */\n      0x01\n        /* \"#utility.yul\":20462:20469   */\n      dup3\n        /* \"#utility.yul\":20458:20473   */\n      add\n        /* \"#utility.yul\":20447:20473   */\n      swap2\n      pop\n        /* \"#utility.yul\":20369:20373   */\n      0x20\n        /* \"#utility.yul\":20366:20367   */\n      dup2\n        /* \"#utility.yul\":20362:20374   */\n      add\n        /* \"#utility.yul\":20357:20374   */\n      swap1\n      pop\n        /* \"#utility.yul\":20333:20487   */\n      jump(tag_632)\n    tag_634:\n        /* \"#utility.yul\":20516:20522   */\n      dup4\n        /* \"#utility.yul\":20511:20514   */\n      dup9\n        /* \"#utility.yul\":20507:20523   */\n      add\n        /* \"#utility.yul\":20500:20523   */\n      swap6\n      pop\n        /* \"#utility.yul\":20196:20533   */\n      pop\n      pop\n        /* \"#utility.yul\":19981:20533   */\n    tag_628:\n      pop\n        /* \"#utility.yul\":19770:20539   */\n      pop\n      pop\n        /* \"#utility.yul\":19661:20539   */\n      swap3\n      swap2\n      pop\n      pop\n      jump\t// out\n        /* \"#utility.yul\":20545:20818   */\n    tag_170:\n        /* \"#utility.yul\":20676:20679   */\n      0x00\n        /* \"#utility.yul\":20698:20792   */\n      tag_636\n        /* \"#utility.yul\":20788:20791   */\n      dup3\n        /* \"#utility.yul\":20779:20785   */\n      dup5\n        /* \"#utility.yul\":20698:20792   */\n      tag_423\n      jump\t// in\n    tag_636:\n        /* \"#utility.yul\":20691:20792   */\n      swap2\n      pop\n        /* \"#utility.yul\":20809:20812   */\n      dup2\n        /* \"#utility.yul\":20802:20812   */\n      swap1\n      pop\n        /* \"#utility.yul\":20545:20818   */\n      swap3\n      swap2\n      pop\n      pop\n      jump\t// out\n        /* \"#utility.yul\":20824:20965   */\n    tag_424:\n        /* \"#utility.yul\":20873:20877   */\n      0x00\n        /* \"#utility.yul\":20896:20899   */\n      dup2\n        /* \"#utility.yul\":20888:20899   */\n      swap1\n      pop\n        /* \"#utility.yul\":20919:20922   */\n      dup2\n        /* \"#utility.yul\":20916:20917   */\n      0x00\n        /* \"#utility.yul\":20909:20923   */\n      mstore\n        /* \"#utility.yul\":20953:20957   */\n      0x20\n        /* \"#utility.yul\":20950:20951   */\n      0x00\n        /* \"#utility.yul\":20940:20958   */\n      keccak256\n        /* \"#utility.yul\":20932:20958   */\n      swap1\n      pop\n        /* \"#utility.yul\":20824:20965   */\n      swap2\n      swap1\n      pop\n      jump\t// out\n        /* \"#utility.yul\":20971:21064   */\n    tag_425:\n        /* \"#utility.yul\":21008:21014   */\n      0x00\n        /* \"#utility.yul\":21055:21057   */\n      0x20\n        /* \"#utility.yul\":21050:21052   */\n      0x1f\n        /* \"#utility.yul\":21043:21048   */\n      dup4\n        /* \"#utility.yul\":21039:21053   */\n      add\n        /* \"#utility.yul\":21035:21058   */\n      div\n        /* \"#utility.yul\":21025:21058   */\n      swap1\n      pop\n        /* \"#utility.yul\":20971:21064   */\n      swap2\n      swap1\n      pop\n      jump\t// out\n        /* \"#utility.yul\":21070:21177   */\n    tag_426:\n        /* \"#utility.yul\":21114:21122   */\n      0x00\n        /* \"#utility.yul\":21164:21169   */\n      dup3\n        /* \"#utility.yul\":21158:21162   */\n      dup3\n        /* \"#utility.yul\":21154:21170   */\n      shl\n        /* \"#utility.yul\":21133:21170   */\n      swap1\n      pop\n        /* \"#utility.yul\":21070:21177   */\n      swap3\n      swap2\n      pop\n      pop\n      jump\t// out\n        /* \"#utility.yul\":21183:21576   */\n    tag_427:\n        /* \"#utility.yul\":21252:21258   */\n      0x00\n        /* \"#utility.yul\":21302:21303   */\n      0x08\n        /* \"#utility.yul\":21290:21300   */\n      dup4\n        /* \"#utility.yul\":21286:21304   */\n      mul\n        /* \"#utility.yul\":21325:21422   */\n      tag_641\n        /* \"#utility.yul\":21355:21421   */\n      0xffffffffffffffffffffffffffffffffffffffffffffffffffffffffffffffff\n        /* \"#utility.yul\":21344:21353   */\n      dup3\n        /* \"#utility.yul\":21325:21422   */\n      tag_426\n      jump\t// in\n    tag_641:\n        /* \"#utility.yul\":21443:21482   */\n      tag_642\n        /* \"#utility.yul\":21473:21481   */\n      dup7\n        /* \"#utility.yul\":21462:21471   */\n      dup4\n        /* \"#utility.yul\":21443:21482   */\n      tag_426\n      jump\t// in\n    tag_642:\n        /* \"#utility.yul\":21431:21482   */\n      swap6\n      pop\n        /* \"#utility.yul\":21515:21519   */\n      dup1\n        /* \"#utility.yul\":21511:21520   */\n      not\n        /* \"#utility.yul\":21504:21509   */\n      dup5\n        /* \"#utility.yul\":21500:21521   */\n      and\n        /* \"#utility.yul\":21491:21521   */\n      swap4\n      pop\n        /* \"#utility.yul\":21564:21568   */\n      dup1\n        /* \"#utility.yul\":21554:21562   */\n      dup7\n        /* \"#utility.yul\":21550:21569   */\n      and\n        /* \"#utility.yul\":21543:21548   */\n      dup5\n        /* \"#utility.yul\":21540:21570   */\n      or\n        /* \"#utility.yul\":21530:21570   */\n      swap3\n      pop\n        /* \"#utility.yul\":21259:21576   */\n      pop\n      pop\n        /* \"#utility.yul\":21183:21576   */\n      swap4\n      swap3\n      pop\n      pop\n      pop\n      jump\t// out\n        /* \"#utility.yul\":21582:21642   */\n    tag_428:\n        /* \"#utility.yul\":21610:21613   */\n      0x00\n        /* \"#utility.yul\":21631:21636   */\n      dup2\n        /* \"#utility.yul\":21624:21636   */\n      swap1\n      pop\n        /* \"#utility.yul\":21582:21642   */\n      swap2\n      swap1\n      pop\n      jump\t// out\n        /* \"#utility.yul\":21648:21790   */\n    tag_429:\n        /* \"#utility.yul\":21698:21707   */\n      0x00\n        /* \"#utility.yul\":21731:21784   */\n      tag_645\n        /* \"#utility.yul\":21749:21783   */\n      tag_646\n        /* \"#utility.yul\":21758:21782   */\n      tag_647\n        /* \"#utility.yul\":21776:21781   */\n      dup5\n        /* \"#utility.yul\":21758:21782   */\n      tag_383\n      jump\t// in\n    tag_647:\n        /* \"#utility.yul\":21749:21783   */\n      tag_428\n      jump\t// in\n    tag_646:\n        /* \"#utility.yul\":21731:21784   */\n      tag_383\n      jump\t// in\n    tag_645:\n        /* \"#utility.yul\":21718:21784   */\n      swap1\n      pop\n        /* \"#utility.yul\":21648:21790   */\n      swap2\n      swap1\n      pop\n      jump\t// out\n        /* \"#utility.yul\":21796:21871   */\n    tag_430:\n        /* \"#utility.yul\":21839:21842   */\n      0x00\n        /* \"#utility.yul\":21860:21865   */\n      dup2\n        /* \"#utility.yul\":21853:21865   */\n      swap1\n      pop\n        /* \"#utility.yul\":21796:21871   */\n      swap2\n      swap1\n      pop\n      jump\t// out\n        /* \"#utility.yul\":21877:22146   */\n    tag_431:\n        /* \"#utility.yul\":21987:22026   */\n      tag_650\n        /* \"#utility.yul\":22018:22025   */\n      dup4\n        /* \"#utility.yul\":21987:22026   */\n      tag_429\n      jump\t// in\n    tag_650:\n        /* \"#utility.yul\":22048:22139   */\n      tag_651\n        /* \"#utility.yul\":22097:22138   */\n      tag_652\n        /* \"#utility.yul\":22121:22137   */\n      dup3\n        /* \"#utility.yul\":22097:22138   */\n      tag_430\n      jump\t// in\n    tag_652:\n        /* \"#utility.yul\":22089:22095   */\n      dup5\n        /* \"#utility.yul\":22082:22086   */\n      dup5\n        /* \"#utility.yul\":22076:22087   */\n      sload\n        /* \"#utility.yul\":22048:22139   */\n      tag_427\n      jump\t// in\n    tag_651:\n        /* \"#utility.yul\":22042:22046   */\n      dup3\n        /* \"#utility.yul\":22035:22140   */\n      sstore\n        /* \"#utility.yul\":21953:22146   */\n      pop\n        /* \"#utility.yul\":21877:22146   */\n      pop\n      pop\n      pop\n      jump\t// out\n        /* \"#utility.yul\":22152:22225   */\n    tag_432:\n        /* \"#utility.yul\":22197:22200   */\n      0x00\n        /* \"#utility.yul\":22152:22225   */\n      swap1\n      jump\t// out\n        /* \"#utility.yul\":22231:22420   */\n    tag_433:\n        /* \"#utility.yul\":22308:22340   */\n      tag_655\n      tag_432\n      jump\t// in\n    tag_655:\n        /* \"#utility.yul\":22349:22414   */\n      tag_656\n        /* \"#utility.yul\":22407:22413   */\n      dup2\n        /* \"#utility.yul\":22399:22405   */\n      dup5\n        /* \"#utility.yul\":22393:22397   */\n      dup5\n        /* \"#utility.yul\":22349:22414   */\n      tag_431\n      jump\t// in\n    tag_656:\n        /* \"#utility.yul\":22284:22420   */\n      pop\n        /* \"#utility.yul\":22231:22420   */\n      pop\n      pop\n      jump\t// out\n        /* \"#utility.yul\":22426:22612   */\n    tag_434:\n        /* \"#utility.yul\":22486:22606   */\n    tag_658:\n        /* \"#utility.yul\":22503:22506   */\n      dup2\n        /* \"#utility.yul\":22496:22501   */\n      dup2\n        /* \"#utility.yul\":22493:22507   */\n      lt\n        /* \"#utility.yul\":22486:22606   */\n      iszero\n      tag_660\n      jumpi\n        /* \"#utility.yul\":22557:22596   */\n      tag_661\n        /* \"#utility.yul\":22594:22595   */\n      0x00\n        /* \"#utility.yul\":22587:22592   */\n      dup3\n        /* \"#utility.yul\":22557:22596   */\n      tag_433\n      jump\t// in\n    tag_661:\n        /* \"#utility.yul\":22530:22531   */\n      0x01\n        /* \"#utility.yul\":22523:22528   */\n      dup2\n        /* \"#utility.yul\":22519:22532   */\n      add\n        /* \"#utility.yul\":22510:22532   */\n      swap1\n      pop\n        /* \"#utility.yul\":22486:22606   */\n      jump(tag_658)\n    tag_660:\n        /* \"#utility.yul\":22426:22612   */\n      pop\n      pop\n      jump\t// out\n        /* \"#utility.yul\":22618:23161   */\n    tag_435:\n        /* \"#utility.yul\":22719:22721   */\n      0x1f\n        /* \"#utility.yul\":22714:22717   */\n      dup3\n        /* \"#utility.yul\":22711:22722   */\n      gt\n        /* \"#utility.yul\":22708:23154   */\n      iszero\n      tag_663\n      jumpi\n        /* \"#utility.yul\":22753:22791   */\n      tag_664\n        /* \"#utility.yul\":22785:22790   */\n      dup2\n        /* \"#utility.yul\":22753:22791   */\n      tag_424\n      jump\t// in\n    tag_664:\n        /* \"#utility.yul\":22837:22866   */\n      tag_665\n        /* \"#utility.yul\":22855:22865   */\n      dup5\n        /* \"#utility.yul\":22837:22866   */\n      tag_425\n      jump\t// in\n    tag_665:\n        /* \"#utility.yul\":22827:22835   */\n      dup2\n        /* \"#utility.yul\":22823:22867   */\n      add\n        /* \"#utility.yul\":23020:23022   */\n      0x20\n        /* \"#utility.yul\":23008:23018   */\n      dup6\n        /* \"#utility.yul\":23005:23023   */\n      lt\n        /* \"#utility.yul\":23002:23051   */\n      iszero\n      tag_666\n      jumpi\n        /* \"#utility.yul\":23041:23049   */\n      dup2\n        /* \"#utility.yul\":23026:23049   */\n      swap1\n      pop\n        /* \"#utility.yul\":23002:23051   */\n    tag_666:\n        /* \"#utility.yul\":23064:23144   */\n      tag_667\n        /* \"#utility.yul\":23120:23142   */\n      tag_668\n        /* \"#utility.yul\":23138:23141   */\n      dup6\n        /* \"#utility.yul\":23120:23142   */\n      tag_425\n      jump\t// in\n    tag_668:\n        /* \"#utility.yul\":23110:23118   */\n      dup4\n        /* \"#utility.yul\":23106:23143   */\n      add\n        /* \"#utility.yul\":23093:23104   */\n      dup3\n        /* \"#utility.yul\":23064:23144   */\n      tag_434\n      jump\t// in\n    tag_667:\n        /* \"#utility.yul\":22723:23154   */\n      pop\n      pop\n        /* \"#utility.yul\":22708:23154   */\n    tag_663:\n        /* \"#utility.yul\":22618:23161   */\n      pop\n      pop\n      pop\n      jump\t// out\n        /* \"#utility.yul\":23167:23284   */\n    tag_436:\n        /* \"#utility.yul\":23221:23229   */\n      0x00\n        /* \"#utility.yul\":23271:23276   */\n      dup3\n        /* \"#utility.yul\":23265:23269   */\n      dup3\n        /* \"#utility.yul\":23261:23277   */\n      shr\n        /* \"#utility.yul\":23240:23277   */\n      swap1\n      pop\n        /* \"#utility.yul\":23167:23284   */\n      swap3\n      swap2\n      pop\n      pop\n      jump\t// out\n        /* \"#utility.yul\":23290:23459   */\n    tag_437:\n        /* \"#utility.yul\":23334:23340   */\n      0x00\n        /* \"#utility.yul\":23367:23418   */\n      tag_671\n        /* \"#utility.yul\":23415:23416   */\n      0x00\n        /* \"#utility.yul\":23411:23417   */\n      not\n        /* \"#utility.yul\":23403:23408   */\n      dup5\n        /* \"#utility.yul\":23400:23401   */\n      0x08\n        /* \"#utility.yul\":23396:23409   */\n      mul\n        /* \"#utility.yul\":23367:23418   */\n      tag_436\n      jump\t// in\n    tag_671:\n        /* \"#utility.yul\":23363:23419   */\n      not\n        /* \"#utility.yul\":23448:23452   */\n      dup1\n        /* \"#utility.yul\":23442:23446   */\n      dup4\n        /* \"#utility.yul\":23438:23453   */\n      and\n        /* \"#utility.yul\":23428:23453   */\n      swap2\n      pop\n        /* \"#utility.yul\":23341:23459   */\n      pop\n        /* \"#utility.yul\":23290:23459   */\n      swap3\n      swap2\n      pop\n      pop\n      jump\t// out\n        /* \"#utility.yul\":23464:23759   */\n    tag_438:\n        /* \"#utility.yul\":23540:23544   */\n      0x00\n        /* \"#utility.yul\":23686:23715   */\n      tag_673\n        /* \"#utility.yul\":23711:23714   */\n      dup4\n        /* \"#utility.yul\":23705:23709   */\n      dup4\n        /* \"#utility.yul\":23686:23715   */\n      tag_437\n      jump\t// in\n    tag_673:\n        /* \"#utility.yul\":23678:23715   */\n      swap2\n      pop\n        /* \"#utility.yul\":23748:23751   */\n      dup3\n        /* \"#utility.yul\":23745:23746   */\n      0x02\n        /* \"#utility.yul\":23741:23752   */\n      mul\n        /* \"#utility.yul\":23735:23739   */\n      dup3\n        /* \"#utility.yul\":23732:23753   */\n      or\n        /* \"#utility.yul\":23724:23753   */\n      swap1\n      pop\n        /* \"#utility.yul\":23464:23759   */\n      swap3\n      swap2\n      pop\n      pop\n      jump\t// out\n        /* \"#utility.yul\":23764:25159   */\n    tag_240:\n        /* \"#utility.yul\":23881:23918   */\n      tag_675\n        /* \"#utility.yul\":23914:23917   */\n      dup3\n        /* \"#utility.yul\":23881:23918   */\n      tag_378\n      jump\t// in\n    tag_675:\n        /* \"#utility.yul\":23983:24001   */\n      0xffffffffffffffff\n        /* \"#utility.yul\":23975:23981   */\n      dup2\n        /* \"#utility.yul\":23972:24002   */\n      gt\n        /* \"#utility.yul\":23969:24025   */\n      iszero\n      tag_676\n      jumpi\n        /* \"#utility.yul\":24005:24023   */\n      tag_677\n      tag_90\n      jump\t// in\n    tag_677:\n        /* \"#utility.yul\":23969:24025   */\n    tag_676:\n        /* \"#utility.yul\":24049:24087   */\n      tag_678\n        /* \"#utility.yul\":24081:24085   */\n      dup3\n        /* \"#utility.yul\":24075:24086   */\n      sload\n        /* \"#utility.yul\":24049:24087   */\n      tag_70\n      jump\t// in\n    tag_678:\n        /* \"#utility.yul\":24134:24201   */\n      tag_679\n        /* \"#utility.yul\":24194:24200   */\n      dup3\n        /* \"#utility.yul\":24186:24192   */\n      dup3\n        /* \"#utility.yul\":24180:24184   */\n      dup6\n        /* \"#utility.yul\":24134:24201   */\n      tag_435\n      jump\t// in\n    tag_679:\n        /* \"#utility.yul\":24228:24229   */\n      0x00\n        /* \"#utility.yul\":24252:24256   */\n      0x20\n        /* \"#utility.yul\":24239:24256   */\n      swap1\n      pop\n        /* \"#utility.yul\":24284:24286   */\n      0x1f\n        /* \"#utility.yul\":24276:24282   */\n      dup4\n        /* \"#utility.yul\":24273:24287   */\n      gt\n        /* \"#utility.yul\":24301:24302   */\n      0x01\n        /* \"#utility.yul\":24296:24914   */\n      dup2\n      eq\n      tag_681\n      jumpi\n        /* \"#utility.yul\":24958:24959   */\n      0x00\n        /* \"#utility.yul\":24975:24981   */\n      dup5\n        /* \"#utility.yul\":24972:25049   */\n      iszero\n      tag_682\n      jumpi\n        /* \"#utility.yul\":25024:25033   */\n      dup3\n        /* \"#utility.yul\":25019:25022   */\n      dup8\n        /* \"#utility.yul\":25015:25034   */\n      add\n        /* \"#utility.yul\":25009:25035   */\n      mload\n        /* \"#utility.yul\":25000:25035   */\n      swap1\n      pop\n        /* \"#utility.yul\":24972:25049   */\n    tag_682:\n        /* \"#utility.yul\":25075:25142   */\n      tag_683\n        /* \"#utility.yul\":25135:25141   */\n      dup6\n        /* \"#utility.yul\":25128:25133   */\n      dup3\n        /* \"#utility.yul\":25075:25142   */\n      tag_438\n      jump\t// in\n    tag_683:\n        /* \"#utility.yul\":25069:25073   */\n      dup7\n        /* \"#utility.yul\":25062:25143   */\n      sstore\n        /* \"#utility.yul\":24931:25153   */\n      pop\n        /* \"#utility.yul\":24266:25153   */\n      jump(tag_680)\n        /* \"#utility.yul\":24296:24914   */\n    tag_681:\n        /* \"#utility.yul\":24348:24352   */\n      0x1f\n        /* \"#utility.yul\":24344:24353   */\n      not\n        /* \"#utility.yul\":24336:24342   */\n      dup5\n        /* \"#utility.yul\":24332:24354   */\n      and\n        /* \"#utility.yul\":24382:24419   */\n      tag_684\n        /* \"#utility.yul\":24414:24418   */\n      dup7\n        /* \"#utility.yul\":24382:24419   */\n      tag_424\n      jump\t// in\n    tag_684:\n        /* \"#utility.yul\":24441:24442   */\n      0x00\n        /* \"#utility.yul\":24455:24663   */\n    tag_685:\n        /* \"#utility.yul\":24469:24476   */\n      dup3\n        /* \"#utility.yul\":24466:24467   */\n      dup2\n        /* \"#utility.yul\":24463:24477   */\n      lt\n        /* \"#utility.yul\":24455:24663   */\n      iszero\n      tag_687\n      jumpi\n        /* \"#utility.yul\":24548:24557   */\n      dup5\n        /* \"#utility.yul\":24543:24546   */\n      dup10\n        /* \"#utility.yul\":24539:24558   */\n      add\n        /* \"#utility.yul\":24533:24559   */\n      mload\n        /* \"#utility.yul\":24525:24531   */\n      dup3\n        /* \"#utility.yul\":24518:24560   */\n      sstore\n        /* \"#utility.yul\":24599:24600   */\n      0x01\n        /* \"#utility.yul\":24591:24597   */\n      dup3\n        /* \"#utility.yul\":24587:24601   */\n      add\n        /* \"#utility.yul\":24577:24601   */\n      swap2\n      pop\n        /* \"#utility.yul\":24646:24648   */\n      0x20\n        /* \"#utility.yul\":24635:24644   */\n      dup6\n        /* \"#utility.yul\":24631:24649   */\n      add\n        /* \"#utility.yul\":24618:24649   */\n      swap5\n      pop\n        /* \"#utility.yul\":24492:24496   */\n      0x20\n        /* \"#utility.yul\":24489:24490   */\n      dup2\n        /* \"#utility.yul\":24485:24497   */\n      add\n        /* \"#utility.yul\":24480:24497   */\n      swap1\n      pop\n        /* \"#utility.yul\":24455:24663   */\n      jump(tag_685)\n    tag_687:\n        /* \"#utility.yul\":24691:24697   */\n      dup7\n        /* \"#utility.yul\":24682:24689   */\n      dup4\n        /* \"#utility.yul\":24679:24698   */\n      lt\n        /* \"#utility.yul\":24676:24855   */\n      iszero\n      tag_688\n      jumpi\n        /* \"#utility.yul\":24749:24758   */\n      dup5\n        /* \"#utility.yul\":24744:24747   */\n      dup10\n        /* \"#utility.yul\":24740:24759   */\n      add\n        /* \"#utility.yul\":24734:24760   */\n      mload\n        /* \"#utility.yul\":24792:24840   */\n      tag_689\n        /* \"#utility.yul\":24834:24838   */\n      0x1f\n        /* \"#utility.yul\":24826:24832   */\n      dup10\n        /* \"#utility.yul\":24822:24839   */\n      and\n        /* \"#utility.yul\":24811:24820   */\n      dup3\n        /* \"#utility.yul\":24792:24840   */\n      tag_437\n      jump\t// in\n    tag_689:\n        /* \"#utility.yul\":24784:24790   */\n      dup4\n        /* \"#utility.yul\":24777:24841   */\n      sstore\n        /* \"#utility.yul\":24699:24855   */\n      pop\n        /* \"#utility.yul\":24676:24855   */\n    tag_688:\n        /* \"#utility.yul\":24901:24902   */\n      0x01\n        /* \"#utility.yul\":24897:24898   */\n      0x02\n        /* \"#utility.yul\":24889:24895   */\n      dup9\n        /* \"#utility.yul\":24885:24899   */\n      mul\n        /* \"#utility.yul\":24881:24903   */\n      add\n        /* \"#utility.yul\":24875:24879   */\n      dup9\n        /* \"#utility.yul\":24868:24904   */\n      sstore\n        /* \"#utility.yul\":24303:24914   */\n      pop\n      pop\n      pop\n        /* \"#utility.yul\":24266:25153   */\n    tag_680:\n      pop\n        /* \"#utility.yul\":23856:25159   */\n      pop\n      pop\n      pop\n        /* \"#utility.yul\":23764:25159   */\n      pop\n      pop\n      jump\t// out\n        /* \"#utility.yul\":25165:25313   */\n    tag_439:\n        /* \"#utility.yul\":25267:25278   */\n      0x00\n        /* \"#utility.yul\":25304:25307   */\n      dup2\n        /* \"#utility.yul\":25289:25307   */\n      swap1\n      pop\n        /* \"#utility.yul\":25165:25313   */\n      swap3\n      swap2\n      pop\n      pop\n      jump\t// out\n        /* \"#utility.yul\":25319:25709   */\n    tag_440:\n        /* \"#utility.yul\":25425:25428   */\n      0x00\n        /* \"#utility.yul\":25453:25492   */\n      tag_692\n        /* \"#utility.yul\":25486:25491   */\n      dup3\n        /* \"#utility.yul\":25453:25492   */\n      tag_378\n      jump\t// in\n    tag_692:\n        /* \"#utility.yul\":25508:25597   */\n      tag_693\n        /* \"#utility.yul\":25590:25596   */\n      dup2\n        /* \"#utility.yul\":25585:25588   */\n      dup6\n        /* \"#utility.yul\":25508:25597   */\n      tag_439\n      jump\t// in\n    tag_693:\n        /* \"#utility.yul\":25501:25597   */\n      swap4\n      pop\n        /* \"#utility.yul\":25606:25671   */\n      tag_694\n        /* \"#utility.yul\":25664:25670   */\n      dup2\n        /* \"#utility.yul\":25659:25662   */\n      dup6\n        /* \"#utility.yul\":25652:25656   */\n      0x20\n        /* \"#utility.yul\":25645:25650   */\n      dup7\n        /* \"#utility.yul\":25641:25657   */\n      add\n        /* \"#utility.yul\":25606:25671   */\n      tag_380\n      jump\t// in\n    tag_694:\n        /* \"#utility.yul\":25696:25702   */\n      dup1\n        /* \"#utility.yul\":25691:25694   */\n      dup5\n        /* \"#utility.yul\":25687:25703   */\n      add\n        /* \"#utility.yul\":25680:25703   */\n      swap2\n      pop\n        /* \"#utility.yul\":25429:25709   */\n      pop\n        /* \"#utility.yul\":25319:25709   */\n      swap3\n      swap2\n      pop\n      pop\n      jump\t// out\n        /* \"#utility.yul\":25715:25990   */\n    tag_246:\n        /* \"#utility.yul\":25847:25850   */\n      0x00\n        /* \"#utility.yul\":25869:25964   */\n      tag_696\n        /* \"#utility.yul\":25960:25963   */\n      dup3\n        /* \"#utility.yul\":25951:25957   */\n      dup5\n        /* \"#utility.yul\":25869:25964   */\n      tag_440\n      jump\t// in\n    tag_696:\n        /* \"#utility.yul\":25862:25964   */\n      swap2\n      pop\n        /* \"#utility.yul\":25981:25984   */\n      dup2\n        /* \"#utility.yul\":25974:25984   */\n      swap1\n      pop\n        /* \"#utility.yul\":25715:25990   */\n      swap3\n      swap2\n      pop\n      pop\n      jump\t// out\n\n    auxdata: 0xa26469706673582212204e66b992c0758e73846b76801ff085aa6b842ec306a9c82f8bcc1c3ff71dfda764736f6c63430008120033\n}\n",
				"bytecode": {
					"linkReferences": {},
					"object": "608060405234801561001057600080fd5b50612a41806100206000396000f3fe608060405234801561001057600080fd5b50600436106100b45760003560e01c806395863d621161007157806395863d621461017f5780639a2a5815146101af578063d437d7ca146101cd578063e5521501146101eb578063e9e309271461021b578063eac1d5b714610239576100b4565b80631cfd4566146100b957806321055acb146100d757806323abd657146100f5578063642f91631461011557806374aa68581461014557806375d073eb14610161575b600080fd5b6100c1610269565b6040516100ce9190611f84565b60405180910390f35b6100df6106a3565b6040516100ec9190611fb5565b60405180910390f35b6100fd610714565b60405161010c93929190611fd0565b60405180910390f35b61012f600480360381019061012a919061204e565b610d63565b60405161013c91906120ff565b60405180910390f35b61015f600480360381019061015a919061233c565b610fbc565b005b61016961113d565b6040516101769190611f84565b60405180910390f35b610199600480360381019061019491906123c7565b611564565b6040516101a691906120ff565b60405180910390f35b6101b76117ad565b6040516101c4919061242b565b60405180910390f35b6101d56117cf565b6040516101e29190611fb5565b60405180910390f35b610205600480360381019061020091906123c7565b6117db565b6040516102129190611fb5565b60405180910390f35b610223611806565b6040516102309190611f84565b60405180910390f35b610253600480360381019061024e919061204e565b611a76565b6040516102609190612490565b60405180910390f35b6060600080805480602002602001604051908101604052809291908181526020016000905b828210156104d157838290600052602060002090600502016040518060a00160405290816000820180546102c1906124e1565b80601f01602080910402602001604051908101604052809291908181526020018280546102ed906124e1565b801561033a5780601f1061030f5761010080835404028352916020019161033a565b820191906000526020600020905b81548152906001019060200180831161031d57829003601f168201915b505050505081526020016001820154815260200160028201548152602001600382018054610367906124e1565b80601f0160208091040260200160405190810160405280929190818152602001828054610393906124e1565b80156103e05780601f106103b5576101008083540402835291602001916103e0565b820191906000526020600020905b8154815290600101906020018083116103c357829003601f168201915b5050505050815260200160048201805480602002602001604051908101604052809291908181526020016000905b828210156104ba57838290600052602060002001805461042d906124e1565b80601f0160208091040260200160405190810160405280929190818152602001828054610459906124e1565b80156104a65780601f1061047b576101008083540402835291602001916104a6565b820191906000526020600020905b81548152906001019060200180831161048957829003601f168201915b50505050508152602001906001019061040e565b50505050815250508152602001906001019061028e565b5050505090506000600467ffffffffffffffff8111156104f4576104f361212b565b5b60405190808252806020026020018201604052801561052d57816020015b61051a611bca565b8152602001906001900390816105125790505b50905060005b600183516105419190612541565b8110156106415760006001826105579190612575565b90505b835181101561062d57838181518110610576576105756125a9565b5b602002602001015160400151848381518110610595576105946125a9565b5b602002602001015160400151101561061a578381815181106105ba576105b96125a9565b5b60200260200101518483815181106105d5576105d46125a9565b5b60200260200101518584815181106105f0576105ef6125a9565b5b6020026020010186848151811061060a576106096125a9565b5b6020026020010182905282905250505b8080610625906125d8565b91505061055a565b508080610639906125d8565b915050610533565b5060005b600481101561069a57828181518110610661576106606125a9565b5b602002602001015182828151811061067c5761067b6125a9565b5b60200260200101819052508080610692906125d8565b915050610645565b50809250505090565b60008060005b6000805490508110156106fc57600081815481106106ca576106c96125a9565b5b906000526020600020906005020160020154826106e79190612575565b915080806106f4906125d8565b9150506106a9565b506000805490508161070e919061264f565b91505090565b6000806060600080805480602002602001604051908101604052809291908181526020016000905b8282101561097f57838290600052602060002090600502016040518060a001604052908160008201805461076f906124e1565b80601f016020809104026020016040519081016040528092919081815260200182805461079b906124e1565b80156107e85780601f106107bd576101008083540402835291602001916107e8565b820191906000526020600020905b8154815290600101906020018083116107cb57829003601f168201915b505050505081526020016001820154815260200160028201548152602001600382018054610815906124e1565b80601f0160208091040260200160405190810160405280929190818152602001828054610841906124e1565b801561088e5780601f106108635761010080835404028352916020019161088e565b820191906000526020600020905b81548152906001019060200180831161087157829003601f168201915b5050505050815260200160048201805480602002602001604051908101604052809291908181526020016000905b828210156109685783829060005260206000200180546108db906124e1565b80601f0160208091040260200160405190810160405280929190818152602001828054610907906124e1565b80156109545780601f1061092957610100808354040283529160200191610954565b820191906000526020600020905b81548152906001019060200180831161093757829003601f168201915b5050505050815260200190600101906108bc565b50505050815250508152602001906001019061073c565b5050505090506060600080600090505b600080549050811015610d50576040518060400160405280600181526020017f460000000000000000000000000000000000000000000000000000000000000081525080519060200120600082815481106109ed576109ec6125a9565b5b9060005260206000209060050201600301604051610a0b9190612723565b604051809103902003610d3d578180610a23906125d8565b92505060008181548110610a3a57610a396125a9565b5b90600052602060002090600502016040518060a0016040529081600082018054610a63906124e1565b80601f0160208091040260200160405190810160405280929190818152602001828054610a8f906124e1565b8015610adc5780601f10610ab157610100808354040283529160200191610adc565b820191906000526020600020905b815481529060010190602001808311610abf57829003601f168201915b505050505081526020016001820154815260200160028201548152602001600382018054610b09906124e1565b80601f0160208091040260200160405190810160405280929190818152602001828054610b35906124e1565b8015610b825780601f10610b5757610100808354040283529160200191610b82565b820191906000526020600020905b815481529060010190602001808311610b6557829003601f168201915b5050505050815260200160048201805480602002602001604051908101604052809291908181526020016000905b82821015610c5c578382906000526020600020018054610bcf906124e1565b80601f0160208091040260200160405190810160405280929190818152602001828054610bfb906124e1565b8015610c485780601f10610c1d57610100808354040283529160200191610c48565b820191906000526020600020905b815481529060010190602001808311610c2b57829003601f168201915b505050505081526020019060010190610bb0565b505050508152505084600184610c729190612541565b81518110610c8357610c826125a9565b5b60200260200101819052508167ffffffffffffffff811115610ca857610ca761212b565b5b604051908082528060200260200182016040528015610ce157816020015b610cce611bca565b815260200190600190039081610cc65790505b50925060005b82811015610d3b57848181518110610d0257610d016125a9565b5b6020026020010151848281518110610d1d57610d1c6125a9565b5b60200260200101819052508080610d33906125d8565b915050610ce7565b505b8080610d48906125d8565b91505061098f565b5081518183955095509550505050909192565b610d6b611bca565b6000600183610d7a9190612541565b81548110610d8b57610d8a6125a9565b5b90600052602060002090600502016040518060a0016040529081600082018054610db4906124e1565b80601f0160208091040260200160405190810160405280929190818152602001828054610de0906124e1565b8015610e2d5780601f10610e0257610100808354040283529160200191610e2d565b820191906000526020600020905b815481529060010190602001808311610e1057829003601f168201915b505050505081526020016001820154815260200160028201548152602001600382018054610e5a906124e1565b80601f0160208091040260200160405190810160405280929190818152602001828054610e86906124e1565b8015610ed35780601f10610ea857610100808354040283529160200191610ed3565b820191906000526020600020905b815481529060010190602001808311610eb657829003601f168201915b5050505050815260200160048201805480602002602001604051908101604052809291908181526020016000905b82821015610fad578382906000526020600020018054610f20906124e1565b80601f0160208091040260200160405190810160405280929190818152602001828054610f4c906124e1565b8015610f995780601f10610f6e57610100808354040283529160200191610f99565b820191906000526020600020905b815481529060010190602001808311610f7c57829003601f168201915b505050505081526020019060010190610f01565b50505050815250509050919050565b60006040518060a001604052808581526020016001600080549050610fe19190612575565b8152602001848152602001610ff585611a76565b8152602001838152509080600181540180825580915050600190039060005260206000209060050201600090919091909150600082015181600001908161103c91906128e6565b506020820151816001015560408201518160020155606082015181600301908161106691906128e6565b506080820151816004019080519060200190611083929190611bf9565b5050506040518060a0016040528084815260200160008054905081526020018381526020016110b184611a76565b8152602001828152506001846040516110ca91906129f4565b908152602001604051809103902060008201518160000190816110ed91906128e6565b506020820151816001015560408201518160020155606082015181600301908161111791906128e6565b506080820151816004019080519060200190611134929190611bf9565b50905050505050565b6060600080600090505b6000805490508110156111f2576040518060400160405280600181526020017f460000000000000000000000000000000000000000000000000000000000000081525080519060200120600082815481106111a5576111a46125a9565b5b90600052602060002090600502016003016040516111c39190612723565b6040518091039020036111df5781806111db906125d8565b9250505b80806111ea906125d8565b915050611147565b5060008167ffffffffffffffff81111561120f5761120e61212b565b5b60405190808252806020026020018201604052801561124857816020015b611235611bca565b81526020019060019003908161122d5790505b509050600080600090505b60008054905081101561155a576040518060400160405280600181526020017f460000000000000000000000000000000000000000000000000000000000000081525080519060200120600082815481106112b1576112b06125a9565b5b90600052602060002090600502016003016040516112cf9190612723565b60405180910390200361153957600081815481106112f0576112ef6125a9565b5b90600052602060002090600502016040518060a0016040529081600082018054611319906124e1565b80601f0160208091040260200160405190810160405280929190818152602001828054611345906124e1565b80156113925780601f1061136757610100808354040283529160200191611392565b820191906000526020600020905b81548152906001019060200180831161137557829003601f168201915b5050505050815260200160018201548152602001600282015481526020016003820180546113bf906124e1565b80601f01602080910402602001604051908101604052809291908181526020018280546113eb906124e1565b80156114385780601f1061140d57610100808354040283529160200191611438565b820191906000526020600020905b81548152906001019060200180831161141b57829003601f168201915b5050505050815260200160048201805480602002602001604051908101604052809291908181526020016000905b82821015611512578382906000526020600020018054611485906124e1565b80601f01602080910402602001604051908101604052809291908181526020018280546114b1906124e1565b80156114fe5780601f106114d3576101008083540402835291602001916114fe565b820191906000526020600020905b8154815290600101906020018083116114e157829003601f168201915b505050505081526020019060010190611466565b505050508152505083838151811061152d5761152c6125a9565b5b60200260200101819052505b8180611544906125d8565b9250508080611552906125d8565b915050611253565b5081935050505090565b61156c611bca565b60018260405161157c91906129f4565b90815260200160405180910390206040518060a00160405290816000820180546115a5906124e1565b80601f01602080910402602001604051908101604052809291908181526020018280546115d1906124e1565b801561161e5780601f106115f35761010080835404028352916020019161161e565b820191906000526020600020905b81548152906001019060200180831161160157829003601f168201915b50505050508152602001600182015481526020016002820154815260200160038201805461164b906124e1565b80601f0160208091040260200160405190810160405280929190818152602001828054611677906124e1565b80156116c45780601f10611699576101008083540402835291602001916116c4565b820191906000526020600020905b8154815290600101906020018083116116a757829003601f168201915b5050505050815260200160048201805480602002602001604051908101604052809291908181526020016000905b8282101561179e578382906000526020600020018054611711906124e1565b80601f016020809104026020016040519081016040528092919081815260200182805461173d906124e1565b801561178a5780601f1061175f5761010080835404028352916020019161178a565b820191906000526020600020905b81548152906001019060200180831161176d57829003601f168201915b5050505050815260200190600101906116f2565b50505050815250509050919050565b600060466117b96106a3565b106117c757600190506117cc565b600090505b90565b60008080549050905090565b60006001826040516117ed91906129f4565b9081526020016040518091039020600201549050919050565b60606000805480602002602001604051908101604052809291908181526020016000905b82821015611a6d57838290600052602060002090600502016040518060a001604052908160008201805461185d906124e1565b80601f0160208091040260200160405190810160405280929190818152602001828054611889906124e1565b80156118d65780601f106118ab576101008083540402835291602001916118d6565b820191906000526020600020905b8154815290600101906020018083116118b957829003601f168201915b505050505081526020016001820154815260200160028201548152602001600382018054611903906124e1565b80601f016020809104026020016040519081016040528092919081815260200182805461192f906124e1565b801561197c5780601f106119515761010080835404028352916020019161197c565b820191906000526020600020905b81548152906001019060200180831161195f57829003601f168201915b5050505050815260200160048201805480602002602001604051908101604052809291908181526020016000905b82821015611a565783829060005260206000200180546119c9906124e1565b80601f01602080910402602001604051908101604052809291908181526020018280546119f5906124e1565b8015611a425780601f10611a1757610100808354040283529160200191611a42565b820191906000526020600020905b815481529060010190602001808311611a2557829003601f168201915b5050505050815260200190600101906119aa565b50505050815250508152602001906001019061182a565b50505050905090565b6060605a8210611abd576040518060400160405280600181526020017f41000000000000000000000000000000000000000000000000000000000000008152509050611bc5565b60508210611b02576040518060400160405280600181526020017f42000000000000000000000000000000000000000000000000000000000000008152509050611bc5565b60468210611b47576040518060400160405280600181526020017f43000000000000000000000000000000000000000000000000000000000000008152509050611bc5565b603c8210611b8c576040518060400160405280600181526020017f44000000000000000000000000000000000000000000000000000000000000008152509050611bc5565b6040518060400160405280600181526020017f460000000000000000000000000000000000000000000000000000000000000081525090505b919050565b6040518060a0016040528060608152602001600081526020016000815260200160608152602001606081525090565b828054828255906000526020600020908101928215611c41579160200282015b82811115611c40578251829081611c3091906128e6565b5091602001919060010190611c19565b5b509050611c4e9190611c52565b5090565b5b80821115611c725760008181611c699190611c76565b50600101611c53565b5090565b508054611c82906124e1565b6000825580601f10611c945750611cb3565b601f016020900490600052602060002090810190611cb29190611cb6565b5b50565b5b80821115611ccf576000816000905550600101611cb7565b5090565b600081519050919050565b600082825260208201905092915050565b6000819050602082019050919050565b600081519050919050565b600082825260208201905092915050565b60005b83811015611d39578082015181840152602081019050611d1e565b60008484015250505050565b6000601f19601f8301169050919050565b6000611d6182611cff565b611d6b8185611d0a565b9350611d7b818560208601611d1b565b611d8481611d45565b840191505092915050565b6000819050919050565b611da281611d8f565b82525050565b600081519050919050565b600082825260208201905092915050565b6000819050602082019050919050565b6000611de08383611d56565b905092915050565b6000602082019050919050565b6000611e0082611da8565b611e0a8185611db3565b935083602082028501611e1c85611dc4565b8060005b85811015611e585784840389528151611e398582611dd4565b9450611e4483611de8565b925060208a01995050600181019050611e20565b50829750879550505050505092915050565b600060a0830160008301518482036000860152611e878282611d56565b9150506020830151611e9c6020860182611d99565b506040830151611eaf6040860182611d99565b5060608301518482036060860152611ec78282611d56565b91505060808301518482036080860152611ee18282611df5565b9150508091505092915050565b6000611efa8383611e6a565b905092915050565b6000602082019050919050565b6000611f1a82611cd3565b611f248185611cde565b935083602082028501611f3685611cef565b8060005b85811015611f725784840389528151611f538582611eee565b9450611f5e83611f02565b925060208a01995050600181019050611f3a565b50829750879550505050505092915050565b60006020820190508181036000830152611f9e8184611f0f565b905092915050565b611faf81611d8f565b82525050565b6000602082019050611fca6000830184611fa6565b92915050565b6000606082019050611fe56000830186611fa6565b611ff26020830185611fa6565b81810360408301526120048184611f0f565b9050949350505050565b6000604051905090565b600080fd5b600080fd5b61202b81611d8f565b811461203657600080fd5b50565b60008135905061204881612022565b92915050565b60006020828403121561206457612063612018565b5b600061207284828501612039565b91505092915050565b600060a08301600083015184820360008601526120988282611d56565b91505060208301516120ad6020860182611d99565b5060408301516120c06040860182611d99565b50606083015184820360608601526120d88282611d56565b915050608083015184820360808601526120f28282611df5565b9150508091505092915050565b60006020820190508181036000830152612119818461207b565b905092915050565b600080fd5b600080fd5b7f4e487b7100000000000000000000000000000000000000000000000000000000600052604160045260246000fd5b61216382611d45565b810181811067ffffffffffffffff821117156121825761218161212b565b5b80604052505050565b600061219561200e565b90506121a1828261215a565b919050565b600067ffffffffffffffff8211156121c1576121c061212b565b5b6121ca82611d45565b9050602081019050919050565b82818337600083830152505050565b60006121f96121f4846121a6565b61218b565b90508281526020810184848401111561221557612214612126565b5b6122208482856121d7565b509392505050565b600082601f83011261223d5761223c612121565b5b813561224d8482602086016121e6565b91505092915050565b600067ffffffffffffffff8211156122715761227061212b565b5b602082029050602081019050919050565b600080fd5b600061229a61229584612256565b61218b565b905080838252602082019050602084028301858111156122bd576122bc612282565b5b835b8181101561230457803567ffffffffffffffff8111156122e2576122e1612121565b5b8086016122ef8982612228565b855260208501945050506020810190506122bf565b5050509392505050565b600082601f83011261232357612322612121565b5b8135612333848260208601612287565b91505092915050565b60008060006060848603121561235557612354612018565b5b600084013567ffffffffffffffff8111156123735761237261201d565b5b61237f86828701612228565b935050602061239086828701612039565b925050604084013567ffffffffffffffff8111156123b1576123b061201d565b5b6123bd8682870161230e565b9150509250925092565b6000602082840312156123dd576123dc612018565b5b600082013567ffffffffffffffff8111156123fb576123fa61201d565b5b61240784828501612228565b91505092915050565b60008115159050919050565b61242581612410565b82525050565b6000602082019050612440600083018461241c565b92915050565b600082825260208201905092915050565b600061246282611cff565b61246c8185612446565b935061247c818560208601611d1b565b61248581611d45565b840191505092915050565b600060208201905081810360008301526124aa8184612457565b905092915050565b7f4e487b7100000000000000000000000000000000000000000000000000000000600052602260045260246000fd5b600060028204905060018216806124f957607f821691505b60208210810361250c5761250b6124b2565b5b50919050565b7f4e487b7100000000000000000000000000000000000000000000000000000000600052601160045260246000fd5b600061254c82611d8f565b915061255783611d8f565b925082820390508181111561256f5761256e612512565b5b92915050565b600061258082611d8f565b915061258b83611d8f565b92508282019050808211156125a3576125a2612512565b5b92915050565b7f4e487b7100000000000000000000000000000000000000000000000000000000600052603260045260246000fd5b60006125e382611d8f565b91507fffffffffffffffffffffffffffffffffffffffffffffffffffffffffffffffff820361261557612614612512565b5b600182019050919050565b7f4e487b7100000000000000000000000000000000000000000000000000000000600052601260045260246000fd5b600061265a82611d8f565b915061266583611d8f565b92508261267557612674612620565b5b828204905092915050565b600081905092915050565b60008190508160005260206000209050919050565b600081546126ad816124e1565b6126b78186612680565b945060018216600081146126d257600181146126e75761271a565b60ff198316865281151582028601935061271a565b6126f08561268b565b60005b83811015612712578154818901526001820191506020810190506126f3565b838801955050505b50505092915050565b600061272f82846126a0565b915081905092915050565b60008190508160005260206000209050919050565b60006020601f8301049050919050565b600082821b905092915050565b60006008830261279c7fffffffffffffffffffffffffffffffffffffffffffffffffffffffffffffffff8261275f565b6127a6868361275f565b95508019841693508086168417925050509392505050565b6000819050919050565b60006127e36127de6127d984611d8f565b6127be565b611d8f565b9050919050565b6000819050919050565b6127fd836127c8565b612811612809826127ea565b84845461276c565b825550505050565b600090565b612826612819565b6128318184846127f4565b505050565b5b818110156128555761284a60008261281e565b600181019050612837565b5050565b601f82111561289a5761286b8161273a565b6128748461274f565b81016020851015612883578190505b61289761288f8561274f565b830182612836565b50505b505050565b600082821c905092915050565b60006128bd6000198460080261289f565b1980831691505092915050565b60006128d683836128ac565b9150826002028217905092915050565b6128ef82611cff565b67ffffffffffffffff8111156129085761290761212b565b5b61291282546124e1565b61291d828285612859565b600060209050601f831160018114612950576000841561293e578287015190505b61294885826128ca565b8655506129b0565b601f19841661295e8661273a565b60005b8281101561298657848901518255600182019150602085019450602081019050612961565b868310156129a3578489015161299f601f8916826128ac565b8355505b6001600288020188555050505b505050505050565b600081905092915050565b60006129ce82611cff565b6129d881856129b8565b93506129e8818560208601611d1b565b80840191505092915050565b6000612a0082846129c3565b91508190509291505056fea26469706673582212204e66b992c0758e73846b76801ff085aa6b842ec306a9c82f8bcc1c3ff71dfda764736f6c63430008120033",
					"opcodes": "PUSH1 0x80 PUSH1 0x40 MSTORE CALLVALUE DUP1 ISZERO PUSH2 0x10 JUMPI PUSH1 0x0 DUP1 REVERT JUMPDEST POP PUSH2 0x2A41 DUP1 PUSH2 0x20 PUSH1 0x0 CODECOPY PUSH1 0x0 RETURN INVALID PUSH1 0x80 PUSH1 0x40 MSTORE CALLVALUE DUP1 ISZERO PUSH2 0x10 JUMPI PUSH1 0x0 DUP1 REVERT JUMPDEST POP PUSH1 0x4 CALLDATASIZE LT PUSH2 0xB4 JUMPI PUSH1 0x0 CALLDATALOAD PUSH1 0xE0 SHR DUP1 PUSH4 0x95863D62 GT PUSH2 0x71 JUMPI DUP1 PUSH4 0x95863D62 EQ PUSH2 0x17F JUMPI DUP1 PUSH4 0x9A2A5815 EQ PUSH2 0x1AF JUMPI DUP1 PUSH4 0xD437D7CA EQ PUSH2 0x1CD JUMPI DUP1 PUSH4 0xE5521501 EQ PUSH2 0x1EB JUMPI DUP1 PUSH4 0xE9E30927 EQ PUSH2 0x21B JUMPI DUP1 PUSH4 0xEAC1D5B7 EQ PUSH2 0x239 JUMPI PUSH2 0xB4 JUMP JUMPDEST DUP1 PUSH4 0x1CFD4566 EQ PUSH2 0xB9 JUMPI DUP1 PUSH4 0x21055ACB EQ PUSH2 0xD7 JUMPI DUP1 PUSH4 0x23ABD657 EQ PUSH2 0xF5 JUMPI DUP1 PUSH4 0x642F9163 EQ PUSH2 0x115 JUMPI DUP1 PUSH4 0x74AA6858 EQ PUSH2 0x145 JUMPI DUP1 PUSH4 0x75D073EB EQ PUSH2 0x161 JUMPI JUMPDEST PUSH1 0x0 DUP1 REVERT JUMPDEST PUSH2 0xC1 PUSH2 0x269 JUMP JUMPDEST PUSH1 0x40 MLOAD PUSH2 0xCE SWAP2 SWAP1 PUSH2 0x1F84 JUMP JUMPDEST PUSH1 0x40 MLOAD DUP1 SWAP2 SUB SWAP1 RETURN JUMPDEST PUSH2 0xDF PUSH2 0x6A3 JUMP JUMPDEST PUSH1 0x40 MLOAD PUSH2 0xEC SWAP2 SWAP1 PUSH2 0x1FB5 JUMP JUMPDEST PUSH1 0x40 MLOAD DUP1 SWAP2 SUB SWAP1 RETURN JUMPDEST PUSH2 0xFD PUSH2 0x714 JUMP JUMPDEST PUSH1 0x40 MLOAD PUSH2 0x10C SWAP4 SWAP3 SWAP2 SWAP1 PUSH2 0x1FD0 JUMP JUMPDEST PUSH1 0x40 MLOAD DUP1 SWAP2 SUB SWAP1 RETURN JUMPDEST PUSH2 0x12F PUSH1 0x4 DUP1 CALLDATASIZE SUB DUP2 ADD SWAP1 PUSH2 0x12A SWAP2 SWAP1 PUSH2 0x204E JUMP JUMPDEST PUSH2 0xD63 JUMP JUMPDEST PUSH1 0x40 MLOAD PUSH2 0x13C SWAP2 SWAP1 PUSH2 0x20FF JUMP JUMPDEST PUSH1 0x40 MLOAD DUP1 SWAP2 SUB SWAP1 RETURN JUMPDEST PUSH2 0x15F PUSH1 0x4 DUP1 CALLDATASIZE SUB DUP2 ADD SWAP1 PUSH2 0x15A SWAP2 SWAP1 PUSH2 0x233C JUMP JUMPDEST PUSH2 0xFBC JUMP JUMPDEST STOP JUMPDEST PUSH2 0x169 PUSH2 0x113D JUMP JUMPDEST PUSH1 0x40 MLOAD PUSH2 0x176 SWAP2 SWAP1 PUSH2 0x1F84 JUMP JUMPDEST PUSH1 0x40 MLOAD DUP1 SWAP2 SUB SWAP1 RETURN JUMPDEST PUSH2 0x199 PUSH1 0x4 DUP1 CALLDATASIZE SUB DUP2 ADD SWAP1 PUSH2 0x194 SWAP2 SWAP1 PUSH2 0x23C7 JUMP JUMPDEST PUSH2 0x1564 JUMP JUMPDEST PUSH1 0x40 MLOAD PUSH2 0x1A6 SWAP2 SWAP1 PUSH2 0x20FF JUMP JUMPDEST PUSH1 0x40 MLOAD DUP1 SWAP2 SUB SWAP1 RETURN JUMPDEST PUSH2 0x1B7 PUSH2 0x17AD JUMP JUMPDEST PUSH1 0x40 MLOAD PUSH2 0x1C4 SWAP2 SWAP1 PUSH2 0x242B JUMP JUMPDEST PUSH1 0x40 MLOAD DUP1 SWAP2 SUB SWAP1 RETURN JUMPDEST PUSH2 0x1D5 PUSH2 0x17CF JUMP JUMPDEST PUSH1 0x40 MLOAD PUSH2 0x1E2 SWAP2 SWAP1 PUSH2 0x1FB5 JUMP JUMPDEST PUSH1 0x40 MLOAD DUP1 SWAP2 SUB SWAP1 RETURN JUMPDEST PUSH2 0x205 PUSH1 0x4 DUP1 CALLDATASIZE SUB DUP2 ADD SWAP1 PUSH2 0x200 SWAP2 SWAP1 PUSH2 0x23C7 JUMP JUMPDEST PUSH2 0x17DB JUMP JUMPDEST PUSH1 0x40 MLOAD PUSH2 0x212 SWAP2 SWAP1 PUSH2 0x1FB5 JUMP JUMPDEST PUSH1 0x40 MLOAD DUP1 SWAP2 SUB SWAP1 RETURN JUMPDEST PUSH2 0x223 PUSH2 0x1806 JUMP JUMPDEST PUSH1 0x40 MLOAD PUSH2 0x230 SWAP2 SWAP1 PUSH2 0x1F84 JUMP JUMPDEST PUSH1 0x40 MLOAD DUP1 SWAP2 SUB SWAP1 RETURN JUMPDEST PUSH2 0x253 PUSH1 0x4 DUP1 CALLDATASIZE SUB DUP2 ADD SWAP1 PUSH2 0x24E SWAP2 SWAP1 PUSH2 0x204E JUMP JUMPDEST PUSH2 0x1A76 JUMP JUMPDEST PUSH1 0x40 MLOAD PUSH2 0x260 SWAP2 SWAP1 PUSH2 0x2490 JUMP JUMPDEST PUSH1 0x40 MLOAD DUP1 SWAP2 SUB SWAP1 RETURN JUMPDEST PUSH1 0x60 PUSH1 0x0 DUP1 DUP1 SLOAD DUP1 PUSH1 0x20 MUL PUSH1 0x20 ADD PUSH1 0x40 MLOAD SWAP1 DUP2 ADD PUSH1 0x40 MSTORE DUP1 SWAP3 SWAP2 SWAP1 DUP2 DUP2 MSTORE PUSH1 0x20 ADD PUSH1 0x0 SWAP1 JUMPDEST DUP3 DUP3 LT ISZERO PUSH2 0x4D1 JUMPI DUP4 DUP3 SWAP1 PUSH1 0x0 MSTORE PUSH1 0x20 PUSH1 0x0 KECCAK256 SWAP1 PUSH1 0x5 MUL ADD PUSH1 0x40 MLOAD DUP1 PUSH1 0xA0 ADD PUSH1 0x40 MSTORE SWAP1 DUP2 PUSH1 0x0 DUP3 ADD DUP1 SLOAD PUSH2 0x2C1 SWAP1 PUSH2 0x24E1 JUMP JUMPDEST DUP1 PUSH1 0x1F ADD PUSH1 0x20 DUP1 SWAP2 DIV MUL PUSH1 0x20 ADD PUSH1 0x40 MLOAD SWAP1 DUP2 ADD PUSH1 0x40 MSTORE DUP1 SWAP3 SWAP2 SWAP1 DUP2 DUP2 MSTORE PUSH1 0x20 ADD DUP3 DUP1 SLOAD PUSH2 0x2ED SWAP1 PUSH2 0x24E1 JUMP JUMPDEST DUP1 ISZERO PUSH2 0x33A JUMPI DUP1 PUSH1 0x1F LT PUSH2 0x30F JUMPI PUSH2 0x100 DUP1 DUP4 SLOAD DIV MUL DUP4 MSTORE SWAP2 PUSH1 0x20 ADD SWAP2 PUSH2 0x33A JUMP JUMPDEST DUP3 ADD SWAP2 SWAP1 PUSH1 0x0 MSTORE PUSH1 0x20 PUSH1 0x0 KECCAK256 SWAP1 JUMPDEST DUP2 SLOAD DUP2 MSTORE SWAP1 PUSH1 0x1 ADD SWAP1 PUSH1 0x20 ADD DUP1 DUP4 GT PUSH2 0x31D JUMPI DUP3 SWAP1 SUB PUSH1 0x1F AND DUP3 ADD SWAP2 JUMPDEST POP POP POP POP POP DUP2 MSTORE PUSH1 0x20 ADD PUSH1 0x1 DUP3 ADD SLOAD DUP2 MSTORE PUSH1 0x20 ADD PUSH1 0x2 DUP3 ADD SLOAD DUP2 MSTORE PUSH1 0x20 ADD PUSH1 0x3 DUP3 ADD DUP1 SLOAD PUSH2 0x367 SWAP1 PUSH2 0x24E1 JUMP JUMPDEST DUP1 PUSH1 0x1F ADD PUSH1 0x20 DUP1 SWAP2 DIV MUL PUSH1 0x20 ADD PUSH1 0x40 MLOAD SWAP1 DUP2 ADD PUSH1 0x40 MSTORE DUP1 SWAP3 SWAP2 SWAP1 DUP2 DUP2 MSTORE PUSH1 0x20 ADD DUP3 DUP1 SLOAD PUSH2 0x393 SWAP1 PUSH2 0x24E1 JUMP JUMPDEST DUP1 ISZERO PUSH2 0x3E0 JUMPI DUP1 PUSH1 0x1F LT PUSH2 0x3B5 JUMPI PUSH2 0x100 DUP1 DUP4 SLOAD DIV MUL DUP4 MSTORE SWAP2 PUSH1 0x20 ADD SWAP2 PUSH2 0x3E0 JUMP JUMPDEST DUP3 ADD SWAP2 SWAP1 PUSH1 0x0 MSTORE PUSH1 0x20 PUSH1 0x0 KECCAK256 SWAP1 JUMPDEST DUP2 SLOAD DUP2 MSTORE SWAP1 PUSH1 0x1 ADD SWAP1 PUSH1 0x20 ADD DUP1 DUP4 GT PUSH2 0x3C3 JUMPI DUP3 SWAP1 SUB PUSH1 0x1F AND DUP3 ADD SWAP2 JUMPDEST POP POP POP POP POP DUP2 MSTORE PUSH1 0x20 ADD PUSH1 0x4 DUP3 ADD DUP1 SLOAD DUP1 PUSH1 0x20 MUL PUSH1 0x20 ADD PUSH1 0x40 MLOAD SWAP1 DUP2 ADD PUSH1 0x40 MSTORE DUP1 SWAP3 SWAP2 SWAP1 DUP2 DUP2 MSTORE PUSH1 0x20 ADD PUSH1 0x0 SWAP1 JUMPDEST DUP3 DUP3 LT ISZERO PUSH2 0x4BA JUMPI DUP4 DUP3 SWAP1 PUSH1 0x0 MSTORE PUSH1 0x20 PUSH1 0x0 KECCAK256 ADD DUP1 SLOAD PUSH2 0x42D SWAP1 PUSH2 0x24E1 JUMP JUMPDEST DUP1 PUSH1 0x1F ADD PUSH1 0x20 DUP1 SWAP2 DIV MUL PUSH1 0x20 ADD PUSH1 0x40 MLOAD SWAP1 DUP2 ADD PUSH1 0x40 MSTORE DUP1 SWAP3 SWAP2 SWAP1 DUP2 DUP2 MSTORE PUSH1 0x20 ADD DUP3 DUP1 SLOAD PUSH2 0x459 SWAP1 PUSH2 0x24E1 JUMP JUMPDEST DUP1 ISZERO PUSH2 0x4A6 JUMPI DUP1 PUSH1 0x1F LT PUSH2 0x47B JUMPI PUSH2 0x100 DUP1 DUP4 SLOAD DIV MUL DUP4 MSTORE SWAP2 PUSH1 0x20 ADD SWAP2 PUSH2 0x4A6 JUMP JUMPDEST DUP3 ADD SWAP2 SWAP1 PUSH1 0x0 MSTORE PUSH1 0x20 PUSH1 0x0 KECCAK256 SWAP1 JUMPDEST DUP2 SLOAD DUP2 MSTORE SWAP1 PUSH1 0x1 ADD SWAP1 PUSH1 0x20 ADD DUP1 DUP4 GT PUSH2 0x489 JUMPI DUP3 SWAP1 SUB PUSH1 0x1F AND DUP3 ADD SWAP2 JUMPDEST POP POP POP POP POP DUP2 MSTORE PUSH1 0x20 ADD SWAP1 PUSH1 0x1 ADD SWAP1 PUSH2 0x40E JUMP JUMPDEST POP POP POP POP DUP2 MSTORE POP POP DUP2 MSTORE PUSH1 0x20 ADD SWAP1 PUSH1 0x1 ADD SWAP1 PUSH2 0x28E JUMP JUMPDEST POP POP POP POP SWAP1 POP PUSH1 0x0 PUSH1 0x4 PUSH8 0xFFFFFFFFFFFFFFFF DUP2 GT ISZERO PUSH2 0x4F4 JUMPI PUSH2 0x4F3 PUSH2 0x212B JUMP JUMPDEST JUMPDEST PUSH1 0x40 MLOAD SWAP1 DUP1 DUP3 MSTORE DUP1 PUSH1 0x20 MUL PUSH1 0x20 ADD DUP3 ADD PUSH1 0x40 MSTORE DUP1 ISZERO PUSH2 0x52D JUMPI DUP2 PUSH1 0x20 ADD JUMPDEST PUSH2 0x51A PUSH2 0x1BCA JUMP JUMPDEST DUP2 MSTORE PUSH1 0x20 ADD SWAP1 PUSH1 0x1 SWAP1 SUB SWAP1 DUP2 PUSH2 0x512 JUMPI SWAP1 POP JUMPDEST POP SWAP1 POP PUSH1 0x0 JUMPDEST PUSH1 0x1 DUP4 MLOAD PUSH2 0x541 SWAP2 SWAP1 PUSH2 0x2541 JUMP JUMPDEST DUP2 LT ISZERO PUSH2 0x641 JUMPI PUSH1 0x0 PUSH1 0x1 DUP3 PUSH2 0x557 SWAP2 SWAP1 PUSH2 0x2575 JUMP JUMPDEST SWAP1 POP JUMPDEST DUP4 MLOAD DUP2 LT ISZERO PUSH2 0x62D JUMPI DUP4 DUP2 DUP2 MLOAD DUP2 LT PUSH2 0x576 JUMPI PUSH2 0x575 PUSH2 0x25A9 JUMP JUMPDEST JUMPDEST PUSH1 0x20 MUL PUSH1 0x20 ADD ADD MLOAD PUSH1 0x40 ADD MLOAD DUP5 DUP4 DUP2 MLOAD DUP2 LT PUSH2 0x595 JUMPI PUSH2 0x594 PUSH2 0x25A9 JUMP JUMPDEST JUMPDEST PUSH1 0x20 MUL PUSH1 0x20 ADD ADD MLOAD PUSH1 0x40 ADD MLOAD LT ISZERO PUSH2 0x61A JUMPI DUP4 DUP2 DUP2 MLOAD DUP2 LT PUSH2 0x5BA JUMPI PUSH2 0x5B9 PUSH2 0x25A9 JUMP JUMPDEST JUMPDEST PUSH1 0x20 MUL PUSH1 0x20 ADD ADD MLOAD DUP5 DUP4 DUP2 MLOAD DUP2 LT PUSH2 0x5D5 JUMPI PUSH2 0x5D4 PUSH2 0x25A9 JUMP JUMPDEST JUMPDEST PUSH1 0x20 MUL PUSH1 0x20 ADD ADD MLOAD DUP6 DUP5 DUP2 MLOAD DUP2 LT PUSH2 0x5F0 JUMPI PUSH2 0x5EF PUSH2 0x25A9 JUMP JUMPDEST JUMPDEST PUSH1 0x20 MUL PUSH1 0x20 ADD ADD DUP7 DUP5 DUP2 MLOAD DUP2 LT PUSH2 0x60A JUMPI PUSH2 0x609 PUSH2 0x25A9 JUMP JUMPDEST JUMPDEST PUSH1 0x20 MUL PUSH1 0x20 ADD ADD DUP3 SWAP1 MSTORE DUP3 SWAP1 MSTORE POP POP JUMPDEST DUP1 DUP1 PUSH2 0x625 SWAP1 PUSH2 0x25D8 JUMP JUMPDEST SWAP2 POP POP PUSH2 0x55A JUMP JUMPDEST POP DUP1 DUP1 PUSH2 0x639 SWAP1 PUSH2 0x25D8 JUMP JUMPDEST SWAP2 POP POP PUSH2 0x533 JUMP JUMPDEST POP PUSH1 0x0 JUMPDEST PUSH1 0x4 DUP2 LT ISZERO PUSH2 0x69A JUMPI DUP3 DUP2 DUP2 MLOAD DUP2 LT PUSH2 0x661 JUMPI PUSH2 0x660 PUSH2 0x25A9 JUMP JUMPDEST JUMPDEST PUSH1 0x20 MUL PUSH1 0x20 ADD ADD MLOAD DUP3 DUP3 DUP2 MLOAD DUP2 LT PUSH2 0x67C JUMPI PUSH2 0x67B PUSH2 0x25A9 JUMP JUMPDEST JUMPDEST PUSH1 0x20 MUL PUSH1 0x20 ADD ADD DUP2 SWAP1 MSTORE POP DUP1 DUP1 PUSH2 0x692 SWAP1 PUSH2 0x25D8 JUMP JUMPDEST SWAP2 POP POP PUSH2 0x645 JUMP JUMPDEST POP DUP1 SWAP3 POP POP POP SWAP1 JUMP JUMPDEST PUSH1 0x0 DUP1 PUSH1 0x0 JUMPDEST PUSH1 0x0 DUP1 SLOAD SWAP1 POP DUP2 LT ISZERO PUSH2 0x6FC JUMPI PUSH1 0x0 DUP2 DUP2 SLOAD DUP2 LT PUSH2 0x6CA JUMPI PUSH2 0x6C9 PUSH2 0x25A9 JUMP JUMPDEST JUMPDEST SWAP1 PUSH1 0x0 MSTORE PUSH1 0x20 PUSH1 0x0 KECCAK256 SWAP1 PUSH1 0x5 MUL ADD PUSH1 0x2 ADD SLOAD DUP3 PUSH2 0x6E7 SWAP2 SWAP1 PUSH2 0x2575 JUMP JUMPDEST SWAP2 POP DUP1 DUP1 PUSH2 0x6F4 SWAP1 PUSH2 0x25D8 JUMP JUMPDEST SWAP2 POP POP PUSH2 0x6A9 JUMP JUMPDEST POP PUSH1 0x0 DUP1 SLOAD SWAP1 POP DUP2 PUSH2 0x70E SWAP2 SWAP1 PUSH2 0x264F JUMP JUMPDEST SWAP2 POP POP SWAP1 JUMP JUMPDEST PUSH1 0x0 DUP1 PUSH1 0x60 PUSH1 0x0 DUP1 DUP1 SLOAD DUP1 PUSH1 0x20 MUL PUSH1 0x20 ADD PUSH1 0x40 MLOAD SWAP1 DUP2 ADD PUSH1 0x40 MSTORE DUP1 SWAP3 SWAP2 SWAP1 DUP2 DUP2 MSTORE PUSH1 0x20 ADD PUSH1 0x0 SWAP1 JUMPDEST DUP3 DUP3 LT ISZERO PUSH2 0x97F JUMPI DUP4 DUP3 SWAP1 PUSH1 0x0 MSTORE PUSH1 0x20 PUSH1 0x0 KECCAK256 SWAP1 PUSH1 0x5 MUL ADD PUSH1 0x40 MLOAD DUP1 PUSH1 0xA0 ADD PUSH1 0x40 MSTORE SWAP1 DUP2 PUSH1 0x0 DUP3 ADD DUP1 SLOAD PUSH2 0x76F SWAP1 PUSH2 0x24E1 JUMP JUMPDEST DUP1 PUSH1 0x1F ADD PUSH1 0x20 DUP1 SWAP2 DIV MUL PUSH1 0x20 ADD PUSH1 0x40 MLOAD SWAP1 DUP2 ADD PUSH1 0x40 MSTORE DUP1 SWAP3 SWAP2 SWAP1 DUP2 DUP2 MSTORE PUSH1 0x20 ADD DUP3 DUP1 SLOAD PUSH2 0x79B SWAP1 PUSH2 0x24E1 JUMP JUMPDEST DUP1 ISZERO PUSH2 0x7E8 JUMPI DUP1 PUSH1 0x1F LT PUSH2 0x7BD JUMPI PUSH2 0x100 DUP1 DUP4 SLOAD DIV MUL DUP4 MSTORE SWAP2 PUSH1 0x20 ADD SWAP2 PUSH2 0x7E8 JUMP JUMPDEST DUP3 ADD SWAP2 SWAP1 PUSH1 0x0 MSTORE PUSH1 0x20 PUSH1 0x0 KECCAK256 SWAP1 JUMPDEST DUP2 SLOAD DUP2 MSTORE SWAP1 PUSH1 0x1 ADD SWAP1 PUSH1 0x20 ADD DUP1 DUP4 GT PUSH2 0x7CB JUMPI DUP3 SWAP1 SUB PUSH1 0x1F AND DUP3 ADD SWAP2 JUMPDEST POP POP POP POP POP DUP2 MSTORE PUSH1 0x20 ADD PUSH1 0x1 DUP3 ADD SLOAD DUP2 MSTORE PUSH1 0x20 ADD PUSH1 0x2 DUP3 ADD SLOAD DUP2 MSTORE PUSH1 0x20 ADD PUSH1 0x3 DUP3 ADD DUP1 SLOAD PUSH2 0x815 SWAP1 PUSH2 0x24E1 JUMP JUMPDEST DUP1 PUSH1 0x1F ADD PUSH1 0x20 DUP1 SWAP2 DIV MUL PUSH1 0x20 ADD PUSH1 0x40 MLOAD SWAP1 DUP2 ADD PUSH1 0x40 MSTORE DUP1 SWAP3 SWAP2 SWAP1 DUP2 DUP2 MSTORE PUSH1 0x20 ADD DUP3 DUP1 SLOAD PUSH2 0x841 SWAP1 PUSH2 0x24E1 JUMP JUMPDEST DUP1 ISZERO PUSH2 0x88E JUMPI DUP1 PUSH1 0x1F LT PUSH2 0x863 JUMPI PUSH2 0x100 DUP1 DUP4 SLOAD DIV MUL DUP4 MSTORE SWAP2 PUSH1 0x20 ADD SWAP2 PUSH2 0x88E JUMP JUMPDEST DUP3 ADD SWAP2 SWAP1 PUSH1 0x0 MSTORE PUSH1 0x20 PUSH1 0x0 KECCAK256 SWAP1 JUMPDEST DUP2 SLOAD DUP2 MSTORE SWAP1 PUSH1 0x1 ADD SWAP1 PUSH1 0x20 ADD DUP1 DUP4 GT PUSH2 0x871 JUMPI DUP3 SWAP1 SUB PUSH1 0x1F AND DUP3 ADD SWAP2 JUMPDEST POP POP POP POP POP DUP2 MSTORE PUSH1 0x20 ADD PUSH1 0x4 DUP3 ADD DUP1 SLOAD DUP1 PUSH1 0x20 MUL PUSH1 0x20 ADD PUSH1 0x40 MLOAD SWAP1 DUP2 ADD PUSH1 0x40 MSTORE DUP1 SWAP3 SWAP2 SWAP1 DUP2 DUP2 MSTORE PUSH1 0x20 ADD PUSH1 0x0 SWAP1 JUMPDEST DUP3 DUP3 LT ISZERO PUSH2 0x968 JUMPI DUP4 DUP3 SWAP1 PUSH1 0x0 MSTORE PUSH1 0x20 PUSH1 0x0 KECCAK256 ADD DUP1 SLOAD PUSH2 0x8DB SWAP1 PUSH2 0x24E1 JUMP JUMPDEST DUP1 PUSH1 0x1F ADD PUSH1 0x20 DUP1 SWAP2 DIV MUL PUSH1 0x20 ADD PUSH1 0x40 MLOAD SWAP1 DUP2 ADD PUSH1 0x40 MSTORE DUP1 SWAP3 SWAP2 SWAP1 DUP2 DUP2 MSTORE PUSH1 0x20 ADD DUP3 DUP1 SLOAD PUSH2 0x907 SWAP1 PUSH2 0x24E1 JUMP JUMPDEST DUP1 ISZERO PUSH2 0x954 JUMPI DUP1 PUSH1 0x1F LT PUSH2 0x929 JUMPI PUSH2 0x100 DUP1 DUP4 SLOAD DIV MUL DUP4 MSTORE SWAP2 PUSH1 0x20 ADD SWAP2 PUSH2 0x954 JUMP JUMPDEST DUP3 ADD SWAP2 SWAP1 PUSH1 0x0 MSTORE PUSH1 0x20 PUSH1 0x0 KECCAK256 SWAP1 JUMPDEST DUP2 SLOAD DUP2 MSTORE SWAP1 PUSH1 0x1 ADD SWAP1 PUSH1 0x20 ADD DUP1 DUP4 GT PUSH2 0x937 JUMPI DUP3 SWAP1 SUB PUSH1 0x1F AND DUP3 ADD SWAP2 JUMPDEST POP POP POP POP POP DUP2 MSTORE PUSH1 0x20 ADD SWAP1 PUSH1 0x1 ADD SWAP1 PUSH2 0x8BC JUMP JUMPDEST POP POP POP POP DUP2 MSTORE POP POP DUP2 MSTORE PUSH1 0x20 ADD SWAP1 PUSH1 0x1 ADD SWAP1 PUSH2 0x73C JUMP JUMPDEST POP POP POP POP SWAP1 POP PUSH1 0x60 PUSH1 0x0 DUP1 PUSH1 0x0 SWAP1 POP JUMPDEST PUSH1 0x0 DUP1 SLOAD SWAP1 POP DUP2 LT ISZERO PUSH2 0xD50 JUMPI PUSH1 0x40 MLOAD DUP1 PUSH1 0x40 ADD PUSH1 0x40 MSTORE DUP1 PUSH1 0x1 DUP2 MSTORE PUSH1 0x20 ADD PUSH32 0x4600000000000000000000000000000000000000000000000000000000000000 DUP2 MSTORE POP DUP1 MLOAD SWAP1 PUSH1 0x20 ADD KECCAK256 PUSH1 0x0 DUP3 DUP2 SLOAD DUP2 LT PUSH2 0x9ED JUMPI PUSH2 0x9EC PUSH2 0x25A9 JUMP JUMPDEST JUMPDEST SWAP1 PUSH1 0x0 MSTORE PUSH1 0x20 PUSH1 0x0 KECCAK256 SWAP1 PUSH1 0x5 MUL ADD PUSH1 0x3 ADD PUSH1 0x40 MLOAD PUSH2 0xA0B SWAP2 SWAP1 PUSH2 0x2723 JUMP JUMPDEST PUSH1 0x40 MLOAD DUP1 SWAP2 SUB SWAP1 KECCAK256 SUB PUSH2 0xD3D JUMPI DUP2 DUP1 PUSH2 0xA23 SWAP1 PUSH2 0x25D8 JUMP JUMPDEST SWAP3 POP POP PUSH1 0x0 DUP2 DUP2 SLOAD DUP2 LT PUSH2 0xA3A JUMPI PUSH2 0xA39 PUSH2 0x25A9 JUMP JUMPDEST JUMPDEST SWAP1 PUSH1 0x0 MSTORE PUSH1 0x20 PUSH1 0x0 KECCAK256 SWAP1 PUSH1 0x5 MUL ADD PUSH1 0x40 MLOAD DUP1 PUSH1 0xA0 ADD PUSH1 0x40 MSTORE SWAP1 DUP2 PUSH1 0x0 DUP3 ADD DUP1 SLOAD PUSH2 0xA63 SWAP1 PUSH2 0x24E1 JUMP JUMPDEST DUP1 PUSH1 0x1F ADD PUSH1 0x20 DUP1 SWAP2 DIV MUL PUSH1 0x20 ADD PUSH1 0x40 MLOAD SWAP1 DUP2 ADD PUSH1 0x40 MSTORE DUP1 SWAP3 SWAP2 SWAP1 DUP2 DUP2 MSTORE PUSH1 0x20 ADD DUP3 DUP1 SLOAD PUSH2 0xA8F SWAP1 PUSH2 0x24E1 JUMP JUMPDEST DUP1 ISZERO PUSH2 0xADC JUMPI DUP1 PUSH1 0x1F LT PUSH2 0xAB1 JUMPI PUSH2 0x100 DUP1 DUP4 SLOAD DIV MUL DUP4 MSTORE SWAP2 PUSH1 0x20 ADD SWAP2 PUSH2 0xADC JUMP JUMPDEST DUP3 ADD SWAP2 SWAP1 PUSH1 0x0 MSTORE PUSH1 0x20 PUSH1 0x0 KECCAK256 SWAP1 JUMPDEST DUP2 SLOAD DUP2 MSTORE SWAP1 PUSH1 0x1 ADD SWAP1 PUSH1 0x20 ADD DUP1 DUP4 GT PUSH2 0xABF JUMPI DUP3 SWAP1 SUB PUSH1 0x1F AND DUP3 ADD SWAP2 JUMPDEST POP POP POP POP POP DUP2 MSTORE PUSH1 0x20 ADD PUSH1 0x1 DUP3 ADD SLOAD DUP2 MSTORE PUSH1 0x20 ADD PUSH1 0x2 DUP3 ADD SLOAD DUP2 MSTORE PUSH1 0x20 ADD PUSH1 0x3 DUP3 ADD DUP1 SLOAD PUSH2 0xB09 SWAP1 PUSH2 0x24E1 JUMP JUMPDEST DUP1 PUSH1 0x1F ADD PUSH1 0x20 DUP1 SWAP2 DIV MUL PUSH1 0x20 ADD PUSH1 0x40 MLOAD SWAP1 DUP2 ADD PUSH1 0x40 MSTORE DUP1 SWAP3 SWAP2 SWAP1 DUP2 DUP2 MSTORE PUSH1 0x20 ADD DUP3 DUP1 SLOAD PUSH2 0xB35 SWAP1 PUSH2 0x24E1 JUMP JUMPDEST DUP1 ISZERO PUSH2 0xB82 JUMPI DUP1 PUSH1 0x1F LT PUSH2 0xB57 JUMPI PUSH2 0x100 DUP1 DUP4 SLOAD DIV MUL DUP4 MSTORE SWAP2 PUSH1 0x20 ADD SWAP2 PUSH2 0xB82 JUMP JUMPDEST DUP3 ADD SWAP2 SWAP1 PUSH1 0x0 MSTORE PUSH1 0x20 PUSH1 0x0 KECCAK256 SWAP1 JUMPDEST DUP2 SLOAD DUP2 MSTORE SWAP1 PUSH1 0x1 ADD SWAP1 PUSH1 0x20 ADD DUP1 DUP4 GT PUSH2 0xB65 JUMPI DUP3 SWAP1 SUB PUSH1 0x1F AND DUP3 ADD SWAP2 JUMPDEST POP POP POP POP POP DUP2 MSTORE PUSH1 0x20 ADD PUSH1 0x4 DUP3 ADD DUP1 SLOAD DUP1 PUSH1 0x20 MUL PUSH1 0x20 ADD PUSH1 0x40 MLOAD SWAP1 DUP2 ADD PUSH1 0x40 MSTORE DUP1 SWAP3 SWAP2 SWAP1 DUP2 DUP2 MSTORE PUSH1 0x20 ADD PUSH1 0x0 SWAP1 JUMPDEST DUP3 DUP3 LT ISZERO PUSH2 0xC5C JUMPI DUP4 DUP3 SWAP1 PUSH1 0x0 MSTORE PUSH1 0x20 PUSH1 0x0 KECCAK256 ADD DUP1 SLOAD PUSH2 0xBCF SWAP1 PUSH2 0x24E1 JUMP JUMPDEST DUP1 PUSH1 0x1F ADD PUSH1 0x20 DUP1 SWAP2 DIV MUL PUSH1 0x20 ADD PUSH1 0x40 MLOAD SWAP1 DUP2 ADD PUSH1 0x40 MSTORE DUP1 SWAP3 SWAP2 SWAP1 DUP2 DUP2 MSTORE PUSH1 0x20 ADD DUP3 DUP1 SLOAD PUSH2 0xBFB SWAP1 PUSH2 0x24E1 JUMP JUMPDEST DUP1 ISZERO PUSH2 0xC48 JUMPI DUP1 PUSH1 0x1F LT PUSH2 0xC1D JUMPI PUSH2 0x100 DUP1 DUP4 SLOAD DIV MUL DUP4 MSTORE SWAP2 PUSH1 0x20 ADD SWAP2 PUSH2 0xC48 JUMP JUMPDEST DUP3 ADD SWAP2 SWAP1 PUSH1 0x0 MSTORE PUSH1 0x20 PUSH1 0x0 KECCAK256 SWAP1 JUMPDEST DUP2 SLOAD DUP2 MSTORE SWAP1 PUSH1 0x1 ADD SWAP1 PUSH1 0x20 ADD DUP1 DUP4 GT PUSH2 0xC2B JUMPI DUP3 SWAP1 SUB PUSH1 0x1F AND DUP3 ADD SWAP2 JUMPDEST POP POP POP POP POP DUP2 MSTORE PUSH1 0x20 ADD SWAP1 PUSH1 0x1 ADD SWAP1 PUSH2 0xBB0 JUMP JUMPDEST POP POP POP POP DUP2 MSTORE POP POP DUP5 PUSH1 0x1 DUP5 PUSH2 0xC72 SWAP2 SWAP1 PUSH2 0x2541 JUMP JUMPDEST DUP2 MLOAD DUP2 LT PUSH2 0xC83 JUMPI PUSH2 0xC82 PUSH2 0x25A9 JUMP JUMPDEST JUMPDEST PUSH1 0x20 MUL PUSH1 0x20 ADD ADD DUP2 SWAP1 MSTORE POP DUP2 PUSH8 0xFFFFFFFFFFFFFFFF DUP2 GT ISZERO PUSH2 0xCA8 JUMPI PUSH2 0xCA7 PUSH2 0x212B JUMP JUMPDEST JUMPDEST PUSH1 0x40 MLOAD SWAP1 DUP1 DUP3 MSTORE DUP1 PUSH1 0x20 MUL PUSH1 0x20 ADD DUP3 ADD PUSH1 0x40 MSTORE DUP1 ISZERO PUSH2 0xCE1 JUMPI DUP2 PUSH1 0x20 ADD JUMPDEST PUSH2 0xCCE PUSH2 0x1BCA JUMP JUMPDEST DUP2 MSTORE PUSH1 0x20 ADD SWAP1 PUSH1 0x1 SWAP1 SUB SWAP1 DUP2 PUSH2 0xCC6 JUMPI SWAP1 POP JUMPDEST POP SWAP3 POP PUSH1 0x0 JUMPDEST DUP3 DUP2 LT ISZERO PUSH2 0xD3B JUMPI DUP5 DUP2 DUP2 MLOAD DUP2 LT PUSH2 0xD02 JUMPI PUSH2 0xD01 PUSH2 0x25A9 JUMP JUMPDEST JUMPDEST PUSH1 0x20 MUL PUSH1 0x20 ADD ADD MLOAD DUP5 DUP3 DUP2 MLOAD DUP2 LT PUSH2 0xD1D JUMPI PUSH2 0xD1C PUSH2 0x25A9 JUMP JUMPDEST JUMPDEST PUSH1 0x20 MUL PUSH1 0x20 ADD ADD DUP2 SWAP1 MSTORE POP DUP1 DUP1 PUSH2 0xD33 SWAP1 PUSH2 0x25D8 JUMP JUMPDEST SWAP2 POP POP PUSH2 0xCE7 JUMP JUMPDEST POP JUMPDEST DUP1 DUP1 PUSH2 0xD48 SWAP1 PUSH2 0x25D8 JUMP JUMPDEST SWAP2 POP POP PUSH2 0x98F JUMP JUMPDEST POP DUP2 MLOAD DUP2 DUP4 SWAP6 POP SWAP6 POP SWAP6 POP POP POP POP SWAP1 SWAP2 SWAP3 JUMP JUMPDEST PUSH2 0xD6B PUSH2 0x1BCA JUMP JUMPDEST PUSH1 0x0 PUSH1 0x1 DUP4 PUSH2 0xD7A SWAP2 SWAP1 PUSH2 0x2541 JUMP JUMPDEST DUP2 SLOAD DUP2 LT PUSH2 0xD8B JUMPI PUSH2 0xD8A PUSH2 0x25A9 JUMP JUMPDEST JUMPDEST SWAP1 PUSH1 0x0 MSTORE PUSH1 0x20 PUSH1 0x0 KECCAK256 SWAP1 PUSH1 0x5 MUL ADD PUSH1 0x40 MLOAD DUP1 PUSH1 0xA0 ADD PUSH1 0x40 MSTORE SWAP1 DUP2 PUSH1 0x0 DUP3 ADD DUP1 SLOAD PUSH2 0xDB4 SWAP1 PUSH2 0x24E1 JUMP JUMPDEST DUP1 PUSH1 0x1F ADD PUSH1 0x20 DUP1 SWAP2 DIV MUL PUSH1 0x20 ADD PUSH1 0x40 MLOAD SWAP1 DUP2 ADD PUSH1 0x40 MSTORE DUP1 SWAP3 SWAP2 SWAP1 DUP2 DUP2 MSTORE PUSH1 0x20 ADD DUP3 DUP1 SLOAD PUSH2 0xDE0 SWAP1 PUSH2 0x24E1 JUMP JUMPDEST DUP1 ISZERO PUSH2 0xE2D JUMPI DUP1 PUSH1 0x1F LT PUSH2 0xE02 JUMPI PUSH2 0x100 DUP1 DUP4 SLOAD DIV MUL DUP4 MSTORE SWAP2 PUSH1 0x20 ADD SWAP2 PUSH2 0xE2D JUMP JUMPDEST DUP3 ADD SWAP2 SWAP1 PUSH1 0x0 MSTORE PUSH1 0x20 PUSH1 0x0 KECCAK256 SWAP1 JUMPDEST DUP2 SLOAD DUP2 MSTORE SWAP1 PUSH1 0x1 ADD SWAP1 PUSH1 0x20 ADD DUP1 DUP4 GT PUSH2 0xE10 JUMPI DUP3 SWAP1 SUB PUSH1 0x1F AND DUP3 ADD SWAP2 JUMPDEST POP POP POP POP POP DUP2 MSTORE PUSH1 0x20 ADD PUSH1 0x1 DUP3 ADD SLOAD DUP2 MSTORE PUSH1 0x20 ADD PUSH1 0x2 DUP3 ADD SLOAD DUP2 MSTORE PUSH1 0x20 ADD PUSH1 0x3 DUP3 ADD DUP1 SLOAD PUSH2 0xE5A SWAP1 PUSH2 0x24E1 JUMP JUMPDEST DUP1 PUSH1 0x1F ADD PUSH1 0x20 DUP1 SWAP2 DIV MUL PUSH1 0x20 ADD PUSH1 0x40 MLOAD SWAP1 DUP2 ADD PUSH1 0x40 MSTORE DUP1 SWAP3 SWAP2 SWAP1 DUP2 DUP2 MSTORE PUSH1 0x20 ADD DUP3 DUP1 SLOAD PUSH2 0xE86 SWAP1 PUSH2 0x24E1 JUMP JUMPDEST DUP1 ISZERO PUSH2 0xED3 JUMPI DUP1 PUSH1 0x1F LT PUSH2 0xEA8 JUMPI PUSH2 0x100 DUP1 DUP4 SLOAD DIV MUL DUP4 MSTORE SWAP2 PUSH1 0x20 ADD SWAP2 PUSH2 0xED3 JUMP JUMPDEST DUP3 ADD SWAP2 SWAP1 PUSH1 0x0 MSTORE PUSH1 0x20 PUSH1 0x0 KECCAK256 SWAP1 JUMPDEST DUP2 SLOAD DUP2 MSTORE SWAP1 PUSH1 0x1 ADD SWAP1 PUSH1 0x20 ADD DUP1 DUP4 GT PUSH2 0xEB6 JUMPI DUP3 SWAP1 SUB PUSH1 0x1F AND DUP3 ADD SWAP2 JUMPDEST POP POP POP POP POP DUP2 MSTORE PUSH1 0x20 ADD PUSH1 0x4 DUP3 ADD DUP1 SLOAD DUP1 PUSH1 0x20 MUL PUSH1 0x20 ADD PUSH1 0x40 MLOAD SWAP1 DUP2 ADD PUSH1 0x40 MSTORE DUP1 SWAP3 SWAP2 SWAP1 DUP2 DUP2 MSTORE PUSH1 0x20 ADD PUSH1 0x0 SWAP1 JUMPDEST DUP3 DUP3 LT ISZERO PUSH2 0xFAD JUMPI DUP4 DUP3 SWAP1 PUSH1 0x0 MSTORE PUSH1 0x20 PUSH1 0x0 KECCAK256 ADD DUP1 SLOAD PUSH2 0xF20 SWAP1 PUSH2 0x24E1 JUMP JUMPDEST DUP1 PUSH1 0x1F ADD PUSH1 0x20 DUP1 SWAP2 DIV MUL PUSH1 0x20 ADD PUSH1 0x40 MLOAD SWAP1 DUP2 ADD PUSH1 0x40 MSTORE DUP1 SWAP3 SWAP2 SWAP1 DUP2 DUP2 MSTORE PUSH1 0x20 ADD DUP3 DUP1 SLOAD PUSH2 0xF4C SWAP1 PUSH2 0x24E1 JUMP JUMPDEST DUP1 ISZERO PUSH2 0xF99 JUMPI DUP1 PUSH1 0x1F LT PUSH2 0xF6E JUMPI PUSH2 0x100 DUP1 DUP4 SLOAD DIV MUL DUP4 MSTORE SWAP2 PUSH1 0x20 ADD SWAP2 PUSH2 0xF99 JUMP JUMPDEST DUP3 ADD SWAP2 SWAP1 PUSH1 0x0 MSTORE PUSH1 0x20 PUSH1 0x0 KECCAK256 SWAP1 JUMPDEST DUP2 SLOAD DUP2 MSTORE SWAP1 PUSH1 0x1 ADD SWAP1 PUSH1 0x20 ADD DUP1 DUP4 GT PUSH2 0xF7C JUMPI DUP3 SWAP1 SUB PUSH1 0x1F AND DUP3 ADD SWAP2 JUMPDEST POP POP POP POP POP DUP2 MSTORE PUSH1 0x20 ADD SWAP1 PUSH1 0x1 ADD SWAP1 PUSH2 0xF01 JUMP JUMPDEST POP POP POP POP DUP2 MSTORE POP POP SWAP1 POP SWAP2 SWAP1 POP JUMP JUMPDEST PUSH1 0x0 PUSH1 0x40 MLOAD DUP1 PUSH1 0xA0 ADD PUSH1 0x40 MSTORE DUP1 DUP6 DUP2 MSTORE PUSH1 0x20 ADD PUSH1 0x1 PUSH1 0x0 DUP1 SLOAD SWAP1 POP PUSH2 0xFE1 SWAP2 SWAP1 PUSH2 0x2575 JUMP JUMPDEST DUP2 MSTORE PUSH1 0x20 ADD DUP5 DUP2 MSTORE PUSH1 0x20 ADD PUSH2 0xFF5 DUP6 PUSH2 0x1A76 JUMP JUMPDEST DUP2 MSTORE PUSH1 0x20 ADD DUP4 DUP2 MSTORE POP SWAP1 DUP1 PUSH1 0x1 DUP2 SLOAD ADD DUP1 DUP3 SSTORE DUP1 SWAP2 POP POP PUSH1 0x1 SWAP1 SUB SWAP1 PUSH1 0x0 MSTORE PUSH1 0x20 PUSH1 0x0 KECCAK256 SWAP1 PUSH1 0x5 MUL ADD PUSH1 0x0 SWAP1 SWAP2 SWAP1 SWAP2 SWAP1 SWAP2 POP PUSH1 0x0 DUP3 ADD MLOAD DUP2 PUSH1 0x0 ADD SWAP1 DUP2 PUSH2 0x103C SWAP2 SWAP1 PUSH2 0x28E6 JUMP JUMPDEST POP PUSH1 0x20 DUP3 ADD MLOAD DUP2 PUSH1 0x1 ADD SSTORE PUSH1 0x40 DUP3 ADD MLOAD DUP2 PUSH1 0x2 ADD SSTORE PUSH1 0x60 DUP3 ADD MLOAD DUP2 PUSH1 0x3 ADD SWAP1 DUP2 PUSH2 0x1066 SWAP2 SWAP1 PUSH2 0x28E6 JUMP JUMPDEST POP PUSH1 0x80 DUP3 ADD MLOAD DUP2 PUSH1 0x4 ADD SWAP1 DUP1 MLOAD SWAP1 PUSH1 0x20 ADD SWAP1 PUSH2 0x1083 SWAP3 SWAP2 SWAP1 PUSH2 0x1BF9 JUMP JUMPDEST POP POP POP PUSH1 0x40 MLOAD DUP1 PUSH1 0xA0 ADD PUSH1 0x40 MSTORE DUP1 DUP5 DUP2 MSTORE PUSH1 0x20 ADD PUSH1 0x0 DUP1 SLOAD SWAP1 POP DUP2 MSTORE PUSH1 0x20 ADD DUP4 DUP2 MSTORE PUSH1 0x20 ADD PUSH2 0x10B1 DUP5 PUSH2 0x1A76 JUMP JUMPDEST DUP2 MSTORE PUSH1 0x20 ADD DUP3 DUP2 MSTORE POP PUSH1 0x1 DUP5 PUSH1 0x40 MLOAD PUSH2 0x10CA SWAP2 SWAP1 PUSH2 0x29F4 JUMP JUMPDEST SWAP1 DUP2 MSTORE PUSH1 0x20 ADD PUSH1 0x40 MLOAD DUP1 SWAP2 SUB SWAP1 KECCAK256 PUSH1 0x0 DUP3 ADD MLOAD DUP2 PUSH1 0x0 ADD SWAP1 DUP2 PUSH2 0x10ED SWAP2 SWAP1 PUSH2 0x28E6 JUMP JUMPDEST POP PUSH1 0x20 DUP3 ADD MLOAD DUP2 PUSH1 0x1 ADD SSTORE PUSH1 0x40 DUP3 ADD MLOAD DUP2 PUSH1 0x2 ADD SSTORE PUSH1 0x60 DUP3 ADD MLOAD DUP2 PUSH1 0x3 ADD SWAP1 DUP2 PUSH2 0x1117 SWAP2 SWAP1 PUSH2 0x28E6 JUMP JUMPDEST POP PUSH1 0x80 DUP3 ADD MLOAD DUP2 PUSH1 0x4 ADD SWAP1 DUP1 MLOAD SWAP1 PUSH1 0x20 ADD SWAP1 PUSH2 0x1134 SWAP3 SWAP2 SWAP1 PUSH2 0x1BF9 JUMP JUMPDEST POP SWAP1 POP POP POP POP POP JUMP JUMPDEST PUSH1 0x60 PUSH1 0x0 DUP1 PUSH1 0x0 SWAP1 POP JUMPDEST PUSH1 0x0 DUP1 SLOAD SWAP1 POP DUP2 LT ISZERO PUSH2 0x11F2 JUMPI PUSH1 0x40 MLOAD DUP1 PUSH1 0x40 ADD PUSH1 0x40 MSTORE DUP1 PUSH1 0x1 DUP2 MSTORE PUSH1 0x20 ADD PUSH32 0x4600000000000000000000000000000000000000000000000000000000000000 DUP2 MSTORE POP DUP1 MLOAD SWAP1 PUSH1 0x20 ADD KECCAK256 PUSH1 0x0 DUP3 DUP2 SLOAD DUP2 LT PUSH2 0x11A5 JUMPI PUSH2 0x11A4 PUSH2 0x25A9 JUMP JUMPDEST JUMPDEST SWAP1 PUSH1 0x0 MSTORE PUSH1 0x20 PUSH1 0x0 KECCAK256 SWAP1 PUSH1 0x5 MUL ADD PUSH1 0x3 ADD PUSH1 0x40 MLOAD PUSH2 0x11C3 SWAP2 SWAP1 PUSH2 0x2723 JUMP JUMPDEST PUSH1 0x40 MLOAD DUP1 SWAP2 SUB SWAP1 KECCAK256 SUB PUSH2 0x11DF JUMPI DUP2 DUP1 PUSH2 0x11DB SWAP1 PUSH2 0x25D8 JUMP JUMPDEST SWAP3 POP POP JUMPDEST DUP1 DUP1 PUSH2 0x11EA SWAP1 PUSH2 0x25D8 JUMP JUMPDEST SWAP2 POP POP PUSH2 0x1147 JUMP JUMPDEST POP PUSH1 0x0 DUP2 PUSH8 0xFFFFFFFFFFFFFFFF DUP2 GT ISZERO PUSH2 0x120F JUMPI PUSH2 0x120E PUSH2 0x212B JUMP JUMPDEST JUMPDEST PUSH1 0x40 MLOAD SWAP1 DUP1 DUP3 MSTORE DUP1 PUSH1 0x20 MUL PUSH1 0x20 ADD DUP3 ADD PUSH1 0x40 MSTORE DUP1 ISZERO PUSH2 0x1248 JUMPI DUP2 PUSH1 0x20 ADD JUMPDEST PUSH2 0x1235 PUSH2 0x1BCA JUMP JUMPDEST DUP2 MSTORE PUSH1 0x20 ADD SWAP1 PUSH1 0x1 SWAP1 SUB SWAP1 DUP2 PUSH2 0x122D JUMPI SWAP1 POP JUMPDEST POP SWAP1 POP PUSH1 0x0 DUP1 PUSH1 0x0 SWAP1 POP JUMPDEST PUSH1 0x0 DUP1 SLOAD SWAP1 POP DUP2 LT ISZERO PUSH2 0x155A JUMPI PUSH1 0x40 MLOAD DUP1 PUSH1 0x40 ADD PUSH1 0x40 MSTORE DUP1 PUSH1 0x1 DUP2 MSTORE PUSH1 0x20 ADD PUSH32 0x4600000000000000000000000000000000000000000000000000000000000000 DUP2 MSTORE POP DUP1 MLOAD SWAP1 PUSH1 0x20 ADD KECCAK256 PUSH1 0x0 DUP3 DUP2 SLOAD DUP2 LT PUSH2 0x12B1 JUMPI PUSH2 0x12B0 PUSH2 0x25A9 JUMP JUMPDEST JUMPDEST SWAP1 PUSH1 0x0 MSTORE PUSH1 0x20 PUSH1 0x0 KECCAK256 SWAP1 PUSH1 0x5 MUL ADD PUSH1 0x3 ADD PUSH1 0x40 MLOAD PUSH2 0x12CF SWAP2 SWAP1 PUSH2 0x2723 JUMP JUMPDEST PUSH1 0x40 MLOAD DUP1 SWAP2 SUB SWAP1 KECCAK256 SUB PUSH2 0x1539 JUMPI PUSH1 0x0 DUP2 DUP2 SLOAD DUP2 LT PUSH2 0x12F0 JUMPI PUSH2 0x12EF PUSH2 0x25A9 JUMP JUMPDEST JUMPDEST SWAP1 PUSH1 0x0 MSTORE PUSH1 0x20 PUSH1 0x0 KECCAK256 SWAP1 PUSH1 0x5 MUL ADD PUSH1 0x40 MLOAD DUP1 PUSH1 0xA0 ADD PUSH1 0x40 MSTORE SWAP1 DUP2 PUSH1 0x0 DUP3 ADD DUP1 SLOAD PUSH2 0x1319 SWAP1 PUSH2 0x24E1 JUMP JUMPDEST DUP1 PUSH1 0x1F ADD PUSH1 0x20 DUP1 SWAP2 DIV MUL PUSH1 0x20 ADD PUSH1 0x40 MLOAD SWAP1 DUP2 ADD PUSH1 0x40 MSTORE DUP1 SWAP3 SWAP2 SWAP1 DUP2 DUP2 MSTORE PUSH1 0x20 ADD DUP3 DUP1 SLOAD PUSH2 0x1345 SWAP1 PUSH2 0x24E1 JUMP JUMPDEST DUP1 ISZERO PUSH2 0x1392 JUMPI DUP1 PUSH1 0x1F LT PUSH2 0x1367 JUMPI PUSH2 0x100 DUP1 DUP4 SLOAD DIV MUL DUP4 MSTORE SWAP2 PUSH1 0x20 ADD SWAP2 PUSH2 0x1392 JUMP JUMPDEST DUP3 ADD SWAP2 SWAP1 PUSH1 0x0 MSTORE PUSH1 0x20 PUSH1 0x0 KECCAK256 SWAP1 JUMPDEST DUP2 SLOAD DUP2 MSTORE SWAP1 PUSH1 0x1 ADD SWAP1 PUSH1 0x20 ADD DUP1 DUP4 GT PUSH2 0x1375 JUMPI DUP3 SWAP1 SUB PUSH1 0x1F AND DUP3 ADD SWAP2 JUMPDEST POP POP POP POP POP DUP2 MSTORE PUSH1 0x20 ADD PUSH1 0x1 DUP3 ADD SLOAD DUP2 MSTORE PUSH1 0x20 ADD PUSH1 0x2 DUP3 ADD SLOAD DUP2 MSTORE PUSH1 0x20 ADD PUSH1 0x3 DUP3 ADD DUP1 SLOAD PUSH2 0x13BF SWAP1 PUSH2 0x24E1 JUMP JUMPDEST DUP1 PUSH1 0x1F ADD PUSH1 0x20 DUP1 SWAP2 DIV MUL PUSH1 0x20 ADD PUSH1 0x40 MLOAD SWAP1 DUP2 ADD PUSH1 0x40 MSTORE DUP1 SWAP3 SWAP2 SWAP1 DUP2 DUP2 MSTORE PUSH1 0x20 ADD DUP3 DUP1 SLOAD PUSH2 0x13EB SWAP1 PUSH2 0x24E1 JUMP JUMPDEST DUP1 ISZERO PUSH2 0x1438 JUMPI DUP1 PUSH1 0x1F LT PUSH2 0x140D JUMPI PUSH2 0x100 DUP1 DUP4 SLOAD DIV MUL DUP4 MSTORE SWAP2 PUSH1 0x20 ADD SWAP2 PUSH2 0x1438 JUMP JUMPDEST DUP3 ADD SWAP2 SWAP1 PUSH1 0x0 MSTORE PUSH1 0x20 PUSH1 0x0 KECCAK256 SWAP1 JUMPDEST DUP2 SLOAD DUP2 MSTORE SWAP1 PUSH1 0x1 ADD SWAP1 PUSH1 0x20 ADD DUP1 DUP4 GT PUSH2 0x141B JUMPI DUP3 SWAP1 SUB PUSH1 0x1F AND DUP3 ADD SWAP2 JUMPDEST POP POP POP POP POP DUP2 MSTORE PUSH1 0x20 ADD PUSH1 0x4 DUP3 ADD DUP1 SLOAD DUP1 PUSH1 0x20 MUL PUSH1 0x20 ADD PUSH1 0x40 MLOAD SWAP1 DUP2 ADD PUSH1 0x40 MSTORE DUP1 SWAP3 SWAP2 SWAP1 DUP2 DUP2 MSTORE PUSH1 0x20 ADD PUSH1 0x0 SWAP1 JUMPDEST DUP3 DUP3 LT ISZERO PUSH2 0x1512 JUMPI DUP4 DUP3 SWAP1 PUSH1 0x0 MSTORE PUSH1 0x20 PUSH1 0x0 KECCAK256 ADD DUP1 SLOAD PUSH2 0x1485 SWAP1 PUSH2 0x24E1 JUMP JUMPDEST DUP1 PUSH1 0x1F ADD PUSH1 0x20 DUP1 SWAP2 DIV MUL PUSH1 0x20 ADD PUSH1 0x40 MLOAD SWAP1 DUP2 ADD PUSH1 0x40 MSTORE DUP1 SWAP3 SWAP2 SWAP1 DUP2 DUP2 MSTORE PUSH1 0x20 ADD DUP3 DUP1 SLOAD PUSH2 0x14B1 SWAP1 PUSH2 0x24E1 JUMP JUMPDEST DUP1 ISZERO PUSH2 0x14FE JUMPI DUP1 PUSH1 0x1F LT PUSH2 0x14D3 JUMPI PUSH2 0x100 DUP1 DUP4 SLOAD DIV MUL DUP4 MSTORE SWAP2 PUSH1 0x20 ADD SWAP2 PUSH2 0x14FE JUMP JUMPDEST DUP3 ADD SWAP2 SWAP1 PUSH1 0x0 MSTORE PUSH1 0x20 PUSH1 0x0 KECCAK256 SWAP1 JUMPDEST DUP2 SLOAD DUP2 MSTORE SWAP1 PUSH1 0x1 ADD SWAP1 PUSH1 0x20 ADD DUP1 DUP4 GT PUSH2 0x14E1 JUMPI DUP3 SWAP1 SUB PUSH1 0x1F AND DUP3 ADD SWAP2 JUMPDEST POP POP POP POP POP DUP2 MSTORE PUSH1 0x20 ADD SWAP1 PUSH1 0x1 ADD SWAP1 PUSH2 0x1466 JUMP JUMPDEST POP POP POP POP DUP2 MSTORE POP POP DUP4 DUP4 DUP2 MLOAD DUP2 LT PUSH2 0x152D JUMPI PUSH2 0x152C PUSH2 0x25A9 JUMP JUMPDEST JUMPDEST PUSH1 0x20 MUL PUSH1 0x20 ADD ADD DUP2 SWAP1 MSTORE POP JUMPDEST DUP2 DUP1 PUSH2 0x1544 SWAP1 PUSH2 0x25D8 JUMP JUMPDEST SWAP3 POP POP DUP1 DUP1 PUSH2 0x1552 SWAP1 PUSH2 0x25D8 JUMP JUMPDEST SWAP2 POP POP PUSH2 0x1253 JUMP JUMPDEST POP DUP2 SWAP4 POP POP POP POP SWAP1 JUMP JUMPDEST PUSH2 0x156C PUSH2 0x1BCA JUMP JUMPDEST PUSH1 0x1 DUP3 PUSH1 0x40 MLOAD PUSH2 0x157C SWAP2 SWAP1 PUSH2 0x29F4 JUMP JUMPDEST SWAP1 DUP2 MSTORE PUSH1 0x20 ADD PUSH1 0x40 MLOAD DUP1 SWAP2 SUB SWAP1 KECCAK256 PUSH1 0x40 MLOAD DUP1 PUSH1 0xA0 ADD PUSH1 0x40 MSTORE SWAP1 DUP2 PUSH1 0x0 DUP3 ADD DUP1 SLOAD PUSH2 0x15A5 SWAP1 PUSH2 0x24E1 JUMP JUMPDEST DUP1 PUSH1 0x1F ADD PUSH1 0x20 DUP1 SWAP2 DIV MUL PUSH1 0x20 ADD PUSH1 0x40 MLOAD SWAP1 DUP2 ADD PUSH1 0x40 MSTORE DUP1 SWAP3 SWAP2 SWAP1 DUP2 DUP2 MSTORE PUSH1 0x20 ADD DUP3 DUP1 SLOAD PUSH2 0x15D1 SWAP1 PUSH2 0x24E1 JUMP JUMPDEST DUP1 ISZERO PUSH2 0x161E JUMPI DUP1 PUSH1 0x1F LT PUSH2 0x15F3 JUMPI PUSH2 0x100 DUP1 DUP4 SLOAD DIV MUL DUP4 MSTORE SWAP2 PUSH1 0x20 ADD SWAP2 PUSH2 0x161E JUMP JUMPDEST DUP3 ADD SWAP2 SWAP1 PUSH1 0x0 MSTORE PUSH1 0x20 PUSH1 0x0 KECCAK256 SWAP1 JUMPDEST DUP2 SLOAD DUP2 MSTORE SWAP1 PUSH1 0x1 ADD SWAP1 PUSH1 0x20 ADD DUP1 DUP4 GT PUSH2 0x1601 JUMPI DUP3 SWAP1 SUB PUSH1 0x1F AND DUP3 ADD SWAP2 JUMPDEST POP POP POP POP POP DUP2 MSTORE PUSH1 0x20 ADD PUSH1 0x1 DUP3 ADD SLOAD DUP2 MSTORE PUSH1 0x20 ADD PUSH1 0x2 DUP3 ADD SLOAD DUP2 MSTORE PUSH1 0x20 ADD PUSH1 0x3 DUP3 ADD DUP1 SLOAD PUSH2 0x164B SWAP1 PUSH2 0x24E1 JUMP JUMPDEST DUP1 PUSH1 0x1F ADD PUSH1 0x20 DUP1 SWAP2 DIV MUL PUSH1 0x20 ADD PUSH1 0x40 MLOAD SWAP1 DUP2 ADD PUSH1 0x40 MSTORE DUP1 SWAP3 SWAP2 SWAP1 DUP2 DUP2 MSTORE PUSH1 0x20 ADD DUP3 DUP1 SLOAD PUSH2 0x1677 SWAP1 PUSH2 0x24E1 JUMP JUMPDEST DUP1 ISZERO PUSH2 0x16C4 JUMPI DUP1 PUSH1 0x1F LT PUSH2 0x1699 JUMPI PUSH2 0x100 DUP1 DUP4 SLOAD DIV MUL DUP4 MSTORE SWAP2 PUSH1 0x20 ADD SWAP2 PUSH2 0x16C4 JUMP JUMPDEST DUP3 ADD SWAP2 SWAP1 PUSH1 0x0 MSTORE PUSH1 0x20 PUSH1 0x0 KECCAK256 SWAP1 JUMPDEST DUP2 SLOAD DUP2 MSTORE SWAP1 PUSH1 0x1 ADD SWAP1 PUSH1 0x20 ADD DUP1 DUP4 GT PUSH2 0x16A7 JUMPI DUP3 SWAP1 SUB PUSH1 0x1F AND DUP3 ADD SWAP2 JUMPDEST POP POP POP POP POP DUP2 MSTORE PUSH1 0x20 ADD PUSH1 0x4 DUP3 ADD DUP1 SLOAD DUP1 PUSH1 0x20 MUL PUSH1 0x20 ADD PUSH1 0x40 MLOAD SWAP1 DUP2 ADD PUSH1 0x40 MSTORE DUP1 SWAP3 SWAP2 SWAP1 DUP2 DUP2 MSTORE PUSH1 0x20 ADD PUSH1 0x0 SWAP1 JUMPDEST DUP3 DUP3 LT ISZERO PUSH2 0x179E JUMPI DUP4 DUP3 SWAP1 PUSH1 0x0 MSTORE PUSH1 0x20 PUSH1 0x0 KECCAK256 ADD DUP1 SLOAD PUSH2 0x1711 SWAP1 PUSH2 0x24E1 JUMP JUMPDEST DUP1 PUSH1 0x1F ADD PUSH1 0x20 DUP1 SWAP2 DIV MUL PUSH1 0x20 ADD PUSH1 0x40 MLOAD SWAP1 DUP2 ADD PUSH1 0x40 MSTORE DUP1 SWAP3 SWAP2 SWAP1 DUP2 DUP2 MSTORE PUSH1 0x20 ADD DUP3 DUP1 SLOAD PUSH2 0x173D SWAP1 PUSH2 0x24E1 JUMP JUMPDEST DUP1 ISZERO PUSH2 0x178A JUMPI DUP1 PUSH1 0x1F LT PUSH2 0x175F JUMPI PUSH2 0x100 DUP1 DUP4 SLOAD DIV MUL DUP4 MSTORE SWAP2 PUSH1 0x20 ADD SWAP2 PUSH2 0x178A JUMP JUMPDEST DUP3 ADD SWAP2 SWAP1 PUSH1 0x0 MSTORE PUSH1 0x20 PUSH1 0x0 KECCAK256 SWAP1 JUMPDEST DUP2 SLOAD DUP2 MSTORE SWAP1 PUSH1 0x1 ADD SWAP1 PUSH1 0x20 ADD DUP1 DUP4 GT PUSH2 0x176D JUMPI DUP3 SWAP1 SUB PUSH1 0x1F AND DUP3 ADD SWAP2 JUMPDEST POP POP POP POP POP DUP2 MSTORE PUSH1 0x20 ADD SWAP1 PUSH1 0x1 ADD SWAP1 PUSH2 0x16F2 JUMP JUMPDEST POP POP POP POP DUP2 MSTORE POP POP SWAP1 POP SWAP2 SWAP1 POP JUMP JUMPDEST PUSH1 0x0 PUSH1 0x46 PUSH2 0x17B9 PUSH2 0x6A3 JUMP JUMPDEST LT PUSH2 0x17C7 JUMPI PUSH1 0x1 SWAP1 POP PUSH2 0x17CC JUMP JUMPDEST PUSH1 0x0 SWAP1 POP JUMPDEST SWAP1 JUMP JUMPDEST PUSH1 0x0 DUP1 DUP1 SLOAD SWAP1 POP SWAP1 POP SWAP1 JUMP JUMPDEST PUSH1 0x0 PUSH1 0x1 DUP3 PUSH1 0x40 MLOAD PUSH2 0x17ED SWAP2 SWAP1 PUSH2 0x29F4 JUMP JUMPDEST SWAP1 DUP2 MSTORE PUSH1 0x20 ADD PUSH1 0x40 MLOAD DUP1 SWAP2 SUB SWAP1 KECCAK256 PUSH1 0x2 ADD SLOAD SWAP1 POP SWAP2 SWAP1 POP JUMP JUMPDEST PUSH1 0x60 PUSH1 0x0 DUP1 SLOAD DUP1 PUSH1 0x20 MUL PUSH1 0x20 ADD PUSH1 0x40 MLOAD SWAP1 DUP2 ADD PUSH1 0x40 MSTORE DUP1 SWAP3 SWAP2 SWAP1 DUP2 DUP2 MSTORE PUSH1 0x20 ADD PUSH1 0x0 SWAP1 JUMPDEST DUP3 DUP3 LT ISZERO PUSH2 0x1A6D JUMPI DUP4 DUP3 SWAP1 PUSH1 0x0 MSTORE PUSH1 0x20 PUSH1 0x0 KECCAK256 SWAP1 PUSH1 0x5 MUL ADD PUSH1 0x40 MLOAD DUP1 PUSH1 0xA0 ADD PUSH1 0x40 MSTORE SWAP1 DUP2 PUSH1 0x0 DUP3 ADD DUP1 SLOAD PUSH2 0x185D SWAP1 PUSH2 0x24E1 JUMP JUMPDEST DUP1 PUSH1 0x1F ADD PUSH1 0x20 DUP1 SWAP2 DIV MUL PUSH1 0x20 ADD PUSH1 0x40 MLOAD SWAP1 DUP2 ADD PUSH1 0x40 MSTORE DUP1 SWAP3 SWAP2 SWAP1 DUP2 DUP2 MSTORE PUSH1 0x20 ADD DUP3 DUP1 SLOAD PUSH2 0x1889 SWAP1 PUSH2 0x24E1 JUMP JUMPDEST DUP1 ISZERO PUSH2 0x18D6 JUMPI DUP1 PUSH1 0x1F LT PUSH2 0x18AB JUMPI PUSH2 0x100 DUP1 DUP4 SLOAD DIV MUL DUP4 MSTORE SWAP2 PUSH1 0x20 ADD SWAP2 PUSH2 0x18D6 JUMP JUMPDEST DUP3 ADD SWAP2 SWAP1 PUSH1 0x0 MSTORE PUSH1 0x20 PUSH1 0x0 KECCAK256 SWAP1 JUMPDEST DUP2 SLOAD DUP2 MSTORE SWAP1 PUSH1 0x1 ADD SWAP1 PUSH1 0x20 ADD DUP1 DUP4 GT PUSH2 0x18B9 JUMPI DUP3 SWAP1 SUB PUSH1 0x1F AND DUP3 ADD SWAP2 JUMPDEST POP POP POP POP POP DUP2 MSTORE PUSH1 0x20 ADD PUSH1 0x1 DUP3 ADD SLOAD DUP2 MSTORE PUSH1 0x20 ADD PUSH1 0x2 DUP3 ADD SLOAD DUP2 MSTORE PUSH1 0x20 ADD PUSH1 0x3 DUP3 ADD DUP1 SLOAD PUSH2 0x1903 SWAP1 PUSH2 0x24E1 JUMP JUMPDEST DUP1 PUSH1 0x1F ADD PUSH1 0x20 DUP1 SWAP2 DIV MUL PUSH1 0x20 ADD PUSH1 0x40 MLOAD SWAP1 DUP2 ADD PUSH1 0x40 MSTORE DUP1 SWAP3 SWAP2 SWAP1 DUP2 DUP2 MSTORE PUSH1 0x20 ADD DUP3 DUP1 SLOAD PUSH2 0x192F SWAP1 PUSH2 0x24E1 JUMP JUMPDEST DUP1 ISZERO PUSH2 0x197C JUMPI DUP1 PUSH1 0x1F LT PUSH2 0x1951 JUMPI PUSH2 0x100 DUP1 DUP4 SLOAD DIV MUL DUP4 MSTORE SWAP2 PUSH1 0x20 ADD SWAP2 PUSH2 0x197C JUMP JUMPDEST DUP3 ADD SWAP2 SWAP1 PUSH1 0x0 MSTORE PUSH1 0x20 PUSH1 0x0 KECCAK256 SWAP1 JUMPDEST DUP2 SLOAD DUP2 MSTORE SWAP1 PUSH1 0x1 ADD SWAP1 PUSH1 0x20 ADD DUP1 DUP4 GT PUSH2 0x195F JUMPI DUP3 SWAP1 SUB PUSH1 0x1F AND DUP3 ADD SWAP2 JUMPDEST POP POP POP POP POP DUP2 MSTORE PUSH1 0x20 ADD PUSH1 0x4 DUP3 ADD DUP1 SLOAD DUP1 PUSH1 0x20 MUL PUSH1 0x20 ADD PUSH1 0x40 MLOAD SWAP1 DUP2 ADD PUSH1 0x40 MSTORE DUP1 SWAP3 SWAP2 SWAP1 DUP2 DUP2 MSTORE PUSH1 0x20 ADD PUSH1 0x0 SWAP1 JUMPDEST DUP3 DUP3 LT ISZERO PUSH2 0x1A56 JUMPI DUP4 DUP3 SWAP1 PUSH1 0x0 MSTORE PUSH1 0x20 PUSH1 0x0 KECCAK256 ADD DUP1 SLOAD PUSH2 0x19C9 SWAP1 PUSH2 0x24E1 JUMP JUMPDEST DUP1 PUSH1 0x1F ADD PUSH1 0x20 DUP1 SWAP2 DIV MUL PUSH1 0x20 ADD PUSH1 0x40 MLOAD SWAP1 DUP2 ADD PUSH1 0x40 MSTORE DUP1 SWAP3 SWAP2 SWAP1 DUP2 DUP2 MSTORE PUSH1 0x20 ADD DUP3 DUP1 SLOAD PUSH2 0x19F5 SWAP1 PUSH2 0x24E1 JUMP JUMPDEST DUP1 ISZERO PUSH2 0x1A42 JUMPI DUP1 PUSH1 0x1F LT PUSH2 0x1A17 JUMPI PUSH2 0x100 DUP1 DUP4 SLOAD DIV MUL DUP4 MSTORE SWAP2 PUSH1 0x20 ADD SWAP2 PUSH2 0x1A42 JUMP JUMPDEST DUP3 ADD SWAP2 SWAP1 PUSH1 0x0 MSTORE PUSH1 0x20 PUSH1 0x0 KECCAK256 SWAP1 JUMPDEST DUP2 SLOAD DUP2 MSTORE SWAP1 PUSH1 0x1 ADD SWAP1 PUSH1 0x20 ADD DUP1 DUP4 GT PUSH2 0x1A25 JUMPI DUP3 SWAP1 SUB PUSH1 0x1F AND DUP3 ADD SWAP2 JUMPDEST POP POP POP POP POP DUP2 MSTORE PUSH1 0x20 ADD SWAP1 PUSH1 0x1 ADD SWAP1 PUSH2 0x19AA JUMP JUMPDEST POP POP POP POP DUP2 MSTORE POP POP DUP2 MSTORE PUSH1 0x20 ADD SWAP1 PUSH1 0x1 ADD SWAP1 PUSH2 0x182A JUMP JUMPDEST POP POP POP POP SWAP1 POP SWAP1 JUMP JUMPDEST PUSH1 0x60 PUSH1 0x5A DUP3 LT PUSH2 0x1ABD JUMPI PUSH1 0x40 MLOAD DUP1 PUSH1 0x40 ADD PUSH1 0x40 MSTORE DUP1 PUSH1 0x1 DUP2 MSTORE PUSH1 0x20 ADD PUSH32 0x4100000000000000000000000000000000000000000000000000000000000000 DUP2 MSTORE POP SWAP1 POP PUSH2 0x1BC5 JUMP JUMPDEST PUSH1 0x50 DUP3 LT PUSH2 0x1B02 JUMPI PUSH1 0x40 MLOAD DUP1 PUSH1 0x40 ADD PUSH1 0x40 MSTORE DUP1 PUSH1 0x1 DUP2 MSTORE PUSH1 0x20 ADD PUSH32 0x4200000000000000000000000000000000000000000000000000000000000000 DUP2 MSTORE POP SWAP1 POP PUSH2 0x1BC5 JUMP JUMPDEST PUSH1 0x46 DUP3 LT PUSH2 0x1B47 JUMPI PUSH1 0x40 MLOAD DUP1 PUSH1 0x40 ADD PUSH1 0x40 MSTORE DUP1 PUSH1 0x1 DUP2 MSTORE PUSH1 0x20 ADD PUSH32 0x4300000000000000000000000000000000000000000000000000000000000000 DUP2 MSTORE POP SWAP1 POP PUSH2 0x1BC5 JUMP JUMPDEST PUSH1 0x3C DUP3 LT PUSH2 0x1B8C JUMPI PUSH1 0x40 MLOAD DUP1 PUSH1 0x40 ADD PUSH1 0x40 MSTORE DUP1 PUSH1 0x1 DUP2 MSTORE PUSH1 0x20 ADD PUSH32 0x4400000000000000000000000000000000000000000000000000000000000000 DUP2 MSTORE POP SWAP1 POP PUSH2 0x1BC5 JUMP JUMPDEST PUSH1 0x40 MLOAD DUP1 PUSH1 0x40 ADD PUSH1 0x40 MSTORE DUP1 PUSH1 0x1 DUP2 MSTORE PUSH1 0x20 ADD PUSH32 0x4600000000000000000000000000000000000000000000000000000000000000 DUP2 MSTORE POP SWAP1 POP JUMPDEST SWAP2 SWAP1 POP JUMP JUMPDEST PUSH1 0x40 MLOAD DUP1 PUSH1 0xA0 ADD PUSH1 0x40 MSTORE DUP1 PUSH1 0x60 DUP2 MSTORE PUSH1 0x20 ADD PUSH1 0x0 DUP2 MSTORE PUSH1 0x20 ADD PUSH1 0x0 DUP2 MSTORE PUSH1 0x20 ADD PUSH1 0x60 DUP2 MSTORE PUSH1 0x20 ADD PUSH1 0x60 DUP2 MSTORE POP SWAP1 JUMP JUMPDEST DUP3 DUP1 SLOAD DUP3 DUP3 SSTORE SWAP1 PUSH1 0x0 MSTORE PUSH1 0x20 PUSH1 0x0 KECCAK256 SWAP1 DUP2 ADD SWAP3 DUP3 ISZERO PUSH2 0x1C41 JUMPI SWAP2 PUSH1 0x20 MUL DUP3 ADD JUMPDEST DUP3 DUP2 GT ISZERO PUSH2 0x1C40 JUMPI DUP3 MLOAD DUP3 SWAP1 DUP2 PUSH2 0x1C30 SWAP2 SWAP1 PUSH2 0x28E6 JUMP JUMPDEST POP SWAP2 PUSH1 0x20 ADD SWAP2 SWAP1 PUSH1 0x1 ADD SWAP1 PUSH2 0x1C19 JUMP JUMPDEST JUMPDEST POP SWAP1 POP PUSH2 0x1C4E SWAP2 SWAP1 PUSH2 0x1C52 JUMP JUMPDEST POP SWAP1 JUMP JUMPDEST JUMPDEST DUP1 DUP3 GT ISZERO PUSH2 0x1C72 JUMPI PUSH1 0x0 DUP2 DUP2 PUSH2 0x1C69 SWAP2 SWAP1 PUSH2 0x1C76 JUMP JUMPDEST POP PUSH1 0x1 ADD PUSH2 0x1C53 JUMP JUMPDEST POP SWAP1 JUMP JUMPDEST POP DUP1 SLOAD PUSH2 0x1C82 SWAP1 PUSH2 0x24E1 JUMP JUMPDEST PUSH1 0x0 DUP3 SSTORE DUP1 PUSH1 0x1F LT PUSH2 0x1C94 JUMPI POP PUSH2 0x1CB3 JUMP JUMPDEST PUSH1 0x1F ADD PUSH1 0x20 SWAP1 DIV SWAP1 PUSH1 0x0 MSTORE PUSH1 0x20 PUSH1 0x0 KECCAK256 SWAP1 DUP2 ADD SWAP1 PUSH2 0x1CB2 SWAP2 SWAP1 PUSH2 0x1CB6 JUMP JUMPDEST JUMPDEST POP JUMP JUMPDEST JUMPDEST DUP1 DUP3 GT ISZERO PUSH2 0x1CCF JUMPI PUSH1 0x0 DUP2 PUSH1 0x0 SWAP1 SSTORE POP PUSH1 0x1 ADD PUSH2 0x1CB7 JUMP JUMPDEST POP SWAP1 JUMP JUMPDEST PUSH1 0x0 DUP2 MLOAD SWAP1 POP SWAP2 SWAP1 POP JUMP JUMPDEST PUSH1 0x0 DUP3 DUP3 MSTORE PUSH1 0x20 DUP3 ADD SWAP1 POP SWAP3 SWAP2 POP POP JUMP JUMPDEST PUSH1 0x0 DUP2 SWAP1 POP PUSH1 0x20 DUP3 ADD SWAP1 POP SWAP2 SWAP1 POP JUMP JUMPDEST PUSH1 0x0 DUP2 MLOAD SWAP1 POP SWAP2 SWAP1 POP JUMP JUMPDEST PUSH1 0x0 DUP3 DUP3 MSTORE PUSH1 0x20 DUP3 ADD SWAP1 POP SWAP3 SWAP2 POP POP JUMP JUMPDEST PUSH1 0x0 JUMPDEST DUP4 DUP2 LT ISZERO PUSH2 0x1D39 JUMPI DUP1 DUP3 ADD MLOAD DUP2 DUP5 ADD MSTORE PUSH1 0x20 DUP2 ADD SWAP1 POP PUSH2 0x1D1E JUMP JUMPDEST PUSH1 0x0 DUP5 DUP5 ADD MSTORE POP POP POP POP JUMP JUMPDEST PUSH1 0x0 PUSH1 0x1F NOT PUSH1 0x1F DUP4 ADD AND SWAP1 POP SWAP2 SWAP1 POP JUMP JUMPDEST PUSH1 0x0 PUSH2 0x1D61 DUP3 PUSH2 0x1CFF JUMP JUMPDEST PUSH2 0x1D6B DUP2 DUP6 PUSH2 0x1D0A JUMP JUMPDEST SWAP4 POP PUSH2 0x1D7B DUP2 DUP6 PUSH1 0x20 DUP7 ADD PUSH2 0x1D1B JUMP JUMPDEST PUSH2 0x1D84 DUP2 PUSH2 0x1D45 JUMP JUMPDEST DUP5 ADD SWAP2 POP POP SWAP3 SWAP2 POP POP JUMP JUMPDEST PUSH1 0x0 DUP2 SWAP1 POP SWAP2 SWAP1 POP JUMP JUMPDEST PUSH2 0x1DA2 DUP2 PUSH2 0x1D8F JUMP JUMPDEST DUP3 MSTORE POP POP JUMP JUMPDEST PUSH1 0x0 DUP2 MLOAD SWAP1 POP SWAP2 SWAP1 POP JUMP JUMPDEST PUSH1 0x0 DUP3 DUP3 MSTORE PUSH1 0x20 DUP3 ADD SWAP1 POP SWAP3 SWAP2 POP POP JUMP JUMPDEST PUSH1 0x0 DUP2 SWAP1 POP PUSH1 0x20 DUP3 ADD SWAP1 POP SWAP2 SWAP1 POP JUMP JUMPDEST PUSH1 0x0 PUSH2 0x1DE0 DUP4 DUP4 PUSH2 0x1D56 JUMP JUMPDEST SWAP1 POP SWAP3 SWAP2 POP POP JUMP JUMPDEST PUSH1 0x0 PUSH1 0x20 DUP3 ADD SWAP1 POP SWAP2 SWAP1 POP JUMP JUMPDEST PUSH1 0x0 PUSH2 0x1E00 DUP3 PUSH2 0x1DA8 JUMP JUMPDEST PUSH2 0x1E0A DUP2 DUP6 PUSH2 0x1DB3 JUMP JUMPDEST SWAP4 POP DUP4 PUSH1 0x20 DUP3 MUL DUP6 ADD PUSH2 0x1E1C DUP6 PUSH2 0x1DC4 JUMP JUMPDEST DUP1 PUSH1 0x0 JUMPDEST DUP6 DUP2 LT ISZERO PUSH2 0x1E58 JUMPI DUP5 DUP5 SUB DUP10 MSTORE DUP2 MLOAD PUSH2 0x1E39 DUP6 DUP3 PUSH2 0x1DD4 JUMP JUMPDEST SWAP5 POP PUSH2 0x1E44 DUP4 PUSH2 0x1DE8 JUMP JUMPDEST SWAP3 POP PUSH1 0x20 DUP11 ADD SWAP10 POP POP PUSH1 0x1 DUP2 ADD SWAP1 POP PUSH2 0x1E20 JUMP JUMPDEST POP DUP3 SWAP8 POP DUP8 SWAP6 POP POP POP POP POP POP SWAP3 SWAP2 POP POP JUMP JUMPDEST PUSH1 0x0 PUSH1 0xA0 DUP4 ADD PUSH1 0x0 DUP4 ADD MLOAD DUP5 DUP3 SUB PUSH1 0x0 DUP7 ADD MSTORE PUSH2 0x1E87 DUP3 DUP3 PUSH2 0x1D56 JUMP JUMPDEST SWAP2 POP POP PUSH1 0x20 DUP4 ADD MLOAD PUSH2 0x1E9C PUSH1 0x20 DUP7 ADD DUP3 PUSH2 0x1D99 JUMP JUMPDEST POP PUSH1 0x40 DUP4 ADD MLOAD PUSH2 0x1EAF PUSH1 0x40 DUP7 ADD DUP3 PUSH2 0x1D99 JUMP JUMPDEST POP PUSH1 0x60 DUP4 ADD MLOAD DUP5 DUP3 SUB PUSH1 0x60 DUP7 ADD MSTORE PUSH2 0x1EC7 DUP3 DUP3 PUSH2 0x1D56 JUMP JUMPDEST SWAP2 POP POP PUSH1 0x80 DUP4 ADD MLOAD DUP5 DUP3 SUB PUSH1 0x80 DUP7 ADD MSTORE PUSH2 0x1EE1 DUP3 DUP3 PUSH2 0x1DF5 JUMP JUMPDEST SWAP2 POP POP DUP1 SWAP2 POP POP SWAP3 SWAP2 POP POP JUMP JUMPDEST PUSH1 0x0 PUSH2 0x1EFA DUP4 DUP4 PUSH2 0x1E6A JUMP JUMPDEST SWAP1 POP SWAP3 SWAP2 POP POP JUMP JUMPDEST PUSH1 0x0 PUSH1 0x20 DUP3 ADD SWAP1 POP SWAP2 SWAP1 POP JUMP JUMPDEST PUSH1 0x0 PUSH2 0x1F1A DUP3 PUSH2 0x1CD3 JUMP JUMPDEST PUSH2 0x1F24 DUP2 DUP6 PUSH2 0x1CDE JUMP JUMPDEST SWAP4 POP DUP4 PUSH1 0x20 DUP3 MUL DUP6 ADD PUSH2 0x1F36 DUP6 PUSH2 0x1CEF JUMP JUMPDEST DUP1 PUSH1 0x0 JUMPDEST DUP6 DUP2 LT ISZERO PUSH2 0x1F72 JUMPI DUP5 DUP5 SUB DUP10 MSTORE DUP2 MLOAD PUSH2 0x1F53 DUP6 DUP3 PUSH2 0x1EEE JUMP JUMPDEST SWAP5 POP PUSH2 0x1F5E DUP4 PUSH2 0x1F02 JUMP JUMPDEST SWAP3 POP PUSH1 0x20 DUP11 ADD SWAP10 POP POP PUSH1 0x1 DUP2 ADD SWAP1 POP PUSH2 0x1F3A JUMP JUMPDEST POP DUP3 SWAP8 POP DUP8 SWAP6 POP POP POP POP POP POP SWAP3 SWAP2 POP POP JUMP JUMPDEST PUSH1 0x0 PUSH1 0x20 DUP3 ADD SWAP1 POP DUP2 DUP2 SUB PUSH1 0x0 DUP4 ADD MSTORE PUSH2 0x1F9E DUP2 DUP5 PUSH2 0x1F0F JUMP JUMPDEST SWAP1 POP SWAP3 SWAP2 POP POP JUMP JUMPDEST PUSH2 0x1FAF DUP2 PUSH2 0x1D8F JUMP JUMPDEST DUP3 MSTORE POP POP JUMP JUMPDEST PUSH1 0x0 PUSH1 0x20 DUP3 ADD SWAP1 POP PUSH2 0x1FCA PUSH1 0x0 DUP4 ADD DUP5 PUSH2 0x1FA6 JUMP JUMPDEST SWAP3 SWAP2 POP POP JUMP JUMPDEST PUSH1 0x0 PUSH1 0x60 DUP3 ADD SWAP1 POP PUSH2 0x1FE5 PUSH1 0x0 DUP4 ADD DUP7 PUSH2 0x1FA6 JUMP JUMPDEST PUSH2 0x1FF2 PUSH1 0x20 DUP4 ADD DUP6 PUSH2 0x1FA6 JUMP JUMPDEST DUP2 DUP2 SUB PUSH1 0x40 DUP4 ADD MSTORE PUSH2 0x2004 DUP2 DUP5 PUSH2 0x1F0F JUMP JUMPDEST SWAP1 POP SWAP5 SWAP4 POP POP POP POP JUMP JUMPDEST PUSH1 0x0 PUSH1 0x40 MLOAD SWAP1 POP SWAP1 JUMP JUMPDEST PUSH1 0x0 DUP1 REVERT JUMPDEST PUSH1 0x0 DUP1 REVERT JUMPDEST PUSH2 0x202B DUP2 PUSH2 0x1D8F JUMP JUMPDEST DUP2 EQ PUSH2 0x2036 JUMPI PUSH1 0x0 DUP1 REVERT JUMPDEST POP JUMP JUMPDEST PUSH1 0x0 DUP2 CALLDATALOAD SWAP1 POP PUSH2 0x2048 DUP2 PUSH2 0x2022 JUMP JUMPDEST SWAP3 SWAP2 POP POP JUMP JUMPDEST PUSH1 0x0 PUSH1 0x20 DUP3 DUP5 SUB SLT ISZERO PUSH2 0x2064 JUMPI PUSH2 0x2063 PUSH2 0x2018 JUMP JUMPDEST JUMPDEST PUSH1 0x0 PUSH2 0x2072 DUP5 DUP3 DUP6 ADD PUSH2 0x2039 JUMP JUMPDEST SWAP2 POP POP SWAP3 SWAP2 POP POP JUMP JUMPDEST PUSH1 0x0 PUSH1 0xA0 DUP4 ADD PUSH1 0x0 DUP4 ADD MLOAD DUP5 DUP3 SUB PUSH1 0x0 DUP7 ADD MSTORE PUSH2 0x2098 DUP3 DUP3 PUSH2 0x1D56 JUMP JUMPDEST SWAP2 POP POP PUSH1 0x20 DUP4 ADD MLOAD PUSH2 0x20AD PUSH1 0x20 DUP7 ADD DUP3 PUSH2 0x1D99 JUMP JUMPDEST POP PUSH1 0x40 DUP4 ADD MLOAD PUSH2 0x20C0 PUSH1 0x40 DUP7 ADD DUP3 PUSH2 0x1D99 JUMP JUMPDEST POP PUSH1 0x60 DUP4 ADD MLOAD DUP5 DUP3 SUB PUSH1 0x60 DUP7 ADD MSTORE PUSH2 0x20D8 DUP3 DUP3 PUSH2 0x1D56 JUMP JUMPDEST SWAP2 POP POP PUSH1 0x80 DUP4 ADD MLOAD DUP5 DUP3 SUB PUSH1 0x80 DUP7 ADD MSTORE PUSH2 0x20F2 DUP3 DUP3 PUSH2 0x1DF5 JUMP JUMPDEST SWAP2 POP POP DUP1 SWAP2 POP POP SWAP3 SWAP2 POP POP JUMP JUMPDEST PUSH1 0x0 PUSH1 0x20 DUP3 ADD SWAP1 POP DUP2 DUP2 SUB PUSH1 0x0 DUP4 ADD MSTORE PUSH2 0x2119 DUP2 DUP5 PUSH2 0x207B JUMP JUMPDEST SWAP1 POP SWAP3 SWAP2 POP POP JUMP JUMPDEST PUSH1 0x0 DUP1 REVERT JUMPDEST PUSH1 0x0 DUP1 REVERT JUMPDEST PUSH32 0x4E487B7100000000000000000000000000000000000000000000000000000000 PUSH1 0x0 MSTORE PUSH1 0x41 PUSH1 0x4 MSTORE PUSH1 0x24 PUSH1 0x0 REVERT JUMPDEST PUSH2 0x2163 DUP3 PUSH2 0x1D45 JUMP JUMPDEST DUP2 ADD DUP2 DUP2 LT PUSH8 0xFFFFFFFFFFFFFFFF DUP3 GT OR ISZERO PUSH2 0x2182 JUMPI PUSH2 0x2181 PUSH2 0x212B JUMP JUMPDEST JUMPDEST DUP1 PUSH1 0x40 MSTORE POP POP POP JUMP JUMPDEST PUSH1 0x0 PUSH2 0x2195 PUSH2 0x200E JUMP JUMPDEST SWAP1 POP PUSH2 0x21A1 DUP3 DUP3 PUSH2 0x215A JUMP JUMPDEST SWAP2 SWAP1 POP JUMP JUMPDEST PUSH1 0x0 PUSH8 0xFFFFFFFFFFFFFFFF DUP3 GT ISZERO PUSH2 0x21C1 JUMPI PUSH2 0x21C0 PUSH2 0x212B JUMP JUMPDEST JUMPDEST PUSH2 0x21CA DUP3 PUSH2 0x1D45 JUMP JUMPDEST SWAP1 POP PUSH1 0x20 DUP2 ADD SWAP1 POP SWAP2 SWAP1 POP JUMP JUMPDEST DUP3 DUP2 DUP4 CALLDATACOPY PUSH1 0x0 DUP4 DUP4 ADD MSTORE POP POP POP JUMP JUMPDEST PUSH1 0x0 PUSH2 0x21F9 PUSH2 0x21F4 DUP5 PUSH2 0x21A6 JUMP JUMPDEST PUSH2 0x218B JUMP JUMPDEST SWAP1 POP DUP3 DUP2 MSTORE PUSH1 0x20 DUP2 ADD DUP5 DUP5 DUP5 ADD GT ISZERO PUSH2 0x2215 JUMPI PUSH2 0x2214 PUSH2 0x2126 JUMP JUMPDEST JUMPDEST PUSH2 0x2220 DUP5 DUP3 DUP6 PUSH2 0x21D7 JUMP JUMPDEST POP SWAP4 SWAP3 POP POP POP JUMP JUMPDEST PUSH1 0x0 DUP3 PUSH1 0x1F DUP4 ADD SLT PUSH2 0x223D JUMPI PUSH2 0x223C PUSH2 0x2121 JUMP JUMPDEST JUMPDEST DUP2 CALLDATALOAD PUSH2 0x224D DUP5 DUP3 PUSH1 0x20 DUP7 ADD PUSH2 0x21E6 JUMP JUMPDEST SWAP2 POP POP SWAP3 SWAP2 POP POP JUMP JUMPDEST PUSH1 0x0 PUSH8 0xFFFFFFFFFFFFFFFF DUP3 GT ISZERO PUSH2 0x2271 JUMPI PUSH2 0x2270 PUSH2 0x212B JUMP JUMPDEST JUMPDEST PUSH1 0x20 DUP3 MUL SWAP1 POP PUSH1 0x20 DUP2 ADD SWAP1 POP SWAP2 SWAP1 POP JUMP JUMPDEST PUSH1 0x0 DUP1 REVERT JUMPDEST PUSH1 0x0 PUSH2 0x229A PUSH2 0x2295 DUP5 PUSH2 0x2256 JUMP JUMPDEST PUSH2 0x218B JUMP JUMPDEST SWAP1 POP DUP1 DUP4 DUP3 MSTORE PUSH1 0x20 DUP3 ADD SWAP1 POP PUSH1 0x20 DUP5 MUL DUP4 ADD DUP6 DUP2 GT ISZERO PUSH2 0x22BD JUMPI PUSH2 0x22BC PUSH2 0x2282 JUMP JUMPDEST JUMPDEST DUP4 JUMPDEST DUP2 DUP2 LT ISZERO PUSH2 0x2304 JUMPI DUP1 CALLDATALOAD PUSH8 0xFFFFFFFFFFFFFFFF DUP2 GT ISZERO PUSH2 0x22E2 JUMPI PUSH2 0x22E1 PUSH2 0x2121 JUMP JUMPDEST JUMPDEST DUP1 DUP7 ADD PUSH2 0x22EF DUP10 DUP3 PUSH2 0x2228 JUMP JUMPDEST DUP6 MSTORE PUSH1 0x20 DUP6 ADD SWAP5 POP POP POP PUSH1 0x20 DUP2 ADD SWAP1 POP PUSH2 0x22BF JUMP JUMPDEST POP POP POP SWAP4 SWAP3 POP POP POP JUMP JUMPDEST PUSH1 0x0 DUP3 PUSH1 0x1F DUP4 ADD SLT PUSH2 0x2323 JUMPI PUSH2 0x2322 PUSH2 0x2121 JUMP JUMPDEST JUMPDEST DUP2 CALLDATALOAD PUSH2 0x2333 DUP5 DUP3 PUSH1 0x20 DUP7 ADD PUSH2 0x2287 JUMP JUMPDEST SWAP2 POP POP SWAP3 SWAP2 POP POP JUMP JUMPDEST PUSH1 0x0 DUP1 PUSH1 0x0 PUSH1 0x60 DUP5 DUP7 SUB SLT ISZERO PUSH2 0x2355 JUMPI PUSH2 0x2354 PUSH2 0x2018 JUMP JUMPDEST JUMPDEST PUSH1 0x0 DUP5 ADD CALLDATALOAD PUSH8 0xFFFFFFFFFFFFFFFF DUP2 GT ISZERO PUSH2 0x2373 JUMPI PUSH2 0x2372 PUSH2 0x201D JUMP JUMPDEST JUMPDEST PUSH2 0x237F DUP7 DUP3 DUP8 ADD PUSH2 0x2228 JUMP JUMPDEST SWAP4 POP POP PUSH1 0x20 PUSH2 0x2390 DUP7 DUP3 DUP8 ADD PUSH2 0x2039 JUMP JUMPDEST SWAP3 POP POP PUSH1 0x40 DUP5 ADD CALLDATALOAD PUSH8 0xFFFFFFFFFFFFFFFF DUP2 GT ISZERO PUSH2 0x23B1 JUMPI PUSH2 0x23B0 PUSH2 0x201D JUMP JUMPDEST JUMPDEST PUSH2 0x23BD DUP7 DUP3 DUP8 ADD PUSH2 0x230E JUMP JUMPDEST SWAP2 POP POP SWAP3 POP SWAP3 POP SWAP3 JUMP JUMPDEST PUSH1 0x0 PUSH1 0x20 DUP3 DUP5 SUB SLT ISZERO PUSH2 0x23DD JUMPI PUSH2 0x23DC PUSH2 0x2018 JUMP JUMPDEST JUMPDEST PUSH1 0x0 DUP3 ADD CALLDATALOAD PUSH8 0xFFFFFFFFFFFFFFFF DUP2 GT ISZERO PUSH2 0x23FB JUMPI PUSH2 0x23FA PUSH2 0x201D JUMP JUMPDEST JUMPDEST PUSH2 0x2407 DUP5 DUP3 DUP6 ADD PUSH2 0x2228 JUMP JUMPDEST SWAP2 POP POP SWAP3 SWAP2 POP POP JUMP JUMPDEST PUSH1 0x0 DUP2 ISZERO ISZERO SWAP1 POP SWAP2 SWAP1 POP JUMP JUMPDEST PUSH2 0x2425 DUP2 PUSH2 0x2410 JUMP JUMPDEST DUP3 MSTORE POP POP JUMP JUMPDEST PUSH1 0x0 PUSH1 0x20 DUP3 ADD SWAP1 POP PUSH2 0x2440 PUSH1 0x0 DUP4 ADD DUP5 PUSH2 0x241C JUMP JUMPDEST SWAP3 SWAP2 POP POP JUMP JUMPDEST PUSH1 0x0 DUP3 DUP3 MSTORE PUSH1 0x20 DUP3 ADD SWAP1 POP SWAP3 SWAP2 POP POP JUMP JUMPDEST PUSH1 0x0 PUSH2 0x2462 DUP3 PUSH2 0x1CFF JUMP JUMPDEST PUSH2 0x246C DUP2 DUP6 PUSH2 0x2446 JUMP JUMPDEST SWAP4 POP PUSH2 0x247C DUP2 DUP6 PUSH1 0x20 DUP7 ADD PUSH2 0x1D1B JUMP JUMPDEST PUSH2 0x2485 DUP2 PUSH2 0x1D45 JUMP JUMPDEST DUP5 ADD SWAP2 POP POP SWAP3 SWAP2 POP POP JUMP JUMPDEST PUSH1 0x0 PUSH1 0x20 DUP3 ADD SWAP1 POP DUP2 DUP2 SUB PUSH1 0x0 DUP4 ADD MSTORE PUSH2 0x24AA DUP2 DUP5 PUSH2 0x2457 JUMP JUMPDEST SWAP1 POP SWAP3 SWAP2 POP POP JUMP JUMPDEST PUSH32 0x4E487B7100000000000000000000000000000000000000000000000000000000 PUSH1 0x0 MSTORE PUSH1 0x22 PUSH1 0x4 MSTORE PUSH1 0x24 PUSH1 0x0 REVERT JUMPDEST PUSH1 0x0 PUSH1 0x2 DUP3 DIV SWAP1 POP PUSH1 0x1 DUP3 AND DUP1 PUSH2 0x24F9 JUMPI PUSH1 0x7F DUP3 AND SWAP2 POP JUMPDEST PUSH1 0x20 DUP3 LT DUP2 SUB PUSH2 0x250C JUMPI PUSH2 0x250B PUSH2 0x24B2 JUMP JUMPDEST JUMPDEST POP SWAP2 SWAP1 POP JUMP JUMPDEST PUSH32 0x4E487B7100000000000000000000000000000000000000000000000000000000 PUSH1 0x0 MSTORE PUSH1 0x11 PUSH1 0x4 MSTORE PUSH1 0x24 PUSH1 0x0 REVERT JUMPDEST PUSH1 0x0 PUSH2 0x254C DUP3 PUSH2 0x1D8F JUMP JUMPDEST SWAP2 POP PUSH2 0x2557 DUP4 PUSH2 0x1D8F JUMP JUMPDEST SWAP3 POP DUP3 DUP3 SUB SWAP1 POP DUP2 DUP2 GT ISZERO PUSH2 0x256F JUMPI PUSH2 0x256E PUSH2 0x2512 JUMP JUMPDEST JUMPDEST SWAP3 SWAP2 POP POP JUMP JUMPDEST PUSH1 0x0 PUSH2 0x2580 DUP3 PUSH2 0x1D8F JUMP JUMPDEST SWAP2 POP PUSH2 0x258B DUP4 PUSH2 0x1D8F JUMP JUMPDEST SWAP3 POP DUP3 DUP3 ADD SWAP1 POP DUP1 DUP3 GT ISZERO PUSH2 0x25A3 JUMPI PUSH2 0x25A2 PUSH2 0x2512 JUMP JUMPDEST JUMPDEST SWAP3 SWAP2 POP POP JUMP JUMPDEST PUSH32 0x4E487B7100000000000000000000000000000000000000000000000000000000 PUSH1 0x0 MSTORE PUSH1 0x32 PUSH1 0x4 MSTORE PUSH1 0x24 PUSH1 0x0 REVERT JUMPDEST PUSH1 0x0 PUSH2 0x25E3 DUP3 PUSH2 0x1D8F JUMP JUMPDEST SWAP2 POP PUSH32 0xFFFFFFFFFFFFFFFFFFFFFFFFFFFFFFFFFFFFFFFFFFFFFFFFFFFFFFFFFFFFFFFF DUP3 SUB PUSH2 0x2615 JUMPI PUSH2 0x2614 PUSH2 0x2512 JUMP JUMPDEST JUMPDEST PUSH1 0x1 DUP3 ADD SWAP1 POP SWAP2 SWAP1 POP JUMP JUMPDEST PUSH32 0x4E487B7100000000000000000000000000000000000000000000000000000000 PUSH1 0x0 MSTORE PUSH1 0x12 PUSH1 0x4 MSTORE PUSH1 0x24 PUSH1 0x0 REVERT JUMPDEST PUSH1 0x0 PUSH2 0x265A DUP3 PUSH2 0x1D8F JUMP JUMPDEST SWAP2 POP PUSH2 0x2665 DUP4 PUSH2 0x1D8F JUMP JUMPDEST SWAP3 POP DUP3 PUSH2 0x2675 JUMPI PUSH2 0x2674 PUSH2 0x2620 JUMP JUMPDEST JUMPDEST DUP3 DUP3 DIV SWAP1 POP SWAP3 SWAP2 POP POP JUMP JUMPDEST PUSH1 0x0 DUP2 SWAP1 POP SWAP3 SWAP2 POP POP JUMP JUMPDEST PUSH1 0x0 DUP2 SWAP1 POP DUP2 PUSH1 0x0 MSTORE PUSH1 0x20 PUSH1 0x0 KECCAK256 SWAP1 POP SWAP2 SWAP1 POP JUMP JUMPDEST PUSH1 0x0 DUP2 SLOAD PUSH2 0x26AD DUP2 PUSH2 0x24E1 JUMP JUMPDEST PUSH2 0x26B7 DUP2 DUP7 PUSH2 0x2680 JUMP JUMPDEST SWAP5 POP PUSH1 0x1 DUP3 AND PUSH1 0x0 DUP2 EQ PUSH2 0x26D2 JUMPI PUSH1 0x1 DUP2 EQ PUSH2 0x26E7 JUMPI PUSH2 0x271A JUMP JUMPDEST PUSH1 0xFF NOT DUP4 AND DUP7 MSTORE DUP2 ISZERO ISZERO DUP3 MUL DUP7 ADD SWAP4 POP PUSH2 0x271A JUMP JUMPDEST PUSH2 0x26F0 DUP6 PUSH2 0x268B JUMP JUMPDEST PUSH1 0x0 JUMPDEST DUP4 DUP2 LT ISZERO PUSH2 0x2712 JUMPI DUP2 SLOAD DUP2 DUP10 ADD MSTORE PUSH1 0x1 DUP3 ADD SWAP2 POP PUSH1 0x20 DUP2 ADD SWAP1 POP PUSH2 0x26F3 JUMP JUMPDEST DUP4 DUP9 ADD SWAP6 POP POP POP JUMPDEST POP POP POP SWAP3 SWAP2 POP POP JUMP JUMPDEST PUSH1 0x0 PUSH2 0x272F DUP3 DUP5 PUSH2 0x26A0 JUMP JUMPDEST SWAP2 POP DUP2 SWAP1 POP SWAP3 SWAP2 POP POP JUMP JUMPDEST PUSH1 0x0 DUP2 SWAP1 POP DUP2 PUSH1 0x0 MSTORE PUSH1 0x20 PUSH1 0x0 KECCAK256 SWAP1 POP SWAP2 SWAP1 POP JUMP JUMPDEST PUSH1 0x0 PUSH1 0x20 PUSH1 0x1F DUP4 ADD DIV SWAP1 POP SWAP2 SWAP1 POP JUMP JUMPDEST PUSH1 0x0 DUP3 DUP3 SHL SWAP1 POP SWAP3 SWAP2 POP POP JUMP JUMPDEST PUSH1 0x0 PUSH1 0x8 DUP4 MUL PUSH2 0x279C PUSH32 0xFFFFFFFFFFFFFFFFFFFFFFFFFFFFFFFFFFFFFFFFFFFFFFFFFFFFFFFFFFFFFFFF DUP3 PUSH2 0x275F JUMP JUMPDEST PUSH2 0x27A6 DUP7 DUP4 PUSH2 0x275F JUMP JUMPDEST SWAP6 POP DUP1 NOT DUP5 AND SWAP4 POP DUP1 DUP7 AND DUP5 OR SWAP3 POP POP POP SWAP4 SWAP3 POP POP POP JUMP JUMPDEST PUSH1 0x0 DUP2 SWAP1 POP SWAP2 SWAP1 POP JUMP JUMPDEST PUSH1 0x0 PUSH2 0x27E3 PUSH2 0x27DE PUSH2 0x27D9 DUP5 PUSH2 0x1D8F JUMP JUMPDEST PUSH2 0x27BE JUMP JUMPDEST PUSH2 0x1D8F JUMP JUMPDEST SWAP1 POP SWAP2 SWAP1 POP JUMP JUMPDEST PUSH1 0x0 DUP2 SWAP1 POP SWAP2 SWAP1 POP JUMP JUMPDEST PUSH2 0x27FD DUP4 PUSH2 0x27C8 JUMP JUMPDEST PUSH2 0x2811 PUSH2 0x2809 DUP3 PUSH2 0x27EA JUMP JUMPDEST DUP5 DUP5 SLOAD PUSH2 0x276C JUMP JUMPDEST DUP3 SSTORE POP POP POP POP JUMP JUMPDEST PUSH1 0x0 SWAP1 JUMP JUMPDEST PUSH2 0x2826 PUSH2 0x2819 JUMP JUMPDEST PUSH2 0x2831 DUP2 DUP5 DUP5 PUSH2 0x27F4 JUMP JUMPDEST POP POP POP JUMP JUMPDEST JUMPDEST DUP2 DUP2 LT ISZERO PUSH2 0x2855 JUMPI PUSH2 0x284A PUSH1 0x0 DUP3 PUSH2 0x281E JUMP JUMPDEST PUSH1 0x1 DUP2 ADD SWAP1 POP PUSH2 0x2837 JUMP JUMPDEST POP POP JUMP JUMPDEST PUSH1 0x1F DUP3 GT ISZERO PUSH2 0x289A JUMPI PUSH2 0x286B DUP2 PUSH2 0x273A JUMP JUMPDEST PUSH2 0x2874 DUP5 PUSH2 0x274F JUMP JUMPDEST DUP2 ADD PUSH1 0x20 DUP6 LT ISZERO PUSH2 0x2883 JUMPI DUP2 SWAP1 POP JUMPDEST PUSH2 0x2897 PUSH2 0x288F DUP6 PUSH2 0x274F JUMP JUMPDEST DUP4 ADD DUP3 PUSH2 0x2836 JUMP JUMPDEST POP POP JUMPDEST POP POP POP JUMP JUMPDEST PUSH1 0x0 DUP3 DUP3 SHR SWAP1 POP SWAP3 SWAP2 POP POP JUMP JUMPDEST PUSH1 0x0 PUSH2 0x28BD PUSH1 0x0 NOT DUP5 PUSH1 0x8 MUL PUSH2 0x289F JUMP JUMPDEST NOT DUP1 DUP4 AND SWAP2 POP POP SWAP3 SWAP2 POP POP JUMP JUMPDEST PUSH1 0x0 PUSH2 0x28D6 DUP4 DUP4 PUSH2 0x28AC JUMP JUMPDEST SWAP2 POP DUP3 PUSH1 0x2 MUL DUP3 OR SWAP1 POP SWAP3 SWAP2 POP POP JUMP JUMPDEST PUSH2 0x28EF DUP3 PUSH2 0x1CFF JUMP JUMPDEST PUSH8 0xFFFFFFFFFFFFFFFF DUP2 GT ISZERO PUSH2 0x2908 JUMPI PUSH2 0x2907 PUSH2 0x212B JUMP JUMPDEST JUMPDEST PUSH2 0x2912 DUP3 SLOAD PUSH2 0x24E1 JUMP JUMPDEST PUSH2 0x291D DUP3 DUP3 DUP6 PUSH2 0x2859 JUMP JUMPDEST PUSH1 0x0 PUSH1 0x20 SWAP1 POP PUSH1 0x1F DUP4 GT PUSH1 0x1 DUP2 EQ PUSH2 0x2950 JUMPI PUSH1 0x0 DUP5 ISZERO PUSH2 0x293E JUMPI DUP3 DUP8 ADD MLOAD SWAP1 POP JUMPDEST PUSH2 0x2948 DUP6 DUP3 PUSH2 0x28CA JUMP JUMPDEST DUP7 SSTORE POP PUSH2 0x29B0 JUMP JUMPDEST PUSH1 0x1F NOT DUP5 AND PUSH2 0x295E DUP7 PUSH2 0x273A JUMP JUMPDEST PUSH1 0x0 JUMPDEST DUP3 DUP2 LT ISZERO PUSH2 0x2986 JUMPI DUP5 DUP10 ADD MLOAD DUP3 SSTORE PUSH1 0x1 DUP3 ADD SWAP2 POP PUSH1 0x20 DUP6 ADD SWAP5 POP PUSH1 0x20 DUP2 ADD SWAP1 POP PUSH2 0x2961 JUMP JUMPDEST DUP7 DUP4 LT ISZERO PUSH2 0x29A3 JUMPI DUP5 DUP10 ADD MLOAD PUSH2 0x299F PUSH1 0x1F DUP10 AND DUP3 PUSH2 0x28AC JUMP JUMPDEST DUP4 SSTORE POP JUMPDEST PUSH1 0x1 PUSH1 0x2 DUP9 MUL ADD DUP9 SSTORE POP POP POP JUMPDEST POP POP POP POP POP POP JUMP JUMPDEST PUSH1 0x0 DUP2 SWAP1 POP SWAP3 SWAP2 POP POP JUMP JUMPDEST PUSH1 0x0 PUSH2 0x29CE DUP3 PUSH2 0x1CFF JUMP JUMPDEST PUSH2 0x29D8 DUP2 DUP6 PUSH2 0x29B8 JUMP JUMPDEST SWAP4 POP PUSH2 0x29E8 DUP2 DUP6 PUSH1 0x20 DUP7 ADD PUSH2 0x1D1B JUMP JUMPDEST DUP1 DUP5 ADD SWAP2 POP POP SWAP3 SWAP2 POP POP JUMP JUMPDEST PUSH1 0x0 PUSH2 0x2A00 DUP3 DUP5 PUSH2 0x29C3 JUMP JUMPDEST SWAP2 POP DUP2 SWAP1 POP SWAP3 SWAP2 POP POP JUMP INVALID LOG2 PUSH5 0x6970667358 0x22 SLT KECCAK256 0x4E PUSH7 0xB992C0758E7384 PUSH12 0x76801FF085AA6B842EC306A9 0xC8 0x2F DUP12 0xCC SHR EXTCODEHASH 0xF7 SAR REVERT 0xA7 PUSH5 0x736F6C6343 STOP ADDMOD SLT STOP CALLER "
				},
				"gasEstimates": {
					"creation": {
						"codeDepositCost": "2163400",
						"executionCost": "2309",
						"totalCost": "2165709"
					},
					"external": {
						"FClass()": "infinite",
						"FClass2()": "infinite",
						"SClass()": "infinite",
						"getAllStudents()": "infinite",
						"getAverage()": "infinite",
						"getStudent(uint256)": "infinite",
						"getStudent2(string)": "infinite",
						"getStudentScore(string)": "infinite",
						"getStudentsNumber()": "2489",
						"pushStudent(string,uint256,string[])": "infinite",
						"selfEva()": "infinite",
						"setCredit(uint256)": "infinite"
					}
				},
				"methodIdentifiers": {
					"FClass()": "75d073eb",
					"FClass2()": "23abd657",
					"SClass()": "1cfd4566",
					"getAllStudents()": "e9e30927",
					"getAverage()": "21055acb",
					"getStudent(uint256)": "642f9163",
					"getStudent2(string)": "95863d62",
					"getStudentScore(string)": "e5521501",
					"getStudentsNumber()": "d437d7ca",
					"pushStudent(string,uint256,string[])": "74aa6858",
					"selfEva()": "9a2a5815",
					"setCredit(uint256)": "eac1d5b7"
				}
			},
			"storageLayout": {
				"storage": [
					{
						"astId": 17,
						"contract": "contracts-test/230511-test1-answer.sol:QUIZ1",
						"label": "students",
						"offset": 0,
						"slot": "0",
						"type": "t_array(t_struct(Student)13_storage)dyn_storage"
					},
					{
						"astId": 138,
						"contract": "contracts-test/230511-test1-answer.sol:QUIZ1",
						"label": "name_Student",
						"offset": 0,
						"slot": "1",
						"type": "t_mapping(t_string_memory_ptr,t_struct(Student)13_storage)"
					}
				],
				"types": {
					"t_array(t_string_storage)dyn_storage": {
						"base": "t_string_storage",
						"encoding": "dynamic_array",
						"label": "string[]",
						"numberOfBytes": "32"
					},
					"t_array(t_struct(Student)13_storage)dyn_storage": {
						"base": "t_struct(Student)13_storage",
						"encoding": "dynamic_array",
						"label": "struct QUIZ1.Student[]",
						"numberOfBytes": "32"
					},
					"t_mapping(t_string_memory_ptr,t_struct(Student)13_storage)": {
						"encoding": "mapping",
						"key": "t_string_memory_ptr",
						"label": "mapping(string => struct QUIZ1.Student)",
						"numberOfBytes": "32",
						"value": "t_struct(Student)13_storage"
					},
					"t_string_memory_ptr": {
						"encoding": "bytes",
						"label": "string",
						"numberOfBytes": "32"
					},
					"t_string_storage": {
						"encoding": "bytes",
						"label": "string",
						"numberOfBytes": "32"
					},
					"t_struct(Student)13_storage": {
						"encoding": "inplace",
						"label": "struct QUIZ1.Student",
						"members": [
							{
								"astId": 3,
								"contract": "contracts-test/230511-test1-answer.sol:QUIZ1",
								"label": "name",
								"offset": 0,
								"slot": "0",
								"type": "t_string_storage"
							},
							{
								"astId": 5,
								"contract": "contracts-test/230511-test1-answer.sol:QUIZ1",
								"label": "number",
								"offset": 0,
								"slot": "1",
								"type": "t_uint256"
							},
							{
								"astId": 7,
								"contract": "contracts-test/230511-test1-answer.sol:QUIZ1",
								"label": "score",
								"offset": 0,
								"slot": "2",
								"type": "t_uint256"
							},
							{
								"astId": 9,
								"contract": "contracts-test/230511-test1-answer.sol:QUIZ1",
								"label": "credit",
								"offset": 0,
								"slot": "3",
								"type": "t_string_storage"
							},
							{
								"astId": 12,
								"contract": "contracts-test/230511-test1-answer.sol:QUIZ1",
								"label": "classes",
								"offset": 0,
								"slot": "4",
								"type": "t_array(t_string_storage)dyn_storage"
							}
						],
						"numberOfBytes": "160"
					},
					"t_uint256": {
						"encoding": "inplace",
						"label": "uint256",
						"numberOfBytes": "32"
					}
				}
			},
			"userdoc": {
				"kind": "user",
				"methods": {},
				"version": 1
			}
		}
	}
}