{
	"contracts-test/230511-test1-answer.sol": {
		"Sorting": {
			"abi": [
				{
					"inputs": [],
					"name": "get",
					"outputs": [
						{
							"internalType": "uint256[]",
							"name": "",
							"type": "uint256[]"
						}
					],
					"stateMutability": "view",
					"type": "function"
				},
				{
					"inputs": [
						{
							"internalType": "uint256",
							"name": "_n",
							"type": "uint256"
						}
					],
					"name": "push",
					"outputs": [],
					"stateMutability": "nonpayable",
					"type": "function"
				},
				{
					"inputs": [],
					"name": "sorting",
					"outputs": [],
					"stateMutability": "nonpayable",
					"type": "function"
				},
				{
					"inputs": [],
					"name": "sorting2",
					"outputs": [],
					"stateMutability": "nonpayable",
					"type": "function"
				}
			],
			"devdoc": {
				"kind": "dev",
				"methods": {},
				"version": 1
			},
			"evm": {
				"assembly": "    /* \"contracts-test/230511-test1-answer.sol\":5160:5948  contract Sorting {... */\n  mstore(0x40, 0x80)\n  callvalue\n  dup1\n  iszero\n  tag_1\n  jumpi\n  0x00\n  dup1\n  revert\ntag_1:\n  pop\n  dataSize(sub_0)\n  dup1\n  dataOffset(sub_0)\n  0x00\n  codecopy\n  0x00\n  return\nstop\n\nsub_0: assembly {\n        /* \"contracts-test/230511-test1-answer.sol\":5160:5948  contract Sorting {... */\n      mstore(0x40, 0x80)\n      callvalue\n      dup1\n      iszero\n      tag_1\n      jumpi\n      0x00\n      dup1\n      revert\n    tag_1:\n      pop\n      jumpi(tag_2, lt(calldatasize, 0x04))\n      shr(0xe0, calldataload(0x00))\n      dup1\n      0x3c9fab6b\n      eq\n      tag_3\n      jumpi\n      dup1\n      0x6d4ce63c\n      eq\n      tag_4\n      jumpi\n      dup1\n      0x959ac484\n      eq\n      tag_5\n      jumpi\n      dup1\n      0xd38f1aba\n      eq\n      tag_6\n      jumpi\n    tag_2:\n      0x00\n      dup1\n      revert\n        /* \"contracts-test/230511-test1-answer.sol\":5273:5572  function sorting() public {... */\n    tag_3:\n      tag_7\n      tag_8\n      jump\t// in\n    tag_7:\n      stop\n        /* \"contracts-test/230511-test1-answer.sol\":5865:5946  function get() public view returns(uint[] memory) {... */\n    tag_4:\n      tag_9\n      tag_10\n      jump\t// in\n    tag_9:\n      mload(0x40)\n      tag_11\n      swap2\n      swap1\n      tag_12\n      jump\t// in\n    tag_11:\n      mload(0x40)\n      dup1\n      swap2\n      sub\n      swap1\n      return\n        /* \"contracts-test/230511-test1-answer.sol\":5204:5267  function push(uint _n) public {... */\n    tag_5:\n      tag_13\n      0x04\n      dup1\n      calldatasize\n      sub\n      dup2\n      add\n      swap1\n      tag_14\n      swap2\n      swap1\n      tag_15\n      jump\t// in\n    tag_14:\n      tag_16\n      jump\t// in\n    tag_13:\n      stop\n        /* \"contracts-test/230511-test1-answer.sol\":5578:5859  function sorting2() public {... */\n    tag_6:\n      tag_17\n      tag_18\n      jump\t// in\n    tag_17:\n      stop\n        /* \"contracts-test/230511-test1-answer.sol\":5273:5572  function sorting() public {... */\n    tag_8:\n        /* \"contracts-test/230511-test1-answer.sol\":5314:5320  uint i */\n      0x00\n        /* \"contracts-test/230511-test1-answer.sol\":5309:5566  for (uint i=0; i<numbers.length-1; i++) {... */\n    tag_20:\n        /* \"contracts-test/230511-test1-answer.sol\":5341:5342  1 */\n      0x01\n        /* \"contracts-test/230511-test1-answer.sol\":5326:5333  numbers */\n      0x00\n        /* \"contracts-test/230511-test1-answer.sol\":5326:5340  numbers.length */\n      dup1\n      sload\n      swap1\n      pop\n        /* \"contracts-test/230511-test1-answer.sol\":5326:5342  numbers.length-1 */\n      tag_23\n      swap2\n      swap1\n      tag_24\n      jump\t// in\n    tag_23:\n        /* \"contracts-test/230511-test1-answer.sol\":5324:5325  i */\n      dup2\n        /* \"contracts-test/230511-test1-answer.sol\":5324:5342  i<numbers.length-1 */\n      lt\n        /* \"contracts-test/230511-test1-answer.sol\":5309:5566  for (uint i=0; i<numbers.length-1; i++) {... */\n      iszero\n      tag_21\n      jumpi\n        /* \"contracts-test/230511-test1-answer.sol\":5368:5374  uint j */\n      0x00\n        /* \"contracts-test/230511-test1-answer.sol\":5377:5378  1 */\n      0x01\n        /* \"contracts-test/230511-test1-answer.sol\":5375:5376  i */\n      dup3\n        /* \"contracts-test/230511-test1-answer.sol\":5375:5378  i+1 */\n      tag_28\n      swap2\n      swap1\n      tag_29\n      jump\t// in\n    tag_28:\n        /* \"contracts-test/230511-test1-answer.sol\":5368:5378  uint j=i+1 */\n      swap1\n      pop\n        /* \"contracts-test/230511-test1-answer.sol\":5363:5556  for (uint j=i+1; j<numbers.length; j++) {... */\n    tag_25:\n        /* \"contracts-test/230511-test1-answer.sol\":5382:5389  numbers */\n      0x00\n        /* \"contracts-test/230511-test1-answer.sol\":5382:5396  numbers.length */\n      dup1\n      sload\n      swap1\n      pop\n        /* \"contracts-test/230511-test1-answer.sol\":5380:5381  j */\n      dup2\n        /* \"contracts-test/230511-test1-answer.sol\":5380:5396  j<numbers.length */\n      lt\n        /* \"contracts-test/230511-test1-answer.sol\":5363:5556  for (uint j=i+1; j<numbers.length; j++) {... */\n      iszero\n      tag_26\n      jumpi\n        /* \"contracts-test/230511-test1-answer.sol\":5438:5445  numbers */\n      0x00\n        /* \"contracts-test/230511-test1-answer.sol\":5446:5447  j */\n      dup2\n        /* \"contracts-test/230511-test1-answer.sol\":5438:5448  numbers[j] */\n      dup2\n      sload\n      dup2\n      lt\n      tag_30\n      jumpi\n      tag_31\n      tag_32\n      jump\t// in\n    tag_31:\n    tag_30:\n      swap1\n      0x00\n      mstore\n      keccak256(0x00, 0x20)\n      add\n      sload\n        /* \"contracts-test/230511-test1-answer.sol\":5425:5432  numbers */\n      0x00\n        /* \"contracts-test/230511-test1-answer.sol\":5433:5434  i */\n      dup4\n        /* \"contracts-test/230511-test1-answer.sol\":5425:5435  numbers[i] */\n      dup2\n      sload\n      dup2\n      lt\n      tag_34\n      jumpi\n      tag_35\n      tag_32\n      jump\t// in\n    tag_35:\n    tag_34:\n      swap1\n      0x00\n      mstore\n      keccak256(0x00, 0x20)\n      add\n      sload\n        /* \"contracts-test/230511-test1-answer.sol\":5425:5448  numbers[i] < numbers[j] */\n      lt\n        /* \"contracts-test/230511-test1-answer.sol\":5421:5542  if (numbers[i] < numbers[j]) {... */\n      iszero\n      tag_37\n      jumpi\n        /* \"contracts-test/230511-test1-answer.sol\":5500:5507  numbers */\n      0x00\n        /* \"contracts-test/230511-test1-answer.sol\":5508:5509  j */\n      dup2\n        /* \"contracts-test/230511-test1-answer.sol\":5500:5510  numbers[j] */\n      dup2\n      sload\n      dup2\n      lt\n      tag_38\n      jumpi\n      tag_39\n      tag_32\n      jump\t// in\n    tag_39:\n    tag_38:\n      swap1\n      0x00\n      mstore\n      keccak256(0x00, 0x20)\n      add\n      sload\n        /* \"contracts-test/230511-test1-answer.sol\":5512:5519  numbers */\n      0x00\n        /* \"contracts-test/230511-test1-answer.sol\":5520:5521  i */\n      dup4\n        /* \"contracts-test/230511-test1-answer.sol\":5512:5522  numbers[i] */\n      dup2\n      sload\n      dup2\n      lt\n      tag_41\n      jumpi\n      tag_42\n      tag_32\n      jump\t// in\n    tag_42:\n    tag_41:\n      swap1\n      0x00\n      mstore\n      keccak256(0x00, 0x20)\n      add\n      sload\n        /* \"contracts-test/230511-test1-answer.sol\":5473:5480  numbers */\n      0x00\n        /* \"contracts-test/230511-test1-answer.sol\":5481:5482  i */\n      dup5\n        /* \"contracts-test/230511-test1-answer.sol\":5473:5483  numbers[i] */\n      dup2\n      sload\n      dup2\n      lt\n      tag_44\n      jumpi\n      tag_45\n      tag_32\n      jump\t// in\n    tag_45:\n    tag_44:\n      swap1\n      0x00\n      mstore\n      keccak256(0x00, 0x20)\n      add\n      0x00\n        /* \"contracts-test/230511-test1-answer.sol\":5485:5492  numbers */\n      dup1\n        /* \"contracts-test/230511-test1-answer.sol\":5493:5494  j */\n      dup6\n        /* \"contracts-test/230511-test1-answer.sol\":5485:5495  numbers[j] */\n      dup2\n      sload\n      dup2\n      lt\n      tag_47\n      jumpi\n      tag_48\n      tag_32\n      jump\t// in\n    tag_48:\n    tag_47:\n      swap1\n      0x00\n      mstore\n      keccak256(0x00, 0x20)\n      add\n      0x00\n        /* \"contracts-test/230511-test1-answer.sol\":5472:5523  (numbers[i], numbers[j]) = (numbers[j], numbers[i]) */\n      dup5\n      swap2\n      swap1\n      pop\n      sstore\n      dup4\n      swap2\n      swap1\n      pop\n      sstore\n      pop\n      pop\n        /* \"contracts-test/230511-test1-answer.sol\":5421:5542  if (numbers[i] < numbers[j]) {... */\n    tag_37:\n        /* \"contracts-test/230511-test1-answer.sol\":5398:5401  j++ */\n      dup1\n      dup1\n      tag_50\n      swap1\n      tag_51\n      jump\t// in\n    tag_50:\n      swap2\n      pop\n      pop\n        /* \"contracts-test/230511-test1-answer.sol\":5363:5556  for (uint j=i+1; j<numbers.length; j++) {... */\n      jump(tag_25)\n    tag_26:\n      pop\n        /* \"contracts-test/230511-test1-answer.sol\":5344:5347  i++ */\n      dup1\n      dup1\n      tag_52\n      swap1\n      tag_51\n      jump\t// in\n    tag_52:\n      swap2\n      pop\n      pop\n        /* \"contracts-test/230511-test1-answer.sol\":5309:5566  for (uint i=0; i<numbers.length-1; i++) {... */\n      jump(tag_20)\n    tag_21:\n      pop\n        /* \"contracts-test/230511-test1-answer.sol\":5273:5572  function sorting() public {... */\n      jump\t// out\n        /* \"contracts-test/230511-test1-answer.sol\":5865:5946  function get() public view returns(uint[] memory) {... */\n    tag_10:\n        /* \"contracts-test/230511-test1-answer.sol\":5900:5913  uint[] memory */\n      0x60\n        /* \"contracts-test/230511-test1-answer.sol\":5932:5939  numbers */\n      0x00\n        /* \"contracts-test/230511-test1-answer.sol\":5925:5939  return numbers */\n      dup1\n      sload\n      dup1\n      0x20\n      mul\n      0x20\n      add\n      mload(0x40)\n      swap1\n      dup2\n      add\n      0x40\n      mstore\n      dup1\n      swap3\n      swap2\n      swap1\n      dup2\n      dup2\n      mstore\n      0x20\n      add\n      dup3\n      dup1\n      sload\n      dup1\n      iszero\n      tag_54\n      jumpi\n      0x20\n      mul\n      dup3\n      add\n      swap2\n      swap1\n      0x00\n      mstore\n      keccak256(0x00, 0x20)\n      swap1\n    tag_55:\n      dup2\n      sload\n      dup2\n      mstore\n      0x20\n      add\n      swap1\n      0x01\n      add\n      swap1\n      dup1\n      dup4\n      gt\n      tag_55\n      jumpi\n    tag_54:\n      pop\n      pop\n      pop\n      pop\n      pop\n      swap1\n      pop\n        /* \"contracts-test/230511-test1-answer.sol\":5865:5946  function get() public view returns(uint[] memory) {... */\n      swap1\n      jump\t// out\n        /* \"contracts-test/230511-test1-answer.sol\":5204:5267  function push(uint _n) public {... */\n    tag_16:\n        /* \"contracts-test/230511-test1-answer.sol\":5244:5251  numbers */\n      0x00\n        /* \"contracts-test/230511-test1-answer.sol\":5257:5259  _n */\n      dup2\n        /* \"contracts-test/230511-test1-answer.sol\":5244:5260  numbers.push(_n) */\n      swap1\n      dup1\n      0x01\n      dup2\n      sload\n      add\n      dup1\n      dup3\n      sstore\n      dup1\n      swap2\n      pop\n      pop\n      0x01\n      swap1\n      sub\n      swap1\n      0x00\n      mstore\n      keccak256(0x00, 0x20)\n      add\n      0x00\n      swap1\n      swap2\n      swap1\n      swap2\n      swap1\n      swap2\n      pop\n      sstore\n        /* \"contracts-test/230511-test1-answer.sol\":5204:5267  function push(uint _n) public {... */\n      pop\n      jump\t// out\n        /* \"contracts-test/230511-test1-answer.sol\":5578:5859  function sorting2() public {... */\n    tag_18:\n        /* \"contracts-test/230511-test1-answer.sol\":5619:5625  uint j */\n      0x00\n        /* \"contracts-test/230511-test1-answer.sol\":5626:5627  1 */\n      0x01\n        /* \"contracts-test/230511-test1-answer.sol\":5619:5627  uint j=1 */\n      swap1\n      pop\n        /* \"contracts-test/230511-test1-answer.sol\":5615:5853  for(uint j=1; j<numbers.length; j++) {... */\n    tag_59:\n        /* \"contracts-test/230511-test1-answer.sol\":5631:5638  numbers */\n      0x00\n        /* \"contracts-test/230511-test1-answer.sol\":5631:5645  numbers.length */\n      dup1\n      sload\n      swap1\n      pop\n        /* \"contracts-test/230511-test1-answer.sol\":5629:5630  j */\n      dup2\n        /* \"contracts-test/230511-test1-answer.sol\":5629:5645  j<numbers.length */\n      lt\n        /* \"contracts-test/230511-test1-answer.sol\":5615:5853  for(uint j=1; j<numbers.length; j++) {... */\n      iszero\n      tag_60\n      jumpi\n        /* \"contracts-test/230511-test1-answer.sol\":5670:5676  uint i */\n      0x00\n        /* \"contracts-test/230511-test1-answer.sol\":5666:5843  for(uint i=0; i<j; i++) {... */\n    tag_62:\n        /* \"contracts-test/230511-test1-answer.sol\":5682:5683  j */\n      dup2\n        /* \"contracts-test/230511-test1-answer.sol\":5680:5681  i */\n      dup2\n        /* \"contracts-test/230511-test1-answer.sol\":5680:5683  i<j */\n      lt\n        /* \"contracts-test/230511-test1-answer.sol\":5666:5843  for(uint i=0; i<j; i++) {... */\n      iszero\n      tag_63\n      jumpi\n        /* \"contracts-test/230511-test1-answer.sol\":5725:5732  numbers */\n      0x00\n        /* \"contracts-test/230511-test1-answer.sol\":5733:5734  j */\n      dup3\n        /* \"contracts-test/230511-test1-answer.sol\":5725:5735  numbers[j] */\n      dup2\n      sload\n      dup2\n      lt\n      tag_65\n      jumpi\n      tag_66\n      tag_32\n      jump\t// in\n    tag_66:\n    tag_65:\n      swap1\n      0x00\n      mstore\n      keccak256(0x00, 0x20)\n      add\n      sload\n        /* \"contracts-test/230511-test1-answer.sol\":5712:5719  numbers */\n      0x00\n        /* \"contracts-test/230511-test1-answer.sol\":5720:5721  i */\n      dup3\n        /* \"contracts-test/230511-test1-answer.sol\":5712:5722  numbers[i] */\n      dup2\n      sload\n      dup2\n      lt\n      tag_68\n      jumpi\n      tag_69\n      tag_32\n      jump\t// in\n    tag_69:\n    tag_68:\n      swap1\n      0x00\n      mstore\n      keccak256(0x00, 0x20)\n      add\n      sload\n        /* \"contracts-test/230511-test1-answer.sol\":5712:5735  numbers[i] < numbers[j] */\n      lt\n        /* \"contracts-test/230511-test1-answer.sol\":5708:5829  if (numbers[i] < numbers[j]) {... */\n      iszero\n      tag_71\n      jumpi\n        /* \"contracts-test/230511-test1-answer.sol\":5787:5794  numbers */\n      0x00\n        /* \"contracts-test/230511-test1-answer.sol\":5795:5796  j */\n      dup3\n        /* \"contracts-test/230511-test1-answer.sol\":5787:5797  numbers[j] */\n      dup2\n      sload\n      dup2\n      lt\n      tag_72\n      jumpi\n      tag_73\n      tag_32\n      jump\t// in\n    tag_73:\n    tag_72:\n      swap1\n      0x00\n      mstore\n      keccak256(0x00, 0x20)\n      add\n      sload\n        /* \"contracts-test/230511-test1-answer.sol\":5799:5806  numbers */\n      0x00\n        /* \"contracts-test/230511-test1-answer.sol\":5807:5808  i */\n      dup3\n        /* \"contracts-test/230511-test1-answer.sol\":5799:5809  numbers[i] */\n      dup2\n      sload\n      dup2\n      lt\n      tag_75\n      jumpi\n      tag_76\n      tag_32\n      jump\t// in\n    tag_76:\n    tag_75:\n      swap1\n      0x00\n      mstore\n      keccak256(0x00, 0x20)\n      add\n      sload\n        /* \"contracts-test/230511-test1-answer.sol\":5760:5767  numbers */\n      0x00\n        /* \"contracts-test/230511-test1-answer.sol\":5768:5769  i */\n      dup4\n        /* \"contracts-test/230511-test1-answer.sol\":5760:5770  numbers[i] */\n      dup2\n      sload\n      dup2\n      lt\n      tag_78\n      jumpi\n      tag_79\n      tag_32\n      jump\t// in\n    tag_79:\n    tag_78:\n      swap1\n      0x00\n      mstore\n      keccak256(0x00, 0x20)\n      add\n      0x00\n        /* \"contracts-test/230511-test1-answer.sol\":5772:5779  numbers */\n      dup1\n        /* \"contracts-test/230511-test1-answer.sol\":5780:5781  j */\n      dup7\n        /* \"contracts-test/230511-test1-answer.sol\":5772:5782  numbers[j] */\n      dup2\n      sload\n      dup2\n      lt\n      tag_81\n      jumpi\n      tag_82\n      tag_32\n      jump\t// in\n    tag_82:\n    tag_81:\n      swap1\n      0x00\n      mstore\n      keccak256(0x00, 0x20)\n      add\n      0x00\n        /* \"contracts-test/230511-test1-answer.sol\":5759:5810  (numbers[i], numbers[j]) = (numbers[j], numbers[i]) */\n      dup5\n      swap2\n      swap1\n      pop\n      sstore\n      dup4\n      swap2\n      swap1\n      pop\n      sstore\n      pop\n      pop\n        /* \"contracts-test/230511-test1-answer.sol\":5708:5829  if (numbers[i] < numbers[j]) {... */\n    tag_71:\n        /* \"contracts-test/230511-test1-answer.sol\":5685:5688  i++ */\n      dup1\n      dup1\n      tag_84\n      swap1\n      tag_51\n      jump\t// in\n    tag_84:\n      swap2\n      pop\n      pop\n        /* \"contracts-test/230511-test1-answer.sol\":5666:5843  for(uint i=0; i<j; i++) {... */\n      jump(tag_62)\n    tag_63:\n      pop\n        /* \"contracts-test/230511-test1-answer.sol\":5647:5650  j++ */\n      dup1\n      dup1\n      tag_85\n      swap1\n      tag_51\n      jump\t// in\n    tag_85:\n      swap2\n      pop\n      pop\n        /* \"contracts-test/230511-test1-answer.sol\":5615:5853  for(uint j=1; j<numbers.length; j++) {... */\n      jump(tag_59)\n    tag_60:\n      pop\n        /* \"contracts-test/230511-test1-answer.sol\":5578:5859  function sorting2() public {... */\n      jump\t// out\n        /* \"#utility.yul\":7:121   */\n    tag_86:\n        /* \"#utility.yul\":74:80   */\n      0x00\n        /* \"#utility.yul\":108:113   */\n      dup2\n        /* \"#utility.yul\":102:114   */\n      mload\n        /* \"#utility.yul\":92:114   */\n      swap1\n      pop\n        /* \"#utility.yul\":7:121   */\n      swap2\n      swap1\n      pop\n      jump\t// out\n        /* \"#utility.yul\":127:311   */\n    tag_87:\n        /* \"#utility.yul\":226:237   */\n      0x00\n        /* \"#utility.yul\":260:266   */\n      dup3\n        /* \"#utility.yul\":255:258   */\n      dup3\n        /* \"#utility.yul\":248:267   */\n      mstore\n        /* \"#utility.yul\":300:304   */\n      0x20\n        /* \"#utility.yul\":295:298   */\n      dup3\n        /* \"#utility.yul\":291:305   */\n      add\n        /* \"#utility.yul\":276:305   */\n      swap1\n      pop\n        /* \"#utility.yul\":127:311   */\n      swap3\n      swap2\n      pop\n      pop\n      jump\t// out\n        /* \"#utility.yul\":317:449   */\n    tag_88:\n        /* \"#utility.yul\":384:388   */\n      0x00\n        /* \"#utility.yul\":407:410   */\n      dup2\n        /* \"#utility.yul\":399:410   */\n      swap1\n      pop\n        /* \"#utility.yul\":437:441   */\n      0x20\n        /* \"#utility.yul\":432:435   */\n      dup3\n        /* \"#utility.yul\":428:442   */\n      add\n        /* \"#utility.yul\":420:442   */\n      swap1\n      pop\n        /* \"#utility.yul\":317:449   */\n      swap2\n      swap1\n      pop\n      jump\t// out\n        /* \"#utility.yul\":455:532   */\n    tag_89:\n        /* \"#utility.yul\":492:499   */\n      0x00\n        /* \"#utility.yul\":521:526   */\n      dup2\n        /* \"#utility.yul\":510:526   */\n      swap1\n      pop\n        /* \"#utility.yul\":455:532   */\n      swap2\n      swap1\n      pop\n      jump\t// out\n        /* \"#utility.yul\":538:646   */\n    tag_90:\n        /* \"#utility.yul\":615:639   */\n      tag_106\n        /* \"#utility.yul\":633:638   */\n      dup2\n        /* \"#utility.yul\":615:639   */\n      tag_89\n      jump\t// in\n    tag_106:\n        /* \"#utility.yul\":610:613   */\n      dup3\n        /* \"#utility.yul\":603:640   */\n      mstore\n        /* \"#utility.yul\":538:646   */\n      pop\n      pop\n      jump\t// out\n        /* \"#utility.yul\":652:831   */\n    tag_91:\n        /* \"#utility.yul\":721:731   */\n      0x00\n        /* \"#utility.yul\":742:788   */\n      tag_108\n        /* \"#utility.yul\":784:787   */\n      dup4\n        /* \"#utility.yul\":776:782   */\n      dup4\n        /* \"#utility.yul\":742:788   */\n      tag_90\n      jump\t// in\n    tag_108:\n        /* \"#utility.yul\":820:824   */\n      0x20\n        /* \"#utility.yul\":815:818   */\n      dup4\n        /* \"#utility.yul\":811:825   */\n      add\n        /* \"#utility.yul\":797:825   */\n      swap1\n      pop\n        /* \"#utility.yul\":652:831   */\n      swap3\n      swap2\n      pop\n      pop\n      jump\t// out\n        /* \"#utility.yul\":837:950   */\n    tag_92:\n        /* \"#utility.yul\":907:911   */\n      0x00\n        /* \"#utility.yul\":939:943   */\n      0x20\n        /* \"#utility.yul\":934:937   */\n      dup3\n        /* \"#utility.yul\":930:944   */\n      add\n        /* \"#utility.yul\":922:944   */\n      swap1\n      pop\n        /* \"#utility.yul\":837:950   */\n      swap2\n      swap1\n      pop\n      jump\t// out\n        /* \"#utility.yul\":986:1718   */\n    tag_93:\n        /* \"#utility.yul\":1105:1108   */\n      0x00\n        /* \"#utility.yul\":1134:1188   */\n      tag_111\n        /* \"#utility.yul\":1182:1187   */\n      dup3\n        /* \"#utility.yul\":1134:1188   */\n      tag_86\n      jump\t// in\n    tag_111:\n        /* \"#utility.yul\":1204:1290   */\n      tag_112\n        /* \"#utility.yul\":1283:1289   */\n      dup2\n        /* \"#utility.yul\":1278:1281   */\n      dup6\n        /* \"#utility.yul\":1204:1290   */\n      tag_87\n      jump\t// in\n    tag_112:\n        /* \"#utility.yul\":1197:1290   */\n      swap4\n      pop\n        /* \"#utility.yul\":1314:1370   */\n      tag_113\n        /* \"#utility.yul\":1364:1369   */\n      dup4\n        /* \"#utility.yul\":1314:1370   */\n      tag_88\n      jump\t// in\n    tag_113:\n        /* \"#utility.yul\":1393:1400   */\n      dup1\n        /* \"#utility.yul\":1424:1425   */\n      0x00\n        /* \"#utility.yul\":1409:1693   */\n    tag_114:\n        /* \"#utility.yul\":1434:1440   */\n      dup4\n        /* \"#utility.yul\":1431:1432   */\n      dup2\n        /* \"#utility.yul\":1428:1441   */\n      lt\n        /* \"#utility.yul\":1409:1693   */\n      iszero\n      tag_116\n      jumpi\n        /* \"#utility.yul\":1510:1516   */\n      dup2\n        /* \"#utility.yul\":1504:1517   */\n      mload\n        /* \"#utility.yul\":1537:1600   */\n      tag_117\n        /* \"#utility.yul\":1596:1599   */\n      dup9\n        /* \"#utility.yul\":1581:1594   */\n      dup3\n        /* \"#utility.yul\":1537:1600   */\n      tag_91\n      jump\t// in\n    tag_117:\n        /* \"#utility.yul\":1530:1600   */\n      swap8\n      pop\n        /* \"#utility.yul\":1623:1683   */\n      tag_118\n        /* \"#utility.yul\":1676:1682   */\n      dup4\n        /* \"#utility.yul\":1623:1683   */\n      tag_92\n      jump\t// in\n    tag_118:\n        /* \"#utility.yul\":1613:1683   */\n      swap3\n      pop\n        /* \"#utility.yul\":1469:1693   */\n      pop\n        /* \"#utility.yul\":1456:1457   */\n      0x01\n        /* \"#utility.yul\":1453:1454   */\n      dup2\n        /* \"#utility.yul\":1449:1458   */\n      add\n        /* \"#utility.yul\":1444:1458   */\n      swap1\n      pop\n        /* \"#utility.yul\":1409:1693   */\n      jump(tag_114)\n    tag_116:\n        /* \"#utility.yul\":1413:1427   */\n      pop\n        /* \"#utility.yul\":1709:1712   */\n      dup6\n        /* \"#utility.yul\":1702:1712   */\n      swap4\n      pop\n        /* \"#utility.yul\":1110:1718   */\n      pop\n      pop\n      pop\n        /* \"#utility.yul\":986:1718   */\n      swap3\n      swap2\n      pop\n      pop\n      jump\t// out\n        /* \"#utility.yul\":1724:2097   */\n    tag_12:\n        /* \"#utility.yul\":1867:1871   */\n      0x00\n        /* \"#utility.yul\":1905:1907   */\n      0x20\n        /* \"#utility.yul\":1894:1903   */\n      dup3\n        /* \"#utility.yul\":1890:1908   */\n      add\n        /* \"#utility.yul\":1882:1908   */\n      swap1\n      pop\n        /* \"#utility.yul\":1954:1963   */\n      dup2\n        /* \"#utility.yul\":1948:1952   */\n      dup2\n        /* \"#utility.yul\":1944:1964   */\n      sub\n        /* \"#utility.yul\":1940:1941   */\n      0x00\n        /* \"#utility.yul\":1929:1938   */\n      dup4\n        /* \"#utility.yul\":1925:1942   */\n      add\n        /* \"#utility.yul\":1918:1965   */\n      mstore\n        /* \"#utility.yul\":1982:2090   */\n      tag_120\n        /* \"#utility.yul\":2085:2089   */\n      dup2\n        /* \"#utility.yul\":2076:2082   */\n      dup5\n        /* \"#utility.yul\":1982:2090   */\n      tag_93\n      jump\t// in\n    tag_120:\n        /* \"#utility.yul\":1974:2090   */\n      swap1\n      pop\n        /* \"#utility.yul\":1724:2097   */\n      swap3\n      swap2\n      pop\n      pop\n      jump\t// out\n        /* \"#utility.yul\":2184:2301   */\n    tag_95:\n        /* \"#utility.yul\":2293:2294   */\n      0x00\n        /* \"#utility.yul\":2290:2291   */\n      dup1\n        /* \"#utility.yul\":2283:2295   */\n      revert\n        /* \"#utility.yul\":2430:2552   */\n    tag_97:\n        /* \"#utility.yul\":2503:2527   */\n      tag_125\n        /* \"#utility.yul\":2521:2526   */\n      dup2\n        /* \"#utility.yul\":2503:2527   */\n      tag_89\n      jump\t// in\n    tag_125:\n        /* \"#utility.yul\":2496:2501   */\n      dup2\n        /* \"#utility.yul\":2493:2528   */\n      eq\n        /* \"#utility.yul\":2483:2546   */\n      tag_126\n      jumpi\n        /* \"#utility.yul\":2542:2543   */\n      0x00\n        /* \"#utility.yul\":2539:2540   */\n      dup1\n        /* \"#utility.yul\":2532:2544   */\n      revert\n        /* \"#utility.yul\":2483:2546   */\n    tag_126:\n        /* \"#utility.yul\":2430:2552   */\n      pop\n      jump\t// out\n        /* \"#utility.yul\":2558:2697   */\n    tag_98:\n        /* \"#utility.yul\":2604:2609   */\n      0x00\n        /* \"#utility.yul\":2642:2648   */\n      dup2\n        /* \"#utility.yul\":2629:2649   */\n      calldataload\n        /* \"#utility.yul\":2620:2649   */\n      swap1\n      pop\n        /* \"#utility.yul\":2658:2691   */\n      tag_128\n        /* \"#utility.yul\":2685:2690   */\n      dup2\n        /* \"#utility.yul\":2658:2691   */\n      tag_97\n      jump\t// in\n    tag_128:\n        /* \"#utility.yul\":2558:2697   */\n      swap3\n      swap2\n      pop\n      pop\n      jump\t// out\n        /* \"#utility.yul\":2703:3032   */\n    tag_15:\n        /* \"#utility.yul\":2762:2768   */\n      0x00\n        /* \"#utility.yul\":2811:2813   */\n      0x20\n        /* \"#utility.yul\":2799:2808   */\n      dup3\n        /* \"#utility.yul\":2790:2797   */\n      dup5\n        /* \"#utility.yul\":2786:2809   */\n      sub\n        /* \"#utility.yul\":2782:2814   */\n      slt\n        /* \"#utility.yul\":2779:2898   */\n      iszero\n      tag_130\n      jumpi\n        /* \"#utility.yul\":2817:2896   */\n      tag_131\n      tag_95\n      jump\t// in\n    tag_131:\n        /* \"#utility.yul\":2779:2898   */\n    tag_130:\n        /* \"#utility.yul\":2937:2938   */\n      0x00\n        /* \"#utility.yul\":2962:3015   */\n      tag_132\n        /* \"#utility.yul\":3007:3014   */\n      dup5\n        /* \"#utility.yul\":2998:3004   */\n      dup3\n        /* \"#utility.yul\":2987:2996   */\n      dup6\n        /* \"#utility.yul\":2983:3005   */\n      add\n        /* \"#utility.yul\":2962:3015   */\n      tag_98\n      jump\t// in\n    tag_132:\n        /* \"#utility.yul\":2952:3015   */\n      swap2\n      pop\n        /* \"#utility.yul\":2908:3025   */\n      pop\n        /* \"#utility.yul\":2703:3032   */\n      swap3\n      swap2\n      pop\n      pop\n      jump\t// out\n        /* \"#utility.yul\":3038:3218   */\n    tag_99:\n        /* \"#utility.yul\":3086:3163   */\n      0x4e487b7100000000000000000000000000000000000000000000000000000000\n        /* \"#utility.yul\":3083:3084   */\n      0x00\n        /* \"#utility.yul\":3076:3164   */\n      mstore\n        /* \"#utility.yul\":3183:3187   */\n      0x11\n        /* \"#utility.yul\":3180:3181   */\n      0x04\n        /* \"#utility.yul\":3173:3188   */\n      mstore\n        /* \"#utility.yul\":3207:3211   */\n      0x24\n        /* \"#utility.yul\":3204:3205   */\n      0x00\n        /* \"#utility.yul\":3197:3212   */\n      revert\n        /* \"#utility.yul\":3224:3418   */\n    tag_24:\n        /* \"#utility.yul\":3264:3268   */\n      0x00\n        /* \"#utility.yul\":3284:3304   */\n      tag_135\n        /* \"#utility.yul\":3302:3303   */\n      dup3\n        /* \"#utility.yul\":3284:3304   */\n      tag_89\n      jump\t// in\n    tag_135:\n        /* \"#utility.yul\":3279:3304   */\n      swap2\n      pop\n        /* \"#utility.yul\":3318:3338   */\n      tag_136\n        /* \"#utility.yul\":3336:3337   */\n      dup4\n        /* \"#utility.yul\":3318:3338   */\n      tag_89\n      jump\t// in\n    tag_136:\n        /* \"#utility.yul\":3313:3338   */\n      swap3\n      pop\n        /* \"#utility.yul\":3362:3363   */\n      dup3\n        /* \"#utility.yul\":3359:3360   */\n      dup3\n        /* \"#utility.yul\":3355:3364   */\n      sub\n        /* \"#utility.yul\":3347:3364   */\n      swap1\n      pop\n        /* \"#utility.yul\":3386:3387   */\n      dup2\n        /* \"#utility.yul\":3380:3384   */\n      dup2\n        /* \"#utility.yul\":3377:3388   */\n      gt\n        /* \"#utility.yul\":3374:3411   */\n      iszero\n      tag_137\n      jumpi\n        /* \"#utility.yul\":3391:3409   */\n      tag_138\n      tag_99\n      jump\t// in\n    tag_138:\n        /* \"#utility.yul\":3374:3411   */\n    tag_137:\n        /* \"#utility.yul\":3224:3418   */\n      swap3\n      swap2\n      pop\n      pop\n      jump\t// out\n        /* \"#utility.yul\":3424:3615   */\n    tag_29:\n        /* \"#utility.yul\":3464:3467   */\n      0x00\n        /* \"#utility.yul\":3483:3503   */\n      tag_140\n        /* \"#utility.yul\":3501:3502   */\n      dup3\n        /* \"#utility.yul\":3483:3503   */\n      tag_89\n      jump\t// in\n    tag_140:\n        /* \"#utility.yul\":3478:3503   */\n      swap2\n      pop\n        /* \"#utility.yul\":3517:3537   */\n      tag_141\n        /* \"#utility.yul\":3535:3536   */\n      dup4\n        /* \"#utility.yul\":3517:3537   */\n      tag_89\n      jump\t// in\n    tag_141:\n        /* \"#utility.yul\":3512:3537   */\n      swap3\n      pop\n        /* \"#utility.yul\":3560:3561   */\n      dup3\n        /* \"#utility.yul\":3557:3558   */\n      dup3\n        /* \"#utility.yul\":3553:3562   */\n      add\n        /* \"#utility.yul\":3546:3562   */\n      swap1\n      pop\n        /* \"#utility.yul\":3581:3584   */\n      dup1\n        /* \"#utility.yul\":3578:3579   */\n      dup3\n        /* \"#utility.yul\":3575:3585   */\n      gt\n        /* \"#utility.yul\":3572:3608   */\n      iszero\n      tag_142\n      jumpi\n        /* \"#utility.yul\":3588:3606   */\n      tag_143\n      tag_99\n      jump\t// in\n    tag_143:\n        /* \"#utility.yul\":3572:3608   */\n    tag_142:\n        /* \"#utility.yul\":3424:3615   */\n      swap3\n      swap2\n      pop\n      pop\n      jump\t// out\n        /* \"#utility.yul\":3621:3801   */\n    tag_32:\n        /* \"#utility.yul\":3669:3746   */\n      0x4e487b7100000000000000000000000000000000000000000000000000000000\n        /* \"#utility.yul\":3666:3667   */\n      0x00\n        /* \"#utility.yul\":3659:3747   */\n      mstore\n        /* \"#utility.yul\":3766:3770   */\n      0x32\n        /* \"#utility.yul\":3763:3764   */\n      0x04\n        /* \"#utility.yul\":3756:3771   */\n      mstore\n        /* \"#utility.yul\":3790:3794   */\n      0x24\n        /* \"#utility.yul\":3787:3788   */\n      0x00\n        /* \"#utility.yul\":3780:3795   */\n      revert\n        /* \"#utility.yul\":3807:4040   */\n    tag_51:\n        /* \"#utility.yul\":3846:3849   */\n      0x00\n        /* \"#utility.yul\":3869:3893   */\n      tag_146\n        /* \"#utility.yul\":3887:3892   */\n      dup3\n        /* \"#utility.yul\":3869:3893   */\n      tag_89\n      jump\t// in\n    tag_146:\n        /* \"#utility.yul\":3860:3893   */\n      swap2\n      pop\n        /* \"#utility.yul\":3915:3981   */\n      0xffffffffffffffffffffffffffffffffffffffffffffffffffffffffffffffff\n        /* \"#utility.yul\":3908:3913   */\n      dup3\n        /* \"#utility.yul\":3905:3982   */\n      sub\n        /* \"#utility.yul\":3902:4005   */\n      tag_147\n      jumpi\n        /* \"#utility.yul\":3985:4003   */\n      tag_148\n      tag_99\n      jump\t// in\n    tag_148:\n        /* \"#utility.yul\":3902:4005   */\n    tag_147:\n        /* \"#utility.yul\":4032:4033   */\n      0x01\n        /* \"#utility.yul\":4025:4030   */\n      dup3\n        /* \"#utility.yul\":4021:4034   */\n      add\n        /* \"#utility.yul\":4014:4034   */\n      swap1\n      pop\n        /* \"#utility.yul\":3807:4040   */\n      swap2\n      swap1\n      pop\n      jump\t// out\n\n    auxdata: 0xa2646970667358221220ada14c92df2a1d69e949538af79d8de1b2c29bbd9d8e12b621b254d9ff20c85964736f6c63430008120033\n}\n",
				"bytecode": {
					"linkReferences": {},
					"object": "608060405234801561001057600080fd5b506105f9806100206000396000f3fe608060405234801561001057600080fd5b506004361061004c5760003560e01c80633c9fab6b146100515780636d4ce63c1461005b578063959ac48414610079578063d38f1aba14610095575b600080fd5b61005961009f565b005b6100636101d2565b6040516100709190610435565b60405180910390f35b610093600480360381019061008e9190610488565b61022a565b005b61009d610256565b005b60005b60016000805490506100b491906104e4565b8110156101cf5760006001826100ca9190610518565b90505b6000805490508110156101bb57600081815481106100ee576100ed61054c565b5b90600052602060002001546000838154811061010d5761010c61054c565b5b906000526020600020015410156101a857600081815481106101325761013161054c565b5b9060005260206000200154600083815481106101515761015061054c565b5b9060005260206000200154600084815481106101705761016f61054c565b5b90600052602060002001600080858154811061018f5761018e61054c565b5b9060005260206000200160008491905055839190505550505b80806101b39061057b565b9150506100cd565b5080806101c79061057b565b9150506100a2565b50565b6060600080548060200260200160405190810160405280929190818152602001828054801561022057602002820191906000526020600020905b81548152602001906001019080831161020c575b5050505050905090565b600081908060018154018082558091505060019003906000526020600020016000909190919091505550565b6000600190505b60008054905081101561036a5760005b8181101561035657600082815481106102895761028861054c565b5b9060005260206000200154600082815481106102a8576102a761054c565b5b9060005260206000200154101561034357600082815481106102cd576102cc61054c565b5b9060005260206000200154600082815481106102ec576102eb61054c565b5b90600052602060002001546000838154811061030b5761030a61054c565b5b90600052602060002001600080868154811061032a5761032961054c565b5b9060005260206000200160008491905055839190505550505b808061034e9061057b565b91505061026d565b5080806103629061057b565b91505061025d565b50565b600081519050919050565b600082825260208201905092915050565b6000819050602082019050919050565b6000819050919050565b6103ac81610399565b82525050565b60006103be83836103a3565b60208301905092915050565b6000602082019050919050565b60006103e28261036d565b6103ec8185610378565b93506103f783610389565b8060005b8381101561042857815161040f88826103b2565b975061041a836103ca565b9250506001810190506103fb565b5085935050505092915050565b6000602082019050818103600083015261044f81846103d7565b905092915050565b600080fd5b61046581610399565b811461047057600080fd5b50565b6000813590506104828161045c565b92915050565b60006020828403121561049e5761049d610457565b5b60006104ac84828501610473565b91505092915050565b7f4e487b7100000000000000000000000000000000000000000000000000000000600052601160045260246000fd5b60006104ef82610399565b91506104fa83610399565b9250828203905081811115610512576105116104b5565b5b92915050565b600061052382610399565b915061052e83610399565b9250828201905080821115610546576105456104b5565b5b92915050565b7f4e487b7100000000000000000000000000000000000000000000000000000000600052603260045260246000fd5b600061058682610399565b91507fffffffffffffffffffffffffffffffffffffffffffffffffffffffffffffffff82036105b8576105b76104b5565b5b60018201905091905056fea2646970667358221220ada14c92df2a1d69e949538af79d8de1b2c29bbd9d8e12b621b254d9ff20c85964736f6c63430008120033",
					"opcodes": "PUSH1 0x80 PUSH1 0x40 MSTORE CALLVALUE DUP1 ISZERO PUSH2 0x10 JUMPI PUSH1 0x0 DUP1 REVERT JUMPDEST POP PUSH2 0x5F9 DUP1 PUSH2 0x20 PUSH1 0x0 CODECOPY PUSH1 0x0 RETURN INVALID PUSH1 0x80 PUSH1 0x40 MSTORE CALLVALUE DUP1 ISZERO PUSH2 0x10 JUMPI PUSH1 0x0 DUP1 REVERT JUMPDEST POP PUSH1 0x4 CALLDATASIZE LT PUSH2 0x4C JUMPI PUSH1 0x0 CALLDATALOAD PUSH1 0xE0 SHR DUP1 PUSH4 0x3C9FAB6B EQ PUSH2 0x51 JUMPI DUP1 PUSH4 0x6D4CE63C EQ PUSH2 0x5B JUMPI DUP1 PUSH4 0x959AC484 EQ PUSH2 0x79 JUMPI DUP1 PUSH4 0xD38F1ABA EQ PUSH2 0x95 JUMPI JUMPDEST PUSH1 0x0 DUP1 REVERT JUMPDEST PUSH2 0x59 PUSH2 0x9F JUMP JUMPDEST STOP JUMPDEST PUSH2 0x63 PUSH2 0x1D2 JUMP JUMPDEST PUSH1 0x40 MLOAD PUSH2 0x70 SWAP2 SWAP1 PUSH2 0x435 JUMP JUMPDEST PUSH1 0x40 MLOAD DUP1 SWAP2 SUB SWAP1 RETURN JUMPDEST PUSH2 0x93 PUSH1 0x4 DUP1 CALLDATASIZE SUB DUP2 ADD SWAP1 PUSH2 0x8E SWAP2 SWAP1 PUSH2 0x488 JUMP JUMPDEST PUSH2 0x22A JUMP JUMPDEST STOP JUMPDEST PUSH2 0x9D PUSH2 0x256 JUMP JUMPDEST STOP JUMPDEST PUSH1 0x0 JUMPDEST PUSH1 0x1 PUSH1 0x0 DUP1 SLOAD SWAP1 POP PUSH2 0xB4 SWAP2 SWAP1 PUSH2 0x4E4 JUMP JUMPDEST DUP2 LT ISZERO PUSH2 0x1CF JUMPI PUSH1 0x0 PUSH1 0x1 DUP3 PUSH2 0xCA SWAP2 SWAP1 PUSH2 0x518 JUMP JUMPDEST SWAP1 POP JUMPDEST PUSH1 0x0 DUP1 SLOAD SWAP1 POP DUP2 LT ISZERO PUSH2 0x1BB JUMPI PUSH1 0x0 DUP2 DUP2 SLOAD DUP2 LT PUSH2 0xEE JUMPI PUSH2 0xED PUSH2 0x54C JUMP JUMPDEST JUMPDEST SWAP1 PUSH1 0x0 MSTORE PUSH1 0x20 PUSH1 0x0 KECCAK256 ADD SLOAD PUSH1 0x0 DUP4 DUP2 SLOAD DUP2 LT PUSH2 0x10D JUMPI PUSH2 0x10C PUSH2 0x54C JUMP JUMPDEST JUMPDEST SWAP1 PUSH1 0x0 MSTORE PUSH1 0x20 PUSH1 0x0 KECCAK256 ADD SLOAD LT ISZERO PUSH2 0x1A8 JUMPI PUSH1 0x0 DUP2 DUP2 SLOAD DUP2 LT PUSH2 0x132 JUMPI PUSH2 0x131 PUSH2 0x54C JUMP JUMPDEST JUMPDEST SWAP1 PUSH1 0x0 MSTORE PUSH1 0x20 PUSH1 0x0 KECCAK256 ADD SLOAD PUSH1 0x0 DUP4 DUP2 SLOAD DUP2 LT PUSH2 0x151 JUMPI PUSH2 0x150 PUSH2 0x54C JUMP JUMPDEST JUMPDEST SWAP1 PUSH1 0x0 MSTORE PUSH1 0x20 PUSH1 0x0 KECCAK256 ADD SLOAD PUSH1 0x0 DUP5 DUP2 SLOAD DUP2 LT PUSH2 0x170 JUMPI PUSH2 0x16F PUSH2 0x54C JUMP JUMPDEST JUMPDEST SWAP1 PUSH1 0x0 MSTORE PUSH1 0x20 PUSH1 0x0 KECCAK256 ADD PUSH1 0x0 DUP1 DUP6 DUP2 SLOAD DUP2 LT PUSH2 0x18F JUMPI PUSH2 0x18E PUSH2 0x54C JUMP JUMPDEST JUMPDEST SWAP1 PUSH1 0x0 MSTORE PUSH1 0x20 PUSH1 0x0 KECCAK256 ADD PUSH1 0x0 DUP5 SWAP2 SWAP1 POP SSTORE DUP4 SWAP2 SWAP1 POP SSTORE POP POP JUMPDEST DUP1 DUP1 PUSH2 0x1B3 SWAP1 PUSH2 0x57B JUMP JUMPDEST SWAP2 POP POP PUSH2 0xCD JUMP JUMPDEST POP DUP1 DUP1 PUSH2 0x1C7 SWAP1 PUSH2 0x57B JUMP JUMPDEST SWAP2 POP POP PUSH2 0xA2 JUMP JUMPDEST POP JUMP JUMPDEST PUSH1 0x60 PUSH1 0x0 DUP1 SLOAD DUP1 PUSH1 0x20 MUL PUSH1 0x20 ADD PUSH1 0x40 MLOAD SWAP1 DUP2 ADD PUSH1 0x40 MSTORE DUP1 SWAP3 SWAP2 SWAP1 DUP2 DUP2 MSTORE PUSH1 0x20 ADD DUP3 DUP1 SLOAD DUP1 ISZERO PUSH2 0x220 JUMPI PUSH1 0x20 MUL DUP3 ADD SWAP2 SWAP1 PUSH1 0x0 MSTORE PUSH1 0x20 PUSH1 0x0 KECCAK256 SWAP1 JUMPDEST DUP2 SLOAD DUP2 MSTORE PUSH1 0x20 ADD SWAP1 PUSH1 0x1 ADD SWAP1 DUP1 DUP4 GT PUSH2 0x20C JUMPI JUMPDEST POP POP POP POP POP SWAP1 POP SWAP1 JUMP JUMPDEST PUSH1 0x0 DUP2 SWAP1 DUP1 PUSH1 0x1 DUP2 SLOAD ADD DUP1 DUP3 SSTORE DUP1 SWAP2 POP POP PUSH1 0x1 SWAP1 SUB SWAP1 PUSH1 0x0 MSTORE PUSH1 0x20 PUSH1 0x0 KECCAK256 ADD PUSH1 0x0 SWAP1 SWAP2 SWAP1 SWAP2 SWAP1 SWAP2 POP SSTORE POP JUMP JUMPDEST PUSH1 0x0 PUSH1 0x1 SWAP1 POP JUMPDEST PUSH1 0x0 DUP1 SLOAD SWAP1 POP DUP2 LT ISZERO PUSH2 0x36A JUMPI PUSH1 0x0 JUMPDEST DUP2 DUP2 LT ISZERO PUSH2 0x356 JUMPI PUSH1 0x0 DUP3 DUP2 SLOAD DUP2 LT PUSH2 0x289 JUMPI PUSH2 0x288 PUSH2 0x54C JUMP JUMPDEST JUMPDEST SWAP1 PUSH1 0x0 MSTORE PUSH1 0x20 PUSH1 0x0 KECCAK256 ADD SLOAD PUSH1 0x0 DUP3 DUP2 SLOAD DUP2 LT PUSH2 0x2A8 JUMPI PUSH2 0x2A7 PUSH2 0x54C JUMP JUMPDEST JUMPDEST SWAP1 PUSH1 0x0 MSTORE PUSH1 0x20 PUSH1 0x0 KECCAK256 ADD SLOAD LT ISZERO PUSH2 0x343 JUMPI PUSH1 0x0 DUP3 DUP2 SLOAD DUP2 LT PUSH2 0x2CD JUMPI PUSH2 0x2CC PUSH2 0x54C JUMP JUMPDEST JUMPDEST SWAP1 PUSH1 0x0 MSTORE PUSH1 0x20 PUSH1 0x0 KECCAK256 ADD SLOAD PUSH1 0x0 DUP3 DUP2 SLOAD DUP2 LT PUSH2 0x2EC JUMPI PUSH2 0x2EB PUSH2 0x54C JUMP JUMPDEST JUMPDEST SWAP1 PUSH1 0x0 MSTORE PUSH1 0x20 PUSH1 0x0 KECCAK256 ADD SLOAD PUSH1 0x0 DUP4 DUP2 SLOAD DUP2 LT PUSH2 0x30B JUMPI PUSH2 0x30A PUSH2 0x54C JUMP JUMPDEST JUMPDEST SWAP1 PUSH1 0x0 MSTORE PUSH1 0x20 PUSH1 0x0 KECCAK256 ADD PUSH1 0x0 DUP1 DUP7 DUP2 SLOAD DUP2 LT PUSH2 0x32A JUMPI PUSH2 0x329 PUSH2 0x54C JUMP JUMPDEST JUMPDEST SWAP1 PUSH1 0x0 MSTORE PUSH1 0x20 PUSH1 0x0 KECCAK256 ADD PUSH1 0x0 DUP5 SWAP2 SWAP1 POP SSTORE DUP4 SWAP2 SWAP1 POP SSTORE POP POP JUMPDEST DUP1 DUP1 PUSH2 0x34E SWAP1 PUSH2 0x57B JUMP JUMPDEST SWAP2 POP POP PUSH2 0x26D JUMP JUMPDEST POP DUP1 DUP1 PUSH2 0x362 SWAP1 PUSH2 0x57B JUMP JUMPDEST SWAP2 POP POP PUSH2 0x25D JUMP JUMPDEST POP JUMP JUMPDEST PUSH1 0x0 DUP2 MLOAD SWAP1 POP SWAP2 SWAP1 POP JUMP JUMPDEST PUSH1 0x0 DUP3 DUP3 MSTORE PUSH1 0x20 DUP3 ADD SWAP1 POP SWAP3 SWAP2 POP POP JUMP JUMPDEST PUSH1 0x0 DUP2 SWAP1 POP PUSH1 0x20 DUP3 ADD SWAP1 POP SWAP2 SWAP1 POP JUMP JUMPDEST PUSH1 0x0 DUP2 SWAP1 POP SWAP2 SWAP1 POP JUMP JUMPDEST PUSH2 0x3AC DUP2 PUSH2 0x399 JUMP JUMPDEST DUP3 MSTORE POP POP JUMP JUMPDEST PUSH1 0x0 PUSH2 0x3BE DUP4 DUP4 PUSH2 0x3A3 JUMP JUMPDEST PUSH1 0x20 DUP4 ADD SWAP1 POP SWAP3 SWAP2 POP POP JUMP JUMPDEST PUSH1 0x0 PUSH1 0x20 DUP3 ADD SWAP1 POP SWAP2 SWAP1 POP JUMP JUMPDEST PUSH1 0x0 PUSH2 0x3E2 DUP3 PUSH2 0x36D JUMP JUMPDEST PUSH2 0x3EC DUP2 DUP6 PUSH2 0x378 JUMP JUMPDEST SWAP4 POP PUSH2 0x3F7 DUP4 PUSH2 0x389 JUMP JUMPDEST DUP1 PUSH1 0x0 JUMPDEST DUP4 DUP2 LT ISZERO PUSH2 0x428 JUMPI DUP2 MLOAD PUSH2 0x40F DUP9 DUP3 PUSH2 0x3B2 JUMP JUMPDEST SWAP8 POP PUSH2 0x41A DUP4 PUSH2 0x3CA JUMP JUMPDEST SWAP3 POP POP PUSH1 0x1 DUP2 ADD SWAP1 POP PUSH2 0x3FB JUMP JUMPDEST POP DUP6 SWAP4 POP POP POP POP SWAP3 SWAP2 POP POP JUMP JUMPDEST PUSH1 0x0 PUSH1 0x20 DUP3 ADD SWAP1 POP DUP2 DUP2 SUB PUSH1 0x0 DUP4 ADD MSTORE PUSH2 0x44F DUP2 DUP5 PUSH2 0x3D7 JUMP JUMPDEST SWAP1 POP SWAP3 SWAP2 POP POP JUMP JUMPDEST PUSH1 0x0 DUP1 REVERT JUMPDEST PUSH2 0x465 DUP2 PUSH2 0x399 JUMP JUMPDEST DUP2 EQ PUSH2 0x470 JUMPI PUSH1 0x0 DUP1 REVERT JUMPDEST POP JUMP JUMPDEST PUSH1 0x0 DUP2 CALLDATALOAD SWAP1 POP PUSH2 0x482 DUP2 PUSH2 0x45C JUMP JUMPDEST SWAP3 SWAP2 POP POP JUMP JUMPDEST PUSH1 0x0 PUSH1 0x20 DUP3 DUP5 SUB SLT ISZERO PUSH2 0x49E JUMPI PUSH2 0x49D PUSH2 0x457 JUMP JUMPDEST JUMPDEST PUSH1 0x0 PUSH2 0x4AC DUP5 DUP3 DUP6 ADD PUSH2 0x473 JUMP JUMPDEST SWAP2 POP POP SWAP3 SWAP2 POP POP JUMP JUMPDEST PUSH32 0x4E487B7100000000000000000000000000000000000000000000000000000000 PUSH1 0x0 MSTORE PUSH1 0x11 PUSH1 0x4 MSTORE PUSH1 0x24 PUSH1 0x0 REVERT JUMPDEST PUSH1 0x0 PUSH2 0x4EF DUP3 PUSH2 0x399 JUMP JUMPDEST SWAP2 POP PUSH2 0x4FA DUP4 PUSH2 0x399 JUMP JUMPDEST SWAP3 POP DUP3 DUP3 SUB SWAP1 POP DUP2 DUP2 GT ISZERO PUSH2 0x512 JUMPI PUSH2 0x511 PUSH2 0x4B5 JUMP JUMPDEST JUMPDEST SWAP3 SWAP2 POP POP JUMP JUMPDEST PUSH1 0x0 PUSH2 0x523 DUP3 PUSH2 0x399 JUMP JUMPDEST SWAP2 POP PUSH2 0x52E DUP4 PUSH2 0x399 JUMP JUMPDEST SWAP3 POP DUP3 DUP3 ADD SWAP1 POP DUP1 DUP3 GT ISZERO PUSH2 0x546 JUMPI PUSH2 0x545 PUSH2 0x4B5 JUMP JUMPDEST JUMPDEST SWAP3 SWAP2 POP POP JUMP JUMPDEST PUSH32 0x4E487B7100000000000000000000000000000000000000000000000000000000 PUSH1 0x0 MSTORE PUSH1 0x32 PUSH1 0x4 MSTORE PUSH1 0x24 PUSH1 0x0 REVERT JUMPDEST PUSH1 0x0 PUSH2 0x586 DUP3 PUSH2 0x399 JUMP JUMPDEST SWAP2 POP PUSH32 0xFFFFFFFFFFFFFFFFFFFFFFFFFFFFFFFFFFFFFFFFFFFFFFFFFFFFFFFFFFFFFFFF DUP3 SUB PUSH2 0x5B8 JUMPI PUSH2 0x5B7 PUSH2 0x4B5 JUMP JUMPDEST JUMPDEST PUSH1 0x1 DUP3 ADD SWAP1 POP SWAP2 SWAP1 POP JUMP INVALID LOG2 PUSH5 0x6970667358 0x22 SLT KECCAK256 0xAD LOG1 0x4C SWAP3 0xDF 0x2A SAR PUSH10 0xE949538AF79D8DE1B2C2 SWAP12 0xBD SWAP14 DUP15 SLT 0xB6 0x21 0xB2 SLOAD 0xD9 SELFDESTRUCT KECCAK256 0xC8 MSIZE PUSH5 0x736F6C6343 STOP ADDMOD SLT STOP CALLER "
				},
				"gasEstimates": {
					"creation": {
						"codeDepositCost": "305800",
						"executionCost": "343",
						"totalCost": "306143"
					},
					"external": {
						"get()": "infinite",
						"push(uint256)": "46851",
						"sorting()": "infinite",
						"sorting2()": "infinite"
					}
				},
				"methodIdentifiers": {
					"get()": "6d4ce63c",
					"push(uint256)": "959ac484",
					"sorting()": "3c9fab6b",
					"sorting2()": "d38f1aba"
				}
			},
			"storageLayout": {
				"storage": [
					{
						"astId": 538,
						"contract": "contracts-test/230511-test1-answer.sol:Sorting",
						"label": "numbers",
						"offset": 0,
						"slot": "0",
						"type": "t_array(t_uint256)dyn_storage"
					}
				],
				"types": {
					"t_array(t_uint256)dyn_storage": {
						"base": "t_uint256",
						"encoding": "dynamic_array",
						"label": "uint256[]",
						"numberOfBytes": "32"
					},
					"t_uint256": {
						"encoding": "inplace",
						"label": "uint256",
						"numberOfBytes": "32"
					}
				}
			},
			"userdoc": {
				"kind": "user",
				"methods": {},
				"version": 1
			}
		}
	}
}