{
	"contracts-test/230512-test1-answer.sol": {
		"QUIZ2": {
			"abi": [
				{
					"inputs": [
						{
							"internalType": "string",
							"name": "_ID",
							"type": "string"
						},
						{
							"internalType": "string",
							"name": "_PW",
							"type": "string"
						}
					],
					"name": "getHash",
					"outputs": [
						{
							"internalType": "bytes32",
							"name": "",
							"type": "bytes32"
						}
					],
					"stateMutability": "pure",
					"type": "function"
				},
				{
					"inputs": [
						{
							"internalType": "string",
							"name": "_ID",
							"type": "string"
						},
						{
							"internalType": "string",
							"name": "_PW",
							"type": "string"
						}
					],
					"name": "logIn",
					"outputs": [
						{
							"internalType": "bool",
							"name": "",
							"type": "bool"
						}
					],
					"stateMutability": "nonpayable",
					"type": "function"
				},
				{
					"inputs": [
						{
							"internalType": "string",
							"name": "_ID",
							"type": "string"
						}
					],
					"name": "logIn2",
					"outputs": [
						{
							"internalType": "bytes32",
							"name": "",
							"type": "bytes32"
						}
					],
					"stateMutability": "view",
					"type": "function"
				},
				{
					"inputs": [
						{
							"internalType": "string",
							"name": "_ID",
							"type": "string"
						},
						{
							"internalType": "string",
							"name": "_PW",
							"type": "string"
						}
					],
					"name": "signIn",
					"outputs": [],
					"stateMutability": "nonpayable",
					"type": "function"
				},
				{
					"inputs": [
						{
							"internalType": "string",
							"name": "_ID",
							"type": "string"
						},
						{
							"internalType": "string",
							"name": "_PW",
							"type": "string"
						}
					],
					"name": "signOut",
					"outputs": [],
					"stateMutability": "nonpayable",
					"type": "function"
				},
				{
					"inputs": [
						{
							"internalType": "string",
							"name": "_ID",
							"type": "string"
						}
					],
					"name": "userInfo",
					"outputs": [
						{
							"internalType": "string",
							"name": "",
							"type": "string"
						},
						{
							"components": [
								{
									"internalType": "bytes32",
									"name": "hash",
									"type": "bytes32"
								},
								{
									"internalType": "uint256",
									"name": "attempts",
									"type": "uint256"
								}
							],
							"internalType": "struct QUIZ2.User",
							"name": "",
							"type": "tuple"
						}
					],
					"stateMutability": "view",
					"type": "function"
				}
			],
			"devdoc": {
				"kind": "dev",
				"methods": {},
				"version": 1
			},
			"evm": {
				"assembly": "    /* \"contracts-test/230512-test1-answer.sol\":63:2073  contract QUIZ2 {... */\n  mstore(0x40, 0x80)\n  callvalue\n  dup1\n  iszero\n  tag_1\n  jumpi\n  0x00\n  dup1\n  revert\ntag_1:\n  pop\n  dataSize(sub_0)\n  dup1\n  dataOffset(sub_0)\n  0x00\n  codecopy\n  0x00\n  return\nstop\n\nsub_0: assembly {\n        /* \"contracts-test/230512-test1-answer.sol\":63:2073  contract QUIZ2 {... */\n      mstore(0x40, 0x80)\n      callvalue\n      dup1\n      iszero\n      tag_1\n      jumpi\n      0x00\n      dup1\n      revert\n    tag_1:\n      pop\n      jumpi(tag_2, lt(calldatasize, 0x04))\n      shr(0xe0, calldataload(0x00))\n      dup1\n      0x1cbfc466\n      eq\n      tag_3\n      jumpi\n      dup1\n      0x27cf399a\n      eq\n      tag_4\n      jumpi\n      dup1\n      0x2c162dbc\n      eq\n      tag_5\n      jumpi\n      dup1\n      0x691a87f9\n      eq\n      tag_6\n      jumpi\n      dup1\n      0x811130a7\n      eq\n      tag_7\n      jumpi\n      dup1\n      0xa064ed78\n      eq\n      tag_8\n      jumpi\n    tag_2:\n      0x00\n      dup1\n      revert\n        /* \"contracts-test/230512-test1-answer.sol\":562:1048  function logIn(string memory _ID, string memory _PW) public returns(bool) {... */\n    tag_3:\n      tag_9\n      0x04\n      dup1\n      calldatasize\n      sub\n      dup2\n      add\n      swap1\n      tag_10\n      swap2\n      swap1\n      tag_11\n      jump\t// in\n    tag_10:\n      tag_12\n      jump\t// in\n    tag_9:\n      mload(0x40)\n      tag_13\n      swap2\n      swap1\n      tag_14\n      jump\t// in\n    tag_13:\n      mload(0x40)\n      dup1\n      swap2\n      sub\n      swap1\n      return\n        /* \"contracts-test/230512-test1-answer.sol\":191:336  function getHash(string memory _ID, string memory _PW) public pure returns(bytes32) {... */\n    tag_4:\n      tag_15\n      0x04\n      dup1\n      calldatasize\n      sub\n      dup2\n      add\n      swap1\n      tag_16\n      swap2\n      swap1\n      tag_11\n      jump\t// in\n    tag_16:\n      tag_17\n      jump\t// in\n    tag_15:\n      mload(0x40)\n      tag_18\n      swap2\n      swap1\n      tag_19\n      jump\t// in\n    tag_18:\n      mload(0x40)\n      dup1\n      swap2\n      sub\n      swap1\n      return\n        /* \"contracts-test/230512-test1-answer.sol\":1237:1710  function signIn(string memory _ID, string memory _PW) public {... */\n    tag_5:\n      tag_20\n      0x04\n      dup1\n      calldatasize\n      sub\n      dup2\n      add\n      swap1\n      tag_21\n      swap2\n      swap1\n      tag_11\n      jump\t// in\n    tag_21:\n      tag_22\n      jump\t// in\n    tag_20:\n      stop\n        /* \"contracts-test/230512-test1-answer.sol\":342:468  function userInfo(string memory _ID) public view returns(string memory, User memory) {... */\n    tag_6:\n      tag_23\n      0x04\n      dup1\n      calldatasize\n      sub\n      dup2\n      add\n      swap1\n      tag_24\n      swap2\n      swap1\n      tag_25\n      jump\t// in\n    tag_24:\n      tag_26\n      jump\t// in\n    tag_23:\n      mload(0x40)\n      tag_27\n      swap3\n      swap2\n      swap1\n      tag_28\n      jump\t// in\n    tag_27:\n      mload(0x40)\n      dup1\n      swap2\n      sub\n      swap1\n      return\n        /* \"contracts-test/230512-test1-answer.sol\":1054:1157  function logIn2(string memory _ID) public view returns(bytes32) {... */\n    tag_7:\n      tag_29\n      0x04\n      dup1\n      calldatasize\n      sub\n      dup2\n      add\n      swap1\n      tag_30\n      swap2\n      swap1\n      tag_25\n      jump\t// in\n    tag_30:\n      tag_31\n      jump\t// in\n    tag_29:\n      mload(0x40)\n      tag_32\n      swap2\n      swap1\n      tag_19\n      jump\t// in\n    tag_32:\n      mload(0x40)\n      dup1\n      swap2\n      sub\n      swap1\n      return\n        /* \"contracts-test/230512-test1-answer.sol\":1844:2067  function signOut(string memory _ID, string memory _PW) public {... */\n    tag_8:\n      tag_33\n      0x04\n      dup1\n      calldatasize\n      sub\n      dup2\n      add\n      swap1\n      tag_34\n      swap2\n      swap1\n      tag_11\n      jump\t// in\n    tag_34:\n      tag_35\n      jump\t// in\n    tag_33:\n      stop\n        /* \"contracts-test/230512-test1-answer.sol\":562:1048  function logIn(string memory _ID, string memory _PW) public returns(bool) {... */\n    tag_12:\n        /* \"contracts-test/230512-test1-answer.sol\":630:634  bool */\n      0x00\n        /* \"contracts-test/230512-test1-answer.sol\":815:816  5 */\n      0x05\n        /* \"contracts-test/230512-test1-answer.sol\":793:798  ID_PW */\n      0x00\n        /* \"contracts-test/230512-test1-answer.sol\":799:802  _ID */\n      dup5\n        /* \"contracts-test/230512-test1-answer.sol\":793:803  ID_PW[_ID] */\n      mload(0x40)\n      tag_37\n      swap2\n      swap1\n      tag_38\n      jump\t// in\n    tag_37:\n      swap1\n      dup2\n      mstore\n      0x20\n      add\n      mload(0x40)\n      dup1\n      swap2\n      sub\n      swap1\n      keccak256\n        /* \"contracts-test/230512-test1-answer.sol\":793:812  ID_PW[_ID].attempts */\n      0x01\n      add\n      sload\n        /* \"contracts-test/230512-test1-answer.sol\":793:816  ID_PW[_ID].attempts < 5 */\n      lt\n        /* \"contracts-test/230512-test1-answer.sol\":785:839  require(ID_PW[_ID].attempts < 5, \"Too much attempts.\") */\n      tag_39\n      jumpi\n      mload(0x40)\n      0x08c379a000000000000000000000000000000000000000000000000000000000\n      dup2\n      mstore\n      0x04\n      add\n      tag_40\n      swap1\n      tag_41\n      jump\t// in\n    tag_40:\n      mload(0x40)\n      dup1\n      swap2\n      sub\n      swap1\n      revert\n    tag_39:\n        /* \"contracts-test/230512-test1-answer.sol\":872:889  getHash(_ID, _PW) */\n      tag_42\n        /* \"contracts-test/230512-test1-answer.sol\":880:883  _ID */\n      dup4\n        /* \"contracts-test/230512-test1-answer.sol\":885:888  _PW */\n      dup4\n        /* \"contracts-test/230512-test1-answer.sol\":872:879  getHash */\n      tag_17\n        /* \"contracts-test/230512-test1-answer.sol\":872:889  getHash(_ID, _PW) */\n      jump\t// in\n    tag_42:\n        /* \"contracts-test/230512-test1-answer.sol\":853:858  ID_PW */\n      0x00\n        /* \"contracts-test/230512-test1-answer.sol\":859:862  _ID */\n      dup5\n        /* \"contracts-test/230512-test1-answer.sol\":853:863  ID_PW[_ID] */\n      mload(0x40)\n      tag_43\n      swap2\n      swap1\n      tag_38\n      jump\t// in\n    tag_43:\n      swap1\n      dup2\n      mstore\n      0x20\n      add\n      mload(0x40)\n      dup1\n      swap2\n      sub\n      swap1\n      keccak256\n        /* \"contracts-test/230512-test1-answer.sol\":853:868  ID_PW[_ID].hash */\n      0x00\n      add\n      sload\n        /* \"contracts-test/230512-test1-answer.sol\":853:889  ID_PW[_ID].hash == getHash(_ID, _PW) */\n      sub\n        /* \"contracts-test/230512-test1-answer.sol\":849:1042  if (ID_PW[_ID].hash == getHash(_ID, _PW)) {... */\n      tag_44\n      jumpi\n        /* \"contracts-test/230512-test1-answer.sol\":927:928  0 */\n      0x00\n        /* \"contracts-test/230512-test1-answer.sol\":905:910  ID_PW */\n      dup1\n        /* \"contracts-test/230512-test1-answer.sol\":911:914  _ID */\n      dup5\n        /* \"contracts-test/230512-test1-answer.sol\":905:915  ID_PW[_ID] */\n      mload(0x40)\n      tag_45\n      swap2\n      swap1\n      tag_38\n      jump\t// in\n    tag_45:\n      swap1\n      dup2\n      mstore\n      0x20\n      add\n      mload(0x40)\n      dup1\n      swap2\n      sub\n      swap1\n      keccak256\n        /* \"contracts-test/230512-test1-answer.sol\":905:924  ID_PW[_ID].attempts */\n      0x01\n      add\n        /* \"contracts-test/230512-test1-answer.sol\":905:928  ID_PW[_ID].attempts = 0 */\n      dup2\n      swap1\n      sstore\n      pop\n        /* \"contracts-test/230512-test1-answer.sol\":949:953  true */\n      0x01\n        /* \"contracts-test/230512-test1-answer.sol\":942:953  return true */\n      swap1\n      pop\n      jump(tag_36)\n        /* \"contracts-test/230512-test1-answer.sol\":849:1042  if (ID_PW[_ID].hash == getHash(_ID, _PW)) {... */\n    tag_44:\n        /* \"contracts-test/230512-test1-answer.sol\":984:989  ID_PW */\n      0x00\n        /* \"contracts-test/230512-test1-answer.sol\":990:993  _ID */\n      dup4\n        /* \"contracts-test/230512-test1-answer.sol\":984:994  ID_PW[_ID] */\n      mload(0x40)\n      tag_47\n      swap2\n      swap1\n      tag_38\n      jump\t// in\n    tag_47:\n      swap1\n      dup2\n      mstore\n      0x20\n      add\n      mload(0x40)\n      dup1\n      swap2\n      sub\n      swap1\n      keccak256\n        /* \"contracts-test/230512-test1-answer.sol\":984:1003  ID_PW[_ID].attempts */\n      0x01\n      add\n      0x00\n        /* \"contracts-test/230512-test1-answer.sol\":984:1005  ID_PW[_ID].attempts++ */\n      dup2\n      sload\n      dup1\n      swap3\n      swap2\n      swap1\n      tag_48\n      swap1\n      tag_49\n      jump\t// in\n    tag_48:\n      swap2\n      swap1\n      pop\n      sstore\n      pop\n        /* \"contracts-test/230512-test1-answer.sol\":1026:1031  false */\n      0x00\n        /* \"contracts-test/230512-test1-answer.sol\":1019:1031  return false */\n      swap1\n      pop\n        /* \"contracts-test/230512-test1-answer.sol\":562:1048  function logIn(string memory _ID, string memory _PW) public returns(bool) {... */\n    tag_36:\n      swap3\n      swap2\n      pop\n      pop\n      jump\t// out\n        /* \"contracts-test/230512-test1-answer.sol\":191:336  function getHash(string memory _ID, string memory _PW) public pure returns(bytes32) {... */\n    tag_17:\n        /* \"contracts-test/230512-test1-answer.sol\":266:273  bytes32 */\n      0x00\n        /* \"contracts-test/230512-test1-answer.sol\":319:322  _ID */\n      dup3\n        /* \"contracts-test/230512-test1-answer.sol\":324:327  _PW */\n      dup3\n        /* \"contracts-test/230512-test1-answer.sol\":302:328  abi.encodePacked(_ID, _PW) */\n      add(0x20, mload(0x40))\n      tag_51\n      swap3\n      swap2\n      swap1\n      tag_52\n      jump\t// in\n    tag_51:\n      mload(0x40)\n      0x20\n      dup2\n      dup4\n      sub\n      sub\n      dup2\n      mstore\n      swap1\n      0x40\n      mstore\n        /* \"contracts-test/230512-test1-answer.sol\":292:329  keccak256(abi.encodePacked(_ID, _PW)) */\n      dup1\n      mload\n      swap1\n      0x20\n      add\n      keccak256\n        /* \"contracts-test/230512-test1-answer.sol\":285:329  return keccak256(abi.encodePacked(_ID, _PW)) */\n      swap1\n      pop\n        /* \"contracts-test/230512-test1-answer.sol\":191:336  function getHash(string memory _ID, string memory _PW) public pure returns(bytes32) {... */\n      swap3\n      swap2\n      pop\n      pop\n      jump\t// out\n        /* \"contracts-test/230512-test1-answer.sol\":1237:1710  function signIn(string memory _ID, string memory _PW) public {... */\n    tag_22:\n        /* \"contracts-test/230512-test1-answer.sol\":1553:1619  0x0000000000000000000000000000000000000000000000000000000000000000 */\n      0x00\n        /* \"contracts-test/230512-test1-answer.sol\":1534:1619  ID_PW[_ID].hash == 0x0000000000000000000000000000000000000000000000000000000000000000 */\n      dup1\n      shl\n        /* \"contracts-test/230512-test1-answer.sol\":1534:1539  ID_PW */\n      0x00\n        /* \"contracts-test/230512-test1-answer.sol\":1540:1543  _ID */\n      dup4\n        /* \"contracts-test/230512-test1-answer.sol\":1534:1544  ID_PW[_ID] */\n      mload(0x40)\n      tag_54\n      swap2\n      swap1\n      tag_38\n      jump\t// in\n    tag_54:\n      swap1\n      dup2\n      mstore\n      0x20\n      add\n      mload(0x40)\n      dup1\n      swap2\n      sub\n      swap1\n      keccak256\n        /* \"contracts-test/230512-test1-answer.sol\":1534:1549  ID_PW[_ID].hash */\n      0x00\n      add\n      sload\n        /* \"contracts-test/230512-test1-answer.sol\":1534:1619  ID_PW[_ID].hash == 0x0000000000000000000000000000000000000000000000000000000000000000 */\n      eq\n        /* \"contracts-test/230512-test1-answer.sol\":1526:1658  require(ID_PW[_ID].hash == 0x0000000000000000000000000000000000000000000000000000000000000000, \"Provided ID is already being used.\") */\n      tag_55\n      jumpi\n      mload(0x40)\n      0x08c379a000000000000000000000000000000000000000000000000000000000\n      dup2\n      mstore\n      0x04\n      add\n      tag_56\n      swap1\n      tag_57\n      jump\t// in\n    tag_56:\n      mload(0x40)\n      dup1\n      swap2\n      sub\n      swap1\n      revert\n    tag_55:\n        /* \"contracts-test/230512-test1-answer.sol\":1686:1703  getHash(_ID, _PW) */\n      tag_58\n        /* \"contracts-test/230512-test1-answer.sol\":1694:1697  _ID */\n      dup3\n        /* \"contracts-test/230512-test1-answer.sol\":1699:1702  _PW */\n      dup3\n        /* \"contracts-test/230512-test1-answer.sol\":1686:1693  getHash */\n      tag_17\n        /* \"contracts-test/230512-test1-answer.sol\":1686:1703  getHash(_ID, _PW) */\n      jump\t// in\n    tag_58:\n        /* \"contracts-test/230512-test1-answer.sol\":1668:1673  ID_PW */\n      0x00\n        /* \"contracts-test/230512-test1-answer.sol\":1674:1677  _ID */\n      dup4\n        /* \"contracts-test/230512-test1-answer.sol\":1668:1678  ID_PW[_ID] */\n      mload(0x40)\n      tag_59\n      swap2\n      swap1\n      tag_38\n      jump\t// in\n    tag_59:\n      swap1\n      dup2\n      mstore\n      0x20\n      add\n      mload(0x40)\n      dup1\n      swap2\n      sub\n      swap1\n      keccak256\n        /* \"contracts-test/230512-test1-answer.sol\":1668:1683  ID_PW[_ID].hash */\n      0x00\n      add\n        /* \"contracts-test/230512-test1-answer.sol\":1668:1703  ID_PW[_ID].hash = getHash(_ID, _PW) */\n      dup2\n      swap1\n      sstore\n      pop\n        /* \"contracts-test/230512-test1-answer.sol\":1237:1710  function signIn(string memory _ID, string memory _PW) public {... */\n      pop\n      pop\n      jump\t// out\n        /* \"contracts-test/230512-test1-answer.sol\":342:468  function userInfo(string memory _ID) public view returns(string memory, User memory) {... */\n    tag_26:\n        /* \"contracts-test/230512-test1-answer.sol\":399:412  string memory */\n      0x60\n        /* \"contracts-test/230512-test1-answer.sol\":414:425  User memory */\n      tag_60\n      tag_61\n      jump\t// in\n    tag_60:\n        /* \"contracts-test/230512-test1-answer.sol\":445:448  _ID */\n      dup3\n        /* \"contracts-test/230512-test1-answer.sol\":450:455  ID_PW */\n      0x00\n        /* \"contracts-test/230512-test1-answer.sol\":456:459  _ID */\n      dup5\n        /* \"contracts-test/230512-test1-answer.sol\":450:460  ID_PW[_ID] */\n      mload(0x40)\n      tag_63\n      swap2\n      swap1\n      tag_38\n      jump\t// in\n    tag_63:\n      swap1\n      dup2\n      mstore\n      0x20\n      add\n      mload(0x40)\n      dup1\n      swap2\n      sub\n      swap1\n      keccak256\n        /* \"contracts-test/230512-test1-answer.sol\":437:461  return (_ID, ID_PW[_ID]) */\n      dup1\n      mload(0x40)\n      dup1\n      0x40\n      add\n      0x40\n      mstore\n      swap1\n      dup2\n      0x00\n      dup3\n      add\n      sload\n      dup2\n      mstore\n      0x20\n      add\n      0x01\n      dup3\n      add\n      sload\n      dup2\n      mstore\n      pop\n      pop\n      swap1\n      pop\n      swap2\n      pop\n      swap2\n      pop\n        /* \"contracts-test/230512-test1-answer.sol\":342:468  function userInfo(string memory _ID) public view returns(string memory, User memory) {... */\n      swap2\n      pop\n      swap2\n      jump\t// out\n        /* \"contracts-test/230512-test1-answer.sol\":1054:1157  function logIn2(string memory _ID) public view returns(bytes32) {... */\n    tag_31:\n        /* \"contracts-test/230512-test1-answer.sol\":1109:1116  bytes32 */\n      0x00\n        /* \"contracts-test/230512-test1-answer.sol\":1135:1140  ID_PW */\n      dup1\n        /* \"contracts-test/230512-test1-answer.sol\":1141:1144  _ID */\n      dup3\n        /* \"contracts-test/230512-test1-answer.sol\":1135:1145  ID_PW[_ID] */\n      mload(0x40)\n      tag_65\n      swap2\n      swap1\n      tag_38\n      jump\t// in\n    tag_65:\n      swap1\n      dup2\n      mstore\n      0x20\n      add\n      mload(0x40)\n      dup1\n      swap2\n      sub\n      swap1\n      keccak256\n        /* \"contracts-test/230512-test1-answer.sol\":1135:1150  ID_PW[_ID].hash */\n      0x00\n      add\n      sload\n        /* \"contracts-test/230512-test1-answer.sol\":1128:1150  return ID_PW[_ID].hash */\n      swap1\n      pop\n        /* \"contracts-test/230512-test1-answer.sol\":1054:1157  function logIn2(string memory _ID) public view returns(bytes32) {... */\n      swap2\n      swap1\n      pop\n      jump\t// out\n        /* \"contracts-test/230512-test1-answer.sol\":1844:2067  function signOut(string memory _ID, string memory _PW) public {... */\n    tag_35:\n        /* \"contracts-test/230512-test1-answer.sol\":2015:2032  getHash(_ID, _PW) */\n      tag_67\n        /* \"contracts-test/230512-test1-answer.sol\":2023:2026  _ID */\n      dup3\n        /* \"contracts-test/230512-test1-answer.sol\":2028:2031  _PW */\n      dup3\n        /* \"contracts-test/230512-test1-answer.sol\":2015:2022  getHash */\n      tag_17\n        /* \"contracts-test/230512-test1-answer.sol\":2015:2032  getHash(_ID, _PW) */\n      jump\t// in\n    tag_67:\n        /* \"contracts-test/230512-test1-answer.sol\":1996:2001  ID_PW */\n      0x00\n        /* \"contracts-test/230512-test1-answer.sol\":2002:2005  _ID */\n      dup4\n        /* \"contracts-test/230512-test1-answer.sol\":1996:2006  ID_PW[_ID] */\n      mload(0x40)\n      tag_68\n      swap2\n      swap1\n      tag_38\n      jump\t// in\n    tag_68:\n      swap1\n      dup2\n      mstore\n      0x20\n      add\n      mload(0x40)\n      dup1\n      swap2\n      sub\n      swap1\n      keccak256\n        /* \"contracts-test/230512-test1-answer.sol\":1996:2011  ID_PW[_ID].hash */\n      0x00\n      add\n      sload\n        /* \"contracts-test/230512-test1-answer.sol\":1996:2032  ID_PW[_ID].hash == getHash(_ID, _PW) */\n      eq\n        /* \"contracts-test/230512-test1-answer.sol\":1988:2033  require(ID_PW[_ID].hash == getHash(_ID, _PW)) */\n      tag_69\n      jumpi\n      0x00\n      dup1\n      revert\n    tag_69:\n        /* \"contracts-test/230512-test1-answer.sol\":2050:2055  ID_PW */\n      0x00\n        /* \"contracts-test/230512-test1-answer.sol\":2056:2059  _ID */\n      dup3\n        /* \"contracts-test/230512-test1-answer.sol\":2050:2060  ID_PW[_ID] */\n      mload(0x40)\n      tag_70\n      swap2\n      swap1\n      tag_38\n      jump\t// in\n    tag_70:\n      swap1\n      dup2\n      mstore\n      0x20\n      add\n      mload(0x40)\n      dup1\n      swap2\n      sub\n      swap1\n      keccak256\n      0x00\n        /* \"contracts-test/230512-test1-answer.sol\":2043:2060  delete ID_PW[_ID] */\n      dup1\n      dup3\n      add\n      0x00\n      swap1\n      sstore\n      0x01\n      dup3\n      add\n      0x00\n      swap1\n      sstore\n      pop\n      pop\n        /* \"contracts-test/230512-test1-answer.sol\":1844:2067  function signOut(string memory _ID, string memory _PW) public {... */\n      pop\n      pop\n      jump\t// out\n    tag_61:\n      mload(0x40)\n      dup1\n      0x40\n      add\n      0x40\n      mstore\n      dup1\n      0x00\n      dup1\n      not\n      and\n      dup2\n      mstore\n      0x20\n      add\n      0x00\n      dup2\n      mstore\n      pop\n      swap1\n      jump\t// out\n        /* \"#utility.yul\":7:82   */\n    tag_71:\n        /* \"#utility.yul\":40:46   */\n      0x00\n        /* \"#utility.yul\":73:75   */\n      0x40\n        /* \"#utility.yul\":67:76   */\n      mload\n        /* \"#utility.yul\":57:76   */\n      swap1\n      pop\n        /* \"#utility.yul\":7:82   */\n      swap1\n      jump\t// out\n        /* \"#utility.yul\":88:205   */\n    tag_72:\n        /* \"#utility.yul\":197:198   */\n      0x00\n        /* \"#utility.yul\":194:195   */\n      dup1\n        /* \"#utility.yul\":187:199   */\n      revert\n        /* \"#utility.yul\":211:328   */\n    tag_73:\n        /* \"#utility.yul\":320:321   */\n      0x00\n        /* \"#utility.yul\":317:318   */\n      dup1\n        /* \"#utility.yul\":310:322   */\n      revert\n        /* \"#utility.yul\":334:451   */\n    tag_74:\n        /* \"#utility.yul\":443:444   */\n      0x00\n        /* \"#utility.yul\":440:441   */\n      dup1\n        /* \"#utility.yul\":433:445   */\n      revert\n        /* \"#utility.yul\":457:574   */\n    tag_75:\n        /* \"#utility.yul\":566:567   */\n      0x00\n        /* \"#utility.yul\":563:564   */\n      dup1\n        /* \"#utility.yul\":556:568   */\n      revert\n        /* \"#utility.yul\":580:682   */\n    tag_76:\n        /* \"#utility.yul\":621:627   */\n      0x00\n        /* \"#utility.yul\":672:674   */\n      0x1f\n        /* \"#utility.yul\":668:675   */\n      not\n        /* \"#utility.yul\":663:665   */\n      0x1f\n        /* \"#utility.yul\":656:661   */\n      dup4\n        /* \"#utility.yul\":652:666   */\n      add\n        /* \"#utility.yul\":648:676   */\n      and\n        /* \"#utility.yul\":638:676   */\n      swap1\n      pop\n        /* \"#utility.yul\":580:682   */\n      swap2\n      swap1\n      pop\n      jump\t// out\n        /* \"#utility.yul\":688:868   */\n    tag_77:\n        /* \"#utility.yul\":736:813   */\n      0x4e487b7100000000000000000000000000000000000000000000000000000000\n        /* \"#utility.yul\":733:734   */\n      0x00\n        /* \"#utility.yul\":726:814   */\n      mstore\n        /* \"#utility.yul\":833:837   */\n      0x41\n        /* \"#utility.yul\":830:831   */\n      0x04\n        /* \"#utility.yul\":823:838   */\n      mstore\n        /* \"#utility.yul\":857:861   */\n      0x24\n        /* \"#utility.yul\":854:855   */\n      0x00\n        /* \"#utility.yul\":847:862   */\n      revert\n        /* \"#utility.yul\":874:1155   */\n    tag_78:\n        /* \"#utility.yul\":957:984   */\n      tag_112\n        /* \"#utility.yul\":979:983   */\n      dup3\n        /* \"#utility.yul\":957:984   */\n      tag_76\n      jump\t// in\n    tag_112:\n        /* \"#utility.yul\":949:955   */\n      dup2\n        /* \"#utility.yul\":945:985   */\n      add\n        /* \"#utility.yul\":1087:1093   */\n      dup2\n        /* \"#utility.yul\":1075:1085   */\n      dup2\n        /* \"#utility.yul\":1072:1094   */\n      lt\n        /* \"#utility.yul\":1051:1069   */\n      0xffffffffffffffff\n        /* \"#utility.yul\":1039:1049   */\n      dup3\n        /* \"#utility.yul\":1036:1070   */\n      gt\n        /* \"#utility.yul\":1033:1095   */\n      or\n        /* \"#utility.yul\":1030:1118   */\n      iszero\n      tag_113\n      jumpi\n        /* \"#utility.yul\":1098:1116   */\n      tag_114\n      tag_77\n      jump\t// in\n    tag_114:\n        /* \"#utility.yul\":1030:1118   */\n    tag_113:\n        /* \"#utility.yul\":1138:1148   */\n      dup1\n        /* \"#utility.yul\":1134:1136   */\n      0x40\n        /* \"#utility.yul\":1127:1149   */\n      mstore\n        /* \"#utility.yul\":917:1155   */\n      pop\n        /* \"#utility.yul\":874:1155   */\n      pop\n      pop\n      jump\t// out\n        /* \"#utility.yul\":1161:1290   */\n    tag_79:\n        /* \"#utility.yul\":1195:1201   */\n      0x00\n        /* \"#utility.yul\":1222:1242   */\n      tag_116\n      tag_71\n      jump\t// in\n    tag_116:\n        /* \"#utility.yul\":1212:1242   */\n      swap1\n      pop\n        /* \"#utility.yul\":1251:1284   */\n      tag_117\n        /* \"#utility.yul\":1279:1283   */\n      dup3\n        /* \"#utility.yul\":1271:1277   */\n      dup3\n        /* \"#utility.yul\":1251:1284   */\n      tag_78\n      jump\t// in\n    tag_117:\n        /* \"#utility.yul\":1161:1290   */\n      swap2\n      swap1\n      pop\n      jump\t// out\n        /* \"#utility.yul\":1296:1604   */\n    tag_80:\n        /* \"#utility.yul\":1358:1362   */\n      0x00\n        /* \"#utility.yul\":1448:1466   */\n      0xffffffffffffffff\n        /* \"#utility.yul\":1440:1446   */\n      dup3\n        /* \"#utility.yul\":1437:1467   */\n      gt\n        /* \"#utility.yul\":1434:1490   */\n      iszero\n      tag_119\n      jumpi\n        /* \"#utility.yul\":1470:1488   */\n      tag_120\n      tag_77\n      jump\t// in\n    tag_120:\n        /* \"#utility.yul\":1434:1490   */\n    tag_119:\n        /* \"#utility.yul\":1508:1537   */\n      tag_121\n        /* \"#utility.yul\":1530:1536   */\n      dup3\n        /* \"#utility.yul\":1508:1537   */\n      tag_76\n      jump\t// in\n    tag_121:\n        /* \"#utility.yul\":1500:1537   */\n      swap1\n      pop\n        /* \"#utility.yul\":1592:1596   */\n      0x20\n        /* \"#utility.yul\":1586:1590   */\n      dup2\n        /* \"#utility.yul\":1582:1597   */\n      add\n        /* \"#utility.yul\":1574:1597   */\n      swap1\n      pop\n        /* \"#utility.yul\":1296:1604   */\n      swap2\n      swap1\n      pop\n      jump\t// out\n        /* \"#utility.yul\":1610:1756   */\n    tag_81:\n        /* \"#utility.yul\":1707:1713   */\n      dup3\n        /* \"#utility.yul\":1702:1705   */\n      dup2\n        /* \"#utility.yul\":1697:1700   */\n      dup4\n        /* \"#utility.yul\":1684:1714   */\n      calldatacopy\n        /* \"#utility.yul\":1748:1749   */\n      0x00\n        /* \"#utility.yul\":1739:1745   */\n      dup4\n        /* \"#utility.yul\":1734:1737   */\n      dup4\n        /* \"#utility.yul\":1730:1746   */\n      add\n        /* \"#utility.yul\":1723:1750   */\n      mstore\n        /* \"#utility.yul\":1610:1756   */\n      pop\n      pop\n      pop\n      jump\t// out\n        /* \"#utility.yul\":1762:2187   */\n    tag_82:\n        /* \"#utility.yul\":1840:1845   */\n      0x00\n        /* \"#utility.yul\":1865:1931   */\n      tag_124\n        /* \"#utility.yul\":1881:1930   */\n      tag_125\n        /* \"#utility.yul\":1923:1929   */\n      dup5\n        /* \"#utility.yul\":1881:1930   */\n      tag_80\n      jump\t// in\n    tag_125:\n        /* \"#utility.yul\":1865:1931   */\n      tag_79\n      jump\t// in\n    tag_124:\n        /* \"#utility.yul\":1856:1931   */\n      swap1\n      pop\n        /* \"#utility.yul\":1954:1960   */\n      dup3\n        /* \"#utility.yul\":1947:1952   */\n      dup2\n        /* \"#utility.yul\":1940:1961   */\n      mstore\n        /* \"#utility.yul\":1992:1996   */\n      0x20\n        /* \"#utility.yul\":1985:1990   */\n      dup2\n        /* \"#utility.yul\":1981:1997   */\n      add\n        /* \"#utility.yul\":2030:2033   */\n      dup5\n        /* \"#utility.yul\":2021:2027   */\n      dup5\n        /* \"#utility.yul\":2016:2019   */\n      dup5\n        /* \"#utility.yul\":2012:2028   */\n      add\n        /* \"#utility.yul\":2009:2034   */\n      gt\n        /* \"#utility.yul\":2006:2118   */\n      iszero\n      tag_126\n      jumpi\n        /* \"#utility.yul\":2037:2116   */\n      tag_127\n      tag_75\n      jump\t// in\n    tag_127:\n        /* \"#utility.yul\":2006:2118   */\n    tag_126:\n        /* \"#utility.yul\":2127:2181   */\n      tag_128\n        /* \"#utility.yul\":2174:2180   */\n      dup5\n        /* \"#utility.yul\":2169:2172   */\n      dup3\n        /* \"#utility.yul\":2164:2167   */\n      dup6\n        /* \"#utility.yul\":2127:2181   */\n      tag_81\n      jump\t// in\n    tag_128:\n        /* \"#utility.yul\":1846:2187   */\n      pop\n        /* \"#utility.yul\":1762:2187   */\n      swap4\n      swap3\n      pop\n      pop\n      pop\n      jump\t// out\n        /* \"#utility.yul\":2207:2547   */\n    tag_83:\n        /* \"#utility.yul\":2263:2268   */\n      0x00\n        /* \"#utility.yul\":2312:2315   */\n      dup3\n        /* \"#utility.yul\":2305:2309   */\n      0x1f\n        /* \"#utility.yul\":2297:2303   */\n      dup4\n        /* \"#utility.yul\":2293:2310   */\n      add\n        /* \"#utility.yul\":2289:2316   */\n      slt\n        /* \"#utility.yul\":2279:2401   */\n      tag_130\n      jumpi\n        /* \"#utility.yul\":2320:2399   */\n      tag_131\n      tag_74\n      jump\t// in\n    tag_131:\n        /* \"#utility.yul\":2279:2401   */\n    tag_130:\n        /* \"#utility.yul\":2437:2443   */\n      dup2\n        /* \"#utility.yul\":2424:2444   */\n      calldataload\n        /* \"#utility.yul\":2462:2541   */\n      tag_132\n        /* \"#utility.yul\":2537:2540   */\n      dup5\n        /* \"#utility.yul\":2529:2535   */\n      dup3\n        /* \"#utility.yul\":2522:2526   */\n      0x20\n        /* \"#utility.yul\":2514:2520   */\n      dup7\n        /* \"#utility.yul\":2510:2527   */\n      add\n        /* \"#utility.yul\":2462:2541   */\n      tag_82\n      jump\t// in\n    tag_132:\n        /* \"#utility.yul\":2453:2541   */\n      swap2\n      pop\n        /* \"#utility.yul\":2269:2547   */\n      pop\n        /* \"#utility.yul\":2207:2547   */\n      swap3\n      swap2\n      pop\n      pop\n      jump\t// out\n        /* \"#utility.yul\":2553:3387   */\n    tag_11:\n        /* \"#utility.yul\":2641:2647   */\n      0x00\n        /* \"#utility.yul\":2649:2655   */\n      dup1\n        /* \"#utility.yul\":2698:2700   */\n      0x40\n        /* \"#utility.yul\":2686:2695   */\n      dup4\n        /* \"#utility.yul\":2677:2684   */\n      dup6\n        /* \"#utility.yul\":2673:2696   */\n      sub\n        /* \"#utility.yul\":2669:2701   */\n      slt\n        /* \"#utility.yul\":2666:2785   */\n      iszero\n      tag_134\n      jumpi\n        /* \"#utility.yul\":2704:2783   */\n      tag_135\n      tag_72\n      jump\t// in\n    tag_135:\n        /* \"#utility.yul\":2666:2785   */\n    tag_134:\n        /* \"#utility.yul\":2852:2853   */\n      0x00\n        /* \"#utility.yul\":2841:2850   */\n      dup4\n        /* \"#utility.yul\":2837:2854   */\n      add\n        /* \"#utility.yul\":2824:2855   */\n      calldataload\n        /* \"#utility.yul\":2882:2900   */\n      0xffffffffffffffff\n        /* \"#utility.yul\":2874:2880   */\n      dup2\n        /* \"#utility.yul\":2871:2901   */\n      gt\n        /* \"#utility.yul\":2868:2985   */\n      iszero\n      tag_136\n      jumpi\n        /* \"#utility.yul\":2904:2983   */\n      tag_137\n      tag_73\n      jump\t// in\n    tag_137:\n        /* \"#utility.yul\":2868:2985   */\n    tag_136:\n        /* \"#utility.yul\":3009:3072   */\n      tag_138\n        /* \"#utility.yul\":3064:3071   */\n      dup6\n        /* \"#utility.yul\":3055:3061   */\n      dup3\n        /* \"#utility.yul\":3044:3053   */\n      dup7\n        /* \"#utility.yul\":3040:3062   */\n      add\n        /* \"#utility.yul\":3009:3072   */\n      tag_83\n      jump\t// in\n    tag_138:\n        /* \"#utility.yul\":2999:3072   */\n      swap3\n      pop\n        /* \"#utility.yul\":2795:3082   */\n      pop\n        /* \"#utility.yul\":3149:3151   */\n      0x20\n        /* \"#utility.yul\":3138:3147   */\n      dup4\n        /* \"#utility.yul\":3134:3152   */\n      add\n        /* \"#utility.yul\":3121:3153   */\n      calldataload\n        /* \"#utility.yul\":3180:3198   */\n      0xffffffffffffffff\n        /* \"#utility.yul\":3172:3178   */\n      dup2\n        /* \"#utility.yul\":3169:3199   */\n      gt\n        /* \"#utility.yul\":3166:3283   */\n      iszero\n      tag_139\n      jumpi\n        /* \"#utility.yul\":3202:3281   */\n      tag_140\n      tag_73\n      jump\t// in\n    tag_140:\n        /* \"#utility.yul\":3166:3283   */\n    tag_139:\n        /* \"#utility.yul\":3307:3370   */\n      tag_141\n        /* \"#utility.yul\":3362:3369   */\n      dup6\n        /* \"#utility.yul\":3353:3359   */\n      dup3\n        /* \"#utility.yul\":3342:3351   */\n      dup7\n        /* \"#utility.yul\":3338:3360   */\n      add\n        /* \"#utility.yul\":3307:3370   */\n      tag_83\n      jump\t// in\n    tag_141:\n        /* \"#utility.yul\":3297:3370   */\n      swap2\n      pop\n        /* \"#utility.yul\":3092:3380   */\n      pop\n        /* \"#utility.yul\":2553:3387   */\n      swap3\n      pop\n      swap3\n      swap1\n      pop\n      jump\t// out\n        /* \"#utility.yul\":3393:3483   */\n    tag_84:\n        /* \"#utility.yul\":3427:3434   */\n      0x00\n        /* \"#utility.yul\":3470:3475   */\n      dup2\n        /* \"#utility.yul\":3463:3476   */\n      iszero\n        /* \"#utility.yul\":3456:3477   */\n      iszero\n        /* \"#utility.yul\":3445:3477   */\n      swap1\n      pop\n        /* \"#utility.yul\":3393:3483   */\n      swap2\n      swap1\n      pop\n      jump\t// out\n        /* \"#utility.yul\":3489:3598   */\n    tag_85:\n        /* \"#utility.yul\":3570:3591   */\n      tag_144\n        /* \"#utility.yul\":3585:3590   */\n      dup2\n        /* \"#utility.yul\":3570:3591   */\n      tag_84\n      jump\t// in\n    tag_144:\n        /* \"#utility.yul\":3565:3568   */\n      dup3\n        /* \"#utility.yul\":3558:3592   */\n      mstore\n        /* \"#utility.yul\":3489:3598   */\n      pop\n      pop\n      jump\t// out\n        /* \"#utility.yul\":3604:3814   */\n    tag_14:\n        /* \"#utility.yul\":3691:3695   */\n      0x00\n        /* \"#utility.yul\":3729:3731   */\n      0x20\n        /* \"#utility.yul\":3718:3727   */\n      dup3\n        /* \"#utility.yul\":3714:3732   */\n      add\n        /* \"#utility.yul\":3706:3732   */\n      swap1\n      pop\n        /* \"#utility.yul\":3742:3807   */\n      tag_146\n        /* \"#utility.yul\":3804:3805   */\n      0x00\n        /* \"#utility.yul\":3793:3802   */\n      dup4\n        /* \"#utility.yul\":3789:3806   */\n      add\n        /* \"#utility.yul\":3780:3786   */\n      dup5\n        /* \"#utility.yul\":3742:3807   */\n      tag_85\n      jump\t// in\n    tag_146:\n        /* \"#utility.yul\":3604:3814   */\n      swap3\n      swap2\n      pop\n      pop\n      jump\t// out\n        /* \"#utility.yul\":3820:3897   */\n    tag_86:\n        /* \"#utility.yul\":3857:3864   */\n      0x00\n        /* \"#utility.yul\":3886:3891   */\n      dup2\n        /* \"#utility.yul\":3875:3891   */\n      swap1\n      pop\n        /* \"#utility.yul\":3820:3897   */\n      swap2\n      swap1\n      pop\n      jump\t// out\n        /* \"#utility.yul\":3903:4021   */\n    tag_87:\n        /* \"#utility.yul\":3990:4014   */\n      tag_149\n        /* \"#utility.yul\":4008:4013   */\n      dup2\n        /* \"#utility.yul\":3990:4014   */\n      tag_86\n      jump\t// in\n    tag_149:\n        /* \"#utility.yul\":3985:3988   */\n      dup3\n        /* \"#utility.yul\":3978:4015   */\n      mstore\n        /* \"#utility.yul\":3903:4021   */\n      pop\n      pop\n      jump\t// out\n        /* \"#utility.yul\":4027:4249   */\n    tag_19:\n        /* \"#utility.yul\":4120:4124   */\n      0x00\n        /* \"#utility.yul\":4158:4160   */\n      0x20\n        /* \"#utility.yul\":4147:4156   */\n      dup3\n        /* \"#utility.yul\":4143:4161   */\n      add\n        /* \"#utility.yul\":4135:4161   */\n      swap1\n      pop\n        /* \"#utility.yul\":4171:4242   */\n      tag_151\n        /* \"#utility.yul\":4239:4240   */\n      0x00\n        /* \"#utility.yul\":4228:4237   */\n      dup4\n        /* \"#utility.yul\":4224:4241   */\n      add\n        /* \"#utility.yul\":4215:4221   */\n      dup5\n        /* \"#utility.yul\":4171:4242   */\n      tag_87\n      jump\t// in\n    tag_151:\n        /* \"#utility.yul\":4027:4249   */\n      swap3\n      swap2\n      pop\n      pop\n      jump\t// out\n        /* \"#utility.yul\":4255:4764   */\n    tag_25:\n        /* \"#utility.yul\":4324:4330   */\n      0x00\n        /* \"#utility.yul\":4373:4375   */\n      0x20\n        /* \"#utility.yul\":4361:4370   */\n      dup3\n        /* \"#utility.yul\":4352:4359   */\n      dup5\n        /* \"#utility.yul\":4348:4371   */\n      sub\n        /* \"#utility.yul\":4344:4376   */\n      slt\n        /* \"#utility.yul\":4341:4460   */\n      iszero\n      tag_153\n      jumpi\n        /* \"#utility.yul\":4379:4458   */\n      tag_154\n      tag_72\n      jump\t// in\n    tag_154:\n        /* \"#utility.yul\":4341:4460   */\n    tag_153:\n        /* \"#utility.yul\":4527:4528   */\n      0x00\n        /* \"#utility.yul\":4516:4525   */\n      dup3\n        /* \"#utility.yul\":4512:4529   */\n      add\n        /* \"#utility.yul\":4499:4530   */\n      calldataload\n        /* \"#utility.yul\":4557:4575   */\n      0xffffffffffffffff\n        /* \"#utility.yul\":4549:4555   */\n      dup2\n        /* \"#utility.yul\":4546:4576   */\n      gt\n        /* \"#utility.yul\":4543:4660   */\n      iszero\n      tag_155\n      jumpi\n        /* \"#utility.yul\":4579:4658   */\n      tag_156\n      tag_73\n      jump\t// in\n    tag_156:\n        /* \"#utility.yul\":4543:4660   */\n    tag_155:\n        /* \"#utility.yul\":4684:4747   */\n      tag_157\n        /* \"#utility.yul\":4739:4746   */\n      dup5\n        /* \"#utility.yul\":4730:4736   */\n      dup3\n        /* \"#utility.yul\":4719:4728   */\n      dup6\n        /* \"#utility.yul\":4715:4737   */\n      add\n        /* \"#utility.yul\":4684:4747   */\n      tag_83\n      jump\t// in\n    tag_157:\n        /* \"#utility.yul\":4674:4747   */\n      swap2\n      pop\n        /* \"#utility.yul\":4470:4757   */\n      pop\n        /* \"#utility.yul\":4255:4764   */\n      swap3\n      swap2\n      pop\n      pop\n      jump\t// out\n        /* \"#utility.yul\":4770:4869   */\n    tag_88:\n        /* \"#utility.yul\":4822:4828   */\n      0x00\n        /* \"#utility.yul\":4856:4861   */\n      dup2\n        /* \"#utility.yul\":4850:4862   */\n      mload\n        /* \"#utility.yul\":4840:4862   */\n      swap1\n      pop\n        /* \"#utility.yul\":4770:4869   */\n      swap2\n      swap1\n      pop\n      jump\t// out\n        /* \"#utility.yul\":4875:5044   */\n    tag_89:\n        /* \"#utility.yul\":4959:4970   */\n      0x00\n        /* \"#utility.yul\":4993:4999   */\n      dup3\n        /* \"#utility.yul\":4988:4991   */\n      dup3\n        /* \"#utility.yul\":4981:5000   */\n      mstore\n        /* \"#utility.yul\":5033:5037   */\n      0x20\n        /* \"#utility.yul\":5028:5031   */\n      dup3\n        /* \"#utility.yul\":5024:5038   */\n      add\n        /* \"#utility.yul\":5009:5038   */\n      swap1\n      pop\n        /* \"#utility.yul\":4875:5044   */\n      swap3\n      swap2\n      pop\n      pop\n      jump\t// out\n        /* \"#utility.yul\":5050:5296   */\n    tag_90:\n        /* \"#utility.yul\":5131:5132   */\n      0x00\n        /* \"#utility.yul\":5141:5254   */\n    tag_161:\n        /* \"#utility.yul\":5155:5161   */\n      dup4\n        /* \"#utility.yul\":5152:5153   */\n      dup2\n        /* \"#utility.yul\":5149:5162   */\n      lt\n        /* \"#utility.yul\":5141:5254   */\n      iszero\n      tag_163\n      jumpi\n        /* \"#utility.yul\":5240:5241   */\n      dup1\n        /* \"#utility.yul\":5235:5238   */\n      dup3\n        /* \"#utility.yul\":5231:5242   */\n      add\n        /* \"#utility.yul\":5225:5243   */\n      mload\n        /* \"#utility.yul\":5221:5222   */\n      dup2\n        /* \"#utility.yul\":5216:5219   */\n      dup5\n        /* \"#utility.yul\":5212:5223   */\n      add\n        /* \"#utility.yul\":5205:5244   */\n      mstore\n        /* \"#utility.yul\":5177:5179   */\n      0x20\n        /* \"#utility.yul\":5174:5175   */\n      dup2\n        /* \"#utility.yul\":5170:5180   */\n      add\n        /* \"#utility.yul\":5165:5180   */\n      swap1\n      pop\n        /* \"#utility.yul\":5141:5254   */\n      jump(tag_161)\n    tag_163:\n        /* \"#utility.yul\":5288:5289   */\n      0x00\n        /* \"#utility.yul\":5279:5285   */\n      dup5\n        /* \"#utility.yul\":5274:5277   */\n      dup5\n        /* \"#utility.yul\":5270:5286   */\n      add\n        /* \"#utility.yul\":5263:5290   */\n      mstore\n        /* \"#utility.yul\":5112:5296   */\n      pop\n        /* \"#utility.yul\":5050:5296   */\n      pop\n      pop\n      pop\n      jump\t// out\n        /* \"#utility.yul\":5302:5679   */\n    tag_91:\n        /* \"#utility.yul\":5390:5393   */\n      0x00\n        /* \"#utility.yul\":5418:5457   */\n      tag_165\n        /* \"#utility.yul\":5451:5456   */\n      dup3\n        /* \"#utility.yul\":5418:5457   */\n      tag_88\n      jump\t// in\n    tag_165:\n        /* \"#utility.yul\":5473:5544   */\n      tag_166\n        /* \"#utility.yul\":5537:5543   */\n      dup2\n        /* \"#utility.yul\":5532:5535   */\n      dup6\n        /* \"#utility.yul\":5473:5544   */\n      tag_89\n      jump\t// in\n    tag_166:\n        /* \"#utility.yul\":5466:5544   */\n      swap4\n      pop\n        /* \"#utility.yul\":5553:5618   */\n      tag_167\n        /* \"#utility.yul\":5611:5617   */\n      dup2\n        /* \"#utility.yul\":5606:5609   */\n      dup6\n        /* \"#utility.yul\":5599:5603   */\n      0x20\n        /* \"#utility.yul\":5592:5597   */\n      dup7\n        /* \"#utility.yul\":5588:5604   */\n      add\n        /* \"#utility.yul\":5553:5618   */\n      tag_90\n      jump\t// in\n    tag_167:\n        /* \"#utility.yul\":5643:5672   */\n      tag_168\n        /* \"#utility.yul\":5665:5671   */\n      dup2\n        /* \"#utility.yul\":5643:5672   */\n      tag_76\n      jump\t// in\n    tag_168:\n        /* \"#utility.yul\":5638:5641   */\n      dup5\n        /* \"#utility.yul\":5634:5673   */\n      add\n        /* \"#utility.yul\":5627:5673   */\n      swap2\n      pop\n        /* \"#utility.yul\":5394:5679   */\n      pop\n        /* \"#utility.yul\":5302:5679   */\n      swap3\n      swap2\n      pop\n      pop\n      jump\t// out\n        /* \"#utility.yul\":5685:5793   */\n    tag_92:\n        /* \"#utility.yul\":5762:5786   */\n      tag_170\n        /* \"#utility.yul\":5780:5785   */\n      dup2\n        /* \"#utility.yul\":5762:5786   */\n      tag_86\n      jump\t// in\n    tag_170:\n        /* \"#utility.yul\":5757:5760   */\n      dup3\n        /* \"#utility.yul\":5750:5787   */\n      mstore\n        /* \"#utility.yul\":5685:5793   */\n      pop\n      pop\n      jump\t// out\n        /* \"#utility.yul\":5799:5876   */\n    tag_93:\n        /* \"#utility.yul\":5836:5843   */\n      0x00\n        /* \"#utility.yul\":5865:5870   */\n      dup2\n        /* \"#utility.yul\":5854:5870   */\n      swap1\n      pop\n        /* \"#utility.yul\":5799:5876   */\n      swap2\n      swap1\n      pop\n      jump\t// out\n        /* \"#utility.yul\":5882:5990   */\n    tag_94:\n        /* \"#utility.yul\":5959:5983   */\n      tag_173\n        /* \"#utility.yul\":5977:5982   */\n      dup2\n        /* \"#utility.yul\":5959:5983   */\n      tag_93\n      jump\t// in\n    tag_173:\n        /* \"#utility.yul\":5954:5957   */\n      dup3\n        /* \"#utility.yul\":5947:5984   */\n      mstore\n        /* \"#utility.yul\":5882:5990   */\n      pop\n      pop\n      jump\t// out\n        /* \"#utility.yul\":6042:6541   */\n    tag_95:\n        /* \"#utility.yul\":6177:6181   */\n      0x40\n        /* \"#utility.yul\":6172:6175   */\n      dup3\n        /* \"#utility.yul\":6168:6182   */\n      add\n        /* \"#utility.yul\":6264:6268   */\n      0x00\n        /* \"#utility.yul\":6257:6262   */\n      dup3\n        /* \"#utility.yul\":6253:6269   */\n      add\n        /* \"#utility.yul\":6247:6270   */\n      mload\n        /* \"#utility.yul\":6283:6346   */\n      tag_175\n        /* \"#utility.yul\":6340:6344   */\n      0x00\n        /* \"#utility.yul\":6335:6338   */\n      dup6\n        /* \"#utility.yul\":6331:6345   */\n      add\n        /* \"#utility.yul\":6317:6329   */\n      dup3\n        /* \"#utility.yul\":6283:6346   */\n      tag_92\n      jump\t// in\n    tag_175:\n        /* \"#utility.yul\":6192:6356   */\n      pop\n        /* \"#utility.yul\":6442:6446   */\n      0x20\n        /* \"#utility.yul\":6435:6440   */\n      dup3\n        /* \"#utility.yul\":6431:6447   */\n      add\n        /* \"#utility.yul\":6425:6448   */\n      mload\n        /* \"#utility.yul\":6461:6524   */\n      tag_176\n        /* \"#utility.yul\":6518:6522   */\n      0x20\n        /* \"#utility.yul\":6513:6516   */\n      dup6\n        /* \"#utility.yul\":6509:6523   */\n      add\n        /* \"#utility.yul\":6495:6507   */\n      dup3\n        /* \"#utility.yul\":6461:6524   */\n      tag_94\n      jump\t// in\n    tag_176:\n        /* \"#utility.yul\":6366:6534   */\n      pop\n        /* \"#utility.yul\":6146:6541   */\n      pop\n        /* \"#utility.yul\":6042:6541   */\n      pop\n      pop\n      jump\t// out\n        /* \"#utility.yul\":6547:7046   */\n    tag_28:\n        /* \"#utility.yul\":6726:6730   */\n      0x00\n        /* \"#utility.yul\":6764:6766   */\n      0x60\n        /* \"#utility.yul\":6753:6762   */\n      dup3\n        /* \"#utility.yul\":6749:6767   */\n      add\n        /* \"#utility.yul\":6741:6767   */\n      swap1\n      pop\n        /* \"#utility.yul\":6813:6822   */\n      dup2\n        /* \"#utility.yul\":6807:6811   */\n      dup2\n        /* \"#utility.yul\":6803:6823   */\n      sub\n        /* \"#utility.yul\":6799:6800   */\n      0x00\n        /* \"#utility.yul\":6788:6797   */\n      dup4\n        /* \"#utility.yul\":6784:6801   */\n      add\n        /* \"#utility.yul\":6777:6824   */\n      mstore\n        /* \"#utility.yul\":6841:6919   */\n      tag_178\n        /* \"#utility.yul\":6914:6918   */\n      dup2\n        /* \"#utility.yul\":6905:6911   */\n      dup6\n        /* \"#utility.yul\":6841:6919   */\n      tag_91\n      jump\t// in\n    tag_178:\n        /* \"#utility.yul\":6833:6919   */\n      swap1\n      pop\n        /* \"#utility.yul\":6929:7039   */\n      tag_179\n        /* \"#utility.yul\":7035:7037   */\n      0x20\n        /* \"#utility.yul\":7024:7033   */\n      dup4\n        /* \"#utility.yul\":7020:7038   */\n      add\n        /* \"#utility.yul\":7011:7017   */\n      dup5\n        /* \"#utility.yul\":6929:7039   */\n      tag_95\n      jump\t// in\n    tag_179:\n        /* \"#utility.yul\":6547:7046   */\n      swap4\n      swap3\n      pop\n      pop\n      pop\n      jump\t// out\n        /* \"#utility.yul\":7052:7200   */\n    tag_96:\n        /* \"#utility.yul\":7154:7165   */\n      0x00\n        /* \"#utility.yul\":7191:7194   */\n      dup2\n        /* \"#utility.yul\":7176:7194   */\n      swap1\n      pop\n        /* \"#utility.yul\":7052:7200   */\n      swap3\n      swap2\n      pop\n      pop\n      jump\t// out\n        /* \"#utility.yul\":7206:7596   */\n    tag_97:\n        /* \"#utility.yul\":7312:7315   */\n      0x00\n        /* \"#utility.yul\":7340:7379   */\n      tag_182\n        /* \"#utility.yul\":7373:7378   */\n      dup3\n        /* \"#utility.yul\":7340:7379   */\n      tag_88\n      jump\t// in\n    tag_182:\n        /* \"#utility.yul\":7395:7484   */\n      tag_183\n        /* \"#utility.yul\":7477:7483   */\n      dup2\n        /* \"#utility.yul\":7472:7475   */\n      dup6\n        /* \"#utility.yul\":7395:7484   */\n      tag_96\n      jump\t// in\n    tag_183:\n        /* \"#utility.yul\":7388:7484   */\n      swap4\n      pop\n        /* \"#utility.yul\":7493:7558   */\n      tag_184\n        /* \"#utility.yul\":7551:7557   */\n      dup2\n        /* \"#utility.yul\":7546:7549   */\n      dup6\n        /* \"#utility.yul\":7539:7543   */\n      0x20\n        /* \"#utility.yul\":7532:7537   */\n      dup7\n        /* \"#utility.yul\":7528:7544   */\n      add\n        /* \"#utility.yul\":7493:7558   */\n      tag_90\n      jump\t// in\n    tag_184:\n        /* \"#utility.yul\":7583:7589   */\n      dup1\n        /* \"#utility.yul\":7578:7581   */\n      dup5\n        /* \"#utility.yul\":7574:7590   */\n      add\n        /* \"#utility.yul\":7567:7590   */\n      swap2\n      pop\n        /* \"#utility.yul\":7316:7596   */\n      pop\n        /* \"#utility.yul\":7206:7596   */\n      swap3\n      swap2\n      pop\n      pop\n      jump\t// out\n        /* \"#utility.yul\":7602:7877   */\n    tag_38:\n        /* \"#utility.yul\":7734:7737   */\n      0x00\n        /* \"#utility.yul\":7756:7851   */\n      tag_186\n        /* \"#utility.yul\":7847:7850   */\n      dup3\n        /* \"#utility.yul\":7838:7844   */\n      dup5\n        /* \"#utility.yul\":7756:7851   */\n      tag_97\n      jump\t// in\n    tag_186:\n        /* \"#utility.yul\":7749:7851   */\n      swap2\n      pop\n        /* \"#utility.yul\":7868:7871   */\n      dup2\n        /* \"#utility.yul\":7861:7871   */\n      swap1\n      pop\n        /* \"#utility.yul\":7602:7877   */\n      swap3\n      swap2\n      pop\n      pop\n      jump\t// out\n        /* \"#utility.yul\":7883:8051   */\n    tag_98:\n        /* \"#utility.yul\":8023:8043   */\n      0x546f6f206d75636820617474656d7074732e0000000000000000000000000000\n        /* \"#utility.yul\":8019:8020   */\n      0x00\n        /* \"#utility.yul\":8011:8017   */\n      dup3\n        /* \"#utility.yul\":8007:8021   */\n      add\n        /* \"#utility.yul\":8000:8044   */\n      mstore\n        /* \"#utility.yul\":7883:8051   */\n      pop\n      jump\t// out\n        /* \"#utility.yul\":8057:8423   */\n    tag_99:\n        /* \"#utility.yul\":8199:8202   */\n      0x00\n        /* \"#utility.yul\":8220:8287   */\n      tag_189\n        /* \"#utility.yul\":8284:8286   */\n      0x12\n        /* \"#utility.yul\":8279:8282   */\n      dup4\n        /* \"#utility.yul\":8220:8287   */\n      tag_89\n      jump\t// in\n    tag_189:\n        /* \"#utility.yul\":8213:8287   */\n      swap2\n      pop\n        /* \"#utility.yul\":8296:8389   */\n      tag_190\n        /* \"#utility.yul\":8385:8388   */\n      dup3\n        /* \"#utility.yul\":8296:8389   */\n      tag_98\n      jump\t// in\n    tag_190:\n        /* \"#utility.yul\":8414:8416   */\n      0x20\n        /* \"#utility.yul\":8409:8412   */\n      dup3\n        /* \"#utility.yul\":8405:8417   */\n      add\n        /* \"#utility.yul\":8398:8417   */\n      swap1\n      pop\n        /* \"#utility.yul\":8057:8423   */\n      swap2\n      swap1\n      pop\n      jump\t// out\n        /* \"#utility.yul\":8429:8848   */\n    tag_41:\n        /* \"#utility.yul\":8595:8599   */\n      0x00\n        /* \"#utility.yul\":8633:8635   */\n      0x20\n        /* \"#utility.yul\":8622:8631   */\n      dup3\n        /* \"#utility.yul\":8618:8636   */\n      add\n        /* \"#utility.yul\":8610:8636   */\n      swap1\n      pop\n        /* \"#utility.yul\":8682:8691   */\n      dup2\n        /* \"#utility.yul\":8676:8680   */\n      dup2\n        /* \"#utility.yul\":8672:8692   */\n      sub\n        /* \"#utility.yul\":8668:8669   */\n      0x00\n        /* \"#utility.yul\":8657:8666   */\n      dup4\n        /* \"#utility.yul\":8653:8670   */\n      add\n        /* \"#utility.yul\":8646:8693   */\n      mstore\n        /* \"#utility.yul\":8710:8841   */\n      tag_192\n        /* \"#utility.yul\":8836:8840   */\n      dup2\n        /* \"#utility.yul\":8710:8841   */\n      tag_99\n      jump\t// in\n    tag_192:\n        /* \"#utility.yul\":8702:8841   */\n      swap1\n      pop\n        /* \"#utility.yul\":8429:8848   */\n      swap2\n      swap1\n      pop\n      jump\t// out\n        /* \"#utility.yul\":8854:9034   */\n    tag_100:\n        /* \"#utility.yul\":8902:8979   */\n      0x4e487b7100000000000000000000000000000000000000000000000000000000\n        /* \"#utility.yul\":8899:8900   */\n      0x00\n        /* \"#utility.yul\":8892:8980   */\n      mstore\n        /* \"#utility.yul\":8999:9003   */\n      0x11\n        /* \"#utility.yul\":8996:8997   */\n      0x04\n        /* \"#utility.yul\":8989:9004   */\n      mstore\n        /* \"#utility.yul\":9023:9027   */\n      0x24\n        /* \"#utility.yul\":9020:9021   */\n      0x00\n        /* \"#utility.yul\":9013:9028   */\n      revert\n        /* \"#utility.yul\":9040:9273   */\n    tag_49:\n        /* \"#utility.yul\":9079:9082   */\n      0x00\n        /* \"#utility.yul\":9102:9126   */\n      tag_195\n        /* \"#utility.yul\":9120:9125   */\n      dup3\n        /* \"#utility.yul\":9102:9126   */\n      tag_93\n      jump\t// in\n    tag_195:\n        /* \"#utility.yul\":9093:9126   */\n      swap2\n      pop\n        /* \"#utility.yul\":9148:9214   */\n      0xffffffffffffffffffffffffffffffffffffffffffffffffffffffffffffffff\n        /* \"#utility.yul\":9141:9146   */\n      dup3\n        /* \"#utility.yul\":9138:9215   */\n      sub\n        /* \"#utility.yul\":9135:9238   */\n      tag_196\n      jumpi\n        /* \"#utility.yul\":9218:9236   */\n      tag_197\n      tag_100\n      jump\t// in\n    tag_197:\n        /* \"#utility.yul\":9135:9238   */\n    tag_196:\n        /* \"#utility.yul\":9265:9266   */\n      0x01\n        /* \"#utility.yul\":9258:9263   */\n      dup3\n        /* \"#utility.yul\":9254:9267   */\n      add\n        /* \"#utility.yul\":9247:9267   */\n      swap1\n      pop\n        /* \"#utility.yul\":9040:9273   */\n      swap2\n      swap1\n      pop\n      jump\t// out\n        /* \"#utility.yul\":9279:9714   */\n    tag_52:\n        /* \"#utility.yul\":9459:9462   */\n      0x00\n        /* \"#utility.yul\":9481:9576   */\n      tag_199\n        /* \"#utility.yul\":9572:9575   */\n      dup3\n        /* \"#utility.yul\":9563:9569   */\n      dup6\n        /* \"#utility.yul\":9481:9576   */\n      tag_97\n      jump\t// in\n    tag_199:\n        /* \"#utility.yul\":9474:9576   */\n      swap2\n      pop\n        /* \"#utility.yul\":9593:9688   */\n      tag_200\n        /* \"#utility.yul\":9684:9687   */\n      dup3\n        /* \"#utility.yul\":9675:9681   */\n      dup5\n        /* \"#utility.yul\":9593:9688   */\n      tag_97\n      jump\t// in\n    tag_200:\n        /* \"#utility.yul\":9586:9688   */\n      swap2\n      pop\n        /* \"#utility.yul\":9705:9708   */\n      dup2\n        /* \"#utility.yul\":9698:9708   */\n      swap1\n      pop\n        /* \"#utility.yul\":9279:9714   */\n      swap4\n      swap3\n      pop\n      pop\n      pop\n      jump\t// out\n        /* \"#utility.yul\":9720:9941   */\n    tag_101:\n        /* \"#utility.yul\":9860:9894   */\n      0x50726f766964656420494420697320616c7265616479206265696e6720757365\n        /* \"#utility.yul\":9856:9857   */\n      0x00\n        /* \"#utility.yul\":9848:9854   */\n      dup3\n        /* \"#utility.yul\":9844:9858   */\n      add\n        /* \"#utility.yul\":9837:9895   */\n      mstore\n        /* \"#utility.yul\":9929:9933   */\n      0x642e000000000000000000000000000000000000000000000000000000000000\n        /* \"#utility.yul\":9924:9926   */\n      0x20\n        /* \"#utility.yul\":9916:9922   */\n      dup3\n        /* \"#utility.yul\":9912:9927   */\n      add\n        /* \"#utility.yul\":9905:9934   */\n      mstore\n        /* \"#utility.yul\":9720:9941   */\n      pop\n      jump\t// out\n        /* \"#utility.yul\":9947:10313   */\n    tag_102:\n        /* \"#utility.yul\":10089:10092   */\n      0x00\n        /* \"#utility.yul\":10110:10177   */\n      tag_203\n        /* \"#utility.yul\":10174:10176   */\n      0x22\n        /* \"#utility.yul\":10169:10172   */\n      dup4\n        /* \"#utility.yul\":10110:10177   */\n      tag_89\n      jump\t// in\n    tag_203:\n        /* \"#utility.yul\":10103:10177   */\n      swap2\n      pop\n        /* \"#utility.yul\":10186:10279   */\n      tag_204\n        /* \"#utility.yul\":10275:10278   */\n      dup3\n        /* \"#utility.yul\":10186:10279   */\n      tag_101\n      jump\t// in\n    tag_204:\n        /* \"#utility.yul\":10304:10306   */\n      0x40\n        /* \"#utility.yul\":10299:10302   */\n      dup3\n        /* \"#utility.yul\":10295:10307   */\n      add\n        /* \"#utility.yul\":10288:10307   */\n      swap1\n      pop\n        /* \"#utility.yul\":9947:10313   */\n      swap2\n      swap1\n      pop\n      jump\t// out\n        /* \"#utility.yul\":10319:10738   */\n    tag_57:\n        /* \"#utility.yul\":10485:10489   */\n      0x00\n        /* \"#utility.yul\":10523:10525   */\n      0x20\n        /* \"#utility.yul\":10512:10521   */\n      dup3\n        /* \"#utility.yul\":10508:10526   */\n      add\n        /* \"#utility.yul\":10500:10526   */\n      swap1\n      pop\n        /* \"#utility.yul\":10572:10581   */\n      dup2\n        /* \"#utility.yul\":10566:10570   */\n      dup2\n        /* \"#utility.yul\":10562:10582   */\n      sub\n        /* \"#utility.yul\":10558:10559   */\n      0x00\n        /* \"#utility.yul\":10547:10556   */\n      dup4\n        /* \"#utility.yul\":10543:10560   */\n      add\n        /* \"#utility.yul\":10536:10583   */\n      mstore\n        /* \"#utility.yul\":10600:10731   */\n      tag_206\n        /* \"#utility.yul\":10726:10730   */\n      dup2\n        /* \"#utility.yul\":10600:10731   */\n      tag_102\n      jump\t// in\n    tag_206:\n        /* \"#utility.yul\":10592:10731   */\n      swap1\n      pop\n        /* \"#utility.yul\":10319:10738   */\n      swap2\n      swap1\n      pop\n      jump\t// out\n\n    auxdata: 0xa2646970667358221220b550e88a455495966e642db04a9cb5c14062b3b7f414414ee0aa91ff4708c5ee64736f6c63430008120033\n}\n",
				"bytecode": {
					"linkReferences": {},
					"object": "608060405234801561001057600080fd5b506109e7806100206000396000f3fe608060405234801561001057600080fd5b50600436106100625760003560e01c80631cbfc4661461006757806327cf399a146100975780632c162dbc146100c7578063691a87f9146100e3578063811130a714610114578063a064ed7814610144575b600080fd5b610081600480360381019061007c9190610594565b610160565b60405161008e9190610627565b60405180910390f35b6100b160048036038101906100ac9190610594565b610268565b6040516100be919061065b565b60405180910390f35b6100e160048036038101906100dc9190610594565b61029b565b005b6100fd60048036038101906100f89190610676565b610334565b60405161010b929190610795565b60405180910390f35b61012e60048036038101906101299190610676565b610388565b60405161013b919061065b565b60405180910390f35b61015e60048036038101906101599190610594565b6103b2565b005b600060056000846040516101749190610801565b908152602001604051809103902060010154106101c6576040517f08c379a00000000000000000000000000000000000000000000000000000000081526004016101bd90610864565b60405180910390fd5b6101d08383610268565b6000846040516101e09190610801565b9081526020016040518091039020600001540361022657600080846040516102089190610801565b90815260200160405180910390206001018190555060019050610262565b6000836040516102369190610801565b90815260200160405180910390206001016000815480929190610258906108b3565b9190505550600090505b92915050565b6000828260405160200161027d9291906108fb565b60405160208183030381529060405280519060200120905092915050565b6000801b6000836040516102af9190610801565b90815260200160405180910390206000015414610301576040517f08c379a00000000000000000000000000000000000000000000000000000000081526004016102f890610991565b60405180910390fd5b61030b8282610268565b60008360405161031b9190610801565b9081526020016040518091039020600001819055505050565b606061033e61041d565b8260008460405161034f9190610801565b90815260200160405180910390208060405180604001604052908160008201548152602001600182015481525050905091509150915091565b600080826040516103999190610801565b9081526020016040518091039020600001549050919050565b6103bc8282610268565b6000836040516103cc9190610801565b908152602001604051809103902060000154146103e857600080fd5b6000826040516103f89190610801565b9081526020016040518091039020600080820160009055600182016000905550505050565b604051806040016040528060008019168152602001600081525090565b6000604051905090565b600080fd5b600080fd5b600080fd5b600080fd5b6000601f19601f8301169050919050565b7f4e487b7100000000000000000000000000000000000000000000000000000000600052604160045260246000fd5b6104a182610458565b810181811067ffffffffffffffff821117156104c0576104bf610469565b5b80604052505050565b60006104d361043a565b90506104df8282610498565b919050565b600067ffffffffffffffff8211156104ff576104fe610469565b5b61050882610458565b9050602081019050919050565b82818337600083830152505050565b6000610537610532846104e4565b6104c9565b90508281526020810184848401111561055357610552610453565b5b61055e848285610515565b509392505050565b600082601f83011261057b5761057a61044e565b5b813561058b848260208601610524565b91505092915050565b600080604083850312156105ab576105aa610444565b5b600083013567ffffffffffffffff8111156105c9576105c8610449565b5b6105d585828601610566565b925050602083013567ffffffffffffffff8111156105f6576105f5610449565b5b61060285828601610566565b9150509250929050565b60008115159050919050565b6106218161060c565b82525050565b600060208201905061063c6000830184610618565b92915050565b6000819050919050565b61065581610642565b82525050565b6000602082019050610670600083018461064c565b92915050565b60006020828403121561068c5761068b610444565b5b600082013567ffffffffffffffff8111156106aa576106a9610449565b5b6106b684828501610566565b91505092915050565b600081519050919050565b600082825260208201905092915050565b60005b838110156106f95780820151818401526020810190506106de565b60008484015250505050565b6000610710826106bf565b61071a81856106ca565b935061072a8185602086016106db565b61073381610458565b840191505092915050565b61074781610642565b82525050565b6000819050919050565b6107608161074d565b82525050565b60408201600082015161077c600085018261073e565b50602082015161078f6020850182610757565b50505050565b600060608201905081810360008301526107af8185610705565b90506107be6020830184610766565b9392505050565b600081905092915050565b60006107db826106bf565b6107e581856107c5565b93506107f58185602086016106db565b80840191505092915050565b600061080d82846107d0565b915081905092915050565b7f546f6f206d75636820617474656d7074732e0000000000000000000000000000600082015250565b600061084e6012836106ca565b915061085982610818565b602082019050919050565b6000602082019050818103600083015261087d81610841565b9050919050565b7f4e487b7100000000000000000000000000000000000000000000000000000000600052601160045260246000fd5b60006108be8261074d565b91507fffffffffffffffffffffffffffffffffffffffffffffffffffffffffffffffff82036108f0576108ef610884565b5b600182019050919050565b600061090782856107d0565b915061091382846107d0565b91508190509392505050565b7f50726f766964656420494420697320616c7265616479206265696e672075736560008201527f642e000000000000000000000000000000000000000000000000000000000000602082015250565b600061097b6022836106ca565b91506109868261091f565b604082019050919050565b600060208201905081810360008301526109aa8161096e565b905091905056fea2646970667358221220b550e88a455495966e642db04a9cb5c14062b3b7f414414ee0aa91ff4708c5ee64736f6c63430008120033",
					"opcodes": "PUSH1 0x80 PUSH1 0x40 MSTORE CALLVALUE DUP1 ISZERO PUSH2 0x10 JUMPI PUSH1 0x0 DUP1 REVERT JUMPDEST POP PUSH2 0x9E7 DUP1 PUSH2 0x20 PUSH1 0x0 CODECOPY PUSH1 0x0 RETURN INVALID PUSH1 0x80 PUSH1 0x40 MSTORE CALLVALUE DUP1 ISZERO PUSH2 0x10 JUMPI PUSH1 0x0 DUP1 REVERT JUMPDEST POP PUSH1 0x4 CALLDATASIZE LT PUSH2 0x62 JUMPI PUSH1 0x0 CALLDATALOAD PUSH1 0xE0 SHR DUP1 PUSH4 0x1CBFC466 EQ PUSH2 0x67 JUMPI DUP1 PUSH4 0x27CF399A EQ PUSH2 0x97 JUMPI DUP1 PUSH4 0x2C162DBC EQ PUSH2 0xC7 JUMPI DUP1 PUSH4 0x691A87F9 EQ PUSH2 0xE3 JUMPI DUP1 PUSH4 0x811130A7 EQ PUSH2 0x114 JUMPI DUP1 PUSH4 0xA064ED78 EQ PUSH2 0x144 JUMPI JUMPDEST PUSH1 0x0 DUP1 REVERT JUMPDEST PUSH2 0x81 PUSH1 0x4 DUP1 CALLDATASIZE SUB DUP2 ADD SWAP1 PUSH2 0x7C SWAP2 SWAP1 PUSH2 0x594 JUMP JUMPDEST PUSH2 0x160 JUMP JUMPDEST PUSH1 0x40 MLOAD PUSH2 0x8E SWAP2 SWAP1 PUSH2 0x627 JUMP JUMPDEST PUSH1 0x40 MLOAD DUP1 SWAP2 SUB SWAP1 RETURN JUMPDEST PUSH2 0xB1 PUSH1 0x4 DUP1 CALLDATASIZE SUB DUP2 ADD SWAP1 PUSH2 0xAC SWAP2 SWAP1 PUSH2 0x594 JUMP JUMPDEST PUSH2 0x268 JUMP JUMPDEST PUSH1 0x40 MLOAD PUSH2 0xBE SWAP2 SWAP1 PUSH2 0x65B JUMP JUMPDEST PUSH1 0x40 MLOAD DUP1 SWAP2 SUB SWAP1 RETURN JUMPDEST PUSH2 0xE1 PUSH1 0x4 DUP1 CALLDATASIZE SUB DUP2 ADD SWAP1 PUSH2 0xDC SWAP2 SWAP1 PUSH2 0x594 JUMP JUMPDEST PUSH2 0x29B JUMP JUMPDEST STOP JUMPDEST PUSH2 0xFD PUSH1 0x4 DUP1 CALLDATASIZE SUB DUP2 ADD SWAP1 PUSH2 0xF8 SWAP2 SWAP1 PUSH2 0x676 JUMP JUMPDEST PUSH2 0x334 JUMP JUMPDEST PUSH1 0x40 MLOAD PUSH2 0x10B SWAP3 SWAP2 SWAP1 PUSH2 0x795 JUMP JUMPDEST PUSH1 0x40 MLOAD DUP1 SWAP2 SUB SWAP1 RETURN JUMPDEST PUSH2 0x12E PUSH1 0x4 DUP1 CALLDATASIZE SUB DUP2 ADD SWAP1 PUSH2 0x129 SWAP2 SWAP1 PUSH2 0x676 JUMP JUMPDEST PUSH2 0x388 JUMP JUMPDEST PUSH1 0x40 MLOAD PUSH2 0x13B SWAP2 SWAP1 PUSH2 0x65B JUMP JUMPDEST PUSH1 0x40 MLOAD DUP1 SWAP2 SUB SWAP1 RETURN JUMPDEST PUSH2 0x15E PUSH1 0x4 DUP1 CALLDATASIZE SUB DUP2 ADD SWAP1 PUSH2 0x159 SWAP2 SWAP1 PUSH2 0x594 JUMP JUMPDEST PUSH2 0x3B2 JUMP JUMPDEST STOP JUMPDEST PUSH1 0x0 PUSH1 0x5 PUSH1 0x0 DUP5 PUSH1 0x40 MLOAD PUSH2 0x174 SWAP2 SWAP1 PUSH2 0x801 JUMP JUMPDEST SWAP1 DUP2 MSTORE PUSH1 0x20 ADD PUSH1 0x40 MLOAD DUP1 SWAP2 SUB SWAP1 KECCAK256 PUSH1 0x1 ADD SLOAD LT PUSH2 0x1C6 JUMPI PUSH1 0x40 MLOAD PUSH32 0x8C379A000000000000000000000000000000000000000000000000000000000 DUP2 MSTORE PUSH1 0x4 ADD PUSH2 0x1BD SWAP1 PUSH2 0x864 JUMP JUMPDEST PUSH1 0x40 MLOAD DUP1 SWAP2 SUB SWAP1 REVERT JUMPDEST PUSH2 0x1D0 DUP4 DUP4 PUSH2 0x268 JUMP JUMPDEST PUSH1 0x0 DUP5 PUSH1 0x40 MLOAD PUSH2 0x1E0 SWAP2 SWAP1 PUSH2 0x801 JUMP JUMPDEST SWAP1 DUP2 MSTORE PUSH1 0x20 ADD PUSH1 0x40 MLOAD DUP1 SWAP2 SUB SWAP1 KECCAK256 PUSH1 0x0 ADD SLOAD SUB PUSH2 0x226 JUMPI PUSH1 0x0 DUP1 DUP5 PUSH1 0x40 MLOAD PUSH2 0x208 SWAP2 SWAP1 PUSH2 0x801 JUMP JUMPDEST SWAP1 DUP2 MSTORE PUSH1 0x20 ADD PUSH1 0x40 MLOAD DUP1 SWAP2 SUB SWAP1 KECCAK256 PUSH1 0x1 ADD DUP2 SWAP1 SSTORE POP PUSH1 0x1 SWAP1 POP PUSH2 0x262 JUMP JUMPDEST PUSH1 0x0 DUP4 PUSH1 0x40 MLOAD PUSH2 0x236 SWAP2 SWAP1 PUSH2 0x801 JUMP JUMPDEST SWAP1 DUP2 MSTORE PUSH1 0x20 ADD PUSH1 0x40 MLOAD DUP1 SWAP2 SUB SWAP1 KECCAK256 PUSH1 0x1 ADD PUSH1 0x0 DUP2 SLOAD DUP1 SWAP3 SWAP2 SWAP1 PUSH2 0x258 SWAP1 PUSH2 0x8B3 JUMP JUMPDEST SWAP2 SWAP1 POP SSTORE POP PUSH1 0x0 SWAP1 POP JUMPDEST SWAP3 SWAP2 POP POP JUMP JUMPDEST PUSH1 0x0 DUP3 DUP3 PUSH1 0x40 MLOAD PUSH1 0x20 ADD PUSH2 0x27D SWAP3 SWAP2 SWAP1 PUSH2 0x8FB JUMP JUMPDEST PUSH1 0x40 MLOAD PUSH1 0x20 DUP2 DUP4 SUB SUB DUP2 MSTORE SWAP1 PUSH1 0x40 MSTORE DUP1 MLOAD SWAP1 PUSH1 0x20 ADD KECCAK256 SWAP1 POP SWAP3 SWAP2 POP POP JUMP JUMPDEST PUSH1 0x0 DUP1 SHL PUSH1 0x0 DUP4 PUSH1 0x40 MLOAD PUSH2 0x2AF SWAP2 SWAP1 PUSH2 0x801 JUMP JUMPDEST SWAP1 DUP2 MSTORE PUSH1 0x20 ADD PUSH1 0x40 MLOAD DUP1 SWAP2 SUB SWAP1 KECCAK256 PUSH1 0x0 ADD SLOAD EQ PUSH2 0x301 JUMPI PUSH1 0x40 MLOAD PUSH32 0x8C379A000000000000000000000000000000000000000000000000000000000 DUP2 MSTORE PUSH1 0x4 ADD PUSH2 0x2F8 SWAP1 PUSH2 0x991 JUMP JUMPDEST PUSH1 0x40 MLOAD DUP1 SWAP2 SUB SWAP1 REVERT JUMPDEST PUSH2 0x30B DUP3 DUP3 PUSH2 0x268 JUMP JUMPDEST PUSH1 0x0 DUP4 PUSH1 0x40 MLOAD PUSH2 0x31B SWAP2 SWAP1 PUSH2 0x801 JUMP JUMPDEST SWAP1 DUP2 MSTORE PUSH1 0x20 ADD PUSH1 0x40 MLOAD DUP1 SWAP2 SUB SWAP1 KECCAK256 PUSH1 0x0 ADD DUP2 SWAP1 SSTORE POP POP POP JUMP JUMPDEST PUSH1 0x60 PUSH2 0x33E PUSH2 0x41D JUMP JUMPDEST DUP3 PUSH1 0x0 DUP5 PUSH1 0x40 MLOAD PUSH2 0x34F SWAP2 SWAP1 PUSH2 0x801 JUMP JUMPDEST SWAP1 DUP2 MSTORE PUSH1 0x20 ADD PUSH1 0x40 MLOAD DUP1 SWAP2 SUB SWAP1 KECCAK256 DUP1 PUSH1 0x40 MLOAD DUP1 PUSH1 0x40 ADD PUSH1 0x40 MSTORE SWAP1 DUP2 PUSH1 0x0 DUP3 ADD SLOAD DUP2 MSTORE PUSH1 0x20 ADD PUSH1 0x1 DUP3 ADD SLOAD DUP2 MSTORE POP POP SWAP1 POP SWAP2 POP SWAP2 POP SWAP2 POP SWAP2 JUMP JUMPDEST PUSH1 0x0 DUP1 DUP3 PUSH1 0x40 MLOAD PUSH2 0x399 SWAP2 SWAP1 PUSH2 0x801 JUMP JUMPDEST SWAP1 DUP2 MSTORE PUSH1 0x20 ADD PUSH1 0x40 MLOAD DUP1 SWAP2 SUB SWAP1 KECCAK256 PUSH1 0x0 ADD SLOAD SWAP1 POP SWAP2 SWAP1 POP JUMP JUMPDEST PUSH2 0x3BC DUP3 DUP3 PUSH2 0x268 JUMP JUMPDEST PUSH1 0x0 DUP4 PUSH1 0x40 MLOAD PUSH2 0x3CC SWAP2 SWAP1 PUSH2 0x801 JUMP JUMPDEST SWAP1 DUP2 MSTORE PUSH1 0x20 ADD PUSH1 0x40 MLOAD DUP1 SWAP2 SUB SWAP1 KECCAK256 PUSH1 0x0 ADD SLOAD EQ PUSH2 0x3E8 JUMPI PUSH1 0x0 DUP1 REVERT JUMPDEST PUSH1 0x0 DUP3 PUSH1 0x40 MLOAD PUSH2 0x3F8 SWAP2 SWAP1 PUSH2 0x801 JUMP JUMPDEST SWAP1 DUP2 MSTORE PUSH1 0x20 ADD PUSH1 0x40 MLOAD DUP1 SWAP2 SUB SWAP1 KECCAK256 PUSH1 0x0 DUP1 DUP3 ADD PUSH1 0x0 SWAP1 SSTORE PUSH1 0x1 DUP3 ADD PUSH1 0x0 SWAP1 SSTORE POP POP POP POP JUMP JUMPDEST PUSH1 0x40 MLOAD DUP1 PUSH1 0x40 ADD PUSH1 0x40 MSTORE DUP1 PUSH1 0x0 DUP1 NOT AND DUP2 MSTORE PUSH1 0x20 ADD PUSH1 0x0 DUP2 MSTORE POP SWAP1 JUMP JUMPDEST PUSH1 0x0 PUSH1 0x40 MLOAD SWAP1 POP SWAP1 JUMP JUMPDEST PUSH1 0x0 DUP1 REVERT JUMPDEST PUSH1 0x0 DUP1 REVERT JUMPDEST PUSH1 0x0 DUP1 REVERT JUMPDEST PUSH1 0x0 DUP1 REVERT JUMPDEST PUSH1 0x0 PUSH1 0x1F NOT PUSH1 0x1F DUP4 ADD AND SWAP1 POP SWAP2 SWAP1 POP JUMP JUMPDEST PUSH32 0x4E487B7100000000000000000000000000000000000000000000000000000000 PUSH1 0x0 MSTORE PUSH1 0x41 PUSH1 0x4 MSTORE PUSH1 0x24 PUSH1 0x0 REVERT JUMPDEST PUSH2 0x4A1 DUP3 PUSH2 0x458 JUMP JUMPDEST DUP2 ADD DUP2 DUP2 LT PUSH8 0xFFFFFFFFFFFFFFFF DUP3 GT OR ISZERO PUSH2 0x4C0 JUMPI PUSH2 0x4BF PUSH2 0x469 JUMP JUMPDEST JUMPDEST DUP1 PUSH1 0x40 MSTORE POP POP POP JUMP JUMPDEST PUSH1 0x0 PUSH2 0x4D3 PUSH2 0x43A JUMP JUMPDEST SWAP1 POP PUSH2 0x4DF DUP3 DUP3 PUSH2 0x498 JUMP JUMPDEST SWAP2 SWAP1 POP JUMP JUMPDEST PUSH1 0x0 PUSH8 0xFFFFFFFFFFFFFFFF DUP3 GT ISZERO PUSH2 0x4FF JUMPI PUSH2 0x4FE PUSH2 0x469 JUMP JUMPDEST JUMPDEST PUSH2 0x508 DUP3 PUSH2 0x458 JUMP JUMPDEST SWAP1 POP PUSH1 0x20 DUP2 ADD SWAP1 POP SWAP2 SWAP1 POP JUMP JUMPDEST DUP3 DUP2 DUP4 CALLDATACOPY PUSH1 0x0 DUP4 DUP4 ADD MSTORE POP POP POP JUMP JUMPDEST PUSH1 0x0 PUSH2 0x537 PUSH2 0x532 DUP5 PUSH2 0x4E4 JUMP JUMPDEST PUSH2 0x4C9 JUMP JUMPDEST SWAP1 POP DUP3 DUP2 MSTORE PUSH1 0x20 DUP2 ADD DUP5 DUP5 DUP5 ADD GT ISZERO PUSH2 0x553 JUMPI PUSH2 0x552 PUSH2 0x453 JUMP JUMPDEST JUMPDEST PUSH2 0x55E DUP5 DUP3 DUP6 PUSH2 0x515 JUMP JUMPDEST POP SWAP4 SWAP3 POP POP POP JUMP JUMPDEST PUSH1 0x0 DUP3 PUSH1 0x1F DUP4 ADD SLT PUSH2 0x57B JUMPI PUSH2 0x57A PUSH2 0x44E JUMP JUMPDEST JUMPDEST DUP2 CALLDATALOAD PUSH2 0x58B DUP5 DUP3 PUSH1 0x20 DUP7 ADD PUSH2 0x524 JUMP JUMPDEST SWAP2 POP POP SWAP3 SWAP2 POP POP JUMP JUMPDEST PUSH1 0x0 DUP1 PUSH1 0x40 DUP4 DUP6 SUB SLT ISZERO PUSH2 0x5AB JUMPI PUSH2 0x5AA PUSH2 0x444 JUMP JUMPDEST JUMPDEST PUSH1 0x0 DUP4 ADD CALLDATALOAD PUSH8 0xFFFFFFFFFFFFFFFF DUP2 GT ISZERO PUSH2 0x5C9 JUMPI PUSH2 0x5C8 PUSH2 0x449 JUMP JUMPDEST JUMPDEST PUSH2 0x5D5 DUP6 DUP3 DUP7 ADD PUSH2 0x566 JUMP JUMPDEST SWAP3 POP POP PUSH1 0x20 DUP4 ADD CALLDATALOAD PUSH8 0xFFFFFFFFFFFFFFFF DUP2 GT ISZERO PUSH2 0x5F6 JUMPI PUSH2 0x5F5 PUSH2 0x449 JUMP JUMPDEST JUMPDEST PUSH2 0x602 DUP6 DUP3 DUP7 ADD PUSH2 0x566 JUMP JUMPDEST SWAP2 POP POP SWAP3 POP SWAP3 SWAP1 POP JUMP JUMPDEST PUSH1 0x0 DUP2 ISZERO ISZERO SWAP1 POP SWAP2 SWAP1 POP JUMP JUMPDEST PUSH2 0x621 DUP2 PUSH2 0x60C JUMP JUMPDEST DUP3 MSTORE POP POP JUMP JUMPDEST PUSH1 0x0 PUSH1 0x20 DUP3 ADD SWAP1 POP PUSH2 0x63C PUSH1 0x0 DUP4 ADD DUP5 PUSH2 0x618 JUMP JUMPDEST SWAP3 SWAP2 POP POP JUMP JUMPDEST PUSH1 0x0 DUP2 SWAP1 POP SWAP2 SWAP1 POP JUMP JUMPDEST PUSH2 0x655 DUP2 PUSH2 0x642 JUMP JUMPDEST DUP3 MSTORE POP POP JUMP JUMPDEST PUSH1 0x0 PUSH1 0x20 DUP3 ADD SWAP1 POP PUSH2 0x670 PUSH1 0x0 DUP4 ADD DUP5 PUSH2 0x64C JUMP JUMPDEST SWAP3 SWAP2 POP POP JUMP JUMPDEST PUSH1 0x0 PUSH1 0x20 DUP3 DUP5 SUB SLT ISZERO PUSH2 0x68C JUMPI PUSH2 0x68B PUSH2 0x444 JUMP JUMPDEST JUMPDEST PUSH1 0x0 DUP3 ADD CALLDATALOAD PUSH8 0xFFFFFFFFFFFFFFFF DUP2 GT ISZERO PUSH2 0x6AA JUMPI PUSH2 0x6A9 PUSH2 0x449 JUMP JUMPDEST JUMPDEST PUSH2 0x6B6 DUP5 DUP3 DUP6 ADD PUSH2 0x566 JUMP JUMPDEST SWAP2 POP POP SWAP3 SWAP2 POP POP JUMP JUMPDEST PUSH1 0x0 DUP2 MLOAD SWAP1 POP SWAP2 SWAP1 POP JUMP JUMPDEST PUSH1 0x0 DUP3 DUP3 MSTORE PUSH1 0x20 DUP3 ADD SWAP1 POP SWAP3 SWAP2 POP POP JUMP JUMPDEST PUSH1 0x0 JUMPDEST DUP4 DUP2 LT ISZERO PUSH2 0x6F9 JUMPI DUP1 DUP3 ADD MLOAD DUP2 DUP5 ADD MSTORE PUSH1 0x20 DUP2 ADD SWAP1 POP PUSH2 0x6DE JUMP JUMPDEST PUSH1 0x0 DUP5 DUP5 ADD MSTORE POP POP POP POP JUMP JUMPDEST PUSH1 0x0 PUSH2 0x710 DUP3 PUSH2 0x6BF JUMP JUMPDEST PUSH2 0x71A DUP2 DUP6 PUSH2 0x6CA JUMP JUMPDEST SWAP4 POP PUSH2 0x72A DUP2 DUP6 PUSH1 0x20 DUP7 ADD PUSH2 0x6DB JUMP JUMPDEST PUSH2 0x733 DUP2 PUSH2 0x458 JUMP JUMPDEST DUP5 ADD SWAP2 POP POP SWAP3 SWAP2 POP POP JUMP JUMPDEST PUSH2 0x747 DUP2 PUSH2 0x642 JUMP JUMPDEST DUP3 MSTORE POP POP JUMP JUMPDEST PUSH1 0x0 DUP2 SWAP1 POP SWAP2 SWAP1 POP JUMP JUMPDEST PUSH2 0x760 DUP2 PUSH2 0x74D JUMP JUMPDEST DUP3 MSTORE POP POP JUMP JUMPDEST PUSH1 0x40 DUP3 ADD PUSH1 0x0 DUP3 ADD MLOAD PUSH2 0x77C PUSH1 0x0 DUP6 ADD DUP3 PUSH2 0x73E JUMP JUMPDEST POP PUSH1 0x20 DUP3 ADD MLOAD PUSH2 0x78F PUSH1 0x20 DUP6 ADD DUP3 PUSH2 0x757 JUMP JUMPDEST POP POP POP POP JUMP JUMPDEST PUSH1 0x0 PUSH1 0x60 DUP3 ADD SWAP1 POP DUP2 DUP2 SUB PUSH1 0x0 DUP4 ADD MSTORE PUSH2 0x7AF DUP2 DUP6 PUSH2 0x705 JUMP JUMPDEST SWAP1 POP PUSH2 0x7BE PUSH1 0x20 DUP4 ADD DUP5 PUSH2 0x766 JUMP JUMPDEST SWAP4 SWAP3 POP POP POP JUMP JUMPDEST PUSH1 0x0 DUP2 SWAP1 POP SWAP3 SWAP2 POP POP JUMP JUMPDEST PUSH1 0x0 PUSH2 0x7DB DUP3 PUSH2 0x6BF JUMP JUMPDEST PUSH2 0x7E5 DUP2 DUP6 PUSH2 0x7C5 JUMP JUMPDEST SWAP4 POP PUSH2 0x7F5 DUP2 DUP6 PUSH1 0x20 DUP7 ADD PUSH2 0x6DB JUMP JUMPDEST DUP1 DUP5 ADD SWAP2 POP POP SWAP3 SWAP2 POP POP JUMP JUMPDEST PUSH1 0x0 PUSH2 0x80D DUP3 DUP5 PUSH2 0x7D0 JUMP JUMPDEST SWAP2 POP DUP2 SWAP1 POP SWAP3 SWAP2 POP POP JUMP JUMPDEST PUSH32 0x546F6F206D75636820617474656D7074732E0000000000000000000000000000 PUSH1 0x0 DUP3 ADD MSTORE POP JUMP JUMPDEST PUSH1 0x0 PUSH2 0x84E PUSH1 0x12 DUP4 PUSH2 0x6CA JUMP JUMPDEST SWAP2 POP PUSH2 0x859 DUP3 PUSH2 0x818 JUMP JUMPDEST PUSH1 0x20 DUP3 ADD SWAP1 POP SWAP2 SWAP1 POP JUMP JUMPDEST PUSH1 0x0 PUSH1 0x20 DUP3 ADD SWAP1 POP DUP2 DUP2 SUB PUSH1 0x0 DUP4 ADD MSTORE PUSH2 0x87D DUP2 PUSH2 0x841 JUMP JUMPDEST SWAP1 POP SWAP2 SWAP1 POP JUMP JUMPDEST PUSH32 0x4E487B7100000000000000000000000000000000000000000000000000000000 PUSH1 0x0 MSTORE PUSH1 0x11 PUSH1 0x4 MSTORE PUSH1 0x24 PUSH1 0x0 REVERT JUMPDEST PUSH1 0x0 PUSH2 0x8BE DUP3 PUSH2 0x74D JUMP JUMPDEST SWAP2 POP PUSH32 0xFFFFFFFFFFFFFFFFFFFFFFFFFFFFFFFFFFFFFFFFFFFFFFFFFFFFFFFFFFFFFFFF DUP3 SUB PUSH2 0x8F0 JUMPI PUSH2 0x8EF PUSH2 0x884 JUMP JUMPDEST JUMPDEST PUSH1 0x1 DUP3 ADD SWAP1 POP SWAP2 SWAP1 POP JUMP JUMPDEST PUSH1 0x0 PUSH2 0x907 DUP3 DUP6 PUSH2 0x7D0 JUMP JUMPDEST SWAP2 POP PUSH2 0x913 DUP3 DUP5 PUSH2 0x7D0 JUMP JUMPDEST SWAP2 POP DUP2 SWAP1 POP SWAP4 SWAP3 POP POP POP JUMP JUMPDEST PUSH32 0x50726F766964656420494420697320616C7265616479206265696E6720757365 PUSH1 0x0 DUP3 ADD MSTORE PUSH32 0x642E000000000000000000000000000000000000000000000000000000000000 PUSH1 0x20 DUP3 ADD MSTORE POP JUMP JUMPDEST PUSH1 0x0 PUSH2 0x97B PUSH1 0x22 DUP4 PUSH2 0x6CA JUMP JUMPDEST SWAP2 POP PUSH2 0x986 DUP3 PUSH2 0x91F JUMP JUMPDEST PUSH1 0x40 DUP3 ADD SWAP1 POP SWAP2 SWAP1 POP JUMP JUMPDEST PUSH1 0x0 PUSH1 0x20 DUP3 ADD SWAP1 POP DUP2 DUP2 SUB PUSH1 0x0 DUP4 ADD MSTORE PUSH2 0x9AA DUP2 PUSH2 0x96E JUMP JUMPDEST SWAP1 POP SWAP2 SWAP1 POP JUMP INVALID LOG2 PUSH5 0x6970667358 0x22 SLT KECCAK256 0xB5 POP 0xE8 DUP11 GASLIMIT SLOAD SWAP6 SWAP7 PUSH15 0x642DB04A9CB5C14062B3B7F414414E 0xE0 0xAA SWAP2 SELFDESTRUCT SELFBALANCE ADDMOD 0xC5 0xEE PUSH5 0x736F6C6343 STOP ADDMOD SLT STOP CALLER "
				},
				"gasEstimates": {
					"creation": {
						"codeDepositCost": "507000",
						"executionCost": "543",
						"totalCost": "507543"
					},
					"external": {
						"getHash(string,string)": "infinite",
						"logIn(string,string)": "infinite",
						"logIn2(string)": "infinite",
						"signIn(string,string)": "infinite",
						"signOut(string,string)": "infinite",
						"userInfo(string)": "infinite"
					}
				},
				"methodIdentifiers": {
					"getHash(string,string)": "27cf399a",
					"logIn(string,string)": "1cbfc466",
					"logIn2(string)": "811130a7",
					"signIn(string,string)": "2c162dbc",
					"signOut(string,string)": "a064ed78",
					"userInfo(string)": "691a87f9"
				}
			},
			"storageLayout": {
				"storage": [
					{
						"astId": 11,
						"contract": "contracts-test/230512-test1-answer.sol:QUIZ2",
						"label": "ID_PW",
						"offset": 0,
						"slot": "0",
						"type": "t_mapping(t_string_memory_ptr,t_struct(User)6_storage)"
					}
				],
				"types": {
					"t_bytes32": {
						"encoding": "inplace",
						"label": "bytes32",
						"numberOfBytes": "32"
					},
					"t_mapping(t_string_memory_ptr,t_struct(User)6_storage)": {
						"encoding": "mapping",
						"key": "t_string_memory_ptr",
						"label": "mapping(string => struct QUIZ2.User)",
						"numberOfBytes": "32",
						"value": "t_struct(User)6_storage"
					},
					"t_string_memory_ptr": {
						"encoding": "bytes",
						"label": "string",
						"numberOfBytes": "32"
					},
					"t_struct(User)6_storage": {
						"encoding": "inplace",
						"label": "struct QUIZ2.User",
						"members": [
							{
								"astId": 3,
								"contract": "contracts-test/230512-test1-answer.sol:QUIZ2",
								"label": "hash",
								"offset": 0,
								"slot": "0",
								"type": "t_bytes32"
							},
							{
								"astId": 5,
								"contract": "contracts-test/230512-test1-answer.sol:QUIZ2",
								"label": "attempts",
								"offset": 0,
								"slot": "1",
								"type": "t_uint256"
							}
						],
						"numberOfBytes": "64"
					},
					"t_uint256": {
						"encoding": "inplace",
						"label": "uint256",
						"numberOfBytes": "32"
					}
				}
			},
			"userdoc": {
				"kind": "user",
				"methods": {},
				"version": 1
			}
		}
	}
}