{
	"contracts-test/230511-test1-answer.sol": {
		"QUIZ1": {
			"abi": [
				{
					"inputs": [],
					"name": "FClass",
					"outputs": [
						{
							"internalType": "uint256",
							"name": "",
							"type": "uint256"
						},
						{
							"components": [
								{
									"internalType": "string",
									"name": "name",
									"type": "string"
								},
								{
									"internalType": "uint256",
									"name": "number",
									"type": "uint256"
								},
								{
									"internalType": "uint256",
									"name": "score",
									"type": "uint256"
								},
								{
									"internalType": "string",
									"name": "credit",
									"type": "string"
								},
								{
									"internalType": "string[]",
									"name": "classes",
									"type": "string[]"
								}
							],
							"internalType": "struct QUIZ1.Student[]",
							"name": "",
							"type": "tuple[]"
						}
					],
					"stateMutability": "view",
					"type": "function"
				},
				{
					"inputs": [],
					"name": "FClass2",
					"outputs": [
						{
							"internalType": "uint256",
							"name": "",
							"type": "uint256"
						},
						{
							"internalType": "uint256",
							"name": "",
							"type": "uint256"
						},
						{
							"components": [
								{
									"internalType": "string",
									"name": "name",
									"type": "string"
								},
								{
									"internalType": "uint256",
									"name": "number",
									"type": "uint256"
								},
								{
									"internalType": "uint256",
									"name": "score",
									"type": "uint256"
								},
								{
									"internalType": "string",
									"name": "credit",
									"type": "string"
								},
								{
									"internalType": "string[]",
									"name": "classes",
									"type": "string[]"
								}
							],
							"internalType": "struct QUIZ1.Student[]",
							"name": "",
							"type": "tuple[]"
						}
					],
					"stateMutability": "view",
					"type": "function"
				},
				{
					"inputs": [],
					"name": "SClass",
					"outputs": [
						{
							"components": [
								{
									"internalType": "string",
									"name": "name",
									"type": "string"
								},
								{
									"internalType": "uint256",
									"name": "number",
									"type": "uint256"
								},
								{
									"internalType": "uint256",
									"name": "score",
									"type": "uint256"
								},
								{
									"internalType": "string",
									"name": "credit",
									"type": "string"
								},
								{
									"internalType": "string[]",
									"name": "classes",
									"type": "string[]"
								}
							],
							"internalType": "struct QUIZ1.Student[]",
							"name": "",
							"type": "tuple[]"
						}
					],
					"stateMutability": "view",
					"type": "function"
				},
				{
					"inputs": [],
					"name": "getAllStudents",
					"outputs": [
						{
							"components": [
								{
									"internalType": "string",
									"name": "name",
									"type": "string"
								},
								{
									"internalType": "uint256",
									"name": "number",
									"type": "uint256"
								},
								{
									"internalType": "uint256",
									"name": "score",
									"type": "uint256"
								},
								{
									"internalType": "string",
									"name": "credit",
									"type": "string"
								},
								{
									"internalType": "string[]",
									"name": "classes",
									"type": "string[]"
								}
							],
							"internalType": "struct QUIZ1.Student[]",
							"name": "",
							"type": "tuple[]"
						}
					],
					"stateMutability": "view",
					"type": "function"
				},
				{
					"inputs": [],
					"name": "getAverage",
					"outputs": [
						{
							"internalType": "uint256",
							"name": "",
							"type": "uint256"
						}
					],
					"stateMutability": "view",
					"type": "function"
				},
				{
					"inputs": [
						{
							"internalType": "uint256",
							"name": "_number",
							"type": "uint256"
						}
					],
					"name": "getStudent",
					"outputs": [
						{
							"components": [
								{
									"internalType": "string",
									"name": "name",
									"type": "string"
								},
								{
									"internalType": "uint256",
									"name": "number",
									"type": "uint256"
								},
								{
									"internalType": "uint256",
									"name": "score",
									"type": "uint256"
								},
								{
									"internalType": "string",
									"name": "credit",
									"type": "string"
								},
								{
									"internalType": "string[]",
									"name": "classes",
									"type": "string[]"
								}
							],
							"internalType": "struct QUIZ1.Student",
							"name": "",
							"type": "tuple"
						}
					],
					"stateMutability": "view",
					"type": "function"
				},
				{
					"inputs": [
						{
							"internalType": "string",
							"name": "_name",
							"type": "string"
						}
					],
					"name": "getStudent2",
					"outputs": [
						{
							"components": [
								{
									"internalType": "string",
									"name": "name",
									"type": "string"
								},
								{
									"internalType": "uint256",
									"name": "number",
									"type": "uint256"
								},
								{
									"internalType": "uint256",
									"name": "score",
									"type": "uint256"
								},
								{
									"internalType": "string",
									"name": "credit",
									"type": "string"
								},
								{
									"internalType": "string[]",
									"name": "classes",
									"type": "string[]"
								}
							],
							"internalType": "struct QUIZ1.Student",
							"name": "",
							"type": "tuple"
						}
					],
					"stateMutability": "view",
					"type": "function"
				},
				{
					"inputs": [
						{
							"internalType": "string",
							"name": "_name",
							"type": "string"
						}
					],
					"name": "getStudentScore",
					"outputs": [
						{
							"internalType": "uint256",
							"name": "",
							"type": "uint256"
						}
					],
					"stateMutability": "view",
					"type": "function"
				},
				{
					"inputs": [],
					"name": "getStudentsNumber",
					"outputs": [
						{
							"internalType": "uint256",
							"name": "",
							"type": "uint256"
						}
					],
					"stateMutability": "view",
					"type": "function"
				},
				{
					"inputs": [
						{
							"internalType": "string",
							"name": "_name",
							"type": "string"
						},
						{
							"internalType": "uint256",
							"name": "_score",
							"type": "uint256"
						},
						{
							"internalType": "string[]",
							"name": "_classes",
							"type": "string[]"
						}
					],
					"name": "pushStudent",
					"outputs": [],
					"stateMutability": "nonpayable",
					"type": "function"
				},
				{
					"inputs": [],
					"name": "selfEva",
					"outputs": [
						{
							"internalType": "bool",
							"name": "",
							"type": "bool"
						}
					],
					"stateMutability": "view",
					"type": "function"
				},
				{
					"inputs": [
						{
							"internalType": "uint256",
							"name": "_score",
							"type": "uint256"
						}
					],
					"name": "setCredit",
					"outputs": [
						{
							"internalType": "string",
							"name": "",
							"type": "string"
						}
					],
					"stateMutability": "pure",
					"type": "function"
				}
			],
			"devdoc": {
				"kind": "dev",
				"methods": {},
				"version": 1
			},
			"evm": {
				"assembly": "    /* \"contracts-test/230511-test1-answer.sol\":63:5171  contract QUIZ1 {... */\n  mstore(0x40, 0x80)\n  callvalue\n  dup1\n  iszero\n  tag_1\n  jumpi\n  0x00\n  dup1\n  revert\ntag_1:\n  pop\n  dataSize(sub_0)\n  dup1\n  dataOffset(sub_0)\n  0x00\n  codecopy\n  0x00\n  return\nstop\n\nsub_0: assembly {\n        /* \"contracts-test/230511-test1-answer.sol\":63:5171  contract QUIZ1 {... */\n      mstore(0x40, 0x80)\n      callvalue\n      dup1\n      iszero\n      tag_1\n      jumpi\n      0x00\n      dup1\n      revert\n    tag_1:\n      pop\n      jumpi(tag_2, lt(calldatasize, 0x04))\n      shr(0xe0, calldataload(0x00))\n      dup1\n      0x95863d62\n      gt\n      tag_15\n      jumpi\n      dup1\n      0x95863d62\n      eq\n      tag_9\n      jumpi\n      dup1\n      0x9a2a5815\n      eq\n      tag_10\n      jumpi\n      dup1\n      0xd437d7ca\n      eq\n      tag_11\n      jumpi\n      dup1\n      0xe5521501\n      eq\n      tag_12\n      jumpi\n      dup1\n      0xe9e30927\n      eq\n      tag_13\n      jumpi\n      dup1\n      0xeac1d5b7\n      eq\n      tag_14\n      jumpi\n      jump(tag_2)\n    tag_15:\n      dup1\n      0x1cfd4566\n      eq\n      tag_3\n      jumpi\n      dup1\n      0x21055acb\n      eq\n      tag_4\n      jumpi\n      dup1\n      0x23abd657\n      eq\n      tag_5\n      jumpi\n      dup1\n      0x642f9163\n      eq\n      tag_6\n      jumpi\n      dup1\n      0x74aa6858\n      eq\n      tag_7\n      jumpi\n      dup1\n      0x75d073eb\n      eq\n      tag_8\n      jumpi\n    tag_2:\n      0x00\n      dup1\n      revert\n        /* \"contracts-test/230511-test1-answer.sol\":4598:5169  function SClass() public view returns(Student[] memory){... */\n    tag_3:\n      tag_16\n      tag_17\n      jump\t// in\n    tag_16:\n      mload(0x40)\n      tag_18\n      swap2\n      swap1\n      tag_19\n      jump\t// in\n    tag_18:\n      mload(0x40)\n      dup1\n      swap2\n      sub\n      swap1\n      return\n        /* \"contracts-test/230511-test1-answer.sol\":2583:2931  function getAverage() public view returns(uint) {... */\n    tag_4:\n      tag_20\n      tag_21\n      jump\t// in\n    tag_20:\n      mload(0x40)\n      tag_22\n      swap2\n      swap1\n      tag_23\n      jump\t// in\n    tag_22:\n      mload(0x40)\n      dup1\n      swap2\n      sub\n      swap1\n      return\n        /* \"contracts-test/230511-test1-answer.sol\":3944:4592  function FClass2() public view returns(/*Student[] memory*/ uint, uint, Student[] memory) {... */\n    tag_5:\n      tag_24\n      tag_25\n      jump\t// in\n    tag_24:\n      mload(0x40)\n      tag_26\n      swap4\n      swap3\n      swap2\n      swap1\n      tag_27\n      jump\t// in\n    tag_26:\n      mload(0x40)\n      dup1\n      swap2\n      sub\n      swap1\n      return\n        /* \"contracts-test/230511-test1-answer.sol\":1842:1955  function getStudent(uint _number) public view returns(Student memory) {... */\n    tag_6:\n      tag_28\n      0x04\n      dup1\n      calldatasize\n      sub\n      dup2\n      add\n      swap1\n      tag_29\n      swap2\n      swap1\n      tag_30\n      jump\t// in\n    tag_29:\n      tag_31\n      jump\t// in\n    tag_28:\n      mload(0x40)\n      tag_32\n      swap2\n      swap1\n      tag_33\n      jump\t// in\n    tag_32:\n      mload(0x40)\n      dup1\n      swap2\n      sub\n      swap1\n      return\n        /* \"contracts-test/230511-test1-answer.sol\":1031:1333  function pushStudent(string memory _name, uint _score, string[] memory _classes) public {... */\n    tag_7:\n      tag_34\n      0x04\n      dup1\n      calldatasize\n      sub\n      dup2\n      add\n      swap1\n      tag_35\n      swap2\n      swap1\n      tag_36\n      jump\t// in\n    tag_35:\n      tag_37\n      jump\t// in\n    tag_34:\n      stop\n        /* \"contracts-test/230511-test1-answer.sol\":3347:3938  function FClass() public view returns(uint, Student[] memory) {... */\n    tag_8:\n      tag_38\n      tag_39\n      jump\t// in\n    tag_38:\n      mload(0x40)\n      tag_40\n      swap3\n      swap2\n      swap1\n      tag_41\n      jump\t// in\n    tag_40:\n      mload(0x40)\n      dup1\n      swap2\n      sub\n      swap1\n      return\n        /* \"contracts-test/230511-test1-answer.sol\":2116:2237  function getStudent2(string memory _name) public view returns(Student memory) {... */\n    tag_9:\n      tag_42\n      0x04\n      dup1\n      calldatasize\n      sub\n      dup2\n      add\n      swap1\n      tag_43\n      swap2\n      swap1\n      tag_44\n      jump\t// in\n    tag_43:\n      tag_45\n      jump\t// in\n    tag_42:\n      mload(0x40)\n      tag_46\n      swap2\n      swap1\n      tag_33\n      jump\t// in\n    tag_46:\n      mload(0x40)\n      dup1\n      swap2\n      sub\n      swap1\n      return\n        /* \"contracts-test/230511-test1-answer.sol\":3074:3236  function selfEva() public view returns(bool) {... */\n    tag_10:\n      tag_47\n      tag_48\n      jump\t// in\n    tag_47:\n      mload(0x40)\n      tag_49\n      swap2\n      swap1\n      tag_50\n      jump\t// in\n    tag_49:\n      mload(0x40)\n      dup1\n      swap2\n      sub\n      swap1\n      return\n        /* \"contracts-test/230511-test1-answer.sol\":1431:1525  function getStudentsNumber() public view returns(uint) {... */\n    tag_11:\n      tag_51\n      tag_52\n      jump\t// in\n    tag_51:\n      mload(0x40)\n      tag_53\n      swap2\n      swap1\n      tag_23\n      jump\t// in\n    tag_53:\n      mload(0x40)\n      dup1\n      swap2\n      sub\n      swap1\n      return\n        /* \"contracts-test/230511-test1-answer.sol\":2353:2474  function getStudentScore(string memory _name) public view returns(uint) {... */\n    tag_12:\n      tag_54\n      0x04\n      dup1\n      calldatasize\n      sub\n      dup2\n      add\n      swap1\n      tag_55\n      swap2\n      swap1\n      tag_44\n      jump\t// in\n    tag_55:\n      tag_56\n      jump\t// in\n    tag_54:\n      mload(0x40)\n      tag_57\n      swap2\n      swap1\n      tag_23\n      jump\t// in\n    tag_57:\n      mload(0x40)\n      dup1\n      swap2\n      sub\n      swap1\n      return\n        /* \"contracts-test/230511-test1-answer.sol\":1630:1726  function getAllStudents() public view returns(Student[] memory) {... */\n    tag_13:\n      tag_58\n      tag_59\n      jump\t// in\n    tag_58:\n      mload(0x40)\n      tag_60\n      swap2\n      swap1\n      tag_19\n      jump\t// in\n    tag_60:\n      mload(0x40)\n      dup1\n      swap2\n      sub\n      swap1\n      return\n        /* \"contracts-test/230511-test1-answer.sol\":507:851  function setCredit(uint _score) public pure returns(string memory) {... */\n    tag_14:\n      tag_61\n      0x04\n      dup1\n      calldatasize\n      sub\n      dup2\n      add\n      swap1\n      tag_62\n      swap2\n      swap1\n      tag_30\n      jump\t// in\n    tag_62:\n      tag_63\n      jump\t// in\n    tag_61:\n      mload(0x40)\n      tag_64\n      swap2\n      swap1\n      tag_65\n      jump\t// in\n    tag_64:\n      mload(0x40)\n      dup1\n      swap2\n      sub\n      swap1\n      return\n        /* \"contracts-test/230511-test1-answer.sol\":4598:5169  function SClass() public view returns(Student[] memory){... */\n    tag_17:\n        /* \"contracts-test/230511-test1-answer.sol\":4636:4652  Student[] memory */\n      0x60\n        /* \"contracts-test/230511-test1-answer.sol\":4663:4690  Student[] memory S_Students */\n      0x00\n        /* \"contracts-test/230511-test1-answer.sol\":4693:4701  students */\n      dup1\n        /* \"contracts-test/230511-test1-answer.sol\":4663:4701  Student[] memory S_Students = students */\n      dup1\n      sload\n      dup1\n      0x20\n      mul\n      0x20\n      add\n      mload(0x40)\n      swap1\n      dup2\n      add\n      0x40\n      mstore\n      dup1\n      swap3\n      swap2\n      swap1\n      dup2\n      dup2\n      mstore\n      0x20\n      add\n      0x00\n      swap1\n    tag_67:\n      dup3\n      dup3\n      lt\n      iszero\n      tag_68\n      jumpi\n      dup4\n      dup3\n      swap1\n      0x00\n      mstore\n      keccak256(0x00, 0x20)\n      swap1\n      0x05\n      mul\n      add\n      mload(0x40)\n      dup1\n      0xa0\n      add\n      0x40\n      mstore\n      swap1\n      dup2\n      0x00\n      dup3\n      add\n      dup1\n      sload\n      tag_70\n      swap1\n      tag_71\n      jump\t// in\n    tag_70:\n      dup1\n      0x1f\n      add\n      0x20\n      dup1\n      swap2\n      div\n      mul\n      0x20\n      add\n      mload(0x40)\n      swap1\n      dup2\n      add\n      0x40\n      mstore\n      dup1\n      swap3\n      swap2\n      swap1\n      dup2\n      dup2\n      mstore\n      0x20\n      add\n      dup3\n      dup1\n      sload\n      tag_72\n      swap1\n      tag_71\n      jump\t// in\n    tag_72:\n      dup1\n      iszero\n      tag_73\n      jumpi\n      dup1\n      0x1f\n      lt\n      tag_74\n      jumpi\n      0x0100\n      dup1\n      dup4\n      sload\n      div\n      mul\n      dup4\n      mstore\n      swap2\n      0x20\n      add\n      swap2\n      jump(tag_73)\n    tag_74:\n      dup3\n      add\n      swap2\n      swap1\n      0x00\n      mstore\n      keccak256(0x00, 0x20)\n      swap1\n    tag_75:\n      dup2\n      sload\n      dup2\n      mstore\n      swap1\n      0x01\n      add\n      swap1\n      0x20\n      add\n      dup1\n      dup4\n      gt\n      tag_75\n      jumpi\n      dup3\n      swap1\n      sub\n      0x1f\n      and\n      dup3\n      add\n      swap2\n    tag_73:\n      pop\n      pop\n      pop\n      pop\n      pop\n      dup2\n      mstore\n      0x20\n      add\n      0x01\n      dup3\n      add\n      sload\n      dup2\n      mstore\n      0x20\n      add\n      0x02\n      dup3\n      add\n      sload\n      dup2\n      mstore\n      0x20\n      add\n      0x03\n      dup3\n      add\n      dup1\n      sload\n      tag_76\n      swap1\n      tag_71\n      jump\t// in\n    tag_76:\n      dup1\n      0x1f\n      add\n      0x20\n      dup1\n      swap2\n      div\n      mul\n      0x20\n      add\n      mload(0x40)\n      swap1\n      dup2\n      add\n      0x40\n      mstore\n      dup1\n      swap3\n      swap2\n      swap1\n      dup2\n      dup2\n      mstore\n      0x20\n      add\n      dup3\n      dup1\n      sload\n      tag_77\n      swap1\n      tag_71\n      jump\t// in\n    tag_77:\n      dup1\n      iszero\n      tag_78\n      jumpi\n      dup1\n      0x1f\n      lt\n      tag_79\n      jumpi\n      0x0100\n      dup1\n      dup4\n      sload\n      div\n      mul\n      dup4\n      mstore\n      swap2\n      0x20\n      add\n      swap2\n      jump(tag_78)\n    tag_79:\n      dup3\n      add\n      swap2\n      swap1\n      0x00\n      mstore\n      keccak256(0x00, 0x20)\n      swap1\n    tag_80:\n      dup2\n      sload\n      dup2\n      mstore\n      swap1\n      0x01\n      add\n      swap1\n      0x20\n      add\n      dup1\n      dup4\n      gt\n      tag_80\n      jumpi\n      dup3\n      swap1\n      sub\n      0x1f\n      and\n      dup3\n      add\n      swap2\n    tag_78:\n      pop\n      pop\n      pop\n      pop\n      pop\n      dup2\n      mstore\n      0x20\n      add\n      0x04\n      dup3\n      add\n      dup1\n      sload\n      dup1\n      0x20\n      mul\n      0x20\n      add\n      mload(0x40)\n      swap1\n      dup2\n      add\n      0x40\n      mstore\n      dup1\n      swap3\n      swap2\n      swap1\n      dup2\n      dup2\n      mstore\n      0x20\n      add\n      0x00\n      swap1\n    tag_81:\n      dup3\n      dup3\n      lt\n      iszero\n      tag_82\n      jumpi\n      dup4\n      dup3\n      swap1\n      0x00\n      mstore\n      keccak256(0x00, 0x20)\n      add\n      dup1\n      sload\n      tag_84\n      swap1\n      tag_71\n      jump\t// in\n    tag_84:\n      dup1\n      0x1f\n      add\n      0x20\n      dup1\n      swap2\n      div\n      mul\n      0x20\n      add\n      mload(0x40)\n      swap1\n      dup2\n      add\n      0x40\n      mstore\n      dup1\n      swap3\n      swap2\n      swap1\n      dup2\n      dup2\n      mstore\n      0x20\n      add\n      dup3\n      dup1\n      sload\n      tag_85\n      swap1\n      tag_71\n      jump\t// in\n    tag_85:\n      dup1\n      iszero\n      tag_86\n      jumpi\n      dup1\n      0x1f\n      lt\n      tag_87\n      jumpi\n      0x0100\n      dup1\n      dup4\n      sload\n      div\n      mul\n      dup4\n      mstore\n      swap2\n      0x20\n      add\n      swap2\n      jump(tag_86)\n    tag_87:\n      dup3\n      add\n      swap2\n      swap1\n      0x00\n      mstore\n      keccak256(0x00, 0x20)\n      swap1\n    tag_88:\n      dup2\n      sload\n      dup2\n      mstore\n      swap1\n      0x01\n      add\n      swap1\n      0x20\n      add\n      dup1\n      dup4\n      gt\n      tag_88\n      jumpi\n      dup3\n      swap1\n      sub\n      0x1f\n      and\n      dup3\n      add\n      swap2\n    tag_86:\n      pop\n      pop\n      pop\n      pop\n      pop\n      dup2\n      mstore\n      0x20\n      add\n      swap1\n      0x01\n      add\n      swap1\n      jump(tag_81)\n    tag_82:\n      pop\n      pop\n      pop\n      pop\n      dup2\n      mstore\n      pop\n      pop\n      dup2\n      mstore\n      0x20\n      add\n      swap1\n      0x01\n      add\n      swap1\n      jump(tag_67)\n    tag_68:\n      pop\n      pop\n      pop\n      pop\n      swap1\n      pop\n        /* \"contracts-test/230511-test1-answer.sol\":4711:4735  Student[] memory S_Class */\n      0x00\n        /* \"contracts-test/230511-test1-answer.sol\":4752:4753  4 */\n      0x04\n        /* \"contracts-test/230511-test1-answer.sol\":4738:4754  new Student[](4) */\n      0xffffffffffffffff\n      dup2\n      gt\n      iszero\n      tag_89\n      jumpi\n      tag_90\n      tag_91\n      jump\t// in\n    tag_90:\n    tag_89:\n      mload(0x40)\n      swap1\n      dup1\n      dup3\n      mstore\n      dup1\n      0x20\n      mul\n      0x20\n      add\n      dup3\n      add\n      0x40\n      mstore\n      dup1\n      iszero\n      tag_92\n      jumpi\n      dup2\n      0x20\n      add\n    tag_93:\n      tag_94\n      tag_95\n      jump\t// in\n    tag_94:\n      dup2\n      mstore\n      0x20\n      add\n      swap1\n      0x01\n      swap1\n      sub\n      swap1\n      dup2\n      tag_93\n      jumpi\n      swap1\n      pop\n    tag_92:\n      pop\n        /* \"contracts-test/230511-test1-answer.sol\":4711:4754  Student[] memory S_Class = new Student[](4) */\n      swap1\n      pop\n        /* \"contracts-test/230511-test1-answer.sol\":4769:4775  uint i */\n      0x00\n        /* \"contracts-test/230511-test1-answer.sol\":4765:5053  for(uint i=0;i<S_Students.length-1;i++) {... */\n    tag_96:\n        /* \"contracts-test/230511-test1-answer.sol\":4798:4799  1 */\n      0x01\n        /* \"contracts-test/230511-test1-answer.sol\":4780:4790  S_Students */\n      dup4\n        /* \"contracts-test/230511-test1-answer.sol\":4780:4797  S_Students.length */\n      mload\n        /* \"contracts-test/230511-test1-answer.sol\":4780:4799  S_Students.length-1 */\n      tag_99\n      swap2\n      swap1\n      tag_100\n      jump\t// in\n    tag_99:\n        /* \"contracts-test/230511-test1-answer.sol\":4778:4779  i */\n      dup2\n        /* \"contracts-test/230511-test1-answer.sol\":4778:4799  i<S_Students.length-1 */\n      lt\n        /* \"contracts-test/230511-test1-answer.sol\":4765:5053  for(uint i=0;i<S_Students.length-1;i++) {... */\n      iszero\n      tag_97\n      jumpi\n        /* \"contracts-test/230511-test1-answer.sol\":4823:4829  uint j */\n      0x00\n        /* \"contracts-test/230511-test1-answer.sol\":4832:4833  1 */\n      0x01\n        /* \"contracts-test/230511-test1-answer.sol\":4830:4831  i */\n      dup3\n        /* \"contracts-test/230511-test1-answer.sol\":4830:4833  i+1 */\n      tag_104\n      swap2\n      swap1\n      tag_105\n      jump\t// in\n    tag_104:\n        /* \"contracts-test/230511-test1-answer.sol\":4823:4833  uint j=i+1 */\n      swap1\n      pop\n        /* \"contracts-test/230511-test1-answer.sol\":4819:5043  for(uint j=i+1; j<S_Students.length ;j++) {... */\n    tag_101:\n        /* \"contracts-test/230511-test1-answer.sol\":4837:4847  S_Students */\n      dup4\n        /* \"contracts-test/230511-test1-answer.sol\":4837:4854  S_Students.length */\n      mload\n        /* \"contracts-test/230511-test1-answer.sol\":4835:4836  j */\n      dup2\n        /* \"contracts-test/230511-test1-answer.sol\":4835:4854  j<S_Students.length */\n      lt\n        /* \"contracts-test/230511-test1-answer.sol\":4819:5043  for(uint j=i+1; j<S_Students.length ;j++) {... */\n      iszero\n      tag_102\n      jumpi\n        /* \"contracts-test/230511-test1-answer.sol\":4904:4914  S_Students */\n      dup4\n        /* \"contracts-test/230511-test1-answer.sol\":4915:4916  j */\n      dup2\n        /* \"contracts-test/230511-test1-answer.sol\":4904:4917  S_Students[j] */\n      dup2\n      mload\n      dup2\n      lt\n      tag_106\n      jumpi\n      tag_107\n      tag_108\n      jump\t// in\n    tag_107:\n    tag_106:\n      0x20\n      mul\n      0x20\n      add\n      add\n      mload\n        /* \"contracts-test/230511-test1-answer.sol\":4904:4923  S_Students[j].score */\n      0x40\n      add\n      mload\n        /* \"contracts-test/230511-test1-answer.sol\":4882:4892  S_Students */\n      dup5\n        /* \"contracts-test/230511-test1-answer.sol\":4893:4894  i */\n      dup4\n        /* \"contracts-test/230511-test1-answer.sol\":4882:4895  S_Students[i] */\n      dup2\n      mload\n      dup2\n      lt\n      tag_109\n      jumpi\n      tag_110\n      tag_108\n      jump\t// in\n    tag_110:\n    tag_109:\n      0x20\n      mul\n      0x20\n      add\n      add\n      mload\n        /* \"contracts-test/230511-test1-answer.sol\":4882:4901  S_Students[i].score */\n      0x40\n      add\n      mload\n        /* \"contracts-test/230511-test1-answer.sol\":4882:4923  S_Students[i].score < S_Students[j].score */\n      lt\n        /* \"contracts-test/230511-test1-answer.sol\":4879:5029  if(S_Students[i].score < S_Students[j].score) {... */\n      iszero\n      tag_111\n      jumpi\n        /* \"contracts-test/230511-test1-answer.sol\":4981:4991  S_Students */\n      dup4\n        /* \"contracts-test/230511-test1-answer.sol\":4992:4993  j */\n      dup2\n        /* \"contracts-test/230511-test1-answer.sol\":4981:4994  S_Students[j] */\n      dup2\n      mload\n      dup2\n      lt\n      tag_112\n      jumpi\n      tag_113\n      tag_108\n      jump\t// in\n    tag_113:\n    tag_112:\n      0x20\n      mul\n      0x20\n      add\n      add\n      mload\n        /* \"contracts-test/230511-test1-answer.sol\":4996:5006  S_Students */\n      dup5\n        /* \"contracts-test/230511-test1-answer.sol\":5007:5008  i */\n      dup4\n        /* \"contracts-test/230511-test1-answer.sol\":4996:5009  S_Students[i] */\n      dup2\n      mload\n      dup2\n      lt\n      tag_114\n      jumpi\n      tag_115\n      tag_108\n      jump\t// in\n    tag_115:\n    tag_114:\n      0x20\n      mul\n      0x20\n      add\n      add\n      mload\n        /* \"contracts-test/230511-test1-answer.sol\":4948:4958  S_Students */\n      dup6\n        /* \"contracts-test/230511-test1-answer.sol\":4959:4960  i */\n      dup5\n        /* \"contracts-test/230511-test1-answer.sol\":4948:4961  S_Students[i] */\n      dup2\n      mload\n      dup2\n      lt\n      tag_116\n      jumpi\n      tag_117\n      tag_108\n      jump\t// in\n    tag_117:\n    tag_116:\n      0x20\n      mul\n      0x20\n      add\n      add\n        /* \"contracts-test/230511-test1-answer.sol\":4963:4973  S_Students */\n      dup7\n        /* \"contracts-test/230511-test1-answer.sol\":4974:4975  j */\n      dup5\n        /* \"contracts-test/230511-test1-answer.sol\":4963:4976  S_Students[j] */\n      dup2\n      mload\n      dup2\n      lt\n      tag_118\n      jumpi\n      tag_119\n      tag_108\n      jump\t// in\n    tag_119:\n    tag_118:\n      0x20\n      mul\n      0x20\n      add\n      add\n        /* \"contracts-test/230511-test1-answer.sol\":4947:5010  (S_Students[i], S_Students[j]) = (S_Students[j], S_Students[i]) */\n      dup3\n      swap1\n      mstore\n      dup3\n      swap1\n      mstore\n      pop\n      pop\n        /* \"contracts-test/230511-test1-answer.sol\":4879:5029  if(S_Students[i].score < S_Students[j].score) {... */\n    tag_111:\n        /* \"contracts-test/230511-test1-answer.sol\":4856:4859  j++ */\n      dup1\n      dup1\n      tag_120\n      swap1\n      tag_121\n      jump\t// in\n    tag_120:\n      swap2\n      pop\n      pop\n        /* \"contracts-test/230511-test1-answer.sol\":4819:5043  for(uint j=i+1; j<S_Students.length ;j++) {... */\n      jump(tag_101)\n    tag_102:\n      pop\n        /* \"contracts-test/230511-test1-answer.sol\":4800:4803  i++ */\n      dup1\n      dup1\n      tag_122\n      swap1\n      tag_121\n      jump\t// in\n    tag_122:\n      swap2\n      pop\n      pop\n        /* \"contracts-test/230511-test1-answer.sol\":4765:5053  for(uint i=0;i<S_Students.length-1;i++) {... */\n      jump(tag_96)\n    tag_97:\n      pop\n        /* \"contracts-test/230511-test1-answer.sol\":5067:5073  uint i */\n      0x00\n        /* \"contracts-test/230511-test1-answer.sol\":5063:5138  for(uint i=0; i<4; i++) {... */\n    tag_123:\n        /* \"contracts-test/230511-test1-answer.sol\":5079:5080  4 */\n      0x04\n        /* \"contracts-test/230511-test1-answer.sol\":5077:5078  i */\n      dup2\n        /* \"contracts-test/230511-test1-answer.sol\":5077:5080  i<4 */\n      lt\n        /* \"contracts-test/230511-test1-answer.sol\":5063:5138  for(uint i=0; i<4; i++) {... */\n      iszero\n      tag_124\n      jumpi\n        /* \"contracts-test/230511-test1-answer.sol\":5114:5124  S_Students */\n      dup3\n        /* \"contracts-test/230511-test1-answer.sol\":5125:5126  i */\n      dup2\n        /* \"contracts-test/230511-test1-answer.sol\":5114:5127  S_Students[i] */\n      dup2\n      mload\n      dup2\n      lt\n      tag_126\n      jumpi\n      tag_127\n      tag_108\n      jump\t// in\n    tag_127:\n    tag_126:\n      0x20\n      mul\n      0x20\n      add\n      add\n      mload\n        /* \"contracts-test/230511-test1-answer.sol\":5101:5108  S_Class */\n      dup3\n        /* \"contracts-test/230511-test1-answer.sol\":5109:5110  i */\n      dup3\n        /* \"contracts-test/230511-test1-answer.sol\":5101:5111  S_Class[i] */\n      dup2\n      mload\n      dup2\n      lt\n      tag_128\n      jumpi\n      tag_129\n      tag_108\n      jump\t// in\n    tag_129:\n    tag_128:\n      0x20\n      mul\n      0x20\n      add\n      add\n        /* \"contracts-test/230511-test1-answer.sol\":5101:5127  S_Class[i] = S_Students[i] */\n      dup2\n      swap1\n      mstore\n      pop\n        /* \"contracts-test/230511-test1-answer.sol\":5082:5085  i++ */\n      dup1\n      dup1\n      tag_130\n      swap1\n      tag_121\n      jump\t// in\n    tag_130:\n      swap2\n      pop\n      pop\n        /* \"contracts-test/230511-test1-answer.sol\":5063:5138  for(uint i=0; i<4; i++) {... */\n      jump(tag_123)\n    tag_124:\n      pop\n        /* \"contracts-test/230511-test1-answer.sol\":5155:5162  S_Class */\n      dup1\n        /* \"contracts-test/230511-test1-answer.sol\":5148:5162  return S_Class */\n      swap3\n      pop\n      pop\n      pop\n        /* \"contracts-test/230511-test1-answer.sol\":4598:5169  function SClass() public view returns(Student[] memory){... */\n      swap1\n      jump\t// out\n        /* \"contracts-test/230511-test1-answer.sol\":2583:2931  function getAverage() public view returns(uint) {... */\n    tag_21:\n        /* \"contracts-test/230511-test1-answer.sol\":2625:2629  uint */\n      0x00\n        /* \"contracts-test/230511-test1-answer.sol\":2641:2656  uint totalScore */\n      dup1\n        /* \"contracts-test/230511-test1-answer.sol\":2670:2676  uint i */\n      0x00\n        /* \"contracts-test/230511-test1-answer.sol\":2666:2807  for(uint i=0; i<students.length; i++) {... */\n    tag_132:\n        /* \"contracts-test/230511-test1-answer.sol\":2682:2690  students */\n      0x00\n        /* \"contracts-test/230511-test1-answer.sol\":2682:2697  students.length */\n      dup1\n      sload\n      swap1\n      pop\n        /* \"contracts-test/230511-test1-answer.sol\":2680:2681  i */\n      dup2\n        /* \"contracts-test/230511-test1-answer.sol\":2680:2697  i<students.length */\n      lt\n        /* \"contracts-test/230511-test1-answer.sol\":2666:2807  for(uint i=0; i<students.length; i++) {... */\n      iszero\n      tag_133\n      jumpi\n        /* \"contracts-test/230511-test1-answer.sol\":2744:2752  students */\n      0x00\n        /* \"contracts-test/230511-test1-answer.sol\":2753:2754  i */\n      dup2\n        /* \"contracts-test/230511-test1-answer.sol\":2744:2755  students[i] */\n      dup2\n      sload\n      dup2\n      lt\n      tag_135\n      jumpi\n      tag_136\n      tag_108\n      jump\t// in\n    tag_136:\n    tag_135:\n      swap1\n      0x00\n      mstore\n      keccak256(0x00, 0x20)\n      swap1\n      0x05\n      mul\n      add\n        /* \"contracts-test/230511-test1-answer.sol\":2744:2761  students[i].score */\n      0x02\n      add\n      sload\n        /* \"contracts-test/230511-test1-answer.sol\":2731:2741  totalScore */\n      dup3\n        /* \"contracts-test/230511-test1-answer.sol\":2731:2761  totalScore + students[i].score */\n      tag_138\n      swap2\n      swap1\n      tag_105\n      jump\t// in\n    tag_138:\n        /* \"contracts-test/230511-test1-answer.sol\":2718:2761  totalScore = totalScore + students[i].score */\n      swap2\n      pop\n        /* \"contracts-test/230511-test1-answer.sol\":2699:2702  i++ */\n      dup1\n      dup1\n      tag_139\n      swap1\n      tag_121\n      jump\t// in\n    tag_139:\n      swap2\n      pop\n      pop\n        /* \"contracts-test/230511-test1-answer.sol\":2666:2807  for(uint i=0; i<students.length; i++) {... */\n      jump(tag_132)\n    tag_133:\n      pop\n        /* \"contracts-test/230511-test1-answer.sol\":2837:2845  students */\n      0x00\n        /* \"contracts-test/230511-test1-answer.sol\":2837:2852  students.length */\n      dup1\n      sload\n      swap1\n      pop\n        /* \"contracts-test/230511-test1-answer.sol\":2824:2834  totalScore */\n      dup2\n        /* \"contracts-test/230511-test1-answer.sol\":2824:2852  totalScore / students.length */\n      tag_140\n      swap2\n      swap1\n      tag_141\n      jump\t// in\n    tag_140:\n        /* \"contracts-test/230511-test1-answer.sol\":2817:2852  return totalScore / students.length */\n      swap2\n      pop\n      pop\n        /* \"contracts-test/230511-test1-answer.sol\":2583:2931  function getAverage() public view returns(uint) {... */\n      swap1\n      jump\t// out\n        /* \"contracts-test/230511-test1-answer.sol\":3944:4592  function FClass2() public view returns(/*Student[] memory*/ uint, uint, Student[] memory) {... */\n    tag_25:\n        /* \"contracts-test/230511-test1-answer.sol\":4004:4008  uint */\n      0x00\n        /* \"contracts-test/230511-test1-answer.sol\":4010:4014  uint */\n      dup1\n        /* \"contracts-test/230511-test1-answer.sol\":4016:4032  Student[] memory */\n      0x60\n        /* \"contracts-test/230511-test1-answer.sol\":4044:4071  Student[] memory F_Students */\n      0x00\n        /* \"contracts-test/230511-test1-answer.sol\":4074:4082  students */\n      dup1\n        /* \"contracts-test/230511-test1-answer.sol\":4044:4082  Student[] memory F_Students = students */\n      dup1\n      sload\n      dup1\n      0x20\n      mul\n      0x20\n      add\n      mload(0x40)\n      swap1\n      dup2\n      add\n      0x40\n      mstore\n      dup1\n      swap3\n      swap2\n      swap1\n      dup2\n      dup2\n      mstore\n      0x20\n      add\n      0x00\n      swap1\n    tag_143:\n      dup3\n      dup3\n      lt\n      iszero\n      tag_144\n      jumpi\n      dup4\n      dup3\n      swap1\n      0x00\n      mstore\n      keccak256(0x00, 0x20)\n      swap1\n      0x05\n      mul\n      add\n      mload(0x40)\n      dup1\n      0xa0\n      add\n      0x40\n      mstore\n      swap1\n      dup2\n      0x00\n      dup3\n      add\n      dup1\n      sload\n      tag_146\n      swap1\n      tag_71\n      jump\t// in\n    tag_146:\n      dup1\n      0x1f\n      add\n      0x20\n      dup1\n      swap2\n      div\n      mul\n      0x20\n      add\n      mload(0x40)\n      swap1\n      dup2\n      add\n      0x40\n      mstore\n      dup1\n      swap3\n      swap2\n      swap1\n      dup2\n      dup2\n      mstore\n      0x20\n      add\n      dup3\n      dup1\n      sload\n      tag_147\n      swap1\n      tag_71\n      jump\t// in\n    tag_147:\n      dup1\n      iszero\n      tag_148\n      jumpi\n      dup1\n      0x1f\n      lt\n      tag_149\n      jumpi\n      0x0100\n      dup1\n      dup4\n      sload\n      div\n      mul\n      dup4\n      mstore\n      swap2\n      0x20\n      add\n      swap2\n      jump(tag_148)\n    tag_149:\n      dup3\n      add\n      swap2\n      swap1\n      0x00\n      mstore\n      keccak256(0x00, 0x20)\n      swap1\n    tag_150:\n      dup2\n      sload\n      dup2\n      mstore\n      swap1\n      0x01\n      add\n      swap1\n      0x20\n      add\n      dup1\n      dup4\n      gt\n      tag_150\n      jumpi\n      dup3\n      swap1\n      sub\n      0x1f\n      and\n      dup3\n      add\n      swap2\n    tag_148:\n      pop\n      pop\n      pop\n      pop\n      pop\n      dup2\n      mstore\n      0x20\n      add\n      0x01\n      dup3\n      add\n      sload\n      dup2\n      mstore\n      0x20\n      add\n      0x02\n      dup3\n      add\n      sload\n      dup2\n      mstore\n      0x20\n      add\n      0x03\n      dup3\n      add\n      dup1\n      sload\n      tag_151\n      swap1\n      tag_71\n      jump\t// in\n    tag_151:\n      dup1\n      0x1f\n      add\n      0x20\n      dup1\n      swap2\n      div\n      mul\n      0x20\n      add\n      mload(0x40)\n      swap1\n      dup2\n      add\n      0x40\n      mstore\n      dup1\n      swap3\n      swap2\n      swap1\n      dup2\n      dup2\n      mstore\n      0x20\n      add\n      dup3\n      dup1\n      sload\n      tag_152\n      swap1\n      tag_71\n      jump\t// in\n    tag_152:\n      dup1\n      iszero\n      tag_153\n      jumpi\n      dup1\n      0x1f\n      lt\n      tag_154\n      jumpi\n      0x0100\n      dup1\n      dup4\n      sload\n      div\n      mul\n      dup4\n      mstore\n      swap2\n      0x20\n      add\n      swap2\n      jump(tag_153)\n    tag_154:\n      dup3\n      add\n      swap2\n      swap1\n      0x00\n      mstore\n      keccak256(0x00, 0x20)\n      swap1\n    tag_155:\n      dup2\n      sload\n      dup2\n      mstore\n      swap1\n      0x01\n      add\n      swap1\n      0x20\n      add\n      dup1\n      dup4\n      gt\n      tag_155\n      jumpi\n      dup3\n      swap1\n      sub\n      0x1f\n      and\n      dup3\n      add\n      swap2\n    tag_153:\n      pop\n      pop\n      pop\n      pop\n      pop\n      dup2\n      mstore\n      0x20\n      add\n      0x04\n      dup3\n      add\n      dup1\n      sload\n      dup1\n      0x20\n      mul\n      0x20\n      add\n      mload(0x40)\n      swap1\n      dup2\n      add\n      0x40\n      mstore\n      dup1\n      swap3\n      swap2\n      swap1\n      dup2\n      dup2\n      mstore\n      0x20\n      add\n      0x00\n      swap1\n    tag_156:\n      dup3\n      dup3\n      lt\n      iszero\n      tag_157\n      jumpi\n      dup4\n      dup3\n      swap1\n      0x00\n      mstore\n      keccak256(0x00, 0x20)\n      add\n      dup1\n      sload\n      tag_159\n      swap1\n      tag_71\n      jump\t// in\n    tag_159:\n      dup1\n      0x1f\n      add\n      0x20\n      dup1\n      swap2\n      div\n      mul\n      0x20\n      add\n      mload(0x40)\n      swap1\n      dup2\n      add\n      0x40\n      mstore\n      dup1\n      swap3\n      swap2\n      swap1\n      dup2\n      dup2\n      mstore\n      0x20\n      add\n      dup3\n      dup1\n      sload\n      tag_160\n      swap1\n      tag_71\n      jump\t// in\n    tag_160:\n      dup1\n      iszero\n      tag_161\n      jumpi\n      dup1\n      0x1f\n      lt\n      tag_162\n      jumpi\n      0x0100\n      dup1\n      dup4\n      sload\n      div\n      mul\n      dup4\n      mstore\n      swap2\n      0x20\n      add\n      swap2\n      jump(tag_161)\n    tag_162:\n      dup3\n      add\n      swap2\n      swap1\n      0x00\n      mstore\n      keccak256(0x00, 0x20)\n      swap1\n    tag_163:\n      dup2\n      sload\n      dup2\n      mstore\n      swap1\n      0x01\n      add\n      swap1\n      0x20\n      add\n      dup1\n      dup4\n      gt\n      tag_163\n      jumpi\n      dup3\n      swap1\n      sub\n      0x1f\n      and\n      dup3\n      add\n      swap2\n    tag_161:\n      pop\n      pop\n      pop\n      pop\n      pop\n      dup2\n      mstore\n      0x20\n      add\n      swap1\n      0x01\n      add\n      swap1\n      jump(tag_156)\n    tag_157:\n      pop\n      pop\n      pop\n      pop\n      dup2\n      mstore\n      pop\n      pop\n      dup2\n      mstore\n      0x20\n      add\n      swap1\n      0x01\n      add\n      swap1\n      jump(tag_143)\n    tag_144:\n      pop\n      pop\n      pop\n      pop\n      swap1\n      pop\n        /* \"contracts-test/230511-test1-answer.sol\":4092:4118  Student[] memory F_Storage */\n      0x60\n        /* \"contracts-test/230511-test1-answer.sol\":4129:4139  uint count */\n      0x00\n        /* \"contracts-test/230511-test1-answer.sol\":4154:4160  uint i */\n      dup1\n        /* \"contracts-test/230511-test1-answer.sol\":4161:4162  0 */\n      0x00\n        /* \"contracts-test/230511-test1-answer.sol\":4154:4162  uint i=0 */\n      swap1\n      pop\n        /* \"contracts-test/230511-test1-answer.sol\":4150:4533  for(uint i=0; i<students.length; i++) {... */\n    tag_164:\n        /* \"contracts-test/230511-test1-answer.sol\":4166:4174  students */\n      0x00\n        /* \"contracts-test/230511-test1-answer.sol\":4166:4181  students.length */\n      dup1\n      sload\n      swap1\n      pop\n        /* \"contracts-test/230511-test1-answer.sol\":4164:4165  i */\n      dup2\n        /* \"contracts-test/230511-test1-answer.sol\":4164:4181  i<students.length */\n      lt\n        /* \"contracts-test/230511-test1-answer.sol\":4150:4533  for(uint i=0; i<students.length; i++) {... */\n      iszero\n      tag_165\n      jumpi\n        /* \"contracts-test/230511-test1-answer.sol\":4255:4265  bytes(\"F\") */\n      mload(0x40)\n      dup1\n      0x40\n      add\n      0x40\n      mstore\n      dup1\n      0x01\n      dup2\n      mstore\n      0x20\n      add\n      0x4600000000000000000000000000000000000000000000000000000000000000\n      dup2\n      mstore\n      pop\n        /* \"contracts-test/230511-test1-answer.sol\":4245:4266  keccak256(bytes(\"F\")) */\n      dup1\n      mload\n      swap1\n      0x20\n      add\n      keccak256\n        /* \"contracts-test/230511-test1-answer.sol\":4221:4229  students */\n      0x00\n        /* \"contracts-test/230511-test1-answer.sol\":4230:4231  i */\n      dup3\n        /* \"contracts-test/230511-test1-answer.sol\":4221:4232  students[i] */\n      dup2\n      sload\n      dup2\n      lt\n      tag_167\n      jumpi\n      tag_168\n      tag_108\n      jump\t// in\n    tag_168:\n    tag_167:\n      swap1\n      0x00\n      mstore\n      keccak256(0x00, 0x20)\n      swap1\n      0x05\n      mul\n      add\n        /* \"contracts-test/230511-test1-answer.sol\":4221:4239  students[i].credit */\n      0x03\n      add\n        /* \"contracts-test/230511-test1-answer.sol\":4205:4241  keccak256(bytes(students[i].credit)) */\n      mload(0x40)\n      tag_170\n      swap2\n      swap1\n      tag_171\n      jump\t// in\n    tag_170:\n      mload(0x40)\n      dup1\n      swap2\n      sub\n      swap1\n      keccak256\n        /* \"contracts-test/230511-test1-answer.sol\":4205:4266  keccak256(bytes(students[i].credit)) == keccak256(bytes(\"F\")) */\n      sub\n        /* \"contracts-test/230511-test1-answer.sol\":4202:4523  if(keccak256(bytes(students[i].credit)) == keccak256(bytes(\"F\"))) {... */\n      tag_172\n      jumpi\n        /* \"contracts-test/230511-test1-answer.sol\":4286:4293  count++ */\n      dup2\n      dup1\n      tag_173\n      swap1\n      tag_121\n      jump\t// in\n    tag_173:\n      swap3\n      pop\n      pop\n        /* \"contracts-test/230511-test1-answer.sol\":4333:4341  students */\n      0x00\n        /* \"contracts-test/230511-test1-answer.sol\":4342:4343  i */\n      dup2\n        /* \"contracts-test/230511-test1-answer.sol\":4333:4344  students[i] */\n      dup2\n      sload\n      dup2\n      lt\n      tag_174\n      jumpi\n      tag_175\n      tag_108\n      jump\t// in\n    tag_175:\n    tag_174:\n      swap1\n      0x00\n      mstore\n      keccak256(0x00, 0x20)\n      swap1\n      0x05\n      mul\n      add\n        /* \"contracts-test/230511-test1-answer.sol\":4311:4344  F_Students[count-1] = students[i] */\n      mload(0x40)\n      dup1\n      0xa0\n      add\n      0x40\n      mstore\n      swap1\n      dup2\n      0x00\n      dup3\n      add\n      dup1\n      sload\n      tag_177\n      swap1\n      tag_71\n      jump\t// in\n    tag_177:\n      dup1\n      0x1f\n      add\n      0x20\n      dup1\n      swap2\n      div\n      mul\n      0x20\n      add\n      mload(0x40)\n      swap1\n      dup2\n      add\n      0x40\n      mstore\n      dup1\n      swap3\n      swap2\n      swap1\n      dup2\n      dup2\n      mstore\n      0x20\n      add\n      dup3\n      dup1\n      sload\n      tag_178\n      swap1\n      tag_71\n      jump\t// in\n    tag_178:\n      dup1\n      iszero\n      tag_179\n      jumpi\n      dup1\n      0x1f\n      lt\n      tag_180\n      jumpi\n      0x0100\n      dup1\n      dup4\n      sload\n      div\n      mul\n      dup4\n      mstore\n      swap2\n      0x20\n      add\n      swap2\n      jump(tag_179)\n    tag_180:\n      dup3\n      add\n      swap2\n      swap1\n      0x00\n      mstore\n      keccak256(0x00, 0x20)\n      swap1\n    tag_181:\n      dup2\n      sload\n      dup2\n      mstore\n      swap1\n      0x01\n      add\n      swap1\n      0x20\n      add\n      dup1\n      dup4\n      gt\n      tag_181\n      jumpi\n      dup3\n      swap1\n      sub\n      0x1f\n      and\n      dup3\n      add\n      swap2\n    tag_179:\n      pop\n      pop\n      pop\n      pop\n      pop\n      dup2\n      mstore\n      0x20\n      add\n      0x01\n      dup3\n      add\n      sload\n      dup2\n      mstore\n      0x20\n      add\n      0x02\n      dup3\n      add\n      sload\n      dup2\n      mstore\n      0x20\n      add\n      0x03\n      dup3\n      add\n      dup1\n      sload\n      tag_182\n      swap1\n      tag_71\n      jump\t// in\n    tag_182:\n      dup1\n      0x1f\n      add\n      0x20\n      dup1\n      swap2\n      div\n      mul\n      0x20\n      add\n      mload(0x40)\n      swap1\n      dup2\n      add\n      0x40\n      mstore\n      dup1\n      swap3\n      swap2\n      swap1\n      dup2\n      dup2\n      mstore\n      0x20\n      add\n      dup3\n      dup1\n      sload\n      tag_183\n      swap1\n      tag_71\n      jump\t// in\n    tag_183:\n      dup1\n      iszero\n      tag_184\n      jumpi\n      dup1\n      0x1f\n      lt\n      tag_185\n      jumpi\n      0x0100\n      dup1\n      dup4\n      sload\n      div\n      mul\n      dup4\n      mstore\n      swap2\n      0x20\n      add\n      swap2\n      jump(tag_184)\n    tag_185:\n      dup3\n      add\n      swap2\n      swap1\n      0x00\n      mstore\n      keccak256(0x00, 0x20)\n      swap1\n    tag_186:\n      dup2\n      sload\n      dup2\n      mstore\n      swap1\n      0x01\n      add\n      swap1\n      0x20\n      add\n      dup1\n      dup4\n      gt\n      tag_186\n      jumpi\n      dup3\n      swap1\n      sub\n      0x1f\n      and\n      dup3\n      add\n      swap2\n    tag_184:\n      pop\n      pop\n      pop\n      pop\n      pop\n      dup2\n      mstore\n      0x20\n      add\n      0x04\n      dup3\n      add\n      dup1\n      sload\n      dup1\n      0x20\n      mul\n      0x20\n      add\n      mload(0x40)\n      swap1\n      dup2\n      add\n      0x40\n      mstore\n      dup1\n      swap3\n      swap2\n      swap1\n      dup2\n      dup2\n      mstore\n      0x20\n      add\n      0x00\n      swap1\n    tag_187:\n      dup3\n      dup3\n      lt\n      iszero\n      tag_188\n      jumpi\n      dup4\n      dup3\n      swap1\n      0x00\n      mstore\n      keccak256(0x00, 0x20)\n      add\n      dup1\n      sload\n      tag_190\n      swap1\n      tag_71\n      jump\t// in\n    tag_190:\n      dup1\n      0x1f\n      add\n      0x20\n      dup1\n      swap2\n      div\n      mul\n      0x20\n      add\n      mload(0x40)\n      swap1\n      dup2\n      add\n      0x40\n      mstore\n      dup1\n      swap3\n      swap2\n      swap1\n      dup2\n      dup2\n      mstore\n      0x20\n      add\n      dup3\n      dup1\n      sload\n      tag_191\n      swap1\n      tag_71\n      jump\t// in\n    tag_191:\n      dup1\n      iszero\n      tag_192\n      jumpi\n      dup1\n      0x1f\n      lt\n      tag_193\n      jumpi\n      0x0100\n      dup1\n      dup4\n      sload\n      div\n      mul\n      dup4\n      mstore\n      swap2\n      0x20\n      add\n      swap2\n      jump(tag_192)\n    tag_193:\n      dup3\n      add\n      swap2\n      swap1\n      0x00\n      mstore\n      keccak256(0x00, 0x20)\n      swap1\n    tag_194:\n      dup2\n      sload\n      dup2\n      mstore\n      swap1\n      0x01\n      add\n      swap1\n      0x20\n      add\n      dup1\n      dup4\n      gt\n      tag_194\n      jumpi\n      dup3\n      swap1\n      sub\n      0x1f\n      and\n      dup3\n      add\n      swap2\n    tag_192:\n      pop\n      pop\n      pop\n      pop\n      pop\n      dup2\n      mstore\n      0x20\n      add\n      swap1\n      0x01\n      add\n      swap1\n      jump(tag_187)\n    tag_188:\n      pop\n      pop\n      pop\n      pop\n      dup2\n      mstore\n      pop\n      pop\n        /* \"contracts-test/230511-test1-answer.sol\":4311:4321  F_Students */\n      dup5\n        /* \"contracts-test/230511-test1-answer.sol\":4328:4329  1 */\n      0x01\n        /* \"contracts-test/230511-test1-answer.sol\":4322:4327  count */\n      dup5\n        /* \"contracts-test/230511-test1-answer.sol\":4322:4329  count-1 */\n      tag_195\n      swap2\n      swap1\n      tag_100\n      jump\t// in\n    tag_195:\n        /* \"contracts-test/230511-test1-answer.sol\":4311:4330  F_Students[count-1] */\n      dup2\n      mload\n      dup2\n      lt\n      tag_196\n      jumpi\n      tag_197\n      tag_108\n      jump\t// in\n    tag_197:\n    tag_196:\n      0x20\n      mul\n      0x20\n      add\n      add\n        /* \"contracts-test/230511-test1-answer.sol\":4311:4344  F_Students[count-1] = students[i] */\n      dup2\n      swap1\n      mstore\n      pop\n        /* \"contracts-test/230511-test1-answer.sol\":4388:4393  count */\n      dup2\n        /* \"contracts-test/230511-test1-answer.sol\":4374:4394  new Student[](count) */\n      0xffffffffffffffff\n      dup2\n      gt\n      iszero\n      tag_198\n      jumpi\n      tag_199\n      tag_91\n      jump\t// in\n    tag_199:\n    tag_198:\n      mload(0x40)\n      swap1\n      dup1\n      dup3\n      mstore\n      dup1\n      0x20\n      mul\n      0x20\n      add\n      dup3\n      add\n      0x40\n      mstore\n      dup1\n      iszero\n      tag_200\n      jumpi\n      dup2\n      0x20\n      add\n    tag_201:\n      tag_202\n      tag_95\n      jump\t// in\n    tag_202:\n      dup2\n      mstore\n      0x20\n      add\n      swap1\n      0x01\n      swap1\n      sub\n      swap1\n      dup2\n      tag_201\n      jumpi\n      swap1\n      pop\n    tag_200:\n      pop\n        /* \"contracts-test/230511-test1-answer.sol\":4362:4394  F_Storage = new Student[](count) */\n      swap3\n      pop\n        /* \"contracts-test/230511-test1-answer.sol\":4416:4422  uint j */\n      0x00\n        /* \"contracts-test/230511-test1-answer.sol\":4412:4509  for(uint j=0; j<count; j++) {... */\n    tag_203:\n        /* \"contracts-test/230511-test1-answer.sol\":4428:4433  count */\n      dup3\n        /* \"contracts-test/230511-test1-answer.sol\":4426:4427  j */\n      dup2\n        /* \"contracts-test/230511-test1-answer.sol\":4426:4433  j<count */\n      lt\n        /* \"contracts-test/230511-test1-answer.sol\":4412:4509  for(uint j=0; j<count; j++) {... */\n      iszero\n      tag_204\n      jumpi\n        /* \"contracts-test/230511-test1-answer.sol\":4477:4487  F_Students */\n      dup5\n        /* \"contracts-test/230511-test1-answer.sol\":4488:4489  j */\n      dup2\n        /* \"contracts-test/230511-test1-answer.sol\":4477:4490  F_Students[j] */\n      dup2\n      mload\n      dup2\n      lt\n      tag_206\n      jumpi\n      tag_207\n      tag_108\n      jump\t// in\n    tag_207:\n    tag_206:\n      0x20\n      mul\n      0x20\n      add\n      add\n      mload\n        /* \"contracts-test/230511-test1-answer.sol\":4462:4471  F_Storage */\n      dup5\n        /* \"contracts-test/230511-test1-answer.sol\":4472:4473  j */\n      dup3\n        /* \"contracts-test/230511-test1-answer.sol\":4462:4474  F_Storage[j] */\n      dup2\n      mload\n      dup2\n      lt\n      tag_208\n      jumpi\n      tag_209\n      tag_108\n      jump\t// in\n    tag_209:\n    tag_208:\n      0x20\n      mul\n      0x20\n      add\n      add\n        /* \"contracts-test/230511-test1-answer.sol\":4462:4490  F_Storage[j] = F_Students[j] */\n      dup2\n      swap1\n      mstore\n      pop\n        /* \"contracts-test/230511-test1-answer.sol\":4435:4438  j++ */\n      dup1\n      dup1\n      tag_210\n      swap1\n      tag_121\n      jump\t// in\n    tag_210:\n      swap2\n      pop\n      pop\n        /* \"contracts-test/230511-test1-answer.sol\":4412:4509  for(uint j=0; j<count; j++) {... */\n      jump(tag_203)\n    tag_204:\n      pop\n        /* \"contracts-test/230511-test1-answer.sol\":4202:4523  if(keccak256(bytes(students[i].credit)) == keccak256(bytes(\"F\"))) {... */\n    tag_172:\n        /* \"contracts-test/230511-test1-answer.sol\":4183:4186  i++ */\n      dup1\n      dup1\n      tag_211\n      swap1\n      tag_121\n      jump\t// in\n    tag_211:\n      swap2\n      pop\n      pop\n        /* \"contracts-test/230511-test1-answer.sol\":4150:4533  for(uint i=0; i<students.length; i++) {... */\n      jump(tag_164)\n    tag_165:\n      pop\n        /* \"contracts-test/230511-test1-answer.sol\":4550:4559  F_Storage */\n      dup2\n        /* \"contracts-test/230511-test1-answer.sol\":4550:4566  F_Storage.length */\n      mload\n        /* \"contracts-test/230511-test1-answer.sol\":4568:4573  count */\n      dup2\n        /* \"contracts-test/230511-test1-answer.sol\":4575:4584  F_Storage */\n      dup4\n        /* \"contracts-test/230511-test1-answer.sol\":4542:4585  return (F_Storage.length, count, F_Storage) */\n      swap6\n      pop\n      swap6\n      pop\n      swap6\n      pop\n      pop\n      pop\n      pop\n        /* \"contracts-test/230511-test1-answer.sol\":3944:4592  function FClass2() public view returns(/*Student[] memory*/ uint, uint, Student[] memory) {... */\n      swap1\n      swap2\n      swap3\n      jump\t// out\n        /* \"contracts-test/230511-test1-answer.sol\":1842:1955  function getStudent(uint _number) public view returns(Student memory) {... */\n    tag_31:\n        /* \"contracts-test/230511-test1-answer.sol\":1896:1910  Student memory */\n      tag_212\n      tag_95\n      jump\t// in\n    tag_212:\n        /* \"contracts-test/230511-test1-answer.sol\":1929:1937  students */\n      0x00\n        /* \"contracts-test/230511-test1-answer.sol\":1946:1947  1 */\n      0x01\n        /* \"contracts-test/230511-test1-answer.sol\":1938:1945  _number */\n      dup4\n        /* \"contracts-test/230511-test1-answer.sol\":1938:1947  _number-1 */\n      tag_214\n      swap2\n      swap1\n      tag_100\n      jump\t// in\n    tag_214:\n        /* \"contracts-test/230511-test1-answer.sol\":1929:1948  students[_number-1] */\n      dup2\n      sload\n      dup2\n      lt\n      tag_215\n      jumpi\n      tag_216\n      tag_108\n      jump\t// in\n    tag_216:\n    tag_215:\n      swap1\n      0x00\n      mstore\n      keccak256(0x00, 0x20)\n      swap1\n      0x05\n      mul\n      add\n        /* \"contracts-test/230511-test1-answer.sol\":1922:1948  return students[_number-1] */\n      mload(0x40)\n      dup1\n      0xa0\n      add\n      0x40\n      mstore\n      swap1\n      dup2\n      0x00\n      dup3\n      add\n      dup1\n      sload\n      tag_218\n      swap1\n      tag_71\n      jump\t// in\n    tag_218:\n      dup1\n      0x1f\n      add\n      0x20\n      dup1\n      swap2\n      div\n      mul\n      0x20\n      add\n      mload(0x40)\n      swap1\n      dup2\n      add\n      0x40\n      mstore\n      dup1\n      swap3\n      swap2\n      swap1\n      dup2\n      dup2\n      mstore\n      0x20\n      add\n      dup3\n      dup1\n      sload\n      tag_219\n      swap1\n      tag_71\n      jump\t// in\n    tag_219:\n      dup1\n      iszero\n      tag_220\n      jumpi\n      dup1\n      0x1f\n      lt\n      tag_221\n      jumpi\n      0x0100\n      dup1\n      dup4\n      sload\n      div\n      mul\n      dup4\n      mstore\n      swap2\n      0x20\n      add\n      swap2\n      jump(tag_220)\n    tag_221:\n      dup3\n      add\n      swap2\n      swap1\n      0x00\n      mstore\n      keccak256(0x00, 0x20)\n      swap1\n    tag_222:\n      dup2\n      sload\n      dup2\n      mstore\n      swap1\n      0x01\n      add\n      swap1\n      0x20\n      add\n      dup1\n      dup4\n      gt\n      tag_222\n      jumpi\n      dup3\n      swap1\n      sub\n      0x1f\n      and\n      dup3\n      add\n      swap2\n    tag_220:\n      pop\n      pop\n      pop\n      pop\n      pop\n      dup2\n      mstore\n      0x20\n      add\n      0x01\n      dup3\n      add\n      sload\n      dup2\n      mstore\n      0x20\n      add\n      0x02\n      dup3\n      add\n      sload\n      dup2\n      mstore\n      0x20\n      add\n      0x03\n      dup3\n      add\n      dup1\n      sload\n      tag_223\n      swap1\n      tag_71\n      jump\t// in\n    tag_223:\n      dup1\n      0x1f\n      add\n      0x20\n      dup1\n      swap2\n      div\n      mul\n      0x20\n      add\n      mload(0x40)\n      swap1\n      dup2\n      add\n      0x40\n      mstore\n      dup1\n      swap3\n      swap2\n      swap1\n      dup2\n      dup2\n      mstore\n      0x20\n      add\n      dup3\n      dup1\n      sload\n      tag_224\n      swap1\n      tag_71\n      jump\t// in\n    tag_224:\n      dup1\n      iszero\n      tag_225\n      jumpi\n      dup1\n      0x1f\n      lt\n      tag_226\n      jumpi\n      0x0100\n      dup1\n      dup4\n      sload\n      div\n      mul\n      dup4\n      mstore\n      swap2\n      0x20\n      add\n      swap2\n      jump(tag_225)\n    tag_226:\n      dup3\n      add\n      swap2\n      swap1\n      0x00\n      mstore\n      keccak256(0x00, 0x20)\n      swap1\n    tag_227:\n      dup2\n      sload\n      dup2\n      mstore\n      swap1\n      0x01\n      add\n      swap1\n      0x20\n      add\n      dup1\n      dup4\n      gt\n      tag_227\n      jumpi\n      dup3\n      swap1\n      sub\n      0x1f\n      and\n      dup3\n      add\n      swap2\n    tag_225:\n      pop\n      pop\n      pop\n      pop\n      pop\n      dup2\n      mstore\n      0x20\n      add\n      0x04\n      dup3\n      add\n      dup1\n      sload\n      dup1\n      0x20\n      mul\n      0x20\n      add\n      mload(0x40)\n      swap1\n      dup2\n      add\n      0x40\n      mstore\n      dup1\n      swap3\n      swap2\n      swap1\n      dup2\n      dup2\n      mstore\n      0x20\n      add\n      0x00\n      swap1\n    tag_228:\n      dup3\n      dup3\n      lt\n      iszero\n      tag_229\n      jumpi\n      dup4\n      dup3\n      swap1\n      0x00\n      mstore\n      keccak256(0x00, 0x20)\n      add\n      dup1\n      sload\n      tag_231\n      swap1\n      tag_71\n      jump\t// in\n    tag_231:\n      dup1\n      0x1f\n      add\n      0x20\n      dup1\n      swap2\n      div\n      mul\n      0x20\n      add\n      mload(0x40)\n      swap1\n      dup2\n      add\n      0x40\n      mstore\n      dup1\n      swap3\n      swap2\n      swap1\n      dup2\n      dup2\n      mstore\n      0x20\n      add\n      dup3\n      dup1\n      sload\n      tag_232\n      swap1\n      tag_71\n      jump\t// in\n    tag_232:\n      dup1\n      iszero\n      tag_233\n      jumpi\n      dup1\n      0x1f\n      lt\n      tag_234\n      jumpi\n      0x0100\n      dup1\n      dup4\n      sload\n      div\n      mul\n      dup4\n      mstore\n      swap2\n      0x20\n      add\n      swap2\n      jump(tag_233)\n    tag_234:\n      dup3\n      add\n      swap2\n      swap1\n      0x00\n      mstore\n      keccak256(0x00, 0x20)\n      swap1\n    tag_235:\n      dup2\n      sload\n      dup2\n      mstore\n      swap1\n      0x01\n      add\n      swap1\n      0x20\n      add\n      dup1\n      dup4\n      gt\n      tag_235\n      jumpi\n      dup3\n      swap1\n      sub\n      0x1f\n      and\n      dup3\n      add\n      swap2\n    tag_233:\n      pop\n      pop\n      pop\n      pop\n      pop\n      dup2\n      mstore\n      0x20\n      add\n      swap1\n      0x01\n      add\n      swap1\n      jump(tag_228)\n    tag_229:\n      pop\n      pop\n      pop\n      pop\n      dup2\n      mstore\n      pop\n      pop\n      swap1\n      pop\n        /* \"contracts-test/230511-test1-answer.sol\":1842:1955  function getStudent(uint _number) public view returns(Student memory) {... */\n      swap2\n      swap1\n      pop\n      jump\t// out\n        /* \"contracts-test/230511-test1-answer.sol\":1031:1333  function pushStudent(string memory _name, uint _score, string[] memory _classes) public {... */\n    tag_37:\n        /* \"contracts-test/230511-test1-answer.sol\":1129:1137  students */\n      0x00\n        /* \"contracts-test/230511-test1-answer.sol\":1143:1225  Student(_name, /*count++*/ students.length+1, _score, setCredit(_score), _classes) */\n      mload(0x40)\n      dup1\n      0xa0\n      add\n      0x40\n      mstore\n      dup1\n        /* \"contracts-test/230511-test1-answer.sol\":1151:1156  _name */\n      dup6\n        /* \"contracts-test/230511-test1-answer.sol\":1143:1225  Student(_name, /*count++*/ students.length+1, _score, setCredit(_score), _classes) */\n      dup2\n      mstore\n      0x20\n      add\n        /* \"contracts-test/230511-test1-answer.sol\":1186:1187  1 */\n      0x01\n        /* \"contracts-test/230511-test1-answer.sol\":1170:1178  students */\n      0x00\n        /* \"contracts-test/230511-test1-answer.sol\":1170:1185  students.length */\n      dup1\n      sload\n      swap1\n      pop\n        /* \"contracts-test/230511-test1-answer.sol\":1170:1187  students.length+1 */\n      tag_237\n      swap2\n      swap1\n      tag_105\n      jump\t// in\n    tag_237:\n        /* \"contracts-test/230511-test1-answer.sol\":1143:1225  Student(_name, /*count++*/ students.length+1, _score, setCredit(_score), _classes) */\n      dup2\n      mstore\n      0x20\n      add\n        /* \"contracts-test/230511-test1-answer.sol\":1189:1195  _score */\n      dup5\n        /* \"contracts-test/230511-test1-answer.sol\":1143:1225  Student(_name, /*count++*/ students.length+1, _score, setCredit(_score), _classes) */\n      dup2\n      mstore\n      0x20\n      add\n        /* \"contracts-test/230511-test1-answer.sol\":1197:1214  setCredit(_score) */\n      tag_238\n        /* \"contracts-test/230511-test1-answer.sol\":1207:1213  _score */\n      dup6\n        /* \"contracts-test/230511-test1-answer.sol\":1197:1206  setCredit */\n      tag_63\n        /* \"contracts-test/230511-test1-answer.sol\":1197:1214  setCredit(_score) */\n      jump\t// in\n    tag_238:\n        /* \"contracts-test/230511-test1-answer.sol\":1143:1225  Student(_name, /*count++*/ students.length+1, _score, setCredit(_score), _classes) */\n      dup2\n      mstore\n      0x20\n      add\n        /* \"contracts-test/230511-test1-answer.sol\":1216:1224  _classes */\n      dup4\n        /* \"contracts-test/230511-test1-answer.sol\":1143:1225  Student(_name, /*count++*/ students.length+1, _score, setCredit(_score), _classes) */\n      dup2\n      mstore\n      pop\n        /* \"contracts-test/230511-test1-answer.sol\":1129:1226  students.push(Student(_name, /*count++*/ students.length+1, _score, setCredit(_score), _classes)) */\n      swap1\n      dup1\n      0x01\n      dup2\n      sload\n      add\n      dup1\n      dup3\n      sstore\n      dup1\n      swap2\n      pop\n      pop\n      0x01\n      swap1\n      sub\n      swap1\n      0x00\n      mstore\n      keccak256(0x00, 0x20)\n      swap1\n      0x05\n      mul\n      add\n      0x00\n      swap1\n      swap2\n      swap1\n      swap2\n      swap1\n      swap2\n      pop\n      0x00\n      dup3\n      add\n      mload\n      dup2\n      0x00\n      add\n      swap1\n      dup2\n      tag_240\n      swap2\n      swap1\n      tag_241\n      jump\t// in\n    tag_240:\n      pop\n      0x20\n      dup3\n      add\n      mload\n      dup2\n      0x01\n      add\n      sstore\n      0x40\n      dup3\n      add\n      mload\n      dup2\n      0x02\n      add\n      sstore\n      0x60\n      dup3\n      add\n      mload\n      dup2\n      0x03\n      add\n      swap1\n      dup2\n      tag_242\n      swap2\n      swap1\n      tag_241\n      jump\t// in\n    tag_242:\n      pop\n      0x80\n      dup3\n      add\n      mload\n      dup2\n      0x04\n      add\n      swap1\n      dup1\n      mload\n      swap1\n      0x20\n      add\n      swap1\n      tag_243\n      swap3\n      swap2\n      swap1\n      tag_244\n      jump\t// in\n    tag_243:\n      pop\n      pop\n      pop\n        /* \"contracts-test/230511-test1-answer.sol\":1258:1326  Student(_name, students.length, _score, setCredit(_score), _classes) */\n      mload(0x40)\n      dup1\n      0xa0\n      add\n      0x40\n      mstore\n      dup1\n        /* \"contracts-test/230511-test1-answer.sol\":1266:1271  _name */\n      dup5\n        /* \"contracts-test/230511-test1-answer.sol\":1258:1326  Student(_name, students.length, _score, setCredit(_score), _classes) */\n      dup2\n      mstore\n      0x20\n      add\n        /* \"contracts-test/230511-test1-answer.sol\":1273:1281  students */\n      0x00\n        /* \"contracts-test/230511-test1-answer.sol\":1273:1288  students.length */\n      dup1\n      sload\n      swap1\n      pop\n        /* \"contracts-test/230511-test1-answer.sol\":1258:1326  Student(_name, students.length, _score, setCredit(_score), _classes) */\n      dup2\n      mstore\n      0x20\n      add\n        /* \"contracts-test/230511-test1-answer.sol\":1290:1296  _score */\n      dup4\n        /* \"contracts-test/230511-test1-answer.sol\":1258:1326  Student(_name, students.length, _score, setCredit(_score), _classes) */\n      dup2\n      mstore\n      0x20\n      add\n        /* \"contracts-test/230511-test1-answer.sol\":1298:1315  setCredit(_score) */\n      tag_245\n        /* \"contracts-test/230511-test1-answer.sol\":1308:1314  _score */\n      dup5\n        /* \"contracts-test/230511-test1-answer.sol\":1298:1307  setCredit */\n      tag_63\n        /* \"contracts-test/230511-test1-answer.sol\":1298:1315  setCredit(_score) */\n      jump\t// in\n    tag_245:\n        /* \"contracts-test/230511-test1-answer.sol\":1258:1326  Student(_name, students.length, _score, setCredit(_score), _classes) */\n      dup2\n      mstore\n      0x20\n      add\n        /* \"contracts-test/230511-test1-answer.sol\":1317:1325  _classes */\n      dup3\n        /* \"contracts-test/230511-test1-answer.sol\":1258:1326  Student(_name, students.length, _score, setCredit(_score), _classes) */\n      dup2\n      mstore\n      pop\n        /* \"contracts-test/230511-test1-answer.sol\":1236:1248  name_Student */\n      0x01\n        /* \"contracts-test/230511-test1-answer.sol\":1249:1254  _name */\n      dup5\n        /* \"contracts-test/230511-test1-answer.sol\":1236:1255  name_Student[_name] */\n      mload(0x40)\n      tag_246\n      swap2\n      swap1\n      tag_247\n      jump\t// in\n    tag_246:\n      swap1\n      dup2\n      mstore\n      0x20\n      add\n      mload(0x40)\n      dup1\n      swap2\n      sub\n      swap1\n      keccak256\n        /* \"contracts-test/230511-test1-answer.sol\":1236:1326  name_Student[_name] = Student(_name, students.length, _score, setCredit(_score), _classes) */\n      0x00\n      dup3\n      add\n      mload\n      dup2\n      0x00\n      add\n      swap1\n      dup2\n      tag_248\n      swap2\n      swap1\n      tag_241\n      jump\t// in\n    tag_248:\n      pop\n      0x20\n      dup3\n      add\n      mload\n      dup2\n      0x01\n      add\n      sstore\n      0x40\n      dup3\n      add\n      mload\n      dup2\n      0x02\n      add\n      sstore\n      0x60\n      dup3\n      add\n      mload\n      dup2\n      0x03\n      add\n      swap1\n      dup2\n      tag_249\n      swap2\n      swap1\n      tag_241\n      jump\t// in\n    tag_249:\n      pop\n      0x80\n      dup3\n      add\n      mload\n      dup2\n      0x04\n      add\n      swap1\n      dup1\n      mload\n      swap1\n      0x20\n      add\n      swap1\n      tag_250\n      swap3\n      swap2\n      swap1\n      tag_244\n      jump\t// in\n    tag_250:\n      pop\n      swap1\n      pop\n      pop\n        /* \"contracts-test/230511-test1-answer.sol\":1031:1333  function pushStudent(string memory _name, uint _score, string[] memory _classes) public {... */\n      pop\n      pop\n      pop\n      jump\t// out\n        /* \"contracts-test/230511-test1-answer.sol\":3347:3938  function FClass() public view returns(uint, Student[] memory) {... */\n    tag_39:\n        /* \"contracts-test/230511-test1-answer.sol\":3385:3389  uint */\n      0x00\n        /* \"contracts-test/230511-test1-answer.sol\":3391:3407  Student[] memory */\n      0x60\n        /* \"contracts-test/230511-test1-answer.sol\":3419:3427  uint num */\n      0x00\n        /* \"contracts-test/230511-test1-answer.sol\":3442:3448  uint i */\n      dup1\n        /* \"contracts-test/230511-test1-answer.sol\":3449:3450  0 */\n      0x00\n        /* \"contracts-test/230511-test1-answer.sol\":3442:3450  uint i=0 */\n      swap1\n      pop\n        /* \"contracts-test/230511-test1-answer.sol\":3438:3603  for(uint i=0; i<students.length;i++) {... */\n    tag_252:\n        /* \"contracts-test/230511-test1-answer.sol\":3454:3462  students */\n      0x00\n        /* \"contracts-test/230511-test1-answer.sol\":3454:3469  students.length */\n      dup1\n      sload\n      swap1\n      pop\n        /* \"contracts-test/230511-test1-answer.sol\":3452:3453  i */\n      dup2\n        /* \"contracts-test/230511-test1-answer.sol\":3452:3469  i<students.length */\n      lt\n        /* \"contracts-test/230511-test1-answer.sol\":3438:3603  for(uint i=0; i<students.length;i++) {... */\n      iszero\n      tag_253\n      jumpi\n        /* \"contracts-test/230511-test1-answer.sol\":3542:3552  bytes(\"F\") */\n      mload(0x40)\n      dup1\n      0x40\n      add\n      0x40\n      mstore\n      dup1\n      0x01\n      dup2\n      mstore\n      0x20\n      add\n      0x4600000000000000000000000000000000000000000000000000000000000000\n      dup2\n      mstore\n      pop\n        /* \"contracts-test/230511-test1-answer.sol\":3532:3553  keccak256(bytes(\"F\")) */\n      dup1\n      mload\n      swap1\n      0x20\n      add\n      keccak256\n        /* \"contracts-test/230511-test1-answer.sol\":3508:3516  students */\n      0x00\n        /* \"contracts-test/230511-test1-answer.sol\":3517:3518  i */\n      dup3\n        /* \"contracts-test/230511-test1-answer.sol\":3508:3519  students[i] */\n      dup2\n      sload\n      dup2\n      lt\n      tag_255\n      jumpi\n      tag_256\n      tag_108\n      jump\t// in\n    tag_256:\n    tag_255:\n      swap1\n      0x00\n      mstore\n      keccak256(0x00, 0x20)\n      swap1\n      0x05\n      mul\n      add\n        /* \"contracts-test/230511-test1-answer.sol\":3508:3526  students[i].credit */\n      0x03\n      add\n        /* \"contracts-test/230511-test1-answer.sol\":3492:3528  keccak256(bytes(students[i].credit)) */\n      mload(0x40)\n      tag_258\n      swap2\n      swap1\n      tag_171\n      jump\t// in\n    tag_258:\n      mload(0x40)\n      dup1\n      swap2\n      sub\n      swap1\n      keccak256\n        /* \"contracts-test/230511-test1-answer.sol\":3492:3553  keccak256(bytes(students[i].credit)) == keccak256(bytes(\"F\")) */\n      sub\n        /* \"contracts-test/230511-test1-answer.sol\":3489:3593  if(keccak256(bytes(students[i].credit)) == keccak256(bytes(\"F\"))) {... */\n      tag_259\n      jumpi\n        /* \"contracts-test/230511-test1-answer.sol\":3573:3578  num++ */\n      dup2\n      dup1\n      tag_260\n      swap1\n      tag_121\n      jump\t// in\n    tag_260:\n      swap3\n      pop\n      pop\n        /* \"contracts-test/230511-test1-answer.sol\":3489:3593  if(keccak256(bytes(students[i].credit)) == keccak256(bytes(\"F\"))) {... */\n    tag_259:\n        /* \"contracts-test/230511-test1-answer.sol\":3470:3473  i++ */\n      dup1\n      dup1\n      tag_261\n      swap1\n      tag_121\n      jump\t// in\n    tag_261:\n      swap2\n      pop\n      pop\n        /* \"contracts-test/230511-test1-answer.sol\":3438:3603  for(uint i=0; i<students.length;i++) {... */\n      jump(tag_252)\n    tag_253:\n      pop\n        /* \"contracts-test/230511-test1-answer.sol\":3613:3639  Student[] memory F_Storage */\n      0x00\n        /* \"contracts-test/230511-test1-answer.sol\":3656:3659  num */\n      dup2\n        /* \"contracts-test/230511-test1-answer.sol\":3642:3660  new Student[](num) */\n      0xffffffffffffffff\n      dup2\n      gt\n      iszero\n      tag_262\n      jumpi\n      tag_263\n      tag_91\n      jump\t// in\n    tag_263:\n    tag_262:\n      mload(0x40)\n      swap1\n      dup1\n      dup3\n      mstore\n      dup1\n      0x20\n      mul\n      0x20\n      add\n      dup3\n      add\n      0x40\n      mstore\n      dup1\n      iszero\n      tag_264\n      jumpi\n      dup2\n      0x20\n      add\n    tag_265:\n      tag_266\n      tag_95\n      jump\t// in\n    tag_266:\n      dup2\n      mstore\n      0x20\n      add\n      swap1\n      0x01\n      swap1\n      sub\n      swap1\n      dup2\n      tag_265\n      jumpi\n      swap1\n      pop\n    tag_264:\n      pop\n        /* \"contracts-test/230511-test1-answer.sol\":3613:3660  Student[] memory F_Storage = new Student[](num) */\n      swap1\n      pop\n        /* \"contracts-test/230511-test1-answer.sol\":3671:3680  uint _num */\n      0x00\n        /* \"contracts-test/230511-test1-answer.sol\":3695:3701  uint i */\n      dup1\n        /* \"contracts-test/230511-test1-answer.sol\":3702:3703  0 */\n      0x00\n        /* \"contracts-test/230511-test1-answer.sol\":3695:3703  uint i=0 */\n      swap1\n      pop\n        /* \"contracts-test/230511-test1-answer.sol\":3691:3898  for(uint i=0; i<students.length;i++) {... */\n    tag_267:\n        /* \"contracts-test/230511-test1-answer.sol\":3707:3715  students */\n      0x00\n        /* \"contracts-test/230511-test1-answer.sol\":3707:3722  students.length */\n      dup1\n      sload\n      swap1\n      pop\n        /* \"contracts-test/230511-test1-answer.sol\":3705:3706  i */\n      dup2\n        /* \"contracts-test/230511-test1-answer.sol\":3705:3722  i<students.length */\n      lt\n        /* \"contracts-test/230511-test1-answer.sol\":3691:3898  for(uint i=0; i<students.length;i++) {... */\n      iszero\n      tag_268\n      jumpi\n        /* \"contracts-test/230511-test1-answer.sol\":3795:3805  bytes(\"F\") */\n      mload(0x40)\n      dup1\n      0x40\n      add\n      0x40\n      mstore\n      dup1\n      0x01\n      dup2\n      mstore\n      0x20\n      add\n      0x4600000000000000000000000000000000000000000000000000000000000000\n      dup2\n      mstore\n      pop\n        /* \"contracts-test/230511-test1-answer.sol\":3785:3806  keccak256(bytes(\"F\")) */\n      dup1\n      mload\n      swap1\n      0x20\n      add\n      keccak256\n        /* \"contracts-test/230511-test1-answer.sol\":3761:3769  students */\n      0x00\n        /* \"contracts-test/230511-test1-answer.sol\":3770:3771  i */\n      dup3\n        /* \"contracts-test/230511-test1-answer.sol\":3761:3772  students[i] */\n      dup2\n      sload\n      dup2\n      lt\n      tag_270\n      jumpi\n      tag_271\n      tag_108\n      jump\t// in\n    tag_271:\n    tag_270:\n      swap1\n      0x00\n      mstore\n      keccak256(0x00, 0x20)\n      swap1\n      0x05\n      mul\n      add\n        /* \"contracts-test/230511-test1-answer.sol\":3761:3779  students[i].credit */\n      0x03\n      add\n        /* \"contracts-test/230511-test1-answer.sol\":3745:3781  keccak256(bytes(students[i].credit)) */\n      mload(0x40)\n      tag_273\n      swap2\n      swap1\n      tag_171\n      jump\t// in\n    tag_273:\n      mload(0x40)\n      dup1\n      swap2\n      sub\n      swap1\n      keccak256\n        /* \"contracts-test/230511-test1-answer.sol\":3745:3806  keccak256(bytes(students[i].credit)) == keccak256(bytes(\"F\")) */\n      sub\n        /* \"contracts-test/230511-test1-answer.sol\":3742:3868  if(keccak256(bytes(students[i].credit)) == keccak256(bytes(\"F\"))) {... */\n      tag_274\n      jumpi\n        /* \"contracts-test/230511-test1-answer.sol\":3842:3850  students */\n      0x00\n        /* \"contracts-test/230511-test1-answer.sol\":3851:3852  i */\n      dup2\n        /* \"contracts-test/230511-test1-answer.sol\":3842:3853  students[i] */\n      dup2\n      sload\n      dup2\n      lt\n      tag_275\n      jumpi\n      tag_276\n      tag_108\n      jump\t// in\n    tag_276:\n    tag_275:\n      swap1\n      0x00\n      mstore\n      keccak256(0x00, 0x20)\n      swap1\n      0x05\n      mul\n      add\n        /* \"contracts-test/230511-test1-answer.sol\":3826:3853  F_Storage[_num]=students[i] */\n      mload(0x40)\n      dup1\n      0xa0\n      add\n      0x40\n      mstore\n      swap1\n      dup2\n      0x00\n      dup3\n      add\n      dup1\n      sload\n      tag_278\n      swap1\n      tag_71\n      jump\t// in\n    tag_278:\n      dup1\n      0x1f\n      add\n      0x20\n      dup1\n      swap2\n      div\n      mul\n      0x20\n      add\n      mload(0x40)\n      swap1\n      dup2\n      add\n      0x40\n      mstore\n      dup1\n      swap3\n      swap2\n      swap1\n      dup2\n      dup2\n      mstore\n      0x20\n      add\n      dup3\n      dup1\n      sload\n      tag_279\n      swap1\n      tag_71\n      jump\t// in\n    tag_279:\n      dup1\n      iszero\n      tag_280\n      jumpi\n      dup1\n      0x1f\n      lt\n      tag_281\n      jumpi\n      0x0100\n      dup1\n      dup4\n      sload\n      div\n      mul\n      dup4\n      mstore\n      swap2\n      0x20\n      add\n      swap2\n      jump(tag_280)\n    tag_281:\n      dup3\n      add\n      swap2\n      swap1\n      0x00\n      mstore\n      keccak256(0x00, 0x20)\n      swap1\n    tag_282:\n      dup2\n      sload\n      dup2\n      mstore\n      swap1\n      0x01\n      add\n      swap1\n      0x20\n      add\n      dup1\n      dup4\n      gt\n      tag_282\n      jumpi\n      dup3\n      swap1\n      sub\n      0x1f\n      and\n      dup3\n      add\n      swap2\n    tag_280:\n      pop\n      pop\n      pop\n      pop\n      pop\n      dup2\n      mstore\n      0x20\n      add\n      0x01\n      dup3\n      add\n      sload\n      dup2\n      mstore\n      0x20\n      add\n      0x02\n      dup3\n      add\n      sload\n      dup2\n      mstore\n      0x20\n      add\n      0x03\n      dup3\n      add\n      dup1\n      sload\n      tag_283\n      swap1\n      tag_71\n      jump\t// in\n    tag_283:\n      dup1\n      0x1f\n      add\n      0x20\n      dup1\n      swap2\n      div\n      mul\n      0x20\n      add\n      mload(0x40)\n      swap1\n      dup2\n      add\n      0x40\n      mstore\n      dup1\n      swap3\n      swap2\n      swap1\n      dup2\n      dup2\n      mstore\n      0x20\n      add\n      dup3\n      dup1\n      sload\n      tag_284\n      swap1\n      tag_71\n      jump\t// in\n    tag_284:\n      dup1\n      iszero\n      tag_285\n      jumpi\n      dup1\n      0x1f\n      lt\n      tag_286\n      jumpi\n      0x0100\n      dup1\n      dup4\n      sload\n      div\n      mul\n      dup4\n      mstore\n      swap2\n      0x20\n      add\n      swap2\n      jump(tag_285)\n    tag_286:\n      dup3\n      add\n      swap2\n      swap1\n      0x00\n      mstore\n      keccak256(0x00, 0x20)\n      swap1\n    tag_287:\n      dup2\n      sload\n      dup2\n      mstore\n      swap1\n      0x01\n      add\n      swap1\n      0x20\n      add\n      dup1\n      dup4\n      gt\n      tag_287\n      jumpi\n      dup3\n      swap1\n      sub\n      0x1f\n      and\n      dup3\n      add\n      swap2\n    tag_285:\n      pop\n      pop\n      pop\n      pop\n      pop\n      dup2\n      mstore\n      0x20\n      add\n      0x04\n      dup3\n      add\n      dup1\n      sload\n      dup1\n      0x20\n      mul\n      0x20\n      add\n      mload(0x40)\n      swap1\n      dup2\n      add\n      0x40\n      mstore\n      dup1\n      swap3\n      swap2\n      swap1\n      dup2\n      dup2\n      mstore\n      0x20\n      add\n      0x00\n      swap1\n    tag_288:\n      dup3\n      dup3\n      lt\n      iszero\n      tag_289\n      jumpi\n      dup4\n      dup3\n      swap1\n      0x00\n      mstore\n      keccak256(0x00, 0x20)\n      add\n      dup1\n      sload\n      tag_291\n      swap1\n      tag_71\n      jump\t// in\n    tag_291:\n      dup1\n      0x1f\n      add\n      0x20\n      dup1\n      swap2\n      div\n      mul\n      0x20\n      add\n      mload(0x40)\n      swap1\n      dup2\n      add\n      0x40\n      mstore\n      dup1\n      swap3\n      swap2\n      swap1\n      dup2\n      dup2\n      mstore\n      0x20\n      add\n      dup3\n      dup1\n      sload\n      tag_292\n      swap1\n      tag_71\n      jump\t// in\n    tag_292:\n      dup1\n      iszero\n      tag_293\n      jumpi\n      dup1\n      0x1f\n      lt\n      tag_294\n      jumpi\n      0x0100\n      dup1\n      dup4\n      sload\n      div\n      mul\n      dup4\n      mstore\n      swap2\n      0x20\n      add\n      swap2\n      jump(tag_293)\n    tag_294:\n      dup3\n      add\n      swap2\n      swap1\n      0x00\n      mstore\n      keccak256(0x00, 0x20)\n      swap1\n    tag_295:\n      dup2\n      sload\n      dup2\n      mstore\n      swap1\n      0x01\n      add\n      swap1\n      0x20\n      add\n      dup1\n      dup4\n      gt\n      tag_295\n      jumpi\n      dup3\n      swap1\n      sub\n      0x1f\n      and\n      dup3\n      add\n      swap2\n    tag_293:\n      pop\n      pop\n      pop\n      pop\n      pop\n      dup2\n      mstore\n      0x20\n      add\n      swap1\n      0x01\n      add\n      swap1\n      jump(tag_288)\n    tag_289:\n      pop\n      pop\n      pop\n      pop\n      dup2\n      mstore\n      pop\n      pop\n        /* \"contracts-test/230511-test1-answer.sol\":3826:3835  F_Storage */\n      dup4\n        /* \"contracts-test/230511-test1-answer.sol\":3836:3840  _num */\n      dup4\n        /* \"contracts-test/230511-test1-answer.sol\":3826:3841  F_Storage[_num] */\n      dup2\n      mload\n      dup2\n      lt\n      tag_296\n      jumpi\n      tag_297\n      tag_108\n      jump\t// in\n    tag_297:\n    tag_296:\n      0x20\n      mul\n      0x20\n      add\n      add\n        /* \"contracts-test/230511-test1-answer.sol\":3826:3853  F_Storage[_num]=students[i] */\n      dup2\n      swap1\n      mstore\n      pop\n        /* \"contracts-test/230511-test1-answer.sol\":3742:3868  if(keccak256(bytes(students[i].credit)) == keccak256(bytes(\"F\"))) {... */\n    tag_274:\n        /* \"contracts-test/230511-test1-answer.sol\":3881:3887  _num++ */\n      dup2\n      dup1\n      tag_298\n      swap1\n      tag_121\n      jump\t// in\n    tag_298:\n      swap3\n      pop\n      pop\n        /* \"contracts-test/230511-test1-answer.sol\":3723:3726  i++ */\n      dup1\n      dup1\n      tag_299\n      swap1\n      tag_121\n      jump\t// in\n    tag_299:\n      swap2\n      pop\n      pop\n        /* \"contracts-test/230511-test1-answer.sol\":3691:3898  for(uint i=0; i<students.length;i++) {... */\n      jump(tag_267)\n    tag_268:\n      pop\n        /* \"contracts-test/230511-test1-answer.sol\":3916:3919  num */\n      dup3\n        /* \"contracts-test/230511-test1-answer.sol\":3921:3930  F_Storage */\n      dup3\n        /* \"contracts-test/230511-test1-answer.sol\":3908:3931  return (num, F_Storage) */\n      swap5\n      pop\n      swap5\n      pop\n      pop\n      pop\n      pop\n        /* \"contracts-test/230511-test1-answer.sol\":3347:3938  function FClass() public view returns(uint, Student[] memory) {... */\n      swap1\n      swap2\n      jump\t// out\n        /* \"contracts-test/230511-test1-answer.sol\":2116:2237  function getStudent2(string memory _name) public view returns(Student memory) {... */\n    tag_45:\n        /* \"contracts-test/230511-test1-answer.sol\":2178:2192  Student memory */\n      tag_300\n      tag_95\n      jump\t// in\n    tag_300:\n        /* \"contracts-test/230511-test1-answer.sol\":2211:2223  name_Student */\n      0x01\n        /* \"contracts-test/230511-test1-answer.sol\":2224:2229  _name */\n      dup3\n        /* \"contracts-test/230511-test1-answer.sol\":2211:2230  name_Student[_name] */\n      mload(0x40)\n      tag_302\n      swap2\n      swap1\n      tag_247\n      jump\t// in\n    tag_302:\n      swap1\n      dup2\n      mstore\n      0x20\n      add\n      mload(0x40)\n      dup1\n      swap2\n      sub\n      swap1\n      keccak256\n        /* \"contracts-test/230511-test1-answer.sol\":2204:2230  return name_Student[_name] */\n      mload(0x40)\n      dup1\n      0xa0\n      add\n      0x40\n      mstore\n      swap1\n      dup2\n      0x00\n      dup3\n      add\n      dup1\n      sload\n      tag_303\n      swap1\n      tag_71\n      jump\t// in\n    tag_303:\n      dup1\n      0x1f\n      add\n      0x20\n      dup1\n      swap2\n      div\n      mul\n      0x20\n      add\n      mload(0x40)\n      swap1\n      dup2\n      add\n      0x40\n      mstore\n      dup1\n      swap3\n      swap2\n      swap1\n      dup2\n      dup2\n      mstore\n      0x20\n      add\n      dup3\n      dup1\n      sload\n      tag_304\n      swap1\n      tag_71\n      jump\t// in\n    tag_304:\n      dup1\n      iszero\n      tag_305\n      jumpi\n      dup1\n      0x1f\n      lt\n      tag_306\n      jumpi\n      0x0100\n      dup1\n      dup4\n      sload\n      div\n      mul\n      dup4\n      mstore\n      swap2\n      0x20\n      add\n      swap2\n      jump(tag_305)\n    tag_306:\n      dup3\n      add\n      swap2\n      swap1\n      0x00\n      mstore\n      keccak256(0x00, 0x20)\n      swap1\n    tag_307:\n      dup2\n      sload\n      dup2\n      mstore\n      swap1\n      0x01\n      add\n      swap1\n      0x20\n      add\n      dup1\n      dup4\n      gt\n      tag_307\n      jumpi\n      dup3\n      swap1\n      sub\n      0x1f\n      and\n      dup3\n      add\n      swap2\n    tag_305:\n      pop\n      pop\n      pop\n      pop\n      pop\n      dup2\n      mstore\n      0x20\n      add\n      0x01\n      dup3\n      add\n      sload\n      dup2\n      mstore\n      0x20\n      add\n      0x02\n      dup3\n      add\n      sload\n      dup2\n      mstore\n      0x20\n      add\n      0x03\n      dup3\n      add\n      dup1\n      sload\n      tag_308\n      swap1\n      tag_71\n      jump\t// in\n    tag_308:\n      dup1\n      0x1f\n      add\n      0x20\n      dup1\n      swap2\n      div\n      mul\n      0x20\n      add\n      mload(0x40)\n      swap1\n      dup2\n      add\n      0x40\n      mstore\n      dup1\n      swap3\n      swap2\n      swap1\n      dup2\n      dup2\n      mstore\n      0x20\n      add\n      dup3\n      dup1\n      sload\n      tag_309\n      swap1\n      tag_71\n      jump\t// in\n    tag_309:\n      dup1\n      iszero\n      tag_310\n      jumpi\n      dup1\n      0x1f\n      lt\n      tag_311\n      jumpi\n      0x0100\n      dup1\n      dup4\n      sload\n      div\n      mul\n      dup4\n      mstore\n      swap2\n      0x20\n      add\n      swap2\n      jump(tag_310)\n    tag_311:\n      dup3\n      add\n      swap2\n      swap1\n      0x00\n      mstore\n      keccak256(0x00, 0x20)\n      swap1\n    tag_312:\n      dup2\n      sload\n      dup2\n      mstore\n      swap1\n      0x01\n      add\n      swap1\n      0x20\n      add\n      dup1\n      dup4\n      gt\n      tag_312\n      jumpi\n      dup3\n      swap1\n      sub\n      0x1f\n      and\n      dup3\n      add\n      swap2\n    tag_310:\n      pop\n      pop\n      pop\n      pop\n      pop\n      dup2\n      mstore\n      0x20\n      add\n      0x04\n      dup3\n      add\n      dup1\n      sload\n      dup1\n      0x20\n      mul\n      0x20\n      add\n      mload(0x40)\n      swap1\n      dup2\n      add\n      0x40\n      mstore\n      dup1\n      swap3\n      swap2\n      swap1\n      dup2\n      dup2\n      mstore\n      0x20\n      add\n      0x00\n      swap1\n    tag_313:\n      dup3\n      dup3\n      lt\n      iszero\n      tag_314\n      jumpi\n      dup4\n      dup3\n      swap1\n      0x00\n      mstore\n      keccak256(0x00, 0x20)\n      add\n      dup1\n      sload\n      tag_316\n      swap1\n      tag_71\n      jump\t// in\n    tag_316:\n      dup1\n      0x1f\n      add\n      0x20\n      dup1\n      swap2\n      div\n      mul\n      0x20\n      add\n      mload(0x40)\n      swap1\n      dup2\n      add\n      0x40\n      mstore\n      dup1\n      swap3\n      swap2\n      swap1\n      dup2\n      dup2\n      mstore\n      0x20\n      add\n      dup3\n      dup1\n      sload\n      tag_317\n      swap1\n      tag_71\n      jump\t// in\n    tag_317:\n      dup1\n      iszero\n      tag_318\n      jumpi\n      dup1\n      0x1f\n      lt\n      tag_319\n      jumpi\n      0x0100\n      dup1\n      dup4\n      sload\n      div\n      mul\n      dup4\n      mstore\n      swap2\n      0x20\n      add\n      swap2\n      jump(tag_318)\n    tag_319:\n      dup3\n      add\n      swap2\n      swap1\n      0x00\n      mstore\n      keccak256(0x00, 0x20)\n      swap1\n    tag_320:\n      dup2\n      sload\n      dup2\n      mstore\n      swap1\n      0x01\n      add\n      swap1\n      0x20\n      add\n      dup1\n      dup4\n      gt\n      tag_320\n      jumpi\n      dup3\n      swap1\n      sub\n      0x1f\n      and\n      dup3\n      add\n      swap2\n    tag_318:\n      pop\n      pop\n      pop\n      pop\n      pop\n      dup2\n      mstore\n      0x20\n      add\n      swap1\n      0x01\n      add\n      swap1\n      jump(tag_313)\n    tag_314:\n      pop\n      pop\n      pop\n      pop\n      dup2\n      mstore\n      pop\n      pop\n      swap1\n      pop\n        /* \"contracts-test/230511-test1-answer.sol\":2116:2237  function getStudent2(string memory _name) public view returns(Student memory) {... */\n      swap2\n      swap1\n      pop\n      jump\t// out\n        /* \"contracts-test/230511-test1-answer.sol\":3074:3236  function selfEva() public view returns(bool) {... */\n    tag_48:\n        /* \"contracts-test/230511-test1-answer.sol\":3113:3117  bool */\n      0x00\n        /* \"contracts-test/230511-test1-answer.sol\":3147:3149  70 */\n      0x46\n        /* \"contracts-test/230511-test1-answer.sol\":3132:3144  getAverage() */\n      tag_322\n        /* \"contracts-test/230511-test1-answer.sol\":3132:3142  getAverage */\n      tag_21\n        /* \"contracts-test/230511-test1-answer.sol\":3132:3144  getAverage() */\n      jump\t// in\n    tag_322:\n        /* \"contracts-test/230511-test1-answer.sol\":3132:3149  getAverage() >=70 */\n      lt\n        /* \"contracts-test/230511-test1-answer.sol\":3129:3230  if(getAverage() >=70) {... */\n      tag_323\n      jumpi\n        /* \"contracts-test/230511-test1-answer.sol\":3172:3176  true */\n      0x01\n        /* \"contracts-test/230511-test1-answer.sol\":3165:3176  return true */\n      swap1\n      pop\n      jump(tag_321)\n        /* \"contracts-test/230511-test1-answer.sol\":3129:3230  if(getAverage() >=70) {... */\n    tag_323:\n        /* \"contracts-test/230511-test1-answer.sol\":3214:3219  false */\n      0x00\n        /* \"contracts-test/230511-test1-answer.sol\":3207:3219  return false */\n      swap1\n      pop\n        /* \"contracts-test/230511-test1-answer.sol\":3074:3236  function selfEva() public view returns(bool) {... */\n    tag_321:\n      swap1\n      jump\t// out\n        /* \"contracts-test/230511-test1-answer.sol\":1431:1525  function getStudentsNumber() public view returns(uint) {... */\n    tag_52:\n        /* \"contracts-test/230511-test1-answer.sol\":1480:1484  uint */\n      0x00\n        /* \"contracts-test/230511-test1-answer.sol\":1503:1511  students */\n      dup1\n        /* \"contracts-test/230511-test1-answer.sol\":1503:1518  students.length */\n      dup1\n      sload\n      swap1\n      pop\n        /* \"contracts-test/230511-test1-answer.sol\":1496:1518  return students.length */\n      swap1\n      pop\n        /* \"contracts-test/230511-test1-answer.sol\":1431:1525  function getStudentsNumber() public view returns(uint) {... */\n      swap1\n      jump\t// out\n        /* \"contracts-test/230511-test1-answer.sol\":2353:2474  function getStudentScore(string memory _name) public view returns(uint) {... */\n    tag_56:\n        /* \"contracts-test/230511-test1-answer.sol\":2419:2423  uint */\n      0x00\n        /* \"contracts-test/230511-test1-answer.sol\":2442:2454  name_Student */\n      0x01\n        /* \"contracts-test/230511-test1-answer.sol\":2455:2460  _name */\n      dup3\n        /* \"contracts-test/230511-test1-answer.sol\":2442:2461  name_Student[_name] */\n      mload(0x40)\n      tag_327\n      swap2\n      swap1\n      tag_247\n      jump\t// in\n    tag_327:\n      swap1\n      dup2\n      mstore\n      0x20\n      add\n      mload(0x40)\n      dup1\n      swap2\n      sub\n      swap1\n      keccak256\n        /* \"contracts-test/230511-test1-answer.sol\":2442:2467  name_Student[_name].score */\n      0x02\n      add\n      sload\n        /* \"contracts-test/230511-test1-answer.sol\":2435:2467  return name_Student[_name].score */\n      swap1\n      pop\n        /* \"contracts-test/230511-test1-answer.sol\":2353:2474  function getStudentScore(string memory _name) public view returns(uint) {... */\n      swap2\n      swap1\n      pop\n      jump\t// out\n        /* \"contracts-test/230511-test1-answer.sol\":1630:1726  function getAllStudents() public view returns(Student[] memory) {... */\n    tag_59:\n        /* \"contracts-test/230511-test1-answer.sol\":1676:1692  Student[] memory */\n      0x60\n        /* \"contracts-test/230511-test1-answer.sol\":1711:1719  students */\n      0x00\n        /* \"contracts-test/230511-test1-answer.sol\":1704:1719  return students */\n      dup1\n      sload\n      dup1\n      0x20\n      mul\n      0x20\n      add\n      mload(0x40)\n      swap1\n      dup2\n      add\n      0x40\n      mstore\n      dup1\n      swap3\n      swap2\n      swap1\n      dup2\n      dup2\n      mstore\n      0x20\n      add\n      0x00\n      swap1\n    tag_329:\n      dup3\n      dup3\n      lt\n      iszero\n      tag_330\n      jumpi\n      dup4\n      dup3\n      swap1\n      0x00\n      mstore\n      keccak256(0x00, 0x20)\n      swap1\n      0x05\n      mul\n      add\n      mload(0x40)\n      dup1\n      0xa0\n      add\n      0x40\n      mstore\n      swap1\n      dup2\n      0x00\n      dup3\n      add\n      dup1\n      sload\n      tag_332\n      swap1\n      tag_71\n      jump\t// in\n    tag_332:\n      dup1\n      0x1f\n      add\n      0x20\n      dup1\n      swap2\n      div\n      mul\n      0x20\n      add\n      mload(0x40)\n      swap1\n      dup2\n      add\n      0x40\n      mstore\n      dup1\n      swap3\n      swap2\n      swap1\n      dup2\n      dup2\n      mstore\n      0x20\n      add\n      dup3\n      dup1\n      sload\n      tag_333\n      swap1\n      tag_71\n      jump\t// in\n    tag_333:\n      dup1\n      iszero\n      tag_334\n      jumpi\n      dup1\n      0x1f\n      lt\n      tag_335\n      jumpi\n      0x0100\n      dup1\n      dup4\n      sload\n      div\n      mul\n      dup4\n      mstore\n      swap2\n      0x20\n      add\n      swap2\n      jump(tag_334)\n    tag_335:\n      dup3\n      add\n      swap2\n      swap1\n      0x00\n      mstore\n      keccak256(0x00, 0x20)\n      swap1\n    tag_336:\n      dup2\n      sload\n      dup2\n      mstore\n      swap1\n      0x01\n      add\n      swap1\n      0x20\n      add\n      dup1\n      dup4\n      gt\n      tag_336\n      jumpi\n      dup3\n      swap1\n      sub\n      0x1f\n      and\n      dup3\n      add\n      swap2\n    tag_334:\n      pop\n      pop\n      pop\n      pop\n      pop\n      dup2\n      mstore\n      0x20\n      add\n      0x01\n      dup3\n      add\n      sload\n      dup2\n      mstore\n      0x20\n      add\n      0x02\n      dup3\n      add\n      sload\n      dup2\n      mstore\n      0x20\n      add\n      0x03\n      dup3\n      add\n      dup1\n      sload\n      tag_337\n      swap1\n      tag_71\n      jump\t// in\n    tag_337:\n      dup1\n      0x1f\n      add\n      0x20\n      dup1\n      swap2\n      div\n      mul\n      0x20\n      add\n      mload(0x40)\n      swap1\n      dup2\n      add\n      0x40\n      mstore\n      dup1\n      swap3\n      swap2\n      swap1\n      dup2\n      dup2\n      mstore\n      0x20\n      add\n      dup3\n      dup1\n      sload\n      tag_338\n      swap1\n      tag_71\n      jump\t// in\n    tag_338:\n      dup1\n      iszero\n      tag_339\n      jumpi\n      dup1\n      0x1f\n      lt\n      tag_340\n      jumpi\n      0x0100\n      dup1\n      dup4\n      sload\n      div\n      mul\n      dup4\n      mstore\n      swap2\n      0x20\n      add\n      swap2\n      jump(tag_339)\n    tag_340:\n      dup3\n      add\n      swap2\n      swap1\n      0x00\n      mstore\n      keccak256(0x00, 0x20)\n      swap1\n    tag_341:\n      dup2\n      sload\n      dup2\n      mstore\n      swap1\n      0x01\n      add\n      swap1\n      0x20\n      add\n      dup1\n      dup4\n      gt\n      tag_341\n      jumpi\n      dup3\n      swap1\n      sub\n      0x1f\n      and\n      dup3\n      add\n      swap2\n    tag_339:\n      pop\n      pop\n      pop\n      pop\n      pop\n      dup2\n      mstore\n      0x20\n      add\n      0x04\n      dup3\n      add\n      dup1\n      sload\n      dup1\n      0x20\n      mul\n      0x20\n      add\n      mload(0x40)\n      swap1\n      dup2\n      add\n      0x40\n      mstore\n      dup1\n      swap3\n      swap2\n      swap1\n      dup2\n      dup2\n      mstore\n      0x20\n      add\n      0x00\n      swap1\n    tag_342:\n      dup3\n      dup3\n      lt\n      iszero\n      tag_343\n      jumpi\n      dup4\n      dup3\n      swap1\n      0x00\n      mstore\n      keccak256(0x00, 0x20)\n      add\n      dup1\n      sload\n      tag_345\n      swap1\n      tag_71\n      jump\t// in\n    tag_345:\n      dup1\n      0x1f\n      add\n      0x20\n      dup1\n      swap2\n      div\n      mul\n      0x20\n      add\n      mload(0x40)\n      swap1\n      dup2\n      add\n      0x40\n      mstore\n      dup1\n      swap3\n      swap2\n      swap1\n      dup2\n      dup2\n      mstore\n      0x20\n      add\n      dup3\n      dup1\n      sload\n      tag_346\n      swap1\n      tag_71\n      jump\t// in\n    tag_346:\n      dup1\n      iszero\n      tag_347\n      jumpi\n      dup1\n      0x1f\n      lt\n      tag_348\n      jumpi\n      0x0100\n      dup1\n      dup4\n      sload\n      div\n      mul\n      dup4\n      mstore\n      swap2\n      0x20\n      add\n      swap2\n      jump(tag_347)\n    tag_348:\n      dup3\n      add\n      swap2\n      swap1\n      0x00\n      mstore\n      keccak256(0x00, 0x20)\n      swap1\n    tag_349:\n      dup2\n      sload\n      dup2\n      mstore\n      swap1\n      0x01\n      add\n      swap1\n      0x20\n      add\n      dup1\n      dup4\n      gt\n      tag_349\n      jumpi\n      dup3\n      swap1\n      sub\n      0x1f\n      and\n      dup3\n      add\n      swap2\n    tag_347:\n      pop\n      pop\n      pop\n      pop\n      pop\n      dup2\n      mstore\n      0x20\n      add\n      swap1\n      0x01\n      add\n      swap1\n      jump(tag_342)\n    tag_343:\n      pop\n      pop\n      pop\n      pop\n      dup2\n      mstore\n      pop\n      pop\n      dup2\n      mstore\n      0x20\n      add\n      swap1\n      0x01\n      add\n      swap1\n      jump(tag_329)\n    tag_330:\n      pop\n      pop\n      pop\n      pop\n      swap1\n      pop\n        /* \"contracts-test/230511-test1-answer.sol\":1630:1726  function getAllStudents() public view returns(Student[] memory) {... */\n      swap1\n      jump\t// out\n        /* \"contracts-test/230511-test1-answer.sol\":507:851  function setCredit(uint _score) public pure returns(string memory) {... */\n    tag_63:\n        /* \"contracts-test/230511-test1-answer.sol\":559:572  string memory */\n      0x60\n        /* \"contracts-test/230511-test1-answer.sol\":596:598  90 */\n      0x5a\n        /* \"contracts-test/230511-test1-answer.sol\":587:593  _score */\n      dup3\n        /* \"contracts-test/230511-test1-answer.sol\":587:598  _score >=90 */\n      lt\n        /* \"contracts-test/230511-test1-answer.sol\":584:845  if(_score >=90) {... */\n      tag_351\n      jumpi\n        /* \"contracts-test/230511-test1-answer.sol\":614:624  return \"A\" */\n      mload(0x40)\n      dup1\n      0x40\n      add\n      0x40\n      mstore\n      dup1\n      0x01\n      dup2\n      mstore\n      0x20\n      add\n      0x4100000000000000000000000000000000000000000000000000000000000000\n      dup2\n      mstore\n      pop\n      swap1\n      pop\n      jump(tag_350)\n        /* \"contracts-test/230511-test1-answer.sol\":584:845  if(_score >=90) {... */\n    tag_351:\n        /* \"contracts-test/230511-test1-answer.sol\":653:655  80 */\n      0x50\n        /* \"contracts-test/230511-test1-answer.sol\":644:650  _score */\n      dup3\n        /* \"contracts-test/230511-test1-answer.sol\":644:655  _score >=80 */\n      lt\n        /* \"contracts-test/230511-test1-answer.sol\":641:845  if(_score >=80) {... */\n      tag_353\n      jumpi\n        /* \"contracts-test/230511-test1-answer.sol\":671:681  return \"B\" */\n      mload(0x40)\n      dup1\n      0x40\n      add\n      0x40\n      mstore\n      dup1\n      0x01\n      dup2\n      mstore\n      0x20\n      add\n      0x4200000000000000000000000000000000000000000000000000000000000000\n      dup2\n      mstore\n      pop\n      swap1\n      pop\n      jump(tag_350)\n        /* \"contracts-test/230511-test1-answer.sol\":641:845  if(_score >=80) {... */\n    tag_353:\n        /* \"contracts-test/230511-test1-answer.sol\":710:712  70 */\n      0x46\n        /* \"contracts-test/230511-test1-answer.sol\":701:707  _score */\n      dup3\n        /* \"contracts-test/230511-test1-answer.sol\":701:712  _score >=70 */\n      lt\n        /* \"contracts-test/230511-test1-answer.sol\":698:845  if(_score >=70) {... */\n      tag_355\n      jumpi\n        /* \"contracts-test/230511-test1-answer.sol\":728:738  return \"C\" */\n      mload(0x40)\n      dup1\n      0x40\n      add\n      0x40\n      mstore\n      dup1\n      0x01\n      dup2\n      mstore\n      0x20\n      add\n      0x4300000000000000000000000000000000000000000000000000000000000000\n      dup2\n      mstore\n      pop\n      swap1\n      pop\n      jump(tag_350)\n        /* \"contracts-test/230511-test1-answer.sol\":698:845  if(_score >=70) {... */\n    tag_355:\n        /* \"contracts-test/230511-test1-answer.sol\":766:768  60 */\n      0x3c\n        /* \"contracts-test/230511-test1-answer.sol\":757:763  _score */\n      dup3\n        /* \"contracts-test/230511-test1-answer.sol\":757:768  _score >=60 */\n      lt\n        /* \"contracts-test/230511-test1-answer.sol\":754:845  if(_score >=60) {... */\n      tag_357\n      jumpi\n        /* \"contracts-test/230511-test1-answer.sol\":784:794  return \"D\" */\n      mload(0x40)\n      dup1\n      0x40\n      add\n      0x40\n      mstore\n      dup1\n      0x01\n      dup2\n      mstore\n      0x20\n      add\n      0x4400000000000000000000000000000000000000000000000000000000000000\n      dup2\n      mstore\n      pop\n      swap1\n      pop\n      jump(tag_350)\n        /* \"contracts-test/230511-test1-answer.sol\":754:845  if(_score >=60) {... */\n    tag_357:\n        /* \"contracts-test/230511-test1-answer.sol\":824:834  return \"F\" */\n      mload(0x40)\n      dup1\n      0x40\n      add\n      0x40\n      mstore\n      dup1\n      0x01\n      dup2\n      mstore\n      0x20\n      add\n      0x4600000000000000000000000000000000000000000000000000000000000000\n      dup2\n      mstore\n      pop\n      swap1\n      pop\n        /* \"contracts-test/230511-test1-answer.sol\":507:851  function setCredit(uint _score) public pure returns(string memory) {... */\n    tag_350:\n      swap2\n      swap1\n      pop\n      jump\t// out\n    tag_95:\n      mload(0x40)\n      dup1\n      0xa0\n      add\n      0x40\n      mstore\n      dup1\n      0x60\n      dup2\n      mstore\n      0x20\n      add\n      0x00\n      dup2\n      mstore\n      0x20\n      add\n      0x00\n      dup2\n      mstore\n      0x20\n      add\n      0x60\n      dup2\n      mstore\n      0x20\n      add\n      0x60\n      dup2\n      mstore\n      pop\n      swap1\n      jump\t// out\n    tag_244:\n      dup3\n      dup1\n      sload\n      dup3\n      dup3\n      sstore\n      swap1\n      0x00\n      mstore\n      keccak256(0x00, 0x20)\n      swap1\n      dup2\n      add\n      swap3\n      dup3\n      iszero\n      tag_359\n      jumpi\n      swap2\n      0x20\n      mul\n      dup3\n      add\n    tag_360:\n      dup3\n      dup2\n      gt\n      iszero\n      tag_361\n      jumpi\n      dup3\n      mload\n      dup3\n      swap1\n      dup2\n      tag_362\n      swap2\n      swap1\n      tag_241\n      jump\t// in\n    tag_362:\n      pop\n      swap2\n      0x20\n      add\n      swap2\n      swap1\n      0x01\n      add\n      swap1\n      jump(tag_360)\n    tag_361:\n    tag_359:\n      pop\n      swap1\n      pop\n      tag_363\n      swap2\n      swap1\n      tag_364\n      jump\t// in\n    tag_363:\n      pop\n      swap1\n      jump\t// out\n    tag_364:\n    tag_365:\n      dup1\n      dup3\n      gt\n      iszero\n      tag_366\n      jumpi\n      0x00\n      dup2\n      dup2\n      tag_367\n      swap2\n      swap1\n      tag_368\n      jump\t// in\n    tag_367:\n      pop\n      0x01\n      add\n      jump(tag_365)\n    tag_366:\n      pop\n      swap1\n      jump\t// out\n    tag_368:\n      pop\n      dup1\n      sload\n      tag_369\n      swap1\n      tag_71\n      jump\t// in\n    tag_369:\n      0x00\n      dup3\n      sstore\n      dup1\n      0x1f\n      lt\n      tag_371\n      jumpi\n      pop\n      jump(tag_370)\n    tag_371:\n      0x1f\n      add\n      0x20\n      swap1\n      div\n      swap1\n      0x00\n      mstore\n      keccak256(0x00, 0x20)\n      swap1\n      dup2\n      add\n      swap1\n      tag_372\n      swap2\n      swap1\n      tag_373\n      jump\t// in\n    tag_372:\n    tag_370:\n      pop\n      jump\t// out\n    tag_373:\n    tag_374:\n      dup1\n      dup3\n      gt\n      iszero\n      tag_375\n      jumpi\n      0x00\n      dup2\n      0x00\n      swap1\n      sstore\n      pop\n      0x01\n      add\n      jump(tag_374)\n    tag_375:\n      pop\n      swap1\n      jump\t// out\n        /* \"#utility.yul\":7:144   */\n    tag_376:\n        /* \"#utility.yul\":97:103   */\n      0x00\n        /* \"#utility.yul\":131:136   */\n      dup2\n        /* \"#utility.yul\":125:137   */\n      mload\n        /* \"#utility.yul\":115:137   */\n      swap1\n      pop\n        /* \"#utility.yul\":7:144   */\n      swap2\n      swap1\n      pop\n      jump\t// out\n        /* \"#utility.yul\":150:357   */\n    tag_377:\n        /* \"#utility.yul\":272:283   */\n      0x00\n        /* \"#utility.yul\":306:312   */\n      dup3\n        /* \"#utility.yul\":301:304   */\n      dup3\n        /* \"#utility.yul\":294:313   */\n      mstore\n        /* \"#utility.yul\":346:350   */\n      0x20\n        /* \"#utility.yul\":341:344   */\n      dup3\n        /* \"#utility.yul\":337:351   */\n      add\n        /* \"#utility.yul\":322:351   */\n      swap1\n      pop\n        /* \"#utility.yul\":150:357   */\n      swap3\n      swap2\n      pop\n      pop\n      jump\t// out\n        /* \"#utility.yul\":363:518   */\n    tag_378:\n        /* \"#utility.yul\":453:457   */\n      0x00\n        /* \"#utility.yul\":476:479   */\n      dup2\n        /* \"#utility.yul\":468:479   */\n      swap1\n      pop\n        /* \"#utility.yul\":506:510   */\n      0x20\n        /* \"#utility.yul\":501:504   */\n      dup3\n        /* \"#utility.yul\":497:511   */\n      add\n        /* \"#utility.yul\":489:511   */\n      swap1\n      pop\n        /* \"#utility.yul\":363:518   */\n      swap2\n      swap1\n      pop\n      jump\t// out\n        /* \"#utility.yul\":524:623   */\n    tag_379:\n        /* \"#utility.yul\":576:582   */\n      0x00\n        /* \"#utility.yul\":610:615   */\n      dup2\n        /* \"#utility.yul\":604:616   */\n      mload\n        /* \"#utility.yul\":594:616   */\n      swap1\n      pop\n        /* \"#utility.yul\":524:623   */\n      swap2\n      swap1\n      pop\n      jump\t// out\n        /* \"#utility.yul\":629:788   */\n    tag_380:\n        /* \"#utility.yul\":703:714   */\n      0x00\n        /* \"#utility.yul\":737:743   */\n      dup3\n        /* \"#utility.yul\":732:735   */\n      dup3\n        /* \"#utility.yul\":725:744   */\n      mstore\n        /* \"#utility.yul\":777:781   */\n      0x20\n        /* \"#utility.yul\":772:775   */\n      dup3\n        /* \"#utility.yul\":768:782   */\n      add\n        /* \"#utility.yul\":753:782   */\n      swap1\n      pop\n        /* \"#utility.yul\":629:788   */\n      swap3\n      swap2\n      pop\n      pop\n      jump\t// out\n        /* \"#utility.yul\":794:1040   */\n    tag_381:\n        /* \"#utility.yul\":875:876   */\n      0x00\n        /* \"#utility.yul\":885:998   */\n    tag_449:\n        /* \"#utility.yul\":899:905   */\n      dup4\n        /* \"#utility.yul\":896:897   */\n      dup2\n        /* \"#utility.yul\":893:906   */\n      lt\n        /* \"#utility.yul\":885:998   */\n      iszero\n      tag_451\n      jumpi\n        /* \"#utility.yul\":984:985   */\n      dup1\n        /* \"#utility.yul\":979:982   */\n      dup3\n        /* \"#utility.yul\":975:986   */\n      add\n        /* \"#utility.yul\":969:987   */\n      mload\n        /* \"#utility.yul\":965:966   */\n      dup2\n        /* \"#utility.yul\":960:963   */\n      dup5\n        /* \"#utility.yul\":956:967   */\n      add\n        /* \"#utility.yul\":949:988   */\n      mstore\n        /* \"#utility.yul\":921:923   */\n      0x20\n        /* \"#utility.yul\":918:919   */\n      dup2\n        /* \"#utility.yul\":914:924   */\n      add\n        /* \"#utility.yul\":909:924   */\n      swap1\n      pop\n        /* \"#utility.yul\":885:998   */\n      jump(tag_449)\n    tag_451:\n        /* \"#utility.yul\":1032:1033   */\n      0x00\n        /* \"#utility.yul\":1023:1029   */\n      dup5\n        /* \"#utility.yul\":1018:1021   */\n      dup5\n        /* \"#utility.yul\":1014:1030   */\n      add\n        /* \"#utility.yul\":1007:1034   */\n      mstore\n        /* \"#utility.yul\":856:1040   */\n      pop\n        /* \"#utility.yul\":794:1040   */\n      pop\n      pop\n      pop\n      jump\t// out\n        /* \"#utility.yul\":1046:1148   */\n    tag_382:\n        /* \"#utility.yul\":1087:1093   */\n      0x00\n        /* \"#utility.yul\":1138:1140   */\n      0x1f\n        /* \"#utility.yul\":1134:1141   */\n      not\n        /* \"#utility.yul\":1129:1131   */\n      0x1f\n        /* \"#utility.yul\":1122:1127   */\n      dup4\n        /* \"#utility.yul\":1118:1132   */\n      add\n        /* \"#utility.yul\":1114:1142   */\n      and\n        /* \"#utility.yul\":1104:1142   */\n      swap1\n      pop\n        /* \"#utility.yul\":1046:1148   */\n      swap2\n      swap1\n      pop\n      jump\t// out\n        /* \"#utility.yul\":1154:1511   */\n    tag_383:\n        /* \"#utility.yul\":1232:1235   */\n      0x00\n        /* \"#utility.yul\":1260:1299   */\n      tag_454\n        /* \"#utility.yul\":1293:1298   */\n      dup3\n        /* \"#utility.yul\":1260:1299   */\n      tag_379\n      jump\t// in\n    tag_454:\n        /* \"#utility.yul\":1315:1376   */\n      tag_455\n        /* \"#utility.yul\":1369:1375   */\n      dup2\n        /* \"#utility.yul\":1364:1367   */\n      dup6\n        /* \"#utility.yul\":1315:1376   */\n      tag_380\n      jump\t// in\n    tag_455:\n        /* \"#utility.yul\":1308:1376   */\n      swap4\n      pop\n        /* \"#utility.yul\":1385:1450   */\n      tag_456\n        /* \"#utility.yul\":1443:1449   */\n      dup2\n        /* \"#utility.yul\":1438:1441   */\n      dup6\n        /* \"#utility.yul\":1431:1435   */\n      0x20\n        /* \"#utility.yul\":1424:1429   */\n      dup7\n        /* \"#utility.yul\":1420:1436   */\n      add\n        /* \"#utility.yul\":1385:1450   */\n      tag_381\n      jump\t// in\n    tag_456:\n        /* \"#utility.yul\":1475:1504   */\n      tag_457\n        /* \"#utility.yul\":1497:1503   */\n      dup2\n        /* \"#utility.yul\":1475:1504   */\n      tag_382\n      jump\t// in\n    tag_457:\n        /* \"#utility.yul\":1470:1473   */\n      dup5\n        /* \"#utility.yul\":1466:1505   */\n      add\n        /* \"#utility.yul\":1459:1505   */\n      swap2\n      pop\n        /* \"#utility.yul\":1236:1511   */\n      pop\n        /* \"#utility.yul\":1154:1511   */\n      swap3\n      swap2\n      pop\n      pop\n      jump\t// out\n        /* \"#utility.yul\":1517:1594   */\n    tag_384:\n        /* \"#utility.yul\":1554:1561   */\n      0x00\n        /* \"#utility.yul\":1583:1588   */\n      dup2\n        /* \"#utility.yul\":1572:1588   */\n      swap1\n      pop\n        /* \"#utility.yul\":1517:1594   */\n      swap2\n      swap1\n      pop\n      jump\t// out\n        /* \"#utility.yul\":1600:1708   */\n    tag_385:\n        /* \"#utility.yul\":1677:1701   */\n      tag_460\n        /* \"#utility.yul\":1695:1700   */\n      dup2\n        /* \"#utility.yul\":1677:1701   */\n      tag_384\n      jump\t// in\n    tag_460:\n        /* \"#utility.yul\":1672:1675   */\n      dup3\n        /* \"#utility.yul\":1665:1702   */\n      mstore\n        /* \"#utility.yul\":1600:1708   */\n      pop\n      pop\n      jump\t// out\n        /* \"#utility.yul\":1714:1838   */\n    tag_386:\n        /* \"#utility.yul\":1791:1797   */\n      0x00\n        /* \"#utility.yul\":1825:1830   */\n      dup2\n        /* \"#utility.yul\":1819:1831   */\n      mload\n        /* \"#utility.yul\":1809:1831   */\n      swap1\n      pop\n        /* \"#utility.yul\":1714:1838   */\n      swap2\n      swap1\n      pop\n      jump\t// out\n        /* \"#utility.yul\":1844:2028   */\n    tag_387:\n        /* \"#utility.yul\":1943:1954   */\n      0x00\n        /* \"#utility.yul\":1977:1983   */\n      dup3\n        /* \"#utility.yul\":1972:1975   */\n      dup3\n        /* \"#utility.yul\":1965:1984   */\n      mstore\n        /* \"#utility.yul\":2017:2021   */\n      0x20\n        /* \"#utility.yul\":2012:2015   */\n      dup3\n        /* \"#utility.yul\":2008:2022   */\n      add\n        /* \"#utility.yul\":1993:2022   */\n      swap1\n      pop\n        /* \"#utility.yul\":1844:2028   */\n      swap3\n      swap2\n      pop\n      pop\n      jump\t// out\n        /* \"#utility.yul\":2034:2176   */\n    tag_388:\n        /* \"#utility.yul\":2111:2115   */\n      0x00\n        /* \"#utility.yul\":2134:2137   */\n      dup2\n        /* \"#utility.yul\":2126:2137   */\n      swap1\n      pop\n        /* \"#utility.yul\":2164:2168   */\n      0x20\n        /* \"#utility.yul\":2159:2162   */\n      dup3\n        /* \"#utility.yul\":2155:2169   */\n      add\n        /* \"#utility.yul\":2147:2169   */\n      swap1\n      pop\n        /* \"#utility.yul\":2034:2176   */\n      swap2\n      swap1\n      pop\n      jump\t// out\n        /* \"#utility.yul\":2182:2378   */\n    tag_389:\n        /* \"#utility.yul\":2271:2281   */\n      0x00\n        /* \"#utility.yul\":2306:2372   */\n      tag_465\n        /* \"#utility.yul\":2368:2371   */\n      dup4\n        /* \"#utility.yul\":2360:2366   */\n      dup4\n        /* \"#utility.yul\":2306:2372   */\n      tag_383\n      jump\t// in\n    tag_465:\n        /* \"#utility.yul\":2292:2372   */\n      swap1\n      pop\n        /* \"#utility.yul\":2182:2378   */\n      swap3\n      swap2\n      pop\n      pop\n      jump\t// out\n        /* \"#utility.yul\":2384:2507   */\n    tag_390:\n        /* \"#utility.yul\":2464:2468   */\n      0x00\n        /* \"#utility.yul\":2496:2500   */\n      0x20\n        /* \"#utility.yul\":2491:2494   */\n      dup3\n        /* \"#utility.yul\":2487:2501   */\n      add\n        /* \"#utility.yul\":2479:2501   */\n      swap1\n      pop\n        /* \"#utility.yul\":2384:2507   */\n      swap2\n      swap1\n      pop\n      jump\t// out\n        /* \"#utility.yul\":2541:3512   */\n    tag_391:\n        /* \"#utility.yul\":2670:2673   */\n      0x00\n        /* \"#utility.yul\":2699:2763   */\n      tag_468\n        /* \"#utility.yul\":2757:2762   */\n      dup3\n        /* \"#utility.yul\":2699:2763   */\n      tag_386\n      jump\t// in\n    tag_468:\n        /* \"#utility.yul\":2779:2865   */\n      tag_469\n        /* \"#utility.yul\":2858:2864   */\n      dup2\n        /* \"#utility.yul\":2853:2856   */\n      dup6\n        /* \"#utility.yul\":2779:2865   */\n      tag_387\n      jump\t// in\n    tag_469:\n        /* \"#utility.yul\":2772:2865   */\n      swap4\n      pop\n        /* \"#utility.yul\":2891:2894   */\n      dup4\n        /* \"#utility.yul\":2936:2940   */\n      0x20\n        /* \"#utility.yul\":2928:2934   */\n      dup3\n        /* \"#utility.yul\":2924:2941   */\n      mul\n        /* \"#utility.yul\":2919:2922   */\n      dup6\n        /* \"#utility.yul\":2915:2942   */\n      add\n        /* \"#utility.yul\":2966:3032   */\n      tag_470\n        /* \"#utility.yul\":3026:3031   */\n      dup6\n        /* \"#utility.yul\":2966:3032   */\n      tag_388\n      jump\t// in\n    tag_470:\n        /* \"#utility.yul\":3055:3062   */\n      dup1\n        /* \"#utility.yul\":3086:3087   */\n      0x00\n        /* \"#utility.yul\":3071:3467   */\n    tag_471:\n        /* \"#utility.yul\":3096:3102   */\n      dup6\n        /* \"#utility.yul\":3093:3094   */\n      dup2\n        /* \"#utility.yul\":3090:3103   */\n      lt\n        /* \"#utility.yul\":3071:3467   */\n      iszero\n      tag_473\n      jumpi\n        /* \"#utility.yul\":3167:3176   */\n      dup5\n        /* \"#utility.yul\":3161:3165   */\n      dup5\n        /* \"#utility.yul\":3157:3177   */\n      sub\n        /* \"#utility.yul\":3152:3155   */\n      dup10\n        /* \"#utility.yul\":3145:3178   */\n      mstore\n        /* \"#utility.yul\":3218:3224   */\n      dup2\n        /* \"#utility.yul\":3212:3225   */\n      mload\n        /* \"#utility.yul\":3246:3330   */\n      tag_474\n        /* \"#utility.yul\":3325:3329   */\n      dup6\n        /* \"#utility.yul\":3310:3323   */\n      dup3\n        /* \"#utility.yul\":3246:3330   */\n      tag_389\n      jump\t// in\n    tag_474:\n        /* \"#utility.yul\":3238:3330   */\n      swap5\n      pop\n        /* \"#utility.yul\":3353:3423   */\n      tag_475\n        /* \"#utility.yul\":3416:3422   */\n      dup4\n        /* \"#utility.yul\":3353:3423   */\n      tag_390\n      jump\t// in\n    tag_475:\n        /* \"#utility.yul\":3343:3423   */\n      swap3\n      pop\n        /* \"#utility.yul\":3452:3456   */\n      0x20\n        /* \"#utility.yul\":3447:3450   */\n      dup11\n        /* \"#utility.yul\":3443:3457   */\n      add\n        /* \"#utility.yul\":3436:3457   */\n      swap10\n      pop\n        /* \"#utility.yul\":3131:3467   */\n      pop\n        /* \"#utility.yul\":3118:3119   */\n      0x01\n        /* \"#utility.yul\":3115:3116   */\n      dup2\n        /* \"#utility.yul\":3111:3120   */\n      add\n        /* \"#utility.yul\":3106:3120   */\n      swap1\n      pop\n        /* \"#utility.yul\":3071:3467   */\n      jump(tag_471)\n    tag_473:\n        /* \"#utility.yul\":3075:3089   */\n      pop\n        /* \"#utility.yul\":3483:3487   */\n      dup3\n        /* \"#utility.yul\":3476:3487   */\n      swap8\n      pop\n        /* \"#utility.yul\":3503:3506   */\n      dup8\n        /* \"#utility.yul\":3496:3506   */\n      swap6\n      pop\n        /* \"#utility.yul\":2675:3512   */\n      pop\n      pop\n      pop\n      pop\n      pop\n        /* \"#utility.yul\":2541:3512   */\n      swap3\n      swap2\n      pop\n      pop\n      jump\t// out\n        /* \"#utility.yul\":3570:4884   */\n    tag_392:\n        /* \"#utility.yul\":3675:3678   */\n      0x00\n        /* \"#utility.yul\":3711:3715   */\n      0xa0\n        /* \"#utility.yul\":3706:3709   */\n      dup4\n        /* \"#utility.yul\":3702:3716   */\n      add\n        /* \"#utility.yul\":3798:3802   */\n      0x00\n        /* \"#utility.yul\":3791:3796   */\n      dup4\n        /* \"#utility.yul\":3787:3803   */\n      add\n        /* \"#utility.yul\":3781:3804   */\n      mload\n        /* \"#utility.yul\":3851:3854   */\n      dup5\n        /* \"#utility.yul\":3845:3849   */\n      dup3\n        /* \"#utility.yul\":3841:3855   */\n      sub\n        /* \"#utility.yul\":3834:3838   */\n      0x00\n        /* \"#utility.yul\":3829:3832   */\n      dup7\n        /* \"#utility.yul\":3825:3839   */\n      add\n        /* \"#utility.yul\":3818:3856   */\n      mstore\n        /* \"#utility.yul\":3877:3950   */\n      tag_477\n        /* \"#utility.yul\":3945:3949   */\n      dup3\n        /* \"#utility.yul\":3931:3943   */\n      dup3\n        /* \"#utility.yul\":3877:3950   */\n      tag_383\n      jump\t// in\n    tag_477:\n        /* \"#utility.yul\":3869:3950   */\n      swap2\n      pop\n        /* \"#utility.yul\":3726:3961   */\n      pop\n        /* \"#utility.yul\":4045:4049   */\n      0x20\n        /* \"#utility.yul\":4038:4043   */\n      dup4\n        /* \"#utility.yul\":4034:4050   */\n      add\n        /* \"#utility.yul\":4028:4051   */\n      mload\n        /* \"#utility.yul\":4064:4127   */\n      tag_478\n        /* \"#utility.yul\":4121:4125   */\n      0x20\n        /* \"#utility.yul\":4116:4119   */\n      dup7\n        /* \"#utility.yul\":4112:4126   */\n      add\n        /* \"#utility.yul\":4098:4110   */\n      dup3\n        /* \"#utility.yul\":4064:4127   */\n      tag_385\n      jump\t// in\n    tag_478:\n        /* \"#utility.yul\":3971:4137   */\n      pop\n        /* \"#utility.yul\":4220:4224   */\n      0x40\n        /* \"#utility.yul\":4213:4218   */\n      dup4\n        /* \"#utility.yul\":4209:4225   */\n      add\n        /* \"#utility.yul\":4203:4226   */\n      mload\n        /* \"#utility.yul\":4239:4302   */\n      tag_479\n        /* \"#utility.yul\":4296:4300   */\n      0x40\n        /* \"#utility.yul\":4291:4294   */\n      dup7\n        /* \"#utility.yul\":4287:4301   */\n      add\n        /* \"#utility.yul\":4273:4285   */\n      dup3\n        /* \"#utility.yul\":4239:4302   */\n      tag_385\n      jump\t// in\n    tag_479:\n        /* \"#utility.yul\":4147:4312   */\n      pop\n        /* \"#utility.yul\":4396:4400   */\n      0x60\n        /* \"#utility.yul\":4389:4394   */\n      dup4\n        /* \"#utility.yul\":4385:4401   */\n      add\n        /* \"#utility.yul\":4379:4402   */\n      mload\n        /* \"#utility.yul\":4449:4452   */\n      dup5\n        /* \"#utility.yul\":4443:4447   */\n      dup3\n        /* \"#utility.yul\":4439:4453   */\n      sub\n        /* \"#utility.yul\":4432:4436   */\n      0x60\n        /* \"#utility.yul\":4427:4430   */\n      dup7\n        /* \"#utility.yul\":4423:4437   */\n      add\n        /* \"#utility.yul\":4416:4454   */\n      mstore\n        /* \"#utility.yul\":4475:4548   */\n      tag_480\n        /* \"#utility.yul\":4543:4547   */\n      dup3\n        /* \"#utility.yul\":4529:4541   */\n      dup3\n        /* \"#utility.yul\":4475:4548   */\n      tag_383\n      jump\t// in\n    tag_480:\n        /* \"#utility.yul\":4467:4548   */\n      swap2\n      pop\n        /* \"#utility.yul\":4322:4559   */\n      pop\n        /* \"#utility.yul\":4644:4648   */\n      0x80\n        /* \"#utility.yul\":4637:4642   */\n      dup4\n        /* \"#utility.yul\":4633:4649   */\n      add\n        /* \"#utility.yul\":4627:4650   */\n      mload\n        /* \"#utility.yul\":4697:4700   */\n      dup5\n        /* \"#utility.yul\":4691:4695   */\n      dup3\n        /* \"#utility.yul\":4687:4701   */\n      sub\n        /* \"#utility.yul\":4680:4684   */\n      0x80\n        /* \"#utility.yul\":4675:4678   */\n      dup7\n        /* \"#utility.yul\":4671:4685   */\n      add\n        /* \"#utility.yul\":4664:4702   */\n      mstore\n        /* \"#utility.yul\":4723:4846   */\n      tag_481\n        /* \"#utility.yul\":4841:4845   */\n      dup3\n        /* \"#utility.yul\":4827:4839   */\n      dup3\n        /* \"#utility.yul\":4723:4846   */\n      tag_391\n      jump\t// in\n    tag_481:\n        /* \"#utility.yul\":4715:4846   */\n      swap2\n      pop\n        /* \"#utility.yul\":4569:4857   */\n      pop\n        /* \"#utility.yul\":4874:4878   */\n      dup1\n        /* \"#utility.yul\":4867:4878   */\n      swap2\n      pop\n        /* \"#utility.yul\":3680:4884   */\n      pop\n        /* \"#utility.yul\":3570:4884   */\n      swap3\n      swap2\n      pop\n      pop\n      jump\t// out\n        /* \"#utility.yul\":4890:5138   */\n    tag_393:\n        /* \"#utility.yul\":5005:5015   */\n      0x00\n        /* \"#utility.yul\":5040:5132   */\n      tag_483\n        /* \"#utility.yul\":5128:5131   */\n      dup4\n        /* \"#utility.yul\":5120:5126   */\n      dup4\n        /* \"#utility.yul\":5040:5132   */\n      tag_392\n      jump\t// in\n    tag_483:\n        /* \"#utility.yul\":5026:5132   */\n      swap1\n      pop\n        /* \"#utility.yul\":4890:5138   */\n      swap3\n      swap2\n      pop\n      pop\n      jump\t// out\n        /* \"#utility.yul\":5144:5280   */\n    tag_394:\n        /* \"#utility.yul\":5237:5241   */\n      0x00\n        /* \"#utility.yul\":5269:5273   */\n      0x20\n        /* \"#utility.yul\":5264:5267   */\n      dup3\n        /* \"#utility.yul\":5260:5274   */\n      add\n        /* \"#utility.yul\":5252:5274   */\n      swap1\n      pop\n        /* \"#utility.yul\":5144:5280   */\n      swap2\n      swap1\n      pop\n      jump\t// out\n        /* \"#utility.yul\":5342:6437   */\n    tag_395:\n        /* \"#utility.yul\":5507:5510   */\n      0x00\n        /* \"#utility.yul\":5536:5613   */\n      tag_486\n        /* \"#utility.yul\":5607:5612   */\n      dup3\n        /* \"#utility.yul\":5536:5613   */\n      tag_376\n      jump\t// in\n    tag_486:\n        /* \"#utility.yul\":5629:5738   */\n      tag_487\n        /* \"#utility.yul\":5731:5737   */\n      dup2\n        /* \"#utility.yul\":5726:5729   */\n      dup6\n        /* \"#utility.yul\":5629:5738   */\n      tag_377\n      jump\t// in\n    tag_487:\n        /* \"#utility.yul\":5622:5738   */\n      swap4\n      pop\n        /* \"#utility.yul\":5764:5767   */\n      dup4\n        /* \"#utility.yul\":5809:5813   */\n      0x20\n        /* \"#utility.yul\":5801:5807   */\n      dup3\n        /* \"#utility.yul\":5797:5814   */\n      mul\n        /* \"#utility.yul\":5792:5795   */\n      dup6\n        /* \"#utility.yul\":5788:5815   */\n      add\n        /* \"#utility.yul\":5839:5918   */\n      tag_488\n        /* \"#utility.yul\":5912:5917   */\n      dup6\n        /* \"#utility.yul\":5839:5918   */\n      tag_378\n      jump\t// in\n    tag_488:\n        /* \"#utility.yul\":5941:5948   */\n      dup1\n        /* \"#utility.yul\":5972:5973   */\n      0x00\n        /* \"#utility.yul\":5957:6392   */\n    tag_489:\n        /* \"#utility.yul\":5982:5988   */\n      dup6\n        /* \"#utility.yul\":5979:5980   */\n      dup2\n        /* \"#utility.yul\":5976:5989   */\n      lt\n        /* \"#utility.yul\":5957:6392   */\n      iszero\n      tag_491\n      jumpi\n        /* \"#utility.yul\":6053:6062   */\n      dup5\n        /* \"#utility.yul\":6047:6051   */\n      dup5\n        /* \"#utility.yul\":6043:6063   */\n      sub\n        /* \"#utility.yul\":6038:6041   */\n      dup10\n        /* \"#utility.yul\":6031:6064   */\n      mstore\n        /* \"#utility.yul\":6104:6110   */\n      dup2\n        /* \"#utility.yul\":6098:6111   */\n      mload\n        /* \"#utility.yul\":6132:6242   */\n      tag_492\n        /* \"#utility.yul\":6237:6241   */\n      dup6\n        /* \"#utility.yul\":6222:6235   */\n      dup3\n        /* \"#utility.yul\":6132:6242   */\n      tag_393\n      jump\t// in\n    tag_492:\n        /* \"#utility.yul\":6124:6242   */\n      swap5\n      pop\n        /* \"#utility.yul\":6265:6348   */\n      tag_493\n        /* \"#utility.yul\":6341:6347   */\n      dup4\n        /* \"#utility.yul\":6265:6348   */\n      tag_394\n      jump\t// in\n    tag_493:\n        /* \"#utility.yul\":6255:6348   */\n      swap3\n      pop\n        /* \"#utility.yul\":6377:6381   */\n      0x20\n        /* \"#utility.yul\":6372:6375   */\n      dup11\n        /* \"#utility.yul\":6368:6382   */\n      add\n        /* \"#utility.yul\":6361:6382   */\n      swap10\n      pop\n        /* \"#utility.yul\":6017:6392   */\n      pop\n        /* \"#utility.yul\":6004:6005   */\n      0x01\n        /* \"#utility.yul\":6001:6002   */\n      dup2\n        /* \"#utility.yul\":5997:6006   */\n      add\n        /* \"#utility.yul\":5992:6006   */\n      swap1\n      pop\n        /* \"#utility.yul\":5957:6392   */\n      jump(tag_489)\n    tag_491:\n        /* \"#utility.yul\":5961:5975   */\n      pop\n        /* \"#utility.yul\":6408:6412   */\n      dup3\n        /* \"#utility.yul\":6401:6412   */\n      swap8\n      pop\n        /* \"#utility.yul\":6428:6431   */\n      dup8\n        /* \"#utility.yul\":6421:6431   */\n      swap6\n      pop\n        /* \"#utility.yul\":5512:6437   */\n      pop\n      pop\n      pop\n      pop\n      pop\n        /* \"#utility.yul\":5342:6437   */\n      swap3\n      swap2\n      pop\n      pop\n      jump\t// out\n        /* \"#utility.yul\":6443:6908   */\n    tag_19:\n        /* \"#utility.yul\":6632:6636   */\n      0x00\n        /* \"#utility.yul\":6670:6672   */\n      0x20\n        /* \"#utility.yul\":6659:6668   */\n      dup3\n        /* \"#utility.yul\":6655:6673   */\n      add\n        /* \"#utility.yul\":6647:6673   */\n      swap1\n      pop\n        /* \"#utility.yul\":6719:6728   */\n      dup2\n        /* \"#utility.yul\":6713:6717   */\n      dup2\n        /* \"#utility.yul\":6709:6729   */\n      sub\n        /* \"#utility.yul\":6705:6706   */\n      0x00\n        /* \"#utility.yul\":6694:6703   */\n      dup4\n        /* \"#utility.yul\":6690:6707   */\n      add\n        /* \"#utility.yul\":6683:6730   */\n      mstore\n        /* \"#utility.yul\":6747:6901   */\n      tag_495\n        /* \"#utility.yul\":6896:6900   */\n      dup2\n        /* \"#utility.yul\":6887:6893   */\n      dup5\n        /* \"#utility.yul\":6747:6901   */\n      tag_395\n      jump\t// in\n    tag_495:\n        /* \"#utility.yul\":6739:6901   */\n      swap1\n      pop\n        /* \"#utility.yul\":6443:6908   */\n      swap3\n      swap2\n      pop\n      pop\n      jump\t// out\n        /* \"#utility.yul\":6914:7032   */\n    tag_396:\n        /* \"#utility.yul\":7001:7025   */\n      tag_497\n        /* \"#utility.yul\":7019:7024   */\n      dup2\n        /* \"#utility.yul\":7001:7025   */\n      tag_384\n      jump\t// in\n    tag_497:\n        /* \"#utility.yul\":6996:6999   */\n      dup3\n        /* \"#utility.yul\":6989:7026   */\n      mstore\n        /* \"#utility.yul\":6914:7032   */\n      pop\n      pop\n      jump\t// out\n        /* \"#utility.yul\":7038:7260   */\n    tag_23:\n        /* \"#utility.yul\":7131:7135   */\n      0x00\n        /* \"#utility.yul\":7169:7171   */\n      0x20\n        /* \"#utility.yul\":7158:7167   */\n      dup3\n        /* \"#utility.yul\":7154:7172   */\n      add\n        /* \"#utility.yul\":7146:7172   */\n      swap1\n      pop\n        /* \"#utility.yul\":7182:7253   */\n      tag_499\n        /* \"#utility.yul\":7250:7251   */\n      0x00\n        /* \"#utility.yul\":7239:7248   */\n      dup4\n        /* \"#utility.yul\":7235:7252   */\n      add\n        /* \"#utility.yul\":7226:7232   */\n      dup5\n        /* \"#utility.yul\":7182:7253   */\n      tag_396\n      jump\t// in\n    tag_499:\n        /* \"#utility.yul\":7038:7260   */\n      swap3\n      swap2\n      pop\n      pop\n      jump\t// out\n        /* \"#utility.yul\":7266:7951   */\n    tag_27:\n        /* \"#utility.yul\":7511:7515   */\n      0x00\n        /* \"#utility.yul\":7549:7551   */\n      0x60\n        /* \"#utility.yul\":7538:7547   */\n      dup3\n        /* \"#utility.yul\":7534:7552   */\n      add\n        /* \"#utility.yul\":7526:7552   */\n      swap1\n      pop\n        /* \"#utility.yul\":7562:7633   */\n      tag_501\n        /* \"#utility.yul\":7630:7631   */\n      0x00\n        /* \"#utility.yul\":7619:7628   */\n      dup4\n        /* \"#utility.yul\":7615:7632   */\n      add\n        /* \"#utility.yul\":7606:7612   */\n      dup7\n        /* \"#utility.yul\":7562:7633   */\n      tag_396\n      jump\t// in\n    tag_501:\n        /* \"#utility.yul\":7643:7715   */\n      tag_502\n        /* \"#utility.yul\":7711:7713   */\n      0x20\n        /* \"#utility.yul\":7700:7709   */\n      dup4\n        /* \"#utility.yul\":7696:7714   */\n      add\n        /* \"#utility.yul\":7687:7693   */\n      dup6\n        /* \"#utility.yul\":7643:7715   */\n      tag_396\n      jump\t// in\n    tag_502:\n        /* \"#utility.yul\":7762:7771   */\n      dup2\n        /* \"#utility.yul\":7756:7760   */\n      dup2\n        /* \"#utility.yul\":7752:7772   */\n      sub\n        /* \"#utility.yul\":7747:7749   */\n      0x40\n        /* \"#utility.yul\":7736:7745   */\n      dup4\n        /* \"#utility.yul\":7732:7750   */\n      add\n        /* \"#utility.yul\":7725:7773   */\n      mstore\n        /* \"#utility.yul\":7790:7944   */\n      tag_503\n        /* \"#utility.yul\":7939:7943   */\n      dup2\n        /* \"#utility.yul\":7930:7936   */\n      dup5\n        /* \"#utility.yul\":7790:7944   */\n      tag_395\n      jump\t// in\n    tag_503:\n        /* \"#utility.yul\":7782:7944   */\n      swap1\n      pop\n        /* \"#utility.yul\":7266:7951   */\n      swap5\n      swap4\n      pop\n      pop\n      pop\n      pop\n      jump\t// out\n        /* \"#utility.yul\":7957:8032   */\n    tag_397:\n        /* \"#utility.yul\":7990:7996   */\n      0x00\n        /* \"#utility.yul\":8023:8025   */\n      0x40\n        /* \"#utility.yul\":8017:8026   */\n      mload\n        /* \"#utility.yul\":8007:8026   */\n      swap1\n      pop\n        /* \"#utility.yul\":7957:8032   */\n      swap1\n      jump\t// out\n        /* \"#utility.yul\":8038:8155   */\n    tag_398:\n        /* \"#utility.yul\":8147:8148   */\n      0x00\n        /* \"#utility.yul\":8144:8145   */\n      dup1\n        /* \"#utility.yul\":8137:8149   */\n      revert\n        /* \"#utility.yul\":8161:8278   */\n    tag_399:\n        /* \"#utility.yul\":8270:8271   */\n      0x00\n        /* \"#utility.yul\":8267:8268   */\n      dup1\n        /* \"#utility.yul\":8260:8272   */\n      revert\n        /* \"#utility.yul\":8284:8406   */\n    tag_400:\n        /* \"#utility.yul\":8357:8381   */\n      tag_508\n        /* \"#utility.yul\":8375:8380   */\n      dup2\n        /* \"#utility.yul\":8357:8381   */\n      tag_384\n      jump\t// in\n    tag_508:\n        /* \"#utility.yul\":8350:8355   */\n      dup2\n        /* \"#utility.yul\":8347:8382   */\n      eq\n        /* \"#utility.yul\":8337:8400   */\n      tag_509\n      jumpi\n        /* \"#utility.yul\":8396:8397   */\n      0x00\n        /* \"#utility.yul\":8393:8394   */\n      dup1\n        /* \"#utility.yul\":8386:8398   */\n      revert\n        /* \"#utility.yul\":8337:8400   */\n    tag_509:\n        /* \"#utility.yul\":8284:8406   */\n      pop\n      jump\t// out\n        /* \"#utility.yul\":8412:8551   */\n    tag_401:\n        /* \"#utility.yul\":8458:8463   */\n      0x00\n        /* \"#utility.yul\":8496:8502   */\n      dup2\n        /* \"#utility.yul\":8483:8503   */\n      calldataload\n        /* \"#utility.yul\":8474:8503   */\n      swap1\n      pop\n        /* \"#utility.yul\":8512:8545   */\n      tag_511\n        /* \"#utility.yul\":8539:8544   */\n      dup2\n        /* \"#utility.yul\":8512:8545   */\n      tag_400\n      jump\t// in\n    tag_511:\n        /* \"#utility.yul\":8412:8551   */\n      swap3\n      swap2\n      pop\n      pop\n      jump\t// out\n        /* \"#utility.yul\":8557:8886   */\n    tag_30:\n        /* \"#utility.yul\":8616:8622   */\n      0x00\n        /* \"#utility.yul\":8665:8667   */\n      0x20\n        /* \"#utility.yul\":8653:8662   */\n      dup3\n        /* \"#utility.yul\":8644:8651   */\n      dup5\n        /* \"#utility.yul\":8640:8663   */\n      sub\n        /* \"#utility.yul\":8636:8668   */\n      slt\n        /* \"#utility.yul\":8633:8752   */\n      iszero\n      tag_513\n      jumpi\n        /* \"#utility.yul\":8671:8750   */\n      tag_514\n      tag_398\n      jump\t// in\n    tag_514:\n        /* \"#utility.yul\":8633:8752   */\n    tag_513:\n        /* \"#utility.yul\":8791:8792   */\n      0x00\n        /* \"#utility.yul\":8816:8869   */\n      tag_515\n        /* \"#utility.yul\":8861:8868   */\n      dup5\n        /* \"#utility.yul\":8852:8858   */\n      dup3\n        /* \"#utility.yul\":8841:8850   */\n      dup6\n        /* \"#utility.yul\":8837:8859   */\n      add\n        /* \"#utility.yul\":8816:8869   */\n      tag_401\n      jump\t// in\n    tag_515:\n        /* \"#utility.yul\":8806:8869   */\n      swap2\n      pop\n        /* \"#utility.yul\":8762:8879   */\n      pop\n        /* \"#utility.yul\":8557:8886   */\n      swap3\n      swap2\n      pop\n      pop\n      jump\t// out\n        /* \"#utility.yul\":8944:10268   */\n    tag_402:\n        /* \"#utility.yul\":9059:9062   */\n      0x00\n        /* \"#utility.yul\":9095:9099   */\n      0xa0\n        /* \"#utility.yul\":9090:9093   */\n      dup4\n        /* \"#utility.yul\":9086:9100   */\n      add\n        /* \"#utility.yul\":9182:9186   */\n      0x00\n        /* \"#utility.yul\":9175:9180   */\n      dup4\n        /* \"#utility.yul\":9171:9187   */\n      add\n        /* \"#utility.yul\":9165:9188   */\n      mload\n        /* \"#utility.yul\":9235:9238   */\n      dup5\n        /* \"#utility.yul\":9229:9233   */\n      dup3\n        /* \"#utility.yul\":9225:9239   */\n      sub\n        /* \"#utility.yul\":9218:9222   */\n      0x00\n        /* \"#utility.yul\":9213:9216   */\n      dup7\n        /* \"#utility.yul\":9209:9223   */\n      add\n        /* \"#utility.yul\":9202:9240   */\n      mstore\n        /* \"#utility.yul\":9261:9334   */\n      tag_517\n        /* \"#utility.yul\":9329:9333   */\n      dup3\n        /* \"#utility.yul\":9315:9327   */\n      dup3\n        /* \"#utility.yul\":9261:9334   */\n      tag_383\n      jump\t// in\n    tag_517:\n        /* \"#utility.yul\":9253:9334   */\n      swap2\n      pop\n        /* \"#utility.yul\":9110:9345   */\n      pop\n        /* \"#utility.yul\":9429:9433   */\n      0x20\n        /* \"#utility.yul\":9422:9427   */\n      dup4\n        /* \"#utility.yul\":9418:9434   */\n      add\n        /* \"#utility.yul\":9412:9435   */\n      mload\n        /* \"#utility.yul\":9448:9511   */\n      tag_518\n        /* \"#utility.yul\":9505:9509   */\n      0x20\n        /* \"#utility.yul\":9500:9503   */\n      dup7\n        /* \"#utility.yul\":9496:9510   */\n      add\n        /* \"#utility.yul\":9482:9494   */\n      dup3\n        /* \"#utility.yul\":9448:9511   */\n      tag_385\n      jump\t// in\n    tag_518:\n        /* \"#utility.yul\":9355:9521   */\n      pop\n        /* \"#utility.yul\":9604:9608   */\n      0x40\n        /* \"#utility.yul\":9597:9602   */\n      dup4\n        /* \"#utility.yul\":9593:9609   */\n      add\n        /* \"#utility.yul\":9587:9610   */\n      mload\n        /* \"#utility.yul\":9623:9686   */\n      tag_519\n        /* \"#utility.yul\":9680:9684   */\n      0x40\n        /* \"#utility.yul\":9675:9678   */\n      dup7\n        /* \"#utility.yul\":9671:9685   */\n      add\n        /* \"#utility.yul\":9657:9669   */\n      dup3\n        /* \"#utility.yul\":9623:9686   */\n      tag_385\n      jump\t// in\n    tag_519:\n        /* \"#utility.yul\":9531:9696   */\n      pop\n        /* \"#utility.yul\":9780:9784   */\n      0x60\n        /* \"#utility.yul\":9773:9778   */\n      dup4\n        /* \"#utility.yul\":9769:9785   */\n      add\n        /* \"#utility.yul\":9763:9786   */\n      mload\n        /* \"#utility.yul\":9833:9836   */\n      dup5\n        /* \"#utility.yul\":9827:9831   */\n      dup3\n        /* \"#utility.yul\":9823:9837   */\n      sub\n        /* \"#utility.yul\":9816:9820   */\n      0x60\n        /* \"#utility.yul\":9811:9814   */\n      dup7\n        /* \"#utility.yul\":9807:9821   */\n      add\n        /* \"#utility.yul\":9800:9838   */\n      mstore\n        /* \"#utility.yul\":9859:9932   */\n      tag_520\n        /* \"#utility.yul\":9927:9931   */\n      dup3\n        /* \"#utility.yul\":9913:9925   */\n      dup3\n        /* \"#utility.yul\":9859:9932   */\n      tag_383\n      jump\t// in\n    tag_520:\n        /* \"#utility.yul\":9851:9932   */\n      swap2\n      pop\n        /* \"#utility.yul\":9706:9943   */\n      pop\n        /* \"#utility.yul\":10028:10032   */\n      0x80\n        /* \"#utility.yul\":10021:10026   */\n      dup4\n        /* \"#utility.yul\":10017:10033   */\n      add\n        /* \"#utility.yul\":10011:10034   */\n      mload\n        /* \"#utility.yul\":10081:10084   */\n      dup5\n        /* \"#utility.yul\":10075:10079   */\n      dup3\n        /* \"#utility.yul\":10071:10085   */\n      sub\n        /* \"#utility.yul\":10064:10068   */\n      0x80\n        /* \"#utility.yul\":10059:10062   */\n      dup7\n        /* \"#utility.yul\":10055:10069   */\n      add\n        /* \"#utility.yul\":10048:10086   */\n      mstore\n        /* \"#utility.yul\":10107:10230   */\n      tag_521\n        /* \"#utility.yul\":10225:10229   */\n      dup3\n        /* \"#utility.yul\":10211:10223   */\n      dup3\n        /* \"#utility.yul\":10107:10230   */\n      tag_391\n      jump\t// in\n    tag_521:\n        /* \"#utility.yul\":10099:10230   */\n      swap2\n      pop\n        /* \"#utility.yul\":9953:10241   */\n      pop\n        /* \"#utility.yul\":10258:10262   */\n      dup1\n        /* \"#utility.yul\":10251:10262   */\n      swap2\n      pop\n        /* \"#utility.yul\":9064:10268   */\n      pop\n        /* \"#utility.yul\":8944:10268   */\n      swap3\n      swap2\n      pop\n      pop\n      jump\t// out\n        /* \"#utility.yul\":10274:10639   */\n    tag_33:\n        /* \"#utility.yul\":10413:10417   */\n      0x00\n        /* \"#utility.yul\":10451:10453   */\n      0x20\n        /* \"#utility.yul\":10440:10449   */\n      dup3\n        /* \"#utility.yul\":10436:10454   */\n      add\n        /* \"#utility.yul\":10428:10454   */\n      swap1\n      pop\n        /* \"#utility.yul\":10500:10509   */\n      dup2\n        /* \"#utility.yul\":10494:10498   */\n      dup2\n        /* \"#utility.yul\":10490:10510   */\n      sub\n        /* \"#utility.yul\":10486:10487   */\n      0x00\n        /* \"#utility.yul\":10475:10484   */\n      dup4\n        /* \"#utility.yul\":10471:10488   */\n      add\n        /* \"#utility.yul\":10464:10511   */\n      mstore\n        /* \"#utility.yul\":10528:10632   */\n      tag_523\n        /* \"#utility.yul\":10627:10631   */\n      dup2\n        /* \"#utility.yul\":10618:10624   */\n      dup5\n        /* \"#utility.yul\":10528:10632   */\n      tag_402\n      jump\t// in\n    tag_523:\n        /* \"#utility.yul\":10520:10632   */\n      swap1\n      pop\n        /* \"#utility.yul\":10274:10639   */\n      swap3\n      swap2\n      pop\n      pop\n      jump\t// out\n        /* \"#utility.yul\":10645:10762   */\n    tag_403:\n        /* \"#utility.yul\":10754:10755   */\n      0x00\n        /* \"#utility.yul\":10751:10752   */\n      dup1\n        /* \"#utility.yul\":10744:10756   */\n      revert\n        /* \"#utility.yul\":10768:10885   */\n    tag_404:\n        /* \"#utility.yul\":10877:10878   */\n      0x00\n        /* \"#utility.yul\":10874:10875   */\n      dup1\n        /* \"#utility.yul\":10867:10879   */\n      revert\n        /* \"#utility.yul\":10891:11071   */\n    tag_91:\n        /* \"#utility.yul\":10939:11016   */\n      0x4e487b7100000000000000000000000000000000000000000000000000000000\n        /* \"#utility.yul\":10936:10937   */\n      0x00\n        /* \"#utility.yul\":10929:11017   */\n      mstore\n        /* \"#utility.yul\":11036:11040   */\n      0x41\n        /* \"#utility.yul\":11033:11034   */\n      0x04\n        /* \"#utility.yul\":11026:11041   */\n      mstore\n        /* \"#utility.yul\":11060:11064   */\n      0x24\n        /* \"#utility.yul\":11057:11058   */\n      0x00\n        /* \"#utility.yul\":11050:11065   */\n      revert\n        /* \"#utility.yul\":11077:11358   */\n    tag_405:\n        /* \"#utility.yul\":11160:11187   */\n      tag_528\n        /* \"#utility.yul\":11182:11186   */\n      dup3\n        /* \"#utility.yul\":11160:11187   */\n      tag_382\n      jump\t// in\n    tag_528:\n        /* \"#utility.yul\":11152:11158   */\n      dup2\n        /* \"#utility.yul\":11148:11188   */\n      add\n        /* \"#utility.yul\":11290:11296   */\n      dup2\n        /* \"#utility.yul\":11278:11288   */\n      dup2\n        /* \"#utility.yul\":11275:11297   */\n      lt\n        /* \"#utility.yul\":11254:11272   */\n      0xffffffffffffffff\n        /* \"#utility.yul\":11242:11252   */\n      dup3\n        /* \"#utility.yul\":11239:11273   */\n      gt\n        /* \"#utility.yul\":11236:11298   */\n      or\n        /* \"#utility.yul\":11233:11321   */\n      iszero\n      tag_529\n      jumpi\n        /* \"#utility.yul\":11301:11319   */\n      tag_530\n      tag_91\n      jump\t// in\n    tag_530:\n        /* \"#utility.yul\":11233:11321   */\n    tag_529:\n        /* \"#utility.yul\":11341:11351   */\n      dup1\n        /* \"#utility.yul\":11337:11339   */\n      0x40\n        /* \"#utility.yul\":11330:11352   */\n      mstore\n        /* \"#utility.yul\":11120:11358   */\n      pop\n        /* \"#utility.yul\":11077:11358   */\n      pop\n      pop\n      jump\t// out\n        /* \"#utility.yul\":11364:11493   */\n    tag_406:\n        /* \"#utility.yul\":11398:11404   */\n      0x00\n        /* \"#utility.yul\":11425:11445   */\n      tag_532\n      tag_397\n      jump\t// in\n    tag_532:\n        /* \"#utility.yul\":11415:11445   */\n      swap1\n      pop\n        /* \"#utility.yul\":11454:11487   */\n      tag_533\n        /* \"#utility.yul\":11482:11486   */\n      dup3\n        /* \"#utility.yul\":11474:11480   */\n      dup3\n        /* \"#utility.yul\":11454:11487   */\n      tag_405\n      jump\t// in\n    tag_533:\n        /* \"#utility.yul\":11364:11493   */\n      swap2\n      swap1\n      pop\n      jump\t// out\n        /* \"#utility.yul\":11499:11807   */\n    tag_407:\n        /* \"#utility.yul\":11561:11565   */\n      0x00\n        /* \"#utility.yul\":11651:11669   */\n      0xffffffffffffffff\n        /* \"#utility.yul\":11643:11649   */\n      dup3\n        /* \"#utility.yul\":11640:11670   */\n      gt\n        /* \"#utility.yul\":11637:11693   */\n      iszero\n      tag_535\n      jumpi\n        /* \"#utility.yul\":11673:11691   */\n      tag_536\n      tag_91\n      jump\t// in\n    tag_536:\n        /* \"#utility.yul\":11637:11693   */\n    tag_535:\n        /* \"#utility.yul\":11711:11740   */\n      tag_537\n        /* \"#utility.yul\":11733:11739   */\n      dup3\n        /* \"#utility.yul\":11711:11740   */\n      tag_382\n      jump\t// in\n    tag_537:\n        /* \"#utility.yul\":11703:11740   */\n      swap1\n      pop\n        /* \"#utility.yul\":11795:11799   */\n      0x20\n        /* \"#utility.yul\":11789:11793   */\n      dup2\n        /* \"#utility.yul\":11785:11800   */\n      add\n        /* \"#utility.yul\":11777:11800   */\n      swap1\n      pop\n        /* \"#utility.yul\":11499:11807   */\n      swap2\n      swap1\n      pop\n      jump\t// out\n        /* \"#utility.yul\":11813:11959   */\n    tag_408:\n        /* \"#utility.yul\":11910:11916   */\n      dup3\n        /* \"#utility.yul\":11905:11908   */\n      dup2\n        /* \"#utility.yul\":11900:11903   */\n      dup4\n        /* \"#utility.yul\":11887:11917   */\n      calldatacopy\n        /* \"#utility.yul\":11951:11952   */\n      0x00\n        /* \"#utility.yul\":11942:11948   */\n      dup4\n        /* \"#utility.yul\":11937:11940   */\n      dup4\n        /* \"#utility.yul\":11933:11949   */\n      add\n        /* \"#utility.yul\":11926:11953   */\n      mstore\n        /* \"#utility.yul\":11813:11959   */\n      pop\n      pop\n      pop\n      jump\t// out\n        /* \"#utility.yul\":11965:12390   */\n    tag_409:\n        /* \"#utility.yul\":12043:12048   */\n      0x00\n        /* \"#utility.yul\":12068:12134   */\n      tag_540\n        /* \"#utility.yul\":12084:12133   */\n      tag_541\n        /* \"#utility.yul\":12126:12132   */\n      dup5\n        /* \"#utility.yul\":12084:12133   */\n      tag_407\n      jump\t// in\n    tag_541:\n        /* \"#utility.yul\":12068:12134   */\n      tag_406\n      jump\t// in\n    tag_540:\n        /* \"#utility.yul\":12059:12134   */\n      swap1\n      pop\n        /* \"#utility.yul\":12157:12163   */\n      dup3\n        /* \"#utility.yul\":12150:12155   */\n      dup2\n        /* \"#utility.yul\":12143:12164   */\n      mstore\n        /* \"#utility.yul\":12195:12199   */\n      0x20\n        /* \"#utility.yul\":12188:12193   */\n      dup2\n        /* \"#utility.yul\":12184:12200   */\n      add\n        /* \"#utility.yul\":12233:12236   */\n      dup5\n        /* \"#utility.yul\":12224:12230   */\n      dup5\n        /* \"#utility.yul\":12219:12222   */\n      dup5\n        /* \"#utility.yul\":12215:12231   */\n      add\n        /* \"#utility.yul\":12212:12237   */\n      gt\n        /* \"#utility.yul\":12209:12321   */\n      iszero\n      tag_542\n      jumpi\n        /* \"#utility.yul\":12240:12319   */\n      tag_543\n      tag_404\n      jump\t// in\n    tag_543:\n        /* \"#utility.yul\":12209:12321   */\n    tag_542:\n        /* \"#utility.yul\":12330:12384   */\n      tag_544\n        /* \"#utility.yul\":12377:12383   */\n      dup5\n        /* \"#utility.yul\":12372:12375   */\n      dup3\n        /* \"#utility.yul\":12367:12370   */\n      dup6\n        /* \"#utility.yul\":12330:12384   */\n      tag_408\n      jump\t// in\n    tag_544:\n        /* \"#utility.yul\":12049:12390   */\n      pop\n        /* \"#utility.yul\":11965:12390   */\n      swap4\n      swap3\n      pop\n      pop\n      pop\n      jump\t// out\n        /* \"#utility.yul\":12410:12750   */\n    tag_410:\n        /* \"#utility.yul\":12466:12471   */\n      0x00\n        /* \"#utility.yul\":12515:12518   */\n      dup3\n        /* \"#utility.yul\":12508:12512   */\n      0x1f\n        /* \"#utility.yul\":12500:12506   */\n      dup4\n        /* \"#utility.yul\":12496:12513   */\n      add\n        /* \"#utility.yul\":12492:12519   */\n      slt\n        /* \"#utility.yul\":12482:12604   */\n      tag_546\n      jumpi\n        /* \"#utility.yul\":12523:12602   */\n      tag_547\n      tag_403\n      jump\t// in\n    tag_547:\n        /* \"#utility.yul\":12482:12604   */\n    tag_546:\n        /* \"#utility.yul\":12640:12646   */\n      dup2\n        /* \"#utility.yul\":12627:12647   */\n      calldataload\n        /* \"#utility.yul\":12665:12744   */\n      tag_548\n        /* \"#utility.yul\":12740:12743   */\n      dup5\n        /* \"#utility.yul\":12732:12738   */\n      dup3\n        /* \"#utility.yul\":12725:12729   */\n      0x20\n        /* \"#utility.yul\":12717:12723   */\n      dup7\n        /* \"#utility.yul\":12713:12730   */\n      add\n        /* \"#utility.yul\":12665:12744   */\n      tag_409\n      jump\t// in\n    tag_548:\n        /* \"#utility.yul\":12656:12744   */\n      swap2\n      pop\n        /* \"#utility.yul\":12472:12750   */\n      pop\n        /* \"#utility.yul\":12410:12750   */\n      swap3\n      swap2\n      pop\n      pop\n      jump\t// out\n        /* \"#utility.yul\":12756:13077   */\n    tag_411:\n        /* \"#utility.yul\":12843:12847   */\n      0x00\n        /* \"#utility.yul\":12933:12951   */\n      0xffffffffffffffff\n        /* \"#utility.yul\":12925:12931   */\n      dup3\n        /* \"#utility.yul\":12922:12952   */\n      gt\n        /* \"#utility.yul\":12919:12975   */\n      iszero\n      tag_550\n      jumpi\n        /* \"#utility.yul\":12955:12973   */\n      tag_551\n      tag_91\n      jump\t// in\n    tag_551:\n        /* \"#utility.yul\":12919:12975   */\n    tag_550:\n        /* \"#utility.yul\":13005:13009   */\n      0x20\n        /* \"#utility.yul\":12997:13003   */\n      dup3\n        /* \"#utility.yul\":12993:13010   */\n      mul\n        /* \"#utility.yul\":12985:13010   */\n      swap1\n      pop\n        /* \"#utility.yul\":13065:13069   */\n      0x20\n        /* \"#utility.yul\":13059:13063   */\n      dup2\n        /* \"#utility.yul\":13055:13070   */\n      add\n        /* \"#utility.yul\":13047:13070   */\n      swap1\n      pop\n        /* \"#utility.yul\":12756:13077   */\n      swap2\n      swap1\n      pop\n      jump\t// out\n        /* \"#utility.yul\":13083:13200   */\n    tag_412:\n        /* \"#utility.yul\":13192:13193   */\n      0x00\n        /* \"#utility.yul\":13189:13190   */\n      dup1\n        /* \"#utility.yul\":13182:13194   */\n      revert\n        /* \"#utility.yul\":13222:14167   */\n    tag_413:\n        /* \"#utility.yul\":13328:13333   */\n      0x00\n        /* \"#utility.yul\":13353:13444   */\n      tag_554\n        /* \"#utility.yul\":13369:13443   */\n      tag_555\n        /* \"#utility.yul\":13436:13442   */\n      dup5\n        /* \"#utility.yul\":13369:13443   */\n      tag_411\n      jump\t// in\n    tag_555:\n        /* \"#utility.yul\":13353:13444   */\n      tag_406\n      jump\t// in\n    tag_554:\n        /* \"#utility.yul\":13344:13444   */\n      swap1\n      pop\n        /* \"#utility.yul\":13464:13469   */\n      dup1\n        /* \"#utility.yul\":13493:13499   */\n      dup4\n        /* \"#utility.yul\":13486:13491   */\n      dup3\n        /* \"#utility.yul\":13479:13500   */\n      mstore\n        /* \"#utility.yul\":13527:13531   */\n      0x20\n        /* \"#utility.yul\":13520:13525   */\n      dup3\n        /* \"#utility.yul\":13516:13532   */\n      add\n        /* \"#utility.yul\":13509:13532   */\n      swap1\n      pop\n        /* \"#utility.yul\":13580:13584   */\n      0x20\n        /* \"#utility.yul\":13572:13578   */\n      dup5\n        /* \"#utility.yul\":13568:13585   */\n      mul\n        /* \"#utility.yul\":13560:13566   */\n      dup4\n        /* \"#utility.yul\":13556:13586   */\n      add\n        /* \"#utility.yul\":13609:13612   */\n      dup6\n        /* \"#utility.yul\":13601:13607   */\n      dup2\n        /* \"#utility.yul\":13598:13613   */\n      gt\n        /* \"#utility.yul\":13595:13717   */\n      iszero\n      tag_556\n      jumpi\n        /* \"#utility.yul\":13628:13707   */\n      tag_557\n      tag_412\n      jump\t// in\n    tag_557:\n        /* \"#utility.yul\":13595:13717   */\n    tag_556:\n        /* \"#utility.yul\":13743:13749   */\n      dup4\n        /* \"#utility.yul\":13726:14161   */\n    tag_558:\n        /* \"#utility.yul\":13760:13766   */\n      dup2\n        /* \"#utility.yul\":13755:13758   */\n      dup2\n        /* \"#utility.yul\":13752:13767   */\n      lt\n        /* \"#utility.yul\":13726:14161   */\n      iszero\n      tag_560\n      jumpi\n        /* \"#utility.yul\":13849:13852   */\n      dup1\n        /* \"#utility.yul\":13836:13853   */\n      calldataload\n        /* \"#utility.yul\":13885:13903   */\n      0xffffffffffffffff\n        /* \"#utility.yul\":13872:13883   */\n      dup2\n        /* \"#utility.yul\":13869:13904   */\n      gt\n        /* \"#utility.yul\":13866:13988   */\n      iszero\n      tag_561\n      jumpi\n        /* \"#utility.yul\":13907:13986   */\n      tag_562\n      tag_403\n      jump\t// in\n    tag_562:\n        /* \"#utility.yul\":13866:13988   */\n    tag_561:\n        /* \"#utility.yul\":14031:14042   */\n      dup1\n        /* \"#utility.yul\":14023:14029   */\n      dup7\n        /* \"#utility.yul\":14019:14043   */\n      add\n        /* \"#utility.yul\":14069:14116   */\n      tag_563\n        /* \"#utility.yul\":14112:14115   */\n      dup10\n        /* \"#utility.yul\":14100:14110   */\n      dup3\n        /* \"#utility.yul\":14069:14116   */\n      tag_410\n      jump\t// in\n    tag_563:\n        /* \"#utility.yul\":14064:14067   */\n      dup6\n        /* \"#utility.yul\":14057:14117   */\n      mstore\n        /* \"#utility.yul\":14146:14150   */\n      0x20\n        /* \"#utility.yul\":14141:14144   */\n      dup6\n        /* \"#utility.yul\":14137:14151   */\n      add\n        /* \"#utility.yul\":14130:14151   */\n      swap5\n      pop\n        /* \"#utility.yul\":13802:14161   */\n      pop\n      pop\n        /* \"#utility.yul\":13786:13790   */\n      0x20\n        /* \"#utility.yul\":13781:13784   */\n      dup2\n        /* \"#utility.yul\":13777:13791   */\n      add\n        /* \"#utility.yul\":13770:13791   */\n      swap1\n      pop\n        /* \"#utility.yul\":13726:14161   */\n      jump(tag_558)\n    tag_560:\n        /* \"#utility.yul\":13730:13751   */\n      pop\n        /* \"#utility.yul\":13334:14167   */\n      pop\n      pop\n        /* \"#utility.yul\":13222:14167   */\n      swap4\n      swap3\n      pop\n      pop\n      pop\n      jump\t// out\n        /* \"#utility.yul\":14189:14579   */\n    tag_414:\n        /* \"#utility.yul\":14270:14275   */\n      0x00\n        /* \"#utility.yul\":14319:14322   */\n      dup3\n        /* \"#utility.yul\":14312:14316   */\n      0x1f\n        /* \"#utility.yul\":14304:14310   */\n      dup4\n        /* \"#utility.yul\":14300:14317   */\n      add\n        /* \"#utility.yul\":14296:14323   */\n      slt\n        /* \"#utility.yul\":14286:14408   */\n      tag_565\n      jumpi\n        /* \"#utility.yul\":14327:14406   */\n      tag_566\n      tag_403\n      jump\t// in\n    tag_566:\n        /* \"#utility.yul\":14286:14408   */\n    tag_565:\n        /* \"#utility.yul\":14444:14450   */\n      dup2\n        /* \"#utility.yul\":14431:14451   */\n      calldataload\n        /* \"#utility.yul\":14469:14573   */\n      tag_567\n        /* \"#utility.yul\":14569:14572   */\n      dup5\n        /* \"#utility.yul\":14561:14567   */\n      dup3\n        /* \"#utility.yul\":14554:14558   */\n      0x20\n        /* \"#utility.yul\":14546:14552   */\n      dup7\n        /* \"#utility.yul\":14542:14559   */\n      add\n        /* \"#utility.yul\":14469:14573   */\n      tag_413\n      jump\t// in\n    tag_567:\n        /* \"#utility.yul\":14460:14573   */\n      swap2\n      pop\n        /* \"#utility.yul\":14276:14579   */\n      pop\n        /* \"#utility.yul\":14189:14579   */\n      swap3\n      swap2\n      pop\n      pop\n      jump\t// out\n        /* \"#utility.yul\":14585:15614   */\n    tag_36:\n        /* \"#utility.yul\":14707:14713   */\n      0x00\n        /* \"#utility.yul\":14715:14721   */\n      dup1\n        /* \"#utility.yul\":14723:14729   */\n      0x00\n        /* \"#utility.yul\":14772:14774   */\n      0x60\n        /* \"#utility.yul\":14760:14769   */\n      dup5\n        /* \"#utility.yul\":14751:14758   */\n      dup7\n        /* \"#utility.yul\":14747:14770   */\n      sub\n        /* \"#utility.yul\":14743:14775   */\n      slt\n        /* \"#utility.yul\":14740:14859   */\n      iszero\n      tag_569\n      jumpi\n        /* \"#utility.yul\":14778:14857   */\n      tag_570\n      tag_398\n      jump\t// in\n    tag_570:\n        /* \"#utility.yul\":14740:14859   */\n    tag_569:\n        /* \"#utility.yul\":14926:14927   */\n      0x00\n        /* \"#utility.yul\":14915:14924   */\n      dup5\n        /* \"#utility.yul\":14911:14928   */\n      add\n        /* \"#utility.yul\":14898:14929   */\n      calldataload\n        /* \"#utility.yul\":14956:14974   */\n      0xffffffffffffffff\n        /* \"#utility.yul\":14948:14954   */\n      dup2\n        /* \"#utility.yul\":14945:14975   */\n      gt\n        /* \"#utility.yul\":14942:15059   */\n      iszero\n      tag_571\n      jumpi\n        /* \"#utility.yul\":14978:15057   */\n      tag_572\n      tag_399\n      jump\t// in\n    tag_572:\n        /* \"#utility.yul\":14942:15059   */\n    tag_571:\n        /* \"#utility.yul\":15083:15146   */\n      tag_573\n        /* \"#utility.yul\":15138:15145   */\n      dup7\n        /* \"#utility.yul\":15129:15135   */\n      dup3\n        /* \"#utility.yul\":15118:15127   */\n      dup8\n        /* \"#utility.yul\":15114:15136   */\n      add\n        /* \"#utility.yul\":15083:15146   */\n      tag_410\n      jump\t// in\n    tag_573:\n        /* \"#utility.yul\":15073:15146   */\n      swap4\n      pop\n        /* \"#utility.yul\":14869:15156   */\n      pop\n        /* \"#utility.yul\":15195:15197   */\n      0x20\n        /* \"#utility.yul\":15221:15274   */\n      tag_574\n        /* \"#utility.yul\":15266:15273   */\n      dup7\n        /* \"#utility.yul\":15257:15263   */\n      dup3\n        /* \"#utility.yul\":15246:15255   */\n      dup8\n        /* \"#utility.yul\":15242:15264   */\n      add\n        /* \"#utility.yul\":15221:15274   */\n      tag_401\n      jump\t// in\n    tag_574:\n        /* \"#utility.yul\":15211:15274   */\n      swap3\n      pop\n        /* \"#utility.yul\":15166:15284   */\n      pop\n        /* \"#utility.yul\":15351:15353   */\n      0x40\n        /* \"#utility.yul\":15340:15349   */\n      dup5\n        /* \"#utility.yul\":15336:15354   */\n      add\n        /* \"#utility.yul\":15323:15355   */\n      calldataload\n        /* \"#utility.yul\":15382:15400   */\n      0xffffffffffffffff\n        /* \"#utility.yul\":15374:15380   */\n      dup2\n        /* \"#utility.yul\":15371:15401   */\n      gt\n        /* \"#utility.yul\":15368:15485   */\n      iszero\n      tag_575\n      jumpi\n        /* \"#utility.yul\":15404:15483   */\n      tag_576\n      tag_399\n      jump\t// in\n    tag_576:\n        /* \"#utility.yul\":15368:15485   */\n    tag_575:\n        /* \"#utility.yul\":15509:15597   */\n      tag_577\n        /* \"#utility.yul\":15589:15596   */\n      dup7\n        /* \"#utility.yul\":15580:15586   */\n      dup3\n        /* \"#utility.yul\":15569:15578   */\n      dup8\n        /* \"#utility.yul\":15565:15587   */\n      add\n        /* \"#utility.yul\":15509:15597   */\n      tag_414\n      jump\t// in\n    tag_577:\n        /* \"#utility.yul\":15499:15597   */\n      swap2\n      pop\n        /* \"#utility.yul\":15294:15607   */\n      pop\n        /* \"#utility.yul\":14585:15614   */\n      swap3\n      pop\n      swap3\n      pop\n      swap3\n      jump\t// out\n        /* \"#utility.yul\":15620:16195   */\n    tag_41:\n        /* \"#utility.yul\":15837:15841   */\n      0x00\n        /* \"#utility.yul\":15875:15877   */\n      0x40\n        /* \"#utility.yul\":15864:15873   */\n      dup3\n        /* \"#utility.yul\":15860:15878   */\n      add\n        /* \"#utility.yul\":15852:15878   */\n      swap1\n      pop\n        /* \"#utility.yul\":15888:15959   */\n      tag_579\n        /* \"#utility.yul\":15956:15957   */\n      0x00\n        /* \"#utility.yul\":15945:15954   */\n      dup4\n        /* \"#utility.yul\":15941:15958   */\n      add\n        /* \"#utility.yul\":15932:15938   */\n      dup6\n        /* \"#utility.yul\":15888:15959   */\n      tag_396\n      jump\t// in\n    tag_579:\n        /* \"#utility.yul\":16006:16015   */\n      dup2\n        /* \"#utility.yul\":16000:16004   */\n      dup2\n        /* \"#utility.yul\":15996:16016   */\n      sub\n        /* \"#utility.yul\":15991:15993   */\n      0x20\n        /* \"#utility.yul\":15980:15989   */\n      dup4\n        /* \"#utility.yul\":15976:15994   */\n      add\n        /* \"#utility.yul\":15969:16017   */\n      mstore\n        /* \"#utility.yul\":16034:16188   */\n      tag_580\n        /* \"#utility.yul\":16183:16187   */\n      dup2\n        /* \"#utility.yul\":16174:16180   */\n      dup5\n        /* \"#utility.yul\":16034:16188   */\n      tag_395\n      jump\t// in\n    tag_580:\n        /* \"#utility.yul\":16026:16188   */\n      swap1\n      pop\n        /* \"#utility.yul\":15620:16195   */\n      swap4\n      swap3\n      pop\n      pop\n      pop\n      jump\t// out\n        /* \"#utility.yul\":16201:16710   */\n    tag_44:\n        /* \"#utility.yul\":16270:16276   */\n      0x00\n        /* \"#utility.yul\":16319:16321   */\n      0x20\n        /* \"#utility.yul\":16307:16316   */\n      dup3\n        /* \"#utility.yul\":16298:16305   */\n      dup5\n        /* \"#utility.yul\":16294:16317   */\n      sub\n        /* \"#utility.yul\":16290:16322   */\n      slt\n        /* \"#utility.yul\":16287:16406   */\n      iszero\n      tag_582\n      jumpi\n        /* \"#utility.yul\":16325:16404   */\n      tag_583\n      tag_398\n      jump\t// in\n    tag_583:\n        /* \"#utility.yul\":16287:16406   */\n    tag_582:\n        /* \"#utility.yul\":16473:16474   */\n      0x00\n        /* \"#utility.yul\":16462:16471   */\n      dup3\n        /* \"#utility.yul\":16458:16475   */\n      add\n        /* \"#utility.yul\":16445:16476   */\n      calldataload\n        /* \"#utility.yul\":16503:16521   */\n      0xffffffffffffffff\n        /* \"#utility.yul\":16495:16501   */\n      dup2\n        /* \"#utility.yul\":16492:16522   */\n      gt\n        /* \"#utility.yul\":16489:16606   */\n      iszero\n      tag_584\n      jumpi\n        /* \"#utility.yul\":16525:16604   */\n      tag_585\n      tag_399\n      jump\t// in\n    tag_585:\n        /* \"#utility.yul\":16489:16606   */\n    tag_584:\n        /* \"#utility.yul\":16630:16693   */\n      tag_586\n        /* \"#utility.yul\":16685:16692   */\n      dup5\n        /* \"#utility.yul\":16676:16682   */\n      dup3\n        /* \"#utility.yul\":16665:16674   */\n      dup6\n        /* \"#utility.yul\":16661:16683   */\n      add\n        /* \"#utility.yul\":16630:16693   */\n      tag_410\n      jump\t// in\n    tag_586:\n        /* \"#utility.yul\":16620:16693   */\n      swap2\n      pop\n        /* \"#utility.yul\":16416:16703   */\n      pop\n        /* \"#utility.yul\":16201:16710   */\n      swap3\n      swap2\n      pop\n      pop\n      jump\t// out\n        /* \"#utility.yul\":16716:16806   */\n    tag_415:\n        /* \"#utility.yul\":16750:16757   */\n      0x00\n        /* \"#utility.yul\":16793:16798   */\n      dup2\n        /* \"#utility.yul\":16786:16799   */\n      iszero\n        /* \"#utility.yul\":16779:16800   */\n      iszero\n        /* \"#utility.yul\":16768:16800   */\n      swap1\n      pop\n        /* \"#utility.yul\":16716:16806   */\n      swap2\n      swap1\n      pop\n      jump\t// out\n        /* \"#utility.yul\":16812:16921   */\n    tag_416:\n        /* \"#utility.yul\":16893:16914   */\n      tag_589\n        /* \"#utility.yul\":16908:16913   */\n      dup2\n        /* \"#utility.yul\":16893:16914   */\n      tag_415\n      jump\t// in\n    tag_589:\n        /* \"#utility.yul\":16888:16891   */\n      dup3\n        /* \"#utility.yul\":16881:16915   */\n      mstore\n        /* \"#utility.yul\":16812:16921   */\n      pop\n      pop\n      jump\t// out\n        /* \"#utility.yul\":16927:17137   */\n    tag_50:\n        /* \"#utility.yul\":17014:17018   */\n      0x00\n        /* \"#utility.yul\":17052:17054   */\n      0x20\n        /* \"#utility.yul\":17041:17050   */\n      dup3\n        /* \"#utility.yul\":17037:17055   */\n      add\n        /* \"#utility.yul\":17029:17055   */\n      swap1\n      pop\n        /* \"#utility.yul\":17065:17130   */\n      tag_591\n        /* \"#utility.yul\":17127:17128   */\n      0x00\n        /* \"#utility.yul\":17116:17125   */\n      dup4\n        /* \"#utility.yul\":17112:17129   */\n      add\n        /* \"#utility.yul\":17103:17109   */\n      dup5\n        /* \"#utility.yul\":17065:17130   */\n      tag_416\n      jump\t// in\n    tag_591:\n        /* \"#utility.yul\":16927:17137   */\n      swap3\n      swap2\n      pop\n      pop\n      jump\t// out\n        /* \"#utility.yul\":17143:17312   */\n    tag_417:\n        /* \"#utility.yul\":17227:17238   */\n      0x00\n        /* \"#utility.yul\":17261:17267   */\n      dup3\n        /* \"#utility.yul\":17256:17259   */\n      dup3\n        /* \"#utility.yul\":17249:17268   */\n      mstore\n        /* \"#utility.yul\":17301:17305   */\n      0x20\n        /* \"#utility.yul\":17296:17299   */\n      dup3\n        /* \"#utility.yul\":17292:17306   */\n      add\n        /* \"#utility.yul\":17277:17306   */\n      swap1\n      pop\n        /* \"#utility.yul\":17143:17312   */\n      swap3\n      swap2\n      pop\n      pop\n      jump\t// out\n        /* \"#utility.yul\":17318:17695   */\n    tag_418:\n        /* \"#utility.yul\":17406:17409   */\n      0x00\n        /* \"#utility.yul\":17434:17473   */\n      tag_594\n        /* \"#utility.yul\":17467:17472   */\n      dup3\n        /* \"#utility.yul\":17434:17473   */\n      tag_379\n      jump\t// in\n    tag_594:\n        /* \"#utility.yul\":17489:17560   */\n      tag_595\n        /* \"#utility.yul\":17553:17559   */\n      dup2\n        /* \"#utility.yul\":17548:17551   */\n      dup6\n        /* \"#utility.yul\":17489:17560   */\n      tag_417\n      jump\t// in\n    tag_595:\n        /* \"#utility.yul\":17482:17560   */\n      swap4\n      pop\n        /* \"#utility.yul\":17569:17634   */\n      tag_596\n        /* \"#utility.yul\":17627:17633   */\n      dup2\n        /* \"#utility.yul\":17622:17625   */\n      dup6\n        /* \"#utility.yul\":17615:17619   */\n      0x20\n        /* \"#utility.yul\":17608:17613   */\n      dup7\n        /* \"#utility.yul\":17604:17620   */\n      add\n        /* \"#utility.yul\":17569:17634   */\n      tag_381\n      jump\t// in\n    tag_596:\n        /* \"#utility.yul\":17659:17688   */\n      tag_597\n        /* \"#utility.yul\":17681:17687   */\n      dup2\n        /* \"#utility.yul\":17659:17688   */\n      tag_382\n      jump\t// in\n    tag_597:\n        /* \"#utility.yul\":17654:17657   */\n      dup5\n        /* \"#utility.yul\":17650:17689   */\n      add\n        /* \"#utility.yul\":17643:17689   */\n      swap2\n      pop\n        /* \"#utility.yul\":17410:17695   */\n      pop\n        /* \"#utility.yul\":17318:17695   */\n      swap3\n      swap2\n      pop\n      pop\n      jump\t// out\n        /* \"#utility.yul\":17701:18014   */\n    tag_65:\n        /* \"#utility.yul\":17814:17818   */\n      0x00\n        /* \"#utility.yul\":17852:17854   */\n      0x20\n        /* \"#utility.yul\":17841:17850   */\n      dup3\n        /* \"#utility.yul\":17837:17855   */\n      add\n        /* \"#utility.yul\":17829:17855   */\n      swap1\n      pop\n        /* \"#utility.yul\":17901:17910   */\n      dup2\n        /* \"#utility.yul\":17895:17899   */\n      dup2\n        /* \"#utility.yul\":17891:17911   */\n      sub\n        /* \"#utility.yul\":17887:17888   */\n      0x00\n        /* \"#utility.yul\":17876:17885   */\n      dup4\n        /* \"#utility.yul\":17872:17889   */\n      add\n        /* \"#utility.yul\":17865:17912   */\n      mstore\n        /* \"#utility.yul\":17929:18007   */\n      tag_599\n        /* \"#utility.yul\":18002:18006   */\n      dup2\n        /* \"#utility.yul\":17993:17999   */\n      dup5\n        /* \"#utility.yul\":17929:18007   */\n      tag_418\n      jump\t// in\n    tag_599:\n        /* \"#utility.yul\":17921:18007   */\n      swap1\n      pop\n        /* \"#utility.yul\":17701:18014   */\n      swap3\n      swap2\n      pop\n      pop\n      jump\t// out\n        /* \"#utility.yul\":18020:18200   */\n    tag_419:\n        /* \"#utility.yul\":18068:18145   */\n      0x4e487b7100000000000000000000000000000000000000000000000000000000\n        /* \"#utility.yul\":18065:18066   */\n      0x00\n        /* \"#utility.yul\":18058:18146   */\n      mstore\n        /* \"#utility.yul\":18165:18169   */\n      0x22\n        /* \"#utility.yul\":18162:18163   */\n      0x04\n        /* \"#utility.yul\":18155:18170   */\n      mstore\n        /* \"#utility.yul\":18189:18193   */\n      0x24\n        /* \"#utility.yul\":18186:18187   */\n      0x00\n        /* \"#utility.yul\":18179:18194   */\n      revert\n        /* \"#utility.yul\":18206:18526   */\n    tag_71:\n        /* \"#utility.yul\":18250:18256   */\n      0x00\n        /* \"#utility.yul\":18287:18288   */\n      0x02\n        /* \"#utility.yul\":18281:18285   */\n      dup3\n        /* \"#utility.yul\":18277:18289   */\n      div\n        /* \"#utility.yul\":18267:18289   */\n      swap1\n      pop\n        /* \"#utility.yul\":18334:18335   */\n      0x01\n        /* \"#utility.yul\":18328:18332   */\n      dup3\n        /* \"#utility.yul\":18324:18336   */\n      and\n        /* \"#utility.yul\":18355:18373   */\n      dup1\n        /* \"#utility.yul\":18345:18426   */\n      tag_602\n      jumpi\n        /* \"#utility.yul\":18411:18415   */\n      0x7f\n        /* \"#utility.yul\":18403:18409   */\n      dup3\n        /* \"#utility.yul\":18399:18416   */\n      and\n        /* \"#utility.yul\":18389:18416   */\n      swap2\n      pop\n        /* \"#utility.yul\":18345:18426   */\n    tag_602:\n        /* \"#utility.yul\":18473:18475   */\n      0x20\n        /* \"#utility.yul\":18465:18471   */\n      dup3\n        /* \"#utility.yul\":18462:18476   */\n      lt\n        /* \"#utility.yul\":18442:18460   */\n      dup2\n        /* \"#utility.yul\":18439:18477   */\n      sub\n        /* \"#utility.yul\":18436:18520   */\n      tag_603\n      jumpi\n        /* \"#utility.yul\":18492:18510   */\n      tag_604\n      tag_419\n      jump\t// in\n    tag_604:\n        /* \"#utility.yul\":18436:18520   */\n    tag_603:\n        /* \"#utility.yul\":18257:18526   */\n      pop\n        /* \"#utility.yul\":18206:18526   */\n      swap2\n      swap1\n      pop\n      jump\t// out\n        /* \"#utility.yul\":18532:18712   */\n    tag_420:\n        /* \"#utility.yul\":18580:18657   */\n      0x4e487b7100000000000000000000000000000000000000000000000000000000\n        /* \"#utility.yul\":18577:18578   */\n      0x00\n        /* \"#utility.yul\":18570:18658   */\n      mstore\n        /* \"#utility.yul\":18677:18681   */\n      0x11\n        /* \"#utility.yul\":18674:18675   */\n      0x04\n        /* \"#utility.yul\":18667:18682   */\n      mstore\n        /* \"#utility.yul\":18701:18705   */\n      0x24\n        /* \"#utility.yul\":18698:18699   */\n      0x00\n        /* \"#utility.yul\":18691:18706   */\n      revert\n        /* \"#utility.yul\":18718:18912   */\n    tag_100:\n        /* \"#utility.yul\":18758:18762   */\n      0x00\n        /* \"#utility.yul\":18778:18798   */\n      tag_607\n        /* \"#utility.yul\":18796:18797   */\n      dup3\n        /* \"#utility.yul\":18778:18798   */\n      tag_384\n      jump\t// in\n    tag_607:\n        /* \"#utility.yul\":18773:18798   */\n      swap2\n      pop\n        /* \"#utility.yul\":18812:18832   */\n      tag_608\n        /* \"#utility.yul\":18830:18831   */\n      dup4\n        /* \"#utility.yul\":18812:18832   */\n      tag_384\n      jump\t// in\n    tag_608:\n        /* \"#utility.yul\":18807:18832   */\n      swap3\n      pop\n        /* \"#utility.yul\":18856:18857   */\n      dup3\n        /* \"#utility.yul\":18853:18854   */\n      dup3\n        /* \"#utility.yul\":18849:18858   */\n      sub\n        /* \"#utility.yul\":18841:18858   */\n      swap1\n      pop\n        /* \"#utility.yul\":18880:18881   */\n      dup2\n        /* \"#utility.yul\":18874:18878   */\n      dup2\n        /* \"#utility.yul\":18871:18882   */\n      gt\n        /* \"#utility.yul\":18868:18905   */\n      iszero\n      tag_609\n      jumpi\n        /* \"#utility.yul\":18885:18903   */\n      tag_610\n      tag_420\n      jump\t// in\n    tag_610:\n        /* \"#utility.yul\":18868:18905   */\n    tag_609:\n        /* \"#utility.yul\":18718:18912   */\n      swap3\n      swap2\n      pop\n      pop\n      jump\t// out\n        /* \"#utility.yul\":18918:19109   */\n    tag_105:\n        /* \"#utility.yul\":18958:18961   */\n      0x00\n        /* \"#utility.yul\":18977:18997   */\n      tag_612\n        /* \"#utility.yul\":18995:18996   */\n      dup3\n        /* \"#utility.yul\":18977:18997   */\n      tag_384\n      jump\t// in\n    tag_612:\n        /* \"#utility.yul\":18972:18997   */\n      swap2\n      pop\n        /* \"#utility.yul\":19011:19031   */\n      tag_613\n        /* \"#utility.yul\":19029:19030   */\n      dup4\n        /* \"#utility.yul\":19011:19031   */\n      tag_384\n      jump\t// in\n    tag_613:\n        /* \"#utility.yul\":19006:19031   */\n      swap3\n      pop\n        /* \"#utility.yul\":19054:19055   */\n      dup3\n        /* \"#utility.yul\":19051:19052   */\n      dup3\n        /* \"#utility.yul\":19047:19056   */\n      add\n        /* \"#utility.yul\":19040:19056   */\n      swap1\n      pop\n        /* \"#utility.yul\":19075:19078   */\n      dup1\n        /* \"#utility.yul\":19072:19073   */\n      dup3\n        /* \"#utility.yul\":19069:19079   */\n      gt\n        /* \"#utility.yul\":19066:19102   */\n      iszero\n      tag_614\n      jumpi\n        /* \"#utility.yul\":19082:19100   */\n      tag_615\n      tag_420\n      jump\t// in\n    tag_615:\n        /* \"#utility.yul\":19066:19102   */\n    tag_614:\n        /* \"#utility.yul\":18918:19109   */\n      swap3\n      swap2\n      pop\n      pop\n      jump\t// out\n        /* \"#utility.yul\":19115:19295   */\n    tag_108:\n        /* \"#utility.yul\":19163:19240   */\n      0x4e487b7100000000000000000000000000000000000000000000000000000000\n        /* \"#utility.yul\":19160:19161   */\n      0x00\n        /* \"#utility.yul\":19153:19241   */\n      mstore\n        /* \"#utility.yul\":19260:19264   */\n      0x32\n        /* \"#utility.yul\":19257:19258   */\n      0x04\n        /* \"#utility.yul\":19250:19265   */\n      mstore\n        /* \"#utility.yul\":19284:19288   */\n      0x24\n        /* \"#utility.yul\":19281:19282   */\n      0x00\n        /* \"#utility.yul\":19274:19289   */\n      revert\n        /* \"#utility.yul\":19301:19534   */\n    tag_121:\n        /* \"#utility.yul\":19340:19343   */\n      0x00\n        /* \"#utility.yul\":19363:19387   */\n      tag_618\n        /* \"#utility.yul\":19381:19386   */\n      dup3\n        /* \"#utility.yul\":19363:19387   */\n      tag_384\n      jump\t// in\n    tag_618:\n        /* \"#utility.yul\":19354:19387   */\n      swap2\n      pop\n        /* \"#utility.yul\":19409:19475   */\n      0xffffffffffffffffffffffffffffffffffffffffffffffffffffffffffffffff\n        /* \"#utility.yul\":19402:19407   */\n      dup3\n        /* \"#utility.yul\":19399:19476   */\n      sub\n        /* \"#utility.yul\":19396:19499   */\n      tag_619\n      jumpi\n        /* \"#utility.yul\":19479:19497   */\n      tag_620\n      tag_420\n      jump\t// in\n    tag_620:\n        /* \"#utility.yul\":19396:19499   */\n    tag_619:\n        /* \"#utility.yul\":19526:19527   */\n      0x01\n        /* \"#utility.yul\":19519:19524   */\n      dup3\n        /* \"#utility.yul\":19515:19528   */\n      add\n        /* \"#utility.yul\":19508:19528   */\n      swap1\n      pop\n        /* \"#utility.yul\":19301:19534   */\n      swap2\n      swap1\n      pop\n      jump\t// out\n        /* \"#utility.yul\":19540:19720   */\n    tag_421:\n        /* \"#utility.yul\":19588:19665   */\n      0x4e487b7100000000000000000000000000000000000000000000000000000000\n        /* \"#utility.yul\":19585:19586   */\n      0x00\n        /* \"#utility.yul\":19578:19666   */\n      mstore\n        /* \"#utility.yul\":19685:19689   */\n      0x12\n        /* \"#utility.yul\":19682:19683   */\n      0x04\n        /* \"#utility.yul\":19675:19690   */\n      mstore\n        /* \"#utility.yul\":19709:19713   */\n      0x24\n        /* \"#utility.yul\":19706:19707   */\n      0x00\n        /* \"#utility.yul\":19699:19714   */\n      revert\n        /* \"#utility.yul\":19726:19911   */\n    tag_141:\n        /* \"#utility.yul\":19766:19767   */\n      0x00\n        /* \"#utility.yul\":19783:19803   */\n      tag_623\n        /* \"#utility.yul\":19801:19802   */\n      dup3\n        /* \"#utility.yul\":19783:19803   */\n      tag_384\n      jump\t// in\n    tag_623:\n        /* \"#utility.yul\":19778:19803   */\n      swap2\n      pop\n        /* \"#utility.yul\":19817:19837   */\n      tag_624\n        /* \"#utility.yul\":19835:19836   */\n      dup4\n        /* \"#utility.yul\":19817:19837   */\n      tag_384\n      jump\t// in\n    tag_624:\n        /* \"#utility.yul\":19812:19837   */\n      swap3\n      pop\n        /* \"#utility.yul\":19856:19857   */\n      dup3\n        /* \"#utility.yul\":19846:19881   */\n      tag_625\n      jumpi\n        /* \"#utility.yul\":19861:19879   */\n      tag_626\n      tag_421\n      jump\t// in\n    tag_626:\n        /* \"#utility.yul\":19846:19881   */\n    tag_625:\n        /* \"#utility.yul\":19903:19904   */\n      dup3\n        /* \"#utility.yul\":19900:19901   */\n      dup3\n        /* \"#utility.yul\":19896:19905   */\n      div\n        /* \"#utility.yul\":19891:19905   */\n      swap1\n      pop\n        /* \"#utility.yul\":19726:19911   */\n      swap3\n      swap2\n      pop\n      pop\n      jump\t// out\n        /* \"#utility.yul\":19917:20064   */\n    tag_422:\n        /* \"#utility.yul\":20018:20029   */\n      0x00\n        /* \"#utility.yul\":20055:20058   */\n      dup2\n        /* \"#utility.yul\":20040:20058   */\n      swap1\n      pop\n        /* \"#utility.yul\":19917:20064   */\n      swap3\n      swap2\n      pop\n      pop\n      jump\t// out\n        /* \"#utility.yul\":20070:20214   */\n    tag_423:\n        /* \"#utility.yul\":20122:20126   */\n      0x00\n        /* \"#utility.yul\":20145:20148   */\n      dup2\n        /* \"#utility.yul\":20137:20148   */\n      swap1\n      pop\n        /* \"#utility.yul\":20168:20171   */\n      dup2\n        /* \"#utility.yul\":20165:20166   */\n      0x00\n        /* \"#utility.yul\":20158:20172   */\n      mstore\n        /* \"#utility.yul\":20202:20206   */\n      0x20\n        /* \"#utility.yul\":20199:20200   */\n      0x00\n        /* \"#utility.yul\":20189:20207   */\n      keccak256\n        /* \"#utility.yul\":20181:20207   */\n      swap1\n      pop\n        /* \"#utility.yul\":20070:20214   */\n      swap2\n      swap1\n      pop\n      jump\t// out\n        /* \"#utility.yul\":20242:21120   */\n    tag_424:\n        /* \"#utility.yul\":20347:20350   */\n      0x00\n        /* \"#utility.yul\":20384:20389   */\n      dup2\n        /* \"#utility.yul\":20378:20390   */\n      sload\n        /* \"#utility.yul\":20413:20449   */\n      tag_630\n        /* \"#utility.yul\":20439:20448   */\n      dup2\n        /* \"#utility.yul\":20413:20449   */\n      tag_71\n      jump\t// in\n    tag_630:\n        /* \"#utility.yul\":20465:20553   */\n      tag_631\n        /* \"#utility.yul\":20546:20552   */\n      dup2\n        /* \"#utility.yul\":20541:20544   */\n      dup7\n        /* \"#utility.yul\":20465:20553   */\n      tag_422\n      jump\t// in\n    tag_631:\n        /* \"#utility.yul\":20458:20553   */\n      swap5\n      pop\n        /* \"#utility.yul\":20584:20585   */\n      0x01\n        /* \"#utility.yul\":20573:20582   */\n      dup3\n        /* \"#utility.yul\":20569:20586   */\n      and\n        /* \"#utility.yul\":20600:20601   */\n      0x00\n        /* \"#utility.yul\":20595:20761   */\n      dup2\n      eq\n      tag_633\n      jumpi\n        /* \"#utility.yul\":20775:20776   */\n      0x01\n        /* \"#utility.yul\":20770:21114   */\n      dup2\n      eq\n      tag_634\n      jumpi\n        /* \"#utility.yul\":20562:21114   */\n      jump(tag_632)\n        /* \"#utility.yul\":20595:20761   */\n    tag_633:\n        /* \"#utility.yul\":20679:20683   */\n      0xff\n        /* \"#utility.yul\":20675:20684   */\n      not\n        /* \"#utility.yul\":20664:20673   */\n      dup4\n        /* \"#utility.yul\":20660:20685   */\n      and\n        /* \"#utility.yul\":20655:20658   */\n      dup7\n        /* \"#utility.yul\":20648:20686   */\n      mstore\n        /* \"#utility.yul\":20741:20747   */\n      dup2\n        /* \"#utility.yul\":20734:20748   */\n      iszero\n        /* \"#utility.yul\":20727:20749   */\n      iszero\n        /* \"#utility.yul\":20719:20725   */\n      dup3\n        /* \"#utility.yul\":20715:20750   */\n      mul\n        /* \"#utility.yul\":20710:20713   */\n      dup7\n        /* \"#utility.yul\":20706:20751   */\n      add\n        /* \"#utility.yul\":20699:20751   */\n      swap4\n      pop\n        /* \"#utility.yul\":20595:20761   */\n      jump(tag_632)\n        /* \"#utility.yul\":20770:21114   */\n    tag_634:\n        /* \"#utility.yul\":20837:20878   */\n      tag_635\n        /* \"#utility.yul\":20872:20877   */\n      dup6\n        /* \"#utility.yul\":20837:20878   */\n      tag_423\n      jump\t// in\n    tag_635:\n        /* \"#utility.yul\":20900:20901   */\n      0x00\n        /* \"#utility.yul\":20914:21068   */\n    tag_636:\n        /* \"#utility.yul\":20928:20934   */\n      dup4\n        /* \"#utility.yul\":20925:20926   */\n      dup2\n        /* \"#utility.yul\":20922:20935   */\n      lt\n        /* \"#utility.yul\":20914:21068   */\n      iszero\n      tag_638\n      jumpi\n        /* \"#utility.yul\":21002:21009   */\n      dup2\n        /* \"#utility.yul\":20996:21010   */\n      sload\n        /* \"#utility.yul\":20992:20993   */\n      dup2\n        /* \"#utility.yul\":20987:20990   */\n      dup10\n        /* \"#utility.yul\":20983:20994   */\n      add\n        /* \"#utility.yul\":20976:21011   */\n      mstore\n        /* \"#utility.yul\":21052:21053   */\n      0x01\n        /* \"#utility.yul\":21043:21050   */\n      dup3\n        /* \"#utility.yul\":21039:21054   */\n      add\n        /* \"#utility.yul\":21028:21054   */\n      swap2\n      pop\n        /* \"#utility.yul\":20950:20954   */\n      0x20\n        /* \"#utility.yul\":20947:20948   */\n      dup2\n        /* \"#utility.yul\":20943:20955   */\n      add\n        /* \"#utility.yul\":20938:20955   */\n      swap1\n      pop\n        /* \"#utility.yul\":20914:21068   */\n      jump(tag_636)\n    tag_638:\n        /* \"#utility.yul\":21097:21103   */\n      dup4\n        /* \"#utility.yul\":21092:21095   */\n      dup9\n        /* \"#utility.yul\":21088:21104   */\n      add\n        /* \"#utility.yul\":21081:21104   */\n      swap6\n      pop\n        /* \"#utility.yul\":20777:21114   */\n      pop\n      pop\n        /* \"#utility.yul\":20562:21114   */\n    tag_632:\n      pop\n        /* \"#utility.yul\":20351:21120   */\n      pop\n      pop\n        /* \"#utility.yul\":20242:21120   */\n      swap3\n      swap2\n      pop\n      pop\n      jump\t// out\n        /* \"#utility.yul\":21126:21399   */\n    tag_171:\n        /* \"#utility.yul\":21257:21260   */\n      0x00\n        /* \"#utility.yul\":21279:21373   */\n      tag_640\n        /* \"#utility.yul\":21369:21372   */\n      dup3\n        /* \"#utility.yul\":21360:21366   */\n      dup5\n        /* \"#utility.yul\":21279:21373   */\n      tag_424\n      jump\t// in\n    tag_640:\n        /* \"#utility.yul\":21272:21373   */\n      swap2\n      pop\n        /* \"#utility.yul\":21390:21393   */\n      dup2\n        /* \"#utility.yul\":21383:21393   */\n      swap1\n      pop\n        /* \"#utility.yul\":21126:21399   */\n      swap3\n      swap2\n      pop\n      pop\n      jump\t// out\n        /* \"#utility.yul\":21405:21546   */\n    tag_425:\n        /* \"#utility.yul\":21454:21458   */\n      0x00\n        /* \"#utility.yul\":21477:21480   */\n      dup2\n        /* \"#utility.yul\":21469:21480   */\n      swap1\n      pop\n        /* \"#utility.yul\":21500:21503   */\n      dup2\n        /* \"#utility.yul\":21497:21498   */\n      0x00\n        /* \"#utility.yul\":21490:21504   */\n      mstore\n        /* \"#utility.yul\":21534:21538   */\n      0x20\n        /* \"#utility.yul\":21531:21532   */\n      0x00\n        /* \"#utility.yul\":21521:21539   */\n      keccak256\n        /* \"#utility.yul\":21513:21539   */\n      swap1\n      pop\n        /* \"#utility.yul\":21405:21546   */\n      swap2\n      swap1\n      pop\n      jump\t// out\n        /* \"#utility.yul\":21552:21645   */\n    tag_426:\n        /* \"#utility.yul\":21589:21595   */\n      0x00\n        /* \"#utility.yul\":21636:21638   */\n      0x20\n        /* \"#utility.yul\":21631:21633   */\n      0x1f\n        /* \"#utility.yul\":21624:21629   */\n      dup4\n        /* \"#utility.yul\":21620:21634   */\n      add\n        /* \"#utility.yul\":21616:21639   */\n      div\n        /* \"#utility.yul\":21606:21639   */\n      swap1\n      pop\n        /* \"#utility.yul\":21552:21645   */\n      swap2\n      swap1\n      pop\n      jump\t// out\n        /* \"#utility.yul\":21651:21758   */\n    tag_427:\n        /* \"#utility.yul\":21695:21703   */\n      0x00\n        /* \"#utility.yul\":21745:21750   */\n      dup3\n        /* \"#utility.yul\":21739:21743   */\n      dup3\n        /* \"#utility.yul\":21735:21751   */\n      shl\n        /* \"#utility.yul\":21714:21751   */\n      swap1\n      pop\n        /* \"#utility.yul\":21651:21758   */\n      swap3\n      swap2\n      pop\n      pop\n      jump\t// out\n        /* \"#utility.yul\":21764:22157   */\n    tag_428:\n        /* \"#utility.yul\":21833:21839   */\n      0x00\n        /* \"#utility.yul\":21883:21884   */\n      0x08\n        /* \"#utility.yul\":21871:21881   */\n      dup4\n        /* \"#utility.yul\":21867:21885   */\n      mul\n        /* \"#utility.yul\":21906:22003   */\n      tag_645\n        /* \"#utility.yul\":21936:22002   */\n      0xffffffffffffffffffffffffffffffffffffffffffffffffffffffffffffffff\n        /* \"#utility.yul\":21925:21934   */\n      dup3\n        /* \"#utility.yul\":21906:22003   */\n      tag_427\n      jump\t// in\n    tag_645:\n        /* \"#utility.yul\":22024:22063   */\n      tag_646\n        /* \"#utility.yul\":22054:22062   */\n      dup7\n        /* \"#utility.yul\":22043:22052   */\n      dup4\n        /* \"#utility.yul\":22024:22063   */\n      tag_427\n      jump\t// in\n    tag_646:\n        /* \"#utility.yul\":22012:22063   */\n      swap6\n      pop\n        /* \"#utility.yul\":22096:22100   */\n      dup1\n        /* \"#utility.yul\":22092:22101   */\n      not\n        /* \"#utility.yul\":22085:22090   */\n      dup5\n        /* \"#utility.yul\":22081:22102   */\n      and\n        /* \"#utility.yul\":22072:22102   */\n      swap4\n      pop\n        /* \"#utility.yul\":22145:22149   */\n      dup1\n        /* \"#utility.yul\":22135:22143   */\n      dup7\n        /* \"#utility.yul\":22131:22150   */\n      and\n        /* \"#utility.yul\":22124:22129   */\n      dup5\n        /* \"#utility.yul\":22121:22151   */\n      or\n        /* \"#utility.yul\":22111:22151   */\n      swap3\n      pop\n        /* \"#utility.yul\":21840:22157   */\n      pop\n      pop\n        /* \"#utility.yul\":21764:22157   */\n      swap4\n      swap3\n      pop\n      pop\n      pop\n      jump\t// out\n        /* \"#utility.yul\":22163:22223   */\n    tag_429:\n        /* \"#utility.yul\":22191:22194   */\n      0x00\n        /* \"#utility.yul\":22212:22217   */\n      dup2\n        /* \"#utility.yul\":22205:22217   */\n      swap1\n      pop\n        /* \"#utility.yul\":22163:22223   */\n      swap2\n      swap1\n      pop\n      jump\t// out\n        /* \"#utility.yul\":22229:22371   */\n    tag_430:\n        /* \"#utility.yul\":22279:22288   */\n      0x00\n        /* \"#utility.yul\":22312:22365   */\n      tag_649\n        /* \"#utility.yul\":22330:22364   */\n      tag_650\n        /* \"#utility.yul\":22339:22363   */\n      tag_651\n        /* \"#utility.yul\":22357:22362   */\n      dup5\n        /* \"#utility.yul\":22339:22363   */\n      tag_384\n      jump\t// in\n    tag_651:\n        /* \"#utility.yul\":22330:22364   */\n      tag_429\n      jump\t// in\n    tag_650:\n        /* \"#utility.yul\":22312:22365   */\n      tag_384\n      jump\t// in\n    tag_649:\n        /* \"#utility.yul\":22299:22365   */\n      swap1\n      pop\n        /* \"#utility.yul\":22229:22371   */\n      swap2\n      swap1\n      pop\n      jump\t// out\n        /* \"#utility.yul\":22377:22452   */\n    tag_431:\n        /* \"#utility.yul\":22420:22423   */\n      0x00\n        /* \"#utility.yul\":22441:22446   */\n      dup2\n        /* \"#utility.yul\":22434:22446   */\n      swap1\n      pop\n        /* \"#utility.yul\":22377:22452   */\n      swap2\n      swap1\n      pop\n      jump\t// out\n        /* \"#utility.yul\":22458:22727   */\n    tag_432:\n        /* \"#utility.yul\":22568:22607   */\n      tag_654\n        /* \"#utility.yul\":22599:22606   */\n      dup4\n        /* \"#utility.yul\":22568:22607   */\n      tag_430\n      jump\t// in\n    tag_654:\n        /* \"#utility.yul\":22629:22720   */\n      tag_655\n        /* \"#utility.yul\":22678:22719   */\n      tag_656\n        /* \"#utility.yul\":22702:22718   */\n      dup3\n        /* \"#utility.yul\":22678:22719   */\n      tag_431\n      jump\t// in\n    tag_656:\n        /* \"#utility.yul\":22670:22676   */\n      dup5\n        /* \"#utility.yul\":22663:22667   */\n      dup5\n        /* \"#utility.yul\":22657:22668   */\n      sload\n        /* \"#utility.yul\":22629:22720   */\n      tag_428\n      jump\t// in\n    tag_655:\n        /* \"#utility.yul\":22623:22627   */\n      dup3\n        /* \"#utility.yul\":22616:22721   */\n      sstore\n        /* \"#utility.yul\":22534:22727   */\n      pop\n        /* \"#utility.yul\":22458:22727   */\n      pop\n      pop\n      pop\n      jump\t// out\n        /* \"#utility.yul\":22733:22806   */\n    tag_433:\n        /* \"#utility.yul\":22778:22781   */\n      0x00\n        /* \"#utility.yul\":22733:22806   */\n      swap1\n      jump\t// out\n        /* \"#utility.yul\":22812:23001   */\n    tag_434:\n        /* \"#utility.yul\":22889:22921   */\n      tag_659\n      tag_433\n      jump\t// in\n    tag_659:\n        /* \"#utility.yul\":22930:22995   */\n      tag_660\n        /* \"#utility.yul\":22988:22994   */\n      dup2\n        /* \"#utility.yul\":22980:22986   */\n      dup5\n        /* \"#utility.yul\":22974:22978   */\n      dup5\n        /* \"#utility.yul\":22930:22995   */\n      tag_432\n      jump\t// in\n    tag_660:\n        /* \"#utility.yul\":22865:23001   */\n      pop\n        /* \"#utility.yul\":22812:23001   */\n      pop\n      pop\n      jump\t// out\n        /* \"#utility.yul\":23007:23193   */\n    tag_435:\n        /* \"#utility.yul\":23067:23187   */\n    tag_662:\n        /* \"#utility.yul\":23084:23087   */\n      dup2\n        /* \"#utility.yul\":23077:23082   */\n      dup2\n        /* \"#utility.yul\":23074:23088   */\n      lt\n        /* \"#utility.yul\":23067:23187   */\n      iszero\n      tag_664\n      jumpi\n        /* \"#utility.yul\":23138:23177   */\n      tag_665\n        /* \"#utility.yul\":23175:23176   */\n      0x00\n        /* \"#utility.yul\":23168:23173   */\n      dup3\n        /* \"#utility.yul\":23138:23177   */\n      tag_434\n      jump\t// in\n    tag_665:\n        /* \"#utility.yul\":23111:23112   */\n      0x01\n        /* \"#utility.yul\":23104:23109   */\n      dup2\n        /* \"#utility.yul\":23100:23113   */\n      add\n        /* \"#utility.yul\":23091:23113   */\n      swap1\n      pop\n        /* \"#utility.yul\":23067:23187   */\n      jump(tag_662)\n    tag_664:\n        /* \"#utility.yul\":23007:23193   */\n      pop\n      pop\n      jump\t// out\n        /* \"#utility.yul\":23199:23742   */\n    tag_436:\n        /* \"#utility.yul\":23300:23302   */\n      0x1f\n        /* \"#utility.yul\":23295:23298   */\n      dup3\n        /* \"#utility.yul\":23292:23303   */\n      gt\n        /* \"#utility.yul\":23289:23735   */\n      iszero\n      tag_667\n      jumpi\n        /* \"#utility.yul\":23334:23372   */\n      tag_668\n        /* \"#utility.yul\":23366:23371   */\n      dup2\n        /* \"#utility.yul\":23334:23372   */\n      tag_425\n      jump\t// in\n    tag_668:\n        /* \"#utility.yul\":23418:23447   */\n      tag_669\n        /* \"#utility.yul\":23436:23446   */\n      dup5\n        /* \"#utility.yul\":23418:23447   */\n      tag_426\n      jump\t// in\n    tag_669:\n        /* \"#utility.yul\":23408:23416   */\n      dup2\n        /* \"#utility.yul\":23404:23448   */\n      add\n        /* \"#utility.yul\":23601:23603   */\n      0x20\n        /* \"#utility.yul\":23589:23599   */\n      dup6\n        /* \"#utility.yul\":23586:23604   */\n      lt\n        /* \"#utility.yul\":23583:23632   */\n      iszero\n      tag_670\n      jumpi\n        /* \"#utility.yul\":23622:23630   */\n      dup2\n        /* \"#utility.yul\":23607:23630   */\n      swap1\n      pop\n        /* \"#utility.yul\":23583:23632   */\n    tag_670:\n        /* \"#utility.yul\":23645:23725   */\n      tag_671\n        /* \"#utility.yul\":23701:23723   */\n      tag_672\n        /* \"#utility.yul\":23719:23722   */\n      dup6\n        /* \"#utility.yul\":23701:23723   */\n      tag_426\n      jump\t// in\n    tag_672:\n        /* \"#utility.yul\":23691:23699   */\n      dup4\n        /* \"#utility.yul\":23687:23724   */\n      add\n        /* \"#utility.yul\":23674:23685   */\n      dup3\n        /* \"#utility.yul\":23645:23725   */\n      tag_435\n      jump\t// in\n    tag_671:\n        /* \"#utility.yul\":23304:23735   */\n      pop\n      pop\n        /* \"#utility.yul\":23289:23735   */\n    tag_667:\n        /* \"#utility.yul\":23199:23742   */\n      pop\n      pop\n      pop\n      jump\t// out\n        /* \"#utility.yul\":23748:23865   */\n    tag_437:\n        /* \"#utility.yul\":23802:23810   */\n      0x00\n        /* \"#utility.yul\":23852:23857   */\n      dup3\n        /* \"#utility.yul\":23846:23850   */\n      dup3\n        /* \"#utility.yul\":23842:23858   */\n      shr\n        /* \"#utility.yul\":23821:23858   */\n      swap1\n      pop\n        /* \"#utility.yul\":23748:23865   */\n      swap3\n      swap2\n      pop\n      pop\n      jump\t// out\n        /* \"#utility.yul\":23871:24040   */\n    tag_438:\n        /* \"#utility.yul\":23915:23921   */\n      0x00\n        /* \"#utility.yul\":23948:23999   */\n      tag_675\n        /* \"#utility.yul\":23996:23997   */\n      0x00\n        /* \"#utility.yul\":23992:23998   */\n      not\n        /* \"#utility.yul\":23984:23989   */\n      dup5\n        /* \"#utility.yul\":23981:23982   */\n      0x08\n        /* \"#utility.yul\":23977:23990   */\n      mul\n        /* \"#utility.yul\":23948:23999   */\n      tag_437\n      jump\t// in\n    tag_675:\n        /* \"#utility.yul\":23944:24000   */\n      not\n        /* \"#utility.yul\":24029:24033   */\n      dup1\n        /* \"#utility.yul\":24023:24027   */\n      dup4\n        /* \"#utility.yul\":24019:24034   */\n      and\n        /* \"#utility.yul\":24009:24034   */\n      swap2\n      pop\n        /* \"#utility.yul\":23922:24040   */\n      pop\n        /* \"#utility.yul\":23871:24040   */\n      swap3\n      swap2\n      pop\n      pop\n      jump\t// out\n        /* \"#utility.yul\":24045:24340   */\n    tag_439:\n        /* \"#utility.yul\":24121:24125   */\n      0x00\n        /* \"#utility.yul\":24267:24296   */\n      tag_677\n        /* \"#utility.yul\":24292:24295   */\n      dup4\n        /* \"#utility.yul\":24286:24290   */\n      dup4\n        /* \"#utility.yul\":24267:24296   */\n      tag_438\n      jump\t// in\n    tag_677:\n        /* \"#utility.yul\":24259:24296   */\n      swap2\n      pop\n        /* \"#utility.yul\":24329:24332   */\n      dup3\n        /* \"#utility.yul\":24326:24327   */\n      0x02\n        /* \"#utility.yul\":24322:24333   */\n      mul\n        /* \"#utility.yul\":24316:24320   */\n      dup3\n        /* \"#utility.yul\":24313:24334   */\n      or\n        /* \"#utility.yul\":24305:24334   */\n      swap1\n      pop\n        /* \"#utility.yul\":24045:24340   */\n      swap3\n      swap2\n      pop\n      pop\n      jump\t// out\n        /* \"#utility.yul\":24345:25740   */\n    tag_241:\n        /* \"#utility.yul\":24462:24499   */\n      tag_679\n        /* \"#utility.yul\":24495:24498   */\n      dup3\n        /* \"#utility.yul\":24462:24499   */\n      tag_379\n      jump\t// in\n    tag_679:\n        /* \"#utility.yul\":24564:24582   */\n      0xffffffffffffffff\n        /* \"#utility.yul\":24556:24562   */\n      dup2\n        /* \"#utility.yul\":24553:24583   */\n      gt\n        /* \"#utility.yul\":24550:24606   */\n      iszero\n      tag_680\n      jumpi\n        /* \"#utility.yul\":24586:24604   */\n      tag_681\n      tag_91\n      jump\t// in\n    tag_681:\n        /* \"#utility.yul\":24550:24606   */\n    tag_680:\n        /* \"#utility.yul\":24630:24668   */\n      tag_682\n        /* \"#utility.yul\":24662:24666   */\n      dup3\n        /* \"#utility.yul\":24656:24667   */\n      sload\n        /* \"#utility.yul\":24630:24668   */\n      tag_71\n      jump\t// in\n    tag_682:\n        /* \"#utility.yul\":24715:24782   */\n      tag_683\n        /* \"#utility.yul\":24775:24781   */\n      dup3\n        /* \"#utility.yul\":24767:24773   */\n      dup3\n        /* \"#utility.yul\":24761:24765   */\n      dup6\n        /* \"#utility.yul\":24715:24782   */\n      tag_436\n      jump\t// in\n    tag_683:\n        /* \"#utility.yul\":24809:24810   */\n      0x00\n        /* \"#utility.yul\":24833:24837   */\n      0x20\n        /* \"#utility.yul\":24820:24837   */\n      swap1\n      pop\n        /* \"#utility.yul\":24865:24867   */\n      0x1f\n        /* \"#utility.yul\":24857:24863   */\n      dup4\n        /* \"#utility.yul\":24854:24868   */\n      gt\n        /* \"#utility.yul\":24882:24883   */\n      0x01\n        /* \"#utility.yul\":24877:25495   */\n      dup2\n      eq\n      tag_685\n      jumpi\n        /* \"#utility.yul\":25539:25540   */\n      0x00\n        /* \"#utility.yul\":25556:25562   */\n      dup5\n        /* \"#utility.yul\":25553:25630   */\n      iszero\n      tag_686\n      jumpi\n        /* \"#utility.yul\":25605:25614   */\n      dup3\n        /* \"#utility.yul\":25600:25603   */\n      dup8\n        /* \"#utility.yul\":25596:25615   */\n      add\n        /* \"#utility.yul\":25590:25616   */\n      mload\n        /* \"#utility.yul\":25581:25616   */\n      swap1\n      pop\n        /* \"#utility.yul\":25553:25630   */\n    tag_686:\n        /* \"#utility.yul\":25656:25723   */\n      tag_687\n        /* \"#utility.yul\":25716:25722   */\n      dup6\n        /* \"#utility.yul\":25709:25714   */\n      dup3\n        /* \"#utility.yul\":25656:25723   */\n      tag_439\n      jump\t// in\n    tag_687:\n        /* \"#utility.yul\":25650:25654   */\n      dup7\n        /* \"#utility.yul\":25643:25724   */\n      sstore\n        /* \"#utility.yul\":25512:25734   */\n      pop\n        /* \"#utility.yul\":24847:25734   */\n      jump(tag_684)\n        /* \"#utility.yul\":24877:25495   */\n    tag_685:\n        /* \"#utility.yul\":24929:24933   */\n      0x1f\n        /* \"#utility.yul\":24925:24934   */\n      not\n        /* \"#utility.yul\":24917:24923   */\n      dup5\n        /* \"#utility.yul\":24913:24935   */\n      and\n        /* \"#utility.yul\":24963:25000   */\n      tag_688\n        /* \"#utility.yul\":24995:24999   */\n      dup7\n        /* \"#utility.yul\":24963:25000   */\n      tag_425\n      jump\t// in\n    tag_688:\n        /* \"#utility.yul\":25022:25023   */\n      0x00\n        /* \"#utility.yul\":25036:25244   */\n    tag_689:\n        /* \"#utility.yul\":25050:25057   */\n      dup3\n        /* \"#utility.yul\":25047:25048   */\n      dup2\n        /* \"#utility.yul\":25044:25058   */\n      lt\n        /* \"#utility.yul\":25036:25244   */\n      iszero\n      tag_691\n      jumpi\n        /* \"#utility.yul\":25129:25138   */\n      dup5\n        /* \"#utility.yul\":25124:25127   */\n      dup10\n        /* \"#utility.yul\":25120:25139   */\n      add\n        /* \"#utility.yul\":25114:25140   */\n      mload\n        /* \"#utility.yul\":25106:25112   */\n      dup3\n        /* \"#utility.yul\":25099:25141   */\n      sstore\n        /* \"#utility.yul\":25180:25181   */\n      0x01\n        /* \"#utility.yul\":25172:25178   */\n      dup3\n        /* \"#utility.yul\":25168:25182   */\n      add\n        /* \"#utility.yul\":25158:25182   */\n      swap2\n      pop\n        /* \"#utility.yul\":25227:25229   */\n      0x20\n        /* \"#utility.yul\":25216:25225   */\n      dup6\n        /* \"#utility.yul\":25212:25230   */\n      add\n        /* \"#utility.yul\":25199:25230   */\n      swap5\n      pop\n        /* \"#utility.yul\":25073:25077   */\n      0x20\n        /* \"#utility.yul\":25070:25071   */\n      dup2\n        /* \"#utility.yul\":25066:25078   */\n      add\n        /* \"#utility.yul\":25061:25078   */\n      swap1\n      pop\n        /* \"#utility.yul\":25036:25244   */\n      jump(tag_689)\n    tag_691:\n        /* \"#utility.yul\":25272:25278   */\n      dup7\n        /* \"#utility.yul\":25263:25270   */\n      dup4\n        /* \"#utility.yul\":25260:25279   */\n      lt\n        /* \"#utility.yul\":25257:25436   */\n      iszero\n      tag_692\n      jumpi\n        /* \"#utility.yul\":25330:25339   */\n      dup5\n        /* \"#utility.yul\":25325:25328   */\n      dup10\n        /* \"#utility.yul\":25321:25340   */\n      add\n        /* \"#utility.yul\":25315:25341   */\n      mload\n        /* \"#utility.yul\":25373:25421   */\n      tag_693\n        /* \"#utility.yul\":25415:25419   */\n      0x1f\n        /* \"#utility.yul\":25407:25413   */\n      dup10\n        /* \"#utility.yul\":25403:25420   */\n      and\n        /* \"#utility.yul\":25392:25401   */\n      dup3\n        /* \"#utility.yul\":25373:25421   */\n      tag_438\n      jump\t// in\n    tag_693:\n        /* \"#utility.yul\":25365:25371   */\n      dup4\n        /* \"#utility.yul\":25358:25422   */\n      sstore\n        /* \"#utility.yul\":25280:25436   */\n      pop\n        /* \"#utility.yul\":25257:25436   */\n    tag_692:\n        /* \"#utility.yul\":25482:25483   */\n      0x01\n        /* \"#utility.yul\":25478:25479   */\n      0x02\n        /* \"#utility.yul\":25470:25476   */\n      dup9\n        /* \"#utility.yul\":25466:25480   */\n      mul\n        /* \"#utility.yul\":25462:25484   */\n      add\n        /* \"#utility.yul\":25456:25460   */\n      dup9\n        /* \"#utility.yul\":25449:25485   */\n      sstore\n        /* \"#utility.yul\":24884:25495   */\n      pop\n      pop\n      pop\n        /* \"#utility.yul\":24847:25734   */\n    tag_684:\n      pop\n        /* \"#utility.yul\":24437:25740   */\n      pop\n      pop\n      pop\n        /* \"#utility.yul\":24345:25740   */\n      pop\n      pop\n      jump\t// out\n        /* \"#utility.yul\":25746:25894   */\n    tag_440:\n        /* \"#utility.yul\":25848:25859   */\n      0x00\n        /* \"#utility.yul\":25885:25888   */\n      dup2\n        /* \"#utility.yul\":25870:25888   */\n      swap1\n      pop\n        /* \"#utility.yul\":25746:25894   */\n      swap3\n      swap2\n      pop\n      pop\n      jump\t// out\n        /* \"#utility.yul\":25900:26290   */\n    tag_441:\n        /* \"#utility.yul\":26006:26009   */\n      0x00\n        /* \"#utility.yul\":26034:26073   */\n      tag_696\n        /* \"#utility.yul\":26067:26072   */\n      dup3\n        /* \"#utility.yul\":26034:26073   */\n      tag_379\n      jump\t// in\n    tag_696:\n        /* \"#utility.yul\":26089:26178   */\n      tag_697\n        /* \"#utility.yul\":26171:26177   */\n      dup2\n        /* \"#utility.yul\":26166:26169   */\n      dup6\n        /* \"#utility.yul\":26089:26178   */\n      tag_440\n      jump\t// in\n    tag_697:\n        /* \"#utility.yul\":26082:26178   */\n      swap4\n      pop\n        /* \"#utility.yul\":26187:26252   */\n      tag_698\n        /* \"#utility.yul\":26245:26251   */\n      dup2\n        /* \"#utility.yul\":26240:26243   */\n      dup6\n        /* \"#utility.yul\":26233:26237   */\n      0x20\n        /* \"#utility.yul\":26226:26231   */\n      dup7\n        /* \"#utility.yul\":26222:26238   */\n      add\n        /* \"#utility.yul\":26187:26252   */\n      tag_381\n      jump\t// in\n    tag_698:\n        /* \"#utility.yul\":26277:26283   */\n      dup1\n        /* \"#utility.yul\":26272:26275   */\n      dup5\n        /* \"#utility.yul\":26268:26284   */\n      add\n        /* \"#utility.yul\":26261:26284   */\n      swap2\n      pop\n        /* \"#utility.yul\":26010:26290   */\n      pop\n        /* \"#utility.yul\":25900:26290   */\n      swap3\n      swap2\n      pop\n      pop\n      jump\t// out\n        /* \"#utility.yul\":26296:26571   */\n    tag_247:\n        /* \"#utility.yul\":26428:26431   */\n      0x00\n        /* \"#utility.yul\":26450:26545   */\n      tag_700\n        /* \"#utility.yul\":26541:26544   */\n      dup3\n        /* \"#utility.yul\":26532:26538   */\n      dup5\n        /* \"#utility.yul\":26450:26545   */\n      tag_441\n      jump\t// in\n    tag_700:\n        /* \"#utility.yul\":26443:26545   */\n      swap2\n      pop\n        /* \"#utility.yul\":26562:26565   */\n      dup2\n        /* \"#utility.yul\":26555:26565   */\n      swap1\n      pop\n        /* \"#utility.yul\":26296:26571   */\n      swap3\n      swap2\n      pop\n      pop\n      jump\t// out\n\n    auxdata: 0xa264697066735822122003e180cac89ec067fe7506f74ac3b7074f9b2fca5db413ac8311358bcf52d09a64736f6c63430008120033\n}\n",
				"bytecode": {
					"linkReferences": {},
					"object": "608060405234801561001057600080fd5b50612a78806100206000396000f3fe608060405234801561001057600080fd5b50600436106100b45760003560e01c806395863d621161007157806395863d62146101805780639a2a5815146101b0578063d437d7ca146101ce578063e5521501146101ec578063e9e309271461021c578063eac1d5b71461023a576100b4565b80631cfd4566146100b957806321055acb146100d757806323abd657146100f5578063642f91631461011557806374aa68581461014557806375d073eb14610161575b600080fd5b6100c161026a565b6040516100ce9190611f8b565b60405180910390f35b6100df6106a4565b6040516100ec9190611fbc565b60405180910390f35b6100fd610715565b60405161010c93929190611fd7565b60405180910390f35b61012f600480360381019061012a9190612055565b610d64565b60405161013c9190612106565b60405180910390f35b61015f600480360381019061015a9190612343565b610fbd565b005b61016961113e565b6040516101779291906123ce565b60405180910390f35b61019a600480360381019061019591906123fe565b61156b565b6040516101a79190612106565b60405180910390f35b6101b86117b4565b6040516101c59190612462565b60405180910390f35b6101d66117d6565b6040516101e39190611fbc565b60405180910390f35b610206600480360381019061020191906123fe565b6117e2565b6040516102139190611fbc565b60405180910390f35b61022461180d565b6040516102319190611f8b565b60405180910390f35b610254600480360381019061024f9190612055565b611a7d565b60405161026191906124c7565b60405180910390f35b6060600080805480602002602001604051908101604052809291908181526020016000905b828210156104d257838290600052602060002090600502016040518060a00160405290816000820180546102c290612518565b80601f01602080910402602001604051908101604052809291908181526020018280546102ee90612518565b801561033b5780601f106103105761010080835404028352916020019161033b565b820191906000526020600020905b81548152906001019060200180831161031e57829003601f168201915b50505050508152602001600182015481526020016002820154815260200160038201805461036890612518565b80601f016020809104026020016040519081016040528092919081815260200182805461039490612518565b80156103e15780601f106103b6576101008083540402835291602001916103e1565b820191906000526020600020905b8154815290600101906020018083116103c457829003601f168201915b5050505050815260200160048201805480602002602001604051908101604052809291908181526020016000905b828210156104bb57838290600052602060002001805461042e90612518565b80601f016020809104026020016040519081016040528092919081815260200182805461045a90612518565b80156104a75780601f1061047c576101008083540402835291602001916104a7565b820191906000526020600020905b81548152906001019060200180831161048a57829003601f168201915b50505050508152602001906001019061040f565b50505050815250508152602001906001019061028f565b5050505090506000600467ffffffffffffffff8111156104f5576104f4612132565b5b60405190808252806020026020018201604052801561052e57816020015b61051b611bd1565b8152602001906001900390816105135790505b50905060005b600183516105429190612578565b81101561064257600060018261055891906125ac565b90505b835181101561062e57838181518110610577576105766125e0565b5b602002602001015160400151848381518110610596576105956125e0565b5b602002602001015160400151101561061b578381815181106105bb576105ba6125e0565b5b60200260200101518483815181106105d6576105d56125e0565b5b60200260200101518584815181106105f1576105f06125e0565b5b6020026020010186848151811061060b5761060a6125e0565b5b6020026020010182905282905250505b80806106269061260f565b91505061055b565b50808061063a9061260f565b915050610534565b5060005b600481101561069b57828181518110610662576106616125e0565b5b602002602001015182828151811061067d5761067c6125e0565b5b602002602001018190525080806106939061260f565b915050610646565b50809250505090565b60008060005b6000805490508110156106fd57600081815481106106cb576106ca6125e0565b5b906000526020600020906005020160020154826106e891906125ac565b915080806106f59061260f565b9150506106aa565b506000805490508161070f9190612686565b91505090565b6000806060600080805480602002602001604051908101604052809291908181526020016000905b8282101561098057838290600052602060002090600502016040518060a001604052908160008201805461077090612518565b80601f016020809104026020016040519081016040528092919081815260200182805461079c90612518565b80156107e95780601f106107be576101008083540402835291602001916107e9565b820191906000526020600020905b8154815290600101906020018083116107cc57829003601f168201915b50505050508152602001600182015481526020016002820154815260200160038201805461081690612518565b80601f016020809104026020016040519081016040528092919081815260200182805461084290612518565b801561088f5780601f106108645761010080835404028352916020019161088f565b820191906000526020600020905b81548152906001019060200180831161087257829003601f168201915b5050505050815260200160048201805480602002602001604051908101604052809291908181526020016000905b828210156109695783829060005260206000200180546108dc90612518565b80601f016020809104026020016040519081016040528092919081815260200182805461090890612518565b80156109555780601f1061092a57610100808354040283529160200191610955565b820191906000526020600020905b81548152906001019060200180831161093857829003601f168201915b5050505050815260200190600101906108bd565b50505050815250508152602001906001019061073d565b5050505090506060600080600090505b600080549050811015610d51576040518060400160405280600181526020017f460000000000000000000000000000000000000000000000000000000000000081525080519060200120600082815481106109ee576109ed6125e0565b5b9060005260206000209060050201600301604051610a0c919061275a565b604051809103902003610d3e578180610a249061260f565b92505060008181548110610a3b57610a3a6125e0565b5b90600052602060002090600502016040518060a0016040529081600082018054610a6490612518565b80601f0160208091040260200160405190810160405280929190818152602001828054610a9090612518565b8015610add5780601f10610ab257610100808354040283529160200191610add565b820191906000526020600020905b815481529060010190602001808311610ac057829003601f168201915b505050505081526020016001820154815260200160028201548152602001600382018054610b0a90612518565b80601f0160208091040260200160405190810160405280929190818152602001828054610b3690612518565b8015610b835780601f10610b5857610100808354040283529160200191610b83565b820191906000526020600020905b815481529060010190602001808311610b6657829003601f168201915b5050505050815260200160048201805480602002602001604051908101604052809291908181526020016000905b82821015610c5d578382906000526020600020018054610bd090612518565b80601f0160208091040260200160405190810160405280929190818152602001828054610bfc90612518565b8015610c495780601f10610c1e57610100808354040283529160200191610c49565b820191906000526020600020905b815481529060010190602001808311610c2c57829003601f168201915b505050505081526020019060010190610bb1565b505050508152505084600184610c739190612578565b81518110610c8457610c836125e0565b5b60200260200101819052508167ffffffffffffffff811115610ca957610ca8612132565b5b604051908082528060200260200182016040528015610ce257816020015b610ccf611bd1565b815260200190600190039081610cc75790505b50925060005b82811015610d3c57848181518110610d0357610d026125e0565b5b6020026020010151848281518110610d1e57610d1d6125e0565b5b60200260200101819052508080610d349061260f565b915050610ce8565b505b8080610d499061260f565b915050610990565b5081518183955095509550505050909192565b610d6c611bd1565b6000600183610d7b9190612578565b81548110610d8c57610d8b6125e0565b5b90600052602060002090600502016040518060a0016040529081600082018054610db590612518565b80601f0160208091040260200160405190810160405280929190818152602001828054610de190612518565b8015610e2e5780601f10610e0357610100808354040283529160200191610e2e565b820191906000526020600020905b815481529060010190602001808311610e1157829003601f168201915b505050505081526020016001820154815260200160028201548152602001600382018054610e5b90612518565b80601f0160208091040260200160405190810160405280929190818152602001828054610e8790612518565b8015610ed45780601f10610ea957610100808354040283529160200191610ed4565b820191906000526020600020905b815481529060010190602001808311610eb757829003601f168201915b5050505050815260200160048201805480602002602001604051908101604052809291908181526020016000905b82821015610fae578382906000526020600020018054610f2190612518565b80601f0160208091040260200160405190810160405280929190818152602001828054610f4d90612518565b8015610f9a5780601f10610f6f57610100808354040283529160200191610f9a565b820191906000526020600020905b815481529060010190602001808311610f7d57829003601f168201915b505050505081526020019060010190610f02565b50505050815250509050919050565b60006040518060a001604052808581526020016001600080549050610fe291906125ac565b8152602001848152602001610ff685611a7d565b8152602001838152509080600181540180825580915050600190039060005260206000209060050201600090919091909150600082015181600001908161103d919061291d565b5060208201518160010155604082015181600201556060820151816003019081611067919061291d565b506080820151816004019080519060200190611084929190611c00565b5050506040518060a0016040528084815260200160008054905081526020018381526020016110b284611a7d565b8152602001828152506001846040516110cb9190612a2b565b908152602001604051809103902060008201518160000190816110ee919061291d565b5060208201518160010155604082015181600201556060820151816003019081611118919061291d565b506080820151816004019080519060200190611135929190611c00565b50905050505050565b60006060600080600090505b6000805490508110156111f5576040518060400160405280600181526020017f460000000000000000000000000000000000000000000000000000000000000081525080519060200120600082815481106111a8576111a76125e0565b5b90600052602060002090600502016003016040516111c6919061275a565b6040518091039020036111e25781806111de9061260f565b9250505b80806111ed9061260f565b91505061114a565b5060008167ffffffffffffffff81111561121257611211612132565b5b60405190808252806020026020018201604052801561124b57816020015b611238611bd1565b8152602001906001900390816112305790505b509050600080600090505b60008054905081101561155d576040518060400160405280600181526020017f460000000000000000000000000000000000000000000000000000000000000081525080519060200120600082815481106112b4576112b36125e0565b5b90600052602060002090600502016003016040516112d2919061275a565b60405180910390200361153c57600081815481106112f3576112f26125e0565b5b90600052602060002090600502016040518060a001604052908160008201805461131c90612518565b80601f016020809104026020016040519081016040528092919081815260200182805461134890612518565b80156113955780601f1061136a57610100808354040283529160200191611395565b820191906000526020600020905b81548152906001019060200180831161137857829003601f168201915b5050505050815260200160018201548152602001600282015481526020016003820180546113c290612518565b80601f01602080910402602001604051908101604052809291908181526020018280546113ee90612518565b801561143b5780601f106114105761010080835404028352916020019161143b565b820191906000526020600020905b81548152906001019060200180831161141e57829003601f168201915b5050505050815260200160048201805480602002602001604051908101604052809291908181526020016000905b8282101561151557838290600052602060002001805461148890612518565b80601f01602080910402602001604051908101604052809291908181526020018280546114b490612518565b80156115015780601f106114d657610100808354040283529160200191611501565b820191906000526020600020905b8154815290600101906020018083116114e457829003601f168201915b505050505081526020019060010190611469565b50505050815250508383815181106115305761152f6125e0565b5b60200260200101819052505b81806115479061260f565b92505080806115559061260f565b915050611256565b508282945094505050509091565b611573611bd1565b6001826040516115839190612a2b565b90815260200160405180910390206040518060a00160405290816000820180546115ac90612518565b80601f01602080910402602001604051908101604052809291908181526020018280546115d890612518565b80156116255780601f106115fa57610100808354040283529160200191611625565b820191906000526020600020905b81548152906001019060200180831161160857829003601f168201915b50505050508152602001600182015481526020016002820154815260200160038201805461165290612518565b80601f016020809104026020016040519081016040528092919081815260200182805461167e90612518565b80156116cb5780601f106116a0576101008083540402835291602001916116cb565b820191906000526020600020905b8154815290600101906020018083116116ae57829003601f168201915b5050505050815260200160048201805480602002602001604051908101604052809291908181526020016000905b828210156117a557838290600052602060002001805461171890612518565b80601f016020809104026020016040519081016040528092919081815260200182805461174490612518565b80156117915780601f1061176657610100808354040283529160200191611791565b820191906000526020600020905b81548152906001019060200180831161177457829003601f168201915b5050505050815260200190600101906116f9565b50505050815250509050919050565b600060466117c06106a4565b106117ce57600190506117d3565b600090505b90565b60008080549050905090565b60006001826040516117f49190612a2b565b9081526020016040518091039020600201549050919050565b60606000805480602002602001604051908101604052809291908181526020016000905b82821015611a7457838290600052602060002090600502016040518060a001604052908160008201805461186490612518565b80601f016020809104026020016040519081016040528092919081815260200182805461189090612518565b80156118dd5780601f106118b2576101008083540402835291602001916118dd565b820191906000526020600020905b8154815290600101906020018083116118c057829003601f168201915b50505050508152602001600182015481526020016002820154815260200160038201805461190a90612518565b80601f016020809104026020016040519081016040528092919081815260200182805461193690612518565b80156119835780601f1061195857610100808354040283529160200191611983565b820191906000526020600020905b81548152906001019060200180831161196657829003601f168201915b5050505050815260200160048201805480602002602001604051908101604052809291908181526020016000905b82821015611a5d5783829060005260206000200180546119d090612518565b80601f01602080910402602001604051908101604052809291908181526020018280546119fc90612518565b8015611a495780601f10611a1e57610100808354040283529160200191611a49565b820191906000526020600020905b815481529060010190602001808311611a2c57829003601f168201915b5050505050815260200190600101906119b1565b505050508152505081526020019060010190611831565b50505050905090565b6060605a8210611ac4576040518060400160405280600181526020017f41000000000000000000000000000000000000000000000000000000000000008152509050611bcc565b60508210611b09576040518060400160405280600181526020017f42000000000000000000000000000000000000000000000000000000000000008152509050611bcc565b60468210611b4e576040518060400160405280600181526020017f43000000000000000000000000000000000000000000000000000000000000008152509050611bcc565b603c8210611b93576040518060400160405280600181526020017f44000000000000000000000000000000000000000000000000000000000000008152509050611bcc565b6040518060400160405280600181526020017f460000000000000000000000000000000000000000000000000000000000000081525090505b919050565b6040518060a0016040528060608152602001600081526020016000815260200160608152602001606081525090565b828054828255906000526020600020908101928215611c48579160200282015b82811115611c47578251829081611c37919061291d565b5091602001919060010190611c20565b5b509050611c559190611c59565b5090565b5b80821115611c795760008181611c709190611c7d565b50600101611c5a565b5090565b508054611c8990612518565b6000825580601f10611c9b5750611cba565b601f016020900490600052602060002090810190611cb99190611cbd565b5b50565b5b80821115611cd6576000816000905550600101611cbe565b5090565b600081519050919050565b600082825260208201905092915050565b6000819050602082019050919050565b600081519050919050565b600082825260208201905092915050565b60005b83811015611d40578082015181840152602081019050611d25565b60008484015250505050565b6000601f19601f8301169050919050565b6000611d6882611d06565b611d728185611d11565b9350611d82818560208601611d22565b611d8b81611d4c565b840191505092915050565b6000819050919050565b611da981611d96565b82525050565b600081519050919050565b600082825260208201905092915050565b6000819050602082019050919050565b6000611de78383611d5d565b905092915050565b6000602082019050919050565b6000611e0782611daf565b611e118185611dba565b935083602082028501611e2385611dcb565b8060005b85811015611e5f5784840389528151611e408582611ddb565b9450611e4b83611def565b925060208a01995050600181019050611e27565b50829750879550505050505092915050565b600060a0830160008301518482036000860152611e8e8282611d5d565b9150506020830151611ea36020860182611da0565b506040830151611eb66040860182611da0565b5060608301518482036060860152611ece8282611d5d565b91505060808301518482036080860152611ee88282611dfc565b9150508091505092915050565b6000611f018383611e71565b905092915050565b6000602082019050919050565b6000611f2182611cda565b611f2b8185611ce5565b935083602082028501611f3d85611cf6565b8060005b85811015611f795784840389528151611f5a8582611ef5565b9450611f6583611f09565b925060208a01995050600181019050611f41565b50829750879550505050505092915050565b60006020820190508181036000830152611fa58184611f16565b905092915050565b611fb681611d96565b82525050565b6000602082019050611fd16000830184611fad565b92915050565b6000606082019050611fec6000830186611fad565b611ff96020830185611fad565b818103604083015261200b8184611f16565b9050949350505050565b6000604051905090565b600080fd5b600080fd5b61203281611d96565b811461203d57600080fd5b50565b60008135905061204f81612029565b92915050565b60006020828403121561206b5761206a61201f565b5b600061207984828501612040565b91505092915050565b600060a083016000830151848203600086015261209f8282611d5d565b91505060208301516120b46020860182611da0565b5060408301516120c76040860182611da0565b50606083015184820360608601526120df8282611d5d565b915050608083015184820360808601526120f98282611dfc565b9150508091505092915050565b600060208201905081810360008301526121208184612082565b905092915050565b600080fd5b600080fd5b7f4e487b7100000000000000000000000000000000000000000000000000000000600052604160045260246000fd5b61216a82611d4c565b810181811067ffffffffffffffff8211171561218957612188612132565b5b80604052505050565b600061219c612015565b90506121a88282612161565b919050565b600067ffffffffffffffff8211156121c8576121c7612132565b5b6121d182611d4c565b9050602081019050919050565b82818337600083830152505050565b60006122006121fb846121ad565b612192565b90508281526020810184848401111561221c5761221b61212d565b5b6122278482856121de565b509392505050565b600082601f83011261224457612243612128565b5b81356122548482602086016121ed565b91505092915050565b600067ffffffffffffffff82111561227857612277612132565b5b602082029050602081019050919050565b600080fd5b60006122a161229c8461225d565b612192565b905080838252602082019050602084028301858111156122c4576122c3612289565b5b835b8181101561230b57803567ffffffffffffffff8111156122e9576122e8612128565b5b8086016122f6898261222f565b855260208501945050506020810190506122c6565b5050509392505050565b600082601f83011261232a57612329612128565b5b813561233a84826020860161228e565b91505092915050565b60008060006060848603121561235c5761235b61201f565b5b600084013567ffffffffffffffff81111561237a57612379612024565b5b6123868682870161222f565b935050602061239786828701612040565b925050604084013567ffffffffffffffff8111156123b8576123b7612024565b5b6123c486828701612315565b9150509250925092565b60006040820190506123e36000830185611fad565b81810360208301526123f58184611f16565b90509392505050565b6000602082840312156124145761241361201f565b5b600082013567ffffffffffffffff81111561243257612431612024565b5b61243e8482850161222f565b91505092915050565b60008115159050919050565b61245c81612447565b82525050565b60006020820190506124776000830184612453565b92915050565b600082825260208201905092915050565b600061249982611d06565b6124a3818561247d565b93506124b3818560208601611d22565b6124bc81611d4c565b840191505092915050565b600060208201905081810360008301526124e1818461248e565b905092915050565b7f4e487b7100000000000000000000000000000000000000000000000000000000600052602260045260246000fd5b6000600282049050600182168061253057607f821691505b602082108103612543576125426124e9565b5b50919050565b7f4e487b7100000000000000000000000000000000000000000000000000000000600052601160045260246000fd5b600061258382611d96565b915061258e83611d96565b92508282039050818111156125a6576125a5612549565b5b92915050565b60006125b782611d96565b91506125c283611d96565b92508282019050808211156125da576125d9612549565b5b92915050565b7f4e487b7100000000000000000000000000000000000000000000000000000000600052603260045260246000fd5b600061261a82611d96565b91507fffffffffffffffffffffffffffffffffffffffffffffffffffffffffffffffff820361264c5761264b612549565b5b600182019050919050565b7f4e487b7100000000000000000000000000000000000000000000000000000000600052601260045260246000fd5b600061269182611d96565b915061269c83611d96565b9250826126ac576126ab612657565b5b828204905092915050565b600081905092915050565b60008190508160005260206000209050919050565b600081546126e481612518565b6126ee81866126b7565b94506001821660008114612709576001811461271e57612751565b60ff1983168652811515820286019350612751565b612727856126c2565b60005b838110156127495781548189015260018201915060208101905061272a565b838801955050505b50505092915050565b600061276682846126d7565b915081905092915050565b60008190508160005260206000209050919050565b60006020601f8301049050919050565b600082821b905092915050565b6000600883026127d37fffffffffffffffffffffffffffffffffffffffffffffffffffffffffffffffff82612796565b6127dd8683612796565b95508019841693508086168417925050509392505050565b6000819050919050565b600061281a61281561281084611d96565b6127f5565b611d96565b9050919050565b6000819050919050565b612834836127ff565b61284861284082612821565b8484546127a3565b825550505050565b600090565b61285d612850565b61286881848461282b565b505050565b5b8181101561288c57612881600082612855565b60018101905061286e565b5050565b601f8211156128d1576128a281612771565b6128ab84612786565b810160208510156128ba578190505b6128ce6128c685612786565b83018261286d565b50505b505050565b600082821c905092915050565b60006128f4600019846008026128d6565b1980831691505092915050565b600061290d83836128e3565b9150826002028217905092915050565b61292682611d06565b67ffffffffffffffff81111561293f5761293e612132565b5b6129498254612518565b612954828285612890565b600060209050601f8311600181146129875760008415612975578287015190505b61297f8582612901565b8655506129e7565b601f19841661299586612771565b60005b828110156129bd57848901518255600182019150602085019450602081019050612998565b868310156129da57848901516129d6601f8916826128e3565b8355505b6001600288020188555050505b505050505050565b600081905092915050565b6000612a0582611d06565b612a0f81856129ef565b9350612a1f818560208601611d22565b80840191505092915050565b6000612a3782846129fa565b91508190509291505056fea264697066735822122003e180cac89ec067fe7506f74ac3b7074f9b2fca5db413ac8311358bcf52d09a64736f6c63430008120033",
					"opcodes": "PUSH1 0x80 PUSH1 0x40 MSTORE CALLVALUE DUP1 ISZERO PUSH2 0x10 JUMPI PUSH1 0x0 DUP1 REVERT JUMPDEST POP PUSH2 0x2A78 DUP1 PUSH2 0x20 PUSH1 0x0 CODECOPY PUSH1 0x0 RETURN INVALID PUSH1 0x80 PUSH1 0x40 MSTORE CALLVALUE DUP1 ISZERO PUSH2 0x10 JUMPI PUSH1 0x0 DUP1 REVERT JUMPDEST POP PUSH1 0x4 CALLDATASIZE LT PUSH2 0xB4 JUMPI PUSH1 0x0 CALLDATALOAD PUSH1 0xE0 SHR DUP1 PUSH4 0x95863D62 GT PUSH2 0x71 JUMPI DUP1 PUSH4 0x95863D62 EQ PUSH2 0x180 JUMPI DUP1 PUSH4 0x9A2A5815 EQ PUSH2 0x1B0 JUMPI DUP1 PUSH4 0xD437D7CA EQ PUSH2 0x1CE JUMPI DUP1 PUSH4 0xE5521501 EQ PUSH2 0x1EC JUMPI DUP1 PUSH4 0xE9E30927 EQ PUSH2 0x21C JUMPI DUP1 PUSH4 0xEAC1D5B7 EQ PUSH2 0x23A JUMPI PUSH2 0xB4 JUMP JUMPDEST DUP1 PUSH4 0x1CFD4566 EQ PUSH2 0xB9 JUMPI DUP1 PUSH4 0x21055ACB EQ PUSH2 0xD7 JUMPI DUP1 PUSH4 0x23ABD657 EQ PUSH2 0xF5 JUMPI DUP1 PUSH4 0x642F9163 EQ PUSH2 0x115 JUMPI DUP1 PUSH4 0x74AA6858 EQ PUSH2 0x145 JUMPI DUP1 PUSH4 0x75D073EB EQ PUSH2 0x161 JUMPI JUMPDEST PUSH1 0x0 DUP1 REVERT JUMPDEST PUSH2 0xC1 PUSH2 0x26A JUMP JUMPDEST PUSH1 0x40 MLOAD PUSH2 0xCE SWAP2 SWAP1 PUSH2 0x1F8B JUMP JUMPDEST PUSH1 0x40 MLOAD DUP1 SWAP2 SUB SWAP1 RETURN JUMPDEST PUSH2 0xDF PUSH2 0x6A4 JUMP JUMPDEST PUSH1 0x40 MLOAD PUSH2 0xEC SWAP2 SWAP1 PUSH2 0x1FBC JUMP JUMPDEST PUSH1 0x40 MLOAD DUP1 SWAP2 SUB SWAP1 RETURN JUMPDEST PUSH2 0xFD PUSH2 0x715 JUMP JUMPDEST PUSH1 0x40 MLOAD PUSH2 0x10C SWAP4 SWAP3 SWAP2 SWAP1 PUSH2 0x1FD7 JUMP JUMPDEST PUSH1 0x40 MLOAD DUP1 SWAP2 SUB SWAP1 RETURN JUMPDEST PUSH2 0x12F PUSH1 0x4 DUP1 CALLDATASIZE SUB DUP2 ADD SWAP1 PUSH2 0x12A SWAP2 SWAP1 PUSH2 0x2055 JUMP JUMPDEST PUSH2 0xD64 JUMP JUMPDEST PUSH1 0x40 MLOAD PUSH2 0x13C SWAP2 SWAP1 PUSH2 0x2106 JUMP JUMPDEST PUSH1 0x40 MLOAD DUP1 SWAP2 SUB SWAP1 RETURN JUMPDEST PUSH2 0x15F PUSH1 0x4 DUP1 CALLDATASIZE SUB DUP2 ADD SWAP1 PUSH2 0x15A SWAP2 SWAP1 PUSH2 0x2343 JUMP JUMPDEST PUSH2 0xFBD JUMP JUMPDEST STOP JUMPDEST PUSH2 0x169 PUSH2 0x113E JUMP JUMPDEST PUSH1 0x40 MLOAD PUSH2 0x177 SWAP3 SWAP2 SWAP1 PUSH2 0x23CE JUMP JUMPDEST PUSH1 0x40 MLOAD DUP1 SWAP2 SUB SWAP1 RETURN JUMPDEST PUSH2 0x19A PUSH1 0x4 DUP1 CALLDATASIZE SUB DUP2 ADD SWAP1 PUSH2 0x195 SWAP2 SWAP1 PUSH2 0x23FE JUMP JUMPDEST PUSH2 0x156B JUMP JUMPDEST PUSH1 0x40 MLOAD PUSH2 0x1A7 SWAP2 SWAP1 PUSH2 0x2106 JUMP JUMPDEST PUSH1 0x40 MLOAD DUP1 SWAP2 SUB SWAP1 RETURN JUMPDEST PUSH2 0x1B8 PUSH2 0x17B4 JUMP JUMPDEST PUSH1 0x40 MLOAD PUSH2 0x1C5 SWAP2 SWAP1 PUSH2 0x2462 JUMP JUMPDEST PUSH1 0x40 MLOAD DUP1 SWAP2 SUB SWAP1 RETURN JUMPDEST PUSH2 0x1D6 PUSH2 0x17D6 JUMP JUMPDEST PUSH1 0x40 MLOAD PUSH2 0x1E3 SWAP2 SWAP1 PUSH2 0x1FBC JUMP JUMPDEST PUSH1 0x40 MLOAD DUP1 SWAP2 SUB SWAP1 RETURN JUMPDEST PUSH2 0x206 PUSH1 0x4 DUP1 CALLDATASIZE SUB DUP2 ADD SWAP1 PUSH2 0x201 SWAP2 SWAP1 PUSH2 0x23FE JUMP JUMPDEST PUSH2 0x17E2 JUMP JUMPDEST PUSH1 0x40 MLOAD PUSH2 0x213 SWAP2 SWAP1 PUSH2 0x1FBC JUMP JUMPDEST PUSH1 0x40 MLOAD DUP1 SWAP2 SUB SWAP1 RETURN JUMPDEST PUSH2 0x224 PUSH2 0x180D JUMP JUMPDEST PUSH1 0x40 MLOAD PUSH2 0x231 SWAP2 SWAP1 PUSH2 0x1F8B JUMP JUMPDEST PUSH1 0x40 MLOAD DUP1 SWAP2 SUB SWAP1 RETURN JUMPDEST PUSH2 0x254 PUSH1 0x4 DUP1 CALLDATASIZE SUB DUP2 ADD SWAP1 PUSH2 0x24F SWAP2 SWAP1 PUSH2 0x2055 JUMP JUMPDEST PUSH2 0x1A7D JUMP JUMPDEST PUSH1 0x40 MLOAD PUSH2 0x261 SWAP2 SWAP1 PUSH2 0x24C7 JUMP JUMPDEST PUSH1 0x40 MLOAD DUP1 SWAP2 SUB SWAP1 RETURN JUMPDEST PUSH1 0x60 PUSH1 0x0 DUP1 DUP1 SLOAD DUP1 PUSH1 0x20 MUL PUSH1 0x20 ADD PUSH1 0x40 MLOAD SWAP1 DUP2 ADD PUSH1 0x40 MSTORE DUP1 SWAP3 SWAP2 SWAP1 DUP2 DUP2 MSTORE PUSH1 0x20 ADD PUSH1 0x0 SWAP1 JUMPDEST DUP3 DUP3 LT ISZERO PUSH2 0x4D2 JUMPI DUP4 DUP3 SWAP1 PUSH1 0x0 MSTORE PUSH1 0x20 PUSH1 0x0 KECCAK256 SWAP1 PUSH1 0x5 MUL ADD PUSH1 0x40 MLOAD DUP1 PUSH1 0xA0 ADD PUSH1 0x40 MSTORE SWAP1 DUP2 PUSH1 0x0 DUP3 ADD DUP1 SLOAD PUSH2 0x2C2 SWAP1 PUSH2 0x2518 JUMP JUMPDEST DUP1 PUSH1 0x1F ADD PUSH1 0x20 DUP1 SWAP2 DIV MUL PUSH1 0x20 ADD PUSH1 0x40 MLOAD SWAP1 DUP2 ADD PUSH1 0x40 MSTORE DUP1 SWAP3 SWAP2 SWAP1 DUP2 DUP2 MSTORE PUSH1 0x20 ADD DUP3 DUP1 SLOAD PUSH2 0x2EE SWAP1 PUSH2 0x2518 JUMP JUMPDEST DUP1 ISZERO PUSH2 0x33B JUMPI DUP1 PUSH1 0x1F LT PUSH2 0x310 JUMPI PUSH2 0x100 DUP1 DUP4 SLOAD DIV MUL DUP4 MSTORE SWAP2 PUSH1 0x20 ADD SWAP2 PUSH2 0x33B JUMP JUMPDEST DUP3 ADD SWAP2 SWAP1 PUSH1 0x0 MSTORE PUSH1 0x20 PUSH1 0x0 KECCAK256 SWAP1 JUMPDEST DUP2 SLOAD DUP2 MSTORE SWAP1 PUSH1 0x1 ADD SWAP1 PUSH1 0x20 ADD DUP1 DUP4 GT PUSH2 0x31E JUMPI DUP3 SWAP1 SUB PUSH1 0x1F AND DUP3 ADD SWAP2 JUMPDEST POP POP POP POP POP DUP2 MSTORE PUSH1 0x20 ADD PUSH1 0x1 DUP3 ADD SLOAD DUP2 MSTORE PUSH1 0x20 ADD PUSH1 0x2 DUP3 ADD SLOAD DUP2 MSTORE PUSH1 0x20 ADD PUSH1 0x3 DUP3 ADD DUP1 SLOAD PUSH2 0x368 SWAP1 PUSH2 0x2518 JUMP JUMPDEST DUP1 PUSH1 0x1F ADD PUSH1 0x20 DUP1 SWAP2 DIV MUL PUSH1 0x20 ADD PUSH1 0x40 MLOAD SWAP1 DUP2 ADD PUSH1 0x40 MSTORE DUP1 SWAP3 SWAP2 SWAP1 DUP2 DUP2 MSTORE PUSH1 0x20 ADD DUP3 DUP1 SLOAD PUSH2 0x394 SWAP1 PUSH2 0x2518 JUMP JUMPDEST DUP1 ISZERO PUSH2 0x3E1 JUMPI DUP1 PUSH1 0x1F LT PUSH2 0x3B6 JUMPI PUSH2 0x100 DUP1 DUP4 SLOAD DIV MUL DUP4 MSTORE SWAP2 PUSH1 0x20 ADD SWAP2 PUSH2 0x3E1 JUMP JUMPDEST DUP3 ADD SWAP2 SWAP1 PUSH1 0x0 MSTORE PUSH1 0x20 PUSH1 0x0 KECCAK256 SWAP1 JUMPDEST DUP2 SLOAD DUP2 MSTORE SWAP1 PUSH1 0x1 ADD SWAP1 PUSH1 0x20 ADD DUP1 DUP4 GT PUSH2 0x3C4 JUMPI DUP3 SWAP1 SUB PUSH1 0x1F AND DUP3 ADD SWAP2 JUMPDEST POP POP POP POP POP DUP2 MSTORE PUSH1 0x20 ADD PUSH1 0x4 DUP3 ADD DUP1 SLOAD DUP1 PUSH1 0x20 MUL PUSH1 0x20 ADD PUSH1 0x40 MLOAD SWAP1 DUP2 ADD PUSH1 0x40 MSTORE DUP1 SWAP3 SWAP2 SWAP1 DUP2 DUP2 MSTORE PUSH1 0x20 ADD PUSH1 0x0 SWAP1 JUMPDEST DUP3 DUP3 LT ISZERO PUSH2 0x4BB JUMPI DUP4 DUP3 SWAP1 PUSH1 0x0 MSTORE PUSH1 0x20 PUSH1 0x0 KECCAK256 ADD DUP1 SLOAD PUSH2 0x42E SWAP1 PUSH2 0x2518 JUMP JUMPDEST DUP1 PUSH1 0x1F ADD PUSH1 0x20 DUP1 SWAP2 DIV MUL PUSH1 0x20 ADD PUSH1 0x40 MLOAD SWAP1 DUP2 ADD PUSH1 0x40 MSTORE DUP1 SWAP3 SWAP2 SWAP1 DUP2 DUP2 MSTORE PUSH1 0x20 ADD DUP3 DUP1 SLOAD PUSH2 0x45A SWAP1 PUSH2 0x2518 JUMP JUMPDEST DUP1 ISZERO PUSH2 0x4A7 JUMPI DUP1 PUSH1 0x1F LT PUSH2 0x47C JUMPI PUSH2 0x100 DUP1 DUP4 SLOAD DIV MUL DUP4 MSTORE SWAP2 PUSH1 0x20 ADD SWAP2 PUSH2 0x4A7 JUMP JUMPDEST DUP3 ADD SWAP2 SWAP1 PUSH1 0x0 MSTORE PUSH1 0x20 PUSH1 0x0 KECCAK256 SWAP1 JUMPDEST DUP2 SLOAD DUP2 MSTORE SWAP1 PUSH1 0x1 ADD SWAP1 PUSH1 0x20 ADD DUP1 DUP4 GT PUSH2 0x48A JUMPI DUP3 SWAP1 SUB PUSH1 0x1F AND DUP3 ADD SWAP2 JUMPDEST POP POP POP POP POP DUP2 MSTORE PUSH1 0x20 ADD SWAP1 PUSH1 0x1 ADD SWAP1 PUSH2 0x40F JUMP JUMPDEST POP POP POP POP DUP2 MSTORE POP POP DUP2 MSTORE PUSH1 0x20 ADD SWAP1 PUSH1 0x1 ADD SWAP1 PUSH2 0x28F JUMP JUMPDEST POP POP POP POP SWAP1 POP PUSH1 0x0 PUSH1 0x4 PUSH8 0xFFFFFFFFFFFFFFFF DUP2 GT ISZERO PUSH2 0x4F5 JUMPI PUSH2 0x4F4 PUSH2 0x2132 JUMP JUMPDEST JUMPDEST PUSH1 0x40 MLOAD SWAP1 DUP1 DUP3 MSTORE DUP1 PUSH1 0x20 MUL PUSH1 0x20 ADD DUP3 ADD PUSH1 0x40 MSTORE DUP1 ISZERO PUSH2 0x52E JUMPI DUP2 PUSH1 0x20 ADD JUMPDEST PUSH2 0x51B PUSH2 0x1BD1 JUMP JUMPDEST DUP2 MSTORE PUSH1 0x20 ADD SWAP1 PUSH1 0x1 SWAP1 SUB SWAP1 DUP2 PUSH2 0x513 JUMPI SWAP1 POP JUMPDEST POP SWAP1 POP PUSH1 0x0 JUMPDEST PUSH1 0x1 DUP4 MLOAD PUSH2 0x542 SWAP2 SWAP1 PUSH2 0x2578 JUMP JUMPDEST DUP2 LT ISZERO PUSH2 0x642 JUMPI PUSH1 0x0 PUSH1 0x1 DUP3 PUSH2 0x558 SWAP2 SWAP1 PUSH2 0x25AC JUMP JUMPDEST SWAP1 POP JUMPDEST DUP4 MLOAD DUP2 LT ISZERO PUSH2 0x62E JUMPI DUP4 DUP2 DUP2 MLOAD DUP2 LT PUSH2 0x577 JUMPI PUSH2 0x576 PUSH2 0x25E0 JUMP JUMPDEST JUMPDEST PUSH1 0x20 MUL PUSH1 0x20 ADD ADD MLOAD PUSH1 0x40 ADD MLOAD DUP5 DUP4 DUP2 MLOAD DUP2 LT PUSH2 0x596 JUMPI PUSH2 0x595 PUSH2 0x25E0 JUMP JUMPDEST JUMPDEST PUSH1 0x20 MUL PUSH1 0x20 ADD ADD MLOAD PUSH1 0x40 ADD MLOAD LT ISZERO PUSH2 0x61B JUMPI DUP4 DUP2 DUP2 MLOAD DUP2 LT PUSH2 0x5BB JUMPI PUSH2 0x5BA PUSH2 0x25E0 JUMP JUMPDEST JUMPDEST PUSH1 0x20 MUL PUSH1 0x20 ADD ADD MLOAD DUP5 DUP4 DUP2 MLOAD DUP2 LT PUSH2 0x5D6 JUMPI PUSH2 0x5D5 PUSH2 0x25E0 JUMP JUMPDEST JUMPDEST PUSH1 0x20 MUL PUSH1 0x20 ADD ADD MLOAD DUP6 DUP5 DUP2 MLOAD DUP2 LT PUSH2 0x5F1 JUMPI PUSH2 0x5F0 PUSH2 0x25E0 JUMP JUMPDEST JUMPDEST PUSH1 0x20 MUL PUSH1 0x20 ADD ADD DUP7 DUP5 DUP2 MLOAD DUP2 LT PUSH2 0x60B JUMPI PUSH2 0x60A PUSH2 0x25E0 JUMP JUMPDEST JUMPDEST PUSH1 0x20 MUL PUSH1 0x20 ADD ADD DUP3 SWAP1 MSTORE DUP3 SWAP1 MSTORE POP POP JUMPDEST DUP1 DUP1 PUSH2 0x626 SWAP1 PUSH2 0x260F JUMP JUMPDEST SWAP2 POP POP PUSH2 0x55B JUMP JUMPDEST POP DUP1 DUP1 PUSH2 0x63A SWAP1 PUSH2 0x260F JUMP JUMPDEST SWAP2 POP POP PUSH2 0x534 JUMP JUMPDEST POP PUSH1 0x0 JUMPDEST PUSH1 0x4 DUP2 LT ISZERO PUSH2 0x69B JUMPI DUP3 DUP2 DUP2 MLOAD DUP2 LT PUSH2 0x662 JUMPI PUSH2 0x661 PUSH2 0x25E0 JUMP JUMPDEST JUMPDEST PUSH1 0x20 MUL PUSH1 0x20 ADD ADD MLOAD DUP3 DUP3 DUP2 MLOAD DUP2 LT PUSH2 0x67D JUMPI PUSH2 0x67C PUSH2 0x25E0 JUMP JUMPDEST JUMPDEST PUSH1 0x20 MUL PUSH1 0x20 ADD ADD DUP2 SWAP1 MSTORE POP DUP1 DUP1 PUSH2 0x693 SWAP1 PUSH2 0x260F JUMP JUMPDEST SWAP2 POP POP PUSH2 0x646 JUMP JUMPDEST POP DUP1 SWAP3 POP POP POP SWAP1 JUMP JUMPDEST PUSH1 0x0 DUP1 PUSH1 0x0 JUMPDEST PUSH1 0x0 DUP1 SLOAD SWAP1 POP DUP2 LT ISZERO PUSH2 0x6FD JUMPI PUSH1 0x0 DUP2 DUP2 SLOAD DUP2 LT PUSH2 0x6CB JUMPI PUSH2 0x6CA PUSH2 0x25E0 JUMP JUMPDEST JUMPDEST SWAP1 PUSH1 0x0 MSTORE PUSH1 0x20 PUSH1 0x0 KECCAK256 SWAP1 PUSH1 0x5 MUL ADD PUSH1 0x2 ADD SLOAD DUP3 PUSH2 0x6E8 SWAP2 SWAP1 PUSH2 0x25AC JUMP JUMPDEST SWAP2 POP DUP1 DUP1 PUSH2 0x6F5 SWAP1 PUSH2 0x260F JUMP JUMPDEST SWAP2 POP POP PUSH2 0x6AA JUMP JUMPDEST POP PUSH1 0x0 DUP1 SLOAD SWAP1 POP DUP2 PUSH2 0x70F SWAP2 SWAP1 PUSH2 0x2686 JUMP JUMPDEST SWAP2 POP POP SWAP1 JUMP JUMPDEST PUSH1 0x0 DUP1 PUSH1 0x60 PUSH1 0x0 DUP1 DUP1 SLOAD DUP1 PUSH1 0x20 MUL PUSH1 0x20 ADD PUSH1 0x40 MLOAD SWAP1 DUP2 ADD PUSH1 0x40 MSTORE DUP1 SWAP3 SWAP2 SWAP1 DUP2 DUP2 MSTORE PUSH1 0x20 ADD PUSH1 0x0 SWAP1 JUMPDEST DUP3 DUP3 LT ISZERO PUSH2 0x980 JUMPI DUP4 DUP3 SWAP1 PUSH1 0x0 MSTORE PUSH1 0x20 PUSH1 0x0 KECCAK256 SWAP1 PUSH1 0x5 MUL ADD PUSH1 0x40 MLOAD DUP1 PUSH1 0xA0 ADD PUSH1 0x40 MSTORE SWAP1 DUP2 PUSH1 0x0 DUP3 ADD DUP1 SLOAD PUSH2 0x770 SWAP1 PUSH2 0x2518 JUMP JUMPDEST DUP1 PUSH1 0x1F ADD PUSH1 0x20 DUP1 SWAP2 DIV MUL PUSH1 0x20 ADD PUSH1 0x40 MLOAD SWAP1 DUP2 ADD PUSH1 0x40 MSTORE DUP1 SWAP3 SWAP2 SWAP1 DUP2 DUP2 MSTORE PUSH1 0x20 ADD DUP3 DUP1 SLOAD PUSH2 0x79C SWAP1 PUSH2 0x2518 JUMP JUMPDEST DUP1 ISZERO PUSH2 0x7E9 JUMPI DUP1 PUSH1 0x1F LT PUSH2 0x7BE JUMPI PUSH2 0x100 DUP1 DUP4 SLOAD DIV MUL DUP4 MSTORE SWAP2 PUSH1 0x20 ADD SWAP2 PUSH2 0x7E9 JUMP JUMPDEST DUP3 ADD SWAP2 SWAP1 PUSH1 0x0 MSTORE PUSH1 0x20 PUSH1 0x0 KECCAK256 SWAP1 JUMPDEST DUP2 SLOAD DUP2 MSTORE SWAP1 PUSH1 0x1 ADD SWAP1 PUSH1 0x20 ADD DUP1 DUP4 GT PUSH2 0x7CC JUMPI DUP3 SWAP1 SUB PUSH1 0x1F AND DUP3 ADD SWAP2 JUMPDEST POP POP POP POP POP DUP2 MSTORE PUSH1 0x20 ADD PUSH1 0x1 DUP3 ADD SLOAD DUP2 MSTORE PUSH1 0x20 ADD PUSH1 0x2 DUP3 ADD SLOAD DUP2 MSTORE PUSH1 0x20 ADD PUSH1 0x3 DUP3 ADD DUP1 SLOAD PUSH2 0x816 SWAP1 PUSH2 0x2518 JUMP JUMPDEST DUP1 PUSH1 0x1F ADD PUSH1 0x20 DUP1 SWAP2 DIV MUL PUSH1 0x20 ADD PUSH1 0x40 MLOAD SWAP1 DUP2 ADD PUSH1 0x40 MSTORE DUP1 SWAP3 SWAP2 SWAP1 DUP2 DUP2 MSTORE PUSH1 0x20 ADD DUP3 DUP1 SLOAD PUSH2 0x842 SWAP1 PUSH2 0x2518 JUMP JUMPDEST DUP1 ISZERO PUSH2 0x88F JUMPI DUP1 PUSH1 0x1F LT PUSH2 0x864 JUMPI PUSH2 0x100 DUP1 DUP4 SLOAD DIV MUL DUP4 MSTORE SWAP2 PUSH1 0x20 ADD SWAP2 PUSH2 0x88F JUMP JUMPDEST DUP3 ADD SWAP2 SWAP1 PUSH1 0x0 MSTORE PUSH1 0x20 PUSH1 0x0 KECCAK256 SWAP1 JUMPDEST DUP2 SLOAD DUP2 MSTORE SWAP1 PUSH1 0x1 ADD SWAP1 PUSH1 0x20 ADD DUP1 DUP4 GT PUSH2 0x872 JUMPI DUP3 SWAP1 SUB PUSH1 0x1F AND DUP3 ADD SWAP2 JUMPDEST POP POP POP POP POP DUP2 MSTORE PUSH1 0x20 ADD PUSH1 0x4 DUP3 ADD DUP1 SLOAD DUP1 PUSH1 0x20 MUL PUSH1 0x20 ADD PUSH1 0x40 MLOAD SWAP1 DUP2 ADD PUSH1 0x40 MSTORE DUP1 SWAP3 SWAP2 SWAP1 DUP2 DUP2 MSTORE PUSH1 0x20 ADD PUSH1 0x0 SWAP1 JUMPDEST DUP3 DUP3 LT ISZERO PUSH2 0x969 JUMPI DUP4 DUP3 SWAP1 PUSH1 0x0 MSTORE PUSH1 0x20 PUSH1 0x0 KECCAK256 ADD DUP1 SLOAD PUSH2 0x8DC SWAP1 PUSH2 0x2518 JUMP JUMPDEST DUP1 PUSH1 0x1F ADD PUSH1 0x20 DUP1 SWAP2 DIV MUL PUSH1 0x20 ADD PUSH1 0x40 MLOAD SWAP1 DUP2 ADD PUSH1 0x40 MSTORE DUP1 SWAP3 SWAP2 SWAP1 DUP2 DUP2 MSTORE PUSH1 0x20 ADD DUP3 DUP1 SLOAD PUSH2 0x908 SWAP1 PUSH2 0x2518 JUMP JUMPDEST DUP1 ISZERO PUSH2 0x955 JUMPI DUP1 PUSH1 0x1F LT PUSH2 0x92A JUMPI PUSH2 0x100 DUP1 DUP4 SLOAD DIV MUL DUP4 MSTORE SWAP2 PUSH1 0x20 ADD SWAP2 PUSH2 0x955 JUMP JUMPDEST DUP3 ADD SWAP2 SWAP1 PUSH1 0x0 MSTORE PUSH1 0x20 PUSH1 0x0 KECCAK256 SWAP1 JUMPDEST DUP2 SLOAD DUP2 MSTORE SWAP1 PUSH1 0x1 ADD SWAP1 PUSH1 0x20 ADD DUP1 DUP4 GT PUSH2 0x938 JUMPI DUP3 SWAP1 SUB PUSH1 0x1F AND DUP3 ADD SWAP2 JUMPDEST POP POP POP POP POP DUP2 MSTORE PUSH1 0x20 ADD SWAP1 PUSH1 0x1 ADD SWAP1 PUSH2 0x8BD JUMP JUMPDEST POP POP POP POP DUP2 MSTORE POP POP DUP2 MSTORE PUSH1 0x20 ADD SWAP1 PUSH1 0x1 ADD SWAP1 PUSH2 0x73D JUMP JUMPDEST POP POP POP POP SWAP1 POP PUSH1 0x60 PUSH1 0x0 DUP1 PUSH1 0x0 SWAP1 POP JUMPDEST PUSH1 0x0 DUP1 SLOAD SWAP1 POP DUP2 LT ISZERO PUSH2 0xD51 JUMPI PUSH1 0x40 MLOAD DUP1 PUSH1 0x40 ADD PUSH1 0x40 MSTORE DUP1 PUSH1 0x1 DUP2 MSTORE PUSH1 0x20 ADD PUSH32 0x4600000000000000000000000000000000000000000000000000000000000000 DUP2 MSTORE POP DUP1 MLOAD SWAP1 PUSH1 0x20 ADD KECCAK256 PUSH1 0x0 DUP3 DUP2 SLOAD DUP2 LT PUSH2 0x9EE JUMPI PUSH2 0x9ED PUSH2 0x25E0 JUMP JUMPDEST JUMPDEST SWAP1 PUSH1 0x0 MSTORE PUSH1 0x20 PUSH1 0x0 KECCAK256 SWAP1 PUSH1 0x5 MUL ADD PUSH1 0x3 ADD PUSH1 0x40 MLOAD PUSH2 0xA0C SWAP2 SWAP1 PUSH2 0x275A JUMP JUMPDEST PUSH1 0x40 MLOAD DUP1 SWAP2 SUB SWAP1 KECCAK256 SUB PUSH2 0xD3E JUMPI DUP2 DUP1 PUSH2 0xA24 SWAP1 PUSH2 0x260F JUMP JUMPDEST SWAP3 POP POP PUSH1 0x0 DUP2 DUP2 SLOAD DUP2 LT PUSH2 0xA3B JUMPI PUSH2 0xA3A PUSH2 0x25E0 JUMP JUMPDEST JUMPDEST SWAP1 PUSH1 0x0 MSTORE PUSH1 0x20 PUSH1 0x0 KECCAK256 SWAP1 PUSH1 0x5 MUL ADD PUSH1 0x40 MLOAD DUP1 PUSH1 0xA0 ADD PUSH1 0x40 MSTORE SWAP1 DUP2 PUSH1 0x0 DUP3 ADD DUP1 SLOAD PUSH2 0xA64 SWAP1 PUSH2 0x2518 JUMP JUMPDEST DUP1 PUSH1 0x1F ADD PUSH1 0x20 DUP1 SWAP2 DIV MUL PUSH1 0x20 ADD PUSH1 0x40 MLOAD SWAP1 DUP2 ADD PUSH1 0x40 MSTORE DUP1 SWAP3 SWAP2 SWAP1 DUP2 DUP2 MSTORE PUSH1 0x20 ADD DUP3 DUP1 SLOAD PUSH2 0xA90 SWAP1 PUSH2 0x2518 JUMP JUMPDEST DUP1 ISZERO PUSH2 0xADD JUMPI DUP1 PUSH1 0x1F LT PUSH2 0xAB2 JUMPI PUSH2 0x100 DUP1 DUP4 SLOAD DIV MUL DUP4 MSTORE SWAP2 PUSH1 0x20 ADD SWAP2 PUSH2 0xADD JUMP JUMPDEST DUP3 ADD SWAP2 SWAP1 PUSH1 0x0 MSTORE PUSH1 0x20 PUSH1 0x0 KECCAK256 SWAP1 JUMPDEST DUP2 SLOAD DUP2 MSTORE SWAP1 PUSH1 0x1 ADD SWAP1 PUSH1 0x20 ADD DUP1 DUP4 GT PUSH2 0xAC0 JUMPI DUP3 SWAP1 SUB PUSH1 0x1F AND DUP3 ADD SWAP2 JUMPDEST POP POP POP POP POP DUP2 MSTORE PUSH1 0x20 ADD PUSH1 0x1 DUP3 ADD SLOAD DUP2 MSTORE PUSH1 0x20 ADD PUSH1 0x2 DUP3 ADD SLOAD DUP2 MSTORE PUSH1 0x20 ADD PUSH1 0x3 DUP3 ADD DUP1 SLOAD PUSH2 0xB0A SWAP1 PUSH2 0x2518 JUMP JUMPDEST DUP1 PUSH1 0x1F ADD PUSH1 0x20 DUP1 SWAP2 DIV MUL PUSH1 0x20 ADD PUSH1 0x40 MLOAD SWAP1 DUP2 ADD PUSH1 0x40 MSTORE DUP1 SWAP3 SWAP2 SWAP1 DUP2 DUP2 MSTORE PUSH1 0x20 ADD DUP3 DUP1 SLOAD PUSH2 0xB36 SWAP1 PUSH2 0x2518 JUMP JUMPDEST DUP1 ISZERO PUSH2 0xB83 JUMPI DUP1 PUSH1 0x1F LT PUSH2 0xB58 JUMPI PUSH2 0x100 DUP1 DUP4 SLOAD DIV MUL DUP4 MSTORE SWAP2 PUSH1 0x20 ADD SWAP2 PUSH2 0xB83 JUMP JUMPDEST DUP3 ADD SWAP2 SWAP1 PUSH1 0x0 MSTORE PUSH1 0x20 PUSH1 0x0 KECCAK256 SWAP1 JUMPDEST DUP2 SLOAD DUP2 MSTORE SWAP1 PUSH1 0x1 ADD SWAP1 PUSH1 0x20 ADD DUP1 DUP4 GT PUSH2 0xB66 JUMPI DUP3 SWAP1 SUB PUSH1 0x1F AND DUP3 ADD SWAP2 JUMPDEST POP POP POP POP POP DUP2 MSTORE PUSH1 0x20 ADD PUSH1 0x4 DUP3 ADD DUP1 SLOAD DUP1 PUSH1 0x20 MUL PUSH1 0x20 ADD PUSH1 0x40 MLOAD SWAP1 DUP2 ADD PUSH1 0x40 MSTORE DUP1 SWAP3 SWAP2 SWAP1 DUP2 DUP2 MSTORE PUSH1 0x20 ADD PUSH1 0x0 SWAP1 JUMPDEST DUP3 DUP3 LT ISZERO PUSH2 0xC5D JUMPI DUP4 DUP3 SWAP1 PUSH1 0x0 MSTORE PUSH1 0x20 PUSH1 0x0 KECCAK256 ADD DUP1 SLOAD PUSH2 0xBD0 SWAP1 PUSH2 0x2518 JUMP JUMPDEST DUP1 PUSH1 0x1F ADD PUSH1 0x20 DUP1 SWAP2 DIV MUL PUSH1 0x20 ADD PUSH1 0x40 MLOAD SWAP1 DUP2 ADD PUSH1 0x40 MSTORE DUP1 SWAP3 SWAP2 SWAP1 DUP2 DUP2 MSTORE PUSH1 0x20 ADD DUP3 DUP1 SLOAD PUSH2 0xBFC SWAP1 PUSH2 0x2518 JUMP JUMPDEST DUP1 ISZERO PUSH2 0xC49 JUMPI DUP1 PUSH1 0x1F LT PUSH2 0xC1E JUMPI PUSH2 0x100 DUP1 DUP4 SLOAD DIV MUL DUP4 MSTORE SWAP2 PUSH1 0x20 ADD SWAP2 PUSH2 0xC49 JUMP JUMPDEST DUP3 ADD SWAP2 SWAP1 PUSH1 0x0 MSTORE PUSH1 0x20 PUSH1 0x0 KECCAK256 SWAP1 JUMPDEST DUP2 SLOAD DUP2 MSTORE SWAP1 PUSH1 0x1 ADD SWAP1 PUSH1 0x20 ADD DUP1 DUP4 GT PUSH2 0xC2C JUMPI DUP3 SWAP1 SUB PUSH1 0x1F AND DUP3 ADD SWAP2 JUMPDEST POP POP POP POP POP DUP2 MSTORE PUSH1 0x20 ADD SWAP1 PUSH1 0x1 ADD SWAP1 PUSH2 0xBB1 JUMP JUMPDEST POP POP POP POP DUP2 MSTORE POP POP DUP5 PUSH1 0x1 DUP5 PUSH2 0xC73 SWAP2 SWAP1 PUSH2 0x2578 JUMP JUMPDEST DUP2 MLOAD DUP2 LT PUSH2 0xC84 JUMPI PUSH2 0xC83 PUSH2 0x25E0 JUMP JUMPDEST JUMPDEST PUSH1 0x20 MUL PUSH1 0x20 ADD ADD DUP2 SWAP1 MSTORE POP DUP2 PUSH8 0xFFFFFFFFFFFFFFFF DUP2 GT ISZERO PUSH2 0xCA9 JUMPI PUSH2 0xCA8 PUSH2 0x2132 JUMP JUMPDEST JUMPDEST PUSH1 0x40 MLOAD SWAP1 DUP1 DUP3 MSTORE DUP1 PUSH1 0x20 MUL PUSH1 0x20 ADD DUP3 ADD PUSH1 0x40 MSTORE DUP1 ISZERO PUSH2 0xCE2 JUMPI DUP2 PUSH1 0x20 ADD JUMPDEST PUSH2 0xCCF PUSH2 0x1BD1 JUMP JUMPDEST DUP2 MSTORE PUSH1 0x20 ADD SWAP1 PUSH1 0x1 SWAP1 SUB SWAP1 DUP2 PUSH2 0xCC7 JUMPI SWAP1 POP JUMPDEST POP SWAP3 POP PUSH1 0x0 JUMPDEST DUP3 DUP2 LT ISZERO PUSH2 0xD3C JUMPI DUP5 DUP2 DUP2 MLOAD DUP2 LT PUSH2 0xD03 JUMPI PUSH2 0xD02 PUSH2 0x25E0 JUMP JUMPDEST JUMPDEST PUSH1 0x20 MUL PUSH1 0x20 ADD ADD MLOAD DUP5 DUP3 DUP2 MLOAD DUP2 LT PUSH2 0xD1E JUMPI PUSH2 0xD1D PUSH2 0x25E0 JUMP JUMPDEST JUMPDEST PUSH1 0x20 MUL PUSH1 0x20 ADD ADD DUP2 SWAP1 MSTORE POP DUP1 DUP1 PUSH2 0xD34 SWAP1 PUSH2 0x260F JUMP JUMPDEST SWAP2 POP POP PUSH2 0xCE8 JUMP JUMPDEST POP JUMPDEST DUP1 DUP1 PUSH2 0xD49 SWAP1 PUSH2 0x260F JUMP JUMPDEST SWAP2 POP POP PUSH2 0x990 JUMP JUMPDEST POP DUP2 MLOAD DUP2 DUP4 SWAP6 POP SWAP6 POP SWAP6 POP POP POP POP SWAP1 SWAP2 SWAP3 JUMP JUMPDEST PUSH2 0xD6C PUSH2 0x1BD1 JUMP JUMPDEST PUSH1 0x0 PUSH1 0x1 DUP4 PUSH2 0xD7B SWAP2 SWAP1 PUSH2 0x2578 JUMP JUMPDEST DUP2 SLOAD DUP2 LT PUSH2 0xD8C JUMPI PUSH2 0xD8B PUSH2 0x25E0 JUMP JUMPDEST JUMPDEST SWAP1 PUSH1 0x0 MSTORE PUSH1 0x20 PUSH1 0x0 KECCAK256 SWAP1 PUSH1 0x5 MUL ADD PUSH1 0x40 MLOAD DUP1 PUSH1 0xA0 ADD PUSH1 0x40 MSTORE SWAP1 DUP2 PUSH1 0x0 DUP3 ADD DUP1 SLOAD PUSH2 0xDB5 SWAP1 PUSH2 0x2518 JUMP JUMPDEST DUP1 PUSH1 0x1F ADD PUSH1 0x20 DUP1 SWAP2 DIV MUL PUSH1 0x20 ADD PUSH1 0x40 MLOAD SWAP1 DUP2 ADD PUSH1 0x40 MSTORE DUP1 SWAP3 SWAP2 SWAP1 DUP2 DUP2 MSTORE PUSH1 0x20 ADD DUP3 DUP1 SLOAD PUSH2 0xDE1 SWAP1 PUSH2 0x2518 JUMP JUMPDEST DUP1 ISZERO PUSH2 0xE2E JUMPI DUP1 PUSH1 0x1F LT PUSH2 0xE03 JUMPI PUSH2 0x100 DUP1 DUP4 SLOAD DIV MUL DUP4 MSTORE SWAP2 PUSH1 0x20 ADD SWAP2 PUSH2 0xE2E JUMP JUMPDEST DUP3 ADD SWAP2 SWAP1 PUSH1 0x0 MSTORE PUSH1 0x20 PUSH1 0x0 KECCAK256 SWAP1 JUMPDEST DUP2 SLOAD DUP2 MSTORE SWAP1 PUSH1 0x1 ADD SWAP1 PUSH1 0x20 ADD DUP1 DUP4 GT PUSH2 0xE11 JUMPI DUP3 SWAP1 SUB PUSH1 0x1F AND DUP3 ADD SWAP2 JUMPDEST POP POP POP POP POP DUP2 MSTORE PUSH1 0x20 ADD PUSH1 0x1 DUP3 ADD SLOAD DUP2 MSTORE PUSH1 0x20 ADD PUSH1 0x2 DUP3 ADD SLOAD DUP2 MSTORE PUSH1 0x20 ADD PUSH1 0x3 DUP3 ADD DUP1 SLOAD PUSH2 0xE5B SWAP1 PUSH2 0x2518 JUMP JUMPDEST DUP1 PUSH1 0x1F ADD PUSH1 0x20 DUP1 SWAP2 DIV MUL PUSH1 0x20 ADD PUSH1 0x40 MLOAD SWAP1 DUP2 ADD PUSH1 0x40 MSTORE DUP1 SWAP3 SWAP2 SWAP1 DUP2 DUP2 MSTORE PUSH1 0x20 ADD DUP3 DUP1 SLOAD PUSH2 0xE87 SWAP1 PUSH2 0x2518 JUMP JUMPDEST DUP1 ISZERO PUSH2 0xED4 JUMPI DUP1 PUSH1 0x1F LT PUSH2 0xEA9 JUMPI PUSH2 0x100 DUP1 DUP4 SLOAD DIV MUL DUP4 MSTORE SWAP2 PUSH1 0x20 ADD SWAP2 PUSH2 0xED4 JUMP JUMPDEST DUP3 ADD SWAP2 SWAP1 PUSH1 0x0 MSTORE PUSH1 0x20 PUSH1 0x0 KECCAK256 SWAP1 JUMPDEST DUP2 SLOAD DUP2 MSTORE SWAP1 PUSH1 0x1 ADD SWAP1 PUSH1 0x20 ADD DUP1 DUP4 GT PUSH2 0xEB7 JUMPI DUP3 SWAP1 SUB PUSH1 0x1F AND DUP3 ADD SWAP2 JUMPDEST POP POP POP POP POP DUP2 MSTORE PUSH1 0x20 ADD PUSH1 0x4 DUP3 ADD DUP1 SLOAD DUP1 PUSH1 0x20 MUL PUSH1 0x20 ADD PUSH1 0x40 MLOAD SWAP1 DUP2 ADD PUSH1 0x40 MSTORE DUP1 SWAP3 SWAP2 SWAP1 DUP2 DUP2 MSTORE PUSH1 0x20 ADD PUSH1 0x0 SWAP1 JUMPDEST DUP3 DUP3 LT ISZERO PUSH2 0xFAE JUMPI DUP4 DUP3 SWAP1 PUSH1 0x0 MSTORE PUSH1 0x20 PUSH1 0x0 KECCAK256 ADD DUP1 SLOAD PUSH2 0xF21 SWAP1 PUSH2 0x2518 JUMP JUMPDEST DUP1 PUSH1 0x1F ADD PUSH1 0x20 DUP1 SWAP2 DIV MUL PUSH1 0x20 ADD PUSH1 0x40 MLOAD SWAP1 DUP2 ADD PUSH1 0x40 MSTORE DUP1 SWAP3 SWAP2 SWAP1 DUP2 DUP2 MSTORE PUSH1 0x20 ADD DUP3 DUP1 SLOAD PUSH2 0xF4D SWAP1 PUSH2 0x2518 JUMP JUMPDEST DUP1 ISZERO PUSH2 0xF9A JUMPI DUP1 PUSH1 0x1F LT PUSH2 0xF6F JUMPI PUSH2 0x100 DUP1 DUP4 SLOAD DIV MUL DUP4 MSTORE SWAP2 PUSH1 0x20 ADD SWAP2 PUSH2 0xF9A JUMP JUMPDEST DUP3 ADD SWAP2 SWAP1 PUSH1 0x0 MSTORE PUSH1 0x20 PUSH1 0x0 KECCAK256 SWAP1 JUMPDEST DUP2 SLOAD DUP2 MSTORE SWAP1 PUSH1 0x1 ADD SWAP1 PUSH1 0x20 ADD DUP1 DUP4 GT PUSH2 0xF7D JUMPI DUP3 SWAP1 SUB PUSH1 0x1F AND DUP3 ADD SWAP2 JUMPDEST POP POP POP POP POP DUP2 MSTORE PUSH1 0x20 ADD SWAP1 PUSH1 0x1 ADD SWAP1 PUSH2 0xF02 JUMP JUMPDEST POP POP POP POP DUP2 MSTORE POP POP SWAP1 POP SWAP2 SWAP1 POP JUMP JUMPDEST PUSH1 0x0 PUSH1 0x40 MLOAD DUP1 PUSH1 0xA0 ADD PUSH1 0x40 MSTORE DUP1 DUP6 DUP2 MSTORE PUSH1 0x20 ADD PUSH1 0x1 PUSH1 0x0 DUP1 SLOAD SWAP1 POP PUSH2 0xFE2 SWAP2 SWAP1 PUSH2 0x25AC JUMP JUMPDEST DUP2 MSTORE PUSH1 0x20 ADD DUP5 DUP2 MSTORE PUSH1 0x20 ADD PUSH2 0xFF6 DUP6 PUSH2 0x1A7D JUMP JUMPDEST DUP2 MSTORE PUSH1 0x20 ADD DUP4 DUP2 MSTORE POP SWAP1 DUP1 PUSH1 0x1 DUP2 SLOAD ADD DUP1 DUP3 SSTORE DUP1 SWAP2 POP POP PUSH1 0x1 SWAP1 SUB SWAP1 PUSH1 0x0 MSTORE PUSH1 0x20 PUSH1 0x0 KECCAK256 SWAP1 PUSH1 0x5 MUL ADD PUSH1 0x0 SWAP1 SWAP2 SWAP1 SWAP2 SWAP1 SWAP2 POP PUSH1 0x0 DUP3 ADD MLOAD DUP2 PUSH1 0x0 ADD SWAP1 DUP2 PUSH2 0x103D SWAP2 SWAP1 PUSH2 0x291D JUMP JUMPDEST POP PUSH1 0x20 DUP3 ADD MLOAD DUP2 PUSH1 0x1 ADD SSTORE PUSH1 0x40 DUP3 ADD MLOAD DUP2 PUSH1 0x2 ADD SSTORE PUSH1 0x60 DUP3 ADD MLOAD DUP2 PUSH1 0x3 ADD SWAP1 DUP2 PUSH2 0x1067 SWAP2 SWAP1 PUSH2 0x291D JUMP JUMPDEST POP PUSH1 0x80 DUP3 ADD MLOAD DUP2 PUSH1 0x4 ADD SWAP1 DUP1 MLOAD SWAP1 PUSH1 0x20 ADD SWAP1 PUSH2 0x1084 SWAP3 SWAP2 SWAP1 PUSH2 0x1C00 JUMP JUMPDEST POP POP POP PUSH1 0x40 MLOAD DUP1 PUSH1 0xA0 ADD PUSH1 0x40 MSTORE DUP1 DUP5 DUP2 MSTORE PUSH1 0x20 ADD PUSH1 0x0 DUP1 SLOAD SWAP1 POP DUP2 MSTORE PUSH1 0x20 ADD DUP4 DUP2 MSTORE PUSH1 0x20 ADD PUSH2 0x10B2 DUP5 PUSH2 0x1A7D JUMP JUMPDEST DUP2 MSTORE PUSH1 0x20 ADD DUP3 DUP2 MSTORE POP PUSH1 0x1 DUP5 PUSH1 0x40 MLOAD PUSH2 0x10CB SWAP2 SWAP1 PUSH2 0x2A2B JUMP JUMPDEST SWAP1 DUP2 MSTORE PUSH1 0x20 ADD PUSH1 0x40 MLOAD DUP1 SWAP2 SUB SWAP1 KECCAK256 PUSH1 0x0 DUP3 ADD MLOAD DUP2 PUSH1 0x0 ADD SWAP1 DUP2 PUSH2 0x10EE SWAP2 SWAP1 PUSH2 0x291D JUMP JUMPDEST POP PUSH1 0x20 DUP3 ADD MLOAD DUP2 PUSH1 0x1 ADD SSTORE PUSH1 0x40 DUP3 ADD MLOAD DUP2 PUSH1 0x2 ADD SSTORE PUSH1 0x60 DUP3 ADD MLOAD DUP2 PUSH1 0x3 ADD SWAP1 DUP2 PUSH2 0x1118 SWAP2 SWAP1 PUSH2 0x291D JUMP JUMPDEST POP PUSH1 0x80 DUP3 ADD MLOAD DUP2 PUSH1 0x4 ADD SWAP1 DUP1 MLOAD SWAP1 PUSH1 0x20 ADD SWAP1 PUSH2 0x1135 SWAP3 SWAP2 SWAP1 PUSH2 0x1C00 JUMP JUMPDEST POP SWAP1 POP POP POP POP POP JUMP JUMPDEST PUSH1 0x0 PUSH1 0x60 PUSH1 0x0 DUP1 PUSH1 0x0 SWAP1 POP JUMPDEST PUSH1 0x0 DUP1 SLOAD SWAP1 POP DUP2 LT ISZERO PUSH2 0x11F5 JUMPI PUSH1 0x40 MLOAD DUP1 PUSH1 0x40 ADD PUSH1 0x40 MSTORE DUP1 PUSH1 0x1 DUP2 MSTORE PUSH1 0x20 ADD PUSH32 0x4600000000000000000000000000000000000000000000000000000000000000 DUP2 MSTORE POP DUP1 MLOAD SWAP1 PUSH1 0x20 ADD KECCAK256 PUSH1 0x0 DUP3 DUP2 SLOAD DUP2 LT PUSH2 0x11A8 JUMPI PUSH2 0x11A7 PUSH2 0x25E0 JUMP JUMPDEST JUMPDEST SWAP1 PUSH1 0x0 MSTORE PUSH1 0x20 PUSH1 0x0 KECCAK256 SWAP1 PUSH1 0x5 MUL ADD PUSH1 0x3 ADD PUSH1 0x40 MLOAD PUSH2 0x11C6 SWAP2 SWAP1 PUSH2 0x275A JUMP JUMPDEST PUSH1 0x40 MLOAD DUP1 SWAP2 SUB SWAP1 KECCAK256 SUB PUSH2 0x11E2 JUMPI DUP2 DUP1 PUSH2 0x11DE SWAP1 PUSH2 0x260F JUMP JUMPDEST SWAP3 POP POP JUMPDEST DUP1 DUP1 PUSH2 0x11ED SWAP1 PUSH2 0x260F JUMP JUMPDEST SWAP2 POP POP PUSH2 0x114A JUMP JUMPDEST POP PUSH1 0x0 DUP2 PUSH8 0xFFFFFFFFFFFFFFFF DUP2 GT ISZERO PUSH2 0x1212 JUMPI PUSH2 0x1211 PUSH2 0x2132 JUMP JUMPDEST JUMPDEST PUSH1 0x40 MLOAD SWAP1 DUP1 DUP3 MSTORE DUP1 PUSH1 0x20 MUL PUSH1 0x20 ADD DUP3 ADD PUSH1 0x40 MSTORE DUP1 ISZERO PUSH2 0x124B JUMPI DUP2 PUSH1 0x20 ADD JUMPDEST PUSH2 0x1238 PUSH2 0x1BD1 JUMP JUMPDEST DUP2 MSTORE PUSH1 0x20 ADD SWAP1 PUSH1 0x1 SWAP1 SUB SWAP1 DUP2 PUSH2 0x1230 JUMPI SWAP1 POP JUMPDEST POP SWAP1 POP PUSH1 0x0 DUP1 PUSH1 0x0 SWAP1 POP JUMPDEST PUSH1 0x0 DUP1 SLOAD SWAP1 POP DUP2 LT ISZERO PUSH2 0x155D JUMPI PUSH1 0x40 MLOAD DUP1 PUSH1 0x40 ADD PUSH1 0x40 MSTORE DUP1 PUSH1 0x1 DUP2 MSTORE PUSH1 0x20 ADD PUSH32 0x4600000000000000000000000000000000000000000000000000000000000000 DUP2 MSTORE POP DUP1 MLOAD SWAP1 PUSH1 0x20 ADD KECCAK256 PUSH1 0x0 DUP3 DUP2 SLOAD DUP2 LT PUSH2 0x12B4 JUMPI PUSH2 0x12B3 PUSH2 0x25E0 JUMP JUMPDEST JUMPDEST SWAP1 PUSH1 0x0 MSTORE PUSH1 0x20 PUSH1 0x0 KECCAK256 SWAP1 PUSH1 0x5 MUL ADD PUSH1 0x3 ADD PUSH1 0x40 MLOAD PUSH2 0x12D2 SWAP2 SWAP1 PUSH2 0x275A JUMP JUMPDEST PUSH1 0x40 MLOAD DUP1 SWAP2 SUB SWAP1 KECCAK256 SUB PUSH2 0x153C JUMPI PUSH1 0x0 DUP2 DUP2 SLOAD DUP2 LT PUSH2 0x12F3 JUMPI PUSH2 0x12F2 PUSH2 0x25E0 JUMP JUMPDEST JUMPDEST SWAP1 PUSH1 0x0 MSTORE PUSH1 0x20 PUSH1 0x0 KECCAK256 SWAP1 PUSH1 0x5 MUL ADD PUSH1 0x40 MLOAD DUP1 PUSH1 0xA0 ADD PUSH1 0x40 MSTORE SWAP1 DUP2 PUSH1 0x0 DUP3 ADD DUP1 SLOAD PUSH2 0x131C SWAP1 PUSH2 0x2518 JUMP JUMPDEST DUP1 PUSH1 0x1F ADD PUSH1 0x20 DUP1 SWAP2 DIV MUL PUSH1 0x20 ADD PUSH1 0x40 MLOAD SWAP1 DUP2 ADD PUSH1 0x40 MSTORE DUP1 SWAP3 SWAP2 SWAP1 DUP2 DUP2 MSTORE PUSH1 0x20 ADD DUP3 DUP1 SLOAD PUSH2 0x1348 SWAP1 PUSH2 0x2518 JUMP JUMPDEST DUP1 ISZERO PUSH2 0x1395 JUMPI DUP1 PUSH1 0x1F LT PUSH2 0x136A JUMPI PUSH2 0x100 DUP1 DUP4 SLOAD DIV MUL DUP4 MSTORE SWAP2 PUSH1 0x20 ADD SWAP2 PUSH2 0x1395 JUMP JUMPDEST DUP3 ADD SWAP2 SWAP1 PUSH1 0x0 MSTORE PUSH1 0x20 PUSH1 0x0 KECCAK256 SWAP1 JUMPDEST DUP2 SLOAD DUP2 MSTORE SWAP1 PUSH1 0x1 ADD SWAP1 PUSH1 0x20 ADD DUP1 DUP4 GT PUSH2 0x1378 JUMPI DUP3 SWAP1 SUB PUSH1 0x1F AND DUP3 ADD SWAP2 JUMPDEST POP POP POP POP POP DUP2 MSTORE PUSH1 0x20 ADD PUSH1 0x1 DUP3 ADD SLOAD DUP2 MSTORE PUSH1 0x20 ADD PUSH1 0x2 DUP3 ADD SLOAD DUP2 MSTORE PUSH1 0x20 ADD PUSH1 0x3 DUP3 ADD DUP1 SLOAD PUSH2 0x13C2 SWAP1 PUSH2 0x2518 JUMP JUMPDEST DUP1 PUSH1 0x1F ADD PUSH1 0x20 DUP1 SWAP2 DIV MUL PUSH1 0x20 ADD PUSH1 0x40 MLOAD SWAP1 DUP2 ADD PUSH1 0x40 MSTORE DUP1 SWAP3 SWAP2 SWAP1 DUP2 DUP2 MSTORE PUSH1 0x20 ADD DUP3 DUP1 SLOAD PUSH2 0x13EE SWAP1 PUSH2 0x2518 JUMP JUMPDEST DUP1 ISZERO PUSH2 0x143B JUMPI DUP1 PUSH1 0x1F LT PUSH2 0x1410 JUMPI PUSH2 0x100 DUP1 DUP4 SLOAD DIV MUL DUP4 MSTORE SWAP2 PUSH1 0x20 ADD SWAP2 PUSH2 0x143B JUMP JUMPDEST DUP3 ADD SWAP2 SWAP1 PUSH1 0x0 MSTORE PUSH1 0x20 PUSH1 0x0 KECCAK256 SWAP1 JUMPDEST DUP2 SLOAD DUP2 MSTORE SWAP1 PUSH1 0x1 ADD SWAP1 PUSH1 0x20 ADD DUP1 DUP4 GT PUSH2 0x141E JUMPI DUP3 SWAP1 SUB PUSH1 0x1F AND DUP3 ADD SWAP2 JUMPDEST POP POP POP POP POP DUP2 MSTORE PUSH1 0x20 ADD PUSH1 0x4 DUP3 ADD DUP1 SLOAD DUP1 PUSH1 0x20 MUL PUSH1 0x20 ADD PUSH1 0x40 MLOAD SWAP1 DUP2 ADD PUSH1 0x40 MSTORE DUP1 SWAP3 SWAP2 SWAP1 DUP2 DUP2 MSTORE PUSH1 0x20 ADD PUSH1 0x0 SWAP1 JUMPDEST DUP3 DUP3 LT ISZERO PUSH2 0x1515 JUMPI DUP4 DUP3 SWAP1 PUSH1 0x0 MSTORE PUSH1 0x20 PUSH1 0x0 KECCAK256 ADD DUP1 SLOAD PUSH2 0x1488 SWAP1 PUSH2 0x2518 JUMP JUMPDEST DUP1 PUSH1 0x1F ADD PUSH1 0x20 DUP1 SWAP2 DIV MUL PUSH1 0x20 ADD PUSH1 0x40 MLOAD SWAP1 DUP2 ADD PUSH1 0x40 MSTORE DUP1 SWAP3 SWAP2 SWAP1 DUP2 DUP2 MSTORE PUSH1 0x20 ADD DUP3 DUP1 SLOAD PUSH2 0x14B4 SWAP1 PUSH2 0x2518 JUMP JUMPDEST DUP1 ISZERO PUSH2 0x1501 JUMPI DUP1 PUSH1 0x1F LT PUSH2 0x14D6 JUMPI PUSH2 0x100 DUP1 DUP4 SLOAD DIV MUL DUP4 MSTORE SWAP2 PUSH1 0x20 ADD SWAP2 PUSH2 0x1501 JUMP JUMPDEST DUP3 ADD SWAP2 SWAP1 PUSH1 0x0 MSTORE PUSH1 0x20 PUSH1 0x0 KECCAK256 SWAP1 JUMPDEST DUP2 SLOAD DUP2 MSTORE SWAP1 PUSH1 0x1 ADD SWAP1 PUSH1 0x20 ADD DUP1 DUP4 GT PUSH2 0x14E4 JUMPI DUP3 SWAP1 SUB PUSH1 0x1F AND DUP3 ADD SWAP2 JUMPDEST POP POP POP POP POP DUP2 MSTORE PUSH1 0x20 ADD SWAP1 PUSH1 0x1 ADD SWAP1 PUSH2 0x1469 JUMP JUMPDEST POP POP POP POP DUP2 MSTORE POP POP DUP4 DUP4 DUP2 MLOAD DUP2 LT PUSH2 0x1530 JUMPI PUSH2 0x152F PUSH2 0x25E0 JUMP JUMPDEST JUMPDEST PUSH1 0x20 MUL PUSH1 0x20 ADD ADD DUP2 SWAP1 MSTORE POP JUMPDEST DUP2 DUP1 PUSH2 0x1547 SWAP1 PUSH2 0x260F JUMP JUMPDEST SWAP3 POP POP DUP1 DUP1 PUSH2 0x1555 SWAP1 PUSH2 0x260F JUMP JUMPDEST SWAP2 POP POP PUSH2 0x1256 JUMP JUMPDEST POP DUP3 DUP3 SWAP5 POP SWAP5 POP POP POP POP SWAP1 SWAP2 JUMP JUMPDEST PUSH2 0x1573 PUSH2 0x1BD1 JUMP JUMPDEST PUSH1 0x1 DUP3 PUSH1 0x40 MLOAD PUSH2 0x1583 SWAP2 SWAP1 PUSH2 0x2A2B JUMP JUMPDEST SWAP1 DUP2 MSTORE PUSH1 0x20 ADD PUSH1 0x40 MLOAD DUP1 SWAP2 SUB SWAP1 KECCAK256 PUSH1 0x40 MLOAD DUP1 PUSH1 0xA0 ADD PUSH1 0x40 MSTORE SWAP1 DUP2 PUSH1 0x0 DUP3 ADD DUP1 SLOAD PUSH2 0x15AC SWAP1 PUSH2 0x2518 JUMP JUMPDEST DUP1 PUSH1 0x1F ADD PUSH1 0x20 DUP1 SWAP2 DIV MUL PUSH1 0x20 ADD PUSH1 0x40 MLOAD SWAP1 DUP2 ADD PUSH1 0x40 MSTORE DUP1 SWAP3 SWAP2 SWAP1 DUP2 DUP2 MSTORE PUSH1 0x20 ADD DUP3 DUP1 SLOAD PUSH2 0x15D8 SWAP1 PUSH2 0x2518 JUMP JUMPDEST DUP1 ISZERO PUSH2 0x1625 JUMPI DUP1 PUSH1 0x1F LT PUSH2 0x15FA JUMPI PUSH2 0x100 DUP1 DUP4 SLOAD DIV MUL DUP4 MSTORE SWAP2 PUSH1 0x20 ADD SWAP2 PUSH2 0x1625 JUMP JUMPDEST DUP3 ADD SWAP2 SWAP1 PUSH1 0x0 MSTORE PUSH1 0x20 PUSH1 0x0 KECCAK256 SWAP1 JUMPDEST DUP2 SLOAD DUP2 MSTORE SWAP1 PUSH1 0x1 ADD SWAP1 PUSH1 0x20 ADD DUP1 DUP4 GT PUSH2 0x1608 JUMPI DUP3 SWAP1 SUB PUSH1 0x1F AND DUP3 ADD SWAP2 JUMPDEST POP POP POP POP POP DUP2 MSTORE PUSH1 0x20 ADD PUSH1 0x1 DUP3 ADD SLOAD DUP2 MSTORE PUSH1 0x20 ADD PUSH1 0x2 DUP3 ADD SLOAD DUP2 MSTORE PUSH1 0x20 ADD PUSH1 0x3 DUP3 ADD DUP1 SLOAD PUSH2 0x1652 SWAP1 PUSH2 0x2518 JUMP JUMPDEST DUP1 PUSH1 0x1F ADD PUSH1 0x20 DUP1 SWAP2 DIV MUL PUSH1 0x20 ADD PUSH1 0x40 MLOAD SWAP1 DUP2 ADD PUSH1 0x40 MSTORE DUP1 SWAP3 SWAP2 SWAP1 DUP2 DUP2 MSTORE PUSH1 0x20 ADD DUP3 DUP1 SLOAD PUSH2 0x167E SWAP1 PUSH2 0x2518 JUMP JUMPDEST DUP1 ISZERO PUSH2 0x16CB JUMPI DUP1 PUSH1 0x1F LT PUSH2 0x16A0 JUMPI PUSH2 0x100 DUP1 DUP4 SLOAD DIV MUL DUP4 MSTORE SWAP2 PUSH1 0x20 ADD SWAP2 PUSH2 0x16CB JUMP JUMPDEST DUP3 ADD SWAP2 SWAP1 PUSH1 0x0 MSTORE PUSH1 0x20 PUSH1 0x0 KECCAK256 SWAP1 JUMPDEST DUP2 SLOAD DUP2 MSTORE SWAP1 PUSH1 0x1 ADD SWAP1 PUSH1 0x20 ADD DUP1 DUP4 GT PUSH2 0x16AE JUMPI DUP3 SWAP1 SUB PUSH1 0x1F AND DUP3 ADD SWAP2 JUMPDEST POP POP POP POP POP DUP2 MSTORE PUSH1 0x20 ADD PUSH1 0x4 DUP3 ADD DUP1 SLOAD DUP1 PUSH1 0x20 MUL PUSH1 0x20 ADD PUSH1 0x40 MLOAD SWAP1 DUP2 ADD PUSH1 0x40 MSTORE DUP1 SWAP3 SWAP2 SWAP1 DUP2 DUP2 MSTORE PUSH1 0x20 ADD PUSH1 0x0 SWAP1 JUMPDEST DUP3 DUP3 LT ISZERO PUSH2 0x17A5 JUMPI DUP4 DUP3 SWAP1 PUSH1 0x0 MSTORE PUSH1 0x20 PUSH1 0x0 KECCAK256 ADD DUP1 SLOAD PUSH2 0x1718 SWAP1 PUSH2 0x2518 JUMP JUMPDEST DUP1 PUSH1 0x1F ADD PUSH1 0x20 DUP1 SWAP2 DIV MUL PUSH1 0x20 ADD PUSH1 0x40 MLOAD SWAP1 DUP2 ADD PUSH1 0x40 MSTORE DUP1 SWAP3 SWAP2 SWAP1 DUP2 DUP2 MSTORE PUSH1 0x20 ADD DUP3 DUP1 SLOAD PUSH2 0x1744 SWAP1 PUSH2 0x2518 JUMP JUMPDEST DUP1 ISZERO PUSH2 0x1791 JUMPI DUP1 PUSH1 0x1F LT PUSH2 0x1766 JUMPI PUSH2 0x100 DUP1 DUP4 SLOAD DIV MUL DUP4 MSTORE SWAP2 PUSH1 0x20 ADD SWAP2 PUSH2 0x1791 JUMP JUMPDEST DUP3 ADD SWAP2 SWAP1 PUSH1 0x0 MSTORE PUSH1 0x20 PUSH1 0x0 KECCAK256 SWAP1 JUMPDEST DUP2 SLOAD DUP2 MSTORE SWAP1 PUSH1 0x1 ADD SWAP1 PUSH1 0x20 ADD DUP1 DUP4 GT PUSH2 0x1774 JUMPI DUP3 SWAP1 SUB PUSH1 0x1F AND DUP3 ADD SWAP2 JUMPDEST POP POP POP POP POP DUP2 MSTORE PUSH1 0x20 ADD SWAP1 PUSH1 0x1 ADD SWAP1 PUSH2 0x16F9 JUMP JUMPDEST POP POP POP POP DUP2 MSTORE POP POP SWAP1 POP SWAP2 SWAP1 POP JUMP JUMPDEST PUSH1 0x0 PUSH1 0x46 PUSH2 0x17C0 PUSH2 0x6A4 JUMP JUMPDEST LT PUSH2 0x17CE JUMPI PUSH1 0x1 SWAP1 POP PUSH2 0x17D3 JUMP JUMPDEST PUSH1 0x0 SWAP1 POP JUMPDEST SWAP1 JUMP JUMPDEST PUSH1 0x0 DUP1 DUP1 SLOAD SWAP1 POP SWAP1 POP SWAP1 JUMP JUMPDEST PUSH1 0x0 PUSH1 0x1 DUP3 PUSH1 0x40 MLOAD PUSH2 0x17F4 SWAP2 SWAP1 PUSH2 0x2A2B JUMP JUMPDEST SWAP1 DUP2 MSTORE PUSH1 0x20 ADD PUSH1 0x40 MLOAD DUP1 SWAP2 SUB SWAP1 KECCAK256 PUSH1 0x2 ADD SLOAD SWAP1 POP SWAP2 SWAP1 POP JUMP JUMPDEST PUSH1 0x60 PUSH1 0x0 DUP1 SLOAD DUP1 PUSH1 0x20 MUL PUSH1 0x20 ADD PUSH1 0x40 MLOAD SWAP1 DUP2 ADD PUSH1 0x40 MSTORE DUP1 SWAP3 SWAP2 SWAP1 DUP2 DUP2 MSTORE PUSH1 0x20 ADD PUSH1 0x0 SWAP1 JUMPDEST DUP3 DUP3 LT ISZERO PUSH2 0x1A74 JUMPI DUP4 DUP3 SWAP1 PUSH1 0x0 MSTORE PUSH1 0x20 PUSH1 0x0 KECCAK256 SWAP1 PUSH1 0x5 MUL ADD PUSH1 0x40 MLOAD DUP1 PUSH1 0xA0 ADD PUSH1 0x40 MSTORE SWAP1 DUP2 PUSH1 0x0 DUP3 ADD DUP1 SLOAD PUSH2 0x1864 SWAP1 PUSH2 0x2518 JUMP JUMPDEST DUP1 PUSH1 0x1F ADD PUSH1 0x20 DUP1 SWAP2 DIV MUL PUSH1 0x20 ADD PUSH1 0x40 MLOAD SWAP1 DUP2 ADD PUSH1 0x40 MSTORE DUP1 SWAP3 SWAP2 SWAP1 DUP2 DUP2 MSTORE PUSH1 0x20 ADD DUP3 DUP1 SLOAD PUSH2 0x1890 SWAP1 PUSH2 0x2518 JUMP JUMPDEST DUP1 ISZERO PUSH2 0x18DD JUMPI DUP1 PUSH1 0x1F LT PUSH2 0x18B2 JUMPI PUSH2 0x100 DUP1 DUP4 SLOAD DIV MUL DUP4 MSTORE SWAP2 PUSH1 0x20 ADD SWAP2 PUSH2 0x18DD JUMP JUMPDEST DUP3 ADD SWAP2 SWAP1 PUSH1 0x0 MSTORE PUSH1 0x20 PUSH1 0x0 KECCAK256 SWAP1 JUMPDEST DUP2 SLOAD DUP2 MSTORE SWAP1 PUSH1 0x1 ADD SWAP1 PUSH1 0x20 ADD DUP1 DUP4 GT PUSH2 0x18C0 JUMPI DUP3 SWAP1 SUB PUSH1 0x1F AND DUP3 ADD SWAP2 JUMPDEST POP POP POP POP POP DUP2 MSTORE PUSH1 0x20 ADD PUSH1 0x1 DUP3 ADD SLOAD DUP2 MSTORE PUSH1 0x20 ADD PUSH1 0x2 DUP3 ADD SLOAD DUP2 MSTORE PUSH1 0x20 ADD PUSH1 0x3 DUP3 ADD DUP1 SLOAD PUSH2 0x190A SWAP1 PUSH2 0x2518 JUMP JUMPDEST DUP1 PUSH1 0x1F ADD PUSH1 0x20 DUP1 SWAP2 DIV MUL PUSH1 0x20 ADD PUSH1 0x40 MLOAD SWAP1 DUP2 ADD PUSH1 0x40 MSTORE DUP1 SWAP3 SWAP2 SWAP1 DUP2 DUP2 MSTORE PUSH1 0x20 ADD DUP3 DUP1 SLOAD PUSH2 0x1936 SWAP1 PUSH2 0x2518 JUMP JUMPDEST DUP1 ISZERO PUSH2 0x1983 JUMPI DUP1 PUSH1 0x1F LT PUSH2 0x1958 JUMPI PUSH2 0x100 DUP1 DUP4 SLOAD DIV MUL DUP4 MSTORE SWAP2 PUSH1 0x20 ADD SWAP2 PUSH2 0x1983 JUMP JUMPDEST DUP3 ADD SWAP2 SWAP1 PUSH1 0x0 MSTORE PUSH1 0x20 PUSH1 0x0 KECCAK256 SWAP1 JUMPDEST DUP2 SLOAD DUP2 MSTORE SWAP1 PUSH1 0x1 ADD SWAP1 PUSH1 0x20 ADD DUP1 DUP4 GT PUSH2 0x1966 JUMPI DUP3 SWAP1 SUB PUSH1 0x1F AND DUP3 ADD SWAP2 JUMPDEST POP POP POP POP POP DUP2 MSTORE PUSH1 0x20 ADD PUSH1 0x4 DUP3 ADD DUP1 SLOAD DUP1 PUSH1 0x20 MUL PUSH1 0x20 ADD PUSH1 0x40 MLOAD SWAP1 DUP2 ADD PUSH1 0x40 MSTORE DUP1 SWAP3 SWAP2 SWAP1 DUP2 DUP2 MSTORE PUSH1 0x20 ADD PUSH1 0x0 SWAP1 JUMPDEST DUP3 DUP3 LT ISZERO PUSH2 0x1A5D JUMPI DUP4 DUP3 SWAP1 PUSH1 0x0 MSTORE PUSH1 0x20 PUSH1 0x0 KECCAK256 ADD DUP1 SLOAD PUSH2 0x19D0 SWAP1 PUSH2 0x2518 JUMP JUMPDEST DUP1 PUSH1 0x1F ADD PUSH1 0x20 DUP1 SWAP2 DIV MUL PUSH1 0x20 ADD PUSH1 0x40 MLOAD SWAP1 DUP2 ADD PUSH1 0x40 MSTORE DUP1 SWAP3 SWAP2 SWAP1 DUP2 DUP2 MSTORE PUSH1 0x20 ADD DUP3 DUP1 SLOAD PUSH2 0x19FC SWAP1 PUSH2 0x2518 JUMP JUMPDEST DUP1 ISZERO PUSH2 0x1A49 JUMPI DUP1 PUSH1 0x1F LT PUSH2 0x1A1E JUMPI PUSH2 0x100 DUP1 DUP4 SLOAD DIV MUL DUP4 MSTORE SWAP2 PUSH1 0x20 ADD SWAP2 PUSH2 0x1A49 JUMP JUMPDEST DUP3 ADD SWAP2 SWAP1 PUSH1 0x0 MSTORE PUSH1 0x20 PUSH1 0x0 KECCAK256 SWAP1 JUMPDEST DUP2 SLOAD DUP2 MSTORE SWAP1 PUSH1 0x1 ADD SWAP1 PUSH1 0x20 ADD DUP1 DUP4 GT PUSH2 0x1A2C JUMPI DUP3 SWAP1 SUB PUSH1 0x1F AND DUP3 ADD SWAP2 JUMPDEST POP POP POP POP POP DUP2 MSTORE PUSH1 0x20 ADD SWAP1 PUSH1 0x1 ADD SWAP1 PUSH2 0x19B1 JUMP JUMPDEST POP POP POP POP DUP2 MSTORE POP POP DUP2 MSTORE PUSH1 0x20 ADD SWAP1 PUSH1 0x1 ADD SWAP1 PUSH2 0x1831 JUMP JUMPDEST POP POP POP POP SWAP1 POP SWAP1 JUMP JUMPDEST PUSH1 0x60 PUSH1 0x5A DUP3 LT PUSH2 0x1AC4 JUMPI PUSH1 0x40 MLOAD DUP1 PUSH1 0x40 ADD PUSH1 0x40 MSTORE DUP1 PUSH1 0x1 DUP2 MSTORE PUSH1 0x20 ADD PUSH32 0x4100000000000000000000000000000000000000000000000000000000000000 DUP2 MSTORE POP SWAP1 POP PUSH2 0x1BCC JUMP JUMPDEST PUSH1 0x50 DUP3 LT PUSH2 0x1B09 JUMPI PUSH1 0x40 MLOAD DUP1 PUSH1 0x40 ADD PUSH1 0x40 MSTORE DUP1 PUSH1 0x1 DUP2 MSTORE PUSH1 0x20 ADD PUSH32 0x4200000000000000000000000000000000000000000000000000000000000000 DUP2 MSTORE POP SWAP1 POP PUSH2 0x1BCC JUMP JUMPDEST PUSH1 0x46 DUP3 LT PUSH2 0x1B4E JUMPI PUSH1 0x40 MLOAD DUP1 PUSH1 0x40 ADD PUSH1 0x40 MSTORE DUP1 PUSH1 0x1 DUP2 MSTORE PUSH1 0x20 ADD PUSH32 0x4300000000000000000000000000000000000000000000000000000000000000 DUP2 MSTORE POP SWAP1 POP PUSH2 0x1BCC JUMP JUMPDEST PUSH1 0x3C DUP3 LT PUSH2 0x1B93 JUMPI PUSH1 0x40 MLOAD DUP1 PUSH1 0x40 ADD PUSH1 0x40 MSTORE DUP1 PUSH1 0x1 DUP2 MSTORE PUSH1 0x20 ADD PUSH32 0x4400000000000000000000000000000000000000000000000000000000000000 DUP2 MSTORE POP SWAP1 POP PUSH2 0x1BCC JUMP JUMPDEST PUSH1 0x40 MLOAD DUP1 PUSH1 0x40 ADD PUSH1 0x40 MSTORE DUP1 PUSH1 0x1 DUP2 MSTORE PUSH1 0x20 ADD PUSH32 0x4600000000000000000000000000000000000000000000000000000000000000 DUP2 MSTORE POP SWAP1 POP JUMPDEST SWAP2 SWAP1 POP JUMP JUMPDEST PUSH1 0x40 MLOAD DUP1 PUSH1 0xA0 ADD PUSH1 0x40 MSTORE DUP1 PUSH1 0x60 DUP2 MSTORE PUSH1 0x20 ADD PUSH1 0x0 DUP2 MSTORE PUSH1 0x20 ADD PUSH1 0x0 DUP2 MSTORE PUSH1 0x20 ADD PUSH1 0x60 DUP2 MSTORE PUSH1 0x20 ADD PUSH1 0x60 DUP2 MSTORE POP SWAP1 JUMP JUMPDEST DUP3 DUP1 SLOAD DUP3 DUP3 SSTORE SWAP1 PUSH1 0x0 MSTORE PUSH1 0x20 PUSH1 0x0 KECCAK256 SWAP1 DUP2 ADD SWAP3 DUP3 ISZERO PUSH2 0x1C48 JUMPI SWAP2 PUSH1 0x20 MUL DUP3 ADD JUMPDEST DUP3 DUP2 GT ISZERO PUSH2 0x1C47 JUMPI DUP3 MLOAD DUP3 SWAP1 DUP2 PUSH2 0x1C37 SWAP2 SWAP1 PUSH2 0x291D JUMP JUMPDEST POP SWAP2 PUSH1 0x20 ADD SWAP2 SWAP1 PUSH1 0x1 ADD SWAP1 PUSH2 0x1C20 JUMP JUMPDEST JUMPDEST POP SWAP1 POP PUSH2 0x1C55 SWAP2 SWAP1 PUSH2 0x1C59 JUMP JUMPDEST POP SWAP1 JUMP JUMPDEST JUMPDEST DUP1 DUP3 GT ISZERO PUSH2 0x1C79 JUMPI PUSH1 0x0 DUP2 DUP2 PUSH2 0x1C70 SWAP2 SWAP1 PUSH2 0x1C7D JUMP JUMPDEST POP PUSH1 0x1 ADD PUSH2 0x1C5A JUMP JUMPDEST POP SWAP1 JUMP JUMPDEST POP DUP1 SLOAD PUSH2 0x1C89 SWAP1 PUSH2 0x2518 JUMP JUMPDEST PUSH1 0x0 DUP3 SSTORE DUP1 PUSH1 0x1F LT PUSH2 0x1C9B JUMPI POP PUSH2 0x1CBA JUMP JUMPDEST PUSH1 0x1F ADD PUSH1 0x20 SWAP1 DIV SWAP1 PUSH1 0x0 MSTORE PUSH1 0x20 PUSH1 0x0 KECCAK256 SWAP1 DUP2 ADD SWAP1 PUSH2 0x1CB9 SWAP2 SWAP1 PUSH2 0x1CBD JUMP JUMPDEST JUMPDEST POP JUMP JUMPDEST JUMPDEST DUP1 DUP3 GT ISZERO PUSH2 0x1CD6 JUMPI PUSH1 0x0 DUP2 PUSH1 0x0 SWAP1 SSTORE POP PUSH1 0x1 ADD PUSH2 0x1CBE JUMP JUMPDEST POP SWAP1 JUMP JUMPDEST PUSH1 0x0 DUP2 MLOAD SWAP1 POP SWAP2 SWAP1 POP JUMP JUMPDEST PUSH1 0x0 DUP3 DUP3 MSTORE PUSH1 0x20 DUP3 ADD SWAP1 POP SWAP3 SWAP2 POP POP JUMP JUMPDEST PUSH1 0x0 DUP2 SWAP1 POP PUSH1 0x20 DUP3 ADD SWAP1 POP SWAP2 SWAP1 POP JUMP JUMPDEST PUSH1 0x0 DUP2 MLOAD SWAP1 POP SWAP2 SWAP1 POP JUMP JUMPDEST PUSH1 0x0 DUP3 DUP3 MSTORE PUSH1 0x20 DUP3 ADD SWAP1 POP SWAP3 SWAP2 POP POP JUMP JUMPDEST PUSH1 0x0 JUMPDEST DUP4 DUP2 LT ISZERO PUSH2 0x1D40 JUMPI DUP1 DUP3 ADD MLOAD DUP2 DUP5 ADD MSTORE PUSH1 0x20 DUP2 ADD SWAP1 POP PUSH2 0x1D25 JUMP JUMPDEST PUSH1 0x0 DUP5 DUP5 ADD MSTORE POP POP POP POP JUMP JUMPDEST PUSH1 0x0 PUSH1 0x1F NOT PUSH1 0x1F DUP4 ADD AND SWAP1 POP SWAP2 SWAP1 POP JUMP JUMPDEST PUSH1 0x0 PUSH2 0x1D68 DUP3 PUSH2 0x1D06 JUMP JUMPDEST PUSH2 0x1D72 DUP2 DUP6 PUSH2 0x1D11 JUMP JUMPDEST SWAP4 POP PUSH2 0x1D82 DUP2 DUP6 PUSH1 0x20 DUP7 ADD PUSH2 0x1D22 JUMP JUMPDEST PUSH2 0x1D8B DUP2 PUSH2 0x1D4C JUMP JUMPDEST DUP5 ADD SWAP2 POP POP SWAP3 SWAP2 POP POP JUMP JUMPDEST PUSH1 0x0 DUP2 SWAP1 POP SWAP2 SWAP1 POP JUMP JUMPDEST PUSH2 0x1DA9 DUP2 PUSH2 0x1D96 JUMP JUMPDEST DUP3 MSTORE POP POP JUMP JUMPDEST PUSH1 0x0 DUP2 MLOAD SWAP1 POP SWAP2 SWAP1 POP JUMP JUMPDEST PUSH1 0x0 DUP3 DUP3 MSTORE PUSH1 0x20 DUP3 ADD SWAP1 POP SWAP3 SWAP2 POP POP JUMP JUMPDEST PUSH1 0x0 DUP2 SWAP1 POP PUSH1 0x20 DUP3 ADD SWAP1 POP SWAP2 SWAP1 POP JUMP JUMPDEST PUSH1 0x0 PUSH2 0x1DE7 DUP4 DUP4 PUSH2 0x1D5D JUMP JUMPDEST SWAP1 POP SWAP3 SWAP2 POP POP JUMP JUMPDEST PUSH1 0x0 PUSH1 0x20 DUP3 ADD SWAP1 POP SWAP2 SWAP1 POP JUMP JUMPDEST PUSH1 0x0 PUSH2 0x1E07 DUP3 PUSH2 0x1DAF JUMP JUMPDEST PUSH2 0x1E11 DUP2 DUP6 PUSH2 0x1DBA JUMP JUMPDEST SWAP4 POP DUP4 PUSH1 0x20 DUP3 MUL DUP6 ADD PUSH2 0x1E23 DUP6 PUSH2 0x1DCB JUMP JUMPDEST DUP1 PUSH1 0x0 JUMPDEST DUP6 DUP2 LT ISZERO PUSH2 0x1E5F JUMPI DUP5 DUP5 SUB DUP10 MSTORE DUP2 MLOAD PUSH2 0x1E40 DUP6 DUP3 PUSH2 0x1DDB JUMP JUMPDEST SWAP5 POP PUSH2 0x1E4B DUP4 PUSH2 0x1DEF JUMP JUMPDEST SWAP3 POP PUSH1 0x20 DUP11 ADD SWAP10 POP POP PUSH1 0x1 DUP2 ADD SWAP1 POP PUSH2 0x1E27 JUMP JUMPDEST POP DUP3 SWAP8 POP DUP8 SWAP6 POP POP POP POP POP POP SWAP3 SWAP2 POP POP JUMP JUMPDEST PUSH1 0x0 PUSH1 0xA0 DUP4 ADD PUSH1 0x0 DUP4 ADD MLOAD DUP5 DUP3 SUB PUSH1 0x0 DUP7 ADD MSTORE PUSH2 0x1E8E DUP3 DUP3 PUSH2 0x1D5D JUMP JUMPDEST SWAP2 POP POP PUSH1 0x20 DUP4 ADD MLOAD PUSH2 0x1EA3 PUSH1 0x20 DUP7 ADD DUP3 PUSH2 0x1DA0 JUMP JUMPDEST POP PUSH1 0x40 DUP4 ADD MLOAD PUSH2 0x1EB6 PUSH1 0x40 DUP7 ADD DUP3 PUSH2 0x1DA0 JUMP JUMPDEST POP PUSH1 0x60 DUP4 ADD MLOAD DUP5 DUP3 SUB PUSH1 0x60 DUP7 ADD MSTORE PUSH2 0x1ECE DUP3 DUP3 PUSH2 0x1D5D JUMP JUMPDEST SWAP2 POP POP PUSH1 0x80 DUP4 ADD MLOAD DUP5 DUP3 SUB PUSH1 0x80 DUP7 ADD MSTORE PUSH2 0x1EE8 DUP3 DUP3 PUSH2 0x1DFC JUMP JUMPDEST SWAP2 POP POP DUP1 SWAP2 POP POP SWAP3 SWAP2 POP POP JUMP JUMPDEST PUSH1 0x0 PUSH2 0x1F01 DUP4 DUP4 PUSH2 0x1E71 JUMP JUMPDEST SWAP1 POP SWAP3 SWAP2 POP POP JUMP JUMPDEST PUSH1 0x0 PUSH1 0x20 DUP3 ADD SWAP1 POP SWAP2 SWAP1 POP JUMP JUMPDEST PUSH1 0x0 PUSH2 0x1F21 DUP3 PUSH2 0x1CDA JUMP JUMPDEST PUSH2 0x1F2B DUP2 DUP6 PUSH2 0x1CE5 JUMP JUMPDEST SWAP4 POP DUP4 PUSH1 0x20 DUP3 MUL DUP6 ADD PUSH2 0x1F3D DUP6 PUSH2 0x1CF6 JUMP JUMPDEST DUP1 PUSH1 0x0 JUMPDEST DUP6 DUP2 LT ISZERO PUSH2 0x1F79 JUMPI DUP5 DUP5 SUB DUP10 MSTORE DUP2 MLOAD PUSH2 0x1F5A DUP6 DUP3 PUSH2 0x1EF5 JUMP JUMPDEST SWAP5 POP PUSH2 0x1F65 DUP4 PUSH2 0x1F09 JUMP JUMPDEST SWAP3 POP PUSH1 0x20 DUP11 ADD SWAP10 POP POP PUSH1 0x1 DUP2 ADD SWAP1 POP PUSH2 0x1F41 JUMP JUMPDEST POP DUP3 SWAP8 POP DUP8 SWAP6 POP POP POP POP POP POP SWAP3 SWAP2 POP POP JUMP JUMPDEST PUSH1 0x0 PUSH1 0x20 DUP3 ADD SWAP1 POP DUP2 DUP2 SUB PUSH1 0x0 DUP4 ADD MSTORE PUSH2 0x1FA5 DUP2 DUP5 PUSH2 0x1F16 JUMP JUMPDEST SWAP1 POP SWAP3 SWAP2 POP POP JUMP JUMPDEST PUSH2 0x1FB6 DUP2 PUSH2 0x1D96 JUMP JUMPDEST DUP3 MSTORE POP POP JUMP JUMPDEST PUSH1 0x0 PUSH1 0x20 DUP3 ADD SWAP1 POP PUSH2 0x1FD1 PUSH1 0x0 DUP4 ADD DUP5 PUSH2 0x1FAD JUMP JUMPDEST SWAP3 SWAP2 POP POP JUMP JUMPDEST PUSH1 0x0 PUSH1 0x60 DUP3 ADD SWAP1 POP PUSH2 0x1FEC PUSH1 0x0 DUP4 ADD DUP7 PUSH2 0x1FAD JUMP JUMPDEST PUSH2 0x1FF9 PUSH1 0x20 DUP4 ADD DUP6 PUSH2 0x1FAD JUMP JUMPDEST DUP2 DUP2 SUB PUSH1 0x40 DUP4 ADD MSTORE PUSH2 0x200B DUP2 DUP5 PUSH2 0x1F16 JUMP JUMPDEST SWAP1 POP SWAP5 SWAP4 POP POP POP POP JUMP JUMPDEST PUSH1 0x0 PUSH1 0x40 MLOAD SWAP1 POP SWAP1 JUMP JUMPDEST PUSH1 0x0 DUP1 REVERT JUMPDEST PUSH1 0x0 DUP1 REVERT JUMPDEST PUSH2 0x2032 DUP2 PUSH2 0x1D96 JUMP JUMPDEST DUP2 EQ PUSH2 0x203D JUMPI PUSH1 0x0 DUP1 REVERT JUMPDEST POP JUMP JUMPDEST PUSH1 0x0 DUP2 CALLDATALOAD SWAP1 POP PUSH2 0x204F DUP2 PUSH2 0x2029 JUMP JUMPDEST SWAP3 SWAP2 POP POP JUMP JUMPDEST PUSH1 0x0 PUSH1 0x20 DUP3 DUP5 SUB SLT ISZERO PUSH2 0x206B JUMPI PUSH2 0x206A PUSH2 0x201F JUMP JUMPDEST JUMPDEST PUSH1 0x0 PUSH2 0x2079 DUP5 DUP3 DUP6 ADD PUSH2 0x2040 JUMP JUMPDEST SWAP2 POP POP SWAP3 SWAP2 POP POP JUMP JUMPDEST PUSH1 0x0 PUSH1 0xA0 DUP4 ADD PUSH1 0x0 DUP4 ADD MLOAD DUP5 DUP3 SUB PUSH1 0x0 DUP7 ADD MSTORE PUSH2 0x209F DUP3 DUP3 PUSH2 0x1D5D JUMP JUMPDEST SWAP2 POP POP PUSH1 0x20 DUP4 ADD MLOAD PUSH2 0x20B4 PUSH1 0x20 DUP7 ADD DUP3 PUSH2 0x1DA0 JUMP JUMPDEST POP PUSH1 0x40 DUP4 ADD MLOAD PUSH2 0x20C7 PUSH1 0x40 DUP7 ADD DUP3 PUSH2 0x1DA0 JUMP JUMPDEST POP PUSH1 0x60 DUP4 ADD MLOAD DUP5 DUP3 SUB PUSH1 0x60 DUP7 ADD MSTORE PUSH2 0x20DF DUP3 DUP3 PUSH2 0x1D5D JUMP JUMPDEST SWAP2 POP POP PUSH1 0x80 DUP4 ADD MLOAD DUP5 DUP3 SUB PUSH1 0x80 DUP7 ADD MSTORE PUSH2 0x20F9 DUP3 DUP3 PUSH2 0x1DFC JUMP JUMPDEST SWAP2 POP POP DUP1 SWAP2 POP POP SWAP3 SWAP2 POP POP JUMP JUMPDEST PUSH1 0x0 PUSH1 0x20 DUP3 ADD SWAP1 POP DUP2 DUP2 SUB PUSH1 0x0 DUP4 ADD MSTORE PUSH2 0x2120 DUP2 DUP5 PUSH2 0x2082 JUMP JUMPDEST SWAP1 POP SWAP3 SWAP2 POP POP JUMP JUMPDEST PUSH1 0x0 DUP1 REVERT JUMPDEST PUSH1 0x0 DUP1 REVERT JUMPDEST PUSH32 0x4E487B7100000000000000000000000000000000000000000000000000000000 PUSH1 0x0 MSTORE PUSH1 0x41 PUSH1 0x4 MSTORE PUSH1 0x24 PUSH1 0x0 REVERT JUMPDEST PUSH2 0x216A DUP3 PUSH2 0x1D4C JUMP JUMPDEST DUP2 ADD DUP2 DUP2 LT PUSH8 0xFFFFFFFFFFFFFFFF DUP3 GT OR ISZERO PUSH2 0x2189 JUMPI PUSH2 0x2188 PUSH2 0x2132 JUMP JUMPDEST JUMPDEST DUP1 PUSH1 0x40 MSTORE POP POP POP JUMP JUMPDEST PUSH1 0x0 PUSH2 0x219C PUSH2 0x2015 JUMP JUMPDEST SWAP1 POP PUSH2 0x21A8 DUP3 DUP3 PUSH2 0x2161 JUMP JUMPDEST SWAP2 SWAP1 POP JUMP JUMPDEST PUSH1 0x0 PUSH8 0xFFFFFFFFFFFFFFFF DUP3 GT ISZERO PUSH2 0x21C8 JUMPI PUSH2 0x21C7 PUSH2 0x2132 JUMP JUMPDEST JUMPDEST PUSH2 0x21D1 DUP3 PUSH2 0x1D4C JUMP JUMPDEST SWAP1 POP PUSH1 0x20 DUP2 ADD SWAP1 POP SWAP2 SWAP1 POP JUMP JUMPDEST DUP3 DUP2 DUP4 CALLDATACOPY PUSH1 0x0 DUP4 DUP4 ADD MSTORE POP POP POP JUMP JUMPDEST PUSH1 0x0 PUSH2 0x2200 PUSH2 0x21FB DUP5 PUSH2 0x21AD JUMP JUMPDEST PUSH2 0x2192 JUMP JUMPDEST SWAP1 POP DUP3 DUP2 MSTORE PUSH1 0x20 DUP2 ADD DUP5 DUP5 DUP5 ADD GT ISZERO PUSH2 0x221C JUMPI PUSH2 0x221B PUSH2 0x212D JUMP JUMPDEST JUMPDEST PUSH2 0x2227 DUP5 DUP3 DUP6 PUSH2 0x21DE JUMP JUMPDEST POP SWAP4 SWAP3 POP POP POP JUMP JUMPDEST PUSH1 0x0 DUP3 PUSH1 0x1F DUP4 ADD SLT PUSH2 0x2244 JUMPI PUSH2 0x2243 PUSH2 0x2128 JUMP JUMPDEST JUMPDEST DUP2 CALLDATALOAD PUSH2 0x2254 DUP5 DUP3 PUSH1 0x20 DUP7 ADD PUSH2 0x21ED JUMP JUMPDEST SWAP2 POP POP SWAP3 SWAP2 POP POP JUMP JUMPDEST PUSH1 0x0 PUSH8 0xFFFFFFFFFFFFFFFF DUP3 GT ISZERO PUSH2 0x2278 JUMPI PUSH2 0x2277 PUSH2 0x2132 JUMP JUMPDEST JUMPDEST PUSH1 0x20 DUP3 MUL SWAP1 POP PUSH1 0x20 DUP2 ADD SWAP1 POP SWAP2 SWAP1 POP JUMP JUMPDEST PUSH1 0x0 DUP1 REVERT JUMPDEST PUSH1 0x0 PUSH2 0x22A1 PUSH2 0x229C DUP5 PUSH2 0x225D JUMP JUMPDEST PUSH2 0x2192 JUMP JUMPDEST SWAP1 POP DUP1 DUP4 DUP3 MSTORE PUSH1 0x20 DUP3 ADD SWAP1 POP PUSH1 0x20 DUP5 MUL DUP4 ADD DUP6 DUP2 GT ISZERO PUSH2 0x22C4 JUMPI PUSH2 0x22C3 PUSH2 0x2289 JUMP JUMPDEST JUMPDEST DUP4 JUMPDEST DUP2 DUP2 LT ISZERO PUSH2 0x230B JUMPI DUP1 CALLDATALOAD PUSH8 0xFFFFFFFFFFFFFFFF DUP2 GT ISZERO PUSH2 0x22E9 JUMPI PUSH2 0x22E8 PUSH2 0x2128 JUMP JUMPDEST JUMPDEST DUP1 DUP7 ADD PUSH2 0x22F6 DUP10 DUP3 PUSH2 0x222F JUMP JUMPDEST DUP6 MSTORE PUSH1 0x20 DUP6 ADD SWAP5 POP POP POP PUSH1 0x20 DUP2 ADD SWAP1 POP PUSH2 0x22C6 JUMP JUMPDEST POP POP POP SWAP4 SWAP3 POP POP POP JUMP JUMPDEST PUSH1 0x0 DUP3 PUSH1 0x1F DUP4 ADD SLT PUSH2 0x232A JUMPI PUSH2 0x2329 PUSH2 0x2128 JUMP JUMPDEST JUMPDEST DUP2 CALLDATALOAD PUSH2 0x233A DUP5 DUP3 PUSH1 0x20 DUP7 ADD PUSH2 0x228E JUMP JUMPDEST SWAP2 POP POP SWAP3 SWAP2 POP POP JUMP JUMPDEST PUSH1 0x0 DUP1 PUSH1 0x0 PUSH1 0x60 DUP5 DUP7 SUB SLT ISZERO PUSH2 0x235C JUMPI PUSH2 0x235B PUSH2 0x201F JUMP JUMPDEST JUMPDEST PUSH1 0x0 DUP5 ADD CALLDATALOAD PUSH8 0xFFFFFFFFFFFFFFFF DUP2 GT ISZERO PUSH2 0x237A JUMPI PUSH2 0x2379 PUSH2 0x2024 JUMP JUMPDEST JUMPDEST PUSH2 0x2386 DUP7 DUP3 DUP8 ADD PUSH2 0x222F JUMP JUMPDEST SWAP4 POP POP PUSH1 0x20 PUSH2 0x2397 DUP7 DUP3 DUP8 ADD PUSH2 0x2040 JUMP JUMPDEST SWAP3 POP POP PUSH1 0x40 DUP5 ADD CALLDATALOAD PUSH8 0xFFFFFFFFFFFFFFFF DUP2 GT ISZERO PUSH2 0x23B8 JUMPI PUSH2 0x23B7 PUSH2 0x2024 JUMP JUMPDEST JUMPDEST PUSH2 0x23C4 DUP7 DUP3 DUP8 ADD PUSH2 0x2315 JUMP JUMPDEST SWAP2 POP POP SWAP3 POP SWAP3 POP SWAP3 JUMP JUMPDEST PUSH1 0x0 PUSH1 0x40 DUP3 ADD SWAP1 POP PUSH2 0x23E3 PUSH1 0x0 DUP4 ADD DUP6 PUSH2 0x1FAD JUMP JUMPDEST DUP2 DUP2 SUB PUSH1 0x20 DUP4 ADD MSTORE PUSH2 0x23F5 DUP2 DUP5 PUSH2 0x1F16 JUMP JUMPDEST SWAP1 POP SWAP4 SWAP3 POP POP POP JUMP JUMPDEST PUSH1 0x0 PUSH1 0x20 DUP3 DUP5 SUB SLT ISZERO PUSH2 0x2414 JUMPI PUSH2 0x2413 PUSH2 0x201F JUMP JUMPDEST JUMPDEST PUSH1 0x0 DUP3 ADD CALLDATALOAD PUSH8 0xFFFFFFFFFFFFFFFF DUP2 GT ISZERO PUSH2 0x2432 JUMPI PUSH2 0x2431 PUSH2 0x2024 JUMP JUMPDEST JUMPDEST PUSH2 0x243E DUP5 DUP3 DUP6 ADD PUSH2 0x222F JUMP JUMPDEST SWAP2 POP POP SWAP3 SWAP2 POP POP JUMP JUMPDEST PUSH1 0x0 DUP2 ISZERO ISZERO SWAP1 POP SWAP2 SWAP1 POP JUMP JUMPDEST PUSH2 0x245C DUP2 PUSH2 0x2447 JUMP JUMPDEST DUP3 MSTORE POP POP JUMP JUMPDEST PUSH1 0x0 PUSH1 0x20 DUP3 ADD SWAP1 POP PUSH2 0x2477 PUSH1 0x0 DUP4 ADD DUP5 PUSH2 0x2453 JUMP JUMPDEST SWAP3 SWAP2 POP POP JUMP JUMPDEST PUSH1 0x0 DUP3 DUP3 MSTORE PUSH1 0x20 DUP3 ADD SWAP1 POP SWAP3 SWAP2 POP POP JUMP JUMPDEST PUSH1 0x0 PUSH2 0x2499 DUP3 PUSH2 0x1D06 JUMP JUMPDEST PUSH2 0x24A3 DUP2 DUP6 PUSH2 0x247D JUMP JUMPDEST SWAP4 POP PUSH2 0x24B3 DUP2 DUP6 PUSH1 0x20 DUP7 ADD PUSH2 0x1D22 JUMP JUMPDEST PUSH2 0x24BC DUP2 PUSH2 0x1D4C JUMP JUMPDEST DUP5 ADD SWAP2 POP POP SWAP3 SWAP2 POP POP JUMP JUMPDEST PUSH1 0x0 PUSH1 0x20 DUP3 ADD SWAP1 POP DUP2 DUP2 SUB PUSH1 0x0 DUP4 ADD MSTORE PUSH2 0x24E1 DUP2 DUP5 PUSH2 0x248E JUMP JUMPDEST SWAP1 POP SWAP3 SWAP2 POP POP JUMP JUMPDEST PUSH32 0x4E487B7100000000000000000000000000000000000000000000000000000000 PUSH1 0x0 MSTORE PUSH1 0x22 PUSH1 0x4 MSTORE PUSH1 0x24 PUSH1 0x0 REVERT JUMPDEST PUSH1 0x0 PUSH1 0x2 DUP3 DIV SWAP1 POP PUSH1 0x1 DUP3 AND DUP1 PUSH2 0x2530 JUMPI PUSH1 0x7F DUP3 AND SWAP2 POP JUMPDEST PUSH1 0x20 DUP3 LT DUP2 SUB PUSH2 0x2543 JUMPI PUSH2 0x2542 PUSH2 0x24E9 JUMP JUMPDEST JUMPDEST POP SWAP2 SWAP1 POP JUMP JUMPDEST PUSH32 0x4E487B7100000000000000000000000000000000000000000000000000000000 PUSH1 0x0 MSTORE PUSH1 0x11 PUSH1 0x4 MSTORE PUSH1 0x24 PUSH1 0x0 REVERT JUMPDEST PUSH1 0x0 PUSH2 0x2583 DUP3 PUSH2 0x1D96 JUMP JUMPDEST SWAP2 POP PUSH2 0x258E DUP4 PUSH2 0x1D96 JUMP JUMPDEST SWAP3 POP DUP3 DUP3 SUB SWAP1 POP DUP2 DUP2 GT ISZERO PUSH2 0x25A6 JUMPI PUSH2 0x25A5 PUSH2 0x2549 JUMP JUMPDEST JUMPDEST SWAP3 SWAP2 POP POP JUMP JUMPDEST PUSH1 0x0 PUSH2 0x25B7 DUP3 PUSH2 0x1D96 JUMP JUMPDEST SWAP2 POP PUSH2 0x25C2 DUP4 PUSH2 0x1D96 JUMP JUMPDEST SWAP3 POP DUP3 DUP3 ADD SWAP1 POP DUP1 DUP3 GT ISZERO PUSH2 0x25DA JUMPI PUSH2 0x25D9 PUSH2 0x2549 JUMP JUMPDEST JUMPDEST SWAP3 SWAP2 POP POP JUMP JUMPDEST PUSH32 0x4E487B7100000000000000000000000000000000000000000000000000000000 PUSH1 0x0 MSTORE PUSH1 0x32 PUSH1 0x4 MSTORE PUSH1 0x24 PUSH1 0x0 REVERT JUMPDEST PUSH1 0x0 PUSH2 0x261A DUP3 PUSH2 0x1D96 JUMP JUMPDEST SWAP2 POP PUSH32 0xFFFFFFFFFFFFFFFFFFFFFFFFFFFFFFFFFFFFFFFFFFFFFFFFFFFFFFFFFFFFFFFF DUP3 SUB PUSH2 0x264C JUMPI PUSH2 0x264B PUSH2 0x2549 JUMP JUMPDEST JUMPDEST PUSH1 0x1 DUP3 ADD SWAP1 POP SWAP2 SWAP1 POP JUMP JUMPDEST PUSH32 0x4E487B7100000000000000000000000000000000000000000000000000000000 PUSH1 0x0 MSTORE PUSH1 0x12 PUSH1 0x4 MSTORE PUSH1 0x24 PUSH1 0x0 REVERT JUMPDEST PUSH1 0x0 PUSH2 0x2691 DUP3 PUSH2 0x1D96 JUMP JUMPDEST SWAP2 POP PUSH2 0x269C DUP4 PUSH2 0x1D96 JUMP JUMPDEST SWAP3 POP DUP3 PUSH2 0x26AC JUMPI PUSH2 0x26AB PUSH2 0x2657 JUMP JUMPDEST JUMPDEST DUP3 DUP3 DIV SWAP1 POP SWAP3 SWAP2 POP POP JUMP JUMPDEST PUSH1 0x0 DUP2 SWAP1 POP SWAP3 SWAP2 POP POP JUMP JUMPDEST PUSH1 0x0 DUP2 SWAP1 POP DUP2 PUSH1 0x0 MSTORE PUSH1 0x20 PUSH1 0x0 KECCAK256 SWAP1 POP SWAP2 SWAP1 POP JUMP JUMPDEST PUSH1 0x0 DUP2 SLOAD PUSH2 0x26E4 DUP2 PUSH2 0x2518 JUMP JUMPDEST PUSH2 0x26EE DUP2 DUP7 PUSH2 0x26B7 JUMP JUMPDEST SWAP5 POP PUSH1 0x1 DUP3 AND PUSH1 0x0 DUP2 EQ PUSH2 0x2709 JUMPI PUSH1 0x1 DUP2 EQ PUSH2 0x271E JUMPI PUSH2 0x2751 JUMP JUMPDEST PUSH1 0xFF NOT DUP4 AND DUP7 MSTORE DUP2 ISZERO ISZERO DUP3 MUL DUP7 ADD SWAP4 POP PUSH2 0x2751 JUMP JUMPDEST PUSH2 0x2727 DUP6 PUSH2 0x26C2 JUMP JUMPDEST PUSH1 0x0 JUMPDEST DUP4 DUP2 LT ISZERO PUSH2 0x2749 JUMPI DUP2 SLOAD DUP2 DUP10 ADD MSTORE PUSH1 0x1 DUP3 ADD SWAP2 POP PUSH1 0x20 DUP2 ADD SWAP1 POP PUSH2 0x272A JUMP JUMPDEST DUP4 DUP9 ADD SWAP6 POP POP POP JUMPDEST POP POP POP SWAP3 SWAP2 POP POP JUMP JUMPDEST PUSH1 0x0 PUSH2 0x2766 DUP3 DUP5 PUSH2 0x26D7 JUMP JUMPDEST SWAP2 POP DUP2 SWAP1 POP SWAP3 SWAP2 POP POP JUMP JUMPDEST PUSH1 0x0 DUP2 SWAP1 POP DUP2 PUSH1 0x0 MSTORE PUSH1 0x20 PUSH1 0x0 KECCAK256 SWAP1 POP SWAP2 SWAP1 POP JUMP JUMPDEST PUSH1 0x0 PUSH1 0x20 PUSH1 0x1F DUP4 ADD DIV SWAP1 POP SWAP2 SWAP1 POP JUMP JUMPDEST PUSH1 0x0 DUP3 DUP3 SHL SWAP1 POP SWAP3 SWAP2 POP POP JUMP JUMPDEST PUSH1 0x0 PUSH1 0x8 DUP4 MUL PUSH2 0x27D3 PUSH32 0xFFFFFFFFFFFFFFFFFFFFFFFFFFFFFFFFFFFFFFFFFFFFFFFFFFFFFFFFFFFFFFFF DUP3 PUSH2 0x2796 JUMP JUMPDEST PUSH2 0x27DD DUP7 DUP4 PUSH2 0x2796 JUMP JUMPDEST SWAP6 POP DUP1 NOT DUP5 AND SWAP4 POP DUP1 DUP7 AND DUP5 OR SWAP3 POP POP POP SWAP4 SWAP3 POP POP POP JUMP JUMPDEST PUSH1 0x0 DUP2 SWAP1 POP SWAP2 SWAP1 POP JUMP JUMPDEST PUSH1 0x0 PUSH2 0x281A PUSH2 0x2815 PUSH2 0x2810 DUP5 PUSH2 0x1D96 JUMP JUMPDEST PUSH2 0x27F5 JUMP JUMPDEST PUSH2 0x1D96 JUMP JUMPDEST SWAP1 POP SWAP2 SWAP1 POP JUMP JUMPDEST PUSH1 0x0 DUP2 SWAP1 POP SWAP2 SWAP1 POP JUMP JUMPDEST PUSH2 0x2834 DUP4 PUSH2 0x27FF JUMP JUMPDEST PUSH2 0x2848 PUSH2 0x2840 DUP3 PUSH2 0x2821 JUMP JUMPDEST DUP5 DUP5 SLOAD PUSH2 0x27A3 JUMP JUMPDEST DUP3 SSTORE POP POP POP POP JUMP JUMPDEST PUSH1 0x0 SWAP1 JUMP JUMPDEST PUSH2 0x285D PUSH2 0x2850 JUMP JUMPDEST PUSH2 0x2868 DUP2 DUP5 DUP5 PUSH2 0x282B JUMP JUMPDEST POP POP POP JUMP JUMPDEST JUMPDEST DUP2 DUP2 LT ISZERO PUSH2 0x288C JUMPI PUSH2 0x2881 PUSH1 0x0 DUP3 PUSH2 0x2855 JUMP JUMPDEST PUSH1 0x1 DUP2 ADD SWAP1 POP PUSH2 0x286E JUMP JUMPDEST POP POP JUMP JUMPDEST PUSH1 0x1F DUP3 GT ISZERO PUSH2 0x28D1 JUMPI PUSH2 0x28A2 DUP2 PUSH2 0x2771 JUMP JUMPDEST PUSH2 0x28AB DUP5 PUSH2 0x2786 JUMP JUMPDEST DUP2 ADD PUSH1 0x20 DUP6 LT ISZERO PUSH2 0x28BA JUMPI DUP2 SWAP1 POP JUMPDEST PUSH2 0x28CE PUSH2 0x28C6 DUP6 PUSH2 0x2786 JUMP JUMPDEST DUP4 ADD DUP3 PUSH2 0x286D JUMP JUMPDEST POP POP JUMPDEST POP POP POP JUMP JUMPDEST PUSH1 0x0 DUP3 DUP3 SHR SWAP1 POP SWAP3 SWAP2 POP POP JUMP JUMPDEST PUSH1 0x0 PUSH2 0x28F4 PUSH1 0x0 NOT DUP5 PUSH1 0x8 MUL PUSH2 0x28D6 JUMP JUMPDEST NOT DUP1 DUP4 AND SWAP2 POP POP SWAP3 SWAP2 POP POP JUMP JUMPDEST PUSH1 0x0 PUSH2 0x290D DUP4 DUP4 PUSH2 0x28E3 JUMP JUMPDEST SWAP2 POP DUP3 PUSH1 0x2 MUL DUP3 OR SWAP1 POP SWAP3 SWAP2 POP POP JUMP JUMPDEST PUSH2 0x2926 DUP3 PUSH2 0x1D06 JUMP JUMPDEST PUSH8 0xFFFFFFFFFFFFFFFF DUP2 GT ISZERO PUSH2 0x293F JUMPI PUSH2 0x293E PUSH2 0x2132 JUMP JUMPDEST JUMPDEST PUSH2 0x2949 DUP3 SLOAD PUSH2 0x2518 JUMP JUMPDEST PUSH2 0x2954 DUP3 DUP3 DUP6 PUSH2 0x2890 JUMP JUMPDEST PUSH1 0x0 PUSH1 0x20 SWAP1 POP PUSH1 0x1F DUP4 GT PUSH1 0x1 DUP2 EQ PUSH2 0x2987 JUMPI PUSH1 0x0 DUP5 ISZERO PUSH2 0x2975 JUMPI DUP3 DUP8 ADD MLOAD SWAP1 POP JUMPDEST PUSH2 0x297F DUP6 DUP3 PUSH2 0x2901 JUMP JUMPDEST DUP7 SSTORE POP PUSH2 0x29E7 JUMP JUMPDEST PUSH1 0x1F NOT DUP5 AND PUSH2 0x2995 DUP7 PUSH2 0x2771 JUMP JUMPDEST PUSH1 0x0 JUMPDEST DUP3 DUP2 LT ISZERO PUSH2 0x29BD JUMPI DUP5 DUP10 ADD MLOAD DUP3 SSTORE PUSH1 0x1 DUP3 ADD SWAP2 POP PUSH1 0x20 DUP6 ADD SWAP5 POP PUSH1 0x20 DUP2 ADD SWAP1 POP PUSH2 0x2998 JUMP JUMPDEST DUP7 DUP4 LT ISZERO PUSH2 0x29DA JUMPI DUP5 DUP10 ADD MLOAD PUSH2 0x29D6 PUSH1 0x1F DUP10 AND DUP3 PUSH2 0x28E3 JUMP JUMPDEST DUP4 SSTORE POP JUMPDEST PUSH1 0x1 PUSH1 0x2 DUP9 MUL ADD DUP9 SSTORE POP POP POP JUMPDEST POP POP POP POP POP POP JUMP JUMPDEST PUSH1 0x0 DUP2 SWAP1 POP SWAP3 SWAP2 POP POP JUMP JUMPDEST PUSH1 0x0 PUSH2 0x2A05 DUP3 PUSH2 0x1D06 JUMP JUMPDEST PUSH2 0x2A0F DUP2 DUP6 PUSH2 0x29EF JUMP JUMPDEST SWAP4 POP PUSH2 0x2A1F DUP2 DUP6 PUSH1 0x20 DUP7 ADD PUSH2 0x1D22 JUMP JUMPDEST DUP1 DUP5 ADD SWAP2 POP POP SWAP3 SWAP2 POP POP JUMP JUMPDEST PUSH1 0x0 PUSH2 0x2A37 DUP3 DUP5 PUSH2 0x29FA JUMP JUMPDEST SWAP2 POP DUP2 SWAP1 POP SWAP3 SWAP2 POP POP JUMP INVALID LOG2 PUSH5 0x6970667358 0x22 SLT KECCAK256 SUB 0xE1 DUP1 0xCA 0xC8 SWAP15 0xC0 PUSH8 0xFE7506F74AC3B707 0x4F SWAP12 0x2F 0xCA 0x5D 0xB4 SGT 0xAC DUP4 GT CALLDATALOAD DUP12 0xCF MSTORE 0xD0 SWAP11 PUSH5 0x736F6C6343 STOP ADDMOD SLT STOP CALLER "
				},
				"gasEstimates": {
					"creation": {
						"codeDepositCost": "2174400",
						"executionCost": "2316",
						"totalCost": "2176716"
					},
					"external": {
						"FClass()": "infinite",
						"FClass2()": "infinite",
						"SClass()": "infinite",
						"getAllStudents()": "infinite",
						"getAverage()": "infinite",
						"getStudent(uint256)": "infinite",
						"getStudent2(string)": "infinite",
						"getStudentScore(string)": "infinite",
						"getStudentsNumber()": "2489",
						"pushStudent(string,uint256,string[])": "infinite",
						"selfEva()": "infinite",
						"setCredit(uint256)": "infinite"
					}
				},
				"methodIdentifiers": {
					"FClass()": "75d073eb",
					"FClass2()": "23abd657",
					"SClass()": "1cfd4566",
					"getAllStudents()": "e9e30927",
					"getAverage()": "21055acb",
					"getStudent(uint256)": "642f9163",
					"getStudent2(string)": "95863d62",
					"getStudentScore(string)": "e5521501",
					"getStudentsNumber()": "d437d7ca",
					"pushStudent(string,uint256,string[])": "74aa6858",
					"selfEva()": "9a2a5815",
					"setCredit(uint256)": "eac1d5b7"
				}
			},
			"storageLayout": {
				"storage": [
					{
						"astId": 17,
						"contract": "contracts-test/230511-test1-answer.sol:QUIZ1",
						"label": "students",
						"offset": 0,
						"slot": "0",
						"type": "t_array(t_struct(Student)13_storage)dyn_storage"
					},
					{
						"astId": 138,
						"contract": "contracts-test/230511-test1-answer.sol:QUIZ1",
						"label": "name_Student",
						"offset": 0,
						"slot": "1",
						"type": "t_mapping(t_string_memory_ptr,t_struct(Student)13_storage)"
					}
				],
				"types": {
					"t_array(t_string_storage)dyn_storage": {
						"base": "t_string_storage",
						"encoding": "dynamic_array",
						"label": "string[]",
						"numberOfBytes": "32"
					},
					"t_array(t_struct(Student)13_storage)dyn_storage": {
						"base": "t_struct(Student)13_storage",
						"encoding": "dynamic_array",
						"label": "struct QUIZ1.Student[]",
						"numberOfBytes": "32"
					},
					"t_mapping(t_string_memory_ptr,t_struct(Student)13_storage)": {
						"encoding": "mapping",
						"key": "t_string_memory_ptr",
						"label": "mapping(string => struct QUIZ1.Student)",
						"numberOfBytes": "32",
						"value": "t_struct(Student)13_storage"
					},
					"t_string_memory_ptr": {
						"encoding": "bytes",
						"label": "string",
						"numberOfBytes": "32"
					},
					"t_string_storage": {
						"encoding": "bytes",
						"label": "string",
						"numberOfBytes": "32"
					},
					"t_struct(Student)13_storage": {
						"encoding": "inplace",
						"label": "struct QUIZ1.Student",
						"members": [
							{
								"astId": 3,
								"contract": "contracts-test/230511-test1-answer.sol:QUIZ1",
								"label": "name",
								"offset": 0,
								"slot": "0",
								"type": "t_string_storage"
							},
							{
								"astId": 5,
								"contract": "contracts-test/230511-test1-answer.sol:QUIZ1",
								"label": "number",
								"offset": 0,
								"slot": "1",
								"type": "t_uint256"
							},
							{
								"astId": 7,
								"contract": "contracts-test/230511-test1-answer.sol:QUIZ1",
								"label": "score",
								"offset": 0,
								"slot": "2",
								"type": "t_uint256"
							},
							{
								"astId": 9,
								"contract": "contracts-test/230511-test1-answer.sol:QUIZ1",
								"label": "credit",
								"offset": 0,
								"slot": "3",
								"type": "t_string_storage"
							},
							{
								"astId": 12,
								"contract": "contracts-test/230511-test1-answer.sol:QUIZ1",
								"label": "classes",
								"offset": 0,
								"slot": "4",
								"type": "t_array(t_string_storage)dyn_storage"
							}
						],
						"numberOfBytes": "160"
					},
					"t_uint256": {
						"encoding": "inplace",
						"label": "uint256",
						"numberOfBytes": "32"
					}
				}
			},
			"userdoc": {
				"kind": "user",
				"methods": {},
				"version": 1
			}
		}
	}
}