{
	"contracts/230502-2.sol": {
		"UintandString": {
			"abi": [
				{
					"inputs": [],
					"name": "getA",
					"outputs": [
						{
							"internalType": "uint256",
							"name": "",
							"type": "uint256"
						}
					],
					"stateMutability": "view",
					"type": "function"
				},
				{
					"inputs": [],
					"name": "getAB",
					"outputs": [
						{
							"internalType": "uint256",
							"name": "",
							"type": "uint256"
						},
						{
							"internalType": "string",
							"name": "",
							"type": "string"
						}
					],
					"stateMutability": "view",
					"type": "function"
				},
				{
					"inputs": [],
					"name": "getB",
					"outputs": [
						{
							"internalType": "string",
							"name": "",
							"type": "string"
						}
					],
					"stateMutability": "view",
					"type": "function"
				},
				{
					"inputs": [
						{
							"internalType": "uint256",
							"name": "_a",
							"type": "uint256"
						}
					],
					"name": "setA",
					"outputs": [],
					"stateMutability": "nonpayable",
					"type": "function"
				},
				{
					"inputs": [
						{
							"internalType": "uint256",
							"name": "_a",
							"type": "uint256"
						},
						{
							"internalType": "string",
							"name": "_b",
							"type": "string"
						}
					],
					"name": "setAB",
					"outputs": [],
					"stateMutability": "nonpayable",
					"type": "function"
				},
				{
					"inputs": [],
					"name": "setAasFive",
					"outputs": [],
					"stateMutability": "nonpayable",
					"type": "function"
				},
				{
					"inputs": [
						{
							"internalType": "string",
							"name": "_b",
							"type": "string"
						}
					],
					"name": "setB",
					"outputs": [],
					"stateMutability": "nonpayable",
					"type": "function"
				},
				{
					"inputs": [],
					"name": "setBasABC",
					"outputs": [],
					"stateMutability": "nonpayable",
					"type": "function"
				},
				{
					"inputs": [],
					"name": "setBasC",
					"outputs": [],
					"stateMutability": "nonpayable",
					"type": "function"
				},
				{
					"inputs": [],
					"name": "setBasC2",
					"outputs": [],
					"stateMutability": "nonpayable",
					"type": "function"
				}
			],
			"devdoc": {
				"kind": "dev",
				"methods": {},
				"version": 1
			},
			"evm": {
				"assembly": "    /* \"contracts/230502-2.sol\":63:873  contract UintandString {... */\n  mstore(0x40, 0x80)\n  callvalue\n  dup1\n  iszero\n  tag_1\n  jumpi\n  0x00\n  dup1\n  revert\ntag_1:\n  pop\n  dataSize(sub_0)\n  dup1\n  dataOffset(sub_0)\n  0x00\n  codecopy\n  0x00\n  return\nstop\n\nsub_0: assembly {\n        /* \"contracts/230502-2.sol\":63:873  contract UintandString {... */\n      mstore(0x40, 0x80)\n      callvalue\n      dup1\n      iszero\n      tag_1\n      jumpi\n      0x00\n      dup1\n      revert\n    tag_1:\n      pop\n      jumpi(tag_2, lt(calldatasize, 0x04))\n      shr(0xe0, calldataload(0x00))\n      dup1\n      0xa1c51915\n      gt\n      tag_13\n      jumpi\n      dup1\n      0xa1c51915\n      eq\n      tag_8\n      jumpi\n      dup1\n      0xb5e7bc60\n      eq\n      tag_9\n      jumpi\n      dup1\n      0xd46300fd\n      eq\n      tag_10\n      jumpi\n      dup1\n      0xdea76b79\n      eq\n      tag_11\n      jumpi\n      dup1\n      0xee919d50\n      eq\n      tag_12\n      jumpi\n      jump(tag_2)\n    tag_13:\n      dup1\n      0x2b06cb2d\n      eq\n      tag_3\n      jumpi\n      dup1\n      0x5e448e16\n      eq\n      tag_4\n      jumpi\n      dup1\n      0x71c59316\n      eq\n      tag_5\n      jumpi\n      dup1\n      0x7a72b903\n      eq\n      tag_6\n      jumpi\n      dup1\n      0x9b36f8da\n      eq\n      tag_7\n      jumpi\n    tag_2:\n      0x00\n      dup1\n      revert\n        /* \"contracts/230502-2.sol\":783:871  function getAB() public view returns(uint, string memory) {... */\n    tag_3:\n      tag_14\n      tag_15\n      jump\t// in\n    tag_14:\n      mload(0x40)\n      tag_16\n      swap3\n      swap2\n      swap1\n      tag_17\n      jump\t// in\n    tag_16:\n      mload(0x40)\n      dup1\n      swap2\n      sub\n      swap1\n      return\n        /* \"contracts/230502-2.sol\":572:623  function setBasC2() public {... */\n    tag_4:\n      tag_18\n      tag_19\n      jump\t// in\n    tag_18:\n      stop\n        /* \"contracts/230502-2.sol\":629:683  function setBasABC() public {... */\n    tag_5:\n      tag_20\n      tag_21\n      jump\t// in\n    tag_20:\n      stop\n        /* \"contracts/230502-2.sol\":236:287  function setAasFive() public {... */\n    tag_6:\n      tag_22\n      tag_23\n      jump\t// in\n    tag_22:\n      stop\n        /* \"contracts/230502-2.sol\":516:566  function setBasC() public {... */\n    tag_7:\n      tag_24\n      tag_25\n      jump\t// in\n    tag_24:\n      stop\n        /* \"contracts/230502-2.sol\":434:510  function getB() public view returns(string memory) {... */\n    tag_8:\n      tag_26\n      tag_27\n      jump\t// in\n    tag_26:\n      mload(0x40)\n      tag_28\n      swap2\n      swap1\n      tag_29\n      jump\t// in\n    tag_28:\n      mload(0x40)\n      dup1\n      swap2\n      sub\n      swap1\n      return\n        /* \"contracts/230502-2.sol\":366:428  function setB(string memory _b) public {... */\n    tag_9:\n      tag_30\n      0x04\n      dup1\n      calldatasize\n      sub\n      dup2\n      add\n      swap1\n      tag_31\n      swap2\n      swap1\n      tag_32\n      jump\t// in\n    tag_31:\n      tag_33\n      jump\t// in\n    tag_30:\n      stop\n        /* \"contracts/230502-2.sol\":293:360  function getA() public view returns(uint) {... */\n    tag_10:\n      tag_34\n      tag_35\n      jump\t// in\n    tag_34:\n      mload(0x40)\n      tag_36\n      swap2\n      swap1\n      tag_37\n      jump\t// in\n    tag_36:\n      mload(0x40)\n      dup1\n      swap2\n      sub\n      swap1\n      return\n        /* \"contracts/230502-2.sol\":689:777  function setAB(uint _a, string memory _b) public {... */\n    tag_11:\n      tag_38\n      0x04\n      dup1\n      calldatasize\n      sub\n      dup2\n      add\n      swap1\n      tag_39\n      swap2\n      swap1\n      tag_40\n      jump\t// in\n    tag_39:\n      tag_41\n      jump\t// in\n    tag_38:\n      stop\n        /* \"contracts/230502-2.sol\":177:230  function setA(uint _a) public {... */\n    tag_12:\n      tag_42\n      0x04\n      dup1\n      calldatasize\n      sub\n      dup2\n      add\n      swap1\n      tag_43\n      swap2\n      swap1\n      tag_44\n      jump\t// in\n    tag_43:\n      tag_45\n      jump\t// in\n    tag_42:\n      stop\n        /* \"contracts/230502-2.sol\":783:871  function getAB() public view returns(uint, string memory) {... */\n    tag_15:\n        /* \"contracts/230502-2.sol\":820:824  uint */\n      0x00\n        /* \"contracts/230502-2.sol\":826:839  string memory */\n      0x60\n        /* \"contracts/230502-2.sol\":859:860  a */\n      sload(0x00)\n        /* \"contracts/230502-2.sol\":862:863  b */\n      0x01\n        /* \"contracts/230502-2.sol\":851:864  return (a, b) */\n      dup1\n      dup1\n      sload\n      tag_47\n      swap1\n      tag_48\n      jump\t// in\n    tag_47:\n      dup1\n      0x1f\n      add\n      0x20\n      dup1\n      swap2\n      div\n      mul\n      0x20\n      add\n      mload(0x40)\n      swap1\n      dup2\n      add\n      0x40\n      mstore\n      dup1\n      swap3\n      swap2\n      swap1\n      dup2\n      dup2\n      mstore\n      0x20\n      add\n      dup3\n      dup1\n      sload\n      tag_49\n      swap1\n      tag_48\n      jump\t// in\n    tag_49:\n      dup1\n      iszero\n      tag_50\n      jumpi\n      dup1\n      0x1f\n      lt\n      tag_51\n      jumpi\n      0x0100\n      dup1\n      dup4\n      sload\n      div\n      mul\n      dup4\n      mstore\n      swap2\n      0x20\n      add\n      swap2\n      jump(tag_50)\n    tag_51:\n      dup3\n      add\n      swap2\n      swap1\n      0x00\n      mstore\n      keccak256(0x00, 0x20)\n      swap1\n    tag_52:\n      dup2\n      sload\n      dup2\n      mstore\n      swap1\n      0x01\n      add\n      swap1\n      0x20\n      add\n      dup1\n      dup4\n      gt\n      tag_52\n      jumpi\n      dup3\n      swap1\n      sub\n      0x1f\n      and\n      dup3\n      add\n      swap2\n    tag_50:\n      pop\n      pop\n      pop\n      pop\n      pop\n      swap1\n      pop\n      swap2\n      pop\n      swap2\n      pop\n        /* \"contracts/230502-2.sol\":783:871  function getAB() public view returns(uint, string memory) {... */\n      swap1\n      swap2\n      jump\t// out\n        /* \"contracts/230502-2.sol\":572:623  function setBasC2() public {... */\n    tag_19:\n        /* \"contracts/230502-2.sol\":609:616  b = \"C\" */\n      mload(0x40)\n      dup1\n      0x40\n      add\n      0x40\n      mstore\n      dup1\n      0x01\n      dup2\n      mstore\n      0x20\n      add\n      0x4300000000000000000000000000000000000000000000000000000000000000\n      dup2\n      mstore\n      pop\n        /* \"contracts/230502-2.sol\":609:610  b */\n      0x01\n        /* \"contracts/230502-2.sol\":609:616  b = \"C\" */\n      swap1\n      dup2\n      tag_54\n      swap2\n      swap1\n      tag_55\n      jump\t// in\n    tag_54:\n      pop\n        /* \"contracts/230502-2.sol\":572:623  function setBasC2() public {... */\n      jump\t// out\n        /* \"contracts/230502-2.sol\":629:683  function setBasABC() public {... */\n    tag_21:\n        /* \"contracts/230502-2.sol\":667:676  b = \"abc\" */\n      mload(0x40)\n      dup1\n      0x40\n      add\n      0x40\n      mstore\n      dup1\n      0x03\n      dup2\n      mstore\n      0x20\n      add\n      0x6162630000000000000000000000000000000000000000000000000000000000\n      dup2\n      mstore\n      pop\n        /* \"contracts/230502-2.sol\":667:668  b */\n      0x01\n        /* \"contracts/230502-2.sol\":667:676  b = \"abc\" */\n      swap1\n      dup2\n      tag_57\n      swap2\n      swap1\n      tag_55\n      jump\t// in\n    tag_57:\n      pop\n        /* \"contracts/230502-2.sol\":629:683  function setBasABC() public {... */\n      jump\t// out\n        /* \"contracts/230502-2.sol\":236:287  function setAasFive() public {... */\n    tag_23:\n        /* \"contracts/230502-2.sol\":279:280  5 */\n      0x05\n        /* \"contracts/230502-2.sol\":275:276  a */\n      0x00\n        /* \"contracts/230502-2.sol\":275:280  a = 5 */\n      dup2\n      swap1\n      sstore\n      pop\n        /* \"contracts/230502-2.sol\":236:287  function setAasFive() public {... */\n      jump\t// out\n        /* \"contracts/230502-2.sol\":516:566  function setBasC() public {... */\n    tag_25:\n        /* \"contracts/230502-2.sol\":552:559  b = \"c\" */\n      mload(0x40)\n      dup1\n      0x40\n      add\n      0x40\n      mstore\n      dup1\n      0x01\n      dup2\n      mstore\n      0x20\n      add\n      0x6300000000000000000000000000000000000000000000000000000000000000\n      dup2\n      mstore\n      pop\n        /* \"contracts/230502-2.sol\":552:553  b */\n      0x01\n        /* \"contracts/230502-2.sol\":552:559  b = \"c\" */\n      swap1\n      dup2\n      tag_60\n      swap2\n      swap1\n      tag_55\n      jump\t// in\n    tag_60:\n      pop\n        /* \"contracts/230502-2.sol\":516:566  function setBasC() public {... */\n      jump\t// out\n        /* \"contracts/230502-2.sol\":434:510  function getB() public view returns(string memory) {... */\n    tag_27:\n        /* \"contracts/230502-2.sol\":470:483  string memory */\n      0x60\n        /* \"contracts/230502-2.sol\":502:503  b */\n      0x01\n        /* \"contracts/230502-2.sol\":495:503  return b */\n      dup1\n      sload\n      tag_62\n      swap1\n      tag_48\n      jump\t// in\n    tag_62:\n      dup1\n      0x1f\n      add\n      0x20\n      dup1\n      swap2\n      div\n      mul\n      0x20\n      add\n      mload(0x40)\n      swap1\n      dup2\n      add\n      0x40\n      mstore\n      dup1\n      swap3\n      swap2\n      swap1\n      dup2\n      dup2\n      mstore\n      0x20\n      add\n      dup3\n      dup1\n      sload\n      tag_63\n      swap1\n      tag_48\n      jump\t// in\n    tag_63:\n      dup1\n      iszero\n      tag_64\n      jumpi\n      dup1\n      0x1f\n      lt\n      tag_65\n      jumpi\n      0x0100\n      dup1\n      dup4\n      sload\n      div\n      mul\n      dup4\n      mstore\n      swap2\n      0x20\n      add\n      swap2\n      jump(tag_64)\n    tag_65:\n      dup3\n      add\n      swap2\n      swap1\n      0x00\n      mstore\n      keccak256(0x00, 0x20)\n      swap1\n    tag_66:\n      dup2\n      sload\n      dup2\n      mstore\n      swap1\n      0x01\n      add\n      swap1\n      0x20\n      add\n      dup1\n      dup4\n      gt\n      tag_66\n      jumpi\n      dup3\n      swap1\n      sub\n      0x1f\n      and\n      dup3\n      add\n      swap2\n    tag_64:\n      pop\n      pop\n      pop\n      pop\n      pop\n      swap1\n      pop\n        /* \"contracts/230502-2.sol\":434:510  function getB() public view returns(string memory) {... */\n      swap1\n      jump\t// out\n        /* \"contracts/230502-2.sol\":366:428  function setB(string memory _b) public {... */\n    tag_33:\n        /* \"contracts/230502-2.sol\":419:421  _b */\n      dup1\n        /* \"contracts/230502-2.sol\":415:416  b */\n      0x01\n        /* \"contracts/230502-2.sol\":415:421  b = _b */\n      swap1\n      dup2\n      tag_68\n      swap2\n      swap1\n      tag_55\n      jump\t// in\n    tag_68:\n      pop\n        /* \"contracts/230502-2.sol\":366:428  function setB(string memory _b) public {... */\n      pop\n      jump\t// out\n        /* \"contracts/230502-2.sol\":293:360  function getA() public view returns(uint) {... */\n    tag_35:\n        /* \"contracts/230502-2.sol\":329:333  uint */\n      0x00\n        /* \"contracts/230502-2.sol\":352:353  a */\n      dup1\n      sload\n        /* \"contracts/230502-2.sol\":345:353  return a */\n      swap1\n      pop\n        /* \"contracts/230502-2.sol\":293:360  function getA() public view returns(uint) {... */\n      swap1\n      jump\t// out\n        /* \"contracts/230502-2.sol\":689:777  function setAB(uint _a, string memory _b) public {... */\n    tag_41:\n        /* \"contracts/230502-2.sol\":752:754  _a */\n      dup2\n        /* \"contracts/230502-2.sol\":748:749  a */\n      0x00\n        /* \"contracts/230502-2.sol\":748:754  a = _a */\n      dup2\n      swap1\n      sstore\n      pop\n        /* \"contracts/230502-2.sol\":768:770  _b */\n      dup1\n        /* \"contracts/230502-2.sol\":764:765  b */\n      0x01\n        /* \"contracts/230502-2.sol\":764:770  b = _b */\n      swap1\n      dup2\n      tag_71\n      swap2\n      swap1\n      tag_55\n      jump\t// in\n    tag_71:\n      pop\n        /* \"contracts/230502-2.sol\":689:777  function setAB(uint _a, string memory _b) public {... */\n      pop\n      pop\n      jump\t// out\n        /* \"contracts/230502-2.sol\":177:230  function setA(uint _a) public {... */\n    tag_45:\n        /* \"contracts/230502-2.sol\":221:223  _a */\n      dup1\n        /* \"contracts/230502-2.sol\":217:218  a */\n      0x00\n        /* \"contracts/230502-2.sol\":217:223  a = _a */\n      dup2\n      swap1\n      sstore\n      pop\n        /* \"contracts/230502-2.sol\":177:230  function setA(uint _a) public {... */\n      pop\n      jump\t// out\n        /* \"#utility.yul\":7:84   */\n    tag_73:\n        /* \"#utility.yul\":44:51   */\n      0x00\n        /* \"#utility.yul\":73:78   */\n      dup2\n        /* \"#utility.yul\":62:78   */\n      swap1\n      pop\n        /* \"#utility.yul\":7:84   */\n      swap2\n      swap1\n      pop\n      jump\t// out\n        /* \"#utility.yul\":90:208   */\n    tag_74:\n        /* \"#utility.yul\":177:201   */\n      tag_113\n        /* \"#utility.yul\":195:200   */\n      dup2\n        /* \"#utility.yul\":177:201   */\n      tag_73\n      jump\t// in\n    tag_113:\n        /* \"#utility.yul\":172:175   */\n      dup3\n        /* \"#utility.yul\":165:202   */\n      mstore\n        /* \"#utility.yul\":90:208   */\n      pop\n      pop\n      jump\t// out\n        /* \"#utility.yul\":214:313   */\n    tag_75:\n        /* \"#utility.yul\":266:272   */\n      0x00\n        /* \"#utility.yul\":300:305   */\n      dup2\n        /* \"#utility.yul\":294:306   */\n      mload\n        /* \"#utility.yul\":284:306   */\n      swap1\n      pop\n        /* \"#utility.yul\":214:313   */\n      swap2\n      swap1\n      pop\n      jump\t// out\n        /* \"#utility.yul\":319:488   */\n    tag_76:\n        /* \"#utility.yul\":403:414   */\n      0x00\n        /* \"#utility.yul\":437:443   */\n      dup3\n        /* \"#utility.yul\":432:435   */\n      dup3\n        /* \"#utility.yul\":425:444   */\n      mstore\n        /* \"#utility.yul\":477:481   */\n      0x20\n        /* \"#utility.yul\":472:475   */\n      dup3\n        /* \"#utility.yul\":468:482   */\n      add\n        /* \"#utility.yul\":453:482   */\n      swap1\n      pop\n        /* \"#utility.yul\":319:488   */\n      swap3\n      swap2\n      pop\n      pop\n      jump\t// out\n        /* \"#utility.yul\":494:740   */\n    tag_77:\n        /* \"#utility.yul\":575:576   */\n      0x00\n        /* \"#utility.yul\":585:698   */\n    tag_117:\n        /* \"#utility.yul\":599:605   */\n      dup4\n        /* \"#utility.yul\":596:597   */\n      dup2\n        /* \"#utility.yul\":593:606   */\n      lt\n        /* \"#utility.yul\":585:698   */\n      iszero\n      tag_119\n      jumpi\n        /* \"#utility.yul\":684:685   */\n      dup1\n        /* \"#utility.yul\":679:682   */\n      dup3\n        /* \"#utility.yul\":675:686   */\n      add\n        /* \"#utility.yul\":669:687   */\n      mload\n        /* \"#utility.yul\":665:666   */\n      dup2\n        /* \"#utility.yul\":660:663   */\n      dup5\n        /* \"#utility.yul\":656:667   */\n      add\n        /* \"#utility.yul\":649:688   */\n      mstore\n        /* \"#utility.yul\":621:623   */\n      0x20\n        /* \"#utility.yul\":618:619   */\n      dup2\n        /* \"#utility.yul\":614:624   */\n      add\n        /* \"#utility.yul\":609:624   */\n      swap1\n      pop\n        /* \"#utility.yul\":585:698   */\n      jump(tag_117)\n    tag_119:\n        /* \"#utility.yul\":732:733   */\n      0x00\n        /* \"#utility.yul\":723:729   */\n      dup5\n        /* \"#utility.yul\":718:721   */\n      dup5\n        /* \"#utility.yul\":714:730   */\n      add\n        /* \"#utility.yul\":707:734   */\n      mstore\n        /* \"#utility.yul\":556:740   */\n      pop\n        /* \"#utility.yul\":494:740   */\n      pop\n      pop\n      pop\n      jump\t// out\n        /* \"#utility.yul\":746:848   */\n    tag_78:\n        /* \"#utility.yul\":787:793   */\n      0x00\n        /* \"#utility.yul\":838:840   */\n      0x1f\n        /* \"#utility.yul\":834:841   */\n      not\n        /* \"#utility.yul\":829:831   */\n      0x1f\n        /* \"#utility.yul\":822:827   */\n      dup4\n        /* \"#utility.yul\":818:832   */\n      add\n        /* \"#utility.yul\":814:842   */\n      and\n        /* \"#utility.yul\":804:842   */\n      swap1\n      pop\n        /* \"#utility.yul\":746:848   */\n      swap2\n      swap1\n      pop\n      jump\t// out\n        /* \"#utility.yul\":854:1231   */\n    tag_79:\n        /* \"#utility.yul\":942:945   */\n      0x00\n        /* \"#utility.yul\":970:1009   */\n      tag_122\n        /* \"#utility.yul\":1003:1008   */\n      dup3\n        /* \"#utility.yul\":970:1009   */\n      tag_75\n      jump\t// in\n    tag_122:\n        /* \"#utility.yul\":1025:1096   */\n      tag_123\n        /* \"#utility.yul\":1089:1095   */\n      dup2\n        /* \"#utility.yul\":1084:1087   */\n      dup6\n        /* \"#utility.yul\":1025:1096   */\n      tag_76\n      jump\t// in\n    tag_123:\n        /* \"#utility.yul\":1018:1096   */\n      swap4\n      pop\n        /* \"#utility.yul\":1105:1170   */\n      tag_124\n        /* \"#utility.yul\":1163:1169   */\n      dup2\n        /* \"#utility.yul\":1158:1161   */\n      dup6\n        /* \"#utility.yul\":1151:1155   */\n      0x20\n        /* \"#utility.yul\":1144:1149   */\n      dup7\n        /* \"#utility.yul\":1140:1156   */\n      add\n        /* \"#utility.yul\":1105:1170   */\n      tag_77\n      jump\t// in\n    tag_124:\n        /* \"#utility.yul\":1195:1224   */\n      tag_125\n        /* \"#utility.yul\":1217:1223   */\n      dup2\n        /* \"#utility.yul\":1195:1224   */\n      tag_78\n      jump\t// in\n    tag_125:\n        /* \"#utility.yul\":1190:1193   */\n      dup5\n        /* \"#utility.yul\":1186:1225   */\n      add\n        /* \"#utility.yul\":1179:1225   */\n      swap2\n      pop\n        /* \"#utility.yul\":946:1231   */\n      pop\n        /* \"#utility.yul\":854:1231   */\n      swap3\n      swap2\n      pop\n      pop\n      jump\t// out\n        /* \"#utility.yul\":1237:1660   */\n    tag_17:\n        /* \"#utility.yul\":1378:1382   */\n      0x00\n        /* \"#utility.yul\":1416:1418   */\n      0x40\n        /* \"#utility.yul\":1405:1414   */\n      dup3\n        /* \"#utility.yul\":1401:1419   */\n      add\n        /* \"#utility.yul\":1393:1419   */\n      swap1\n      pop\n        /* \"#utility.yul\":1429:1500   */\n      tag_127\n        /* \"#utility.yul\":1497:1498   */\n      0x00\n        /* \"#utility.yul\":1486:1495   */\n      dup4\n        /* \"#utility.yul\":1482:1499   */\n      add\n        /* \"#utility.yul\":1473:1479   */\n      dup6\n        /* \"#utility.yul\":1429:1500   */\n      tag_74\n      jump\t// in\n    tag_127:\n        /* \"#utility.yul\":1547:1556   */\n      dup2\n        /* \"#utility.yul\":1541:1545   */\n      dup2\n        /* \"#utility.yul\":1537:1557   */\n      sub\n        /* \"#utility.yul\":1532:1534   */\n      0x20\n        /* \"#utility.yul\":1521:1530   */\n      dup4\n        /* \"#utility.yul\":1517:1535   */\n      add\n        /* \"#utility.yul\":1510:1558   */\n      mstore\n        /* \"#utility.yul\":1575:1653   */\n      tag_128\n        /* \"#utility.yul\":1648:1652   */\n      dup2\n        /* \"#utility.yul\":1639:1645   */\n      dup5\n        /* \"#utility.yul\":1575:1653   */\n      tag_79\n      jump\t// in\n    tag_128:\n        /* \"#utility.yul\":1567:1653   */\n      swap1\n      pop\n        /* \"#utility.yul\":1237:1660   */\n      swap4\n      swap3\n      pop\n      pop\n      pop\n      jump\t// out\n        /* \"#utility.yul\":1666:1979   */\n    tag_29:\n        /* \"#utility.yul\":1779:1783   */\n      0x00\n        /* \"#utility.yul\":1817:1819   */\n      0x20\n        /* \"#utility.yul\":1806:1815   */\n      dup3\n        /* \"#utility.yul\":1802:1820   */\n      add\n        /* \"#utility.yul\":1794:1820   */\n      swap1\n      pop\n        /* \"#utility.yul\":1866:1875   */\n      dup2\n        /* \"#utility.yul\":1860:1864   */\n      dup2\n        /* \"#utility.yul\":1856:1876   */\n      sub\n        /* \"#utility.yul\":1852:1853   */\n      0x00\n        /* \"#utility.yul\":1841:1850   */\n      dup4\n        /* \"#utility.yul\":1837:1854   */\n      add\n        /* \"#utility.yul\":1830:1877   */\n      mstore\n        /* \"#utility.yul\":1894:1972   */\n      tag_130\n        /* \"#utility.yul\":1967:1971   */\n      dup2\n        /* \"#utility.yul\":1958:1964   */\n      dup5\n        /* \"#utility.yul\":1894:1972   */\n      tag_79\n      jump\t// in\n    tag_130:\n        /* \"#utility.yul\":1886:1972   */\n      swap1\n      pop\n        /* \"#utility.yul\":1666:1979   */\n      swap3\n      swap2\n      pop\n      pop\n      jump\t// out\n        /* \"#utility.yul\":1985:2060   */\n    tag_80:\n        /* \"#utility.yul\":2018:2024   */\n      0x00\n        /* \"#utility.yul\":2051:2053   */\n      0x40\n        /* \"#utility.yul\":2045:2054   */\n      mload\n        /* \"#utility.yul\":2035:2054   */\n      swap1\n      pop\n        /* \"#utility.yul\":1985:2060   */\n      swap1\n      jump\t// out\n        /* \"#utility.yul\":2066:2183   */\n    tag_81:\n        /* \"#utility.yul\":2175:2176   */\n      0x00\n        /* \"#utility.yul\":2172:2173   */\n      dup1\n        /* \"#utility.yul\":2165:2177   */\n      revert\n        /* \"#utility.yul\":2189:2306   */\n    tag_82:\n        /* \"#utility.yul\":2298:2299   */\n      0x00\n        /* \"#utility.yul\":2295:2296   */\n      dup1\n        /* \"#utility.yul\":2288:2300   */\n      revert\n        /* \"#utility.yul\":2312:2429   */\n    tag_83:\n        /* \"#utility.yul\":2421:2422   */\n      0x00\n        /* \"#utility.yul\":2418:2419   */\n      dup1\n        /* \"#utility.yul\":2411:2423   */\n      revert\n        /* \"#utility.yul\":2435:2552   */\n    tag_84:\n        /* \"#utility.yul\":2544:2545   */\n      0x00\n        /* \"#utility.yul\":2541:2542   */\n      dup1\n        /* \"#utility.yul\":2534:2546   */\n      revert\n        /* \"#utility.yul\":2558:2738   */\n    tag_85:\n        /* \"#utility.yul\":2606:2683   */\n      0x4e487b7100000000000000000000000000000000000000000000000000000000\n        /* \"#utility.yul\":2603:2604   */\n      0x00\n        /* \"#utility.yul\":2596:2684   */\n      mstore\n        /* \"#utility.yul\":2703:2707   */\n      0x41\n        /* \"#utility.yul\":2700:2701   */\n      0x04\n        /* \"#utility.yul\":2693:2708   */\n      mstore\n        /* \"#utility.yul\":2727:2731   */\n      0x24\n        /* \"#utility.yul\":2724:2725   */\n      0x00\n        /* \"#utility.yul\":2717:2732   */\n      revert\n        /* \"#utility.yul\":2744:3025   */\n    tag_86:\n        /* \"#utility.yul\":2827:2854   */\n      tag_138\n        /* \"#utility.yul\":2849:2853   */\n      dup3\n        /* \"#utility.yul\":2827:2854   */\n      tag_78\n      jump\t// in\n    tag_138:\n        /* \"#utility.yul\":2819:2825   */\n      dup2\n        /* \"#utility.yul\":2815:2855   */\n      add\n        /* \"#utility.yul\":2957:2963   */\n      dup2\n        /* \"#utility.yul\":2945:2955   */\n      dup2\n        /* \"#utility.yul\":2942:2964   */\n      lt\n        /* \"#utility.yul\":2921:2939   */\n      0xffffffffffffffff\n        /* \"#utility.yul\":2909:2919   */\n      dup3\n        /* \"#utility.yul\":2906:2940   */\n      gt\n        /* \"#utility.yul\":2903:2965   */\n      or\n        /* \"#utility.yul\":2900:2988   */\n      iszero\n      tag_139\n      jumpi\n        /* \"#utility.yul\":2968:2986   */\n      tag_140\n      tag_85\n      jump\t// in\n    tag_140:\n        /* \"#utility.yul\":2900:2988   */\n    tag_139:\n        /* \"#utility.yul\":3008:3018   */\n      dup1\n        /* \"#utility.yul\":3004:3006   */\n      0x40\n        /* \"#utility.yul\":2997:3019   */\n      mstore\n        /* \"#utility.yul\":2787:3025   */\n      pop\n        /* \"#utility.yul\":2744:3025   */\n      pop\n      pop\n      jump\t// out\n        /* \"#utility.yul\":3031:3160   */\n    tag_87:\n        /* \"#utility.yul\":3065:3071   */\n      0x00\n        /* \"#utility.yul\":3092:3112   */\n      tag_142\n      tag_80\n      jump\t// in\n    tag_142:\n        /* \"#utility.yul\":3082:3112   */\n      swap1\n      pop\n        /* \"#utility.yul\":3121:3154   */\n      tag_143\n        /* \"#utility.yul\":3149:3153   */\n      dup3\n        /* \"#utility.yul\":3141:3147   */\n      dup3\n        /* \"#utility.yul\":3121:3154   */\n      tag_86\n      jump\t// in\n    tag_143:\n        /* \"#utility.yul\":3031:3160   */\n      swap2\n      swap1\n      pop\n      jump\t// out\n        /* \"#utility.yul\":3166:3474   */\n    tag_88:\n        /* \"#utility.yul\":3228:3232   */\n      0x00\n        /* \"#utility.yul\":3318:3336   */\n      0xffffffffffffffff\n        /* \"#utility.yul\":3310:3316   */\n      dup3\n        /* \"#utility.yul\":3307:3337   */\n      gt\n        /* \"#utility.yul\":3304:3360   */\n      iszero\n      tag_145\n      jumpi\n        /* \"#utility.yul\":3340:3358   */\n      tag_146\n      tag_85\n      jump\t// in\n    tag_146:\n        /* \"#utility.yul\":3304:3360   */\n    tag_145:\n        /* \"#utility.yul\":3378:3407   */\n      tag_147\n        /* \"#utility.yul\":3400:3406   */\n      dup3\n        /* \"#utility.yul\":3378:3407   */\n      tag_78\n      jump\t// in\n    tag_147:\n        /* \"#utility.yul\":3370:3407   */\n      swap1\n      pop\n        /* \"#utility.yul\":3462:3466   */\n      0x20\n        /* \"#utility.yul\":3456:3460   */\n      dup2\n        /* \"#utility.yul\":3452:3467   */\n      add\n        /* \"#utility.yul\":3444:3467   */\n      swap1\n      pop\n        /* \"#utility.yul\":3166:3474   */\n      swap2\n      swap1\n      pop\n      jump\t// out\n        /* \"#utility.yul\":3480:3626   */\n    tag_89:\n        /* \"#utility.yul\":3577:3583   */\n      dup3\n        /* \"#utility.yul\":3572:3575   */\n      dup2\n        /* \"#utility.yul\":3567:3570   */\n      dup4\n        /* \"#utility.yul\":3554:3584   */\n      calldatacopy\n        /* \"#utility.yul\":3618:3619   */\n      0x00\n        /* \"#utility.yul\":3609:3615   */\n      dup4\n        /* \"#utility.yul\":3604:3607   */\n      dup4\n        /* \"#utility.yul\":3600:3616   */\n      add\n        /* \"#utility.yul\":3593:3620   */\n      mstore\n        /* \"#utility.yul\":3480:3626   */\n      pop\n      pop\n      pop\n      jump\t// out\n        /* \"#utility.yul\":3632:4057   */\n    tag_90:\n        /* \"#utility.yul\":3710:3715   */\n      0x00\n        /* \"#utility.yul\":3735:3801   */\n      tag_150\n        /* \"#utility.yul\":3751:3800   */\n      tag_151\n        /* \"#utility.yul\":3793:3799   */\n      dup5\n        /* \"#utility.yul\":3751:3800   */\n      tag_88\n      jump\t// in\n    tag_151:\n        /* \"#utility.yul\":3735:3801   */\n      tag_87\n      jump\t// in\n    tag_150:\n        /* \"#utility.yul\":3726:3801   */\n      swap1\n      pop\n        /* \"#utility.yul\":3824:3830   */\n      dup3\n        /* \"#utility.yul\":3817:3822   */\n      dup2\n        /* \"#utility.yul\":3810:3831   */\n      mstore\n        /* \"#utility.yul\":3862:3866   */\n      0x20\n        /* \"#utility.yul\":3855:3860   */\n      dup2\n        /* \"#utility.yul\":3851:3867   */\n      add\n        /* \"#utility.yul\":3900:3903   */\n      dup5\n        /* \"#utility.yul\":3891:3897   */\n      dup5\n        /* \"#utility.yul\":3886:3889   */\n      dup5\n        /* \"#utility.yul\":3882:3898   */\n      add\n        /* \"#utility.yul\":3879:3904   */\n      gt\n        /* \"#utility.yul\":3876:3988   */\n      iszero\n      tag_152\n      jumpi\n        /* \"#utility.yul\":3907:3986   */\n      tag_153\n      tag_84\n      jump\t// in\n    tag_153:\n        /* \"#utility.yul\":3876:3988   */\n    tag_152:\n        /* \"#utility.yul\":3997:4051   */\n      tag_154\n        /* \"#utility.yul\":4044:4050   */\n      dup5\n        /* \"#utility.yul\":4039:4042   */\n      dup3\n        /* \"#utility.yul\":4034:4037   */\n      dup6\n        /* \"#utility.yul\":3997:4051   */\n      tag_89\n      jump\t// in\n    tag_154:\n        /* \"#utility.yul\":3716:4057   */\n      pop\n        /* \"#utility.yul\":3632:4057   */\n      swap4\n      swap3\n      pop\n      pop\n      pop\n      jump\t// out\n        /* \"#utility.yul\":4077:4417   */\n    tag_91:\n        /* \"#utility.yul\":4133:4138   */\n      0x00\n        /* \"#utility.yul\":4182:4185   */\n      dup3\n        /* \"#utility.yul\":4175:4179   */\n      0x1f\n        /* \"#utility.yul\":4167:4173   */\n      dup4\n        /* \"#utility.yul\":4163:4180   */\n      add\n        /* \"#utility.yul\":4159:4186   */\n      slt\n        /* \"#utility.yul\":4149:4271   */\n      tag_156\n      jumpi\n        /* \"#utility.yul\":4190:4269   */\n      tag_157\n      tag_83\n      jump\t// in\n    tag_157:\n        /* \"#utility.yul\":4149:4271   */\n    tag_156:\n        /* \"#utility.yul\":4307:4313   */\n      dup2\n        /* \"#utility.yul\":4294:4314   */\n      calldataload\n        /* \"#utility.yul\":4332:4411   */\n      tag_158\n        /* \"#utility.yul\":4407:4410   */\n      dup5\n        /* \"#utility.yul\":4399:4405   */\n      dup3\n        /* \"#utility.yul\":4392:4396   */\n      0x20\n        /* \"#utility.yul\":4384:4390   */\n      dup7\n        /* \"#utility.yul\":4380:4397   */\n      add\n        /* \"#utility.yul\":4332:4411   */\n      tag_90\n      jump\t// in\n    tag_158:\n        /* \"#utility.yul\":4323:4411   */\n      swap2\n      pop\n        /* \"#utility.yul\":4139:4417   */\n      pop\n        /* \"#utility.yul\":4077:4417   */\n      swap3\n      swap2\n      pop\n      pop\n      jump\t// out\n        /* \"#utility.yul\":4423:4932   */\n    tag_32:\n        /* \"#utility.yul\":4492:4498   */\n      0x00\n        /* \"#utility.yul\":4541:4543   */\n      0x20\n        /* \"#utility.yul\":4529:4538   */\n      dup3\n        /* \"#utility.yul\":4520:4527   */\n      dup5\n        /* \"#utility.yul\":4516:4539   */\n      sub\n        /* \"#utility.yul\":4512:4544   */\n      slt\n        /* \"#utility.yul\":4509:4628   */\n      iszero\n      tag_160\n      jumpi\n        /* \"#utility.yul\":4547:4626   */\n      tag_161\n      tag_81\n      jump\t// in\n    tag_161:\n        /* \"#utility.yul\":4509:4628   */\n    tag_160:\n        /* \"#utility.yul\":4695:4696   */\n      0x00\n        /* \"#utility.yul\":4684:4693   */\n      dup3\n        /* \"#utility.yul\":4680:4697   */\n      add\n        /* \"#utility.yul\":4667:4698   */\n      calldataload\n        /* \"#utility.yul\":4725:4743   */\n      0xffffffffffffffff\n        /* \"#utility.yul\":4717:4723   */\n      dup2\n        /* \"#utility.yul\":4714:4744   */\n      gt\n        /* \"#utility.yul\":4711:4828   */\n      iszero\n      tag_162\n      jumpi\n        /* \"#utility.yul\":4747:4826   */\n      tag_163\n      tag_82\n      jump\t// in\n    tag_163:\n        /* \"#utility.yul\":4711:4828   */\n    tag_162:\n        /* \"#utility.yul\":4852:4915   */\n      tag_164\n        /* \"#utility.yul\":4907:4914   */\n      dup5\n        /* \"#utility.yul\":4898:4904   */\n      dup3\n        /* \"#utility.yul\":4887:4896   */\n      dup6\n        /* \"#utility.yul\":4883:4905   */\n      add\n        /* \"#utility.yul\":4852:4915   */\n      tag_91\n      jump\t// in\n    tag_164:\n        /* \"#utility.yul\":4842:4915   */\n      swap2\n      pop\n        /* \"#utility.yul\":4638:4925   */\n      pop\n        /* \"#utility.yul\":4423:4932   */\n      swap3\n      swap2\n      pop\n      pop\n      jump\t// out\n        /* \"#utility.yul\":4938:5160   */\n    tag_37:\n        /* \"#utility.yul\":5031:5035   */\n      0x00\n        /* \"#utility.yul\":5069:5071   */\n      0x20\n        /* \"#utility.yul\":5058:5067   */\n      dup3\n        /* \"#utility.yul\":5054:5072   */\n      add\n        /* \"#utility.yul\":5046:5072   */\n      swap1\n      pop\n        /* \"#utility.yul\":5082:5153   */\n      tag_166\n        /* \"#utility.yul\":5150:5151   */\n      0x00\n        /* \"#utility.yul\":5139:5148   */\n      dup4\n        /* \"#utility.yul\":5135:5152   */\n      add\n        /* \"#utility.yul\":5126:5132   */\n      dup5\n        /* \"#utility.yul\":5082:5153   */\n      tag_74\n      jump\t// in\n    tag_166:\n        /* \"#utility.yul\":4938:5160   */\n      swap3\n      swap2\n      pop\n      pop\n      jump\t// out\n        /* \"#utility.yul\":5166:5288   */\n    tag_92:\n        /* \"#utility.yul\":5239:5263   */\n      tag_168\n        /* \"#utility.yul\":5257:5262   */\n      dup2\n        /* \"#utility.yul\":5239:5263   */\n      tag_73\n      jump\t// in\n    tag_168:\n        /* \"#utility.yul\":5232:5237   */\n      dup2\n        /* \"#utility.yul\":5229:5264   */\n      eq\n        /* \"#utility.yul\":5219:5282   */\n      tag_169\n      jumpi\n        /* \"#utility.yul\":5278:5279   */\n      0x00\n        /* \"#utility.yul\":5275:5276   */\n      dup1\n        /* \"#utility.yul\":5268:5280   */\n      revert\n        /* \"#utility.yul\":5219:5282   */\n    tag_169:\n        /* \"#utility.yul\":5166:5288   */\n      pop\n      jump\t// out\n        /* \"#utility.yul\":5294:5433   */\n    tag_93:\n        /* \"#utility.yul\":5340:5345   */\n      0x00\n        /* \"#utility.yul\":5378:5384   */\n      dup2\n        /* \"#utility.yul\":5365:5385   */\n      calldataload\n        /* \"#utility.yul\":5356:5385   */\n      swap1\n      pop\n        /* \"#utility.yul\":5394:5427   */\n      tag_171\n        /* \"#utility.yul\":5421:5426   */\n      dup2\n        /* \"#utility.yul\":5394:5427   */\n      tag_92\n      jump\t// in\n    tag_171:\n        /* \"#utility.yul\":5294:5433   */\n      swap3\n      swap2\n      pop\n      pop\n      jump\t// out\n        /* \"#utility.yul\":5439:6093   */\n    tag_40:\n        /* \"#utility.yul\":5517:5523   */\n      0x00\n        /* \"#utility.yul\":5525:5531   */\n      dup1\n        /* \"#utility.yul\":5574:5576   */\n      0x40\n        /* \"#utility.yul\":5562:5571   */\n      dup4\n        /* \"#utility.yul\":5553:5560   */\n      dup6\n        /* \"#utility.yul\":5549:5572   */\n      sub\n        /* \"#utility.yul\":5545:5577   */\n      slt\n        /* \"#utility.yul\":5542:5661   */\n      iszero\n      tag_173\n      jumpi\n        /* \"#utility.yul\":5580:5659   */\n      tag_174\n      tag_81\n      jump\t// in\n    tag_174:\n        /* \"#utility.yul\":5542:5661   */\n    tag_173:\n        /* \"#utility.yul\":5700:5701   */\n      0x00\n        /* \"#utility.yul\":5725:5778   */\n      tag_175\n        /* \"#utility.yul\":5770:5777   */\n      dup6\n        /* \"#utility.yul\":5761:5767   */\n      dup3\n        /* \"#utility.yul\":5750:5759   */\n      dup7\n        /* \"#utility.yul\":5746:5768   */\n      add\n        /* \"#utility.yul\":5725:5778   */\n      tag_93\n      jump\t// in\n    tag_175:\n        /* \"#utility.yul\":5715:5778   */\n      swap3\n      pop\n        /* \"#utility.yul\":5671:5788   */\n      pop\n        /* \"#utility.yul\":5855:5857   */\n      0x20\n        /* \"#utility.yul\":5844:5853   */\n      dup4\n        /* \"#utility.yul\":5840:5858   */\n      add\n        /* \"#utility.yul\":5827:5859   */\n      calldataload\n        /* \"#utility.yul\":5886:5904   */\n      0xffffffffffffffff\n        /* \"#utility.yul\":5878:5884   */\n      dup2\n        /* \"#utility.yul\":5875:5905   */\n      gt\n        /* \"#utility.yul\":5872:5989   */\n      iszero\n      tag_176\n      jumpi\n        /* \"#utility.yul\":5908:5987   */\n      tag_177\n      tag_82\n      jump\t// in\n    tag_177:\n        /* \"#utility.yul\":5872:5989   */\n    tag_176:\n        /* \"#utility.yul\":6013:6076   */\n      tag_178\n        /* \"#utility.yul\":6068:6075   */\n      dup6\n        /* \"#utility.yul\":6059:6065   */\n      dup3\n        /* \"#utility.yul\":6048:6057   */\n      dup7\n        /* \"#utility.yul\":6044:6066   */\n      add\n        /* \"#utility.yul\":6013:6076   */\n      tag_91\n      jump\t// in\n    tag_178:\n        /* \"#utility.yul\":6003:6076   */\n      swap2\n      pop\n        /* \"#utility.yul\":5798:6086   */\n      pop\n        /* \"#utility.yul\":5439:6093   */\n      swap3\n      pop\n      swap3\n      swap1\n      pop\n      jump\t// out\n        /* \"#utility.yul\":6099:6428   */\n    tag_44:\n        /* \"#utility.yul\":6158:6164   */\n      0x00\n        /* \"#utility.yul\":6207:6209   */\n      0x20\n        /* \"#utility.yul\":6195:6204   */\n      dup3\n        /* \"#utility.yul\":6186:6193   */\n      dup5\n        /* \"#utility.yul\":6182:6205   */\n      sub\n        /* \"#utility.yul\":6178:6210   */\n      slt\n        /* \"#utility.yul\":6175:6294   */\n      iszero\n      tag_180\n      jumpi\n        /* \"#utility.yul\":6213:6292   */\n      tag_181\n      tag_81\n      jump\t// in\n    tag_181:\n        /* \"#utility.yul\":6175:6294   */\n    tag_180:\n        /* \"#utility.yul\":6333:6334   */\n      0x00\n        /* \"#utility.yul\":6358:6411   */\n      tag_182\n        /* \"#utility.yul\":6403:6410   */\n      dup5\n        /* \"#utility.yul\":6394:6400   */\n      dup3\n        /* \"#utility.yul\":6383:6392   */\n      dup6\n        /* \"#utility.yul\":6379:6401   */\n      add\n        /* \"#utility.yul\":6358:6411   */\n      tag_93\n      jump\t// in\n    tag_182:\n        /* \"#utility.yul\":6348:6411   */\n      swap2\n      pop\n        /* \"#utility.yul\":6304:6421   */\n      pop\n        /* \"#utility.yul\":6099:6428   */\n      swap3\n      swap2\n      pop\n      pop\n      jump\t// out\n        /* \"#utility.yul\":6434:6614   */\n    tag_94:\n        /* \"#utility.yul\":6482:6559   */\n      0x4e487b7100000000000000000000000000000000000000000000000000000000\n        /* \"#utility.yul\":6479:6480   */\n      0x00\n        /* \"#utility.yul\":6472:6560   */\n      mstore\n        /* \"#utility.yul\":6579:6583   */\n      0x22\n        /* \"#utility.yul\":6576:6577   */\n      0x04\n        /* \"#utility.yul\":6569:6584   */\n      mstore\n        /* \"#utility.yul\":6603:6607   */\n      0x24\n        /* \"#utility.yul\":6600:6601   */\n      0x00\n        /* \"#utility.yul\":6593:6608   */\n      revert\n        /* \"#utility.yul\":6620:6940   */\n    tag_48:\n        /* \"#utility.yul\":6664:6670   */\n      0x00\n        /* \"#utility.yul\":6701:6702   */\n      0x02\n        /* \"#utility.yul\":6695:6699   */\n      dup3\n        /* \"#utility.yul\":6691:6703   */\n      div\n        /* \"#utility.yul\":6681:6703   */\n      swap1\n      pop\n        /* \"#utility.yul\":6748:6749   */\n      0x01\n        /* \"#utility.yul\":6742:6746   */\n      dup3\n        /* \"#utility.yul\":6738:6750   */\n      and\n        /* \"#utility.yul\":6769:6787   */\n      dup1\n        /* \"#utility.yul\":6759:6840   */\n      tag_185\n      jumpi\n        /* \"#utility.yul\":6825:6829   */\n      0x7f\n        /* \"#utility.yul\":6817:6823   */\n      dup3\n        /* \"#utility.yul\":6813:6830   */\n      and\n        /* \"#utility.yul\":6803:6830   */\n      swap2\n      pop\n        /* \"#utility.yul\":6759:6840   */\n    tag_185:\n        /* \"#utility.yul\":6887:6889   */\n      0x20\n        /* \"#utility.yul\":6879:6885   */\n      dup3\n        /* \"#utility.yul\":6876:6890   */\n      lt\n        /* \"#utility.yul\":6856:6874   */\n      dup2\n        /* \"#utility.yul\":6853:6891   */\n      sub\n        /* \"#utility.yul\":6850:6934   */\n      tag_186\n      jumpi\n        /* \"#utility.yul\":6906:6924   */\n      tag_187\n      tag_94\n      jump\t// in\n    tag_187:\n        /* \"#utility.yul\":6850:6934   */\n    tag_186:\n        /* \"#utility.yul\":6671:6940   */\n      pop\n        /* \"#utility.yul\":6620:6940   */\n      swap2\n      swap1\n      pop\n      jump\t// out\n        /* \"#utility.yul\":6946:7087   */\n    tag_95:\n        /* \"#utility.yul\":6995:6999   */\n      0x00\n        /* \"#utility.yul\":7018:7021   */\n      dup2\n        /* \"#utility.yul\":7010:7021   */\n      swap1\n      pop\n        /* \"#utility.yul\":7041:7044   */\n      dup2\n        /* \"#utility.yul\":7038:7039   */\n      0x00\n        /* \"#utility.yul\":7031:7045   */\n      mstore\n        /* \"#utility.yul\":7075:7079   */\n      0x20\n        /* \"#utility.yul\":7072:7073   */\n      0x00\n        /* \"#utility.yul\":7062:7080   */\n      keccak256\n        /* \"#utility.yul\":7054:7080   */\n      swap1\n      pop\n        /* \"#utility.yul\":6946:7087   */\n      swap2\n      swap1\n      pop\n      jump\t// out\n        /* \"#utility.yul\":7093:7186   */\n    tag_96:\n        /* \"#utility.yul\":7130:7136   */\n      0x00\n        /* \"#utility.yul\":7177:7179   */\n      0x20\n        /* \"#utility.yul\":7172:7174   */\n      0x1f\n        /* \"#utility.yul\":7165:7170   */\n      dup4\n        /* \"#utility.yul\":7161:7175   */\n      add\n        /* \"#utility.yul\":7157:7180   */\n      div\n        /* \"#utility.yul\":7147:7180   */\n      swap1\n      pop\n        /* \"#utility.yul\":7093:7186   */\n      swap2\n      swap1\n      pop\n      jump\t// out\n        /* \"#utility.yul\":7192:7299   */\n    tag_97:\n        /* \"#utility.yul\":7236:7244   */\n      0x00\n        /* \"#utility.yul\":7286:7291   */\n      dup3\n        /* \"#utility.yul\":7280:7284   */\n      dup3\n        /* \"#utility.yul\":7276:7292   */\n      shl\n        /* \"#utility.yul\":7255:7292   */\n      swap1\n      pop\n        /* \"#utility.yul\":7192:7299   */\n      swap3\n      swap2\n      pop\n      pop\n      jump\t// out\n        /* \"#utility.yul\":7305:7698   */\n    tag_98:\n        /* \"#utility.yul\":7374:7380   */\n      0x00\n        /* \"#utility.yul\":7424:7425   */\n      0x08\n        /* \"#utility.yul\":7412:7422   */\n      dup4\n        /* \"#utility.yul\":7408:7426   */\n      mul\n        /* \"#utility.yul\":7447:7544   */\n      tag_192\n        /* \"#utility.yul\":7477:7543   */\n      0xffffffffffffffffffffffffffffffffffffffffffffffffffffffffffffffff\n        /* \"#utility.yul\":7466:7475   */\n      dup3\n        /* \"#utility.yul\":7447:7544   */\n      tag_97\n      jump\t// in\n    tag_192:\n        /* \"#utility.yul\":7565:7604   */\n      tag_193\n        /* \"#utility.yul\":7595:7603   */\n      dup7\n        /* \"#utility.yul\":7584:7593   */\n      dup4\n        /* \"#utility.yul\":7565:7604   */\n      tag_97\n      jump\t// in\n    tag_193:\n        /* \"#utility.yul\":7553:7604   */\n      swap6\n      pop\n        /* \"#utility.yul\":7637:7641   */\n      dup1\n        /* \"#utility.yul\":7633:7642   */\n      not\n        /* \"#utility.yul\":7626:7631   */\n      dup5\n        /* \"#utility.yul\":7622:7643   */\n      and\n        /* \"#utility.yul\":7613:7643   */\n      swap4\n      pop\n        /* \"#utility.yul\":7686:7690   */\n      dup1\n        /* \"#utility.yul\":7676:7684   */\n      dup7\n        /* \"#utility.yul\":7672:7691   */\n      and\n        /* \"#utility.yul\":7665:7670   */\n      dup5\n        /* \"#utility.yul\":7662:7692   */\n      or\n        /* \"#utility.yul\":7652:7692   */\n      swap3\n      pop\n        /* \"#utility.yul\":7381:7698   */\n      pop\n      pop\n        /* \"#utility.yul\":7305:7698   */\n      swap4\n      swap3\n      pop\n      pop\n      pop\n      jump\t// out\n        /* \"#utility.yul\":7704:7764   */\n    tag_99:\n        /* \"#utility.yul\":7732:7735   */\n      0x00\n        /* \"#utility.yul\":7753:7758   */\n      dup2\n        /* \"#utility.yul\":7746:7758   */\n      swap1\n      pop\n        /* \"#utility.yul\":7704:7764   */\n      swap2\n      swap1\n      pop\n      jump\t// out\n        /* \"#utility.yul\":7770:7912   */\n    tag_100:\n        /* \"#utility.yul\":7820:7829   */\n      0x00\n        /* \"#utility.yul\":7853:7906   */\n      tag_196\n        /* \"#utility.yul\":7871:7905   */\n      tag_197\n        /* \"#utility.yul\":7880:7904   */\n      tag_198\n        /* \"#utility.yul\":7898:7903   */\n      dup5\n        /* \"#utility.yul\":7880:7904   */\n      tag_73\n      jump\t// in\n    tag_198:\n        /* \"#utility.yul\":7871:7905   */\n      tag_99\n      jump\t// in\n    tag_197:\n        /* \"#utility.yul\":7853:7906   */\n      tag_73\n      jump\t// in\n    tag_196:\n        /* \"#utility.yul\":7840:7906   */\n      swap1\n      pop\n        /* \"#utility.yul\":7770:7912   */\n      swap2\n      swap1\n      pop\n      jump\t// out\n        /* \"#utility.yul\":7918:7993   */\n    tag_101:\n        /* \"#utility.yul\":7961:7964   */\n      0x00\n        /* \"#utility.yul\":7982:7987   */\n      dup2\n        /* \"#utility.yul\":7975:7987   */\n      swap1\n      pop\n        /* \"#utility.yul\":7918:7993   */\n      swap2\n      swap1\n      pop\n      jump\t// out\n        /* \"#utility.yul\":7999:8268   */\n    tag_102:\n        /* \"#utility.yul\":8109:8148   */\n      tag_201\n        /* \"#utility.yul\":8140:8147   */\n      dup4\n        /* \"#utility.yul\":8109:8148   */\n      tag_100\n      jump\t// in\n    tag_201:\n        /* \"#utility.yul\":8170:8261   */\n      tag_202\n        /* \"#utility.yul\":8219:8260   */\n      tag_203\n        /* \"#utility.yul\":8243:8259   */\n      dup3\n        /* \"#utility.yul\":8219:8260   */\n      tag_101\n      jump\t// in\n    tag_203:\n        /* \"#utility.yul\":8211:8217   */\n      dup5\n        /* \"#utility.yul\":8204:8208   */\n      dup5\n        /* \"#utility.yul\":8198:8209   */\n      sload\n        /* \"#utility.yul\":8170:8261   */\n      tag_98\n      jump\t// in\n    tag_202:\n        /* \"#utility.yul\":8164:8168   */\n      dup3\n        /* \"#utility.yul\":8157:8262   */\n      sstore\n        /* \"#utility.yul\":8075:8268   */\n      pop\n        /* \"#utility.yul\":7999:8268   */\n      pop\n      pop\n      pop\n      jump\t// out\n        /* \"#utility.yul\":8274:8347   */\n    tag_103:\n        /* \"#utility.yul\":8319:8322   */\n      0x00\n        /* \"#utility.yul\":8274:8347   */\n      swap1\n      jump\t// out\n        /* \"#utility.yul\":8353:8542   */\n    tag_104:\n        /* \"#utility.yul\":8430:8462   */\n      tag_206\n      tag_103\n      jump\t// in\n    tag_206:\n        /* \"#utility.yul\":8471:8536   */\n      tag_207\n        /* \"#utility.yul\":8529:8535   */\n      dup2\n        /* \"#utility.yul\":8521:8527   */\n      dup5\n        /* \"#utility.yul\":8515:8519   */\n      dup5\n        /* \"#utility.yul\":8471:8536   */\n      tag_102\n      jump\t// in\n    tag_207:\n        /* \"#utility.yul\":8406:8542   */\n      pop\n        /* \"#utility.yul\":8353:8542   */\n      pop\n      pop\n      jump\t// out\n        /* \"#utility.yul\":8548:8734   */\n    tag_105:\n        /* \"#utility.yul\":8608:8728   */\n    tag_209:\n        /* \"#utility.yul\":8625:8628   */\n      dup2\n        /* \"#utility.yul\":8618:8623   */\n      dup2\n        /* \"#utility.yul\":8615:8629   */\n      lt\n        /* \"#utility.yul\":8608:8728   */\n      iszero\n      tag_211\n      jumpi\n        /* \"#utility.yul\":8679:8718   */\n      tag_212\n        /* \"#utility.yul\":8716:8717   */\n      0x00\n        /* \"#utility.yul\":8709:8714   */\n      dup3\n        /* \"#utility.yul\":8679:8718   */\n      tag_104\n      jump\t// in\n    tag_212:\n        /* \"#utility.yul\":8652:8653   */\n      0x01\n        /* \"#utility.yul\":8645:8650   */\n      dup2\n        /* \"#utility.yul\":8641:8654   */\n      add\n        /* \"#utility.yul\":8632:8654   */\n      swap1\n      pop\n        /* \"#utility.yul\":8608:8728   */\n      jump(tag_209)\n    tag_211:\n        /* \"#utility.yul\":8548:8734   */\n      pop\n      pop\n      jump\t// out\n        /* \"#utility.yul\":8740:9283   */\n    tag_106:\n        /* \"#utility.yul\":8841:8843   */\n      0x1f\n        /* \"#utility.yul\":8836:8839   */\n      dup3\n        /* \"#utility.yul\":8833:8844   */\n      gt\n        /* \"#utility.yul\":8830:9276   */\n      iszero\n      tag_214\n      jumpi\n        /* \"#utility.yul\":8875:8913   */\n      tag_215\n        /* \"#utility.yul\":8907:8912   */\n      dup2\n        /* \"#utility.yul\":8875:8913   */\n      tag_95\n      jump\t// in\n    tag_215:\n        /* \"#utility.yul\":8959:8988   */\n      tag_216\n        /* \"#utility.yul\":8977:8987   */\n      dup5\n        /* \"#utility.yul\":8959:8988   */\n      tag_96\n      jump\t// in\n    tag_216:\n        /* \"#utility.yul\":8949:8957   */\n      dup2\n        /* \"#utility.yul\":8945:8989   */\n      add\n        /* \"#utility.yul\":9142:9144   */\n      0x20\n        /* \"#utility.yul\":9130:9140   */\n      dup6\n        /* \"#utility.yul\":9127:9145   */\n      lt\n        /* \"#utility.yul\":9124:9173   */\n      iszero\n      tag_217\n      jumpi\n        /* \"#utility.yul\":9163:9171   */\n      dup2\n        /* \"#utility.yul\":9148:9171   */\n      swap1\n      pop\n        /* \"#utility.yul\":9124:9173   */\n    tag_217:\n        /* \"#utility.yul\":9186:9266   */\n      tag_218\n        /* \"#utility.yul\":9242:9264   */\n      tag_219\n        /* \"#utility.yul\":9260:9263   */\n      dup6\n        /* \"#utility.yul\":9242:9264   */\n      tag_96\n      jump\t// in\n    tag_219:\n        /* \"#utility.yul\":9232:9240   */\n      dup4\n        /* \"#utility.yul\":9228:9265   */\n      add\n        /* \"#utility.yul\":9215:9226   */\n      dup3\n        /* \"#utility.yul\":9186:9266   */\n      tag_105\n      jump\t// in\n    tag_218:\n        /* \"#utility.yul\":8845:9276   */\n      pop\n      pop\n        /* \"#utility.yul\":8830:9276   */\n    tag_214:\n        /* \"#utility.yul\":8740:9283   */\n      pop\n      pop\n      pop\n      jump\t// out\n        /* \"#utility.yul\":9289:9406   */\n    tag_107:\n        /* \"#utility.yul\":9343:9351   */\n      0x00\n        /* \"#utility.yul\":9393:9398   */\n      dup3\n        /* \"#utility.yul\":9387:9391   */\n      dup3\n        /* \"#utility.yul\":9383:9399   */\n      shr\n        /* \"#utility.yul\":9362:9399   */\n      swap1\n      pop\n        /* \"#utility.yul\":9289:9406   */\n      swap3\n      swap2\n      pop\n      pop\n      jump\t// out\n        /* \"#utility.yul\":9412:9581   */\n    tag_108:\n        /* \"#utility.yul\":9456:9462   */\n      0x00\n        /* \"#utility.yul\":9489:9540   */\n      tag_222\n        /* \"#utility.yul\":9537:9538   */\n      0x00\n        /* \"#utility.yul\":9533:9539   */\n      not\n        /* \"#utility.yul\":9525:9530   */\n      dup5\n        /* \"#utility.yul\":9522:9523   */\n      0x08\n        /* \"#utility.yul\":9518:9531   */\n      mul\n        /* \"#utility.yul\":9489:9540   */\n      tag_107\n      jump\t// in\n    tag_222:\n        /* \"#utility.yul\":9485:9541   */\n      not\n        /* \"#utility.yul\":9570:9574   */\n      dup1\n        /* \"#utility.yul\":9564:9568   */\n      dup4\n        /* \"#utility.yul\":9560:9575   */\n      and\n        /* \"#utility.yul\":9550:9575   */\n      swap2\n      pop\n        /* \"#utility.yul\":9463:9581   */\n      pop\n        /* \"#utility.yul\":9412:9581   */\n      swap3\n      swap2\n      pop\n      pop\n      jump\t// out\n        /* \"#utility.yul\":9586:9881   */\n    tag_109:\n        /* \"#utility.yul\":9662:9666   */\n      0x00\n        /* \"#utility.yul\":9808:9837   */\n      tag_224\n        /* \"#utility.yul\":9833:9836   */\n      dup4\n        /* \"#utility.yul\":9827:9831   */\n      dup4\n        /* \"#utility.yul\":9808:9837   */\n      tag_108\n      jump\t// in\n    tag_224:\n        /* \"#utility.yul\":9800:9837   */\n      swap2\n      pop\n        /* \"#utility.yul\":9870:9873   */\n      dup3\n        /* \"#utility.yul\":9867:9868   */\n      0x02\n        /* \"#utility.yul\":9863:9874   */\n      mul\n        /* \"#utility.yul\":9857:9861   */\n      dup3\n        /* \"#utility.yul\":9854:9875   */\n      or\n        /* \"#utility.yul\":9846:9875   */\n      swap1\n      pop\n        /* \"#utility.yul\":9586:9881   */\n      swap3\n      swap2\n      pop\n      pop\n      jump\t// out\n        /* \"#utility.yul\":9886:11281   */\n    tag_55:\n        /* \"#utility.yul\":10003:10040   */\n      tag_226\n        /* \"#utility.yul\":10036:10039   */\n      dup3\n        /* \"#utility.yul\":10003:10040   */\n      tag_75\n      jump\t// in\n    tag_226:\n        /* \"#utility.yul\":10105:10123   */\n      0xffffffffffffffff\n        /* \"#utility.yul\":10097:10103   */\n      dup2\n        /* \"#utility.yul\":10094:10124   */\n      gt\n        /* \"#utility.yul\":10091:10147   */\n      iszero\n      tag_227\n      jumpi\n        /* \"#utility.yul\":10127:10145   */\n      tag_228\n      tag_85\n      jump\t// in\n    tag_228:\n        /* \"#utility.yul\":10091:10147   */\n    tag_227:\n        /* \"#utility.yul\":10171:10209   */\n      tag_229\n        /* \"#utility.yul\":10203:10207   */\n      dup3\n        /* \"#utility.yul\":10197:10208   */\n      sload\n        /* \"#utility.yul\":10171:10209   */\n      tag_48\n      jump\t// in\n    tag_229:\n        /* \"#utility.yul\":10256:10323   */\n      tag_230\n        /* \"#utility.yul\":10316:10322   */\n      dup3\n        /* \"#utility.yul\":10308:10314   */\n      dup3\n        /* \"#utility.yul\":10302:10306   */\n      dup6\n        /* \"#utility.yul\":10256:10323   */\n      tag_106\n      jump\t// in\n    tag_230:\n        /* \"#utility.yul\":10350:10351   */\n      0x00\n        /* \"#utility.yul\":10374:10378   */\n      0x20\n        /* \"#utility.yul\":10361:10378   */\n      swap1\n      pop\n        /* \"#utility.yul\":10406:10408   */\n      0x1f\n        /* \"#utility.yul\":10398:10404   */\n      dup4\n        /* \"#utility.yul\":10395:10409   */\n      gt\n        /* \"#utility.yul\":10423:10424   */\n      0x01\n        /* \"#utility.yul\":10418:11036   */\n      dup2\n      eq\n      tag_232\n      jumpi\n        /* \"#utility.yul\":11080:11081   */\n      0x00\n        /* \"#utility.yul\":11097:11103   */\n      dup5\n        /* \"#utility.yul\":11094:11171   */\n      iszero\n      tag_233\n      jumpi\n        /* \"#utility.yul\":11146:11155   */\n      dup3\n        /* \"#utility.yul\":11141:11144   */\n      dup8\n        /* \"#utility.yul\":11137:11156   */\n      add\n        /* \"#utility.yul\":11131:11157   */\n      mload\n        /* \"#utility.yul\":11122:11157   */\n      swap1\n      pop\n        /* \"#utility.yul\":11094:11171   */\n    tag_233:\n        /* \"#utility.yul\":11197:11264   */\n      tag_234\n        /* \"#utility.yul\":11257:11263   */\n      dup6\n        /* \"#utility.yul\":11250:11255   */\n      dup3\n        /* \"#utility.yul\":11197:11264   */\n      tag_109\n      jump\t// in\n    tag_234:\n        /* \"#utility.yul\":11191:11195   */\n      dup7\n        /* \"#utility.yul\":11184:11265   */\n      sstore\n        /* \"#utility.yul\":11053:11275   */\n      pop\n        /* \"#utility.yul\":10388:11275   */\n      jump(tag_231)\n        /* \"#utility.yul\":10418:11036   */\n    tag_232:\n        /* \"#utility.yul\":10470:10474   */\n      0x1f\n        /* \"#utility.yul\":10466:10475   */\n      not\n        /* \"#utility.yul\":10458:10464   */\n      dup5\n        /* \"#utility.yul\":10454:10476   */\n      and\n        /* \"#utility.yul\":10504:10541   */\n      tag_235\n        /* \"#utility.yul\":10536:10540   */\n      dup7\n        /* \"#utility.yul\":10504:10541   */\n      tag_95\n      jump\t// in\n    tag_235:\n        /* \"#utility.yul\":10563:10564   */\n      0x00\n        /* \"#utility.yul\":10577:10785   */\n    tag_236:\n        /* \"#utility.yul\":10591:10598   */\n      dup3\n        /* \"#utility.yul\":10588:10589   */\n      dup2\n        /* \"#utility.yul\":10585:10599   */\n      lt\n        /* \"#utility.yul\":10577:10785   */\n      iszero\n      tag_238\n      jumpi\n        /* \"#utility.yul\":10670:10679   */\n      dup5\n        /* \"#utility.yul\":10665:10668   */\n      dup10\n        /* \"#utility.yul\":10661:10680   */\n      add\n        /* \"#utility.yul\":10655:10681   */\n      mload\n        /* \"#utility.yul\":10647:10653   */\n      dup3\n        /* \"#utility.yul\":10640:10682   */\n      sstore\n        /* \"#utility.yul\":10721:10722   */\n      0x01\n        /* \"#utility.yul\":10713:10719   */\n      dup3\n        /* \"#utility.yul\":10709:10723   */\n      add\n        /* \"#utility.yul\":10699:10723   */\n      swap2\n      pop\n        /* \"#utility.yul\":10768:10770   */\n      0x20\n        /* \"#utility.yul\":10757:10766   */\n      dup6\n        /* \"#utility.yul\":10753:10771   */\n      add\n        /* \"#utility.yul\":10740:10771   */\n      swap5\n      pop\n        /* \"#utility.yul\":10614:10618   */\n      0x20\n        /* \"#utility.yul\":10611:10612   */\n      dup2\n        /* \"#utility.yul\":10607:10619   */\n      add\n        /* \"#utility.yul\":10602:10619   */\n      swap1\n      pop\n        /* \"#utility.yul\":10577:10785   */\n      jump(tag_236)\n    tag_238:\n        /* \"#utility.yul\":10813:10819   */\n      dup7\n        /* \"#utility.yul\":10804:10811   */\n      dup4\n        /* \"#utility.yul\":10801:10820   */\n      lt\n        /* \"#utility.yul\":10798:10977   */\n      iszero\n      tag_239\n      jumpi\n        /* \"#utility.yul\":10871:10880   */\n      dup5\n        /* \"#utility.yul\":10866:10869   */\n      dup10\n        /* \"#utility.yul\":10862:10881   */\n      add\n        /* \"#utility.yul\":10856:10882   */\n      mload\n        /* \"#utility.yul\":10914:10962   */\n      tag_240\n        /* \"#utility.yul\":10956:10960   */\n      0x1f\n        /* \"#utility.yul\":10948:10954   */\n      dup10\n        /* \"#utility.yul\":10944:10961   */\n      and\n        /* \"#utility.yul\":10933:10942   */\n      dup3\n        /* \"#utility.yul\":10914:10962   */\n      tag_108\n      jump\t// in\n    tag_240:\n        /* \"#utility.yul\":10906:10912   */\n      dup4\n        /* \"#utility.yul\":10899:10963   */\n      sstore\n        /* \"#utility.yul\":10821:10977   */\n      pop\n        /* \"#utility.yul\":10798:10977   */\n    tag_239:\n        /* \"#utility.yul\":11023:11024   */\n      0x01\n        /* \"#utility.yul\":11019:11020   */\n      0x02\n        /* \"#utility.yul\":11011:11017   */\n      dup9\n        /* \"#utility.yul\":11007:11021   */\n      mul\n        /* \"#utility.yul\":11003:11025   */\n      add\n        /* \"#utility.yul\":10997:11001   */\n      dup9\n        /* \"#utility.yul\":10990:11026   */\n      sstore\n        /* \"#utility.yul\":10425:11036   */\n      pop\n      pop\n      pop\n        /* \"#utility.yul\":10388:11275   */\n    tag_231:\n      pop\n        /* \"#utility.yul\":9978:11281   */\n      pop\n      pop\n      pop\n        /* \"#utility.yul\":9886:11281   */\n      pop\n      pop\n      jump\t// out\n\n    auxdata: 0xa26469706673582212205bba5797688f4c7dfb0aad44a86f826011d132adfd5fb70555ca8ff86148746664736f6c63430008120033\n}\n",
				"bytecode": {
					"linkReferences": {},
					"object": "608060405234801561001057600080fd5b50610a3a806100206000396000f3fe608060405234801561001057600080fd5b506004361061009e5760003560e01c8063a1c5191511610066578063a1c51915146100ea578063b5e7bc6014610108578063d46300fd14610124578063dea76b7914610142578063ee919d501461015e5761009e565b80632b06cb2d146100a35780635e448e16146100c257806371c59316146100cc5780637a72b903146100d65780639b36f8da146100e0575b600080fd5b6100ab61017a565b6040516100b9929190610472565b60405180910390f35b6100ca610217565b005b6100d461025e565b005b6100de6102a5565b005b6100e86102af565b005b6100f26102f6565b6040516100ff91906104a2565b60405180910390f35b610122600480360381019061011d919061060d565b610388565b005b61012c61039b565b6040516101399190610656565b60405180910390f35b61015c6004803603810190610157919061069d565b6103a4565b005b610178600480360381019061017391906106f9565b6103bf565b005b60006060600054600180805461018f90610755565b80601f01602080910402602001604051908101604052809291908181526020018280546101bb90610755565b80156102085780601f106101dd57610100808354040283529160200191610208565b820191906000526020600020905b8154815290600101906020018083116101eb57829003601f168201915b50505050509050915091509091565b6040518060400160405280600181526020017f43000000000000000000000000000000000000000000000000000000000000008152506001908161025b9190610932565b50565b6040518060400160405280600381526020017f6162630000000000000000000000000000000000000000000000000000000000815250600190816102a29190610932565b50565b6005600081905550565b6040518060400160405280600181526020017f6300000000000000000000000000000000000000000000000000000000000000815250600190816102f39190610932565b50565b60606001805461030590610755565b80601f016020809104026020016040519081016040528092919081815260200182805461033190610755565b801561037e5780601f106103535761010080835404028352916020019161037e565b820191906000526020600020905b81548152906001019060200180831161036157829003601f168201915b5050505050905090565b80600190816103979190610932565b5050565b60008054905090565b8160008190555080600190816103ba9190610932565b505050565b8060008190555050565b6000819050919050565b6103dc816103c9565b82525050565b600081519050919050565b600082825260208201905092915050565b60005b8381101561041c578082015181840152602081019050610401565b60008484015250505050565b6000601f19601f8301169050919050565b6000610444826103e2565b61044e81856103ed565b935061045e8185602086016103fe565b61046781610428565b840191505092915050565b600060408201905061048760008301856103d3565b81810360208301526104998184610439565b90509392505050565b600060208201905081810360008301526104bc8184610439565b905092915050565b6000604051905090565b600080fd5b600080fd5b600080fd5b600080fd5b7f4e487b7100000000000000000000000000000000000000000000000000000000600052604160045260246000fd5b61051a82610428565b810181811067ffffffffffffffff82111715610539576105386104e2565b5b80604052505050565b600061054c6104c4565b90506105588282610511565b919050565b600067ffffffffffffffff821115610578576105776104e2565b5b61058182610428565b9050602081019050919050565b82818337600083830152505050565b60006105b06105ab8461055d565b610542565b9050828152602081018484840111156105cc576105cb6104dd565b5b6105d784828561058e565b509392505050565b600082601f8301126105f4576105f36104d8565b5b813561060484826020860161059d565b91505092915050565b600060208284031215610623576106226104ce565b5b600082013567ffffffffffffffff811115610641576106406104d3565b5b61064d848285016105df565b91505092915050565b600060208201905061066b60008301846103d3565b92915050565b61067a816103c9565b811461068557600080fd5b50565b60008135905061069781610671565b92915050565b600080604083850312156106b4576106b36104ce565b5b60006106c285828601610688565b925050602083013567ffffffffffffffff8111156106e3576106e26104d3565b5b6106ef858286016105df565b9150509250929050565b60006020828403121561070f5761070e6104ce565b5b600061071d84828501610688565b91505092915050565b7f4e487b7100000000000000000000000000000000000000000000000000000000600052602260045260246000fd5b6000600282049050600182168061076d57607f821691505b6020821081036107805761077f610726565b5b50919050565b60008190508160005260206000209050919050565b60006020601f8301049050919050565b600082821b905092915050565b6000600883026107e87fffffffffffffffffffffffffffffffffffffffffffffffffffffffffffffffff826107ab565b6107f286836107ab565b95508019841693508086168417925050509392505050565b6000819050919050565b600061082f61082a610825846103c9565b61080a565b6103c9565b9050919050565b6000819050919050565b61084983610814565b61085d61085582610836565b8484546107b8565b825550505050565b600090565b610872610865565b61087d818484610840565b505050565b5b818110156108a15761089660008261086a565b600181019050610883565b5050565b601f8211156108e6576108b781610786565b6108c08461079b565b810160208510156108cf578190505b6108e36108db8561079b565b830182610882565b50505b505050565b600082821c905092915050565b6000610909600019846008026108eb565b1980831691505092915050565b600061092283836108f8565b9150826002028217905092915050565b61093b826103e2565b67ffffffffffffffff811115610954576109536104e2565b5b61095e8254610755565b6109698282856108a5565b600060209050601f83116001811461099c576000841561098a578287015190505b6109948582610916565b8655506109fc565b601f1984166109aa86610786565b60005b828110156109d2578489015182556001820191506020850194506020810190506109ad565b868310156109ef57848901516109eb601f8916826108f8565b8355505b6001600288020188555050505b50505050505056fea26469706673582212205bba5797688f4c7dfb0aad44a86f826011d132adfd5fb70555ca8ff86148746664736f6c63430008120033",
					"opcodes": "PUSH1 0x80 PUSH1 0x40 MSTORE CALLVALUE DUP1 ISZERO PUSH2 0x10 JUMPI PUSH1 0x0 DUP1 REVERT JUMPDEST POP PUSH2 0xA3A DUP1 PUSH2 0x20 PUSH1 0x0 CODECOPY PUSH1 0x0 RETURN INVALID PUSH1 0x80 PUSH1 0x40 MSTORE CALLVALUE DUP1 ISZERO PUSH2 0x10 JUMPI PUSH1 0x0 DUP1 REVERT JUMPDEST POP PUSH1 0x4 CALLDATASIZE LT PUSH2 0x9E JUMPI PUSH1 0x0 CALLDATALOAD PUSH1 0xE0 SHR DUP1 PUSH4 0xA1C51915 GT PUSH2 0x66 JUMPI DUP1 PUSH4 0xA1C51915 EQ PUSH2 0xEA JUMPI DUP1 PUSH4 0xB5E7BC60 EQ PUSH2 0x108 JUMPI DUP1 PUSH4 0xD46300FD EQ PUSH2 0x124 JUMPI DUP1 PUSH4 0xDEA76B79 EQ PUSH2 0x142 JUMPI DUP1 PUSH4 0xEE919D50 EQ PUSH2 0x15E JUMPI PUSH2 0x9E JUMP JUMPDEST DUP1 PUSH4 0x2B06CB2D EQ PUSH2 0xA3 JUMPI DUP1 PUSH4 0x5E448E16 EQ PUSH2 0xC2 JUMPI DUP1 PUSH4 0x71C59316 EQ PUSH2 0xCC JUMPI DUP1 PUSH4 0x7A72B903 EQ PUSH2 0xD6 JUMPI DUP1 PUSH4 0x9B36F8DA EQ PUSH2 0xE0 JUMPI JUMPDEST PUSH1 0x0 DUP1 REVERT JUMPDEST PUSH2 0xAB PUSH2 0x17A JUMP JUMPDEST PUSH1 0x40 MLOAD PUSH2 0xB9 SWAP3 SWAP2 SWAP1 PUSH2 0x472 JUMP JUMPDEST PUSH1 0x40 MLOAD DUP1 SWAP2 SUB SWAP1 RETURN JUMPDEST PUSH2 0xCA PUSH2 0x217 JUMP JUMPDEST STOP JUMPDEST PUSH2 0xD4 PUSH2 0x25E JUMP JUMPDEST STOP JUMPDEST PUSH2 0xDE PUSH2 0x2A5 JUMP JUMPDEST STOP JUMPDEST PUSH2 0xE8 PUSH2 0x2AF JUMP JUMPDEST STOP JUMPDEST PUSH2 0xF2 PUSH2 0x2F6 JUMP JUMPDEST PUSH1 0x40 MLOAD PUSH2 0xFF SWAP2 SWAP1 PUSH2 0x4A2 JUMP JUMPDEST PUSH1 0x40 MLOAD DUP1 SWAP2 SUB SWAP1 RETURN JUMPDEST PUSH2 0x122 PUSH1 0x4 DUP1 CALLDATASIZE SUB DUP2 ADD SWAP1 PUSH2 0x11D SWAP2 SWAP1 PUSH2 0x60D JUMP JUMPDEST PUSH2 0x388 JUMP JUMPDEST STOP JUMPDEST PUSH2 0x12C PUSH2 0x39B JUMP JUMPDEST PUSH1 0x40 MLOAD PUSH2 0x139 SWAP2 SWAP1 PUSH2 0x656 JUMP JUMPDEST PUSH1 0x40 MLOAD DUP1 SWAP2 SUB SWAP1 RETURN JUMPDEST PUSH2 0x15C PUSH1 0x4 DUP1 CALLDATASIZE SUB DUP2 ADD SWAP1 PUSH2 0x157 SWAP2 SWAP1 PUSH2 0x69D JUMP JUMPDEST PUSH2 0x3A4 JUMP JUMPDEST STOP JUMPDEST PUSH2 0x178 PUSH1 0x4 DUP1 CALLDATASIZE SUB DUP2 ADD SWAP1 PUSH2 0x173 SWAP2 SWAP1 PUSH2 0x6F9 JUMP JUMPDEST PUSH2 0x3BF JUMP JUMPDEST STOP JUMPDEST PUSH1 0x0 PUSH1 0x60 PUSH1 0x0 SLOAD PUSH1 0x1 DUP1 DUP1 SLOAD PUSH2 0x18F SWAP1 PUSH2 0x755 JUMP JUMPDEST DUP1 PUSH1 0x1F ADD PUSH1 0x20 DUP1 SWAP2 DIV MUL PUSH1 0x20 ADD PUSH1 0x40 MLOAD SWAP1 DUP2 ADD PUSH1 0x40 MSTORE DUP1 SWAP3 SWAP2 SWAP1 DUP2 DUP2 MSTORE PUSH1 0x20 ADD DUP3 DUP1 SLOAD PUSH2 0x1BB SWAP1 PUSH2 0x755 JUMP JUMPDEST DUP1 ISZERO PUSH2 0x208 JUMPI DUP1 PUSH1 0x1F LT PUSH2 0x1DD JUMPI PUSH2 0x100 DUP1 DUP4 SLOAD DIV MUL DUP4 MSTORE SWAP2 PUSH1 0x20 ADD SWAP2 PUSH2 0x208 JUMP JUMPDEST DUP3 ADD SWAP2 SWAP1 PUSH1 0x0 MSTORE PUSH1 0x20 PUSH1 0x0 KECCAK256 SWAP1 JUMPDEST DUP2 SLOAD DUP2 MSTORE SWAP1 PUSH1 0x1 ADD SWAP1 PUSH1 0x20 ADD DUP1 DUP4 GT PUSH2 0x1EB JUMPI DUP3 SWAP1 SUB PUSH1 0x1F AND DUP3 ADD SWAP2 JUMPDEST POP POP POP POP POP SWAP1 POP SWAP2 POP SWAP2 POP SWAP1 SWAP2 JUMP JUMPDEST PUSH1 0x40 MLOAD DUP1 PUSH1 0x40 ADD PUSH1 0x40 MSTORE DUP1 PUSH1 0x1 DUP2 MSTORE PUSH1 0x20 ADD PUSH32 0x4300000000000000000000000000000000000000000000000000000000000000 DUP2 MSTORE POP PUSH1 0x1 SWAP1 DUP2 PUSH2 0x25B SWAP2 SWAP1 PUSH2 0x932 JUMP JUMPDEST POP JUMP JUMPDEST PUSH1 0x40 MLOAD DUP1 PUSH1 0x40 ADD PUSH1 0x40 MSTORE DUP1 PUSH1 0x3 DUP2 MSTORE PUSH1 0x20 ADD PUSH32 0x6162630000000000000000000000000000000000000000000000000000000000 DUP2 MSTORE POP PUSH1 0x1 SWAP1 DUP2 PUSH2 0x2A2 SWAP2 SWAP1 PUSH2 0x932 JUMP JUMPDEST POP JUMP JUMPDEST PUSH1 0x5 PUSH1 0x0 DUP2 SWAP1 SSTORE POP JUMP JUMPDEST PUSH1 0x40 MLOAD DUP1 PUSH1 0x40 ADD PUSH1 0x40 MSTORE DUP1 PUSH1 0x1 DUP2 MSTORE PUSH1 0x20 ADD PUSH32 0x6300000000000000000000000000000000000000000000000000000000000000 DUP2 MSTORE POP PUSH1 0x1 SWAP1 DUP2 PUSH2 0x2F3 SWAP2 SWAP1 PUSH2 0x932 JUMP JUMPDEST POP JUMP JUMPDEST PUSH1 0x60 PUSH1 0x1 DUP1 SLOAD PUSH2 0x305 SWAP1 PUSH2 0x755 JUMP JUMPDEST DUP1 PUSH1 0x1F ADD PUSH1 0x20 DUP1 SWAP2 DIV MUL PUSH1 0x20 ADD PUSH1 0x40 MLOAD SWAP1 DUP2 ADD PUSH1 0x40 MSTORE DUP1 SWAP3 SWAP2 SWAP1 DUP2 DUP2 MSTORE PUSH1 0x20 ADD DUP3 DUP1 SLOAD PUSH2 0x331 SWAP1 PUSH2 0x755 JUMP JUMPDEST DUP1 ISZERO PUSH2 0x37E JUMPI DUP1 PUSH1 0x1F LT PUSH2 0x353 JUMPI PUSH2 0x100 DUP1 DUP4 SLOAD DIV MUL DUP4 MSTORE SWAP2 PUSH1 0x20 ADD SWAP2 PUSH2 0x37E JUMP JUMPDEST DUP3 ADD SWAP2 SWAP1 PUSH1 0x0 MSTORE PUSH1 0x20 PUSH1 0x0 KECCAK256 SWAP1 JUMPDEST DUP2 SLOAD DUP2 MSTORE SWAP1 PUSH1 0x1 ADD SWAP1 PUSH1 0x20 ADD DUP1 DUP4 GT PUSH2 0x361 JUMPI DUP3 SWAP1 SUB PUSH1 0x1F AND DUP3 ADD SWAP2 JUMPDEST POP POP POP POP POP SWAP1 POP SWAP1 JUMP JUMPDEST DUP1 PUSH1 0x1 SWAP1 DUP2 PUSH2 0x397 SWAP2 SWAP1 PUSH2 0x932 JUMP JUMPDEST POP POP JUMP JUMPDEST PUSH1 0x0 DUP1 SLOAD SWAP1 POP SWAP1 JUMP JUMPDEST DUP2 PUSH1 0x0 DUP2 SWAP1 SSTORE POP DUP1 PUSH1 0x1 SWAP1 DUP2 PUSH2 0x3BA SWAP2 SWAP1 PUSH2 0x932 JUMP JUMPDEST POP POP POP JUMP JUMPDEST DUP1 PUSH1 0x0 DUP2 SWAP1 SSTORE POP POP JUMP JUMPDEST PUSH1 0x0 DUP2 SWAP1 POP SWAP2 SWAP1 POP JUMP JUMPDEST PUSH2 0x3DC DUP2 PUSH2 0x3C9 JUMP JUMPDEST DUP3 MSTORE POP POP JUMP JUMPDEST PUSH1 0x0 DUP2 MLOAD SWAP1 POP SWAP2 SWAP1 POP JUMP JUMPDEST PUSH1 0x0 DUP3 DUP3 MSTORE PUSH1 0x20 DUP3 ADD SWAP1 POP SWAP3 SWAP2 POP POP JUMP JUMPDEST PUSH1 0x0 JUMPDEST DUP4 DUP2 LT ISZERO PUSH2 0x41C JUMPI DUP1 DUP3 ADD MLOAD DUP2 DUP5 ADD MSTORE PUSH1 0x20 DUP2 ADD SWAP1 POP PUSH2 0x401 JUMP JUMPDEST PUSH1 0x0 DUP5 DUP5 ADD MSTORE POP POP POP POP JUMP JUMPDEST PUSH1 0x0 PUSH1 0x1F NOT PUSH1 0x1F DUP4 ADD AND SWAP1 POP SWAP2 SWAP1 POP JUMP JUMPDEST PUSH1 0x0 PUSH2 0x444 DUP3 PUSH2 0x3E2 JUMP JUMPDEST PUSH2 0x44E DUP2 DUP6 PUSH2 0x3ED JUMP JUMPDEST SWAP4 POP PUSH2 0x45E DUP2 DUP6 PUSH1 0x20 DUP7 ADD PUSH2 0x3FE JUMP JUMPDEST PUSH2 0x467 DUP2 PUSH2 0x428 JUMP JUMPDEST DUP5 ADD SWAP2 POP POP SWAP3 SWAP2 POP POP JUMP JUMPDEST PUSH1 0x0 PUSH1 0x40 DUP3 ADD SWAP1 POP PUSH2 0x487 PUSH1 0x0 DUP4 ADD DUP6 PUSH2 0x3D3 JUMP JUMPDEST DUP2 DUP2 SUB PUSH1 0x20 DUP4 ADD MSTORE PUSH2 0x499 DUP2 DUP5 PUSH2 0x439 JUMP JUMPDEST SWAP1 POP SWAP4 SWAP3 POP POP POP JUMP JUMPDEST PUSH1 0x0 PUSH1 0x20 DUP3 ADD SWAP1 POP DUP2 DUP2 SUB PUSH1 0x0 DUP4 ADD MSTORE PUSH2 0x4BC DUP2 DUP5 PUSH2 0x439 JUMP JUMPDEST SWAP1 POP SWAP3 SWAP2 POP POP JUMP JUMPDEST PUSH1 0x0 PUSH1 0x40 MLOAD SWAP1 POP SWAP1 JUMP JUMPDEST PUSH1 0x0 DUP1 REVERT JUMPDEST PUSH1 0x0 DUP1 REVERT JUMPDEST PUSH1 0x0 DUP1 REVERT JUMPDEST PUSH1 0x0 DUP1 REVERT JUMPDEST PUSH32 0x4E487B7100000000000000000000000000000000000000000000000000000000 PUSH1 0x0 MSTORE PUSH1 0x41 PUSH1 0x4 MSTORE PUSH1 0x24 PUSH1 0x0 REVERT JUMPDEST PUSH2 0x51A DUP3 PUSH2 0x428 JUMP JUMPDEST DUP2 ADD DUP2 DUP2 LT PUSH8 0xFFFFFFFFFFFFFFFF DUP3 GT OR ISZERO PUSH2 0x539 JUMPI PUSH2 0x538 PUSH2 0x4E2 JUMP JUMPDEST JUMPDEST DUP1 PUSH1 0x40 MSTORE POP POP POP JUMP JUMPDEST PUSH1 0x0 PUSH2 0x54C PUSH2 0x4C4 JUMP JUMPDEST SWAP1 POP PUSH2 0x558 DUP3 DUP3 PUSH2 0x511 JUMP JUMPDEST SWAP2 SWAP1 POP JUMP JUMPDEST PUSH1 0x0 PUSH8 0xFFFFFFFFFFFFFFFF DUP3 GT ISZERO PUSH2 0x578 JUMPI PUSH2 0x577 PUSH2 0x4E2 JUMP JUMPDEST JUMPDEST PUSH2 0x581 DUP3 PUSH2 0x428 JUMP JUMPDEST SWAP1 POP PUSH1 0x20 DUP2 ADD SWAP1 POP SWAP2 SWAP1 POP JUMP JUMPDEST DUP3 DUP2 DUP4 CALLDATACOPY PUSH1 0x0 DUP4 DUP4 ADD MSTORE POP POP POP JUMP JUMPDEST PUSH1 0x0 PUSH2 0x5B0 PUSH2 0x5AB DUP5 PUSH2 0x55D JUMP JUMPDEST PUSH2 0x542 JUMP JUMPDEST SWAP1 POP DUP3 DUP2 MSTORE PUSH1 0x20 DUP2 ADD DUP5 DUP5 DUP5 ADD GT ISZERO PUSH2 0x5CC JUMPI PUSH2 0x5CB PUSH2 0x4DD JUMP JUMPDEST JUMPDEST PUSH2 0x5D7 DUP5 DUP3 DUP6 PUSH2 0x58E JUMP JUMPDEST POP SWAP4 SWAP3 POP POP POP JUMP JUMPDEST PUSH1 0x0 DUP3 PUSH1 0x1F DUP4 ADD SLT PUSH2 0x5F4 JUMPI PUSH2 0x5F3 PUSH2 0x4D8 JUMP JUMPDEST JUMPDEST DUP2 CALLDATALOAD PUSH2 0x604 DUP5 DUP3 PUSH1 0x20 DUP7 ADD PUSH2 0x59D JUMP JUMPDEST SWAP2 POP POP SWAP3 SWAP2 POP POP JUMP JUMPDEST PUSH1 0x0 PUSH1 0x20 DUP3 DUP5 SUB SLT ISZERO PUSH2 0x623 JUMPI PUSH2 0x622 PUSH2 0x4CE JUMP JUMPDEST JUMPDEST PUSH1 0x0 DUP3 ADD CALLDATALOAD PUSH8 0xFFFFFFFFFFFFFFFF DUP2 GT ISZERO PUSH2 0x641 JUMPI PUSH2 0x640 PUSH2 0x4D3 JUMP JUMPDEST JUMPDEST PUSH2 0x64D DUP5 DUP3 DUP6 ADD PUSH2 0x5DF JUMP JUMPDEST SWAP2 POP POP SWAP3 SWAP2 POP POP JUMP JUMPDEST PUSH1 0x0 PUSH1 0x20 DUP3 ADD SWAP1 POP PUSH2 0x66B PUSH1 0x0 DUP4 ADD DUP5 PUSH2 0x3D3 JUMP JUMPDEST SWAP3 SWAP2 POP POP JUMP JUMPDEST PUSH2 0x67A DUP2 PUSH2 0x3C9 JUMP JUMPDEST DUP2 EQ PUSH2 0x685 JUMPI PUSH1 0x0 DUP1 REVERT JUMPDEST POP JUMP JUMPDEST PUSH1 0x0 DUP2 CALLDATALOAD SWAP1 POP PUSH2 0x697 DUP2 PUSH2 0x671 JUMP JUMPDEST SWAP3 SWAP2 POP POP JUMP JUMPDEST PUSH1 0x0 DUP1 PUSH1 0x40 DUP4 DUP6 SUB SLT ISZERO PUSH2 0x6B4 JUMPI PUSH2 0x6B3 PUSH2 0x4CE JUMP JUMPDEST JUMPDEST PUSH1 0x0 PUSH2 0x6C2 DUP6 DUP3 DUP7 ADD PUSH2 0x688 JUMP JUMPDEST SWAP3 POP POP PUSH1 0x20 DUP4 ADD CALLDATALOAD PUSH8 0xFFFFFFFFFFFFFFFF DUP2 GT ISZERO PUSH2 0x6E3 JUMPI PUSH2 0x6E2 PUSH2 0x4D3 JUMP JUMPDEST JUMPDEST PUSH2 0x6EF DUP6 DUP3 DUP7 ADD PUSH2 0x5DF JUMP JUMPDEST SWAP2 POP POP SWAP3 POP SWAP3 SWAP1 POP JUMP JUMPDEST PUSH1 0x0 PUSH1 0x20 DUP3 DUP5 SUB SLT ISZERO PUSH2 0x70F JUMPI PUSH2 0x70E PUSH2 0x4CE JUMP JUMPDEST JUMPDEST PUSH1 0x0 PUSH2 0x71D DUP5 DUP3 DUP6 ADD PUSH2 0x688 JUMP JUMPDEST SWAP2 POP POP SWAP3 SWAP2 POP POP JUMP JUMPDEST PUSH32 0x4E487B7100000000000000000000000000000000000000000000000000000000 PUSH1 0x0 MSTORE PUSH1 0x22 PUSH1 0x4 MSTORE PUSH1 0x24 PUSH1 0x0 REVERT JUMPDEST PUSH1 0x0 PUSH1 0x2 DUP3 DIV SWAP1 POP PUSH1 0x1 DUP3 AND DUP1 PUSH2 0x76D JUMPI PUSH1 0x7F DUP3 AND SWAP2 POP JUMPDEST PUSH1 0x20 DUP3 LT DUP2 SUB PUSH2 0x780 JUMPI PUSH2 0x77F PUSH2 0x726 JUMP JUMPDEST JUMPDEST POP SWAP2 SWAP1 POP JUMP JUMPDEST PUSH1 0x0 DUP2 SWAP1 POP DUP2 PUSH1 0x0 MSTORE PUSH1 0x20 PUSH1 0x0 KECCAK256 SWAP1 POP SWAP2 SWAP1 POP JUMP JUMPDEST PUSH1 0x0 PUSH1 0x20 PUSH1 0x1F DUP4 ADD DIV SWAP1 POP SWAP2 SWAP1 POP JUMP JUMPDEST PUSH1 0x0 DUP3 DUP3 SHL SWAP1 POP SWAP3 SWAP2 POP POP JUMP JUMPDEST PUSH1 0x0 PUSH1 0x8 DUP4 MUL PUSH2 0x7E8 PUSH32 0xFFFFFFFFFFFFFFFFFFFFFFFFFFFFFFFFFFFFFFFFFFFFFFFFFFFFFFFFFFFFFFFF DUP3 PUSH2 0x7AB JUMP JUMPDEST PUSH2 0x7F2 DUP7 DUP4 PUSH2 0x7AB JUMP JUMPDEST SWAP6 POP DUP1 NOT DUP5 AND SWAP4 POP DUP1 DUP7 AND DUP5 OR SWAP3 POP POP POP SWAP4 SWAP3 POP POP POP JUMP JUMPDEST PUSH1 0x0 DUP2 SWAP1 POP SWAP2 SWAP1 POP JUMP JUMPDEST PUSH1 0x0 PUSH2 0x82F PUSH2 0x82A PUSH2 0x825 DUP5 PUSH2 0x3C9 JUMP JUMPDEST PUSH2 0x80A JUMP JUMPDEST PUSH2 0x3C9 JUMP JUMPDEST SWAP1 POP SWAP2 SWAP1 POP JUMP JUMPDEST PUSH1 0x0 DUP2 SWAP1 POP SWAP2 SWAP1 POP JUMP JUMPDEST PUSH2 0x849 DUP4 PUSH2 0x814 JUMP JUMPDEST PUSH2 0x85D PUSH2 0x855 DUP3 PUSH2 0x836 JUMP JUMPDEST DUP5 DUP5 SLOAD PUSH2 0x7B8 JUMP JUMPDEST DUP3 SSTORE POP POP POP POP JUMP JUMPDEST PUSH1 0x0 SWAP1 JUMP JUMPDEST PUSH2 0x872 PUSH2 0x865 JUMP JUMPDEST PUSH2 0x87D DUP2 DUP5 DUP5 PUSH2 0x840 JUMP JUMPDEST POP POP POP JUMP JUMPDEST JUMPDEST DUP2 DUP2 LT ISZERO PUSH2 0x8A1 JUMPI PUSH2 0x896 PUSH1 0x0 DUP3 PUSH2 0x86A JUMP JUMPDEST PUSH1 0x1 DUP2 ADD SWAP1 POP PUSH2 0x883 JUMP JUMPDEST POP POP JUMP JUMPDEST PUSH1 0x1F DUP3 GT ISZERO PUSH2 0x8E6 JUMPI PUSH2 0x8B7 DUP2 PUSH2 0x786 JUMP JUMPDEST PUSH2 0x8C0 DUP5 PUSH2 0x79B JUMP JUMPDEST DUP2 ADD PUSH1 0x20 DUP6 LT ISZERO PUSH2 0x8CF JUMPI DUP2 SWAP1 POP JUMPDEST PUSH2 0x8E3 PUSH2 0x8DB DUP6 PUSH2 0x79B JUMP JUMPDEST DUP4 ADD DUP3 PUSH2 0x882 JUMP JUMPDEST POP POP JUMPDEST POP POP POP JUMP JUMPDEST PUSH1 0x0 DUP3 DUP3 SHR SWAP1 POP SWAP3 SWAP2 POP POP JUMP JUMPDEST PUSH1 0x0 PUSH2 0x909 PUSH1 0x0 NOT DUP5 PUSH1 0x8 MUL PUSH2 0x8EB JUMP JUMPDEST NOT DUP1 DUP4 AND SWAP2 POP POP SWAP3 SWAP2 POP POP JUMP JUMPDEST PUSH1 0x0 PUSH2 0x922 DUP4 DUP4 PUSH2 0x8F8 JUMP JUMPDEST SWAP2 POP DUP3 PUSH1 0x2 MUL DUP3 OR SWAP1 POP SWAP3 SWAP2 POP POP JUMP JUMPDEST PUSH2 0x93B DUP3 PUSH2 0x3E2 JUMP JUMPDEST PUSH8 0xFFFFFFFFFFFFFFFF DUP2 GT ISZERO PUSH2 0x954 JUMPI PUSH2 0x953 PUSH2 0x4E2 JUMP JUMPDEST JUMPDEST PUSH2 0x95E DUP3 SLOAD PUSH2 0x755 JUMP JUMPDEST PUSH2 0x969 DUP3 DUP3 DUP6 PUSH2 0x8A5 JUMP JUMPDEST PUSH1 0x0 PUSH1 0x20 SWAP1 POP PUSH1 0x1F DUP4 GT PUSH1 0x1 DUP2 EQ PUSH2 0x99C JUMPI PUSH1 0x0 DUP5 ISZERO PUSH2 0x98A JUMPI DUP3 DUP8 ADD MLOAD SWAP1 POP JUMPDEST PUSH2 0x994 DUP6 DUP3 PUSH2 0x916 JUMP JUMPDEST DUP7 SSTORE POP PUSH2 0x9FC JUMP JUMPDEST PUSH1 0x1F NOT DUP5 AND PUSH2 0x9AA DUP7 PUSH2 0x786 JUMP JUMPDEST PUSH1 0x0 JUMPDEST DUP3 DUP2 LT ISZERO PUSH2 0x9D2 JUMPI DUP5 DUP10 ADD MLOAD DUP3 SSTORE PUSH1 0x1 DUP3 ADD SWAP2 POP PUSH1 0x20 DUP6 ADD SWAP5 POP PUSH1 0x20 DUP2 ADD SWAP1 POP PUSH2 0x9AD JUMP JUMPDEST DUP7 DUP4 LT ISZERO PUSH2 0x9EF JUMPI DUP5 DUP10 ADD MLOAD PUSH2 0x9EB PUSH1 0x1F DUP10 AND DUP3 PUSH2 0x8F8 JUMP JUMPDEST DUP4 SSTORE POP JUMPDEST PUSH1 0x1 PUSH1 0x2 DUP9 MUL ADD DUP9 SSTORE POP POP POP JUMPDEST POP POP POP POP POP POP JUMP INVALID LOG2 PUSH5 0x6970667358 0x22 SLT KECCAK256 JUMPDEST 0xBA JUMPI SWAP8 PUSH9 0x8F4C7DFB0AAD44A86F DUP3 PUSH1 0x11 0xD1 ORIGIN 0xAD REVERT 0x5F 0xB7 SDIV SSTORE 0xCA DUP16 0xF8 PUSH2 0x4874 PUSH7 0x64736F6C634300 ADDMOD SLT STOP CALLER "
				},
				"gasEstimates": {
					"creation": {
						"codeDepositCost": "523600",
						"executionCost": "556",
						"totalCost": "524156"
					},
					"external": {
						"getA()": "2481",
						"getAB()": "infinite",
						"getB()": "infinite",
						"setA(uint256)": "22608",
						"setAB(uint256,string)": "infinite",
						"setAasFive()": "22325",
						"setB(string)": "infinite",
						"setBasABC()": "infinite",
						"setBasC()": "infinite",
						"setBasC2()": "infinite"
					}
				},
				"methodIdentifiers": {
					"getA()": "d46300fd",
					"getAB()": "2b06cb2d",
					"getB()": "a1c51915",
					"setA(uint256)": "ee919d50",
					"setAB(uint256,string)": "dea76b79",
					"setAasFive()": "7a72b903",
					"setB(string)": "b5e7bc60",
					"setBasABC()": "71c59316",
					"setBasC()": "9b36f8da",
					"setBasC2()": "5e448e16"
				}
			},
			"storageLayout": {
				"storage": [
					{
						"astId": 3,
						"contract": "contracts/230502-2.sol:UintandString",
						"label": "a",
						"offset": 0,
						"slot": "0",
						"type": "t_uint256"
					},
					{
						"astId": 5,
						"contract": "contracts/230502-2.sol:UintandString",
						"label": "b",
						"offset": 0,
						"slot": "1",
						"type": "t_string_storage"
					}
				],
				"types": {
					"t_string_storage": {
						"encoding": "bytes",
						"label": "string",
						"numberOfBytes": "32"
					},
					"t_uint256": {
						"encoding": "inplace",
						"label": "uint256",
						"numberOfBytes": "32"
					}
				}
			},
			"userdoc": {
				"kind": "user",
				"methods": {},
				"version": 1
			}
		}
	}
}