{
	"contracts-practice/230516-practice.sol": {
		"Child": {
			"abi": [
				{
					"inputs": [],
					"name": "externalF",
					"outputs": [
						{
							"internalType": "string",
							"name": "",
							"type": "string"
						}
					],
					"stateMutability": "pure",
					"type": "function"
				},
				{
					"inputs": [],
					"name": "testInternal2",
					"outputs": [
						{
							"internalType": "string",
							"name": "",
							"type": "string"
						}
					],
					"stateMutability": "pure",
					"type": "function"
				},
				{
					"inputs": [],
					"name": "testInternalF",
					"outputs": [
						{
							"internalType": "string",
							"name": "",
							"type": "string"
						}
					],
					"stateMutability": "pure",
					"type": "function"
				},
				{
					"inputs": [],
					"name": "testPrivateF",
					"outputs": [
						{
							"internalType": "string",
							"name": "",
							"type": "string"
						}
					],
					"stateMutability": "pure",
					"type": "function"
				},
				{
					"inputs": [],
					"name": "testPrivateF_1",
					"outputs": [
						{
							"internalType": "string",
							"name": "",
							"type": "string"
						}
					],
					"stateMutability": "pure",
					"type": "function"
				},
				{
					"inputs": [],
					"name": "testPrivateF_2",
					"outputs": [
						{
							"internalType": "string",
							"name": "",
							"type": "string"
						}
					],
					"stateMutability": "pure",
					"type": "function"
				},
				{
					"inputs": [],
					"name": "testPublicF",
					"outputs": [
						{
							"internalType": "string",
							"name": "",
							"type": "string"
						}
					],
					"stateMutability": "pure",
					"type": "function"
				}
			],
			"devdoc": {
				"kind": "dev",
				"methods": {},
				"version": 1
			},
			"evm": {
				"assembly": "    /* \"contracts-practice/230516-practice.sol\":886:1345  contract Child is VISIBILITY {... */\n  mstore(0x40, 0x80)\n  callvalue\n  dup1\n  iszero\n  tag_1\n  jumpi\n  0x00\n  dup1\n  revert\ntag_1:\n  pop\n  dataSize(sub_0)\n  dup1\n  dataOffset(sub_0)\n  0x00\n  codecopy\n  0x00\n  return\nstop\n\nsub_0: assembly {\n        /* \"contracts-practice/230516-practice.sol\":886:1345  contract Child is VISIBILITY {... */\n      mstore(0x40, 0x80)\n      callvalue\n      dup1\n      iszero\n      tag_1\n      jumpi\n      0x00\n      dup1\n      revert\n    tag_1:\n      pop\n      jumpi(tag_2, lt(calldatasize, 0x04))\n      shr(0xe0, calldataload(0x00))\n      dup1\n      0xb47b691b\n      gt\n      tag_10\n      jumpi\n      dup1\n      0xb47b691b\n      eq\n      tag_6\n      jumpi\n      dup1\n      0xd6f1ea3c\n      eq\n      tag_7\n      jumpi\n      dup1\n      0xd7f0b5c5\n      eq\n      tag_8\n      jumpi\n      dup1\n      0xef46278d\n      eq\n      tag_9\n      jumpi\n      jump(tag_2)\n    tag_10:\n      dup1\n      0x1798aaad\n      eq\n      tag_3\n      jumpi\n      dup1\n      0x19843ae3\n      eq\n      tag_4\n      jumpi\n      dup1\n      0x6b4ffb58\n      eq\n      tag_5\n      jumpi\n    tag_2:\n      0x00\n      dup1\n      revert\n        /* \"contracts-practice/230516-practice.sol\":483:578  function testInternalF() public pure returns(string memory) {... */\n    tag_3:\n      tag_11\n      tag_12\n      jump\t// in\n    tag_11:\n      mload(0x40)\n      tag_13\n      swap2\n      swap1\n      tag_14\n      jump\t// in\n    tag_13:\n      mload(0x40)\n      dup1\n      swap2\n      sub\n      swap1\n      return\n        /* \"contracts-practice/230516-practice.sol\":1132:1231  function testInternal2() public pure returns(string memory) {... */\n    tag_4:\n      tag_15\n      tag_16\n      jump\t// in\n    tag_15:\n      mload(0x40)\n      tag_17\n      swap2\n      swap1\n      tag_14\n      jump\t// in\n    tag_17:\n      mload(0x40)\n      dup1\n      swap2\n      sub\n      swap1\n      return\n        /* \"contracts-practice/230516-practice.sol\":584:676  function externalF() external pure returns(string memory) {... */\n    tag_5:\n      tag_18\n      tag_19\n      jump\t// in\n    tag_18:\n      mload(0x40)\n      tag_20\n      swap2\n      swap1\n      tag_14\n      jump\t// in\n    tag_20:\n      mload(0x40)\n      dup1\n      swap2\n      sub\n      swap1\n      return\n        /* \"contracts-practice/230516-practice.sol\":1026:1126  function testPrivateF_2() public pure returns(string memory) {... */\n    tag_6:\n      tag_21\n      tag_22\n      jump\t// in\n    tag_21:\n      mload(0x40)\n      tag_23\n      swap2\n      swap1\n      tag_14\n      jump\t// in\n    tag_23:\n      mload(0x40)\n      dup1\n      swap2\n      sub\n      swap1\n      return\n        /* \"contracts-practice/230516-practice.sol\":184:277  function testPrivateF() public pure returns(string memory) {... */\n    tag_7:\n      tag_24\n      tag_25\n      jump\t// in\n    tag_24:\n      mload(0x40)\n      tag_26\n      swap2\n      swap1\n      tag_14\n      jump\t// in\n    tag_26:\n      mload(0x40)\n      dup1\n      swap2\n      sub\n      swap1\n      return\n        /* \"contracts-practice/230516-practice.sol\":682:772  function testPublicF() public pure returns(string memory) {... */\n    tag_8:\n      tag_27\n      tag_28\n      jump\t// in\n    tag_27:\n      mload(0x40)\n      tag_29\n      swap2\n      swap1\n      tag_14\n      jump\t// in\n    tag_29:\n      mload(0x40)\n      dup1\n      swap2\n      sub\n      swap1\n      return\n        /* \"contracts-practice/230516-practice.sol\":921:1020  function testPrivateF_1() public pure returns(string memory) {... */\n    tag_9:\n      tag_30\n      tag_31\n      jump\t// in\n    tag_30:\n      mload(0x40)\n      tag_32\n      swap2\n      swap1\n      tag_14\n      jump\t// in\n    tag_32:\n      mload(0x40)\n      dup1\n      swap2\n      sub\n      swap1\n      return\n        /* \"contracts-practice/230516-practice.sol\":483:578  function testInternalF() public pure returns(string memory) {... */\n    tag_12:\n        /* \"contracts-practice/230516-practice.sol\":528:541  string memory */\n      0x60\n        /* \"contracts-practice/230516-practice.sol\":560:571  internalF() */\n      tag_34\n        /* \"contracts-practice/230516-practice.sol\":560:569  internalF */\n      tag_35\n        /* \"contracts-practice/230516-practice.sol\":560:571  internalF() */\n      jump\t// in\n    tag_34:\n        /* \"contracts-practice/230516-practice.sol\":553:571  return internalF() */\n      swap1\n      pop\n        /* \"contracts-practice/230516-practice.sol\":483:578  function testInternalF() public pure returns(string memory) {... */\n      swap1\n      jump\t// out\n        /* \"contracts-practice/230516-practice.sol\":1132:1231  function testInternal2() public pure returns(string memory) {... */\n    tag_16:\n        /* \"contracts-practice/230516-practice.sol\":1177:1190  string memory */\n      0x60\n        /* \"contracts-practice/230516-practice.sol\":1209:1224  testInternalF() */\n      tag_37\n        /* \"contracts-practice/230516-practice.sol\":1209:1222  testInternalF */\n      tag_12\n        /* \"contracts-practice/230516-practice.sol\":1209:1224  testInternalF() */\n      jump\t// in\n    tag_37:\n        /* \"contracts-practice/230516-practice.sol\":1202:1224  return testInternalF() */\n      swap1\n      pop\n        /* \"contracts-practice/230516-practice.sol\":1132:1231  function testInternal2() public pure returns(string memory) {... */\n      swap1\n      jump\t// out\n        /* \"contracts-practice/230516-practice.sol\":584:676  function externalF() external pure returns(string memory) {... */\n    tag_19:\n        /* \"contracts-practice/230516-practice.sol\":627:640  string memory */\n      0x60\n        /* \"contracts-practice/230516-practice.sol\":652:669  return \"external\" */\n      mload(0x40)\n      dup1\n      0x40\n      add\n      0x40\n      mstore\n      dup1\n      0x08\n      dup2\n      mstore\n      0x20\n      add\n      0x65787465726e616c000000000000000000000000000000000000000000000000\n      dup2\n      mstore\n      pop\n      swap1\n      pop\n        /* \"contracts-practice/230516-practice.sol\":584:676  function externalF() external pure returns(string memory) {... */\n      swap1\n      jump\t// out\n        /* \"contracts-practice/230516-practice.sol\":1026:1126  function testPrivateF_2() public pure returns(string memory) {... */\n    tag_22:\n        /* \"contracts-practice/230516-practice.sol\":1072:1085  string memory */\n      0x60\n        /* \"contracts-practice/230516-practice.sol\":1104:1119  testPrivateF2() */\n      tag_40\n        /* \"contracts-practice/230516-practice.sol\":1104:1117  testPrivateF2 */\n      tag_41\n        /* \"contracts-practice/230516-practice.sol\":1104:1119  testPrivateF2() */\n      jump\t// in\n    tag_40:\n        /* \"contracts-practice/230516-practice.sol\":1097:1119  return testPrivateF2() */\n      swap1\n      pop\n        /* \"contracts-practice/230516-practice.sol\":1026:1126  function testPrivateF_2() public pure returns(string memory) {... */\n      swap1\n      jump\t// out\n        /* \"contracts-practice/230516-practice.sol\":184:277  function testPrivateF() public pure returns(string memory) {... */\n    tag_25:\n        /* \"contracts-practice/230516-practice.sol\":228:241  string memory */\n      0x60\n        /* \"contracts-practice/230516-practice.sol\":260:270  privateF() */\n      tag_43\n        /* \"contracts-practice/230516-practice.sol\":260:268  privateF */\n      tag_44\n        /* \"contracts-practice/230516-practice.sol\":260:270  privateF() */\n      jump\t// in\n    tag_43:\n        /* \"contracts-practice/230516-practice.sol\":253:270  return privateF() */\n      swap1\n      pop\n        /* \"contracts-practice/230516-practice.sol\":184:277  function testPrivateF() public pure returns(string memory) {... */\n      swap1\n      jump\t// out\n        /* \"contracts-practice/230516-practice.sol\":682:772  function testPublicF() public pure returns(string memory) {... */\n    tag_28:\n        /* \"contracts-practice/230516-practice.sol\":725:738  string memory */\n      0x60\n        /* \"contracts-practice/230516-practice.sol\":750:765  return \"public\" */\n      mload(0x40)\n      dup1\n      0x40\n      add\n      0x40\n      mstore\n      dup1\n      0x06\n      dup2\n      mstore\n      0x20\n      add\n      0x7075626c69630000000000000000000000000000000000000000000000000000\n      dup2\n      mstore\n      pop\n      swap1\n      pop\n        /* \"contracts-practice/230516-practice.sol\":682:772  function testPublicF() public pure returns(string memory) {... */\n      swap1\n      jump\t// out\n        /* \"contracts-practice/230516-practice.sol\":921:1020  function testPrivateF_1() public pure returns(string memory) {... */\n    tag_31:\n        /* \"contracts-practice/230516-practice.sol\":967:980  string memory */\n      0x60\n        /* \"contracts-practice/230516-practice.sol\":999:1013  testPrivateF() */\n      tag_47\n        /* \"contracts-practice/230516-practice.sol\":999:1011  testPrivateF */\n      tag_25\n        /* \"contracts-practice/230516-practice.sol\":999:1013  testPrivateF() */\n      jump\t// in\n    tag_47:\n        /* \"contracts-practice/230516-practice.sol\":992:1013  return testPrivateF() */\n      swap1\n      pop\n        /* \"contracts-practice/230516-practice.sol\":921:1020  function testPrivateF_1() public pure returns(string memory) {... */\n      swap1\n      jump\t// out\n        /* \"contracts-practice/230516-practice.sol\":385:477  function internalF() internal pure returns(string memory) {... */\n    tag_35:\n        /* \"contracts-practice/230516-practice.sol\":428:441  string memory */\n      0x60\n        /* \"contracts-practice/230516-practice.sol\":453:470  return \"internal\" */\n      mload(0x40)\n      dup1\n      0x40\n      add\n      0x40\n      mstore\n      dup1\n      0x08\n      dup2\n      mstore\n      0x20\n      add\n      0x696e7465726e616c000000000000000000000000000000000000000000000000\n      dup2\n      mstore\n      pop\n      swap1\n      pop\n        /* \"contracts-practice/230516-practice.sol\":385:477  function internalF() internal pure returns(string memory) {... */\n      swap1\n      jump\t// out\n        /* \"contracts-practice/230516-practice.sol\":283:379  function testPrivateF2() internal pure returns(string memory) {... */\n    tag_41:\n        /* \"contracts-practice/230516-practice.sol\":330:343  string memory */\n      0x60\n        /* \"contracts-practice/230516-practice.sol\":362:372  privateF() */\n      tag_50\n        /* \"contracts-practice/230516-practice.sol\":362:370  privateF */\n      tag_44\n        /* \"contracts-practice/230516-practice.sol\":362:372  privateF() */\n      jump\t// in\n    tag_50:\n        /* \"contracts-practice/230516-practice.sol\":355:372  return privateF() */\n      swap1\n      pop\n        /* \"contracts-practice/230516-practice.sol\":283:379  function testPrivateF2() internal pure returns(string memory) {... */\n      swap1\n      jump\t// out\n        /* \"contracts-practice/230516-practice.sol\":89:178  function privateF() private pure returns(string memory) {... */\n    tag_44:\n        /* \"contracts-practice/230516-practice.sol\":130:143  string memory */\n      0x60\n        /* \"contracts-practice/230516-practice.sol\":155:171  return \"private\" */\n      mload(0x40)\n      dup1\n      0x40\n      add\n      0x40\n      mstore\n      dup1\n      0x07\n      dup2\n      mstore\n      0x20\n      add\n      0x7072697661746500000000000000000000000000000000000000000000000000\n      dup2\n      mstore\n      pop\n      swap1\n      pop\n        /* \"contracts-practice/230516-practice.sol\":89:178  function privateF() private pure returns(string memory) {... */\n      swap1\n      jump\t// out\n        /* \"#utility.yul\":7:106   */\n    tag_52:\n        /* \"#utility.yul\":59:65   */\n      0x00\n        /* \"#utility.yul\":93:98   */\n      dup2\n        /* \"#utility.yul\":87:99   */\n      mload\n        /* \"#utility.yul\":77:99   */\n      swap1\n      pop\n        /* \"#utility.yul\":7:106   */\n      swap2\n      swap1\n      pop\n      jump\t// out\n        /* \"#utility.yul\":112:281   */\n    tag_53:\n        /* \"#utility.yul\":196:207   */\n      0x00\n        /* \"#utility.yul\":230:236   */\n      dup3\n        /* \"#utility.yul\":225:228   */\n      dup3\n        /* \"#utility.yul\":218:237   */\n      mstore\n        /* \"#utility.yul\":270:274   */\n      0x20\n        /* \"#utility.yul\":265:268   */\n      dup3\n        /* \"#utility.yul\":261:275   */\n      add\n        /* \"#utility.yul\":246:275   */\n      swap1\n      pop\n        /* \"#utility.yul\":112:281   */\n      swap3\n      swap2\n      pop\n      pop\n      jump\t// out\n        /* \"#utility.yul\":287:533   */\n    tag_54:\n        /* \"#utility.yul\":368:369   */\n      0x00\n        /* \"#utility.yul\":378:491   */\n    tag_61:\n        /* \"#utility.yul\":392:398   */\n      dup4\n        /* \"#utility.yul\":389:390   */\n      dup2\n        /* \"#utility.yul\":386:399   */\n      lt\n        /* \"#utility.yul\":378:491   */\n      iszero\n      tag_63\n      jumpi\n        /* \"#utility.yul\":477:478   */\n      dup1\n        /* \"#utility.yul\":472:475   */\n      dup3\n        /* \"#utility.yul\":468:479   */\n      add\n        /* \"#utility.yul\":462:480   */\n      mload\n        /* \"#utility.yul\":458:459   */\n      dup2\n        /* \"#utility.yul\":453:456   */\n      dup5\n        /* \"#utility.yul\":449:460   */\n      add\n        /* \"#utility.yul\":442:481   */\n      mstore\n        /* \"#utility.yul\":414:416   */\n      0x20\n        /* \"#utility.yul\":411:412   */\n      dup2\n        /* \"#utility.yul\":407:417   */\n      add\n        /* \"#utility.yul\":402:417   */\n      swap1\n      pop\n        /* \"#utility.yul\":378:491   */\n      jump(tag_61)\n    tag_63:\n        /* \"#utility.yul\":525:526   */\n      0x00\n        /* \"#utility.yul\":516:522   */\n      dup5\n        /* \"#utility.yul\":511:514   */\n      dup5\n        /* \"#utility.yul\":507:523   */\n      add\n        /* \"#utility.yul\":500:527   */\n      mstore\n        /* \"#utility.yul\":349:533   */\n      pop\n        /* \"#utility.yul\":287:533   */\n      pop\n      pop\n      pop\n      jump\t// out\n        /* \"#utility.yul\":539:641   */\n    tag_55:\n        /* \"#utility.yul\":580:586   */\n      0x00\n        /* \"#utility.yul\":631:633   */\n      0x1f\n        /* \"#utility.yul\":627:634   */\n      not\n        /* \"#utility.yul\":622:624   */\n      0x1f\n        /* \"#utility.yul\":615:620   */\n      dup4\n        /* \"#utility.yul\":611:625   */\n      add\n        /* \"#utility.yul\":607:635   */\n      and\n        /* \"#utility.yul\":597:635   */\n      swap1\n      pop\n        /* \"#utility.yul\":539:641   */\n      swap2\n      swap1\n      pop\n      jump\t// out\n        /* \"#utility.yul\":647:1024   */\n    tag_56:\n        /* \"#utility.yul\":735:738   */\n      0x00\n        /* \"#utility.yul\":763:802   */\n      tag_66\n        /* \"#utility.yul\":796:801   */\n      dup3\n        /* \"#utility.yul\":763:802   */\n      tag_52\n      jump\t// in\n    tag_66:\n        /* \"#utility.yul\":818:889   */\n      tag_67\n        /* \"#utility.yul\":882:888   */\n      dup2\n        /* \"#utility.yul\":877:880   */\n      dup6\n        /* \"#utility.yul\":818:889   */\n      tag_53\n      jump\t// in\n    tag_67:\n        /* \"#utility.yul\":811:889   */\n      swap4\n      pop\n        /* \"#utility.yul\":898:963   */\n      tag_68\n        /* \"#utility.yul\":956:962   */\n      dup2\n        /* \"#utility.yul\":951:954   */\n      dup6\n        /* \"#utility.yul\":944:948   */\n      0x20\n        /* \"#utility.yul\":937:942   */\n      dup7\n        /* \"#utility.yul\":933:949   */\n      add\n        /* \"#utility.yul\":898:963   */\n      tag_54\n      jump\t// in\n    tag_68:\n        /* \"#utility.yul\":988:1017   */\n      tag_69\n        /* \"#utility.yul\":1010:1016   */\n      dup2\n        /* \"#utility.yul\":988:1017   */\n      tag_55\n      jump\t// in\n    tag_69:\n        /* \"#utility.yul\":983:986   */\n      dup5\n        /* \"#utility.yul\":979:1018   */\n      add\n        /* \"#utility.yul\":972:1018   */\n      swap2\n      pop\n        /* \"#utility.yul\":739:1024   */\n      pop\n        /* \"#utility.yul\":647:1024   */\n      swap3\n      swap2\n      pop\n      pop\n      jump\t// out\n        /* \"#utility.yul\":1030:1343   */\n    tag_14:\n        /* \"#utility.yul\":1143:1147   */\n      0x00\n        /* \"#utility.yul\":1181:1183   */\n      0x20\n        /* \"#utility.yul\":1170:1179   */\n      dup3\n        /* \"#utility.yul\":1166:1184   */\n      add\n        /* \"#utility.yul\":1158:1184   */\n      swap1\n      pop\n        /* \"#utility.yul\":1230:1239   */\n      dup2\n        /* \"#utility.yul\":1224:1228   */\n      dup2\n        /* \"#utility.yul\":1220:1240   */\n      sub\n        /* \"#utility.yul\":1216:1217   */\n      0x00\n        /* \"#utility.yul\":1205:1214   */\n      dup4\n        /* \"#utility.yul\":1201:1218   */\n      add\n        /* \"#utility.yul\":1194:1241   */\n      mstore\n        /* \"#utility.yul\":1258:1336   */\n      tag_71\n        /* \"#utility.yul\":1331:1335   */\n      dup2\n        /* \"#utility.yul\":1322:1328   */\n      dup5\n        /* \"#utility.yul\":1258:1336   */\n      tag_56\n      jump\t// in\n    tag_71:\n        /* \"#utility.yul\":1250:1336   */\n      swap1\n      pop\n        /* \"#utility.yul\":1030:1343   */\n      swap3\n      swap2\n      pop\n      pop\n      jump\t// out\n\n    auxdata: 0xa26469706673582212207b3653fa825cf2afc465881c8e6c5ac823642bb33cdb2360c2dd013b08fede0564736f6c63430008120033\n}\n",
				"bytecode": {
					"linkReferences": {},
					"object": "608060405234801561001057600080fd5b5061038a806100206000396000f3fe608060405234801561001057600080fd5b506004361061007d5760003560e01c8063b47b691b1161005b578063b47b691b146100dc578063d6f1ea3c146100fa578063d7f0b5c514610118578063ef46278d146101365761007d565b80631798aaad1461008257806319843ae3146100a05780636b4ffb58146100be575b600080fd5b61008a610154565b6040516100979190610332565b60405180910390f35b6100a8610163565b6040516100b59190610332565b60405180910390f35b6100c6610172565b6040516100d39190610332565b60405180910390f35b6100e46101af565b6040516100f19190610332565b60405180910390f35b6101026101be565b60405161010f9190610332565b60405180910390f35b6101206101cd565b60405161012d9190610332565b60405180910390f35b61013e61020a565b60405161014b9190610332565b60405180910390f35b606061015e610219565b905090565b606061016d610154565b905090565b60606040518060400160405280600881526020017f65787465726e616c000000000000000000000000000000000000000000000000815250905090565b60606101b9610256565b905090565b60606101c8610265565b905090565b60606040518060400160405280600681526020017f7075626c69630000000000000000000000000000000000000000000000000000815250905090565b60606102146101be565b905090565b60606040518060400160405280600881526020017f696e7465726e616c000000000000000000000000000000000000000000000000815250905090565b6060610260610265565b905090565b60606040518060400160405280600781526020017f7072697661746500000000000000000000000000000000000000000000000000815250905090565b600081519050919050565b600082825260208201905092915050565b60005b838110156102dc5780820151818401526020810190506102c1565b60008484015250505050565b6000601f19601f8301169050919050565b6000610304826102a2565b61030e81856102ad565b935061031e8185602086016102be565b610327816102e8565b840191505092915050565b6000602082019050818103600083015261034c81846102f9565b90509291505056fea26469706673582212207b3653fa825cf2afc465881c8e6c5ac823642bb33cdb2360c2dd013b08fede0564736f6c63430008120033",
					"opcodes": "PUSH1 0x80 PUSH1 0x40 MSTORE CALLVALUE DUP1 ISZERO PUSH2 0x10 JUMPI PUSH1 0x0 DUP1 REVERT JUMPDEST POP PUSH2 0x38A DUP1 PUSH2 0x20 PUSH1 0x0 CODECOPY PUSH1 0x0 RETURN INVALID PUSH1 0x80 PUSH1 0x40 MSTORE CALLVALUE DUP1 ISZERO PUSH2 0x10 JUMPI PUSH1 0x0 DUP1 REVERT JUMPDEST POP PUSH1 0x4 CALLDATASIZE LT PUSH2 0x7D JUMPI PUSH1 0x0 CALLDATALOAD PUSH1 0xE0 SHR DUP1 PUSH4 0xB47B691B GT PUSH2 0x5B JUMPI DUP1 PUSH4 0xB47B691B EQ PUSH2 0xDC JUMPI DUP1 PUSH4 0xD6F1EA3C EQ PUSH2 0xFA JUMPI DUP1 PUSH4 0xD7F0B5C5 EQ PUSH2 0x118 JUMPI DUP1 PUSH4 0xEF46278D EQ PUSH2 0x136 JUMPI PUSH2 0x7D JUMP JUMPDEST DUP1 PUSH4 0x1798AAAD EQ PUSH2 0x82 JUMPI DUP1 PUSH4 0x19843AE3 EQ PUSH2 0xA0 JUMPI DUP1 PUSH4 0x6B4FFB58 EQ PUSH2 0xBE JUMPI JUMPDEST PUSH1 0x0 DUP1 REVERT JUMPDEST PUSH2 0x8A PUSH2 0x154 JUMP JUMPDEST PUSH1 0x40 MLOAD PUSH2 0x97 SWAP2 SWAP1 PUSH2 0x332 JUMP JUMPDEST PUSH1 0x40 MLOAD DUP1 SWAP2 SUB SWAP1 RETURN JUMPDEST PUSH2 0xA8 PUSH2 0x163 JUMP JUMPDEST PUSH1 0x40 MLOAD PUSH2 0xB5 SWAP2 SWAP1 PUSH2 0x332 JUMP JUMPDEST PUSH1 0x40 MLOAD DUP1 SWAP2 SUB SWAP1 RETURN JUMPDEST PUSH2 0xC6 PUSH2 0x172 JUMP JUMPDEST PUSH1 0x40 MLOAD PUSH2 0xD3 SWAP2 SWAP1 PUSH2 0x332 JUMP JUMPDEST PUSH1 0x40 MLOAD DUP1 SWAP2 SUB SWAP1 RETURN JUMPDEST PUSH2 0xE4 PUSH2 0x1AF JUMP JUMPDEST PUSH1 0x40 MLOAD PUSH2 0xF1 SWAP2 SWAP1 PUSH2 0x332 JUMP JUMPDEST PUSH1 0x40 MLOAD DUP1 SWAP2 SUB SWAP1 RETURN JUMPDEST PUSH2 0x102 PUSH2 0x1BE JUMP JUMPDEST PUSH1 0x40 MLOAD PUSH2 0x10F SWAP2 SWAP1 PUSH2 0x332 JUMP JUMPDEST PUSH1 0x40 MLOAD DUP1 SWAP2 SUB SWAP1 RETURN JUMPDEST PUSH2 0x120 PUSH2 0x1CD JUMP JUMPDEST PUSH1 0x40 MLOAD PUSH2 0x12D SWAP2 SWAP1 PUSH2 0x332 JUMP JUMPDEST PUSH1 0x40 MLOAD DUP1 SWAP2 SUB SWAP1 RETURN JUMPDEST PUSH2 0x13E PUSH2 0x20A JUMP JUMPDEST PUSH1 0x40 MLOAD PUSH2 0x14B SWAP2 SWAP1 PUSH2 0x332 JUMP JUMPDEST PUSH1 0x40 MLOAD DUP1 SWAP2 SUB SWAP1 RETURN JUMPDEST PUSH1 0x60 PUSH2 0x15E PUSH2 0x219 JUMP JUMPDEST SWAP1 POP SWAP1 JUMP JUMPDEST PUSH1 0x60 PUSH2 0x16D PUSH2 0x154 JUMP JUMPDEST SWAP1 POP SWAP1 JUMP JUMPDEST PUSH1 0x60 PUSH1 0x40 MLOAD DUP1 PUSH1 0x40 ADD PUSH1 0x40 MSTORE DUP1 PUSH1 0x8 DUP2 MSTORE PUSH1 0x20 ADD PUSH32 0x65787465726E616C000000000000000000000000000000000000000000000000 DUP2 MSTORE POP SWAP1 POP SWAP1 JUMP JUMPDEST PUSH1 0x60 PUSH2 0x1B9 PUSH2 0x256 JUMP JUMPDEST SWAP1 POP SWAP1 JUMP JUMPDEST PUSH1 0x60 PUSH2 0x1C8 PUSH2 0x265 JUMP JUMPDEST SWAP1 POP SWAP1 JUMP JUMPDEST PUSH1 0x60 PUSH1 0x40 MLOAD DUP1 PUSH1 0x40 ADD PUSH1 0x40 MSTORE DUP1 PUSH1 0x6 DUP2 MSTORE PUSH1 0x20 ADD PUSH32 0x7075626C69630000000000000000000000000000000000000000000000000000 DUP2 MSTORE POP SWAP1 POP SWAP1 JUMP JUMPDEST PUSH1 0x60 PUSH2 0x214 PUSH2 0x1BE JUMP JUMPDEST SWAP1 POP SWAP1 JUMP JUMPDEST PUSH1 0x60 PUSH1 0x40 MLOAD DUP1 PUSH1 0x40 ADD PUSH1 0x40 MSTORE DUP1 PUSH1 0x8 DUP2 MSTORE PUSH1 0x20 ADD PUSH32 0x696E7465726E616C000000000000000000000000000000000000000000000000 DUP2 MSTORE POP SWAP1 POP SWAP1 JUMP JUMPDEST PUSH1 0x60 PUSH2 0x260 PUSH2 0x265 JUMP JUMPDEST SWAP1 POP SWAP1 JUMP JUMPDEST PUSH1 0x60 PUSH1 0x40 MLOAD DUP1 PUSH1 0x40 ADD PUSH1 0x40 MSTORE DUP1 PUSH1 0x7 DUP2 MSTORE PUSH1 0x20 ADD PUSH32 0x7072697661746500000000000000000000000000000000000000000000000000 DUP2 MSTORE POP SWAP1 POP SWAP1 JUMP JUMPDEST PUSH1 0x0 DUP2 MLOAD SWAP1 POP SWAP2 SWAP1 POP JUMP JUMPDEST PUSH1 0x0 DUP3 DUP3 MSTORE PUSH1 0x20 DUP3 ADD SWAP1 POP SWAP3 SWAP2 POP POP JUMP JUMPDEST PUSH1 0x0 JUMPDEST DUP4 DUP2 LT ISZERO PUSH2 0x2DC JUMPI DUP1 DUP3 ADD MLOAD DUP2 DUP5 ADD MSTORE PUSH1 0x20 DUP2 ADD SWAP1 POP PUSH2 0x2C1 JUMP JUMPDEST PUSH1 0x0 DUP5 DUP5 ADD MSTORE POP POP POP POP JUMP JUMPDEST PUSH1 0x0 PUSH1 0x1F NOT PUSH1 0x1F DUP4 ADD AND SWAP1 POP SWAP2 SWAP1 POP JUMP JUMPDEST PUSH1 0x0 PUSH2 0x304 DUP3 PUSH2 0x2A2 JUMP JUMPDEST PUSH2 0x30E DUP2 DUP6 PUSH2 0x2AD JUMP JUMPDEST SWAP4 POP PUSH2 0x31E DUP2 DUP6 PUSH1 0x20 DUP7 ADD PUSH2 0x2BE JUMP JUMPDEST PUSH2 0x327 DUP2 PUSH2 0x2E8 JUMP JUMPDEST DUP5 ADD SWAP2 POP POP SWAP3 SWAP2 POP POP JUMP JUMPDEST PUSH1 0x0 PUSH1 0x20 DUP3 ADD SWAP1 POP DUP2 DUP2 SUB PUSH1 0x0 DUP4 ADD MSTORE PUSH2 0x34C DUP2 DUP5 PUSH2 0x2F9 JUMP JUMPDEST SWAP1 POP SWAP3 SWAP2 POP POP JUMP INVALID LOG2 PUSH5 0x6970667358 0x22 SLT KECCAK256 PUSH28 0x3653FA825CF2AFC465881C8E6C5AC823642BB33CDB2360C2DD013B08 INVALID 0xDE SDIV PUSH5 0x736F6C6343 STOP ADDMOD SLT STOP CALLER "
				},
				"gasEstimates": {
					"creation": {
						"codeDepositCost": "181200",
						"executionCost": "226",
						"totalCost": "181426"
					},
					"external": {
						"externalF()": "infinite",
						"testInternal2()": "infinite",
						"testInternalF()": "infinite",
						"testPrivateF()": "infinite",
						"testPrivateF_1()": "infinite",
						"testPrivateF_2()": "infinite",
						"testPublicF()": "infinite"
					}
				},
				"methodIdentifiers": {
					"externalF()": "6b4ffb58",
					"testInternal2()": "19843ae3",
					"testInternalF()": "1798aaad",
					"testPrivateF()": "d6f1ea3c",
					"testPrivateF_1()": "ef46278d",
					"testPrivateF_2()": "b47b691b",
					"testPublicF()": "d7f0b5c5"
				}
			},
			"storageLayout": {
				"storage": [],
				"types": null
			},
			"userdoc": {
				"kind": "user",
				"methods": {},
				"version": 1
			}
		}
	}
}