{
	"contracts-practice/230517-practice.sol": {
		"A": {
			"abi": [
				{
					"inputs": [],
					"name": "ABC",
					"outputs": [
						{
							"internalType": "string",
							"name": "",
							"type": "string"
						}
					],
					"stateMutability": "view",
					"type": "function"
				},
				{
					"inputs": [],
					"name": "ABC2",
					"outputs": [
						{
							"internalType": "string",
							"name": "",
							"type": "string"
						}
					],
					"stateMutability": "view",
					"type": "function"
				},
				{
					"inputs": [],
					"name": "a",
					"outputs": [
						{
							"internalType": "uint256",
							"name": "",
							"type": "uint256"
						}
					],
					"stateMutability": "view",
					"type": "function"
				},
				{
					"inputs": [],
					"name": "b",
					"outputs": [
						{
							"internalType": "uint256",
							"name": "",
							"type": "uint256"
						}
					],
					"stateMutability": "view",
					"type": "function"
				},
				{
					"inputs": [],
					"name": "c",
					"outputs": [
						{
							"internalType": "uint256",
							"name": "",
							"type": "uint256"
						}
					],
					"stateMutability": "view",
					"type": "function"
				},
				{
					"inputs": [
						{
							"internalType": "uint256",
							"name": "_a",
							"type": "uint256"
						},
						{
							"internalType": "uint256",
							"name": "_b",
							"type": "uint256"
						},
						{
							"internalType": "uint256",
							"name": "_c",
							"type": "uint256"
						}
					],
					"name": "setABCD",
					"outputs": [],
					"stateMutability": "nonpayable",
					"type": "function"
				}
			],
			"devdoc": {
				"kind": "dev",
				"methods": {},
				"version": 1
			},
			"evm": {
				"assembly": "    /* \"contracts-practice/230517-practice.sol\":63:495  contract A {... */\n  mstore(0x40, 0x80)\n  callvalue\n  dup1\n  iszero\n  tag_1\n  jumpi\n  0x00\n  dup1\n  revert\ntag_1:\n  pop\n  dataSize(sub_0)\n  dup1\n  dataOffset(sub_0)\n  0x00\n  codecopy\n  0x00\n  return\nstop\n\nsub_0: assembly {\n        /* \"contracts-practice/230517-practice.sol\":63:495  contract A {... */\n      mstore(0x40, 0x80)\n      callvalue\n      dup1\n      iszero\n      tag_1\n      jumpi\n      0x00\n      dup1\n      revert\n    tag_1:\n      pop\n      jumpi(tag_2, lt(calldatasize, 0x04))\n      shr(0xe0, calldataload(0x00))\n      dup1\n      0x0dbe671f\n      eq\n      tag_3\n      jumpi\n      dup1\n      0x34354f93\n      eq\n      tag_4\n      jumpi\n      dup1\n      0x4df7e3d0\n      eq\n      tag_5\n      jumpi\n      dup1\n      0xc3da42b8\n      eq\n      tag_6\n      jumpi\n      dup1\n      0xd01e76ab\n      eq\n      tag_7\n      jumpi\n      dup1\n      0xd800c96f\n      eq\n      tag_8\n      jumpi\n    tag_2:\n      0x00\n      dup1\n      revert\n        /* \"contracts-practice/230517-practice.sol\":80:93  uint public a */\n    tag_3:\n      tag_9\n      tag_10\n      jump\t// in\n    tag_9:\n      mload(0x40)\n      tag_11\n      swap2\n      swap1\n      tag_12\n      jump\t// in\n    tag_11:\n      mload(0x40)\n      dup1\n      swap2\n      sub\n      swap1\n      return\n        /* \"contracts-practice/230517-practice.sol\":236:361  function ABC() public view returns(string memory) {... */\n    tag_4:\n      tag_13\n      tag_14\n      jump\t// in\n    tag_13:\n      mload(0x40)\n      tag_15\n      swap2\n      swap1\n      tag_16\n      jump\t// in\n    tag_15:\n      mload(0x40)\n      dup1\n      swap2\n      sub\n      swap1\n      return\n        /* \"contracts-practice/230517-practice.sol\":99:112  uint public b */\n    tag_5:\n      tag_17\n      tag_18\n      jump\t// in\n    tag_17:\n      mload(0x40)\n      tag_19\n      swap2\n      swap1\n      tag_12\n      jump\t// in\n    tag_19:\n      mload(0x40)\n      dup1\n      swap2\n      sub\n      swap1\n      return\n        /* \"contracts-practice/230517-practice.sol\":118:131  uint public c */\n    tag_6:\n      tag_20\n      tag_21\n      jump\t// in\n    tag_20:\n      mload(0x40)\n      tag_22\n      swap2\n      swap1\n      tag_12\n      jump\t// in\n    tag_22:\n      mload(0x40)\n      dup1\n      swap2\n      sub\n      swap1\n      return\n        /* \"contracts-practice/230517-practice.sol\":138:230  function setABCD(uint _a, uint _b, uint _c) public {... */\n    tag_7:\n      tag_23\n      0x04\n      dup1\n      calldatasize\n      sub\n      dup2\n      add\n      swap1\n      tag_24\n      swap2\n      swap1\n      tag_25\n      jump\t// in\n    tag_24:\n      tag_26\n      jump\t// in\n    tag_23:\n      stop\n        /* \"contracts-practice/230517-practice.sol\":367:493  function ABC2() public view returns(string memory) {... */\n    tag_8:\n      tag_27\n      tag_28\n      jump\t// in\n    tag_27:\n      mload(0x40)\n      tag_29\n      swap2\n      swap1\n      tag_16\n      jump\t// in\n    tag_29:\n      mload(0x40)\n      dup1\n      swap2\n      sub\n      swap1\n      return\n        /* \"contracts-practice/230517-practice.sol\":80:93  uint public a */\n    tag_10:\n      sload(0x00)\n      dup2\n      jump\t// out\n        /* \"contracts-practice/230517-practice.sol\":236:361  function ABC() public view returns(string memory) {... */\n    tag_14:\n        /* \"contracts-practice/230517-practice.sol\":271:284  string memory */\n      0x60\n        /* \"contracts-practice/230517-practice.sol\":309:310  0 */\n      0x00\n        /* \"contracts-practice/230517-practice.sol\":304:305  a */\n      dup1\n      sload\n        /* \"contracts-practice/230517-practice.sol\":304:310  a == 0 */\n      eq\n        /* \"contracts-practice/230517-practice.sol\":304:320  a == 0 && b != 1 */\n      dup1\n      iszero\n      tag_31\n      jumpi\n      pop\n        /* \"contracts-practice/230517-practice.sol\":319:320  1 */\n      0x01\n        /* \"contracts-practice/230517-practice.sol\":314:315  b */\n      dup1\n      sload\n        /* \"contracts-practice/230517-practice.sol\":314:320  b != 1 */\n      eq\n      iszero\n        /* \"contracts-practice/230517-practice.sol\":304:320  a == 0 && b != 1 */\n    tag_31:\n        /* \"contracts-practice/230517-practice.sol\":304:330  a == 0 && b != 1 || c == 0 */\n      dup1\n      tag_32\n      jumpi\n      pop\n        /* \"contracts-practice/230517-practice.sol\":329:330  0 */\n      0x00\n        /* \"contracts-practice/230517-practice.sol\":324:325  c */\n      sload(0x02)\n        /* \"contracts-practice/230517-practice.sol\":324:330  c == 0 */\n      eq\n        /* \"contracts-practice/230517-practice.sol\":304:330  a == 0 && b != 1 || c == 0 */\n    tag_32:\n        /* \"contracts-practice/230517-practice.sol\":296:331  require(a == 0 && b != 1 || c == 0) */\n      tag_33\n      jumpi\n      0x00\n      dup1\n      revert\n    tag_33:\n        /* \"contracts-practice/230517-practice.sol\":341:354  return \"pass\" */\n      mload(0x40)\n      dup1\n      0x40\n      add\n      0x40\n      mstore\n      dup1\n      0x04\n      dup2\n      mstore\n      0x20\n      add\n      0x7061737300000000000000000000000000000000000000000000000000000000\n      dup2\n      mstore\n      pop\n      swap1\n      pop\n        /* \"contracts-practice/230517-practice.sol\":236:361  function ABC() public view returns(string memory) {... */\n      swap1\n      jump\t// out\n        /* \"contracts-practice/230517-practice.sol\":99:112  uint public b */\n    tag_18:\n      sload(0x01)\n      dup2\n      jump\t// out\n        /* \"contracts-practice/230517-practice.sol\":118:131  uint public c */\n    tag_21:\n      sload(0x02)\n      dup2\n      jump\t// out\n        /* \"contracts-practice/230517-practice.sol\":138:230  function setABCD(uint _a, uint _b, uint _c) public {... */\n    tag_26:\n        /* \"contracts-practice/230517-practice.sol\":212:214  _a */\n      dup3\n        /* \"contracts-practice/230517-practice.sol\":216:218  _b */\n      dup3\n        /* \"contracts-practice/230517-practice.sol\":220:222  _c */\n      dup3\n        /* \"contracts-practice/230517-practice.sol\":200:201  a */\n      0x00\n      dup1\n        /* \"contracts-practice/230517-practice.sol\":203:204  b */\n      0x01\n      0x00\n        /* \"contracts-practice/230517-practice.sol\":206:207  c */\n      0x02\n      0x00\n        /* \"contracts-practice/230517-practice.sol\":199:223  (a, b, c) = (_a, _b, _c) */\n      dup7\n      swap2\n      swap1\n      pop\n      sstore\n      dup6\n      swap2\n      swap1\n      pop\n      sstore\n      dup5\n      swap2\n      swap1\n      pop\n      sstore\n      pop\n      pop\n      pop\n        /* \"contracts-practice/230517-practice.sol\":138:230  function setABCD(uint _a, uint _b, uint _c) public {... */\n      pop\n      pop\n      pop\n      jump\t// out\n        /* \"contracts-practice/230517-practice.sol\":367:493  function ABC2() public view returns(string memory) {... */\n    tag_28:\n        /* \"contracts-practice/230517-practice.sol\":403:416  string memory */\n      0x60\n        /* \"contracts-practice/230517-practice.sol\":441:442  0 */\n      0x00\n        /* \"contracts-practice/230517-practice.sol\":436:437  a */\n      dup1\n      sload\n        /* \"contracts-practice/230517-practice.sol\":436:442  a == 0 */\n      eq\n        /* \"contracts-practice/230517-practice.sol\":436:462  a == 0 || b != 1 && c == 0 */\n      dup1\n      tag_36\n      jumpi\n      pop\n        /* \"contracts-practice/230517-practice.sol\":451:452  1 */\n      0x01\n        /* \"contracts-practice/230517-practice.sol\":446:447  b */\n      dup1\n      sload\n        /* \"contracts-practice/230517-practice.sol\":446:452  b != 1 */\n      eq\n      iszero\n        /* \"contracts-practice/230517-practice.sol\":446:462  b != 1 && c == 0 */\n      dup1\n      iszero\n      tag_37\n      jumpi\n      pop\n        /* \"contracts-practice/230517-practice.sol\":461:462  0 */\n      0x00\n        /* \"contracts-practice/230517-practice.sol\":456:457  c */\n      sload(0x02)\n        /* \"contracts-practice/230517-practice.sol\":456:462  c == 0 */\n      eq\n        /* \"contracts-practice/230517-practice.sol\":446:462  b != 1 && c == 0 */\n    tag_37:\n        /* \"contracts-practice/230517-practice.sol\":436:462  a == 0 || b != 1 && c == 0 */\n    tag_36:\n        /* \"contracts-practice/230517-practice.sol\":428:463  require(a == 0 || b != 1 && c == 0) */\n      tag_38\n      jumpi\n      0x00\n      dup1\n      revert\n    tag_38:\n        /* \"contracts-practice/230517-practice.sol\":473:486  return \"pass\" */\n      mload(0x40)\n      dup1\n      0x40\n      add\n      0x40\n      mstore\n      dup1\n      0x04\n      dup2\n      mstore\n      0x20\n      add\n      0x7061737300000000000000000000000000000000000000000000000000000000\n      dup2\n      mstore\n      pop\n      swap1\n      pop\n        /* \"contracts-practice/230517-practice.sol\":367:493  function ABC2() public view returns(string memory) {... */\n      swap1\n      jump\t// out\n        /* \"#utility.yul\":7:84   */\n    tag_39:\n        /* \"#utility.yul\":44:51   */\n      0x00\n        /* \"#utility.yul\":73:78   */\n      dup2\n        /* \"#utility.yul\":62:78   */\n      swap1\n      pop\n        /* \"#utility.yul\":7:84   */\n      swap2\n      swap1\n      pop\n      jump\t// out\n        /* \"#utility.yul\":90:208   */\n    tag_40:\n        /* \"#utility.yul\":177:201   */\n      tag_54\n        /* \"#utility.yul\":195:200   */\n      dup2\n        /* \"#utility.yul\":177:201   */\n      tag_39\n      jump\t// in\n    tag_54:\n        /* \"#utility.yul\":172:175   */\n      dup3\n        /* \"#utility.yul\":165:202   */\n      mstore\n        /* \"#utility.yul\":90:208   */\n      pop\n      pop\n      jump\t// out\n        /* \"#utility.yul\":214:436   */\n    tag_12:\n        /* \"#utility.yul\":307:311   */\n      0x00\n        /* \"#utility.yul\":345:347   */\n      0x20\n        /* \"#utility.yul\":334:343   */\n      dup3\n        /* \"#utility.yul\":330:348   */\n      add\n        /* \"#utility.yul\":322:348   */\n      swap1\n      pop\n        /* \"#utility.yul\":358:429   */\n      tag_56\n        /* \"#utility.yul\":426:427   */\n      0x00\n        /* \"#utility.yul\":415:424   */\n      dup4\n        /* \"#utility.yul\":411:428   */\n      add\n        /* \"#utility.yul\":402:408   */\n      dup5\n        /* \"#utility.yul\":358:429   */\n      tag_40\n      jump\t// in\n    tag_56:\n        /* \"#utility.yul\":214:436   */\n      swap3\n      swap2\n      pop\n      pop\n      jump\t// out\n        /* \"#utility.yul\":442:541   */\n    tag_41:\n        /* \"#utility.yul\":494:500   */\n      0x00\n        /* \"#utility.yul\":528:533   */\n      dup2\n        /* \"#utility.yul\":522:534   */\n      mload\n        /* \"#utility.yul\":512:534   */\n      swap1\n      pop\n        /* \"#utility.yul\":442:541   */\n      swap2\n      swap1\n      pop\n      jump\t// out\n        /* \"#utility.yul\":547:716   */\n    tag_42:\n        /* \"#utility.yul\":631:642   */\n      0x00\n        /* \"#utility.yul\":665:671   */\n      dup3\n        /* \"#utility.yul\":660:663   */\n      dup3\n        /* \"#utility.yul\":653:672   */\n      mstore\n        /* \"#utility.yul\":705:709   */\n      0x20\n        /* \"#utility.yul\":700:703   */\n      dup3\n        /* \"#utility.yul\":696:710   */\n      add\n        /* \"#utility.yul\":681:710   */\n      swap1\n      pop\n        /* \"#utility.yul\":547:716   */\n      swap3\n      swap2\n      pop\n      pop\n      jump\t// out\n        /* \"#utility.yul\":722:968   */\n    tag_43:\n        /* \"#utility.yul\":803:804   */\n      0x00\n        /* \"#utility.yul\":813:926   */\n    tag_60:\n        /* \"#utility.yul\":827:833   */\n      dup4\n        /* \"#utility.yul\":824:825   */\n      dup2\n        /* \"#utility.yul\":821:834   */\n      lt\n        /* \"#utility.yul\":813:926   */\n      iszero\n      tag_62\n      jumpi\n        /* \"#utility.yul\":912:913   */\n      dup1\n        /* \"#utility.yul\":907:910   */\n      dup3\n        /* \"#utility.yul\":903:914   */\n      add\n        /* \"#utility.yul\":897:915   */\n      mload\n        /* \"#utility.yul\":893:894   */\n      dup2\n        /* \"#utility.yul\":888:891   */\n      dup5\n        /* \"#utility.yul\":884:895   */\n      add\n        /* \"#utility.yul\":877:916   */\n      mstore\n        /* \"#utility.yul\":849:851   */\n      0x20\n        /* \"#utility.yul\":846:847   */\n      dup2\n        /* \"#utility.yul\":842:852   */\n      add\n        /* \"#utility.yul\":837:852   */\n      swap1\n      pop\n        /* \"#utility.yul\":813:926   */\n      jump(tag_60)\n    tag_62:\n        /* \"#utility.yul\":960:961   */\n      0x00\n        /* \"#utility.yul\":951:957   */\n      dup5\n        /* \"#utility.yul\":946:949   */\n      dup5\n        /* \"#utility.yul\":942:958   */\n      add\n        /* \"#utility.yul\":935:962   */\n      mstore\n        /* \"#utility.yul\":784:968   */\n      pop\n        /* \"#utility.yul\":722:968   */\n      pop\n      pop\n      pop\n      jump\t// out\n        /* \"#utility.yul\":974:1076   */\n    tag_44:\n        /* \"#utility.yul\":1015:1021   */\n      0x00\n        /* \"#utility.yul\":1066:1068   */\n      0x1f\n        /* \"#utility.yul\":1062:1069   */\n      not\n        /* \"#utility.yul\":1057:1059   */\n      0x1f\n        /* \"#utility.yul\":1050:1055   */\n      dup4\n        /* \"#utility.yul\":1046:1060   */\n      add\n        /* \"#utility.yul\":1042:1070   */\n      and\n        /* \"#utility.yul\":1032:1070   */\n      swap1\n      pop\n        /* \"#utility.yul\":974:1076   */\n      swap2\n      swap1\n      pop\n      jump\t// out\n        /* \"#utility.yul\":1082:1459   */\n    tag_45:\n        /* \"#utility.yul\":1170:1173   */\n      0x00\n        /* \"#utility.yul\":1198:1237   */\n      tag_65\n        /* \"#utility.yul\":1231:1236   */\n      dup3\n        /* \"#utility.yul\":1198:1237   */\n      tag_41\n      jump\t// in\n    tag_65:\n        /* \"#utility.yul\":1253:1324   */\n      tag_66\n        /* \"#utility.yul\":1317:1323   */\n      dup2\n        /* \"#utility.yul\":1312:1315   */\n      dup6\n        /* \"#utility.yul\":1253:1324   */\n      tag_42\n      jump\t// in\n    tag_66:\n        /* \"#utility.yul\":1246:1324   */\n      swap4\n      pop\n        /* \"#utility.yul\":1333:1398   */\n      tag_67\n        /* \"#utility.yul\":1391:1397   */\n      dup2\n        /* \"#utility.yul\":1386:1389   */\n      dup6\n        /* \"#utility.yul\":1379:1383   */\n      0x20\n        /* \"#utility.yul\":1372:1377   */\n      dup7\n        /* \"#utility.yul\":1368:1384   */\n      add\n        /* \"#utility.yul\":1333:1398   */\n      tag_43\n      jump\t// in\n    tag_67:\n        /* \"#utility.yul\":1423:1452   */\n      tag_68\n        /* \"#utility.yul\":1445:1451   */\n      dup2\n        /* \"#utility.yul\":1423:1452   */\n      tag_44\n      jump\t// in\n    tag_68:\n        /* \"#utility.yul\":1418:1421   */\n      dup5\n        /* \"#utility.yul\":1414:1453   */\n      add\n        /* \"#utility.yul\":1407:1453   */\n      swap2\n      pop\n        /* \"#utility.yul\":1174:1459   */\n      pop\n        /* \"#utility.yul\":1082:1459   */\n      swap3\n      swap2\n      pop\n      pop\n      jump\t// out\n        /* \"#utility.yul\":1465:1778   */\n    tag_16:\n        /* \"#utility.yul\":1578:1582   */\n      0x00\n        /* \"#utility.yul\":1616:1618   */\n      0x20\n        /* \"#utility.yul\":1605:1614   */\n      dup3\n        /* \"#utility.yul\":1601:1619   */\n      add\n        /* \"#utility.yul\":1593:1619   */\n      swap1\n      pop\n        /* \"#utility.yul\":1665:1674   */\n      dup2\n        /* \"#utility.yul\":1659:1663   */\n      dup2\n        /* \"#utility.yul\":1655:1675   */\n      sub\n        /* \"#utility.yul\":1651:1652   */\n      0x00\n        /* \"#utility.yul\":1640:1649   */\n      dup4\n        /* \"#utility.yul\":1636:1653   */\n      add\n        /* \"#utility.yul\":1629:1676   */\n      mstore\n        /* \"#utility.yul\":1693:1771   */\n      tag_70\n        /* \"#utility.yul\":1766:1770   */\n      dup2\n        /* \"#utility.yul\":1757:1763   */\n      dup5\n        /* \"#utility.yul\":1693:1771   */\n      tag_45\n      jump\t// in\n    tag_70:\n        /* \"#utility.yul\":1685:1771   */\n      swap1\n      pop\n        /* \"#utility.yul\":1465:1778   */\n      swap3\n      swap2\n      pop\n      pop\n      jump\t// out\n        /* \"#utility.yul\":1865:1982   */\n    tag_47:\n        /* \"#utility.yul\":1974:1975   */\n      0x00\n        /* \"#utility.yul\":1971:1972   */\n      dup1\n        /* \"#utility.yul\":1964:1976   */\n      revert\n        /* \"#utility.yul\":2111:2233   */\n    tag_49:\n        /* \"#utility.yul\":2184:2208   */\n      tag_75\n        /* \"#utility.yul\":2202:2207   */\n      dup2\n        /* \"#utility.yul\":2184:2208   */\n      tag_39\n      jump\t// in\n    tag_75:\n        /* \"#utility.yul\":2177:2182   */\n      dup2\n        /* \"#utility.yul\":2174:2209   */\n      eq\n        /* \"#utility.yul\":2164:2227   */\n      tag_76\n      jumpi\n        /* \"#utility.yul\":2223:2224   */\n      0x00\n        /* \"#utility.yul\":2220:2221   */\n      dup1\n        /* \"#utility.yul\":2213:2225   */\n      revert\n        /* \"#utility.yul\":2164:2227   */\n    tag_76:\n        /* \"#utility.yul\":2111:2233   */\n      pop\n      jump\t// out\n        /* \"#utility.yul\":2239:2378   */\n    tag_50:\n        /* \"#utility.yul\":2285:2290   */\n      0x00\n        /* \"#utility.yul\":2323:2329   */\n      dup2\n        /* \"#utility.yul\":2310:2330   */\n      calldataload\n        /* \"#utility.yul\":2301:2330   */\n      swap1\n      pop\n        /* \"#utility.yul\":2339:2372   */\n      tag_78\n        /* \"#utility.yul\":2366:2371   */\n      dup2\n        /* \"#utility.yul\":2339:2372   */\n      tag_49\n      jump\t// in\n    tag_78:\n        /* \"#utility.yul\":2239:2378   */\n      swap3\n      swap2\n      pop\n      pop\n      jump\t// out\n        /* \"#utility.yul\":2384:3003   */\n    tag_25:\n        /* \"#utility.yul\":2461:2467   */\n      0x00\n        /* \"#utility.yul\":2469:2475   */\n      dup1\n        /* \"#utility.yul\":2477:2483   */\n      0x00\n        /* \"#utility.yul\":2526:2528   */\n      0x60\n        /* \"#utility.yul\":2514:2523   */\n      dup5\n        /* \"#utility.yul\":2505:2512   */\n      dup7\n        /* \"#utility.yul\":2501:2524   */\n      sub\n        /* \"#utility.yul\":2497:2529   */\n      slt\n        /* \"#utility.yul\":2494:2613   */\n      iszero\n      tag_80\n      jumpi\n        /* \"#utility.yul\":2532:2611   */\n      tag_81\n      tag_47\n      jump\t// in\n    tag_81:\n        /* \"#utility.yul\":2494:2613   */\n    tag_80:\n        /* \"#utility.yul\":2652:2653   */\n      0x00\n        /* \"#utility.yul\":2677:2730   */\n      tag_82\n        /* \"#utility.yul\":2722:2729   */\n      dup7\n        /* \"#utility.yul\":2713:2719   */\n      dup3\n        /* \"#utility.yul\":2702:2711   */\n      dup8\n        /* \"#utility.yul\":2698:2720   */\n      add\n        /* \"#utility.yul\":2677:2730   */\n      tag_50\n      jump\t// in\n    tag_82:\n        /* \"#utility.yul\":2667:2730   */\n      swap4\n      pop\n        /* \"#utility.yul\":2623:2740   */\n      pop\n        /* \"#utility.yul\":2779:2781   */\n      0x20\n        /* \"#utility.yul\":2805:2858   */\n      tag_83\n        /* \"#utility.yul\":2850:2857   */\n      dup7\n        /* \"#utility.yul\":2841:2847   */\n      dup3\n        /* \"#utility.yul\":2830:2839   */\n      dup8\n        /* \"#utility.yul\":2826:2848   */\n      add\n        /* \"#utility.yul\":2805:2858   */\n      tag_50\n      jump\t// in\n    tag_83:\n        /* \"#utility.yul\":2795:2858   */\n      swap3\n      pop\n        /* \"#utility.yul\":2750:2868   */\n      pop\n        /* \"#utility.yul\":2907:2909   */\n      0x40\n        /* \"#utility.yul\":2933:2986   */\n      tag_84\n        /* \"#utility.yul\":2978:2985   */\n      dup7\n        /* \"#utility.yul\":2969:2975   */\n      dup3\n        /* \"#utility.yul\":2958:2967   */\n      dup8\n        /* \"#utility.yul\":2954:2976   */\n      add\n        /* \"#utility.yul\":2933:2986   */\n      tag_50\n      jump\t// in\n    tag_84:\n        /* \"#utility.yul\":2923:2986   */\n      swap2\n      pop\n        /* \"#utility.yul\":2878:2996   */\n      pop\n        /* \"#utility.yul\":2384:3003   */\n      swap3\n      pop\n      swap3\n      pop\n      swap3\n      jump\t// out\n\n    auxdata: 0xa26469706673582212204980ea9aa138c9d4fa85f4c1028b4b0ac50cccb5d7956ce10d0eed773da45db864736f6c63430008120033\n}\n",
				"bytecode": {
					"linkReferences": {},
					"object": "608060405234801561001057600080fd5b506103bc806100206000396000f3fe608060405234801561001057600080fd5b50600436106100625760003560e01c80630dbe671f1461006757806334354f93146100855780634df7e3d0146100a3578063c3da42b8146100c1578063d01e76ab146100df578063d800c96f146100fb575b600080fd5b61006f610119565b60405161007c9190610235565b60405180910390f35b61008d61011f565b60405161009a91906102e0565b60405180910390f35b6100ab610185565b6040516100b89190610235565b60405180910390f35b6100c961018b565b6040516100d69190610235565b60405180910390f35b6100f960048036038101906100f49190610333565b610191565b005b6101036101b6565b60405161011091906102e0565b60405180910390f35b60005481565b60606000805414801561013457506001805414155b8061014157506000600254145b61014a57600080fd5b6040518060400160405280600481526020017f7061737300000000000000000000000000000000000000000000000000000000815250905090565b60015481565b60025481565b8282826000806001600060026000869190505585919050558491905055505050505050565b60606000805414806101d8575060018054141580156101d757506000600254145b5b6101e157600080fd5b6040518060400160405280600481526020017f7061737300000000000000000000000000000000000000000000000000000000815250905090565b6000819050919050565b61022f8161021c565b82525050565b600060208201905061024a6000830184610226565b92915050565b600081519050919050565b600082825260208201905092915050565b60005b8381101561028a57808201518184015260208101905061026f565b60008484015250505050565b6000601f19601f8301169050919050565b60006102b282610250565b6102bc818561025b565b93506102cc81856020860161026c565b6102d581610296565b840191505092915050565b600060208201905081810360008301526102fa81846102a7565b905092915050565b600080fd5b6103108161021c565b811461031b57600080fd5b50565b60008135905061032d81610307565b92915050565b60008060006060848603121561034c5761034b610302565b5b600061035a8682870161031e565b935050602061036b8682870161031e565b925050604061037c8682870161031e565b915050925092509256fea26469706673582212204980ea9aa138c9d4fa85f4c1028b4b0ac50cccb5d7956ce10d0eed773da45db864736f6c63430008120033",
					"opcodes": "PUSH1 0x80 PUSH1 0x40 MSTORE CALLVALUE DUP1 ISZERO PUSH2 0x10 JUMPI PUSH1 0x0 DUP1 REVERT JUMPDEST POP PUSH2 0x3BC DUP1 PUSH2 0x20 PUSH1 0x0 CODECOPY PUSH1 0x0 RETURN INVALID PUSH1 0x80 PUSH1 0x40 MSTORE CALLVALUE DUP1 ISZERO PUSH2 0x10 JUMPI PUSH1 0x0 DUP1 REVERT JUMPDEST POP PUSH1 0x4 CALLDATASIZE LT PUSH2 0x62 JUMPI PUSH1 0x0 CALLDATALOAD PUSH1 0xE0 SHR DUP1 PUSH4 0xDBE671F EQ PUSH2 0x67 JUMPI DUP1 PUSH4 0x34354F93 EQ PUSH2 0x85 JUMPI DUP1 PUSH4 0x4DF7E3D0 EQ PUSH2 0xA3 JUMPI DUP1 PUSH4 0xC3DA42B8 EQ PUSH2 0xC1 JUMPI DUP1 PUSH4 0xD01E76AB EQ PUSH2 0xDF JUMPI DUP1 PUSH4 0xD800C96F EQ PUSH2 0xFB JUMPI JUMPDEST PUSH1 0x0 DUP1 REVERT JUMPDEST PUSH2 0x6F PUSH2 0x119 JUMP JUMPDEST PUSH1 0x40 MLOAD PUSH2 0x7C SWAP2 SWAP1 PUSH2 0x235 JUMP JUMPDEST PUSH1 0x40 MLOAD DUP1 SWAP2 SUB SWAP1 RETURN JUMPDEST PUSH2 0x8D PUSH2 0x11F JUMP JUMPDEST PUSH1 0x40 MLOAD PUSH2 0x9A SWAP2 SWAP1 PUSH2 0x2E0 JUMP JUMPDEST PUSH1 0x40 MLOAD DUP1 SWAP2 SUB SWAP1 RETURN JUMPDEST PUSH2 0xAB PUSH2 0x185 JUMP JUMPDEST PUSH1 0x40 MLOAD PUSH2 0xB8 SWAP2 SWAP1 PUSH2 0x235 JUMP JUMPDEST PUSH1 0x40 MLOAD DUP1 SWAP2 SUB SWAP1 RETURN JUMPDEST PUSH2 0xC9 PUSH2 0x18B JUMP JUMPDEST PUSH1 0x40 MLOAD PUSH2 0xD6 SWAP2 SWAP1 PUSH2 0x235 JUMP JUMPDEST PUSH1 0x40 MLOAD DUP1 SWAP2 SUB SWAP1 RETURN JUMPDEST PUSH2 0xF9 PUSH1 0x4 DUP1 CALLDATASIZE SUB DUP2 ADD SWAP1 PUSH2 0xF4 SWAP2 SWAP1 PUSH2 0x333 JUMP JUMPDEST PUSH2 0x191 JUMP JUMPDEST STOP JUMPDEST PUSH2 0x103 PUSH2 0x1B6 JUMP JUMPDEST PUSH1 0x40 MLOAD PUSH2 0x110 SWAP2 SWAP1 PUSH2 0x2E0 JUMP JUMPDEST PUSH1 0x40 MLOAD DUP1 SWAP2 SUB SWAP1 RETURN JUMPDEST PUSH1 0x0 SLOAD DUP2 JUMP JUMPDEST PUSH1 0x60 PUSH1 0x0 DUP1 SLOAD EQ DUP1 ISZERO PUSH2 0x134 JUMPI POP PUSH1 0x1 DUP1 SLOAD EQ ISZERO JUMPDEST DUP1 PUSH2 0x141 JUMPI POP PUSH1 0x0 PUSH1 0x2 SLOAD EQ JUMPDEST PUSH2 0x14A JUMPI PUSH1 0x0 DUP1 REVERT JUMPDEST PUSH1 0x40 MLOAD DUP1 PUSH1 0x40 ADD PUSH1 0x40 MSTORE DUP1 PUSH1 0x4 DUP2 MSTORE PUSH1 0x20 ADD PUSH32 0x7061737300000000000000000000000000000000000000000000000000000000 DUP2 MSTORE POP SWAP1 POP SWAP1 JUMP JUMPDEST PUSH1 0x1 SLOAD DUP2 JUMP JUMPDEST PUSH1 0x2 SLOAD DUP2 JUMP JUMPDEST DUP3 DUP3 DUP3 PUSH1 0x0 DUP1 PUSH1 0x1 PUSH1 0x0 PUSH1 0x2 PUSH1 0x0 DUP7 SWAP2 SWAP1 POP SSTORE DUP6 SWAP2 SWAP1 POP SSTORE DUP5 SWAP2 SWAP1 POP SSTORE POP POP POP POP POP POP JUMP JUMPDEST PUSH1 0x60 PUSH1 0x0 DUP1 SLOAD EQ DUP1 PUSH2 0x1D8 JUMPI POP PUSH1 0x1 DUP1 SLOAD EQ ISZERO DUP1 ISZERO PUSH2 0x1D7 JUMPI POP PUSH1 0x0 PUSH1 0x2 SLOAD EQ JUMPDEST JUMPDEST PUSH2 0x1E1 JUMPI PUSH1 0x0 DUP1 REVERT JUMPDEST PUSH1 0x40 MLOAD DUP1 PUSH1 0x40 ADD PUSH1 0x40 MSTORE DUP1 PUSH1 0x4 DUP2 MSTORE PUSH1 0x20 ADD PUSH32 0x7061737300000000000000000000000000000000000000000000000000000000 DUP2 MSTORE POP SWAP1 POP SWAP1 JUMP JUMPDEST PUSH1 0x0 DUP2 SWAP1 POP SWAP2 SWAP1 POP JUMP JUMPDEST PUSH2 0x22F DUP2 PUSH2 0x21C JUMP JUMPDEST DUP3 MSTORE POP POP JUMP JUMPDEST PUSH1 0x0 PUSH1 0x20 DUP3 ADD SWAP1 POP PUSH2 0x24A PUSH1 0x0 DUP4 ADD DUP5 PUSH2 0x226 JUMP JUMPDEST SWAP3 SWAP2 POP POP JUMP JUMPDEST PUSH1 0x0 DUP2 MLOAD SWAP1 POP SWAP2 SWAP1 POP JUMP JUMPDEST PUSH1 0x0 DUP3 DUP3 MSTORE PUSH1 0x20 DUP3 ADD SWAP1 POP SWAP3 SWAP2 POP POP JUMP JUMPDEST PUSH1 0x0 JUMPDEST DUP4 DUP2 LT ISZERO PUSH2 0x28A JUMPI DUP1 DUP3 ADD MLOAD DUP2 DUP5 ADD MSTORE PUSH1 0x20 DUP2 ADD SWAP1 POP PUSH2 0x26F JUMP JUMPDEST PUSH1 0x0 DUP5 DUP5 ADD MSTORE POP POP POP POP JUMP JUMPDEST PUSH1 0x0 PUSH1 0x1F NOT PUSH1 0x1F DUP4 ADD AND SWAP1 POP SWAP2 SWAP1 POP JUMP JUMPDEST PUSH1 0x0 PUSH2 0x2B2 DUP3 PUSH2 0x250 JUMP JUMPDEST PUSH2 0x2BC DUP2 DUP6 PUSH2 0x25B JUMP JUMPDEST SWAP4 POP PUSH2 0x2CC DUP2 DUP6 PUSH1 0x20 DUP7 ADD PUSH2 0x26C JUMP JUMPDEST PUSH2 0x2D5 DUP2 PUSH2 0x296 JUMP JUMPDEST DUP5 ADD SWAP2 POP POP SWAP3 SWAP2 POP POP JUMP JUMPDEST PUSH1 0x0 PUSH1 0x20 DUP3 ADD SWAP1 POP DUP2 DUP2 SUB PUSH1 0x0 DUP4 ADD MSTORE PUSH2 0x2FA DUP2 DUP5 PUSH2 0x2A7 JUMP JUMPDEST SWAP1 POP SWAP3 SWAP2 POP POP JUMP JUMPDEST PUSH1 0x0 DUP1 REVERT JUMPDEST PUSH2 0x310 DUP2 PUSH2 0x21C JUMP JUMPDEST DUP2 EQ PUSH2 0x31B JUMPI PUSH1 0x0 DUP1 REVERT JUMPDEST POP JUMP JUMPDEST PUSH1 0x0 DUP2 CALLDATALOAD SWAP1 POP PUSH2 0x32D DUP2 PUSH2 0x307 JUMP JUMPDEST SWAP3 SWAP2 POP POP JUMP JUMPDEST PUSH1 0x0 DUP1 PUSH1 0x0 PUSH1 0x60 DUP5 DUP7 SUB SLT ISZERO PUSH2 0x34C JUMPI PUSH2 0x34B PUSH2 0x302 JUMP JUMPDEST JUMPDEST PUSH1 0x0 PUSH2 0x35A DUP7 DUP3 DUP8 ADD PUSH2 0x31E JUMP JUMPDEST SWAP4 POP POP PUSH1 0x20 PUSH2 0x36B DUP7 DUP3 DUP8 ADD PUSH2 0x31E JUMP JUMPDEST SWAP3 POP POP PUSH1 0x40 PUSH2 0x37C DUP7 DUP3 DUP8 ADD PUSH2 0x31E JUMP JUMPDEST SWAP2 POP POP SWAP3 POP SWAP3 POP SWAP3 JUMP INVALID LOG2 PUSH5 0x6970667358 0x22 SLT KECCAK256 0x49 DUP1 0xEA SWAP11 LOG1 CODESIZE 0xC9 0xD4 STATICCALL DUP6 DELEGATECALL 0xC1 MUL DUP12 0x4B EXP 0xC5 0xC 0xCC 0xB5 0xD7 SWAP6 PUSH13 0xE10D0EED773DA45DB864736F6C PUSH4 0x43000812 STOP CALLER "
				},
				"gasEstimates": {
					"creation": {
						"codeDepositCost": "191200",
						"executionCost": "232",
						"totalCost": "191432"
					},
					"external": {
						"ABC()": "infinite",
						"ABC2()": "infinite",
						"a()": "2407",
						"b()": "2451",
						"c()": "2473",
						"setABCD(uint256,uint256,uint256)": "infinite"
					}
				},
				"methodIdentifiers": {
					"ABC()": "34354f93",
					"ABC2()": "d800c96f",
					"a()": "0dbe671f",
					"b()": "4df7e3d0",
					"c()": "c3da42b8",
					"setABCD(uint256,uint256,uint256)": "d01e76ab"
				}
			},
			"storageLayout": {
				"storage": [
					{
						"astId": 3,
						"contract": "contracts-practice/230517-practice.sol:A",
						"label": "a",
						"offset": 0,
						"slot": "0",
						"type": "t_uint256"
					},
					{
						"astId": 5,
						"contract": "contracts-practice/230517-practice.sol:A",
						"label": "b",
						"offset": 0,
						"slot": "1",
						"type": "t_uint256"
					},
					{
						"astId": 7,
						"contract": "contracts-practice/230517-practice.sol:A",
						"label": "c",
						"offset": 0,
						"slot": "2",
						"type": "t_uint256"
					}
				],
				"types": {
					"t_uint256": {
						"encoding": "inplace",
						"label": "uint256",
						"numberOfBytes": "32"
					}
				}
			},
			"userdoc": {
				"kind": "user",
				"methods": {},
				"version": 1
			}
		}
	}
}