{
	"data": {
		"bytecode": {
			"linkReferences": {},
			"object": "608060405234801561001057600080fd5b506105c3806100206000396000f3fe608060405234801561001057600080fd5b506004361061002b5760003560e01c806362c5310114610030575b600080fd5b61004a60048036038101906100459190610304565b610060565b60405161005791906103df565b60405180910390f35b6060828260148210156100a8576040517f08c379a000000000000000000000000000000000000000000000000000000000815260040161009f9061044d565b60405180910390fd5b6040516020016100b7906104c4565b60405160208183030381529060405280519060200120816040516020016100de919061050a565b6040516020818303038152906040528051906020012003610134576040517f08c379a000000000000000000000000000000000000000000000000000000000815260040161012b9061056d565b60405180910390fd5b6040518060400160405280600781526020017f7061737365642e000000000000000000000000000000000000000000000000008152509250505092915050565b6000604051905090565b600080fd5b600080fd5b6000819050919050565b61019b81610188565b81146101a657600080fd5b50565b6000813590506101b881610192565b92915050565b600080fd5b600080fd5b6000601f19601f8301169050919050565b7f4e487b7100000000000000000000000000000000000000000000000000000000600052604160045260246000fd5b610211826101c8565b810181811067ffffffffffffffff821117156102305761022f6101d9565b5b80604052505050565b6000610243610174565b905061024f8282610208565b919050565b600067ffffffffffffffff82111561026f5761026e6101d9565b5b610278826101c8565b9050602081019050919050565b82818337600083830152505050565b60006102a76102a284610254565b610239565b9050828152602081018484840111156102c3576102c26101c3565b5b6102ce848285610285565b509392505050565b600082601f8301126102eb576102ea6101be565b5b81356102fb848260208601610294565b91505092915050565b6000806040838503121561031b5761031a61017e565b5b6000610329858286016101a9565b925050602083013567ffffffffffffffff81111561034a57610349610183565b5b610356858286016102d6565b9150509250929050565b600081519050919050565b600082825260208201905092915050565b60005b8381101561039a57808201518184015260208101905061037f565b60008484015250505050565b60006103b182610360565b6103bb818561036b565b93506103cb81856020860161037c565b6103d4816101c8565b840191505092915050565b600060208201905081810360008301526103f981846103a6565b905092915050565b7f6e6f74206164756c742e00000000000000000000000000000000000000000000600082015250565b6000610437600a8361036b565b915061044282610401565b602082019050919050565b600060208201905081810360008301526104668161042a565b9050919050565b600081905092915050565b7f426f620000000000000000000000000000000000000000000000000000000000600082015250565b60006104ae60038361046d565b91506104b982610478565b600382019050919050565b60006104cf826104a1565b9150819050919050565b60006104e482610360565b6104ee818561046d565b93506104fe81856020860161037c565b80840191505092915050565b600061051682846104d9565b915081905092915050565b7f796f7520617265206372696d696e616c21210000000000000000000000000000600082015250565b600061055760128361036b565b915061056282610521565b602082019050919050565b600060208201905081810360008301526105868161054a565b905091905056fea26469706673582212209fe4568a756c616fb770081959db39d76ac1a244da7a8309c4cebc1a13c3a5b864736f6c63430008120033",
			"opcodes": "PUSH1 0x80 PUSH1 0x40 MSTORE CALLVALUE DUP1 ISZERO PUSH2 0x10 JUMPI PUSH1 0x0 DUP1 REVERT JUMPDEST POP PUSH2 0x5C3 DUP1 PUSH2 0x20 PUSH1 0x0 CODECOPY PUSH1 0x0 RETURN INVALID PUSH1 0x80 PUSH1 0x40 MSTORE CALLVALUE DUP1 ISZERO PUSH2 0x10 JUMPI PUSH1 0x0 DUP1 REVERT JUMPDEST POP PUSH1 0x4 CALLDATASIZE LT PUSH2 0x2B JUMPI PUSH1 0x0 CALLDATALOAD PUSH1 0xE0 SHR DUP1 PUSH4 0x62C53101 EQ PUSH2 0x30 JUMPI JUMPDEST PUSH1 0x0 DUP1 REVERT JUMPDEST PUSH2 0x4A PUSH1 0x4 DUP1 CALLDATASIZE SUB DUP2 ADD SWAP1 PUSH2 0x45 SWAP2 SWAP1 PUSH2 0x304 JUMP JUMPDEST PUSH2 0x60 JUMP JUMPDEST PUSH1 0x40 MLOAD PUSH2 0x57 SWAP2 SWAP1 PUSH2 0x3DF JUMP JUMPDEST PUSH1 0x40 MLOAD DUP1 SWAP2 SUB SWAP1 RETURN JUMPDEST PUSH1 0x60 DUP3 DUP3 PUSH1 0x14 DUP3 LT ISZERO PUSH2 0xA8 JUMPI PUSH1 0x40 MLOAD PUSH32 0x8C379A000000000000000000000000000000000000000000000000000000000 DUP2 MSTORE PUSH1 0x4 ADD PUSH2 0x9F SWAP1 PUSH2 0x44D JUMP JUMPDEST PUSH1 0x40 MLOAD DUP1 SWAP2 SUB SWAP1 REVERT JUMPDEST PUSH1 0x40 MLOAD PUSH1 0x20 ADD PUSH2 0xB7 SWAP1 PUSH2 0x4C4 JUMP JUMPDEST PUSH1 0x40 MLOAD PUSH1 0x20 DUP2 DUP4 SUB SUB DUP2 MSTORE SWAP1 PUSH1 0x40 MSTORE DUP1 MLOAD SWAP1 PUSH1 0x20 ADD KECCAK256 DUP2 PUSH1 0x40 MLOAD PUSH1 0x20 ADD PUSH2 0xDE SWAP2 SWAP1 PUSH2 0x50A JUMP JUMPDEST PUSH1 0x40 MLOAD PUSH1 0x20 DUP2 DUP4 SUB SUB DUP2 MSTORE SWAP1 PUSH1 0x40 MSTORE DUP1 MLOAD SWAP1 PUSH1 0x20 ADD KECCAK256 SUB PUSH2 0x134 JUMPI PUSH1 0x40 MLOAD PUSH32 0x8C379A000000000000000000000000000000000000000000000000000000000 DUP2 MSTORE PUSH1 0x4 ADD PUSH2 0x12B SWAP1 PUSH2 0x56D JUMP JUMPDEST PUSH1 0x40 MLOAD DUP1 SWAP2 SUB SWAP1 REVERT JUMPDEST PUSH1 0x40 MLOAD DUP1 PUSH1 0x40 ADD PUSH1 0x40 MSTORE DUP1 PUSH1 0x7 DUP2 MSTORE PUSH1 0x20 ADD PUSH32 0x7061737365642E00000000000000000000000000000000000000000000000000 DUP2 MSTORE POP SWAP3 POP POP POP SWAP3 SWAP2 POP POP JUMP JUMPDEST PUSH1 0x0 PUSH1 0x40 MLOAD SWAP1 POP SWAP1 JUMP JUMPDEST PUSH1 0x0 DUP1 REVERT JUMPDEST PUSH1 0x0 DUP1 REVERT JUMPDEST PUSH1 0x0 DUP2 SWAP1 POP SWAP2 SWAP1 POP JUMP JUMPDEST PUSH2 0x19B DUP2 PUSH2 0x188 JUMP JUMPDEST DUP2 EQ PUSH2 0x1A6 JUMPI PUSH1 0x0 DUP1 REVERT JUMPDEST POP JUMP JUMPDEST PUSH1 0x0 DUP2 CALLDATALOAD SWAP1 POP PUSH2 0x1B8 DUP2 PUSH2 0x192 JUMP JUMPDEST SWAP3 SWAP2 POP POP JUMP JUMPDEST PUSH1 0x0 DUP1 REVERT JUMPDEST PUSH1 0x0 DUP1 REVERT JUMPDEST PUSH1 0x0 PUSH1 0x1F NOT PUSH1 0x1F DUP4 ADD AND SWAP1 POP SWAP2 SWAP1 POP JUMP JUMPDEST PUSH32 0x4E487B7100000000000000000000000000000000000000000000000000000000 PUSH1 0x0 MSTORE PUSH1 0x41 PUSH1 0x4 MSTORE PUSH1 0x24 PUSH1 0x0 REVERT JUMPDEST PUSH2 0x211 DUP3 PUSH2 0x1C8 JUMP JUMPDEST DUP2 ADD DUP2 DUP2 LT PUSH8 0xFFFFFFFFFFFFFFFF DUP3 GT OR ISZERO PUSH2 0x230 JUMPI PUSH2 0x22F PUSH2 0x1D9 JUMP JUMPDEST JUMPDEST DUP1 PUSH1 0x40 MSTORE POP POP POP JUMP JUMPDEST PUSH1 0x0 PUSH2 0x243 PUSH2 0x174 JUMP JUMPDEST SWAP1 POP PUSH2 0x24F DUP3 DUP3 PUSH2 0x208 JUMP JUMPDEST SWAP2 SWAP1 POP JUMP JUMPDEST PUSH1 0x0 PUSH8 0xFFFFFFFFFFFFFFFF DUP3 GT ISZERO PUSH2 0x26F JUMPI PUSH2 0x26E PUSH2 0x1D9 JUMP JUMPDEST JUMPDEST PUSH2 0x278 DUP3 PUSH2 0x1C8 JUMP JUMPDEST SWAP1 POP PUSH1 0x20 DUP2 ADD SWAP1 POP SWAP2 SWAP1 POP JUMP JUMPDEST DUP3 DUP2 DUP4 CALLDATACOPY PUSH1 0x0 DUP4 DUP4 ADD MSTORE POP POP POP JUMP JUMPDEST PUSH1 0x0 PUSH2 0x2A7 PUSH2 0x2A2 DUP5 PUSH2 0x254 JUMP JUMPDEST PUSH2 0x239 JUMP JUMPDEST SWAP1 POP DUP3 DUP2 MSTORE PUSH1 0x20 DUP2 ADD DUP5 DUP5 DUP5 ADD GT ISZERO PUSH2 0x2C3 JUMPI PUSH2 0x2C2 PUSH2 0x1C3 JUMP JUMPDEST JUMPDEST PUSH2 0x2CE DUP5 DUP3 DUP6 PUSH2 0x285 JUMP JUMPDEST POP SWAP4 SWAP3 POP POP POP JUMP JUMPDEST PUSH1 0x0 DUP3 PUSH1 0x1F DUP4 ADD SLT PUSH2 0x2EB JUMPI PUSH2 0x2EA PUSH2 0x1BE JUMP JUMPDEST JUMPDEST DUP2 CALLDATALOAD PUSH2 0x2FB DUP5 DUP3 PUSH1 0x20 DUP7 ADD PUSH2 0x294 JUMP JUMPDEST SWAP2 POP POP SWAP3 SWAP2 POP POP JUMP JUMPDEST PUSH1 0x0 DUP1 PUSH1 0x40 DUP4 DUP6 SUB SLT ISZERO PUSH2 0x31B JUMPI PUSH2 0x31A PUSH2 0x17E JUMP JUMPDEST JUMPDEST PUSH1 0x0 PUSH2 0x329 DUP6 DUP3 DUP7 ADD PUSH2 0x1A9 JUMP JUMPDEST SWAP3 POP POP PUSH1 0x20 DUP4 ADD CALLDATALOAD PUSH8 0xFFFFFFFFFFFFFFFF DUP2 GT ISZERO PUSH2 0x34A JUMPI PUSH2 0x349 PUSH2 0x183 JUMP JUMPDEST JUMPDEST PUSH2 0x356 DUP6 DUP3 DUP7 ADD PUSH2 0x2D6 JUMP JUMPDEST SWAP2 POP POP SWAP3 POP SWAP3 SWAP1 POP JUMP JUMPDEST PUSH1 0x0 DUP2 MLOAD SWAP1 POP SWAP2 SWAP1 POP JUMP JUMPDEST PUSH1 0x0 DUP3 DUP3 MSTORE PUSH1 0x20 DUP3 ADD SWAP1 POP SWAP3 SWAP2 POP POP JUMP JUMPDEST PUSH1 0x0 JUMPDEST DUP4 DUP2 LT ISZERO PUSH2 0x39A JUMPI DUP1 DUP3 ADD MLOAD DUP2 DUP5 ADD MSTORE PUSH1 0x20 DUP2 ADD SWAP1 POP PUSH2 0x37F JUMP JUMPDEST PUSH1 0x0 DUP5 DUP5 ADD MSTORE POP POP POP POP JUMP JUMPDEST PUSH1 0x0 PUSH2 0x3B1 DUP3 PUSH2 0x360 JUMP JUMPDEST PUSH2 0x3BB DUP2 DUP6 PUSH2 0x36B JUMP JUMPDEST SWAP4 POP PUSH2 0x3CB DUP2 DUP6 PUSH1 0x20 DUP7 ADD PUSH2 0x37C JUMP JUMPDEST PUSH2 0x3D4 DUP2 PUSH2 0x1C8 JUMP JUMPDEST DUP5 ADD SWAP2 POP POP SWAP3 SWAP2 POP POP JUMP JUMPDEST PUSH1 0x0 PUSH1 0x20 DUP3 ADD SWAP1 POP DUP2 DUP2 SUB PUSH1 0x0 DUP4 ADD MSTORE PUSH2 0x3F9 DUP2 DUP5 PUSH2 0x3A6 JUMP JUMPDEST SWAP1 POP SWAP3 SWAP2 POP POP JUMP JUMPDEST PUSH32 0x6E6F74206164756C742E00000000000000000000000000000000000000000000 PUSH1 0x0 DUP3 ADD MSTORE POP JUMP JUMPDEST PUSH1 0x0 PUSH2 0x437 PUSH1 0xA DUP4 PUSH2 0x36B JUMP JUMPDEST SWAP2 POP PUSH2 0x442 DUP3 PUSH2 0x401 JUMP JUMPDEST PUSH1 0x20 DUP3 ADD SWAP1 POP SWAP2 SWAP1 POP JUMP JUMPDEST PUSH1 0x0 PUSH1 0x20 DUP3 ADD SWAP1 POP DUP2 DUP2 SUB PUSH1 0x0 DUP4 ADD MSTORE PUSH2 0x466 DUP2 PUSH2 0x42A JUMP JUMPDEST SWAP1 POP SWAP2 SWAP1 POP JUMP JUMPDEST PUSH1 0x0 DUP2 SWAP1 POP SWAP3 SWAP2 POP POP JUMP JUMPDEST PUSH32 0x426F620000000000000000000000000000000000000000000000000000000000 PUSH1 0x0 DUP3 ADD MSTORE POP JUMP JUMPDEST PUSH1 0x0 PUSH2 0x4AE PUSH1 0x3 DUP4 PUSH2 0x46D JUMP JUMPDEST SWAP2 POP PUSH2 0x4B9 DUP3 PUSH2 0x478 JUMP JUMPDEST PUSH1 0x3 DUP3 ADD SWAP1 POP SWAP2 SWAP1 POP JUMP JUMPDEST PUSH1 0x0 PUSH2 0x4CF DUP3 PUSH2 0x4A1 JUMP JUMPDEST SWAP2 POP DUP2 SWAP1 POP SWAP2 SWAP1 POP JUMP JUMPDEST PUSH1 0x0 PUSH2 0x4E4 DUP3 PUSH2 0x360 JUMP JUMPDEST PUSH2 0x4EE DUP2 DUP6 PUSH2 0x46D JUMP JUMPDEST SWAP4 POP PUSH2 0x4FE DUP2 DUP6 PUSH1 0x20 DUP7 ADD PUSH2 0x37C JUMP JUMPDEST DUP1 DUP5 ADD SWAP2 POP POP SWAP3 SWAP2 POP POP JUMP JUMPDEST PUSH1 0x0 PUSH2 0x516 DUP3 DUP5 PUSH2 0x4D9 JUMP JUMPDEST SWAP2 POP DUP2 SWAP1 POP SWAP3 SWAP2 POP POP JUMP JUMPDEST PUSH32 0x796F7520617265206372696D696E616C21210000000000000000000000000000 PUSH1 0x0 DUP3 ADD MSTORE POP JUMP JUMPDEST PUSH1 0x0 PUSH2 0x557 PUSH1 0x12 DUP4 PUSH2 0x36B JUMP JUMPDEST SWAP2 POP PUSH2 0x562 DUP3 PUSH2 0x521 JUMP JUMPDEST PUSH1 0x20 DUP3 ADD SWAP1 POP SWAP2 SWAP1 POP JUMP JUMPDEST PUSH1 0x0 PUSH1 0x20 DUP3 ADD SWAP1 POP DUP2 DUP2 SUB PUSH1 0x0 DUP4 ADD MSTORE PUSH2 0x586 DUP2 PUSH2 0x54A JUMP JUMPDEST SWAP1 POP SWAP2 SWAP1 POP JUMP INVALID LOG2 PUSH5 0x6970667358 0x22 SLT KECCAK256 SWAP16 0xE4 JUMP DUP11 PUSH22 0x6C616FB770081959DB39D76AC1A244DA7A8309C4CEBC BYTE SGT 0xC3 0xA5 0xB8 PUSH5 0x736F6C6343 STOP ADDMOD SLT STOP CALLER "
		},
		"gasEstimates": {
			"creation": {
				"codeDepositCost": "295000",
				"executionCost": "337",
				"totalCost": "295337"
			},
			"external": {
				"getCigar(uint256,string)": "infinite"
			}
		},
		"methodIdentifiers": {
			"getCigar(uint256,string)": "62c53101"
		}
	},
	"abi": [
		{
			"inputs": [
				{
					"internalType": "uint256",
					"name": "_age",
					"type": "uint256"
				},
				{
					"internalType": "string",
					"name": "_name",
					"type": "string"
				}
			],
			"name": "getCigar",
			"outputs": [
				{
					"internalType": "string",
					"name": "",
					"type": "string"
				}
			],
			"stateMutability": "pure",
			"type": "function"
		}
	]
}