{
	"data": {
		"bytecode": {
			"linkReferences": {},
			"object": "60806040526040516100109061007e565b604051809103906000f08015801561002c573d6000803e3d6000fd5b506000806101000a81548173ffffffffffffffffffffffffffffffffffffffff021916908373ffffffffffffffffffffffffffffffffffffffff16021790555034801561007857600080fd5b5061008b565b61067880610b6d83390190565b610ad38061009a6000396000f3fe608060405234801561001057600080fd5b50600436106100415760003560e01c80633beb26c4146100465780639110e78214610078578063a1c35e5c146100a8575b600080fd5b610060600480360381019061005b91906103de565b6100d8565b60405161006f9392919061041a565b60405180910390f35b610092600480360381019061008d91906103de565b610130565b60405161009f91906104e1565b60405180910390f35b6100c260048036038101906100bd91906103de565b610338565b6040516100cf91906104e1565b60405180910390f35b600080600080610e10856100ec9190610561565b90506000603c610e10876101009190610592565b61010a9190610561565b90506000603c8761011b9190610592565b90508282829550955095505050509193909250565b606060008060009054906101000a900473ffffffffffffffffffffffffffffffffffffffff1673ffffffffffffffffffffffffffffffffffffffff16630986e647846040518263ffffffff1660e01b815260040161018e91906105c3565b602060405180830381865afa1580156101ab573d6000803e3d6000fd5b505050506040513d601f19601f820116820180604052508101906101cf91906105f3565b905060008167ffffffffffffffff8111156101ed576101ec610620565b5b60405190808252806020026020018201604052801561021b5781602001602082028036833780820191505090505b50905060008054906101000a900473ffffffffffffffffffffffffffffffffffffffff1673ffffffffffffffffffffffffffffffffffffffff16632ac45d9c856040518263ffffffff1660e01b815260040161027791906105c3565b600060405180830381865afa158015610294573d6000803e3d6000fd5b505050506040513d6000823e3d601f19601f820116820180604052508101906102bd9190610768565b905060005b815181101561030e5760308282815181106102e0576102df6107b1565b5b602002602001018181516102f491906107e0565b91508181525050808061030690610814565b9150506102c2565b50806040516020016103209190610914565b60405160208183030381529060405292505050919050565b60606000806000610348856100d8565b92509250925061035783610130565b61036083610130565b61036983610130565b60405160200161037b93929190610a4b565b6040516020818303038152906040529350505050919050565b6000604051905090565b600080fd5b600080fd5b6000819050919050565b6103bb816103a8565b81146103c657600080fd5b50565b6000813590506103d8816103b2565b92915050565b6000602082840312156103f4576103f361039e565b5b6000610402848285016103c9565b91505092915050565b610414816103a8565b82525050565b600060608201905061042f600083018661040b565b61043c602083018561040b565b610449604083018461040b565b949350505050565b600081519050919050565b600082825260208201905092915050565b60005b8381101561048b578082015181840152602081019050610470565b60008484015250505050565b6000601f19601f8301169050919050565b60006104b382610451565b6104bd818561045c565b93506104cd81856020860161046d565b6104d681610497565b840191505092915050565b600060208201905081810360008301526104fb81846104a8565b905092915050565b7f4e487b7100000000000000000000000000000000000000000000000000000000600052601260045260246000fd5b7f4e487b7100000000000000000000000000000000000000000000000000000000600052601160045260246000fd5b600061056c826103a8565b9150610577836103a8565b92508261058757610586610503565b5b828204905092915050565b600061059d826103a8565b91506105a8836103a8565b9250826105b8576105b7610503565b5b828206905092915050565b60006020820190506105d8600083018461040b565b92915050565b6000815190506105ed816103b2565b92915050565b6000602082840312156106095761060861039e565b5b6000610617848285016105de565b91505092915050565b7f4e487b7100000000000000000000000000000000000000000000000000000000600052604160045260246000fd5b600080fd5b61065d82610497565b810181811067ffffffffffffffff8211171561067c5761067b610620565b5b80604052505050565b600061068f610394565b905061069b8282610654565b919050565b600067ffffffffffffffff8211156106bb576106ba610620565b5b602082029050602081019050919050565b600080fd5b60006106e46106df846106a0565b610685565b90508083825260208201905060208402830185811115610707576107066106cc565b5b835b81811015610730578061071c88826105de565b845260208401935050602081019050610709565b5050509392505050565b600082601f83011261074f5761074e61064f565b5b815161075f8482602086016106d1565b91505092915050565b60006020828403121561077e5761077d61039e565b5b600082015167ffffffffffffffff81111561079c5761079b6103a3565b5b6107a88482850161073a565b91505092915050565b7f4e487b7100000000000000000000000000000000000000000000000000000000600052603260045260246000fd5b60006107eb826103a8565b91506107f6836103a8565b925082820190508082111561080e5761080d610532565b5b92915050565b600061081f826103a8565b91507fffffffffffffffffffffffffffffffffffffffffffffffffffffffffffffffff820361085157610850610532565b5b600182019050919050565b600081519050919050565b600081905092915050565b6000819050602082019050919050565b61088b816103a8565b82525050565b600061089d8383610882565b60208301905092915050565b6000602082019050919050565b60006108c18261085c565b6108cb8185610867565b93506108d683610872565b8060005b838110156109075781516108ee8882610891565b97506108f9836108a9565b9250506001810190506108da565b5085935050505092915050565b600061092082846108b6565b915081905092915050565b600081905092915050565b600061094182610451565b61094b818561092b565b935061095b81856020860161046d565b80840191505092915050565b7f686f757273200000000000000000000000000000000000000000000000000000600082015250565b600061099d60068361092b565b91506109a882610967565b600682019050919050565b7f6d696e7574657320000000000000000000000000000000000000000000000000600082015250565b60006109e960088361092b565b91506109f4826109b3565b600882019050919050565b7f7365636f6e647300000000000000000000000000000000000000000000000000600082015250565b6000610a3560078361092b565b9150610a40826109ff565b600782019050919050565b6000610a578286610936565b9150610a6282610990565b9150610a6e8285610936565b9150610a79826109dc565b9150610a858284610936565b9150610a9082610a28565b915081905094935050505056fea2646970667358221220b45f41bbefa34c67798836ec3c3046bfac4969ab26b043b3b079af6b117ece4d64736f6c63430008120033608060405234801561001057600080fd5b50610658806100206000396000f3fe608060405234801561001057600080fd5b50600436106100365760003560e01c80630986e6471461003b5780632ac45d9c1461006b575b600080fd5b610055600480360381019061005091906101de565b61009b565b604051610062919061021a565b60405180910390f35b610085600480360381019061008091906101de565b6100e0565b60405161009291906102f3565b60405180910390f35b60008082036100ad57600190506100db565b60005b80600a6100bd9190610477565b83106100d65780806100ce906104c2565b9150506100b0565b809150505b919050565b606060006100ed8361009b565b67ffffffffffffffff8111156101065761010561050a565b5b6040519080825280602002602001820160405280156101345781602001602082028036833780820191505090505b50905060006101428461009b565b90505b6000841461019957600a8461015a9190610568565b828261016590610599565b92508281518110610179576101786105c2565b5b602002602001018181525050600a8461019291906105f1565b9350610145565b8192505050919050565b600080fd5b6000819050919050565b6101bb816101a8565b81146101c657600080fd5b50565b6000813590506101d8816101b2565b92915050565b6000602082840312156101f4576101f36101a3565b5b6000610202848285016101c9565b91505092915050565b610214816101a8565b82525050565b600060208201905061022f600083018461020b565b92915050565b600081519050919050565b600082825260208201905092915050565b6000819050602082019050919050565b61026a816101a8565b82525050565b600061027c8383610261565b60208301905092915050565b6000602082019050919050565b60006102a082610235565b6102aa8185610240565b93506102b583610251565b8060005b838110156102e65781516102cd8882610270565b97506102d883610288565b9250506001810190506102b9565b5085935050505092915050565b6000602082019050818103600083015261030d8184610295565b905092915050565b7f4e487b7100000000000000000000000000000000000000000000000000000000600052601160045260246000fd5b60008160011c9050919050565b6000808291508390505b600185111561039b5780860481111561037757610376610315565b5b60018516156103865780820291505b808102905061039485610344565b945061035b565b94509492505050565b6000826103b45760019050610470565b816103c25760009050610470565b81600181146103d857600281146103e257610411565b6001915050610470565b60ff8411156103f4576103f3610315565b5b8360020a91508482111561040b5761040a610315565b5b50610470565b5060208310610133831016604e8410600b84101617156104465782820a90508381111561044157610440610315565b5b610470565b6104538484846001610351565b9250905081840481111561046a57610469610315565b5b81810290505b9392505050565b6000610482826101a8565b915061048d836101a8565b92506104ba7fffffffffffffffffffffffffffffffffffffffffffffffffffffffffffffffff84846103a4565b905092915050565b60006104cd826101a8565b91507fffffffffffffffffffffffffffffffffffffffffffffffffffffffffffffffff82036104ff576104fe610315565b5b600182019050919050565b7f4e487b7100000000000000000000000000000000000000000000000000000000600052604160045260246000fd5b7f4e487b7100000000000000000000000000000000000000000000000000000000600052601260045260246000fd5b6000610573826101a8565b915061057e836101a8565b92508261058e5761058d610539565b5b828206905092915050565b60006105a4826101a8565b9150600082036105b7576105b6610315565b5b600182039050919050565b7f4e487b7100000000000000000000000000000000000000000000000000000000600052603260045260246000fd5b60006105fc826101a8565b9150610607836101a8565b92508261061757610616610539565b5b82820490509291505056fea2646970667358221220fc1302af62021bc09748fe63e379c74b09547d5144ddd9258148135acaca5c1364736f6c63430008120033",
			"opcodes": "PUSH1 0x80 PUSH1 0x40 MSTORE PUSH1 0x40 MLOAD PUSH2 0x10 SWAP1 PUSH2 0x7E JUMP JUMPDEST PUSH1 0x40 MLOAD DUP1 SWAP2 SUB SWAP1 PUSH1 0x0 CREATE DUP1 ISZERO DUP1 ISZERO PUSH2 0x2C JUMPI RETURNDATASIZE PUSH1 0x0 DUP1 RETURNDATACOPY RETURNDATASIZE PUSH1 0x0 REVERT JUMPDEST POP PUSH1 0x0 DUP1 PUSH2 0x100 EXP DUP2 SLOAD DUP2 PUSH20 0xFFFFFFFFFFFFFFFFFFFFFFFFFFFFFFFFFFFFFFFF MUL NOT AND SWAP1 DUP4 PUSH20 0xFFFFFFFFFFFFFFFFFFFFFFFFFFFFFFFFFFFFFFFF AND MUL OR SWAP1 SSTORE POP CALLVALUE DUP1 ISZERO PUSH2 0x78 JUMPI PUSH1 0x0 DUP1 REVERT JUMPDEST POP PUSH2 0x8B JUMP JUMPDEST PUSH2 0x678 DUP1 PUSH2 0xB6D DUP4 CODECOPY ADD SWAP1 JUMP JUMPDEST PUSH2 0xAD3 DUP1 PUSH2 0x9A PUSH1 0x0 CODECOPY PUSH1 0x0 RETURN INVALID PUSH1 0x80 PUSH1 0x40 MSTORE CALLVALUE DUP1 ISZERO PUSH2 0x10 JUMPI PUSH1 0x0 DUP1 REVERT JUMPDEST POP PUSH1 0x4 CALLDATASIZE LT PUSH2 0x41 JUMPI PUSH1 0x0 CALLDATALOAD PUSH1 0xE0 SHR DUP1 PUSH4 0x3BEB26C4 EQ PUSH2 0x46 JUMPI DUP1 PUSH4 0x9110E782 EQ PUSH2 0x78 JUMPI DUP1 PUSH4 0xA1C35E5C EQ PUSH2 0xA8 JUMPI JUMPDEST PUSH1 0x0 DUP1 REVERT JUMPDEST PUSH2 0x60 PUSH1 0x4 DUP1 CALLDATASIZE SUB DUP2 ADD SWAP1 PUSH2 0x5B SWAP2 SWAP1 PUSH2 0x3DE JUMP JUMPDEST PUSH2 0xD8 JUMP JUMPDEST PUSH1 0x40 MLOAD PUSH2 0x6F SWAP4 SWAP3 SWAP2 SWAP1 PUSH2 0x41A JUMP JUMPDEST PUSH1 0x40 MLOAD DUP1 SWAP2 SUB SWAP1 RETURN JUMPDEST PUSH2 0x92 PUSH1 0x4 DUP1 CALLDATASIZE SUB DUP2 ADD SWAP1 PUSH2 0x8D SWAP2 SWAP1 PUSH2 0x3DE JUMP JUMPDEST PUSH2 0x130 JUMP JUMPDEST PUSH1 0x40 MLOAD PUSH2 0x9F SWAP2 SWAP1 PUSH2 0x4E1 JUMP JUMPDEST PUSH1 0x40 MLOAD DUP1 SWAP2 SUB SWAP1 RETURN JUMPDEST PUSH2 0xC2 PUSH1 0x4 DUP1 CALLDATASIZE SUB DUP2 ADD SWAP1 PUSH2 0xBD SWAP2 SWAP1 PUSH2 0x3DE JUMP JUMPDEST PUSH2 0x338 JUMP JUMPDEST PUSH1 0x40 MLOAD PUSH2 0xCF SWAP2 SWAP1 PUSH2 0x4E1 JUMP JUMPDEST PUSH1 0x40 MLOAD DUP1 SWAP2 SUB SWAP1 RETURN JUMPDEST PUSH1 0x0 DUP1 PUSH1 0x0 DUP1 PUSH2 0xE10 DUP6 PUSH2 0xEC SWAP2 SWAP1 PUSH2 0x561 JUMP JUMPDEST SWAP1 POP PUSH1 0x0 PUSH1 0x3C PUSH2 0xE10 DUP8 PUSH2 0x100 SWAP2 SWAP1 PUSH2 0x592 JUMP JUMPDEST PUSH2 0x10A SWAP2 SWAP1 PUSH2 0x561 JUMP JUMPDEST SWAP1 POP PUSH1 0x0 PUSH1 0x3C DUP8 PUSH2 0x11B SWAP2 SWAP1 PUSH2 0x592 JUMP JUMPDEST SWAP1 POP DUP3 DUP3 DUP3 SWAP6 POP SWAP6 POP SWAP6 POP POP POP POP SWAP2 SWAP4 SWAP1 SWAP3 POP JUMP JUMPDEST PUSH1 0x60 PUSH1 0x0 DUP1 PUSH1 0x0 SWAP1 SLOAD SWAP1 PUSH2 0x100 EXP SWAP1 DIV PUSH20 0xFFFFFFFFFFFFFFFFFFFFFFFFFFFFFFFFFFFFFFFF AND PUSH20 0xFFFFFFFFFFFFFFFFFFFFFFFFFFFFFFFFFFFFFFFF AND PUSH4 0x986E647 DUP5 PUSH1 0x40 MLOAD DUP3 PUSH4 0xFFFFFFFF AND PUSH1 0xE0 SHL DUP2 MSTORE PUSH1 0x4 ADD PUSH2 0x18E SWAP2 SWAP1 PUSH2 0x5C3 JUMP JUMPDEST PUSH1 0x20 PUSH1 0x40 MLOAD DUP1 DUP4 SUB DUP2 DUP7 GAS STATICCALL ISZERO DUP1 ISZERO PUSH2 0x1AB JUMPI RETURNDATASIZE PUSH1 0x0 DUP1 RETURNDATACOPY RETURNDATASIZE PUSH1 0x0 REVERT JUMPDEST POP POP POP POP PUSH1 0x40 MLOAD RETURNDATASIZE PUSH1 0x1F NOT PUSH1 0x1F DUP3 ADD AND DUP3 ADD DUP1 PUSH1 0x40 MSTORE POP DUP2 ADD SWAP1 PUSH2 0x1CF SWAP2 SWAP1 PUSH2 0x5F3 JUMP JUMPDEST SWAP1 POP PUSH1 0x0 DUP2 PUSH8 0xFFFFFFFFFFFFFFFF DUP2 GT ISZERO PUSH2 0x1ED JUMPI PUSH2 0x1EC PUSH2 0x620 JUMP JUMPDEST JUMPDEST PUSH1 0x40 MLOAD SWAP1 DUP1 DUP3 MSTORE DUP1 PUSH1 0x20 MUL PUSH1 0x20 ADD DUP3 ADD PUSH1 0x40 MSTORE DUP1 ISZERO PUSH2 0x21B JUMPI DUP2 PUSH1 0x20 ADD PUSH1 0x20 DUP3 MUL DUP1 CALLDATASIZE DUP4 CALLDATACOPY DUP1 DUP3 ADD SWAP2 POP POP SWAP1 POP JUMPDEST POP SWAP1 POP PUSH1 0x0 DUP1 SLOAD SWAP1 PUSH2 0x100 EXP SWAP1 DIV PUSH20 0xFFFFFFFFFFFFFFFFFFFFFFFFFFFFFFFFFFFFFFFF AND PUSH20 0xFFFFFFFFFFFFFFFFFFFFFFFFFFFFFFFFFFFFFFFF AND PUSH4 0x2AC45D9C DUP6 PUSH1 0x40 MLOAD DUP3 PUSH4 0xFFFFFFFF AND PUSH1 0xE0 SHL DUP2 MSTORE PUSH1 0x4 ADD PUSH2 0x277 SWAP2 SWAP1 PUSH2 0x5C3 JUMP JUMPDEST PUSH1 0x0 PUSH1 0x40 MLOAD DUP1 DUP4 SUB DUP2 DUP7 GAS STATICCALL ISZERO DUP1 ISZERO PUSH2 0x294 JUMPI RETURNDATASIZE PUSH1 0x0 DUP1 RETURNDATACOPY RETURNDATASIZE PUSH1 0x0 REVERT JUMPDEST POP POP POP POP PUSH1 0x40 MLOAD RETURNDATASIZE PUSH1 0x0 DUP3 RETURNDATACOPY RETURNDATASIZE PUSH1 0x1F NOT PUSH1 0x1F DUP3 ADD AND DUP3 ADD DUP1 PUSH1 0x40 MSTORE POP DUP2 ADD SWAP1 PUSH2 0x2BD SWAP2 SWAP1 PUSH2 0x768 JUMP JUMPDEST SWAP1 POP PUSH1 0x0 JUMPDEST DUP2 MLOAD DUP2 LT ISZERO PUSH2 0x30E JUMPI PUSH1 0x30 DUP3 DUP3 DUP2 MLOAD DUP2 LT PUSH2 0x2E0 JUMPI PUSH2 0x2DF PUSH2 0x7B1 JUMP JUMPDEST JUMPDEST PUSH1 0x20 MUL PUSH1 0x20 ADD ADD DUP2 DUP2 MLOAD PUSH2 0x2F4 SWAP2 SWAP1 PUSH2 0x7E0 JUMP JUMPDEST SWAP2 POP DUP2 DUP2 MSTORE POP POP DUP1 DUP1 PUSH2 0x306 SWAP1 PUSH2 0x814 JUMP JUMPDEST SWAP2 POP POP PUSH2 0x2C2 JUMP JUMPDEST POP DUP1 PUSH1 0x40 MLOAD PUSH1 0x20 ADD PUSH2 0x320 SWAP2 SWAP1 PUSH2 0x914 JUMP JUMPDEST PUSH1 0x40 MLOAD PUSH1 0x20 DUP2 DUP4 SUB SUB DUP2 MSTORE SWAP1 PUSH1 0x40 MSTORE SWAP3 POP POP POP SWAP2 SWAP1 POP JUMP JUMPDEST PUSH1 0x60 PUSH1 0x0 DUP1 PUSH1 0x0 PUSH2 0x348 DUP6 PUSH2 0xD8 JUMP JUMPDEST SWAP3 POP SWAP3 POP SWAP3 POP PUSH2 0x357 DUP4 PUSH2 0x130 JUMP JUMPDEST PUSH2 0x360 DUP4 PUSH2 0x130 JUMP JUMPDEST PUSH2 0x369 DUP4 PUSH2 0x130 JUMP JUMPDEST PUSH1 0x40 MLOAD PUSH1 0x20 ADD PUSH2 0x37B SWAP4 SWAP3 SWAP2 SWAP1 PUSH2 0xA4B JUMP JUMPDEST PUSH1 0x40 MLOAD PUSH1 0x20 DUP2 DUP4 SUB SUB DUP2 MSTORE SWAP1 PUSH1 0x40 MSTORE SWAP4 POP POP POP POP SWAP2 SWAP1 POP JUMP JUMPDEST PUSH1 0x0 PUSH1 0x40 MLOAD SWAP1 POP SWAP1 JUMP JUMPDEST PUSH1 0x0 DUP1 REVERT JUMPDEST PUSH1 0x0 DUP1 REVERT JUMPDEST PUSH1 0x0 DUP2 SWAP1 POP SWAP2 SWAP1 POP JUMP JUMPDEST PUSH2 0x3BB DUP2 PUSH2 0x3A8 JUMP JUMPDEST DUP2 EQ PUSH2 0x3C6 JUMPI PUSH1 0x0 DUP1 REVERT JUMPDEST POP JUMP JUMPDEST PUSH1 0x0 DUP2 CALLDATALOAD SWAP1 POP PUSH2 0x3D8 DUP2 PUSH2 0x3B2 JUMP JUMPDEST SWAP3 SWAP2 POP POP JUMP JUMPDEST PUSH1 0x0 PUSH1 0x20 DUP3 DUP5 SUB SLT ISZERO PUSH2 0x3F4 JUMPI PUSH2 0x3F3 PUSH2 0x39E JUMP JUMPDEST JUMPDEST PUSH1 0x0 PUSH2 0x402 DUP5 DUP3 DUP6 ADD PUSH2 0x3C9 JUMP JUMPDEST SWAP2 POP POP SWAP3 SWAP2 POP POP JUMP JUMPDEST PUSH2 0x414 DUP2 PUSH2 0x3A8 JUMP JUMPDEST DUP3 MSTORE POP POP JUMP JUMPDEST PUSH1 0x0 PUSH1 0x60 DUP3 ADD SWAP1 POP PUSH2 0x42F PUSH1 0x0 DUP4 ADD DUP7 PUSH2 0x40B JUMP JUMPDEST PUSH2 0x43C PUSH1 0x20 DUP4 ADD DUP6 PUSH2 0x40B JUMP JUMPDEST PUSH2 0x449 PUSH1 0x40 DUP4 ADD DUP5 PUSH2 0x40B JUMP JUMPDEST SWAP5 SWAP4 POP POP POP POP JUMP JUMPDEST PUSH1 0x0 DUP2 MLOAD SWAP1 POP SWAP2 SWAP1 POP JUMP JUMPDEST PUSH1 0x0 DUP3 DUP3 MSTORE PUSH1 0x20 DUP3 ADD SWAP1 POP SWAP3 SWAP2 POP POP JUMP JUMPDEST PUSH1 0x0 JUMPDEST DUP4 DUP2 LT ISZERO PUSH2 0x48B JUMPI DUP1 DUP3 ADD MLOAD DUP2 DUP5 ADD MSTORE PUSH1 0x20 DUP2 ADD SWAP1 POP PUSH2 0x470 JUMP JUMPDEST PUSH1 0x0 DUP5 DUP5 ADD MSTORE POP POP POP POP JUMP JUMPDEST PUSH1 0x0 PUSH1 0x1F NOT PUSH1 0x1F DUP4 ADD AND SWAP1 POP SWAP2 SWAP1 POP JUMP JUMPDEST PUSH1 0x0 PUSH2 0x4B3 DUP3 PUSH2 0x451 JUMP JUMPDEST PUSH2 0x4BD DUP2 DUP6 PUSH2 0x45C JUMP JUMPDEST SWAP4 POP PUSH2 0x4CD DUP2 DUP6 PUSH1 0x20 DUP7 ADD PUSH2 0x46D JUMP JUMPDEST PUSH2 0x4D6 DUP2 PUSH2 0x497 JUMP JUMPDEST DUP5 ADD SWAP2 POP POP SWAP3 SWAP2 POP POP JUMP JUMPDEST PUSH1 0x0 PUSH1 0x20 DUP3 ADD SWAP1 POP DUP2 DUP2 SUB PUSH1 0x0 DUP4 ADD MSTORE PUSH2 0x4FB DUP2 DUP5 PUSH2 0x4A8 JUMP JUMPDEST SWAP1 POP SWAP3 SWAP2 POP POP JUMP JUMPDEST PUSH32 0x4E487B7100000000000000000000000000000000000000000000000000000000 PUSH1 0x0 MSTORE PUSH1 0x12 PUSH1 0x4 MSTORE PUSH1 0x24 PUSH1 0x0 REVERT JUMPDEST PUSH32 0x4E487B7100000000000000000000000000000000000000000000000000000000 PUSH1 0x0 MSTORE PUSH1 0x11 PUSH1 0x4 MSTORE PUSH1 0x24 PUSH1 0x0 REVERT JUMPDEST PUSH1 0x0 PUSH2 0x56C DUP3 PUSH2 0x3A8 JUMP JUMPDEST SWAP2 POP PUSH2 0x577 DUP4 PUSH2 0x3A8 JUMP JUMPDEST SWAP3 POP DUP3 PUSH2 0x587 JUMPI PUSH2 0x586 PUSH2 0x503 JUMP JUMPDEST JUMPDEST DUP3 DUP3 DIV SWAP1 POP SWAP3 SWAP2 POP POP JUMP JUMPDEST PUSH1 0x0 PUSH2 0x59D DUP3 PUSH2 0x3A8 JUMP JUMPDEST SWAP2 POP PUSH2 0x5A8 DUP4 PUSH2 0x3A8 JUMP JUMPDEST SWAP3 POP DUP3 PUSH2 0x5B8 JUMPI PUSH2 0x5B7 PUSH2 0x503 JUMP JUMPDEST JUMPDEST DUP3 DUP3 MOD SWAP1 POP SWAP3 SWAP2 POP POP JUMP JUMPDEST PUSH1 0x0 PUSH1 0x20 DUP3 ADD SWAP1 POP PUSH2 0x5D8 PUSH1 0x0 DUP4 ADD DUP5 PUSH2 0x40B JUMP JUMPDEST SWAP3 SWAP2 POP POP JUMP JUMPDEST PUSH1 0x0 DUP2 MLOAD SWAP1 POP PUSH2 0x5ED DUP2 PUSH2 0x3B2 JUMP JUMPDEST SWAP3 SWAP2 POP POP JUMP JUMPDEST PUSH1 0x0 PUSH1 0x20 DUP3 DUP5 SUB SLT ISZERO PUSH2 0x609 JUMPI PUSH2 0x608 PUSH2 0x39E JUMP JUMPDEST JUMPDEST PUSH1 0x0 PUSH2 0x617 DUP5 DUP3 DUP6 ADD PUSH2 0x5DE JUMP JUMPDEST SWAP2 POP POP SWAP3 SWAP2 POP POP JUMP JUMPDEST PUSH32 0x4E487B7100000000000000000000000000000000000000000000000000000000 PUSH1 0x0 MSTORE PUSH1 0x41 PUSH1 0x4 MSTORE PUSH1 0x24 PUSH1 0x0 REVERT JUMPDEST PUSH1 0x0 DUP1 REVERT JUMPDEST PUSH2 0x65D DUP3 PUSH2 0x497 JUMP JUMPDEST DUP2 ADD DUP2 DUP2 LT PUSH8 0xFFFFFFFFFFFFFFFF DUP3 GT OR ISZERO PUSH2 0x67C JUMPI PUSH2 0x67B PUSH2 0x620 JUMP JUMPDEST JUMPDEST DUP1 PUSH1 0x40 MSTORE POP POP POP JUMP JUMPDEST PUSH1 0x0 PUSH2 0x68F PUSH2 0x394 JUMP JUMPDEST SWAP1 POP PUSH2 0x69B DUP3 DUP3 PUSH2 0x654 JUMP JUMPDEST SWAP2 SWAP1 POP JUMP JUMPDEST PUSH1 0x0 PUSH8 0xFFFFFFFFFFFFFFFF DUP3 GT ISZERO PUSH2 0x6BB JUMPI PUSH2 0x6BA PUSH2 0x620 JUMP JUMPDEST JUMPDEST PUSH1 0x20 DUP3 MUL SWAP1 POP PUSH1 0x20 DUP2 ADD SWAP1 POP SWAP2 SWAP1 POP JUMP JUMPDEST PUSH1 0x0 DUP1 REVERT JUMPDEST PUSH1 0x0 PUSH2 0x6E4 PUSH2 0x6DF DUP5 PUSH2 0x6A0 JUMP JUMPDEST PUSH2 0x685 JUMP JUMPDEST SWAP1 POP DUP1 DUP4 DUP3 MSTORE PUSH1 0x20 DUP3 ADD SWAP1 POP PUSH1 0x20 DUP5 MUL DUP4 ADD DUP6 DUP2 GT ISZERO PUSH2 0x707 JUMPI PUSH2 0x706 PUSH2 0x6CC JUMP JUMPDEST JUMPDEST DUP4 JUMPDEST DUP2 DUP2 LT ISZERO PUSH2 0x730 JUMPI DUP1 PUSH2 0x71C DUP9 DUP3 PUSH2 0x5DE JUMP JUMPDEST DUP5 MSTORE PUSH1 0x20 DUP5 ADD SWAP4 POP POP PUSH1 0x20 DUP2 ADD SWAP1 POP PUSH2 0x709 JUMP JUMPDEST POP POP POP SWAP4 SWAP3 POP POP POP JUMP JUMPDEST PUSH1 0x0 DUP3 PUSH1 0x1F DUP4 ADD SLT PUSH2 0x74F JUMPI PUSH2 0x74E PUSH2 0x64F JUMP JUMPDEST JUMPDEST DUP2 MLOAD PUSH2 0x75F DUP5 DUP3 PUSH1 0x20 DUP7 ADD PUSH2 0x6D1 JUMP JUMPDEST SWAP2 POP POP SWAP3 SWAP2 POP POP JUMP JUMPDEST PUSH1 0x0 PUSH1 0x20 DUP3 DUP5 SUB SLT ISZERO PUSH2 0x77E JUMPI PUSH2 0x77D PUSH2 0x39E JUMP JUMPDEST JUMPDEST PUSH1 0x0 DUP3 ADD MLOAD PUSH8 0xFFFFFFFFFFFFFFFF DUP2 GT ISZERO PUSH2 0x79C JUMPI PUSH2 0x79B PUSH2 0x3A3 JUMP JUMPDEST JUMPDEST PUSH2 0x7A8 DUP5 DUP3 DUP6 ADD PUSH2 0x73A JUMP JUMPDEST SWAP2 POP POP SWAP3 SWAP2 POP POP JUMP JUMPDEST PUSH32 0x4E487B7100000000000000000000000000000000000000000000000000000000 PUSH1 0x0 MSTORE PUSH1 0x32 PUSH1 0x4 MSTORE PUSH1 0x24 PUSH1 0x0 REVERT JUMPDEST PUSH1 0x0 PUSH2 0x7EB DUP3 PUSH2 0x3A8 JUMP JUMPDEST SWAP2 POP PUSH2 0x7F6 DUP4 PUSH2 0x3A8 JUMP JUMPDEST SWAP3 POP DUP3 DUP3 ADD SWAP1 POP DUP1 DUP3 GT ISZERO PUSH2 0x80E JUMPI PUSH2 0x80D PUSH2 0x532 JUMP JUMPDEST JUMPDEST SWAP3 SWAP2 POP POP JUMP JUMPDEST PUSH1 0x0 PUSH2 0x81F DUP3 PUSH2 0x3A8 JUMP JUMPDEST SWAP2 POP PUSH32 0xFFFFFFFFFFFFFFFFFFFFFFFFFFFFFFFFFFFFFFFFFFFFFFFFFFFFFFFFFFFFFFFF DUP3 SUB PUSH2 0x851 JUMPI PUSH2 0x850 PUSH2 0x532 JUMP JUMPDEST JUMPDEST PUSH1 0x1 DUP3 ADD SWAP1 POP SWAP2 SWAP1 POP JUMP JUMPDEST PUSH1 0x0 DUP2 MLOAD SWAP1 POP SWAP2 SWAP1 POP JUMP JUMPDEST PUSH1 0x0 DUP2 SWAP1 POP SWAP3 SWAP2 POP POP JUMP JUMPDEST PUSH1 0x0 DUP2 SWAP1 POP PUSH1 0x20 DUP3 ADD SWAP1 POP SWAP2 SWAP1 POP JUMP JUMPDEST PUSH2 0x88B DUP2 PUSH2 0x3A8 JUMP JUMPDEST DUP3 MSTORE POP POP JUMP JUMPDEST PUSH1 0x0 PUSH2 0x89D DUP4 DUP4 PUSH2 0x882 JUMP JUMPDEST PUSH1 0x20 DUP4 ADD SWAP1 POP SWAP3 SWAP2 POP POP JUMP JUMPDEST PUSH1 0x0 PUSH1 0x20 DUP3 ADD SWAP1 POP SWAP2 SWAP1 POP JUMP JUMPDEST PUSH1 0x0 PUSH2 0x8C1 DUP3 PUSH2 0x85C JUMP JUMPDEST PUSH2 0x8CB DUP2 DUP6 PUSH2 0x867 JUMP JUMPDEST SWAP4 POP PUSH2 0x8D6 DUP4 PUSH2 0x872 JUMP JUMPDEST DUP1 PUSH1 0x0 JUMPDEST DUP4 DUP2 LT ISZERO PUSH2 0x907 JUMPI DUP2 MLOAD PUSH2 0x8EE DUP9 DUP3 PUSH2 0x891 JUMP JUMPDEST SWAP8 POP PUSH2 0x8F9 DUP4 PUSH2 0x8A9 JUMP JUMPDEST SWAP3 POP POP PUSH1 0x1 DUP2 ADD SWAP1 POP PUSH2 0x8DA JUMP JUMPDEST POP DUP6 SWAP4 POP POP POP POP SWAP3 SWAP2 POP POP JUMP JUMPDEST PUSH1 0x0 PUSH2 0x920 DUP3 DUP5 PUSH2 0x8B6 JUMP JUMPDEST SWAP2 POP DUP2 SWAP1 POP SWAP3 SWAP2 POP POP JUMP JUMPDEST PUSH1 0x0 DUP2 SWAP1 POP SWAP3 SWAP2 POP POP JUMP JUMPDEST PUSH1 0x0 PUSH2 0x941 DUP3 PUSH2 0x451 JUMP JUMPDEST PUSH2 0x94B DUP2 DUP6 PUSH2 0x92B JUMP JUMPDEST SWAP4 POP PUSH2 0x95B DUP2 DUP6 PUSH1 0x20 DUP7 ADD PUSH2 0x46D JUMP JUMPDEST DUP1 DUP5 ADD SWAP2 POP POP SWAP3 SWAP2 POP POP JUMP JUMPDEST PUSH32 0x686F757273200000000000000000000000000000000000000000000000000000 PUSH1 0x0 DUP3 ADD MSTORE POP JUMP JUMPDEST PUSH1 0x0 PUSH2 0x99D PUSH1 0x6 DUP4 PUSH2 0x92B JUMP JUMPDEST SWAP2 POP PUSH2 0x9A8 DUP3 PUSH2 0x967 JUMP JUMPDEST PUSH1 0x6 DUP3 ADD SWAP1 POP SWAP2 SWAP1 POP JUMP JUMPDEST PUSH32 0x6D696E7574657320000000000000000000000000000000000000000000000000 PUSH1 0x0 DUP3 ADD MSTORE POP JUMP JUMPDEST PUSH1 0x0 PUSH2 0x9E9 PUSH1 0x8 DUP4 PUSH2 0x92B JUMP JUMPDEST SWAP2 POP PUSH2 0x9F4 DUP3 PUSH2 0x9B3 JUMP JUMPDEST PUSH1 0x8 DUP3 ADD SWAP1 POP SWAP2 SWAP1 POP JUMP JUMPDEST PUSH32 0x7365636F6E647300000000000000000000000000000000000000000000000000 PUSH1 0x0 DUP3 ADD MSTORE POP JUMP JUMPDEST PUSH1 0x0 PUSH2 0xA35 PUSH1 0x7 DUP4 PUSH2 0x92B JUMP JUMPDEST SWAP2 POP PUSH2 0xA40 DUP3 PUSH2 0x9FF JUMP JUMPDEST PUSH1 0x7 DUP3 ADD SWAP1 POP SWAP2 SWAP1 POP JUMP JUMPDEST PUSH1 0x0 PUSH2 0xA57 DUP3 DUP7 PUSH2 0x936 JUMP JUMPDEST SWAP2 POP PUSH2 0xA62 DUP3 PUSH2 0x990 JUMP JUMPDEST SWAP2 POP PUSH2 0xA6E DUP3 DUP6 PUSH2 0x936 JUMP JUMPDEST SWAP2 POP PUSH2 0xA79 DUP3 PUSH2 0x9DC JUMP JUMPDEST SWAP2 POP PUSH2 0xA85 DUP3 DUP5 PUSH2 0x936 JUMP JUMPDEST SWAP2 POP PUSH2 0xA90 DUP3 PUSH2 0xA28 JUMP JUMPDEST SWAP2 POP DUP2 SWAP1 POP SWAP5 SWAP4 POP POP POP POP JUMP INVALID LOG2 PUSH5 0x6970667358 0x22 SLT KECCAK256 0xB4 0x5F COINBASE 0xBB 0xEF LOG3 0x4C PUSH8 0x798836EC3C3046BF 0xAC 0x49 PUSH10 0xAB26B043B3B079AF6B11 PUSH31 0xCE4D64736F6C63430008120033608060405234801561001057600080FD5B50 PUSH2 0x658 DUP1 PUSH2 0x20 PUSH1 0x0 CODECOPY PUSH1 0x0 RETURN INVALID PUSH1 0x80 PUSH1 0x40 MSTORE CALLVALUE DUP1 ISZERO PUSH2 0x10 JUMPI PUSH1 0x0 DUP1 REVERT JUMPDEST POP PUSH1 0x4 CALLDATASIZE LT PUSH2 0x36 JUMPI PUSH1 0x0 CALLDATALOAD PUSH1 0xE0 SHR DUP1 PUSH4 0x986E647 EQ PUSH2 0x3B JUMPI DUP1 PUSH4 0x2AC45D9C EQ PUSH2 0x6B JUMPI JUMPDEST PUSH1 0x0 DUP1 REVERT JUMPDEST PUSH2 0x55 PUSH1 0x4 DUP1 CALLDATASIZE SUB DUP2 ADD SWAP1 PUSH2 0x50 SWAP2 SWAP1 PUSH2 0x1DE JUMP JUMPDEST PUSH2 0x9B JUMP JUMPDEST PUSH1 0x40 MLOAD PUSH2 0x62 SWAP2 SWAP1 PUSH2 0x21A JUMP JUMPDEST PUSH1 0x40 MLOAD DUP1 SWAP2 SUB SWAP1 RETURN JUMPDEST PUSH2 0x85 PUSH1 0x4 DUP1 CALLDATASIZE SUB DUP2 ADD SWAP1 PUSH2 0x80 SWAP2 SWAP1 PUSH2 0x1DE JUMP JUMPDEST PUSH2 0xE0 JUMP JUMPDEST PUSH1 0x40 MLOAD PUSH2 0x92 SWAP2 SWAP1 PUSH2 0x2F3 JUMP JUMPDEST PUSH1 0x40 MLOAD DUP1 SWAP2 SUB SWAP1 RETURN JUMPDEST PUSH1 0x0 DUP1 DUP3 SUB PUSH2 0xAD JUMPI PUSH1 0x1 SWAP1 POP PUSH2 0xDB JUMP JUMPDEST PUSH1 0x0 JUMPDEST DUP1 PUSH1 0xA PUSH2 0xBD SWAP2 SWAP1 PUSH2 0x477 JUMP JUMPDEST DUP4 LT PUSH2 0xD6 JUMPI DUP1 DUP1 PUSH2 0xCE SWAP1 PUSH2 0x4C2 JUMP JUMPDEST SWAP2 POP POP PUSH2 0xB0 JUMP JUMPDEST DUP1 SWAP2 POP POP JUMPDEST SWAP2 SWAP1 POP JUMP JUMPDEST PUSH1 0x60 PUSH1 0x0 PUSH2 0xED DUP4 PUSH2 0x9B JUMP JUMPDEST PUSH8 0xFFFFFFFFFFFFFFFF DUP2 GT ISZERO PUSH2 0x106 JUMPI PUSH2 0x105 PUSH2 0x50A JUMP JUMPDEST JUMPDEST PUSH1 0x40 MLOAD SWAP1 DUP1 DUP3 MSTORE DUP1 PUSH1 0x20 MUL PUSH1 0x20 ADD DUP3 ADD PUSH1 0x40 MSTORE DUP1 ISZERO PUSH2 0x134 JUMPI DUP2 PUSH1 0x20 ADD PUSH1 0x20 DUP3 MUL DUP1 CALLDATASIZE DUP4 CALLDATACOPY DUP1 DUP3 ADD SWAP2 POP POP SWAP1 POP JUMPDEST POP SWAP1 POP PUSH1 0x0 PUSH2 0x142 DUP5 PUSH2 0x9B JUMP JUMPDEST SWAP1 POP JUMPDEST PUSH1 0x0 DUP5 EQ PUSH2 0x199 JUMPI PUSH1 0xA DUP5 PUSH2 0x15A SWAP2 SWAP1 PUSH2 0x568 JUMP JUMPDEST DUP3 DUP3 PUSH2 0x165 SWAP1 PUSH2 0x599 JUMP JUMPDEST SWAP3 POP DUP3 DUP2 MLOAD DUP2 LT PUSH2 0x179 JUMPI PUSH2 0x178 PUSH2 0x5C2 JUMP JUMPDEST JUMPDEST PUSH1 0x20 MUL PUSH1 0x20 ADD ADD DUP2 DUP2 MSTORE POP POP PUSH1 0xA DUP5 PUSH2 0x192 SWAP2 SWAP1 PUSH2 0x5F1 JUMP JUMPDEST SWAP4 POP PUSH2 0x145 JUMP JUMPDEST DUP2 SWAP3 POP POP POP SWAP2 SWAP1 POP JUMP JUMPDEST PUSH1 0x0 DUP1 REVERT JUMPDEST PUSH1 0x0 DUP2 SWAP1 POP SWAP2 SWAP1 POP JUMP JUMPDEST PUSH2 0x1BB DUP2 PUSH2 0x1A8 JUMP JUMPDEST DUP2 EQ PUSH2 0x1C6 JUMPI PUSH1 0x0 DUP1 REVERT JUMPDEST POP JUMP JUMPDEST PUSH1 0x0 DUP2 CALLDATALOAD SWAP1 POP PUSH2 0x1D8 DUP2 PUSH2 0x1B2 JUMP JUMPDEST SWAP3 SWAP2 POP POP JUMP JUMPDEST PUSH1 0x0 PUSH1 0x20 DUP3 DUP5 SUB SLT ISZERO PUSH2 0x1F4 JUMPI PUSH2 0x1F3 PUSH2 0x1A3 JUMP JUMPDEST JUMPDEST PUSH1 0x0 PUSH2 0x202 DUP5 DUP3 DUP6 ADD PUSH2 0x1C9 JUMP JUMPDEST SWAP2 POP POP SWAP3 SWAP2 POP POP JUMP JUMPDEST PUSH2 0x214 DUP2 PUSH2 0x1A8 JUMP JUMPDEST DUP3 MSTORE POP POP JUMP JUMPDEST PUSH1 0x0 PUSH1 0x20 DUP3 ADD SWAP1 POP PUSH2 0x22F PUSH1 0x0 DUP4 ADD DUP5 PUSH2 0x20B JUMP JUMPDEST SWAP3 SWAP2 POP POP JUMP JUMPDEST PUSH1 0x0 DUP2 MLOAD SWAP1 POP SWAP2 SWAP1 POP JUMP JUMPDEST PUSH1 0x0 DUP3 DUP3 MSTORE PUSH1 0x20 DUP3 ADD SWAP1 POP SWAP3 SWAP2 POP POP JUMP JUMPDEST PUSH1 0x0 DUP2 SWAP1 POP PUSH1 0x20 DUP3 ADD SWAP1 POP SWAP2 SWAP1 POP JUMP JUMPDEST PUSH2 0x26A DUP2 PUSH2 0x1A8 JUMP JUMPDEST DUP3 MSTORE POP POP JUMP JUMPDEST PUSH1 0x0 PUSH2 0x27C DUP4 DUP4 PUSH2 0x261 JUMP JUMPDEST PUSH1 0x20 DUP4 ADD SWAP1 POP SWAP3 SWAP2 POP POP JUMP JUMPDEST PUSH1 0x0 PUSH1 0x20 DUP3 ADD SWAP1 POP SWAP2 SWAP1 POP JUMP JUMPDEST PUSH1 0x0 PUSH2 0x2A0 DUP3 PUSH2 0x235 JUMP JUMPDEST PUSH2 0x2AA DUP2 DUP6 PUSH2 0x240 JUMP JUMPDEST SWAP4 POP PUSH2 0x2B5 DUP4 PUSH2 0x251 JUMP JUMPDEST DUP1 PUSH1 0x0 JUMPDEST DUP4 DUP2 LT ISZERO PUSH2 0x2E6 JUMPI DUP2 MLOAD PUSH2 0x2CD DUP9 DUP3 PUSH2 0x270 JUMP JUMPDEST SWAP8 POP PUSH2 0x2D8 DUP4 PUSH2 0x288 JUMP JUMPDEST SWAP3 POP POP PUSH1 0x1 DUP2 ADD SWAP1 POP PUSH2 0x2B9 JUMP JUMPDEST POP DUP6 SWAP4 POP POP POP POP SWAP3 SWAP2 POP POP JUMP JUMPDEST PUSH1 0x0 PUSH1 0x20 DUP3 ADD SWAP1 POP DUP2 DUP2 SUB PUSH1 0x0 DUP4 ADD MSTORE PUSH2 0x30D DUP2 DUP5 PUSH2 0x295 JUMP JUMPDEST SWAP1 POP SWAP3 SWAP2 POP POP JUMP JUMPDEST PUSH32 0x4E487B7100000000000000000000000000000000000000000000000000000000 PUSH1 0x0 MSTORE PUSH1 0x11 PUSH1 0x4 MSTORE PUSH1 0x24 PUSH1 0x0 REVERT JUMPDEST PUSH1 0x0 DUP2 PUSH1 0x1 SHR SWAP1 POP SWAP2 SWAP1 POP JUMP JUMPDEST PUSH1 0x0 DUP1 DUP3 SWAP2 POP DUP4 SWAP1 POP JUMPDEST PUSH1 0x1 DUP6 GT ISZERO PUSH2 0x39B JUMPI DUP1 DUP7 DIV DUP2 GT ISZERO PUSH2 0x377 JUMPI PUSH2 0x376 PUSH2 0x315 JUMP JUMPDEST JUMPDEST PUSH1 0x1 DUP6 AND ISZERO PUSH2 0x386 JUMPI DUP1 DUP3 MUL SWAP2 POP JUMPDEST DUP1 DUP2 MUL SWAP1 POP PUSH2 0x394 DUP6 PUSH2 0x344 JUMP JUMPDEST SWAP5 POP PUSH2 0x35B JUMP JUMPDEST SWAP5 POP SWAP5 SWAP3 POP POP POP JUMP JUMPDEST PUSH1 0x0 DUP3 PUSH2 0x3B4 JUMPI PUSH1 0x1 SWAP1 POP PUSH2 0x470 JUMP JUMPDEST DUP2 PUSH2 0x3C2 JUMPI PUSH1 0x0 SWAP1 POP PUSH2 0x470 JUMP JUMPDEST DUP2 PUSH1 0x1 DUP2 EQ PUSH2 0x3D8 JUMPI PUSH1 0x2 DUP2 EQ PUSH2 0x3E2 JUMPI PUSH2 0x411 JUMP JUMPDEST PUSH1 0x1 SWAP2 POP POP PUSH2 0x470 JUMP JUMPDEST PUSH1 0xFF DUP5 GT ISZERO PUSH2 0x3F4 JUMPI PUSH2 0x3F3 PUSH2 0x315 JUMP JUMPDEST JUMPDEST DUP4 PUSH1 0x2 EXP SWAP2 POP DUP5 DUP3 GT ISZERO PUSH2 0x40B JUMPI PUSH2 0x40A PUSH2 0x315 JUMP JUMPDEST JUMPDEST POP PUSH2 0x470 JUMP JUMPDEST POP PUSH1 0x20 DUP4 LT PUSH2 0x133 DUP4 LT AND PUSH1 0x4E DUP5 LT PUSH1 0xB DUP5 LT AND OR ISZERO PUSH2 0x446 JUMPI DUP3 DUP3 EXP SWAP1 POP DUP4 DUP2 GT ISZERO PUSH2 0x441 JUMPI PUSH2 0x440 PUSH2 0x315 JUMP JUMPDEST JUMPDEST PUSH2 0x470 JUMP JUMPDEST PUSH2 0x453 DUP5 DUP5 DUP5 PUSH1 0x1 PUSH2 0x351 JUMP JUMPDEST SWAP3 POP SWAP1 POP DUP2 DUP5 DIV DUP2 GT ISZERO PUSH2 0x46A JUMPI PUSH2 0x469 PUSH2 0x315 JUMP JUMPDEST JUMPDEST DUP2 DUP2 MUL SWAP1 POP JUMPDEST SWAP4 SWAP3 POP POP POP JUMP JUMPDEST PUSH1 0x0 PUSH2 0x482 DUP3 PUSH2 0x1A8 JUMP JUMPDEST SWAP2 POP PUSH2 0x48D DUP4 PUSH2 0x1A8 JUMP JUMPDEST SWAP3 POP PUSH2 0x4BA PUSH32 0xFFFFFFFFFFFFFFFFFFFFFFFFFFFFFFFFFFFFFFFFFFFFFFFFFFFFFFFFFFFFFFFF DUP5 DUP5 PUSH2 0x3A4 JUMP JUMPDEST SWAP1 POP SWAP3 SWAP2 POP POP JUMP JUMPDEST PUSH1 0x0 PUSH2 0x4CD DUP3 PUSH2 0x1A8 JUMP JUMPDEST SWAP2 POP PUSH32 0xFFFFFFFFFFFFFFFFFFFFFFFFFFFFFFFFFFFFFFFFFFFFFFFFFFFFFFFFFFFFFFFF DUP3 SUB PUSH2 0x4FF JUMPI PUSH2 0x4FE PUSH2 0x315 JUMP JUMPDEST JUMPDEST PUSH1 0x1 DUP3 ADD SWAP1 POP SWAP2 SWAP1 POP JUMP JUMPDEST PUSH32 0x4E487B7100000000000000000000000000000000000000000000000000000000 PUSH1 0x0 MSTORE PUSH1 0x41 PUSH1 0x4 MSTORE PUSH1 0x24 PUSH1 0x0 REVERT JUMPDEST PUSH32 0x4E487B7100000000000000000000000000000000000000000000000000000000 PUSH1 0x0 MSTORE PUSH1 0x12 PUSH1 0x4 MSTORE PUSH1 0x24 PUSH1 0x0 REVERT JUMPDEST PUSH1 0x0 PUSH2 0x573 DUP3 PUSH2 0x1A8 JUMP JUMPDEST SWAP2 POP PUSH2 0x57E DUP4 PUSH2 0x1A8 JUMP JUMPDEST SWAP3 POP DUP3 PUSH2 0x58E JUMPI PUSH2 0x58D PUSH2 0x539 JUMP JUMPDEST JUMPDEST DUP3 DUP3 MOD SWAP1 POP SWAP3 SWAP2 POP POP JUMP JUMPDEST PUSH1 0x0 PUSH2 0x5A4 DUP3 PUSH2 0x1A8 JUMP JUMPDEST SWAP2 POP PUSH1 0x0 DUP3 SUB PUSH2 0x5B7 JUMPI PUSH2 0x5B6 PUSH2 0x315 JUMP JUMPDEST JUMPDEST PUSH1 0x1 DUP3 SUB SWAP1 POP SWAP2 SWAP1 POP JUMP JUMPDEST PUSH32 0x4E487B7100000000000000000000000000000000000000000000000000000000 PUSH1 0x0 MSTORE PUSH1 0x32 PUSH1 0x4 MSTORE PUSH1 0x24 PUSH1 0x0 REVERT JUMPDEST PUSH1 0x0 PUSH2 0x5FC DUP3 PUSH2 0x1A8 JUMP JUMPDEST SWAP2 POP PUSH2 0x607 DUP4 PUSH2 0x1A8 JUMP JUMPDEST SWAP3 POP DUP3 PUSH2 0x617 JUMPI PUSH2 0x616 PUSH2 0x539 JUMP JUMPDEST JUMPDEST DUP3 DUP3 DIV SWAP1 POP SWAP3 SWAP2 POP POP JUMP INVALID LOG2 PUSH5 0x6970667358 0x22 SLT KECCAK256 0xFC SGT MUL 0xAF PUSH3 0x21BC0 SWAP8 BASEFEE INVALID PUSH4 0xE379C74B MULMOD SLOAD PUSH30 0x5144DDD9258148135ACACA5C1364736F6C63430008120033000000000000 "
		},
		"gasEstimates": {
			"creation": {
				"codeDepositCost": "554200",
				"executionCost": "infinite",
				"totalCost": "infinite"
			},
			"external": {
				"HMS(uint256)": "infinite",
				"concat(uint256)": "infinite",
				"setTime(uint256)": "infinite"
			}
		},
		"methodIdentifiers": {
			"HMS(uint256)": "a1c35e5c",
			"concat(uint256)": "9110e782",
			"setTime(uint256)": "3beb26c4"
		}
	},
	"abi": [
		{
			"inputs": [
				{
					"internalType": "uint256",
					"name": "_n",
					"type": "uint256"
				}
			],
			"name": "HMS",
			"outputs": [
				{
					"internalType": "string",
					"name": "",
					"type": "string"
				}
			],
			"stateMutability": "view",
			"type": "function"
		},
		{
			"inputs": [
				{
					"internalType": "uint256",
					"name": "a",
					"type": "uint256"
				}
			],
			"name": "concat",
			"outputs": [
				{
					"internalType": "string",
					"name": "",
					"type": "string"
				}
			],
			"stateMutability": "view",
			"type": "function"
		},
		{
			"inputs": [
				{
					"internalType": "uint256",
					"name": "_n",
					"type": "uint256"
				}
			],
			"name": "setTime",
			"outputs": [
				{
					"internalType": "uint256",
					"name": "",
					"type": "uint256"
				},
				{
					"internalType": "uint256",
					"name": "",
					"type": "uint256"
				},
				{
					"internalType": "uint256",
					"name": "",
					"type": "uint256"
				}
			],
			"stateMutability": "pure",
			"type": "function"
		}
	]
}