{
	"data": {
		"bytecode": {
			"linkReferences": {},
			"object": "60806040526040518060800160405280600160ff168152602001600260ff168152602001600360ff168152602001600460ff1681525060029060046200004792919062000143565b5060405180604001604052806040518060400160405280600181526020017f610000000000000000000000000000000000000000000000000000000000000081525081526020016040518060400160405280600181526020017f62000000000000000000000000000000000000000000000000000000000000008152508152506003906002620000d99291906200019a565b5073ab8483f64d9c6d1ecf9b849ae677dd3315835cb2600560006101000a81548173ffffffffffffffffffffffffffffffffffffffff021916908373ffffffffffffffffffffffffffffffffffffffff1602179055503480156200013c57600080fd5b50620005e8565b82805482825590600052602060002090810192821562000187579160200282015b8281111562000186578251829060ff1690559160200191906001019062000164565b5b509050620001969190620001fa565b5090565b828054828255906000526020600020908101928215620001e7579160200282015b82811115620001e6578251829081620001d5919062000501565b5091602001919060010190620001bb565b5b509050620001f6919062000219565b5090565b5b8082111562000215576000816000905550600101620001fb565b5090565b5b808211156200023d576000818162000233919062000241565b506001016200021a565b5090565b5080546200024f90620002f0565b6000825580601f1062000263575062000284565b601f016020900490600052602060002090810190620002839190620001fa565b5b50565b600081519050919050565b7f4e487b7100000000000000000000000000000000000000000000000000000000600052604160045260246000fd5b7f4e487b7100000000000000000000000000000000000000000000000000000000600052602260045260246000fd5b600060028204905060018216806200030957607f821691505b6020821081036200031f576200031e620002c1565b5b50919050565b60008190508160005260206000209050919050565b60006020601f8301049050919050565b600082821b905092915050565b600060088302620003897fffffffffffffffffffffffffffffffffffffffffffffffffffffffffffffffff826200034a565b6200039586836200034a565b95508019841693508086168417925050509392505050565b6000819050919050565b6000819050919050565b6000620003e2620003dc620003d684620003ad565b620003b7565b620003ad565b9050919050565b6000819050919050565b620003fe83620003c1565b620004166200040d82620003e9565b84845462000357565b825550505050565b600090565b6200042d6200041e565b6200043a818484620003f3565b505050565b5b8181101562000462576200045660008262000423565b60018101905062000440565b5050565b601f821115620004b1576200047b8162000325565b62000486846200033a565b8101602085101562000496578190505b620004ae620004a5856200033a565b8301826200043f565b50505b505050565b600082821c905092915050565b6000620004d660001984600802620004b6565b1980831691505092915050565b6000620004f18383620004c3565b9150826002028217905092915050565b6200050c8262000287565b67ffffffffffffffff81111562000528576200052762000292565b5b620005348254620002f0565b6200054182828562000466565b600060209050601f83116001811462000579576000841562000564578287015190505b620005708582620004e3565b865550620005e0565b601f198416620005898662000325565b60005b82811015620005b3578489015182556001820191506020850194506020810190506200058c565b86831015620005d35784890151620005cf601f891682620004c3565b8355505b6001600288020188555050505b505050505050565b610c2e80620005f86000396000f3fe6080604052600436106100295760003560e01c806306661abd1461002e578063bb6d97ec14610059575b600080fd5b34801561003a57600080fd5b50610043610075565b604051610050919061052a565b60405180910390f35b610073600480360381019061006e91906106cb565b61007b565b005b60045481565b60405180608001604052808781526020018681526020018581526020018481525060009060046100ac9291906103ea565b5060405180604001604052808381526020018281525060019060026100d2929190610437565b5066b1a2bc2ec5000034146100e657600080fd5b60005b60048110156101835760005b600481101561016f576002818154811061011257610111610790565b5b90600052602060002001546000838154811061013157610130610790565b5b90600052602060002001540361015c5760016004600082825461015491906107ee565b925050819055505b808061016790610822565b9150506100f5565b50808061017b90610822565b9150506100e9565b5060005b600281101561026b5760005b600281101561025757600381815481106101b0576101af610790565b5b906000526020600020016040516020016101ca919061096d565b60405160208183030381529060405280519060200120600183815481106101f4576101f3610790565b5b9060005260206000200160405160200161020e919061096d565b60405160208183030381529060405280519060200120036102445760016004600082825461023c91906107ee565b925050819055505b808061024f90610822565b915050610193565b50808061026390610822565b915050610187565b506006600454036102ca573373ffffffffffffffffffffffffffffffffffffffff166108fc670de0b6b3a76400009081150290604051600060405180830381858888f193505050501580156102c4573d6000803e3d6000fd5b506103e2565b600560045403610328573373ffffffffffffffffffffffffffffffffffffffff166108fc670a688906bd8b00009081150290604051600060405180830381858888f19350505050158015610322573d6000803e3d6000fd5b506103e1565b6004805403610385573373ffffffffffffffffffffffffffffffffffffffff166108fc6703782dace9d900009081150290604051600060405180830381858888f1935050505015801561037f573d6000803e3d6000fd5b506103e0565b6003600454036103df573373ffffffffffffffffffffffffffffffffffffffff166108fc67016345785d8a00009081150290604051600060405180830381858888f193505050501580156103dd573d6000803e3d6000fd5b505b5b5b5b505050505050565b828054828255906000526020600020908101928215610426579160200282015b8281111561042557825182559160200191906001019061040a565b5b5090506104339190610490565b5090565b82805482825590600052602060002090810192821561047f579160200282015b8281111561047e57825182908161046e9190610b26565b5091602001919060010190610457565b5b50905061048c91906104ad565b5090565b5b808211156104a9576000816000905550600101610491565b5090565b5b808211156104cd57600081816104c491906104d1565b506001016104ae565b5090565b5080546104dd90610899565b6000825580601f106104ef575061050e565b601f01602090049060005260206000209081019061050d9190610490565b5b50565b6000819050919050565b61052481610511565b82525050565b600060208201905061053f600083018461051b565b92915050565b6000604051905090565b600080fd5b600080fd5b61056281610511565b811461056d57600080fd5b50565b60008135905061057f81610559565b92915050565b600080fd5b600080fd5b6000601f19601f8301169050919050565b7f4e487b7100000000000000000000000000000000000000000000000000000000600052604160045260246000fd5b6105d88261058f565b810181811067ffffffffffffffff821117156105f7576105f66105a0565b5b80604052505050565b600061060a610545565b905061061682826105cf565b919050565b600067ffffffffffffffff821115610636576106356105a0565b5b61063f8261058f565b9050602081019050919050565b82818337600083830152505050565b600061066e6106698461061b565b610600565b90508281526020810184848401111561068a5761068961058a565b5b61069584828561064c565b509392505050565b600082601f8301126106b2576106b1610585565b5b81356106c284826020860161065b565b91505092915050565b60008060008060008060c087890312156106e8576106e761054f565b5b60006106f689828a01610570565b965050602061070789828a01610570565b955050604061071889828a01610570565b945050606061072989828a01610570565b935050608087013567ffffffffffffffff81111561074a57610749610554565b5b61075689828a0161069d565b92505060a087013567ffffffffffffffff81111561077757610776610554565b5b61078389828a0161069d565b9150509295509295509295565b7f4e487b7100000000000000000000000000000000000000000000000000000000600052603260045260246000fd5b7f4e487b7100000000000000000000000000000000000000000000000000000000600052601160045260246000fd5b60006107f982610511565b915061080483610511565b925082820190508082111561081c5761081b6107bf565b5b92915050565b600061082d82610511565b91507fffffffffffffffffffffffffffffffffffffffffffffffffffffffffffffffff820361085f5761085e6107bf565b5b600182019050919050565b7f4e487b7100000000000000000000000000000000000000000000000000000000600052602260045260246000fd5b600060028204905060018216806108b157607f821691505b6020821081036108c4576108c361086a565b5b50919050565b600081905092915050565b60008190508160005260206000209050919050565b600081546108f781610899565b61090181866108ca565b9450600182166000811461091c576001811461093157610964565b60ff1983168652811515820286019350610964565b61093a856108d5565b60005b8381101561095c5781548189015260018201915060208101905061093d565b838801955050505b50505092915050565b600061097982846108ea565b915081905092915050565b600081519050919050565b60006020601f8301049050919050565b600082821b905092915050565b6000600883026109dc7fffffffffffffffffffffffffffffffffffffffffffffffffffffffffffffffff8261099f565b6109e6868361099f565b95508019841693508086168417925050509392505050565b6000819050919050565b6000610a23610a1e610a1984610511565b6109fe565b610511565b9050919050565b6000819050919050565b610a3d83610a08565b610a51610a4982610a2a565b8484546109ac565b825550505050565b600090565b610a66610a59565b610a71818484610a34565b505050565b5b81811015610a9557610a8a600082610a5e565b600181019050610a77565b5050565b601f821115610ada57610aab816108d5565b610ab48461098f565b81016020851015610ac3578190505b610ad7610acf8561098f565b830182610a76565b50505b505050565b600082821c905092915050565b6000610afd60001984600802610adf565b1980831691505092915050565b6000610b168383610aec565b9150826002028217905092915050565b610b2f82610984565b67ffffffffffffffff811115610b4857610b476105a0565b5b610b528254610899565b610b5d828285610a99565b600060209050601f831160018114610b905760008415610b7e578287015190505b610b888582610b0a565b865550610bf0565b601f198416610b9e866108d5565b60005b82811015610bc657848901518255600182019150602085019450602081019050610ba1565b86831015610be35784890151610bdf601f891682610aec565b8355505b6001600288020188555050505b50505050505056fea2646970667358221220811037cbac90c2626a07aa00572fb952a62383c192d64fccc7c01f0074616e5364736f6c63430008120033",
			"opcodes": "PUSH1 0x80 PUSH1 0x40 MSTORE PUSH1 0x40 MLOAD DUP1 PUSH1 0x80 ADD PUSH1 0x40 MSTORE DUP1 PUSH1 0x1 PUSH1 0xFF AND DUP2 MSTORE PUSH1 0x20 ADD PUSH1 0x2 PUSH1 0xFF AND DUP2 MSTORE PUSH1 0x20 ADD PUSH1 0x3 PUSH1 0xFF AND DUP2 MSTORE PUSH1 0x20 ADD PUSH1 0x4 PUSH1 0xFF AND DUP2 MSTORE POP PUSH1 0x2 SWAP1 PUSH1 0x4 PUSH3 0x47 SWAP3 SWAP2 SWAP1 PUSH3 0x143 JUMP JUMPDEST POP PUSH1 0x40 MLOAD DUP1 PUSH1 0x40 ADD PUSH1 0x40 MSTORE DUP1 PUSH1 0x40 MLOAD DUP1 PUSH1 0x40 ADD PUSH1 0x40 MSTORE DUP1 PUSH1 0x1 DUP2 MSTORE PUSH1 0x20 ADD PUSH32 0x6100000000000000000000000000000000000000000000000000000000000000 DUP2 MSTORE POP DUP2 MSTORE PUSH1 0x20 ADD PUSH1 0x40 MLOAD DUP1 PUSH1 0x40 ADD PUSH1 0x40 MSTORE DUP1 PUSH1 0x1 DUP2 MSTORE PUSH1 0x20 ADD PUSH32 0x6200000000000000000000000000000000000000000000000000000000000000 DUP2 MSTORE POP DUP2 MSTORE POP PUSH1 0x3 SWAP1 PUSH1 0x2 PUSH3 0xD9 SWAP3 SWAP2 SWAP1 PUSH3 0x19A JUMP JUMPDEST POP PUSH20 0xAB8483F64D9C6D1ECF9B849AE677DD3315835CB2 PUSH1 0x5 PUSH1 0x0 PUSH2 0x100 EXP DUP2 SLOAD DUP2 PUSH20 0xFFFFFFFFFFFFFFFFFFFFFFFFFFFFFFFFFFFFFFFF MUL NOT AND SWAP1 DUP4 PUSH20 0xFFFFFFFFFFFFFFFFFFFFFFFFFFFFFFFFFFFFFFFF AND MUL OR SWAP1 SSTORE POP CALLVALUE DUP1 ISZERO PUSH3 0x13C JUMPI PUSH1 0x0 DUP1 REVERT JUMPDEST POP PUSH3 0x5E8 JUMP JUMPDEST DUP3 DUP1 SLOAD DUP3 DUP3 SSTORE SWAP1 PUSH1 0x0 MSTORE PUSH1 0x20 PUSH1 0x0 KECCAK256 SWAP1 DUP2 ADD SWAP3 DUP3 ISZERO PUSH3 0x187 JUMPI SWAP2 PUSH1 0x20 MUL DUP3 ADD JUMPDEST DUP3 DUP2 GT ISZERO PUSH3 0x186 JUMPI DUP3 MLOAD DUP3 SWAP1 PUSH1 0xFF AND SWAP1 SSTORE SWAP2 PUSH1 0x20 ADD SWAP2 SWAP1 PUSH1 0x1 ADD SWAP1 PUSH3 0x164 JUMP JUMPDEST JUMPDEST POP SWAP1 POP PUSH3 0x196 SWAP2 SWAP1 PUSH3 0x1FA JUMP JUMPDEST POP SWAP1 JUMP JUMPDEST DUP3 DUP1 SLOAD DUP3 DUP3 SSTORE SWAP1 PUSH1 0x0 MSTORE PUSH1 0x20 PUSH1 0x0 KECCAK256 SWAP1 DUP2 ADD SWAP3 DUP3 ISZERO PUSH3 0x1E7 JUMPI SWAP2 PUSH1 0x20 MUL DUP3 ADD JUMPDEST DUP3 DUP2 GT ISZERO PUSH3 0x1E6 JUMPI DUP3 MLOAD DUP3 SWAP1 DUP2 PUSH3 0x1D5 SWAP2 SWAP1 PUSH3 0x501 JUMP JUMPDEST POP SWAP2 PUSH1 0x20 ADD SWAP2 SWAP1 PUSH1 0x1 ADD SWAP1 PUSH3 0x1BB JUMP JUMPDEST JUMPDEST POP SWAP1 POP PUSH3 0x1F6 SWAP2 SWAP1 PUSH3 0x219 JUMP JUMPDEST POP SWAP1 JUMP JUMPDEST JUMPDEST DUP1 DUP3 GT ISZERO PUSH3 0x215 JUMPI PUSH1 0x0 DUP2 PUSH1 0x0 SWAP1 SSTORE POP PUSH1 0x1 ADD PUSH3 0x1FB JUMP JUMPDEST POP SWAP1 JUMP JUMPDEST JUMPDEST DUP1 DUP3 GT ISZERO PUSH3 0x23D JUMPI PUSH1 0x0 DUP2 DUP2 PUSH3 0x233 SWAP2 SWAP1 PUSH3 0x241 JUMP JUMPDEST POP PUSH1 0x1 ADD PUSH3 0x21A JUMP JUMPDEST POP SWAP1 JUMP JUMPDEST POP DUP1 SLOAD PUSH3 0x24F SWAP1 PUSH3 0x2F0 JUMP JUMPDEST PUSH1 0x0 DUP3 SSTORE DUP1 PUSH1 0x1F LT PUSH3 0x263 JUMPI POP PUSH3 0x284 JUMP JUMPDEST PUSH1 0x1F ADD PUSH1 0x20 SWAP1 DIV SWAP1 PUSH1 0x0 MSTORE PUSH1 0x20 PUSH1 0x0 KECCAK256 SWAP1 DUP2 ADD SWAP1 PUSH3 0x283 SWAP2 SWAP1 PUSH3 0x1FA JUMP JUMPDEST JUMPDEST POP JUMP JUMPDEST PUSH1 0x0 DUP2 MLOAD SWAP1 POP SWAP2 SWAP1 POP JUMP JUMPDEST PUSH32 0x4E487B7100000000000000000000000000000000000000000000000000000000 PUSH1 0x0 MSTORE PUSH1 0x41 PUSH1 0x4 MSTORE PUSH1 0x24 PUSH1 0x0 REVERT JUMPDEST PUSH32 0x4E487B7100000000000000000000000000000000000000000000000000000000 PUSH1 0x0 MSTORE PUSH1 0x22 PUSH1 0x4 MSTORE PUSH1 0x24 PUSH1 0x0 REVERT JUMPDEST PUSH1 0x0 PUSH1 0x2 DUP3 DIV SWAP1 POP PUSH1 0x1 DUP3 AND DUP1 PUSH3 0x309 JUMPI PUSH1 0x7F DUP3 AND SWAP2 POP JUMPDEST PUSH1 0x20 DUP3 LT DUP2 SUB PUSH3 0x31F JUMPI PUSH3 0x31E PUSH3 0x2C1 JUMP JUMPDEST JUMPDEST POP SWAP2 SWAP1 POP JUMP JUMPDEST PUSH1 0x0 DUP2 SWAP1 POP DUP2 PUSH1 0x0 MSTORE PUSH1 0x20 PUSH1 0x0 KECCAK256 SWAP1 POP SWAP2 SWAP1 POP JUMP JUMPDEST PUSH1 0x0 PUSH1 0x20 PUSH1 0x1F DUP4 ADD DIV SWAP1 POP SWAP2 SWAP1 POP JUMP JUMPDEST PUSH1 0x0 DUP3 DUP3 SHL SWAP1 POP SWAP3 SWAP2 POP POP JUMP JUMPDEST PUSH1 0x0 PUSH1 0x8 DUP4 MUL PUSH3 0x389 PUSH32 0xFFFFFFFFFFFFFFFFFFFFFFFFFFFFFFFFFFFFFFFFFFFFFFFFFFFFFFFFFFFFFFFF DUP3 PUSH3 0x34A JUMP JUMPDEST PUSH3 0x395 DUP7 DUP4 PUSH3 0x34A JUMP JUMPDEST SWAP6 POP DUP1 NOT DUP5 AND SWAP4 POP DUP1 DUP7 AND DUP5 OR SWAP3 POP POP POP SWAP4 SWAP3 POP POP POP JUMP JUMPDEST PUSH1 0x0 DUP2 SWAP1 POP SWAP2 SWAP1 POP JUMP JUMPDEST PUSH1 0x0 DUP2 SWAP1 POP SWAP2 SWAP1 POP JUMP JUMPDEST PUSH1 0x0 PUSH3 0x3E2 PUSH3 0x3DC PUSH3 0x3D6 DUP5 PUSH3 0x3AD JUMP JUMPDEST PUSH3 0x3B7 JUMP JUMPDEST PUSH3 0x3AD JUMP JUMPDEST SWAP1 POP SWAP2 SWAP1 POP JUMP JUMPDEST PUSH1 0x0 DUP2 SWAP1 POP SWAP2 SWAP1 POP JUMP JUMPDEST PUSH3 0x3FE DUP4 PUSH3 0x3C1 JUMP JUMPDEST PUSH3 0x416 PUSH3 0x40D DUP3 PUSH3 0x3E9 JUMP JUMPDEST DUP5 DUP5 SLOAD PUSH3 0x357 JUMP JUMPDEST DUP3 SSTORE POP POP POP POP JUMP JUMPDEST PUSH1 0x0 SWAP1 JUMP JUMPDEST PUSH3 0x42D PUSH3 0x41E JUMP JUMPDEST PUSH3 0x43A DUP2 DUP5 DUP5 PUSH3 0x3F3 JUMP JUMPDEST POP POP POP JUMP JUMPDEST JUMPDEST DUP2 DUP2 LT ISZERO PUSH3 0x462 JUMPI PUSH3 0x456 PUSH1 0x0 DUP3 PUSH3 0x423 JUMP JUMPDEST PUSH1 0x1 DUP2 ADD SWAP1 POP PUSH3 0x440 JUMP JUMPDEST POP POP JUMP JUMPDEST PUSH1 0x1F DUP3 GT ISZERO PUSH3 0x4B1 JUMPI PUSH3 0x47B DUP2 PUSH3 0x325 JUMP JUMPDEST PUSH3 0x486 DUP5 PUSH3 0x33A JUMP JUMPDEST DUP2 ADD PUSH1 0x20 DUP6 LT ISZERO PUSH3 0x496 JUMPI DUP2 SWAP1 POP JUMPDEST PUSH3 0x4AE PUSH3 0x4A5 DUP6 PUSH3 0x33A JUMP JUMPDEST DUP4 ADD DUP3 PUSH3 0x43F JUMP JUMPDEST POP POP JUMPDEST POP POP POP JUMP JUMPDEST PUSH1 0x0 DUP3 DUP3 SHR SWAP1 POP SWAP3 SWAP2 POP POP JUMP JUMPDEST PUSH1 0x0 PUSH3 0x4D6 PUSH1 0x0 NOT DUP5 PUSH1 0x8 MUL PUSH3 0x4B6 JUMP JUMPDEST NOT DUP1 DUP4 AND SWAP2 POP POP SWAP3 SWAP2 POP POP JUMP JUMPDEST PUSH1 0x0 PUSH3 0x4F1 DUP4 DUP4 PUSH3 0x4C3 JUMP JUMPDEST SWAP2 POP DUP3 PUSH1 0x2 MUL DUP3 OR SWAP1 POP SWAP3 SWAP2 POP POP JUMP JUMPDEST PUSH3 0x50C DUP3 PUSH3 0x287 JUMP JUMPDEST PUSH8 0xFFFFFFFFFFFFFFFF DUP2 GT ISZERO PUSH3 0x528 JUMPI PUSH3 0x527 PUSH3 0x292 JUMP JUMPDEST JUMPDEST PUSH3 0x534 DUP3 SLOAD PUSH3 0x2F0 JUMP JUMPDEST PUSH3 0x541 DUP3 DUP3 DUP6 PUSH3 0x466 JUMP JUMPDEST PUSH1 0x0 PUSH1 0x20 SWAP1 POP PUSH1 0x1F DUP4 GT PUSH1 0x1 DUP2 EQ PUSH3 0x579 JUMPI PUSH1 0x0 DUP5 ISZERO PUSH3 0x564 JUMPI DUP3 DUP8 ADD MLOAD SWAP1 POP JUMPDEST PUSH3 0x570 DUP6 DUP3 PUSH3 0x4E3 JUMP JUMPDEST DUP7 SSTORE POP PUSH3 0x5E0 JUMP JUMPDEST PUSH1 0x1F NOT DUP5 AND PUSH3 0x589 DUP7 PUSH3 0x325 JUMP JUMPDEST PUSH1 0x0 JUMPDEST DUP3 DUP2 LT ISZERO PUSH3 0x5B3 JUMPI DUP5 DUP10 ADD MLOAD DUP3 SSTORE PUSH1 0x1 DUP3 ADD SWAP2 POP PUSH1 0x20 DUP6 ADD SWAP5 POP PUSH1 0x20 DUP2 ADD SWAP1 POP PUSH3 0x58C JUMP JUMPDEST DUP7 DUP4 LT ISZERO PUSH3 0x5D3 JUMPI DUP5 DUP10 ADD MLOAD PUSH3 0x5CF PUSH1 0x1F DUP10 AND DUP3 PUSH3 0x4C3 JUMP JUMPDEST DUP4 SSTORE POP JUMPDEST PUSH1 0x1 PUSH1 0x2 DUP9 MUL ADD DUP9 SSTORE POP POP POP JUMPDEST POP POP POP POP POP POP JUMP JUMPDEST PUSH2 0xC2E DUP1 PUSH3 0x5F8 PUSH1 0x0 CODECOPY PUSH1 0x0 RETURN INVALID PUSH1 0x80 PUSH1 0x40 MSTORE PUSH1 0x4 CALLDATASIZE LT PUSH2 0x29 JUMPI PUSH1 0x0 CALLDATALOAD PUSH1 0xE0 SHR DUP1 PUSH4 0x6661ABD EQ PUSH2 0x2E JUMPI DUP1 PUSH4 0xBB6D97EC EQ PUSH2 0x59 JUMPI JUMPDEST PUSH1 0x0 DUP1 REVERT JUMPDEST CALLVALUE DUP1 ISZERO PUSH2 0x3A JUMPI PUSH1 0x0 DUP1 REVERT JUMPDEST POP PUSH2 0x43 PUSH2 0x75 JUMP JUMPDEST PUSH1 0x40 MLOAD PUSH2 0x50 SWAP2 SWAP1 PUSH2 0x52A JUMP JUMPDEST PUSH1 0x40 MLOAD DUP1 SWAP2 SUB SWAP1 RETURN JUMPDEST PUSH2 0x73 PUSH1 0x4 DUP1 CALLDATASIZE SUB DUP2 ADD SWAP1 PUSH2 0x6E SWAP2 SWAP1 PUSH2 0x6CB JUMP JUMPDEST PUSH2 0x7B JUMP JUMPDEST STOP JUMPDEST PUSH1 0x4 SLOAD DUP2 JUMP JUMPDEST PUSH1 0x40 MLOAD DUP1 PUSH1 0x80 ADD PUSH1 0x40 MSTORE DUP1 DUP8 DUP2 MSTORE PUSH1 0x20 ADD DUP7 DUP2 MSTORE PUSH1 0x20 ADD DUP6 DUP2 MSTORE PUSH1 0x20 ADD DUP5 DUP2 MSTORE POP PUSH1 0x0 SWAP1 PUSH1 0x4 PUSH2 0xAC SWAP3 SWAP2 SWAP1 PUSH2 0x3EA JUMP JUMPDEST POP PUSH1 0x40 MLOAD DUP1 PUSH1 0x40 ADD PUSH1 0x40 MSTORE DUP1 DUP4 DUP2 MSTORE PUSH1 0x20 ADD DUP3 DUP2 MSTORE POP PUSH1 0x1 SWAP1 PUSH1 0x2 PUSH2 0xD2 SWAP3 SWAP2 SWAP1 PUSH2 0x437 JUMP JUMPDEST POP PUSH7 0xB1A2BC2EC50000 CALLVALUE EQ PUSH2 0xE6 JUMPI PUSH1 0x0 DUP1 REVERT JUMPDEST PUSH1 0x0 JUMPDEST PUSH1 0x4 DUP2 LT ISZERO PUSH2 0x183 JUMPI PUSH1 0x0 JUMPDEST PUSH1 0x4 DUP2 LT ISZERO PUSH2 0x16F JUMPI PUSH1 0x2 DUP2 DUP2 SLOAD DUP2 LT PUSH2 0x112 JUMPI PUSH2 0x111 PUSH2 0x790 JUMP JUMPDEST JUMPDEST SWAP1 PUSH1 0x0 MSTORE PUSH1 0x20 PUSH1 0x0 KECCAK256 ADD SLOAD PUSH1 0x0 DUP4 DUP2 SLOAD DUP2 LT PUSH2 0x131 JUMPI PUSH2 0x130 PUSH2 0x790 JUMP JUMPDEST JUMPDEST SWAP1 PUSH1 0x0 MSTORE PUSH1 0x20 PUSH1 0x0 KECCAK256 ADD SLOAD SUB PUSH2 0x15C JUMPI PUSH1 0x1 PUSH1 0x4 PUSH1 0x0 DUP3 DUP3 SLOAD PUSH2 0x154 SWAP2 SWAP1 PUSH2 0x7EE JUMP JUMPDEST SWAP3 POP POP DUP2 SWAP1 SSTORE POP JUMPDEST DUP1 DUP1 PUSH2 0x167 SWAP1 PUSH2 0x822 JUMP JUMPDEST SWAP2 POP POP PUSH2 0xF5 JUMP JUMPDEST POP DUP1 DUP1 PUSH2 0x17B SWAP1 PUSH2 0x822 JUMP JUMPDEST SWAP2 POP POP PUSH2 0xE9 JUMP JUMPDEST POP PUSH1 0x0 JUMPDEST PUSH1 0x2 DUP2 LT ISZERO PUSH2 0x26B JUMPI PUSH1 0x0 JUMPDEST PUSH1 0x2 DUP2 LT ISZERO PUSH2 0x257 JUMPI PUSH1 0x3 DUP2 DUP2 SLOAD DUP2 LT PUSH2 0x1B0 JUMPI PUSH2 0x1AF PUSH2 0x790 JUMP JUMPDEST JUMPDEST SWAP1 PUSH1 0x0 MSTORE PUSH1 0x20 PUSH1 0x0 KECCAK256 ADD PUSH1 0x40 MLOAD PUSH1 0x20 ADD PUSH2 0x1CA SWAP2 SWAP1 PUSH2 0x96D JUMP JUMPDEST PUSH1 0x40 MLOAD PUSH1 0x20 DUP2 DUP4 SUB SUB DUP2 MSTORE SWAP1 PUSH1 0x40 MSTORE DUP1 MLOAD SWAP1 PUSH1 0x20 ADD KECCAK256 PUSH1 0x1 DUP4 DUP2 SLOAD DUP2 LT PUSH2 0x1F4 JUMPI PUSH2 0x1F3 PUSH2 0x790 JUMP JUMPDEST JUMPDEST SWAP1 PUSH1 0x0 MSTORE PUSH1 0x20 PUSH1 0x0 KECCAK256 ADD PUSH1 0x40 MLOAD PUSH1 0x20 ADD PUSH2 0x20E SWAP2 SWAP1 PUSH2 0x96D JUMP JUMPDEST PUSH1 0x40 MLOAD PUSH1 0x20 DUP2 DUP4 SUB SUB DUP2 MSTORE SWAP1 PUSH1 0x40 MSTORE DUP1 MLOAD SWAP1 PUSH1 0x20 ADD KECCAK256 SUB PUSH2 0x244 JUMPI PUSH1 0x1 PUSH1 0x4 PUSH1 0x0 DUP3 DUP3 SLOAD PUSH2 0x23C SWAP2 SWAP1 PUSH2 0x7EE JUMP JUMPDEST SWAP3 POP POP DUP2 SWAP1 SSTORE POP JUMPDEST DUP1 DUP1 PUSH2 0x24F SWAP1 PUSH2 0x822 JUMP JUMPDEST SWAP2 POP POP PUSH2 0x193 JUMP JUMPDEST POP DUP1 DUP1 PUSH2 0x263 SWAP1 PUSH2 0x822 JUMP JUMPDEST SWAP2 POP POP PUSH2 0x187 JUMP JUMPDEST POP PUSH1 0x6 PUSH1 0x4 SLOAD SUB PUSH2 0x2CA JUMPI CALLER PUSH20 0xFFFFFFFFFFFFFFFFFFFFFFFFFFFFFFFFFFFFFFFF AND PUSH2 0x8FC PUSH8 0xDE0B6B3A7640000 SWAP1 DUP2 ISZERO MUL SWAP1 PUSH1 0x40 MLOAD PUSH1 0x0 PUSH1 0x40 MLOAD DUP1 DUP4 SUB DUP2 DUP6 DUP9 DUP9 CALL SWAP4 POP POP POP POP ISZERO DUP1 ISZERO PUSH2 0x2C4 JUMPI RETURNDATASIZE PUSH1 0x0 DUP1 RETURNDATACOPY RETURNDATASIZE PUSH1 0x0 REVERT JUMPDEST POP PUSH2 0x3E2 JUMP JUMPDEST PUSH1 0x5 PUSH1 0x4 SLOAD SUB PUSH2 0x328 JUMPI CALLER PUSH20 0xFFFFFFFFFFFFFFFFFFFFFFFFFFFFFFFFFFFFFFFF AND PUSH2 0x8FC PUSH8 0xA688906BD8B0000 SWAP1 DUP2 ISZERO MUL SWAP1 PUSH1 0x40 MLOAD PUSH1 0x0 PUSH1 0x40 MLOAD DUP1 DUP4 SUB DUP2 DUP6 DUP9 DUP9 CALL SWAP4 POP POP POP POP ISZERO DUP1 ISZERO PUSH2 0x322 JUMPI RETURNDATASIZE PUSH1 0x0 DUP1 RETURNDATACOPY RETURNDATASIZE PUSH1 0x0 REVERT JUMPDEST POP PUSH2 0x3E1 JUMP JUMPDEST PUSH1 0x4 DUP1 SLOAD SUB PUSH2 0x385 JUMPI CALLER PUSH20 0xFFFFFFFFFFFFFFFFFFFFFFFFFFFFFFFFFFFFFFFF AND PUSH2 0x8FC PUSH8 0x3782DACE9D90000 SWAP1 DUP2 ISZERO MUL SWAP1 PUSH1 0x40 MLOAD PUSH1 0x0 PUSH1 0x40 MLOAD DUP1 DUP4 SUB DUP2 DUP6 DUP9 DUP9 CALL SWAP4 POP POP POP POP ISZERO DUP1 ISZERO PUSH2 0x37F JUMPI RETURNDATASIZE PUSH1 0x0 DUP1 RETURNDATACOPY RETURNDATASIZE PUSH1 0x0 REVERT JUMPDEST POP PUSH2 0x3E0 JUMP JUMPDEST PUSH1 0x3 PUSH1 0x4 SLOAD SUB PUSH2 0x3DF JUMPI CALLER PUSH20 0xFFFFFFFFFFFFFFFFFFFFFFFFFFFFFFFFFFFFFFFF AND PUSH2 0x8FC PUSH8 0x16345785D8A0000 SWAP1 DUP2 ISZERO MUL SWAP1 PUSH1 0x40 MLOAD PUSH1 0x0 PUSH1 0x40 MLOAD DUP1 DUP4 SUB DUP2 DUP6 DUP9 DUP9 CALL SWAP4 POP POP POP POP ISZERO DUP1 ISZERO PUSH2 0x3DD JUMPI RETURNDATASIZE PUSH1 0x0 DUP1 RETURNDATACOPY RETURNDATASIZE PUSH1 0x0 REVERT JUMPDEST POP JUMPDEST JUMPDEST JUMPDEST JUMPDEST POP POP POP POP POP POP JUMP JUMPDEST DUP3 DUP1 SLOAD DUP3 DUP3 SSTORE SWAP1 PUSH1 0x0 MSTORE PUSH1 0x20 PUSH1 0x0 KECCAK256 SWAP1 DUP2 ADD SWAP3 DUP3 ISZERO PUSH2 0x426 JUMPI SWAP2 PUSH1 0x20 MUL DUP3 ADD JUMPDEST DUP3 DUP2 GT ISZERO PUSH2 0x425 JUMPI DUP3 MLOAD DUP3 SSTORE SWAP2 PUSH1 0x20 ADD SWAP2 SWAP1 PUSH1 0x1 ADD SWAP1 PUSH2 0x40A JUMP JUMPDEST JUMPDEST POP SWAP1 POP PUSH2 0x433 SWAP2 SWAP1 PUSH2 0x490 JUMP JUMPDEST POP SWAP1 JUMP JUMPDEST DUP3 DUP1 SLOAD DUP3 DUP3 SSTORE SWAP1 PUSH1 0x0 MSTORE PUSH1 0x20 PUSH1 0x0 KECCAK256 SWAP1 DUP2 ADD SWAP3 DUP3 ISZERO PUSH2 0x47F JUMPI SWAP2 PUSH1 0x20 MUL DUP3 ADD JUMPDEST DUP3 DUP2 GT ISZERO PUSH2 0x47E JUMPI DUP3 MLOAD DUP3 SWAP1 DUP2 PUSH2 0x46E SWAP2 SWAP1 PUSH2 0xB26 JUMP JUMPDEST POP SWAP2 PUSH1 0x20 ADD SWAP2 SWAP1 PUSH1 0x1 ADD SWAP1 PUSH2 0x457 JUMP JUMPDEST JUMPDEST POP SWAP1 POP PUSH2 0x48C SWAP2 SWAP1 PUSH2 0x4AD JUMP JUMPDEST POP SWAP1 JUMP JUMPDEST JUMPDEST DUP1 DUP3 GT ISZERO PUSH2 0x4A9 JUMPI PUSH1 0x0 DUP2 PUSH1 0x0 SWAP1 SSTORE POP PUSH1 0x1 ADD PUSH2 0x491 JUMP JUMPDEST POP SWAP1 JUMP JUMPDEST JUMPDEST DUP1 DUP3 GT ISZERO PUSH2 0x4CD JUMPI PUSH1 0x0 DUP2 DUP2 PUSH2 0x4C4 SWAP2 SWAP1 PUSH2 0x4D1 JUMP JUMPDEST POP PUSH1 0x1 ADD PUSH2 0x4AE JUMP JUMPDEST POP SWAP1 JUMP JUMPDEST POP DUP1 SLOAD PUSH2 0x4DD SWAP1 PUSH2 0x899 JUMP JUMPDEST PUSH1 0x0 DUP3 SSTORE DUP1 PUSH1 0x1F LT PUSH2 0x4EF JUMPI POP PUSH2 0x50E JUMP JUMPDEST PUSH1 0x1F ADD PUSH1 0x20 SWAP1 DIV SWAP1 PUSH1 0x0 MSTORE PUSH1 0x20 PUSH1 0x0 KECCAK256 SWAP1 DUP2 ADD SWAP1 PUSH2 0x50D SWAP2 SWAP1 PUSH2 0x490 JUMP JUMPDEST JUMPDEST POP JUMP JUMPDEST PUSH1 0x0 DUP2 SWAP1 POP SWAP2 SWAP1 POP JUMP JUMPDEST PUSH2 0x524 DUP2 PUSH2 0x511 JUMP JUMPDEST DUP3 MSTORE POP POP JUMP JUMPDEST PUSH1 0x0 PUSH1 0x20 DUP3 ADD SWAP1 POP PUSH2 0x53F PUSH1 0x0 DUP4 ADD DUP5 PUSH2 0x51B JUMP JUMPDEST SWAP3 SWAP2 POP POP JUMP JUMPDEST PUSH1 0x0 PUSH1 0x40 MLOAD SWAP1 POP SWAP1 JUMP JUMPDEST PUSH1 0x0 DUP1 REVERT JUMPDEST PUSH1 0x0 DUP1 REVERT JUMPDEST PUSH2 0x562 DUP2 PUSH2 0x511 JUMP JUMPDEST DUP2 EQ PUSH2 0x56D JUMPI PUSH1 0x0 DUP1 REVERT JUMPDEST POP JUMP JUMPDEST PUSH1 0x0 DUP2 CALLDATALOAD SWAP1 POP PUSH2 0x57F DUP2 PUSH2 0x559 JUMP JUMPDEST SWAP3 SWAP2 POP POP JUMP JUMPDEST PUSH1 0x0 DUP1 REVERT JUMPDEST PUSH1 0x0 DUP1 REVERT JUMPDEST PUSH1 0x0 PUSH1 0x1F NOT PUSH1 0x1F DUP4 ADD AND SWAP1 POP SWAP2 SWAP1 POP JUMP JUMPDEST PUSH32 0x4E487B7100000000000000000000000000000000000000000000000000000000 PUSH1 0x0 MSTORE PUSH1 0x41 PUSH1 0x4 MSTORE PUSH1 0x24 PUSH1 0x0 REVERT JUMPDEST PUSH2 0x5D8 DUP3 PUSH2 0x58F JUMP JUMPDEST DUP2 ADD DUP2 DUP2 LT PUSH8 0xFFFFFFFFFFFFFFFF DUP3 GT OR ISZERO PUSH2 0x5F7 JUMPI PUSH2 0x5F6 PUSH2 0x5A0 JUMP JUMPDEST JUMPDEST DUP1 PUSH1 0x40 MSTORE POP POP POP JUMP JUMPDEST PUSH1 0x0 PUSH2 0x60A PUSH2 0x545 JUMP JUMPDEST SWAP1 POP PUSH2 0x616 DUP3 DUP3 PUSH2 0x5CF JUMP JUMPDEST SWAP2 SWAP1 POP JUMP JUMPDEST PUSH1 0x0 PUSH8 0xFFFFFFFFFFFFFFFF DUP3 GT ISZERO PUSH2 0x636 JUMPI PUSH2 0x635 PUSH2 0x5A0 JUMP JUMPDEST JUMPDEST PUSH2 0x63F DUP3 PUSH2 0x58F JUMP JUMPDEST SWAP1 POP PUSH1 0x20 DUP2 ADD SWAP1 POP SWAP2 SWAP1 POP JUMP JUMPDEST DUP3 DUP2 DUP4 CALLDATACOPY PUSH1 0x0 DUP4 DUP4 ADD MSTORE POP POP POP JUMP JUMPDEST PUSH1 0x0 PUSH2 0x66E PUSH2 0x669 DUP5 PUSH2 0x61B JUMP JUMPDEST PUSH2 0x600 JUMP JUMPDEST SWAP1 POP DUP3 DUP2 MSTORE PUSH1 0x20 DUP2 ADD DUP5 DUP5 DUP5 ADD GT ISZERO PUSH2 0x68A JUMPI PUSH2 0x689 PUSH2 0x58A JUMP JUMPDEST JUMPDEST PUSH2 0x695 DUP5 DUP3 DUP6 PUSH2 0x64C JUMP JUMPDEST POP SWAP4 SWAP3 POP POP POP JUMP JUMPDEST PUSH1 0x0 DUP3 PUSH1 0x1F DUP4 ADD SLT PUSH2 0x6B2 JUMPI PUSH2 0x6B1 PUSH2 0x585 JUMP JUMPDEST JUMPDEST DUP2 CALLDATALOAD PUSH2 0x6C2 DUP5 DUP3 PUSH1 0x20 DUP7 ADD PUSH2 0x65B JUMP JUMPDEST SWAP2 POP POP SWAP3 SWAP2 POP POP JUMP JUMPDEST PUSH1 0x0 DUP1 PUSH1 0x0 DUP1 PUSH1 0x0 DUP1 PUSH1 0xC0 DUP8 DUP10 SUB SLT ISZERO PUSH2 0x6E8 JUMPI PUSH2 0x6E7 PUSH2 0x54F JUMP JUMPDEST JUMPDEST PUSH1 0x0 PUSH2 0x6F6 DUP10 DUP3 DUP11 ADD PUSH2 0x570 JUMP JUMPDEST SWAP7 POP POP PUSH1 0x20 PUSH2 0x707 DUP10 DUP3 DUP11 ADD PUSH2 0x570 JUMP JUMPDEST SWAP6 POP POP PUSH1 0x40 PUSH2 0x718 DUP10 DUP3 DUP11 ADD PUSH2 0x570 JUMP JUMPDEST SWAP5 POP POP PUSH1 0x60 PUSH2 0x729 DUP10 DUP3 DUP11 ADD PUSH2 0x570 JUMP JUMPDEST SWAP4 POP POP PUSH1 0x80 DUP8 ADD CALLDATALOAD PUSH8 0xFFFFFFFFFFFFFFFF DUP2 GT ISZERO PUSH2 0x74A JUMPI PUSH2 0x749 PUSH2 0x554 JUMP JUMPDEST JUMPDEST PUSH2 0x756 DUP10 DUP3 DUP11 ADD PUSH2 0x69D JUMP JUMPDEST SWAP3 POP POP PUSH1 0xA0 DUP8 ADD CALLDATALOAD PUSH8 0xFFFFFFFFFFFFFFFF DUP2 GT ISZERO PUSH2 0x777 JUMPI PUSH2 0x776 PUSH2 0x554 JUMP JUMPDEST JUMPDEST PUSH2 0x783 DUP10 DUP3 DUP11 ADD PUSH2 0x69D JUMP JUMPDEST SWAP2 POP POP SWAP3 SWAP6 POP SWAP3 SWAP6 POP SWAP3 SWAP6 JUMP JUMPDEST PUSH32 0x4E487B7100000000000000000000000000000000000000000000000000000000 PUSH1 0x0 MSTORE PUSH1 0x32 PUSH1 0x4 MSTORE PUSH1 0x24 PUSH1 0x0 REVERT JUMPDEST PUSH32 0x4E487B7100000000000000000000000000000000000000000000000000000000 PUSH1 0x0 MSTORE PUSH1 0x11 PUSH1 0x4 MSTORE PUSH1 0x24 PUSH1 0x0 REVERT JUMPDEST PUSH1 0x0 PUSH2 0x7F9 DUP3 PUSH2 0x511 JUMP JUMPDEST SWAP2 POP PUSH2 0x804 DUP4 PUSH2 0x511 JUMP JUMPDEST SWAP3 POP DUP3 DUP3 ADD SWAP1 POP DUP1 DUP3 GT ISZERO PUSH2 0x81C JUMPI PUSH2 0x81B PUSH2 0x7BF JUMP JUMPDEST JUMPDEST SWAP3 SWAP2 POP POP JUMP JUMPDEST PUSH1 0x0 PUSH2 0x82D DUP3 PUSH2 0x511 JUMP JUMPDEST SWAP2 POP PUSH32 0xFFFFFFFFFFFFFFFFFFFFFFFFFFFFFFFFFFFFFFFFFFFFFFFFFFFFFFFFFFFFFFFF DUP3 SUB PUSH2 0x85F JUMPI PUSH2 0x85E PUSH2 0x7BF JUMP JUMPDEST JUMPDEST PUSH1 0x1 DUP3 ADD SWAP1 POP SWAP2 SWAP1 POP JUMP JUMPDEST PUSH32 0x4E487B7100000000000000000000000000000000000000000000000000000000 PUSH1 0x0 MSTORE PUSH1 0x22 PUSH1 0x4 MSTORE PUSH1 0x24 PUSH1 0x0 REVERT JUMPDEST PUSH1 0x0 PUSH1 0x2 DUP3 DIV SWAP1 POP PUSH1 0x1 DUP3 AND DUP1 PUSH2 0x8B1 JUMPI PUSH1 0x7F DUP3 AND SWAP2 POP JUMPDEST PUSH1 0x20 DUP3 LT DUP2 SUB PUSH2 0x8C4 JUMPI PUSH2 0x8C3 PUSH2 0x86A JUMP JUMPDEST JUMPDEST POP SWAP2 SWAP1 POP JUMP JUMPDEST PUSH1 0x0 DUP2 SWAP1 POP SWAP3 SWAP2 POP POP JUMP JUMPDEST PUSH1 0x0 DUP2 SWAP1 POP DUP2 PUSH1 0x0 MSTORE PUSH1 0x20 PUSH1 0x0 KECCAK256 SWAP1 POP SWAP2 SWAP1 POP JUMP JUMPDEST PUSH1 0x0 DUP2 SLOAD PUSH2 0x8F7 DUP2 PUSH2 0x899 JUMP JUMPDEST PUSH2 0x901 DUP2 DUP7 PUSH2 0x8CA JUMP JUMPDEST SWAP5 POP PUSH1 0x1 DUP3 AND PUSH1 0x0 DUP2 EQ PUSH2 0x91C JUMPI PUSH1 0x1 DUP2 EQ PUSH2 0x931 JUMPI PUSH2 0x964 JUMP JUMPDEST PUSH1 0xFF NOT DUP4 AND DUP7 MSTORE DUP2 ISZERO ISZERO DUP3 MUL DUP7 ADD SWAP4 POP PUSH2 0x964 JUMP JUMPDEST PUSH2 0x93A DUP6 PUSH2 0x8D5 JUMP JUMPDEST PUSH1 0x0 JUMPDEST DUP4 DUP2 LT ISZERO PUSH2 0x95C JUMPI DUP2 SLOAD DUP2 DUP10 ADD MSTORE PUSH1 0x1 DUP3 ADD SWAP2 POP PUSH1 0x20 DUP2 ADD SWAP1 POP PUSH2 0x93D JUMP JUMPDEST DUP4 DUP9 ADD SWAP6 POP POP POP JUMPDEST POP POP POP SWAP3 SWAP2 POP POP JUMP JUMPDEST PUSH1 0x0 PUSH2 0x979 DUP3 DUP5 PUSH2 0x8EA JUMP JUMPDEST SWAP2 POP DUP2 SWAP1 POP SWAP3 SWAP2 POP POP JUMP JUMPDEST PUSH1 0x0 DUP2 MLOAD SWAP1 POP SWAP2 SWAP1 POP JUMP JUMPDEST PUSH1 0x0 PUSH1 0x20 PUSH1 0x1F DUP4 ADD DIV SWAP1 POP SWAP2 SWAP1 POP JUMP JUMPDEST PUSH1 0x0 DUP3 DUP3 SHL SWAP1 POP SWAP3 SWAP2 POP POP JUMP JUMPDEST PUSH1 0x0 PUSH1 0x8 DUP4 MUL PUSH2 0x9DC PUSH32 0xFFFFFFFFFFFFFFFFFFFFFFFFFFFFFFFFFFFFFFFFFFFFFFFFFFFFFFFFFFFFFFFF DUP3 PUSH2 0x99F JUMP JUMPDEST PUSH2 0x9E6 DUP7 DUP4 PUSH2 0x99F JUMP JUMPDEST SWAP6 POP DUP1 NOT DUP5 AND SWAP4 POP DUP1 DUP7 AND DUP5 OR SWAP3 POP POP POP SWAP4 SWAP3 POP POP POP JUMP JUMPDEST PUSH1 0x0 DUP2 SWAP1 POP SWAP2 SWAP1 POP JUMP JUMPDEST PUSH1 0x0 PUSH2 0xA23 PUSH2 0xA1E PUSH2 0xA19 DUP5 PUSH2 0x511 JUMP JUMPDEST PUSH2 0x9FE JUMP JUMPDEST PUSH2 0x511 JUMP JUMPDEST SWAP1 POP SWAP2 SWAP1 POP JUMP JUMPDEST PUSH1 0x0 DUP2 SWAP1 POP SWAP2 SWAP1 POP JUMP JUMPDEST PUSH2 0xA3D DUP4 PUSH2 0xA08 JUMP JUMPDEST PUSH2 0xA51 PUSH2 0xA49 DUP3 PUSH2 0xA2A JUMP JUMPDEST DUP5 DUP5 SLOAD PUSH2 0x9AC JUMP JUMPDEST DUP3 SSTORE POP POP POP POP JUMP JUMPDEST PUSH1 0x0 SWAP1 JUMP JUMPDEST PUSH2 0xA66 PUSH2 0xA59 JUMP JUMPDEST PUSH2 0xA71 DUP2 DUP5 DUP5 PUSH2 0xA34 JUMP JUMPDEST POP POP POP JUMP JUMPDEST JUMPDEST DUP2 DUP2 LT ISZERO PUSH2 0xA95 JUMPI PUSH2 0xA8A PUSH1 0x0 DUP3 PUSH2 0xA5E JUMP JUMPDEST PUSH1 0x1 DUP2 ADD SWAP1 POP PUSH2 0xA77 JUMP JUMPDEST POP POP JUMP JUMPDEST PUSH1 0x1F DUP3 GT ISZERO PUSH2 0xADA JUMPI PUSH2 0xAAB DUP2 PUSH2 0x8D5 JUMP JUMPDEST PUSH2 0xAB4 DUP5 PUSH2 0x98F JUMP JUMPDEST DUP2 ADD PUSH1 0x20 DUP6 LT ISZERO PUSH2 0xAC3 JUMPI DUP2 SWAP1 POP JUMPDEST PUSH2 0xAD7 PUSH2 0xACF DUP6 PUSH2 0x98F JUMP JUMPDEST DUP4 ADD DUP3 PUSH2 0xA76 JUMP JUMPDEST POP POP JUMPDEST POP POP POP JUMP JUMPDEST PUSH1 0x0 DUP3 DUP3 SHR SWAP1 POP SWAP3 SWAP2 POP POP JUMP JUMPDEST PUSH1 0x0 PUSH2 0xAFD PUSH1 0x0 NOT DUP5 PUSH1 0x8 MUL PUSH2 0xADF JUMP JUMPDEST NOT DUP1 DUP4 AND SWAP2 POP POP SWAP3 SWAP2 POP POP JUMP JUMPDEST PUSH1 0x0 PUSH2 0xB16 DUP4 DUP4 PUSH2 0xAEC JUMP JUMPDEST SWAP2 POP DUP3 PUSH1 0x2 MUL DUP3 OR SWAP1 POP SWAP3 SWAP2 POP POP JUMP JUMPDEST PUSH2 0xB2F DUP3 PUSH2 0x984 JUMP JUMPDEST PUSH8 0xFFFFFFFFFFFFFFFF DUP2 GT ISZERO PUSH2 0xB48 JUMPI PUSH2 0xB47 PUSH2 0x5A0 JUMP JUMPDEST JUMPDEST PUSH2 0xB52 DUP3 SLOAD PUSH2 0x899 JUMP JUMPDEST PUSH2 0xB5D DUP3 DUP3 DUP6 PUSH2 0xA99 JUMP JUMPDEST PUSH1 0x0 PUSH1 0x20 SWAP1 POP PUSH1 0x1F DUP4 GT PUSH1 0x1 DUP2 EQ PUSH2 0xB90 JUMPI PUSH1 0x0 DUP5 ISZERO PUSH2 0xB7E JUMPI DUP3 DUP8 ADD MLOAD SWAP1 POP JUMPDEST PUSH2 0xB88 DUP6 DUP3 PUSH2 0xB0A JUMP JUMPDEST DUP7 SSTORE POP PUSH2 0xBF0 JUMP JUMPDEST PUSH1 0x1F NOT DUP5 AND PUSH2 0xB9E DUP7 PUSH2 0x8D5 JUMP JUMPDEST PUSH1 0x0 JUMPDEST DUP3 DUP2 LT ISZERO PUSH2 0xBC6 JUMPI DUP5 DUP10 ADD MLOAD DUP3 SSTORE PUSH1 0x1 DUP3 ADD SWAP2 POP PUSH1 0x20 DUP6 ADD SWAP5 POP PUSH1 0x20 DUP2 ADD SWAP1 POP PUSH2 0xBA1 JUMP JUMPDEST DUP7 DUP4 LT ISZERO PUSH2 0xBE3 JUMPI DUP5 DUP10 ADD MLOAD PUSH2 0xBDF PUSH1 0x1F DUP10 AND DUP3 PUSH2 0xAEC JUMP JUMPDEST DUP4 SSTORE POP JUMPDEST PUSH1 0x1 PUSH1 0x2 DUP9 MUL ADD DUP9 SSTORE POP POP POP JUMPDEST POP POP POP POP POP POP JUMP INVALID LOG2 PUSH5 0x6970667358 0x22 SLT KECCAK256 DUP2 LT CALLDATACOPY 0xCB 0xAC SWAP1 0xC2 PUSH3 0x6A07AA STOP JUMPI 0x2F 0xB9 MSTORE 0xA6 0x23 DUP4 0xC1 SWAP3 0xD6 0x4F 0xCC 0xC7 0xC0 0x1F STOP PUSH21 0x616E5364736F6C6343000812003300000000000000 "
		},
		"gasEstimates": {
			"creation": {
				"codeDepositCost": "623600",
				"executionCost": "infinite",
				"totalCost": "infinite"
			},
			"external": {
				"count()": "2407",
				"drawLotto(uint256,uint256,uint256,uint256,string,string)": "infinite"
			}
		},
		"methodIdentifiers": {
			"count()": "06661abd",
			"drawLotto(uint256,uint256,uint256,uint256,string,string)": "bb6d97ec"
		}
	},
	"abi": [
		{
			"inputs": [],
			"name": "count",
			"outputs": [
				{
					"internalType": "uint256",
					"name": "",
					"type": "uint256"
				}
			],
			"stateMutability": "view",
			"type": "function"
		},
		{
			"inputs": [
				{
					"internalType": "uint256",
					"name": "a",
					"type": "uint256"
				},
				{
					"internalType": "uint256",
					"name": "b",
					"type": "uint256"
				},
				{
					"internalType": "uint256",
					"name": "c",
					"type": "uint256"
				},
				{
					"internalType": "uint256",
					"name": "d",
					"type": "uint256"
				},
				{
					"internalType": "string",
					"name": "x",
					"type": "string"
				},
				{
					"internalType": "string",
					"name": "y",
					"type": "string"
				}
			],
			"name": "drawLotto",
			"outputs": [],
			"stateMutability": "payable",
			"type": "function"
		}
	]
}