{
	"data": {
		"bytecode": {
			"linkReferences": {},
			"object": "60806040526040518060800160405280600160ff168152602001600260ff168152602001600360ff168152602001600460ff16815250600090600462000047929190620000ee565b5060405180604001604052806040518060400160405280600181526020017f610000000000000000000000000000000000000000000000000000000000000081525081526020016040518060400160405280600181526020017f62000000000000000000000000000000000000000000000000000000000000008152508152506001906002620000d992919062000145565b50348015620000e757600080fd5b5062000593565b82805482825590600052602060002090810192821562000132579160200282015b8281111562000131578251829060ff169055916020019190600101906200010f565b5b509050620001419190620001a5565b5090565b82805482825590600052602060002090810192821562000192579160200282015b8281111562000191578251829081620001809190620004ac565b509160200191906001019062000166565b5b509050620001a19190620001c4565b5090565b5b80821115620001c0576000816000905550600101620001a6565b5090565b5b80821115620001e85760008181620001de9190620001ec565b50600101620001c5565b5090565b508054620001fa906200029b565b6000825580601f106200020e57506200022f565b601f0160209004906000526020600020908101906200022e9190620001a5565b5b50565b600081519050919050565b7f4e487b7100000000000000000000000000000000000000000000000000000000600052604160045260246000fd5b7f4e487b7100000000000000000000000000000000000000000000000000000000600052602260045260246000fd5b60006002820490506001821680620002b457607f821691505b602082108103620002ca57620002c96200026c565b5b50919050565b60008190508160005260206000209050919050565b60006020601f8301049050919050565b600082821b905092915050565b600060088302620003347fffffffffffffffffffffffffffffffffffffffffffffffffffffffffffffffff82620002f5565b620003408683620002f5565b95508019841693508086168417925050509392505050565b6000819050919050565b6000819050919050565b60006200038d62000387620003818462000358565b62000362565b62000358565b9050919050565b6000819050919050565b620003a9836200036c565b620003c1620003b88262000394565b84845462000302565b825550505050565b600090565b620003d8620003c9565b620003e58184846200039e565b505050565b5b818110156200040d5762000401600082620003ce565b600181019050620003eb565b5050565b601f8211156200045c576200042681620002d0565b6200043184620002e5565b8101602085101562000441578190505b620004596200045085620002e5565b830182620003ea565b50505b505050565b600082821c905092915050565b6000620004816000198460080262000461565b1980831691505092915050565b60006200049c83836200046e565b9150826002028217905092915050565b620004b78262000232565b67ffffffffffffffff811115620004d357620004d26200023d565b5b620004df82546200029b565b620004ec82828562000411565b600060209050601f8311600181146200052457600084156200050f578287015190505b6200051b85826200048e565b8655506200058b565b601f1984166200053486620002d0565b60005b828110156200055e5784890151825560018201915060208501945060208101905062000537565b868310156200057e57848901516200057a601f8916826200046e565b8355505b6001600288020188555050505b505050505050565b610bd080620005a36000396000f3fe60806040526004361061003f5760003560e01c806368c47d191461004457806375d6175914610081578063a074dc3d146100be578063c723f14c146100fb575b600080fd5b34801561005057600080fd5b5061006b6004803603810190610066919061053a565b610117565b60405161007891906105a0565b60405180910390f35b34801561008d57600080fd5b506100a860048036038101906100a39190610611565b610230565b6040516100b591906105a0565b60405180910390f35b3480156100ca57600080fd5b506100e560048036038101906100e091906107f5565b6102ae565b6040516100f2919061088c565b60405180910390f35b610115600480360381019061011091906108a7565b61030a565b005b60008060005b600180549050811015610225576101fe6001828154811061014157610140610928565b5b90600052602060002001805461015690610986565b80601f016020809104026020016040519081016040528092919081815260200182805461018290610986565b80156101cf5780601f106101a4576101008083540402835291602001916101cf565b820191906000526020600020905b8154815290600101906020018083116101b257829003601f168201915b50505050508686848181106101e7576101e6610928565b5b90506020028101906101f991906109c6565b6102ae565b1561021257818061020e90610a58565b9250505b808061021d90610a58565b91505061011d565b508091505092915050565b60008060005b6000805490508110156102a35784848281811061025657610255610928565b5b905060200201356000828154811061027157610270610928565b5b90600052602060002001540361029057818061028c90610a58565b9250505b808061029b90610a58565b915050610236565b508091505092915050565b600082826040516020016102c3929190610ad0565b60405160208183030381529060405280519060200120846040516020016102ea9190610b4f565b604051602081830303815290604052805190602001201490509392505050565b66b1a2bc2ec50000341461031d57600080fd5b60006103298383610117565b6103338686610230565b61033d9190610b66565b90506103488161034f565b5050505050565b600681036103ab573373ffffffffffffffffffffffffffffffffffffffff166108fc670de0b6b3a76400009081150290604051600060405180830381858888f193505050501580156103a5573d6000803e3d6000fd5b506104be565b60058103610407573373ffffffffffffffffffffffffffffffffffffffff166108fc670a688906bd8b00009081150290604051600060405180830381858888f19350505050158015610401573d6000803e3d6000fd5b506104bd565b60048103610463573373ffffffffffffffffffffffffffffffffffffffff166108fc6703782dace9d900009081150290604051600060405180830381858888f1935050505015801561045d573d6000803e3d6000fd5b506104bc565b600381036104bb573373ffffffffffffffffffffffffffffffffffffffff166108fc67016345785d8a00009081150290604051600060405180830381858888f193505050501580156104b9573d6000803e3d6000fd5b505b5b5b5b50565b6000604051905090565b600080fd5b600080fd5b600080fd5b600080fd5b600080fd5b60008083601f8401126104fa576104f96104d5565b5b8235905067ffffffffffffffff811115610517576105166104da565b5b602083019150836020820283011115610533576105326104df565b5b9250929050565b60008060208385031215610551576105506104cb565b5b600083013567ffffffffffffffff81111561056f5761056e6104d0565b5b61057b858286016104e4565b92509250509250929050565b6000819050919050565b61059a81610587565b82525050565b60006020820190506105b56000830184610591565b92915050565b60008083601f8401126105d1576105d06104d5565b5b8235905067ffffffffffffffff8111156105ee576105ed6104da565b5b60208301915083602082028301111561060a576106096104df565b5b9250929050565b60008060208385031215610628576106276104cb565b5b600083013567ffffffffffffffff811115610646576106456104d0565b5b610652858286016105bb565b92509250509250929050565b600080fd5b6000601f19601f8301169050919050565b7f4e487b7100000000000000000000000000000000000000000000000000000000600052604160045260246000fd5b6106ac82610663565b810181811067ffffffffffffffff821117156106cb576106ca610674565b5b80604052505050565b60006106de6104c1565b90506106ea82826106a3565b919050565b600067ffffffffffffffff82111561070a57610709610674565b5b61071382610663565b9050602081019050919050565b82818337600083830152505050565b600061074261073d846106ef565b6106d4565b90508281526020810184848401111561075e5761075d61065e565b5b610769848285610720565b509392505050565b600082601f830112610786576107856104d5565b5b813561079684826020860161072f565b91505092915050565b60008083601f8401126107b5576107b46104d5565b5b8235905067ffffffffffffffff8111156107d2576107d16104da565b5b6020830191508360018202830111156107ee576107ed6104df565b5b9250929050565b60008060006040848603121561080e5761080d6104cb565b5b600084013567ffffffffffffffff81111561082c5761082b6104d0565b5b61083886828701610771565b935050602084013567ffffffffffffffff811115610859576108586104d0565b5b6108658682870161079f565b92509250509250925092565b60008115159050919050565b61088681610871565b82525050565b60006020820190506108a1600083018461087d565b92915050565b600080600080604085870312156108c1576108c06104cb565b5b600085013567ffffffffffffffff8111156108df576108de6104d0565b5b6108eb878288016105bb565b9450945050602085013567ffffffffffffffff81111561090e5761090d6104d0565b5b61091a878288016104e4565b925092505092959194509250565b7f4e487b7100000000000000000000000000000000000000000000000000000000600052603260045260246000fd5b7f4e487b7100000000000000000000000000000000000000000000000000000000600052602260045260246000fd5b6000600282049050600182168061099e57607f821691505b6020821081036109b1576109b0610957565b5b50919050565b600080fd5b600080fd5b600080fd5b600080833560016020038436030381126109e3576109e26109b7565b5b80840192508235915067ffffffffffffffff821115610a0557610a046109bc565b5b602083019250600182023603831315610a2157610a206109c1565b5b509250929050565b7f4e487b7100000000000000000000000000000000000000000000000000000000600052601160045260246000fd5b6000610a6382610587565b91507fffffffffffffffffffffffffffffffffffffffffffffffffffffffffffffffff8203610a9557610a94610a29565b5b600182019050919050565b600081905092915050565b6000610ab78385610aa0565b9350610ac4838584610720565b82840190509392505050565b6000610add828486610aab565b91508190509392505050565b600081519050919050565b60005b83811015610b12578082015181840152602081019050610af7565b60008484015250505050565b6000610b2982610ae9565b610b338185610aa0565b9350610b43818560208601610af4565b80840191505092915050565b6000610b5b8284610b1e565b915081905092915050565b6000610b7182610587565b9150610b7c83610587565b9250828201905080821115610b9457610b93610a29565b5b9291505056fea26469706673582212204e0381af93a2cd62a2fc0c5121f9297e0262680afdf6da9e77a50016ad75902264736f6c63430008120033",
			"opcodes": "PUSH1 0x80 PUSH1 0x40 MSTORE PUSH1 0x40 MLOAD DUP1 PUSH1 0x80 ADD PUSH1 0x40 MSTORE DUP1 PUSH1 0x1 PUSH1 0xFF AND DUP2 MSTORE PUSH1 0x20 ADD PUSH1 0x2 PUSH1 0xFF AND DUP2 MSTORE PUSH1 0x20 ADD PUSH1 0x3 PUSH1 0xFF AND DUP2 MSTORE PUSH1 0x20 ADD PUSH1 0x4 PUSH1 0xFF AND DUP2 MSTORE POP PUSH1 0x0 SWAP1 PUSH1 0x4 PUSH3 0x47 SWAP3 SWAP2 SWAP1 PUSH3 0xEE JUMP JUMPDEST POP PUSH1 0x40 MLOAD DUP1 PUSH1 0x40 ADD PUSH1 0x40 MSTORE DUP1 PUSH1 0x40 MLOAD DUP1 PUSH1 0x40 ADD PUSH1 0x40 MSTORE DUP1 PUSH1 0x1 DUP2 MSTORE PUSH1 0x20 ADD PUSH32 0x6100000000000000000000000000000000000000000000000000000000000000 DUP2 MSTORE POP DUP2 MSTORE PUSH1 0x20 ADD PUSH1 0x40 MLOAD DUP1 PUSH1 0x40 ADD PUSH1 0x40 MSTORE DUP1 PUSH1 0x1 DUP2 MSTORE PUSH1 0x20 ADD PUSH32 0x6200000000000000000000000000000000000000000000000000000000000000 DUP2 MSTORE POP DUP2 MSTORE POP PUSH1 0x1 SWAP1 PUSH1 0x2 PUSH3 0xD9 SWAP3 SWAP2 SWAP1 PUSH3 0x145 JUMP JUMPDEST POP CALLVALUE DUP1 ISZERO PUSH3 0xE7 JUMPI PUSH1 0x0 DUP1 REVERT JUMPDEST POP PUSH3 0x593 JUMP JUMPDEST DUP3 DUP1 SLOAD DUP3 DUP3 SSTORE SWAP1 PUSH1 0x0 MSTORE PUSH1 0x20 PUSH1 0x0 KECCAK256 SWAP1 DUP2 ADD SWAP3 DUP3 ISZERO PUSH3 0x132 JUMPI SWAP2 PUSH1 0x20 MUL DUP3 ADD JUMPDEST DUP3 DUP2 GT ISZERO PUSH3 0x131 JUMPI DUP3 MLOAD DUP3 SWAP1 PUSH1 0xFF AND SWAP1 SSTORE SWAP2 PUSH1 0x20 ADD SWAP2 SWAP1 PUSH1 0x1 ADD SWAP1 PUSH3 0x10F JUMP JUMPDEST JUMPDEST POP SWAP1 POP PUSH3 0x141 SWAP2 SWAP1 PUSH3 0x1A5 JUMP JUMPDEST POP SWAP1 JUMP JUMPDEST DUP3 DUP1 SLOAD DUP3 DUP3 SSTORE SWAP1 PUSH1 0x0 MSTORE PUSH1 0x20 PUSH1 0x0 KECCAK256 SWAP1 DUP2 ADD SWAP3 DUP3 ISZERO PUSH3 0x192 JUMPI SWAP2 PUSH1 0x20 MUL DUP3 ADD JUMPDEST DUP3 DUP2 GT ISZERO PUSH3 0x191 JUMPI DUP3 MLOAD DUP3 SWAP1 DUP2 PUSH3 0x180 SWAP2 SWAP1 PUSH3 0x4AC JUMP JUMPDEST POP SWAP2 PUSH1 0x20 ADD SWAP2 SWAP1 PUSH1 0x1 ADD SWAP1 PUSH3 0x166 JUMP JUMPDEST JUMPDEST POP SWAP1 POP PUSH3 0x1A1 SWAP2 SWAP1 PUSH3 0x1C4 JUMP JUMPDEST POP SWAP1 JUMP JUMPDEST JUMPDEST DUP1 DUP3 GT ISZERO PUSH3 0x1C0 JUMPI PUSH1 0x0 DUP2 PUSH1 0x0 SWAP1 SSTORE POP PUSH1 0x1 ADD PUSH3 0x1A6 JUMP JUMPDEST POP SWAP1 JUMP JUMPDEST JUMPDEST DUP1 DUP3 GT ISZERO PUSH3 0x1E8 JUMPI PUSH1 0x0 DUP2 DUP2 PUSH3 0x1DE SWAP2 SWAP1 PUSH3 0x1EC JUMP JUMPDEST POP PUSH1 0x1 ADD PUSH3 0x1C5 JUMP JUMPDEST POP SWAP1 JUMP JUMPDEST POP DUP1 SLOAD PUSH3 0x1FA SWAP1 PUSH3 0x29B JUMP JUMPDEST PUSH1 0x0 DUP3 SSTORE DUP1 PUSH1 0x1F LT PUSH3 0x20E JUMPI POP PUSH3 0x22F JUMP JUMPDEST PUSH1 0x1F ADD PUSH1 0x20 SWAP1 DIV SWAP1 PUSH1 0x0 MSTORE PUSH1 0x20 PUSH1 0x0 KECCAK256 SWAP1 DUP2 ADD SWAP1 PUSH3 0x22E SWAP2 SWAP1 PUSH3 0x1A5 JUMP JUMPDEST JUMPDEST POP JUMP JUMPDEST PUSH1 0x0 DUP2 MLOAD SWAP1 POP SWAP2 SWAP1 POP JUMP JUMPDEST PUSH32 0x4E487B7100000000000000000000000000000000000000000000000000000000 PUSH1 0x0 MSTORE PUSH1 0x41 PUSH1 0x4 MSTORE PUSH1 0x24 PUSH1 0x0 REVERT JUMPDEST PUSH32 0x4E487B7100000000000000000000000000000000000000000000000000000000 PUSH1 0x0 MSTORE PUSH1 0x22 PUSH1 0x4 MSTORE PUSH1 0x24 PUSH1 0x0 REVERT JUMPDEST PUSH1 0x0 PUSH1 0x2 DUP3 DIV SWAP1 POP PUSH1 0x1 DUP3 AND DUP1 PUSH3 0x2B4 JUMPI PUSH1 0x7F DUP3 AND SWAP2 POP JUMPDEST PUSH1 0x20 DUP3 LT DUP2 SUB PUSH3 0x2CA JUMPI PUSH3 0x2C9 PUSH3 0x26C JUMP JUMPDEST JUMPDEST POP SWAP2 SWAP1 POP JUMP JUMPDEST PUSH1 0x0 DUP2 SWAP1 POP DUP2 PUSH1 0x0 MSTORE PUSH1 0x20 PUSH1 0x0 KECCAK256 SWAP1 POP SWAP2 SWAP1 POP JUMP JUMPDEST PUSH1 0x0 PUSH1 0x20 PUSH1 0x1F DUP4 ADD DIV SWAP1 POP SWAP2 SWAP1 POP JUMP JUMPDEST PUSH1 0x0 DUP3 DUP3 SHL SWAP1 POP SWAP3 SWAP2 POP POP JUMP JUMPDEST PUSH1 0x0 PUSH1 0x8 DUP4 MUL PUSH3 0x334 PUSH32 0xFFFFFFFFFFFFFFFFFFFFFFFFFFFFFFFFFFFFFFFFFFFFFFFFFFFFFFFFFFFFFFFF DUP3 PUSH3 0x2F5 JUMP JUMPDEST PUSH3 0x340 DUP7 DUP4 PUSH3 0x2F5 JUMP JUMPDEST SWAP6 POP DUP1 NOT DUP5 AND SWAP4 POP DUP1 DUP7 AND DUP5 OR SWAP3 POP POP POP SWAP4 SWAP3 POP POP POP JUMP JUMPDEST PUSH1 0x0 DUP2 SWAP1 POP SWAP2 SWAP1 POP JUMP JUMPDEST PUSH1 0x0 DUP2 SWAP1 POP SWAP2 SWAP1 POP JUMP JUMPDEST PUSH1 0x0 PUSH3 0x38D PUSH3 0x387 PUSH3 0x381 DUP5 PUSH3 0x358 JUMP JUMPDEST PUSH3 0x362 JUMP JUMPDEST PUSH3 0x358 JUMP JUMPDEST SWAP1 POP SWAP2 SWAP1 POP JUMP JUMPDEST PUSH1 0x0 DUP2 SWAP1 POP SWAP2 SWAP1 POP JUMP JUMPDEST PUSH3 0x3A9 DUP4 PUSH3 0x36C JUMP JUMPDEST PUSH3 0x3C1 PUSH3 0x3B8 DUP3 PUSH3 0x394 JUMP JUMPDEST DUP5 DUP5 SLOAD PUSH3 0x302 JUMP JUMPDEST DUP3 SSTORE POP POP POP POP JUMP JUMPDEST PUSH1 0x0 SWAP1 JUMP JUMPDEST PUSH3 0x3D8 PUSH3 0x3C9 JUMP JUMPDEST PUSH3 0x3E5 DUP2 DUP5 DUP5 PUSH3 0x39E JUMP JUMPDEST POP POP POP JUMP JUMPDEST JUMPDEST DUP2 DUP2 LT ISZERO PUSH3 0x40D JUMPI PUSH3 0x401 PUSH1 0x0 DUP3 PUSH3 0x3CE JUMP JUMPDEST PUSH1 0x1 DUP2 ADD SWAP1 POP PUSH3 0x3EB JUMP JUMPDEST POP POP JUMP JUMPDEST PUSH1 0x1F DUP3 GT ISZERO PUSH3 0x45C JUMPI PUSH3 0x426 DUP2 PUSH3 0x2D0 JUMP JUMPDEST PUSH3 0x431 DUP5 PUSH3 0x2E5 JUMP JUMPDEST DUP2 ADD PUSH1 0x20 DUP6 LT ISZERO PUSH3 0x441 JUMPI DUP2 SWAP1 POP JUMPDEST PUSH3 0x459 PUSH3 0x450 DUP6 PUSH3 0x2E5 JUMP JUMPDEST DUP4 ADD DUP3 PUSH3 0x3EA JUMP JUMPDEST POP POP JUMPDEST POP POP POP JUMP JUMPDEST PUSH1 0x0 DUP3 DUP3 SHR SWAP1 POP SWAP3 SWAP2 POP POP JUMP JUMPDEST PUSH1 0x0 PUSH3 0x481 PUSH1 0x0 NOT DUP5 PUSH1 0x8 MUL PUSH3 0x461 JUMP JUMPDEST NOT DUP1 DUP4 AND SWAP2 POP POP SWAP3 SWAP2 POP POP JUMP JUMPDEST PUSH1 0x0 PUSH3 0x49C DUP4 DUP4 PUSH3 0x46E JUMP JUMPDEST SWAP2 POP DUP3 PUSH1 0x2 MUL DUP3 OR SWAP1 POP SWAP3 SWAP2 POP POP JUMP JUMPDEST PUSH3 0x4B7 DUP3 PUSH3 0x232 JUMP JUMPDEST PUSH8 0xFFFFFFFFFFFFFFFF DUP2 GT ISZERO PUSH3 0x4D3 JUMPI PUSH3 0x4D2 PUSH3 0x23D JUMP JUMPDEST JUMPDEST PUSH3 0x4DF DUP3 SLOAD PUSH3 0x29B JUMP JUMPDEST PUSH3 0x4EC DUP3 DUP3 DUP6 PUSH3 0x411 JUMP JUMPDEST PUSH1 0x0 PUSH1 0x20 SWAP1 POP PUSH1 0x1F DUP4 GT PUSH1 0x1 DUP2 EQ PUSH3 0x524 JUMPI PUSH1 0x0 DUP5 ISZERO PUSH3 0x50F JUMPI DUP3 DUP8 ADD MLOAD SWAP1 POP JUMPDEST PUSH3 0x51B DUP6 DUP3 PUSH3 0x48E JUMP JUMPDEST DUP7 SSTORE POP PUSH3 0x58B JUMP JUMPDEST PUSH1 0x1F NOT DUP5 AND PUSH3 0x534 DUP7 PUSH3 0x2D0 JUMP JUMPDEST PUSH1 0x0 JUMPDEST DUP3 DUP2 LT ISZERO PUSH3 0x55E JUMPI DUP5 DUP10 ADD MLOAD DUP3 SSTORE PUSH1 0x1 DUP3 ADD SWAP2 POP PUSH1 0x20 DUP6 ADD SWAP5 POP PUSH1 0x20 DUP2 ADD SWAP1 POP PUSH3 0x537 JUMP JUMPDEST DUP7 DUP4 LT ISZERO PUSH3 0x57E JUMPI DUP5 DUP10 ADD MLOAD PUSH3 0x57A PUSH1 0x1F DUP10 AND DUP3 PUSH3 0x46E JUMP JUMPDEST DUP4 SSTORE POP JUMPDEST PUSH1 0x1 PUSH1 0x2 DUP9 MUL ADD DUP9 SSTORE POP POP POP JUMPDEST POP POP POP POP POP POP JUMP JUMPDEST PUSH2 0xBD0 DUP1 PUSH3 0x5A3 PUSH1 0x0 CODECOPY PUSH1 0x0 RETURN INVALID PUSH1 0x80 PUSH1 0x40 MSTORE PUSH1 0x4 CALLDATASIZE LT PUSH2 0x3F JUMPI PUSH1 0x0 CALLDATALOAD PUSH1 0xE0 SHR DUP1 PUSH4 0x68C47D19 EQ PUSH2 0x44 JUMPI DUP1 PUSH4 0x75D61759 EQ PUSH2 0x81 JUMPI DUP1 PUSH4 0xA074DC3D EQ PUSH2 0xBE JUMPI DUP1 PUSH4 0xC723F14C EQ PUSH2 0xFB JUMPI JUMPDEST PUSH1 0x0 DUP1 REVERT JUMPDEST CALLVALUE DUP1 ISZERO PUSH2 0x50 JUMPI PUSH1 0x0 DUP1 REVERT JUMPDEST POP PUSH2 0x6B PUSH1 0x4 DUP1 CALLDATASIZE SUB DUP2 ADD SWAP1 PUSH2 0x66 SWAP2 SWAP1 PUSH2 0x53A JUMP JUMPDEST PUSH2 0x117 JUMP JUMPDEST PUSH1 0x40 MLOAD PUSH2 0x78 SWAP2 SWAP1 PUSH2 0x5A0 JUMP JUMPDEST PUSH1 0x40 MLOAD DUP1 SWAP2 SUB SWAP1 RETURN JUMPDEST CALLVALUE DUP1 ISZERO PUSH2 0x8D JUMPI PUSH1 0x0 DUP1 REVERT JUMPDEST POP PUSH2 0xA8 PUSH1 0x4 DUP1 CALLDATASIZE SUB DUP2 ADD SWAP1 PUSH2 0xA3 SWAP2 SWAP1 PUSH2 0x611 JUMP JUMPDEST PUSH2 0x230 JUMP JUMPDEST PUSH1 0x40 MLOAD PUSH2 0xB5 SWAP2 SWAP1 PUSH2 0x5A0 JUMP JUMPDEST PUSH1 0x40 MLOAD DUP1 SWAP2 SUB SWAP1 RETURN JUMPDEST CALLVALUE DUP1 ISZERO PUSH2 0xCA JUMPI PUSH1 0x0 DUP1 REVERT JUMPDEST POP PUSH2 0xE5 PUSH1 0x4 DUP1 CALLDATASIZE SUB DUP2 ADD SWAP1 PUSH2 0xE0 SWAP2 SWAP1 PUSH2 0x7F5 JUMP JUMPDEST PUSH2 0x2AE JUMP JUMPDEST PUSH1 0x40 MLOAD PUSH2 0xF2 SWAP2 SWAP1 PUSH2 0x88C JUMP JUMPDEST PUSH1 0x40 MLOAD DUP1 SWAP2 SUB SWAP1 RETURN JUMPDEST PUSH2 0x115 PUSH1 0x4 DUP1 CALLDATASIZE SUB DUP2 ADD SWAP1 PUSH2 0x110 SWAP2 SWAP1 PUSH2 0x8A7 JUMP JUMPDEST PUSH2 0x30A JUMP JUMPDEST STOP JUMPDEST PUSH1 0x0 DUP1 PUSH1 0x0 JUMPDEST PUSH1 0x1 DUP1 SLOAD SWAP1 POP DUP2 LT ISZERO PUSH2 0x225 JUMPI PUSH2 0x1FE PUSH1 0x1 DUP3 DUP2 SLOAD DUP2 LT PUSH2 0x141 JUMPI PUSH2 0x140 PUSH2 0x928 JUMP JUMPDEST JUMPDEST SWAP1 PUSH1 0x0 MSTORE PUSH1 0x20 PUSH1 0x0 KECCAK256 ADD DUP1 SLOAD PUSH2 0x156 SWAP1 PUSH2 0x986 JUMP JUMPDEST DUP1 PUSH1 0x1F ADD PUSH1 0x20 DUP1 SWAP2 DIV MUL PUSH1 0x20 ADD PUSH1 0x40 MLOAD SWAP1 DUP2 ADD PUSH1 0x40 MSTORE DUP1 SWAP3 SWAP2 SWAP1 DUP2 DUP2 MSTORE PUSH1 0x20 ADD DUP3 DUP1 SLOAD PUSH2 0x182 SWAP1 PUSH2 0x986 JUMP JUMPDEST DUP1 ISZERO PUSH2 0x1CF JUMPI DUP1 PUSH1 0x1F LT PUSH2 0x1A4 JUMPI PUSH2 0x100 DUP1 DUP4 SLOAD DIV MUL DUP4 MSTORE SWAP2 PUSH1 0x20 ADD SWAP2 PUSH2 0x1CF JUMP JUMPDEST DUP3 ADD SWAP2 SWAP1 PUSH1 0x0 MSTORE PUSH1 0x20 PUSH1 0x0 KECCAK256 SWAP1 JUMPDEST DUP2 SLOAD DUP2 MSTORE SWAP1 PUSH1 0x1 ADD SWAP1 PUSH1 0x20 ADD DUP1 DUP4 GT PUSH2 0x1B2 JUMPI DUP3 SWAP1 SUB PUSH1 0x1F AND DUP3 ADD SWAP2 JUMPDEST POP POP POP POP POP DUP7 DUP7 DUP5 DUP2 DUP2 LT PUSH2 0x1E7 JUMPI PUSH2 0x1E6 PUSH2 0x928 JUMP JUMPDEST JUMPDEST SWAP1 POP PUSH1 0x20 MUL DUP2 ADD SWAP1 PUSH2 0x1F9 SWAP2 SWAP1 PUSH2 0x9C6 JUMP JUMPDEST PUSH2 0x2AE JUMP JUMPDEST ISZERO PUSH2 0x212 JUMPI DUP2 DUP1 PUSH2 0x20E SWAP1 PUSH2 0xA58 JUMP JUMPDEST SWAP3 POP POP JUMPDEST DUP1 DUP1 PUSH2 0x21D SWAP1 PUSH2 0xA58 JUMP JUMPDEST SWAP2 POP POP PUSH2 0x11D JUMP JUMPDEST POP DUP1 SWAP2 POP POP SWAP3 SWAP2 POP POP JUMP JUMPDEST PUSH1 0x0 DUP1 PUSH1 0x0 JUMPDEST PUSH1 0x0 DUP1 SLOAD SWAP1 POP DUP2 LT ISZERO PUSH2 0x2A3 JUMPI DUP5 DUP5 DUP3 DUP2 DUP2 LT PUSH2 0x256 JUMPI PUSH2 0x255 PUSH2 0x928 JUMP JUMPDEST JUMPDEST SWAP1 POP PUSH1 0x20 MUL ADD CALLDATALOAD PUSH1 0x0 DUP3 DUP2 SLOAD DUP2 LT PUSH2 0x271 JUMPI PUSH2 0x270 PUSH2 0x928 JUMP JUMPDEST JUMPDEST SWAP1 PUSH1 0x0 MSTORE PUSH1 0x20 PUSH1 0x0 KECCAK256 ADD SLOAD SUB PUSH2 0x290 JUMPI DUP2 DUP1 PUSH2 0x28C SWAP1 PUSH2 0xA58 JUMP JUMPDEST SWAP3 POP POP JUMPDEST DUP1 DUP1 PUSH2 0x29B SWAP1 PUSH2 0xA58 JUMP JUMPDEST SWAP2 POP POP PUSH2 0x236 JUMP JUMPDEST POP DUP1 SWAP2 POP POP SWAP3 SWAP2 POP POP JUMP JUMPDEST PUSH1 0x0 DUP3 DUP3 PUSH1 0x40 MLOAD PUSH1 0x20 ADD PUSH2 0x2C3 SWAP3 SWAP2 SWAP1 PUSH2 0xAD0 JUMP JUMPDEST PUSH1 0x40 MLOAD PUSH1 0x20 DUP2 DUP4 SUB SUB DUP2 MSTORE SWAP1 PUSH1 0x40 MSTORE DUP1 MLOAD SWAP1 PUSH1 0x20 ADD KECCAK256 DUP5 PUSH1 0x40 MLOAD PUSH1 0x20 ADD PUSH2 0x2EA SWAP2 SWAP1 PUSH2 0xB4F JUMP JUMPDEST PUSH1 0x40 MLOAD PUSH1 0x20 DUP2 DUP4 SUB SUB DUP2 MSTORE SWAP1 PUSH1 0x40 MSTORE DUP1 MLOAD SWAP1 PUSH1 0x20 ADD KECCAK256 EQ SWAP1 POP SWAP4 SWAP3 POP POP POP JUMP JUMPDEST PUSH7 0xB1A2BC2EC50000 CALLVALUE EQ PUSH2 0x31D JUMPI PUSH1 0x0 DUP1 REVERT JUMPDEST PUSH1 0x0 PUSH2 0x329 DUP4 DUP4 PUSH2 0x117 JUMP JUMPDEST PUSH2 0x333 DUP7 DUP7 PUSH2 0x230 JUMP JUMPDEST PUSH2 0x33D SWAP2 SWAP1 PUSH2 0xB66 JUMP JUMPDEST SWAP1 POP PUSH2 0x348 DUP2 PUSH2 0x34F JUMP JUMPDEST POP POP POP POP POP JUMP JUMPDEST PUSH1 0x6 DUP2 SUB PUSH2 0x3AB JUMPI CALLER PUSH20 0xFFFFFFFFFFFFFFFFFFFFFFFFFFFFFFFFFFFFFFFF AND PUSH2 0x8FC PUSH8 0xDE0B6B3A7640000 SWAP1 DUP2 ISZERO MUL SWAP1 PUSH1 0x40 MLOAD PUSH1 0x0 PUSH1 0x40 MLOAD DUP1 DUP4 SUB DUP2 DUP6 DUP9 DUP9 CALL SWAP4 POP POP POP POP ISZERO DUP1 ISZERO PUSH2 0x3A5 JUMPI RETURNDATASIZE PUSH1 0x0 DUP1 RETURNDATACOPY RETURNDATASIZE PUSH1 0x0 REVERT JUMPDEST POP PUSH2 0x4BE JUMP JUMPDEST PUSH1 0x5 DUP2 SUB PUSH2 0x407 JUMPI CALLER PUSH20 0xFFFFFFFFFFFFFFFFFFFFFFFFFFFFFFFFFFFFFFFF AND PUSH2 0x8FC PUSH8 0xA688906BD8B0000 SWAP1 DUP2 ISZERO MUL SWAP1 PUSH1 0x40 MLOAD PUSH1 0x0 PUSH1 0x40 MLOAD DUP1 DUP4 SUB DUP2 DUP6 DUP9 DUP9 CALL SWAP4 POP POP POP POP ISZERO DUP1 ISZERO PUSH2 0x401 JUMPI RETURNDATASIZE PUSH1 0x0 DUP1 RETURNDATACOPY RETURNDATASIZE PUSH1 0x0 REVERT JUMPDEST POP PUSH2 0x4BD JUMP JUMPDEST PUSH1 0x4 DUP2 SUB PUSH2 0x463 JUMPI CALLER PUSH20 0xFFFFFFFFFFFFFFFFFFFFFFFFFFFFFFFFFFFFFFFF AND PUSH2 0x8FC PUSH8 0x3782DACE9D90000 SWAP1 DUP2 ISZERO MUL SWAP1 PUSH1 0x40 MLOAD PUSH1 0x0 PUSH1 0x40 MLOAD DUP1 DUP4 SUB DUP2 DUP6 DUP9 DUP9 CALL SWAP4 POP POP POP POP ISZERO DUP1 ISZERO PUSH2 0x45D JUMPI RETURNDATASIZE PUSH1 0x0 DUP1 RETURNDATACOPY RETURNDATASIZE PUSH1 0x0 REVERT JUMPDEST POP PUSH2 0x4BC JUMP JUMPDEST PUSH1 0x3 DUP2 SUB PUSH2 0x4BB JUMPI CALLER PUSH20 0xFFFFFFFFFFFFFFFFFFFFFFFFFFFFFFFFFFFFFFFF AND PUSH2 0x8FC PUSH8 0x16345785D8A0000 SWAP1 DUP2 ISZERO MUL SWAP1 PUSH1 0x40 MLOAD PUSH1 0x0 PUSH1 0x40 MLOAD DUP1 DUP4 SUB DUP2 DUP6 DUP9 DUP9 CALL SWAP4 POP POP POP POP ISZERO DUP1 ISZERO PUSH2 0x4B9 JUMPI RETURNDATASIZE PUSH1 0x0 DUP1 RETURNDATACOPY RETURNDATASIZE PUSH1 0x0 REVERT JUMPDEST POP JUMPDEST JUMPDEST JUMPDEST JUMPDEST POP JUMP JUMPDEST PUSH1 0x0 PUSH1 0x40 MLOAD SWAP1 POP SWAP1 JUMP JUMPDEST PUSH1 0x0 DUP1 REVERT JUMPDEST PUSH1 0x0 DUP1 REVERT JUMPDEST PUSH1 0x0 DUP1 REVERT JUMPDEST PUSH1 0x0 DUP1 REVERT JUMPDEST PUSH1 0x0 DUP1 REVERT JUMPDEST PUSH1 0x0 DUP1 DUP4 PUSH1 0x1F DUP5 ADD SLT PUSH2 0x4FA JUMPI PUSH2 0x4F9 PUSH2 0x4D5 JUMP JUMPDEST JUMPDEST DUP3 CALLDATALOAD SWAP1 POP PUSH8 0xFFFFFFFFFFFFFFFF DUP2 GT ISZERO PUSH2 0x517 JUMPI PUSH2 0x516 PUSH2 0x4DA JUMP JUMPDEST JUMPDEST PUSH1 0x20 DUP4 ADD SWAP2 POP DUP4 PUSH1 0x20 DUP3 MUL DUP4 ADD GT ISZERO PUSH2 0x533 JUMPI PUSH2 0x532 PUSH2 0x4DF JUMP JUMPDEST JUMPDEST SWAP3 POP SWAP3 SWAP1 POP JUMP JUMPDEST PUSH1 0x0 DUP1 PUSH1 0x20 DUP4 DUP6 SUB SLT ISZERO PUSH2 0x551 JUMPI PUSH2 0x550 PUSH2 0x4CB JUMP JUMPDEST JUMPDEST PUSH1 0x0 DUP4 ADD CALLDATALOAD PUSH8 0xFFFFFFFFFFFFFFFF DUP2 GT ISZERO PUSH2 0x56F JUMPI PUSH2 0x56E PUSH2 0x4D0 JUMP JUMPDEST JUMPDEST PUSH2 0x57B DUP6 DUP3 DUP7 ADD PUSH2 0x4E4 JUMP JUMPDEST SWAP3 POP SWAP3 POP POP SWAP3 POP SWAP3 SWAP1 POP JUMP JUMPDEST PUSH1 0x0 DUP2 SWAP1 POP SWAP2 SWAP1 POP JUMP JUMPDEST PUSH2 0x59A DUP2 PUSH2 0x587 JUMP JUMPDEST DUP3 MSTORE POP POP JUMP JUMPDEST PUSH1 0x0 PUSH1 0x20 DUP3 ADD SWAP1 POP PUSH2 0x5B5 PUSH1 0x0 DUP4 ADD DUP5 PUSH2 0x591 JUMP JUMPDEST SWAP3 SWAP2 POP POP JUMP JUMPDEST PUSH1 0x0 DUP1 DUP4 PUSH1 0x1F DUP5 ADD SLT PUSH2 0x5D1 JUMPI PUSH2 0x5D0 PUSH2 0x4D5 JUMP JUMPDEST JUMPDEST DUP3 CALLDATALOAD SWAP1 POP PUSH8 0xFFFFFFFFFFFFFFFF DUP2 GT ISZERO PUSH2 0x5EE JUMPI PUSH2 0x5ED PUSH2 0x4DA JUMP JUMPDEST JUMPDEST PUSH1 0x20 DUP4 ADD SWAP2 POP DUP4 PUSH1 0x20 DUP3 MUL DUP4 ADD GT ISZERO PUSH2 0x60A JUMPI PUSH2 0x609 PUSH2 0x4DF JUMP JUMPDEST JUMPDEST SWAP3 POP SWAP3 SWAP1 POP JUMP JUMPDEST PUSH1 0x0 DUP1 PUSH1 0x20 DUP4 DUP6 SUB SLT ISZERO PUSH2 0x628 JUMPI PUSH2 0x627 PUSH2 0x4CB JUMP JUMPDEST JUMPDEST PUSH1 0x0 DUP4 ADD CALLDATALOAD PUSH8 0xFFFFFFFFFFFFFFFF DUP2 GT ISZERO PUSH2 0x646 JUMPI PUSH2 0x645 PUSH2 0x4D0 JUMP JUMPDEST JUMPDEST PUSH2 0x652 DUP6 DUP3 DUP7 ADD PUSH2 0x5BB JUMP JUMPDEST SWAP3 POP SWAP3 POP POP SWAP3 POP SWAP3 SWAP1 POP JUMP JUMPDEST PUSH1 0x0 DUP1 REVERT JUMPDEST PUSH1 0x0 PUSH1 0x1F NOT PUSH1 0x1F DUP4 ADD AND SWAP1 POP SWAP2 SWAP1 POP JUMP JUMPDEST PUSH32 0x4E487B7100000000000000000000000000000000000000000000000000000000 PUSH1 0x0 MSTORE PUSH1 0x41 PUSH1 0x4 MSTORE PUSH1 0x24 PUSH1 0x0 REVERT JUMPDEST PUSH2 0x6AC DUP3 PUSH2 0x663 JUMP JUMPDEST DUP2 ADD DUP2 DUP2 LT PUSH8 0xFFFFFFFFFFFFFFFF DUP3 GT OR ISZERO PUSH2 0x6CB JUMPI PUSH2 0x6CA PUSH2 0x674 JUMP JUMPDEST JUMPDEST DUP1 PUSH1 0x40 MSTORE POP POP POP JUMP JUMPDEST PUSH1 0x0 PUSH2 0x6DE PUSH2 0x4C1 JUMP JUMPDEST SWAP1 POP PUSH2 0x6EA DUP3 DUP3 PUSH2 0x6A3 JUMP JUMPDEST SWAP2 SWAP1 POP JUMP JUMPDEST PUSH1 0x0 PUSH8 0xFFFFFFFFFFFFFFFF DUP3 GT ISZERO PUSH2 0x70A JUMPI PUSH2 0x709 PUSH2 0x674 JUMP JUMPDEST JUMPDEST PUSH2 0x713 DUP3 PUSH2 0x663 JUMP JUMPDEST SWAP1 POP PUSH1 0x20 DUP2 ADD SWAP1 POP SWAP2 SWAP1 POP JUMP JUMPDEST DUP3 DUP2 DUP4 CALLDATACOPY PUSH1 0x0 DUP4 DUP4 ADD MSTORE POP POP POP JUMP JUMPDEST PUSH1 0x0 PUSH2 0x742 PUSH2 0x73D DUP5 PUSH2 0x6EF JUMP JUMPDEST PUSH2 0x6D4 JUMP JUMPDEST SWAP1 POP DUP3 DUP2 MSTORE PUSH1 0x20 DUP2 ADD DUP5 DUP5 DUP5 ADD GT ISZERO PUSH2 0x75E JUMPI PUSH2 0x75D PUSH2 0x65E JUMP JUMPDEST JUMPDEST PUSH2 0x769 DUP5 DUP3 DUP6 PUSH2 0x720 JUMP JUMPDEST POP SWAP4 SWAP3 POP POP POP JUMP JUMPDEST PUSH1 0x0 DUP3 PUSH1 0x1F DUP4 ADD SLT PUSH2 0x786 JUMPI PUSH2 0x785 PUSH2 0x4D5 JUMP JUMPDEST JUMPDEST DUP2 CALLDATALOAD PUSH2 0x796 DUP5 DUP3 PUSH1 0x20 DUP7 ADD PUSH2 0x72F JUMP JUMPDEST SWAP2 POP POP SWAP3 SWAP2 POP POP JUMP JUMPDEST PUSH1 0x0 DUP1 DUP4 PUSH1 0x1F DUP5 ADD SLT PUSH2 0x7B5 JUMPI PUSH2 0x7B4 PUSH2 0x4D5 JUMP JUMPDEST JUMPDEST DUP3 CALLDATALOAD SWAP1 POP PUSH8 0xFFFFFFFFFFFFFFFF DUP2 GT ISZERO PUSH2 0x7D2 JUMPI PUSH2 0x7D1 PUSH2 0x4DA JUMP JUMPDEST JUMPDEST PUSH1 0x20 DUP4 ADD SWAP2 POP DUP4 PUSH1 0x1 DUP3 MUL DUP4 ADD GT ISZERO PUSH2 0x7EE JUMPI PUSH2 0x7ED PUSH2 0x4DF JUMP JUMPDEST JUMPDEST SWAP3 POP SWAP3 SWAP1 POP JUMP JUMPDEST PUSH1 0x0 DUP1 PUSH1 0x0 PUSH1 0x40 DUP5 DUP7 SUB SLT ISZERO PUSH2 0x80E JUMPI PUSH2 0x80D PUSH2 0x4CB JUMP JUMPDEST JUMPDEST PUSH1 0x0 DUP5 ADD CALLDATALOAD PUSH8 0xFFFFFFFFFFFFFFFF DUP2 GT ISZERO PUSH2 0x82C JUMPI PUSH2 0x82B PUSH2 0x4D0 JUMP JUMPDEST JUMPDEST PUSH2 0x838 DUP7 DUP3 DUP8 ADD PUSH2 0x771 JUMP JUMPDEST SWAP4 POP POP PUSH1 0x20 DUP5 ADD CALLDATALOAD PUSH8 0xFFFFFFFFFFFFFFFF DUP2 GT ISZERO PUSH2 0x859 JUMPI PUSH2 0x858 PUSH2 0x4D0 JUMP JUMPDEST JUMPDEST PUSH2 0x865 DUP7 DUP3 DUP8 ADD PUSH2 0x79F JUMP JUMPDEST SWAP3 POP SWAP3 POP POP SWAP3 POP SWAP3 POP SWAP3 JUMP JUMPDEST PUSH1 0x0 DUP2 ISZERO ISZERO SWAP1 POP SWAP2 SWAP1 POP JUMP JUMPDEST PUSH2 0x886 DUP2 PUSH2 0x871 JUMP JUMPDEST DUP3 MSTORE POP POP JUMP JUMPDEST PUSH1 0x0 PUSH1 0x20 DUP3 ADD SWAP1 POP PUSH2 0x8A1 PUSH1 0x0 DUP4 ADD DUP5 PUSH2 0x87D JUMP JUMPDEST SWAP3 SWAP2 POP POP JUMP JUMPDEST PUSH1 0x0 DUP1 PUSH1 0x0 DUP1 PUSH1 0x40 DUP6 DUP8 SUB SLT ISZERO PUSH2 0x8C1 JUMPI PUSH2 0x8C0 PUSH2 0x4CB JUMP JUMPDEST JUMPDEST PUSH1 0x0 DUP6 ADD CALLDATALOAD PUSH8 0xFFFFFFFFFFFFFFFF DUP2 GT ISZERO PUSH2 0x8DF JUMPI PUSH2 0x8DE PUSH2 0x4D0 JUMP JUMPDEST JUMPDEST PUSH2 0x8EB DUP8 DUP3 DUP9 ADD PUSH2 0x5BB JUMP JUMPDEST SWAP5 POP SWAP5 POP POP PUSH1 0x20 DUP6 ADD CALLDATALOAD PUSH8 0xFFFFFFFFFFFFFFFF DUP2 GT ISZERO PUSH2 0x90E JUMPI PUSH2 0x90D PUSH2 0x4D0 JUMP JUMPDEST JUMPDEST PUSH2 0x91A DUP8 DUP3 DUP9 ADD PUSH2 0x4E4 JUMP JUMPDEST SWAP3 POP SWAP3 POP POP SWAP3 SWAP6 SWAP2 SWAP5 POP SWAP3 POP JUMP JUMPDEST PUSH32 0x4E487B7100000000000000000000000000000000000000000000000000000000 PUSH1 0x0 MSTORE PUSH1 0x32 PUSH1 0x4 MSTORE PUSH1 0x24 PUSH1 0x0 REVERT JUMPDEST PUSH32 0x4E487B7100000000000000000000000000000000000000000000000000000000 PUSH1 0x0 MSTORE PUSH1 0x22 PUSH1 0x4 MSTORE PUSH1 0x24 PUSH1 0x0 REVERT JUMPDEST PUSH1 0x0 PUSH1 0x2 DUP3 DIV SWAP1 POP PUSH1 0x1 DUP3 AND DUP1 PUSH2 0x99E JUMPI PUSH1 0x7F DUP3 AND SWAP2 POP JUMPDEST PUSH1 0x20 DUP3 LT DUP2 SUB PUSH2 0x9B1 JUMPI PUSH2 0x9B0 PUSH2 0x957 JUMP JUMPDEST JUMPDEST POP SWAP2 SWAP1 POP JUMP JUMPDEST PUSH1 0x0 DUP1 REVERT JUMPDEST PUSH1 0x0 DUP1 REVERT JUMPDEST PUSH1 0x0 DUP1 REVERT JUMPDEST PUSH1 0x0 DUP1 DUP4 CALLDATALOAD PUSH1 0x1 PUSH1 0x20 SUB DUP5 CALLDATASIZE SUB SUB DUP2 SLT PUSH2 0x9E3 JUMPI PUSH2 0x9E2 PUSH2 0x9B7 JUMP JUMPDEST JUMPDEST DUP1 DUP5 ADD SWAP3 POP DUP3 CALLDATALOAD SWAP2 POP PUSH8 0xFFFFFFFFFFFFFFFF DUP3 GT ISZERO PUSH2 0xA05 JUMPI PUSH2 0xA04 PUSH2 0x9BC JUMP JUMPDEST JUMPDEST PUSH1 0x20 DUP4 ADD SWAP3 POP PUSH1 0x1 DUP3 MUL CALLDATASIZE SUB DUP4 SGT ISZERO PUSH2 0xA21 JUMPI PUSH2 0xA20 PUSH2 0x9C1 JUMP JUMPDEST JUMPDEST POP SWAP3 POP SWAP3 SWAP1 POP JUMP JUMPDEST PUSH32 0x4E487B7100000000000000000000000000000000000000000000000000000000 PUSH1 0x0 MSTORE PUSH1 0x11 PUSH1 0x4 MSTORE PUSH1 0x24 PUSH1 0x0 REVERT JUMPDEST PUSH1 0x0 PUSH2 0xA63 DUP3 PUSH2 0x587 JUMP JUMPDEST SWAP2 POP PUSH32 0xFFFFFFFFFFFFFFFFFFFFFFFFFFFFFFFFFFFFFFFFFFFFFFFFFFFFFFFFFFFFFFFF DUP3 SUB PUSH2 0xA95 JUMPI PUSH2 0xA94 PUSH2 0xA29 JUMP JUMPDEST JUMPDEST PUSH1 0x1 DUP3 ADD SWAP1 POP SWAP2 SWAP1 POP JUMP JUMPDEST PUSH1 0x0 DUP2 SWAP1 POP SWAP3 SWAP2 POP POP JUMP JUMPDEST PUSH1 0x0 PUSH2 0xAB7 DUP4 DUP6 PUSH2 0xAA0 JUMP JUMPDEST SWAP4 POP PUSH2 0xAC4 DUP4 DUP6 DUP5 PUSH2 0x720 JUMP JUMPDEST DUP3 DUP5 ADD SWAP1 POP SWAP4 SWAP3 POP POP POP JUMP JUMPDEST PUSH1 0x0 PUSH2 0xADD DUP3 DUP5 DUP7 PUSH2 0xAAB JUMP JUMPDEST SWAP2 POP DUP2 SWAP1 POP SWAP4 SWAP3 POP POP POP JUMP JUMPDEST PUSH1 0x0 DUP2 MLOAD SWAP1 POP SWAP2 SWAP1 POP JUMP JUMPDEST PUSH1 0x0 JUMPDEST DUP4 DUP2 LT ISZERO PUSH2 0xB12 JUMPI DUP1 DUP3 ADD MLOAD DUP2 DUP5 ADD MSTORE PUSH1 0x20 DUP2 ADD SWAP1 POP PUSH2 0xAF7 JUMP JUMPDEST PUSH1 0x0 DUP5 DUP5 ADD MSTORE POP POP POP POP JUMP JUMPDEST PUSH1 0x0 PUSH2 0xB29 DUP3 PUSH2 0xAE9 JUMP JUMPDEST PUSH2 0xB33 DUP2 DUP6 PUSH2 0xAA0 JUMP JUMPDEST SWAP4 POP PUSH2 0xB43 DUP2 DUP6 PUSH1 0x20 DUP7 ADD PUSH2 0xAF4 JUMP JUMPDEST DUP1 DUP5 ADD SWAP2 POP POP SWAP3 SWAP2 POP POP JUMP JUMPDEST PUSH1 0x0 PUSH2 0xB5B DUP3 DUP5 PUSH2 0xB1E JUMP JUMPDEST SWAP2 POP DUP2 SWAP1 POP SWAP3 SWAP2 POP POP JUMP JUMPDEST PUSH1 0x0 PUSH2 0xB71 DUP3 PUSH2 0x587 JUMP JUMPDEST SWAP2 POP PUSH2 0xB7C DUP4 PUSH2 0x587 JUMP JUMPDEST SWAP3 POP DUP3 DUP3 ADD SWAP1 POP DUP1 DUP3 GT ISZERO PUSH2 0xB94 JUMPI PUSH2 0xB93 PUSH2 0xA29 JUMP JUMPDEST JUMPDEST SWAP3 SWAP2 POP POP JUMP INVALID LOG2 PUSH5 0x6970667358 0x22 SLT KECCAK256 0x4E SUB DUP2 0xAF SWAP4 LOG2 0xCD PUSH3 0xA2FC0C MLOAD 0x21 0xF9 0x29 PUSH31 0x262680AFDF6DA9E77A50016AD75902264736F6C6343000812003300000000 "
		},
		"gasEstimates": {
			"creation": {
				"codeDepositCost": "604800",
				"executionCost": "infinite",
				"totalCost": "infinite"
			},
			"external": {
				"isSameLetter(string[])": "infinite",
				"isSameNumber(uint256[])": "infinite",
				"letterCompare(string,string)": "infinite",
				"setLotto(uint256[],string[])": "infinite"
			},
			"internal": {
				"getPrize(uint256)": "infinite"
			}
		},
		"methodIdentifiers": {
			"isSameLetter(string[])": "68c47d19",
			"isSameNumber(uint256[])": "75d61759",
			"letterCompare(string,string)": "a074dc3d",
			"setLotto(uint256[],string[])": "c723f14c"
		}
	},
	"abi": [
		{
			"inputs": [
				{
					"internalType": "string[]",
					"name": "_myLetter",
					"type": "string[]"
				}
			],
			"name": "isSameLetter",
			"outputs": [
				{
					"internalType": "uint256",
					"name": "",
					"type": "uint256"
				}
			],
			"stateMutability": "view",
			"type": "function"
		},
		{
			"inputs": [
				{
					"internalType": "uint256[]",
					"name": "_myNumber",
					"type": "uint256[]"
				}
			],
			"name": "isSameNumber",
			"outputs": [
				{
					"internalType": "uint256",
					"name": "",
					"type": "uint256"
				}
			],
			"stateMutability": "view",
			"type": "function"
		},
		{
			"inputs": [
				{
					"internalType": "string",
					"name": "_a",
					"type": "string"
				},
				{
					"internalType": "string",
					"name": "_b",
					"type": "string"
				}
			],
			"name": "letterCompare",
			"outputs": [
				{
					"internalType": "bool",
					"name": "",
					"type": "bool"
				}
			],
			"stateMutability": "pure",
			"type": "function"
		},
		{
			"inputs": [
				{
					"internalType": "uint256[]",
					"name": "_numbers",
					"type": "uint256[]"
				},
				{
					"internalType": "string[]",
					"name": "_letters",
					"type": "string[]"
				}
			],
			"name": "setLotto",
			"outputs": [],
			"stateMutability": "payable",
			"type": "function"
		}
	]
}