{
	"data": {
		"bytecode": {
			"linkReferences": {},
			"object": "608060405234801561001057600080fd5b50610342806100206000396000f3fe608060405234801561001057600080fd5b506004361061002b5760003560e01c8063ba4d0c9914610030575b600080fd5b61004a60048036038101906100459190610163565b610062565b6040516100599392919061019f565b60405180910390f35b600080600080600080603c871015610084576000925060009150869050610115565b610e108710156100b55760009250603c8761009f9190610234565b9150603c876100ae9190610265565b9050610114565b610e10876100c39190610234565b9250603c83610e106100d59190610296565b886100e091906102d8565b6100ea9190610234565b9150603c83610e106100fc9190610296565b8861010791906102d8565b6101119190610265565b90505b5b8282829550955095505050509193909250565b600080fd5b6000819050919050565b6101408161012d565b811461014b57600080fd5b50565b60008135905061015d81610137565b92915050565b60006020828403121561017957610178610128565b5b60006101878482850161014e565b91505092915050565b6101998161012d565b82525050565b60006060820190506101b46000830186610190565b6101c16020830185610190565b6101ce6040830184610190565b949350505050565b7f4e487b7100000000000000000000000000000000000000000000000000000000600052601260045260246000fd5b7f4e487b7100000000000000000000000000000000000000000000000000000000600052601160045260246000fd5b600061023f8261012d565b915061024a8361012d565b92508261025a576102596101d6565b5b828204905092915050565b60006102708261012d565b915061027b8361012d565b92508261028b5761028a6101d6565b5b828206905092915050565b60006102a18261012d565b91506102ac8361012d565b92508282026102ba8161012d565b915082820484148315176102d1576102d0610205565b5b5092915050565b60006102e38261012d565b91506102ee8361012d565b925082820390508181111561030657610305610205565b5b9291505056fea264697066735822122097c342cd4db5d2b645fb3e517d7b248d464d687477b1a3e30acc04f7ffa7c41564736f6c63430008120033",
			"opcodes": "PUSH1 0x80 PUSH1 0x40 MSTORE CALLVALUE DUP1 ISZERO PUSH2 0x10 JUMPI PUSH1 0x0 DUP1 REVERT JUMPDEST POP PUSH2 0x342 DUP1 PUSH2 0x20 PUSH1 0x0 CODECOPY PUSH1 0x0 RETURN INVALID PUSH1 0x80 PUSH1 0x40 MSTORE CALLVALUE DUP1 ISZERO PUSH2 0x10 JUMPI PUSH1 0x0 DUP1 REVERT JUMPDEST POP PUSH1 0x4 CALLDATASIZE LT PUSH2 0x2B JUMPI PUSH1 0x0 CALLDATALOAD PUSH1 0xE0 SHR DUP1 PUSH4 0xBA4D0C99 EQ PUSH2 0x30 JUMPI JUMPDEST PUSH1 0x0 DUP1 REVERT JUMPDEST PUSH2 0x4A PUSH1 0x4 DUP1 CALLDATASIZE SUB DUP2 ADD SWAP1 PUSH2 0x45 SWAP2 SWAP1 PUSH2 0x163 JUMP JUMPDEST PUSH2 0x62 JUMP JUMPDEST PUSH1 0x40 MLOAD PUSH2 0x59 SWAP4 SWAP3 SWAP2 SWAP1 PUSH2 0x19F JUMP JUMPDEST PUSH1 0x40 MLOAD DUP1 SWAP2 SUB SWAP1 RETURN JUMPDEST PUSH1 0x0 DUP1 PUSH1 0x0 DUP1 PUSH1 0x0 DUP1 PUSH1 0x3C DUP8 LT ISZERO PUSH2 0x84 JUMPI PUSH1 0x0 SWAP3 POP PUSH1 0x0 SWAP2 POP DUP7 SWAP1 POP PUSH2 0x115 JUMP JUMPDEST PUSH2 0xE10 DUP8 LT ISZERO PUSH2 0xB5 JUMPI PUSH1 0x0 SWAP3 POP PUSH1 0x3C DUP8 PUSH2 0x9F SWAP2 SWAP1 PUSH2 0x234 JUMP JUMPDEST SWAP2 POP PUSH1 0x3C DUP8 PUSH2 0xAE SWAP2 SWAP1 PUSH2 0x265 JUMP JUMPDEST SWAP1 POP PUSH2 0x114 JUMP JUMPDEST PUSH2 0xE10 DUP8 PUSH2 0xC3 SWAP2 SWAP1 PUSH2 0x234 JUMP JUMPDEST SWAP3 POP PUSH1 0x3C DUP4 PUSH2 0xE10 PUSH2 0xD5 SWAP2 SWAP1 PUSH2 0x296 JUMP JUMPDEST DUP9 PUSH2 0xE0 SWAP2 SWAP1 PUSH2 0x2D8 JUMP JUMPDEST PUSH2 0xEA SWAP2 SWAP1 PUSH2 0x234 JUMP JUMPDEST SWAP2 POP PUSH1 0x3C DUP4 PUSH2 0xE10 PUSH2 0xFC SWAP2 SWAP1 PUSH2 0x296 JUMP JUMPDEST DUP9 PUSH2 0x107 SWAP2 SWAP1 PUSH2 0x2D8 JUMP JUMPDEST PUSH2 0x111 SWAP2 SWAP1 PUSH2 0x265 JUMP JUMPDEST SWAP1 POP JUMPDEST JUMPDEST DUP3 DUP3 DUP3 SWAP6 POP SWAP6 POP SWAP6 POP POP POP POP SWAP2 SWAP4 SWAP1 SWAP3 POP JUMP JUMPDEST PUSH1 0x0 DUP1 REVERT JUMPDEST PUSH1 0x0 DUP2 SWAP1 POP SWAP2 SWAP1 POP JUMP JUMPDEST PUSH2 0x140 DUP2 PUSH2 0x12D JUMP JUMPDEST DUP2 EQ PUSH2 0x14B JUMPI PUSH1 0x0 DUP1 REVERT JUMPDEST POP JUMP JUMPDEST PUSH1 0x0 DUP2 CALLDATALOAD SWAP1 POP PUSH2 0x15D DUP2 PUSH2 0x137 JUMP JUMPDEST SWAP3 SWAP2 POP POP JUMP JUMPDEST PUSH1 0x0 PUSH1 0x20 DUP3 DUP5 SUB SLT ISZERO PUSH2 0x179 JUMPI PUSH2 0x178 PUSH2 0x128 JUMP JUMPDEST JUMPDEST PUSH1 0x0 PUSH2 0x187 DUP5 DUP3 DUP6 ADD PUSH2 0x14E JUMP JUMPDEST SWAP2 POP POP SWAP3 SWAP2 POP POP JUMP JUMPDEST PUSH2 0x199 DUP2 PUSH2 0x12D JUMP JUMPDEST DUP3 MSTORE POP POP JUMP JUMPDEST PUSH1 0x0 PUSH1 0x60 DUP3 ADD SWAP1 POP PUSH2 0x1B4 PUSH1 0x0 DUP4 ADD DUP7 PUSH2 0x190 JUMP JUMPDEST PUSH2 0x1C1 PUSH1 0x20 DUP4 ADD DUP6 PUSH2 0x190 JUMP JUMPDEST PUSH2 0x1CE PUSH1 0x40 DUP4 ADD DUP5 PUSH2 0x190 JUMP JUMPDEST SWAP5 SWAP4 POP POP POP POP JUMP JUMPDEST PUSH32 0x4E487B7100000000000000000000000000000000000000000000000000000000 PUSH1 0x0 MSTORE PUSH1 0x12 PUSH1 0x4 MSTORE PUSH1 0x24 PUSH1 0x0 REVERT JUMPDEST PUSH32 0x4E487B7100000000000000000000000000000000000000000000000000000000 PUSH1 0x0 MSTORE PUSH1 0x11 PUSH1 0x4 MSTORE PUSH1 0x24 PUSH1 0x0 REVERT JUMPDEST PUSH1 0x0 PUSH2 0x23F DUP3 PUSH2 0x12D JUMP JUMPDEST SWAP2 POP PUSH2 0x24A DUP4 PUSH2 0x12D JUMP JUMPDEST SWAP3 POP DUP3 PUSH2 0x25A JUMPI PUSH2 0x259 PUSH2 0x1D6 JUMP JUMPDEST JUMPDEST DUP3 DUP3 DIV SWAP1 POP SWAP3 SWAP2 POP POP JUMP JUMPDEST PUSH1 0x0 PUSH2 0x270 DUP3 PUSH2 0x12D JUMP JUMPDEST SWAP2 POP PUSH2 0x27B DUP4 PUSH2 0x12D JUMP JUMPDEST SWAP3 POP DUP3 PUSH2 0x28B JUMPI PUSH2 0x28A PUSH2 0x1D6 JUMP JUMPDEST JUMPDEST DUP3 DUP3 MOD SWAP1 POP SWAP3 SWAP2 POP POP JUMP JUMPDEST PUSH1 0x0 PUSH2 0x2A1 DUP3 PUSH2 0x12D JUMP JUMPDEST SWAP2 POP PUSH2 0x2AC DUP4 PUSH2 0x12D JUMP JUMPDEST SWAP3 POP DUP3 DUP3 MUL PUSH2 0x2BA DUP2 PUSH2 0x12D JUMP JUMPDEST SWAP2 POP DUP3 DUP3 DIV DUP5 EQ DUP4 ISZERO OR PUSH2 0x2D1 JUMPI PUSH2 0x2D0 PUSH2 0x205 JUMP JUMPDEST JUMPDEST POP SWAP3 SWAP2 POP POP JUMP JUMPDEST PUSH1 0x0 PUSH2 0x2E3 DUP3 PUSH2 0x12D JUMP JUMPDEST SWAP2 POP PUSH2 0x2EE DUP4 PUSH2 0x12D JUMP JUMPDEST SWAP3 POP DUP3 DUP3 SUB SWAP1 POP DUP2 DUP2 GT ISZERO PUSH2 0x306 JUMPI PUSH2 0x305 PUSH2 0x205 JUMP JUMPDEST JUMPDEST SWAP3 SWAP2 POP POP JUMP INVALID LOG2 PUSH5 0x6970667358 0x22 SLT KECCAK256 SWAP8 0xC3 TIMESTAMP 0xCD 0x4D 0xB5 0xD2 0xB6 GASLIMIT 0xFB RETURNDATACOPY MLOAD PUSH30 0x7B248D464D687477B1A3E30ACC04F7FFA7C41564736F6C63430008120033 "
		},
		"gasEstimates": {
			"creation": {
				"codeDepositCost": "166800",
				"executionCost": "214",
				"totalCost": "167014"
			},
			"external": {
				"conversion(uint256)": "infinite"
			}
		},
		"methodIdentifiers": {
			"conversion(uint256)": "ba4d0c99"
		}
	},
	"abi": [
		{
			"inputs": [
				{
					"internalType": "uint256",
					"name": "_time",
					"type": "uint256"
				}
			],
			"name": "conversion",
			"outputs": [
				{
					"internalType": "uint256",
					"name": "",
					"type": "uint256"
				},
				{
					"internalType": "uint256",
					"name": "",
					"type": "uint256"
				},
				{
					"internalType": "uint256",
					"name": "",
					"type": "uint256"
				}
			],
			"stateMutability": "pure",
			"type": "function"
		}
	]
}