{
	"data": {
		"bytecode": {
			"linkReferences": {},
			"object": "608060405234801561001057600080fd5b50610609806100206000396000f3fe608060405234801561001057600080fd5b506004361061004c5760003560e01c80630bee723a146100515780634425506b146100815780635b6d42c2146100b1578063f0fdf834146100e1575b600080fd5b61006b60048036038101906100669190610273565b610111565b60405161007891906102af565b60405180910390f35b61009b60048036038101906100969190610273565b610145565b6040516100a89190610388565b60405180910390f35b6100cb60048036038101906100c69190610273565b6101ec565b6040516100d891906102af565b60405180910390f35b6100fb60048036038101906100f69190610273565b610214565b60405161010891906102af565b60405180910390f35b6000805b80600a610122919061050c565b83111561013c57808061013490610557565b915050610115565b80915050919050565b60605b8160008054905010156101945760006001600080549050610169919061059f565b9080600181540180825580915050600190039060005260206000200160009091909190915055610148565b60008054806020026020016040519081016040528092919081815260200182805480156101e057602002820191906000526020600020905b8154815260200190600101908083116101cc575b50505050509050919050565b6000805b8083111561020b57808061020390610557565b9150506101f0565b80915050919050565b6000818154811061022457600080fd5b906000526020600020016000915090505481565b600080fd5b6000819050919050565b6102508161023d565b811461025b57600080fd5b50565b60008135905061026d81610247565b92915050565b60006020828403121561028957610288610238565b5b60006102978482850161025e565b91505092915050565b6102a98161023d565b82525050565b60006020820190506102c460008301846102a0565b92915050565b600081519050919050565b600082825260208201905092915050565b6000819050602082019050919050565b6102ff8161023d565b82525050565b600061031183836102f6565b60208301905092915050565b6000602082019050919050565b6000610335826102ca565b61033f81856102d5565b935061034a836102e6565b8060005b8381101561037b5781516103628882610305565b975061036d8361031d565b92505060018101905061034e565b5085935050505092915050565b600060208201905081810360008301526103a2818461032a565b905092915050565b7f4e487b7100000000000000000000000000000000000000000000000000000000600052601160045260246000fd5b60008160011c9050919050565b6000808291508390505b60018511156104305780860481111561040c5761040b6103aa565b5b600185161561041b5780820291505b8081029050610429856103d9565b94506103f0565b94509492505050565b6000826104495760019050610505565b816104575760009050610505565b816001811461046d5760028114610477576104a6565b6001915050610505565b60ff841115610489576104886103aa565b5b8360020a9150848211156104a05761049f6103aa565b5b50610505565b5060208310610133831016604e8410600b84101617156104db5782820a9050838111156104d6576104d56103aa565b5b610505565b6104e884848460016103e6565b925090508184048111156104ff576104fe6103aa565b5b81810290505b9392505050565b60006105178261023d565b91506105228361023d565b925061054f7fffffffffffffffffffffffffffffffffffffffffffffffffffffffffffffffff8484610439565b905092915050565b60006105628261023d565b91507fffffffffffffffffffffffffffffffffffffffffffffffffffffffffffffffff8203610594576105936103aa565b5b600182019050919050565b60006105aa8261023d565b91506105b58361023d565b92508282019050808211156105cd576105cc6103aa565b5b9291505056fea26469706673582212201dc59c1f6bc371629386026630a7121420d45d74a80c923d9d51b458d762b49a64736f6c63430008120033",
			"opcodes": "PUSH1 0x80 PUSH1 0x40 MSTORE CALLVALUE DUP1 ISZERO PUSH2 0x10 JUMPI PUSH1 0x0 DUP1 REVERT JUMPDEST POP PUSH2 0x609 DUP1 PUSH2 0x20 PUSH1 0x0 CODECOPY PUSH1 0x0 RETURN INVALID PUSH1 0x80 PUSH1 0x40 MSTORE CALLVALUE DUP1 ISZERO PUSH2 0x10 JUMPI PUSH1 0x0 DUP1 REVERT JUMPDEST POP PUSH1 0x4 CALLDATASIZE LT PUSH2 0x4C JUMPI PUSH1 0x0 CALLDATALOAD PUSH1 0xE0 SHR DUP1 PUSH4 0xBEE723A EQ PUSH2 0x51 JUMPI DUP1 PUSH4 0x4425506B EQ PUSH2 0x81 JUMPI DUP1 PUSH4 0x5B6D42C2 EQ PUSH2 0xB1 JUMPI DUP1 PUSH4 0xF0FDF834 EQ PUSH2 0xE1 JUMPI JUMPDEST PUSH1 0x0 DUP1 REVERT JUMPDEST PUSH2 0x6B PUSH1 0x4 DUP1 CALLDATASIZE SUB DUP2 ADD SWAP1 PUSH2 0x66 SWAP2 SWAP1 PUSH2 0x273 JUMP JUMPDEST PUSH2 0x111 JUMP JUMPDEST PUSH1 0x40 MLOAD PUSH2 0x78 SWAP2 SWAP1 PUSH2 0x2AF JUMP JUMPDEST PUSH1 0x40 MLOAD DUP1 SWAP2 SUB SWAP1 RETURN JUMPDEST PUSH2 0x9B PUSH1 0x4 DUP1 CALLDATASIZE SUB DUP2 ADD SWAP1 PUSH2 0x96 SWAP2 SWAP1 PUSH2 0x273 JUMP JUMPDEST PUSH2 0x145 JUMP JUMPDEST PUSH1 0x40 MLOAD PUSH2 0xA8 SWAP2 SWAP1 PUSH2 0x388 JUMP JUMPDEST PUSH1 0x40 MLOAD DUP1 SWAP2 SUB SWAP1 RETURN JUMPDEST PUSH2 0xCB PUSH1 0x4 DUP1 CALLDATASIZE SUB DUP2 ADD SWAP1 PUSH2 0xC6 SWAP2 SWAP1 PUSH2 0x273 JUMP JUMPDEST PUSH2 0x1EC JUMP JUMPDEST PUSH1 0x40 MLOAD PUSH2 0xD8 SWAP2 SWAP1 PUSH2 0x2AF JUMP JUMPDEST PUSH1 0x40 MLOAD DUP1 SWAP2 SUB SWAP1 RETURN JUMPDEST PUSH2 0xFB PUSH1 0x4 DUP1 CALLDATASIZE SUB DUP2 ADD SWAP1 PUSH2 0xF6 SWAP2 SWAP1 PUSH2 0x273 JUMP JUMPDEST PUSH2 0x214 JUMP JUMPDEST PUSH1 0x40 MLOAD PUSH2 0x108 SWAP2 SWAP1 PUSH2 0x2AF JUMP JUMPDEST PUSH1 0x40 MLOAD DUP1 SWAP2 SUB SWAP1 RETURN JUMPDEST PUSH1 0x0 DUP1 JUMPDEST DUP1 PUSH1 0xA PUSH2 0x122 SWAP2 SWAP1 PUSH2 0x50C JUMP JUMPDEST DUP4 GT ISZERO PUSH2 0x13C JUMPI DUP1 DUP1 PUSH2 0x134 SWAP1 PUSH2 0x557 JUMP JUMPDEST SWAP2 POP POP PUSH2 0x115 JUMP JUMPDEST DUP1 SWAP2 POP POP SWAP2 SWAP1 POP JUMP JUMPDEST PUSH1 0x60 JUMPDEST DUP2 PUSH1 0x0 DUP1 SLOAD SWAP1 POP LT ISZERO PUSH2 0x194 JUMPI PUSH1 0x0 PUSH1 0x1 PUSH1 0x0 DUP1 SLOAD SWAP1 POP PUSH2 0x169 SWAP2 SWAP1 PUSH2 0x59F JUMP JUMPDEST SWAP1 DUP1 PUSH1 0x1 DUP2 SLOAD ADD DUP1 DUP3 SSTORE DUP1 SWAP2 POP POP PUSH1 0x1 SWAP1 SUB SWAP1 PUSH1 0x0 MSTORE PUSH1 0x20 PUSH1 0x0 KECCAK256 ADD PUSH1 0x0 SWAP1 SWAP2 SWAP1 SWAP2 SWAP1 SWAP2 POP SSTORE PUSH2 0x148 JUMP JUMPDEST PUSH1 0x0 DUP1 SLOAD DUP1 PUSH1 0x20 MUL PUSH1 0x20 ADD PUSH1 0x40 MLOAD SWAP1 DUP2 ADD PUSH1 0x40 MSTORE DUP1 SWAP3 SWAP2 SWAP1 DUP2 DUP2 MSTORE PUSH1 0x20 ADD DUP3 DUP1 SLOAD DUP1 ISZERO PUSH2 0x1E0 JUMPI PUSH1 0x20 MUL DUP3 ADD SWAP2 SWAP1 PUSH1 0x0 MSTORE PUSH1 0x20 PUSH1 0x0 KECCAK256 SWAP1 JUMPDEST DUP2 SLOAD DUP2 MSTORE PUSH1 0x20 ADD SWAP1 PUSH1 0x1 ADD SWAP1 DUP1 DUP4 GT PUSH2 0x1CC JUMPI JUMPDEST POP POP POP POP POP SWAP1 POP SWAP2 SWAP1 POP JUMP JUMPDEST PUSH1 0x0 DUP1 JUMPDEST DUP1 DUP4 GT ISZERO PUSH2 0x20B JUMPI DUP1 DUP1 PUSH2 0x203 SWAP1 PUSH2 0x557 JUMP JUMPDEST SWAP2 POP POP PUSH2 0x1F0 JUMP JUMPDEST DUP1 SWAP2 POP POP SWAP2 SWAP1 POP JUMP JUMPDEST PUSH1 0x0 DUP2 DUP2 SLOAD DUP2 LT PUSH2 0x224 JUMPI PUSH1 0x0 DUP1 REVERT JUMPDEST SWAP1 PUSH1 0x0 MSTORE PUSH1 0x20 PUSH1 0x0 KECCAK256 ADD PUSH1 0x0 SWAP2 POP SWAP1 POP SLOAD DUP2 JUMP JUMPDEST PUSH1 0x0 DUP1 REVERT JUMPDEST PUSH1 0x0 DUP2 SWAP1 POP SWAP2 SWAP1 POP JUMP JUMPDEST PUSH2 0x250 DUP2 PUSH2 0x23D JUMP JUMPDEST DUP2 EQ PUSH2 0x25B JUMPI PUSH1 0x0 DUP1 REVERT JUMPDEST POP JUMP JUMPDEST PUSH1 0x0 DUP2 CALLDATALOAD SWAP1 POP PUSH2 0x26D DUP2 PUSH2 0x247 JUMP JUMPDEST SWAP3 SWAP2 POP POP JUMP JUMPDEST PUSH1 0x0 PUSH1 0x20 DUP3 DUP5 SUB SLT ISZERO PUSH2 0x289 JUMPI PUSH2 0x288 PUSH2 0x238 JUMP JUMPDEST JUMPDEST PUSH1 0x0 PUSH2 0x297 DUP5 DUP3 DUP6 ADD PUSH2 0x25E JUMP JUMPDEST SWAP2 POP POP SWAP3 SWAP2 POP POP JUMP JUMPDEST PUSH2 0x2A9 DUP2 PUSH2 0x23D JUMP JUMPDEST DUP3 MSTORE POP POP JUMP JUMPDEST PUSH1 0x0 PUSH1 0x20 DUP3 ADD SWAP1 POP PUSH2 0x2C4 PUSH1 0x0 DUP4 ADD DUP5 PUSH2 0x2A0 JUMP JUMPDEST SWAP3 SWAP2 POP POP JUMP JUMPDEST PUSH1 0x0 DUP2 MLOAD SWAP1 POP SWAP2 SWAP1 POP JUMP JUMPDEST PUSH1 0x0 DUP3 DUP3 MSTORE PUSH1 0x20 DUP3 ADD SWAP1 POP SWAP3 SWAP2 POP POP JUMP JUMPDEST PUSH1 0x0 DUP2 SWAP1 POP PUSH1 0x20 DUP3 ADD SWAP1 POP SWAP2 SWAP1 POP JUMP JUMPDEST PUSH2 0x2FF DUP2 PUSH2 0x23D JUMP JUMPDEST DUP3 MSTORE POP POP JUMP JUMPDEST PUSH1 0x0 PUSH2 0x311 DUP4 DUP4 PUSH2 0x2F6 JUMP JUMPDEST PUSH1 0x20 DUP4 ADD SWAP1 POP SWAP3 SWAP2 POP POP JUMP JUMPDEST PUSH1 0x0 PUSH1 0x20 DUP3 ADD SWAP1 POP SWAP2 SWAP1 POP JUMP JUMPDEST PUSH1 0x0 PUSH2 0x335 DUP3 PUSH2 0x2CA JUMP JUMPDEST PUSH2 0x33F DUP2 DUP6 PUSH2 0x2D5 JUMP JUMPDEST SWAP4 POP PUSH2 0x34A DUP4 PUSH2 0x2E6 JUMP JUMPDEST DUP1 PUSH1 0x0 JUMPDEST DUP4 DUP2 LT ISZERO PUSH2 0x37B JUMPI DUP2 MLOAD PUSH2 0x362 DUP9 DUP3 PUSH2 0x305 JUMP JUMPDEST SWAP8 POP PUSH2 0x36D DUP4 PUSH2 0x31D JUMP JUMPDEST SWAP3 POP POP PUSH1 0x1 DUP2 ADD SWAP1 POP PUSH2 0x34E JUMP JUMPDEST POP DUP6 SWAP4 POP POP POP POP SWAP3 SWAP2 POP POP JUMP JUMPDEST PUSH1 0x0 PUSH1 0x20 DUP3 ADD SWAP1 POP DUP2 DUP2 SUB PUSH1 0x0 DUP4 ADD MSTORE PUSH2 0x3A2 DUP2 DUP5 PUSH2 0x32A JUMP JUMPDEST SWAP1 POP SWAP3 SWAP2 POP POP JUMP JUMPDEST PUSH32 0x4E487B7100000000000000000000000000000000000000000000000000000000 PUSH1 0x0 MSTORE PUSH1 0x11 PUSH1 0x4 MSTORE PUSH1 0x24 PUSH1 0x0 REVERT JUMPDEST PUSH1 0x0 DUP2 PUSH1 0x1 SHR SWAP1 POP SWAP2 SWAP1 POP JUMP JUMPDEST PUSH1 0x0 DUP1 DUP3 SWAP2 POP DUP4 SWAP1 POP JUMPDEST PUSH1 0x1 DUP6 GT ISZERO PUSH2 0x430 JUMPI DUP1 DUP7 DIV DUP2 GT ISZERO PUSH2 0x40C JUMPI PUSH2 0x40B PUSH2 0x3AA JUMP JUMPDEST JUMPDEST PUSH1 0x1 DUP6 AND ISZERO PUSH2 0x41B JUMPI DUP1 DUP3 MUL SWAP2 POP JUMPDEST DUP1 DUP2 MUL SWAP1 POP PUSH2 0x429 DUP6 PUSH2 0x3D9 JUMP JUMPDEST SWAP5 POP PUSH2 0x3F0 JUMP JUMPDEST SWAP5 POP SWAP5 SWAP3 POP POP POP JUMP JUMPDEST PUSH1 0x0 DUP3 PUSH2 0x449 JUMPI PUSH1 0x1 SWAP1 POP PUSH2 0x505 JUMP JUMPDEST DUP2 PUSH2 0x457 JUMPI PUSH1 0x0 SWAP1 POP PUSH2 0x505 JUMP JUMPDEST DUP2 PUSH1 0x1 DUP2 EQ PUSH2 0x46D JUMPI PUSH1 0x2 DUP2 EQ PUSH2 0x477 JUMPI PUSH2 0x4A6 JUMP JUMPDEST PUSH1 0x1 SWAP2 POP POP PUSH2 0x505 JUMP JUMPDEST PUSH1 0xFF DUP5 GT ISZERO PUSH2 0x489 JUMPI PUSH2 0x488 PUSH2 0x3AA JUMP JUMPDEST JUMPDEST DUP4 PUSH1 0x2 EXP SWAP2 POP DUP5 DUP3 GT ISZERO PUSH2 0x4A0 JUMPI PUSH2 0x49F PUSH2 0x3AA JUMP JUMPDEST JUMPDEST POP PUSH2 0x505 JUMP JUMPDEST POP PUSH1 0x20 DUP4 LT PUSH2 0x133 DUP4 LT AND PUSH1 0x4E DUP5 LT PUSH1 0xB DUP5 LT AND OR ISZERO PUSH2 0x4DB JUMPI DUP3 DUP3 EXP SWAP1 POP DUP4 DUP2 GT ISZERO PUSH2 0x4D6 JUMPI PUSH2 0x4D5 PUSH2 0x3AA JUMP JUMPDEST JUMPDEST PUSH2 0x505 JUMP JUMPDEST PUSH2 0x4E8 DUP5 DUP5 DUP5 PUSH1 0x1 PUSH2 0x3E6 JUMP JUMPDEST SWAP3 POP SWAP1 POP DUP2 DUP5 DIV DUP2 GT ISZERO PUSH2 0x4FF JUMPI PUSH2 0x4FE PUSH2 0x3AA JUMP JUMPDEST JUMPDEST DUP2 DUP2 MUL SWAP1 POP JUMPDEST SWAP4 SWAP3 POP POP POP JUMP JUMPDEST PUSH1 0x0 PUSH2 0x517 DUP3 PUSH2 0x23D JUMP JUMPDEST SWAP2 POP PUSH2 0x522 DUP4 PUSH2 0x23D JUMP JUMPDEST SWAP3 POP PUSH2 0x54F PUSH32 0xFFFFFFFFFFFFFFFFFFFFFFFFFFFFFFFFFFFFFFFFFFFFFFFFFFFFFFFFFFFFFFFF DUP5 DUP5 PUSH2 0x439 JUMP JUMPDEST SWAP1 POP SWAP3 SWAP2 POP POP JUMP JUMPDEST PUSH1 0x0 PUSH2 0x562 DUP3 PUSH2 0x23D JUMP JUMPDEST SWAP2 POP PUSH32 0xFFFFFFFFFFFFFFFFFFFFFFFFFFFFFFFFFFFFFFFFFFFFFFFFFFFFFFFFFFFFFFFF DUP3 SUB PUSH2 0x594 JUMPI PUSH2 0x593 PUSH2 0x3AA JUMP JUMPDEST JUMPDEST PUSH1 0x1 DUP3 ADD SWAP1 POP SWAP2 SWAP1 POP JUMP JUMPDEST PUSH1 0x0 PUSH2 0x5AA DUP3 PUSH2 0x23D JUMP JUMPDEST SWAP2 POP PUSH2 0x5B5 DUP4 PUSH2 0x23D JUMP JUMPDEST SWAP3 POP DUP3 DUP3 ADD SWAP1 POP DUP1 DUP3 GT ISZERO PUSH2 0x5CD JUMPI PUSH2 0x5CC PUSH2 0x3AA JUMP JUMPDEST JUMPDEST SWAP3 SWAP2 POP POP JUMP INVALID LOG2 PUSH5 0x6970667358 0x22 SLT KECCAK256 SAR 0xC5 SWAP13 0x1F PUSH12 0xC371629386026630A7121420 0xD4 0x5D PUSH21 0xA80C923D9D51B458D762B49A64736F6C6343000812 STOP CALLER "
		},
		"gasEstimates": {
			"creation": {
				"codeDepositCost": "309000",
				"executionCost": "349",
				"totalCost": "309349"
			},
			"external": {
				"a(uint256)": "infinite",
				"while_1(uint256)": "infinite",
				"while_2(uint256)": "infinite",
				"while_3(uint256)": "infinite"
			}
		},
		"methodIdentifiers": {
			"a(uint256)": "f0fdf834",
			"while_1(uint256)": "5b6d42c2",
			"while_2(uint256)": "4425506b",
			"while_3(uint256)": "0bee723a"
		}
	},
	"abi": [
		{
			"inputs": [
				{
					"internalType": "uint256",
					"name": "",
					"type": "uint256"
				}
			],
			"name": "a",
			"outputs": [
				{
					"internalType": "uint256",
					"name": "",
					"type": "uint256"
				}
			],
			"stateMutability": "view",
			"type": "function"
		},
		{
			"inputs": [
				{
					"internalType": "uint256",
					"name": "_n",
					"type": "uint256"
				}
			],
			"name": "while_1",
			"outputs": [
				{
					"internalType": "uint256",
					"name": "",
					"type": "uint256"
				}
			],
			"stateMutability": "pure",
			"type": "function"
		},
		{
			"inputs": [
				{
					"internalType": "uint256",
					"name": "_n",
					"type": "uint256"
				}
			],
			"name": "while_2",
			"outputs": [
				{
					"internalType": "uint256[]",
					"name": "",
					"type": "uint256[]"
				}
			],
			"stateMutability": "nonpayable",
			"type": "function"
		},
		{
			"inputs": [
				{
					"internalType": "uint256",
					"name": "_n",
					"type": "uint256"
				}
			],
			"name": "while_3",
			"outputs": [
				{
					"internalType": "uint256",
					"name": "",
					"type": "uint256"
				}
			],
			"stateMutability": "pure",
			"type": "function"
		}
	]
}